{
  "_format": "hh-sol-artifact-1",
  "contractName": "Parameters",
  "sourceName": "contracts/worksystems/Parameters.sol",
  "abi": [
    {
      "anonymous": false,
      "inputs": [
        {
          "indexed": true,
          "internalType": "address",
          "name": "previousOwner",
          "type": "address"
        },
        {
          "indexed": true,
          "internalType": "address",
          "name": "newOwner",
          "type": "address"
        }
      ],
      "name": "OwnershipTransferred",
      "type": "event"
    },
    {
      "inputs": [],
      "name": "ARCHIVING_COMMIT_ROUND_DURATION",
      "outputs": [
        {
          "internalType": "uint256",
          "name": "",
          "type": "uint256"
        }
      ],
      "stateMutability": "view",
      "type": "function"
    },
    {
      "inputs": [],
      "name": "ARCHIVING_DATA_BATCH_SIZE",
      "outputs": [
        {
          "internalType": "uint256",
          "name": "",
          "type": "uint256"
        }
      ],
      "stateMutability": "view",
      "type": "function"
    },
    {
      "inputs": [],
      "name": "ARCHIVING_MAX_CONSENSUS_WORKER_COUNT",
      "outputs": [
        {
          "internalType": "uint256",
          "name": "",
          "type": "uint256"
        }
      ],
      "stateMutability": "view",
      "type": "function"
    },
    {
      "inputs": [],
      "name": "ARCHIVING_MIN_CONSENSUS_WORKER_COUNT",
      "outputs": [
        {
          "internalType": "uint256",
          "name": "",
          "type": "uint256"
        }
      ],
      "stateMutability": "view",
      "type": "function"
    },
    {
      "inputs": [],
      "name": "ARCHIVING_MIN_REP_DataValidation",
      "outputs": [
        {
          "internalType": "uint256",
          "name": "",
          "type": "uint256"
        }
      ],
      "stateMutability": "view",
      "type": "function"
    },
    {
      "inputs": [],
      "name": "ARCHIVING_MIN_REWARD_DataValidation",
      "outputs": [
        {
          "internalType": "uint256",
          "name": "",
          "type": "uint256"
        }
      ],
      "stateMutability": "view",
      "type": "function"
    },
    {
      "inputs": [],
      "name": "ARCHIVING_MIN_STAKE",
      "outputs": [
        {
          "internalType": "uint256",
          "name": "",
          "type": "uint256"
        }
      ],
      "stateMutability": "view",
      "type": "function"
    },
    {
      "inputs": [],
      "name": "ARCHIVING_REVEAL_ROUND_DURATION",
      "outputs": [
        {
          "internalType": "uint256",
          "name": "",
          "type": "uint256"
        }
      ],
      "stateMutability": "view",
      "type": "function"
    },
    {
      "inputs": [],
      "name": "AddressManager",
      "outputs": [
        {
          "internalType": "address",
          "name": "",
          "type": "address"
        }
      ],
      "stateMutability": "view",
      "type": "function"
    },
    {
      "inputs": [],
      "name": "ArchivingSystem",
      "outputs": [
        {
          "internalType": "address",
          "name": "",
          "type": "address"
        }
      ],
      "stateMutability": "view",
      "type": "function"
    },
    {
      "inputs": [],
      "name": "COMPLIANCE_COMMIT_ROUND_DURATION",
      "outputs": [
        {
          "internalType": "uint256",
          "name": "",
          "type": "uint256"
        }
      ],
      "stateMutability": "view",
      "type": "function"
    },
    {
      "inputs": [],
      "name": "COMPLIANCE_DATA_BATCH_SIZE",
      "outputs": [
        {
          "internalType": "uint256",
          "name": "",
          "type": "uint256"
        }
      ],
      "stateMutability": "view",
      "type": "function"
    },
    {
      "inputs": [],
      "name": "COMPLIANCE_MAX_CONSENSUS_WORKER_COUNT",
      "outputs": [
        {
          "internalType": "uint256",
          "name": "",
          "type": "uint256"
        }
      ],
      "stateMutability": "view",
      "type": "function"
    },
    {
      "inputs": [],
      "name": "COMPLIANCE_MIN_CONSENSUS_WORKER_COUNT",
      "outputs": [
        {
          "internalType": "uint256",
          "name": "",
          "type": "uint256"
        }
      ],
      "stateMutability": "view",
      "type": "function"
    },
    {
      "inputs": [],
      "name": "COMPLIANCE_MIN_REP_DataValidation",
      "outputs": [
        {
          "internalType": "uint256",
          "name": "",
          "type": "uint256"
        }
      ],
      "stateMutability": "view",
      "type": "function"
    },
    {
      "inputs": [],
      "name": "COMPLIANCE_MIN_REWARD_DataValidation",
      "outputs": [
        {
          "internalType": "uint256",
          "name": "",
          "type": "uint256"
        }
      ],
      "stateMutability": "view",
      "type": "function"
    },
    {
      "inputs": [],
      "name": "COMPLIANCE_MIN_STAKE",
      "outputs": [
        {
          "internalType": "uint256",
          "name": "",
          "type": "uint256"
        }
      ],
      "stateMutability": "view",
      "type": "function"
    },
    {
      "inputs": [],
      "name": "COMPLIANCE_REVEAL_ROUND_DURATION",
      "outputs": [
        {
          "internalType": "uint256",
          "name": "",
          "type": "uint256"
        }
      ],
      "stateMutability": "view",
      "type": "function"
    },
    {
      "inputs": [],
      "name": "ComplianceSystem",
      "outputs": [
        {
          "internalType": "address",
          "name": "",
          "type": "address"
        }
      ],
      "stateMutability": "view",
      "type": "function"
    },
    {
      "inputs": [],
      "name": "INDEXING_COMMIT_ROUND_DURATION",
      "outputs": [
        {
          "internalType": "uint256",
          "name": "",
          "type": "uint256"
        }
      ],
      "stateMutability": "view",
      "type": "function"
    },
    {
      "inputs": [],
      "name": "INDEXING_DATA_BATCH_SIZE",
      "outputs": [
        {
          "internalType": "uint256",
          "name": "",
          "type": "uint256"
        }
      ],
      "stateMutability": "view",
      "type": "function"
    },
    {
      "inputs": [],
      "name": "INDEXING_MAX_CONSENSUS_WORKER_COUNT",
      "outputs": [
        {
          "internalType": "uint256",
          "name": "",
          "type": "uint256"
        }
      ],
      "stateMutability": "view",
      "type": "function"
    },
    {
      "inputs": [],
      "name": "INDEXING_MIN_CONSENSUS_WORKER_COUNT",
      "outputs": [
        {
          "internalType": "uint256",
          "name": "",
          "type": "uint256"
        }
      ],
      "stateMutability": "view",
      "type": "function"
    },
    {
      "inputs": [],
      "name": "INDEXING_MIN_REP_DataValidation",
      "outputs": [
        {
          "internalType": "uint256",
          "name": "",
          "type": "uint256"
        }
      ],
      "stateMutability": "view",
      "type": "function"
    },
    {
      "inputs": [],
      "name": "INDEXING_MIN_REWARD_DataValidation",
      "outputs": [
        {
          "internalType": "uint256",
          "name": "",
          "type": "uint256"
        }
      ],
      "stateMutability": "view",
      "type": "function"
    },
    {
      "inputs": [],
      "name": "INDEXING_MIN_STAKE",
      "outputs": [
        {
          "internalType": "uint256",
          "name": "",
          "type": "uint256"
        }
      ],
      "stateMutability": "view",
      "type": "function"
    },
    {
      "inputs": [],
      "name": "INDEXING_REVEAL_ROUND_DURATION",
      "outputs": [
        {
          "internalType": "uint256",
          "name": "",
          "type": "uint256"
        }
      ],
      "stateMutability": "view",
      "type": "function"
    },
    {
      "inputs": [],
      "name": "IndexingSystem",
      "outputs": [
        {
          "internalType": "address",
          "name": "",
          "type": "address"
        }
      ],
      "stateMutability": "view",
      "type": "function"
    },
    {
      "inputs": [],
      "name": "MAX_CONTRACT_STORED_BATCHES",
      "outputs": [
        {
          "internalType": "uint256",
          "name": "",
          "type": "uint256"
        }
      ],
      "stateMutability": "view",
      "type": "function"
    },
    {
      "inputs": [],
      "name": "MAX_SUCCEEDING_NOVOTES",
      "outputs": [
        {
          "internalType": "uint256",
          "name": "",
          "type": "uint256"
        }
      ],
      "stateMutability": "view",
      "type": "function"
    },
    {
      "inputs": [],
      "name": "MAX_TOTAL_WORKERS",
      "outputs": [
        {
          "internalType": "uint256",
          "name": "",
          "type": "uint256"
        }
      ],
      "stateMutability": "view",
      "type": "function"
    },
    {
      "inputs": [],
      "name": "MAX_UPDATE_ITERATIONS",
      "outputs": [
        {
          "internalType": "uint256",
          "name": "",
          "type": "uint256"
        }
      ],
      "stateMutability": "view",
      "type": "function"
    },
    {
      "inputs": [],
      "name": "NOVOTE_REGISTRATION_WAIT_DURATION",
      "outputs": [
        {
          "internalType": "uint256",
          "name": "",
          "type": "uint256"
        }
      ],
      "stateMutability": "view",
      "type": "function"
    },
    {
      "inputs": [],
      "name": "RepManager",
      "outputs": [
        {
          "internalType": "address",
          "name": "",
          "type": "address"
        }
      ],
      "stateMutability": "view",
      "type": "function"
    },
    {
      "inputs": [],
      "name": "Reputation",
      "outputs": [
        {
          "internalType": "address",
          "name": "",
          "type": "address"
        }
      ],
      "stateMutability": "view",
      "type": "function"
    },
    {
      "inputs": [],
      "name": "RewardManager",
      "outputs": [
        {
          "internalType": "address",
          "name": "",
          "type": "address"
        }
      ],
      "stateMutability": "view",
      "type": "function"
    },
    {
      "inputs": [],
      "name": "SPOT_COMMIT_ROUND_DURATION",
      "outputs": [
        {
          "internalType": "uint256",
          "name": "",
          "type": "uint256"
        }
      ],
      "stateMutability": "view",
      "type": "function"
    },
    {
      "inputs": [],
      "name": "SPOT_DATA_BATCH_SIZE",
      "outputs": [
        {
          "internalType": "uint256",
          "name": "",
          "type": "uint256"
        }
      ],
      "stateMutability": "view",
      "type": "function"
    },
    {
      "inputs": [],
      "name": "SPOT_GLOBAL_MAX_SPOT_PER_PERIOD",
      "outputs": [
        {
          "internalType": "uint256",
          "name": "",
          "type": "uint256"
        }
      ],
      "stateMutability": "view",
      "type": "function"
    },
    {
      "inputs": [],
      "name": "SPOT_INTER_ALLOCATION_DURATION",
      "outputs": [
        {
          "internalType": "uint256",
          "name": "",
          "type": "uint256"
        }
      ],
      "stateMutability": "view",
      "type": "function"
    },
    {
      "inputs": [],
      "name": "SPOT_MAX_CONSENSUS_WORKER_COUNT",
      "outputs": [
        {
          "internalType": "uint256",
          "name": "",
          "type": "uint256"
        }
      ],
      "stateMutability": "view",
      "type": "function"
    },
    {
      "inputs": [],
      "name": "SPOT_MAX_SPOT_PER_USER_PER_PERIOD",
      "outputs": [
        {
          "internalType": "uint256",
          "name": "",
          "type": "uint256"
        }
      ],
      "stateMutability": "view",
      "type": "function"
    },
    {
      "inputs": [],
      "name": "SPOT_MIN_CONSENSUS_WORKER_COUNT",
      "outputs": [
        {
          "internalType": "uint256",
          "name": "",
          "type": "uint256"
        }
      ],
      "stateMutability": "view",
      "type": "function"
    },
    {
      "inputs": [],
      "name": "SPOT_MIN_REP_DataValidation",
      "outputs": [
        {
          "internalType": "uint256",
          "name": "",
          "type": "uint256"
        }
      ],
      "stateMutability": "view",
      "type": "function"
    },
    {
      "inputs": [],
      "name": "SPOT_MIN_REP_SpotData",
      "outputs": [
        {
          "internalType": "uint256",
          "name": "",
          "type": "uint256"
        }
      ],
      "stateMutability": "view",
      "type": "function"
    },
    {
      "inputs": [],
      "name": "SPOT_MIN_REWARD_DataValidation",
      "outputs": [
        {
          "internalType": "uint256",
          "name": "",
          "type": "uint256"
        }
      ],
      "stateMutability": "view",
      "type": "function"
    },
    {
      "inputs": [],
      "name": "SPOT_MIN_REWARD_SpotData",
      "outputs": [
        {
          "internalType": "uint256",
          "name": "",
          "type": "uint256"
        }
      ],
      "stateMutability": "view",
      "type": "function"
    },
    {
      "inputs": [],
      "name": "SPOT_MIN_STAKE",
      "outputs": [
        {
          "internalType": "uint256",
          "name": "",
          "type": "uint256"
        }
      ],
      "stateMutability": "view",
      "type": "function"
    },
    {
      "inputs": [],
      "name": "SPOT_NB_TIMEFRAMES",
      "outputs": [
        {
          "internalType": "uint256",
          "name": "",
          "type": "uint256"
        }
      ],
      "stateMutability": "view",
      "type": "function"
    },
    {
      "inputs": [],
      "name": "SPOT_REVEAL_ROUND_DURATION",
      "outputs": [
        {
          "internalType": "uint256",
          "name": "",
          "type": "uint256"
        }
      ],
      "stateMutability": "view",
      "type": "function"
    },
    {
      "inputs": [],
      "name": "SPOT_TIMEFRAME_DURATION",
      "outputs": [
        {
          "internalType": "uint256",
          "name": "",
          "type": "uint256"
        }
      ],
      "stateMutability": "view",
      "type": "function"
    },
    {
      "inputs": [],
      "name": "SPOT_TOGGLE_ENABLED",
      "outputs": [
        {
          "internalType": "bool",
          "name": "",
          "type": "bool"
        }
      ],
      "stateMutability": "view",
      "type": "function"
    },
    {
      "inputs": [],
      "name": "SpottingSystem",
      "outputs": [
        {
          "internalType": "address",
          "name": "",
          "type": "address"
        }
      ],
      "stateMutability": "view",
      "type": "function"
    },
    {
      "inputs": [],
      "name": "StakeManager",
      "outputs": [
        {
          "internalType": "address",
          "name": "",
          "type": "address"
        }
      ],
      "stateMutability": "view",
      "type": "function"
    },
    {
      "inputs": [],
      "name": "VOTE_QUORUM",
      "outputs": [
        {
          "internalType": "uint256",
          "name": "",
          "type": "uint256"
        }
      ],
      "stateMutability": "view",
      "type": "function"
    },
    {
      "inputs": [],
      "name": "destroyContract",
      "outputs": [],
      "stateMutability": "nonpayable",
      "type": "function"
    },
    {
      "inputs": [],
      "name": "getAddressManager",
      "outputs": [
        {
          "internalType": "address",
          "name": "",
          "type": "address"
        }
      ],
      "stateMutability": "view",
      "type": "function"
    },
    {
      "inputs": [],
      "name": "getArchivingSystem",
      "outputs": [
        {
          "internalType": "address",
          "name": "",
          "type": "address"
        }
      ],
      "stateMutability": "view",
      "type": "function"
    },
    {
      "inputs": [],
      "name": "getComplianceSystem",
      "outputs": [
        {
          "internalType": "address",
          "name": "",
          "type": "address"
        }
      ],
      "stateMutability": "view",
      "type": "function"
    },
    {
      "inputs": [],
      "name": "getExordeToken",
      "outputs": [
        {
          "internalType": "address",
          "name": "",
          "type": "address"
        }
      ],
      "stateMutability": "view",
      "type": "function"
    },
    {
      "inputs": [],
      "name": "getIndexingSystem",
      "outputs": [
        {
          "internalType": "address",
          "name": "",
          "type": "address"
        }
      ],
      "stateMutability": "view",
      "type": "function"
    },
    {
      "inputs": [],
      "name": "getMaxTotalWorkers",
      "outputs": [
        {
          "internalType": "uint256",
          "name": "",
          "type": "uint256"
        }
      ],
      "stateMutability": "view",
      "type": "function"
    },
    {
      "inputs": [],
      "name": "getRepManager",
      "outputs": [
        {
          "internalType": "address",
          "name": "",
          "type": "address"
        }
      ],
      "stateMutability": "view",
      "type": "function"
    },
    {
      "inputs": [],
      "name": "getReputationSystem",
      "outputs": [
        {
          "internalType": "address",
          "name": "",
          "type": "address"
        }
      ],
      "stateMutability": "view",
      "type": "function"
    },
    {
      "inputs": [],
      "name": "getRewardManager",
      "outputs": [
        {
          "internalType": "address",
          "name": "",
          "type": "address"
        }
      ],
      "stateMutability": "view",
      "type": "function"
    },
    {
      "inputs": [],
      "name": "getSpottingSystem",
      "outputs": [
        {
          "internalType": "address",
          "name": "",
          "type": "address"
        }
      ],
      "stateMutability": "view",
      "type": "function"
    },
    {
      "inputs": [],
      "name": "getStakeManager",
      "outputs": [
        {
          "internalType": "address",
          "name": "",
          "type": "address"
        }
      ],
      "stateMutability": "view",
      "type": "function"
    },
    {
      "inputs": [],
      "name": "getVoteQuorum",
      "outputs": [
        {
          "internalType": "uint256",
          "name": "",
          "type": "uint256"
        }
      ],
      "stateMutability": "view",
      "type": "function"
    },
    {
      "inputs": [],
      "name": "get_ARCHIVING_COMMIT_ROUND_DURATION",
      "outputs": [
        {
          "internalType": "uint256",
          "name": "",
          "type": "uint256"
        }
      ],
      "stateMutability": "view",
      "type": "function"
    },
    {
      "inputs": [],
      "name": "get_ARCHIVING_DATA_BATCH_SIZE",
      "outputs": [
        {
          "internalType": "uint256",
          "name": "",
          "type": "uint256"
        }
      ],
      "stateMutability": "view",
      "type": "function"
    },
    {
      "inputs": [],
      "name": "get_ARCHIVING_MAX_CONSENSUS_WORKER_COUNT",
      "outputs": [
        {
          "internalType": "uint256",
          "name": "",
          "type": "uint256"
        }
      ],
      "stateMutability": "view",
      "type": "function"
    },
    {
      "inputs": [],
      "name": "get_ARCHIVING_MIN_CONSENSUS_WORKER_COUNT",
      "outputs": [
        {
          "internalType": "uint256",
          "name": "",
          "type": "uint256"
        }
      ],
      "stateMutability": "view",
      "type": "function"
    },
    {
      "inputs": [],
      "name": "get_ARCHIVING_MIN_REP_DataValidation",
      "outputs": [
        {
          "internalType": "uint256",
          "name": "",
          "type": "uint256"
        }
      ],
      "stateMutability": "view",
      "type": "function"
    },
    {
      "inputs": [],
      "name": "get_ARCHIVING_MIN_REWARD_DataValidation",
      "outputs": [
        {
          "internalType": "uint256",
          "name": "",
          "type": "uint256"
        }
      ],
      "stateMutability": "view",
      "type": "function"
    },
    {
      "inputs": [],
      "name": "get_ARCHIVING_MIN_STAKE",
      "outputs": [
        {
          "internalType": "uint256",
          "name": "",
          "type": "uint256"
        }
      ],
      "stateMutability": "view",
      "type": "function"
    },
    {
      "inputs": [],
      "name": "get_ARCHIVING_REVEAL_ROUND_DURATION",
      "outputs": [
        {
          "internalType": "uint256",
          "name": "",
          "type": "uint256"
        }
      ],
      "stateMutability": "view",
      "type": "function"
    },
    {
      "inputs": [],
      "name": "get_COMPLIANCE_COMMIT_ROUND_DURATION",
      "outputs": [
        {
          "internalType": "uint256",
          "name": "",
          "type": "uint256"
        }
      ],
      "stateMutability": "view",
      "type": "function"
    },
    {
      "inputs": [],
      "name": "get_COMPLIANCE_DATA_BATCH_SIZE",
      "outputs": [
        {
          "internalType": "uint256",
          "name": "",
          "type": "uint256"
        }
      ],
      "stateMutability": "view",
      "type": "function"
    },
    {
      "inputs": [],
      "name": "get_COMPLIANCE_MAX_CONSENSUS_WORKER_COUNT",
      "outputs": [
        {
          "internalType": "uint256",
          "name": "",
          "type": "uint256"
        }
      ],
      "stateMutability": "view",
      "type": "function"
    },
    {
      "inputs": [],
      "name": "get_COMPLIANCE_MIN_CONSENSUS_WORKER_COUNT",
      "outputs": [
        {
          "internalType": "uint256",
          "name": "",
          "type": "uint256"
        }
      ],
      "stateMutability": "view",
      "type": "function"
    },
    {
      "inputs": [],
      "name": "get_COMPLIANCE_MIN_REP_DataValidation",
      "outputs": [
        {
          "internalType": "uint256",
          "name": "",
          "type": "uint256"
        }
      ],
      "stateMutability": "view",
      "type": "function"
    },
    {
      "inputs": [],
      "name": "get_COMPLIANCE_MIN_REWARD_DataValidation",
      "outputs": [
        {
          "internalType": "uint256",
          "name": "",
          "type": "uint256"
        }
      ],
      "stateMutability": "view",
      "type": "function"
    },
    {
      "inputs": [],
      "name": "get_COMPLIANCE_MIN_STAKE",
      "outputs": [
        {
          "internalType": "uint256",
          "name": "",
          "type": "uint256"
        }
      ],
      "stateMutability": "view",
      "type": "function"
    },
    {
      "inputs": [],
      "name": "get_COMPLIANCE_REVEAL_ROUND_DURATION",
      "outputs": [
        {
          "internalType": "uint256",
          "name": "",
          "type": "uint256"
        }
      ],
      "stateMutability": "view",
      "type": "function"
    },
    {
      "inputs": [],
      "name": "get_INDEXING_COMMIT_ROUND_DURATION",
      "outputs": [
        {
          "internalType": "uint256",
          "name": "",
          "type": "uint256"
        }
      ],
      "stateMutability": "view",
      "type": "function"
    },
    {
      "inputs": [],
      "name": "get_INDEXING_DATA_BATCH_SIZE",
      "outputs": [
        {
          "internalType": "uint256",
          "name": "",
          "type": "uint256"
        }
      ],
      "stateMutability": "view",
      "type": "function"
    },
    {
      "inputs": [],
      "name": "get_INDEXING_MAX_CONSENSUS_WORKER_COUNT",
      "outputs": [
        {
          "internalType": "uint256",
          "name": "",
          "type": "uint256"
        }
      ],
      "stateMutability": "view",
      "type": "function"
    },
    {
      "inputs": [],
      "name": "get_INDEXING_MIN_CONSENSUS_WORKER_COUNT",
      "outputs": [
        {
          "internalType": "uint256",
          "name": "",
          "type": "uint256"
        }
      ],
      "stateMutability": "view",
      "type": "function"
    },
    {
      "inputs": [],
      "name": "get_INDEXING_MIN_REP_DataValidation",
      "outputs": [
        {
          "internalType": "uint256",
          "name": "",
          "type": "uint256"
        }
      ],
      "stateMutability": "view",
      "type": "function"
    },
    {
      "inputs": [],
      "name": "get_INDEXING_MIN_REWARD_DataValidation",
      "outputs": [
        {
          "internalType": "uint256",
          "name": "",
          "type": "uint256"
        }
      ],
      "stateMutability": "view",
      "type": "function"
    },
    {
      "inputs": [],
      "name": "get_INDEXING_MIN_STAKE",
      "outputs": [
        {
          "internalType": "uint256",
          "name": "",
          "type": "uint256"
        }
      ],
      "stateMutability": "view",
      "type": "function"
    },
    {
      "inputs": [],
      "name": "get_INDEXING_REVEAL_ROUND_DURATION",
      "outputs": [
        {
          "internalType": "uint256",
          "name": "",
          "type": "uint256"
        }
      ],
      "stateMutability": "view",
      "type": "function"
    },
    {
      "inputs": [],
      "name": "get_MAX_CONTRACT_STORED_BATCHES",
      "outputs": [
        {
          "internalType": "uint256",
          "name": "",
          "type": "uint256"
        }
      ],
      "stateMutability": "view",
      "type": "function"
    },
    {
      "inputs": [],
      "name": "get_MAX_SUCCEEDING_NOVOTES",
      "outputs": [
        {
          "internalType": "uint256",
          "name": "",
          "type": "uint256"
        }
      ],
      "stateMutability": "view",
      "type": "function"
    },
    {
      "inputs": [],
      "name": "get_MAX_UPDATE_ITERATIONS",
      "outputs": [
        {
          "internalType": "uint256",
          "name": "",
          "type": "uint256"
        }
      ],
      "stateMutability": "view",
      "type": "function"
    },
    {
      "inputs": [],
      "name": "get_NOVOTE_REGISTRATION_WAIT_DURATION",
      "outputs": [
        {
          "internalType": "uint256",
          "name": "",
          "type": "uint256"
        }
      ],
      "stateMutability": "view",
      "type": "function"
    },
    {
      "inputs": [],
      "name": "get_SPOT_COMMIT_ROUND_DURATION",
      "outputs": [
        {
          "internalType": "uint256",
          "name": "",
          "type": "uint256"
        }
      ],
      "stateMutability": "view",
      "type": "function"
    },
    {
      "inputs": [],
      "name": "get_SPOT_DATA_BATCH_SIZE",
      "outputs": [
        {
          "internalType": "uint256",
          "name": "",
          "type": "uint256"
        }
      ],
      "stateMutability": "view",
      "type": "function"
    },
    {
      "inputs": [],
      "name": "get_SPOT_GLOBAL_MAX_SPOT_PER_PERIOD",
      "outputs": [
        {
          "internalType": "uint256",
          "name": "",
          "type": "uint256"
        }
      ],
      "stateMutability": "view",
      "type": "function"
    },
    {
      "inputs": [],
      "name": "get_SPOT_INTER_ALLOCATION_DURATION",
      "outputs": [
        {
          "internalType": "uint256",
          "name": "",
          "type": "uint256"
        }
      ],
      "stateMutability": "view",
      "type": "function"
    },
    {
      "inputs": [],
      "name": "get_SPOT_MAX_CONSENSUS_WORKER_COUNT",
      "outputs": [
        {
          "internalType": "uint256",
          "name": "",
          "type": "uint256"
        }
      ],
      "stateMutability": "view",
      "type": "function"
    },
    {
      "inputs": [],
      "name": "get_SPOT_MAX_SPOT_PER_USER_PER_PERIOD",
      "outputs": [
        {
          "internalType": "uint256",
          "name": "",
          "type": "uint256"
        }
      ],
      "stateMutability": "view",
      "type": "function"
    },
    {
      "inputs": [],
      "name": "get_SPOT_MIN_CONSENSUS_WORKER_COUNT",
      "outputs": [
        {
          "internalType": "uint256",
          "name": "",
          "type": "uint256"
        }
      ],
      "stateMutability": "view",
      "type": "function"
    },
    {
      "inputs": [],
      "name": "get_SPOT_MIN_REP_DataValidation",
      "outputs": [
        {
          "internalType": "uint256",
          "name": "",
          "type": "uint256"
        }
      ],
      "stateMutability": "view",
      "type": "function"
    },
    {
      "inputs": [],
      "name": "get_SPOT_MIN_REP_SpotData",
      "outputs": [
        {
          "internalType": "uint256",
          "name": "",
          "type": "uint256"
        }
      ],
      "stateMutability": "view",
      "type": "function"
    },
    {
      "inputs": [],
      "name": "get_SPOT_MIN_REWARD_DataValidation",
      "outputs": [
        {
          "internalType": "uint256",
          "name": "",
          "type": "uint256"
        }
      ],
      "stateMutability": "view",
      "type": "function"
    },
    {
      "inputs": [],
      "name": "get_SPOT_MIN_REWARD_SpotData",
      "outputs": [
        {
          "internalType": "uint256",
          "name": "",
          "type": "uint256"
        }
      ],
      "stateMutability": "view",
      "type": "function"
    },
    {
      "inputs": [],
      "name": "get_SPOT_MIN_STAKE",
      "outputs": [
        {
          "internalType": "uint256",
          "name": "",
          "type": "uint256"
        }
      ],
      "stateMutability": "view",
      "type": "function"
    },
    {
      "inputs": [],
      "name": "get_SPOT_NB_TIMEFRAMES",
      "outputs": [
        {
          "internalType": "uint256",
          "name": "",
          "type": "uint256"
        }
      ],
      "stateMutability": "view",
      "type": "function"
    },
    {
      "inputs": [],
      "name": "get_SPOT_REVEAL_ROUND_DURATION",
      "outputs": [
        {
          "internalType": "uint256",
          "name": "",
          "type": "uint256"
        }
      ],
      "stateMutability": "view",
      "type": "function"
    },
    {
      "inputs": [],
      "name": "get_SPOT_TIMEFRAME_DURATION",
      "outputs": [
        {
          "internalType": "uint256",
          "name": "",
          "type": "uint256"
        }
      ],
      "stateMutability": "view",
      "type": "function"
    },
    {
      "inputs": [],
      "name": "get_SPOT_TOGGLE_ENABLED",
      "outputs": [
        {
          "internalType": "bool",
          "name": "",
          "type": "bool"
        }
      ],
      "stateMutability": "view",
      "type": "function"
    },
    {
      "inputs": [],
      "name": "getsFuelSystem",
      "outputs": [
        {
          "internalType": "address",
          "name": "",
          "type": "address"
        }
      ],
      "stateMutability": "view",
      "type": "function"
    },
    {
      "inputs": [],
      "name": "owner",
      "outputs": [
        {
          "internalType": "address",
          "name": "",
          "type": "address"
        }
      ],
      "stateMutability": "view",
      "type": "function"
    },
    {
      "inputs": [],
      "name": "renounceOwnership",
      "outputs": [],
      "stateMutability": "nonpayable",
      "type": "function"
    },
    {
      "inputs": [],
      "name": "sFuel",
      "outputs": [
        {
          "internalType": "address",
          "name": "",
          "type": "address"
        }
      ],
      "stateMutability": "view",
      "type": "function"
    },
    {
      "inputs": [],
      "name": "token",
      "outputs": [
        {
          "internalType": "address",
          "name": "",
          "type": "address"
        }
      ],
      "stateMutability": "view",
      "type": "function"
    },
    {
      "inputs": [
        {
          "internalType": "address",
          "name": "newOwner",
          "type": "address"
        }
      ],
      "name": "transferOwnership",
      "outputs": [],
      "stateMutability": "nonpayable",
      "type": "function"
    },
    {
      "inputs": [
        {
          "internalType": "uint256",
          "name": "ParameterIndex",
          "type": "uint256"
        },
        {
          "internalType": "uint256",
          "name": "uintValue",
          "type": "uint256"
        }
      ],
      "name": "updateArchivingParameters",
      "outputs": [],
      "stateMutability": "nonpayable",
      "type": "function"
    },
    {
      "inputs": [
        {
          "internalType": "uint256",
          "name": "ParameterIndex",
          "type": "uint256"
        },
        {
          "internalType": "uint256",
          "name": "uintValue",
          "type": "uint256"
        }
      ],
      "name": "updateComplianceParameters",
      "outputs": [],
      "stateMutability": "nonpayable",
      "type": "function"
    },
    {
      "inputs": [
        {
          "internalType": "address",
          "name": "StakeManager_",
          "type": "address"
        },
        {
          "internalType": "address",
          "name": "RepManager_",
          "type": "address"
        },
        {
          "internalType": "address",
          "name": "Reputation_",
          "type": "address"
        },
        {
          "internalType": "address",
          "name": "RewardManager_",
          "type": "address"
        },
        {
          "internalType": "address",
          "name": "AddressManager_",
          "type": "address"
        },
        {
          "internalType": "address",
          "name": "SpottingSystem_",
          "type": "address"
        },
        {
          "internalType": "address",
          "name": "ComplianceSystem_",
          "type": "address"
        },
        {
          "internalType": "address",
          "name": "IndexingSystem_",
          "type": "address"
        },
        {
          "internalType": "address",
          "name": "ArchivingSystem_",
          "type": "address"
        },
        {
          "internalType": "address",
          "name": "sFuel_",
          "type": "address"
        },
        {
          "internalType": "address",
          "name": "token_",
          "type": "address"
        }
      ],
      "name": "updateContractsAddresses",
      "outputs": [],
      "stateMutability": "nonpayable",
      "type": "function"
    },
    {
      "inputs": [
        {
          "internalType": "uint256",
          "name": "ParameterIndex",
          "type": "uint256"
        },
        {
          "internalType": "uint256",
          "name": "uintValue",
          "type": "uint256"
        }
      ],
      "name": "updateGeneralParameters",
      "outputs": [],
      "stateMutability": "nonpayable",
      "type": "function"
    },
    {
      "inputs": [
        {
          "internalType": "uint256",
          "name": "ParameterIndex",
          "type": "uint256"
        },
        {
          "internalType": "uint256",
          "name": "uintValue",
          "type": "uint256"
        }
      ],
      "name": "updateIndexingParameters",
      "outputs": [],
      "stateMutability": "nonpayable",
      "type": "function"
    },
    {
      "inputs": [
        {
          "internalType": "uint256",
          "name": "ParameterIndex",
          "type": "uint256"
        },
        {
          "internalType": "uint256",
          "name": "uintValue",
          "type": "uint256"
        },
        {
          "internalType": "bool",
          "name": "boolValue",
          "type": "bool"
        }
      ],
      "name": "updateSpottingParameters",
      "outputs": [],
      "stateMutability": "nonpayable",
      "type": "function"
    }
  ],
  "bytecode": "0x6080604052620186a06001556032600255603260035562030d40600455601460055568015af1d78b58c4000060065560078055600b6008556101c26009556096600a556509184e72a000600b556611c37937e08000600c556509184e72a000600d5566470de4df820000600e556000600f556001601060006101000a81548160ff02191690831515021790555060f0601155622dc6c06012556103e8601355600f601455600a601555601e60165560016017556002601855600460195568015af1d78b58c40000601a55610190601b5560b4601c5566038d7ea4c68000601d55662386f26fc10000601e556001601f556002602055600460215568015af1d78b58c4000060225561019060235560b460245566038d7ea4c68000602555662386f26fc1000060265560016027556002602855600460295568015af1d78b58c40000602a55610190602b5560b4602c5566038d7ea4c68000602d55662386f26fc10000602e5534801561017057600080fd5b5061017a3361017f565b6101cf565b600080546001600160a01b038381166001600160a01b0319831681178455604051919092169283917f8be0079c531659141344cd1fd0a4f28419497f9722a3daafe3b4186f6b6457e09190a35050565b6114b4806101de6000396000f3fe608060405234801561001057600080fd5b50600436106107635760003560e01c80638a13725d116103c9578063cb3a2a88116101ff578063e6fdd4c011610125578063f5bec1ad116100b8578063fbf1485111610087578063fbf1485114610cb2578063fc0c546a14610cc5578063ff622dda14610cd8578063fff5f94614610ce057600080fd5b8063f5bec1ad14610c87578063f67362fe14610c90578063f80de0a014610ca1578063fb50a47314610ca957600080fd5b8063ee37f4a6116100f4578063ee37f4a614610c50578063f116c4e014610c63578063f2fde38b14610c6b578063f4e20b9c14610c7e57600080fd5b8063e6fdd4c014610c25578063e9704f8114610c2e578063e992dca714610c37578063ea19733c14610c4857600080fd5b8063dfeceed71161019d578063e3dfc0b21161016c578063e3dfc0b214610c04578063e5f1482414610c0c578063e66d543a14610c15578063e68c9c3014610c1d57600080fd5b8063dfeceed714610bd8578063e0de3d7c14610be0578063e168063c14610be9578063e3115d3c14610bfc57600080fd5b8063d4efd2ba116101d9578063d4efd2ba14610bab578063d81109ce14610bb4578063d8645d3714610bbd578063dc7048c114610bd057600080fd5b8063cb3a2a8814610b92578063d0eed96714610b9a578063d1a89a4614610ba357600080fd5b8063abb10b9b116102ef578063be25098811610282578063c6eacbfe11610251578063c6eacbfe14610b66578063c7761fab14610b6f578063c95b53c514610b78578063ca64f9e714610b8157600080fd5b8063be25098814610b45578063bf09ff7014610b4d578063bf34f74914610b56578063c4a306f814610b5e57600080fd5b8063b45d9d8d116102be578063b45d9d8d14610b10578063b611845014610b21578063b6c6ec0214610b2a578063bd40ef4c14610b3d57600080fd5b8063abb10b9b14610aef578063ac846e7914610af7578063b1562f6714610b00578063b38e885e14610b0857600080fd5b8063995adbdd11610367578063a1a4575a11610336578063a1a4575a14610ac2578063a327181b14610aca578063a35b3b0914610ad3578063ab43e78d14610adc57600080fd5b8063995adbdd14610aa15780639a17593814610aa95780639d1f2ada14610ab25780639fb491f614610aba57600080fd5b806390d10b6e116103a357806390d10b6e14610a755780639279e9d414610a7e57806398a54e2b14610a865780639904ed8d14610a8e57600080fd5b80638a13725d14610a545780638da5cb5b14610a5c57806390cc59eb14610a6d57600080fd5b806349b467871161059e578063728d23ab116104c45780638360034d116104575780638724450f116104265780638724450f14610a3257806387ce631114610a3b578063893b2a7614610a4457806389b212d314610a4c57600080fd5b80638360034d14610a0557806383cc6ef214610a0e578063849f9f0a14610a2157806386b0b4c514610a2957600080fd5b80637a0ec25b116104935780637a0ec25b146109d05780637a34da67146109e15780637d630cb0146109f45780637e8603e9146109fc57600080fd5b8063728d23ab146109a357806372e54030146109ac57806375dc6130146109b4578063779231b2146109c757600080fd5b8063557c1abe1161053c578063618790751161050b57806361879075146109765780636785f847146109895780636a8e0ece14610992578063715018a61461099b57600080fd5b8063557c1abe1461094057806355a35f5c146109515780635cb361f6146109645780635d1c31821461096d57600080fd5b80634ed60b2a116105785780634ed60b2a1461090a57806351912f2914610913578063531780bb146109265780635492f3021461092f57600080fd5b806349b46787146108ee5780634e5638f5146108f65780634e87c5a8146108ff57600080fd5b80632b0afab31161068e5780633692616a1161062157806342df5641116105f057806342df5641146108c3578063444d62b6146108cc578063463444b7146108d5578063484df80a146108e657600080fd5b80633692616a1461088e57806336fc43fc14610896578063386d0976146108b35780633968ec84146108bb57600080fd5b80632e2f93f31161065d5780632e2f93f31461086357806330c0bb791461087457806331911c911461087c57806334c37e211461088557600080fd5b80632b0afab3146108365780632be059601461083e5780632bf8abb3146108475780632d09a8e31461085057600080fd5b80630a5a4c2011610706578063175bf630116106d5578063175bf630146108095780631d0fb88e1461081257806329a47bc71461081b57806329e3dd1f1461082e57600080fd5b80630a5a4c20146107e85780630b08bfd9146107f15780630f1f0ffe146107f95780630f78cc761461080157600080fd5b806306606d671161074257806306606d67146107b15780630855d151146107c457806308e7f0db146107d5578063092a5cce146107de57600080fd5b8062653ff8146107685780630363a1bf1461078457806304e76c8f1461078c575b600080fd5b61077160065481565b6040519081526020015b60405180910390f35b602754610771565b6033546001600160a01b03165b6040516001600160a01b03909116815260200161077b565b603754610799906001600160a01b031681565b6032546001600160a01b0316610799565b610771602d5481565b6107e6610ce8565b005b610771602a5481565b600e54610771565b601654610771565b601154610771565b61077160175481565b610771600a5481565b603254610799906001600160a01b031681565b602c54610771565b601c54610771565b61077160265481565b61077160255481565b6107e661085e366004611330565b610cfe565b602f546001600160a01b0316610799565b600b54610771565b61077160195481565b610771601d5481565b600954610771565b6010546108a39060ff1681565b604051901515815260200161077b565b602554610771565b602954610771565b610771601a5481565b61077160205481565b6039546001600160a01b0316610799565b601b54610771565b602e54610771565b61077160045481565b60105460ff166108a3565b61077160275481565b603354610799906001600160a01b031681565b610771602b5481565b6034546001600160a01b0316610799565b6035546001600160a01b0316610799565b6107e661095f3660046113fc565b610eec565b610771600c5481565b61077160285481565b6107e66109843660046113fc565b610f70565b610771601b5481565b610771601e5481565b6107e6610fb4565b61077160185481565b600a54610771565b6107e66109c23660046113fc565b610fc8565b61077160225481565b6038546001600160a01b0316610799565b603454610799906001600160a01b031681565b600354610771565b61077160245481565b610771602c5481565b603054610799906001600160a01b031681565b602654610771565b610771600e5481565b610771600d5481565b61077160115481565b602d54610771565b601e54610771565b602454610771565b6000546001600160a01b0316610799565b602354610771565b61077160035481565b602b54610771565b600154610771565b603154610799906001600160a01b031681565b602854610771565b610771601c5481565b600554610771565b601554610771565b602054610771565b61077160015481565b61077160085481565b603554610799906001600160a01b031681565b600c54610771565b61077160295481565b602a54610771565b601254610771565b6036546001600160a01b0316610799565b61077160145481565b603954610799906001600160a01b031681565b600754610771565b601354610771565b61077160135481565b602254610771565b600f54610771565b61077160055481565b61077160025481565b610771601f5481565b6030546001600160a01b0316610799565b601f54610771565b61077160165481565b601754610771565b61077160155481565b610771600b5481565b603654610799906001600160a01b031681565b601954610771565b600854610771565b61077160125481565b6107e6610bf73660046113fc565b611048565b600454610771565b601a54610771565b610771600f5481565b601454610771565b602154610771565b61077160095481565b61077160235481565b6031546001600160a01b0316610799565b600254610771565b6107e6610c5e36600461141e565b6110c8565b601d54610771565b6107e6610c7936600461145c565b6111ec565b61077160215481565b610771602e5481565b6037546001600160a01b0316610799565b600d54610771565b61077160075481565b603854610799906001600160a01b031681565b602f54610799906001600160a01b031681565b600654610771565b601854610771565b610cf061126a565b6000546001600160a01b0316ff5b610d0661126a565b6001600160a01b038b1615610d3157603080546001600160a01b0319166001600160a01b038d161790555b6001600160a01b038a1615610d5c57603280546001600160a01b0319166001600160a01b038c161790555b6001600160a01b03891615610d8757603180546001600160a01b0319166001600160a01b038b161790555b6001600160a01b03881615610db257603380546001600160a01b0319166001600160a01b038a161790555b6001600160a01b03871615610ddd57603480546001600160a01b0319166001600160a01b0389161790555b6001600160a01b03851615610e0857603780546001600160a01b0319166001600160a01b0387161790555b6001600160a01b03861615610e3357603680546001600160a01b0319166001600160a01b0388161790555b6001600160a01b03841615610e5e57603880546001600160a01b0319166001600160a01b0386161790555b6001600160a01b03831615610e8957603980546001600160a01b0319166001600160a01b0385161790555b6001600160a01b03821615610eb457603580546001600160a01b0319166001600160a01b0384161790555b6001600160a01b03811615610edf57602f80546001600160a01b0319166001600160a01b0383161790555b5050505050505050505050565b610ef461126a565b8160011415610f035760278190555b8160021415610f1257602a8190555b8160031415610f215760288190555b8160041415610f305760298190555b8160051415610f3f57602b8190555b8160061415610f4e57602c8190555b8160071415610f5d57602e8190555b8160081415610f6c57602d8190555b5050565b610f7861126a565b8160011415610f875760018190555b8160021415610f965760028190555b8160031415610fa55760038190555b8160041415610f6c5760045550565b610fbc61126a565b610fc660006112c4565b565b610fd061126a565b8160011415610fdf57601f8190555b8160021415610fee5760228190555b8160031415610ffd5760208190555b816004141561100c5760218190555b816005141561101b5760238190555b816006141561102a5760248190555b81600714156110395760268190555b8160081415610f6c5760255550565b61105061126a565b816001141561105f5760178190555b816002141561106e57601a8190555b816003141561107d5760188190555b816004141561108c5760198190555b816005141561109b57601b8190555b81600614156110aa57601c8190555b81600714156110b957601e8190555b8160081415610f6c57601d5550565b6110d061126a565b82600114156110df5760058290555b82600214156110ee5760068290555b82600314156110fd5760078290555b826004141561110c5760088290555b826005141561111b5760098290555b826006141561112a57600a8290555b826007141561113957600b8290555b826008141561114857600c8290555b826009141561115757600d8290555b82600a141561116657600e8290555b82600b141561117557600f8290555b82600c141561118d576010805460ff19168215151790555b82600d141561119c5760118290555b82600e14156111ab5760128290555b82600f14156111ba5760138290555b82601014156111c95760148290555b82601114156111d85760158290555b82601214156111e75760168290555b505050565b6111f461126a565b6001600160a01b03811661125e5760405162461bcd60e51b815260206004820152602660248201527f4f776e61626c653a206e6577206f776e657220697320746865207a65726f206160448201526564647265737360d01b60648201526084015b60405180910390fd5b611267816112c4565b50565b6000546001600160a01b03163314610fc65760405162461bcd60e51b815260206004820181905260248201527f4f776e61626c653a2063616c6c6572206973206e6f7420746865206f776e65726044820152606401611255565b600080546001600160a01b038381166001600160a01b0319831681178455604051919092169283917f8be0079c531659141344cd1fd0a4f28419497f9722a3daafe3b4186f6b6457e09190a35050565b80356001600160a01b038116811461132b57600080fd5b919050565b60008060008060008060008060008060006101608c8e03121561135257600080fd5b61135b8c611314565b9a5061136960208d01611314565b995061137760408d01611314565b985061138560608d01611314565b975061139360808d01611314565b96506113a160a08d01611314565b95506113af60c08d01611314565b94506113bd60e08d01611314565b93506113cc6101008d01611314565b92506113db6101208d01611314565b91506113ea6101408d01611314565b90509295989b509295989b9093969950565b6000806040838503121561140f57600080fd5b50508035926020909101359150565b60008060006060848603121561143357600080fd5b83359250602084013591506040840135801515811461145157600080fd5b809150509250925092565b60006020828403121561146e57600080fd5b61147782611314565b939250505056fea26469706673582212209a8860d68c60234f6bb968bbe557771266c020df68c77178198680adc723ff3464736f6c63430008080033",
  "linkReferences": {},
  "deployedLinkReferences": {}
}