{
  "_format": "hh-sol-artifact-1",
  "contractName": "Parameters",
  "sourceName": "contracts/worksystems/Parameters.sol",
  "abi": [
    {
      "anonymous": false,
      "inputs": [
        {
          "indexed": true,
          "internalType": "address",
          "name": "previousOwner",
          "type": "address"
        },
        {
          "indexed": true,
          "internalType": "address",
          "name": "newOwner",
          "type": "address"
        }
      ],
      "name": "OwnershipTransferred",
      "type": "event"
    },
    {
      "inputs": [],
      "name": "ARCHIVING_COMMIT_ROUND_DURATION",
      "outputs": [
        {
          "internalType": "uint256",
          "name": "",
          "type": "uint256"
        }
      ],
      "stateMutability": "view",
      "type": "function"
    },
    {
      "inputs": [],
      "name": "ARCHIVING_DATA_BATCH_SIZE",
      "outputs": [
        {
          "internalType": "uint256",
          "name": "",
          "type": "uint256"
        }
      ],
      "stateMutability": "view",
      "type": "function"
    },
    {
      "inputs": [],
      "name": "ARCHIVING_MAX_CONSENSUS_WORKER_COUNT",
      "outputs": [
        {
          "internalType": "uint256",
          "name": "",
          "type": "uint256"
        }
      ],
      "stateMutability": "view",
      "type": "function"
    },
    {
      "inputs": [],
      "name": "ARCHIVING_MIN_CONSENSUS_WORKER_COUNT",
      "outputs": [
        {
          "internalType": "uint256",
          "name": "",
          "type": "uint256"
        }
      ],
      "stateMutability": "view",
      "type": "function"
    },
    {
      "inputs": [],
      "name": "ARCHIVING_MIN_REP_DataValidation",
      "outputs": [
        {
          "internalType": "uint256",
          "name": "",
          "type": "uint256"
        }
      ],
      "stateMutability": "view",
      "type": "function"
    },
    {
      "inputs": [],
      "name": "ARCHIVING_MIN_REWARD_DataValidation",
      "outputs": [
        {
          "internalType": "uint256",
          "name": "",
          "type": "uint256"
        }
      ],
      "stateMutability": "view",
      "type": "function"
    },
    {
      "inputs": [],
      "name": "ARCHIVING_MIN_STAKE",
      "outputs": [
        {
          "internalType": "uint256",
          "name": "",
          "type": "uint256"
        }
      ],
      "stateMutability": "view",
      "type": "function"
    },
    {
      "inputs": [],
      "name": "ARCHIVING_REVEAL_ROUND_DURATION",
      "outputs": [
        {
          "internalType": "uint256",
          "name": "",
          "type": "uint256"
        }
      ],
      "stateMutability": "view",
      "type": "function"
    },
    {
      "inputs": [],
      "name": "AddressManager",
      "outputs": [
        {
          "internalType": "address",
          "name": "",
          "type": "address"
        }
      ],
      "stateMutability": "view",
      "type": "function"
    },
    {
      "inputs": [],
      "name": "ArchivingSystem",
      "outputs": [
        {
          "internalType": "address",
          "name": "",
          "type": "address"
        }
      ],
      "stateMutability": "view",
      "type": "function"
    },
    {
      "inputs": [],
      "name": "COMPLIANCE_COMMIT_ROUND_DURATION",
      "outputs": [
        {
          "internalType": "uint256",
          "name": "",
          "type": "uint256"
        }
      ],
      "stateMutability": "view",
      "type": "function"
    },
    {
      "inputs": [],
      "name": "COMPLIANCE_DATA_BATCH_SIZE",
      "outputs": [
        {
          "internalType": "uint256",
          "name": "",
          "type": "uint256"
        }
      ],
      "stateMutability": "view",
      "type": "function"
    },
    {
      "inputs": [],
      "name": "COMPLIANCE_MAX_CONSENSUS_WORKER_COUNT",
      "outputs": [
        {
          "internalType": "uint256",
          "name": "",
          "type": "uint256"
        }
      ],
      "stateMutability": "view",
      "type": "function"
    },
    {
      "inputs": [],
      "name": "COMPLIANCE_MIN_CONSENSUS_WORKER_COUNT",
      "outputs": [
        {
          "internalType": "uint256",
          "name": "",
          "type": "uint256"
        }
      ],
      "stateMutability": "view",
      "type": "function"
    },
    {
      "inputs": [],
      "name": "COMPLIANCE_MIN_REP_DataValidation",
      "outputs": [
        {
          "internalType": "uint256",
          "name": "",
          "type": "uint256"
        }
      ],
      "stateMutability": "view",
      "type": "function"
    },
    {
      "inputs": [],
      "name": "COMPLIANCE_MIN_REWARD_DataValidation",
      "outputs": [
        {
          "internalType": "uint256",
          "name": "",
          "type": "uint256"
        }
      ],
      "stateMutability": "view",
      "type": "function"
    },
    {
      "inputs": [],
      "name": "COMPLIANCE_MIN_STAKE",
      "outputs": [
        {
          "internalType": "uint256",
          "name": "",
          "type": "uint256"
        }
      ],
      "stateMutability": "view",
      "type": "function"
    },
    {
      "inputs": [],
      "name": "COMPLIANCE_REVEAL_ROUND_DURATION",
      "outputs": [
        {
          "internalType": "uint256",
          "name": "",
          "type": "uint256"
        }
      ],
      "stateMutability": "view",
      "type": "function"
    },
    {
      "inputs": [],
      "name": "ComplianceSystem",
      "outputs": [
        {
          "internalType": "address",
          "name": "",
          "type": "address"
        }
      ],
      "stateMutability": "view",
      "type": "function"
    },
    {
      "inputs": [],
      "name": "INDEXING_COMMIT_ROUND_DURATION",
      "outputs": [
        {
          "internalType": "uint256",
          "name": "",
          "type": "uint256"
        }
      ],
      "stateMutability": "view",
      "type": "function"
    },
    {
      "inputs": [],
      "name": "INDEXING_DATA_BATCH_SIZE",
      "outputs": [
        {
          "internalType": "uint256",
          "name": "",
          "type": "uint256"
        }
      ],
      "stateMutability": "view",
      "type": "function"
    },
    {
      "inputs": [],
      "name": "INDEXING_MAX_CONSENSUS_WORKER_COUNT",
      "outputs": [
        {
          "internalType": "uint256",
          "name": "",
          "type": "uint256"
        }
      ],
      "stateMutability": "view",
      "type": "function"
    },
    {
      "inputs": [],
      "name": "INDEXING_MIN_CONSENSUS_WORKER_COUNT",
      "outputs": [
        {
          "internalType": "uint256",
          "name": "",
          "type": "uint256"
        }
      ],
      "stateMutability": "view",
      "type": "function"
    },
    {
      "inputs": [],
      "name": "INDEXING_MIN_REP_DataValidation",
      "outputs": [
        {
          "internalType": "uint256",
          "name": "",
          "type": "uint256"
        }
      ],
      "stateMutability": "view",
      "type": "function"
    },
    {
      "inputs": [],
      "name": "INDEXING_MIN_REWARD_DataValidation",
      "outputs": [
        {
          "internalType": "uint256",
          "name": "",
          "type": "uint256"
        }
      ],
      "stateMutability": "view",
      "type": "function"
    },
    {
      "inputs": [],
      "name": "INDEXING_MIN_STAKE",
      "outputs": [
        {
          "internalType": "uint256",
          "name": "",
          "type": "uint256"
        }
      ],
      "stateMutability": "view",
      "type": "function"
    },
    {
      "inputs": [],
      "name": "INDEXING_REVEAL_ROUND_DURATION",
      "outputs": [
        {
          "internalType": "uint256",
          "name": "",
          "type": "uint256"
        }
      ],
      "stateMutability": "view",
      "type": "function"
    },
    {
      "inputs": [],
      "name": "IndexingSystem",
      "outputs": [
        {
          "internalType": "address",
          "name": "",
          "type": "address"
        }
      ],
      "stateMutability": "view",
      "type": "function"
    },
    {
      "inputs": [],
      "name": "MAX_CONTRACT_STORED_BATCHES",
      "outputs": [
        {
          "internalType": "uint256",
          "name": "",
          "type": "uint256"
        }
      ],
      "stateMutability": "view",
      "type": "function"
    },
    {
      "inputs": [],
      "name": "MAX_SUCCEEDING_NOVOTES",
      "outputs": [
        {
          "internalType": "uint256",
          "name": "",
          "type": "uint256"
        }
      ],
      "stateMutability": "view",
      "type": "function"
    },
    {
      "inputs": [],
      "name": "MAX_TOTAL_WORKERS",
      "outputs": [
        {
          "internalType": "uint256",
          "name": "",
          "type": "uint256"
        }
      ],
      "stateMutability": "view",
      "type": "function"
    },
    {
      "inputs": [],
      "name": "MAX_UPDATE_ITERATIONS",
      "outputs": [
        {
          "internalType": "uint256",
          "name": "",
          "type": "uint256"
        }
      ],
      "stateMutability": "view",
      "type": "function"
    },
    {
      "inputs": [],
      "name": "NOVOTE_REGISTRATION_WAIT_DURATION",
      "outputs": [
        {
          "internalType": "uint256",
          "name": "",
          "type": "uint256"
        }
      ],
      "stateMutability": "view",
      "type": "function"
    },
    {
      "inputs": [],
      "name": "RepManager",
      "outputs": [
        {
          "internalType": "address",
          "name": "",
          "type": "address"
        }
      ],
      "stateMutability": "view",
      "type": "function"
    },
    {
      "inputs": [],
      "name": "Reputation",
      "outputs": [
        {
          "internalType": "address",
          "name": "",
          "type": "address"
        }
      ],
      "stateMutability": "view",
      "type": "function"
    },
    {
      "inputs": [],
      "name": "RewardManager",
      "outputs": [
        {
          "internalType": "address",
          "name": "",
          "type": "address"
        }
      ],
      "stateMutability": "view",
      "type": "function"
    },
    {
      "inputs": [],
      "name": "SPOT_COMMIT_ROUND_DURATION",
      "outputs": [
        {
          "internalType": "uint256",
          "name": "",
          "type": "uint256"
        }
      ],
      "stateMutability": "view",
      "type": "function"
    },
    {
      "inputs": [],
      "name": "SPOT_DATA_BATCH_SIZE",
      "outputs": [
        {
          "internalType": "uint256",
          "name": "",
          "type": "uint256"
        }
      ],
      "stateMutability": "view",
      "type": "function"
    },
    {
      "inputs": [],
      "name": "SPOT_GLOBAL_MAX_SPOT_PER_PERIOD",
      "outputs": [
        {
          "internalType": "uint256",
          "name": "",
          "type": "uint256"
        }
      ],
      "stateMutability": "view",
      "type": "function"
    },
    {
      "inputs": [],
      "name": "SPOT_INTER_ALLOCATION_DURATION",
      "outputs": [
        {
          "internalType": "uint256",
          "name": "",
          "type": "uint256"
        }
      ],
      "stateMutability": "view",
      "type": "function"
    },
    {
      "inputs": [],
      "name": "SPOT_MAX_CONSENSUS_WORKER_COUNT",
      "outputs": [
        {
          "internalType": "uint256",
          "name": "",
          "type": "uint256"
        }
      ],
      "stateMutability": "view",
      "type": "function"
    },
    {
      "inputs": [],
      "name": "SPOT_MAX_SPOT_PER_USER_PER_PERIOD",
      "outputs": [
        {
          "internalType": "uint256",
          "name": "",
          "type": "uint256"
        }
      ],
      "stateMutability": "view",
      "type": "function"
    },
    {
      "inputs": [],
      "name": "SPOT_MIN_CONSENSUS_WORKER_COUNT",
      "outputs": [
        {
          "internalType": "uint256",
          "name": "",
          "type": "uint256"
        }
      ],
      "stateMutability": "view",
      "type": "function"
    },
    {
      "inputs": [],
      "name": "SPOT_MIN_REP_DataValidation",
      "outputs": [
        {
          "internalType": "uint256",
          "name": "",
          "type": "uint256"
        }
      ],
      "stateMutability": "view",
      "type": "function"
    },
    {
      "inputs": [],
      "name": "SPOT_MIN_REP_SpotData",
      "outputs": [
        {
          "internalType": "uint256",
          "name": "",
          "type": "uint256"
        }
      ],
      "stateMutability": "view",
      "type": "function"
    },
    {
      "inputs": [],
      "name": "SPOT_MIN_REWARD_DataValidation",
      "outputs": [
        {
          "internalType": "uint256",
          "name": "",
          "type": "uint256"
        }
      ],
      "stateMutability": "view",
      "type": "function"
    },
    {
      "inputs": [],
      "name": "SPOT_MIN_REWARD_SpotData",
      "outputs": [
        {
          "internalType": "uint256",
          "name": "",
          "type": "uint256"
        }
      ],
      "stateMutability": "view",
      "type": "function"
    },
    {
      "inputs": [],
      "name": "SPOT_MIN_STAKE",
      "outputs": [
        {
          "internalType": "uint256",
          "name": "",
          "type": "uint256"
        }
      ],
      "stateMutability": "view",
      "type": "function"
    },
    {
      "inputs": [],
      "name": "SPOT_NB_TIMEFRAMES",
      "outputs": [
        {
          "internalType": "uint256",
          "name": "",
          "type": "uint256"
        }
      ],
      "stateMutability": "view",
      "type": "function"
    },
    {
      "inputs": [],
      "name": "SPOT_REVEAL_ROUND_DURATION",
      "outputs": [
        {
          "internalType": "uint256",
          "name": "",
          "type": "uint256"
        }
      ],
      "stateMutability": "view",
      "type": "function"
    },
    {
      "inputs": [],
      "name": "SPOT_TIMEFRAME_DURATION",
      "outputs": [
        {
          "internalType": "uint256",
          "name": "",
          "type": "uint256"
        }
      ],
      "stateMutability": "view",
      "type": "function"
    },
    {
      "inputs": [],
      "name": "SPOT_TOGGLE_ENABLED",
      "outputs": [
        {
          "internalType": "bool",
          "name": "",
          "type": "bool"
        }
      ],
      "stateMutability": "view",
      "type": "function"
    },
    {
      "inputs": [],
      "name": "SpottingSystem",
      "outputs": [
        {
          "internalType": "address",
          "name": "",
          "type": "address"
        }
      ],
      "stateMutability": "view",
      "type": "function"
    },
    {
      "inputs": [],
      "name": "StakeManager",
      "outputs": [
        {
          "internalType": "address",
          "name": "",
          "type": "address"
        }
      ],
      "stateMutability": "view",
      "type": "function"
    },
    {
      "inputs": [],
      "name": "VOTE_QUORUM",
      "outputs": [
        {
          "internalType": "uint256",
          "name": "",
          "type": "uint256"
        }
      ],
      "stateMutability": "view",
      "type": "function"
    },
    {
      "inputs": [],
      "name": "destroyContract",
      "outputs": [],
      "stateMutability": "nonpayable",
      "type": "function"
    },
    {
      "inputs": [],
      "name": "getAddressManager",
      "outputs": [
        {
          "internalType": "address",
          "name": "",
          "type": "address"
        }
      ],
      "stateMutability": "view",
      "type": "function"
    },
    {
      "inputs": [],
      "name": "getArchivingSystem",
      "outputs": [
        {
          "internalType": "address",
          "name": "",
          "type": "address"
        }
      ],
      "stateMutability": "view",
      "type": "function"
    },
    {
      "inputs": [],
      "name": "getComplianceSystem",
      "outputs": [
        {
          "internalType": "address",
          "name": "",
          "type": "address"
        }
      ],
      "stateMutability": "view",
      "type": "function"
    },
    {
      "inputs": [],
      "name": "getExordeToken",
      "outputs": [
        {
          "internalType": "address",
          "name": "",
          "type": "address"
        }
      ],
      "stateMutability": "view",
      "type": "function"
    },
    {
      "inputs": [],
      "name": "getIndexingSystem",
      "outputs": [
        {
          "internalType": "address",
          "name": "",
          "type": "address"
        }
      ],
      "stateMutability": "view",
      "type": "function"
    },
    {
      "inputs": [],
      "name": "getMaxTotalWorkers",
      "outputs": [
        {
          "internalType": "uint256",
          "name": "",
          "type": "uint256"
        }
      ],
      "stateMutability": "view",
      "type": "function"
    },
    {
      "inputs": [],
      "name": "getRepManager",
      "outputs": [
        {
          "internalType": "address",
          "name": "",
          "type": "address"
        }
      ],
      "stateMutability": "view",
      "type": "function"
    },
    {
      "inputs": [],
      "name": "getReputationSystem",
      "outputs": [
        {
          "internalType": "address",
          "name": "",
          "type": "address"
        }
      ],
      "stateMutability": "view",
      "type": "function"
    },
    {
      "inputs": [],
      "name": "getRewardManager",
      "outputs": [
        {
          "internalType": "address",
          "name": "",
          "type": "address"
        }
      ],
      "stateMutability": "view",
      "type": "function"
    },
    {
      "inputs": [],
      "name": "getSpottingSystem",
      "outputs": [
        {
          "internalType": "address",
          "name": "",
          "type": "address"
        }
      ],
      "stateMutability": "view",
      "type": "function"
    },
    {
      "inputs": [],
      "name": "getStakeManager",
      "outputs": [
        {
          "internalType": "address",
          "name": "",
          "type": "address"
        }
      ],
      "stateMutability": "view",
      "type": "function"
    },
    {
      "inputs": [],
      "name": "getVoteQuorum",
      "outputs": [
        {
          "internalType": "uint256",
          "name": "",
          "type": "uint256"
        }
      ],
      "stateMutability": "view",
      "type": "function"
    },
    {
      "inputs": [],
      "name": "get_ARCHIVING_COMMIT_ROUND_DURATION",
      "outputs": [
        {
          "internalType": "uint256",
          "name": "",
          "type": "uint256"
        }
      ],
      "stateMutability": "view",
      "type": "function"
    },
    {
      "inputs": [],
      "name": "get_ARCHIVING_DATA_BATCH_SIZE",
      "outputs": [
        {
          "internalType": "uint256",
          "name": "",
          "type": "uint256"
        }
      ],
      "stateMutability": "view",
      "type": "function"
    },
    {
      "inputs": [],
      "name": "get_ARCHIVING_MAX_CONSENSUS_WORKER_COUNT",
      "outputs": [
        {
          "internalType": "uint256",
          "name": "",
          "type": "uint256"
        }
      ],
      "stateMutability": "view",
      "type": "function"
    },
    {
      "inputs": [],
      "name": "get_ARCHIVING_MIN_CONSENSUS_WORKER_COUNT",
      "outputs": [
        {
          "internalType": "uint256",
          "name": "",
          "type": "uint256"
        }
      ],
      "stateMutability": "view",
      "type": "function"
    },
    {
      "inputs": [],
      "name": "get_ARCHIVING_MIN_REP_DataValidation",
      "outputs": [
        {
          "internalType": "uint256",
          "name": "",
          "type": "uint256"
        }
      ],
      "stateMutability": "view",
      "type": "function"
    },
    {
      "inputs": [],
      "name": "get_ARCHIVING_MIN_REWARD_DataValidation",
      "outputs": [
        {
          "internalType": "uint256",
          "name": "",
          "type": "uint256"
        }
      ],
      "stateMutability": "view",
      "type": "function"
    },
    {
      "inputs": [],
      "name": "get_ARCHIVING_MIN_STAKE",
      "outputs": [
        {
          "internalType": "uint256",
          "name": "",
          "type": "uint256"
        }
      ],
      "stateMutability": "view",
      "type": "function"
    },
    {
      "inputs": [],
      "name": "get_ARCHIVING_REVEAL_ROUND_DURATION",
      "outputs": [
        {
          "internalType": "uint256",
          "name": "",
          "type": "uint256"
        }
      ],
      "stateMutability": "view",
      "type": "function"
    },
    {
      "inputs": [],
      "name": "get_COMPLIANCE_COMMIT_ROUND_DURATION",
      "outputs": [
        {
          "internalType": "uint256",
          "name": "",
          "type": "uint256"
        }
      ],
      "stateMutability": "view",
      "type": "function"
    },
    {
      "inputs": [],
      "name": "get_COMPLIANCE_DATA_BATCH_SIZE",
      "outputs": [
        {
          "internalType": "uint256",
          "name": "",
          "type": "uint256"
        }
      ],
      "stateMutability": "view",
      "type": "function"
    },
    {
      "inputs": [],
      "name": "get_COMPLIANCE_MAX_CONSENSUS_WORKER_COUNT",
      "outputs": [
        {
          "internalType": "uint256",
          "name": "",
          "type": "uint256"
        }
      ],
      "stateMutability": "view",
      "type": "function"
    },
    {
      "inputs": [],
      "name": "get_COMPLIANCE_MIN_CONSENSUS_WORKER_COUNT",
      "outputs": [
        {
          "internalType": "uint256",
          "name": "",
          "type": "uint256"
        }
      ],
      "stateMutability": "view",
      "type": "function"
    },
    {
      "inputs": [],
      "name": "get_COMPLIANCE_MIN_REP_DataValidation",
      "outputs": [
        {
          "internalType": "uint256",
          "name": "",
          "type": "uint256"
        }
      ],
      "stateMutability": "view",
      "type": "function"
    },
    {
      "inputs": [],
      "name": "get_COMPLIANCE_MIN_REWARD_DataValidation",
      "outputs": [
        {
          "internalType": "uint256",
          "name": "",
          "type": "uint256"
        }
      ],
      "stateMutability": "view",
      "type": "function"
    },
    {
      "inputs": [],
      "name": "get_COMPLIANCE_MIN_STAKE",
      "outputs": [
        {
          "internalType": "uint256",
          "name": "",
          "type": "uint256"
        }
      ],
      "stateMutability": "view",
      "type": "function"
    },
    {
      "inputs": [],
      "name": "get_COMPLIANCE_REVEAL_ROUND_DURATION",
      "outputs": [
        {
          "internalType": "uint256",
          "name": "",
          "type": "uint256"
        }
      ],
      "stateMutability": "view",
      "type": "function"
    },
    {
      "inputs": [],
      "name": "get_INDEXING_COMMIT_ROUND_DURATION",
      "outputs": [
        {
          "internalType": "uint256",
          "name": "",
          "type": "uint256"
        }
      ],
      "stateMutability": "view",
      "type": "function"
    },
    {
      "inputs": [],
      "name": "get_INDEXING_DATA_BATCH_SIZE",
      "outputs": [
        {
          "internalType": "uint256",
          "name": "",
          "type": "uint256"
        }
      ],
      "stateMutability": "view",
      "type": "function"
    },
    {
      "inputs": [],
      "name": "get_INDEXING_MAX_CONSENSUS_WORKER_COUNT",
      "outputs": [
        {
          "internalType": "uint256",
          "name": "",
          "type": "uint256"
        }
      ],
      "stateMutability": "view",
      "type": "function"
    },
    {
      "inputs": [],
      "name": "get_INDEXING_MIN_CONSENSUS_WORKER_COUNT",
      "outputs": [
        {
          "internalType": "uint256",
          "name": "",
          "type": "uint256"
        }
      ],
      "stateMutability": "view",
      "type": "function"
    },
    {
      "inputs": [],
      "name": "get_INDEXING_MIN_REP_DataValidation",
      "outputs": [
        {
          "internalType": "uint256",
          "name": "",
          "type": "uint256"
        }
      ],
      "stateMutability": "view",
      "type": "function"
    },
    {
      "inputs": [],
      "name": "get_INDEXING_MIN_REWARD_DataValidation",
      "outputs": [
        {
          "internalType": "uint256",
          "name": "",
          "type": "uint256"
        }
      ],
      "stateMutability": "view",
      "type": "function"
    },
    {
      "inputs": [],
      "name": "get_INDEXING_MIN_STAKE",
      "outputs": [
        {
          "internalType": "uint256",
          "name": "",
          "type": "uint256"
        }
      ],
      "stateMutability": "view",
      "type": "function"
    },
    {
      "inputs": [],
      "name": "get_INDEXING_REVEAL_ROUND_DURATION",
      "outputs": [
        {
          "internalType": "uint256",
          "name": "",
          "type": "uint256"
        }
      ],
      "stateMutability": "view",
      "type": "function"
    },
    {
      "inputs": [],
      "name": "get_MAX_CONTRACT_STORED_BATCHES",
      "outputs": [
        {
          "internalType": "uint256",
          "name": "",
          "type": "uint256"
        }
      ],
      "stateMutability": "view",
      "type": "function"
    },
    {
      "inputs": [],
      "name": "get_MAX_SUCCEEDING_NOVOTES",
      "outputs": [
        {
          "internalType": "uint256",
          "name": "",
          "type": "uint256"
        }
      ],
      "stateMutability": "view",
      "type": "function"
    },
    {
      "inputs": [],
      "name": "get_MAX_UPDATE_ITERATIONS",
      "outputs": [
        {
          "internalType": "uint256",
          "name": "",
          "type": "uint256"
        }
      ],
      "stateMutability": "view",
      "type": "function"
    },
    {
      "inputs": [],
      "name": "get_NOVOTE_REGISTRATION_WAIT_DURATION",
      "outputs": [
        {
          "internalType": "uint256",
          "name": "",
          "type": "uint256"
        }
      ],
      "stateMutability": "view",
      "type": "function"
    },
    {
      "inputs": [],
      "name": "get_SPOT_COMMIT_ROUND_DURATION",
      "outputs": [
        {
          "internalType": "uint256",
          "name": "",
          "type": "uint256"
        }
      ],
      "stateMutability": "view",
      "type": "function"
    },
    {
      "inputs": [],
      "name": "get_SPOT_DATA_BATCH_SIZE",
      "outputs": [
        {
          "internalType": "uint256",
          "name": "",
          "type": "uint256"
        }
      ],
      "stateMutability": "view",
      "type": "function"
    },
    {
      "inputs": [],
      "name": "get_SPOT_GLOBAL_MAX_SPOT_PER_PERIOD",
      "outputs": [
        {
          "internalType": "uint256",
          "name": "",
          "type": "uint256"
        }
      ],
      "stateMutability": "view",
      "type": "function"
    },
    {
      "inputs": [],
      "name": "get_SPOT_INTER_ALLOCATION_DURATION",
      "outputs": [
        {
          "internalType": "uint256",
          "name": "",
          "type": "uint256"
        }
      ],
      "stateMutability": "view",
      "type": "function"
    },
    {
      "inputs": [],
      "name": "get_SPOT_MAX_CONSENSUS_WORKER_COUNT",
      "outputs": [
        {
          "internalType": "uint256",
          "name": "",
          "type": "uint256"
        }
      ],
      "stateMutability": "view",
      "type": "function"
    },
    {
      "inputs": [],
      "name": "get_SPOT_MAX_SPOT_PER_USER_PER_PERIOD",
      "outputs": [
        {
          "internalType": "uint256",
          "name": "",
          "type": "uint256"
        }
      ],
      "stateMutability": "view",
      "type": "function"
    },
    {
      "inputs": [],
      "name": "get_SPOT_MIN_CONSENSUS_WORKER_COUNT",
      "outputs": [
        {
          "internalType": "uint256",
          "name": "",
          "type": "uint256"
        }
      ],
      "stateMutability": "view",
      "type": "function"
    },
    {
      "inputs": [],
      "name": "get_SPOT_MIN_REP_DataValidation",
      "outputs": [
        {
          "internalType": "uint256",
          "name": "",
          "type": "uint256"
        }
      ],
      "stateMutability": "view",
      "type": "function"
    },
    {
      "inputs": [],
      "name": "get_SPOT_MIN_REP_SpotData",
      "outputs": [
        {
          "internalType": "uint256",
          "name": "",
          "type": "uint256"
        }
      ],
      "stateMutability": "view",
      "type": "function"
    },
    {
      "inputs": [],
      "name": "get_SPOT_MIN_REWARD_DataValidation",
      "outputs": [
        {
          "internalType": "uint256",
          "name": "",
          "type": "uint256"
        }
      ],
      "stateMutability": "view",
      "type": "function"
    },
    {
      "inputs": [],
      "name": "get_SPOT_MIN_REWARD_SpotData",
      "outputs": [
        {
          "internalType": "uint256",
          "name": "",
          "type": "uint256"
        }
      ],
      "stateMutability": "view",
      "type": "function"
    },
    {
      "inputs": [],
      "name": "get_SPOT_MIN_STAKE",
      "outputs": [
        {
          "internalType": "uint256",
          "name": "",
          "type": "uint256"
        }
      ],
      "stateMutability": "view",
      "type": "function"
    },
    {
      "inputs": [],
      "name": "get_SPOT_NB_TIMEFRAMES",
      "outputs": [
        {
          "internalType": "uint256",
          "name": "",
          "type": "uint256"
        }
      ],
      "stateMutability": "view",
      "type": "function"
    },
    {
      "inputs": [],
      "name": "get_SPOT_REVEAL_ROUND_DURATION",
      "outputs": [
        {
          "internalType": "uint256",
          "name": "",
          "type": "uint256"
        }
      ],
      "stateMutability": "view",
      "type": "function"
    },
    {
      "inputs": [],
      "name": "get_SPOT_TIMEFRAME_DURATION",
      "outputs": [
        {
          "internalType": "uint256",
          "name": "",
          "type": "uint256"
        }
      ],
      "stateMutability": "view",
      "type": "function"
    },
    {
      "inputs": [],
      "name": "get_SPOT_TOGGLE_ENABLED",
      "outputs": [
        {
          "internalType": "bool",
          "name": "",
          "type": "bool"
        }
      ],
      "stateMutability": "view",
      "type": "function"
    },
    {
      "inputs": [],
      "name": "getsFuelSystem",
      "outputs": [
        {
          "internalType": "address",
          "name": "",
          "type": "address"
        }
      ],
      "stateMutability": "view",
      "type": "function"
    },
    {
      "inputs": [],
      "name": "owner",
      "outputs": [
        {
          "internalType": "address",
          "name": "",
          "type": "address"
        }
      ],
      "stateMutability": "view",
      "type": "function"
    },
    {
      "inputs": [],
      "name": "renounceOwnership",
      "outputs": [],
      "stateMutability": "nonpayable",
      "type": "function"
    },
    {
      "inputs": [],
      "name": "sFuel",
      "outputs": [
        {
          "internalType": "address",
          "name": "",
          "type": "address"
        }
      ],
      "stateMutability": "view",
      "type": "function"
    },
    {
      "inputs": [],
      "name": "token",
      "outputs": [
        {
          "internalType": "address",
          "name": "",
          "type": "address"
        }
      ],
      "stateMutability": "view",
      "type": "function"
    },
    {
      "inputs": [
        {
          "internalType": "address",
          "name": "newOwner",
          "type": "address"
        }
      ],
      "name": "transferOwnership",
      "outputs": [],
      "stateMutability": "nonpayable",
      "type": "function"
    },
    {
      "inputs": [
        {
          "internalType": "uint256",
          "name": "ParameterIndex",
          "type": "uint256"
        },
        {
          "internalType": "uint256",
          "name": "uintValue",
          "type": "uint256"
        }
      ],
      "name": "updateArchivingParameters",
      "outputs": [],
      "stateMutability": "nonpayable",
      "type": "function"
    },
    {
      "inputs": [
        {
          "internalType": "uint256",
          "name": "ParameterIndex",
          "type": "uint256"
        },
        {
          "internalType": "uint256",
          "name": "uintValue",
          "type": "uint256"
        }
      ],
      "name": "updateComplianceParameters",
      "outputs": [],
      "stateMutability": "nonpayable",
      "type": "function"
    },
    {
      "inputs": [
        {
          "internalType": "address",
          "name": "StakeManager_",
          "type": "address"
        },
        {
          "internalType": "address",
          "name": "RepManager_",
          "type": "address"
        },
        {
          "internalType": "address",
          "name": "Reputation_",
          "type": "address"
        },
        {
          "internalType": "address",
          "name": "RewardManager_",
          "type": "address"
        },
        {
          "internalType": "address",
          "name": "AddressManager_",
          "type": "address"
        },
        {
          "internalType": "address",
          "name": "SpottingSystem_",
          "type": "address"
        },
        {
          "internalType": "address",
          "name": "ComplianceSystem_",
          "type": "address"
        },
        {
          "internalType": "address",
          "name": "IndexingSystem_",
          "type": "address"
        },
        {
          "internalType": "address",
          "name": "ArchivingSystem_",
          "type": "address"
        },
        {
          "internalType": "address",
          "name": "sFuel_",
          "type": "address"
        },
        {
          "internalType": "address",
          "name": "token_",
          "type": "address"
        }
      ],
      "name": "updateContractsAddresses",
      "outputs": [],
      "stateMutability": "nonpayable",
      "type": "function"
    },
    {
      "inputs": [
        {
          "internalType": "uint256",
          "name": "ParameterIndex",
          "type": "uint256"
        },
        {
          "internalType": "uint256",
          "name": "uintValue",
          "type": "uint256"
        }
      ],
      "name": "updateGeneralParameters",
      "outputs": [],
      "stateMutability": "nonpayable",
      "type": "function"
    },
    {
      "inputs": [
        {
          "internalType": "uint256",
          "name": "ParameterIndex",
          "type": "uint256"
        },
        {
          "internalType": "uint256",
          "name": "uintValue",
          "type": "uint256"
        }
      ],
      "name": "updateIndexingParameters",
      "outputs": [],
      "stateMutability": "nonpayable",
      "type": "function"
    },
    {
      "inputs": [
        {
          "internalType": "uint256",
          "name": "ParameterIndex",
          "type": "uint256"
        },
        {
          "internalType": "uint256",
          "name": "uintValue",
          "type": "uint256"
        },
        {
          "internalType": "bool",
          "name": "boolValue",
          "type": "bool"
        }
      ],
      "name": "updateSpottingParameters",
      "outputs": [],
      "stateMutability": "nonpayable",
      "type": "function"
    }
  ],
  "bytecode": "0x60806040526103e86001556032600255603260035562030d40600455600160055568015af1d78b58c400006006556002600755600460085560b460095560b4600a5566038d7ea4c68000600b55662386f26fc10000600c5566038d7ea4c68000600d55662386f26fc10000600e55610190600f556001601060006101000a81548160ff0219169083151502179055506103846011556103e8601255601960135560046014556003601555610e1060165560016017556002601855600460195568015af1d78b58c40000601a55610190601b5560b4601c5566038d7ea4c68000601d55662386f26fc10000601e556001601f556002602055600460215568015af1d78b58c4000060225561019060235560b460245566038d7ea4c68000602555662386f26fc1000060265560016027556002602855600460295568015af1d78b58c40000602a55610190602b5560b4602c5566038d7ea4c68000602d55662386f26fc10000602e5534801561017257600080fd5b5061018361017e610188565b61018c565b6101dc565b3390565b600080546001600160a01b038381166001600160a01b0319831681178455604051919092169283917f8be0079c531659141344cd1fd0a4f28419497f9722a3daafe3b4186f6b6457e09190a35050565b61191b806101eb6000396000f3fe608060405234801561001057600080fd5b50600436106107635760003560e01c80638a13725d116103c9578063cb3a2a88116101ff578063e6fdd4c011610125578063f5bec1ad116100b8578063fbf1485111610087578063fbf1485114610ba7578063fc0c546a14610baf578063ff622dda14610bb7578063fff5f94614610bbf57610763565b8063f5bec1ad14610b87578063f67362fe14610b8f578063f80de0a014610b97578063fb50a47314610b9f57610763565b8063ee37f4a6116100f4578063ee37f4a614610b51578063f116c4e014610b64578063f2fde38b14610b6c578063f4e20b9c14610b7f57610763565b8063e6fdd4c014610b31578063e9704f8114610b39578063e992dca714610b41578063ea19733c14610b4957610763565b8063dfeceed71161019d578063e3dfc0b21161016c578063e3dfc0b214610b11578063e5f1482414610b19578063e66d543a14610b21578063e68c9c3014610b2957610763565b8063dfeceed714610ae6578063e0de3d7c14610aee578063e168063c14610af6578063e3115d3c14610b0957610763565b8063d4efd2ba116101d9578063d4efd2ba14610ac6578063d81109ce14610ace578063d8645d3714610ad6578063dc7048c114610ade57610763565b8063cb3a2a8814610aae578063d0eed96714610ab6578063d1a89a4614610abe57610763565b8063abb10b9b116102ef578063be25098811610282578063c6eacbfe11610251578063c6eacbfe14610a8e578063c7761fab14610a96578063c95b53c514610a9e578063ca64f9e714610aa657610763565b8063be25098814610a6e578063bf09ff7014610a76578063bf34f74914610a7e578063c4a306f814610a8657610763565b8063b45d9d8d116102be578063b45d9d8d14610a4e578063b611845014610a56578063b6c6ec0214610a5e578063bd40ef4c14610a6657610763565b8063abb10b9b14610a2e578063ac846e7914610a36578063b1562f6714610a3e578063b38e885e14610a4657610763565b8063995adbdd11610367578063a1a4575a11610336578063a1a4575a14610a0e578063a327181b14610a16578063a35b3b0914610a1e578063ab43e78d14610a2657610763565b8063995adbdd146109ee5780639a175938146109f65780639d1f2ada146109fe5780639fb491f614610a0657610763565b806390d10b6e116103a357806390d10b6e146109ce5780639279e9d4146109d657806398a54e2b146109de5780639904ed8d146109e657610763565b80638a13725d146109b65780638da5cb5b146109be57806390cc59eb146109c657610763565b806349b467871161059e578063728d23ab116104c45780638360034d116104575780638724450f116104265780638724450f1461099657806387ce63111461099e578063893b2a76146109a657806389b212d3146109ae57610763565b80638360034d1461097657806383cc6ef21461097e578063849f9f0a1461098657806386b0b4c51461098e57610763565b80637a0ec25b116104935780637a0ec25b146109565780637a34da671461095e5780637d630cb0146109665780637e8603e91461096e57610763565b8063728d23ab1461092b57806372e540301461093357806375dc61301461093b578063779231b21461094e57610763565b8063557c1abe1161053c578063618790751161050b57806361879075146109005780636785f847146109135780636a8e0ece1461091b578063715018a61461092357610763565b8063557c1abe146108d557806355a35f5c146108dd5780635cb361f6146108f05780635d1c3182146108f857610763565b80634ed60b2a116105785780634ed60b2a146108b557806351912f29146108bd578063531780bb146108c55780635492f302146108cd57610763565b806349b467871461089d5780634e5638f5146108a55780634e87c5a8146108ad57610763565b80632b0afab31161068e5780633692616a1161062157806342df5641116105f057806342df56411461087d578063444d62b614610885578063463444b71461088d578063484df80a1461089557610763565b80633692616a1461085057806336fc43fc14610858578063386d09761461086d5780633968ec841461087557610763565b80632e2f93f31161065d5780632e2f93f31461083057806330c0bb791461083857806331911c911461084057806334c37e211461084857610763565b80632b0afab3146108055780632be059601461080d5780632bf8abb3146108155780632d09a8e31461081d57610763565b80630a5a4c2011610706578063175bf630116106d5578063175bf630146107e55780631d0fb88e146107ed57806329a47bc7146107f557806329e3dd1f146107fd57610763565b80630a5a4c20146107c55780630b08bfd9146107cd5780630f1f0ffe146107d55780630f78cc76146107dd57610763565b806306606d671161074257806306606d67146107a35780630855d151146107ab57806308e7f0db146107b3578063092a5cce146107bb57610763565b8062653ff8146107685780630363a1bf1461078657806304e76c8f1461078e575b600080fd5b610770610bc7565b60405161077d91906118dc565b60405180910390f35b610770610bcd565b610796610bd3565b60405161077d9190611842565b610796610be2565b610796610bf1565b610770610c00565b6107c3610c06565b005b610770610c61565b610770610c67565b610770610c6d565b610770610c73565b610770610c79565b610770610c7f565b610796610c85565b610770610c94565b610770610c9a565b610770610ca0565b610770610ca6565b6107c361082b36600461171a565b610cac565b610796610ed1565b610770610ee0565b610770610ee6565b610770610eec565b610770610ef2565b610860610ef8565b60405161077d9190611856565b610770610f01565b610770610f07565b610770610f0d565b610770610f13565b610796610f19565b610770610f28565b610770610f2e565b610770610f34565b610860610f3a565b610770610f43565b610796610f49565b610770610f58565b610796610f5e565b610796610f6d565b6107c36108eb3660046117e5565b610f7c565b610770611037565b61077061103d565b6107c361090e3660046117e5565b611043565b6107706110be565b6107706110c4565b6107c36110ca565b610770611115565b61077061111b565b6107c36109493660046117e5565b611121565b6107706111d8565b6107966111de565b6107966111ed565b6107706111fc565b610770611202565b610770611208565b61079661120e565b61077061121d565b610770611223565b610770611229565b61077061122f565b610770611235565b61077061123b565b610770611241565b610796611247565b610770611256565b61077061125c565b610770611262565b610770611268565b61079661126e565b61077061127d565b610770611283565b610770611289565b61077061128f565b610770611295565b61077061129b565b6107706112a1565b6107966112a7565b6107706112b6565b6107706112bc565b6107706112c2565b6107706112c8565b6107966112ce565b6107706112dd565b6107966112e3565b6107706112f2565b6107706112f8565b6107706112fe565b610770611304565b61077061130a565b610770611310565b610770611316565b61077061131c565b610796611322565b610770611331565b610770611337565b61077061133d565b610770611343565b610770611349565b61079661134f565b61077061135e565b610770611364565b61077061136a565b6107c3610b043660046117e5565b611370565b610770611427565b61077061142d565b610770611433565b610770611439565b61077061143f565b610770611445565b61077061144b565b610796611451565b610770611460565b6107c3610b5f366004611806565b611466565b6107706115c1565b6107c3610b7a3660046116f9565b6115c7565b610770611638565b61077061163e565b610796611644565b610770611653565b610770611659565b61079661165f565b61079661166e565b61077061167d565b610770611683565b60065481565b60275490565b6033546001600160a01b031690565b6037546001600160a01b031681565b6032546001600160a01b031690565b602d5481565b610c0e611689565b6001600160a01b0316610c1f611247565b6001600160a01b031614610c4e5760405162461bcd60e51b8152600401610c45906118a7565b60405180910390fd5b610c56611247565b6001600160a01b0316ff5b602a5481565b600e5490565b60165490565b60115490565b60175481565b600a5481565b6032546001600160a01b031681565b602c5490565b601c5490565b60265481565b60255481565b610cb4611689565b6001600160a01b0316610cc5611247565b6001600160a01b031614610ceb5760405162461bcd60e51b8152600401610c45906118a7565b6001600160a01b038b1615610d1657603080546001600160a01b0319166001600160a01b038d161790555b6001600160a01b038a1615610d4157603280546001600160a01b0319166001600160a01b038c161790555b6001600160a01b03891615610d6c57603180546001600160a01b0319166001600160a01b038b161790555b6001600160a01b03881615610d9757603380546001600160a01b0319166001600160a01b038a161790555b6001600160a01b03871615610dc257603480546001600160a01b0319166001600160a01b0389161790555b6001600160a01b03851615610ded57603780546001600160a01b0319166001600160a01b0387161790555b6001600160a01b03861615610e1857603680546001600160a01b0319166001600160a01b0388161790555b6001600160a01b03841615610e4357603880546001600160a01b0319166001600160a01b0386161790555b6001600160a01b03831615610e6e57603980546001600160a01b0319166001600160a01b0385161790555b6001600160a01b03821615610e9957603580546001600160a01b0319166001600160a01b0384161790555b6001600160a01b03811615610ec457602f80546001600160a01b0319166001600160a01b0383161790555b5050505050505050505050565b602f546001600160a01b031690565b600b5490565b60195481565b601d5481565b60095490565b60105460ff1681565b60255490565b60295490565b601a5481565b60205481565b6039546001600160a01b031690565b601b5490565b602e5490565b60045481565b60105460ff1690565b60275481565b6033546001600160a01b031681565b602b5481565b6034546001600160a01b031690565b6035546001600160a01b031690565b610f84611689565b6001600160a01b0316610f95611247565b6001600160a01b031614610fbb5760405162461bcd60e51b8152600401610c45906118a7565b8160011415610fca5760278190555b8160021415610fd957602a8190555b8160031415610fe85760288190555b8160041415610ff75760298190555b816005141561100657602b8190555b816006141561101557602c8190555b816007141561102457602e8190555b816008141561103357602d8190555b5050565b600c5481565b60285481565b61104b611689565b6001600160a01b031661105c611247565b6001600160a01b0316146110825760405162461bcd60e51b8152600401610c45906118a7565b81600114156110915760018190555b81600214156110a05760028190555b81600314156110af5760038190555b81600414156110335760045550565b601b5481565b601e5481565b6110d2611689565b6001600160a01b03166110e3611247565b6001600160a01b0316146111095760405162461bcd60e51b8152600401610c45906118a7565b611113600061168d565b565b60185481565b600a5490565b611129611689565b6001600160a01b031661113a611247565b6001600160a01b0316146111605760405162461bcd60e51b8152600401610c45906118a7565b816001141561116f57601f8190555b816002141561117e5760228190555b816003141561118d5760208190555b816004141561119c5760218190555b81600514156111ab5760238190555b81600614156111ba5760248190555b81600714156111c95760268190555b81600814156110335760255550565b60225481565b6038546001600160a01b031690565b6034546001600160a01b031681565b60035490565b60245481565b602c5481565b6030546001600160a01b031681565b60265490565b600e5481565b600d5481565b60115481565b602d5490565b601e5490565b60245490565b6000546001600160a01b031690565b60235490565b60035481565b602b5490565b60015490565b6031546001600160a01b031681565b60285490565b601c5481565b60055490565b60155490565b60205490565b60015481565b60085481565b6035546001600160a01b031681565b600c5490565b60295481565b602a5490565b60125490565b6036546001600160a01b031690565b60145481565b6039546001600160a01b031681565b60075490565b60135490565b60135481565b60225490565b600f5490565b60055481565b60025481565b601f5481565b6030546001600160a01b031690565b601f5490565b60165481565b60175490565b60155481565b600b5481565b6036546001600160a01b031681565b60195490565b60085490565b60125481565b611378611689565b6001600160a01b0316611389611247565b6001600160a01b0316146113af5760405162461bcd60e51b8152600401610c45906118a7565b81600114156113be5760178190555b81600214156113cd57601a8190555b81600314156113dc5760188190555b81600414156113eb5760198190555b81600514156113fa57601b8190555b816006141561140957601c8190555b816007141561141857601e8190555b816008141561103357601d5550565b60045490565b601a5490565b600f5481565b60145490565b60215490565b60095481565b60235481565b6031546001600160a01b031690565b60025490565b61146e611689565b6001600160a01b031661147f611247565b6001600160a01b0316146114a55760405162461bcd60e51b8152600401610c45906118a7565b82600114156114b45760058290555b82600214156114c35760068290555b82600314156114d25760078290555b82600414156114e15760088290555b82600514156114f05760098290555b82600614156114ff57600a8290555b826007141561150e57600b8290555b826008141561151d57600c8290555b826009141561152c57600d8290555b82600a141561153b57600e8290555b82600b141561154a57600f8290555b82600c1415611562576010805460ff19168215151790555b82600d14156115715760118290555b82600e14156115805760128290555b82600f141561158f5760138290555b826010141561159e5760148290555b82601114156115ad5760158290555b82601214156115bc5760168290555b505050565b601d5490565b6115cf611689565b6001600160a01b03166115e0611247565b6001600160a01b0316146116065760405162461bcd60e51b8152600401610c45906118a7565b6001600160a01b03811661162c5760405162461bcd60e51b8152600401610c4590611861565b6116358161168d565b50565b60215481565b602e5481565b6037546001600160a01b031690565b600d5490565b60075481565b6038546001600160a01b031681565b602f546001600160a01b031681565b60065490565b60185490565b3390565b600080546001600160a01b038381166001600160a01b0319831681178455604051919092169283917f8be0079c531659141344cd1fd0a4f28419497f9722a3daafe3b4186f6b6457e09190a35050565b80356001600160a01b03811681146116f457600080fd5b919050565b60006020828403121561170a578081fd5b611713826116dd565b9392505050565b60008060008060008060008060008060006101608c8e03121561173b578687fd5b6117448c6116dd565b9a5061175260208d016116dd565b995061176060408d016116dd565b985061176e60608d016116dd565b975061177c60808d016116dd565b965061178a60a08d016116dd565b955061179860c08d016116dd565b94506117a660e08d016116dd565b93506117b56101008d016116dd565b92506117c46101208d016116dd565b91506117d36101408d016116dd565b90509295989b509295989b9093969950565b600080604083850312156117f7578182fd5b50508035926020909101359150565b60008060006060848603121561181a578283fd5b833592506020840135915060408401358015158114611837578182fd5b809150509250925092565b6001600160a01b0391909116815260200190565b901515815260200190565b60208082526026908201527f4f776e61626c653a206e6577206f776e657220697320746865207a65726f206160408201526564647265737360d01b606082015260800190565b6020808252818101527f4f776e61626c653a2063616c6c6572206973206e6f7420746865206f776e6572604082015260600190565b9081526020019056fea2646970667358221220985935aeca4f086a2cf4e63a932704e29032f8006118f3aa045e3532d6f2cb1b64736f6c63430008000033",
  "linkReferences": {},
  "deployedLinkReferences": {}
}