{
  "_format": "hh-sol-artifact-1",
  "contractName": "Parameters",
  "sourceName": "contracts/worksystems/Parameters.sol",
  "abi": [
    {
      "anonymous": false,
      "inputs": [
        {
          "indexed": true,
          "internalType": "address",
          "name": "previousOwner",
          "type": "address"
        },
        {
          "indexed": true,
          "internalType": "address",
          "name": "newOwner",
          "type": "address"
        }
      ],
      "name": "OwnershipTransferred",
      "type": "event"
    },
    {
      "inputs": [],
      "name": "AddressManager",
      "outputs": [
        {
          "internalType": "address",
          "name": "",
          "type": "address"
        }
      ],
      "stateMutability": "view",
      "type": "function"
    },
    {
      "inputs": [],
      "name": "FORMAT_COMMIT_ROUND_DURATION",
      "outputs": [
        {
          "internalType": "uint256",
          "name": "",
          "type": "uint256"
        }
      ],
      "stateMutability": "view",
      "type": "function"
    },
    {
      "inputs": [],
      "name": "FORMAT_DATA_BATCH_SIZE",
      "outputs": [
        {
          "internalType": "uint256",
          "name": "",
          "type": "uint256"
        }
      ],
      "stateMutability": "view",
      "type": "function"
    },
    {
      "inputs": [],
      "name": "FORMAT_MAX_CONSENSUS_WORKER_COUNT",
      "outputs": [
        {
          "internalType": "uint256",
          "name": "",
          "type": "uint256"
        }
      ],
      "stateMutability": "view",
      "type": "function"
    },
    {
      "inputs": [],
      "name": "FORMAT_MIN_CONSENSUS_WORKER_COUNT",
      "outputs": [
        {
          "internalType": "uint256",
          "name": "",
          "type": "uint256"
        }
      ],
      "stateMutability": "view",
      "type": "function"
    },
    {
      "inputs": [],
      "name": "FORMAT_MIN_REP_Data",
      "outputs": [
        {
          "internalType": "uint256",
          "name": "",
          "type": "uint256"
        }
      ],
      "stateMutability": "view",
      "type": "function"
    },
    {
      "inputs": [],
      "name": "FORMAT_MIN_REWARD_Data",
      "outputs": [
        {
          "internalType": "uint256",
          "name": "",
          "type": "uint256"
        }
      ],
      "stateMutability": "view",
      "type": "function"
    },
    {
      "inputs": [],
      "name": "FORMAT_MIN_STAKE",
      "outputs": [
        {
          "internalType": "uint256",
          "name": "",
          "type": "uint256"
        }
      ],
      "stateMutability": "view",
      "type": "function"
    },
    {
      "inputs": [],
      "name": "FORMAT_REVEAL_ROUND_DURATION",
      "outputs": [
        {
          "internalType": "uint256",
          "name": "",
          "type": "uint256"
        }
      ],
      "stateMutability": "view",
      "type": "function"
    },
    {
      "inputs": [],
      "name": "FormattingSystem",
      "outputs": [
        {
          "internalType": "address",
          "name": "",
          "type": "address"
        }
      ],
      "stateMutability": "view",
      "type": "function"
    },
    {
      "inputs": [],
      "name": "MAX_CONTRACT_STORED_BATCHES",
      "outputs": [
        {
          "internalType": "uint256",
          "name": "",
          "type": "uint256"
        }
      ],
      "stateMutability": "view",
      "type": "function"
    },
    {
      "inputs": [],
      "name": "MAX_SUCCEEDING_NOVOTES",
      "outputs": [
        {
          "internalType": "uint256",
          "name": "",
          "type": "uint256"
        }
      ],
      "stateMutability": "view",
      "type": "function"
    },
    {
      "inputs": [],
      "name": "MAX_TOTAL_WORKERS",
      "outputs": [
        {
          "internalType": "uint256",
          "name": "",
          "type": "uint256"
        }
      ],
      "stateMutability": "view",
      "type": "function"
    },
    {
      "inputs": [],
      "name": "MAX_UPDATE_ITERATIONS",
      "outputs": [
        {
          "internalType": "uint256",
          "name": "",
          "type": "uint256"
        }
      ],
      "stateMutability": "view",
      "type": "function"
    },
    {
      "inputs": [],
      "name": "NOVOTE_REGISTRATION_WAIT_DURATION",
      "outputs": [
        {
          "internalType": "uint256",
          "name": "",
          "type": "uint256"
        }
      ],
      "stateMutability": "view",
      "type": "function"
    },
    {
      "inputs": [],
      "name": "RepManager",
      "outputs": [
        {
          "internalType": "address",
          "name": "",
          "type": "address"
        }
      ],
      "stateMutability": "view",
      "type": "function"
    },
    {
      "inputs": [],
      "name": "RewardManager",
      "outputs": [
        {
          "internalType": "address",
          "name": "",
          "type": "address"
        }
      ],
      "stateMutability": "view",
      "type": "function"
    },
    {
      "inputs": [],
      "name": "SPOT_COMMIT_ROUND_DURATION",
      "outputs": [
        {
          "internalType": "uint256",
          "name": "",
          "type": "uint256"
        }
      ],
      "stateMutability": "view",
      "type": "function"
    },
    {
      "inputs": [],
      "name": "SPOT_DATA_BATCH_SIZE",
      "outputs": [
        {
          "internalType": "uint256",
          "name": "",
          "type": "uint256"
        }
      ],
      "stateMutability": "view",
      "type": "function"
    },
    {
      "inputs": [],
      "name": "SPOT_GLOBAL_MAX_SPOT_PER_PERIOD",
      "outputs": [
        {
          "internalType": "uint256",
          "name": "",
          "type": "uint256"
        }
      ],
      "stateMutability": "view",
      "type": "function"
    },
    {
      "inputs": [],
      "name": "SPOT_INTER_ALLOCATION_DURATION",
      "outputs": [
        {
          "internalType": "uint256",
          "name": "",
          "type": "uint256"
        }
      ],
      "stateMutability": "view",
      "type": "function"
    },
    {
      "inputs": [],
      "name": "SPOT_MAX_CONSENSUS_WORKER_COUNT",
      "outputs": [
        {
          "internalType": "uint256",
          "name": "",
          "type": "uint256"
        }
      ],
      "stateMutability": "view",
      "type": "function"
    },
    {
      "inputs": [],
      "name": "SPOT_MAX_SPOT_PER_USER_PER_PERIOD",
      "outputs": [
        {
          "internalType": "uint256",
          "name": "",
          "type": "uint256"
        }
      ],
      "stateMutability": "view",
      "type": "function"
    },
    {
      "inputs": [],
      "name": "SPOT_MIN_CONSENSUS_WORKER_COUNT",
      "outputs": [
        {
          "internalType": "uint256",
          "name": "",
          "type": "uint256"
        }
      ],
      "stateMutability": "view",
      "type": "function"
    },
    {
      "inputs": [],
      "name": "SPOT_MIN_REP_Data",
      "outputs": [
        {
          "internalType": "uint256",
          "name": "",
          "type": "uint256"
        }
      ],
      "stateMutability": "view",
      "type": "function"
    },
    {
      "inputs": [],
      "name": "SPOT_MIN_REWARD_Data",
      "outputs": [
        {
          "internalType": "uint256",
          "name": "",
          "type": "uint256"
        }
      ],
      "stateMutability": "view",
      "type": "function"
    },
    {
      "inputs": [],
      "name": "SPOT_MIN_STAKE",
      "outputs": [
        {
          "internalType": "uint256",
          "name": "",
          "type": "uint256"
        }
      ],
      "stateMutability": "view",
      "type": "function"
    },
    {
      "inputs": [],
      "name": "SPOT_NB_TIMEFRAMES",
      "outputs": [
        {
          "internalType": "uint256",
          "name": "",
          "type": "uint256"
        }
      ],
      "stateMutability": "view",
      "type": "function"
    },
    {
      "inputs": [],
      "name": "SPOT_REVEAL_ROUND_DURATION",
      "outputs": [
        {
          "internalType": "uint256",
          "name": "",
          "type": "uint256"
        }
      ],
      "stateMutability": "view",
      "type": "function"
    },
    {
      "inputs": [],
      "name": "SPOT_TIMEFRAME_DURATION",
      "outputs": [
        {
          "internalType": "uint256",
          "name": "",
          "type": "uint256"
        }
      ],
      "stateMutability": "view",
      "type": "function"
    },
    {
      "inputs": [],
      "name": "SPOT_TOGGLE_ENABLED",
      "outputs": [
        {
          "internalType": "bool",
          "name": "",
          "type": "bool"
        }
      ],
      "stateMutability": "view",
      "type": "function"
    },
    {
      "inputs": [],
      "name": "SpottingSystem",
      "outputs": [
        {
          "internalType": "address",
          "name": "",
          "type": "address"
        }
      ],
      "stateMutability": "view",
      "type": "function"
    },
    {
      "inputs": [],
      "name": "StakeManager",
      "outputs": [
        {
          "internalType": "address",
          "name": "",
          "type": "address"
        }
      ],
      "stateMutability": "view",
      "type": "function"
    },
    {
      "inputs": [],
      "name": "VOTE_QUORUM",
      "outputs": [
        {
          "internalType": "uint256",
          "name": "",
          "type": "uint256"
        }
      ],
      "stateMutability": "view",
      "type": "function"
    },
    {
      "inputs": [],
      "name": "getExordeToken",
      "outputs": [
        {
          "internalType": "address",
          "name": "",
          "type": "address"
        }
      ],
      "stateMutability": "view",
      "type": "function"
    },
    {
      "inputs": [],
      "name": "getFormattingSystem",
      "outputs": [
        {
          "internalType": "address",
          "name": "",
          "type": "address"
        }
      ],
      "stateMutability": "view",
      "type": "function"
    },
    {
      "inputs": [],
      "name": "getMaxTotalWorkers",
      "outputs": [
        {
          "internalType": "uint256",
          "name": "",
          "type": "uint256"
        }
      ],
      "stateMutability": "view",
      "type": "function"
    },
    {
      "inputs": [],
      "name": "getRepManager",
      "outputs": [
        {
          "internalType": "address",
          "name": "",
          "type": "address"
        }
      ],
      "stateMutability": "view",
      "type": "function"
    },
    {
      "inputs": [],
      "name": "getRewardManager",
      "outputs": [
        {
          "internalType": "address",
          "name": "",
          "type": "address"
        }
      ],
      "stateMutability": "view",
      "type": "function"
    },
    {
      "inputs": [],
      "name": "getSpottingSystem",
      "outputs": [
        {
          "internalType": "address",
          "name": "",
          "type": "address"
        }
      ],
      "stateMutability": "view",
      "type": "function"
    },
    {
      "inputs": [],
      "name": "getStakeManager",
      "outputs": [
        {
          "internalType": "address",
          "name": "",
          "type": "address"
        }
      ],
      "stateMutability": "view",
      "type": "function"
    },
    {
      "inputs": [],
      "name": "getVoteQuorum",
      "outputs": [
        {
          "internalType": "uint256",
          "name": "",
          "type": "uint256"
        }
      ],
      "stateMutability": "view",
      "type": "function"
    },
    {
      "inputs": [],
      "name": "get_FORMAT_COMMIT_ROUND_DURATION",
      "outputs": [
        {
          "internalType": "uint256",
          "name": "",
          "type": "uint256"
        }
      ],
      "stateMutability": "view",
      "type": "function"
    },
    {
      "inputs": [],
      "name": "get_FORMAT_DATA_BATCH_SIZE",
      "outputs": [
        {
          "internalType": "uint256",
          "name": "",
          "type": "uint256"
        }
      ],
      "stateMutability": "view",
      "type": "function"
    },
    {
      "inputs": [],
      "name": "get_FORMAT_MAX_CONSENSUS_WORKER_COUNT",
      "outputs": [
        {
          "internalType": "uint256",
          "name": "",
          "type": "uint256"
        }
      ],
      "stateMutability": "view",
      "type": "function"
    },
    {
      "inputs": [],
      "name": "get_FORMAT_MIN_CONSENSUS_WORKER_COUNT",
      "outputs": [
        {
          "internalType": "uint256",
          "name": "",
          "type": "uint256"
        }
      ],
      "stateMutability": "view",
      "type": "function"
    },
    {
      "inputs": [],
      "name": "get_FORMAT_MIN_REP_Data",
      "outputs": [
        {
          "internalType": "uint256",
          "name": "",
          "type": "uint256"
        }
      ],
      "stateMutability": "view",
      "type": "function"
    },
    {
      "inputs": [],
      "name": "get_FORMAT_MIN_REWARD_Data",
      "outputs": [
        {
          "internalType": "uint256",
          "name": "",
          "type": "uint256"
        }
      ],
      "stateMutability": "view",
      "type": "function"
    },
    {
      "inputs": [],
      "name": "get_FORMAT_MIN_STAKE",
      "outputs": [
        {
          "internalType": "uint256",
          "name": "",
          "type": "uint256"
        }
      ],
      "stateMutability": "view",
      "type": "function"
    },
    {
      "inputs": [],
      "name": "get_FORMAT_REVEAL_ROUND_DURATION",
      "outputs": [
        {
          "internalType": "uint256",
          "name": "",
          "type": "uint256"
        }
      ],
      "stateMutability": "view",
      "type": "function"
    },
    {
      "inputs": [],
      "name": "get_MAX_CONTRACT_STORED_BATCHES",
      "outputs": [
        {
          "internalType": "uint256",
          "name": "",
          "type": "uint256"
        }
      ],
      "stateMutability": "view",
      "type": "function"
    },
    {
      "inputs": [],
      "name": "get_MAX_SUCCEEDING_NOVOTES",
      "outputs": [
        {
          "internalType": "uint256",
          "name": "",
          "type": "uint256"
        }
      ],
      "stateMutability": "view",
      "type": "function"
    },
    {
      "inputs": [],
      "name": "get_MAX_UPDATE_ITERATIONS",
      "outputs": [
        {
          "internalType": "uint256",
          "name": "",
          "type": "uint256"
        }
      ],
      "stateMutability": "view",
      "type": "function"
    },
    {
      "inputs": [],
      "name": "get_NOVOTE_REGISTRATION_WAIT_DURATION",
      "outputs": [
        {
          "internalType": "uint256",
          "name": "",
          "type": "uint256"
        }
      ],
      "stateMutability": "view",
      "type": "function"
    },
    {
      "inputs": [],
      "name": "get_SPOT_COMMIT_ROUND_DURATION",
      "outputs": [
        {
          "internalType": "uint256",
          "name": "",
          "type": "uint256"
        }
      ],
      "stateMutability": "view",
      "type": "function"
    },
    {
      "inputs": [],
      "name": "get_SPOT_DATA_BATCH_SIZE",
      "outputs": [
        {
          "internalType": "uint256",
          "name": "",
          "type": "uint256"
        }
      ],
      "stateMutability": "view",
      "type": "function"
    },
    {
      "inputs": [],
      "name": "get_SPOT_GLOBAL_MAX_SPOT_PER_PERIOD",
      "outputs": [
        {
          "internalType": "uint256",
          "name": "",
          "type": "uint256"
        }
      ],
      "stateMutability": "view",
      "type": "function"
    },
    {
      "inputs": [],
      "name": "get_SPOT_INTER_ALLOCATION_DURATION",
      "outputs": [
        {
          "internalType": "uint256",
          "name": "",
          "type": "uint256"
        }
      ],
      "stateMutability": "view",
      "type": "function"
    },
    {
      "inputs": [],
      "name": "get_SPOT_MAX_CONSENSUS_WORKER_COUNT",
      "outputs": [
        {
          "internalType": "uint256",
          "name": "",
          "type": "uint256"
        }
      ],
      "stateMutability": "view",
      "type": "function"
    },
    {
      "inputs": [],
      "name": "get_SPOT_MAX_SPOT_PER_USER_PER_PERIOD",
      "outputs": [
        {
          "internalType": "uint256",
          "name": "",
          "type": "uint256"
        }
      ],
      "stateMutability": "view",
      "type": "function"
    },
    {
      "inputs": [],
      "name": "get_SPOT_MIN_CONSENSUS_WORKER_COUNT",
      "outputs": [
        {
          "internalType": "uint256",
          "name": "",
          "type": "uint256"
        }
      ],
      "stateMutability": "view",
      "type": "function"
    },
    {
      "inputs": [],
      "name": "get_SPOT_MIN_REP_Data",
      "outputs": [
        {
          "internalType": "uint256",
          "name": "",
          "type": "uint256"
        }
      ],
      "stateMutability": "view",
      "type": "function"
    },
    {
      "inputs": [],
      "name": "get_SPOT_MIN_REWARD_Data",
      "outputs": [
        {
          "internalType": "uint256",
          "name": "",
          "type": "uint256"
        }
      ],
      "stateMutability": "view",
      "type": "function"
    },
    {
      "inputs": [],
      "name": "get_SPOT_MIN_STAKE",
      "outputs": [
        {
          "internalType": "uint256",
          "name": "",
          "type": "uint256"
        }
      ],
      "stateMutability": "view",
      "type": "function"
    },
    {
      "inputs": [],
      "name": "get_SPOT_NB_TIMEFRAMES",
      "outputs": [
        {
          "internalType": "uint256",
          "name": "",
          "type": "uint256"
        }
      ],
      "stateMutability": "view",
      "type": "function"
    },
    {
      "inputs": [],
      "name": "get_SPOT_REVEAL_ROUND_DURATION",
      "outputs": [
        {
          "internalType": "uint256",
          "name": "",
          "type": "uint256"
        }
      ],
      "stateMutability": "view",
      "type": "function"
    },
    {
      "inputs": [],
      "name": "get_SPOT_TIMEFRAME_DURATION",
      "outputs": [
        {
          "internalType": "uint256",
          "name": "",
          "type": "uint256"
        }
      ],
      "stateMutability": "view",
      "type": "function"
    },
    {
      "inputs": [],
      "name": "get_SPOT_TOGGLE_ENABLED",
      "outputs": [
        {
          "internalType": "bool",
          "name": "",
          "type": "bool"
        }
      ],
      "stateMutability": "view",
      "type": "function"
    },
    {
      "inputs": [],
      "name": "getsFuelSystem",
      "outputs": [
        {
          "internalType": "address",
          "name": "",
          "type": "address"
        }
      ],
      "stateMutability": "view",
      "type": "function"
    },
    {
      "inputs": [],
      "name": "owner",
      "outputs": [
        {
          "internalType": "address",
          "name": "",
          "type": "address"
        }
      ],
      "stateMutability": "view",
      "type": "function"
    },
    {
      "inputs": [],
      "name": "renounceOwnership",
      "outputs": [],
      "stateMutability": "nonpayable",
      "type": "function"
    },
    {
      "inputs": [],
      "name": "sFuel",
      "outputs": [
        {
          "internalType": "address",
          "name": "",
          "type": "address"
        }
      ],
      "stateMutability": "view",
      "type": "function"
    },
    {
      "inputs": [],
      "name": "token",
      "outputs": [
        {
          "internalType": "address",
          "name": "",
          "type": "address"
        }
      ],
      "stateMutability": "view",
      "type": "function"
    },
    {
      "inputs": [
        {
          "internalType": "address",
          "name": "newOwner",
          "type": "address"
        }
      ],
      "name": "transferOwnership",
      "outputs": [],
      "stateMutability": "nonpayable",
      "type": "function"
    },
    {
      "inputs": [
        {
          "internalType": "address",
          "name": "StakeManager_",
          "type": "address"
        },
        {
          "internalType": "address",
          "name": "RepManager_",
          "type": "address"
        },
        {
          "internalType": "address",
          "name": "RewardManager_",
          "type": "address"
        },
        {
          "internalType": "address",
          "name": "AddressManager_",
          "type": "address"
        },
        {
          "internalType": "address",
          "name": "SpottingSystem_",
          "type": "address"
        },
        {
          "internalType": "address",
          "name": "FormattingSystem_",
          "type": "address"
        },
        {
          "internalType": "address",
          "name": "sFuel_",
          "type": "address"
        },
        {
          "internalType": "address",
          "name": "token_",
          "type": "address"
        }
      ],
      "name": "updateContractsAddresses",
      "outputs": [],
      "stateMutability": "nonpayable",
      "type": "function"
    },
    {
      "inputs": [
        {
          "internalType": "uint256",
          "name": "ParameterIndex",
          "type": "uint256"
        },
        {
          "internalType": "uint256",
          "name": "uintValue",
          "type": "uint256"
        }
      ],
      "name": "updateFormattingParameters",
      "outputs": [],
      "stateMutability": "nonpayable",
      "type": "function"
    },
    {
      "inputs": [
        {
          "internalType": "uint256",
          "name": "ParameterIndex",
          "type": "uint256"
        },
        {
          "internalType": "uint256",
          "name": "uintValue",
          "type": "uint256"
        }
      ],
      "name": "updateGeneralParameters",
      "outputs": [],
      "stateMutability": "nonpayable",
      "type": "function"
    },
    {
      "inputs": [
        {
          "internalType": "uint256",
          "name": "ParameterIndex",
          "type": "uint256"
        },
        {
          "internalType": "uint256",
          "name": "uintValue",
          "type": "uint256"
        },
        {
          "internalType": "bool",
          "name": "boolValue",
          "type": "bool"
        }
      ],
      "name": "updateSpottingParameters",
      "outputs": [],
      "stateMutability": "nonpayable",
      "type": "function"
    }
  ],
  "bytecode": "0x60806040526103e86001556032600255603260035562030d40600455600160055568015af1d78b58c400006006556002600755600460085560b460095560b4600a55671bc16d674ec80000600b5568022b1c8c1227a00000600c55610190600d556001600e60006101000a81548160ff021916908315150217905550610384600f556103e8601055601960115560046012556003601355610e1060145560016015556002601655600460175568015af1d78b58c4000060185561019060195560b4601a556729a2241af62c0000601b556802b5e3af16b1880000601c553480156100e857600080fd5b506100f96100f46100fe565b610102565b610152565b3390565b600080546001600160a01b038381166001600160a01b0319831681178455604051919092169283917f8be0079c531659141344cd1fd0a4f28419497f9722a3daafe3b4186f6b6457e09190a35050565b6110c3806101616000396000f3fe608060405234801561001057600080fd5b50600436106104695760003560e01c80639d1f2ada1161024c578063ca820e9b11610146578063e6fdd4c0116100c3578063f2fde38b11610087578063f2fde38b14610714578063fb50a47314610727578063fc0c546a1461072f578063fe72274914610737578063ff622dda1461073f57610469565b8063e6fdd4c0146106e1578063ea19733c146106e9578063ea663ed9146106f1578063ee37f4a6146106f9578063f250ae2d1461070c57610469565b8063e0de3d7c1161010a578063e0de3d7c146106b9578063e28fdeec146106c1578063e3115d3c146106c9578063e5f14824146106d1578063e66d543a146106d957610469565b8063ca820e9b14610691578063d0eed96714610699578063d4efd2ba146106a1578063d8645d37146106a9578063dfeceed7146106b157610469565b8063b45d9d8d116101d4578063bf09ff7011610198578063bf09ff7014610669578063c4a306f814610671578063c6eacbfe14610679578063c7761fab14610681578063ca64f9e71461068957610469565b8063b45d9d8d14610641578063b5c92a3f14610649578063b611845014610651578063bd40ef4c14610659578063be2509881461066157610469565b8063a35b3b091161021b578063a35b3b0914610619578063ab43e78d14610621578063acbe4f3e14610629578063b368b92814610631578063b38e885e1461063957610469565b80639d1f2ada146105f95780639fb491f614610601578063a02f991414610609578063a327181b1461061157610469565b8063544037a51161036857806372e54030116102e557806387ce6311116102a957806387ce6311146105d15780638d289f8f146105d95780638da5cb5b146105e157806390d10b6e146105e957806398a54e2b146105f157610469565b806372e54030146105a957806377ad500c146105b15780637a34da67146105b95780637d630cb0146105c157806383cc6ef2146105c957610469565b806362c11afa1161032c57806362c11afa1461057657806368bd36151461057e5780636b13edc11461058657806370d29bdf14610599578063715018a6146105a157610469565b8063544037a514610536578063557c1abe1461053e57806357716b7f146105465780635e481a181461054e578063618790751461056357610469565b806323aea691116103f65780633692616a116103ba5780633692616a1461050157806336fc43fc146105095780634e5638f51461051e5780634e87c5a81461052657806351912f291461052e57610469565b806323aea691146104d957806329a47bc7146104e15780632c1480c0146104e95780632c658ec0146104f15780632e2f93f3146104f957610469565b80630f1f0ffe1161043d5780630f1f0ffe146104b15780630f78cc76146104b9578063134667be146104c1578063166ff4c7146104c95780631d0fb88e146104d157610469565b8062653ff81461046e57806302c5a49f1461048c57806304e76c8f146104945780630855d151146104a9575b600080fd5b610476610747565b6040516104839190611084565b60405180910390f35b61047661074d565b61049c610753565b6040516104839190610fea565b61049c610762565b610476610771565b610476610777565b61047661077d565b610476610783565b610476610789565b61047661078f565b61049c610795565b6104766107a4565b6104766107aa565b61049c6107b0565b6104766107bf565b6105116107c5565b6040516104839190610ffe565b6104766107ce565b6105116107d4565b61049c6107dd565b6104766107ec565b61049c6107f2565b610476610801565b61056161055c366004610ef7565b610807565b005b610561610571366004610f8d565b6109b1565b610476610a30565b61049c610a36565b610561610594366004610f8d565b610a45565b610476610afc565b610561610b02565b610476610b4d565b610476610b53565b61049c610b59565b610476610b68565b61049c610b6e565b610476610b7d565b61049c610b83565b61049c610b92565b610476610ba1565b610476610ba7565b610476610bad565b610476610bb3565b610476610bb9565b610476610bbf565b610476610bc5565b61049c610bcb565b610476610bda565b610476610be0565b610476610be6565b61049c610bec565b610476610bfb565b610476610c01565b610476610c07565b610476610c0d565b610476610c13565b610476610c19565b610476610c1f565b610476610c25565b61049c610c2b565b610476610c3a565b610476610c40565b610476610c46565b61049c610c4c565b610476610c5b565b610476610c61565b610476610c67565b610476610c6d565b610476610c73565b610476610c79565b610476610c7f565b610476610c85565b610476610c8b565b610561610707366004610fae565b610c91565b610476610dce565b610561610722366004610ed6565b610dd4565b610476610e45565b61049c610e4b565b610476610e5a565b610476610e60565b60065481565b601a5490565b6020546001600160a01b031690565b601f546001600160a01b031690565b60145490565b600f5490565b601c5481565b60165490565b600a5481565b60185490565b601f546001600160a01b031681565b600b5490565b60185481565b601d546001600160a01b031690565b60095490565b600e5460ff1681565b60045481565b600e5460ff1690565b6020546001600160a01b031681565b60165481565b6024546001600160a01b031690565b60155490565b61080f610e66565b6001600160a01b0316610820610b92565b6001600160a01b03161461084f5760405162461bcd60e51b81526004016108469061104f565b60405180910390fd5b6001600160a01b0388161561087a57601e80546001600160a01b0319166001600160a01b038a161790555b6001600160a01b038716156108a557601f80546001600160a01b0319166001600160a01b0389161790555b6001600160a01b038616156108d057602080546001600160a01b0319166001600160a01b0388161790555b6001600160a01b038516156108fb57602180546001600160a01b0319166001600160a01b0387161790555b6001600160a01b0384161561092657602280546001600160a01b0319166001600160a01b0386161790555b6001600160a01b0383161561095157602380546001600160a01b0319166001600160a01b0385161790555b6001600160a01b0382161561097c57602480546001600160a01b0319166001600160a01b0384161790555b6001600160a01b038116156109a757601d80546001600160a01b0319166001600160a01b0383161790555b5050505050505050565b6109b9610e66565b6001600160a01b03166109ca610b92565b6001600160a01b0316146109f05760405162461bcd60e51b81526004016108469061104f565b81600114156109ff5760018190555b8160021415610a0e5760028190555b8160031415610a1d5760038190555b8160041415610a2c5760048190555b5050565b601a5481565b6023546001600160a01b031690565b610a4d610e66565b6001600160a01b0316610a5e610b92565b6001600160a01b031614610a845760405162461bcd60e51b81526004016108469061104f565b8160011415610a935760158190555b8160021415610aa25760188190555b8160031415610ab15760168190555b8160041415610ac05760178190555b8160051415610acf5760198190555b8160061415610ade57601a8190555b8160071415610aed57601b8190555b8160081415610a2c57601c5550565b60175490565b610b0a610e66565b6001600160a01b0316610b1b610b92565b6001600160a01b031614610b415760405162461bcd60e51b81526004016108469061104f565b610b4b6000610e6a565b565b600a5490565b601b5490565b6021546001600160a01b031681565b60035490565b601e546001600160a01b031681565b600f5481565b6023546001600160a01b031681565b6000546001600160a01b031690565b60035481565b60015490565b60055490565b60135490565b60195490565b60015481565b60085481565b6024546001600160a01b031681565b600c5490565b60195481565b60105490565b6022546001600160a01b031690565b600c5481565b60125481565b60075490565b60115490565b60115481565b600d5490565b60055481565b60025481565b601e546001600160a01b031690565b601b5481565b60145481565b60135481565b6022546001600160a01b031681565b60085490565b60105481565b60175481565b60045490565b600d5481565b60125490565b60095481565b60025490565b60155481565b610c99610e66565b6001600160a01b0316610caa610b92565b6001600160a01b031614610cd05760405162461bcd60e51b81526004016108469061104f565b8260011415610cdf5760058290555b8260021415610cee5760068290555b8260031415610cfd5760078290555b8260041415610d0c5760088290555b8260051415610d1b5760098290555b8260061415610d2a57600a8290555b8260071415610d3957600b8290555b8260081415610d4857600c8290555b8260091415610d5757600d8290555b82600a1415610d6f57600e805460ff19168215151790555b82600b1415610d7e57600f8290555b82600c1415610d8d5760108290555b82600d1415610d9c5760118290555b82600e1415610dab5760128290555b82600f1415610dba5760138290555b8260101415610dc95760148290555b505050565b601c5490565b610ddc610e66565b6001600160a01b0316610ded610b92565b6001600160a01b031614610e135760405162461bcd60e51b81526004016108469061104f565b6001600160a01b038116610e395760405162461bcd60e51b815260040161084690611009565b610e4281610e6a565b50565b60075481565b601d546001600160a01b031681565b600b5481565b60065490565b3390565b600080546001600160a01b038381166001600160a01b0319831681178455604051919092169283917f8be0079c531659141344cd1fd0a4f28419497f9722a3daafe3b4186f6b6457e09190a35050565b80356001600160a01b0381168114610ed157600080fd5b919050565b600060208284031215610ee7578081fd5b610ef082610eba565b9392505050565b600080600080600080600080610100898b031215610f13578384fd5b610f1c89610eba565b9750610f2a60208a01610eba565b9650610f3860408a01610eba565b9550610f4660608a01610eba565b9450610f5460808a01610eba565b9350610f6260a08a01610eba565b9250610f7060c08a01610eba565b9150610f7e60e08a01610eba565b90509295985092959890939650565b60008060408385031215610f9f578182fd5b50508035926020909101359150565b600080600060608486031215610fc2578283fd5b833592506020840135915060408401358015158114610fdf578182fd5b809150509250925092565b6001600160a01b0391909116815260200190565b901515815260200190565b60208082526026908201527f4f776e61626c653a206e6577206f776e657220697320746865207a65726f206160408201526564647265737360d01b606082015260800190565b6020808252818101527f4f776e61626c653a2063616c6c6572206973206e6f7420746865206f776e6572604082015260600190565b9081526020019056fea2646970667358221220f61811b67c8f0288e8aaadd2497b77318abaa176010335b6e27ba71e5cf1ead464736f6c63430008000033",
  "linkReferences": {},
  "deployedLinkReferences": {}
}