{
  "_format": "hh-sol-artifact-1",
  "contractName": "Parameters",
  "sourceName": "contracts/worksystems/Parameters.sol",
  "abi": [
    {
      "anonymous": false,
      "inputs": [
        {
          "indexed": true,
          "internalType": "address",
          "name": "previousOwner",
          "type": "address"
        },
        {
          "indexed": true,
          "internalType": "address",
          "name": "newOwner",
          "type": "address"
        }
      ],
      "name": "OwnershipTransferred",
      "type": "event"
    },
    {
      "inputs": [],
      "name": "AddressManager",
      "outputs": [
        {
          "internalType": "address",
          "name": "",
          "type": "address"
        }
      ],
      "stateMutability": "view",
      "type": "function"
    },
    {
      "inputs": [],
      "name": "FORMAT_COMMIT_ROUND_DURATION",
      "outputs": [
        {
          "internalType": "uint256",
          "name": "",
          "type": "uint256"
        }
      ],
      "stateMutability": "view",
      "type": "function"
    },
    {
      "inputs": [],
      "name": "FORMAT_DATA_BATCH_SIZE",
      "outputs": [
        {
          "internalType": "uint256",
          "name": "",
          "type": "uint256"
        }
      ],
      "stateMutability": "view",
      "type": "function"
    },
    {
      "inputs": [],
      "name": "FORMAT_MAX_CONSENSUS_WORKER_COUNT",
      "outputs": [
        {
          "internalType": "uint256",
          "name": "",
          "type": "uint256"
        }
      ],
      "stateMutability": "view",
      "type": "function"
    },
    {
      "inputs": [],
      "name": "FORMAT_MIN_CONSENSUS_WORKER_COUNT",
      "outputs": [
        {
          "internalType": "uint256",
          "name": "",
          "type": "uint256"
        }
      ],
      "stateMutability": "view",
      "type": "function"
    },
    {
      "inputs": [],
      "name": "FORMAT_MIN_REP_DataValidation",
      "outputs": [
        {
          "internalType": "uint256",
          "name": "",
          "type": "uint256"
        }
      ],
      "stateMutability": "view",
      "type": "function"
    },
    {
      "inputs": [],
      "name": "FORMAT_MIN_REWARD_DataValidation",
      "outputs": [
        {
          "internalType": "uint256",
          "name": "",
          "type": "uint256"
        }
      ],
      "stateMutability": "view",
      "type": "function"
    },
    {
      "inputs": [],
      "name": "FORMAT_MIN_STAKE",
      "outputs": [
        {
          "internalType": "uint256",
          "name": "",
          "type": "uint256"
        }
      ],
      "stateMutability": "view",
      "type": "function"
    },
    {
      "inputs": [],
      "name": "FORMAT_REVEAL_ROUND_DURATION",
      "outputs": [
        {
          "internalType": "uint256",
          "name": "",
          "type": "uint256"
        }
      ],
      "stateMutability": "view",
      "type": "function"
    },
    {
      "inputs": [],
      "name": "FormattingSystem",
      "outputs": [
        {
          "internalType": "address",
          "name": "",
          "type": "address"
        }
      ],
      "stateMutability": "view",
      "type": "function"
    },
    {
      "inputs": [],
      "name": "MAX_CONTRACT_STORED_BATCHES",
      "outputs": [
        {
          "internalType": "uint256",
          "name": "",
          "type": "uint256"
        }
      ],
      "stateMutability": "view",
      "type": "function"
    },
    {
      "inputs": [],
      "name": "MAX_SUCCEEDING_NOVOTES",
      "outputs": [
        {
          "internalType": "uint256",
          "name": "",
          "type": "uint256"
        }
      ],
      "stateMutability": "view",
      "type": "function"
    },
    {
      "inputs": [],
      "name": "MAX_TOTAL_WORKERS",
      "outputs": [
        {
          "internalType": "uint256",
          "name": "",
          "type": "uint256"
        }
      ],
      "stateMutability": "view",
      "type": "function"
    },
    {
      "inputs": [],
      "name": "MAX_UPDATE_ITERATIONS",
      "outputs": [
        {
          "internalType": "uint256",
          "name": "",
          "type": "uint256"
        }
      ],
      "stateMutability": "view",
      "type": "function"
    },
    {
      "inputs": [],
      "name": "NOVOTE_REGISTRATION_WAIT_DURATION",
      "outputs": [
        {
          "internalType": "uint256",
          "name": "",
          "type": "uint256"
        }
      ],
      "stateMutability": "view",
      "type": "function"
    },
    {
      "inputs": [],
      "name": "RepManager",
      "outputs": [
        {
          "internalType": "address",
          "name": "",
          "type": "address"
        }
      ],
      "stateMutability": "view",
      "type": "function"
    },
    {
      "inputs": [],
      "name": "RewardManager",
      "outputs": [
        {
          "internalType": "address",
          "name": "",
          "type": "address"
        }
      ],
      "stateMutability": "view",
      "type": "function"
    },
    {
      "inputs": [],
      "name": "SPOT_COMMIT_ROUND_DURATION",
      "outputs": [
        {
          "internalType": "uint256",
          "name": "",
          "type": "uint256"
        }
      ],
      "stateMutability": "view",
      "type": "function"
    },
    {
      "inputs": [],
      "name": "SPOT_DATA_BATCH_SIZE",
      "outputs": [
        {
          "internalType": "uint256",
          "name": "",
          "type": "uint256"
        }
      ],
      "stateMutability": "view",
      "type": "function"
    },
    {
      "inputs": [],
      "name": "SPOT_GLOBAL_MAX_SPOT_PER_PERIOD",
      "outputs": [
        {
          "internalType": "uint256",
          "name": "",
          "type": "uint256"
        }
      ],
      "stateMutability": "view",
      "type": "function"
    },
    {
      "inputs": [],
      "name": "SPOT_INTER_ALLOCATION_DURATION",
      "outputs": [
        {
          "internalType": "uint256",
          "name": "",
          "type": "uint256"
        }
      ],
      "stateMutability": "view",
      "type": "function"
    },
    {
      "inputs": [],
      "name": "SPOT_MAX_CONSENSUS_WORKER_COUNT",
      "outputs": [
        {
          "internalType": "uint256",
          "name": "",
          "type": "uint256"
        }
      ],
      "stateMutability": "view",
      "type": "function"
    },
    {
      "inputs": [],
      "name": "SPOT_MAX_SPOT_PER_USER_PER_PERIOD",
      "outputs": [
        {
          "internalType": "uint256",
          "name": "",
          "type": "uint256"
        }
      ],
      "stateMutability": "view",
      "type": "function"
    },
    {
      "inputs": [],
      "name": "SPOT_MIN_CONSENSUS_WORKER_COUNT",
      "outputs": [
        {
          "internalType": "uint256",
          "name": "",
          "type": "uint256"
        }
      ],
      "stateMutability": "view",
      "type": "function"
    },
    {
      "inputs": [],
      "name": "SPOT_MIN_REP_DataValidation",
      "outputs": [
        {
          "internalType": "uint256",
          "name": "",
          "type": "uint256"
        }
      ],
      "stateMutability": "view",
      "type": "function"
    },
    {
      "inputs": [],
      "name": "SPOT_MIN_REP_SpotData",
      "outputs": [
        {
          "internalType": "uint256",
          "name": "",
          "type": "uint256"
        }
      ],
      "stateMutability": "view",
      "type": "function"
    },
    {
      "inputs": [],
      "name": "SPOT_MIN_REWARD_DataValidation",
      "outputs": [
        {
          "internalType": "uint256",
          "name": "",
          "type": "uint256"
        }
      ],
      "stateMutability": "view",
      "type": "function"
    },
    {
      "inputs": [],
      "name": "SPOT_MIN_REWARD_SpotData",
      "outputs": [
        {
          "internalType": "uint256",
          "name": "",
          "type": "uint256"
        }
      ],
      "stateMutability": "view",
      "type": "function"
    },
    {
      "inputs": [],
      "name": "SPOT_MIN_STAKE",
      "outputs": [
        {
          "internalType": "uint256",
          "name": "",
          "type": "uint256"
        }
      ],
      "stateMutability": "view",
      "type": "function"
    },
    {
      "inputs": [],
      "name": "SPOT_NB_TIMEFRAMES",
      "outputs": [
        {
          "internalType": "uint256",
          "name": "",
          "type": "uint256"
        }
      ],
      "stateMutability": "view",
      "type": "function"
    },
    {
      "inputs": [],
      "name": "SPOT_REVEAL_ROUND_DURATION",
      "outputs": [
        {
          "internalType": "uint256",
          "name": "",
          "type": "uint256"
        }
      ],
      "stateMutability": "view",
      "type": "function"
    },
    {
      "inputs": [],
      "name": "SPOT_TIMEFRAME_DURATION",
      "outputs": [
        {
          "internalType": "uint256",
          "name": "",
          "type": "uint256"
        }
      ],
      "stateMutability": "view",
      "type": "function"
    },
    {
      "inputs": [],
      "name": "SPOT_TOGGLE_ENABLED",
      "outputs": [
        {
          "internalType": "bool",
          "name": "",
          "type": "bool"
        }
      ],
      "stateMutability": "view",
      "type": "function"
    },
    {
      "inputs": [],
      "name": "SpottingSystem",
      "outputs": [
        {
          "internalType": "address",
          "name": "",
          "type": "address"
        }
      ],
      "stateMutability": "view",
      "type": "function"
    },
    {
      "inputs": [],
      "name": "StakeManager",
      "outputs": [
        {
          "internalType": "address",
          "name": "",
          "type": "address"
        }
      ],
      "stateMutability": "view",
      "type": "function"
    },
    {
      "inputs": [],
      "name": "VOTE_QUORUM",
      "outputs": [
        {
          "internalType": "uint256",
          "name": "",
          "type": "uint256"
        }
      ],
      "stateMutability": "view",
      "type": "function"
    },
    {
      "inputs": [],
      "name": "getExordeToken",
      "outputs": [
        {
          "internalType": "address",
          "name": "",
          "type": "address"
        }
      ],
      "stateMutability": "view",
      "type": "function"
    },
    {
      "inputs": [],
      "name": "getFormattingSystem",
      "outputs": [
        {
          "internalType": "address",
          "name": "",
          "type": "address"
        }
      ],
      "stateMutability": "view",
      "type": "function"
    },
    {
      "inputs": [],
      "name": "getMaxTotalWorkers",
      "outputs": [
        {
          "internalType": "uint256",
          "name": "",
          "type": "uint256"
        }
      ],
      "stateMutability": "view",
      "type": "function"
    },
    {
      "inputs": [],
      "name": "getRepManager",
      "outputs": [
        {
          "internalType": "address",
          "name": "",
          "type": "address"
        }
      ],
      "stateMutability": "view",
      "type": "function"
    },
    {
      "inputs": [],
      "name": "getRewardManager",
      "outputs": [
        {
          "internalType": "address",
          "name": "",
          "type": "address"
        }
      ],
      "stateMutability": "view",
      "type": "function"
    },
    {
      "inputs": [],
      "name": "getSpottingSystem",
      "outputs": [
        {
          "internalType": "address",
          "name": "",
          "type": "address"
        }
      ],
      "stateMutability": "view",
      "type": "function"
    },
    {
      "inputs": [],
      "name": "getStakeManager",
      "outputs": [
        {
          "internalType": "address",
          "name": "",
          "type": "address"
        }
      ],
      "stateMutability": "view",
      "type": "function"
    },
    {
      "inputs": [],
      "name": "getVoteQuorum",
      "outputs": [
        {
          "internalType": "uint256",
          "name": "",
          "type": "uint256"
        }
      ],
      "stateMutability": "view",
      "type": "function"
    },
    {
      "inputs": [],
      "name": "get_FORMAT_COMMIT_ROUND_DURATION",
      "outputs": [
        {
          "internalType": "uint256",
          "name": "",
          "type": "uint256"
        }
      ],
      "stateMutability": "view",
      "type": "function"
    },
    {
      "inputs": [],
      "name": "get_FORMAT_DATA_BATCH_SIZE",
      "outputs": [
        {
          "internalType": "uint256",
          "name": "",
          "type": "uint256"
        }
      ],
      "stateMutability": "view",
      "type": "function"
    },
    {
      "inputs": [],
      "name": "get_FORMAT_MAX_CONSENSUS_WORKER_COUNT",
      "outputs": [
        {
          "internalType": "uint256",
          "name": "",
          "type": "uint256"
        }
      ],
      "stateMutability": "view",
      "type": "function"
    },
    {
      "inputs": [],
      "name": "get_FORMAT_MIN_CONSENSUS_WORKER_COUNT",
      "outputs": [
        {
          "internalType": "uint256",
          "name": "",
          "type": "uint256"
        }
      ],
      "stateMutability": "view",
      "type": "function"
    },
    {
      "inputs": [],
      "name": "get_FORMAT_MIN_REP_DataValidation",
      "outputs": [
        {
          "internalType": "uint256",
          "name": "",
          "type": "uint256"
        }
      ],
      "stateMutability": "view",
      "type": "function"
    },
    {
      "inputs": [],
      "name": "get_FORMAT_MIN_REWARD_DataValidation",
      "outputs": [
        {
          "internalType": "uint256",
          "name": "",
          "type": "uint256"
        }
      ],
      "stateMutability": "view",
      "type": "function"
    },
    {
      "inputs": [],
      "name": "get_FORMAT_MIN_STAKE",
      "outputs": [
        {
          "internalType": "uint256",
          "name": "",
          "type": "uint256"
        }
      ],
      "stateMutability": "view",
      "type": "function"
    },
    {
      "inputs": [],
      "name": "get_FORMAT_REVEAL_ROUND_DURATION",
      "outputs": [
        {
          "internalType": "uint256",
          "name": "",
          "type": "uint256"
        }
      ],
      "stateMutability": "view",
      "type": "function"
    },
    {
      "inputs": [],
      "name": "get_MAX_CONTRACT_STORED_BATCHES",
      "outputs": [
        {
          "internalType": "uint256",
          "name": "",
          "type": "uint256"
        }
      ],
      "stateMutability": "view",
      "type": "function"
    },
    {
      "inputs": [],
      "name": "get_MAX_SUCCEEDING_NOVOTES",
      "outputs": [
        {
          "internalType": "uint256",
          "name": "",
          "type": "uint256"
        }
      ],
      "stateMutability": "view",
      "type": "function"
    },
    {
      "inputs": [],
      "name": "get_MAX_UPDATE_ITERATIONS",
      "outputs": [
        {
          "internalType": "uint256",
          "name": "",
          "type": "uint256"
        }
      ],
      "stateMutability": "view",
      "type": "function"
    },
    {
      "inputs": [],
      "name": "get_NOVOTE_REGISTRATION_WAIT_DURATION",
      "outputs": [
        {
          "internalType": "uint256",
          "name": "",
          "type": "uint256"
        }
      ],
      "stateMutability": "view",
      "type": "function"
    },
    {
      "inputs": [],
      "name": "get_SPOT_COMMIT_ROUND_DURATION",
      "outputs": [
        {
          "internalType": "uint256",
          "name": "",
          "type": "uint256"
        }
      ],
      "stateMutability": "view",
      "type": "function"
    },
    {
      "inputs": [],
      "name": "get_SPOT_DATA_BATCH_SIZE",
      "outputs": [
        {
          "internalType": "uint256",
          "name": "",
          "type": "uint256"
        }
      ],
      "stateMutability": "view",
      "type": "function"
    },
    {
      "inputs": [],
      "name": "get_SPOT_GLOBAL_MAX_SPOT_PER_PERIOD",
      "outputs": [
        {
          "internalType": "uint256",
          "name": "",
          "type": "uint256"
        }
      ],
      "stateMutability": "view",
      "type": "function"
    },
    {
      "inputs": [],
      "name": "get_SPOT_INTER_ALLOCATION_DURATION",
      "outputs": [
        {
          "internalType": "uint256",
          "name": "",
          "type": "uint256"
        }
      ],
      "stateMutability": "view",
      "type": "function"
    },
    {
      "inputs": [],
      "name": "get_SPOT_MAX_CONSENSUS_WORKER_COUNT",
      "outputs": [
        {
          "internalType": "uint256",
          "name": "",
          "type": "uint256"
        }
      ],
      "stateMutability": "view",
      "type": "function"
    },
    {
      "inputs": [],
      "name": "get_SPOT_MAX_SPOT_PER_USER_PER_PERIOD",
      "outputs": [
        {
          "internalType": "uint256",
          "name": "",
          "type": "uint256"
        }
      ],
      "stateMutability": "view",
      "type": "function"
    },
    {
      "inputs": [],
      "name": "get_SPOT_MIN_CONSENSUS_WORKER_COUNT",
      "outputs": [
        {
          "internalType": "uint256",
          "name": "",
          "type": "uint256"
        }
      ],
      "stateMutability": "view",
      "type": "function"
    },
    {
      "inputs": [],
      "name": "get_SPOT_MIN_REP_DataValidation",
      "outputs": [
        {
          "internalType": "uint256",
          "name": "",
          "type": "uint256"
        }
      ],
      "stateMutability": "view",
      "type": "function"
    },
    {
      "inputs": [],
      "name": "get_SPOT_MIN_REP_SpotData",
      "outputs": [
        {
          "internalType": "uint256",
          "name": "",
          "type": "uint256"
        }
      ],
      "stateMutability": "view",
      "type": "function"
    },
    {
      "inputs": [],
      "name": "get_SPOT_MIN_REWARD_DataValidation",
      "outputs": [
        {
          "internalType": "uint256",
          "name": "",
          "type": "uint256"
        }
      ],
      "stateMutability": "view",
      "type": "function"
    },
    {
      "inputs": [],
      "name": "get_SPOT_MIN_REWARD_SpotData",
      "outputs": [
        {
          "internalType": "uint256",
          "name": "",
          "type": "uint256"
        }
      ],
      "stateMutability": "view",
      "type": "function"
    },
    {
      "inputs": [],
      "name": "get_SPOT_MIN_STAKE",
      "outputs": [
        {
          "internalType": "uint256",
          "name": "",
          "type": "uint256"
        }
      ],
      "stateMutability": "view",
      "type": "function"
    },
    {
      "inputs": [],
      "name": "get_SPOT_NB_TIMEFRAMES",
      "outputs": [
        {
          "internalType": "uint256",
          "name": "",
          "type": "uint256"
        }
      ],
      "stateMutability": "view",
      "type": "function"
    },
    {
      "inputs": [],
      "name": "get_SPOT_REVEAL_ROUND_DURATION",
      "outputs": [
        {
          "internalType": "uint256",
          "name": "",
          "type": "uint256"
        }
      ],
      "stateMutability": "view",
      "type": "function"
    },
    {
      "inputs": [],
      "name": "get_SPOT_TIMEFRAME_DURATION",
      "outputs": [
        {
          "internalType": "uint256",
          "name": "",
          "type": "uint256"
        }
      ],
      "stateMutability": "view",
      "type": "function"
    },
    {
      "inputs": [],
      "name": "get_SPOT_TOGGLE_ENABLED",
      "outputs": [
        {
          "internalType": "bool",
          "name": "",
          "type": "bool"
        }
      ],
      "stateMutability": "view",
      "type": "function"
    },
    {
      "inputs": [],
      "name": "getsFuelSystem",
      "outputs": [
        {
          "internalType": "address",
          "name": "",
          "type": "address"
        }
      ],
      "stateMutability": "view",
      "type": "function"
    },
    {
      "inputs": [],
      "name": "owner",
      "outputs": [
        {
          "internalType": "address",
          "name": "",
          "type": "address"
        }
      ],
      "stateMutability": "view",
      "type": "function"
    },
    {
      "inputs": [],
      "name": "renounceOwnership",
      "outputs": [],
      "stateMutability": "nonpayable",
      "type": "function"
    },
    {
      "inputs": [],
      "name": "sFuel",
      "outputs": [
        {
          "internalType": "address",
          "name": "",
          "type": "address"
        }
      ],
      "stateMutability": "view",
      "type": "function"
    },
    {
      "inputs": [],
      "name": "token",
      "outputs": [
        {
          "internalType": "address",
          "name": "",
          "type": "address"
        }
      ],
      "stateMutability": "view",
      "type": "function"
    },
    {
      "inputs": [
        {
          "internalType": "address",
          "name": "newOwner",
          "type": "address"
        }
      ],
      "name": "transferOwnership",
      "outputs": [],
      "stateMutability": "nonpayable",
      "type": "function"
    },
    {
      "inputs": [
        {
          "internalType": "address",
          "name": "StakeManager_",
          "type": "address"
        },
        {
          "internalType": "address",
          "name": "RepManager_",
          "type": "address"
        },
        {
          "internalType": "address",
          "name": "RewardManager_",
          "type": "address"
        },
        {
          "internalType": "address",
          "name": "AddressManager_",
          "type": "address"
        },
        {
          "internalType": "address",
          "name": "SpottingSystem_",
          "type": "address"
        },
        {
          "internalType": "address",
          "name": "FormattingSystem_",
          "type": "address"
        },
        {
          "internalType": "address",
          "name": "sFuel_",
          "type": "address"
        },
        {
          "internalType": "address",
          "name": "token_",
          "type": "address"
        }
      ],
      "name": "updateContractsAddresses",
      "outputs": [],
      "stateMutability": "nonpayable",
      "type": "function"
    },
    {
      "inputs": [
        {
          "internalType": "uint256",
          "name": "ParameterIndex",
          "type": "uint256"
        },
        {
          "internalType": "uint256",
          "name": "uintValue",
          "type": "uint256"
        }
      ],
      "name": "updateFormattingParameters",
      "outputs": [],
      "stateMutability": "nonpayable",
      "type": "function"
    },
    {
      "inputs": [
        {
          "internalType": "uint256",
          "name": "ParameterIndex",
          "type": "uint256"
        },
        {
          "internalType": "uint256",
          "name": "uintValue",
          "type": "uint256"
        }
      ],
      "name": "updateGeneralParameters",
      "outputs": [],
      "stateMutability": "nonpayable",
      "type": "function"
    },
    {
      "inputs": [
        {
          "internalType": "uint256",
          "name": "ParameterIndex",
          "type": "uint256"
        },
        {
          "internalType": "uint256",
          "name": "uintValue",
          "type": "uint256"
        },
        {
          "internalType": "bool",
          "name": "boolValue",
          "type": "bool"
        }
      ],
      "name": "updateSpottingParameters",
      "outputs": [],
      "stateMutability": "nonpayable",
      "type": "function"
    }
  ],
  "bytecode": "0x60806040526103e86001556032600255603260035562030d40600455600160055568015af1d78b58c400006006556002600755600460085560b460095560b4600a5566038d7ea4c68000600b55662386f26fc10000600c5566038d7ea4c68000600d55662386f26fc10000600e55610190600f556001601060006101000a81548160ff0219169083151502179055506103846011556103e8601255601960135560046014556003601555610e1060165560016017556002601855600460195568015af1d78b58c40000601a55610190601b5560b4601c5566038d7ea4c68000601d55662386f26fc10000601e5573c0292e785951b29610d1cc3b32a2c23258622995602660006101000a8154816001600160a01b0302191690836001600160a01b0316021790555034801561013357600080fd5b5061014461013f610149565b61014d565b61019d565b3390565b600080546001600160a01b038381166001600160a01b0319831681178455604051919092169283917f8be0079c531659141344cd1fd0a4f28419497f9722a3daafe3b4186f6b6457e09190a35050565b611145806101ac6000396000f3fe608060405234801561001057600080fd5b50600436106104955760003560e01c80638da5cb5b11610262578063ca64f9e711610151578063e66d543a116100ce578063ee37f4a611610092578063ee37f4a61461074d578063f2fde38b14610760578063f80de0a014610773578063fb50a4731461077b578063fc0c546a14610783578063ff622dda1461078b57610495565b8063e66d543a14610725578063e6fdd4c01461072d578063e96fbce914610735578063ea19733c1461073d578063ea663ed91461074557610495565b8063dfeceed711610115578063dfeceed7146106fd578063e0de3d7c14610705578063e28fdeec1461070d578063e3115d3c14610715578063e5f148241461071d57610495565b8063ca64f9e7146106d5578063d0eed967146106dd578063d4efd2ba146106e5578063d81109ce146106ed578063d8645d37146106f557610495565b8063b368b928116101df578063be250988116101a3578063be250988146106ad578063bf09ff70146106b5578063c4a306f8146106bd578063c6eacbfe146106c5578063c7761fab146106cd57610495565b8063b368b92814610685578063b38e885e1461068d578063b45d9d8d14610695578063b61184501461069d578063bd40ef4c146106a557610495565b8063a02f991411610226578063a02f99141461065d578063a327181b14610665578063a35b3b091461066d578063ab43e78d14610675578063abb10b9b1461067d57610495565b80638da5cb5b1461063557806390d10b6e1461063d57806398a54e2b146106455780639d1f2ada1461064d5780639fb491f61461065557610495565b806351912f29116103895780636b13edc1116103065780637d630cb0116102ca5780637d630cb01461060557806383cc6ef21461060d57806386b0b4c5146106155780638724450f1461061d57806387ce6311146106255780638d289f8f1461062d57610495565b80636b13edc1146105d257806370d29bdf146105e5578063715018a6146105ed57806372e54030146105f55780637a34da67146105fd57610495565b80635cb361f61161034d5780635cb361f6146105925780635e481a181461059a57806361879075146105af57806362c11afa146105c257806368bd3615146105ca57610495565b806351912f291461056a578063544037a514610572578063555bbb071461057a578063557c1abe1461058257806357716b7f1461058a57610495565b80631d0fb88e1161041757806330c0bb79116103db57806330c0bb79146105355780633692616a1461053d57806336fc43fc146105455780634e5638f51461055a5780634e87c5a81461056257610495565b80631d0fb88e1461050d57806323aea6911461051557806329a47bc71461051d5780632c658ec0146105255780632e2f93f31461052d57610495565b80630855d1511161045e5780630855d151146104e55780630b08bfd9146104ed5780630f1f0ffe146104f55780630f78cc76146104fd578063166ff4c71461050557610495565b8062653ff81461049a57806301ddca32146104b857806302c5a49f146104c057806304e76c8f146104c857806307da49e8146104dd575b600080fd5b6104a2610793565b6040516104af9190611106565b60405180910390f35b6104a2610799565b6104a261079f565b6104d06107a5565b6040516104af919061106c565b6104a26107b4565b6104d06107ba565b6104a26107c9565b6104a26107cf565b6104a26107d5565b6104a26107db565b6104a26107e1565b6104a26107e7565b6104d06107ed565b6104a26107fc565b6104d0610802565b6104a2610811565b6104a2610817565b61054d61081d565b6040516104af9190611080565b6104a2610826565b61054d61082c565b6104d0610835565b6104a2610844565b6104a261084a565b6104d0610850565b6104a261085f565b6104a2610865565b6105ad6105a8366004610f79565b61086b565b005b6105ad6105bd36600461100f565b610a15565b6104a2610a94565b6104d0610a9a565b6105ad6105e036600461100f565b610aa9565b6104a2610b60565b6105ad610b66565b6104a2610bb1565b6104d0610bb7565b6104a2610bc6565b6104d0610bcc565b6104a2610bdb565b6104a2610be1565b6104a2610be7565b6104d0610bed565b6104d0610bfc565b6104a2610c0b565b6104a2610c11565b6104a2610c17565b6104a2610c1d565b6104a2610c23565b6104a2610c29565b6104a2610c2f565b6104d0610c35565b6104a2610c44565b6104a2610c4a565b6104a2610c50565b6104d0610c56565b6104a2610c65565b6104a2610c6b565b6104a2610c71565b6104a2610c77565b6104a2610c7d565b6104a2610c83565b6104a2610c89565b6104d0610c8f565b6104a2610c9e565b6104a2610ca4565b6104a2610caa565b6104d0610cb0565b6104a2610cbf565b6104a2610cc5565b6104a2610ccb565b6104a2610cd1565b6104a2610cd7565b6104a2610cdd565b6104a2610ce3565b6104a2610ce9565b6104a2610cef565b6104a2610cf5565b6105ad61075b366004611030565b610cfb565b6105ad61076e366004610f58565b610e56565b6104a2610ec7565b6104a2610ecd565b6104d0610ed3565b6104a2610ee2565b60065481565b601d5490565b601c5490565b6022546001600160a01b031690565b601e5490565b6021546001600160a01b031690565b600e5490565b60165490565b60115490565b60185490565b600a5481565b601a5490565b6021546001600160a01b031681565b601a5481565b601f546001600160a01b031690565b600b5490565b60095490565b60105460ff1681565b60045481565b60105460ff1690565b6022546001600160a01b031681565b60185481565b601e5481565b6026546001600160a01b031690565b60175490565b600c5481565b610873610ee8565b6001600160a01b0316610884610bfc565b6001600160a01b0316146108b35760405162461bcd60e51b81526004016108aa906110d1565b60405180910390fd5b6001600160a01b038816156108de57602080546001600160a01b0319166001600160a01b038a161790555b6001600160a01b0387161561090957602180546001600160a01b0319166001600160a01b0389161790555b6001600160a01b0386161561093457602280546001600160a01b0319166001600160a01b0388161790555b6001600160a01b0385161561095f57602380546001600160a01b0319166001600160a01b0387161790555b6001600160a01b0384161561098a57602480546001600160a01b0319166001600160a01b0386161790555b6001600160a01b038316156109b557602580546001600160a01b0319166001600160a01b0385161790555b6001600160a01b038216156109e057602680546001600160a01b0319166001600160a01b0384161790555b6001600160a01b03811615610a0b57601f80546001600160a01b0319166001600160a01b0383161790555b5050505050505050565b610a1d610ee8565b6001600160a01b0316610a2e610bfc565b6001600160a01b031614610a545760405162461bcd60e51b81526004016108aa906110d1565b8160011415610a635760018190555b8160021415610a725760028190555b8160031415610a815760038190555b8160041415610a905760048190555b5050565b601c5481565b6025546001600160a01b031690565b610ab1610ee8565b6001600160a01b0316610ac2610bfc565b6001600160a01b031614610ae85760405162461bcd60e51b81526004016108aa906110d1565b8160011415610af75760178190555b8160021415610b0657601a8190555b8160031415610b155760188190555b8160041415610b245760198190555b8160051415610b3357601b8190555b8160061415610b4257601c8190555b8160071415610b5157601e8190555b8160081415610a9057601d5550565b60195490565b610b6e610ee8565b6001600160a01b0316610b7f610bfc565b6001600160a01b031614610ba55760405162461bcd60e51b81526004016108aa906110d1565b610baf6000610eec565b565b600a5490565b6023546001600160a01b031681565b60035490565b6020546001600160a01b031681565b600e5481565b600d5481565b60115481565b6025546001600160a01b031681565b6000546001600160a01b031690565b60035481565b60015490565b60055490565b60155490565b601b5490565b60015481565b60085481565b6026546001600160a01b031681565b600c5490565b601b5481565b60125490565b6024546001600160a01b031690565b60145481565b60075490565b60135490565b60135481565b600f5490565b60055481565b60025481565b6020546001600160a01b031690565b60165481565b60155481565b600b5481565b6024546001600160a01b031681565b60085490565b60125481565b60195481565b60045490565b600f5481565b60145490565b60095481565b601d5481565b60025490565b60175481565b610d03610ee8565b6001600160a01b0316610d14610bfc565b6001600160a01b031614610d3a5760405162461bcd60e51b81526004016108aa906110d1565b8260011415610d495760058290555b8260021415610d585760068290555b8260031415610d675760078290555b8260041415610d765760088290555b8260051415610d855760098290555b8260061415610d9457600a8290555b8260071415610da357600b8290555b8260081415610db257600c8290555b8260091415610dc157600d8290555b82600a1415610dd057600e8290555b82600b1415610ddf57600f8290555b82600c1415610df7576010805460ff19168215151790555b82600d1415610e065760118290555b82600e1415610e155760128290555b82600f1415610e245760138290555b8260101415610e335760148290555b8260111415610e425760158290555b8260121415610e515760168290555b505050565b610e5e610ee8565b6001600160a01b0316610e6f610bfc565b6001600160a01b031614610e955760405162461bcd60e51b81526004016108aa906110d1565b6001600160a01b038116610ebb5760405162461bcd60e51b81526004016108aa9061108b565b610ec481610eec565b50565b600d5490565b60075481565b601f546001600160a01b031681565b60065490565b3390565b600080546001600160a01b038381166001600160a01b0319831681178455604051919092169283917f8be0079c531659141344cd1fd0a4f28419497f9722a3daafe3b4186f6b6457e09190a35050565b80356001600160a01b0381168114610f5357600080fd5b919050565b600060208284031215610f69578081fd5b610f7282610f3c565b9392505050565b600080600080600080600080610100898b031215610f95578384fd5b610f9e89610f3c565b9750610fac60208a01610f3c565b9650610fba60408a01610f3c565b9550610fc860608a01610f3c565b9450610fd660808a01610f3c565b9350610fe460a08a01610f3c565b9250610ff260c08a01610f3c565b915061100060e08a01610f3c565b90509295985092959890939650565b60008060408385031215611021578182fd5b50508035926020909101359150565b600080600060608486031215611044578283fd5b833592506020840135915060408401358015158114611061578182fd5b809150509250925092565b6001600160a01b0391909116815260200190565b901515815260200190565b60208082526026908201527f4f776e61626c653a206e6577206f776e657220697320746865207a65726f206160408201526564647265737360d01b606082015260800190565b6020808252818101527f4f776e61626c653a2063616c6c6572206973206e6f7420746865206f776e6572604082015260600190565b9081526020019056fea2646970667358221220e843717198d1f39f0502ee5531287b69815d4378f23ca094c2af704bf4f6252764736f6c63430008000033",
  "linkReferences": {},
  "deployedLinkReferences": {}
}