{
  "_format": "hh-sol-artifact-1",
  "contractName": "DataCompliance",
  "sourceName": "contracts/worksystems/DataCompliance.sol",
  "abi": [
    {
      "inputs": [
        {
          "internalType": "address",
          "name": "EXDT_token_",
          "type": "address"
        }
      ],
      "stateMutability": "nonpayable",
      "type": "constructor"
    },
    {
      "anonymous": false,
      "inputs": [
        {
          "indexed": false,
          "internalType": "bytes",
          "name": "bytesFailure",
          "type": "bytes"
        }
      ],
      "name": "BytesFailure",
      "type": "event"
    },
    {
      "anonymous": false,
      "inputs": [
        {
          "indexed": true,
          "internalType": "address",
          "name": "previousOwner",
          "type": "address"
        },
        {
          "indexed": true,
          "internalType": "address",
          "name": "newOwner",
          "type": "address"
        }
      ],
      "name": "OwnershipTransferred",
      "type": "event"
    },
    {
      "anonymous": false,
      "inputs": [
        {
          "indexed": false,
          "internalType": "string",
          "name": "hash",
          "type": "string"
        },
        {
          "indexed": true,
          "internalType": "address",
          "name": "creator",
          "type": "address"
        }
      ],
      "name": "_ComplianceAccepted",
      "type": "event"
    },
    {
      "anonymous": false,
      "inputs": [
        {
          "indexed": true,
          "internalType": "uint256",
          "name": "DataID",
          "type": "uint256"
        },
        {
          "indexed": false,
          "internalType": "uint256",
          "name": "numTokens",
          "type": "uint256"
        },
        {
          "indexed": true,
          "internalType": "address",
          "name": "voter",
          "type": "address"
        }
      ],
      "name": "_ComplianceCheckCommitted",
      "type": "event"
    },
    {
      "anonymous": false,
      "inputs": [
        {
          "indexed": true,
          "internalType": "uint256",
          "name": "DataID",
          "type": "uint256"
        },
        {
          "indexed": false,
          "internalType": "uint256",
          "name": "numTokens",
          "type": "uint256"
        },
        {
          "indexed": false,
          "internalType": "uint256",
          "name": "votesFor",
          "type": "uint256"
        },
        {
          "indexed": false,
          "internalType": "uint256",
          "name": "votesAgainst",
          "type": "uint256"
        },
        {
          "indexed": true,
          "internalType": "uint256",
          "name": "choice",
          "type": "uint256"
        },
        {
          "indexed": true,
          "internalType": "address",
          "name": "voter",
          "type": "address"
        }
      ],
      "name": "_ComplianceCheckRevealed",
      "type": "event"
    },
    {
      "anonymous": false,
      "inputs": [
        {
          "indexed": true,
          "internalType": "uint256",
          "name": "DataID",
          "type": "uint256"
        },
        {
          "indexed": false,
          "internalType": "string",
          "name": "file_hash",
          "type": "string"
        },
        {
          "indexed": false,
          "internalType": "address",
          "name": "sender",
          "type": "address"
        }
      ],
      "name": "_ComplianceSubmitted",
      "type": "event"
    },
    {
      "anonymous": false,
      "inputs": [
        {
          "indexed": true,
          "internalType": "uint256",
          "name": "batchID",
          "type": "uint256"
        }
      ],
      "name": "_DataBatchDeleted",
      "type": "event"
    },
    {
      "anonymous": false,
      "inputs": [
        {
          "indexed": false,
          "internalType": "uint256",
          "name": "numTokens",
          "type": "uint256"
        },
        {
          "indexed": true,
          "internalType": "address",
          "name": "voter",
          "type": "address"
        }
      ],
      "name": "_StakeAllocated",
      "type": "event"
    },
    {
      "anonymous": false,
      "inputs": [
        {
          "indexed": true,
          "internalType": "uint256",
          "name": "DataID",
          "type": "uint256"
        },
        {
          "indexed": true,
          "internalType": "address",
          "name": "voter",
          "type": "address"
        }
      ],
      "name": "_TokensRescued",
      "type": "event"
    },
    {
      "anonymous": false,
      "inputs": [
        {
          "indexed": false,
          "internalType": "uint256",
          "name": "numTokens",
          "type": "uint256"
        },
        {
          "indexed": true,
          "internalType": "address",
          "name": "voter",
          "type": "address"
        }
      ],
      "name": "_VotingRightsWithdrawn",
      "type": "event"
    },
    {
      "anonymous": false,
      "inputs": [
        {
          "indexed": true,
          "internalType": "uint256",
          "name": "batchID",
          "type": "uint256"
        },
        {
          "indexed": false,
          "internalType": "address",
          "name": "worker",
          "type": "address"
        }
      ],
      "name": "_WorkAllocated",
      "type": "event"
    },
    {
      "anonymous": false,
      "inputs": [
        {
          "indexed": true,
          "internalType": "address",
          "name": "worker",
          "type": "address"
        },
        {
          "indexed": false,
          "internalType": "uint256",
          "name": "timestamp",
          "type": "uint256"
        }
      ],
      "name": "_WorkerRegistered",
      "type": "event"
    },
    {
      "anonymous": false,
      "inputs": [
        {
          "indexed": true,
          "internalType": "address",
          "name": "worker",
          "type": "address"
        },
        {
          "indexed": false,
          "internalType": "uint256",
          "name": "timestamp",
          "type": "uint256"
        }
      ],
      "name": "_WorkerUnregistered",
      "type": "event"
    },
    {
      "inputs": [],
      "name": "AcceptedBatchsCounter",
      "outputs": [
        {
          "internalType": "uint256",
          "name": "",
          "type": "uint256"
        }
      ],
      "stateMutability": "view",
      "type": "function"
    },
    {
      "inputs": [],
      "name": "AllTxsCounter",
      "outputs": [
        {
          "internalType": "uint256",
          "name": "",
          "type": "uint256"
        }
      ],
      "stateMutability": "view",
      "type": "function"
    },
    {
      "inputs": [],
      "name": "AllocateWork",
      "outputs": [],
      "stateMutability": "nonpayable",
      "type": "function"
    },
    {
      "inputs": [],
      "name": "AllocatedBatchCursor",
      "outputs": [
        {
          "internalType": "uint256",
          "name": "",
          "type": "uint256"
        }
      ],
      "stateMutability": "view",
      "type": "function"
    },
    {
      "inputs": [],
      "name": "AmIRegistered",
      "outputs": [
        {
          "internalType": "bool",
          "name": "passed",
          "type": "bool"
        }
      ],
      "stateMutability": "view",
      "type": "function"
    },
    {
      "inputs": [
        {
          "internalType": "string",
          "name": "_a",
          "type": "string"
        },
        {
          "internalType": "string",
          "name": "_b",
          "type": "string"
        }
      ],
      "name": "AreStringsEqual",
      "outputs": [
        {
          "internalType": "bool",
          "name": "",
          "type": "bool"
        }
      ],
      "stateMutability": "pure",
      "type": "function"
    },
    {
      "inputs": [],
      "name": "BatchCheckingCursor",
      "outputs": [
        {
          "internalType": "uint256",
          "name": "",
          "type": "uint256"
        }
      ],
      "stateMutability": "view",
      "type": "function"
    },
    {
      "inputs": [],
      "name": "BatchDeletionCursor",
      "outputs": [
        {
          "internalType": "uint256",
          "name": "",
          "type": "uint256"
        }
      ],
      "stateMutability": "view",
      "type": "function"
    },
    {
      "inputs": [
        {
          "internalType": "uint256",
          "name": "",
          "type": "uint256"
        }
      ],
      "name": "CollectedSpotBatchs",
      "outputs": [
        {
          "internalType": "bool",
          "name": "",
          "type": "bool"
        }
      ],
      "stateMutability": "view",
      "type": "function"
    },
    {
      "inputs": [
        {
          "internalType": "uint256",
          "name": "",
          "type": "uint256"
        }
      ],
      "name": "CompliancesMapping",
      "outputs": [
        {
          "internalType": "string",
          "name": "ipfs_hash",
          "type": "string"
        },
        {
          "internalType": "address",
          "name": "author",
          "type": "address"
        },
        {
          "internalType": "uint256",
          "name": "timestamp",
          "type": "uint256"
        },
        {
          "internalType": "enum DataCompliance.DataStatus",
          "name": "status",
          "type": "uint8"
        }
      ],
      "stateMutability": "view",
      "type": "function"
    },
    {
      "inputs": [
        {
          "internalType": "uint256",
          "name": "",
          "type": "uint256"
        }
      ],
      "name": "DataBatch",
      "outputs": [
        {
          "internalType": "uint256",
          "name": "start_idx",
          "type": "uint256"
        },
        {
          "internalType": "uint256",
          "name": "counter",
          "type": "uint256"
        },
        {
          "internalType": "uint256",
          "name": "uncommited_workers",
          "type": "uint256"
        },
        {
          "internalType": "uint256",
          "name": "unrevealed_workers",
          "type": "uint256"
        },
        {
          "internalType": "uint256",
          "name": "item_count",
          "type": "uint256"
        },
        {
          "internalType": "bool",
          "name": "complete",
          "type": "bool"
        },
        {
          "internalType": "bool",
          "name": "checked",
          "type": "bool"
        },
        {
          "internalType": "bool",
          "name": "allocated_to_work",
          "type": "bool"
        },
        {
          "internalType": "uint256",
          "name": "commitEndDate",
          "type": "uint256"
        },
        {
          "internalType": "uint256",
          "name": "revealEndDate",
          "type": "uint256"
        },
        {
          "internalType": "uint256",
          "name": "votesFor",
          "type": "uint256"
        },
        {
          "internalType": "uint256",
          "name": "votesAgainst",
          "type": "uint256"
        },
        {
          "internalType": "string",
          "name": "batchIPFSfile",
          "type": "string"
        },
        {
          "internalType": "enum DataCompliance.DataStatus",
          "name": "status",
          "type": "uint8"
        }
      ],
      "stateMutability": "view",
      "type": "function"
    },
    {
      "inputs": [
        {
          "internalType": "uint256",
          "name": "_DataBatchId",
          "type": "uint256"
        }
      ],
      "name": "DataCommitEndDate",
      "outputs": [
        {
          "internalType": "uint256",
          "name": "commitEndDate",
          "type": "uint256"
        }
      ],
      "stateMutability": "view",
      "type": "function"
    },
    {
      "inputs": [
        {
          "internalType": "uint256",
          "name": "_DataBatchId",
          "type": "uint256"
        }
      ],
      "name": "DataEnded",
      "outputs": [
        {
          "internalType": "bool",
          "name": "ended",
          "type": "bool"
        }
      ],
      "stateMutability": "view",
      "type": "function"
    },
    {
      "inputs": [
        {
          "internalType": "uint256",
          "name": "_DataBatchId",
          "type": "uint256"
        }
      ],
      "name": "DataExists",
      "outputs": [
        {
          "internalType": "bool",
          "name": "exists",
          "type": "bool"
        }
      ],
      "stateMutability": "view",
      "type": "function"
    },
    {
      "inputs": [],
      "name": "DataNonce",
      "outputs": [
        {
          "internalType": "uint256",
          "name": "",
          "type": "uint256"
        }
      ],
      "stateMutability": "view",
      "type": "function"
    },
    {
      "inputs": [
        {
          "internalType": "uint256",
          "name": "_DataBatchId",
          "type": "uint256"
        }
      ],
      "name": "DataRevealEndDate",
      "outputs": [
        {
          "internalType": "uint256",
          "name": "revealEndDate",
          "type": "uint256"
        }
      ],
      "stateMutability": "view",
      "type": "function"
    },
    {
      "inputs": [
        {
          "internalType": "address",
          "name": "user_",
          "type": "address"
        }
      ],
      "name": "GetCurrentWork",
      "outputs": [
        {
          "internalType": "uint256",
          "name": "",
          "type": "uint256"
        }
      ],
      "stateMutability": "view",
      "type": "function"
    },
    {
      "inputs": [
        {
          "internalType": "address",
          "name": "user_",
          "type": "address"
        }
      ],
      "name": "IsNewWorkAvailable",
      "outputs": [
        {
          "internalType": "bool",
          "name": "",
          "type": "bool"
        }
      ],
      "stateMutability": "view",
      "type": "function"
    },
    {
      "inputs": [],
      "name": "LastBatchCounter",
      "outputs": [
        {
          "internalType": "uint256",
          "name": "",
          "type": "uint256"
        }
      ],
      "stateMutability": "view",
      "type": "function"
    },
    {
      "inputs": [
        {
          "internalType": "address",
          "name": "",
          "type": "address"
        },
        {
          "internalType": "uint256",
          "name": "",
          "type": "uint256"
        }
      ],
      "name": "MasterWorkers",
      "outputs": [
        {
          "internalType": "address",
          "name": "",
          "type": "address"
        }
      ],
      "stateMutability": "view",
      "type": "function"
    },
    {
      "inputs": [],
      "name": "NotCommitedCounter",
      "outputs": [
        {
          "internalType": "uint256",
          "name": "",
          "type": "uint256"
        }
      ],
      "stateMutability": "view",
      "type": "function"
    },
    {
      "inputs": [],
      "name": "NotRevealedCounter",
      "outputs": [
        {
          "internalType": "uint256",
          "name": "",
          "type": "uint256"
        }
      ],
      "stateMutability": "view",
      "type": "function"
    },
    {
      "inputs": [],
      "name": "Parameters",
      "outputs": [
        {
          "internalType": "contract IParametersManager",
          "name": "",
          "type": "address"
        }
      ],
      "stateMutability": "view",
      "type": "function"
    },
    {
      "inputs": [
        {
          "internalType": "uint256",
          "name": "CheckedBatchId",
          "type": "uint256"
        }
      ],
      "name": "Ping",
      "outputs": [],
      "stateMutability": "nonpayable",
      "type": "function"
    },
    {
      "inputs": [],
      "name": "RegisterWorker",
      "outputs": [],
      "stateMutability": "nonpayable",
      "type": "function"
    },
    {
      "inputs": [],
      "name": "RejectedBatchsCounter",
      "outputs": [
        {
          "internalType": "uint256",
          "name": "",
          "type": "uint256"
        }
      ],
      "stateMutability": "view",
      "type": "function"
    },
    {
      "inputs": [
        {
          "internalType": "address",
          "name": "",
          "type": "address"
        }
      ],
      "name": "SystemStakedTokenBalance",
      "outputs": [
        {
          "internalType": "uint256",
          "name": "",
          "type": "uint256"
        }
      ],
      "stateMutability": "view",
      "type": "function"
    },
    {
      "inputs": [],
      "name": "TriggerUpdate",
      "outputs": [],
      "stateMutability": "nonpayable",
      "type": "function"
    },
    {
      "inputs": [],
      "name": "UnregisterWorker",
      "outputs": [],
      "stateMutability": "nonpayable",
      "type": "function"
    },
    {
      "inputs": [
        {
          "internalType": "uint256",
          "name": "",
          "type": "uint256"
        },
        {
          "internalType": "address",
          "name": "",
          "type": "address"
        }
      ],
      "name": "UserBatchCounts",
      "outputs": [
        {
          "internalType": "uint256",
          "name": "",
          "type": "uint256"
        }
      ],
      "stateMutability": "view",
      "type": "function"
    },
    {
      "inputs": [
        {
          "internalType": "uint256",
          "name": "",
          "type": "uint256"
        },
        {
          "internalType": "address",
          "name": "",
          "type": "address"
        }
      ],
      "name": "UserBatchFrom",
      "outputs": [
        {
          "internalType": "string",
          "name": "",
          "type": "string"
        }
      ],
      "stateMutability": "view",
      "type": "function"
    },
    {
      "inputs": [
        {
          "internalType": "address",
          "name": "",
          "type": "address"
        },
        {
          "internalType": "uint256",
          "name": "",
          "type": "uint256"
        }
      ],
      "name": "UserChecksCommits",
      "outputs": [
        {
          "internalType": "bool",
          "name": "",
          "type": "bool"
        }
      ],
      "stateMutability": "view",
      "type": "function"
    },
    {
      "inputs": [
        {
          "internalType": "address",
          "name": "",
          "type": "address"
        },
        {
          "internalType": "uint256",
          "name": "",
          "type": "uint256"
        }
      ],
      "name": "UserChecksReveals",
      "outputs": [
        {
          "internalType": "bool",
          "name": "",
          "type": "bool"
        }
      ],
      "stateMutability": "view",
      "type": "function"
    },
    {
      "inputs": [
        {
          "internalType": "uint256",
          "name": "",
          "type": "uint256"
        },
        {
          "internalType": "address",
          "name": "",
          "type": "address"
        }
      ],
      "name": "UserNewFiles",
      "outputs": [
        {
          "internalType": "string",
          "name": "",
          "type": "string"
        }
      ],
      "stateMutability": "view",
      "type": "function"
    },
    {
      "inputs": [
        {
          "internalType": "uint256",
          "name": "",
          "type": "uint256"
        },
        {
          "internalType": "address",
          "name": "",
          "type": "address"
        }
      ],
      "name": "UserSubmittedStatus",
      "outputs": [
        {
          "internalType": "string",
          "name": "",
          "type": "string"
        }
      ],
      "stateMutability": "view",
      "type": "function"
    },
    {
      "inputs": [
        {
          "internalType": "uint256",
          "name": "",
          "type": "uint256"
        },
        {
          "internalType": "address",
          "name": "",
          "type": "address"
        }
      ],
      "name": "UserVotes",
      "outputs": [
        {
          "internalType": "uint256",
          "name": "",
          "type": "uint256"
        }
      ],
      "stateMutability": "view",
      "type": "function"
    },
    {
      "inputs": [
        {
          "internalType": "uint256",
          "name": "_DataBatchId",
          "type": "uint256"
        }
      ],
      "name": "ValidateDataBatch",
      "outputs": [],
      "stateMutability": "nonpayable",
      "type": "function"
    },
    {
      "inputs": [
        {
          "internalType": "uint256",
          "name": "",
          "type": "uint256"
        },
        {
          "internalType": "uint256",
          "name": "",
          "type": "uint256"
        }
      ],
      "name": "WorkersPerBatch",
      "outputs": [
        {
          "internalType": "address",
          "name": "",
          "type": "address"
        }
      ],
      "stateMutability": "view",
      "type": "function"
    },
    {
      "inputs": [
        {
          "internalType": "address",
          "name": "",
          "type": "address"
        }
      ],
      "name": "WorkersState",
      "outputs": [
        {
          "internalType": "address",
          "name": "worker_address",
          "type": "address"
        },
        {
          "internalType": "uint256",
          "name": "allocated_work_batch",
          "type": "uint256"
        },
        {
          "internalType": "bool",
          "name": "has_completed_work",
          "type": "bool"
        },
        {
          "internalType": "uint256",
          "name": "succeeding_novote_count",
          "type": "uint256"
        },
        {
          "internalType": "uint256",
          "name": "last_interaction_date",
          "type": "uint256"
        },
        {
          "internalType": "bool",
          "name": "registered",
          "type": "bool"
        },
        {
          "internalType": "bool",
          "name": "unregistration_request",
          "type": "bool"
        },
        {
          "internalType": "uint256",
          "name": "registration_date",
          "type": "uint256"
        },
        {
          "internalType": "uint256",
          "name": "majority_counter",
          "type": "uint256"
        },
        {
          "internalType": "uint256",
          "name": "minority_counter",
          "type": "uint256"
        }
      ],
      "stateMutability": "view",
      "type": "function"
    },
    {
      "inputs": [
        {
          "internalType": "address",
          "name": "_user",
          "type": "address"
        },
        {
          "internalType": "uint256",
          "name": "_DataBatchId",
          "type": "uint256"
        }
      ],
      "name": "attrUUID",
      "outputs": [
        {
          "internalType": "bytes32",
          "name": "UUID",
          "type": "bytes32"
        }
      ],
      "stateMutability": "pure",
      "type": "function"
    },
    {
      "inputs": [
        {
          "internalType": "uint256",
          "name": "",
          "type": "uint256"
        }
      ],
      "name": "availableWorkers",
      "outputs": [
        {
          "internalType": "address",
          "name": "",
          "type": "address"
        }
      ],
      "stateMutability": "view",
      "type": "function"
    },
    {
      "inputs": [
        {
          "internalType": "uint256",
          "name": "",
          "type": "uint256"
        }
      ],
      "name": "busyWorkers",
      "outputs": [
        {
          "internalType": "address",
          "name": "",
          "type": "address"
        }
      ],
      "stateMutability": "view",
      "type": "function"
    },
    {
      "inputs": [
        {
          "internalType": "uint256",
          "name": "_DataBatchId",
          "type": "uint256"
        },
        {
          "internalType": "bytes32",
          "name": "_secretIPFSHash",
          "type": "bytes32"
        },
        {
          "internalType": "uint256",
          "name": "_BatchCount",
          "type": "uint256"
        },
        {
          "internalType": "string",
          "name": "_From",
          "type": "string"
        },
        {
          "internalType": "string",
          "name": "_Status",
          "type": "string"
        }
      ],
      "name": "commitComplianceCheck",
      "outputs": [],
      "stateMutability": "nonpayable",
      "type": "function"
    },
    {
      "inputs": [
        {
          "internalType": "uint256",
          "name": "_DataBatchId",
          "type": "uint256"
        }
      ],
      "name": "commitPeriodActive",
      "outputs": [
        {
          "internalType": "bool",
          "name": "active",
          "type": "bool"
        }
      ],
      "stateMutability": "view",
      "type": "function"
    },
    {
      "inputs": [
        {
          "internalType": "uint256",
          "name": "_BatchId",
          "type": "uint256"
        }
      ],
      "name": "deleteCollectedSpotBatch",
      "outputs": [],
      "stateMutability": "nonpayable",
      "type": "function"
    },
    {
      "inputs": [
        {
          "internalType": "uint256",
          "name": "_DataId",
          "type": "uint256"
        }
      ],
      "name": "deleteData",
      "outputs": [],
      "stateMutability": "nonpayable",
      "type": "function"
    },
    {
      "inputs": [
        {
          "internalType": "uint256",
          "name": "_BatchId",
          "type": "uint256"
        }
      ],
      "name": "deleteDataBatch",
      "outputs": [],
      "stateMutability": "nonpayable",
      "type": "function"
    },
    {
      "inputs": [],
      "name": "destroyContract",
      "outputs": [],
      "stateMutability": "nonpayable",
      "type": "function"
    },
    {
      "inputs": [
        {
          "internalType": "address",
          "name": "_voter",
          "type": "address"
        },
        {
          "internalType": "uint256",
          "name": "_DataBatchId",
          "type": "uint256"
        }
      ],
      "name": "didCommit",
      "outputs": [
        {
          "internalType": "bool",
          "name": "committed",
          "type": "bool"
        }
      ],
      "stateMutability": "view",
      "type": "function"
    },
    {
      "inputs": [
        {
          "internalType": "address",
          "name": "_voter",
          "type": "address"
        },
        {
          "internalType": "uint256",
          "name": "_DataBatchId",
          "type": "uint256"
        }
      ],
      "name": "didReveal",
      "outputs": [
        {
          "internalType": "bool",
          "name": "revealed",
          "type": "bool"
        }
      ],
      "stateMutability": "view",
      "type": "function"
    },
    {
      "inputs": [
        {
          "internalType": "uint256",
          "name": "_k",
          "type": "uint256"
        },
        {
          "internalType": "uint256",
          "name": "N_range",
          "type": "uint256"
        }
      ],
      "name": "generateIntegers",
      "outputs": [
        {
          "internalType": "uint256[]",
          "name": "",
          "type": "uint256[]"
        }
      ],
      "stateMutability": "view",
      "type": "function"
    },
    {
      "inputs": [
        {
          "internalType": "uint256",
          "name": "_DataBatchId_start",
          "type": "uint256"
        }
      ],
      "name": "getAcceptedBatchFileFrom",
      "outputs": [
        {
          "internalType": "string[]",
          "name": "batch",
          "type": "string[]"
        }
      ],
      "stateMutability": "view",
      "type": "function"
    },
    {
      "inputs": [
        {
          "internalType": "uint256",
          "name": "_DataBatchId_start",
          "type": "uint256"
        },
        {
          "internalType": "uint256",
          "name": "_DataBatchId_end",
          "type": "uint256"
        }
      ],
      "name": "getAcceptedBatchFilesRange",
      "outputs": [
        {
          "internalType": "string[]",
          "name": "batch",
          "type": "string[]"
        }
      ],
      "stateMutability": "view",
      "type": "function"
    },
    {
      "inputs": [],
      "name": "getAcceptedBatchesCount",
      "outputs": [
        {
          "internalType": "uint256",
          "name": "count",
          "type": "uint256"
        }
      ],
      "stateMutability": "view",
      "type": "function"
    },
    {
      "inputs": [],
      "name": "getActiveWorkersCount",
      "outputs": [
        {
          "internalType": "uint256",
          "name": "numWorkers",
          "type": "uint256"
        }
      ],
      "stateMutability": "view",
      "type": "function"
    },
    {
      "inputs": [],
      "name": "getAvailableWorkersCount",
      "outputs": [
        {
          "internalType": "uint256",
          "name": "numWorkers",
          "type": "uint256"
        }
      ],
      "stateMutability": "view",
      "type": "function"
    },
    {
      "inputs": [
        {
          "internalType": "uint256",
          "name": "_DataBatchId",
          "type": "uint256"
        }
      ],
      "name": "getBatchByID",
      "outputs": [
        {
          "components": [
            {
              "internalType": "uint256",
              "name": "start_idx",
              "type": "uint256"
            },
            {
              "internalType": "uint256",
              "name": "counter",
              "type": "uint256"
            },
            {
              "internalType": "uint256",
              "name": "uncommited_workers",
              "type": "uint256"
            },
            {
              "internalType": "uint256",
              "name": "unrevealed_workers",
              "type": "uint256"
            },
            {
              "internalType": "uint256",
              "name": "item_count",
              "type": "uint256"
            },
            {
              "internalType": "bool",
              "name": "complete",
              "type": "bool"
            },
            {
              "internalType": "bool",
              "name": "checked",
              "type": "bool"
            },
            {
              "internalType": "bool",
              "name": "allocated_to_work",
              "type": "bool"
            },
            {
              "internalType": "uint256",
              "name": "commitEndDate",
              "type": "uint256"
            },
            {
              "internalType": "uint256",
              "name": "revealEndDate",
              "type": "uint256"
            },
            {
              "internalType": "uint256",
              "name": "votesFor",
              "type": "uint256"
            },
            {
              "internalType": "uint256",
              "name": "votesAgainst",
              "type": "uint256"
            },
            {
              "internalType": "string",
              "name": "batchIPFSfile",
              "type": "string"
            },
            {
              "internalType": "enum DataCompliance.DataStatus",
              "name": "status",
              "type": "uint8"
            }
          ],
          "internalType": "struct DataCompliance.BatchMetadata",
          "name": "batch",
          "type": "tuple"
        }
      ],
      "stateMutability": "view",
      "type": "function"
    },
    {
      "inputs": [
        {
          "internalType": "uint256",
          "name": "_DataBatchId",
          "type": "uint256"
        }
      ],
      "name": "getBatchIPFSFileByID",
      "outputs": [
        {
          "internalType": "string",
          "name": "batch",
          "type": "string"
        }
      ],
      "stateMutability": "view",
      "type": "function"
    },
    {
      "inputs": [],
      "name": "getBusyWorkersCount",
      "outputs": [
        {
          "internalType": "uint256",
          "name": "numWorkers",
          "type": "uint256"
        }
      ],
      "stateMutability": "view",
      "type": "function"
    },
    {
      "inputs": [
        {
          "internalType": "address",
          "name": "_voter",
          "type": "address"
        },
        {
          "internalType": "uint256",
          "name": "_DataBatchId",
          "type": "uint256"
        }
      ],
      "name": "getCommitIPFSHash",
      "outputs": [
        {
          "internalType": "bytes32",
          "name": "commitHash",
          "type": "bytes32"
        }
      ],
      "stateMutability": "view",
      "type": "function"
    },
    {
      "inputs": [
        {
          "internalType": "address",
          "name": "_voter",
          "type": "address"
        },
        {
          "internalType": "uint256",
          "name": "_DataBatchId",
          "type": "uint256"
        }
      ],
      "name": "getCommitVoteHash",
      "outputs": [
        {
          "internalType": "bytes32",
          "name": "commitHash",
          "type": "bytes32"
        }
      ],
      "stateMutability": "view",
      "type": "function"
    },
    {
      "inputs": [
        {
          "internalType": "uint256",
          "name": "_DataId",
          "type": "uint256"
        }
      ],
      "name": "getDataByID",
      "outputs": [
        {
          "components": [
            {
              "internalType": "string",
              "name": "ipfs_hash",
              "type": "string"
            },
            {
              "internalType": "address",
              "name": "author",
              "type": "address"
            },
            {
              "internalType": "uint256",
              "name": "timestamp",
              "type": "uint256"
            },
            {
              "internalType": "enum DataCompliance.DataStatus",
              "name": "status",
              "type": "uint8"
            }
          ],
          "internalType": "struct DataCompliance.ComplianceData",
          "name": "data",
          "type": "tuple"
        }
      ],
      "stateMutability": "view",
      "type": "function"
    },
    {
      "inputs": [
        {
          "internalType": "string",
          "name": "_hash",
          "type": "string"
        },
        {
          "internalType": "uint256",
          "name": "_salt",
          "type": "uint256"
        }
      ],
      "name": "getEncryptedStringHash",
      "outputs": [
        {
          "internalType": "bytes32",
          "name": "keccak256hash",
          "type": "bytes32"
        }
      ],
      "stateMutability": "pure",
      "type": "function"
    },
    {
      "inputs": [
        {
          "internalType": "uint256",
          "name": "_DataBatchId",
          "type": "uint256"
        }
      ],
      "name": "getFromsForBatch",
      "outputs": [
        {
          "internalType": "string[]",
          "name": "",
          "type": "string[]"
        }
      ],
      "stateMutability": "view",
      "type": "function"
    },
    {
      "inputs": [
        {
          "internalType": "uint256",
          "name": "_DataBatchId",
          "type": "uint256"
        }
      ],
      "name": "getIPFShashesForBatch",
      "outputs": [
        {
          "internalType": "string[]",
          "name": "",
          "type": "string[]"
        }
      ],
      "stateMutability": "view",
      "type": "function"
    },
    {
      "inputs": [
        {
          "internalType": "address",
          "name": "_voter",
          "type": "address"
        },
        {
          "internalType": "uint256",
          "name": "_numTokens",
          "type": "uint256"
        },
        {
          "internalType": "uint256",
          "name": "_DataBatchId",
          "type": "uint256"
        }
      ],
      "name": "getInsertPointForNumTokens",
      "outputs": [
        {
          "internalType": "uint256",
          "name": "prevNode",
          "type": "uint256"
        }
      ],
      "stateMutability": "view",
      "type": "function"
    },
    {
      "inputs": [],
      "name": "getLastAllocatedBatchId",
      "outputs": [
        {
          "internalType": "uint256",
          "name": "LastAllocatedBatchId",
          "type": "uint256"
        }
      ],
      "stateMutability": "view",
      "type": "function"
    },
    {
      "inputs": [],
      "name": "getLastBatchId",
      "outputs": [
        {
          "internalType": "uint256",
          "name": "LastBatchId",
          "type": "uint256"
        }
      ],
      "stateMutability": "view",
      "type": "function"
    },
    {
      "inputs": [],
      "name": "getLastCheckedBatchId",
      "outputs": [
        {
          "internalType": "uint256",
          "name": "LastCheckedBatchId",
          "type": "uint256"
        }
      ],
      "stateMutability": "view",
      "type": "function"
    },
    {
      "inputs": [],
      "name": "getLastDataId",
      "outputs": [
        {
          "internalType": "uint256",
          "name": "DataId",
          "type": "uint256"
        }
      ],
      "stateMutability": "view",
      "type": "function"
    },
    {
      "inputs": [
        {
          "internalType": "address",
          "name": "_voter",
          "type": "address"
        }
      ],
      "name": "getLastNode",
      "outputs": [
        {
          "internalType": "uint256",
          "name": "DataID",
          "type": "uint256"
        }
      ],
      "stateMutability": "view",
      "type": "function"
    },
    {
      "inputs": [
        {
          "internalType": "address",
          "name": "_voter",
          "type": "address"
        }
      ],
      "name": "getLockedTokens",
      "outputs": [
        {
          "internalType": "uint256",
          "name": "numTokens",
          "type": "uint256"
        }
      ],
      "stateMutability": "view",
      "type": "function"
    },
    {
      "inputs": [],
      "name": "getMySystemTokenBalance",
      "outputs": [
        {
          "internalType": "uint256",
          "name": "tokens",
          "type": "uint256"
        }
      ],
      "stateMutability": "view",
      "type": "function"
    },
    {
      "inputs": [
        {
          "internalType": "address",
          "name": "_voter",
          "type": "address"
        },
        {
          "internalType": "uint256",
          "name": "_DataBatchId",
          "type": "uint256"
        },
        {
          "internalType": "uint256",
          "name": "_salt",
          "type": "uint256"
        }
      ],
      "name": "getNumPassingTokens",
      "outputs": [
        {
          "internalType": "uint256",
          "name": "correctComplianceChecks",
          "type": "uint256"
        }
      ],
      "stateMutability": "view",
      "type": "function"
    },
    {
      "inputs": [
        {
          "internalType": "address",
          "name": "_voter",
          "type": "address"
        },
        {
          "internalType": "uint256",
          "name": "_DataBatchId",
          "type": "uint256"
        }
      ],
      "name": "getNumTokens",
      "outputs": [
        {
          "internalType": "uint256",
          "name": "numTokens",
          "type": "uint256"
        }
      ],
      "stateMutability": "view",
      "type": "function"
    },
    {
      "inputs": [],
      "name": "getRandom",
      "outputs": [
        {
          "internalType": "uint256",
          "name": "",
          "type": "uint256"
        }
      ],
      "stateMutability": "view",
      "type": "function"
    },
    {
      "inputs": [],
      "name": "getRejectedBatchesCount",
      "outputs": [
        {
          "internalType": "uint256",
          "name": "count",
          "type": "uint256"
        }
      ],
      "stateMutability": "view",
      "type": "function"
    },
    {
      "inputs": [],
      "name": "getSeed",
      "outputs": [
        {
          "internalType": "bytes32",
          "name": "addr",
          "type": "bytes32"
        }
      ],
      "stateMutability": "view",
      "type": "function"
    },
    {
      "inputs": [
        {
          "internalType": "uint256",
          "name": "_DataBatchId",
          "type": "uint256"
        }
      ],
      "name": "getStatusForBatch",
      "outputs": [
        {
          "internalType": "string[]",
          "name": "",
          "type": "string[]"
        }
      ],
      "stateMutability": "view",
      "type": "function"
    },
    {
      "inputs": [
        {
          "internalType": "uint256",
          "name": "_DataBatchId",
          "type": "uint256"
        }
      ],
      "name": "getSubmittedFilesForBatch",
      "outputs": [
        {
          "internalType": "string[]",
          "name": "",
          "type": "string[]"
        }
      ],
      "stateMutability": "view",
      "type": "function"
    },
    {
      "inputs": [
        {
          "internalType": "address",
          "name": "_user",
          "type": "address"
        }
      ],
      "name": "getSystemTokenBalance",
      "outputs": [
        {
          "internalType": "uint256",
          "name": "tokens",
          "type": "uint256"
        }
      ],
      "stateMutability": "view",
      "type": "function"
    },
    {
      "inputs": [
        {
          "internalType": "uint256",
          "name": "_DataBatchId",
          "type": "uint256"
        }
      ],
      "name": "getTotalNumberOfComplianceChecks",
      "outputs": [
        {
          "internalType": "uint256",
          "name": "vc",
          "type": "uint256"
        }
      ],
      "stateMutability": "view",
      "type": "function"
    },
    {
      "inputs": [],
      "name": "getTxCounter",
      "outputs": [
        {
          "internalType": "uint256",
          "name": "Counter",
          "type": "uint256"
        }
      ],
      "stateMutability": "view",
      "type": "function"
    },
    {
      "inputs": [
        {
          "internalType": "uint256",
          "name": "_DataBatchId",
          "type": "uint256"
        }
      ],
      "name": "getVotesForBatch",
      "outputs": [
        {
          "internalType": "uint256[]",
          "name": "",
          "type": "uint256[]"
        }
      ],
      "stateMutability": "view",
      "type": "function"
    },
    {
      "inputs": [
        {
          "internalType": "uint256",
          "name": "_terminationDate",
          "type": "uint256"
        }
      ],
      "name": "isExpired",
      "outputs": [
        {
          "internalType": "bool",
          "name": "expired",
          "type": "bool"
        }
      ],
      "stateMutability": "view",
      "type": "function"
    },
    {
      "inputs": [
        {
          "internalType": "uint256",
          "name": "_DataBatchId",
          "type": "uint256"
        }
      ],
      "name": "isPassed",
      "outputs": [
        {
          "internalType": "bool",
          "name": "passed",
          "type": "bool"
        }
      ],
      "stateMutability": "view",
      "type": "function"
    },
    {
      "inputs": [
        {
          "internalType": "uint256",
          "name": "_DataBatchId",
          "type": "uint256"
        },
        {
          "internalType": "address",
          "name": "_worker",
          "type": "address"
        }
      ],
      "name": "isWorkerAllocatedToBatch",
      "outputs": [
        {
          "internalType": "bool",
          "name": "",
          "type": "bool"
        }
      ],
      "stateMutability": "view",
      "type": "function"
    },
    {
      "inputs": [
        {
          "internalType": "address",
          "name": "_worker",
          "type": "address"
        }
      ],
      "name": "isWorkerRegistered",
      "outputs": [
        {
          "internalType": "bool",
          "name": "passed",
          "type": "bool"
        }
      ],
      "stateMutability": "view",
      "type": "function"
    },
    {
      "inputs": [],
      "name": "owner",
      "outputs": [
        {
          "internalType": "address",
          "name": "",
          "type": "address"
        }
      ],
      "stateMutability": "view",
      "type": "function"
    },
    {
      "inputs": [
        {
          "internalType": "uint256",
          "name": "k",
          "type": "uint256"
        },
        {
          "internalType": "uint256",
          "name": "N",
          "type": "uint256"
        }
      ],
      "name": "random_selection",
      "outputs": [
        {
          "internalType": "uint256[]",
          "name": "",
          "type": "uint256[]"
        }
      ],
      "stateMutability": "view",
      "type": "function"
    },
    {
      "inputs": [],
      "name": "renounceOwnership",
      "outputs": [],
      "stateMutability": "nonpayable",
      "type": "function"
    },
    {
      "inputs": [
        {
          "internalType": "uint256",
          "name": "_DataBatchId",
          "type": "uint256"
        }
      ],
      "name": "rescueTokens",
      "outputs": [],
      "stateMutability": "nonpayable",
      "type": "function"
    },
    {
      "inputs": [
        {
          "internalType": "uint256[]",
          "name": "_DataBatchIDs",
          "type": "uint256[]"
        }
      ],
      "name": "rescueTokensInMultipleDatas",
      "outputs": [],
      "stateMutability": "nonpayable",
      "type": "function"
    },
    {
      "inputs": [
        {
          "internalType": "uint256",
          "name": "_DataBatchId",
          "type": "uint256"
        },
        {
          "internalType": "uint256",
          "name": "_voteOption",
          "type": "uint256"
        },
        {
          "internalType": "string",
          "name": "_clearIPFSHash",
          "type": "string"
        },
        {
          "internalType": "uint256",
          "name": "_salt",
          "type": "uint256"
        }
      ],
      "name": "revealComplianceCheck",
      "outputs": [],
      "stateMutability": "nonpayable",
      "type": "function"
    },
    {
      "inputs": [
        {
          "internalType": "uint256",
          "name": "_DataBatchId",
          "type": "uint256"
        }
      ],
      "name": "revealPeriodActive",
      "outputs": [
        {
          "internalType": "bool",
          "name": "active",
          "type": "bool"
        }
      ],
      "stateMutability": "view",
      "type": "function"
    },
    {
      "inputs": [],
      "name": "sFuel",
      "outputs": [
        {
          "internalType": "address",
          "name": "",
          "type": "address"
        }
      ],
      "stateMutability": "view",
      "type": "function"
    },
    {
      "inputs": [
        {
          "internalType": "uint256",
          "name": "N",
          "type": "uint256"
        }
      ],
      "name": "shuffle_array",
      "outputs": [
        {
          "internalType": "uint256[]",
          "name": "",
          "type": "uint256[]"
        }
      ],
      "stateMutability": "view",
      "type": "function"
    },
    {
      "inputs": [
        {
          "internalType": "uint256",
          "name": "",
          "type": "uint256"
        }
      ],
      "name": "toUnregisterWorkers",
      "outputs": [
        {
          "internalType": "address",
          "name": "",
          "type": "address"
        }
      ],
      "stateMutability": "view",
      "type": "function"
    },
    {
      "inputs": [],
      "name": "token",
      "outputs": [
        {
          "internalType": "contract IERC20",
          "name": "",
          "type": "address"
        }
      ],
      "stateMutability": "view",
      "type": "function"
    },
    {
      "inputs": [
        {
          "internalType": "address",
          "name": "newOwner",
          "type": "address"
        }
      ],
      "name": "transferOwnership",
      "outputs": [],
      "stateMutability": "nonpayable",
      "type": "function"
    },
    {
      "inputs": [
        {
          "internalType": "uint256",
          "name": "AllocatedBatchCursor_",
          "type": "uint256"
        }
      ],
      "name": "updateAllocatedBatchCursor",
      "outputs": [],
      "stateMutability": "nonpayable",
      "type": "function"
    },
    {
      "inputs": [
        {
          "internalType": "uint256",
          "name": "BatchCheckingCursor_",
          "type": "uint256"
        }
      ],
      "name": "updateBatchCheckingCursor",
      "outputs": [],
      "stateMutability": "nonpayable",
      "type": "function"
    },
    {
      "inputs": [
        {
          "internalType": "address",
          "name": "addr",
          "type": "address"
        }
      ],
      "name": "updateParametersManager",
      "outputs": [],
      "stateMutability": "nonpayable",
      "type": "function"
    },
    {
      "inputs": [
        {
          "internalType": "address",
          "name": "_sFuel",
          "type": "address"
        }
      ],
      "name": "updatesFuelFaucet",
      "outputs": [],
      "stateMutability": "nonpayable",
      "type": "function"
    },
    {
      "inputs": [
        {
          "internalType": "uint256",
          "name": "_prevID",
          "type": "uint256"
        },
        {
          "internalType": "uint256",
          "name": "_nextID",
          "type": "uint256"
        },
        {
          "internalType": "address",
          "name": "_voter",
          "type": "address"
        },
        {
          "internalType": "uint256",
          "name": "_numTokens",
          "type": "uint256"
        }
      ],
      "name": "validPosition",
      "outputs": [
        {
          "internalType": "bool",
          "name": "APPROVED",
          "type": "bool"
        }
      ],
      "stateMutability": "view",
      "type": "function"
    },
    {
      "inputs": [
        {
          "internalType": "uint256",
          "name": "_numTokens",
          "type": "uint256"
        }
      ],
      "name": "withdrawVotingRights",
      "outputs": [],
      "stateMutability": "nonpayable",
      "type": "function"
    }
  ],
  "bytecode": "0x6080604052600060145560006016556001601755600160185560016019556001601a556000601b556000601c556000601d556000601e556000601f553480156200004857600080fd5b5060405162009c9a38038062009c9a8339810160408190526200006b916200010d565b6200007f62000079620000b9565b620000bd565b6001600160a01b0381166200009357600080fd5b602080546001600160a01b0319166001600160a01b03929092169190911790556200013d565b3390565b600080546001600160a01b038381166001600160a01b0319831681178455604051919092169283917f8be0079c531659141344cd1fd0a4f28419497f9722a3daafe3b4186f6b6457e09190a35050565b6000602082840312156200011f578081fd5b81516001600160a01b038116811462000136578182fd5b9392505050565b619b4d806200014d6000396000f3fe608060405234801561001057600080fd5b506004361061063e5760003560e01c80639760356011610336578063d817587e116101c3578063eb1322ff1161010f578063f716596d116100ad578063f96305f011610087578063f96305f014610d33578063fc0c546a14610d3b578063fca4956314610d43578063ff43de9d14610d565761063e565b8063f716596d14610d10578063f721de4a14610d18578063f80a23fd14610d2b5761063e565b8063f2d9e74d116100e9578063f2d9e74d14610cda578063f2fde38b14610ce2578063f4cdfcc414610cf5578063f5ae7c7d14610d085761063e565b8063eb1322ff14610cb7578063ed8becfa14610cbf578063ef4fcdad14610cd25761063e565b8063e1f7a4301161017c578063e68b920d11610156578063e68b920d14610c6b578063e798a7da14610c7e578063e7b1d43c14610c91578063e97439cf14610ca45761063e565b8063e1f7a43014610c3d578063e44c974b14610c45578063e604c12714610c585761063e565b8063d817587e14610bc9578063d822ce0114610bdc578063d8b7567414610bef578063d9548e5314610c02578063d9845fb814610c15578063da14563a14610c355761063e565b8063b10aa58411610282578063c4e4f82a1161023b578063d420ec0b11610215578063d420ec0b14610b93578063d58f575c14610ba6578063d6b0206c14610bae578063d78b94cc14610bb65761063e565b8063c4e4f82a14610b5a578063d138209214610b6d578063d186981d14610b805761063e565b8063b10aa58414610ae8578063b1a2e0be14610afb578063b1cb6b1414610b0e578063b1d7ea9814610b21578063b43bd06914610b34578063b8f011b314610b475761063e565b8063a4439dc5116102ef578063aa7ca464116102c9578063aa7ca46414610ab2578063aacc5a1714610ac5578063ab43e78d14610acd578063b0bc471e14610ad55761063e565b8063a4439dc514610a84578063a511dba014610a97578063a905779014610a9f5761063e565b80639760356014610a335780639769d84614610a465780639fc9c52f14610a4e578063a1103f3714610a61578063a1b6b5b714610a74578063a350715a14610a7c5761063e565b8063515535e8116104cf578063763a39f21161041b578063819b0293116103b957806388d072eb1161039357806388d072eb146109dc5780638c89d027146109ef5780638da5cb5b14610a185780638df0296e14610a205761063e565b8063819b0293146109ae578063821aa8c0146109c15780638473850b146109d45761063e565b80637ad3be11116103f55780637ad3be11146109535780637f9510a2146109665780637f97e8361461096e5780637fabe35b146109815761063e565b8063763a39f21461092557806376c1fef41461092d57806377124dec146109405761063e565b8063667bf0f8116104885780636e6ce672116104625780636e6ce672146108e45780637074222b146108f7578063715018a61461090a57806371880b1b146109125761063e565b8063667bf0f8146108b65780636b1485a3146108be5780636b2d95d4146108d15761063e565b8063515535e81461084057806353bf27f1146108485780635a452943146108505780635b113a55146108705780635df6055d146108835780636371d81f146108a35761063e565b806331e2f2851161058e57806347fe2d2011610547578063494031831161052157806349403183146107f45780634d4b7d9b146108075780634d8842811461081a5780634fe8b4c11461082d5761063e565b806347fe2d20146107d157806348257dc9146107d95780634852e2f0146107ec5761063e565b806331e2f2851461075d5780633538af821461077057806339e7357c14610790578063427fa1d214610798578063441c77c0146107ab5780634671ace5146107be5761063e565b8063154fd39b116105fb578063275c2590116105d5578063275c25901461071c5780632c052031146107245780632d917c68146107375780632f469fd11461074a5761063e565b8063154fd39b146106d1578063208e8c38146106d9578063226ed300146106fc5761063e565b806301a48b9814610643578063059576231461066c578063092a5cce146106815780630e6661a714610689578063100372f51461069e57806310679810146106b1575b600080fd5b61065661065136600461847f565b610d5e565b60405161066391906187cf565b60405180910390f35b61067f61067a36600461816d565b610efb565b005b61067f610f5c565b610691610fae565b60405161066391906186d4565b61067f6106ac36600461847f565b610fb4565b6106c46106bf3660046184a8565b610ff8565b604051610663919061881e565b61069161109d565b6106ec6106e736600461847f565b6110a3565b604051610663949392919061885b565b61070f61070a36600461847f565b611162565b6040516106639190618813565b61067f6111aa565b6106916107323660046181d0565b6112f8565b61070f6107453660046181a5565b611495565b6106c46107583660046184a8565b6114b5565b61069161076b36600461816d565b6114d9565b61078361077e36600461847f565b6114eb565b6040516106639190618707565b610691611515565b6106916107a636600461816d565b611532565b61070f6107b936600461847f565b6115d2565b61067f6107cc36600461847f565b61162c565b61069161169a565b61067f6107e736600461847f565b6116a0565b610691611b58565b61070f61080236600461847f565b611b5e565b61070f61081536600461847f565b611dab565b61067f61082836600461816d565b611dc0565b61067f61083b36600461847f565b611e21565b610691611ea1565b610691611ea7565b61086361085e36600461847f565b611ead565b6040516106639190619839565b61069161087e3660046184a8565b611fd0565b61089661089136600461847f565b611fed565b604051610663919061876f565b61067f6108b136600461847f565b61220a565b61067f6122bd565b61067f6108cc36600461847f565b6128cd565b6106916108df36600461816d565b613ccc565b6106916108f236600461847f565b613cdb565b61069161090536600461816d565b613cff565b61067f613d1a565b61069161092036600461847f565b613d65565b610691613da2565b61089661093b36600461847f565b613da8565b61067f61094e36600461847f565b613fc5565b6106916109613660046181a5565b614009565b61069161409e565b61070f61097c3660046181a5565b6140b5565b61099461098f36600461847f565b614108565b6040516106639e9d9c9b9a999897969594939291906198d8565b61070f6109bc366004618575565b614207565b6107836109cf36600461847f565b614248565b610691614258565b6106c46109ea3660046184a8565b61425e565b610a026109fd36600461816d565b614282565b6040516106639a9998979695949392919061871b565b6107836142e5565b610783610a2e366004618554565b6142f4565b61067f610a4136600461847f565b61432c565b6106916144dc565b61067f610a5c366004618204565b6144e2565b610691610a6f3660046181a5565b614534565b610691614567565b61069161456d565b61070f610a9236600461847f565b614573565b6106916145d5565b61070f610aad3660046182c4565b6145db565b61070f610ac03660046181a5565b614641565b610691614694565b610783614749565b610691610ae33660046181a5565b614758565b610783610af636600461847f565b61479d565b61070f610b0936600461816d565b6147ad565b61067f610b1c3660046185b3565b61487a565b610656610b2f366004618554565b614bde565b610691610b423660046181d0565b614df8565b610656610b55366004618554565b614ee4565b610691610b6836600461847f565b61504c565b610691610b7b3660046181a5565b615089565b61070f610b8e3660046184a8565b6150ce565b61070f610ba13660046181a5565b6151a9565b6106916151c9565b6106916151cf565b610896610bc4366004618554565b6151d5565b610896610bd736600461847f565b6153ba565b610783610bea3660046181a5565b6155d7565b610691610bfd3660046184a8565b6155f3565b61070f610c1036600461847f565b615610565b610c28610c2336600461847f565b615615565b604051610663919061968f565b61067f6157ad565b6106916159ef565b610656610c5336600461847f565b615a02565b6106c4610c6636600461847f565b615a8e565b61067f610c793660046184d7565b615b56565b61070f610c8c36600461816d565b616318565b61067f610c9f36600461847f565b616339565b610896610cb236600461847f565b6164fe565b6106916166c1565b610896610ccd36600461847f565b6166c7565b6106916169d7565b6106916169dd565b61067f610cf036600461816d565b6169e3565b610691610d03366004618324565b616a51565b610691616a66565b61067f616a6c565b61070f610d2636600461847f565b61707a565b61070f617082565b61069161709b565b6107836170a1565b610691610d5136600461816d565b6170b0565b610783617158565b6060610d698261707a565b610d8e5760405162461bcd60e51b8152600401610d85906192e5565b60405180910390fd5b6000828152600f6020908152604080832080548251818502810185019093528083529192909190830182828015610dee57602002820191906000526020600020905b81546001600160a01b03168152600190910190602001808311610dd0575b50505050509050600081516001600160401b03811115610e1e57634e487b7160e01b600052604160045260246000fd5b604051908082528060200260200182016040528015610e47578160200160208202803683370190505b50905060005b8251811015610ef157600360008681526020019081526020016000206000848381518110610e8b57634e487b7160e01b600052603260045260246000fd5b60200260200101516001600160a01b03166001600160a01b0316815260200190815260200160002054828281518110610ed457634e487b7160e01b600052603260045260246000fd5b602090810291909101015280610ee981619a91565b915050610e4d565b509150505b919050565b610f03617167565b6001600160a01b0316610f146142e5565b6001600160a01b031614610f3a5760405162461bcd60e51b8152600401610d859061901c565b602180546001600160a01b0319166001600160a01b0392909216919091179055565b610f64617167565b6001600160a01b0316610f756142e5565b6001600160a01b031614610f9b5760405162461bcd60e51b8152600401610d859061901c565b610fa36142e5565b6001600160a01b0316ff5b60165481565b610fbc617167565b6001600160a01b0316610fcd6142e5565b6001600160a01b031614610ff35760405162461bcd60e51b8152600401610d859061901c565b601955565b60076020908152600092835260408084209091529082529020805461101c90619a56565b80601f016020809104026020016040519081016040528092919081815260200182805461104890619a56565b80156110955780601f1061106a57610100808354040283529160200191611095565b820191906000526020600020905b81548152906001019060200180831161107857829003601f168201915b505050505081565b601a5490565b600a602052600090815260409020805481906110be90619a56565b80601f01602080910402602001604051908101604052809291908181526020018280546110ea90619a56565b80156111375780601f1061110c57610100808354040283529160200191611137565b820191906000526020600020905b81548152906001019060200180831161111a57829003601f168201915b505050506001830154600284015460039094015492936001600160a01b039091169290915060ff1684565b600061116d8261707a565b6111895760405162461bcd60e51b8152600401610d85906195c8565b6000828152600b60205260409020600701546111a490615610565b92915050565b336000908152600c60205260409020600581015460ff1615156001146111e25760405162461bcd60e51b8152600401610d8590618fab565b6001810154158015906111ff57506005810154610100900460ff16155b1561125c5760058101805461ff001916610100179055601380546001810182556000919091527f66de8ffda797e3de9c05e8fc57b3bf0ec28a930d40b0d285d93c06501cf6a0900180546001600160a01b031916331790556112d4565b60018101546112d45761126e3361716b565b611277336172c3565b80546001600160a01b031916339081178255426004830181905560058301805460ff191690556040517f9dadcedba048e92b943ea1c5861cee1df63a566d7f795869c004780c1c698e2b916112cb916186d4565b60405180910390a25b6001601b60008282546112e791906199c4565b909155506112f590506173f3565b50565b60008061130485611532565b905060006113128683615089565b90505b811561148a576113258683615089565b90508481116113e257838214156113da576001600160a01b03861660009081526008602052604090819020905163e914563160e01b815273__$568f942b8aa64c6b86c96341d5ab273d86$__9163e914563191611387919086906004016186f9565b60206040518083038186803b15801561139f57600080fd5b505af41580156113b3573d6000803e3d6000fd5b505050506040513d601f19601f820116820180604052508101906113d79190618497565b91505b50905061148e565b6001600160a01b03861660009081526008602052604090819020905163e914563160e01b815273__$568f942b8aa64c6b86c96341d5ab273d86$__9163e914563191611433919086906004016186f9565b60206040518083038186803b15801561144b57600080fd5b505af415801561145f573d6000803e3d6000fd5b505050506040513d601f19601f820116820180604052508101906114839190618497565b9150611315565b5090505b9392505050565b600160209081526000928352604080842090915290825290205460ff1681565b60046020908152600092835260408084209091529082529020805461101c90619a56565b600d6020526000908152604090205481565b601181815481106114fb57600080fd5b6000918252602090912001546001600160a01b0316905081565b60405160009080602081848060185afa61152b57fe5b5051919050565b6001600160a01b038116600090815260086020526040808220905163e914563160e01b815273__$568f942b8aa64c6b86c96341d5ab273d86$__9163e914563191611582919085906004016186f9565b60206040518083038186803b15801561159a57600080fd5b505af41580156115ae573d6000803e3d6000fd5b505050506040513d601f19601f820116820180604052508101906111a49190618497565b60006115dd8261707a565b6115f95760405162461bcd60e51b8152600401610d85906192e5565b6000828152600b602052604090206007015461161490615610565b1580156111a4575061162582614573565b1592915050565b611634617167565b6001600160a01b03166116456142e5565b6001600160a01b03161461166b5760405162461bcd60e51b8152600401610d859061901c565b60008181526010602052604090205460ff16156112f5576000908152601060205260409020805460ff19169055565b60195490565b6021546040805163b45d9d8d60e01b815290516000926001600160a01b03169163b45d9d8d916004808301926020929190829003018186803b1580156116e557600080fd5b505afa1580156116f9573d6000803e3d6000fd5b505050506040513d601f19601f8201168201806040525081019061171d9190618189565b90506001600160a01b03811615801590611746575060008281526010602052604090205460ff16155b15611b3c57604051637b90ef2560e11b81526001600160a01b0382169063f721de4a906117779085906004016186d4565b602060405180830381600087803b15801561179157600080fd5b505af11580156117a5573d6000803e3d6000fd5b505050506040513d601f19601f820116820180604052508101906117c991906182aa565b15611b3c57604051631b308bf760e31b81526000906001600160a01b0383169063d9845fb8906117fd9086906004016186d4565b600060405180830381600087803b15801561181757600080fd5b505af115801561182b573d6000803e3d6000fd5b505050506040513d6000823e601f3d908101601f191682016040526118539190810190618366565b6101a0810151909150600181600381111561187e57634e487b7160e01b600052602160045260246000fd5b1415611b20576040805160808101825261016084015181523360208083019190915242828401526000606083018190526016548152600a82529290922081518051929391926118d09284920190617eee565b506020820151600182810180546001600160a01b0319166001600160a01b0390931692909217909155604083015160028301556060830151600380840180549293909260ff191691849081111561193757634e487b7160e01b600052602160045260246000fd5b0217905550506018546000908152600b602090815260409182902060215483516368d44d2360e11b815293519194506001600160a01b03169263d1a89a46926004808301939192829003018186803b15801561199257600080fd5b505afa1580156119a6573d6000803e3d6000fd5b505050506040513d601f19601f820116820180604052508101906119ca9190618497565b816001015410156119f05760018160010160008282546119ea91906199c4565b90915550505b602160009054906101000a90046001600160a01b03166001600160a01b031663d1a89a466040518163ffffffff1660e01b815260040160206040518083038186803b158015611a3e57600080fd5b505afa158015611a52573d6000803e3d6000fd5b505050506040513d601f19601f82011682018060405250810190611a769190618497565b816001015410611ac557600581018054600160ff19909116811761ff00191690915560188054600090611aaa9084906199c4565b90915550506016546018546000908152600b60205260409020555b611acd6157ad565b601654611adb9060016199c4565b60168190556101608401516040517fce4e0368a6bb3c77188acc0cc4a8eb8ebf680b6ae5f95ba67078c937b2e9f36291611b16913390618831565b60405180910390a2505b50506000828152601060205260409020805460ff191660011790555b6001601b6000828254611b4f91906199c4565b90915550505050565b601e5481565b6000818152600b6020908152604080832081516101c081018352815481526001820154938101939093526002810154918301919091526003810154606083015260048101546080830152600581015460ff808216151560a08501526101008083048216151560c08601526201000090920416151560e0840152600682015490830152600781015461012083015260088101546101408301526009810154610160830152600a8101805484939291610180840191611c1a90619a56565b80601f0160208091040260200160405190810160405280929190818152602001828054611c4690619a56565b8015611c935780601f10611c6857610100808354040283529160200191611c93565b820191906000526020600020905b815481529060010190602001808311611c7657829003601f168201915b5050509183525050600b82015460209091019060ff166003811115611cc857634e487b7160e01b600052602160045260246000fd5b6003811115611ce757634e487b7160e01b600052602160045260246000fd5b905250610160810151610140820151919250611d02916199c4565b602160009054906101000a90046001600160a01b03166001600160a01b031663ea19733c6040518163ffffffff1660e01b815260040160206040518083038186803b158015611d5057600080fd5b505afa158015611d64573d6000803e3d6000fd5b505050506040513d601f19601f82011682018060405250810190611d889190618497565b611d9291906199f0565b610140820151611da39060646199f0565b119392505050565b60106020526000908152604090205460ff1681565b611dc8617167565b6001600160a01b0316611dd96142e5565b6001600160a01b031614611dff5760405162461bcd60e51b8152600401610d859061901c565b601580546001600160a01b0319166001600160a01b0392909216919091179055565b611e29617167565b6001600160a01b0316611e3a6142e5565b6001600160a01b031614611e605760405162461bcd60e51b8152600401610d859061901c565b6000818152600a6020526040812090611e798282617f72565b506001810180546001600160a01b031916905560006002820155600301805460ff1916905550565b60185490565b60115490565b611eb5617fae565b6000828152600a602052604090819020815160808101909252805482908290611edd90619a56565b80601f0160208091040260200160405190810160405280929190818152602001828054611f0990619a56565b8015611f565780601f10611f2b57610100808354040283529160200191611f56565b820191906000526020600020905b815481529060010190602001808311611f3957829003601f168201915b505050918352505060018201546001600160a01b031660208201526002820154604082015260038083015460609092019160ff1690811115611fa857634e487b7160e01b600052602160045260246000fd5b6003811115611fc757634e487b7160e01b600052602160045260246000fd5b90525092915050565b600560209081526000928352604080842090915290825290205481565b6060611ff88261707a565b6120145760405162461bcd60e51b8152600401610d85906192e5565b6000828152600f602090815260408083208054825181850281018501909352808352919290919083018282801561207457602002820191906000526020600020905b81546001600160a01b03168152600190910190602001808311612056575b50505050509050600081516001600160401b038111156120a457634e487b7160e01b600052604160045260246000fd5b6040519080825280602002602001820160405280156120d757816020015b60608152602001906001900390816120c25790505b50905060005b8251811015610ef15760066000868152602001908152602001600020600084838151811061211b57634e487b7160e01b600052603260045260246000fd5b60200260200101516001600160a01b03166001600160a01b03168152602001908152602001600020805461214e90619a56565b80601f016020809104026020016040519081016040528092919081815260200182805461217a90619a56565b80156121c75780601f1061219c576101008083540402835291602001916121c7565b820191906000526020600020905b8154815290600101906020018083116121aa57829003601f168201915b50505050508282815181106121ec57634e487b7160e01b600052603260045260246000fd5b6020026020010181905250808061220290619a91565b9150506120dd565b612212617167565b6001600160a01b03166122236142e5565b6001600160a01b0316146122495760405162461bcd60e51b8152600401610d859061901c565b6000818152600b602052604081208181556001810182905560028101829055600381018290556004810182905560058101805462ffffff1916905560068101829055600781018290556008810182905560098101829055906122ae600a830182617f72565b50600b01805460ff1916905550565b601a546000908152600b602052604090206005015460ff166122f15760405162461bcd60e51b8152600401610d85906191cd565b601a546000908152600b602052604090206005015462010000900460ff161561232c5760405162461bcd60e51b8152600401610d8590618f4e565b60006124506123c5601180549050602160009054906101000a90046001600160a01b03166001600160a01b031663dc7048c16040518163ffffffff1660e01b815260040160206040518083038186803b15801561238857600080fd5b505afa15801561239c573d6000803e3d6000fd5b505050506040513d601f19601f820116820180604052508101906123c09190618497565b6176de565b602160009054906101000a90046001600160a01b03166001600160a01b031663fff5f9466040518163ffffffff1660e01b815260040160206040518083038186803b15801561241357600080fd5b505afa158015612427573d6000803e3d6000fd5b505050506040513d601f19601f8201168201806040525081019061244b9190618497565b6176f4565b601154601a80546000908152600b60209081526040808320600301869055925482528282206002018590556021548351632426fc0560e11b8152935195965093949193612505936001600160a01b039091169263484df80a92600480840193919291829003018186803b1580156124c657600080fd5b505afa1580156124da573d6000803e3d6000fd5b505050506040513d601f19601f820116820180604052508101906124fe9190618497565b4290617704565b90506000612599602160009054906101000a90046001600160a01b03166001600160a01b0316632b0afab36040518163ffffffff1660e01b815260040160206040518083038186803b15801561255a57600080fd5b505afa15801561256e573d6000803e3d6000fd5b505050506040513d601f19601f820116820180604052508101906125929190618497565b8390617704565b601a80546000908152600b6020526040808220600601869055825482528082206007018490559154815220600501805462ff00001916620100001790559050600184108015906125ea575060018310155b6126065760405162461bcd60e51b8152600401610d8590618b14565b60006126128585614ee4565b9050600081516001600160401b0381111561263d57634e487b7160e01b600052604160045260246000fd5b604051908082528060200260200182016040528015612666578160200160208202803683370190505b50905060005b825181101561272557601183828151811061269757634e487b7160e01b600052603260045260246000fd5b6020026020010151815481106126bd57634e487b7160e01b600052603260045260246000fd5b9060005260206000200160009054906101000a90046001600160a01b03168282815181106126fb57634e487b7160e01b600052603260045260246000fd5b6001600160a01b03909216602092830291909101909101528061271d81619a91565b91505061266c565b5060005b825181101561288d57600082828151811061275457634e487b7160e01b600052603260045260246000fd5b602002602001015190506000600c6000836001600160a01b03166001600160a01b0316815260200190815260200160002090506127908261716b565b61279982617710565b6127e957601280546001810182556000919091527fbb8a6a4669ba250d26cd7a459eca9d215f8307e33aebe50379bc5a3617ec34440180546001600160a01b0319166001600160a01b0384161790555b601a80546000908152600f602090815260408083208054600180820183559185529290932090910180546001600160a01b0319166001600160a01b03871617905582549184019190915560028301805460ff19169055905490517fe4ee2dfabe57cee15e3f558890b20455f54c1fa0718e5276faad70a6500e6b8c90612870908590618707565b60405180910390a25050808061288590619a91565b915050612729565b50601a5461289c906001617704565b601a556128a7614694565b6014819055506001601b60008282546128c091906199c4565b9091555050505050505050565b60215460408051632a49798160e11b815290516000926001600160a01b031691635492f302916004808301926020929190829003018186803b15801561291257600080fd5b505afa158015612926573d6000803e3d6000fd5b505050506040513d601f19601f8201168201806040525081019061294a9190618189565b6001600160a01b031614156129715760405162461bcd60e51b8152600401610d8590619584565b60215460408051630855d15160e01b815290516000926001600160a01b031691630855d151916004808301926020929190829003018186803b1580156129b657600080fd5b505afa1580156129ca573d6000803e3d6000fd5b505050506040513d601f19601f820116820180604052508101906129ee9190618189565b6001600160a01b03161415612a155760405162461bcd60e51b8152600401610d85906192b0565b602154604080516304e76c8f60e01b815290516000926001600160a01b0316916304e76c8f916004808301926020929190829003018186803b158015612a5a57600080fd5b505afa158015612a6e573d6000803e3d6000fd5b505050506040513d601f19601f82011682018060405250810190612a929190618189565b6001600160a01b03161415612ab95760405162461bcd60e51b8152600401610d8590618b95565b612ac281611162565b80612adc57506000818152600b6020526040902060030154155b612af85760405162461bcd60e51b8152600401610d8590619088565b6000818152600b6020526040902060050154610100900460ff1615612b2f5760405162461bcd60e51b8152600401610d859061931c565b6000818152600f6020908152604080832080548251818502810185019093528083529192909190830182828015612b8f57602002820191906000526020600020905b81546001600160a01b03168152600190910190602001808311612b71575b50505050509050600081516001600160401b03811115612bbf57634e487b7160e01b600052604160045260246000fd5b604051908082528060200260200182016040528015612bf257816020015b6060815260200190600190039081612bdd5790505b509050600082516001600160401b03811115612c1e57634e487b7160e01b600052604160045260246000fd5b604051908082528060200260200182016040528015612c47578160200160208202803683370190505b50905060005b8351811015612dca576000848281518110612c7857634e487b7160e01b600052603260045260246000fd5b60209081029190910181015160008881526004835260408082206001600160a01b0384168352909352918220805491935090612cb390619a56565b80601f0160208091040260200160405190810160405280929190818152602001828054612cdf90619a56565b8015612d2c5780601f10612d0157610100808354040283529160200191612d2c565b820191906000526020600020905b815481529060010190602001808311612d0f57829003601f168201915b50505060008a81526005602090815260408083206001600160a01b038916845290915290205488519394509284925088915086908110612d7c57634e487b7160e01b600052603260045260246000fd5b602002602001018190525080858581518110612da857634e487b7160e01b600052603260045260246000fd5b6020026020010181815250505050508080612dc290619a91565b915050612c4d565b506000612e756064602160009054906101000a90046001600160a01b03166001600160a01b031663ea19733c6040518163ffffffff1660e01b815260040160206040518083038186803b158015612e2057600080fd5b505afa158015612e34573d6000803e3d6000fd5b505050506040513d601f19601f82011682018060405250810190612e589190618497565b8651612e6491906199f0565b612e6e91906199dc565b60016176f4565b9050600083600081518110612e9a57634e487b7160e01b600052603260045260246000fd5b6020026020010151905060005b8451811015612f90576000805b8651811015612f4557612f15878481518110612ee057634e487b7160e01b600052603260045260246000fd5b6020026020010151888381518110612f0857634e487b7160e01b600052603260045260246000fd5b60200260200101516145db565b15612f3357612f256001836199c4565b9150848210612f3357612f45565b80612f3d81619a91565b915050612eb4565b50838110612f7d57858281518110612f6d57634e487b7160e01b600052603260045260246000fd5b6020026020010151925050612f90565b5080612f8881619a91565b915050612ea7565b50600083600081518110612fb457634e487b7160e01b600052603260045260246000fd5b6020026020010151905060005b84518110156130a3576000805b865181101561305857868181518110612ff757634e487b7160e01b600052603260045260246000fd5b602002602001015187848151811061301f57634e487b7160e01b600052603260045260246000fd5b60200260200101511415613046576130386001836199c4565b915085821061304657613058565b8061305081619a91565b915050612fce565b508481106130905785828151811061308057634e487b7160e01b600052603260045260246000fd5b60200260200101519250506130a3565b508061309b81619a91565b915050612fc1565b5060005b86518110156138585760008782815181106130d257634e487b7160e01b600052603260045260246000fd5b6020908102919091018101516001600160a01b03811660009081526002835260408082208d8352909352919091205490915060ff16613110826172c3565b6001600160a01b0382166000908152600c602052604090208115613739576001600160a01b0383166000818152600c6020908152604080832060028101805460ff191660011790556003018390558e835260048252808320938352929052908120805461317c90619a56565b80601f01602080910402602001604051908101604052809291908181526020018280546131a890619a56565b80156131f55780601f106131ca576101008083540402835291602001916131f5565b820191906000526020600020905b8154815290600101906020018083116131d857829003601f168201915b5050505050905061320681886145db565b1561369a5760215460408051632a49798160e11b815290516000926001600160a01b031691635492f302916004808301926020929190829003018186803b15801561325057600080fd5b505afa158015613264573d6000803e3d6000fd5b505050506040513d601f19601f820116820180604052508101906132889190618189565b90506000602160009054906101000a90046001600160a01b03166001600160a01b0316630855d1516040518163ffffffff1660e01b815260040160206040518083038186803b1580156132da57600080fd5b505afa1580156132ee573d6000803e3d6000fd5b505050506040513d601f19601f820116820180604052508101906133129190618189565b90506000602160009054906101000a90046001600160a01b03166001600160a01b03166304e76c8f6040518163ffffffff1660e01b815260040160206040518083038186803b15801561336457600080fd5b505afa158015613378573d6000803e3d6000fd5b505050506040513d601f19601f8201168201806040525081019061339c9190618189565b90506000836001600160a01b03166311815086896040518263ffffffff1660e01b81526004016133cc9190618707565b60206040518083038186803b1580156133e457600080fd5b505afa1580156133f8573d6000803e3d6000fd5b505050506040513d601f19601f8201168201806040525081019061341c9190618189565b9050826001600160a01b0316631b6d990a8b602160009054906101000a90046001600160a01b03166001600160a01b03166389b212d36040518163ffffffff1660e01b815260040160206040518083038186803b15801561347c57600080fd5b505afa158015613490573d6000803e3d6000fd5b505050506040513d601f19601f820116820180604052508101906134b49190618497565b6134be91906199f0565b836040518363ffffffff1660e01b81526004016134dc9291906198a4565b602060405180830381600087803b1580156134f657600080fd5b505af115801561350a573d6000803e3d6000fd5b505050506040513d601f19601f8201168201806040525081019061352e91906182aa565b61354a5760405162461bcd60e51b8152600401610d8590618cf6565b816001600160a01b031663e0ca50948b602160009054906101000a90046001600160a01b03166001600160a01b031663f116c4e06040518163ffffffff1660e01b815260040160206040518083038186803b1580156135a857600080fd5b505afa1580156135bc573d6000803e3d6000fd5b505050506040513d601f19601f820116820180604052508101906135e09190618497565b6135ea91906199f0565b836040518363ffffffff1660e01b815260040161360892919061988d565b602060405180830381600087803b15801561362257600080fd5b505af1158015613636573d6000803e3d6000fd5b505050506040513d601f19601f8201168201806040525081019061365a91906182aa565b6136765760405162461bcd60e51b8152600401610d8590618a35565b600186600701600082825461368b91906199c4565b909155506136b5945050505050565b60018260080160008282546136af91906199c4565b90915550505b600582015460ff1615613733576136cb84617780565b1580156136e257506005820154610100900460ff16155b1561373357601180546001810182556000919091527f31ecc21a745e3968a04e9570e4425bc18fa8019c68028196b546d1669c200c680180546001600160a01b0319166001600160a01b0386161790555b50613842565b6005810154610100900460ff168061374f575081155b15613842576001600160a01b0383166000908152600c602052604081206003018054600192906137809084906199c4565b909155505060215460408051634fda48fb60e11b815290516001600160a01b0390921691639fb491f691600480820192602092909190829003018186803b1580156137ca57600080fd5b505afa1580156137de573d6000803e3d6000fd5b505050506040513d601f19601f820116820180604052508101906138029190618497565b6001600160a01b0384166000908152600c602052604090206003015414156138425760058101805460ff191690556138398361716b565b613842836172c3565b505050808061385090619a91565b9150506130a7565b506000878152600b6020908152604090912060058101805461ff001916610100179055835161388f92600a90920191850190617eee565b506000878152600b602052604090206004018190556138ad87611b5e565b15613bcc576000878152600b60208190526040822001805460ff19166001908117909155601c8054919290916138e49084906199c4565b90915550506021546040805163463444b760e01b815290516000926001600160a01b03169163463444b7916004808301926020929190829003018186803b15801561392e57600080fd5b505afa158015613942573d6000803e3d6000fd5b505050506040513d601f19601f820116820180604052508101906139669190618189565b90506000602160009054906101000a90046001600160a01b03166001600160a01b0316637a0ec25b6040518163ffffffff1660e01b815260040160206040518083038186803b1580156139b857600080fd5b505afa1580156139cc573d6000803e3d6000fd5b505050506040513d601f19601f820116820180604052508101906139f09190618189565b6040516348257dc960e01b81529091506001600160a01b038316906348257dc990613a1f908c906004016186d4565b602060405180830381600087803b158015613a3957600080fd5b505af1925050508015613a69575060408051601f3d908101601f19168201909252613a66918101906182aa565b60015b613ada573d808015613a97576040519150601f19603f3d011682016040523d82523d6000602084013e613a9c565b606091505b507f4b87bbd93ba65ede1e2efeca735d9f7a6720bf7d6db0a8355b17dba5b64e578381604051613acc919061881e565b60405180910390a150613adc565b505b6040516348257dc960e01b81526001600160a01b038216906348257dc990613b08908c906004016186d4565b602060405180830381600087803b158015613b2257600080fd5b505af1925050508015613b52575060408051601f3d908101601f19168201909252613b4f918101906182aa565b60015b613bc3573d808015613b80576040519150601f19603f3d011682016040523d82523d6000602084013e613b85565b606091505b507f4b87bbd93ba65ede1e2efeca735d9f7a6720bf7d6db0a8355b17dba5b64e578381604051613bb5919061881e565b60405180910390a150613bc5565b505b5050613c01565b6000878152600b60208190526040822001805460ff19166002179055601d805460019290613bfb9084906199c4565b90915550505b6001601b6000828254613c1491906199c4565b90915550506000878152600b6020526040812060020154601e805491929091613c3e9084906199c4565b90915550506000878152600b6020526040812060030154601f805491929091613c689084906199c4565b90915550506000878152600a602052604090819020600181015491516001600160a01b03909216917f4274774834281ba40c971545a264fef6b81e737ecbc755cfbf28bdcf95c11b4f91613cbb916188be565b60405180910390a250505050505050565b60006111a482610b7b84611532565b6000818152600b602052604081206009810154600890910154829161148e916199c4565b6001600160a01b03166000908152600d602052604090205490565b613d22617167565b6001600160a01b0316613d336142e5565b6001600160a01b031614613d595760405162461bcd60e51b8152600401610d859061901c565b613d6360006177f0565b565b6000613d708261707a565b613d8c5760405162461bcd60e51b8152600401610d85906192e5565b506000908152600b602052604090206007015490565b60125490565b6060613db38261707a565b613dcf5760405162461bcd60e51b8152600401610d85906192e5565b6000828152600f6020908152604080832080548251818502810185019093528083529192909190830182828015613e2f57602002820191906000526020600020905b81546001600160a01b03168152600190910190602001808311613e11575b50505050509050600081516001600160401b03811115613e5f57634e487b7160e01b600052604160045260246000fd5b604051908082528060200260200182016040528015613e9257816020015b6060815260200190600190039081613e7d5790505b50905060005b8251811015610ef157600760008681526020019081526020016000206000848381518110613ed657634e487b7160e01b600052603260045260246000fd5b60200260200101516001600160a01b03166001600160a01b031681526020019081526020016000208054613f0990619a56565b80601f0160208091040260200160405190810160405280929190818152602001828054613f3590619a56565b8015613f825780601f10613f5757610100808354040283529160200191613f82565b820191906000526020600020905b815481529060010190602001808311613f6557829003601f168201915b5050505050828281518110613fa757634e487b7160e01b600052603260045260246000fd5b60200260200101819052508080613fbd90619a91565b915050613e98565b613fcd617167565b6001600160a01b0316613fde6142e5565b6001600160a01b0316146140045760405162461bcd60e51b8152600401610d859061901c565b601a55565b600073__$3906a107e5f25bd7c282287ff7d8a73921$__635b6864f360096140318686614534565b6040518363ffffffff1660e01b815260040161404e929190619796565b60206040518083038186803b15801561406657600080fd5b505af415801561407a573d6000803e3d6000fd5b505050506040513d601f19601f8201168201806040525081019061148e9190618497565b6012546011546000916140b0916199c4565b905090565b60006140c08261707a565b6140dc5760405162461bcd60e51b8152600401610d85906192e5565b506001600160a01b03919091166000908152600160209081526040808320938352929052205460ff1690565b600b60205260009081526040902080546001820154600283015460038401546004850154600586015460068701546007880154600889015460098a0154600a8b0180549a9b999a98999798969760ff80881698610100890482169862010000900490911696959493929061417b90619a56565b80601f01602080910402602001604051908101604052809291908181526020018280546141a790619a56565b80156141f45780601f106141c9576101008083540402835291602001916141f4565b820191906000526020600020905b8154815290600101906020018083116141d757829003601f168201915b505050600b909301549192505060ff168e565b6000806142148487615089565b831015905060006142258587615089565b84111580614231575085155b905081801561423d5750805b979650505050505050565b601281815481106114fb57600080fd5b60185481565b60066020908152600092835260408084209091529082529020805461101c90619a56565b600c602052600090815260409020805460018201546002830154600384015460048501546005860154600687015460078801546008909801546001600160a01b0390971697959660ff95861696949593948385169461010090940490931692908a565b6000546001600160a01b031690565b600f602052816000526040600020818154811061431057600080fd5b6000918252602090912001546001600160a01b03169150829050565b60016000828152600b60208190526040909120015460ff16600381111561436357634e487b7160e01b600052602160045260246000fd5b146143805760405162461bcd60e51b8152600401610d859061899f565b33600090815260086020526040908190209051631a4363b760e01b815273__$568f942b8aa64c6b86c96341d5ab273d86$__91631a4363b7916143c8919085906004016186f9565b60206040518083038186803b1580156143e057600080fd5b505af41580156143f4573d6000803e3d6000fd5b505050506040513d601f19601f8201168201806040525081019061441891906182aa565b6144345760405162461bcd60e51b8152600401610d8590618e59565b33600090815260086020526040908190209051636e7ba32360e01b815273__$568f942b8aa64c6b86c96341d5ab273d86$__91636e7ba3239161447c919085906004016186f9565b60006040518083038186803b15801561449457600080fd5b505af41580156144a8573d6000803e3d6000fd5b50506040513392508391507f402507661c8c8cb90e0a796450b8bdd28b6c516f05279c0cd29e84c344e1699a90600090a350565b601c5481565b60005b81518110156145305761451e82828151811061451157634e487b7160e01b600052603260045260246000fd5b602002602001015161432c565b8061452881619a91565b9150506144e5565b5050565b600082826040516020016145499291906186b2565b60405160208183030381529060405280519060200120905092915050565b601c5490565b601d5481565b600061457e8261707a565b61459a5760405162461bcd60e51b8152600401610d85906192e5565b6000828152600b60205260409020600601546145b590615610565b1580156111a45750506000908152600b6020526040902060020154151590565b60165490565b6000816040516020016145ee91906186dd565b604051602081830303815290604052805190602001208360405160200161461591906186dd565b604051602081830303815290604052805190602001201415614639575060016111a4565b5060006111a4565b600061464c8261707a565b6146685760405162461bcd60e51b8152600401610d85906192e5565b506001600160a01b03919091166000908152600260209081526040808320938352929052205460ff1690565b60008042416040516020016146a99190618695565b6040516020818303038152906040528051906020012060001c6146cc91906199dc565b446146d5611515565b6040516020016146e591906186d4565b60408051601f19818403018152919052805160209091012061470790426199c4565b61471191906199c4565b61471b91906199c4565b60405160200161472b91906186d4565b60408051601f19818403018152919052805160209091012091505090565b6015546001600160a01b031681565b600073__$3906a107e5f25bd7c282287ff7d8a73921$__635b6864f360096147808686614534565b6040518363ffffffff1660e01b815260040161404e929190619766565b601381815481106114fb57600080fd5b6001600160a01b038082166000908152600c6020908152604080832081516101408101835281549095168552600181015492850192909252600282015460ff90811615801592860183905260038401546060870152600484015460808701526005840154808316151560a088015261010090819004909216151560c0870152600684015460e08701526007840154918601919091526008909201546101208501529192839290919061486957506148678160200151611162565b155b1561487357600191505b5092915050565b6148826173f3565b61488b846115d2565b6148a75760405162461bcd60e51b8152600401610d8590619223565b33600090815260016020908152604080832087845290915290205460ff166148e15760405162461bcd60e51b8152600401610d8590618d44565b33600090815260026020908152604080832087845290915290205460ff161561491c5760405162461bcd60e51b8152600401610d85906195f1565b6149263385614009565b6149308383616a51565b1461494d5760405162461bcd60e51b8152600401610d85906190e5565b60006149593386615089565b90508360011415614990576000858152600b6020526040812060080180548392906149859084906199c4565b909155506149b79050565b6000858152600b6020526040812060090180548392906149b19084906199c4565b90915550505b33600090815260086020526040908190209051636e7ba32360e01b815273__$568f942b8aa64c6b86c96341d5ab273d86$__91636e7ba323916149ff919089906004016186f9565b60006040518083038186803b158015614a1757600080fd5b505af4158015614a2b573d6000803e3d6000fd5b50503360008181526002602090815260408083208b84528252808320805460ff191660011790556003825280832084845282528083208a90558a8352600482528083209383529281529190208651614a8a945090925090860190617eee565b50336000908152600c60209081526040808320888452600b90925290912060030154614ab7906001617840565b6000878152600b602052604090206003015560028101805460ff19166001179055426004820155614ae7336172c3565b600581015460ff1615614b4457614afd33617780565b614b4457601180546001810182556000919091527f31ecc21a745e3968a04e9570e4425bc18fa8019c68028196b546d1669c200c680180546001600160a01b031916331790555b6000868152600b6020526040902060030154614b6357614b63866128cd565b6001601b6000828254614b7691906199c4565b90915550506000868152600b60205260409081902060088101546009909101549151339288928a927fb42ce08859eaef6ebc321571a97be99f50ccafcce4e7491e5a0d22ad577010f892614bce9289929091906198c2565b60405180910390a4505050505050565b606060008211614c005760405162461bcd60e51b8152600401610d8590618ff7565b600041604051602001614c139190618695565b6040516020818303038152906040528051906020012060001c614c34611515565b604051602001614c4491906186d4565b60408051601f198184030181529190528051602090910120614c6690426199c4565b614c7091906199c4565b604051602001614c8091906186d4565b6040516020818303038152906040528051906020012060001c90506000846001600160401b03811115614cc357634e487b7160e01b600052604160045260246000fd5b604051908082528060200260200182016040528015614cec578160200160208202803683370190505b5090506000805b86821015614ded57600086614d0c63017efeeb87619a0f565b83604051602001614d1e9291906186f9565b6040516020818303038152906040528051906020012060001c614d419190619aac565b90506000805b84811015614d995782868281518110614d7057634e487b7160e01b600052603260045260246000fd5b60200260200101511415614d875760019150614d99565b80614d9181619a91565b915050614d47565b5080614dd95781858581518110614dc057634e487b7160e01b600052603260045260246000fd5b6020908102919091010152614dd68460016199c4565b93505b614de48360016199c4565b92505050614cf3565b509095945050505050565b6000614e0383611162565b614e1f5760405162461bcd60e51b8152600401610d85906194dd565b6001600160a01b038416600090815260026020908152604080832086845290915290205460ff16614e625760405162461bcd60e51b8152600401610d8590618eb6565b6000614e6d84611b5e565b614e78576000614e7b565b60015b60ff16905060008184604051602001614e959291906186f9565b6040516020818303038152906040528051906020012090506000614eb98787614758565b9050808214614eda5760405162461bcd60e51b8152600401610d8590619184565b61423d8787615089565b6060600082118015614ef65750818311155b8015614f03575060018310155b614f1f5760405162461bcd60e51b8152600401610d8590618acb565b6000826001600160401b03811115614f4757634e487b7160e01b600052604160045260246000fd5b604051908082528060200260200182016040528015614f70578160200160208202803683370190505b5090506000846001600160401b03811115614f9b57634e487b7160e01b600052604160045260246000fd5b604051908082528060200260200182016040528015614fc4578160200160208202803683370190505b5090506000614fda614fd58461784c565b6178a2565b905060005b86811015614ded5781818151811061500757634e487b7160e01b600052603260045260246000fd5b602002602001015183828151811061502f57634e487b7160e01b600052603260045260246000fd5b60209081029190910101528061504481619a91565b915050614fdf565b60006150578261707a565b6150735760405162461bcd60e51b8152600401610d85906192e5565b506000908152600b602052604090206006015490565b600073__$3906a107e5f25bd7c282287ff7d8a73921$__635b6864f360096150b18686614534565b6040518363ffffffff1660e01b815260040161404e9291906197e2565b6000828152600f6020908152604080832080548251818502810185019093528083528493849392919083018282801561513057602002820191906000526020600020905b81546001600160a01b03168152600190910190602001808311615112575b5050505050905060005b815181101561519f57846001600160a01b031682828151811061516d57634e487b7160e01b600052603260045260246000fd5b60200260200101516001600160a01b0316141561518d576001925061519f565b8061519781619a91565b91505061513a565b5090949350505050565b600260209081526000928352604080842090915290825290205460ff1681565b60175481565b601a5481565b60608183106151f65760405162461bcd60e51b8152600401610d859061963d565b6151ff8261707a565b61521b5760405162461bcd60e51b8152600401610d8590618d93565b60006152278484619a0f565b6152329060016199c4565b90506000816001600160401b0381111561525c57634e487b7160e01b600052604160045260246000fd5b60405190808252806020026020018201604052801561528f57816020015b606081526020019060019003908161527a5790505b509050845b848110156153b15760016000828152600b60208190526040909120015460ff1660038111156152d357634e487b7160e01b600052602160045260246000fd5b141561539f576000818152600b60205260409020600a0180546152f590619a56565b80601f016020809104026020016040519081016040528092919081815260200182805461532190619a56565b801561536e5780601f106153435761010080835404028352916020019161536e565b820191906000526020600020905b81548152906001019060200180831161535157829003601f168201915b505050505082828151811061539357634e487b7160e01b600052603260045260246000fd5b60200260200101819052505b806153a981619a91565b915050615294565b50949350505050565b60606153c58261707a565b6153e15760405162461bcd60e51b8152600401610d85906192e5565b6000828152600f602090815260408083208054825181850281018501909352808352919290919083018282801561544157602002820191906000526020600020905b81546001600160a01b03168152600190910190602001808311615423575b50505050509050600081516001600160401b0381111561547157634e487b7160e01b600052604160045260246000fd5b6040519080825280602002602001820160405280156154a457816020015b606081526020019060019003908161548f5790505b50905060005b8251811015610ef1576004600086815260200190815260200160002060008483815181106154e857634e487b7160e01b600052603260045260246000fd5b60200260200101516001600160a01b03166001600160a01b03168152602001908152602001600020805461551b90619a56565b80601f016020809104026020016040519081016040528092919081815260200182805461554790619a56565b80156155945780601f1061556957610100808354040283529160200191615594565b820191906000526020600020905b81548152906001019060200180831161557757829003601f168201915b50505050508282815181106155b957634e487b7160e01b600052603260045260246000fd5b602002602001018190525080806155cf90619a91565b9150506154aa565b600e602052816000526040600020818154811061431057600080fd5b600360209081526000928352604080842090915290825290205481565b421190565b61561d617ffd565b6156268261707a565b6156425760405162461bcd60e51b8152600401610d85906192e5565b6000828152600b602090815260409182902082516101c081018452815481526001820154928101929092526002810154928201929092526003820154606082015260048201546080820152600582015460ff808216151560a08401526101008083048216151560c08501526201000090920416151560e0830152600683015490820152600782015461012082015260088201546101408201526009820154610160820152600a82018054919291610180840191906156ff90619a56565b80601f016020809104026020016040519081016040528092919081815260200182805461572b90619a56565b80156157785780601f1061574d57610100808354040283529160200191615778565b820191906000526020600020905b81548152906001019060200180831161575b57829003601f168201915b5050509183525050600b82015460209091019060ff166003811115611fa857634e487b7160e01b600052602160045260246000fd5b6157b56173f3565b601354156157c5576157c5617a49565b6157cd617afd565b60005b602160009054906101000a90046001600160a01b03166001600160a01b0316637d630cb06040518163ffffffff1660e01b815260040160206040518083038186803b15801561581e57600080fd5b505afa158015615832573d6000803e3d6000fd5b505050506040513d601f19601f820116820180604052508101906158569190618497565b8110156112f5576019546000908152600b602052604081206005015462010000900460ff16151560011480156158af5750615892601954611162565b806158af57506019546000908152600b6020526040902060030154155b156158d4576158bf6019546128cd565b6019546158cd906001617704565b6019555060015b601a546000908152600b602052604090206005015462010000900460ff16151560011480159061598b5750602160009054906101000a90046001600160a01b03166001600160a01b031663fff5f9466040518163ffffffff1660e01b815260040160206040518083038186803b15801561594d57600080fd5b505afa158015615961573d6000803e3d6000fd5b505050506040513d601f19601f820116820180604052508101906159859190618497565b60115410155b80156159a0575061599a614694565b60145414155b80156159c05750601a546000908152600b602052604090206005015460ff165b156159d1576159cd6122bd565b5060015b806159dc57506112f5565b50806159e781619a91565b9150506157d0565b336000908152600d602052604090205490565b606060008211615a245760405162461bcd60e51b8152600401610d8590618f01565b6000826001600160401b03811115615a4c57634e487b7160e01b600052604160045260246000fd5b604051908082528060200260200182016040528015615a75578160200160208202803683370190505b5090506000615a86614fd58361784c565b949350505050565b6060615a998261707a565b615ab55760405162461bcd60e51b8152600401610d85906192e5565b6000828152600b60205260409020600a018054615ad190619a56565b80601f0160208091040260200160405190810160405280929190818152602001828054615afd90619a56565b8015615b4a5780601f10615b1f57610100808354040283529160200191615b4a565b820191906000526020600020905b815481529060010190602001808311615b2d57829003601f168201915b50505050509050919050565b615b5e6173f3565b615b6785614573565b615b835760405162461bcd60e51b8152600401610d8590618b5e565b33600090815260016020908152604080832088845290915290205460ff1615615bbe5760405162461bcd60e51b8152600401610d859061935d565b615bc885336150ce565b615be45760405162461bcd60e51b8152600401610d8590618c05565b60215460408051632a49798160e11b815290516000926001600160a01b031691635492f302916004808301926020929190829003018186803b158015615c2957600080fd5b505afa158015615c3d573d6000803e3d6000fd5b505050506040513d601f19601f82011682018060405250810190615c619190618189565b6001600160a01b03161415615c885760405162461bcd60e51b8152600401610d8590619584565b602154604080516371efe05960e11b815290516000926001600160a01b03169163e3dfc0b2916004808301926020929190829003018186803b158015615ccd57600080fd5b505afa158015615ce1573d6000803e3d6000fd5b505050506040513d601f19601f82011682018060405250810190615d059190618497565b90506000602160009054906101000a90046001600160a01b03166001600160a01b0316635492f3026040518163ffffffff1660e01b815260040160206040518083038186803b158015615d5757600080fd5b505afa158015615d6b573d6000803e3d6000fd5b505050506040513d601f19601f82011682018060405250810190615d8f9190618189565b90506000816001600160a01b031663f25e9ed2336040518263ffffffff1660e01b8152600401615dbf9190618707565b60206040518083038186803b158015615dd757600080fd5b505afa158015615deb573d6000803e3d6000fd5b505050506040513d601f19601f82011682018060405250810190615e0f9190618189565b336000908152600d6020526040902054909150831115615eb8576001600160a01b03811615615e8f576001600160a01b0381166000908152600d6020526040902054831115615e8a576001600160a01b0381166000908152600d6020526040812054615e7c908590617840565b9050615e888183617cc6565b505b615eb8565b336000908152600d6020526040812054615eaa908590617840565b9050615eb68133617cc6565b505b336000908152600d6020526040902054831115615ee75760405162461bcd60e51b8152600401610d85906193e8565b600033600090815260086020526040808220905163dfd58d7b60e01b815273__$568f942b8aa64c6b86c96341d5ab273d86$__9163dfd58d7b91615f30919086906004016186f9565b60206040518083038186803b158015615f4857600080fd5b505af4158015615f5c573d6000803e3d6000fd5b505050506040513d601f19601f82011682018060405250810190615f809190618497565b905089811415616025573360009081526008602052604090819020905163dfd58d7b60e01b815273__$568f942b8aa64c6b86c96341d5ab273d86$__9163dfd58d7b91615fd291908e906004016186f9565b60206040518083038186803b158015615fea57600080fd5b505af4158015615ffe573d6000803e3d6000fd5b505050506040513d601f19601f820116820180604052508101906160229190618497565b90505b61603182823388614207565b61604d5760405162461bcd60e51b8152600401610d8590618f20565b3360009081526008602052604090819020905163920ba47360e01b815273__$568f942b8aa64c6b86c96341d5ab273d86$__9163920ba47391616099919086908f90879060040161981e565b60006040518083038186803b1580156160b157600080fd5b505af41580156160c5573d6000803e3d6000fd5b5050505060006160d5338c614534565b60405163edcd42a760e01b815290915073__$3906a107e5f25bd7c282287ff7d8a73921$__9063edcd42a7906161149060099085908b90600401619800565b60006040518083038186803b15801561612c57600080fd5b505af4158015616140573d6000803e3d6000fd5b505060405163edcd42a760e01b815273__$3906a107e5f25bd7c282287ff7d8a73921$__925063edcd42a791506161809060099085908f906004016197b4565b60006040518083038186803b15801561619857600080fd5b505af41580156161ac573d6000803e3d6000fd5b50505060008c8152600560209081526040808320338085529083528184208e90558f84526006835281842090845282529091208a516161f0935090918b0190617eee565b5060008b815260076020908152604080832033845282529091208851616218928a0190617eee565b50336000908152600c602090815260408083208e8452600b90925290912060020154616245906001617840565b600b60008e8152602001908152602001600020600201819055504281600401819055506001806000336001600160a01b03166001600160a01b0316815260200190815260200160002060008e815260200190815260200160002060006101000a81548160ff0219169083151502179055506001601b60008282546162c991906199c4565b909155505060405133908d907f845211dc395f7377d81ec5b753ab60d9516a4d4c71c5ab8a8206d7959d70b80090616302908b906186d4565b60405180910390a3505050505050505050505050565b6001600160a01b03166000908152600c602052604090206005015460ff1690565b600061635d61634733613ccc565b336000908152600d602052604090205490617840565b90508181101561637f5760405162461bcd60e51b8152600401610d8590619269565b6021546040805163ca64f9e760e01b815290516000926001600160a01b03169163ca64f9e7916004808301926020929190829003018186803b1580156163c457600080fd5b505afa1580156163d8573d6000803e3d6000fd5b505050506040513d601f19601f820116820180604052508101906163fc9190618189565b604051630895993360e11b81529091506001600160a01b0382169063112b32669061642d908690339060040161988d565b602060405180830381600087803b15801561644757600080fd5b505af115801561645b573d6000803e3d6000fd5b505050506040513d601f19601f8201168201806040525081019061647f91906182aa565b61649b5760405162461bcd60e51b8152600401610d8590619527565b336000908152600d6020526040812080548592906164ba908490619a0f565b909155505060405133907ffaeb7dbb9992397d26ea1944efd40c80b40f702faf69b46c67ad10aba68ccb79906164f19086906186d4565b60405180910390a2505050565b60606165098261707a565b6165255760405162461bcd60e51b8152600401610d8590619051565b6000826019546165359190619a0f565b6165409060016199c4565b90506000816001600160401b0381111561656a57634e487b7160e01b600052604160045260246000fd5b60405190808252806020026020018201604052801561659d57816020015b60608152602001906001900390816165885790505b509050835b601954811015610ef15760016000828152600b60208190526040909120015460ff1660038111156165e357634e487b7160e01b600052602160045260246000fd5b14156166af576000818152600b60205260409020600a01805461660590619a56565b80601f016020809104026020016040519081016040528092919081815260200182805461663190619a56565b801561667e5780601f106166535761010080835404028352916020019161667e565b820191906000526020600020905b81548152906001019060200180831161666157829003601f168201915b50505050508282815181106166a357634e487b7160e01b600052603260045260246000fd5b60200260200101819052505b806166b981619a91565b9150506165a2565b601f5481565b60606166d28261707a565b6166ee5760405162461bcd60e51b8152600401610d85906192e5565b6000828152600b6020908152604080832081516101c081018352815481526001820154938101939093526002810154918301919091526003810154606083015260048101546080830152600581015460ff808216151560a08501526101008083048216151560c08601526201000090920416151560e0840152600682015490830152600781015461012083015260088101546101408301526009810154610160830152600a81018054610180840191906167a790619a56565b80601f01602080910402602001604051908101604052809291908181526020018280546167d390619a56565b80156168205780601f106167f557610100808354040283529160200191616820565b820191906000526020600020905b81548152906001019060200180831161680357829003601f168201915b5050509183525050600b82015460209091019060ff16600381111561685557634e487b7160e01b600052602160045260246000fd5b600381111561687457634e487b7160e01b600052602160045260246000fd5b90525060208101519091506000816001600160401b038111156168a757634e487b7160e01b600052604160045260246000fd5b6040519080825280602002602001820160405280156168da57816020015b60608152602001906001900390816168c55790505b50905060005b828110156153b15783516000906168f89083906199c4565b6000818152600a602052604081208054929350909161691690619a56565b80601f016020809104026020016040519081016040528092919081815260200182805461694290619a56565b801561698f5780601f106169645761010080835404028352916020019161698f565b820191906000526020600020905b81548152906001019060200180831161697257829003601f168201915b50505050509050808484815181106169b757634e487b7160e01b600052603260045260246000fd5b6020026020010181905250505080806169cf90619a91565b9150506168e0565b60195481565b601b5481565b6169eb617167565b6001600160a01b03166169fc6142e5565b6001600160a01b031614616a225760405162461bcd60e51b8152600401610d859061901c565b6001600160a01b038116616a485760405162461bcd60e51b8152600401610d8590618a85565b6112f5816177f0565b6000828260405160200161454992919061889c565b601b5490565b616a746173f3565b336000908152600c602090815260409182902060215483516398a54e2b60e01b8152935191936001600160a01b03909116926398a54e2b92600480840193829003018186803b158015616ac657600080fd5b505afa158015616ada573d6000803e3d6000fd5b505050506040513d601f19601f82011682018060405250810190616afe9190618497565b601254601154616b0e91906199c4565b10616b2b5760405162461bcd60e51b8152600401610d85906193a6565b600581015460ff1615616b505760405162461bcd60e51b8152600401610d8590618968565b60215460408051632a49798160e11b815290516000926001600160a01b031691635492f302916004808301926020929190829003018186803b158015616b9557600080fd5b505afa158015616ba9573d6000803e3d6000fd5b505050506040513d601f19601f82011682018060405250810190616bcd9190618189565b6001600160a01b03161415616bf45760405162461bcd60e51b8152600401610d8590619584565b602160009054906101000a90046001600160a01b03166001600160a01b0316639fb491f66040518163ffffffff1660e01b815260040160206040518083038186803b158015616c4257600080fd5b505afa158015616c56573d6000803e3d6000fd5b505050506040513d601f19601f82011682018060405250810190616c7a9190618497565b816003015410158015616d1f5750602160009054906101000a90046001600160a01b03166001600160a01b0316630f1f0ffe6040518163ffffffff1660e01b815260040160206040518083038186803b158015616cd657600080fd5b505afa158015616cea573d6000803e3d6000fd5b505050506040513d601f19601f82011682018060405250810190616d0e9190618497565b6006820154616d1d9042619a0f565b105b15616d3c5760405162461bcd60e51b8152600401610d8590619445565b602154604080516371efe05960e11b815290516000926001600160a01b03169163e3dfc0b2916004808301926020929190829003018186803b158015616d8157600080fd5b505afa158015616d95573d6000803e3d6000fd5b505050506040513d601f19601f82011682018060405250810190616db99190618497565b90506000602160009054906101000a90046001600160a01b03166001600160a01b0316635492f3026040518163ffffffff1660e01b815260040160206040518083038186803b158015616e0b57600080fd5b505afa158015616e1f573d6000803e3d6000fd5b505050506040513d601f19601f82011682018060405250810190616e439190618189565b90506000816001600160a01b031663f25e9ed2336040518263ffffffff1660e01b8152600401616e739190618707565b60206040518083038186803b158015616e8b57600080fd5b505afa158015616e9f573d6000803e3d6000fd5b505050506040513d601f19601f82011682018060405250810190616ec39190618189565b336000908152600d6020526040902054909150831115616f6c576001600160a01b03811615616f43576001600160a01b0381166000908152600d6020526040902054831115616f3e576001600160a01b0381166000908152600d6020526040812054616f30908590617840565b9050616f3c8183617cc6565b505b616f6c565b336000908152600d6020526040812054616f5e908590617840565b9050616f6a8133617cc6565b505b336000908152600d6020526040902054831115616f9b5760405162461bcd60e51b8152600401610d8590618df0565b616fa433617780565b616feb57601180546001810182556000919091527f31ecc21a745e3968a04e9570e4425bc18fa8019c68028196b546d1669c200c680180546001600160a01b031916331790555b8354336001600160a01b031990911617845560058401805460ff1916600190811761ff001916909155426006860155600060038601819055601b80549091906170359084906199c4565b909155505060405133907f439d77b7534ec3108fc6143bd4fbabde0b9f2bb54f7b0730d1f70dd2135b765f9061706c9042906186d4565b60405180910390a250505050565b601854101590565b336000908152600c602052604090206005015460ff1690565b601d5490565b6020546001600160a01b031681565b6001600160a01b039081166000908152600c6020908152604091829020825161014081018452815490941684526001810154918401829052600281015460ff90811615159385019390935260038101546060850152600481015460808501526005810154808416151560a086015261010090819004909316151560c0850152600681015460e08501526007810154928401929092526008909101546101209092019190915290565b6021546001600160a01b031681565b3390565b60008060005b6011548110156171df57836001600160a01b0316601182815481106171a657634e487b7160e01b600052603260045260246000fd5b6000918252602090912001546001600160a01b031614156171cd57600191508092506171df565b806171d781619a91565b915050617171565b5080156172be57601180546171f690600190619a0f565b8154811061721457634e487b7160e01b600052603260045260246000fd5b600091825260209091200154601180546001600160a01b03909216918490811061724e57634e487b7160e01b600052603260045260246000fd5b9060005260206000200160006101000a8154816001600160a01b0302191690836001600160a01b03160217905550601180548061729b57634e487b7160e01b600052603160045260246000fd5b600082815260209020810160001990810180546001600160a01b03191690550190555b505050565b60008060005b60125481101561733757836001600160a01b0316601282815481106172fe57634e487b7160e01b600052603260045260246000fd5b6000918252602090912001546001600160a01b031614156173255760019150809250617337565b8061732f81619a91565b9150506172c9565b5080156172be576012805461734e90600190619a0f565b8154811061736c57634e487b7160e01b600052603260045260246000fd5b600091825260209091200154601280546001600160a01b0390921691849081106173a657634e487b7160e01b600052603260045260246000fd5b9060005260206000200160006101000a8154816001600160a01b0302191690836001600160a01b03160217905550601280548061729b57634e487b7160e01b600052603160045260246000fd5b60215460408051632abe0d5f60e11b815290516000926001600160a01b03169163557c1abe916004808301926020929190829003018186803b15801561743857600080fd5b505afa925050508015617468575060408051601f3d908101601f1916820190925261746591810190618189565b60015b6174d9573d808015617496576040519150601f19603f3d011682016040523d82523d6000602084013e61749b565b606091505b507f4b87bbd93ba65ede1e2efeca735d9f7a6720bf7d6db0a8355b17dba5b64e5783816040516174cb919061881e565b60405180910390a1506174db565b505b602160009054906101000a90046001600160a01b03166001600160a01b031663557c1abe6040518163ffffffff1660e01b815260040160206040518083038186803b15801561752957600080fd5b505afa15801561753d573d6000803e3d6000fd5b505050506040513d601f19601f820116820180604052508101906175619190618189565b90506001600160a01b0381166175895760405162461bcd60e51b8152600401610d8590618c62565b6000816001600160a01b0316336040516024016175a69190618707565b60408051601f198184030181529181526020820180516001600160e01b0316631f5ac9c560e11b179052516175db91906186dd565b6000604051808303816000865af19150503d8060008114617618576040519150601f19603f3d011682016040523d82523d6000602084013e61761d565b606091505b505090506000826001600160a01b03163360405160240161763e9190618707565b60408051601f198184030181529181526020820180516001600160e01b03166358563d2160e01b1790525161767391906186dd565b6000604051808303816000865af19150503d80600081146176b0576040519150601f19603f3d011682016040523d82523d6000602084013e6176b5565b606091505b5050905081806176c25750805b6172be5760405162461bcd60e51b8152600401610d85906189f0565b60008183106176ed578161148e565b5090919050565b6000818310156176ed578161148e565b600061148e82846199c4565b600080805b60125481101561487357836001600160a01b03166012828154811061774a57634e487b7160e01b600052603260045260246000fd5b6000918252602090912001546001600160a01b0316141561776e5760019150614873565b8061777881619a91565b915050617715565b600080805b60115481101561487357836001600160a01b0316601182815481106177ba57634e487b7160e01b600052603260045260246000fd5b6000918252602090912001546001600160a01b031614156177de5760019150614873565b806177e881619a91565b915050617785565b600080546001600160a01b038381166001600160a01b0319831681178455604051919092169283917f8be0079c531659141344cd1fd0a4f28419497f9722a3daafe3b4186f6b6457e09190a35050565b600061148e8284619a0f565b805160609060005b8181101561789a578084828151811061787d57634e487b7160e01b600052603260045260246000fd5b60209081029190910101528061789281619a91565b915050617854565b509192915050565b606060008251116178c55760405162461bcd60e51b8152600401610d8590618bd8565b81518060005b81811015617a40576000836178de614694565b8784815181106178fe57634e487b7160e01b600052603260045260246000fd5b60200260200101516040516020016179179291906186f9565b6040516020818303038152906040528051906020012060001c61793a9190619aac565b6179459060016199c4565b9050600086617955600184619a0f565b8151811061797357634e487b7160e01b600052603260045260246000fd5b602002602001015190508660018661798b9190619a0f565b815181106179a957634e487b7160e01b600052603260045260246000fd5b6020026020010151876001846179bf9190619a0f565b815181106179dd57634e487b7160e01b600052603260045260246000fd5b602090810291909101015280876179f5600188619a0f565b81518110617a1357634e487b7160e01b600052603260045260246000fd5b6020908102919091010152617a29600186619a0f565b945050508080617a3890619a91565b9150506178cb565b50929392505050565b60005b601354811015617af057600060138281548110617a7957634e487b7160e01b600052603260045260246000fd5b60009182526020808320909101546001600160a01b0316808352600c909152604090912060058101549192509060ff168015617ab757506001810154155b15617adb5760058101805461ffff19169055617ad28261716b565b617adb826172c3565b50508080617ae890619a91565b915050617a4c565b50613d636013600061808b565b6000601754601954617b0f9190619a0f565b9050602160009054906101000a90046001600160a01b03166001600160a01b031663e3115d3c6040518163ffffffff1660e01b815260040160206040518083038186803b158015617b5f57600080fd5b505afa158015617b73573d6000803e3d6000fd5b505050506040513d601f19601f82011682018060405250810190617b979190618497565b8111156112f55760005b602154604080516307d630cb60e41b81529051617c25926001600160a01b031691637d630cb0916004808301926020929190829003018186803b158015617be757600080fd5b505afa158015617bfb573d6000803e3d6000fd5b505050506040513d601f19601f82011682018060405250810190617c1f9190618497565b836176de565b811015614530576017546000908152600b602052604081208054600190910154909190617c5290836199c4565b9050815b81811015617c7957617c6781611e21565b80617c7181619a91565b915050617c56565b50617c8560175461220a565b6017546040517f72c2fcc891fe835b86fc8bb9abdc52adf52499c52289b3c49e1461eabea2717590600090a250508080617cbe90619a91565b915050617ba1565b6021546040805163ca64f9e760e01b815290516000926001600160a01b03169163ca64f9e7916004808301926020929190829003018186803b158015617d0b57600080fd5b505afa158015617d1f573d6000803e3d6000fd5b505050506040513d601f19601f82011682018060405250810190617d439190618189565b6001600160a01b03161415617d6a5760405162461bcd60e51b8152600401610d8590619142565b6021546040805163ca64f9e760e01b815290516000926001600160a01b03169163ca64f9e7916004808301926020929190829003018186803b158015617daf57600080fd5b505afa158015617dc3573d6000803e3d6000fd5b505050506040513d601f19601f82011682018060405250810190617de79190618189565b6040516304ada21f60e21b81529091506001600160a01b038216906312b6887c90617e18908690869060040161988d565b602060405180830381600087803b158015617e3257600080fd5b505af1158015617e46573d6000803e3d6000fd5b505050506040513d601f19601f82011682018060405250810190617e6a91906182aa565b617e865760405162461bcd60e51b8152600401610d8590618c99565b6001600160a01b0382166000908152600d602052604081208054859290617eae9084906199c4565b92505081905550816001600160a01b03167f5aa5d56140767016c877a5333ac3e1ad31a09051098a8fdf7297c4b64530a942846040516164f191906186d4565b828054617efa90619a56565b90600052602060002090601f016020900481019282617f1c5760008555617f62565b82601f10617f3557805160ff1916838001178555617f62565b82800160010185558215617f62579182015b82811115617f62578251825591602001919060010190617f47565b50617f6e9291506180a5565b5090565b508054617f7e90619a56565b6000825580601f10617f9057506112f5565b601f0160209004906000526020600020908101906112f591906180a5565b60405180608001604052806060815260200160006001600160a01b031681526020016000815260200160006003811115617ff857634e487b7160e01b600052602160045260246000fd5b905290565b604051806101c001604052806000815260200160008152602001600081526020016000815260200160008152602001600015158152602001600015158152602001600015158152602001600081526020016000815260200160008152602001600081526020016060815260200160006003811115617ff857634e487b7160e01b600052602160045260246000fd5b50805460008255906000526020600020908101906112f591905b5b80821115617f6e57600081556001016180a6565b80518015158114610ef657600080fd5b805160048110610ef657600080fd5b600082601f8301126180e9578081fd5b81356180fc6180f782619991565b619968565b818152846020838601011115618110578283fd5b816020850160208301379081016020019190915292915050565b600082601f83011261813a578081fd5b81516181486180f782619991565b81815284602083860101111561815c578283fd5b615a86826020830160208701619a26565b60006020828403121561817e578081fd5b813561148e81619b02565b60006020828403121561819a578081fd5b815161148e81619b02565b600080604083850312156181b7578081fd5b82356181c281619b02565b946020939093013593505050565b6000806000606084860312156181e4578081fd5b83356181ef81619b02565b95602085013595506040909401359392505050565b60006020808385031215618216578182fd5b82356001600160401b038082111561822c578384fd5b818501915085601f83011261823f578384fd5b81358181111561825157618251619aec565b8381029150618261848301619968565b8181528481019084860184860187018a101561827b578788fd5b8795505b8386101561829d57803583526001959095019491860191860161827f565b5098975050505050505050565b6000602082840312156182bb578081fd5b61148e826180ba565b600080604083850312156182d6578182fd5b82356001600160401b03808211156182ec578384fd5b6182f8868387016180d9565b9350602085013591508082111561830d578283fd5b5061831a858286016180d9565b9150509250929050565b60008060408385031215618336578182fd5b82356001600160401b0381111561834b578283fd5b618357858286016180d9565b95602094909401359450505050565b600060208284031215618377578081fd5b81516001600160401b038082111561838d578283fd5b81840191506101c08083870312156183a3578384fd5b6183ac81619968565b9050825181526020830151602082015260408301516040820152606083015160608201526183dc608084016180ba565b60808201526183ed60a084016180ba565b60a08201526183fe60c084016180ba565b60c082015260e083810151908201526101008084015190820152610120808401519082015261014080840151908201526101608084015183811115618441578586fd5b61844d8882870161812a565b828401525050610180915081830151828201526101a091506184708284016180ca565b91810191909152949350505050565b600060208284031215618490578081fd5b5035919050565b60006020828403121561152b578081fd5b600080604083850312156184ba578182fd5b8235915060208301356184cc81619b02565b809150509250929050565b600080600080600060a086880312156184ee578283fd5b85359450602086013593506040860135925060608601356001600160401b0380821115618519578283fd5b61852589838a016180d9565b9350608088013591508082111561853a578283fd5b50618547888289016180d9565b9150509295509295909350565b60008060408385031215618566578182fd5b50508035926020909101359150565b6000806000806080858703121561858a578182fd5b843593506020850135925060408501356185a381619b02565b9396929550929360600135925050565b600080600080608085870312156185c8578182fd5b843593506020850135925060408501356001600160401b038111156185eb578283fd5b6185f7878288016180d9565b949793965093946060013593505050565b15159052565b60008151808452618626816020860160208601619a26565b601f01601f19169290920160200192915050565b6004811061865857634e487b7160e01b600052602160045260246000fd5b9052565b600a8152690c6dedadad2e890c2e6d60b31b602082015260400190565b60098152686e756d546f6b656e7360b81b602082015260400190565b60609190911b6bffffffffffffffffffffffff1916815260140190565b60609290921b6bffffffffffffffffffffffff19168252601482015260340190565b90815260200190565b600082516186ef818460208701619a26565b9190910192915050565b918252602082015260400190565b6001600160a01b0391909116815260200190565b6001600160a01b039a909a168a5260208a0198909852951515604089015260608801949094526080870192909252151560a0860152151560c085015260e08401526101008301526101208201526101400190565b6000602080830181845280855180835260408601915060408482028701019250838701855b828110156187c257603f198886030184526187b085835161860e565b94509285019290850190600101618794565b5092979650505050505050565b6020808252825182820181905260009190848201906040850190845b81811015618807578351835292840192918401916001016187eb565b50909695505050505050565b901515815260200190565b60006020825261148e602083018461860e565b600060408252618844604083018561860e565b905060018060a01b03831660208301529392505050565b60006080825261886e608083018761860e565b6001600160a01b0386166020840152604083018590529050618893606083018461863a565b95945050505050565b6000604082526188af604083018561860e565b90508260208301529392505050565b60006020808352818454836002820490506001808316806188e057607f831692505b8583108114156188fe57634e487b7160e01b87526022600452602487fd5b61890a83878a016186d4565b81801561891e576001811461892f57618959565b60ff19861682528782019650618959565b6189388b6199b8565b895b868110156189535781548482015290850190890161893a565b83019750505b50949998505050505050505050565b6020808252601c908201527f576f726b657220697320616c7265616479207265676973746572656400000000604082015260600190565b60208082526031908201527f676976656e204461746142617463682073686f756c6420626520415050524f5660408201527011510b08185b99081a5d081a5cc81b9bdd607a1b606082015260800190565b60208082526025908201527f72656365697665722072656a6563746564205f7265747269657665534675656c6040820152640818d85b1b60da1b606082015260800190565b60208082526030908201527f636f756c64206e6f742072657761726420746f6b656e20696e2056616c69646160408201526f3a32a230ba30a130ba31b4161018973160811b606082015260800190565b60208082526026908201527f4f776e61626c653a206e6577206f776e657220697320746865207a65726f206160408201526564647265737360d01b606082015260800190565b60208082526029908201527f6b206f72204e20617265206e6f74204f4b20647572696e672072616e646f6d2060408201526839b2b632b1ba34b7b760b91b606082015260800190565b6020808252602a908201527f4661696c20647572696e6720616c6c6f636174696f6e3a206e6f7420656e6f75604082015269676820776f726b65727360b01b606082015260800190565b6020808252601e908201527f636f6d6d697420706572696f64206e6565647320746f206265206f70656e0000604082015260600190565b60208082526023908201527f5265776172644d616e61676572206973206e756c6c20696e20506172616d657460408201526265727360e81b606082015260800190565b60208082526013908201527205f6d7941727261792e6c656e677468203e203606c1b604082015260600190565b60208082526038908201527f55736572206e6565647320746f20626520616c6c6f636174656420746f20746860408201527f697320626174636820746f20636f6d6d6974206f6e2069740000000000000000606082015260800190565b6020808252601d908201527f734675656c3a206e756c6c2041646472657373204e6f742056616c6964000000604082015260600190565b6020808252603f908201527f436f756c64206e6f74207265717565737420656e6f75676820616c6c6f63617460408201527f6564207374616b652c2072657175657374416c6c6f63617465645374616b6500606082015260800190565b6020808252602e908201527f636f756c64206e6f74207265776172642052455020696e2056616c696461746560408201526d4461746142617463682c20312e6160901b606082015260800190565b6020808252602f908201527f5573657220686173206e6f7420636f6d6d69746564206265666f72652c20746860408201526e1d5cc818d85b89dd081c995d99585b608a1b606082015260800190565b6020808252603b908201527f5f44617461426174636849645f656e64206d7573742065786973743a2074686560408201527f20696e7075742072616e6765206973206e6f7420636f72726563740000000000606082015260800190565b60208082526043908201527f576f726b657220686173206e6f7420656e6f75676820285f6e756d546f6b656e60408201527f732920696e206869732053797374656d5374616b6564546f6b656e42616c616e606082015262031b2960ed1b608082015260a00190565b60208082526039908201527f646c6c4d61703a20646f6573206e6f7420636f696e7461696e205f446174614260408201527f61746368496420666f7220746865206d73672073656e64657200000000000000606082015260800190565b6020808252602b908201527f75736572206d75737420686176652072657665616c656420696e20746869732060408201526a0ced2eccadc4084c2e8c6d60ab1b606082015260800190565b60208082526005908201526404e203e20360dc1b604082015260600190565b6020808252601490820152733737ba1030903b30b634b2103837b9b4ba34b7b760611b604082015260600190565b6020808252603b908201527f43616e277420616c6c6f6361746520776f726b2c207468652063757272656e7460408201527f20626174636820697320616c726561647920616c6c6f63617465640000000000606082015260800190565b6020808252602c908201527f576f726b6572206973206e6f74207265676973746572656420736f2063616e2760408201526b3a103ab73932b3b4b9ba32b960a11b606082015260800190565b6020808252600b908201526a04e5f72616e6765203e20360ac1b604082015260600190565b6020808252818101527f4f776e61626c653a2063616c6c6572206973206e6f7420746865206f776e6572604082015260600190565b6020808252601d908201527f5f44617461426174636849645f7374617274206d757374206578697374000000604082015260600190565b6020808252603a908201527f5f446174614261746368496420686173206e6f7420656e6465642c206f72206e60408201527f6f7420657665727920766f74657273206861766520766f746564000000000000606082015260800190565b6020808252603e908201527f436f756c64206e6f74206d6174636820656e637279707465642068617368202660408201527f20636c6561722068617368207769746820676976656e20696e707574732e0000606082015260800190565b60208082526022908201527f5374616b654d616e61676572206973206e756c6c20696e20506172616d657465604082015261727360f01b606082015260800190565b60208082526029908201527f6765744e756d50617373696e67546f6b656e733a20686173686573206d75737460408201526808189948195c5d585b60ba1b606082015260800190565b60208082526036908201527f43616e277420616c6c6f6361746520776f726b2c207468652063757272656e74604082015275206261746368206973206e6f7420636f6d706c65746560501b606082015260800190565b60208082526026908201527f52657665616c20706572696f64206e6f74206f70656e20666f7220746869732060408201526511185d18525160d21b606082015260800190565b60208082526027908201527f617661696c61626c65546f6b656e732073686f756c64206265203e3d205f6e756040820152666d546f6b656e7360c81b606082015260800190565b6020808252818101527f5265704d616e61676572206973206e756c6c20696e20506172616d6574657273604082015260600190565b60208082526017908201527f5f4461746142617463684964206d757374206578697374000000000000000000604082015260600190565b60208082526021908201527f5f446174614261746368496420697320616c72656164792076616c69646174656040820152601960fa1b606082015260800190565b60208082526029908201527f557365722068617320616c726561647920636f6d6d6974656420746f207468696040820152681cc818985d18da125960ba1b606082015260800190565b60208082526022908201527f4d6178696d756d207265676973746572656420776f726b65727320616c726561604082015261647960f01b606082015260800190565b60208082526037908201527f75736572206d757374206861766520656e6f75676820766f74696e672072696760408201527f68747320616b6120616c6c6f6361746564207374616b65000000000000000000606082015260800190565b6020808252606c908201527f5573657220686173206e6f7420766f746564206d616e792074696d657320696e60408201527f206120726f7720616e64206e6565647320746f2077616974204e4f564f54455f60608201527f524547495354524154494f4e5f574149545f4455524154494f4e20746f20726560808201526b33b4b9ba32b91030b3b0b4b760a11b60a082015260c00190565b6020808252602a908201527f5f446174614261746368496420636865636b696e6720766f7465206d757374206040820152691a185d9948195b99195960b21b606082015260800190565b6020808252603b908201527f436f756c64206e6f74207769746864726177566f74696e67526967687473207460408201527f68726f7567682050726f78795374616b654465616c6c6f636174650000000000606082015260800190565b60208082526024908201527f416464726573734d616e61676572206973206e756c6c20696e20506172616d656040820152637465727360e01b606082015260800190565b6020808252600f908201526e11185d18481b5d5cdd08195e1a5cdd608a1b604082015260600190565b6020808252602c908201527f557365722068617320616c72656164792072657665616c65642c20746875732060408201526b18d85b89dd081c995d99585b60a21b606082015260800190565b60208082526032908201527f5f44617461426174636849645f7374617274206d757374206265203c207468616040820152711b8817d1185d1850985d18da125917d95b9960721b606082015260800190565b60006020825282516020830152602083015160408301526040830151606083015260608301516080830152608083015160a083015260a08301516196d660c0840182618608565b5060c08301516196e960e0840182618608565b5060e08301516101006196fe81850183618608565b840151610120848101919091528401516101408085019190915284015161016080850191909152840151610180808501919091528401516101c06101a0808601829052919250906197536101e086018461860e565b9086015190925061519f8583018261863a565b9182526020820152606060408201819052600a9082015269636f6d6d6974566f746560b01b608082015260a00190565b600083825282602083015260606040830152615a866060830161865c565b6000848252836020830152608060408301526197d26080830161865c565b9050826060830152949350505050565b600083825282602083015260606040830152615a8660608301618679565b6000848252836020830152608060408301526197d260808301618679565b93845260208401929092526040830152606082015260800190565b60006020825282516080602084015261985560a084018261860e565b905060018060a01b036020850151166040840152604084015160608401526060840151619885608085018261863a565b509392505050565b9182526001600160a01b0316602082015260400190565b9182526001600160a01b031660208201526000604082015260600190565b9283526020830191909152604082015260600190565b60008f82528e60208301528d60408301528c60608301528b60808301528a151560a083015289151560c083015261991260e083018a618608565b876101008301528661012083015285610140830152846101608301526101c06101808301526199456101c083018561860e565b90506199556101a083018461863a565b9f9e505050505050505050505050505050565b6040518181016001600160401b038111828210171561998957619989619aec565b604052919050565b60006001600160401b038211156199aa576199aa619aec565b50601f01601f191660200190565b60009081526020902090565b600082198211156199d7576199d7619ac0565b500190565b6000826199eb576199eb619ad6565b500490565b6000816000190483118215151615619a0a57619a0a619ac0565b500290565b600082821015619a2157619a21619ac0565b500390565b60005b83811015619a41578181015183820152602001619a29565b83811115619a50576000848401525b50505050565b600281046001821680619a6a57607f821691505b60208210811415619a8b57634e487b7160e01b600052602260045260246000fd5b50919050565b6000600019821415619aa557619aa5619ac0565b5060010190565b600082619abb57619abb619ad6565b500690565b634e487b7160e01b600052601160045260246000fd5b634e487b7160e01b600052601260045260246000fd5b634e487b7160e01b600052604160045260246000fd5b6001600160a01b03811681146112f557600080fdfea2646970667358221220431544ea7617032c0b22189120063cec9ec473e00af9354422d835fb08e3fdef64736f6c63430008000033",
  "linkReferences": {
    "contracts/worksystems/DataCompliance.sol": {
      "AttributeStore2": [
        {
          "length": 20,
          "start": 16730
        },
        {
          "length": 20,
          "start": 18601
        },
        {
          "length": 20,
          "start": 20954
        },
        {
          "length": 20,
          "start": 25140
        },
        {
          "length": 20,
          "start": 25246
        }
      ],
      "DLL2": [
        {
          "length": 20,
          "start": 5291
        },
        {
          "length": 20,
          "start": 5463
        },
        {
          "length": 20,
          "start": 5798
        },
        {
          "length": 20,
          "start": 17644
        },
        {
          "length": 20,
          "start": 17824
        },
        {
          "length": 20,
          "start": 19235
        },
        {
          "length": 20,
          "start": 24660
        },
        {
          "length": 20,
          "start": 24822
        },
        {
          "length": 20,
          "start": 25017
        }
      ]
    }
  },
  "deployedLinkReferences": {
    "contracts/worksystems/DataCompliance.sol": {
      "AttributeStore2": [
        {
          "length": 20,
          "start": 16397
        },
        {
          "length": 20,
          "start": 18268
        },
        {
          "length": 20,
          "start": 20621
        },
        {
          "length": 20,
          "start": 24807
        },
        {
          "length": 20,
          "start": 24913
        }
      ],
      "DLL2": [
        {
          "length": 20,
          "start": 4958
        },
        {
          "length": 20,
          "start": 5130
        },
        {
          "length": 20,
          "start": 5465
        },
        {
          "length": 20,
          "start": 17311
        },
        {
          "length": 20,
          "start": 17491
        },
        {
          "length": 20,
          "start": 18902
        },
        {
          "length": 20,
          "start": 24327
        },
        {
          "length": 20,
          "start": 24489
        },
        {
          "length": 20,
          "start": 24684
        }
      ]
    }
  }
}