{
  "_format": "hh-sol-artifact-1",
  "contractName": "DataCompliance",
  "sourceName": "contracts/worksystems/DataCompliance.sol",
  "abi": [
    {
      "inputs": [
        {
          "internalType": "address",
          "name": "EXDT_token_",
          "type": "address"
        }
      ],
      "stateMutability": "nonpayable",
      "type": "constructor"
    },
    {
      "anonymous": false,
      "inputs": [
        {
          "indexed": false,
          "internalType": "bytes",
          "name": "bytesFailure",
          "type": "bytes"
        }
      ],
      "name": "BytesFailure",
      "type": "event"
    },
    {
      "anonymous": false,
      "inputs": [
        {
          "indexed": true,
          "internalType": "address",
          "name": "previousOwner",
          "type": "address"
        },
        {
          "indexed": true,
          "internalType": "address",
          "name": "newOwner",
          "type": "address"
        }
      ],
      "name": "OwnershipTransferred",
      "type": "event"
    },
    {
      "anonymous": false,
      "inputs": [
        {
          "indexed": false,
          "internalType": "string",
          "name": "hash",
          "type": "string"
        },
        {
          "indexed": true,
          "internalType": "address",
          "name": "creator",
          "type": "address"
        }
      ],
      "name": "_ComplianceAccepted",
      "type": "event"
    },
    {
      "anonymous": false,
      "inputs": [
        {
          "indexed": true,
          "internalType": "uint256",
          "name": "DataID",
          "type": "uint256"
        },
        {
          "indexed": false,
          "internalType": "uint256",
          "name": "numTokens",
          "type": "uint256"
        },
        {
          "indexed": true,
          "internalType": "address",
          "name": "voter",
          "type": "address"
        }
      ],
      "name": "_ComplianceCheckCommitted",
      "type": "event"
    },
    {
      "anonymous": false,
      "inputs": [
        {
          "indexed": true,
          "internalType": "uint256",
          "name": "DataID",
          "type": "uint256"
        },
        {
          "indexed": false,
          "internalType": "uint256",
          "name": "numTokens",
          "type": "uint256"
        },
        {
          "indexed": false,
          "internalType": "uint256",
          "name": "votesFor",
          "type": "uint256"
        },
        {
          "indexed": false,
          "internalType": "uint256",
          "name": "votesAgainst",
          "type": "uint256"
        },
        {
          "indexed": true,
          "internalType": "uint256",
          "name": "choice",
          "type": "uint256"
        },
        {
          "indexed": true,
          "internalType": "address",
          "name": "voter",
          "type": "address"
        }
      ],
      "name": "_ComplianceCheckRevealed",
      "type": "event"
    },
    {
      "anonymous": false,
      "inputs": [
        {
          "indexed": true,
          "internalType": "uint256",
          "name": "DataID",
          "type": "uint256"
        },
        {
          "indexed": false,
          "internalType": "string",
          "name": "file_hash",
          "type": "string"
        },
        {
          "indexed": false,
          "internalType": "address",
          "name": "sender",
          "type": "address"
        }
      ],
      "name": "_ComplianceSubmitted",
      "type": "event"
    },
    {
      "anonymous": false,
      "inputs": [
        {
          "indexed": true,
          "internalType": "uint256",
          "name": "batchID",
          "type": "uint256"
        }
      ],
      "name": "_DataBatchDeleted",
      "type": "event"
    },
    {
      "anonymous": false,
      "inputs": [
        {
          "indexed": false,
          "internalType": "uint256",
          "name": "numTokens",
          "type": "uint256"
        },
        {
          "indexed": true,
          "internalType": "address",
          "name": "voter",
          "type": "address"
        }
      ],
      "name": "_StakeAllocated",
      "type": "event"
    },
    {
      "anonymous": false,
      "inputs": [
        {
          "indexed": true,
          "internalType": "uint256",
          "name": "DataID",
          "type": "uint256"
        },
        {
          "indexed": true,
          "internalType": "address",
          "name": "voter",
          "type": "address"
        }
      ],
      "name": "_TokensRescued",
      "type": "event"
    },
    {
      "anonymous": false,
      "inputs": [
        {
          "indexed": false,
          "internalType": "uint256",
          "name": "numTokens",
          "type": "uint256"
        },
        {
          "indexed": true,
          "internalType": "address",
          "name": "voter",
          "type": "address"
        }
      ],
      "name": "_VotingRightsWithdrawn",
      "type": "event"
    },
    {
      "anonymous": false,
      "inputs": [
        {
          "indexed": true,
          "internalType": "uint256",
          "name": "batchID",
          "type": "uint256"
        },
        {
          "indexed": false,
          "internalType": "address",
          "name": "worker",
          "type": "address"
        }
      ],
      "name": "_WorkAllocated",
      "type": "event"
    },
    {
      "anonymous": false,
      "inputs": [
        {
          "indexed": true,
          "internalType": "address",
          "name": "worker",
          "type": "address"
        },
        {
          "indexed": false,
          "internalType": "uint256",
          "name": "timestamp",
          "type": "uint256"
        }
      ],
      "name": "_WorkerRegistered",
      "type": "event"
    },
    {
      "anonymous": false,
      "inputs": [
        {
          "indexed": true,
          "internalType": "address",
          "name": "worker",
          "type": "address"
        },
        {
          "indexed": false,
          "internalType": "uint256",
          "name": "timestamp",
          "type": "uint256"
        }
      ],
      "name": "_WorkerUnregistered",
      "type": "event"
    },
    {
      "inputs": [],
      "name": "AcceptedBatchsCounter",
      "outputs": [
        {
          "internalType": "uint256",
          "name": "",
          "type": "uint256"
        }
      ],
      "stateMutability": "view",
      "type": "function"
    },
    {
      "inputs": [],
      "name": "AddressManager",
      "outputs": [
        {
          "internalType": "contract IAddressManager",
          "name": "",
          "type": "address"
        }
      ],
      "stateMutability": "view",
      "type": "function"
    },
    {
      "inputs": [],
      "name": "AllTxsCounter",
      "outputs": [
        {
          "internalType": "uint256",
          "name": "",
          "type": "uint256"
        }
      ],
      "stateMutability": "view",
      "type": "function"
    },
    {
      "inputs": [],
      "name": "AllocateWork",
      "outputs": [],
      "stateMutability": "nonpayable",
      "type": "function"
    },
    {
      "inputs": [],
      "name": "AllocatedBatchCursor",
      "outputs": [
        {
          "internalType": "uint256",
          "name": "",
          "type": "uint256"
        }
      ],
      "stateMutability": "view",
      "type": "function"
    },
    {
      "inputs": [],
      "name": "AmIRegistered",
      "outputs": [
        {
          "internalType": "bool",
          "name": "passed",
          "type": "bool"
        }
      ],
      "stateMutability": "view",
      "type": "function"
    },
    {
      "inputs": [],
      "name": "ArchiveSystem",
      "outputs": [
        {
          "internalType": "contract IArchiveSystem",
          "name": "",
          "type": "address"
        }
      ],
      "stateMutability": "view",
      "type": "function"
    },
    {
      "inputs": [
        {
          "internalType": "string",
          "name": "_a",
          "type": "string"
        },
        {
          "internalType": "string",
          "name": "_b",
          "type": "string"
        }
      ],
      "name": "AreStringsEqual",
      "outputs": [
        {
          "internalType": "bool",
          "name": "",
          "type": "bool"
        }
      ],
      "stateMutability": "pure",
      "type": "function"
    },
    {
      "inputs": [],
      "name": "BatchCheckingCursor",
      "outputs": [
        {
          "internalType": "uint256",
          "name": "",
          "type": "uint256"
        }
      ],
      "stateMutability": "view",
      "type": "function"
    },
    {
      "inputs": [],
      "name": "BatchDeletionCursor",
      "outputs": [
        {
          "internalType": "uint256",
          "name": "",
          "type": "uint256"
        }
      ],
      "stateMutability": "view",
      "type": "function"
    },
    {
      "inputs": [
        {
          "internalType": "uint256",
          "name": "",
          "type": "uint256"
        }
      ],
      "name": "CollectedSpotBatchs",
      "outputs": [
        {
          "internalType": "bool",
          "name": "",
          "type": "bool"
        }
      ],
      "stateMutability": "view",
      "type": "function"
    },
    {
      "inputs": [
        {
          "internalType": "uint256",
          "name": "",
          "type": "uint256"
        }
      ],
      "name": "CompliancesMapping",
      "outputs": [
        {
          "internalType": "string",
          "name": "ipfs_hash",
          "type": "string"
        },
        {
          "internalType": "address",
          "name": "author",
          "type": "address"
        },
        {
          "internalType": "uint256",
          "name": "timestamp",
          "type": "uint256"
        },
        {
          "internalType": "enum DataCompliance.DataStatus",
          "name": "status",
          "type": "uint8"
        }
      ],
      "stateMutability": "view",
      "type": "function"
    },
    {
      "inputs": [
        {
          "internalType": "uint256",
          "name": "",
          "type": "uint256"
        }
      ],
      "name": "DataBatch",
      "outputs": [
        {
          "internalType": "uint256",
          "name": "start_idx",
          "type": "uint256"
        },
        {
          "internalType": "uint256",
          "name": "counter",
          "type": "uint256"
        },
        {
          "internalType": "uint256",
          "name": "uncommited_workers",
          "type": "uint256"
        },
        {
          "internalType": "uint256",
          "name": "unrevealed_workers",
          "type": "uint256"
        },
        {
          "internalType": "uint256",
          "name": "item_count",
          "type": "uint256"
        },
        {
          "internalType": "bool",
          "name": "complete",
          "type": "bool"
        },
        {
          "internalType": "bool",
          "name": "checked",
          "type": "bool"
        },
        {
          "internalType": "bool",
          "name": "allocated_to_work",
          "type": "bool"
        },
        {
          "internalType": "uint256",
          "name": "commitEndDate",
          "type": "uint256"
        },
        {
          "internalType": "uint256",
          "name": "revealEndDate",
          "type": "uint256"
        },
        {
          "internalType": "uint256",
          "name": "votesFor",
          "type": "uint256"
        },
        {
          "internalType": "uint256",
          "name": "votesAgainst",
          "type": "uint256"
        },
        {
          "internalType": "string",
          "name": "batchIPFSfile",
          "type": "string"
        },
        {
          "internalType": "enum DataCompliance.DataStatus",
          "name": "status",
          "type": "uint8"
        }
      ],
      "stateMutability": "view",
      "type": "function"
    },
    {
      "inputs": [
        {
          "internalType": "uint256",
          "name": "_DataBatchId",
          "type": "uint256"
        }
      ],
      "name": "DataCommitEndDate",
      "outputs": [
        {
          "internalType": "uint256",
          "name": "commitEndDate",
          "type": "uint256"
        }
      ],
      "stateMutability": "view",
      "type": "function"
    },
    {
      "inputs": [
        {
          "internalType": "uint256",
          "name": "_DataBatchId",
          "type": "uint256"
        }
      ],
      "name": "DataEnded",
      "outputs": [
        {
          "internalType": "bool",
          "name": "ended",
          "type": "bool"
        }
      ],
      "stateMutability": "view",
      "type": "function"
    },
    {
      "inputs": [
        {
          "internalType": "uint256",
          "name": "_DataBatchId",
          "type": "uint256"
        }
      ],
      "name": "DataExists",
      "outputs": [
        {
          "internalType": "bool",
          "name": "exists",
          "type": "bool"
        }
      ],
      "stateMutability": "view",
      "type": "function"
    },
    {
      "inputs": [],
      "name": "DataNonce",
      "outputs": [
        {
          "internalType": "uint256",
          "name": "",
          "type": "uint256"
        }
      ],
      "stateMutability": "view",
      "type": "function"
    },
    {
      "inputs": [
        {
          "internalType": "uint256",
          "name": "_DataBatchId",
          "type": "uint256"
        }
      ],
      "name": "DataRevealEndDate",
      "outputs": [
        {
          "internalType": "uint256",
          "name": "revealEndDate",
          "type": "uint256"
        }
      ],
      "stateMutability": "view",
      "type": "function"
    },
    {
      "inputs": [
        {
          "internalType": "address",
          "name": "user_",
          "type": "address"
        }
      ],
      "name": "GetCurrentWork",
      "outputs": [
        {
          "internalType": "uint256",
          "name": "",
          "type": "uint256"
        }
      ],
      "stateMutability": "view",
      "type": "function"
    },
    {
      "inputs": [
        {
          "internalType": "address",
          "name": "user_",
          "type": "address"
        }
      ],
      "name": "IsNewWorkAvailable",
      "outputs": [
        {
          "internalType": "bool",
          "name": "",
          "type": "bool"
        }
      ],
      "stateMutability": "view",
      "type": "function"
    },
    {
      "inputs": [],
      "name": "LastBatchCounter",
      "outputs": [
        {
          "internalType": "uint256",
          "name": "",
          "type": "uint256"
        }
      ],
      "stateMutability": "view",
      "type": "function"
    },
    {
      "inputs": [
        {
          "internalType": "address",
          "name": "",
          "type": "address"
        },
        {
          "internalType": "uint256",
          "name": "",
          "type": "uint256"
        }
      ],
      "name": "MasterWorkers",
      "outputs": [
        {
          "internalType": "address",
          "name": "",
          "type": "address"
        }
      ],
      "stateMutability": "view",
      "type": "function"
    },
    {
      "inputs": [],
      "name": "NotCommitedCounter",
      "outputs": [
        {
          "internalType": "uint256",
          "name": "",
          "type": "uint256"
        }
      ],
      "stateMutability": "view",
      "type": "function"
    },
    {
      "inputs": [],
      "name": "NotRevealedCounter",
      "outputs": [
        {
          "internalType": "uint256",
          "name": "",
          "type": "uint256"
        }
      ],
      "stateMutability": "view",
      "type": "function"
    },
    {
      "inputs": [],
      "name": "Parameters",
      "outputs": [
        {
          "internalType": "contract IParametersManager",
          "name": "",
          "type": "address"
        }
      ],
      "stateMutability": "view",
      "type": "function"
    },
    {
      "inputs": [
        {
          "internalType": "uint256",
          "name": "CheckedBatchId",
          "type": "uint256"
        }
      ],
      "name": "Ping",
      "outputs": [],
      "stateMutability": "nonpayable",
      "type": "function"
    },
    {
      "inputs": [],
      "name": "RegisterWorker",
      "outputs": [],
      "stateMutability": "nonpayable",
      "type": "function"
    },
    {
      "inputs": [],
      "name": "RejectedBatchsCounter",
      "outputs": [
        {
          "internalType": "uint256",
          "name": "",
          "type": "uint256"
        }
      ],
      "stateMutability": "view",
      "type": "function"
    },
    {
      "inputs": [],
      "name": "RepManager",
      "outputs": [
        {
          "internalType": "contract IRepManager",
          "name": "",
          "type": "address"
        }
      ],
      "stateMutability": "view",
      "type": "function"
    },
    {
      "inputs": [],
      "name": "RewardManager",
      "outputs": [
        {
          "internalType": "contract IRewardManager",
          "name": "",
          "type": "address"
        }
      ],
      "stateMutability": "view",
      "type": "function"
    },
    {
      "inputs": [],
      "name": "SpottingSystem",
      "outputs": [
        {
          "internalType": "contract ISpottingSystem",
          "name": "",
          "type": "address"
        }
      ],
      "stateMutability": "view",
      "type": "function"
    },
    {
      "inputs": [],
      "name": "StakeManager",
      "outputs": [
        {
          "internalType": "contract IStakeManager",
          "name": "",
          "type": "address"
        }
      ],
      "stateMutability": "view",
      "type": "function"
    },
    {
      "inputs": [
        {
          "internalType": "address",
          "name": "",
          "type": "address"
        }
      ],
      "name": "SystemStakedTokenBalance",
      "outputs": [
        {
          "internalType": "uint256",
          "name": "",
          "type": "uint256"
        }
      ],
      "stateMutability": "view",
      "type": "function"
    },
    {
      "inputs": [],
      "name": "TriggerUpdate",
      "outputs": [],
      "stateMutability": "nonpayable",
      "type": "function"
    },
    {
      "inputs": [],
      "name": "UnregisterWorker",
      "outputs": [],
      "stateMutability": "nonpayable",
      "type": "function"
    },
    {
      "inputs": [
        {
          "internalType": "uint256",
          "name": "",
          "type": "uint256"
        },
        {
          "internalType": "address",
          "name": "",
          "type": "address"
        }
      ],
      "name": "UserBatchCounts",
      "outputs": [
        {
          "internalType": "uint256",
          "name": "",
          "type": "uint256"
        }
      ],
      "stateMutability": "view",
      "type": "function"
    },
    {
      "inputs": [
        {
          "internalType": "uint256",
          "name": "",
          "type": "uint256"
        },
        {
          "internalType": "address",
          "name": "",
          "type": "address"
        }
      ],
      "name": "UserBatchFrom",
      "outputs": [
        {
          "internalType": "string",
          "name": "",
          "type": "string"
        }
      ],
      "stateMutability": "view",
      "type": "function"
    },
    {
      "inputs": [
        {
          "internalType": "address",
          "name": "",
          "type": "address"
        },
        {
          "internalType": "uint256",
          "name": "",
          "type": "uint256"
        }
      ],
      "name": "UserChecksCommits",
      "outputs": [
        {
          "internalType": "bool",
          "name": "",
          "type": "bool"
        }
      ],
      "stateMutability": "view",
      "type": "function"
    },
    {
      "inputs": [
        {
          "internalType": "address",
          "name": "",
          "type": "address"
        },
        {
          "internalType": "uint256",
          "name": "",
          "type": "uint256"
        }
      ],
      "name": "UserChecksReveals",
      "outputs": [
        {
          "internalType": "bool",
          "name": "",
          "type": "bool"
        }
      ],
      "stateMutability": "view",
      "type": "function"
    },
    {
      "inputs": [
        {
          "internalType": "uint256",
          "name": "",
          "type": "uint256"
        },
        {
          "internalType": "address",
          "name": "",
          "type": "address"
        }
      ],
      "name": "UserNewFiles",
      "outputs": [
        {
          "internalType": "string",
          "name": "",
          "type": "string"
        }
      ],
      "stateMutability": "view",
      "type": "function"
    },
    {
      "inputs": [
        {
          "internalType": "uint256",
          "name": "",
          "type": "uint256"
        },
        {
          "internalType": "address",
          "name": "",
          "type": "address"
        }
      ],
      "name": "UserSubmittedStatus",
      "outputs": [
        {
          "internalType": "string",
          "name": "",
          "type": "string"
        }
      ],
      "stateMutability": "view",
      "type": "function"
    },
    {
      "inputs": [
        {
          "internalType": "uint256",
          "name": "",
          "type": "uint256"
        },
        {
          "internalType": "address",
          "name": "",
          "type": "address"
        }
      ],
      "name": "UserVotes",
      "outputs": [
        {
          "internalType": "uint256",
          "name": "",
          "type": "uint256"
        }
      ],
      "stateMutability": "view",
      "type": "function"
    },
    {
      "inputs": [
        {
          "internalType": "uint256",
          "name": "_DataBatchId",
          "type": "uint256"
        }
      ],
      "name": "ValidateDataBatch",
      "outputs": [],
      "stateMutability": "nonpayable",
      "type": "function"
    },
    {
      "inputs": [
        {
          "internalType": "uint256",
          "name": "",
          "type": "uint256"
        },
        {
          "internalType": "uint256",
          "name": "",
          "type": "uint256"
        }
      ],
      "name": "WorkersPerBatch",
      "outputs": [
        {
          "internalType": "address",
          "name": "",
          "type": "address"
        }
      ],
      "stateMutability": "view",
      "type": "function"
    },
    {
      "inputs": [
        {
          "internalType": "address",
          "name": "",
          "type": "address"
        }
      ],
      "name": "WorkersState",
      "outputs": [
        {
          "internalType": "address",
          "name": "worker_address",
          "type": "address"
        },
        {
          "internalType": "uint256",
          "name": "allocated_work_batch",
          "type": "uint256"
        },
        {
          "internalType": "bool",
          "name": "has_completed_work",
          "type": "bool"
        },
        {
          "internalType": "uint256",
          "name": "succeeding_novote_count",
          "type": "uint256"
        },
        {
          "internalType": "uint256",
          "name": "last_interaction_date",
          "type": "uint256"
        },
        {
          "internalType": "bool",
          "name": "registered",
          "type": "bool"
        },
        {
          "internalType": "bool",
          "name": "unregistration_request",
          "type": "bool"
        },
        {
          "internalType": "uint256",
          "name": "registration_date",
          "type": "uint256"
        },
        {
          "internalType": "uint256",
          "name": "majority_counter",
          "type": "uint256"
        },
        {
          "internalType": "uint256",
          "name": "minority_counter",
          "type": "uint256"
        }
      ],
      "stateMutability": "view",
      "type": "function"
    },
    {
      "inputs": [
        {
          "internalType": "address",
          "name": "_user",
          "type": "address"
        },
        {
          "internalType": "uint256",
          "name": "_DataBatchId",
          "type": "uint256"
        }
      ],
      "name": "attrUUID",
      "outputs": [
        {
          "internalType": "bytes32",
          "name": "UUID",
          "type": "bytes32"
        }
      ],
      "stateMutability": "pure",
      "type": "function"
    },
    {
      "inputs": [
        {
          "internalType": "uint256",
          "name": "",
          "type": "uint256"
        }
      ],
      "name": "availableWorkers",
      "outputs": [
        {
          "internalType": "address",
          "name": "",
          "type": "address"
        }
      ],
      "stateMutability": "view",
      "type": "function"
    },
    {
      "inputs": [
        {
          "internalType": "uint256",
          "name": "",
          "type": "uint256"
        }
      ],
      "name": "busyWorkers",
      "outputs": [
        {
          "internalType": "address",
          "name": "",
          "type": "address"
        }
      ],
      "stateMutability": "view",
      "type": "function"
    },
    {
      "inputs": [
        {
          "internalType": "uint256",
          "name": "_DataBatchId",
          "type": "uint256"
        },
        {
          "internalType": "bytes32",
          "name": "_secretIPFSHash",
          "type": "bytes32"
        },
        {
          "internalType": "uint256",
          "name": "_BatchCount",
          "type": "uint256"
        },
        {
          "internalType": "string",
          "name": "_From",
          "type": "string"
        },
        {
          "internalType": "string",
          "name": "_Status",
          "type": "string"
        }
      ],
      "name": "commitComplianceCheck",
      "outputs": [],
      "stateMutability": "nonpayable",
      "type": "function"
    },
    {
      "inputs": [
        {
          "internalType": "uint256",
          "name": "_DataBatchId",
          "type": "uint256"
        }
      ],
      "name": "commitPeriodActive",
      "outputs": [
        {
          "internalType": "bool",
          "name": "active",
          "type": "bool"
        }
      ],
      "stateMutability": "view",
      "type": "function"
    },
    {
      "inputs": [
        {
          "internalType": "uint256",
          "name": "_BatchId",
          "type": "uint256"
        }
      ],
      "name": "deleteCollectedSpotBatch",
      "outputs": [],
      "stateMutability": "nonpayable",
      "type": "function"
    },
    {
      "inputs": [
        {
          "internalType": "uint256",
          "name": "_DataId",
          "type": "uint256"
        }
      ],
      "name": "deleteData",
      "outputs": [],
      "stateMutability": "nonpayable",
      "type": "function"
    },
    {
      "inputs": [
        {
          "internalType": "uint256",
          "name": "_BatchId",
          "type": "uint256"
        }
      ],
      "name": "deleteDataBatch",
      "outputs": [],
      "stateMutability": "nonpayable",
      "type": "function"
    },
    {
      "inputs": [],
      "name": "destroyContract",
      "outputs": [],
      "stateMutability": "nonpayable",
      "type": "function"
    },
    {
      "inputs": [
        {
          "internalType": "address",
          "name": "_voter",
          "type": "address"
        },
        {
          "internalType": "uint256",
          "name": "_DataBatchId",
          "type": "uint256"
        }
      ],
      "name": "didCommit",
      "outputs": [
        {
          "internalType": "bool",
          "name": "committed",
          "type": "bool"
        }
      ],
      "stateMutability": "view",
      "type": "function"
    },
    {
      "inputs": [
        {
          "internalType": "address",
          "name": "_voter",
          "type": "address"
        },
        {
          "internalType": "uint256",
          "name": "_DataBatchId",
          "type": "uint256"
        }
      ],
      "name": "didReveal",
      "outputs": [
        {
          "internalType": "bool",
          "name": "revealed",
          "type": "bool"
        }
      ],
      "stateMutability": "view",
      "type": "function"
    },
    {
      "inputs": [
        {
          "internalType": "uint256",
          "name": "_k",
          "type": "uint256"
        },
        {
          "internalType": "uint256",
          "name": "N_range",
          "type": "uint256"
        }
      ],
      "name": "generateIntegers",
      "outputs": [
        {
          "internalType": "uint256[]",
          "name": "",
          "type": "uint256[]"
        }
      ],
      "stateMutability": "view",
      "type": "function"
    },
    {
      "inputs": [
        {
          "internalType": "uint256",
          "name": "_DataBatchId_start",
          "type": "uint256"
        }
      ],
      "name": "getAcceptedBatchFileFrom",
      "outputs": [
        {
          "internalType": "string[]",
          "name": "batch",
          "type": "string[]"
        }
      ],
      "stateMutability": "view",
      "type": "function"
    },
    {
      "inputs": [
        {
          "internalType": "uint256",
          "name": "_DataBatchId_start",
          "type": "uint256"
        },
        {
          "internalType": "uint256",
          "name": "_DataBatchId_end",
          "type": "uint256"
        }
      ],
      "name": "getAcceptedBatchFilesRange",
      "outputs": [
        {
          "internalType": "string[]",
          "name": "batch",
          "type": "string[]"
        }
      ],
      "stateMutability": "view",
      "type": "function"
    },
    {
      "inputs": [],
      "name": "getAcceptedBatchesCount",
      "outputs": [
        {
          "internalType": "uint256",
          "name": "count",
          "type": "uint256"
        }
      ],
      "stateMutability": "view",
      "type": "function"
    },
    {
      "inputs": [],
      "name": "getActiveWorkersCount",
      "outputs": [
        {
          "internalType": "uint256",
          "name": "numWorkers",
          "type": "uint256"
        }
      ],
      "stateMutability": "view",
      "type": "function"
    },
    {
      "inputs": [],
      "name": "getAvailableWorkersCount",
      "outputs": [
        {
          "internalType": "uint256",
          "name": "numWorkers",
          "type": "uint256"
        }
      ],
      "stateMutability": "view",
      "type": "function"
    },
    {
      "inputs": [
        {
          "internalType": "uint256",
          "name": "_DataBatchId",
          "type": "uint256"
        }
      ],
      "name": "getBatchByID",
      "outputs": [
        {
          "components": [
            {
              "internalType": "uint256",
              "name": "start_idx",
              "type": "uint256"
            },
            {
              "internalType": "uint256",
              "name": "counter",
              "type": "uint256"
            },
            {
              "internalType": "uint256",
              "name": "uncommited_workers",
              "type": "uint256"
            },
            {
              "internalType": "uint256",
              "name": "unrevealed_workers",
              "type": "uint256"
            },
            {
              "internalType": "uint256",
              "name": "item_count",
              "type": "uint256"
            },
            {
              "internalType": "bool",
              "name": "complete",
              "type": "bool"
            },
            {
              "internalType": "bool",
              "name": "checked",
              "type": "bool"
            },
            {
              "internalType": "bool",
              "name": "allocated_to_work",
              "type": "bool"
            },
            {
              "internalType": "uint256",
              "name": "commitEndDate",
              "type": "uint256"
            },
            {
              "internalType": "uint256",
              "name": "revealEndDate",
              "type": "uint256"
            },
            {
              "internalType": "uint256",
              "name": "votesFor",
              "type": "uint256"
            },
            {
              "internalType": "uint256",
              "name": "votesAgainst",
              "type": "uint256"
            },
            {
              "internalType": "string",
              "name": "batchIPFSfile",
              "type": "string"
            },
            {
              "internalType": "enum DataCompliance.DataStatus",
              "name": "status",
              "type": "uint8"
            }
          ],
          "internalType": "struct DataCompliance.BatchMetadata",
          "name": "batch",
          "type": "tuple"
        }
      ],
      "stateMutability": "view",
      "type": "function"
    },
    {
      "inputs": [
        {
          "internalType": "uint256",
          "name": "_DataBatchId",
          "type": "uint256"
        }
      ],
      "name": "getBatchIPFSFileByID",
      "outputs": [
        {
          "internalType": "string",
          "name": "batch",
          "type": "string"
        }
      ],
      "stateMutability": "view",
      "type": "function"
    },
    {
      "inputs": [],
      "name": "getBusyWorkersCount",
      "outputs": [
        {
          "internalType": "uint256",
          "name": "numWorkers",
          "type": "uint256"
        }
      ],
      "stateMutability": "view",
      "type": "function"
    },
    {
      "inputs": [
        {
          "internalType": "address",
          "name": "_voter",
          "type": "address"
        },
        {
          "internalType": "uint256",
          "name": "_DataBatchId",
          "type": "uint256"
        }
      ],
      "name": "getCommitHash",
      "outputs": [
        {
          "internalType": "bytes32",
          "name": "commitHash",
          "type": "bytes32"
        }
      ],
      "stateMutability": "view",
      "type": "function"
    },
    {
      "inputs": [
        {
          "internalType": "uint256",
          "name": "_DataId",
          "type": "uint256"
        }
      ],
      "name": "getDataByID",
      "outputs": [
        {
          "components": [
            {
              "internalType": "string",
              "name": "ipfs_hash",
              "type": "string"
            },
            {
              "internalType": "address",
              "name": "author",
              "type": "address"
            },
            {
              "internalType": "uint256",
              "name": "timestamp",
              "type": "uint256"
            },
            {
              "internalType": "enum DataCompliance.DataStatus",
              "name": "status",
              "type": "uint8"
            }
          ],
          "internalType": "struct DataCompliance.ComplianceData",
          "name": "data",
          "type": "tuple"
        }
      ],
      "stateMutability": "view",
      "type": "function"
    },
    {
      "inputs": [
        {
          "internalType": "string",
          "name": "_hash",
          "type": "string"
        },
        {
          "internalType": "uint256",
          "name": "_salt",
          "type": "uint256"
        }
      ],
      "name": "getEncryptedStringHash",
      "outputs": [
        {
          "internalType": "bytes32",
          "name": "keccak256hash",
          "type": "bytes32"
        }
      ],
      "stateMutability": "pure",
      "type": "function"
    },
    {
      "inputs": [
        {
          "internalType": "uint256",
          "name": "_DataBatchId",
          "type": "uint256"
        }
      ],
      "name": "getFromsForBatch",
      "outputs": [
        {
          "internalType": "string[]",
          "name": "",
          "type": "string[]"
        }
      ],
      "stateMutability": "view",
      "type": "function"
    },
    {
      "inputs": [
        {
          "internalType": "uint256",
          "name": "_DataBatchId",
          "type": "uint256"
        }
      ],
      "name": "getIPFShashesForBatch",
      "outputs": [
        {
          "internalType": "string[]",
          "name": "",
          "type": "string[]"
        }
      ],
      "stateMutability": "view",
      "type": "function"
    },
    {
      "inputs": [
        {
          "internalType": "address",
          "name": "_voter",
          "type": "address"
        },
        {
          "internalType": "uint256",
          "name": "_numTokens",
          "type": "uint256"
        },
        {
          "internalType": "uint256",
          "name": "_DataBatchId",
          "type": "uint256"
        }
      ],
      "name": "getInsertPointForNumTokens",
      "outputs": [
        {
          "internalType": "uint256",
          "name": "prevNode",
          "type": "uint256"
        }
      ],
      "stateMutability": "view",
      "type": "function"
    },
    {
      "inputs": [],
      "name": "getLastAllocatedBatchId",
      "outputs": [
        {
          "internalType": "uint256",
          "name": "LastAllocatedBatchId",
          "type": "uint256"
        }
      ],
      "stateMutability": "view",
      "type": "function"
    },
    {
      "inputs": [],
      "name": "getLastBatchId",
      "outputs": [
        {
          "internalType": "uint256",
          "name": "LastBatchId",
          "type": "uint256"
        }
      ],
      "stateMutability": "view",
      "type": "function"
    },
    {
      "inputs": [],
      "name": "getLastCheckedBatchId",
      "outputs": [
        {
          "internalType": "uint256",
          "name": "LastCheckedBatchId",
          "type": "uint256"
        }
      ],
      "stateMutability": "view",
      "type": "function"
    },
    {
      "inputs": [],
      "name": "getLastDataId",
      "outputs": [
        {
          "internalType": "uint256",
          "name": "DataId",
          "type": "uint256"
        }
      ],
      "stateMutability": "view",
      "type": "function"
    },
    {
      "inputs": [
        {
          "internalType": "address",
          "name": "_voter",
          "type": "address"
        }
      ],
      "name": "getLastNode",
      "outputs": [
        {
          "internalType": "uint256",
          "name": "DataID",
          "type": "uint256"
        }
      ],
      "stateMutability": "view",
      "type": "function"
    },
    {
      "inputs": [
        {
          "internalType": "address",
          "name": "_voter",
          "type": "address"
        }
      ],
      "name": "getLockedTokens",
      "outputs": [
        {
          "internalType": "uint256",
          "name": "numTokens",
          "type": "uint256"
        }
      ],
      "stateMutability": "view",
      "type": "function"
    },
    {
      "inputs": [],
      "name": "getMySystemTokenBalance",
      "outputs": [
        {
          "internalType": "uint256",
          "name": "tokens",
          "type": "uint256"
        }
      ],
      "stateMutability": "view",
      "type": "function"
    },
    {
      "inputs": [
        {
          "internalType": "address",
          "name": "_voter",
          "type": "address"
        },
        {
          "internalType": "uint256",
          "name": "_DataBatchId",
          "type": "uint256"
        },
        {
          "internalType": "uint256",
          "name": "_salt",
          "type": "uint256"
        }
      ],
      "name": "getNumPassingTokens",
      "outputs": [
        {
          "internalType": "uint256",
          "name": "correctComplianceChecks",
          "type": "uint256"
        }
      ],
      "stateMutability": "view",
      "type": "function"
    },
    {
      "inputs": [
        {
          "internalType": "address",
          "name": "_voter",
          "type": "address"
        },
        {
          "internalType": "uint256",
          "name": "_DataBatchId",
          "type": "uint256"
        }
      ],
      "name": "getNumTokens",
      "outputs": [
        {
          "internalType": "uint256",
          "name": "numTokens",
          "type": "uint256"
        }
      ],
      "stateMutability": "view",
      "type": "function"
    },
    {
      "inputs": [],
      "name": "getRandom",
      "outputs": [
        {
          "internalType": "uint256",
          "name": "",
          "type": "uint256"
        }
      ],
      "stateMutability": "view",
      "type": "function"
    },
    {
      "inputs": [],
      "name": "getRejectedBatchesCount",
      "outputs": [
        {
          "internalType": "uint256",
          "name": "count",
          "type": "uint256"
        }
      ],
      "stateMutability": "view",
      "type": "function"
    },
    {
      "inputs": [],
      "name": "getSeed",
      "outputs": [
        {
          "internalType": "bytes32",
          "name": "addr",
          "type": "bytes32"
        }
      ],
      "stateMutability": "view",
      "type": "function"
    },
    {
      "inputs": [
        {
          "internalType": "uint256",
          "name": "_DataBatchId",
          "type": "uint256"
        }
      ],
      "name": "getStatusForBatch",
      "outputs": [
        {
          "internalType": "string[]",
          "name": "",
          "type": "string[]"
        }
      ],
      "stateMutability": "view",
      "type": "function"
    },
    {
      "inputs": [
        {
          "internalType": "uint256",
          "name": "_DataBatchId",
          "type": "uint256"
        }
      ],
      "name": "getSubmittedFilesForBatch",
      "outputs": [
        {
          "internalType": "string[]",
          "name": "",
          "type": "string[]"
        }
      ],
      "stateMutability": "view",
      "type": "function"
    },
    {
      "inputs": [
        {
          "internalType": "address",
          "name": "_user",
          "type": "address"
        }
      ],
      "name": "getSystemTokenBalance",
      "outputs": [
        {
          "internalType": "uint256",
          "name": "tokens",
          "type": "uint256"
        }
      ],
      "stateMutability": "view",
      "type": "function"
    },
    {
      "inputs": [
        {
          "internalType": "uint256",
          "name": "_DataBatchId",
          "type": "uint256"
        }
      ],
      "name": "getTotalNumberOfComplianceChecks",
      "outputs": [
        {
          "internalType": "uint256",
          "name": "vc",
          "type": "uint256"
        }
      ],
      "stateMutability": "view",
      "type": "function"
    },
    {
      "inputs": [],
      "name": "getTxCounter",
      "outputs": [
        {
          "internalType": "uint256",
          "name": "Counter",
          "type": "uint256"
        }
      ],
      "stateMutability": "view",
      "type": "function"
    },
    {
      "inputs": [
        {
          "internalType": "uint256",
          "name": "_DataBatchId",
          "type": "uint256"
        }
      ],
      "name": "getVotesForBatch",
      "outputs": [
        {
          "internalType": "uint256[]",
          "name": "",
          "type": "uint256[]"
        }
      ],
      "stateMutability": "view",
      "type": "function"
    },
    {
      "inputs": [
        {
          "internalType": "uint256",
          "name": "_terminationDate",
          "type": "uint256"
        }
      ],
      "name": "isExpired",
      "outputs": [
        {
          "internalType": "bool",
          "name": "expired",
          "type": "bool"
        }
      ],
      "stateMutability": "view",
      "type": "function"
    },
    {
      "inputs": [
        {
          "internalType": "uint256",
          "name": "_DataBatchId",
          "type": "uint256"
        }
      ],
      "name": "isPassed",
      "outputs": [
        {
          "internalType": "bool",
          "name": "passed",
          "type": "bool"
        }
      ],
      "stateMutability": "view",
      "type": "function"
    },
    {
      "inputs": [
        {
          "internalType": "uint256",
          "name": "_DataBatchId",
          "type": "uint256"
        },
        {
          "internalType": "address",
          "name": "_worker",
          "type": "address"
        }
      ],
      "name": "isWorkerAllocatedToBatch",
      "outputs": [
        {
          "internalType": "bool",
          "name": "",
          "type": "bool"
        }
      ],
      "stateMutability": "view",
      "type": "function"
    },
    {
      "inputs": [
        {
          "internalType": "address",
          "name": "_worker",
          "type": "address"
        }
      ],
      "name": "isWorkerRegistered",
      "outputs": [
        {
          "internalType": "bool",
          "name": "passed",
          "type": "bool"
        }
      ],
      "stateMutability": "view",
      "type": "function"
    },
    {
      "inputs": [],
      "name": "owner",
      "outputs": [
        {
          "internalType": "address",
          "name": "",
          "type": "address"
        }
      ],
      "stateMutability": "view",
      "type": "function"
    },
    {
      "inputs": [
        {
          "internalType": "uint256",
          "name": "k",
          "type": "uint256"
        },
        {
          "internalType": "uint256",
          "name": "N",
          "type": "uint256"
        }
      ],
      "name": "random_selection",
      "outputs": [
        {
          "internalType": "uint256[]",
          "name": "",
          "type": "uint256[]"
        }
      ],
      "stateMutability": "view",
      "type": "function"
    },
    {
      "inputs": [],
      "name": "renounceOwnership",
      "outputs": [],
      "stateMutability": "nonpayable",
      "type": "function"
    },
    {
      "inputs": [
        {
          "internalType": "uint256",
          "name": "_DataBatchId",
          "type": "uint256"
        }
      ],
      "name": "rescueTokens",
      "outputs": [],
      "stateMutability": "nonpayable",
      "type": "function"
    },
    {
      "inputs": [
        {
          "internalType": "uint256[]",
          "name": "_DataBatchIDs",
          "type": "uint256[]"
        }
      ],
      "name": "rescueTokensInMultipleDatas",
      "outputs": [],
      "stateMutability": "nonpayable",
      "type": "function"
    },
    {
      "inputs": [
        {
          "internalType": "uint256",
          "name": "_DataBatchId",
          "type": "uint256"
        },
        {
          "internalType": "uint256",
          "name": "_voteOption",
          "type": "uint256"
        },
        {
          "internalType": "string",
          "name": "_clearIPFSHash",
          "type": "string"
        },
        {
          "internalType": "uint256",
          "name": "_salt",
          "type": "uint256"
        }
      ],
      "name": "revealComplianceCheck",
      "outputs": [],
      "stateMutability": "nonpayable",
      "type": "function"
    },
    {
      "inputs": [
        {
          "internalType": "uint256",
          "name": "_DataBatchId",
          "type": "uint256"
        }
      ],
      "name": "revealPeriodActive",
      "outputs": [
        {
          "internalType": "bool",
          "name": "active",
          "type": "bool"
        }
      ],
      "stateMutability": "view",
      "type": "function"
    },
    {
      "inputs": [],
      "name": "sFuel",
      "outputs": [
        {
          "internalType": "address",
          "name": "",
          "type": "address"
        }
      ],
      "stateMutability": "view",
      "type": "function"
    },
    {
      "inputs": [
        {
          "internalType": "uint256",
          "name": "N",
          "type": "uint256"
        }
      ],
      "name": "shuffle_array",
      "outputs": [
        {
          "internalType": "uint256[]",
          "name": "",
          "type": "uint256[]"
        }
      ],
      "stateMutability": "view",
      "type": "function"
    },
    {
      "inputs": [
        {
          "internalType": "uint256",
          "name": "",
          "type": "uint256"
        }
      ],
      "name": "toUnregisterWorkers",
      "outputs": [
        {
          "internalType": "address",
          "name": "",
          "type": "address"
        }
      ],
      "stateMutability": "view",
      "type": "function"
    },
    {
      "inputs": [],
      "name": "token",
      "outputs": [
        {
          "internalType": "contract IERC20",
          "name": "",
          "type": "address"
        }
      ],
      "stateMutability": "view",
      "type": "function"
    },
    {
      "inputs": [
        {
          "internalType": "address",
          "name": "newOwner",
          "type": "address"
        }
      ],
      "name": "transferOwnership",
      "outputs": [],
      "stateMutability": "nonpayable",
      "type": "function"
    },
    {
      "inputs": [
        {
          "internalType": "address",
          "name": "addr",
          "type": "address"
        }
      ],
      "name": "updateAddressManager",
      "outputs": [],
      "stateMutability": "nonpayable",
      "type": "function"
    },
    {
      "inputs": [
        {
          "internalType": "uint256",
          "name": "AllocatedBatchCursor_",
          "type": "uint256"
        }
      ],
      "name": "updateAllocatedBatchCursor",
      "outputs": [],
      "stateMutability": "nonpayable",
      "type": "function"
    },
    {
      "inputs": [
        {
          "internalType": "address",
          "name": "addr",
          "type": "address"
        }
      ],
      "name": "updateArchiveManager",
      "outputs": [],
      "stateMutability": "nonpayable",
      "type": "function"
    },
    {
      "inputs": [
        {
          "internalType": "uint256",
          "name": "BatchCheckingCursor_",
          "type": "uint256"
        }
      ],
      "name": "updateBatchCheckingCursor",
      "outputs": [],
      "stateMutability": "nonpayable",
      "type": "function"
    },
    {
      "inputs": [
        {
          "internalType": "address",
          "name": "addr",
          "type": "address"
        }
      ],
      "name": "updateParametersManager",
      "outputs": [],
      "stateMutability": "nonpayable",
      "type": "function"
    },
    {
      "inputs": [
        {
          "internalType": "address",
          "name": "addr",
          "type": "address"
        }
      ],
      "name": "updatePreviousSystem",
      "outputs": [],
      "stateMutability": "nonpayable",
      "type": "function"
    },
    {
      "inputs": [
        {
          "internalType": "address",
          "name": "addr",
          "type": "address"
        }
      ],
      "name": "updateRepManager",
      "outputs": [],
      "stateMutability": "nonpayable",
      "type": "function"
    },
    {
      "inputs": [
        {
          "internalType": "address",
          "name": "addr",
          "type": "address"
        }
      ],
      "name": "updateRewardManager",
      "outputs": [],
      "stateMutability": "nonpayable",
      "type": "function"
    },
    {
      "inputs": [
        {
          "internalType": "address",
          "name": "addr",
          "type": "address"
        }
      ],
      "name": "updateStakeManager",
      "outputs": [],
      "stateMutability": "nonpayable",
      "type": "function"
    },
    {
      "inputs": [
        {
          "internalType": "address",
          "name": "_sFuel",
          "type": "address"
        }
      ],
      "name": "updatesFuelFaucet",
      "outputs": [],
      "stateMutability": "nonpayable",
      "type": "function"
    },
    {
      "inputs": [
        {
          "internalType": "uint256",
          "name": "_prevID",
          "type": "uint256"
        },
        {
          "internalType": "uint256",
          "name": "_nextID",
          "type": "uint256"
        },
        {
          "internalType": "address",
          "name": "_voter",
          "type": "address"
        },
        {
          "internalType": "uint256",
          "name": "_numTokens",
          "type": "uint256"
        }
      ],
      "name": "validPosition",
      "outputs": [
        {
          "internalType": "bool",
          "name": "APPROVED",
          "type": "bool"
        }
      ],
      "stateMutability": "view",
      "type": "function"
    },
    {
      "inputs": [
        {
          "internalType": "uint256",
          "name": "_numTokens",
          "type": "uint256"
        }
      ],
      "name": "withdrawVotingRights",
      "outputs": [],
      "stateMutability": "nonpayable",
      "type": "function"
    }
  ],
  "bytecode": "0x6080604052600060145560006016556001601755600160185560016019556001601a556000601b556000601c556000601d556000601e556000601f553480156200004857600080fd5b5060405162009523380380620095238339810160408190526200006b916200010d565b6200007f62000079620000b9565b620000bd565b6001600160a01b0381166200009357600080fd5b602080546001600160a01b0319166001600160a01b03929092169190911790556200013d565b3390565b600080546001600160a01b038381166001600160a01b0319831681178455604051919092169283917f8be0079c531659141344cd1fd0a4f28419497f9722a3daafe3b4186f6b6457e09190a35050565b6000602082840312156200011f578081fd5b81516001600160a01b038116811462000136578182fd5b9392505050565b6193d6806200014d6000396000f3fe608060405234801561001057600080fd5b50600436106107175760003560e01c806397603560116103a8578063d8645d37116101f4578063e97439cf1161011a578063f5ae7c7d116100b8578063f96305f011610087578063f96305f014610e9b578063fc0c546a14610ea3578063fca4956314610eab578063ff43de9d14610ebe57610717565b8063f5ae7c7d14610e70578063f716596d14610e78578063f721de4a14610e80578063f80a23fd14610e9357610717565b8063ef4fcdad116100f4578063ef4fcdad14610e3a578063f2d9e74d14610e42578063f2fde38b14610e4a578063f4cdfcc414610e5d57610717565b8063e97439cf14610e0c578063eb1322ff14610e1f578063ed8becfa14610e2757610717565b8063dd61868211610192578063e604c12711610161578063e604c12714610dc0578063e68b920d14610dd3578063e798a7da14610de6578063e7b1d43c14610df957610717565b8063dd61868214610d7f578063df05368e14610d92578063e1f7a43014610da5578063e44c974b14610dad57610717565b8063d9548e53116101ce578063d9548e5314610d3c578063d9845fb814610d4f578063da14563a14610d6f578063dd15f09514610d7757610717565b8063d8645d3714610d0e578063d8b7567414610d16578063d901402b14610d2957610717565b8063b1a2e0be116102d9578063d138209211610277578063d6b0206c11610246578063d6b0206c14610ccd578063d78b94cc14610cd5578063d817587e14610ce8578063d822ce0114610cfb57610717565b8063d138209214610c8c578063d186981d14610c9f578063d420ec0b14610cb2578063d58f575c14610cc557610717565b8063b43bd069116102b3578063b43bd06914610c40578063b8f011b314610c53578063c47c4bc214610c66578063c4e4f82a14610c7957610717565b8063b1a2e0be14610c07578063b1cb6b1414610c1a578063b1d7ea9814610c2d57610717565b8063a4439dc511610346578063aa7ca46411610320578063aa7ca46414610bd1578063aacc5a1714610be4578063ab43e78d14610bec578063b10aa58414610bf457610717565b8063a4439dc514610ba3578063a511dba014610bb6578063a905779014610bbe57610717565b8063a1103f3711610382578063a1103f3714610b6d578063a16a11e014610b80578063a1b6b5b714610b93578063a350715a14610b9b57610717565b80639760356014610b3f5780639769d84614610b525780639fc9c52f14610b5a57610717565b8063515535e811610567578063763a39f211610498578063819b02931161043657806388d072eb1161040557806388d072eb14610ae85780638c89d02714610afb5780638da5cb5b14610b245780638df0296e14610b2c57610717565b8063819b029314610ab2578063821aa8c014610ac557806383cc6ef214610ad85780638473850b14610ae057610717565b80637a34da67116104725780637a34da6714610a625780637f9510a214610a6a5780637f97e83614610a725780637fabe35b14610a8557610717565b8063763a39f214610a3457806376c1fef414610a3c57806377124dec14610a4f57610717565b8063667bf0f8116105055780636e6ce672116104df5780636e6ce672146109f35780637074222b14610a06578063715018a614610a1957806371880b1b14610a2157610717565b8063667bf0f8146109c55780636b1485a3146109cd5780636b2d95d4146109e057610717565b80635a452943116105415780635a4529431461095f5780635b113a551461097f5780635df6055d146109925780636371d81f146109b257610717565b8063515535e81461094757806351912f291461094f57806353bf27f11461095757610717565b80632f469fd11161064c57806346a7aea6116105ea57806349403183116105b957806349403183146108fb5780634d4b7d9b1461090e5780634d884281146109215780634fe8b4c11461093457610717565b806346a7aea6146108c557806347fe2d20146108d857806348257dc9146108e05780634852e2f0146108f357610717565b806339e7357c1161062657806339e7357c14610884578063427fa1d21461088c578063441c77c01461089f5780634671ace5146108b257610717565b80632f469fd11461084b57806331e2f2851461085e5780633538af821461087157610717565b8063154fd39b116106b9578063275c259011610693578063275c25901461080857806329a47bc7146108105780632c052031146108255780632d917c681461083857610717565b8063154fd39b146107bd578063208e8c38146107c5578063226ed300146107e857610717565b8063092a5cce116106f5578063092a5cce1461076d5780630e6661a714610775578063100372f51461078a578063106798101461079d57610717565b806301a48b981461071c578063050eb2eb14610745578063059576231461075a575b600080fd5b61072f61072a366004617e36565b610ec6565b60405161073c9190618186565b60405180910390f35b610758610753366004617b24565b611063565b005b610758610768366004617b24565b6110c4565b610758611125565b61077d611177565b60405161073c919061808b565b610758610798366004617e36565b61117d565b6107b06107ab366004617e5f565b6111c1565b60405161073c91906181d5565b61077d611266565b6107d86107d3366004617e36565b61126c565b60405161073c9493929190618212565b6107fb6107f6366004617e36565b61132b565b60405161073c91906181ca565b610758611373565b6108186114c1565b60405161073c91906180be565b61077d610833366004617b87565b6114d0565b6107fb610846366004617b5c565b61166d565b6107b0610859366004617e5f565b61168d565b61077d61086c366004617b24565b6116b1565b61081861087f366004617e36565b6116c3565b61077d6116ed565b61077d61089a366004617b24565b61170a565b6107fb6108ad366004617e36565b6117aa565b6107586108c0366004617e36565b611804565b6107586108d3366004617b24565b611872565b61077d6118d3565b6107586108ee366004617e36565b6118d9565b61077d611d19565b6107fb610909366004617e36565b611d1f565b6107fb61091c366004617e36565b611f6c565b61075861092f366004617b24565b611f81565b610758610942366004617e36565b611fe2565b61077d612062565b610818612068565b61077d612077565b61097261096d366004617e36565b61207d565b60405161073c91906190c2565b61077d61098d366004617e5f565b6121a0565b6109a56109a0366004617e36565b6121bd565b60405161073c9190618126565b6107586109c0366004617e36565b6123da565b61075861248d565b6107586109db366004617e36565b612a9d565b61077d6109ee366004617b24565b61392d565b61077d610a01366004617e36565b61393c565b61077d610a14366004617b24565b613960565b61075861397b565b61077d610a2f366004617e36565b6139c6565b61077d613a03565b6109a5610a4a366004617e36565b613a09565b610758610a5d366004617e36565b613c26565b610818613c6a565b61077d613c79565b6107fb610a80366004617b5c565b613c90565b610a98610a93366004617e36565b613ce3565b60405161073c9e9d9c9b9a99989796959493929190619161565b6107fb610ac0366004617f2c565b613de2565b610818610ad3366004617e36565b613e23565b610818613e33565b61077d613e42565b6107b0610af6366004617e5f565b613e48565b610b0e610b09366004617b24565b613e6c565b60405161073c9a999897969594939291906180d2565b610818613ecf565b610818610b3a366004617f0b565b613ede565b610758610b4d366004617e36565b613f16565b61077d6140c6565b610758610b68366004617bbb565b6140cc565b61077d610b7b366004617b5c565b61411e565b610758610b8e366004617b24565b614151565b61077d6141b2565b61077d6141b8565b6107fb610bb1366004617e36565b6141be565b61077d614220565b6107fb610bcc366004617c7b565b614226565b6107fb610bdf366004617b5c565b61428c565b61077d6142df565b610818614394565b610818610c02366004617e36565b6143a3565b6107fb610c15366004617b24565b6143b3565b610758610c28366004617f6a565b614480565b61072f610c3b366004617f0b565b6147e4565b61077d610c4e366004617b87565b6149fe565b61072f610c61366004617f0b565b614aea565b610758610c74366004617b24565b614c52565b61077d610c87366004617e36565b614cb3565b61077d610c9a366004617b5c565b614cf0565b6107fb610cad366004617e5f565b614d85565b6107fb610cc0366004617b5c565b614e60565b61077d614e80565b61077d614e86565b6109a5610ce3366004617f0b565b614e8c565b6109a5610cf6366004617e36565b615071565b610818610d09366004617b5c565b61528e565b6108186152aa565b61077d610d24366004617e5f565b6152b9565b61077d610d37366004617b5c565b6152d6565b6107fb610d4a366004617e36565b61531b565b610d62610d5d366004617e36565b615320565b60405161073c9190618f48565b6107586154b8565b6108186156fa565b610758610d8d366004617b24565b615709565b610758610da0366004617b24565b61576a565b61077d6157cb565b61072f610dbb366004617e36565b6157de565b6107b0610dce366004617e36565b61586a565b610758610de1366004617e8e565b615932565b6107fb610df4366004617b24565b615f95565b610758610e07366004617e36565b615fb6565b6109a5610e1a366004617e36565b6160fe565b61077d6162c1565b6109a5610e35366004617e36565b6162c7565b61077d6165d7565b61077d6165dd565b610758610e58366004617b24565b6165e3565b61077d610e6b366004617cdb565b616651565b61077d616666565b61075861666c565b6107fb610e8e366004617e36565b616b51565b6107fb616b59565b61077d616b72565b610818616b78565b61077d610eb9366004617b24565b616b87565b610818616c2f565b6060610ed182616b51565b610ef65760405162461bcd60e51b8152600401610eed90618be2565b60405180910390fd5b6000828152600f6020908152604080832080548251818502810185019093528083529192909190830182828015610f5657602002820191906000526020600020905b81546001600160a01b03168152600190910190602001808311610f38575b50505050509050600081516001600160401b03811115610f8657634e487b7160e01b600052604160045260246000fd5b604051908082528060200260200182016040528015610faf578160200160208202803683370190505b50905060005b825181101561105957600360008681526020019081526020016000206000848381518110610ff357634e487b7160e01b600052603260045260246000fd5b60200260200101516001600160a01b03166001600160a01b031681526020019081526020016000205482828151811061103c57634e487b7160e01b600052603260045260246000fd5b6020908102919091010152806110518161931a565b915050610fb5565b509150505b919050565b61106b616c3e565b6001600160a01b031661107c613ecf565b6001600160a01b0316146110a25760405162461bcd60e51b8152600401610eed90618990565b602380546001600160a01b0319166001600160a01b0392909216919091179055565b6110cc616c3e565b6001600160a01b03166110dd613ecf565b6001600160a01b0316146111035760405162461bcd60e51b8152600401610eed90618990565b602780546001600160a01b0319166001600160a01b0392909216919091179055565b61112d616c3e565b6001600160a01b031661113e613ecf565b6001600160a01b0316146111645760405162461bcd60e51b8152600401610eed90618990565b61116c613ecf565b6001600160a01b0316ff5b60165481565b611185616c3e565b6001600160a01b0316611196613ecf565b6001600160a01b0316146111bc5760405162461bcd60e51b8152600401610eed90618990565b601955565b6007602090815260009283526040808420909152908252902080546111e5906192df565b80601f0160208091040260200160405190810160405280929190818152602001828054611211906192df565b801561125e5780601f106112335761010080835404028352916020019161125e565b820191906000526020600020905b81548152906001019060200180831161124157829003601f168201915b505050505081565b601a5490565b600a60205260009081526040902080548190611287906192df565b80601f01602080910402602001604051908101604052809291908181526020018280546112b3906192df565b80156113005780601f106112d557610100808354040283529160200191611300565b820191906000526020600020905b8154815290600101906020018083116112e357829003601f168201915b505050506001830154600284015460039094015492936001600160a01b039091169290915060ff1684565b600061133682616b51565b6113525760405162461bcd60e51b8152600401610eed90618e81565b6000828152600b602052604090206007015461136d9061531b565b92915050565b336000908152600c60205260409020600581015460ff1615156001146113ab5760405162461bcd60e51b8152600401610eed9061891f565b6001810154158015906113c857506005810154610100900460ff16155b156114255760058101805461ff001916610100179055601380546001810182556000919091527f66de8ffda797e3de9c05e8fc57b3bf0ec28a930d40b0d285d93c06501cf6a0900180546001600160a01b0319163317905561149d565b600181015461149d5761143733616c42565b61144033616d9a565b80546001600160a01b031916339081178255426004830181905560058301805460ff191690556040517f9dadcedba048e92b943ea1c5861cee1df63a566d7f795869c004780c1c698e2b916114949161808b565b60405180910390a25b6001601b60008282546114b0919061924d565b909155506114be9050616eca565b50565b6022546001600160a01b031681565b6000806114dc8561170a565b905060006114ea8683614cf0565b90505b8115611662576114fd8683614cf0565b90508481116115ba57838214156115b2576001600160a01b03861660009081526008602052604090819020905163e914563160e01b815273__$568f942b8aa64c6b86c96341d5ab273d86$__9163e91456319161155f919086906004016180b0565b60206040518083038186803b15801561157757600080fd5b505af415801561158b573d6000803e3d6000fd5b505050506040513d601f19601f820116820180604052508101906115af9190617e4e565b91505b509050611666565b6001600160a01b03861660009081526008602052604090819020905163e914563160e01b815273__$568f942b8aa64c6b86c96341d5ab273d86$__9163e91456319161160b919086906004016180b0565b60206040518083038186803b15801561162357600080fd5b505af4158015611637573d6000803e3d6000fd5b505050506040513d601f19601f8201168201806040525081019061165b9190617e4e565b91506114ed565b5090505b9392505050565b600160209081526000928352604080842090915290825290205460ff1681565b6004602090815260009283526040808420909152908252902080546111e5906192df565b600d6020526000908152604090205481565b601181815481106116d357600080fd5b6000918252602090912001546001600160a01b0316905081565b60405160009080602081848060185afa61170357fe5b5051919050565b6001600160a01b038116600090815260086020526040808220905163e914563160e01b815273__$568f942b8aa64c6b86c96341d5ab273d86$__9163e91456319161175a919085906004016180b0565b60206040518083038186803b15801561177257600080fd5b505af4158015611786573d6000803e3d6000fd5b505050506040513d601f19601f8201168201806040525081019061136d9190617e4e565b60006117b582616b51565b6117d15760405162461bcd60e51b8152600401610eed90618be2565b6000828152600b60205260409020600701546117ec9061531b565b15801561136d57506117fd826141be565b1592915050565b61180c616c3e565b6001600160a01b031661181d613ecf565b6001600160a01b0316146118435760405162461bcd60e51b8152600401610eed90618990565b60008181526010602052604090205460ff16156114be576000908152601060205260409020805460ff19169055565b61187a616c3e565b6001600160a01b031661188b613ecf565b6001600160a01b0316146118b15760405162461bcd60e51b8152600401610eed90618990565b602680546001600160a01b0319166001600160a01b0392909216919091179055565b60195490565b6025546001600160a01b031615801590611902575060008181526010602052604090205460ff16155b15611cfe57602554604051637b90ef2560e11b81526001600160a01b039091169063f721de4a9061193790849060040161808b565b602060405180830381600087803b15801561195157600080fd5b505af1158015611965573d6000803e3d6000fd5b505050506040513d601f19601f820116820180604052508101906119899190617c61565b15611cfe57602554604051631b308bf760e31b81526000916001600160a01b03169063d9845fb8906119bf90859060040161808b565b600060405180830381600087803b1580156119d957600080fd5b505af11580156119ed573d6000803e3d6000fd5b505050506040513d6000823e601f3d908101601f19168201604052611a159190810190617d1d565b6101a08101519091506001816003811115611a4057634e487b7160e01b600052602160045260246000fd5b1415611ce2576040805160808101825261016084015181523360208083019190915242828401526000606083018190526016548152600a8252929092208151805192939192611a9292849201906178a5565b506020820151600182810180546001600160a01b0319166001600160a01b0390931692909217909155604083015160028301556060830151600380840180549293909260ff1916918490811115611af957634e487b7160e01b600052602160045260246000fd5b0217905550506018546000908152600b602090815260409182902060275483516368d44d2360e11b815293519194506001600160a01b03169263d1a89a46926004808301939192829003018186803b158015611b5457600080fd5b505afa158015611b68573d6000803e3d6000fd5b505050506040513d601f19601f82011682018060405250810190611b8c9190617e4e565b81600101541015611bb2576001816001016000828254611bac919061924d565b90915550505b602760009054906101000a90046001600160a01b03166001600160a01b031663d1a89a466040518163ffffffff1660e01b815260040160206040518083038186803b158015611c0057600080fd5b505afa158015611c14573d6000803e3d6000fd5b505050506040513d601f19601f82011682018060405250810190611c389190617e4e565b816001015410611c8757600581018054600160ff19909116811761ff00191690915560188054600090611c6c90849061924d565b90915550506016546018546000908152600b60205260409020555b611c8f6154b8565b601654611c9d90600161924d565b60168190556101608401516040517fce4e0368a6bb3c77188acc0cc4a8eb8ebf680b6ae5f95ba67078c937b2e9f36291611cd89133906181e8565b60405180910390a2505b50506000818152601060205260409020805460ff191660011790555b6001601b6000828254611d11919061924d565b909155505050565b601e5481565b6000818152600b6020908152604080832081516101c081018352815481526001820154938101939093526002810154918301919091526003810154606083015260048101546080830152600581015460ff808216151560a08501526101008083048216151560c08601526201000090920416151560e0840152600682015490830152600781015461012083015260088101546101408301526009810154610160830152600a8101805484939291610180840191611ddb906192df565b80601f0160208091040260200160405190810160405280929190818152602001828054611e07906192df565b8015611e545780601f10611e2957610100808354040283529160200191611e54565b820191906000526020600020905b815481529060010190602001808311611e3757829003601f168201915b5050509183525050600b82015460209091019060ff166003811115611e8957634e487b7160e01b600052602160045260246000fd5b6003811115611ea857634e487b7160e01b600052602160045260246000fd5b905250610160810151610140820151919250611ec39161924d565b602760009054906101000a90046001600160a01b03166001600160a01b031663ea19733c6040518163ffffffff1660e01b815260040160206040518083038186803b158015611f1157600080fd5b505afa158015611f25573d6000803e3d6000fd5b505050506040513d601f19601f82011682018060405250810190611f499190617e4e565b611f539190619279565b610140820151611f64906064619279565b119392505050565b60106020526000908152604090205460ff1681565b611f89616c3e565b6001600160a01b0316611f9a613ecf565b6001600160a01b031614611fc05760405162461bcd60e51b8152600401610eed90618990565b601580546001600160a01b0319166001600160a01b0392909216919091179055565b611fea616c3e565b6001600160a01b0316611ffb613ecf565b6001600160a01b0316146120215760405162461bcd60e51b8152600401610eed90618990565b6000818152600a602052604081209061203a8282617929565b506001810180546001600160a01b031916905560006002820155600301805460ff1916905550565b60185490565b6023546001600160a01b031681565b60115490565b612085617965565b6000828152600a6020526040908190208151608081019092528054829082906120ad906192df565b80601f01602080910402602001604051908101604052809291908181526020018280546120d9906192df565b80156121265780601f106120fb57610100808354040283529160200191612126565b820191906000526020600020905b81548152906001019060200180831161210957829003601f168201915b505050918352505060018201546001600160a01b031660208201526002820154604082015260038083015460609092019160ff169081111561217857634e487b7160e01b600052602160045260246000fd5b600381111561219757634e487b7160e01b600052602160045260246000fd5b90525092915050565b600560209081526000928352604080842090915290825290205481565b60606121c882616b51565b6121e45760405162461bcd60e51b8152600401610eed90618be2565b6000828152600f602090815260408083208054825181850281018501909352808352919290919083018282801561224457602002820191906000526020600020905b81546001600160a01b03168152600190910190602001808311612226575b50505050509050600081516001600160401b0381111561227457634e487b7160e01b600052604160045260246000fd5b6040519080825280602002602001820160405280156122a757816020015b60608152602001906001900390816122925790505b50905060005b8251811015611059576006600086815260200190815260200160002060008483815181106122eb57634e487b7160e01b600052603260045260246000fd5b60200260200101516001600160a01b03166001600160a01b03168152602001908152602001600020805461231e906192df565b80601f016020809104026020016040519081016040528092919081815260200182805461234a906192df565b80156123975780601f1061236c57610100808354040283529160200191612397565b820191906000526020600020905b81548152906001019060200180831161237a57829003601f168201915b50505050508282815181106123bc57634e487b7160e01b600052603260045260246000fd5b602002602001018190525080806123d29061931a565b9150506122ad565b6123e2616c3e565b6001600160a01b03166123f3613ecf565b6001600160a01b0316146124195760405162461bcd60e51b8152600401610eed90618990565b6000818152600b602052604081208181556001810182905560028101829055600381018290556004810182905560058101805462ffffff19169055600681018290556007810182905560088101829055600981018290559061247e600a830182617929565b50600b01805460ff1916905550565b601a546000908152600b602052604090206005015460ff166124c15760405162461bcd60e51b8152600401610eed90618aff565b601a546000908152600b602052604090206005015462010000900460ff16156124fc5760405162461bcd60e51b8152600401610eed906188c2565b6000612620612595601180549050602760009054906101000a90046001600160a01b03166001600160a01b031663dc7048c16040518163ffffffff1660e01b815260040160206040518083038186803b15801561255857600080fd5b505afa15801561256c573d6000803e3d6000fd5b505050506040513d601f19601f820116820180604052508101906125909190617e4e565b6171b5565b602760009054906101000a90046001600160a01b03166001600160a01b031663fff5f9466040518163ffffffff1660e01b815260040160206040518083038186803b1580156125e357600080fd5b505afa1580156125f7573d6000803e3d6000fd5b505050506040513d601f19601f8201168201806040525081019061261b9190617e4e565b6171cb565b601154601a80546000908152600b60209081526040808320600301869055925482528282206002018590556027548351632426fc0560e11b81529351959650939491936126d5936001600160a01b039091169263484df80a92600480840193919291829003018186803b15801561269657600080fd5b505afa1580156126aa573d6000803e3d6000fd5b505050506040513d601f19601f820116820180604052508101906126ce9190617e4e565b42906171db565b90506000612769602760009054906101000a90046001600160a01b03166001600160a01b0316632b0afab36040518163ffffffff1660e01b815260040160206040518083038186803b15801561272a57600080fd5b505afa15801561273e573d6000803e3d6000fd5b505050506040513d601f19601f820116820180604052508101906127629190617e4e565b83906171db565b601a80546000908152600b6020526040808220600601869055825482528082206007018490559154815220600501805462ff00001916620100001790559050600184108015906127ba575060018310155b6127d65760405162461bcd60e51b8152600401610eed906184cb565b60006127e28585614aea565b9050600081516001600160401b0381111561280d57634e487b7160e01b600052604160045260246000fd5b604051908082528060200260200182016040528015612836578160200160208202803683370190505b50905060005b82518110156128f557601183828151811061286757634e487b7160e01b600052603260045260246000fd5b60200260200101518154811061288d57634e487b7160e01b600052603260045260246000fd5b9060005260206000200160009054906101000a90046001600160a01b03168282815181106128cb57634e487b7160e01b600052603260045260246000fd5b6001600160a01b0390921660209283029190910190910152806128ed8161931a565b91505061283c565b5060005b8251811015612a5d57600082828151811061292457634e487b7160e01b600052603260045260246000fd5b602002602001015190506000600c6000836001600160a01b03166001600160a01b03168152602001908152602001600020905061296082616c42565b612969826171e7565b6129b957601280546001810182556000919091527fbb8a6a4669ba250d26cd7a459eca9d215f8307e33aebe50379bc5a3617ec34440180546001600160a01b0319166001600160a01b0384161790555b601a80546000908152600f602090815260408083208054600180820183559185529290932090910180546001600160a01b0319166001600160a01b03871617905582549184019190915560028301805460ff19169055905490517fe4ee2dfabe57cee15e3f558890b20455f54c1fa0718e5276faad70a6500e6b8c90612a409085906180be565b60405180910390a250508080612a559061931a565b9150506128f9565b50601a54612a6c9060016171db565b601a55612a776142df565b6014819055506001601b6000828254612a90919061924d565b9091555050505050505050565b612aa68161132b565b80612ac057506000818152600b6020526040902060030154155b612adc5760405162461bcd60e51b8152600401610eed906189fc565b6000818152600b6020526040902060050154610100900460ff1615612b135760405162461bcd60e51b8152600401610eed90618c19565b6000818152600f6020908152604080832080548251818502810185019093528083529192909190830182828015612b7357602002820191906000526020600020905b81546001600160a01b03168152600190910190602001808311612b55575b50505050509050600081516001600160401b03811115612ba357634e487b7160e01b600052604160045260246000fd5b604051908082528060200260200182016040528015612bd657816020015b6060815260200190600190039081612bc15790505b509050600082516001600160401b03811115612c0257634e487b7160e01b600052604160045260246000fd5b604051908082528060200260200182016040528015612c2b578160200160208202803683370190505b50905060005b8351811015612dae576000848281518110612c5c57634e487b7160e01b600052603260045260246000fd5b60209081029190910181015160008881526004835260408082206001600160a01b0384168352909352918220805491935090612c97906192df565b80601f0160208091040260200160405190810160405280929190818152602001828054612cc3906192df565b8015612d105780601f10612ce557610100808354040283529160200191612d10565b820191906000526020600020905b815481529060010190602001808311612cf357829003601f168201915b50505060008a81526005602090815260408083206001600160a01b038916845290915290205488519394509284925088915086908110612d6057634e487b7160e01b600052603260045260246000fd5b602002602001018190525080858581518110612d8c57634e487b7160e01b600052603260045260246000fd5b6020026020010181815250505050508080612da69061931a565b915050612c31565b506000612e596064602760009054906101000a90046001600160a01b03166001600160a01b031663ea19733c6040518163ffffffff1660e01b815260040160206040518083038186803b158015612e0457600080fd5b505afa158015612e18573d6000803e3d6000fd5b505050506040513d601f19601f82011682018060405250810190612e3c9190617e4e565b8651612e489190619279565b612e529190619265565b60016171cb565b9050600083600081518110612e7e57634e487b7160e01b600052603260045260246000fd5b6020026020010151905060005b8451811015612f74576000805b8651811015612f2957612ef9878481518110612ec457634e487b7160e01b600052603260045260246000fd5b6020026020010151888381518110612eec57634e487b7160e01b600052603260045260246000fd5b6020026020010151614226565b15612f1757612f0960018361924d565b9150848210612f1757612f29565b80612f218161931a565b915050612e98565b50838110612f6157858281518110612f5157634e487b7160e01b600052603260045260246000fd5b6020026020010151925050612f74565b5080612f6c8161931a565b915050612e8b565b50600083600081518110612f9857634e487b7160e01b600052603260045260246000fd5b6020026020010151905060005b8451811015613087576000805b865181101561303c57868181518110612fdb57634e487b7160e01b600052603260045260246000fd5b602002602001015187848151811061300357634e487b7160e01b600052603260045260246000fd5b6020026020010151141561302a5761301c60018361924d565b915085821061302a5761303c565b806130348161931a565b915050612fb2565b508481106130745785828151811061306457634e487b7160e01b600052603260045260246000fd5b6020026020010151925050613087565b508061307f8161931a565b915050612fa5565b5060005b86518110156136925760008782815181106130b657634e487b7160e01b600052603260045260246000fd5b6020908102919091018101516001600160a01b03811660009081526002835260408082208d8352909352919091205490915060ff166130f482616d9a565b6001600160a01b0382166000908152600c602052604090208115613573576001600160a01b0383166000818152600c6020908152604080832060028101805460ff191660011790556003018390558e8352600482528083209383529290529081208054613160906192df565b80601f016020809104026020016040519081016040528092919081815260200182805461318c906192df565b80156131d95780601f106131ae576101008083540402835291602001916131d9565b820191906000526020600020905b8154815290600101906020018083116131bc57829003601f168201915b505050505090506131ea8188614226565b156134d4576024546040516308c0a84360e11b81526000916001600160a01b0316906311815086906132209088906004016180be565b60206040518083038186803b15801561323857600080fd5b505afa15801561324c573d6000803e3d6000fd5b505050506040513d601f19601f820116820180604052508101906132709190617b40565b602254602754604080516389b212d360e01b815290519394506001600160a01b0392831693631b6d990a938c9316916389b212d3916004808301926020929190829003018186803b1580156132c457600080fd5b505afa1580156132d8573d6000803e3d6000fd5b505050506040513d601f19601f820116820180604052508101906132fc9190617e4e565b6133069190619279565b836040518363ffffffff1660e01b815260040161332492919061912d565b602060405180830381600087803b15801561333e57600080fd5b505af1158015613352573d6000803e3d6000fd5b505050506040513d601f19601f820116820180604052508101906133769190617c61565b6133925760405162461bcd60e51b8152600401610eed9061866a565b60235460275460408051630788b62760e51b815290516001600160a01b039384169363e0ca5094938c9391169163f116c4e091600480820192602092909190829003018186803b1580156133e557600080fd5b505afa1580156133f9573d6000803e3d6000fd5b505050506040513d601f19601f8201168201806040525081019061341d9190617e4e565b6134279190619279565b836040518363ffffffff1660e01b8152600401613445929190619116565b602060405180830381600087803b15801561345f57600080fd5b505af1158015613473573d6000803e3d6000fd5b505050506040513d601f19601f820116820180604052508101906134979190617c61565b6134b35760405162461bcd60e51b8152600401610eed906183ec565b60018360070160008282546134c8919061924d565b909155506134ef915050565b60018260080160008282546134e9919061924d565b90915550505b600582015460ff161561356d5761350584617257565b15801561351c57506005820154610100900460ff16155b1561356d57601180546001810182556000919091527f31ecc21a745e3968a04e9570e4425bc18fa8019c68028196b546d1669c200c680180546001600160a01b0319166001600160a01b0386161790555b5061367c565b6005810154610100900460ff1680613589575081155b1561367c576001600160a01b0383166000908152600c602052604081206003018054600192906135ba90849061924d565b909155505060275460408051634fda48fb60e11b815290516001600160a01b0390921691639fb491f691600480820192602092909190829003018186803b15801561360457600080fd5b505afa158015613618573d6000803e3d6000fd5b505050506040513d601f19601f8201168201806040525081019061363c9190617e4e565b6001600160a01b0384166000908152600c6020526040902060030154141561367c5760058101805460ff1916905561367383616c42565b61367c83616d9a565b505050808061368a9061931a565b91505061308b565b506000878152600b6020908152604090912060058101805461ff00191661010017905583516136c992600a909201918501906178a5565b506000878152600b602052604090206004018190556136e787611d1f565b1561382d576000878152600b60208190526040822001805460ff19166001908117909155601c80549192909161371e90849061924d565b90915550506026546040516348257dc960e01b81526001600160a01b03909116906348257dc990613753908a9060040161808b565b602060405180830381600087803b15801561376d57600080fd5b505af192505050801561379d575060408051601f3d908101601f1916820190925261379a91810190617c61565b60015b61380e573d8080156137cb576040519150601f19603f3d011682016040523d82523d6000602084013e6137d0565b606091505b507f4b87bbd93ba65ede1e2efeca735d9f7a6720bf7d6db0a8355b17dba5b64e57838160405161380091906181d5565b60405180910390a150613828565b6001601b6000828254613821919061924d565b9091555050505b613862565b6000878152600b60208190526040822001805460ff19166002179055601d80546001929061385c90849061924d565b90915550505b6001601b6000828254613875919061924d565b90915550506000878152600b6020526040812060020154601e80549192909161389f90849061924d565b90915550506000878152600b6020526040812060030154601f8054919290916138c990849061924d565b90915550506000878152600a602052604090819020600181015491516001600160a01b03909216917f4274774834281ba40c971545a264fef6b81e737ecbc755cfbf28bdcf95c11b4f9161391c91618275565b60405180910390a250505050505050565b600061136d82610c9a8461170a565b6000818152600b60205260408120600981015460089091015482916116669161924d565b6001600160a01b03166000908152600d602052604090205490565b613983616c3e565b6001600160a01b0316613994613ecf565b6001600160a01b0316146139ba5760405162461bcd60e51b8152600401610eed90618990565b6139c460006172c7565b565b60006139d182616b51565b6139ed5760405162461bcd60e51b8152600401610eed90618be2565b506000908152600b602052604090206007015490565b60125490565b6060613a1482616b51565b613a305760405162461bcd60e51b8152600401610eed90618be2565b6000828152600f6020908152604080832080548251818502810185019093528083529192909190830182828015613a9057602002820191906000526020600020905b81546001600160a01b03168152600190910190602001808311613a72575b50505050509050600081516001600160401b03811115613ac057634e487b7160e01b600052604160045260246000fd5b604051908082528060200260200182016040528015613af357816020015b6060815260200190600190039081613ade5790505b50905060005b825181101561105957600760008681526020019081526020016000206000848381518110613b3757634e487b7160e01b600052603260045260246000fd5b60200260200101516001600160a01b03166001600160a01b031681526020019081526020016000208054613b6a906192df565b80601f0160208091040260200160405190810160405280929190818152602001828054613b96906192df565b8015613be35780601f10613bb857610100808354040283529160200191613be3565b820191906000526020600020905b815481529060010190602001808311613bc657829003601f168201915b5050505050828281518110613c0857634e487b7160e01b600052603260045260246000fd5b60200260200101819052508080613c1e9061931a565b915050613af9565b613c2e616c3e565b6001600160a01b0316613c3f613ecf565b6001600160a01b031614613c655760405162461bcd60e51b8152600401610eed90618990565b601a55565b6024546001600160a01b031681565b601254601154600091613c8b9161924d565b905090565b6000613c9b82616b51565b613cb75760405162461bcd60e51b8152600401610eed90618be2565b506001600160a01b03919091166000908152600160209081526040808320938352929052205460ff1690565b600b60205260009081526040902080546001820154600283015460038401546004850154600586015460068701546007880154600889015460098a0154600a8b0180549a9b999a98999798969760ff808816986101008904821698620100009004909116969594939290613d56906192df565b80601f0160208091040260200160405190810160405280929190818152602001828054613d82906192df565b8015613dcf5780601f10613da457610100808354040283529160200191613dcf565b820191906000526020600020905b815481529060010190602001808311613db257829003601f168201915b505050600b909301549192505060ff168e565b600080613def8487614cf0565b83101590506000613e008587614cf0565b84111580613e0c575085155b9050818015613e185750805b979650505050505050565b601281815481106116d357600080fd5b6021546001600160a01b031681565b60185481565b6006602090815260009283526040808420909152908252902080546111e5906192df565b600c602052600090815260409020805460018201546002830154600384015460048501546005860154600687015460078801546008909801546001600160a01b0390971697959660ff95861696949593948385169461010090940490931692908a565b6000546001600160a01b031690565b600f6020528160005260406000208181548110613efa57600080fd5b6000918252602090912001546001600160a01b03169150829050565b60016000828152600b60208190526040909120015460ff166003811115613f4d57634e487b7160e01b600052602160045260246000fd5b14613f6a5760405162461bcd60e51b8152600401610eed90618356565b33600090815260086020526040908190209051631a4363b760e01b815273__$568f942b8aa64c6b86c96341d5ab273d86$__91631a4363b791613fb2919085906004016180b0565b60206040518083038186803b158015613fca57600080fd5b505af4158015613fde573d6000803e3d6000fd5b505050506040513d601f19601f820116820180604052508101906140029190617c61565b61401e5760405162461bcd60e51b8152600401610eed906187cd565b33600090815260086020526040908190209051636e7ba32360e01b815273__$568f942b8aa64c6b86c96341d5ab273d86$__91636e7ba32391614066919085906004016180b0565b60006040518083038186803b15801561407e57600080fd5b505af4158015614092573d6000803e3d6000fd5b50506040513392508391507f402507661c8c8cb90e0a796450b8bdd28b6c516f05279c0cd29e84c344e1699a90600090a350565b601c5481565b60005b815181101561411a576141088282815181106140fb57634e487b7160e01b600052603260045260246000fd5b6020026020010151613f16565b806141128161931a565b9150506140cf565b5050565b60008282604051602001614133929190618069565b60405160208183030381529060405280519060200120905092915050565b614159616c3e565b6001600160a01b031661416a613ecf565b6001600160a01b0316146141905760405162461bcd60e51b8152600401610eed90618990565b602580546001600160a01b0319166001600160a01b0392909216919091179055565b601c5490565b601d5481565b60006141c982616b51565b6141e55760405162461bcd60e51b8152600401610eed90618be2565b6000828152600b60205260409020600601546142009061531b565b15801561136d5750506000908152600b6020526040902060020154151590565b60165490565b6000816040516020016142399190618094565b60405160208183030381529060405280519060200120836040516020016142609190618094565b6040516020818303038152906040528051906020012014156142845750600161136d565b50600061136d565b600061429782616b51565b6142b35760405162461bcd60e51b8152600401610eed90618be2565b506001600160a01b03919091166000908152600260209081526040808320938352929052205460ff1690565b60008042416040516020016142f4919061804c565b6040516020818303038152906040528051906020012060001c6143179190619265565b446143206116ed565b604051602001614330919061808b565b60408051601f198184030181529190528051602090910120614352904261924d565b61435c919061924d565b614366919061924d565b604051602001614376919061808b565b60408051601f19818403018152919052805160209091012091505090565b6015546001600160a01b031681565b601381815481106116d357600080fd5b6001600160a01b038082166000908152600c6020908152604080832081516101408101835281549095168552600181015492850192909252600282015460ff90811615801592860183905260038401546060870152600484015460808701526005840154808316151560a088015261010090819004909216151560c0870152600684015460e08701526007840154918601919091526008909201546101208501529192839290919061446f575061446d816020015161132b565b155b1561447957600191505b5092915050565b614488616eca565b614491846117aa565b6144ad5760405162461bcd60e51b8152600401610eed90618b55565b33600090815260016020908152604080832087845290915290205460ff166144e75760405162461bcd60e51b8152600401610eed906186b8565b33600090815260026020908152604080832087845290915290205460ff16156145225760405162461bcd60e51b8152600401610eed90618eaa565b61452c33856152d6565b6145368383616651565b146145535760405162461bcd60e51b8152600401610eed90618a59565b600061455f3386614cf0565b90508360011415614596576000858152600b60205260408120600801805483929061458b90849061924d565b909155506145bd9050565b6000858152600b6020526040812060090180548392906145b790849061924d565b90915550505b33600090815260086020526040908190209051636e7ba32360e01b815273__$568f942b8aa64c6b86c96341d5ab273d86$__91636e7ba32391614605919089906004016180b0565b60006040518083038186803b15801561461d57600080fd5b505af4158015614631573d6000803e3d6000fd5b50503360008181526002602090815260408083208b84528252808320805460ff191660011790556003825280832084845282528083208a90558a83526004825280832093835292815291902086516146909450909250908601906178a5565b50336000908152600c60209081526040808320888452600b909252909120600301546146bd906001617317565b6000878152600b602052604090206003015560028101805460ff191660011790554260048201556146ed33616d9a565b600581015460ff161561474a5761470333617257565b61474a57601180546001810182556000919091527f31ecc21a745e3968a04e9570e4425bc18fa8019c68028196b546d1669c200c680180546001600160a01b031916331790555b6000868152600b60205260409020600301546147695761476986612a9d565b6001601b600082825461477c919061924d565b90915550506000868152600b60205260409081902060088101546009909101549151339288928a927fb42ce08859eaef6ebc321571a97be99f50ccafcce4e7491e5a0d22ad577010f8926147d492899290919061914b565b60405180910390a4505050505050565b6060600082116148065760405162461bcd60e51b8152600401610eed9061896b565b600041604051602001614819919061804c565b6040516020818303038152906040528051906020012060001c61483a6116ed565b60405160200161484a919061808b565b60408051601f19818403018152919052805160209091012061486c904261924d565b614876919061924d565b604051602001614886919061808b565b6040516020818303038152906040528051906020012060001c90506000846001600160401b038111156148c957634e487b7160e01b600052604160045260246000fd5b6040519080825280602002602001820160405280156148f2578160200160208202803683370190505b5090506000805b868210156149f35760008661491263017efeeb87619298565b836040516020016149249291906180b0565b6040516020818303038152906040528051906020012060001c6149479190619335565b90506000805b8481101561499f578286828151811061497657634e487b7160e01b600052603260045260246000fd5b6020026020010151141561498d576001915061499f565b806149978161931a565b91505061494d565b50806149df57818585815181106149c657634e487b7160e01b600052603260045260246000fd5b60209081029190910101526149dc84600161924d565b93505b6149ea83600161924d565b925050506148f9565b509095945050505050565b6000614a098361132b565b614a255760405162461bcd60e51b8152600401610eed90618dda565b6001600160a01b038416600090815260026020908152604080832086845290915290205460ff16614a685760405162461bcd60e51b8152600401610eed9061882a565b6000614a7384611d1f565b614a7e576000614a81565b60015b60ff16905060008184604051602001614a9b9291906180b0565b6040516020818303038152906040528051906020012090506000614abf87876152d6565b9050808214614ae05760405162461bcd60e51b8152600401610eed90618ab6565b613e188787614cf0565b6060600082118015614afc5750818311155b8015614b09575060018310155b614b255760405162461bcd60e51b8152600401610eed90618482565b6000826001600160401b03811115614b4d57634e487b7160e01b600052604160045260246000fd5b604051908082528060200260200182016040528015614b76578160200160208202803683370190505b5090506000846001600160401b03811115614ba157634e487b7160e01b600052604160045260246000fd5b604051908082528060200260200182016040528015614bca578160200160208202803683370190505b5090506000614be0614bdb84617323565b617379565b905060005b868110156149f357818181518110614c0d57634e487b7160e01b600052603260045260246000fd5b6020026020010151838281518110614c3557634e487b7160e01b600052603260045260246000fd5b602090810291909101015280614c4a8161931a565b915050614be5565b614c5a616c3e565b6001600160a01b0316614c6b613ecf565b6001600160a01b031614614c915760405162461bcd60e51b8152600401610eed90618990565b602480546001600160a01b0319166001600160a01b0392909216919091179055565b6000614cbe82616b51565b614cda5760405162461bcd60e51b8152600401610eed90618be2565b506000908152600b602052604090206006015490565b600073__$3906a107e5f25bd7c282287ff7d8a73921$__635b6864f36009614d18868661411e565b6040518363ffffffff1660e01b8152600401614d3592919061906b565b60206040518083038186803b158015614d4d57600080fd5b505af4158015614d61573d6000803e3d6000fd5b505050506040513d601f19601f820116820180604052508101906116669190617e4e565b6000828152600f60209081526040808320805482518185028101850190935280835284938493929190830182828015614de757602002820191906000526020600020905b81546001600160a01b03168152600190910190602001808311614dc9575b5050505050905060005b8151811015614e5657846001600160a01b0316828281518110614e2457634e487b7160e01b600052603260045260246000fd5b60200260200101516001600160a01b03161415614e445760019250614e56565b80614e4e8161931a565b915050614df1565b5090949350505050565b600260209081526000928352604080842090915290825290205460ff1681565b60175481565b601a5481565b6060818310614ead5760405162461bcd60e51b8152600401610eed90618ef6565b614eb682616b51565b614ed25760405162461bcd60e51b8152600401610eed90618707565b6000614ede8484619298565b614ee990600161924d565b90506000816001600160401b03811115614f1357634e487b7160e01b600052604160045260246000fd5b604051908082528060200260200182016040528015614f4657816020015b6060815260200190600190039081614f315790505b509050845b848110156150685760016000828152600b60208190526040909120015460ff166003811115614f8a57634e487b7160e01b600052602160045260246000fd5b1415615056576000818152600b60205260409020600a018054614fac906192df565b80601f0160208091040260200160405190810160405280929190818152602001828054614fd8906192df565b80156150255780601f10614ffa57610100808354040283529160200191615025565b820191906000526020600020905b81548152906001019060200180831161500857829003601f168201915b505050505082828151811061504a57634e487b7160e01b600052603260045260246000fd5b60200260200101819052505b806150608161931a565b915050614f4b565b50949350505050565b606061507c82616b51565b6150985760405162461bcd60e51b8152600401610eed90618be2565b6000828152600f60209081526040808320805482518185028101850190935280835291929091908301828280156150f857602002820191906000526020600020905b81546001600160a01b031681526001909101906020018083116150da575b50505050509050600081516001600160401b0381111561512857634e487b7160e01b600052604160045260246000fd5b60405190808252806020026020018201604052801561515b57816020015b60608152602001906001900390816151465790505b50905060005b82518110156110595760046000868152602001908152602001600020600084838151811061519f57634e487b7160e01b600052603260045260246000fd5b60200260200101516001600160a01b03166001600160a01b0316815260200190815260200160002080546151d2906192df565b80601f01602080910402602001604051908101604052809291908181526020018280546151fe906192df565b801561524b5780601f106152205761010080835404028352916020019161524b565b820191906000526020600020905b81548152906001019060200180831161522e57829003601f168201915b505050505082828151811061527057634e487b7160e01b600052603260045260246000fd5b602002602001018190525080806152869061931a565b915050615161565b600e6020528160005260406000208181548110613efa57600080fd5b6025546001600160a01b031681565b600360209081526000928352604080842090915290825290205481565b600073__$3906a107e5f25bd7c282287ff7d8a73921$__635b6864f360096152fe868661411e565b6040518363ffffffff1660e01b8152600401614d3592919061901f565b421190565b6153286179b4565b61533182616b51565b61534d5760405162461bcd60e51b8152600401610eed90618be2565b6000828152600b602090815260409182902082516101c081018452815481526001820154928101929092526002810154928201929092526003820154606082015260048201546080820152600582015460ff808216151560a08401526101008083048216151560c08501526201000090920416151560e0830152600683015490820152600782015461012082015260088201546101408201526009820154610160820152600a820180549192916101808401919061540a906192df565b80601f0160208091040260200160405190810160405280929190818152602001828054615436906192df565b80156154835780601f1061545857610100808354040283529160200191615483565b820191906000526020600020905b81548152906001019060200180831161546657829003601f168201915b5050509183525050600b82015460209091019060ff16600381111561217857634e487b7160e01b600052602160045260246000fd5b6154c0616eca565b601354156154d0576154d0617520565b6154d86175d4565b60005b602760009054906101000a90046001600160a01b03166001600160a01b0316637d630cb06040518163ffffffff1660e01b815260040160206040518083038186803b15801561552957600080fd5b505afa15801561553d573d6000803e3d6000fd5b505050506040513d601f19601f820116820180604052508101906155619190617e4e565b8110156114be576019546000908152600b602052604081206005015462010000900460ff16151560011480156155ba575061559d60195461132b565b806155ba57506019546000908152600b6020526040902060030154155b156155df576155ca601954612a9d565b6019546155d89060016171db565b6019555060015b601a546000908152600b602052604090206005015462010000900460ff1615156001148015906156965750602760009054906101000a90046001600160a01b03166001600160a01b031663fff5f9466040518163ffffffff1660e01b815260040160206040518083038186803b15801561565857600080fd5b505afa15801561566c573d6000803e3d6000fd5b505050506040513d601f19601f820116820180604052508101906156909190617e4e565b60115410155b80156156ab57506156a56142df565b60145414155b80156156cb5750601a546000908152600b602052604090206005015460ff165b156156dc576156d861248d565b5060015b806156e757506114be565b50806156f28161931a565b9150506154db565b6026546001600160a01b031681565b615711616c3e565b6001600160a01b0316615722613ecf565b6001600160a01b0316146157485760405162461bcd60e51b8152600401610eed90618990565b602280546001600160a01b0319166001600160a01b0392909216919091179055565b615772616c3e565b6001600160a01b0316615783613ecf565b6001600160a01b0316146157a95760405162461bcd60e51b8152600401610eed90618990565b602180546001600160a01b0319166001600160a01b0392909216919091179055565b336000908152600d602052604090205490565b6060600082116158005760405162461bcd60e51b8152600401610eed90618875565b6000826001600160401b0381111561582857634e487b7160e01b600052604160045260246000fd5b604051908082528060200260200182016040528015615851578160200160208202803683370190505b5090506000615862614bdb83617323565b949350505050565b606061587582616b51565b6158915760405162461bcd60e51b8152600401610eed90618be2565b6000828152600b60205260409020600a0180546158ad906192df565b80601f01602080910402602001604051908101604052809291908181526020018280546158d9906192df565b80156159265780601f106158fb57610100808354040283529160200191615926565b820191906000526020600020905b81548152906001019060200180831161590957829003601f168201915b50505050509050919050565b61593a616eca565b615943856141be565b61595f5760405162461bcd60e51b8152600401610eed90618515565b33600090815260016020908152604080832088845290915290205460ff161561599a5760405162461bcd60e51b8152600401610eed90618c5a565b6159a48533614d85565b6159c05760405162461bcd60e51b8152600401610eed90618579565b602754604080516371efe05960e11b815290516000926001600160a01b03169163e3dfc0b2916004808301926020929190829003018186803b158015615a0557600080fd5b505afa158015615a19573d6000803e3d6000fd5b505050506040513d601f19601f82011682018060405250810190615a3d9190617e4e565b60245460405163792f4f6960e11b81529192506000916001600160a01b039091169063f25e9ed290615a739033906004016180be565b60206040518083038186803b158015615a8b57600080fd5b505afa158015615a9f573d6000803e3d6000fd5b505050506040513d601f19601f82011682018060405250810190615ac39190617b40565b336000908152600d6020526040902054909150821115615b6c576001600160a01b03811615615b43576001600160a01b0381166000908152600d6020526040902054821115615b3e576001600160a01b0381166000908152600d6020526040812054615b30908490617317565b9050615b3c818361779d565b505b615b6c565b336000908152600d6020526040812054615b5e908490617317565b9050615b6a813361779d565b505b336000908152600d6020526040902054821115615b9b5760405162461bcd60e51b8152600401610eed90618ce5565b600033600090815260086020526040808220905163dfd58d7b60e01b815273__$568f942b8aa64c6b86c96341d5ab273d86$__9163dfd58d7b91615be4919086906004016180b0565b60206040518083038186803b158015615bfc57600080fd5b505af4158015615c10573d6000803e3d6000fd5b505050506040513d601f19601f82011682018060405250810190615c349190617e4e565b905088811415615cd9573360009081526008602052604090819020905163dfd58d7b60e01b815273__$568f942b8aa64c6b86c96341d5ab273d86$__9163dfd58d7b91615c8691908d906004016180b0565b60206040518083038186803b158015615c9e57600080fd5b505af4158015615cb2573d6000803e3d6000fd5b505050506040513d601f19601f82011682018060405250810190615cd69190617e4e565b90505b615ce582823387613de2565b615d015760405162461bcd60e51b8152600401610eed90618894565b3360009081526008602052604090819020905163920ba47360e01b815273__$568f942b8aa64c6b86c96341d5ab273d86$__9163920ba47391615d4d919086908e9087906004016190a7565b60006040518083038186803b158015615d6557600080fd5b505af4158015615d79573d6000803e3d6000fd5b505050506000615d89338b61411e565b60405163edcd42a760e01b815290915073__$3906a107e5f25bd7c282287ff7d8a73921$__9063edcd42a790615dc89060099085908a90600401619089565b60006040518083038186803b158015615de057600080fd5b505af4158015615df4573d6000803e3d6000fd5b505060405163edcd42a760e01b815273__$3906a107e5f25bd7c282287ff7d8a73921$__925063edcd42a79150615e349060099085908e9060040161903d565b60006040518083038186803b158015615e4c57600080fd5b505af4158015615e60573d6000803e3d6000fd5b50505060008b8152600560209081526040808320338085529083528184208d90558e84526006835281842090845282529091208951615ea4935090918a01906178a5565b5060008a815260076020908152604080832033845282529091208751615ecc928901906178a5565b50336000908152600c602090815260408083208d8452600b90925290912060020154615ef9906001617317565b60008c8152600b602090815260408083206002019390935542600485015533825260018082528383208f8452909152918120805460ff191683179055601b8054909190615f4790849061924d565b909155505060405133908c907f845211dc395f7377d81ec5b753ab60d9516a4d4c71c5ab8a8206d7959d70b80090615f80908a9061808b565b60405180910390a35050505050505050505050565b6001600160a01b03166000908152600c602052604090206005015460ff1690565b6000615fda615fc43361392d565b336000908152600d602052604090205490617317565b905081811015615ffc5760405162461bcd60e51b8152600401610eed90618b9b565b602154604051630895993360e11b81526001600160a01b039091169063112b32669061602e9085903390600401619116565b602060405180830381600087803b15801561604857600080fd5b505af115801561605c573d6000803e3d6000fd5b505050506040513d601f19601f820116820180604052508101906160809190617c61565b61609c5760405162461bcd60e51b8152600401610eed90618e24565b336000908152600d6020526040812080548492906160bb908490619298565b909155505060405133907ffaeb7dbb9992397d26ea1944efd40c80b40f702faf69b46c67ad10aba68ccb79906160f290859061808b565b60405180910390a25050565b606061610982616b51565b6161255760405162461bcd60e51b8152600401610eed906189c5565b6000826019546161359190619298565b61614090600161924d565b90506000816001600160401b0381111561616a57634e487b7160e01b600052604160045260246000fd5b60405190808252806020026020018201604052801561619d57816020015b60608152602001906001900390816161885790505b509050835b6019548110156110595760016000828152600b60208190526040909120015460ff1660038111156161e357634e487b7160e01b600052602160045260246000fd5b14156162af576000818152600b60205260409020600a018054616205906192df565b80601f0160208091040260200160405190810160405280929190818152602001828054616231906192df565b801561627e5780601f106162535761010080835404028352916020019161627e565b820191906000526020600020905b81548152906001019060200180831161626157829003601f168201915b50505050508282815181106162a357634e487b7160e01b600052603260045260246000fd5b60200260200101819052505b806162b98161931a565b9150506161a2565b601f5481565b60606162d282616b51565b6162ee5760405162461bcd60e51b8152600401610eed90618be2565b6000828152600b6020908152604080832081516101c081018352815481526001820154938101939093526002810154918301919091526003810154606083015260048101546080830152600581015460ff808216151560a08501526101008083048216151560c08601526201000090920416151560e0840152600682015490830152600781015461012083015260088101546101408301526009810154610160830152600a81018054610180840191906163a7906192df565b80601f01602080910402602001604051908101604052809291908181526020018280546163d3906192df565b80156164205780601f106163f557610100808354040283529160200191616420565b820191906000526020600020905b81548152906001019060200180831161640357829003601f168201915b5050509183525050600b82015460209091019060ff16600381111561645557634e487b7160e01b600052602160045260246000fd5b600381111561647457634e487b7160e01b600052602160045260246000fd5b90525060208101519091506000816001600160401b038111156164a757634e487b7160e01b600052604160045260246000fd5b6040519080825280602002602001820160405280156164da57816020015b60608152602001906001900390816164c55790505b50905060005b828110156150685783516000906164f890839061924d565b6000818152600a6020526040812080549293509091616516906192df565b80601f0160208091040260200160405190810160405280929190818152602001828054616542906192df565b801561658f5780601f106165645761010080835404028352916020019161658f565b820191906000526020600020905b81548152906001019060200180831161657257829003601f168201915b50505050509050808484815181106165b757634e487b7160e01b600052603260045260246000fd5b6020026020010181905250505080806165cf9061931a565b9150506164e0565b60195481565b601b5481565b6165eb616c3e565b6001600160a01b03166165fc613ecf565b6001600160a01b0316146166225760405162461bcd60e51b8152600401610eed90618990565b6001600160a01b0381166166485760405162461bcd60e51b8152600401610eed9061843c565b6114be816172c7565b60008282604051602001614133929190618253565b601b5490565b616674616eca565b336000908152600c602090815260409182902060275483516398a54e2b60e01b8152935191936001600160a01b03909116926398a54e2b92600480840193829003018186803b1580156166c657600080fd5b505afa1580156166da573d6000803e3d6000fd5b505050506040513d601f19601f820116820180604052508101906166fe9190617e4e565b60125460115461670e919061924d565b1061672b5760405162461bcd60e51b8152600401610eed90618ca3565b600581015460ff16156167505760405162461bcd60e51b8152600401610eed9061831f565b602760009054906101000a90046001600160a01b03166001600160a01b0316639fb491f66040518163ffffffff1660e01b815260040160206040518083038186803b15801561679e57600080fd5b505afa1580156167b2573d6000803e3d6000fd5b505050506040513d601f19601f820116820180604052508101906167d69190617e4e565b81600301541015801561687b5750602760009054906101000a90046001600160a01b03166001600160a01b0316630f1f0ffe6040518163ffffffff1660e01b815260040160206040518083038186803b15801561683257600080fd5b505afa158015616846573d6000803e3d6000fd5b505050506040513d601f19601f8201168201806040525081019061686a9190617e4e565b60068201546168799042619298565b105b156168985760405162461bcd60e51b8152600401610eed90618d42565b602754604080516371efe05960e11b815290516000926001600160a01b03169163e3dfc0b2916004808301926020929190829003018186803b1580156168dd57600080fd5b505afa1580156168f1573d6000803e3d6000fd5b505050506040513d601f19601f820116820180604052508101906169159190617e4e565b60245460405163792f4f6960e11b81529192506000916001600160a01b039091169063f25e9ed29061694b9033906004016180be565b60206040518083038186803b15801561696357600080fd5b505afa158015616977573d6000803e3d6000fd5b505050506040513d601f19601f8201168201806040525081019061699b9190617b40565b336000908152600d6020526040902054909150821115616a44576001600160a01b03811615616a1b576001600160a01b0381166000908152600d6020526040902054821115616a16576001600160a01b0381166000908152600d6020526040812054616a08908490617317565b9050616a14818361779d565b505b616a44565b336000908152600d6020526040812054616a36908490617317565b9050616a42813361779d565b505b336000908152600d6020526040902054821115616a735760405162461bcd60e51b8152600401610eed90618764565b616a7c33617257565b616ac357601180546001810182556000919091527f31ecc21a745e3968a04e9570e4425bc18fa8019c68028196b546d1669c200c680180546001600160a01b031916331790555b8254336001600160a01b031990911617835560058301805460ff1916600190811761ff001916909155426006850155600060038501819055601b8054909190616b0d90849061924d565b909155505060405133907f439d77b7534ec3108fc6143bd4fbabde0b9f2bb54f7b0730d1f70dd2135b765f90616b4490429061808b565b60405180910390a2505050565b601854101590565b336000908152600c602052604090206005015460ff1690565b601d5490565b6020546001600160a01b031681565b6001600160a01b039081166000908152600c6020908152604091829020825161014081018452815490941684526001810154918401829052600281015460ff90811615159385019390935260038101546060850152600481015460808501526005810154808416151560a086015261010090819004909316151560c0850152600681015460e08501526007810154928401929092526008909101546101209092019190915290565b6027546001600160a01b031681565b3390565b60008060005b601154811015616cb657836001600160a01b031660118281548110616c7d57634e487b7160e01b600052603260045260246000fd5b6000918252602090912001546001600160a01b03161415616ca45760019150809250616cb6565b80616cae8161931a565b915050616c48565b508015616d955760118054616ccd90600190619298565b81548110616ceb57634e487b7160e01b600052603260045260246000fd5b600091825260209091200154601180546001600160a01b039092169184908110616d2557634e487b7160e01b600052603260045260246000fd5b9060005260206000200160006101000a8154816001600160a01b0302191690836001600160a01b031602179055506011805480616d7257634e487b7160e01b600052603160045260246000fd5b600082815260209020810160001990810180546001600160a01b03191690550190555b505050565b60008060005b601254811015616e0e57836001600160a01b031660128281548110616dd557634e487b7160e01b600052603260045260246000fd5b6000918252602090912001546001600160a01b03161415616dfc5760019150809250616e0e565b80616e068161931a565b915050616da0565b508015616d955760128054616e2590600190619298565b81548110616e4357634e487b7160e01b600052603260045260246000fd5b600091825260209091200154601280546001600160a01b039092169184908110616e7d57634e487b7160e01b600052603260045260246000fd5b9060005260206000200160006101000a8154816001600160a01b0302191690836001600160a01b031602179055506012805480616d7257634e487b7160e01b600052603160045260246000fd5b60275460408051632abe0d5f60e11b815290516000926001600160a01b03169163557c1abe916004808301926020929190829003018186803b158015616f0f57600080fd5b505afa925050508015616f3f575060408051601f3d908101601f19168201909252616f3c91810190617b40565b60015b616fb0573d808015616f6d576040519150601f19603f3d011682016040523d82523d6000602084013e616f72565b606091505b507f4b87bbd93ba65ede1e2efeca735d9f7a6720bf7d6db0a8355b17dba5b64e578381604051616fa291906181d5565b60405180910390a150616fb2565b505b602760009054906101000a90046001600160a01b03166001600160a01b031663557c1abe6040518163ffffffff1660e01b815260040160206040518083038186803b15801561700057600080fd5b505afa158015617014573d6000803e3d6000fd5b505050506040513d601f19601f820116820180604052508101906170389190617b40565b90506001600160a01b0381166170605760405162461bcd60e51b8152600401610eed906185d6565b6000816001600160a01b03163360405160240161707d91906180be565b60408051601f198184030181529181526020820180516001600160e01b0316631f5ac9c560e11b179052516170b29190618094565b6000604051808303816000865af19150503d80600081146170ef576040519150601f19603f3d011682016040523d82523d6000602084013e6170f4565b606091505b505090506000826001600160a01b03163360405160240161711591906180be565b60408051601f198184030181529181526020820180516001600160e01b03166358563d2160e01b1790525161714a9190618094565b6000604051808303816000865af19150503d8060008114617187576040519150601f19603f3d011682016040523d82523d6000602084013e61718c565b606091505b5050905081806171995750805b616d955760405162461bcd60e51b8152600401610eed906183a7565b60008183106171c45781611666565b5090919050565b6000818310156171c45781611666565b6000611666828461924d565b600080805b60125481101561447957836001600160a01b03166012828154811061722157634e487b7160e01b600052603260045260246000fd5b6000918252602090912001546001600160a01b031614156172455760019150614479565b8061724f8161931a565b9150506171ec565b600080805b60115481101561447957836001600160a01b03166011828154811061729157634e487b7160e01b600052603260045260246000fd5b6000918252602090912001546001600160a01b031614156172b55760019150614479565b806172bf8161931a565b91505061725c565b600080546001600160a01b038381166001600160a01b0319831681178455604051919092169283917f8be0079c531659141344cd1fd0a4f28419497f9722a3daafe3b4186f6b6457e09190a35050565b60006116668284619298565b805160609060005b81811015617371578084828151811061735457634e487b7160e01b600052603260045260246000fd5b6020908102919091010152806173698161931a565b91505061732b565b509192915050565b6060600082511161739c5760405162461bcd60e51b8152600401610eed9061854c565b81518060005b81811015617517576000836173b56142df565b8784815181106173d557634e487b7160e01b600052603260045260246000fd5b60200260200101516040516020016173ee9291906180b0565b6040516020818303038152906040528051906020012060001c6174119190619335565b61741c90600161924d565b905060008661742c600184619298565b8151811061744a57634e487b7160e01b600052603260045260246000fd5b60200260200101519050866001866174629190619298565b8151811061748057634e487b7160e01b600052603260045260246000fd5b6020026020010151876001846174969190619298565b815181106174b457634e487b7160e01b600052603260045260246000fd5b602090810291909101015280876174cc600188619298565b815181106174ea57634e487b7160e01b600052603260045260246000fd5b6020908102919091010152617500600186619298565b94505050808061750f9061931a565b9150506173a2565b50929392505050565b60005b6013548110156175c75760006013828154811061755057634e487b7160e01b600052603260045260246000fd5b60009182526020808320909101546001600160a01b0316808352600c909152604090912060058101549192509060ff16801561758e57506001810154155b156175b25760058101805461ffff191690556175a982616c42565b6175b282616d9a565b505080806175bf9061931a565b915050617523565b506139c460136000617a42565b60006017546019546175e69190619298565b9050602760009054906101000a90046001600160a01b03166001600160a01b031663e3115d3c6040518163ffffffff1660e01b815260040160206040518083038186803b15801561763657600080fd5b505afa15801561764a573d6000803e3d6000fd5b505050506040513d601f19601f8201168201806040525081019061766e9190617e4e565b8111156114be5760005b602754604080516307d630cb60e41b815290516176fc926001600160a01b031691637d630cb0916004808301926020929190829003018186803b1580156176be57600080fd5b505afa1580156176d2573d6000803e3d6000fd5b505050506040513d601f19601f820116820180604052508101906176f69190617e4e565b836171b5565b81101561411a576017546000908152600b602052604081208054600190910154909190617729908361924d565b9050815b818110156177505761773e81611fe2565b806177488161931a565b91505061772d565b5061775c6017546123da565b6017546040517f72c2fcc891fe835b86fc8bb9abdc52adf52499c52289b3c49e1461eabea2717590600090a2505080806177959061931a565b915050617678565b6021546040516304ada21f60e21b81526001600160a01b03909116906312b6887c906177cf9085908590600401619116565b602060405180830381600087803b1580156177e957600080fd5b505af11580156177fd573d6000803e3d6000fd5b505050506040513d601f19601f820116820180604052508101906178219190617c61565b61783d5760405162461bcd60e51b8152600401610eed9061860d565b6001600160a01b0381166000908152600d60205260408120805484929061786590849061924d565b92505081905550806001600160a01b03167f5aa5d56140767016c877a5333ac3e1ad31a09051098a8fdf7297c4b64530a942836040516160f2919061808b565b8280546178b1906192df565b90600052602060002090601f0160209004810192826178d35760008555617919565b82601f106178ec57805160ff1916838001178555617919565b82800160010185558215617919579182015b828111156179195782518255916020019190600101906178fe565b50617925929150617a5c565b5090565b508054617935906192df565b6000825580601f1061794757506114be565b601f0160209004906000526020600020908101906114be9190617a5c565b60405180608001604052806060815260200160006001600160a01b0316815260200160008152602001600060038111156179af57634e487b7160e01b600052602160045260246000fd5b905290565b604051806101c0016040528060008152602001600081526020016000815260200160008152602001600081526020016000151581526020016000151581526020016000151581526020016000815260200160008152602001600081526020016000815260200160608152602001600060038111156179af57634e487b7160e01b600052602160045260246000fd5b50805460008255906000526020600020908101906114be91905b5b808211156179255760008155600101617a5d565b8051801515811461105e57600080fd5b80516004811061105e57600080fd5b600082601f830112617aa0578081fd5b8135617ab3617aae8261921a565b6191f1565b818152846020838601011115617ac7578283fd5b816020850160208301379081016020019190915292915050565b600082601f830112617af1578081fd5b8151617aff617aae8261921a565b818152846020838601011115617b13578283fd5b6158628260208301602087016192af565b600060208284031215617b35578081fd5b81356116668161938b565b600060208284031215617b51578081fd5b81516116668161938b565b60008060408385031215617b6e578081fd5b8235617b798161938b565b946020939093013593505050565b600080600060608486031215617b9b578081fd5b8335617ba68161938b565b95602085013595506040909401359392505050565b60006020808385031215617bcd578182fd5b82356001600160401b0380821115617be3578384fd5b818501915085601f830112617bf6578384fd5b813581811115617c0857617c08619375565b8381029150617c188483016191f1565b8181528481019084860184860187018a1015617c32578788fd5b8795505b83861015617c54578035835260019590950194918601918601617c36565b5098975050505050505050565b600060208284031215617c72578081fd5b61166682617a71565b60008060408385031215617c8d578182fd5b82356001600160401b0380821115617ca3578384fd5b617caf86838701617a90565b93506020850135915080821115617cc4578283fd5b50617cd185828601617a90565b9150509250929050565b60008060408385031215617ced578182fd5b82356001600160401b03811115617d02578283fd5b617d0e85828601617a90565b95602094909401359450505050565b600060208284031215617d2e578081fd5b81516001600160401b0380821115617d44578283fd5b81840191506101c0808387031215617d5a578384fd5b617d63816191f1565b905082518152602083015160208201526040830151604082015260608301516060820152617d9360808401617a71565b6080820152617da460a08401617a71565b60a0820152617db560c08401617a71565b60c082015260e083810151908201526101008084015190820152610120808401519082015261014080840151908201526101608084015183811115617df8578586fd5b617e0488828701617ae1565b828401525050610180915081830151828201526101a09150617e27828401617a81565b91810191909152949350505050565b600060208284031215617e47578081fd5b5035919050565b600060208284031215611703578081fd5b60008060408385031215617e71578182fd5b823591506020830135617e838161938b565b809150509250929050565b600080600080600060a08688031215617ea5578283fd5b85359450602086013593506040860135925060608601356001600160401b0380821115617ed0578283fd5b617edc89838a01617a90565b93506080880135915080821115617ef1578283fd5b50617efe88828901617a90565b9150509295509295909350565b60008060408385031215617f1d578182fd5b50508035926020909101359150565b60008060008060808587031215617f41578182fd5b84359350602085013592506040850135617f5a8161938b565b9396929550929360600135925050565b60008060008060808587031215617f7f578182fd5b843593506020850135925060408501356001600160401b03811115617fa2578283fd5b617fae87828801617a90565b949793965093946060013593505050565b15159052565b60008151808452617fdd8160208601602086016192af565b601f01601f19169290920160200192915050565b6004811061800f57634e487b7160e01b600052602160045260246000fd5b9052565b600a8152690c6dedadad2e890c2e6d60b31b602082015260400190565b60098152686e756d546f6b656e7360b81b602082015260400190565b60609190911b6bffffffffffffffffffffffff1916815260140190565b60609290921b6bffffffffffffffffffffffff19168252601482015260340190565b90815260200190565b600082516180a68184602087016192af565b9190910192915050565b918252602082015260400190565b6001600160a01b0391909116815260200190565b6001600160a01b039a909a168a5260208a0198909852951515604089015260608801949094526080870192909252151560a0860152151560c085015260e08401526101008301526101208201526101400190565b6000602080830181845280855180835260408601915060408482028701019250838701855b8281101561817957603f19888603018452618167858351617fc5565b9450928501929085019060010161814b565b5092979650505050505050565b6020808252825182820181905260009190848201906040850190845b818110156181be578351835292840192918401916001016181a2565b50909695505050505050565b901515815260200190565b6000602082526116666020830184617fc5565b6000604082526181fb6040830185617fc5565b905060018060a01b03831660208301529392505050565b6000608082526182256080830187617fc5565b6001600160a01b038616602084015260408301859052905061824a6060830184617ff1565b95945050505050565b6000604082526182666040830185617fc5565b90508260208301529392505050565b600060208083528184548360028204905060018083168061829757607f831692505b8583108114156182b557634e487b7160e01b87526022600452602487fd5b6182c183878a0161808b565b8180156182d557600181146182e657618310565b60ff19861682528782019650618310565b6182ef8b619241565b895b8681101561830a578154848201529085019089016182f1565b83019750505b50949998505050505050505050565b6020808252601c908201527f576f726b657220697320616c7265616479207265676973746572656400000000604082015260600190565b60208082526031908201527f676976656e204461746142617463682073686f756c6420626520415050524f5660408201527011510b08185b99081a5d081a5cc81b9bdd607a1b606082015260800190565b60208082526025908201527f72656365697665722072656a6563746564205f7265747269657665534675656c6040820152640818d85b1b60da1b606082015260800190565b60208082526030908201527f636f756c64206e6f742072657761726420746f6b656e20696e2056616c69646160408201526f3a32a230ba30a130ba31b4161018973160811b606082015260800190565b60208082526026908201527f4f776e61626c653a206e6577206f776e657220697320746865207a65726f206160408201526564647265737360d01b606082015260800190565b60208082526029908201527f6b206f72204e20617265206e6f74204f4b20647572696e672072616e646f6d2060408201526839b2b632b1ba34b7b760b91b606082015260800190565b6020808252602a908201527f4661696c20647572696e6720616c6c6f636174696f6e3a206e6f7420656e6f75604082015269676820776f726b65727360b01b606082015260800190565b6020808252601e908201527f636f6d6d697420706572696f64206e6565647320746f206265206f70656e0000604082015260600190565b60208082526013908201527205f6d7941727261792e6c656e677468203e203606c1b604082015260600190565b60208082526038908201527f55736572206e6565647320746f20626520616c6c6f636174656420746f20746860408201527f697320626174636820746f20636f6d6d6974206f6e2069740000000000000000606082015260800190565b6020808252601d908201527f734675656c3a206e756c6c2041646472657373204e6f742056616c6964000000604082015260600190565b6020808252603f908201527f436f756c64206e6f74207265717565737420656e6f75676820616c6c6f63617460408201527f6564207374616b652c2072657175657374416c6c6f63617465645374616b6500606082015260800190565b6020808252602e908201527f636f756c64206e6f74207265776172642052455020696e2056616c696461746560408201526d4461746142617463682c20312e6160901b606082015260800190565b6020808252602f908201527f5573657220686173206e6f7420636f6d6d69746564206265666f72652c20746860408201526e1d5cc818d85b89dd081c995d99585b608a1b606082015260800190565b6020808252603b908201527f5f44617461426174636849645f656e64206d7573742065786973743a2074686560408201527f20696e7075742072616e6765206973206e6f7420636f72726563740000000000606082015260800190565b60208082526043908201527f576f726b657220686173206e6f7420656e6f75676820285f6e756d546f6b656e60408201527f732920696e206869732053797374656d5374616b6564546f6b656e42616c616e606082015262031b2960ed1b608082015260a00190565b60208082526039908201527f646c6c4d61703a20646f6573206e6f7420636f696e7461696e205f446174614260408201527f61746368496420666f7220746865206d73672073656e64657200000000000000606082015260800190565b6020808252602b908201527f75736572206d75737420686176652072657665616c656420696e20746869732060408201526a0ced2eccadc4084c2e8c6d60ab1b606082015260800190565b60208082526005908201526404e203e20360dc1b604082015260600190565b6020808252601490820152733737ba1030903b30b634b2103837b9b4ba34b7b760611b604082015260600190565b6020808252603b908201527f43616e277420616c6c6f6361746520776f726b2c207468652063757272656e7460408201527f20626174636820697320616c726561647920616c6c6f63617465640000000000606082015260800190565b6020808252602c908201527f576f726b6572206973206e6f74207265676973746572656420736f2063616e2760408201526b3a103ab73932b3b4b9ba32b960a11b606082015260800190565b6020808252600b908201526a04e5f72616e6765203e20360ac1b604082015260600190565b6020808252818101527f4f776e61626c653a2063616c6c6572206973206e6f7420746865206f776e6572604082015260600190565b6020808252601d908201527f5f44617461426174636849645f7374617274206d757374206578697374000000604082015260600190565b6020808252603a908201527f5f446174614261746368496420686173206e6f7420656e6465642c206f72206e60408201527f6f7420657665727920766f74657273206861766520766f746564000000000000606082015260800190565b6020808252603e908201527f436f756c64206e6f74206d6174636820656e637279707465642068617368202660408201527f20636c6561722068617368207769746820676976656e20696e707574732e0000606082015260800190565b60208082526029908201527f6765744e756d50617373696e67546f6b656e733a20686173686573206d75737460408201526808189948195c5d585b60ba1b606082015260800190565b60208082526036908201527f43616e277420616c6c6f6361746520776f726b2c207468652063757272656e74604082015275206261746368206973206e6f7420636f6d706c65746560501b606082015260800190565b60208082526026908201527f52657665616c20706572696f64206e6f74206f70656e20666f7220746869732060408201526511185d18525160d21b606082015260800190565b60208082526027908201527f617661696c61626c65546f6b656e732073686f756c64206265203e3d205f6e756040820152666d546f6b656e7360c81b606082015260800190565b60208082526017908201527f5f4461746142617463684964206d757374206578697374000000000000000000604082015260600190565b60208082526021908201527f5f446174614261746368496420697320616c72656164792076616c69646174656040820152601960fa1b606082015260800190565b60208082526029908201527f557365722068617320616c726561647920636f6d6d6974656420746f207468696040820152681cc818985d18da125960ba1b606082015260800190565b60208082526022908201527f4d6178696d756d207265676973746572656420776f726b65727320616c726561604082015261647960f01b606082015260800190565b60208082526037908201527f75736572206d757374206861766520656e6f75676820766f74696e672072696760408201527f68747320616b6120616c6c6f6361746564207374616b65000000000000000000606082015260800190565b6020808252606c908201527f5573657220686173206e6f7420766f746564206d616e792074696d657320696e60408201527f206120726f7720616e64206e6565647320746f2077616974204e4f564f54455f60608201527f524547495354524154494f4e5f574149545f4455524154494f4e20746f20726560808201526b33b4b9ba32b91030b3b0b4b760a11b60a082015260c00190565b6020808252602a908201527f5f446174614261746368496420636865636b696e6720766f7465206d757374206040820152691a185d9948195b99195960b21b606082015260800190565b6020808252603b908201527f436f756c64206e6f74207769746864726177566f74696e67526967687473207460408201527f68726f7567682050726f78795374616b654465616c6c6f636174650000000000606082015260800190565b6020808252600f908201526e11185d18481b5d5cdd08195e1a5cdd608a1b604082015260600190565b6020808252602c908201527f557365722068617320616c72656164792072657665616c65642c20746875732060408201526b18d85b89dd081c995d99585b60a21b606082015260800190565b60208082526032908201527f5f44617461426174636849645f7374617274206d757374206265203c207468616040820152711b8817d1185d1850985d18da125917d95b9960721b606082015260800190565b60006020825282516020830152602083015160408301526040830151606083015260608301516080830152608083015160a083015260a0830151618f8f60c0840182617fbf565b5060c0830151618fa260e0840182617fbf565b5060e0830151610100618fb781850183617fbf565b840151610120848101919091528401516101408085019190915284015161016080850191909152840151610180808501919091528401516101c06101a08086018290529192509061900c6101e0860184617fc5565b90860151909250614e5685830182617ff1565b60008382528260208301526060604083015261586260608301618013565b60008482528360208301526080604083015261905b60808301618013565b9050826060830152949350505050565b60008382528260208301526060604083015261586260608301618030565b60008482528360208301526080604083015261905b60808301618030565b93845260208401929092526040830152606082015260800190565b6000602082528251608060208401526190de60a0840182617fc5565b905060018060a01b03602085015116604084015260408401516060840152606084015161910e6080850182617ff1565b509392505050565b9182526001600160a01b0316602082015260400190565b9182526001600160a01b031660208201526000604082015260600190565b9283526020830191909152604082015260600190565b60008f82528e60208301528d60408301528c60608301528b60808301528a151560a083015289151560c083015261919b60e083018a617fbf565b876101008301528661012083015285610140830152846101608301526101c06101808301526191ce6101c0830185617fc5565b90506191de6101a0830184617ff1565b9f9e505050505050505050505050505050565b6040518181016001600160401b038111828210171561921257619212619375565b604052919050565b60006001600160401b0382111561923357619233619375565b50601f01601f191660200190565b60009081526020902090565b6000821982111561926057619260619349565b500190565b6000826192745761927461935f565b500490565b600081600019048311821515161561929357619293619349565b500290565b6000828210156192aa576192aa619349565b500390565b60005b838110156192ca5781810151838201526020016192b2565b838111156192d9576000848401525b50505050565b6002810460018216806192f357607f821691505b6020821081141561931457634e487b7160e01b600052602260045260246000fd5b50919050565b600060001982141561932e5761932e619349565b5060010190565b6000826193445761934461935f565b500690565b634e487b7160e01b600052601160045260246000fd5b634e487b7160e01b600052601260045260246000fd5b634e487b7160e01b600052604160045260246000fd5b6001600160a01b03811681146114be57600080fdfea26469706673582212206e9fff2caed2c916492afcd727dc092a4d3b140915f2f3b5bb207c6f6c4b51f864736f6c63430008000033",
  "linkReferences": {
    "contracts/worksystems/DataCompliance.sol": {
      "AttributeStore2": [
        {
          "length": 20,
          "start": 20033
        },
        {
          "length": 20,
          "start": 21543
        },
        {
          "length": 20,
          "start": 24296
        },
        {
          "length": 20,
          "start": 24402
        }
      ],
      "DLL2": [
        {
          "length": 20,
          "start": 5763
        },
        {
          "length": 20,
          "start": 5935
        },
        {
          "length": 20,
          "start": 6270
        },
        {
          "length": 20,
          "start": 16598
        },
        {
          "length": 20,
          "start": 16778
        },
        {
          "length": 20,
          "start": 18217
        },
        {
          "length": 20,
          "start": 23816
        },
        {
          "length": 20,
          "start": 23978
        },
        {
          "length": 20,
          "start": 24173
        }
      ]
    }
  },
  "deployedLinkReferences": {
    "contracts/worksystems/DataCompliance.sol": {
      "AttributeStore2": [
        {
          "length": 20,
          "start": 19700
        },
        {
          "length": 20,
          "start": 21210
        },
        {
          "length": 20,
          "start": 23963
        },
        {
          "length": 20,
          "start": 24069
        }
      ],
      "DLL2": [
        {
          "length": 20,
          "start": 5430
        },
        {
          "length": 20,
          "start": 5602
        },
        {
          "length": 20,
          "start": 5937
        },
        {
          "length": 20,
          "start": 16265
        },
        {
          "length": 20,
          "start": 16445
        },
        {
          "length": 20,
          "start": 17884
        },
        {
          "length": 20,
          "start": 23483
        },
        {
          "length": 20,
          "start": 23645
        },
        {
          "length": 20,
          "start": 23840
        }
      ]
    }
  }
}