{
  "_format": "hh-sol-artifact-1",
  "contractName": "DataFormatting",
  "sourceName": "contracts/worksystems/DataFormatting.sol",
  "abi": [
    {
      "inputs": [
        {
          "internalType": "address",
          "name": "EXDT_token",
          "type": "address"
        }
      ],
      "stateMutability": "nonpayable",
      "type": "constructor"
    },
    {
      "anonymous": false,
      "inputs": [
        {
          "indexed": false,
          "internalType": "bytes",
          "name": "bytesFailure",
          "type": "bytes"
        }
      ],
      "name": "BytesFailure",
      "type": "event"
    },
    {
      "anonymous": false,
      "inputs": [
        {
          "indexed": true,
          "internalType": "address",
          "name": "previousOwner",
          "type": "address"
        },
        {
          "indexed": true,
          "internalType": "address",
          "name": "newOwner",
          "type": "address"
        }
      ],
      "name": "OwnershipTransferred",
      "type": "event"
    },
    {
      "anonymous": false,
      "inputs": [
        {
          "indexed": false,
          "internalType": "string",
          "name": "hash",
          "type": "string"
        },
        {
          "indexed": true,
          "internalType": "address",
          "name": "creator",
          "type": "address"
        }
      ],
      "name": "_FormatAccepted",
      "type": "event"
    },
    {
      "anonymous": false,
      "inputs": [
        {
          "indexed": true,
          "internalType": "uint256",
          "name": "DataID",
          "type": "uint256"
        },
        {
          "indexed": false,
          "internalType": "uint256",
          "name": "numTokens",
          "type": "uint256"
        },
        {
          "indexed": true,
          "internalType": "address",
          "name": "voter",
          "type": "address"
        }
      ],
      "name": "_FormatCheckCommitted",
      "type": "event"
    },
    {
      "anonymous": false,
      "inputs": [
        {
          "indexed": true,
          "internalType": "uint256",
          "name": "DataID",
          "type": "uint256"
        },
        {
          "indexed": false,
          "internalType": "uint256",
          "name": "numTokens",
          "type": "uint256"
        },
        {
          "indexed": false,
          "internalType": "uint256",
          "name": "votesFor",
          "type": "uint256"
        },
        {
          "indexed": false,
          "internalType": "uint256",
          "name": "votesAgainst",
          "type": "uint256"
        },
        {
          "indexed": true,
          "internalType": "uint256",
          "name": "choice",
          "type": "uint256"
        },
        {
          "indexed": true,
          "internalType": "address",
          "name": "voter",
          "type": "address"
        }
      ],
      "name": "_FormatCheckRevealed",
      "type": "event"
    },
    {
      "anonymous": false,
      "inputs": [
        {
          "indexed": true,
          "internalType": "uint256",
          "name": "DataID",
          "type": "uint256"
        },
        {
          "indexed": false,
          "internalType": "string",
          "name": "file_hash",
          "type": "string"
        },
        {
          "indexed": false,
          "internalType": "address",
          "name": "sender",
          "type": "address"
        }
      ],
      "name": "_FormatSubmitted",
      "type": "event"
    },
    {
      "anonymous": false,
      "inputs": [
        {
          "indexed": true,
          "internalType": "uint256",
          "name": "epochNumber",
          "type": "uint256"
        }
      ],
      "name": "_NewEpoch",
      "type": "event"
    },
    {
      "anonymous": false,
      "inputs": [
        {
          "indexed": true,
          "internalType": "uint256",
          "name": "DataID",
          "type": "uint256"
        },
        {
          "indexed": true,
          "internalType": "address",
          "name": "voter",
          "type": "address"
        }
      ],
      "name": "_TokensRescued",
      "type": "event"
    },
    {
      "anonymous": false,
      "inputs": [
        {
          "indexed": false,
          "internalType": "uint256",
          "name": "numTokens",
          "type": "uint256"
        },
        {
          "indexed": true,
          "internalType": "address",
          "name": "voter",
          "type": "address"
        }
      ],
      "name": "_VotingRightsGranted",
      "type": "event"
    },
    {
      "anonymous": false,
      "inputs": [
        {
          "indexed": false,
          "internalType": "uint256",
          "name": "numTokens",
          "type": "uint256"
        },
        {
          "indexed": true,
          "internalType": "address",
          "name": "voter",
          "type": "address"
        }
      ],
      "name": "_VotingRightsWithdrawn",
      "type": "event"
    },
    {
      "anonymous": false,
      "inputs": [
        {
          "indexed": true,
          "internalType": "uint256",
          "name": "batchID",
          "type": "uint256"
        },
        {
          "indexed": false,
          "internalType": "address",
          "name": "worker",
          "type": "address"
        }
      ],
      "name": "_WorkAllocated",
      "type": "event"
    },
    {
      "anonymous": false,
      "inputs": [
        {
          "indexed": true,
          "internalType": "address",
          "name": "worker",
          "type": "address"
        },
        {
          "indexed": false,
          "internalType": "uint256",
          "name": "timestamp",
          "type": "uint256"
        }
      ],
      "name": "_WorkerRegistered",
      "type": "event"
    },
    {
      "anonymous": false,
      "inputs": [
        {
          "indexed": true,
          "internalType": "address",
          "name": "worker",
          "type": "address"
        },
        {
          "indexed": false,
          "internalType": "uint256",
          "name": "timestamp",
          "type": "uint256"
        }
      ],
      "name": "_WorkerUnregistered",
      "type": "event"
    },
    {
      "inputs": [],
      "name": "AcceptedBatchsCounter",
      "outputs": [
        {
          "internalType": "uint256",
          "name": "",
          "type": "uint256"
        }
      ],
      "stateMutability": "view",
      "type": "function"
    },
    {
      "inputs": [],
      "name": "AddressManager",
      "outputs": [
        {
          "internalType": "contract IAddressManager",
          "name": "",
          "type": "address"
        }
      ],
      "stateMutability": "view",
      "type": "function"
    },
    {
      "inputs": [],
      "name": "AllTxsCounter",
      "outputs": [
        {
          "internalType": "uint256",
          "name": "",
          "type": "uint256"
        }
      ],
      "stateMutability": "view",
      "type": "function"
    },
    {
      "inputs": [],
      "name": "AllocateWork",
      "outputs": [],
      "stateMutability": "nonpayable",
      "type": "function"
    },
    {
      "inputs": [],
      "name": "AllocatedBatchCursor",
      "outputs": [
        {
          "internalType": "uint256",
          "name": "",
          "type": "uint256"
        }
      ],
      "stateMutability": "view",
      "type": "function"
    },
    {
      "inputs": [],
      "name": "AmIRegistered",
      "outputs": [
        {
          "internalType": "bool",
          "name": "passed",
          "type": "bool"
        }
      ],
      "stateMutability": "view",
      "type": "function"
    },
    {
      "inputs": [],
      "name": "ArchiveSystem",
      "outputs": [
        {
          "internalType": "contract IArchiveSystem",
          "name": "",
          "type": "address"
        }
      ],
      "stateMutability": "view",
      "type": "function"
    },
    {
      "inputs": [
        {
          "internalType": "string",
          "name": "_a",
          "type": "string"
        },
        {
          "internalType": "string",
          "name": "_b",
          "type": "string"
        }
      ],
      "name": "AreStringsEqual",
      "outputs": [
        {
          "internalType": "bool",
          "name": "",
          "type": "bool"
        }
      ],
      "stateMutability": "pure",
      "type": "function"
    },
    {
      "inputs": [],
      "name": "BatchCheckingCursor",
      "outputs": [
        {
          "internalType": "uint256",
          "name": "",
          "type": "uint256"
        }
      ],
      "stateMutability": "view",
      "type": "function"
    },
    {
      "inputs": [],
      "name": "COMMIT_ROUND_DURATION",
      "outputs": [
        {
          "internalType": "uint256",
          "name": "",
          "type": "uint256"
        }
      ],
      "stateMutability": "view",
      "type": "function"
    },
    {
      "inputs": [],
      "name": "CONSENSUS_WORKER_SIZE",
      "outputs": [
        {
          "internalType": "uint256",
          "name": "",
          "type": "uint256"
        }
      ],
      "stateMutability": "view",
      "type": "function"
    },
    {
      "inputs": [
        {
          "internalType": "uint256",
          "name": "",
          "type": "uint256"
        }
      ],
      "name": "CollectedSpotBatchs",
      "outputs": [
        {
          "internalType": "bool",
          "name": "",
          "type": "bool"
        }
      ],
      "stateMutability": "view",
      "type": "function"
    },
    {
      "inputs": [],
      "name": "CurrentWorkEpoch",
      "outputs": [
        {
          "internalType": "uint256",
          "name": "",
          "type": "uint256"
        }
      ],
      "stateMutability": "view",
      "type": "function"
    },
    {
      "inputs": [],
      "name": "DATA_BATCH_SIZE",
      "outputs": [
        {
          "internalType": "uint256",
          "name": "",
          "type": "uint256"
        }
      ],
      "stateMutability": "view",
      "type": "function"
    },
    {
      "inputs": [
        {
          "internalType": "uint256",
          "name": "",
          "type": "uint256"
        }
      ],
      "name": "DataBatch",
      "outputs": [
        {
          "internalType": "uint256",
          "name": "start_idx",
          "type": "uint256"
        },
        {
          "internalType": "uint256",
          "name": "counter",
          "type": "uint256"
        },
        {
          "internalType": "uint256",
          "name": "unrevealed_workers",
          "type": "uint256"
        },
        {
          "internalType": "uint256",
          "name": "uncommited_workers",
          "type": "uint256"
        },
        {
          "internalType": "uint256",
          "name": "item_count",
          "type": "uint256"
        },
        {
          "internalType": "bool",
          "name": "complete",
          "type": "bool"
        },
        {
          "internalType": "bool",
          "name": "checked",
          "type": "bool"
        },
        {
          "internalType": "bool",
          "name": "allocated_to_work",
          "type": "bool"
        },
        {
          "internalType": "uint256",
          "name": "commitEndDate",
          "type": "uint256"
        },
        {
          "internalType": "uint256",
          "name": "revealEndDate",
          "type": "uint256"
        },
        {
          "internalType": "uint256",
          "name": "votesFor",
          "type": "uint256"
        },
        {
          "internalType": "uint256",
          "name": "votesAgainst",
          "type": "uint256"
        },
        {
          "internalType": "string",
          "name": "batchIPFSfile",
          "type": "string"
        },
        {
          "internalType": "enum DataFormatting.DataStatus",
          "name": "status",
          "type": "uint8"
        }
      ],
      "stateMutability": "view",
      "type": "function"
    },
    {
      "inputs": [
        {
          "internalType": "uint256",
          "name": "_DataBatchId",
          "type": "uint256"
        }
      ],
      "name": "DataCommitEndDate",
      "outputs": [
        {
          "internalType": "uint256",
          "name": "commitEndDate",
          "type": "uint256"
        }
      ],
      "stateMutability": "view",
      "type": "function"
    },
    {
      "inputs": [
        {
          "internalType": "uint256",
          "name": "_DataBatchId",
          "type": "uint256"
        }
      ],
      "name": "DataEnded",
      "outputs": [
        {
          "internalType": "bool",
          "name": "ended",
          "type": "bool"
        }
      ],
      "stateMutability": "view",
      "type": "function"
    },
    {
      "inputs": [
        {
          "internalType": "uint256",
          "name": "_DataBatchId",
          "type": "uint256"
        }
      ],
      "name": "DataExists",
      "outputs": [
        {
          "internalType": "bool",
          "name": "exists",
          "type": "bool"
        }
      ],
      "stateMutability": "view",
      "type": "function"
    },
    {
      "inputs": [],
      "name": "DataNonce",
      "outputs": [
        {
          "internalType": "uint256",
          "name": "",
          "type": "uint256"
        }
      ],
      "stateMutability": "view",
      "type": "function"
    },
    {
      "inputs": [
        {
          "internalType": "uint256",
          "name": "_DataBatchId",
          "type": "uint256"
        }
      ],
      "name": "DataRevealEndDate",
      "outputs": [
        {
          "internalType": "uint256",
          "name": "revealEndDate",
          "type": "uint256"
        }
      ],
      "stateMutability": "view",
      "type": "function"
    },
    {
      "inputs": [
        {
          "internalType": "address",
          "name": "",
          "type": "address"
        }
      ],
      "name": "FormatStakedTokenBalance",
      "outputs": [
        {
          "internalType": "uint256",
          "name": "",
          "type": "uint256"
        }
      ],
      "stateMutability": "view",
      "type": "function"
    },
    {
      "inputs": [
        {
          "internalType": "uint256",
          "name": "",
          "type": "uint256"
        }
      ],
      "name": "FormatsMapping",
      "outputs": [
        {
          "internalType": "string",
          "name": "ipfs_hash",
          "type": "string"
        },
        {
          "internalType": "address",
          "name": "author",
          "type": "address"
        },
        {
          "internalType": "uint256",
          "name": "timestamp",
          "type": "uint256"
        },
        {
          "internalType": "enum DataFormatting.DataStatus",
          "name": "status",
          "type": "uint8"
        }
      ],
      "stateMutability": "view",
      "type": "function"
    },
    {
      "inputs": [
        {
          "internalType": "address",
          "name": "user_",
          "type": "address"
        }
      ],
      "name": "GetCurrentWork",
      "outputs": [
        {
          "internalType": "uint256",
          "name": "",
          "type": "uint256"
        }
      ],
      "stateMutability": "view",
      "type": "function"
    },
    {
      "inputs": [
        {
          "internalType": "address",
          "name": "user_",
          "type": "address"
        }
      ],
      "name": "IsNewWorkAvailable",
      "outputs": [
        {
          "internalType": "bool",
          "name": "",
          "type": "bool"
        }
      ],
      "stateMutability": "view",
      "type": "function"
    },
    {
      "inputs": [],
      "name": "LastBatchCounter",
      "outputs": [
        {
          "internalType": "uint256",
          "name": "",
          "type": "uint256"
        }
      ],
      "stateMutability": "view",
      "type": "function"
    },
    {
      "inputs": [],
      "name": "MIN_CONSENSUS_WORKER_COUNT",
      "outputs": [
        {
          "internalType": "uint256",
          "name": "",
          "type": "uint256"
        }
      ],
      "stateMutability": "view",
      "type": "function"
    },
    {
      "inputs": [],
      "name": "MIN_REP_Data",
      "outputs": [
        {
          "internalType": "uint256",
          "name": "",
          "type": "uint256"
        }
      ],
      "stateMutability": "view",
      "type": "function"
    },
    {
      "inputs": [],
      "name": "MIN_REP_REVEAL",
      "outputs": [
        {
          "internalType": "uint256",
          "name": "",
          "type": "uint256"
        }
      ],
      "stateMutability": "view",
      "type": "function"
    },
    {
      "inputs": [],
      "name": "MIN_REWARD_Data",
      "outputs": [
        {
          "internalType": "uint256",
          "name": "",
          "type": "uint256"
        }
      ],
      "stateMutability": "view",
      "type": "function"
    },
    {
      "inputs": [],
      "name": "MIN_STAKE",
      "outputs": [
        {
          "internalType": "uint256",
          "name": "",
          "type": "uint256"
        }
      ],
      "stateMutability": "view",
      "type": "function"
    },
    {
      "inputs": [
        {
          "internalType": "address",
          "name": "",
          "type": "address"
        },
        {
          "internalType": "uint256",
          "name": "",
          "type": "uint256"
        }
      ],
      "name": "MasterWorkers",
      "outputs": [
        {
          "internalType": "address",
          "name": "",
          "type": "address"
        }
      ],
      "stateMutability": "view",
      "type": "function"
    },
    {
      "inputs": [],
      "name": "NotCommitedCounter",
      "outputs": [
        {
          "internalType": "uint256",
          "name": "",
          "type": "uint256"
        }
      ],
      "stateMutability": "view",
      "type": "function"
    },
    {
      "inputs": [],
      "name": "NotRevealedCounter",
      "outputs": [
        {
          "internalType": "uint256",
          "name": "",
          "type": "uint256"
        }
      ],
      "stateMutability": "view",
      "type": "function"
    },
    {
      "inputs": [
        {
          "internalType": "uint256",
          "name": "CheckedBatchId",
          "type": "uint256"
        }
      ],
      "name": "Ping",
      "outputs": [],
      "stateMutability": "nonpayable",
      "type": "function"
    },
    {
      "inputs": [],
      "name": "REVEAL_ROUND_DURATION",
      "outputs": [
        {
          "internalType": "uint256",
          "name": "",
          "type": "uint256"
        }
      ],
      "stateMutability": "view",
      "type": "function"
    },
    {
      "inputs": [],
      "name": "RegisterWorker",
      "outputs": [],
      "stateMutability": "nonpayable",
      "type": "function"
    },
    {
      "inputs": [],
      "name": "RejectedBatchsCounter",
      "outputs": [
        {
          "internalType": "uint256",
          "name": "",
          "type": "uint256"
        }
      ],
      "stateMutability": "view",
      "type": "function"
    },
    {
      "inputs": [],
      "name": "RepManager",
      "outputs": [
        {
          "internalType": "contract IRepManager",
          "name": "",
          "type": "address"
        }
      ],
      "stateMutability": "view",
      "type": "function"
    },
    {
      "inputs": [],
      "name": "RewardManager",
      "outputs": [
        {
          "internalType": "contract IRewardManager",
          "name": "",
          "type": "address"
        }
      ],
      "stateMutability": "view",
      "type": "function"
    },
    {
      "inputs": [],
      "name": "SpottingSystem",
      "outputs": [
        {
          "internalType": "contract ISpottingSystem",
          "name": "",
          "type": "address"
        }
      ],
      "stateMutability": "view",
      "type": "function"
    },
    {
      "inputs": [],
      "name": "StakeManager",
      "outputs": [
        {
          "internalType": "contract IStakeManager",
          "name": "",
          "type": "address"
        }
      ],
      "stateMutability": "view",
      "type": "function"
    },
    {
      "inputs": [],
      "name": "TriggerNextEpoch",
      "outputs": [],
      "stateMutability": "nonpayable",
      "type": "function"
    },
    {
      "inputs": [],
      "name": "UnregisterWorker",
      "outputs": [],
      "stateMutability": "nonpayable",
      "type": "function"
    },
    {
      "inputs": [
        {
          "internalType": "uint256",
          "name": "",
          "type": "uint256"
        },
        {
          "internalType": "address",
          "name": "",
          "type": "address"
        }
      ],
      "name": "UserBatchCounts",
      "outputs": [
        {
          "internalType": "uint256",
          "name": "",
          "type": "uint256"
        }
      ],
      "stateMutability": "view",
      "type": "function"
    },
    {
      "inputs": [
        {
          "internalType": "address",
          "name": "",
          "type": "address"
        },
        {
          "internalType": "uint256",
          "name": "",
          "type": "uint256"
        }
      ],
      "name": "UserChecksCommits",
      "outputs": [
        {
          "internalType": "bool",
          "name": "",
          "type": "bool"
        }
      ],
      "stateMutability": "view",
      "type": "function"
    },
    {
      "inputs": [
        {
          "internalType": "address",
          "name": "",
          "type": "address"
        },
        {
          "internalType": "uint256",
          "name": "",
          "type": "uint256"
        }
      ],
      "name": "UserChecksReveals",
      "outputs": [
        {
          "internalType": "bool",
          "name": "",
          "type": "bool"
        }
      ],
      "stateMutability": "view",
      "type": "function"
    },
    {
      "inputs": [
        {
          "internalType": "uint256",
          "name": "",
          "type": "uint256"
        },
        {
          "internalType": "address",
          "name": "",
          "type": "address"
        }
      ],
      "name": "UserNewFiles",
      "outputs": [
        {
          "internalType": "string",
          "name": "",
          "type": "string"
        }
      ],
      "stateMutability": "view",
      "type": "function"
    },
    {
      "inputs": [
        {
          "internalType": "uint256",
          "name": "",
          "type": "uint256"
        },
        {
          "internalType": "address",
          "name": "",
          "type": "address"
        }
      ],
      "name": "UserVotes",
      "outputs": [
        {
          "internalType": "uint256",
          "name": "",
          "type": "uint256"
        }
      ],
      "stateMutability": "view",
      "type": "function"
    },
    {
      "inputs": [],
      "name": "VOTE_QUORUM",
      "outputs": [
        {
          "internalType": "uint256",
          "name": "",
          "type": "uint256"
        }
      ],
      "stateMutability": "view",
      "type": "function"
    },
    {
      "inputs": [
        {
          "internalType": "uint256",
          "name": "_DataBatchId",
          "type": "uint256"
        }
      ],
      "name": "ValidateDataBatch",
      "outputs": [],
      "stateMutability": "nonpayable",
      "type": "function"
    },
    {
      "inputs": [
        {
          "internalType": "uint256",
          "name": "",
          "type": "uint256"
        },
        {
          "internalType": "uint256",
          "name": "",
          "type": "uint256"
        }
      ],
      "name": "WorkersPerBatch",
      "outputs": [
        {
          "internalType": "address",
          "name": "",
          "type": "address"
        }
      ],
      "stateMutability": "view",
      "type": "function"
    },
    {
      "inputs": [
        {
          "internalType": "address",
          "name": "",
          "type": "address"
        }
      ],
      "name": "WorkersState",
      "outputs": [
        {
          "internalType": "address",
          "name": "worker_address",
          "type": "address"
        },
        {
          "internalType": "address",
          "name": "master_address",
          "type": "address"
        },
        {
          "internalType": "uint256",
          "name": "allocated_work_batch",
          "type": "uint256"
        },
        {
          "internalType": "bool",
          "name": "has_completed_work",
          "type": "bool"
        },
        {
          "internalType": "uint256",
          "name": "last_worked_round",
          "type": "uint256"
        },
        {
          "internalType": "uint256",
          "name": "last_interaction_date",
          "type": "uint256"
        },
        {
          "internalType": "string",
          "name": "extra",
          "type": "string"
        },
        {
          "internalType": "bool",
          "name": "registered",
          "type": "bool"
        },
        {
          "internalType": "bool",
          "name": "unregistration_request",
          "type": "bool"
        },
        {
          "internalType": "uint256",
          "name": "registration_date",
          "type": "uint256"
        }
      ],
      "stateMutability": "view",
      "type": "function"
    },
    {
      "inputs": [
        {
          "internalType": "address",
          "name": "_user",
          "type": "address"
        },
        {
          "internalType": "uint256",
          "name": "_DataBatchId",
          "type": "uint256"
        }
      ],
      "name": "attrUUID",
      "outputs": [
        {
          "internalType": "bytes32",
          "name": "UUID",
          "type": "bytes32"
        }
      ],
      "stateMutability": "pure",
      "type": "function"
    },
    {
      "inputs": [
        {
          "internalType": "uint256",
          "name": "",
          "type": "uint256"
        }
      ],
      "name": "availableWorkers",
      "outputs": [
        {
          "internalType": "address",
          "name": "",
          "type": "address"
        }
      ],
      "stateMutability": "view",
      "type": "function"
    },
    {
      "inputs": [
        {
          "internalType": "uint256",
          "name": "",
          "type": "uint256"
        }
      ],
      "name": "busyWorkers",
      "outputs": [
        {
          "internalType": "address",
          "name": "",
          "type": "address"
        }
      ],
      "stateMutability": "view",
      "type": "function"
    },
    {
      "inputs": [
        {
          "internalType": "uint256",
          "name": "_DataBatchId",
          "type": "uint256"
        },
        {
          "internalType": "bytes32",
          "name": "_secretIPFSHash",
          "type": "bytes32"
        },
        {
          "internalType": "uint256",
          "name": "_BatchCount",
          "type": "uint256"
        }
      ],
      "name": "commitFormatCheck",
      "outputs": [],
      "stateMutability": "nonpayable",
      "type": "function"
    },
    {
      "inputs": [
        {
          "internalType": "uint256",
          "name": "_DataBatchId",
          "type": "uint256"
        }
      ],
      "name": "commitPeriodActive",
      "outputs": [
        {
          "internalType": "bool",
          "name": "active",
          "type": "bool"
        }
      ],
      "stateMutability": "view",
      "type": "function"
    },
    {
      "inputs": [
        {
          "internalType": "uint256",
          "name": "_DataId",
          "type": "uint256"
        }
      ],
      "name": "deleteData",
      "outputs": [],
      "stateMutability": "nonpayable",
      "type": "function"
    },
    {
      "inputs": [
        {
          "internalType": "uint256",
          "name": "_BatchId",
          "type": "uint256"
        }
      ],
      "name": "deleteDataBatch",
      "outputs": [],
      "stateMutability": "nonpayable",
      "type": "function"
    },
    {
      "inputs": [
        {
          "internalType": "uint256",
          "name": "_BatchId",
          "type": "uint256"
        }
      ],
      "name": "deleteMapping",
      "outputs": [],
      "stateMutability": "nonpayable",
      "type": "function"
    },
    {
      "inputs": [
        {
          "internalType": "address",
          "name": "_voter",
          "type": "address"
        },
        {
          "internalType": "uint256",
          "name": "_DataBatchId",
          "type": "uint256"
        }
      ],
      "name": "didCommit",
      "outputs": [
        {
          "internalType": "bool",
          "name": "committed",
          "type": "bool"
        }
      ],
      "stateMutability": "view",
      "type": "function"
    },
    {
      "inputs": [
        {
          "internalType": "address",
          "name": "_voter",
          "type": "address"
        },
        {
          "internalType": "uint256",
          "name": "_DataBatchId",
          "type": "uint256"
        }
      ],
      "name": "didReveal",
      "outputs": [
        {
          "internalType": "bool",
          "name": "revealed",
          "type": "bool"
        }
      ],
      "stateMutability": "view",
      "type": "function"
    },
    {
      "inputs": [
        {
          "internalType": "uint256",
          "name": "_k",
          "type": "uint256"
        },
        {
          "internalType": "uint256",
          "name": "N_range",
          "type": "uint256"
        }
      ],
      "name": "generateIntegers",
      "outputs": [
        {
          "internalType": "uint256[]",
          "name": "",
          "type": "uint256[]"
        }
      ],
      "stateMutability": "view",
      "type": "function"
    },
    {
      "inputs": [],
      "name": "getAcceptedBatchesCount",
      "outputs": [
        {
          "internalType": "uint256",
          "name": "count",
          "type": "uint256"
        }
      ],
      "stateMutability": "view",
      "type": "function"
    },
    {
      "inputs": [],
      "name": "getActiveWorkersCount",
      "outputs": [
        {
          "internalType": "uint256",
          "name": "numWorkers",
          "type": "uint256"
        }
      ],
      "stateMutability": "view",
      "type": "function"
    },
    {
      "inputs": [
        {
          "internalType": "uint256",
          "name": "_DataBatchId",
          "type": "uint256"
        }
      ],
      "name": "getBatchByID",
      "outputs": [
        {
          "components": [
            {
              "internalType": "uint256",
              "name": "start_idx",
              "type": "uint256"
            },
            {
              "internalType": "uint256",
              "name": "counter",
              "type": "uint256"
            },
            {
              "internalType": "uint256",
              "name": "unrevealed_workers",
              "type": "uint256"
            },
            {
              "internalType": "uint256",
              "name": "uncommited_workers",
              "type": "uint256"
            },
            {
              "internalType": "uint256",
              "name": "item_count",
              "type": "uint256"
            },
            {
              "internalType": "bool",
              "name": "complete",
              "type": "bool"
            },
            {
              "internalType": "bool",
              "name": "checked",
              "type": "bool"
            },
            {
              "internalType": "bool",
              "name": "allocated_to_work",
              "type": "bool"
            },
            {
              "internalType": "uint256",
              "name": "commitEndDate",
              "type": "uint256"
            },
            {
              "internalType": "uint256",
              "name": "revealEndDate",
              "type": "uint256"
            },
            {
              "internalType": "uint256",
              "name": "votesFor",
              "type": "uint256"
            },
            {
              "internalType": "uint256",
              "name": "votesAgainst",
              "type": "uint256"
            },
            {
              "internalType": "string",
              "name": "batchIPFSfile",
              "type": "string"
            },
            {
              "internalType": "enum DataFormatting.DataStatus",
              "name": "status",
              "type": "uint8"
            }
          ],
          "internalType": "struct DataFormatting.BatchMetadata",
          "name": "batch",
          "type": "tuple"
        }
      ],
      "stateMutability": "view",
      "type": "function"
    },
    {
      "inputs": [
        {
          "internalType": "uint256",
          "name": "_DataBatchId",
          "type": "uint256"
        }
      ],
      "name": "getBatchIPFSFileByID",
      "outputs": [
        {
          "internalType": "string",
          "name": "batch",
          "type": "string"
        }
      ],
      "stateMutability": "view",
      "type": "function"
    },
    {
      "inputs": [
        {
          "internalType": "address",
          "name": "_voter",
          "type": "address"
        },
        {
          "internalType": "uint256",
          "name": "_DataBatchId",
          "type": "uint256"
        }
      ],
      "name": "getCommitHash",
      "outputs": [
        {
          "internalType": "bytes32",
          "name": "commitHash",
          "type": "bytes32"
        }
      ],
      "stateMutability": "view",
      "type": "function"
    },
    {
      "inputs": [],
      "name": "getCurrentWorkEpoch",
      "outputs": [
        {
          "internalType": "uint256",
          "name": "WorkEpoch",
          "type": "uint256"
        }
      ],
      "stateMutability": "view",
      "type": "function"
    },
    {
      "inputs": [
        {
          "internalType": "uint256",
          "name": "_DataId",
          "type": "uint256"
        }
      ],
      "name": "getDataByID",
      "outputs": [
        {
          "components": [
            {
              "internalType": "string",
              "name": "ipfs_hash",
              "type": "string"
            },
            {
              "internalType": "address",
              "name": "author",
              "type": "address"
            },
            {
              "internalType": "uint256",
              "name": "timestamp",
              "type": "uint256"
            },
            {
              "internalType": "enum DataFormatting.DataStatus",
              "name": "status",
              "type": "uint8"
            }
          ],
          "internalType": "struct DataFormatting.FormattedData",
          "name": "data",
          "type": "tuple"
        }
      ],
      "stateMutability": "view",
      "type": "function"
    },
    {
      "inputs": [
        {
          "internalType": "string",
          "name": "_hash",
          "type": "string"
        },
        {
          "internalType": "uint256",
          "name": "_salt",
          "type": "uint256"
        }
      ],
      "name": "getEncryptedStringHash",
      "outputs": [
        {
          "internalType": "bytes32",
          "name": "keccak256hash",
          "type": "bytes32"
        }
      ],
      "stateMutability": "pure",
      "type": "function"
    },
    {
      "inputs": [
        {
          "internalType": "uint256",
          "name": "_DataBatchId",
          "type": "uint256"
        }
      ],
      "name": "getIPFShashesForBatch",
      "outputs": [
        {
          "internalType": "string[]",
          "name": "",
          "type": "string[]"
        }
      ],
      "stateMutability": "view",
      "type": "function"
    },
    {
      "inputs": [],
      "name": "getLastAllocatedBatchId",
      "outputs": [
        {
          "internalType": "uint256",
          "name": "LastAllocatedBatchId",
          "type": "uint256"
        }
      ],
      "stateMutability": "view",
      "type": "function"
    },
    {
      "inputs": [],
      "name": "getLastBatchId",
      "outputs": [
        {
          "internalType": "uint256",
          "name": "LastBatchId",
          "type": "uint256"
        }
      ],
      "stateMutability": "view",
      "type": "function"
    },
    {
      "inputs": [],
      "name": "getLastCheckedBatchId",
      "outputs": [
        {
          "internalType": "uint256",
          "name": "LastCheckedBatchId",
          "type": "uint256"
        }
      ],
      "stateMutability": "view",
      "type": "function"
    },
    {
      "inputs": [],
      "name": "getLastDataId",
      "outputs": [
        {
          "internalType": "uint256",
          "name": "DataId",
          "type": "uint256"
        }
      ],
      "stateMutability": "view",
      "type": "function"
    },
    {
      "inputs": [
        {
          "internalType": "address",
          "name": "_voter",
          "type": "address"
        }
      ],
      "name": "getLastNode",
      "outputs": [
        {
          "internalType": "uint256",
          "name": "DataID",
          "type": "uint256"
        }
      ],
      "stateMutability": "view",
      "type": "function"
    },
    {
      "inputs": [
        {
          "internalType": "address",
          "name": "_voter",
          "type": "address"
        }
      ],
      "name": "getLockedTokens",
      "outputs": [
        {
          "internalType": "uint256",
          "name": "numTokens",
          "type": "uint256"
        }
      ],
      "stateMutability": "view",
      "type": "function"
    },
    {
      "inputs": [],
      "name": "getMySystemTokenBalance",
      "outputs": [
        {
          "internalType": "uint256",
          "name": "tokens",
          "type": "uint256"
        }
      ],
      "stateMutability": "view",
      "type": "function"
    },
    {
      "inputs": [
        {
          "internalType": "address",
          "name": "_voter",
          "type": "address"
        },
        {
          "internalType": "uint256",
          "name": "_DataBatchId",
          "type": "uint256"
        },
        {
          "internalType": "uint256",
          "name": "_salt",
          "type": "uint256"
        }
      ],
      "name": "getNumPassingTokens",
      "outputs": [
        {
          "internalType": "uint256",
          "name": "correctFormatChecks",
          "type": "uint256"
        }
      ],
      "stateMutability": "view",
      "type": "function"
    },
    {
      "inputs": [
        {
          "internalType": "address",
          "name": "_voter",
          "type": "address"
        },
        {
          "internalType": "uint256",
          "name": "_DataBatchId",
          "type": "uint256"
        }
      ],
      "name": "getNumTokens",
      "outputs": [
        {
          "internalType": "uint256",
          "name": "numTokens",
          "type": "uint256"
        }
      ],
      "stateMutability": "view",
      "type": "function"
    },
    {
      "inputs": [],
      "name": "getRandom",
      "outputs": [
        {
          "internalType": "uint256",
          "name": "",
          "type": "uint256"
        }
      ],
      "stateMutability": "view",
      "type": "function"
    },
    {
      "inputs": [],
      "name": "getRejectedBatchesCount",
      "outputs": [
        {
          "internalType": "uint256",
          "name": "count",
          "type": "uint256"
        }
      ],
      "stateMutability": "view",
      "type": "function"
    },
    {
      "inputs": [],
      "name": "getSeed",
      "outputs": [
        {
          "internalType": "bytes32",
          "name": "addr",
          "type": "bytes32"
        }
      ],
      "stateMutability": "view",
      "type": "function"
    },
    {
      "inputs": [
        {
          "internalType": "address",
          "name": "_user",
          "type": "address"
        }
      ],
      "name": "getSystemTokenBalance",
      "outputs": [
        {
          "internalType": "uint256",
          "name": "tokens",
          "type": "uint256"
        }
      ],
      "stateMutability": "view",
      "type": "function"
    },
    {
      "inputs": [
        {
          "internalType": "uint256",
          "name": "_DataBatchId",
          "type": "uint256"
        }
      ],
      "name": "getTotalNumberOfFormatChecks",
      "outputs": [
        {
          "internalType": "uint256",
          "name": "vc",
          "type": "uint256"
        }
      ],
      "stateMutability": "view",
      "type": "function"
    },
    {
      "inputs": [],
      "name": "getTxCounter",
      "outputs": [
        {
          "internalType": "uint256",
          "name": "Counter",
          "type": "uint256"
        }
      ],
      "stateMutability": "view",
      "type": "function"
    },
    {
      "inputs": [
        {
          "internalType": "uint256",
          "name": "_terminationDate",
          "type": "uint256"
        }
      ],
      "name": "isExpired",
      "outputs": [
        {
          "internalType": "bool",
          "name": "expired",
          "type": "bool"
        }
      ],
      "stateMutability": "view",
      "type": "function"
    },
    {
      "inputs": [
        {
          "internalType": "uint256",
          "name": "_DataBatchId",
          "type": "uint256"
        }
      ],
      "name": "isPassed",
      "outputs": [
        {
          "internalType": "bool",
          "name": "passed",
          "type": "bool"
        }
      ],
      "stateMutability": "view",
      "type": "function"
    },
    {
      "inputs": [
        {
          "internalType": "uint256",
          "name": "_DataBatchId",
          "type": "uint256"
        },
        {
          "internalType": "address",
          "name": "_worker",
          "type": "address"
        }
      ],
      "name": "isWorkerAllocatedToBatch",
      "outputs": [
        {
          "internalType": "bool",
          "name": "",
          "type": "bool"
        }
      ],
      "stateMutability": "view",
      "type": "function"
    },
    {
      "inputs": [
        {
          "internalType": "address",
          "name": "_worker",
          "type": "address"
        }
      ],
      "name": "isWorkerRegistered",
      "outputs": [
        {
          "internalType": "bool",
          "name": "passed",
          "type": "bool"
        }
      ],
      "stateMutability": "view",
      "type": "function"
    },
    {
      "inputs": [],
      "name": "owner",
      "outputs": [
        {
          "internalType": "address",
          "name": "",
          "type": "address"
        }
      ],
      "stateMutability": "view",
      "type": "function"
    },
    {
      "inputs": [
        {
          "internalType": "uint256",
          "name": "k",
          "type": "uint256"
        },
        {
          "internalType": "uint256",
          "name": "N",
          "type": "uint256"
        }
      ],
      "name": "random_selection",
      "outputs": [
        {
          "internalType": "uint256[]",
          "name": "",
          "type": "uint256[]"
        }
      ],
      "stateMutability": "view",
      "type": "function"
    },
    {
      "inputs": [],
      "name": "renounceOwnership",
      "outputs": [],
      "stateMutability": "nonpayable",
      "type": "function"
    },
    {
      "inputs": [
        {
          "internalType": "uint256",
          "name": "_numTokens",
          "type": "uint256"
        }
      ],
      "name": "requestVotingRights",
      "outputs": [],
      "stateMutability": "nonpayable",
      "type": "function"
    },
    {
      "inputs": [
        {
          "internalType": "uint256",
          "name": "_DataBatchId",
          "type": "uint256"
        }
      ],
      "name": "rescueTokens",
      "outputs": [],
      "stateMutability": "nonpayable",
      "type": "function"
    },
    {
      "inputs": [
        {
          "internalType": "uint256[]",
          "name": "_DataBatchIDs",
          "type": "uint256[]"
        }
      ],
      "name": "rescueTokensInMultipleDatas",
      "outputs": [],
      "stateMutability": "nonpayable",
      "type": "function"
    },
    {
      "inputs": [
        {
          "internalType": "uint256",
          "name": "_DataBatchId",
          "type": "uint256"
        },
        {
          "internalType": "uint256",
          "name": "_voteOption",
          "type": "uint256"
        },
        {
          "internalType": "string",
          "name": "_clearIPFSHash",
          "type": "string"
        },
        {
          "internalType": "uint256",
          "name": "_salt",
          "type": "uint256"
        }
      ],
      "name": "revealFormatCheck",
      "outputs": [],
      "stateMutability": "nonpayable",
      "type": "function"
    },
    {
      "inputs": [
        {
          "internalType": "uint256",
          "name": "_DataBatchId",
          "type": "uint256"
        }
      ],
      "name": "revealPeriodActive",
      "outputs": [
        {
          "internalType": "bool",
          "name": "active",
          "type": "bool"
        }
      ],
      "stateMutability": "view",
      "type": "function"
    },
    {
      "inputs": [],
      "name": "sFuel",
      "outputs": [
        {
          "internalType": "address",
          "name": "",
          "type": "address"
        }
      ],
      "stateMutability": "view",
      "type": "function"
    },
    {
      "inputs": [
        {
          "internalType": "uint256",
          "name": "N",
          "type": "uint256"
        }
      ],
      "name": "shuffle_array",
      "outputs": [
        {
          "internalType": "uint256[]",
          "name": "",
          "type": "uint256[]"
        }
      ],
      "stateMutability": "view",
      "type": "function"
    },
    {
      "inputs": [
        {
          "internalType": "uint256",
          "name": "",
          "type": "uint256"
        }
      ],
      "name": "toUnregisterWorkers",
      "outputs": [
        {
          "internalType": "address",
          "name": "",
          "type": "address"
        }
      ],
      "stateMutability": "view",
      "type": "function"
    },
    {
      "inputs": [],
      "name": "token",
      "outputs": [
        {
          "internalType": "contract IERC20",
          "name": "",
          "type": "address"
        }
      ],
      "stateMutability": "view",
      "type": "function"
    },
    {
      "inputs": [
        {
          "internalType": "address",
          "name": "newOwner",
          "type": "address"
        }
      ],
      "name": "transferOwnership",
      "outputs": [],
      "stateMutability": "nonpayable",
      "type": "function"
    },
    {
      "inputs": [
        {
          "internalType": "address",
          "name": "addr",
          "type": "address"
        }
      ],
      "name": "updateAddressManager",
      "outputs": [],
      "stateMutability": "nonpayable",
      "type": "function"
    },
    {
      "inputs": [
        {
          "internalType": "address",
          "name": "addr",
          "type": "address"
        }
      ],
      "name": "updateArchiveManager",
      "outputs": [],
      "stateMutability": "nonpayable",
      "type": "function"
    },
    {
      "inputs": [
        {
          "internalType": "uint256",
          "name": "COMMIT_ROUND_DURATION_",
          "type": "uint256"
        }
      ],
      "name": "updateCommitRoundDuration",
      "outputs": [],
      "stateMutability": "nonpayable",
      "type": "function"
    },
    {
      "inputs": [
        {
          "internalType": "uint256",
          "name": "size",
          "type": "uint256"
        }
      ],
      "name": "updateDataBachSize",
      "outputs": [],
      "stateMutability": "nonpayable",
      "type": "function"
    },
    {
      "inputs": [
        {
          "internalType": "uint256",
          "name": "CONSENSUS_WORKER_SIZE_",
          "type": "uint256"
        }
      ],
      "name": "updateMaxConsensusSize",
      "outputs": [],
      "stateMutability": "nonpayable",
      "type": "function"
    },
    {
      "inputs": [
        {
          "internalType": "uint256",
          "name": "CONSENSUS_WORKER_SIZE_",
          "type": "uint256"
        }
      ],
      "name": "updateMinConsensusSize",
      "outputs": [],
      "stateMutability": "nonpayable",
      "type": "function"
    },
    {
      "inputs": [
        {
          "internalType": "address",
          "name": "addr",
          "type": "address"
        }
      ],
      "name": "updateRepManager",
      "outputs": [],
      "stateMutability": "nonpayable",
      "type": "function"
    },
    {
      "inputs": [
        {
          "internalType": "uint256",
          "name": "REVEAL_ROUND_DURATION_",
          "type": "uint256"
        }
      ],
      "name": "updateRevealRoundDuration",
      "outputs": [],
      "stateMutability": "nonpayable",
      "type": "function"
    },
    {
      "inputs": [
        {
          "internalType": "address",
          "name": "addr",
          "type": "address"
        }
      ],
      "name": "updateRewardManager",
      "outputs": [],
      "stateMutability": "nonpayable",
      "type": "function"
    },
    {
      "inputs": [
        {
          "internalType": "address",
          "name": "addr",
          "type": "address"
        }
      ],
      "name": "updateSpotManager",
      "outputs": [],
      "stateMutability": "nonpayable",
      "type": "function"
    },
    {
      "inputs": [
        {
          "internalType": "address",
          "name": "addr",
          "type": "address"
        }
      ],
      "name": "updateStakeManager",
      "outputs": [],
      "stateMutability": "nonpayable",
      "type": "function"
    },
    {
      "inputs": [
        {
          "internalType": "address",
          "name": "_sFuel",
          "type": "address"
        }
      ],
      "name": "updatesFuelFaucet",
      "outputs": [],
      "stateMutability": "nonpayable",
      "type": "function"
    },
    {
      "inputs": [
        {
          "internalType": "uint256",
          "name": "_prevID",
          "type": "uint256"
        },
        {
          "internalType": "uint256",
          "name": "_nextID",
          "type": "uint256"
        },
        {
          "internalType": "address",
          "name": "_voter",
          "type": "address"
        },
        {
          "internalType": "uint256",
          "name": "_numTokens",
          "type": "uint256"
        }
      ],
      "name": "validPosition",
      "outputs": [
        {
          "internalType": "bool",
          "name": "APPROVED",
          "type": "bool"
        }
      ],
      "stateMutability": "view",
      "type": "function"
    },
    {
      "inputs": [
        {
          "internalType": "uint256",
          "name": "_numTokens",
          "type": "uint256"
        }
      ],
      "name": "withdrawVotingRights",
      "outputs": [],
      "stateMutability": "nonpayable",
      "type": "function"
    }
  ],
  "bytecode": "0x608060405260018055600280556001600355670de0b6b3a7640000600755670de0b6b3a764000060085568056bc75e2d63100000600955603c600a55600060135560006014557314f52f3fc010ab6ca81568d4a6794d5eab3c6155601d60006101000a8154816001600160a01b0302191690836001600160a01b031602179055506001601e556001601f55600160205560006022556000602355600060245560006025556000602655348015620000b557600080fd5b50604051620078fc380380620078fc833981016040819052620000d89162000183565b620000ec620000e66200012f565b62000133565b602780546001600160a01b0319166001600160a01b0392909216919091179055600060145568015af1d78b58c400006004556101c26005556078600655620001b3565b3390565b600080546001600160a01b038381166001600160a01b0319831681178455604051919092169283917f8be0079c531659141344cd1fd0a4f28419497f9722a3daafe3b4186f6b6457e09190a35050565b60006020828403121562000195578081fd5b81516001600160a01b0381168114620001ac578182fd5b9392505050565b61773980620001c36000396000f3fe608060405234801561001057600080fd5b50600436106107225760003560e01c80639fc9c52f116103a8578063d8645d37116101f4578063e8e9b6f91161011a578063f5ae7c7d116100b8578063f96305f011610087578063f96305f014610e61578063fc0c546a14610e69578063fca4956314610e71578063ffc0cf7114610e8457610722565b8063f5ae7c7d14610e36578063f716596d14610e3e578063f721de4a14610e46578063f80a23fd14610e5957610722565b8063ef4fcdad116100f4578063ef4fcdad14610e00578063f2d9e74d14610e08578063f2fde38b14610e10578063f4cdfcc414610e2357610722565b8063e8e9b6f914610dc5578063eb1322ff14610dd8578063ed8becfa14610de057610722565b8063dd61868211610192578063e604c12711610161578063e604c12714610d84578063e7805f9e14610d97578063e798a7da14610d9f578063e7b1d43c14610db257610722565b8063dd61868214610d43578063df05368e14610d56578063e1f7a43014610d69578063e44c974b14610d7157610722565b8063d9548e53116101ce578063d9548e5314610cf5578063d9845fb814610d08578063db687c1714610d28578063dd15f09514610d3b57610722565b8063d8645d3714610cc7578063d8b7567414610ccf578063d901402b14610ce257610722565b8063b1d7ea98116102d9578063c9b03a7211610277578063d186981d11610246578063d186981d14610c86578063d420ec0b14610c99578063d6b0206c14610cac578063d822ce0114610cb457610722565b8063c9b03a7214610c50578063cb1c2b5c14610c58578063ced5ca6f14610c60578063d138209214610c7357610722565b8063b8f011b3116102b3578063b8f011b314610c0f578063c47c4bc214610c22578063c4e4f82a14610c35578063c7761fab14610c4857610722565b8063b1d7ea9814610bc9578063b43bd06914610be9578063b7e4eba914610bfc57610722565b8063a511dba011610346578063aacc5a1711610320578063aacc5a1714610b93578063ab43e78d14610b9b578063b10aa58414610ba3578063b1a2e0be14610bb657610722565b8063a511dba014610b65578063a905779014610b6d578063aa7ca46414610b8057610722565b8063a1b6b5b711610382578063a1b6b5b714610b2f578063a25236fe14610b37578063a350715a14610b4a578063a4439dc514610b5257610722565b80639fc9c52f14610af6578063a0e71c1514610b09578063a1103f3714610b1c57610722565b806351912f29116105725780637827e5491161049857806383cc6ef2116104365780638df0296e116104055780638df0296e14610ac05780639760356014610ad35780639769d84614610ae65780639acb75c114610aee57610722565b806383cc6ef214610a7f5780638473850b14610a875780638c89d02714610a8f5780638da5cb5b14610ab857610722565b80637f97e836116104725780637f97e83614610a195780637fabe35b14610a2c578063819b029314610a59578063821aa8c014610a6c57610722565b80637827e54914610a015780637a34da6714610a095780637f9510a214610a1157610722565b80636a192ff511610510578063715018a6116104df578063715018a6146109d657806371880b1b146109de578063726bc8af146109f157806376e8ea4f146109f957610722565b80636a192ff51461097a5780636b1485a31461099d5780636b2d95d4146109b05780637074222b146109c357610722565b80635b113a551161054c5780635b113a55146109445780635fd87909146109575780636371d81f1461095f578063667bf0f81461097257610722565b806351912f291461090957806358002158146109115780635a4529431461092457610722565b806339e7357c1161065757806347fe2d20116105f55780634d4b7d9b116105c45780634d4b7d9b146108c85780634d884281146108db5780634fe8b4c1146108ee578063515535e81461090157610722565b806347fe2d201461089257806348257dc91461089a5780634852e2f0146108ad57806349403183146108b557610722565b8063427fa1d211610631578063427fa1d214610846578063441c77c01461085957806344639f7c1461086c57806346a7aea61461087f57610722565b806339e7357c146108185780633dda02b11461082057806340fbaae41461083357610722565b806329a47bc7116106c4578063313066ee1161069e578063313066ee146107e25780633538af82146107ea578063353f44d0146107fd578063354dae401461081057610722565b806329a47bc71461079a5780632d917c68146107af5780632f469fd1146107c257610722565b80630e670feb116107005780630e670feb14610762578063154fd39b1461076a578063226ed30014610772578063275c25901461079257610722565b806304dbcda714610727578063050eb2eb146107455780630e6661a71461075a575b600080fd5b61072f610e97565b60405161073c91906164ea565b60405180910390f35b610758610753366004615ffd565b610e9d565b005b61072f610f07565b61072f610f0d565b61072f610f13565b6107856107803660046162ed565b610f19565b60405161073c9190616644565b610758610f63565b6107a2611099565b60405161073c919061651d565b6107856107bd366004616017565b6110a8565b6107d56107d0366004616316565b6110c8565b60405161073c919061664f565b61072f61116d565b6107a26107f83660046162ed565b611173565b61072f61080b366004615ffd565b61119d565b6107586111af565b61072f6112ec565b61075861082e3660046162ed565b611309565b6107586108413660046163c9565b61134d565b61072f610854366004615ffd565b611692565b6107856108673660046162ed565b611732565b61075861087a3660046162ed565b61178c565b61075861088d366004615ffd565b6117de565b61072f61183f565b6107586108a83660046162ed565b611845565b61072f611b83565b6107856108c33660046162ed565b611b89565b6107856108d63660046162ed565b611d53565b6107586108e9366004615ffd565b611d68565b6107586108fc3660046162ed565b611dc9565b61072f611e49565b6107a2611e4f565b61075861091f3660046162ed565b611e5e565b6109376109323660046162ed565b611ea2565b60405161073c919061743a565b61072f610952366004616316565b611fc5565b61072f611fe2565b61075861096d3660046162ed565b611fe8565b6107586120aa565b61098d6109883660046162ed565b6124af565b60405161073c949392919061668c565b6107586109ab3660046162ed565b61256e565b61072f6109be366004615ffd565b613193565b61072f6109d1366004615ffd565b6131a2565b6107586131bd565b61072f6109ec3660046162ed565b613208565b61072f613245565b61072f61324b565b61072f613251565b6107a2613257565b61072f613266565b610785610a27366004616017565b61327d565b610a3f610a3a3660046162ed565b6132d3565b60405161073c9e9d9c9b9a999897969594939291906174d9565b610785610a6736600461638d565b6133d2565b6107a2610a7a3660046162ed565b613413565b6107a2613423565b61072f613432565b610aa2610a9d366004615ffd565b613438565b60405161073c9a99989796959493929190616531565b6107a2613529565b6107a2610ace36600461636c565b613538565b610758610ae13660046162ed565b613570565b61072f61371f565b61072f613725565b610758610b04366004616072565b61372b565b61072f610b173660046162ed565b61377d565b61072f610b2a366004616017565b6137a8565b61072f6137db565b610758610b453660046162ed565b6137e1565b61072f6138e2565b610785610b603660046162ed565b6138e8565b61072f61394a565b610785610b7b366004616132565b613950565b610785610b8e366004616017565b6139b6565b61072f613a09565b6107a2613abe565b6107a2610bb13660046162ed565b613acd565b610785610bc4366004615ffd565b613add565b610bdc610bd736600461636c565b613c39565b60405161073c9190616600565b61072f610bf7366004616040565b613e40565b610758610c0a3660046162ed565b613f2c565b610bdc610c1d36600461636c565b613f70565b610758610c30366004615ffd565b6140d8565b61072f610c433660046162ed565b614139565b61072f614176565b61072f61417c565b61072f614182565b610758610c6e3660046162ed565b614188565b61072f610c81366004616017565b6141f6565b610785610c94366004616316565b61428b565b610785610ca7366004616017565b614366565b61072f614386565b6107a2610cc2366004616017565b61438c565b6107a26143a8565b61072f610cdd366004616316565b6143b7565b61072f610cf0366004616017565b6143d4565b610785610d033660046162ed565b614419565b610d1b610d163660046162ed565b61441e565b60405161073c91906172c0565b610758610d36366004615ffd565b6145a3565b6107a2614604565b610758610d51366004615ffd565b614613565b610758610d64366004615ffd565b614674565b61072f6146d5565b610bdc610d7f3660046162ed565b6146e8565b6107d5610d923660046162ed565b614761565b61072f614816565b610785610dad366004615ffd565b61481c565b610758610dc03660046162ed565b61483d565b610758610dd33660046162ed565b614985565b61072f6149c9565b610df3610dee3660046162ed565b6149cf565b60405161073c91906165a0565b61072f614cec565b61072f614cf2565b610758610e1e366004615ffd565b614cf8565b61072f610e31366004616192565b614d66565b61072f614d7b565b610758614d81565b610785610e543660046162ed565b614f50565b610785614f58565b61072f614f71565b6107a2614f77565b61072f610e7f366004615ffd565b614f86565b610758610e92366004616341565b6150c0565b60075481565b610ea5615563565b6001600160a01b0316610eb6613529565b6001600160a01b031614610ee55760405162461bcd60e51b8152600401610edc90616d60565b60405180910390fd5b602a80546001600160a01b0319166001600160a01b0392909216919091179055565b60145481565b60085481565b60205490565b6000610f2482614f50565b610f405760405162461bcd60e51b8152600401610edc9061724b565b600082815260216020526040902060070154610f5b90614419565b90505b919050565b610f6b615567565b336000908152601560205260409020600781015460ff161515600114610fa35760405162461bcd60e51b8152600401610edc90616d14565b600281015415801590610fc057506007810154610100900460ff16155b15610fdb5760078101805461ff00191661010017905561107e565b600281015415610ffd5760405162461bcd60e51b8152600401610edc90616c5a565b42611007336156ef565b61101033615847565b8154336001600160a01b03199182168117845560018401805490921681179091556005830182905560078301805460ff191690556040517f9dadcedba048e92b943ea1c5861cee1df63a566d7f795869c004780c1c698e2b906110749084906164ea565b60405180910390a2505b60016022600082825461109191906175c5565b909155505050565b6029546001600160a01b031681565b600b60209081526000928352604080842090915290825290205460ff1681565b600e602090815260009283526040808420909152908252902080546110ec90617657565b80601f016020809104026020016040519081016040528092919081815260200182805461111890617657565b80156111655780601f1061113a57610100808354040283529160200191611165565b820191906000526020600020905b81548152906001019060200180831161114857829003601f168201915b505050505081565b60135481565b6019818154811061118357600080fd5b6000918252602090912001546001600160a01b0316905081565b60176020526000908152604090205481565b6111b7615567565b601b54600090156111ca576111ca615977565b601f5460009081526021602052604090206005015462010000900460ff161515600114801561121c57506111ff601f54610f19565b8061121c5750601f54600090815260216020526040902060020154155b156112415761122c601f5461256e565b601f5461123a906001615a0f565b601f555060015b6020805460009081526021909152604090206005015462010000900460ff161515600114801590611273575060195415155b801561129457506020805460009081526021909152604090206005015460ff165b156112a5576112a16120aa565b5060015b80156112bd576013546112b9906001615a0f565b6013555b6013546040517f94d48a7342690f1233e3f4db70efa37c4f1f25f4d0397c353f3f15aecdeca5f490600090a250565b60405160009080602081848060185afa61130257fe5b5051919050565b611311615563565b6001600160a01b0316611322613529565b6001600160a01b0316146113485760405162461bcd60e51b8152600401610edc90616d60565b600255565b611355615567565b61135e84611732565b61137a5760405162461bcd60e51b8152600401610edc90616eee565b336000908152600b6020908152604080832087845290915290205460ff166113b45760405162461bcd60e51b8152600401610edc90616a7f565b336000908152600c6020908152604080832087845290915290205460ff16156113ef5760405162461bcd60e51b8152600401610edc90617274565b6113f933856143d4565b6114038383614d66565b146114205760405162461bcd60e51b8152600401610edc90616df2565b600061142c33866141f6565b9050836001141561146357600085815260216020526040812060080180548392906114589084906175c5565b9091555061148a9050565b600085815260216020526040812060090180548392906114849084906175c5565b90915550505b33600090815260116020526040908190209051634dab476560e01b815273__$6ffa5bf1f4fa681f07e1987a80577d5f4e$__91634dab4765916114d29190899060040161650f565b60006040518083038186803b1580156114ea57600080fd5b505af41580156114fe573d6000803e3d6000fd5b5050336000818152600c602090815260408083208b84528252808320805460ff19166001179055600d825280832084845282528083208a90558a8352600e8252808320938352928152919020865161155d945090925090860190615d67565b5033600090815260156020908152604080832088845260219092529091206002015461158a906001615a1b565b60008781526021602052604090206002015560038101805460ff191660011790554260058201556115ba33615847565b600781015460ff1615611617576115d033615a27565b61161757601980546001810182556000919091527f944998273e477b495144fb8794c914197f3ccb46be2900f4698fd0ef743c96950180546001600160a01b031916331790555b60016022600082825461162a91906175c5565b90915550506000868152602160205260409081902060088101546009909101549151339288928a927f2e5fbeef18eaa8d8ea3b0122bc64445c4daaa6f454dfb889456791a92287f378926116829289929091906174c3565b60405180910390a4505050505050565b6001600160a01b038116600090815260116020526040808220905163215e94cf60e01b815273__$6ffa5bf1f4fa681f07e1987a80577d5f4e$__9163215e94cf916116e29190859060040161650f565b60206040518083038186803b1580156116fa57600080fd5b505af415801561170e573d6000803e3d6000fd5b505050506040513d601f19601f82011682018060405250810190610f5b9190616305565b600061173d82614f50565b6117595760405162461bcd60e51b8152600401610edc90616f7b565b60008281526021602052604090206007015461177490614419565b158015610f5b5750611785826138e8565b1592915050565b611794615563565b6001600160a01b03166117a5613529565b6001600160a01b0316146117cb5760405162461bcd60e51b8152600401610edc90616d60565b60018110156117d957600080fd5b600355565b6117e6615563565b6001600160a01b03166117f7613529565b6001600160a01b03161461181d5760405162461bcd60e51b8152600401610edc90616d60565b602d80546001600160a01b0319166001600160a01b0392909216919091179055565b601f5490565b602c546001600160a01b03161580159061186e575060008181526010602052604090205460ff16155b1561107e57602c54604051637b90ef2560e11b81526001600160a01b039091169063f721de4a906118a39084906004016164ea565b602060405180830381600087803b1580156118bd57600080fd5b505af11580156118d1573d6000803e3d6000fd5b505050506040513d601f19601f820116820180604052508101906118f59190616118565b1561107e57602c54604051631b308bf760e31b81526000916001600160a01b03169063d9845fb89061192b9085906004016164ea565b600060405180830381600087803b15801561194557600080fd5b505af1158015611959573d6000803e3d6000fd5b505050506040513d6000823e601f3d908101601f1916820160405261198191908101906161d4565b6101a081015190915060018160038111156119ac57634e487b7160e01b600052602160045260246000fd5b1415611b55576040805160808101825261016084015181523360208083019190915242828401526000606083018190526014548152601682529290922081518051929391926119fe9284920190615d67565b506020820151600182810180546001600160a01b0319166001600160a01b0390931692909217909155604083015160028301556060830151600380840180549293909260ff1916918490811115611a6557634e487b7160e01b600052602160045260246000fd5b021790555050601e54600090815260216020526040902060018054908201549192501115611aa8576001816001016000828254611aa291906175c5565b90915550505b600154816001015410611afa57600581018054600160ff19909116811761ff001916909155601e8054600090611adf9084906175c5565b9091555050601454601e546000908152602160205260409020555b611b026111af565b601454611b109060016175c5565b60148190556101608401516040517fe72ee44ad0ed1dfc338f7eec797c944eb218773c1edbb4bb653dd9c1e2a6230491611b4b913390616662565b60405180910390a2505b50506000818152601060205260409020805460ff1916600117905560016022600082825461109191906175c5565b60255481565b600081815260216020908152604080832081516101c081018352815481526001820154938101939093526002810154918301919091526003810154606083015260048101546080830152600581015460ff808216151560a08501526101008083048216151560c08601526201000090920416151560e0840152600682015490830152600781015461012083015260088101546101408301526009810154610160830152600a8101805484939291610180840191611c4590617657565b80601f0160208091040260200160405190810160405280929190818152602001828054611c7190617657565b8015611cbe5780601f10611c9357610100808354040283529160200191611cbe565b820191906000526020600020905b815481529060010190602001808311611ca157829003601f168201915b5050509183525050600b82015460209091019060ff166003811115611cf357634e487b7160e01b600052602160045260246000fd5b6003811115611d1257634e487b7160e01b600052602160045260246000fd5b905250610160810151610140820151919250611d2d916175c5565b600a54611d3a91906175f1565b610140820151611d4b9060646175f1565b119392505050565b60106020526000908152604090205460ff1681565b611d70615563565b6001600160a01b0316611d81613529565b6001600160a01b031614611da75760405162461bcd60e51b8152600401610edc90616d60565b601d80546001600160a01b0319166001600160a01b0392909216919091179055565b611dd1615563565b6001600160a01b0316611de2613529565b6001600160a01b031614611e085760405162461bcd60e51b8152600401610edc90616d60565b600081815260166020526040812090611e218282615deb565b506001810180546001600160a01b031916905560006002820155600301805460ff1916905550565b601e5490565b602a546001600160a01b031681565b611e66615563565b6001600160a01b0316611e77613529565b6001600160a01b031614611e9d5760405162461bcd60e51b8152600401610edc90616d60565b600655565b611eaa615e27565b60008281526016602052604090819020815160808101909252805482908290611ed290617657565b80601f0160208091040260200160405190810160405280929190818152602001828054611efe90617657565b8015611f4b5780601f10611f2057610100808354040283529160200191611f4b565b820191906000526020600020905b815481529060010190602001808311611f2e57829003601f168201915b505050918352505060018201546001600160a01b031660208201526002820154604082015260038083015460609092019160ff1690811115611f9d57634e487b7160e01b600052602160045260246000fd5b6003811115611fbc57634e487b7160e01b600052602160045260246000fd5b90525092915050565b600f60209081526000928352604080842090915290825290205481565b60065481565b611ff0615563565b6001600160a01b0316612001613529565b6001600160a01b0316146120275760405162461bcd60e51b8152600401610edc90616d60565b61203081614f50565b156120a75760008181526021602052604081208181556001810182905560028101829055600381018290556004810182905560058101805462ffffff19169055600681018290556007810182905560088101829055600981018290559061209a600a830182615deb565b50600b01805460ff191690555b50565b6020805460009081526021909152604090206005015460ff166120df5760405162461bcd60e51b8152600401610edc90616e98565b6020805460009081526021909152604090206005015462010000900460ff161561211b5760405162461bcd60e51b8152600401610edc90616cb7565b6000612139612131601980549050600254615a97565b600354615aad565b601954602080546000908152602182526040808220600201859055915481529081206003018390556005549293509091612174904290615a0f565b9050600061218d60065483615a0f90919063ffffffff16565b602080546000908152602182526040808220600601869055825482528082206007018490559154815220600501805462ff00001916620100001790559050600184108015906121dd575060018310155b6121f95760405162461bcd60e51b8152600401610edc906168f5565b60006122058585613f70565b9050600081516001600160401b0381111561223057634e487b7160e01b600052604160045260246000fd5b604051908082528060200260200182016040528015612259578160200160208202803683370190505b50905060005b825181101561231857601983828151811061228a57634e487b7160e01b600052603260045260246000fd5b6020026020010151815481106122b057634e487b7160e01b600052603260045260246000fd5b9060005260206000200160009054906101000a90046001600160a01b03168282815181106122ee57634e487b7160e01b600052603260045260246000fd5b6001600160a01b03909216602092830291909101909101528061231081617692565b91505061225f565b5060005b825181101561247a57600082828151811061234757634e487b7160e01b600052603260045260246000fd5b60200260200101519050600060156000836001600160a01b03166001600160a01b031681526020019081526020016000209050612383826156ef565b61238c82615abd565b6123dc57601a80546001810182556000919091527f057c384a7d1c54f3a1b2e5e67b2617b8224fdfd1ea7234eea573a6ff665ff63e0180546001600160a01b0319166001600160a01b0384161790555b602080546000908152601c8252604080822080546001810182559083529183902090910180546001600160a01b0319166001600160a01b0386161790558154600284015560038301805460ff19169055905490517fe4ee2dfabe57cee15e3f558890b20455f54c1fa0718e5276faad70a6500e6b8c9061245d90859061651d565b60405180910390a25050808061247290617692565b91505061231c565b50602054612489906001615a0f565b6020819055506001602260008282546124a291906175c5565b9091555050505050505050565b6016602052600090815260409020805481906124ca90617657565b80601f01602080910402602001604051908101604052809291908181526020018280546124f690617657565b80156125435780601f1061251857610100808354040283529160200191612543565b820191906000526020600020905b81548152906001019060200180831161252657829003601f168201915b505050506001830154600284015460039094015492936001600160a01b039091169290915060ff1684565b61257781610f19565b806125915750600081815260216020526040902060020154155b6125ad5760405162461bcd60e51b8152600401610edc90616d95565b600081815260216020526040902060050154610100900460ff16156125e45760405162461bcd60e51b8152600401610edc9061702e565b60006125ef82611b89565b6000838152601c602090815260408083208054825181850281018501909352808352949550929390929183018282801561265257602002820191906000526020600020905b81546001600160a01b03168152600190910190602001808311612634575b50505050509050600081516001600160401b0381111561268257634e487b7160e01b600052604160045260246000fd5b6040519080825280602002602001820160405280156126b557816020015b60608152602001906001900390816126a05790505b509050600082516001600160401b038111156126e157634e487b7160e01b600052604160045260246000fd5b60405190808252806020026020018201604052801561270a578160200160208202803683370190505b50905060005b8351811015612b3b57600084828151811061273b57634e487b7160e01b600052603260045260246000fd5b6020908102919091018101516000898152600d835260408082206001600160a01b03841680845290855281832054600c86528284208d8552865282842054600e875283852092855291909552908220805493955060ff9091169261279e90617657565b80601f01602080910402602001604051908101604052809291908181526020018280546127ca90617657565b80156128175780601f106127ec57610100808354040283529160200191612817565b820191906000526020600020905b8154815290600101906020018083116127fa57829003601f168201915b505050505090508087868151811061283f57634e487b7160e01b600052603260045260246000fd5b60209081029190910181019190915260008b8152600f825260408082206001600160a01b038816835290925220548651819088908890811061289157634e487b7160e01b600052603260045260246000fd5b6020026020010181815250506128a685615847565b6001600160a01b03851660009081526015602052604090208315612adc576001600160a01b0386166000908152601560205260409020600301805460ff191660019081179091558b15151480156128fd5750846001145b8061291257508a158015612912575084600114155b15612a5957602954600954604051630db6cc8560e11b81526001600160a01b0390921691631b6d990a9161294a918a906004016174a5565b602060405180830381600087803b15801561296457600080fd5b505af1158015612978573d6000803e3d6000fd5b505050506040513d601f19601f8201168201806040525081019061299c9190616118565b6129b85760405162461bcd60e51b8152600401610edc90616b37565b602a54600754604051633832942560e21b81526001600160a01b039092169163e0ca5094916129eb918a9060040161748e565b602060405180830381600087803b158015612a0557600080fd5b505af1158015612a19573d6000803e3d6000fd5b505050506040513d601f19601f82011682018060405250810190612a3d9190616118565b612a595760405162461bcd60e51b8152600401610edc906169d3565b600781015460ff1615612ad757612a6f86615a27565b158015612a8657506007810154610100900460ff16155b15612ad757601980546001810182556000919091527f944998273e477b495144fb8794c914197f3ccb46be2900f4698fd0ef743c96950180546001600160a01b0319166001600160a01b0388161790555b612b22565b6007810154610100900460ff1680612af2575083155b15612b2257600781015460ff1615612b225760078101805460ff19169055612b19866156ef565b612b2286615847565b5050505050508080612b3390617692565b915050612710565b506000612b636064600a548651612b5291906175f1565b612b5c91906175dd565b6001615aad565b9050600083600081518110612b8857634e487b7160e01b600052603260045260246000fd5b6020026020010151905060005b8451811015612c7e576000805b8651811015612c3357612c03878481518110612bce57634e487b7160e01b600052603260045260246000fd5b6020026020010151888381518110612bf657634e487b7160e01b600052603260045260246000fd5b6020026020010151613950565b15612c2157612c136001836175c5565b9150848210612c2157612c33565b80612c2b81617692565b915050612ba2565b50838110612c6b57858281518110612c5b57634e487b7160e01b600052603260045260246000fd5b6020026020010151925050612c7e565b5080612c7681617692565b915050612b95565b50600083600081518110612ca257634e487b7160e01b600052603260045260246000fd5b6020026020010151905060005b8451811015612d91576000805b8651811015612d4657868181518110612ce557634e487b7160e01b600052603260045260246000fd5b6020026020010151878481518110612d0d57634e487b7160e01b600052603260045260246000fd5b60200260200101511415612d3457612d266001836175c5565b9150858210612d3457612d46565b80612d3e81617692565b915050612cbc565b50848110612d7e57858281518110612d6e57634e487b7160e01b600052603260045260246000fd5b6020026020010151925050612d91565b5080612d8981617692565b915050612caf565b50600088815260216020908152604090912060058101805461ff0019166101001790558351612dc892600a90920191850190615d67565b50600088815260216020526040902060040181905586156130925760295460095460008a81526016602052604090819020600101549051630db6cc8560e11b81526001600160a01b0393841693631b6d990a93612e2c9390929116906004016174a5565b602060405180830381600087803b158015612e4657600080fd5b505af1158015612e5a573d6000803e3d6000fd5b505050506040513d601f19601f82011682018060405250810190612e7e9190616118565b612e9a5760405162461bcd60e51b8152600401610edc90617157565b602a5460075460008a81526016602052604090819020600101549051633832942560e21b81526001600160a01b039384169363e0ca509493612ee393909291169060040161748e565b602060405180830381600087803b158015612efd57600080fd5b505af1158015612f11573d6000803e3d6000fd5b505050506040513d601f19601f82011682018060405250810190612f359190616118565b612f515760405162461bcd60e51b8152600401610edc90616fdf565b6000888152602160205260408120600b01805460ff191660019081179091556023805491929091612f839084906175c5565b9091555050602d546040516348257dc960e01b81526001600160a01b03909116906348257dc990612fb8908b906004016164ea565b602060405180830381600087803b158015612fd257600080fd5b505af1925050508015613002575060408051601f3d908101601f19168201909252612fff91810190616118565b60015b613073573d808015613030576040519150601f19603f3d011682016040523d82523d6000602084013e613035565b606091505b507f4b87bbd93ba65ede1e2efeca735d9f7a6720bf7d6db0a8355b17dba5b64e578381604051613065919061664f565b60405180910390a15061308d565b60016022600082825461308691906175c5565b9091555050505b6130c7565b6000888152602160205260408120600b01805460ff1916600217905560248054600192906130c19084906175c5565b90915550505b6001602260008282546130da91906175c5565b909155505060008881526021602052604081206003015460258054919290916131049084906175c5565b9091555050600088815260216020526040812060020154602680549192909161312e9084906175c5565b909155505060008881526016602052604090819020600181015491516001600160a01b03909216917fb83f08cf731092d35d6dd4801ac76e3fcc84b1b199915531c9874230d31adeaa91613181916166ef565b60405180910390a25050505050505050565b6000610f5b82610c8184611692565b6001600160a01b031660009081526017602052604090205490565b6131c5615563565b6001600160a01b03166131d6613529565b6001600160a01b0316146131fc5760405162461bcd60e51b8152600401610edc90616d60565b6132066000615b2d565b565b600061321382614f50565b61322f5760405162461bcd60e51b8152600401610edc90616f7b565b5060009081526021602052604090206007015490565b60035481565b60015481565b60095481565b602b546001600160a01b031681565b601a54601954600091613278916175c5565b905090565b600061328882614f50565b6132a45760405162461bcd60e51b8152600401610edc90616f7b565b506001600160a01b0382166000908152600b6020908152604080832084845290915290205460ff165b92915050565b602160205260009081526040902080546001820154600283015460038401546004850154600586015460068701546007880154600889015460098a0154600a8b0180549a9b999a98999798969760ff80881698610100890482169862010000900490911696959493929061334690617657565b80601f016020809104026020016040519081016040528092919081815260200182805461337290617657565b80156133bf5780601f10613394576101008083540402835291602001916133bf565b820191906000526020600020905b8154815290600101906020018083116133a257829003601f168201915b505050600b909301549192505060ff168e565b6000806133df84876141f6565b831015905060006133f085876141f6565b841115806133fc575085155b90508180156134085750805b979650505050505050565b601a818154811061118357600080fd5b6028546001600160a01b031681565b601e5481565b60156020526000908152604090208054600182015460028301546003840154600485015460058601546006870180546001600160a01b03978816989690971696949560ff909416949293919261348d90617657565b80601f01602080910402602001604051908101604052809291908181526020018280546134b990617657565b80156135065780601f106134db57610100808354040283529160200191613506565b820191906000526020600020905b8154815290600101906020018083116134e957829003601f168201915b505050506007830154600890930154919260ff808216936101009092041691508a565b6000546001600160a01b031690565b601c602052816000526040600020818154811061355457600080fd5b6000918252602090912001546001600160a01b03169150829050565b60016000828152602160205260409020600b015460ff1660038111156135a657634e487b7160e01b600052602160045260246000fd5b146135c35760405162461bcd60e51b8152600401610edc906167d0565b3360009081526011602052604090819020905163162a54af60e31b815273__$6ffa5bf1f4fa681f07e1987a80577d5f4e$__9163b152a5789161360b9190859060040161650f565b60206040518083038186803b15801561362357600080fd5b505af4158015613637573d6000803e3d6000fd5b505050506040513d601f19601f8201168201806040525081019061365b9190616118565b6136775760405162461bcd60e51b8152600401610edc90616b84565b33600090815260116020526040908190209051634dab476560e01b815273__$6ffa5bf1f4fa681f07e1987a80577d5f4e$__91634dab4765916136bf9190859060040161650f565b60006040518083038186803b1580156136d757600080fd5b505af41580156136eb573d6000803e3d6000fd5b50506040513392508391507f402507661c8c8cb90e0a796450b8bdd28b6c516f05279c0cd29e84c344e1699a90600090a350565b60235481565b60135490565b60005b81518110156137795761376782828151811061375a57634e487b7160e01b600052603260045260246000fd5b6020026020010151613570565b8061377181617692565b91505061372e565b5050565b6000818152602160205260408120600981015460089091015482916137a1916175c5565b9392505050565b600082826040516020016137bd9291906164c8565b60405160208183030381529060405280519060200120905092915050565b60235490565b6028546040516304ada21f60e21b81526001600160a01b03909116906312b6887c90613813908490339060040161748e565b602060405180830381600087803b15801561382d57600080fd5b505af1158015613841573d6000803e3d6000fd5b505050506040513d601f19601f820116820180604052508101906138659190616118565b6138815760405162461bcd60e51b8152600401610edc90616a22565b33600090815260176020526040812080548392906138a09084906175c5565b909155505060405133907ff7aaf024511d9982df8cd0d437c71c30106e6848cd1ba3d288d7a9c0e276aeda906138d79084906164ea565b60405180910390a250565b60245481565b60006138f382614f50565b61390f5760405162461bcd60e51b8152600401610edc90616f7b565b60008281526021602052604090206006015461392a90614419565b158015610f5b575050600090815260216020526040902060030154151590565b60145490565b60008160405160200161396391906164f3565b604051602081830303815290604052805190602001208360405160200161398a91906164f3565b6040516020818303038152906040528051906020012014156139ae575060016132cd565b5060006132cd565b60006139c182614f50565b6139dd5760405162461bcd60e51b8152600401610edc90616f7b565b506001600160a01b03919091166000908152600c60209081526040808320938352929052205460ff1690565b6000804241604051602001613a1e91906164ab565b6040516020818303038152906040528051906020012060001c613a4191906175dd565b44613a4a6112ec565b604051602001613a5a91906164ea565b60408051601f198184030181529190528051602090910120613a7c90426175c5565b613a8691906175c5565b613a9091906175c5565b604051602001613aa091906164ea565b60408051601f19818403018152919052805160209091012091505090565b601d546001600160a01b031681565b601b818154811061118357600080fd5b6001600160a01b038082166000908152601560209081526040808320815161014081018352815486168152600182015490951692850192909252600282015490840152600381015460ff161515606084015260048101546080840152600581015460a0840152600681018054929384938493919260c0840191613b5f90617657565b80601f0160208091040260200160405190810160405280929190818152602001828054613b8b90617657565b8015613bd85780601f10613bad57610100808354040283529160200191613bd8565b820191906000526020600020905b815481529060010190602001808311613bbb57829003601f168201915b5050509183525050600782015460ff808216151560208401526101009091041615156040820152600890910154606091820152810151909150158015613c285750613c268160400151610f19565b155b15613c3257600191505b5092915050565b606060008211613c4857600080fd5b600041604051602001613c5b91906164ab565b6040516020818303038152906040528051906020012060001c613c7c6112ec565b604051602001613c8c91906164ea565b60408051601f198184030181529190528051602090910120613cae90426175c5565b613cb891906175c5565b604051602001613cc891906164ea565b6040516020818303038152906040528051906020012060001c90506000846001600160401b03811115613d0b57634e487b7160e01b600052604160045260246000fd5b604051908082528060200260200182016040528015613d34578160200160208202803683370190505b5090506000805b86821015613e3557600086613d5463017efeeb87617610565b83604051602001613d6692919061650f565b6040516020818303038152906040528051906020012060001c613d8991906176ad565b90506000805b84811015613de15782868281518110613db857634e487b7160e01b600052603260045260246000fd5b60200260200101511415613dcf5760019150613de1565b80613dd981617692565b915050613d8f565b5080613e215781858581518110613e0857634e487b7160e01b600052603260045260246000fd5b6020908102919091010152613e1e8460016175c5565b93505b613e2c8360016175c5565b92505050613d3b565b509095945050505050565b6000613e4b83610f19565b613e675760405162461bcd60e51b8152600401610edc906171a4565b6001600160a01b0384166000908152600c6020908152604080832086845290915290205460ff16613eaa5760405162461bcd60e51b8152600401610edc90616be1565b6000613eb584611b89565b613ec0576000613ec3565b60015b60ff16905060008184604051602001613edd92919061650f565b6040516020818303038152906040528051906020012090506000613f0187876143d4565b9050808214613f225760405162461bcd60e51b8152600401610edc90616e4f565b61340887876141f6565b613f34615563565b6001600160a01b0316613f45613529565b6001600160a01b031614613f6b5760405162461bcd60e51b8152600401610edc90616d60565b600155565b6060600082118015613f825750818311155b8015613f8f575060018310155b613fab5760405162461bcd60e51b8152600401610edc906168ac565b6000826001600160401b03811115613fd357634e487b7160e01b600052604160045260246000fd5b604051908082528060200260200182016040528015613ffc578160200160208202803683370190505b5090506000846001600160401b0381111561402757634e487b7160e01b600052604160045260246000fd5b604051908082528060200260200182016040528015614050578160200160208202803683370190505b509050600061406661406184615b7d565b615bd3565b905060005b86811015613e355781818151811061409357634e487b7160e01b600052603260045260246000fd5b60200260200101518382815181106140bb57634e487b7160e01b600052603260045260246000fd5b6020908102919091010152806140d081617692565b91505061406b565b6140e0615563565b6001600160a01b03166140f1613529565b6001600160a01b0316146141175760405162461bcd60e51b8152600401610edc90616d60565b602b80546001600160a01b0319166001600160a01b0392909216919091179055565b600061414482614f50565b6141605760405162461bcd60e51b8152600401610edc90616f7b565b5060009081526021602052604090206006015490565b600a5481565b60025481565b60045481565b614190615563565b6001600160a01b03166141a1613529565b6001600160a01b0316146141c75760405162461bcd60e51b8152600401610edc90616d60565b60008181526010602052604090205460ff16156120a7576000908152601060205260409020805460ff19169055565b600073__$d865f21674766f31b0d600e4a95b721b57$__6362e02a2a601261421e86866137a8565b6040518363ffffffff1660e01b815260040161423b9291906173e3565b60206040518083038186803b15801561425357600080fd5b505af4158015614267573d6000803e3d6000fd5b505050506040513d601f19601f820116820180604052508101906137a19190616305565b6000828152601c602090815260408083208054825181850281018501909352808352849384939291908301828280156142ed57602002820191906000526020600020905b81546001600160a01b031681526001909101906020018083116142cf575b5050505050905060005b815181101561435c57846001600160a01b031682828151811061432a57634e487b7160e01b600052603260045260246000fd5b60200260200101516001600160a01b0316141561434a576001925061435c565b8061435481617692565b9150506142f7565b5090949350505050565b600c60209081526000928352604080842090915290825290205460ff1681565b60205481565b6018602052816000526040600020818154811061355457600080fd5b602c546001600160a01b031681565b600d60209081526000928352604080842090915290825290205481565b600073__$d865f21674766f31b0d600e4a95b721b57$__6362e02a2a60126143fc86866137a8565b6040518363ffffffff1660e01b815260040161423b929190617397565b421190565b614426615e76565b61442f82614f50565b61443857600080fd5b60008281526021602090815260409182902082516101c081018452815481526001820154928101929092526002810154928201929092526003820154606082015260048201546080820152600582015460ff808216151560a08401526101008083048216151560c08501526201000090920416151560e0830152600683015490820152600782015461012082015260088201546101408201526009820154610160820152600a82018054919291610180840191906144f590617657565b80601f016020809104026020016040519081016040528092919081815260200182805461452190617657565b801561456e5780601f106145435761010080835404028352916020019161456e565b820191906000526020600020905b81548152906001019060200180831161455157829003601f168201915b5050509183525050600b82015460209091019060ff166003811115611f9d57634e487b7160e01b600052602160045260246000fd5b6145ab615563565b6001600160a01b03166145bc613529565b6001600160a01b0316146145e25760405162461bcd60e51b8152600401610edc90616d60565b602c80546001600160a01b0319166001600160a01b0392909216919091179055565b602d546001600160a01b031681565b61461b615563565b6001600160a01b031661462c613529565b6001600160a01b0316146146525760405162461bcd60e51b8152600401610edc90616d60565b602980546001600160a01b0319166001600160a01b0392909216919091179055565b61467c615563565b6001600160a01b031661468d613529565b6001600160a01b0316146146b35760405162461bcd60e51b8152600401610edc90616d60565b602880546001600160a01b0319166001600160a01b0392909216919091179055565b3360009081526017602052604090205490565b6060600082116146f757600080fd5b6000826001600160401b0381111561471f57634e487b7160e01b600052604160045260246000fd5b604051908082528060200260200182016040528015614748578160200160208202803683370190505b509050600061475961406183615b7d565b949350505050565b606061476c82614f50565b61477557600080fd5b6000828152602160205260409020600a01805461479190617657565b80601f01602080910402602001604051908101604052809291908181526020018280546147bd90617657565b801561480a5780601f106147df5761010080835404028352916020019161480a565b820191906000526020600020905b8154815290600101906020018083116147ed57829003601f168201915b50505050509050919050565b60055481565b6001600160a01b031660009081526015602052604090206007015460ff1690565b600061486161484b33613193565b3360009081526017602052604090205490615a1b565b9050818110156148835760405162461bcd60e51b8152600401610edc90616f34565b602854604051630895993360e11b81526001600160a01b039091169063112b3266906148b5908590339060040161748e565b602060405180830381600087803b1580156148cf57600080fd5b505af11580156148e3573d6000803e3d6000fd5b505050506040513d601f19601f820116820180604052508101906149079190616118565b6149235760405162461bcd60e51b8152600401610edc906171ee565b3360009081526017602052604081208054849290614942908490617610565b909155505060405133907ffaeb7dbb9992397d26ea1944efd40c80b40f702faf69b46c67ad10aba68ccb79906149799085906164ea565b60405180910390a25050565b61498d615563565b6001600160a01b031661499e613529565b6001600160a01b0316146149c45760405162461bcd60e51b8152600401610edc90616d60565b600555565b60265481565b60606149da82614f50565b6149f65760405162461bcd60e51b8152600401610edc90616f7b565b600082815260216020908152604080832081516101c081018352815481526001820154938101939093526002810154918301919091526003810154606083015260048101546080830152600581015460ff808216151560a08501526101008083048216151560c08601526201000090920416151560e0840152600682015490830152600781015461012083015260088101546101408301526009810154610160830152600a8101805461018084019190614aaf90617657565b80601f0160208091040260200160405190810160405280929190818152602001828054614adb90617657565b8015614b285780601f10614afd57610100808354040283529160200191614b28565b820191906000526020600020905b815481529060010190602001808311614b0b57829003601f168201915b5050509183525050600b82015460209091019060ff166003811115614b5d57634e487b7160e01b600052602160045260246000fd5b6003811115614b7c57634e487b7160e01b600052602160045260246000fd5b9052506020810151600154919250906000906001600160401b03811115614bb357634e487b7160e01b600052604160045260246000fd5b604051908082528060200260200182016040528015614be657816020015b6060815260200190600190039081614bd15790505b50905060005b82811015614ce3578351600090614c049083906175c5565b600081815260166020526040812080549293509091614c2290617657565b80601f0160208091040260200160405190810160405280929190818152602001828054614c4e90617657565b8015614c9b5780601f10614c7057610100808354040283529160200191614c9b565b820191906000526020600020905b815481529060010190602001808311614c7e57829003601f168201915b5050505050905080848481518110614cc357634e487b7160e01b600052603260045260246000fd5b602002602001018190525050508080614cdb90617692565b915050614bec565b50949350505050565b601f5481565b60225481565b614d00615563565b6001600160a01b0316614d11613529565b6001600160a01b031614614d375760405162461bcd60e51b8152600401610edc90616d60565b6001600160a01b038116614d5d5760405162461bcd60e51b8152600401610edc90616866565b6120a781615b2d565b600082826040516020016137bd9291906166cd565b60225490565b614d89615567565b336000908152601560205260409020601a546019546103e891614dab916175c5565b10614dc85760405162461bcd60e51b8152600401610edc906170b8565b600781015460ff1615614ded5760405162461bcd60e51b8152600401610edc90616799565b60045433600090815260176020526040902054429190811115614e325733600090815260176020526040812054614e25908390615a1b565b9050614e30816137e1565b505b33600090815260176020526040902054811115614e615760405162461bcd60e51b8152600401610edc90616ace565b614e6a33615a27565b614eb157601980546001810182556000919091527f944998273e477b495144fb8794c914197f3ccb46be2900f4698fd0ef743c96950180546001600160a01b031916331790555b8254336001600160a01b03199182168117855560018501805490921617905560058301829055600783015460ff16614ef95760078301805460ff191660011790554260088401555b600160226000828254614f0c91906175c5565b909155505060405133907f439d77b7534ec3108fc6143bd4fbabde0b9f2bb54f7b0730d1f70dd2135b765f90614f439085906164ea565b60405180910390a2505050565b601e54101590565b3360009081526015602052604090206007015460ff1690565b60245490565b6027546001600160a01b031681565b6001600160a01b038082166000908152601560209081526040808320815161014081018352815486168152600182015490951692850192909252600282015490840152600381015460ff161515606084015260048101546080840152600581015460a08401526006810180549293849390929160c084019161500790617657565b80601f016020809104026020016040519081016040528092919081815260200182805461503390617657565b80156150805780601f1061505557610100808354040283529160200191615080565b820191906000526020600020905b81548152906001019060200180831161506357829003601f168201915b5050509183525050600782015460ff8082161515602084015261010090910416151560408083019190915260089092015460609091015201519392505050565b6150c8615567565b6150d1836138e8565b6150ed5760405162461bcd60e51b8152600401610edc9061693f565b336000908152600b6020908152604080832086845290915290205460ff16156151285760405162461bcd60e51b8152600401610edc9061706f565b615132833361428b565b61514e5760405162461bcd60e51b8152600401610edc90616976565b600454336000908152601760205260409020548111156151905733600090815260176020526040812054615183908390615a1b565b905061518e816137e1565b505b336000908152601760205260409020548111156151bf5760405162461bcd60e51b8152600401610edc906170fa565b6000336000908152601160205260408082209051631b23afef60e21b815273__$6ffa5bf1f4fa681f07e1987a80577d5f4e$__91636c8ebfbc916152089190869060040161650f565b60206040518083038186803b15801561522057600080fd5b505af4158015615234573d6000803e3d6000fd5b505050506040513d601f19601f820116820180604052508101906152589190616305565b9050858114156152fd5733600090815260116020526040908190209051631b23afef60e21b815273__$6ffa5bf1f4fa681f07e1987a80577d5f4e$__91636c8ebfbc916152aa91908a9060040161650f565b60206040518083038186803b1580156152c257600080fd5b505af41580156152d6573d6000803e3d6000fd5b505050506040513d601f19601f820116820180604052508101906152fa9190616305565b90505b615309828233866133d2565b6153255760405162461bcd60e51b8152600401610edc90616c2c565b3360009081526011602052604090819020905163f3a1998360e01b815273__$6ffa5bf1f4fa681f07e1987a80577d5f4e$__9163f3a1998391615371919086908b90879060040161741f565b60006040518083038186803b15801561538957600080fd5b505af415801561539d573d6000803e3d6000fd5b5050505060006153ad33886137a8565b604051633416d70d60e21b815290915073__$d865f21674766f31b0d600e4a95b721b57$__9063d05b5c34906153ec9060129085908990600401617401565b60006040518083038186803b15801561540457600080fd5b505af4158015615418573d6000803e3d6000fd5b5050604051633416d70d60e21b815273__$d865f21674766f31b0d600e4a95b721b57$__925063d05b5c3491506154589060129085908b906004016173b5565b60006040518083038186803b15801561547057600080fd5b505af4158015615484573d6000803e3d6000fd5b5050506000888152600f602090815260408083203384528252808320899055601582528083208b84526021909252909120600301549091506154c7906001615a1b565b600089815260216020908152604080832060030193909355426005850155338252600b81528282208b83529052908120805460ff1916600190811790915560228054919290916155189084906175c5565b9091555050604051339089907f1b5c5140592c554fa4c0cdb5b3d3cd50f87aa84e477afd0b6c93d7702ef9c73c906155519089906164ea565b60405180910390a35050505050505050565b3390565b601d546001600160a01b031661558f5760405162461bcd60e51b8152600401610edc90616fb2565b601d546040516000916001600160a01b0316906155b090339060240161651d565b60408051601f198184030181529181526020820180516001600160e01b0316631f5ac9c560e11b179052516155e591906164f3565b6000604051808303816000865af19150503d8060008114615622576040519150601f19603f3d011682016040523d82523d6000602084013e615627565b606091505b5050601d546040519192506000916001600160a01b039091169061564f90339060240161651d565b60408051601f198184030181529181526020820180516001600160e01b03166358563d2160e01b1790525161568491906164f3565b6000604051808303816000865af19150503d80600081146156c1576040519150601f19603f3d011682016040523d82523d6000602084013e6156c6565b606091505b5050905081806156d35750805b6137795760405162461bcd60e51b8152600401610edc90616821565b60008060005b60195481101561576357836001600160a01b03166019828154811061572a57634e487b7160e01b600052603260045260246000fd5b6000918252602090912001546001600160a01b031614156157515760019150809250615763565b8061575b81617692565b9150506156f5565b508015615842576019805461577a90600190617610565b8154811061579857634e487b7160e01b600052603260045260246000fd5b600091825260209091200154601980546001600160a01b0390921691849081106157d257634e487b7160e01b600052603260045260246000fd5b9060005260206000200160006101000a8154816001600160a01b0302191690836001600160a01b03160217905550601980548061581f57634e487b7160e01b600052603160045260246000fd5b600082815260209020810160001990810180546001600160a01b03191690550190555b505050565b60008060005b601a548110156158bb57836001600160a01b0316601a828154811061588257634e487b7160e01b600052603260045260246000fd5b6000918252602090912001546001600160a01b031614156158a957600191508092506158bb565b806158b381617692565b91505061584d565b50801561584257601a80546158d290600190617610565b815481106158f057634e487b7160e01b600052603260045260246000fd5b600091825260209091200154601a80546001600160a01b03909216918490811061592a57634e487b7160e01b600052603260045260246000fd5b9060005260206000200160006101000a8154816001600160a01b0302191690836001600160a01b03160217905550601a80548061581f57634e487b7160e01b600052603160045260246000fd5b60005b601b54811015615a02576000601b82815481106159a757634e487b7160e01b600052603260045260246000fd5b60009182526020808320909101546001600160a01b03168083526015909152604090912060078101805461ffff191690559091506159e4826156ef565b6159ed82615847565b505080806159fa90617692565b91505061597a565b50613206601b6000615f04565b60006137a182846175c5565b60006137a18284617610565b600080805b601954811015613c3257836001600160a01b031660198281548110615a6157634e487b7160e01b600052603260045260246000fd5b6000918252602090912001546001600160a01b03161415615a855760019150613c32565b80615a8f81617692565b915050615a2c565b6000818310615aa657816137a1565b5090919050565b600081831015615aa657816137a1565b600080805b601a54811015613c3257836001600160a01b0316601a8281548110615af757634e487b7160e01b600052603260045260246000fd5b6000918252602090912001546001600160a01b03161415615b1b5760019150613c32565b80615b2581617692565b915050615ac2565b600080546001600160a01b038381166001600160a01b0319831681178455604051919092169283917f8be0079c531659141344cd1fd0a4f28419497f9722a3daafe3b4186f6b6457e09190a35050565b805160609060005b81811015615bcb5780848281518110615bae57634e487b7160e01b600052603260045260246000fd5b602090810291909101015280615bc381617692565b915050615b85565b509192915050565b60606000825111615be357600080fd5b81518060005b81811015615d5e57600083615bfc613a09565b878481518110615c1c57634e487b7160e01b600052603260045260246000fd5b6020026020010151604051602001615c3592919061650f565b6040516020818303038152906040528051906020012060001c615c5891906176ad565b615c639060016175c5565b9050600086615c73600184617610565b81518110615c9157634e487b7160e01b600052603260045260246000fd5b6020026020010151905086600186615ca99190617610565b81518110615cc757634e487b7160e01b600052603260045260246000fd5b602002602001015187600184615cdd9190617610565b81518110615cfb57634e487b7160e01b600052603260045260246000fd5b60209081029190910101528087615d13600188617610565b81518110615d3157634e487b7160e01b600052603260045260246000fd5b6020908102919091010152615d47600186617610565b945050508080615d5690617692565b915050615be9565b50929392505050565b828054615d7390617657565b90600052602060002090601f016020900481019282615d955760008555615ddb565b82601f10615dae57805160ff1916838001178555615ddb565b82800160010185558215615ddb579182015b82811115615ddb578251825591602001919060010190615dc0565b50615de7929150615f1e565b5090565b508054615df790617657565b6000825580601f10615e0957506120a7565b601f0160209004906000526020600020908101906120a79190615f1e565b60405180608001604052806060815260200160006001600160a01b031681526020016000815260200160006003811115615e7157634e487b7160e01b600052602160045260246000fd5b905290565b604051806101c001604052806000815260200160008152602001600081526020016000815260200160008152602001600015158152602001600015158152602001600015158152602001600081526020016000815260200160008152602001600081526020016060815260200160006003811115615e7157634e487b7160e01b600052602160045260246000fd5b50805460008255906000526020600020908101906120a791905b5b80821115615de75760008155600101615f1f565b80356001600160a01b0381168114610f5e57600080fd5b80518015158114610f5e57600080fd5b805160048110610f5e57600080fd5b600082601f830112615f79578081fd5b8135615f8c615f8782617592565b617569565b818152846020838601011115615fa0578283fd5b816020850160208301379081016020019190915292915050565b600082601f830112615fca578081fd5b8151615fd8615f8782617592565b818152846020838601011115615fec578283fd5b614759826020830160208701617627565b60006020828403121561600e578081fd5b6137a182615f33565b60008060408385031215616029578081fd5b61603283615f33565b946020939093013593505050565b600080600060608486031215616054578081fd5b61605d84615f33565b95602085013595506040909401359392505050565b60006020808385031215616084578182fd5b82356001600160401b038082111561609a578384fd5b818501915085601f8301126160ad578384fd5b8135818111156160bf576160bf6176ed565b83810291506160cf848301617569565b8181528481019084860184860187018a10156160e9578788fd5b8795505b8386101561610b5780358352600195909501949186019186016160ed565b5098975050505050505050565b600060208284031215616129578081fd5b6137a182615f4a565b60008060408385031215616144578182fd5b82356001600160401b038082111561615a578384fd5b61616686838701615f69565b9350602085013591508082111561617b578283fd5b5061618885828601615f69565b9150509250929050565b600080604083850312156161a4578182fd5b82356001600160401b038111156161b9578283fd5b6161c585828601615f69565b95602094909401359450505050565b6000602082840312156161e5578081fd5b81516001600160401b03808211156161fb578283fd5b81840191506101c0808387031215616211578384fd5b61621a81617569565b90508251815260208301516020820152604083015160408201526060830151606082015261624a60808401615f4a565b608082015261625b60a08401615f4a565b60a082015261626c60c08401615f4a565b60c082015260e0838101519082015261010080840151908201526101208084015190820152610140808401519082015261016080840151838111156162af578586fd5b6162bb88828701615fba565b828401525050610180915081830151828201526101a091506162de828401615f5a565b91810191909152949350505050565b6000602082840312156162fe578081fd5b5035919050565b600060208284031215611302578081fd5b60008060408385031215616328578182fd5b8235915061633860208401615f33565b90509250929050565b600080600060608486031215616355578081fd5b505081359360208301359350604090920135919050565b6000806040838503121561637e578182fd5b50508035926020909101359150565b600080600080608085870312156163a2578182fd5b84359350602085013592506163b960408601615f33565b9396929550929360600135925050565b600080600080608085870312156163de578182fd5b843593506020850135925060408501356001600160401b03811115616401578283fd5b61640d87828801615f69565b949793965093946060013593505050565b15159052565b6000815180845261643c816020860160208601617627565b601f01601f19169290920160200192915050565b6004811061646e57634e487b7160e01b600052602160045260246000fd5b9052565b600a8152690c6dedadad2e890c2e6d60b31b602082015260400190565b60098152686e756d546f6b656e7360b81b602082015260400190565b60609190911b6bffffffffffffffffffffffff1916815260140190565b60609290921b6bffffffffffffffffffffffff19168252601482015260340190565b90815260200190565b60008251616505818460208701617627565b9190910192915050565b918252602082015260400190565b6001600160a01b0391909116815260200190565b6001600160a01b038b811682528a1660208201526040810189905287151560608201526080810187905260a0810186905261014060c0820181905260009061657b83820188616424565b95151560e0840152505091151561010083015261012090910152979650505050505050565b6000602080830181845280855180835260408601915060408482028701019250838701855b828110156165f357603f198886030184526165e1858351616424565b945092850192908501906001016165c5565b5092979650505050505050565b6020808252825182820181905260009190848201906040850190845b818110156166385783518352928401929184019160010161661c565b50909695505050505050565b901515815260200190565b6000602082526137a16020830184616424565b6000604082526166756040830185616424565b905060018060a01b03831660208301529392505050565b60006080825261669f6080830187616424565b6001600160a01b03861660208401526040830185905290506166c46060830184616450565b95945050505050565b6000604082526166e06040830185616424565b90508260208301529392505050565b600060208083528184548360028204905060018083168061671157607f831692505b85831081141561672f57634e487b7160e01b87526022600452602487fd5b61673b83878a016164ea565b81801561674f57600181146167605761678a565b60ff1986168252878201965061678a565b6167698b6175b9565b895b868110156167845781548482015290850190890161676b565b83019750505b50949998505050505050505050565b6020808252601c908201527f576f726b657220697320616c7265616479207265676973746572656400000000604082015260600190565b60208082526031908201527f676976656e204461746142617463682073686f756c6420626520415050524f5660408201527011510b08185b99081a5d081a5cc81b9bdd607a1b606082015260800190565b60208082526025908201527f72656365697665722072656a6563746564205f7265747269657665534675656c6040820152640818d85b1b60da1b606082015260800190565b60208082526026908201527f4f776e61626c653a206e6577206f776e657220697320746865207a65726f206160408201526564647265737360d01b606082015260800190565b60208082526029908201527f6b206f72204e20617265206e6f74204f4b20647572696e672072616e646f6d2060408201526839b2b632b1ba34b7b760b91b606082015260800190565b6020808252602a908201527f4661696c20647572696e6720616c6c6f636174696f6e3a206e6f7420656e6f75604082015269676820776f726b65727360b01b606082015260800190565b6020808252601e908201527f636f6d6d697420706572696f64206e6565647320746f206265206f70656e0000604082015260600190565b60208082526038908201527f55736572206e6565647320746f20626520616c6c6f636174656420746f20746860408201527f697320626174636820746f20636f6d6d6974206f6e2069740000000000000000606082015260800190565b6020808252602f908201527f636f756c64206e6f742072657761726420746f6b656e20696e2054726967676560408201526e3921b432b1b5a9b837ba161018973160891b606082015260800190565b6020808252603d908201527f436f756c64206e6f74207265717565737420656e6f75676820616c6c6f63617460408201527f6564207374616b652c2072657175657374566f74696e67526967687473000000606082015260800190565b6020808252602f908201527f5573657220686173206e6f7420636f6d6d69746564206265666f72652c20746860408201526e1d5cc818d85b89dd081c995d99585b608a1b606082015260800190565b60208082526043908201527f576f726b657220686173206e6f7420656e6f75676820285f6e756d546f6b656e60408201527f732920696e2068697320466f726d61745374616b6564546f6b656e42616c616e606082015262031b2960ed1b608082015260a00190565b6020808252602d908201527f636f756c64206e6f74207265776172642052455020696e20547269676765724360408201526c6865636b53706f742c20312e6160981b606082015260800190565b60208082526039908201527f646c6c4d61703a20646f6573206e6f7420636f696e7461696e205f446174614260408201527f61746368496420666f7220746865206d73672073656e64657200000000000000606082015260800190565b6020808252602b908201527f75736572206d75737420686176652072657665616c656420696e20746869732060408201526a0ced2eccadc4084c2e8c6d60ab1b606082015260800190565b6020808252601490820152733737ba1030903b30b634b2103837b9b4ba34b7b760611b604082015260600190565b6020808252603a908201527f576f726b65722063757272656e746c792068617320776f726b20616c6c6f636160408201527f7465642c2063616e277420626520756e72656769737465726564000000000000606082015260800190565b6020808252603b908201527f43616e277420616c6c6f6361746520776f726b2c207468652063757272656e7460408201527f20626174636820697320616c726561647920616c6c6f63617465640000000000606082015260800190565b6020808252602c908201527f576f726b6572206973206e6f74207265676973746572656420736f2063616e2760408201526b3a103ab73932b3b4b9ba32b960a11b606082015260800190565b6020808252818101527f4f776e61626c653a2063616c6c6572206973206e6f7420746865206f776e6572604082015260600190565b6020808252603a908201527f5f446174614261746368496420686173206e6f7420656e6465642c206f72206e60408201527f6f7420657665727920766f74657273206861766520766f746564000000000000606082015260800190565b6020808252603e908201527f436f756c64206e6f74206d6174636820656e637279707465642068617368202660408201527f20636c6561722068617368207769746820676976656e20696e707574732e0000606082015260800190565b60208082526029908201527f6765744e756d50617373696e67546f6b656e733a20686173686573206d75737460408201526808189948195c5d585b60ba1b606082015260800190565b60208082526036908201527f43616e277420616c6c6f6361746520776f726b2c207468652063757272656e74604082015275206261746368206973206e6f7420636f6d706c65746560501b606082015260800190565b60208082526026908201527f52657665616c20706572696f64206e6f74206f70656e20666f7220746869732060408201526511185d18525160d21b606082015260800190565b60208082526027908201527f617661696c61626c65546f6b656e732073686f756c64206265203e3d205f6e756040820152666d546f6b656e7360c81b606082015260800190565b60208082526017908201527f5f4461746142617463684964206d757374206578697374000000000000000000604082015260600190565b6020808252601390820152720c081059191c995cdcc8139bdd0815985b1a59606a1b604082015260600190565b6020808252602f908201527f636f756c64206e6f742072657761726420746f6b656e20696e2054726967676560408201526e3921b432b1b5a9b837ba161019173160891b606082015260800190565b60208082526021908201527f5f446174614261746368496420697320616c72656164792076616c69646174656040820152601960fa1b606082015260800190565b60208082526029908201527f557365722068617320616c726561647920636f6d6d6974656420746f207468696040820152681cc818985d18da125960ba1b606082015260800190565b60208082526022908201527f4d6178696d756d207265676973746572656420776f726b65727320616c726561604082015261647960f01b606082015260800190565b60208082526037908201527f75736572206d757374206861766520656e6f75676820766f74696e672072696760408201527f68747320616b6120616c6c6f6361746564207374616b65000000000000000000606082015260800190565b6020808252602d908201527f636f756c64206e6f74207265776172642052455020696e20547269676765724360408201526c6865636b53706f742c20322e6160981b606082015260800190565b6020808252602a908201527f5f446174614261746368496420636865636b696e6720766f7465206d757374206040820152691a185d9948195b99195960b21b606082015260800190565b6020808252603b908201527f436f756c64206e6f74207769746864726177566f74696e67526967687473207460408201527f68726f7567682050726f78795374616b654465616c6c6f636174650000000000606082015260800190565b6020808252600f908201526e11185d18481b5d5cdd08195e1a5cdd608a1b604082015260600190565b6020808252602c908201527f557365722068617320616c72656164792072657665616c65642c20746875732060408201526b18d85b89dd081c995d99585b60a21b606082015260800190565b60006020825282516020830152602083015160408301526040830151606083015260608301516080830152608083015160a083015260a083015161730760c084018261641e565b5060c083015161731a60e084018261641e565b5060e083015161010061732f8185018361641e565b840151610120848101919091528401516101408085019190915284015161016080850191909152840151610180808501919091528401516101c06101a0808601829052919250906173846101e0860184616424565b9086015190925061435c85830182616450565b60008382528260208301526060604083015261475960608301616472565b6000848252836020830152608060408301526173d360808301616472565b9050826060830152949350505050565b6000838252826020830152606060408301526147596060830161648f565b6000848252836020830152608060408301526173d36080830161648f565b93845260208401929092526040830152606082015260800190565b60006020825282516080602084015261745660a0840182616424565b905060018060a01b0360208501511660408401526040840151606084015260608401516174866080850182616450565b509392505050565b9182526001600160a01b0316602082015260400190565b9182526001600160a01b031660208201526000604082015260600190565b9283526020830191909152604082015260600190565b60008f82528e60208301528d60408301528c60608301528b60808301528a151560a083015289151560c083015261751360e083018a61641e565b876101008301528661012083015285610140830152846101608301526101c06101808301526175466101c0830185616424565b90506175566101a0830184616450565b9f9e505050505050505050505050505050565b6040518181016001600160401b038111828210171561758a5761758a6176ed565b604052919050565b60006001600160401b038211156175ab576175ab6176ed565b50601f01601f191660200190565b60009081526020902090565b600082198211156175d8576175d86176c1565b500190565b6000826175ec576175ec6176d7565b500490565b600081600019048311821515161561760b5761760b6176c1565b500290565b600082821015617622576176226176c1565b500390565b60005b8381101561764257818101518382015260200161762a565b83811115617651576000848401525b50505050565b60028104600182168061766b57607f821691505b6020821081141561768c57634e487b7160e01b600052602260045260246000fd5b50919050565b60006000198214156176a6576176a66176c1565b5060010190565b6000826176bc576176bc6176d7565b500690565b634e487b7160e01b600052601160045260246000fd5b634e487b7160e01b600052601260045260246000fd5b634e487b7160e01b600052604160045260246000fdfea26469706673582212200abf9f44be235cbe680ed86a3637edc047566352674d4b916e2b2f461a444d3764736f6c63430008000033",
  "linkReferences": {
    "contracts/worksystems/DataFormatting.sol": {
      "AttributeStore2": [
        {
          "length": 20,
          "start": 17341
        },
        {
          "length": 20,
          "start": 17819
        },
        {
          "length": 20,
          "start": 21890
        },
        {
          "length": 20,
          "start": 21996
        }
      ],
      "DLL2": [
        {
          "length": 20,
          "start": 5740
        },
        {
          "length": 20,
          "start": 6268
        },
        {
          "length": 20,
          "start": 14245
        },
        {
          "length": 20,
          "start": 14425
        },
        {
          "length": 20,
          "start": 21410
        },
        {
          "length": 20,
          "start": 21572
        },
        {
          "length": 20,
          "start": 21767
        }
      ]
    }
  },
  "deployedLinkReferences": {
    "contracts/worksystems/DataFormatting.sol": {
      "AttributeStore2": [
        {
          "length": 20,
          "start": 16890
        },
        {
          "length": 20,
          "start": 17368
        },
        {
          "length": 20,
          "start": 21439
        },
        {
          "length": 20,
          "start": 21545
        }
      ],
      "DLL2": [
        {
          "length": 20,
          "start": 5289
        },
        {
          "length": 20,
          "start": 5817
        },
        {
          "length": 20,
          "start": 13794
        },
        {
          "length": 20,
          "start": 13974
        },
        {
          "length": 20,
          "start": 20959
        },
        {
          "length": 20,
          "start": 21121
        },
        {
          "length": 20,
          "start": 21316
        }
      ]
    }
  }
}