{
  "_format": "hh-sol-artifact-1",
  "contractName": "DataFormatting",
  "sourceName": "contracts/worksystems/DataFormatting.sol",
  "abi": [
    {
      "inputs": [
        {
          "internalType": "address",
          "name": "EXDT_token",
          "type": "address"
        }
      ],
      "stateMutability": "nonpayable",
      "type": "constructor"
    },
    {
      "anonymous": false,
      "inputs": [
        {
          "indexed": false,
          "internalType": "bytes",
          "name": "bytesFailure",
          "type": "bytes"
        }
      ],
      "name": "BytesFailure",
      "type": "event"
    },
    {
      "anonymous": false,
      "inputs": [
        {
          "indexed": true,
          "internalType": "address",
          "name": "previousOwner",
          "type": "address"
        },
        {
          "indexed": true,
          "internalType": "address",
          "name": "newOwner",
          "type": "address"
        }
      ],
      "name": "OwnershipTransferred",
      "type": "event"
    },
    {
      "anonymous": false,
      "inputs": [
        {
          "indexed": false,
          "internalType": "string",
          "name": "hash",
          "type": "string"
        },
        {
          "indexed": true,
          "internalType": "address",
          "name": "creator",
          "type": "address"
        }
      ],
      "name": "_FormatAccepted",
      "type": "event"
    },
    {
      "anonymous": false,
      "inputs": [
        {
          "indexed": true,
          "internalType": "uint256",
          "name": "DataID",
          "type": "uint256"
        },
        {
          "indexed": false,
          "internalType": "uint256",
          "name": "numTokens",
          "type": "uint256"
        },
        {
          "indexed": true,
          "internalType": "address",
          "name": "voter",
          "type": "address"
        }
      ],
      "name": "_FormatCheckCommitted",
      "type": "event"
    },
    {
      "anonymous": false,
      "inputs": [
        {
          "indexed": true,
          "internalType": "uint256",
          "name": "DataID",
          "type": "uint256"
        },
        {
          "indexed": false,
          "internalType": "uint256",
          "name": "numTokens",
          "type": "uint256"
        },
        {
          "indexed": false,
          "internalType": "uint256",
          "name": "votesFor",
          "type": "uint256"
        },
        {
          "indexed": false,
          "internalType": "uint256",
          "name": "votesAgainst",
          "type": "uint256"
        },
        {
          "indexed": true,
          "internalType": "uint256",
          "name": "choice",
          "type": "uint256"
        },
        {
          "indexed": true,
          "internalType": "address",
          "name": "voter",
          "type": "address"
        }
      ],
      "name": "_FormatCheckRevealed",
      "type": "event"
    },
    {
      "anonymous": false,
      "inputs": [
        {
          "indexed": true,
          "internalType": "uint256",
          "name": "DataID",
          "type": "uint256"
        },
        {
          "indexed": false,
          "internalType": "string",
          "name": "file_hash",
          "type": "string"
        },
        {
          "indexed": false,
          "internalType": "address",
          "name": "sender",
          "type": "address"
        }
      ],
      "name": "_FormatSubmitted",
      "type": "event"
    },
    {
      "anonymous": false,
      "inputs": [
        {
          "indexed": true,
          "internalType": "uint256",
          "name": "epochNumber",
          "type": "uint256"
        }
      ],
      "name": "_NewEpoch",
      "type": "event"
    },
    {
      "anonymous": false,
      "inputs": [
        {
          "indexed": true,
          "internalType": "uint256",
          "name": "DataID",
          "type": "uint256"
        },
        {
          "indexed": true,
          "internalType": "address",
          "name": "voter",
          "type": "address"
        }
      ],
      "name": "_TokensRescued",
      "type": "event"
    },
    {
      "anonymous": false,
      "inputs": [
        {
          "indexed": false,
          "internalType": "uint256",
          "name": "numTokens",
          "type": "uint256"
        },
        {
          "indexed": true,
          "internalType": "address",
          "name": "voter",
          "type": "address"
        }
      ],
      "name": "_VotingRightsGranted",
      "type": "event"
    },
    {
      "anonymous": false,
      "inputs": [
        {
          "indexed": false,
          "internalType": "uint256",
          "name": "numTokens",
          "type": "uint256"
        },
        {
          "indexed": true,
          "internalType": "address",
          "name": "voter",
          "type": "address"
        }
      ],
      "name": "_VotingRightsWithdrawn",
      "type": "event"
    },
    {
      "anonymous": false,
      "inputs": [
        {
          "indexed": true,
          "internalType": "uint256",
          "name": "batchID",
          "type": "uint256"
        },
        {
          "indexed": false,
          "internalType": "address",
          "name": "worker",
          "type": "address"
        }
      ],
      "name": "_WorkAllocated",
      "type": "event"
    },
    {
      "anonymous": false,
      "inputs": [
        {
          "indexed": true,
          "internalType": "address",
          "name": "worker",
          "type": "address"
        },
        {
          "indexed": false,
          "internalType": "uint256",
          "name": "timestamp",
          "type": "uint256"
        }
      ],
      "name": "_WorkerRegistered",
      "type": "event"
    },
    {
      "anonymous": false,
      "inputs": [
        {
          "indexed": true,
          "internalType": "address",
          "name": "worker",
          "type": "address"
        },
        {
          "indexed": false,
          "internalType": "uint256",
          "name": "timestamp",
          "type": "uint256"
        }
      ],
      "name": "_WorkerUnregistered",
      "type": "event"
    },
    {
      "inputs": [],
      "name": "AcceptedBatchsCounter",
      "outputs": [
        {
          "internalType": "uint256",
          "name": "",
          "type": "uint256"
        }
      ],
      "stateMutability": "view",
      "type": "function"
    },
    {
      "inputs": [],
      "name": "AddressManager",
      "outputs": [
        {
          "internalType": "contract IAddressManager",
          "name": "",
          "type": "address"
        }
      ],
      "stateMutability": "view",
      "type": "function"
    },
    {
      "inputs": [],
      "name": "AllTxsCounter",
      "outputs": [
        {
          "internalType": "uint256",
          "name": "",
          "type": "uint256"
        }
      ],
      "stateMutability": "view",
      "type": "function"
    },
    {
      "inputs": [],
      "name": "AllocateWork",
      "outputs": [],
      "stateMutability": "nonpayable",
      "type": "function"
    },
    {
      "inputs": [],
      "name": "AllocatedBatchCursor",
      "outputs": [
        {
          "internalType": "uint256",
          "name": "",
          "type": "uint256"
        }
      ],
      "stateMutability": "view",
      "type": "function"
    },
    {
      "inputs": [],
      "name": "AmIRegistered",
      "outputs": [
        {
          "internalType": "bool",
          "name": "passed",
          "type": "bool"
        }
      ],
      "stateMutability": "view",
      "type": "function"
    },
    {
      "inputs": [],
      "name": "ArchiveSystem",
      "outputs": [
        {
          "internalType": "contract IArchiveSystem",
          "name": "",
          "type": "address"
        }
      ],
      "stateMutability": "view",
      "type": "function"
    },
    {
      "inputs": [
        {
          "internalType": "string",
          "name": "_a",
          "type": "string"
        },
        {
          "internalType": "string",
          "name": "_b",
          "type": "string"
        }
      ],
      "name": "AreStringsEqual",
      "outputs": [
        {
          "internalType": "bool",
          "name": "",
          "type": "bool"
        }
      ],
      "stateMutability": "pure",
      "type": "function"
    },
    {
      "inputs": [],
      "name": "BatchCheckingCursor",
      "outputs": [
        {
          "internalType": "uint256",
          "name": "",
          "type": "uint256"
        }
      ],
      "stateMutability": "view",
      "type": "function"
    },
    {
      "inputs": [],
      "name": "COMMIT_ROUND_DURATION",
      "outputs": [
        {
          "internalType": "uint256",
          "name": "",
          "type": "uint256"
        }
      ],
      "stateMutability": "view",
      "type": "function"
    },
    {
      "inputs": [],
      "name": "CONSENSUS_WORKER_SIZE",
      "outputs": [
        {
          "internalType": "uint256",
          "name": "",
          "type": "uint256"
        }
      ],
      "stateMutability": "view",
      "type": "function"
    },
    {
      "inputs": [
        {
          "internalType": "uint256",
          "name": "",
          "type": "uint256"
        }
      ],
      "name": "CollectedSpotBatchs",
      "outputs": [
        {
          "internalType": "bool",
          "name": "",
          "type": "bool"
        }
      ],
      "stateMutability": "view",
      "type": "function"
    },
    {
      "inputs": [],
      "name": "CurrentWorkEpoch",
      "outputs": [
        {
          "internalType": "uint256",
          "name": "",
          "type": "uint256"
        }
      ],
      "stateMutability": "view",
      "type": "function"
    },
    {
      "inputs": [],
      "name": "DATA_BATCH_SIZE",
      "outputs": [
        {
          "internalType": "uint256",
          "name": "",
          "type": "uint256"
        }
      ],
      "stateMutability": "view",
      "type": "function"
    },
    {
      "inputs": [
        {
          "internalType": "uint256",
          "name": "",
          "type": "uint256"
        }
      ],
      "name": "DataBatch",
      "outputs": [
        {
          "internalType": "uint256",
          "name": "start_idx",
          "type": "uint256"
        },
        {
          "internalType": "uint256",
          "name": "counter",
          "type": "uint256"
        },
        {
          "internalType": "uint256",
          "name": "unrevealed_workers",
          "type": "uint256"
        },
        {
          "internalType": "uint256",
          "name": "uncommited_workers",
          "type": "uint256"
        },
        {
          "internalType": "uint256",
          "name": "item_count",
          "type": "uint256"
        },
        {
          "internalType": "bool",
          "name": "complete",
          "type": "bool"
        },
        {
          "internalType": "bool",
          "name": "checked",
          "type": "bool"
        },
        {
          "internalType": "bool",
          "name": "allocated_to_work",
          "type": "bool"
        },
        {
          "internalType": "uint256",
          "name": "commitEndDate",
          "type": "uint256"
        },
        {
          "internalType": "uint256",
          "name": "revealEndDate",
          "type": "uint256"
        },
        {
          "internalType": "uint256",
          "name": "votesFor",
          "type": "uint256"
        },
        {
          "internalType": "uint256",
          "name": "votesAgainst",
          "type": "uint256"
        },
        {
          "internalType": "string",
          "name": "batchIPFSfile",
          "type": "string"
        },
        {
          "internalType": "enum DataFormatting.DataStatus",
          "name": "status",
          "type": "uint8"
        }
      ],
      "stateMutability": "view",
      "type": "function"
    },
    {
      "inputs": [
        {
          "internalType": "uint256",
          "name": "_DataBatchId",
          "type": "uint256"
        }
      ],
      "name": "DataCommitEndDate",
      "outputs": [
        {
          "internalType": "uint256",
          "name": "commitEndDate",
          "type": "uint256"
        }
      ],
      "stateMutability": "view",
      "type": "function"
    },
    {
      "inputs": [
        {
          "internalType": "uint256",
          "name": "_DataBatchId",
          "type": "uint256"
        }
      ],
      "name": "DataEnded",
      "outputs": [
        {
          "internalType": "bool",
          "name": "ended",
          "type": "bool"
        }
      ],
      "stateMutability": "view",
      "type": "function"
    },
    {
      "inputs": [
        {
          "internalType": "uint256",
          "name": "_DataBatchId",
          "type": "uint256"
        }
      ],
      "name": "DataExists",
      "outputs": [
        {
          "internalType": "bool",
          "name": "exists",
          "type": "bool"
        }
      ],
      "stateMutability": "view",
      "type": "function"
    },
    {
      "inputs": [],
      "name": "DataNonce",
      "outputs": [
        {
          "internalType": "uint256",
          "name": "",
          "type": "uint256"
        }
      ],
      "stateMutability": "view",
      "type": "function"
    },
    {
      "inputs": [
        {
          "internalType": "uint256",
          "name": "_DataBatchId",
          "type": "uint256"
        }
      ],
      "name": "DataRevealEndDate",
      "outputs": [
        {
          "internalType": "uint256",
          "name": "revealEndDate",
          "type": "uint256"
        }
      ],
      "stateMutability": "view",
      "type": "function"
    },
    {
      "inputs": [
        {
          "internalType": "address",
          "name": "",
          "type": "address"
        }
      ],
      "name": "FormatStakedTokenBalance",
      "outputs": [
        {
          "internalType": "uint256",
          "name": "",
          "type": "uint256"
        }
      ],
      "stateMutability": "view",
      "type": "function"
    },
    {
      "inputs": [
        {
          "internalType": "uint256",
          "name": "",
          "type": "uint256"
        }
      ],
      "name": "FormatsMapping",
      "outputs": [
        {
          "internalType": "string",
          "name": "ipfs_hash",
          "type": "string"
        },
        {
          "internalType": "address",
          "name": "author",
          "type": "address"
        },
        {
          "internalType": "uint256",
          "name": "timestamp",
          "type": "uint256"
        },
        {
          "internalType": "enum DataFormatting.DataStatus",
          "name": "status",
          "type": "uint8"
        }
      ],
      "stateMutability": "view",
      "type": "function"
    },
    {
      "inputs": [
        {
          "internalType": "address",
          "name": "user_",
          "type": "address"
        }
      ],
      "name": "GetCurrentWork",
      "outputs": [
        {
          "internalType": "uint256",
          "name": "",
          "type": "uint256"
        }
      ],
      "stateMutability": "view",
      "type": "function"
    },
    {
      "inputs": [
        {
          "internalType": "address",
          "name": "user_",
          "type": "address"
        }
      ],
      "name": "IsNewWorkAvailable",
      "outputs": [
        {
          "internalType": "bool",
          "name": "",
          "type": "bool"
        }
      ],
      "stateMutability": "view",
      "type": "function"
    },
    {
      "inputs": [],
      "name": "LastBatchCounter",
      "outputs": [
        {
          "internalType": "uint256",
          "name": "",
          "type": "uint256"
        }
      ],
      "stateMutability": "view",
      "type": "function"
    },
    {
      "inputs": [],
      "name": "MIN_CONSENSUS_WORKER_COUNT",
      "outputs": [
        {
          "internalType": "uint256",
          "name": "",
          "type": "uint256"
        }
      ],
      "stateMutability": "view",
      "type": "function"
    },
    {
      "inputs": [],
      "name": "MIN_REP_Data",
      "outputs": [
        {
          "internalType": "uint256",
          "name": "",
          "type": "uint256"
        }
      ],
      "stateMutability": "view",
      "type": "function"
    },
    {
      "inputs": [],
      "name": "MIN_REP_REVEAL",
      "outputs": [
        {
          "internalType": "uint256",
          "name": "",
          "type": "uint256"
        }
      ],
      "stateMutability": "view",
      "type": "function"
    },
    {
      "inputs": [],
      "name": "MIN_REWARD_Data",
      "outputs": [
        {
          "internalType": "uint256",
          "name": "",
          "type": "uint256"
        }
      ],
      "stateMutability": "view",
      "type": "function"
    },
    {
      "inputs": [],
      "name": "MIN_STAKE",
      "outputs": [
        {
          "internalType": "uint256",
          "name": "",
          "type": "uint256"
        }
      ],
      "stateMutability": "view",
      "type": "function"
    },
    {
      "inputs": [
        {
          "internalType": "address",
          "name": "",
          "type": "address"
        },
        {
          "internalType": "uint256",
          "name": "",
          "type": "uint256"
        }
      ],
      "name": "MasterWorkers",
      "outputs": [
        {
          "internalType": "address",
          "name": "",
          "type": "address"
        }
      ],
      "stateMutability": "view",
      "type": "function"
    },
    {
      "inputs": [],
      "name": "NotCommitedCounter",
      "outputs": [
        {
          "internalType": "uint256",
          "name": "",
          "type": "uint256"
        }
      ],
      "stateMutability": "view",
      "type": "function"
    },
    {
      "inputs": [],
      "name": "NotRevealedCounter",
      "outputs": [
        {
          "internalType": "uint256",
          "name": "",
          "type": "uint256"
        }
      ],
      "stateMutability": "view",
      "type": "function"
    },
    {
      "inputs": [
        {
          "internalType": "uint256",
          "name": "CheckedBatchId",
          "type": "uint256"
        }
      ],
      "name": "Ping",
      "outputs": [
        {
          "internalType": "bool",
          "name": "",
          "type": "bool"
        }
      ],
      "stateMutability": "nonpayable",
      "type": "function"
    },
    {
      "inputs": [],
      "name": "REVEAL_ROUND_DURATION",
      "outputs": [
        {
          "internalType": "uint256",
          "name": "",
          "type": "uint256"
        }
      ],
      "stateMutability": "view",
      "type": "function"
    },
    {
      "inputs": [],
      "name": "RegisterWorker",
      "outputs": [],
      "stateMutability": "nonpayable",
      "type": "function"
    },
    {
      "inputs": [],
      "name": "RejectedBatchsCounter",
      "outputs": [
        {
          "internalType": "uint256",
          "name": "",
          "type": "uint256"
        }
      ],
      "stateMutability": "view",
      "type": "function"
    },
    {
      "inputs": [],
      "name": "RepManager",
      "outputs": [
        {
          "internalType": "contract IRepManager",
          "name": "",
          "type": "address"
        }
      ],
      "stateMutability": "view",
      "type": "function"
    },
    {
      "inputs": [],
      "name": "RewardManager",
      "outputs": [
        {
          "internalType": "contract IRewardManager",
          "name": "",
          "type": "address"
        }
      ],
      "stateMutability": "view",
      "type": "function"
    },
    {
      "inputs": [],
      "name": "SpottingSystem",
      "outputs": [
        {
          "internalType": "contract ISpottingSystem",
          "name": "",
          "type": "address"
        }
      ],
      "stateMutability": "view",
      "type": "function"
    },
    {
      "inputs": [],
      "name": "StakeManager",
      "outputs": [
        {
          "internalType": "contract IStakeManager",
          "name": "",
          "type": "address"
        }
      ],
      "stateMutability": "view",
      "type": "function"
    },
    {
      "inputs": [],
      "name": "TriggerNextEpoch",
      "outputs": [],
      "stateMutability": "nonpayable",
      "type": "function"
    },
    {
      "inputs": [],
      "name": "UnregisterWorker",
      "outputs": [],
      "stateMutability": "nonpayable",
      "type": "function"
    },
    {
      "inputs": [
        {
          "internalType": "uint256",
          "name": "",
          "type": "uint256"
        },
        {
          "internalType": "address",
          "name": "",
          "type": "address"
        }
      ],
      "name": "UserBatchCounts",
      "outputs": [
        {
          "internalType": "uint256",
          "name": "",
          "type": "uint256"
        }
      ],
      "stateMutability": "view",
      "type": "function"
    },
    {
      "inputs": [
        {
          "internalType": "address",
          "name": "",
          "type": "address"
        },
        {
          "internalType": "uint256",
          "name": "",
          "type": "uint256"
        }
      ],
      "name": "UserChecksCommits",
      "outputs": [
        {
          "internalType": "bool",
          "name": "",
          "type": "bool"
        }
      ],
      "stateMutability": "view",
      "type": "function"
    },
    {
      "inputs": [
        {
          "internalType": "address",
          "name": "",
          "type": "address"
        },
        {
          "internalType": "uint256",
          "name": "",
          "type": "uint256"
        }
      ],
      "name": "UserChecksReveals",
      "outputs": [
        {
          "internalType": "bool",
          "name": "",
          "type": "bool"
        }
      ],
      "stateMutability": "view",
      "type": "function"
    },
    {
      "inputs": [
        {
          "internalType": "uint256",
          "name": "",
          "type": "uint256"
        },
        {
          "internalType": "address",
          "name": "",
          "type": "address"
        }
      ],
      "name": "UserNewFiles",
      "outputs": [
        {
          "internalType": "string",
          "name": "",
          "type": "string"
        }
      ],
      "stateMutability": "view",
      "type": "function"
    },
    {
      "inputs": [
        {
          "internalType": "uint256",
          "name": "",
          "type": "uint256"
        },
        {
          "internalType": "address",
          "name": "",
          "type": "address"
        }
      ],
      "name": "UserVotes",
      "outputs": [
        {
          "internalType": "uint256",
          "name": "",
          "type": "uint256"
        }
      ],
      "stateMutability": "view",
      "type": "function"
    },
    {
      "inputs": [],
      "name": "VOTE_QUORUM",
      "outputs": [
        {
          "internalType": "uint256",
          "name": "",
          "type": "uint256"
        }
      ],
      "stateMutability": "view",
      "type": "function"
    },
    {
      "inputs": [
        {
          "internalType": "uint256",
          "name": "_DataBatchId",
          "type": "uint256"
        }
      ],
      "name": "ValidateDataBatch",
      "outputs": [],
      "stateMutability": "nonpayable",
      "type": "function"
    },
    {
      "inputs": [
        {
          "internalType": "uint256",
          "name": "",
          "type": "uint256"
        },
        {
          "internalType": "uint256",
          "name": "",
          "type": "uint256"
        }
      ],
      "name": "WorkersPerBatch",
      "outputs": [
        {
          "internalType": "address",
          "name": "",
          "type": "address"
        }
      ],
      "stateMutability": "view",
      "type": "function"
    },
    {
      "inputs": [
        {
          "internalType": "address",
          "name": "",
          "type": "address"
        }
      ],
      "name": "WorkersState",
      "outputs": [
        {
          "internalType": "address",
          "name": "worker_address",
          "type": "address"
        },
        {
          "internalType": "address",
          "name": "master_address",
          "type": "address"
        },
        {
          "internalType": "uint256",
          "name": "allocated_work_batch",
          "type": "uint256"
        },
        {
          "internalType": "bool",
          "name": "has_completed_work",
          "type": "bool"
        },
        {
          "internalType": "uint256",
          "name": "last_worked_round",
          "type": "uint256"
        },
        {
          "internalType": "uint256",
          "name": "last_interaction_date",
          "type": "uint256"
        },
        {
          "internalType": "string",
          "name": "extra",
          "type": "string"
        },
        {
          "internalType": "bool",
          "name": "registered",
          "type": "bool"
        },
        {
          "internalType": "bool",
          "name": "unregistration_request",
          "type": "bool"
        },
        {
          "internalType": "uint256",
          "name": "registration_date",
          "type": "uint256"
        }
      ],
      "stateMutability": "view",
      "type": "function"
    },
    {
      "inputs": [
        {
          "internalType": "address",
          "name": "_user",
          "type": "address"
        },
        {
          "internalType": "uint256",
          "name": "_DataBatchId",
          "type": "uint256"
        }
      ],
      "name": "attrUUID",
      "outputs": [
        {
          "internalType": "bytes32",
          "name": "UUID",
          "type": "bytes32"
        }
      ],
      "stateMutability": "pure",
      "type": "function"
    },
    {
      "inputs": [
        {
          "internalType": "uint256",
          "name": "",
          "type": "uint256"
        }
      ],
      "name": "availableWorkers",
      "outputs": [
        {
          "internalType": "address",
          "name": "",
          "type": "address"
        }
      ],
      "stateMutability": "view",
      "type": "function"
    },
    {
      "inputs": [
        {
          "internalType": "uint256",
          "name": "",
          "type": "uint256"
        }
      ],
      "name": "busyWorkers",
      "outputs": [
        {
          "internalType": "address",
          "name": "",
          "type": "address"
        }
      ],
      "stateMutability": "view",
      "type": "function"
    },
    {
      "inputs": [
        {
          "internalType": "uint256",
          "name": "_DataBatchId",
          "type": "uint256"
        },
        {
          "internalType": "bytes32",
          "name": "_secretIPFSHash",
          "type": "bytes32"
        },
        {
          "internalType": "uint256",
          "name": "_BatchCount",
          "type": "uint256"
        }
      ],
      "name": "commitFormatCheck",
      "outputs": [],
      "stateMutability": "nonpayable",
      "type": "function"
    },
    {
      "inputs": [
        {
          "internalType": "uint256",
          "name": "_DataBatchId",
          "type": "uint256"
        }
      ],
      "name": "commitPeriodActive",
      "outputs": [
        {
          "internalType": "bool",
          "name": "active",
          "type": "bool"
        }
      ],
      "stateMutability": "view",
      "type": "function"
    },
    {
      "inputs": [
        {
          "internalType": "uint256",
          "name": "_DataId",
          "type": "uint256"
        }
      ],
      "name": "deleteData",
      "outputs": [],
      "stateMutability": "nonpayable",
      "type": "function"
    },
    {
      "inputs": [
        {
          "internalType": "uint256",
          "name": "_BatchId",
          "type": "uint256"
        }
      ],
      "name": "deleteDataBatch",
      "outputs": [],
      "stateMutability": "nonpayable",
      "type": "function"
    },
    {
      "inputs": [
        {
          "internalType": "uint256",
          "name": "_BatchId",
          "type": "uint256"
        }
      ],
      "name": "deleteMapping",
      "outputs": [],
      "stateMutability": "nonpayable",
      "type": "function"
    },
    {
      "inputs": [
        {
          "internalType": "address",
          "name": "_voter",
          "type": "address"
        },
        {
          "internalType": "uint256",
          "name": "_DataBatchId",
          "type": "uint256"
        }
      ],
      "name": "didCommit",
      "outputs": [
        {
          "internalType": "bool",
          "name": "committed",
          "type": "bool"
        }
      ],
      "stateMutability": "view",
      "type": "function"
    },
    {
      "inputs": [
        {
          "internalType": "address",
          "name": "_voter",
          "type": "address"
        },
        {
          "internalType": "uint256",
          "name": "_DataBatchId",
          "type": "uint256"
        }
      ],
      "name": "didReveal",
      "outputs": [
        {
          "internalType": "bool",
          "name": "revealed",
          "type": "bool"
        }
      ],
      "stateMutability": "view",
      "type": "function"
    },
    {
      "inputs": [
        {
          "internalType": "uint256",
          "name": "_k",
          "type": "uint256"
        },
        {
          "internalType": "uint256",
          "name": "N_range",
          "type": "uint256"
        }
      ],
      "name": "generateIntegers",
      "outputs": [
        {
          "internalType": "uint256[]",
          "name": "",
          "type": "uint256[]"
        }
      ],
      "stateMutability": "view",
      "type": "function"
    },
    {
      "inputs": [],
      "name": "getAcceptedBatchesCount",
      "outputs": [
        {
          "internalType": "uint256",
          "name": "count",
          "type": "uint256"
        }
      ],
      "stateMutability": "view",
      "type": "function"
    },
    {
      "inputs": [],
      "name": "getActiveWorkersCount",
      "outputs": [
        {
          "internalType": "uint256",
          "name": "numWorkers",
          "type": "uint256"
        }
      ],
      "stateMutability": "view",
      "type": "function"
    },
    {
      "inputs": [
        {
          "internalType": "uint256",
          "name": "_DataBatchId",
          "type": "uint256"
        }
      ],
      "name": "getBatchByID",
      "outputs": [
        {
          "components": [
            {
              "internalType": "uint256",
              "name": "start_idx",
              "type": "uint256"
            },
            {
              "internalType": "uint256",
              "name": "counter",
              "type": "uint256"
            },
            {
              "internalType": "uint256",
              "name": "unrevealed_workers",
              "type": "uint256"
            },
            {
              "internalType": "uint256",
              "name": "uncommited_workers",
              "type": "uint256"
            },
            {
              "internalType": "uint256",
              "name": "item_count",
              "type": "uint256"
            },
            {
              "internalType": "bool",
              "name": "complete",
              "type": "bool"
            },
            {
              "internalType": "bool",
              "name": "checked",
              "type": "bool"
            },
            {
              "internalType": "bool",
              "name": "allocated_to_work",
              "type": "bool"
            },
            {
              "internalType": "uint256",
              "name": "commitEndDate",
              "type": "uint256"
            },
            {
              "internalType": "uint256",
              "name": "revealEndDate",
              "type": "uint256"
            },
            {
              "internalType": "uint256",
              "name": "votesFor",
              "type": "uint256"
            },
            {
              "internalType": "uint256",
              "name": "votesAgainst",
              "type": "uint256"
            },
            {
              "internalType": "string",
              "name": "batchIPFSfile",
              "type": "string"
            },
            {
              "internalType": "enum DataFormatting.DataStatus",
              "name": "status",
              "type": "uint8"
            }
          ],
          "internalType": "struct DataFormatting.BatchMetadata",
          "name": "batch",
          "type": "tuple"
        }
      ],
      "stateMutability": "view",
      "type": "function"
    },
    {
      "inputs": [
        {
          "internalType": "uint256",
          "name": "_DataBatchId",
          "type": "uint256"
        }
      ],
      "name": "getBatchIPFSFileByID",
      "outputs": [
        {
          "internalType": "string",
          "name": "batch",
          "type": "string"
        }
      ],
      "stateMutability": "view",
      "type": "function"
    },
    {
      "inputs": [
        {
          "internalType": "address",
          "name": "_voter",
          "type": "address"
        },
        {
          "internalType": "uint256",
          "name": "_DataBatchId",
          "type": "uint256"
        }
      ],
      "name": "getCommitHash",
      "outputs": [
        {
          "internalType": "bytes32",
          "name": "commitHash",
          "type": "bytes32"
        }
      ],
      "stateMutability": "view",
      "type": "function"
    },
    {
      "inputs": [],
      "name": "getCurrentWorkEpoch",
      "outputs": [
        {
          "internalType": "uint256",
          "name": "WorkEpoch",
          "type": "uint256"
        }
      ],
      "stateMutability": "view",
      "type": "function"
    },
    {
      "inputs": [
        {
          "internalType": "uint256",
          "name": "_DataId",
          "type": "uint256"
        }
      ],
      "name": "getDataByID",
      "outputs": [
        {
          "components": [
            {
              "internalType": "string",
              "name": "ipfs_hash",
              "type": "string"
            },
            {
              "internalType": "address",
              "name": "author",
              "type": "address"
            },
            {
              "internalType": "uint256",
              "name": "timestamp",
              "type": "uint256"
            },
            {
              "internalType": "enum DataFormatting.DataStatus",
              "name": "status",
              "type": "uint8"
            }
          ],
          "internalType": "struct DataFormatting.FormattedData",
          "name": "data",
          "type": "tuple"
        }
      ],
      "stateMutability": "view",
      "type": "function"
    },
    {
      "inputs": [
        {
          "internalType": "string",
          "name": "_hash",
          "type": "string"
        },
        {
          "internalType": "uint256",
          "name": "_salt",
          "type": "uint256"
        }
      ],
      "name": "getEncryptedStringHash",
      "outputs": [
        {
          "internalType": "bytes32",
          "name": "keccak256hash",
          "type": "bytes32"
        }
      ],
      "stateMutability": "pure",
      "type": "function"
    },
    {
      "inputs": [
        {
          "internalType": "uint256",
          "name": "_DataBatchId",
          "type": "uint256"
        }
      ],
      "name": "getIPFShashesForBatch",
      "outputs": [
        {
          "internalType": "string[]",
          "name": "",
          "type": "string[]"
        }
      ],
      "stateMutability": "view",
      "type": "function"
    },
    {
      "inputs": [],
      "name": "getLastAllocatedBatchId",
      "outputs": [
        {
          "internalType": "uint256",
          "name": "LastAllocatedBatchId",
          "type": "uint256"
        }
      ],
      "stateMutability": "view",
      "type": "function"
    },
    {
      "inputs": [],
      "name": "getLastBatchId",
      "outputs": [
        {
          "internalType": "uint256",
          "name": "LastBatchId",
          "type": "uint256"
        }
      ],
      "stateMutability": "view",
      "type": "function"
    },
    {
      "inputs": [],
      "name": "getLastCheckedBatchId",
      "outputs": [
        {
          "internalType": "uint256",
          "name": "LastCheckedBatchId",
          "type": "uint256"
        }
      ],
      "stateMutability": "view",
      "type": "function"
    },
    {
      "inputs": [],
      "name": "getLastDataId",
      "outputs": [
        {
          "internalType": "uint256",
          "name": "DataId",
          "type": "uint256"
        }
      ],
      "stateMutability": "view",
      "type": "function"
    },
    {
      "inputs": [
        {
          "internalType": "address",
          "name": "_voter",
          "type": "address"
        }
      ],
      "name": "getLastNode",
      "outputs": [
        {
          "internalType": "uint256",
          "name": "DataID",
          "type": "uint256"
        }
      ],
      "stateMutability": "view",
      "type": "function"
    },
    {
      "inputs": [
        {
          "internalType": "address",
          "name": "_voter",
          "type": "address"
        }
      ],
      "name": "getLockedTokens",
      "outputs": [
        {
          "internalType": "uint256",
          "name": "numTokens",
          "type": "uint256"
        }
      ],
      "stateMutability": "view",
      "type": "function"
    },
    {
      "inputs": [],
      "name": "getMySystemTokenBalance",
      "outputs": [
        {
          "internalType": "uint256",
          "name": "tokens",
          "type": "uint256"
        }
      ],
      "stateMutability": "view",
      "type": "function"
    },
    {
      "inputs": [
        {
          "internalType": "address",
          "name": "_voter",
          "type": "address"
        },
        {
          "internalType": "uint256",
          "name": "_DataBatchId",
          "type": "uint256"
        },
        {
          "internalType": "uint256",
          "name": "_salt",
          "type": "uint256"
        }
      ],
      "name": "getNumPassingTokens",
      "outputs": [
        {
          "internalType": "uint256",
          "name": "correctFormatChecks",
          "type": "uint256"
        }
      ],
      "stateMutability": "view",
      "type": "function"
    },
    {
      "inputs": [
        {
          "internalType": "address",
          "name": "_voter",
          "type": "address"
        },
        {
          "internalType": "uint256",
          "name": "_DataBatchId",
          "type": "uint256"
        }
      ],
      "name": "getNumTokens",
      "outputs": [
        {
          "internalType": "uint256",
          "name": "numTokens",
          "type": "uint256"
        }
      ],
      "stateMutability": "view",
      "type": "function"
    },
    {
      "inputs": [],
      "name": "getRandom",
      "outputs": [
        {
          "internalType": "uint256",
          "name": "",
          "type": "uint256"
        }
      ],
      "stateMutability": "view",
      "type": "function"
    },
    {
      "inputs": [],
      "name": "getRejectedBatchesCount",
      "outputs": [
        {
          "internalType": "uint256",
          "name": "count",
          "type": "uint256"
        }
      ],
      "stateMutability": "view",
      "type": "function"
    },
    {
      "inputs": [],
      "name": "getSeed",
      "outputs": [
        {
          "internalType": "bytes32",
          "name": "addr",
          "type": "bytes32"
        }
      ],
      "stateMutability": "view",
      "type": "function"
    },
    {
      "inputs": [
        {
          "internalType": "address",
          "name": "_user",
          "type": "address"
        }
      ],
      "name": "getSystemTokenBalance",
      "outputs": [
        {
          "internalType": "uint256",
          "name": "tokens",
          "type": "uint256"
        }
      ],
      "stateMutability": "view",
      "type": "function"
    },
    {
      "inputs": [
        {
          "internalType": "uint256",
          "name": "_DataBatchId",
          "type": "uint256"
        }
      ],
      "name": "getTotalNumberOfFormatChecks",
      "outputs": [
        {
          "internalType": "uint256",
          "name": "vc",
          "type": "uint256"
        }
      ],
      "stateMutability": "view",
      "type": "function"
    },
    {
      "inputs": [],
      "name": "getTxCounter",
      "outputs": [
        {
          "internalType": "uint256",
          "name": "Counter",
          "type": "uint256"
        }
      ],
      "stateMutability": "view",
      "type": "function"
    },
    {
      "inputs": [
        {
          "internalType": "uint256",
          "name": "_terminationDate",
          "type": "uint256"
        }
      ],
      "name": "isExpired",
      "outputs": [
        {
          "internalType": "bool",
          "name": "expired",
          "type": "bool"
        }
      ],
      "stateMutability": "view",
      "type": "function"
    },
    {
      "inputs": [
        {
          "internalType": "uint256",
          "name": "_DataBatchId",
          "type": "uint256"
        }
      ],
      "name": "isPassed",
      "outputs": [
        {
          "internalType": "bool",
          "name": "passed",
          "type": "bool"
        }
      ],
      "stateMutability": "view",
      "type": "function"
    },
    {
      "inputs": [
        {
          "internalType": "uint256",
          "name": "_DataBatchId",
          "type": "uint256"
        },
        {
          "internalType": "address",
          "name": "_worker",
          "type": "address"
        }
      ],
      "name": "isWorkerAllocatedToBatch",
      "outputs": [
        {
          "internalType": "bool",
          "name": "",
          "type": "bool"
        }
      ],
      "stateMutability": "view",
      "type": "function"
    },
    {
      "inputs": [
        {
          "internalType": "address",
          "name": "_worker",
          "type": "address"
        }
      ],
      "name": "isWorkerRegistered",
      "outputs": [
        {
          "internalType": "bool",
          "name": "passed",
          "type": "bool"
        }
      ],
      "stateMutability": "view",
      "type": "function"
    },
    {
      "inputs": [],
      "name": "owner",
      "outputs": [
        {
          "internalType": "address",
          "name": "",
          "type": "address"
        }
      ],
      "stateMutability": "view",
      "type": "function"
    },
    {
      "inputs": [
        {
          "internalType": "uint256",
          "name": "k",
          "type": "uint256"
        },
        {
          "internalType": "uint256",
          "name": "N",
          "type": "uint256"
        }
      ],
      "name": "random_selection",
      "outputs": [
        {
          "internalType": "uint256[]",
          "name": "",
          "type": "uint256[]"
        }
      ],
      "stateMutability": "view",
      "type": "function"
    },
    {
      "inputs": [],
      "name": "renounceOwnership",
      "outputs": [],
      "stateMutability": "nonpayable",
      "type": "function"
    },
    {
      "inputs": [
        {
          "internalType": "uint256",
          "name": "_numTokens",
          "type": "uint256"
        }
      ],
      "name": "requestVotingRights",
      "outputs": [],
      "stateMutability": "nonpayable",
      "type": "function"
    },
    {
      "inputs": [
        {
          "internalType": "uint256",
          "name": "_DataBatchId",
          "type": "uint256"
        }
      ],
      "name": "rescueTokens",
      "outputs": [],
      "stateMutability": "nonpayable",
      "type": "function"
    },
    {
      "inputs": [
        {
          "internalType": "uint256[]",
          "name": "_DataBatchIDs",
          "type": "uint256[]"
        }
      ],
      "name": "rescueTokensInMultipleDatas",
      "outputs": [],
      "stateMutability": "nonpayable",
      "type": "function"
    },
    {
      "inputs": [
        {
          "internalType": "uint256",
          "name": "_DataBatchId",
          "type": "uint256"
        },
        {
          "internalType": "uint256",
          "name": "_voteOption",
          "type": "uint256"
        },
        {
          "internalType": "string",
          "name": "_clearIPFSHash",
          "type": "string"
        },
        {
          "internalType": "uint256",
          "name": "_salt",
          "type": "uint256"
        }
      ],
      "name": "revealFormatCheck",
      "outputs": [],
      "stateMutability": "nonpayable",
      "type": "function"
    },
    {
      "inputs": [
        {
          "internalType": "uint256",
          "name": "_DataBatchId",
          "type": "uint256"
        }
      ],
      "name": "revealPeriodActive",
      "outputs": [
        {
          "internalType": "bool",
          "name": "active",
          "type": "bool"
        }
      ],
      "stateMutability": "view",
      "type": "function"
    },
    {
      "inputs": [],
      "name": "sFuel",
      "outputs": [
        {
          "internalType": "address",
          "name": "",
          "type": "address"
        }
      ],
      "stateMutability": "view",
      "type": "function"
    },
    {
      "inputs": [
        {
          "internalType": "uint256",
          "name": "N",
          "type": "uint256"
        }
      ],
      "name": "shuffle_array",
      "outputs": [
        {
          "internalType": "uint256[]",
          "name": "",
          "type": "uint256[]"
        }
      ],
      "stateMutability": "view",
      "type": "function"
    },
    {
      "inputs": [],
      "name": "token",
      "outputs": [
        {
          "internalType": "contract IERC20",
          "name": "",
          "type": "address"
        }
      ],
      "stateMutability": "view",
      "type": "function"
    },
    {
      "inputs": [
        {
          "internalType": "address",
          "name": "newOwner",
          "type": "address"
        }
      ],
      "name": "transferOwnership",
      "outputs": [],
      "stateMutability": "nonpayable",
      "type": "function"
    },
    {
      "inputs": [
        {
          "internalType": "address",
          "name": "addr",
          "type": "address"
        }
      ],
      "name": "updateAddressManager",
      "outputs": [],
      "stateMutability": "nonpayable",
      "type": "function"
    },
    {
      "inputs": [
        {
          "internalType": "address",
          "name": "addr",
          "type": "address"
        }
      ],
      "name": "updateArchiveManager",
      "outputs": [],
      "stateMutability": "nonpayable",
      "type": "function"
    },
    {
      "inputs": [
        {
          "internalType": "uint256",
          "name": "COMMIT_ROUND_DURATION_",
          "type": "uint256"
        }
      ],
      "name": "updateCommitRoundDuration",
      "outputs": [],
      "stateMutability": "nonpayable",
      "type": "function"
    },
    {
      "inputs": [
        {
          "internalType": "uint256",
          "name": "size",
          "type": "uint256"
        }
      ],
      "name": "updateDataBachSize",
      "outputs": [],
      "stateMutability": "nonpayable",
      "type": "function"
    },
    {
      "inputs": [
        {
          "internalType": "uint256",
          "name": "CONSENSUS_WORKER_SIZE_",
          "type": "uint256"
        }
      ],
      "name": "updateMaxConsensusSize",
      "outputs": [],
      "stateMutability": "nonpayable",
      "type": "function"
    },
    {
      "inputs": [
        {
          "internalType": "uint256",
          "name": "CONSENSUS_WORKER_SIZE_",
          "type": "uint256"
        }
      ],
      "name": "updateMinConsensusSize",
      "outputs": [],
      "stateMutability": "nonpayable",
      "type": "function"
    },
    {
      "inputs": [
        {
          "internalType": "address",
          "name": "addr",
          "type": "address"
        }
      ],
      "name": "updateRepManager",
      "outputs": [],
      "stateMutability": "nonpayable",
      "type": "function"
    },
    {
      "inputs": [
        {
          "internalType": "uint256",
          "name": "REVEAL_ROUND_DURATION_",
          "type": "uint256"
        }
      ],
      "name": "updateRevealRoundDuration",
      "outputs": [],
      "stateMutability": "nonpayable",
      "type": "function"
    },
    {
      "inputs": [
        {
          "internalType": "address",
          "name": "addr",
          "type": "address"
        }
      ],
      "name": "updateRewardManager",
      "outputs": [],
      "stateMutability": "nonpayable",
      "type": "function"
    },
    {
      "inputs": [
        {
          "internalType": "address",
          "name": "addr",
          "type": "address"
        }
      ],
      "name": "updateSpotManager",
      "outputs": [],
      "stateMutability": "nonpayable",
      "type": "function"
    },
    {
      "inputs": [
        {
          "internalType": "address",
          "name": "addr",
          "type": "address"
        }
      ],
      "name": "updateStakeManager",
      "outputs": [],
      "stateMutability": "nonpayable",
      "type": "function"
    },
    {
      "inputs": [
        {
          "internalType": "address",
          "name": "_sFuel",
          "type": "address"
        }
      ],
      "name": "updatesFuelFaucet",
      "outputs": [],
      "stateMutability": "nonpayable",
      "type": "function"
    },
    {
      "inputs": [
        {
          "internalType": "uint256",
          "name": "_prevID",
          "type": "uint256"
        },
        {
          "internalType": "uint256",
          "name": "_nextID",
          "type": "uint256"
        },
        {
          "internalType": "address",
          "name": "_voter",
          "type": "address"
        },
        {
          "internalType": "uint256",
          "name": "_numTokens",
          "type": "uint256"
        }
      ],
      "name": "validPosition",
      "outputs": [
        {
          "internalType": "bool",
          "name": "APPROVED",
          "type": "bool"
        }
      ],
      "stateMutability": "view",
      "type": "function"
    },
    {
      "inputs": [
        {
          "internalType": "uint256",
          "name": "_numTokens",
          "type": "uint256"
        }
      ],
      "name": "withdrawVotingRights",
      "outputs": [],
      "stateMutability": "nonpayable",
      "type": "function"
    }
  ],
  "bytecode": "0x60806040526001805560036002556001600355670de0b6b3a7640000600755670de0b6b3a764000060085568056bc75e2d63100000600955603c600a55600060135560006014557314f52f3fc010ab6ca81568d4a6794d5eab3c6155601c60006101000a8154816001600160a01b0302191690836001600160a01b031602179055506001601d556001601e556001601f5560006021556000602255600060235560006024556000602555348015620000b657600080fd5b50604051620077ea380380620077ea833981016040819052620000d99162000184565b620000ed620000e762000130565b62000134565b602680546001600160a01b0319166001600160a01b0392909216919091179055600060145568015af1d78b58c400006004556101c26005556078600655620001b4565b3390565b600080546001600160a01b038381166001600160a01b0319831681178455604051919092169283917f8be0079c531659141344cd1fd0a4f28419497f9722a3daafe3b4186f6b6457e09190a35050565b60006020828403121562000196578081fd5b81516001600160a01b0381168114620001ad578182fd5b9392505050565b61762680620001c46000396000f3fe608060405234801561001057600080fd5b50600436106107175760003560e01c80639acb75c1116103a8578063d8645d37116101f4578063e8e9b6f91161011a578063f5ae7c7d116100b8578063f96305f011610087578063f96305f014610e43578063fc0c546a14610e4b578063fca4956314610e53578063ffc0cf7114610e6657610717565b8063f5ae7c7d14610e18578063f716596d14610e20578063f721de4a14610e28578063f80a23fd14610e3b57610717565b8063ef4fcdad116100f4578063ef4fcdad14610de2578063f2d9e74d14610dea578063f2fde38b14610df2578063f4cdfcc414610e0557610717565b8063e8e9b6f914610da7578063eb1322ff14610dba578063ed8becfa14610dc257610717565b8063dd61868211610192578063e604c12711610161578063e604c12714610d66578063e7805f9e14610d79578063e798a7da14610d81578063e7b1d43c14610d9457610717565b8063dd61868214610d25578063df05368e14610d38578063e1f7a43014610d4b578063e44c974b14610d5357610717565b8063d9548e53116101ce578063d9548e5314610cd7578063d9845fb814610cea578063db687c1714610d0a578063dd15f09514610d1d57610717565b8063d8645d3714610ca9578063d8b7567414610cb1578063d901402b14610cc457610717565b8063b1d7ea98116102d9578063c9b03a7211610277578063d186981d11610246578063d186981d14610c68578063d420ec0b14610c7b578063d6b0206c14610c8e578063d822ce0114610c9657610717565b8063c9b03a7214610c32578063cb1c2b5c14610c3a578063ced5ca6f14610c42578063d138209214610c5557610717565b8063b8f011b3116102b3578063b8f011b314610bf1578063c47c4bc214610c04578063c4e4f82a14610c17578063c7761fab14610c2a57610717565b8063b1d7ea9814610bab578063b43bd06914610bcb578063b7e4eba914610bde57610717565b8063a4439dc511610346578063aa7ca46411610320578063aa7ca46414610b75578063aacc5a1714610b88578063ab43e78d14610b90578063b1a2e0be14610b9857610717565b8063a4439dc514610b47578063a511dba014610b5a578063a905779014610b6257610717565b8063a1103f3711610382578063a1103f3714610b11578063a1b6b5b714610b24578063a25236fe14610b2c578063a350715a14610b3f57610717565b80639acb75c114610ae35780639fc9c52f14610aeb578063a0e71c1514610afe57610717565b806351912f291161056757806376e8ea4f11610498578063821aa8c0116104365780638da5cb5b116104055780638da5cb5b14610aad5780638df0296e14610ab55780639760356014610ac85780639769d84614610adb57610717565b8063821aa8c014610a6157806383cc6ef214610a745780638473850b14610a7c5780638c89d02714610a8457610717565b80637f9510a2116104725780637f9510a214610a065780637f97e83614610a0e5780637fabe35b14610a21578063819b029314610a4e57610717565b806376e8ea4f146109ee5780637827e549146109f65780637a34da67146109fe57610717565b80636a192ff5116105055780637074222b116104df5780637074222b146109b8578063715018a6146109cb57806371880b1b146109d3578063726bc8af146109e657610717565b80636a192ff51461096f5780636b1485a3146109925780636b2d95d4146109a557610717565b80635b113a55116105415780635b113a55146109395780635fd879091461094c5780636371d81f14610954578063667bf0f81461096757610717565b806351912f29146108fe57806358002158146109065780635a4529431461091957610717565b806339e7357c1161064c57806347fe2d20116105ea5780634d4b7d9b116105b95780634d4b7d9b146108bd5780634d884281146108d05780634fe8b4c1146108e3578063515535e8146108f657610717565b806347fe2d201461088757806348257dc91461088f5780634852e2f0146108a257806349403183146108aa57610717565b8063427fa1d211610626578063427fa1d21461083b578063441c77c01461084e57806344639f7c1461086157806346a7aea61461087457610717565b806339e7357c1461080d5780633dda02b11461081557806340fbaae41461082857610717565b806329a47bc7116106b9578063313066ee11610693578063313066ee146107d75780633538af82146107df578063353f44d0146107f2578063354dae401461080557610717565b806329a47bc71461078f5780632d917c68146107a45780632f469fd1146107b757610717565b80630e670feb116106f55780630e670feb14610757578063154fd39b1461075f578063226ed30014610767578063275c25901461078757610717565b806304dbcda71461071c578063050eb2eb1461073a5780630e6661a71461074f575b600080fd5b610724610e79565b60405161073191906163d7565b60405180910390f35b61074d610748366004615eec565b610e7f565b005b610724610ee9565b610724610eef565b610724610ef5565b61077a6107753660046161da565b610efb565b6040516107319190616531565b61074d610f44565b61079761107a565b604051610731919061640a565b61077a6107b2366004615f06565b611089565b6107ca6107c5366004616203565b6110a9565b604051610731919061653c565b61072461114e565b6107976107ed3660046161da565b611154565b610724610800366004615eec565b61117e565b61074d611190565b6107246112b4565b61074d6108233660046161da565b6112d1565b61074d6108363660046162b6565b611315565b610724610849366004615eec565b611654565b61077a61085c3660046161da565b6116f4565b61074d61086f3660046161da565b61174d565b61074d610882366004615eec565b61179f565b610724611800565b61077a61089d3660046161da565b611806565b610724611b53565b61077a6108b83660046161da565b611b59565b61077a6108cb3660046161da565b611d21565b61074d6108de366004615eec565b611d36565b61074d6108f13660046161da565b611d97565b610724611e17565b610797611e1d565b61074d6109143660046161da565b611e2c565b61092c6109273660046161da565b611e70565b6040516107319190617327565b610724610947366004616203565b611f93565b610724611fb0565b61074d6109623660046161da565b611fb6565b61074d612077565b61098261097d3660046161da565b612479565b6040516107319493929190616579565b61074d6109a03660046161da565b612538565b6107246109b3366004615eec565b613154565b6107246109c6366004615eec565b613163565b61074d61317e565b6107246109e13660046161da565b6131c9565b610724613205565b61072461320b565b610724613211565b610797613217565b610724613226565b61077a610a1c366004615f06565b61323d565b610a34610a2f3660046161da565b613293565b6040516107319e9d9c9b9a999897969594939291906173c6565b61077a610a5c36600461627a565b613391565b610797610a6f3660046161da565b6133d2565b6107976133e2565b6107246133f1565b610a97610a92366004615eec565b6133f7565b6040516107319a9998979695949392919061641e565b6107976134e8565b610797610ac3366004616259565b6134f7565b61074d610ad63660046161da565b61352f565b6107246136dd565b6107246136e3565b61074d610af9366004615f61565b6136e9565b610724610b0c3660046161da565b61373b565b610724610b1f366004615f06565b613765565b610724613798565b61074d610b3a3660046161da565b61379e565b61072461389f565b61077a610b553660046161da565b6138a5565b610724613905565b61077a610b70366004616021565b61390b565b61077a610b83366004615f06565b613971565b6107246139c4565b610797613a79565b61077a610ba6366004615eec565b613a88565b610bbe610bb9366004616259565b613be4565b60405161073191906164ed565b610724610bd9366004615f2f565b613deb565b61074d610bec3660046161da565b613ed7565b610bbe610bff366004616259565b613f1b565b61074d610c12366004615eec565b614083565b610724610c253660046161da565b6140e4565b610724614120565b610724614126565b61072461412c565b61074d610c503660046161da565b614132565b610724610c63366004615f06565b6141a0565b61077a610c76366004616203565b614235565b61077a610c89366004615f06565b614310565b610724614330565b610797610ca4366004615f06565b614336565b610797614352565b610724610cbf366004616203565b614361565b610724610cd2366004615f06565b61437e565b61077a610ce53660046161da565b6143c3565b610cfd610cf83660046161da565b6143c8565b60405161073191906171ad565b61074d610d18366004615eec565b61454b565b6107976145ac565b61074d610d33366004615eec565b6145bb565b61074d610d46366004615eec565b61461c565b61072461467d565b610bbe610d613660046161da565b614690565b6107ca610d743660046161da565b614709565b6107246147bd565b61077a610d8f366004615eec565b6147c3565b61074d610da23660046161da565b6147e4565b61074d610db53660046161da565b61492c565b610724614970565b610dd5610dd03660046161da565b614976565b604051610731919061648d565b610724614c91565b610724614c97565b61074d610e00366004615eec565b614c9d565b610724610e13366004616081565b614d0b565b610724614d20565b61074d614d26565b61077a610e363660046161da565b614ef5565b61077a614efd565b610724614f16565b610797614f1c565b610724610e61366004615eec565b614f2b565b61074d610e7436600461622e565b615065565b60075481565b610e87615504565b6001600160a01b0316610e986134e8565b6001600160a01b031614610ec75760405162461bcd60e51b8152600401610ebe90616c4d565b60405180910390fd5b602980546001600160a01b0319166001600160a01b0392909216919091179055565b60145481565b60085481565b601f5490565b6000610f0682614ef5565b610f225760405162461bcd60e51b8152600401610ebe90617138565b6000828152602080526040902060070154610f3c906143c3565b90505b919050565b610f4c615508565b336000908152601560205260409020600781015460ff161515600114610f845760405162461bcd60e51b8152600401610ebe90616c01565b600281015415801590610fa157506007810154610100900460ff16155b15610fbc5760078101805461ff00191661010017905561105f565b600281015415610fde5760405162461bcd60e51b8152600401610ebe90616b47565b42610fe833615690565b610ff1336157e8565b8154336001600160a01b03199182168117845560018401805490921681179091556005830182905560078301805460ff191690556040517f9dadcedba048e92b943ea1c5861cee1df63a566d7f795869c004780c1c698e2b906110559084906163d7565b60405180910390a2505b60016021600082825461107291906174b2565b909155505050565b6028546001600160a01b031681565b600b60209081526000928352604080842090915290825290205460ff1681565b600e602090815260009283526040808420909152908252902080546110cd90617544565b80601f01602080910402602001604051908101604052809291908181526020018280546110f990617544565b80156111465780601f1061111b57610100808354040283529160200191611146565b820191906000526020600020905b81548152906001019060200180831161112957829003601f168201915b505050505081565b60135481565b6019818154811061116457600080fd5b6000918252602090912001546001600160a01b0316905081565b60176020526000908152604090205481565b611198615508565b601e54600090815260208052604081206005015462010000900460ff16151560011480156111e857506111cc601e54610efb565b806111e85750601e546000908152602080526040902060020154155b1561120d576111f8601e54612538565b601e54611206906001615918565b601e555060015b601f54600090815260208052604090206005015462010000900460ff16151560011480159061123d575060195415155b801561125c5750601f54600090815260208052604090206005015460ff165b1561126d57611269612077565b5060015b801561128557601354611281906001615918565b6013555b6013546040517f94d48a7342690f1233e3f4db70efa37c4f1f25f4d0397c353f3f15aecdeca5f490600090a250565b60405160009080602081848060185afa6112ca57fe5b5051919050565b6112d9615504565b6001600160a01b03166112ea6134e8565b6001600160a01b0316146113105760405162461bcd60e51b8152600401610ebe90616c4d565b600255565b61131d615508565b611326846116f4565b6113425760405162461bcd60e51b8152600401610ebe90616ddb565b336000908152600b6020908152604080832087845290915290205460ff1661137c5760405162461bcd60e51b8152600401610ebe9061696c565b336000908152600c6020908152604080832087845290915290205460ff16156113b75760405162461bcd60e51b8152600401610ebe90617161565b6113c1338561437e565b6113cb8383614d0b565b146113e85760405162461bcd60e51b8152600401610ebe90616cdf565b60006113f433866141a0565b9050836001141561142a5760008581526020805260408120600801805483929061141f9084906174b2565b909155506114509050565b60008581526020805260408120600901805483929061144a9084906174b2565b90915550505b33600090815260116020526040908190209051634dab476560e01b815273__$6ffa5bf1f4fa681f07e1987a80577d5f4e$__91634dab476591611498919089906004016163fc565b60006040518083038186803b1580156114b057600080fd5b505af41580156114c4573d6000803e3d6000fd5b5050336000818152600c602090815260408083208b84528252808320805460ff19166001179055600d825280832084845282528083208a90558a8352600e82528083209383529281529190208651611523945090925090860190615c70565b503360009081526015602090815260408083208884529180529091206002015461154e906001615924565b600087815260208052604090206002015560038101805460ff1916600117905542600582015561157d336157e8565b600781015460ff16156115da5761159333615930565b6115da57601980546001810182556000919091527f944998273e477b495144fb8794c914197f3ccb46be2900f4698fd0ef743c96950180546001600160a01b031916331790555b6001602160008282546115ed91906174b2565b909155505060008681526020805260409081902060088101546009909101549151339288928a927f2e5fbeef18eaa8d8ea3b0122bc64445c4daaa6f454dfb889456791a92287f378926116449289929091906173b0565b60405180910390a4505050505050565b6001600160a01b038116600090815260116020526040808220905163215e94cf60e01b815273__$6ffa5bf1f4fa681f07e1987a80577d5f4e$__9163215e94cf916116a4919085906004016163fc565b60206040518083038186803b1580156116bc57600080fd5b505af41580156116d0573d6000803e3d6000fd5b505050506040513d601f19601f82011682018060405250810190610f3c91906161f2565b60006116ff82614ef5565b61171b5760405162461bcd60e51b8152600401610ebe90616e68565b6000828152602080526040902060070154611735906143c3565b158015610f3c5750611746826138a5565b1592915050565b611755615504565b6001600160a01b03166117666134e8565b6001600160a01b03161461178c5760405162461bcd60e51b8152600401610ebe90616c4d565b600181101561179a57600080fd5b600355565b6117a7615504565b6001600160a01b03166117b86134e8565b6001600160a01b0316146117de5760405162461bcd60e51b8152600401610ebe90616c4d565b602c80546001600160a01b0319166001600160a01b0392909216919091179055565b601e5490565b602b546000906001600160a01b031615801590611832575060008281526010602052604090205460ff16155b15611b3357602b54604051637b90ef2560e11b81526001600160a01b039091169063f721de4a906118679085906004016163d7565b602060405180830381600087803b15801561188157600080fd5b505af1158015611895573d6000803e3d6000fd5b505050506040513d601f19601f820116820180604052508101906118b99190616007565b15611b3357602b54604051631b308bf760e31b81526000916001600160a01b03169063d9845fb8906118ef9086906004016163d7565b600060405180830381600087803b15801561190957600080fd5b505af115801561191d573d6000803e3d6000fd5b505050506040513d6000823e601f3d908101601f1916820160405261194591908101906160c3565b6101a0810151909150600181600381111561197057634e487b7160e01b600052602160045260246000fd5b1415611b17576040805160808101825261018084015181523360208083019190915242828401526000606083018190526014548152601682529290922081518051929391926119c29284920190615c70565b506020820151600182810180546001600160a01b0319166001600160a01b0390931692909217909155604083015160028301556060830151600380840180549293909260ff1916918490811115611a2957634e487b7160e01b600052602160045260246000fd5b021790555050601d546000908152602080526040902060018054908201549192501115611a6b576001816001016000828254611a6591906174b2565b90915550505b600154816001015410611abc57600581018054600160ff19909116811761ff001916909155601d8054600090611aa29084906174b2565b9091555050601454601d5460009081526020805260409020555b611ac4611190565b601454611ad29060016174b2565b60148190556101808401516040517fe72ee44ad0ed1dfc338f7eec797c944eb218773c1edbb4bb653dd9c1e2a6230491611b0d91339061654f565b60405180910390a2505b50506000828152601060205260409020805460ff191660011790555b600160216000828254611b4691906174b2565b9091555060009392505050565b60245481565b60008181526020808052604080832081516101c081018352815481526001820154938101939093526002810154918301919091526003810154606083015260048101546080830152600581015460ff808216151560a08501526101008083048216151560c08601526201000090920416151560e0840152600682015490830152600781015461012083015260088101546101408301526009810154610160830152600a8101805484939291610180840191611c1390617544565b80601f0160208091040260200160405190810160405280929190818152602001828054611c3f90617544565b8015611c8c5780601f10611c6157610100808354040283529160200191611c8c565b820191906000526020600020905b815481529060010190602001808311611c6f57829003601f168201915b5050509183525050600b82015460209091019060ff166003811115611cc157634e487b7160e01b600052602160045260246000fd5b6003811115611ce057634e487b7160e01b600052602160045260246000fd5b905250610160810151610140820151919250611cfb916174b2565b600a54611d0891906174de565b610140820151611d199060646174de565b119392505050565b60106020526000908152604090205460ff1681565b611d3e615504565b6001600160a01b0316611d4f6134e8565b6001600160a01b031614611d755760405162461bcd60e51b8152600401610ebe90616c4d565b601c80546001600160a01b0319166001600160a01b0392909216919091179055565b611d9f615504565b6001600160a01b0316611db06134e8565b6001600160a01b031614611dd65760405162461bcd60e51b8152600401610ebe90616c4d565b600081815260166020526040812090611def8282615cf4565b506001810180546001600160a01b031916905560006002820155600301805460ff1916905550565b601d5490565b6029546001600160a01b031681565b611e34615504565b6001600160a01b0316611e456134e8565b6001600160a01b031614611e6b5760405162461bcd60e51b8152600401610ebe90616c4d565b600655565b611e78615d30565b60008281526016602052604090819020815160808101909252805482908290611ea090617544565b80601f0160208091040260200160405190810160405280929190818152602001828054611ecc90617544565b8015611f195780601f10611eee57610100808354040283529160200191611f19565b820191906000526020600020905b815481529060010190602001808311611efc57829003601f168201915b505050918352505060018201546001600160a01b031660208201526002820154604082015260038083015460609092019160ff1690811115611f6b57634e487b7160e01b600052602160045260246000fd5b6003811115611f8a57634e487b7160e01b600052602160045260246000fd5b90525092915050565b600f60209081526000928352604080842090915290825290205481565b60065481565b611fbe615504565b6001600160a01b0316611fcf6134e8565b6001600160a01b031614611ff55760405162461bcd60e51b8152600401610ebe90616c4d565b611ffe81614ef5565b1561207457600081815260208052604081208181556001810182905560028101829055600381018290556004810182905560058101805462ffffff191690556006810182905560078101829055600881018290556009810182905590612067600a830182615cf4565b50600b01805460ff191690555b50565b601f54600090815260208052604090206005015460ff166120aa5760405162461bcd60e51b8152600401610ebe90616d85565b601f54600090815260208052604090206005015462010000900460ff16156120e45760405162461bcd60e51b8152600401610ebe90616ba4565b60006121026120fa6019805490506002546159a0565b6003546159b6565b601954601f8054600090815260208052604080822060020185905591548152908120600301839055600554929350909161213d904290615918565b905060006121566006548361591890919063ffffffff16565b601f80546000908152602080526040808220600601869055825482528082206007018490559154815220600501805462ff00001916620100001790559050600184108015906121a6575060018310155b6121c25760405162461bcd60e51b8152600401610ebe906167e2565b60006121ce8585613f1b565b9050600081516001600160401b038111156121f957634e487b7160e01b600052604160045260246000fd5b604051908082528060200260200182016040528015612222578160200160208202803683370190505b50905060005b82518110156122e157601983828151811061225357634e487b7160e01b600052603260045260246000fd5b60200260200101518154811061227957634e487b7160e01b600052603260045260246000fd5b9060005260206000200160009054906101000a90046001600160a01b03168282815181106122b757634e487b7160e01b600052603260045260246000fd5b6001600160a01b0390921660209283029190910190910152806122d98161757f565b915050612228565b5060005b825181101561244457600082828151811061231057634e487b7160e01b600052603260045260246000fd5b60200260200101519050600060156000836001600160a01b03166001600160a01b03168152602001908152602001600020905061234c82615690565b612355826159c6565b6123a557601a80546001810182556000919091527f057c384a7d1c54f3a1b2e5e67b2617b8224fdfd1ea7234eea573a6ff665ff63e0180546001600160a01b0319166001600160a01b0384161790555b601f80546000908152601b602090815260408083208054600181018255908452919092200180546001600160a01b0319166001600160a01b0386161790558154600284015560038301805460ff19169055905490517fe4ee2dfabe57cee15e3f558890b20455f54c1fa0718e5276faad70a6500e6b8c9061242790859061640a565b60405180910390a25050808061243c9061757f565b9150506122e5565b50601f54612453906001615918565b601f8190555060016021600082825461246c91906174b2565b9091555050505050505050565b60166020526000908152604090208054819061249490617544565b80601f01602080910402602001604051908101604052809291908181526020018280546124c090617544565b801561250d5780601f106124e25761010080835404028352916020019161250d565b820191906000526020600020905b8154815290600101906020018083116124f057829003601f168201915b505050506001830154600284015460039094015492936001600160a01b039091169290915060ff1684565b61254181610efb565b8061255a57506000818152602080526040902060020154155b6125765760405162461bcd60e51b8152600401610ebe90616c82565b6000818152602080526040902060050154610100900460ff16156125ac5760405162461bcd60e51b8152600401610ebe90616f1b565b60006125b782611b59565b6000838152601b602090815260408083208054825181850281018501909352808352949550929390929183018282801561261a57602002820191906000526020600020905b81546001600160a01b031681526001909101906020018083116125fc575b50505050509050600081516001600160401b0381111561264a57634e487b7160e01b600052604160045260246000fd5b60405190808252806020026020018201604052801561267d57816020015b60608152602001906001900390816126685790505b509050600082516001600160401b038111156126a957634e487b7160e01b600052604160045260246000fd5b6040519080825280602002602001820160405280156126d2578160200160208202803683370190505b50905060005b8351811015612b0357600084828151811061270357634e487b7160e01b600052603260045260246000fd5b6020908102919091018101516000898152600d835260408082206001600160a01b03841680845290855281832054600c86528284208d8552865282842054600e875283852092855291909552908220805493955060ff9091169261276690617544565b80601f016020809104026020016040519081016040528092919081815260200182805461279290617544565b80156127df5780601f106127b4576101008083540402835291602001916127df565b820191906000526020600020905b8154815290600101906020018083116127c257829003601f168201915b505050505090508087868151811061280757634e487b7160e01b600052603260045260246000fd5b60209081029190910181019190915260008b8152600f825260408082206001600160a01b038816835290925220548651819088908890811061285957634e487b7160e01b600052603260045260246000fd5b60200260200101818152505061286e856157e8565b6001600160a01b03851660009081526015602052604090208315612aa4576001600160a01b0386166000908152601560205260409020600301805460ff191660019081179091558b15151480156128c55750846001145b806128da57508a1580156128da575084600114155b15612a2157602854600954604051630db6cc8560e11b81526001600160a01b0390921691631b6d990a91612912918a90600401617392565b602060405180830381600087803b15801561292c57600080fd5b505af1158015612940573d6000803e3d6000fd5b505050506040513d601f19601f820116820180604052508101906129649190616007565b6129805760405162461bcd60e51b8152600401610ebe90616a24565b602954600754604051633832942560e21b81526001600160a01b039092169163e0ca5094916129b3918a9060040161737b565b602060405180830381600087803b1580156129cd57600080fd5b505af11580156129e1573d6000803e3d6000fd5b505050506040513d601f19601f82011682018060405250810190612a059190616007565b612a215760405162461bcd60e51b8152600401610ebe906168c0565b600781015460ff1615612a9f57612a3786615930565b158015612a4e57506007810154610100900460ff16155b15612a9f57601980546001810182556000919091527f944998273e477b495144fb8794c914197f3ccb46be2900f4698fd0ef743c96950180546001600160a01b0319166001600160a01b0388161790555b612aea565b6007810154610100900460ff1680612aba575083155b15612aea57600781015460ff1615612aea5760078101805460ff19169055612ae186615690565b612aea866157e8565b5050505050508080612afb9061757f565b9150506126d8565b506000612b2b6064600a548651612b1a91906174de565b612b2491906174ca565b60016159b6565b9050600083600081518110612b5057634e487b7160e01b600052603260045260246000fd5b6020026020010151905060005b8451811015612c46576000805b8651811015612bfb57612bcb878481518110612b9657634e487b7160e01b600052603260045260246000fd5b6020026020010151888381518110612bbe57634e487b7160e01b600052603260045260246000fd5b602002602001015161390b565b15612be957612bdb6001836174b2565b9150848210612be957612bfb565b80612bf38161757f565b915050612b6a565b50838110612c3357858281518110612c2357634e487b7160e01b600052603260045260246000fd5b6020026020010151925050612c46565b5080612c3e8161757f565b915050612b5d565b50600083600081518110612c6a57634e487b7160e01b600052603260045260246000fd5b6020026020010151905060005b8451811015612d59576000805b8651811015612d0e57868181518110612cad57634e487b7160e01b600052603260045260246000fd5b6020026020010151878481518110612cd557634e487b7160e01b600052603260045260246000fd5b60200260200101511415612cfc57612cee6001836174b2565b9150858210612cfc57612d0e565b80612d068161757f565b915050612c84565b50848110612d4657858281518110612d3657634e487b7160e01b600052603260045260246000fd5b6020026020010151925050612d59565b5080612d518161757f565b915050612c77565b5060008881526020808052604090912060058101805461ff0019166101001790558351612d8e92600a90920191850190615c70565b506000888152602080526040902060040181905586156130565760285460095460008a81526016602052604090819020600101549051630db6cc8560e11b81526001600160a01b0393841693631b6d990a93612df1939092911690600401617392565b602060405180830381600087803b158015612e0b57600080fd5b505af1158015612e1f573d6000803e3d6000fd5b505050506040513d601f19601f82011682018060405250810190612e439190616007565b612e5f5760405162461bcd60e51b8152600401610ebe90617044565b60295460075460008a81526016602052604090819020600101549051633832942560e21b81526001600160a01b039384169363e0ca509493612ea893909291169060040161737b565b602060405180830381600087803b158015612ec257600080fd5b505af1158015612ed6573d6000803e3d6000fd5b505050506040513d601f19601f82011682018060405250810190612efa9190616007565b612f165760405162461bcd60e51b8152600401610ebe90616ecc565b60008881526020805260408120600b01805460ff191660019081179091556022805491929091612f479084906174b2565b9091555050602c546040516348257dc960e01b81526001600160a01b03909116906348257dc990612f7c908b906004016163d7565b602060405180830381600087803b158015612f9657600080fd5b505af1925050508015612fc6575060408051601f3d908101601f19168201909252612fc391810190616007565b60015b613037573d808015612ff4576040519150601f19603f3d011682016040523d82523d6000602084013e612ff9565b606091505b507f4b87bbd93ba65ede1e2efeca735d9f7a6720bf7d6db0a8355b17dba5b64e578381604051613029919061653c565b60405180910390a150613051565b60016021600082825461304a91906174b2565b9091555050505b61308a565b60008881526020805260408120600b01805460ff1916600217905560238054600192906130849084906174b2565b90915550505b60016021600082825461309d91906174b2565b9091555050600088815260208052604081206003015460248054919290916130c69084906174b2565b9091555050600088815260208052604081206002015460258054919290916130ef9084906174b2565b909155505060008881526016602052604090819020600181015491516001600160a01b03909216917fb83f08cf731092d35d6dd4801ac76e3fcc84b1b199915531c9874230d31adeaa91613142916165dc565b60405180910390a25050505050505050565b6000610f3c82610c6384611654565b6001600160a01b031660009081526017602052604090205490565b613186615504565b6001600160a01b03166131976134e8565b6001600160a01b0316146131bd5760405162461bcd60e51b8152600401610ebe90616c4d565b6131c76000615a36565b565b60006131d482614ef5565b6131f05760405162461bcd60e51b8152600401610ebe90616e68565b50600090815260208052604090206007015490565b60035481565b60015481565b60095481565b602a546001600160a01b031681565b601a54601954600091613238916174b2565b905090565b600061324882614ef5565b6132645760405162461bcd60e51b8152600401610ebe90616e68565b506001600160a01b0382166000908152600b6020908152604080832084845290915290205460ff165b92915050565b6020805260009081526040902080546001820154600283015460038401546004850154600586015460068701546007880154600889015460098a0154600a8b0180549a9b999a98999798969760ff80881698610100890482169862010000900490911696959493929061330590617544565b80601f016020809104026020016040519081016040528092919081815260200182805461333190617544565b801561337e5780601f106133535761010080835404028352916020019161337e565b820191906000526020600020905b81548152906001019060200180831161336157829003601f168201915b505050600b909301549192505060ff168e565b60008061339e84876141a0565b831015905060006133af85876141a0565b841115806133bb575085155b90508180156133c75750805b979650505050505050565b601a818154811061116457600080fd5b6027546001600160a01b031681565b601d5481565b60156020526000908152604090208054600182015460028301546003840154600485015460058601546006870180546001600160a01b03978816989690971696949560ff909416949293919261344c90617544565b80601f016020809104026020016040519081016040528092919081815260200182805461347890617544565b80156134c55780601f1061349a576101008083540402835291602001916134c5565b820191906000526020600020905b8154815290600101906020018083116134a857829003601f168201915b505050506007830154600890930154919260ff808216936101009092041691508a565b6000546001600160a01b031690565b601b602052816000526040600020818154811061351357600080fd5b6000918252602090912001546001600160a01b03169150829050565b600160008281526020805260409020600b015460ff16600381111561356457634e487b7160e01b600052602160045260246000fd5b146135815760405162461bcd60e51b8152600401610ebe906166bd565b3360009081526011602052604090819020905163162a54af60e31b815273__$6ffa5bf1f4fa681f07e1987a80577d5f4e$__9163b152a578916135c9919085906004016163fc565b60206040518083038186803b1580156135e157600080fd5b505af41580156135f5573d6000803e3d6000fd5b505050506040513d601f19601f820116820180604052508101906136199190616007565b6136355760405162461bcd60e51b8152600401610ebe90616a71565b33600090815260116020526040908190209051634dab476560e01b815273__$6ffa5bf1f4fa681f07e1987a80577d5f4e$__91634dab47659161367d919085906004016163fc565b60006040518083038186803b15801561369557600080fd5b505af41580156136a9573d6000803e3d6000fd5b50506040513392508391507f402507661c8c8cb90e0a796450b8bdd28b6c516f05279c0cd29e84c344e1699a90600090a350565b60225481565b60135490565b60005b81518110156137375761372582828151811061371857634e487b7160e01b600052603260045260246000fd5b602002602001015161352f565b8061372f8161757f565b9150506136ec565b5050565b600081815260208052604081206009810154600890910154829161375e916174b2565b9392505050565b6000828260405160200161377a9291906163b5565b60405160208183030381529060405280519060200120905092915050565b60225490565b6027546040516304ada21f60e21b81526001600160a01b03909116906312b6887c906137d0908490339060040161737b565b602060405180830381600087803b1580156137ea57600080fd5b505af11580156137fe573d6000803e3d6000fd5b505050506040513d601f19601f820116820180604052508101906138229190616007565b61383e5760405162461bcd60e51b8152600401610ebe9061690f565b336000908152601760205260408120805483929061385d9084906174b2565b909155505060405133907ff7aaf024511d9982df8cd0d437c71c30106e6848cd1ba3d288d7a9c0e276aeda906138949084906163d7565b60405180910390a250565b60235481565b60006138b082614ef5565b6138cc5760405162461bcd60e51b8152600401610ebe90616e68565b60008281526020805260409020600601546138e6906143c3565b158015610f3c5750506000908152602080526040902060030154151590565b60145490565b60008160405160200161391e91906163e0565b604051602081830303815290604052805190602001208360405160200161394591906163e0565b6040516020818303038152906040528051906020012014156139695750600161328d565b50600061328d565b600061397c82614ef5565b6139985760405162461bcd60e51b8152600401610ebe90616e68565b506001600160a01b03919091166000908152600c60209081526040808320938352929052205460ff1690565b60008042416040516020016139d99190616398565b6040516020818303038152906040528051906020012060001c6139fc91906174ca565b44613a056112b4565b604051602001613a1591906163d7565b60408051601f198184030181529190528051602090910120613a3790426174b2565b613a4191906174b2565b613a4b91906174b2565b604051602001613a5b91906163d7565b60408051601f19818403018152919052805160209091012091505090565b601c546001600160a01b031681565b6001600160a01b038082166000908152601560209081526040808320815161014081018352815486168152600182015490951692850192909252600282015490840152600381015460ff161515606084015260048101546080840152600581015460a0840152600681018054929384938493919260c0840191613b0a90617544565b80601f0160208091040260200160405190810160405280929190818152602001828054613b3690617544565b8015613b835780601f10613b5857610100808354040283529160200191613b83565b820191906000526020600020905b815481529060010190602001808311613b6657829003601f168201915b5050509183525050600782015460ff808216151560208401526101009091041615156040820152600890910154606091820152810151909150158015613bd35750613bd18160400151610efb565b155b15613bdd57600191505b5092915050565b606060008211613bf357600080fd5b600041604051602001613c069190616398565b6040516020818303038152906040528051906020012060001c613c276112b4565b604051602001613c3791906163d7565b60408051601f198184030181529190528051602090910120613c5990426174b2565b613c6391906174b2565b604051602001613c7391906163d7565b6040516020818303038152906040528051906020012060001c90506000846001600160401b03811115613cb657634e487b7160e01b600052604160045260246000fd5b604051908082528060200260200182016040528015613cdf578160200160208202803683370190505b5090506000805b86821015613de057600086613cff63017efeeb876174fd565b83604051602001613d119291906163fc565b6040516020818303038152906040528051906020012060001c613d34919061759a565b90506000805b84811015613d8c5782868281518110613d6357634e487b7160e01b600052603260045260246000fd5b60200260200101511415613d7a5760019150613d8c565b80613d848161757f565b915050613d3a565b5080613dcc5781858581518110613db357634e487b7160e01b600052603260045260246000fd5b6020908102919091010152613dc98460016174b2565b93505b613dd78360016174b2565b92505050613ce6565b509095945050505050565b6000613df683610efb565b613e125760405162461bcd60e51b8152600401610ebe90617091565b6001600160a01b0384166000908152600c6020908152604080832086845290915290205460ff16613e555760405162461bcd60e51b8152600401610ebe90616ace565b6000613e6084611b59565b613e6b576000613e6e565b60015b60ff16905060008184604051602001613e889291906163fc565b6040516020818303038152906040528051906020012090506000613eac878761437e565b9050808214613ecd5760405162461bcd60e51b8152600401610ebe90616d3c565b6133c787876141a0565b613edf615504565b6001600160a01b0316613ef06134e8565b6001600160a01b031614613f165760405162461bcd60e51b8152600401610ebe90616c4d565b600155565b6060600082118015613f2d5750818311155b8015613f3a575060018310155b613f565760405162461bcd60e51b8152600401610ebe90616799565b6000826001600160401b03811115613f7e57634e487b7160e01b600052604160045260246000fd5b604051908082528060200260200182016040528015613fa7578160200160208202803683370190505b5090506000846001600160401b03811115613fd257634e487b7160e01b600052604160045260246000fd5b604051908082528060200260200182016040528015613ffb578160200160208202803683370190505b509050600061401161400c84615a86565b615adc565b905060005b86811015613de05781818151811061403e57634e487b7160e01b600052603260045260246000fd5b602002602001015183828151811061406657634e487b7160e01b600052603260045260246000fd5b60209081029190910101528061407b8161757f565b915050614016565b61408b615504565b6001600160a01b031661409c6134e8565b6001600160a01b0316146140c25760405162461bcd60e51b8152600401610ebe90616c4d565b602a80546001600160a01b0319166001600160a01b0392909216919091179055565b60006140ef82614ef5565b61410b5760405162461bcd60e51b8152600401610ebe90616e68565b50600090815260208052604090206006015490565b600a5481565b60025481565b60045481565b61413a615504565b6001600160a01b031661414b6134e8565b6001600160a01b0316146141715760405162461bcd60e51b8152600401610ebe90616c4d565b60008181526010602052604090205460ff1615612074576000908152601060205260409020805460ff19169055565b600073__$d865f21674766f31b0d600e4a95b721b57$__6362e02a2a60126141c88686613765565b6040518363ffffffff1660e01b81526004016141e59291906172d0565b60206040518083038186803b1580156141fd57600080fd5b505af4158015614211573d6000803e3d6000fd5b505050506040513d601f19601f8201168201806040525081019061375e91906161f2565b6000828152601b6020908152604080832080548251818502810185019093528083528493849392919083018282801561429757602002820191906000526020600020905b81546001600160a01b03168152600190910190602001808311614279575b5050505050905060005b815181101561430657846001600160a01b03168282815181106142d457634e487b7160e01b600052603260045260246000fd5b60200260200101516001600160a01b031614156142f45760019250614306565b806142fe8161757f565b9150506142a1565b5090949350505050565b600c60209081526000928352604080842090915290825290205460ff1681565b601f5481565b6018602052816000526040600020818154811061351357600080fd5b602b546001600160a01b031681565b600d60209081526000928352604080842090915290825290205481565b600073__$d865f21674766f31b0d600e4a95b721b57$__6362e02a2a60126143a68686613765565b6040518363ffffffff1660e01b81526004016141e5929190617284565b421190565b6143d0615d7f565b6143d982614ef5565b6143e257600080fd5b6000828152602080805260409182902082516101c081018452815481526001820154928101929092526002810154928201929092526003820154606082015260048201546080820152600582015460ff808216151560a08401526101008083048216151560c08501526201000090920416151560e0830152600683015490820152600782015461012082015260088201546101408201526009820154610160820152600a820180549192916101808401919061449d90617544565b80601f01602080910402602001604051908101604052809291908181526020018280546144c990617544565b80156145165780601f106144eb57610100808354040283529160200191614516565b820191906000526020600020905b8154815290600101906020018083116144f957829003601f168201915b5050509183525050600b82015460209091019060ff166003811115611f6b57634e487b7160e01b600052602160045260246000fd5b614553615504565b6001600160a01b03166145646134e8565b6001600160a01b03161461458a5760405162461bcd60e51b8152600401610ebe90616c4d565b602b80546001600160a01b0319166001600160a01b0392909216919091179055565b602c546001600160a01b031681565b6145c3615504565b6001600160a01b03166145d46134e8565b6001600160a01b0316146145fa5760405162461bcd60e51b8152600401610ebe90616c4d565b602880546001600160a01b0319166001600160a01b0392909216919091179055565b614624615504565b6001600160a01b03166146356134e8565b6001600160a01b03161461465b5760405162461bcd60e51b8152600401610ebe90616c4d565b602780546001600160a01b0319166001600160a01b0392909216919091179055565b3360009081526017602052604090205490565b60606000821161469f57600080fd5b6000826001600160401b038111156146c757634e487b7160e01b600052604160045260246000fd5b6040519080825280602002602001820160405280156146f0578160200160208202803683370190505b509050600061470161400c83615a86565b949350505050565b606061471482614ef5565b61471d57600080fd5b60008281526020805260409020600a01805461473890617544565b80601f016020809104026020016040519081016040528092919081815260200182805461476490617544565b80156147b15780601f10614786576101008083540402835291602001916147b1565b820191906000526020600020905b81548152906001019060200180831161479457829003601f168201915b50505050509050919050565b60055481565b6001600160a01b031660009081526015602052604090206007015460ff1690565b60006148086147f233613154565b3360009081526017602052604090205490615924565b90508181101561482a5760405162461bcd60e51b8152600401610ebe90616e21565b602754604051630895993360e11b81526001600160a01b039091169063112b32669061485c908590339060040161737b565b602060405180830381600087803b15801561487657600080fd5b505af115801561488a573d6000803e3d6000fd5b505050506040513d601f19601f820116820180604052508101906148ae9190616007565b6148ca5760405162461bcd60e51b8152600401610ebe906170db565b33600090815260176020526040812080548492906148e99084906174fd565b909155505060405133907ffaeb7dbb9992397d26ea1944efd40c80b40f702faf69b46c67ad10aba68ccb79906149209085906163d7565b60405180910390a25050565b614934615504565b6001600160a01b03166149456134e8565b6001600160a01b03161461496b5760405162461bcd60e51b8152600401610ebe90616c4d565b600555565b60255481565b606061498182614ef5565b61499d5760405162461bcd60e51b8152600401610ebe90616e68565b60008281526020808052604080832081516101c081018352815481526001820154938101939093526002810154918301919091526003810154606083015260048101546080830152600581015460ff808216151560a08501526101008083048216151560c08601526201000090920416151560e0840152600682015490830152600781015461012083015260088101546101408301526009810154610160830152600a8101805461018084019190614a5490617544565b80601f0160208091040260200160405190810160405280929190818152602001828054614a8090617544565b8015614acd5780601f10614aa257610100808354040283529160200191614acd565b820191906000526020600020905b815481529060010190602001808311614ab057829003601f168201915b5050509183525050600b82015460209091019060ff166003811115614b0257634e487b7160e01b600052602160045260246000fd5b6003811115614b2157634e487b7160e01b600052602160045260246000fd5b9052506020810151600154919250906000906001600160401b03811115614b5857634e487b7160e01b600052604160045260246000fd5b604051908082528060200260200182016040528015614b8b57816020015b6060815260200190600190039081614b765790505b50905060005b82811015614c88578351600090614ba99083906174b2565b600081815260166020526040812080549293509091614bc790617544565b80601f0160208091040260200160405190810160405280929190818152602001828054614bf390617544565b8015614c405780601f10614c1557610100808354040283529160200191614c40565b820191906000526020600020905b815481529060010190602001808311614c2357829003601f168201915b5050505050905080848481518110614c6857634e487b7160e01b600052603260045260246000fd5b602002602001018190525050508080614c809061757f565b915050614b91565b50949350505050565b601e5481565b60215481565b614ca5615504565b6001600160a01b0316614cb66134e8565b6001600160a01b031614614cdc5760405162461bcd60e51b8152600401610ebe90616c4d565b6001600160a01b038116614d025760405162461bcd60e51b8152600401610ebe90616753565b61207481615a36565b6000828260405160200161377a9291906165ba565b60215490565b614d2e615508565b336000908152601560205260409020601a546019546103e891614d50916174b2565b10614d6d5760405162461bcd60e51b8152600401610ebe90616fa5565b600781015460ff1615614d925760405162461bcd60e51b8152600401610ebe90616686565b60045433600090815260176020526040902054429190811115614dd75733600090815260176020526040812054614dca908390615924565b9050614dd58161379e565b505b33600090815260176020526040902054811115614e065760405162461bcd60e51b8152600401610ebe906169bb565b614e0f33615930565b614e5657601980546001810182556000919091527f944998273e477b495144fb8794c914197f3ccb46be2900f4698fd0ef743c96950180546001600160a01b031916331790555b8254336001600160a01b03199182168117855560018501805490921617905560058301829055600783015460ff16614e9e5760078301805460ff191660011790554260088401555b600160216000828254614eb191906174b2565b909155505060405133907f439d77b7534ec3108fc6143bd4fbabde0b9f2bb54f7b0730d1f70dd2135b765f90614ee89085906163d7565b60405180910390a2505050565b601d54101590565b3360009081526015602052604090206007015460ff1690565b60235490565b6026546001600160a01b031681565b6001600160a01b038082166000908152601560209081526040808320815161014081018352815486168152600182015490951692850192909252600282015490840152600381015460ff161515606084015260048101546080840152600581015460a08401526006810180549293849390929160c0840191614fac90617544565b80601f0160208091040260200160405190810160405280929190818152602001828054614fd890617544565b80156150255780601f10614ffa57610100808354040283529160200191615025565b820191906000526020600020905b81548152906001019060200180831161500857829003601f168201915b5050509183525050600782015460ff8082161515602084015261010090910416151560408083019190915260089092015460609091015201519392505050565b61506d615508565b615076836138a5565b6150925760405162461bcd60e51b8152600401610ebe9061682c565b336000908152600b6020908152604080832086845290915290205460ff16156150cd5760405162461bcd60e51b8152600401610ebe90616f5c565b6150d78333614235565b6150f35760405162461bcd60e51b8152600401610ebe90616863565b600454336000908152601760205260409020548111156151355733600090815260176020526040812054615128908390615924565b90506151338161379e565b505b336000908152601760205260409020548111156151645760405162461bcd60e51b8152600401610ebe90616fe7565b6000336000908152601160205260408082209051631b23afef60e21b815273__$6ffa5bf1f4fa681f07e1987a80577d5f4e$__91636c8ebfbc916151ad919086906004016163fc565b60206040518083038186803b1580156151c557600080fd5b505af41580156151d9573d6000803e3d6000fd5b505050506040513d601f19601f820116820180604052508101906151fd91906161f2565b9050858114156152a25733600090815260116020526040908190209051631b23afef60e21b815273__$6ffa5bf1f4fa681f07e1987a80577d5f4e$__91636c8ebfbc9161524f91908a906004016163fc565b60206040518083038186803b15801561526757600080fd5b505af415801561527b573d6000803e3d6000fd5b505050506040513d601f19601f8201168201806040525081019061529f91906161f2565b90505b6152ae82823386613391565b6152ca5760405162461bcd60e51b8152600401610ebe90616b19565b3360009081526011602052604090819020905163f3a1998360e01b815273__$6ffa5bf1f4fa681f07e1987a80577d5f4e$__9163f3a1998391615316919086908b90879060040161730c565b60006040518083038186803b15801561532e57600080fd5b505af4158015615342573d6000803e3d6000fd5b5050505060006153523388613765565b604051633416d70d60e21b815290915073__$d865f21674766f31b0d600e4a95b721b57$__9063d05b5c349061539190601290859089906004016172ee565b60006040518083038186803b1580156153a957600080fd5b505af41580156153bd573d6000803e3d6000fd5b5050604051633416d70d60e21b815273__$d865f21674766f31b0d600e4a95b721b57$__925063d05b5c3491506153fd9060129085908b906004016172a2565b60006040518083038186803b15801561541557600080fd5b505af4158015615429573d6000803e3d6000fd5b5050506000888152600f602090815260408083203384528252808320899055601582528083208b84529180529091206003015490915061546a906001615924565b60008981526020808052604080832060030193909355426005850155338252600b81528282208b83529052908120805460ff1916600190811790915560218054919290916154b99084906174b2565b9091555050604051339089907f1b5c5140592c554fa4c0cdb5b3d3cd50f87aa84e477afd0b6c93d7702ef9c73c906154f29089906163d7565b60405180910390a35050505050505050565b3390565b601c546001600160a01b03166155305760405162461bcd60e51b8152600401610ebe90616e9f565b601c546040516000916001600160a01b03169061555190339060240161640a565b60408051601f198184030181529181526020820180516001600160e01b0316631f5ac9c560e11b1790525161558691906163e0565b6000604051808303816000865af19150503d80600081146155c3576040519150601f19603f3d011682016040523d82523d6000602084013e6155c8565b606091505b5050601c546040519192506000916001600160a01b03909116906155f090339060240161640a565b60408051601f198184030181529181526020820180516001600160e01b03166358563d2160e01b1790525161562591906163e0565b6000604051808303816000865af19150503d8060008114615662576040519150601f19603f3d011682016040523d82523d6000602084013e615667565b606091505b5050905081806156745750805b6137375760405162461bcd60e51b8152600401610ebe9061670e565b60008060005b60195481101561570457836001600160a01b0316601982815481106156cb57634e487b7160e01b600052603260045260246000fd5b6000918252602090912001546001600160a01b031614156156f25760019150809250615704565b806156fc8161757f565b915050615696565b5080156157e3576019805461571b906001906174fd565b8154811061573957634e487b7160e01b600052603260045260246000fd5b600091825260209091200154601980546001600160a01b03909216918490811061577357634e487b7160e01b600052603260045260246000fd5b9060005260206000200160006101000a8154816001600160a01b0302191690836001600160a01b0316021790555060198054806157c057634e487b7160e01b600052603160045260246000fd5b600082815260209020810160001990810180546001600160a01b03191690550190555b505050565b60008060005b601a5481101561585c57836001600160a01b0316601a828154811061582357634e487b7160e01b600052603260045260246000fd5b6000918252602090912001546001600160a01b0316141561584a576001915080925061585c565b806158548161757f565b9150506157ee565b5080156157e357601a8054615873906001906174fd565b8154811061589157634e487b7160e01b600052603260045260246000fd5b600091825260209091200154601a80546001600160a01b0390921691849081106158cb57634e487b7160e01b600052603260045260246000fd5b9060005260206000200160006101000a8154816001600160a01b0302191690836001600160a01b03160217905550601a8054806157c057634e487b7160e01b600052603160045260246000fd5b600061375e82846174b2565b600061375e82846174fd565b600080805b601954811015613bdd57836001600160a01b03166019828154811061596a57634e487b7160e01b600052603260045260246000fd5b6000918252602090912001546001600160a01b0316141561598e5760019150613bdd565b806159988161757f565b915050615935565b60008183106159af578161375e565b5090919050565b6000818310156159af578161375e565b600080805b601a54811015613bdd57836001600160a01b0316601a8281548110615a0057634e487b7160e01b600052603260045260246000fd5b6000918252602090912001546001600160a01b03161415615a245760019150613bdd565b80615a2e8161757f565b9150506159cb565b600080546001600160a01b038381166001600160a01b0319831681178455604051919092169283917f8be0079c531659141344cd1fd0a4f28419497f9722a3daafe3b4186f6b6457e09190a35050565b805160609060005b81811015615ad45780848281518110615ab757634e487b7160e01b600052603260045260246000fd5b602090810291909101015280615acc8161757f565b915050615a8e565b509192915050565b60606000825111615aec57600080fd5b81518060005b81811015615c6757600083615b056139c4565b878481518110615b2557634e487b7160e01b600052603260045260246000fd5b6020026020010151604051602001615b3e9291906163fc565b6040516020818303038152906040528051906020012060001c615b61919061759a565b615b6c9060016174b2565b9050600086615b7c6001846174fd565b81518110615b9a57634e487b7160e01b600052603260045260246000fd5b6020026020010151905086600186615bb291906174fd565b81518110615bd057634e487b7160e01b600052603260045260246000fd5b602002602001015187600184615be691906174fd565b81518110615c0457634e487b7160e01b600052603260045260246000fd5b60209081029190910101528087615c1c6001886174fd565b81518110615c3a57634e487b7160e01b600052603260045260246000fd5b6020908102919091010152615c506001866174fd565b945050508080615c5f9061757f565b915050615af2565b50929392505050565b828054615c7c90617544565b90600052602060002090601f016020900481019282615c9e5760008555615ce4565b82601f10615cb757805160ff1916838001178555615ce4565b82800160010185558215615ce4579182015b82811115615ce4578251825591602001919060010190615cc9565b50615cf0929150615e0d565b5090565b508054615d0090617544565b6000825580601f10615d125750612074565b601f0160209004906000526020600020908101906120749190615e0d565b60405180608001604052806060815260200160006001600160a01b031681526020016000815260200160006003811115615d7a57634e487b7160e01b600052602160045260246000fd5b905290565b604051806101c001604052806000815260200160008152602001600081526020016000815260200160008152602001600015158152602001600015158152602001600015158152602001600081526020016000815260200160008152602001600081526020016060815260200160006003811115615d7a57634e487b7160e01b600052602160045260246000fd5b5b80821115615cf05760008155600101615e0e565b80356001600160a01b0381168114610f3f57600080fd5b80518015158114610f3f57600080fd5b805160048110610f3f57600080fd5b600082601f830112615e68578081fd5b8135615e7b615e768261747f565b617456565b818152846020838601011115615e8f578283fd5b816020850160208301379081016020019190915292915050565b600082601f830112615eb9578081fd5b8151615ec7615e768261747f565b818152846020838601011115615edb578283fd5b614701826020830160208701617514565b600060208284031215615efd578081fd5b61375e82615e22565b60008060408385031215615f18578081fd5b615f2183615e22565b946020939093013593505050565b600080600060608486031215615f43578081fd5b615f4c84615e22565b95602085013595506040909401359392505050565b60006020808385031215615f73578182fd5b82356001600160401b0380821115615f89578384fd5b818501915085601f830112615f9c578384fd5b813581811115615fae57615fae6175da565b8381029150615fbe848301617456565b8181528481019084860184860187018a1015615fd8578788fd5b8795505b83861015615ffa578035835260019590950194918601918601615fdc565b5098975050505050505050565b600060208284031215616018578081fd5b61375e82615e39565b60008060408385031215616033578182fd5b82356001600160401b0380821115616049578384fd5b61605586838701615e58565b9350602085013591508082111561606a578283fd5b5061607785828601615e58565b9150509250929050565b60008060408385031215616093578182fd5b82356001600160401b038111156160a8578283fd5b6160b485828601615e58565b95602094909401359450505050565b6000602082840312156160d4578081fd5b81516001600160401b03808211156160ea578283fd5b81840191506101c0808387031215616100578384fd5b61610981617456565b9050825181526020830151602082015260408301516040820152606083015160608201526080830151608082015261614360a08401615e39565b60a082015261615460c08401615e39565b60c082015261616560e08401615e39565b60e0820152610100838101519082015261012080840151908201526101408084015190820152610160808401519082015261018080840151838111156161a9578586fd5b6161b588828701615ea9565b8284015250506101a091506161cb828401615e49565b91810191909152949350505050565b6000602082840312156161eb578081fd5b5035919050565b6000602082840312156112ca578081fd5b60008060408385031215616215578182fd5b8235915061622560208401615e22565b90509250929050565b600080600060608486031215616242578081fd5b505081359360208301359350604090920135919050565b6000806040838503121561626b578182fd5b50508035926020909101359150565b6000806000806080858703121561628f578182fd5b84359350602085013592506162a660408601615e22565b9396929550929360600135925050565b600080600080608085870312156162cb578182fd5b843593506020850135925060408501356001600160401b038111156162ee578283fd5b6162fa87828801615e58565b949793965093946060013593505050565b15159052565b60008151808452616329816020860160208601617514565b601f01601f19169290920160200192915050565b6004811061635b57634e487b7160e01b600052602160045260246000fd5b9052565b600a8152690c6dedadad2e890c2e6d60b31b602082015260400190565b60098152686e756d546f6b656e7360b81b602082015260400190565b60609190911b6bffffffffffffffffffffffff1916815260140190565b60609290921b6bffffffffffffffffffffffff19168252601482015260340190565b90815260200190565b600082516163f2818460208701617514565b9190910192915050565b918252602082015260400190565b6001600160a01b0391909116815260200190565b6001600160a01b038b811682528a1660208201526040810189905287151560608201526080810187905260a0810186905261014060c0820181905260009061646883820188616311565b95151560e0840152505091151561010083015261012090910152979650505050505050565b6000602080830181845280855180835260408601915060408482028701019250838701855b828110156164e057603f198886030184526164ce858351616311565b945092850192908501906001016164b2565b5092979650505050505050565b6020808252825182820181905260009190848201906040850190845b8181101561652557835183529284019291840191600101616509565b50909695505050505050565b901515815260200190565b60006020825261375e6020830184616311565b6000604082526165626040830185616311565b905060018060a01b03831660208301529392505050565b60006080825261658c6080830187616311565b6001600160a01b03861660208401526040830185905290506165b1606083018461633d565b95945050505050565b6000604082526165cd6040830185616311565b90508260208301529392505050565b60006020808352818454836002820490506001808316806165fe57607f831692505b85831081141561661c57634e487b7160e01b87526022600452602487fd5b61662883878a016163d7565b81801561663c576001811461664d57616677565b60ff19861682528782019650616677565b6166568b6174a6565b895b8681101561667157815484820152908501908901616658565b83019750505b50949998505050505050505050565b6020808252601c908201527f576f726b657220697320616c7265616479207265676973746572656400000000604082015260600190565b60208082526031908201527f676976656e204461746142617463682073686f756c6420626520415050524f5660408201527011510b08185b99081a5d081a5cc81b9bdd607a1b606082015260800190565b60208082526025908201527f72656365697665722072656a6563746564205f7265747269657665534675656c6040820152640818d85b1b60da1b606082015260800190565b60208082526026908201527f4f776e61626c653a206e6577206f776e657220697320746865207a65726f206160408201526564647265737360d01b606082015260800190565b60208082526029908201527f6b206f72204e20617265206e6f74204f4b20647572696e672072616e646f6d2060408201526839b2b632b1ba34b7b760b91b606082015260800190565b6020808252602a908201527f4661696c20647572696e6720616c6c6f636174696f6e3a206e6f7420656e6f75604082015269676820776f726b65727360b01b606082015260800190565b6020808252601e908201527f636f6d6d697420706572696f64206e6565647320746f206265206f70656e0000604082015260600190565b60208082526038908201527f55736572206e6565647320746f20626520616c6c6f636174656420746f20746860408201527f697320626174636820746f20636f6d6d6974206f6e2069740000000000000000606082015260800190565b6020808252602f908201527f636f756c64206e6f742072657761726420746f6b656e20696e2054726967676560408201526e3921b432b1b5a9b837ba161018973160891b606082015260800190565b6020808252603d908201527f436f756c64206e6f74207265717565737420656e6f75676820616c6c6f63617460408201527f6564207374616b652c2072657175657374566f74696e67526967687473000000606082015260800190565b6020808252602f908201527f5573657220686173206e6f7420636f6d6d69746564206265666f72652c20746860408201526e1d5cc818d85b89dd081c995d99585b608a1b606082015260800190565b60208082526043908201527f576f726b657220686173206e6f7420656e6f75676820285f6e756d546f6b656e60408201527f732920696e2068697320466f726d61745374616b6564546f6b656e42616c616e606082015262031b2960ed1b608082015260a00190565b6020808252602d908201527f636f756c64206e6f74207265776172642052455020696e20547269676765724360408201526c6865636b53706f742c20312e6160981b606082015260800190565b60208082526039908201527f646c6c4d61703a20646f6573206e6f7420636f696e7461696e205f446174614260408201527f61746368496420666f7220746865206d73672073656e64657200000000000000606082015260800190565b6020808252602b908201527f75736572206d75737420686176652072657665616c656420696e20746869732060408201526a0ced2eccadc4084c2e8c6d60ab1b606082015260800190565b6020808252601490820152733737ba1030903b30b634b2103837b9b4ba34b7b760611b604082015260600190565b6020808252603a908201527f576f726b65722063757272656e746c792068617320776f726b20616c6c6f636160408201527f7465642c2063616e277420626520756e72656769737465726564000000000000606082015260800190565b6020808252603b908201527f43616e277420616c6c6f6361746520776f726b2c207468652063757272656e7460408201527f20626174636820697320616c726561647920616c6c6f63617465640000000000606082015260800190565b6020808252602c908201527f576f726b6572206973206e6f74207265676973746572656420736f2063616e2760408201526b3a103ab73932b3b4b9ba32b960a11b606082015260800190565b6020808252818101527f4f776e61626c653a2063616c6c6572206973206e6f7420746865206f776e6572604082015260600190565b6020808252603a908201527f5f446174614261746368496420686173206e6f7420656e6465642c206f72206e60408201527f6f7420657665727920766f74657273206861766520766f746564000000000000606082015260800190565b6020808252603e908201527f436f756c64206e6f74206d6174636820656e637279707465642068617368202660408201527f20636c6561722068617368207769746820676976656e20696e707574732e0000606082015260800190565b60208082526029908201527f6765744e756d50617373696e67546f6b656e733a20686173686573206d75737460408201526808189948195c5d585b60ba1b606082015260800190565b60208082526036908201527f43616e277420616c6c6f6361746520776f726b2c207468652063757272656e74604082015275206261746368206973206e6f7420636f6d706c65746560501b606082015260800190565b60208082526026908201527f52657665616c20706572696f64206e6f74206f70656e20666f7220746869732060408201526511185d18525160d21b606082015260800190565b60208082526027908201527f617661696c61626c65546f6b656e732073686f756c64206265203e3d205f6e756040820152666d546f6b656e7360c81b606082015260800190565b60208082526017908201527f5f4461746142617463684964206d757374206578697374000000000000000000604082015260600190565b6020808252601390820152720c081059191c995cdcc8139bdd0815985b1a59606a1b604082015260600190565b6020808252602f908201527f636f756c64206e6f742072657761726420746f6b656e20696e2054726967676560408201526e3921b432b1b5a9b837ba161019173160891b606082015260800190565b60208082526021908201527f5f446174614261746368496420697320616c72656164792076616c69646174656040820152601960fa1b606082015260800190565b60208082526029908201527f557365722068617320616c726561647920636f6d6d6974656420746f207468696040820152681cc818985d18da125960ba1b606082015260800190565b60208082526022908201527f4d6178696d756d207265676973746572656420776f726b65727320616c726561604082015261647960f01b606082015260800190565b60208082526037908201527f75736572206d757374206861766520656e6f75676820766f74696e672072696760408201527f68747320616b6120616c6c6f6361746564207374616b65000000000000000000606082015260800190565b6020808252602d908201527f636f756c64206e6f74207265776172642052455020696e20547269676765724360408201526c6865636b53706f742c20322e6160981b606082015260800190565b6020808252602a908201527f5f446174614261746368496420636865636b696e6720766f7465206d757374206040820152691a185d9948195b99195960b21b606082015260800190565b6020808252603b908201527f436f756c64206e6f74207769746864726177566f74696e67526967687473207460408201527f68726f7567682050726f78795374616b654465616c6c6f636174650000000000606082015260800190565b6020808252600f908201526e11185d18481b5d5cdd08195e1a5cdd608a1b604082015260600190565b6020808252602c908201527f557365722068617320616c72656164792072657665616c65642c20746875732060408201526b18d85b89dd081c995d99585b60a21b606082015260800190565b60006020825282516020830152602083015160408301526040830151606083015260608301516080830152608083015160a083015260a08301516171f460c084018261630b565b5060c083015161720760e084018261630b565b5060e083015161010061721c8185018361630b565b840151610120848101919091528401516101408085019190915284015161016080850191909152840151610180808501919091528401516101c06101a0808601829052919250906172716101e0860184616311565b908601519092506143068583018261633d565b6000838252826020830152606060408301526147016060830161635f565b6000848252836020830152608060408301526172c06080830161635f565b9050826060830152949350505050565b6000838252826020830152606060408301526147016060830161637c565b6000848252836020830152608060408301526172c06080830161637c565b93845260208401929092526040830152606082015260800190565b60006020825282516080602084015261734360a0840182616311565b905060018060a01b036020850151166040840152604084015160608401526060840151617373608085018261633d565b509392505050565b9182526001600160a01b0316602082015260400190565b9182526001600160a01b031660208201526000604082015260600190565b9283526020830191909152604082015260600190565b60008f82528e60208301528d60408301528c60608301528b60808301528a151560a083015289151560c083015261740060e083018a61630b565b876101008301528661012083015285610140830152846101608301526101c06101808301526174336101c0830185616311565b90506174436101a083018461633d565b9f9e505050505050505050505050505050565b6040518181016001600160401b0381118282101715617477576174776175da565b604052919050565b60006001600160401b03821115617498576174986175da565b50601f01601f191660200190565b60009081526020902090565b600082198211156174c5576174c56175ae565b500190565b6000826174d9576174d96175c4565b500490565b60008160001904831182151516156174f8576174f86175ae565b500290565b60008282101561750f5761750f6175ae565b500390565b60005b8381101561752f578181015183820152602001617517565b8381111561753e576000848401525b50505050565b60028104600182168061755857607f821691505b6020821081141561757957634e487b7160e01b600052602260045260246000fd5b50919050565b6000600019821415617593576175936175ae565b5060010190565b6000826175a9576175a96175c4565b500690565b634e487b7160e01b600052601160045260246000fd5b634e487b7160e01b600052601260045260246000fd5b634e487b7160e01b600052604160045260246000fdfea264697066735822122097a3fa5256eb7e006bbc454d4cee5e6f7f31c8fefde419b61089ecea7784fff964736f6c63430008000033",
  "linkReferences": {
    "contracts/worksystems/DataFormatting.sol": {
      "AttributeStore2": [
        {
          "length": 20,
          "start": 17256
        },
        {
          "length": 20,
          "start": 17734
        },
        {
          "length": 20,
          "start": 21800
        },
        {
          "length": 20,
          "start": 21906
        }
      ],
      "DLL2": [
        {
          "length": 20,
          "start": 5683
        },
        {
          "length": 20,
          "start": 6207
        },
        {
          "length": 20,
          "start": 14180
        },
        {
          "length": 20,
          "start": 14360
        },
        {
          "length": 20,
          "start": 21320
        },
        {
          "length": 20,
          "start": 21482
        },
        {
          "length": 20,
          "start": 21677
        }
      ]
    }
  },
  "deployedLinkReferences": {
    "contracts/worksystems/DataFormatting.sol": {
      "AttributeStore2": [
        {
          "length": 20,
          "start": 16804
        },
        {
          "length": 20,
          "start": 17282
        },
        {
          "length": 20,
          "start": 21348
        },
        {
          "length": 20,
          "start": 21454
        }
      ],
      "DLL2": [
        {
          "length": 20,
          "start": 5231
        },
        {
          "length": 20,
          "start": 5755
        },
        {
          "length": 20,
          "start": 13728
        },
        {
          "length": 20,
          "start": 13908
        },
        {
          "length": 20,
          "start": 20868
        },
        {
          "length": 20,
          "start": 21030
        },
        {
          "length": 20,
          "start": 21225
        }
      ]
    }
  }
}