{
  "_format": "hh-sol-artifact-1",
  "contractName": "DataFormatting",
  "sourceName": "contracts/worksystems/DataFormatting.sol",
  "abi": [
    {
      "inputs": [
        {
          "internalType": "address",
          "name": "EXDT_token",
          "type": "address"
        }
      ],
      "stateMutability": "nonpayable",
      "type": "constructor"
    },
    {
      "anonymous": false,
      "inputs": [
        {
          "indexed": false,
          "internalType": "bytes",
          "name": "bytesFailure",
          "type": "bytes"
        }
      ],
      "name": "BytesFailure",
      "type": "event"
    },
    {
      "anonymous": false,
      "inputs": [
        {
          "indexed": true,
          "internalType": "address",
          "name": "previousOwner",
          "type": "address"
        },
        {
          "indexed": true,
          "internalType": "address",
          "name": "newOwner",
          "type": "address"
        }
      ],
      "name": "OwnershipTransferred",
      "type": "event"
    },
    {
      "anonymous": false,
      "inputs": [
        {
          "indexed": false,
          "internalType": "string",
          "name": "hash",
          "type": "string"
        },
        {
          "indexed": true,
          "internalType": "address",
          "name": "creator",
          "type": "address"
        }
      ],
      "name": "_FormatAccepted",
      "type": "event"
    },
    {
      "anonymous": false,
      "inputs": [
        {
          "indexed": true,
          "internalType": "uint256",
          "name": "DataID",
          "type": "uint256"
        },
        {
          "indexed": false,
          "internalType": "uint256",
          "name": "numTokens",
          "type": "uint256"
        },
        {
          "indexed": true,
          "internalType": "address",
          "name": "voter",
          "type": "address"
        }
      ],
      "name": "_FormatCheckCommitted",
      "type": "event"
    },
    {
      "anonymous": false,
      "inputs": [
        {
          "indexed": true,
          "internalType": "uint256",
          "name": "DataID",
          "type": "uint256"
        },
        {
          "indexed": false,
          "internalType": "uint256",
          "name": "numTokens",
          "type": "uint256"
        },
        {
          "indexed": false,
          "internalType": "uint256",
          "name": "votesFor",
          "type": "uint256"
        },
        {
          "indexed": false,
          "internalType": "uint256",
          "name": "votesAgainst",
          "type": "uint256"
        },
        {
          "indexed": true,
          "internalType": "uint256",
          "name": "choice",
          "type": "uint256"
        },
        {
          "indexed": true,
          "internalType": "address",
          "name": "voter",
          "type": "address"
        }
      ],
      "name": "_FormatCheckRevealed",
      "type": "event"
    },
    {
      "anonymous": false,
      "inputs": [
        {
          "indexed": true,
          "internalType": "uint256",
          "name": "DataID",
          "type": "uint256"
        },
        {
          "indexed": false,
          "internalType": "string",
          "name": "file_hash",
          "type": "string"
        },
        {
          "indexed": false,
          "internalType": "address",
          "name": "sender",
          "type": "address"
        }
      ],
      "name": "_FormatSubmitted",
      "type": "event"
    },
    {
      "anonymous": false,
      "inputs": [
        {
          "indexed": true,
          "internalType": "uint256",
          "name": "epochNumber",
          "type": "uint256"
        }
      ],
      "name": "_NewEpoch",
      "type": "event"
    },
    {
      "anonymous": false,
      "inputs": [
        {
          "indexed": true,
          "internalType": "uint256",
          "name": "DataID",
          "type": "uint256"
        },
        {
          "indexed": true,
          "internalType": "address",
          "name": "voter",
          "type": "address"
        }
      ],
      "name": "_TokensRescued",
      "type": "event"
    },
    {
      "anonymous": false,
      "inputs": [
        {
          "indexed": false,
          "internalType": "uint256",
          "name": "numTokens",
          "type": "uint256"
        },
        {
          "indexed": true,
          "internalType": "address",
          "name": "voter",
          "type": "address"
        }
      ],
      "name": "_VotingRightsGranted",
      "type": "event"
    },
    {
      "anonymous": false,
      "inputs": [
        {
          "indexed": false,
          "internalType": "uint256",
          "name": "numTokens",
          "type": "uint256"
        },
        {
          "indexed": true,
          "internalType": "address",
          "name": "voter",
          "type": "address"
        }
      ],
      "name": "_VotingRightsWithdrawn",
      "type": "event"
    },
    {
      "anonymous": false,
      "inputs": [
        {
          "indexed": true,
          "internalType": "uint256",
          "name": "batchID",
          "type": "uint256"
        },
        {
          "indexed": false,
          "internalType": "address",
          "name": "worker",
          "type": "address"
        }
      ],
      "name": "_WorkAllocated",
      "type": "event"
    },
    {
      "anonymous": false,
      "inputs": [
        {
          "indexed": true,
          "internalType": "address",
          "name": "worker",
          "type": "address"
        },
        {
          "indexed": false,
          "internalType": "uint256",
          "name": "timestamp",
          "type": "uint256"
        }
      ],
      "name": "_WorkerRegistered",
      "type": "event"
    },
    {
      "anonymous": false,
      "inputs": [
        {
          "indexed": true,
          "internalType": "address",
          "name": "worker",
          "type": "address"
        },
        {
          "indexed": false,
          "internalType": "uint256",
          "name": "timestamp",
          "type": "uint256"
        }
      ],
      "name": "_WorkerUnregistered",
      "type": "event"
    },
    {
      "inputs": [],
      "name": "AcceptedBatchsCounter",
      "outputs": [
        {
          "internalType": "uint256",
          "name": "",
          "type": "uint256"
        }
      ],
      "stateMutability": "view",
      "type": "function"
    },
    {
      "inputs": [],
      "name": "AddressManager",
      "outputs": [
        {
          "internalType": "contract IAddressManager",
          "name": "",
          "type": "address"
        }
      ],
      "stateMutability": "view",
      "type": "function"
    },
    {
      "inputs": [],
      "name": "AllTxsCounter",
      "outputs": [
        {
          "internalType": "uint256",
          "name": "",
          "type": "uint256"
        }
      ],
      "stateMutability": "view",
      "type": "function"
    },
    {
      "inputs": [],
      "name": "AllocateWork",
      "outputs": [],
      "stateMutability": "nonpayable",
      "type": "function"
    },
    {
      "inputs": [],
      "name": "AllocatedBatchCursor",
      "outputs": [
        {
          "internalType": "uint256",
          "name": "",
          "type": "uint256"
        }
      ],
      "stateMutability": "view",
      "type": "function"
    },
    {
      "inputs": [],
      "name": "AmIRegistered",
      "outputs": [
        {
          "internalType": "bool",
          "name": "passed",
          "type": "bool"
        }
      ],
      "stateMutability": "view",
      "type": "function"
    },
    {
      "inputs": [],
      "name": "ArchiveSystem",
      "outputs": [
        {
          "internalType": "contract IArchiveSystem",
          "name": "",
          "type": "address"
        }
      ],
      "stateMutability": "view",
      "type": "function"
    },
    {
      "inputs": [
        {
          "internalType": "string",
          "name": "_a",
          "type": "string"
        },
        {
          "internalType": "string",
          "name": "_b",
          "type": "string"
        }
      ],
      "name": "AreStringsEqual",
      "outputs": [
        {
          "internalType": "bool",
          "name": "",
          "type": "bool"
        }
      ],
      "stateMutability": "pure",
      "type": "function"
    },
    {
      "inputs": [],
      "name": "BatchCheckingCursor",
      "outputs": [
        {
          "internalType": "uint256",
          "name": "",
          "type": "uint256"
        }
      ],
      "stateMutability": "view",
      "type": "function"
    },
    {
      "inputs": [],
      "name": "COMMIT_ROUND_DURATION",
      "outputs": [
        {
          "internalType": "uint256",
          "name": "",
          "type": "uint256"
        }
      ],
      "stateMutability": "view",
      "type": "function"
    },
    {
      "inputs": [],
      "name": "CONSENSUS_WORKER_SIZE",
      "outputs": [
        {
          "internalType": "uint256",
          "name": "",
          "type": "uint256"
        }
      ],
      "stateMutability": "view",
      "type": "function"
    },
    {
      "inputs": [
        {
          "internalType": "uint256",
          "name": "",
          "type": "uint256"
        }
      ],
      "name": "CollectedSpotBatchs",
      "outputs": [
        {
          "internalType": "bool",
          "name": "",
          "type": "bool"
        }
      ],
      "stateMutability": "view",
      "type": "function"
    },
    {
      "inputs": [],
      "name": "CurrentWorkEpoch",
      "outputs": [
        {
          "internalType": "uint256",
          "name": "",
          "type": "uint256"
        }
      ],
      "stateMutability": "view",
      "type": "function"
    },
    {
      "inputs": [],
      "name": "DATA_BATCH_SIZE",
      "outputs": [
        {
          "internalType": "uint256",
          "name": "",
          "type": "uint256"
        }
      ],
      "stateMutability": "view",
      "type": "function"
    },
    {
      "inputs": [
        {
          "internalType": "uint256",
          "name": "",
          "type": "uint256"
        }
      ],
      "name": "DataBatch",
      "outputs": [
        {
          "internalType": "uint256",
          "name": "start_idx",
          "type": "uint256"
        },
        {
          "internalType": "uint256",
          "name": "counter",
          "type": "uint256"
        },
        {
          "internalType": "uint256",
          "name": "unrevealed_workers",
          "type": "uint256"
        },
        {
          "internalType": "uint256",
          "name": "uncommited_workers",
          "type": "uint256"
        },
        {
          "internalType": "uint256",
          "name": "item_count",
          "type": "uint256"
        },
        {
          "internalType": "bool",
          "name": "complete",
          "type": "bool"
        },
        {
          "internalType": "bool",
          "name": "checked",
          "type": "bool"
        },
        {
          "internalType": "bool",
          "name": "allocated_to_work",
          "type": "bool"
        },
        {
          "internalType": "uint256",
          "name": "commitEndDate",
          "type": "uint256"
        },
        {
          "internalType": "uint256",
          "name": "revealEndDate",
          "type": "uint256"
        },
        {
          "internalType": "uint256",
          "name": "votesFor",
          "type": "uint256"
        },
        {
          "internalType": "uint256",
          "name": "votesAgainst",
          "type": "uint256"
        },
        {
          "internalType": "string",
          "name": "batchIPFSfile",
          "type": "string"
        },
        {
          "internalType": "enum DataFormatting.DataStatus",
          "name": "status",
          "type": "uint8"
        }
      ],
      "stateMutability": "view",
      "type": "function"
    },
    {
      "inputs": [
        {
          "internalType": "uint256",
          "name": "_DataBatchId",
          "type": "uint256"
        }
      ],
      "name": "DataCommitEndDate",
      "outputs": [
        {
          "internalType": "uint256",
          "name": "commitEndDate",
          "type": "uint256"
        }
      ],
      "stateMutability": "view",
      "type": "function"
    },
    {
      "inputs": [
        {
          "internalType": "uint256",
          "name": "_DataBatchId",
          "type": "uint256"
        }
      ],
      "name": "DataEnded",
      "outputs": [
        {
          "internalType": "bool",
          "name": "ended",
          "type": "bool"
        }
      ],
      "stateMutability": "view",
      "type": "function"
    },
    {
      "inputs": [
        {
          "internalType": "uint256",
          "name": "_DataBatchId",
          "type": "uint256"
        }
      ],
      "name": "DataExists",
      "outputs": [
        {
          "internalType": "bool",
          "name": "exists",
          "type": "bool"
        }
      ],
      "stateMutability": "view",
      "type": "function"
    },
    {
      "inputs": [],
      "name": "DataNonce",
      "outputs": [
        {
          "internalType": "uint256",
          "name": "",
          "type": "uint256"
        }
      ],
      "stateMutability": "view",
      "type": "function"
    },
    {
      "inputs": [
        {
          "internalType": "uint256",
          "name": "_DataBatchId",
          "type": "uint256"
        }
      ],
      "name": "DataRevealEndDate",
      "outputs": [
        {
          "internalType": "uint256",
          "name": "revealEndDate",
          "type": "uint256"
        }
      ],
      "stateMutability": "view",
      "type": "function"
    },
    {
      "inputs": [
        {
          "internalType": "address",
          "name": "",
          "type": "address"
        }
      ],
      "name": "FormatStakedTokenBalance",
      "outputs": [
        {
          "internalType": "uint256",
          "name": "",
          "type": "uint256"
        }
      ],
      "stateMutability": "view",
      "type": "function"
    },
    {
      "inputs": [
        {
          "internalType": "uint256",
          "name": "",
          "type": "uint256"
        }
      ],
      "name": "FormatsMapping",
      "outputs": [
        {
          "internalType": "string",
          "name": "ipfs_hash",
          "type": "string"
        },
        {
          "internalType": "address",
          "name": "author",
          "type": "address"
        },
        {
          "internalType": "uint256",
          "name": "timestamp",
          "type": "uint256"
        },
        {
          "internalType": "enum DataFormatting.DataStatus",
          "name": "status",
          "type": "uint8"
        }
      ],
      "stateMutability": "view",
      "type": "function"
    },
    {
      "inputs": [
        {
          "internalType": "address",
          "name": "user_",
          "type": "address"
        }
      ],
      "name": "GetCurrentWork",
      "outputs": [
        {
          "internalType": "uint256",
          "name": "",
          "type": "uint256"
        }
      ],
      "stateMutability": "view",
      "type": "function"
    },
    {
      "inputs": [
        {
          "internalType": "address",
          "name": "user_",
          "type": "address"
        }
      ],
      "name": "IsNewWorkAvailable",
      "outputs": [
        {
          "internalType": "bool",
          "name": "",
          "type": "bool"
        }
      ],
      "stateMutability": "view",
      "type": "function"
    },
    {
      "inputs": [],
      "name": "LastBatchCounter",
      "outputs": [
        {
          "internalType": "uint256",
          "name": "",
          "type": "uint256"
        }
      ],
      "stateMutability": "view",
      "type": "function"
    },
    {
      "inputs": [],
      "name": "MIN_CONSENSUS_WORKER_COUNT",
      "outputs": [
        {
          "internalType": "uint256",
          "name": "",
          "type": "uint256"
        }
      ],
      "stateMutability": "view",
      "type": "function"
    },
    {
      "inputs": [],
      "name": "MIN_REP_Data",
      "outputs": [
        {
          "internalType": "uint256",
          "name": "",
          "type": "uint256"
        }
      ],
      "stateMutability": "view",
      "type": "function"
    },
    {
      "inputs": [],
      "name": "MIN_REP_REVEAL",
      "outputs": [
        {
          "internalType": "uint256",
          "name": "",
          "type": "uint256"
        }
      ],
      "stateMutability": "view",
      "type": "function"
    },
    {
      "inputs": [],
      "name": "MIN_REWARD_Data",
      "outputs": [
        {
          "internalType": "uint256",
          "name": "",
          "type": "uint256"
        }
      ],
      "stateMutability": "view",
      "type": "function"
    },
    {
      "inputs": [],
      "name": "MIN_STAKE",
      "outputs": [
        {
          "internalType": "uint256",
          "name": "",
          "type": "uint256"
        }
      ],
      "stateMutability": "view",
      "type": "function"
    },
    {
      "inputs": [
        {
          "internalType": "address",
          "name": "",
          "type": "address"
        },
        {
          "internalType": "uint256",
          "name": "",
          "type": "uint256"
        }
      ],
      "name": "MasterWorkers",
      "outputs": [
        {
          "internalType": "address",
          "name": "",
          "type": "address"
        }
      ],
      "stateMutability": "view",
      "type": "function"
    },
    {
      "inputs": [],
      "name": "NotCommitedCounter",
      "outputs": [
        {
          "internalType": "uint256",
          "name": "",
          "type": "uint256"
        }
      ],
      "stateMutability": "view",
      "type": "function"
    },
    {
      "inputs": [],
      "name": "NotRevealedCounter",
      "outputs": [
        {
          "internalType": "uint256",
          "name": "",
          "type": "uint256"
        }
      ],
      "stateMutability": "view",
      "type": "function"
    },
    {
      "inputs": [
        {
          "internalType": "uint256",
          "name": "CheckedBatchId",
          "type": "uint256"
        }
      ],
      "name": "Ping",
      "outputs": [
        {
          "internalType": "bool",
          "name": "",
          "type": "bool"
        }
      ],
      "stateMutability": "nonpayable",
      "type": "function"
    },
    {
      "inputs": [],
      "name": "REVEAL_ROUND_DURATION",
      "outputs": [
        {
          "internalType": "uint256",
          "name": "",
          "type": "uint256"
        }
      ],
      "stateMutability": "view",
      "type": "function"
    },
    {
      "inputs": [],
      "name": "RegisterWorker",
      "outputs": [],
      "stateMutability": "nonpayable",
      "type": "function"
    },
    {
      "inputs": [],
      "name": "RejectedBatchsCounter",
      "outputs": [
        {
          "internalType": "uint256",
          "name": "",
          "type": "uint256"
        }
      ],
      "stateMutability": "view",
      "type": "function"
    },
    {
      "inputs": [],
      "name": "RepManager",
      "outputs": [
        {
          "internalType": "contract IRepManager",
          "name": "",
          "type": "address"
        }
      ],
      "stateMutability": "view",
      "type": "function"
    },
    {
      "inputs": [],
      "name": "RewardManager",
      "outputs": [
        {
          "internalType": "contract IRewardManager",
          "name": "",
          "type": "address"
        }
      ],
      "stateMutability": "view",
      "type": "function"
    },
    {
      "inputs": [],
      "name": "SpottingSystem",
      "outputs": [
        {
          "internalType": "contract ISpottingSystem",
          "name": "",
          "type": "address"
        }
      ],
      "stateMutability": "view",
      "type": "function"
    },
    {
      "inputs": [],
      "name": "StakeManager",
      "outputs": [
        {
          "internalType": "contract IStakeManager",
          "name": "",
          "type": "address"
        }
      ],
      "stateMutability": "view",
      "type": "function"
    },
    {
      "inputs": [],
      "name": "TriggerNextEpoch",
      "outputs": [],
      "stateMutability": "nonpayable",
      "type": "function"
    },
    {
      "inputs": [],
      "name": "UnregisterWorker",
      "outputs": [],
      "stateMutability": "nonpayable",
      "type": "function"
    },
    {
      "inputs": [
        {
          "internalType": "uint256",
          "name": "",
          "type": "uint256"
        },
        {
          "internalType": "address",
          "name": "",
          "type": "address"
        }
      ],
      "name": "UserBatchCounts",
      "outputs": [
        {
          "internalType": "uint256",
          "name": "",
          "type": "uint256"
        }
      ],
      "stateMutability": "view",
      "type": "function"
    },
    {
      "inputs": [
        {
          "internalType": "address",
          "name": "",
          "type": "address"
        },
        {
          "internalType": "uint256",
          "name": "",
          "type": "uint256"
        }
      ],
      "name": "UserChecksCommits",
      "outputs": [
        {
          "internalType": "bool",
          "name": "",
          "type": "bool"
        }
      ],
      "stateMutability": "view",
      "type": "function"
    },
    {
      "inputs": [
        {
          "internalType": "address",
          "name": "",
          "type": "address"
        },
        {
          "internalType": "uint256",
          "name": "",
          "type": "uint256"
        }
      ],
      "name": "UserChecksReveals",
      "outputs": [
        {
          "internalType": "bool",
          "name": "",
          "type": "bool"
        }
      ],
      "stateMutability": "view",
      "type": "function"
    },
    {
      "inputs": [
        {
          "internalType": "uint256",
          "name": "",
          "type": "uint256"
        },
        {
          "internalType": "address",
          "name": "",
          "type": "address"
        }
      ],
      "name": "UserNewFiles",
      "outputs": [
        {
          "internalType": "string",
          "name": "",
          "type": "string"
        }
      ],
      "stateMutability": "view",
      "type": "function"
    },
    {
      "inputs": [
        {
          "internalType": "uint256",
          "name": "",
          "type": "uint256"
        },
        {
          "internalType": "address",
          "name": "",
          "type": "address"
        }
      ],
      "name": "UserVotes",
      "outputs": [
        {
          "internalType": "uint256",
          "name": "",
          "type": "uint256"
        }
      ],
      "stateMutability": "view",
      "type": "function"
    },
    {
      "inputs": [],
      "name": "VOTE_QUORUM",
      "outputs": [
        {
          "internalType": "uint256",
          "name": "",
          "type": "uint256"
        }
      ],
      "stateMutability": "view",
      "type": "function"
    },
    {
      "inputs": [
        {
          "internalType": "uint256",
          "name": "_DataBatchId",
          "type": "uint256"
        }
      ],
      "name": "ValidateDataBatch",
      "outputs": [],
      "stateMutability": "nonpayable",
      "type": "function"
    },
    {
      "inputs": [
        {
          "internalType": "uint256",
          "name": "",
          "type": "uint256"
        },
        {
          "internalType": "uint256",
          "name": "",
          "type": "uint256"
        }
      ],
      "name": "WorkersPerBatch",
      "outputs": [
        {
          "internalType": "address",
          "name": "",
          "type": "address"
        }
      ],
      "stateMutability": "view",
      "type": "function"
    },
    {
      "inputs": [
        {
          "internalType": "address",
          "name": "",
          "type": "address"
        }
      ],
      "name": "WorkersState",
      "outputs": [
        {
          "internalType": "address",
          "name": "worker_address",
          "type": "address"
        },
        {
          "internalType": "address",
          "name": "master_address",
          "type": "address"
        },
        {
          "internalType": "uint256",
          "name": "allocated_work_batch",
          "type": "uint256"
        },
        {
          "internalType": "bool",
          "name": "has_completed_work",
          "type": "bool"
        },
        {
          "internalType": "uint256",
          "name": "last_worked_round",
          "type": "uint256"
        },
        {
          "internalType": "uint256",
          "name": "last_interaction_date",
          "type": "uint256"
        },
        {
          "internalType": "string",
          "name": "extra",
          "type": "string"
        },
        {
          "internalType": "bool",
          "name": "registered",
          "type": "bool"
        },
        {
          "internalType": "bool",
          "name": "unregistration_request",
          "type": "bool"
        },
        {
          "internalType": "uint256",
          "name": "registration_date",
          "type": "uint256"
        }
      ],
      "stateMutability": "view",
      "type": "function"
    },
    {
      "inputs": [
        {
          "internalType": "address",
          "name": "_user",
          "type": "address"
        },
        {
          "internalType": "uint256",
          "name": "_DataBatchId",
          "type": "uint256"
        }
      ],
      "name": "attrUUID",
      "outputs": [
        {
          "internalType": "bytes32",
          "name": "UUID",
          "type": "bytes32"
        }
      ],
      "stateMutability": "pure",
      "type": "function"
    },
    {
      "inputs": [
        {
          "internalType": "uint256",
          "name": "",
          "type": "uint256"
        }
      ],
      "name": "availableWorkers",
      "outputs": [
        {
          "internalType": "address",
          "name": "",
          "type": "address"
        }
      ],
      "stateMutability": "view",
      "type": "function"
    },
    {
      "inputs": [
        {
          "internalType": "uint256",
          "name": "",
          "type": "uint256"
        }
      ],
      "name": "busyWorkers",
      "outputs": [
        {
          "internalType": "address",
          "name": "",
          "type": "address"
        }
      ],
      "stateMutability": "view",
      "type": "function"
    },
    {
      "inputs": [
        {
          "internalType": "uint256",
          "name": "_DataBatchId",
          "type": "uint256"
        },
        {
          "internalType": "bytes32",
          "name": "_secretIPFSHash",
          "type": "bytes32"
        },
        {
          "internalType": "uint256",
          "name": "_BatchCount",
          "type": "uint256"
        }
      ],
      "name": "commitFormatCheck",
      "outputs": [],
      "stateMutability": "nonpayable",
      "type": "function"
    },
    {
      "inputs": [
        {
          "internalType": "uint256",
          "name": "_DataBatchId",
          "type": "uint256"
        }
      ],
      "name": "commitPeriodActive",
      "outputs": [
        {
          "internalType": "bool",
          "name": "active",
          "type": "bool"
        }
      ],
      "stateMutability": "view",
      "type": "function"
    },
    {
      "inputs": [
        {
          "internalType": "uint256",
          "name": "_DataId",
          "type": "uint256"
        }
      ],
      "name": "deleteData",
      "outputs": [],
      "stateMutability": "nonpayable",
      "type": "function"
    },
    {
      "inputs": [
        {
          "internalType": "uint256",
          "name": "_BatchId",
          "type": "uint256"
        }
      ],
      "name": "deleteDataBatch",
      "outputs": [],
      "stateMutability": "nonpayable",
      "type": "function"
    },
    {
      "inputs": [
        {
          "internalType": "uint256",
          "name": "_BatchId",
          "type": "uint256"
        }
      ],
      "name": "deleteMapping",
      "outputs": [],
      "stateMutability": "nonpayable",
      "type": "function"
    },
    {
      "inputs": [
        {
          "internalType": "address",
          "name": "_voter",
          "type": "address"
        },
        {
          "internalType": "uint256",
          "name": "_DataBatchId",
          "type": "uint256"
        }
      ],
      "name": "didCommit",
      "outputs": [
        {
          "internalType": "bool",
          "name": "committed",
          "type": "bool"
        }
      ],
      "stateMutability": "view",
      "type": "function"
    },
    {
      "inputs": [
        {
          "internalType": "address",
          "name": "_voter",
          "type": "address"
        },
        {
          "internalType": "uint256",
          "name": "_DataBatchId",
          "type": "uint256"
        }
      ],
      "name": "didReveal",
      "outputs": [
        {
          "internalType": "bool",
          "name": "revealed",
          "type": "bool"
        }
      ],
      "stateMutability": "view",
      "type": "function"
    },
    {
      "inputs": [
        {
          "internalType": "uint256",
          "name": "_k",
          "type": "uint256"
        },
        {
          "internalType": "uint256",
          "name": "N_range",
          "type": "uint256"
        }
      ],
      "name": "generateIntegers",
      "outputs": [
        {
          "internalType": "uint256[]",
          "name": "",
          "type": "uint256[]"
        }
      ],
      "stateMutability": "view",
      "type": "function"
    },
    {
      "inputs": [],
      "name": "getAcceptedBatchesCount",
      "outputs": [
        {
          "internalType": "uint256",
          "name": "count",
          "type": "uint256"
        }
      ],
      "stateMutability": "view",
      "type": "function"
    },
    {
      "inputs": [],
      "name": "getActiveWorkersCount",
      "outputs": [
        {
          "internalType": "uint256",
          "name": "numWorkers",
          "type": "uint256"
        }
      ],
      "stateMutability": "view",
      "type": "function"
    },
    {
      "inputs": [
        {
          "internalType": "uint256",
          "name": "_DataBatchId",
          "type": "uint256"
        }
      ],
      "name": "getBatchByID",
      "outputs": [
        {
          "components": [
            {
              "internalType": "uint256",
              "name": "start_idx",
              "type": "uint256"
            },
            {
              "internalType": "uint256",
              "name": "counter",
              "type": "uint256"
            },
            {
              "internalType": "uint256",
              "name": "unrevealed_workers",
              "type": "uint256"
            },
            {
              "internalType": "uint256",
              "name": "uncommited_workers",
              "type": "uint256"
            },
            {
              "internalType": "uint256",
              "name": "item_count",
              "type": "uint256"
            },
            {
              "internalType": "bool",
              "name": "complete",
              "type": "bool"
            },
            {
              "internalType": "bool",
              "name": "checked",
              "type": "bool"
            },
            {
              "internalType": "bool",
              "name": "allocated_to_work",
              "type": "bool"
            },
            {
              "internalType": "uint256",
              "name": "commitEndDate",
              "type": "uint256"
            },
            {
              "internalType": "uint256",
              "name": "revealEndDate",
              "type": "uint256"
            },
            {
              "internalType": "uint256",
              "name": "votesFor",
              "type": "uint256"
            },
            {
              "internalType": "uint256",
              "name": "votesAgainst",
              "type": "uint256"
            },
            {
              "internalType": "string",
              "name": "batchIPFSfile",
              "type": "string"
            },
            {
              "internalType": "enum DataFormatting.DataStatus",
              "name": "status",
              "type": "uint8"
            }
          ],
          "internalType": "struct DataFormatting.BatchMetadata",
          "name": "batch",
          "type": "tuple"
        }
      ],
      "stateMutability": "view",
      "type": "function"
    },
    {
      "inputs": [
        {
          "internalType": "uint256",
          "name": "_DataBatchId",
          "type": "uint256"
        }
      ],
      "name": "getBatchIPFSFileByID",
      "outputs": [
        {
          "internalType": "string",
          "name": "batch",
          "type": "string"
        }
      ],
      "stateMutability": "view",
      "type": "function"
    },
    {
      "inputs": [
        {
          "internalType": "address",
          "name": "_voter",
          "type": "address"
        },
        {
          "internalType": "uint256",
          "name": "_DataBatchId",
          "type": "uint256"
        }
      ],
      "name": "getCommitHash",
      "outputs": [
        {
          "internalType": "bytes32",
          "name": "commitHash",
          "type": "bytes32"
        }
      ],
      "stateMutability": "view",
      "type": "function"
    },
    {
      "inputs": [],
      "name": "getCurrentWorkEpoch",
      "outputs": [
        {
          "internalType": "uint256",
          "name": "WorkEpoch",
          "type": "uint256"
        }
      ],
      "stateMutability": "view",
      "type": "function"
    },
    {
      "inputs": [
        {
          "internalType": "uint256",
          "name": "_DataId",
          "type": "uint256"
        }
      ],
      "name": "getDataByID",
      "outputs": [
        {
          "components": [
            {
              "internalType": "string",
              "name": "ipfs_hash",
              "type": "string"
            },
            {
              "internalType": "address",
              "name": "author",
              "type": "address"
            },
            {
              "internalType": "uint256",
              "name": "timestamp",
              "type": "uint256"
            },
            {
              "internalType": "enum DataFormatting.DataStatus",
              "name": "status",
              "type": "uint8"
            }
          ],
          "internalType": "struct DataFormatting.FormattedData",
          "name": "data",
          "type": "tuple"
        }
      ],
      "stateMutability": "view",
      "type": "function"
    },
    {
      "inputs": [
        {
          "internalType": "string",
          "name": "_hash",
          "type": "string"
        },
        {
          "internalType": "uint256",
          "name": "_salt",
          "type": "uint256"
        }
      ],
      "name": "getEncryptedStringHash",
      "outputs": [
        {
          "internalType": "bytes32",
          "name": "keccak256hash",
          "type": "bytes32"
        }
      ],
      "stateMutability": "pure",
      "type": "function"
    },
    {
      "inputs": [
        {
          "internalType": "uint256",
          "name": "_DataBatchId",
          "type": "uint256"
        }
      ],
      "name": "getIPFShashesForBatch",
      "outputs": [
        {
          "internalType": "string[]",
          "name": "",
          "type": "string[]"
        }
      ],
      "stateMutability": "view",
      "type": "function"
    },
    {
      "inputs": [],
      "name": "getLastAllocatedBatchId",
      "outputs": [
        {
          "internalType": "uint256",
          "name": "LastAllocatedBatchId",
          "type": "uint256"
        }
      ],
      "stateMutability": "view",
      "type": "function"
    },
    {
      "inputs": [],
      "name": "getLastBatchId",
      "outputs": [
        {
          "internalType": "uint256",
          "name": "LastBatchId",
          "type": "uint256"
        }
      ],
      "stateMutability": "view",
      "type": "function"
    },
    {
      "inputs": [],
      "name": "getLastCheckedBatchId",
      "outputs": [
        {
          "internalType": "uint256",
          "name": "LastCheckedBatchId",
          "type": "uint256"
        }
      ],
      "stateMutability": "view",
      "type": "function"
    },
    {
      "inputs": [],
      "name": "getLastDataId",
      "outputs": [
        {
          "internalType": "uint256",
          "name": "DataId",
          "type": "uint256"
        }
      ],
      "stateMutability": "view",
      "type": "function"
    },
    {
      "inputs": [
        {
          "internalType": "address",
          "name": "_voter",
          "type": "address"
        }
      ],
      "name": "getLastNode",
      "outputs": [
        {
          "internalType": "uint256",
          "name": "DataID",
          "type": "uint256"
        }
      ],
      "stateMutability": "view",
      "type": "function"
    },
    {
      "inputs": [
        {
          "internalType": "address",
          "name": "_voter",
          "type": "address"
        }
      ],
      "name": "getLockedTokens",
      "outputs": [
        {
          "internalType": "uint256",
          "name": "numTokens",
          "type": "uint256"
        }
      ],
      "stateMutability": "view",
      "type": "function"
    },
    {
      "inputs": [],
      "name": "getMySystemTokenBalance",
      "outputs": [
        {
          "internalType": "uint256",
          "name": "tokens",
          "type": "uint256"
        }
      ],
      "stateMutability": "view",
      "type": "function"
    },
    {
      "inputs": [
        {
          "internalType": "address",
          "name": "_voter",
          "type": "address"
        },
        {
          "internalType": "uint256",
          "name": "_DataBatchId",
          "type": "uint256"
        },
        {
          "internalType": "uint256",
          "name": "_salt",
          "type": "uint256"
        }
      ],
      "name": "getNumPassingTokens",
      "outputs": [
        {
          "internalType": "uint256",
          "name": "correctFormatChecks",
          "type": "uint256"
        }
      ],
      "stateMutability": "view",
      "type": "function"
    },
    {
      "inputs": [
        {
          "internalType": "address",
          "name": "_voter",
          "type": "address"
        },
        {
          "internalType": "uint256",
          "name": "_DataBatchId",
          "type": "uint256"
        }
      ],
      "name": "getNumTokens",
      "outputs": [
        {
          "internalType": "uint256",
          "name": "numTokens",
          "type": "uint256"
        }
      ],
      "stateMutability": "view",
      "type": "function"
    },
    {
      "inputs": [],
      "name": "getRandom",
      "outputs": [
        {
          "internalType": "uint256",
          "name": "",
          "type": "uint256"
        }
      ],
      "stateMutability": "view",
      "type": "function"
    },
    {
      "inputs": [],
      "name": "getRejectedBatchesCount",
      "outputs": [
        {
          "internalType": "uint256",
          "name": "count",
          "type": "uint256"
        }
      ],
      "stateMutability": "view",
      "type": "function"
    },
    {
      "inputs": [],
      "name": "getSeed",
      "outputs": [
        {
          "internalType": "bytes32",
          "name": "addr",
          "type": "bytes32"
        }
      ],
      "stateMutability": "view",
      "type": "function"
    },
    {
      "inputs": [
        {
          "internalType": "address",
          "name": "_user",
          "type": "address"
        }
      ],
      "name": "getSystemTokenBalance",
      "outputs": [
        {
          "internalType": "uint256",
          "name": "tokens",
          "type": "uint256"
        }
      ],
      "stateMutability": "view",
      "type": "function"
    },
    {
      "inputs": [
        {
          "internalType": "uint256",
          "name": "_DataBatchId",
          "type": "uint256"
        }
      ],
      "name": "getTotalNumberOfFormatChecks",
      "outputs": [
        {
          "internalType": "uint256",
          "name": "vc",
          "type": "uint256"
        }
      ],
      "stateMutability": "view",
      "type": "function"
    },
    {
      "inputs": [],
      "name": "getTxCounter",
      "outputs": [
        {
          "internalType": "uint256",
          "name": "Counter",
          "type": "uint256"
        }
      ],
      "stateMutability": "view",
      "type": "function"
    },
    {
      "inputs": [
        {
          "internalType": "uint256",
          "name": "_terminationDate",
          "type": "uint256"
        }
      ],
      "name": "isExpired",
      "outputs": [
        {
          "internalType": "bool",
          "name": "expired",
          "type": "bool"
        }
      ],
      "stateMutability": "view",
      "type": "function"
    },
    {
      "inputs": [
        {
          "internalType": "uint256",
          "name": "_DataBatchId",
          "type": "uint256"
        }
      ],
      "name": "isPassed",
      "outputs": [
        {
          "internalType": "bool",
          "name": "passed",
          "type": "bool"
        }
      ],
      "stateMutability": "view",
      "type": "function"
    },
    {
      "inputs": [
        {
          "internalType": "address",
          "name": "_worker",
          "type": "address"
        }
      ],
      "name": "isWorkerRegistered",
      "outputs": [
        {
          "internalType": "bool",
          "name": "passed",
          "type": "bool"
        }
      ],
      "stateMutability": "view",
      "type": "function"
    },
    {
      "inputs": [],
      "name": "owner",
      "outputs": [
        {
          "internalType": "address",
          "name": "",
          "type": "address"
        }
      ],
      "stateMutability": "view",
      "type": "function"
    },
    {
      "inputs": [
        {
          "internalType": "uint256",
          "name": "k",
          "type": "uint256"
        },
        {
          "internalType": "uint256",
          "name": "N",
          "type": "uint256"
        }
      ],
      "name": "random_selection",
      "outputs": [
        {
          "internalType": "uint256[]",
          "name": "",
          "type": "uint256[]"
        }
      ],
      "stateMutability": "view",
      "type": "function"
    },
    {
      "inputs": [],
      "name": "renounceOwnership",
      "outputs": [],
      "stateMutability": "nonpayable",
      "type": "function"
    },
    {
      "inputs": [
        {
          "internalType": "uint256",
          "name": "_numTokens",
          "type": "uint256"
        }
      ],
      "name": "requestVotingRights",
      "outputs": [],
      "stateMutability": "nonpayable",
      "type": "function"
    },
    {
      "inputs": [
        {
          "internalType": "uint256",
          "name": "_DataBatchId",
          "type": "uint256"
        }
      ],
      "name": "rescueTokens",
      "outputs": [],
      "stateMutability": "nonpayable",
      "type": "function"
    },
    {
      "inputs": [
        {
          "internalType": "uint256[]",
          "name": "_DataBatchIDs",
          "type": "uint256[]"
        }
      ],
      "name": "rescueTokensInMultipleDatas",
      "outputs": [],
      "stateMutability": "nonpayable",
      "type": "function"
    },
    {
      "inputs": [
        {
          "internalType": "uint256",
          "name": "_DataBatchId",
          "type": "uint256"
        },
        {
          "internalType": "uint256",
          "name": "_voteOption",
          "type": "uint256"
        },
        {
          "internalType": "string",
          "name": "_clearIPFSHash",
          "type": "string"
        },
        {
          "internalType": "uint256",
          "name": "_salt",
          "type": "uint256"
        }
      ],
      "name": "revealFormatCheck",
      "outputs": [],
      "stateMutability": "nonpayable",
      "type": "function"
    },
    {
      "inputs": [
        {
          "internalType": "uint256",
          "name": "_DataBatchId",
          "type": "uint256"
        }
      ],
      "name": "revealPeriodActive",
      "outputs": [
        {
          "internalType": "bool",
          "name": "active",
          "type": "bool"
        }
      ],
      "stateMutability": "view",
      "type": "function"
    },
    {
      "inputs": [],
      "name": "sFuel",
      "outputs": [
        {
          "internalType": "address",
          "name": "",
          "type": "address"
        }
      ],
      "stateMutability": "view",
      "type": "function"
    },
    {
      "inputs": [
        {
          "internalType": "uint256",
          "name": "N",
          "type": "uint256"
        }
      ],
      "name": "shuffle_array",
      "outputs": [
        {
          "internalType": "uint256[]",
          "name": "",
          "type": "uint256[]"
        }
      ],
      "stateMutability": "view",
      "type": "function"
    },
    {
      "inputs": [],
      "name": "token",
      "outputs": [
        {
          "internalType": "contract IERC20",
          "name": "",
          "type": "address"
        }
      ],
      "stateMutability": "view",
      "type": "function"
    },
    {
      "inputs": [
        {
          "internalType": "address",
          "name": "newOwner",
          "type": "address"
        }
      ],
      "name": "transferOwnership",
      "outputs": [],
      "stateMutability": "nonpayable",
      "type": "function"
    },
    {
      "inputs": [
        {
          "internalType": "address",
          "name": "addr",
          "type": "address"
        }
      ],
      "name": "updateAddressManager",
      "outputs": [],
      "stateMutability": "nonpayable",
      "type": "function"
    },
    {
      "inputs": [
        {
          "internalType": "address",
          "name": "addr",
          "type": "address"
        }
      ],
      "name": "updateArchiveManager",
      "outputs": [],
      "stateMutability": "nonpayable",
      "type": "function"
    },
    {
      "inputs": [
        {
          "internalType": "uint256",
          "name": "COMMIT_ROUND_DURATION_",
          "type": "uint256"
        }
      ],
      "name": "updateCommitRoundDuration",
      "outputs": [],
      "stateMutability": "nonpayable",
      "type": "function"
    },
    {
      "inputs": [
        {
          "internalType": "uint256",
          "name": "size",
          "type": "uint256"
        }
      ],
      "name": "updateDataBachSize",
      "outputs": [],
      "stateMutability": "nonpayable",
      "type": "function"
    },
    {
      "inputs": [
        {
          "internalType": "uint256",
          "name": "CONSENSUS_WORKER_SIZE_",
          "type": "uint256"
        }
      ],
      "name": "updateMaxConsensusSize",
      "outputs": [],
      "stateMutability": "nonpayable",
      "type": "function"
    },
    {
      "inputs": [
        {
          "internalType": "uint256",
          "name": "CONSENSUS_WORKER_SIZE_",
          "type": "uint256"
        }
      ],
      "name": "updateMinConsensusSize",
      "outputs": [],
      "stateMutability": "nonpayable",
      "type": "function"
    },
    {
      "inputs": [
        {
          "internalType": "address",
          "name": "addr",
          "type": "address"
        }
      ],
      "name": "updateRepManager",
      "outputs": [],
      "stateMutability": "nonpayable",
      "type": "function"
    },
    {
      "inputs": [
        {
          "internalType": "uint256",
          "name": "REVEAL_ROUND_DURATION_",
          "type": "uint256"
        }
      ],
      "name": "updateRevealRoundDuration",
      "outputs": [],
      "stateMutability": "nonpayable",
      "type": "function"
    },
    {
      "inputs": [
        {
          "internalType": "address",
          "name": "addr",
          "type": "address"
        }
      ],
      "name": "updateRewardManager",
      "outputs": [],
      "stateMutability": "nonpayable",
      "type": "function"
    },
    {
      "inputs": [
        {
          "internalType": "address",
          "name": "addr",
          "type": "address"
        }
      ],
      "name": "updateSpotManager",
      "outputs": [],
      "stateMutability": "nonpayable",
      "type": "function"
    },
    {
      "inputs": [
        {
          "internalType": "address",
          "name": "addr",
          "type": "address"
        }
      ],
      "name": "updateStakeManager",
      "outputs": [],
      "stateMutability": "nonpayable",
      "type": "function"
    },
    {
      "inputs": [
        {
          "internalType": "address",
          "name": "_sFuel",
          "type": "address"
        }
      ],
      "name": "updatesFuelFaucet",
      "outputs": [],
      "stateMutability": "nonpayable",
      "type": "function"
    },
    {
      "inputs": [
        {
          "internalType": "uint256",
          "name": "_prevID",
          "type": "uint256"
        },
        {
          "internalType": "uint256",
          "name": "_nextID",
          "type": "uint256"
        },
        {
          "internalType": "address",
          "name": "_voter",
          "type": "address"
        },
        {
          "internalType": "uint256",
          "name": "_numTokens",
          "type": "uint256"
        }
      ],
      "name": "validPosition",
      "outputs": [
        {
          "internalType": "bool",
          "name": "APPROVED",
          "type": "bool"
        }
      ],
      "stateMutability": "view",
      "type": "function"
    },
    {
      "inputs": [
        {
          "internalType": "uint256",
          "name": "_numTokens",
          "type": "uint256"
        }
      ],
      "name": "withdrawVotingRights",
      "outputs": [],
      "stateMutability": "nonpayable",
      "type": "function"
    }
  ],
  "bytecode": "0x60806040526001805560036002556001600355670de0b6b3a7640000600755670de0b6b3a764000060085568056bc75e2d63100000600955603c600a55600060135560006014557314f52f3fc010ab6ca81568d4a6794d5eab3c6155601c60006101000a8154816001600160a01b0302191690836001600160a01b031602179055506001601d556001601e556001601f5560006021556000602255600060235560006024556000602555348015620000b657600080fd5b50604051620077cc380380620077cc833981016040819052620000d99162000184565b620000ed620000e762000130565b62000134565b602680546001600160a01b0319166001600160a01b0392909216919091179055600060145568015af1d78b58c400006004556101c26005556078600655620001b4565b3390565b600080546001600160a01b038381166001600160a01b0319831681178455604051919092169283917f8be0079c531659141344cd1fd0a4f28419497f9722a3daafe3b4186f6b6457e09190a35050565b60006020828403121562000196578081fd5b81516001600160a01b0381168114620001ad578182fd5b9392505050565b61760880620001c46000396000f3fe608060405234801561001057600080fd5b506004361061070c5760003560e01c80639acb75c11161039d578063d8b75674116101e9578063e8e9b6f91161011a578063f5ae7c7d116100b8578063f96305f011610087578063f96305f014610e25578063fc0c546a14610e2d578063fca4956314610e35578063ffc0cf7114610e485761070c565b8063f5ae7c7d14610dfa578063f716596d14610e02578063f721de4a14610e0a578063f80a23fd14610e1d5761070c565b8063ef4fcdad116100f4578063ef4fcdad14610dc4578063f2d9e74d14610dcc578063f2fde38b14610dd4578063f4cdfcc414610de75761070c565b8063e8e9b6f914610d89578063eb1322ff14610d9c578063ed8becfa14610da45761070c565b8063df05368e11610187578063e604c12711610161578063e604c12714610d48578063e7805f9e14610d5b578063e798a7da14610d63578063e7b1d43c14610d765761070c565b8063df05368e14610d1a578063e1f7a43014610d2d578063e44c974b14610d355761070c565b8063d9845fb8116101c3578063d9845fb814610ccc578063db687c1714610cec578063dd15f09514610cff578063dd61868214610d075761070c565b8063d8b7567414610c93578063d901402b14610ca6578063d9548e5314610cb95761070c565b8063b1d7ea98116102ce578063c9b03a721161026c578063d420ec0b1161023b578063d420ec0b14610c5d578063d6b0206c14610c70578063d822ce0114610c78578063d8645d3714610c8b5761070c565b8063c9b03a7214610c27578063cb1c2b5c14610c2f578063ced5ca6f14610c37578063d138209214610c4a5761070c565b8063b8f011b3116102a8578063b8f011b314610be6578063c47c4bc214610bf9578063c4e4f82a14610c0c578063c7761fab14610c1f5761070c565b8063b1d7ea9814610ba0578063b43bd06914610bc0578063b7e4eba914610bd35761070c565b8063a4439dc51161033b578063aa7ca46411610315578063aa7ca46414610b6a578063aacc5a1714610b7d578063ab43e78d14610b85578063b1a2e0be14610b8d5761070c565b8063a4439dc514610b3c578063a511dba014610b4f578063a905779014610b575761070c565b8063a1103f3711610377578063a1103f3714610b06578063a1b6b5b714610b19578063a25236fe14610b21578063a350715a14610b345761070c565b80639acb75c114610ad85780639fc9c52f14610ae0578063a0e71c1514610af35761070c565b806351912f291161055c57806376e8ea4f1161048d578063821aa8c01161042b5780638da5cb5b116103fa5780638da5cb5b14610aa25780638df0296e14610aaa5780639760356014610abd5780639769d84614610ad05761070c565b8063821aa8c014610a5657806383cc6ef214610a695780638473850b14610a715780638c89d02714610a795761070c565b80637f9510a2116104675780637f9510a2146109fb5780637f97e83614610a035780637fabe35b14610a16578063819b029314610a435761070c565b806376e8ea4f146109e35780637827e549146109eb5780637a34da67146109f35761070c565b80636a192ff5116104fa5780637074222b116104d45780637074222b146109ad578063715018a6146109c057806371880b1b146109c8578063726bc8af146109db5761070c565b80636a192ff5146109645780636b1485a3146109875780636b2d95d41461099a5761070c565b80635b113a55116105365780635b113a551461092e5780635fd87909146109415780636371d81f14610949578063667bf0f81461095c5761070c565b806351912f29146108f357806358002158146108fb5780635a4529431461090e5761070c565b806339e7357c1161064157806347fe2d20116105df5780634d4b7d9b116105ae5780634d4b7d9b146108b25780634d884281146108c55780634fe8b4c1146108d8578063515535e8146108eb5761070c565b806347fe2d201461087c57806348257dc9146108845780634852e2f014610897578063494031831461089f5761070c565b8063427fa1d21161061b578063427fa1d214610830578063441c77c01461084357806344639f7c1461085657806346a7aea6146108695761070c565b806339e7357c146108025780633dda02b11461080a57806340fbaae41461081d5761070c565b806329a47bc7116106ae578063313066ee11610688578063313066ee146107cc5780633538af82146107d4578063353f44d0146107e7578063354dae40146107fa5761070c565b806329a47bc7146107845780632d917c68146107995780632f469fd1146107ac5761070c565b80630e670feb116106ea5780630e670feb1461074c578063154fd39b14610754578063226ed3001461075c578063275c25901461077c5761070c565b806304dbcda714610711578063050eb2eb1461072f5780630e6661a714610744575b600080fd5b610719610e5b565b60405161072691906163b9565b60405180910390f35b61074261073d366004615ece565b610e61565b005b610719610ecb565b610719610ed1565b610719610ed7565b61076f61076a3660046161bc565b610edd565b6040516107269190616513565b610742610f26565b61078c61105c565b60405161072691906163ec565b61076f6107a7366004615ee8565b61106b565b6107bf6107ba3660046161e5565b61108b565b604051610726919061651e565b610719611130565b61078c6107e23660046161bc565b611136565b6107196107f5366004615ece565b611160565b610742611172565b610719611296565b6107426108183660046161bc565b6112b3565b61074261082b366004616298565b6112f7565b61071961083e366004615ece565b611636565b61076f6108513660046161bc565b6116d6565b6107426108643660046161bc565b61172f565b610742610877366004615ece565b611781565b6107196117e2565b61076f6108923660046161bc565b6117e8565b610719611b35565b61076f6108ad3660046161bc565b611b3b565b61076f6108c03660046161bc565b611d03565b6107426108d3366004615ece565b611d18565b6107426108e63660046161bc565b611d79565b610719611df9565b61078c611dff565b6107426109093660046161bc565b611e0e565b61092161091c3660046161bc565b611e52565b6040516107269190617309565b61071961093c3660046161e5565b611f75565b610719611f92565b6107426109573660046161bc565b611f98565b610742612059565b6109776109723660046161bc565b61245b565b604051610726949392919061655b565b6107426109953660046161bc565b61251a565b6107196109a8366004615ece565b613136565b6107196109bb366004615ece565b613145565b610742613160565b6107196109d63660046161bc565b6131ab565b6107196131e7565b6107196131ed565b6107196131f3565b61078c6131f9565b610719613208565b61076f610a11366004615ee8565b61321f565b610a29610a243660046161bc565b613275565b6040516107269e9d9c9b9a999897969594939291906173a8565b61076f610a5136600461625c565b613373565b61078c610a643660046161bc565b6133b4565b61078c6133c4565b6107196133d3565b610a8c610a87366004615ece565b6133d9565b6040516107269a99989796959493929190616400565b61078c6134ca565b61078c610ab836600461623b565b6134d9565b610742610acb3660046161bc565b613511565b6107196136bf565b6107196136c5565b610742610aee366004615f43565b6136cb565b610719610b013660046161bc565b61371d565b610719610b14366004615ee8565b613747565b61071961377a565b610742610b2f3660046161bc565b613780565b610719613881565b61076f610b4a3660046161bc565b613887565b6107196138e7565b61076f610b65366004616003565b6138ed565b61076f610b78366004615ee8565b613953565b6107196139a6565b61078c613a5b565b61076f610b9b366004615ece565b613a6a565b610bb3610bae36600461623b565b613bc6565b60405161072691906164cf565b610719610bce366004615f11565b613dcd565b610742610be13660046161bc565b613eb9565b610bb3610bf436600461623b565b613efd565b610742610c07366004615ece565b614065565b610719610c1a3660046161bc565b6140c6565b610719614102565b610719614108565b61071961410e565b610742610c453660046161bc565b614114565b610719610c58366004615ee8565b614182565b61076f610c6b366004615ee8565b614217565b610719614237565b61078c610c86366004615ee8565b61423d565b61078c614259565b610719610ca13660046161e5565b614268565b610719610cb4366004615ee8565b614285565b61076f610cc73660046161bc565b6142ca565b610cdf610cda3660046161bc565b6142cf565b604051610726919061718f565b610742610cfa366004615ece565b614452565b61078c6144b3565b610742610d15366004615ece565b6144c2565b610742610d28366004615ece565b614523565b610719614584565b610bb3610d433660046161bc565b614597565b6107bf610d563660046161bc565b614610565b6107196146c4565b61076f610d71366004615ece565b6146ca565b610742610d843660046161bc565b6146eb565b610742610d973660046161bc565b614833565b610719614877565b610db7610db23660046161bc565b61487d565b604051610726919061646f565b610719614b98565b610719614b9e565b610742610de2366004615ece565b614ba4565b610719610df5366004616063565b614c12565b610719614c27565b610742614c2d565b61076f610e183660046161bc565b614dfc565b61076f614e04565b610719614e1d565b61078c614e23565b610719610e43366004615ece565b614e32565b610742610e56366004616210565b614f6c565b60075481565b610e6961540b565b6001600160a01b0316610e7a6134ca565b6001600160a01b031614610ea95760405162461bcd60e51b8152600401610ea090616c2f565b60405180910390fd5b602980546001600160a01b0319166001600160a01b0392909216919091179055565b60145481565b60085481565b601f5490565b6000610ee882614dfc565b610f045760405162461bcd60e51b8152600401610ea09061711a565b6000828152602080526040902060070154610f1e906142ca565b90505b919050565b610f2e61540f565b336000908152601560205260409020600781015460ff161515600114610f665760405162461bcd60e51b8152600401610ea090616be3565b600281015415801590610f8357506007810154610100900460ff16155b15610f9e5760078101805461ff001916610100179055611041565b600281015415610fc05760405162461bcd60e51b8152600401610ea090616b29565b42610fca33615597565b610fd3336156ef565b8154336001600160a01b03199182168117845560018401805490921681179091556005830182905560078301805460ff191690556040517f9dadcedba048e92b943ea1c5861cee1df63a566d7f795869c004780c1c698e2b906110379084906163b9565b60405180910390a2505b6001602160008282546110549190617494565b909155505050565b6028546001600160a01b031681565b600b60209081526000928352604080842090915290825290205460ff1681565b600e602090815260009283526040808420909152908252902080546110af90617526565b80601f01602080910402602001604051908101604052809291908181526020018280546110db90617526565b80156111285780601f106110fd57610100808354040283529160200191611128565b820191906000526020600020905b81548152906001019060200180831161110b57829003601f168201915b505050505081565b60135481565b6019818154811061114657600080fd5b6000918252602090912001546001600160a01b0316905081565b60176020526000908152604090205481565b61117a61540f565b601e54600090815260208052604081206005015462010000900460ff16151560011480156111ca57506111ae601e54610edd565b806111ca5750601e546000908152602080526040902060020154155b156111ef576111da601e5461251a565b601e546111e890600161581f565b601e555060015b601f54600090815260208052604090206005015462010000900460ff16151560011480159061121f575060195415155b801561123e5750601f54600090815260208052604090206005015460ff165b1561124f5761124b612059565b5060015b80156112675760135461126390600161581f565b6013555b6013546040517f94d48a7342690f1233e3f4db70efa37c4f1f25f4d0397c353f3f15aecdeca5f490600090a250565b60405160009080602081848060185afa6112ac57fe5b5051919050565b6112bb61540b565b6001600160a01b03166112cc6134ca565b6001600160a01b0316146112f25760405162461bcd60e51b8152600401610ea090616c2f565b600255565b6112ff61540f565b611308846116d6565b6113245760405162461bcd60e51b8152600401610ea090616dbd565b336000908152600b6020908152604080832087845290915290205460ff1661135e5760405162461bcd60e51b8152600401610ea09061694e565b336000908152600c6020908152604080832087845290915290205460ff16156113995760405162461bcd60e51b8152600401610ea090617143565b6113a33385614285565b6113ad8383614c12565b146113ca5760405162461bcd60e51b8152600401610ea090616cc1565b60006113d63386614182565b9050836001141561140c57600085815260208052604081206008018054839290611401908490617494565b909155506114329050565b60008581526020805260408120600901805483929061142c908490617494565b90915550505b33600090815260116020526040908190209051634dab476560e01b815273__$6ffa5bf1f4fa681f07e1987a80577d5f4e$__91634dab47659161147a919089906004016163de565b60006040518083038186803b15801561149257600080fd5b505af41580156114a6573d6000803e3d6000fd5b5050336000818152600c602090815260408083208b84528252808320805460ff19166001179055600d825280832084845282528083208a90558a8352600e82528083209383529281529190208651611505945090925090860190615c52565b503360009081526015602090815260408083208884529180529091206002015461153090600161582b565b600087815260208052604090206002015560038101805460ff1916600117905542600582015561155f336156ef565b600781015460ff16156115bc5761157533615837565b6115bc57601980546001810182556000919091527f944998273e477b495144fb8794c914197f3ccb46be2900f4698fd0ef743c96950180546001600160a01b031916331790555b6001602160008282546115cf9190617494565b909155505060008681526020805260409081902060088101546009909101549151339288928a927f2e5fbeef18eaa8d8ea3b0122bc64445c4daaa6f454dfb889456791a92287f37892611626928992909190617392565b60405180910390a4505050505050565b6001600160a01b038116600090815260116020526040808220905163215e94cf60e01b815273__$6ffa5bf1f4fa681f07e1987a80577d5f4e$__9163215e94cf91611686919085906004016163de565b60206040518083038186803b15801561169e57600080fd5b505af41580156116b2573d6000803e3d6000fd5b505050506040513d601f19601f82011682018060405250810190610f1e91906161d4565b60006116e182614dfc565b6116fd5760405162461bcd60e51b8152600401610ea090616e4a565b6000828152602080526040902060070154611717906142ca565b158015610f1e575061172882613887565b1592915050565b61173761540b565b6001600160a01b03166117486134ca565b6001600160a01b03161461176e5760405162461bcd60e51b8152600401610ea090616c2f565b600181101561177c57600080fd5b600355565b61178961540b565b6001600160a01b031661179a6134ca565b6001600160a01b0316146117c05760405162461bcd60e51b8152600401610ea090616c2f565b602c80546001600160a01b0319166001600160a01b0392909216919091179055565b601e5490565b602b546000906001600160a01b031615801590611814575060008281526010602052604090205460ff16155b15611b1557602b54604051637b90ef2560e11b81526001600160a01b039091169063f721de4a906118499085906004016163b9565b602060405180830381600087803b15801561186357600080fd5b505af1158015611877573d6000803e3d6000fd5b505050506040513d601f19601f8201168201806040525081019061189b9190615fe9565b15611b1557602b54604051631b308bf760e31b81526000916001600160a01b03169063d9845fb8906118d19086906004016163b9565b600060405180830381600087803b1580156118eb57600080fd5b505af11580156118ff573d6000803e3d6000fd5b505050506040513d6000823e601f3d908101601f1916820160405261192791908101906160a5565b6101a0810151909150600181600381111561195257634e487b7160e01b600052602160045260246000fd5b1415611af9576040805160808101825261018084015181523360208083019190915242828401526000606083018190526014548152601682529290922081518051929391926119a49284920190615c52565b506020820151600182810180546001600160a01b0319166001600160a01b0390931692909217909155604083015160028301556060830151600380840180549293909260ff1916918490811115611a0b57634e487b7160e01b600052602160045260246000fd5b021790555050601d546000908152602080526040902060018054908201549192501115611a4d576001816001016000828254611a479190617494565b90915550505b600154816001015410611a9e57600581018054600160ff19909116811761ff001916909155601d8054600090611a84908490617494565b9091555050601454601d5460009081526020805260409020555b611aa6611172565b601454611ab4906001617494565b60148190556101808401516040517fe72ee44ad0ed1dfc338f7eec797c944eb218773c1edbb4bb653dd9c1e2a6230491611aef913390616531565b60405180910390a2505b50506000828152601060205260409020805460ff191660011790555b600160216000828254611b289190617494565b9091555060009392505050565b60245481565b60008181526020808052604080832081516101c081018352815481526001820154938101939093526002810154918301919091526003810154606083015260048101546080830152600581015460ff808216151560a08501526101008083048216151560c08601526201000090920416151560e0840152600682015490830152600781015461012083015260088101546101408301526009810154610160830152600a8101805484939291610180840191611bf590617526565b80601f0160208091040260200160405190810160405280929190818152602001828054611c2190617526565b8015611c6e5780601f10611c4357610100808354040283529160200191611c6e565b820191906000526020600020905b815481529060010190602001808311611c5157829003601f168201915b5050509183525050600b82015460209091019060ff166003811115611ca357634e487b7160e01b600052602160045260246000fd5b6003811115611cc257634e487b7160e01b600052602160045260246000fd5b905250610160810151610140820151919250611cdd91617494565b600a54611cea91906174c0565b610140820151611cfb9060646174c0565b119392505050565b60106020526000908152604090205460ff1681565b611d2061540b565b6001600160a01b0316611d316134ca565b6001600160a01b031614611d575760405162461bcd60e51b8152600401610ea090616c2f565b601c80546001600160a01b0319166001600160a01b0392909216919091179055565b611d8161540b565b6001600160a01b0316611d926134ca565b6001600160a01b031614611db85760405162461bcd60e51b8152600401610ea090616c2f565b600081815260166020526040812090611dd18282615cd6565b506001810180546001600160a01b031916905560006002820155600301805460ff1916905550565b601d5490565b6029546001600160a01b031681565b611e1661540b565b6001600160a01b0316611e276134ca565b6001600160a01b031614611e4d5760405162461bcd60e51b8152600401610ea090616c2f565b600655565b611e5a615d12565b60008281526016602052604090819020815160808101909252805482908290611e8290617526565b80601f0160208091040260200160405190810160405280929190818152602001828054611eae90617526565b8015611efb5780601f10611ed057610100808354040283529160200191611efb565b820191906000526020600020905b815481529060010190602001808311611ede57829003601f168201915b505050918352505060018201546001600160a01b031660208201526002820154604082015260038083015460609092019160ff1690811115611f4d57634e487b7160e01b600052602160045260246000fd5b6003811115611f6c57634e487b7160e01b600052602160045260246000fd5b90525092915050565b600f60209081526000928352604080842090915290825290205481565b60065481565b611fa061540b565b6001600160a01b0316611fb16134ca565b6001600160a01b031614611fd75760405162461bcd60e51b8152600401610ea090616c2f565b611fe081614dfc565b1561205657600081815260208052604081208181556001810182905560028101829055600381018290556004810182905560058101805462ffffff191690556006810182905560078101829055600881018290556009810182905590612049600a830182615cd6565b50600b01805460ff191690555b50565b601f54600090815260208052604090206005015460ff1661208c5760405162461bcd60e51b8152600401610ea090616d67565b601f54600090815260208052604090206005015462010000900460ff16156120c65760405162461bcd60e51b8152600401610ea090616b86565b60006120e46120dc6019805490506002546158a7565b6003546158bd565b601954601f8054600090815260208052604080822060020185905591548152908120600301839055600554929350909161211f90429061581f565b905060006121386006548361581f90919063ffffffff16565b601f80546000908152602080526040808220600601869055825482528082206007018490559154815220600501805462ff0000191662010000179055905060018410801590612188575060018310155b6121a45760405162461bcd60e51b8152600401610ea0906167c4565b60006121b08585613efd565b9050600081516001600160401b038111156121db57634e487b7160e01b600052604160045260246000fd5b604051908082528060200260200182016040528015612204578160200160208202803683370190505b50905060005b82518110156122c357601983828151811061223557634e487b7160e01b600052603260045260246000fd5b60200260200101518154811061225b57634e487b7160e01b600052603260045260246000fd5b9060005260206000200160009054906101000a90046001600160a01b031682828151811061229957634e487b7160e01b600052603260045260246000fd5b6001600160a01b0390921660209283029190910190910152806122bb81617561565b91505061220a565b5060005b82518110156124265760008282815181106122f257634e487b7160e01b600052603260045260246000fd5b60200260200101519050600060156000836001600160a01b03166001600160a01b03168152602001908152602001600020905061232e82615597565b612337826158cd565b61238757601a80546001810182556000919091527f057c384a7d1c54f3a1b2e5e67b2617b8224fdfd1ea7234eea573a6ff665ff63e0180546001600160a01b0319166001600160a01b0384161790555b601f80546000908152601b602090815260408083208054600181018255908452919092200180546001600160a01b0319166001600160a01b0386161790558154600284015560038301805460ff19169055905490517fe4ee2dfabe57cee15e3f558890b20455f54c1fa0718e5276faad70a6500e6b8c906124099085906163ec565b60405180910390a25050808061241e90617561565b9150506122c7565b50601f5461243590600161581f565b601f8190555060016021600082825461244e9190617494565b9091555050505050505050565b60166020526000908152604090208054819061247690617526565b80601f01602080910402602001604051908101604052809291908181526020018280546124a290617526565b80156124ef5780601f106124c4576101008083540402835291602001916124ef565b820191906000526020600020905b8154815290600101906020018083116124d257829003601f168201915b505050506001830154600284015460039094015492936001600160a01b039091169290915060ff1684565b61252381610edd565b8061253c57506000818152602080526040902060020154155b6125585760405162461bcd60e51b8152600401610ea090616c64565b6000818152602080526040902060050154610100900460ff161561258e5760405162461bcd60e51b8152600401610ea090616efd565b600061259982611b3b565b6000838152601b60209081526040808320805482518185028101850190935280835294955092939092918301828280156125fc57602002820191906000526020600020905b81546001600160a01b031681526001909101906020018083116125de575b50505050509050600081516001600160401b0381111561262c57634e487b7160e01b600052604160045260246000fd5b60405190808252806020026020018201604052801561265f57816020015b606081526020019060019003908161264a5790505b509050600082516001600160401b0381111561268b57634e487b7160e01b600052604160045260246000fd5b6040519080825280602002602001820160405280156126b4578160200160208202803683370190505b50905060005b8351811015612ae55760008482815181106126e557634e487b7160e01b600052603260045260246000fd5b6020908102919091018101516000898152600d835260408082206001600160a01b03841680845290855281832054600c86528284208d8552865282842054600e875283852092855291909552908220805493955060ff9091169261274890617526565b80601f016020809104026020016040519081016040528092919081815260200182805461277490617526565b80156127c15780601f10612796576101008083540402835291602001916127c1565b820191906000526020600020905b8154815290600101906020018083116127a457829003601f168201915b50505050509050808786815181106127e957634e487b7160e01b600052603260045260246000fd5b60209081029190910181019190915260008b8152600f825260408082206001600160a01b038816835290925220548651819088908890811061283b57634e487b7160e01b600052603260045260246000fd5b602002602001018181525050612850856156ef565b6001600160a01b03851660009081526015602052604090208315612a86576001600160a01b0386166000908152601560205260409020600301805460ff191660019081179091558b15151480156128a75750846001145b806128bc57508a1580156128bc575084600114155b15612a0357602854600954604051630db6cc8560e11b81526001600160a01b0390921691631b6d990a916128f4918a90600401617374565b602060405180830381600087803b15801561290e57600080fd5b505af1158015612922573d6000803e3d6000fd5b505050506040513d601f19601f820116820180604052508101906129469190615fe9565b6129625760405162461bcd60e51b8152600401610ea090616a06565b602954600754604051633832942560e21b81526001600160a01b039092169163e0ca509491612995918a9060040161735d565b602060405180830381600087803b1580156129af57600080fd5b505af11580156129c3573d6000803e3d6000fd5b505050506040513d601f19601f820116820180604052508101906129e79190615fe9565b612a035760405162461bcd60e51b8152600401610ea0906168a2565b600781015460ff1615612a8157612a1986615837565b158015612a3057506007810154610100900460ff16155b15612a8157601980546001810182556000919091527f944998273e477b495144fb8794c914197f3ccb46be2900f4698fd0ef743c96950180546001600160a01b0319166001600160a01b0388161790555b612acc565b6007810154610100900460ff1680612a9c575083155b15612acc57600781015460ff1615612acc5760078101805460ff19169055612ac386615597565b612acc866156ef565b5050505050508080612add90617561565b9150506126ba565b506000612b0d6064600a548651612afc91906174c0565b612b0691906174ac565b60016158bd565b9050600083600081518110612b3257634e487b7160e01b600052603260045260246000fd5b6020026020010151905060005b8451811015612c28576000805b8651811015612bdd57612bad878481518110612b7857634e487b7160e01b600052603260045260246000fd5b6020026020010151888381518110612ba057634e487b7160e01b600052603260045260246000fd5b60200260200101516138ed565b15612bcb57612bbd600183617494565b9150848210612bcb57612bdd565b80612bd581617561565b915050612b4c565b50838110612c1557858281518110612c0557634e487b7160e01b600052603260045260246000fd5b6020026020010151925050612c28565b5080612c2081617561565b915050612b3f565b50600083600081518110612c4c57634e487b7160e01b600052603260045260246000fd5b6020026020010151905060005b8451811015612d3b576000805b8651811015612cf057868181518110612c8f57634e487b7160e01b600052603260045260246000fd5b6020026020010151878481518110612cb757634e487b7160e01b600052603260045260246000fd5b60200260200101511415612cde57612cd0600183617494565b9150858210612cde57612cf0565b80612ce881617561565b915050612c66565b50848110612d2857858281518110612d1857634e487b7160e01b600052603260045260246000fd5b6020026020010151925050612d3b565b5080612d3381617561565b915050612c59565b5060008881526020808052604090912060058101805461ff0019166101001790558351612d7092600a90920191850190615c52565b506000888152602080526040902060040181905586156130385760285460095460008a81526016602052604090819020600101549051630db6cc8560e11b81526001600160a01b0393841693631b6d990a93612dd3939092911690600401617374565b602060405180830381600087803b158015612ded57600080fd5b505af1158015612e01573d6000803e3d6000fd5b505050506040513d601f19601f82011682018060405250810190612e259190615fe9565b612e415760405162461bcd60e51b8152600401610ea090617026565b60295460075460008a81526016602052604090819020600101549051633832942560e21b81526001600160a01b039384169363e0ca509493612e8a93909291169060040161735d565b602060405180830381600087803b158015612ea457600080fd5b505af1158015612eb8573d6000803e3d6000fd5b505050506040513d601f19601f82011682018060405250810190612edc9190615fe9565b612ef85760405162461bcd60e51b8152600401610ea090616eae565b60008881526020805260408120600b01805460ff191660019081179091556022805491929091612f29908490617494565b9091555050602c546040516348257dc960e01b81526001600160a01b03909116906348257dc990612f5e908b906004016163b9565b602060405180830381600087803b158015612f7857600080fd5b505af1925050508015612fa8575060408051601f3d908101601f19168201909252612fa591810190615fe9565b60015b613019573d808015612fd6576040519150601f19603f3d011682016040523d82523d6000602084013e612fdb565b606091505b507f4b87bbd93ba65ede1e2efeca735d9f7a6720bf7d6db0a8355b17dba5b64e57838160405161300b919061651e565b60405180910390a150613033565b60016021600082825461302c9190617494565b9091555050505b61306c565b60008881526020805260408120600b01805460ff191660021790556023805460019290613066908490617494565b90915550505b60016021600082825461307f9190617494565b9091555050600088815260208052604081206003015460248054919290916130a8908490617494565b9091555050600088815260208052604081206002015460258054919290916130d1908490617494565b909155505060008881526016602052604090819020600181015491516001600160a01b03909216917fb83f08cf731092d35d6dd4801ac76e3fcc84b1b199915531c9874230d31adeaa91613124916165be565b60405180910390a25050505050505050565b6000610f1e82610c5884611636565b6001600160a01b031660009081526017602052604090205490565b61316861540b565b6001600160a01b03166131796134ca565b6001600160a01b03161461319f5760405162461bcd60e51b8152600401610ea090616c2f565b6131a9600061593d565b565b60006131b682614dfc565b6131d25760405162461bcd60e51b8152600401610ea090616e4a565b50600090815260208052604090206007015490565b60035481565b60015481565b60095481565b602a546001600160a01b031681565b601a5460195460009161321a91617494565b905090565b600061322a82614dfc565b6132465760405162461bcd60e51b8152600401610ea090616e4a565b506001600160a01b0382166000908152600b6020908152604080832084845290915290205460ff165b92915050565b6020805260009081526040902080546001820154600283015460038401546004850154600586015460068701546007880154600889015460098a0154600a8b0180549a9b999a98999798969760ff8088169861010089048216986201000090049091169695949392906132e790617526565b80601f016020809104026020016040519081016040528092919081815260200182805461331390617526565b80156133605780601f1061333557610100808354040283529160200191613360565b820191906000526020600020905b81548152906001019060200180831161334357829003601f168201915b505050600b909301549192505060ff168e565b6000806133808487614182565b831015905060006133918587614182565b8411158061339d575085155b90508180156133a95750805b979650505050505050565b601a818154811061114657600080fd5b6027546001600160a01b031681565b601d5481565b60156020526000908152604090208054600182015460028301546003840154600485015460058601546006870180546001600160a01b03978816989690971696949560ff909416949293919261342e90617526565b80601f016020809104026020016040519081016040528092919081815260200182805461345a90617526565b80156134a75780601f1061347c576101008083540402835291602001916134a7565b820191906000526020600020905b81548152906001019060200180831161348a57829003601f168201915b505050506007830154600890930154919260ff808216936101009092041691508a565b6000546001600160a01b031690565b601b60205281600052604060002081815481106134f557600080fd5b6000918252602090912001546001600160a01b03169150829050565b600160008281526020805260409020600b015460ff16600381111561354657634e487b7160e01b600052602160045260246000fd5b146135635760405162461bcd60e51b8152600401610ea09061669f565b3360009081526011602052604090819020905163162a54af60e31b815273__$6ffa5bf1f4fa681f07e1987a80577d5f4e$__9163b152a578916135ab919085906004016163de565b60206040518083038186803b1580156135c357600080fd5b505af41580156135d7573d6000803e3d6000fd5b505050506040513d601f19601f820116820180604052508101906135fb9190615fe9565b6136175760405162461bcd60e51b8152600401610ea090616a53565b33600090815260116020526040908190209051634dab476560e01b815273__$6ffa5bf1f4fa681f07e1987a80577d5f4e$__91634dab47659161365f919085906004016163de565b60006040518083038186803b15801561367757600080fd5b505af415801561368b573d6000803e3d6000fd5b50506040513392508391507f402507661c8c8cb90e0a796450b8bdd28b6c516f05279c0cd29e84c344e1699a90600090a350565b60225481565b60135490565b60005b8151811015613719576137078282815181106136fa57634e487b7160e01b600052603260045260246000fd5b6020026020010151613511565b8061371181617561565b9150506136ce565b5050565b600081815260208052604081206009810154600890910154829161374091617494565b9392505050565b6000828260405160200161375c929190616397565b60405160208183030381529060405280519060200120905092915050565b60225490565b6027546040516304ada21f60e21b81526001600160a01b03909116906312b6887c906137b2908490339060040161735d565b602060405180830381600087803b1580156137cc57600080fd5b505af11580156137e0573d6000803e3d6000fd5b505050506040513d601f19601f820116820180604052508101906138049190615fe9565b6138205760405162461bcd60e51b8152600401610ea0906168f1565b336000908152601760205260408120805483929061383f908490617494565b909155505060405133907ff7aaf024511d9982df8cd0d437c71c30106e6848cd1ba3d288d7a9c0e276aeda906138769084906163b9565b60405180910390a250565b60235481565b600061389282614dfc565b6138ae5760405162461bcd60e51b8152600401610ea090616e4a565b60008281526020805260409020600601546138c8906142ca565b158015610f1e5750506000908152602080526040902060030154151590565b60145490565b60008160405160200161390091906163c2565b604051602081830303815290604052805190602001208360405160200161392791906163c2565b60405160208183030381529060405280519060200120141561394b5750600161326f565b50600061326f565b600061395e82614dfc565b61397a5760405162461bcd60e51b8152600401610ea090616e4a565b506001600160a01b03919091166000908152600c60209081526040808320938352929052205460ff1690565b60008042416040516020016139bb919061637a565b6040516020818303038152906040528051906020012060001c6139de91906174ac565b446139e7611296565b6040516020016139f791906163b9565b60408051601f198184030181529190528051602090910120613a199042617494565b613a239190617494565b613a2d9190617494565b604051602001613a3d91906163b9565b60408051601f19818403018152919052805160209091012091505090565b601c546001600160a01b031681565b6001600160a01b038082166000908152601560209081526040808320815161014081018352815486168152600182015490951692850192909252600282015490840152600381015460ff161515606084015260048101546080840152600581015460a0840152600681018054929384938493919260c0840191613aec90617526565b80601f0160208091040260200160405190810160405280929190818152602001828054613b1890617526565b8015613b655780601f10613b3a57610100808354040283529160200191613b65565b820191906000526020600020905b815481529060010190602001808311613b4857829003601f168201915b5050509183525050600782015460ff808216151560208401526101009091041615156040820152600890910154606091820152810151909150158015613bb55750613bb38160400151610edd565b155b15613bbf57600191505b5092915050565b606060008211613bd557600080fd5b600041604051602001613be8919061637a565b6040516020818303038152906040528051906020012060001c613c09611296565b604051602001613c1991906163b9565b60408051601f198184030181529190528051602090910120613c3b9042617494565b613c459190617494565b604051602001613c5591906163b9565b6040516020818303038152906040528051906020012060001c90506000846001600160401b03811115613c9857634e487b7160e01b600052604160045260246000fd5b604051908082528060200260200182016040528015613cc1578160200160208202803683370190505b5090506000805b86821015613dc257600086613ce163017efeeb876174df565b83604051602001613cf39291906163de565b6040516020818303038152906040528051906020012060001c613d16919061757c565b90506000805b84811015613d6e5782868281518110613d4557634e487b7160e01b600052603260045260246000fd5b60200260200101511415613d5c5760019150613d6e565b80613d6681617561565b915050613d1c565b5080613dae5781858581518110613d9557634e487b7160e01b600052603260045260246000fd5b6020908102919091010152613dab846001617494565b93505b613db9836001617494565b92505050613cc8565b509095945050505050565b6000613dd883610edd565b613df45760405162461bcd60e51b8152600401610ea090617073565b6001600160a01b0384166000908152600c6020908152604080832086845290915290205460ff16613e375760405162461bcd60e51b8152600401610ea090616ab0565b6000613e4284611b3b565b613e4d576000613e50565b60015b60ff16905060008184604051602001613e6a9291906163de565b6040516020818303038152906040528051906020012090506000613e8e8787614285565b9050808214613eaf5760405162461bcd60e51b8152600401610ea090616d1e565b6133a98787614182565b613ec161540b565b6001600160a01b0316613ed26134ca565b6001600160a01b031614613ef85760405162461bcd60e51b8152600401610ea090616c2f565b600155565b6060600082118015613f0f5750818311155b8015613f1c575060018310155b613f385760405162461bcd60e51b8152600401610ea09061677b565b6000826001600160401b03811115613f6057634e487b7160e01b600052604160045260246000fd5b604051908082528060200260200182016040528015613f89578160200160208202803683370190505b5090506000846001600160401b03811115613fb457634e487b7160e01b600052604160045260246000fd5b604051908082528060200260200182016040528015613fdd578160200160208202803683370190505b5090506000613ff3613fee8461598d565b6159e3565b905060005b86811015613dc25781818151811061402057634e487b7160e01b600052603260045260246000fd5b602002602001015183828151811061404857634e487b7160e01b600052603260045260246000fd5b60209081029190910101528061405d81617561565b915050613ff8565b61406d61540b565b6001600160a01b031661407e6134ca565b6001600160a01b0316146140a45760405162461bcd60e51b8152600401610ea090616c2f565b602a80546001600160a01b0319166001600160a01b0392909216919091179055565b60006140d182614dfc565b6140ed5760405162461bcd60e51b8152600401610ea090616e4a565b50600090815260208052604090206006015490565b600a5481565b60025481565b60045481565b61411c61540b565b6001600160a01b031661412d6134ca565b6001600160a01b0316146141535760405162461bcd60e51b8152600401610ea090616c2f565b60008181526010602052604090205460ff1615612056576000908152601060205260409020805460ff19169055565b600073__$d865f21674766f31b0d600e4a95b721b57$__6362e02a2a60126141aa8686613747565b6040518363ffffffff1660e01b81526004016141c79291906172b2565b60206040518083038186803b1580156141df57600080fd5b505af41580156141f3573d6000803e3d6000fd5b505050506040513d601f19601f8201168201806040525081019061374091906161d4565b600c60209081526000928352604080842090915290825290205460ff1681565b601f5481565b601860205281600052604060002081815481106134f557600080fd5b602b546001600160a01b031681565b600d60209081526000928352604080842090915290825290205481565b600073__$d865f21674766f31b0d600e4a95b721b57$__6362e02a2a60126142ad8686613747565b6040518363ffffffff1660e01b81526004016141c7929190617266565b421190565b6142d7615d61565b6142e082614dfc565b6142e957600080fd5b6000828152602080805260409182902082516101c081018452815481526001820154928101929092526002810154928201929092526003820154606082015260048201546080820152600582015460ff808216151560a08401526101008083048216151560c08501526201000090920416151560e0830152600683015490820152600782015461012082015260088201546101408201526009820154610160820152600a82018054919291610180840191906143a490617526565b80601f01602080910402602001604051908101604052809291908181526020018280546143d090617526565b801561441d5780601f106143f25761010080835404028352916020019161441d565b820191906000526020600020905b81548152906001019060200180831161440057829003601f168201915b5050509183525050600b82015460209091019060ff166003811115611f4d57634e487b7160e01b600052602160045260246000fd5b61445a61540b565b6001600160a01b031661446b6134ca565b6001600160a01b0316146144915760405162461bcd60e51b8152600401610ea090616c2f565b602b80546001600160a01b0319166001600160a01b0392909216919091179055565b602c546001600160a01b031681565b6144ca61540b565b6001600160a01b03166144db6134ca565b6001600160a01b0316146145015760405162461bcd60e51b8152600401610ea090616c2f565b602880546001600160a01b0319166001600160a01b0392909216919091179055565b61452b61540b565b6001600160a01b031661453c6134ca565b6001600160a01b0316146145625760405162461bcd60e51b8152600401610ea090616c2f565b602780546001600160a01b0319166001600160a01b0392909216919091179055565b3360009081526017602052604090205490565b6060600082116145a657600080fd5b6000826001600160401b038111156145ce57634e487b7160e01b600052604160045260246000fd5b6040519080825280602002602001820160405280156145f7578160200160208202803683370190505b5090506000614608613fee8361598d565b949350505050565b606061461b82614dfc565b61462457600080fd5b60008281526020805260409020600a01805461463f90617526565b80601f016020809104026020016040519081016040528092919081815260200182805461466b90617526565b80156146b85780601f1061468d576101008083540402835291602001916146b8565b820191906000526020600020905b81548152906001019060200180831161469b57829003601f168201915b50505050509050919050565b60055481565b6001600160a01b031660009081526015602052604090206007015460ff1690565b600061470f6146f933613136565b336000908152601760205260409020549061582b565b9050818110156147315760405162461bcd60e51b8152600401610ea090616e03565b602754604051630895993360e11b81526001600160a01b039091169063112b326690614763908590339060040161735d565b602060405180830381600087803b15801561477d57600080fd5b505af1158015614791573d6000803e3d6000fd5b505050506040513d601f19601f820116820180604052508101906147b59190615fe9565b6147d15760405162461bcd60e51b8152600401610ea0906170bd565b33600090815260176020526040812080548492906147f09084906174df565b909155505060405133907ffaeb7dbb9992397d26ea1944efd40c80b40f702faf69b46c67ad10aba68ccb79906148279085906163b9565b60405180910390a25050565b61483b61540b565b6001600160a01b031661484c6134ca565b6001600160a01b0316146148725760405162461bcd60e51b8152600401610ea090616c2f565b600555565b60255481565b606061488882614dfc565b6148a45760405162461bcd60e51b8152600401610ea090616e4a565b60008281526020808052604080832081516101c081018352815481526001820154938101939093526002810154918301919091526003810154606083015260048101546080830152600581015460ff808216151560a08501526101008083048216151560c08601526201000090920416151560e0840152600682015490830152600781015461012083015260088101546101408301526009810154610160830152600a810180546101808401919061495b90617526565b80601f016020809104026020016040519081016040528092919081815260200182805461498790617526565b80156149d45780601f106149a9576101008083540402835291602001916149d4565b820191906000526020600020905b8154815290600101906020018083116149b757829003601f168201915b5050509183525050600b82015460209091019060ff166003811115614a0957634e487b7160e01b600052602160045260246000fd5b6003811115614a2857634e487b7160e01b600052602160045260246000fd5b9052506020810151600154919250906000906001600160401b03811115614a5f57634e487b7160e01b600052604160045260246000fd5b604051908082528060200260200182016040528015614a9257816020015b6060815260200190600190039081614a7d5790505b50905060005b82811015614b8f578351600090614ab0908390617494565b600081815260166020526040812080549293509091614ace90617526565b80601f0160208091040260200160405190810160405280929190818152602001828054614afa90617526565b8015614b475780601f10614b1c57610100808354040283529160200191614b47565b820191906000526020600020905b815481529060010190602001808311614b2a57829003601f168201915b5050505050905080848481518110614b6f57634e487b7160e01b600052603260045260246000fd5b602002602001018190525050508080614b8790617561565b915050614a98565b50949350505050565b601e5481565b60215481565b614bac61540b565b6001600160a01b0316614bbd6134ca565b6001600160a01b031614614be35760405162461bcd60e51b8152600401610ea090616c2f565b6001600160a01b038116614c095760405162461bcd60e51b8152600401610ea090616735565b6120568161593d565b6000828260405160200161375c92919061659c565b60215490565b614c3561540f565b336000908152601560205260409020601a546019546103e891614c5791617494565b10614c745760405162461bcd60e51b8152600401610ea090616f87565b600781015460ff1615614c995760405162461bcd60e51b8152600401610ea090616668565b60045433600090815260176020526040902054429190811115614cde5733600090815260176020526040812054614cd190839061582b565b9050614cdc81613780565b505b33600090815260176020526040902054811115614d0d5760405162461bcd60e51b8152600401610ea09061699d565b614d1633615837565b614d5d57601980546001810182556000919091527f944998273e477b495144fb8794c914197f3ccb46be2900f4698fd0ef743c96950180546001600160a01b031916331790555b8254336001600160a01b03199182168117855560018501805490921617905560058301829055600783015460ff16614da55760078301805460ff191660011790554260088401555b600160216000828254614db89190617494565b909155505060405133907f439d77b7534ec3108fc6143bd4fbabde0b9f2bb54f7b0730d1f70dd2135b765f90614def9085906163b9565b60405180910390a2505050565b601d54101590565b3360009081526015602052604090206007015460ff1690565b60235490565b6026546001600160a01b031681565b6001600160a01b038082166000908152601560209081526040808320815161014081018352815486168152600182015490951692850192909252600282015490840152600381015460ff161515606084015260048101546080840152600581015460a08401526006810180549293849390929160c0840191614eb390617526565b80601f0160208091040260200160405190810160405280929190818152602001828054614edf90617526565b8015614f2c5780601f10614f0157610100808354040283529160200191614f2c565b820191906000526020600020905b815481529060010190602001808311614f0f57829003601f168201915b5050509183525050600782015460ff8082161515602084015261010090910416151560408083019190915260089092015460609091015201519392505050565b614f7461540f565b614f7d83613887565b614f995760405162461bcd60e51b8152600401610ea09061680e565b336000908152600b6020908152604080832086845290915290205460ff1615614fd45760405162461bcd60e51b8152600401610ea090616f3e565b614fde8333615b77565b614ffa5760405162461bcd60e51b8152600401610ea090616845565b6004543360009081526017602052604090205481111561503c573360009081526017602052604081205461502f90839061582b565b905061503a81613780565b505b3360009081526017602052604090205481111561506b5760405162461bcd60e51b8152600401610ea090616fc9565b6000336000908152601160205260408082209051631b23afef60e21b815273__$6ffa5bf1f4fa681f07e1987a80577d5f4e$__91636c8ebfbc916150b4919086906004016163de565b60206040518083038186803b1580156150cc57600080fd5b505af41580156150e0573d6000803e3d6000fd5b505050506040513d601f19601f8201168201806040525081019061510491906161d4565b9050858114156151a95733600090815260116020526040908190209051631b23afef60e21b815273__$6ffa5bf1f4fa681f07e1987a80577d5f4e$__91636c8ebfbc9161515691908a906004016163de565b60206040518083038186803b15801561516e57600080fd5b505af4158015615182573d6000803e3d6000fd5b505050506040513d601f19601f820116820180604052508101906151a691906161d4565b90505b6151b582823386613373565b6151d15760405162461bcd60e51b8152600401610ea090616afb565b3360009081526011602052604090819020905163f3a1998360e01b815273__$6ffa5bf1f4fa681f07e1987a80577d5f4e$__9163f3a199839161521d919086908b9087906004016172ee565b60006040518083038186803b15801561523557600080fd5b505af4158015615249573d6000803e3d6000fd5b5050505060006152593388613747565b604051633416d70d60e21b815290915073__$d865f21674766f31b0d600e4a95b721b57$__9063d05b5c349061529890601290859089906004016172d0565b60006040518083038186803b1580156152b057600080fd5b505af41580156152c4573d6000803e3d6000fd5b5050604051633416d70d60e21b815273__$d865f21674766f31b0d600e4a95b721b57$__925063d05b5c3491506153049060129085908b90600401617284565b60006040518083038186803b15801561531c57600080fd5b505af4158015615330573d6000803e3d6000fd5b5050506000888152600f602090815260408083203384528252808320899055601582528083208b84529180529091206003015490915061537190600161582b565b60008981526020808052604080832060030193909355426005850155338252600b81528282208b83529052908120805460ff1916600190811790915560218054919290916153c0908490617494565b9091555050604051339089907f1b5c5140592c554fa4c0cdb5b3d3cd50f87aa84e477afd0b6c93d7702ef9c73c906153f99089906163b9565b60405180910390a35050505050505050565b3390565b601c546001600160a01b03166154375760405162461bcd60e51b8152600401610ea090616e81565b601c546040516000916001600160a01b0316906154589033906024016163ec565b60408051601f198184030181529181526020820180516001600160e01b0316631f5ac9c560e11b1790525161548d91906163c2565b6000604051808303816000865af19150503d80600081146154ca576040519150601f19603f3d011682016040523d82523d6000602084013e6154cf565b606091505b5050601c546040519192506000916001600160a01b03909116906154f79033906024016163ec565b60408051601f198184030181529181526020820180516001600160e01b03166358563d2160e01b1790525161552c91906163c2565b6000604051808303816000865af19150503d8060008114615569576040519150601f19603f3d011682016040523d82523d6000602084013e61556e565b606091505b50509050818061557b5750805b6137195760405162461bcd60e51b8152600401610ea0906166f0565b60008060005b60195481101561560b57836001600160a01b0316601982815481106155d257634e487b7160e01b600052603260045260246000fd5b6000918252602090912001546001600160a01b031614156155f9576001915080925061560b565b8061560381617561565b91505061559d565b5080156156ea5760198054615622906001906174df565b8154811061564057634e487b7160e01b600052603260045260246000fd5b600091825260209091200154601980546001600160a01b03909216918490811061567a57634e487b7160e01b600052603260045260246000fd5b9060005260206000200160006101000a8154816001600160a01b0302191690836001600160a01b0316021790555060198054806156c757634e487b7160e01b600052603160045260246000fd5b600082815260209020810160001990810180546001600160a01b03191690550190555b505050565b60008060005b601a5481101561576357836001600160a01b0316601a828154811061572a57634e487b7160e01b600052603260045260246000fd5b6000918252602090912001546001600160a01b031614156157515760019150809250615763565b8061575b81617561565b9150506156f5565b5080156156ea57601a805461577a906001906174df565b8154811061579857634e487b7160e01b600052603260045260246000fd5b600091825260209091200154601a80546001600160a01b0390921691849081106157d257634e487b7160e01b600052603260045260246000fd5b9060005260206000200160006101000a8154816001600160a01b0302191690836001600160a01b03160217905550601a8054806156c757634e487b7160e01b600052603160045260246000fd5b60006137408284617494565b600061374082846174df565b600080805b601954811015613bbf57836001600160a01b03166019828154811061587157634e487b7160e01b600052603260045260246000fd5b6000918252602090912001546001600160a01b031614156158955760019150613bbf565b8061589f81617561565b91505061583c565b60008183106158b65781613740565b5090919050565b6000818310156158b65781613740565b600080805b601a54811015613bbf57836001600160a01b0316601a828154811061590757634e487b7160e01b600052603260045260246000fd5b6000918252602090912001546001600160a01b0316141561592b5760019150613bbf565b8061593581617561565b9150506158d2565b600080546001600160a01b038381166001600160a01b0319831681178455604051919092169283917f8be0079c531659141344cd1fd0a4f28419497f9722a3daafe3b4186f6b6457e09190a35050565b805160609060005b818110156159db57808482815181106159be57634e487b7160e01b600052603260045260246000fd5b6020908102919091010152806159d381617561565b915050615995565b509192915050565b606060008251116159f357600080fd5b81518060005b81811015615b6e57600083615a0c6139a6565b878481518110615a2c57634e487b7160e01b600052603260045260246000fd5b6020026020010151604051602001615a459291906163de565b6040516020818303038152906040528051906020012060001c615a68919061757c565b615a73906001617494565b9050600086615a836001846174df565b81518110615aa157634e487b7160e01b600052603260045260246000fd5b6020026020010151905086600186615ab991906174df565b81518110615ad757634e487b7160e01b600052603260045260246000fd5b602002602001015187600184615aed91906174df565b81518110615b0b57634e487b7160e01b600052603260045260246000fd5b60209081029190910101528087615b236001886174df565b81518110615b4157634e487b7160e01b600052603260045260246000fd5b6020908102919091010152615b576001866174df565b945050508080615b6690617561565b9150506159f9565b50929392505050565b6000828152601b60209081526040808320805482518185028101850190935280835284938493929190830182828015615bd957602002820191906000526020600020905b81546001600160a01b03168152600190910190602001808311615bbb575b5050505050905060005b8151811015615c4857846001600160a01b0316828281518110615c1657634e487b7160e01b600052603260045260246000fd5b60200260200101516001600160a01b03161415615c365760019250615c48565b80615c4081617561565b915050615be3565b5090949350505050565b828054615c5e90617526565b90600052602060002090601f016020900481019282615c805760008555615cc6565b82601f10615c9957805160ff1916838001178555615cc6565b82800160010185558215615cc6579182015b82811115615cc6578251825591602001919060010190615cab565b50615cd2929150615def565b5090565b508054615ce290617526565b6000825580601f10615cf45750612056565b601f0160209004906000526020600020908101906120569190615def565b60405180608001604052806060815260200160006001600160a01b031681526020016000815260200160006003811115615d5c57634e487b7160e01b600052602160045260246000fd5b905290565b604051806101c001604052806000815260200160008152602001600081526020016000815260200160008152602001600015158152602001600015158152602001600015158152602001600081526020016000815260200160008152602001600081526020016060815260200160006003811115615d5c57634e487b7160e01b600052602160045260246000fd5b5b80821115615cd25760008155600101615df0565b80356001600160a01b0381168114610f2157600080fd5b80518015158114610f2157600080fd5b805160048110610f2157600080fd5b600082601f830112615e4a578081fd5b8135615e5d615e5882617461565b617438565b818152846020838601011115615e71578283fd5b816020850160208301379081016020019190915292915050565b600082601f830112615e9b578081fd5b8151615ea9615e5882617461565b818152846020838601011115615ebd578283fd5b6146088260208301602087016174f6565b600060208284031215615edf578081fd5b61374082615e04565b60008060408385031215615efa578081fd5b615f0383615e04565b946020939093013593505050565b600080600060608486031215615f25578081fd5b615f2e84615e04565b95602085013595506040909401359392505050565b60006020808385031215615f55578182fd5b82356001600160401b0380821115615f6b578384fd5b818501915085601f830112615f7e578384fd5b813581811115615f9057615f906175bc565b8381029150615fa0848301617438565b8181528481019084860184860187018a1015615fba578788fd5b8795505b83861015615fdc578035835260019590950194918601918601615fbe565b5098975050505050505050565b600060208284031215615ffa578081fd5b61374082615e1b565b60008060408385031215616015578182fd5b82356001600160401b038082111561602b578384fd5b61603786838701615e3a565b9350602085013591508082111561604c578283fd5b5061605985828601615e3a565b9150509250929050565b60008060408385031215616075578182fd5b82356001600160401b0381111561608a578283fd5b61609685828601615e3a565b95602094909401359450505050565b6000602082840312156160b6578081fd5b81516001600160401b03808211156160cc578283fd5b81840191506101c08083870312156160e2578384fd5b6160eb81617438565b9050825181526020830151602082015260408301516040820152606083015160608201526080830151608082015261612560a08401615e1b565b60a082015261613660c08401615e1b565b60c082015261614760e08401615e1b565b60e08201526101008381015190820152610120808401519082015261014080840151908201526101608084015190820152610180808401518381111561618b578586fd5b61619788828701615e8b565b8284015250506101a091506161ad828401615e2b565b91810191909152949350505050565b6000602082840312156161cd578081fd5b5035919050565b6000602082840312156112ac578081fd5b600080604083850312156161f7578182fd5b8235915061620760208401615e04565b90509250929050565b600080600060608486031215616224578081fd5b505081359360208301359350604090920135919050565b6000806040838503121561624d578182fd5b50508035926020909101359150565b60008060008060808587031215616271578182fd5b843593506020850135925061628860408601615e04565b9396929550929360600135925050565b600080600080608085870312156162ad578182fd5b843593506020850135925060408501356001600160401b038111156162d0578283fd5b6162dc87828801615e3a565b949793965093946060013593505050565b15159052565b6000815180845261630b8160208601602086016174f6565b601f01601f19169290920160200192915050565b6004811061633d57634e487b7160e01b600052602160045260246000fd5b9052565b600a8152690c6dedadad2e890c2e6d60b31b602082015260400190565b60098152686e756d546f6b656e7360b81b602082015260400190565b60609190911b6bffffffffffffffffffffffff1916815260140190565b60609290921b6bffffffffffffffffffffffff19168252601482015260340190565b90815260200190565b600082516163d48184602087016174f6565b9190910192915050565b918252602082015260400190565b6001600160a01b0391909116815260200190565b6001600160a01b038b811682528a1660208201526040810189905287151560608201526080810187905260a0810186905261014060c0820181905260009061644a838201886162f3565b95151560e0840152505091151561010083015261012090910152979650505050505050565b6000602080830181845280855180835260408601915060408482028701019250838701855b828110156164c257603f198886030184526164b08583516162f3565b94509285019290850190600101616494565b5092979650505050505050565b6020808252825182820181905260009190848201906040850190845b81811015616507578351835292840192918401916001016164eb565b50909695505050505050565b901515815260200190565b60006020825261374060208301846162f3565b60006040825261654460408301856162f3565b905060018060a01b03831660208301529392505050565b60006080825261656e60808301876162f3565b6001600160a01b0386166020840152604083018590529050616593606083018461631f565b95945050505050565b6000604082526165af60408301856162f3565b90508260208301529392505050565b60006020808352818454836002820490506001808316806165e057607f831692505b8583108114156165fe57634e487b7160e01b87526022600452602487fd5b61660a83878a016163b9565b81801561661e576001811461662f57616659565b60ff19861682528782019650616659565b6166388b617488565b895b868110156166535781548482015290850190890161663a565b83019750505b50949998505050505050505050565b6020808252601c908201527f576f726b657220697320616c7265616479207265676973746572656400000000604082015260600190565b60208082526031908201527f676976656e204461746142617463682073686f756c6420626520415050524f5660408201527011510b08185b99081a5d081a5cc81b9bdd607a1b606082015260800190565b60208082526025908201527f72656365697665722072656a6563746564205f7265747269657665534675656c6040820152640818d85b1b60da1b606082015260800190565b60208082526026908201527f4f776e61626c653a206e6577206f776e657220697320746865207a65726f206160408201526564647265737360d01b606082015260800190565b60208082526029908201527f6b206f72204e20617265206e6f74204f4b20647572696e672072616e646f6d2060408201526839b2b632b1ba34b7b760b91b606082015260800190565b6020808252602a908201527f4661696c20647572696e6720616c6c6f636174696f6e3a206e6f7420656e6f75604082015269676820776f726b65727360b01b606082015260800190565b6020808252601e908201527f636f6d6d697420706572696f64206e6565647320746f206265206f70656e0000604082015260600190565b60208082526038908201527f55736572206e6565647320746f20626520616c6c6f636174656420746f20746860408201527f697320626174636820746f20636f6d6d6974206f6e2069740000000000000000606082015260800190565b6020808252602f908201527f636f756c64206e6f742072657761726420746f6b656e20696e2054726967676560408201526e3921b432b1b5a9b837ba161018973160891b606082015260800190565b6020808252603d908201527f436f756c64206e6f74207265717565737420656e6f75676820616c6c6f63617460408201527f6564207374616b652c2072657175657374566f74696e67526967687473000000606082015260800190565b6020808252602f908201527f5573657220686173206e6f7420636f6d6d69746564206265666f72652c20746860408201526e1d5cc818d85b89dd081c995d99585b608a1b606082015260800190565b60208082526043908201527f576f726b657220686173206e6f7420656e6f75676820285f6e756d546f6b656e60408201527f732920696e2068697320466f726d61745374616b6564546f6b656e42616c616e606082015262031b2960ed1b608082015260a00190565b6020808252602d908201527f636f756c64206e6f74207265776172642052455020696e20547269676765724360408201526c6865636b53706f742c20312e6160981b606082015260800190565b60208082526039908201527f646c6c4d61703a20646f6573206e6f7420636f696e7461696e205f446174614260408201527f61746368496420666f7220746865206d73672073656e64657200000000000000606082015260800190565b6020808252602b908201527f75736572206d75737420686176652072657665616c656420696e20746869732060408201526a0ced2eccadc4084c2e8c6d60ab1b606082015260800190565b6020808252601490820152733737ba1030903b30b634b2103837b9b4ba34b7b760611b604082015260600190565b6020808252603a908201527f576f726b65722063757272656e746c792068617320776f726b20616c6c6f636160408201527f7465642c2063616e277420626520756e72656769737465726564000000000000606082015260800190565b6020808252603b908201527f43616e277420616c6c6f6361746520776f726b2c207468652063757272656e7460408201527f20626174636820697320616c726561647920616c6c6f63617465640000000000606082015260800190565b6020808252602c908201527f576f726b6572206973206e6f74207265676973746572656420736f2063616e2760408201526b3a103ab73932b3b4b9ba32b960a11b606082015260800190565b6020808252818101527f4f776e61626c653a2063616c6c6572206973206e6f7420746865206f776e6572604082015260600190565b6020808252603a908201527f5f446174614261746368496420686173206e6f7420656e6465642c206f72206e60408201527f6f7420657665727920766f74657273206861766520766f746564000000000000606082015260800190565b6020808252603e908201527f436f756c64206e6f74206d6174636820656e637279707465642068617368202660408201527f20636c6561722068617368207769746820676976656e20696e707574732e0000606082015260800190565b60208082526029908201527f6765744e756d50617373696e67546f6b656e733a20686173686573206d75737460408201526808189948195c5d585b60ba1b606082015260800190565b60208082526036908201527f43616e277420616c6c6f6361746520776f726b2c207468652063757272656e74604082015275206261746368206973206e6f7420636f6d706c65746560501b606082015260800190565b60208082526026908201527f52657665616c20706572696f64206e6f74206f70656e20666f7220746869732060408201526511185d18525160d21b606082015260800190565b60208082526027908201527f617661696c61626c65546f6b656e732073686f756c64206265203e3d205f6e756040820152666d546f6b656e7360c81b606082015260800190565b60208082526017908201527f5f4461746142617463684964206d757374206578697374000000000000000000604082015260600190565b6020808252601390820152720c081059191c995cdcc8139bdd0815985b1a59606a1b604082015260600190565b6020808252602f908201527f636f756c64206e6f742072657761726420746f6b656e20696e2054726967676560408201526e3921b432b1b5a9b837ba161019173160891b606082015260800190565b60208082526021908201527f5f446174614261746368496420697320616c72656164792076616c69646174656040820152601960fa1b606082015260800190565b60208082526029908201527f557365722068617320616c726561647920636f6d6d6974656420746f207468696040820152681cc818985d18da125960ba1b606082015260800190565b60208082526022908201527f4d6178696d756d207265676973746572656420776f726b65727320616c726561604082015261647960f01b606082015260800190565b60208082526037908201527f75736572206d757374206861766520656e6f75676820766f74696e672072696760408201527f68747320616b6120616c6c6f6361746564207374616b65000000000000000000606082015260800190565b6020808252602d908201527f636f756c64206e6f74207265776172642052455020696e20547269676765724360408201526c6865636b53706f742c20322e6160981b606082015260800190565b6020808252602a908201527f5f446174614261746368496420636865636b696e6720766f7465206d757374206040820152691a185d9948195b99195960b21b606082015260800190565b6020808252603b908201527f436f756c64206e6f74207769746864726177566f74696e67526967687473207460408201527f68726f7567682050726f78795374616b654465616c6c6f636174650000000000606082015260800190565b6020808252600f908201526e11185d18481b5d5cdd08195e1a5cdd608a1b604082015260600190565b6020808252602c908201527f557365722068617320616c72656164792072657665616c65642c20746875732060408201526b18d85b89dd081c995d99585b60a21b606082015260800190565b60006020825282516020830152602083015160408301526040830151606083015260608301516080830152608083015160a083015260a08301516171d660c08401826162ed565b5060c08301516171e960e08401826162ed565b5060e08301516101006171fe818501836162ed565b840151610120848101919091528401516101408085019190915284015161016080850191909152840151610180808501919091528401516101c06101a0808601829052919250906172536101e08601846162f3565b90860151909250615c488583018261631f565b60008382528260208301526060604083015261460860608301616341565b6000848252836020830152608060408301526172a260808301616341565b9050826060830152949350505050565b6000838252826020830152606060408301526146086060830161635e565b6000848252836020830152608060408301526172a26080830161635e565b93845260208401929092526040830152606082015260800190565b60006020825282516080602084015261732560a08401826162f3565b905060018060a01b036020850151166040840152604084015160608401526060840151617355608085018261631f565b509392505050565b9182526001600160a01b0316602082015260400190565b9182526001600160a01b031660208201526000604082015260600190565b9283526020830191909152604082015260600190565b60008f82528e60208301528d60408301528c60608301528b60808301528a151560a083015289151560c08301526173e260e083018a6162ed565b876101008301528661012083015285610140830152846101608301526101c06101808301526174156101c08301856162f3565b90506174256101a083018461631f565b9f9e505050505050505050505050505050565b6040518181016001600160401b0381118282101715617459576174596175bc565b604052919050565b60006001600160401b0382111561747a5761747a6175bc565b50601f01601f191660200190565b60009081526020902090565b600082198211156174a7576174a7617590565b500190565b6000826174bb576174bb6175a6565b500490565b60008160001904831182151516156174da576174da617590565b500290565b6000828210156174f1576174f1617590565b500390565b60005b838110156175115781810151838201526020016174f9565b83811115617520576000848401525b50505050565b60028104600182168061753a57607f821691505b6020821081141561755b57634e487b7160e01b600052602260045260246000fd5b50919050565b600060001982141561757557617575617590565b5060010190565b60008261758b5761758b6175a6565b500690565b634e487b7160e01b600052601160045260246000fd5b634e487b7160e01b600052601260045260246000fd5b634e487b7160e01b600052604160045260246000fdfea264697066735822122051996a88ee6d5b10b508f74cc8bdd09a1bed0b94f60196f9b0db824b95a66a0864736f6c63430008000033",
  "linkReferences": {
    "contracts/worksystems/DataFormatting.sol": {
      "AttributeStore2": [
        {
          "length": 20,
          "start": 17226
        },
        {
          "length": 20,
          "start": 17485
        },
        {
          "length": 20,
          "start": 21551
        },
        {
          "length": 20,
          "start": 21657
        }
      ],
      "DLL2": [
        {
          "length": 20,
          "start": 5653
        },
        {
          "length": 20,
          "start": 6177
        },
        {
          "length": 20,
          "start": 14150
        },
        {
          "length": 20,
          "start": 14330
        },
        {
          "length": 20,
          "start": 21071
        },
        {
          "length": 20,
          "start": 21233
        },
        {
          "length": 20,
          "start": 21428
        }
      ]
    }
  },
  "deployedLinkReferences": {
    "contracts/worksystems/DataFormatting.sol": {
      "AttributeStore2": [
        {
          "length": 20,
          "start": 16774
        },
        {
          "length": 20,
          "start": 17033
        },
        {
          "length": 20,
          "start": 21099
        },
        {
          "length": 20,
          "start": 21205
        }
      ],
      "DLL2": [
        {
          "length": 20,
          "start": 5201
        },
        {
          "length": 20,
          "start": 5725
        },
        {
          "length": 20,
          "start": 13698
        },
        {
          "length": 20,
          "start": 13878
        },
        {
          "length": 20,
          "start": 20619
        },
        {
          "length": 20,
          "start": 20781
        },
        {
          "length": 20,
          "start": 20976
        }
      ]
    }
  }
}