{
  "_format": "hh-sol-artifact-1",
  "contractName": "DataFormatting",
  "sourceName": "contracts/worksystems/DataFormatting.sol",
  "abi": [
    {
      "inputs": [
        {
          "internalType": "address",
          "name": "EXDT_token",
          "type": "address"
        }
      ],
      "stateMutability": "nonpayable",
      "type": "constructor"
    },
    {
      "anonymous": false,
      "inputs": [
        {
          "indexed": false,
          "internalType": "bytes",
          "name": "bytesFailure",
          "type": "bytes"
        }
      ],
      "name": "BytesFailure",
      "type": "event"
    },
    {
      "anonymous": false,
      "inputs": [
        {
          "indexed": true,
          "internalType": "address",
          "name": "previousOwner",
          "type": "address"
        },
        {
          "indexed": true,
          "internalType": "address",
          "name": "newOwner",
          "type": "address"
        }
      ],
      "name": "OwnershipTransferred",
      "type": "event"
    },
    {
      "anonymous": false,
      "inputs": [
        {
          "indexed": false,
          "internalType": "string",
          "name": "hash",
          "type": "string"
        },
        {
          "indexed": true,
          "internalType": "address",
          "name": "creator",
          "type": "address"
        }
      ],
      "name": "_FormatAccepted",
      "type": "event"
    },
    {
      "anonymous": false,
      "inputs": [
        {
          "indexed": true,
          "internalType": "uint256",
          "name": "DataID",
          "type": "uint256"
        },
        {
          "indexed": false,
          "internalType": "uint256",
          "name": "numTokens",
          "type": "uint256"
        },
        {
          "indexed": true,
          "internalType": "address",
          "name": "voter",
          "type": "address"
        }
      ],
      "name": "_FormatCheckCommitted",
      "type": "event"
    },
    {
      "anonymous": false,
      "inputs": [
        {
          "indexed": true,
          "internalType": "uint256",
          "name": "DataID",
          "type": "uint256"
        },
        {
          "indexed": false,
          "internalType": "uint256",
          "name": "numTokens",
          "type": "uint256"
        },
        {
          "indexed": false,
          "internalType": "uint256",
          "name": "votesFor",
          "type": "uint256"
        },
        {
          "indexed": false,
          "internalType": "uint256",
          "name": "votesAgainst",
          "type": "uint256"
        },
        {
          "indexed": true,
          "internalType": "uint256",
          "name": "choice",
          "type": "uint256"
        },
        {
          "indexed": true,
          "internalType": "address",
          "name": "voter",
          "type": "address"
        }
      ],
      "name": "_FormatCheckRevealed",
      "type": "event"
    },
    {
      "anonymous": false,
      "inputs": [
        {
          "indexed": true,
          "internalType": "uint256",
          "name": "DataID",
          "type": "uint256"
        },
        {
          "indexed": false,
          "internalType": "string",
          "name": "file_hash",
          "type": "string"
        },
        {
          "indexed": false,
          "internalType": "address",
          "name": "sender",
          "type": "address"
        }
      ],
      "name": "_FormatSubmitted",
      "type": "event"
    },
    {
      "anonymous": false,
      "inputs": [
        {
          "indexed": true,
          "internalType": "uint256",
          "name": "epochNumber",
          "type": "uint256"
        }
      ],
      "name": "_NewEpoch",
      "type": "event"
    },
    {
      "anonymous": false,
      "inputs": [
        {
          "indexed": false,
          "internalType": "uint256",
          "name": "numTokens",
          "type": "uint256"
        },
        {
          "indexed": true,
          "internalType": "address",
          "name": "voter",
          "type": "address"
        }
      ],
      "name": "_StakeAllocated",
      "type": "event"
    },
    {
      "anonymous": false,
      "inputs": [
        {
          "indexed": true,
          "internalType": "uint256",
          "name": "DataID",
          "type": "uint256"
        },
        {
          "indexed": true,
          "internalType": "address",
          "name": "voter",
          "type": "address"
        }
      ],
      "name": "_TokensRescued",
      "type": "event"
    },
    {
      "anonymous": false,
      "inputs": [
        {
          "indexed": false,
          "internalType": "uint256",
          "name": "numTokens",
          "type": "uint256"
        },
        {
          "indexed": true,
          "internalType": "address",
          "name": "voter",
          "type": "address"
        }
      ],
      "name": "_VotingRightsWithdrawn",
      "type": "event"
    },
    {
      "anonymous": false,
      "inputs": [
        {
          "indexed": true,
          "internalType": "uint256",
          "name": "batchID",
          "type": "uint256"
        },
        {
          "indexed": false,
          "internalType": "address",
          "name": "worker",
          "type": "address"
        }
      ],
      "name": "_WorkAllocated",
      "type": "event"
    },
    {
      "anonymous": false,
      "inputs": [
        {
          "indexed": true,
          "internalType": "address",
          "name": "worker",
          "type": "address"
        },
        {
          "indexed": false,
          "internalType": "uint256",
          "name": "timestamp",
          "type": "uint256"
        }
      ],
      "name": "_WorkerRegistered",
      "type": "event"
    },
    {
      "anonymous": false,
      "inputs": [
        {
          "indexed": true,
          "internalType": "address",
          "name": "worker",
          "type": "address"
        },
        {
          "indexed": false,
          "internalType": "uint256",
          "name": "timestamp",
          "type": "uint256"
        }
      ],
      "name": "_WorkerUnregistered",
      "type": "event"
    },
    {
      "inputs": [],
      "name": "AcceptedBatchsCounter",
      "outputs": [
        {
          "internalType": "uint256",
          "name": "",
          "type": "uint256"
        }
      ],
      "stateMutability": "view",
      "type": "function"
    },
    {
      "inputs": [],
      "name": "AddressManager",
      "outputs": [
        {
          "internalType": "contract IAddressManager",
          "name": "",
          "type": "address"
        }
      ],
      "stateMutability": "view",
      "type": "function"
    },
    {
      "inputs": [],
      "name": "AllTxsCounter",
      "outputs": [
        {
          "internalType": "uint256",
          "name": "",
          "type": "uint256"
        }
      ],
      "stateMutability": "view",
      "type": "function"
    },
    {
      "inputs": [],
      "name": "AllocateWork",
      "outputs": [],
      "stateMutability": "nonpayable",
      "type": "function"
    },
    {
      "inputs": [],
      "name": "AllocatedBatchCursor",
      "outputs": [
        {
          "internalType": "uint256",
          "name": "",
          "type": "uint256"
        }
      ],
      "stateMutability": "view",
      "type": "function"
    },
    {
      "inputs": [],
      "name": "AmIRegistered",
      "outputs": [
        {
          "internalType": "bool",
          "name": "passed",
          "type": "bool"
        }
      ],
      "stateMutability": "view",
      "type": "function"
    },
    {
      "inputs": [],
      "name": "ArchiveSystem",
      "outputs": [
        {
          "internalType": "contract IArchiveSystem",
          "name": "",
          "type": "address"
        }
      ],
      "stateMutability": "view",
      "type": "function"
    },
    {
      "inputs": [
        {
          "internalType": "string",
          "name": "_a",
          "type": "string"
        },
        {
          "internalType": "string",
          "name": "_b",
          "type": "string"
        }
      ],
      "name": "AreStringsEqual",
      "outputs": [
        {
          "internalType": "bool",
          "name": "",
          "type": "bool"
        }
      ],
      "stateMutability": "pure",
      "type": "function"
    },
    {
      "inputs": [],
      "name": "BatchCheckingCursor",
      "outputs": [
        {
          "internalType": "uint256",
          "name": "",
          "type": "uint256"
        }
      ],
      "stateMutability": "view",
      "type": "function"
    },
    {
      "inputs": [],
      "name": "COMMIT_ROUND_DURATION",
      "outputs": [
        {
          "internalType": "uint256",
          "name": "",
          "type": "uint256"
        }
      ],
      "stateMutability": "view",
      "type": "function"
    },
    {
      "inputs": [],
      "name": "CONSENSUS_WORKER_SIZE",
      "outputs": [
        {
          "internalType": "uint256",
          "name": "",
          "type": "uint256"
        }
      ],
      "stateMutability": "view",
      "type": "function"
    },
    {
      "inputs": [
        {
          "internalType": "uint256",
          "name": "",
          "type": "uint256"
        }
      ],
      "name": "CollectedSpotBatchs",
      "outputs": [
        {
          "internalType": "bool",
          "name": "",
          "type": "bool"
        }
      ],
      "stateMutability": "view",
      "type": "function"
    },
    {
      "inputs": [],
      "name": "CurrentWorkEpoch",
      "outputs": [
        {
          "internalType": "uint256",
          "name": "",
          "type": "uint256"
        }
      ],
      "stateMutability": "view",
      "type": "function"
    },
    {
      "inputs": [],
      "name": "DATA_BATCH_SIZE",
      "outputs": [
        {
          "internalType": "uint256",
          "name": "",
          "type": "uint256"
        }
      ],
      "stateMutability": "view",
      "type": "function"
    },
    {
      "inputs": [
        {
          "internalType": "uint256",
          "name": "",
          "type": "uint256"
        }
      ],
      "name": "DataBatch",
      "outputs": [
        {
          "internalType": "uint256",
          "name": "start_idx",
          "type": "uint256"
        },
        {
          "internalType": "uint256",
          "name": "counter",
          "type": "uint256"
        },
        {
          "internalType": "uint256",
          "name": "uncommited_workers",
          "type": "uint256"
        },
        {
          "internalType": "uint256",
          "name": "unrevealed_workers",
          "type": "uint256"
        },
        {
          "internalType": "uint256",
          "name": "item_count",
          "type": "uint256"
        },
        {
          "internalType": "bool",
          "name": "complete",
          "type": "bool"
        },
        {
          "internalType": "bool",
          "name": "checked",
          "type": "bool"
        },
        {
          "internalType": "bool",
          "name": "allocated_to_work",
          "type": "bool"
        },
        {
          "internalType": "uint256",
          "name": "commitEndDate",
          "type": "uint256"
        },
        {
          "internalType": "uint256",
          "name": "revealEndDate",
          "type": "uint256"
        },
        {
          "internalType": "uint256",
          "name": "votesFor",
          "type": "uint256"
        },
        {
          "internalType": "uint256",
          "name": "votesAgainst",
          "type": "uint256"
        },
        {
          "internalType": "string",
          "name": "batchIPFSfile",
          "type": "string"
        },
        {
          "internalType": "enum DataFormatting.DataStatus",
          "name": "status",
          "type": "uint8"
        }
      ],
      "stateMutability": "view",
      "type": "function"
    },
    {
      "inputs": [
        {
          "internalType": "uint256",
          "name": "_DataBatchId",
          "type": "uint256"
        }
      ],
      "name": "DataCommitEndDate",
      "outputs": [
        {
          "internalType": "uint256",
          "name": "commitEndDate",
          "type": "uint256"
        }
      ],
      "stateMutability": "view",
      "type": "function"
    },
    {
      "inputs": [
        {
          "internalType": "uint256",
          "name": "_DataBatchId",
          "type": "uint256"
        }
      ],
      "name": "DataEnded",
      "outputs": [
        {
          "internalType": "bool",
          "name": "ended",
          "type": "bool"
        }
      ],
      "stateMutability": "view",
      "type": "function"
    },
    {
      "inputs": [
        {
          "internalType": "uint256",
          "name": "_DataBatchId",
          "type": "uint256"
        }
      ],
      "name": "DataExists",
      "outputs": [
        {
          "internalType": "bool",
          "name": "exists",
          "type": "bool"
        }
      ],
      "stateMutability": "view",
      "type": "function"
    },
    {
      "inputs": [],
      "name": "DataNonce",
      "outputs": [
        {
          "internalType": "uint256",
          "name": "",
          "type": "uint256"
        }
      ],
      "stateMutability": "view",
      "type": "function"
    },
    {
      "inputs": [
        {
          "internalType": "uint256",
          "name": "_DataBatchId",
          "type": "uint256"
        }
      ],
      "name": "DataRevealEndDate",
      "outputs": [
        {
          "internalType": "uint256",
          "name": "revealEndDate",
          "type": "uint256"
        }
      ],
      "stateMutability": "view",
      "type": "function"
    },
    {
      "inputs": [
        {
          "internalType": "address",
          "name": "",
          "type": "address"
        }
      ],
      "name": "FormatStakedTokenBalance",
      "outputs": [
        {
          "internalType": "uint256",
          "name": "",
          "type": "uint256"
        }
      ],
      "stateMutability": "view",
      "type": "function"
    },
    {
      "inputs": [
        {
          "internalType": "uint256",
          "name": "",
          "type": "uint256"
        }
      ],
      "name": "FormatsMapping",
      "outputs": [
        {
          "internalType": "string",
          "name": "ipfs_hash",
          "type": "string"
        },
        {
          "internalType": "address",
          "name": "author",
          "type": "address"
        },
        {
          "internalType": "uint256",
          "name": "timestamp",
          "type": "uint256"
        },
        {
          "internalType": "enum DataFormatting.DataStatus",
          "name": "status",
          "type": "uint8"
        }
      ],
      "stateMutability": "view",
      "type": "function"
    },
    {
      "inputs": [
        {
          "internalType": "address",
          "name": "user_",
          "type": "address"
        }
      ],
      "name": "GetCurrentWork",
      "outputs": [
        {
          "internalType": "uint256",
          "name": "",
          "type": "uint256"
        }
      ],
      "stateMutability": "view",
      "type": "function"
    },
    {
      "inputs": [
        {
          "internalType": "address",
          "name": "user_",
          "type": "address"
        }
      ],
      "name": "IsNewWorkAvailable",
      "outputs": [
        {
          "internalType": "bool",
          "name": "",
          "type": "bool"
        }
      ],
      "stateMutability": "view",
      "type": "function"
    },
    {
      "inputs": [],
      "name": "LastBatchCounter",
      "outputs": [
        {
          "internalType": "uint256",
          "name": "",
          "type": "uint256"
        }
      ],
      "stateMutability": "view",
      "type": "function"
    },
    {
      "inputs": [],
      "name": "MAX_SUCCEEDING_NOVOTES",
      "outputs": [
        {
          "internalType": "uint256",
          "name": "",
          "type": "uint256"
        }
      ],
      "stateMutability": "view",
      "type": "function"
    },
    {
      "inputs": [],
      "name": "MIN_CONSENSUS_WORKER_COUNT",
      "outputs": [
        {
          "internalType": "uint256",
          "name": "",
          "type": "uint256"
        }
      ],
      "stateMutability": "view",
      "type": "function"
    },
    {
      "inputs": [],
      "name": "MIN_REP_Data",
      "outputs": [
        {
          "internalType": "uint256",
          "name": "",
          "type": "uint256"
        }
      ],
      "stateMutability": "view",
      "type": "function"
    },
    {
      "inputs": [],
      "name": "MIN_REP_REVEAL",
      "outputs": [
        {
          "internalType": "uint256",
          "name": "",
          "type": "uint256"
        }
      ],
      "stateMutability": "view",
      "type": "function"
    },
    {
      "inputs": [],
      "name": "MIN_REWARD_Data",
      "outputs": [
        {
          "internalType": "uint256",
          "name": "",
          "type": "uint256"
        }
      ],
      "stateMutability": "view",
      "type": "function"
    },
    {
      "inputs": [],
      "name": "MIN_STAKE",
      "outputs": [
        {
          "internalType": "uint256",
          "name": "",
          "type": "uint256"
        }
      ],
      "stateMutability": "view",
      "type": "function"
    },
    {
      "inputs": [
        {
          "internalType": "address",
          "name": "",
          "type": "address"
        },
        {
          "internalType": "uint256",
          "name": "",
          "type": "uint256"
        }
      ],
      "name": "MasterWorkers",
      "outputs": [
        {
          "internalType": "address",
          "name": "",
          "type": "address"
        }
      ],
      "stateMutability": "view",
      "type": "function"
    },
    {
      "inputs": [],
      "name": "NOVOTE_REGISTRATION_WAIT_DURATION",
      "outputs": [
        {
          "internalType": "uint256",
          "name": "",
          "type": "uint256"
        }
      ],
      "stateMutability": "view",
      "type": "function"
    },
    {
      "inputs": [],
      "name": "NotCommitedCounter",
      "outputs": [
        {
          "internalType": "uint256",
          "name": "",
          "type": "uint256"
        }
      ],
      "stateMutability": "view",
      "type": "function"
    },
    {
      "inputs": [],
      "name": "NotRevealedCounter",
      "outputs": [
        {
          "internalType": "uint256",
          "name": "",
          "type": "uint256"
        }
      ],
      "stateMutability": "view",
      "type": "function"
    },
    {
      "inputs": [
        {
          "internalType": "uint256",
          "name": "CheckedBatchId",
          "type": "uint256"
        }
      ],
      "name": "Ping",
      "outputs": [],
      "stateMutability": "nonpayable",
      "type": "function"
    },
    {
      "inputs": [],
      "name": "REVEAL_ROUND_DURATION",
      "outputs": [
        {
          "internalType": "uint256",
          "name": "",
          "type": "uint256"
        }
      ],
      "stateMutability": "view",
      "type": "function"
    },
    {
      "inputs": [],
      "name": "RegisterWorker",
      "outputs": [],
      "stateMutability": "nonpayable",
      "type": "function"
    },
    {
      "inputs": [],
      "name": "RejectedBatchsCounter",
      "outputs": [
        {
          "internalType": "uint256",
          "name": "",
          "type": "uint256"
        }
      ],
      "stateMutability": "view",
      "type": "function"
    },
    {
      "inputs": [],
      "name": "RepManager",
      "outputs": [
        {
          "internalType": "contract IRepManager",
          "name": "",
          "type": "address"
        }
      ],
      "stateMutability": "view",
      "type": "function"
    },
    {
      "inputs": [],
      "name": "RewardManager",
      "outputs": [
        {
          "internalType": "contract IRewardManager",
          "name": "",
          "type": "address"
        }
      ],
      "stateMutability": "view",
      "type": "function"
    },
    {
      "inputs": [],
      "name": "SpottingSystem",
      "outputs": [
        {
          "internalType": "contract ISpottingSystem",
          "name": "",
          "type": "address"
        }
      ],
      "stateMutability": "view",
      "type": "function"
    },
    {
      "inputs": [],
      "name": "StakeManager",
      "outputs": [
        {
          "internalType": "contract IStakeManager",
          "name": "",
          "type": "address"
        }
      ],
      "stateMutability": "view",
      "type": "function"
    },
    {
      "inputs": [],
      "name": "TriggerNextEpoch",
      "outputs": [],
      "stateMutability": "nonpayable",
      "type": "function"
    },
    {
      "inputs": [],
      "name": "UnregisterWorker",
      "outputs": [],
      "stateMutability": "nonpayable",
      "type": "function"
    },
    {
      "inputs": [
        {
          "internalType": "uint256",
          "name": "",
          "type": "uint256"
        },
        {
          "internalType": "address",
          "name": "",
          "type": "address"
        }
      ],
      "name": "UserBatchCounts",
      "outputs": [
        {
          "internalType": "uint256",
          "name": "",
          "type": "uint256"
        }
      ],
      "stateMutability": "view",
      "type": "function"
    },
    {
      "inputs": [
        {
          "internalType": "uint256",
          "name": "",
          "type": "uint256"
        },
        {
          "internalType": "address",
          "name": "",
          "type": "address"
        }
      ],
      "name": "UserBatchFrom",
      "outputs": [
        {
          "internalType": "string",
          "name": "",
          "type": "string"
        }
      ],
      "stateMutability": "view",
      "type": "function"
    },
    {
      "inputs": [
        {
          "internalType": "address",
          "name": "",
          "type": "address"
        },
        {
          "internalType": "uint256",
          "name": "",
          "type": "uint256"
        }
      ],
      "name": "UserChecksCommits",
      "outputs": [
        {
          "internalType": "bool",
          "name": "",
          "type": "bool"
        }
      ],
      "stateMutability": "view",
      "type": "function"
    },
    {
      "inputs": [
        {
          "internalType": "address",
          "name": "",
          "type": "address"
        },
        {
          "internalType": "uint256",
          "name": "",
          "type": "uint256"
        }
      ],
      "name": "UserChecksReveals",
      "outputs": [
        {
          "internalType": "bool",
          "name": "",
          "type": "bool"
        }
      ],
      "stateMutability": "view",
      "type": "function"
    },
    {
      "inputs": [
        {
          "internalType": "uint256",
          "name": "",
          "type": "uint256"
        },
        {
          "internalType": "address",
          "name": "",
          "type": "address"
        }
      ],
      "name": "UserNewFiles",
      "outputs": [
        {
          "internalType": "string",
          "name": "",
          "type": "string"
        }
      ],
      "stateMutability": "view",
      "type": "function"
    },
    {
      "inputs": [
        {
          "internalType": "uint256",
          "name": "",
          "type": "uint256"
        },
        {
          "internalType": "address",
          "name": "",
          "type": "address"
        }
      ],
      "name": "UserVotes",
      "outputs": [
        {
          "internalType": "uint256",
          "name": "",
          "type": "uint256"
        }
      ],
      "stateMutability": "view",
      "type": "function"
    },
    {
      "inputs": [],
      "name": "VOTE_QUORUM",
      "outputs": [
        {
          "internalType": "uint256",
          "name": "",
          "type": "uint256"
        }
      ],
      "stateMutability": "view",
      "type": "function"
    },
    {
      "inputs": [
        {
          "internalType": "uint256",
          "name": "_DataBatchId",
          "type": "uint256"
        }
      ],
      "name": "ValidateDataBatch",
      "outputs": [],
      "stateMutability": "nonpayable",
      "type": "function"
    },
    {
      "inputs": [
        {
          "internalType": "uint256",
          "name": "",
          "type": "uint256"
        },
        {
          "internalType": "uint256",
          "name": "",
          "type": "uint256"
        }
      ],
      "name": "WorkersPerBatch",
      "outputs": [
        {
          "internalType": "address",
          "name": "",
          "type": "address"
        }
      ],
      "stateMutability": "view",
      "type": "function"
    },
    {
      "inputs": [
        {
          "internalType": "address",
          "name": "",
          "type": "address"
        }
      ],
      "name": "WorkersState",
      "outputs": [
        {
          "internalType": "address",
          "name": "worker_address",
          "type": "address"
        },
        {
          "internalType": "uint256",
          "name": "allocated_work_batch",
          "type": "uint256"
        },
        {
          "internalType": "bool",
          "name": "has_completed_work",
          "type": "bool"
        },
        {
          "internalType": "uint256",
          "name": "succeeding_novote_count",
          "type": "uint256"
        },
        {
          "internalType": "uint256",
          "name": "last_interaction_date",
          "type": "uint256"
        },
        {
          "internalType": "bool",
          "name": "registered",
          "type": "bool"
        },
        {
          "internalType": "bool",
          "name": "unregistration_request",
          "type": "bool"
        },
        {
          "internalType": "uint256",
          "name": "registration_date",
          "type": "uint256"
        },
        {
          "internalType": "uint256",
          "name": "majority_counter",
          "type": "uint256"
        },
        {
          "internalType": "uint256",
          "name": "minority_counter",
          "type": "uint256"
        }
      ],
      "stateMutability": "view",
      "type": "function"
    },
    {
      "inputs": [
        {
          "internalType": "address",
          "name": "_user",
          "type": "address"
        },
        {
          "internalType": "uint256",
          "name": "_DataBatchId",
          "type": "uint256"
        }
      ],
      "name": "attrUUID",
      "outputs": [
        {
          "internalType": "bytes32",
          "name": "UUID",
          "type": "bytes32"
        }
      ],
      "stateMutability": "pure",
      "type": "function"
    },
    {
      "inputs": [
        {
          "internalType": "uint256",
          "name": "",
          "type": "uint256"
        }
      ],
      "name": "availableWorkers",
      "outputs": [
        {
          "internalType": "address",
          "name": "",
          "type": "address"
        }
      ],
      "stateMutability": "view",
      "type": "function"
    },
    {
      "inputs": [
        {
          "internalType": "uint256",
          "name": "",
          "type": "uint256"
        }
      ],
      "name": "busyWorkers",
      "outputs": [
        {
          "internalType": "address",
          "name": "",
          "type": "address"
        }
      ],
      "stateMutability": "view",
      "type": "function"
    },
    {
      "inputs": [
        {
          "internalType": "uint256",
          "name": "_DataBatchId",
          "type": "uint256"
        },
        {
          "internalType": "bytes32",
          "name": "_secretIPFSHash",
          "type": "bytes32"
        },
        {
          "internalType": "uint256",
          "name": "_BatchCount",
          "type": "uint256"
        },
        {
          "internalType": "string",
          "name": "_From",
          "type": "string"
        }
      ],
      "name": "commitFormatCheck",
      "outputs": [],
      "stateMutability": "nonpayable",
      "type": "function"
    },
    {
      "inputs": [
        {
          "internalType": "uint256",
          "name": "_DataBatchId",
          "type": "uint256"
        }
      ],
      "name": "commitPeriodActive",
      "outputs": [
        {
          "internalType": "bool",
          "name": "active",
          "type": "bool"
        }
      ],
      "stateMutability": "view",
      "type": "function"
    },
    {
      "inputs": [
        {
          "internalType": "uint256",
          "name": "_DataId",
          "type": "uint256"
        }
      ],
      "name": "deleteData",
      "outputs": [],
      "stateMutability": "nonpayable",
      "type": "function"
    },
    {
      "inputs": [
        {
          "internalType": "uint256",
          "name": "_BatchId",
          "type": "uint256"
        }
      ],
      "name": "deleteDataBatch",
      "outputs": [],
      "stateMutability": "nonpayable",
      "type": "function"
    },
    {
      "inputs": [
        {
          "internalType": "uint256",
          "name": "_BatchId",
          "type": "uint256"
        }
      ],
      "name": "deleteMapping",
      "outputs": [],
      "stateMutability": "nonpayable",
      "type": "function"
    },
    {
      "inputs": [
        {
          "internalType": "address",
          "name": "_voter",
          "type": "address"
        },
        {
          "internalType": "uint256",
          "name": "_DataBatchId",
          "type": "uint256"
        }
      ],
      "name": "didCommit",
      "outputs": [
        {
          "internalType": "bool",
          "name": "committed",
          "type": "bool"
        }
      ],
      "stateMutability": "view",
      "type": "function"
    },
    {
      "inputs": [
        {
          "internalType": "address",
          "name": "_voter",
          "type": "address"
        },
        {
          "internalType": "uint256",
          "name": "_DataBatchId",
          "type": "uint256"
        }
      ],
      "name": "didReveal",
      "outputs": [
        {
          "internalType": "bool",
          "name": "revealed",
          "type": "bool"
        }
      ],
      "stateMutability": "view",
      "type": "function"
    },
    {
      "inputs": [
        {
          "internalType": "uint256",
          "name": "_k",
          "type": "uint256"
        },
        {
          "internalType": "uint256",
          "name": "N_range",
          "type": "uint256"
        }
      ],
      "name": "generateIntegers",
      "outputs": [
        {
          "internalType": "uint256[]",
          "name": "",
          "type": "uint256[]"
        }
      ],
      "stateMutability": "view",
      "type": "function"
    },
    {
      "inputs": [],
      "name": "getAcceptedBatchesCount",
      "outputs": [
        {
          "internalType": "uint256",
          "name": "count",
          "type": "uint256"
        }
      ],
      "stateMutability": "view",
      "type": "function"
    },
    {
      "inputs": [],
      "name": "getActiveWorkersCount",
      "outputs": [
        {
          "internalType": "uint256",
          "name": "numWorkers",
          "type": "uint256"
        }
      ],
      "stateMutability": "view",
      "type": "function"
    },
    {
      "inputs": [
        {
          "internalType": "uint256",
          "name": "_DataBatchId",
          "type": "uint256"
        }
      ],
      "name": "getBatchByID",
      "outputs": [
        {
          "components": [
            {
              "internalType": "uint256",
              "name": "start_idx",
              "type": "uint256"
            },
            {
              "internalType": "uint256",
              "name": "counter",
              "type": "uint256"
            },
            {
              "internalType": "uint256",
              "name": "uncommited_workers",
              "type": "uint256"
            },
            {
              "internalType": "uint256",
              "name": "unrevealed_workers",
              "type": "uint256"
            },
            {
              "internalType": "uint256",
              "name": "item_count",
              "type": "uint256"
            },
            {
              "internalType": "bool",
              "name": "complete",
              "type": "bool"
            },
            {
              "internalType": "bool",
              "name": "checked",
              "type": "bool"
            },
            {
              "internalType": "bool",
              "name": "allocated_to_work",
              "type": "bool"
            },
            {
              "internalType": "uint256",
              "name": "commitEndDate",
              "type": "uint256"
            },
            {
              "internalType": "uint256",
              "name": "revealEndDate",
              "type": "uint256"
            },
            {
              "internalType": "uint256",
              "name": "votesFor",
              "type": "uint256"
            },
            {
              "internalType": "uint256",
              "name": "votesAgainst",
              "type": "uint256"
            },
            {
              "internalType": "string",
              "name": "batchIPFSfile",
              "type": "string"
            },
            {
              "internalType": "enum DataFormatting.DataStatus",
              "name": "status",
              "type": "uint8"
            }
          ],
          "internalType": "struct DataFormatting.BatchMetadata",
          "name": "batch",
          "type": "tuple"
        }
      ],
      "stateMutability": "view",
      "type": "function"
    },
    {
      "inputs": [
        {
          "internalType": "uint256",
          "name": "_DataBatchId",
          "type": "uint256"
        }
      ],
      "name": "getBatchIPFSFileByID",
      "outputs": [
        {
          "internalType": "string",
          "name": "batch",
          "type": "string"
        }
      ],
      "stateMutability": "view",
      "type": "function"
    },
    {
      "inputs": [
        {
          "internalType": "address",
          "name": "_voter",
          "type": "address"
        },
        {
          "internalType": "uint256",
          "name": "_DataBatchId",
          "type": "uint256"
        }
      ],
      "name": "getCommitHash",
      "outputs": [
        {
          "internalType": "bytes32",
          "name": "commitHash",
          "type": "bytes32"
        }
      ],
      "stateMutability": "view",
      "type": "function"
    },
    {
      "inputs": [],
      "name": "getCurrentWorkEpoch",
      "outputs": [
        {
          "internalType": "uint256",
          "name": "WorkEpoch",
          "type": "uint256"
        }
      ],
      "stateMutability": "view",
      "type": "function"
    },
    {
      "inputs": [
        {
          "internalType": "uint256",
          "name": "_DataId",
          "type": "uint256"
        }
      ],
      "name": "getDataByID",
      "outputs": [
        {
          "components": [
            {
              "internalType": "string",
              "name": "ipfs_hash",
              "type": "string"
            },
            {
              "internalType": "address",
              "name": "author",
              "type": "address"
            },
            {
              "internalType": "uint256",
              "name": "timestamp",
              "type": "uint256"
            },
            {
              "internalType": "enum DataFormatting.DataStatus",
              "name": "status",
              "type": "uint8"
            }
          ],
          "internalType": "struct DataFormatting.FormattedData",
          "name": "data",
          "type": "tuple"
        }
      ],
      "stateMutability": "view",
      "type": "function"
    },
    {
      "inputs": [
        {
          "internalType": "string",
          "name": "_hash",
          "type": "string"
        },
        {
          "internalType": "uint256",
          "name": "_salt",
          "type": "uint256"
        }
      ],
      "name": "getEncryptedStringHash",
      "outputs": [
        {
          "internalType": "bytes32",
          "name": "keccak256hash",
          "type": "bytes32"
        }
      ],
      "stateMutability": "pure",
      "type": "function"
    },
    {
      "inputs": [
        {
          "internalType": "uint256",
          "name": "_DataBatchId",
          "type": "uint256"
        }
      ],
      "name": "getIPFShashesForBatch",
      "outputs": [
        {
          "internalType": "string[]",
          "name": "",
          "type": "string[]"
        }
      ],
      "stateMutability": "view",
      "type": "function"
    },
    {
      "inputs": [],
      "name": "getLastAllocatedBatchId",
      "outputs": [
        {
          "internalType": "uint256",
          "name": "LastAllocatedBatchId",
          "type": "uint256"
        }
      ],
      "stateMutability": "view",
      "type": "function"
    },
    {
      "inputs": [],
      "name": "getLastBatchId",
      "outputs": [
        {
          "internalType": "uint256",
          "name": "LastBatchId",
          "type": "uint256"
        }
      ],
      "stateMutability": "view",
      "type": "function"
    },
    {
      "inputs": [],
      "name": "getLastCheckedBatchId",
      "outputs": [
        {
          "internalType": "uint256",
          "name": "LastCheckedBatchId",
          "type": "uint256"
        }
      ],
      "stateMutability": "view",
      "type": "function"
    },
    {
      "inputs": [],
      "name": "getLastDataId",
      "outputs": [
        {
          "internalType": "uint256",
          "name": "DataId",
          "type": "uint256"
        }
      ],
      "stateMutability": "view",
      "type": "function"
    },
    {
      "inputs": [
        {
          "internalType": "address",
          "name": "_voter",
          "type": "address"
        }
      ],
      "name": "getLastNode",
      "outputs": [
        {
          "internalType": "uint256",
          "name": "DataID",
          "type": "uint256"
        }
      ],
      "stateMutability": "view",
      "type": "function"
    },
    {
      "inputs": [
        {
          "internalType": "address",
          "name": "_voter",
          "type": "address"
        }
      ],
      "name": "getLockedTokens",
      "outputs": [
        {
          "internalType": "uint256",
          "name": "numTokens",
          "type": "uint256"
        }
      ],
      "stateMutability": "view",
      "type": "function"
    },
    {
      "inputs": [],
      "name": "getMySystemTokenBalance",
      "outputs": [
        {
          "internalType": "uint256",
          "name": "tokens",
          "type": "uint256"
        }
      ],
      "stateMutability": "view",
      "type": "function"
    },
    {
      "inputs": [
        {
          "internalType": "address",
          "name": "_voter",
          "type": "address"
        },
        {
          "internalType": "uint256",
          "name": "_DataBatchId",
          "type": "uint256"
        },
        {
          "internalType": "uint256",
          "name": "_salt",
          "type": "uint256"
        }
      ],
      "name": "getNumPassingTokens",
      "outputs": [
        {
          "internalType": "uint256",
          "name": "correctFormatChecks",
          "type": "uint256"
        }
      ],
      "stateMutability": "view",
      "type": "function"
    },
    {
      "inputs": [
        {
          "internalType": "address",
          "name": "_voter",
          "type": "address"
        },
        {
          "internalType": "uint256",
          "name": "_DataBatchId",
          "type": "uint256"
        }
      ],
      "name": "getNumTokens",
      "outputs": [
        {
          "internalType": "uint256",
          "name": "numTokens",
          "type": "uint256"
        }
      ],
      "stateMutability": "view",
      "type": "function"
    },
    {
      "inputs": [],
      "name": "getRandom",
      "outputs": [
        {
          "internalType": "uint256",
          "name": "",
          "type": "uint256"
        }
      ],
      "stateMutability": "view",
      "type": "function"
    },
    {
      "inputs": [],
      "name": "getRejectedBatchesCount",
      "outputs": [
        {
          "internalType": "uint256",
          "name": "count",
          "type": "uint256"
        }
      ],
      "stateMutability": "view",
      "type": "function"
    },
    {
      "inputs": [],
      "name": "getSeed",
      "outputs": [
        {
          "internalType": "bytes32",
          "name": "addr",
          "type": "bytes32"
        }
      ],
      "stateMutability": "view",
      "type": "function"
    },
    {
      "inputs": [
        {
          "internalType": "address",
          "name": "_user",
          "type": "address"
        }
      ],
      "name": "getSystemTokenBalance",
      "outputs": [
        {
          "internalType": "uint256",
          "name": "tokens",
          "type": "uint256"
        }
      ],
      "stateMutability": "view",
      "type": "function"
    },
    {
      "inputs": [
        {
          "internalType": "uint256",
          "name": "_DataBatchId",
          "type": "uint256"
        }
      ],
      "name": "getTotalNumberOfFormatChecks",
      "outputs": [
        {
          "internalType": "uint256",
          "name": "vc",
          "type": "uint256"
        }
      ],
      "stateMutability": "view",
      "type": "function"
    },
    {
      "inputs": [],
      "name": "getTxCounter",
      "outputs": [
        {
          "internalType": "uint256",
          "name": "Counter",
          "type": "uint256"
        }
      ],
      "stateMutability": "view",
      "type": "function"
    },
    {
      "inputs": [
        {
          "internalType": "uint256",
          "name": "_terminationDate",
          "type": "uint256"
        }
      ],
      "name": "isExpired",
      "outputs": [
        {
          "internalType": "bool",
          "name": "expired",
          "type": "bool"
        }
      ],
      "stateMutability": "view",
      "type": "function"
    },
    {
      "inputs": [
        {
          "internalType": "uint256",
          "name": "_DataBatchId",
          "type": "uint256"
        }
      ],
      "name": "isPassed",
      "outputs": [
        {
          "internalType": "bool",
          "name": "passed",
          "type": "bool"
        }
      ],
      "stateMutability": "view",
      "type": "function"
    },
    {
      "inputs": [
        {
          "internalType": "uint256",
          "name": "_DataBatchId",
          "type": "uint256"
        },
        {
          "internalType": "address",
          "name": "_worker",
          "type": "address"
        }
      ],
      "name": "isWorkerAllocatedToBatch",
      "outputs": [
        {
          "internalType": "bool",
          "name": "",
          "type": "bool"
        }
      ],
      "stateMutability": "view",
      "type": "function"
    },
    {
      "inputs": [
        {
          "internalType": "address",
          "name": "_worker",
          "type": "address"
        }
      ],
      "name": "isWorkerRegistered",
      "outputs": [
        {
          "internalType": "bool",
          "name": "passed",
          "type": "bool"
        }
      ],
      "stateMutability": "view",
      "type": "function"
    },
    {
      "inputs": [],
      "name": "owner",
      "outputs": [
        {
          "internalType": "address",
          "name": "",
          "type": "address"
        }
      ],
      "stateMutability": "view",
      "type": "function"
    },
    {
      "inputs": [
        {
          "internalType": "uint256",
          "name": "k",
          "type": "uint256"
        },
        {
          "internalType": "uint256",
          "name": "N",
          "type": "uint256"
        }
      ],
      "name": "random_selection",
      "outputs": [
        {
          "internalType": "uint256[]",
          "name": "",
          "type": "uint256[]"
        }
      ],
      "stateMutability": "view",
      "type": "function"
    },
    {
      "inputs": [],
      "name": "renounceOwnership",
      "outputs": [],
      "stateMutability": "nonpayable",
      "type": "function"
    },
    {
      "inputs": [
        {
          "internalType": "uint256",
          "name": "_DataBatchId",
          "type": "uint256"
        }
      ],
      "name": "rescueTokens",
      "outputs": [],
      "stateMutability": "nonpayable",
      "type": "function"
    },
    {
      "inputs": [
        {
          "internalType": "uint256[]",
          "name": "_DataBatchIDs",
          "type": "uint256[]"
        }
      ],
      "name": "rescueTokensInMultipleDatas",
      "outputs": [],
      "stateMutability": "nonpayable",
      "type": "function"
    },
    {
      "inputs": [
        {
          "internalType": "uint256",
          "name": "_DataBatchId",
          "type": "uint256"
        },
        {
          "internalType": "uint256",
          "name": "_voteOption",
          "type": "uint256"
        },
        {
          "internalType": "string",
          "name": "_clearIPFSHash",
          "type": "string"
        },
        {
          "internalType": "uint256",
          "name": "_salt",
          "type": "uint256"
        }
      ],
      "name": "revealFormatCheck",
      "outputs": [],
      "stateMutability": "nonpayable",
      "type": "function"
    },
    {
      "inputs": [
        {
          "internalType": "uint256",
          "name": "_DataBatchId",
          "type": "uint256"
        }
      ],
      "name": "revealPeriodActive",
      "outputs": [
        {
          "internalType": "bool",
          "name": "active",
          "type": "bool"
        }
      ],
      "stateMutability": "view",
      "type": "function"
    },
    {
      "inputs": [],
      "name": "sFuel",
      "outputs": [
        {
          "internalType": "address",
          "name": "",
          "type": "address"
        }
      ],
      "stateMutability": "view",
      "type": "function"
    },
    {
      "inputs": [
        {
          "internalType": "uint256",
          "name": "N",
          "type": "uint256"
        }
      ],
      "name": "shuffle_array",
      "outputs": [
        {
          "internalType": "uint256[]",
          "name": "",
          "type": "uint256[]"
        }
      ],
      "stateMutability": "view",
      "type": "function"
    },
    {
      "inputs": [
        {
          "internalType": "uint256",
          "name": "",
          "type": "uint256"
        }
      ],
      "name": "toUnregisterWorkers",
      "outputs": [
        {
          "internalType": "address",
          "name": "",
          "type": "address"
        }
      ],
      "stateMutability": "view",
      "type": "function"
    },
    {
      "inputs": [],
      "name": "token",
      "outputs": [
        {
          "internalType": "contract IERC20",
          "name": "",
          "type": "address"
        }
      ],
      "stateMutability": "view",
      "type": "function"
    },
    {
      "inputs": [
        {
          "internalType": "address",
          "name": "newOwner",
          "type": "address"
        }
      ],
      "name": "transferOwnership",
      "outputs": [],
      "stateMutability": "nonpayable",
      "type": "function"
    },
    {
      "inputs": [
        {
          "internalType": "address",
          "name": "addr",
          "type": "address"
        }
      ],
      "name": "updateAddressManager",
      "outputs": [],
      "stateMutability": "nonpayable",
      "type": "function"
    },
    {
      "inputs": [
        {
          "internalType": "address",
          "name": "addr",
          "type": "address"
        }
      ],
      "name": "updateArchiveManager",
      "outputs": [],
      "stateMutability": "nonpayable",
      "type": "function"
    },
    {
      "inputs": [
        {
          "internalType": "uint256",
          "name": "COMMIT_ROUND_DURATION_",
          "type": "uint256"
        }
      ],
      "name": "updateCommitRoundDuration",
      "outputs": [],
      "stateMutability": "nonpayable",
      "type": "function"
    },
    {
      "inputs": [
        {
          "internalType": "uint256",
          "name": "size",
          "type": "uint256"
        }
      ],
      "name": "updateDataBachSize",
      "outputs": [],
      "stateMutability": "nonpayable",
      "type": "function"
    },
    {
      "inputs": [
        {
          "internalType": "uint256",
          "name": "CONSENSUS_WORKER_SIZE_",
          "type": "uint256"
        }
      ],
      "name": "updateMaxConsensusSize",
      "outputs": [],
      "stateMutability": "nonpayable",
      "type": "function"
    },
    {
      "inputs": [
        {
          "internalType": "uint256",
          "name": "MAX_SUCCEEDING_NOVOTES_",
          "type": "uint256"
        }
      ],
      "name": "updateMaxSucceedingNoVotes",
      "outputs": [],
      "stateMutability": "nonpayable",
      "type": "function"
    },
    {
      "inputs": [
        {
          "internalType": "uint256",
          "name": "CONSENSUS_WORKER_SIZE_",
          "type": "uint256"
        }
      ],
      "name": "updateMinConsensusSize",
      "outputs": [],
      "stateMutability": "nonpayable",
      "type": "function"
    },
    {
      "inputs": [
        {
          "internalType": "uint256",
          "name": "NOVOTE_REGISTRATION_WAIT_DURATION_",
          "type": "uint256"
        }
      ],
      "name": "updateNoVoteRegistrationDuration",
      "outputs": [],
      "stateMutability": "nonpayable",
      "type": "function"
    },
    {
      "inputs": [
        {
          "internalType": "address",
          "name": "addr",
          "type": "address"
        }
      ],
      "name": "updateRepManager",
      "outputs": [],
      "stateMutability": "nonpayable",
      "type": "function"
    },
    {
      "inputs": [
        {
          "internalType": "uint256",
          "name": "REVEAL_ROUND_DURATION_",
          "type": "uint256"
        }
      ],
      "name": "updateRevealRoundDuration",
      "outputs": [],
      "stateMutability": "nonpayable",
      "type": "function"
    },
    {
      "inputs": [
        {
          "internalType": "address",
          "name": "addr",
          "type": "address"
        }
      ],
      "name": "updateRewardManager",
      "outputs": [],
      "stateMutability": "nonpayable",
      "type": "function"
    },
    {
      "inputs": [
        {
          "internalType": "address",
          "name": "addr",
          "type": "address"
        }
      ],
      "name": "updateSpotManager",
      "outputs": [],
      "stateMutability": "nonpayable",
      "type": "function"
    },
    {
      "inputs": [
        {
          "internalType": "address",
          "name": "addr",
          "type": "address"
        }
      ],
      "name": "updateStakeManager",
      "outputs": [],
      "stateMutability": "nonpayable",
      "type": "function"
    },
    {
      "inputs": [
        {
          "internalType": "uint256",
          "name": "VOTE_QUORUM_",
          "type": "uint256"
        }
      ],
      "name": "updateVoteQuoum",
      "outputs": [],
      "stateMutability": "nonpayable",
      "type": "function"
    },
    {
      "inputs": [
        {
          "internalType": "address",
          "name": "_sFuel",
          "type": "address"
        }
      ],
      "name": "updatesFuelFaucet",
      "outputs": [],
      "stateMutability": "nonpayable",
      "type": "function"
    },
    {
      "inputs": [
        {
          "internalType": "uint256",
          "name": "_prevID",
          "type": "uint256"
        },
        {
          "internalType": "uint256",
          "name": "_nextID",
          "type": "uint256"
        },
        {
          "internalType": "address",
          "name": "_voter",
          "type": "address"
        },
        {
          "internalType": "uint256",
          "name": "_numTokens",
          "type": "uint256"
        }
      ],
      "name": "validPosition",
      "outputs": [
        {
          "internalType": "bool",
          "name": "APPROVED",
          "type": "bool"
        }
      ],
      "stateMutability": "view",
      "type": "function"
    },
    {
      "inputs": [
        {
          "internalType": "uint256",
          "name": "_numTokens",
          "type": "uint256"
        }
      ],
      "name": "withdrawVotingRights",
      "outputs": [],
      "stateMutability": "nonpayable",
      "type": "function"
    }
  ],
  "bytecode": "0x608060405260018055600280556001600355670de0b6b3a7640000600755670de0b6b3a7640000600855680410d586a20a4c00006009556032600a556003600b55610e10600c55600060165560006017557314f52f3fc010ab6ca81568d4a6794d5eab3c6155602060006101000a8154816001600160a01b0302191690836001600160a01b0316021790555060016021556001602255600160235560006025556000602655600060275560006028556000602955348015620000c057600080fd5b5060405162007bd038038062007bd0833981016040819052620000e3916200018e565b620000f7620000f16200013a565b6200013e565b602a80546001600160a01b0319166001600160a01b0392909216919091179055600060175568015af1d78b58c400006004556101c26005556078600655620001be565b3390565b600080546001600160a01b038381166001600160a01b0319831681178455604051919092169283917f8be0079c531659141344cd1fd0a4f28419497f9722a3daafe3b4186f6b6457e09190a35050565b600060208284031215620001a0578081fd5b81516001600160a01b0381168114620001b7578182fd5b9392505050565b617a0280620001ce6000396000f3fe608060405234801561001057600080fd5b50600436106107595760003560e01c80639acb75c1116103c9578063d6b0206c116101ff578063e798a7da11610125578063f4cdfcc4116100b8578063f80a23fd11610087578063f80a23fd14610eec578063f96305f014610ef4578063fc0c546a14610efc578063fca4956314610f0457610759565b8063f4cdfcc414610eb6578063f5ae7c7d14610ec9578063f716596d14610ed1578063f721de4a14610ed957610759565b8063ed8becfa116100f4578063ed8becfa14610e73578063ef4fcdad14610e93578063f2d9e74d14610e9b578063f2fde38b14610ea357610759565b8063e798a7da14610e32578063e7b1d43c14610e45578063e8e9b6f914610e58578063eb1322ff14610e6b57610759565b8063db687c171161019d578063e1f7a4301161016c578063e1f7a43014610dfc578063e44c974b14610e04578063e604c12714610e17578063e7805f9e14610e2a57610759565b8063db687c1714610dbb578063dd15f09514610dce578063dd61868214610dd6578063df05368e14610de957610759565b8063d8b75674116101d9578063d8b7567414610d62578063d901402b14610d75578063d9548e5314610d88578063d9845fb814610d9b57610759565b8063d6b0206c14610d3f578063d822ce0114610d47578063d8645d3714610d5a57610759565b8063b1a2e0be116102ef578063c9b03a7211610282578063d138209211610251578063d138209214610cfe578063d186981d14610d11578063d420ec0b14610d24578063d4efd2ba14610d3757610759565b8063c9b03a7214610cd3578063cb1c2b5c14610cdb578063ced5ca6f14610ce3578063d0eed96714610cf657610759565b8063b8f011b3116102be578063b8f011b314610c92578063c47c4bc214610ca5578063c4e4f82a14610cb8578063c7761fab14610ccb57610759565b8063b1a2e0be14610c39578063b1d7ea9814610c4c578063b43bd06914610c6c578063b7e4eba914610c7f57610759565b8063a4439dc511610367578063aacc5a1711610336578063aacc5a1714610c03578063ab43e78d14610c0b578063b0ebc1d814610c13578063b10aa58414610c2657610759565b8063a4439dc514610bc2578063a511dba014610bd5578063a905779014610bdd578063aa7ca46414610bf057610759565b8063a1103f37116103a3578063a1103f3714610b8c578063a1b6b5b714610b9f578063a30312b114610ba7578063a350715a14610bba57610759565b80639acb75c114610b5e5780639fc9c52f14610b66578063a0e71c1514610b7957610759565b8063515535e81161059e57806376e8ea4f116104c457806383cc6ef2116104575780638da5cb5b116104265780638da5cb5b14610b285780638df0296e14610b305780639760356014610b435780639769d84614610b5657610759565b806383cc6ef214610adc5780638473850b14610ae457806388d072eb14610aec5780638c89d02714610aff57610759565b80637f97e836116104935780637f97e83614610a765780637fabe35b14610a89578063819b029314610ab6578063821aa8c014610ac957610759565b806376e8ea4f14610a565780637827e54914610a5e5780637a34da6714610a665780637f9510a214610a6e57610759565b8063667bf0f81161053c5780637074222b1161050b5780637074222b14610a20578063715018a614610a3357806371880b1b14610a3b578063726bc8af14610a4e57610759565b8063667bf0f8146109cf5780636a192ff5146109d75780636b1485a3146109fa5780636b2d95d414610a0d57610759565b80635a452943116105785780635a452943146109815780635b113a55146109a15780635fd87909146109b45780636371d81f146109bc57610759565b8063515535e81461095e57806351912f2914610966578063580021581461096e57610759565b806339e7357c1161068357806346a7aea61161062157806349403183116105f057806349403183146109125780634d4b7d9b146109255780634d884281146109385780634fe8b4c11461094b57610759565b806346a7aea6146108dc57806347fe2d20146108ef57806348257dc9146108f75780634852e2f01461090a57610759565b806340fbaae41161065d57806340fbaae414610890578063427fa1d2146108a3578063441c77c0146108b657806344639f7c146108c957610759565b806339e7357c146108625780633dda02b11461086a5780633f89cf661461087d57610759565b8063275c2590116106fb578063313066ee116106ca578063313066ee1461082c5780633538af8214610834578063353f44d014610847578063354dae401461085a57610759565b8063275c2590146107dc57806329a47bc7146107e45780632d917c68146107f95780632f469fd11461080c57610759565b80630e670feb116107375780630e670feb14610799578063154fd39b146107a1578063226ed300146107a957806325a89a9c146107c957610759565b806304dbcda71461075e578063050eb2eb1461077c5780630e6661a714610791575b600080fd5b610766610f17565b60405161077391906167bd565b60405180910390f35b61078f61078a36600461627c565b610f1d565b005b610766610f87565b610766610f8d565b610766610f93565b6107bc6107b736600461658e565b610f99565b60405161077391906168fc565b61078f6107d73660046165e6565b610fe3565b61078f6115a4565b6107ec6116c8565b60405161077391906167f0565b6107bc6108073660046162b4565b6116d7565b61081f61081a3660046165b7565b6116f7565b6040516107739190616907565b61076661179c565b6107ec61084236600461658e565b6117a2565b61076661085536600461627c565b6117cc565b61078f6117de565b61076661191c565b61078f61087836600461658e565b611939565b61078f61088b36600461658e565b61197d565b61078f61089e36600461669c565b6119ce565b6107666108b136600461627c565b611d32565b6107bc6108c436600461658e565b611dd2565b61078f6108d736600461658e565b611e2c565b61078f6108ea36600461627c565b611e7e565b610766611edf565b61078f61090536600461658e565b611ee5565b610766612223565b6107bc61092036600461658e565b612229565b6107bc61093336600461658e565b6123f3565b61078f61094636600461627c565b612408565b61078f61095936600461658e565b612469565b6107666124e9565b6107ec6124ef565b61078f61097c36600461658e565b6124fe565b61099461098f36600461658e565b612542565b60405161077391906176ee565b6107666109af3660046165b7565b612665565b610766612682565b61078f6109ca36600461658e565b612688565b61078f61273b565b6109ea6109e536600461658e565b612b46565b6040516107739493929190616944565b61078f610a0836600461658e565b612c05565b610766610a1b36600461627c565b613883565b610766610a2e36600461627c565b613892565b61078f6138ad565b610766610a4936600461658e565b6138f8565b610766613935565b61076661393b565b610766613941565b6107ec613947565b610766613956565b6107bc610a843660046162b4565b61396d565b610a9c610a9736600461658e565b6139c3565b6040516107739e9d9c9b9a9998979695949392919061778d565b6107bc610ac436600461665e565b613ac2565b6107ec610ad736600461658e565b613b03565b6107ec613b13565b610766613b22565b61081f610afa3660046165b7565b613b28565b610b12610b0d36600461627c565b613b4c565b6040516107739a99989796959493929190616804565b6107ec613baf565b6107ec610b3e36600461663d565b613bbe565b61078f610b5136600461658e565b613bf6565b610766613da5565b610766613dab565b61078f610b74366004616313565b613db1565b610766610b8736600461658e565b613e03565b610766610b9a3660046162b4565b613e2e565b610766613e61565b61078f610bb536600461658e565b613e67565b610766613eb8565b6107bc610bd036600461658e565b613ebe565b610766613f20565b6107bc610beb3660046163d3565b613f26565b6107bc610bfe3660046162b4565b613f8c565b610766613fdf565b6107ec614094565b61078f610c2136600461658e565b6140a3565b6107ec610c3436600461658e565b6140f5565b6107bc610c4736600461627c565b614105565b610c5f610c5a36600461663d565b6141d2565b60405161077391906168b8565b610766610c7a3660046162df565b6143d9565b61078f610c8d36600461658e565b6144c5565b610c5f610ca036600461663d565b614509565b61078f610cb336600461627c565b614671565b610766610cc636600461658e565b6146d2565b61076661470f565b610766614715565b61076661471b565b61078f610cf136600461658e565b614721565b610766614791565b610766610d0c3660046162b4565b614797565b6107bc610d1f3660046165b7565b61482c565b6107bc610d323660046162b4565b614907565b610766614927565b61076661492d565b6107ec610d553660046162b4565b614933565b6107ec61494f565b610766610d703660046165b7565b61495e565b610766610d833660046162b4565b61497b565b6107bc610d9636600461658e565b6149c0565b610dae610da936600461658e565b6149c5565b6040516107739190617574565b61078f610dc936600461627c565b614b4a565b6107ec614bab565b61078f610de436600461627c565b614bba565b61078f610df736600461627c565b614c1b565b610766614c7c565b610c5f610e1236600461658e565b614c8f565b61081f610e2536600461658e565b614d08565b610766614dbd565b6107bc610e4036600461627c565b614dc3565b61078f610e5336600461658e565b614de4565b61078f610e6636600461658e565b614f2c565b610766614f70565b610e86610e8136600461658e565b614f76565b6040516107739190616858565b610766615293565b610766615299565b61078f610eb136600461627c565b61529f565b610766610ec4366004616433565b61530d565b610766615322565b61078f615328565b6107bc610ee736600461658e565b615613565b6107bc61561b565b610766615634565b6107ec61563a565b610766610f1236600461627c565b615649565b60075481565b610f256156f1565b6001600160a01b0316610f36613baf565b6001600160a01b031614610f655760405162461bcd60e51b8152600401610f5c90617018565b60405180910390fd5b602d80546001600160a01b0319166001600160a01b0392909216919091179055565b60175481565b60085481565b60235490565b6000610fa482615613565b610fc05760405162461bcd60e51b8152600401610f5c906174ff565b600082815260246020526040902060070154610fdb906149c0565b90505b919050565b610feb6156f5565b610ff484613ebe565b6110105760405162461bcd60e51b8152600401610f5c90616bf7565b336000908152600d6020908152604080832087845290915290205460ff161561104b5760405162461bcd60e51b8152600401610f5c906172d8565b611055843361482c565b6110715760405162461bcd60e51b8152600401610f5c90616c2e565b60048054602e5460405163792f4f6960e11b815291926000926001600160a01b039092169163f25e9ed2916110a8913391016167f0565b60206040518083038186803b1580156110c057600080fd5b505afa1580156110d4573d6000803e3d6000fd5b505050506040513d601f19601f820116820180604052508101906110f89190616298565b336000908152601a60205260409020549091508211156111a1576001600160a01b03811615611178576001600160a01b0381166000908152601a6020526040902054821115611173576001600160a01b0381166000908152601a602052604081205461116590849061587d565b90506111718183615889565b505b6111a1565b336000908152601a602052604081205461119390849061587d565b905061119f8133615889565b505b336000908152601a60205260409020548211156111d05760405162461bcd60e51b8152600401610f5c90617363565b6000336000908152601460205260408082209051631b23afef60e21b815273__$6ffa5bf1f4fa681f07e1987a80577d5f4e$__91636c8ebfbc91611219919086906004016167e2565b60206040518083038186803b15801561123157600080fd5b505af4158015611245573d6000803e3d6000fd5b505050506040513d601f19601f8201168201806040525081019061126991906165a6565b90508781141561130e5733600090815260146020526040908190209051631b23afef60e21b815273__$6ffa5bf1f4fa681f07e1987a80577d5f4e$__91636c8ebfbc916112bb91908c906004016167e2565b60206040518083038186803b1580156112d357600080fd5b505af41580156112e7573d6000803e3d6000fd5b505050506040513d601f19601f8201168201806040525081019061130b91906165a6565b90505b61131a82823387613ac2565b6113365760405162461bcd60e51b8152600401610f5c90616ee4565b3360009081526014602052604090819020905163f3a1998360e01b815273__$6ffa5bf1f4fa681f07e1987a80577d5f4e$__9163f3a1998391611382919086908d9087906004016176d3565b60006040518083038186803b15801561139a57600080fd5b505af41580156113ae573d6000803e3d6000fd5b5050505060006113be338a613e2e565b604051633416d70d60e21b815290915073__$d865f21674766f31b0d600e4a95b721b57$__9063d05b5c34906113fd9060159085908a906004016176b5565b60006040518083038186803b15801561141557600080fd5b505af4158015611429573d6000803e3d6000fd5b5050604051633416d70d60e21b815273__$d865f21674766f31b0d600e4a95b721b57$__925063d05b5c3491506114699060159085908d90600401617669565b60006040518083038186803b15801561148157600080fd5b505af4158015611495573d6000803e3d6000fd5b50505060008a8152601160209081526040808320338085529083528184208c90558d845260128352818420908452825290912088516114d993509091890190615ffd565b503360009081526018602090815260408083208c845260249092529091206002015461150690600161587d565b60008b815260246020908152604080832060020193909355426004850155338252600d81528282208d83529052908120805460ff191660019081179091556025805491929091611557908490617879565b909155505060405133908b907f1b5c5140592c554fa4c0cdb5b3d3cd50f87aa84e477afd0b6c93d7702ef9c73c90611590908a906167bd565b60405180910390a350505050505050505050565b6115ac6156f5565b336000908152601860205260409020600581015460ff1615156001146115e45760405162461bcd60e51b8152600401610f5c90616fcc565b60018101541580159061160157506005810154610100900460ff16155b1561161c5760058101805461ff0019166101001790556116ad565b60018101541561163e5760405162461bcd60e51b8152600401610f5c90616f12565b61164733615991565b61165033615ae9565b80546001600160a01b031916339081178255426004830181905560058301805460ff191690556040517f9dadcedba048e92b943ea1c5861cee1df63a566d7f795869c004780c1c698e2b916116a4916167bd565b60405180910390a25b6001602560008282546116c09190617879565b909155505050565b602c546001600160a01b031681565b600d60209081526000928352604080842090915290825290205460ff1681565b60106020908152600092835260408084209091529082529020805461171b9061790b565b80601f01602080910402602001604051908101604052809291908181526020018280546117479061790b565b80156117945780601f1061176957610100808354040283529160200191611794565b820191906000526020600020905b81548152906001019060200180831161177757829003601f168201915b505050505081565b60165481565b601c81815481106117b257600080fd5b6000918252602090912001546001600160a01b0316905081565b601a6020526000908152604090205481565b6117e66156f5565b601e54600090156117f9576117f9615c19565b60225460009081526024602052604090206005015462010000900460ff161515600114801561184b575061182e602254610f99565b8061184b5750602254600090815260246020526040902060030154155b156118705761185b602254612c05565b602254611869906001615cb1565b6022555060015b60235460009081526024602052604090206005015462010000900460ff1615156001148015906118a45750600354601c5410155b80156118c4575060235460009081526024602052604090206005015460ff165b156118d5576118d161273b565b5060015b80156118ed576016546118e9906001615cb1565b6016555b6016546040517f94d48a7342690f1233e3f4db70efa37c4f1f25f4d0397c353f3f15aecdeca5f490600090a250565b60405160009080602081848060185afa61193257fe5b5051919050565b6119416156f1565b6001600160a01b0316611952613baf565b6001600160a01b0316146119785760405162461bcd60e51b8152600401610f5c90617018565b600255565b6119856156f1565b6001600160a01b0316611996613baf565b6001600160a01b0316146119bc5760405162461bcd60e51b8152600401610f5c90617018565b600081116119c957600080fd5b600c55565b6119d66156f5565b6119df84611dd2565b6119fb5760405162461bcd60e51b8152600401610f5c906171a6565b336000908152600d6020908152604080832087845290915290205460ff16611a355760405162461bcd60e51b8152600401610f5c90616d37565b336000908152600e6020908152604080832087845290915290205460ff1615611a705760405162461bcd60e51b8152600401610f5c90617528565b611a7a338561497b565b611a84838361530d565b14611aa15760405162461bcd60e51b8152600401610f5c906170aa565b6000611aad3386614797565b90508360011415611ae45760008581526024602052604081206008018054839290611ad9908490617879565b90915550611b0b9050565b60008581526024602052604081206009018054839290611b05908490617879565b90915550505b33600090815260146020526040908190209051634dab476560e01b815273__$6ffa5bf1f4fa681f07e1987a80577d5f4e$__91634dab476591611b53919089906004016167e2565b60006040518083038186803b158015611b6b57600080fd5b505af4158015611b7f573d6000803e3d6000fd5b5050336000818152600e602090815260408083208b84528252808320805460ff19166001179055600f825280832084845282528083208a90558a8352601082528083209383529281529190208651611bde945090925090860190615ffd565b50336000908152601860209081526040808320888452602490925290912060030154611c0b90600161587d565b60008781526024602052604090206003015560028101805460ff19166001179055426004820155611c3b33615ae9565b600581015460ff1615611c9857611c5133615cbd565b611c9857601c80546001810182556000919091527f0e4562a10381dec21b205ed72637e6b1b523bdd0e4d4d50af5cd23dd4500a2110180546001600160a01b031916331790555b600086815260246020526040902060030154611cb757611cb786612c05565b600160256000828254611cca9190617879565b90915550506000868152602460205260409081902060088101546009909101549151339288928a927f2e5fbeef18eaa8d8ea3b0122bc64445c4daaa6f454dfb889456791a92287f37892611d22928992909190617777565b60405180910390a4505050505050565b6001600160a01b038116600090815260146020526040808220905163215e94cf60e01b815273__$6ffa5bf1f4fa681f07e1987a80577d5f4e$__9163215e94cf91611d82919085906004016167e2565b60206040518083038186803b158015611d9a57600080fd5b505af4158015611dae573d6000803e3d6000fd5b505050506040513d601f19601f82011682018060405250810190610fdb91906165a6565b6000611ddd82615613565b611df95760405162461bcd60e51b8152600401610f5c90617233565b600082815260246020526040902060070154611e14906149c0565b158015610fdb5750611e2582613ebe565b1592915050565b611e346156f1565b6001600160a01b0316611e45613baf565b6001600160a01b031614611e6b5760405162461bcd60e51b8152600401610f5c90617018565b6001811015611e7957600080fd5b600355565b611e866156f1565b6001600160a01b0316611e97613baf565b6001600160a01b031614611ebd5760405162461bcd60e51b8152600401610f5c90617018565b603080546001600160a01b0319166001600160a01b0392909216919091179055565b60225490565b602f546001600160a01b031615801590611f0e575060008181526013602052604090205460ff16155b156116ad57602f54604051637b90ef2560e11b81526001600160a01b039091169063f721de4a90611f439084906004016167bd565b602060405180830381600087803b158015611f5d57600080fd5b505af1158015611f71573d6000803e3d6000fd5b505050506040513d601f19601f82011682018060405250810190611f9591906163b9565b156116ad57602f54604051631b308bf760e31b81526000916001600160a01b03169063d9845fb890611fcb9085906004016167bd565b600060405180830381600087803b158015611fe557600080fd5b505af1158015611ff9573d6000803e3d6000fd5b505050506040513d6000823e601f3d908101601f191682016040526120219190810190616475565b6101a0810151909150600181600381111561204c57634e487b7160e01b600052602160045260246000fd5b14156121f55760408051608081018252610160840151815233602080830191909152428284015260006060830181905260175481526019825292909220815180519293919261209e9284920190615ffd565b506020820151600182810180546001600160a01b0319166001600160a01b0390931692909217909155604083015160028301556060830151600380840180549293909260ff191691849081111561210557634e487b7160e01b600052602160045260246000fd5b0217905550506021546000908152602460205260409020600180549082015491925011156121485760018160010160008282546121429190617879565b90915550505b60015481600101541061219a57600581018054600160ff19909116811761ff0019169091556021805460009061217f908490617879565b90915550506017546021546000908152602460205260409020555b6121a26117de565b6017546121b0906001617879565b60178190556101608401516040517fe72ee44ad0ed1dfc338f7eec797c944eb218773c1edbb4bb653dd9c1e2a62304916121eb91339061691a565b60405180910390a2505b50506000818152601360205260409020805460ff191660011790556001602560008282546116c09190617879565b60285481565b600081815260246020908152604080832081516101c081018352815481526001820154938101939093526002810154918301919091526003810154606083015260048101546080830152600581015460ff808216151560a08501526101008083048216151560c08601526201000090920416151560e0840152600682015490830152600781015461012083015260088101546101408301526009810154610160830152600a81018054849392916101808401916122e59061790b565b80601f01602080910402602001604051908101604052809291908181526020018280546123119061790b565b801561235e5780601f106123335761010080835404028352916020019161235e565b820191906000526020600020905b81548152906001019060200180831161234157829003601f168201915b5050509183525050600b82015460209091019060ff16600381111561239357634e487b7160e01b600052602160045260246000fd5b60038111156123b257634e487b7160e01b600052602160045260246000fd5b9052506101608101516101408201519192506123cd91617879565b600a546123da91906178a5565b6101408201516123eb9060646178a5565b119392505050565b60136020526000908152604090205460ff1681565b6124106156f1565b6001600160a01b0316612421613baf565b6001600160a01b0316146124475760405162461bcd60e51b8152600401610f5c90617018565b602080546001600160a01b0319166001600160a01b0392909216919091179055565b6124716156f1565b6001600160a01b0316612482613baf565b6001600160a01b0316146124a85760405162461bcd60e51b8152600401610f5c90617018565b6000818152601960205260408120906124c18282616081565b506001810180546001600160a01b031916905560006002820155600301805460ff1916905550565b60215490565b602d546001600160a01b031681565b6125066156f1565b6001600160a01b0316612517613baf565b6001600160a01b03161461253d5760405162461bcd60e51b8152600401610f5c90617018565b600655565b61254a6160bd565b600082815260196020526040908190208151608081019092528054829082906125729061790b565b80601f016020809104026020016040519081016040528092919081815260200182805461259e9061790b565b80156125eb5780601f106125c0576101008083540402835291602001916125eb565b820191906000526020600020905b8154815290600101906020018083116125ce57829003601f168201915b505050918352505060018201546001600160a01b031660208201526002820154604082015260038083015460609092019160ff169081111561263d57634e487b7160e01b600052602160045260246000fd5b600381111561265c57634e487b7160e01b600052602160045260246000fd5b90525092915050565b601160209081526000928352604080842090915290825290205481565b60065481565b6126906156f1565b6001600160a01b03166126a1613baf565b6001600160a01b0316146126c75760405162461bcd60e51b8152600401610f5c90617018565b60008181526024602052604081208181556001810182905560028101829055600381018290556004810182905560058101805462ffffff19169055600681018290556007810182905560088101829055600981018290559061272c600a830182616081565b50600b01805460ff1916905550565b60235460009081526024602052604090206005015460ff1661276f5760405162461bcd60e51b8152600401610f5c90617150565b60235460009081526024602052604090206005015462010000900460ff16156127aa5760405162461bcd60e51b8152600401610f5c90616f6f565b60006127c86127c0601c80549050600254615d2d565b600354615d43565b601c5460238054600090815260246020526040808220600301859055915481529081206002018390556005549293509091612804904290615cb1565b9050600061281d60065483615cb190919063ffffffff16565b60238054600090815260246020526040808220600601869055825482528082206007018490559154815220600501805462ff000019166201000017905590506001841080159061286e575060018310155b61288a5760405162461bcd60e51b8152600401610f5c90616bad565b60006128968585614509565b9050600081516001600160401b038111156128c157634e487b7160e01b600052604160045260246000fd5b6040519080825280602002602001820160405280156128ea578160200160208202803683370190505b50905060005b82518110156129a957601c83828151811061291b57634e487b7160e01b600052603260045260246000fd5b60200260200101518154811061294157634e487b7160e01b600052603260045260246000fd5b9060005260206000200160009054906101000a90046001600160a01b031682828151811061297f57634e487b7160e01b600052603260045260246000fd5b6001600160a01b0390921660209283029190910190910152806129a181617946565b9150506128f0565b5060005b8251811015612b115760008282815181106129d857634e487b7160e01b600052603260045260246000fd5b60200260200101519050600060186000836001600160a01b03166001600160a01b031681526020019081526020016000209050612a1482615991565b612a1d82615d53565b612a6d57601d80546001810182556000919091527f6d4407e7be21f808e6509aa9fa9143369579dd7d760fe20a2c09680fc146134f0180546001600160a01b0319166001600160a01b0384161790555b602380546000908152601f602090815260408083208054600180820183559185529290932090910180546001600160a01b0319166001600160a01b03871617905582549184019190915560028301805460ff19169055905490517fe4ee2dfabe57cee15e3f558890b20455f54c1fa0718e5276faad70a6500e6b8c90612af49085906167f0565b60405180910390a250508080612b0990617946565b9150506129ad565b50602354612b20906001615cb1565b602381905550600160256000828254612b399190617879565b9091555050505050505050565b601960205260009081526040902080548190612b619061790b565b80601f0160208091040260200160405190810160405280929190818152602001828054612b8d9061790b565b8015612bda5780601f10612baf57610100808354040283529160200191612bda565b820191906000526020600020905b815481529060010190602001808311612bbd57829003601f168201915b505050506001830154600284015460039094015492936001600160a01b039091169290915060ff1684565b612c0e81610f99565b80612c285750600081815260246020526040902060030154155b612c445760405162461bcd60e51b8152600401610f5c9061704d565b600081815260246020526040902060050154610100900460ff1615612c7b5760405162461bcd60e51b8152600401610f5c90617297565b6000818152601f6020908152604080832080548251818502810185019093528083529192909190830182828015612cdb57602002820191906000526020600020905b81546001600160a01b03168152600190910190602001808311612cbd575b50505050509050600081516001600160401b03811115612d0b57634e487b7160e01b600052604160045260246000fd5b604051908082528060200260200182016040528015612d3e57816020015b6060815260200190600190039081612d295790505b509050600082516001600160401b03811115612d6a57634e487b7160e01b600052604160045260246000fd5b604051908082528060200260200182016040528015612d93578160200160208202803683370190505b50905060005b8351811015612f16576000848281518110612dc457634e487b7160e01b600052603260045260246000fd5b60209081029190910181015160008881526010835260408082206001600160a01b0384168352909352918220805491935090612dff9061790b565b80601f0160208091040260200160405190810160405280929190818152602001828054612e2b9061790b565b8015612e785780601f10612e4d57610100808354040283529160200191612e78565b820191906000526020600020905b815481529060010190602001808311612e5b57829003601f168201915b50505060008a81526011602090815260408083206001600160a01b038916845290915290205488519394509284925088915086908110612ec857634e487b7160e01b600052603260045260246000fd5b602002602001018190525080858581518110612ef457634e487b7160e01b600052603260045260246000fd5b6020026020010181815250505050508080612f0e90617946565b915050612d99565b506000612f3e6064600a548651612f2d91906178a5565b612f379190617891565b6001615d43565b9050600083600081518110612f6357634e487b7160e01b600052603260045260246000fd5b6020026020010151905060005b8451811015613059576000805b865181101561300e57612fde878481518110612fa957634e487b7160e01b600052603260045260246000fd5b6020026020010151888381518110612fd157634e487b7160e01b600052603260045260246000fd5b6020026020010151613f26565b15612ffc57612fee600183617879565b9150848210612ffc5761300e565b8061300681617946565b915050612f7d565b508381106130465785828151811061303657634e487b7160e01b600052603260045260246000fd5b6020026020010151925050613059565b508061305181617946565b915050612f70565b5060008360008151811061307d57634e487b7160e01b600052603260045260246000fd5b6020026020010151905060005b845181101561316c576000805b8651811015613121578681815181106130c057634e487b7160e01b600052603260045260246000fd5b60200260200101518784815181106130e857634e487b7160e01b600052603260045260246000fd5b6020026020010151141561310f57613101600183617879565b915085821061310f57613121565b8061311981617946565b915050613097565b508481106131595785828151811061314957634e487b7160e01b600052603260045260246000fd5b602002602001015192505061316c565b508061316481617946565b91505061308a565b5060005b86518110156135e857600087828151811061319b57634e487b7160e01b600052603260045260246000fd5b6020908102919091018101516001600160a01b0381166000908152600e835260408082208d8352909352919091205490915060ff166131d982615ae9565b6001600160a01b0382166000908152601860205260409020811561355a576001600160a01b038316600081815260186020908152604080832060028101805460ff191660011790556003018390558e83526010825280832093835292905290812080546132459061790b565b80601f01602080910402602001604051908101604052809291908181526020018280546132719061790b565b80156132be5780601f10613293576101008083540402835291602001916132be565b820191906000526020600020905b8154815290600101906020018083116132a157829003601f168201915b505050505090506132cf8188613f26565b156134bb57602e546040516308c0a84360e11b81526000916001600160a01b0316906311815086906133059088906004016167f0565b60206040518083038186803b15801561331d57600080fd5b505afa158015613331573d6000803e3d6000fd5b505050506040513d601f19601f820116820180604052508101906133559190616298565b602c54600954604051630db6cc8560e11b81529293506001600160a01b0390911691631b6d990a9161338b918590600401617759565b602060405180830381600087803b1580156133a557600080fd5b505af11580156133b9573d6000803e3d6000fd5b505050506040513d601f19601f820116820180604052508101906133dd91906163b9565b6133f95760405162461bcd60e51b8152600401610f5c90616def565b602d54600754604051633832942560e21b81526001600160a01b039092169163e0ca50949161342c918590600401617742565b602060405180830381600087803b15801561344657600080fd5b505af115801561345a573d6000803e3d6000fd5b505050506040513d601f19601f8201168201806040525081019061347e91906163b9565b61349a5760405162461bcd60e51b8152600401610f5c90616c8b565b60018360070160008282546134af9190617879565b909155506134d6915050565b60018260080160008282546134d09190617879565b90915550505b600582015460ff1615613554576134ec84615cbd565b15801561350357506005820154610100900460ff16155b1561355457601c80546001810182556000919091527f0e4562a10381dec21b205ed72637e6b1b523bdd0e4d4d50af5cd23dd4500a2110180546001600160a01b0319166001600160a01b0386161790555b506135d2565b6005810154610100900460ff1680613570575081155b156135d257600581015460ff16156135a05760058101805460ff1916905561359783615991565b6135a083615ae9565b6001600160a01b03831660009081526018602052604081206003018054600192906135cc908490617879565b90915550505b50505080806135e090617946565b915050613170565b50600087815260246020908152604090912060058101805461ff001916610100179055835161361f92600a90920191850190615ffd565b50600087815260246020526040902060040181905561363d87612229565b15613783576000878152602460205260408120600b01805460ff191660019081179091556026805491929091613674908490617879565b90915550506030546040516348257dc960e01b81526001600160a01b03909116906348257dc9906136a9908a906004016167bd565b602060405180830381600087803b1580156136c357600080fd5b505af19250505080156136f3575060408051601f3d908101601f191682019092526136f0918101906163b9565b60015b613764573d808015613721576040519150601f19603f3d011682016040523d82523d6000602084013e613726565b606091505b507f4b87bbd93ba65ede1e2efeca735d9f7a6720bf7d6db0a8355b17dba5b64e5783816040516137569190616907565b60405180910390a15061377e565b6001602560008282546137779190617879565b9091555050505b6137b8565b6000878152602460205260408120600b01805460ff1916600217905560278054600192906137b2908490617879565b90915550505b6001602560008282546137cb9190617879565b909155505060008781526024602052604081206002015460288054919290916137f5908490617879565b9091555050600087815260246020526040812060030154602980549192909161381f908490617879565b909155505060008781526019602052604090819020600181015491516001600160a01b03909216917fb83f08cf731092d35d6dd4801ac76e3fcc84b1b199915531c9874230d31adeaa91613872916169a7565b60405180910390a250505050505050565b6000610fdb82610d0c84611d32565b6001600160a01b03166000908152601a602052604090205490565b6138b56156f1565b6001600160a01b03166138c6613baf565b6001600160a01b0316146138ec5760405162461bcd60e51b8152600401610f5c90617018565b6138f66000615dc3565b565b600061390382615613565b61391f5760405162461bcd60e51b8152600401610f5c90617233565b5060009081526024602052604090206007015490565b60035481565b60015481565b60095481565b602e546001600160a01b031681565b601d54601c5460009161396891617879565b905090565b600061397882615613565b6139945760405162461bcd60e51b8152600401610f5c90617233565b506001600160a01b0382166000908152600d6020908152604080832084845290915290205460ff165b92915050565b602460205260009081526040902080546001820154600283015460038401546004850154600586015460068701546007880154600889015460098a0154600a8b0180549a9b999a98999798969760ff808816986101008904821698620100009004909116969594939290613a369061790b565b80601f0160208091040260200160405190810160405280929190818152602001828054613a629061790b565b8015613aaf5780601f10613a8457610100808354040283529160200191613aaf565b820191906000526020600020905b815481529060010190602001808311613a9257829003601f168201915b505050600b909301549192505060ff168e565b600080613acf8487614797565b83101590506000613ae08587614797565b84111580613aec575085155b9050818015613af85750805b979650505050505050565b601d81815481106117b257600080fd5b602b546001600160a01b031681565b60215481565b60126020908152600092835260408084209091529082529020805461171b9061790b565b6018602052600090815260409020805460018201546002830154600384015460048501546005860154600687015460078801546008909801546001600160a01b0390971697959660ff95861696949593948385169461010090940490931692908a565b6000546001600160a01b031690565b601f6020528160005260406000208181548110613bda57600080fd5b6000918252602090912001546001600160a01b03169150829050565b60016000828152602460205260409020600b015460ff166003811115613c2c57634e487b7160e01b600052602160045260246000fd5b14613c495760405162461bcd60e51b8152600401610f5c90616a88565b3360009081526014602052604090819020905163162a54af60e31b815273__$6ffa5bf1f4fa681f07e1987a80577d5f4e$__9163b152a57891613c91919085906004016167e2565b60206040518083038186803b158015613ca957600080fd5b505af4158015613cbd573d6000803e3d6000fd5b505050506040513d601f19601f82011682018060405250810190613ce191906163b9565b613cfd5760405162461bcd60e51b8152600401610f5c90616e3c565b33600090815260146020526040908190209051634dab476560e01b815273__$6ffa5bf1f4fa681f07e1987a80577d5f4e$__91634dab476591613d45919085906004016167e2565b60006040518083038186803b158015613d5d57600080fd5b505af4158015613d71573d6000803e3d6000fd5b50506040513392508391507f402507661c8c8cb90e0a796450b8bdd28b6c516f05279c0cd29e84c344e1699a90600090a350565b60265481565b60165490565b60005b8151811015613dff57613ded828281518110613de057634e487b7160e01b600052603260045260246000fd5b6020026020010151613bf6565b80613df781617946565b915050613db4565b5050565b600081815260246020526040812060098101546008909101548291613e2791617879565b9392505050565b60008282604051602001613e4392919061679b565b60405160208183030381529060405280519060200120905092915050565b60265490565b613e6f6156f1565b6001600160a01b0316613e80613baf565b6001600160a01b031614613ea65760405162461bcd60e51b8152600401610f5c90617018565b60008111613eb357600080fd5b600b55565b60275481565b6000613ec982615613565b613ee55760405162461bcd60e51b8152600401610f5c90617233565b600082815260246020526040902060060154613f00906149c0565b158015610fdb575050600090815260246020526040902060020154151590565b60175490565b600081604051602001613f3991906167c6565b6040516020818303038152906040528051906020012083604051602001613f6091906167c6565b604051602081830303815290604052805190602001201415613f84575060016139bd565b5060006139bd565b6000613f9782615613565b613fb35760405162461bcd60e51b8152600401610f5c90617233565b506001600160a01b03919091166000908152600e60209081526040808320938352929052205460ff1690565b6000804241604051602001613ff4919061677e565b6040516020818303038152906040528051906020012060001c6140179190617891565b4461402061191c565b60405160200161403091906167bd565b60408051601f1981840301815291905280516020909101206140529042617879565b61405c9190617879565b6140669190617879565b60405160200161407691906167bd565b60408051601f19818403018152919052805160209091012091505090565b6020546001600160a01b031681565b6140ab6156f1565b6001600160a01b03166140bc613baf565b6001600160a01b0316146140e25760405162461bcd60e51b8152600401610f5c90617018565b60648111156140f057600080fd5b600a55565b601e81815481106117b257600080fd5b6001600160a01b03808216600090815260186020908152604080832081516101408101835281549095168552600181015492850192909252600282015460ff90811615801592860183905260038401546060870152600484015460808701526005840154808316151560a088015261010090819004909216151560c0870152600684015460e0870152600784015491860191909152600890920154610120850152919283929091906141c157506141bf8160200151610f99565b155b156141cb57600191505b5092915050565b6060600082116141e157600080fd5b6000416040516020016141f4919061677e565b6040516020818303038152906040528051906020012060001c61421561191c565b60405160200161422591906167bd565b60408051601f1981840301815291905280516020909101206142479042617879565b6142519190617879565b60405160200161426191906167bd565b6040516020818303038152906040528051906020012060001c90506000846001600160401b038111156142a457634e487b7160e01b600052604160045260246000fd5b6040519080825280602002602001820160405280156142cd578160200160208202803683370190505b5090506000805b868210156143ce576000866142ed63017efeeb876178c4565b836040516020016142ff9291906167e2565b6040516020818303038152906040528051906020012060001c6143229190617961565b90506000805b8481101561437a578286828151811061435157634e487b7160e01b600052603260045260246000fd5b60200260200101511415614368576001915061437a565b8061437281617946565b915050614328565b50806143ba57818585815181106143a157634e487b7160e01b600052603260045260246000fd5b60209081029190910101526143b7846001617879565b93505b6143c5836001617879565b925050506142d4565b509095945050505050565b60006143e483610f99565b6144005760405162461bcd60e51b8152600401610f5c90617458565b6001600160a01b0384166000908152600e6020908152604080832086845290915290205460ff166144435760405162461bcd60e51b8152600401610f5c90616e99565b600061444e84612229565b61445957600061445c565b60015b60ff169050600081846040516020016144769291906167e2565b604051602081830303815290604052805190602001209050600061449a878761497b565b90508082146144bb5760405162461bcd60e51b8152600401610f5c90617107565b613af88787614797565b6144cd6156f1565b6001600160a01b03166144de613baf565b6001600160a01b0316146145045760405162461bcd60e51b8152600401610f5c90617018565b600155565b606060008211801561451b5750818311155b8015614528575060018310155b6145445760405162461bcd60e51b8152600401610f5c90616b64565b6000826001600160401b0381111561456c57634e487b7160e01b600052604160045260246000fd5b604051908082528060200260200182016040528015614595578160200160208202803683370190505b5090506000846001600160401b038111156145c057634e487b7160e01b600052604160045260246000fd5b6040519080825280602002602001820160405280156145e9578160200160208202803683370190505b50905060006145ff6145fa84615e13565b615e69565b905060005b868110156143ce5781818151811061462c57634e487b7160e01b600052603260045260246000fd5b602002602001015183828151811061465457634e487b7160e01b600052603260045260246000fd5b60209081029190910101528061466981617946565b915050614604565b6146796156f1565b6001600160a01b031661468a613baf565b6001600160a01b0316146146b05760405162461bcd60e51b8152600401610f5c90617018565b602e80546001600160a01b0319166001600160a01b0392909216919091179055565b60006146dd82615613565b6146f95760405162461bcd60e51b8152600401610f5c90617233565b5060009081526024602052604090206006015490565b600a5481565b60025481565b60045481565b6147296156f1565b6001600160a01b031661473a613baf565b6001600160a01b0316146147605760405162461bcd60e51b8152600401610f5c90617018565b60008181526013602052604090205460ff161561478e576000818152601360205260409020805460ff191690555b50565b600c5481565b600073__$d865f21674766f31b0d600e4a95b721b57$__6362e02a2a60156147bf8686613e2e565b6040518363ffffffff1660e01b81526004016147dc929190617697565b60206040518083038186803b1580156147f457600080fd5b505af4158015614808573d6000803e3d6000fd5b505050506040513d601f19601f82011682018060405250810190613e2791906165a6565b6000828152601f6020908152604080832080548251818502810185019093528083528493849392919083018282801561488e57602002820191906000526020600020905b81546001600160a01b03168152600190910190602001808311614870575b5050505050905060005b81518110156148fd57846001600160a01b03168282815181106148cb57634e487b7160e01b600052603260045260246000fd5b60200260200101516001600160a01b031614156148eb57600192506148fd565b806148f581617946565b915050614898565b5090949350505050565b600e60209081526000928352604080842090915290825290205460ff1681565b600b5481565b60235481565b601b6020528160005260406000208181548110613bda57600080fd5b602f546001600160a01b031681565b600f60209081526000928352604080842090915290825290205481565b600073__$d865f21674766f31b0d600e4a95b721b57$__6362e02a2a60156149a38686613e2e565b6040518363ffffffff1660e01b81526004016147dc92919061764b565b421190565b6149cd61610c565b6149d682615613565b6149df57600080fd5b60008281526024602090815260409182902082516101c081018452815481526001820154928101929092526002810154928201929092526003820154606082015260048201546080820152600582015460ff808216151560a08401526101008083048216151560c08501526201000090920416151560e0830152600683015490820152600782015461012082015260088201546101408201526009820154610160820152600a8201805491929161018084019190614a9c9061790b565b80601f0160208091040260200160405190810160405280929190818152602001828054614ac89061790b565b8015614b155780601f10614aea57610100808354040283529160200191614b15565b820191906000526020600020905b815481529060010190602001808311614af857829003601f168201915b5050509183525050600b82015460209091019060ff16600381111561263d57634e487b7160e01b600052602160045260246000fd5b614b526156f1565b6001600160a01b0316614b63613baf565b6001600160a01b031614614b895760405162461bcd60e51b8152600401610f5c90617018565b602f80546001600160a01b0319166001600160a01b0392909216919091179055565b6030546001600160a01b031681565b614bc26156f1565b6001600160a01b0316614bd3613baf565b6001600160a01b031614614bf95760405162461bcd60e51b8152600401610f5c90617018565b602c80546001600160a01b0319166001600160a01b0392909216919091179055565b614c236156f1565b6001600160a01b0316614c34613baf565b6001600160a01b031614614c5a5760405162461bcd60e51b8152600401610f5c90617018565b602b80546001600160a01b0319166001600160a01b0392909216919091179055565b336000908152601a602052604090205490565b606060008211614c9e57600080fd5b6000826001600160401b03811115614cc657634e487b7160e01b600052604160045260246000fd5b604051908082528060200260200182016040528015614cef578160200160208202803683370190505b5090506000614d006145fa83615e13565b949350505050565b6060614d1382615613565b614d1c57600080fd5b6000828152602460205260409020600a018054614d389061790b565b80601f0160208091040260200160405190810160405280929190818152602001828054614d649061790b565b8015614db15780601f10614d8657610100808354040283529160200191614db1565b820191906000526020600020905b815481529060010190602001808311614d9457829003601f168201915b50505050509050919050565b60055481565b6001600160a01b031660009081526018602052604090206005015460ff1690565b6000614e08614df233613883565b336000908152601a60205260409020549061587d565b905081811015614e2a5760405162461bcd60e51b8152600401610f5c906171ec565b602b54604051630895993360e11b81526001600160a01b039091169063112b326690614e5c9085903390600401617742565b602060405180830381600087803b158015614e7657600080fd5b505af1158015614e8a573d6000803e3d6000fd5b505050506040513d601f19601f82011682018060405250810190614eae91906163b9565b614eca5760405162461bcd60e51b8152600401610f5c906174a2565b336000908152601a602052604081208054849290614ee99084906178c4565b909155505060405133907ffaeb7dbb9992397d26ea1944efd40c80b40f702faf69b46c67ad10aba68ccb7990614f209085906167bd565b60405180910390a25050565b614f346156f1565b6001600160a01b0316614f45613baf565b6001600160a01b031614614f6b5760405162461bcd60e51b8152600401610f5c90617018565b600555565b60295481565b6060614f8182615613565b614f9d5760405162461bcd60e51b8152600401610f5c90617233565b600082815260246020908152604080832081516101c081018352815481526001820154938101939093526002810154918301919091526003810154606083015260048101546080830152600581015460ff808216151560a08501526101008083048216151560c08601526201000090920416151560e0840152600682015490830152600781015461012083015260088101546101408301526009810154610160830152600a81018054610180840191906150569061790b565b80601f01602080910402602001604051908101604052809291908181526020018280546150829061790b565b80156150cf5780601f106150a4576101008083540402835291602001916150cf565b820191906000526020600020905b8154815290600101906020018083116150b257829003601f168201915b5050509183525050600b82015460209091019060ff16600381111561510457634e487b7160e01b600052602160045260246000fd5b600381111561512357634e487b7160e01b600052602160045260246000fd5b9052506020810151600154919250906000906001600160401b0381111561515a57634e487b7160e01b600052604160045260246000fd5b60405190808252806020026020018201604052801561518d57816020015b60608152602001906001900390816151785790505b50905060005b8281101561528a5783516000906151ab908390617879565b6000818152601960205260408120805492935090916151c99061790b565b80601f01602080910402602001604051908101604052809291908181526020018280546151f59061790b565b80156152425780601f1061521757610100808354040283529160200191615242565b820191906000526020600020905b81548152906001019060200180831161522557829003601f168201915b505050505090508084848151811061526a57634e487b7160e01b600052603260045260246000fd5b60200260200101819052505050808061528290617946565b915050615193565b50949350505050565b60225481565b60255481565b6152a76156f1565b6001600160a01b03166152b8613baf565b6001600160a01b0316146152de5760405162461bcd60e51b8152600401610f5c90617018565b6001600160a01b0381166153045760405162461bcd60e51b8152600401610f5c90616b1e565b61478e81615dc3565b60008282604051602001613e43929190616985565b60255490565b6153306156f5565b336000908152601860205260409020601d54601c546103e89161535291617879565b1061536f5760405162461bcd60e51b8152600401610f5c90617321565b600581015460ff16156153945760405162461bcd60e51b8152600401610f5c90616a51565b600b548160030154101580156153b95750600c5460068201546153b790426178c4565b105b156153d65760405162461bcd60e51b8152600401610f5c906173c0565b60048054602e5460405163792f4f6960e11b815291926000926001600160a01b039092169163f25e9ed29161540d913391016167f0565b60206040518083038186803b15801561542557600080fd5b505afa158015615439573d6000803e3d6000fd5b505050506040513d601f19601f8201168201806040525081019061545d9190616298565b336000908152601a6020526040902054909150821115615506576001600160a01b038116156154dd576001600160a01b0381166000908152601a60205260409020548211156154d8576001600160a01b0381166000908152601a60205260408120546154ca90849061587d565b90506154d68183615889565b505b615506565b336000908152601a60205260408120546154f890849061587d565b90506155048133615889565b505b336000908152601a60205260409020548211156155355760405162461bcd60e51b8152600401610f5c90616d86565b61553e33615cbd565b61558557601c80546001810182556000919091527f0e4562a10381dec21b205ed72637e6b1b523bdd0e4d4d50af5cd23dd4500a2110180546001600160a01b031916331790555b8254336001600160a01b031990911617835560058301805460ff1916600190811761ff001916909155426006850155600060038501819055602580549091906155cf908490617879565b909155505060405133907f439d77b7534ec3108fc6143bd4fbabde0b9f2bb54f7b0730d1f70dd2135b765f906156069042906167bd565b60405180910390a2505050565b602154101590565b3360009081526018602052604090206005015460ff1690565b60275490565b602a546001600160a01b031681565b6001600160a01b03908116600090815260186020908152604091829020825161014081018452815490941684526001810154918401829052600281015460ff90811615159385019390935260038101546060850152600481015460808501526005810154808416151560a086015261010090819004909316151560c0850152600681015460e08501526007810154928401929092526008909101546101209092019190915290565b3390565b6020546001600160a01b031661571d5760405162461bcd60e51b8152600401610f5c9061726a565b6020546040516000916001600160a01b03169061573e9033906024016167f0565b60408051601f198184030181529181526020820180516001600160e01b0316631f5ac9c560e11b1790525161577391906167c6565b6000604051808303816000865af19150503d80600081146157b0576040519150601f19603f3d011682016040523d82523d6000602084013e6157b5565b606091505b50506020546040519192506000916001600160a01b03909116906157dd9033906024016167f0565b60408051601f198184030181529181526020820180516001600160e01b03166358563d2160e01b1790525161581291906167c6565b6000604051808303816000865af19150503d806000811461584f576040519150601f19603f3d011682016040523d82523d6000602084013e615854565b606091505b5050905081806158615750805b613dff5760405162461bcd60e51b8152600401610f5c90616ad9565b6000613e2782846178c4565b602b546040516304ada21f60e21b81526001600160a01b03909116906312b6887c906158bb9085908590600401617742565b602060405180830381600087803b1580156158d557600080fd5b505af11580156158e9573d6000803e3d6000fd5b505050506040513d601f19601f8201168201806040525081019061590d91906163b9565b6159295760405162461bcd60e51b8152600401610f5c90616cda565b6001600160a01b0381166000908152601a602052604081208054849290615951908490617879565b92505081905550806001600160a01b03167f5aa5d56140767016c877a5333ac3e1ad31a09051098a8fdf7297c4b64530a94283604051614f2091906167bd565b60008060005b601c54811015615a0557836001600160a01b0316601c82815481106159cc57634e487b7160e01b600052603260045260246000fd5b6000918252602090912001546001600160a01b031614156159f35760019150809250615a05565b806159fd81617946565b915050615997565b508015615ae457601c8054615a1c906001906178c4565b81548110615a3a57634e487b7160e01b600052603260045260246000fd5b600091825260209091200154601c80546001600160a01b039092169184908110615a7457634e487b7160e01b600052603260045260246000fd5b9060005260206000200160006101000a8154816001600160a01b0302191690836001600160a01b03160217905550601c805480615ac157634e487b7160e01b600052603160045260246000fd5b600082815260209020810160001990810180546001600160a01b03191690550190555b505050565b60008060005b601d54811015615b5d57836001600160a01b0316601d8281548110615b2457634e487b7160e01b600052603260045260246000fd5b6000918252602090912001546001600160a01b03161415615b4b5760019150809250615b5d565b80615b5581617946565b915050615aef565b508015615ae457601d8054615b74906001906178c4565b81548110615b9257634e487b7160e01b600052603260045260246000fd5b600091825260209091200154601d80546001600160a01b039092169184908110615bcc57634e487b7160e01b600052603260045260246000fd5b9060005260206000200160006101000a8154816001600160a01b0302191690836001600160a01b03160217905550601d805480615ac157634e487b7160e01b600052603160045260246000fd5b60005b601e54811015615ca4576000601e8281548110615c4957634e487b7160e01b600052603260045260246000fd5b60009182526020808320909101546001600160a01b03168083526018909152604090912060058101805461ffff19169055909150615c8682615991565b615c8f82615ae9565b50508080615c9c90617946565b915050615c1c565b506138f6601e600061619a565b6000613e278284617879565b600080805b601c548110156141cb57836001600160a01b0316601c8281548110615cf757634e487b7160e01b600052603260045260246000fd5b6000918252602090912001546001600160a01b03161415615d1b57600191506141cb565b80615d2581617946565b915050615cc2565b6000818310615d3c5781613e27565b5090919050565b600081831015615d3c5781613e27565b600080805b601d548110156141cb57836001600160a01b0316601d8281548110615d8d57634e487b7160e01b600052603260045260246000fd5b6000918252602090912001546001600160a01b03161415615db157600191506141cb565b80615dbb81617946565b915050615d58565b600080546001600160a01b038381166001600160a01b0319831681178455604051919092169283917f8be0079c531659141344cd1fd0a4f28419497f9722a3daafe3b4186f6b6457e09190a35050565b805160609060005b81811015615e615780848281518110615e4457634e487b7160e01b600052603260045260246000fd5b602090810291909101015280615e5981617946565b915050615e1b565b509192915050565b60606000825111615e7957600080fd5b81518060005b81811015615ff457600083615e92613fdf565b878481518110615eb257634e487b7160e01b600052603260045260246000fd5b6020026020010151604051602001615ecb9291906167e2565b6040516020818303038152906040528051906020012060001c615eee9190617961565b615ef9906001617879565b9050600086615f096001846178c4565b81518110615f2757634e487b7160e01b600052603260045260246000fd5b6020026020010151905086600186615f3f91906178c4565b81518110615f5d57634e487b7160e01b600052603260045260246000fd5b602002602001015187600184615f7391906178c4565b81518110615f9157634e487b7160e01b600052603260045260246000fd5b60209081029190910101528087615fa96001886178c4565b81518110615fc757634e487b7160e01b600052603260045260246000fd5b6020908102919091010152615fdd6001866178c4565b945050508080615fec90617946565b915050615e7f565b50929392505050565b8280546160099061790b565b90600052602060002090601f01602090048101928261602b5760008555616071565b82601f1061604457805160ff1916838001178555616071565b82800160010185558215616071579182015b82811115616071578251825591602001919060010190616056565b5061607d9291506161b4565b5090565b50805461608d9061790b565b6000825580601f1061609f575061478e565b601f01602090049060005260206000209081019061478e91906161b4565b60405180608001604052806060815260200160006001600160a01b03168152602001600081526020016000600381111561610757634e487b7160e01b600052602160045260246000fd5b905290565b604051806101c00160405280600081526020016000815260200160008152602001600081526020016000815260200160001515815260200160001515815260200160001515815260200160008152602001600081526020016000815260200160008152602001606081526020016000600381111561610757634e487b7160e01b600052602160045260246000fd5b508054600082559060005260206000209081019061478e91905b5b8082111561607d57600081556001016161b5565b80518015158114610fde57600080fd5b805160048110610fde57600080fd5b600082601f8301126161f8578081fd5b813561620b61620682617846565b61781d565b81815284602083860101111561621f578283fd5b816020850160208301379081016020019190915292915050565b600082601f830112616249578081fd5b815161625761620682617846565b81815284602083860101111561626b578283fd5b614d008260208301602087016178db565b60006020828403121561628d578081fd5b8135613e27816179b7565b6000602082840312156162a9578081fd5b8151613e27816179b7565b600080604083850312156162c6578081fd5b82356162d1816179b7565b946020939093013593505050565b6000806000606084860312156162f3578081fd5b83356162fe816179b7565b95602085013595506040909401359392505050565b60006020808385031215616325578182fd5b82356001600160401b038082111561633b578384fd5b818501915085601f83011261634e578384fd5b813581811115616360576163606179a1565b838102915061637084830161781d565b8181528481019084860184860187018a101561638a578788fd5b8795505b838610156163ac57803583526001959095019491860191860161638e565b5098975050505050505050565b6000602082840312156163ca578081fd5b613e27826161c9565b600080604083850312156163e5578182fd5b82356001600160401b03808211156163fb578384fd5b616407868387016161e8565b9350602085013591508082111561641c578283fd5b50616429858286016161e8565b9150509250929050565b60008060408385031215616445578182fd5b82356001600160401b0381111561645a578283fd5b616466858286016161e8565b95602094909401359450505050565b600060208284031215616486578081fd5b81516001600160401b038082111561649c578283fd5b81840191506101c08083870312156164b2578384fd5b6164bb8161781d565b9050825181526020830151602082015260408301516040820152606083015160608201526164eb608084016161c9565b60808201526164fc60a084016161c9565b60a082015261650d60c084016161c9565b60c082015260e083810151908201526101008084015190820152610120808401519082015261014080840151908201526101608084015183811115616550578586fd5b61655c88828701616239565b828401525050610180915081830151828201526101a0915061657f8284016161d9565b91810191909152949350505050565b60006020828403121561659f578081fd5b5035919050565b600060208284031215611932578081fd5b600080604083850312156165c9578182fd5b8235915060208301356165db816179b7565b809150509250929050565b600080600080608085870312156165fb578182fd5b84359350602085013592506040850135915060608501356001600160401b03811115616625578182fd5b616631878288016161e8565b91505092959194509250565b6000806040838503121561664f578182fd5b50508035926020909101359150565b60008060008060808587031215616673578182fd5b8435935060208501359250604085013561668c816179b7565b9396929550929360600135925050565b600080600080608085870312156166b1578182fd5b843593506020850135925060408501356001600160401b038111156166d4578283fd5b6166e0878288016161e8565b949793965093946060013593505050565b15159052565b6000815180845261670f8160208601602086016178db565b601f01601f19169290920160200192915050565b6004811061674157634e487b7160e01b600052602160045260246000fd5b9052565b600a8152690c6dedadad2e890c2e6d60b31b602082015260400190565b60098152686e756d546f6b656e7360b81b602082015260400190565b60609190911b6bffffffffffffffffffffffff1916815260140190565b60609290921b6bffffffffffffffffffffffff19168252601482015260340190565b90815260200190565b600082516167d88184602087016178db565b9190910192915050565b918252602082015260400190565b6001600160a01b0391909116815260200190565b6001600160a01b039a909a168a5260208a0198909852951515604089015260608801949094526080870192909252151560a0860152151560c085015260e08401526101008301526101208201526101400190565b6000602080830181845280855180835260408601915060408482028701019250838701855b828110156168ab57603f198886030184526168998583516166f7565b9450928501929085019060010161687d565b5092979650505050505050565b6020808252825182820181905260009190848201906040850190845b818110156168f0578351835292840192918401916001016168d4565b50909695505050505050565b901515815260200190565b600060208252613e2760208301846166f7565b60006040825261692d60408301856166f7565b905060018060a01b03831660208301529392505050565b60006080825261695760808301876166f7565b6001600160a01b038616602084015260408301859052905061697c6060830184616723565b95945050505050565b60006040825261699860408301856166f7565b90508260208301529392505050565b60006020808352818454836002820490506001808316806169c957607f831692505b8583108114156169e757634e487b7160e01b87526022600452602487fd5b6169f383878a016167bd565b818015616a075760018114616a1857616a42565b60ff19861682528782019650616a42565b616a218b61786d565b895b86811015616a3c57815484820152908501908901616a23565b83019750505b50949998505050505050505050565b6020808252601c908201527f576f726b657220697320616c7265616479207265676973746572656400000000604082015260600190565b60208082526031908201527f676976656e204461746142617463682073686f756c6420626520415050524f5660408201527011510b08185b99081a5d081a5cc81b9bdd607a1b606082015260800190565b60208082526025908201527f72656365697665722072656a6563746564205f7265747269657665534675656c6040820152640818d85b1b60da1b606082015260800190565b60208082526026908201527f4f776e61626c653a206e6577206f776e657220697320746865207a65726f206160408201526564647265737360d01b606082015260800190565b60208082526029908201527f6b206f72204e20617265206e6f74204f4b20647572696e672072616e646f6d2060408201526839b2b632b1ba34b7b760b91b606082015260800190565b6020808252602a908201527f4661696c20647572696e6720616c6c6f636174696f6e3a206e6f7420656e6f75604082015269676820776f726b65727360b01b606082015260800190565b6020808252601e908201527f636f6d6d697420706572696f64206e6565647320746f206265206f70656e0000604082015260600190565b60208082526038908201527f55736572206e6565647320746f20626520616c6c6f636174656420746f20746860408201527f697320626174636820746f20636f6d6d6974206f6e2069740000000000000000606082015260800190565b6020808252602f908201527f636f756c64206e6f742072657761726420746f6b656e20696e2054726967676560408201526e3921b432b1b5a9b837ba161018973160891b606082015260800190565b6020808252603f908201527f436f756c64206e6f74207265717565737420656e6f75676820616c6c6f63617460408201527f6564207374616b652c2072657175657374416c6c6f63617465645374616b6500606082015260800190565b6020808252602f908201527f5573657220686173206e6f7420636f6d6d69746564206265666f72652c20746860408201526e1d5cc818d85b89dd081c995d99585b608a1b606082015260800190565b60208082526043908201527f576f726b657220686173206e6f7420656e6f75676820285f6e756d546f6b656e60408201527f732920696e2068697320466f726d61745374616b6564546f6b656e42616c616e606082015262031b2960ed1b608082015260a00190565b6020808252602d908201527f636f756c64206e6f74207265776172642052455020696e20547269676765724360408201526c6865636b53706f742c20312e6160981b606082015260800190565b60208082526039908201527f646c6c4d61703a20646f6573206e6f7420636f696e7461696e205f446174614260408201527f61746368496420666f7220746865206d73672073656e64657200000000000000606082015260800190565b6020808252602b908201527f75736572206d75737420686176652072657665616c656420696e20746869732060408201526a0ced2eccadc4084c2e8c6d60ab1b606082015260800190565b6020808252601490820152733737ba1030903b30b634b2103837b9b4ba34b7b760611b604082015260600190565b6020808252603a908201527f576f726b65722063757272656e746c792068617320776f726b20616c6c6f636160408201527f7465642c2063616e277420626520756e72656769737465726564000000000000606082015260800190565b6020808252603b908201527f43616e277420616c6c6f6361746520776f726b2c207468652063757272656e7460408201527f20626174636820697320616c726561647920616c6c6f63617465640000000000606082015260800190565b6020808252602c908201527f576f726b6572206973206e6f74207265676973746572656420736f2063616e2760408201526b3a103ab73932b3b4b9ba32b960a11b606082015260800190565b6020808252818101527f4f776e61626c653a2063616c6c6572206973206e6f7420746865206f776e6572604082015260600190565b6020808252603a908201527f5f446174614261746368496420686173206e6f7420656e6465642c206f72206e60408201527f6f7420657665727920766f74657273206861766520766f746564000000000000606082015260800190565b6020808252603e908201527f436f756c64206e6f74206d6174636820656e637279707465642068617368202660408201527f20636c6561722068617368207769746820676976656e20696e707574732e0000606082015260800190565b60208082526029908201527f6765744e756d50617373696e67546f6b656e733a20686173686573206d75737460408201526808189948195c5d585b60ba1b606082015260800190565b60208082526036908201527f43616e277420616c6c6f6361746520776f726b2c207468652063757272656e74604082015275206261746368206973206e6f7420636f6d706c65746560501b606082015260800190565b60208082526026908201527f52657665616c20706572696f64206e6f74206f70656e20666f7220746869732060408201526511185d18525160d21b606082015260800190565b60208082526027908201527f617661696c61626c65546f6b656e732073686f756c64206265203e3d205f6e756040820152666d546f6b656e7360c81b606082015260800190565b60208082526017908201527f5f4461746142617463684964206d757374206578697374000000000000000000604082015260600190565b6020808252601390820152720c081059191c995cdcc8139bdd0815985b1a59606a1b604082015260600190565b60208082526021908201527f5f446174614261746368496420697320616c72656164792076616c69646174656040820152601960fa1b606082015260800190565b60208082526029908201527f557365722068617320616c726561647920636f6d6d6974656420746f207468696040820152681cc818985d18da125960ba1b606082015260800190565b60208082526022908201527f4d6178696d756d207265676973746572656420776f726b65727320616c726561604082015261647960f01b606082015260800190565b60208082526037908201527f75736572206d757374206861766520656e6f75676820766f74696e672072696760408201527f68747320616b6120616c6c6f6361746564207374616b65000000000000000000606082015260800190565b6020808252606c908201527f5573657220686173206e6f7420766f746564206d616e792074696d657320696e60408201527f206120726f7720616e64206e6565647320746f2077616974204e4f564f54455f60608201527f524547495354524154494f4e5f574149545f4455524154494f4e20746f20726560808201526b33b4b9ba32b91030b3b0b4b760a11b60a082015260c00190565b6020808252602a908201527f5f446174614261746368496420636865636b696e6720766f7465206d757374206040820152691a185d9948195b99195960b21b606082015260800190565b6020808252603b908201527f436f756c64206e6f74207769746864726177566f74696e67526967687473207460408201527f68726f7567682050726f78795374616b654465616c6c6f636174650000000000606082015260800190565b6020808252600f908201526e11185d18481b5d5cdd08195e1a5cdd608a1b604082015260600190565b6020808252602c908201527f557365722068617320616c72656164792072657665616c65642c20746875732060408201526b18d85b89dd081c995d99585b60a21b606082015260800190565b60006020825282516020830152602083015160408301526040830151606083015260608301516080830152608083015160a083015260a08301516175bb60c08401826166f1565b5060c08301516175ce60e08401826166f1565b5060e08301516101006175e3818501836166f1565b840151610120848101919091528401516101408085019190915284015161016080850191909152840151610180808501919091528401516101c06101a0808601829052919250906176386101e08601846166f7565b908601519092506148fd85830182616723565b600083825282602083015260606040830152614d0060608301616745565b60008482528360208301526080604083015261768760808301616745565b9050826060830152949350505050565b600083825282602083015260606040830152614d0060608301616762565b60008482528360208301526080604083015261768760808301616762565b93845260208401929092526040830152606082015260800190565b60006020825282516080602084015261770a60a08401826166f7565b905060018060a01b03602085015116604084015260408401516060840152606084015161773a6080850182616723565b509392505050565b9182526001600160a01b0316602082015260400190565b9182526001600160a01b031660208201526000604082015260600190565b9283526020830191909152604082015260600190565b60008f82528e60208301528d60408301528c60608301528b60808301528a151560a083015289151560c08301526177c760e083018a6166f1565b876101008301528661012083015285610140830152846101608301526101c06101808301526177fa6101c08301856166f7565b905061780a6101a0830184616723565b9f9e505050505050505050505050505050565b6040518181016001600160401b038111828210171561783e5761783e6179a1565b604052919050565b60006001600160401b0382111561785f5761785f6179a1565b50601f01601f191660200190565b60009081526020902090565b6000821982111561788c5761788c617975565b500190565b6000826178a0576178a061798b565b500490565b60008160001904831182151516156178bf576178bf617975565b500290565b6000828210156178d6576178d6617975565b500390565b60005b838110156178f65781810151838201526020016178de565b83811115617905576000848401525b50505050565b60028104600182168061791f57607f821691505b6020821081141561794057634e487b7160e01b600052602260045260246000fd5b50919050565b600060001982141561795a5761795a617975565b5060010190565b6000826179705761797061798b565b500690565b634e487b7160e01b600052601160045260246000fd5b634e487b7160e01b600052601260045260246000fd5b634e487b7160e01b600052604160045260246000fd5b6001600160a01b038116811461478e57600080fdfea26469706673582212208f1a7678d330929464e2c7d72fe054bdce6d78468b139101ec632fc1dbb5c1f664736f6c63430008000033",
  "linkReferences": {
    "contracts/worksystems/DataFormatting.sol": {
      "AttributeStore2": [
        {
          "length": 20,
          "start": 5534
        },
        {
          "length": 20,
          "start": 5640
        },
        {
          "length": 20,
          "start": 18793
        },
        {
          "length": 20,
          "start": 19277
        }
      ],
      "DLL2": [
        {
          "length": 20,
          "start": 5054
        },
        {
          "length": 20,
          "start": 5216
        },
        {
          "length": 20,
          "start": 5411
        },
        {
          "length": 20,
          "start": 7416
        },
        {
          "length": 20,
          "start": 7975
        },
        {
          "length": 20,
          "start": 15926
        },
        {
          "length": 20,
          "start": 16106
        }
      ]
    }
  },
  "deployedLinkReferences": {
    "contracts/worksystems/DataFormatting.sol": {
      "AttributeStore2": [
        {
          "length": 20,
          "start": 5072
        },
        {
          "length": 20,
          "start": 5178
        },
        {
          "length": 20,
          "start": 18331
        },
        {
          "length": 20,
          "start": 18815
        }
      ],
      "DLL2": [
        {
          "length": 20,
          "start": 4592
        },
        {
          "length": 20,
          "start": 4754
        },
        {
          "length": 20,
          "start": 4949
        },
        {
          "length": 20,
          "start": 6954
        },
        {
          "length": 20,
          "start": 7513
        },
        {
          "length": 20,
          "start": 15464
        },
        {
          "length": 20,
          "start": 15644
        }
      ]
    }
  }
}