{
  "_format": "hh-sol-artifact-1",
  "contractName": "DataFormatting",
  "sourceName": "contracts/worksystems/DataFormatting.sol",
  "abi": [
    {
      "inputs": [
        {
          "internalType": "address",
          "name": "EXDT_token_",
          "type": "address"
        }
      ],
      "stateMutability": "nonpayable",
      "type": "constructor"
    },
    {
      "anonymous": false,
      "inputs": [
        {
          "indexed": false,
          "internalType": "bytes",
          "name": "bytesFailure",
          "type": "bytes"
        }
      ],
      "name": "BytesFailure",
      "type": "event"
    },
    {
      "anonymous": false,
      "inputs": [
        {
          "indexed": true,
          "internalType": "address",
          "name": "previousOwner",
          "type": "address"
        },
        {
          "indexed": true,
          "internalType": "address",
          "name": "newOwner",
          "type": "address"
        }
      ],
      "name": "OwnershipTransferred",
      "type": "event"
    },
    {
      "anonymous": false,
      "inputs": [
        {
          "indexed": true,
          "internalType": "uint256",
          "name": "batchID",
          "type": "uint256"
        }
      ],
      "name": "_DataBatchDeleted",
      "type": "event"
    },
    {
      "anonymous": false,
      "inputs": [
        {
          "indexed": false,
          "internalType": "string",
          "name": "hash",
          "type": "string"
        },
        {
          "indexed": true,
          "internalType": "address",
          "name": "creator",
          "type": "address"
        }
      ],
      "name": "_FormatAccepted",
      "type": "event"
    },
    {
      "anonymous": false,
      "inputs": [
        {
          "indexed": true,
          "internalType": "uint256",
          "name": "DataID",
          "type": "uint256"
        },
        {
          "indexed": false,
          "internalType": "uint256",
          "name": "numTokens",
          "type": "uint256"
        },
        {
          "indexed": true,
          "internalType": "address",
          "name": "voter",
          "type": "address"
        }
      ],
      "name": "_FormatCheckCommitted",
      "type": "event"
    },
    {
      "anonymous": false,
      "inputs": [
        {
          "indexed": true,
          "internalType": "uint256",
          "name": "DataID",
          "type": "uint256"
        },
        {
          "indexed": false,
          "internalType": "uint256",
          "name": "numTokens",
          "type": "uint256"
        },
        {
          "indexed": false,
          "internalType": "uint256",
          "name": "votesFor",
          "type": "uint256"
        },
        {
          "indexed": false,
          "internalType": "uint256",
          "name": "votesAgainst",
          "type": "uint256"
        },
        {
          "indexed": true,
          "internalType": "uint256",
          "name": "choice",
          "type": "uint256"
        },
        {
          "indexed": true,
          "internalType": "address",
          "name": "voter",
          "type": "address"
        }
      ],
      "name": "_FormatCheckRevealed",
      "type": "event"
    },
    {
      "anonymous": false,
      "inputs": [
        {
          "indexed": true,
          "internalType": "uint256",
          "name": "DataID",
          "type": "uint256"
        },
        {
          "indexed": false,
          "internalType": "string",
          "name": "file_hash",
          "type": "string"
        },
        {
          "indexed": false,
          "internalType": "address",
          "name": "sender",
          "type": "address"
        }
      ],
      "name": "_FormatSubmitted",
      "type": "event"
    },
    {
      "anonymous": false,
      "inputs": [
        {
          "indexed": false,
          "internalType": "uint256",
          "name": "numTokens",
          "type": "uint256"
        },
        {
          "indexed": true,
          "internalType": "address",
          "name": "voter",
          "type": "address"
        }
      ],
      "name": "_StakeAllocated",
      "type": "event"
    },
    {
      "anonymous": false,
      "inputs": [
        {
          "indexed": true,
          "internalType": "uint256",
          "name": "DataID",
          "type": "uint256"
        },
        {
          "indexed": true,
          "internalType": "address",
          "name": "voter",
          "type": "address"
        }
      ],
      "name": "_TokensRescued",
      "type": "event"
    },
    {
      "anonymous": false,
      "inputs": [
        {
          "indexed": false,
          "internalType": "uint256",
          "name": "numTokens",
          "type": "uint256"
        },
        {
          "indexed": true,
          "internalType": "address",
          "name": "voter",
          "type": "address"
        }
      ],
      "name": "_VotingRightsWithdrawn",
      "type": "event"
    },
    {
      "anonymous": false,
      "inputs": [
        {
          "indexed": true,
          "internalType": "uint256",
          "name": "batchID",
          "type": "uint256"
        },
        {
          "indexed": false,
          "internalType": "address",
          "name": "worker",
          "type": "address"
        }
      ],
      "name": "_WorkAllocated",
      "type": "event"
    },
    {
      "anonymous": false,
      "inputs": [
        {
          "indexed": true,
          "internalType": "address",
          "name": "worker",
          "type": "address"
        },
        {
          "indexed": false,
          "internalType": "uint256",
          "name": "timestamp",
          "type": "uint256"
        }
      ],
      "name": "_WorkerRegistered",
      "type": "event"
    },
    {
      "anonymous": false,
      "inputs": [
        {
          "indexed": true,
          "internalType": "address",
          "name": "worker",
          "type": "address"
        },
        {
          "indexed": false,
          "internalType": "uint256",
          "name": "timestamp",
          "type": "uint256"
        }
      ],
      "name": "_WorkerUnregistered",
      "type": "event"
    },
    {
      "inputs": [],
      "name": "AcceptedBatchsCounter",
      "outputs": [
        {
          "internalType": "uint256",
          "name": "",
          "type": "uint256"
        }
      ],
      "stateMutability": "view",
      "type": "function"
    },
    {
      "inputs": [],
      "name": "AddressManager",
      "outputs": [
        {
          "internalType": "contract IAddressManager",
          "name": "",
          "type": "address"
        }
      ],
      "stateMutability": "view",
      "type": "function"
    },
    {
      "inputs": [],
      "name": "AllTxsCounter",
      "outputs": [
        {
          "internalType": "uint256",
          "name": "",
          "type": "uint256"
        }
      ],
      "stateMutability": "view",
      "type": "function"
    },
    {
      "inputs": [],
      "name": "AllocateWork",
      "outputs": [],
      "stateMutability": "nonpayable",
      "type": "function"
    },
    {
      "inputs": [],
      "name": "AllocatedBatchCursor",
      "outputs": [
        {
          "internalType": "uint256",
          "name": "",
          "type": "uint256"
        }
      ],
      "stateMutability": "view",
      "type": "function"
    },
    {
      "inputs": [],
      "name": "AmIRegistered",
      "outputs": [
        {
          "internalType": "bool",
          "name": "passed",
          "type": "bool"
        }
      ],
      "stateMutability": "view",
      "type": "function"
    },
    {
      "inputs": [],
      "name": "ArchiveSystem",
      "outputs": [
        {
          "internalType": "contract IArchiveSystem",
          "name": "",
          "type": "address"
        }
      ],
      "stateMutability": "view",
      "type": "function"
    },
    {
      "inputs": [
        {
          "internalType": "string",
          "name": "_a",
          "type": "string"
        },
        {
          "internalType": "string",
          "name": "_b",
          "type": "string"
        }
      ],
      "name": "AreStringsEqual",
      "outputs": [
        {
          "internalType": "bool",
          "name": "",
          "type": "bool"
        }
      ],
      "stateMutability": "pure",
      "type": "function"
    },
    {
      "inputs": [],
      "name": "BatchCheckingCursor",
      "outputs": [
        {
          "internalType": "uint256",
          "name": "",
          "type": "uint256"
        }
      ],
      "stateMutability": "view",
      "type": "function"
    },
    {
      "inputs": [],
      "name": "BatchDeletionCursor",
      "outputs": [
        {
          "internalType": "uint256",
          "name": "",
          "type": "uint256"
        }
      ],
      "stateMutability": "view",
      "type": "function"
    },
    {
      "inputs": [
        {
          "internalType": "uint256",
          "name": "",
          "type": "uint256"
        }
      ],
      "name": "CollectedSpotBatchs",
      "outputs": [
        {
          "internalType": "bool",
          "name": "",
          "type": "bool"
        }
      ],
      "stateMutability": "view",
      "type": "function"
    },
    {
      "inputs": [
        {
          "internalType": "uint256",
          "name": "",
          "type": "uint256"
        }
      ],
      "name": "DataBatch",
      "outputs": [
        {
          "internalType": "uint256",
          "name": "start_idx",
          "type": "uint256"
        },
        {
          "internalType": "uint256",
          "name": "counter",
          "type": "uint256"
        },
        {
          "internalType": "uint256",
          "name": "uncommited_workers",
          "type": "uint256"
        },
        {
          "internalType": "uint256",
          "name": "unrevealed_workers",
          "type": "uint256"
        },
        {
          "internalType": "uint256",
          "name": "item_count",
          "type": "uint256"
        },
        {
          "internalType": "bool",
          "name": "complete",
          "type": "bool"
        },
        {
          "internalType": "bool",
          "name": "checked",
          "type": "bool"
        },
        {
          "internalType": "bool",
          "name": "allocated_to_work",
          "type": "bool"
        },
        {
          "internalType": "uint256",
          "name": "commitEndDate",
          "type": "uint256"
        },
        {
          "internalType": "uint256",
          "name": "revealEndDate",
          "type": "uint256"
        },
        {
          "internalType": "uint256",
          "name": "votesFor",
          "type": "uint256"
        },
        {
          "internalType": "uint256",
          "name": "votesAgainst",
          "type": "uint256"
        },
        {
          "internalType": "string",
          "name": "batchIPFSfile",
          "type": "string"
        },
        {
          "internalType": "enum DataFormatting.DataStatus",
          "name": "status",
          "type": "uint8"
        }
      ],
      "stateMutability": "view",
      "type": "function"
    },
    {
      "inputs": [
        {
          "internalType": "uint256",
          "name": "_DataBatchId",
          "type": "uint256"
        }
      ],
      "name": "DataCommitEndDate",
      "outputs": [
        {
          "internalType": "uint256",
          "name": "commitEndDate",
          "type": "uint256"
        }
      ],
      "stateMutability": "view",
      "type": "function"
    },
    {
      "inputs": [
        {
          "internalType": "uint256",
          "name": "_DataBatchId",
          "type": "uint256"
        }
      ],
      "name": "DataEnded",
      "outputs": [
        {
          "internalType": "bool",
          "name": "ended",
          "type": "bool"
        }
      ],
      "stateMutability": "view",
      "type": "function"
    },
    {
      "inputs": [
        {
          "internalType": "uint256",
          "name": "_DataBatchId",
          "type": "uint256"
        }
      ],
      "name": "DataExists",
      "outputs": [
        {
          "internalType": "bool",
          "name": "exists",
          "type": "bool"
        }
      ],
      "stateMutability": "view",
      "type": "function"
    },
    {
      "inputs": [],
      "name": "DataNonce",
      "outputs": [
        {
          "internalType": "uint256",
          "name": "",
          "type": "uint256"
        }
      ],
      "stateMutability": "view",
      "type": "function"
    },
    {
      "inputs": [
        {
          "internalType": "uint256",
          "name": "_DataBatchId",
          "type": "uint256"
        }
      ],
      "name": "DataRevealEndDate",
      "outputs": [
        {
          "internalType": "uint256",
          "name": "revealEndDate",
          "type": "uint256"
        }
      ],
      "stateMutability": "view",
      "type": "function"
    },
    {
      "inputs": [
        {
          "internalType": "address",
          "name": "",
          "type": "address"
        }
      ],
      "name": "FormatStakedTokenBalance",
      "outputs": [
        {
          "internalType": "uint256",
          "name": "",
          "type": "uint256"
        }
      ],
      "stateMutability": "view",
      "type": "function"
    },
    {
      "inputs": [
        {
          "internalType": "uint256",
          "name": "",
          "type": "uint256"
        }
      ],
      "name": "FormatsMapping",
      "outputs": [
        {
          "internalType": "string",
          "name": "ipfs_hash",
          "type": "string"
        },
        {
          "internalType": "address",
          "name": "author",
          "type": "address"
        },
        {
          "internalType": "uint256",
          "name": "timestamp",
          "type": "uint256"
        },
        {
          "internalType": "enum DataFormatting.DataStatus",
          "name": "status",
          "type": "uint8"
        }
      ],
      "stateMutability": "view",
      "type": "function"
    },
    {
      "inputs": [
        {
          "internalType": "address",
          "name": "user_",
          "type": "address"
        }
      ],
      "name": "GetCurrentWork",
      "outputs": [
        {
          "internalType": "uint256",
          "name": "",
          "type": "uint256"
        }
      ],
      "stateMutability": "view",
      "type": "function"
    },
    {
      "inputs": [
        {
          "internalType": "address",
          "name": "user_",
          "type": "address"
        }
      ],
      "name": "IsNewWorkAvailable",
      "outputs": [
        {
          "internalType": "bool",
          "name": "",
          "type": "bool"
        }
      ],
      "stateMutability": "view",
      "type": "function"
    },
    {
      "inputs": [],
      "name": "LastBatchCounter",
      "outputs": [
        {
          "internalType": "uint256",
          "name": "",
          "type": "uint256"
        }
      ],
      "stateMutability": "view",
      "type": "function"
    },
    {
      "inputs": [
        {
          "internalType": "address",
          "name": "",
          "type": "address"
        },
        {
          "internalType": "uint256",
          "name": "",
          "type": "uint256"
        }
      ],
      "name": "MasterWorkers",
      "outputs": [
        {
          "internalType": "address",
          "name": "",
          "type": "address"
        }
      ],
      "stateMutability": "view",
      "type": "function"
    },
    {
      "inputs": [],
      "name": "NotCommitedCounter",
      "outputs": [
        {
          "internalType": "uint256",
          "name": "",
          "type": "uint256"
        }
      ],
      "stateMutability": "view",
      "type": "function"
    },
    {
      "inputs": [],
      "name": "NotRevealedCounter",
      "outputs": [
        {
          "internalType": "uint256",
          "name": "",
          "type": "uint256"
        }
      ],
      "stateMutability": "view",
      "type": "function"
    },
    {
      "inputs": [],
      "name": "Parameters",
      "outputs": [
        {
          "internalType": "contract IParametersManager",
          "name": "",
          "type": "address"
        }
      ],
      "stateMutability": "view",
      "type": "function"
    },
    {
      "inputs": [
        {
          "internalType": "uint256",
          "name": "CheckedBatchId",
          "type": "uint256"
        }
      ],
      "name": "Ping",
      "outputs": [],
      "stateMutability": "nonpayable",
      "type": "function"
    },
    {
      "inputs": [],
      "name": "RegisterWorker",
      "outputs": [],
      "stateMutability": "nonpayable",
      "type": "function"
    },
    {
      "inputs": [],
      "name": "RejectedBatchsCounter",
      "outputs": [
        {
          "internalType": "uint256",
          "name": "",
          "type": "uint256"
        }
      ],
      "stateMutability": "view",
      "type": "function"
    },
    {
      "inputs": [],
      "name": "RepManager",
      "outputs": [
        {
          "internalType": "contract IRepManager",
          "name": "",
          "type": "address"
        }
      ],
      "stateMutability": "view",
      "type": "function"
    },
    {
      "inputs": [],
      "name": "RewardManager",
      "outputs": [
        {
          "internalType": "contract IRewardManager",
          "name": "",
          "type": "address"
        }
      ],
      "stateMutability": "view",
      "type": "function"
    },
    {
      "inputs": [],
      "name": "SpottingSystem",
      "outputs": [
        {
          "internalType": "contract ISpottingSystem",
          "name": "",
          "type": "address"
        }
      ],
      "stateMutability": "view",
      "type": "function"
    },
    {
      "inputs": [],
      "name": "StakeManager",
      "outputs": [
        {
          "internalType": "contract IStakeManager",
          "name": "",
          "type": "address"
        }
      ],
      "stateMutability": "view",
      "type": "function"
    },
    {
      "inputs": [],
      "name": "TriggerUpdate",
      "outputs": [],
      "stateMutability": "nonpayable",
      "type": "function"
    },
    {
      "inputs": [],
      "name": "UnregisterWorker",
      "outputs": [],
      "stateMutability": "nonpayable",
      "type": "function"
    },
    {
      "inputs": [
        {
          "internalType": "uint256",
          "name": "",
          "type": "uint256"
        },
        {
          "internalType": "address",
          "name": "",
          "type": "address"
        }
      ],
      "name": "UserBatchCounts",
      "outputs": [
        {
          "internalType": "uint256",
          "name": "",
          "type": "uint256"
        }
      ],
      "stateMutability": "view",
      "type": "function"
    },
    {
      "inputs": [
        {
          "internalType": "uint256",
          "name": "",
          "type": "uint256"
        },
        {
          "internalType": "address",
          "name": "",
          "type": "address"
        }
      ],
      "name": "UserBatchFrom",
      "outputs": [
        {
          "internalType": "string",
          "name": "",
          "type": "string"
        }
      ],
      "stateMutability": "view",
      "type": "function"
    },
    {
      "inputs": [
        {
          "internalType": "address",
          "name": "",
          "type": "address"
        },
        {
          "internalType": "uint256",
          "name": "",
          "type": "uint256"
        }
      ],
      "name": "UserChecksCommits",
      "outputs": [
        {
          "internalType": "bool",
          "name": "",
          "type": "bool"
        }
      ],
      "stateMutability": "view",
      "type": "function"
    },
    {
      "inputs": [
        {
          "internalType": "address",
          "name": "",
          "type": "address"
        },
        {
          "internalType": "uint256",
          "name": "",
          "type": "uint256"
        }
      ],
      "name": "UserChecksReveals",
      "outputs": [
        {
          "internalType": "bool",
          "name": "",
          "type": "bool"
        }
      ],
      "stateMutability": "view",
      "type": "function"
    },
    {
      "inputs": [
        {
          "internalType": "uint256",
          "name": "",
          "type": "uint256"
        },
        {
          "internalType": "address",
          "name": "",
          "type": "address"
        }
      ],
      "name": "UserNewFiles",
      "outputs": [
        {
          "internalType": "string",
          "name": "",
          "type": "string"
        }
      ],
      "stateMutability": "view",
      "type": "function"
    },
    {
      "inputs": [
        {
          "internalType": "uint256",
          "name": "",
          "type": "uint256"
        },
        {
          "internalType": "address",
          "name": "",
          "type": "address"
        }
      ],
      "name": "UserVotes",
      "outputs": [
        {
          "internalType": "uint256",
          "name": "",
          "type": "uint256"
        }
      ],
      "stateMutability": "view",
      "type": "function"
    },
    {
      "inputs": [
        {
          "internalType": "uint256",
          "name": "_DataBatchId",
          "type": "uint256"
        }
      ],
      "name": "ValidateDataBatch",
      "outputs": [],
      "stateMutability": "nonpayable",
      "type": "function"
    },
    {
      "inputs": [
        {
          "internalType": "uint256",
          "name": "",
          "type": "uint256"
        },
        {
          "internalType": "uint256",
          "name": "",
          "type": "uint256"
        }
      ],
      "name": "WorkersPerBatch",
      "outputs": [
        {
          "internalType": "address",
          "name": "",
          "type": "address"
        }
      ],
      "stateMutability": "view",
      "type": "function"
    },
    {
      "inputs": [
        {
          "internalType": "address",
          "name": "",
          "type": "address"
        }
      ],
      "name": "WorkersState",
      "outputs": [
        {
          "internalType": "address",
          "name": "worker_address",
          "type": "address"
        },
        {
          "internalType": "uint256",
          "name": "allocated_work_batch",
          "type": "uint256"
        },
        {
          "internalType": "bool",
          "name": "has_completed_work",
          "type": "bool"
        },
        {
          "internalType": "uint256",
          "name": "succeeding_novote_count",
          "type": "uint256"
        },
        {
          "internalType": "uint256",
          "name": "last_interaction_date",
          "type": "uint256"
        },
        {
          "internalType": "bool",
          "name": "registered",
          "type": "bool"
        },
        {
          "internalType": "bool",
          "name": "unregistration_request",
          "type": "bool"
        },
        {
          "internalType": "uint256",
          "name": "registration_date",
          "type": "uint256"
        },
        {
          "internalType": "uint256",
          "name": "majority_counter",
          "type": "uint256"
        },
        {
          "internalType": "uint256",
          "name": "minority_counter",
          "type": "uint256"
        }
      ],
      "stateMutability": "view",
      "type": "function"
    },
    {
      "inputs": [
        {
          "internalType": "address",
          "name": "_user",
          "type": "address"
        },
        {
          "internalType": "uint256",
          "name": "_DataBatchId",
          "type": "uint256"
        }
      ],
      "name": "attrUUID",
      "outputs": [
        {
          "internalType": "bytes32",
          "name": "UUID",
          "type": "bytes32"
        }
      ],
      "stateMutability": "pure",
      "type": "function"
    },
    {
      "inputs": [
        {
          "internalType": "uint256",
          "name": "",
          "type": "uint256"
        }
      ],
      "name": "availableWorkers",
      "outputs": [
        {
          "internalType": "address",
          "name": "",
          "type": "address"
        }
      ],
      "stateMutability": "view",
      "type": "function"
    },
    {
      "inputs": [
        {
          "internalType": "uint256",
          "name": "",
          "type": "uint256"
        }
      ],
      "name": "busyWorkers",
      "outputs": [
        {
          "internalType": "address",
          "name": "",
          "type": "address"
        }
      ],
      "stateMutability": "view",
      "type": "function"
    },
    {
      "inputs": [
        {
          "internalType": "uint256",
          "name": "_DataBatchId",
          "type": "uint256"
        },
        {
          "internalType": "bytes32",
          "name": "_secretIPFSHash",
          "type": "bytes32"
        },
        {
          "internalType": "uint256",
          "name": "_BatchCount",
          "type": "uint256"
        },
        {
          "internalType": "string",
          "name": "_From",
          "type": "string"
        }
      ],
      "name": "commitFormatCheck",
      "outputs": [],
      "stateMutability": "nonpayable",
      "type": "function"
    },
    {
      "inputs": [
        {
          "internalType": "uint256",
          "name": "_DataBatchId",
          "type": "uint256"
        }
      ],
      "name": "commitPeriodActive",
      "outputs": [
        {
          "internalType": "bool",
          "name": "active",
          "type": "bool"
        }
      ],
      "stateMutability": "view",
      "type": "function"
    },
    {
      "inputs": [
        {
          "internalType": "uint256",
          "name": "_BatchId",
          "type": "uint256"
        }
      ],
      "name": "deleteCollectedSpotBatch",
      "outputs": [],
      "stateMutability": "nonpayable",
      "type": "function"
    },
    {
      "inputs": [
        {
          "internalType": "uint256",
          "name": "_DataId",
          "type": "uint256"
        }
      ],
      "name": "deleteData",
      "outputs": [],
      "stateMutability": "nonpayable",
      "type": "function"
    },
    {
      "inputs": [
        {
          "internalType": "uint256",
          "name": "_BatchId",
          "type": "uint256"
        }
      ],
      "name": "deleteDataBatch",
      "outputs": [],
      "stateMutability": "nonpayable",
      "type": "function"
    },
    {
      "inputs": [
        {
          "internalType": "address",
          "name": "_voter",
          "type": "address"
        },
        {
          "internalType": "uint256",
          "name": "_DataBatchId",
          "type": "uint256"
        }
      ],
      "name": "didCommit",
      "outputs": [
        {
          "internalType": "bool",
          "name": "committed",
          "type": "bool"
        }
      ],
      "stateMutability": "view",
      "type": "function"
    },
    {
      "inputs": [
        {
          "internalType": "address",
          "name": "_voter",
          "type": "address"
        },
        {
          "internalType": "uint256",
          "name": "_DataBatchId",
          "type": "uint256"
        }
      ],
      "name": "didReveal",
      "outputs": [
        {
          "internalType": "bool",
          "name": "revealed",
          "type": "bool"
        }
      ],
      "stateMutability": "view",
      "type": "function"
    },
    {
      "inputs": [
        {
          "internalType": "uint256",
          "name": "_k",
          "type": "uint256"
        },
        {
          "internalType": "uint256",
          "name": "N_range",
          "type": "uint256"
        }
      ],
      "name": "generateIntegers",
      "outputs": [
        {
          "internalType": "uint256[]",
          "name": "",
          "type": "uint256[]"
        }
      ],
      "stateMutability": "view",
      "type": "function"
    },
    {
      "inputs": [],
      "name": "getAcceptedBatchesCount",
      "outputs": [
        {
          "internalType": "uint256",
          "name": "count",
          "type": "uint256"
        }
      ],
      "stateMutability": "view",
      "type": "function"
    },
    {
      "inputs": [],
      "name": "getActiveWorkersCount",
      "outputs": [
        {
          "internalType": "uint256",
          "name": "numWorkers",
          "type": "uint256"
        }
      ],
      "stateMutability": "view",
      "type": "function"
    },
    {
      "inputs": [
        {
          "internalType": "uint256",
          "name": "_DataBatchId",
          "type": "uint256"
        }
      ],
      "name": "getBatchByID",
      "outputs": [
        {
          "components": [
            {
              "internalType": "uint256",
              "name": "start_idx",
              "type": "uint256"
            },
            {
              "internalType": "uint256",
              "name": "counter",
              "type": "uint256"
            },
            {
              "internalType": "uint256",
              "name": "uncommited_workers",
              "type": "uint256"
            },
            {
              "internalType": "uint256",
              "name": "unrevealed_workers",
              "type": "uint256"
            },
            {
              "internalType": "uint256",
              "name": "item_count",
              "type": "uint256"
            },
            {
              "internalType": "bool",
              "name": "complete",
              "type": "bool"
            },
            {
              "internalType": "bool",
              "name": "checked",
              "type": "bool"
            },
            {
              "internalType": "bool",
              "name": "allocated_to_work",
              "type": "bool"
            },
            {
              "internalType": "uint256",
              "name": "commitEndDate",
              "type": "uint256"
            },
            {
              "internalType": "uint256",
              "name": "revealEndDate",
              "type": "uint256"
            },
            {
              "internalType": "uint256",
              "name": "votesFor",
              "type": "uint256"
            },
            {
              "internalType": "uint256",
              "name": "votesAgainst",
              "type": "uint256"
            },
            {
              "internalType": "string",
              "name": "batchIPFSfile",
              "type": "string"
            },
            {
              "internalType": "enum DataFormatting.DataStatus",
              "name": "status",
              "type": "uint8"
            }
          ],
          "internalType": "struct DataFormatting.BatchMetadata",
          "name": "batch",
          "type": "tuple"
        }
      ],
      "stateMutability": "view",
      "type": "function"
    },
    {
      "inputs": [
        {
          "internalType": "uint256",
          "name": "_DataBatchId",
          "type": "uint256"
        }
      ],
      "name": "getBatchIPFSFileByID",
      "outputs": [
        {
          "internalType": "string",
          "name": "batch",
          "type": "string"
        }
      ],
      "stateMutability": "view",
      "type": "function"
    },
    {
      "inputs": [
        {
          "internalType": "address",
          "name": "_voter",
          "type": "address"
        },
        {
          "internalType": "uint256",
          "name": "_DataBatchId",
          "type": "uint256"
        }
      ],
      "name": "getCommitHash",
      "outputs": [
        {
          "internalType": "bytes32",
          "name": "commitHash",
          "type": "bytes32"
        }
      ],
      "stateMutability": "view",
      "type": "function"
    },
    {
      "inputs": [
        {
          "internalType": "uint256",
          "name": "_DataId",
          "type": "uint256"
        }
      ],
      "name": "getDataByID",
      "outputs": [
        {
          "components": [
            {
              "internalType": "string",
              "name": "ipfs_hash",
              "type": "string"
            },
            {
              "internalType": "address",
              "name": "author",
              "type": "address"
            },
            {
              "internalType": "uint256",
              "name": "timestamp",
              "type": "uint256"
            },
            {
              "internalType": "enum DataFormatting.DataStatus",
              "name": "status",
              "type": "uint8"
            }
          ],
          "internalType": "struct DataFormatting.FormattedData",
          "name": "data",
          "type": "tuple"
        }
      ],
      "stateMutability": "view",
      "type": "function"
    },
    {
      "inputs": [
        {
          "internalType": "string",
          "name": "_hash",
          "type": "string"
        },
        {
          "internalType": "uint256",
          "name": "_salt",
          "type": "uint256"
        }
      ],
      "name": "getEncryptedStringHash",
      "outputs": [
        {
          "internalType": "bytes32",
          "name": "keccak256hash",
          "type": "bytes32"
        }
      ],
      "stateMutability": "pure",
      "type": "function"
    },
    {
      "inputs": [
        {
          "internalType": "uint256",
          "name": "_DataBatchId",
          "type": "uint256"
        }
      ],
      "name": "getIPFShashesForBatch",
      "outputs": [
        {
          "internalType": "string[]",
          "name": "",
          "type": "string[]"
        }
      ],
      "stateMutability": "view",
      "type": "function"
    },
    {
      "inputs": [
        {
          "internalType": "address",
          "name": "_voter",
          "type": "address"
        },
        {
          "internalType": "uint256",
          "name": "_numTokens",
          "type": "uint256"
        },
        {
          "internalType": "uint256",
          "name": "_DataBatchId",
          "type": "uint256"
        }
      ],
      "name": "getInsertPointForNumTokens",
      "outputs": [
        {
          "internalType": "uint256",
          "name": "prevNode",
          "type": "uint256"
        }
      ],
      "stateMutability": "view",
      "type": "function"
    },
    {
      "inputs": [],
      "name": "getLastAllocatedBatchId",
      "outputs": [
        {
          "internalType": "uint256",
          "name": "LastAllocatedBatchId",
          "type": "uint256"
        }
      ],
      "stateMutability": "view",
      "type": "function"
    },
    {
      "inputs": [],
      "name": "getLastBatchId",
      "outputs": [
        {
          "internalType": "uint256",
          "name": "LastBatchId",
          "type": "uint256"
        }
      ],
      "stateMutability": "view",
      "type": "function"
    },
    {
      "inputs": [],
      "name": "getLastCheckedBatchId",
      "outputs": [
        {
          "internalType": "uint256",
          "name": "LastCheckedBatchId",
          "type": "uint256"
        }
      ],
      "stateMutability": "view",
      "type": "function"
    },
    {
      "inputs": [],
      "name": "getLastDataId",
      "outputs": [
        {
          "internalType": "uint256",
          "name": "DataId",
          "type": "uint256"
        }
      ],
      "stateMutability": "view",
      "type": "function"
    },
    {
      "inputs": [
        {
          "internalType": "address",
          "name": "_voter",
          "type": "address"
        }
      ],
      "name": "getLastNode",
      "outputs": [
        {
          "internalType": "uint256",
          "name": "DataID",
          "type": "uint256"
        }
      ],
      "stateMutability": "view",
      "type": "function"
    },
    {
      "inputs": [
        {
          "internalType": "address",
          "name": "_voter",
          "type": "address"
        }
      ],
      "name": "getLockedTokens",
      "outputs": [
        {
          "internalType": "uint256",
          "name": "numTokens",
          "type": "uint256"
        }
      ],
      "stateMutability": "view",
      "type": "function"
    },
    {
      "inputs": [],
      "name": "getMySystemTokenBalance",
      "outputs": [
        {
          "internalType": "uint256",
          "name": "tokens",
          "type": "uint256"
        }
      ],
      "stateMutability": "view",
      "type": "function"
    },
    {
      "inputs": [
        {
          "internalType": "address",
          "name": "_voter",
          "type": "address"
        },
        {
          "internalType": "uint256",
          "name": "_DataBatchId",
          "type": "uint256"
        },
        {
          "internalType": "uint256",
          "name": "_salt",
          "type": "uint256"
        }
      ],
      "name": "getNumPassingTokens",
      "outputs": [
        {
          "internalType": "uint256",
          "name": "correctFormatChecks",
          "type": "uint256"
        }
      ],
      "stateMutability": "view",
      "type": "function"
    },
    {
      "inputs": [
        {
          "internalType": "address",
          "name": "_voter",
          "type": "address"
        },
        {
          "internalType": "uint256",
          "name": "_DataBatchId",
          "type": "uint256"
        }
      ],
      "name": "getNumTokens",
      "outputs": [
        {
          "internalType": "uint256",
          "name": "numTokens",
          "type": "uint256"
        }
      ],
      "stateMutability": "view",
      "type": "function"
    },
    {
      "inputs": [],
      "name": "getRandom",
      "outputs": [
        {
          "internalType": "uint256",
          "name": "",
          "type": "uint256"
        }
      ],
      "stateMutability": "view",
      "type": "function"
    },
    {
      "inputs": [],
      "name": "getRejectedBatchesCount",
      "outputs": [
        {
          "internalType": "uint256",
          "name": "count",
          "type": "uint256"
        }
      ],
      "stateMutability": "view",
      "type": "function"
    },
    {
      "inputs": [],
      "name": "getSeed",
      "outputs": [
        {
          "internalType": "bytes32",
          "name": "addr",
          "type": "bytes32"
        }
      ],
      "stateMutability": "view",
      "type": "function"
    },
    {
      "inputs": [
        {
          "internalType": "address",
          "name": "_user",
          "type": "address"
        }
      ],
      "name": "getSystemTokenBalance",
      "outputs": [
        {
          "internalType": "uint256",
          "name": "tokens",
          "type": "uint256"
        }
      ],
      "stateMutability": "view",
      "type": "function"
    },
    {
      "inputs": [
        {
          "internalType": "uint256",
          "name": "_DataBatchId",
          "type": "uint256"
        }
      ],
      "name": "getTotalNumberOfFormatChecks",
      "outputs": [
        {
          "internalType": "uint256",
          "name": "vc",
          "type": "uint256"
        }
      ],
      "stateMutability": "view",
      "type": "function"
    },
    {
      "inputs": [],
      "name": "getTxCounter",
      "outputs": [
        {
          "internalType": "uint256",
          "name": "Counter",
          "type": "uint256"
        }
      ],
      "stateMutability": "view",
      "type": "function"
    },
    {
      "inputs": [
        {
          "internalType": "uint256",
          "name": "_terminationDate",
          "type": "uint256"
        }
      ],
      "name": "isExpired",
      "outputs": [
        {
          "internalType": "bool",
          "name": "expired",
          "type": "bool"
        }
      ],
      "stateMutability": "view",
      "type": "function"
    },
    {
      "inputs": [
        {
          "internalType": "uint256",
          "name": "_DataBatchId",
          "type": "uint256"
        }
      ],
      "name": "isPassed",
      "outputs": [
        {
          "internalType": "bool",
          "name": "passed",
          "type": "bool"
        }
      ],
      "stateMutability": "view",
      "type": "function"
    },
    {
      "inputs": [
        {
          "internalType": "uint256",
          "name": "_DataBatchId",
          "type": "uint256"
        },
        {
          "internalType": "address",
          "name": "_worker",
          "type": "address"
        }
      ],
      "name": "isWorkerAllocatedToBatch",
      "outputs": [
        {
          "internalType": "bool",
          "name": "",
          "type": "bool"
        }
      ],
      "stateMutability": "view",
      "type": "function"
    },
    {
      "inputs": [
        {
          "internalType": "address",
          "name": "_worker",
          "type": "address"
        }
      ],
      "name": "isWorkerRegistered",
      "outputs": [
        {
          "internalType": "bool",
          "name": "passed",
          "type": "bool"
        }
      ],
      "stateMutability": "view",
      "type": "function"
    },
    {
      "inputs": [],
      "name": "owner",
      "outputs": [
        {
          "internalType": "address",
          "name": "",
          "type": "address"
        }
      ],
      "stateMutability": "view",
      "type": "function"
    },
    {
      "inputs": [
        {
          "internalType": "uint256",
          "name": "k",
          "type": "uint256"
        },
        {
          "internalType": "uint256",
          "name": "N",
          "type": "uint256"
        }
      ],
      "name": "random_selection",
      "outputs": [
        {
          "internalType": "uint256[]",
          "name": "",
          "type": "uint256[]"
        }
      ],
      "stateMutability": "view",
      "type": "function"
    },
    {
      "inputs": [],
      "name": "renounceOwnership",
      "outputs": [],
      "stateMutability": "nonpayable",
      "type": "function"
    },
    {
      "inputs": [
        {
          "internalType": "uint256",
          "name": "_DataBatchId",
          "type": "uint256"
        }
      ],
      "name": "rescueTokens",
      "outputs": [],
      "stateMutability": "nonpayable",
      "type": "function"
    },
    {
      "inputs": [
        {
          "internalType": "uint256[]",
          "name": "_DataBatchIDs",
          "type": "uint256[]"
        }
      ],
      "name": "rescueTokensInMultipleDatas",
      "outputs": [],
      "stateMutability": "nonpayable",
      "type": "function"
    },
    {
      "inputs": [
        {
          "internalType": "uint256",
          "name": "_DataBatchId",
          "type": "uint256"
        },
        {
          "internalType": "uint256",
          "name": "_voteOption",
          "type": "uint256"
        },
        {
          "internalType": "string",
          "name": "_clearIPFSHash",
          "type": "string"
        },
        {
          "internalType": "uint256",
          "name": "_salt",
          "type": "uint256"
        }
      ],
      "name": "revealFormatCheck",
      "outputs": [],
      "stateMutability": "nonpayable",
      "type": "function"
    },
    {
      "inputs": [
        {
          "internalType": "uint256",
          "name": "_DataBatchId",
          "type": "uint256"
        }
      ],
      "name": "revealPeriodActive",
      "outputs": [
        {
          "internalType": "bool",
          "name": "active",
          "type": "bool"
        }
      ],
      "stateMutability": "view",
      "type": "function"
    },
    {
      "inputs": [],
      "name": "sFuel",
      "outputs": [
        {
          "internalType": "address",
          "name": "",
          "type": "address"
        }
      ],
      "stateMutability": "view",
      "type": "function"
    },
    {
      "inputs": [
        {
          "internalType": "uint256",
          "name": "N",
          "type": "uint256"
        }
      ],
      "name": "shuffle_array",
      "outputs": [
        {
          "internalType": "uint256[]",
          "name": "",
          "type": "uint256[]"
        }
      ],
      "stateMutability": "view",
      "type": "function"
    },
    {
      "inputs": [
        {
          "internalType": "uint256",
          "name": "",
          "type": "uint256"
        }
      ],
      "name": "toUnregisterWorkers",
      "outputs": [
        {
          "internalType": "address",
          "name": "",
          "type": "address"
        }
      ],
      "stateMutability": "view",
      "type": "function"
    },
    {
      "inputs": [],
      "name": "token",
      "outputs": [
        {
          "internalType": "contract IERC20",
          "name": "",
          "type": "address"
        }
      ],
      "stateMutability": "view",
      "type": "function"
    },
    {
      "inputs": [
        {
          "internalType": "address",
          "name": "newOwner",
          "type": "address"
        }
      ],
      "name": "transferOwnership",
      "outputs": [],
      "stateMutability": "nonpayable",
      "type": "function"
    },
    {
      "inputs": [
        {
          "internalType": "address",
          "name": "addr",
          "type": "address"
        }
      ],
      "name": "updateAddressManager",
      "outputs": [],
      "stateMutability": "nonpayable",
      "type": "function"
    },
    {
      "inputs": [
        {
          "internalType": "address",
          "name": "addr",
          "type": "address"
        }
      ],
      "name": "updateArchiveManager",
      "outputs": [],
      "stateMutability": "nonpayable",
      "type": "function"
    },
    {
      "inputs": [
        {
          "internalType": "address",
          "name": "addr",
          "type": "address"
        }
      ],
      "name": "updateParametersManager",
      "outputs": [],
      "stateMutability": "nonpayable",
      "type": "function"
    },
    {
      "inputs": [
        {
          "internalType": "address",
          "name": "addr",
          "type": "address"
        }
      ],
      "name": "updateRepManager",
      "outputs": [],
      "stateMutability": "nonpayable",
      "type": "function"
    },
    {
      "inputs": [
        {
          "internalType": "address",
          "name": "addr",
          "type": "address"
        }
      ],
      "name": "updateRewardManager",
      "outputs": [],
      "stateMutability": "nonpayable",
      "type": "function"
    },
    {
      "inputs": [
        {
          "internalType": "address",
          "name": "addr",
          "type": "address"
        }
      ],
      "name": "updateSpotManager",
      "outputs": [],
      "stateMutability": "nonpayable",
      "type": "function"
    },
    {
      "inputs": [
        {
          "internalType": "address",
          "name": "addr",
          "type": "address"
        }
      ],
      "name": "updateStakeManager",
      "outputs": [],
      "stateMutability": "nonpayable",
      "type": "function"
    },
    {
      "inputs": [
        {
          "internalType": "address",
          "name": "_sFuel",
          "type": "address"
        }
      ],
      "name": "updatesFuelFaucet",
      "outputs": [],
      "stateMutability": "nonpayable",
      "type": "function"
    },
    {
      "inputs": [
        {
          "internalType": "uint256",
          "name": "_prevID",
          "type": "uint256"
        },
        {
          "internalType": "uint256",
          "name": "_nextID",
          "type": "uint256"
        },
        {
          "internalType": "address",
          "name": "_voter",
          "type": "address"
        },
        {
          "internalType": "uint256",
          "name": "_numTokens",
          "type": "uint256"
        }
      ],
      "name": "validPosition",
      "outputs": [
        {
          "internalType": "bool",
          "name": "APPROVED",
          "type": "bool"
        }
      ],
      "stateMutability": "view",
      "type": "function"
    },
    {
      "inputs": [
        {
          "internalType": "uint256",
          "name": "_numTokens",
          "type": "uint256"
        }
      ],
      "name": "withdrawVotingRights",
      "outputs": [],
      "stateMutability": "nonpayable",
      "type": "function"
    }
  ],
  "bytecode": "0x60806040526000601455600160155560016016556001601755600160185560006019556000601a556000601b556000601c556000601d553480156200004357600080fd5b50604051620083b8380380620083b8833981016040819052620000669162000108565b6200007a62000074620000b4565b620000b8565b6001600160a01b0381166200008e57600080fd5b601e80546001600160a01b0319166001600160a01b039290921691909117905562000138565b3390565b600080546001600160a01b038381166001600160a01b0319831681178455604051919092169283917f8be0079c531659141344cd1fd0a4f28419497f9722a3daafe3b4186f6b6457e09190a35050565b6000602082840312156200011a578081fd5b81516001600160a01b038116811462000131578182fd5b9392505050565b61827080620001486000396000f3fe608060405234801561001057600080fd5b50600436106106235760003560e01c80639fc9c52f11610336578063d901402b116101c3578063eb1322ff1161010f578063f716596d116100ad578063f96305f011610087578063f96305f014610ce4578063fc0c546a14610cec578063fca4956314610cf4578063ff43de9d14610d0757610623565b8063f716596d14610cc1578063f721de4a14610cc9578063f80a23fd14610cdc57610623565b8063f2d9e74d116100e9578063f2d9e74d14610c8b578063f2fde38b14610c93578063f4cdfcc414610ca6578063f5ae7c7d14610cb957610623565b8063eb1322ff14610c5b578063ed8becfa14610c63578063ef4fcdad14610c8357610623565b8063dd6186821161017c578063e44c974b11610156578063e44c974b14610c0f578063e604c12714610c22578063e798a7da14610c35578063e7b1d43c14610c4857610623565b8063dd61868214610be1578063df05368e14610bf4578063e1f7a43014610c0757610623565b8063d901402b14610b78578063d9548e5314610b8b578063d9845fb814610b9e578063da14563a14610bbe578063db687c1714610bc6578063dd15f09514610bd957610623565b8063b1d7ea9811610282578063d186981d1161023b578063d6b0206c11610215578063d6b0206c14610b42578063d822ce0114610b4a578063d8645d3714610b5d578063d8b7567414610b6557610623565b8063d186981d14610b14578063d420ec0b14610b27578063d58f575c14610b3a57610623565b8063b1d7ea9814610a95578063b43bd06914610ab5578063b8f011b314610ac8578063c47c4bc214610adb578063c4e4f82a14610aee578063d138209214610b0157610623565b8063a511dba0116102ef578063aacc5a17116102c9578063aacc5a1714610a5f578063ab43e78d14610a67578063b10aa58414610a6f578063b1a2e0be14610a8257610623565b8063a511dba014610a31578063a905779014610a39578063aa7ca46414610a4c57610623565b80639fc9c52f146109d5578063a0e71c15146109e8578063a1103f37146109fb578063a1b6b5b714610a0e578063a350715a14610a16578063a4439dc514610a1e57610623565b8063515535e8116104b45780637f9510a2116104005780638473850b116103b95780638da5cb5b116103935780638da5cb5b1461099f5780638df0296e146109a757806397603560146109ba5780639769d846146109cd57610623565b80638473850b1461095b57806388d072eb146109635780638c89d0271461097657610623565b80637f9510a2146108e55780637f97e836146108ed5780637fabe35b14610900578063819b02931461092d578063821aa8c01461094057806383cc6ef21461095357610623565b80636a192ff51161046d5780637074222b116104475780637074222b146108af578063715018a6146108c257806371880b1b146108ca5780637a34da67146108dd57610623565b80636a192ff5146108665780636b1485a3146108895780636b2d95d41461089c57610623565b8063515535e81461080857806351912f29146108105780635a452943146108185780635b113a55146108385780636371d81f1461084b578063667bf0f81461085e57610623565b806339e7357c1161057357806347fe2d201161052c578063494031831161050657806349403183146107bc5780634d4b7d9b146107cf5780634d884281146107e25780634fe8b4c1146107f557610623565b806347fe2d201461079957806348257dc9146107a15780634852e2f0146107b457610623565b806339e7357c1461073257806340fbaae41461073a578063427fa1d21461074d578063441c77c0146107605780634671ace51461077357806346a7aea61461078657610623565b8063275c2590116105e05780632d917c68116105ba5780632d917c68146106d95780632f469fd1146106ec5780633538af821461070c578063353f44d01461071f57610623565b8063275c2590146106a957806329a47bc7146106b15780632c052031146106c657610623565b8063050eb2eb14610628578063059576231461063d5780630e6661a714610650578063154fd39b1461066e578063226ed3001461067657806325a89a9c14610696575b600080fd5b61063b610636366004616ae8565b610d0f565b005b61063b61064b366004616ae8565b610d79565b610658610dda565b6040516106659190617029565b60405180910390f35b610658610de0565b610689610684366004616dfa565b610de6565b6040516106659190617168565b61063b6106a4366004616e52565b610e30565b61063b61146a565b6106b961158e565b604051610665919061705c565b6106586106d4366004616b4b565b61159d565b6106896106e7366004616b20565b61173a565b6106ff6106fa366004616e23565b61175a565b6040516106659190617173565b6106b961071a366004616dfa565b6117ff565b61065861072d366004616ae8565b611829565b61065861183b565b61063b610748366004616f08565b611858565b61065861075b366004616ae8565b611bbc565b61068961076e366004616dfa565b611c5c565b61063b610781366004616dfa565b611cb6565b61063b610794366004616ae8565b611d26565b610658611d87565b61063b6107af366004616dfa565b611d8d565b6106586121c4565b6106896107ca366004616dfa565b6121ca565b6106896107dd366004616dfa565b612415565b61063b6107f0366004616ae8565b61242a565b61063b610803366004616dfa565b61248b565b61065861250b565b6106b9612511565b61082b610826366004616dfa565b612520565b6040516106659190617f5c565b610658610846366004616e23565b612643565b61063b610859366004616dfa565b612660565b61063b612715565b610879610874366004616dfa565b612d1a565b60405161066594939291906171b0565b61063b610897366004616dfa565b612dd9565b6106586108aa366004616ae8565b613c4e565b6106586108bd366004616ae8565b613c5d565b61063b613c78565b6106586108d8366004616dfa565b613cc3565b6106b9613d00565b610658613d0f565b6106896108fb366004616b20565b613d26565b61091361090e366004616dfa565b613d7c565b6040516106659e9d9c9b9a99989796959493929190617ffb565b61068961093b366004616eca565b613e7b565b6106b961094e366004616dfa565b613ebc565b6106b9613ecc565b610658613edb565b6106ff610971366004616e23565b613ee1565b610989610984366004616ae8565b613f05565b6040516106659a99989796959493929190617070565b6106b9613f68565b6106b96109b5366004616ea9565b613f77565b61063b6109c8366004616dfa565b613faf565b61065861415e565b61063b6109e3366004616b7f565b614164565b6106586109f6366004616dfa565b6141b6565b610658610a09366004616b20565b6141da565b61065861420d565b610658614213565b610689610a2c366004616dfa565b614219565b61065861427b565b610689610a47366004616c3f565b614281565b610689610a5a366004616b20565b6142e7565b61065861433a565b6106b96143ef565b6106b9610a7d366004616dfa565b6143fe565b610689610a90366004616ae8565b61440e565b610aa8610aa3366004616ea9565b6144db565b6040516106659190617124565b610658610ac3366004616b4b565b6146e2565b610aa8610ad6366004616ea9565b6147ce565b61063b610ae9366004616ae8565b614936565b610658610afc366004616dfa565b614997565b610658610b0f366004616b20565b6149d4565b610689610b22366004616e23565b614a69565b610689610b35366004616b20565b614b44565b610658614b64565b610658614b6a565b6106b9610b58366004616b20565b614b70565b6106b9614b8c565b610658610b73366004616e23565b614b9b565b610658610b86366004616b20565b614bb8565b610689610b99366004616dfa565b614bfd565b610bb1610bac366004616dfa565b614c02565b6040516106659190617de2565b61063b614d86565b61063b610bd4366004616ae8565b614fb3565b6106b9615014565b61063b610bef366004616ae8565b615023565b61063b610c02366004616ae8565b615084565b6106586150e5565b610aa8610c1d366004616dfa565b6150f8565b6106ff610c30366004616dfa565b615171565b610689610c43366004616ae8565b615227565b61063b610c56366004616dfa565b615248565b610658615390565b610c76610c71366004616dfa565b615396565b60405161066591906170c4565b61065861572d565b610658615733565b61063b610ca1366004616ae8565b615739565b610658610cb4366004616c9f565b6157a7565b6106586157bc565b61063b6157c2565b610689610cd7366004616dfa565b615ca7565b610689615caf565b610658615cc8565b6106b9615cce565b610658610d02366004616ae8565b615cdd565b6106b9615d85565b610d17615d94565b6001600160a01b0316610d28613f68565b6001600160a01b031614610d575760405162461bcd60e51b8152600401610d4e90617886565b60405180910390fd5b602180546001600160a01b0319166001600160a01b0392909216919091179055565b610d81615d94565b6001600160a01b0316610d92613f68565b6001600160a01b031614610db85760405162461bcd60e51b8152600401610d4e90617886565b602580546001600160a01b0319166001600160a01b0392909216919091179055565b60145481565b60185490565b6000610df182615ca7565b610e0d5760405162461bcd60e51b8152600401610d4e90617d6d565b6000828152600a6020526040902060070154610e2890614bfd565b90505b919050565b610e38615d98565b610e4184614219565b610e5d5760405162461bcd60e51b8152600401610d4e906174b3565b33600090815260016020908152604080832087845290915290205460ff1615610e985760405162461bcd60e51b8152600401610d4e90617b46565b610ea28433614a69565b610ebe5760405162461bcd60e51b8152600401610d4e906174ea565b602554604080516323aea69160e01b815290516000926001600160a01b0316916323aea691916004808301926020929190829003018186803b158015610f0357600080fd5b505afa158015610f17573d6000803e3d6000fd5b505050506040513d601f19601f82011682018060405250810190610f3b9190616e12565b60225460405163792f4f6960e11b81529192506000916001600160a01b039091169063f25e9ed290610f7190339060040161705c565b60206040518083038186803b158015610f8957600080fd5b505afa158015610f9d573d6000803e3d6000fd5b505050506040513d601f19601f82011682018060405250810190610fc19190616b04565b336000908152600c602052604090205490915082111561106a576001600160a01b03811615611041576001600160a01b0381166000908152600c602052604090205482111561103c576001600160a01b0381166000908152600c602052604081205461102e908490615f20565b905061103a8183615f2c565b505b61106a565b336000908152600c602052604081205461105c908490615f20565b90506110688133615f2c565b505b336000908152600c60205260409020548211156110995760405162461bcd60e51b8152600401610d4e90617bd1565b6000336000908152600760205260408082209051631b23afef60e21b815273__$6ffa5bf1f4fa681f07e1987a80577d5f4e$__91636c8ebfbc916110e29190869060040161704e565b60206040518083038186803b1580156110fa57600080fd5b505af415801561110e573d6000803e3d6000fd5b505050506040513d601f19601f820116820180604052508101906111329190616e12565b9050878114156111d75733600090815260076020526040908190209051631b23afef60e21b815273__$6ffa5bf1f4fa681f07e1987a80577d5f4e$__91636c8ebfbc9161118491908c9060040161704e565b60206040518083038186803b15801561119c57600080fd5b505af41580156111b0573d6000803e3d6000fd5b505050506040513d601f19601f820116820180604052508101906111d49190616e12565b90505b6111e382823387613e7b565b6111ff5760405162461bcd60e51b8152600401610d4e90617752565b3360009081526007602052604090819020905163f3a1998360e01b815273__$6ffa5bf1f4fa681f07e1987a80577d5f4e$__9163f3a199839161124b919086908d908790600401617f41565b60006040518083038186803b15801561126357600080fd5b505af4158015611277573d6000803e3d6000fd5b505050506000611287338a6141da565b604051633416d70d60e21b815290915073__$d865f21674766f31b0d600e4a95b721b57$__9063d05b5c34906112c69060089085908a90600401617f23565b60006040518083038186803b1580156112de57600080fd5b505af41580156112f2573d6000803e3d6000fd5b5050604051633416d70d60e21b815273__$d865f21674766f31b0d600e4a95b721b57$__925063d05b5c3491506113329060089085908d90600401617ed7565b60006040518083038186803b15801561134a57600080fd5b505af415801561135e573d6000803e3d6000fd5b50505060008a8152600560209081526040808320338085529083528184208c90558d845260068352818420908452825290912088516113a293509091890190616869565b50336000908152600b602090815260408083208c8452600a909252909120600201546113cf906001615f20565b60008b8152600a602090815260408083206002019390935542600485015533825260018082528383208e8452909152918120805460ff1916831790556019805490919061141d9084906180e7565b909155505060405133908b907f1b5c5140592c554fa4c0cdb5b3d3cd50f87aa84e477afd0b6c93d7702ef9c73c90611456908a90617029565b60405180910390a350505050505050505050565b611472615d98565b336000908152600b60205260409020600581015460ff1615156001146114aa5760405162461bcd60e51b8152600401610d4e9061783a565b6001810154158015906114c757506005810154610100900460ff16155b156114e25760058101805461ff001916610100179055611573565b6001810154156115045760405162461bcd60e51b8152600401610d4e90617780565b61150d33616034565b6115163361618c565b80546001600160a01b031916339081178255426004830181905560058301805460ff191690556040517f9dadcedba048e92b943ea1c5861cee1df63a566d7f795869c004780c1c698e2b9161156a91617029565b60405180910390a25b60016019600082825461158691906180e7565b909155505050565b6020546001600160a01b031681565b6000806115a985611bbc565b905060006115b786836149d4565b90505b811561172f576115ca86836149d4565b9050848111611687578382141561167f576001600160a01b03861660009081526007602052604090819020905163215e94cf60e01b815273__$6ffa5bf1f4fa681f07e1987a80577d5f4e$__9163215e94cf9161162c9190869060040161704e565b60206040518083038186803b15801561164457600080fd5b505af4158015611658573d6000803e3d6000fd5b505050506040513d601f19601f8201168201806040525081019061167c9190616e12565b91505b509050611733565b6001600160a01b03861660009081526007602052604090819020905163215e94cf60e01b815273__$6ffa5bf1f4fa681f07e1987a80577d5f4e$__9163215e94cf916116d89190869060040161704e565b60206040518083038186803b1580156116f057600080fd5b505af4158015611704573d6000803e3d6000fd5b505050506040513d601f19601f820116820180604052508101906117289190616e12565b91506115ba565b5090505b9392505050565b600160209081526000928352604080842090915290825290205460ff1681565b60046020908152600092835260408084209091529082529020805461177e90618179565b80601f01602080910402602001604051908101604052809291908181526020018280546117aa90618179565b80156117f75780601f106117cc576101008083540402835291602001916117f7565b820191906000526020600020905b8154815290600101906020018083116117da57829003601f168201915b505050505081565b6010818154811061180f57600080fd5b6000918252602090912001546001600160a01b0316905081565b600c6020526000908152604090205481565b60405160009080602081848060185afa61185157fe5b5051919050565b611860615d98565b61186984611c5c565b6118855760405162461bcd60e51b8152600401610d4e90617a14565b33600090815260016020908152604080832087845290915290205460ff166118bf5760405162461bcd60e51b8152600401610d4e906175f2565b33600090815260026020908152604080832087845290915290205460ff16156118fa5760405162461bcd60e51b8152600401610d4e90617d96565b6119043385614bb8565b61190e83836157a7565b1461192b5760405162461bcd60e51b8152600401610d4e90617918565b600061193733866149d4565b9050836001141561196e576000858152600a6020526040812060080180548392906119639084906180e7565b909155506119959050565b6000858152600a60205260408120600901805483929061198f9084906180e7565b90915550505b33600090815260076020526040908190209051634dab476560e01b815273__$6ffa5bf1f4fa681f07e1987a80577d5f4e$__91634dab4765916119dd9190899060040161704e565b60006040518083038186803b1580156119f557600080fd5b505af4158015611a09573d6000803e3d6000fd5b50503360008181526002602090815260408083208b84528252808320805460ff191660011790556003825280832084845282528083208a90558a8352600482528083209383529281529190208651611a68945090925090860190616869565b50336000908152600b60209081526040808320888452600a90925290912060030154611a95906001615f20565b6000878152600a602052604090206003015560028101805460ff19166001179055426004820155611ac53361618c565b600581015460ff1615611b2257611adb336162bc565b611b2257601080546001810182556000919091527f1b6847dc741a1b0cd08d278845f9d819d87b734759afb55fe2de5cb82a9ae6720180546001600160a01b031916331790555b6000868152600a6020526040902060030154611b4157611b4186612dd9565b600160196000828254611b5491906180e7565b90915550506000868152600a60205260409081902060088101546009909101549151339288928a927f2e5fbeef18eaa8d8ea3b0122bc64445c4daaa6f454dfb889456791a92287f37892611bac928992909190617fe5565b60405180910390a4505050505050565b6001600160a01b038116600090815260076020526040808220905163215e94cf60e01b815273__$6ffa5bf1f4fa681f07e1987a80577d5f4e$__9163215e94cf91611c0c9190859060040161704e565b60206040518083038186803b158015611c2457600080fd5b505af4158015611c38573d6000803e3d6000fd5b505050506040513d601f19601f82011682018060405250810190610e289190616e12565b6000611c6782615ca7565b611c835760405162461bcd60e51b8152600401610d4e90617aa1565b6000828152600a6020526040902060070154611c9e90614bfd565b158015610e285750611caf82614219565b1592915050565b611cbe615d94565b6001600160a01b0316611ccf613f68565b6001600160a01b031614611cf55760405162461bcd60e51b8152600401610d4e90617886565b6000818152600f602052604090205460ff1615611d23576000818152600f60205260409020805460ff191690555b50565b611d2e615d94565b6001600160a01b0316611d3f613f68565b6001600160a01b031614611d655760405162461bcd60e51b8152600401610d4e90617886565b602480546001600160a01b0319166001600160a01b0392909216919091179055565b60175490565b6023546001600160a01b031615801590611db657506000818152600f602052604090205460ff16155b1561157357602354604051637b90ef2560e11b81526001600160a01b039091169063f721de4a90611deb908490600401617029565b602060405180830381600087803b158015611e0557600080fd5b505af1158015611e19573d6000803e3d6000fd5b505050506040513d601f19601f82011682018060405250810190611e3d9190616c25565b1561157357602354604051631b308bf760e31b81526000916001600160a01b03169063d9845fb890611e73908590600401617029565b600060405180830381600087803b158015611e8d57600080fd5b505af1158015611ea1573d6000803e3d6000fd5b505050506040513d6000823e601f3d908101601f19168201604052611ec99190810190616ce1565b6101a08101519091506001816003811115611ef457634e487b7160e01b600052602160045260246000fd5b141561219657604080516080810182526101608401518152336020808301919091524282840152600060608301819052601454815260098252929092208151805192939192611f469284920190616869565b506020820151600182810180546001600160a01b0319166001600160a01b0390931692909217909155604083015160028301556060830151600380840180549293909260ff1916918490811115611fad57634e487b7160e01b600052602160045260246000fd5b0217905550506016546000908152600a602090815260409182902060255483516357716b7f60e01b815293519194506001600160a01b0316926357716b7f926004808301939192829003018186803b15801561200857600080fd5b505afa15801561201c573d6000803e3d6000fd5b505050506040513d601f19601f820116820180604052508101906120409190616e12565b8160010154101561206657600181600101600082825461206091906180e7565b90915550505b602560009054906101000a90046001600160a01b03166001600160a01b03166357716b7f6040518163ffffffff1660e01b815260040160206040518083038186803b1580156120b457600080fd5b505afa1580156120c8573d6000803e3d6000fd5b505050506040513d601f19601f820116820180604052508101906120ec9190616e12565b81600101541061213b57600581018054600160ff19909116811761ff001916909155601680546000906121209084906180e7565b90915550506014546016546000908152600a60205260409020555b612143614d86565b6014546121519060016180e7565b60148190556101608401516040517fe72ee44ad0ed1dfc338f7eec797c944eb218773c1edbb4bb653dd9c1e2a623049161218c913390617186565b60405180910390a2505b50506000818152600f60205260409020805460ff1916600117905560016019600082825461158691906180e7565b601c5481565b6000818152600a6020818152604080842081516101c081018352815481526001820154938101939093526002810154918301919091526003810154606083015260048101546080830152600581015460ff808216151560a08501526101008083048216151560c08601526201000090920416151560e0840152600682015490830152600781015461012083015260088101546101408301526009810154610160830152918201805484939161018084019161228490618179565b80601f01602080910402602001604051908101604052809291908181526020018280546122b090618179565b80156122fd5780601f106122d2576101008083540402835291602001916122fd565b820191906000526020600020905b8154815290600101906020018083116122e057829003601f168201915b5050509183525050600b82015460209091019060ff16600381111561233257634e487b7160e01b600052602160045260246000fd5b600381111561235157634e487b7160e01b600052602160045260246000fd5b90525061016081015161014082015191925061236c916180e7565b602560009054906101000a90046001600160a01b03166001600160a01b031663ea19733c6040518163ffffffff1660e01b815260040160206040518083038186803b1580156123ba57600080fd5b505afa1580156123ce573d6000803e3d6000fd5b505050506040513d601f19601f820116820180604052508101906123f29190616e12565b6123fc9190618113565b61014082015161240d906064618113565b119392505050565b600f6020526000908152604090205460ff1681565b612432615d94565b6001600160a01b0316612443613f68565b6001600160a01b0316146124695760405162461bcd60e51b8152600401610d4e90617886565b601380546001600160a01b0319166001600160a01b0392909216919091179055565b612493615d94565b6001600160a01b03166124a4613f68565b6001600160a01b0316146124ca5760405162461bcd60e51b8152600401610d4e90617886565b6000818152600960205260408120906124e382826168ed565b506001810180546001600160a01b031916905560006002820155600301805460ff1916905550565b60165490565b6021546001600160a01b031681565b612528616929565b6000828152600960205260409081902081516080810190925280548290829061255090618179565b80601f016020809104026020016040519081016040528092919081815260200182805461257c90618179565b80156125c95780601f1061259e576101008083540402835291602001916125c9565b820191906000526020600020905b8154815290600101906020018083116125ac57829003601f168201915b505050918352505060018201546001600160a01b031660208201526002820154604082015260038083015460609092019160ff169081111561261b57634e487b7160e01b600052602160045260246000fd5b600381111561263a57634e487b7160e01b600052602160045260246000fd5b90525092915050565b600560209081526000928352604080842090915290825290205481565b612668615d94565b6001600160a01b0316612679613f68565b6001600160a01b03161461269f5760405162461bcd60e51b8152600401610d4e90617886565b6000818152600a6020819052604082208281556001810183905560028101839055600381018390556004810183905560058101805462ffffff19169055600681018390556007810183905560088101839055600981018390559190612706908301826168ed565b50600b01805460ff1916905550565b6018546000908152600a602052604090206005015460ff166127495760405162461bcd60e51b8152600401610d4e906179be565b6018546000908152600a602052604090206005015462010000900460ff16156127845760405162461bcd60e51b8152600401610d4e906177dd565b60006128a861281d601080549050602560009054906101000a90046001600160a01b03166001600160a01b03166370d29bdf6040518163ffffffff1660e01b815260040160206040518083038186803b1580156127e057600080fd5b505afa1580156127f4573d6000803e3d6000fd5b505050506040513d601f19601f820116820180604052508101906128189190616e12565b61632c565b602560009054906101000a90046001600160a01b03166001600160a01b031663166ff4c76040518163ffffffff1660e01b815260040160206040518083038186803b15801561286b57600080fd5b505afa15801561287f573d6000803e3d6000fd5b505050506040513d601f19601f820116820180604052508101906128a39190616e12565b616342565b601054601880546000908152600a6020908152604080832060030186905592548252828220600201859055602554835163280be64560e21b815293519596509394919361295d936001600160a01b039091169263a02f991492600480840193919291829003018186803b15801561291e57600080fd5b505afa158015612932573d6000803e3d6000fd5b505050506040513d601f19601f820116820180604052508101906129569190616e12565b4290616352565b905060006129f1602560009054906101000a90046001600160a01b03166001600160a01b03166302c5a49f6040518163ffffffff1660e01b815260040160206040518083038186803b1580156129b257600080fd5b505afa1580156129c6573d6000803e3d6000fd5b505050506040513d601f19601f820116820180604052508101906129ea9190616e12565b8390616352565b601880546000908152600a6020526040808220600601869055825482528082206007018490559154815220600501805462ff0000191662010000179055905060018410801590612a42575060018310155b612a5e5760405162461bcd60e51b8152600401610d4e90617469565b6000612a6a85856147ce565b9050600081516001600160401b03811115612a9557634e487b7160e01b600052604160045260246000fd5b604051908082528060200260200182016040528015612abe578160200160208202803683370190505b50905060005b8251811015612b7d576010838281518110612aef57634e487b7160e01b600052603260045260246000fd5b602002602001015181548110612b1557634e487b7160e01b600052603260045260246000fd5b9060005260206000200160009054906101000a90046001600160a01b0316828281518110612b5357634e487b7160e01b600052603260045260246000fd5b6001600160a01b039092166020928302919091019091015280612b75816181b4565b915050612ac4565b5060005b8251811015612ce5576000828281518110612bac57634e487b7160e01b600052603260045260246000fd5b602002602001015190506000600b6000836001600160a01b03166001600160a01b031681526020019081526020016000209050612be882616034565b612bf18261635e565b612c4157601180546001810182556000919091527f31ecc21a745e3968a04e9570e4425bc18fa8019c68028196b546d1669c200c680180546001600160a01b0319166001600160a01b0384161790555b601880546000908152600e602090815260408083208054600180820183559185529290932090910180546001600160a01b0319166001600160a01b03871617905582549184019190915560028301805460ff19169055905490517fe4ee2dfabe57cee15e3f558890b20455f54c1fa0718e5276faad70a6500e6b8c90612cc890859061705c565b60405180910390a250508080612cdd906181b4565b915050612b81565b50601854612cf4906001616352565b601881905550600160196000828254612d0d91906180e7565b9091555050505050505050565b600960205260009081526040902080548190612d3590618179565b80601f0160208091040260200160405190810160405280929190818152602001828054612d6190618179565b8015612dae5780601f10612d8357610100808354040283529160200191612dae565b820191906000526020600020905b815481529060010190602001808311612d9157829003601f168201915b505050506001830154600284015460039094015492936001600160a01b039091169290915060ff1684565b612de281610de6565b80612dfc57506000818152600a6020526040902060030154155b612e185760405162461bcd60e51b8152600401610d4e906178bb565b6000818152600a6020526040902060050154610100900460ff1615612e4f5760405162461bcd60e51b8152600401610d4e90617b05565b6000818152600e6020908152604080832080548251818502810185019093528083529192909190830182828015612eaf57602002820191906000526020600020905b81546001600160a01b03168152600190910190602001808311612e91575b50505050509050600081516001600160401b03811115612edf57634e487b7160e01b600052604160045260246000fd5b604051908082528060200260200182016040528015612f1257816020015b6060815260200190600190039081612efd5790505b509050600082516001600160401b03811115612f3e57634e487b7160e01b600052604160045260246000fd5b604051908082528060200260200182016040528015612f67578160200160208202803683370190505b50905060005b83518110156130ea576000848281518110612f9857634e487b7160e01b600052603260045260246000fd5b60209081029190910181015160008881526004835260408082206001600160a01b0384168352909352918220805491935090612fd390618179565b80601f0160208091040260200160405190810160405280929190818152602001828054612fff90618179565b801561304c5780601f106130215761010080835404028352916020019161304c565b820191906000526020600020905b81548152906001019060200180831161302f57829003601f168201915b50505060008a81526005602090815260408083206001600160a01b03891684529091529020548851939450928492508891508690811061309c57634e487b7160e01b600052603260045260246000fd5b6020026020010181905250808585815181106130c857634e487b7160e01b600052603260045260246000fd5b60200260200101818152505050505080806130e2906181b4565b915050612f6d565b5060006131956064602560009054906101000a90046001600160a01b03166001600160a01b031663ea19733c6040518163ffffffff1660e01b815260040160206040518083038186803b15801561314057600080fd5b505afa158015613154573d6000803e3d6000fd5b505050506040513d601f19601f820116820180604052508101906131789190616e12565b86516131849190618113565b61318e91906180ff565b6001616342565b90506000836000815181106131ba57634e487b7160e01b600052603260045260246000fd5b6020026020010151905060005b84518110156132b0576000805b86518110156132655761323587848151811061320057634e487b7160e01b600052603260045260246000fd5b602002602001015188838151811061322857634e487b7160e01b600052603260045260246000fd5b6020026020010151614281565b15613253576132456001836180e7565b915084821061325357613265565b8061325d816181b4565b9150506131d4565b5083811061329d5785828151811061328d57634e487b7160e01b600052603260045260246000fd5b60200260200101519250506132b0565b50806132a8816181b4565b9150506131c7565b506000836000815181106132d457634e487b7160e01b600052603260045260246000fd5b6020026020010151905060005b84518110156133c3576000805b86518110156133785786818151811061331757634e487b7160e01b600052603260045260246000fd5b602002602001015187848151811061333f57634e487b7160e01b600052603260045260246000fd5b60200260200101511415613366576133586001836180e7565b915085821061336657613378565b80613370816181b4565b9150506132ee565b508481106133b0578582815181106133a057634e487b7160e01b600052603260045260246000fd5b60200260200101519250506133c3565b50806133bb816181b4565b9150506132e1565b5060005b86518110156139b35760008782815181106133f257634e487b7160e01b600052603260045260246000fd5b6020908102919091018101516001600160a01b03811660009081526002835260408082208d8352909352919091205490915060ff166134308261618c565b6001600160a01b0382166000908152600b602052604090208115613894576001600160a01b0383166000818152600b6020908152604080832060028101805460ff191660011790556003018390558e835260048252808320938352929052908120805461349c90618179565b80601f01602080910402602001604051908101604052809291908181526020018280546134c890618179565b80156135155780601f106134ea57610100808354040283529160200191613515565b820191906000526020600020905b8154815290600101906020018083116134f857829003601f168201915b505050505090506135268188614281565b156137f5576022546040516308c0a84360e11b81526000916001600160a01b03169063118150869061355c90889060040161705c565b60206040518083038186803b15801561357457600080fd5b505afa158015613588573d6000803e3d6000fd5b505050506040513d601f19601f820116820180604052508101906135ac9190616b04565b602080546025546040805163f250ae2d60e01b815290519495506001600160a01b0392831694631b6d990a94939092169263f250ae2d92600480840193829003018186803b1580156135fd57600080fd5b505afa158015613611573d6000803e3d6000fd5b505050506040513d601f19601f820116820180604052508101906136359190616e12565b836040518363ffffffff1660e01b8152600401613653929190617fc7565b602060405180830381600087803b15801561366d57600080fd5b505af1158015613681573d6000803e3d6000fd5b505050506040513d601f19601f820116820180604052508101906136a59190616c25565b6136c15760405162461bcd60e51b8152600401610d4e906175a4565b60215460255460408051631deb540360e21b815290516001600160a01b039384169363e0ca50949316916377ad500c916004808301926020929190829003018186803b15801561371057600080fd5b505afa158015613724573d6000803e3d6000fd5b505050506040513d601f19601f820116820180604052508101906137489190616e12565b836040518363ffffffff1660e01b8152600401613766929190617fb0565b602060405180830381600087803b15801561378057600080fd5b505af1158015613794573d6000803e3d6000fd5b505050506040513d601f19601f820116820180604052508101906137b89190616c25565b6137d45760405162461bcd60e51b8152600401610d4e9061738a565b60018360070160008282546137e991906180e7565b90915550613810915050565b600182600801600082825461380a91906180e7565b90915550505b600582015460ff161561388e57613826846162bc565b15801561383d57506005820154610100900460ff16155b1561388e57601080546001810182556000919091527f1b6847dc741a1b0cd08d278845f9d819d87b734759afb55fe2de5cb82a9ae6720180546001600160a01b0319166001600160a01b0386161790555b5061399d565b6005810154610100900460ff16806138aa575081155b1561399d576001600160a01b0383166000908152600b602052604081206003018054600192906138db9084906180e7565b909155505060255460408051634fda48fb60e11b815290516001600160a01b0390921691639fb491f691600480820192602092909190829003018186803b15801561392557600080fd5b505afa158015613939573d6000803e3d6000fd5b505050506040513d601f19601f8201168201806040525081019061395d9190616e12565b6001600160a01b0384166000908152600b6020526040902060030154141561399d5760058101805460ff1916905561399483616034565b61399d8361618c565b50505080806139ab906181b4565b9150506133c7565b506000878152600a6020818152604090922060058101805461ff00191661010017905584516139ea93919092019190850190616869565b506000878152600a60205260409020600401819055613a08876121ca565b15613b4e576000878152600a60205260408120600b01805460ff19166001908117909155601a805491929091613a3f9084906180e7565b90915550506024546040516348257dc960e01b81526001600160a01b03909116906348257dc990613a74908a90600401617029565b602060405180830381600087803b158015613a8e57600080fd5b505af1925050508015613abe575060408051601f3d908101601f19168201909252613abb91810190616c25565b60015b613b2f573d808015613aec576040519150601f19603f3d011682016040523d82523d6000602084013e613af1565b606091505b507f4b87bbd93ba65ede1e2efeca735d9f7a6720bf7d6db0a8355b17dba5b64e578381604051613b219190617173565b60405180910390a150613b49565b600160196000828254613b4291906180e7565b9091555050505b613b83565b6000878152600a60205260408120600b01805460ff19166002179055601b805460019290613b7d9084906180e7565b90915550505b600160196000828254613b9691906180e7565b90915550506000878152600a6020526040812060020154601c805491929091613bc09084906180e7565b90915550506000878152600a6020526040812060030154601d805491929091613bea9084906180e7565b909155505060008781526009602052604090819020600181015491516001600160a01b03909216917fb83f08cf731092d35d6dd4801ac76e3fcc84b1b199915531c9874230d31adeaa91613c3d91617213565b60405180910390a250505050505050565b6000610e2882610b0f84611bbc565b6001600160a01b03166000908152600c602052604090205490565b613c80615d94565b6001600160a01b0316613c91613f68565b6001600160a01b031614613cb75760405162461bcd60e51b8152600401610d4e90617886565b613cc160006163ce565b565b6000613cce82615ca7565b613cea5760405162461bcd60e51b8152600401610d4e90617aa1565b506000908152600a602052604090206007015490565b6022546001600160a01b031681565b601154601054600091613d21916180e7565b905090565b6000613d3182615ca7565b613d4d5760405162461bcd60e51b8152600401610d4e90617aa1565b506001600160a01b038216600090815260016020908152604080832084845290915290205460ff165b92915050565b600a60208190526000918252604090912080546001820154600283015460038401546004850154600586015460068701546007880154600889015460098a01549a8a018054999b989a97999698959760ff80871698610100880482169862010000909804909116969290613def90618179565b80601f0160208091040260200160405190810160405280929190818152602001828054613e1b90618179565b8015613e685780601f10613e3d57610100808354040283529160200191613e68565b820191906000526020600020905b815481529060010190602001808311613e4b57829003601f168201915b505050600b909301549192505060ff168e565b600080613e8884876149d4565b83101590506000613e9985876149d4565b84111580613ea5575085155b9050818015613eb15750805b979650505050505050565b6011818154811061180f57600080fd5b601f546001600160a01b031681565b60165481565b60066020908152600092835260408084209091529082529020805461177e90618179565b600b602052600090815260409020805460018201546002830154600384015460048501546005860154600687015460078801546008909801546001600160a01b0390971697959660ff95861696949593948385169461010090940490931692908a565b6000546001600160a01b031690565b600e6020528160005260406000208181548110613f9357600080fd5b6000918252602090912001546001600160a01b03169150829050565b60016000828152600a60205260409020600b015460ff166003811115613fe557634e487b7160e01b600052602160045260246000fd5b146140025760405162461bcd60e51b8152600401610d4e906172f4565b3360009081526007602052604090819020905163162a54af60e31b815273__$6ffa5bf1f4fa681f07e1987a80577d5f4e$__9163b152a5789161404a9190859060040161704e565b60206040518083038186803b15801561406257600080fd5b505af4158015614076573d6000803e3d6000fd5b505050506040513d601f19601f8201168201806040525081019061409a9190616c25565b6140b65760405162461bcd60e51b8152600401610d4e906176aa565b33600090815260076020526040908190209051634dab476560e01b815273__$6ffa5bf1f4fa681f07e1987a80577d5f4e$__91634dab4765916140fe9190859060040161704e565b60006040518083038186803b15801561411657600080fd5b505af415801561412a573d6000803e3d6000fd5b50506040513392508391507f402507661c8c8cb90e0a796450b8bdd28b6c516f05279c0cd29e84c344e1699a90600090a350565b601a5481565b60005b81518110156141b2576141a082828151811061419357634e487b7160e01b600052603260045260246000fd5b6020026020010151613faf565b806141aa816181b4565b915050614167565b5050565b6000818152600a6020526040812060098101546008909101548291611733916180e7565b600082826040516020016141ef929190617007565b60405160208183030381529060405280519060200120905092915050565b601a5490565b601b5481565b600061422482615ca7565b6142405760405162461bcd60e51b8152600401610d4e90617aa1565b6000828152600a602052604090206006015461425b90614bfd565b158015610e285750506000908152600a6020526040902060020154151590565b60145490565b6000816040516020016142949190617032565b60405160208183030381529060405280519060200120836040516020016142bb9190617032565b6040516020818303038152906040528051906020012014156142df57506001613d76565b506000613d76565b60006142f282615ca7565b61430e5760405162461bcd60e51b8152600401610d4e90617aa1565b506001600160a01b03919091166000908152600260209081526040808320938352929052205460ff1690565b600080424160405160200161434f9190616fea565b6040516020818303038152906040528051906020012060001c61437291906180ff565b4461437b61183b565b60405160200161438b9190617029565b60408051601f1981840301815291905280516020909101206143ad90426180e7565b6143b791906180e7565b6143c191906180e7565b6040516020016143d19190617029565b60408051601f19818403018152919052805160209091012091505090565b6013546001600160a01b031681565b6012818154811061180f57600080fd5b6001600160a01b038082166000908152600b6020908152604080832081516101408101835281549095168552600181015492850192909252600282015460ff90811615801592860183905260038401546060870152600484015460808701526005840154808316151560a088015261010090819004909216151560c0870152600684015460e0870152600784015491860191909152600890920154610120850152919283929091906144ca57506144c88160200151610de6565b155b156144d457600191505b5092915050565b6060600082116144ea57600080fd5b6000416040516020016144fd9190616fea565b6040516020818303038152906040528051906020012060001c61451e61183b565b60405160200161452e9190617029565b60408051601f19818403018152919052805160209091012061455090426180e7565b61455a91906180e7565b60405160200161456a9190617029565b6040516020818303038152906040528051906020012060001c90506000846001600160401b038111156145ad57634e487b7160e01b600052604160045260246000fd5b6040519080825280602002602001820160405280156145d6578160200160208202803683370190505b5090506000805b868210156146d7576000866145f663017efeeb87618132565b8360405160200161460892919061704e565b6040516020818303038152906040528051906020012060001c61462b91906181cf565b90506000805b84811015614683578286828151811061465a57634e487b7160e01b600052603260045260246000fd5b602002602001015114156146715760019150614683565b8061467b816181b4565b915050614631565b50806146c357818585815181106146aa57634e487b7160e01b600052603260045260246000fd5b60209081029190910101526146c08460016180e7565b93505b6146ce8360016180e7565b925050506145dd565b509095945050505050565b60006146ed83610de6565b6147095760405162461bcd60e51b8152600401610d4e90617cc6565b6001600160a01b038416600090815260026020908152604080832086845290915290205460ff1661474c5760405162461bcd60e51b8152600401610d4e90617707565b6000614757846121ca565b614762576000614765565b60015b60ff1690506000818460405160200161477f92919061704e565b60405160208183030381529060405280519060200120905060006147a38787614bb8565b90508082146147c45760405162461bcd60e51b8152600401610d4e90617975565b613eb187876149d4565b60606000821180156147e05750818311155b80156147ed575060018310155b6148095760405162461bcd60e51b8152600401610d4e90617420565b6000826001600160401b0381111561483157634e487b7160e01b600052604160045260246000fd5b60405190808252806020026020018201604052801561485a578160200160208202803683370190505b5090506000846001600160401b0381111561488557634e487b7160e01b600052604160045260246000fd5b6040519080825280602002602001820160405280156148ae578160200160208202803683370190505b50905060006148c46148bf8461641e565b616474565b905060005b868110156146d7578181815181106148f157634e487b7160e01b600052603260045260246000fd5b602002602001015183828151811061491957634e487b7160e01b600052603260045260246000fd5b60209081029190910101528061492e816181b4565b9150506148c9565b61493e615d94565b6001600160a01b031661494f613f68565b6001600160a01b0316146149755760405162461bcd60e51b8152600401610d4e90617886565b602280546001600160a01b0319166001600160a01b0392909216919091179055565b60006149a282615ca7565b6149be5760405162461bcd60e51b8152600401610d4e90617aa1565b506000908152600a602052604090206006015490565b600073__$d865f21674766f31b0d600e4a95b721b57$__6362e02a2a60086149fc86866141da565b6040518363ffffffff1660e01b8152600401614a19929190617f05565b60206040518083038186803b158015614a3157600080fd5b505af4158015614a45573d6000803e3d6000fd5b505050506040513d601f19601f820116820180604052508101906117339190616e12565b6000828152600e60209081526040808320805482518185028101850190935280835284938493929190830182828015614acb57602002820191906000526020600020905b81546001600160a01b03168152600190910190602001808311614aad575b5050505050905060005b8151811015614b3a57846001600160a01b0316828281518110614b0857634e487b7160e01b600052603260045260246000fd5b60200260200101516001600160a01b03161415614b285760019250614b3a565b80614b32816181b4565b915050614ad5565b5090949350505050565b600260209081526000928352604080842090915290825290205460ff1681565b60155481565b60185481565b600d6020528160005260406000208181548110613f9357600080fd5b6023546001600160a01b031681565b600360209081526000928352604080842090915290825290205481565b600073__$d865f21674766f31b0d600e4a95b721b57$__6362e02a2a6008614be086866141da565b6040518363ffffffff1660e01b8152600401614a19929190617eb9565b421190565b614c0a616978565b614c1382615ca7565b614c1c57600080fd5b6000828152600a602081815260409283902083516101c081018552815481526001820154928101929092526002810154938201939093526003830154606082015260048301546080820152600583015460ff808216151560a08401526101008083048216151560c08501526201000090920416151560e0830152600684015490820152600783015461012082015260088301546101408201526009830154610160820152908201805491929161018084019190614cd890618179565b80601f0160208091040260200160405190810160405280929190818152602001828054614d0490618179565b8015614d515780601f10614d2657610100808354040283529160200191614d51565b820191906000526020600020905b815481529060010190602001808311614d3457829003601f168201915b5050509183525050600b82015460209091019060ff16600381111561261b57634e487b7160e01b600052602160045260246000fd5b614d8e615d98565b60125415614d9e57614d9e616608565b614da66166a0565b60005b602560009054906101000a90046001600160a01b03166001600160a01b0316637d630cb06040518163ffffffff1660e01b815260040160206040518083038186803b158015614df757600080fd5b505afa158015614e0b573d6000803e3d6000fd5b505050506040513d601f19601f82011682018060405250810190614e2f9190616e12565b811015611d23576017546000908152600a602052604081206005015462010000900460ff1615156001148015614e885750614e6b601754610de6565b80614e8857506017546000908152600a6020526040902060030154155b15614ead57614e98601754612dd9565b601754614ea6906001616352565b6017555060015b6018546000908152600a602052604090206005015462010000900460ff161515600114801590614f645750602560009054906101000a90046001600160a01b03166001600160a01b031663166ff4c76040518163ffffffff1660e01b815260040160206040518083038186803b158015614f2657600080fd5b505afa158015614f3a573d6000803e3d6000fd5b505050506040513d601f19601f82011682018060405250810190614f5e9190616e12565b60105410155b8015614f8457506018546000908152600a602052604090206005015460ff165b15614f9557614f91612715565b5060015b80614fa05750611d23565b5080614fab816181b4565b915050614da9565b614fbb615d94565b6001600160a01b0316614fcc613f68565b6001600160a01b031614614ff25760405162461bcd60e51b8152600401610d4e90617886565b602380546001600160a01b0319166001600160a01b0392909216919091179055565b6024546001600160a01b031681565b61502b615d94565b6001600160a01b031661503c613f68565b6001600160a01b0316146150625760405162461bcd60e51b8152600401610d4e90617886565b602080546001600160a01b0319166001600160a01b0392909216919091179055565b61508c615d94565b6001600160a01b031661509d613f68565b6001600160a01b0316146150c35760405162461bcd60e51b8152600401610d4e90617886565b601f80546001600160a01b0319166001600160a01b0392909216919091179055565b336000908152600c602052604090205490565b60606000821161510757600080fd5b6000826001600160401b0381111561512f57634e487b7160e01b600052604160045260246000fd5b604051908082528060200260200182016040528015615158578160200160208202803683370190505b50905060006151696148bf8361641e565b949350505050565b606061517c82615ca7565b61518557600080fd5b6000828152600a602081905260409091200180546151a290618179565b80601f01602080910402602001604051908101604052809291908181526020018280546151ce90618179565b801561521b5780601f106151f05761010080835404028352916020019161521b565b820191906000526020600020905b8154815290600101906020018083116151fe57829003601f168201915b50505050509050919050565b6001600160a01b03166000908152600b602052604090206005015460ff1690565b600061526c61525633613c4e565b336000908152600c602052604090205490615f20565b90508181101561528e5760405162461bcd60e51b8152600401610d4e90617a5a565b601f54604051630895993360e11b81526001600160a01b039091169063112b3266906152c09085903390600401617fb0565b602060405180830381600087803b1580156152da57600080fd5b505af11580156152ee573d6000803e3d6000fd5b505050506040513d601f19601f820116820180604052508101906153129190616c25565b61532e5760405162461bcd60e51b8152600401610d4e90617d10565b336000908152600c60205260408120805484929061534d908490618132565b909155505060405133907ffaeb7dbb9992397d26ea1944efd40c80b40f702faf69b46c67ad10aba68ccb7990615384908590617029565b60405180910390a25050565b601d5481565b60606153a182615ca7565b6153bd5760405162461bcd60e51b8152600401610d4e90617aa1565b6000828152600a6020818152604080842081516101c081018352815481526001820154938101939093526002810154918301919091526003810154606083015260048101546080830152600581015460ff808216151560a08501526101008083048216151560c08601526201000090920416151560e084015260068201549083015260078101546101208301526008810154610140830152600981015461016083015291820180549192916101808401919061547890618179565b80601f01602080910402602001604051908101604052809291908181526020018280546154a490618179565b80156154f15780601f106154c6576101008083540402835291602001916154f1565b820191906000526020600020905b8154815290600101906020018083116154d457829003601f168201915b5050509183525050600b82015460209091019060ff16600381111561552657634e487b7160e01b600052602160045260246000fd5b600381111561554557634e487b7160e01b600052602160045260246000fd5b905250602080820151602554604080516357716b7f60e01b8152905194955091936000936001600160a01b03909216926357716b7f926004808301939192829003018186803b15801561559757600080fd5b505afa1580156155ab573d6000803e3d6000fd5b505050506040513d601f19601f820116820180604052508101906155cf9190616e12565b6001600160401b038111156155f457634e487b7160e01b600052604160045260246000fd5b60405190808252806020026020018201604052801561562757816020015b60608152602001906001900390816156125790505b50905060005b828110156157245783516000906156459083906180e7565b60008181526009602052604081208054929350909161566390618179565b80601f016020809104026020016040519081016040528092919081815260200182805461568f90618179565b80156156dc5780601f106156b1576101008083540402835291602001916156dc565b820191906000526020600020905b8154815290600101906020018083116156bf57829003601f168201915b505050505090508084848151811061570457634e487b7160e01b600052603260045260246000fd5b60200260200101819052505050808061571c906181b4565b91505061562d565b50949350505050565b60175481565b60195481565b615741615d94565b6001600160a01b0316615752613f68565b6001600160a01b0316146157785760405162461bcd60e51b8152600401610d4e90617886565b6001600160a01b03811661579e5760405162461bcd60e51b8152600401610d4e906173da565b611d23816163ce565b600082826040516020016141ef9291906171f1565b60195490565b6157ca615d98565b336000908152600b602090815260409182902060255483516398a54e2b60e01b8152935191936001600160a01b03909116926398a54e2b92600480840193829003018186803b15801561581c57600080fd5b505afa158015615830573d6000803e3d6000fd5b505050506040513d601f19601f820116820180604052508101906158549190616e12565b60115460105461586491906180e7565b106158815760405162461bcd60e51b8152600401610d4e90617b8f565b600581015460ff16156158a65760405162461bcd60e51b8152600401610d4e906172bd565b602560009054906101000a90046001600160a01b03166001600160a01b0316639fb491f66040518163ffffffff1660e01b815260040160206040518083038186803b1580156158f457600080fd5b505afa158015615908573d6000803e3d6000fd5b505050506040513d601f19601f8201168201806040525081019061592c9190616e12565b8160030154101580156159d15750602560009054906101000a90046001600160a01b03166001600160a01b0316630f1f0ffe6040518163ffffffff1660e01b815260040160206040518083038186803b15801561598857600080fd5b505afa15801561599c573d6000803e3d6000fd5b505050506040513d601f19601f820116820180604052508101906159c09190616e12565b60068201546159cf9042618132565b105b156159ee5760405162461bcd60e51b8152600401610d4e90617c2e565b602554604080516323aea69160e01b815290516000926001600160a01b0316916323aea691916004808301926020929190829003018186803b158015615a3357600080fd5b505afa158015615a47573d6000803e3d6000fd5b505050506040513d601f19601f82011682018060405250810190615a6b9190616e12565b60225460405163792f4f6960e11b81529192506000916001600160a01b039091169063f25e9ed290615aa190339060040161705c565b60206040518083038186803b158015615ab957600080fd5b505afa158015615acd573d6000803e3d6000fd5b505050506040513d601f19601f82011682018060405250810190615af19190616b04565b336000908152600c6020526040902054909150821115615b9a576001600160a01b03811615615b71576001600160a01b0381166000908152600c6020526040902054821115615b6c576001600160a01b0381166000908152600c6020526040812054615b5e908490615f20565b9050615b6a8183615f2c565b505b615b9a565b336000908152600c6020526040812054615b8c908490615f20565b9050615b988133615f2c565b505b336000908152600c6020526040902054821115615bc95760405162461bcd60e51b8152600401610d4e90617641565b615bd2336162bc565b615c1957601080546001810182556000919091527f1b6847dc741a1b0cd08d278845f9d819d87b734759afb55fe2de5cb82a9ae6720180546001600160a01b031916331790555b8254336001600160a01b031990911617835560058301805460ff1916600190811761ff00191690915542600685015560006003850181905560198054909190615c639084906180e7565b909155505060405133907f439d77b7534ec3108fc6143bd4fbabde0b9f2bb54f7b0730d1f70dd2135b765f90615c9a904290617029565b60405180910390a2505050565b601654101590565b336000908152600b602052604090206005015460ff1690565b601b5490565b601e546001600160a01b031681565b6001600160a01b039081166000908152600b6020908152604091829020825161014081018452815490941684526001810154918401829052600281015460ff90811615159385019390935260038101546060850152600481015460808501526005810154808416151560a086015261010090819004909316151560c0850152600681015460e08501526007810154928401929092526008909101546101209092019190915290565b6025546001600160a01b031681565b3390565b6013546001600160a01b0316615dc05760405162461bcd60e51b8152600401610d4e90617ad8565b6013546040516000916001600160a01b031690615de190339060240161705c565b60408051601f198184030181529181526020820180516001600160e01b0316631f5ac9c560e11b17905251615e169190617032565b6000604051808303816000865af19150503d8060008114615e53576040519150601f19603f3d011682016040523d82523d6000602084013e615e58565b606091505b50506013546040519192506000916001600160a01b0390911690615e8090339060240161705c565b60408051601f198184030181529181526020820180516001600160e01b03166358563d2160e01b17905251615eb59190617032565b6000604051808303816000865af19150503d8060008114615ef2576040519150601f19603f3d011682016040523d82523d6000602084013e615ef7565b606091505b505090508180615f045750805b6141b25760405162461bcd60e51b8152600401610d4e90617345565b60006117338284618132565b601f546040516304ada21f60e21b81526001600160a01b03909116906312b6887c90615f5e9085908590600401617fb0565b602060405180830381600087803b158015615f7857600080fd5b505af1158015615f8c573d6000803e3d6000fd5b505050506040513d601f19601f82011682018060405250810190615fb09190616c25565b615fcc5760405162461bcd60e51b8152600401610d4e90617547565b6001600160a01b0381166000908152600c602052604081208054849290615ff49084906180e7565b92505081905550806001600160a01b03167f5aa5d56140767016c877a5333ac3e1ad31a09051098a8fdf7297c4b64530a942836040516153849190617029565b60008060005b6010548110156160a857836001600160a01b03166010828154811061606f57634e487b7160e01b600052603260045260246000fd5b6000918252602090912001546001600160a01b0316141561609657600191508092506160a8565b806160a0816181b4565b91505061603a565b50801561618757601080546160bf90600190618132565b815481106160dd57634e487b7160e01b600052603260045260246000fd5b600091825260209091200154601080546001600160a01b03909216918490811061611757634e487b7160e01b600052603260045260246000fd5b9060005260206000200160006101000a8154816001600160a01b0302191690836001600160a01b03160217905550601080548061616457634e487b7160e01b600052603160045260246000fd5b600082815260209020810160001990810180546001600160a01b03191690550190555b505050565b60008060005b60115481101561620057836001600160a01b0316601182815481106161c757634e487b7160e01b600052603260045260246000fd5b6000918252602090912001546001600160a01b031614156161ee5760019150809250616200565b806161f8816181b4565b915050616192565b508015616187576011805461621790600190618132565b8154811061623557634e487b7160e01b600052603260045260246000fd5b600091825260209091200154601180546001600160a01b03909216918490811061626f57634e487b7160e01b600052603260045260246000fd5b9060005260206000200160006101000a8154816001600160a01b0302191690836001600160a01b03160217905550601180548061616457634e487b7160e01b600052603160045260246000fd5b600080805b6010548110156144d457836001600160a01b0316601082815481106162f657634e487b7160e01b600052603260045260246000fd5b6000918252602090912001546001600160a01b0316141561631a57600191506144d4565b80616324816181b4565b9150506162c1565b600081831061633b5781611733565b5090919050565b60008183101561633b5781611733565b600061173382846180e7565b600080805b6011548110156144d457836001600160a01b03166011828154811061639857634e487b7160e01b600052603260045260246000fd5b6000918252602090912001546001600160a01b031614156163bc57600191506144d4565b806163c6816181b4565b915050616363565b600080546001600160a01b038381166001600160a01b0319831681178455604051919092169283917f8be0079c531659141344cd1fd0a4f28419497f9722a3daafe3b4186f6b6457e09190a35050565b805160609060005b8181101561646c578084828151811061644f57634e487b7160e01b600052603260045260246000fd5b602090810291909101015280616464816181b4565b915050616426565b509192915050565b6060600082511161648457600080fd5b81518060005b818110156165ff5760008361649d61433a565b8784815181106164bd57634e487b7160e01b600052603260045260246000fd5b60200260200101516040516020016164d692919061704e565b6040516020818303038152906040528051906020012060001c6164f991906181cf565b6165049060016180e7565b9050600086616514600184618132565b8151811061653257634e487b7160e01b600052603260045260246000fd5b602002602001015190508660018661654a9190618132565b8151811061656857634e487b7160e01b600052603260045260246000fd5b60200260200101518760018461657e9190618132565b8151811061659c57634e487b7160e01b600052603260045260246000fd5b602090810291909101015280876165b4600188618132565b815181106165d257634e487b7160e01b600052603260045260246000fd5b60209081029190910101526165e8600186618132565b9450505080806165f7906181b4565b91505061648a565b50929392505050565b60005b6012548110156166935760006012828154811061663857634e487b7160e01b600052603260045260246000fd5b60009182526020808320909101546001600160a01b0316808352600b909152604090912060058101805461ffff1916905590915061667582616034565b61667e8261618c565b5050808061668b906181b4565b91505061660b565b50613cc160126000616a06565b60006015546017546166b29190618132565b9050602560009054906101000a90046001600160a01b03166001600160a01b031663e3115d3c6040518163ffffffff1660e01b815260040160206040518083038186803b15801561670257600080fd5b505afa158015616716573d6000803e3d6000fd5b505050506040513d601f19601f8201168201806040525081019061673a9190616e12565b811115611d235760005b602554604080516307d630cb60e41b815290516167c8926001600160a01b031691637d630cb0916004808301926020929190829003018186803b15801561678a57600080fd5b505afa15801561679e573d6000803e3d6000fd5b505050506040513d601f19601f820116820180604052508101906167c29190616e12565b8361632c565b8110156141b2576015546000908152600a6020526040812080546001909101549091906167f590836180e7565b9050815b8181101561681c5761680a8161248b565b80616814816181b4565b9150506167f9565b50616828601554612660565b6015546040517f72c2fcc891fe835b86fc8bb9abdc52adf52499c52289b3c49e1461eabea2717590600090a250508080616861906181b4565b915050616744565b82805461687590618179565b90600052602060002090601f01602090048101928261689757600085556168dd565b82601f106168b057805160ff19168380011785556168dd565b828001600101855582156168dd579182015b828111156168dd5782518255916020019190600101906168c2565b506168e9929150616a20565b5090565b5080546168f990618179565b6000825580601f1061690b5750611d23565b601f016020900490600052602060002090810190611d239190616a20565b60405180608001604052806060815260200160006001600160a01b03168152602001600081526020016000600381111561697357634e487b7160e01b600052602160045260246000fd5b905290565b604051806101c00160405280600081526020016000815260200160008152602001600081526020016000815260200160001515815260200160001515815260200160001515815260200160008152602001600081526020016000815260200160008152602001606081526020016000600381111561697357634e487b7160e01b600052602160045260246000fd5b5080546000825590600052602060002090810190611d2391905b5b808211156168e95760008155600101616a21565b80518015158114610e2b57600080fd5b805160048110610e2b57600080fd5b600082601f830112616a64578081fd5b8135616a77616a72826180b4565b61808b565b818152846020838601011115616a8b578283fd5b816020850160208301379081016020019190915292915050565b600082601f830112616ab5578081fd5b8151616ac3616a72826180b4565b818152846020838601011115616ad7578283fd5b615169826020830160208701618149565b600060208284031215616af9578081fd5b813561173381618225565b600060208284031215616b15578081fd5b815161173381618225565b60008060408385031215616b32578081fd5b8235616b3d81618225565b946020939093013593505050565b600080600060608486031215616b5f578081fd5b8335616b6a81618225565b95602085013595506040909401359392505050565b60006020808385031215616b91578182fd5b82356001600160401b0380821115616ba7578384fd5b818501915085601f830112616bba578384fd5b813581811115616bcc57616bcc61820f565b8381029150616bdc84830161808b565b8181528481019084860184860187018a1015616bf6578788fd5b8795505b83861015616c18578035835260019590950194918601918601616bfa565b5098975050505050505050565b600060208284031215616c36578081fd5b61173382616a35565b60008060408385031215616c51578182fd5b82356001600160401b0380821115616c67578384fd5b616c7386838701616a54565b93506020850135915080821115616c88578283fd5b50616c9585828601616a54565b9150509250929050565b60008060408385031215616cb1578182fd5b82356001600160401b03811115616cc6578283fd5b616cd285828601616a54565b95602094909401359450505050565b600060208284031215616cf2578081fd5b81516001600160401b0380821115616d08578283fd5b81840191506101c0808387031215616d1e578384fd5b616d278161808b565b905082518152602083015160208201526040830151604082015260608301516060820152616d5760808401616a35565b6080820152616d6860a08401616a35565b60a0820152616d7960c08401616a35565b60c082015260e083810151908201526101008084015190820152610120808401519082015261014080840151908201526101608084015183811115616dbc578586fd5b616dc888828701616aa5565b828401525050610180915081830151828201526101a09150616deb828401616a45565b91810191909152949350505050565b600060208284031215616e0b578081fd5b5035919050565b600060208284031215611851578081fd5b60008060408385031215616e35578182fd5b823591506020830135616e4781618225565b809150509250929050565b60008060008060808587031215616e67578182fd5b84359350602085013592506040850135915060608501356001600160401b03811115616e91578182fd5b616e9d87828801616a54565b91505092959194509250565b60008060408385031215616ebb578182fd5b50508035926020909101359150565b60008060008060808587031215616edf578182fd5b84359350602085013592506040850135616ef881618225565b9396929550929360600135925050565b60008060008060808587031215616f1d578182fd5b843593506020850135925060408501356001600160401b03811115616f40578283fd5b616f4c87828801616a54565b949793965093946060013593505050565b15159052565b60008151808452616f7b816020860160208601618149565b601f01601f19169290920160200192915050565b60048110616fad57634e487b7160e01b600052602160045260246000fd5b9052565b600a8152690c6dedadad2e890c2e6d60b31b602082015260400190565b60098152686e756d546f6b656e7360b81b602082015260400190565b60609190911b6bffffffffffffffffffffffff1916815260140190565b60609290921b6bffffffffffffffffffffffff19168252601482015260340190565b90815260200190565b60008251617044818460208701618149565b9190910192915050565b918252602082015260400190565b6001600160a01b0391909116815260200190565b6001600160a01b039a909a168a5260208a0198909852951515604089015260608801949094526080870192909252151560a0860152151560c085015260e08401526101008301526101208201526101400190565b6000602080830181845280855180835260408601915060408482028701019250838701855b8281101561711757603f19888603018452617105858351616f63565b945092850192908501906001016170e9565b5092979650505050505050565b6020808252825182820181905260009190848201906040850190845b8181101561715c57835183529284019291840191600101617140565b50909695505050505050565b901515815260200190565b6000602082526117336020830184616f63565b6000604082526171996040830185616f63565b905060018060a01b03831660208301529392505050565b6000608082526171c36080830187616f63565b6001600160a01b03861660208401526040830185905290506171e86060830184616f8f565b95945050505050565b6000604082526172046040830185616f63565b90508260208301529392505050565b600060208083528184548360028204905060018083168061723557607f831692505b85831081141561725357634e487b7160e01b87526022600452602487fd5b61725f83878a01617029565b8180156172735760018114617284576172ae565b60ff198616825287820196506172ae565b61728d8b6180db565b895b868110156172a85781548482015290850190890161728f565b83019750505b50949998505050505050505050565b6020808252601c908201527f576f726b657220697320616c7265616479207265676973746572656400000000604082015260600190565b60208082526031908201527f676976656e204461746142617463682073686f756c6420626520415050524f5660408201527011510b08185b99081a5d081a5cc81b9bdd607a1b606082015260800190565b60208082526025908201527f72656365697665722072656a6563746564205f7265747269657665534675656c6040820152640818d85b1b60da1b606082015260800190565b60208082526030908201527f636f756c64206e6f742072657761726420746f6b656e20696e2056616c69646160408201526f3a32a230ba30a130ba31b4161018973160811b606082015260800190565b60208082526026908201527f4f776e61626c653a206e6577206f776e657220697320746865207a65726f206160408201526564647265737360d01b606082015260800190565b60208082526029908201527f6b206f72204e20617265206e6f74204f4b20647572696e672072616e646f6d2060408201526839b2b632b1ba34b7b760b91b606082015260800190565b6020808252602a908201527f4661696c20647572696e6720616c6c6f636174696f6e3a206e6f7420656e6f75604082015269676820776f726b65727360b01b606082015260800190565b6020808252601e908201527f636f6d6d697420706572696f64206e6565647320746f206265206f70656e0000604082015260600190565b60208082526038908201527f55736572206e6565647320746f20626520616c6c6f636174656420746f20746860408201527f697320626174636820746f20636f6d6d6974206f6e2069740000000000000000606082015260800190565b6020808252603f908201527f436f756c64206e6f74207265717565737420656e6f75676820616c6c6f63617460408201527f6564207374616b652c2072657175657374416c6c6f63617465645374616b6500606082015260800190565b6020808252602e908201527f636f756c64206e6f74207265776172642052455020696e2056616c696461746560408201526d4461746142617463682c20312e6160901b606082015260800190565b6020808252602f908201527f5573657220686173206e6f7420636f6d6d69746564206265666f72652c20746860408201526e1d5cc818d85b89dd081c995d99585b608a1b606082015260800190565b60208082526043908201527f576f726b657220686173206e6f7420656e6f75676820285f6e756d546f6b656e60408201527f732920696e2068697320466f726d61745374616b6564546f6b656e42616c616e606082015262031b2960ed1b608082015260a00190565b60208082526039908201527f646c6c4d61703a20646f6573206e6f7420636f696e7461696e205f446174614260408201527f61746368496420666f7220746865206d73672073656e64657200000000000000606082015260800190565b6020808252602b908201527f75736572206d75737420686176652072657665616c656420696e20746869732060408201526a0ced2eccadc4084c2e8c6d60ab1b606082015260800190565b6020808252601490820152733737ba1030903b30b634b2103837b9b4ba34b7b760611b604082015260600190565b6020808252603a908201527f576f726b65722063757272656e746c792068617320776f726b20616c6c6f636160408201527f7465642c2063616e277420626520756e72656769737465726564000000000000606082015260800190565b6020808252603b908201527f43616e277420616c6c6f6361746520776f726b2c207468652063757272656e7460408201527f20626174636820697320616c726561647920616c6c6f63617465640000000000606082015260800190565b6020808252602c908201527f576f726b6572206973206e6f74207265676973746572656420736f2063616e2760408201526b3a103ab73932b3b4b9ba32b960a11b606082015260800190565b6020808252818101527f4f776e61626c653a2063616c6c6572206973206e6f7420746865206f776e6572604082015260600190565b6020808252603a908201527f5f446174614261746368496420686173206e6f7420656e6465642c206f72206e60408201527f6f7420657665727920766f74657273206861766520766f746564000000000000606082015260800190565b6020808252603e908201527f436f756c64206e6f74206d6174636820656e637279707465642068617368202660408201527f20636c6561722068617368207769746820676976656e20696e707574732e0000606082015260800190565b60208082526029908201527f6765744e756d50617373696e67546f6b656e733a20686173686573206d75737460408201526808189948195c5d585b60ba1b606082015260800190565b60208082526036908201527f43616e277420616c6c6f6361746520776f726b2c207468652063757272656e74604082015275206261746368206973206e6f7420636f6d706c65746560501b606082015260800190565b60208082526026908201527f52657665616c20706572696f64206e6f74206f70656e20666f7220746869732060408201526511185d18525160d21b606082015260800190565b60208082526027908201527f617661696c61626c65546f6b656e732073686f756c64206265203e3d205f6e756040820152666d546f6b656e7360c81b606082015260800190565b60208082526017908201527f5f4461746142617463684964206d757374206578697374000000000000000000604082015260600190565b6020808252601390820152720c081059191c995cdcc8139bdd0815985b1a59606a1b604082015260600190565b60208082526021908201527f5f446174614261746368496420697320616c72656164792076616c69646174656040820152601960fa1b606082015260800190565b60208082526029908201527f557365722068617320616c726561647920636f6d6d6974656420746f207468696040820152681cc818985d18da125960ba1b606082015260800190565b60208082526022908201527f4d6178696d756d207265676973746572656420776f726b65727320616c726561604082015261647960f01b606082015260800190565b60208082526037908201527f75736572206d757374206861766520656e6f75676820766f74696e672072696760408201527f68747320616b6120616c6c6f6361746564207374616b65000000000000000000606082015260800190565b6020808252606c908201527f5573657220686173206e6f7420766f746564206d616e792074696d657320696e60408201527f206120726f7720616e64206e6565647320746f2077616974204e4f564f54455f60608201527f524547495354524154494f4e5f574149545f4455524154494f4e20746f20726560808201526b33b4b9ba32b91030b3b0b4b760a11b60a082015260c00190565b6020808252602a908201527f5f446174614261746368496420636865636b696e6720766f7465206d757374206040820152691a185d9948195b99195960b21b606082015260800190565b6020808252603b908201527f436f756c64206e6f74207769746864726177566f74696e67526967687473207460408201527f68726f7567682050726f78795374616b654465616c6c6f636174650000000000606082015260800190565b6020808252600f908201526e11185d18481b5d5cdd08195e1a5cdd608a1b604082015260600190565b6020808252602c908201527f557365722068617320616c72656164792072657665616c65642c20746875732060408201526b18d85b89dd081c995d99585b60a21b606082015260800190565b60006020825282516020830152602083015160408301526040830151606083015260608301516080830152608083015160a083015260a0830151617e2960c0840182616f5d565b5060c0830151617e3c60e0840182616f5d565b5060e0830151610100617e5181850183616f5d565b840151610120848101919091528401516101408085019190915284015161016080850191909152840151610180808501919091528401516101c06101a080860182905291925090617ea66101e0860184616f63565b90860151909250614b3a85830182616f8f565b60008382528260208301526060604083015261516960608301616fb1565b600084825283602083015260806040830152617ef560808301616fb1565b9050826060830152949350505050565b60008382528260208301526060604083015261516960608301616fce565b600084825283602083015260806040830152617ef560808301616fce565b93845260208401929092526040830152606082015260800190565b600060208252825160806020840152617f7860a0840182616f63565b905060018060a01b036020850151166040840152604084015160608401526060840151617fa86080850182616f8f565b509392505050565b9182526001600160a01b0316602082015260400190565b9182526001600160a01b031660208201526000604082015260600190565b9283526020830191909152604082015260600190565b60008f82528e60208301528d60408301528c60608301528b60808301528a151560a083015289151560c083015261803560e083018a616f5d565b876101008301528661012083015285610140830152846101608301526101c06101808301526180686101c0830185616f63565b90506180786101a0830184616f8f565b9f9e505050505050505050505050505050565b6040518181016001600160401b03811182821017156180ac576180ac61820f565b604052919050565b60006001600160401b038211156180cd576180cd61820f565b50601f01601f191660200190565b60009081526020902090565b600082198211156180fa576180fa6181e3565b500190565b60008261810e5761810e6181f9565b500490565b600081600019048311821515161561812d5761812d6181e3565b500290565b600082821015618144576181446181e3565b500390565b60005b8381101561816457818101518382015260200161814c565b83811115618173576000848401525b50505050565b60028104600182168061818d57607f821691505b602082108114156181ae57634e487b7160e01b600052602260045260246000fd5b50919050565b60006000198214156181c8576181c86181e3565b5060010190565b6000826181de576181de6181f9565b500690565b634e487b7160e01b600052601160045260246000fd5b634e487b7160e01b600052601260045260246000fd5b634e487b7160e01b600052604160045260246000fd5b6001600160a01b0381168114611d2357600080fdfea2646970667358221220a58aff6e975eefaaa82cd142013c36597552f45ada2cb43ac31db5cfc8ab9a3664736f6c63430008000033",
  "linkReferences": {
    "contracts/worksystems/DataFormatting.sol": {
      "AttributeStore2": [
        {
          "length": 20,
          "start": 5089
        },
        {
          "length": 20,
          "start": 5195
        },
        {
          "length": 20,
          "start": 19232
        },
        {
          "length": 20,
          "start": 19716
        }
      ],
      "DLL2": [
        {
          "length": 20,
          "start": 4609
        },
        {
          "length": 20,
          "start": 4771
        },
        {
          "length": 20,
          "start": 4966
        },
        {
          "length": 20,
          "start": 5963
        },
        {
          "length": 20,
          "start": 6135
        },
        {
          "length": 20,
          "start": 6908
        },
        {
          "length": 20,
          "start": 7467
        },
        {
          "length": 20,
          "start": 16745
        },
        {
          "length": 20,
          "start": 16925
        }
      ]
    }
  },
  "deployedLinkReferences": {
    "contracts/worksystems/DataFormatting.sol": {
      "AttributeStore2": [
        {
          "length": 20,
          "start": 4761
        },
        {
          "length": 20,
          "start": 4867
        },
        {
          "length": 20,
          "start": 18904
        },
        {
          "length": 20,
          "start": 19388
        }
      ],
      "DLL2": [
        {
          "length": 20,
          "start": 4281
        },
        {
          "length": 20,
          "start": 4443
        },
        {
          "length": 20,
          "start": 4638
        },
        {
          "length": 20,
          "start": 5635
        },
        {
          "length": 20,
          "start": 5807
        },
        {
          "length": 20,
          "start": 6580
        },
        {
          "length": 20,
          "start": 7139
        },
        {
          "length": 20,
          "start": 16417
        },
        {
          "length": 20,
          "start": 16597
        }
      ]
    }
  }
}