{
  "_format": "hh-sol-artifact-1",
  "contractName": "DataFormatting",
  "sourceName": "contracts/worksystems/DataFormatting.sol",
  "abi": [
    {
      "inputs": [
        {
          "internalType": "address",
          "name": "EXDT_token_",
          "type": "address"
        }
      ],
      "stateMutability": "nonpayable",
      "type": "constructor"
    },
    {
      "anonymous": false,
      "inputs": [
        {
          "indexed": false,
          "internalType": "bytes",
          "name": "bytesFailure",
          "type": "bytes"
        }
      ],
      "name": "BytesFailure",
      "type": "event"
    },
    {
      "anonymous": false,
      "inputs": [
        {
          "indexed": true,
          "internalType": "address",
          "name": "previousOwner",
          "type": "address"
        },
        {
          "indexed": true,
          "internalType": "address",
          "name": "newOwner",
          "type": "address"
        }
      ],
      "name": "OwnershipTransferred",
      "type": "event"
    },
    {
      "anonymous": false,
      "inputs": [
        {
          "indexed": true,
          "internalType": "uint256",
          "name": "batchID",
          "type": "uint256"
        }
      ],
      "name": "_DataBatchDeleted",
      "type": "event"
    },
    {
      "anonymous": false,
      "inputs": [
        {
          "indexed": false,
          "internalType": "string",
          "name": "hash",
          "type": "string"
        },
        {
          "indexed": true,
          "internalType": "address",
          "name": "creator",
          "type": "address"
        }
      ],
      "name": "_FormatAccepted",
      "type": "event"
    },
    {
      "anonymous": false,
      "inputs": [
        {
          "indexed": true,
          "internalType": "uint256",
          "name": "DataID",
          "type": "uint256"
        },
        {
          "indexed": false,
          "internalType": "uint256",
          "name": "numTokens",
          "type": "uint256"
        },
        {
          "indexed": true,
          "internalType": "address",
          "name": "voter",
          "type": "address"
        }
      ],
      "name": "_FormatCheckCommitted",
      "type": "event"
    },
    {
      "anonymous": false,
      "inputs": [
        {
          "indexed": true,
          "internalType": "uint256",
          "name": "DataID",
          "type": "uint256"
        },
        {
          "indexed": false,
          "internalType": "uint256",
          "name": "numTokens",
          "type": "uint256"
        },
        {
          "indexed": false,
          "internalType": "uint256",
          "name": "votesFor",
          "type": "uint256"
        },
        {
          "indexed": false,
          "internalType": "uint256",
          "name": "votesAgainst",
          "type": "uint256"
        },
        {
          "indexed": true,
          "internalType": "uint256",
          "name": "choice",
          "type": "uint256"
        },
        {
          "indexed": true,
          "internalType": "address",
          "name": "voter",
          "type": "address"
        }
      ],
      "name": "_FormatCheckRevealed",
      "type": "event"
    },
    {
      "anonymous": false,
      "inputs": [
        {
          "indexed": true,
          "internalType": "uint256",
          "name": "DataID",
          "type": "uint256"
        },
        {
          "indexed": false,
          "internalType": "string",
          "name": "file_hash",
          "type": "string"
        },
        {
          "indexed": false,
          "internalType": "address",
          "name": "sender",
          "type": "address"
        }
      ],
      "name": "_FormatSubmitted",
      "type": "event"
    },
    {
      "anonymous": false,
      "inputs": [
        {
          "indexed": false,
          "internalType": "uint256",
          "name": "numTokens",
          "type": "uint256"
        },
        {
          "indexed": true,
          "internalType": "address",
          "name": "voter",
          "type": "address"
        }
      ],
      "name": "_StakeAllocated",
      "type": "event"
    },
    {
      "anonymous": false,
      "inputs": [
        {
          "indexed": true,
          "internalType": "uint256",
          "name": "DataID",
          "type": "uint256"
        },
        {
          "indexed": true,
          "internalType": "address",
          "name": "voter",
          "type": "address"
        }
      ],
      "name": "_TokensRescued",
      "type": "event"
    },
    {
      "anonymous": false,
      "inputs": [
        {
          "indexed": false,
          "internalType": "uint256",
          "name": "numTokens",
          "type": "uint256"
        },
        {
          "indexed": true,
          "internalType": "address",
          "name": "voter",
          "type": "address"
        }
      ],
      "name": "_VotingRightsWithdrawn",
      "type": "event"
    },
    {
      "anonymous": false,
      "inputs": [
        {
          "indexed": true,
          "internalType": "uint256",
          "name": "batchID",
          "type": "uint256"
        },
        {
          "indexed": false,
          "internalType": "address",
          "name": "worker",
          "type": "address"
        }
      ],
      "name": "_WorkAllocated",
      "type": "event"
    },
    {
      "anonymous": false,
      "inputs": [
        {
          "indexed": true,
          "internalType": "address",
          "name": "worker",
          "type": "address"
        },
        {
          "indexed": false,
          "internalType": "uint256",
          "name": "timestamp",
          "type": "uint256"
        }
      ],
      "name": "_WorkerRegistered",
      "type": "event"
    },
    {
      "anonymous": false,
      "inputs": [
        {
          "indexed": true,
          "internalType": "address",
          "name": "worker",
          "type": "address"
        },
        {
          "indexed": false,
          "internalType": "uint256",
          "name": "timestamp",
          "type": "uint256"
        }
      ],
      "name": "_WorkerUnregistered",
      "type": "event"
    },
    {
      "inputs": [],
      "name": "AcceptedBatchsCounter",
      "outputs": [
        {
          "internalType": "uint256",
          "name": "",
          "type": "uint256"
        }
      ],
      "stateMutability": "view",
      "type": "function"
    },
    {
      "inputs": [],
      "name": "AddressManager",
      "outputs": [
        {
          "internalType": "contract IAddressManager",
          "name": "",
          "type": "address"
        }
      ],
      "stateMutability": "view",
      "type": "function"
    },
    {
      "inputs": [],
      "name": "AllTxsCounter",
      "outputs": [
        {
          "internalType": "uint256",
          "name": "",
          "type": "uint256"
        }
      ],
      "stateMutability": "view",
      "type": "function"
    },
    {
      "inputs": [],
      "name": "AllocateWork",
      "outputs": [],
      "stateMutability": "nonpayable",
      "type": "function"
    },
    {
      "inputs": [],
      "name": "AllocatedBatchCursor",
      "outputs": [
        {
          "internalType": "uint256",
          "name": "",
          "type": "uint256"
        }
      ],
      "stateMutability": "view",
      "type": "function"
    },
    {
      "inputs": [],
      "name": "AmIRegistered",
      "outputs": [
        {
          "internalType": "bool",
          "name": "passed",
          "type": "bool"
        }
      ],
      "stateMutability": "view",
      "type": "function"
    },
    {
      "inputs": [],
      "name": "ArchiveSystem",
      "outputs": [
        {
          "internalType": "contract IArchiveSystem",
          "name": "",
          "type": "address"
        }
      ],
      "stateMutability": "view",
      "type": "function"
    },
    {
      "inputs": [
        {
          "internalType": "string",
          "name": "_a",
          "type": "string"
        },
        {
          "internalType": "string",
          "name": "_b",
          "type": "string"
        }
      ],
      "name": "AreStringsEqual",
      "outputs": [
        {
          "internalType": "bool",
          "name": "",
          "type": "bool"
        }
      ],
      "stateMutability": "pure",
      "type": "function"
    },
    {
      "inputs": [],
      "name": "BatchCheckingCursor",
      "outputs": [
        {
          "internalType": "uint256",
          "name": "",
          "type": "uint256"
        }
      ],
      "stateMutability": "view",
      "type": "function"
    },
    {
      "inputs": [],
      "name": "BatchDeletionCursor",
      "outputs": [
        {
          "internalType": "uint256",
          "name": "",
          "type": "uint256"
        }
      ],
      "stateMutability": "view",
      "type": "function"
    },
    {
      "inputs": [
        {
          "internalType": "uint256",
          "name": "",
          "type": "uint256"
        }
      ],
      "name": "CollectedSpotBatchs",
      "outputs": [
        {
          "internalType": "bool",
          "name": "",
          "type": "bool"
        }
      ],
      "stateMutability": "view",
      "type": "function"
    },
    {
      "inputs": [
        {
          "internalType": "uint256",
          "name": "",
          "type": "uint256"
        }
      ],
      "name": "DataBatch",
      "outputs": [
        {
          "internalType": "uint256",
          "name": "start_idx",
          "type": "uint256"
        },
        {
          "internalType": "uint256",
          "name": "counter",
          "type": "uint256"
        },
        {
          "internalType": "uint256",
          "name": "uncommited_workers",
          "type": "uint256"
        },
        {
          "internalType": "uint256",
          "name": "unrevealed_workers",
          "type": "uint256"
        },
        {
          "internalType": "uint256",
          "name": "item_count",
          "type": "uint256"
        },
        {
          "internalType": "bool",
          "name": "complete",
          "type": "bool"
        },
        {
          "internalType": "bool",
          "name": "checked",
          "type": "bool"
        },
        {
          "internalType": "bool",
          "name": "allocated_to_work",
          "type": "bool"
        },
        {
          "internalType": "uint256",
          "name": "commitEndDate",
          "type": "uint256"
        },
        {
          "internalType": "uint256",
          "name": "revealEndDate",
          "type": "uint256"
        },
        {
          "internalType": "uint256",
          "name": "votesFor",
          "type": "uint256"
        },
        {
          "internalType": "uint256",
          "name": "votesAgainst",
          "type": "uint256"
        },
        {
          "internalType": "string",
          "name": "batchIPFSfile",
          "type": "string"
        },
        {
          "internalType": "enum DataFormatting.DataStatus",
          "name": "status",
          "type": "uint8"
        }
      ],
      "stateMutability": "view",
      "type": "function"
    },
    {
      "inputs": [
        {
          "internalType": "uint256",
          "name": "_DataBatchId",
          "type": "uint256"
        }
      ],
      "name": "DataCommitEndDate",
      "outputs": [
        {
          "internalType": "uint256",
          "name": "commitEndDate",
          "type": "uint256"
        }
      ],
      "stateMutability": "view",
      "type": "function"
    },
    {
      "inputs": [
        {
          "internalType": "uint256",
          "name": "_DataBatchId",
          "type": "uint256"
        }
      ],
      "name": "DataEnded",
      "outputs": [
        {
          "internalType": "bool",
          "name": "ended",
          "type": "bool"
        }
      ],
      "stateMutability": "view",
      "type": "function"
    },
    {
      "inputs": [
        {
          "internalType": "uint256",
          "name": "_DataBatchId",
          "type": "uint256"
        }
      ],
      "name": "DataExists",
      "outputs": [
        {
          "internalType": "bool",
          "name": "exists",
          "type": "bool"
        }
      ],
      "stateMutability": "view",
      "type": "function"
    },
    {
      "inputs": [],
      "name": "DataNonce",
      "outputs": [
        {
          "internalType": "uint256",
          "name": "",
          "type": "uint256"
        }
      ],
      "stateMutability": "view",
      "type": "function"
    },
    {
      "inputs": [
        {
          "internalType": "uint256",
          "name": "_DataBatchId",
          "type": "uint256"
        }
      ],
      "name": "DataRevealEndDate",
      "outputs": [
        {
          "internalType": "uint256",
          "name": "revealEndDate",
          "type": "uint256"
        }
      ],
      "stateMutability": "view",
      "type": "function"
    },
    {
      "inputs": [
        {
          "internalType": "address",
          "name": "",
          "type": "address"
        }
      ],
      "name": "FormatStakedTokenBalance",
      "outputs": [
        {
          "internalType": "uint256",
          "name": "",
          "type": "uint256"
        }
      ],
      "stateMutability": "view",
      "type": "function"
    },
    {
      "inputs": [
        {
          "internalType": "uint256",
          "name": "",
          "type": "uint256"
        }
      ],
      "name": "FormatsMapping",
      "outputs": [
        {
          "internalType": "string",
          "name": "ipfs_hash",
          "type": "string"
        },
        {
          "internalType": "address",
          "name": "author",
          "type": "address"
        },
        {
          "internalType": "uint256",
          "name": "timestamp",
          "type": "uint256"
        },
        {
          "internalType": "enum DataFormatting.DataStatus",
          "name": "status",
          "type": "uint8"
        }
      ],
      "stateMutability": "view",
      "type": "function"
    },
    {
      "inputs": [
        {
          "internalType": "address",
          "name": "user_",
          "type": "address"
        }
      ],
      "name": "GetCurrentWork",
      "outputs": [
        {
          "internalType": "uint256",
          "name": "",
          "type": "uint256"
        }
      ],
      "stateMutability": "view",
      "type": "function"
    },
    {
      "inputs": [
        {
          "internalType": "address",
          "name": "user_",
          "type": "address"
        }
      ],
      "name": "IsNewWorkAvailable",
      "outputs": [
        {
          "internalType": "bool",
          "name": "",
          "type": "bool"
        }
      ],
      "stateMutability": "view",
      "type": "function"
    },
    {
      "inputs": [],
      "name": "LastBatchCounter",
      "outputs": [
        {
          "internalType": "uint256",
          "name": "",
          "type": "uint256"
        }
      ],
      "stateMutability": "view",
      "type": "function"
    },
    {
      "inputs": [
        {
          "internalType": "address",
          "name": "",
          "type": "address"
        },
        {
          "internalType": "uint256",
          "name": "",
          "type": "uint256"
        }
      ],
      "name": "MasterWorkers",
      "outputs": [
        {
          "internalType": "address",
          "name": "",
          "type": "address"
        }
      ],
      "stateMutability": "view",
      "type": "function"
    },
    {
      "inputs": [],
      "name": "NotCommitedCounter",
      "outputs": [
        {
          "internalType": "uint256",
          "name": "",
          "type": "uint256"
        }
      ],
      "stateMutability": "view",
      "type": "function"
    },
    {
      "inputs": [],
      "name": "NotRevealedCounter",
      "outputs": [
        {
          "internalType": "uint256",
          "name": "",
          "type": "uint256"
        }
      ],
      "stateMutability": "view",
      "type": "function"
    },
    {
      "inputs": [],
      "name": "Parameters",
      "outputs": [
        {
          "internalType": "contract IParametersManager",
          "name": "",
          "type": "address"
        }
      ],
      "stateMutability": "view",
      "type": "function"
    },
    {
      "inputs": [
        {
          "internalType": "uint256",
          "name": "CheckedBatchId",
          "type": "uint256"
        }
      ],
      "name": "Ping",
      "outputs": [],
      "stateMutability": "nonpayable",
      "type": "function"
    },
    {
      "inputs": [],
      "name": "RegisterWorker",
      "outputs": [],
      "stateMutability": "nonpayable",
      "type": "function"
    },
    {
      "inputs": [],
      "name": "RejectedBatchsCounter",
      "outputs": [
        {
          "internalType": "uint256",
          "name": "",
          "type": "uint256"
        }
      ],
      "stateMutability": "view",
      "type": "function"
    },
    {
      "inputs": [],
      "name": "RepManager",
      "outputs": [
        {
          "internalType": "contract IRepManager",
          "name": "",
          "type": "address"
        }
      ],
      "stateMutability": "view",
      "type": "function"
    },
    {
      "inputs": [],
      "name": "RewardManager",
      "outputs": [
        {
          "internalType": "contract IRewardManager",
          "name": "",
          "type": "address"
        }
      ],
      "stateMutability": "view",
      "type": "function"
    },
    {
      "inputs": [],
      "name": "SpottingSystem",
      "outputs": [
        {
          "internalType": "contract ISpottingSystem",
          "name": "",
          "type": "address"
        }
      ],
      "stateMutability": "view",
      "type": "function"
    },
    {
      "inputs": [],
      "name": "StakeManager",
      "outputs": [
        {
          "internalType": "contract IStakeManager",
          "name": "",
          "type": "address"
        }
      ],
      "stateMutability": "view",
      "type": "function"
    },
    {
      "inputs": [],
      "name": "TriggerUpdate",
      "outputs": [],
      "stateMutability": "nonpayable",
      "type": "function"
    },
    {
      "inputs": [],
      "name": "UnregisterWorker",
      "outputs": [],
      "stateMutability": "nonpayable",
      "type": "function"
    },
    {
      "inputs": [
        {
          "internalType": "uint256",
          "name": "",
          "type": "uint256"
        },
        {
          "internalType": "address",
          "name": "",
          "type": "address"
        }
      ],
      "name": "UserBatchCounts",
      "outputs": [
        {
          "internalType": "uint256",
          "name": "",
          "type": "uint256"
        }
      ],
      "stateMutability": "view",
      "type": "function"
    },
    {
      "inputs": [
        {
          "internalType": "uint256",
          "name": "",
          "type": "uint256"
        },
        {
          "internalType": "address",
          "name": "",
          "type": "address"
        }
      ],
      "name": "UserBatchFrom",
      "outputs": [
        {
          "internalType": "string",
          "name": "",
          "type": "string"
        }
      ],
      "stateMutability": "view",
      "type": "function"
    },
    {
      "inputs": [
        {
          "internalType": "address",
          "name": "",
          "type": "address"
        },
        {
          "internalType": "uint256",
          "name": "",
          "type": "uint256"
        }
      ],
      "name": "UserChecksCommits",
      "outputs": [
        {
          "internalType": "bool",
          "name": "",
          "type": "bool"
        }
      ],
      "stateMutability": "view",
      "type": "function"
    },
    {
      "inputs": [
        {
          "internalType": "address",
          "name": "",
          "type": "address"
        },
        {
          "internalType": "uint256",
          "name": "",
          "type": "uint256"
        }
      ],
      "name": "UserChecksReveals",
      "outputs": [
        {
          "internalType": "bool",
          "name": "",
          "type": "bool"
        }
      ],
      "stateMutability": "view",
      "type": "function"
    },
    {
      "inputs": [
        {
          "internalType": "uint256",
          "name": "",
          "type": "uint256"
        },
        {
          "internalType": "address",
          "name": "",
          "type": "address"
        }
      ],
      "name": "UserNewFiles",
      "outputs": [
        {
          "internalType": "string",
          "name": "",
          "type": "string"
        }
      ],
      "stateMutability": "view",
      "type": "function"
    },
    {
      "inputs": [
        {
          "internalType": "uint256",
          "name": "",
          "type": "uint256"
        },
        {
          "internalType": "address",
          "name": "",
          "type": "address"
        }
      ],
      "name": "UserSubmittedStatus",
      "outputs": [
        {
          "internalType": "string",
          "name": "",
          "type": "string"
        }
      ],
      "stateMutability": "view",
      "type": "function"
    },
    {
      "inputs": [
        {
          "internalType": "uint256",
          "name": "",
          "type": "uint256"
        },
        {
          "internalType": "address",
          "name": "",
          "type": "address"
        }
      ],
      "name": "UserVotes",
      "outputs": [
        {
          "internalType": "uint256",
          "name": "",
          "type": "uint256"
        }
      ],
      "stateMutability": "view",
      "type": "function"
    },
    {
      "inputs": [
        {
          "internalType": "uint256",
          "name": "_DataBatchId",
          "type": "uint256"
        }
      ],
      "name": "ValidateDataBatch",
      "outputs": [],
      "stateMutability": "nonpayable",
      "type": "function"
    },
    {
      "inputs": [
        {
          "internalType": "uint256",
          "name": "",
          "type": "uint256"
        },
        {
          "internalType": "uint256",
          "name": "",
          "type": "uint256"
        }
      ],
      "name": "WorkersPerBatch",
      "outputs": [
        {
          "internalType": "address",
          "name": "",
          "type": "address"
        }
      ],
      "stateMutability": "view",
      "type": "function"
    },
    {
      "inputs": [
        {
          "internalType": "address",
          "name": "",
          "type": "address"
        }
      ],
      "name": "WorkersState",
      "outputs": [
        {
          "internalType": "address",
          "name": "worker_address",
          "type": "address"
        },
        {
          "internalType": "uint256",
          "name": "allocated_work_batch",
          "type": "uint256"
        },
        {
          "internalType": "bool",
          "name": "has_completed_work",
          "type": "bool"
        },
        {
          "internalType": "uint256",
          "name": "succeeding_novote_count",
          "type": "uint256"
        },
        {
          "internalType": "uint256",
          "name": "last_interaction_date",
          "type": "uint256"
        },
        {
          "internalType": "bool",
          "name": "registered",
          "type": "bool"
        },
        {
          "internalType": "bool",
          "name": "unregistration_request",
          "type": "bool"
        },
        {
          "internalType": "uint256",
          "name": "registration_date",
          "type": "uint256"
        },
        {
          "internalType": "uint256",
          "name": "majority_counter",
          "type": "uint256"
        },
        {
          "internalType": "uint256",
          "name": "minority_counter",
          "type": "uint256"
        }
      ],
      "stateMutability": "view",
      "type": "function"
    },
    {
      "inputs": [
        {
          "internalType": "address",
          "name": "_user",
          "type": "address"
        },
        {
          "internalType": "uint256",
          "name": "_DataBatchId",
          "type": "uint256"
        }
      ],
      "name": "attrUUID",
      "outputs": [
        {
          "internalType": "bytes32",
          "name": "UUID",
          "type": "bytes32"
        }
      ],
      "stateMutability": "pure",
      "type": "function"
    },
    {
      "inputs": [
        {
          "internalType": "uint256",
          "name": "",
          "type": "uint256"
        }
      ],
      "name": "availableWorkers",
      "outputs": [
        {
          "internalType": "address",
          "name": "",
          "type": "address"
        }
      ],
      "stateMutability": "view",
      "type": "function"
    },
    {
      "inputs": [
        {
          "internalType": "uint256",
          "name": "",
          "type": "uint256"
        }
      ],
      "name": "busyWorkers",
      "outputs": [
        {
          "internalType": "address",
          "name": "",
          "type": "address"
        }
      ],
      "stateMutability": "view",
      "type": "function"
    },
    {
      "inputs": [
        {
          "internalType": "uint256",
          "name": "_DataBatchId",
          "type": "uint256"
        },
        {
          "internalType": "bytes32",
          "name": "_secretIPFSHash",
          "type": "bytes32"
        },
        {
          "internalType": "uint256",
          "name": "_BatchCount",
          "type": "uint256"
        },
        {
          "internalType": "string",
          "name": "_From",
          "type": "string"
        },
        {
          "internalType": "string",
          "name": "_Status",
          "type": "string"
        }
      ],
      "name": "commitFormatCheck",
      "outputs": [],
      "stateMutability": "nonpayable",
      "type": "function"
    },
    {
      "inputs": [
        {
          "internalType": "uint256",
          "name": "_DataBatchId",
          "type": "uint256"
        }
      ],
      "name": "commitPeriodActive",
      "outputs": [
        {
          "internalType": "bool",
          "name": "active",
          "type": "bool"
        }
      ],
      "stateMutability": "view",
      "type": "function"
    },
    {
      "inputs": [
        {
          "internalType": "uint256",
          "name": "_BatchId",
          "type": "uint256"
        }
      ],
      "name": "deleteCollectedSpotBatch",
      "outputs": [],
      "stateMutability": "nonpayable",
      "type": "function"
    },
    {
      "inputs": [
        {
          "internalType": "uint256",
          "name": "_DataId",
          "type": "uint256"
        }
      ],
      "name": "deleteData",
      "outputs": [],
      "stateMutability": "nonpayable",
      "type": "function"
    },
    {
      "inputs": [
        {
          "internalType": "uint256",
          "name": "_BatchId",
          "type": "uint256"
        }
      ],
      "name": "deleteDataBatch",
      "outputs": [],
      "stateMutability": "nonpayable",
      "type": "function"
    },
    {
      "inputs": [],
      "name": "destroyContract",
      "outputs": [],
      "stateMutability": "nonpayable",
      "type": "function"
    },
    {
      "inputs": [
        {
          "internalType": "address",
          "name": "_voter",
          "type": "address"
        },
        {
          "internalType": "uint256",
          "name": "_DataBatchId",
          "type": "uint256"
        }
      ],
      "name": "didCommit",
      "outputs": [
        {
          "internalType": "bool",
          "name": "committed",
          "type": "bool"
        }
      ],
      "stateMutability": "view",
      "type": "function"
    },
    {
      "inputs": [
        {
          "internalType": "address",
          "name": "_voter",
          "type": "address"
        },
        {
          "internalType": "uint256",
          "name": "_DataBatchId",
          "type": "uint256"
        }
      ],
      "name": "didReveal",
      "outputs": [
        {
          "internalType": "bool",
          "name": "revealed",
          "type": "bool"
        }
      ],
      "stateMutability": "view",
      "type": "function"
    },
    {
      "inputs": [
        {
          "internalType": "uint256",
          "name": "_k",
          "type": "uint256"
        },
        {
          "internalType": "uint256",
          "name": "N_range",
          "type": "uint256"
        }
      ],
      "name": "generateIntegers",
      "outputs": [
        {
          "internalType": "uint256[]",
          "name": "",
          "type": "uint256[]"
        }
      ],
      "stateMutability": "view",
      "type": "function"
    },
    {
      "inputs": [
        {
          "internalType": "uint256",
          "name": "_DataBatchId_start",
          "type": "uint256"
        }
      ],
      "name": "getAcceptedBatchFileFrom",
      "outputs": [
        {
          "internalType": "string[]",
          "name": "batch",
          "type": "string[]"
        }
      ],
      "stateMutability": "view",
      "type": "function"
    },
    {
      "inputs": [
        {
          "internalType": "uint256",
          "name": "_DataBatchId_start",
          "type": "uint256"
        },
        {
          "internalType": "uint256",
          "name": "_DataBatchId_end",
          "type": "uint256"
        }
      ],
      "name": "getAcceptedBatchFilesRange",
      "outputs": [
        {
          "internalType": "string[]",
          "name": "batch",
          "type": "string[]"
        }
      ],
      "stateMutability": "view",
      "type": "function"
    },
    {
      "inputs": [],
      "name": "getAcceptedBatchesCount",
      "outputs": [
        {
          "internalType": "uint256",
          "name": "count",
          "type": "uint256"
        }
      ],
      "stateMutability": "view",
      "type": "function"
    },
    {
      "inputs": [],
      "name": "getActiveWorkersCount",
      "outputs": [
        {
          "internalType": "uint256",
          "name": "numWorkers",
          "type": "uint256"
        }
      ],
      "stateMutability": "view",
      "type": "function"
    },
    {
      "inputs": [],
      "name": "getAvailableWorkersCount",
      "outputs": [
        {
          "internalType": "uint256",
          "name": "numWorkers",
          "type": "uint256"
        }
      ],
      "stateMutability": "view",
      "type": "function"
    },
    {
      "inputs": [
        {
          "internalType": "uint256",
          "name": "_DataBatchId",
          "type": "uint256"
        }
      ],
      "name": "getBatchByID",
      "outputs": [
        {
          "components": [
            {
              "internalType": "uint256",
              "name": "start_idx",
              "type": "uint256"
            },
            {
              "internalType": "uint256",
              "name": "counter",
              "type": "uint256"
            },
            {
              "internalType": "uint256",
              "name": "uncommited_workers",
              "type": "uint256"
            },
            {
              "internalType": "uint256",
              "name": "unrevealed_workers",
              "type": "uint256"
            },
            {
              "internalType": "uint256",
              "name": "item_count",
              "type": "uint256"
            },
            {
              "internalType": "bool",
              "name": "complete",
              "type": "bool"
            },
            {
              "internalType": "bool",
              "name": "checked",
              "type": "bool"
            },
            {
              "internalType": "bool",
              "name": "allocated_to_work",
              "type": "bool"
            },
            {
              "internalType": "uint256",
              "name": "commitEndDate",
              "type": "uint256"
            },
            {
              "internalType": "uint256",
              "name": "revealEndDate",
              "type": "uint256"
            },
            {
              "internalType": "uint256",
              "name": "votesFor",
              "type": "uint256"
            },
            {
              "internalType": "uint256",
              "name": "votesAgainst",
              "type": "uint256"
            },
            {
              "internalType": "string",
              "name": "batchIPFSfile",
              "type": "string"
            },
            {
              "internalType": "enum DataFormatting.DataStatus",
              "name": "status",
              "type": "uint8"
            }
          ],
          "internalType": "struct DataFormatting.BatchMetadata",
          "name": "batch",
          "type": "tuple"
        }
      ],
      "stateMutability": "view",
      "type": "function"
    },
    {
      "inputs": [
        {
          "internalType": "uint256",
          "name": "_DataBatchId",
          "type": "uint256"
        }
      ],
      "name": "getBatchIPFSFileByID",
      "outputs": [
        {
          "internalType": "string",
          "name": "batch",
          "type": "string"
        }
      ],
      "stateMutability": "view",
      "type": "function"
    },
    {
      "inputs": [],
      "name": "getBusyWorkersCount",
      "outputs": [
        {
          "internalType": "uint256",
          "name": "numWorkers",
          "type": "uint256"
        }
      ],
      "stateMutability": "view",
      "type": "function"
    },
    {
      "inputs": [
        {
          "internalType": "address",
          "name": "_voter",
          "type": "address"
        },
        {
          "internalType": "uint256",
          "name": "_DataBatchId",
          "type": "uint256"
        }
      ],
      "name": "getCommitHash",
      "outputs": [
        {
          "internalType": "bytes32",
          "name": "commitHash",
          "type": "bytes32"
        }
      ],
      "stateMutability": "view",
      "type": "function"
    },
    {
      "inputs": [
        {
          "internalType": "uint256",
          "name": "_DataId",
          "type": "uint256"
        }
      ],
      "name": "getDataByID",
      "outputs": [
        {
          "components": [
            {
              "internalType": "string",
              "name": "ipfs_hash",
              "type": "string"
            },
            {
              "internalType": "address",
              "name": "author",
              "type": "address"
            },
            {
              "internalType": "uint256",
              "name": "timestamp",
              "type": "uint256"
            },
            {
              "internalType": "enum DataFormatting.DataStatus",
              "name": "status",
              "type": "uint8"
            }
          ],
          "internalType": "struct DataFormatting.FormattedData",
          "name": "data",
          "type": "tuple"
        }
      ],
      "stateMutability": "view",
      "type": "function"
    },
    {
      "inputs": [
        {
          "internalType": "string",
          "name": "_hash",
          "type": "string"
        },
        {
          "internalType": "uint256",
          "name": "_salt",
          "type": "uint256"
        }
      ],
      "name": "getEncryptedStringHash",
      "outputs": [
        {
          "internalType": "bytes32",
          "name": "keccak256hash",
          "type": "bytes32"
        }
      ],
      "stateMutability": "pure",
      "type": "function"
    },
    {
      "inputs": [
        {
          "internalType": "uint256",
          "name": "_DataBatchId",
          "type": "uint256"
        }
      ],
      "name": "getFromsForBatch",
      "outputs": [
        {
          "internalType": "string[]",
          "name": "",
          "type": "string[]"
        }
      ],
      "stateMutability": "view",
      "type": "function"
    },
    {
      "inputs": [
        {
          "internalType": "uint256",
          "name": "_DataBatchId",
          "type": "uint256"
        }
      ],
      "name": "getIPFShashesForBatch",
      "outputs": [
        {
          "internalType": "string[]",
          "name": "",
          "type": "string[]"
        }
      ],
      "stateMutability": "view",
      "type": "function"
    },
    {
      "inputs": [
        {
          "internalType": "address",
          "name": "_voter",
          "type": "address"
        },
        {
          "internalType": "uint256",
          "name": "_numTokens",
          "type": "uint256"
        },
        {
          "internalType": "uint256",
          "name": "_DataBatchId",
          "type": "uint256"
        }
      ],
      "name": "getInsertPointForNumTokens",
      "outputs": [
        {
          "internalType": "uint256",
          "name": "prevNode",
          "type": "uint256"
        }
      ],
      "stateMutability": "view",
      "type": "function"
    },
    {
      "inputs": [],
      "name": "getLastAllocatedBatchId",
      "outputs": [
        {
          "internalType": "uint256",
          "name": "LastAllocatedBatchId",
          "type": "uint256"
        }
      ],
      "stateMutability": "view",
      "type": "function"
    },
    {
      "inputs": [],
      "name": "getLastBatchId",
      "outputs": [
        {
          "internalType": "uint256",
          "name": "LastBatchId",
          "type": "uint256"
        }
      ],
      "stateMutability": "view",
      "type": "function"
    },
    {
      "inputs": [],
      "name": "getLastCheckedBatchId",
      "outputs": [
        {
          "internalType": "uint256",
          "name": "LastCheckedBatchId",
          "type": "uint256"
        }
      ],
      "stateMutability": "view",
      "type": "function"
    },
    {
      "inputs": [],
      "name": "getLastDataId",
      "outputs": [
        {
          "internalType": "uint256",
          "name": "DataId",
          "type": "uint256"
        }
      ],
      "stateMutability": "view",
      "type": "function"
    },
    {
      "inputs": [
        {
          "internalType": "address",
          "name": "_voter",
          "type": "address"
        }
      ],
      "name": "getLastNode",
      "outputs": [
        {
          "internalType": "uint256",
          "name": "DataID",
          "type": "uint256"
        }
      ],
      "stateMutability": "view",
      "type": "function"
    },
    {
      "inputs": [
        {
          "internalType": "address",
          "name": "_voter",
          "type": "address"
        }
      ],
      "name": "getLockedTokens",
      "outputs": [
        {
          "internalType": "uint256",
          "name": "numTokens",
          "type": "uint256"
        }
      ],
      "stateMutability": "view",
      "type": "function"
    },
    {
      "inputs": [],
      "name": "getMySystemTokenBalance",
      "outputs": [
        {
          "internalType": "uint256",
          "name": "tokens",
          "type": "uint256"
        }
      ],
      "stateMutability": "view",
      "type": "function"
    },
    {
      "inputs": [
        {
          "internalType": "address",
          "name": "_voter",
          "type": "address"
        },
        {
          "internalType": "uint256",
          "name": "_DataBatchId",
          "type": "uint256"
        },
        {
          "internalType": "uint256",
          "name": "_salt",
          "type": "uint256"
        }
      ],
      "name": "getNumPassingTokens",
      "outputs": [
        {
          "internalType": "uint256",
          "name": "correctFormatChecks",
          "type": "uint256"
        }
      ],
      "stateMutability": "view",
      "type": "function"
    },
    {
      "inputs": [
        {
          "internalType": "address",
          "name": "_voter",
          "type": "address"
        },
        {
          "internalType": "uint256",
          "name": "_DataBatchId",
          "type": "uint256"
        }
      ],
      "name": "getNumTokens",
      "outputs": [
        {
          "internalType": "uint256",
          "name": "numTokens",
          "type": "uint256"
        }
      ],
      "stateMutability": "view",
      "type": "function"
    },
    {
      "inputs": [],
      "name": "getRandom",
      "outputs": [
        {
          "internalType": "uint256",
          "name": "",
          "type": "uint256"
        }
      ],
      "stateMutability": "view",
      "type": "function"
    },
    {
      "inputs": [],
      "name": "getRejectedBatchesCount",
      "outputs": [
        {
          "internalType": "uint256",
          "name": "count",
          "type": "uint256"
        }
      ],
      "stateMutability": "view",
      "type": "function"
    },
    {
      "inputs": [],
      "name": "getSeed",
      "outputs": [
        {
          "internalType": "bytes32",
          "name": "addr",
          "type": "bytes32"
        }
      ],
      "stateMutability": "view",
      "type": "function"
    },
    {
      "inputs": [
        {
          "internalType": "uint256",
          "name": "_DataBatchId",
          "type": "uint256"
        }
      ],
      "name": "getStatusForBatch",
      "outputs": [
        {
          "internalType": "string[]",
          "name": "",
          "type": "string[]"
        }
      ],
      "stateMutability": "view",
      "type": "function"
    },
    {
      "inputs": [
        {
          "internalType": "uint256",
          "name": "_DataBatchId",
          "type": "uint256"
        }
      ],
      "name": "getSubmittedFilesForBatch",
      "outputs": [
        {
          "internalType": "string[]",
          "name": "",
          "type": "string[]"
        }
      ],
      "stateMutability": "view",
      "type": "function"
    },
    {
      "inputs": [
        {
          "internalType": "address",
          "name": "_user",
          "type": "address"
        }
      ],
      "name": "getSystemTokenBalance",
      "outputs": [
        {
          "internalType": "uint256",
          "name": "tokens",
          "type": "uint256"
        }
      ],
      "stateMutability": "view",
      "type": "function"
    },
    {
      "inputs": [
        {
          "internalType": "uint256",
          "name": "_DataBatchId",
          "type": "uint256"
        }
      ],
      "name": "getTotalNumberOfFormatChecks",
      "outputs": [
        {
          "internalType": "uint256",
          "name": "vc",
          "type": "uint256"
        }
      ],
      "stateMutability": "view",
      "type": "function"
    },
    {
      "inputs": [],
      "name": "getTxCounter",
      "outputs": [
        {
          "internalType": "uint256",
          "name": "Counter",
          "type": "uint256"
        }
      ],
      "stateMutability": "view",
      "type": "function"
    },
    {
      "inputs": [
        {
          "internalType": "uint256",
          "name": "_DataBatchId",
          "type": "uint256"
        }
      ],
      "name": "getVotesForBatch",
      "outputs": [
        {
          "internalType": "uint256[]",
          "name": "",
          "type": "uint256[]"
        }
      ],
      "stateMutability": "view",
      "type": "function"
    },
    {
      "inputs": [
        {
          "internalType": "uint256",
          "name": "_terminationDate",
          "type": "uint256"
        }
      ],
      "name": "isExpired",
      "outputs": [
        {
          "internalType": "bool",
          "name": "expired",
          "type": "bool"
        }
      ],
      "stateMutability": "view",
      "type": "function"
    },
    {
      "inputs": [
        {
          "internalType": "uint256",
          "name": "_DataBatchId",
          "type": "uint256"
        }
      ],
      "name": "isPassed",
      "outputs": [
        {
          "internalType": "bool",
          "name": "passed",
          "type": "bool"
        }
      ],
      "stateMutability": "view",
      "type": "function"
    },
    {
      "inputs": [
        {
          "internalType": "uint256",
          "name": "_DataBatchId",
          "type": "uint256"
        },
        {
          "internalType": "address",
          "name": "_worker",
          "type": "address"
        }
      ],
      "name": "isWorkerAllocatedToBatch",
      "outputs": [
        {
          "internalType": "bool",
          "name": "",
          "type": "bool"
        }
      ],
      "stateMutability": "view",
      "type": "function"
    },
    {
      "inputs": [
        {
          "internalType": "address",
          "name": "_worker",
          "type": "address"
        }
      ],
      "name": "isWorkerRegistered",
      "outputs": [
        {
          "internalType": "bool",
          "name": "passed",
          "type": "bool"
        }
      ],
      "stateMutability": "view",
      "type": "function"
    },
    {
      "inputs": [],
      "name": "owner",
      "outputs": [
        {
          "internalType": "address",
          "name": "",
          "type": "address"
        }
      ],
      "stateMutability": "view",
      "type": "function"
    },
    {
      "inputs": [
        {
          "internalType": "uint256",
          "name": "k",
          "type": "uint256"
        },
        {
          "internalType": "uint256",
          "name": "N",
          "type": "uint256"
        }
      ],
      "name": "random_selection",
      "outputs": [
        {
          "internalType": "uint256[]",
          "name": "",
          "type": "uint256[]"
        }
      ],
      "stateMutability": "view",
      "type": "function"
    },
    {
      "inputs": [],
      "name": "renounceOwnership",
      "outputs": [],
      "stateMutability": "nonpayable",
      "type": "function"
    },
    {
      "inputs": [
        {
          "internalType": "uint256",
          "name": "_DataBatchId",
          "type": "uint256"
        }
      ],
      "name": "rescueTokens",
      "outputs": [],
      "stateMutability": "nonpayable",
      "type": "function"
    },
    {
      "inputs": [
        {
          "internalType": "uint256[]",
          "name": "_DataBatchIDs",
          "type": "uint256[]"
        }
      ],
      "name": "rescueTokensInMultipleDatas",
      "outputs": [],
      "stateMutability": "nonpayable",
      "type": "function"
    },
    {
      "inputs": [
        {
          "internalType": "uint256",
          "name": "_DataBatchId",
          "type": "uint256"
        },
        {
          "internalType": "uint256",
          "name": "_voteOption",
          "type": "uint256"
        },
        {
          "internalType": "string",
          "name": "_clearIPFSHash",
          "type": "string"
        },
        {
          "internalType": "uint256",
          "name": "_salt",
          "type": "uint256"
        }
      ],
      "name": "revealFormatCheck",
      "outputs": [],
      "stateMutability": "nonpayable",
      "type": "function"
    },
    {
      "inputs": [
        {
          "internalType": "uint256",
          "name": "_DataBatchId",
          "type": "uint256"
        }
      ],
      "name": "revealPeriodActive",
      "outputs": [
        {
          "internalType": "bool",
          "name": "active",
          "type": "bool"
        }
      ],
      "stateMutability": "view",
      "type": "function"
    },
    {
      "inputs": [],
      "name": "sFuel",
      "outputs": [
        {
          "internalType": "address",
          "name": "",
          "type": "address"
        }
      ],
      "stateMutability": "view",
      "type": "function"
    },
    {
      "inputs": [
        {
          "internalType": "uint256",
          "name": "N",
          "type": "uint256"
        }
      ],
      "name": "shuffle_array",
      "outputs": [
        {
          "internalType": "uint256[]",
          "name": "",
          "type": "uint256[]"
        }
      ],
      "stateMutability": "view",
      "type": "function"
    },
    {
      "inputs": [
        {
          "internalType": "uint256",
          "name": "",
          "type": "uint256"
        }
      ],
      "name": "toUnregisterWorkers",
      "outputs": [
        {
          "internalType": "address",
          "name": "",
          "type": "address"
        }
      ],
      "stateMutability": "view",
      "type": "function"
    },
    {
      "inputs": [],
      "name": "token",
      "outputs": [
        {
          "internalType": "contract IERC20",
          "name": "",
          "type": "address"
        }
      ],
      "stateMutability": "view",
      "type": "function"
    },
    {
      "inputs": [
        {
          "internalType": "address",
          "name": "newOwner",
          "type": "address"
        }
      ],
      "name": "transferOwnership",
      "outputs": [],
      "stateMutability": "nonpayable",
      "type": "function"
    },
    {
      "inputs": [
        {
          "internalType": "address",
          "name": "addr",
          "type": "address"
        }
      ],
      "name": "updateAddressManager",
      "outputs": [],
      "stateMutability": "nonpayable",
      "type": "function"
    },
    {
      "inputs": [
        {
          "internalType": "uint256",
          "name": "AllocatedBatchCursor_",
          "type": "uint256"
        }
      ],
      "name": "updateAllocatedBatchCursor",
      "outputs": [],
      "stateMutability": "nonpayable",
      "type": "function"
    },
    {
      "inputs": [
        {
          "internalType": "address",
          "name": "addr",
          "type": "address"
        }
      ],
      "name": "updateArchiveManager",
      "outputs": [],
      "stateMutability": "nonpayable",
      "type": "function"
    },
    {
      "inputs": [
        {
          "internalType": "uint256",
          "name": "BatchCheckingCursor_",
          "type": "uint256"
        }
      ],
      "name": "updateBatchCheckingCursor",
      "outputs": [],
      "stateMutability": "nonpayable",
      "type": "function"
    },
    {
      "inputs": [
        {
          "internalType": "address",
          "name": "addr",
          "type": "address"
        }
      ],
      "name": "updateParametersManager",
      "outputs": [],
      "stateMutability": "nonpayable",
      "type": "function"
    },
    {
      "inputs": [
        {
          "internalType": "address",
          "name": "addr",
          "type": "address"
        }
      ],
      "name": "updateRepManager",
      "outputs": [],
      "stateMutability": "nonpayable",
      "type": "function"
    },
    {
      "inputs": [
        {
          "internalType": "address",
          "name": "addr",
          "type": "address"
        }
      ],
      "name": "updateRewardManager",
      "outputs": [],
      "stateMutability": "nonpayable",
      "type": "function"
    },
    {
      "inputs": [
        {
          "internalType": "address",
          "name": "addr",
          "type": "address"
        }
      ],
      "name": "updateSpotManager",
      "outputs": [],
      "stateMutability": "nonpayable",
      "type": "function"
    },
    {
      "inputs": [
        {
          "internalType": "address",
          "name": "addr",
          "type": "address"
        }
      ],
      "name": "updateStakeManager",
      "outputs": [],
      "stateMutability": "nonpayable",
      "type": "function"
    },
    {
      "inputs": [
        {
          "internalType": "address",
          "name": "_sFuel",
          "type": "address"
        }
      ],
      "name": "updatesFuelFaucet",
      "outputs": [],
      "stateMutability": "nonpayable",
      "type": "function"
    },
    {
      "inputs": [
        {
          "internalType": "uint256",
          "name": "_prevID",
          "type": "uint256"
        },
        {
          "internalType": "uint256",
          "name": "_nextID",
          "type": "uint256"
        },
        {
          "internalType": "address",
          "name": "_voter",
          "type": "address"
        },
        {
          "internalType": "uint256",
          "name": "_numTokens",
          "type": "uint256"
        }
      ],
      "name": "validPosition",
      "outputs": [
        {
          "internalType": "bool",
          "name": "APPROVED",
          "type": "bool"
        }
      ],
      "stateMutability": "view",
      "type": "function"
    },
    {
      "inputs": [
        {
          "internalType": "uint256",
          "name": "_numTokens",
          "type": "uint256"
        }
      ],
      "name": "withdrawVotingRights",
      "outputs": [],
      "stateMutability": "nonpayable",
      "type": "function"
    }
  ],
  "bytecode": "0x6080604052600060145560006016556001601755600160185560016019556001601a556000601b556000601c556000601d556000601e556000601f553480156200004857600080fd5b5060405162009521380380620095218339810160408190526200006b916200010d565b6200007f62000079620000b9565b620000bd565b6001600160a01b0381166200009357600080fd5b602080546001600160a01b0319166001600160a01b03929092169190911790556200013d565b3390565b600080546001600160a01b038381166001600160a01b0319831681178455604051919092169283917f8be0079c531659141344cd1fd0a4f28419497f9722a3daafe3b4186f6b6457e09190a35050565b6000602082840312156200011f578081fd5b81516001600160a01b038116811462000136578182fd5b9392505050565b6193d4806200014d6000396000f3fe608060405234801561001057600080fd5b50600436106107175760003560e01c806397603560116103a8578063d8645d37116101f4578063e97439cf1161011a578063f5ae7c7d116100b8578063f96305f011610087578063f96305f014610e9b578063fc0c546a14610ea3578063fca4956314610eab578063ff43de9d14610ebe57610717565b8063f5ae7c7d14610e70578063f716596d14610e78578063f721de4a14610e80578063f80a23fd14610e9357610717565b8063ef4fcdad116100f4578063ef4fcdad14610e3a578063f2d9e74d14610e42578063f2fde38b14610e4a578063f4cdfcc414610e5d57610717565b8063e97439cf14610e0c578063eb1322ff14610e1f578063ed8becfa14610e2757610717565b8063dd15f09511610192578063e44c974b11610161578063e44c974b14610dc0578063e604c12714610dd3578063e798a7da14610de6578063e7b1d43c14610df957610717565b8063dd15f09514610d8a578063dd61868214610d92578063df05368e14610da5578063e1f7a43014610db857610717565b8063d9548e53116101ce578063d9548e5314610d3c578063d9845fb814610d4f578063da14563a14610d6f578063db687c1714610d7757610717565b8063d8645d3714610d0e578063d8b7567414610d16578063d901402b14610d2957610717565b8063b10aa584116102d9578063d138209211610277578063d6b0206c11610246578063d6b0206c14610ccd578063d78b94cc14610cd5578063d817587e14610ce8578063d822ce0114610cfb57610717565b8063d138209214610c8c578063d186981d14610c9f578063d420ec0b14610cb2578063d58f575c14610cc557610717565b8063b43bd069116102b3578063b43bd06914610c40578063b8f011b314610c53578063c47c4bc214610c66578063c4e4f82a14610c7957610717565b8063b10aa58414610c07578063b1a2e0be14610c1a578063b1d7ea9814610c2d57610717565b8063a4439dc511610346578063a905779011610320578063a905779014610bd1578063aa7ca46414610be4578063aacc5a1714610bf7578063ab43e78d14610bff57610717565b8063a4439dc514610ba3578063a4b7e23314610bb6578063a511dba014610bc957610717565b8063a0e71c1511610382578063a0e71c1514610b6d578063a1103f3714610b80578063a1b6b5b714610b93578063a350715a14610b9b57610717565b80639760356014610b3f5780639769d84614610b525780639fc9c52f14610b5a57610717565b8063515535e811610567578063763a39f211610498578063819b02931161043657806388d072eb1161040557806388d072eb14610ae85780638c89d02714610afb5780638da5cb5b14610b245780638df0296e14610b2c57610717565b8063819b029314610ab2578063821aa8c014610ac557806383cc6ef214610ad85780638473850b14610ae057610717565b80637a34da67116104725780637a34da6714610a625780637f9510a214610a6a5780637f97e83614610a725780637fabe35b14610a8557610717565b8063763a39f214610a3457806376c1fef414610a3c57806377124dec14610a4f57610717565b8063667bf0f8116105055780636b2d95d4116104df5780636b2d95d4146109f35780637074222b14610a06578063715018a614610a1957806371880b1b14610a2157610717565b8063667bf0f8146109b55780636a192ff5146109bd5780636b1485a3146109e057610717565b80635a452943116105415780635a4529431461094f5780635b113a551461096f5780635df6055d146109825780636371d81f146109a257610717565b8063515535e81461093757806351912f291461093f57806353bf27f11461094757610717565b80633538af821161064c57806346a7aea6116105ea57806349403183116105b957806349403183146108eb5780634d4b7d9b146108fe5780634d884281146109115780634fe8b4c11461092457610717565b806346a7aea6146108b557806347fe2d20146108c857806348257dc9146108d05780634852e2f0146108e357610717565b806340fbaae41161062657806340fbaae414610869578063427fa1d21461087c578063441c77c01461088f5780634671ace5146108a257610717565b80633538af821461083b578063353f44d01461084e57806339e7357c1461086157610717565b8063154fd39b116106b957806329a47bc71161069357806329a47bc7146107ed5780632c052031146108025780632d917c68146108155780632f469fd11461082857610717565b8063154fd39b146107bd578063226ed300146107c5578063275c2590146107e557610717565b8063092a5cce116106f5578063092a5cce1461076d5780630e6661a714610775578063100372f51461078a578063106798101461079d57610717565b806301a48b981461071c578063050eb2eb14610745578063059576231461075a575b600080fd5b61072f61072a366004617e34565b610ec6565b60405161073c9190618184565b60405180910390f35b610758610753366004617b22565b611063565b005b610758610768366004617b22565b6110c4565b610758611125565b61077d611177565b60405161073c9190618089565b610758610798366004617e34565b61117d565b6107b06107ab366004617e5d565b6111c1565b60405161073c91906181d3565b61077d611266565b6107d86107d3366004617e34565b61126c565b60405161073c91906181c8565b6107586112b4565b6107f5611402565b60405161073c91906180bc565b61077d610810366004617b85565b611411565b6107d8610823366004617b5a565b6115ae565b6107b0610836366004617e5d565b6115ce565b6107f5610849366004617e34565b6115f2565b61077d61085c366004617b22565b61161c565b61077d61162e565b610758610877366004617f68565b61164b565b61077d61088a366004617b22565b6119af565b6107d861089d366004617e34565b611a4f565b6107586108b0366004617e34565b611aa9565b6107586108c3366004617b22565b611b17565b61077d611b78565b6107586108de366004617e34565b611b7e565b61077d611fbe565b6107d86108f9366004617e34565b611fc4565b6107d861090c366004617e34565b612211565b61075861091f366004617b22565b612226565b610758610932366004617e34565b612287565b61077d612307565b6107f561230d565b61077d61231c565b61096261095d366004617e34565b612322565b60405161073c91906190c0565b61077d61097d366004617e5d565b612445565b610995610990366004617e34565b612462565b60405161073c9190618124565b6107586109b0366004617e34565b61267f565b610758612732565b6109d06109cb366004617e34565b612d42565b60405161073c9493929190618210565b6107586109ee366004617e34565b612e01565b61077d610a01366004617b22565b613c8f565b61077d610a14366004617b22565b613c9e565b610758613cb9565b61077d610a2f366004617e34565b613d04565b61077d613d41565b610995610a4a366004617e34565b613d47565b610758610a5d366004617e34565b613f64565b6107f5613fa8565b61077d613fb7565b6107d8610a80366004617b5a565b613fce565b610a98610a93366004617e34565b614021565b60405161073c9e9d9c9b9a9998979695949392919061915f565b6107d8610ac0366004617f2a565b614120565b6107f5610ad3366004617e34565b614161565b6107f5614171565b61077d614180565b6107b0610af6366004617e5d565b614186565b610b0e610b09366004617b22565b6141aa565b60405161073c9a999897969594939291906180d0565b6107f561420d565b6107f5610b3a366004617f09565b61421c565b610758610b4d366004617e34565b614254565b61077d614404565b610758610b68366004617bb9565b61440a565b61077d610b7b366004617e34565b61445c565b61077d610b8e366004617b5a565b614480565b61077d6144b3565b61077d6144b9565b6107d8610bb1366004617e34565b6144bf565b610758610bc4366004617e8c565b614521565b61077d614b84565b6107d8610bdf366004617c79565b614b8a565b6107d8610bf2366004617b5a565b614bf0565b61077d614c43565b6107f5614cf8565b6107f5610c15366004617e34565b614d07565b6107d8610c28366004617b22565b614d17565b61072f610c3b366004617f09565b614de4565b61077d610c4e366004617b85565b614ffe565b61072f610c61366004617f09565b6150ea565b610758610c74366004617b22565b615252565b61077d610c87366004617e34565b6152b3565b61077d610c9a366004617b5a565b6152f0565b6107d8610cad366004617e5d565b615385565b6107d8610cc0366004617b5a565b615460565b61077d615480565b61077d615486565b610995610ce3366004617f09565b61548c565b610995610cf6366004617e34565b615671565b6107f5610d09366004617b5a565b61588e565b6107f56158aa565b61077d610d24366004617e5d565b6158b9565b61077d610d37366004617b5a565b6158d6565b6107d8610d4a366004617e34565b61591b565b610d62610d5d366004617e34565b615920565b60405161073c9190618f46565b610758615ab8565b610758610d85366004617b22565b615cfa565b6107f5615d5b565b610758610da0366004617b22565b615d6a565b610758610db3366004617b22565b615dcb565b61077d615e2c565b61072f610dce366004617e34565b615e3f565b6107b0610de1366004617e34565b615ecb565b6107d8610df4366004617b22565b615f93565b610758610e07366004617e34565b615fb4565b610995610e1a366004617e34565b6160fc565b61077d6162bf565b610995610e35366004617e34565b6162c5565b61077d6165d5565b61077d6165db565b610758610e58366004617b22565b6165e1565b61077d610e6b366004617cd9565b61664f565b61077d616664565b61075861666a565b6107d8610e8e366004617e34565b616b4f565b6107d8616b57565b61077d616b70565b6107f5616b76565b61077d610eb9366004617b22565b616b85565b6107f5616c2d565b6060610ed182616b4f565b610ef65760405162461bcd60e51b8152600401610eed90618be0565b60405180910390fd5b6000828152600f6020908152604080832080548251818502810185019093528083529192909190830182828015610f5657602002820191906000526020600020905b81546001600160a01b03168152600190910190602001808311610f38575b50505050509050600081516001600160401b03811115610f8657634e487b7160e01b600052604160045260246000fd5b604051908082528060200260200182016040528015610faf578160200160208202803683370190505b50905060005b825181101561105957600360008681526020019081526020016000206000848381518110610ff357634e487b7160e01b600052603260045260246000fd5b60200260200101516001600160a01b03166001600160a01b031681526020019081526020016000205482828151811061103c57634e487b7160e01b600052603260045260246000fd5b60209081029190910101528061105181619318565b915050610fb5565b509150505b919050565b61106b616c3c565b6001600160a01b031661107c61420d565b6001600160a01b0316146110a25760405162461bcd60e51b8152600401610eed9061898e565b602380546001600160a01b0319166001600160a01b0392909216919091179055565b6110cc616c3c565b6001600160a01b03166110dd61420d565b6001600160a01b0316146111035760405162461bcd60e51b8152600401610eed9061898e565b602780546001600160a01b0319166001600160a01b0392909216919091179055565b61112d616c3c565b6001600160a01b031661113e61420d565b6001600160a01b0316146111645760405162461bcd60e51b8152600401610eed9061898e565b61116c61420d565b6001600160a01b0316ff5b60165481565b611185616c3c565b6001600160a01b031661119661420d565b6001600160a01b0316146111bc5760405162461bcd60e51b8152600401610eed9061898e565b601955565b6007602090815260009283526040808420909152908252902080546111e5906192dd565b80601f0160208091040260200160405190810160405280929190818152602001828054611211906192dd565b801561125e5780601f106112335761010080835404028352916020019161125e565b820191906000526020600020905b81548152906001019060200180831161124157829003601f168201915b505050505081565b601a5490565b600061127782616b4f565b6112935760405162461bcd60e51b8152600401610eed90618e7f565b6000828152600b60205260409020600701546112ae9061591b565b92915050565b336000908152600c60205260409020600581015460ff1615156001146112ec5760405162461bcd60e51b8152600401610eed9061891d565b60018101541580159061130957506005810154610100900460ff16155b156113665760058101805461ff001916610100179055601380546001810182556000919091527f66de8ffda797e3de9c05e8fc57b3bf0ec28a930d40b0d285d93c06501cf6a0900180546001600160a01b031916331790556113de565b60018101546113de5761137833616c40565b61138133616d98565b80546001600160a01b031916339081178255426004830181905560058301805460ff191690556040517f9dadcedba048e92b943ea1c5861cee1df63a566d7f795869c004780c1c698e2b916113d591618089565b60405180910390a25b6001601b60008282546113f1919061924b565b909155506113ff9050616ec8565b50565b6022546001600160a01b031681565b60008061141d856119af565b9050600061142b86836152f0565b90505b81156115a35761143e86836152f0565b90508481116114fb57838214156114f3576001600160a01b03861660009081526008602052604090819020905163215e94cf60e01b815273__$6ffa5bf1f4fa681f07e1987a80577d5f4e$__9163215e94cf916114a0919086906004016180ae565b60206040518083038186803b1580156114b857600080fd5b505af41580156114cc573d6000803e3d6000fd5b505050506040513d601f19601f820116820180604052508101906114f09190617e4c565b91505b5090506115a7565b6001600160a01b03861660009081526008602052604090819020905163215e94cf60e01b815273__$6ffa5bf1f4fa681f07e1987a80577d5f4e$__9163215e94cf9161154c919086906004016180ae565b60206040518083038186803b15801561156457600080fd5b505af4158015611578573d6000803e3d6000fd5b505050506040513d601f19601f8201168201806040525081019061159c9190617e4c565b915061142e565b5090505b9392505050565b600160209081526000928352604080842090915290825290205460ff1681565b6004602090815260009283526040808420909152908252902080546111e5906192dd565b6011818154811061160257600080fd5b6000918252602090912001546001600160a01b0316905081565b600d6020526000908152604090205481565b60405160009080602081848060185afa61164457fe5b5051919050565b611653616ec8565b61165c84611a4f565b6116785760405162461bcd60e51b8152600401610eed90618b53565b33600090815260016020908152604080832087845290915290205460ff166116b25760405162461bcd60e51b8152600401610eed906186b6565b33600090815260026020908152604080832087845290915290205460ff16156116ed5760405162461bcd60e51b8152600401610eed90618ea8565b6116f733856158d6565b611701838361664f565b1461171e5760405162461bcd60e51b8152600401610eed90618a57565b600061172a33866152f0565b90508360011415611761576000858152600b60205260408120600801805483929061175690849061924b565b909155506117889050565b6000858152600b60205260408120600901805483929061178290849061924b565b90915550505b33600090815260086020526040908190209051634dab476560e01b815273__$6ffa5bf1f4fa681f07e1987a80577d5f4e$__91634dab4765916117d0919089906004016180ae565b60006040518083038186803b1580156117e857600080fd5b505af41580156117fc573d6000803e3d6000fd5b50503360008181526002602090815260408083208b84528252808320805460ff191660011790556003825280832084845282528083208a90558a835260048252808320938352928152919020865161185b9450909250908601906178a3565b50336000908152600c60209081526040808320888452600b909252909120600301546118889060016171b3565b6000878152600b602052604090206003015560028101805460ff191660011790554260048201556118b833616d98565b600581015460ff1615611915576118ce336171bf565b61191557601180546001810182556000919091527f31ecc21a745e3968a04e9570e4425bc18fa8019c68028196b546d1669c200c680180546001600160a01b031916331790555b6000868152600b60205260409020600301546119345761193486612e01565b6001601b6000828254611947919061924b565b90915550506000868152600b60205260409081902060088101546009909101549151339288928a927f2e5fbeef18eaa8d8ea3b0122bc64445c4daaa6f454dfb889456791a92287f3789261199f928992909190619149565b60405180910390a4505050505050565b6001600160a01b038116600090815260086020526040808220905163215e94cf60e01b815273__$6ffa5bf1f4fa681f07e1987a80577d5f4e$__9163215e94cf916119ff919085906004016180ae565b60206040518083038186803b158015611a1757600080fd5b505af4158015611a2b573d6000803e3d6000fd5b505050506040513d601f19601f820116820180604052508101906112ae9190617e4c565b6000611a5a82616b4f565b611a765760405162461bcd60e51b8152600401610eed90618be0565b6000828152600b6020526040902060070154611a919061591b565b1580156112ae5750611aa2826144bf565b1592915050565b611ab1616c3c565b6001600160a01b0316611ac261420d565b6001600160a01b031614611ae85760405162461bcd60e51b8152600401610eed9061898e565b60008181526010602052604090205460ff16156113ff576000908152601060205260409020805460ff19169055565b611b1f616c3c565b6001600160a01b0316611b3061420d565b6001600160a01b031614611b565760405162461bcd60e51b8152600401610eed9061898e565b602680546001600160a01b0319166001600160a01b0392909216919091179055565b60195490565b6025546001600160a01b031615801590611ba7575060008181526010602052604090205460ff16155b15611fa357602554604051637b90ef2560e11b81526001600160a01b039091169063f721de4a90611bdc908490600401618089565b602060405180830381600087803b158015611bf657600080fd5b505af1158015611c0a573d6000803e3d6000fd5b505050506040513d601f19601f82011682018060405250810190611c2e9190617c5f565b15611fa357602554604051631b308bf760e31b81526000916001600160a01b03169063d9845fb890611c64908590600401618089565b600060405180830381600087803b158015611c7e57600080fd5b505af1158015611c92573d6000803e3d6000fd5b505050506040513d6000823e601f3d908101601f19168201604052611cba9190810190617d1b565b6101a08101519091506001816003811115611ce557634e487b7160e01b600052602160045260246000fd5b1415611f87576040805160808101825261016084015181523360208083019190915242828401526000606083018190526016548152600a8252929092208151805192939192611d3792849201906178a3565b506020820151600182810180546001600160a01b0319166001600160a01b0390931692909217909155604083015160028301556060830151600380840180549293909260ff1916918490811115611d9e57634e487b7160e01b600052602160045260246000fd5b0217905550506018546000908152600b602090815260409182902060275483516357716b7f60e01b815293519194506001600160a01b0316926357716b7f926004808301939192829003018186803b158015611df957600080fd5b505afa158015611e0d573d6000803e3d6000fd5b505050506040513d601f19601f82011682018060405250810190611e319190617e4c565b81600101541015611e57576001816001016000828254611e51919061924b565b90915550505b602760009054906101000a90046001600160a01b03166001600160a01b03166357716b7f6040518163ffffffff1660e01b815260040160206040518083038186803b158015611ea557600080fd5b505afa158015611eb9573d6000803e3d6000fd5b505050506040513d601f19601f82011682018060405250810190611edd9190617e4c565b816001015410611f2c57600581018054600160ff19909116811761ff00191690915560188054600090611f1190849061924b565b90915550506016546018546000908152600b60205260409020555b611f34615ab8565b601654611f4290600161924b565b60168190556101608401516040517fe72ee44ad0ed1dfc338f7eec797c944eb218773c1edbb4bb653dd9c1e2a6230491611f7d9133906181e6565b60405180910390a2505b50506000818152601060205260409020805460ff191660011790555b6001601b6000828254611fb6919061924b565b909155505050565b601e5481565b6000818152600b6020908152604080832081516101c081018352815481526001820154938101939093526002810154918301919091526003810154606083015260048101546080830152600581015460ff808216151560a08501526101008083048216151560c08601526201000090920416151560e0840152600682015490830152600781015461012083015260088101546101408301526009810154610160830152600a8101805484939291610180840191612080906192dd565b80601f01602080910402602001604051908101604052809291908181526020018280546120ac906192dd565b80156120f95780601f106120ce576101008083540402835291602001916120f9565b820191906000526020600020905b8154815290600101906020018083116120dc57829003601f168201915b5050509183525050600b82015460209091019060ff16600381111561212e57634e487b7160e01b600052602160045260246000fd5b600381111561214d57634e487b7160e01b600052602160045260246000fd5b9052506101608101516101408201519192506121689161924b565b602760009054906101000a90046001600160a01b03166001600160a01b031663ea19733c6040518163ffffffff1660e01b815260040160206040518083038186803b1580156121b657600080fd5b505afa1580156121ca573d6000803e3d6000fd5b505050506040513d601f19601f820116820180604052508101906121ee9190617e4c565b6121f89190619277565b610140820151612209906064619277565b119392505050565b60106020526000908152604090205460ff1681565b61222e616c3c565b6001600160a01b031661223f61420d565b6001600160a01b0316146122655760405162461bcd60e51b8152600401610eed9061898e565b601580546001600160a01b0319166001600160a01b0392909216919091179055565b61228f616c3c565b6001600160a01b03166122a061420d565b6001600160a01b0316146122c65760405162461bcd60e51b8152600401610eed9061898e565b6000818152600a60205260408120906122df8282617927565b506001810180546001600160a01b031916905560006002820155600301805460ff1916905550565b60185490565b6023546001600160a01b031681565b60115490565b61232a617963565b6000828152600a602052604090819020815160808101909252805482908290612352906192dd565b80601f016020809104026020016040519081016040528092919081815260200182805461237e906192dd565b80156123cb5780601f106123a0576101008083540402835291602001916123cb565b820191906000526020600020905b8154815290600101906020018083116123ae57829003601f168201915b505050918352505060018201546001600160a01b031660208201526002820154604082015260038083015460609092019160ff169081111561241d57634e487b7160e01b600052602160045260246000fd5b600381111561243c57634e487b7160e01b600052602160045260246000fd5b90525092915050565b600560209081526000928352604080842090915290825290205481565b606061246d82616b4f565b6124895760405162461bcd60e51b8152600401610eed90618be0565b6000828152600f60209081526040808320805482518185028101850190935280835291929091908301828280156124e957602002820191906000526020600020905b81546001600160a01b031681526001909101906020018083116124cb575b50505050509050600081516001600160401b0381111561251957634e487b7160e01b600052604160045260246000fd5b60405190808252806020026020018201604052801561254c57816020015b60608152602001906001900390816125375790505b50905060005b82518110156110595760066000868152602001908152602001600020600084838151811061259057634e487b7160e01b600052603260045260246000fd5b60200260200101516001600160a01b03166001600160a01b0316815260200190815260200160002080546125c3906192dd565b80601f01602080910402602001604051908101604052809291908181526020018280546125ef906192dd565b801561263c5780601f106126115761010080835404028352916020019161263c565b820191906000526020600020905b81548152906001019060200180831161261f57829003601f168201915b505050505082828151811061266157634e487b7160e01b600052603260045260246000fd5b6020026020010181905250808061267790619318565b915050612552565b612687616c3c565b6001600160a01b031661269861420d565b6001600160a01b0316146126be5760405162461bcd60e51b8152600401610eed9061898e565b6000818152600b602052604081208181556001810182905560028101829055600381018290556004810182905560058101805462ffffff191690556006810182905560078101829055600881018290556009810182905590612723600a830182617927565b50600b01805460ff1916905550565b601a546000908152600b602052604090206005015460ff166127665760405162461bcd60e51b8152600401610eed90618afd565b601a546000908152600b602052604090206005015462010000900460ff16156127a15760405162461bcd60e51b8152600401610eed906188c0565b60006128c561283a601180549050602760009054906101000a90046001600160a01b03166001600160a01b03166370d29bdf6040518163ffffffff1660e01b815260040160206040518083038186803b1580156127fd57600080fd5b505afa158015612811573d6000803e3d6000fd5b505050506040513d601f19601f820116820180604052508101906128359190617e4c565b61722f565b602760009054906101000a90046001600160a01b03166001600160a01b031663166ff4c76040518163ffffffff1660e01b815260040160206040518083038186803b15801561288857600080fd5b505afa15801561289c573d6000803e3d6000fd5b505050506040513d601f19601f820116820180604052508101906128c09190617e4c565b617245565b601154601a80546000908152600b6020908152604080832060030186905592548252828220600201859055602754835163280be64560e21b815293519596509394919361297a936001600160a01b039091169263a02f991492600480840193919291829003018186803b15801561293b57600080fd5b505afa15801561294f573d6000803e3d6000fd5b505050506040513d601f19601f820116820180604052508101906129739190617e4c565b4290617255565b90506000612a0e602760009054906101000a90046001600160a01b03166001600160a01b03166302c5a49f6040518163ffffffff1660e01b815260040160206040518083038186803b1580156129cf57600080fd5b505afa1580156129e3573d6000803e3d6000fd5b505050506040513d601f19601f82011682018060405250810190612a079190617e4c565b8390617255565b601a80546000908152600b6020526040808220600601869055825482528082206007018490559154815220600501805462ff0000191662010000179055905060018410801590612a5f575060018310155b612a7b5760405162461bcd60e51b8152600401610eed906184c9565b6000612a8785856150ea565b9050600081516001600160401b03811115612ab257634e487b7160e01b600052604160045260246000fd5b604051908082528060200260200182016040528015612adb578160200160208202803683370190505b50905060005b8251811015612b9a576011838281518110612b0c57634e487b7160e01b600052603260045260246000fd5b602002602001015181548110612b3257634e487b7160e01b600052603260045260246000fd5b9060005260206000200160009054906101000a90046001600160a01b0316828281518110612b7057634e487b7160e01b600052603260045260246000fd5b6001600160a01b039092166020928302919091019091015280612b9281619318565b915050612ae1565b5060005b8251811015612d02576000828281518110612bc957634e487b7160e01b600052603260045260246000fd5b602002602001015190506000600c6000836001600160a01b03166001600160a01b031681526020019081526020016000209050612c0582616c40565b612c0e82617261565b612c5e57601280546001810182556000919091527fbb8a6a4669ba250d26cd7a459eca9d215f8307e33aebe50379bc5a3617ec34440180546001600160a01b0319166001600160a01b0384161790555b601a80546000908152600f602090815260408083208054600180820183559185529290932090910180546001600160a01b0319166001600160a01b03871617905582549184019190915560028301805460ff19169055905490517fe4ee2dfabe57cee15e3f558890b20455f54c1fa0718e5276faad70a6500e6b8c90612ce59085906180bc565b60405180910390a250508080612cfa90619318565b915050612b9e565b50601a54612d11906001617255565b601a55612d1c614c43565b6014819055506001601b6000828254612d35919061924b565b9091555050505050505050565b600a60205260009081526040902080548190612d5d906192dd565b80601f0160208091040260200160405190810160405280929190818152602001828054612d89906192dd565b8015612dd65780601f10612dab57610100808354040283529160200191612dd6565b820191906000526020600020905b815481529060010190602001808311612db957829003601f168201915b505050506001830154600284015460039094015492936001600160a01b039091169290915060ff1684565b612e0a8161126c565b80612e2457506000818152600b6020526040902060030154155b612e405760405162461bcd60e51b8152600401610eed906189fa565b6000818152600b6020526040902060050154610100900460ff1615612e775760405162461bcd60e51b8152600401610eed90618c17565b6000818152600f6020908152604080832080548251818502810185019093528083529192909190830182828015612ed757602002820191906000526020600020905b81546001600160a01b03168152600190910190602001808311612eb9575b50505050509050600081516001600160401b03811115612f0757634e487b7160e01b600052604160045260246000fd5b604051908082528060200260200182016040528015612f3a57816020015b6060815260200190600190039081612f255790505b509050600082516001600160401b03811115612f6657634e487b7160e01b600052604160045260246000fd5b604051908082528060200260200182016040528015612f8f578160200160208202803683370190505b50905060005b8351811015613112576000848281518110612fc057634e487b7160e01b600052603260045260246000fd5b60209081029190910181015160008881526004835260408082206001600160a01b0384168352909352918220805491935090612ffb906192dd565b80601f0160208091040260200160405190810160405280929190818152602001828054613027906192dd565b80156130745780601f1061304957610100808354040283529160200191613074565b820191906000526020600020905b81548152906001019060200180831161305757829003601f168201915b50505060008a81526005602090815260408083206001600160a01b0389168452909152902054885193945092849250889150869081106130c457634e487b7160e01b600052603260045260246000fd5b6020026020010181905250808585815181106130f057634e487b7160e01b600052603260045260246000fd5b602002602001018181525050505050808061310a90619318565b915050612f95565b5060006131bd6064602760009054906101000a90046001600160a01b03166001600160a01b031663ea19733c6040518163ffffffff1660e01b815260040160206040518083038186803b15801561316857600080fd5b505afa15801561317c573d6000803e3d6000fd5b505050506040513d601f19601f820116820180604052508101906131a09190617e4c565b86516131ac9190619277565b6131b69190619263565b6001617245565b90506000836000815181106131e257634e487b7160e01b600052603260045260246000fd5b6020026020010151905060005b84518110156132d8576000805b865181101561328d5761325d87848151811061322857634e487b7160e01b600052603260045260246000fd5b602002602001015188838151811061325057634e487b7160e01b600052603260045260246000fd5b6020026020010151614b8a565b1561327b5761326d60018361924b565b915084821061327b5761328d565b8061328581619318565b9150506131fc565b508381106132c5578582815181106132b557634e487b7160e01b600052603260045260246000fd5b60200260200101519250506132d8565b50806132d081619318565b9150506131ef565b506000836000815181106132fc57634e487b7160e01b600052603260045260246000fd5b6020026020010151905060005b84518110156133eb576000805b86518110156133a05786818151811061333f57634e487b7160e01b600052603260045260246000fd5b602002602001015187848151811061336757634e487b7160e01b600052603260045260246000fd5b6020026020010151141561338e5761338060018361924b565b915085821061338e576133a0565b8061339881619318565b915050613316565b508481106133d8578582815181106133c857634e487b7160e01b600052603260045260246000fd5b60200260200101519250506133eb565b50806133e381619318565b915050613309565b5060005b86518110156139f457600087828151811061341a57634e487b7160e01b600052603260045260246000fd5b6020908102919091018101516001600160a01b03811660009081526002835260408082208d8352909352919091205490915060ff1661345882616d98565b6001600160a01b0382166000908152600c6020526040902081156138d5576001600160a01b0383166000818152600c6020908152604080832060028101805460ff191660011790556003018390558e83526004825280832093835292905290812080546134c4906192dd565b80601f01602080910402602001604051908101604052809291908181526020018280546134f0906192dd565b801561353d5780601f106135125761010080835404028352916020019161353d565b820191906000526020600020905b81548152906001019060200180831161352057829003601f168201915b5050505050905061354e8188614b8a565b15613836576024546040516308c0a84360e11b81526000916001600160a01b0316906311815086906135849088906004016180bc565b60206040518083038186803b15801561359c57600080fd5b505afa1580156135b0573d6000803e3d6000fd5b505050506040513d601f19601f820116820180604052508101906135d49190617b3e565b6022546027546040805162fb493d60e31b815290519394506001600160a01b0392831693631b6d990a938c9316916307da49e8916004808301926020929190829003018186803b15801561362757600080fd5b505afa15801561363b573d6000803e3d6000fd5b505050506040513d601f19601f8201168201806040525081019061365f9190617e4c565b6136699190619277565b836040518363ffffffff1660e01b815260040161368792919061912b565b602060405180830381600087803b1580156136a157600080fd5b505af11580156136b5573d6000803e3d6000fd5b505050506040513d601f19601f820116820180604052508101906136d99190617c5f565b6136f55760405162461bcd60e51b8152600401610eed90618668565b6023546027546040805162eee51960e11b815290516001600160a01b039384169363e0ca5094938c939116916301ddca3291600480820192602092909190829003018186803b15801561374757600080fd5b505afa15801561375b573d6000803e3d6000fd5b505050506040513d601f19601f8201168201806040525081019061377f9190617e4c565b6137899190619277565b836040518363ffffffff1660e01b81526004016137a7929190619114565b602060405180830381600087803b1580156137c157600080fd5b505af11580156137d5573d6000803e3d6000fd5b505050506040513d601f19601f820116820180604052508101906137f99190617c5f565b6138155760405162461bcd60e51b8152600401610eed906183ea565b600183600701600082825461382a919061924b565b90915550613851915050565b600182600801600082825461384b919061924b565b90915550505b600582015460ff16156138cf57613867846171bf565b15801561387e57506005820154610100900460ff16155b156138cf57601180546001810182556000919091527f31ecc21a745e3968a04e9570e4425bc18fa8019c68028196b546d1669c200c680180546001600160a01b0319166001600160a01b0386161790555b506139de565b6005810154610100900460ff16806138eb575081155b156139de576001600160a01b0383166000908152600c6020526040812060030180546001929061391c90849061924b565b909155505060275460408051634fda48fb60e11b815290516001600160a01b0390921691639fb491f691600480820192602092909190829003018186803b15801561396657600080fd5b505afa15801561397a573d6000803e3d6000fd5b505050506040513d601f19601f8201168201806040525081019061399e9190617e4c565b6001600160a01b0384166000908152600c602052604090206003015414156139de5760058101805460ff191690556139d583616c40565b6139de83616d98565b50505080806139ec90619318565b9150506133ef565b506000878152600b6020908152604090912060058101805461ff0019166101001790558351613a2b92600a909201918501906178a3565b506000878152600b60205260409020600401819055613a4987611fc4565b15613b8f576000878152600b60208190526040822001805460ff19166001908117909155601c805491929091613a8090849061924b565b90915550506026546040516348257dc960e01b81526001600160a01b03909116906348257dc990613ab5908a90600401618089565b602060405180830381600087803b158015613acf57600080fd5b505af1925050508015613aff575060408051601f3d908101601f19168201909252613afc91810190617c5f565b60015b613b70573d808015613b2d576040519150601f19603f3d011682016040523d82523d6000602084013e613b32565b606091505b507f4b87bbd93ba65ede1e2efeca735d9f7a6720bf7d6db0a8355b17dba5b64e578381604051613b6291906181d3565b60405180910390a150613b8a565b6001601b6000828254613b83919061924b565b9091555050505b613bc4565b6000878152600b60208190526040822001805460ff19166002179055601d805460019290613bbe90849061924b565b90915550505b6001601b6000828254613bd7919061924b565b90915550506000878152600b6020526040812060020154601e805491929091613c0190849061924b565b90915550506000878152600b6020526040812060030154601f805491929091613c2b90849061924b565b90915550506000878152600a602052604090819020600181015491516001600160a01b03909216917fb83f08cf731092d35d6dd4801ac76e3fcc84b1b199915531c9874230d31adeaa91613c7e91618273565b60405180910390a250505050505050565b60006112ae82610c9a846119af565b6001600160a01b03166000908152600d602052604090205490565b613cc1616c3c565b6001600160a01b0316613cd261420d565b6001600160a01b031614613cf85760405162461bcd60e51b8152600401610eed9061898e565b613d0260006172d1565b565b6000613d0f82616b4f565b613d2b5760405162461bcd60e51b8152600401610eed90618be0565b506000908152600b602052604090206007015490565b60125490565b6060613d5282616b4f565b613d6e5760405162461bcd60e51b8152600401610eed90618be0565b6000828152600f6020908152604080832080548251818502810185019093528083529192909190830182828015613dce57602002820191906000526020600020905b81546001600160a01b03168152600190910190602001808311613db0575b50505050509050600081516001600160401b03811115613dfe57634e487b7160e01b600052604160045260246000fd5b604051908082528060200260200182016040528015613e3157816020015b6060815260200190600190039081613e1c5790505b50905060005b825181101561105957600760008681526020019081526020016000206000848381518110613e7557634e487b7160e01b600052603260045260246000fd5b60200260200101516001600160a01b03166001600160a01b031681526020019081526020016000208054613ea8906192dd565b80601f0160208091040260200160405190810160405280929190818152602001828054613ed4906192dd565b8015613f215780601f10613ef657610100808354040283529160200191613f21565b820191906000526020600020905b815481529060010190602001808311613f0457829003601f168201915b5050505050828281518110613f4657634e487b7160e01b600052603260045260246000fd5b60200260200101819052508080613f5c90619318565b915050613e37565b613f6c616c3c565b6001600160a01b0316613f7d61420d565b6001600160a01b031614613fa35760405162461bcd60e51b8152600401610eed9061898e565b601a55565b6024546001600160a01b031681565b601254601154600091613fc99161924b565b905090565b6000613fd982616b4f565b613ff55760405162461bcd60e51b8152600401610eed90618be0565b506001600160a01b03919091166000908152600160209081526040808320938352929052205460ff1690565b600b60205260009081526040902080546001820154600283015460038401546004850154600586015460068701546007880154600889015460098a0154600a8b0180549a9b999a98999798969760ff808816986101008904821698620100009004909116969594939290614094906192dd565b80601f01602080910402602001604051908101604052809291908181526020018280546140c0906192dd565b801561410d5780601f106140e25761010080835404028352916020019161410d565b820191906000526020600020905b8154815290600101906020018083116140f057829003601f168201915b505050600b909301549192505060ff168e565b60008061412d84876152f0565b8310159050600061413e85876152f0565b8411158061414a575085155b90508180156141565750805b979650505050505050565b6012818154811061160257600080fd5b6021546001600160a01b031681565b60185481565b6006602090815260009283526040808420909152908252902080546111e5906192dd565b600c602052600090815260409020805460018201546002830154600384015460048501546005860154600687015460078801546008909801546001600160a01b0390971697959660ff95861696949593948385169461010090940490931692908a565b6000546001600160a01b031690565b600f602052816000526040600020818154811061423857600080fd5b6000918252602090912001546001600160a01b03169150829050565b60016000828152600b60208190526040909120015460ff16600381111561428b57634e487b7160e01b600052602160045260246000fd5b146142a85760405162461bcd60e51b8152600401610eed90618354565b3360009081526008602052604090819020905163162a54af60e31b815273__$6ffa5bf1f4fa681f07e1987a80577d5f4e$__9163b152a578916142f0919085906004016180ae565b60206040518083038186803b15801561430857600080fd5b505af415801561431c573d6000803e3d6000fd5b505050506040513d601f19601f820116820180604052508101906143409190617c5f565b61435c5760405162461bcd60e51b8152600401610eed906187cb565b33600090815260086020526040908190209051634dab476560e01b815273__$6ffa5bf1f4fa681f07e1987a80577d5f4e$__91634dab4765916143a4919085906004016180ae565b60006040518083038186803b1580156143bc57600080fd5b505af41580156143d0573d6000803e3d6000fd5b50506040513392508391507f402507661c8c8cb90e0a796450b8bdd28b6c516f05279c0cd29e84c344e1699a90600090a350565b601c5481565b60005b81518110156144585761444682828151811061443957634e487b7160e01b600052603260045260246000fd5b6020026020010151614254565b8061445081619318565b91505061440d565b5050565b6000818152600b60205260408120600981015460089091015482916115a79161924b565b60008282604051602001614495929190618067565b60405160208183030381529060405280519060200120905092915050565b601c5490565b601d5481565b60006144ca82616b4f565b6144e65760405162461bcd60e51b8152600401610eed90618be0565b6000828152600b60205260409020600601546145019061591b565b1580156112ae5750506000908152600b6020526040902060020154151590565b614529616ec8565b614532856144bf565b61454e5760405162461bcd60e51b8152600401610eed90618513565b33600090815260016020908152604080832088845290915290205460ff16156145895760405162461bcd60e51b8152600401610eed90618c58565b6145938533615385565b6145af5760405162461bcd60e51b8152600401610eed90618577565b602754604080516323aea69160e01b815290516000926001600160a01b0316916323aea691916004808301926020929190829003018186803b1580156145f457600080fd5b505afa158015614608573d6000803e3d6000fd5b505050506040513d601f19601f8201168201806040525081019061462c9190617e4c565b60245460405163792f4f6960e11b81529192506000916001600160a01b039091169063f25e9ed2906146629033906004016180bc565b60206040518083038186803b15801561467a57600080fd5b505afa15801561468e573d6000803e3d6000fd5b505050506040513d601f19601f820116820180604052508101906146b29190617b3e565b336000908152600d602052604090205490915082111561475b576001600160a01b03811615614732576001600160a01b0381166000908152600d602052604090205482111561472d576001600160a01b0381166000908152600d602052604081205461471f9084906171b3565b905061472b8183617321565b505b61475b565b336000908152600d602052604081205461474d9084906171b3565b90506147598133617321565b505b336000908152600d602052604090205482111561478a5760405162461bcd60e51b8152600401610eed90618ce3565b6000336000908152600860205260408082209051631b23afef60e21b815273__$6ffa5bf1f4fa681f07e1987a80577d5f4e$__91636c8ebfbc916147d3919086906004016180ae565b60206040518083038186803b1580156147eb57600080fd5b505af41580156147ff573d6000803e3d6000fd5b505050506040513d601f19601f820116820180604052508101906148239190617e4c565b9050888114156148c85733600090815260086020526040908190209051631b23afef60e21b815273__$6ffa5bf1f4fa681f07e1987a80577d5f4e$__91636c8ebfbc9161487591908d906004016180ae565b60206040518083038186803b15801561488d57600080fd5b505af41580156148a1573d6000803e3d6000fd5b505050506040513d601f19601f820116820180604052508101906148c59190617e4c565b90505b6148d482823387614120565b6148f05760405162461bcd60e51b8152600401610eed90618892565b3360009081526008602052604090819020905163f3a1998360e01b815273__$6ffa5bf1f4fa681f07e1987a80577d5f4e$__9163f3a199839161493c919086908e9087906004016190a5565b60006040518083038186803b15801561495457600080fd5b505af4158015614968573d6000803e3d6000fd5b505050506000614978338b614480565b604051633416d70d60e21b815290915073__$d865f21674766f31b0d600e4a95b721b57$__9063d05b5c34906149b79060099085908a90600401619087565b60006040518083038186803b1580156149cf57600080fd5b505af41580156149e3573d6000803e3d6000fd5b5050604051633416d70d60e21b815273__$d865f21674766f31b0d600e4a95b721b57$__925063d05b5c349150614a239060099085908e9060040161903b565b60006040518083038186803b158015614a3b57600080fd5b505af4158015614a4f573d6000803e3d6000fd5b50505060008b8152600560209081526040808320338085529083528184208d90558e84526006835281842090845282529091208951614a93935090918a01906178a3565b5060008a815260076020908152604080832033845282529091208751614abb928901906178a3565b50336000908152600c602090815260408083208d8452600b90925290912060020154614ae89060016171b3565b60008c8152600b602090815260408083206002019390935542600485015533825260018082528383208f8452909152918120805460ff191683179055601b8054909190614b3690849061924b565b909155505060405133908c907f1b5c5140592c554fa4c0cdb5b3d3cd50f87aa84e477afd0b6c93d7702ef9c73c90614b6f908a90618089565b60405180910390a35050505050505050505050565b60165490565b600081604051602001614b9d9190618092565b6040516020818303038152906040528051906020012083604051602001614bc49190618092565b604051602081830303815290604052805190602001201415614be8575060016112ae565b5060006112ae565b6000614bfb82616b4f565b614c175760405162461bcd60e51b8152600401610eed90618be0565b506001600160a01b03919091166000908152600260209081526040808320938352929052205460ff1690565b6000804241604051602001614c58919061804a565b6040516020818303038152906040528051906020012060001c614c7b9190619263565b44614c8461162e565b604051602001614c949190618089565b60408051601f198184030181529190528051602090910120614cb6904261924b565b614cc0919061924b565b614cca919061924b565b604051602001614cda9190618089565b60408051601f19818403018152919052805160209091012091505090565b6015546001600160a01b031681565b6013818154811061160257600080fd5b6001600160a01b038082166000908152600c6020908152604080832081516101408101835281549095168552600181015492850192909252600282015460ff90811615801592860183905260038401546060870152600484015460808701526005840154808316151560a088015261010090819004909216151560c0870152600684015460e087015260078401549186019190915260089092015461012085015291928392909190614dd35750614dd1816020015161126c565b155b15614ddd57600191505b5092915050565b606060008211614e065760405162461bcd60e51b8152600401610eed90618969565b600041604051602001614e19919061804a565b6040516020818303038152906040528051906020012060001c614e3a61162e565b604051602001614e4a9190618089565b60408051601f198184030181529190528051602090910120614e6c904261924b565b614e76919061924b565b604051602001614e869190618089565b6040516020818303038152906040528051906020012060001c90506000846001600160401b03811115614ec957634e487b7160e01b600052604160045260246000fd5b604051908082528060200260200182016040528015614ef2578160200160208202803683370190505b5090506000805b86821015614ff357600086614f1263017efeeb87619296565b83604051602001614f249291906180ae565b6040516020818303038152906040528051906020012060001c614f479190619333565b90506000805b84811015614f9f5782868281518110614f7657634e487b7160e01b600052603260045260246000fd5b60200260200101511415614f8d5760019150614f9f565b80614f9781619318565b915050614f4d565b5080614fdf5781858581518110614fc657634e487b7160e01b600052603260045260246000fd5b6020908102919091010152614fdc84600161924b565b93505b614fea83600161924b565b92505050614ef9565b509095945050505050565b60006150098361126c565b6150255760405162461bcd60e51b8152600401610eed90618dd8565b6001600160a01b038416600090815260026020908152604080832086845290915290205460ff166150685760405162461bcd60e51b8152600401610eed90618828565b600061507384611fc4565b61507e576000615081565b60015b60ff1690506000818460405160200161509b9291906180ae565b60405160208183030381529060405280519060200120905060006150bf87876158d6565b90508082146150e05760405162461bcd60e51b8152600401610eed90618ab4565b61415687876152f0565b60606000821180156150fc5750818311155b8015615109575060018310155b6151255760405162461bcd60e51b8152600401610eed90618480565b6000826001600160401b0381111561514d57634e487b7160e01b600052604160045260246000fd5b604051908082528060200260200182016040528015615176578160200160208202803683370190505b5090506000846001600160401b038111156151a157634e487b7160e01b600052604160045260246000fd5b6040519080825280602002602001820160405280156151ca578160200160208202803683370190505b50905060006151e06151db84617429565b61747f565b905060005b86811015614ff35781818151811061520d57634e487b7160e01b600052603260045260246000fd5b602002602001015183828151811061523557634e487b7160e01b600052603260045260246000fd5b60209081029190910101528061524a81619318565b9150506151e5565b61525a616c3c565b6001600160a01b031661526b61420d565b6001600160a01b0316146152915760405162461bcd60e51b8152600401610eed9061898e565b602480546001600160a01b0319166001600160a01b0392909216919091179055565b60006152be82616b4f565b6152da5760405162461bcd60e51b8152600401610eed90618be0565b506000908152600b602052604090206006015490565b600073__$d865f21674766f31b0d600e4a95b721b57$__6362e02a2a60096153188686614480565b6040518363ffffffff1660e01b8152600401615335929190619069565b60206040518083038186803b15801561534d57600080fd5b505af4158015615361573d6000803e3d6000fd5b505050506040513d601f19601f820116820180604052508101906115a79190617e4c565b6000828152600f602090815260408083208054825181850281018501909352808352849384939291908301828280156153e757602002820191906000526020600020905b81546001600160a01b031681526001909101906020018083116153c9575b5050505050905060005b815181101561545657846001600160a01b031682828151811061542457634e487b7160e01b600052603260045260246000fd5b60200260200101516001600160a01b031614156154445760019250615456565b8061544e81619318565b9150506153f1565b5090949350505050565b600260209081526000928352604080842090915290825290205460ff1681565b60175481565b601a5481565b60608183106154ad5760405162461bcd60e51b8152600401610eed90618ef4565b6154b682616b4f565b6154d25760405162461bcd60e51b8152600401610eed90618705565b60006154de8484619296565b6154e990600161924b565b90506000816001600160401b0381111561551357634e487b7160e01b600052604160045260246000fd5b60405190808252806020026020018201604052801561554657816020015b60608152602001906001900390816155315790505b509050845b848110156156685760016000828152600b60208190526040909120015460ff16600381111561558a57634e487b7160e01b600052602160045260246000fd5b1415615656576000818152600b60205260409020600a0180546155ac906192dd565b80601f01602080910402602001604051908101604052809291908181526020018280546155d8906192dd565b80156156255780601f106155fa57610100808354040283529160200191615625565b820191906000526020600020905b81548152906001019060200180831161560857829003601f168201915b505050505082828151811061564a57634e487b7160e01b600052603260045260246000fd5b60200260200101819052505b8061566081619318565b91505061554b565b50949350505050565b606061567c82616b4f565b6156985760405162461bcd60e51b8152600401610eed90618be0565b6000828152600f60209081526040808320805482518185028101850190935280835291929091908301828280156156f857602002820191906000526020600020905b81546001600160a01b031681526001909101906020018083116156da575b50505050509050600081516001600160401b0381111561572857634e487b7160e01b600052604160045260246000fd5b60405190808252806020026020018201604052801561575b57816020015b60608152602001906001900390816157465790505b50905060005b82518110156110595760046000868152602001908152602001600020600084838151811061579f57634e487b7160e01b600052603260045260246000fd5b60200260200101516001600160a01b03166001600160a01b0316815260200190815260200160002080546157d2906192dd565b80601f01602080910402602001604051908101604052809291908181526020018280546157fe906192dd565b801561584b5780601f106158205761010080835404028352916020019161584b565b820191906000526020600020905b81548152906001019060200180831161582e57829003601f168201915b505050505082828151811061587057634e487b7160e01b600052603260045260246000fd5b6020026020010181905250808061588690619318565b915050615761565b600e602052816000526040600020818154811061423857600080fd5b6025546001600160a01b031681565b600360209081526000928352604080842090915290825290205481565b600073__$d865f21674766f31b0d600e4a95b721b57$__6362e02a2a60096158fe8686614480565b6040518363ffffffff1660e01b815260040161533592919061901d565b421190565b6159286179b2565b61593182616b4f565b61594d5760405162461bcd60e51b8152600401610eed90618be0565b6000828152600b602090815260409182902082516101c081018452815481526001820154928101929092526002810154928201929092526003820154606082015260048201546080820152600582015460ff808216151560a08401526101008083048216151560c08501526201000090920416151560e0830152600683015490820152600782015461012082015260088201546101408201526009820154610160820152600a8201805491929161018084019190615a0a906192dd565b80601f0160208091040260200160405190810160405280929190818152602001828054615a36906192dd565b8015615a835780601f10615a5857610100808354040283529160200191615a83565b820191906000526020600020905b815481529060010190602001808311615a6657829003601f168201915b5050509183525050600b82015460209091019060ff16600381111561241d57634e487b7160e01b600052602160045260246000fd5b615ac0616ec8565b60135415615ad057615ad0617626565b615ad86176da565b60005b602760009054906101000a90046001600160a01b03166001600160a01b0316637d630cb06040518163ffffffff1660e01b815260040160206040518083038186803b158015615b2957600080fd5b505afa158015615b3d573d6000803e3d6000fd5b505050506040513d601f19601f82011682018060405250810190615b619190617e4c565b8110156113ff576019546000908152600b602052604081206005015462010000900460ff1615156001148015615bba5750615b9d60195461126c565b80615bba57506019546000908152600b6020526040902060030154155b15615bdf57615bca601954612e01565b601954615bd8906001617255565b6019555060015b601a546000908152600b602052604090206005015462010000900460ff161515600114801590615c965750602760009054906101000a90046001600160a01b03166001600160a01b031663166ff4c76040518163ffffffff1660e01b815260040160206040518083038186803b158015615c5857600080fd5b505afa158015615c6c573d6000803e3d6000fd5b505050506040513d601f19601f82011682018060405250810190615c909190617e4c565b60115410155b8015615cab5750615ca5614c43565b60145414155b8015615ccb5750601a546000908152600b602052604090206005015460ff165b15615cdc57615cd8612732565b5060015b80615ce757506113ff565b5080615cf281619318565b915050615adb565b615d02616c3c565b6001600160a01b0316615d1361420d565b6001600160a01b031614615d395760405162461bcd60e51b8152600401610eed9061898e565b602580546001600160a01b0319166001600160a01b0392909216919091179055565b6026546001600160a01b031681565b615d72616c3c565b6001600160a01b0316615d8361420d565b6001600160a01b031614615da95760405162461bcd60e51b8152600401610eed9061898e565b602280546001600160a01b0319166001600160a01b0392909216919091179055565b615dd3616c3c565b6001600160a01b0316615de461420d565b6001600160a01b031614615e0a5760405162461bcd60e51b8152600401610eed9061898e565b602180546001600160a01b0319166001600160a01b0392909216919091179055565b336000908152600d602052604090205490565b606060008211615e615760405162461bcd60e51b8152600401610eed90618873565b6000826001600160401b03811115615e8957634e487b7160e01b600052604160045260246000fd5b604051908082528060200260200182016040528015615eb2578160200160208202803683370190505b5090506000615ec36151db83617429565b949350505050565b6060615ed682616b4f565b615ef25760405162461bcd60e51b8152600401610eed90618be0565b6000828152600b60205260409020600a018054615f0e906192dd565b80601f0160208091040260200160405190810160405280929190818152602001828054615f3a906192dd565b8015615f875780601f10615f5c57610100808354040283529160200191615f87565b820191906000526020600020905b815481529060010190602001808311615f6a57829003601f168201915b50505050509050919050565b6001600160a01b03166000908152600c602052604090206005015460ff1690565b6000615fd8615fc233613c8f565b336000908152600d6020526040902054906171b3565b905081811015615ffa5760405162461bcd60e51b8152600401610eed90618b99565b602154604051630895993360e11b81526001600160a01b039091169063112b32669061602c9085903390600401619114565b602060405180830381600087803b15801561604657600080fd5b505af115801561605a573d6000803e3d6000fd5b505050506040513d601f19601f8201168201806040525081019061607e9190617c5f565b61609a5760405162461bcd60e51b8152600401610eed90618e22565b336000908152600d6020526040812080548492906160b9908490619296565b909155505060405133907ffaeb7dbb9992397d26ea1944efd40c80b40f702faf69b46c67ad10aba68ccb79906160f0908590618089565b60405180910390a25050565b606061610782616b4f565b6161235760405162461bcd60e51b8152600401610eed906189c3565b6000826019546161339190619296565b61613e90600161924b565b90506000816001600160401b0381111561616857634e487b7160e01b600052604160045260246000fd5b60405190808252806020026020018201604052801561619b57816020015b60608152602001906001900390816161865790505b509050835b6019548110156110595760016000828152600b60208190526040909120015460ff1660038111156161e157634e487b7160e01b600052602160045260246000fd5b14156162ad576000818152600b60205260409020600a018054616203906192dd565b80601f016020809104026020016040519081016040528092919081815260200182805461622f906192dd565b801561627c5780601f106162515761010080835404028352916020019161627c565b820191906000526020600020905b81548152906001019060200180831161625f57829003601f168201915b50505050508282815181106162a157634e487b7160e01b600052603260045260246000fd5b60200260200101819052505b806162b781619318565b9150506161a0565b601f5481565b60606162d082616b4f565b6162ec5760405162461bcd60e51b8152600401610eed90618be0565b6000828152600b6020908152604080832081516101c081018352815481526001820154938101939093526002810154918301919091526003810154606083015260048101546080830152600581015460ff808216151560a08501526101008083048216151560c08601526201000090920416151560e0840152600682015490830152600781015461012083015260088101546101408301526009810154610160830152600a81018054610180840191906163a5906192dd565b80601f01602080910402602001604051908101604052809291908181526020018280546163d1906192dd565b801561641e5780601f106163f35761010080835404028352916020019161641e565b820191906000526020600020905b81548152906001019060200180831161640157829003601f168201915b5050509183525050600b82015460209091019060ff16600381111561645357634e487b7160e01b600052602160045260246000fd5b600381111561647257634e487b7160e01b600052602160045260246000fd5b90525060208101519091506000816001600160401b038111156164a557634e487b7160e01b600052604160045260246000fd5b6040519080825280602002602001820160405280156164d857816020015b60608152602001906001900390816164c35790505b50905060005b828110156156685783516000906164f690839061924b565b6000818152600a6020526040812080549293509091616514906192dd565b80601f0160208091040260200160405190810160405280929190818152602001828054616540906192dd565b801561658d5780601f106165625761010080835404028352916020019161658d565b820191906000526020600020905b81548152906001019060200180831161657057829003601f168201915b50505050509050808484815181106165b557634e487b7160e01b600052603260045260246000fd5b6020026020010181905250505080806165cd90619318565b9150506164de565b60195481565b601b5481565b6165e9616c3c565b6001600160a01b03166165fa61420d565b6001600160a01b0316146166205760405162461bcd60e51b8152600401610eed9061898e565b6001600160a01b0381166166465760405162461bcd60e51b8152600401610eed9061843a565b6113ff816172d1565b60008282604051602001614495929190618251565b601b5490565b616672616ec8565b336000908152600c602090815260409182902060275483516398a54e2b60e01b8152935191936001600160a01b03909116926398a54e2b92600480840193829003018186803b1580156166c457600080fd5b505afa1580156166d8573d6000803e3d6000fd5b505050506040513d601f19601f820116820180604052508101906166fc9190617e4c565b60125460115461670c919061924b565b106167295760405162461bcd60e51b8152600401610eed90618ca1565b600581015460ff161561674e5760405162461bcd60e51b8152600401610eed9061831d565b602760009054906101000a90046001600160a01b03166001600160a01b0316639fb491f66040518163ffffffff1660e01b815260040160206040518083038186803b15801561679c57600080fd5b505afa1580156167b0573d6000803e3d6000fd5b505050506040513d601f19601f820116820180604052508101906167d49190617e4c565b8160030154101580156168795750602760009054906101000a90046001600160a01b03166001600160a01b0316630f1f0ffe6040518163ffffffff1660e01b815260040160206040518083038186803b15801561683057600080fd5b505afa158015616844573d6000803e3d6000fd5b505050506040513d601f19601f820116820180604052508101906168689190617e4c565b60068201546168779042619296565b105b156168965760405162461bcd60e51b8152600401610eed90618d40565b602754604080516323aea69160e01b815290516000926001600160a01b0316916323aea691916004808301926020929190829003018186803b1580156168db57600080fd5b505afa1580156168ef573d6000803e3d6000fd5b505050506040513d601f19601f820116820180604052508101906169139190617e4c565b60245460405163792f4f6960e11b81529192506000916001600160a01b039091169063f25e9ed2906169499033906004016180bc565b60206040518083038186803b15801561696157600080fd5b505afa158015616975573d6000803e3d6000fd5b505050506040513d601f19601f820116820180604052508101906169999190617b3e565b336000908152600d6020526040902054909150821115616a42576001600160a01b03811615616a19576001600160a01b0381166000908152600d6020526040902054821115616a14576001600160a01b0381166000908152600d6020526040812054616a069084906171b3565b9050616a128183617321565b505b616a42565b336000908152600d6020526040812054616a349084906171b3565b9050616a408133617321565b505b336000908152600d6020526040902054821115616a715760405162461bcd60e51b8152600401610eed90618762565b616a7a336171bf565b616ac157601180546001810182556000919091527f31ecc21a745e3968a04e9570e4425bc18fa8019c68028196b546d1669c200c680180546001600160a01b031916331790555b8254336001600160a01b031990911617835560058301805460ff1916600190811761ff001916909155426006850155600060038501819055601b8054909190616b0b90849061924b565b909155505060405133907f439d77b7534ec3108fc6143bd4fbabde0b9f2bb54f7b0730d1f70dd2135b765f90616b42904290618089565b60405180910390a2505050565b601854101590565b336000908152600c602052604090206005015460ff1690565b601d5490565b6020546001600160a01b031681565b6001600160a01b039081166000908152600c6020908152604091829020825161014081018452815490941684526001810154918401829052600281015460ff90811615159385019390935260038101546060850152600481015460808501526005810154808416151560a086015261010090819004909316151560c0850152600681015460e08501526007810154928401929092526008909101546101209092019190915290565b6027546001600160a01b031681565b3390565b60008060005b601154811015616cb457836001600160a01b031660118281548110616c7b57634e487b7160e01b600052603260045260246000fd5b6000918252602090912001546001600160a01b03161415616ca25760019150809250616cb4565b80616cac81619318565b915050616c46565b508015616d935760118054616ccb90600190619296565b81548110616ce957634e487b7160e01b600052603260045260246000fd5b600091825260209091200154601180546001600160a01b039092169184908110616d2357634e487b7160e01b600052603260045260246000fd5b9060005260206000200160006101000a8154816001600160a01b0302191690836001600160a01b031602179055506011805480616d7057634e487b7160e01b600052603160045260246000fd5b600082815260209020810160001990810180546001600160a01b03191690550190555b505050565b60008060005b601254811015616e0c57836001600160a01b031660128281548110616dd357634e487b7160e01b600052603260045260246000fd5b6000918252602090912001546001600160a01b03161415616dfa5760019150809250616e0c565b80616e0481619318565b915050616d9e565b508015616d935760128054616e2390600190619296565b81548110616e4157634e487b7160e01b600052603260045260246000fd5b600091825260209091200154601280546001600160a01b039092169184908110616e7b57634e487b7160e01b600052603260045260246000fd5b9060005260206000200160006101000a8154816001600160a01b0302191690836001600160a01b031602179055506012805480616d7057634e487b7160e01b600052603160045260246000fd5b60275460408051632abe0d5f60e11b815290516000926001600160a01b03169163557c1abe916004808301926020929190829003018186803b158015616f0d57600080fd5b505afa925050508015616f3d575060408051601f3d908101601f19168201909252616f3a91810190617b3e565b60015b616fae573d808015616f6b576040519150601f19603f3d011682016040523d82523d6000602084013e616f70565b606091505b507f4b87bbd93ba65ede1e2efeca735d9f7a6720bf7d6db0a8355b17dba5b64e578381604051616fa091906181d3565b60405180910390a150616fb0565b505b602760009054906101000a90046001600160a01b03166001600160a01b031663557c1abe6040518163ffffffff1660e01b815260040160206040518083038186803b158015616ffe57600080fd5b505afa158015617012573d6000803e3d6000fd5b505050506040513d601f19601f820116820180604052508101906170369190617b3e565b90506001600160a01b03811661705e5760405162461bcd60e51b8152600401610eed906185d4565b6000816001600160a01b03163360405160240161707b91906180bc565b60408051601f198184030181529181526020820180516001600160e01b0316631f5ac9c560e11b179052516170b09190618092565b6000604051808303816000865af19150503d80600081146170ed576040519150601f19603f3d011682016040523d82523d6000602084013e6170f2565b606091505b505090506000826001600160a01b03163360405160240161711391906180bc565b60408051601f198184030181529181526020820180516001600160e01b03166358563d2160e01b179052516171489190618092565b6000604051808303816000865af19150503d8060008114617185576040519150601f19603f3d011682016040523d82523d6000602084013e61718a565b606091505b5050905081806171975750805b616d935760405162461bcd60e51b8152600401610eed906183a5565b60006115a78284619296565b600080805b601154811015614ddd57836001600160a01b0316601182815481106171f957634e487b7160e01b600052603260045260246000fd5b6000918252602090912001546001600160a01b0316141561721d5760019150614ddd565b8061722781619318565b9150506171c4565b600081831061723e57816115a7565b5090919050565b60008183101561723e57816115a7565b60006115a7828461924b565b600080805b601254811015614ddd57836001600160a01b03166012828154811061729b57634e487b7160e01b600052603260045260246000fd5b6000918252602090912001546001600160a01b031614156172bf5760019150614ddd565b806172c981619318565b915050617266565b600080546001600160a01b038381166001600160a01b0319831681178455604051919092169283917f8be0079c531659141344cd1fd0a4f28419497f9722a3daafe3b4186f6b6457e09190a35050565b6021546040516304ada21f60e21b81526001600160a01b03909116906312b6887c906173539085908590600401619114565b602060405180830381600087803b15801561736d57600080fd5b505af1158015617381573d6000803e3d6000fd5b505050506040513d601f19601f820116820180604052508101906173a59190617c5f565b6173c15760405162461bcd60e51b8152600401610eed9061860b565b6001600160a01b0381166000908152600d6020526040812080548492906173e990849061924b565b92505081905550806001600160a01b03167f5aa5d56140767016c877a5333ac3e1ad31a09051098a8fdf7297c4b64530a942836040516160f09190618089565b805160609060005b81811015617477578084828151811061745a57634e487b7160e01b600052603260045260246000fd5b60209081029190910101528061746f81619318565b915050617431565b509192915050565b606060008251116174a25760405162461bcd60e51b8152600401610eed9061854a565b81518060005b8181101561761d576000836174bb614c43565b8784815181106174db57634e487b7160e01b600052603260045260246000fd5b60200260200101516040516020016174f49291906180ae565b6040516020818303038152906040528051906020012060001c6175179190619333565b61752290600161924b565b9050600086617532600184619296565b8151811061755057634e487b7160e01b600052603260045260246000fd5b60200260200101519050866001866175689190619296565b8151811061758657634e487b7160e01b600052603260045260246000fd5b60200260200101518760018461759c9190619296565b815181106175ba57634e487b7160e01b600052603260045260246000fd5b602090810291909101015280876175d2600188619296565b815181106175f057634e487b7160e01b600052603260045260246000fd5b6020908102919091010152617606600186619296565b94505050808061761590619318565b9150506174a8565b50929392505050565b60005b6013548110156176cd5760006013828154811061765657634e487b7160e01b600052603260045260246000fd5b60009182526020808320909101546001600160a01b0316808352600c909152604090912060058101549192509060ff16801561769457506001810154155b156176b85760058101805461ffff191690556176af82616c40565b6176b882616d98565b505080806176c590619318565b915050617629565b50613d0260136000617a40565b60006017546019546176ec9190619296565b9050602760009054906101000a90046001600160a01b03166001600160a01b031663e3115d3c6040518163ffffffff1660e01b815260040160206040518083038186803b15801561773c57600080fd5b505afa158015617750573d6000803e3d6000fd5b505050506040513d601f19601f820116820180604052508101906177749190617e4c565b8111156113ff5760005b602754604080516307d630cb60e41b81529051617802926001600160a01b031691637d630cb0916004808301926020929190829003018186803b1580156177c457600080fd5b505afa1580156177d8573d6000803e3d6000fd5b505050506040513d601f19601f820116820180604052508101906177fc9190617e4c565b8361722f565b811015614458576017546000908152600b60205260408120805460019091015490919061782f908361924b565b9050815b818110156178565761784481612287565b8061784e81619318565b915050617833565b5061786260175461267f565b6017546040517f72c2fcc891fe835b86fc8bb9abdc52adf52499c52289b3c49e1461eabea2717590600090a25050808061789b90619318565b91505061777e565b8280546178af906192dd565b90600052602060002090601f0160209004810192826178d15760008555617917565b82601f106178ea57805160ff1916838001178555617917565b82800160010185558215617917579182015b828111156179175782518255916020019190600101906178fc565b50617923929150617a5a565b5090565b508054617933906192dd565b6000825580601f1061794557506113ff565b601f0160209004906000526020600020908101906113ff9190617a5a565b60405180608001604052806060815260200160006001600160a01b0316815260200160008152602001600060038111156179ad57634e487b7160e01b600052602160045260246000fd5b905290565b604051806101c0016040528060008152602001600081526020016000815260200160008152602001600081526020016000151581526020016000151581526020016000151581526020016000815260200160008152602001600081526020016000815260200160608152602001600060038111156179ad57634e487b7160e01b600052602160045260246000fd5b50805460008255906000526020600020908101906113ff91905b5b808211156179235760008155600101617a5b565b8051801515811461105e57600080fd5b80516004811061105e57600080fd5b600082601f830112617a9e578081fd5b8135617ab1617aac82619218565b6191ef565b818152846020838601011115617ac5578283fd5b816020850160208301379081016020019190915292915050565b600082601f830112617aef578081fd5b8151617afd617aac82619218565b818152846020838601011115617b11578283fd5b615ec38260208301602087016192ad565b600060208284031215617b33578081fd5b81356115a781619389565b600060208284031215617b4f578081fd5b81516115a781619389565b60008060408385031215617b6c578081fd5b8235617b7781619389565b946020939093013593505050565b600080600060608486031215617b99578081fd5b8335617ba481619389565b95602085013595506040909401359392505050565b60006020808385031215617bcb578182fd5b82356001600160401b0380821115617be1578384fd5b818501915085601f830112617bf4578384fd5b813581811115617c0657617c06619373565b8381029150617c168483016191ef565b8181528481019084860184860187018a1015617c30578788fd5b8795505b83861015617c52578035835260019590950194918601918601617c34565b5098975050505050505050565b600060208284031215617c70578081fd5b6115a782617a6f565b60008060408385031215617c8b578182fd5b82356001600160401b0380821115617ca1578384fd5b617cad86838701617a8e565b93506020850135915080821115617cc2578283fd5b50617ccf85828601617a8e565b9150509250929050565b60008060408385031215617ceb578182fd5b82356001600160401b03811115617d00578283fd5b617d0c85828601617a8e565b95602094909401359450505050565b600060208284031215617d2c578081fd5b81516001600160401b0380821115617d42578283fd5b81840191506101c0808387031215617d58578384fd5b617d61816191ef565b905082518152602083015160208201526040830151604082015260608301516060820152617d9160808401617a6f565b6080820152617da260a08401617a6f565b60a0820152617db360c08401617a6f565b60c082015260e083810151908201526101008084015190820152610120808401519082015261014080840151908201526101608084015183811115617df6578586fd5b617e0288828701617adf565b828401525050610180915081830151828201526101a09150617e25828401617a7f565b91810191909152949350505050565b600060208284031215617e45578081fd5b5035919050565b600060208284031215611644578081fd5b60008060408385031215617e6f578182fd5b823591506020830135617e8181619389565b809150509250929050565b600080600080600060a08688031215617ea3578283fd5b85359450602086013593506040860135925060608601356001600160401b0380821115617ece578283fd5b617eda89838a01617a8e565b93506080880135915080821115617eef578283fd5b50617efc88828901617a8e565b9150509295509295909350565b60008060408385031215617f1b578182fd5b50508035926020909101359150565b60008060008060808587031215617f3f578182fd5b84359350602085013592506040850135617f5881619389565b9396929550929360600135925050565b60008060008060808587031215617f7d578182fd5b843593506020850135925060408501356001600160401b03811115617fa0578283fd5b617fac87828801617a8e565b949793965093946060013593505050565b15159052565b60008151808452617fdb8160208601602086016192ad565b601f01601f19169290920160200192915050565b6004811061800d57634e487b7160e01b600052602160045260246000fd5b9052565b600a8152690c6dedadad2e890c2e6d60b31b602082015260400190565b60098152686e756d546f6b656e7360b81b602082015260400190565b60609190911b6bffffffffffffffffffffffff1916815260140190565b60609290921b6bffffffffffffffffffffffff19168252601482015260340190565b90815260200190565b600082516180a48184602087016192ad565b9190910192915050565b918252602082015260400190565b6001600160a01b0391909116815260200190565b6001600160a01b039a909a168a5260208a0198909852951515604089015260608801949094526080870192909252151560a0860152151560c085015260e08401526101008301526101208201526101400190565b6000602080830181845280855180835260408601915060408482028701019250838701855b8281101561817757603f19888603018452618165858351617fc3565b94509285019290850190600101618149565b5092979650505050505050565b6020808252825182820181905260009190848201906040850190845b818110156181bc578351835292840192918401916001016181a0565b50909695505050505050565b901515815260200190565b6000602082526115a76020830184617fc3565b6000604082526181f96040830185617fc3565b905060018060a01b03831660208301529392505050565b6000608082526182236080830187617fc3565b6001600160a01b03861660208401526040830185905290506182486060830184617fef565b95945050505050565b6000604082526182646040830185617fc3565b90508260208301529392505050565b600060208083528184548360028204905060018083168061829557607f831692505b8583108114156182b357634e487b7160e01b87526022600452602487fd5b6182bf83878a01618089565b8180156182d357600181146182e45761830e565b60ff1986168252878201965061830e565b6182ed8b61923f565b895b86811015618308578154848201529085019089016182ef565b83019750505b50949998505050505050505050565b6020808252601c908201527f576f726b657220697320616c7265616479207265676973746572656400000000604082015260600190565b60208082526031908201527f676976656e204461746142617463682073686f756c6420626520415050524f5660408201527011510b08185b99081a5d081a5cc81b9bdd607a1b606082015260800190565b60208082526025908201527f72656365697665722072656a6563746564205f7265747269657665534675656c6040820152640818d85b1b60da1b606082015260800190565b60208082526030908201527f636f756c64206e6f742072657761726420746f6b656e20696e2056616c69646160408201526f3a32a230ba30a130ba31b4161018973160811b606082015260800190565b60208082526026908201527f4f776e61626c653a206e6577206f776e657220697320746865207a65726f206160408201526564647265737360d01b606082015260800190565b60208082526029908201527f6b206f72204e20617265206e6f74204f4b20647572696e672072616e646f6d2060408201526839b2b632b1ba34b7b760b91b606082015260800190565b6020808252602a908201527f4661696c20647572696e6720616c6c6f636174696f6e3a206e6f7420656e6f75604082015269676820776f726b65727360b01b606082015260800190565b6020808252601e908201527f636f6d6d697420706572696f64206e6565647320746f206265206f70656e0000604082015260600190565b60208082526013908201527205f6d7941727261792e6c656e677468203e203606c1b604082015260600190565b60208082526038908201527f55736572206e6565647320746f20626520616c6c6f636174656420746f20746860408201527f697320626174636820746f20636f6d6d6974206f6e2069740000000000000000606082015260800190565b6020808252601d908201527f734675656c3a206e756c6c2041646472657373204e6f742056616c6964000000604082015260600190565b6020808252603f908201527f436f756c64206e6f74207265717565737420656e6f75676820616c6c6f63617460408201527f6564207374616b652c2072657175657374416c6c6f63617465645374616b6500606082015260800190565b6020808252602e908201527f636f756c64206e6f74207265776172642052455020696e2056616c696461746560408201526d4461746142617463682c20312e6160901b606082015260800190565b6020808252602f908201527f5573657220686173206e6f7420636f6d6d69746564206265666f72652c20746860408201526e1d5cc818d85b89dd081c995d99585b608a1b606082015260800190565b6020808252603b908201527f5f44617461426174636849645f656e64206d7573742065786973743a2074686560408201527f20696e7075742072616e6765206973206e6f7420636f72726563740000000000606082015260800190565b60208082526043908201527f576f726b657220686173206e6f7420656e6f75676820285f6e756d546f6b656e60408201527f732920696e2068697320466f726d61745374616b6564546f6b656e42616c616e606082015262031b2960ed1b608082015260a00190565b60208082526039908201527f646c6c4d61703a20646f6573206e6f7420636f696e7461696e205f446174614260408201527f61746368496420666f7220746865206d73672073656e64657200000000000000606082015260800190565b6020808252602b908201527f75736572206d75737420686176652072657665616c656420696e20746869732060408201526a0ced2eccadc4084c2e8c6d60ab1b606082015260800190565b60208082526005908201526404e203e20360dc1b604082015260600190565b6020808252601490820152733737ba1030903b30b634b2103837b9b4ba34b7b760611b604082015260600190565b6020808252603b908201527f43616e277420616c6c6f6361746520776f726b2c207468652063757272656e7460408201527f20626174636820697320616c726561647920616c6c6f63617465640000000000606082015260800190565b6020808252602c908201527f576f726b6572206973206e6f74207265676973746572656420736f2063616e2760408201526b3a103ab73932b3b4b9ba32b960a11b606082015260800190565b6020808252600b908201526a04e5f72616e6765203e20360ac1b604082015260600190565b6020808252818101527f4f776e61626c653a2063616c6c6572206973206e6f7420746865206f776e6572604082015260600190565b6020808252601d908201527f5f44617461426174636849645f7374617274206d757374206578697374000000604082015260600190565b6020808252603a908201527f5f446174614261746368496420686173206e6f7420656e6465642c206f72206e60408201527f6f7420657665727920766f74657273206861766520766f746564000000000000606082015260800190565b6020808252603e908201527f436f756c64206e6f74206d6174636820656e637279707465642068617368202660408201527f20636c6561722068617368207769746820676976656e20696e707574732e0000606082015260800190565b60208082526029908201527f6765744e756d50617373696e67546f6b656e733a20686173686573206d75737460408201526808189948195c5d585b60ba1b606082015260800190565b60208082526036908201527f43616e277420616c6c6f6361746520776f726b2c207468652063757272656e74604082015275206261746368206973206e6f7420636f6d706c65746560501b606082015260800190565b60208082526026908201527f52657665616c20706572696f64206e6f74206f70656e20666f7220746869732060408201526511185d18525160d21b606082015260800190565b60208082526027908201527f617661696c61626c65546f6b656e732073686f756c64206265203e3d205f6e756040820152666d546f6b656e7360c81b606082015260800190565b60208082526017908201527f5f4461746142617463684964206d757374206578697374000000000000000000604082015260600190565b60208082526021908201527f5f446174614261746368496420697320616c72656164792076616c69646174656040820152601960fa1b606082015260800190565b60208082526029908201527f557365722068617320616c726561647920636f6d6d6974656420746f207468696040820152681cc818985d18da125960ba1b606082015260800190565b60208082526022908201527f4d6178696d756d207265676973746572656420776f726b65727320616c726561604082015261647960f01b606082015260800190565b60208082526037908201527f75736572206d757374206861766520656e6f75676820766f74696e672072696760408201527f68747320616b6120616c6c6f6361746564207374616b65000000000000000000606082015260800190565b6020808252606c908201527f5573657220686173206e6f7420766f746564206d616e792074696d657320696e60408201527f206120726f7720616e64206e6565647320746f2077616974204e4f564f54455f60608201527f524547495354524154494f4e5f574149545f4455524154494f4e20746f20726560808201526b33b4b9ba32b91030b3b0b4b760a11b60a082015260c00190565b6020808252602a908201527f5f446174614261746368496420636865636b696e6720766f7465206d757374206040820152691a185d9948195b99195960b21b606082015260800190565b6020808252603b908201527f436f756c64206e6f74207769746864726177566f74696e67526967687473207460408201527f68726f7567682050726f78795374616b654465616c6c6f636174650000000000606082015260800190565b6020808252600f908201526e11185d18481b5d5cdd08195e1a5cdd608a1b604082015260600190565b6020808252602c908201527f557365722068617320616c72656164792072657665616c65642c20746875732060408201526b18d85b89dd081c995d99585b60a21b606082015260800190565b60208082526032908201527f5f44617461426174636849645f7374617274206d757374206265203c207468616040820152711b8817d1185d1850985d18da125917d95b9960721b606082015260800190565b60006020825282516020830152602083015160408301526040830151606083015260608301516080830152608083015160a083015260a0830151618f8d60c0840182617fbd565b5060c0830151618fa060e0840182617fbd565b5060e0830151610100618fb581850183617fbd565b840151610120848101919091528401516101408085019190915284015161016080850191909152840151610180808501919091528401516101c06101a08086018290529192509061900a6101e0860184617fc3565b9086015190925061545685830182617fef565b600083825282602083015260606040830152615ec360608301618011565b60008482528360208301526080604083015261905960808301618011565b9050826060830152949350505050565b600083825282602083015260606040830152615ec36060830161802e565b6000848252836020830152608060408301526190596080830161802e565b93845260208401929092526040830152606082015260800190565b6000602082528251608060208401526190dc60a0840182617fc3565b905060018060a01b03602085015116604084015260408401516060840152606084015161910c6080850182617fef565b509392505050565b9182526001600160a01b0316602082015260400190565b9182526001600160a01b031660208201526000604082015260600190565b9283526020830191909152604082015260600190565b60008f82528e60208301528d60408301528c60608301528b60808301528a151560a083015289151560c083015261919960e083018a617fbd565b876101008301528661012083015285610140830152846101608301526101c06101808301526191cc6101c0830185617fc3565b90506191dc6101a0830184617fef565b9f9e505050505050505050505050505050565b6040518181016001600160401b038111828210171561921057619210619373565b604052919050565b60006001600160401b0382111561923157619231619373565b50601f01601f191660200190565b60009081526020902090565b6000821982111561925e5761925e619347565b500190565b6000826192725761927261935d565b500490565b600081600019048311821515161561929157619291619347565b500290565b6000828210156192a8576192a8619347565b500390565b60005b838110156192c85781810151838201526020016192b0565b838111156192d7576000848401525b50505050565b6002810460018216806192f157607f821691505b6020821081141561931257634e487b7160e01b600052602260045260246000fd5b50919050565b600060001982141561932c5761932c619347565b5060010190565b6000826193425761934261935d565b500690565b634e487b7160e01b600052601160045260246000fd5b634e487b7160e01b600052601260045260246000fd5b634e487b7160e01b600052604160045260246000fd5b6001600160a01b03811681146113ff57600080fdfea2646970667358221220d355095cfbd8d79ffbdeab12d8997b569c630479346df42e0f554f69c2f4c10664736f6c63430008000033",
  "linkReferences": {
    "contracts/worksystems/DataFormatting.sol": {
      "AttributeStore2": [
        {
          "length": 20,
          "start": 19159
        },
        {
          "length": 20,
          "start": 19265
        },
        {
          "length": 20,
          "start": 21569
        },
        {
          "length": 20,
          "start": 23079
        }
      ],
      "DLL2": [
        {
          "length": 20,
          "start": 5572
        },
        {
          "length": 20,
          "start": 5744
        },
        {
          "length": 20,
          "start": 6388
        },
        {
          "length": 20,
          "start": 6947
        },
        {
          "length": 20,
          "start": 17428
        },
        {
          "length": 20,
          "start": 17608
        },
        {
          "length": 20,
          "start": 18679
        },
        {
          "length": 20,
          "start": 18841
        },
        {
          "length": 20,
          "start": 19036
        }
      ]
    }
  },
  "deployedLinkReferences": {
    "contracts/worksystems/DataFormatting.sol": {
      "AttributeStore2": [
        {
          "length": 20,
          "start": 18826
        },
        {
          "length": 20,
          "start": 18932
        },
        {
          "length": 20,
          "start": 21236
        },
        {
          "length": 20,
          "start": 22746
        }
      ],
      "DLL2": [
        {
          "length": 20,
          "start": 5239
        },
        {
          "length": 20,
          "start": 5411
        },
        {
          "length": 20,
          "start": 6055
        },
        {
          "length": 20,
          "start": 6614
        },
        {
          "length": 20,
          "start": 17095
        },
        {
          "length": 20,
          "start": 17275
        },
        {
          "length": 20,
          "start": 18346
        },
        {
          "length": 20,
          "start": 18508
        },
        {
          "length": 20,
          "start": 18703
        }
      ]
    }
  }
}