{
  "_format": "hh-sol-artifact-1",
  "contractName": "RandomAllocator",
  "sourceName": "contracts/worksystems/RandomAllocator.sol",
  "abi": [
    {
      "inputs": [
        {
          "internalType": "uint256",
          "name": "_k",
          "type": "uint256"
        },
        {
          "internalType": "uint256",
          "name": "N_range",
          "type": "uint256"
        }
      ],
      "name": "generateIntegers",
      "outputs": [
        {
          "internalType": "uint256[]",
          "name": "",
          "type": "uint256[]"
        }
      ],
      "stateMutability": "view",
      "type": "function"
    },
    {
      "inputs": [],
      "name": "getRandom",
      "outputs": [
        {
          "internalType": "uint256",
          "name": "",
          "type": "uint256"
        }
      ],
      "stateMutability": "view",
      "type": "function"
    },
    {
      "inputs": [],
      "name": "getSeed",
      "outputs": [
        {
          "internalType": "bytes32",
          "name": "addr",
          "type": "bytes32"
        }
      ],
      "stateMutability": "view",
      "type": "function"
    },
    {
      "inputs": [
        {
          "internalType": "uint256",
          "name": "k",
          "type": "uint256"
        },
        {
          "internalType": "uint256",
          "name": "N",
          "type": "uint256"
        }
      ],
      "name": "random_selection",
      "outputs": [
        {
          "internalType": "uint256[]",
          "name": "",
          "type": "uint256[]"
        }
      ],
      "stateMutability": "view",
      "type": "function"
    }
  ],
  "bytecode": "0x608060405234801561001057600080fd5b50610621806100206000396000f3fe608060405234801561001057600080fd5b506004361061004c5760003560e01c806339e7357c14610051578063aacc5a171461006c578063b1d7ea9814610074578063b8f011b314610094575b600080fd5b6100596100a7565b6040519081526020015b60405180910390f35b6100596100c4565b61008761008236600461049c565b61018d565b60405161006391906104be565b6100876100a236600461049c565b61041d565b60405160009080602081848060185afa6100bd57fe5b5051919050565b6040516bffffffffffffffffffffffff194160601b166020820152600090819042906034016040516020818303038152906040528051906020012060001c61010c919061052e565b446101156100a7565b60405160200161012791815260200190565b60408051601f1981840301815291905280516020909101206101499042610542565b6101539190610542565b61015d9190610542565b60405160200161016f91815260200190565b60408051601f19818403018152919052805160209091012092915050565b606061019d565b60405180910390fd5b600082116101db5760405162461bcd60e51b815260206004820152600b60248201526a04e5f72616e6765203e20360ac1b6044820152606401610194565b6040516bffffffffffffffffffffffff194160601b1660208201526000906034016040516020818303038152906040528051906020012060001c61021d6100a7565b60405160200161022f91815260200190565b60408051601f1981840301815291905280516020909101206102519042610542565b61025b9190610542565b60405160200161026d91815260200190565b6040516020818303038152906040528051906020012060001c905060008467ffffffffffffffff8111156102a3576102a361055a565b6040519080825280602002602001820160405280156102cc578160200160208202803683370190505b509050600080806102de87600a610570565b90505b878310156103cf576000876102fa63017efeeb8861058f565b60408051602081019290925281018590526060016040516020818303038152906040528051906020012060001c61033191906105a6565b90506000805b8581101561037b5782878281518110610352576103526105ba565b60200260200101511415610369576001915061037b565b80610373816105d0565b915050610337565b50806103ad5781868681518110610394576103946105ba565b60209081029190910101526103aa856001610542565b94505b6103b8846001610542565b93508284106103c85750506103cf565b50506102e1565b8783146104115760405162461bcd60e51b815260206004820152601060248201526f149391c81a5b9cdd59999a58da595b9d60821b6044820152606401610194565b50919695505050505050565b606060008211801561042f5750818311155b801561043c575060018310155b6104885760405162461bcd60e51b815260206004820152601960248201527f6b206f72204e20617265206e6f74204f4b20666f7220524e47000000000000006044820152606401610194565b6000610494848461018d565b949350505050565b600080604083850312156104af57600080fd5b50508035926020909101359150565b6020808252825182820181905260009190848201906040850190845b818110156104f6578351835292840192918401916001016104da565b50909695505050505050565b634e487b7160e01b600052601260045260246000fd5b634e487b7160e01b600052601160045260246000fd5b60008261053d5761053d610502565b500490565b6000821982111561055557610555610518565b500190565b634e487b7160e01b600052604160045260246000fd5b600081600019048311821515161561058a5761058a610518565b500290565b6000828210156105a1576105a1610518565b500390565b6000826105b5576105b5610502565b500690565b634e487b7160e01b600052603260045260246000fd5b60006000198214156105e4576105e4610518565b506001019056fea2646970667358221220ddd5f04fae758591f1e872589d7904b5c0a255b9a339467149af85c55d778acd64736f6c63430008080033",
  "linkReferences": {},
  "deployedLinkReferences": {}
}