{
  "_format": "hh-sol-artifact-1",
  "contractName": "RandomAllocator",
  "sourceName": "contracts/worksystems/RandomAllocator.sol",
  "abi": [
    {
      "inputs": [
        {
          "internalType": "uint256",
          "name": "_k",
          "type": "uint256"
        },
        {
          "internalType": "uint256",
          "name": "N_range",
          "type": "uint256"
        }
      ],
      "name": "generateIntegers",
      "outputs": [
        {
          "internalType": "uint256[]",
          "name": "",
          "type": "uint256[]"
        }
      ],
      "stateMutability": "view",
      "type": "function"
    },
    {
      "inputs": [],
      "name": "getRandom",
      "outputs": [
        {
          "internalType": "uint256",
          "name": "",
          "type": "uint256"
        }
      ],
      "stateMutability": "view",
      "type": "function"
    },
    {
      "inputs": [],
      "name": "getSeed",
      "outputs": [
        {
          "internalType": "bytes32",
          "name": "addr",
          "type": "bytes32"
        }
      ],
      "stateMutability": "view",
      "type": "function"
    },
    {
      "inputs": [
        {
          "internalType": "uint256",
          "name": "k",
          "type": "uint256"
        },
        {
          "internalType": "uint256",
          "name": "N",
          "type": "uint256"
        }
      ],
      "name": "random_selection",
      "outputs": [
        {
          "internalType": "uint256[]",
          "name": "",
          "type": "uint256[]"
        }
      ],
      "stateMutability": "view",
      "type": "function"
    },
    {
      "inputs": [
        {
          "internalType": "uint256",
          "name": "N",
          "type": "uint256"
        }
      ],
      "name": "shuffle_array",
      "outputs": [
        {
          "internalType": "uint256[]",
          "name": "",
          "type": "uint256[]"
        }
      ],
      "stateMutability": "view",
      "type": "function"
    }
  ],
  "bytecode": "0x608060405234801561001057600080fd5b5061093e806100206000396000f3fe608060405234801561001057600080fd5b50600436106100575760003560e01c806339e7357c1461005c578063aacc5a1714610077578063b1d7ea981461007f578063b8f011b31461009f578063e44c974b146100b2575b600080fd5b6100646100c5565b6040519081526020015b60405180910390f35b6100646100e2565b61009261008d3660046107bf565b6101ab565b60405161006e91906107e1565b6100926100ad3660046107bf565b6103dc565b6100926100c0366004610825565b610550565b60405160009080602081848060185afa6100db57fe5b5051919050565b6040516bffffffffffffffffffffffff194160601b166020820152600090819042906034016040516020818303038152906040528051906020012060001c61012a919061086a565b446101336100c5565b60405160200161014591815260200190565b60408051601f198184030181529190528051602090910120610167904261087e565b610171919061087e565b61017b919061087e565b60405160200161018d91815260200190565b60408051601f19818403018152919052805160209091012092915050565b60606101bb565b60405180910390fd5b600082116101f95760405162461bcd60e51b815260206004820152600b60248201526a04e5f72616e6765203e20360ac1b60448201526064016101b2565b6040516bffffffffffffffffffffffff194160601b1660208201526000906034016040516020818303038152906040528051906020012060001c61023b6100c5565b60405160200161024d91815260200190565b60408051601f19818403018152919052805160209091012061026f904261087e565b610279919061087e565b60405160200161028b91815260200190565b6040516020818303038152906040528051906020012060001c905060008467ffffffffffffffff8111156102c1576102c1610896565b6040519080825280602002602001820160405280156102ea578160200160208202803683370190505b5090506000805b868210156103d15760008661030a63017efeeb876108ac565b60408051602081019290925281018490526060016040516020818303038152906040528051906020012060001c61034191906108c3565b90506000805b8481101561038b5782868281518110610362576103626108d7565b60200260200101511415610379576001915061038b565b80610383816108ed565b915050610347565b50806103bd57818585815181106103a4576103a46108d7565b60209081029190910101526103ba84600161087e565b93505b6103c883600161087e565b925050506102f1565b509095945050505050565b60606000821180156103ee5750818311155b80156103fb575060018310155b6104595760405162461bcd60e51b815260206004820152602960248201527f6b206f72204e20617265206e6f74204f4b20647572696e672072616e646f6d2060448201526839b2b632b1ba34b7b760b91b60648201526084016101b2565b60008267ffffffffffffffff81111561047457610474610896565b60405190808252806020026020018201604052801561049d578160200160208202803683370190505b50905060008467ffffffffffffffff8111156104bb576104bb610896565b6040519080825280602002602001820160405280156104e4578160200160208202803683370190505b50905060006104fa6104f5846105e7565b61062f565b905060005b868110156103d157818181518110610519576105196108d7565b6020026020010151838281518110610533576105336108d7565b602090810291909101015280610548816108ed565b9150506104ff565b60606000821161058a5760405162461bcd60e51b815260206004820152600560248201526404e203e20360dc1b60448201526064016101b2565b60008267ffffffffffffffff8111156105a5576105a5610896565b6040519080825280602002602001820160405280156105ce578160200160208202803683370190505b50905060006105df6104f5836105e7565b949350505050565b805160609060005b81811015610627578084828151811061060a5761060a6108d7565b60209081029190910101528061061f816108ed565b9150506105ef565b509192915050565b606060008251116106785760405162461bcd60e51b815260206004820152601360248201527205f6d7941727261792e6c656e677468203e203606c1b60448201526064016101b2565b81518060005b818110156107b6576000836106916100e2565b8784815181106106a3576106a36108d7565b60200260200101516040516020016106c5929190918252602082015260400190565b6040516020818303038152906040528051906020012060001c6106e891906108c3565b6106f390600161087e565b90506000866107036001846108ac565b81518110610713576107136108d7565b602002602001015190508660018661072b91906108ac565b8151811061073b5761073b6108d7565b60200260200101518760018461075191906108ac565b81518110610761576107616108d7565b602090810291909101015280876107796001886108ac565b81518110610789576107896108d7565b602090810291909101015261079f6001866108ac565b9450505080806107ae906108ed565b91505061067e565b50929392505050565b600080604083850312156107d257600080fd5b50508035926020909101359150565b6020808252825182820181905260009190848201906040850190845b81811015610819578351835292840192918401916001016107fd565b50909695505050505050565b60006020828403121561083757600080fd5b5035919050565b634e487b7160e01b600052601260045260246000fd5b634e487b7160e01b600052601160045260246000fd5b6000826108795761087961083e565b500490565b6000821982111561089157610891610854565b500190565b634e487b7160e01b600052604160045260246000fd5b6000828210156108be576108be610854565b500390565b6000826108d2576108d261083e565b500690565b634e487b7160e01b600052603260045260246000fd5b600060001982141561090157610901610854565b506001019056fea26469706673582212200c2b4fc630dca05bc69b80dee80f9096b59f481326ac83e4bba2a44b7e37190c64736f6c63430008080033",
  "linkReferences": {},
  "deployedLinkReferences": {}
}