{
  "_format": "hh-sol-artifact-1",
  "contractName": "RandomAllocator",
  "sourceName": "contracts/worksystems/RandomAllocator.sol",
  "abi": [
    {
      "inputs": [
        {
          "internalType": "uint256",
          "name": "_k",
          "type": "uint256"
        },
        {
          "internalType": "uint256",
          "name": "N_range",
          "type": "uint256"
        }
      ],
      "name": "generateIntegers",
      "outputs": [
        {
          "internalType": "uint256[]",
          "name": "",
          "type": "uint256[]"
        }
      ],
      "stateMutability": "view",
      "type": "function"
    },
    {
      "inputs": [],
      "name": "getRandom",
      "outputs": [
        {
          "internalType": "uint256",
          "name": "",
          "type": "uint256"
        }
      ],
      "stateMutability": "view",
      "type": "function"
    },
    {
      "inputs": [],
      "name": "getSeed",
      "outputs": [
        {
          "internalType": "bytes32",
          "name": "addr",
          "type": "bytes32"
        }
      ],
      "stateMutability": "view",
      "type": "function"
    },
    {
      "inputs": [
        {
          "internalType": "uint256",
          "name": "k",
          "type": "uint256"
        },
        {
          "internalType": "uint256",
          "name": "N",
          "type": "uint256"
        }
      ],
      "name": "random_selection",
      "outputs": [
        {
          "internalType": "uint256[]",
          "name": "",
          "type": "uint256[]"
        }
      ],
      "stateMutability": "view",
      "type": "function"
    }
  ],
  "bytecode": "0x608060405234801561001057600080fd5b506106f8806100206000396000f3fe608060405234801561001057600080fd5b506004361061004c5760003560e01c806339e7357c14610051578063aacc5a171461006c578063b1d7ea9814610074578063b8f011b314610094575b600080fd5b6100596100a7565b6040519081526020015b60405180910390f35b6100596100c4565b61008761008236600461058a565b61018d565b60405161006391906105ac565b6100876100a236600461058a565b61050f565b60405160009080602081848060185afa6100bd57fe5b5051919050565b6040516bffffffffffffffffffffffff194160601b166020820152600090819042906034016040516020818303038152906040528051906020012060001c61010c919061061c565b446101156100a7565b60405160200161012791815260200190565b60408051601f1981840301815291905280516020909101206101499042610630565b6101539190610630565b61015d9190610630565b60405160200161016f91815260200190565b60408051601f19818403018152919052805160209091012092915050565b606060008211801561019f5750818311155b80156101ac575060018310155b6101f95760405162461bcd60e51b81526020600482015260196024820152786b206f72204e20617265206e6f74204f4b20666f7220524e4760381b60448201526064015b60405180910390fd5b60018310156102345760405162461bcd60e51b815260206004820152600760248201526605f6b203e3d20360cc1b60448201526064016101f0565b60018210156102735760405162461bcd60e51b815260206004820152600b60248201526a04e5f72616e6765203e20360ac1b60448201526064016101f0565b600061027d6100c4565b60405160200161028f91815260200190565b60408051601f198184030181528282528051602091820120818401528151808403820181529282019091528151910120905060008467ffffffffffffffff8111156102dc576102dc610648565b604051908082528060200260200182016040528015610305578160200160208202803683370190505b509050600080610316876014610630565b905060005b8181101561040e57600087610330838061065e565b61033a9088610630565b60405160200161034c91815260200190565b6040516020818303038152906040528051906020012060001c61036f919061067d565b90506000805b858110156103b9578287828151811061039057610390610691565b602002602001015114156103a757600191506103b9565b806103b1816106a7565b915050610375565b50806103eb57818686815181106103d2576103d2610691565b60209081029190910101526103e8856001610630565b94505b8985106103f957505061040e565b50508080610406906106a7565b91505061031b565b50868210156104c25760005b868110156104c057806000805b8581101561046b578287828151811061044257610442610691565b60200260200101511415610459576001915061046b565b80610463816106a7565b915050610427565b508061049d578186868151811061048457610484610691565b602090810291909101015261049a856001610630565b94505b8985106104ab5750506104c0565b505080806104b8906106a7565b91505061041a565b505b8682146105045760405162461bcd60e51b815260206004820152601060248201526f149391c81a5b9cdd59999a58da595b9d60821b60448201526064016101f0565b509095945050505050565b60606000821180156105215750818311155b801561052e575060018310155b6105765760405162461bcd60e51b81526020600482015260196024820152786b206f72204e20617265206e6f74204f4b20666f7220524e4760381b60448201526064016101f0565b6000610582848461018d565b949350505050565b6000806040838503121561059d57600080fd5b50508035926020909101359150565b6020808252825182820181905260009190848201906040850190845b818110156105e4578351835292840192918401916001016105c8565b50909695505050505050565b634e487b7160e01b600052601260045260246000fd5b634e487b7160e01b600052601160045260246000fd5b60008261062b5761062b6105f0565b500490565b6000821982111561064357610643610606565b500190565b634e487b7160e01b600052604160045260246000fd5b600081600019048311821515161561067857610678610606565b500290565b60008261068c5761068c6105f0565b500690565b634e487b7160e01b600052603260045260246000fd5b60006000198214156106bb576106bb610606565b506001019056fea2646970667358221220a7eb1e79bbc6bb52d64140df29b4b18cf98b45b8baf2908e65380ff569efed0164736f6c63430008080033",
  "linkReferences": {},
  "deployedLinkReferences": {}
}