{
  "_format": "hh-sol-artifact-1",
  "contractName": "StakingManager",
  "sourceName": "contracts/worksystems/StakingManager.sol",
  "abi": [
    {
      "inputs": [
        {
          "internalType": "address",
          "name": "EXD_token",
          "type": "address"
        }
      ],
      "stateMutability": "nonpayable",
      "type": "constructor"
    },
    {
      "anonymous": false,
      "inputs": [
        {
          "indexed": true,
          "internalType": "address",
          "name": "previousOwner",
          "type": "address"
        },
        {
          "indexed": true,
          "internalType": "address",
          "name": "newOwner",
          "type": "address"
        }
      ],
      "name": "OwnershipTransferred",
      "type": "event"
    },
    {
      "anonymous": false,
      "inputs": [
        {
          "indexed": true,
          "internalType": "address",
          "name": "account",
          "type": "address"
        },
        {
          "indexed": false,
          "internalType": "bool",
          "name": "isWhitelisted",
          "type": "bool"
        }
      ],
      "name": "StakeUnWhitelisted",
      "type": "event"
    },
    {
      "anonymous": false,
      "inputs": [
        {
          "indexed": true,
          "internalType": "address",
          "name": "account",
          "type": "address"
        },
        {
          "indexed": false,
          "internalType": "bool",
          "name": "isWhitelisted",
          "type": "bool"
        }
      ],
      "name": "StakeWhitelisted",
      "type": "event"
    },
    {
      "inputs": [
        {
          "internalType": "address",
          "name": "_stakeholder",
          "type": "address"
        }
      ],
      "name": "AllocatedStakedAmountOf",
      "outputs": [
        {
          "internalType": "uint256",
          "name": "",
          "type": "uint256"
        }
      ],
      "stateMutability": "view",
      "type": "function"
    },
    {
      "inputs": [
        {
          "internalType": "address",
          "name": "_stakeholder",
          "type": "address"
        }
      ],
      "name": "AvailableStakedAmountOf",
      "outputs": [
        {
          "internalType": "uint256",
          "name": "",
          "type": "uint256"
        }
      ],
      "stateMutability": "view",
      "type": "function"
    },
    {
      "inputs": [
        {
          "internalType": "uint256",
          "name": "_StakeAllocation",
          "type": "uint256"
        },
        {
          "internalType": "address",
          "name": "_stakeholder",
          "type": "address"
        }
      ],
      "name": "ProxyStakeAllocate",
      "outputs": [
        {
          "internalType": "bool",
          "name": "",
          "type": "bool"
        }
      ],
      "stateMutability": "nonpayable",
      "type": "function"
    },
    {
      "inputs": [
        {
          "internalType": "uint256",
          "name": "_StakeToDeallocate",
          "type": "uint256"
        },
        {
          "internalType": "address",
          "name": "_stakeholder",
          "type": "address"
        }
      ],
      "name": "ProxyStakeDeallocate",
      "outputs": [
        {
          "internalType": "bool",
          "name": "",
          "type": "bool"
        }
      ],
      "stateMutability": "nonpayable",
      "type": "function"
    },
    {
      "inputs": [
        {
          "internalType": "uint256",
          "name": "_stake",
          "type": "uint256"
        }
      ],
      "name": "Stake",
      "outputs": [],
      "stateMutability": "nonpayable",
      "type": "function"
    },
    {
      "inputs": [],
      "name": "TotalAllocatedStakes",
      "outputs": [
        {
          "internalType": "uint256",
          "name": "",
          "type": "uint256"
        }
      ],
      "stateMutability": "view",
      "type": "function"
    },
    {
      "inputs": [],
      "name": "TotalAvailableStakes",
      "outputs": [
        {
          "internalType": "uint256",
          "name": "",
          "type": "uint256"
        }
      ],
      "stateMutability": "view",
      "type": "function"
    },
    {
      "inputs": [],
      "name": "TotalStakes",
      "outputs": [
        {
          "internalType": "uint256",
          "name": "",
          "type": "uint256"
        }
      ],
      "stateMutability": "view",
      "type": "function"
    },
    {
      "inputs": [
        {
          "internalType": "address",
          "name": "_address",
          "type": "address"
        }
      ],
      "name": "addAddress",
      "outputs": [],
      "stateMutability": "nonpayable",
      "type": "function"
    },
    {
      "inputs": [
        {
          "internalType": "address",
          "name": "",
          "type": "address"
        }
      ],
      "name": "balances",
      "outputs": [
        {
          "internalType": "uint256",
          "name": "free_balance",
          "type": "uint256"
        },
        {
          "internalType": "uint256",
          "name": "staked_balance",
          "type": "uint256"
        },
        {
          "internalType": "uint256",
          "name": "allocated_balance",
          "type": "uint256"
        }
      ],
      "stateMutability": "view",
      "type": "function"
    },
    {
      "inputs": [],
      "name": "closeAllStakes",
      "outputs": [],
      "stateMutability": "nonpayable",
      "type": "function"
    },
    {
      "inputs": [
        {
          "internalType": "uint256",
          "name": "tokens",
          "type": "uint256"
        }
      ],
      "name": "deposit",
      "outputs": [],
      "stateMutability": "nonpayable",
      "type": "function"
    },
    {
      "inputs": [
        {
          "internalType": "address",
          "name": "_address",
          "type": "address"
        }
      ],
      "name": "isStakeWhitelisted",
      "outputs": [
        {
          "internalType": "bool",
          "name": "",
          "type": "bool"
        }
      ],
      "stateMutability": "view",
      "type": "function"
    },
    {
      "inputs": [
        {
          "internalType": "address",
          "name": "_address",
          "type": "address"
        }
      ],
      "name": "isStakeholder",
      "outputs": [
        {
          "internalType": "bool",
          "name": "",
          "type": "bool"
        }
      ],
      "stateMutability": "view",
      "type": "function"
    },
    {
      "inputs": [
        {
          "internalType": "address",
          "name": "_address",
          "type": "address"
        }
      ],
      "name": "isStakeholderIndex",
      "outputs": [
        {
          "internalType": "bool",
          "name": "",
          "type": "bool"
        },
        {
          "internalType": "uint256",
          "name": "",
          "type": "uint256"
        }
      ],
      "stateMutability": "view",
      "type": "function"
    },
    {
      "inputs": [],
      "name": "owner",
      "outputs": [
        {
          "internalType": "address",
          "name": "",
          "type": "address"
        }
      ],
      "stateMutability": "view",
      "type": "function"
    },
    {
      "inputs": [
        {
          "internalType": "address",
          "name": "_address",
          "type": "address"
        }
      ],
      "name": "removeAddress",
      "outputs": [],
      "stateMutability": "nonpayable",
      "type": "function"
    },
    {
      "inputs": [],
      "name": "renounceOwnership",
      "outputs": [],
      "stateMutability": "nonpayable",
      "type": "function"
    },
    {
      "inputs": [],
      "name": "token",
      "outputs": [
        {
          "internalType": "contract IERC20",
          "name": "",
          "type": "address"
        }
      ],
      "stateMutability": "view",
      "type": "function"
    },
    {
      "inputs": [
        {
          "internalType": "address",
          "name": "newOwner",
          "type": "address"
        }
      ],
      "name": "transferOwnership",
      "outputs": [],
      "stateMutability": "nonpayable",
      "type": "function"
    },
    {
      "inputs": [
        {
          "internalType": "uint256",
          "name": "_numTokens",
          "type": "uint256"
        }
      ],
      "name": "withdraw",
      "outputs": [],
      "stateMutability": "nonpayable",
      "type": "function"
    },
    {
      "inputs": [],
      "name": "withdrawAll",
      "outputs": [],
      "stateMutability": "nonpayable",
      "type": "function"
    }
  ],
  "bytecode": "0x608060405234801561001057600080fd5b5060405161138e38038061138e83398101604081905261002f916100ad565b6100383361005d565b600180546001600160a01b0319166001600160a01b03929092169190911790556100dd565b600080546001600160a01b038381166001600160a01b0319831681178455604051919092169283917f8be0079c531659141344cd1fd0a4f28419497f9722a3daafe3b4186f6b6457e09190a35050565b6000602082840312156100bf57600080fd5b81516001600160a01b03811681146100d657600080fd5b9392505050565b6112a2806100ec6000396000f3fe608060405234801561001057600080fd5b50600436106101425760003560e01c8063853828b6116100b8578063cbdce4e01161007c578063cbdce4e0146102ba578063e67719bd146102e6578063ef037b9014610312578063f20e8b1214610325578063f2fde38b14610351578063fc0c546a1461036457600080fd5b8063853828b6146102485780638aed0feb146102505780638da5cb5b14610258578063b6b55f251461027d578063bd0bb4f61461029057600080fd5b806327e235e31161010a57806327e235e3146101b55780632e1a7d4d146101ff57806338eada1c146102125780634ba79dfe146102255780636a40cbb614610238578063715018a61461024057600080fd5b8063112b32661461014757806312b6887c1461016f57806314bee5a514610182578063227a473b1461019857806323cc9f37146101ad575b600080fd5b61015a610155366004611083565b610377565b60405190151581526020015b60405180910390f35b61015a61017d366004611083565b6104d6565b61018a610625565b604051908152602001610166565b6101ab6101a63660046110af565b61069c565b005b61018a610728565b6101e46101c33660046110c8565b60036020526000908152604090208054600182015460029092015490919083565b60408051938452602084019290925290820152606001610166565b6101ab61020d3660046110af565b610799565b6101ab6102203660046110c8565b6108e5565b6101ab6102333660046110c8565b6109eb565b6101ab610ad8565b6101ab610b18565b6101ab610b4e565b61018a610c2a565b6000546001600160a01b03165b6040516001600160a01b039091168152602001610166565b6101ab61028b3660046110af565b610c98565b6102a361029e3660046110c8565b610e2e565b604080519215158352602083019190915201610166565b61018a6102c83660046110c8565b6001600160a01b031660009081526003602052604090206001015490565b61015a6102f43660046110c8565b6001600160a01b031660009081526004602052604090205460ff1690565b61015a6103203660046110c8565b610e99565b61018a6103333660046110c8565b6001600160a01b031660009081526003602052604090206002015490565b6101ab61035f3660046110c8565b610efd565b600154610265906001600160a01b031681565b3360009081526004602052604081205460ff166103af5760405162461bcd60e51b81526004016103a6906110e3565b60405180910390fd5b6103b882610e99565b6103d45760405162461bcd60e51b81526004016103a69061112d565b6001600160a01b0382166000908152600360205260409020600201548311156104595760405162461bcd60e51b815260206004820152603160248201527f5f7374616b65686f6c6465722068617320746f206861766520656e6f75676820604482015270616c6c6f63617465642062616c616e636560781b60648201526084016103a6565b6001600160a01b03821660009081526003602052604090206002015461047f9084610f95565b6001600160a01b03831660009081526003602052604090206002810191909155600101546104ad9084610fa8565b6001600160a01b0383166000908152600360205260409020600190810191909155905092915050565b3360009081526004602052604081205460ff166105055760405162461bcd60e51b81526004016103a6906110e3565b61050e82610e99565b61052a5760405162461bcd60e51b81526004016103a69061112d565b6001600160a01b0382166000908152600360205260409020600101548311156105ac5760405162461bcd60e51b815260206004820152602e60248201527f5f7374616b65686f6c6465722068617320746f206861766520656e6f7567682060448201526d7374616b65642062616c616e636560901b60648201526084016103a6565b6001600160a01b0382166000908152600360205260409020600101546105d29084610f95565b6001600160a01b03831660009081526003602052604090206001810191909155600201546106009084610fa8565b6001600160a01b03831660009081526003602052604090206002015550600192915050565b600080805b6002548110156106965760006002828154811061064957610649611172565b60009182526020808320909101546001600160a01b0316808352600390915260409091206002015490915061067e8482610fa8565b9350505060018161068f919061119e565b905061062a565b50919050565b336000908152600360205260409020548111156106b857600080fd5b336000908152600360205260409020600101546106d8576106d833610fb4565b336000908152600360205260409020546106f29082610f95565b336000908152600360205260409020908155600101546107129082610fa8565b3360009081526003602052604090206001015550565b600080805b6002548110156106965760006002828154811061074c5761074c611172565b60009182526020808320909101546001600160a01b031680835260039091526040909120600101549091506107818482610fa8565b93505050600181610792919061119e565b905061072d565b3360009081526003602052604090205481111561081e5760405162461bcd60e51b815260206004820152603860248201527f6e6f7420656e6f75676820746f6b656e7320696e20746865206672656520737460448201527f616b65642062616c616e636520746f207769746864726177000000000000000060648201526084016103a6565b60015460405163a9059cbb60e01b8152336004820152602481018390526001600160a01b039091169063a9059cbb90604401602060405180830381600087803b15801561086a57600080fd5b505af115801561087e573d6000803e3d6000fd5b505050506040513d601f19601f820116820180604052508101906108a291906111b6565b6108be5760405162461bcd60e51b81526004016103a6906111d8565b33600090815260036020526040812080548392906108dd908490611207565b909155505050565b6000546001600160a01b0316331461090f5760405162461bcd60e51b81526004016103a69061121e565b6001600160a01b03811660009081526004602052604090205460ff1615156001141561098d5760405162461bcd60e51b815260206004820152602760248201527f41646472657373206d757374206e6f742062652077686974656c697374656420604482015266616c726561647960c81b60648201526084016103a6565b6001600160a01b038116600081815260046020908152604091829020805460ff1916600190811790915591519182527f34e57d3e15d2174a31aed19b5a635aad3c7fd6d6ff6b19d43f56819654e990fd91015b60405180910390a250565b6000546001600160a01b03163314610a155760405162461bcd60e51b81526004016103a69061121e565b6001600160a01b03811660009081526004602052604090205460ff16610a895760405162461bcd60e51b815260206004820152602360248201527f41646472657373206d7573742062652077686974656c697374656420616c726560448201526261647960e81b60648201526084016103a6565b6001600160a01b0381166000818152600460209081526040808320805460ff19169055519182527fc87598b69899c8b872e8b5e416808d7332fe62ed4f035f7e72ae6f646e12f73f91016109e0565b33600090815260036020526040902060018101549054610af89082610fa8565b336000908152600360205260409020908155600101546107129082610f95565b6000546001600160a01b03163314610b425760405162461bcd60e51b81526004016103a69061121e565b610b4c6000611017565b565b33600090815260036020526040902054610b6757600080fd5b600154336000818152600360205260409081902054905163a9059cbb60e01b8152600481019290925260248201526001600160a01b039091169063a9059cbb90604401602060405180830381600087803b158015610bc457600080fd5b505af1158015610bd8573d6000803e3d6000fd5b505050506040513d601f19601f82011682018060405250810190610bfc91906111b6565b610c185760405162461bcd60e51b81526004016103a6906111d8565b33600090815260036020526040812055565b600080805b60025481101561069657600060028281548110610c4e57610c4e611172565b60009182526020808320909101546001600160a01b03168083526003909152604090912054909150610c808482610fa8565b93505050600181610c91919061119e565b9050610c2f565b6001546040516370a0823160e01b815233600482015282916001600160a01b0316906370a082319060240160206040518083038186803b158015610cdb57600080fd5b505afa158015610cef573d6000803e3d6000fd5b505050506040513d601f19601f82011682018060405250810190610d139190611253565b1015610d615760405162461bcd60e51b815260206004820152601c60248201527f6e6f7420656e6f75676820746f6b656e7320746f206465706f7369740000000060448201526064016103a6565b3360009081526003602052604081208054839290610d8090849061119e565b90915550506001546040516323b872dd60e01b8152336004820152306024820152604481018390526001600160a01b03909116906323b872dd90606401602060405180830381600087803b158015610dd757600080fd5b505af1158015610deb573d6000803e3d6000fd5b505050506040513d601f19601f82011682018060405250810190610e0f91906111b6565b610e2b5760405162461bcd60e51b81526004016103a6906111d8565b50565b60008060005b600254811015610e8d5760028181548110610e5157610e51611172565b6000918252602090912001546001600160a01b0385811691161415610e7b57600194909350915050565b610e8660018261119e565b9050610e34565b50600093849350915050565b6000805b600254811015610ef45760028181548110610eba57610eba611172565b6000918252602090912001546001600160a01b0384811691161415610ee25750600192915050565b610eed60018261119e565b9050610e9d565b50600092915050565b6000546001600160a01b03163314610f275760405162461bcd60e51b81526004016103a69061121e565b6001600160a01b038116610f8c5760405162461bcd60e51b815260206004820152602660248201527f4f776e61626c653a206e6577206f776e657220697320746865207a65726f206160448201526564647265737360d01b60648201526084016103a6565b610e2b81611017565b6000610fa18284611207565b9392505050565b6000610fa1828461119e565b6000610fbf82610e2e565b5090508061101357600280546001810182556000919091527f405787fa12a823e0f2b7631cc41b3ba8828b3321ca811111fa75cd3aa3bb5ace0180546001600160a01b0319166001600160a01b0384161790555b5050565b600080546001600160a01b038381166001600160a01b0319831681178455604051919092169283917f8be0079c531659141344cd1fd0a4f28419497f9722a3daafe3b4186f6b6457e09190a35050565b80356001600160a01b038116811461107e57600080fd5b919050565b6000806040838503121561109657600080fd5b823591506110a660208401611067565b90509250929050565b6000602082840312156110c157600080fd5b5035919050565b6000602082840312156110da57600080fd5b610fa182611067565b6020808252602a908201527f69735374616b6557686974656c6973746564206d7573742062652074727565206040820152693337b91029b2b73232b960b11b606082015260800190565b60208082526025908201527f69735374616b65686f6c646572206d757374206265207472756520666f72205360408201526432b73232b960d91b606082015260800190565b634e487b7160e01b600052603260045260246000fd5b634e487b7160e01b600052601160045260246000fd5b600082198211156111b1576111b1611188565b500190565b6000602082840312156111c857600080fd5b81518015158114610fa157600080fd5b602080825260159082015274151bdad95b881d1c985b9cd9995c8819985a5b1959605a1b604082015260600190565b60008282101561121957611219611188565b500390565b6020808252818101527f4f776e61626c653a2063616c6c6572206973206e6f7420746865206f776e6572604082015260600190565b60006020828403121561126557600080fd5b505191905056fea26469706673582212205ec62e57dab44a3834433f7002a689b8c631e38ba84098d18338fedee48ef87064736f6c63430008080033",
  "linkReferences": {},
  "deployedLinkReferences": {}
}