{
  "_format": "hh-sol-artifact-1",
  "contractName": "StakingManager",
  "sourceName": "contracts/worksystems/StakingManager.sol",
  "abi": [
    {
      "inputs": [
        {
          "internalType": "address",
          "name": "EXD_token",
          "type": "address"
        }
      ],
      "stateMutability": "nonpayable",
      "type": "constructor"
    },
    {
      "anonymous": false,
      "inputs": [
        {
          "indexed": true,
          "internalType": "address",
          "name": "previousOwner",
          "type": "address"
        },
        {
          "indexed": true,
          "internalType": "address",
          "name": "newOwner",
          "type": "address"
        }
      ],
      "name": "OwnershipTransferred",
      "type": "event"
    },
    {
      "anonymous": false,
      "inputs": [
        {
          "indexed": true,
          "internalType": "address",
          "name": "account",
          "type": "address"
        },
        {
          "indexed": false,
          "internalType": "bool",
          "name": "isWhitelisted",
          "type": "bool"
        }
      ],
      "name": "StakeUnWhitelisted",
      "type": "event"
    },
    {
      "anonymous": false,
      "inputs": [
        {
          "indexed": true,
          "internalType": "address",
          "name": "account",
          "type": "address"
        },
        {
          "indexed": false,
          "internalType": "bool",
          "name": "isWhitelisted",
          "type": "bool"
        }
      ],
      "name": "StakeWhitelisted",
      "type": "event"
    },
    {
      "inputs": [
        {
          "internalType": "address",
          "name": "_stakeholder",
          "type": "address"
        }
      ],
      "name": "AllocatedStakedAmountOf",
      "outputs": [
        {
          "internalType": "uint256",
          "name": "",
          "type": "uint256"
        }
      ],
      "stateMutability": "view",
      "type": "function"
    },
    {
      "inputs": [
        {
          "internalType": "address",
          "name": "_stakeholder",
          "type": "address"
        }
      ],
      "name": "AvailableStakedAmountOf",
      "outputs": [
        {
          "internalType": "uint256",
          "name": "",
          "type": "uint256"
        }
      ],
      "stateMutability": "view",
      "type": "function"
    },
    {
      "inputs": [
        {
          "internalType": "uint256",
          "name": "_StakeAllocation",
          "type": "uint256"
        },
        {
          "internalType": "address",
          "name": "_stakeholder",
          "type": "address"
        }
      ],
      "name": "ProxyStakeAllocate",
      "outputs": [
        {
          "internalType": "bool",
          "name": "",
          "type": "bool"
        }
      ],
      "stateMutability": "nonpayable",
      "type": "function"
    },
    {
      "inputs": [
        {
          "internalType": "uint256",
          "name": "_StakeToDeallocate",
          "type": "uint256"
        },
        {
          "internalType": "address",
          "name": "_stakeholder",
          "type": "address"
        }
      ],
      "name": "ProxyStakeDeallocate",
      "outputs": [
        {
          "internalType": "bool",
          "name": "",
          "type": "bool"
        }
      ],
      "stateMutability": "nonpayable",
      "type": "function"
    },
    {
      "inputs": [
        {
          "internalType": "uint256",
          "name": "_stake",
          "type": "uint256"
        }
      ],
      "name": "Stake",
      "outputs": [],
      "stateMutability": "nonpayable",
      "type": "function"
    },
    {
      "inputs": [
        {
          "internalType": "uint256",
          "name": "",
          "type": "uint256"
        }
      ],
      "name": "StakeWhitelistedAddress",
      "outputs": [
        {
          "internalType": "address",
          "name": "",
          "type": "address"
        }
      ],
      "stateMutability": "view",
      "type": "function"
    },
    {
      "inputs": [
        {
          "internalType": "address",
          "name": "",
          "type": "address"
        },
        {
          "internalType": "address",
          "name": "",
          "type": "address"
        }
      ],
      "name": "SystemsUserAllocations",
      "outputs": [
        {
          "internalType": "uint256",
          "name": "",
          "type": "uint256"
        }
      ],
      "stateMutability": "view",
      "type": "function"
    },
    {
      "inputs": [],
      "name": "TotalAllocatedStake",
      "outputs": [
        {
          "internalType": "uint256",
          "name": "",
          "type": "uint256"
        }
      ],
      "stateMutability": "view",
      "type": "function"
    },
    {
      "inputs": [],
      "name": "TotalAllocatedStakes",
      "outputs": [
        {
          "internalType": "uint256",
          "name": "",
          "type": "uint256"
        }
      ],
      "stateMutability": "view",
      "type": "function"
    },
    {
      "inputs": [],
      "name": "TotalAvailableStake",
      "outputs": [
        {
          "internalType": "uint256",
          "name": "",
          "type": "uint256"
        }
      ],
      "stateMutability": "view",
      "type": "function"
    },
    {
      "inputs": [],
      "name": "TotalDeposit",
      "outputs": [
        {
          "internalType": "uint256",
          "name": "",
          "type": "uint256"
        }
      ],
      "stateMutability": "view",
      "type": "function"
    },
    {
      "inputs": [],
      "name": "TotalDeposited",
      "outputs": [
        {
          "internalType": "uint256",
          "name": "",
          "type": "uint256"
        }
      ],
      "stateMutability": "view",
      "type": "function"
    },
    {
      "inputs": [],
      "name": "TotalStakes",
      "outputs": [
        {
          "internalType": "uint256",
          "name": "",
          "type": "uint256"
        }
      ],
      "stateMutability": "view",
      "type": "function"
    },
    {
      "inputs": [
        {
          "internalType": "address",
          "name": "_address",
          "type": "address"
        }
      ],
      "name": "addAddress",
      "outputs": [],
      "stateMutability": "nonpayable",
      "type": "function"
    },
    {
      "inputs": [
        {
          "internalType": "address",
          "name": "",
          "type": "address"
        }
      ],
      "name": "balances",
      "outputs": [
        {
          "internalType": "uint256",
          "name": "free_balance",
          "type": "uint256"
        },
        {
          "internalType": "uint256",
          "name": "staked_balance",
          "type": "uint256"
        },
        {
          "internalType": "uint256",
          "name": "allocated_balance",
          "type": "uint256"
        }
      ],
      "stateMutability": "view",
      "type": "function"
    },
    {
      "inputs": [],
      "name": "closeAllStakes",
      "outputs": [],
      "stateMutability": "nonpayable",
      "type": "function"
    },
    {
      "inputs": [
        {
          "internalType": "uint256",
          "name": "tokens",
          "type": "uint256"
        }
      ],
      "name": "deposit",
      "outputs": [],
      "stateMutability": "nonpayable",
      "type": "function"
    },
    {
      "inputs": [
        {
          "internalType": "address",
          "name": "_address",
          "type": "address"
        }
      ],
      "name": "isStakeWhitelisted",
      "outputs": [
        {
          "internalType": "bool",
          "name": "",
          "type": "bool"
        }
      ],
      "stateMutability": "view",
      "type": "function"
    },
    {
      "inputs": [
        {
          "internalType": "address",
          "name": "_address",
          "type": "address"
        }
      ],
      "name": "isStakeholder",
      "outputs": [
        {
          "internalType": "bool",
          "name": "",
          "type": "bool"
        }
      ],
      "stateMutability": "view",
      "type": "function"
    },
    {
      "inputs": [
        {
          "internalType": "address",
          "name": "",
          "type": "address"
        }
      ],
      "name": "isStakeholderMap",
      "outputs": [
        {
          "internalType": "bool",
          "name": "",
          "type": "bool"
        }
      ],
      "stateMutability": "view",
      "type": "function"
    },
    {
      "inputs": [],
      "name": "owner",
      "outputs": [
        {
          "internalType": "address",
          "name": "",
          "type": "address"
        }
      ],
      "stateMutability": "view",
      "type": "function"
    },
    {
      "inputs": [
        {
          "internalType": "address",
          "name": "_address",
          "type": "address"
        }
      ],
      "name": "removeAddress",
      "outputs": [],
      "stateMutability": "nonpayable",
      "type": "function"
    },
    {
      "inputs": [],
      "name": "renounceOwnership",
      "outputs": [],
      "stateMutability": "nonpayable",
      "type": "function"
    },
    {
      "inputs": [],
      "name": "token",
      "outputs": [
        {
          "internalType": "contract IERC20",
          "name": "",
          "type": "address"
        }
      ],
      "stateMutability": "view",
      "type": "function"
    },
    {
      "inputs": [
        {
          "internalType": "address",
          "name": "newOwner",
          "type": "address"
        }
      ],
      "name": "transferOwnership",
      "outputs": [],
      "stateMutability": "nonpayable",
      "type": "function"
    },
    {
      "inputs": [
        {
          "internalType": "uint256",
          "name": "_numTokens",
          "type": "uint256"
        }
      ],
      "name": "withdraw",
      "outputs": [],
      "stateMutability": "nonpayable",
      "type": "function"
    },
    {
      "inputs": [],
      "name": "withdrawAll",
      "outputs": [],
      "stateMutability": "nonpayable",
      "type": "function"
    }
  ],
  "bytecode": "0x608060405260006005556000600655600060075534801561001f57600080fd5b5060405161153c38038061153c83398101604081905261003e916100bc565b6100473361006c565b600180546001600160a01b0319166001600160a01b03929092169190911790556100ec565b600080546001600160a01b038381166001600160a01b0319831681178455604051919092169283917f8be0079c531659141344cd1fd0a4f28419497f9722a3daafe3b4186f6b6457e09190a35050565b6000602082840312156100ce57600080fd5b81516001600160a01b03811681146100e557600080fd5b9392505050565b611441806100fb6000396000f3fe608060405234801561001057600080fd5b50600436106101a95760003560e01c80636b96dcff116100f9578063d5dc341e11610097578063ef037b9011610071578063ef037b90146103cf578063f20e8b12146103fb578063f2fde38b14610427578063fc0c546a1461043a57600080fd5b8063d5dc341e14610377578063e67719bd14610380578063e904b813146103ac57600080fd5b8063876cd6b0116100d3578063876cd6b01461031f5780638da5cb5b14610327578063b6b55f2514610338578063cbdce4e01461034b57600080fd5b80636b96dcff14610306578063715018a61461030f578063853828b61461031757600080fd5b8063251bde94116101665780632e1a7d4d116101405780632e1a7d4d146102c557806338eada1c146102d85780634ba79dfe146102eb5780636a40cbb6146102fe57600080fd5b8063251bde941461024757806327e235e31461027257806327ff1374146102bc57600080fd5b8063112b3266146101ae57806312b6887c146101d6578063132340aa146101e957806314bee5a514610222578063227a473b1461022a57806323cc9f371461023f575b600080fd5b6101c16101bc3660046111e2565b61044d565b60405190151581526020015b60405180910390f35b6101c16101e43660046111e2565b61060d565b6102146101f736600461120e565b600460209081526000928352604080842090915290825290205481565b6040519081526020016101cd565b600654610214565b61023d610238366004611238565b6107b5565b005b600554610214565b61025a610255366004611238565b610870565b6040516001600160a01b0390911681526020016101cd565b6102a1610280366004611251565b60086020526000908152604090208054600182015460029092015490919083565b604080519384526020840192909252908201526060016101cd565b61021460075481565b61023d6102d3366004611238565b61089a565b61023d6102e6366004611251565b6109e6565b61023d6102f9366004611251565b610b57565b61023d610d57565b61021460055481565b61023d610dd7565b61023d610e0d565b600754610214565b6000546001600160a01b031661025a565b61023d610346366004611238565b610f2c565b610214610359366004611251565b6001600160a01b031660009081526008602052604090206001015490565b61021460065481565b6101c161038e366004611251565b6001600160a01b031660009081526009602052604090205460ff1690565b6101c16103ba366004611251565b60036020526000908152604090205460ff1681565b6101c16103dd366004611251565b6001600160a01b031660009081526003602052604090205460ff1690565b610214610409366004611251565b6001600160a01b031660009081526008602052604090206002015490565b61023d610435366004611251565b6110bf565b60015461025a906001600160a01b031681565b3360009081526009602052604081205460ff166104855760405162461bcd60e51b815260040161047c9061126c565b60405180910390fd5b6001600160a01b03821660009081526003602052604090205460ff166104bd5760405162461bcd60e51b815260040161047c906112b6565b6001600160a01b0382166000908152600860205260409020600201548311156105425760405162461bcd60e51b815260206004820152603160248201527f5f7374616b65686f6c6465722068617320746f206861766520656e6f75676820604482015270616c6c6f63617465642062616c616e636560781b606482015260840161047c565b6001600160a01b0382166000908152600860205260409020600201546105689084611157565b6001600160a01b0383166000908152600860205260409020600281019190915560010154610596908461116a565b6001600160a01b03831660009081526008602090815260408083206001019390935560048152828220338352905220546105d09084611157565b6001600160a01b03831660009081526004602090815260408083203384529091529020556006546106019084611157565b60065550600192915050565b3360009081526009602052604081205460ff1661063c5760405162461bcd60e51b815260040161047c9061126c565b6001600160a01b03821660009081526003602052604090205460ff166106745760405162461bcd60e51b815260040161047c906112b6565b6001600160a01b0382166000908152600860205260409020600101548311156106f65760405162461bcd60e51b815260206004820152602e60248201527f5f7374616b65686f6c6465722068617320746f206861766520656e6f7567682060448201526d7374616b65642062616c616e636560901b606482015260840161047c565b6001600160a01b03821660009081526008602052604090206001015461071c9084611157565b6001600160a01b038316600090815260086020526040902060018101919091556002015461074a908461116a565b6001600160a01b0383166000908152600860209081526040808320600201939093556004815282822033835290522054610784908461116a565b6001600160a01b0383166000908152600460209081526040808320338452909152902055600654610601908461116a565b336000908152600860205260409020548111156107d157600080fd5b3360009081526008602052604090206001015461081057610810336001600160a01b03166000908152600360205260409020805460ff19166001179055565b3360009081526008602052604090205461082a9082611157565b3360009081526008602052604090209081556001015461084a908261116a565b3360009081526008602052604090206001015560055461086a908261116a565b60055550565b600a818154811061088057600080fd5b6000918252602090912001546001600160a01b0316905081565b3360009081526008602052604090205481111561091f5760405162461bcd60e51b815260206004820152603860248201527f6e6f7420656e6f75676820746f6b656e7320696e20746865206672656520737460448201527f616b65642062616c616e636520746f2077697468647261770000000000000000606482015260840161047c565b60015460405163a9059cbb60e01b8152336004820152602481018390526001600160a01b039091169063a9059cbb90604401602060405180830381600087803b15801561096b57600080fd5b505af115801561097f573d6000803e3d6000fd5b505050506040513d601f19601f820116820180604052508101906109a391906112fb565b6109bf5760405162461bcd60e51b815260040161047c9061131d565b33600090815260086020526040812080548392906109de908490611362565b909155505050565b6000546001600160a01b03163314610a105760405162461bcd60e51b815260040161047c90611379565b6001600160a01b03811660009081526009602052604090205460ff16151560011415610a8e5760405162461bcd60e51b815260206004820152602760248201527f41646472657373206d757374206e6f742062652077686974656c697374656420604482015266616c726561647960c81b606482015260840161047c565b6001600160a01b0381166000818152600960205260408120805460ff19166001908117909155600a80548083018255928190527fc65a7bb8d6351c1cf70c95a316cc6a92839c986682d98bc35f958f4883f9d2a890920180546001600160a01b03191690931790925554610b029190611362565b6001600160a01b0382166000818152600b602090815260409182902093909355516001815290917f34e57d3e15d2174a31aed19b5a635aad3c7fd6d6ff6b19d43f56819654e990fd910160405180910390a250565b6000546001600160a01b03163314610b815760405162461bcd60e51b815260040161047c90611379565b6001600160a01b03811660009081526009602052604090205460ff16610bf55760405162461bcd60e51b815260206004820152602360248201527f41646472657373206d7573742062652077686974656c697374656420616c726560448201526261647960e81b606482015260840161047c565b6001600160a01b0381166000908152600960209081526040808320805460ff19169055600b90915290208054633b9ac9ff909155600a8054610c3990600190611362565b81548110610c4957610c496113ae565b600091825260209091200154600a80546001600160a01b039092169183908110610c7557610c756113ae565b9060005260206000200160006101000a8154816001600160a01b0302191690836001600160a01b0316021790555080600b6000600a8481548110610cbb57610cbb6113ae565b60009182526020808320909101546001600160a01b03168352820192909252604001902055600a805480610cf157610cf16113c4565b60008281526020808220830160001990810180546001600160a01b03191690559092019092556040519182526001600160a01b038416917fc87598b69899c8b872e8b5e416808d7332fe62ed4f035f7e72ae6f646e12f73f910160405180910390a25050565b33600090815260086020526040902060018101549054610d77908261116a565b33600090815260086020526040902090815560010154610d979082611157565b33600090815260086020526040902060010155600554610db79082611157565b600555336000908152600360205260409020805460ff1916905550565b50565b6000546001600160a01b03163314610e015760405162461bcd60e51b815260040161047c90611379565b610e0b6000611176565b565b33600090815260086020526040902054610e695760405162461bcd60e51b815260206004820152601d60248201527f6e6f7420656e6f75676820746f6b656e7320746f207769746864726177000000604482015260640161047c565b600154336000818152600860205260409081902054905163a9059cbb60e01b8152600481019290925260248201526001600160a01b039091169063a9059cbb90604401602060405180830381600087803b158015610ec657600080fd5b505af1158015610eda573d6000803e3d6000fd5b505050506040513d601f19601f82011682018060405250810190610efe91906112fb565b610f1a5760405162461bcd60e51b815260040161047c9061131d565b33600090815260086020526040812055565b6001546040516370a0823160e01b815233600482015282916001600160a01b0316906370a082319060240160206040518083038186803b158015610f6f57600080fd5b505afa158015610f83573d6000803e3d6000fd5b505050506040513d601f19601f82011682018060405250810190610fa791906113da565b1015610ff55760405162461bcd60e51b815260206004820152601c60248201527f6e6f7420656e6f75676820746f6b656e7320746f206465706f73697400000000604482015260640161047c565b33600090815260086020526040812080548392906110149084906113f3565b90915550506001546040516323b872dd60e01b8152336004820152306024820152604481018390526001600160a01b03909116906323b872dd90606401602060405180830381600087803b15801561106b57600080fd5b505af115801561107f573d6000803e3d6000fd5b505050506040513d601f19601f820116820180604052508101906110a391906112fb565b610dd45760405162461bcd60e51b815260040161047c9061131d565b6000546001600160a01b031633146110e95760405162461bcd60e51b815260040161047c90611379565b6001600160a01b03811661114e5760405162461bcd60e51b815260206004820152602660248201527f4f776e61626c653a206e6577206f776e657220697320746865207a65726f206160448201526564647265737360d01b606482015260840161047c565b610dd481611176565b60006111638284611362565b9392505050565b600061116382846113f3565b600080546001600160a01b038381166001600160a01b0319831681178455604051919092169283917f8be0079c531659141344cd1fd0a4f28419497f9722a3daafe3b4186f6b6457e09190a35050565b80356001600160a01b03811681146111dd57600080fd5b919050565b600080604083850312156111f557600080fd5b82359150611205602084016111c6565b90509250929050565b6000806040838503121561122157600080fd5b61122a836111c6565b9150611205602084016111c6565b60006020828403121561124a57600080fd5b5035919050565b60006020828403121561126357600080fd5b611163826111c6565b6020808252602a908201527f69735374616b6557686974656c6973746564206d7573742062652074727565206040820152693337b91029b2b73232b960b11b606082015260800190565b60208082526025908201527f69735374616b65686f6c646572206d757374206265207472756520666f72205360408201526432b73232b960d91b606082015260800190565b60006020828403121561130d57600080fd5b8151801515811461116357600080fd5b602080825260159082015274151bdad95b881d1c985b9cd9995c8819985a5b1959605a1b604082015260600190565b634e487b7160e01b600052601160045260246000fd5b6000828210156113745761137461134c565b500390565b6020808252818101527f4f776e61626c653a2063616c6c6572206973206e6f7420746865206f776e6572604082015260600190565b634e487b7160e01b600052603260045260246000fd5b634e487b7160e01b600052603160045260246000fd5b6000602082840312156113ec57600080fd5b5051919050565b600082198211156114065761140661134c565b50019056fea264697066735822122061a070aca76d8c88de949a63dd828d242ea03feae5cef5b4d3a22308fa09bf7064736f6c63430008080033",
  "linkReferences": {},
  "deployedLinkReferences": {}
}