{
  "_format": "hh-sol-artifact-1",
  "contractName": "DataSpotting",
  "sourceName": "contracts/worksystems/DataSpotting.sol",
  "abi": [
    {
      "inputs": [
        {
          "internalType": "address",
          "name": "EXDT_token_",
          "type": "address"
        }
      ],
      "stateMutability": "nonpayable",
      "type": "constructor"
    },
    {
      "anonymous": false,
      "inputs": [
        {
          "indexed": false,
          "internalType": "bytes",
          "name": "bytesFailure",
          "type": "bytes"
        }
      ],
      "name": "BytesFailure",
      "type": "event"
    },
    {
      "anonymous": false,
      "inputs": [
        {
          "indexed": true,
          "internalType": "address",
          "name": "previousOwner",
          "type": "address"
        },
        {
          "indexed": true,
          "internalType": "address",
          "name": "newOwner",
          "type": "address"
        }
      ],
      "name": "OwnershipTransferred",
      "type": "event"
    },
    {
      "anonymous": false,
      "inputs": [
        {
          "indexed": false,
          "internalType": "address",
          "name": "parameters",
          "type": "address"
        }
      ],
      "name": "ParametersUpdated",
      "type": "event"
    },
    {
      "anonymous": false,
      "inputs": [
        {
          "indexed": true,
          "internalType": "uint256",
          "name": "DataID",
          "type": "uint256"
        },
        {
          "indexed": false,
          "internalType": "string",
          "name": "file_hash",
          "type": "string"
        },
        {
          "indexed": false,
          "internalType": "bool",
          "name": "isVotePassed",
          "type": "bool"
        }
      ],
      "name": "_BatchValidated",
      "type": "event"
    },
    {
      "anonymous": false,
      "inputs": [
        {
          "indexed": true,
          "internalType": "uint256",
          "name": "batchID",
          "type": "uint256"
        }
      ],
      "name": "_DataBatchDeleted",
      "type": "event"
    },
    {
      "anonymous": false,
      "inputs": [
        {
          "indexed": true,
          "internalType": "uint256",
          "name": "DataID",
          "type": "uint256"
        },
        {
          "indexed": false,
          "internalType": "uint256",
          "name": "numTokens",
          "type": "uint256"
        },
        {
          "indexed": true,
          "internalType": "address",
          "name": "voter",
          "type": "address"
        }
      ],
      "name": "_SpotCheckCommitted",
      "type": "event"
    },
    {
      "anonymous": false,
      "inputs": [
        {
          "indexed": true,
          "internalType": "uint256",
          "name": "DataID",
          "type": "uint256"
        },
        {
          "indexed": false,
          "internalType": "uint256",
          "name": "votesFor",
          "type": "uint256"
        },
        {
          "indexed": false,
          "internalType": "uint256",
          "name": "votesAgainst",
          "type": "uint256"
        },
        {
          "indexed": true,
          "internalType": "uint256",
          "name": "choice",
          "type": "uint256"
        },
        {
          "indexed": true,
          "internalType": "address",
          "name": "voter",
          "type": "address"
        }
      ],
      "name": "_SpotCheckRevealed",
      "type": "event"
    },
    {
      "anonymous": false,
      "inputs": [
        {
          "indexed": true,
          "internalType": "uint256",
          "name": "DataID",
          "type": "uint256"
        },
        {
          "indexed": false,
          "internalType": "string",
          "name": "file_hash",
          "type": "string"
        },
        {
          "indexed": false,
          "internalType": "string",
          "name": "URL_domain",
          "type": "string"
        },
        {
          "indexed": true,
          "internalType": "address",
          "name": "sender",
          "type": "address"
        }
      ],
      "name": "_SpotSubmitted",
      "type": "event"
    },
    {
      "anonymous": false,
      "inputs": [
        {
          "indexed": false,
          "internalType": "uint256",
          "name": "numTokens",
          "type": "uint256"
        },
        {
          "indexed": true,
          "internalType": "address",
          "name": "voter",
          "type": "address"
        }
      ],
      "name": "_StakeAllocated",
      "type": "event"
    },
    {
      "anonymous": false,
      "inputs": [
        {
          "indexed": true,
          "internalType": "uint256",
          "name": "DataID",
          "type": "uint256"
        },
        {
          "indexed": true,
          "internalType": "address",
          "name": "voter",
          "type": "address"
        }
      ],
      "name": "_TokensRescued",
      "type": "event"
    },
    {
      "anonymous": false,
      "inputs": [
        {
          "indexed": false,
          "internalType": "uint256",
          "name": "numTokens",
          "type": "uint256"
        },
        {
          "indexed": true,
          "internalType": "address",
          "name": "voter",
          "type": "address"
        }
      ],
      "name": "_VotingRightsWithdrawn",
      "type": "event"
    },
    {
      "anonymous": false,
      "inputs": [
        {
          "indexed": true,
          "internalType": "uint256",
          "name": "batchID",
          "type": "uint256"
        },
        {
          "indexed": false,
          "internalType": "address",
          "name": "worker",
          "type": "address"
        }
      ],
      "name": "_WorkAllocated",
      "type": "event"
    },
    {
      "anonymous": false,
      "inputs": [
        {
          "indexed": true,
          "internalType": "address",
          "name": "worker",
          "type": "address"
        },
        {
          "indexed": false,
          "internalType": "uint256",
          "name": "timestamp",
          "type": "uint256"
        }
      ],
      "name": "_WorkerRegistered",
      "type": "event"
    },
    {
      "anonymous": false,
      "inputs": [
        {
          "indexed": true,
          "internalType": "address",
          "name": "worker",
          "type": "address"
        },
        {
          "indexed": false,
          "internalType": "uint256",
          "name": "timestamp",
          "type": "uint256"
        }
      ],
      "name": "_WorkerUnregistered",
      "type": "event"
    },
    {
      "inputs": [],
      "name": "AcceptedBatchsCounter",
      "outputs": [
        {
          "internalType": "uint256",
          "name": "",
          "type": "uint256"
        }
      ],
      "stateMutability": "view",
      "type": "function"
    },
    {
      "inputs": [],
      "name": "AllItemCounter",
      "outputs": [
        {
          "internalType": "uint256",
          "name": "",
          "type": "uint256"
        }
      ],
      "stateMutability": "view",
      "type": "function"
    },
    {
      "inputs": [],
      "name": "AllTxsCounter",
      "outputs": [
        {
          "internalType": "uint256",
          "name": "",
          "type": "uint256"
        }
      ],
      "stateMutability": "view",
      "type": "function"
    },
    {
      "inputs": [
        {
          "internalType": "uint256",
          "name": "",
          "type": "uint256"
        }
      ],
      "name": "AllWorkersList",
      "outputs": [
        {
          "internalType": "address",
          "name": "",
          "type": "address"
        }
      ],
      "stateMutability": "view",
      "type": "function"
    },
    {
      "inputs": [],
      "name": "AllocatedBatchCursor",
      "outputs": [
        {
          "internalType": "uint256",
          "name": "",
          "type": "uint256"
        }
      ],
      "stateMutability": "view",
      "type": "function"
    },
    {
      "inputs": [],
      "name": "AmIKicked",
      "outputs": [
        {
          "internalType": "bool",
          "name": "status",
          "type": "bool"
        }
      ],
      "stateMutability": "view",
      "type": "function"
    },
    {
      "inputs": [],
      "name": "AmIRegistered",
      "outputs": [
        {
          "internalType": "bool",
          "name": "passed",
          "type": "bool"
        }
      ],
      "stateMutability": "view",
      "type": "function"
    },
    {
      "inputs": [
        {
          "internalType": "string",
          "name": "_a",
          "type": "string"
        },
        {
          "internalType": "string",
          "name": "_b",
          "type": "string"
        }
      ],
      "name": "AreStringsEqual",
      "outputs": [
        {
          "internalType": "bool",
          "name": "",
          "type": "bool"
        }
      ],
      "stateMutability": "pure",
      "type": "function"
    },
    {
      "inputs": [],
      "name": "BatchCheckingCursor",
      "outputs": [
        {
          "internalType": "uint256",
          "name": "",
          "type": "uint256"
        }
      ],
      "stateMutability": "view",
      "type": "function"
    },
    {
      "inputs": [
        {
          "internalType": "uint256",
          "name": "",
          "type": "uint256"
        }
      ],
      "name": "BatchCommitedVoteCount",
      "outputs": [
        {
          "internalType": "uint256",
          "name": "",
          "type": "uint256"
        }
      ],
      "stateMutability": "view",
      "type": "function"
    },
    {
      "inputs": [],
      "name": "BatchDeletionCursor",
      "outputs": [
        {
          "internalType": "uint256",
          "name": "",
          "type": "uint256"
        }
      ],
      "stateMutability": "view",
      "type": "function"
    },
    {
      "inputs": [
        {
          "internalType": "uint256",
          "name": "",
          "type": "uint256"
        }
      ],
      "name": "BatchRevealedVoteCount",
      "outputs": [
        {
          "internalType": "uint256",
          "name": "",
          "type": "uint256"
        }
      ],
      "stateMutability": "view",
      "type": "function"
    },
    {
      "inputs": [
        {
          "internalType": "uint256",
          "name": "",
          "type": "uint256"
        }
      ],
      "name": "DataBatch",
      "outputs": [
        {
          "internalType": "uint256",
          "name": "start_idx",
          "type": "uint256"
        },
        {
          "internalType": "uint256",
          "name": "counter",
          "type": "uint256"
        },
        {
          "internalType": "uint256",
          "name": "uncommited_workers",
          "type": "uint256"
        },
        {
          "internalType": "uint256",
          "name": "unrevealed_workers",
          "type": "uint256"
        },
        {
          "internalType": "bool",
          "name": "complete",
          "type": "bool"
        },
        {
          "internalType": "bool",
          "name": "checked",
          "type": "bool"
        },
        {
          "internalType": "bool",
          "name": "allocated_to_work",
          "type": "bool"
        },
        {
          "internalType": "uint256",
          "name": "commitEndDate",
          "type": "uint256"
        },
        {
          "internalType": "uint256",
          "name": "revealEndDate",
          "type": "uint256"
        },
        {
          "internalType": "uint256",
          "name": "votesFor",
          "type": "uint256"
        },
        {
          "internalType": "uint256",
          "name": "votesAgainst",
          "type": "uint256"
        },
        {
          "internalType": "string",
          "name": "batchIPFSfile",
          "type": "string"
        },
        {
          "internalType": "uint256",
          "name": "item_count",
          "type": "uint256"
        },
        {
          "internalType": "enum DataSpotting.DataStatus",
          "name": "status",
          "type": "uint8"
        }
      ],
      "stateMutability": "view",
      "type": "function"
    },
    {
      "inputs": [
        {
          "internalType": "uint256",
          "name": "_DataBatchId",
          "type": "uint256"
        }
      ],
      "name": "DataCommitEndDate",
      "outputs": [
        {
          "internalType": "uint256",
          "name": "commitEndDate",
          "type": "uint256"
        }
      ],
      "stateMutability": "view",
      "type": "function"
    },
    {
      "inputs": [
        {
          "internalType": "uint256",
          "name": "_DataBatchId",
          "type": "uint256"
        }
      ],
      "name": "DataEnded",
      "outputs": [
        {
          "internalType": "bool",
          "name": "ended",
          "type": "bool"
        }
      ],
      "stateMutability": "view",
      "type": "function"
    },
    {
      "inputs": [
        {
          "internalType": "uint256",
          "name": "_DataBatchId",
          "type": "uint256"
        }
      ],
      "name": "DataExists",
      "outputs": [
        {
          "internalType": "bool",
          "name": "exists",
          "type": "bool"
        }
      ],
      "stateMutability": "view",
      "type": "function"
    },
    {
      "inputs": [],
      "name": "DataNonce",
      "outputs": [
        {
          "internalType": "uint256",
          "name": "",
          "type": "uint256"
        }
      ],
      "stateMutability": "view",
      "type": "function"
    },
    {
      "inputs": [
        {
          "internalType": "uint256",
          "name": "_DataBatchId",
          "type": "uint256"
        }
      ],
      "name": "DataRevealEndDate",
      "outputs": [
        {
          "internalType": "uint256",
          "name": "revealEndDate",
          "type": "uint256"
        }
      ],
      "stateMutability": "view",
      "type": "function"
    },
    {
      "inputs": [],
      "name": "FORCE_VALIDATE_BATCH_FILE",
      "outputs": [
        {
          "internalType": "bool",
          "name": "",
          "type": "bool"
        }
      ],
      "stateMutability": "view",
      "type": "function"
    },
    {
      "inputs": [],
      "name": "GAS_LEFT_LIMIT",
      "outputs": [
        {
          "internalType": "uint256",
          "name": "",
          "type": "uint256"
        }
      ],
      "stateMutability": "view",
      "type": "function"
    },
    {
      "inputs": [
        {
          "internalType": "address",
          "name": "user_",
          "type": "address"
        }
      ],
      "name": "GetCurrentWork",
      "outputs": [
        {
          "internalType": "uint256",
          "name": "",
          "type": "uint256"
        }
      ],
      "stateMutability": "view",
      "type": "function"
    },
    {
      "inputs": [
        {
          "internalType": "uint256",
          "name": "",
          "type": "uint256"
        }
      ],
      "name": "GlobalSpotFlowManager",
      "outputs": [
        {
          "internalType": "uint256",
          "name": "timestamp",
          "type": "uint256"
        },
        {
          "internalType": "uint256",
          "name": "counter",
          "type": "uint256"
        }
      ],
      "stateMutability": "view",
      "type": "function"
    },
    {
      "inputs": [],
      "name": "InstantRevealRewards",
      "outputs": [
        {
          "internalType": "bool",
          "name": "",
          "type": "bool"
        }
      ],
      "stateMutability": "view",
      "type": "function"
    },
    {
      "inputs": [],
      "name": "InstantRevealRewardsDivider",
      "outputs": [
        {
          "internalType": "uint256",
          "name": "",
          "type": "uint256"
        }
      ],
      "stateMutability": "view",
      "type": "function"
    },
    {
      "inputs": [],
      "name": "InstantSpotRewards",
      "outputs": [
        {
          "internalType": "bool",
          "name": "",
          "type": "bool"
        }
      ],
      "stateMutability": "view",
      "type": "function"
    },
    {
      "inputs": [],
      "name": "InstantSpotRewardsDivider",
      "outputs": [
        {
          "internalType": "uint256",
          "name": "",
          "type": "uint256"
        }
      ],
      "stateMutability": "view",
      "type": "function"
    },
    {
      "inputs": [
        {
          "internalType": "address",
          "name": "user_",
          "type": "address"
        }
      ],
      "name": "IsAddressKicked",
      "outputs": [
        {
          "internalType": "bool",
          "name": "status",
          "type": "bool"
        }
      ],
      "stateMutability": "view",
      "type": "function"
    },
    {
      "inputs": [
        {
          "internalType": "address",
          "name": "_worker",
          "type": "address"
        }
      ],
      "name": "IsInLogoffList",
      "outputs": [
        {
          "internalType": "bool",
          "name": "",
          "type": "bool"
        }
      ],
      "stateMutability": "view",
      "type": "function"
    },
    {
      "inputs": [
        {
          "internalType": "address",
          "name": "user_",
          "type": "address"
        }
      ],
      "name": "IsNewWorkAvailable",
      "outputs": [
        {
          "internalType": "bool",
          "name": "",
          "type": "bool"
        }
      ],
      "stateMutability": "view",
      "type": "function"
    },
    {
      "inputs": [
        {
          "internalType": "address",
          "name": "",
          "type": "address"
        }
      ],
      "name": "IsWorkerSeen",
      "outputs": [
        {
          "internalType": "bool",
          "name": "",
          "type": "bool"
        }
      ],
      "stateMutability": "view",
      "type": "function"
    },
    {
      "inputs": [
        {
          "internalType": "uint256",
          "name": "",
          "type": "uint256"
        }
      ],
      "name": "ItemFlowManager",
      "outputs": [
        {
          "internalType": "uint256",
          "name": "timestamp",
          "type": "uint256"
        },
        {
          "internalType": "uint256",
          "name": "counter",
          "type": "uint256"
        }
      ],
      "stateMutability": "view",
      "type": "function"
    },
    {
      "inputs": [],
      "name": "LastAllocationTime",
      "outputs": [
        {
          "internalType": "uint256",
          "name": "",
          "type": "uint256"
        }
      ],
      "stateMutability": "view",
      "type": "function"
    },
    {
      "inputs": [],
      "name": "LastBatchCounter",
      "outputs": [
        {
          "internalType": "uint256",
          "name": "",
          "type": "uint256"
        }
      ],
      "stateMutability": "view",
      "type": "function"
    },
    {
      "inputs": [],
      "name": "LastRandomSeed",
      "outputs": [
        {
          "internalType": "uint256",
          "name": "",
          "type": "uint256"
        }
      ],
      "stateMutability": "view",
      "type": "function"
    },
    {
      "inputs": [],
      "name": "MaxPendingDataBatchCount",
      "outputs": [
        {
          "internalType": "uint256",
          "name": "",
          "type": "uint256"
        }
      ],
      "stateMutability": "view",
      "type": "function"
    },
    {
      "inputs": [],
      "name": "NotCommitedCounter",
      "outputs": [
        {
          "internalType": "uint256",
          "name": "",
          "type": "uint256"
        }
      ],
      "stateMutability": "view",
      "type": "function"
    },
    {
      "inputs": [],
      "name": "NotRevealedCounter",
      "outputs": [
        {
          "internalType": "uint256",
          "name": "",
          "type": "uint256"
        }
      ],
      "stateMutability": "view",
      "type": "function"
    },
    {
      "inputs": [],
      "name": "Parameters",
      "outputs": [
        {
          "internalType": "contract IParametersManager",
          "name": "",
          "type": "address"
        }
      ],
      "stateMutability": "view",
      "type": "function"
    },
    {
      "inputs": [],
      "name": "RegisterWorker",
      "outputs": [],
      "stateMutability": "nonpayable",
      "type": "function"
    },
    {
      "inputs": [],
      "name": "RejectedBatchsCounter",
      "outputs": [
        {
          "internalType": "uint256",
          "name": "",
          "type": "uint256"
        }
      ],
      "stateMutability": "view",
      "type": "function"
    },
    {
      "inputs": [],
      "name": "SPOT_FILE_SIZE",
      "outputs": [
        {
          "internalType": "uint256",
          "name": "",
          "type": "uint256"
        }
      ],
      "stateMutability": "view",
      "type": "function"
    },
    {
      "inputs": [],
      "name": "STAKING_REQUIREMENT_TOGGLE_ENABLED",
      "outputs": [
        {
          "internalType": "bool",
          "name": "",
          "type": "bool"
        }
      ],
      "stateMutability": "view",
      "type": "function"
    },
    {
      "inputs": [],
      "name": "STRICT_RANDOMNESS_REQUIREMENT",
      "outputs": [
        {
          "internalType": "bool",
          "name": "",
          "type": "bool"
        }
      ],
      "stateMutability": "view",
      "type": "function"
    },
    {
      "inputs": [
        {
          "internalType": "address",
          "name": "_worker",
          "type": "address"
        },
        {
          "internalType": "uint256",
          "name": "_TokensAmountToAllocate",
          "type": "uint256"
        }
      ],
      "name": "SelectAddressForUser",
      "outputs": [
        {
          "internalType": "address",
          "name": "",
          "type": "address"
        }
      ],
      "stateMutability": "view",
      "type": "function"
    },
    {
      "inputs": [
        {
          "internalType": "string[]",
          "name": "file_hashs_",
          "type": "string[]"
        },
        {
          "internalType": "string[]",
          "name": "URL_domains_",
          "type": "string[]"
        },
        {
          "internalType": "uint256[]",
          "name": "item_counts_",
          "type": "uint256[]"
        },
        {
          "internalType": "string",
          "name": "extra_",
          "type": "string"
        }
      ],
      "name": "SpotData",
      "outputs": [
        {
          "internalType": "uint256",
          "name": "Dataid_",
          "type": "uint256"
        }
      ],
      "stateMutability": "nonpayable",
      "type": "function"
    },
    {
      "inputs": [
        {
          "internalType": "uint256",
          "name": "",
          "type": "uint256"
        }
      ],
      "name": "SpotsMapping",
      "outputs": [
        {
          "internalType": "string",
          "name": "ipfs_hash",
          "type": "string"
        },
        {
          "internalType": "address",
          "name": "author",
          "type": "address"
        },
        {
          "internalType": "uint256",
          "name": "timestamp",
          "type": "uint256"
        },
        {
          "internalType": "uint256",
          "name": "item_count",
          "type": "uint256"
        },
        {
          "internalType": "string",
          "name": "URL_domain",
          "type": "string"
        },
        {
          "internalType": "string",
          "name": "extra",
          "type": "string"
        },
        {
          "internalType": "enum DataSpotting.DataStatus",
          "name": "status",
          "type": "uint8"
        }
      ],
      "stateMutability": "view",
      "type": "function"
    },
    {
      "inputs": [
        {
          "internalType": "address",
          "name": "",
          "type": "address"
        }
      ],
      "name": "SystemStakedTokenBalance",
      "outputs": [
        {
          "internalType": "uint256",
          "name": "",
          "type": "uint256"
        }
      ],
      "stateMutability": "view",
      "type": "function"
    },
    {
      "inputs": [],
      "name": "TRIGGER_WITH_SPOTDATA_TOGGLE_ENABLED",
      "outputs": [
        {
          "internalType": "bool",
          "name": "",
          "type": "bool"
        }
      ],
      "stateMutability": "view",
      "type": "function"
    },
    {
      "inputs": [
        {
          "internalType": "uint256",
          "name": "iteration_count",
          "type": "uint256"
        }
      ],
      "name": "TriggerAllocations",
      "outputs": [],
      "stateMutability": "nonpayable",
      "type": "function"
    },
    {
      "inputs": [
        {
          "internalType": "uint256",
          "name": "iteration_count",
          "type": "uint256"
        }
      ],
      "name": "TriggerUpdate",
      "outputs": [],
      "stateMutability": "nonpayable",
      "type": "function"
    },
    {
      "inputs": [
        {
          "internalType": "uint256",
          "name": "iteration_count",
          "type": "uint256"
        }
      ],
      "name": "TriggerValidation",
      "outputs": [],
      "stateMutability": "nonpayable",
      "type": "function"
    },
    {
      "inputs": [],
      "name": "UnregisterWorker",
      "outputs": [],
      "stateMutability": "nonpayable",
      "type": "function"
    },
    {
      "inputs": [
        {
          "internalType": "uint256",
          "name": "",
          "type": "uint256"
        },
        {
          "internalType": "address",
          "name": "",
          "type": "address"
        }
      ],
      "name": "UserBatchCounts",
      "outputs": [
        {
          "internalType": "uint256",
          "name": "",
          "type": "uint256"
        }
      ],
      "stateMutability": "view",
      "type": "function"
    },
    {
      "inputs": [
        {
          "internalType": "uint256",
          "name": "",
          "type": "uint256"
        },
        {
          "internalType": "address",
          "name": "",
          "type": "address"
        }
      ],
      "name": "UserBatchFrom",
      "outputs": [
        {
          "internalType": "string",
          "name": "",
          "type": "string"
        }
      ],
      "stateMutability": "view",
      "type": "function"
    },
    {
      "inputs": [
        {
          "internalType": "address",
          "name": "",
          "type": "address"
        },
        {
          "internalType": "uint256",
          "name": "",
          "type": "uint256"
        }
      ],
      "name": "UserChecksCommits",
      "outputs": [
        {
          "internalType": "bool",
          "name": "",
          "type": "bool"
        }
      ],
      "stateMutability": "view",
      "type": "function"
    },
    {
      "inputs": [
        {
          "internalType": "address",
          "name": "",
          "type": "address"
        },
        {
          "internalType": "uint256",
          "name": "",
          "type": "uint256"
        }
      ],
      "name": "UserChecksReveals",
      "outputs": [
        {
          "internalType": "bool",
          "name": "",
          "type": "bool"
        }
      ],
      "stateMutability": "view",
      "type": "function"
    },
    {
      "inputs": [
        {
          "internalType": "uint256",
          "name": "",
          "type": "uint256"
        },
        {
          "internalType": "address",
          "name": "",
          "type": "address"
        }
      ],
      "name": "UserNewFiles",
      "outputs": [
        {
          "internalType": "string",
          "name": "",
          "type": "string"
        }
      ],
      "stateMutability": "view",
      "type": "function"
    },
    {
      "inputs": [
        {
          "internalType": "address",
          "name": "",
          "type": "address"
        },
        {
          "internalType": "uint256",
          "name": "",
          "type": "uint256"
        }
      ],
      "name": "UserSubmissions",
      "outputs": [
        {
          "internalType": "uint256",
          "name": "",
          "type": "uint256"
        }
      ],
      "stateMutability": "view",
      "type": "function"
    },
    {
      "inputs": [
        {
          "internalType": "uint256",
          "name": "",
          "type": "uint256"
        },
        {
          "internalType": "address",
          "name": "",
          "type": "address"
        }
      ],
      "name": "UserVotes",
      "outputs": [
        {
          "internalType": "uint256",
          "name": "",
          "type": "uint256"
        }
      ],
      "stateMutability": "view",
      "type": "function"
    },
    {
      "inputs": [],
      "name": "VALIDATE_ON_LAST_REVEAL",
      "outputs": [
        {
          "internalType": "bool",
          "name": "",
          "type": "bool"
        }
      ],
      "stateMutability": "view",
      "type": "function"
    },
    {
      "inputs": [
        {
          "internalType": "uint256",
          "name": "",
          "type": "uint256"
        },
        {
          "internalType": "uint256",
          "name": "",
          "type": "uint256"
        }
      ],
      "name": "WorkersPerBatch",
      "outputs": [
        {
          "internalType": "address",
          "name": "",
          "type": "address"
        }
      ],
      "stateMutability": "view",
      "type": "function"
    },
    {
      "inputs": [
        {
          "internalType": "address",
          "name": "",
          "type": "address"
        },
        {
          "internalType": "uint256",
          "name": "",
          "type": "uint256"
        }
      ],
      "name": "WorkersSpotFlowManager",
      "outputs": [
        {
          "internalType": "uint256",
          "name": "timestamp",
          "type": "uint256"
        },
        {
          "internalType": "uint256",
          "name": "counter",
          "type": "uint256"
        }
      ],
      "stateMutability": "view",
      "type": "function"
    },
    {
      "inputs": [
        {
          "internalType": "address",
          "name": "",
          "type": "address"
        }
      ],
      "name": "WorkersState",
      "outputs": [
        {
          "internalType": "uint256",
          "name": "allocated_work_batch",
          "type": "uint256"
        },
        {
          "internalType": "uint256",
          "name": "succeeding_novote_count",
          "type": "uint256"
        },
        {
          "internalType": "uint256",
          "name": "last_interaction_date",
          "type": "uint256"
        },
        {
          "internalType": "bool",
          "name": "registered",
          "type": "bool"
        },
        {
          "internalType": "bool",
          "name": "unregistration_request",
          "type": "bool"
        },
        {
          "internalType": "uint256",
          "name": "registration_date",
          "type": "uint256"
        },
        {
          "internalType": "uint256",
          "name": "allocated_batch_counter",
          "type": "uint256"
        },
        {
          "internalType": "uint256",
          "name": "majority_counter",
          "type": "uint256"
        },
        {
          "internalType": "uint256",
          "name": "minority_counter",
          "type": "uint256"
        }
      ],
      "stateMutability": "view",
      "type": "function"
    },
    {
      "inputs": [
        {
          "internalType": "address",
          "name": "user_",
          "type": "address"
        },
        {
          "internalType": "uint256",
          "name": "_DataBatchId",
          "type": "uint256"
        }
      ],
      "name": "attrUUID",
      "outputs": [
        {
          "internalType": "bytes32",
          "name": "UUID",
          "type": "bytes32"
        }
      ],
      "stateMutability": "pure",
      "type": "function"
    },
    {
      "inputs": [
        {
          "internalType": "uint256",
          "name": "",
          "type": "uint256"
        }
      ],
      "name": "availableWorkers",
      "outputs": [
        {
          "internalType": "address",
          "name": "",
          "type": "address"
        }
      ],
      "stateMutability": "view",
      "type": "function"
    },
    {
      "inputs": [
        {
          "internalType": "address",
          "name": "",
          "type": "address"
        }
      ],
      "name": "availableWorkersIndex",
      "outputs": [
        {
          "internalType": "uint256",
          "name": "",
          "type": "uint256"
        }
      ],
      "stateMutability": "view",
      "type": "function"
    },
    {
      "inputs": [
        {
          "internalType": "uint256",
          "name": "",
          "type": "uint256"
        }
      ],
      "name": "busyWorkers",
      "outputs": [
        {
          "internalType": "address",
          "name": "",
          "type": "address"
        }
      ],
      "stateMutability": "view",
      "type": "function"
    },
    {
      "inputs": [
        {
          "internalType": "address",
          "name": "",
          "type": "address"
        }
      ],
      "name": "busyWorkersIndex",
      "outputs": [
        {
          "internalType": "uint256",
          "name": "",
          "type": "uint256"
        }
      ],
      "stateMutability": "view",
      "type": "function"
    },
    {
      "inputs": [
        {
          "internalType": "uint256",
          "name": "_DataBatchId",
          "type": "uint256"
        }
      ],
      "name": "commitPeriodActive",
      "outputs": [
        {
          "internalType": "bool",
          "name": "active",
          "type": "bool"
        }
      ],
      "stateMutability": "view",
      "type": "function"
    },
    {
      "inputs": [
        {
          "internalType": "uint256",
          "name": "_DataBatchId",
          "type": "uint256"
        }
      ],
      "name": "commitPeriodOver",
      "outputs": [
        {
          "internalType": "bool",
          "name": "active",
          "type": "bool"
        }
      ],
      "stateMutability": "view",
      "type": "function"
    },
    {
      "inputs": [
        {
          "internalType": "uint256",
          "name": "_DataBatchId",
          "type": "uint256"
        },
        {
          "internalType": "bytes32",
          "name": "_encryptedHash",
          "type": "bytes32"
        },
        {
          "internalType": "bytes32",
          "name": "_encryptedVote",
          "type": "bytes32"
        },
        {
          "internalType": "uint256",
          "name": "_BatchCount",
          "type": "uint256"
        },
        {
          "internalType": "string",
          "name": "_From",
          "type": "string"
        }
      ],
      "name": "commitSpotCheck",
      "outputs": [],
      "stateMutability": "nonpayable",
      "type": "function"
    },
    {
      "inputs": [],
      "name": "destroyContract",
      "outputs": [],
      "stateMutability": "nonpayable",
      "type": "function"
    },
    {
      "inputs": [
        {
          "internalType": "address",
          "name": "_voter",
          "type": "address"
        },
        {
          "internalType": "uint256",
          "name": "_DataBatchId",
          "type": "uint256"
        }
      ],
      "name": "didCommit",
      "outputs": [
        {
          "internalType": "bool",
          "name": "committed",
          "type": "bool"
        }
      ],
      "stateMutability": "view",
      "type": "function"
    },
    {
      "inputs": [
        {
          "internalType": "address",
          "name": "_voter",
          "type": "address"
        },
        {
          "internalType": "uint256",
          "name": "_DataBatchId",
          "type": "uint256"
        }
      ],
      "name": "didReveal",
      "outputs": [
        {
          "internalType": "bool",
          "name": "revealed",
          "type": "bool"
        }
      ],
      "stateMutability": "view",
      "type": "function"
    },
    {
      "inputs": [
        {
          "internalType": "uint256",
          "name": "_k",
          "type": "uint256"
        },
        {
          "internalType": "uint256",
          "name": "N_range",
          "type": "uint256"
        }
      ],
      "name": "generateIntegers",
      "outputs": [
        {
          "internalType": "uint256[]",
          "name": "",
          "type": "uint256[]"
        }
      ],
      "stateMutability": "view",
      "type": "function"
    },
    {
      "inputs": [],
      "name": "getAcceptedBatchesCount",
      "outputs": [
        {
          "internalType": "uint256",
          "name": "count",
          "type": "uint256"
        }
      ],
      "stateMutability": "view",
      "type": "function"
    },
    {
      "inputs": [],
      "name": "getActiveWorkersCount",
      "outputs": [
        {
          "internalType": "uint256",
          "name": "numWorkers",
          "type": "uint256"
        }
      ],
      "stateMutability": "view",
      "type": "function"
    },
    {
      "inputs": [
        {
          "internalType": "uint256",
          "name": "A_",
          "type": "uint256"
        },
        {
          "internalType": "uint256",
          "name": "B_",
          "type": "uint256"
        }
      ],
      "name": "getAllWorkersBetweenIndex",
      "outputs": [
        {
          "internalType": "address[]",
          "name": "workers",
          "type": "address[]"
        }
      ],
      "stateMutability": "view",
      "type": "function"
    },
    {
      "inputs": [],
      "name": "getAllWorkersLength",
      "outputs": [
        {
          "internalType": "uint256",
          "name": "length",
          "type": "uint256"
        }
      ],
      "stateMutability": "view",
      "type": "function"
    },
    {
      "inputs": [
        {
          "internalType": "bytes32",
          "name": "_UUID",
          "type": "bytes32"
        },
        {
          "internalType": "string",
          "name": "_attrName",
          "type": "string"
        }
      ],
      "name": "getAttribute",
      "outputs": [
        {
          "internalType": "uint256",
          "name": "",
          "type": "uint256"
        }
      ],
      "stateMutability": "view",
      "type": "function"
    },
    {
      "inputs": [],
      "name": "getAvailableWorkersCount",
      "outputs": [
        {
          "internalType": "uint256",
          "name": "numWorkers",
          "type": "uint256"
        }
      ],
      "stateMutability": "view",
      "type": "function"
    },
    {
      "inputs": [
        {
          "internalType": "uint256",
          "name": "_DataBatchId",
          "type": "uint256"
        }
      ],
      "name": "getBatchByID",
      "outputs": [
        {
          "components": [
            {
              "internalType": "uint256",
              "name": "start_idx",
              "type": "uint256"
            },
            {
              "internalType": "uint256",
              "name": "counter",
              "type": "uint256"
            },
            {
              "internalType": "uint256",
              "name": "uncommited_workers",
              "type": "uint256"
            },
            {
              "internalType": "uint256",
              "name": "unrevealed_workers",
              "type": "uint256"
            },
            {
              "internalType": "bool",
              "name": "complete",
              "type": "bool"
            },
            {
              "internalType": "bool",
              "name": "checked",
              "type": "bool"
            },
            {
              "internalType": "bool",
              "name": "allocated_to_work",
              "type": "bool"
            },
            {
              "internalType": "uint256",
              "name": "commitEndDate",
              "type": "uint256"
            },
            {
              "internalType": "uint256",
              "name": "revealEndDate",
              "type": "uint256"
            },
            {
              "internalType": "uint256",
              "name": "votesFor",
              "type": "uint256"
            },
            {
              "internalType": "uint256",
              "name": "votesAgainst",
              "type": "uint256"
            },
            {
              "internalType": "string",
              "name": "batchIPFSfile",
              "type": "string"
            },
            {
              "internalType": "uint256",
              "name": "item_count",
              "type": "uint256"
            },
            {
              "internalType": "enum DataSpotting.DataStatus",
              "name": "status",
              "type": "uint8"
            }
          ],
          "internalType": "struct DataSpotting.BatchMetadata",
          "name": "batch",
          "type": "tuple"
        }
      ],
      "stateMutability": "view",
      "type": "function"
    },
    {
      "inputs": [
        {
          "internalType": "uint256",
          "name": "_DataBatchId_a",
          "type": "uint256"
        },
        {
          "internalType": "uint256",
          "name": "_DataBatchId_b",
          "type": "uint256"
        }
      ],
      "name": "getBatchCountForBatch",
      "outputs": [
        {
          "internalType": "uint256",
          "name": "AverageURLCount",
          "type": "uint256"
        },
        {
          "internalType": "uint256[]",
          "name": "batchCounts",
          "type": "uint256[]"
        }
      ],
      "stateMutability": "view",
      "type": "function"
    },
    {
      "inputs": [
        {
          "internalType": "uint256",
          "name": "_DataBatchId",
          "type": "uint256"
        }
      ],
      "name": "getBatchIPFSFileByID",
      "outputs": [
        {
          "internalType": "string",
          "name": "batch",
          "type": "string"
        }
      ],
      "stateMutability": "view",
      "type": "function"
    },
    {
      "inputs": [
        {
          "internalType": "uint256",
          "name": "_DataBatchId_a",
          "type": "uint256"
        },
        {
          "internalType": "uint256",
          "name": "_DataBatchId_b",
          "type": "uint256"
        }
      ],
      "name": "getBatchsFilesByID",
      "outputs": [
        {
          "internalType": "string[]",
          "name": "",
          "type": "string[]"
        }
      ],
      "stateMutability": "view",
      "type": "function"
    },
    {
      "inputs": [],
      "name": "getBusyWorkersCount",
      "outputs": [
        {
          "internalType": "uint256",
          "name": "numWorkers",
          "type": "uint256"
        }
      ],
      "stateMutability": "view",
      "type": "function"
    },
    {
      "inputs": [
        {
          "internalType": "address",
          "name": "_voter",
          "type": "address"
        },
        {
          "internalType": "uint256",
          "name": "_DataBatchId",
          "type": "uint256"
        }
      ],
      "name": "getCommitIPFSHash",
      "outputs": [
        {
          "internalType": "bytes32",
          "name": "commitHash",
          "type": "bytes32"
        }
      ],
      "stateMutability": "view",
      "type": "function"
    },
    {
      "inputs": [
        {
          "internalType": "address",
          "name": "_voter",
          "type": "address"
        },
        {
          "internalType": "uint256",
          "name": "_DataBatchId",
          "type": "uint256"
        }
      ],
      "name": "getCommitVoteHash",
      "outputs": [
        {
          "internalType": "bytes32",
          "name": "commitHash",
          "type": "bytes32"
        }
      ],
      "stateMutability": "view",
      "type": "function"
    },
    {
      "inputs": [
        {
          "internalType": "uint256",
          "name": "_DataId",
          "type": "uint256"
        }
      ],
      "name": "getDataByID",
      "outputs": [
        {
          "components": [
            {
              "internalType": "string",
              "name": "ipfs_hash",
              "type": "string"
            },
            {
              "internalType": "address",
              "name": "author",
              "type": "address"
            },
            {
              "internalType": "uint256",
              "name": "timestamp",
              "type": "uint256"
            },
            {
              "internalType": "uint256",
              "name": "item_count",
              "type": "uint256"
            },
            {
              "internalType": "string",
              "name": "URL_domain",
              "type": "string"
            },
            {
              "internalType": "string",
              "name": "extra",
              "type": "string"
            },
            {
              "internalType": "enum DataSpotting.DataStatus",
              "name": "status",
              "type": "uint8"
            }
          ],
          "internalType": "struct DataSpotting.SpottedData",
          "name": "data",
          "type": "tuple"
        }
      ],
      "stateMutability": "view",
      "type": "function"
    },
    {
      "inputs": [
        {
          "internalType": "uint256",
          "name": "_DataBatchId",
          "type": "uint256"
        }
      ],
      "name": "getDomainsForBatch",
      "outputs": [
        {
          "internalType": "string[]",
          "name": "",
          "type": "string[]"
        }
      ],
      "stateMutability": "view",
      "type": "function"
    },
    {
      "inputs": [
        {
          "internalType": "uint256",
          "name": "_clearVote",
          "type": "uint256"
        },
        {
          "internalType": "uint256",
          "name": "_salt",
          "type": "uint256"
        }
      ],
      "name": "getEncryptedHash",
      "outputs": [
        {
          "internalType": "bytes32",
          "name": "keccak256hash",
          "type": "bytes32"
        }
      ],
      "stateMutability": "pure",
      "type": "function"
    },
    {
      "inputs": [
        {
          "internalType": "string",
          "name": "_hash",
          "type": "string"
        },
        {
          "internalType": "uint256",
          "name": "_salt",
          "type": "uint256"
        }
      ],
      "name": "getEncryptedStringHash",
      "outputs": [
        {
          "internalType": "bytes32",
          "name": "keccak256hash",
          "type": "bytes32"
        }
      ],
      "stateMutability": "pure",
      "type": "function"
    },
    {
      "inputs": [
        {
          "internalType": "uint256",
          "name": "_DataBatchId",
          "type": "uint256"
        }
      ],
      "name": "getFromsForBatch",
      "outputs": [
        {
          "internalType": "string[]",
          "name": "",
          "type": "string[]"
        }
      ],
      "stateMutability": "view",
      "type": "function"
    },
    {
      "inputs": [],
      "name": "getGlobalPeriodSpotCount",
      "outputs": [
        {
          "internalType": "uint256",
          "name": "",
          "type": "uint256"
        }
      ],
      "stateMutability": "view",
      "type": "function"
    },
    {
      "inputs": [
        {
          "internalType": "uint256",
          "name": "_DataBatchId",
          "type": "uint256"
        }
      ],
      "name": "getIPFShashesForBatch",
      "outputs": [
        {
          "internalType": "string[]",
          "name": "",
          "type": "string[]"
        }
      ],
      "stateMutability": "view",
      "type": "function"
    },
    {
      "inputs": [
        {
          "internalType": "address",
          "name": "_voter",
          "type": "address"
        },
        {
          "internalType": "uint256",
          "name": "_numTokens",
          "type": "uint256"
        },
        {
          "internalType": "uint256",
          "name": "_DataBatchId",
          "type": "uint256"
        }
      ],
      "name": "getInsertPointForNumTokens",
      "outputs": [
        {
          "internalType": "uint256",
          "name": "prevNode",
          "type": "uint256"
        }
      ],
      "stateMutability": "view",
      "type": "function"
    },
    {
      "inputs": [],
      "name": "getItemCounter",
      "outputs": [
        {
          "internalType": "uint256",
          "name": "Counter",
          "type": "uint256"
        }
      ],
      "stateMutability": "view",
      "type": "function"
    },
    {
      "inputs": [],
      "name": "getLastAllocatedBatchId",
      "outputs": [
        {
          "internalType": "uint256",
          "name": "LastAllocatedBatchId",
          "type": "uint256"
        }
      ],
      "stateMutability": "view",
      "type": "function"
    },
    {
      "inputs": [],
      "name": "getLastBatchId",
      "outputs": [
        {
          "internalType": "uint256",
          "name": "LastBatchId",
          "type": "uint256"
        }
      ],
      "stateMutability": "view",
      "type": "function"
    },
    {
      "inputs": [],
      "name": "getLastCheckedBatchId",
      "outputs": [
        {
          "internalType": "uint256",
          "name": "LastCheckedBatchId",
          "type": "uint256"
        }
      ],
      "stateMutability": "view",
      "type": "function"
    },
    {
      "inputs": [],
      "name": "getLastDataId",
      "outputs": [
        {
          "internalType": "uint256",
          "name": "DataId",
          "type": "uint256"
        }
      ],
      "stateMutability": "view",
      "type": "function"
    },
    {
      "inputs": [
        {
          "internalType": "address",
          "name": "_voter",
          "type": "address"
        }
      ],
      "name": "getLastNode",
      "outputs": [
        {
          "internalType": "uint256",
          "name": "DataID",
          "type": "uint256"
        }
      ],
      "stateMutability": "view",
      "type": "function"
    },
    {
      "inputs": [
        {
          "internalType": "address",
          "name": "_voter",
          "type": "address"
        }
      ],
      "name": "getLockedTokens",
      "outputs": [
        {
          "internalType": "uint256",
          "name": "numTokens",
          "type": "uint256"
        }
      ],
      "stateMutability": "view",
      "type": "function"
    },
    {
      "inputs": [
        {
          "internalType": "uint256",
          "name": "_DataBatchId_a",
          "type": "uint256"
        },
        {
          "internalType": "uint256",
          "name": "_DataBatchId_b",
          "type": "uint256"
        }
      ],
      "name": "getMultiBatchIPFShashes",
      "outputs": [
        {
          "internalType": "string[]",
          "name": "",
          "type": "string[]"
        }
      ],
      "stateMutability": "view",
      "type": "function"
    },
    {
      "inputs": [
        {
          "internalType": "address",
          "name": "_voter",
          "type": "address"
        },
        {
          "internalType": "uint256",
          "name": "_DataBatchId",
          "type": "uint256"
        },
        {
          "internalType": "uint256",
          "name": "_salt",
          "type": "uint256"
        }
      ],
      "name": "getNumPassingTokens",
      "outputs": [
        {
          "internalType": "uint256",
          "name": "correctSpotChecks",
          "type": "uint256"
        }
      ],
      "stateMutability": "view",
      "type": "function"
    },
    {
      "inputs": [
        {
          "internalType": "address",
          "name": "_voter",
          "type": "address"
        },
        {
          "internalType": "uint256",
          "name": "_DataBatchId",
          "type": "uint256"
        }
      ],
      "name": "getNumTokens",
      "outputs": [
        {
          "internalType": "uint256",
          "name": "numTokens",
          "type": "uint256"
        }
      ],
      "stateMutability": "view",
      "type": "function"
    },
    {
      "inputs": [],
      "name": "getPeriodItemCount",
      "outputs": [
        {
          "internalType": "uint256",
          "name": "",
          "type": "uint256"
        }
      ],
      "stateMutability": "view",
      "type": "function"
    },
    {
      "inputs": [],
      "name": "getRandom",
      "outputs": [
        {
          "internalType": "uint256",
          "name": "",
          "type": "uint256"
        }
      ],
      "stateMutability": "view",
      "type": "function"
    },
    {
      "inputs": [],
      "name": "getRejectedBatchesCount",
      "outputs": [
        {
          "internalType": "uint256",
          "name": "count",
          "type": "uint256"
        }
      ],
      "stateMutability": "view",
      "type": "function"
    },
    {
      "inputs": [],
      "name": "getSeed",
      "outputs": [
        {
          "internalType": "bytes32",
          "name": "addr",
          "type": "bytes32"
        }
      ],
      "stateMutability": "view",
      "type": "function"
    },
    {
      "inputs": [
        {
          "internalType": "uint256",
          "name": "_DataBatchId",
          "type": "uint256"
        }
      ],
      "name": "getSubmittedFilesForBatch",
      "outputs": [
        {
          "internalType": "string[]",
          "name": "",
          "type": "string[]"
        }
      ],
      "stateMutability": "view",
      "type": "function"
    },
    {
      "inputs": [
        {
          "internalType": "address",
          "name": "user_",
          "type": "address"
        }
      ],
      "name": "getSystemTokenBalance",
      "outputs": [
        {
          "internalType": "uint256",
          "name": "tokens",
          "type": "uint256"
        }
      ],
      "stateMutability": "view",
      "type": "function"
    },
    {
      "inputs": [],
      "name": "getTxCounter",
      "outputs": [
        {
          "internalType": "uint256",
          "name": "Counter",
          "type": "uint256"
        }
      ],
      "stateMutability": "view",
      "type": "function"
    },
    {
      "inputs": [
        {
          "internalType": "address",
          "name": "user",
          "type": "address"
        }
      ],
      "name": "getUserDatas",
      "outputs": [
        {
          "internalType": "uint256[]",
          "name": "user_Datas",
          "type": "uint256[]"
        }
      ],
      "stateMutability": "view",
      "type": "function"
    },
    {
      "inputs": [
        {
          "internalType": "address",
          "name": "user_",
          "type": "address"
        }
      ],
      "name": "getUserPeriodSpotCount",
      "outputs": [
        {
          "internalType": "uint256",
          "name": "",
          "type": "uint256"
        }
      ],
      "stateMutability": "view",
      "type": "function"
    },
    {
      "inputs": [
        {
          "internalType": "uint256",
          "name": "_DataBatchId",
          "type": "uint256"
        }
      ],
      "name": "getVotesForBatch",
      "outputs": [
        {
          "internalType": "uint256[]",
          "name": "",
          "type": "uint256[]"
        }
      ],
      "stateMutability": "view",
      "type": "function"
    },
    {
      "inputs": [
        {
          "internalType": "address",
          "name": "",
          "type": "address"
        }
      ],
      "name": "isAvailableWorker",
      "outputs": [
        {
          "internalType": "bool",
          "name": "",
          "type": "bool"
        }
      ],
      "stateMutability": "view",
      "type": "function"
    },
    {
      "inputs": [
        {
          "internalType": "address",
          "name": "",
          "type": "address"
        }
      ],
      "name": "isBusyWorker",
      "outputs": [
        {
          "internalType": "bool",
          "name": "",
          "type": "bool"
        }
      ],
      "stateMutability": "view",
      "type": "function"
    },
    {
      "inputs": [
        {
          "internalType": "uint256",
          "name": "_terminationDate",
          "type": "uint256"
        }
      ],
      "name": "isExpired",
      "outputs": [
        {
          "internalType": "bool",
          "name": "expired",
          "type": "bool"
        }
      ],
      "stateMutability": "view",
      "type": "function"
    },
    {
      "inputs": [
        {
          "internalType": "address",
          "name": "_worker",
          "type": "address"
        }
      ],
      "name": "isInAvailableWorkers",
      "outputs": [
        {
          "internalType": "bool",
          "name": "",
          "type": "bool"
        }
      ],
      "stateMutability": "view",
      "type": "function"
    },
    {
      "inputs": [
        {
          "internalType": "address",
          "name": "_worker",
          "type": "address"
        }
      ],
      "name": "isInBusyWorkers",
      "outputs": [
        {
          "internalType": "bool",
          "name": "",
          "type": "bool"
        }
      ],
      "stateMutability": "view",
      "type": "function"
    },
    {
      "inputs": [
        {
          "internalType": "uint256",
          "name": "_DataBatchId",
          "type": "uint256"
        }
      ],
      "name": "isPassed",
      "outputs": [
        {
          "internalType": "bool",
          "name": "passed",
          "type": "bool"
        }
      ],
      "stateMutability": "view",
      "type": "function"
    },
    {
      "inputs": [
        {
          "internalType": "address",
          "name": "",
          "type": "address"
        }
      ],
      "name": "isToUnregisterWorker",
      "outputs": [
        {
          "internalType": "bool",
          "name": "",
          "type": "bool"
        }
      ],
      "stateMutability": "view",
      "type": "function"
    },
    {
      "inputs": [
        {
          "internalType": "uint256",
          "name": "_DataBatchId",
          "type": "uint256"
        },
        {
          "internalType": "address",
          "name": "_worker",
          "type": "address"
        }
      ],
      "name": "isWorkerAllocatedToBatch",
      "outputs": [
        {
          "internalType": "bool",
          "name": "",
          "type": "bool"
        }
      ],
      "stateMutability": "view",
      "type": "function"
    },
    {
      "inputs": [
        {
          "internalType": "address",
          "name": "_worker",
          "type": "address"
        }
      ],
      "name": "isWorkerRegistered",
      "outputs": [
        {
          "internalType": "bool",
          "name": "passed",
          "type": "bool"
        }
      ],
      "stateMutability": "view",
      "type": "function"
    },
    {
      "inputs": [],
      "name": "owner",
      "outputs": [
        {
          "internalType": "address",
          "name": "",
          "type": "address"
        }
      ],
      "stateMutability": "view",
      "type": "function"
    },
    {
      "inputs": [
        {
          "internalType": "uint256",
          "name": "k",
          "type": "uint256"
        },
        {
          "internalType": "uint256",
          "name": "N",
          "type": "uint256"
        }
      ],
      "name": "random_selection",
      "outputs": [
        {
          "internalType": "uint256[]",
          "name": "",
          "type": "uint256[]"
        }
      ],
      "stateMutability": "view",
      "type": "function"
    },
    {
      "inputs": [
        {
          "internalType": "uint256",
          "name": "_DataBatchId",
          "type": "uint256"
        }
      ],
      "name": "remainingCommitDuration",
      "outputs": [
        {
          "internalType": "uint256",
          "name": "remainingTime",
          "type": "uint256"
        }
      ],
      "stateMutability": "view",
      "type": "function"
    },
    {
      "inputs": [
        {
          "internalType": "uint256",
          "name": "_DataBatchId",
          "type": "uint256"
        }
      ],
      "name": "remainingRevealDuration",
      "outputs": [
        {
          "internalType": "uint256",
          "name": "remainingTime",
          "type": "uint256"
        }
      ],
      "stateMutability": "view",
      "type": "function"
    },
    {
      "inputs": [],
      "name": "renounceOwnership",
      "outputs": [],
      "stateMutability": "nonpayable",
      "type": "function"
    },
    {
      "inputs": [
        {
          "internalType": "uint256",
          "name": "_DataBatchId",
          "type": "uint256"
        }
      ],
      "name": "rescueTokens",
      "outputs": [],
      "stateMutability": "nonpayable",
      "type": "function"
    },
    {
      "inputs": [
        {
          "internalType": "uint256[]",
          "name": "_DataBatchIDs",
          "type": "uint256[]"
        }
      ],
      "name": "rescueTokensInMultipleDatas",
      "outputs": [],
      "stateMutability": "nonpayable",
      "type": "function"
    },
    {
      "inputs": [
        {
          "internalType": "uint256",
          "name": "_DataBatchId",
          "type": "uint256"
        }
      ],
      "name": "revealPeriodActive",
      "outputs": [
        {
          "internalType": "bool",
          "name": "active",
          "type": "bool"
        }
      ],
      "stateMutability": "view",
      "type": "function"
    },
    {
      "inputs": [
        {
          "internalType": "uint256",
          "name": "_DataBatchId",
          "type": "uint256"
        }
      ],
      "name": "revealPeriodOver",
      "outputs": [
        {
          "internalType": "bool",
          "name": "active",
          "type": "bool"
        }
      ],
      "stateMutability": "view",
      "type": "function"
    },
    {
      "inputs": [
        {
          "internalType": "uint256",
          "name": "_DataBatchId",
          "type": "uint256"
        },
        {
          "internalType": "string",
          "name": "_clearIPFSHash",
          "type": "string"
        },
        {
          "internalType": "uint256",
          "name": "_clearVote",
          "type": "uint256"
        },
        {
          "internalType": "uint256",
          "name": "_salt",
          "type": "uint256"
        }
      ],
      "name": "revealSpotCheck",
      "outputs": [],
      "stateMutability": "nonpayable",
      "type": "function"
    },
    {
      "inputs": [
        {
          "internalType": "uint256",
          "name": "",
          "type": "uint256"
        }
      ],
      "name": "toUnregisterWorkers",
      "outputs": [
        {
          "internalType": "address",
          "name": "",
          "type": "address"
        }
      ],
      "stateMutability": "view",
      "type": "function"
    },
    {
      "inputs": [
        {
          "internalType": "address",
          "name": "",
          "type": "address"
        }
      ],
      "name": "toUnregisterWorkersIndex",
      "outputs": [
        {
          "internalType": "uint256",
          "name": "",
          "type": "uint256"
        }
      ],
      "stateMutability": "view",
      "type": "function"
    },
    {
      "inputs": [
        {
          "internalType": "bool",
          "name": "toggle_",
          "type": "bool"
        }
      ],
      "name": "toggleForceValidateBatchFile",
      "outputs": [],
      "stateMutability": "nonpayable",
      "type": "function"
    },
    {
      "inputs": [
        {
          "internalType": "bool",
          "name": "toggle_",
          "type": "bool"
        }
      ],
      "name": "toggleRequiredStaking",
      "outputs": [],
      "stateMutability": "nonpayable",
      "type": "function"
    },
    {
      "inputs": [
        {
          "internalType": "bool",
          "name": "toggle_",
          "type": "bool"
        }
      ],
      "name": "toggleStrictRandomness",
      "outputs": [],
      "stateMutability": "nonpayable",
      "type": "function"
    },
    {
      "inputs": [
        {
          "internalType": "bool",
          "name": "toggle_",
          "type": "bool"
        }
      ],
      "name": "toggleTriggerSpotData",
      "outputs": [],
      "stateMutability": "nonpayable",
      "type": "function"
    },
    {
      "inputs": [
        {
          "internalType": "bool",
          "name": "toggle_",
          "type": "bool"
        }
      ],
      "name": "toggleValidateLastReveal",
      "outputs": [],
      "stateMutability": "nonpayable",
      "type": "function"
    },
    {
      "inputs": [],
      "name": "token",
      "outputs": [
        {
          "internalType": "contract IERC20",
          "name": "",
          "type": "address"
        }
      ],
      "stateMutability": "view",
      "type": "function"
    },
    {
      "inputs": [
        {
          "internalType": "address",
          "name": "newOwner",
          "type": "address"
        }
      ],
      "name": "transferOwnership",
      "outputs": [],
      "stateMutability": "nonpayable",
      "type": "function"
    },
    {
      "inputs": [
        {
          "internalType": "uint256",
          "name": "new_limit_",
          "type": "uint256"
        }
      ],
      "name": "updateGasLeftLimit",
      "outputs": [],
      "stateMutability": "nonpayable",
      "type": "function"
    },
    {
      "inputs": [],
      "name": "updateGlobalSpotFlow",
      "outputs": [],
      "stateMutability": "nonpayable",
      "type": "function"
    },
    {
      "inputs": [
        {
          "internalType": "bool",
          "name": "state_",
          "type": "bool"
        },
        {
          "internalType": "uint256",
          "name": "divider_",
          "type": "uint256"
        }
      ],
      "name": "updateInstantRevealRewards",
      "outputs": [],
      "stateMutability": "nonpayable",
      "type": "function"
    },
    {
      "inputs": [
        {
          "internalType": "bool",
          "name": "state_",
          "type": "bool"
        },
        {
          "internalType": "uint256",
          "name": "divider_",
          "type": "uint256"
        }
      ],
      "name": "updateInstantSpotRewards",
      "outputs": [],
      "stateMutability": "nonpayable",
      "type": "function"
    },
    {
      "inputs": [],
      "name": "updateItemCount",
      "outputs": [],
      "stateMutability": "nonpayable",
      "type": "function"
    },
    {
      "inputs": [
        {
          "internalType": "uint256",
          "name": "MaxPendingDataBatchCount_",
          "type": "uint256"
        }
      ],
      "name": "updateMaxPendingDataBatch",
      "outputs": [],
      "stateMutability": "nonpayable",
      "type": "function"
    },
    {
      "inputs": [
        {
          "internalType": "address",
          "name": "addr",
          "type": "address"
        }
      ],
      "name": "updateParametersManager",
      "outputs": [],
      "stateMutability": "nonpayable",
      "type": "function"
    },
    {
      "inputs": [
        {
          "internalType": "uint256",
          "name": "file_size_",
          "type": "uint256"
        }
      ],
      "name": "updateSpotFileSize",
      "outputs": [],
      "stateMutability": "nonpayable",
      "type": "function"
    },
    {
      "inputs": [
        {
          "internalType": "address",
          "name": "user_",
          "type": "address"
        }
      ],
      "name": "updateUserSpotFlow",
      "outputs": [],
      "stateMutability": "nonpayable",
      "type": "function"
    },
    {
      "inputs": [
        {
          "internalType": "uint256",
          "name": "_prevID",
          "type": "uint256"
        },
        {
          "internalType": "uint256",
          "name": "_nextID",
          "type": "uint256"
        },
        {
          "internalType": "address",
          "name": "_voter",
          "type": "address"
        },
        {
          "internalType": "uint256",
          "name": "_numTokens",
          "type": "uint256"
        }
      ],
      "name": "validPosition",
      "outputs": [
        {
          "internalType": "bool",
          "name": "APPROVED",
          "type": "bool"
        }
      ],
      "stateMutability": "view",
      "type": "function"
    },
    {
      "inputs": [
        {
          "internalType": "uint256",
          "name": "_numTokens",
          "type": "uint256"
        }
      ],
      "name": "withdrawVotingRights",
      "outputs": [],
      "stateMutability": "nonpayable",
      "type": "function"
    }
  ],
  "bytecode": "0x608060405260006001818155605a829055605b829055605c819055605d819055605e819055605f55606081905560618190556062819055606381905560648181556065919091556066805461ffff1916610101179055600560675560026068556103e8606955606a55620f4240606b55606c805464ffffffffff19166401010000001790556402540be3ff606e553480156200009a57600080fd5b506040516200cb8f3803806200cb8f833981016040819052620000bd916200015e565b620000c8336200010e565b6001600160a01b038116620000dc57600080fd5b606c80546001600160a01b039092166501000000000002600160281b600160c81b031990921691909117905562000190565b600080546001600160a01b038381166001600160a01b0319831681178455604051919092169283917f8be0079c531659141344cd1fd0a4f28419497f9722a3daafe3b4186f6b6457e09190a35050565b6000602082840312156200017157600080fd5b81516001600160a01b03811681146200018957600080fd5b9392505050565b61c9ef80620001a06000396000f3fe608060405234801561001057600080fd5b50600436106108b95760003560e01c80638356443a11610479578063c46f17d011610257578063e798a7da11610151578063f721de4a116100ce578063facd741711610092578063facd741714611514578063fc0c546a14611527578063fca4956314611543578063fd41488114611556578063ff43de9d1461156957600080fd5b8063f721de4a14611495578063f7c544fe146114bb578063f80a23fd146114ce578063f96305f0146114e9578063f96523f2146114f157600080fd5b8063f2d9e74d11610115578063f2d9e74d14611456578063f2fde38b1461145f578063f4cdfcc414611472578063f5ae7c7d14611485578063f716596d1461148d57600080fd5b8063e798a7da146113ef578063e7b1d43c1461141e578063eb1322ff14611431578063ed8becfa1461143a578063ef4fcdad1461144d57600080fd5b8063d420ec0b116101df578063d9548e53116101a3578063d9548e5314611393578063d9845fb8146113a6578063e23fcd1a146113c6578063e59d0289146113cf578063e604c127146113dc57600080fd5b8063d420ec0b14611318578063d58f575c14611346578063d6b0206c1461134f578063d817587e14611358578063d8b756741461136b57600080fd5b8063cdf46a7811610226578063cdf46a78146112b5578063cf78c54a146112c9578063d0d41def146112e9578063d1382092146112f2578063d186981d1461130557600080fd5b8063c46f17d01461126e578063c4e4f82a14611277578063c6b650631461128a578063cb279389146112ad57600080fd5b8063a1103f3711610373578063b0bc471e116102f0578063b2850d77116102b4578063b2850d771461121a578063b43bd0691461122d578063b5485f6214611240578063b8f011b314611248578063bda1e6091461125b57600080fd5b8063b0bc471e146111bb578063b10aa584146111ce578063b1a2e0be146111e1578063b1cf4a7e146111f4578063b1d7ea981461120757600080fd5b8063a7ba29d111610337578063a7ba29d114611157578063a90577901461117a578063a98eb31e1461118d578063aa7ca464146111a0578063aacc5a17146111b357600080fd5b8063a1103f3714611118578063a1b6b5b71461112b578063a350715a14611133578063a4439dc51461113c578063a511dba01461114f57600080fd5b80638c89d027116104015780639769d846116103c55780639769d846146110c35780639a1cbfd3146110cc5780639d6e3f96146110df5780639e05cbc2146110f25780639fc9c52f1461110557600080fd5b80638c89d02714610fc35780638ccb7eec146110605780638da5cb5b1461108c5780638df0296e1461109d57806397603560146110b057600080fd5b80638746ff8a116104485780638746ff8a14610f4757806388d072eb14610f5a5780638a1479c814610f6d5780638bf8a33814610f905780638c1bed2214610fa357600080fd5b80638356443a14610f0f57806383e5a8f614610f225780638473850b14610f355780638480a22114610f3e57600080fd5b80634852e2f0116106a657806363b563a8116105a05780637a3033221161051d5780637f97e836116104e15780637f97e83614610ea15780637fabe35b14610eb4578063815ce74714610ee1578063819b029314610ee9578063821aa8c014610efc57600080fd5b80637a30332214610e4d5780637ad3be1114610e605780637ae3d59b14610e735780637e97561b14610e865780637f9510a214610e9957600080fd5b8063715018a611610564578063715018a614610e0e57806371880b1b14610e1657806375b7536c14610e29578063763a39f214610e325780637860dd4114610e3a57600080fd5b806363b563a814610da457806369d0433b14610db75780636b2d95d414610dbf5780637018e9c614610dd25780637074222b14610de557600080fd5b806353bf27f11161062e5780635a452943116105f25780635a45294314610d2b5780635b113a5514610d4b5780635dc44cf114610d765780635df6055d14610d89578063607d5efa14610d9c57600080fd5b806353bf27f114610cca578063576a554314610cd2578063579db71c14610ce557806359da7baf14610cf857806359fcf77614610d0b57600080fd5b80634bad8d24116106755780634bad8d2414610c4c5780634bd7479a14610c6d5780634ffd734314610c8d578063515535e814610ca2578063538e498c14610caa57600080fd5b80634852e2f014610bfb5780634940318314610c045780634a2b979f14610c175780634a45cd8414610c2057600080fd5b80632d917c68116107b75780633c062cc81161073f578063427fa1d211610703578063427fa1d214610bad57806342e1e07114610bc0578063441c77c014610bd357806345feae8914610be657806347fe2d2014610bf357600080fd5b80633c062cc814610b4d5780633cab7fcb14610b755780633de4b29314610b885780633f7e62f314610b91578063413b90f714610b9a57600080fd5b80632ff0312f116107865780632ff0312f14610abb57806331e2f28514610ae65780633538af8214610b0657806339e7357c14610b195780633aed0be514610b2157600080fd5b80632d917c6814610a485780632dbfca6a14610a765780632eaff49914610a895780632f469fd114610a9b57600080fd5b80630e6661a71161084557806319d903461161080957806319d90346146109f2578063226ed30014610a12578063275c259014610a25578063289bd48214610a2d5780632c05203114610a3557600080fd5b80630e6661a7146109b35780631336daec146109bc578063154fd39b146109cf57806316823107146109d757806316860ec5146109ea57600080fd5b806307c037011161088c57806307c0370114610930578063086eafa314610943578063092a5cce146109655780630b96c5b01461096d5780630e4498c21461099357600080fd5b806301a48b98146108be57806301aa5f73146108e7578063059576231461090857806306ec96761461091d575b600080fd5b6108d16108cc36600461bb66565b61157c565b6040516108de919061bbba565b60405180910390f35b6108fa6108f536600461bb66565b6116fa565b6040519081526020016108de565b61091b61091636600461bbe2565b611761565b005b61091b61092b36600461bc0d565b61180b565b61091b61093e36600461bb66565b611831565b606c5461095590610100900460ff1681565b60405190151581526020016108de565b61091b61183e565b61098061097b36600461bb66565b611854565b6040516108de979695949392919061bcc9565b6109a66109a136600461bd3b565b611a38565b6040516108de919061bd5d565b6108fa605b5481565b61091b6109ca36600461bd9e565b611bbc565b605f546108fa565b61091b6109e536600461bb66565b611be0565b61091b611cd5565b610a05610a0036600461bb66565b611e6a565b6040516108de919061bdbb565b610955610a2036600461bb66565b612151565b61091b6121e2565b6108fa6123af565b6108fa610a4336600461be1d565b6123fd565b610955610a5636600461be52565b603e60209081526000928352604080842090915290825290205460ff1681565b610955610a8436600461bbe2565b6125a0565b60665461095590610100900460ff1681565b610aae610aa936600461be70565b6126e5565b6040516108de919061bea0565b610ace610ac936600461bb66565b61278a565b6040516001600160a01b0390911681526020016108de565b6108fa610af436600461bbe2565b604d6020526000908152604090205481565b610ace610b1436600461bb66565b6127b4565b6108fa6127c4565b610955610b2f36600461bbe2565b6001600160a01b031660009081526054602052604090205460ff1690565b610b60610b5b36600461bb66565b6127e1565b604080519283526020830191909152016108de565b6108fa610b8336600461c03a565b612803565b6108fa60615481565b6108fa60695481565b610b60610ba836600461be52565b613a5e565b6108fa610bbb36600461bbe2565b613a8e565b610a05610bce36600461bd3b565b613b31565b610955610be136600461bb66565b613caa565b6066546109559060ff1681565b605e546108fa565b6108fa60645481565b610955610c1236600461bb66565b613d07565b6108fa606b5481565b610955610c2e36600461bbe2565b6001600160a01b031660009081526053602052604090205460ff1690565b610c5f610c5a36600461bd3b565b613f37565b6040516108de92919061c15c565b6108fa610c7b36600461bb66565b60596020526000908152604090205481565b606c5461095590640100000000900460ff1681565b605d546108fa565b6108fa610cb836600461bbe2565b60556020526000908152604090205481565b604f546108fa565b61091b610ce036600461bbe2565b6141b6565b6108d1610cf336600461bbe2565b61435f565b610b60610d0636600461bb66565b6143cb565b6108fa610d1936600461bbe2565b60566020526000908152604090205481565b610d3e610d3936600461bb66565b6143db565b6040516108de919061c175565b6108fa610d5936600461be70565b604260209081526000928352604080842090915290825290205481565b6108fa610d8436600461be52565b614614565b610a05610d9736600461bb66565b614645565b61091b614845565b610955610db236600461bb66565b6149d0565b604a546108fa565b6108fa610dcd36600461bbe2565b614a22565b610955610de036600461bb66565b614a31565b6108fa610df336600461bbe2565b6001600160a01b03166000908152604d602052604090205490565b61091b614a75565b6108fa610e2436600461bb66565b614a89565b6108fa606a5481565b6050546108fa565b6108fa610e4836600461bb66565b614ad0565b61091b610e5b36600461bb66565b614b2e565b6108fa610e6e36600461be52565b614b91565b61091b610e8136600461bd9e565b614bc8565b61091b610e9436600461bb66565b614bee565b6108fa614bfb565b610955610eaf36600461be52565b614c12565b610ec7610ec236600461bb66565b614c6f565b6040516108de9e9d9c9b9a9998979695949392919061c209565b6108fa614d6f565b610955610ef736600461c29a565b614db7565b610ace610f0a36600461bb66565b614df8565b61091b610f1d36600461bd9e565b614e08565b61091b610f3036600461c2d9565b614e30565b6108fa605d5481565b6108fa605a5481565b610ace610f5536600461be52565b61553c565b610aae610f6836600461be70565b6159a8565b610955610f7b36600461bbe2565b60526020526000908152604090205460ff1681565b6108fa610f9e36600461c32f565b6159cc565b6108fa610fb136600461bb66565b60586020526000908152604090205481565b61101c610fd136600461bbe2565b6049602052600090815260409020805460018201546002830154600384015460048501546005860154600687015460079097015495969495939460ff80851695610100909504169389565b60408051998a5260208a0198909852968801959095529215156060870152901515608086015260a085015260c084015260e0830152610100820152610120016108de565b61095561106e36600461bbe2565b6001600160a01b031660009081526052602052604090205460ff1690565b6000546001600160a01b0316610ace565b610ace6110ab36600461bd3b565b615a0f565b61091b6110be36600461bb66565b615a47565b6108fa60625481565b61091b6110da36600461bd9e565b615c96565b6108fa6110ed36600461bbe2565b615cb8565b61091b61110036600461bb66565b615d15565b61091b61111336600461c375565b615e86565b6108fa61112636600461be52565b615ec6565b6062546108fa565b6108fa60635481565b61095561114a36600461bb66565b615f0e565b605b546108fa565b61095561116536600461bbe2565b60546020526000908152604090205460ff1681565b61095561118836600461c3a9565b615f73565b61091b61119b36600461c402565b615fd9565b6109556111ae36600461be52565b6169d0565b6108fa616a2d565b6108fa6111c936600461be52565b616af6565b610ace6111dc36600461bb66565b616b2d565b6109556111ef36600461bbe2565b616b3d565b6108fa61120236600461bd3b565b616c0a565b6108d161121536600461bd3b565b616c26565b606c546109559062010000900460ff1681565b6108fa61123b36600461be1d565b616f77565b610955617135565b6108d161125636600461bd3b565b617140565b61091b61126936600461bd9e565b617156565b6108fa60675481565b6108fa61128536600461bb66565b617171565b61095561129836600461bbe2565b60536020526000908152604090205460ff1681565b6061546108fa565b606c54610955906301000000900460ff1681565b6108fa6112d736600461bbe2565b60576020526000908152604090205481565b6108fa60015481565b6108fa61130036600461be52565b6171b8565b61095561131336600461be70565b6171ee565b61095561132636600461be52565b603f60209081526000928352604080842090915290825290205460ff1681565b6108fa605c5481565b6108fa605f5481565b610a0561136636600461bb66565b6172bb565b6108fa61137936600461be70565b604060208181526000938452818420905290825290205481565b6109556113a136600461bb66565b421190565b6113b96113b436600461bb66565b6174bb565b6040516108de919061c458565b6108fa60685481565b606c546109559060ff1681565b610aae6113ea36600461bb66565b61763d565b6109556113fd36600461bbe2565b6001600160a01b031660009081526049602052604090206003015460ff1690565b61091b61142c36600461bb66565b6176f5565b6108fa60655481565b610a0561144836600461bb66565b6179af565b6108fa605e5481565b6108fa60605481565b61091b61146d36600461bbe2565b617c93565b6108fa61148036600461c526565b617d09565b6060546108fa565b61091b617d1e565b6109556114a336600461bb66565b60009081526048602052604090206004015460ff1690565b61091b6114c936600461bc0d565b618282565b3360009081526049602052604090206003015460ff16610955565b6063546108fa565b6109556114ff36600461bbe2565b604b6020526000908152604090205460ff1681565b61091b61152236600461bb66565b6182a1565b606c54610ace906501000000000090046001600160a01b031681565b6108fa61155136600461bbe2565b6182ae565b610a0561156436600461bd3b565b618362565b606d54610ace906001600160a01b031681565b60008181526048602052604090206004015460609060ff166115b95760405162461bcd60e51b81526004016115b09061c56a565b60405180910390fd5b6000828152604e602090815260408083208054825181850281018501909352808352919290919083018282801561161957602002820191906000526020600020905b81546001600160a01b031681526001909101906020018083116115fb575b50505050509050600081516001600160401b0381111561163b5761163b61beb3565b604051908082528060200260200182016040528015611664578160200160208202803683370190505b50905060005b82518110156116f25760406000868152602001908152602001600020600084838151811061169a5761169a61c5a1565b60200260200101516001600160a01b03166001600160a01b03168152602001908152602001600020548282815181106116d5576116d561c5a1565b6020908102919091010152806116ea8161c5cd565b91505061166a565b509392505050565b60008181526048602052604081206004015460ff1661172b5760405162461bcd60e51b81526004016115b09061c56a565b600061173683613caa565b1561175b5760008381526048602052604090206006015461175890429061c5e8565b90505b92915050565b611769618820565b6001600160a01b0381166117b75760405162461bcd60e51b815260206004820152601560248201527461646472206d757374206265206e6f6e207a65726f60581b60448201526064016115b0565b606d80546001600160a01b0319166001600160a01b0383169081179091556040519081527f1c57c3710c0570883580d2f83ee6a873d61b5af334741eea1c0cc397899e1d029060200160405180910390a150565b611813618820565b606680549215156101000261ff001990931692909217909155606855565b611839618820565b606a55565b611846618820565b6000546001600160a01b0316ff5b60476020526000908152604090208054819061186f9061c5ff565b80601f016020809104026020016040519081016040528092919081815260200182805461189b9061c5ff565b80156118e85780601f106118bd576101008083540402835291602001916118e8565b820191906000526020600020905b8154815290600101906020018083116118cb57829003601f168201915b50505060018401546002850154600386015460048701805496976001600160a01b03909416969295509093509061191e9061c5ff565b80601f016020809104026020016040519081016040528092919081815260200182805461194a9061c5ff565b80156119975780601f1061196c57610100808354040283529160200191611997565b820191906000526020600020905b81548152906001019060200180831161197a57829003601f168201915b5050505050908060050180546119ac9061c5ff565b80601f01602080910402602001604051908101604052809291908181526020018280546119d89061c5ff565b8015611a255780601f106119fa57610100808354040283529160200191611a25565b820191906000526020600020905b815481529060010190602001808311611a0857829003601f168201915b5050506006909301549192505060ff1687565b606082821015611a7e5760405162461bcd60e51b8152602060048201526011602482015270205f42206d757374206265203e3d205f4160781b60448201526064016115b0565b604a54611a8d9060019061c5e8565b821115611ad35760405162461bcd60e51b815260206004820152601460248201527320425f206973206f7574206f6620626f756e647360601b60448201526064016115b0565b6000611adf848461c5e8565b611aea90600161c634565b90506000816001600160401b03811115611b0657611b0661beb3565b604051908082528060200260200182016040528015611b2f578160200160208202803683370190505b50905060005b82811015611bb357604a611b49878361c634565b81548110611b5957611b5961c5a1565b9060005260206000200160009054906101000a90046001600160a01b0316828281518110611b8957611b8961c5a1565b6001600160a01b039092166020928302919091019091015280611bab8161c5cd565b915050611b35565b50949350505050565b611bc4618820565b606c8054911515620100000262ff000019909216919091179055565b606d546001600160a01b0316611c085760405162461bcd60e51b81526004016115b09061c64c565b605e5460005b82811015611cd0576000611c22828461c634565b60008181526048602052604090206004015490915062010000900460ff168015611c6a5750611c5081612151565b80611c6a5750600081815260486020526040902060030154155b15611cbd57600081815260486020526040902060040154610100900460ff16611c9657611c968161887a565b605e54611ca490600161c634565b811415611cbd57605e54611cb990600161c634565b605e555b5080611cc88161c5cd565b915050611c0e565b505050565b606d546001600160a01b0316611cfd5760405162461bcd60e51b81526004016115b09061c64c565b6000611d0b6001600f61c5e8565b90506000602082600f8110611d2257611d2261c5a1565b6002020154606d54604080516307bc663b60e11b815290519293506001600160a01b0390911691630f78cc7691600480820192602092909190829003018186803b158015611d6f57600080fd5b505afa158015611d83573d6000803e3d6000fd5b505050506040513d601f19601f82011682018060405250810190611da7919061c683565b611db1824261c5e8565b1115611e665760005b611dc66001600f61c5e8565b811015611e2b576020611dda82600161c634565b600f8110611dea57611dea61c5a1565b60020201602082600f8110611e0157611e0161c5a1565b82546002919091029190910190815560019182015491015580611e238161c5cd565b915050611dba565b5042602083600f8110611e4057611e4061c5a1565b60020201556000602083600f8110611e5a57611e5a61c5a1565b60020201600101819055505b5050565b60008181526048602052604090206004015460609060ff16611e9e5760405162461bcd60e51b81526004016115b09061c56a565b600082815260486020908152604080832081516101c0810183528154815260018201549381019390935260028101549183019190915260038101546060830152600481015460ff808216151560808501526101008083048216151560a08601526201000090920416151560c0840152600582015460e08401526006820154908301526007810154610120830152600881015461014083015260098101805461016084019190611f4c9061c5ff565b80601f0160208091040260200160405190810160405280929190818152602001828054611f789061c5ff565b8015611fc55780601f10611f9a57610100808354040283529160200191611fc5565b820191906000526020600020905b815481529060010190602001808311611fa857829003601f168201915b5050509183525050600a8201546020820152600b82015460409091019060ff166003811115611ff657611ff661bc91565b60038111156120075761200761bc91565b90525060208101519091506000816001600160401b0381111561202c5761202c61beb3565b60405190808252806020026020018201604052801561205f57816020015b606081526020019060019003908161204a5790505b50905060005b82811015611bb357835160009061207d90839061c634565b60008181526047602052604081206004018054929350909161209e9061c5ff565b80601f01602080910402602001604051908101604052809291908181526020018280546120ca9061c5ff565b80156121175780601f106120ec57610100808354040283529160200191612117565b820191906000526020600020905b8154815290600101906020018083116120fa57829003601f168201915b50505050509050808484815181106121315761213161c5a1565b6020026020010181905250505080806121499061c5cd565b915050612065565b60008181526048602052604081206004015460ff166121a45760405162461bcd60e51b815260206004820152600f60248201526e11185d18481b5d5cdd08195e1a5cdd608a1b60448201526064016115b0565b60008281526048602052604090206006015442118061175b57506121c782614a31565b801561175b5750506000908152605860205260409020541590565b336000908152604960205260409020600381015460ff1661225a5760405162461bcd60e51b815260206004820152602c60248201527f576f726b6572206973206e6f74207265676973746572656420736f2063616e2760448201526b3a103ab73932b3b4b9ba32b960a11b60648201526084016115b0565b80541580159061227457506003810154610100900460ff16155b801561229057503360009081526054602052604090205460ff16155b156123015760038101805461ff0019166101001790556051805460018181019092557f994a4b4eddb300691ee19901712848b1114bad8a1a4ae195e5abe0ec38021b940180546001600160a01b031916339081179091556000908152605460205260409020805460ff191690911790555b805461238b576123103361a4b9565b6123193361a5e5565b6123223361a6ea565b42600282018190553360008181526054602052604090819020805460ff1990811690915560038501805490911690555190917f9dadcedba048e92b943ea1c5861cee1df63a566d7f795869c004780c1c698e2b9161238291815260200190565b60405180910390a25b60016060600082825461239e919061c634565b909155506123ac905061a7ef565b50565b600080805b600f8110156123f757602081600f81106123d0576123d061c5a1565b6002020160010154826123e3919061c634565b9150806123ef8161c5cd565b9150506123b4565b50919050565b60008061240985613a8e565b9050600061241786836171b8565b90505b81156125955761242a86836171b8565b90508481116124ea57838214156124e2576001600160a01b0386166000908152604560205260409081902090516301c39b2b60e11b815260048101919091526024810183905273__$85afbab79b2b776d70bef879a32ed56424$__9063038736569060440160206040518083038186803b1580156124a757600080fd5b505af41580156124bb573d6000803e3d6000fd5b505050506040513d601f19601f820116820180604052508101906124df919061c683565b91505b509050612599565b6001600160a01b0386166000908152604560205260409081902090516301c39b2b60e11b815260048101919091526024810183905273__$85afbab79b2b776d70bef879a32ed56424$__9063038736569060440160206040518083038186803b15801561255657600080fd5b505af415801561256a573d6000803e3d6000fd5b505050506040513d601f19601f8201168201806040525081019061258e919061c683565b915061241a565b5090505b9392505050565b6001600160a01b038082166000908152604960209081526040808320606d548251634fda48fb60e11b81529251949586959294911692639fb491f69260048083019392829003018186803b1580156125f757600080fd5b505afa15801561260b573d6000803e3d6000fd5b505050506040513d601f19601f8201168201806040525081019061262f919061c683565b8160010154101580156126d45750606d60009054906101000a90046001600160a01b03166001600160a01b0316630f1f0ffe6040518163ffffffff1660e01b815260040160206040518083038186803b15801561268b57600080fd5b505afa15801561269f573d6000803e3d6000fd5b505050506040513d601f19601f820116820180604052508101906126c3919061c683565b60048201546126d2904261c5e8565b105b156126de57600191505b5092915050565b6041602090815260009283526040808420909152908252902080546127099061c5ff565b80601f01602080910402602001604051908101604052809291908181526020018280546127359061c5ff565b80156127825780601f1061275757610100808354040283529160200191612782565b820191906000526020600020905b81548152906001019060200180831161276557829003601f168201915b505050505081565b604a818154811061279a57600080fd5b6000918252602090912001546001600160a01b0316905081565b604f818154811061279a57600080fd5b60405160009080602081848060185afa6127da57fe5b5051919050565b600281600f81106127f157600080fd5b60020201805460019091015490915082565b606d546000906001600160a01b031661282e5760405162461bcd60e51b81526004016115b09061c64c565b606d60009054906101000a90046001600160a01b03166001600160a01b0316634e87c5a86040518163ffffffff1660e01b815260040160206040518083038186803b15801561287c57600080fd5b505afa158015612890573d6000803e3d6000fd5b505050506040513d601f19601f820116820180604052508101906128b4919061c695565b6129135760405162461bcd60e51b815260206004820152602a60248201527f53706f7474696e67206973206e6f742063757272656e746c7920656e61626c656044820152693210313c9027bbb732b960b11b60648201526084016115b0565b855184146129735760405162461bcd60e51b815260206004820152602760248201527f696e70757420617272617973206d757374206265206f662073616d65206c656e6044820152666774682028312960c81b60648201526084016115b0565b82518651146129d45760405162461bcd60e51b815260206004820152602760248201527f696e70757420617272617973206d757374206265206f662073616d65206c656e6044820152666774682028322960c81b60648201526084016115b0565b6129dc614845565b606d60009054906101000a90046001600160a01b03166001600160a01b031663b38e885e6040518163ffffffff1660e01b815260040160206040518083038186803b158015612a2a57600080fd5b505afa158015612a3e573d6000803e3d6000fd5b505050506040513d601f19601f82011682018060405250810190612a62919061c683565b612a6a614d6f565b10612ad65760405162461bcd60e51b815260206004820152603660248201527f476c6f62616c206c696d69743a206578636565646564206d61782064617461206044820152753832b9103437bab916103932ba393c903630ba32b91760511b60648201526084016115b0565b606d54604080516001624ee91360e11b0319815290516000926001600160a01b03169163ff622dda916004808301926020929190829003018186803b158015612b1e57600080fd5b505afa158015612b32573d6000803e3d6000fd5b505050506040513d601f19601f82011682018060405250810190612b56919061c683565b90506000612b64338361553c565b9050612b6f816141b6565b606d60009054906101000a90046001600160a01b03166001600160a01b031663be2509886040518163ffffffff1660e01b815260040160206040518083038186803b158015612bbd57600080fd5b505afa158015612bd1573d6000803e3d6000fd5b505050506040513d601f19601f82011682018060405250810190612bf5919061c683565b612bfe82615cb8565b108015612c965750606d60009054906101000a90046001600160a01b03166001600160a01b031663b38e885e6040518163ffffffff1660e01b815260040160206040518083038186803b158015612c5457600080fd5b505afa158015612c68573d6000803e3d6000fd5b505050506040513d601f19601f82011682018060405250810190612c8c919061c683565b612c94614d6f565b105b8015612cb35750606954605f54605d54612cb0919061c5e8565b11155b156139ab57606c5460ff1615612d14576001600160a01b0381166000908152604d6020526040902054821115612d14576001600160a01b0381166000908152604d6020526040812054612d06908461c5e8565b9050612d12818361aa7a565b505b60005b88518110156139a9576000898281518110612d3457612d3461c5a1565b602002602001015190506000898984818110612d5257612d5261c5a1565b9050602002810190612d64919061c6b2565b8080601f01602080910402602001604051908101604052809392919081815260200183838082843760009201829052508c51949550938c935087925082109050612db057612db061c5a1565b602090810291909101810151336000818152604484526040808220605b8054825460018101845592855287852090920191909155815160e081018352898152808701949094524284830152606084018590526080840188905260a084018e905260c084018390525482526047855290208151805193955091939092612e38928492019061b9a3565b506020828101516001830180546001600160a01b0319166001600160a01b03909216919091179055604083015160028301556060830151600383015560808301518051612e8b926004850192019061b9a3565b5060a08201518051612ea791600584019160209091019061b9a3565b5060c082015160068201805460ff19166001836003811115612ecb57612ecb61bc91565b021790555050605d54600090815260486020908152604091829020606d548351634e8f956d60e11b815293519194506001600160a01b031692639d1f2ada926004808301939192829003018186803b158015612f2657600080fd5b505afa158015612f3a573d6000803e3d6000fd5b505050506040513d601f19601f82011682018060405250810190612f5e919061c683565b81600101541015612f84576001816001016000828254612f7e919061c634565b90915550505b606d60009054906101000a90046001600160a01b03166001600160a01b0316639d1f2ada6040518163ffffffff1660e01b815260040160206040518083038186803b158015612fd257600080fd5b505afa158015612fe6573d6000803e3d6000fd5b505050506040513d601f19601f8201168201806040525081019061300a919061c683565b8160010154106130545760048101805461ffff19166001908117909155605d805460009061303990849061c634565b9091555050605b54605d546000908152604860205260409020555b605b5461306290600161c634565b605b556001600261307482600f61c5e8565b600f81106130845761308461c5a1565b60020201600101600082825461309a919061c634565b90915550506001600160a01b0386166000908152604c602052604090206001816130c582600f61c5e8565b600f81106130d5576130d561c5a1565b6002020160010160008282546130eb919061c634565b909155505060665460ff16156135a357606d5460408051632a49798160e11b8152905133926000926001600160a01b0390911691635492f30291600480820192602092909190829003018186803b15801561314557600080fd5b505afa158015613159573d6000803e3d6000fd5b505050506040513d601f19601f8201168201806040525081019061317d919061c6f8565b90506000606d60009054906101000a90046001600160a01b03166001600160a01b0316630855d1516040518163ffffffff1660e01b815260040160206040518083038186803b1580156131cf57600080fd5b505afa1580156131e3573d6000803e3d6000fd5b505050506040513d601f19601f82011682018060405250810190613207919061c6f8565b90506000606d60009054906101000a90046001600160a01b03166001600160a01b03166304e76c8f6040518163ffffffff1660e01b815260040160206040518083038186803b15801561325957600080fd5b505afa15801561326d573d6000803e3d6000fd5b505050506040513d601f19601f82011682018060405250810190613291919061c6f8565b6040516308c0a84360e11b81526001600160a01b03868116600483015291925060009185169063118150869060240160206040518083038186803b1580156132d857600080fd5b505afa1580156132ec573d6000803e3d6000fd5b505050506040513d601f19601f82011682018060405250810190613310919061c6f8565b90506000606754606d60009054906101000a90046001600160a01b03166001600160a01b03166330c0bb796040518163ffffffff1660e01b815260040160206040518083038186803b15801561336557600080fd5b505afa158015613379573d6000803e3d6000fd5b505050506040513d601f19601f8201168201806040525081019061339d919061c683565b6133a890606461c715565b6133b2919061c74a565b90506000606754606d60009054906101000a90046001600160a01b03166001600160a01b031663abb10b9b6040518163ffffffff1660e01b815260040160206040518083038186803b15801561340757600080fd5b505afa15801561341b573d6000803e3d6000fd5b505050506040513d601f19601f8201168201806040525081019061343f919061c683565b61344a90606461c715565b613454919061c74a565b604051630db6cc8560e11b8152600481018290526001600160a01b0385811660248301526000604483015291925090861690631b6d990a90606401602060405180830381600087803b1580156134a957600080fd5b505af11580156134bd573d6000803e3d6000fd5b505050506040513d601f19601f820116820180604052508101906134e1919061c695565b6134fd5760405162461bcd60e51b81526004016115b09061c75e565b604051633832942560e21b8152600481018390526001600160a01b03848116602483015285169063e0ca509490604401602060405180830381600087803b15801561354757600080fd5b505af115801561355b573d6000803e3d6000fd5b505050506040513d601f19601f8201168201806040525081019061357f919061c695565b61359b5760405162461bcd60e51b81526004016115b09061c7ac565b505050505050505b606c54610100900460ff161561394b576135bd6001614b2e565b606d5460408051637b39b17f60e11b815290516000926001600160a01b03169163f67362fe916004808301926020929190829003018186803b15801561360257600080fd5b505afa158015613616573d6000803e3d6000fd5b505050506040513d601f19601f8201168201806040525081019061363a919061c6f8565b604051633d18199160e11b8152600160048201529091506001600160a01b03821690637a30332290602401600060405180830381600087803b15801561367f57600080fd5b505af1925050508015613690575060015b6136eb573d8080156136be576040519150601f19603f3d011682016040523d82523d6000602084013e6136c3565b606091505b5060008051602061c99a833981519152816040516136e1919061bea0565b60405180910390a1505b606d5460408051637a0ec25b60e01b815290516000926001600160a01b031691637a0ec25b916004808301926020929190829003018186803b15801561373057600080fd5b505afa158015613744573d6000803e3d6000fd5b505050506040513d601f19601f82011682018060405250810190613768919061c6f8565b604051633d18199160e11b8152600160048201529091506001600160a01b03821690637a30332290602401600060405180830381600087803b1580156137ad57600080fd5b505af19250505080156137be575060015b613819573d8080156137ec576040519150601f19603f3d011682016040523d82523d6000602084013e6137f1565b606091505b5060008051602061c99a8339815191528160405161380f919061bea0565b60405180910390a1505b606d546040805163463444b760e01b815290516000926001600160a01b03169163463444b7916004808301926020929190829003018186803b15801561385e57600080fd5b505afa158015613872573d6000803e3d6000fd5b505050506040513d601f19601f82011682018060405250810190613896919061c6f8565b604051633d18199160e11b8152600160048201529091506001600160a01b03821690637a30332290602401600060405180830381600087803b1580156138db57600080fd5b505af19250505080156138ec575060015b613947573d80801561391a576040519150601f19603f3d011682016040523d82523d6000602084013e61391f565b606091505b5060008051602061c99a8339815191528160405161393d919061bea0565b60405180910390a1505b5050505b866001600160a01b0316605b547fb819ca9ac369919119f75ec7363dd954f75bcfa75f9245647e03da413be0d582878760405161398992919061c7fc565b60405180910390a3505050505080806139a19061c5cd565b915050612d17565b505b336000908152604960209081526040808320604b9092529091205460ff16613a2857604a805460018181019092557ffcc5ba1a98fc477b8948a04d08c6f4a76181fe75021370ab5e6abd22b1792a2a0180546001600160a01b031916339081179091556000908152604b60205260409020805460ff191690911790555b426002820155613a3661a7ef565b600160606000828254613a49919061c634565b9091555050605b549998505050505050505050565b604c60205281600052604060002081600f8110613a7a57600080fd5b600202018054600190910154909250905082565b6001600160a01b03811660009081526045602052604080822090516301c39b2b60e11b815260048101919091526024810182905273__$85afbab79b2b776d70bef879a32ed56424$__9063038736569060440160206040518083038186803b158015613af957600080fd5b505af4158015613b0d573d6000803e3d6000fd5b505050506040513d601f19601f8201168201806040525081019061175b919061c683565b6060600083118015613b4257508183105b613b5e5760405162461bcd60e51b81526004016115b09061c82a565b6000613b6a848461c5e8565b613b7590600161c634565b90506000816001600160401b03811115613b9157613b9161beb3565b604051908082528060200260200182016040528015613bc457816020015b6060815260200190600190039081613baf5790505b50905060005b82811015611bb35760486000613be0888461c634565b81526020019081526020016000206009018054613bfc9061c5ff565b80601f0160208091040260200160405190810160405280929190818152602001828054613c289061c5ff565b8015613c755780601f10613c4a57610100808354040283529160200191613c75565b820191906000526020600020905b815481529060010190602001808311613c5857829003601f168201915b5050505050828281518110613c8c57613c8c61c5a1565b60200260200101819052508080613ca29061c5cd565b915050613bca565b60008181526048602052604081206004015460ff16613cdb5760405162461bcd60e51b81526004016115b09061c56a565b600082815260486020526040902060060154421115801561175b5750613d0082615f0e565b1592915050565b600081815260486020908152604080832081516101c0810183528154815260018201549381019390935260028101549183019190915260038101546060830152600481015460ff808216151560808501526101008083048216151560a08601526201000090920416151560c0840152600582015460e08401526006820154908301526007810154610120830152600881015461014083015260098101805484939291610160840191613db89061c5ff565b80601f0160208091040260200160405190810160405280929190818152602001828054613de49061c5ff565b8015613e315780601f10613e0657610100808354040283529160200191613e31565b820191906000526020600020905b815481529060010190602001808311613e1457829003601f168201915b5050509183525050600a8201546020820152600b82015460409091019060ff166003811115613e6257613e6261bc91565b6003811115613e7357613e7361bc91565b905250610140810151610120820151919250613e8e9161c634565b606d60009054906101000a90046001600160a01b03166001600160a01b031663ea19733c6040518163ffffffff1660e01b815260040160206040518083038186803b158015613edc57600080fd5b505afa158015613ef0573d6000803e3d6000fd5b505050506040513d601f19601f82011682018060405250810190613f14919061c683565b613f1e919061c715565b610120820151613f2f90606461c715565b119392505050565b60006060600084118015613f4a57508284105b613f665760405162461bcd60e51b81526004016115b09061c82a565b600080613f73868661c5e8565b613f7e90600161c634565b90506000816001600160401b03811115613f9a57613f9a61beb3565b604051908082528060200260200182016040528015613fc3578160200160208202803683370190505b50905060005b82811015614199576000604881613fe08b8561c634565b8152602080820192909252604090810160002081516101c0810183528154815260018201549381019390935260028101549183019190915260038101546060830152600481015460ff808216151560808501526101008083048216151560a08601526201000090920416151560c0840152600582015460e084015260068201549083015260078101546101208301526008810154610140830152600981018054610160840191906140909061c5ff565b80601f01602080910402602001604051908101604052809291908181526020018280546140bc9061c5ff565b80156141095780601f106140de57610100808354040283529160200191614109565b820191906000526020600020905b8154815290600101906020018083116140ec57829003601f168201915b5050509183525050600a8201546020820152600b82015460409091019060ff16600381111561413a5761413a61bc91565b600381111561414b5761414b61bc91565b905250610180810151909150614161908661c634565b945080610180015183838151811061417b5761417b61c5a1565b602090810291909101015250806141918161c5cd565b915050613fc9565b5060006141a6838561c74a565b95509093505050505b9250929050565b606d546001600160a01b03166141de5760405162461bcd60e51b81526004016115b09061c64c565b6001600160a01b0381166000908152604c60205260408120906142036001600f61c5e8565b905060008282600f81106142195761421961c5a1565b6002020154606d54604080516307bc663b60e11b815290519293506001600160a01b0390911691630f78cc7691600480820192602092909190829003018186803b15801561426657600080fd5b505afa15801561427a573d6000803e3d6000fd5b505050506040513d601f19601f8201168201806040525081019061429e919061c683565b6142a8824261c5e8565b11156143595760005b6142bd6001600f61c5e8565b81101561432057836142d082600161c634565b600f81106142e0576142e061c5a1565b600202018482600f81106142f6576142f661c5a1565b825460029190910291909101908155600191820154910155806143188161c5cd565b9150506142b1565b50428383600f81106143345761433461c5a1565b600202015560008383600f811061434d5761434d61c5a1565b60020201600101819055505b50505050565b6001600160a01b0381166000908152604460209081526040918290208054835181840281018401909452808452606093928301828280156143bf57602002820191906000526020600020905b8154815260200190600101908083116143ab575b50505050509050919050565b602081600f81106127f157600080fd5b6143e361ba27565b60008281526047602052604090819020815160e0810190925280548290829061440b9061c5ff565b80601f01602080910402602001604051908101604052809291908181526020018280546144379061c5ff565b80156144845780601f1061445957610100808354040283529160200191614484565b820191906000526020600020905b81548152906001019060200180831161446757829003601f168201915b505050918352505060018201546001600160a01b0316602082015260028201546040820152600382015460608201526004820180546080909201916144c89061c5ff565b80601f01602080910402602001604051908101604052809291908181526020018280546144f49061c5ff565b80156145415780601f1061451657610100808354040283529160200191614541565b820191906000526020600020905b81548152906001019060200180831161452457829003601f168201915b5050505050815260200160058201805461455a9061c5ff565b80601f01602080910402602001604051908101604052809291908181526020018280546145869061c5ff565b80156145d35780601f106145a8576101008083540402835291602001916145d3565b820191906000526020600020905b8154815290600101906020018083116145b657829003601f168201915b5050509183525050600682015460209091019060ff1660038111156145fa576145fa61bc91565b600381111561460b5761460b61bc91565b90525092915050565b6044602052816000526040600020818154811061463057600080fd5b90600052602060002001600091509150505481565b60008181526048602052604090206004015460609060ff166146795760405162461bcd60e51b81526004016115b09061c56a565b6000828152604e60209081526040808320805482518185028101850190935280835291929091908301828280156146d957602002820191906000526020600020905b81546001600160a01b031681526001909101906020018083116146bb575b50505050509050600081516001600160401b038111156146fb576146fb61beb3565b60405190808252806020026020018201604052801561472e57816020015b60608152602001906001900390816147195790505b50905060005b82518110156116f2576043600086815260200190815260200160002060008483815181106147645761476461c5a1565b60200260200101516001600160a01b03166001600160a01b0316815260200190815260200160002080546147979061c5ff565b80601f01602080910402602001604051908101604052809291908181526020018280546147c39061c5ff565b80156148105780601f106147e557610100808354040283529160200191614810565b820191906000526020600020905b8154815290600101906020018083116147f357829003601f168201915b50505050508282815181106148275761482761c5a1565b6020026020010181905250808061483d9061c5cd565b915050614734565b606d546001600160a01b031661486d5760405162461bcd60e51b81526004016115b09061c64c565b600061487b6001600f61c5e8565b90506000600282600f81106148925761489261c5a1565b6002020154606d54604080516307bc663b60e11b815290519293506001600160a01b0390911691630f78cc7691600480820192602092909190829003018186803b1580156148df57600080fd5b505afa1580156148f3573d6000803e3d6000fd5b505050506040513d601f19601f82011682018060405250810190614917919061c683565b614921824261c5e8565b1115611e665760005b6149366001600f61c5e8565b81101561499b57600261494a82600161c634565b600f811061495a5761495a61c5a1565b60020201600282600f81106149715761497161c5a1565b825460029190910291909101908155600191820154910155806149938161c5cd565b91505061492a565b5042600283600f81106149b0576149b061c5a1565b60020201600001819055506000600283600f8110611e5a57611e5a61c5a1565b60008181526048602052604081206004015460ff166149f157506000919050565b60008281526048602052604090206006015442118061175b5750506000908152604860205260409020600301541590565b600061175b8261130084613a8e565b60008181526048602052604081206004015460ff16614a5257506000919050565b60008281526048602052604090206005015442118061175b575061175b82613caa565b614a7d618820565b614a87600061ad03565b565b60008181526048602052604081206004015460ff16614aba5760405162461bcd60e51b81526004016115b09061c56a565b5060009081526048602052604090206006015490565b60008181526048602052604081206004015460ff16614b015760405162461bcd60e51b81526004016115b09061c56a565b6000614b0c83615f0e565b1561175b5760008381526048602052604090206005015461175890429061c5e8565b606d546001600160a01b0316614b565760405162461bcd60e51b81526004016115b09061c64c565b614b5e614845565b614b66611cd5565b614b6e61ad53565b614b7781611be0565b614b808161af65565b614b8981615d15565b6123ac61a7ef565b6000611758614ba08484615ec6565b6040518060400160405280600a8152602001690c6dedadad2e890c2e6d60b31b8152506159cc565b614bd0618820565b606c805491151563010000000263ff00000019909216919091179055565b614bf6618820565b606955565b605054604f54600091614c0d9161c634565b905090565b60008181526048602052604081206004015460ff16614c435760405162461bcd60e51b81526004016115b09061c56a565b506001600160a01b03919091166000908152603e60209081526040808320938352929052205460ff1690565b604860205260009081526040902080546001820154600283015460038401546004850154600586015460068701546007880154600889015460098a018054999a98999798969760ff80881698610100890482169862010000900490911696959493929091614cdc9061c5ff565b80601f0160208091040260200160405190810160405280929190818152602001828054614d089061c5ff565b8015614d555780601f10614d2a57610100808354040283529160200191614d55565b820191906000526020600020905b815481529060010190602001808311614d3857829003601f168201915b50505050600a830154600b9093015491929160ff1690508e565b600080805b600f8110156123f757600281600f8110614d9057614d9061c5a1565b600202016001015482614da3919061c634565b915080614daf8161c5cd565b915050614d74565b600080614dc484876171b8565b83101590506000614dd585876171b8565b84111580614de1575085155b9050818015614ded5750805b979650505050505050565b6050818154811061279a57600080fd5b614e10618820565b606c80549115156401000000000264ff0000000019909216919091179055565b606d546001600160a01b0316614e585760405162461bcd60e51b81526004016115b09061c64c565b614e6185615f0e565b614ec55760405162461bcd60e51b815260206004820152602f60248201527f636f6d6d697420706572696f64206e6565647320746f206265206f70656e206660448201526e1bdc881d1a1a5cc818985d18da1259608a1b60648201526084016115b0565b336000908152603e6020908152604080832088845290915290205460ff1615614f425760405162461bcd60e51b815260206004820152602960248201527f557365722068617320616c726561647920636f6d6d6974656420746f207468696044820152681cc818985d18da125960ba1b60648201526084016115b0565b614f4c85336171ee565b614fbe5760405162461bcd60e51b815260206004820152603860248201527f55736572206e6565647320746f20626520616c6c6f636174656420746f20746860448201527f697320626174636820746f20636f6d6d6974206f6e206974000000000000000060648201526084016115b0565b606d5460408051632a49798160e11b815290516000926001600160a01b031691635492f302916004808301926020929190829003018186803b15801561500357600080fd5b505afa158015615017573d6000803e3d6000fd5b505050506040513d601f19601f8201168201806040525081019061503b919061c6f8565b6001600160a01b031614156150625760405162461bcd60e51b81526004016115b09061c861565b606d54604080516001624ee91360e11b0319815290516000926001600160a01b03169163ff622dda916004808301926020929190829003018186803b1580156150aa57600080fd5b505afa1580156150be573d6000803e3d6000fd5b505050506040513d601f19601f820116820180604052508101906150e2919061c683565b905060006150f0338361553c565b606c5490915060ff161561514f576001600160a01b0381166000908152604d602052604090205482111561514f576001600160a01b0381166000908152604d6020526040812054615141908461c5e8565b905061514d818361aa7a565b505b6000336000908152604560205260408082209051631e0f232560e31b815260048101919091526024810183905273__$85afbab79b2b776d70bef879a32ed56424$__9063f07919289060440160206040518083038186803b1580156151b357600080fd5b505af41580156151c7573d6000803e3d6000fd5b505050506040513d601f19601f820116820180604052508101906151eb919061c683565b9050888114156152935733600090815260456020526040908190209051631e0f232560e31b81526004810191909152602481018a905273__$85afbab79b2b776d70bef879a32ed56424$__9063f07919289060440160206040518083038186803b15801561525857600080fd5b505af415801561526c573d6000803e3d6000fd5b505050506040513d601f19601f82011682018060405250810190615290919061c683565b90505b61529f82823387614db7565b6152e25760405162461bcd60e51b81526020600482015260146024820152733737ba1030903b30b634b2103837b9b4ba34b7b760611b60448201526064016115b0565b3360009081526045602052604090819020905163524cfe5360e11b8152600481019190915260248101839052604481018a90526064810182905273__$85afbab79b2b776d70bef879a32ed56424$__9063a499fca69060840160006040518083038186803b15801561535357600080fd5b505af4158015615367573d6000803e3d6000fd5b505050506000615377338b615ec6565b90506153a581604051806040016040528060098152602001686e756d546f6b656e7360b81b8152508761b069565b6153d5816040518060400160405280600a8152602001690c6dedadad2e890c2e6d60b31b8152508b60001c61b069565b615405816040518060400160405280600a815260200169636f6d6d6974566f746560b01b8152508a60001c61b069565b60008a8152604260209081526040808320338085529083528184208b90558d845260438352818420908452825290912087516154439289019061b9a3565b5060008a815260586020526040812080546001929061546390849061c634565b90915550503360009081526049602090815260408083208d84526048909252909120600201546154959060019061c5e8565b60008c81526048602090815260408083206002908101949094554293850193909355338252603e81528282208e83529052908120805460ff1916600190811790915560608054919290916154ea90849061c634565b909155506154f8905061a7ef565b60405186815233908c907f42864d9683ff5b12c3b2cc65d705af5aab104b03bc700b802f79e5c971ef08a19060200160405180910390a35050505050505050505050565b606d546000906001600160a01b03166155675760405162461bcd60e51b81526004016115b09061c64c565b606d5460408051632a49798160e11b815290516000926001600160a01b031691635492f302916004808301926020929190829003018186803b1580156155ac57600080fd5b505afa1580156155c0573d6000803e3d6000fd5b505050506040513d601f19601f820116820180604052508101906155e4919061c6f8565b6001600160a01b0316141561560b5760405162461bcd60e51b81526004016115b09061c861565b606d546040805163ca64f9e760e01b815290516000926001600160a01b03169163ca64f9e7916004808301926020929190829003018186803b15801561565057600080fd5b505afa158015615664573d6000803e3d6000fd5b505050506040513d601f19601f82011682018060405250810190615688919061c6f8565b6001600160a01b031614156156af5760405162461bcd60e51b81526004016115b09061c8a5565b606d546040805163ca64f9e760e01b815290516000926001600160a01b03169163ca64f9e7916004808301926020929190829003018186803b1580156156f457600080fd5b505afa158015615708573d6000803e3d6000fd5b505050506040513d601f19601f8201168201806040525081019061572c919061c6f8565b90506000606d60009054906101000a90046001600160a01b03166001600160a01b0316635492f3026040518163ffffffff1660e01b815260040160206040518083038186803b15801561577e57600080fd5b505afa158015615792573d6000803e3d6000fd5b505050506040513d601f19601f820116820180604052508101906157b6919061c6f8565b9050848060005b600381101561599c5760405163065ee72760e51b81526001600160a01b0383811660048301526000919087169063cbdce4e09060240160206040518083038186803b15801561580b57600080fd5b505afa15801561581f573d6000803e3d6000fd5b505050506040513d601f19601f82011682018060405250810190615843919061c683565b6001600160a01b0384166000908152604d6020526040902054909150881161586e578293505061599c565b6001600160a01b0383166000908152604d602052604090205488108015906158ad57506001600160a01b0383166000908152604d602052604090205415155b156158ea576001600160a01b0383166000908152604d60205260408120546158d5908a61c5e8565b90508082106158e857839450505061599c565b505b8781106158fa578293505061599c565b60405163792f4f6960e11b81526001600160a01b03848116600483015286169063f25e9ed29060240160206040518083038186803b15801561593b57600080fd5b505afa15801561594f573d6000803e3d6000fd5b505050506040513d601f19601f82011682018060405250810190615973919061c6f8565b92506001600160a01b038316615989575061599c565b50806159948161c5cd565b9150506157bd565b50909695505050505050565b6043602090815260009283526040808420909152908252902080546127099061c5ff565b60008083836040516020016159e292919061c8e7565b60408051808303601f19018152918152815160209283012060009081526046909252902054949350505050565b604e6020528160005260406000208181548110615a2b57600080fd5b6000918252602090912001546001600160a01b03169150829050565b60016000828152604860205260409020600b015460ff166003811115615a6f57615a6f61bc91565b14615ad65760405162461bcd60e51b815260206004820152603160248201527f676976656e204461746142617463682073686f756c6420626520415050524f5660448201527011510b08185b99081a5d081a5cc81b9bdd607a1b60648201526084016115b0565b336000908152604560205260409081902090516306120d1f60e31b815260048101919091526024810182905273__$85afbab79b2b776d70bef879a32ed56424$__9063309068f89060440160206040518083038186803b158015615b3957600080fd5b505af4158015615b4d573d6000803e3d6000fd5b505050506040513d601f19601f82011682018060405250810190615b71919061c695565b615be35760405162461bcd60e51b815260206004820152603960248201527f646c6c4d61703a20646f6573206e6f7420636f696e7461696e205f446174614260448201527f61746368496420666f7220746865206d73672073656e6465720000000000000060648201526084016115b0565b336000908152604560205260409081902090516301039dfd60e11b815260048101919091526024810182905273__$85afbab79b2b776d70bef879a32ed56424$__906302073bfa9060440160006040518083038186803b158015615c4657600080fd5b505af4158015615c5a573d6000803e3d6000fd5b50505050615c6661a7ef565b604051339082907f402507661c8c8cb90e0a796450b8bdd28b6c516f05279c0cd29e84c344e1699a90600090a350565b615c9e618820565b606c80549115156101000261ff0019909216919091179055565b6001600160a01b0381166000908152604c6020526040812081805b600f8110156116f2578281600f8110615cee57615cee61c5a1565b600202016001015482615d01919061c634565b915080615d0d8161c5cd565b915050615cd3565b606d546001600160a01b0316615d3d5760405162461bcd60e51b81526004016115b09061c64c565b615d468161af65565b615d4e616a2d565b605a54141580615d675750606c5462010000900460ff16155b15614b895760005b81811015615e7d57605f5460009081526048602052604081206004015462010000900460ff161515600114801590615e2e5750606d60009054906101000a90046001600160a01b03166001600160a01b031663bd40ef4c6040518163ffffffff1660e01b815260040160206040518083038186803b158015615df057600080fd5b505afa158015615e04573d6000803e3d6000fd5b505050506040513d601f19601f82011682018060405250810190615e28919061c683565b604f5410155b8015615e4e5750605f5460009081526048602052604090206004015460ff165b15615e5f57615e5b61b0ab565b5060015b80615e6a5750615e7d565b5080615e758161c5cd565b915050615d6f565b506123ac61a7ef565b60005b8151811015611e6657615eb4828281518110615ea757615ea761c5a1565b6020026020010151615a47565b80615ebe8161c5cd565b915050615e89565b6040516bffffffffffffffffffffffff19606084901b166020820152603481018290526000906054015b60405160208183030381529060405280519060200120905092915050565b60008181526048602052604081206004015460ff16615f3f5760405162461bcd60e51b81526004016115b09061c56a565b600082815260486020526040902060050154421115801561175b575050600090815260486020526040902060020154151590565b600081604051602001615f86919061c90d565b6040516020818303038152906040528051906020012083604051602001615fad919061c90d565b604051602081830303815290604052805190602001201415615fd15750600161175b565b50600061175b565b615fe284613caa565b61603d5760405162461bcd60e51b815260206004820152602660248201527f52657665616c20706572696f64206e6f74206f70656e20666f7220746869732060448201526511185d18525160d21b60648201526084016115b0565b336000908152603e6020908152604080832087845290915290205460ff166160bf5760405162461bcd60e51b815260206004820152602f60248201527f5573657220686173206e6f7420636f6d6d69746564206265666f72652c20746860448201526e1d5cc818d85b89dd081c995d99585b608a1b60648201526084016115b0565b336000908152603f6020908152604080832087845290915290205460ff161561613f5760405162461bcd60e51b815260206004820152602c60248201527f557365722068617320616c72656164792072657665616c65642c20746875732060448201526b18d85b89dd081c995d99585b60a21b60648201526084016115b0565b6161493385614b91565b6161538483617d09565b146161e55760405162461bcd60e51b815260206004820152605660248201527f4e6f74207468652073616d652068617368207468616e20636f6d6d697465642c60448201527f20696d706f737369626c6520746f206d61746368207769746820676976656e206064820152750bee6c2d8e8404c40bec6d8cac2e492a08ca690c2e6d60531b608482015260a4016115b0565b6161ef3385616af6565b6161f98383616c0a565b146162875760405162461bcd60e51b815260206004820152605260248201527f4e6f74207468652073616d6520766f7465207468616e20636f6d6d697465642c60448201527f20696d706f737369626c6520746f206d61746368207769746820676976656e206064820152715f73616c742026205f636c656172566f746560701b608482015260a4016115b0565b60018214156162bd5760008481526048602052604081206007018054600192906162b290849061c634565b909155506162e59050565b60008481526048602052604081206008018054600192906162df90849061c634565b90915550505b336000818152603f602090815260408083208884528252808320805460ff19166001179055808252808320848452825280832086905587835260418252808320938352928152919020845161633c9286019061b9a3565b50600084815260596020526040812080546001929061635c90849061c634565b909155505033600090815260496020908152604080832087845260489092529091206003015461638e9060019061c5e8565b600086815260486020526040902060039081019190915542600283015581015460ff16156163cc57600081556163c33361a5e5565b6163cc3361b828565b606654610100900460ff161561691457606d5460408051632a49798160e11b8152905133926000926001600160a01b0390911691635492f30291600480820192602092909190829003018186803b15801561642657600080fd5b505afa15801561643a573d6000803e3d6000fd5b505050506040513d601f19601f8201168201806040525081019061645e919061c6f8565b90506000606d60009054906101000a90046001600160a01b03166001600160a01b0316630855d1516040518163ffffffff1660e01b815260040160206040518083038186803b1580156164b057600080fd5b505afa1580156164c4573d6000803e3d6000fd5b505050506040513d601f19601f820116820180604052508101906164e8919061c6f8565b90506000606d60009054906101000a90046001600160a01b03166001600160a01b03166304e76c8f6040518163ffffffff1660e01b815260040160206040518083038186803b15801561653a57600080fd5b505afa15801561654e573d6000803e3d6000fd5b505050506040513d601f19601f82011682018060405250810190616572919061c6f8565b6040516308c0a84360e11b81526001600160a01b03868116600483015291925060009185169063118150869060240160206040518083038186803b1580156165b957600080fd5b505afa1580156165cd573d6000803e3d6000fd5b505050506040513d601f19601f820116820180604052508101906165f1919061c6f8565b90506000606854606a54606d60009054906101000a90046001600160a01b03166001600160a01b0316630b08bfd96040518163ffffffff1660e01b815260040160206040518083038186803b15801561664957600080fd5b505afa15801561665d573d6000803e3d6000fd5b505050506040513d601f19601f82011682018060405250810190616681919061c683565b61668b919061c715565b616695919061c74a565b90506000606854606a54606d60009054906101000a90046001600160a01b03166001600160a01b031663f80de0a06040518163ffffffff1660e01b815260040160206040518083038186803b1580156166ed57600080fd5b505afa158015616701573d6000803e3d6000fd5b505050506040513d601f19601f82011682018060405250810190616725919061c683565b61672f919061c715565b616739919061c74a565b604051630db6cc8560e11b8152600481018490526001600160a01b0385811660248301526000604483015291925090861690631b6d990a90606401602060405180830381600087803b15801561678e57600080fd5b505af11580156167a2573d6000803e3d6000fd5b505050506040513d601f19601f820116820180604052508101906167c6919061c695565b6168275760405162461bcd60e51b815260206004820152602c60248201527f636f756c64206e6f74207265776172642052455020696e2072657665616c537060448201526b6f74436865636b2c20312e6160a01b60648201526084016115b0565b604051633832942560e21b8152600481018290526001600160a01b03848116602483015285169063e0ca509490604401602060405180830381600087803b15801561687157600080fd5b505af1158015616885573d6000803e3d6000fd5b505050506040513d601f19601f820116820180604052508101906168a9919061c695565b61690c5760405162461bcd60e51b815260206004820152602e60248201527f636f756c64206e6f742072657761726420746f6b656e20696e2072657665616c60448201526d29b837ba21b432b1b5961018973160911b60648201526084016115b0565b505050505050505b606c546301000000900460ff16801561693c5750600085815260486020526040902060030154155b1561694a5761694a8561887a565b60016060600082825461695d919061c634565b9091555061696b905061a7ef565b60008581526048602052604090819020600781015460089091015491513392869289927f965f1f4937cc1062d77f76cbd2533a8147d3202573f62b9dfd5eca47c5dcfdb1926169c1928252602082015260400190565b60405180910390a45050505050565b60008181526048602052604081206004015460ff16616a015760405162461bcd60e51b81526004016115b09061c56a565b506001600160a01b03919091166000908152603f60209081526040808320938352929052205460ff1690565b6040516bffffffffffffffffffffffff194160601b166020820152600090819042906034016040516020818303038152906040528051906020012060001c616a75919061c74a565b44616a7e6127c4565b604051602001616a9091815260200190565b60408051601f198184030181529190528051602090910120616ab2904261c634565b616abc919061c634565b616ac6919061c634565b604051602001616ad891815260200190565b60408051601f19818403018152919052805160209091012092915050565b6000611758616b058484615ec6565b6040518060400160405280600a815260200169636f6d6d6974566f746560b01b8152506159cc565b6051818154811061279a57600080fd5b6001600160a01b03811660009081526049602090815260408083208151610120810183528154808252600183015494820194909452600282015492810192909252600381015460ff80821615156060850152610100918290041615156080840152600482015460a0840152600582015460c0840152600682015460e0840152600790910154908201528291616bd285826169d0565b158015616be55750616be381612151565b155b8015616bf75750616bf581614a31565b155b15616c0157600192505b50909392505050565b6040805160208101849052908101829052600090606001615ef0565b6060600082118015616c385750818311155b8015616c45575060018310155b616c915760405162461bcd60e51b815260206004820152601960248201527f6b206f72204e20617265206e6f74204f4b20666f7220524e470000000000000060448201526064016115b0565b6000616c9b616a2d565b604051602001616cad91815260200190565b60408051601f19818403018152828252805160209182012081840152815180840382018152928201909152815191012090506000846001600160401b03811115616cf957616cf961beb3565b604051908082528060200260200182016040528015616d22578160200160208202803683370190505b509050600080616d3360148861c634565b905060005b81811015616e7657616d4a818061c715565b616d54908661c634565b604051602001616d6691815260200190565b6040516020818303038152906040528051906020012060001c871115616d8b57616e64565b600087616d98838061c715565b616da2908861c634565b604051602001616db491815260200190565b6040516020818303038152906040528051906020012060001c616dd7919061c929565b90506000805b85811015616e215782878281518110616df857616df861c5a1565b60200260200101511415616e0f5760019150616e21565b80616e198161c5cd565b915050616ddd565b5080616e535781868681518110616e3a57616e3a61c5a1565b6020908102919091010152616e5085600161c634565b94505b898510616e61575050616e76565b50505b80616e6e8161c5cd565b915050616d38565b5086821015616f2a5760005b86811015616f2857806000805b85811015616ed35782878281518110616eaa57616eaa61c5a1565b60200260200101511415616ec15760019150616ed3565b80616ecb8161c5cd565b915050616e8f565b5080616f055781868681518110616eec57616eec61c5a1565b6020908102919091010152616f0285600161c634565b94505b898510616f13575050616f28565b50508080616f209061c5cd565b915050616e82565b505b868214616f6c5760405162461bcd60e51b815260206004820152601060248201526f149391c81a5b9cdd59999a58da595b9d60821b60448201526064016115b0565b509095945050505050565b6000616f8283612151565b616fe15760405162461bcd60e51b815260206004820152602a60248201527f5f446174614261746368496420636865636b696e6720766f7465206d757374206044820152691a185d9948195b99195960b21b60648201526084016115b0565b6001600160a01b0384166000908152603f6020908152604080832086845290915290205460ff166170685760405162461bcd60e51b815260206004820152602b60248201527f75736572206d75737420686176652072657665616c656420696e20746869732060448201526a0ced2eccadc4084c2e8c6d60ab1b60648201526084016115b0565b600061707384613d07565b61707e576000617081565b60015b60ff169050600081846040516020016170a4929190918252602082015260400190565b60405160208183030381529060405280519060200120905060006170c88787616af6565b905080821461712b5760405162461bcd60e51b815260206004820152602960248201527f6765744e756d50617373696e67546f6b656e733a20686173686573206d75737460448201526808189948195c5d585b60ba1b60648201526084016115b0565b614ded87876171b8565b6000614c0d336125a0565b6060600061714e8484616c26565b949350505050565b61715e618820565b606c805460ff1916911515919091179055565b60008181526048602052604081206004015460ff166171a25760405162461bcd60e51b81526004016115b09061c56a565b5060009081526048602052604090206005015490565b60006117586171c78484615ec6565b604051806040016040528060098152602001686e756d546f6b656e7360b81b8152506159cc565b6000828152604e6020908152604080832080548251818502810185019093528083528493849392919083018282801561725057602002820191906000526020600020905b81546001600160a01b03168152600190910190602001808311617232575b5050505050905060005b81518110156172b157846001600160a01b031682828151811061727f5761727f61c5a1565b60200260200101516001600160a01b0316141561729f57600192506172b1565b806172a98161c5cd565b91505061725a565b5090949350505050565b60008181526048602052604090206004015460609060ff166172ef5760405162461bcd60e51b81526004016115b09061c56a565b6000828152604e602090815260408083208054825181850281018501909352808352919290919083018282801561734f57602002820191906000526020600020905b81546001600160a01b03168152600190910190602001808311617331575b50505050509050600081516001600160401b038111156173715761737161beb3565b6040519080825280602002602001820160405280156173a457816020015b606081526020019060019003908161738f5790505b50905060005b82518110156116f2576041600086815260200190815260200160002060008483815181106173da576173da61c5a1565b60200260200101516001600160a01b03166001600160a01b03168152602001908152602001600020805461740d9061c5ff565b80601f01602080910402602001604051908101604052809291908181526020018280546174399061c5ff565b80156174865780601f1061745b57610100808354040283529160200191617486565b820191906000526020600020905b81548152906001019060200180831161746957829003601f168201915b505050505082828151811061749d5761749d61c5a1565b602002602001018190525080806174b39061c5cd565b9150506173aa565b6174c361ba7d565b60008281526048602052604090206004015460ff166174e157600080fd5b60008281526048602090815260409182902082516101c0810184528154815260018201549281019290925260028101549282019290925260038201546060820152600482015460ff808216151560808401526101008083048216151560a08501526201000090920416151560c0830152600583015460e083015260068301549082015260078201546101208201526008820154610140820152600982018054919291610160840191906175939061c5ff565b80601f01602080910402602001604051908101604052809291908181526020018280546175bf9061c5ff565b801561760c5780601f106175e15761010080835404028352916020019161760c565b820191906000526020600020905b8154815290600101906020018083116175ef57829003601f168201915b5050509183525050600a8201546020820152600b82015460409091019060ff1660038111156145fa576145fa61bc91565b60008181526048602052604090206004015460609060ff1661765e57600080fd5b6000828152604860205260409020600901805461767a9061c5ff565b80601f01602080910402602001604051908101604052809291908181526020018280546176a69061c5ff565b80156143bf5780601f106176c8576101008083540402835291602001916143bf565b820191906000526020600020905b8154815290600101906020018083116176d65750939695505050505050565b606d546001600160a01b031661771d5760405162461bcd60e51b81526004016115b09061c64c565b6000617729338361553c565b9050600061773682614a22565b6001600160a01b0383166000908152604d6020526040902054617759919061c5e8565b9050828110156177bb5760405162461bcd60e51b815260206004820152602760248201527f617661696c61626c65546f6b656e732073686f756c64206265203e3d205f6e756044820152666d546f6b656e7360c81b60648201526084016115b0565b606d546040805163ca64f9e760e01b815290516000926001600160a01b03169163ca64f9e7916004808301926020929190829003018186803b15801561780057600080fd5b505afa158015617814573d6000803e3d6000fd5b505050506040513d601f19601f82011682018060405250810190617838919061c6f8565b6001600160a01b0384166000908152604d602052604081208054929350869290919061786590849061c5e8565b9091555050604051630895993360e11b8152600481018590526001600160a01b03848116602483015282169063112b326690604401602060405180830381600087803b1580156178b457600080fd5b505af11580156178c8573d6000803e3d6000fd5b505050506040513d601f19601f820116820180604052508101906178ec919061c695565b61795e5760405162461bcd60e51b815260206004820152603b60248201527f436f756c64206e6f74207769746864726177566f74696e67526967687473207460448201527f68726f7567682050726f78795374616b654465616c6c6f63617465000000000060648201526084016115b0565b61796661a7ef565b826001600160a01b03167ffaeb7dbb9992397d26ea1944efd40c80b40f702faf69b46c67ad10aba68ccb79856040516179a191815260200190565b60405180910390a250505050565b60008181526048602052604090206004015460609060ff166179e35760405162461bcd60e51b81526004016115b09061c56a565b600082815260486020908152604080832081516101c0810183528154815260018201549381019390935260028101549183019190915260038101546060830152600481015460ff808216151560808501526101008083048216151560a08601526201000090920416151560c0840152600582015460e08401526006820154908301526007810154610120830152600881015461014083015260098101805461016084019190617a919061c5ff565b80601f0160208091040260200160405190810160405280929190818152602001828054617abd9061c5ff565b8015617b0a5780601f10617adf57610100808354040283529160200191617b0a565b820191906000526020600020905b815481529060010190602001808311617aed57829003601f168201915b5050509183525050600a8201546020820152600b82015460409091019060ff166003811115617b3b57617b3b61bc91565b6003811115617b4c57617b4c61bc91565b90525060208101519091506000816001600160401b03811115617b7157617b7161beb3565b604051908082528060200260200182016040528015617ba457816020015b6060815260200190600190039081617b8f5790505b50905060005b82811015611bb3578351600090617bc290839061c634565b600081815260476020526040812080549293509091617be09061c5ff565b80601f0160208091040260200160405190810160405280929190818152602001828054617c0c9061c5ff565b8015617c595780601f10617c2e57610100808354040283529160200191617c59565b820191906000526020600020905b815481529060010190602001808311617c3c57829003601f168201915b5050505050905080848481518110617c7357617c7361c5a1565b602002602001018190525050508080617c8b9061c5cd565b915050617baa565b617c9b618820565b6001600160a01b038116617d005760405162461bcd60e51b815260206004820152602660248201527f4f776e61626c653a206e6577206f776e657220697320746865207a65726f206160448201526564647265737360d01b60648201526084016115b0565b6123ac8161ad03565b60008282604051602001615ef092919061c93d565b336000908152604960209081526040808320604b9092529091205460ff16617d9b57604a805460018181019092557ffcc5ba1a98fc477b8948a04d08c6f4a76181fe75021370ab5e6abd22b1792a2a0180546001600160a01b031916339081179091556000908152604b60205260409020805460ff191690911790555b606d546001600160a01b0316617dc35760405162461bcd60e51b81526004016115b09061c64c565b606d60009054906101000a90046001600160a01b03166001600160a01b03166398a54e2b6040518163ffffffff1660e01b815260040160206040518083038186803b158015617e1157600080fd5b505afa158015617e25573d6000803e3d6000fd5b505050506040513d601f19601f82011682018060405250810190617e49919061c683565b605054604f54617e59919061c634565b10617eb15760405162461bcd60e51b815260206004820152602260248201527f4d6178696d756d207265676973746572656420776f726b65727320616c726561604482015261647960f01b60648201526084016115b0565b600381015460ff1615617f065760405162461bcd60e51b815260206004820181905260248201527f576f726b657220697320616c726561647920726567697374657265642028312960448201526064016115b0565b3360009081526052602052604090205460ff16158015617f3657503360009081526053602052604090205460ff16155b617f825760405162461bcd60e51b815260206004820181905260248201527f576f726b657220697320616c726561647920726567697374657265642028322960448201526064016115b0565b606d60009054906101000a90046001600160a01b03166001600160a01b0316639fb491f66040518163ffffffff1660e01b815260040160206040518083038186803b158015617fd057600080fd5b505afa158015617fe4573d6000803e3d6000fd5b505050506040513d601f19601f82011682018060405250810190618008919061c683565b8160010154101580156180ad5750606d60009054906101000a90046001600160a01b03166001600160a01b0316630f1f0ffe6040518163ffffffff1660e01b815260040160206040518083038186803b15801561806457600080fd5b505afa158015618078573d6000803e3d6000fd5b505050506040513d601f19601f8201168201806040525081019061809c919061c683565b60048201546180ab904261c5e8565b105b156181105760405162461bcd60e51b815260206004820152602d60248201527f41646472657373206b69636b65642074656d706f726172696c792066726f6d2060448201526c3830b93a34b1b4b830ba34b7b760991b60648201526084016115b0565b606c5460ff161561820057606d54604080516001624ee91360e11b0319815290516000926001600160a01b03169163ff622dda916004808301926020929190829003018186803b15801561816357600080fd5b505afa158015618177573d6000803e3d6000fd5b505050506040513d601f19601f8201168201806040525081019061819b919061c683565b905060006181a9338361553c565b6001600160a01b0381166000908152604d60205260409020549091508211156181fd576001600160a01b0381166000908152604d60205260408120546181ef908461c5e8565b90506181fb818361aa7a565b505b50505b6182093361b828565b60038101805461ffff1916600190811790915542600483015560008282018190556060805490919061823c90849061c634565b9091555061824a905061a7ef565b60405142815233907f439d77b7534ec3108fc6143bd4fbabde0b9f2bb54f7b0730d1f70dd2135b765f9060200160405180910390a250565b61828a618820565b6066805460ff191692151592909217909155606755565b6182a9618820565b606b55565b6001600160a01b03811660009081526049602090815260408083208151610120810183528154808252600183015494820194909452600282015492810192909252600381015460ff80821615156060850152610100918290041615156080840152600482015460a0840152600582015460c0840152600682015460e084015260079091015490820152906183428482614c12565b158015618353575061835381614a31565b15612599575060009392505050565b606060008311801561837357508183105b61838f5760405162461bcd60e51b81526004016115b09061c82a565b6000835b61839e84600161c634565b81101561853957600081815260486020908152604080832081516101c0810183528154815260018201549381019390935260028101549183019190915260038101546060830152600481015460ff808216151560808501526101008083048216151560a08601526201000090920416151560c0840152600582015460e084015260068201549083015260078101546101208301526008810154610140830152600981018054610160840191906184539061c5ff565b80601f016020809104026020016040519081016040528092919081815260200182805461847f9061c5ff565b80156184cc5780601f106184a1576101008083540402835291602001916184cc565b820191906000526020600020905b8154815290600101906020018083116184af57829003601f168201915b5050509183525050600a8201546020820152600b82015460409091019060ff1660038111156184fd576184fd61bc91565b600381111561850e5761850e61bc91565b9052506020810151909150618523908461c634565b92505080806185319061c5cd565b915050618393565b506000816001600160401b038111156185545761855461beb3565b60405190808252806020026020018201604052801561858757816020015b60608152602001906001900390816185725790505b5090506000855b61859986600161c634565b811015616f6c57600081815260486020908152604080832081516101c0810183528154815260018201549381019390935260028101549183019190915260038101546060830152600481015460ff808216151560808501526101008083048216151560a08601526201000090920416151560c0840152600582015460e0840152600682015490830152600781015461012083015260088101546101408301526009810180546101608401919061864e9061c5ff565b80601f016020809104026020016040519081016040528092919081815260200182805461867a9061c5ff565b80156186c75780601f1061869c576101008083540402835291602001916186c7565b820191906000526020600020905b8154815290600101906020018083116186aa57829003601f168201915b5050509183525050600a8201546020820152600b82015460409091019060ff1660038111156186f8576186f861bc91565b60038111156187095761870961bc91565b905250905060005b816020015181101561880b57815160009061872d90839061c634565b60008181526047602052604081208054929350909161874b9061c5ff565b80601f01602080910402602001604051908101604052809291908181526020018280546187779061c5ff565b80156187c45780601f10618799576101008083540402835291602001916187c4565b820191906000526020600020905b8154815290600101906020018083116187a757829003601f168201915b50505050509050808787815181106187de576187de61c5a1565b60209081029190910101526187f460018761c634565b9550505080806188039061c5cd565b915050618711565b505080806188189061c5cd565b91505061858e565b6000546001600160a01b03163314614a875760405162461bcd60e51b815260206004820181905260248201527f4f776e61626c653a2063616c6c6572206973206e6f7420746865206f776e657260448201526064016115b0565b606d546001600160a01b03166188a25760405162461bcd60e51b81526004016115b09061c64c565b606d5460408051632a49798160e11b815290516000926001600160a01b031691635492f302916004808301926020929190829003018186803b1580156188e757600080fd5b505afa1580156188fb573d6000803e3d6000fd5b505050506040513d601f19601f8201168201806040525081019061891f919061c6f8565b6001600160a01b031614156189465760405162461bcd60e51b81526004016115b09061c861565b606d5460408051630855d15160e01b815290516000926001600160a01b031691630855d151916004808301926020929190829003018186803b15801561898b57600080fd5b505afa15801561899f573d6000803e3d6000fd5b505050506040513d601f19601f820116820180604052508101906189c3919061c6f8565b6001600160a01b03161415618a1a5760405162461bcd60e51b815260206004820181905260248201527f5265704d616e61676572206973206e756c6c20696e20506172616d657465727360448201526064016115b0565b606d54604080516304e76c8f60e01b815290516000926001600160a01b0316916304e76c8f916004808301926020929190829003018186803b158015618a5f57600080fd5b505afa158015618a73573d6000803e3d6000fd5b505050506040513d601f19601f82011682018060405250810190618a97919061c6f8565b6001600160a01b03161415618afa5760405162461bcd60e51b815260206004820152602360248201527f5265776172644d616e61676572206973206e756c6c20696e20506172616d657460448201526265727360e81b60648201526084016115b0565b618b0381612151565b80618b1d5750600081815260486020526040902060030154155b618b8f5760405162461bcd60e51b815260206004820152603a60248201527f5f446174614261746368496420686173206e6f7420656e6465642c206f72206e60448201527f6f7420657665727920766f74657273206861766520766f74656400000000000060648201526084016115b0565b600081815260486020526040902060040154610100900460ff1615618c005760405162461bcd60e51b815260206004820152602160248201527f5f446174614261746368496420697320616c72656164792076616c69646174656044820152601960fa1b60648201526084016115b0565b6000818152604e6020908152604080832080548251818502810185019093528083529192909190830182828015618c6057602002820191906000526020600020905b81546001600160a01b03168152600190910190602001808311618c42575b50505050509050600081516001600160401b03811115618c8257618c8261beb3565b604051908082528060200260200182016040528015618cb557816020015b6060815260200190600190039081618ca05790505b509050600082516001600160401b03811115618cd357618cd361beb3565b604051908082528060200260200182016040528015618cfc578160200160208202803683370190505b50905060005b8351811015618e55576000848281518110618d1f57618d1f61c5a1565b60209081029190910181015160008881526041835260408082206001600160a01b0384168352909352918220805491935090618d5a9061c5ff565b80601f0160208091040260200160405190810160405280929190818152602001828054618d869061c5ff565b8015618dd35780601f10618da857610100808354040283529160200191618dd3565b820191906000526020600020905b815481529060010190602001808311618db657829003601f168201915b50505060008a81526042602090815260408083206001600160a01b038916845290915290205488519394509284925088915086908110618e1557618e1561c5a1565b602002602001018190525080858581518110618e3357618e3361c5a1565b6020026020010181815250505050508080618e4d9061c5cd565b915050618d02565b506000618f006064606d60009054906101000a90046001600160a01b03166001600160a01b031663ea19733c6040518163ffffffff1660e01b815260040160206040518083038186803b158015618eab57600080fd5b505afa158015618ebf573d6000803e3d6000fd5b505050506040513d601f19601f82011682018060405250810190618ee3919061c683565b8651618eef919061c715565b618ef9919061c74a565b600161b8d3565b60408051602081019091526000808252919250905b8451811015618fd4576000805b8651811015618f9757618f67878481518110618f4057618f4061c5a1565b6020026020010151888381518110618f5a57618f5a61c5a1565b6020026020010151615f73565b15618f8557618f7760018361c634565b9150848210618f8557618f97565b80618f8f8161c5cd565b915050618f22565b50838110618fc157858281518110618fb157618fb161c5a1565b6020026020010151925050618fd4565b5080618fcc8161c5cd565b915050618f15565b506000805b8451811015619091576000805b8651811015619054578681815181106190015761900161c5a1565b602002602001015187848151811061901b5761901b61c5a1565b602002602001015114156190425761903460018361c634565b915085821061904257619054565b8061904c8161c5cd565b915050618fe6565b5084811061907e5785828151811061906e5761906e61c5a1565b6020026020010151925050619091565b50806190898161c5cd565b915050618fd9565b50600061909d88613d07565b80156190bf57506190bd8360405180602001604052806000815250615f73565b155b80156190ca57508115155b606c54909150640100000000900460ff16156193be57600088815260486020908152604080832081516101c0810183528154815260018201549381019390935260028101549183019190915260038101546060830152600481015460ff808216151560808501526101008083048216151560a08601526201000090920416151560c0840152600582015460e0840152600682015490830152600781015461012083015260088101546101408301526009810180546101608401919061918e9061c5ff565b80601f01602080910402602001604051908101604052809291908181526020018280546191ba9061c5ff565b80156192075780601f106191dc57610100808354040283529160200191619207565b820191906000526020600020905b8154815290600101906020018083116191ea57829003601f168201915b5050509183525050600a8201546020820152600b82015460409091019060ff1660038111156192385761923861bc91565b60038111156192495761924961bc91565b9052506101208101519091501561925f57600191505b6192788460405180602001604052806000815250615f73565b156193bc5760005b88518110156193ba57603f60008a838151811061929f5761929f61c5a1565b6020908102919091018101516001600160a01b0316825281810192909252604090810160009081208d825290925290205460ff166192dc576193a8565b61930e8882815181106192f1576192f161c5a1565b602002602001015160405180602001604052806000815250615f73565b61932f578781815181106193245761932461c5a1565b602002602001015194505b831580156193565750600087828151811061934c5761934c61c5a1565b6020026020010151115b156193785786818151811061936d5761936d61c5a1565b602002602001015193505b6193918560405180602001604052806000815250615f73565b15801561939e5750600084115b156193a8576193ba565b806193b28161c5cd565b915050619280565b505b505b806193cd57606a5491506193f8565b606a546000898152604860205260409020600101546193f5916193ef9161c715565b8361b8e9565b91505b60005b8751811015619b9a5760008882815181106194185761941861c5a1565b602002602001015190506000604060008c81526020019081526020016000206000836001600160a01b03166001600160a01b031681526020019081526020016000205490506000603f6000846001600160a01b03166001600160a01b0316815260200190815260200160002060008d815260200190815260200160002060009054906101000a900460ff169050600060496000856001600160a01b03166001600160a01b0316815260200190815260200160002090508115619a70576001600160a01b0384166000908152604960205260408120600101558580156194fd5750826001145b80619512575085158015619512575082600114155b15619a5057606d5460408051632a49798160e11b815290516000926001600160a01b031691635492f302916004808301926020929190829003018186803b15801561955c57600080fd5b505afa158015619570573d6000803e3d6000fd5b505050506040513d601f19601f82011682018060405250810190619594919061c6f8565b90506000606d60009054906101000a90046001600160a01b03166001600160a01b0316630855d1516040518163ffffffff1660e01b815260040160206040518083038186803b1580156195e657600080fd5b505afa1580156195fa573d6000803e3d6000fd5b505050506040513d601f19601f8201168201806040525081019061961e919061c6f8565b90506000606d60009054906101000a90046001600160a01b03166001600160a01b03166304e76c8f6040518163ffffffff1660e01b815260040160206040518083038186803b15801561967057600080fd5b505afa158015619684573d6000803e3d6000fd5b505050506040513d601f19601f820116820180604052508101906196a8919061c6f8565b6040516308c0a84360e11b81526001600160a01b03898116600483015291925060009185169063118150869060240160206040518083038186803b1580156196ef57600080fd5b505afa158015619703573d6000803e3d6000fd5b505050506040513d601f19601f82011682018060405250810190619727919061c6f8565b90508a15619a2c57826001600160a01b0316631b6d990a8c606d60009054906101000a90046001600160a01b03166001600160a01b0316630b08bfd96040518163ffffffff1660e01b815260040160206040518083038186803b15801561978d57600080fd5b505afa1580156197a1573d6000803e3d6000fd5b505050506040513d601f19601f820116820180604052508101906197c5919061c683565b6197cf919061c715565b6040516001600160e01b031960e084901b16815260048101919091526001600160a01b038416602482015260006044820152606401602060405180830381600087803b15801561981e57600080fd5b505af1158015619832573d6000803e3d6000fd5b505050506040513d601f19601f82011682018060405250810190619856919061c695565b6198b05760405162461bcd60e51b815260206004820152602560248201527f636f756c64206e6f74207265776172642052455020696e2056616c69646174656044820152642c20312e6160d81b60648201526084016115b0565b816001600160a01b031663e0ca50948c606d60009054906101000a90046001600160a01b03166001600160a01b031663f80de0a06040518163ffffffff1660e01b815260040160206040518083038186803b15801561990e57600080fd5b505afa158015619922573d6000803e3d6000fd5b505050506040513d601f19601f82011682018060405250810190619946919061c683565b619950919061c715565b6040516001600160e01b031960e084901b16815260048101919091526001600160a01b0384166024820152604401602060405180830381600087803b15801561999857600080fd5b505af11580156199ac573d6000803e3d6000fd5b505050506040513d601f19601f820116820180604052508101906199d0919061c695565b619a2c5760405162461bcd60e51b815260206004820152602760248201527f636f756c64206e6f742072657761726420746f6b656e20696e2056616c6964616044820152663a32961018973160c91b60648201526084016115b0565b6001856006016000828254619a41919061c634565b90915550619b83945050505050565b6001816007016000828254619a65919061c634565b90915550619b839050565b6001600160a01b03841660009081526049602052604081206001908101805491929091619a9e90849061c634565b9091555050606d5460408051634fda48fb60e11b815290516001600160a01b0390921691639fb491f691600480820192602092909190829003018186803b158015619ae857600080fd5b505afa158015619afc573d6000803e3d6000fd5b505050506040513d601f19601f82011682018060405250810190619b20919061c683565b6001600160a01b03851660009081526049602052604090206001015410619b5f5760038101805460ff19169055619b568461a5e5565b619b5f8461a4b9565b600381015460ff1615619b7e57619b758461a5e5565b619b7e8461b828565b600081555b505050508080619b929061c5cd565b9150506193fb565b50600088815260486020908152604090912060048101805461ff0019166101001790558451619bd19260099092019186019061b9a3565b506000888152604860205260409020600a01829055801561a3525760008881526048602052604081208054600190910154909190619c0f908361c634565b9050815b8181101561a0de57600081815260476020908152604080832060010154606d548251632a49798160e11b815292516001600160a01b0392831695949190921692635492f3029260048083019392829003018186803b158015619c7457600080fd5b505afa158015619c88573d6000803e3d6000fd5b505050506040513d601f19601f82011682018060405250810190619cac919061c6f8565b90506000606d60009054906101000a90046001600160a01b03166001600160a01b0316630855d1516040518163ffffffff1660e01b815260040160206040518083038186803b158015619cfe57600080fd5b505afa158015619d12573d6000803e3d6000fd5b505050506040513d601f19601f82011682018060405250810190619d36919061c6f8565b90506000606d60009054906101000a90046001600160a01b03166001600160a01b03166304e76c8f6040518163ffffffff1660e01b815260040160206040518083038186803b158015619d8857600080fd5b505afa158015619d9c573d6000803e3d6000fd5b505050506040513d601f19601f82011682018060405250810190619dc0919061c6f8565b6040516308c0a84360e11b81526001600160a01b03868116600483015291925060009185169063118150869060240160206040518083038186803b158015619e0757600080fd5b505afa158015619e1b573d6000803e3d6000fd5b505050506040513d601f19601f82011682018060405250810190619e3f919061c6f8565b9050891561a0c657826001600160a01b0316631b6d990a8b606d60009054906101000a90046001600160a01b03166001600160a01b031663abb10b9b6040518163ffffffff1660e01b815260040160206040518083038186803b158015619ea557600080fd5b505afa158015619eb9573d6000803e3d6000fd5b505050506040513d601f19601f82011682018060405250810190619edd919061c683565b619ee7919061c715565b6040516001600160e01b031960e084901b16815260048101919091526001600160a01b038416602482015260006044820152606401602060405180830381600087803b158015619f3657600080fd5b505af1158015619f4a573d6000803e3d6000fd5b505050506040513d601f19601f82011682018060405250810190619f6e919061c695565b619f8a5760405162461bcd60e51b81526004016115b09061c75e565b816001600160a01b031663e0ca50948b606d60009054906101000a90046001600160a01b03166001600160a01b03166330c0bb796040518163ffffffff1660e01b815260040160206040518083038186803b158015619fe857600080fd5b505afa158015619ffc573d6000803e3d6000fd5b505050506040513d601f19601f8201168201806040525081019061a020919061c683565b61a02a919061c715565b6040516001600160e01b031960e084901b16815260048101919091526001600160a01b0384166024820152604401602060405180830381600087803b15801561a07257600080fd5b505af115801561a086573d6000803e3d6000fd5b505050506040513d601f19601f8201168201806040525081019061a0aa919061c695565b61a0c65760405162461bcd60e51b81526004016115b09061c7ac565b5050505050808061a0d69061c5cd565b915050619c13565b5060008a8152604860205260408120600b01805460ff19166001908117909155606280549192909161a11190849061c634565b9091555050606d5460408051637b39b17f60e11b815290516000926001600160a01b03169163f67362fe916004808301926020929190829003018186803b15801561a15b57600080fd5b505afa15801561a16f573d6000803e3d6000fd5b505050506040513d601f19601f8201168201806040525081019061a193919061c6f8565b6001600160a01b0316141561a1ff5760405162461bcd60e51b815260206004820152602c60248201527f436f6d706c69616e636553797374656d206e756c6c20696e20506172616d657460448201526b195c9cc810dbdb9d1c9858dd60a21b60648201526084016115b0565b606d5460408051637b39b17f60e11b815290516000926001600160a01b03169163f67362fe916004808301926020929190829003018186803b15801561a24457600080fd5b505afa15801561a258573d6000803e3d6000fd5b505050506040513d601f19601f8201168201806040525081019061a27c919061c6f8565b6040516348257dc960e01b8152600481018d90529091506001600160a01b038216906348257dc990602401600060405180830381600087803b15801561a2c157600080fd5b505af192505050801561a2d2575060015b61a331573d80801561a300576040519150601f19603f3d011682016040523d82523d6000602084013e61a305565b606091505b5060008051602061c99a8339815191528160405161a323919061bea0565b60405180910390a15061a34a565b60016060600082825461a344919061c634565b90915550505b50505061a387565b6000888152604860205260408120600b01805460ff19166002179055606380546001929061a38190849061c634565b90915550505b60016060600082825461a39a919061c634565b90915550506000888152604860205260408120600a0154606180549192909161a3c490849061c634565b90915550506000888152604860209081526040909120600a01549061a3eb6001600f61c5e8565b600f811061a3fb5761a3fb61c5a1565b60020201600101600082825461a411919061c634565b9091555061a41f9050611cd5565b600088815260486020526040812060020154606480549192909161a44490849061c634565b9091555050600088815260486020526040812060030154606580549192909161a46e90849061c634565b92505081905550877f98bfbdd7dba62d9141cf4f07139f8e53c0d00c0b44cad36d148730680b162161848360405161a4a792919061c95f565b60405180910390a25050505050505050565b6001600160a01b03811660009081526052602052604090205460ff16156123ac576001600160a01b038116600090815260556020526040812054604f805491929161a5069060019061c5e8565b8154811061a5165761a51661c5a1565b60009182526020808320909101546001600160a01b038681168452605283526040808520805460ff19169055606e54605590945290932091909155604f549116915060021161a5ad5780604f838154811061a5735761a57361c5a1565b600091825260208083209190910180546001600160a01b0319166001600160a01b0394851617905591831681526055909152604090208290555b604f80548061a5be5761a5be61c983565b600082815260209020810160001990810180546001600160a01b0319169055019055505050565b6001600160a01b03811660009081526053602052604090205460ff16156123ac576001600160a01b0381166000908152605660205260408120546050805491929161a6329060019061c5e8565b8154811061a6425761a64261c5a1565b60009182526020808320909101546001600160a01b038681168452605383526040808520805460ff19169055606e546056909452909320919091556050549116915060021161a6d957806050838154811061a69f5761a69f61c5a1565b600091825260208083209190910180546001600160a01b0319166001600160a01b0394851617905591831681526056909152604090208290555b605080548061a5be5761a5be61c983565b6001600160a01b03811660009081526054602052604090205460ff16156123ac576001600160a01b0381166000908152605760205260408120546051805491929161a7379060019061c5e8565b8154811061a7475761a74761c5a1565b60009182526020808320909101546001600160a01b038681168452605483526040808520805460ff19169055606e546057909452909320919091556050549116915060021161a7de57806051838154811061a7a45761a7a461c5a1565b600091825260208083209190910180546001600160a01b0319166001600160a01b0394851617905591831681526057909152604090208290555b605180548061a5be5761a5be61c983565b606d546001600160a01b031661a8175760405162461bcd60e51b81526004016115b09061c64c565b606d5460408051632abe0d5f60e11b815290516000926001600160a01b03169163557c1abe916004808301926020929190829003018186803b15801561a85c57600080fd5b505afa15801561a870573d6000803e3d6000fd5b505050506040513d601f19601f8201168201806040525081019061a894919061c6f8565b90506001600160a01b03811661a8ec5760405162461bcd60e51b815260206004820152601d60248201527f734675656c3a206e756c6c2041646472657373204e6f742056616c696400000060448201526064016115b0565b6040513360248201526000906001600160a01b0383169060440160408051601f198184030181529181526020820180516001600160e01b0316631f5ac9c560e11b1790525161a93b919061c90d565b6000604051808303816000865af19150503d806000811461a978576040519150601f19603f3d011682016040523d82523d6000602084013e61a97d565b606091505b50506040513360248201529091506000906001600160a01b0384169060440160408051601f198184030181529181526020820180516001600160e01b03166358563d2160e01b1790525161a9d1919061c90d565b6000604051808303816000865af19150503d806000811461aa0e576040519150601f19603f3d011682016040523d82523d6000602084013e61aa13565b606091505b50509050818061aa205750805b611cd05760405162461bcd60e51b815260206004820152602560248201527f72656365697665722072656a6563746564205f7265747269657665534675656c6044820152640818d85b1b60da1b60648201526084016115b0565b606d546040805163ca64f9e760e01b815290516000926001600160a01b03169163ca64f9e7916004808301926020929190829003018186803b15801561aabf57600080fd5b505afa15801561aad3573d6000803e3d6000fd5b505050506040513d601f19601f8201168201806040525081019061aaf7919061c6f8565b6001600160a01b0316141561ab1e5760405162461bcd60e51b81526004016115b09061c8a5565b606d546040805163ca64f9e760e01b815290516000926001600160a01b03169163ca64f9e7916004808301926020929190829003018186803b15801561ab6357600080fd5b505afa15801561ab77573d6000803e3d6000fd5b505050506040513d601f19601f8201168201806040525081019061ab9b919061c6f8565b6040516304ada21f60e21b8152600481018590526001600160a01b038481166024830152919250908216906312b6887c90604401602060405180830381600087803b15801561abe957600080fd5b505af115801561abfd573d6000803e3d6000fd5b505050506040513d601f19601f8201168201806040525081019061ac21919061c695565b61ac935760405162461bcd60e51b815260206004820152603f60248201527f436f756c64206e6f74207265717565737420656e6f75676820616c6c6f63617460448201527f6564207374616b652c2072657175657374416c6c6f63617465645374616b650060648201526084016115b0565b6001600160a01b0382166000908152604d60205260408120805485929061acbb90849061c634565b90915550506040518381526001600160a01b038316907f5aa5d56140767016c877a5333ac3e1ad31a09051098a8fdf7297c4b64530a9429060200160405180910390a2505050565b600080546001600160a01b038381166001600160a01b0319831681178455604051919092169283917f8be0079c531659141344cd1fd0a4f28419497f9722a3daafe3b4186f6b6457e09190a35050565b6000605c54605e5461ad65919061c5e8565b9050606d60009054906101000a90046001600160a01b03166001600160a01b031663e3115d3c6040518163ffffffff1660e01b815260040160206040518083038186803b15801561adb557600080fd5b505afa15801561adc9573d6000803e3d6000fd5b505050506040513d601f19601f8201168201806040525081019061aded919061c683565b8111156123ac5760005b606d54604080516307d630cb60e41b8152905161ae75926001600160a01b031691637d630cb0916004808301926020929190829003018186803b15801561ae3d57600080fd5b505afa15801561ae51573d6000803e3d6000fd5b505050506040513d601f19601f820116820180604052508101906193ef919061c683565b811015611e6657605c546000908152604860205260408120805460019091015490919061aea2908361c634565b9050815b8181101561af235760008181526047602052604081209061aec7828261bafd565b6001820180546001600160a01b03191690556000600283018190556003830181905561aef790600484019061bafd565b61af0560058301600061bafd565b50600601805460ff191690558061af1b8161c5cd565b91505061aea6565b50605c546040517f72c2fcc891fe835b86fc8bb9abdc52adf52499c52289b3c49e1461eabea2717590600090a25050808061af5d9061c5cd565b91505061adf7565b600061af768260518054905061b8e9565b905060005b8181101561b0555760006051828154811061af985761af9861c5a1565b60009182526020808320909101546001600160a01b03168083526049909152604090912080549192509061b0405760038101805461ffff1916905561afdc8261a4b9565b61afe58261a5e5565b6001600160a01b03821660008181526054602052604090819020805460ff19169055517f9dadcedba048e92b943ea1c5861cee1df63a566d7f795869c004780c1c698e2b9061b0379042815260200190565b60405180910390a25b5050808061b04d9061c5cd565b91505061af7b565b50605154611e6657611e666051600061bb37565b6000838360405160200161b07e92919061c8e7565b60408051601f19818403018152918152815160209283012060009081526046909252902091909155505050565b605f5460009081526048602052604090206004015460ff1661b12e5760405162461bcd60e51b815260206004820152603660248201527f43616e277420616c6c6f6361746520776f726b2c207468652063757272656e74604482015275206261746368206973206e6f7420636f6d706c65746560501b60648201526084016115b0565b605f5460009081526048602052604090206004015462010000900460ff161561b1bf5760405162461bcd60e51b815260206004820152603b60248201527f43616e277420616c6c6f6361746520776f726b2c207468652063757272656e7460448201527f20626174636820697320616c726561647920616c6c6f6361746564000000000060648201526084016115b0565b600061b2e361b258604f80549050606d60009054906101000a90046001600160a01b03166001600160a01b031663dfeceed76040518163ffffffff1660e01b815260040160206040518083038186803b15801561b21b57600080fd5b505afa15801561b22f573d6000803e3d6000fd5b505050506040513d601f19601f8201168201806040525081019061b253919061c683565b61b8e9565b606d60009054906101000a90046001600160a01b03166001600160a01b031663bd40ef4c6040518163ffffffff1660e01b815260040160206040518083038186803b15801561b2a657600080fd5b505afa15801561b2ba573d6000803e3d6000fd5b505050506040513d601f19601f8201168201806040525081019061b2de919061c683565b61b8d3565b9050603281111561b35c5760405162461bcd60e51b815260206004820152603960248201527f73656c65637465645f6b206d757374206265206174206d6f7374204d41585f5760448201527f4f524b45525f414c4c4f43415445445f5045525f42415443480000000000000060648201526084016115b0565b604f54606d546040805163189460df60e31b815290516001600160a01b039092169163c4a306f891600480820192602092909190829003018186803b15801561b3a457600080fd5b505afa15801561b3b8573d6000803e3d6000fd5b505050506040513d601f19601f8201168201806040525081019061b3dc919061c683565b60015461b3e9904261c5e8565b10611e6657605f8054600090815260486020908152604080832060030186905592548252828220600201859055606d548351631b4930b560e11b8152935192936001600160a01b0390911692633692616a92600480840193919291829003018186803b15801561b45857600080fd5b505afa15801561b46c573d6000803e3d6000fd5b505050506040513d601f19601f8201168201806040525081019061b490919061c683565b61b49a904261c634565b90506000606d60009054906101000a90046001600160a01b03166001600160a01b03166372e540306040518163ffffffff1660e01b815260040160206040518083038186803b15801561b4ec57600080fd5b505afa15801561b500573d6000803e3d6000fd5b505050506040513d601f19601f8201168201806040525081019061b524919061c683565b61b52e908361c634565b605f8054600090815260486020526040808220600501869055825482528082206006018490559154815220600401805462ff000019166201000017905590506001841080159061b57f575060018310155b61b5de5760405162461bcd60e51b815260206004820152602a60248201527f4661696c20647572696e6720616c6c6f636174696f6e3a206e6f7420656e6f75604482015269676820776f726b65727360b01b60648201526084016115b0565b600061b5ea8585617140565b9050600081516001600160401b0381111561b6075761b60761beb3565b60405190808252806020026020018201604052801561b630578160200160208202803683370190505b50905060005b825181101561b6c557604f83828151811061b6535761b65361c5a1565b60200260200101518154811061b66b5761b66b61c5a1565b9060005260206000200160009054906101000a90046001600160a01b031682828151811061b69b5761b69b61c5a1565b6001600160a01b03909216602092830291909101909101528061b6bd8161c5cd565b91505061b636565b5060005b825181101561b7db57600082828151811061b6e65761b6e661c5a1565b60200260200101519050600060496000836001600160a01b03166001600160a01b03168152602001908152602001600020905061b7228261a4b9565b61b72b8261b8f8565b605f80546000908152604e60209081526040822080546001808201835591845291832090910180546001600160a01b0319166001600160a01b0387161790559154835560058301805490919061b78290849061c634565b9091555050605f546040516001600160a01b03841681527fe4ee2dfabe57cee15e3f558890b20455f54c1fa0718e5276faad70a6500e6b8c9060200160405180910390a25050808061b7d39061c5cd565b91505061b6c9565b50426001908155605f805460009061b7f490849061c634565b9091555061b8029050616a2d565b605a8190555060016060600082825461b81b919061c634565b9091555050505050505050565b6001600160a01b03811660009081526052602052604090205460ff166123ac57604f8054600180820183557fa2e8f972dc9f7d0b76177bb8be102e6bec069ee42c61080745e8825470e80c6c90910180546001600160a01b0319166001600160a01b0385169081179091556000908152605260205260409020805460ff191682179055905461b8b7919061c5e8565b6001600160a01b03821660009081526055602052604090205550565b600081831161b8e25781611758565b5090919050565b600081831061b8e25781611758565b6001600160a01b03811660009081526053602052604090205460ff166123ac5760508054600180820183557f5529612556959ef813dbe8d0ed29336ab75e80a9b7855030760b2917b01e568a90910180546001600160a01b0319166001600160a01b0385169081179091556000908152605360205260409020805460ff191682179055905461b987919061c5e8565b6001600160a01b03821660009081526056602052604090205550565b82805461b9af9061c5ff565b90600052602060002090601f01602090048101928261b9d1576000855561ba17565b82601f1061b9ea57805160ff191683800117855561ba17565b8280016001018555821561ba17579182015b8281111561ba1757825182559160200191906001019061b9fc565b5061ba2392915061bb51565b5090565b6040518060e001604052806060815260200160006001600160a01b03168152602001600081526020016000815260200160608152602001606081526020016000600381111561ba785761ba7861bc91565b905290565b604051806101c00160405280600081526020016000815260200160008152602001600081526020016000151581526020016000151581526020016000151581526020016000815260200160008152602001600081526020016000815260200160608152602001600081526020016000600381111561ba785761ba7861bc91565b50805461bb099061c5ff565b6000825580601f1061bb19575050565b601f0160209004906000526020600020908101906123ac919061bb51565b50805460008255906000526020600020908101906123ac91905b5b8082111561ba23576000815560010161bb52565b60006020828403121561bb7857600080fd5b5035919050565b600081518084526020808501945080840160005b8381101561bbaf5781518752958201959082019060010161bb93565b509495945050505050565b602081526000611758602083018461bb7f565b6001600160a01b03811681146123ac57600080fd5b60006020828403121561bbf457600080fd5b81356125998161bbcd565b80151581146123ac57600080fd5b6000806040838503121561bc2057600080fd5b823561bc2b8161bbff565b946020939093013593505050565b60005b8381101561bc5457818101518382015260200161bc3c565b838111156143595750506000910152565b6000815180845261bc7d81602086016020860161bc39565b601f01601f19169290920160200192915050565b634e487b7160e01b600052602160045260246000fd5b6004811061bcc557634e487b7160e01b600052602160045260246000fd5b9052565b60e08152600061bcdc60e083018a61bc65565b6001600160a01b03891660208401526040830188905260608301879052828103608084015261bd0b818761bc65565b905082810360a084015261bd1f818661bc65565b91505061bd2f60c083018461bca7565b98975050505050505050565b6000806040838503121561bd4e57600080fd5b50508035926020909101359150565b6020808252825182820181905260009190848201906040850190845b8181101561599c5783516001600160a01b03168352928401929184019160010161bd79565b60006020828403121561bdb057600080fd5b81356125998161bbff565b6000602080830181845280855180835260408601915060408160051b870101925083870160005b8281101561be1057603f1988860301845261bdfe85835161bc65565b9450928501929085019060010161bde2565b5092979650505050505050565b60008060006060848603121561be3257600080fd5b833561be3d8161bbcd565b95602085013595506040909401359392505050565b6000806040838503121561be6557600080fd5b823561bc2b8161bbcd565b6000806040838503121561be8357600080fd5b82359150602083013561be958161bbcd565b809150509250929050565b602081526000611758602083018461bc65565b634e487b7160e01b600052604160045260246000fd5b604051601f8201601f191681016001600160401b038111828210171561bef15761bef161beb3565b604052919050565b60006001600160401b0382111561bf125761bf1261beb3565b5060051b60200190565b600082601f83011261bf2d57600080fd5b81356001600160401b0381111561bf465761bf4661beb3565b61bf59601f8201601f191660200161bec9565b81815284602083860101111561bf6e57600080fd5b816020850160208301376000918101602001919091529392505050565b60008083601f84011261bf9d57600080fd5b5081356001600160401b0381111561bfb457600080fd5b6020830191508360208260051b85010111156141af57600080fd5b600082601f83011261bfe057600080fd5b8135602061bff561bff08361bef9565b61bec9565b82815260059290921b8401810191818101908684111561c01457600080fd5b8286015b8481101561c02f578035835291830191830161c018565b509695505050505050565b60008060008060006080868803121561c05257600080fd5b85356001600160401b038082111561c06957600080fd5b818801915088601f83011261c07d57600080fd5b8135602061c08d61bff08361bef9565b82815260059290921b8401810191818101908c84111561c0ac57600080fd5b8286015b8481101561c0e45780358681111561c0c85760008081fd5b61c0d68f86838b010161bf1c565b84525091830191830161c0b0565b509950508901359250508082111561c0fb57600080fd5b61c10789838a0161bf8b565b9096509450604088013591508082111561c12057600080fd5b61c12c89838a0161bfcf565b9350606088013591508082111561c14257600080fd5b5061c14f8882890161bf1c565b9150509295509295909350565b82815260406020820152600061714e604083018461bb7f565b602081526000825160e0602084015261c19261010084018261bc65565b905060018060a01b03602085015116604084015260408401516060840152606084015160808401526080840151601f19808584030160a086015261c1d6838361bc65565b925060a08601519150808584030160c08601525061c1f4828261bc65565b91505060c08401516116f260e085018261bca7565b8e81528d60208201528c60408201528b60608201528a1515608082015289151560a082015261c23c60c082018a15159052565b8760e08201528661010082015285610120820152846101408201526101c0610160820152600061c2706101c083018661bc65565b90508361018083015261c2876101a083018461bca7565b9f9e505050505050505050505050505050565b6000806000806080858703121561c2b057600080fd5b8435935060208501359250604085013561c2c98161bbcd565b9396929550929360600135925050565b600080600080600060a0868803121561c2f157600080fd5b8535945060208601359350604086013592506060860135915060808601356001600160401b0381111561c32357600080fd5b61c14f8882890161bf1c565b6000806040838503121561c34257600080fd5b8235915060208301356001600160401b0381111561c35f57600080fd5b61c36b8582860161bf1c565b9150509250929050565b60006020828403121561c38757600080fd5b81356001600160401b0381111561c39d57600080fd5b61714e8482850161bfcf565b6000806040838503121561c3bc57600080fd5b82356001600160401b038082111561c3d357600080fd5b61c3df8683870161bf1c565b9350602085013591508082111561c3f557600080fd5b5061c36b8582860161bf1c565b6000806000806080858703121561c41857600080fd5b8435935060208501356001600160401b0381111561c43557600080fd5b61c4418782880161bf1c565b949794965050505060408301359260600135919050565b60208152815160208201526020820151604082015260408201516060820152606082015160808201526000608083015161c49660a084018215159052565b5060a083015180151560c08401525060c083015180151560e08401525060e0830151610100838101919091528301516101208084019190915283015161014080840191909152830151610160808401919091528301516101c061018080850182905261c5066101e086018461bc65565b908601516101a0868101919091528601519092506172b18286018261bca7565b6000806040838503121561c53957600080fd5b82356001600160401b0381111561c54f57600080fd5b61c55b8582860161bf1c565b95602094909401359450505050565b60208082526017908201527f5f4461746142617463684964206d757374206578697374000000000000000000604082015260600190565b634e487b7160e01b600052603260045260246000fd5b634e487b7160e01b600052601160045260246000fd5b600060001982141561c5e15761c5e161c5b7565b5060010190565b60008282101561c5fa5761c5fa61c5b7565b500390565b600181811c9082168061c61357607f821691505b602082108114156123f757634e487b7160e01b600052602260045260246000fd5b6000821982111561c6475761c64761c5b7565b500190565b6020808252601f908201527f506172616d6574657273204d616e61676572206d757374206265207365742e00604082015260600190565b6000602082840312156127da57600080fd5b60006020828403121561c6a757600080fd5b81516125998161bbff565b6000808335601e1984360301811261c6c957600080fd5b8301803591506001600160401b0382111561c6e357600080fd5b6020019150368190038213156141af57600080fd5b60006020828403121561c70a57600080fd5b81516125998161bbcd565b600081600019048311821515161561c72f5761c72f61c5b7565b500290565b634e487b7160e01b600052601260045260246000fd5b60008261c7595761c75961c734565b500490565b6020808252602e908201527f636f756c64206e6f74207265776172642052455020696e2056616c696461746560408201526d4461746142617463682c20322e6160901b606082015260800190565b60208082526030908201527f636f756c64206e6f742072657761726420746f6b656e20696e2056616c69646160408201526f3a32a230ba30a130ba31b4161019173160811b606082015260800190565b60408152600061c80f604083018561bc65565b828103602084015261c821818561bc65565b95945050505050565b6020808252601c908201527f496e70757420626f756e6461726965732061726520696e76616c696400000000604082015260600190565b60208082526024908201527f416464726573734d616e61676572206973206e756c6c20696e20506172616d656040820152637465727360e01b606082015260800190565b60208082526022908201527f5374616b654d616e61676572206973206e756c6c20696e20506172616d657465604082015261727360f01b606082015260800190565b8281526000825161c8ff81602085016020870161bc39565b919091016020019392505050565b6000825161c91f81846020870161bc39565b9190910192915050565b60008261c9385761c93861c734565b500690565b60408152600061c950604083018561bc65565b90508260208301529392505050565b60408152600061c972604083018561bc65565b905082151560208301529392505050565b634e487b7160e01b600052603160045260246000fdfe4b87bbd93ba65ede1e2efeca735d9f7a6720bf7d6db0a8355b17dba5b64e5783a2646970667358221220003505851470d613a4b336cd21d574e2457f90a1fe70dddee8588df34923361964736f6c63430008080033",
  "linkReferences": {
    "contracts/worksystems/DataSpotting.sol": {
      "DLL": [
        {
          "length": 20,
          "start": 9746
        },
        {
          "length": 20,
          "start": 9921
        },
        {
          "length": 20,
          "start": 15460
        },
        {
          "length": 20,
          "start": 21278
        },
        {
          "length": 20,
          "start": 21443
        },
        {
          "length": 20,
          "start": 21694
        },
        {
          "length": 20,
          "start": 23716
        },
        {
          "length": 20,
          "start": 23985
        }
      ]
    }
  },
  "deployedLinkReferences": {
    "contracts/worksystems/DataSpotting.sol": {
      "DLL": [
        {
          "length": 20,
          "start": 9330
        },
        {
          "length": 20,
          "start": 9505
        },
        {
          "length": 20,
          "start": 15044
        },
        {
          "length": 20,
          "start": 20862
        },
        {
          "length": 20,
          "start": 21027
        },
        {
          "length": 20,
          "start": 21278
        },
        {
          "length": 20,
          "start": 23300
        },
        {
          "length": 20,
          "start": 23569
        }
      ]
    }
  }
}