{
  "_format": "hh-sol-artifact-1",
  "contractName": "DataSpotting",
  "sourceName": "contracts/worksystems/DataSpotting.sol",
  "abi": [
    {
      "inputs": [
        {
          "internalType": "address",
          "name": "EXDT_token",
          "type": "address"
        }
      ],
      "stateMutability": "nonpayable",
      "type": "constructor"
    },
    {
      "anonymous": false,
      "inputs": [
        {
          "indexed": false,
          "internalType": "bytes",
          "name": "bytesFailure",
          "type": "bytes"
        }
      ],
      "name": "BytesFailure",
      "type": "event"
    },
    {
      "anonymous": false,
      "inputs": [
        {
          "indexed": true,
          "internalType": "address",
          "name": "previousOwner",
          "type": "address"
        },
        {
          "indexed": true,
          "internalType": "address",
          "name": "newOwner",
          "type": "address"
        }
      ],
      "name": "OwnershipTransferred",
      "type": "event"
    },
    {
      "anonymous": false,
      "inputs": [
        {
          "indexed": true,
          "internalType": "uint256",
          "name": "epochNumber",
          "type": "uint256"
        }
      ],
      "name": "_NewEpoch",
      "type": "event"
    },
    {
      "anonymous": false,
      "inputs": [
        {
          "indexed": false,
          "internalType": "string",
          "name": "hash",
          "type": "string"
        },
        {
          "indexed": true,
          "internalType": "address",
          "name": "creator",
          "type": "address"
        }
      ],
      "name": "_SpotAccepted",
      "type": "event"
    },
    {
      "anonymous": false,
      "inputs": [
        {
          "indexed": true,
          "internalType": "uint256",
          "name": "DataID",
          "type": "uint256"
        },
        {
          "indexed": false,
          "internalType": "uint256",
          "name": "numTokens",
          "type": "uint256"
        },
        {
          "indexed": true,
          "internalType": "address",
          "name": "voter",
          "type": "address"
        }
      ],
      "name": "_SpotCheckCommitted",
      "type": "event"
    },
    {
      "anonymous": false,
      "inputs": [
        {
          "indexed": true,
          "internalType": "uint256",
          "name": "DataID",
          "type": "uint256"
        },
        {
          "indexed": false,
          "internalType": "uint256",
          "name": "numTokens",
          "type": "uint256"
        },
        {
          "indexed": false,
          "internalType": "uint256",
          "name": "votesFor",
          "type": "uint256"
        },
        {
          "indexed": false,
          "internalType": "uint256",
          "name": "votesAgainst",
          "type": "uint256"
        },
        {
          "indexed": true,
          "internalType": "uint256",
          "name": "choice",
          "type": "uint256"
        },
        {
          "indexed": true,
          "internalType": "address",
          "name": "voter",
          "type": "address"
        }
      ],
      "name": "_SpotCheckRevealed",
      "type": "event"
    },
    {
      "anonymous": false,
      "inputs": [
        {
          "indexed": true,
          "internalType": "uint256",
          "name": "DataID",
          "type": "uint256"
        },
        {
          "indexed": false,
          "internalType": "string",
          "name": "file_hash",
          "type": "string"
        },
        {
          "indexed": false,
          "internalType": "string",
          "name": "URL_domain",
          "type": "string"
        },
        {
          "indexed": true,
          "internalType": "address",
          "name": "sender",
          "type": "address"
        }
      ],
      "name": "_SpotSubmitted",
      "type": "event"
    },
    {
      "anonymous": false,
      "inputs": [
        {
          "indexed": true,
          "internalType": "uint256",
          "name": "DataID",
          "type": "uint256"
        },
        {
          "indexed": true,
          "internalType": "address",
          "name": "voter",
          "type": "address"
        }
      ],
      "name": "_TokensRescued",
      "type": "event"
    },
    {
      "anonymous": false,
      "inputs": [
        {
          "indexed": false,
          "internalType": "uint256",
          "name": "numTokens",
          "type": "uint256"
        },
        {
          "indexed": true,
          "internalType": "address",
          "name": "voter",
          "type": "address"
        }
      ],
      "name": "_VotingRightsGranted",
      "type": "event"
    },
    {
      "anonymous": false,
      "inputs": [
        {
          "indexed": false,
          "internalType": "uint256",
          "name": "numTokens",
          "type": "uint256"
        },
        {
          "indexed": true,
          "internalType": "address",
          "name": "voter",
          "type": "address"
        }
      ],
      "name": "_VotingRightsWithdrawn",
      "type": "event"
    },
    {
      "anonymous": false,
      "inputs": [
        {
          "indexed": true,
          "internalType": "uint256",
          "name": "batchID",
          "type": "uint256"
        },
        {
          "indexed": false,
          "internalType": "address",
          "name": "worker",
          "type": "address"
        }
      ],
      "name": "_WorkAllocated",
      "type": "event"
    },
    {
      "anonymous": false,
      "inputs": [
        {
          "indexed": true,
          "internalType": "address",
          "name": "worker",
          "type": "address"
        },
        {
          "indexed": false,
          "internalType": "uint256",
          "name": "timestamp",
          "type": "uint256"
        }
      ],
      "name": "_WorkerRegistered",
      "type": "event"
    },
    {
      "anonymous": false,
      "inputs": [
        {
          "indexed": true,
          "internalType": "address",
          "name": "worker",
          "type": "address"
        },
        {
          "indexed": false,
          "internalType": "uint256",
          "name": "timestamp",
          "type": "uint256"
        }
      ],
      "name": "_WorkerUnregistered",
      "type": "event"
    },
    {
      "inputs": [],
      "name": "AcceptedBatchsCounter",
      "outputs": [
        {
          "internalType": "uint256",
          "name": "",
          "type": "uint256"
        }
      ],
      "stateMutability": "view",
      "type": "function"
    },
    {
      "inputs": [],
      "name": "AddressManager",
      "outputs": [
        {
          "internalType": "contract IAddressManager",
          "name": "",
          "type": "address"
        }
      ],
      "stateMutability": "view",
      "type": "function"
    },
    {
      "inputs": [],
      "name": "AllTxsCounter",
      "outputs": [
        {
          "internalType": "uint256",
          "name": "",
          "type": "uint256"
        }
      ],
      "stateMutability": "view",
      "type": "function"
    },
    {
      "inputs": [],
      "name": "AllocateWork",
      "outputs": [],
      "stateMutability": "nonpayable",
      "type": "function"
    },
    {
      "inputs": [],
      "name": "AllocatedBatchCursor",
      "outputs": [
        {
          "internalType": "uint256",
          "name": "",
          "type": "uint256"
        }
      ],
      "stateMutability": "view",
      "type": "function"
    },
    {
      "inputs": [],
      "name": "AmIRegistered",
      "outputs": [
        {
          "internalType": "bool",
          "name": "passed",
          "type": "bool"
        }
      ],
      "stateMutability": "view",
      "type": "function"
    },
    {
      "inputs": [
        {
          "internalType": "string",
          "name": "_a",
          "type": "string"
        },
        {
          "internalType": "string",
          "name": "_b",
          "type": "string"
        }
      ],
      "name": "AreStringsEqual",
      "outputs": [
        {
          "internalType": "bool",
          "name": "",
          "type": "bool"
        }
      ],
      "stateMutability": "pure",
      "type": "function"
    },
    {
      "inputs": [],
      "name": "BatchCheckingCursor",
      "outputs": [
        {
          "internalType": "uint256",
          "name": "",
          "type": "uint256"
        }
      ],
      "stateMutability": "view",
      "type": "function"
    },
    {
      "inputs": [],
      "name": "COMMIT_ROUND_DURATION",
      "outputs": [
        {
          "internalType": "uint256",
          "name": "",
          "type": "uint256"
        }
      ],
      "stateMutability": "view",
      "type": "function"
    },
    {
      "inputs": [],
      "name": "CONSENSUS_WORKER_SIZE",
      "outputs": [
        {
          "internalType": "uint256",
          "name": "",
          "type": "uint256"
        }
      ],
      "stateMutability": "view",
      "type": "function"
    },
    {
      "inputs": [],
      "name": "CurrentWorkEpoch",
      "outputs": [
        {
          "internalType": "uint256",
          "name": "",
          "type": "uint256"
        }
      ],
      "stateMutability": "view",
      "type": "function"
    },
    {
      "inputs": [],
      "name": "DATA_BATCH_SIZE",
      "outputs": [
        {
          "internalType": "uint256",
          "name": "",
          "type": "uint256"
        }
      ],
      "stateMutability": "view",
      "type": "function"
    },
    {
      "inputs": [
        {
          "internalType": "uint256",
          "name": "",
          "type": "uint256"
        }
      ],
      "name": "DataBatch",
      "outputs": [
        {
          "internalType": "uint256",
          "name": "start_idx",
          "type": "uint256"
        },
        {
          "internalType": "uint256",
          "name": "counter",
          "type": "uint256"
        },
        {
          "internalType": "uint256",
          "name": "uncommited_workers",
          "type": "uint256"
        },
        {
          "internalType": "uint256",
          "name": "unrevealed_workers",
          "type": "uint256"
        },
        {
          "internalType": "bool",
          "name": "complete",
          "type": "bool"
        },
        {
          "internalType": "bool",
          "name": "checked",
          "type": "bool"
        },
        {
          "internalType": "bool",
          "name": "allocated_to_work",
          "type": "bool"
        },
        {
          "internalType": "uint256",
          "name": "commitEndDate",
          "type": "uint256"
        },
        {
          "internalType": "uint256",
          "name": "revealEndDate",
          "type": "uint256"
        },
        {
          "internalType": "uint256",
          "name": "votesFor",
          "type": "uint256"
        },
        {
          "internalType": "uint256",
          "name": "votesAgainst",
          "type": "uint256"
        },
        {
          "internalType": "string",
          "name": "batchIPFSfile",
          "type": "string"
        },
        {
          "internalType": "uint256",
          "name": "item_count",
          "type": "uint256"
        },
        {
          "internalType": "enum DataSpotting.DataStatus",
          "name": "status",
          "type": "uint8"
        }
      ],
      "stateMutability": "view",
      "type": "function"
    },
    {
      "inputs": [
        {
          "internalType": "uint256",
          "name": "_DataBatchId",
          "type": "uint256"
        }
      ],
      "name": "DataCommitEndDate",
      "outputs": [
        {
          "internalType": "uint256",
          "name": "commitEndDate",
          "type": "uint256"
        }
      ],
      "stateMutability": "view",
      "type": "function"
    },
    {
      "inputs": [
        {
          "internalType": "uint256",
          "name": "_DataBatchId",
          "type": "uint256"
        }
      ],
      "name": "DataEnded",
      "outputs": [
        {
          "internalType": "bool",
          "name": "ended",
          "type": "bool"
        }
      ],
      "stateMutability": "view",
      "type": "function"
    },
    {
      "inputs": [
        {
          "internalType": "uint256",
          "name": "_DataBatchId",
          "type": "uint256"
        }
      ],
      "name": "DataExists",
      "outputs": [
        {
          "internalType": "bool",
          "name": "exists",
          "type": "bool"
        }
      ],
      "stateMutability": "view",
      "type": "function"
    },
    {
      "inputs": [],
      "name": "DataNonce",
      "outputs": [
        {
          "internalType": "uint256",
          "name": "",
          "type": "uint256"
        }
      ],
      "stateMutability": "view",
      "type": "function"
    },
    {
      "inputs": [
        {
          "internalType": "uint256",
          "name": "_DataBatchId",
          "type": "uint256"
        }
      ],
      "name": "DataRevealEndDate",
      "outputs": [
        {
          "internalType": "uint256",
          "name": "revealEndDate",
          "type": "uint256"
        }
      ],
      "stateMutability": "view",
      "type": "function"
    },
    {
      "inputs": [],
      "name": "FormattingSystem",
      "outputs": [
        {
          "internalType": "contract IFormattingSystem",
          "name": "",
          "type": "address"
        }
      ],
      "stateMutability": "view",
      "type": "function"
    },
    {
      "inputs": [
        {
          "internalType": "address",
          "name": "user_",
          "type": "address"
        }
      ],
      "name": "GetCurrentWork",
      "outputs": [
        {
          "internalType": "uint256",
          "name": "",
          "type": "uint256"
        }
      ],
      "stateMutability": "view",
      "type": "function"
    },
    {
      "inputs": [],
      "name": "INTER_ALLOCATION_DURATION",
      "outputs": [
        {
          "internalType": "uint256",
          "name": "",
          "type": "uint256"
        }
      ],
      "stateMutability": "view",
      "type": "function"
    },
    {
      "inputs": [
        {
          "internalType": "address",
          "name": "user_",
          "type": "address"
        }
      ],
      "name": "IsNewWorkAvailable",
      "outputs": [
        {
          "internalType": "bool",
          "name": "",
          "type": "bool"
        }
      ],
      "stateMutability": "view",
      "type": "function"
    },
    {
      "inputs": [],
      "name": "LastAllocationTime",
      "outputs": [
        {
          "internalType": "uint256",
          "name": "",
          "type": "uint256"
        }
      ],
      "stateMutability": "view",
      "type": "function"
    },
    {
      "inputs": [],
      "name": "LastBatchCounter",
      "outputs": [
        {
          "internalType": "uint256",
          "name": "",
          "type": "uint256"
        }
      ],
      "stateMutability": "view",
      "type": "function"
    },
    {
      "inputs": [],
      "name": "MIN_CONSENSUS_WORKER_COUNT",
      "outputs": [
        {
          "internalType": "uint256",
          "name": "",
          "type": "uint256"
        }
      ],
      "stateMutability": "view",
      "type": "function"
    },
    {
      "inputs": [],
      "name": "MIN_REP_Data",
      "outputs": [
        {
          "internalType": "uint256",
          "name": "",
          "type": "uint256"
        }
      ],
      "stateMutability": "view",
      "type": "function"
    },
    {
      "inputs": [],
      "name": "MIN_REP_REVEAL",
      "outputs": [
        {
          "internalType": "uint256",
          "name": "",
          "type": "uint256"
        }
      ],
      "stateMutability": "view",
      "type": "function"
    },
    {
      "inputs": [],
      "name": "MIN_REWARD_Data",
      "outputs": [
        {
          "internalType": "uint256",
          "name": "",
          "type": "uint256"
        }
      ],
      "stateMutability": "view",
      "type": "function"
    },
    {
      "inputs": [],
      "name": "MIN_STAKE",
      "outputs": [
        {
          "internalType": "uint256",
          "name": "",
          "type": "uint256"
        }
      ],
      "stateMutability": "view",
      "type": "function"
    },
    {
      "inputs": [
        {
          "internalType": "address",
          "name": "",
          "type": "address"
        },
        {
          "internalType": "uint256",
          "name": "",
          "type": "uint256"
        }
      ],
      "name": "MasterWorkers",
      "outputs": [
        {
          "internalType": "address",
          "name": "",
          "type": "address"
        }
      ],
      "stateMutability": "view",
      "type": "function"
    },
    {
      "inputs": [],
      "name": "NotCommitedCounter",
      "outputs": [
        {
          "internalType": "uint256",
          "name": "",
          "type": "uint256"
        }
      ],
      "stateMutability": "view",
      "type": "function"
    },
    {
      "inputs": [],
      "name": "NotRevealedCounter",
      "outputs": [
        {
          "internalType": "uint256",
          "name": "",
          "type": "uint256"
        }
      ],
      "stateMutability": "view",
      "type": "function"
    },
    {
      "inputs": [],
      "name": "REVEAL_ROUND_DURATION",
      "outputs": [
        {
          "internalType": "uint256",
          "name": "",
          "type": "uint256"
        }
      ],
      "stateMutability": "view",
      "type": "function"
    },
    {
      "inputs": [],
      "name": "RegisterWorker",
      "outputs": [],
      "stateMutability": "nonpayable",
      "type": "function"
    },
    {
      "inputs": [],
      "name": "RejectedBatchsCounter",
      "outputs": [
        {
          "internalType": "uint256",
          "name": "",
          "type": "uint256"
        }
      ],
      "stateMutability": "view",
      "type": "function"
    },
    {
      "inputs": [],
      "name": "RepManager",
      "outputs": [
        {
          "internalType": "contract IRepManager",
          "name": "",
          "type": "address"
        }
      ],
      "stateMutability": "view",
      "type": "function"
    },
    {
      "inputs": [],
      "name": "RewardManager",
      "outputs": [
        {
          "internalType": "contract IRewardManager",
          "name": "",
          "type": "address"
        }
      ],
      "stateMutability": "view",
      "type": "function"
    },
    {
      "inputs": [
        {
          "internalType": "string[]",
          "name": "file_hashs",
          "type": "string[]"
        },
        {
          "internalType": "string[]",
          "name": "URL_domains",
          "type": "string[]"
        },
        {
          "internalType": "uint256",
          "name": "item_count_",
          "type": "uint256"
        },
        {
          "internalType": "string",
          "name": "extra_",
          "type": "string"
        }
      ],
      "name": "SpotData",
      "outputs": [
        {
          "internalType": "uint256",
          "name": "Dataid_",
          "type": "uint256"
        }
      ],
      "stateMutability": "nonpayable",
      "type": "function"
    },
    {
      "inputs": [
        {
          "internalType": "address",
          "name": "",
          "type": "address"
        }
      ],
      "name": "SpotStakedTokenBalance",
      "outputs": [
        {
          "internalType": "uint256",
          "name": "",
          "type": "uint256"
        }
      ],
      "stateMutability": "view",
      "type": "function"
    },
    {
      "inputs": [
        {
          "internalType": "uint256",
          "name": "",
          "type": "uint256"
        }
      ],
      "name": "SpotsMapping",
      "outputs": [
        {
          "internalType": "string",
          "name": "ipfs_hash",
          "type": "string"
        },
        {
          "internalType": "address",
          "name": "author",
          "type": "address"
        },
        {
          "internalType": "uint256",
          "name": "timestamp",
          "type": "uint256"
        },
        {
          "internalType": "uint256",
          "name": "item_count",
          "type": "uint256"
        },
        {
          "internalType": "string",
          "name": "URL_domain",
          "type": "string"
        },
        {
          "internalType": "string",
          "name": "extra",
          "type": "string"
        },
        {
          "internalType": "enum DataSpotting.DataStatus",
          "name": "status",
          "type": "uint8"
        }
      ],
      "stateMutability": "view",
      "type": "function"
    },
    {
      "inputs": [],
      "name": "StakeManager",
      "outputs": [
        {
          "internalType": "contract IStakeManager",
          "name": "",
          "type": "address"
        }
      ],
      "stateMutability": "view",
      "type": "function"
    },
    {
      "inputs": [],
      "name": "TriggerNextEpoch",
      "outputs": [],
      "stateMutability": "nonpayable",
      "type": "function"
    },
    {
      "inputs": [],
      "name": "UnregisterWorker",
      "outputs": [],
      "stateMutability": "nonpayable",
      "type": "function"
    },
    {
      "inputs": [
        {
          "internalType": "uint256",
          "name": "",
          "type": "uint256"
        },
        {
          "internalType": "address",
          "name": "",
          "type": "address"
        }
      ],
      "name": "UserBatchCounts",
      "outputs": [
        {
          "internalType": "uint256",
          "name": "",
          "type": "uint256"
        }
      ],
      "stateMutability": "view",
      "type": "function"
    },
    {
      "inputs": [
        {
          "internalType": "address",
          "name": "",
          "type": "address"
        },
        {
          "internalType": "uint256",
          "name": "",
          "type": "uint256"
        }
      ],
      "name": "UserChecksCommits",
      "outputs": [
        {
          "internalType": "bool",
          "name": "",
          "type": "bool"
        }
      ],
      "stateMutability": "view",
      "type": "function"
    },
    {
      "inputs": [
        {
          "internalType": "address",
          "name": "",
          "type": "address"
        },
        {
          "internalType": "uint256",
          "name": "",
          "type": "uint256"
        }
      ],
      "name": "UserChecksReveals",
      "outputs": [
        {
          "internalType": "bool",
          "name": "",
          "type": "bool"
        }
      ],
      "stateMutability": "view",
      "type": "function"
    },
    {
      "inputs": [
        {
          "internalType": "uint256",
          "name": "",
          "type": "uint256"
        },
        {
          "internalType": "address",
          "name": "",
          "type": "address"
        }
      ],
      "name": "UserNewFiles",
      "outputs": [
        {
          "internalType": "string",
          "name": "",
          "type": "string"
        }
      ],
      "stateMutability": "view",
      "type": "function"
    },
    {
      "inputs": [
        {
          "internalType": "uint256",
          "name": "",
          "type": "uint256"
        },
        {
          "internalType": "address",
          "name": "",
          "type": "address"
        }
      ],
      "name": "UserVotes",
      "outputs": [
        {
          "internalType": "uint256",
          "name": "",
          "type": "uint256"
        }
      ],
      "stateMutability": "view",
      "type": "function"
    },
    {
      "inputs": [],
      "name": "VOTE_QUORUM",
      "outputs": [
        {
          "internalType": "uint256",
          "name": "",
          "type": "uint256"
        }
      ],
      "stateMutability": "view",
      "type": "function"
    },
    {
      "inputs": [
        {
          "internalType": "uint256",
          "name": "",
          "type": "uint256"
        },
        {
          "internalType": "uint256",
          "name": "",
          "type": "uint256"
        }
      ],
      "name": "WorkersPerBatch",
      "outputs": [
        {
          "internalType": "address",
          "name": "",
          "type": "address"
        }
      ],
      "stateMutability": "view",
      "type": "function"
    },
    {
      "inputs": [
        {
          "internalType": "address",
          "name": "",
          "type": "address"
        }
      ],
      "name": "WorkersState",
      "outputs": [
        {
          "internalType": "address",
          "name": "worker_address",
          "type": "address"
        },
        {
          "internalType": "address",
          "name": "master_address",
          "type": "address"
        },
        {
          "internalType": "uint256",
          "name": "allocated_work_batch",
          "type": "uint256"
        },
        {
          "internalType": "bool",
          "name": "has_completed_work",
          "type": "bool"
        },
        {
          "internalType": "uint256",
          "name": "last_worked_round",
          "type": "uint256"
        },
        {
          "internalType": "uint256",
          "name": "last_interaction_date",
          "type": "uint256"
        },
        {
          "internalType": "string",
          "name": "extra",
          "type": "string"
        },
        {
          "internalType": "bool",
          "name": "registered",
          "type": "bool"
        },
        {
          "internalType": "bool",
          "name": "unregistration_request",
          "type": "bool"
        },
        {
          "internalType": "uint256",
          "name": "registration_date",
          "type": "uint256"
        }
      ],
      "stateMutability": "view",
      "type": "function"
    },
    {
      "inputs": [
        {
          "internalType": "address",
          "name": "_user",
          "type": "address"
        },
        {
          "internalType": "uint256",
          "name": "_DataBatchId",
          "type": "uint256"
        }
      ],
      "name": "attrUUID",
      "outputs": [
        {
          "internalType": "bytes32",
          "name": "UUID",
          "type": "bytes32"
        }
      ],
      "stateMutability": "pure",
      "type": "function"
    },
    {
      "inputs": [
        {
          "internalType": "uint256",
          "name": "",
          "type": "uint256"
        }
      ],
      "name": "availableWorkers",
      "outputs": [
        {
          "internalType": "address",
          "name": "",
          "type": "address"
        }
      ],
      "stateMutability": "view",
      "type": "function"
    },
    {
      "inputs": [
        {
          "internalType": "uint256",
          "name": "",
          "type": "uint256"
        }
      ],
      "name": "busyWorkers",
      "outputs": [
        {
          "internalType": "address",
          "name": "",
          "type": "address"
        }
      ],
      "stateMutability": "view",
      "type": "function"
    },
    {
      "inputs": [
        {
          "internalType": "uint256",
          "name": "_DataBatchId",
          "type": "uint256"
        }
      ],
      "name": "commitPeriodActive",
      "outputs": [
        {
          "internalType": "bool",
          "name": "active",
          "type": "bool"
        }
      ],
      "stateMutability": "view",
      "type": "function"
    },
    {
      "inputs": [
        {
          "internalType": "uint256",
          "name": "_DataBatchId",
          "type": "uint256"
        },
        {
          "internalType": "bytes32",
          "name": "_secretHash",
          "type": "bytes32"
        },
        {
          "internalType": "string",
          "name": "newIPFSHash",
          "type": "string"
        },
        {
          "internalType": "uint256",
          "name": "_BatchCount",
          "type": "uint256"
        }
      ],
      "name": "commitSpotCheck",
      "outputs": [],
      "stateMutability": "nonpayable",
      "type": "function"
    },
    {
      "inputs": [
        {
          "internalType": "uint256",
          "name": "_DataId",
          "type": "uint256"
        }
      ],
      "name": "deleteData",
      "outputs": [],
      "stateMutability": "nonpayable",
      "type": "function"
    },
    {
      "inputs": [
        {
          "internalType": "uint256",
          "name": "_BatchId",
          "type": "uint256"
        }
      ],
      "name": "deleteDataBatch",
      "outputs": [],
      "stateMutability": "nonpayable",
      "type": "function"
    },
    {
      "inputs": [
        {
          "internalType": "address",
          "name": "_voter",
          "type": "address"
        },
        {
          "internalType": "uint256",
          "name": "_DataBatchId",
          "type": "uint256"
        }
      ],
      "name": "didCommit",
      "outputs": [
        {
          "internalType": "bool",
          "name": "committed",
          "type": "bool"
        }
      ],
      "stateMutability": "view",
      "type": "function"
    },
    {
      "inputs": [
        {
          "internalType": "address",
          "name": "_voter",
          "type": "address"
        },
        {
          "internalType": "uint256",
          "name": "_DataBatchId",
          "type": "uint256"
        }
      ],
      "name": "didReveal",
      "outputs": [
        {
          "internalType": "bool",
          "name": "revealed",
          "type": "bool"
        }
      ],
      "stateMutability": "view",
      "type": "function"
    },
    {
      "inputs": [
        {
          "internalType": "uint256",
          "name": "_k",
          "type": "uint256"
        },
        {
          "internalType": "uint256",
          "name": "N_range",
          "type": "uint256"
        }
      ],
      "name": "generateIntegers",
      "outputs": [
        {
          "internalType": "uint256[]",
          "name": "",
          "type": "uint256[]"
        }
      ],
      "stateMutability": "view",
      "type": "function"
    },
    {
      "inputs": [],
      "name": "getAcceptedBatchesCount",
      "outputs": [
        {
          "internalType": "uint256",
          "name": "count",
          "type": "uint256"
        }
      ],
      "stateMutability": "view",
      "type": "function"
    },
    {
      "inputs": [],
      "name": "getActiveWorkersCount",
      "outputs": [
        {
          "internalType": "uint256",
          "name": "numWorkers",
          "type": "uint256"
        }
      ],
      "stateMutability": "view",
      "type": "function"
    },
    {
      "inputs": [
        {
          "internalType": "uint256",
          "name": "_DataBatchId",
          "type": "uint256"
        }
      ],
      "name": "getBatchByID",
      "outputs": [
        {
          "components": [
            {
              "internalType": "uint256",
              "name": "start_idx",
              "type": "uint256"
            },
            {
              "internalType": "uint256",
              "name": "counter",
              "type": "uint256"
            },
            {
              "internalType": "uint256",
              "name": "uncommited_workers",
              "type": "uint256"
            },
            {
              "internalType": "uint256",
              "name": "unrevealed_workers",
              "type": "uint256"
            },
            {
              "internalType": "bool",
              "name": "complete",
              "type": "bool"
            },
            {
              "internalType": "bool",
              "name": "checked",
              "type": "bool"
            },
            {
              "internalType": "bool",
              "name": "allocated_to_work",
              "type": "bool"
            },
            {
              "internalType": "uint256",
              "name": "commitEndDate",
              "type": "uint256"
            },
            {
              "internalType": "uint256",
              "name": "revealEndDate",
              "type": "uint256"
            },
            {
              "internalType": "uint256",
              "name": "votesFor",
              "type": "uint256"
            },
            {
              "internalType": "uint256",
              "name": "votesAgainst",
              "type": "uint256"
            },
            {
              "internalType": "string",
              "name": "batchIPFSfile",
              "type": "string"
            },
            {
              "internalType": "uint256",
              "name": "item_count",
              "type": "uint256"
            },
            {
              "internalType": "enum DataSpotting.DataStatus",
              "name": "status",
              "type": "uint8"
            }
          ],
          "internalType": "struct DataSpotting.BatchMetadata",
          "name": "batch",
          "type": "tuple"
        }
      ],
      "stateMutability": "view",
      "type": "function"
    },
    {
      "inputs": [
        {
          "internalType": "uint256",
          "name": "_DataBatchId",
          "type": "uint256"
        }
      ],
      "name": "getBatchIPFSFileByID",
      "outputs": [
        {
          "internalType": "string",
          "name": "batch",
          "type": "string"
        }
      ],
      "stateMutability": "view",
      "type": "function"
    },
    {
      "inputs": [
        {
          "internalType": "address",
          "name": "_voter",
          "type": "address"
        },
        {
          "internalType": "uint256",
          "name": "_DataBatchId",
          "type": "uint256"
        }
      ],
      "name": "getCommitHash",
      "outputs": [
        {
          "internalType": "bytes32",
          "name": "commitHash",
          "type": "bytes32"
        }
      ],
      "stateMutability": "view",
      "type": "function"
    },
    {
      "inputs": [],
      "name": "getCurrentWorkEpoch",
      "outputs": [
        {
          "internalType": "uint256",
          "name": "WorkEpoch",
          "type": "uint256"
        }
      ],
      "stateMutability": "view",
      "type": "function"
    },
    {
      "inputs": [
        {
          "internalType": "uint256",
          "name": "_DataId",
          "type": "uint256"
        }
      ],
      "name": "getDataByID",
      "outputs": [
        {
          "components": [
            {
              "internalType": "string",
              "name": "ipfs_hash",
              "type": "string"
            },
            {
              "internalType": "address",
              "name": "author",
              "type": "address"
            },
            {
              "internalType": "uint256",
              "name": "timestamp",
              "type": "uint256"
            },
            {
              "internalType": "uint256",
              "name": "item_count",
              "type": "uint256"
            },
            {
              "internalType": "string",
              "name": "URL_domain",
              "type": "string"
            },
            {
              "internalType": "string",
              "name": "extra",
              "type": "string"
            },
            {
              "internalType": "enum DataSpotting.DataStatus",
              "name": "status",
              "type": "uint8"
            }
          ],
          "internalType": "struct DataSpotting.SpottedData",
          "name": "data",
          "type": "tuple"
        }
      ],
      "stateMutability": "view",
      "type": "function"
    },
    {
      "inputs": [
        {
          "internalType": "uint256",
          "name": "_DataBatchId",
          "type": "uint256"
        }
      ],
      "name": "getDomainsForBatch",
      "outputs": [
        {
          "internalType": "string[]",
          "name": "",
          "type": "string[]"
        }
      ],
      "stateMutability": "view",
      "type": "function"
    },
    {
      "inputs": [
        {
          "internalType": "uint256",
          "name": "_voteOption",
          "type": "uint256"
        },
        {
          "internalType": "uint256",
          "name": "_salt",
          "type": "uint256"
        }
      ],
      "name": "getEncryptedHash",
      "outputs": [
        {
          "internalType": "bytes32",
          "name": "keccak256hash",
          "type": "bytes32"
        }
      ],
      "stateMutability": "pure",
      "type": "function"
    },
    {
      "inputs": [
        {
          "internalType": "string",
          "name": "_hash",
          "type": "string"
        },
        {
          "internalType": "uint256",
          "name": "_salt",
          "type": "uint256"
        }
      ],
      "name": "getEncryptedStringHash",
      "outputs": [
        {
          "internalType": "bytes32",
          "name": "keccak256hash",
          "type": "bytes32"
        }
      ],
      "stateMutability": "pure",
      "type": "function"
    },
    {
      "inputs": [
        {
          "internalType": "uint256",
          "name": "_DataBatchId",
          "type": "uint256"
        }
      ],
      "name": "getIPFShashesForBatch",
      "outputs": [
        {
          "internalType": "string[]",
          "name": "",
          "type": "string[]"
        }
      ],
      "stateMutability": "view",
      "type": "function"
    },
    {
      "inputs": [],
      "name": "getLastAllocatedBatchId",
      "outputs": [
        {
          "internalType": "uint256",
          "name": "LastAllocatedBatchId",
          "type": "uint256"
        }
      ],
      "stateMutability": "view",
      "type": "function"
    },
    {
      "inputs": [],
      "name": "getLastBatchId",
      "outputs": [
        {
          "internalType": "uint256",
          "name": "LastBatchId",
          "type": "uint256"
        }
      ],
      "stateMutability": "view",
      "type": "function"
    },
    {
      "inputs": [],
      "name": "getLastCheckedBatchId",
      "outputs": [
        {
          "internalType": "uint256",
          "name": "LastCheckedBatchId",
          "type": "uint256"
        }
      ],
      "stateMutability": "view",
      "type": "function"
    },
    {
      "inputs": [],
      "name": "getLastDataId",
      "outputs": [
        {
          "internalType": "uint256",
          "name": "DataId",
          "type": "uint256"
        }
      ],
      "stateMutability": "view",
      "type": "function"
    },
    {
      "inputs": [
        {
          "internalType": "address",
          "name": "_voter",
          "type": "address"
        }
      ],
      "name": "getLastNode",
      "outputs": [
        {
          "internalType": "uint256",
          "name": "DataID",
          "type": "uint256"
        }
      ],
      "stateMutability": "view",
      "type": "function"
    },
    {
      "inputs": [
        {
          "internalType": "address",
          "name": "user",
          "type": "address"
        }
      ],
      "name": "getLastUserDataId",
      "outputs": [
        {
          "internalType": "uint256",
          "name": "DataId",
          "type": "uint256"
        }
      ],
      "stateMutability": "view",
      "type": "function"
    },
    {
      "inputs": [
        {
          "internalType": "address",
          "name": "_voter",
          "type": "address"
        }
      ],
      "name": "getLockedTokens",
      "outputs": [
        {
          "internalType": "uint256",
          "name": "numTokens",
          "type": "uint256"
        }
      ],
      "stateMutability": "view",
      "type": "function"
    },
    {
      "inputs": [],
      "name": "getMySystemTokenBalance",
      "outputs": [
        {
          "internalType": "uint256",
          "name": "tokens",
          "type": "uint256"
        }
      ],
      "stateMutability": "view",
      "type": "function"
    },
    {
      "inputs": [
        {
          "internalType": "address",
          "name": "_voter",
          "type": "address"
        },
        {
          "internalType": "uint256",
          "name": "_DataBatchId",
          "type": "uint256"
        }
      ],
      "name": "getNumTokens",
      "outputs": [
        {
          "internalType": "uint256",
          "name": "numTokens",
          "type": "uint256"
        }
      ],
      "stateMutability": "view",
      "type": "function"
    },
    {
      "inputs": [],
      "name": "getRandom",
      "outputs": [
        {
          "internalType": "uint256",
          "name": "",
          "type": "uint256"
        }
      ],
      "stateMutability": "view",
      "type": "function"
    },
    {
      "inputs": [],
      "name": "getRejectedBatchesCount",
      "outputs": [
        {
          "internalType": "uint256",
          "name": "count",
          "type": "uint256"
        }
      ],
      "stateMutability": "view",
      "type": "function"
    },
    {
      "inputs": [],
      "name": "getSeed",
      "outputs": [
        {
          "internalType": "bytes32",
          "name": "addr",
          "type": "bytes32"
        }
      ],
      "stateMutability": "view",
      "type": "function"
    },
    {
      "inputs": [
        {
          "internalType": "address",
          "name": "_user",
          "type": "address"
        }
      ],
      "name": "getSystemTokenBalance",
      "outputs": [
        {
          "internalType": "uint256",
          "name": "tokens",
          "type": "uint256"
        }
      ],
      "stateMutability": "view",
      "type": "function"
    },
    {
      "inputs": [],
      "name": "getTxCounter",
      "outputs": [
        {
          "internalType": "uint256",
          "name": "Counter",
          "type": "uint256"
        }
      ],
      "stateMutability": "view",
      "type": "function"
    },
    {
      "inputs": [
        {
          "internalType": "address",
          "name": "user",
          "type": "address"
        }
      ],
      "name": "getUserDatas",
      "outputs": [
        {
          "internalType": "uint256[]",
          "name": "user_Datas",
          "type": "uint256[]"
        }
      ],
      "stateMutability": "view",
      "type": "function"
    },
    {
      "inputs": [
        {
          "internalType": "uint256",
          "name": "_terminationDate",
          "type": "uint256"
        }
      ],
      "name": "isExpired",
      "outputs": [
        {
          "internalType": "bool",
          "name": "expired",
          "type": "bool"
        }
      ],
      "stateMutability": "view",
      "type": "function"
    },
    {
      "inputs": [
        {
          "internalType": "uint256",
          "name": "_DataBatchId",
          "type": "uint256"
        }
      ],
      "name": "isPassed",
      "outputs": [
        {
          "internalType": "bool",
          "name": "passed",
          "type": "bool"
        }
      ],
      "stateMutability": "view",
      "type": "function"
    },
    {
      "inputs": [
        {
          "internalType": "address",
          "name": "_worker",
          "type": "address"
        }
      ],
      "name": "isWorkerRegistered",
      "outputs": [
        {
          "internalType": "bool",
          "name": "passed",
          "type": "bool"
        }
      ],
      "stateMutability": "view",
      "type": "function"
    },
    {
      "inputs": [],
      "name": "owner",
      "outputs": [
        {
          "internalType": "address",
          "name": "",
          "type": "address"
        }
      ],
      "stateMutability": "view",
      "type": "function"
    },
    {
      "inputs": [
        {
          "internalType": "uint256",
          "name": "k",
          "type": "uint256"
        },
        {
          "internalType": "uint256",
          "name": "N",
          "type": "uint256"
        }
      ],
      "name": "random_selection",
      "outputs": [
        {
          "internalType": "uint256[]",
          "name": "",
          "type": "uint256[]"
        }
      ],
      "stateMutability": "view",
      "type": "function"
    },
    {
      "inputs": [],
      "name": "renounceOwnership",
      "outputs": [],
      "stateMutability": "nonpayable",
      "type": "function"
    },
    {
      "inputs": [
        {
          "internalType": "uint256",
          "name": "_numTokens",
          "type": "uint256"
        }
      ],
      "name": "requestVotingRights",
      "outputs": [],
      "stateMutability": "nonpayable",
      "type": "function"
    },
    {
      "inputs": [
        {
          "internalType": "uint256",
          "name": "_DataBatchId",
          "type": "uint256"
        }
      ],
      "name": "rescueTokens",
      "outputs": [],
      "stateMutability": "nonpayable",
      "type": "function"
    },
    {
      "inputs": [
        {
          "internalType": "uint256[]",
          "name": "_DataBatchIDs",
          "type": "uint256[]"
        }
      ],
      "name": "rescueTokensInMultipleDatas",
      "outputs": [],
      "stateMutability": "nonpayable",
      "type": "function"
    },
    {
      "inputs": [
        {
          "internalType": "uint256",
          "name": "_DataBatchId",
          "type": "uint256"
        }
      ],
      "name": "revealPeriodActive",
      "outputs": [
        {
          "internalType": "bool",
          "name": "active",
          "type": "bool"
        }
      ],
      "stateMutability": "view",
      "type": "function"
    },
    {
      "inputs": [
        {
          "internalType": "uint256",
          "name": "_DataBatchId",
          "type": "uint256"
        },
        {
          "internalType": "uint256",
          "name": "_voteOption",
          "type": "uint256"
        },
        {
          "internalType": "uint256",
          "name": "_salt",
          "type": "uint256"
        }
      ],
      "name": "revealSpotCheck",
      "outputs": [],
      "stateMutability": "nonpayable",
      "type": "function"
    },
    {
      "inputs": [],
      "name": "sFuel",
      "outputs": [
        {
          "internalType": "address",
          "name": "",
          "type": "address"
        }
      ],
      "stateMutability": "view",
      "type": "function"
    },
    {
      "inputs": [
        {
          "internalType": "uint256",
          "name": "N",
          "type": "uint256"
        }
      ],
      "name": "shuffle_array",
      "outputs": [
        {
          "internalType": "uint256[]",
          "name": "",
          "type": "uint256[]"
        }
      ],
      "stateMutability": "view",
      "type": "function"
    },
    {
      "inputs": [],
      "name": "token",
      "outputs": [
        {
          "internalType": "contract IERC20",
          "name": "",
          "type": "address"
        }
      ],
      "stateMutability": "view",
      "type": "function"
    },
    {
      "inputs": [
        {
          "internalType": "address",
          "name": "newOwner",
          "type": "address"
        }
      ],
      "name": "transferOwnership",
      "outputs": [],
      "stateMutability": "nonpayable",
      "type": "function"
    },
    {
      "inputs": [
        {
          "internalType": "address",
          "name": "addr",
          "type": "address"
        }
      ],
      "name": "updateAddressManager",
      "outputs": [],
      "stateMutability": "nonpayable",
      "type": "function"
    },
    {
      "inputs": [
        {
          "internalType": "uint256",
          "name": "COMMIT_ROUND_DURATION_",
          "type": "uint256"
        }
      ],
      "name": "updateCommitRoundDuration",
      "outputs": [],
      "stateMutability": "nonpayable",
      "type": "function"
    },
    {
      "inputs": [
        {
          "internalType": "uint256",
          "name": "CONSENSUS_WORKER_SIZE_",
          "type": "uint256"
        }
      ],
      "name": "updateConsensusSize",
      "outputs": [],
      "stateMutability": "nonpayable",
      "type": "function"
    },
    {
      "inputs": [
        {
          "internalType": "uint256",
          "name": "size",
          "type": "uint256"
        }
      ],
      "name": "updateDataBachSize",
      "outputs": [],
      "stateMutability": "nonpayable",
      "type": "function"
    },
    {
      "inputs": [
        {
          "internalType": "address",
          "name": "addr",
          "type": "address"
        }
      ],
      "name": "updateFormattingSystem",
      "outputs": [],
      "stateMutability": "nonpayable",
      "type": "function"
    },
    {
      "inputs": [
        {
          "internalType": "uint256",
          "name": "INTER_ALLOCATION_DURATION_",
          "type": "uint256"
        }
      ],
      "name": "updateInterAllocationDuration",
      "outputs": [],
      "stateMutability": "nonpayable",
      "type": "function"
    },
    {
      "inputs": [
        {
          "internalType": "uint256",
          "name": "CONSENSUS_WORKER_SIZE_",
          "type": "uint256"
        }
      ],
      "name": "updateMinConsensusSize",
      "outputs": [],
      "stateMutability": "nonpayable",
      "type": "function"
    },
    {
      "inputs": [
        {
          "internalType": "address",
          "name": "addr",
          "type": "address"
        }
      ],
      "name": "updateRepManager",
      "outputs": [],
      "stateMutability": "nonpayable",
      "type": "function"
    },
    {
      "inputs": [
        {
          "internalType": "uint256",
          "name": "REVEAL_ROUND_DURATION_",
          "type": "uint256"
        }
      ],
      "name": "updateRevealRoundDuration",
      "outputs": [],
      "stateMutability": "nonpayable",
      "type": "function"
    },
    {
      "inputs": [
        {
          "internalType": "address",
          "name": "addr",
          "type": "address"
        }
      ],
      "name": "updateRewardManager",
      "outputs": [],
      "stateMutability": "nonpayable",
      "type": "function"
    },
    {
      "inputs": [
        {
          "internalType": "address",
          "name": "addr",
          "type": "address"
        }
      ],
      "name": "updateStakeManager",
      "outputs": [],
      "stateMutability": "nonpayable",
      "type": "function"
    },
    {
      "inputs": [
        {
          "internalType": "address",
          "name": "_sFuel",
          "type": "address"
        }
      ],
      "name": "updatesFuelFaucet",
      "outputs": [],
      "stateMutability": "nonpayable",
      "type": "function"
    },
    {
      "inputs": [
        {
          "internalType": "address",
          "name": "",
          "type": "address"
        },
        {
          "internalType": "uint256",
          "name": "",
          "type": "uint256"
        }
      ],
      "name": "userSubmissions",
      "outputs": [
        {
          "internalType": "uint256",
          "name": "",
          "type": "uint256"
        }
      ],
      "stateMutability": "view",
      "type": "function"
    },
    {
      "inputs": [
        {
          "internalType": "uint256",
          "name": "_prevID",
          "type": "uint256"
        },
        {
          "internalType": "uint256",
          "name": "_nextID",
          "type": "uint256"
        },
        {
          "internalType": "address",
          "name": "_voter",
          "type": "address"
        },
        {
          "internalType": "uint256",
          "name": "_numTokens",
          "type": "uint256"
        }
      ],
      "name": "validPosition",
      "outputs": [
        {
          "internalType": "bool",
          "name": "APPROVED",
          "type": "bool"
        }
      ],
      "stateMutability": "view",
      "type": "function"
    },
    {
      "inputs": [
        {
          "internalType": "uint256",
          "name": "_numTokens",
          "type": "uint256"
        }
      ],
      "name": "withdrawVotingRights",
      "outputs": [],
      "stateMutability": "nonpayable",
      "type": "function"
    }
  ],
  "bytecode": "0x60806040526002600155600360025560016003556000600855670de0b6b3a7640000600955670de0b6b3a7640000600a5568015af1d78b58c40000600b55603c600c55600060145560006015557314f52f3fc010ab6ca81568d4a6794d5eab3c6155601e60006101000a8154816001600160a01b0302191690836001600160a01b031602179055506001601f556001602055600160215560006023556000602455600060255560006026556000602755348015620000bc57600080fd5b5060405162007de138038062007de1833981016040819052620000df916200018e565b620000f3620000ed6200013a565b6200013e565b602880546001600160a01b0319166001600160a01b0392909216919091179055600060155568015af1d78b58c4000060045560b46005819055600655600a600755620001be565b3390565b600080546001600160a01b038381166001600160a01b0319831681178455604051919092169283917f8be0079c531659141344cd1fd0a4f28419497f9722a3daafe3b4186f6b6457e09190a35050565b600060208284031215620001a0578081fd5b81516001600160a01b0381168114620001b7578182fd5b9392505050565b617c1380620001ce6000396000f3fe608060405234801561001057600080fd5b50600436106107165760003560e01c80639769d846116103a8578063d6b0206c116101f4578063e8e9b6f91161011a578063f4cdfcc4116100b8578063f80a23fd11610087578063f80a23fd14610e45578063f96305f014610e4d578063fc0c546a14610e55578063fca4956314610e5d57610716565b8063f4cdfcc414610e0f578063f5ae7c7d14610e22578063f716596d14610e2a578063f721de4a14610e3257610716565b8063ef4fcdad116100f4578063ef4fcdad14610dd9578063f2d9e74d14610de1578063f2fde38b14610de9578063f343894614610dfc57610716565b8063e8e9b6f914610dab578063eb1322ff14610dbe578063ed8becfa14610dc657610716565b8063dd61868211610192578063e604c12711610161578063e604c12714610d6a578063e7805f9e14610d7d578063e798a7da14610d85578063e7b1d43c14610d9857610716565b8063dd61868214610d29578063df05368e14610d3c578063e1f7a43014610d4f578063e44c974b14610d5757610716565b8063d901402b116101ce578063d901402b14610cd0578063d9548e5314610ce3578063d9845fb814610cf6578063d9966ae814610d1657610716565b8063d6b0206c14610ca2578063d822ce0114610caa578063d8b7567414610cbd57610716565b8063b1a2e0be116102d9578063c4e4f82a11610277578063cb1c2b5c11610246578063cb1c2b5c14610c6c578063d0d41def14610c74578063d138209214610c7c578063d420ec0b14610c8f57610716565b8063c4e4f82a14610c36578063c7761fab14610c49578063c7c063fb14610c51578063c9b03a7214610c6457610716565b8063b7e4eba9116102b3578063b7e4eba914610bea578063b8f011b314610bfd578063bc3002e614610c10578063c47c4bc214610c2357610716565b8063b1a2e0be14610bb1578063b1cf4a7e14610bc4578063b1d7ea9814610bd757610716565b8063a350715a11610346578063a905779011610320578063a905779014610b7b578063aa7ca46414610b8e578063aacc5a1714610ba1578063ab43e78d14610ba957610716565b8063a350715a14610b58578063a4439dc514610b60578063a511dba014610b7357610716565b80639fc9c52f116103825780639fc9c52f14610b17578063a1103f3714610b2a578063a1b6b5b714610b3d578063a25236fe14610b4557610716565b80639769d84614610af45780639acb75c114610afc5780639b7e018014610b0457610716565b806354fbaac8116105675780637827e54911610498578063821aa8c0116104365780638d289f8f116104055780638d289f8f14610abe5780638da5cb5b14610ac65780638df0296e14610ace5780639760356014610ae157610716565b8063821aa8c014610a7257806383cc6ef214610a855780638473850b14610a8d5780638c89d02714610a9557610716565b80637f9510a2116104725780637f9510a214610a175780637f97e83614610a1f5780637fabe35b14610a32578063819b029314610a5f57610716565b80637827e549146109f45780637a34da67146109fc5780637d05052614610a0457610716565b8063667bf0f811610505578063715018a6116104df578063715018a6146109c957806371880b1b146109d1578063726bc8af146109e457806376e8ea4f146109ec57610716565b8063667bf0f81461099b5780636b2d95d4146109a35780637074222b146109b657610716565b80635a452943116105415780635a4529431461094d5780635b113a551461096d5780635fd87909146109805780636371d81f1461098857610716565b806354fbaac814610907578063579db71c1461091a578063580021581461093a57610716565b8063313066ee1161064c57806344dc8e6b116105ea5780634d884281116105b95780634d884281146108d15780634fe8b4c1146108e4578063515535e8146108f757806351912f29146108ff57610716565b806344dc8e6b1461089b57806347fe2d20146108ae5780634852e2f0146108b657806349403183146108be57610716565b806339e7357c1161062657806339e7357c1461085a578063427fa1d214610862578063441c77c01461087557806344639f7c1461088857610716565b8063313066ee146108375780633538af821461083f578063354dae401461085257610716565b8063154fd39b116106b9578063275c259011610693578063275c2590146107e757806329a47bc7146107ef5780632d917c68146108045780632f469fd11461081757610716565b8063154fd39b1461079f57806319d90346146107a7578063226ed300146107c757610716565b8063050eb2eb116106f5578063050eb2eb146107565780630b96c5b0146107695780630e6661a71461078f5780630e670feb1461079757610716565b8062e527361461071b578063035fbb551461073957806304dbcda71461074e575b600080fd5b610723610e70565b6040516107309190616929565b60405180910390f35b61074c610747366004616832565b610e76565b005b6107236111b3565b61074c610764366004616481565b6111b9565b61077c61077736600461672c565b61121a565b6040516107309796959493929190616ad9565b6107236113fe565b610723611404565b61072361140a565b6107ba6107b536600461672c565b611410565b60405161073091906169df565b6107da6107d536600461672c565b611731565b6040516107309190616a83565b61074c611779565b6107f76118af565b604051610730919061695c565b6107da61081236600461649b565b6118be565b61082a610825366004616755565b6118de565b6040516107309190616a8e565b610723611983565b6107f761084d36600461672c565b611989565b61074c6119b3565b610723611af7565b610723610870366004616481565b611b14565b6107da61088336600461672c565b611bb4565b61074c61089636600461672c565b611c0e565b61074c6108a936600461672c565b611c60565b610723611ca4565b610723611caa565b6107da6108cc36600461672c565b611cb0565b61074c6108df366004616481565b611e79565b61074c6108f236600461672c565b611eda565b610723611f7f565b6107f7611f85565b61074c610915366004616780565b611f94565b61092d610928366004616481565b612460565b6040516107309190616a3f565b61074c61094836600461672c565b6124cc565b61096061095b36600461672c565b612510565b604051610730919061788c565b61072361097b366004616755565b612765565b610723612782565b61074c61099636600461672c565b612788565b61074c61284a565b6107236109b1366004616481565b612c54565b6107236109c4366004616481565b612c63565b61074c612c7e565b6107236109df36600461672c565b612cc9565b610723612d06565b610723612d0c565b610723612d12565b6107f7612d18565b61074c610a12366004616481565b612d27565b610723612d88565b6107da610a2d36600461649b565b612d9f565b610a45610a4036600461672c565b612df2565b6040516107309e9d9c9b9a99989796959493929190617973565b6107da610a6d3660046167f6565b612ef2565b6107f7610a8036600461672c565b612f33565b6107f7612f43565b610723612f52565b610aa8610aa3366004616481565b612f58565b6040516107309a99989796959493929190616970565b6107f7613049565b6107f7613058565b6107f7610adc3660046167d5565b613067565b61074c610aef36600461672c565b61309f565b61072361324e565b610723613254565b610723610b1236600461649b565b61325a565b61074c610b253660046165ab565b61328b565b610723610b3836600461649b565b6132dd565b610723613310565b61074c610b5336600461672c565b613316565b610723613417565b6107da610b6e36600461672c565b61341d565b61072361347f565b6107da610b893660046166cc565b613485565b6107da610b9c36600461649b565b6134eb565b61072361353e565b6107f76135f3565b6107da610bbf366004616481565b613602565b610723610bd23660046167d5565b61375e565b61092d610be53660046167d5565b613773565b61074c610bf836600461672c565b61397a565b61092d610c0b3660046167d5565b6139be565b610723610c1e3660046164c4565b613b26565b61074c610c31366004616481565b613e27565b610723610c4436600461672c565b613e88565b610723613ec5565b610723610c5f366004616481565b613ecb565b610723613edd565b610723613ee3565b610723613ee9565b610723610c8a36600461649b565b613eef565b6107da610c9d36600461649b565b613f8b565b610723613fab565b6107f7610cb836600461649b565b613fb1565b610723610ccb366004616755565b613fcd565b610723610cde36600461649b565b613fea565b6107da610cf136600461672c565b61402f565b610d09610d0436600461672c565b614034565b6040516107309190617712565b61074c610d2436600461672c565b6141b8565b61074c610d37366004616481565b6141fc565b61074c610d4a366004616481565b61425d565b6107236142be565b61092d610d6536600461672c565b6142d1565b61082a610d7836600461672c565b61434a565b6107236143f5565b6107da610d93366004616481565b6143fb565b61074c610da636600461672c565b61441c565b61074c610db936600461672c565b614564565b6107236145a8565b6107ba610dd436600461672c565b6145ae565b6107236148c1565b6107236148c7565b61074c610df7366004616481565b6148cd565b610723610e0a366004616481565b61493b565b610723610e1d36600461665a565b6149dc565b610723614a12565b61074c614a18565b6107da610e4036600461672c565b614be7565b6107da614bef565b610723614c08565b6107f7614c0e565b610723610e6b366004616481565b614c1d565b60075481565b610e7e614d57565b610e8783611bb4565b610eac5760405162461bcd60e51b8152600401610ea39061738a565b60405180910390fd5b336000908152600d6020908152604080832086845290915290205460ff16610ee65760405162461bcd60e51b8152600401610ea390617075565b336000908152600e6020908152604080832086845290915290205460ff1615610f215760405162461bcd60e51b8152600401610ea3906176c6565b610f2b3384613fea565b610f35838361375e565b14610f525760405162461bcd60e51b8152600401610ea390616da6565b6000610f5e3385613eef565b90508260011415610f955760008481526022602052604081206007018054839290610f8a908490617a9f565b90915550610fbc9050565b60008481526022602052604081206008018054839290610fb6908490617a9f565b90915550505b336000908152601260205260409081902090516301039dfd60e11b815273__$85afbab79b2b776d70bef879a32ed56424$__916302073bfa916110049190889060040161694e565b60006040518083038186803b15801561101c57600080fd5b505af4158015611030573d6000803e3d6000fd5b5050336000818152600e602090815260408083208a84528252808320805460ff19166001908117909155600f8352818420948452938252808320899055601682528083208a8452602290925290912060030154909350611091925090614edf565b60008681526022602052604090206003908101919091558101805460ff191660011790554260058201556110c433614eeb565b600781015460ff1615611139576110da33615043565b1580156110f157506007810154610100900460ff16155b1561113957601b80546001810182556000919091527f3ad8aa4f87544323a9d1e5dd902f40c356527a7955687113db5f9a85ad579dc10180546001600160a01b031916331790555b60016023600082825461114c9190617a9f565b909155505060008581526022602052604090819020600781015460089091015491513392879289927f0867b5027231dcbf37614eaad07d667b9febaf9fdf483f488229b1f140bb0748926111a492899290919061795d565b60405180910390a45050505050565b60095481565b6111c16150b3565b6001600160a01b03166111d2613058565b6001600160a01b0316146111f85760405162461bcd60e51b8152600401610ea3906172a2565b602b80546001600160a01b0319166001600160a01b0392909216919091179055565b60176020526000908152604090208054819061123590617b31565b80601f016020809104026020016040519081016040528092919081815260200182805461126190617b31565b80156112ae5780601f10611283576101008083540402835291602001916112ae565b820191906000526020600020905b81548152906001019060200180831161129157829003601f168201915b50505060018401546002850154600386015460048701805496976001600160a01b0390941696929550909350906112e490617b31565b80601f016020809104026020016040519081016040528092919081815260200182805461131090617b31565b801561135d5780601f106113325761010080835404028352916020019161135d565b820191906000526020600020905b81548152906001019060200180831161134057829003601f168201915b50505050509080600501805461137290617b31565b80601f016020809104026020016040519081016040528092919081815260200182805461139e90617b31565b80156113eb5780601f106113c0576101008083540402835291602001916113eb565b820191906000526020600020905b8154815290600101906020018083116113ce57829003601f168201915b5050506006909301549192505060ff1687565b60155481565b600a5481565b60215490565b606061141b82614be7565b6114375760405162461bcd60e51b8152600401610ea390617417565b600082815260226020908152604080832081516101c0810183528154815260018201549381019390935260028101549183019190915260038101546060830152600481015460ff808216151560808501526101008083048216151560a08601526201000090920416151560c0840152600582015460e084015260068201549083015260078101546101208301526008810154610140830152600981018054610160840191906114e590617b31565b80601f016020809104026020016040519081016040528092919081815260200182805461151190617b31565b801561155e5780601f106115335761010080835404028352916020019161155e565b820191906000526020600020905b81548152906001019060200180831161154157829003601f168201915b5050509183525050600a8201546020820152600b82015460409091019060ff16600381111561159d57634e487b7160e01b600052602160045260246000fd5b60038111156115bc57634e487b7160e01b600052602160045260246000fd5b9052506020810151600154919250906000906001600160401b038111156115f357634e487b7160e01b600052604160045260246000fd5b60405190808252806020026020018201604052801561162657816020015b60608152602001906001900390816116115790505b50905060005b82811015611726578351600090611644908390617a9f565b60008181526017602052604081206004018054929350909161166590617b31565b80601f016020809104026020016040519081016040528092919081815260200182805461169190617b31565b80156116de5780601f106116b3576101008083540402835291602001916116de565b820191906000526020600020905b8154815290600101906020018083116116c157829003601f168201915b505050505090508084848151811061170657634e487b7160e01b600052603260045260246000fd5b60200260200101819052505050808061171e90617b6c565b91505061162c565b50925050505b919050565b600061173c82614be7565b6117585760405162461bcd60e51b8152600401610ea39061769d565b6000828152602260205260409020600601546117739061402f565b92915050565b611781614d57565b336000908152601660205260409020600781015460ff1615156001146117b95760405162461bcd60e51b8152600401610ea390617256565b6002810154158015906117d657506007810154610100900460ff16155b156117f15760078101805461ff001916610100179055611894565b6002810154156118135760405162461bcd60e51b8152600401610ea39061719c565b4261181d336150b7565b61182633614eeb565b8154336001600160a01b03199182168117845560018401805490921681179091556005830182905560078301805460ff191690556040517f9dadcedba048e92b943ea1c5861cee1df63a566d7f795869c004780c1c698e2b9061188a908490616929565b60405180910390a2505b6001602360008282546118a79190617a9f565b909155505050565b602a546001600160a01b031681565b600d60209081526000928352604080842090915290825290205460ff1681565b60106020908152600092835260408084209091529082529020805461190290617b31565b80601f016020809104026020016040519081016040528092919081815260200182805461192e90617b31565b801561197b5780601f106119505761010080835404028352916020019161197b565b820191906000526020600020905b81548152906001019060200180831161195e57829003601f168201915b505050505081565b60145481565b601b818154811061199957600080fd5b6000918252602090912001546001600160a01b0316905081565b6119bb614d57565b6020805460009081526022909152604081206004015462010000900460ff1615156001148015611a0f57506119f1602054611731565b80611a0f575060208054600090815260229091526040902060030154155b15611a3457611a1f6020546151e7565b602054611a2d906001615e3a565b6020555060015b60215460009081526022602052604090206004015462010000900460ff161515600114801590611a655750601b5415155b8015611a85575060215460009081526022602052604090206004015460ff165b8015611a9f5750600754600854611a9c9042617aea565b11155b15611ab057611aac61284a565b5060015b8015611ac857601454611ac4906001615e3a565b6014555b6014546040517f94d48a7342690f1233e3f4db70efa37c4f1f25f4d0397c353f3f15aecdeca5f490600090a250565b60405160009080602081848060185afa611b0d57fe5b5051919050565b6001600160a01b03811660009081526012602052604080822090516301c39b2b60e11b815273__$85afbab79b2b776d70bef879a32ed56424$__91630387365691611b649190859060040161694e565b60206040518083038186803b158015611b7c57600080fd5b505af4158015611b90573d6000803e3d6000fd5b505050506040513d601f19601f820116820180604052508101906117739190616744565b6000611bbf82614be7565b611bdb5760405162461bcd60e51b8152600401610ea390617417565b600082815260226020526040902060060154611bf69061402f565b1580156117735750611c078261341d565b1592915050565b611c166150b3565b6001600160a01b0316611c27613058565b6001600160a01b031614611c4d5760405162461bcd60e51b8152600401610ea3906172a2565b6001811015611c5b57600080fd5b600355565b611c686150b3565b6001600160a01b0316611c79613058565b6001600160a01b031614611c9f5760405162461bcd60e51b8152600401610ea3906172a2565b600755565b60205490565b60265481565b600081815260226020908152604080832081516101c0810183528154815260018201549381019390935260028101549183019190915260038101546060830152600481015460ff808216151560808501526101008083048216151560a08601526201000090920416151560c0840152600582015460e08401526006820154908301526007810154610120830152600881015461014083015260098101805484939291610160840191611d6190617b31565b80601f0160208091040260200160405190810160405280929190818152602001828054611d8d90617b31565b8015611dda5780601f10611daf57610100808354040283529160200191611dda565b820191906000526020600020905b815481529060010190602001808311611dbd57829003601f168201915b5050509183525050600a8201546020820152600b82015460409091019060ff166003811115611e1957634e487b7160e01b600052602160045260246000fd5b6003811115611e3857634e487b7160e01b600052602160045260246000fd5b905250610140810151610120820151919250611e5391617a9f565b600c54611e609190617acb565b610120820151611e71906064617acb565b119392505050565b611e816150b3565b6001600160a01b0316611e92613058565b6001600160a01b031614611eb85760405162461bcd60e51b8152600401610ea3906172a2565b601e80546001600160a01b0319166001600160a01b0392909216919091179055565b611ee26150b3565b6001600160a01b0316611ef3613058565b6001600160a01b031614611f195760405162461bcd60e51b8152600401610ea3906172a2565b600081815260176020526040812090611f3282826161f1565b6001820180546001600160a01b031916905560006002830181905560038301819055611f629060048401906161f1565b611f706005830160006161f1565b50600601805460ff1916905550565b601f5490565b602b546001600160a01b031681565b611f9c614d57565b611fa58461341d565b611fc15760405162461bcd60e51b8152600401610ea390616d57565b336000908152600d6020908152604080832087845290915290205460ff1615611ffc5760405162461bcd60e51b8152600401610ea39061750b565b6120068433615e46565b6120225760405162461bcd60e51b8152600401610ea390616f02565b600454336000908152601960205260409020548111156120645733600090815260196020526040812054612057908390614edf565b905061206281613316565b505b336000908152601960205260409020548111156120935760405162461bcd60e51b8152600401610ea390617596565b6000336000908152601260205260408082209051631e0f232560e31b815273__$85afbab79b2b776d70bef879a32ed56424$__9163f0791928916120dc9190869060040161694e565b60206040518083038186803b1580156120f457600080fd5b505af4158015612108573d6000803e3d6000fd5b505050506040513d601f19601f8201168201806040525081019061212c9190616744565b9050868114156121d15733600090815260126020526040908190209051631e0f232560e31b815273__$85afbab79b2b776d70bef879a32ed56424$__9163f07919289161217e91908b9060040161694e565b60206040518083038186803b15801561219657600080fd5b505af41580156121aa573d6000803e3d6000fd5b505050506040513d601f19601f820116820180604052508101906121ce9190616744565b90505b6121dd82823386612ef2565b6121f95760405162461bcd60e51b8152600401610ea39061716e565b3360009081526012602052604090819020905163524cfe5360e11b815273__$85afbab79b2b776d70bef879a32ed56424$__9163a499fca691612245919086908c908790600401617871565b60006040518083038186803b15801561225d57600080fd5b505af4158015612271573d6000803e3d6000fd5b50505050600061228133896132dd565b60405163099b040f60e31b815290915073__$0947e710b66d7779e1d561254425e1375a$__90634cd82078906122c09060139085908990600401617853565b60006040518083038186803b1580156122d857600080fd5b505af41580156122ec573d6000803e3d6000fd5b505060405163099b040f60e31b815273__$0947e710b66d7779e1d561254425e1375a$__9250634cd82078915061232c9060139085908c90600401617807565b60006040518083038186803b15801561234457600080fd5b505af4158015612358573d6000803e3d6000fd5b5050506000898152601060209081526040808320338452825290912088516123859350909189019061622d565b5060008881526011602090815260408083203384528252808320889055601682528083208b84526022909252909120600201546123c3906001614edf565b60008a815260226020908152604080832060020193909355426005850155338252600d81528282208c83529052908120805460ff191660019081179091556023805491929091612414908490617a9f565b909155505060405133908a907f42864d9683ff5b12c3b2cc65d705af5aab104b03bc700b802f79e5c971ef08a19061244d908990616929565b60405180910390a3505050505050505050565b6001600160a01b0381166000908152601860209081526040918290208054835181840281018401909452808452606093928301828280156124c057602002820191906000526020600020905b8154815260200190600101908083116124ac575b50505050509050919050565b6124d46150b3565b6001600160a01b03166124e5613058565b6001600160a01b03161461250b5760405162461bcd60e51b8152600401610ea3906172a2565b600655565b6125186162b1565b60008281526017602052604090819020815160e0810190925280548290829061254090617b31565b80601f016020809104026020016040519081016040528092919081815260200182805461256c90617b31565b80156125b95780601f1061258e576101008083540402835291602001916125b9565b820191906000526020600020905b81548152906001019060200180831161259c57829003601f168201915b505050918352505060018201546001600160a01b0316602082015260028201546040820152600382015460608201526004820180546080909201916125fd90617b31565b80601f016020809104026020016040519081016040528092919081815260200182805461262990617b31565b80156126765780601f1061264b57610100808354040283529160200191612676565b820191906000526020600020905b81548152906001019060200180831161265957829003601f168201915b5050505050815260200160058201805461268f90617b31565b80601f01602080910402602001604051908101604052809291908181526020018280546126bb90617b31565b80156127085780601f106126dd57610100808354040283529160200191612708565b820191906000526020600020905b8154815290600101906020018083116126eb57829003601f168201915b5050509183525050600682015460209091019060ff16600381111561273d57634e487b7160e01b600052602160045260246000fd5b600381111561275c57634e487b7160e01b600052602160045260246000fd5b90525092915050565b601160209081526000928352604080842090915290825290205481565b60065481565b6127906150b3565b6001600160a01b03166127a1613058565b6001600160a01b0316146127c75760405162461bcd60e51b8152600401610ea3906172a2565b6127d081614be7565b1561284757600081815260226020526040812081815560018101829055600281018290556003810182905560048101805462ffffff19169055600581018290556006810182905560078101829055600881018290559061283360098301826161f1565b506000600a820155600b01805460ff191690555b50565b60215460009081526022602052604090206004015460ff1661287e5760405162461bcd60e51b8152600401610ea390617334565b60215460009081526022602052604090206004015462010000900460ff16156128b95760405162461bcd60e51b8152600401610ea3906171f9565b60006128d76128cf601b80549050600254615f21565b600354615f37565b601b5460218054600090815260226020526040808220600301859055915481529081206002018390556005549293509091612913904290615e3a565b9050600061292c60065483615e3a90919063ffffffff16565b60218054600090815260226020526040808220600501869055825482528082206006018490559154815220600401805462ff000019166201000017905590506001841080159061297d575060018310155b6129995760405162461bcd60e51b8152600401610ea390616eb8565b60006129a585856139be565b9050600081516001600160401b038111156129d057634e487b7160e01b600052604160045260246000fd5b6040519080825280602002602001820160405280156129f9578160200160208202803683370190505b50905060005b8251811015612ab857601b838281518110612a2a57634e487b7160e01b600052603260045260246000fd5b602002602001015181548110612a5057634e487b7160e01b600052603260045260246000fd5b9060005260206000200160009054906101000a90046001600160a01b0316828281518110612a8e57634e487b7160e01b600052603260045260246000fd5b6001600160a01b039092166020928302919091019091015280612ab081617b6c565b9150506129ff565b5060005b8251811015612c1b576000828281518110612ae757634e487b7160e01b600052603260045260246000fd5b60200260200101519050600060166000836001600160a01b03166001600160a01b031681526020019081526020016000209050612b23826150b7565b612b2c82615f47565b612b7c57601c80546001810182556000919091527f0e4562a10381dec21b205ed72637e6b1b523bdd0e4d4d50af5cd23dd4500a2110180546001600160a01b0319166001600160a01b0384161790555b602180546000908152601d602090815260408083208054600181018255908452919092200180546001600160a01b0319166001600160a01b0386161790558154600284015560038301805460ff19169055905490517fe4ee2dfabe57cee15e3f558890b20455f54c1fa0718e5276faad70a6500e6b8c90612bfe90859061695c565b60405180910390a250508080612c1390617b6c565b915050612abc565b5042600855602154612c2e906001615e3a565b602181905550600160236000828254612c479190617a9f565b9091555050505050505050565b600061177382610c8a84611b14565b6001600160a01b031660009081526019602052604090205490565b612c866150b3565b6001600160a01b0316612c97613058565b6001600160a01b031614612cbd5760405162461bcd60e51b8152600401610ea3906172a2565b612cc76000615fb7565b565b6000612cd482614be7565b612cf05760405162461bcd60e51b8152600401610ea390617417565b5060009081526022602052604090206006015490565b60035481565b60015481565b600b5481565b602c546001600160a01b031681565b612d2f6150b3565b6001600160a01b0316612d40613058565b6001600160a01b031614612d665760405162461bcd60e51b8152600401610ea3906172a2565b602d80546001600160a01b0319166001600160a01b0392909216919091179055565b601c54601b54600091612d9a91617a9f565b905090565b6000612daa82614be7565b612dc65760405162461bcd60e51b8152600401610ea390617417565b506001600160a01b03919091166000908152600d60209081526040808320938352929052205460ff1690565b602260205260009081526040902080546001820154600283015460038401546004850154600586015460068701546007880154600889015460098a018054999a98999798969760ff80881698610100890482169862010000900490911696959493929091612e5f90617b31565b80601f0160208091040260200160405190810160405280929190818152602001828054612e8b90617b31565b8015612ed85780601f10612ead57610100808354040283529160200191612ed8565b820191906000526020600020905b815481529060010190602001808311612ebb57829003601f168201915b50505050600a830154600b9093015491929160ff1690508e565b600080612eff8487613eef565b83101590506000612f108587613eef565b84111580612f1c575085155b9050818015612f285750805b979650505050505050565b601c818154811061199957600080fd5b6029546001600160a01b031681565b601f5481565b60166020526000908152604090208054600182015460028301546003840154600485015460058601546006870180546001600160a01b03978816989690971696949560ff9094169492939192612fad90617b31565b80601f0160208091040260200160405190810160405280929190818152602001828054612fd990617b31565b80156130265780601f10612ffb57610100808354040283529160200191613026565b820191906000526020600020905b81548152906001019060200180831161300957829003601f168201915b505050506007830154600890930154919260ff808216936101009092041691508a565b602d546001600160a01b031681565b6000546001600160a01b031690565b601d602052816000526040600020818154811061308357600080fd5b6000918252602090912001546001600160a01b03169150829050565b60016000828152602260205260409020600b015460ff1660038111156130d557634e487b7160e01b600052602160045260246000fd5b146130f25760405162461bcd60e51b8152600401610ea390616c5a565b336000908152601260205260409081902090516306120d1f60e31b815273__$85afbab79b2b776d70bef879a32ed56424$__9163309068f89161313a9190859060040161694e565b60206040518083038186803b15801561315257600080fd5b505af4158015613166573d6000803e3d6000fd5b505050506040513d601f19601f8201168201806040525081019061318a919061663a565b6131a65760405162461bcd60e51b8152600401610ea390617111565b336000908152601260205260409081902090516301039dfd60e11b815273__$85afbab79b2b776d70bef879a32ed56424$__916302073bfa916131ee9190859060040161694e565b60006040518083038186803b15801561320657600080fd5b505af415801561321a573d6000803e3d6000fd5b50506040513392508391507f402507661c8c8cb90e0a796450b8bdd28b6c516f05279c0cd29e84c344e1699a90600090a350565b60245481565b60145490565b6018602052816000526040600020818154811061327657600080fd5b90600052602060002001600091509150505481565b60005b81518110156132d9576132c78282815181106132ba57634e487b7160e01b600052603260045260246000fd5b602002602001015161309f565b806132d181617b6c565b91505061328e565b5050565b600082826040516020016132f2929190616907565b60405160208183030381529060405280519060200120905092915050565b60245490565b6029546040516304ada21f60e21b81526001600160a01b03909116906312b6887c906133489084903390600401617928565b602060405180830381600087803b15801561336257600080fd5b505af1158015613376573d6000803e3d6000fd5b505050506040513d601f19601f8201168201806040525081019061339a919061663a565b6133b65760405162461bcd60e51b8152600401610ea390617018565b33600090815260196020526040812080548392906133d5908490617a9f565b909155505060405133907ff7aaf024511d9982df8cd0d437c71c30106e6848cd1ba3d288d7a9c0e276aeda9061340c908490616929565b60405180910390a250565b60255481565b600061342882614be7565b6134445760405162461bcd60e51b8152600401610ea390617417565b60008281526022602052604090206005015461345f9061402f565b158015611773575050600090815260226020526040902060020154151590565b60155490565b6000816040516020016134989190616932565b60405160208183030381529060405280519060200120836040516020016134bf9190616932565b6040516020818303038152906040528051906020012014156134e357506001611773565b506000611773565b60006134f682614be7565b6135125760405162461bcd60e51b8152600401610ea390617417565b506001600160a01b03919091166000908152600e60209081526040808320938352929052205460ff1690565b600080424160405160200161355391906168ea565b6040516020818303038152906040528051906020012060001c6135769190617ab7565b4461357f611af7565b60405160200161358f9190616929565b60408051601f1981840301815291905280516020909101206135b19042617a9f565b6135bb9190617a9f565b6135c59190617a9f565b6040516020016135d59190616929565b60408051601f19818403018152919052805160209091012091505090565b601e546001600160a01b031681565b6001600160a01b038082166000908152601660209081526040808320815161014081018352815486168152600182015490951692850192909252600282015490840152600381015460ff161515606084015260048101546080840152600581015460a0840152600681018054929384938493919260c084019161368490617b31565b80601f01602080910402602001604051908101604052809291908181526020018280546136b090617b31565b80156136fd5780601f106136d2576101008083540402835291602001916136fd565b820191906000526020600020905b8154815290600101906020018083116136e057829003601f168201915b5050509183525050600782015460ff80821615156020840152610100909104161515604082015260089091015460609182015281015190915015801561374d575061374b8160400151611731565b155b1561375757600191505b5092915050565b600082826040516020016132f292919061694e565b60606000821161378257600080fd5b60004160405160200161379591906168ea565b6040516020818303038152906040528051906020012060001c6137b6611af7565b6040516020016137c69190616929565b60408051601f1981840301815291905280516020909101206137e89042617a9f565b6137f29190617a9f565b6040516020016138029190616929565b6040516020818303038152906040528051906020012060001c90506000846001600160401b0381111561384557634e487b7160e01b600052604160045260246000fd5b60405190808252806020026020018201604052801561386e578160200160208202803683370190505b5090506000805b8682101561396f5760008661388e63017efeeb87617aea565b836040516020016138a092919061694e565b6040516020818303038152906040528051906020012060001c6138c39190617b87565b90506000805b8481101561391b57828682815181106138f257634e487b7160e01b600052603260045260246000fd5b60200260200101511415613909576001915061391b565b8061391381617b6c565b9150506138c9565b508061395b578185858151811061394257634e487b7160e01b600052603260045260246000fd5b6020908102919091010152613958846001617a9f565b93505b613966836001617a9f565b92505050613875565b509095945050505050565b6139826150b3565b6001600160a01b0316613993613058565b6001600160a01b0316146139b95760405162461bcd60e51b8152600401610ea3906172a2565b600155565b60606000821180156139d05750818311155b80156139dd575060018310155b6139f95760405162461bcd60e51b8152600401610ea390616e6f565b6000826001600160401b03811115613a2157634e487b7160e01b600052604160045260246000fd5b604051908082528060200260200182016040528015613a4a578160200160208202803683370190505b5090506000846001600160401b03811115613a7557634e487b7160e01b600052604160045260246000fd5b604051908082528060200260200182016040528015613a9e578160200160208202803683370190505b5090506000613ab4613aaf84616007565b61605d565b905060005b8681101561396f57818181518110613ae157634e487b7160e01b600052603260045260246000fd5b6020026020010151838281518110613b0957634e487b7160e01b600052603260045260246000fd5b602090810291909101015280613b1e81617b6c565b915050613ab9565b6000613b30614d57565b60005b8651811015613e01576000878281518110613b5e57634e487b7160e01b600052603260045260246000fd5b602002602001015190506000878784818110613b8a57634e487b7160e01b600052603260045260246000fd5b9050602002810190613b9c9190617a03565b8080601f016020809104026020016040519081016040528093929190818152602001838380828437600092018290525033808252601860209081526040808420601554815460018101835591865283862090910155805160e0810182528a8152918201929092524291810191909152606081018c90526080810186905260a081018b905294955060c0850193509150613c329050565b90526015546000908152601760209081526040909120825180519192613c5d9284929091019061622d565b506020828101516001830180546001600160a01b0319166001600160a01b03909216919091179055604083015160028301556060830151600383015560808301518051613cb0926004850192019061622d565b5060a08201518051613ccc91600584019160209091019061622d565b5060c082015160068201805460ff19166001836003811115613cfe57634e487b7160e01b600052602160045260246000fd5b021790555050601f54600090815260226020526040902060018054908201549192501115613d41576001816001016000828254613d3b9190617a9f565b90915550505b600154816001015410613d9357600481018054600160ff19909116811761ff001916909155601f8054600090613d78908490617a9f565b9091555050601554601f546000908152602260205260409020555b613d9b6119b3565b601554613da9906001617a9f565b60158190556040513391907fb819ca9ac369919119f75ec7363dd954f75bcfa75f9245647e03da413be0d58290613de39087908790616b4b565b60405180910390a35050508080613df990617b6c565b915050613b33565b50600160236000828254613e159190617a9f565b90915550506015549695505050505050565b613e2f6150b3565b6001600160a01b0316613e40613058565b6001600160a01b031614613e665760405162461bcd60e51b8152600401610ea3906172a2565b602c80546001600160a01b0319166001600160a01b0392909216919091179055565b6000613e9382614be7565b613eaf5760405162461bcd60e51b8152600401610ea390617417565b5060009081526022602052604090206005015490565b600c5481565b60196020526000908152604090205481565b60025481565b60045481565b60085481565b600073__$0947e710b66d7779e1d561254425e1375a$__63698101586013613f1786866132dd565b6040518363ffffffff1660e01b8152600401613f34929190617835565b60206040518083038186803b158015613f4c57600080fd5b505af4158015613f60573d6000803e3d6000fd5b505050506040513d601f19601f82011682018060405250810190613f849190616744565b9392505050565b600e60209081526000928352604080842090915290825290205460ff1681565b60215481565b601a602052816000526040600020818154811061308357600080fd5b600f60209081526000928352604080842090915290825290205481565b600073__$0947e710b66d7779e1d561254425e1375a$__6369810158601361401286866132dd565b6040518363ffffffff1660e01b8152600401613f349291906177e9565b421190565b61403c616315565b61404582614be7565b61404e57600080fd5b60008281526022602090815260409182902082516101c0810184528154815260018201549281019290925260028101549282019290925260038201546060820152600482015460ff808216151560808401526101008083048216151560a08501526201000090920416151560c0830152600583015460e0830152600683015490820152600782015461012082015260088201546101408201526009820180549192916101608401919061410090617b31565b80601f016020809104026020016040519081016040528092919081815260200182805461412c90617b31565b80156141795780601f1061414e57610100808354040283529160200191614179565b820191906000526020600020905b81548152906001019060200180831161415c57829003601f168201915b5050509183525050600a8201546020820152600b82015460409091019060ff16600381111561273d57634e487b7160e01b600052602160045260246000fd5b6141c06150b3565b6001600160a01b03166141d1613058565b6001600160a01b0316146141f75760405162461bcd60e51b8152600401610ea3906172a2565b600255565b6142046150b3565b6001600160a01b0316614215613058565b6001600160a01b03161461423b5760405162461bcd60e51b8152600401610ea3906172a2565b602a80546001600160a01b0319166001600160a01b0392909216919091179055565b6142656150b3565b6001600160a01b0316614276613058565b6001600160a01b03161461429c5760405162461bcd60e51b8152600401610ea3906172a2565b602980546001600160a01b0319166001600160a01b0392909216919091179055565b3360009081526019602052604090205490565b6060600082116142e057600080fd5b6000826001600160401b0381111561430857634e487b7160e01b600052604160045260246000fd5b604051908082528060200260200182016040528015614331578160200160208202803683370190505b5090506000614342613aaf83616007565b949350505050565b606061435582614be7565b61435e57600080fd5b6000828152602260205260409020600901805461437a90617b31565b80601f01602080910402602001604051908101604052809291908181526020018280546143a690617b31565b80156124c05780601f106143c8576101008083540402835291602001916124c0565b820191906000526020600020905b8154815290600101906020018083116143d65750939695505050505050565b60055481565b6001600160a01b031660009081526016602052604090206007015460ff1690565b600061444061442a33612c54565b3360009081526019602052604090205490614edf565b9050818110156144625760405162461bcd60e51b8152600401610ea3906173d0565b602954604051630895993360e11b81526001600160a01b039091169063112b3266906144949085903390600401617928565b602060405180830381600087803b1580156144ae57600080fd5b505af11580156144c2573d6000803e3d6000fd5b505050506040513d601f19601f820116820180604052508101906144e6919061663a565b6145025760405162461bcd60e51b8152600401610ea390617640565b3360009081526019602052604081208054849290614521908490617aea565b909155505060405133907ffaeb7dbb9992397d26ea1944efd40c80b40f702faf69b46c67ad10aba68ccb7990614558908590616929565b60405180910390a25050565b61456c6150b3565b6001600160a01b031661457d613058565b6001600160a01b0316146145a35760405162461bcd60e51b8152600401610ea3906172a2565b600555565b60275481565b60606145b982614be7565b6145d55760405162461bcd60e51b8152600401610ea390617417565b600082815260226020908152604080832081516101c0810183528154815260018201549381019390935260028101549183019190915260038101546060830152600481015460ff808216151560808501526101008083048216151560a08601526201000090920416151560c0840152600582015460e0840152600682015490830152600781015461012083015260088101546101408301526009810180546101608401919061468390617b31565b80601f01602080910402602001604051908101604052809291908181526020018280546146af90617b31565b80156146fc5780601f106146d1576101008083540402835291602001916146fc565b820191906000526020600020905b8154815290600101906020018083116146df57829003601f168201915b5050509183525050600a8201546020820152600b82015460409091019060ff16600381111561473b57634e487b7160e01b600052602160045260246000fd5b600381111561475a57634e487b7160e01b600052602160045260246000fd5b9052506020810151600154919250906000906001600160401b0381111561479157634e487b7160e01b600052604160045260246000fd5b6040519080825280602002602001820160405280156147c457816020015b60608152602001906001900390816147af5790505b50905060005b828110156117265783516000906147e2908390617a9f565b60008181526017602052604081208054929350909161480090617b31565b80601f016020809104026020016040519081016040528092919081815260200182805461482c90617b31565b80156148795780601f1061484e57610100808354040283529160200191614879565b820191906000526020600020905b81548152906001019060200180831161485c57829003601f168201915b50505050509050808484815181106148a157634e487b7160e01b600052603260045260246000fd5b6020026020010181905250505080806148b990617b6c565b9150506147ca565b60205481565b60235481565b6148d56150b3565b6001600160a01b03166148e6613058565b6001600160a01b03161461490c5760405162461bcd60e51b8152600401610ea3906172a2565b6001600160a01b0381166149325760405162461bcd60e51b8152600401610ea390616e29565b61284781615fb7565b6001600160a01b03811660009081526018602090815260408083208054825181850281018501909352808352849383018282801561499857602002820191906000526020600020905b815481526020019060010190808311614984575b5050505050905080600182516149ae9190617aea565b815181106149cc57634e487b7160e01b600052603260045260246000fd5b6020026020010151915050919050565b60008383836040516020016149f393929190616aa1565b6040516020818303038152906040528051906020012090509392505050565b60235490565b614a20614d57565b336000908152601660205260409020601c54601b546103e891614a4291617a9f565b10614a5f5760405162461bcd60e51b8152600401610ea390617554565b600781015460ff1615614a845760405162461bcd60e51b8152600401610ea390616c23565b60045433600090815260196020526040902054429190811115614ac95733600090815260196020526040812054614abc908390614edf565b9050614ac781613316565b505b33600090815260196020526040902054811115614af85760405162461bcd60e51b8152600401610ea390616cab565b614b0133615043565b614b4857601b80546001810182556000919091527f3ad8aa4f87544323a9d1e5dd902f40c356527a7955687113db5f9a85ad579dc10180546001600160a01b031916331790555b8254336001600160a01b03199182168117855560018501805490921617905560058301829055600783015460ff16614b905760078301805460ff191660011790554260088401555b600160236000828254614ba39190617a9f565b909155505060405133907f439d77b7534ec3108fc6143bd4fbabde0b9f2bb54f7b0730d1f70dd2135b765f90614bda908590616929565b60405180910390a2505050565b601f54101590565b3360009081526016602052604090206007015460ff1690565b60255490565b6028546001600160a01b031681565b6001600160a01b038082166000908152601660209081526040808320815161014081018352815486168152600182015490951692850192909252600282015490840152600381015460ff161515606084015260048101546080840152600581015460a08401526006810180549293849390929160c0840191614c9e90617b31565b80601f0160208091040260200160405190810160405280929190818152602001828054614cca90617b31565b8015614d175780601f10614cec57610100808354040283529160200191614d17565b820191906000526020600020905b815481529060010190602001808311614cfa57829003601f168201915b5050509183525050600782015460ff8082161515602084015261010090910416151560408083019190915260089092015460609091015201519392505050565b601e546001600160a01b0316614d7f5760405162461bcd60e51b8152600401610ea39061744e565b601e546040516000916001600160a01b031690614da090339060240161695c565b60408051601f198184030181529181526020820180516001600160e01b0316631f5ac9c560e11b17905251614dd59190616932565b6000604051808303816000865af19150503d8060008114614e12576040519150601f19603f3d011682016040523d82523d6000602084013e614e17565b606091505b5050601e546040519192506000916001600160a01b0390911690614e3f90339060240161695c565b60408051601f198184030181529181526020820180516001600160e01b03166358563d2160e01b17905251614e749190616932565b6000604051808303816000865af19150503d8060008114614eb1576040519150601f19603f3d011682016040523d82523d6000602084013e614eb6565b606091505b505090508180614ec35750805b6132d95760405162461bcd60e51b8152600401610ea390616d12565b6000613f848284617aea565b60008060005b601c54811015614f5f57836001600160a01b0316601c8281548110614f2657634e487b7160e01b600052603260045260246000fd5b6000918252602090912001546001600160a01b03161415614f4d5760019150809250614f5f565b80614f5781617b6c565b915050614ef1565b50801561503e57601c8054614f7690600190617aea565b81548110614f9457634e487b7160e01b600052603260045260246000fd5b600091825260209091200154601c80546001600160a01b039092169184908110614fce57634e487b7160e01b600052603260045260246000fd5b9060005260206000200160006101000a8154816001600160a01b0302191690836001600160a01b03160217905550601c80548061501b57634e487b7160e01b600052603160045260246000fd5b600082815260209020810160001990810180546001600160a01b03191690550190555b505050565b600080805b601b5481101561375757836001600160a01b0316601b828154811061507d57634e487b7160e01b600052603260045260246000fd5b6000918252602090912001546001600160a01b031614156150a15760019150613757565b806150ab81617b6c565b915050615048565b3390565b60008060005b601b5481101561512b57836001600160a01b0316601b82815481106150f257634e487b7160e01b600052603260045260246000fd5b6000918252602090912001546001600160a01b03161415615119576001915080925061512b565b8061512381617b6c565b9150506150bd565b50801561503e57601b805461514290600190617aea565b8154811061516057634e487b7160e01b600052603260045260246000fd5b600091825260209091200154601b80546001600160a01b03909216918490811061519a57634e487b7160e01b600052603260045260246000fd5b9060005260206000200160006101000a8154816001600160a01b0302191690836001600160a01b03160217905550601b80548061501b57634e487b7160e01b600052603160045260246000fd5b6007546008546151f79042617aea565b11156152155760405162461bcd60e51b8152600401610ea390616fae565b61521e81611731565b806152385750600081815260226020526040902060030154155b6152545760405162461bcd60e51b8152600401610ea3906172d7565b600081815260226020526040902060040154610100900460ff161561528b5760405162461bcd60e51b8152600401610ea3906174ca565b600061529682611cb0565b6000838152601d60209081526040808320805482518185028101850190935280835294955092939092918301828280156152f957602002820191906000526020600020905b81546001600160a01b031681526001909101906020018083116152db575b50505050509050600081516001600160401b0381111561532957634e487b7160e01b600052604160045260246000fd5b60405190808252806020026020018201604052801561535c57816020015b60608152602001906001900390816153475790505b509050600082516001600160401b0381111561538857634e487b7160e01b600052604160045260246000fd5b6040519080825280602002602001820160405280156153b1578160200160208202803683370190505b50905060005b83518110156157e25760008482815181106153e257634e487b7160e01b600052603260045260246000fd5b6020908102919091018101516000898152600f835260408082206001600160a01b03841680845290855281832054600e86528284208d85528652828420546010875283852092855291909552908220805493955060ff9091169261544590617b31565b80601f016020809104026020016040519081016040528092919081815260200182805461547190617b31565b80156154be5780601f10615493576101008083540402835291602001916154be565b820191906000526020600020905b8154815290600101906020018083116154a157829003601f168201915b50505050509050808786815181106154e657634e487b7160e01b600052603260045260246000fd5b60209081029190910181019190915260008b81526011825260408082206001600160a01b038816835290925220548651819088908890811061553857634e487b7160e01b600052603260045260246000fd5b60200260200101818152505061554d85614eeb565b6001600160a01b03851660009081526016602052604090208315615783576001600160a01b0386166000908152601660205260409020600301805460ff191660019081179091558b15151480156155a45750846001145b806155b957508a1580156155b9575084600114155b1561570057602a54600b54604051630db6cc8560e11b81526001600160a01b0390921691631b6d990a916155f1918a9060040161793f565b602060405180830381600087803b15801561560b57600080fd5b505af115801561561f573d6000803e3d6000fd5b505050506040513d601f19601f82011682018060405250810190615643919061663a565b61565f5760405162461bcd60e51b8152600401610ea3906170c4565b602b54600954604051633832942560e21b81526001600160a01b039092169163e0ca509491615692918a90600401617928565b602060405180830381600087803b1580156156ac57600080fd5b505af11580156156c0573d6000803e3d6000fd5b505050506040513d601f19601f820116820180604052508101906156e4919061663a565b6157005760405162461bcd60e51b8152600401610ea390616f5f565b600781015460ff161561577e5761571686615043565b15801561572d57506007810154610100900460ff16155b1561577e57601b80546001810182556000919091527f3ad8aa4f87544323a9d1e5dd902f40c356527a7955687113db5f9a85ad579dc10180546001600160a01b0319166001600160a01b0388161790555b6157c9565b6007810154610100900460ff1680615799575083155b156157c957600781015460ff16156157c95760078101805460ff191690556157c0866150b7565b6157c986614eeb565b50505050505080806157da90617b6c565b9150506153b7565b50600061580a6064600c5486516157f99190617acb565b6158039190617ab7565b6001615f37565b905060008360008151811061582f57634e487b7160e01b600052603260045260246000fd5b6020026020010151905060005b8451811015615925576000805b86518110156158da576158aa87848151811061587557634e487b7160e01b600052603260045260246000fd5b602002602001015188838151811061589d57634e487b7160e01b600052603260045260246000fd5b6020026020010151613485565b156158c8576158ba600183617a9f565b91508482106158c8576158da565b806158d281617b6c565b915050615849565b508381106159125785828151811061590257634e487b7160e01b600052603260045260246000fd5b6020026020010151925050615925565b508061591d81617b6c565b91505061583c565b5060008360008151811061594957634e487b7160e01b600052603260045260246000fd5b6020026020010151905060005b8451811015615a38576000805b86518110156159ed5786818151811061598c57634e487b7160e01b600052603260045260246000fd5b60200260200101518784815181106159b457634e487b7160e01b600052603260045260246000fd5b602002602001015114156159db576159cd600183617a9f565b91508582106159db576159ed565b806159e581617b6c565b915050615963565b50848110615a2557858281518110615a1557634e487b7160e01b600052603260045260246000fd5b6020026020010151925050615a38565b5080615a3081617b6c565b915050615956565b50600088815260226020908152604090912060048101805461ff0019166101001790558351615a6f9260099092019185019061622d565b506000888152602260205260409020600a018190558615615d3957602a54600b5460008a81526017602052604090819020600101549051630db6cc8560e11b81526001600160a01b0393841693631b6d990a93615ad393909291169060040161793f565b602060405180830381600087803b158015615aed57600080fd5b505af1158015615b01573d6000803e3d6000fd5b505050506040513d601f19601f82011682018060405250810190615b25919061663a565b615b415760405162461bcd60e51b8152600401610ea3906175f3565b602b5460095460008a81526017602052604090819020600101549051633832942560e21b81526001600160a01b039384169363e0ca509493615b8a939092911690600401617928565b602060405180830381600087803b158015615ba457600080fd5b505af1158015615bb8573d6000803e3d6000fd5b505050506040513d601f19601f82011682018060405250810190615bdc919061663a565b615bf85760405162461bcd60e51b8152600401610ea39061747b565b6000888152602260205260408120600b01805460ff191660019081179091556024805491929091615c2a908490617a9f565b9091555050602d546040516348257dc960e01b81526001600160a01b03909116906348257dc990615c5f908b90600401616929565b602060405180830381600087803b158015615c7957600080fd5b505af1925050508015615ca9575060408051601f3d908101601f19168201909252615ca69181019061663a565b60015b615d1a573d808015615cd7576040519150601f19603f3d011682016040523d82523d6000602084013e615cdc565b606091505b507f4b87bbd93ba65ede1e2efeca735d9f7a6720bf7d6db0a8355b17dba5b64e578381604051615d0c9190616a8e565b60405180910390a150615d34565b600160236000828254615d2d9190617a9f565b9091555050505b615d6e565b6000888152602260205260408120600b01805460ff191660021790556025805460019290615d68908490617a9f565b90915550505b600160236000828254615d819190617a9f565b90915550506000888152602260205260408120600201546026805491929091615dab908490617a9f565b90915550506000888152602260205260408120600301546027805491929091615dd5908490617a9f565b909155505060008881526017602052604090819020600181015491516001600160a01b03909216917f43916c3ae75995d24cc89b466ed08e6dba74d325f7957f9b37b05f150e12918e91615e2891616b79565b60405180910390a25050505050505050565b6000613f848284617a9f565b6000828152601d60209081526040808320805482518185028101850190935280835284938493929190830182828015615ea857602002820191906000526020600020905b81546001600160a01b03168152600190910190602001808311615e8a575b5050505050905060005b8151811015615f1757846001600160a01b0316828281518110615ee557634e487b7160e01b600052603260045260246000fd5b60200260200101516001600160a01b03161415615f055760019250615f17565b80615f0f81617b6c565b915050615eb2565b5090949350505050565b6000818310615f305781613f84565b5090919050565b600081831015615f305781613f84565b600080805b601c5481101561375757836001600160a01b0316601c8281548110615f8157634e487b7160e01b600052603260045260246000fd5b6000918252602090912001546001600160a01b03161415615fa55760019150613757565b80615faf81617b6c565b915050615f4c565b600080546001600160a01b038381166001600160a01b0319831681178455604051919092169283917f8be0079c531659141344cd1fd0a4f28419497f9722a3daafe3b4186f6b6457e09190a35050565b805160609060005b81811015616055578084828151811061603857634e487b7160e01b600052603260045260246000fd5b60209081029190910101528061604d81617b6c565b91505061600f565b509192915050565b6060600082511161606d57600080fd5b81518060005b818110156161e85760008361608661353e565b8784815181106160a657634e487b7160e01b600052603260045260246000fd5b60200260200101516040516020016160bf92919061694e565b6040516020818303038152906040528051906020012060001c6160e29190617b87565b6160ed906001617a9f565b90506000866160fd600184617aea565b8151811061611b57634e487b7160e01b600052603260045260246000fd5b60200260200101519050866001866161339190617aea565b8151811061615157634e487b7160e01b600052603260045260246000fd5b6020026020010151876001846161679190617aea565b8151811061618557634e487b7160e01b600052603260045260246000fd5b6020908102919091010152808761619d600188617aea565b815181106161bb57634e487b7160e01b600052603260045260246000fd5b60209081029190910101526161d1600186617aea565b9450505080806161e090617b6c565b915050616073565b50929392505050565b5080546161fd90617b31565b6000825580601f1061620f5750612847565b601f01602090049060005260206000209081019061284791906163a3565b82805461623990617b31565b90600052602060002090601f01602090048101928261625b57600085556162a1565b82601f1061627457805160ff19168380011785556162a1565b828001600101855582156162a1579182015b828111156162a1578251825591602001919060010190616286565b506162ad9291506163a3565b5090565b6040518060e001604052806060815260200160006001600160a01b03168152602001600081526020016000815260200160608152602001606081526020016000600381111561631057634e487b7160e01b600052602160045260246000fd5b905290565b604051806101c00160405280600081526020016000815260200160008152602001600081526020016000151581526020016000151581526020016000151581526020016000815260200160008152602001600081526020016000815260200160608152602001600081526020016000600381111561631057634e487b7160e01b600052602160045260246000fd5b5b808211156162ad57600081556001016163a4565b80356001600160a01b038116811461172c57600080fd5b60008083601f8401126163e0578182fd5b5081356001600160401b038111156163f6578182fd5b602083019150836020808302850101111561641057600080fd5b9250929050565b600082601f830112616427578081fd5b81356001600160401b0381111561644057616440617bc7565b616453601f8201601f1916602001617a47565b818152846020838601011115616467578283fd5b816020850160208301379081016020019190915292915050565b600060208284031215616492578081fd5b613f84826163b8565b600080604083850312156164ad578081fd5b6164b6836163b8565b946020939093013593505050565b6000806000806000608086880312156164db578081fd5b85356001600160401b03808211156164f1578283fd5b818801915088601f830112616504578283fd5b8135602061651961651483617a70565b617a47565b82815281810190858301875b8581101561654e5761653c8f8684358b0101616417565b84529284019290840190600101616525565b50909a50505089013592505080821115616566578283fd5b61657289838a016163cf565b9096509450604088013593506060880135915080821115616591578283fd5b5061659e88828901616417565b9150509295509295909350565b600060208083850312156165bd578182fd5b82356001600160401b038111156165d2578283fd5b8301601f810185136165e2578283fd5b80356165f061651482617a70565b818152838101908385018584028501860189101561660c578687fd5b8694505b8385101561662e578035835260019490940193918501918501616610565b50979650505050505050565b60006020828403121561664b578081fd5b81518015158114613f84578182fd5b60008060006040848603121561666e578283fd5b83356001600160401b0380821115616684578485fd5b818601915086601f830112616697578485fd5b8135818111156166a5578586fd5b8760208285010111156166b6578586fd5b6020928301989097509590910135949350505050565b600080604083850312156166de578182fd5b82356001600160401b03808211156166f4578384fd5b61670086838701616417565b93506020850135915080821115616715578283fd5b5061672285828601616417565b9150509250929050565b60006020828403121561673d578081fd5b5035919050565b600060208284031215611b0d578081fd5b60008060408385031215616767578182fd5b82359150616777602084016163b8565b90509250929050565b60008060008060808587031215616795578182fd5b843593506020850135925060408501356001600160401b038111156167b8578283fd5b6167c487828801616417565b949793965093946060013593505050565b600080604083850312156167e7578182fd5b50508035926020909101359150565b6000806000806080858703121561680b578182fd5b8435935060208501359250616822604086016163b8565b9396929550929360600135925050565b600080600060608486031215616846578081fd5b505081359360208301359350604090920135919050565b15159052565b6000815180845261687b816020860160208601617b01565b601f01601f19169290920160200192915050565b600481106168ad57634e487b7160e01b600052602160045260246000fd5b9052565b600a8152690c6dedadad2e890c2e6d60b31b602082015260400190565b60098152686e756d546f6b656e7360b81b602082015260400190565b60609190911b6bffffffffffffffffffffffff1916815260140190565b60609290921b6bffffffffffffffffffffffff19168252601482015260340190565b90815260200190565b60008251616944818460208701617b01565b9190910192915050565b918252602082015260400190565b6001600160a01b0391909116815260200190565b6001600160a01b038b811682528a1660208201526040810189905287151560608201526080810187905260a0810186905261014060c082018190526000906169ba83820188616863565b95151560e0840152505091151561010083015261012090910152979650505050505050565b6000602080830181845280855180835260408601915060408482028701019250838701855b82811015616a3257603f19888603018452616a20858351616863565b94509285019290850190600101616a04565b5092979650505050505050565b6020808252825182820181905260009190848201906040850190845b81811015616a7757835183529284019291840191600101616a5b565b50909695505050505050565b901515815260200190565b600060208252613f846020830184616863565b6000604082528360408301528385606084013780606085840101526060601f19601f8601168301019050826020830152949350505050565b600060e08252616aec60e083018a616863565b6001600160a01b038916602084015260408301889052606083018790528281036080840152616b1b8187616863565b905082810360a0840152616b2f8186616863565b915050616b3f60c083018461688f565b98975050505050505050565b600060408252616b5e6040830185616863565b8281036020840152616b708185616863565b95945050505050565b6000602080835281845483600282049050600180831680616b9b57607f831692505b858310811415616bb957634e487b7160e01b87526022600452602487fd5b616bc583878a01616929565b818015616bd95760018114616bea57616c14565b60ff19861682528782019650616c14565b616bf38b617a93565b895b86811015616c0e57815484820152908501908901616bf5565b83019750505b50949998505050505050505050565b6020808252601c908201527f576f726b657220697320616c7265616479207265676973746572656400000000604082015260600190565b60208082526031908201527f676976656e204461746142617463682073686f756c6420626520415050524f5660408201527011510b08185b99081a5d081a5cc81b9bdd607a1b606082015260800190565b60208082526041908201527f576f726b657220686173206e6f7420656e6f75676820285f6e756d546f6b656e60408201527f732920696e206869732053706f745374616b6564546f6b656e42616c616e63656060820152600160fd1b608082015260a00190565b60208082526025908201527f72656365697665722072656a6563746564205f7265747269657665534675656c6040820152640818d85b1b60da1b606082015260800190565b6020808252602f908201527f636f6d6d697420706572696f64206e6565647320746f206265206f70656e206660408201526e1bdc881d1a1a5cc818985d18da1259608a1b606082015260800190565b6020808252605c908201527f4e6f74207468652073616d6520766f7465207468616e2077686174207761732060408201527f636f6d6d697465642c20696d706f737369626c6520746f206d6174636820776960608201527f746820676976656e205f73616c742026205f766f74654f7074696f6e00000000608082015260a00190565b60208082526026908201527f4f776e61626c653a206e6577206f776e657220697320746865207a65726f206160408201526564647265737360d01b606082015260800190565b60208082526029908201527f6b206f72204e20617265206e6f74204f4b20647572696e672072616e646f6d2060408201526839b2b632b1ba34b7b760b91b606082015260800190565b6020808252602a908201527f4661696c20647572696e6720616c6c6f636174696f6e3a206e6f7420656e6f75604082015269676820776f726b65727360b01b606082015260800190565b60208082526038908201527f55736572206e6565647320746f20626520616c6c6f636174656420746f20746860408201527f697320626174636820746f20636f6d6d6974206f6e2069740000000000000000606082015260800190565b6020808252602f908201527f636f756c64206e6f742072657761726420746f6b656e20696e2054726967676560408201526e3921b432b1b5a9b837ba161018973160891b606082015260800190565b60208082526044908201527f4c61737420616c6c6f636174696f6e20776173206c657373207468616e20746860408201527f6520494e5445525f414c4c4f434154494f4e5f4455524154494f4e20647572616060820152633a34b7b760e11b608082015260a00190565b6020808252603d908201527f436f756c64206e6f74207265717565737420656e6f75676820616c6c6f63617460408201527f6564207374616b652c2072657175657374566f74696e67526967687473000000606082015260800190565b6020808252602f908201527f5573657220686173206e6f7420636f6d6d69746564206265666f72652c20746860408201526e1d5cc818d85b89dd081c995d99585b608a1b606082015260800190565b6020808252602d908201527f636f756c64206e6f74207265776172642052455020696e20547269676765724360408201526c6865636b53706f742c20312e6160981b606082015260800190565b60208082526039908201527f646c6c4d61703a20646f6573206e6f7420636f696e7461696e205f446174614260408201527f61746368496420666f7220746865206d73672073656e64657200000000000000606082015260800190565b6020808252601490820152733737ba1030903b30b634b2103837b9b4ba34b7b760611b604082015260600190565b6020808252603a908201527f576f726b65722063757272656e746c792068617320776f726b20616c6c6f636160408201527f7465642c2063616e277420626520756e72656769737465726564000000000000606082015260800190565b6020808252603b908201527f43616e277420616c6c6f6361746520776f726b2c207468652063757272656e7460408201527f20626174636820697320616c726561647920616c6c6f63617465640000000000606082015260800190565b6020808252602c908201527f576f726b6572206973206e6f74207265676973746572656420736f2063616e2760408201526b3a103ab73932b3b4b9ba32b960a11b606082015260800190565b6020808252818101527f4f776e61626c653a2063616c6c6572206973206e6f7420746865206f776e6572604082015260600190565b6020808252603a908201527f5f446174614261746368496420686173206e6f7420656e6465642c206f72206e60408201527f6f7420657665727920766f74657273206861766520766f746564000000000000606082015260800190565b60208082526036908201527f43616e277420616c6c6f6361746520776f726b2c207468652063757272656e74604082015275206261746368206973206e6f7420636f6d706c65746560501b606082015260800190565b60208082526026908201527f52657665616c20706572696f64206e6f74206f70656e20666f7220746869732060408201526511185d18525160d21b606082015260800190565b60208082526027908201527f617661696c61626c65546f6b656e732073686f756c64206265203e3d205f6e756040820152666d546f6b656e7360c81b606082015260800190565b60208082526017908201527f5f4461746142617463684964206d757374206578697374000000000000000000604082015260600190565b6020808252601390820152720c081059191c995cdcc8139bdd0815985b1a59606a1b604082015260600190565b6020808252602f908201527f636f756c64206e6f742072657761726420746f6b656e20696e2054726967676560408201526e3921b432b1b5a9b837ba161019173160891b606082015260800190565b60208082526021908201527f5f446174614261746368496420697320616c72656164792076616c69646174656040820152601960fa1b606082015260800190565b60208082526029908201527f557365722068617320616c726561647920636f6d6d6974656420746f207468696040820152681cc818985d18da125960ba1b606082015260800190565b60208082526022908201527f4d6178696d756d207265676973746572656420776f726b65727320616c726561604082015261647960f01b606082015260800190565b60208082526037908201527f75736572206d757374206861766520656e6f75676820766f74696e672072696760408201527f68747320616b6120616c6c6f6361746564207374616b65000000000000000000606082015260800190565b6020808252602d908201527f636f756c64206e6f74207265776172642052455020696e20547269676765724360408201526c6865636b53706f742c20322e6160981b606082015260800190565b6020808252603b908201527f436f756c64206e6f74207769746864726177566f74696e67526967687473207460408201527f68726f7567682050726f78795374616b654465616c6c6f636174650000000000606082015260800190565b6020808252600f908201526e11185d18481b5d5cdd08195e1a5cdd608a1b604082015260600190565b6020808252602c908201527f557365722068617320616c72656164792072657665616c65642c20746875732060408201526b18d85b89dd081c995d99585b60a21b606082015260800190565b60006020825282516020830152602083015160408301526040830151606083015260608301516080830152608083015161774f60a084018261685d565b5060a083015161776260c084018261685d565b5060c083015161777560e084018261685d565b5060e0830151610100838101919091528301516101208084019190915283015161014080840191909152830151610160808401919091528301516101c06101808085018290526177c96101e0860184616863565b908601516101a086810191909152860151909250615f178286018261688f565b600083825282602083015260606040830152614342606083016168b1565b600084825283602083015260806040830152617825608083016168b1565b9050826060830152949350505050565b600083825282602083015260606040830152614342606083016168ce565b600084825283602083015260806040830152617825608083016168ce565b93845260208401929092526040830152606082015260800190565b600060208252825160e060208401526178a9610100840182616863565b905060018060a01b03602085015116604084015260408401516060840152606084015160808401526080840151601f19808584030160a08601526178ed8383616863565b925060a08601519150808584030160c08601525061790b8282616863565b91505060c084015161792060e085018261688f565b509392505050565b9182526001600160a01b0316602082015260400190565b9182526001600160a01b031660208201526000604082015260600190565b9283526020830191909152604082015260600190565b60008f82528e60208301528d60408301528c60608301528b151560808301528a151560a08301526179a760c083018b61685d565b8860e08301528761010083015286610120830152856101408301526101c06101608301526179d96101c0830186616863565b9050836101808301526179f06101a083018461688f565b9f9e505050505050505050505050505050565b6000808335601e19843603018112617a19578283fd5b8301803591506001600160401b03821115617a32578283fd5b60200191503681900382131561641057600080fd5b6040518181016001600160401b0381118282101715617a6857617a68617bc7565b604052919050565b60006001600160401b03821115617a8957617a89617bc7565b5060209081020190565b60009081526020902090565b60008219821115617ab257617ab2617b9b565b500190565b600082617ac657617ac6617bb1565b500490565b6000816000190483118215151615617ae557617ae5617b9b565b500290565b600082821015617afc57617afc617b9b565b500390565b60005b83811015617b1c578181015183820152602001617b04565b83811115617b2b576000848401525b50505050565b600281046001821680617b4557607f821691505b60208210811415617b6657634e487b7160e01b600052602260045260246000fd5b50919050565b6000600019821415617b8057617b80617b9b565b5060010190565b600082617b9657617b96617bb1565b500690565b634e487b7160e01b600052601160045260246000fd5b634e487b7160e01b600052601260045260246000fd5b634e487b7160e01b600052604160045260246000fdfea264697066735822122069d5be245e288f260f4404fe795f1718c5d697bd1031956552af519d760b922d64736f6c63430008000033",
  "linkReferences": {
    "contracts/worksystems/DataSpotting.sol": {
      "AttributeStore": [
        {
          "length": 20,
          "start": 9313
        },
        {
          "length": 20,
          "start": 9419
        },
        {
          "length": 20,
          "start": 16577
        },
        {
          "length": 20,
          "start": 16828
        }
      ],
      "DLL": [
        {
          "length": 20,
          "start": 4521
        },
        {
          "length": 20,
          "start": 7433
        },
        {
          "length": 20,
          "start": 8833
        },
        {
          "length": 20,
          "start": 8995
        },
        {
          "length": 20,
          "start": 9190
        },
        {
          "length": 20,
          "start": 13023
        },
        {
          "length": 20,
          "start": 13203
        }
      ]
    }
  },
  "deployedLinkReferences": {
    "contracts/worksystems/DataSpotting.sol": {
      "AttributeStore": [
        {
          "length": 20,
          "start": 8851
        },
        {
          "length": 20,
          "start": 8957
        },
        {
          "length": 20,
          "start": 16115
        },
        {
          "length": 20,
          "start": 16366
        }
      ],
      "DLL": [
        {
          "length": 20,
          "start": 4059
        },
        {
          "length": 20,
          "start": 6971
        },
        {
          "length": 20,
          "start": 8371
        },
        {
          "length": 20,
          "start": 8533
        },
        {
          "length": 20,
          "start": 8728
        },
        {
          "length": 20,
          "start": 12561
        },
        {
          "length": 20,
          "start": 12741
        }
      ]
    }
  }
}