{
  "_format": "hh-sol-artifact-1",
  "contractName": "DataSpotting",
  "sourceName": "contracts/worksystems/DataSpotting.sol",
  "abi": [
    {
      "inputs": [
        {
          "internalType": "address",
          "name": "EXDT_token_",
          "type": "address"
        }
      ],
      "stateMutability": "nonpayable",
      "type": "constructor"
    },
    {
      "anonymous": false,
      "inputs": [
        {
          "indexed": false,
          "internalType": "bytes",
          "name": "bytesFailure",
          "type": "bytes"
        }
      ],
      "name": "BytesFailure",
      "type": "event"
    },
    {
      "anonymous": false,
      "inputs": [
        {
          "indexed": true,
          "internalType": "address",
          "name": "previousOwner",
          "type": "address"
        },
        {
          "indexed": true,
          "internalType": "address",
          "name": "newOwner",
          "type": "address"
        }
      ],
      "name": "OwnershipTransferred",
      "type": "event"
    },
    {
      "anonymous": false,
      "inputs": [
        {
          "indexed": false,
          "internalType": "address",
          "name": "parameters",
          "type": "address"
        }
      ],
      "name": "ParametersUpdated",
      "type": "event"
    },
    {
      "anonymous": false,
      "inputs": [
        {
          "indexed": false,
          "internalType": "address",
          "name": "account",
          "type": "address"
        }
      ],
      "name": "Paused",
      "type": "event"
    },
    {
      "anonymous": false,
      "inputs": [
        {
          "indexed": false,
          "internalType": "address",
          "name": "account",
          "type": "address"
        }
      ],
      "name": "Unpaused",
      "type": "event"
    },
    {
      "anonymous": false,
      "inputs": [
        {
          "indexed": true,
          "internalType": "uint256",
          "name": "DataID",
          "type": "uint256"
        },
        {
          "indexed": false,
          "internalType": "string",
          "name": "file_hash",
          "type": "string"
        },
        {
          "indexed": false,
          "internalType": "bool",
          "name": "isVotePassed",
          "type": "bool"
        }
      ],
      "name": "_BatchValidated",
      "type": "event"
    },
    {
      "anonymous": false,
      "inputs": [
        {
          "indexed": true,
          "internalType": "uint256",
          "name": "batchID",
          "type": "uint256"
        }
      ],
      "name": "_DataBatchDeleted",
      "type": "event"
    },
    {
      "anonymous": false,
      "inputs": [
        {
          "indexed": true,
          "internalType": "uint256",
          "name": "DataID",
          "type": "uint256"
        },
        {
          "indexed": false,
          "internalType": "uint256",
          "name": "numTokens",
          "type": "uint256"
        },
        {
          "indexed": true,
          "internalType": "address",
          "name": "voter",
          "type": "address"
        }
      ],
      "name": "_SpotCheckCommitted",
      "type": "event"
    },
    {
      "anonymous": false,
      "inputs": [
        {
          "indexed": true,
          "internalType": "uint256",
          "name": "DataID",
          "type": "uint256"
        },
        {
          "indexed": false,
          "internalType": "uint256",
          "name": "votesFor",
          "type": "uint256"
        },
        {
          "indexed": false,
          "internalType": "uint256",
          "name": "votesAgainst",
          "type": "uint256"
        },
        {
          "indexed": true,
          "internalType": "uint256",
          "name": "choice",
          "type": "uint256"
        },
        {
          "indexed": true,
          "internalType": "address",
          "name": "voter",
          "type": "address"
        }
      ],
      "name": "_SpotCheckRevealed",
      "type": "event"
    },
    {
      "anonymous": false,
      "inputs": [
        {
          "indexed": true,
          "internalType": "uint256",
          "name": "DataID",
          "type": "uint256"
        },
        {
          "indexed": false,
          "internalType": "string",
          "name": "file_hash",
          "type": "string"
        },
        {
          "indexed": false,
          "internalType": "string",
          "name": "URL_domain",
          "type": "string"
        },
        {
          "indexed": true,
          "internalType": "address",
          "name": "sender",
          "type": "address"
        }
      ],
      "name": "_SpotSubmitted",
      "type": "event"
    },
    {
      "anonymous": false,
      "inputs": [
        {
          "indexed": false,
          "internalType": "uint256",
          "name": "numTokens",
          "type": "uint256"
        },
        {
          "indexed": true,
          "internalType": "address",
          "name": "voter",
          "type": "address"
        }
      ],
      "name": "_StakeAllocated",
      "type": "event"
    },
    {
      "anonymous": false,
      "inputs": [
        {
          "indexed": true,
          "internalType": "uint256",
          "name": "DataID",
          "type": "uint256"
        },
        {
          "indexed": true,
          "internalType": "address",
          "name": "voter",
          "type": "address"
        }
      ],
      "name": "_TokensRescued",
      "type": "event"
    },
    {
      "anonymous": false,
      "inputs": [
        {
          "indexed": false,
          "internalType": "uint256",
          "name": "numTokens",
          "type": "uint256"
        },
        {
          "indexed": true,
          "internalType": "address",
          "name": "voter",
          "type": "address"
        }
      ],
      "name": "_VotingRightsWithdrawn",
      "type": "event"
    },
    {
      "anonymous": false,
      "inputs": [
        {
          "indexed": true,
          "internalType": "uint256",
          "name": "batchID",
          "type": "uint256"
        },
        {
          "indexed": false,
          "internalType": "address",
          "name": "worker",
          "type": "address"
        }
      ],
      "name": "_WorkAllocated",
      "type": "event"
    },
    {
      "anonymous": false,
      "inputs": [
        {
          "indexed": true,
          "internalType": "address",
          "name": "worker",
          "type": "address"
        },
        {
          "indexed": false,
          "internalType": "uint256",
          "name": "timestamp",
          "type": "uint256"
        }
      ],
      "name": "_WorkerRegistered",
      "type": "event"
    },
    {
      "anonymous": false,
      "inputs": [
        {
          "indexed": true,
          "internalType": "address",
          "name": "worker",
          "type": "address"
        },
        {
          "indexed": false,
          "internalType": "uint256",
          "name": "timestamp",
          "type": "uint256"
        }
      ],
      "name": "_WorkerUnregistered",
      "type": "event"
    },
    {
      "inputs": [],
      "name": "AcceptedBatchsCounter",
      "outputs": [
        {
          "internalType": "uint128",
          "name": "",
          "type": "uint128"
        }
      ],
      "stateMutability": "view",
      "type": "function"
    },
    {
      "inputs": [],
      "name": "AllItemCounter",
      "outputs": [
        {
          "internalType": "uint256",
          "name": "",
          "type": "uint256"
        }
      ],
      "stateMutability": "view",
      "type": "function"
    },
    {
      "inputs": [],
      "name": "AllTxsCounter",
      "outputs": [
        {
          "internalType": "uint256",
          "name": "",
          "type": "uint256"
        }
      ],
      "stateMutability": "view",
      "type": "function"
    },
    {
      "inputs": [
        {
          "internalType": "uint256",
          "name": "",
          "type": "uint256"
        }
      ],
      "name": "AllWorkersList",
      "outputs": [
        {
          "internalType": "address",
          "name": "",
          "type": "address"
        }
      ],
      "stateMutability": "view",
      "type": "function"
    },
    {
      "inputs": [],
      "name": "AllocatedBatchCursor",
      "outputs": [
        {
          "internalType": "uint128",
          "name": "",
          "type": "uint128"
        }
      ],
      "stateMutability": "view",
      "type": "function"
    },
    {
      "inputs": [],
      "name": "AmIKicked",
      "outputs": [
        {
          "internalType": "bool",
          "name": "status",
          "type": "bool"
        }
      ],
      "stateMutability": "view",
      "type": "function"
    },
    {
      "inputs": [],
      "name": "AmIRegistered",
      "outputs": [
        {
          "internalType": "bool",
          "name": "passed",
          "type": "bool"
        }
      ],
      "stateMutability": "view",
      "type": "function"
    },
    {
      "inputs": [
        {
          "internalType": "string",
          "name": "_a",
          "type": "string"
        },
        {
          "internalType": "string",
          "name": "_b",
          "type": "string"
        }
      ],
      "name": "AreStringsEqual",
      "outputs": [
        {
          "internalType": "bool",
          "name": "",
          "type": "bool"
        }
      ],
      "stateMutability": "pure",
      "type": "function"
    },
    {
      "inputs": [],
      "name": "BatchCheckingCursor",
      "outputs": [
        {
          "internalType": "uint128",
          "name": "",
          "type": "uint128"
        }
      ],
      "stateMutability": "view",
      "type": "function"
    },
    {
      "inputs": [
        {
          "internalType": "uint128",
          "name": "",
          "type": "uint128"
        }
      ],
      "name": "BatchCommitedVoteCount",
      "outputs": [
        {
          "internalType": "uint16",
          "name": "",
          "type": "uint16"
        }
      ],
      "stateMutability": "view",
      "type": "function"
    },
    {
      "inputs": [],
      "name": "BatchDeletionCursor",
      "outputs": [
        {
          "internalType": "uint128",
          "name": "",
          "type": "uint128"
        }
      ],
      "stateMutability": "view",
      "type": "function"
    },
    {
      "inputs": [
        {
          "internalType": "uint128",
          "name": "",
          "type": "uint128"
        }
      ],
      "name": "BatchRevealedVoteCount",
      "outputs": [
        {
          "internalType": "uint16",
          "name": "",
          "type": "uint16"
        }
      ],
      "stateMutability": "view",
      "type": "function"
    },
    {
      "inputs": [],
      "name": "BytesUsed",
      "outputs": [
        {
          "internalType": "uint256",
          "name": "",
          "type": "uint256"
        }
      ],
      "stateMutability": "view",
      "type": "function"
    },
    {
      "inputs": [
        {
          "internalType": "uint128",
          "name": "",
          "type": "uint128"
        }
      ],
      "name": "DataBatch",
      "outputs": [
        {
          "internalType": "uint128",
          "name": "start_idx",
          "type": "uint128"
        },
        {
          "internalType": "uint32",
          "name": "counter",
          "type": "uint32"
        },
        {
          "internalType": "uint32",
          "name": "item_count",
          "type": "uint32"
        },
        {
          "internalType": "uint16",
          "name": "uncommited_workers",
          "type": "uint16"
        },
        {
          "internalType": "uint16",
          "name": "unrevealed_workers",
          "type": "uint16"
        },
        {
          "internalType": "bool",
          "name": "complete",
          "type": "bool"
        },
        {
          "internalType": "bool",
          "name": "checked",
          "type": "bool"
        },
        {
          "internalType": "bool",
          "name": "allocated_to_work",
          "type": "bool"
        },
        {
          "internalType": "uint16",
          "name": "votesFor",
          "type": "uint16"
        },
        {
          "internalType": "uint16",
          "name": "votesAgainst",
          "type": "uint16"
        },
        {
          "internalType": "uint64",
          "name": "commitEndDate",
          "type": "uint64"
        },
        {
          "internalType": "uint64",
          "name": "revealEndDate",
          "type": "uint64"
        },
        {
          "internalType": "string",
          "name": "batchIPFSfile",
          "type": "string"
        },
        {
          "internalType": "enum DataSpotting.DataStatus",
          "name": "status",
          "type": "uint8"
        }
      ],
      "stateMutability": "view",
      "type": "function"
    },
    {
      "inputs": [
        {
          "internalType": "uint128",
          "name": "_DataBatchId",
          "type": "uint128"
        }
      ],
      "name": "DataCommitEndDate",
      "outputs": [
        {
          "internalType": "uint256",
          "name": "commitEndDate",
          "type": "uint256"
        }
      ],
      "stateMutability": "view",
      "type": "function"
    },
    {
      "inputs": [
        {
          "internalType": "uint128",
          "name": "_DataBatchId",
          "type": "uint128"
        }
      ],
      "name": "DataEnded",
      "outputs": [
        {
          "internalType": "bool",
          "name": "ended",
          "type": "bool"
        }
      ],
      "stateMutability": "view",
      "type": "function"
    },
    {
      "inputs": [
        {
          "internalType": "uint128",
          "name": "_DataBatchId",
          "type": "uint128"
        }
      ],
      "name": "DataExists",
      "outputs": [
        {
          "internalType": "bool",
          "name": "exists",
          "type": "bool"
        }
      ],
      "stateMutability": "view",
      "type": "function"
    },
    {
      "inputs": [],
      "name": "DataNonce",
      "outputs": [
        {
          "internalType": "uint128",
          "name": "",
          "type": "uint128"
        }
      ],
      "stateMutability": "view",
      "type": "function"
    },
    {
      "inputs": [
        {
          "internalType": "uint128",
          "name": "_DataBatchId",
          "type": "uint128"
        }
      ],
      "name": "DataRevealEndDate",
      "outputs": [
        {
          "internalType": "uint256",
          "name": "revealEndDate",
          "type": "uint256"
        }
      ],
      "stateMutability": "view",
      "type": "function"
    },
    {
      "inputs": [],
      "name": "FORCE_VALIDATE_BATCH_FILE",
      "outputs": [
        {
          "internalType": "bool",
          "name": "",
          "type": "bool"
        }
      ],
      "stateMutability": "view",
      "type": "function"
    },
    {
      "inputs": [],
      "name": "GAS_LEFT_LIMIT",
      "outputs": [
        {
          "internalType": "uint256",
          "name": "",
          "type": "uint256"
        }
      ],
      "stateMutability": "view",
      "type": "function"
    },
    {
      "inputs": [
        {
          "internalType": "address",
          "name": "user_",
          "type": "address"
        }
      ],
      "name": "GetCurrentWork",
      "outputs": [
        {
          "internalType": "uint256",
          "name": "",
          "type": "uint256"
        }
      ],
      "stateMutability": "view",
      "type": "function"
    },
    {
      "inputs": [
        {
          "internalType": "uint256",
          "name": "",
          "type": "uint256"
        }
      ],
      "name": "GlobalSpotFlowManager",
      "outputs": [
        {
          "internalType": "uint256",
          "name": "timestamp",
          "type": "uint256"
        },
        {
          "internalType": "uint256",
          "name": "counter",
          "type": "uint256"
        }
      ],
      "stateMutability": "view",
      "type": "function"
    },
    {
      "inputs": [],
      "name": "InstantRevealRewards",
      "outputs": [
        {
          "internalType": "bool",
          "name": "",
          "type": "bool"
        }
      ],
      "stateMutability": "view",
      "type": "function"
    },
    {
      "inputs": [],
      "name": "InstantRevealRewardsDivider",
      "outputs": [
        {
          "internalType": "uint16",
          "name": "",
          "type": "uint16"
        }
      ],
      "stateMutability": "view",
      "type": "function"
    },
    {
      "inputs": [],
      "name": "InstantSpotRewards",
      "outputs": [
        {
          "internalType": "bool",
          "name": "",
          "type": "bool"
        }
      ],
      "stateMutability": "view",
      "type": "function"
    },
    {
      "inputs": [],
      "name": "InstantSpotRewardsDivider",
      "outputs": [
        {
          "internalType": "uint16",
          "name": "",
          "type": "uint16"
        }
      ],
      "stateMutability": "view",
      "type": "function"
    },
    {
      "inputs": [
        {
          "internalType": "address",
          "name": "user_",
          "type": "address"
        }
      ],
      "name": "IsAddressKicked",
      "outputs": [
        {
          "internalType": "bool",
          "name": "status",
          "type": "bool"
        }
      ],
      "stateMutability": "view",
      "type": "function"
    },
    {
      "inputs": [
        {
          "internalType": "address",
          "name": "_worker",
          "type": "address"
        }
      ],
      "name": "IsInLogoffList",
      "outputs": [
        {
          "internalType": "bool",
          "name": "",
          "type": "bool"
        }
      ],
      "stateMutability": "view",
      "type": "function"
    },
    {
      "inputs": [
        {
          "internalType": "address",
          "name": "user_",
          "type": "address"
        }
      ],
      "name": "IsNewWorkAvailable",
      "outputs": [
        {
          "internalType": "bool",
          "name": "",
          "type": "bool"
        }
      ],
      "stateMutability": "view",
      "type": "function"
    },
    {
      "inputs": [
        {
          "internalType": "uint256",
          "name": "",
          "type": "uint256"
        }
      ],
      "name": "ItemFlowManager",
      "outputs": [
        {
          "internalType": "uint256",
          "name": "timestamp",
          "type": "uint256"
        },
        {
          "internalType": "uint256",
          "name": "counter",
          "type": "uint256"
        }
      ],
      "stateMutability": "view",
      "type": "function"
    },
    {
      "inputs": [],
      "name": "LastAllocationTime",
      "outputs": [
        {
          "internalType": "uint64",
          "name": "",
          "type": "uint64"
        }
      ],
      "stateMutability": "view",
      "type": "function"
    },
    {
      "inputs": [],
      "name": "LastBatchCounter",
      "outputs": [
        {
          "internalType": "uint128",
          "name": "",
          "type": "uint128"
        }
      ],
      "stateMutability": "view",
      "type": "function"
    },
    {
      "inputs": [],
      "name": "LastRandomSeed",
      "outputs": [
        {
          "internalType": "uint256",
          "name": "",
          "type": "uint256"
        }
      ],
      "stateMutability": "view",
      "type": "function"
    },
    {
      "inputs": [],
      "name": "MaxPendingDataBatchCount",
      "outputs": [
        {
          "internalType": "uint16",
          "name": "",
          "type": "uint16"
        }
      ],
      "stateMutability": "view",
      "type": "function"
    },
    {
      "inputs": [],
      "name": "NotCommitedCounter",
      "outputs": [
        {
          "internalType": "uint128",
          "name": "",
          "type": "uint128"
        }
      ],
      "stateMutability": "view",
      "type": "function"
    },
    {
      "inputs": [],
      "name": "NotRevealedCounter",
      "outputs": [
        {
          "internalType": "uint128",
          "name": "",
          "type": "uint128"
        }
      ],
      "stateMutability": "view",
      "type": "function"
    },
    {
      "inputs": [],
      "name": "Parameters",
      "outputs": [
        {
          "internalType": "contract IParametersManager",
          "name": "",
          "type": "address"
        }
      ],
      "stateMutability": "view",
      "type": "function"
    },
    {
      "inputs": [],
      "name": "RegisterWorker",
      "outputs": [],
      "stateMutability": "nonpayable",
      "type": "function"
    },
    {
      "inputs": [],
      "name": "RejectedBatchsCounter",
      "outputs": [
        {
          "internalType": "uint128",
          "name": "",
          "type": "uint128"
        }
      ],
      "stateMutability": "view",
      "type": "function"
    },
    {
      "inputs": [],
      "name": "SPOT_FILE_SIZE",
      "outputs": [
        {
          "internalType": "uint16",
          "name": "",
          "type": "uint16"
        }
      ],
      "stateMutability": "view",
      "type": "function"
    },
    {
      "inputs": [],
      "name": "STAKING_REQUIREMENT_TOGGLE_ENABLED",
      "outputs": [
        {
          "internalType": "bool",
          "name": "",
          "type": "bool"
        }
      ],
      "stateMutability": "view",
      "type": "function"
    },
    {
      "inputs": [
        {
          "internalType": "address",
          "name": "_worker",
          "type": "address"
        },
        {
          "internalType": "uint256",
          "name": "_TokensAmountToAllocate",
          "type": "uint256"
        }
      ],
      "name": "SelectAddressForUser",
      "outputs": [
        {
          "internalType": "address",
          "name": "",
          "type": "address"
        }
      ],
      "stateMutability": "view",
      "type": "function"
    },
    {
      "inputs": [
        {
          "internalType": "string[]",
          "name": "file_hashs_",
          "type": "string[]"
        },
        {
          "internalType": "string[]",
          "name": "URL_domains_",
          "type": "string[]"
        },
        {
          "internalType": "uint64[]",
          "name": "item_counts_",
          "type": "uint64[]"
        },
        {
          "internalType": "string",
          "name": "extra_",
          "type": "string"
        }
      ],
      "name": "SpotData",
      "outputs": [
        {
          "internalType": "uint256",
          "name": "Dataid_",
          "type": "uint256"
        }
      ],
      "stateMutability": "nonpayable",
      "type": "function"
    },
    {
      "inputs": [
        {
          "internalType": "uint128",
          "name": "",
          "type": "uint128"
        }
      ],
      "name": "SpotsMapping",
      "outputs": [
        {
          "internalType": "uint64",
          "name": "timestamp",
          "type": "uint64"
        },
        {
          "internalType": "uint64",
          "name": "item_count",
          "type": "uint64"
        },
        {
          "internalType": "enum DataSpotting.DataStatus",
          "name": "status",
          "type": "uint8"
        },
        {
          "internalType": "address",
          "name": "author",
          "type": "address"
        },
        {
          "internalType": "string",
          "name": "ipfs_hash",
          "type": "string"
        },
        {
          "internalType": "string",
          "name": "URL_domain",
          "type": "string"
        },
        {
          "internalType": "string",
          "name": "extra",
          "type": "string"
        }
      ],
      "stateMutability": "view",
      "type": "function"
    },
    {
      "inputs": [
        {
          "internalType": "address",
          "name": "",
          "type": "address"
        }
      ],
      "name": "SystemStakedTokenBalance",
      "outputs": [
        {
          "internalType": "uint256",
          "name": "",
          "type": "uint256"
        }
      ],
      "stateMutability": "view",
      "type": "function"
    },
    {
      "inputs": [],
      "name": "TRIGGER_WITH_SPOTDATA_TOGGLE_ENABLED",
      "outputs": [
        {
          "internalType": "bool",
          "name": "",
          "type": "bool"
        }
      ],
      "stateMutability": "view",
      "type": "function"
    },
    {
      "inputs": [
        {
          "internalType": "uint128",
          "name": "iteration_count",
          "type": "uint128"
        }
      ],
      "name": "TriggerAllocations",
      "outputs": [],
      "stateMutability": "nonpayable",
      "type": "function"
    },
    {
      "inputs": [
        {
          "internalType": "uint128",
          "name": "iteration_count",
          "type": "uint128"
        }
      ],
      "name": "TriggerDeletion",
      "outputs": [],
      "stateMutability": "nonpayable",
      "type": "function"
    },
    {
      "inputs": [
        {
          "internalType": "uint128",
          "name": "iteration_count",
          "type": "uint128"
        }
      ],
      "name": "TriggerUpdate",
      "outputs": [],
      "stateMutability": "nonpayable",
      "type": "function"
    },
    {
      "inputs": [
        {
          "internalType": "uint128",
          "name": "iteration_count",
          "type": "uint128"
        }
      ],
      "name": "TriggerValidation",
      "outputs": [],
      "stateMutability": "nonpayable",
      "type": "function"
    },
    {
      "inputs": [],
      "name": "UnregisterWorker",
      "outputs": [],
      "stateMutability": "nonpayable",
      "type": "function"
    },
    {
      "inputs": [
        {
          "internalType": "uint128",
          "name": "",
          "type": "uint128"
        },
        {
          "internalType": "address",
          "name": "",
          "type": "address"
        }
      ],
      "name": "UserVoteSubmission",
      "outputs": [
        {
          "internalType": "bool",
          "name": "commited",
          "type": "bool"
        },
        {
          "internalType": "bool",
          "name": "revealed",
          "type": "bool"
        },
        {
          "internalType": "uint8",
          "name": "vote",
          "type": "uint8"
        },
        {
          "internalType": "uint32",
          "name": "batchCount",
          "type": "uint32"
        },
        {
          "internalType": "string",
          "name": "newFile",
          "type": "string"
        },
        {
          "internalType": "string",
          "name": "batchFrom",
          "type": "string"
        }
      ],
      "stateMutability": "view",
      "type": "function"
    },
    {
      "inputs": [],
      "name": "VALIDATE_ON_LAST_REVEAL",
      "outputs": [
        {
          "internalType": "bool",
          "name": "",
          "type": "bool"
        }
      ],
      "stateMutability": "view",
      "type": "function"
    },
    {
      "inputs": [
        {
          "internalType": "uint128",
          "name": "",
          "type": "uint128"
        },
        {
          "internalType": "uint256",
          "name": "",
          "type": "uint256"
        }
      ],
      "name": "WorkersPerBatch",
      "outputs": [
        {
          "internalType": "address",
          "name": "",
          "type": "address"
        }
      ],
      "stateMutability": "view",
      "type": "function"
    },
    {
      "inputs": [
        {
          "internalType": "address",
          "name": "",
          "type": "address"
        },
        {
          "internalType": "uint256",
          "name": "",
          "type": "uint256"
        }
      ],
      "name": "WorkersSpotFlowManager",
      "outputs": [
        {
          "internalType": "uint256",
          "name": "timestamp",
          "type": "uint256"
        },
        {
          "internalType": "uint256",
          "name": "counter",
          "type": "uint256"
        }
      ],
      "stateMutability": "view",
      "type": "function"
    },
    {
      "inputs": [
        {
          "internalType": "address",
          "name": "",
          "type": "address"
        }
      ],
      "name": "WorkersState",
      "outputs": [
        {
          "internalType": "uint128",
          "name": "allocated_work_batch",
          "type": "uint128"
        },
        {
          "internalType": "uint64",
          "name": "last_interaction_date",
          "type": "uint64"
        },
        {
          "internalType": "uint16",
          "name": "succeeding_novote_count",
          "type": "uint16"
        },
        {
          "internalType": "bool",
          "name": "registered",
          "type": "bool"
        },
        {
          "internalType": "bool",
          "name": "unregistration_request",
          "type": "bool"
        },
        {
          "internalType": "bool",
          "name": "isWorkerSeen",
          "type": "bool"
        },
        {
          "internalType": "uint64",
          "name": "registration_date",
          "type": "uint64"
        },
        {
          "internalType": "uint64",
          "name": "allocated_batch_counter",
          "type": "uint64"
        },
        {
          "internalType": "uint64",
          "name": "majority_counter",
          "type": "uint64"
        },
        {
          "internalType": "uint64",
          "name": "minority_counter",
          "type": "uint64"
        }
      ],
      "stateMutability": "view",
      "type": "function"
    },
    {
      "inputs": [
        {
          "internalType": "address",
          "name": "",
          "type": "address"
        }
      ],
      "name": "WorkersStatus",
      "outputs": [
        {
          "internalType": "bool",
          "name": "isAvailableWorker",
          "type": "bool"
        },
        {
          "internalType": "bool",
          "name": "isBusyWorker",
          "type": "bool"
        },
        {
          "internalType": "bool",
          "name": "isToUnregisterWorker",
          "type": "bool"
        },
        {
          "internalType": "uint32",
          "name": "availableWorkersIndex",
          "type": "uint32"
        },
        {
          "internalType": "uint32",
          "name": "busyWorkersIndex",
          "type": "uint32"
        },
        {
          "internalType": "uint32",
          "name": "toUnregisterWorkersIndex",
          "type": "uint32"
        }
      ],
      "stateMutability": "view",
      "type": "function"
    },
    {
      "inputs": [
        {
          "internalType": "address",
          "name": "user_",
          "type": "address"
        },
        {
          "internalType": "uint128",
          "name": "_DataBatchId",
          "type": "uint128"
        }
      ],
      "name": "attrUUID",
      "outputs": [
        {
          "internalType": "bytes32",
          "name": "UUID",
          "type": "bytes32"
        }
      ],
      "stateMutability": "pure",
      "type": "function"
    },
    {
      "inputs": [
        {
          "internalType": "uint256",
          "name": "",
          "type": "uint256"
        }
      ],
      "name": "availableWorkers",
      "outputs": [
        {
          "internalType": "address",
          "name": "",
          "type": "address"
        }
      ],
      "stateMutability": "view",
      "type": "function"
    },
    {
      "inputs": [
        {
          "internalType": "uint256",
          "name": "",
          "type": "uint256"
        }
      ],
      "name": "busyWorkers",
      "outputs": [
        {
          "internalType": "address",
          "name": "",
          "type": "address"
        }
      ],
      "stateMutability": "view",
      "type": "function"
    },
    {
      "inputs": [
        {
          "internalType": "uint128",
          "name": "_DataBatchId",
          "type": "uint128"
        }
      ],
      "name": "commitPeriodActive",
      "outputs": [
        {
          "internalType": "bool",
          "name": "active",
          "type": "bool"
        }
      ],
      "stateMutability": "view",
      "type": "function"
    },
    {
      "inputs": [
        {
          "internalType": "uint128",
          "name": "_DataBatchId",
          "type": "uint128"
        }
      ],
      "name": "commitPeriodOver",
      "outputs": [
        {
          "internalType": "bool",
          "name": "active",
          "type": "bool"
        }
      ],
      "stateMutability": "view",
      "type": "function"
    },
    {
      "inputs": [
        {
          "internalType": "uint128",
          "name": "_DataBatchId",
          "type": "uint128"
        },
        {
          "internalType": "bytes32",
          "name": "_encryptedHash",
          "type": "bytes32"
        },
        {
          "internalType": "bytes32",
          "name": "_encryptedVote",
          "type": "bytes32"
        },
        {
          "internalType": "uint32",
          "name": "_BatchCount",
          "type": "uint32"
        },
        {
          "internalType": "string",
          "name": "_From",
          "type": "string"
        }
      ],
      "name": "commitSpotCheck",
      "outputs": [],
      "stateMutability": "nonpayable",
      "type": "function"
    },
    {
      "inputs": [],
      "name": "deleteAllWorkersArray",
      "outputs": [],
      "stateMutability": "nonpayable",
      "type": "function"
    },
    {
      "inputs": [],
      "name": "deleteAvailableWorkersArray",
      "outputs": [],
      "stateMutability": "nonpayable",
      "type": "function"
    },
    {
      "inputs": [
        {
          "internalType": "address",
          "name": "user_",
          "type": "address"
        }
      ],
      "name": "deleteWorkersState",
      "outputs": [],
      "stateMutability": "nonpayable",
      "type": "function"
    },
    {
      "inputs": [
        {
          "internalType": "address",
          "name": "user_",
          "type": "address"
        }
      ],
      "name": "deleteWorkersStatus",
      "outputs": [],
      "stateMutability": "nonpayable",
      "type": "function"
    },
    {
      "inputs": [],
      "name": "destroyContract",
      "outputs": [],
      "stateMutability": "nonpayable",
      "type": "function"
    },
    {
      "inputs": [
        {
          "internalType": "address",
          "name": "_voter",
          "type": "address"
        },
        {
          "internalType": "uint128",
          "name": "_DataBatchId",
          "type": "uint128"
        }
      ],
      "name": "didCommit",
      "outputs": [
        {
          "internalType": "bool",
          "name": "committed",
          "type": "bool"
        }
      ],
      "stateMutability": "view",
      "type": "function"
    },
    {
      "inputs": [
        {
          "internalType": "address",
          "name": "_voter",
          "type": "address"
        },
        {
          "internalType": "uint128",
          "name": "_DataBatchId",
          "type": "uint128"
        }
      ],
      "name": "didReveal",
      "outputs": [
        {
          "internalType": "bool",
          "name": "revealed",
          "type": "bool"
        }
      ],
      "stateMutability": "view",
      "type": "function"
    },
    {
      "inputs": [
        {
          "internalType": "uint256",
          "name": "_k",
          "type": "uint256"
        },
        {
          "internalType": "uint256",
          "name": "N_range",
          "type": "uint256"
        }
      ],
      "name": "generateIntegers",
      "outputs": [
        {
          "internalType": "uint256[]",
          "name": "",
          "type": "uint256[]"
        }
      ],
      "stateMutability": "view",
      "type": "function"
    },
    {
      "inputs": [],
      "name": "getAcceptedBatchesCount",
      "outputs": [
        {
          "internalType": "uint128",
          "name": "count",
          "type": "uint128"
        }
      ],
      "stateMutability": "view",
      "type": "function"
    },
    {
      "inputs": [],
      "name": "getActiveWorkersCount",
      "outputs": [
        {
          "internalType": "uint256",
          "name": "numWorkers",
          "type": "uint256"
        }
      ],
      "stateMutability": "view",
      "type": "function"
    },
    {
      "inputs": [
        {
          "internalType": "uint256",
          "name": "A_",
          "type": "uint256"
        },
        {
          "internalType": "uint256",
          "name": "B_",
          "type": "uint256"
        }
      ],
      "name": "getAllWorkersBetweenIndex",
      "outputs": [
        {
          "internalType": "address[]",
          "name": "workers",
          "type": "address[]"
        }
      ],
      "stateMutability": "view",
      "type": "function"
    },
    {
      "inputs": [],
      "name": "getAllWorkersLength",
      "outputs": [
        {
          "internalType": "uint256",
          "name": "length",
          "type": "uint256"
        }
      ],
      "stateMutability": "view",
      "type": "function"
    },
    {
      "inputs": [
        {
          "internalType": "bytes32",
          "name": "_UUID",
          "type": "bytes32"
        },
        {
          "internalType": "string",
          "name": "_attrName",
          "type": "string"
        }
      ],
      "name": "getAttribute",
      "outputs": [
        {
          "internalType": "uint256",
          "name": "",
          "type": "uint256"
        }
      ],
      "stateMutability": "view",
      "type": "function"
    },
    {
      "inputs": [],
      "name": "getAvailableWorkersCount",
      "outputs": [
        {
          "internalType": "uint256",
          "name": "numWorkers",
          "type": "uint256"
        }
      ],
      "stateMutability": "view",
      "type": "function"
    },
    {
      "inputs": [
        {
          "internalType": "uint128",
          "name": "_DataBatchId",
          "type": "uint128"
        }
      ],
      "name": "getBatchByID",
      "outputs": [
        {
          "components": [
            {
              "internalType": "uint128",
              "name": "start_idx",
              "type": "uint128"
            },
            {
              "internalType": "uint32",
              "name": "counter",
              "type": "uint32"
            },
            {
              "internalType": "uint32",
              "name": "item_count",
              "type": "uint32"
            },
            {
              "internalType": "uint16",
              "name": "uncommited_workers",
              "type": "uint16"
            },
            {
              "internalType": "uint16",
              "name": "unrevealed_workers",
              "type": "uint16"
            },
            {
              "internalType": "bool",
              "name": "complete",
              "type": "bool"
            },
            {
              "internalType": "bool",
              "name": "checked",
              "type": "bool"
            },
            {
              "internalType": "bool",
              "name": "allocated_to_work",
              "type": "bool"
            },
            {
              "internalType": "uint16",
              "name": "votesFor",
              "type": "uint16"
            },
            {
              "internalType": "uint16",
              "name": "votesAgainst",
              "type": "uint16"
            },
            {
              "internalType": "uint64",
              "name": "commitEndDate",
              "type": "uint64"
            },
            {
              "internalType": "uint64",
              "name": "revealEndDate",
              "type": "uint64"
            },
            {
              "internalType": "string",
              "name": "batchIPFSfile",
              "type": "string"
            },
            {
              "internalType": "enum DataSpotting.DataStatus",
              "name": "status",
              "type": "uint8"
            }
          ],
          "internalType": "struct DataSpotting.BatchMetadata",
          "name": "batch",
          "type": "tuple"
        }
      ],
      "stateMutability": "view",
      "type": "function"
    },
    {
      "inputs": [
        {
          "internalType": "uint128",
          "name": "_DataBatchId_a",
          "type": "uint128"
        },
        {
          "internalType": "uint128",
          "name": "_DataBatchId_b",
          "type": "uint128"
        }
      ],
      "name": "getBatchCountForBatch",
      "outputs": [
        {
          "internalType": "uint128",
          "name": "AverageURLCount",
          "type": "uint128"
        },
        {
          "internalType": "uint128[]",
          "name": "batchCounts",
          "type": "uint128[]"
        }
      ],
      "stateMutability": "view",
      "type": "function"
    },
    {
      "inputs": [
        {
          "internalType": "uint128",
          "name": "_DataBatchId",
          "type": "uint128"
        }
      ],
      "name": "getBatchIPFSFileByID",
      "outputs": [
        {
          "internalType": "string",
          "name": "batch",
          "type": "string"
        }
      ],
      "stateMutability": "view",
      "type": "function"
    },
    {
      "inputs": [
        {
          "internalType": "uint128",
          "name": "_DataBatchId_a",
          "type": "uint128"
        },
        {
          "internalType": "uint128",
          "name": "_DataBatchId_b",
          "type": "uint128"
        }
      ],
      "name": "getBatchsFilesByID",
      "outputs": [
        {
          "internalType": "string[]",
          "name": "",
          "type": "string[]"
        }
      ],
      "stateMutability": "view",
      "type": "function"
    },
    {
      "inputs": [],
      "name": "getBusyWorkersCount",
      "outputs": [
        {
          "internalType": "uint256",
          "name": "numWorkers",
          "type": "uint256"
        }
      ],
      "stateMutability": "view",
      "type": "function"
    },
    {
      "inputs": [],
      "name": "getBytesUsed",
      "outputs": [
        {
          "internalType": "uint256",
          "name": "storage_size",
          "type": "uint256"
        }
      ],
      "stateMutability": "view",
      "type": "function"
    },
    {
      "inputs": [
        {
          "internalType": "address",
          "name": "_voter",
          "type": "address"
        },
        {
          "internalType": "uint128",
          "name": "_DataBatchId",
          "type": "uint128"
        }
      ],
      "name": "getCommitIPFSHash",
      "outputs": [
        {
          "internalType": "bytes32",
          "name": "commitHash",
          "type": "bytes32"
        }
      ],
      "stateMutability": "view",
      "type": "function"
    },
    {
      "inputs": [
        {
          "internalType": "address",
          "name": "_voter",
          "type": "address"
        },
        {
          "internalType": "uint128",
          "name": "_DataBatchId",
          "type": "uint128"
        }
      ],
      "name": "getCommitVoteHash",
      "outputs": [
        {
          "internalType": "bytes32",
          "name": "commitHash",
          "type": "bytes32"
        }
      ],
      "stateMutability": "view",
      "type": "function"
    },
    {
      "inputs": [
        {
          "internalType": "uint128",
          "name": "_DataId",
          "type": "uint128"
        }
      ],
      "name": "getDataByID",
      "outputs": [
        {
          "components": [
            {
              "internalType": "uint64",
              "name": "timestamp",
              "type": "uint64"
            },
            {
              "internalType": "uint64",
              "name": "item_count",
              "type": "uint64"
            },
            {
              "internalType": "enum DataSpotting.DataStatus",
              "name": "status",
              "type": "uint8"
            },
            {
              "internalType": "address",
              "name": "author",
              "type": "address"
            },
            {
              "internalType": "string",
              "name": "ipfs_hash",
              "type": "string"
            },
            {
              "internalType": "string",
              "name": "URL_domain",
              "type": "string"
            },
            {
              "internalType": "string",
              "name": "extra",
              "type": "string"
            }
          ],
          "internalType": "struct DataSpotting.SpottedData",
          "name": "data",
          "type": "tuple"
        }
      ],
      "stateMutability": "view",
      "type": "function"
    },
    {
      "inputs": [
        {
          "internalType": "uint128",
          "name": "_DataBatchId",
          "type": "uint128"
        }
      ],
      "name": "getDomainsForBatch",
      "outputs": [
        {
          "internalType": "string[]",
          "name": "",
          "type": "string[]"
        }
      ],
      "stateMutability": "view",
      "type": "function"
    },
    {
      "inputs": [
        {
          "internalType": "uint256",
          "name": "_clearVote",
          "type": "uint256"
        },
        {
          "internalType": "uint256",
          "name": "_salt",
          "type": "uint256"
        }
      ],
      "name": "getEncryptedHash",
      "outputs": [
        {
          "internalType": "bytes32",
          "name": "keccak256hash",
          "type": "bytes32"
        }
      ],
      "stateMutability": "pure",
      "type": "function"
    },
    {
      "inputs": [
        {
          "internalType": "string",
          "name": "_hash",
          "type": "string"
        },
        {
          "internalType": "uint256",
          "name": "_salt",
          "type": "uint256"
        }
      ],
      "name": "getEncryptedStringHash",
      "outputs": [
        {
          "internalType": "bytes32",
          "name": "keccak256hash",
          "type": "bytes32"
        }
      ],
      "stateMutability": "pure",
      "type": "function"
    },
    {
      "inputs": [
        {
          "internalType": "uint128",
          "name": "_DataBatchId",
          "type": "uint128"
        }
      ],
      "name": "getFromsForBatch",
      "outputs": [
        {
          "internalType": "string[]",
          "name": "",
          "type": "string[]"
        }
      ],
      "stateMutability": "view",
      "type": "function"
    },
    {
      "inputs": [],
      "name": "getGlobalPeriodSpotCount",
      "outputs": [
        {
          "internalType": "uint256",
          "name": "",
          "type": "uint256"
        }
      ],
      "stateMutability": "view",
      "type": "function"
    },
    {
      "inputs": [
        {
          "internalType": "uint128",
          "name": "_DataBatchId",
          "type": "uint128"
        }
      ],
      "name": "getIPFShashesForBatch",
      "outputs": [
        {
          "internalType": "string[]",
          "name": "",
          "type": "string[]"
        }
      ],
      "stateMutability": "view",
      "type": "function"
    },
    {
      "inputs": [
        {
          "internalType": "address",
          "name": "_voter",
          "type": "address"
        },
        {
          "internalType": "uint256",
          "name": "_numTokens",
          "type": "uint256"
        },
        {
          "internalType": "uint128",
          "name": "_DataBatchId",
          "type": "uint128"
        }
      ],
      "name": "getInsertPointForNumTokens",
      "outputs": [
        {
          "internalType": "uint256",
          "name": "prevNode",
          "type": "uint256"
        }
      ],
      "stateMutability": "view",
      "type": "function"
    },
    {
      "inputs": [],
      "name": "getItemCounter",
      "outputs": [
        {
          "internalType": "uint256",
          "name": "Counter",
          "type": "uint256"
        }
      ],
      "stateMutability": "view",
      "type": "function"
    },
    {
      "inputs": [],
      "name": "getLastAllocatedBatchId",
      "outputs": [
        {
          "internalType": "uint256",
          "name": "LastAllocatedBatchId",
          "type": "uint256"
        }
      ],
      "stateMutability": "view",
      "type": "function"
    },
    {
      "inputs": [],
      "name": "getLastBatchId",
      "outputs": [
        {
          "internalType": "uint256",
          "name": "LastBatchId",
          "type": "uint256"
        }
      ],
      "stateMutability": "view",
      "type": "function"
    },
    {
      "inputs": [],
      "name": "getLastCheckedBatchId",
      "outputs": [
        {
          "internalType": "uint256",
          "name": "LastCheckedBatchId",
          "type": "uint256"
        }
      ],
      "stateMutability": "view",
      "type": "function"
    },
    {
      "inputs": [],
      "name": "getLastDataId",
      "outputs": [
        {
          "internalType": "uint256",
          "name": "DataId",
          "type": "uint256"
        }
      ],
      "stateMutability": "view",
      "type": "function"
    },
    {
      "inputs": [
        {
          "internalType": "address",
          "name": "_voter",
          "type": "address"
        }
      ],
      "name": "getLastNode",
      "outputs": [
        {
          "internalType": "uint128",
          "name": "DataID",
          "type": "uint128"
        }
      ],
      "stateMutability": "view",
      "type": "function"
    },
    {
      "inputs": [
        {
          "internalType": "address",
          "name": "_voter",
          "type": "address"
        }
      ],
      "name": "getLockedTokens",
      "outputs": [
        {
          "internalType": "uint256",
          "name": "numTokens",
          "type": "uint256"
        }
      ],
      "stateMutability": "view",
      "type": "function"
    },
    {
      "inputs": [
        {
          "internalType": "uint128",
          "name": "_DataBatchId_a",
          "type": "uint128"
        },
        {
          "internalType": "uint128",
          "name": "_DataBatchId_b",
          "type": "uint128"
        }
      ],
      "name": "getMultiBatchIPFShashes",
      "outputs": [
        {
          "internalType": "string[]",
          "name": "",
          "type": "string[]"
        }
      ],
      "stateMutability": "view",
      "type": "function"
    },
    {
      "inputs": [
        {
          "internalType": "address",
          "name": "_voter",
          "type": "address"
        },
        {
          "internalType": "uint128",
          "name": "_DataBatchId",
          "type": "uint128"
        },
        {
          "internalType": "uint256",
          "name": "_salt",
          "type": "uint256"
        }
      ],
      "name": "getNumPassingTokens",
      "outputs": [
        {
          "internalType": "uint256",
          "name": "numTokens",
          "type": "uint256"
        }
      ],
      "stateMutability": "view",
      "type": "function"
    },
    {
      "inputs": [
        {
          "internalType": "address",
          "name": "_voter",
          "type": "address"
        },
        {
          "internalType": "uint128",
          "name": "_DataBatchId",
          "type": "uint128"
        }
      ],
      "name": "getNumTokens",
      "outputs": [
        {
          "internalType": "uint256",
          "name": "numTokens",
          "type": "uint256"
        }
      ],
      "stateMutability": "view",
      "type": "function"
    },
    {
      "inputs": [],
      "name": "getPeriodItemCount",
      "outputs": [
        {
          "internalType": "uint256",
          "name": "",
          "type": "uint256"
        }
      ],
      "stateMutability": "view",
      "type": "function"
    },
    {
      "inputs": [],
      "name": "getRandom",
      "outputs": [
        {
          "internalType": "uint256",
          "name": "",
          "type": "uint256"
        }
      ],
      "stateMutability": "view",
      "type": "function"
    },
    {
      "inputs": [],
      "name": "getRejectedBatchesCount",
      "outputs": [
        {
          "internalType": "uint128",
          "name": "count",
          "type": "uint128"
        }
      ],
      "stateMutability": "view",
      "type": "function"
    },
    {
      "inputs": [],
      "name": "getSeed",
      "outputs": [
        {
          "internalType": "bytes32",
          "name": "addr",
          "type": "bytes32"
        }
      ],
      "stateMutability": "view",
      "type": "function"
    },
    {
      "inputs": [
        {
          "internalType": "uint128",
          "name": "_DataBatchId",
          "type": "uint128"
        }
      ],
      "name": "getSubmittedFilesForBatch",
      "outputs": [
        {
          "internalType": "string[]",
          "name": "",
          "type": "string[]"
        }
      ],
      "stateMutability": "view",
      "type": "function"
    },
    {
      "inputs": [
        {
          "internalType": "address",
          "name": "user_",
          "type": "address"
        }
      ],
      "name": "getSystemTokenBalance",
      "outputs": [
        {
          "internalType": "uint256",
          "name": "tokens",
          "type": "uint256"
        }
      ],
      "stateMutability": "view",
      "type": "function"
    },
    {
      "inputs": [],
      "name": "getTxCounter",
      "outputs": [
        {
          "internalType": "uint256",
          "name": "Counter",
          "type": "uint256"
        }
      ],
      "stateMutability": "view",
      "type": "function"
    },
    {
      "inputs": [
        {
          "internalType": "address",
          "name": "user_",
          "type": "address"
        }
      ],
      "name": "getUserPeriodSpotCount",
      "outputs": [
        {
          "internalType": "uint256",
          "name": "",
          "type": "uint256"
        }
      ],
      "stateMutability": "view",
      "type": "function"
    },
    {
      "inputs": [
        {
          "internalType": "uint128",
          "name": "_DataBatchId",
          "type": "uint128"
        }
      ],
      "name": "getVotesForBatch",
      "outputs": [
        {
          "internalType": "uint128[]",
          "name": "",
          "type": "uint128[]"
        }
      ],
      "stateMutability": "view",
      "type": "function"
    },
    {
      "inputs": [
        {
          "internalType": "uint256",
          "name": "_terminationDate",
          "type": "uint256"
        }
      ],
      "name": "isExpired",
      "outputs": [
        {
          "internalType": "bool",
          "name": "expired",
          "type": "bool"
        }
      ],
      "stateMutability": "view",
      "type": "function"
    },
    {
      "inputs": [
        {
          "internalType": "address",
          "name": "_worker",
          "type": "address"
        }
      ],
      "name": "isInAvailableWorkers",
      "outputs": [
        {
          "internalType": "bool",
          "name": "",
          "type": "bool"
        }
      ],
      "stateMutability": "view",
      "type": "function"
    },
    {
      "inputs": [
        {
          "internalType": "address",
          "name": "_worker",
          "type": "address"
        }
      ],
      "name": "isInBusyWorkers",
      "outputs": [
        {
          "internalType": "bool",
          "name": "",
          "type": "bool"
        }
      ],
      "stateMutability": "view",
      "type": "function"
    },
    {
      "inputs": [
        {
          "internalType": "uint128",
          "name": "_DataBatchId",
          "type": "uint128"
        }
      ],
      "name": "isPassed",
      "outputs": [
        {
          "internalType": "bool",
          "name": "passed",
          "type": "bool"
        }
      ],
      "stateMutability": "view",
      "type": "function"
    },
    {
      "inputs": [
        {
          "internalType": "uint128",
          "name": "_DataBatchId",
          "type": "uint128"
        },
        {
          "internalType": "address",
          "name": "_worker",
          "type": "address"
        }
      ],
      "name": "isWorkerAllocatedToBatch",
      "outputs": [
        {
          "internalType": "bool",
          "name": "",
          "type": "bool"
        }
      ],
      "stateMutability": "view",
      "type": "function"
    },
    {
      "inputs": [
        {
          "internalType": "address",
          "name": "_worker",
          "type": "address"
        }
      ],
      "name": "isWorkerRegistered",
      "outputs": [
        {
          "internalType": "bool",
          "name": "passed",
          "type": "bool"
        }
      ],
      "stateMutability": "view",
      "type": "function"
    },
    {
      "inputs": [],
      "name": "owner",
      "outputs": [
        {
          "internalType": "address",
          "name": "",
          "type": "address"
        }
      ],
      "stateMutability": "view",
      "type": "function"
    },
    {
      "inputs": [],
      "name": "paused",
      "outputs": [
        {
          "internalType": "bool",
          "name": "",
          "type": "bool"
        }
      ],
      "stateMutability": "view",
      "type": "function"
    },
    {
      "inputs": [
        {
          "internalType": "uint256",
          "name": "k",
          "type": "uint256"
        },
        {
          "internalType": "uint256",
          "name": "N",
          "type": "uint256"
        }
      ],
      "name": "random_selection",
      "outputs": [
        {
          "internalType": "uint256[]",
          "name": "",
          "type": "uint256[]"
        }
      ],
      "stateMutability": "view",
      "type": "function"
    },
    {
      "inputs": [
        {
          "internalType": "uint128",
          "name": "_DataBatchId",
          "type": "uint128"
        }
      ],
      "name": "remainingCommitDuration",
      "outputs": [
        {
          "internalType": "uint256",
          "name": "remainingTime",
          "type": "uint256"
        }
      ],
      "stateMutability": "view",
      "type": "function"
    },
    {
      "inputs": [
        {
          "internalType": "uint128",
          "name": "_DataBatchId",
          "type": "uint128"
        }
      ],
      "name": "remainingRevealDuration",
      "outputs": [
        {
          "internalType": "uint256",
          "name": "remainingTime",
          "type": "uint256"
        }
      ],
      "stateMutability": "view",
      "type": "function"
    },
    {
      "inputs": [],
      "name": "renounceOwnership",
      "outputs": [],
      "stateMutability": "nonpayable",
      "type": "function"
    },
    {
      "inputs": [
        {
          "internalType": "uint128",
          "name": "_DataBatchId",
          "type": "uint128"
        }
      ],
      "name": "rescueTokens",
      "outputs": [],
      "stateMutability": "nonpayable",
      "type": "function"
    },
    {
      "inputs": [
        {
          "internalType": "uint128[]",
          "name": "_DataBatchIDs",
          "type": "uint128[]"
        }
      ],
      "name": "rescueTokensInMultipleDatas",
      "outputs": [],
      "stateMutability": "nonpayable",
      "type": "function"
    },
    {
      "inputs": [
        {
          "internalType": "uint128",
          "name": "_DataBatchId",
          "type": "uint128"
        }
      ],
      "name": "revealPeriodActive",
      "outputs": [
        {
          "internalType": "bool",
          "name": "active",
          "type": "bool"
        }
      ],
      "stateMutability": "view",
      "type": "function"
    },
    {
      "inputs": [
        {
          "internalType": "uint128",
          "name": "_DataBatchId",
          "type": "uint128"
        }
      ],
      "name": "revealPeriodOver",
      "outputs": [
        {
          "internalType": "bool",
          "name": "active",
          "type": "bool"
        }
      ],
      "stateMutability": "view",
      "type": "function"
    },
    {
      "inputs": [
        {
          "internalType": "uint64",
          "name": "_DataBatchId",
          "type": "uint64"
        },
        {
          "internalType": "string",
          "name": "_clearIPFSHash",
          "type": "string"
        },
        {
          "internalType": "uint8",
          "name": "_clearVote",
          "type": "uint8"
        },
        {
          "internalType": "uint256",
          "name": "_salt",
          "type": "uint256"
        }
      ],
      "name": "revealSpotCheck",
      "outputs": [],
      "stateMutability": "nonpayable",
      "type": "function"
    },
    {
      "inputs": [
        {
          "internalType": "uint256",
          "name": "",
          "type": "uint256"
        }
      ],
      "name": "toUnregisterWorkers",
      "outputs": [
        {
          "internalType": "address",
          "name": "",
          "type": "address"
        }
      ],
      "stateMutability": "view",
      "type": "function"
    },
    {
      "inputs": [
        {
          "internalType": "bool",
          "name": "toggle_",
          "type": "bool"
        }
      ],
      "name": "toggleForceValidateBatchFile",
      "outputs": [],
      "stateMutability": "nonpayable",
      "type": "function"
    },
    {
      "inputs": [
        {
          "internalType": "bool",
          "name": "toggle_",
          "type": "bool"
        }
      ],
      "name": "toggleRequiredStaking",
      "outputs": [],
      "stateMutability": "nonpayable",
      "type": "function"
    },
    {
      "inputs": [
        {
          "internalType": "bool",
          "name": "toggle_",
          "type": "bool"
        }
      ],
      "name": "toggleTriggerSpotData",
      "outputs": [],
      "stateMutability": "nonpayable",
      "type": "function"
    },
    {
      "inputs": [
        {
          "internalType": "bool",
          "name": "toggle_",
          "type": "bool"
        }
      ],
      "name": "toggleValidateLastReveal",
      "outputs": [],
      "stateMutability": "nonpayable",
      "type": "function"
    },
    {
      "inputs": [],
      "name": "token",
      "outputs": [
        {
          "internalType": "contract IERC20",
          "name": "",
          "type": "address"
        }
      ],
      "stateMutability": "view",
      "type": "function"
    },
    {
      "inputs": [
        {
          "internalType": "address",
          "name": "newOwner",
          "type": "address"
        }
      ],
      "name": "transferOwnership",
      "outputs": [],
      "stateMutability": "nonpayable",
      "type": "function"
    },
    {
      "inputs": [
        {
          "internalType": "uint16",
          "name": "new_limit_",
          "type": "uint16"
        }
      ],
      "name": "updateGasLeftLimit",
      "outputs": [],
      "stateMutability": "nonpayable",
      "type": "function"
    },
    {
      "inputs": [],
      "name": "updateGlobalSpotFlow",
      "outputs": [],
      "stateMutability": "nonpayable",
      "type": "function"
    },
    {
      "inputs": [
        {
          "internalType": "bool",
          "name": "state_",
          "type": "bool"
        },
        {
          "internalType": "uint16",
          "name": "divider_",
          "type": "uint16"
        }
      ],
      "name": "updateInstantRevealRewards",
      "outputs": [],
      "stateMutability": "nonpayable",
      "type": "function"
    },
    {
      "inputs": [
        {
          "internalType": "bool",
          "name": "state_",
          "type": "bool"
        },
        {
          "internalType": "uint16",
          "name": "divider_",
          "type": "uint16"
        }
      ],
      "name": "updateInstantSpotRewards",
      "outputs": [],
      "stateMutability": "nonpayable",
      "type": "function"
    },
    {
      "inputs": [],
      "name": "updateItemCount",
      "outputs": [],
      "stateMutability": "nonpayable",
      "type": "function"
    },
    {
      "inputs": [
        {
          "internalType": "uint16",
          "name": "MaxPendingDataBatchCount_",
          "type": "uint16"
        }
      ],
      "name": "updateMaxPendingDataBatch",
      "outputs": [],
      "stateMutability": "nonpayable",
      "type": "function"
    },
    {
      "inputs": [
        {
          "internalType": "address",
          "name": "addr",
          "type": "address"
        }
      ],
      "name": "updateParametersManager",
      "outputs": [],
      "stateMutability": "nonpayable",
      "type": "function"
    },
    {
      "inputs": [
        {
          "internalType": "uint16",
          "name": "file_size_",
          "type": "uint16"
        }
      ],
      "name": "updateSpotFileSize",
      "outputs": [],
      "stateMutability": "nonpayable",
      "type": "function"
    },
    {
      "inputs": [
        {
          "internalType": "address",
          "name": "user_",
          "type": "address"
        }
      ],
      "name": "updateUserSpotFlow",
      "outputs": [],
      "stateMutability": "nonpayable",
      "type": "function"
    },
    {
      "inputs": [
        {
          "internalType": "uint128",
          "name": "_prevID",
          "type": "uint128"
        },
        {
          "internalType": "uint128",
          "name": "_nextID",
          "type": "uint128"
        },
        {
          "internalType": "address",
          "name": "_voter",
          "type": "address"
        },
        {
          "internalType": "uint256",
          "name": "_numTokens",
          "type": "uint256"
        }
      ],
      "name": "validPosition",
      "outputs": [
        {
          "internalType": "bool",
          "name": "APPROVED",
          "type": "bool"
        }
      ],
      "stateMutability": "view",
      "type": "function"
    },
    {
      "inputs": [
        {
          "internalType": "uint256",
          "name": "_numTokens",
          "type": "uint256"
        }
      ],
      "name": "withdrawVotingRights",
      "outputs": [],
      "stateMutability": "nonpayable",
      "type": "function"
    }
  ],
  "bytecode": "0x608060405260008054600160a81b600160e81b0319168155600160801b604d55700100000000000000000000000000000001604e556001604f556050819055605180546001600160801b031916905560528190556053819055605455610194605555605680546c6403e8000200050101010000006001600160701b0319909116179055620f42406057556059805463ffffffff60a01b191663ffffffff60a01b179055348015620000af57600080fd5b506040516200e9d83803806200e9d8833981016040819052620000d29162000174565b620000dd3362000124565b6000805460ff60a01b191690556001600160a01b038116620000fe57600080fd5b605880546001600160a01b0319166001600160a01b0392909216919091179055620001a6565b600080546001600160a01b038381166001600160a01b0319831681178455604051919092169283917f8be0079c531659141344cd1fd0a4f28419497f9722a3daafe3b4186f6b6457e09190a35050565b6000602082840312156200018757600080fd5b81516001600160a01b03811681146200019f57600080fd5b9392505050565b61e82280620001b66000396000f3fe608060405234801561001057600080fd5b506004361061086c5760003560e01c80637960d1ca1161044d578063b4676b9711610241578063e23fcd1a11610146578063f4cdfcc4116100ce578063fc0c546a11610092578063fc0c546a1461158b578063fca495631461159e578063fcbe89c9146115b1578063fd08c357146115d1578063ff43de9d146115e457600080fd5b8063f4cdfcc414611538578063f5ae7c7d1461154b578063f716596d14611553578063f80a23fd1461155b578063f96305f01461157a57600080fd5b8063e9a12fd711610115578063e9a12fd7146114cf578063eb1322ff146114ef578063ef4fcdad14611502578063f2d9e74d1461151c578063f2fde38b1461152557600080fd5b8063e23fcd1a14611467578063e59d02891461147c578063e798a7da14611489578063e7b1d43c146114bc57600080fd5b8063cb279389116101c9578063d273790511610198578063d273790514611401578063d58f575c14611414578063d6b0206c1461142e578063d9548e5314611441578063de1faf771461145457600080fd5b8063cb279389146113a1578063cdf46a78146113a9578063d0b28e7d146113bc578063d0d41def146113cf57600080fd5b8063bda1e60911610210578063bda1e6091461133d578063bf9fe16114611350578063c46f17d014611363578063c854d9951461137b578063c884ec9f1461138e57600080fd5b8063b4676b97146112fc578063b5485f621461130f578063b8f011b314611317578063bc8482951461132a57600080fd5b806396964b1e11610352578063a350715a116102da578063ae4c38771161029e578063ae4c387714611290578063b10aa584146112a3578063b1a2e0be146112b6578063b1cf4a7e146112c9578063b1d7ea98146112dc57600080fd5b8063a350715a14611231578063a511dba014611244578063a905779014611255578063aacc5a1714611268578063ade7e65a1461127057600080fd5b80639d6e3f96116103215780639d6e3f96146111c65780639f538052146111d9578063a1563cc3146111fd578063a1b6b5b714611206578063a23226d41461121e57600080fd5b806396964b1e146111735780639769d846146111865780639a1cbfd3146111a05780639c867cf4146111b357600080fd5b80638473850b116103d55780638bf8a338116103a45780638bf8a338146110175780638c89d0271461102a5780638ccb7eec146111235780638da5cb5b1461114f578063955122ef1461116057600080fd5b80638473850b14610fd55780638480a22114610fe85780638746ff8a14610ff15780638820f5b41461100457600080fd5b80637f30c9b31161041c5780637f30c9b314610f7f5780637f9510a214610f9f578063815ce74714610fa7578063821aa8c014610faf5780638356443a14610fc257600080fd5b80637960d1ca14610f2257806379dd459714610f465780637ad2f09514610f595780637ae3d59b14610f6c57600080fd5b80633f2a918011610664578063576a55431161056957806369fef283116104f1578063715018a6116104b5578063715018a614610ed757806375b7536c14610edf578063763a39f214610ef457806378b3decb14610efc578063794cd05a14610f0f57600080fd5b806369fef28314610e6d5780636b2d95d414610e755780636b4a901b14610e885780636cfaeff414610e9b5780637074222b14610eae57600080fd5b8063607d5efa11610538578063607d5efa14610e24578063628516ae14610e2c5780636554a37514610e3f5780636917def314610e5257806369d0433b14610e6557600080fd5b8063576a554314610dd957806359da7baf14610dec5780635b0bca7714610dff5780635c975abb14610e1257600080fd5b80634a2b979f116105ec57806351021833116105bb5780635102183314610d92578063515535e814610da5578063531f890a14610db657806353bf27f114610dbe57806355adf7bf14610dc657600080fd5b80634a2b979f14610d315780634a45cd8414610d3a5780634edad84414610d6b5780634ffd734314610d7e57600080fd5b806342ed24ed1161063357806342ed24ed14610cc557806345e8450e14610cd857806345feae8914610ceb57806347fe2d2014610cff5780634852e2f014610d1757600080fd5b80633f2a918014610c645780633f7e62f314610c77578063413b90f714610c9f578063427fa1d214610cb257600080fd5b80632a25c7c911610775578063345b0f51116106fd57806338eaf565116106c157806338eaf56514610be657806339e7357c14610bf95780633aed0be514610c015780633c062cc814610c335780633de4b29314610c5b57600080fd5b8063345b0f5114610b805780633465a78814610b935780633538af8214610ba657806336b99f7514610bb957806337527b4d14610bde57600080fd5b80632ff0312f116107445780632ff0312f14610a7957806331e2f28514610aa45780633287d91f14610ac4578063333fa62614610ad757806334522fbd14610b6d57600080fd5b80632a25c7c914610a2a5780632dbfca6a14610a3d5780632eaff49914610a505780632f66157514610a6657600080fd5b80630fb69aa7116107f85780631a0a890c116107c75780631a0a890c146109d35780631aca6412146109e6578063258cc843146109f9578063275c259014610a1a578063289bd48214610a2257600080fd5b80630fb69aa7146109705780630fe05b0114610983578063154fd39b146109b057806316860ec5146109cb57600080fd5b80630a7c5dd01161083f5780630a7c5dd0146108d95780630d9d3f3c146108ec5780630e4498c2146108ff5780630e6661a71461091f5780630f91f0b21461094a57600080fd5b806305957623146108715780630816692c14610886578063086eafa3146108af578063092a5cce146108d1575b600080fd5b61088461087f36600461d4c7565b6115f7565b005b61089961089436600461d4f9565b6116a6565b6040516108a6919061d56e565b60405180910390f35b6056546108c190610100900460ff1681565b60405190151581526020016108a6565b6108846118b6565b6108846108e736600461d4f9565b6118cc565b6108846108fa36600461d5e2565b611a5b565b61091261090d36600461d5fd565b611a6c565b6040516108a6919061d61f565b604d54610932906001600160801b031681565b6040516001600160801b0390911681526020016108a6565b61095d61095836600461d4f9565b611bf2565b6040516108a6979695949392919061d698565b61088461097e36600461d5e2565b611de3565b61099661099136600461d4f9565b611e0d565b6040516108a69e9d9c9b9a9998979695949392919061d713565b604f546001600160801b03165b6040519081526020016108a6565b610884611f43565b6108846109e136600461d83a565b6120d8565b6109bd6109f436600461da04565b612118565b610a0c610a0736600461db26565b613521565b6040516108a692919061dba3565b61088461383c565b6109bd613a69565b610884610a3836600461d4f9565b613ab7565b6108c1610a4b36600461d4c7565b613d43565b6056546108c19065010000000000900460ff1681565b6108c1610a7436600461d4f9565b613f39565b610a8c610a8736600461dbc5565b613f92565b6040516001600160a01b0390911681526020016108a6565b6109bd610ab236600461d4c7565b60446020526000908152604090205481565b6108c1610ad236600461d4f9565b613fbc565b610b2f610ae536600461d4c7565b60456020526000908152604090205460ff808216916101008104821691620100008204169063ffffffff63010000008204811691600160381b8104821691600160581b9091041686565b60408051961515875294151560208701529215159385019390935263ffffffff908116606085015291821660808401521660a082015260c0016108a6565b610884610b7b36600461dbec565b614029565b6108c1610b8e36600461d4f9565b614073565b610884610ba136600461d4f9565b614121565b610a8c610bb436600461dbc5565b614152565b610bcc610bc736600461dc21565b614162565b6040516108a69695949392919061dc4f565b6055546109bd565b6109bd610bf436600461dca6565b6142c7565b6109bd614305565b6108c1610c0f36600461d4c7565b6001600160a01b031660009081526045602052604090205462010000900460ff1690565b610c46610c4136600461dbc5565b614322565b604080519283526020830191909152016108a6565b6109bd60545481565b6108c1610c7236600461d4f9565b614344565b605654610c8c90600160501b900461ffff1681565b60405161ffff90911681526020016108a6565b610c46610cad36600461dcc4565b6145c5565b610932610cc036600461d4c7565b6145f5565b6109bd610cd336600461d4f9565b61469b565b6108c1610ce636600461d4f9565b61471b565b6056546108c190600160201b900460ff1681565b604e54600160801b90046001600160801b03166109bd565b60505461093290600160801b90046001600160801b031681565b6109bd60575481565b6108c1610d4836600461d4c7565b6001600160a01b0316600090815260456020526040902054610100900460ff1690565b610884610d7936600461d4f9565b6147a1565b6056546108c1906301000000900460ff1681565b6108c1610da036600461d4f9565b614927565b604e546001600160801b03166109bd565b61088461494c565b6049546109bd565b6109bd610dd436600461dcf0565b614987565b610884610de736600461d4c7565b614b6b565b610c46610dfa36600461dbc5565b614d14565b6109bd610e0d36600461dca6565b614d24565b600054600160a01b900460ff166108c1565b610884614d79565b6108c1610e3a36600461dd32565b614efd565b610884610e4d36600461dd83565b614f47565b610884610e6036600461d5e2565b615abc565b604c546109bd565b610884615ae6565b6109bd610e8336600461d4c7565b615b1f565b610899610e9636600461d4f9565b615b2e565b6108c1610ea936600461d4f9565b615e85565b6109bd610ebc36600461d4c7565b6001600160a01b031660009081526044602052604090205490565b610884615ef8565b605654610c8c90600160601b900461ffff1681565b604a546109bd565b6109bd610f0a36600461dca6565b615f0a565b610884610f1d36600461d4c7565b615f41565b610c8c610f3036600461d4f9565b60476020526000908152604090205461ffff1681565b6109bd610f5436600461dca6565b615f94565b6108c1610f6736600461dca6565b615fca565b610884610f7a36600461dde0565b616025565b610f92610f8d36600461d4f9565b616049565b6040516108a6919061ddfd565b6109bd6162de565b6109bd6162f5565b610a8c610fbd36600461dbc5565b61633d565b610884610fd036600461dde0565b61634d565b604e54610932906001600160801b031681565b6109bd60525481565b610a8c610fff36600461dcc4565b616373565b6109bd61101236600461d4f9565b6167df565b6109bd61102536600461dea8565b616835565b6110b761103836600461d4c7565b604260205260009081526040902080546001909101546001600160801b038216916001600160401b03600160801b80830482169361ffff600160c01b808604919091169460ff600160d01b8204811695600160d81b8304821695600160e01b9093049091169380821693600160401b820483169382048316929104168a565b604080516001600160801b03909b168b526001600160401b03998a1660208c015261ffff909816978a01979097529415156060890152921515608088015290151560a0870152841660c0860152831660e0850152821661010084015216610120820152610140016108a6565b6108c161113136600461d4c7565b6001600160a01b031660009081526045602052604090205460ff1690565b6000546001600160a01b0316610a8c565b61088461116e36600461d4c7565b616878565b61089961118136600461db26565b6168f9565b604f5461093290600160801b90046001600160801b031681565b6108846111ae36600461dde0565b616ec7565b6108996111c136600461db26565b616ee9565b6109bd6111d436600461d4c7565b6170b3565b610c8c6111e736600461d4f9565b60486020526000908152604090205461ffff1681565b6109bd60555481565b604f54600160801b90046001600160801b0316610932565b6109bd61122c36600461d4f9565b617110565b605054610932906001600160801b031681565b604d546001600160801b03166109bd565b6108c161126336600461deee565b61717e565b6109bd6171e4565b61128361127e36600461d4f9565b6172ad565b6040516108a6919061df47565b6108c161129e36600461dca6565b617453565b610a8c6112b136600461dbc5565b6174b3565b6108c16112c436600461d4c7565b6174c3565b6109bd6112d736600461d5fd565b6175d0565b6112ef6112ea36600461d5fd565b6175ec565b6040516108a6919061df5a565b61088461130a36600461df92565b617932565b6108c16180b0565b6112ef61132536600461d5fd565b6180bb565b610a8c61133836600461e003565b6180d1565b61088461134b36600461dde0565b618109565b6109bd61135e36600461d4f9565b618124565b605654610c8c906601000000000000900461ffff1681565b61089961138936600461d4f9565b61817a565b61088461139c36600461d4f9565b618396565b6054546109bd565b6056546108c19062010000900460ff1681565b6108846113ca36600461dbec565b6183f2565b6000546113e990600160a81b90046001600160401b031681565b6040516001600160401b0390911681526020016108a6565b61089961140f36600461d4f9565b61843f565b604d5461093290600160801b90046001600160801b031681565b604f54610932906001600160801b031681565b6108c161144f36600461dbc5565b421190565b6108c161146236600461dc21565b618784565b605654610c8c90600160401b900461ffff1681565b6056546108c19060ff1681565b6108c161149736600461d4c7565b6001600160a01b0316600090815260426020526040902054600160d01b900460ff1690565b6108846114ca36600461dbc5565b61885b565b6114e26114dd36600461d4f9565b618b15565b6040516108a6919061e021565b605154610932906001600160801b031681565b604e5461093290600160801b90046001600160801b031681565b6109bd60535481565b61088461153336600461d4c7565b618bd4565b6109bd61154636600461e034565b618c4a565b6053546109bd565b610884618c5f565b33600090815260426020526040902054600160d01b900460ff166108c1565b6050546001600160801b0316610932565b605854610a8c906001600160a01b031681565b6109bd6115ac36600461d4c7565b61922d565b6115c46115bf36600461d4f9565b61932b565b6040516108a6919061e078565b6109bd6115df36600461e1a8565b61956d565b605954610a8c906001600160a01b031681565b6115ff61973d565b6001600160a01b0381166116525760405162461bcd60e51b815260206004820152601560248201527461646472206d757374206265206e6f6e207a65726f60581b60448201526064015b60405180910390fd5b605980546001600160a01b0319166001600160a01b0383169081179091556040519081527f1c57c3710c0570883580d2f83ee6a873d61b5af334741eea1c0cc397899e1d029060200160405180910390a150565b60606116b182614927565b6116cd5760405162461bcd60e51b81526004016116499061e1e9565b6001600160801b03821660009081526046602090815260408083208054825181850281018501909352808352919290919083018282801561173757602002820191906000526020600020905b81546001600160a01b03168152600190910190602001808311611719575b50505050509050600081516001600160401b038111156117595761175961d7d1565b60405190808252806020026020018201604052801561178c57816020015b60608152602001906001900390816117775790505b50905060005b82518110156118ae576001600160801b0385166000908152603d6020526040812084519091908590849081106117ca576117ca61e220565b60200260200101516001600160a01b03166001600160a01b0316815260200190815260200160002060010180546118009061e236565b80601f016020809104026020016040519081016040528092919081815260200182805461182c9061e236565b80156118795780601f1061184e57610100808354040283529160200191611879565b820191906000526020600020905b81548152906001019060200180831161185c57829003601f168201915b50505050508282815181106118905761189061e220565b602002602001018190525080806118a69061e281565b915050611792565b509392505050565b6118be61973d565b6000546001600160a01b0316ff5b6059546001600160a01b03166118f45760405162461bcd60e51b81526004016116499061e29c565b611906816001600160801b0316619797565b61190e6171e4565b60525414611a505760005b816001600160801b0316816001600160801b03161015611a4e57604f546001600160801b031660009081526040602081905281205460ff600160f01b9091041615156001148015906119f25750605960009054906101000a90046001600160a01b03166001600160a01b031663bd40ef4c6040518163ffffffff1660e01b815260040160206040518083038186803b1580156119b457600080fd5b505afa1580156119c8573d6000803e3d6000fd5b505050506040513d601f19601f820116820180604052508101906119ec919061e2d3565b60495410155b8015611a1f5750604f546001600160801b0316600090815260406020819052902054600160e01b900460ff165b15611a3057611a2c6198c7565b5060015b80611a3b5750611a4e565b5080611a468161e2e5565b915050611919565b505b611a5861a243565b50565b611a6361973d565b61ffff16605755565b606082821015611ab25760405162461bcd60e51b8152602060048201526011602482015270205f42206d757374206265203e3d205f4160781b6044820152606401611649565b604c54611ac19060019061e30c565b821115611b075760405162461bcd60e51b815260206004820152601460248201527320425f206973206f7574206f6620626f756e647360601b6044820152606401611649565b6000611b13848461e30c565b611b1e90600161e323565b90506000816001600160401b03811115611b3a57611b3a61d7d1565b604051908082528060200260200182016040528015611b63578160200160208202803683370190505b50905060005b82811015611be757604c611b7d878361e323565b81548110611b8d57611b8d61e220565b9060005260206000200160009054906101000a90046001600160a01b0316828281518110611bbd57611bbd61e220565b6001600160a01b039092166020928302919091019091015280611bdf8161e281565b915050611b69565b509150505b92915050565b603f602052600090815260409020805460018201546002830180546001600160401b0380851695600160401b860490911694600160801b900460ff16936001600160a01b0316929091611c449061e236565b80601f0160208091040260200160405190810160405280929190818152602001828054611c709061e236565b8015611cbd5780601f10611c9257610100808354040283529160200191611cbd565b820191906000526020600020905b815481529060010190602001808311611ca057829003601f168201915b505050505090806003018054611cd29061e236565b80601f0160208091040260200160405190810160405280929190818152602001828054611cfe9061e236565b8015611d4b5780601f10611d2057610100808354040283529160200191611d4b565b820191906000526020600020905b815481529060010190602001808311611d2e57829003601f168201915b505050505090806004018054611d609061e236565b80601f0160208091040260200160405190810160405280929190818152602001828054611d8c9061e236565b8015611dd95780601f10611dae57610100808354040283529160200191611dd9565b820191906000526020600020905b815481529060010190602001808311611dbc57829003601f168201915b5050505050905087565b611deb61973d565b6056805461ffff909216600160501b0261ffff60501b19909216919091179055565b6040602081905260009182529020805460018201546002830180546001600160801b0384169463ffffffff600160801b8604811695600160a01b81049091169461ffff600160c01b8304811695600160d01b840482169560ff600160e01b8604811696600160e81b8704821696600160f01b9004909116948085169462010000820416936001600160401b03600160201b8304811694600160601b909304169291611eb79061e236565b80601f0160208091040260200160405190810160405280929190818152602001828054611ee39061e236565b8015611f305780601f10611f0557610100808354040283529160200191611f30565b820191906000526020600020905b815481529060010190602001808311611f1357829003601f168201915b5050506003909301549192505060ff168e565b6059546001600160a01b0316611f6b5760405162461bcd60e51b81526004016116499061e29c565b6000611f796001600f61e30c565b90506000601f82600f8110611f9057611f9061e220565b6002020154605954604080516307bc663b60e11b815290519293506001600160a01b0390911691630f78cc7691600480820192602092909190829003018186803b158015611fdd57600080fd5b505afa158015611ff1573d6000803e3d6000fd5b505050506040513d601f19601f82011682018060405250810190612015919061e2d3565b61201f824261e30c565b11156120d45760005b6120346001600f61e30c565b81101561209957601f61204882600161e323565b600f81106120585761205861e220565b60020201601f82600f811061206f5761206f61e220565b825460029190910291909101908155600191820154910155806120918161e281565b915050612028565b5042601f83600f81106120ae576120ae61e220565b60020201556000601f83600f81106120c8576120c861e220565b60020201600101819055505b5050565b60005b81518110156120d4576121068282815181106120f9576120f961e220565b6020026020010151613ab7565b806121108161e281565b9150506120db565b6059546000906001600160a01b03166121435760405162461bcd60e51b81526004016116499061e29c565b605960009054906101000a90046001600160a01b03166001600160a01b0316634e87c5a86040518163ffffffff1660e01b815260040160206040518083038186803b15801561219157600080fd5b505afa1580156121a5573d6000803e3d6000fd5b505050506040513d601f19601f820116820180604052508101906121c9919061e33b565b6122285760405162461bcd60e51b815260206004820152602a60248201527f53706f7474696e67206973206e6f742063757272656e746c7920656e61626c656044820152693210313c9027bbb732b960b11b6064820152608401611649565b855184146122885760405162461bcd60e51b815260206004820152602760248201527f696e70757420617272617973206d757374206265206f662073616d65206c656e6044820152666774682028312960c81b6064820152608401611649565b82518651146122e95760405162461bcd60e51b815260206004820152602760248201527f696e70757420617272617973206d757374206265206f662073616d65206c656e6044820152666774682028322960c81b6064820152608401611649565b6122f1614d79565b605960009054906101000a90046001600160a01b03166001600160a01b031663b38e885e6040518163ffffffff1660e01b815260040160206040518083038186803b15801561233f57600080fd5b505afa158015612353573d6000803e3d6000fd5b505050506040513d601f19601f82011682018060405250810190612377919061e2d3565b61237f6162f5565b106123eb5760405162461bcd60e51b815260206004820152603660248201527f476c6f62616c206c696d69743a206578636565646564206d61782064617461206044820152753832b9103437bab916103932ba393c903630ba32b91760511b6064820152608401611649565b605954604080516001624ee91360e11b0319815290516000926001600160a01b03169163ff622dda916004808301926020929190829003018186803b15801561243357600080fd5b505afa158015612447573d6000803e3d6000fd5b505050506040513d601f19601f8201168201806040525081019061246b919061e2d3565b905060006124793383616373565b905061248481614b6b565b605960009054906101000a90046001600160a01b03166001600160a01b031663be2509886040518163ffffffff1660e01b815260040160206040518083038186803b1580156124d257600080fd5b505afa1580156124e6573d6000803e3d6000fd5b505050506040513d601f19601f8201168201806040525081019061250a919061e2d3565b612513826170b3565b1080156125ab5750605960009054906101000a90046001600160a01b03166001600160a01b031663b38e885e6040518163ffffffff1660e01b815260040160206040518083038186803b15801561256957600080fd5b505afa15801561257d573d6000803e3d6000fd5b505050506040513d601f19601f820116820180604052508101906125a1919061e2d3565b6125a96162f5565b105b80156125ea5750605654604f54604e54600160501b90920461ffff16916125de916001600160801b03908116911661e358565b6001600160801b031611155b156134365760565460ff161561264b576001600160a01b03811660009081526044602052604090205482111561264b576001600160a01b03811660009081526044602052604081205461263d908461e30c565b9050612649818361a4ce565b505b60005b885181101561343457600089828151811061266b5761266b61e220565b6020026020010151905060008989848181106126895761268961e220565b905060200281019061269b919061e380565b8080601f01602080910402602001604051908101604052809392919081815260200183838082843760009201829052508c51949550938c9350879250821090506126e7576126e761e220565b602002602001015190506040518060e00160405280426001600160401b03168152602001826001600160401b031681526020016000600381111561272d5761272d61d660565b81523360208083019190915260408083018790526060830186905260809092018b9052604d546001600160801b03166000908152603f825282902083518154928501516001600160401b03908116600160401b026001600160801b031990941691161791909117808255918301519091829060ff60801b1916600160801b8360038111156127bd576127bd61d660565b021790555060608201516001820180546001600160a01b0319166001600160a01b039092169190911790556080820151805161280391600284019160209091019061d39b565b5060a0820151805161281f91600384019160209091019061d39b565b5060c0820151805161283b91600484019160209091019061d39b565b5050604e546001600160801b0316600090815260406020818152918190206059548251634e8f956d60e11b815292519194506001600160a01b031692639d1f2ada9260048082019391829003018186803b15801561289857600080fd5b505afa1580156128ac573d6000803e3d6000fd5b505050506040513d601f19601f820116820180604052508101906128d0919061e2d3565b8154600160801b900463ffffffff1610156129265780546001908290601090612907908490600160801b900463ffffffff1661e3c6565b92506101000a81548163ffffffff021916908363ffffffff1602179055505b605960009054906101000a90046001600160a01b03166001600160a01b0316639d1f2ada6040518163ffffffff1660e01b815260040160206040518083038186803b15801561297457600080fd5b505afa158015612988573d6000803e3d6000fd5b505050506040513d601f19601f820116820180604052508101906129ac919061e2d3565b8154600160801b900463ffffffff1610612a3e57805461ffff60e01b1916600160e01b178155604e8054600191906000906129f19084906001600160801b031661e3ee565b82546101009290920a6001600160801b03818102199093169183160217909155604d54604e54821660009081526040602081905290208054919092166001600160801b0319909116179055505b612a4a6010600161e323565b60556000828254612a5b919061e323565b90915550612a6d90506020600261e410565b60556000828254612a7e919061e323565b9091555050604d54612a9a906001600160801b0316600161e3ee565b604d80546001600160801b0319166001600160801b0392909216919091179055600180612ac881600f61e30c565b600f8110612ad857612ad861e220565b600202016001016000828254612aee919061e323565b90915550506001600160a01b0386166000908152604360205260409020600181612b1982600f61e30c565b600f8110612b2957612b2961e220565b600202016001016000828254612b3f919061e323565b9091555050605654600160201b900460ff16156130225760595460408051632a49798160e11b8152905133926000926001600160a01b0390911691635492f30291600480820192602092909190829003018186803b158015612ba057600080fd5b505afa158015612bb4573d6000803e3d6000fd5b505050506040513d601f19601f82011682018060405250810190612bd8919061e42f565b90506000605960009054906101000a90046001600160a01b03166001600160a01b0316630855d1516040518163ffffffff1660e01b815260040160206040518083038186803b158015612c2a57600080fd5b505afa158015612c3e573d6000803e3d6000fd5b505050506040513d601f19601f82011682018060405250810190612c62919061e42f565b90506000605960009054906101000a90046001600160a01b03166001600160a01b03166304e76c8f6040518163ffffffff1660e01b815260040160206040518083038186803b158015612cb457600080fd5b505afa158015612cc8573d6000803e3d6000fd5b505050506040513d601f19601f82011682018060405250810190612cec919061e42f565b6040516308c0a84360e11b81526001600160a01b03868116600483015291925060009185169063118150869060240160206040518083038186803b158015612d3357600080fd5b505afa158015612d47573d6000803e3d6000fd5b505050506040513d601f19601f82011682018060405250810190612d6b919061e42f565b90506000605660069054906101000a900461ffff1661ffff16605960009054906101000a90046001600160a01b03166001600160a01b03166330c0bb796040518163ffffffff1660e01b815260040160206040518083038186803b158015612dd257600080fd5b505afa158015612de6573d6000803e3d6000fd5b505050506040513d601f19601f82011682018060405250810190612e0a919061e2d3565b612e1590606461e410565b612e1f919061e462565b90506000605660069054906101000a900461ffff1661ffff16605960009054906101000a90046001600160a01b03166001600160a01b031663abb10b9b6040518163ffffffff1660e01b815260040160206040518083038186803b158015612e8657600080fd5b505afa158015612e9a573d6000803e3d6000fd5b505050506040513d601f19601f82011682018060405250810190612ebe919061e2d3565b612ec990606461e410565b612ed3919061e462565b604051630db6cc8560e11b8152600481018290526001600160a01b0385811660248301526000604483015291925090861690631b6d990a90606401602060405180830381600087803b158015612f2857600080fd5b505af1158015612f3c573d6000803e3d6000fd5b505050506040513d601f19601f82011682018060405250810190612f60919061e33b565b612f7c5760405162461bcd60e51b81526004016116499061e476565b604051633832942560e21b8152600481018390526001600160a01b03848116602483015285169063e0ca509490604401602060405180830381600087803b158015612fc657600080fd5b505af1158015612fda573d6000803e3d6000fd5b505050506040513d601f19601f82011682018060405250810190612ffe919061e33b565b61301a5760405162461bcd60e51b81526004016116499061e4c4565b505050505050505b605654610100900460ff16156133ca5761303c6001618396565b60595460408051637b39b17f60e11b815290516000926001600160a01b03169163f67362fe916004808301926020929190829003018186803b15801561308157600080fd5b505afa158015613095573d6000803e3d6000fd5b505050506040513d601f19601f820116820180604052508101906130b9919061e42f565b604051633d18199160e11b8152600160048201529091506001600160a01b03821690637a30332290602401600060405180830381600087803b1580156130fe57600080fd5b505af192505050801561310f575060015b61316a573d80801561313d576040519150601f19603f3d011682016040523d82523d6000602084013e613142565b606091505b5060008051602061e7cd83398151915281604051613160919061e021565b60405180910390a1505b60595460408051637a0ec25b60e01b815290516000926001600160a01b031691637a0ec25b916004808301926020929190829003018186803b1580156131af57600080fd5b505afa1580156131c3573d6000803e3d6000fd5b505050506040513d601f19601f820116820180604052508101906131e7919061e42f565b604051633d18199160e11b8152600160048201529091506001600160a01b03821690637a30332290602401600060405180830381600087803b15801561322c57600080fd5b505af192505050801561323d575060015b613298573d80801561326b576040519150601f19603f3d011682016040523d82523d6000602084013e613270565b606091505b5060008051602061e7cd8339815191528160405161328e919061e021565b60405180910390a1505b6059546040805163463444b760e01b815290516000926001600160a01b03169163463444b7916004808301926020929190829003018186803b1580156132dd57600080fd5b505afa1580156132f1573d6000803e3d6000fd5b505050506040513d601f19601f82011682018060405250810190613315919061e42f565b604051633d18199160e11b8152600160048201529091506001600160a01b03821690637a30332290602401600060405180830381600087803b15801561335a57600080fd5b505af192505050801561336b575060015b6133c6573d808015613399576040519150601f19603f3d011682016040523d82523d6000602084013e61339e565b606091505b5060008051602061e7cd833981519152816040516133bc919061e021565b60405180910390a1505b5050505b604d546040516001600160a01b038916916001600160801b0316907fb819ca9ac369919119f75ec7363dd954f75bcfa75f9245647e03da413be0d58290613414908990899061e514565b60405180910390a35050505050808061342c9061e281565b91505061264e565b505b3360009081526042602052604090208054600160e01b900460ff166134a957604c80546001810182556000919091527f42859d4f253f4d4a28ee9a59f9c9683a9404da2c5d329c733ab84f150db798a80180546001600160a01b03191633179055805460ff60e01b1916600160e01b1781555b805467ffffffffffffffff60801b1916600160801b426001600160401b03160217815560558054600891906000906134e290849061e323565b909155506134f0905061a243565b600160536000828254613503919061e323565b9091555050604d546001600160801b03169998505050505050505050565b600060606000846001600160801b031611801561354f5750826001600160801b0316846001600160801b0316105b61356b5760405162461bcd60e51b81526004016116499061e539565b600080613578868661e358565b61358390600161e3ee565b90506000816001600160801b03166001600160401b038111156135a8576135a861d7d1565b6040519080825280602002602001820160405280156135d1578160200160208202803683370190505b50905060005b826001600160801b0316816001600160801b0316101561381f5760006040816136008b8561e3ee565b6001600160801b039081168252602080830193909352604091820160002082516101c0810184528154928316815263ffffffff600160801b8404811695820195909552600160a01b83049094169284019290925261ffff600160c01b820481166060850152600160d01b82048116608085015260ff600160e01b83048116151560a0860152600160e81b83048116151560c0860152600160f01b909204909116151560e084015260018201548082166101008501526201000081049091166101208401526001600160401b03600160201b82048116610140850152600160601b90910416610160830152600281018054610180840191906137009061e236565b80601f016020809104026020016040519081016040528092919081815260200182805461372c9061e236565b80156137795780601f1061374e57610100808354040283529160200191613779565b820191906000526020600020905b81548152906001019060200180831161375c57829003601f168201915b505050918352505060038281015460209092019160ff16908111156137a0576137a061d660565b60038111156137b1576137b161d660565b90525060408101519091506137cc9063ffffffff168661e3ee565b9450806040015163ffffffff1683836001600160801b0316815181106137f4576137f461e220565b6001600160801b039092166020928302919091019091015250806138178161e2e5565b9150506135d7565b50600061382c838561e570565b95509093505050505b9250929050565b3360009081526042602052604090208054600160d01b900460ff166138b85760405162461bcd60e51b815260206004820152602c60248201527f576f726b6572206973206e6f74207265676973746572656420736f2063616e2760448201526b3a103ab73932b3b4b9ba32b960a11b6064820152608401611649565b80546001600160801b0316158015906138da57508054600160d81b900460ff16155b80156138fc57503360009081526045602052604090205462010000900460ff16155b1561397057805460ff60d81b1916600160d81b178155604b8054600181019091557f17b0af156a929edf60c351f3df2d53ed643fdd750aef9eda90dc7c8759a104a80180546001600160a01b031916339081179091556000908152604560205260409020805462ff00001916620100001790555b80546001600160801b0316613a24576139883361a78d565b6139913361a8fa565b61399a3361aa2b565b80546001600160401b0342908116600160801b0267ffffffffffffffff60801b199092169190911782553360008181526045602052604090819020805462ff000019169055835460ff60d01b191684555190917f9dadcedba048e92b943ea1c5861cee1df63a566d7f795869c004780c1c698e2b91613a1b91815260200190565b60405180910390a25b613a306020600161e410565b60556000828254613a41919061e323565b92505081905550600160536000828254613a5b919061e323565b90915550611a58905061a243565b600080805b600f811015613ab157601f81600f8110613a8a57613a8a61e220565b600202016001015482613a9d919061e323565b915080613aa98161e281565b915050613a6e565b50919050565b60016001600160801b038216600090815260406020819052902060039081015460ff1690811115613aea57613aea61d660565b14613b515760405162461bcd60e51b815260206004820152603160248201527f676976656e204461746142617463682073686f756c6420626520415050524f5660448201527011510b08185b99081a5d081a5cc81b9bdd607a1b6064820152608401611649565b3360009081526041602052604090819020905163071dc0ab60e51b815260048101919091526001600160801b038216602482015273__$85afbab79b2b776d70bef879a32ed56424$__9063e3b815609060440160206040518083038186803b158015613bbc57600080fd5b505af4158015613bd0573d6000803e3d6000fd5b505050506040513d601f19601f82011682018060405250810190613bf4919061e33b565b613c665760405162461bcd60e51b815260206004820152603960248201527f646c6c4d61703a20646f6573206e6f7420636f696e7461696e205f446174614260448201527f61746368496420666f7220746865206d73672073656e646572000000000000006064820152608401611649565b336000908152604160205260409081902090516325923c7560e11b815260048101919091526001600160801b038216602482015273__$85afbab79b2b776d70bef879a32ed56424$__90634b2478ea9060440160006040518083038186803b158015613cd157600080fd5b505af4158015613ce5573d6000803e3d6000fd5b50505050601060556000828254613cfc919061e30c565b90915550613d0a905061a243565b60405133906001600160801b038316907f402507661c8c8cb90e0a796450b8bdd28b6c516f05279c0cd29e84c344e1699a90600090a350565b6001600160a01b03818116600090815260426020908152604080832081516101408101835281546001600160801b0381168252600160801b8082046001600160401b0390811684880152600160c01b80840461ffff1685880152600160d01b840460ff90811615156060870152600160d81b8504811615156080870152600160e01b909404909316151560a085015260019094015480851660c0850152600160401b8104851660e08501529081048416610100840152049091166101208201526059548251634fda48fb60e11b81529251949586959294911692639fb491f69260048083019392829003018186803b158015613e3e57600080fd5b505afa158015613e52573d6000803e3d6000fd5b505050506040513d601f19601f82011682018060405250810190613e76919061e2d3565b816040015161ffff1610158015613f285750605960009054906101000a90046001600160a01b03166001600160a01b0316630f1f0ffe6040518163ffffffff1660e01b815260040160206040518083038186803b158015613ed657600080fd5b505afa158015613eea573d6000803e3d6000fd5b505050506040513d601f19601f82011682018060405250810190613f0e919061e2d3565b60c0820151613f26906001600160401b03164261e30c565b105b15613f3257600191505b5092915050565b6000613f4482614927565b613f5057506000919050565b6001600160801b038216600090815260406020819052902060010154600160201b90046001600160401b0316421180611bec5750611bec82613fbc565b919050565b604c8181548110613fa257600080fd5b6000918252602090912001546001600160a01b0316905081565b6000613fc782614927565b613fe35760405162461bcd60e51b81526004016116499061e1e9565b6001600160801b038216600090815260406020819052902060010154600160601b90046001600160401b03164211158015611bec57506140228261471b565b1592915050565b61403161973d565b6056805467ffff00ff000000001916600160201b9315159390930267ffff000000000000191692909217660100000000000061ffff9290921691909102179055565b600061407e82614927565b6140bc5760405162461bcd60e51b815260206004820152600f60248201526e11185d18481b5d5cdd08195e1a5cdd608a1b6044820152606401611649565b6001600160801b038216600090815260406020819052902060010154600160601b90046001600160401b0316421180611bec57506140f982613f39565b8015611bec5750506001600160801b031660009081526047602052604090205461ffff161590565b6059546001600160a01b03166141495760405162461bcd60e51b81526004016116499061e29c565b611a508161ab62565b60498181548110613fa257600080fd5b603d6020908152600092835260408084209091529082529020805460018201805460ff80841694610100850482169462010000810490921693630100000090920463ffffffff16929091906141b69061e236565b80601f01602080910402602001604051908101604052809291908181526020018280546141e29061e236565b801561422f5780601f106142045761010080835404028352916020019161422f565b820191906000526020600020905b81548152906001019060200180831161421257829003601f168201915b5050505050908060020180546142449061e236565b80601f01602080910402602001604051908101604052809291908181526020018280546142709061e236565b80156142bd5780601f10614292576101008083540402835291602001916142bd565b820191906000526020600020905b8154815290600101906020018083116142a057829003601f168201915b5050505050905086565b60006142fe6142d68484614d24565b6040518060400160405280600a815260200169636f6d6d6974566f746560b01b815250616835565b9392505050565b60405160009080602081848060185afa61431b57fe5b5051919050565b600181600f811061433257600080fd5b60020201805460019091015490915082565b6001600160801b0380821660009081526040602081815281832082516101c0810184528154958616815263ffffffff600160801b8704811693820193909352600160a01b86049092169282019290925261ffff600160c01b850481166060830152600160d01b85048116608083015260ff600160e01b86048116151560a0840152600160e81b86048116151560c0840152600160f01b909504909416151560e082015260018201548085166101008301526201000081049094166101208201526001600160401b03600160201b85048116610140830152600160601b909404909316610160840152600281018054929384939092916101808401916144489061e236565b80601f01602080910402602001604051908101604052809291908181526020018280546144749061e236565b80156144c15780601f10614496576101008083540402835291602001916144c1565b820191906000526020600020905b8154815290600101906020018083116144a457829003601f168201915b505050918352505060038281015460209092019160ff16908111156144e8576144e861d660565b60038111156144f9576144f961d660565b9052506101208101516101008201519192506145149161e596565b61ffff16605960009054906101000a90046001600160a01b03166001600160a01b031663ea19733c6040518163ffffffff1660e01b815260040160206040518083038186803b15801561456657600080fd5b505afa15801561457a573d6000803e3d6000fd5b505050506040513d601f19601f8201168201806040525081019061459e919061e2d3565b6145a8919061e410565b6101008201516145b990606461e5b3565b61ffff16119392505050565b604360205281600052604060002081600f81106145e157600080fd5b600202018054600190910154909250905082565b6001600160a01b03811660009081526041602052604080822090516001627446cf60e11b0319815260048101919091526024810182905273__$85afbab79b2b776d70bef879a32ed56424$__9063ff1772629060440160206040518083038186803b15801561466357600080fd5b505af4158015614677573d6000803e3d6000fd5b505050506040513d601f19601f82011682018060405250810190611bec919061e5dd565b60006146a682614927565b6146c25760405162461bcd60e51b81526004016116499061e1e9565b60006146cd8361471b565b1561470c576001600160801b038316600090815260406020819052902060010154614709904290600160201b90046001600160401b031661e5fa565b90505b6001600160401b031692915050565b600061472682614927565b6147425760405162461bcd60e51b81526004016116499061e1e9565b6001600160801b038216600090815260406020819052902060010154600160201b90046001600160401b03164211158015611bec5750506001600160801b0316600090815260406020819052902054600160c01b900461ffff16151590565b6059546001600160a01b03166147c95760405162461bcd60e51b81526004016116499061e29c565b604e54600160801b90046001600160801b031660005b826001600160801b0316816001600160801b03161015614922576000614805828461e3ee565b6001600160801b038116600090815260406020819052902054909150600160f01b900460ff168015614867575061483b81614073565b8061486757506001600160801b038116600090815260406020819052902054600160d01b900461ffff16155b1561490f576001600160801b038116600090815260406020819052902054600160e81b900460ff1661489c5761489c8161b124565b604e546148ba90600160801b90046001600160801b0316600161e3ee565b6001600160801b0316816001600160801b0316141561490f57604e546148f190600160801b90046001600160801b0316600161e3ee565b604e80546001600160801b03928316600160801b0292169190911790555b508061491a8161e2e5565b9150506147df565b505050565b6001600160801b0316600090815260406020819052902054600160e01b900460ff1690565b61495461973d565b604c5461496290602061e410565b60556000828254614973919061e30c565b909155506149859050604c600061d41f565b565b600080614993856145f5565b905060006149a18683615f94565b90505b6001600160801b03821615614b59576149bd8683615f94565b9050848111614aa357836001600160801b0316826001600160801b03161415614a92576001600160a01b0386166000908152604160205260409081902090516001627446cf60e11b0319815260048101919091526001600160801b038316602482015273__$85afbab79b2b776d70bef879a32ed56424$__9063ff1772629060440160206040518083038186803b158015614a5757600080fd5b505af4158015614a6b573d6000803e3d6000fd5b505050506040513d601f19601f82011682018060405250810190614a8f919061e5dd565b91505b506001600160801b031690506142fe565b6001600160a01b0386166000908152604160205260409081902090516001627446cf60e11b0319815260048101919091526001600160801b038316602482015273__$85afbab79b2b776d70bef879a32ed56424$__9063ff1772629060440160206040518083038186803b158015614b1a57600080fd5b505af4158015614b2e573d6000803e3d6000fd5b505050506040513d601f19601f82011682018060405250810190614b52919061e5dd565b91506149a4565b506001600160801b0316949350505050565b6059546001600160a01b0316614b935760405162461bcd60e51b81526004016116499061e29c565b6001600160a01b038116600090815260436020526040812090614bb86001600f61e30c565b905060008282600f8110614bce57614bce61e220565b6002020154605954604080516307bc663b60e11b815290519293506001600160a01b0390911691630f78cc7691600480820192602092909190829003018186803b158015614c1b57600080fd5b505afa158015614c2f573d6000803e3d6000fd5b505050506040513d601f19601f82011682018060405250810190614c53919061e2d3565b614c5d824261e30c565b1115614d0e5760005b614c726001600f61e30c565b811015614cd55783614c8582600161e323565b600f8110614c9557614c9561e220565b600202018482600f8110614cab57614cab61e220565b82546002919091029190910190815560019182015491015580614ccd8161e281565b915050614c66565b50428383600f8110614ce957614ce961e220565b600202015560008383600f8110614d0257614d0261e220565b60020201600101819055505b50505050565b601f81600f811061433257600080fd5b6040516bffffffffffffffffffffffff19606084901b1660208201526001600160801b0319608083901b1660348201526000906044015b60405160208183030381529060405280519060200120905092915050565b6059546001600160a01b0316614da15760405162461bcd60e51b81526004016116499061e29c565b6000614daf6001600f61e30c565b90506000600182600f8110614dc657614dc661e220565b6002020154605954604080516307bc663b60e11b815290519293506001600160a01b0390911691630f78cc7691600480820192602092909190829003018186803b158015614e1357600080fd5b505afa158015614e27573d6000803e3d6000fd5b505050506040513d601f19601f82011682018060405250810190614e4b919061e2d3565b614e55824261e30c565b11156120d45760005b614e6a6001600f61e30c565b811015614ece576001614e7d828261e323565b600f8110614e8d57614e8d61e220565b60020201600182600f8110614ea457614ea461e220565b82546002919091029190910190815560019182015491015580614ec68161e281565b915050614e5e565b5042600183600f8110614ee357614ee361e220565b60020201556000600183600f81106120c8576120c861e220565b600080614f0a8487615f94565b83101590506000614f1b8587615f94565b84111580614f3057506001600160801b038616155b9050818015614f3c5750805b979650505050505050565b614f59846001600160401b0316613fbc565b614fb45760405162461bcd60e51b815260206004820152602660248201527f52657665616c20706572696f64206e6f74206f70656e20666f7220746869732060448201526511185d18525160d21b6064820152608401611649565b6001600160401b0384166000908152603d6020908152604080832033845290915290205460ff1661503f5760405162461bcd60e51b815260206004820152602f60248201527f5573657220686173206e6f7420636f6d6d69746564206265666f72652c20746860448201526e1d5cc818d85b89dd081c995d99585b608a1b6064820152608401611649565b6001600160401b0384166000908152603d60209081526040808320338452909152902054610100900460ff16156150cd5760405162461bcd60e51b815260206004820152602c60248201527f557365722068617320616c72656164792072657665616c65642c20746875732060448201526b18d85b89dd081c995d99585b60a21b6064820152608401611649565b6150e033856001600160401b0316615f0a565b6150ea8483618c4a565b1461517c5760405162461bcd60e51b815260206004820152605660248201527f4e6f74207468652073616d652068617368207468616e20636f6d6d697465642c60448201527f20696d706f737369626c6520746f206d61746368207769746820676976656e206064820152750bee6c2d8e8404c40bec6d8cac2e492a08ca690c2e6d60531b608482015260a401611649565b61518f33856001600160401b03166142c7565b61519c8360ff16836175d0565b1461522a5760405162461bcd60e51b815260206004820152605260248201527f4e6f74207468652073616d6520766f7465207468616e20636f6d6d697465642c60448201527f20696d706f737369626c6520746f206d61746368207769746820676976656e206064820152715f73616c742026205f636c656172566f746560701b608482015260a401611649565b60ff821660011415615287576001600160401b0384166000908152604060208190528120600190810180549192909161526890849061ffff1661e596565b92506101000a81548161ffff021916908361ffff1602179055506152d9565b6001600160401b0384166000908152604060208190529020600190810180546002906152be90849062010000900461ffff1661e596565b92506101000a81548161ffff021916908361ffff1602179055505b6001600160401b0384166000908152603d602090815260408083203384528252909120805461010062ffff00199091166201000060ff87160217178155845161532a9260019092019186019061d39b565b506001600160401b038416600090815260486020526040812080546001929061535890849061ffff1661e596565b92506101000a81548161ffff021916908361ffff160217905550602060016002615382919061e410565b61538c919061e323565b6055600082825461539d919061e323565b90915550503360009081526042602090815260408083206001600160401b038816845291819052909120546153df90600190600160d01b900461ffff1661e61a565b6001600160401b038681166000908152604060208190529020805461ffff60d01b1916600160d01b61ffff949094168402179055825467ffffffffffffffff60801b1916600160801b4290921691909102178083550460ff16156154795780546001600160801b0319168155605580546001919060009061546190849061e30c565b9091555061547090503361a8fa565b6154793361d073565b60565465010000000000900460ff16156159d75760595460408051632a49798160e11b8152905133926000926001600160a01b0390911691635492f30291600480820192602092909190829003018186803b1580156154d757600080fd5b505afa1580156154eb573d6000803e3d6000fd5b505050506040513d601f19601f8201168201806040525081019061550f919061e42f565b90506000605960009054906101000a90046001600160a01b03166001600160a01b0316630855d1516040518163ffffffff1660e01b815260040160206040518083038186803b15801561556157600080fd5b505afa158015615575573d6000803e3d6000fd5b505050506040513d601f19601f82011682018060405250810190615599919061e42f565b90506000605960009054906101000a90046001600160a01b03166001600160a01b03166304e76c8f6040518163ffffffff1660e01b815260040160206040518083038186803b1580156155eb57600080fd5b505afa1580156155ff573d6000803e3d6000fd5b505050506040513d601f19601f82011682018060405250810190615623919061e42f565b6040516308c0a84360e11b81526001600160a01b03868116600483015291925060009185169063118150869060240160206040518083038186803b15801561566a57600080fd5b505afa15801561567e573d6000803e3d6000fd5b505050506040513d601f19601f820116820180604052508101906156a2919061e42f565b60565460595460408051630b08bfd960e01b8152905193945060009361ffff600160401b8504811694600160601b900416926001600160a01b031691630b08bfd9916004808301926020929190829003018186803b15801561570357600080fd5b505afa158015615717573d6000803e3d6000fd5b505050506040513d601f19601f8201168201806040525081019061573b919061e2d3565b615745919061e410565b61574f919061e462565b605654605954604080516307c06f0560e51b8152905193945060009361ffff600160401b8504811694600160601b900416926001600160a01b03169163f80de0a0916004808301926020929190829003018186803b1580156157b057600080fd5b505afa1580156157c4573d6000803e3d6000fd5b505050506040513d601f19601f820116820180604052508101906157e8919061e2d3565b6157f2919061e410565b6157fc919061e462565b604051630db6cc8560e11b8152600481018490526001600160a01b0385811660248301526000604483015291925090861690631b6d990a90606401602060405180830381600087803b15801561585157600080fd5b505af1158015615865573d6000803e3d6000fd5b505050506040513d601f19601f82011682018060405250810190615889919061e33b565b6158ea5760405162461bcd60e51b815260206004820152602c60248201527f636f756c64206e6f74207265776172642052455020696e2072657665616c537060448201526b6f74436865636b2c20312e6160a01b6064820152608401611649565b604051633832942560e21b8152600481018290526001600160a01b03848116602483015285169063e0ca509490604401602060405180830381600087803b15801561593457600080fd5b505af1158015615948573d6000803e3d6000fd5b505050506040513d601f19601f8201168201806040525081019061596c919061e33b565b6159cf5760405162461bcd60e51b815260206004820152602e60248201527f636f756c64206e6f742072657761726420746f6b656e20696e2072657665616c60448201526d29b837ba21b432b1b5961018973160911b6064820152608401611649565b505050505050505b60565462010000900460ff168015615a1057506001600160401b038516600090815260406020819052902054600160d01b900461ffff16155b15615a2757615a27856001600160401b031661b124565b600160536000828254615a3a919061e323565b90915550615a48905061a243565b6001600160401b0385166000818152604060208181529181902060010154815161ffff80831682526201000090920490911692810192909252339260ff87169290917f965f1f4937cc1062d77f76cbd2533a8147d3202573f62b9dfd5eca47c5dcfdb1910160405180910390a45050505050565b615ac461973d565b6056805461ffff909216600160601b0261ffff60601b19909216919091179055565b615aee61973d565b604954615afc90602061e410565b60556000828254615b0d919061e30c565b9091555061498590506049600061d41f565b6000611bec82610f54846145f5565b6060615b3982614927565b615b555760405162461bcd60e51b81526004016116499061e1e9565b6001600160801b0380831660009081526040602081815281832082516101c0810184528154958616815263ffffffff600160801b8704811693820193909352600160a01b86049092169282019290925261ffff600160c01b850481166060830152600160d01b85048116608083015260ff600160e01b86048116151560a0840152600160e81b86048116151560c0840152600160f01b909504909416151560e082015260018201548085166101008301526201000081049094166101208201526001600160401b03600160201b85048116610140830152600160601b90940490931661016084015260028101805492939261018084019190615c569061e236565b80601f0160208091040260200160405190810160405280929190818152602001828054615c829061e236565b8015615ccf5780601f10615ca457610100808354040283529160200191615ccf565b820191906000526020600020905b815481529060010190602001808311615cb257829003601f168201915b505050918352505060038281015460209092019160ff1690811115615cf657615cf661d660565b6003811115615d0757615d0761d660565b905250602081015190915063ffffffff166000816001600160401b03811115615d3257615d3261d7d1565b604051908082528060200260200182016040528015615d6557816020015b6060815260200190600190039081615d505790505b50905060005b826001600160801b0316816001600160801b03161015615e7c578351600090615d9590839061e3ee565b6001600160801b0381166000908152603f6020526040812060030180549293509091615dc09061e236565b80601f0160208091040260200160405190810160405280929190818152602001828054615dec9061e236565b8015615e395780601f10615e0e57610100808354040283529160200191615e39565b820191906000526020600020905b815481529060010190602001808311615e1c57829003601f168201915b505050505090508084846001600160801b031681518110615e5c57615e5c61e220565b602002602001018190525050508080615e749061e2e5565b915050615d6b565b50949350505050565b6000615e9082614927565b615e9c57506000919050565b6001600160801b038216600090815260406020819052902060010154600160601b90046001600160401b0316421180611bec5750506001600160801b0316600090815260406020819052902054600160d01b900461ffff161590565b615f0061973d565b614985600061d166565b60006142fe615f198484614d24565b6040518060400160405280600a8152602001690c6dedadad2e890c2e6d60b31b815250616835565b615f4961973d565b6001600160a01b0381166000908152604560209081526040822080546effffffffffffffffffffffffffffff191690556055805491929091615f8c90849061e30c565b909155505050565b60006142fe615fa38484614d24565b604051806040016040528060098152602001686e756d546f6b656e7360b81b815250616835565b6000615fd582614927565b615ff15760405162461bcd60e51b81526004016116499061e1e9565b506001600160801b03166000908152603d602090815260408083206001600160a01b03949094168352929052205460ff1690565b61602d61973d565b60568054911515620100000262ff000019909216919091179055565b6160926040805160e0810182526000808252602082018190529091820190815260200160006001600160a01b031681526020016060815260200160608152602001606081525090565b6001600160801b0382166000908152603f6020908152604091829020825160e08101845281546001600160401b038082168352600160401b8204169382019390935292909190830190600160801b900460ff1660038111156160f6576160f661d660565b60038111156161075761610761d660565b815260018201546001600160a01b031660208201526002820180546040909201916161319061e236565b80601f016020809104026020016040519081016040528092919081815260200182805461615d9061e236565b80156161aa5780601f1061617f576101008083540402835291602001916161aa565b820191906000526020600020905b81548152906001019060200180831161618d57829003601f168201915b505050505081526020016003820180546161c39061e236565b80601f01602080910402602001604051908101604052809291908181526020018280546161ef9061e236565b801561623c5780601f106162115761010080835404028352916020019161623c565b820191906000526020600020905b81548152906001019060200180831161621f57829003601f168201915b505050505081526020016004820180546162559061e236565b80601f01602080910402602001604051908101604052809291908181526020018280546162819061e236565b80156162ce5780601f106162a3576101008083540402835291602001916162ce565b820191906000526020600020905b8154815290600101906020018083116162b157829003601f168201915b5050505050815250509050919050565b604a546049546000916162f09161e323565b905090565b600080805b600f811015613ab157600181600f81106163165761631661e220565b600202016001015482616329919061e323565b9150806163358161e281565b9150506162fa565b604a8181548110613fa257600080fd5b61635561973d565b6056805491151563010000000263ff00000019909216919091179055565b6059546000906001600160a01b031661639e5760405162461bcd60e51b81526004016116499061e29c565b60595460408051632a49798160e11b815290516000926001600160a01b031691635492f302916004808301926020929190829003018186803b1580156163e357600080fd5b505afa1580156163f7573d6000803e3d6000fd5b505050506040513d601f19601f8201168201806040525081019061641b919061e42f565b6001600160a01b031614156164425760405162461bcd60e51b81526004016116499061e635565b6059546040805163ca64f9e760e01b815290516000926001600160a01b03169163ca64f9e7916004808301926020929190829003018186803b15801561648757600080fd5b505afa15801561649b573d6000803e3d6000fd5b505050506040513d601f19601f820116820180604052508101906164bf919061e42f565b6001600160a01b031614156164e65760405162461bcd60e51b81526004016116499061e679565b6059546040805163ca64f9e760e01b815290516000926001600160a01b03169163ca64f9e7916004808301926020929190829003018186803b15801561652b57600080fd5b505afa15801561653f573d6000803e3d6000fd5b505050506040513d601f19601f82011682018060405250810190616563919061e42f565b90506000605960009054906101000a90046001600160a01b03166001600160a01b0316635492f3026040518163ffffffff1660e01b815260040160206040518083038186803b1580156165b557600080fd5b505afa1580156165c9573d6000803e3d6000fd5b505050506040513d601f19601f820116820180604052508101906165ed919061e42f565b9050848060005b60038110156167d35760405163065ee72760e51b81526001600160a01b0383811660048301526000919087169063cbdce4e09060240160206040518083038186803b15801561664257600080fd5b505afa158015616656573d6000803e3d6000fd5b505050506040513d601f19601f8201168201806040525081019061667a919061e2d3565b6001600160a01b03841660009081526044602052604090205490915088116166a557829350506167d3565b6001600160a01b03831660009081526044602052604090205488108015906166e457506001600160a01b03831660009081526044602052604090205415155b15616721576001600160a01b03831660009081526044602052604081205461670c908a61e30c565b905080821061671f5783945050506167d3565b505b87811061673157829350506167d3565b60405163792f4f6960e11b81526001600160a01b03848116600483015286169063f25e9ed29060240160206040518083038186803b15801561677257600080fd5b505afa158015616786573d6000803e3d6000fd5b505050506040513d601f19601f820116820180604052508101906167aa919061e42f565b92506001600160a01b0383166167c057506167d3565b50806167cb8161e281565b9150506165f4565b50909695505050505050565b60006167ea82614927565b6168065760405162461bcd60e51b81526004016116499061e1e9565b506001600160801b0316600090815260406020819052902060010154600160601b90046001600160401b031690565b600080838360405160200161684b92919061e6bb565b60408051808303601f1901815291815281516020928301206000908152603e909252902054949350505050565b61688061973d565b6001600160a01b038116600090815260426020908152604080832080546001600160e81b0319168155600101839055604390915281206168bf9161d43d565b6001600160a01b03811660009081526044602090815260408220919091556168e890602261e410565b60556000828254615f8c919061e30c565b60606000836001600160801b03161180156169255750816001600160801b0316836001600160801b0316105b6169415760405162461bcd60e51b81526004016116499061e539565b6000835b61695084600161e3ee565b6001600160801b0316816001600160801b03161015616b4c576001600160801b0380821660009081526040602081815281832082516101c0810184528154958616815263ffffffff600160801b8704811693820193909352600160a01b86049092169282019290925261ffff600160c01b850481166060830152600160d01b85048116608083015260ff600160e01b86048116151560a0840152600160e81b86048116151560c0840152600160f01b909504909416151560e082015260018201548085166101008301526201000081049094166101208201526001600160401b03600160201b85048116610140830152600160601b90940490931661016084015260028101805492939261018084019190616a6a9061e236565b80601f0160208091040260200160405190810160405280929190818152602001828054616a969061e236565b8015616ae35780601f10616ab857610100808354040283529160200191616ae3565b820191906000526020600020905b815481529060010190602001808311616ac657829003601f168201915b505050918352505060038281015460209092019160ff1690811115616b0a57616b0a61d660565b6003811115616b1b57616b1b61d660565b9052506020810151909150616b369063ffffffff168461e3ee565b9250508080616b449061e2e5565b915050616945565b506000816001600160801b03166001600160401b03811115616b7057616b7061d7d1565b604051908082528060200260200182016040528015616ba357816020015b6060815260200190600190039081616b8e5790505b5090506000855b616bb586600161e3ee565b6001600160801b0316816001600160801b03161015616ebc576001600160801b0380821660009081526040602081815281832082516101c0810184528154958616815263ffffffff600160801b8704811693820193909352600160a01b86049092169282019290925261ffff600160c01b850481166060830152600160d01b85048116608083015260ff600160e01b86048116151560a0840152600160e81b86048116151560c0840152600160f01b909504909416151560e082015260018201548085166101008301526201000081049094166101208201526001600160401b03600160201b85048116610140830152600160601b90940490931661016084015260028101805492939261018084019190616ccf9061e236565b80601f0160208091040260200160405190810160405280929190818152602001828054616cfb9061e236565b8015616d485780601f10616d1d57610100808354040283529160200191616d48565b820191906000526020600020905b815481529060010190602001808311616d2b57829003601f168201915b505050918352505060038281015460209092019160ff1690811115616d6f57616d6f61d660565b6003811115616d8057616d8061d660565b905250905060005b816020015163ffffffff16816001600160801b03161015616ea7578151600090616db390839061e3ee565b6001600160801b0381166000908152603f6020526040812060020180549293509091616dde9061e236565b80601f0160208091040260200160405190810160405280929190818152602001828054616e0a9061e236565b8015616e575780601f10616e2c57610100808354040283529160200191616e57565b820191906000526020600020905b815481529060010190602001808311616e3a57829003601f168201915b505050505090508087876001600160801b031681518110616e7a57616e7a61e220565b6020908102919091010152616e9060018761e3ee565b955050508080616e9f9061e2e5565b915050616d88565b50508080616eb49061e2e5565b915050616baa565b509095945050505050565b616ecf61973d565b605680549115156101000261ff0019909216919091179055565b60606000836001600160801b0316118015616f155750816001600160801b0316836001600160801b0316105b616f315760405162461bcd60e51b81526004016116499061e539565b6000616f3d848461e358565b616f4890600161e3ee565b90506000816001600160801b03166001600160401b03811115616f6d57616f6d61d7d1565b604051908082528060200260200182016040528015616fa057816020015b6060815260200190600190039081616f8b5790505b50905060005b826001600160801b0316816001600160801b03161015611be75760406000616fce838961e3ee565b6001600160801b03166001600160801b031681526020019081526020016000206002018054616ffc9061e236565b80601f01602080910402602001604051908101604052809291908181526020018280546170289061e236565b80156170755780601f1061704a57610100808354040283529160200191617075565b820191906000526020600020905b81548152906001019060200180831161705857829003601f168201915b505050505082826001600160801b0316815181106170955761709561e220565b602002602001018190525080806170ab9061e2e5565b915050616fa6565b6001600160a01b038116600090815260436020526040812081805b600f8110156118ae578281600f81106170e9576170e961e220565b6002020160010154826170fc919061e323565b9150806171088161e281565b9150506170ce565b600061711b82614927565b6171375760405162461bcd60e51b81526004016116499061e1e9565b600061714283613fbc565b15611bec576001600160801b0383166000908152604060208190529020600101546142fe904290600160601b90046001600160401b031661e30c565b600081604051602001617191919061e6e1565b60405160208183030381529060405280519060200120836040516020016171b8919061e6e1565b6040516020818303038152906040528051906020012014156171dc57506001611bec565b506000611bec565b6040516bffffffffffffffffffffffff194160601b166020820152600090819042906034016040516020818303038152906040528051906020012060001c61722c919061e462565b44617235614305565b60405160200161724791815260200190565b60408051601f198184030181529190528051602090910120617269904261e323565b617273919061e323565b61727d919061e323565b60405160200161728f91815260200190565b60408051601f19818403018152919052805160209091012092915050565b60606172b882614927565b6172d45760405162461bcd60e51b81526004016116499061e1e9565b6001600160801b03821660009081526046602090815260408083208054825181850281018501909352808352919290919083018282801561733e57602002820191906000526020600020905b81546001600160a01b03168152600190910190602001808311617320575b50505050509050600081516001600160401b038111156173605761736061d7d1565b604051908082528060200260200182016040528015617389578160200160208202803683370190505b50905060005b8251816001600160801b031610156118ae576001600160801b038086166000908152603d602052604081208551909286919085169081106173d2576173d261e220565b60200260200101516001600160a01b03166001600160a01b0316815260200190815260200160002060000160029054906101000a900460ff1660ff1682826001600160801b0316815181106174295761742961e220565b6001600160801b03909216602092830291909101909101528061744b8161e2e5565b91505061738f565b600061745e82614927565b61747a5760405162461bcd60e51b81526004016116499061e1e9565b506001600160801b03166000908152603d602090815260408083206001600160a01b039490941683529290522054610100900460ff1690565b604b8181548110613fa257600080fd5b6001600160a01b038116600090815260426020908152604080832081516101408101835281546001600160801b038116808352600160801b8083046001600160401b0390811697850197909752600160c01b80840461ffff1696850196909652600160d01b830460ff90811615156060860152600160d81b8404811615156080860152600160e01b909304909216151560a084015260019093015480861660c0840152600160401b8104861660e084015290810485166101008301529290920490921661012082015282916175988582617453565b1580156175ab57506175a981614073565b155b80156175bd57506175bb81613f39565b155b156175c757600192505b50909392505050565b6040805160208101849052908101829052600090606001614d5b565b60606000821180156175fe5750818311155b801561760b575060018310155b6176575760405162461bcd60e51b815260206004820152601960248201527f6b206f72204e20617265206e6f74204f4b20666f7220524e47000000000000006044820152606401611649565b60006176616171e4565b60405160200161767391815260200190565b60408051601f19818403018152828252805160209182012081840152815180840382018152928201909152815191012090506000846001600160401b038111156176bf576176bf61d7d1565b6040519080825280602002602001820160405280156176e8578160200160208202803683370190505b5090506000806176f960148861e323565b905060005b8181101561783c57617710818061e410565b61771a908661e323565b60405160200161772c91815260200190565b6040516020818303038152906040528051906020012060001c8711156177515761782a565b60008761775e838061e410565b617768908861e323565b60405160200161777a91815260200190565b6040516020818303038152906040528051906020012060001c61779d919061e6fd565b90506000805b858110156177e757828782815181106177be576177be61e220565b602002602001015114156177d557600191506177e7565b806177df8161e281565b9150506177a3565b508061781957818686815181106178005761780061e220565b602090810291909101015261781685600161e323565b94505b89851061782757505061783c565b50505b806178348161e281565b9150506176fe565b50868210156178f05760005b868110156178ee57806000805b8581101561789957828782815181106178705761787061e220565b602002602001015114156178875760019150617899565b806178918161e281565b915050617855565b50806178cb57818686815181106178b2576178b261e220565b60209081029190910101526178c885600161e323565b94505b8985106178d95750506178ee565b505080806178e69061e281565b915050617848565b505b868214616ebc5760405162461bcd60e51b815260206004820152601060248201526f149391c81a5b9cdd59999a58da595b9d60821b6044820152606401611649565b6059546001600160a01b031661795a5760405162461bcd60e51b81526004016116499061e29c565b6179638561471b565b6179c75760405162461bcd60e51b815260206004820152602f60248201527f636f6d6d697420706572696f64206e6565647320746f206265206f70656e206660448201526e1bdc881d1a1a5cc818985d18da1259608a1b6064820152608401611649565b6001600160801b0385166000908152603d6020908152604080832033845290915290205460ff1615617a4d5760405162461bcd60e51b815260206004820152602960248201527f557365722068617320616c726561647920636f6d6d6974656420746f207468696044820152681cc818985d18da125960ba1b6064820152608401611649565b617a578533618784565b617ac95760405162461bcd60e51b815260206004820152603860248201527f55736572206e6565647320746f20626520616c6c6f636174656420746f20746860448201527f697320626174636820746f20636f6d6d6974206f6e20697400000000000000006064820152608401611649565b60595460408051632a49798160e11b815290516000926001600160a01b031691635492f302916004808301926020929190829003018186803b158015617b0e57600080fd5b505afa158015617b22573d6000803e3d6000fd5b505050506040513d601f19601f82011682018060405250810190617b46919061e42f565b6001600160a01b03161415617b6d5760405162461bcd60e51b81526004016116499061e635565b605954604080516001624ee91360e11b0319815290516000926001600160a01b03169163ff622dda916004808301926020929190829003018186803b158015617bb557600080fd5b505afa158015617bc9573d6000803e3d6000fd5b505050506040513d601f19601f82011682018060405250810190617bed919061e2d3565b90506000617bfb3383616373565b60565490915060ff1615617c5a576001600160a01b038116600090815260446020526040902054821115617c5a576001600160a01b038116600090815260446020526040812054617c4c908461e30c565b9050617c58818361a4ce565b505b6000336000908152604160205260408082209051634c2f35d960e01b815260048101919091526001600160801b038316602482015273__$85afbab79b2b776d70bef879a32ed56424$__90634c2f35d99060440160206040518083038186803b158015617cc657600080fd5b505af4158015617cda573d6000803e3d6000fd5b505050506040513d601f19601f82011682018060405250810190617cfe919061e5dd565b9050886001600160801b0316816001600160801b03161415617dc05733600090815260416020526040908190209051634c2f35d960e01b815260048101919091526001600160801b038a16602482015273__$85afbab79b2b776d70bef879a32ed56424$__90634c2f35d99060440160206040518083038186803b158015617d8557600080fd5b505af4158015617d99573d6000803e3d6000fd5b505050506040513d601f19601f82011682018060405250810190617dbd919061e5dd565b90505b617dcc82823387614efd565b617e0f5760405162461bcd60e51b81526020600482015260146024820152733737ba1030903b30b634b2103837b9b4ba34b7b760611b6044820152606401611649565b6000617e1b338b614d24565b9050617e4981604051806040016040528060098152602001686e756d546f6b656e7360b81b8152508761d1b6565b617e79816040518060400160405280600a8152602001690c6dedadad2e890c2e6d60b31b8152508b60001c61d1b6565b617ea9816040518060400160405280600a815260200169636f6d6d6974566f746560b01b8152508a60001c61d1b6565b6001600160801b038a166000908152603d602090815260408083203384528252909120805466ffffffff0000001916630100000063ffffffff8b16021781558751617efc9260029092019189019061d39b565b506001600160801b038a166000908152604760205260408120805460019290617f2a90849061ffff1661e596565b92506101000a81548161ffff021916908361ffff160217905550600060426000336001600160a01b03166001600160a01b0316815260200190815260200160002090506001604060008d6001600160801b03166001600160801b0316815260200190815260200160002060000160189054906101000a900461ffff16617fb0919061e61a565b6001600160801b038c16600090815260406020818152818320805461ffff60c01b1916600160c01b61ffff969096169590950294909417909355835467ffffffffffffffff60801b1916600160801b426001600160401b031602178455603d8352808220338352909252908120805460ff19166001179055605580546010929061803b90849061e323565b92505081905550600160536000828254618055919061e323565b90915550618063905061a243565b60405186815233906001600160801b038d16907f42864d9683ff5b12c3b2cc65d705af5aab104b03bc700b802f79e5c971ef08a19060200160405180910390a35050505050505050505050565b60006162f033613d43565b606060006180c984846175ec565b949350505050565b604660205281600052604060002081815481106180ed57600080fd5b6000918252602090912001546001600160a01b03169150829050565b61811161973d565b6056805460ff1916911515919091179055565b600061812f82614927565b61814b5760405162461bcd60e51b81526004016116499061e1e9565b506001600160801b0316600090815260406020819052902060010154600160201b90046001600160401b031690565b606061818582614927565b6181a15760405162461bcd60e51b81526004016116499061e1e9565b6001600160801b03821660009081526046602090815260408083208054825181850281018501909352808352919290919083018282801561820b57602002820191906000526020600020905b81546001600160a01b031681526001909101906020018083116181ed575b50505050509050600081516001600160401b0381111561822d5761822d61d7d1565b60405190808252806020026020018201604052801561826057816020015b606081526020019060019003908161824b5790505b50905060005b8251816001600160801b031610156118ae576001600160801b038086166000908152603d602052604081208551909286919085169081106182a9576182a961e220565b60200260200101516001600160a01b03166001600160a01b0316815260200190815260200160002060020180546182df9061e236565b80601f016020809104026020016040519081016040528092919081815260200182805461830b9061e236565b80156183585780601f1061832d57610100808354040283529160200191618358565b820191906000526020600020905b81548152906001019060200180831161833b57829003601f168201915b505050505082826001600160801b0316815181106183785761837861e220565b6020026020010181905250808061838e9061e2e5565b915050618266565b6059546001600160a01b03166183be5760405162461bcd60e51b81526004016116499061e29c565b6183c6614d79565b6183ce611f43565b6183d7816147a1565b6183e9816001600160801b0316619797565b611a50816118cc565b6183fa61973d565b6056805469ffff0000ff00000000001916650100000000009315159390930269ffff0000000000000000191692909217600160401b61ffff9290921691909102179055565b606061844a82614927565b6184665760405162461bcd60e51b81526004016116499061e1e9565b6001600160801b0380831660009081526040602081815281832082516101c0810184528154958616815263ffffffff600160801b8704811693820193909352600160a01b86049092169282019290925261ffff600160c01b850481166060830152600160d01b85048116608083015260ff600160e01b86048116151560a0840152600160e81b86048116151560c0840152600160f01b909504909416151560e082015260018201548085166101008301526201000081049094166101208201526001600160401b03600160201b85048116610140830152600160601b909404909316610160840152600281018054929392610180840191906185679061e236565b80601f01602080910402602001604051908101604052809291908181526020018280546185939061e236565b80156185e05780601f106185b5576101008083540402835291602001916185e0565b820191906000526020600020905b8154815290600101906020018083116185c357829003601f168201915b505050918352505060038281015460209092019160ff16908111156186075761860761d660565b60038111156186185761861861d660565b905250602081015190915063ffffffff166000816001600160401b038111156186435761864361d7d1565b60405190808252806020026020018201604052801561867657816020015b60608152602001906001900390816186615790505b50905060005b82816001600160801b03161015615e7c57835160009061869d90839061e3ee565b6001600160801b0381166000908152603f60205260408120600201805492935090916186c89061e236565b80601f01602080910402602001604051908101604052809291908181526020018280546186f49061e236565b80156187415780601f1061871657610100808354040283529160200191618741565b820191906000526020600020905b81548152906001019060200180831161872457829003601f168201915b505050505090508084846001600160801b0316815181106187645761876461e220565b60200260200101819052505050808061877c9061e2e5565b91505061867c565b6001600160801b03821660009081526046602090815260408083208054825181850281018501909352808352849384939291908301828280156187f057602002820191906000526020600020905b81546001600160a01b031681526001909101906020018083116187d2575b5050505050905060005b815181101561885157846001600160a01b031682828151811061881f5761881f61e220565b60200260200101516001600160a01b0316141561883f5760019250618851565b806188498161e281565b9150506187fa565b5090949350505050565b6059546001600160a01b03166188835760405162461bcd60e51b81526004016116499061e29c565b600061888f3383616373565b9050600061889c82615b1f565b6001600160a01b0383166000908152604460205260409020546188bf919061e30c565b9050828110156189215760405162461bcd60e51b815260206004820152602760248201527f617661696c61626c65546f6b656e732073686f756c64206265203e3d205f6e756044820152666d546f6b656e7360c81b6064820152608401611649565b6059546040805163ca64f9e760e01b815290516000926001600160a01b03169163ca64f9e7916004808301926020929190829003018186803b15801561896657600080fd5b505afa15801561897a573d6000803e3d6000fd5b505050506040513d601f19601f8201168201806040525081019061899e919061e42f565b6001600160a01b0384166000908152604460205260408120805492935086929091906189cb90849061e30c565b9091555050604051630895993360e11b8152600481018590526001600160a01b03848116602483015282169063112b326690604401602060405180830381600087803b158015618a1a57600080fd5b505af1158015618a2e573d6000803e3d6000fd5b505050506040513d601f19601f82011682018060405250810190618a52919061e33b565b618ac45760405162461bcd60e51b815260206004820152603b60248201527f436f756c64206e6f74207769746864726177566f74696e67526967687473207460448201527f68726f7567682050726f78795374616b654465616c6c6f6361746500000000006064820152608401611649565b618acc61a243565b826001600160a01b03167ffaeb7dbb9992397d26ea1944efd40c80b40f702faf69b46c67ad10aba68ccb7985604051618b0791815260200190565b60405180910390a250505050565b6060618b2082614927565b618b2957600080fd5b6001600160801b03821660009081526040602081905290206002018054618b4f9061e236565b80601f0160208091040260200160405190810160405280929190818152602001828054618b7b9061e236565b8015618bc85780601f10618b9d57610100808354040283529160200191618bc8565b820191906000526020600020905b815481529060010190602001808311618bab57829003601f168201915b50505050509050919050565b618bdc61973d565b6001600160a01b038116618c415760405162461bcd60e51b815260206004820152602660248201527f4f776e61626c653a206e6577206f776e657220697320746865207a65726f206160448201526564647265737360d01b6064820152608401611649565b611a588161d166565b60008282604051602001614d5b92919061e711565b3360009081526042602052604090208054600160e01b900460ff16618cf457604c8054600181810183556000929092527f42859d4f253f4d4a28ee9a59f9c9683a9404da2c5d329c733ab84f150db798a80180546001600160a01b03191633179055815460ff60e01b1916600160e01b178255618cdd90602061e323565b60556000828254618cee919061e323565b90915550505b6059546001600160a01b0316618d1c5760405162461bcd60e51b81526004016116499061e29c565b605960009054906101000a90046001600160a01b03166001600160a01b03166398a54e2b6040518163ffffffff1660e01b815260040160206040518083038186803b158015618d6a57600080fd5b505afa158015618d7e573d6000803e3d6000fd5b505050506040513d601f19601f82011682018060405250810190618da2919061e2d3565b604a54604954618db2919061e323565b10618e0a5760405162461bcd60e51b815260206004820152602260248201527f4d6178696d756d207265676973746572656420776f726b65727320616c726561604482015261647960f01b6064820152608401611649565b8054600160d01b900460ff1615618e635760405162461bcd60e51b815260206004820181905260248201527f576f726b657220697320616c72656164792072656769737465726564202831296044820152606401611649565b3360009081526045602052604090205460ff16158015618e98575033600090815260456020526040902054610100900460ff16155b618ee45760405162461bcd60e51b815260206004820181905260248201527f576f726b657220697320616c72656164792072656769737465726564202832296044820152606401611649565b605960009054906101000a90046001600160a01b03166001600160a01b0316639fb491f66040518163ffffffff1660e01b815260040160206040518083038186803b158015618f3257600080fd5b505afa158015618f46573d6000803e3d6000fd5b505050506040513d601f19601f82011682018060405250810190618f6a919061e2d3565b8154600160c01b900461ffff16108015906190205750605960009054906101000a90046001600160a01b03166001600160a01b0316630f1f0ffe6040518163ffffffff1660e01b815260040160206040518083038186803b158015618fce57600080fd5b505afa158015618fe2573d6000803e3d6000fd5b505050506040513d601f19601f82011682018060405250810190619006919061e2d3565b600182015461901e906001600160401b03164261e30c565b105b156190835760405162461bcd60e51b815260206004820152602d60248201527f41646472657373206b69636b65642074656d706f726172696c792066726f6d2060448201526c3830b93a34b1b4b830ba34b7b760991b6064820152608401611649565b60565460ff161561917357605954604080516001624ee91360e11b0319815290516000926001600160a01b03169163ff622dda916004808301926020929190829003018186803b1580156190d657600080fd5b505afa1580156190ea573d6000803e3d6000fd5b505050506040513d601f19601f8201168201806040525081019061910e919061e2d3565b9050600061911c3383616373565b6001600160a01b038116600090815260446020526040902054909150821115619170576001600160a01b038116600090815260446020526040812054619162908461e30c565b905061916e818361a4ce565b505b50505b61917c3361d073565b80546001820180546001600160401b03421667ffffffffffffffff1990911617905563ffffffff60c01b1916600160d01b1781556191bc6020600261e410565b605560008282546191cd919061e323565b925050819055506001605360008282546191e7919061e323565b909155506191f5905061a243565b60405142815233907f439d77b7534ec3108fc6143bd4fbabde0b9f2bb54f7b0730d1f70dd2135b765f9060200160405180910390a250565b6001600160a01b038116600090815260426020908152604080832081516101408101835281546001600160801b0381168083526001600160401b03600160801b80840482169785019790975261ffff600160c01b808504919091169685019690965260ff600160d01b8404811615156060860152600160d81b8404811615156080860152600160e01b909304909216151560a084015260019093015480821660c0840152600160401b8104821660e08401529485048116610100830152929093049091166101208301526193018482615fca565b158015619312575061931281613f39565b1561931b575060005b6001600160801b03169392505050565b61939f604080516101c08101825260008082526020820181905291810182905260608082018390526080820183905260a0820183905260c0820183905260e082018390526101008201839052610120820183905261014082018390526101608201839052610180820152906101a082015290565b6193a882614927565b6193b157600080fd5b6001600160801b038083166000908152604060208181529181902081516101c0810183528154948516815263ffffffff600160801b8604811694820194909452600160a01b85049093169183019190915261ffff600160c01b840481166060840152600160d01b84048116608084015260ff600160e01b85048116151560a0850152600160e81b85048116151560c0850152600160f01b909404909316151560e083015260018101548084166101008401526201000081049093166101208301526001600160401b03600160201b84048116610140840152600160601b909304909216610160820152600282018054919291610180840191906194b39061e236565b80601f01602080910402602001604051908101604052809291908181526020018280546194df9061e236565b801561952c5780601f106195015761010080835404028352916020019161952c565b820191906000526020600020905b81548152906001019060200180831161950f57829003601f168201915b505050918352505060038281015460209092019160ff16908111156195535761955361d660565b60038111156195645761956461d660565b90525092915050565b600061957883614073565b6195d75760405162461bcd60e51b815260206004820152602a60248201527f5f446174614261746368496420636865636b696e6720766f7465206d757374206044820152691a185d9948195b99195960b21b6064820152608401611649565b6001600160801b0383166000908152603d602090815260408083206001600160a01b0388168452909152902054610100900460ff1661966c5760405162461bcd60e51b815260206004820152602b60248201527f75736572206d75737420686176652072657665616c656420696e20746869732060448201526a0ced2eccadc4084c2e8c6d60ab1b6064820152608401611649565b600061967784614344565b619682576000619685565b60015b60405160f082901b60ff60f01b1660208201526022810185905260ff909116915060009060420160405160208183030381529060405280519060200120905060006196d087876142c7565b90508082146197335760405162461bcd60e51b815260206004820152602960248201527f6765744e756d50617373696e67546f6b656e733a20686173686573206d75737460448201526808189948195c5d585b60ba1b6064820152608401611649565b614f3c8787615f94565b6000546001600160a01b031633146149855760405162461bcd60e51b815260206004820181905260248201527f4f776e61626c653a2063616c6c6572206973206e6f7420746865206f776e65726044820152606401611649565b60006197a882604b8054905061d223565b905060005b818110156198b3576000604b82815481106197ca576197ca61e220565b60009182526020808320909101546001600160a01b0316808352604290915260409091208054919250906001600160801b031661989e57805461ffff60d01b191681556198168261a78d565b61981f8261a8fa565b6001600160a01b03821660008181526045602052604090819020805462ff000019169055517f9dadcedba048e92b943ea1c5861cee1df63a566d7f795869c004780c1c698e2b906198739042815260200190565b60405180910390a26198876001600361e410565b60556000828254619898919061e30c565b90915550505b505080806198ab9061e281565b9150506197ad565b50604b546120d4576120d4604b600061d41f565b604f546001600160801b0316600090815260406020819052902054600160e01b900460ff166199575760405162461bcd60e51b815260206004820152603660248201527f43616e277420616c6c6f6361746520776f726b2c207468652063757272656e74604482015275206261746368206973206e6f7420636f6d706c65746560501b6064820152608401611649565b604f546001600160801b0316600090815260406020819052902054600160f01b900460ff16156199ef5760405162461bcd60e51b815260206004820152603b60248201527f43616e277420616c6c6f6361746520776f726b2c207468652063757272656e7460448201527f20626174636820697320616c726561647920616c6c6f636174656400000000006064820152608401611649565b6000619b13619a88604980549050605960009054906101000a90046001600160a01b03166001600160a01b031663dfeceed76040518163ffffffff1660e01b815260040160206040518083038186803b158015619a4b57600080fd5b505afa158015619a5f573d6000803e3d6000fd5b505050506040513d601f19601f82011682018060405250810190619a83919061e2d3565b61d223565b605960009054906101000a90046001600160a01b03166001600160a01b031663bd40ef4c6040518163ffffffff1660e01b815260040160206040518083038186803b158015619ad657600080fd5b505afa158015619aea573d6000803e3d6000fd5b505050506040513d601f19601f82011682018060405250810190619b0e919061e2d3565b61d239565b9050603261ffff82161115619b905760405162461bcd60e51b815260206004820152603960248201527f73656c65637465645f6b206d757374206265206174206d6f7374204d41585f5760448201527f4f524b45525f414c4c4f43415445445f5045525f4241544348000000000000006064820152608401611649565b6049546059546040805163189460df60e31b815290516001600160a01b039092169163c4a306f891600480820192602092909190829003018186803b158015619bd857600080fd5b505afa158015619bec573d6000803e3d6000fd5b505050506040513d601f19601f82011682018060405250810190619c10919061e2d3565b600054619c2d90600160a81b90046001600160401b03164261e30c565b106120d457604f80546001600160801b03908116600090815260406020818152818320805461ffff60d01b1916600160d01b61ffff8a169081029190911790915594549093168252808220805461ffff60c01b1916600160c01b909502949094179093556059548351631b4930b560e11b8152935191936001600160a01b0390911692633692616a92600480840193829003018186803b158015619cd057600080fd5b505afa158015619ce4573d6000803e3d6000fd5b505050506040513d601f19601f82011682018060405250810190619d08919061e2d3565b619d12904261e323565b90506000605960009054906101000a90046001600160a01b03166001600160a01b03166372e540306040518163ffffffff1660e01b815260040160206040518083038186803b158015619d6457600080fd5b505afa158015619d78573d6000803e3d6000fd5b505050506040513d601f19601f82011682018060405250810190619d9c919061e2d3565b619daf906001600160401b03841661e323565b604f80546001600160801b03908116600090815260406020819052808220600190810180546001600160401b03808b16600160201b026bffffffffffffffff00000000199092169190911790915585548516845282842082018054918816600160601b0267ffffffffffffffff60601b199092169190911790559354909216815220805460ff60f01b1916600160f01b179055909150619e516008600461e410565b619e5c60028061e410565b619e66919061e323565b619e70919061e323565b60556000828254619e81919061e323565b9091555050600161ffff851610801590619e9c575060018310155b619efb5760405162461bcd60e51b815260206004820152602a60248201527f4661696c20647572696e6720616c6c6f636174696f6e3a206e6f7420656e6f75604482015269676820776f726b65727360b01b6064820152608401611649565b6000619f0b8561ffff16856180bb565b9050600081516001600160401b03811115619f2857619f2861d7d1565b604051908082528060200260200182016040528015619f51578160200160208202803683370190505b50905060005b8251811015619fe6576049838281518110619f7457619f7461e220565b602002602001015181548110619f8c57619f8c61e220565b9060005260206000200160009054906101000a90046001600160a01b0316828281518110619fbc57619fbc61e220565b6001600160a01b039092166020928302919091019091015280619fde8161e281565b915050619f57565b5060005b825181101561a1af57600082828151811061a0075761a00761e220565b6020908102919091018101516001600160a01b0381166000818152604284526040808220604f80546001600160801b039081168552603d8089528486208787528952848620805460ff19169055915416845286528183209383529290945292909220805461ff0019169055915061a07d8261a78d565b61a0868261d248565b604f80546001600160801b0390811660009081526046602090815260408220805460018082018355918452919092200180546001600160a01b0319166001600160a01b0387161790559154835491166001600160801b0319909116178255818101805460089061a107908490600160401b90046001600160401b031661e733565b92506101000a8154816001600160401b0302191690836001600160401b031602179055506020600461a139919061e323565b6055600082825461a14a919061e323565b9091555050604f546040516001600160a01b03841681526001600160801b03909116907fe4ee2dfabe57cee15e3f558890b20455f54c1fa0718e5276faad70a6500e6b8c9060200160405180910390a25050808061a1a79061e281565b915050619fea565b506000805467ffffffffffffffff60a81b1916600160a81b426001600160401b031602178155604f80546001929061a1f19084906001600160801b031661e3ee565b92506101000a8154816001600160801b0302191690836001600160801b0316021790555061a21d6171e4565b60528190555060016053600082825461a236919061e323565b9091555050505050505050565b6059546001600160a01b031661a26b5760405162461bcd60e51b81526004016116499061e29c565b60595460408051632abe0d5f60e11b815290516000926001600160a01b03169163557c1abe916004808301926020929190829003018186803b15801561a2b057600080fd5b505afa15801561a2c4573d6000803e3d6000fd5b505050506040513d601f19601f8201168201806040525081019061a2e8919061e42f565b90506001600160a01b03811661a3405760405162461bcd60e51b815260206004820152601d60248201527f734675656c3a206e756c6c2041646472657373204e6f742056616c69640000006044820152606401611649565b6040513360248201526000906001600160a01b0383169060440160408051601f198184030181529181526020820180516001600160e01b0316631f5ac9c560e11b1790525161a38f919061e6e1565b6000604051808303816000865af19150503d806000811461a3cc576040519150601f19603f3d011682016040523d82523d6000602084013e61a3d1565b606091505b50506040513360248201529091506000906001600160a01b0384169060440160408051601f198184030181529181526020820180516001600160e01b03166358563d2160e01b1790525161a425919061e6e1565b6000604051808303816000865af19150503d806000811461a462576040519150601f19603f3d011682016040523d82523d6000602084013e61a467565b606091505b50509050818061a4745750805b6149225760405162461bcd60e51b815260206004820152602560248201527f72656365697665722072656a6563746564205f7265747269657665534675656c6044820152640818d85b1b60da1b6064820152608401611649565b6059546040805163ca64f9e760e01b815290516000926001600160a01b03169163ca64f9e7916004808301926020929190829003018186803b15801561a51357600080fd5b505afa15801561a527573d6000803e3d6000fd5b505050506040513d601f19601f8201168201806040525081019061a54b919061e42f565b6001600160a01b0316141561a5725760405162461bcd60e51b81526004016116499061e679565b6059546040805163ca64f9e760e01b815290516000926001600160a01b03169163ca64f9e7916004808301926020929190829003018186803b15801561a5b757600080fd5b505afa15801561a5cb573d6000803e3d6000fd5b505050506040513d601f19601f8201168201806040525081019061a5ef919061e42f565b6040516304ada21f60e21b8152600481018590526001600160a01b038481166024830152919250908216906312b6887c90604401602060405180830381600087803b15801561a63d57600080fd5b505af115801561a651573d6000803e3d6000fd5b505050506040513d601f19601f8201168201806040525081019061a675919061e33b565b61a6e75760405162461bcd60e51b815260206004820152603f60248201527f436f756c64206e6f74207265717565737420656e6f75676820616c6c6f63617460448201527f6564207374616b652c2072657175657374416c6c6f63617465645374616b65006064820152608401611649565b6001600160a01b03821660009081526044602052604090205461a71d5760206055600082825461a717919061e323565b90915550505b6001600160a01b0382166000908152604460205260408120805485929061a74590849061e323565b90915550506040518381526001600160a01b038316907f5aa5d56140767016c877a5333ac3e1ad31a09051098a8fdf7297c4b64530a9429060200160405180910390a2505050565b6001600160a01b0381166000908152604560205260409020805460ff16156120d457805460498054630100000090920463ffffffff16916000919061a7d49060019061e30c565b8154811061a7e45761a7e461e220565b600091825260209091200154835460ff198116855560595466ffffffff0000ff19909116600160a01b90910463ffffffff166301000000021784556049546001600160a01b03909116915060021161a8a3578060498363ffffffff168154811061a8505761a85061e220565b600091825260208083209190910180546001600160a01b0319166001600160a01b039485161790559183168152604590915260409020805466ffffffff0000001916630100000063ffffffff8516021790555b604980548061a8b45761a8b461e755565b6001900381819060005260206000200160006101000a8154906001600160a01b030219169055905560206055600082825461a8ef919061e30c565b909155505050505050565b6001600160a01b03811660009081526045602052604090208054610100900460ff16156120d4578054604a8054600160381b90920463ffffffff16916000919061a9469060019061e30c565b8154811061a9565761a95661e220565b600091825260209091200154835461ff0019811685556059546affffffff0000000000ff0019909116600160a01b90910463ffffffff16600160381b02178455604a546001600160a01b03909116915060021161aa1a5780604a8363ffffffff168154811061a9c75761a9c761e220565b600091825260208083209190910180546001600160a01b0319166001600160a01b039485161790559183168152604590915260409020805463ffffffff60381b1916600160381b63ffffffff8516021790555b604a80548061a8b45761a8b461e755565b6001600160a01b0381166000908152604560205260409020805462010000900460ff16156120d4578054604b8054600160581b90920463ffffffff16916000919061aa789060019061e30c565b8154811061aa885761aa8861e220565b600091825260209091200154835462ff000019811685556059546effffffff0000000000000000ff000019909116600160a01b90910463ffffffff16600160581b02178455604a546001600160a01b03909116915060021161ab515780604b8363ffffffff168154811061aafe5761aafe61e220565b600091825260208083209190910180546001600160a01b0319166001600160a01b039485161790559183168152604590915260409020805463ffffffff60581b1916600160581b63ffffffff8516021790555b604b80548061a8b45761a8b461e755565b604d54604e5460009161ab8c916001600160801b03600160801b928390048116929091041661e358565b9050605960009054906101000a90046001600160a01b03166001600160a01b031663e3115d3c6040518163ffffffff1660e01b815260040160206040518083038186803b15801561abdc57600080fd5b505afa15801561abf0573d6000803e3d6000fd5b505050506040513d601f19601f8201168201806040525081019061ac14919061e2d3565b816001600160801b031611156120d45760005b826001600160801b0316816001600160801b0316101561492257604d546001600160801b03600160801b91829004811660009081526040602081905281205491821692909161ac7e9163ffffffff9104168361e3ee565b9050815b816001600160801b0316816001600160801b0316101561ad40576001600160801b0381166000908152603f60205260408120805470ffffffffffffffffffffffffffffffffff191681556001810180546001600160a01b03191690559061acec600283018261d44c565b61acfa60038301600061d44c565b61ad0860048301600061d44c565b5061ad1790506020600261e410565b6055600082825461ad28919061e30c565b9091555081905061ad388161e2e5565b91505061ac82565b50604d54600160801b90046001600160801b0316600090815260406020819052812080546001600160f81b03191681556001810180546001600160a01b03191690559061ad90600283018261d44c565b50600301805460ff1916905561ada86020600261e410565b6055600082825461adb9919061e30c565b9091555050604d80546001600160801b03600160801b9182900481166000908152604760209081526040808320805461ffff1990811690915595549490940490921681526048909152208054909116905561ae166010600261e410565b6055600082825461ae27919061e30c565b9091555050604d54600160801b90046001600160801b031660009081526046602090815260408083208054825181850281018501909352808352919290919083018282801561ae9f57602002820191906000526020600020905b81546001600160a01b0316815260019091019060200180831161ae81575b5050505050905060005b8151816001600160801b0316101561b03957600082826001600160801b03168151811061aed85761aed861e220565b60200260200101519050600061af0382604d60109054906101000a90046001600160801b0316614d24565b905061af3081604051806040016040528060098152602001686e756d546f6b656e7360b81b81525061d341565b61af5c816040518060400160405280600a8152602001690c6dedadad2e890c2e6d60b31b81525061d341565b61af88816040518060400160405280600a815260200169636f6d6d6974566f746560b01b81525061d341565b604d54600160801b90046001600160801b03166000908152603d602090815260408083206001600160a01b03861684529091528120805466ffffffffffffff191681559061afd9600183018261d44c565b61afe760028301600061d44c565b5061aff690506020600261e410565b61b0026020600361e410565b61b00c919061e323565b6055600082825461b01d919061e30c565b925050819055505050848061b0319061e2e5565b95505061aea9565b50604d54600160801b90046001600160801b0316600090815260466020526040812061b0649161d41f565b805161b07190602061e410565b6055600082825461b082919061e30c565b9091555050604d54604051600160801b9091046001600160801b0316907f72c2fcc891fe835b86fc8bb9abdc52adf52499c52289b3c49e1461eabea2717590600090a26001604d60108282829054906101000a90046001600160801b031661b0ea919061e3ee565b92506101000a8154816001600160801b0302191690836001600160801b03160217905550505050808061b11c9061e2e5565b91505061ac27565b6059546001600160a01b031661b14c5760405162461bcd60e51b81526004016116499061e29c565b60595460408051632a49798160e11b815290516000926001600160a01b031691635492f302916004808301926020929190829003018186803b15801561b19157600080fd5b505afa15801561b1a5573d6000803e3d6000fd5b505050506040513d601f19601f8201168201806040525081019061b1c9919061e42f565b6001600160a01b0316141561b1f05760405162461bcd60e51b81526004016116499061e635565b60595460408051630855d15160e01b815290516000926001600160a01b031691630855d151916004808301926020929190829003018186803b15801561b23557600080fd5b505afa15801561b249573d6000803e3d6000fd5b505050506040513d601f19601f8201168201806040525081019061b26d919061e42f565b6001600160a01b0316141561b2c45760405162461bcd60e51b815260206004820181905260248201527f5265704d616e61676572206973206e756c6c20696e20506172616d65746572736044820152606401611649565b605954604080516304e76c8f60e01b815290516000926001600160a01b0316916304e76c8f916004808301926020929190829003018186803b15801561b30957600080fd5b505afa15801561b31d573d6000803e3d6000fd5b505050506040513d601f19601f8201168201806040525081019061b341919061e42f565b6001600160a01b0316141561b3a45760405162461bcd60e51b815260206004820152602360248201527f5265776172644d616e61676572206973206e756c6c20696e20506172616d657460448201526265727360e81b6064820152608401611649565b61b3ad81614073565b8061b3d957506001600160801b038116600090815260406020819052902054600160d01b900461ffff16155b61b44b5760405162461bcd60e51b815260206004820152603a60248201527f5f446174614261746368496420686173206e6f7420656e6465642c206f72206e60448201527f6f7420657665727920766f74657273206861766520766f7465640000000000006064820152608401611649565b6001600160801b038116600090815260406020819052902054600160e81b900460ff161561b4c55760405162461bcd60e51b815260206004820152602160248201527f5f446174614261746368496420697320616c72656164792076616c69646174656044820152601960fa1b6064820152608401611649565b6001600160801b03811660009081526046602090815260408083208054825181850281018501909352808352919290919083018282801561b52f57602002820191906000526020600020905b81546001600160a01b0316815260019091019060200180831161b511575b50505050509050600081516001600160401b0381111561b5515761b55161d7d1565b60405190808252806020026020018201604052801561b58457816020015b606081526020019060019003908161b56f5790505b509050600082516001600160401b0381111561b5a25761b5a261d7d1565b60405190808252806020026020018201604052801561b5cb578160200160208202803683370190505b50905060005b835181101561b75657600084828151811061b5ee5761b5ee61e220565b6020908102919091018101516001600160801b0388166000908152603d835260408082206001600160a01b038416835290935291822060010180549193509061b6369061e236565b80601f016020809104026020016040519081016040528092919081815260200182805461b6629061e236565b801561b6af5780601f1061b6845761010080835404028352916020019161b6af565b820191906000526020600020905b81548152906001019060200180831161b69257829003601f168201915b505050506001600160801b0389166000908152603d602090815260408083206001600160a01b038816845290915290205487519293506301000000900463ffffffff169183915087908690811061b7085761b70861e220565b60200260200101819052508085858151811061b7265761b72661e220565b602002602001019063ffffffff16908163ffffffff1681525050505050808061b74e9061e281565b91505061b5d1565b50600061b8016064605960009054906101000a90046001600160a01b03166001600160a01b031663ea19733c6040518163ffffffff1660e01b815260040160206040518083038186803b15801561b7ac57600080fd5b505afa15801561b7c0573d6000803e3d6000fd5b505050506040513d601f19601f8201168201806040525081019061b7e4919061e2d3565b865161b7f0919061e410565b61b7fa919061e462565b600161d239565b60408051602081019091526000808252919250905b845181101561b8d5576000805b865181101561b8985761b86887848151811061b8415761b84161e220565b602002602001015188838151811061b85b5761b85b61e220565b602002602001015161717e565b1561b8865761b87860018361e323565b915084821061b8865761b898565b8061b8908161e281565b91505061b823565b5083811061b8c25785828151811061b8b25761b8b261e220565b602002602001015192505061b8d5565b508061b8cd8161e281565b91505061b816565b506000805b84518163ffffffff16101561b9b0576000805b865181101561b96d5786818151811061b9085761b90861e220565b602002602001015163ffffffff16878463ffffffff168151811061b92e5761b92e61e220565b602002602001015163ffffffff16141561b95b5761b94d60018361e323565b915085821061b95b5761b96d565b8061b9658161e281565b91505061b8ed565b5084811061b99d57858263ffffffff168151811061b98d5761b98d61e220565b602002602001015192505061b9b0565b508061b9a88161e76b565b91505061b8da565b50600061b9bc88614344565b801561b9de575061b9dc836040518060200160405280600081525061717e565b155b801561b9ef575063ffffffff821615155b6056549091506301000000900460ff161561bd52576001600160801b0380891660009081526040602081815281832082516101c0810184528154958616815263ffffffff600160801b8704811693820193909352600160a01b86049092169282019290925261ffff600160c01b850481166060830152600160d01b85048116608083015260ff600160e01b86048116151560a0840152600160e81b86048116151560c0840152600160f01b909504909416151560e082015260018201548085166101008301526201000081049094166101208201526001600160401b03600160201b85048116610140830152600160601b9094049093166101608401526002810180549293926101808401919061bb059061e236565b80601f016020809104026020016040519081016040528092919081815260200182805461bb319061e236565b801561bb7e5780601f1061bb535761010080835404028352916020019161bb7e565b820191906000526020600020905b81548152906001019060200180831161bb6157829003601f168201915b505050918352505060038281015460209092019160ff169081111561bba55761bba561d660565b600381111561bbb65761bbb661d660565b90525061010081015190915061ffff161561bbd057600191505b61bbe9846040518060200160405280600081525061717e565b1561bd505760005b885181101561bd4e576001600160801b038a166000908152603d602052604081208a519091908b908490811061bc295761bc2961e220565b6020908102919091018101516001600160a01b0316825281019190915260400160002054610100900460ff1661bc5e5761bd3c565b61bc9088828151811061bc735761bc7361e220565b60200260200101516040518060200160405280600081525061717e565b61bcb15787818151811061bca65761bca661e220565b602002602001015194505b63ffffffff841615801561bce45750600087828151811061bcd45761bcd461e220565b602002602001015163ffffffff16115b1561bd065786818151811061bcfb5761bcfb61e220565b602002602001015193505b61bd1f856040518060200160405280600081525061717e565b15801561bd32575060008463ffffffff16115b1561bd3c5761bd4e565b8061bd468161e281565b91505061bbf1565b505b505b8061bd6c57605654600160601b900461ffff16915061bdc4565b6056546001600160801b03891660009081526040602081905290205461bdc19161bdaf91600160601b90910461ffff1690600160801b900463ffffffff1661e785565b63ffffffff168363ffffffff1661d223565b91505b60005b875181101561c5b457600088828151811061bde45761bde461e220565b6020908102919091018101516001600160801b038c166000908152603d835260408082206001600160a01b03841683528452808220546042909452902090925060ff62010000830481169261010090041690811561c44e576001600160a01b0384166000908152604260205260409020805461ffff60c01b1916905585801561be6d5750826001145b8061be8257508515801561be82575082600114155b1561c4005760595460408051632a49798160e11b815290516000926001600160a01b031691635492f302916004808301926020929190829003018186803b15801561becc57600080fd5b505afa15801561bee0573d6000803e3d6000fd5b505050506040513d601f19601f8201168201806040525081019061bf04919061e42f565b90506000605960009054906101000a90046001600160a01b03166001600160a01b0316630855d1516040518163ffffffff1660e01b815260040160206040518083038186803b15801561bf5657600080fd5b505afa15801561bf6a573d6000803e3d6000fd5b505050506040513d601f19601f8201168201806040525081019061bf8e919061e42f565b90506000605960009054906101000a90046001600160a01b03166001600160a01b03166304e76c8f6040518163ffffffff1660e01b815260040160206040518083038186803b15801561bfe057600080fd5b505afa15801561bff4573d6000803e3d6000fd5b505050506040513d601f19601f8201168201806040525081019061c018919061e42f565b6040516308c0a84360e11b81526001600160a01b03898116600483015291925060009185169063118150869060240160206040518083038186803b15801561c05f57600080fd5b505afa15801561c073573d6000803e3d6000fd5b505050506040513d601f19601f8201168201806040525081019061c097919061e42f565b905063ffffffff8b161561c3ae57826001600160a01b0316631b6d990a8c63ffffffff16605960009054906101000a90046001600160a01b03166001600160a01b0316630b08bfd96040518163ffffffff1660e01b815260040160206040518083038186803b15801561c10957600080fd5b505afa15801561c11d573d6000803e3d6000fd5b505050506040513d601f19601f8201168201806040525081019061c141919061e2d3565b61c14b919061e410565b6040516001600160e01b031960e084901b16815260048101919091526001600160a01b038416602482015260006044820152606401602060405180830381600087803b15801561c19a57600080fd5b505af115801561c1ae573d6000803e3d6000fd5b505050506040513d601f19601f8201168201806040525081019061c1d2919061e33b565b61c22c5760405162461bcd60e51b815260206004820152602560248201527f636f756c64206e6f74207265776172642052455020696e2056616c69646174656044820152642c20312e6160d81b6064820152608401611649565b816001600160a01b031663e0ca50948c63ffffffff16605960009054906101000a90046001600160a01b03166001600160a01b031663f80de0a06040518163ffffffff1660e01b815260040160206040518083038186803b15801561c29057600080fd5b505afa15801561c2a4573d6000803e3d6000fd5b505050506040513d601f19601f8201168201806040525081019061c2c8919061e2d3565b61c2d2919061e410565b6040516001600160e01b031960e084901b16815260048101919091526001600160a01b0384166024820152604401602060405180830381600087803b15801561c31a57600080fd5b505af115801561c32e573d6000803e3d6000fd5b505050506040513d601f19601f8201168201806040525081019061c352919061e33b565b61c3ae5760405162461bcd60e51b815260206004820152602760248201527f636f756c64206e6f742072657761726420746f6b656e20696e2056616c6964616044820152663a32961018973160c91b6064820152608401611649565b6001858101805460109061c3d3908490600160801b90046001600160401b031661e733565b92506101000a8154816001600160401b0302191690836001600160401b031602179055505050505061c59d565b6001818101805460189061c425908490600160c01b90046001600160401b031661e733565b92506101000a8154816001600160401b0302191690836001600160401b0316021790555061c59d565b6001600160a01b038416600090815260426020526040902080546001919060189061c485908490600160c01b900461ffff1661e596565b92506101000a81548161ffff021916908361ffff160217905550605960009054906101000a90046001600160a01b03166001600160a01b0316639fb491f66040518163ffffffff1660e01b815260040160206040518083038186803b15801561c4ed57600080fd5b505afa15801561c501573d6000803e3d6000fd5b505050506040513d601f19601f8201168201806040525081019061c525919061e2d3565b6001600160a01b038516600090815260426020526040902054600160c01b900461ffff161061c56b57805460ff60d01b1916815561c5628461a8fa565b61c56b8461a78d565b8054600160d01b900460ff161561c58e5761c5858461a8fa565b61c58e8461d073565b80546001600160801b03191681555b50505050808061c5ac9061e281565b91505061bdc7565b506001600160801b0388166000908152604060208181529120805460ff60e81b1916600160e81b178155845161c5f29260029092019186019061d39b565b506001600160801b0388166000908152604060208190529020805463ffffffff60a01b1916600160a01b63ffffffff851602179055801561ce4d576001600160801b038881166000908152604060208190528120549182169161c66290600160801b900463ffffffff168361e3ee565b9050815b816001600160801b0316816001600160801b0316101561cb5f576001600160801b0381166000908152603f60209081526040808320600101546059548251632a49798160e11b815292516001600160a01b0392831695949190921692635492f3029260048083019392829003018186803b15801561c6e357600080fd5b505afa15801561c6f7573d6000803e3d6000fd5b505050506040513d601f19601f8201168201806040525081019061c71b919061e42f565b90506000605960009054906101000a90046001600160a01b03166001600160a01b0316630855d1516040518163ffffffff1660e01b815260040160206040518083038186803b15801561c76d57600080fd5b505afa15801561c781573d6000803e3d6000fd5b505050506040513d601f19601f8201168201806040525081019061c7a5919061e42f565b90506000605960009054906101000a90046001600160a01b03166001600160a01b03166304e76c8f6040518163ffffffff1660e01b815260040160206040518083038186803b15801561c7f757600080fd5b505afa15801561c80b573d6000803e3d6000fd5b505050506040513d601f19601f8201168201806040525081019061c82f919061e42f565b6040516308c0a84360e11b81526001600160a01b03868116600483015291925060009185169063118150869060240160206040518083038186803b15801561c87657600080fd5b505afa15801561c88a573d6000803e3d6000fd5b505050506040513d601f19601f8201168201806040525081019061c8ae919061e42f565b905063ffffffff8a161561cb4757826001600160a01b0316631b6d990a8b63ffffffff16605960009054906101000a90046001600160a01b03166001600160a01b031663abb10b9b6040518163ffffffff1660e01b815260040160206040518083038186803b15801561c92057600080fd5b505afa15801561c934573d6000803e3d6000fd5b505050506040513d601f19601f8201168201806040525081019061c958919061e2d3565b61c962919061e410565b6040516001600160e01b031960e084901b16815260048101919091526001600160a01b038416602482015260006044820152606401602060405180830381600087803b15801561c9b157600080fd5b505af115801561c9c5573d6000803e3d6000fd5b505050506040513d601f19601f8201168201806040525081019061c9e9919061e33b565b61ca055760405162461bcd60e51b81526004016116499061e476565b816001600160a01b031663e0ca50948b63ffffffff16605960009054906101000a90046001600160a01b03166001600160a01b03166330c0bb796040518163ffffffff1660e01b815260040160206040518083038186803b15801561ca6957600080fd5b505afa15801561ca7d573d6000803e3d6000fd5b505050506040513d601f19601f8201168201806040525081019061caa1919061e2d3565b61caab919061e410565b6040516001600160e01b031960e084901b16815260048101919091526001600160a01b0384166024820152604401602060405180830381600087803b15801561caf357600080fd5b505af115801561cb07573d6000803e3d6000fd5b505050506040513d601f19601f8201168201806040525081019061cb2b919061e33b565b61cb475760405162461bcd60e51b81526004016116499061e4c4565b5050505050808061cb579061e2e5565b91505061c666565b506001600160801b038a81166000908152604060208190529020600301805460ff19166001908117909155604f80549192909160109161cba9918591600160801b9091041661e3ee565b92506101000a8154816001600160801b0302191690836001600160801b03160217905550602060046001600261cbdf919061e410565b61cbe9919061e323565b61cbf3919061e323565b6055600082825461cc04919061e323565b909155505060595460408051637b39b17f60e11b815290516000926001600160a01b03169163f67362fe916004808301926020929190829003018186803b15801561cc4e57600080fd5b505afa15801561cc62573d6000803e3d6000fd5b505050506040513d601f19601f8201168201806040525081019061cc86919061e42f565b6001600160a01b0316141561ccf25760405162461bcd60e51b815260206004820152602c60248201527f436f6d706c69616e636553797374656d206e756c6c20696e20506172616d657460448201526b195c9cc810dbdb9d1c9858dd60a21b6064820152608401611649565b60595460408051637b39b17f60e11b815290516000926001600160a01b03169163f67362fe916004808301926020929190829003018186803b15801561cd3757600080fd5b505afa15801561cd4b573d6000803e3d6000fd5b505050506040513d601f19601f8201168201806040525081019061cd6f919061e42f565b6040516348257dc960e01b81526001600160801b038d1660048201529091506001600160a01b038216906348257dc990602401600060405180830381600087803b15801561cdbc57600080fd5b505af192505050801561cdcd575060015b61ce2c573d80801561cdfb576040519150601f19603f3d011682016040523d82523d6000602084013e61ce00565b606091505b5060008051602061e7cd8339815191528160405161ce1e919061e021565b60405180910390a15061ce45565b60016053600082825461ce3f919061e323565b90915550505b50505061ceaf565b6001600160801b038881166000908152604060208190528120600301805460ff191660021790556050805460019391929161ce8a9185911661e3ee565b92506101000a8154816001600160801b0302191690836001600160801b031602179055505b60016053600082825461cec2919061e323565b90915550506001600160801b03881660009081526040602081905281205460548054600160a01b90920463ffffffff1692909161cf0090849061e323565b90915550506001600160801b038816600090815260406020819052902054600160a01b900463ffffffff16601f61cf396001600f61e30c565b600f811061cf495761cf4961e220565b60020201600101600082825461cf5f919061e323565b9091555061cf6d9050611f43565b6001600160801b0388811660009081526040602081905290205460508054600160c01b90920461ffff1692909160109161cfb1918591600160801b9091041661e3ee565b82546101009290920a6001600160801b0381810219909316918316021790915589811660009081526040602081905281205460518054600160d01b90920461ffff1694509261d0029185911661e3ee565b92506101000a8154816001600160801b0302191690836001600160801b03160217905550876001600160801b03167f98bfbdd7dba62d9141cf4f07139f8e53c0d00c0b44cad36d148730680b162161848360405161d06192919061e7a8565b60405180910390a25050505050505050565b6001600160a01b03811660009081526045602052604090205460ff16611a58576049805460018101825560009182527f37e472f504e93744df80d87316862f9a8fd41a7bc266c723bf77df7866d75f550180546001600160a01b0319166001600160a01b038416179055605580546020929061d0f090849061e323565b90915550506001600160a01b0381166000908152604560205260409020805460ff1916600190811790915560495461d128919061e30c565b6001600160a01b0382166000908152604560205260409020805463ffffffff9290921663010000000266ffffffff0000001990921691909117905550565b600080546001600160a01b038381166001600160a01b0319831681178455604051919092169283917f8be0079c531659141344cd1fd0a4f28419497f9722a3daafe3b4186f6b6457e09190a35050565b6000838360405160200161d1cb92919061e6bb565b60408051601f1981840301815291815281516020928301206000818152603e90935291205490915061d2105760206055600082825461d20a919061e323565b90915550505b6000908152603e60205260409020555050565b600081831061d23257816142fe565b5090919050565b600081831161d23257816142fe565b6001600160a01b038116600090815260456020526040902054610100900460ff16611a5857604a805460018101825560009182527ffcc5ba1a98fc477b8948a04d08c6f4a76181fe75021370ab5e6abd22b1792a2a0180546001600160a01b0319166001600160a01b038416179055605580546020929061d2ca90849061e323565b90915550506001600160a01b0381166000908152604560205260409020805461ff001916610100179055604a5461d3039060019061e30c565b6001600160a01b0382166000908152604560205260409020805463ffffffff92909216600160381b0263ffffffff60381b1990921691909117905550565b6000828260405160200161d35692919061e6bb565b60408051601f1981840301815291815281516020928301206000818152603e845291822082905560558054919450919061d39190849061e30c565b9091555050505050565b82805461d3a79061e236565b90600052602060002090601f01602090048101928261d3c9576000855561d40f565b82601f1061d3e257805160ff191683800117855561d40f565b8280016001018555821561d40f579182015b8281111561d40f57825182559160200191906001019061d3f4565b5061d41b92915061d482565b5090565b5080546000825590600052602060002090810190611a58919061d482565b50611a5890601e81019061d497565b50805461d4589061e236565b6000825580601f1061d468575050565b601f016020900490600052602060002090810190611a5891905b5b8082111561d41b576000815560010161d483565b5b8082111561d41b576000808255600182015560020161d498565b6001600160a01b0381168114611a5857600080fd5b60006020828403121561d4d957600080fd5b81356142fe8161d4b2565b6001600160801b0381168114611a5857600080fd5b60006020828403121561d50b57600080fd5b81356142fe8161d4e4565b60005b8381101561d53157818101518382015260200161d519565b83811115614d0e5750506000910152565b6000815180845261d55a81602086016020860161d516565b601f01601f19169290920160200192915050565b6000602080830181845280855180835260408601915060408160051b870101925083870160005b8281101561d5c357603f1988860301845261d5b185835161d542565b9450928501929085019060010161d595565b5092979650505050505050565b803561ffff81168114613f8d57600080fd5b60006020828403121561d5f457600080fd5b6142fe8261d5d0565b6000806040838503121561d61057600080fd5b50508035926020909101359150565b6020808252825182820181905260009190848201906040850190845b818110156167d35783516001600160a01b03168352928401929184019160010161d63b565b634e487b7160e01b600052602160045260246000fd5b6004811061d69457634e487b7160e01b600052602160045260246000fd5b9052565b6001600160401b03888116825287166020820152600061d6bb604083018861d676565b6001600160a01b038616606083015260e06080830181905261d6df9083018661d542565b82810360a084015261d6f1818661d542565b905082810360c084015261d705818561d542565b9a9950505050505050505050565b6001600160801b038f16815263ffffffff8e811660208301528d16604082015261ffff8c16606082015261ffff8b16608082015289151560a082015288151560c082015287151560e082015261ffff871661010082015261ffff86166101208201526001600160401b0385166101408201526001600160401b0384166101608201526101c0610180820152600061d7ae6101c083018561d542565b905061d7be6101a083018461d676565b9f9e505050505050505050505050505050565b634e487b7160e01b600052604160045260246000fd5b604051601f8201601f191681016001600160401b038111828210171561d80f5761d80f61d7d1565b604052919050565b60006001600160401b0382111561d8305761d83061d7d1565b5060051b60200190565b6000602080838503121561d84d57600080fd5b82356001600160401b0381111561d86357600080fd5b8301601f8101851361d87457600080fd5b803561d88761d8828261d817565b61d7e7565b81815260059190911b8201830190838101908783111561d8a657600080fd5b928401925b82841015614f3c57833561d8be8161d4e4565b8252928401929084019061d8ab565b600082601f83011261d8de57600080fd5b81356001600160401b0381111561d8f75761d8f761d7d1565b61d90a601f8201601f191660200161d7e7565b81815284602083860101111561d91f57600080fd5b816020850160208301376000918101602001919091529392505050565b60008083601f84011261d94e57600080fd5b5081356001600160401b0381111561d96557600080fd5b6020830191508360208260051b850101111561383557600080fd5b80356001600160401b0381168114613f8d57600080fd5b600082601f83011261d9a857600080fd5b8135602061d9b861d8828361d817565b82815260059290921b8401810191818101908684111561d9d757600080fd5b8286015b8481101561d9f95761d9ec8161d980565b835291830191830161d9db565b509695505050505050565b60008060008060006080868803121561da1c57600080fd5b85356001600160401b038082111561da3357600080fd5b818801915088601f83011261da4757600080fd5b8135602061da5761d8828361d817565b82815260059290921b8401810191818101908c84111561da7657600080fd5b8286015b8481101561daae5780358681111561da925760008081fd5b61daa08f86838b010161d8cd565b84525091830191830161da7a565b509950508901359250508082111561dac557600080fd5b61dad189838a0161d93c565b9096509450604088013591508082111561daea57600080fd5b61daf689838a0161d997565b9350606088013591508082111561db0c57600080fd5b5061db198882890161d8cd565b9150509295509295909350565b6000806040838503121561db3957600080fd5b823561db448161d4e4565b9150602083013561db548161d4e4565b809150509250929050565b600081518084526020808501945080840160005b8381101561db985781516001600160801b03168752958201959082019060010161db73565b509495945050505050565b6001600160801b03831681526040602082015260006180c9604083018461db5f565b60006020828403121561dbd757600080fd5b5035919050565b8015158114611a5857600080fd5b6000806040838503121561dbff57600080fd5b823561dc0a8161dbde565b915061dc186020840161d5d0565b90509250929050565b6000806040838503121561dc3457600080fd5b823561dc3f8161d4e4565b9150602083013561db548161d4b2565b8615158152851515602082015260ff8516604082015263ffffffff8416606082015260c06080820152600061dc8760c083018561d542565b82810360a084015261dc99818561d542565b9998505050505050505050565b6000806040838503121561dcb957600080fd5b823561db448161d4b2565b6000806040838503121561dcd757600080fd5b823561dce28161d4b2565b946020939093013593505050565b60008060006060848603121561dd0557600080fd5b833561dd108161d4b2565b925060208401359150604084013561dd278161d4e4565b809150509250925092565b6000806000806080858703121561dd4857600080fd5b843561dd538161d4e4565b9350602085013561dd638161d4e4565b9250604085013561dd738161d4b2565b9396929550929360600135925050565b6000806000806080858703121561dd9957600080fd5b61dda28561d980565b935060208501356001600160401b0381111561ddbd57600080fd5b61ddc98782880161d8cd565b935050604085013560ff8116811461dd7357600080fd5b60006020828403121561ddf257600080fd5b81356142fe8161dbde565b6020815260006001600160401b0380845116602084015280602085015116604084015250604083015161de33606084018261d676565b5060608301516001600160a01b038116608084015250608083015160e060a084015261de6361010084018261d542565b905060a0840151601f19808584030160c086015261de81838361d542565b925060c08601519150808584030160e08601525061de9f828261d542565b95945050505050565b6000806040838503121561debb57600080fd5b8235915060208301356001600160401b0381111561ded857600080fd5b61dee48582860161d8cd565b9150509250929050565b6000806040838503121561df0157600080fd5b82356001600160401b038082111561df1857600080fd5b61df248683870161d8cd565b9350602085013591508082111561df3a57600080fd5b5061dee48582860161d8cd565b6020815260006142fe602083018461db5f565b6020808252825182820181905260009190848201906040850190845b818110156167d35783518352928401929184019160010161df76565b600080600080600060a0868803121561dfaa57600080fd5b853561dfb58161d4e4565b94506020860135935060408601359250606086013563ffffffff8116811461dfdc57600080fd5b915060808601356001600160401b0381111561dff757600080fd5b61db198882890161d8cd565b6000806040838503121561e01657600080fd5b823561dce28161d4e4565b6020815260006142fe602083018461d542565b6000806040838503121561e04757600080fd5b82356001600160401b0381111561e05d57600080fd5b61e0698582860161d8cd565b95602094909401359450505050565b6020815261e0926020820183516001600160801b03169052565b6000602083015161e0ab604084018263ffffffff169052565b50604083015163ffffffff8116606084015250606083015161ffff8116608084015250608083015161ffff811660a08401525060a083015180151560c08401525060c083015180151560e08401525060e083015161010061e10f8185018315159052565b840151905061012061e1268482018361ffff169052565b840151905061014061e13d8482018361ffff169052565b840151905061016061e159848201836001600160401b03169052565b840151905061018061e175848201836001600160401b03169052565b808501519150506101c06101a0818186015261e1956101e086018461d542565b908601519092506188518583018261d676565b60008060006060848603121561e1bd57600080fd5b833561e1c88161d4b2565b9250602084013561e1d88161d4e4565b929592945050506040919091013590565b60208082526017908201527f5f4461746142617463684964206d757374206578697374000000000000000000604082015260600190565b634e487b7160e01b600052603260045260246000fd5b600181811c9082168061e24a57607f821691505b60208210811415613ab157634e487b7160e01b600052602260045260246000fd5b634e487b7160e01b600052601160045260246000fd5b600060001982141561e2955761e29561e26b565b5060010190565b6020808252601f908201527f506172616d6574657273204d616e61676572206d757374206265207365742e00604082015260600190565b60006020828403121561431b57600080fd5b60006001600160801b038083168181141561e3025761e30261e26b565b6001019392505050565b60008282101561e31e5761e31e61e26b565b500390565b6000821982111561e3365761e33661e26b565b500190565b60006020828403121561e34d57600080fd5b81516142fe8161dbde565b60006001600160801b038381169083168181101561e3785761e37861e26b565b039392505050565b6000808335601e1984360301811261e39757600080fd5b8301803591506001600160401b0382111561e3b157600080fd5b60200191503681900382131561383557600080fd5b600063ffffffff80831681851680830382111561e3e55761e3e561e26b565b01949350505050565b60006001600160801b0380831681851680830382111561e3e55761e3e561e26b565b600081600019048311821515161561e42a5761e42a61e26b565b500290565b60006020828403121561e44157600080fd5b81516142fe8161d4b2565b634e487b7160e01b600052601260045260246000fd5b60008261e4715761e47161e44c565b500490565b6020808252602e908201527f636f756c64206e6f74207265776172642052455020696e2056616c696461746560408201526d4461746142617463682c20322e6160901b606082015260800190565b60208082526030908201527f636f756c64206e6f742072657761726420746f6b656e20696e2056616c69646160408201526f3a32a230ba30a130ba31b4161019173160811b606082015260800190565b60408152600061e527604083018561d542565b828103602084015261de9f818561d542565b6020808252601c908201527f496e70757420626f756e6461726965732061726520696e76616c696400000000604082015260600190565b60006001600160801b038084168061e58a5761e58a61e44c565b92169190910492915050565b600061ffff80831681851680830382111561e3e55761e3e561e26b565b600061ffff8083168185168183048111821515161561e5d45761e5d461e26b565b02949350505050565b60006020828403121561e5ef57600080fd5b81516142fe8161d4e4565b60006001600160401b038381169083168181101561e3785761e37861e26b565b600061ffff8381169083168181101561e3785761e37861e26b565b60208082526024908201527f416464726573734d616e61676572206973206e756c6c20696e20506172616d656040820152637465727360e01b606082015260800190565b60208082526022908201527f5374616b654d616e61676572206973206e756c6c20696e20506172616d657465604082015261727360f01b606082015260800190565b8281526000825161e6d381602085016020870161d516565b919091016020019392505050565b6000825161e6f381846020870161d516565b9190910192915050565b60008261e70c5761e70c61e44c565b500690565b60408152600061e724604083018561d542565b90508260208301529392505050565b60006001600160401b0380831681851680830382111561e3e55761e3e561e26b565b634e487b7160e01b600052603160045260246000fd5b600063ffffffff8083168181141561e3025761e30261e26b565b600063ffffffff8083168185168183048111821515161561e5d45761e5d461e26b565b60408152600061e7bb604083018561d542565b90508215156020830152939250505056fe4b87bbd93ba65ede1e2efeca735d9f7a6720bf7d6db0a8355b17dba5b64e5783a2646970667358221220f128e6a4062e212e783010d94861ddb1a94ce173433234701e61b171496191df64736f6c63430008080033",
  "linkReferences": {
    "contracts/worksystems/DataSpotting.sol": {
      "DLL": [
        {
          "length": 20,
          "start": 15677
        },
        {
          "length": 20,
          "start": 15954
        },
        {
          "length": 20,
          "start": 18404
        },
        {
          "length": 20,
          "start": 19416
        },
        {
          "length": 20,
          "start": 19611
        },
        {
          "length": 20,
          "start": 32327
        },
        {
          "length": 20,
          "start": 32518
        }
      ]
    }
  },
  "deployedLinkReferences": {
    "contracts/worksystems/DataSpotting.sol": {
      "DLL": [
        {
          "length": 20,
          "start": 15239
        },
        {
          "length": 20,
          "start": 15516
        },
        {
          "length": 20,
          "start": 17966
        },
        {
          "length": 20,
          "start": 18978
        },
        {
          "length": 20,
          "start": 19173
        },
        {
          "length": 20,
          "start": 31889
        },
        {
          "length": 20,
          "start": 32080
        }
      ]
    }
  }
}