{
  "_format": "hh-sol-artifact-1",
  "contractName": "DataSpotting",
  "sourceName": "contracts/worksystems/DataSpotting.sol",
  "abi": [
    {
      "inputs": [
        {
          "internalType": "address",
          "name": "EXDT_token_",
          "type": "address"
        }
      ],
      "stateMutability": "nonpayable",
      "type": "constructor"
    },
    {
      "anonymous": false,
      "inputs": [
        {
          "indexed": false,
          "internalType": "bytes",
          "name": "bytesFailure",
          "type": "bytes"
        }
      ],
      "name": "BytesFailure",
      "type": "event"
    },
    {
      "anonymous": false,
      "inputs": [
        {
          "indexed": true,
          "internalType": "address",
          "name": "previousOwner",
          "type": "address"
        },
        {
          "indexed": true,
          "internalType": "address",
          "name": "newOwner",
          "type": "address"
        }
      ],
      "name": "OwnershipTransferred",
      "type": "event"
    },
    {
      "anonymous": false,
      "inputs": [
        {
          "indexed": true,
          "internalType": "uint256",
          "name": "batchID",
          "type": "uint256"
        }
      ],
      "name": "_DataBatchDeleted",
      "type": "event"
    },
    {
      "anonymous": false,
      "inputs": [
        {
          "indexed": false,
          "internalType": "string",
          "name": "hash",
          "type": "string"
        },
        {
          "indexed": true,
          "internalType": "address",
          "name": "creator",
          "type": "address"
        }
      ],
      "name": "_SpotAccepted",
      "type": "event"
    },
    {
      "anonymous": false,
      "inputs": [
        {
          "indexed": true,
          "internalType": "uint256",
          "name": "DataID",
          "type": "uint256"
        },
        {
          "indexed": false,
          "internalType": "uint256",
          "name": "numTokens",
          "type": "uint256"
        },
        {
          "indexed": true,
          "internalType": "address",
          "name": "voter",
          "type": "address"
        }
      ],
      "name": "_SpotCheckCommitted",
      "type": "event"
    },
    {
      "anonymous": false,
      "inputs": [
        {
          "indexed": true,
          "internalType": "uint256",
          "name": "DataID",
          "type": "uint256"
        },
        {
          "indexed": false,
          "internalType": "uint256",
          "name": "numTokens",
          "type": "uint256"
        },
        {
          "indexed": false,
          "internalType": "uint256",
          "name": "votesFor",
          "type": "uint256"
        },
        {
          "indexed": false,
          "internalType": "uint256",
          "name": "votesAgainst",
          "type": "uint256"
        },
        {
          "indexed": true,
          "internalType": "uint256",
          "name": "choice",
          "type": "uint256"
        },
        {
          "indexed": true,
          "internalType": "address",
          "name": "voter",
          "type": "address"
        }
      ],
      "name": "_SpotCheckRevealed",
      "type": "event"
    },
    {
      "anonymous": false,
      "inputs": [
        {
          "indexed": true,
          "internalType": "uint256",
          "name": "DataID",
          "type": "uint256"
        },
        {
          "indexed": false,
          "internalType": "string",
          "name": "file_hash",
          "type": "string"
        },
        {
          "indexed": false,
          "internalType": "string",
          "name": "URL_domain",
          "type": "string"
        },
        {
          "indexed": true,
          "internalType": "address",
          "name": "sender",
          "type": "address"
        }
      ],
      "name": "_SpotSubmitted",
      "type": "event"
    },
    {
      "anonymous": false,
      "inputs": [
        {
          "indexed": false,
          "internalType": "uint256",
          "name": "numTokens",
          "type": "uint256"
        },
        {
          "indexed": true,
          "internalType": "address",
          "name": "voter",
          "type": "address"
        }
      ],
      "name": "_StakeAllocated",
      "type": "event"
    },
    {
      "anonymous": false,
      "inputs": [
        {
          "indexed": true,
          "internalType": "uint256",
          "name": "DataID",
          "type": "uint256"
        },
        {
          "indexed": true,
          "internalType": "address",
          "name": "voter",
          "type": "address"
        }
      ],
      "name": "_TokensRescued",
      "type": "event"
    },
    {
      "anonymous": false,
      "inputs": [
        {
          "indexed": false,
          "internalType": "uint256",
          "name": "numTokens",
          "type": "uint256"
        },
        {
          "indexed": true,
          "internalType": "address",
          "name": "voter",
          "type": "address"
        }
      ],
      "name": "_VotingRightsWithdrawn",
      "type": "event"
    },
    {
      "anonymous": false,
      "inputs": [
        {
          "indexed": true,
          "internalType": "uint256",
          "name": "batchID",
          "type": "uint256"
        },
        {
          "indexed": false,
          "internalType": "address",
          "name": "worker",
          "type": "address"
        }
      ],
      "name": "_WorkAllocated",
      "type": "event"
    },
    {
      "anonymous": false,
      "inputs": [
        {
          "indexed": true,
          "internalType": "address",
          "name": "worker",
          "type": "address"
        },
        {
          "indexed": false,
          "internalType": "uint256",
          "name": "timestamp",
          "type": "uint256"
        }
      ],
      "name": "_WorkerRegistered",
      "type": "event"
    },
    {
      "anonymous": false,
      "inputs": [
        {
          "indexed": true,
          "internalType": "address",
          "name": "worker",
          "type": "address"
        },
        {
          "indexed": false,
          "internalType": "uint256",
          "name": "timestamp",
          "type": "uint256"
        }
      ],
      "name": "_WorkerUnregistered",
      "type": "event"
    },
    {
      "inputs": [],
      "name": "AcceptedBatchsCounter",
      "outputs": [
        {
          "internalType": "uint256",
          "name": "",
          "type": "uint256"
        }
      ],
      "stateMutability": "view",
      "type": "function"
    },
    {
      "inputs": [],
      "name": "AddressManager",
      "outputs": [
        {
          "internalType": "contract IAddressManager",
          "name": "",
          "type": "address"
        }
      ],
      "stateMutability": "view",
      "type": "function"
    },
    {
      "inputs": [],
      "name": "AllTxsCounter",
      "outputs": [
        {
          "internalType": "uint256",
          "name": "",
          "type": "uint256"
        }
      ],
      "stateMutability": "view",
      "type": "function"
    },
    {
      "inputs": [],
      "name": "AllocateWork",
      "outputs": [],
      "stateMutability": "nonpayable",
      "type": "function"
    },
    {
      "inputs": [],
      "name": "AllocatedBatchCursor",
      "outputs": [
        {
          "internalType": "uint256",
          "name": "",
          "type": "uint256"
        }
      ],
      "stateMutability": "view",
      "type": "function"
    },
    {
      "inputs": [],
      "name": "AmIRegistered",
      "outputs": [
        {
          "internalType": "bool",
          "name": "passed",
          "type": "bool"
        }
      ],
      "stateMutability": "view",
      "type": "function"
    },
    {
      "inputs": [
        {
          "internalType": "string",
          "name": "_a",
          "type": "string"
        },
        {
          "internalType": "string",
          "name": "_b",
          "type": "string"
        }
      ],
      "name": "AreStringsEqual",
      "outputs": [
        {
          "internalType": "bool",
          "name": "",
          "type": "bool"
        }
      ],
      "stateMutability": "pure",
      "type": "function"
    },
    {
      "inputs": [],
      "name": "BatchCheckingCursor",
      "outputs": [
        {
          "internalType": "uint256",
          "name": "",
          "type": "uint256"
        }
      ],
      "stateMutability": "view",
      "type": "function"
    },
    {
      "inputs": [],
      "name": "BatchDeletionCursor",
      "outputs": [
        {
          "internalType": "uint256",
          "name": "",
          "type": "uint256"
        }
      ],
      "stateMutability": "view",
      "type": "function"
    },
    {
      "inputs": [
        {
          "internalType": "uint256",
          "name": "",
          "type": "uint256"
        }
      ],
      "name": "DataBatch",
      "outputs": [
        {
          "internalType": "uint256",
          "name": "start_idx",
          "type": "uint256"
        },
        {
          "internalType": "uint256",
          "name": "counter",
          "type": "uint256"
        },
        {
          "internalType": "uint256",
          "name": "uncommited_workers",
          "type": "uint256"
        },
        {
          "internalType": "uint256",
          "name": "unrevealed_workers",
          "type": "uint256"
        },
        {
          "internalType": "bool",
          "name": "complete",
          "type": "bool"
        },
        {
          "internalType": "bool",
          "name": "checked",
          "type": "bool"
        },
        {
          "internalType": "bool",
          "name": "allocated_to_work",
          "type": "bool"
        },
        {
          "internalType": "uint256",
          "name": "commitEndDate",
          "type": "uint256"
        },
        {
          "internalType": "uint256",
          "name": "revealEndDate",
          "type": "uint256"
        },
        {
          "internalType": "uint256",
          "name": "votesFor",
          "type": "uint256"
        },
        {
          "internalType": "uint256",
          "name": "votesAgainst",
          "type": "uint256"
        },
        {
          "internalType": "string",
          "name": "batchIPFSfile",
          "type": "string"
        },
        {
          "internalType": "uint256",
          "name": "item_count",
          "type": "uint256"
        },
        {
          "internalType": "enum DataSpotting.DataStatus",
          "name": "status",
          "type": "uint8"
        }
      ],
      "stateMutability": "view",
      "type": "function"
    },
    {
      "inputs": [
        {
          "internalType": "uint256",
          "name": "_DataBatchId",
          "type": "uint256"
        }
      ],
      "name": "DataCommitEndDate",
      "outputs": [
        {
          "internalType": "uint256",
          "name": "commitEndDate",
          "type": "uint256"
        }
      ],
      "stateMutability": "view",
      "type": "function"
    },
    {
      "inputs": [
        {
          "internalType": "uint256",
          "name": "_DataBatchId",
          "type": "uint256"
        }
      ],
      "name": "DataEnded",
      "outputs": [
        {
          "internalType": "bool",
          "name": "ended",
          "type": "bool"
        }
      ],
      "stateMutability": "view",
      "type": "function"
    },
    {
      "inputs": [
        {
          "internalType": "uint256",
          "name": "_DataBatchId",
          "type": "uint256"
        }
      ],
      "name": "DataExists",
      "outputs": [
        {
          "internalType": "bool",
          "name": "exists",
          "type": "bool"
        }
      ],
      "stateMutability": "view",
      "type": "function"
    },
    {
      "inputs": [],
      "name": "DataNonce",
      "outputs": [
        {
          "internalType": "uint256",
          "name": "",
          "type": "uint256"
        }
      ],
      "stateMutability": "view",
      "type": "function"
    },
    {
      "inputs": [
        {
          "internalType": "uint256",
          "name": "_DataBatchId",
          "type": "uint256"
        }
      ],
      "name": "DataRevealEndDate",
      "outputs": [
        {
          "internalType": "uint256",
          "name": "revealEndDate",
          "type": "uint256"
        }
      ],
      "stateMutability": "view",
      "type": "function"
    },
    {
      "inputs": [],
      "name": "FollowingSystem",
      "outputs": [
        {
          "internalType": "contract IFollowingSystem",
          "name": "",
          "type": "address"
        }
      ],
      "stateMutability": "view",
      "type": "function"
    },
    {
      "inputs": [
        {
          "internalType": "address",
          "name": "user_",
          "type": "address"
        }
      ],
      "name": "GetCurrentWork",
      "outputs": [
        {
          "internalType": "uint256",
          "name": "",
          "type": "uint256"
        }
      ],
      "stateMutability": "view",
      "type": "function"
    },
    {
      "inputs": [
        {
          "internalType": "uint256",
          "name": "",
          "type": "uint256"
        }
      ],
      "name": "GlobalSpotFlowManager",
      "outputs": [
        {
          "internalType": "uint256",
          "name": "timestamp",
          "type": "uint256"
        },
        {
          "internalType": "uint256",
          "name": "counter",
          "type": "uint256"
        }
      ],
      "stateMutability": "view",
      "type": "function"
    },
    {
      "inputs": [
        {
          "internalType": "address",
          "name": "user_",
          "type": "address"
        }
      ],
      "name": "IsNewWorkAvailable",
      "outputs": [
        {
          "internalType": "bool",
          "name": "",
          "type": "bool"
        }
      ],
      "stateMutability": "view",
      "type": "function"
    },
    {
      "inputs": [],
      "name": "LastAllocationTime",
      "outputs": [
        {
          "internalType": "uint256",
          "name": "",
          "type": "uint256"
        }
      ],
      "stateMutability": "view",
      "type": "function"
    },
    {
      "inputs": [],
      "name": "LastBatchCounter",
      "outputs": [
        {
          "internalType": "uint256",
          "name": "",
          "type": "uint256"
        }
      ],
      "stateMutability": "view",
      "type": "function"
    },
    {
      "inputs": [
        {
          "internalType": "address",
          "name": "",
          "type": "address"
        },
        {
          "internalType": "uint256",
          "name": "",
          "type": "uint256"
        }
      ],
      "name": "MasterWorkers",
      "outputs": [
        {
          "internalType": "address",
          "name": "",
          "type": "address"
        }
      ],
      "stateMutability": "view",
      "type": "function"
    },
    {
      "inputs": [],
      "name": "NotCommitedCounter",
      "outputs": [
        {
          "internalType": "uint256",
          "name": "",
          "type": "uint256"
        }
      ],
      "stateMutability": "view",
      "type": "function"
    },
    {
      "inputs": [],
      "name": "NotRevealedCounter",
      "outputs": [
        {
          "internalType": "uint256",
          "name": "",
          "type": "uint256"
        }
      ],
      "stateMutability": "view",
      "type": "function"
    },
    {
      "inputs": [],
      "name": "Parameters",
      "outputs": [
        {
          "internalType": "contract IParametersManager",
          "name": "",
          "type": "address"
        }
      ],
      "stateMutability": "view",
      "type": "function"
    },
    {
      "inputs": [],
      "name": "RegisterWorker",
      "outputs": [],
      "stateMutability": "nonpayable",
      "type": "function"
    },
    {
      "inputs": [],
      "name": "RejectedBatchsCounter",
      "outputs": [
        {
          "internalType": "uint256",
          "name": "",
          "type": "uint256"
        }
      ],
      "stateMutability": "view",
      "type": "function"
    },
    {
      "inputs": [],
      "name": "RepManager",
      "outputs": [
        {
          "internalType": "contract IRepManager",
          "name": "",
          "type": "address"
        }
      ],
      "stateMutability": "view",
      "type": "function"
    },
    {
      "inputs": [],
      "name": "RewardManager",
      "outputs": [
        {
          "internalType": "contract IRewardManager",
          "name": "",
          "type": "address"
        }
      ],
      "stateMutability": "view",
      "type": "function"
    },
    {
      "inputs": [],
      "name": "SPOT_TOGGLE_ENABLED",
      "outputs": [
        {
          "internalType": "bool",
          "name": "",
          "type": "bool"
        }
      ],
      "stateMutability": "view",
      "type": "function"
    },
    {
      "inputs": [
        {
          "internalType": "address",
          "name": "_worker",
          "type": "address"
        }
      ],
      "name": "SelectAddressForUser",
      "outputs": [
        {
          "internalType": "address",
          "name": "",
          "type": "address"
        }
      ],
      "stateMutability": "view",
      "type": "function"
    },
    {
      "inputs": [
        {
          "internalType": "string[]",
          "name": "file_hashs",
          "type": "string[]"
        },
        {
          "internalType": "string[]",
          "name": "URL_domains",
          "type": "string[]"
        },
        {
          "internalType": "uint256",
          "name": "item_count_",
          "type": "uint256"
        },
        {
          "internalType": "string",
          "name": "extra_",
          "type": "string"
        }
      ],
      "name": "SpotData",
      "outputs": [
        {
          "internalType": "uint256",
          "name": "Dataid_",
          "type": "uint256"
        }
      ],
      "stateMutability": "nonpayable",
      "type": "function"
    },
    {
      "inputs": [
        {
          "internalType": "address",
          "name": "",
          "type": "address"
        }
      ],
      "name": "SpotStakedTokenBalance",
      "outputs": [
        {
          "internalType": "uint256",
          "name": "",
          "type": "uint256"
        }
      ],
      "stateMutability": "view",
      "type": "function"
    },
    {
      "inputs": [
        {
          "internalType": "uint256",
          "name": "",
          "type": "uint256"
        }
      ],
      "name": "SpotsMapping",
      "outputs": [
        {
          "internalType": "string",
          "name": "ipfs_hash",
          "type": "string"
        },
        {
          "internalType": "address",
          "name": "author",
          "type": "address"
        },
        {
          "internalType": "uint256",
          "name": "timestamp",
          "type": "uint256"
        },
        {
          "internalType": "uint256",
          "name": "item_count",
          "type": "uint256"
        },
        {
          "internalType": "string",
          "name": "URL_domain",
          "type": "string"
        },
        {
          "internalType": "string",
          "name": "extra",
          "type": "string"
        },
        {
          "internalType": "enum DataSpotting.DataStatus",
          "name": "status",
          "type": "uint8"
        }
      ],
      "stateMutability": "view",
      "type": "function"
    },
    {
      "inputs": [],
      "name": "StakeManager",
      "outputs": [
        {
          "internalType": "contract IStakeManager",
          "name": "",
          "type": "address"
        }
      ],
      "stateMutability": "view",
      "type": "function"
    },
    {
      "inputs": [],
      "name": "TriggerUpdate",
      "outputs": [],
      "stateMutability": "nonpayable",
      "type": "function"
    },
    {
      "inputs": [],
      "name": "UnregisterWorker",
      "outputs": [],
      "stateMutability": "nonpayable",
      "type": "function"
    },
    {
      "inputs": [
        {
          "internalType": "uint256",
          "name": "",
          "type": "uint256"
        },
        {
          "internalType": "address",
          "name": "",
          "type": "address"
        }
      ],
      "name": "UserBatchCounts",
      "outputs": [
        {
          "internalType": "uint256",
          "name": "",
          "type": "uint256"
        }
      ],
      "stateMutability": "view",
      "type": "function"
    },
    {
      "inputs": [
        {
          "internalType": "uint256",
          "name": "",
          "type": "uint256"
        },
        {
          "internalType": "address",
          "name": "",
          "type": "address"
        }
      ],
      "name": "UserBatchFrom",
      "outputs": [
        {
          "internalType": "string",
          "name": "",
          "type": "string"
        }
      ],
      "stateMutability": "view",
      "type": "function"
    },
    {
      "inputs": [
        {
          "internalType": "address",
          "name": "",
          "type": "address"
        },
        {
          "internalType": "uint256",
          "name": "",
          "type": "uint256"
        }
      ],
      "name": "UserChecksCommits",
      "outputs": [
        {
          "internalType": "bool",
          "name": "",
          "type": "bool"
        }
      ],
      "stateMutability": "view",
      "type": "function"
    },
    {
      "inputs": [
        {
          "internalType": "address",
          "name": "",
          "type": "address"
        },
        {
          "internalType": "uint256",
          "name": "",
          "type": "uint256"
        }
      ],
      "name": "UserChecksReveals",
      "outputs": [
        {
          "internalType": "bool",
          "name": "",
          "type": "bool"
        }
      ],
      "stateMutability": "view",
      "type": "function"
    },
    {
      "inputs": [
        {
          "internalType": "uint256",
          "name": "",
          "type": "uint256"
        },
        {
          "internalType": "address",
          "name": "",
          "type": "address"
        }
      ],
      "name": "UserNewFiles",
      "outputs": [
        {
          "internalType": "string",
          "name": "",
          "type": "string"
        }
      ],
      "stateMutability": "view",
      "type": "function"
    },
    {
      "inputs": [
        {
          "internalType": "address",
          "name": "",
          "type": "address"
        },
        {
          "internalType": "uint256",
          "name": "",
          "type": "uint256"
        }
      ],
      "name": "UserSubmissions",
      "outputs": [
        {
          "internalType": "uint256",
          "name": "",
          "type": "uint256"
        }
      ],
      "stateMutability": "view",
      "type": "function"
    },
    {
      "inputs": [
        {
          "internalType": "uint256",
          "name": "",
          "type": "uint256"
        },
        {
          "internalType": "address",
          "name": "",
          "type": "address"
        }
      ],
      "name": "UserVotes",
      "outputs": [
        {
          "internalType": "uint256",
          "name": "",
          "type": "uint256"
        }
      ],
      "stateMutability": "view",
      "type": "function"
    },
    {
      "inputs": [
        {
          "internalType": "uint256",
          "name": "",
          "type": "uint256"
        },
        {
          "internalType": "uint256",
          "name": "",
          "type": "uint256"
        }
      ],
      "name": "WorkersPerBatch",
      "outputs": [
        {
          "internalType": "address",
          "name": "",
          "type": "address"
        }
      ],
      "stateMutability": "view",
      "type": "function"
    },
    {
      "inputs": [
        {
          "internalType": "address",
          "name": "",
          "type": "address"
        },
        {
          "internalType": "uint256",
          "name": "",
          "type": "uint256"
        }
      ],
      "name": "WorkersSpotFlowManager",
      "outputs": [
        {
          "internalType": "uint256",
          "name": "timestamp",
          "type": "uint256"
        },
        {
          "internalType": "uint256",
          "name": "counter",
          "type": "uint256"
        }
      ],
      "stateMutability": "view",
      "type": "function"
    },
    {
      "inputs": [
        {
          "internalType": "address",
          "name": "",
          "type": "address"
        }
      ],
      "name": "WorkersState",
      "outputs": [
        {
          "internalType": "address",
          "name": "worker_address",
          "type": "address"
        },
        {
          "internalType": "uint256",
          "name": "allocated_work_batch",
          "type": "uint256"
        },
        {
          "internalType": "bool",
          "name": "has_completed_work",
          "type": "bool"
        },
        {
          "internalType": "uint256",
          "name": "succeeding_novote_count",
          "type": "uint256"
        },
        {
          "internalType": "uint256",
          "name": "last_interaction_date",
          "type": "uint256"
        },
        {
          "internalType": "bool",
          "name": "registered",
          "type": "bool"
        },
        {
          "internalType": "bool",
          "name": "unregistration_request",
          "type": "bool"
        },
        {
          "internalType": "uint256",
          "name": "registration_date",
          "type": "uint256"
        },
        {
          "internalType": "uint256",
          "name": "majority_counter",
          "type": "uint256"
        },
        {
          "internalType": "uint256",
          "name": "minority_counter",
          "type": "uint256"
        }
      ],
      "stateMutability": "view",
      "type": "function"
    },
    {
      "inputs": [
        {
          "internalType": "address",
          "name": "_user",
          "type": "address"
        },
        {
          "internalType": "uint256",
          "name": "_DataBatchId",
          "type": "uint256"
        }
      ],
      "name": "attrUUID",
      "outputs": [
        {
          "internalType": "bytes32",
          "name": "UUID",
          "type": "bytes32"
        }
      ],
      "stateMutability": "pure",
      "type": "function"
    },
    {
      "inputs": [
        {
          "internalType": "uint256",
          "name": "",
          "type": "uint256"
        }
      ],
      "name": "availableWorkers",
      "outputs": [
        {
          "internalType": "address",
          "name": "",
          "type": "address"
        }
      ],
      "stateMutability": "view",
      "type": "function"
    },
    {
      "inputs": [
        {
          "internalType": "uint256",
          "name": "",
          "type": "uint256"
        }
      ],
      "name": "busyWorkers",
      "outputs": [
        {
          "internalType": "address",
          "name": "",
          "type": "address"
        }
      ],
      "stateMutability": "view",
      "type": "function"
    },
    {
      "inputs": [
        {
          "internalType": "uint256",
          "name": "_DataBatchId",
          "type": "uint256"
        }
      ],
      "name": "commitPeriodActive",
      "outputs": [
        {
          "internalType": "bool",
          "name": "active",
          "type": "bool"
        }
      ],
      "stateMutability": "view",
      "type": "function"
    },
    {
      "inputs": [
        {
          "internalType": "uint256",
          "name": "_DataBatchId",
          "type": "uint256"
        },
        {
          "internalType": "bytes32",
          "name": "_secretHash",
          "type": "bytes32"
        },
        {
          "internalType": "string",
          "name": "newIPFSHash",
          "type": "string"
        },
        {
          "internalType": "uint256",
          "name": "_BatchCount",
          "type": "uint256"
        },
        {
          "internalType": "string",
          "name": "_From",
          "type": "string"
        }
      ],
      "name": "commitSpotCheck",
      "outputs": [],
      "stateMutability": "nonpayable",
      "type": "function"
    },
    {
      "inputs": [
        {
          "internalType": "uint256",
          "name": "_DataId",
          "type": "uint256"
        }
      ],
      "name": "deleteData",
      "outputs": [],
      "stateMutability": "nonpayable",
      "type": "function"
    },
    {
      "inputs": [
        {
          "internalType": "uint256",
          "name": "_BatchId",
          "type": "uint256"
        }
      ],
      "name": "deleteDataBatch",
      "outputs": [],
      "stateMutability": "nonpayable",
      "type": "function"
    },
    {
      "inputs": [],
      "name": "destroyContract",
      "outputs": [],
      "stateMutability": "nonpayable",
      "type": "function"
    },
    {
      "inputs": [
        {
          "internalType": "address",
          "name": "_voter",
          "type": "address"
        },
        {
          "internalType": "uint256",
          "name": "_DataBatchId",
          "type": "uint256"
        }
      ],
      "name": "didCommit",
      "outputs": [
        {
          "internalType": "bool",
          "name": "committed",
          "type": "bool"
        }
      ],
      "stateMutability": "view",
      "type": "function"
    },
    {
      "inputs": [
        {
          "internalType": "address",
          "name": "_voter",
          "type": "address"
        },
        {
          "internalType": "uint256",
          "name": "_DataBatchId",
          "type": "uint256"
        }
      ],
      "name": "didReveal",
      "outputs": [
        {
          "internalType": "bool",
          "name": "revealed",
          "type": "bool"
        }
      ],
      "stateMutability": "view",
      "type": "function"
    },
    {
      "inputs": [
        {
          "internalType": "uint256",
          "name": "_k",
          "type": "uint256"
        },
        {
          "internalType": "uint256",
          "name": "N_range",
          "type": "uint256"
        }
      ],
      "name": "generateIntegers",
      "outputs": [
        {
          "internalType": "uint256[]",
          "name": "",
          "type": "uint256[]"
        }
      ],
      "stateMutability": "view",
      "type": "function"
    },
    {
      "inputs": [],
      "name": "getAcceptedBatchesCount",
      "outputs": [
        {
          "internalType": "uint256",
          "name": "count",
          "type": "uint256"
        }
      ],
      "stateMutability": "view",
      "type": "function"
    },
    {
      "inputs": [],
      "name": "getActiveWorkersCount",
      "outputs": [
        {
          "internalType": "uint256",
          "name": "numWorkers",
          "type": "uint256"
        }
      ],
      "stateMutability": "view",
      "type": "function"
    },
    {
      "inputs": [],
      "name": "getAvailableWorkersCount",
      "outputs": [
        {
          "internalType": "uint256",
          "name": "numWorkers",
          "type": "uint256"
        }
      ],
      "stateMutability": "view",
      "type": "function"
    },
    {
      "inputs": [
        {
          "internalType": "uint256",
          "name": "_DataBatchId",
          "type": "uint256"
        }
      ],
      "name": "getBatchByID",
      "outputs": [
        {
          "components": [
            {
              "internalType": "uint256",
              "name": "start_idx",
              "type": "uint256"
            },
            {
              "internalType": "uint256",
              "name": "counter",
              "type": "uint256"
            },
            {
              "internalType": "uint256",
              "name": "uncommited_workers",
              "type": "uint256"
            },
            {
              "internalType": "uint256",
              "name": "unrevealed_workers",
              "type": "uint256"
            },
            {
              "internalType": "bool",
              "name": "complete",
              "type": "bool"
            },
            {
              "internalType": "bool",
              "name": "checked",
              "type": "bool"
            },
            {
              "internalType": "bool",
              "name": "allocated_to_work",
              "type": "bool"
            },
            {
              "internalType": "uint256",
              "name": "commitEndDate",
              "type": "uint256"
            },
            {
              "internalType": "uint256",
              "name": "revealEndDate",
              "type": "uint256"
            },
            {
              "internalType": "uint256",
              "name": "votesFor",
              "type": "uint256"
            },
            {
              "internalType": "uint256",
              "name": "votesAgainst",
              "type": "uint256"
            },
            {
              "internalType": "string",
              "name": "batchIPFSfile",
              "type": "string"
            },
            {
              "internalType": "uint256",
              "name": "item_count",
              "type": "uint256"
            },
            {
              "internalType": "enum DataSpotting.DataStatus",
              "name": "status",
              "type": "uint8"
            }
          ],
          "internalType": "struct DataSpotting.BatchMetadata",
          "name": "batch",
          "type": "tuple"
        }
      ],
      "stateMutability": "view",
      "type": "function"
    },
    {
      "inputs": [
        {
          "internalType": "uint256",
          "name": "_DataBatchId",
          "type": "uint256"
        }
      ],
      "name": "getBatchIPFSFileByID",
      "outputs": [
        {
          "internalType": "string",
          "name": "batch",
          "type": "string"
        }
      ],
      "stateMutability": "view",
      "type": "function"
    },
    {
      "inputs": [],
      "name": "getBusyWorkersCount",
      "outputs": [
        {
          "internalType": "uint256",
          "name": "numWorkers",
          "type": "uint256"
        }
      ],
      "stateMutability": "view",
      "type": "function"
    },
    {
      "inputs": [
        {
          "internalType": "address",
          "name": "_voter",
          "type": "address"
        },
        {
          "internalType": "uint256",
          "name": "_DataBatchId",
          "type": "uint256"
        }
      ],
      "name": "getCommitHash",
      "outputs": [
        {
          "internalType": "bytes32",
          "name": "commitHash",
          "type": "bytes32"
        }
      ],
      "stateMutability": "view",
      "type": "function"
    },
    {
      "inputs": [
        {
          "internalType": "uint256",
          "name": "_DataId",
          "type": "uint256"
        }
      ],
      "name": "getDataByID",
      "outputs": [
        {
          "components": [
            {
              "internalType": "string",
              "name": "ipfs_hash",
              "type": "string"
            },
            {
              "internalType": "address",
              "name": "author",
              "type": "address"
            },
            {
              "internalType": "uint256",
              "name": "timestamp",
              "type": "uint256"
            },
            {
              "internalType": "uint256",
              "name": "item_count",
              "type": "uint256"
            },
            {
              "internalType": "string",
              "name": "URL_domain",
              "type": "string"
            },
            {
              "internalType": "string",
              "name": "extra",
              "type": "string"
            },
            {
              "internalType": "enum DataSpotting.DataStatus",
              "name": "status",
              "type": "uint8"
            }
          ],
          "internalType": "struct DataSpotting.SpottedData",
          "name": "data",
          "type": "tuple"
        }
      ],
      "stateMutability": "view",
      "type": "function"
    },
    {
      "inputs": [
        {
          "internalType": "uint256",
          "name": "_DataBatchId",
          "type": "uint256"
        }
      ],
      "name": "getDomainsForBatch",
      "outputs": [
        {
          "internalType": "string[]",
          "name": "",
          "type": "string[]"
        }
      ],
      "stateMutability": "view",
      "type": "function"
    },
    {
      "inputs": [
        {
          "internalType": "uint256",
          "name": "_voteOption",
          "type": "uint256"
        },
        {
          "internalType": "uint256",
          "name": "_salt",
          "type": "uint256"
        }
      ],
      "name": "getEncryptedHash",
      "outputs": [
        {
          "internalType": "bytes32",
          "name": "keccak256hash",
          "type": "bytes32"
        }
      ],
      "stateMutability": "pure",
      "type": "function"
    },
    {
      "inputs": [
        {
          "internalType": "string",
          "name": "_hash",
          "type": "string"
        },
        {
          "internalType": "uint256",
          "name": "_salt",
          "type": "uint256"
        }
      ],
      "name": "getEncryptedStringHash",
      "outputs": [
        {
          "internalType": "bytes32",
          "name": "keccak256hash",
          "type": "bytes32"
        }
      ],
      "stateMutability": "pure",
      "type": "function"
    },
    {
      "inputs": [
        {
          "internalType": "uint256",
          "name": "_DataBatchId",
          "type": "uint256"
        }
      ],
      "name": "getFromsForBatch",
      "outputs": [
        {
          "internalType": "string[]",
          "name": "",
          "type": "string[]"
        }
      ],
      "stateMutability": "view",
      "type": "function"
    },
    {
      "inputs": [],
      "name": "getGlobalPeriodSpotCount",
      "outputs": [
        {
          "internalType": "uint256",
          "name": "",
          "type": "uint256"
        }
      ],
      "stateMutability": "view",
      "type": "function"
    },
    {
      "inputs": [
        {
          "internalType": "uint256",
          "name": "_DataBatchId",
          "type": "uint256"
        }
      ],
      "name": "getIPFShashesForBatch",
      "outputs": [
        {
          "internalType": "string[]",
          "name": "",
          "type": "string[]"
        }
      ],
      "stateMutability": "view",
      "type": "function"
    },
    {
      "inputs": [
        {
          "internalType": "address",
          "name": "_voter",
          "type": "address"
        },
        {
          "internalType": "uint256",
          "name": "_numTokens",
          "type": "uint256"
        },
        {
          "internalType": "uint256",
          "name": "_DataBatchId",
          "type": "uint256"
        }
      ],
      "name": "getInsertPointForNumTokens",
      "outputs": [
        {
          "internalType": "uint256",
          "name": "prevNode",
          "type": "uint256"
        }
      ],
      "stateMutability": "view",
      "type": "function"
    },
    {
      "inputs": [],
      "name": "getLastAllocatedBatchId",
      "outputs": [
        {
          "internalType": "uint256",
          "name": "LastAllocatedBatchId",
          "type": "uint256"
        }
      ],
      "stateMutability": "view",
      "type": "function"
    },
    {
      "inputs": [],
      "name": "getLastBatchId",
      "outputs": [
        {
          "internalType": "uint256",
          "name": "LastBatchId",
          "type": "uint256"
        }
      ],
      "stateMutability": "view",
      "type": "function"
    },
    {
      "inputs": [],
      "name": "getLastCheckedBatchId",
      "outputs": [
        {
          "internalType": "uint256",
          "name": "LastCheckedBatchId",
          "type": "uint256"
        }
      ],
      "stateMutability": "view",
      "type": "function"
    },
    {
      "inputs": [],
      "name": "getLastDataId",
      "outputs": [
        {
          "internalType": "uint256",
          "name": "DataId",
          "type": "uint256"
        }
      ],
      "stateMutability": "view",
      "type": "function"
    },
    {
      "inputs": [
        {
          "internalType": "address",
          "name": "_voter",
          "type": "address"
        }
      ],
      "name": "getLastNode",
      "outputs": [
        {
          "internalType": "uint256",
          "name": "DataID",
          "type": "uint256"
        }
      ],
      "stateMutability": "view",
      "type": "function"
    },
    {
      "inputs": [
        {
          "internalType": "address",
          "name": "_voter",
          "type": "address"
        }
      ],
      "name": "getLockedTokens",
      "outputs": [
        {
          "internalType": "uint256",
          "name": "numTokens",
          "type": "uint256"
        }
      ],
      "stateMutability": "view",
      "type": "function"
    },
    {
      "inputs": [
        {
          "internalType": "address",
          "name": "_voter",
          "type": "address"
        },
        {
          "internalType": "uint256",
          "name": "_DataBatchId",
          "type": "uint256"
        },
        {
          "internalType": "uint256",
          "name": "_salt",
          "type": "uint256"
        }
      ],
      "name": "getNumPassingTokens",
      "outputs": [
        {
          "internalType": "uint256",
          "name": "correctSpotChecks",
          "type": "uint256"
        }
      ],
      "stateMutability": "view",
      "type": "function"
    },
    {
      "inputs": [
        {
          "internalType": "address",
          "name": "_voter",
          "type": "address"
        },
        {
          "internalType": "uint256",
          "name": "_DataBatchId",
          "type": "uint256"
        }
      ],
      "name": "getNumTokens",
      "outputs": [
        {
          "internalType": "uint256",
          "name": "numTokens",
          "type": "uint256"
        }
      ],
      "stateMutability": "view",
      "type": "function"
    },
    {
      "inputs": [],
      "name": "getRandom",
      "outputs": [
        {
          "internalType": "uint256",
          "name": "",
          "type": "uint256"
        }
      ],
      "stateMutability": "view",
      "type": "function"
    },
    {
      "inputs": [],
      "name": "getRejectedBatchesCount",
      "outputs": [
        {
          "internalType": "uint256",
          "name": "count",
          "type": "uint256"
        }
      ],
      "stateMutability": "view",
      "type": "function"
    },
    {
      "inputs": [],
      "name": "getSeed",
      "outputs": [
        {
          "internalType": "bytes32",
          "name": "addr",
          "type": "bytes32"
        }
      ],
      "stateMutability": "view",
      "type": "function"
    },
    {
      "inputs": [
        {
          "internalType": "uint256",
          "name": "_DataBatchId",
          "type": "uint256"
        }
      ],
      "name": "getSubmittedFilesForBatch",
      "outputs": [
        {
          "internalType": "string[]",
          "name": "",
          "type": "string[]"
        }
      ],
      "stateMutability": "view",
      "type": "function"
    },
    {
      "inputs": [
        {
          "internalType": "address",
          "name": "_user",
          "type": "address"
        }
      ],
      "name": "getSystemTokenBalance",
      "outputs": [
        {
          "internalType": "uint256",
          "name": "tokens",
          "type": "uint256"
        }
      ],
      "stateMutability": "view",
      "type": "function"
    },
    {
      "inputs": [],
      "name": "getTxCounter",
      "outputs": [
        {
          "internalType": "uint256",
          "name": "Counter",
          "type": "uint256"
        }
      ],
      "stateMutability": "view",
      "type": "function"
    },
    {
      "inputs": [
        {
          "internalType": "address",
          "name": "user",
          "type": "address"
        }
      ],
      "name": "getUserDatas",
      "outputs": [
        {
          "internalType": "uint256[]",
          "name": "user_Datas",
          "type": "uint256[]"
        }
      ],
      "stateMutability": "view",
      "type": "function"
    },
    {
      "inputs": [
        {
          "internalType": "address",
          "name": "user_",
          "type": "address"
        }
      ],
      "name": "getUserPeriodSpotCount",
      "outputs": [
        {
          "internalType": "uint256",
          "name": "",
          "type": "uint256"
        }
      ],
      "stateMutability": "view",
      "type": "function"
    },
    {
      "inputs": [
        {
          "internalType": "uint256",
          "name": "_DataBatchId",
          "type": "uint256"
        }
      ],
      "name": "getVotesForBatch",
      "outputs": [
        {
          "internalType": "uint256[]",
          "name": "",
          "type": "uint256[]"
        }
      ],
      "stateMutability": "view",
      "type": "function"
    },
    {
      "inputs": [
        {
          "internalType": "uint256",
          "name": "_terminationDate",
          "type": "uint256"
        }
      ],
      "name": "isExpired",
      "outputs": [
        {
          "internalType": "bool",
          "name": "expired",
          "type": "bool"
        }
      ],
      "stateMutability": "view",
      "type": "function"
    },
    {
      "inputs": [
        {
          "internalType": "uint256",
          "name": "_DataBatchId",
          "type": "uint256"
        }
      ],
      "name": "isPassed",
      "outputs": [
        {
          "internalType": "bool",
          "name": "passed",
          "type": "bool"
        }
      ],
      "stateMutability": "view",
      "type": "function"
    },
    {
      "inputs": [
        {
          "internalType": "uint256",
          "name": "_DataBatchId",
          "type": "uint256"
        },
        {
          "internalType": "address",
          "name": "_worker",
          "type": "address"
        }
      ],
      "name": "isWorkerAllocatedToBatch",
      "outputs": [
        {
          "internalType": "bool",
          "name": "",
          "type": "bool"
        }
      ],
      "stateMutability": "view",
      "type": "function"
    },
    {
      "inputs": [
        {
          "internalType": "address",
          "name": "_worker",
          "type": "address"
        }
      ],
      "name": "isWorkerRegistered",
      "outputs": [
        {
          "internalType": "bool",
          "name": "passed",
          "type": "bool"
        }
      ],
      "stateMutability": "view",
      "type": "function"
    },
    {
      "inputs": [],
      "name": "owner",
      "outputs": [
        {
          "internalType": "address",
          "name": "",
          "type": "address"
        }
      ],
      "stateMutability": "view",
      "type": "function"
    },
    {
      "inputs": [
        {
          "internalType": "uint256",
          "name": "k",
          "type": "uint256"
        },
        {
          "internalType": "uint256",
          "name": "N",
          "type": "uint256"
        }
      ],
      "name": "random_selection",
      "outputs": [
        {
          "internalType": "uint256[]",
          "name": "",
          "type": "uint256[]"
        }
      ],
      "stateMutability": "view",
      "type": "function"
    },
    {
      "inputs": [],
      "name": "renounceOwnership",
      "outputs": [],
      "stateMutability": "nonpayable",
      "type": "function"
    },
    {
      "inputs": [
        {
          "internalType": "uint256",
          "name": "_DataBatchId",
          "type": "uint256"
        }
      ],
      "name": "rescueTokens",
      "outputs": [],
      "stateMutability": "nonpayable",
      "type": "function"
    },
    {
      "inputs": [
        {
          "internalType": "uint256[]",
          "name": "_DataBatchIDs",
          "type": "uint256[]"
        }
      ],
      "name": "rescueTokensInMultipleDatas",
      "outputs": [],
      "stateMutability": "nonpayable",
      "type": "function"
    },
    {
      "inputs": [
        {
          "internalType": "uint256",
          "name": "_DataBatchId",
          "type": "uint256"
        }
      ],
      "name": "revealPeriodActive",
      "outputs": [
        {
          "internalType": "bool",
          "name": "active",
          "type": "bool"
        }
      ],
      "stateMutability": "view",
      "type": "function"
    },
    {
      "inputs": [
        {
          "internalType": "uint256",
          "name": "_DataBatchId",
          "type": "uint256"
        },
        {
          "internalType": "uint256",
          "name": "_voteOption",
          "type": "uint256"
        },
        {
          "internalType": "uint256",
          "name": "_salt",
          "type": "uint256"
        }
      ],
      "name": "revealSpotCheck",
      "outputs": [],
      "stateMutability": "nonpayable",
      "type": "function"
    },
    {
      "inputs": [
        {
          "internalType": "uint256",
          "name": "N",
          "type": "uint256"
        }
      ],
      "name": "shuffle_array",
      "outputs": [
        {
          "internalType": "uint256[]",
          "name": "",
          "type": "uint256[]"
        }
      ],
      "stateMutability": "view",
      "type": "function"
    },
    {
      "inputs": [
        {
          "internalType": "uint256",
          "name": "",
          "type": "uint256"
        }
      ],
      "name": "toUnregisterWorkers",
      "outputs": [
        {
          "internalType": "address",
          "name": "",
          "type": "address"
        }
      ],
      "stateMutability": "view",
      "type": "function"
    },
    {
      "inputs": [],
      "name": "token",
      "outputs": [
        {
          "internalType": "contract IERC20",
          "name": "",
          "type": "address"
        }
      ],
      "stateMutability": "view",
      "type": "function"
    },
    {
      "inputs": [
        {
          "internalType": "address",
          "name": "newOwner",
          "type": "address"
        }
      ],
      "name": "transferOwnership",
      "outputs": [],
      "stateMutability": "nonpayable",
      "type": "function"
    },
    {
      "inputs": [
        {
          "internalType": "address",
          "name": "addr",
          "type": "address"
        }
      ],
      "name": "updateAddressManager",
      "outputs": [],
      "stateMutability": "nonpayable",
      "type": "function"
    },
    {
      "inputs": [
        {
          "internalType": "uint256",
          "name": "AllocatedBatchCursor_",
          "type": "uint256"
        }
      ],
      "name": "updateAllocatedBatchCursor",
      "outputs": [],
      "stateMutability": "nonpayable",
      "type": "function"
    },
    {
      "inputs": [
        {
          "internalType": "uint256",
          "name": "BatchCheckingCursor_",
          "type": "uint256"
        }
      ],
      "name": "updateBatchCheckingCursor",
      "outputs": [],
      "stateMutability": "nonpayable",
      "type": "function"
    },
    {
      "inputs": [
        {
          "internalType": "address",
          "name": "addr",
          "type": "address"
        }
      ],
      "name": "updateFollowingSystem",
      "outputs": [],
      "stateMutability": "nonpayable",
      "type": "function"
    },
    {
      "inputs": [],
      "name": "updateGlobalSpotFlow",
      "outputs": [],
      "stateMutability": "nonpayable",
      "type": "function"
    },
    {
      "inputs": [
        {
          "internalType": "address",
          "name": "addr",
          "type": "address"
        }
      ],
      "name": "updateParametersManager",
      "outputs": [],
      "stateMutability": "nonpayable",
      "type": "function"
    },
    {
      "inputs": [
        {
          "internalType": "address",
          "name": "addr",
          "type": "address"
        }
      ],
      "name": "updateRepManager",
      "outputs": [],
      "stateMutability": "nonpayable",
      "type": "function"
    },
    {
      "inputs": [
        {
          "internalType": "address",
          "name": "addr",
          "type": "address"
        }
      ],
      "name": "updateRewardManager",
      "outputs": [],
      "stateMutability": "nonpayable",
      "type": "function"
    },
    {
      "inputs": [
        {
          "internalType": "address",
          "name": "addr",
          "type": "address"
        }
      ],
      "name": "updateStakeManager",
      "outputs": [],
      "stateMutability": "nonpayable",
      "type": "function"
    },
    {
      "inputs": [
        {
          "internalType": "address",
          "name": "user_",
          "type": "address"
        }
      ],
      "name": "updateUserSpotFlow",
      "outputs": [],
      "stateMutability": "nonpayable",
      "type": "function"
    },
    {
      "inputs": [
        {
          "internalType": "uint256",
          "name": "_prevID",
          "type": "uint256"
        },
        {
          "internalType": "uint256",
          "name": "_nextID",
          "type": "uint256"
        },
        {
          "internalType": "address",
          "name": "_voter",
          "type": "address"
        },
        {
          "internalType": "uint256",
          "name": "_numTokens",
          "type": "uint256"
        }
      ],
      "name": "validPosition",
      "outputs": [
        {
          "internalType": "bool",
          "name": "APPROVED",
          "type": "bool"
        }
      ],
      "stateMutability": "view",
      "type": "function"
    },
    {
      "inputs": [
        {
          "internalType": "uint256",
          "name": "_numTokens",
          "type": "uint256"
        }
      ],
      "name": "withdrawVotingRights",
      "outputs": [],
      "stateMutability": "nonpayable",
      "type": "function"
    }
  ],
  "bytecode": "0x608060405260006001818155601d829055601e829055601f819055602081905560218190556022556023819055602481905560258190556026819055602755602e805460ff60a01b1916600160a01b1790553480156200005e57600080fd5b506040516200a0f13803806200a0f1833981016040819052620000819162000123565b620000956200008f620000cf565b620000d3565b6001600160a01b038116620000a957600080fd5b602880546001600160a01b0319166001600160a01b039290921691909117905562000153565b3390565b600080546001600160a01b038381166001600160a01b0319831681178455604051919092169283917f8be0079c531659141344cd1fd0a4f28419497f9722a3daafe3b4186f6b6457e09190a35050565b60006020828403121562000135578081fd5b81516001600160a01b03811681146200014c578182fd5b9392505050565b619f8e80620001636000396000f3fe608060405234801561001057600080fd5b50600436106107175760003560e01c80638df0296e116103a8578063d420ec0b116101f4578063e7b1d43c1161011a578063f5ae7c7d116100b8578063f96305f011610087578063f96305f014610ea1578063fc0c546a14610ea9578063fca4956314610eb1578063ff43de9d14610ec457610717565b8063f5ae7c7d14610e76578063f716596d14610e7e578063f721de4a14610e86578063f80a23fd14610e9957610717565b8063ef4fcdad116100f4578063ef4fcdad14610e40578063f2d9e74d14610e48578063f2fde38b14610e50578063f4cdfcc414610e6357610717565b8063e7b1d43c14610e12578063eb1322ff14610e25578063ed8becfa14610e2d57610717565b8063d9548e5311610192578063df05368e11610161578063df05368e14610dc6578063e44c974b14610dd9578063e604c12714610dec578063e798a7da14610dff57610717565b8063d9548e5314610d78578063d9845fb814610d8b578063da14563a14610dab578063dd61868214610db357610717565b8063d817587e116101ce578063d817587e14610d2c578063d822ce0114610d3f578063d8b7567414610d52578063d901402b14610d6557610717565b8063d420ec0b14610d09578063d58f575c14610d1c578063d6b0206c14610d2457610717565b8063b10aa584116102d9578063c0f5511611610277578063cdb8b21811610246578063cdb8b21814610cc8578063d0d41def14610cdb578063d138209214610ce3578063d186981d14610cf657610717565b8063c0f5511614610c7c578063c47c4bc214610c8f578063c4e4f82a14610ca2578063c7c063fb14610cb557610717565b8063b1d7ea98116102b3578063b1d7ea9814610c30578063b43bd06914610c43578063b8f011b314610c56578063bc3002e614610c6957610717565b8063b10aa58414610bf7578063b1a2e0be14610c0a578063b1cf4a7e14610c1d57610717565b8063a350715a11610346578063a905779011610320578063a905779014610bc1578063aa7ca46414610bd4578063aacc5a1714610be7578063aec7fc4114610bef57610717565b8063a350715a14610b9e578063a4439dc514610ba6578063a511dba014610bb957610717565b80639d6e3f96116103825780639d6e3f9614610b5d5780639fc9c52f14610b70578063a1103f3714610b83578063a1b6b5b714610b9657610717565b80638df0296e14610b2f5780639760356014610b425780639769d84614610b5557610717565b806351912f291161056757806371880b1b11610498578063815ce747116104365780638473850b116104055780638473850b14610ae357806388d072eb14610aeb5780638c89d02714610afe5780638da5cb5b14610b2757610717565b8063815ce74714610aad578063819b029314610ab5578063821aa8c014610ac857806383cc6ef214610adb57610717565b80637a34da67116104725780637a34da6714610a5d5780637f9510a214610a655780637f97e83614610a6d5780637fabe35b14610a8057610717565b806371880b1b14610a2f578063763a39f214610a4257806377124dec14610a4a57610717565b80635df6055d11610505578063667bf0f8116104df578063667bf0f8146109f95780636b2d95d414610a015780637074222b14610a14578063715018a614610a2757610717565b80635df6055d146109cb578063607d5efa146109de5780636371d81f146109e657610717565b8063579db71c11610541578063579db71c146109725780635a452943146109855780635b113a55146109a55780635dc44cf1146109b857610717565b806351912f291461094f57806353bf27f114610957578063576a55431461095f57610717565b80632c0520311161064c578063413b90f7116105ea5780634852e2f0116105b95780634852e2f01461091957806349403183146109215780634fe8b4c114610934578063515535e81461094757610717565b8063413b90f7146108d8578063427fa1d2146108eb578063441c77c0146108fe57806347fe2d201461091157610717565b80633538af82116106265780633538af821461089457806336fc43fc146108a757806339e7357c146108af5780633c062cc8146108b757610717565b80632c0520311461084e5780632d917c68146108615780632f469fd11461087457610717565b8063100372f5116106b9578063210a018c11610693578063210a018c146107fe578063226ed3001461081e578063275c25901461083e57806329a47bc71461084657610717565b8063100372f5146107c3578063154fd39b146107d657806319d90346146107de57610717565b806305957623116106f5578063059576231461076d578063092a5cce146107805780630b96c5b0146107885780630e6661a7146107ae57610717565b806301a48b981461071c578063035fbb5514610745578063050eb2eb1461075a575b600080fd5b61072f61072a366004618895565b610ecc565b60405161073c9190618ba1565b60405180910390f35b6107586107533660046189af565b611067565b005b610758610768366004618596565b6113b8565b61075861077b366004618596565b611419565b61075861147a565b61079b610796366004618895565b6114cc565b60405161073c9796959493929190618c3b565b6107b66116b0565b60405161073c9190618aa6565b6107586107d1366004618895565b6116b6565b6107b66116fa565b6107f16107ec366004618895565b611700565b60405161073c9190618b41565b61081161080c366004618596565b611a1b565b60405161073c9190618ad9565b61083161082c366004618895565b611ac4565b60405161073c9190618be5565b610758611b0c565b610811611c5a565b6107b661085c3660046185f9565b611c69565b61083161086f3660046185ce565b611e06565b6108876108823660046188be565b611e26565b60405161073c9190618bf0565b6108116108a2366004618895565b611ecb565b610831611ef5565b6107b6611f05565b6108ca6108c5366004618895565b611f22565b60405161073c929190618acb565b6108ca6108e63660046185ce565b611f44565b6107b66108f9366004618596565b611f74565b61083161090c366004618895565b612014565b6107b661206e565b6107b6612074565b61083161092f366004618895565b61207a565b610758610942366004618895565b6122c6565b6107b661236b565b610811612371565b6107b6612380565b61075861096d366004618596565b612386565b61072f610980366004618596565b61254d565b610998610993366004618895565b6125b9565b60405161073c9190619bfe565b6107b66109b33660046188be565b61280e565b6107b66109c63660046185ce565b61282b565b6107f16109d9366004618895565b61285c565b610758612a79565b6107586109f4366004618895565b612c32565b610758612ce5565b6107b6610a0f366004618596565b613384565b6107b6610a22366004618596565b613393565b6107586133ae565b6107b6610a3d366004618895565b6133f9565b6107b6613436565b610758610a58366004618895565b61343c565b610811613480565b6107b661348f565b610831610a7b3660046185ce565b6134a6565b610a93610a8e366004618895565b6134f9565b60405161073c9e9d9c9b9a99989796959493929190619cdd565b6107b66135f9565b610831610ac3366004618971565b613655565b610811610ad6366004618895565b613696565b6108116136a6565b6107b66136b5565b610887610af93660046188be565b6136bb565b610b11610b0c366004618596565b6136df565b60405161073c9a99989796959493929190618aed565b610811613742565b610811610b3d366004618950565b613751565b610758610b50366004618895565b613789565b6107b6613938565b6107b6610b6b366004618596565b61393e565b610758610b7e366004618714565b6139a9565b6107b6610b913660046185ce565b6139f7565b6107b6613a2a565b6107b6613a30565b610831610bb4366004618895565b613a36565b6107b6613a98565b610831610bcf366004618835565b613a9e565b610831610be23660046185ce565b613b04565b6107b6613b57565b610811613c0c565b610811610c05366004618895565b613c1b565b610831610c18366004618596565b613c2b565b6107b6610c2b366004618950565b613cf6565b61072f610c3e366004618950565b613d0b565b6107b6610c513660046185f9565b613f25565b61072f610c64366004618950565b614011565b6107b6610c7736600461862d565b614179565b610758610c8a366004618596565b614a08565b610758610c9d366004618596565b614a69565b6107b6610cb0366004618895565b614aca565b6107b6610cc3366004618596565b614b07565b610758610cd63660046188ed565b614b19565b6107b661508d565b6107b6610cf13660046185ce565b615093565b610831610d043660046188be565b615128565b610831610d173660046185ce565b615203565b6107b6615223565b6107b6615229565b6107f1610d3a366004618895565b61522f565b610811610d4d3660046185ce565b61544c565b6107b6610d603660046188be565b615468565b6107b6610d733660046185ce565b615485565b610831610d86366004618895565b6154ca565b610d9e610d99366004618895565b6154cf565b60405161073c9190619a84565b610758615653565b610758610dc1366004618596565b61593b565b610758610dd4366004618596565b61599c565b61072f610de7366004618895565b6159fd565b610887610dfa366004618895565b615a89565b610831610e0d366004618596565b615b34565b610758610e20366004618895565b615b55565b6107b6615c9d565b6107f1610e3b366004618895565b615ca3565b6107b6615fb2565b6107b6615fb8565b610758610e5e366004618596565b615fbe565b6107b6610e713660046187c3565b61602c565b6107b6616062565b610758616068565b610831610e94366004618895565b61648b565b610831616493565b6107b66164ac565b6108116164b2565b6107b6610ebf366004618596565b6164c1565b610811616569565b6060610ed78261648b565b610efc5760405162461bcd60e51b8152600401610ef39061972c565b60405180910390fd5b600082815260196020908152604080832080548251818502810185019093528083529192909190830182828015610f5c57602002820191906000526020600020905b81546001600160a01b03168152600190910190602001808311610f3e575b50505050509050600081516001600160401b03811115610f8c57634e487b7160e01b600052604160045260246000fd5b604051908082528060200260200182016040528015610fb5578160200160208202803683370190505b50905060005b825181101561105f57600c60008681526020019081526020016000206000848381518110610ff957634e487b7160e01b600052603260045260246000fd5b60200260200101516001600160a01b03166001600160a01b031681526020019081526020016000205482828151811061104257634e487b7160e01b600052603260045260246000fd5b60209081029190910101528061105781619ed2565b915050610fbb565b509392505050565b61107083612014565b61108c5760405162461bcd60e51b8152600401610ef39061969f565b336000908152600a6020908152604080832086845290915290205460ff166110c65760405162461bcd60e51b8152600401610ef3906191d1565b336000908152600b6020908152604080832086845290915290205460ff16156111015760405162461bcd60e51b8152600401610ef390619a38565b61110b3384615485565b6111158383613cf6565b146111325760405162461bcd60e51b8152600401610ef390618f08565b600061113e3385615093565b90508260011415611175576000848152601460205260408120600701805483929061116a908490619e09565b9091555061119c9050565b60008481526014602052604081206008018054839290611196908490619e09565b90915550505b336000908152601160205260409081902090516301039dfd60e11b815273__$85afbab79b2b776d70bef879a32ed56424$__916302073bfa916111e491908890600401618acb565b60006040518083038186803b1580156111fc57600080fd5b505af4158015611210573d6000803e3d6000fd5b5050336000818152600b602090815260408083208a84528252808320805460ff19166001908117909155600c8352818420948452938252808320899055601582528083208a8452601490925290912060030154909350611271925090616578565b60008681526014602052604090206003015560028101805460ff191660011790554260048201556112a133616584565b600581015460ff1615611316576112b7336166dc565b1580156112ce57506005810154610100900460ff16155b1561131657601a80546001810182556000919091527f057c384a7d1c54f3a1b2e5e67b2617b8224fdfd1ea7234eea573a6ff665ff63e0180546001600160a01b031916331790555b600085815260146020526040902060030154611335576113358561674c565b6001602360008282546113489190619e09565b909155506113569050617870565b60008581526014602052604090819020600781015460089091015491513392879289927f0867b5027231dcbf37614eaad07d667b9febaf9fdf483f488229b1f140bb0748926113a9928992909190619cc7565b60405180910390a45050505050565b6113c0617b5b565b6001600160a01b03166113d1613742565b6001600160a01b0316146113f75760405162461bcd60e51b8152600401610ef39061951e565b602b80546001600160a01b0319166001600160a01b0392909216919091179055565b611421617b5b565b6001600160a01b0316611432613742565b6001600160a01b0316146114585760405162461bcd60e51b8152600401610ef39061951e565b602e80546001600160a01b0319166001600160a01b0392909216919091179055565b611482617b5b565b6001600160a01b0316611493613742565b6001600160a01b0316146114b95760405162461bcd60e51b8152600401610ef39061951e565b6114c1613742565b6001600160a01b0316ff5b6013602052600090815260409020805481906114e790619e97565b80601f016020809104026020016040519081016040528092919081815260200182805461151390619e97565b80156115605780601f1061153557610100808354040283529160200191611560565b820191906000526020600020905b81548152906001019060200180831161154357829003601f168201915b50505060018401546002850154600386015460048701805496976001600160a01b03909416969295509093509061159690619e97565b80601f01602080910402602001604051908101604052809291908181526020018280546115c290619e97565b801561160f5780601f106115e45761010080835404028352916020019161160f565b820191906000526020600020905b8154815290600101906020018083116115f257829003601f168201915b50505050509080600501805461162490619e97565b80601f016020809104026020016040519081016040528092919081815260200182805461165090619e97565b801561169d5780601f106116725761010080835404028352916020019161169d565b820191906000526020600020905b81548152906001019060200180831161168057829003601f168201915b5050506006909301549192505060ff1687565b601e5481565b6116be617b5b565b6001600160a01b03166116cf613742565b6001600160a01b0316146116f55760405162461bcd60e51b8152600401610ef39061951e565b602155565b60225490565b606061170b8261648b565b6117275760405162461bcd60e51b8152600401610ef39061972c565b600082815260146020908152604080832081516101c0810183528154815260018201549381019390935260028101549183019190915260038101546060830152600481015460ff808216151560808501526101008083048216151560a08601526201000090920416151560c0840152600582015460e084015260068201549083015260078101546101208301526008810154610140830152600981018054610160840191906117d590619e97565b80601f016020809104026020016040519081016040528092919081815260200182805461180190619e97565b801561184e5780601f106118235761010080835404028352916020019161184e565b820191906000526020600020905b81548152906001019060200180831161183157829003601f168201915b5050509183525050600a8201546020820152600b82015460409091019060ff16600381111561188d57634e487b7160e01b600052602160045260246000fd5b60038111156118ac57634e487b7160e01b600052602160045260246000fd5b90525060208101519091506000816001600160401b038111156118df57634e487b7160e01b600052604160045260246000fd5b60405190808252806020026020018201604052801561191257816020015b60608152602001906001900390816118fd5790505b50905060005b82811015611a12578351600090611930908390619e09565b60008181526013602052604081206004018054929350909161195190619e97565b80601f016020809104026020016040519081016040528092919081815260200182805461197d90619e97565b80156119ca5780601f1061199f576101008083540402835291602001916119ca565b820191906000526020600020905b8154815290600101906020018083116119ad57829003601f168201915b50505050509050808484815181106119f257634e487b7160e01b600052603260045260246000fd5b602002602001018190525050508080611a0a90619ed2565b915050611918565b50949350505050565b602c5460405163792f4f6960e11b8152600091829182916001600160a01b03169063f25e9ed290611a50903390600401618ad9565b60206040518083038186803b158015611a6857600080fd5b505afa158015611a7c573d6000803e3d6000fd5b505050506040513d601f19601f82011682018060405250810190611aa091906185b2565b90506001600160a01b03811615611ab957809150611abd565b8391505b5092915050565b6000611acf8261648b565b611aeb5760405162461bcd60e51b8152600401610ef390619a0f565b600082815260146020526040902060060154611b06906154ca565b92915050565b336000908152601560205260409020600581015460ff161515600114611b445760405162461bcd60e51b8152600401610ef3906194ad565b600181015415801590611b6157506005810154610100900460ff16155b15611bbe5760058101805461ff001916610100179055601c80546001810182556000919091527f0e4562a10381dec21b205ed72637e6b1b523bdd0e4d4d50af5cd23dd4500a2110180546001600160a01b03191633179055611c36565b6001810154611c3657611bd033617b5f565b611bd933616584565b80546001600160a01b031916339081178255426004830181905560058301805460ff191690556040517f9dadcedba048e92b943ea1c5861cee1df63a566d7f795869c004780c1c698e2b91611c2d91618aa6565b60405180910390a25b600160236000828254611c499190619e09565b90915550611c579050617870565b50565b602a546001600160a01b031681565b600080611c7585611f74565b90506000611c838683615093565b90505b8115611dfb57611c968683615093565b9050848111611d535783821415611d4b576001600160a01b0386166000908152601160205260409081902090516301c39b2b60e11b815273__$85afbab79b2b776d70bef879a32ed56424$__91630387365691611cf891908690600401618acb565b60206040518083038186803b158015611d1057600080fd5b505af4158015611d24573d6000803e3d6000fd5b505050506040513d601f19601f82011682018060405250810190611d4891906188ad565b91505b509050611dff565b6001600160a01b0386166000908152601160205260409081902090516301c39b2b60e11b815273__$85afbab79b2b776d70bef879a32ed56424$__91630387365691611da491908690600401618acb565b60206040518083038186803b158015611dbc57600080fd5b505af4158015611dd0573d6000803e3d6000fd5b505050506040513d601f19601f82011682018060405250810190611df491906188ad565b9150611c86565b5090505b9392505050565b600a60209081526000928352604080842090915290825290205460ff1681565b600d60209081526000928352604080842090915290825290208054611e4a90619e97565b80601f0160208091040260200160405190810160405280929190818152602001828054611e7690619e97565b8015611ec35780601f10611e9857610100808354040283529160200191611ec3565b820191906000526020600020905b815481529060010190602001808311611ea657829003601f168201915b505050505081565b601a8181548110611edb57600080fd5b6000918252602090912001546001600160a01b0316905081565b602e54600160a01b900460ff1681565b60405160009080602081848060185afa611f1b57fe5b5051919050565b60028160048110611f3257600080fd5b60020201805460019091015490915082565b60166020528160005260406000208160048110611f6057600080fd5b600202018054600190910154909250905082565b6001600160a01b03811660009081526011602052604080822090516301c39b2b60e11b815273__$85afbab79b2b776d70bef879a32ed56424$__91630387365691611fc491908590600401618acb565b60206040518083038186803b158015611fdc57600080fd5b505af4158015611ff0573d6000803e3d6000fd5b505050506040513d601f19601f82011682018060405250810190611b0691906188ad565b600061201f8261648b565b61203b5760405162461bcd60e51b8152600401610ef39061972c565b600082815260146020526040902060060154612056906154ca565b158015611b06575061206782613a36565b1592915050565b60215490565b60265481565b600081815260146020908152604080832081516101c0810183528154815260018201549381019390935260028101549183019190915260038101546060830152600481015460ff808216151560808501526101008083048216151560a08601526201000090920416151560c0840152600582015460e0840152600682015490830152600781015461012083015260088101546101408301526009810180548493929161016084019161212b90619e97565b80601f016020809104026020016040519081016040528092919081815260200182805461215790619e97565b80156121a45780601f10612179576101008083540402835291602001916121a4565b820191906000526020600020905b81548152906001019060200180831161218757829003601f168201915b5050509183525050600a8201546020820152600b82015460409091019060ff1660038111156121e357634e487b7160e01b600052602160045260246000fd5b600381111561220257634e487b7160e01b600052602160045260246000fd5b90525061014081015161012082015191925061221d91619e09565b602e60009054906101000a90046001600160a01b03166001600160a01b031663ea19733c6040518163ffffffff1660e01b815260040160206040518083038186803b15801561226b57600080fd5b505afa15801561227f573d6000803e3d6000fd5b505050506040513d601f19601f820116820180604052508101906122a391906188ad565b6122ad9190619e35565b6101208201516122be906064619e35565b119392505050565b6122ce617b5b565b6001600160a01b03166122df613742565b6001600160a01b0316146123055760405162461bcd60e51b8152600401610ef39061951e565b60008181526013602052604081209061231e8282618303565b6001820180546001600160a01b03191690556000600283018190556003830181905561234e906004840190618303565b61235c600583016000618303565b50600601805460ff1916905550565b60205490565b602b546001600160a01b031681565b601a5490565b6001600160a01b0381166000908152601660205260408120906123ab60016004619e54565b905060008282600481106123cf57634e487b7160e01b600052603260045260246000fd5b6002020154602e54604080516307bc663b60e11b815290519293506001600160a01b0390911691630f78cc7691600480820192602092909190829003018186803b15801561241c57600080fd5b505afa158015612430573d6000803e3d6000fd5b505050506040513d601f19601f8201168201806040525081019061245491906188ad565b61245e8242619e54565b11156125475760005b61247360016004619e54565b8110156124f25783612486826001619e09565b600481106124a457634e487b7160e01b600052603260045260246000fd5b600202018482600481106124c857634e487b7160e01b600052603260045260246000fd5b825460029190910291909101908155600191820154910155806124ea81619ed2565b915050612467565b504283836004811061251457634e487b7160e01b600052603260045260246000fd5b6002020155600083836004811061253b57634e487b7160e01b600052603260045260246000fd5b60020201600101819055505b50505050565b6001600160a01b0381166000908152601060209081526040918290208054835181840281018401909452808452606093928301828280156125ad57602002820191906000526020600020905b815481526020019060010190808311612599575b50505050509050919050565b6125c161833f565b60008281526013602052604090819020815160e081019092528054829082906125e990619e97565b80601f016020809104026020016040519081016040528092919081815260200182805461261590619e97565b80156126625780601f1061263757610100808354040283529160200191612662565b820191906000526020600020905b81548152906001019060200180831161264557829003601f168201915b505050918352505060018201546001600160a01b0316602082015260028201546040820152600382015460608201526004820180546080909201916126a690619e97565b80601f01602080910402602001604051908101604052809291908181526020018280546126d290619e97565b801561271f5780601f106126f45761010080835404028352916020019161271f565b820191906000526020600020905b81548152906001019060200180831161270257829003601f168201915b5050505050815260200160058201805461273890619e97565b80601f016020809104026020016040519081016040528092919081815260200182805461276490619e97565b80156127b15780601f10612786576101008083540402835291602001916127b1565b820191906000526020600020905b81548152906001019060200180831161279457829003601f168201915b5050509183525050600682015460209091019060ff1660038111156127e657634e487b7160e01b600052602160045260246000fd5b600381111561280557634e487b7160e01b600052602160045260246000fd5b90525092915050565b600e60209081526000928352604080842090915290825290205481565b6010602052816000526040600020818154811061284757600080fd5b90600052602060002001600091509150505481565b60606128678261648b565b6128835760405162461bcd60e51b8152600401610ef39061972c565b6000828152601960209081526040808320805482518185028101850190935280835291929091908301828280156128e357602002820191906000526020600020905b81546001600160a01b031681526001909101906020018083116128c5575b50505050509050600081516001600160401b0381111561291357634e487b7160e01b600052604160045260246000fd5b60405190808252806020026020018201604052801561294657816020015b60608152602001906001900390816129315790505b50905060005b825181101561105f57600f6000868152602001908152602001600020600084838151811061298a57634e487b7160e01b600052603260045260246000fd5b60200260200101516001600160a01b03166001600160a01b0316815260200190815260200160002080546129bd90619e97565b80601f01602080910402602001604051908101604052809291908181526020018280546129e990619e97565b8015612a365780601f10612a0b57610100808354040283529160200191612a36565b820191906000526020600020905b815481529060010190602001808311612a1957829003601f168201915b5050505050828281518110612a5b57634e487b7160e01b600052603260045260246000fd5b60200260200101819052508080612a7190619ed2565b91505061294c565b6000612a8760016004619e54565b9050600060028260048110612aac57634e487b7160e01b600052603260045260246000fd5b6002020154602e54604080516307bc663b60e11b815290519293506001600160a01b0390911691630f78cc7691600480820192602092909190829003018186803b158015612af957600080fd5b505afa158015612b0d573d6000803e3d6000fd5b505050506040513d601f19601f82011682018060405250810190612b3191906188ad565b612b3b8242619e54565b1115612c2e5760005b612b5060016004619e54565b811015612bd1576002612b64826001619e09565b60048110612b8257634e487b7160e01b600052603260045260246000fd5b6002020160028260048110612ba757634e487b7160e01b600052603260045260246000fd5b82546002919091029190910190815560019182015491015580612bc981619ed2565b915050612b44565b504260028360048110612bf457634e487b7160e01b600052603260045260246000fd5b6002020160000181905550600060028360048110612c2257634e487b7160e01b600052603260045260246000fd5b60020201600101819055505b5050565b612c3a617b5b565b6001600160a01b0316612c4b613742565b6001600160a01b031614612c715760405162461bcd60e51b8152600401610ef39061951e565b600081815260146020526040812081815560018101829055600281018290556003810182905560048101805462ffffff191690556005810182905560068101829055600781018290556008810182905590612ccf6009830182618303565b506000600a820155600b01805460ff1916905550565b60225460009081526014602052604090206004015460ff16612d195760405162461bcd60e51b8152600401610ef390619649565b60225460009081526014602052604090206004015462010000900460ff1615612d545760405162461bcd60e51b8152600401610ef390619450565b6000612e78612ded601a80549050602e60009054906101000a90046001600160a01b03166001600160a01b031663dfeceed76040518163ffffffff1660e01b815260040160206040518083038186803b158015612db057600080fd5b505afa158015612dc4573d6000803e3d6000fd5b505050506040513d601f19601f82011682018060405250810190612de891906188ad565b617c8f565b602e60009054906101000a90046001600160a01b03166001600160a01b031663bd40ef4c6040518163ffffffff1660e01b815260040160206040518083038186803b158015612e3b57600080fd5b505afa158015612e4f573d6000803e3d6000fd5b505050506040513d601f19601f82011682018060405250810190612e7391906188ad565b617ca5565b601a54602e546040805163189460df60e31b8152905193945091926001600160a01b039091169163c4a306f8916004808301926020929190829003018186803b158015612ec457600080fd5b505afa158015612ed8573d6000803e3d6000fd5b505050506040513d601f19601f82011682018060405250810190612efc91906188ad565b600154612f099042619e54565b10612c2e5760228054600090815260146020908152604080832060030186905592548252828220600201859055602e548351631b4930b560e11b815293519293612fb8936001600160a01b0390921692633692616a92600480840193829003018186803b158015612f7957600080fd5b505afa158015612f8d573d6000803e3d6000fd5b505050506040513d601f19601f82011682018060405250810190612fb191906188ad565b4290617cb5565b9050600061304c602e60009054906101000a90046001600160a01b03166001600160a01b03166372e540306040518163ffffffff1660e01b815260040160206040518083038186803b15801561300d57600080fd5b505afa158015613021573d6000803e3d6000fd5b505050506040513d601f19601f8201168201806040525081019061304591906188ad565b8390617cb5565b60228054600090815260146020526040808220600501869055825482528082206006018490559154815220600401805462ff000019166201000017905590506001841080159061309d575060018310155b6130b95760405162461bcd60e51b8152600401610ef39061901a565b60006130c58585614011565b9050600081516001600160401b038111156130f057634e487b7160e01b600052604160045260246000fd5b604051908082528060200260200182016040528015613119578160200160208202803683370190505b50905060005b82518110156131d857601a83828151811061314a57634e487b7160e01b600052603260045260246000fd5b60200260200101518154811061317057634e487b7160e01b600052603260045260246000fd5b9060005260206000200160009054906101000a90046001600160a01b03168282815181106131ae57634e487b7160e01b600052603260045260246000fd5b6001600160a01b0390921660209283029190910190910152806131d081619ed2565b91505061311f565b5060005b825181101561334057600082828151811061320757634e487b7160e01b600052603260045260246000fd5b60200260200101519050600060156000836001600160a01b03166001600160a01b03168152602001908152602001600020905061324382617b5f565b61324c82617cc1565b61329c57601b80546001810182556000919091527f3ad8aa4f87544323a9d1e5dd902f40c356527a7955687113db5f9a85ad579dc10180546001600160a01b0319166001600160a01b0384161790555b6022805460009081526019602090815260408083208054600180820183559185529290932090910180546001600160a01b0319166001600160a01b03871617905582549184019190915560028301805460ff19169055905490517fe4ee2dfabe57cee15e3f558890b20455f54c1fa0718e5276faad70a6500e6b8c90613323908590618ad9565b60405180910390a25050808061333890619ed2565b9150506131dc565b5042600190815560225461335391617cb5565b60225561335e613b57565b601d819055506001602360008282546133779190619e09565b9091555050505050505050565b6000611b0682610cf184611f74565b6001600160a01b031660009081526017602052604090205490565b6133b6617b5b565b6001600160a01b03166133c7613742565b6001600160a01b0316146133ed5760405162461bcd60e51b8152600401610ef39061951e565b6133f76000617d31565b565b60006134048261648b565b6134205760405162461bcd60e51b8152600401610ef39061972c565b5060009081526014602052604090206006015490565b601b5490565b613444617b5b565b6001600160a01b0316613455613742565b6001600160a01b03161461347b5760405162461bcd60e51b8152600401610ef39061951e565b602255565b602c546001600160a01b031681565b601b54601a546000916134a191619e09565b905090565b60006134b18261648b565b6134cd5760405162461bcd60e51b8152600401610ef39061972c565b506001600160a01b03919091166000908152600a60209081526040808320938352929052205460ff1690565b601460205260009081526040902080546001820154600283015460038401546004850154600586015460068701546007880154600889015460098a018054999a98999798969760ff8088169861010089048216986201000090049091169695949392909161356690619e97565b80601f016020809104026020016040519081016040528092919081815260200182805461359290619e97565b80156135df5780601f106135b4576101008083540402835291602001916135df565b820191906000526020600020905b8154815290600101906020018083116135c257829003601f168201915b50505050600a830154600b9093015491929160ff1690508e565b600080805b600481101561364f576002816004811061362857634e487b7160e01b600052603260045260246000fd5b60020201600101548261363b9190619e09565b91508061364781619ed2565b9150506135fe565b50905090565b6000806136628487615093565b831015905060006136738587615093565b8411158061367f575085155b905081801561368b5750805b979650505050505050565b601b8181548110611edb57600080fd5b6029546001600160a01b031681565b60205481565b600f60209081526000928352604080842090915290825290208054611e4a90619e97565b6015602052600090815260409020805460018201546002830154600384015460048501546005860154600687015460078801546008909801546001600160a01b0390971697959660ff95861696949593948385169461010090940490931692908a565b6000546001600160a01b031690565b6019602052816000526040600020818154811061376d57600080fd5b6000918252602090912001546001600160a01b03169150829050565b60016000828152601460205260409020600b015460ff1660038111156137bf57634e487b7160e01b600052602160045260246000fd5b146137dc5760405162461bcd60e51b8152600401610ef390618dbc565b336000908152601160205260409081902090516306120d1f60e31b815273__$85afbab79b2b776d70bef879a32ed56424$__9163309068f89161382491908590600401618acb565b60206040518083038186803b15801561383c57600080fd5b505af4158015613850573d6000803e3d6000fd5b505050506040513d601f19601f8201168201806040525081019061387491906187a3565b6138905760405162461bcd60e51b8152600401610ef39061930d565b336000908152601160205260409081902090516301039dfd60e11b815273__$85afbab79b2b776d70bef879a32ed56424$__916302073bfa916138d891908590600401618acb565b60006040518083038186803b1580156138f057600080fd5b505af4158015613904573d6000803e3d6000fd5b50506040513392508391507f402507661c8c8cb90e0a796450b8bdd28b6c516f05279c0cd29e84c344e1699a90600090a350565b60245481565b6001600160a01b038116600090815260166020526040812081805b600481101561105f5782816004811061398257634e487b7160e01b600052603260045260246000fd5b6002020160010154826139959190619e09565b9150806139a181619ed2565b915050613959565b60005b8151811015612c2e576139e58282815181106139d857634e487b7160e01b600052603260045260246000fd5b6020026020010151613789565b806139ef81619ed2565b9150506139ac565b60008282604051602001613a0c929190618a84565b60405160208183030381529060405280519060200120905092915050565b60245490565b60255481565b6000613a418261648b565b613a5d5760405162461bcd60e51b8152600401610ef39061972c565b600082815260146020526040902060050154613a78906154ca565b158015611b06575050600090815260146020526040902060020154151590565b601e5490565b600081604051602001613ab19190618aaf565b6040516020818303038152906040528051906020012083604051602001613ad89190618aaf565b604051602081830303815290604052805190602001201415613afc57506001611b06565b506000611b06565b6000613b0f8261648b565b613b2b5760405162461bcd60e51b8152600401610ef39061972c565b506001600160a01b03919091166000908152600b60209081526040808320938352929052205460ff1690565b6000804241604051602001613b6c9190618a67565b6040516020818303038152906040528051906020012060001c613b8f9190619e21565b44613b98611f05565b604051602001613ba89190618aa6565b60408051601f198184030181529190528051602090910120613bca9042619e09565b613bd49190619e09565b613bde9190619e09565b604051602001613bee9190618aa6565b60408051601f19818403018152919052805160209091012091505090565b602d546001600160a01b031681565b601c8181548110611edb57600080fd5b6001600160a01b03808216600090815260156020908152604080832081516101408101835281549095168552600181015492850192909252600282015460ff90811615801592860183905260038401546060870152600484015460808701526005840154808316151560a088015261010090819004909216151560c0870152600684015460e087015260078401549186019190915260089092015461012085015291928392909190613ce75750613ce58160200151611ac4565b155b15611abd575060019392505050565b60008282604051602001613a0c929190618acb565b606060008211613d2d5760405162461bcd60e51b8152600401610ef3906194f9565b600041604051602001613d409190618a67565b6040516020818303038152906040528051906020012060001c613d61611f05565b604051602001613d719190618aa6565b60408051601f198184030181529190528051602090910120613d939042619e09565b613d9d9190619e09565b604051602001613dad9190618aa6565b6040516020818303038152906040528051906020012060001c90506000846001600160401b03811115613df057634e487b7160e01b600052604160045260246000fd5b604051908082528060200260200182016040528015613e19578160200160208202803683370190505b5090506000805b86821015613f1a57600086613e3963017efeeb87619e54565b83604051602001613e4b929190618acb565b6040516020818303038152906040528051906020012060001c613e6e9190619eed565b90506000805b84811015613ec65782868281518110613e9d57634e487b7160e01b600052603260045260246000fd5b60200260200101511415613eb45760019150613ec6565b80613ebe81619ed2565b915050613e74565b5080613f065781858581518110613eed57634e487b7160e01b600052603260045260246000fd5b6020908102919091010152613f03846001619e09565b93505b613f11836001619e09565b92505050613e20565b509095945050505050565b6000613f3083611ac4565b613f4c5760405162461bcd60e51b8152600401610ef390619914565b6001600160a01b0384166000908152600b6020908152604080832086845290915290205460ff16613f8f5760405162461bcd60e51b8152600401610ef39061936a565b6000613f9a8461207a565b613fa5576000613fa8565b60015b60ff16905060008184604051602001613fc2929190618acb565b6040516020818303038152906040528051906020012090506000613fe68787615485565b90508082146140075760405162461bcd60e51b8152600401610ef390619600565b61368b8787615093565b60606000821180156140235750818311155b8015614030575060018310155b61404c5760405162461bcd60e51b8152600401610ef390618fd1565b6000826001600160401b0381111561407457634e487b7160e01b600052604160045260246000fd5b60405190808252806020026020018201604052801561409d578160200160208202803683370190505b5090506000846001600160401b038111156140c857634e487b7160e01b600052604160045260246000fd5b6040519080825280602002602001820160405280156140f1578160200160208202803683370190505b509050600061410761410284617d81565b617dd7565b905060005b86811015613f1a5781818151811061413457634e487b7160e01b600052603260045260246000fd5b602002602001015183828151811061415c57634e487b7160e01b600052603260045260246000fd5b60209081029190910101528061417181619ed2565b91505061410c565b602e54604080516309d0f8b560e31b815290516000926001600160a01b031691634e87c5a8916004808301926020929190829003018186803b1580156141be57600080fd5b505afa1580156141d2573d6000803e3d6000fd5b505050506040513d601f19601f820116820180604052508101906141f691906187a3565b6142125760405162461bcd60e51b8152600401610ef390619220565b855184146142325760405162461bcd60e51b8152600401610ef3906197a4565b600061423d33611a1b565b9050614247612a79565b602e60009054906101000a90046001600160a01b03166001600160a01b031663b38e885e6040518163ffffffff1660e01b815260040160206040518083038186803b15801561429557600080fd5b505afa1580156142a9573d6000803e3d6000fd5b505050506040513d601f19601f820116820180604052508101906142cd91906188ad565b6142d56135f9565b106142f25760405162461bcd60e51b8152600401610ef39061926a565b6142fb81612386565b602e60009054906101000a90046001600160a01b03166001600160a01b031663be2509886040518163ffffffff1660e01b815260040160206040518083038186803b15801561434957600080fd5b505afa15801561435d573d6000803e3d6000fd5b505050506040513d601f19601f8201168201806040525081019061438191906188ad565b61438a8261393e565b106143a75760405162461bcd60e51b8152600401610ef3906199bb565b602e54604080516001624ee91360e11b0319815290516000926001600160a01b03169163ff622dda916004808301926020929190829003018186803b1580156143ef57600080fd5b505afa158015614403573d6000803e3d6000fd5b505050506040513d601f19601f8201168201806040525081019061442791906188ad565b6001600160a01b03831660009081526017602052604090205490915081111561447c576001600160a01b03821660009081526017602052604081205461446e908390616578565b905061447a8184617f7e565b505b60005b88518110156149c25760008982815181106144aa57634e487b7160e01b600052603260045260246000fd5b6020026020010151905060008989848181106144d657634e487b7160e01b600052603260045260246000fd5b90506020028101906144e89190619d6d565b8080601f016020809104026020016040519081016040528093929190818152602001838380828437600092018290525033808252601060209081526040808420601e54815460018101835591865283862090910155805160e0810182528a8152918201929092524291810191909152606081018e90526080810186905260a081018d905294955060c085019350915061457e9050565b9052601e5460009081526013602090815260409091208251805191926145a9928492909101906183a3565b506020828101516001830180546001600160a01b0319166001600160a01b039092169190911790556040830151600283015560608301516003830155608083015180516145fc92600485019201906183a3565b5060a082015180516146189160058401916020909101906183a3565b5060c082015160068201805460ff1916600183600381111561464a57634e487b7160e01b600052602160045260246000fd5b02179055505060208054600090815260148252604090819020602e548251634e8f956d60e11b815292519194506001600160a01b031692639d1f2ada9260048082019391829003018186803b1580156146a257600080fd5b505afa1580156146b6573d6000803e3d6000fd5b505050506040513d601f19601f820116820180604052508101906146da91906188ad565b816001015410156147005760018160010160008282546146fa9190619e09565b90915550505b602e60009054906101000a90046001600160a01b03166001600160a01b0316639d1f2ada6040518163ffffffff1660e01b815260040160206040518083038186803b15801561474e57600080fd5b505afa158015614762573d6000803e3d6000fd5b505050506040513d601f19601f8201168201806040525081019061478691906188ad565b8160010154106147d657600481018054600160ff19909116811761ff001916909155602080546000906147ba908490619e09565b9091555050601e54602080546000908152601490915260409020555b601e546147e4906001619e09565b601e55600160026147f6826004619e54565b6004811061481457634e487b7160e01b600052603260045260246000fd5b60020201600101600082825461482a9190619e09565b90915550506001600160a01b0386166000908152601660205260409020600181614855826004619e54565b6004811061487357634e487b7160e01b600052603260045260246000fd5b6002020160010160008282546148899190619e09565b909155506148979050615653565b602d60009054906101000a90046001600160a01b03166001600160a01b031663da14563a6040518163ffffffff1660e01b8152600401600060405180830381600087803b1580156148e757600080fd5b505af19250505080156148f8575060015b614965573d808015614926576040519150601f19603f3d011682016040523d82523d6000602084013e61492b565b606091505b507f4b87bbd93ba65ede1e2efeca735d9f7a6720bf7d6db0a8355b17dba5b64e57838160405161495b9190618bf0565b60405180910390a1505b866001600160a01b0316601e547fb819ca9ac369919119f75ec7363dd954f75bcfa75f9245647e03da413be0d58286866040516149a3929190618cad565b60405180910390a35050505080806149ba90619ed2565b91505061447f565b503360009081526015602052604090204260048201556149e0617870565b6001602360008282546149f39190619e09565b9091555050601e549998505050505050505050565b614a10617b5b565b6001600160a01b0316614a21613742565b6001600160a01b031614614a475760405162461bcd60e51b8152600401610ef39061951e565b602d80546001600160a01b0319166001600160a01b0392909216919091179055565b614a71617b5b565b6001600160a01b0316614a82613742565b6001600160a01b031614614aa85760405162461bcd60e51b8152600401610ef39061951e565b602c80546001600160a01b0319166001600160a01b0392909216919091179055565b6000614ad58261648b565b614af15760405162461bcd60e51b8152600401610ef39061972c565b5060009081526014602052604090206005015490565b60176020526000908152604090205481565b614b2285613a36565b614b3e5760405162461bcd60e51b8152600401610ef390618eb9565b336000908152600a6020908152604080832088845290915290205460ff1615614b795760405162461bcd60e51b8152600401610ef3906197f1565b614b838533615128565b614b9f5760405162461bcd60e51b8152600401610ef390619091565b602e54604080516001624ee91360e11b0319815290516000926001600160a01b03169163ff622dda916004808301926020929190829003018186803b158015614be757600080fd5b505afa158015614bfb573d6000803e3d6000fd5b505050506040513d601f19601f82011682018060405250810190614c1f91906188ad565b90506000614c2c33611a1b565b6001600160a01b038116600090815260176020526040902054909150821115614c81576001600160a01b038116600090815260176020526040812054614c73908490616578565b9050614c7f8183617f7e565b505b6000336000908152601160205260408082209051631e0f232560e31b815273__$85afbab79b2b776d70bef879a32ed56424$__9163f079192891614cca91908690600401618acb565b60206040518083038186803b158015614ce257600080fd5b505af4158015614cf6573d6000803e3d6000fd5b505050506040513d601f19601f82011682018060405250810190614d1a91906188ad565b905088811415614dbf5733600090815260116020526040908190209051631e0f232560e31b815273__$85afbab79b2b776d70bef879a32ed56424$__9163f079192891614d6c91908d90600401618acb565b60206040518083038186803b158015614d8457600080fd5b505af4158015614d98573d6000803e3d6000fd5b505050506040513d601f19601f82011682018060405250810190614dbc91906188ad565b90505b614dcb82823387613655565b614de75760405162461bcd60e51b8152600401610ef390619422565b3360009081526011602052604090819020905163524cfe5360e11b815273__$85afbab79b2b776d70bef879a32ed56424$__9163a499fca691614e33919086908e908790600401619be3565b60006040518083038186803b158015614e4b57600080fd5b505af4158015614e5f573d6000803e3d6000fd5b505050506000614e6f338b6139f7565b60405163099b040f60e31b815290915073__$0947e710b66d7779e1d561254425e1375a$__90634cd8207890614eae9060129085908a90600401619bc5565b60006040518083038186803b158015614ec657600080fd5b505af4158015614eda573d6000803e3d6000fd5b505060405163099b040f60e31b815273__$0947e710b66d7779e1d561254425e1375a$__9250634cd820789150614f1a9060129085908e90600401619b79565b60006040518083038186803b158015614f3257600080fd5b505af4158015614f46573d6000803e3d6000fd5b50505060008b8152600d6020908152604080832033845282529091208a51614f73935090918b01906183a3565b5060008a8152600e60209081526040808320338085529083528184208b90558d8452600f835281842090845282529091208751614fb2928901906183a3565b503360009081526015602090815260408083208d8452601490925290912060020154614fdf906001616578565b60008c815260146020908152604080832060020193909355426004850155338252600a81528282208e83529052908120805460ff191660019081179091556023805491929091615030908490619e09565b9091555061503e9050617870565b336001600160a01b03168b7f42864d9683ff5b12c3b2cc65d705af5aab104b03bc700b802f79e5c971ef08a1886040516150789190618aa6565b60405180910390a35050505050505050505050565b60015481565b600073__$0947e710b66d7779e1d561254425e1375a$__636981015860126150bb86866139f7565b6040518363ffffffff1660e01b81526004016150d8929190619ba7565b60206040518083038186803b1580156150f057600080fd5b505af4158015615104573d6000803e3d6000fd5b505050506040513d601f19601f82011682018060405250810190611dff91906188ad565b600082815260196020908152604080832080548251818502810185019093528083528493849392919083018282801561518a57602002820191906000526020600020905b81546001600160a01b0316815260019091019060200180831161516c575b5050505050905060005b81518110156151f957846001600160a01b03168282815181106151c757634e487b7160e01b600052603260045260246000fd5b60200260200101516001600160a01b031614156151e757600192506151f9565b806151f181619ed2565b915050615194565b5090949350505050565b600b60209081526000928352604080842090915290825290205460ff1681565b601f5481565b60225481565b606061523a8261648b565b6152565760405162461bcd60e51b8152600401610ef39061972c565b6000828152601960209081526040808320805482518185028101850190935280835291929091908301828280156152b657602002820191906000526020600020905b81546001600160a01b03168152600190910190602001808311615298575b50505050509050600081516001600160401b038111156152e657634e487b7160e01b600052604160045260246000fd5b60405190808252806020026020018201604052801561531957816020015b60608152602001906001900390816153045790505b50905060005b825181101561105f57600d6000868152602001908152602001600020600084838151811061535d57634e487b7160e01b600052603260045260246000fd5b60200260200101516001600160a01b03166001600160a01b03168152602001908152602001600020805461539090619e97565b80601f01602080910402602001604051908101604052809291908181526020018280546153bc90619e97565b80156154095780601f106153de57610100808354040283529160200191615409565b820191906000526020600020905b8154815290600101906020018083116153ec57829003601f168201915b505050505082828151811061542e57634e487b7160e01b600052603260045260246000fd5b6020026020010181905250808061544490619ed2565b91505061531f565b6018602052816000526040600020818154811061376d57600080fd5b600c60209081526000928352604080842090915290825290205481565b600073__$0947e710b66d7779e1d561254425e1375a$__636981015860126154ad86866139f7565b6040518363ffffffff1660e01b81526004016150d8929190619b5b565b421190565b6154d7618427565b6154e08261648b565b6154e957600080fd5b60008281526014602090815260409182902082516101c0810184528154815260018201549281019290925260028101549282019290925260038201546060820152600482015460ff808216151560808401526101008083048216151560a08501526201000090920416151560c0830152600583015460e0830152600683015490820152600782015461012082015260088201546101408201526009820180549192916101608401919061559b90619e97565b80601f01602080910402602001604051908101604052809291908181526020018280546155c790619e97565b80156156145780601f106155e957610100808354040283529160200191615614565b820191906000526020600020905b8154815290600101906020018083116155f757829003601f168201915b5050509183525050600a8201546020820152600b82015460409091019060ff1660038111156127e657634e487b7160e01b600052602160045260246000fd5b601c541561566357615663618086565b61566b612a79565b61567361813a565b60005b602e60009054906101000a90046001600160a01b03166001600160a01b0316637d630cb06040518163ffffffff1660e01b815260040160206040518083038186803b1580156156c457600080fd5b505afa1580156156d8573d6000803e3d6000fd5b505050506040513d601f19601f820116820180604052508101906156fc91906188ad565b8110156159325760215460009081526014602052604081206004015462010000900460ff16151560011480156157555750615738602154611ac4565b806157555750602154600090815260146020526040902060030154155b1561577a5761576560215461674c565b602154615773906001617cb5565b6021555060015b60225460009081526014602052604090206004015462010000900460ff1615156001148015906158315750602e60009054906101000a90046001600160a01b03166001600160a01b031663bd40ef4c6040518163ffffffff1660e01b815260040160206040518083038186803b1580156157f357600080fd5b505afa158015615807573d6000803e3d6000fd5b505050506040513d601f19601f8201168201806040525081019061582b91906188ad565b601a5410155b8015615851575060225460009081526014602052604090206004015460ff165b80156158665750615860613b57565b601d5414155b80156159035750602e60009054906101000a90046001600160a01b03166001600160a01b031663c4a306f86040518163ffffffff1660e01b815260040160206040518083038186803b1580156158bb57600080fd5b505afa1580156158cf573d6000803e3d6000fd5b505050506040513d601f19601f820116820180604052508101906158f391906188ad565b6001546159009042619e54565b10155b1561591457615910612ce5565b5060015b8061591f5750615932565b508061592a81619ed2565b915050615676565b506133f7617870565b615943617b5b565b6001600160a01b0316615954613742565b6001600160a01b03161461597a5760405162461bcd60e51b8152600401610ef39061951e565b602a80546001600160a01b0319166001600160a01b0392909216919091179055565b6159a4617b5b565b6001600160a01b03166159b5613742565b6001600160a01b0316146159db5760405162461bcd60e51b8152600401610ef39061951e565b602980546001600160a01b0319166001600160a01b0392909216919091179055565b606060008211615a1f5760405162461bcd60e51b8152600401610ef390619403565b6000826001600160401b03811115615a4757634e487b7160e01b600052604160045260246000fd5b604051908082528060200260200182016040528015615a70578160200160208202803683370190505b5090506000615a8161410283617d81565b949350505050565b6060615a948261648b565b615a9d57600080fd5b60008281526014602052604090206009018054615ab990619e97565b80601f0160208091040260200160405190810160405280929190818152602001828054615ae590619e97565b80156125ad5780601f10615b07576101008083540402835291602001916125ad565b820191906000526020600020905b815481529060010190602001808311615b155750939695505050505050565b6001600160a01b031660009081526015602052604090206005015460ff1690565b6000615b79615b6333613384565b3360009081526017602052604090205490616578565b905081811015615b9b5760405162461bcd60e51b8152600401610ef3906196e5565b602954604051630895993360e11b81526001600160a01b039091169063112b326690615bcd9085903390600401619c92565b602060405180830381600087803b158015615be757600080fd5b505af1158015615bfb573d6000803e3d6000fd5b505050506040513d601f19601f82011682018060405250810190615c1f91906187a3565b615c3b5760405162461bcd60e51b8152600401610ef39061995e565b3360009081526017602052604081208054849290615c5a908490619e54565b909155505060405133907ffaeb7dbb9992397d26ea1944efd40c80b40f702faf69b46c67ad10aba68ccb7990615c91908590618aa6565b60405180910390a25050565b60275481565b6060615cae8261648b565b615cca5760405162461bcd60e51b8152600401610ef39061972c565b600082815260146020908152604080832081516101c0810183528154815260018201549381019390935260028101549183019190915260038101546060830152600481015460ff808216151560808501526101008083048216151560a08601526201000090920416151560c0840152600582015460e08401526006820154908301526007810154610120830152600881015461014083015260098101805461016084019190615d7890619e97565b80601f0160208091040260200160405190810160405280929190818152602001828054615da490619e97565b8015615df15780601f10615dc657610100808354040283529160200191615df1565b820191906000526020600020905b815481529060010190602001808311615dd457829003601f168201915b5050509183525050600a8201546020820152600b82015460409091019060ff166003811115615e3057634e487b7160e01b600052602160045260246000fd5b6003811115615e4f57634e487b7160e01b600052602160045260246000fd5b90525060208101519091506000816001600160401b03811115615e8257634e487b7160e01b600052604160045260246000fd5b604051908082528060200260200182016040528015615eb557816020015b6060815260200190600190039081615ea05790505b50905060005b82811015611a12578351600090615ed3908390619e09565b600081815260136020526040812080549293509091615ef190619e97565b80601f0160208091040260200160405190810160405280929190818152602001828054615f1d90619e97565b8015615f6a5780601f10615f3f57610100808354040283529160200191615f6a565b820191906000526020600020905b815481529060010190602001808311615f4d57829003601f168201915b5050505050905080848481518110615f9257634e487b7160e01b600052603260045260246000fd5b602002602001018190525050508080615faa90619ed2565b915050615ebb565b60215481565b60235481565b615fc6617b5b565b6001600160a01b0316615fd7613742565b6001600160a01b031614615ffd5760405162461bcd60e51b8152600401610ef39061951e565b6001600160a01b0381166160235760405162461bcd60e51b8152600401610ef390618f8b565b611c5781617d31565b600083838360405160200161604393929190618c03565b6040516020818303038152906040528051906020012090509392505050565b60235490565b33600090815260156020908152604091829020602e5483516398a54e2b60e01b8152935191936001600160a01b03909116926398a54e2b92600480840193829003018186803b1580156160ba57600080fd5b505afa1580156160ce573d6000803e3d6000fd5b505050506040513d601f19601f820116820180604052508101906160f291906188ad565b601b54601a546161029190619e09565b1061611f5760405162461bcd60e51b8152600401610ef39061983a565b600581015460ff16156161445760405162461bcd60e51b8152600401610ef390618d85565b602e60009054906101000a90046001600160a01b03166001600160a01b0316639fb491f66040518163ffffffff1660e01b815260040160206040518083038186803b15801561619257600080fd5b505afa1580156161a6573d6000803e3d6000fd5b505050506040513d601f19601f820116820180604052508101906161ca91906188ad565b81600301541015801561626f5750602e60009054906101000a90046001600160a01b03166001600160a01b0316630f1f0ffe6040518163ffffffff1660e01b815260040160206040518083038186803b15801561622657600080fd5b505afa15801561623a573d6000803e3d6000fd5b505050506040513d601f19601f8201168201806040525081019061625e91906188ad565b600682015461626d9042619e54565b105b1561628c5760405162461bcd60e51b8152600401610ef39061987c565b602e54604080516001624ee91360e11b0319815290516000926001600160a01b03169163ff622dda916004808301926020929190829003018186803b1580156162d457600080fd5b505afa1580156162e8573d6000803e3d6000fd5b505050506040513d601f19601f8201168201806040525081019061630c91906188ad565b9050600061631933611a1b565b6001600160a01b03811660009081526017602052604090205490915082111561636e576001600160a01b038116600090815260176020526040812054616360908490616578565b905061636c8183617f7e565b505b3360009081526017602052604090205482111561639d5760405162461bcd60e51b8152600401610ef390618e0d565b6163a6336166dc565b6163ed57601a80546001810182556000919091527f057c384a7d1c54f3a1b2e5e67b2617b8224fdfd1ea7234eea573a6ff665ff63e0180546001600160a01b031916331790555b8254336001600160a01b031990911617835560058301805460ff1916600190811761ff00191690915542600685015560006003850181905560238054909190616437908490619e09565b909155506164459050617870565b336001600160a01b03167f439d77b7534ec3108fc6143bd4fbabde0b9f2bb54f7b0730d1f70dd2135b765f4260405161647e9190618aa6565b60405180910390a2505050565b602054101590565b3360009081526015602052604090206005015460ff1690565b60255490565b6028546001600160a01b031681565b6001600160a01b03908116600090815260156020908152604091829020825161014081018452815490941684526001810154918401829052600281015460ff90811615159385019390935260038101546060850152600481015460808501526005810154808416151560a086015261010090819004909316151560c0850152600681015460e08501526007810154928401929092526008909101546101209092019190915290565b602e546001600160a01b031681565b6000611dff8284619e54565b60008060005b601b548110156165f857836001600160a01b0316601b82815481106165bf57634e487b7160e01b600052603260045260246000fd5b6000918252602090912001546001600160a01b031614156165e657600191508092506165f8565b806165f081619ed2565b91505061658a565b5080156166d757601b805461660f90600190619e54565b8154811061662d57634e487b7160e01b600052603260045260246000fd5b600091825260209091200154601b80546001600160a01b03909216918490811061666757634e487b7160e01b600052603260045260246000fd5b9060005260206000200160006101000a8154816001600160a01b0302191690836001600160a01b03160217905550601b8054806166b457634e487b7160e01b600052603160045260246000fd5b600082815260209020810160001990810180546001600160a01b03191690550190555b505050565b600080805b601a54811015611abd57836001600160a01b0316601a828154811061671657634e487b7160e01b600052603260045260246000fd5b6000918252602090912001546001600160a01b0316141561673a5760019150611abd565b8061674481619ed2565b9150506166e1565b61675581611ac4565b8061676f5750600081815260146020526040902060030154155b61678b5760405162461bcd60e51b8152600401610ef3906195a3565b600081815260146020526040902060040154610100900460ff16156167c25760405162461bcd60e51b8152600401610ef390619763565b60008181526019602090815260408083208054825181850281018501909352808352919290919083018282801561682257602002820191906000526020600020905b81546001600160a01b03168152600190910190602001808311616804575b50505050509050600081516001600160401b0381111561685257634e487b7160e01b600052604160045260246000fd5b60405190808252806020026020018201604052801561688557816020015b60608152602001906001900390816168705790505b509050600082516001600160401b038111156168b157634e487b7160e01b600052604160045260246000fd5b6040519080825280602002602001820160405280156168da578160200160208202803683370190505b50905060005b8351811015616a5d57600084828151811061690b57634e487b7160e01b600052603260045260246000fd5b6020908102919091018101516000888152600d835260408082206001600160a01b038416835290935291822080549193509061694690619e97565b80601f016020809104026020016040519081016040528092919081815260200182805461697290619e97565b80156169bf5780601f10616994576101008083540402835291602001916169bf565b820191906000526020600020905b8154815290600101906020018083116169a257829003601f168201915b50505060008a8152600e602090815260408083206001600160a01b038916845290915290205488519394509284925088915086908110616a0f57634e487b7160e01b600052603260045260246000fd5b602002602001018190525080858581518110616a3b57634e487b7160e01b600052603260045260246000fd5b6020026020010181815250505050508080616a5590619ed2565b9150506168e0565b506000616b086064602e60009054906101000a90046001600160a01b03166001600160a01b031663ea19733c6040518163ffffffff1660e01b815260040160206040518083038186803b158015616ab357600080fd5b505afa158015616ac7573d6000803e3d6000fd5b505050506040513d601f19601f82011682018060405250810190616aeb91906188ad565b8651616af79190619e35565b616b019190619e21565b6001617ca5565b9050600083600081518110616b2d57634e487b7160e01b600052603260045260246000fd5b6020026020010151905060005b8451811015616c23576000805b8651811015616bd857616ba8878481518110616b7357634e487b7160e01b600052603260045260246000fd5b6020026020010151888381518110616b9b57634e487b7160e01b600052603260045260246000fd5b6020026020010151613a9e565b15616bc657616bb8600183619e09565b9150848210616bc657616bd8565b80616bd081619ed2565b915050616b47565b50838110616c1057858281518110616c0057634e487b7160e01b600052603260045260246000fd5b6020026020010151925050616c23565b5080616c1b81619ed2565b915050616b3a565b50600083600081518110616c4757634e487b7160e01b600052603260045260246000fd5b6020026020010151905060005b8451811015616d36576000805b8651811015616ceb57868181518110616c8a57634e487b7160e01b600052603260045260246000fd5b6020026020010151878481518110616cb257634e487b7160e01b600052603260045260246000fd5b60200260200101511415616cd957616ccb600183619e09565b9150858210616cd957616ceb565b80616ce381619ed2565b915050616c61565b50848110616d2357858281518110616d1357634e487b7160e01b600052603260045260246000fd5b6020026020010151925050616d36565b5080616d2e81619ed2565b915050616c54565b506000616d428861207a565b905060005b87518110156172db576000888281518110616d7257634e487b7160e01b600052603260045260246000fd5b60209081029190910181015160008c8152600c835260408082206001600160a01b0384168352845280822054600b85528183208f845290945290205490925060ff16616dbd83616584565b6001600160a01b038316600090815260156020526040902081156171bb576001600160a01b038416600090815260156020526040812060028101805460ff19166001908117909155600390910191909155861515148015616e1e5750826001145b80616e33575085158015616e33575082600114155b1561711d57602c546040516308c0a84360e11b81526000916001600160a01b031690631181508690616e69908890600401618ad9565b60206040518083038186803b158015616e8157600080fd5b505afa158015616e95573d6000803e3d6000fd5b505050506040513d601f19601f82011682018060405250810190616eb991906185b2565b602a54602e5460408051630b08bfd960e01b815290519394506001600160a01b0392831693631b6d990a938d931691630b08bfd9916004808301926020929190829003018186803b158015616f0d57600080fd5b505afa158015616f21573d6000803e3d6000fd5b505050506040513d601f19601f82011682018060405250810190616f4591906188ad565b616f4f9190619e35565b836040518363ffffffff1660e01b8152600401616f6d929190619ca9565b602060405180830381600087803b158015616f8757600080fd5b505af1158015616f9b573d6000803e3d6000fd5b505050506040513d601f19601f82011682018060405250810190616fbf91906187a3565b616fdb5760405162461bcd60e51b8152600401610ef3906192c0565b602b54602e54604080516307c06f0560e51b815290516001600160a01b039384169363e0ca5094938d9391169163f80de0a091600480820192602092909190829003018186803b15801561702e57600080fd5b505afa158015617042573d6000803e3d6000fd5b505050506040513d601f19601f8201168201806040525081019061706691906188ad565b6170709190619e35565b836040518363ffffffff1660e01b815260040161708e929190619c92565b602060405180830381600087803b1580156170a857600080fd5b505af11580156170bc573d6000803e3d6000fd5b505050506040513d601f19601f820116820180604052508101906170e091906187a3565b6170fc5760405162461bcd60e51b8152600401610ef390619125565b60018260070160008282546171119190619e09565b90915550617138915050565b60018160080160008282546171329190619e09565b90915550505b600581015460ff16156171b65761714e846166dc565b15801561716557506005810154610100900460ff16155b156171b657601a80546001810182556000919091527f057c384a7d1c54f3a1b2e5e67b2617b8224fdfd1ea7234eea573a6ff665ff63e0180546001600160a01b0319166001600160a01b0386161790555b6172c4565b6005810154610100900460ff16806171d1575081155b156172c4576001600160a01b0384166000908152601560205260408120600301805460019290617202908490619e09565b9091555050602e5460408051634fda48fb60e11b815290516001600160a01b0390921691639fb491f691600480820192602092909190829003018186803b15801561724c57600080fd5b505afa158015617260573d6000803e3d6000fd5b505050506040513d601f19601f8201168201806040525081019061728491906188ad565b6001600160a01b03851660009081526015602052604090206003015414156172c45760058101805460ff191690556172bb84617b5f565b6172c484616584565b5050505080806172d390619ed2565b915050616d47565b50600088815260146020908152604090912060048101805461ff0019166101001790558451617312926009909201918601906183a3565b506000888152601460205260409020600a01829055801561776f57600088815260146020526040812080546001909101549091906173509083619e09565b9050815b8181101561764b5760008181526013602052604080822060010154602c5491516308c0a84360e11b81526001600160a01b039182169392909116906311815086906173a3908590600401618ad9565b60206040518083038186803b1580156173bb57600080fd5b505afa1580156173cf573d6000803e3d6000fd5b505050506040513d601f19601f820116820180604052508101906173f391906185b2565b602a54602e546040805163abb10b9b60e01b815290519394506001600160a01b0392831693631b6d990a938c93169163abb10b9b916004808301926020929190829003018186803b15801561744757600080fd5b505afa15801561745b573d6000803e3d6000fd5b505050506040513d601f19601f8201168201806040525081019061747f91906188ad565b6174899190619e35565b836040518363ffffffff1660e01b81526004016174a7929190619ca9565b602060405180830381600087803b1580156174c157600080fd5b505af11580156174d5573d6000803e3d6000fd5b505050506040513d601f19601f820116820180604052508101906174f991906187a3565b6175155760405162461bcd60e51b8152600401610ef3906193b5565b602b54602e54604080516330c0bb7960e01b815290516001600160a01b039384169363e0ca5094938c939116916330c0bb7991600480820192602092909190829003018186803b15801561756857600080fd5b505afa15801561757c573d6000803e3d6000fd5b505050506040513d601f19601f820116820180604052508101906175a091906188ad565b6175aa9190619e35565b836040518363ffffffff1660e01b81526004016175c8929190619c92565b602060405180830381600087803b1580156175e257600080fd5b505af11580156175f6573d6000803e3d6000fd5b505050506040513d601f19601f8201168201806040525081019061761a91906187a3565b6176365760405162461bcd60e51b8152600401610ef390619553565b5050808061764390619ed2565b915050617354565b5060008a8152601460205260408120600b01805460ff19166001908117909155602480549192909161767e908490619e09565b9091555050602d546040516348257dc960e01b81526001600160a01b03909116906348257dc9906176b3908d90600401618aa6565b600060405180830381600087803b1580156176cd57600080fd5b505af19250505080156176de575060015b61774f573d80801561770c576040519150601f19603f3d011682016040523d82523d6000602084013e617711565b606091505b507f4b87bbd93ba65ede1e2efeca735d9f7a6720bf7d6db0a8355b17dba5b64e5783816040516177419190618bf0565b60405180910390a150617768565b6001602360008282546177629190619e09565b90915550505b50506177a4565b6000888152601460205260408120600b01805460ff19166002179055602580546001929061779e908490619e09565b90915550505b6001602360008282546177b79190619e09565b909155505060008881526014602052604081206002015460268054919290916177e1908490619e09565b9091555050600088815260146020526040812060030154602780549192909161780b908490619e09565b909155505060008881526013602052604090819020600181015491516001600160a01b03909216917f43916c3ae75995d24cc89b466ed08e6dba74d325f7957f9b37b05f150e12918e9161785e91618cdb565b60405180910390a25050505050505050565b602e5460408051632abe0d5f60e11b815290516000926001600160a01b03169163557c1abe916004808301926020929190829003018186803b1580156178b557600080fd5b505afa9250505080156178e5575060408051601f3d908101601f191682019092526178e2918101906185b2565b60015b617956573d808015617913576040519150601f19603f3d011682016040523d82523d6000602084013e617918565b606091505b507f4b87bbd93ba65ede1e2efeca735d9f7a6720bf7d6db0a8355b17dba5b64e5783816040516179489190618bf0565b60405180910390a150617958565b505b602e60009054906101000a90046001600160a01b03166001600160a01b031663557c1abe6040518163ffffffff1660e01b815260040160206040518083038186803b1580156179a657600080fd5b505afa1580156179ba573d6000803e3d6000fd5b505050506040513d601f19601f820116820180604052508101906179de91906185b2565b90506001600160a01b038116617a065760405162461bcd60e51b8152600401610ef3906190ee565b6000816001600160a01b031633604051602401617a239190618ad9565b60408051601f198184030181529181526020820180516001600160e01b0316631f5ac9c560e11b17905251617a589190618aaf565b6000604051808303816000865af19150503d8060008114617a95576040519150601f19603f3d011682016040523d82523d6000602084013e617a9a565b606091505b505090506000826001600160a01b031633604051602401617abb9190618ad9565b60408051601f198184030181529181526020820180516001600160e01b03166358563d2160e01b17905251617af09190618aaf565b6000604051808303816000865af19150503d8060008114617b2d576040519150601f19603f3d011682016040523d82523d6000602084013e617b32565b606091505b505090508180617b3f5750805b6166d75760405162461bcd60e51b8152600401610ef390618e74565b3390565b60008060005b601a54811015617bd357836001600160a01b0316601a8281548110617b9a57634e487b7160e01b600052603260045260246000fd5b6000918252602090912001546001600160a01b03161415617bc15760019150809250617bd3565b80617bcb81619ed2565b915050617b65565b5080156166d757601a8054617bea90600190619e54565b81548110617c0857634e487b7160e01b600052603260045260246000fd5b600091825260209091200154601a80546001600160a01b039092169184908110617c4257634e487b7160e01b600052603260045260246000fd5b9060005260206000200160006101000a8154816001600160a01b0302191690836001600160a01b03160217905550601a8054806166b457634e487b7160e01b600052603160045260246000fd5b6000818310617c9e5781611dff565b5090919050565b600081831015617c9e5781611dff565b6000611dff8284619e09565b600080805b601b54811015611abd57836001600160a01b0316601b8281548110617cfb57634e487b7160e01b600052603260045260246000fd5b6000918252602090912001546001600160a01b03161415617d1f5760019150611abd565b80617d2981619ed2565b915050617cc6565b600080546001600160a01b038381166001600160a01b0319831681178455604051919092169283917f8be0079c531659141344cd1fd0a4f28419497f9722a3daafe3b4186f6b6457e09190a35050565b805160609060005b81811015617dcf5780848281518110617db257634e487b7160e01b600052603260045260246000fd5b602090810291909101015280617dc781619ed2565b915050617d89565b509192915050565b60606000825111617dfa5760405162461bcd60e51b8152600401610ef390619064565b81518060005b81811015617f7557600083617e13613b57565b878481518110617e3357634e487b7160e01b600052603260045260246000fd5b6020026020010151604051602001617e4c929190618acb565b6040516020818303038152906040528051906020012060001c617e6f9190619eed565b617e7a906001619e09565b9050600086617e8a600184619e54565b81518110617ea857634e487b7160e01b600052603260045260246000fd5b6020026020010151905086600186617ec09190619e54565b81518110617ede57634e487b7160e01b600052603260045260246000fd5b602002602001015187600184617ef49190619e54565b81518110617f1257634e487b7160e01b600052603260045260246000fd5b60209081029190910101528087617f2a600188619e54565b81518110617f4857634e487b7160e01b600052603260045260246000fd5b6020908102919091010152617f5e600186619e54565b945050508080617f6d90619ed2565b915050617e00565b50929392505050565b6029546040516304ada21f60e21b81526001600160a01b03909116906312b6887c90617fb09085908590600401619c92565b602060405180830381600087803b158015617fca57600080fd5b505af1158015617fde573d6000803e3d6000fd5b505050506040513d601f19601f8201168201806040525081019061800291906187a3565b61801e5760405162461bcd60e51b8152600401610ef390619174565b6001600160a01b03811660009081526017602052604081208054849290618046908490619e09565b92505081905550806001600160a01b03167f5aa5d56140767016c877a5333ac3e1ad31a09051098a8fdf7297c4b64530a94283604051615c919190618aa6565b60005b601c5481101561812d576000601c82815481106180b657634e487b7160e01b600052603260045260246000fd5b60009182526020808320909101546001600160a01b03168083526015909152604090912060058101549192509060ff1680156180f457506001810154155b156181185760058101805461ffff1916905561810f82617b5f565b61811882616584565b5050808061812590619ed2565b915050618089565b506133f7601c60006184b5565b6000601f5460215461814c9190619e54565b9050602e60009054906101000a90046001600160a01b03166001600160a01b031663e3115d3c6040518163ffffffff1660e01b815260040160206040518083038186803b15801561819c57600080fd5b505afa1580156181b0573d6000803e3d6000fd5b505050506040513d601f19601f820116820180604052508101906181d491906188ad565b811115611c575760005b602e54604080516307d630cb60e41b81529051618262926001600160a01b031691637d630cb0916004808301926020929190829003018186803b15801561822457600080fd5b505afa158015618238573d6000803e3d6000fd5b505050506040513d601f19601f8201168201806040525081019061825c91906188ad565b83617c8f565b811015612c2e57601f546000908152601460205260408120805460019091015490919061828f9083619e09565b9050815b818110156182b6576182a4816122c6565b806182ae81619ed2565b915050618293565b506182c2601f54612c32565b601f546040517f72c2fcc891fe835b86fc8bb9abdc52adf52499c52289b3c49e1461eabea2717590600090a2505080806182fb90619ed2565b9150506181de565b50805461830f90619e97565b6000825580601f106183215750611c57565b601f016020900490600052602060002090810190611c5791906184cf565b6040518060e001604052806060815260200160006001600160a01b03168152602001600081526020016000815260200160608152602001606081526020016000600381111561839e57634e487b7160e01b600052602160045260246000fd5b905290565b8280546183af90619e97565b90600052602060002090601f0160209004810192826183d15760008555618417565b82601f106183ea57805160ff1916838001178555618417565b82800160010185558215618417579182015b828111156184175782518255916020019190600101906183fc565b506184239291506184cf565b5090565b604051806101c00160405280600081526020016000815260200160008152602001600081526020016000151581526020016000151581526020016000151581526020016000815260200160008152602001600081526020016000815260200160608152602001600081526020016000600381111561839e57634e487b7160e01b600052602160045260246000fd5b5080546000825590600052602060002090810190611c5791905b5b8082111561842357600081556001016184d0565b60008083601f8401126184f5578182fd5b5081356001600160401b0381111561850b578182fd5b602083019150836020808302850101111561852557600080fd5b9250929050565b600082601f83011261853c578081fd5b81356001600160401b0381111561855557618555619f2d565b618568601f8201601f1916602001619db1565b81815284602083860101111561857c578283fd5b816020850160208301379081016020019190915292915050565b6000602082840312156185a7578081fd5b8135611dff81619f43565b6000602082840312156185c3578081fd5b8151611dff81619f43565b600080604083850312156185e0578081fd5b82356185eb81619f43565b946020939093013593505050565b60008060006060848603121561860d578081fd5b833561861881619f43565b95602085013595506040909401359392505050565b600080600080600060808688031215618644578081fd5b85356001600160401b038082111561865a578283fd5b818801915088601f83011261866d578283fd5b8135602061868261867d83619dda565b619db1565b82815281810190858301875b858110156186b7576186a58f8684358b010161852c565b8452928401929084019060010161868e565b50909a505050890135925050808211156186cf578283fd5b6186db89838a016184e4565b90965094506040880135935060608801359150808211156186fa578283fd5b506187078882890161852c565b9150509295509295909350565b60006020808385031215618726578182fd5b82356001600160401b0381111561873b578283fd5b8301601f8101851361874b578283fd5b803561875961867d82619dda565b8181528381019083850185840285018601891015618775578687fd5b8694505b83851015618797578035835260019490940193918501918501618779565b50979650505050505050565b6000602082840312156187b4578081fd5b81518015158114611dff578182fd5b6000806000604084860312156187d7578283fd5b83356001600160401b03808211156187ed578485fd5b818601915086601f830112618800578485fd5b81358181111561880e578586fd5b87602082850101111561881f578586fd5b6020928301989097509590910135949350505050565b60008060408385031215618847578182fd5b82356001600160401b038082111561885d578384fd5b6188698683870161852c565b9350602085013591508082111561887e578283fd5b5061888b8582860161852c565b9150509250929050565b6000602082840312156188a6578081fd5b5035919050565b600060208284031215611f1b578081fd5b600080604083850312156188d0578182fd5b8235915060208301356188e281619f43565b809150509250929050565b600080600080600060a08688031215618904578283fd5b853594506020860135935060408601356001600160401b0380821115618928578485fd5b61893489838a0161852c565b94506060880135935060808801359150808211156186fa578283fd5b60008060408385031215618962578182fd5b50508035926020909101359150565b60008060008060808587031215618986578182fd5b8435935060208501359250604085013561899f81619f43565b9396929550929360600135925050565b6000806000606084860312156189c3578081fd5b505081359360208301359350604090920135919050565b15159052565b600081518084526189f8816020860160208601619e6b565b601f01601f19169290920160200192915050565b60048110618a2a57634e487b7160e01b600052602160045260246000fd5b9052565b600a8152690c6dedadad2e890c2e6d60b31b602082015260400190565b60098152686e756d546f6b656e7360b81b602082015260400190565b60609190911b6bffffffffffffffffffffffff1916815260140190565b60609290921b6bffffffffffffffffffffffff19168252601482015260340190565b90815260200190565b60008251618ac1818460208701619e6b565b9190910192915050565b918252602082015260400190565b6001600160a01b0391909116815260200190565b6001600160a01b039a909a168a5260208a0198909852951515604089015260608801949094526080870192909252151560a0860152151560c085015260e08401526101008301526101208201526101400190565b6000602080830181845280855180835260408601915060408482028701019250838701855b82811015618b9457603f19888603018452618b828583516189e0565b94509285019290850190600101618b66565b5092979650505050505050565b6020808252825182820181905260009190848201906040850190845b81811015618bd957835183529284019291840191600101618bbd565b50909695505050505050565b901515815260200190565b600060208252611dff60208301846189e0565b6000604082528360408301528385606084013780606085840101526060601f19601f8601168301019050826020830152949350505050565b600060e08252618c4e60e083018a6189e0565b6001600160a01b038916602084015260408301889052606083018790528281036080840152618c7d81876189e0565b905082810360a0840152618c9181866189e0565b915050618ca160c0830184618a0c565b98975050505050505050565b600060408252618cc060408301856189e0565b8281036020840152618cd281856189e0565b95945050505050565b6000602080835281845483600282049050600180831680618cfd57607f831692505b858310811415618d1b57634e487b7160e01b87526022600452602487fd5b618d2783878a01618aa6565b818015618d3b5760018114618d4c57618d76565b60ff19861682528782019650618d76565b618d558b619dfd565b895b86811015618d7057815484820152908501908901618d57565b83019750505b50949998505050505050505050565b6020808252601c908201527f576f726b657220697320616c7265616479207265676973746572656400000000604082015260600190565b60208082526031908201527f676976656e204461746142617463682073686f756c6420626520415050524f5660408201527011510b08185b99081a5d081a5cc81b9bdd607a1b606082015260800190565b60208082526041908201527f576f726b657220686173206e6f7420656e6f75676820285f6e756d546f6b656e60408201527f732920696e206869732053706f745374616b6564546f6b656e42616c616e63656060820152600160fd1b608082015260a00190565b60208082526025908201527f72656365697665722072656a6563746564205f7265747269657665534675656c6040820152640818d85b1b60da1b606082015260800190565b6020808252602f908201527f636f6d6d697420706572696f64206e6565647320746f206265206f70656e206660408201526e1bdc881d1a1a5cc818985d18da1259608a1b606082015260800190565b6020808252605c908201527f4e6f74207468652073616d6520766f7465207468616e2077686174207761732060408201527f636f6d6d697465642c20696d706f737369626c6520746f206d6174636820776960608201527f746820676976656e205f73616c742026205f766f74654f7074696f6e00000000608082015260a00190565b60208082526026908201527f4f776e61626c653a206e6577206f776e657220697320746865207a65726f206160408201526564647265737360d01b606082015260800190565b60208082526029908201527f6b206f72204e20617265206e6f74204f4b20647572696e672072616e646f6d2060408201526839b2b632b1ba34b7b760b91b606082015260800190565b6020808252602a908201527f4661696c20647572696e6720616c6c6f636174696f6e3a206e6f7420656e6f75604082015269676820776f726b65727360b01b606082015260800190565b60208082526013908201527205f6d7941727261792e6c656e677468203e203606c1b604082015260600190565b60208082526038908201527f55736572206e6565647320746f20626520616c6c6f636174656420746f20746860408201527f697320626174636820746f20636f6d6d6974206f6e2069740000000000000000606082015260800190565b6020808252601d908201527f734675656c3a206e756c6c2041646472657373204e6f742056616c6964000000604082015260600190565b6020808252602f908201527f636f756c64206e6f742072657761726420746f6b656e20696e2054726967676560408201526e3921b432b1b5a9b837ba161018973160891b606082015260800190565b6020808252603f908201527f436f756c64206e6f74207265717565737420656e6f75676820616c6c6f63617460408201527f6564207374616b652c2072657175657374416c6c6f63617465645374616b6500606082015260800190565b6020808252602f908201527f5573657220686173206e6f7420636f6d6d69746564206265666f72652c20746860408201526e1d5cc818d85b89dd081c995d99585b608a1b606082015260800190565b6020808252602a908201527f53706f7474696e67206973206e6f742063757272656e746c7920656e61626c656040820152693210313c9027bbb732b960b11b606082015260800190565b60208082526036908201527f476c6f62616c206c696d69743a206578636565646564206d61782064617461206040820152753832b9103437bab916103932ba393c903630ba32b91760511b606082015260800190565b6020808252602d908201527f636f756c64206e6f74207265776172642052455020696e20547269676765724360408201526c6865636b53706f742c20312e6160981b606082015260800190565b60208082526039908201527f646c6c4d61703a20646f6573206e6f7420636f696e7461696e205f446174614260408201527f61746368496420666f7220746865206d73672073656e64657200000000000000606082015260800190565b6020808252602b908201527f75736572206d75737420686176652072657665616c656420696e20746869732060408201526a0ced2eccadc4084c2e8c6d60ab1b606082015260800190565b6020808252602e908201527f636f756c64206e6f74207265776172642052455020696e2056616c696461746560408201526d4461746142617463682c20322e6160901b606082015260800190565b60208082526005908201526404e203e20360dc1b604082015260600190565b6020808252601490820152733737ba1030903b30b634b2103837b9b4ba34b7b760611b604082015260600190565b6020808252603b908201527f43616e277420616c6c6f6361746520776f726b2c207468652063757272656e7460408201527f20626174636820697320616c726561647920616c6c6f63617465640000000000606082015260800190565b6020808252602c908201527f576f726b6572206973206e6f74207265676973746572656420736f2063616e2760408201526b3a103ab73932b3b4b9ba32b960a11b606082015260800190565b6020808252600b908201526a04e5f72616e6765203e20360ac1b604082015260600190565b6020808252818101527f4f776e61626c653a2063616c6c6572206973206e6f7420746865206f776e6572604082015260600190565b60208082526030908201527f636f756c64206e6f742072657761726420746f6b656e20696e2056616c69646160408201526f3a32a230ba30a130ba31b4161019173160811b606082015260800190565b6020808252603a908201527f5f446174614261746368496420686173206e6f7420656e6465642c206f72206e60408201527f6f7420657665727920766f74657273206861766520766f746564000000000000606082015260800190565b60208082526029908201527f6765744e756d50617373696e67546f6b656e733a20686173686573206d75737460408201526808189948195c5d585b60ba1b606082015260800190565b60208082526036908201527f43616e277420616c6c6f6361746520776f726b2c207468652063757272656e74604082015275206261746368206973206e6f7420636f6d706c65746560501b606082015260800190565b60208082526026908201527f52657665616c20706572696f64206e6f74206f70656e20666f7220746869732060408201526511185d18525160d21b606082015260800190565b60208082526027908201527f617661696c61626c65546f6b656e732073686f756c64206265203e3d205f6e756040820152666d546f6b656e7360c81b606082015260800190565b60208082526017908201527f5f4461746142617463684964206d757374206578697374000000000000000000604082015260600190565b60208082526021908201527f5f446174614261746368496420697320616c72656164792076616c69646174656040820152601960fa1b606082015260800190565b6020808252602d908201527f53706f7474696e673a20696e70757420617272617973206d757374206265206f60408201526c0cc40e6c2daca40d8cadccee8d609b1b606082015260800190565b60208082526029908201527f557365722068617320616c726561647920636f6d6d6974656420746f207468696040820152681cc818985d18da125960ba1b606082015260800190565b60208082526022908201527f4d6178696d756d207265676973746572656420776f726b65727320616c726561604082015261647960f01b606082015260800190565b6020808252606c908201527f5573657220686173206e6f7420766f746564206d616e792074696d657320696e60408201527f206120726f7720616e64206e6565647320746f2077616974204e4f564f54455f60608201527f524547495354524154494f4e5f574149545f4455524154494f4e20746f20726560808201526b33b4b9ba32b91030b3b0b4b760a11b60a082015260c00190565b6020808252602a908201527f5f446174614261746368496420636865636b696e6720766f7465206d757374206040820152691a185d9948195b99195960b21b606082015260800190565b6020808252603b908201527f436f756c64206e6f74207769746864726177566f74696e67526967687473207460408201527f68726f7567682050726f78795374616b654465616c6c6f636174650000000000606082015260800190565b60208082526034908201527f55736572206c696d69743a206578636565646564206d6178206461746120706560408201527339103437bab916103932ba393c903630ba32b91760611b606082015260800190565b6020808252600f908201526e11185d18481b5d5cdd08195e1a5cdd608a1b604082015260600190565b6020808252602c908201527f557365722068617320616c72656164792072657665616c65642c20746875732060408201526b18d85b89dd081c995d99585b60a21b606082015260800190565b600060208252825160208301526020830151604083015260408301516060830152606083015160808301526080830151619ac160a08401826189da565b5060a0830151619ad460c08401826189da565b5060c0830151619ae760e08401826189da565b5060e0830151610100838101919091528301516101208084019190915283015161014080840191909152830151610160808401919091528301516101c0610180808501829052619b3b6101e08601846189e0565b908601516101a0868101919091528601519092506151f982860182618a0c565b600083825282602083015260606040830152615a8160608301618a2e565b600084825283602083015260806040830152619b9760808301618a2e565b9050826060830152949350505050565b600083825282602083015260606040830152615a8160608301618a4b565b600084825283602083015260806040830152619b9760808301618a4b565b93845260208401929092526040830152606082015260800190565b600060208252825160e06020840152619c1b6101008401826189e0565b905060018060a01b03602085015116604084015260408401516060840152606084015160808401526080840151601f19808584030160a0860152619c5f83836189e0565b925060a08601519150808584030160c086015250619c7d82826189e0565b91505060c084015161105f60e0850182618a0c565b9182526001600160a01b0316602082015260400190565b9182526001600160a01b031660208201526000604082015260600190565b9283526020830191909152604082015260600190565b60008f82528e60208301528d60408301528c60608301528b151560808301528a151560a0830152619d1160c083018b6189da565b8860e08301528761010083015286610120830152856101408301526101c0610160830152619d436101c08301866189e0565b905083610180830152619d5a6101a0830184618a0c565b9f9e505050505050505050505050505050565b6000808335601e19843603018112619d83578283fd5b8301803591506001600160401b03821115619d9c578283fd5b60200191503681900382131561852557600080fd5b6040518181016001600160401b0381118282101715619dd257619dd2619f2d565b604052919050565b60006001600160401b03821115619df357619df3619f2d565b5060209081020190565b60009081526020902090565b60008219821115619e1c57619e1c619f01565b500190565b600082619e3057619e30619f17565b500490565b6000816000190483118215151615619e4f57619e4f619f01565b500290565b600082821015619e6657619e66619f01565b500390565b60005b83811015619e86578181015183820152602001619e6e565b838111156125475750506000910152565b600281046001821680619eab57607f821691505b60208210811415619ecc57634e487b7160e01b600052602260045260246000fd5b50919050565b6000600019821415619ee657619ee6619f01565b5060010190565b600082619efc57619efc619f17565b500690565b634e487b7160e01b600052601160045260246000fd5b634e487b7160e01b600052601260045260246000fd5b634e487b7160e01b600052604160045260246000fd5b6001600160a01b0381168114611c5757600080fdfea2646970667358221220105b071c3ad4b951a5714eee5cb446b2d001532833631a027857921c5117934a64736f6c63430008000033",
  "linkReferences": {
    "contracts/worksystems/DataSpotting.sol": {
      "AttributeStore": [
        {
          "length": 20,
          "start": 20452
        },
        {
          "length": 20,
          "start": 20558
        },
        {
          "length": 20,
          "start": 20986
        },
        {
          "length": 20,
          "start": 21996
        }
      ],
      "DLL": [
        {
          "length": 20,
          "start": 4894
        },
        {
          "length": 20,
          "start": 7730
        },
        {
          "length": 20,
          "start": 7902
        },
        {
          "length": 20,
          "start": 8446
        },
        {
          "length": 20,
          "start": 14686
        },
        {
          "length": 20,
          "start": 14866
        },
        {
          "length": 20,
          "start": 19972
        },
        {
          "length": 20,
          "start": 20134
        },
        {
          "length": 20,
          "start": 20329
        }
      ]
    }
  },
  "deployedLinkReferences": {
    "contracts/worksystems/DataSpotting.sol": {
      "AttributeStore": [
        {
          "length": 20,
          "start": 20097
        },
        {
          "length": 20,
          "start": 20203
        },
        {
          "length": 20,
          "start": 20631
        },
        {
          "length": 20,
          "start": 21641
        }
      ],
      "DLL": [
        {
          "length": 20,
          "start": 4539
        },
        {
          "length": 20,
          "start": 7375
        },
        {
          "length": 20,
          "start": 7547
        },
        {
          "length": 20,
          "start": 8091
        },
        {
          "length": 20,
          "start": 14331
        },
        {
          "length": 20,
          "start": 14511
        },
        {
          "length": 20,
          "start": 19617
        },
        {
          "length": 20,
          "start": 19779
        },
        {
          "length": 20,
          "start": 19974
        }
      ]
    }
  }
}