{
  "_format": "hh-sol-artifact-1",
  "contractName": "DataSpotting",
  "sourceName": "contracts/worksystems/DataSpotting.sol",
  "abi": [
    {
      "inputs": [
        {
          "internalType": "address",
          "name": "EXDT_token_",
          "type": "address"
        }
      ],
      "stateMutability": "nonpayable",
      "type": "constructor"
    },
    {
      "anonymous": false,
      "inputs": [
        {
          "indexed": false,
          "internalType": "bytes",
          "name": "bytesFailure",
          "type": "bytes"
        }
      ],
      "name": "BytesFailure",
      "type": "event"
    },
    {
      "anonymous": false,
      "inputs": [
        {
          "indexed": true,
          "internalType": "address",
          "name": "previousOwner",
          "type": "address"
        },
        {
          "indexed": true,
          "internalType": "address",
          "name": "newOwner",
          "type": "address"
        }
      ],
      "name": "OwnershipTransferred",
      "type": "event"
    },
    {
      "anonymous": false,
      "inputs": [
        {
          "indexed": true,
          "internalType": "uint256",
          "name": "DataID",
          "type": "uint256"
        },
        {
          "indexed": false,
          "internalType": "string",
          "name": "file_hash",
          "type": "string"
        },
        {
          "indexed": false,
          "internalType": "bool",
          "name": "isVotePassed",
          "type": "bool"
        }
      ],
      "name": "_BatchValidated",
      "type": "event"
    },
    {
      "anonymous": false,
      "inputs": [
        {
          "indexed": true,
          "internalType": "uint256",
          "name": "batchID",
          "type": "uint256"
        }
      ],
      "name": "_DataBatchDeleted",
      "type": "event"
    },
    {
      "anonymous": false,
      "inputs": [
        {
          "indexed": true,
          "internalType": "uint256",
          "name": "DataID",
          "type": "uint256"
        },
        {
          "indexed": false,
          "internalType": "uint256",
          "name": "numTokens",
          "type": "uint256"
        },
        {
          "indexed": true,
          "internalType": "address",
          "name": "voter",
          "type": "address"
        }
      ],
      "name": "_SpotCheckCommitted",
      "type": "event"
    },
    {
      "anonymous": false,
      "inputs": [
        {
          "indexed": true,
          "internalType": "uint256",
          "name": "DataID",
          "type": "uint256"
        },
        {
          "indexed": false,
          "internalType": "uint256",
          "name": "numTokens",
          "type": "uint256"
        },
        {
          "indexed": false,
          "internalType": "uint256",
          "name": "votesFor",
          "type": "uint256"
        },
        {
          "indexed": false,
          "internalType": "uint256",
          "name": "votesAgainst",
          "type": "uint256"
        },
        {
          "indexed": true,
          "internalType": "uint256",
          "name": "choice",
          "type": "uint256"
        },
        {
          "indexed": true,
          "internalType": "address",
          "name": "voter",
          "type": "address"
        }
      ],
      "name": "_SpotCheckRevealed",
      "type": "event"
    },
    {
      "anonymous": false,
      "inputs": [
        {
          "indexed": true,
          "internalType": "uint256",
          "name": "DataID",
          "type": "uint256"
        },
        {
          "indexed": false,
          "internalType": "string",
          "name": "file_hash",
          "type": "string"
        },
        {
          "indexed": false,
          "internalType": "string",
          "name": "URL_domain",
          "type": "string"
        },
        {
          "indexed": true,
          "internalType": "address",
          "name": "sender",
          "type": "address"
        }
      ],
      "name": "_SpotSubmitted",
      "type": "event"
    },
    {
      "anonymous": false,
      "inputs": [
        {
          "indexed": false,
          "internalType": "uint256",
          "name": "numTokens",
          "type": "uint256"
        },
        {
          "indexed": true,
          "internalType": "address",
          "name": "voter",
          "type": "address"
        }
      ],
      "name": "_StakeAllocated",
      "type": "event"
    },
    {
      "anonymous": false,
      "inputs": [
        {
          "indexed": true,
          "internalType": "uint256",
          "name": "DataID",
          "type": "uint256"
        },
        {
          "indexed": true,
          "internalType": "address",
          "name": "voter",
          "type": "address"
        }
      ],
      "name": "_TokensRescued",
      "type": "event"
    },
    {
      "anonymous": false,
      "inputs": [
        {
          "indexed": false,
          "internalType": "uint256",
          "name": "numTokens",
          "type": "uint256"
        },
        {
          "indexed": true,
          "internalType": "address",
          "name": "voter",
          "type": "address"
        }
      ],
      "name": "_VotingRightsWithdrawn",
      "type": "event"
    },
    {
      "anonymous": false,
      "inputs": [
        {
          "indexed": true,
          "internalType": "uint256",
          "name": "batchID",
          "type": "uint256"
        },
        {
          "indexed": false,
          "internalType": "address",
          "name": "worker",
          "type": "address"
        }
      ],
      "name": "_WorkAllocated",
      "type": "event"
    },
    {
      "anonymous": false,
      "inputs": [
        {
          "indexed": true,
          "internalType": "address",
          "name": "worker",
          "type": "address"
        },
        {
          "indexed": false,
          "internalType": "uint256",
          "name": "timestamp",
          "type": "uint256"
        }
      ],
      "name": "_WorkerRegistered",
      "type": "event"
    },
    {
      "anonymous": false,
      "inputs": [
        {
          "indexed": true,
          "internalType": "address",
          "name": "worker",
          "type": "address"
        },
        {
          "indexed": false,
          "internalType": "uint256",
          "name": "timestamp",
          "type": "uint256"
        }
      ],
      "name": "_WorkerUnregistered",
      "type": "event"
    },
    {
      "inputs": [],
      "name": "AcceptedBatchsCounter",
      "outputs": [
        {
          "internalType": "uint256",
          "name": "",
          "type": "uint256"
        }
      ],
      "stateMutability": "view",
      "type": "function"
    },
    {
      "inputs": [],
      "name": "AllTxsCounter",
      "outputs": [
        {
          "internalType": "uint256",
          "name": "",
          "type": "uint256"
        }
      ],
      "stateMutability": "view",
      "type": "function"
    },
    {
      "inputs": [],
      "name": "AllocatedBatchCursor",
      "outputs": [
        {
          "internalType": "uint256",
          "name": "",
          "type": "uint256"
        }
      ],
      "stateMutability": "view",
      "type": "function"
    },
    {
      "inputs": [],
      "name": "AmIRegistered",
      "outputs": [
        {
          "internalType": "bool",
          "name": "passed",
          "type": "bool"
        }
      ],
      "stateMutability": "view",
      "type": "function"
    },
    {
      "inputs": [
        {
          "internalType": "string",
          "name": "_a",
          "type": "string"
        },
        {
          "internalType": "string",
          "name": "_b",
          "type": "string"
        }
      ],
      "name": "AreStringsEqual",
      "outputs": [
        {
          "internalType": "bool",
          "name": "",
          "type": "bool"
        }
      ],
      "stateMutability": "pure",
      "type": "function"
    },
    {
      "inputs": [],
      "name": "BatchCheckingCursor",
      "outputs": [
        {
          "internalType": "uint256",
          "name": "",
          "type": "uint256"
        }
      ],
      "stateMutability": "view",
      "type": "function"
    },
    {
      "inputs": [],
      "name": "BatchDeletionCursor",
      "outputs": [
        {
          "internalType": "uint256",
          "name": "",
          "type": "uint256"
        }
      ],
      "stateMutability": "view",
      "type": "function"
    },
    {
      "inputs": [
        {
          "internalType": "uint256",
          "name": "",
          "type": "uint256"
        }
      ],
      "name": "DataBatch",
      "outputs": [
        {
          "internalType": "uint256",
          "name": "start_idx",
          "type": "uint256"
        },
        {
          "internalType": "uint256",
          "name": "counter",
          "type": "uint256"
        },
        {
          "internalType": "uint256",
          "name": "uncommited_workers",
          "type": "uint256"
        },
        {
          "internalType": "uint256",
          "name": "unrevealed_workers",
          "type": "uint256"
        },
        {
          "internalType": "bool",
          "name": "complete",
          "type": "bool"
        },
        {
          "internalType": "bool",
          "name": "checked",
          "type": "bool"
        },
        {
          "internalType": "bool",
          "name": "allocated_to_work",
          "type": "bool"
        },
        {
          "internalType": "uint256",
          "name": "commitEndDate",
          "type": "uint256"
        },
        {
          "internalType": "uint256",
          "name": "revealEndDate",
          "type": "uint256"
        },
        {
          "internalType": "uint256",
          "name": "votesFor",
          "type": "uint256"
        },
        {
          "internalType": "uint256",
          "name": "votesAgainst",
          "type": "uint256"
        },
        {
          "internalType": "string",
          "name": "batchIPFSfile",
          "type": "string"
        },
        {
          "internalType": "uint256",
          "name": "item_count",
          "type": "uint256"
        },
        {
          "internalType": "enum DataSpotting.DataStatus",
          "name": "status",
          "type": "uint8"
        }
      ],
      "stateMutability": "view",
      "type": "function"
    },
    {
      "inputs": [
        {
          "internalType": "uint256",
          "name": "_DataBatchId",
          "type": "uint256"
        }
      ],
      "name": "DataCommitEndDate",
      "outputs": [
        {
          "internalType": "uint256",
          "name": "commitEndDate",
          "type": "uint256"
        }
      ],
      "stateMutability": "view",
      "type": "function"
    },
    {
      "inputs": [
        {
          "internalType": "uint256",
          "name": "_DataBatchId",
          "type": "uint256"
        }
      ],
      "name": "DataEnded",
      "outputs": [
        {
          "internalType": "bool",
          "name": "ended",
          "type": "bool"
        }
      ],
      "stateMutability": "view",
      "type": "function"
    },
    {
      "inputs": [
        {
          "internalType": "uint256",
          "name": "_DataBatchId",
          "type": "uint256"
        }
      ],
      "name": "DataExists",
      "outputs": [
        {
          "internalType": "bool",
          "name": "exists",
          "type": "bool"
        }
      ],
      "stateMutability": "view",
      "type": "function"
    },
    {
      "inputs": [],
      "name": "DataNonce",
      "outputs": [
        {
          "internalType": "uint256",
          "name": "",
          "type": "uint256"
        }
      ],
      "stateMutability": "view",
      "type": "function"
    },
    {
      "inputs": [
        {
          "internalType": "uint256",
          "name": "_DataBatchId",
          "type": "uint256"
        }
      ],
      "name": "DataRevealEndDate",
      "outputs": [
        {
          "internalType": "uint256",
          "name": "revealEndDate",
          "type": "uint256"
        }
      ],
      "stateMutability": "view",
      "type": "function"
    },
    {
      "inputs": [
        {
          "internalType": "address",
          "name": "user_",
          "type": "address"
        }
      ],
      "name": "GetCurrentWork",
      "outputs": [
        {
          "internalType": "uint256",
          "name": "",
          "type": "uint256"
        }
      ],
      "stateMutability": "view",
      "type": "function"
    },
    {
      "inputs": [
        {
          "internalType": "uint256",
          "name": "",
          "type": "uint256"
        }
      ],
      "name": "GlobalSpotFlowManager",
      "outputs": [
        {
          "internalType": "uint256",
          "name": "timestamp",
          "type": "uint256"
        },
        {
          "internalType": "uint256",
          "name": "counter",
          "type": "uint256"
        }
      ],
      "stateMutability": "view",
      "type": "function"
    },
    {
      "inputs": [],
      "name": "InstantSpotRewards",
      "outputs": [
        {
          "internalType": "bool",
          "name": "",
          "type": "bool"
        }
      ],
      "stateMutability": "view",
      "type": "function"
    },
    {
      "inputs": [],
      "name": "InstantSpotRewardsDivider",
      "outputs": [
        {
          "internalType": "uint256",
          "name": "",
          "type": "uint256"
        }
      ],
      "stateMutability": "view",
      "type": "function"
    },
    {
      "inputs": [
        {
          "internalType": "address",
          "name": "_worker",
          "type": "address"
        }
      ],
      "name": "IsInLogoffList",
      "outputs": [
        {
          "internalType": "bool",
          "name": "",
          "type": "bool"
        }
      ],
      "stateMutability": "view",
      "type": "function"
    },
    {
      "inputs": [
        {
          "internalType": "address",
          "name": "user_",
          "type": "address"
        }
      ],
      "name": "IsNewWorkAvailable",
      "outputs": [
        {
          "internalType": "bool",
          "name": "",
          "type": "bool"
        }
      ],
      "stateMutability": "view",
      "type": "function"
    },
    {
      "inputs": [],
      "name": "LastAllocationTime",
      "outputs": [
        {
          "internalType": "uint256",
          "name": "",
          "type": "uint256"
        }
      ],
      "stateMutability": "view",
      "type": "function"
    },
    {
      "inputs": [],
      "name": "LastBatchCounter",
      "outputs": [
        {
          "internalType": "uint256",
          "name": "",
          "type": "uint256"
        }
      ],
      "stateMutability": "view",
      "type": "function"
    },
    {
      "inputs": [],
      "name": "LastRandomSeed",
      "outputs": [
        {
          "internalType": "uint256",
          "name": "",
          "type": "uint256"
        }
      ],
      "stateMutability": "view",
      "type": "function"
    },
    {
      "inputs": [
        {
          "internalType": "address",
          "name": "",
          "type": "address"
        },
        {
          "internalType": "uint256",
          "name": "",
          "type": "uint256"
        }
      ],
      "name": "MasterWorkers",
      "outputs": [
        {
          "internalType": "address",
          "name": "",
          "type": "address"
        }
      ],
      "stateMutability": "view",
      "type": "function"
    },
    {
      "inputs": [],
      "name": "MaxPendingDataBatchCount",
      "outputs": [
        {
          "internalType": "uint256",
          "name": "",
          "type": "uint256"
        }
      ],
      "stateMutability": "view",
      "type": "function"
    },
    {
      "inputs": [],
      "name": "NotCommitedCounter",
      "outputs": [
        {
          "internalType": "uint256",
          "name": "",
          "type": "uint256"
        }
      ],
      "stateMutability": "view",
      "type": "function"
    },
    {
      "inputs": [],
      "name": "NotRevealedCounter",
      "outputs": [
        {
          "internalType": "uint256",
          "name": "",
          "type": "uint256"
        }
      ],
      "stateMutability": "view",
      "type": "function"
    },
    {
      "inputs": [],
      "name": "Parameters",
      "outputs": [
        {
          "internalType": "contract IParametersManager",
          "name": "",
          "type": "address"
        }
      ],
      "stateMutability": "view",
      "type": "function"
    },
    {
      "inputs": [],
      "name": "RegisterWorker",
      "outputs": [],
      "stateMutability": "nonpayable",
      "type": "function"
    },
    {
      "inputs": [],
      "name": "RejectedBatchsCounter",
      "outputs": [
        {
          "internalType": "uint256",
          "name": "",
          "type": "uint256"
        }
      ],
      "stateMutability": "view",
      "type": "function"
    },
    {
      "inputs": [],
      "name": "SPOT_TOGGLE_ENABLED",
      "outputs": [
        {
          "internalType": "bool",
          "name": "",
          "type": "bool"
        }
      ],
      "stateMutability": "view",
      "type": "function"
    },
    {
      "inputs": [
        {
          "internalType": "address",
          "name": "_worker",
          "type": "address"
        },
        {
          "internalType": "uint256",
          "name": "_TokensAmountToAllocate",
          "type": "uint256"
        }
      ],
      "name": "SelectAddressForUser",
      "outputs": [
        {
          "internalType": "address",
          "name": "",
          "type": "address"
        }
      ],
      "stateMutability": "view",
      "type": "function"
    },
    {
      "inputs": [
        {
          "internalType": "string[]",
          "name": "file_hashs",
          "type": "string[]"
        },
        {
          "internalType": "string[]",
          "name": "URL_domains",
          "type": "string[]"
        },
        {
          "internalType": "uint256",
          "name": "item_count_",
          "type": "uint256"
        },
        {
          "internalType": "string",
          "name": "extra_",
          "type": "string"
        }
      ],
      "name": "SpotData",
      "outputs": [
        {
          "internalType": "uint256",
          "name": "Dataid_",
          "type": "uint256"
        }
      ],
      "stateMutability": "nonpayable",
      "type": "function"
    },
    {
      "inputs": [
        {
          "internalType": "uint256",
          "name": "",
          "type": "uint256"
        }
      ],
      "name": "SpotsMapping",
      "outputs": [
        {
          "internalType": "string",
          "name": "ipfs_hash",
          "type": "string"
        },
        {
          "internalType": "address",
          "name": "author",
          "type": "address"
        },
        {
          "internalType": "uint256",
          "name": "timestamp",
          "type": "uint256"
        },
        {
          "internalType": "uint256",
          "name": "item_count",
          "type": "uint256"
        },
        {
          "internalType": "string",
          "name": "URL_domain",
          "type": "string"
        },
        {
          "internalType": "string",
          "name": "extra",
          "type": "string"
        },
        {
          "internalType": "enum DataSpotting.DataStatus",
          "name": "status",
          "type": "uint8"
        }
      ],
      "stateMutability": "view",
      "type": "function"
    },
    {
      "inputs": [
        {
          "internalType": "address",
          "name": "",
          "type": "address"
        }
      ],
      "name": "SystemStakedTokenBalance",
      "outputs": [
        {
          "internalType": "uint256",
          "name": "",
          "type": "uint256"
        }
      ],
      "stateMutability": "view",
      "type": "function"
    },
    {
      "inputs": [
        {
          "internalType": "uint256",
          "name": "n_iteration",
          "type": "uint256"
        }
      ],
      "name": "TriggerUpdate",
      "outputs": [],
      "stateMutability": "nonpayable",
      "type": "function"
    },
    {
      "inputs": [],
      "name": "UnregisterWorker",
      "outputs": [],
      "stateMutability": "nonpayable",
      "type": "function"
    },
    {
      "inputs": [
        {
          "internalType": "uint256",
          "name": "",
          "type": "uint256"
        },
        {
          "internalType": "address",
          "name": "",
          "type": "address"
        }
      ],
      "name": "UserBatchCounts",
      "outputs": [
        {
          "internalType": "uint256",
          "name": "",
          "type": "uint256"
        }
      ],
      "stateMutability": "view",
      "type": "function"
    },
    {
      "inputs": [
        {
          "internalType": "uint256",
          "name": "",
          "type": "uint256"
        },
        {
          "internalType": "address",
          "name": "",
          "type": "address"
        }
      ],
      "name": "UserBatchFrom",
      "outputs": [
        {
          "internalType": "string",
          "name": "",
          "type": "string"
        }
      ],
      "stateMutability": "view",
      "type": "function"
    },
    {
      "inputs": [
        {
          "internalType": "address",
          "name": "",
          "type": "address"
        },
        {
          "internalType": "uint256",
          "name": "",
          "type": "uint256"
        }
      ],
      "name": "UserChecksCommits",
      "outputs": [
        {
          "internalType": "bool",
          "name": "",
          "type": "bool"
        }
      ],
      "stateMutability": "view",
      "type": "function"
    },
    {
      "inputs": [
        {
          "internalType": "address",
          "name": "",
          "type": "address"
        },
        {
          "internalType": "uint256",
          "name": "",
          "type": "uint256"
        }
      ],
      "name": "UserChecksReveals",
      "outputs": [
        {
          "internalType": "bool",
          "name": "",
          "type": "bool"
        }
      ],
      "stateMutability": "view",
      "type": "function"
    },
    {
      "inputs": [
        {
          "internalType": "uint256",
          "name": "",
          "type": "uint256"
        },
        {
          "internalType": "address",
          "name": "",
          "type": "address"
        }
      ],
      "name": "UserNewFiles",
      "outputs": [
        {
          "internalType": "string",
          "name": "",
          "type": "string"
        }
      ],
      "stateMutability": "view",
      "type": "function"
    },
    {
      "inputs": [
        {
          "internalType": "address",
          "name": "",
          "type": "address"
        },
        {
          "internalType": "uint256",
          "name": "",
          "type": "uint256"
        }
      ],
      "name": "UserSubmissions",
      "outputs": [
        {
          "internalType": "uint256",
          "name": "",
          "type": "uint256"
        }
      ],
      "stateMutability": "view",
      "type": "function"
    },
    {
      "inputs": [
        {
          "internalType": "uint256",
          "name": "",
          "type": "uint256"
        },
        {
          "internalType": "address",
          "name": "",
          "type": "address"
        }
      ],
      "name": "UserVotes",
      "outputs": [
        {
          "internalType": "uint256",
          "name": "",
          "type": "uint256"
        }
      ],
      "stateMutability": "view",
      "type": "function"
    },
    {
      "inputs": [
        {
          "internalType": "uint256",
          "name": "",
          "type": "uint256"
        },
        {
          "internalType": "uint256",
          "name": "",
          "type": "uint256"
        }
      ],
      "name": "WorkersPerBatch",
      "outputs": [
        {
          "internalType": "address",
          "name": "",
          "type": "address"
        }
      ],
      "stateMutability": "view",
      "type": "function"
    },
    {
      "inputs": [
        {
          "internalType": "address",
          "name": "",
          "type": "address"
        },
        {
          "internalType": "uint256",
          "name": "",
          "type": "uint256"
        }
      ],
      "name": "WorkersSpotFlowManager",
      "outputs": [
        {
          "internalType": "uint256",
          "name": "timestamp",
          "type": "uint256"
        },
        {
          "internalType": "uint256",
          "name": "counter",
          "type": "uint256"
        }
      ],
      "stateMutability": "view",
      "type": "function"
    },
    {
      "inputs": [
        {
          "internalType": "address",
          "name": "",
          "type": "address"
        }
      ],
      "name": "WorkersState",
      "outputs": [
        {
          "internalType": "uint256",
          "name": "allocated_work_batch",
          "type": "uint256"
        },
        {
          "internalType": "uint256",
          "name": "succeeding_novote_count",
          "type": "uint256"
        },
        {
          "internalType": "uint256",
          "name": "last_interaction_date",
          "type": "uint256"
        },
        {
          "internalType": "bool",
          "name": "registered",
          "type": "bool"
        },
        {
          "internalType": "bool",
          "name": "unregistration_request",
          "type": "bool"
        },
        {
          "internalType": "uint256",
          "name": "registration_date",
          "type": "uint256"
        },
        {
          "internalType": "uint256",
          "name": "allocated_batch_counter",
          "type": "uint256"
        },
        {
          "internalType": "uint256",
          "name": "majority_counter",
          "type": "uint256"
        },
        {
          "internalType": "uint256",
          "name": "minority_counter",
          "type": "uint256"
        }
      ],
      "stateMutability": "view",
      "type": "function"
    },
    {
      "inputs": [
        {
          "internalType": "address",
          "name": "_user",
          "type": "address"
        },
        {
          "internalType": "uint256",
          "name": "_DataBatchId",
          "type": "uint256"
        }
      ],
      "name": "attrUUID",
      "outputs": [
        {
          "internalType": "bytes32",
          "name": "UUID",
          "type": "bytes32"
        }
      ],
      "stateMutability": "pure",
      "type": "function"
    },
    {
      "inputs": [
        {
          "internalType": "uint256",
          "name": "",
          "type": "uint256"
        }
      ],
      "name": "availableWorkers",
      "outputs": [
        {
          "internalType": "address",
          "name": "",
          "type": "address"
        }
      ],
      "stateMutability": "view",
      "type": "function"
    },
    {
      "inputs": [
        {
          "internalType": "address",
          "name": "",
          "type": "address"
        }
      ],
      "name": "availableWorkersIndex",
      "outputs": [
        {
          "internalType": "uint256",
          "name": "",
          "type": "uint256"
        }
      ],
      "stateMutability": "view",
      "type": "function"
    },
    {
      "inputs": [
        {
          "internalType": "uint256",
          "name": "",
          "type": "uint256"
        }
      ],
      "name": "busyWorkers",
      "outputs": [
        {
          "internalType": "address",
          "name": "",
          "type": "address"
        }
      ],
      "stateMutability": "view",
      "type": "function"
    },
    {
      "inputs": [
        {
          "internalType": "address",
          "name": "",
          "type": "address"
        }
      ],
      "name": "busyWorkersIndex",
      "outputs": [
        {
          "internalType": "uint256",
          "name": "",
          "type": "uint256"
        }
      ],
      "stateMutability": "view",
      "type": "function"
    },
    {
      "inputs": [
        {
          "internalType": "uint256",
          "name": "_DataBatchId",
          "type": "uint256"
        }
      ],
      "name": "commitPeriodActive",
      "outputs": [
        {
          "internalType": "bool",
          "name": "active",
          "type": "bool"
        }
      ],
      "stateMutability": "view",
      "type": "function"
    },
    {
      "inputs": [
        {
          "internalType": "uint256",
          "name": "_DataBatchId",
          "type": "uint256"
        }
      ],
      "name": "commitPeriodOver",
      "outputs": [
        {
          "internalType": "bool",
          "name": "active",
          "type": "bool"
        }
      ],
      "stateMutability": "view",
      "type": "function"
    },
    {
      "inputs": [
        {
          "internalType": "uint256",
          "name": "_DataBatchId",
          "type": "uint256"
        },
        {
          "internalType": "bytes32",
          "name": "_encryptedHash",
          "type": "bytes32"
        },
        {
          "internalType": "bytes32",
          "name": "_encryptedVote",
          "type": "bytes32"
        },
        {
          "internalType": "uint256",
          "name": "_BatchCount",
          "type": "uint256"
        },
        {
          "internalType": "string",
          "name": "_From",
          "type": "string"
        }
      ],
      "name": "commitSpotCheck",
      "outputs": [],
      "stateMutability": "nonpayable",
      "type": "function"
    },
    {
      "inputs": [
        {
          "internalType": "uint256",
          "name": "_DataId",
          "type": "uint256"
        }
      ],
      "name": "deleteData",
      "outputs": [],
      "stateMutability": "nonpayable",
      "type": "function"
    },
    {
      "inputs": [
        {
          "internalType": "uint256",
          "name": "_BatchId",
          "type": "uint256"
        }
      ],
      "name": "deleteDataBatch",
      "outputs": [],
      "stateMutability": "nonpayable",
      "type": "function"
    },
    {
      "inputs": [],
      "name": "destroyContract",
      "outputs": [],
      "stateMutability": "nonpayable",
      "type": "function"
    },
    {
      "inputs": [
        {
          "internalType": "address",
          "name": "_voter",
          "type": "address"
        },
        {
          "internalType": "uint256",
          "name": "_DataBatchId",
          "type": "uint256"
        }
      ],
      "name": "didCommit",
      "outputs": [
        {
          "internalType": "bool",
          "name": "committed",
          "type": "bool"
        }
      ],
      "stateMutability": "view",
      "type": "function"
    },
    {
      "inputs": [
        {
          "internalType": "address",
          "name": "_voter",
          "type": "address"
        },
        {
          "internalType": "uint256",
          "name": "_DataBatchId",
          "type": "uint256"
        }
      ],
      "name": "didReveal",
      "outputs": [
        {
          "internalType": "bool",
          "name": "revealed",
          "type": "bool"
        }
      ],
      "stateMutability": "view",
      "type": "function"
    },
    {
      "inputs": [
        {
          "internalType": "uint256",
          "name": "_k",
          "type": "uint256"
        },
        {
          "internalType": "uint256",
          "name": "N_range",
          "type": "uint256"
        }
      ],
      "name": "generateIntegers",
      "outputs": [
        {
          "internalType": "uint256[]",
          "name": "",
          "type": "uint256[]"
        }
      ],
      "stateMutability": "view",
      "type": "function"
    },
    {
      "inputs": [],
      "name": "getAcceptedBatchesCount",
      "outputs": [
        {
          "internalType": "uint256",
          "name": "count",
          "type": "uint256"
        }
      ],
      "stateMutability": "view",
      "type": "function"
    },
    {
      "inputs": [],
      "name": "getActiveWorkersCount",
      "outputs": [
        {
          "internalType": "uint256",
          "name": "numWorkers",
          "type": "uint256"
        }
      ],
      "stateMutability": "view",
      "type": "function"
    },
    {
      "inputs": [
        {
          "internalType": "bytes32",
          "name": "_UUID",
          "type": "bytes32"
        },
        {
          "internalType": "string",
          "name": "_attrName",
          "type": "string"
        }
      ],
      "name": "getAttribute",
      "outputs": [
        {
          "internalType": "uint256",
          "name": "",
          "type": "uint256"
        }
      ],
      "stateMutability": "view",
      "type": "function"
    },
    {
      "inputs": [],
      "name": "getAvailableWorkersCount",
      "outputs": [
        {
          "internalType": "uint256",
          "name": "numWorkers",
          "type": "uint256"
        }
      ],
      "stateMutability": "view",
      "type": "function"
    },
    {
      "inputs": [
        {
          "internalType": "uint256",
          "name": "_DataBatchId",
          "type": "uint256"
        }
      ],
      "name": "getBatchByID",
      "outputs": [
        {
          "components": [
            {
              "internalType": "uint256",
              "name": "start_idx",
              "type": "uint256"
            },
            {
              "internalType": "uint256",
              "name": "counter",
              "type": "uint256"
            },
            {
              "internalType": "uint256",
              "name": "uncommited_workers",
              "type": "uint256"
            },
            {
              "internalType": "uint256",
              "name": "unrevealed_workers",
              "type": "uint256"
            },
            {
              "internalType": "bool",
              "name": "complete",
              "type": "bool"
            },
            {
              "internalType": "bool",
              "name": "checked",
              "type": "bool"
            },
            {
              "internalType": "bool",
              "name": "allocated_to_work",
              "type": "bool"
            },
            {
              "internalType": "uint256",
              "name": "commitEndDate",
              "type": "uint256"
            },
            {
              "internalType": "uint256",
              "name": "revealEndDate",
              "type": "uint256"
            },
            {
              "internalType": "uint256",
              "name": "votesFor",
              "type": "uint256"
            },
            {
              "internalType": "uint256",
              "name": "votesAgainst",
              "type": "uint256"
            },
            {
              "internalType": "string",
              "name": "batchIPFSfile",
              "type": "string"
            },
            {
              "internalType": "uint256",
              "name": "item_count",
              "type": "uint256"
            },
            {
              "internalType": "enum DataSpotting.DataStatus",
              "name": "status",
              "type": "uint8"
            }
          ],
          "internalType": "struct DataSpotting.BatchMetadata",
          "name": "batch",
          "type": "tuple"
        }
      ],
      "stateMutability": "view",
      "type": "function"
    },
    {
      "inputs": [
        {
          "internalType": "uint256",
          "name": "_DataBatchId_a",
          "type": "uint256"
        },
        {
          "internalType": "uint256",
          "name": "_DataBatchId_b",
          "type": "uint256"
        }
      ],
      "name": "getBatchCountForBatch",
      "outputs": [
        {
          "internalType": "uint256",
          "name": "AverageURLCount",
          "type": "uint256"
        },
        {
          "internalType": "uint256[]",
          "name": "batchCounts",
          "type": "uint256[]"
        }
      ],
      "stateMutability": "view",
      "type": "function"
    },
    {
      "inputs": [
        {
          "internalType": "uint256",
          "name": "_DataBatchId",
          "type": "uint256"
        }
      ],
      "name": "getBatchIPFSFileByID",
      "outputs": [
        {
          "internalType": "string",
          "name": "batch",
          "type": "string"
        }
      ],
      "stateMutability": "view",
      "type": "function"
    },
    {
      "inputs": [],
      "name": "getBusyWorkersCount",
      "outputs": [
        {
          "internalType": "uint256",
          "name": "numWorkers",
          "type": "uint256"
        }
      ],
      "stateMutability": "view",
      "type": "function"
    },
    {
      "inputs": [
        {
          "internalType": "address",
          "name": "_voter",
          "type": "address"
        },
        {
          "internalType": "uint256",
          "name": "_DataBatchId",
          "type": "uint256"
        }
      ],
      "name": "getCommitIPFSHash",
      "outputs": [
        {
          "internalType": "bytes32",
          "name": "commitHash",
          "type": "bytes32"
        }
      ],
      "stateMutability": "view",
      "type": "function"
    },
    {
      "inputs": [
        {
          "internalType": "address",
          "name": "_voter",
          "type": "address"
        },
        {
          "internalType": "uint256",
          "name": "_DataBatchId",
          "type": "uint256"
        }
      ],
      "name": "getCommitVoteHash",
      "outputs": [
        {
          "internalType": "bytes32",
          "name": "commitHash",
          "type": "bytes32"
        }
      ],
      "stateMutability": "view",
      "type": "function"
    },
    {
      "inputs": [
        {
          "internalType": "uint256",
          "name": "_DataId",
          "type": "uint256"
        }
      ],
      "name": "getDataByID",
      "outputs": [
        {
          "components": [
            {
              "internalType": "string",
              "name": "ipfs_hash",
              "type": "string"
            },
            {
              "internalType": "address",
              "name": "author",
              "type": "address"
            },
            {
              "internalType": "uint256",
              "name": "timestamp",
              "type": "uint256"
            },
            {
              "internalType": "uint256",
              "name": "item_count",
              "type": "uint256"
            },
            {
              "internalType": "string",
              "name": "URL_domain",
              "type": "string"
            },
            {
              "internalType": "string",
              "name": "extra",
              "type": "string"
            },
            {
              "internalType": "enum DataSpotting.DataStatus",
              "name": "status",
              "type": "uint8"
            }
          ],
          "internalType": "struct DataSpotting.SpottedData",
          "name": "data",
          "type": "tuple"
        }
      ],
      "stateMutability": "view",
      "type": "function"
    },
    {
      "inputs": [
        {
          "internalType": "uint256",
          "name": "_DataBatchId",
          "type": "uint256"
        }
      ],
      "name": "getDomainsForBatch",
      "outputs": [
        {
          "internalType": "string[]",
          "name": "",
          "type": "string[]"
        }
      ],
      "stateMutability": "view",
      "type": "function"
    },
    {
      "inputs": [
        {
          "internalType": "uint256",
          "name": "_clearVote",
          "type": "uint256"
        },
        {
          "internalType": "uint256",
          "name": "_salt",
          "type": "uint256"
        }
      ],
      "name": "getEncryptedHash",
      "outputs": [
        {
          "internalType": "bytes32",
          "name": "keccak256hash",
          "type": "bytes32"
        }
      ],
      "stateMutability": "pure",
      "type": "function"
    },
    {
      "inputs": [
        {
          "internalType": "string",
          "name": "_hash",
          "type": "string"
        },
        {
          "internalType": "uint256",
          "name": "_salt",
          "type": "uint256"
        }
      ],
      "name": "getEncryptedStringHash",
      "outputs": [
        {
          "internalType": "bytes32",
          "name": "keccak256hash",
          "type": "bytes32"
        }
      ],
      "stateMutability": "pure",
      "type": "function"
    },
    {
      "inputs": [
        {
          "internalType": "uint256",
          "name": "_DataBatchId",
          "type": "uint256"
        }
      ],
      "name": "getFromsForBatch",
      "outputs": [
        {
          "internalType": "string[]",
          "name": "",
          "type": "string[]"
        }
      ],
      "stateMutability": "view",
      "type": "function"
    },
    {
      "inputs": [],
      "name": "getGlobalPeriodSpotCount",
      "outputs": [
        {
          "internalType": "uint256",
          "name": "",
          "type": "uint256"
        }
      ],
      "stateMutability": "view",
      "type": "function"
    },
    {
      "inputs": [
        {
          "internalType": "uint256",
          "name": "_DataBatchId",
          "type": "uint256"
        }
      ],
      "name": "getIPFShashesForBatch",
      "outputs": [
        {
          "internalType": "string[]",
          "name": "",
          "type": "string[]"
        }
      ],
      "stateMutability": "view",
      "type": "function"
    },
    {
      "inputs": [
        {
          "internalType": "address",
          "name": "_voter",
          "type": "address"
        },
        {
          "internalType": "uint256",
          "name": "_numTokens",
          "type": "uint256"
        },
        {
          "internalType": "uint256",
          "name": "_DataBatchId",
          "type": "uint256"
        }
      ],
      "name": "getInsertPointForNumTokens",
      "outputs": [
        {
          "internalType": "uint256",
          "name": "prevNode",
          "type": "uint256"
        }
      ],
      "stateMutability": "view",
      "type": "function"
    },
    {
      "inputs": [],
      "name": "getLastAllocatedBatchId",
      "outputs": [
        {
          "internalType": "uint256",
          "name": "LastAllocatedBatchId",
          "type": "uint256"
        }
      ],
      "stateMutability": "view",
      "type": "function"
    },
    {
      "inputs": [],
      "name": "getLastBatchId",
      "outputs": [
        {
          "internalType": "uint256",
          "name": "LastBatchId",
          "type": "uint256"
        }
      ],
      "stateMutability": "view",
      "type": "function"
    },
    {
      "inputs": [],
      "name": "getLastCheckedBatchId",
      "outputs": [
        {
          "internalType": "uint256",
          "name": "LastCheckedBatchId",
          "type": "uint256"
        }
      ],
      "stateMutability": "view",
      "type": "function"
    },
    {
      "inputs": [],
      "name": "getLastDataId",
      "outputs": [
        {
          "internalType": "uint256",
          "name": "DataId",
          "type": "uint256"
        }
      ],
      "stateMutability": "view",
      "type": "function"
    },
    {
      "inputs": [
        {
          "internalType": "address",
          "name": "_voter",
          "type": "address"
        }
      ],
      "name": "getLastNode",
      "outputs": [
        {
          "internalType": "uint256",
          "name": "DataID",
          "type": "uint256"
        }
      ],
      "stateMutability": "view",
      "type": "function"
    },
    {
      "inputs": [
        {
          "internalType": "address",
          "name": "_voter",
          "type": "address"
        }
      ],
      "name": "getLockedTokens",
      "outputs": [
        {
          "internalType": "uint256",
          "name": "numTokens",
          "type": "uint256"
        }
      ],
      "stateMutability": "view",
      "type": "function"
    },
    {
      "inputs": [
        {
          "internalType": "uint256",
          "name": "_DataBatchId_a",
          "type": "uint256"
        },
        {
          "internalType": "uint256",
          "name": "_DataBatchId_b",
          "type": "uint256"
        }
      ],
      "name": "getMultiBatchIPFShashes",
      "outputs": [
        {
          "internalType": "string[]",
          "name": "",
          "type": "string[]"
        }
      ],
      "stateMutability": "view",
      "type": "function"
    },
    {
      "inputs": [
        {
          "internalType": "address",
          "name": "_voter",
          "type": "address"
        },
        {
          "internalType": "uint256",
          "name": "_DataBatchId",
          "type": "uint256"
        },
        {
          "internalType": "uint256",
          "name": "_salt",
          "type": "uint256"
        }
      ],
      "name": "getNumPassingTokens",
      "outputs": [
        {
          "internalType": "uint256",
          "name": "correctSpotChecks",
          "type": "uint256"
        }
      ],
      "stateMutability": "view",
      "type": "function"
    },
    {
      "inputs": [
        {
          "internalType": "address",
          "name": "_voter",
          "type": "address"
        },
        {
          "internalType": "uint256",
          "name": "_DataBatchId",
          "type": "uint256"
        }
      ],
      "name": "getNumTokens",
      "outputs": [
        {
          "internalType": "uint256",
          "name": "numTokens",
          "type": "uint256"
        }
      ],
      "stateMutability": "view",
      "type": "function"
    },
    {
      "inputs": [],
      "name": "getRandom",
      "outputs": [
        {
          "internalType": "uint256",
          "name": "",
          "type": "uint256"
        }
      ],
      "stateMutability": "view",
      "type": "function"
    },
    {
      "inputs": [],
      "name": "getRejectedBatchesCount",
      "outputs": [
        {
          "internalType": "uint256",
          "name": "count",
          "type": "uint256"
        }
      ],
      "stateMutability": "view",
      "type": "function"
    },
    {
      "inputs": [],
      "name": "getSeed",
      "outputs": [
        {
          "internalType": "bytes32",
          "name": "addr",
          "type": "bytes32"
        }
      ],
      "stateMutability": "view",
      "type": "function"
    },
    {
      "inputs": [
        {
          "internalType": "uint256",
          "name": "_DataBatchId",
          "type": "uint256"
        }
      ],
      "name": "getSubmittedFilesForBatch",
      "outputs": [
        {
          "internalType": "string[]",
          "name": "",
          "type": "string[]"
        }
      ],
      "stateMutability": "view",
      "type": "function"
    },
    {
      "inputs": [
        {
          "internalType": "address",
          "name": "_user",
          "type": "address"
        }
      ],
      "name": "getSystemTokenBalance",
      "outputs": [
        {
          "internalType": "uint256",
          "name": "tokens",
          "type": "uint256"
        }
      ],
      "stateMutability": "view",
      "type": "function"
    },
    {
      "inputs": [],
      "name": "getTxCounter",
      "outputs": [
        {
          "internalType": "uint256",
          "name": "Counter",
          "type": "uint256"
        }
      ],
      "stateMutability": "view",
      "type": "function"
    },
    {
      "inputs": [
        {
          "internalType": "address",
          "name": "user",
          "type": "address"
        }
      ],
      "name": "getUserDatas",
      "outputs": [
        {
          "internalType": "uint256[]",
          "name": "user_Datas",
          "type": "uint256[]"
        }
      ],
      "stateMutability": "view",
      "type": "function"
    },
    {
      "inputs": [
        {
          "internalType": "address",
          "name": "user_",
          "type": "address"
        }
      ],
      "name": "getUserPeriodSpotCount",
      "outputs": [
        {
          "internalType": "uint256",
          "name": "",
          "type": "uint256"
        }
      ],
      "stateMutability": "view",
      "type": "function"
    },
    {
      "inputs": [
        {
          "internalType": "uint256",
          "name": "_DataBatchId",
          "type": "uint256"
        }
      ],
      "name": "getVotesForBatch",
      "outputs": [
        {
          "internalType": "uint256[]",
          "name": "",
          "type": "uint256[]"
        }
      ],
      "stateMutability": "view",
      "type": "function"
    },
    {
      "inputs": [
        {
          "internalType": "address",
          "name": "",
          "type": "address"
        }
      ],
      "name": "isAvailableWorker",
      "outputs": [
        {
          "internalType": "bool",
          "name": "",
          "type": "bool"
        }
      ],
      "stateMutability": "view",
      "type": "function"
    },
    {
      "inputs": [
        {
          "internalType": "address",
          "name": "",
          "type": "address"
        }
      ],
      "name": "isBusyWorker",
      "outputs": [
        {
          "internalType": "bool",
          "name": "",
          "type": "bool"
        }
      ],
      "stateMutability": "view",
      "type": "function"
    },
    {
      "inputs": [
        {
          "internalType": "uint256",
          "name": "_terminationDate",
          "type": "uint256"
        }
      ],
      "name": "isExpired",
      "outputs": [
        {
          "internalType": "bool",
          "name": "expired",
          "type": "bool"
        }
      ],
      "stateMutability": "view",
      "type": "function"
    },
    {
      "inputs": [
        {
          "internalType": "address",
          "name": "_worker",
          "type": "address"
        }
      ],
      "name": "isInAvailableWorkers",
      "outputs": [
        {
          "internalType": "bool",
          "name": "",
          "type": "bool"
        }
      ],
      "stateMutability": "view",
      "type": "function"
    },
    {
      "inputs": [
        {
          "internalType": "address",
          "name": "_worker",
          "type": "address"
        }
      ],
      "name": "isInBusyWorkers",
      "outputs": [
        {
          "internalType": "bool",
          "name": "",
          "type": "bool"
        }
      ],
      "stateMutability": "view",
      "type": "function"
    },
    {
      "inputs": [
        {
          "internalType": "uint256",
          "name": "_DataBatchId",
          "type": "uint256"
        }
      ],
      "name": "isPassed",
      "outputs": [
        {
          "internalType": "bool",
          "name": "passed",
          "type": "bool"
        }
      ],
      "stateMutability": "view",
      "type": "function"
    },
    {
      "inputs": [
        {
          "internalType": "address",
          "name": "",
          "type": "address"
        }
      ],
      "name": "isToUnregisterWorker",
      "outputs": [
        {
          "internalType": "bool",
          "name": "",
          "type": "bool"
        }
      ],
      "stateMutability": "view",
      "type": "function"
    },
    {
      "inputs": [
        {
          "internalType": "uint256",
          "name": "_DataBatchId",
          "type": "uint256"
        },
        {
          "internalType": "address",
          "name": "_worker",
          "type": "address"
        }
      ],
      "name": "isWorkerAllocatedToBatch",
      "outputs": [
        {
          "internalType": "bool",
          "name": "",
          "type": "bool"
        }
      ],
      "stateMutability": "view",
      "type": "function"
    },
    {
      "inputs": [
        {
          "internalType": "address",
          "name": "_worker",
          "type": "address"
        }
      ],
      "name": "isWorkerRegistered",
      "outputs": [
        {
          "internalType": "bool",
          "name": "passed",
          "type": "bool"
        }
      ],
      "stateMutability": "view",
      "type": "function"
    },
    {
      "inputs": [],
      "name": "owner",
      "outputs": [
        {
          "internalType": "address",
          "name": "",
          "type": "address"
        }
      ],
      "stateMutability": "view",
      "type": "function"
    },
    {
      "inputs": [
        {
          "internalType": "uint256",
          "name": "k",
          "type": "uint256"
        },
        {
          "internalType": "uint256",
          "name": "N",
          "type": "uint256"
        }
      ],
      "name": "random_selection",
      "outputs": [
        {
          "internalType": "uint256[]",
          "name": "",
          "type": "uint256[]"
        }
      ],
      "stateMutability": "view",
      "type": "function"
    },
    {
      "inputs": [
        {
          "internalType": "uint256",
          "name": "_DataBatchId",
          "type": "uint256"
        }
      ],
      "name": "remainingCommitDuration",
      "outputs": [
        {
          "internalType": "uint256",
          "name": "remainingTime",
          "type": "uint256"
        }
      ],
      "stateMutability": "view",
      "type": "function"
    },
    {
      "inputs": [
        {
          "internalType": "uint256",
          "name": "_DataBatchId",
          "type": "uint256"
        }
      ],
      "name": "remainingRevealDuration",
      "outputs": [
        {
          "internalType": "uint256",
          "name": "remainingTime",
          "type": "uint256"
        }
      ],
      "stateMutability": "view",
      "type": "function"
    },
    {
      "inputs": [],
      "name": "renounceOwnership",
      "outputs": [],
      "stateMutability": "nonpayable",
      "type": "function"
    },
    {
      "inputs": [
        {
          "internalType": "uint256",
          "name": "_DataBatchId",
          "type": "uint256"
        }
      ],
      "name": "rescueTokens",
      "outputs": [],
      "stateMutability": "nonpayable",
      "type": "function"
    },
    {
      "inputs": [
        {
          "internalType": "uint256[]",
          "name": "_DataBatchIDs",
          "type": "uint256[]"
        }
      ],
      "name": "rescueTokensInMultipleDatas",
      "outputs": [],
      "stateMutability": "nonpayable",
      "type": "function"
    },
    {
      "inputs": [
        {
          "internalType": "uint256",
          "name": "_DataBatchId",
          "type": "uint256"
        }
      ],
      "name": "revealPeriodActive",
      "outputs": [
        {
          "internalType": "bool",
          "name": "active",
          "type": "bool"
        }
      ],
      "stateMutability": "view",
      "type": "function"
    },
    {
      "inputs": [
        {
          "internalType": "uint256",
          "name": "_DataBatchId",
          "type": "uint256"
        }
      ],
      "name": "revealPeriodOver",
      "outputs": [
        {
          "internalType": "bool",
          "name": "active",
          "type": "bool"
        }
      ],
      "stateMutability": "view",
      "type": "function"
    },
    {
      "inputs": [
        {
          "internalType": "uint256",
          "name": "_DataBatchId",
          "type": "uint256"
        },
        {
          "internalType": "string",
          "name": "_clearIPFSHash",
          "type": "string"
        },
        {
          "internalType": "uint256",
          "name": "_clearVote",
          "type": "uint256"
        },
        {
          "internalType": "uint256",
          "name": "_salt",
          "type": "uint256"
        }
      ],
      "name": "revealSpotCheck",
      "outputs": [],
      "stateMutability": "nonpayable",
      "type": "function"
    },
    {
      "inputs": [
        {
          "internalType": "bytes32",
          "name": "_UUID",
          "type": "bytes32"
        },
        {
          "internalType": "string",
          "name": "_attrName",
          "type": "string"
        },
        {
          "internalType": "uint256",
          "name": "_attrVal",
          "type": "uint256"
        }
      ],
      "name": "setAttribute",
      "outputs": [],
      "stateMutability": "nonpayable",
      "type": "function"
    },
    {
      "inputs": [
        {
          "internalType": "uint256",
          "name": "N",
          "type": "uint256"
        }
      ],
      "name": "shuffle_array",
      "outputs": [
        {
          "internalType": "uint256[]",
          "name": "",
          "type": "uint256[]"
        }
      ],
      "stateMutability": "view",
      "type": "function"
    },
    {
      "inputs": [
        {
          "internalType": "uint256",
          "name": "",
          "type": "uint256"
        }
      ],
      "name": "toUnregisterWorkers",
      "outputs": [
        {
          "internalType": "address",
          "name": "",
          "type": "address"
        }
      ],
      "stateMutability": "view",
      "type": "function"
    },
    {
      "inputs": [],
      "name": "token",
      "outputs": [
        {
          "internalType": "contract IERC20",
          "name": "",
          "type": "address"
        }
      ],
      "stateMutability": "view",
      "type": "function"
    },
    {
      "inputs": [
        {
          "internalType": "address",
          "name": "newOwner",
          "type": "address"
        }
      ],
      "name": "transferOwnership",
      "outputs": [],
      "stateMutability": "nonpayable",
      "type": "function"
    },
    {
      "inputs": [
        {
          "internalType": "uint256",
          "name": "AllocatedBatchCursor_",
          "type": "uint256"
        }
      ],
      "name": "updateAllocatedBatchCursor",
      "outputs": [],
      "stateMutability": "nonpayable",
      "type": "function"
    },
    {
      "inputs": [
        {
          "internalType": "uint256",
          "name": "BatchCheckingCursor_",
          "type": "uint256"
        }
      ],
      "name": "updateBatchCheckingCursor",
      "outputs": [],
      "stateMutability": "nonpayable",
      "type": "function"
    },
    {
      "inputs": [],
      "name": "updateGlobalSpotFlow",
      "outputs": [],
      "stateMutability": "nonpayable",
      "type": "function"
    },
    {
      "inputs": [
        {
          "internalType": "bool",
          "name": "state_",
          "type": "bool"
        },
        {
          "internalType": "uint256",
          "name": "divider_",
          "type": "uint256"
        }
      ],
      "name": "updateInstantSpotRewards",
      "outputs": [],
      "stateMutability": "nonpayable",
      "type": "function"
    },
    {
      "inputs": [
        {
          "internalType": "uint256",
          "name": "MaxPendingDataBatchCount_",
          "type": "uint256"
        }
      ],
      "name": "updateMaxPendingDataBatch",
      "outputs": [],
      "stateMutability": "nonpayable",
      "type": "function"
    },
    {
      "inputs": [
        {
          "internalType": "address",
          "name": "addr",
          "type": "address"
        }
      ],
      "name": "updateParametersManager",
      "outputs": [],
      "stateMutability": "nonpayable",
      "type": "function"
    },
    {
      "inputs": [
        {
          "internalType": "address",
          "name": "user_",
          "type": "address"
        }
      ],
      "name": "updateUserSpotFlow",
      "outputs": [],
      "stateMutability": "nonpayable",
      "type": "function"
    },
    {
      "inputs": [
        {
          "internalType": "uint256",
          "name": "_prevID",
          "type": "uint256"
        },
        {
          "internalType": "uint256",
          "name": "_nextID",
          "type": "uint256"
        },
        {
          "internalType": "address",
          "name": "_voter",
          "type": "address"
        },
        {
          "internalType": "uint256",
          "name": "_numTokens",
          "type": "uint256"
        }
      ],
      "name": "validPosition",
      "outputs": [
        {
          "internalType": "bool",
          "name": "APPROVED",
          "type": "bool"
        }
      ],
      "stateMutability": "view",
      "type": "function"
    },
    {
      "inputs": [
        {
          "internalType": "uint256",
          "name": "_numTokens",
          "type": "uint256"
        },
        {
          "internalType": "address",
          "name": "_user",
          "type": "address"
        }
      ],
      "name": "withdrawVotingRights",
      "outputs": [],
      "stateMutability": "nonpayable",
      "type": "function"
    }
  ],
  "bytecode": "0x608060409081526000600181815560388290556039829055603a819055603b819055603c819055603d819055603e829055603f8290559181905560418190556042556043805460ff19169091179055600a604455606460458190556046556048805460ff60a01b1916600160a01b1790556402540be3ff6049553480156200008657600080fd5b506040516200c1913803806200c191833981016040819052620000a9916200014b565b620000bd620000b7620000f7565b620000fb565b6001600160a01b038116620000d157600080fd5b604780546001600160a01b0319166001600160a01b03929092169190911790556200017b565b3390565b600080546001600160a01b038381166001600160a01b0319831681178455604051919092169283917f8be0079c531659141344cd1fd0a4f28419497f9722a3daafe3b4186f6b6457e09190a35050565b6000602082840312156200015d578081fd5b81516001600160a01b038116811462000174578182fd5b9392505050565b61c006806200018b6000396000f3fe608060405234801561001057600080fd5b506004361061079b5760003560e01c80638480a221116103ea578063c46f17d011610215578063e798a7da11610130578063f716596d116100c3578063f96305f011610092578063f96305f014611024578063fc0c546a1461102c578063fca4956314611034578063fd41488114611047578063ff43de9d1461105a5761079b565b8063f716596d14610fee578063f721de4a14610ff6578063f7c544fe14611009578063f80a23fd1461101c5761079b565b8063f2d9e74d116100ff578063f2d9e74d14610fb8578063f2fde38b14610fc0578063f4cdfcc414610fd3578063f5ae7c7d14610fe65761079b565b8063e798a7da14610f82578063eb1322ff14610f95578063ed8becfa14610f9d578063ef4fcdad14610fb05761079b565b8063d6b0206c116101a8578063d9548e5311610177578063d9548e5314610f29578063d9845fb814610f3c578063e44c974b14610f5c578063e604c12714610f6f5761079b565b8063d6b0206c14610ee8578063d817587e14610ef0578063d822ce0114610f03578063d8b7567414610f165761079b565b8063d1382092116101e4578063d138209214610ea7578063d186981d14610eba578063d420ec0b14610ecd578063d58f575c14610ee05761079b565b8063c46f17d014610e71578063c4e4f82a14610e79578063c6b6506314610e8c578063d0d41def14610e9f5761079b565b8063a350715a11610305578063b0bc471e11610298578063b1d7ea9811610267578063b1d7ea9814610e25578063b43bd06914610e38578063b8f011b314610e4b578063bc3002e614610e5e5761079b565b8063b0bc471e14610dd9578063b10aa58414610dec578063b1a2e0be14610dff578063b1cf4a7e14610e125761079b565b8063a9057790116102d4578063a905779014610d98578063a98eb31e14610dab578063aa7ca46414610dbe578063aacc5a1714610dd15761079b565b8063a350715a14610d62578063a4439dc514610d6a578063a511dba014610d7d578063a7ba29d114610d855761079b565b80638da5cb5b1161037d5780639d6e3f961161034c5780639d6e3f9614610d215780639fc9c52f14610d34578063a1103f3714610d47578063a1b6b5b714610d5a5761079b565b80638da5cb5b14610ceb5780638df0296e14610cf35780639760356014610d065780639769d84614610d195761079b565b80638a1479c8116103b95780638a1479c814610c8a5780638bf8a33814610c9d5780638c89d02714610cb05780638ccb7eec14610cd85761079b565b80638480a22114610c495780638746ff8a14610c5157806388d072eb14610c64578063896d807a14610c775761079b565b8063515535e8116105ca578063715018a6116104e55780637f9510a211610478578063819b029311610447578063819b029314610c08578063821aa8c014610c1b57806383e5a8f614610c2e5780638473850b14610c415761079b565b80637f9510a214610bb85780637f97e83614610bc05780637fabe35b14610bd3578063815ce74714610c005761079b565b80637860dd41116104b45780637860dd4114610b6c5780637a30332214610b7f5780637ad3be1114610b925780637e97561b14610ba55761079b565b8063715018a614610b3657806371880b1b14610b3e578063763a39f214610b5157806377124dec14610b595761079b565b80635dc44cf11161055d57806363b563a81161052c57806363b563a814610aea5780636b2d95d414610afd5780637018e9c614610b105780637074222b14610b235761079b565b80635dc44cf114610aa95780635df6055d14610abc578063607d5efa14610acf5780636371d81f14610ad75761079b565b8063579db71c11610599578063579db71c14610a5057806359fcf77614610a635780635a45294314610a765780635b113a5514610a965761079b565b8063515535e814610a1a578063538e498c14610a2257806353bf27f114610a35578063576a554314610a3d5761079b565b806336fc43fc116106ba57806345feae891161064d578063494031831161061c57806349403183146109c05780634a45cd84146109d35780634bad8d24146109e65780634fe8b4c114610a075761079b565b806345feae891461099557806347fe2d201461099d5780634852e2f0146109a557806348cbd8f8146109ad5761079b565b80633f7e62f3116106895780633f7e62f314610954578063413b90f71461095c578063427fa1d21461096f578063441c77c0146109825761079b565b806336fc43fc1461091057806339e7357c146109185780633aed0be5146109205780633c062cc8146109335761079b565b806319d90346116107325780632d917c68116107015780632d917c68146108aa5780632f469fd1146108bd57806331e2f285146108dd5780633538af82146108f05761079b565b806319d903461461084f578063226ed3001461086f578063275c25901461088f5780632c052031146108975761079b565b80630b96c5b01161076e5780630b96c5b0146108065780630e6661a71461082c578063100372f514610834578063154fd39b146108475761079b565b806301a48b98146107a057806301aa5f73146107c957806305957623146107e9578063092a5cce146107fe575b600080fd5b6107b36107ae36600461a862565b611062565b6040516107c0919061ab5b565b60405180910390f35b6107dc6107d736600461a862565b6111ff565b6040516107c0919061aa8e565b6107fc6107f736600461a4f3565b61125c565b005b6107fc6112bd565b61081961081436600461a862565b61130f565b6040516107c0979695949392919061ab8c565b6107dc6114f3565b6107fc61084236600461a862565b6114f9565b6107dc61153d565b61086261085d36600461a862565b611543565b6040516107c0919061aafb565b61088261087d36600461a862565b61185e565b6040516107c0919061ab6e565b6107fc6118a0565b6107dc6108a536600461a556565b6119e7565b6108826108b836600461a52b565b611b84565b6108d06108cb36600461a88b565b611ba2565b6040516107c0919061ab79565b6107dc6108eb36600461a4f3565b611c47565b6109036108fe36600461a862565b611c59565b6040516107c0919061aae7565b610882611c83565b6107dc611c93565b61088261092e36600461a4f3565b611cb0565b61094661094136600461a862565b611cce565b6040516107c092919061aad9565b6107dc611cf0565b61094661096a36600461a52b565b611cf6565b6107dc61097d36600461a4f3565b611d26565b61088261099036600461a862565b611dc6565b610882611e20565b6107dc611e29565b6107dc611e2f565b6107fc6109bb36600461a88b565b611e35565b6108826109ce36600461a862565b612045565b6108826109e136600461a4f3565b612291565b6109f96109f436600461a962565b6122af565b6040516107c092919061bcc5565b6107fc610a1536600461a862565b61255e565b6107dc612603565b6107dc610a3036600461a4f3565b612609565b6107dc61261b565b6107fc610a4b36600461a4f3565b612621565b6107b3610a5e36600461a4f3565b612818565b6107dc610a7136600461a4f3565b612884565b610a89610a8436600461a862565b612896565b6040516107c0919061bbf4565b6107dc610aa436600461a88b565b612aeb565b6107dc610ab736600461a52b565b612b08565b610862610aca36600461a862565b612b39565b6107fc612d56565b6107fc610ae536600461a862565b612f37565b610882610af836600461a862565b612fea565b6107dc610b0b36600461a4f3565b61303d565b610882610b1e36600461a862565b61304c565b6107dc610b3136600461a4f3565b61308d565b6107fc6130a8565b6107dc610b4c36600461a862565b6130f3565b6107dc613130565b6107fc610b6736600461a862565b613136565b6107dc610b7a36600461a862565b61317a565b6107fc610b8d36600461a862565b6131ce565b6107dc610ba036600461a52b565b61352b565b6107fc610bb336600461a862565b613562565b6107dc6135a6565b610882610bce36600461a52b565b6135bd565b610be6610be136600461a862565b61360e565b6040516107c09e9d9c9b9a9998979695949392919061bd33565b6107dc61370e565b610882610c1636600461a983565b61376a565b610903610c2936600461a862565b6137ab565b6107fc610c3c36600461a8ba565b6137bb565b6107dc613d86565b6107dc613d8c565b610903610c5f36600461a52b565b613d92565b6108d0610c7236600461a88b565b614206565b6107fc610c8536600461a77d565b61422a565b610882610c9836600461a4f3565b61426c565b6107dc610cab36600461a739565b614281565b610cc3610cbe36600461a4f3565b6142c4565b6040516107c09998979695949392919061bcf4565b610882610ce636600461a4f3565b61430f565b61090361432d565b610903610d0136600461a962565b61433c565b6107fc610d1436600461a862565b614374565b6107dc61452b565b6107dc610d2f36600461a4f3565b614531565b6107fc610d4236600461a671565b61459c565b6107dc610d5536600461a52b565b6145ea565b6107dc61461d565b6107dc614623565b610882610d7836600461a862565b614629565b6107dc61468b565b610882610d9336600461a4f3565b614691565b610882610da636600461a7ca565b6146a6565b6107fc610db936600461a90e565b61470c565b610882610dcc36600461a52b565b6149d6565b6107dc614a29565b6107dc610de736600461a52b565b614ade565b610903610dfa36600461a862565b614b15565b610882610e0d36600461a4f3565b614b25565b6107dc610e2036600461a962565b614bf2565b6107b3610e3336600461a962565b614c07565b6107dc610e4636600461a556565b614e21565b6107b3610e5936600461a962565b614f0d565b6107dc610e6c36600461a58a565b615075565b6107dc616154565b6107dc610e8736600461a862565b61615a565b610882610e9a36600461a4f3565b616197565b6107dc6161ac565b6107dc610eb536600461a52b565b6161b2565b610882610ec836600461a88b565b6161e8565b610882610edb36600461a52b565b6162c3565b6107dc6162e3565b6107dc6162e9565b610862610efe36600461a862565b6162ef565b610903610f1136600461a52b565b61650c565b6107dc610f2436600461a88b565b616528565b610882610f3736600461a862565b616545565b610f4f610f4a36600461a862565b61654a565b6040516107c0919061bb02565b6107b3610f6a36600461a862565b6166ce565b6108d0610f7d36600461a862565b61675a565b610882610f9036600461a4f3565b616805565b6107dc616826565b610862610fab36600461a862565b61682c565b6107dc616b3b565b6107dc616b41565b6107fc610fce36600461a4f3565b616b47565b6107dc610fe136600461a820565b616bb5565b6107dc616bca565b6107fc616bd0565b61088261100436600461a862565b616fd7565b6107fc61101736600461a71c565b616fdf565b610882617035565b6107dc61704e565b610903617054565b6107dc61104236600461a4f3565b617063565b61086261105536600461a962565b617117565b610903617629565b606061106d82616fd7565b6110925760405162461bcd60e51b81526004016110899061b7ba565b60405180910390fd5b6000828152602f60209081526040808320805482518185028101850190935280835291929091908301828280156110f257602002820191906000526020600020905b81546001600160a01b031681526001909101906020018083116110d4575b50505050509050600081516001600160401b0381111561112257634e487b7160e01b600052604160045260246000fd5b60405190808252806020026020018201604052801561114b578160200160208202803683370190505b50905060005b82518110156111f55760226000868152602001908152602001600020600084838151811061118f57634e487b7160e01b600052603260045260246000fd5b60200260200101516001600160a01b03166001600160a01b03168152602001908152602001600020548282815181106111d857634e487b7160e01b600052603260045260246000fd5b6020908102919091010152806111ed8161bf1c565b915050611151565b509150505b919050565b600061120a82616fd7565b6112265760405162461bcd60e51b81526004016110899061b7ba565b600061123183611dc6565b15611256576000838152602a602052604090206006015461125390429061be9e565b90505b92915050565b611264617638565b6001600160a01b031661127561432d565b6001600160a01b03161461129b5760405162461bcd60e51b81526004016110899061b4b9565b604880546001600160a01b0319166001600160a01b0392909216919091179055565b6112c5617638565b6001600160a01b03166112d661432d565b6001600160a01b0316146112fc5760405162461bcd60e51b81526004016110899061b4b9565b61130461432d565b6001600160a01b0316ff5b60296020526000908152604090208054819061132a9061bee1565b80601f01602080910402602001604051908101604052809291908181526020018280546113569061bee1565b80156113a35780601f10611378576101008083540402835291602001916113a3565b820191906000526020600020905b81548152906001019060200180831161138657829003601f168201915b50505060018401546002850154600386015460048701805496976001600160a01b0390941696929550909350906113d99061bee1565b80601f01602080910402602001604051908101604052809291908181526020018280546114059061bee1565b80156114525780601f1061142757610100808354040283529160200191611452565b820191906000526020600020905b81548152906001019060200180831161143557829003601f168201915b5050505050908060050180546114679061bee1565b80601f01602080910402602001604051908101604052809291908181526020018280546114939061bee1565b80156114e05780601f106114b5576101008083540402835291602001916114e0565b820191906000526020600020905b8154815290600101906020018083116114c357829003601f168201915b5050506006909301549192505060ff1687565b60395481565b611501617638565b6001600160a01b031661151261432d565b6001600160a01b0316146115385760405162461bcd60e51b81526004016110899061b4b9565b603c55565b603d5490565b606061154e82616fd7565b61156a5760405162461bcd60e51b81526004016110899061b7ba565b6000828152602a6020908152604080832081516101c0810183528154815260018201549381019390935260028101549183019190915260038101546060830152600481015460ff808216151560808501526101008083048216151560a08601526201000090920416151560c0840152600582015460e084015260068201549083015260078101546101208301526008810154610140830152600981018054610160840191906116189061bee1565b80601f01602080910402602001604051908101604052809291908181526020018280546116449061bee1565b80156116915780601f1061166657610100808354040283529160200191611691565b820191906000526020600020905b81548152906001019060200180831161167457829003601f168201915b5050509183525050600a8201546020820152600b82015460409091019060ff1660038111156116d057634e487b7160e01b600052602160045260246000fd5b60038111156116ef57634e487b7160e01b600052602160045260246000fd5b90525060208101519091506000816001600160401b0381111561172257634e487b7160e01b600052604160045260246000fd5b60405190808252806020026020018201604052801561175557816020015b60608152602001906001900390816117405790505b50905060005b8281101561185557835160009061177390839061be53565b6000818152602960205260408120600401805492935090916117949061bee1565b80601f01602080910402602001604051908101604052809291908181526020018280546117c09061bee1565b801561180d5780601f106117e25761010080835404028352916020019161180d565b820191906000526020600020905b8154815290600101906020018083116117f057829003601f168201915b505050505090508084848151811061183557634e487b7160e01b600052603260045260246000fd5b60200260200101819052505050808061184d9061bf1c565b91505061175b565b50949350505050565b600061186982616fd7565b6118855760405162461bcd60e51b81526004016110899061ba8d565b6000828152602a602052604090206006015461125690616545565b336000908152602b60205260409020600381015460ff1615156001146118d85760405162461bcd60e51b81526004016110899061b448565b8054158015906118f257506003810154610100900460ff16155b8015611904575061190233611cb0565b155b1561195d5760038101805461ff001916610100179055603280546001810182556000919091527f11df491316f14931039edfd4f8964c9a443b862f02d4c7611d18c2bc4e6ff6970180546001600160a01b031916331790555b80546119c35761196c3361763c565b611975336177ca565b426002820181905560038201805460ff1916905560405133917f9dadcedba048e92b943ea1c5861cee1df63a566d7f795869c004780c1c698e2b916119ba919061aa8e565b60405180910390a25b6001603e60008282546119d6919061be53565b909155506119e4905061790c565b50565b6000806119f385611d26565b90506000611a0186836161b2565b90505b8115611b7957611a1486836161b2565b9050848111611ad15783821415611ac9576001600160a01b0386166000908152602760205260409081902090516301c39b2b60e11b815273__$85afbab79b2b776d70bef879a32ed56424$__91630387365691611a769190869060040161aad9565b60206040518083038186803b158015611a8e57600080fd5b505af4158015611aa2573d6000803e3d6000fd5b505050506040513d601f19601f82011682018060405250810190611ac6919061a87a565b91505b509050611b7d565b6001600160a01b0386166000908152602760205260409081902090516301c39b2b60e11b815273__$85afbab79b2b776d70bef879a32ed56424$__91630387365691611b229190869060040161aad9565b60206040518083038186803b158015611b3a57600080fd5b505af4158015611b4e573d6000803e3d6000fd5b505050506040513d601f19601f82011682018060405250810190611b72919061a87a565b9150611a04565b5090505b9392505050565b60208080526000928352604080842090915290825290205460ff1681565b602360209081526000928352604080842090915290825290208054611bc69061bee1565b80601f0160208091040260200160405190810160405280929190818152602001828054611bf29061bee1565b8015611c3f5780601f10611c1457610100808354040283529160200191611c3f565b820191906000526020600020905b815481529060010190602001808311611c2257829003601f168201915b505050505081565b602d6020526000908152604090205481565b60308181548110611c6957600080fd5b6000918252602090912001546001600160a01b0316905081565b604854600160a01b900460ff1681565b60405160009080602081848060185afa611ca957fe5b5051919050565b6001600160a01b031660009081526035602052604090205460ff1690565b600281600f8110611cde57600080fd5b60020201805460019091015490915082565b60455481565b602c60205281600052604060002081600f8110611d1257600080fd5b600202018054600190910154909250905082565b6001600160a01b03811660009081526027602052604080822090516301c39b2b60e11b815273__$85afbab79b2b776d70bef879a32ed56424$__91630387365691611d769190859060040161aad9565b60206040518083038186803b158015611d8e57600080fd5b505af4158015611da2573d6000803e3d6000fd5b505050506040513d601f19601f82011682018060405250810190611256919061a87a565b6000611dd182616fd7565b611ded5760405162461bcd60e51b81526004016110899061b7ba565b6000828152602a6020526040902060060154611e0890616545565b1580156112565750611e1982614629565b1592915050565b60435460ff1681565b603c5490565b60415481565b6048546001600160a01b0316611e5d5760405162461bcd60e51b81526004016110899061ac72565b6000611e8a611e6b8361303d565b6001600160a01b0384166000908152602d602052604090205490617bea565b905082811015611eac5760405162461bcd60e51b81526004016110899061b73e565b6048546040805163ca64f9e760e01b815290516000926001600160a01b03169163ca64f9e7916004808301926020929190829003018186803b158015611ef157600080fd5b505afa158015611f05573d6000803e3d6000fd5b505050506040513d601f19601f82011682018060405250810190611f29919061a50f565b604051630895993360e11b81529091506001600160a01b0382169063112b326690611f5a908790879060040161bc90565b602060405180830381600087803b158015611f7457600080fd5b505af1158015611f88573d6000803e3d6000fd5b505050506040513d601f19601f82011682018060405250810190611fac919061a700565b611fc85760405162461bcd60e51b81526004016110899061b9ec565b6001600160a01b0383166000908152602d602052604081208054869290611ff090849061be9e565b90915550611ffe905061790c565b826001600160a01b03167ffaeb7dbb9992397d26ea1944efd40c80b40f702faf69b46c67ad10aba68ccb7985604051612037919061aa8e565b60405180910390a250505050565b6000818152602a6020908152604080832081516101c0810183528154815260018201549381019390935260028101549183019190915260038101546060830152600481015460ff808216151560808501526101008083048216151560a08601526201000090920416151560c0840152600582015460e084015260068201549083015260078101546101208301526008810154610140830152600981018054849392916101608401916120f69061bee1565b80601f01602080910402602001604051908101604052809291908181526020018280546121229061bee1565b801561216f5780601f106121445761010080835404028352916020019161216f565b820191906000526020600020905b81548152906001019060200180831161215257829003601f168201915b5050509183525050600a8201546020820152600b82015460409091019060ff1660038111156121ae57634e487b7160e01b600052602160045260246000fd5b60038111156121cd57634e487b7160e01b600052602160045260246000fd5b9052506101408101516101208201519192506121e89161be53565b604860009054906101000a90046001600160a01b03166001600160a01b031663ea19733c6040518163ffffffff1660e01b815260040160206040518083038186803b15801561223657600080fd5b505afa15801561224a573d6000803e3d6000fd5b505050506040513d601f19601f8201168201806040525081019061226e919061a87a565b612278919061be7f565b61012082015161228990606461be7f565b119392505050565b6001600160a01b031660009081526034602052604090205460ff1690565b600060606000841180156122c257508284105b6122de5760405162461bcd60e51b81526004016110899061b21b565b6000806122eb868661be9e565b6122f690600161be53565b90506000816001600160401b0381111561232057634e487b7160e01b600052604160045260246000fd5b604051908082528060200260200182016040528015612349578160200160208202803683370190505b509050865b61235987600161be53565b811015612541576000818152602a6020908152604080832081516101c0810183528154815260018201549381019390935260028101549183019190915260038101546060830152600481015460ff808216151560808501526101008083048216151560a08601526201000090920416151560c0840152600582015460e0840152600682015490830152600781015461012083015260088101546101408301526009810180546101608401919061240e9061bee1565b80601f016020809104026020016040519081016040528092919081815260200182805461243a9061bee1565b80156124875780601f1061245c57610100808354040283529160200191612487565b820191906000526020600020905b81548152906001019060200180831161246a57829003601f168201915b5050509183525050600a8201546020820152600b82015460409091019060ff1660038111156124c657634e487b7160e01b600052602160045260246000fd5b60038111156124e557634e487b7160e01b600052602160045260246000fd5b9052506101808101519091506124fb908661be53565b945080610180015183838151811061252357634e487b7160e01b600052603260045260246000fd5b602090810291909101015250806125398161bf1c565b91505061234e565b50600061254e838561be6b565b95509093505050505b9250929050565b612566617638565b6001600160a01b031661257761432d565b6001600160a01b03161461259d5760405162461bcd60e51b81526004016110899061b4b9565b6000818152602960205260408120906125b6828261a267565b6001820180546001600160a01b0319169055600060028301819055600383018190556125e690600484019061a267565b6125f460058301600061a267565b50600601805460ff1916905550565b603b5490565b60366020526000908152604090205481565b60305490565b6048546001600160a01b03166126495760405162461bcd60e51b81526004016110899061ac72565b6001600160a01b0381166000908152602c602052604081209061266e6001600f61be9e565b905060008282600f811061269257634e487b7160e01b600052603260045260246000fd5b6002020154604854604080516307bc663b60e11b815290519293506001600160a01b0390911691630f78cc7691600480820192602092909190829003018186803b1580156126df57600080fd5b505afa1580156126f3573d6000803e3d6000fd5b505050506040513d601f19601f82011682018060405250810190612717919061a87a565b612721824261be9e565b111561280a5760005b6127366001600f61be9e565b8110156127b5578361274982600161be53565b600f811061276757634e487b7160e01b600052603260045260246000fd5b600202018482600f811061278b57634e487b7160e01b600052603260045260246000fd5b825460029190910291909101908155600191820154910155806127ad8161bf1c565b91505061272a565b50428383600f81106127d757634e487b7160e01b600052603260045260246000fd5b600202015560008383600f81106127fe57634e487b7160e01b600052603260045260246000fd5b60020201600101819055505b61281261790c565b50505050565b6001600160a01b03811660009081526026602090815260409182902080548351818402810184019094528084526060939283018282801561287857602002820191906000526020600020905b815481526020019060010190808311612864575b50505050509050919050565b60376020526000908152604090205481565b61289e61a2a3565b60008281526029602052604090819020815160e081019092528054829082906128c69061bee1565b80601f01602080910402602001604051908101604052809291908181526020018280546128f29061bee1565b801561293f5780601f106129145761010080835404028352916020019161293f565b820191906000526020600020905b81548152906001019060200180831161292257829003601f168201915b505050918352505060018201546001600160a01b0316602082015260028201546040820152600382015460608201526004820180546080909201916129839061bee1565b80601f01602080910402602001604051908101604052809291908181526020018280546129af9061bee1565b80156129fc5780601f106129d1576101008083540402835291602001916129fc565b820191906000526020600020905b8154815290600101906020018083116129df57829003601f168201915b50505050508152602001600582018054612a159061bee1565b80601f0160208091040260200160405190810160405280929190818152602001828054612a419061bee1565b8015612a8e5780601f10612a6357610100808354040283529160200191612a8e565b820191906000526020600020905b815481529060010190602001808311612a7157829003601f168201915b5050509183525050600682015460209091019060ff166003811115612ac357634e487b7160e01b600052602160045260246000fd5b6003811115612ae257634e487b7160e01b600052602160045260246000fd5b90525092915050565b602460209081526000928352604080842090915290825290205481565b60266020528160005260406000208181548110612b2457600080fd5b90600052602060002001600091509150505481565b6060612b4482616fd7565b612b605760405162461bcd60e51b81526004016110899061b7ba565b6000828152602f6020908152604080832080548251818502810185019093528083529192909190830182828015612bc057602002820191906000526020600020905b81546001600160a01b03168152600190910190602001808311612ba2575b50505050509050600081516001600160401b03811115612bf057634e487b7160e01b600052604160045260246000fd5b604051908082528060200260200182016040528015612c2357816020015b6060815260200190600190039081612c0e5790505b50905060005b82518110156111f557602560008681526020019081526020016000206000848381518110612c6757634e487b7160e01b600052603260045260246000fd5b60200260200101516001600160a01b03166001600160a01b031681526020019081526020016000208054612c9a9061bee1565b80601f0160208091040260200160405190810160405280929190818152602001828054612cc69061bee1565b8015612d135780601f10612ce857610100808354040283529160200191612d13565b820191906000526020600020905b815481529060010190602001808311612cf657829003601f168201915b5050505050828281518110612d3857634e487b7160e01b600052603260045260246000fd5b60200260200101819052508080612d4e9061bf1c565b915050612c29565b6048546001600160a01b0316612d7e5760405162461bcd60e51b81526004016110899061ac72565b6000612d8c6001600f61be9e565b90506000600282600f8110612db157634e487b7160e01b600052603260045260246000fd5b6002020154604854604080516307bc663b60e11b815290519293506001600160a01b0390911691630f78cc7691600480820192602092909190829003018186803b158015612dfe57600080fd5b505afa158015612e12573d6000803e3d6000fd5b505050506040513d601f19601f82011682018060405250810190612e36919061a87a565b612e40824261be9e565b1115612f335760005b612e556001600f61be9e565b811015612ed6576002612e6982600161be53565b600f8110612e8757634e487b7160e01b600052603260045260246000fd5b60020201600282600f8110612eac57634e487b7160e01b600052603260045260246000fd5b82546002919091029190910190815560019182015491015580612ece8161bf1c565b915050612e49565b5042600283600f8110612ef957634e487b7160e01b600052603260045260246000fd5b60020201600001819055506000600283600f8110612f2757634e487b7160e01b600052603260045260246000fd5b60020201600101819055505b5050565b612f3f617638565b6001600160a01b0316612f5061432d565b6001600160a01b031614612f765760405162461bcd60e51b81526004016110899061b4b9565b6000818152602a6020526040812081815560018101829055600281018290556003810182905560048101805462ffffff191690556005810182905560068101829055600781018290556008810182905590612fd4600983018261a267565b506000600a820155600b01805460ff1916905550565b6000612ff582616fd7565b613001575060006111fa565b6000828152602a602052604090206006015461301c90616545565b8061303657506000828152602a6020526040902060030154155b90506111fa565b600061125682610eb584611d26565b600061305782616fd7565b613063575060006111fa565b6000828152602a602052604090206005015461307e90616545565b80613036575061303682611dc6565b6001600160a01b03166000908152602d602052604090205490565b6130b0617638565b6001600160a01b03166130c161432d565b6001600160a01b0316146130e75760405162461bcd60e51b81526004016110899061b4b9565b6130f16000617bf6565b565b60006130fe82616fd7565b61311a5760405162461bcd60e51b81526004016110899061b7ba565b506000908152602a602052604090206006015490565b60315490565b61313e617638565b6001600160a01b031661314f61432d565b6001600160a01b0316146131755760405162461bcd60e51b81526004016110899061b4b9565b603d55565b600061318582616fd7565b6131a15760405162461bcd60e51b81526004016110899061b7ba565b60006131ac83614629565b15611256576000838152602a602052604090206005015461125390429061be9e565b6048546001600160a01b03166131f65760405162461bcd60e51b81526004016110899061ac72565b6131fe612d56565b613206617c46565b600061329782604860009054906101000a90046001600160a01b03166001600160a01b0316637d630cb06040518163ffffffff1660e01b815260040160206040518083038186803b15801561325a57600080fd5b505afa15801561326e573d6000803e3d6000fd5b505050506040513d601f19601f82011682018060405250810190613292919061a87a565b617e0f565b905060005b8181101561335a57603c546000908152602a602052604081206004015462010000900460ff16151560011480156132f657506132d9603c5461185e565b806132f65750603c546000908152602a6020526040902060030154155b1561333c57603c546000908152602a6020526040902060040154610100900460ff1661332757613327603c54617e25565b603c546133359060016195fb565b603c555060015b80613347575061335a565b50806133528161bf1c565b91505061329c565b50613363619607565b61336b614a29565b603854146135235760005b8181101561352157603d546000908152602a602052604081206004015462010000900460ff1615156001148015906134355750604860009054906101000a90046001600160a01b03166001600160a01b031663bd40ef4c6040518163ffffffff1660e01b815260040160206040518083038186803b1580156133f757600080fd5b505afa15801561340b573d6000803e3d6000fd5b505050506040513d601f19601f8201168201806040525081019061342f919061a87a565b60305410155b80156134555750603d546000908152602a602052604090206004015460ff165b80156134f25750604860009054906101000a90046001600160a01b03166001600160a01b031663c4a306f86040518163ffffffff1660e01b815260040160206040518083038186803b1580156134aa57600080fd5b505afa1580156134be573d6000803e3d6000fd5b505050506040513d601f19601f820116820180604052508101906134e2919061a87a565b6001546134ef904261be9e565b10155b15613503576134ff6196e8565b5060015b8061350e5750613521565b50806135198161bf1c565b915050613376565b505b612f3361790c565b600061125361353a84846145ea565b6040518060400160405280600a8152602001690c6dedadad2e890c2e6d60b31b815250614281565b61356a617638565b6001600160a01b031661357b61432d565b6001600160a01b0316146135a15760405162461bcd60e51b81526004016110899061b4b9565b604555565b6031546030546000916135b89161be53565b905090565b60006135c882616fd7565b6135e45760405162461bcd60e51b81526004016110899061b7ba565b506001600160a01b0391909116600090815260208080526040808320938352929052205460ff1690565b602a60205260009081526040902080546001820154600283015460038401546004850154600586015460068701546007880154600889015460098a018054999a98999798969760ff8088169861010089048216986201000090049091169695949392909161367b9061bee1565b80601f01602080910402602001604051908101604052809291908181526020018280546136a79061bee1565b80156136f45780601f106136c9576101008083540402835291602001916136f4565b820191906000526020600020905b8154815290600101906020018083116136d757829003601f168201915b50505050600a830154600b9093015491929160ff1690508e565b600080805b600f81101561376457600281600f811061373d57634e487b7160e01b600052603260045260246000fd5b600202016001015482613750919061be53565b91508061375c8161bf1c565b915050613713565b50905090565b60008061377784876161b2565b8310159050600061378885876161b2565b84111580613794575085155b90508180156137a05750805b979650505050505050565b60318181548110611c6957600080fd5b6048546001600160a01b03166137e35760405162461bcd60e51b81526004016110899061ac72565b6137ec85614629565b6138085760405162461bcd60e51b81526004016110899061ad3f565b3360009081526020808052604080832088845290915290205460ff16156138415760405162461bcd60e51b81526004016110899061b87f565b61384b85336161e8565b6138675760405162461bcd60e51b81526004016110899061b017565b60485460408051632a49798160e11b815290516000926001600160a01b031691635492f302916004808301926020929190829003018186803b1580156138ac57600080fd5b505afa1580156138c0573d6000803e3d6000fd5b505050506040513d601f19601f820116820180604052508101906138e4919061a50f565b6001600160a01b0316141561390b5760405162461bcd60e51b81526004016110899061ba49565b604854604080516001624ee91360e11b0319815290516000926001600160a01b03169163ff622dda916004808301926020929190829003018186803b15801561395357600080fd5b505afa158015613967573d6000803e3d6000fd5b505050506040513d601f19601f8201168201806040525081019061398b919061a87a565b905060006139993383613d92565b6001600160a01b0381166000908152602d60205260409020549091508211156139ee576001600160a01b0381166000908152602d60205260408120546139e0908490617bea565b90506139ec8183619d02565b505b6000336000908152602760205260408082209051631e0f232560e31b815273__$85afbab79b2b776d70bef879a32ed56424$__9163f079192891613a379190869060040161aad9565b60206040518083038186803b158015613a4f57600080fd5b505af4158015613a63573d6000803e3d6000fd5b505050506040513d601f19601f82011682018060405250810190613a87919061a87a565b905088811415613b2c5733600090815260276020526040908190209051631e0f232560e31b815273__$85afbab79b2b776d70bef879a32ed56424$__9163f079192891613ad991908d9060040161aad9565b60206040518083038186803b158015613af157600080fd5b505af4158015613b05573d6000803e3d6000fd5b505050506040513d601f19601f82011682018060405250810190613b29919061a87a565b90505b613b388282338761376a565b613b545760405162461bcd60e51b81526004016110899061b3bd565b3360009081526027602052604090819020905163524cfe5360e11b815273__$85afbab79b2b776d70bef879a32ed56424$__9163a499fca691613ba0919086908e90879060040161bbd9565b60006040518083038186803b158015613bb857600080fd5b505af4158015613bcc573d6000803e3d6000fd5b505050506000613bdc338b6145ea565b9050613c0a81604051806040016040528060098152602001686e756d546f6b656e7360b81b8152508761422a565b613c3a816040518060400160405280600a8152602001690c6dedadad2e890c2e6d60b31b8152508b60001c61422a565b613c6a816040518060400160405280600a815260200169636f6d6d6974566f746560b01b8152508a60001c61422a565b60008a8152602460209081526040808320338085529083528184208b90558d84526025835281842090845282529091208751613ca89289019061a307565b50336000908152602b602090815260408083208d8452602a90925290912060020154613cd5906001617bea565b60008c8152602a6020908152604080832060029081019490945542938501939093553382528080528282208e83529052908120805460ff19166001908117909155603e805491929091613d2990849061be53565b90915550613d37905061790c565b336001600160a01b03168b7f42864d9683ff5b12c3b2cc65d705af5aab104b03bc700b802f79e5c971ef08a188604051613d71919061aa8e565b60405180910390a35050505050505050505050565b603b5481565b60385481565b6048546000906001600160a01b0316613dbd5760405162461bcd60e51b81526004016110899061ac72565b60485460408051632a49798160e11b815290516000926001600160a01b031691635492f302916004808301926020929190829003018186803b158015613e0257600080fd5b505afa158015613e16573d6000803e3d6000fd5b505050506040513d601f19601f82011682018060405250810190613e3a919061a50f565b6001600160a01b03161415613e615760405162461bcd60e51b81526004016110899061ba49565b6048546040805163ca64f9e760e01b815290516000926001600160a01b03169163ca64f9e7916004808301926020929190829003018186803b158015613ea657600080fd5b505afa158015613eba573d6000803e3d6000fd5b505050506040513d601f19601f82011682018060405250810190613ede919061a50f565b6001600160a01b03161415613f055760405162461bcd60e51b81526004016110899061b617565b6048546040805163ca64f9e760e01b815290516000926001600160a01b03169163ca64f9e7916004808301926020929190829003018186803b158015613f4a57600080fd5b505afa158015613f5e573d6000803e3d6000fd5b505050506040513d601f19601f82011682018060405250810190613f82919061a50f565b90506000604860009054906101000a90046001600160a01b03166001600160a01b0316635492f3026040518163ffffffff1660e01b815260040160206040518083038186803b158015613fd457600080fd5b505afa158015613fe8573d6000803e3d6000fd5b505050506040513d601f19601f8201168201806040525081019061400c919061a50f565b90508480600360005b818110156141f95760405163065ee72760e51b81526000906001600160a01b0388169063cbdce4e09061404c90879060040161aae7565b60206040518083038186803b15801561406457600080fd5b505afa158015614078573d6000803e3d6000fd5b505050506040513d601f19601f8201168201806040525081019061409c919061a87a565b6001600160a01b0385166000908152602d602052604090205490915089116140c757839450506141f9565b6001600160a01b0384166000908152602d6020526040902054891080159061410657506001600160a01b0384166000908152602d602052604090205415155b15614144576001600160a01b0384166000908152602d602052604081205461412f908b90617bea565b90508082106141425784955050506141f9565b505b88811061415457839450506141f9565b60405163792f4f6960e11b81526001600160a01b0387169063f25e9ed29061418090879060040161aae7565b60206040518083038186803b15801561419857600080fd5b505afa1580156141ac573d6000803e3d6000fd5b505050506040513d601f19601f820116820180604052508101906141d0919061a50f565b93506001600160a01b0384166141e657506141f9565b50806141f18161bf1c565b915050614015565b5091979650505050505050565b602560209081526000928352604080842090915290825290208054611bc69061bee1565b6000838360405160200161423f92919061aa97565b60408051601f19818403018152918152815160209283012060009081526028909252902091909155505050565b60336020526000908152604090205460ff1681565b600080838360405160200161429792919061aa97565b60408051808303601f19018152918152815160209283012060009081526028909252902054949350505050565b602b602052600090815260409020805460018201546002830154600384015460048501546005860154600687015460079097015495969495939460ff80851695610100909504169389565b6001600160a01b031660009081526033602052604090205460ff1690565b6000546001600160a01b031690565b602f602052816000526040600020818154811061435857600080fd5b6000918252602090912001546001600160a01b03169150829050565b60016000828152602a60205260409020600b015460ff1660038111156143aa57634e487b7160e01b600052602160045260246000fd5b146143c75760405162461bcd60e51b81526004016110899061aca9565b336000908152602760205260409081902090516306120d1f60e31b815273__$85afbab79b2b776d70bef879a32ed56424$__9163309068f89161440f9190859060040161aad9565b60206040518083038186803b15801561442757600080fd5b505af415801561443b573d6000803e3d6000fd5b505050506040513d601f19601f8201168201806040525081019061445f919061a700565b61447b5760405162461bcd60e51b81526004016110899061b2a8565b336000908152602760205260409081902090516301039dfd60e11b815273__$85afbab79b2b776d70bef879a32ed56424$__916302073bfa916144c39190859060040161aad9565b60006040518083038186803b1580156144db57600080fd5b505af41580156144ef573d6000803e3d6000fd5b505050506144fb61790c565b604051339082907f402507661c8c8cb90e0a796450b8bdd28b6c516f05279c0cd29e84c344e1699a90600090a350565b603f5481565b6001600160a01b0381166000908152602c6020526040812081805b600f8110156111f5578281600f811061457557634e487b7160e01b600052603260045260246000fd5b600202016001015482614588919061be53565b9150806145948161bf1c565b91505061454c565b60005b8151811015612f33576145d88282815181106145cb57634e487b7160e01b600052603260045260246000fd5b6020026020010151614374565b806145e28161bf1c565b91505061459f565b600082826040516020016145ff92919061aa6c565b60405160208183030381529060405280519060200120905092915050565b603f5490565b60405481565b600061463482616fd7565b6146505760405162461bcd60e51b81526004016110899061b7ba565b6000828152602a602052604090206005015461466b90616545565b1580156112565750506000908152602a6020526040902060020154151590565b60395490565b60356020526000908152604090205460ff1681565b6000816040516020016146b9919061aabd565b60405160208183030381529060405280519060200120836040516020016146e0919061aabd565b60405160208183030381529060405280519060200120141561470457506001611256565b506000611256565b61471584611dc6565b6147315760405162461bcd60e51b81526004016110899061b6f8565b3360009081526020808052604080832087845290915290205460ff166147695760405162461bcd60e51b81526004016110899061b182565b33600090815260216020908152604080832087845290915290205460ff16156147a45760405162461bcd60e51b81526004016110899061bab6565b6147ae338561352b565b6147b88483616bb5565b146147d55760405162461bcd60e51b81526004016110899061ae06565b6147df3385614ade565b6147e98383614bf2565b146148065760405162461bcd60e51b81526004016110899061ad8e565b600061481233866161b2565b90508260011415614849576000858152602a60205260408120600701805483929061483e90849061be53565b909155506148709050565b6000858152602a60205260408120600801805483929061486a90849061be53565b90915550505b3360008181526021602090815260408083208984528252808320805460ff191660011790556022825280832084845282528083208790558883526023825280832093835292815291902085516148c89287019061a307565b50336000908152602b60209081526040808320888452602a909252909120600301546148f5906001617bea565b6000878152602a6020526040902060039081019190915542600283015581015460ff1615614933576000815561492a336177ca565b61493333619f2a565b6000868152602a60205260409020600301546149525761495286617e25565b6001603e6000828254614965919061be53565b90915550614973905061790c565b6000868152602a60205260409081902060078101546008909101549151339287928a927f0867b5027231dcbf37614eaad07d667b9febaf9fdf483f488229b1f140bb0748926149c692899290919061bcde565b60405180910390a4505050505050565b60006149e182616fd7565b6149fd5760405162461bcd60e51b81526004016110899061b7ba565b506001600160a01b03919091166000908152602160209081526040808320938352929052205460ff1690565b6000804241604051602001614a3e919061aa4f565b6040516020818303038152906040528051906020012060001c614a61919061be6b565b44614a6a611c93565b604051602001614a7a919061aa8e565b60408051601f198184030181529190528051602090910120614a9c904261be53565b614aa6919061be53565b614ab0919061be53565b604051602001614ac0919061aa8e565b60408051601f19818403018152919052805160209091012091505090565b6000611253614aed84846145ea565b6040518060400160405280600a815260200169636f6d6d6974566f746560b01b815250614281565b60328181548110611c6957600080fd5b6001600160a01b0381166000908152602b602090815260408083208151610120810183528154808252600183015494820194909452600282015492810192909252600381015460ff80821615156060850152610100918290041615156080840152600482015460a0840152600582015460c0840152600682015460e0840152600790910154908201528291614bba85826149d6565b158015614bcd5750614bcb8161185e565b155b8015614bdf5750614bdd8161304c565b155b15614be957600192505b50909392505050565b600082826040516020016145ff92919061aad9565b606060008211614c295760405162461bcd60e51b81526004016110899061b494565b600041604051602001614c3c919061aa4f565b6040516020818303038152906040528051906020012060001c614c5d611c93565b604051602001614c6d919061aa8e565b60408051601f198184030181529190528051602090910120614c8f904261be53565b614c99919061be53565b604051602001614ca9919061aa8e565b6040516020818303038152906040528051906020012060001c90506000846001600160401b03811115614cec57634e487b7160e01b600052604160045260246000fd5b604051908082528060200260200182016040528015614d15578160200160208202803683370190505b5090506000805b86821015614e1657600086614d3563017efeeb8761be9e565b83604051602001614d4792919061aad9565b6040516020818303038152906040528051906020012060001c614d6a919061bf37565b90506000805b84811015614dc25782868281518110614d9957634e487b7160e01b600052603260045260246000fd5b60200260200101511415614db05760019150614dc2565b80614dba8161bf1c565b915050614d70565b5080614e025781858581518110614de957634e487b7160e01b600052603260045260246000fd5b6020908102919091010152614dff84600161be53565b93505b614e0d83600161be53565b92505050614d1c565b509095945050505050565b6000614e2c8361185e565b614e485760405162461bcd60e51b81526004016110899061b9a2565b6001600160a01b038416600090815260216020908152604080832086845290915290205460ff16614e8b5760405162461bcd60e51b81526004016110899061b305565b6000614e9684612045565b614ea1576000614ea4565b60015b60ff16905060008184604051602001614ebe92919061aad9565b6040516020818303038152906040528051906020012090506000614ee28787614ade565b9050808214614f035760405162461bcd60e51b81526004016110899061b659565b6137a087876161b2565b6060600082118015614f1f5750818311155b8015614f2c575060018310155b614f485760405162461bcd60e51b81526004016110899061aec8565b6000826001600160401b03811115614f7057634e487b7160e01b600052604160045260246000fd5b604051908082528060200260200182016040528015614f99578160200160208202803683370190505b5090506000846001600160401b03811115614fc457634e487b7160e01b600052604160045260246000fd5b604051908082528060200260200182016040528015614fed578160200160208202803683370190505b5090506000615003614ffe84619fc2565b61a018565b905060005b86811015614e165781818151811061503057634e487b7160e01b600052603260045260246000fd5b602002602001015183828151811061505857634e487b7160e01b600052603260045260246000fd5b60209081029190910101528061506d8161bf1c565b915050615008565b6048546000906001600160a01b03166150a05760405162461bcd60e51b81526004016110899061ac72565b604860009054906101000a90046001600160a01b03166001600160a01b0316634e87c5a86040518163ffffffff1660e01b815260040160206040518083038186803b1580156150ee57600080fd5b505afa158015615102573d6000803e3d6000fd5b505050506040513d601f19601f82011682018060405250810190615126919061a700565b6151425760405162461bcd60e51b81526004016110899061b1d1565b855184146151625760405162461bcd60e51b81526004016110899061b832565b61516a612d56565b604860009054906101000a90046001600160a01b03166001600160a01b031663b38e885e6040518163ffffffff1660e01b815260040160206040518083038186803b1580156151b857600080fd5b505afa1580156151cc573d6000803e3d6000fd5b505050506040513d601f19601f820116820180604052508101906151f0919061a87a565b6151f861370e565b106152155760405162461bcd60e51b81526004016110899061b252565b604854604080516001624ee91360e11b0319815290516000926001600160a01b03169163ff622dda916004808301926020929190829003018186803b15801561525d57600080fd5b505afa158015615271573d6000803e3d6000fd5b505050506040513d601f19601f82011682018060405250810190615295919061a87a565b905060006152a33383613d92565b90506152ae81612621565b604860009054906101000a90046001600160a01b03166001600160a01b031663be2509886040518163ffffffff1660e01b815260040160206040518083038186803b1580156152fc57600080fd5b505afa158015615310573d6000803e3d6000fd5b505050506040513d601f19601f82011682018060405250810190615334919061a87a565b61533d82614531565b1080156153d55750604860009054906101000a90046001600160a01b03166001600160a01b031663b38e885e6040518163ffffffff1660e01b815260040160206040518083038186803b15801561539357600080fd5b505afa1580156153a7573d6000803e3d6000fd5b505050506040513d601f19601f820116820180604052508101906153cb919061a87a565b6153d361370e565b105b80156153f25750604554603c54603d546153ef919061be9e565b11155b1561610f576001600160a01b0381166000908152602d6020526040902054821115615449576001600160a01b0381166000908152602d602052604081205461543b908490617bea565b90506154478183619d02565b505b60005b885181101561610d57600089828151811061547757634e487b7160e01b600052603260045260246000fd5b6020026020010151905060008989848181106154a357634e487b7160e01b600052603260045260246000fd5b90506020028101906154b5919061bdc3565b8080601f016020809104026020016040519081016040528093929190818152602001838380828437600092018290525033808252602660209081526040808420603954815460018101835591865283862090910155805160e0810182528a8152918201929092524291810191909152606081018e90526080810186905260a081018d905294955060c085019350915061554b9050565b905260395460009081526029602090815260409091208251805191926155769284929091019061a307565b506020828101516001830180546001600160a01b0319166001600160a01b039092169190911790556040830151600283015560608301516003830155608083015180516155c9926004850192019061a307565b5060a082015180516155e591600584019160209091019061a307565b5060c082015160068201805460ff1916600183600381111561561757634e487b7160e01b600052602160045260246000fd5b021790555050603b546000908152602a60209081526040918290206048548351634e8f956d60e11b815293519194506001600160a01b031692639d1f2ada926004808301939192829003018186803b15801561567257600080fd5b505afa158015615686573d6000803e3d6000fd5b505050506040513d601f19601f820116820180604052508101906156aa919061a87a565b816001015410156156d05760018160010160008282546156ca919061be53565b90915550505b604860009054906101000a90046001600160a01b03166001600160a01b0316639d1f2ada6040518163ffffffff1660e01b815260040160206040518083038186803b15801561571e57600080fd5b505afa158015615732573d6000803e3d6000fd5b505050506040513d601f19601f82011682018060405250810190615756919061a87a565b8160010154106157a557600481018054600160ff19909116811761ff001916909155603b805460009061578a90849061be53565b9091555050603954603b546000908152602a60205260409020555b6039546157b390600161be53565b603955600160026157c582600f61be9e565b600f81106157e357634e487b7160e01b600052603260045260246000fd5b6002020160010160008282546157f9919061be53565b90915550506001600160a01b0385166000908152602c6020526040902060018161582482600f61be9e565b600f811061584257634e487b7160e01b600052603260045260246000fd5b600202016001016000828254615858919061be53565b909155505060435460ff16151560011415615d0a5760485460408051632a49798160e11b8152905133926000926001600160a01b0390911691635492f30291600480820192602092909190829003018186803b1580156158b757600080fd5b505afa1580156158cb573d6000803e3d6000fd5b505050506040513d601f19601f820116820180604052508101906158ef919061a50f565b90506000604860009054906101000a90046001600160a01b03166001600160a01b0316630855d1516040518163ffffffff1660e01b815260040160206040518083038186803b15801561594157600080fd5b505afa158015615955573d6000803e3d6000fd5b505050506040513d601f19601f82011682018060405250810190615979919061a50f565b90506000604860009054906101000a90046001600160a01b03166001600160a01b03166304e76c8f6040518163ffffffff1660e01b815260040160206040518083038186803b1580156159cb57600080fd5b505afa1580156159df573d6000803e3d6000fd5b505050506040513d601f19601f82011682018060405250810190615a03919061a50f565b90506000836001600160a01b03166311815086866040518263ffffffff1660e01b8152600401615a33919061aae7565b60206040518083038186803b158015615a4b57600080fd5b505afa158015615a5f573d6000803e3d6000fd5b505050506040513d601f19601f82011682018060405250810190615a83919061a50f565b90506000604454604860009054906101000a90046001600160a01b03166001600160a01b03166330c0bb796040518163ffffffff1660e01b815260040160206040518083038186803b158015615ad857600080fd5b505afa158015615aec573d6000803e3d6000fd5b505050506040513d601f19601f82011682018060405250810190615b10919061a87a565b615b1b90606461be7f565b615b25919061be6b565b90506000604454604860009054906101000a90046001600160a01b03166001600160a01b031663abb10b9b6040518163ffffffff1660e01b815260040160206040518083038186803b158015615b7a57600080fd5b505afa158015615b8e573d6000803e3d6000fd5b505050506040513d601f19601f82011682018060405250810190615bb2919061a87a565b615bbd90606461be7f565b615bc7919061be6b565b604051630db6cc8560e11b81529091506001600160a01b03861690631b6d990a90615bf8908490879060040161bca7565b602060405180830381600087803b158015615c1257600080fd5b505af1158015615c26573d6000803e3d6000fd5b505050506040513d601f19601f82011682018060405250810190615c4a919061a700565b615c665760405162461bcd60e51b81526004016110899061b350565b604051633832942560e21b81526001600160a01b0385169063e0ca509490615c94908590879060040161bc90565b602060405180830381600087803b158015615cae57600080fd5b505af1158015615cc2573d6000803e3d6000fd5b505050506040513d601f19601f82011682018060405250810190615ce6919061a700565b615d025760405162461bcd60e51b81526004016110899061b4ee565b505050505050505b615d1460016131ce565b60485460408051637b39b17f60e11b815290516000926001600160a01b03169163f67362fe916004808301926020929190829003018186803b158015615d5957600080fd5b505afa158015615d6d573d6000803e3d6000fd5b505050506040513d601f19601f82011682018060405250810190615d91919061a50f565b604051633d18199160e11b81529091506001600160a01b03821690637a30332290615dc19060019060040161aa8e565b600060405180830381600087803b158015615ddb57600080fd5b505af1925050508015615dec575060015b615e47573d808015615e1a576040519150601f19603f3d011682016040523d82523d6000602084013e615e1f565b606091505b5060008051602061bfb183398151915281604051615e3d919061ab79565b60405180910390a1505b60485460408051637a0ec25b60e01b815290516000926001600160a01b031691637a0ec25b916004808301926020929190829003018186803b158015615e8c57600080fd5b505afa158015615ea0573d6000803e3d6000fd5b505050506040513d601f19601f82011682018060405250810190615ec4919061a50f565b604051633d18199160e11b81529091506001600160a01b03821690637a30332290615ef49060019060040161aa8e565b600060405180830381600087803b158015615f0e57600080fd5b505af1925050508015615f1f575060015b615f7a573d808015615f4d576040519150601f19603f3d011682016040523d82523d6000602084013e615f52565b606091505b5060008051602061bfb183398151915281604051615f70919061ab79565b60405180910390a1505b6048546040805163463444b760e01b815290516000926001600160a01b03169163463444b7916004808301926020929190829003018186803b158015615fbf57600080fd5b505afa158015615fd3573d6000803e3d6000fd5b505050506040513d601f19601f82011682018060405250810190615ff7919061a50f565b604051633d18199160e11b81529091506001600160a01b03821690637a303322906160279060019060040161aa8e565b600060405180830381600087803b15801561604157600080fd5b505af1925050508015616052575060015b6160ad573d808015616080576040519150601f19603f3d011682016040523d82523d6000602084013e616085565b606091505b5060008051602061bfb1833981519152816040516160a3919061ab79565b60405180910390a1505b886001600160a01b03166039547fb819ca9ac369919119f75ec7363dd954f75bcfa75f9245647e03da413be0d58289896040516160eb92919061ac22565b60405180910390a35050505050505080806161059061bf1c565b91505061544c565b505b336000908152602b6020526040902042600282015561612c61790c565b6001603e600082825461613f919061be53565b90915550506039549998505050505050505050565b60445481565b600061616582616fd7565b6161815760405162461bcd60e51b81526004016110899061b7ba565b506000908152602a602052604090206005015490565b60346020526000908152604090205460ff1681565b60015481565b60006112536161c184846145ea565b604051806040016040528060098152602001686e756d546f6b656e7360b81b815250614281565b6000828152602f6020908152604080832080548251818502810185019093528083528493849392919083018282801561624a57602002820191906000526020600020905b81546001600160a01b0316815260019091019060200180831161622c575b5050505050905060005b81518110156162b957846001600160a01b031682828151811061628757634e487b7160e01b600052603260045260246000fd5b60200260200101516001600160a01b031614156162a757600192506162b9565b806162b18161bf1c565b915050616254565b5090949350505050565b602160209081526000928352604080842090915290825290205460ff1681565b603a5481565b603d5481565b60606162fa82616fd7565b6163165760405162461bcd60e51b81526004016110899061b7ba565b6000828152602f602090815260408083208054825181850281018501909352808352919290919083018282801561637657602002820191906000526020600020905b81546001600160a01b03168152600190910190602001808311616358575b50505050509050600081516001600160401b038111156163a657634e487b7160e01b600052604160045260246000fd5b6040519080825280602002602001820160405280156163d957816020015b60608152602001906001900390816163c45790505b50905060005b82518110156111f55760236000868152602001908152602001600020600084838151811061641d57634e487b7160e01b600052603260045260246000fd5b60200260200101516001600160a01b03166001600160a01b0316815260200190815260200160002080546164509061bee1565b80601f016020809104026020016040519081016040528092919081815260200182805461647c9061bee1565b80156164c95780601f1061649e576101008083540402835291602001916164c9565b820191906000526020600020905b8154815290600101906020018083116164ac57829003601f168201915b50505050508282815181106164ee57634e487b7160e01b600052603260045260246000fd5b602002602001018190525080806165049061bf1c565b9150506163df565b602e602052816000526040600020818154811061435857600080fd5b602260209081526000928352604080842090915290825290205481565b421190565b61655261a38b565b61655b82616fd7565b61656457600080fd5b6000828152602a602090815260409182902082516101c0810184528154815260018201549281019290925260028101549282019290925260038201546060820152600482015460ff808216151560808401526101008083048216151560a08501526201000090920416151560c0830152600583015460e083015260068301549082015260078201546101208201526008820154610140820152600982018054919291610160840191906166169061bee1565b80601f01602080910402602001604051908101604052809291908181526020018280546166429061bee1565b801561668f5780601f106166645761010080835404028352916020019161668f565b820191906000526020600020905b81548152906001019060200180831161667257829003601f168201915b5050509183525050600a8201546020820152600b82015460409091019060ff166003811115612ac357634e487b7160e01b600052602160045260246000fd5b6060600082116166f05760405162461bcd60e51b81526004016110899061b39e565b6000826001600160401b0381111561671857634e487b7160e01b600052604160045260246000fd5b604051908082528060200260200182016040528015616741578160200160208202803683370190505b5090506000616752614ffe83619fc2565b949350505050565b606061676582616fd7565b61676e57600080fd5b6000828152602a60205260409020600901805461678a9061bee1565b80601f01602080910402602001604051908101604052809291908181526020018280546167b69061bee1565b80156128785780601f106167d857610100808354040283529160200191612878565b820191906000526020600020905b8154815290600101906020018083116167e65750939695505050505050565b6001600160a01b03166000908152602b602052604090206003015460ff1690565b60425481565b606061683782616fd7565b6168535760405162461bcd60e51b81526004016110899061b7ba565b6000828152602a6020908152604080832081516101c0810183528154815260018201549381019390935260028101549183019190915260038101546060830152600481015460ff808216151560808501526101008083048216151560a08601526201000090920416151560c0840152600582015460e084015260068201549083015260078101546101208301526008810154610140830152600981018054610160840191906169019061bee1565b80601f016020809104026020016040519081016040528092919081815260200182805461692d9061bee1565b801561697a5780601f1061694f5761010080835404028352916020019161697a565b820191906000526020600020905b81548152906001019060200180831161695d57829003601f168201915b5050509183525050600a8201546020820152600b82015460409091019060ff1660038111156169b957634e487b7160e01b600052602160045260246000fd5b60038111156169d857634e487b7160e01b600052602160045260246000fd5b90525060208101519091506000816001600160401b03811115616a0b57634e487b7160e01b600052604160045260246000fd5b604051908082528060200260200182016040528015616a3e57816020015b6060815260200190600190039081616a295790505b50905060005b82811015611855578351600090616a5c90839061be53565b600081815260296020526040812080549293509091616a7a9061bee1565b80601f0160208091040260200160405190810160405280929190818152602001828054616aa69061bee1565b8015616af35780601f10616ac857610100808354040283529160200191616af3565b820191906000526020600020905b815481529060010190602001808311616ad657829003601f168201915b5050505050905080848481518110616b1b57634e487b7160e01b600052603260045260246000fd5b602002602001018190525050508080616b339061bf1c565b915050616a44565b603c5481565b603e5481565b616b4f617638565b6001600160a01b0316616b6061432d565b6001600160a01b031614616b865760405162461bcd60e51b81526004016110899061b4b9565b6001600160a01b038116616bac5760405162461bcd60e51b81526004016110899061ae82565b6119e481617bf6565b600082826040516020016145ff92919061ac50565b603e5490565b336000908152602b602052604090206048546001600160a01b0316616c075760405162461bcd60e51b81526004016110899061ac72565b604860009054906101000a90046001600160a01b03166001600160a01b03166398a54e2b6040518163ffffffff1660e01b815260040160206040518083038186803b158015616c5557600080fd5b505afa158015616c69573d6000803e3d6000fd5b505050506040513d601f19601f82011682018060405250810190616c8d919061a87a565b603154603054616c9d919061be53565b10616cba5760405162461bcd60e51b81526004016110899061b8c8565b600381015460ff1615616cdf5760405162461bcd60e51b81526004016110899061b0ab565b616ce83361430f565b158015616cfb5750616cf933612291565b155b616d175760405162461bcd60e51b81526004016110899061b5e2565b604860009054906101000a90046001600160a01b03166001600160a01b0316639fb491f66040518163ffffffff1660e01b815260040160206040518083038186803b158015616d6557600080fd5b505afa158015616d79573d6000803e3d6000fd5b505050506040513d601f19601f82011682018060405250810190616d9d919061a87a565b816001015410158015616e425750604860009054906101000a90046001600160a01b03166001600160a01b0316630f1f0ffe6040518163ffffffff1660e01b815260040160206040518083038186803b158015616df957600080fd5b505afa158015616e0d573d6000803e3d6000fd5b505050506040513d601f19601f82011682018060405250810190616e31919061a87a565b6004820154616e40904261be9e565b105b15616e5f5760405162461bcd60e51b81526004016110899061b90a565b604854604080516001624ee91360e11b0319815290516000926001600160a01b03169163ff622dda916004808301926020929190829003018186803b158015616ea757600080fd5b505afa158015616ebb573d6000803e3d6000fd5b505050506040513d601f19601f82011682018060405250810190616edf919061a87a565b90506000616eed3383613d92565b6001600160a01b0381166000908152602d6020526040902054909150821115616f42576001600160a01b0381166000908152602d6020526040812054616f34908490617bea565b9050616f408183619d02565b505b616f4b33619f2a565b600383018054600160ff19909116811761ff0019169091554260048501556000818501819055603e8054909190616f8390849061be53565b90915550616f91905061790c565b336001600160a01b03167f439d77b7534ec3108fc6143bd4fbabde0b9f2bb54f7b0730d1f70dd2135b765f42604051616fca919061aa8e565b60405180910390a2505050565b603b54101590565b616fe7617638565b6001600160a01b0316616ff861432d565b6001600160a01b03161461701e5760405162461bcd60e51b81526004016110899061b4b9565b6043805460ff191692151592909217909155604455565b336000908152602b602052604090206003015460ff1690565b60405490565b6047546001600160a01b031681565b6001600160a01b0381166000908152602b602090815260408083208151610120810183528154808252600183015494820194909452600282015492810192909252600381015460ff80821615156060850152610100918290041615156080840152600482015460a0840152600582015460c0840152600682015460e084015260079091015490820152906170f784826135bd565b15801561710857506171088161304c565b15611b7d575060009392505050565b606060008311801561712857508183105b6171445760405162461bcd60e51b81526004016110899061b21b565b6000835b61715384600161be53565b81101561730a576000818152602a6020908152604080832081516101c0810183528154815260018201549381019390935260028101549183019190915260038101546060830152600481015460ff808216151560808501526101008083048216151560a08601526201000090920416151560c0840152600582015460e084015260068201549083015260078101546101208301526008810154610140830152600981018054610160840191906172089061bee1565b80601f01602080910402602001604051908101604052809291908181526020018280546172349061bee1565b80156172815780601f1061725657610100808354040283529160200191617281565b820191906000526020600020905b81548152906001019060200180831161726457829003601f168201915b5050509183525050600a8201546020820152600b82015460409091019060ff1660038111156172c057634e487b7160e01b600052602160045260246000fd5b60038111156172df57634e487b7160e01b600052602160045260246000fd5b90525060208101519091506172f4908461be53565b92505080806173029061bf1c565b915050617148565b506000816001600160401b0381111561733357634e487b7160e01b600052604160045260246000fd5b60405190808252806020026020018201604052801561736657816020015b60608152602001906001900390816173515790505b5090506000855b61737886600161be53565b811015614e16576000818152602a6020908152604080832081516101c0810183528154815260018201549381019390935260028101549183019190915260038101546060830152600481015460ff808216151560808501526101008083048216151560a08601526201000090920416151560c0840152600582015460e0840152600682015490830152600781015461012083015260088101546101408301526009810180546101608401919061742d9061bee1565b80601f01602080910402602001604051908101604052809291908181526020018280546174599061bee1565b80156174a65780601f1061747b576101008083540402835291602001916174a6565b820191906000526020600020905b81548152906001019060200180831161748957829003601f168201915b5050509183525050600a8201546020820152600b82015460409091019060ff1660038111156174e557634e487b7160e01b600052602160045260246000fd5b600381111561750457634e487b7160e01b600052602160045260246000fd5b905250905060005b816020015181101561761457815160009061752890839061be53565b6000818152602960205260408120805492935090916175469061bee1565b80601f01602080910402602001604051908101604052809291908181526020018280546175729061bee1565b80156175bf5780601f10617594576101008083540402835291602001916175bf565b820191906000526020600020905b8154815290600101906020018083116175a257829003601f168201915b50505050509050808787815181106175e757634e487b7160e01b600052603260045260246000fd5b60209081029190910101526175fd60018761be53565b95505050808061760c9061bf1c565b91505061750c565b505080806176219061bf1c565b91505061736d565b6048546001600160a01b031681565b3390565b6001600160a01b03811660009081526033602052604090205460ff16156119e4576001600160a01b038116600090815260366020526040902054603080546176869060019061be9e565b815481106176a457634e487b7160e01b600052603260045260246000fd5b600091825260209091200154603080546001600160a01b0390921691839081106176de57634e487b7160e01b600052603260045260246000fd5b9060005260206000200160006101000a8154816001600160a01b0302191690836001600160a01b03160217905550603080548061772b57634e487b7160e01b600052603160045260246000fd5b60008281526020808220830160001990810180546001600160a01b03191690559092019092556001600160a01b0384168252603381526040808320805460ff19169055604954603692839052908320556030805484939190849081106177a157634e487b7160e01b600052603260045260246000fd5b60009182526020808320909101546001600160a01b031683528201929092526040019020555050565b6001600160a01b03811660009081526034602052604090205460ff16156119e4576001600160a01b038116600090815260376020526040902054603180546178149060019061be9e565b8154811061783257634e487b7160e01b600052603260045260246000fd5b600091825260209091200154603180546001600160a01b03909216918390811061786c57634e487b7160e01b600052603260045260246000fd5b9060005260206000200160006101000a8154816001600160a01b0302191690836001600160a01b0316021790555060318054806178b957634e487b7160e01b600052603160045260246000fd5b60008281526020808220830160001990810180546001600160a01b03191690559092019092556001600160a01b0384168252603481526040808320805460ff191690556049546037909252909120555050565b60485460408051632abe0d5f60e11b815290516000926001600160a01b03169163557c1abe916004808301926020929190829003018186803b15801561795157600080fd5b505afa925050508015617981575060408051601f3d908101601f1916820190925261797e9181019061a50f565b60015b6179e0573d8080156179af576040519150601f19603f3d011682016040523d82523d6000602084013e6179b4565b606091505b5060008051602061bfb1833981519152816040516179d2919061ab79565b60405180910390a1506179e2565b505b604860009054906101000a90046001600160a01b03166001600160a01b031663557c1abe6040518163ffffffff1660e01b815260040160206040518083038186803b158015617a3057600080fd5b505afa158015617a44573d6000803e3d6000fd5b505050506040513d601f19601f82011682018060405250810190617a68919061a50f565b90506001600160a01b038116617a905760405162461bcd60e51b81526004016110899061b074565b6000816001600160a01b031633604051602401617aad919061aae7565b60408051601f198184030181529181526020820180516001600160e01b0316631f5ac9c560e11b17905251617ae2919061aabd565b6000604051808303816000865af19150503d8060008114617b1f576040519150601f19603f3d011682016040523d82523d6000602084013e617b24565b606091505b505090506000826001600160a01b031633604051602401617b45919061aae7565b60408051601f198184030181529181526020820180516001600160e01b03166358563d2160e01b17905251617b7a919061aabd565b6000604051808303816000865af19150503d8060008114617bb7576040519150601f19603f3d011682016040523d82523d6000602084013e617bbc565b606091505b505090508180617bc95750805b617be55760405162461bcd60e51b81526004016110899061acfa565b505050565b6000611253828461be9e565b600080546001600160a01b038381166001600160a01b0319831681178455604051919092169283917f8be0079c531659141344cd1fd0a4f28419497f9722a3daafe3b4186f6b6457e09190a35050565b6000603a54603c54617c58919061be9e565b9050604860009054906101000a90046001600160a01b03166001600160a01b031663e3115d3c6040518163ffffffff1660e01b815260040160206040518083038186803b158015617ca857600080fd5b505afa158015617cbc573d6000803e3d6000fd5b505050506040513d601f19601f82011682018060405250810190617ce0919061a87a565b8111156119e45760005b604854604080516307d630cb60e41b81529051617d6e926001600160a01b031691637d630cb0916004808301926020929190829003018186803b158015617d3057600080fd5b505afa158015617d44573d6000803e3d6000fd5b505050506040513d601f19601f82011682018060405250810190617d68919061a87a565b83617e0f565b811015612f3357603a546000908152602a602052604081208054600190910154909190617d9b908361be53565b9050815b81811015617dc257617db08161255e565b80617dba8161bf1c565b915050617d9f565b50617dce603a54612f37565b603a546040517f72c2fcc891fe835b86fc8bb9abdc52adf52499c52289b3c49e1461eabea2717590600090a250508080617e079061bf1c565b915050617cea565b6000818310617e1e5781611253565b5090919050565b60485460408051632a49798160e11b815290516000926001600160a01b031691635492f302916004808301926020929190829003018186803b158015617e6a57600080fd5b505afa158015617e7e573d6000803e3d6000fd5b505050506040513d601f19601f82011682018060405250810190617ea2919061a50f565b6001600160a01b03161415617ec95760405162461bcd60e51b81526004016110899061ba49565b60485460408051630855d15160e01b815290516000926001600160a01b031691630855d151916004808301926020929190829003018186803b158015617f0e57600080fd5b505afa158015617f22573d6000803e3d6000fd5b505050506040513d601f19601f82011682018060405250810190617f46919061a50f565b6001600160a01b03161415617f6d5760405162461bcd60e51b81526004016110899061b785565b604854604080516304e76c8f60e01b815290516000926001600160a01b0316916304e76c8f916004808301926020929190829003018186803b158015617fb257600080fd5b505afa158015617fc6573d6000803e3d6000fd5b505050506040513d601f19601f82011682018060405250810190617fea919061a50f565b6001600160a01b031614156180115760405162461bcd60e51b81526004016110899061af5b565b61801a8161185e565b8061803457506000818152602a6020526040902060030154155b6180505760405162461bcd60e51b81526004016110899061b53e565b6000818152602a6020526040902060040154610100900460ff16156180875760405162461bcd60e51b81526004016110899061b7f1565b6000818152602f60209081526040808320805482518185028101850190935280835291929091908301828280156180e757602002820191906000526020600020905b81546001600160a01b031681526001909101906020018083116180c9575b50505050509050600081516001600160401b0381111561811757634e487b7160e01b600052604160045260246000fd5b60405190808252806020026020018201604052801561814a57816020015b60608152602001906001900390816181355790505b509050600082516001600160401b0381111561817657634e487b7160e01b600052604160045260246000fd5b60405190808252806020026020018201604052801561819f578160200160208202803683370190505b50905060005b83518110156183225760008482815181106181d057634e487b7160e01b600052603260045260246000fd5b60209081029190910181015160008881526023835260408082206001600160a01b038416835290935291822080549193509061820b9061bee1565b80601f01602080910402602001604051908101604052809291908181526020018280546182379061bee1565b80156182845780601f1061825957610100808354040283529160200191618284565b820191906000526020600020905b81548152906001019060200180831161826757829003601f168201915b50505060008a81526024602090815260408083206001600160a01b0389168452909152902054885193945092849250889150869081106182d457634e487b7160e01b600052603260045260246000fd5b60200260200101819052508085858151811061830057634e487b7160e01b600052603260045260246000fd5b602002602001018181525050505050808061831a9061bf1c565b9150506181a5565b5060006183cd6064604860009054906101000a90046001600160a01b03166001600160a01b031663ea19733c6040518163ffffffff1660e01b815260040160206040518083038186803b15801561837857600080fd5b505afa15801561838c573d6000803e3d6000fd5b505050506040513d601f19601f820116820180604052508101906183b0919061a87a565b86516183bc919061be7f565b6183c6919061be6b565b600161a1bf565b60408051602081019091526000808252919250905b84518110156184cb576000805b86518110156184805761845087848151811061841b57634e487b7160e01b600052603260045260246000fd5b602002602001015188838151811061844357634e487b7160e01b600052603260045260246000fd5b60200260200101516146a6565b1561846e5761846060018361be53565b915084821061846e57618480565b806184788161bf1c565b9150506183ef565b508381106184b8578582815181106184a857634e487b7160e01b600052603260045260246000fd5b60200260200101519250506184cb565b50806184c38161bf1c565b9150506183e2565b506000805b84518110156185b2576000805b86518110156185675786818151811061850657634e487b7160e01b600052603260045260246000fd5b602002602001015187848151811061852e57634e487b7160e01b600052603260045260246000fd5b602002602001015114156185555761854760018361be53565b915085821061855557618567565b8061855f8161bf1c565b9150506184dd565b5084811061859f5785828151811061858f57634e487b7160e01b600052603260045260246000fd5b60200260200101519250506185b2565b50806185aa8161bf1c565b9150506184d0565b5060006185be88612045565b80156185e057506185de83604051806020016040528060008152506146a6565b155b80156185eb57508115155b9050806185fc576046549150618621565b6046546000898152602a602052604090206001015461861e91617d689161be7f565b91505b60005b8751811015618dc457600088828151811061864f57634e487b7160e01b600052603260045260246000fd5b602002602001015190506000602260008c81526020019081526020016000206000836001600160a01b03166001600160a01b03168152602001908152602001600020549050600060216000846001600160a01b03166001600160a01b0316815260200190815260200160002060008d815260200190815260200160002060009054906101000a900460ff1690506000602b6000856001600160a01b03166001600160a01b03168152602001908152602001600020905060276000856001600160a01b03166001600160a01b0316815260200190815260200160002073__$85afbab79b2b776d70bef879a32ed56424$__6302073bfa90918f6040518363ffffffff1660e01b815260040161876492919061aad9565b60006040518083038186803b15801561877c57600080fd5b505af4158015618790573d6000803e3d6000fd5b505050508115618c9a576001600160a01b0384166000908152602b602052604081206001908101919091558615151480156187cb5750826001145b806187e05750851580156187e0575082600114155b15618c7a5760485460408051632a49798160e11b815290516000926001600160a01b031691635492f302916004808301926020929190829003018186803b15801561882a57600080fd5b505afa15801561883e573d6000803e3d6000fd5b505050506040513d601f19601f82011682018060405250810190618862919061a50f565b90506000604860009054906101000a90046001600160a01b03166001600160a01b0316630855d1516040518163ffffffff1660e01b815260040160206040518083038186803b1580156188b457600080fd5b505afa1580156188c8573d6000803e3d6000fd5b505050506040513d601f19601f820116820180604052508101906188ec919061a50f565b90506000604860009054906101000a90046001600160a01b03166001600160a01b03166304e76c8f6040518163ffffffff1660e01b815260040160206040518083038186803b15801561893e57600080fd5b505afa158015618952573d6000803e3d6000fd5b505050506040513d601f19601f82011682018060405250810190618976919061a50f565b90506000836001600160a01b03166311815086896040518263ffffffff1660e01b81526004016189a6919061aae7565b60206040518083038186803b1580156189be57600080fd5b505afa1580156189d2573d6000803e3d6000fd5b505050506040513d601f19601f820116820180604052508101906189f6919061a50f565b90508a15618c5657826001600160a01b0316631b6d990a8c604860009054906101000a90046001600160a01b03166001600160a01b0316630b08bfd96040518163ffffffff1660e01b815260040160206040518083038186803b158015618a5c57600080fd5b505afa158015618a70573d6000803e3d6000fd5b505050506040513d601f19601f82011682018060405250810190618a94919061a87a565b618a9e919061be7f565b836040518363ffffffff1660e01b8152600401618abc92919061bca7565b602060405180830381600087803b158015618ad657600080fd5b505af1158015618aea573d6000803e3d6000fd5b505050506040513d601f19601f82011682018060405250810190618b0e919061a700565b618b2a5760405162461bcd60e51b81526004016110899061b0e0565b816001600160a01b031663e0ca50948c604860009054906101000a90046001600160a01b03166001600160a01b031663f80de0a06040518163ffffffff1660e01b815260040160206040518083038186803b158015618b8857600080fd5b505afa158015618b9c573d6000803e3d6000fd5b505050506040513d601f19601f82011682018060405250810190618bc0919061a87a565b618bca919061be7f565b836040518363ffffffff1660e01b8152600401618be892919061bc90565b602060405180830381600087803b158015618c0257600080fd5b505af1158015618c16573d6000803e3d6000fd5b505050506040513d601f19601f82011682018060405250810190618c3a919061a700565b618c565760405162461bcd60e51b81526004016110899061b59b565b6001856006016000828254618c6b919061be53565b90915550618c95945050505050565b6001816007016000828254618c8f919061be53565b90915550505b618dad565b6001600160a01b0384166000908152602b602052604081206001908101805491929091618cc890849061be53565b909155505060485460408051634fda48fb60e11b815290516001600160a01b0390921691639fb491f691600480820192602092909190829003018186803b158015618d1257600080fd5b505afa158015618d26573d6000803e3d6000fd5b505050506040513d601f19601f82011682018060405250810190618d4a919061a87a565b6001600160a01b0385166000908152602b602052604090206001015410618d895760038101805460ff19169055618d80846177ca565b618d898461763c565b600381015460ff1615618da857618d9f846177ca565b618da884619f2a565b600081555b505050508080618dbc9061bf1c565b915050618624565b506000888152602a6020908152604090912060048101805461ff0019166101001790558451618dfb9260099092019186019061a307565b506000888152602a60205260409020600a018290558015619515576000888152602a602052604081208054600190910154909190618e39908361be53565b9050815b818110156192e2576000818152602960209081526040808320600101546048548251632a49798160e11b815292516001600160a01b0392831695949190921692635492f3029260048083019392829003018186803b158015618e9e57600080fd5b505afa158015618eb2573d6000803e3d6000fd5b505050506040513d601f19601f82011682018060405250810190618ed6919061a50f565b90506000604860009054906101000a90046001600160a01b03166001600160a01b0316630855d1516040518163ffffffff1660e01b815260040160206040518083038186803b158015618f2857600080fd5b505afa158015618f3c573d6000803e3d6000fd5b505050506040513d601f19601f82011682018060405250810190618f60919061a50f565b90506000604860009054906101000a90046001600160a01b03166001600160a01b03166304e76c8f6040518163ffffffff1660e01b815260040160206040518083038186803b158015618fb257600080fd5b505afa158015618fc6573d6000803e3d6000fd5b505050506040513d601f19601f82011682018060405250810190618fea919061a50f565b90506000836001600160a01b03166311815086866040518263ffffffff1660e01b815260040161901a919061aae7565b60206040518083038186803b15801561903257600080fd5b505afa158015619046573d6000803e3d6000fd5b505050506040513d601f19601f8201168201806040525081019061906a919061a50f565b905089156192ca57826001600160a01b0316631b6d990a8b604860009054906101000a90046001600160a01b03166001600160a01b031663abb10b9b6040518163ffffffff1660e01b815260040160206040518083038186803b1580156190d057600080fd5b505afa1580156190e4573d6000803e3d6000fd5b505050506040513d601f19601f82011682018060405250810190619108919061a87a565b619112919061be7f565b836040518363ffffffff1660e01b815260040161913092919061bca7565b602060405180830381600087803b15801561914a57600080fd5b505af115801561915e573d6000803e3d6000fd5b505050506040513d601f19601f82011682018060405250810190619182919061a700565b61919e5760405162461bcd60e51b81526004016110899061b350565b816001600160a01b031663e0ca50948b604860009054906101000a90046001600160a01b03166001600160a01b03166330c0bb796040518163ffffffff1660e01b815260040160206040518083038186803b1580156191fc57600080fd5b505afa158015619210573d6000803e3d6000fd5b505050506040513d601f19601f82011682018060405250810190619234919061a87a565b61923e919061be7f565b836040518363ffffffff1660e01b815260040161925c92919061bc90565b602060405180830381600087803b15801561927657600080fd5b505af115801561928a573d6000803e3d6000fd5b505050506040513d601f19601f820116820180604052508101906192ae919061a700565b6192ca5760405162461bcd60e51b81526004016110899061b4ee565b505050505080806192da9061bf1c565b915050618e3d565b5060008a8152602a60205260408120600b01805460ff19166001908117909155603f80549192909161931590849061be53565b909155505060485460408051637b39b17f60e11b815290516000926001600160a01b03169163f67362fe916004808301926020929190829003018186803b15801561935f57600080fd5b505afa158015619373573d6000803e3d6000fd5b505050506040513d601f19601f82011682018060405250810190619397919061a50f565b6001600160a01b031614156193be5760405162461bcd60e51b81526004016110899061af9e565b60485460408051637b39b17f60e11b815290516000926001600160a01b03169163f67362fe916004808301926020929190829003018186803b15801561940357600080fd5b505afa158015619417573d6000803e3d6000fd5b505050506040513d601f19601f8201168201806040525081019061943b919061a50f565b6040516348257dc960e01b81529091506001600160a01b038216906348257dc99061946a908e9060040161aa8e565b600060405180830381600087803b15801561948457600080fd5b505af1925050508015619495575060015b6194f4573d8080156194c3576040519150601f19603f3d011682016040523d82523d6000602084013e6194c8565b606091505b5060008051602061bfb1833981519152816040516194e6919061ab79565b60405180910390a15061950d565b6001603e6000828254619507919061be53565b90915550505b505050619549565b6000888152602a6020526040808220600b01805460ff1916600217905580546001929061954390849061be53565b90915550505b6001603e600082825461955c919061be53565b90915550506000888152602a6020526040812060020154604180549192909161958690849061be53565b90915550506000888152602a602052604081206003015460428054919290916195b090849061be53565b92505081905550877f98bfbdd7dba62d9141cf4f07139f8e53c0d00c0b44cad36d148730680b16216184836040516195e992919061abfe565b60405180910390a25050505050505050565b6000611253828461be53565b60005b6032548110156196db5760006032828154811061963757634e487b7160e01b600052603260045260246000fd5b60009182526020808320909101546001600160a01b0316808352602b90915260409091208054919250906196c65760038101805461ffff1916905561967b8261763c565b619684826177ca565b816001600160a01b03167f9dadcedba048e92b943ea1c5861cee1df63a566d7f795869c004780c1c698e2b426040516196bd919061aa8e565b60405180910390a25b505080806196d39061bf1c565b91505061960a565b506130f16032600061a419565b603d546000908152602a602052604090206004015460ff1661971c5760405162461bcd60e51b81526004016110899061b6a2565b603d546000908152602a602052604090206004015462010000900460ff16156197575760405162461bcd60e51b81526004016110899061b3eb565b600061983e6197b3603080549050604860009054906101000a90046001600160a01b03166001600160a01b031663dfeceed76040518163ffffffff1660e01b815260040160206040518083038186803b15801561325a57600080fd5b604860009054906101000a90046001600160a01b03166001600160a01b031663bd40ef4c6040518163ffffffff1660e01b815260040160206040518083038186803b15801561980157600080fd5b505afa158015619815573d6000803e3d6000fd5b505050506040513d601f19601f82011682018060405250810190619839919061a87a565b61a1bf565b6030546048546040805163189460df60e31b8152905193945091926001600160a01b039091169163c4a306f8916004808301926020929190829003018186803b15801561988a57600080fd5b505afa15801561989e573d6000803e3d6000fd5b505050506040513d601f19601f820116820180604052508101906198c2919061a87a565b6001546198cf904261be9e565b10612f3357603d80546000908152602a60209081526040808320600301869055925482528282206002018590556048548351631b4930b560e11b81529351929361997e936001600160a01b0390921692633692616a92600480840193829003018186803b15801561993f57600080fd5b505afa158015619953573d6000803e3d6000fd5b505050506040513d601f19601f82011682018060405250810190619977919061a87a565b42906195fb565b90506000619a12604860009054906101000a90046001600160a01b03166001600160a01b03166372e540306040518163ffffffff1660e01b815260040160206040518083038186803b1580156199d357600080fd5b505afa1580156199e7573d6000803e3d6000fd5b505050506040513d601f19601f82011682018060405250810190619a0b919061a87a565b83906195fb565b603d80546000908152602a6020526040808220600501869055825482528082206006018490559154815220600401805462ff0000191662010000179055905060018410801590619a63575060018310155b619a7f5760405162461bcd60e51b81526004016110899061af11565b6000619a8b8585614f0d565b9050600081516001600160401b03811115619ab657634e487b7160e01b600052604160045260246000fd5b604051908082528060200260200182016040528015619adf578160200160208202803683370190505b50905060005b8251811015619b9e576030838281518110619b1057634e487b7160e01b600052603260045260246000fd5b602002602001015181548110619b3657634e487b7160e01b600052603260045260246000fd5b9060005260206000200160009054906101000a90046001600160a01b0316828281518110619b7457634e487b7160e01b600052603260045260246000fd5b6001600160a01b039092166020928302919091019091015280619b968161bf1c565b915050619ae5565b5060005b8251811015619cbe576000828281518110619bcd57634e487b7160e01b600052603260045260246000fd5b602002602001015190506000602b6000836001600160a01b03166001600160a01b031681526020019081526020016000209050619c098261763c565b619c128261a1cf565b603d80546000908152602f60209081526040822080546001808201835591845291832090910180546001600160a01b0319166001600160a01b03871617905591548355600583018054909190619c6990849061be53565b9091555050603d546040517fe4ee2dfabe57cee15e3f558890b20455f54c1fa0718e5276faad70a6500e6b8c90619ca190859061aae7565b60405180910390a250508080619cb69061bf1c565b915050619ba2565b50426001908155603d54619cd1916195fb565b603d55619cdc614a29565b6038819055506001603e6000828254619cf5919061be53565b9091555050505050505050565b6048546040805163ca64f9e760e01b815290516000926001600160a01b03169163ca64f9e7916004808301926020929190829003018186803b158015619d4757600080fd5b505afa158015619d5b573d6000803e3d6000fd5b505050506040513d601f19601f82011682018060405250810190619d7f919061a50f565b6001600160a01b03161415619da65760405162461bcd60e51b81526004016110899061b617565b6048546040805163ca64f9e760e01b815290516000926001600160a01b03169163ca64f9e7916004808301926020929190829003018186803b158015619deb57600080fd5b505afa158015619dff573d6000803e3d6000fd5b505050506040513d601f19601f82011682018060405250810190619e23919061a50f565b6040516304ada21f60e21b81529091506001600160a01b038216906312b6887c90619e54908690869060040161bc90565b602060405180830381600087803b158015619e6e57600080fd5b505af1158015619e82573d6000803e3d6000fd5b505050506040513d601f19601f82011682018060405250810190619ea6919061a700565b619ec25760405162461bcd60e51b81526004016110899061b125565b6001600160a01b0382166000908152602d602052604081208054859290619eea90849061be53565b92505081905550816001600160a01b03167f5aa5d56140767016c877a5333ac3e1ad31a09051098a8fdf7297c4b64530a94284604051616fca919061aa8e565b619f338161430f565b6119e45760308054600180820183557f6ff97a59c90d62cc7236ba3a37cd85351bf564556780cf8c1157a220f31f0cbb90910180546001600160a01b0319166001600160a01b0385169081179091556000908152603360205260409020805460ff1916821790559054619fa6919061be9e565b6001600160a01b03821660009081526036602052604090205550565b805160609060005b8181101561a0105780848281518110619ff357634e487b7160e01b600052603260045260246000fd5b60209081029190910101528061a0088161bf1c565b915050619fca565b509192915050565b6060600082511161a03b5760405162461bcd60e51b81526004016110899061afea565b81518060005b8181101561a1b65760008361a054614a29565b87848151811061a07457634e487b7160e01b600052603260045260246000fd5b602002602001015160405160200161a08d92919061aad9565b6040516020818303038152906040528051906020012060001c61a0b0919061bf37565b61a0bb90600161be53565b905060008661a0cb60018461be9e565b8151811061a0e957634e487b7160e01b600052603260045260246000fd5b602002602001015190508660018661a101919061be9e565b8151811061a11f57634e487b7160e01b600052603260045260246000fd5b60200260200101518760018461a135919061be9e565b8151811061a15357634e487b7160e01b600052603260045260246000fd5b6020908102919091010152808761a16b60018861be9e565b8151811061a18957634e487b7160e01b600052603260045260246000fd5b602090810291909101015261a19f60018661be9e565b94505050808061a1ae9061bf1c565b91505061a041565b50929392505050565b600081831015617e1e5781611253565b61a1d881612291565b6119e45760318054600180820183557fc54045fa7c6ec765e825df7f9e9bf9dec12c5cef146f93a5eee56772ee647fbc90910180546001600160a01b0319166001600160a01b0385169081179091556000908152603460205260409020805460ff191682179055905461a24b919061be9e565b6001600160a01b03821660009081526037602052604090205550565b50805461a2739061bee1565b6000825580601f1061a28557506119e4565b601f0160209004906000526020600020908101906119e4919061a433565b6040518060e001604052806060815260200160006001600160a01b03168152602001600081526020016000815260200160608152602001606081526020016000600381111561a30257634e487b7160e01b600052602160045260246000fd5b905290565b82805461a3139061bee1565b90600052602060002090601f01602090048101928261a335576000855561a37b565b82601f1061a34e57805160ff191683800117855561a37b565b8280016001018555821561a37b579182015b8281111561a37b57825182559160200191906001019061a360565b5061a38792915061a433565b5090565b604051806101c00160405280600081526020016000815260200160008152602001600081526020016000151581526020016000151581526020016000151581526020016000815260200160008152602001600081526020016000815260200160608152602001600081526020016000600381111561a30257634e487b7160e01b600052602160045260246000fd5b50805460008255906000526020600020908101906119e491905b5b8082111561a387576000815560010161a434565b60008083601f84011261a459578182fd5b5081356001600160401b0381111561a46f578182fd5b602083019150836020808302850101111561255757600080fd5b600082601f83011261a499578081fd5b81356001600160401b0381111561a4b25761a4b261bf77565b61a4c5601f8201601f191660200161be07565b81815284602083860101111561a4d9578283fd5b816020850160208301379081016020019190915292915050565b60006020828403121561a504578081fd5b8135611b7d8161bf8d565b60006020828403121561a520578081fd5b8151611b7d8161bf8d565b6000806040838503121561a53d578081fd5b823561a5488161bf8d565b946020939093013593505050565b60008060006060848603121561a56a578081fd5b833561a5758161bf8d565b95602085013595506040909401359392505050565b60008060008060006080868803121561a5a1578081fd5b85356001600160401b038082111561a5b7578283fd5b818801915088601f83011261a5ca578283fd5b8135602061a5df61a5da8361be30565b61be07565b82815281810190858301875b8581101561a6145761a6028f8684358b010161a489565b8452928401929084019060010161a5eb565b50909a5050508901359250508082111561a62c578283fd5b61a63889838a0161a448565b909650945060408801359350606088013591508082111561a657578283fd5b5061a6648882890161a489565b9150509295509295909350565b6000602080838503121561a683578182fd5b82356001600160401b0381111561a698578283fd5b8301601f8101851361a6a8578283fd5b803561a6b661a5da8261be30565b818152838101908385018584028501860189101561a6d2578687fd5b8694505b8385101561a6f457803583526001949094019391850191850161a6d6565b50979650505050505050565b60006020828403121561a711578081fd5b8151611b7d8161bfa2565b6000806040838503121561a72e578182fd5b823561a5488161bfa2565b6000806040838503121561a74b578182fd5b8235915060208301356001600160401b0381111561a767578182fd5b61a7738582860161a489565b9150509250929050565b60008060006060848603121561a791578283fd5b8335925060208401356001600160401b0381111561a7ad578283fd5b61a7b98682870161a489565b925050604084013590509250925092565b6000806040838503121561a7dc578182fd5b82356001600160401b038082111561a7f2578384fd5b61a7fe8683870161a489565b9350602085013591508082111561a813578283fd5b5061a7738582860161a489565b6000806040838503121561a832578182fd5b82356001600160401b0381111561a847578283fd5b61a8538582860161a489565b95602094909401359450505050565b60006020828403121561a873578081fd5b5035919050565b600060208284031215611ca9578081fd5b6000806040838503121561a89d578182fd5b82359150602083013561a8af8161bf8d565b809150509250929050565b600080600080600060a0868803121561a8d1578283fd5b8535945060208601359350604086013592506060860135915060808601356001600160401b0381111561a902578182fd5b61a6648882890161a489565b6000806000806080858703121561a923578182fd5b8435935060208501356001600160401b0381111561a93f578283fd5b61a94b8782880161a489565b949794965050505060408301359260600135919050565b6000806040838503121561a974578182fd5b50508035926020909101359150565b6000806000806080858703121561a998578182fd5b8435935060208501359250604085013561a9b18161bf8d565b9396929550929360600135925050565b6000815180845260208085019450808401835b8381101561a9f05781518752958201959082019060010161a9d4565b509495945050505050565b15159052565b6000815180845261aa1981602086016020860161beb5565b601f01601f19169290920160200192915050565b6004811061aa4b57634e487b7160e01b600052602160045260246000fd5b9052565b60609190911b6bffffffffffffffffffffffff1916815260140190565b60609290921b6bffffffffffffffffffffffff19168252601482015260340190565b90815260200190565b6000838252825161aaaf81602085016020870161beb5565b919091016020019392505050565b6000825161aacf81846020870161beb5565b9190910192915050565b918252602082015260400190565b6001600160a01b0391909116815260200190565b6000602080830181845280855180835260408601915060408482028701019250838701855b8281101561ab4e57603f1988860301845261ab3c85835161aa01565b9450928501929085019060010161ab20565b5092979650505050505050565b600060208252611253602083018461a9c1565b901515815260200190565b600060208252611253602083018461aa01565b600060e0825261ab9f60e083018a61aa01565b6001600160a01b03891660208401526040830188905260608301879052828103608084015261abce818761aa01565b905082810360a084015261abe2818661aa01565b91505061abf260c083018461aa2d565b98975050505050505050565b60006040825261ac11604083018561aa01565b905082151560208301529392505050565b60006040825261ac35604083018561aa01565b828103602084015261ac47818561aa01565b95945050505050565b60006040825261ac63604083018561aa01565b90508260208301529392505050565b6020808252601f908201527f506172616d6574657273204d616e61676572206d757374206265207365742e00604082015260600190565b60208082526031908201527f676976656e204461746142617463682073686f756c6420626520415050524f5660408201527011510b08185b99081a5d081a5cc81b9bdd607a1b606082015260800190565b60208082526025908201527f72656365697665722072656a6563746564205f7265747269657665534675656c6040820152640818d85b1b60da1b606082015260800190565b6020808252602f908201527f636f6d6d697420706572696f64206e6565647320746f206265206f70656e206660408201526e1bdc881d1a1a5cc818985d18da1259608a1b606082015260800190565b60208082526052908201527f4e6f74207468652073616d6520766f7465207468616e20636f6d6d697465642c60408201527f20696d706f737369626c6520746f206d61746368207769746820676976656e206060820152715f73616c742026205f636c656172566f746560701b608082015260a00190565b60208082526056908201527f4e6f74207468652073616d652068617368207468616e20636f6d6d697465642c60408201527f20696d706f737369626c6520746f206d61746368207769746820676976656e206060820152750bee6c2d8e8404c40bec6d8cac2e492a08ca690c2e6d60531b608082015260a00190565b60208082526026908201527f4f776e61626c653a206e6577206f776e657220697320746865207a65726f206160408201526564647265737360d01b606082015260800190565b60208082526029908201527f6b206f72204e20617265206e6f74204f4b20647572696e672072616e646f6d2060408201526839b2b632b1ba34b7b760b91b606082015260800190565b6020808252602a908201527f4661696c20647572696e6720616c6c6f636174696f6e3a206e6f7420656e6f75604082015269676820776f726b65727360b01b606082015260800190565b60208082526023908201527f5265776172644d616e61676572206973206e756c6c20696e20506172616d657460408201526265727360e81b606082015260800190565b6020808252602c908201527f436f6d706c69616e636553797374656d206e756c6c20696e20506172616d657460408201526b195c9cc810dbdb9d1c9858dd60a21b606082015260800190565b60208082526013908201527205f6d7941727261792e6c656e677468203e203606c1b604082015260600190565b60208082526038908201527f55736572206e6565647320746f20626520616c6c6f636174656420746f20746860408201527f697320626174636820746f20636f6d6d6974206f6e2069740000000000000000606082015260800190565b6020808252601d908201527f734675656c3a206e756c6c2041646472657373204e6f742056616c6964000000604082015260600190565b6020808252818101527f576f726b657220697320616c7265616479207265676973746572656420283129604082015260600190565b60208082526025908201527f636f756c64206e6f74207265776172642052455020696e2056616c69646174656040820152642c20312e6160d81b606082015260800190565b6020808252603f908201527f436f756c64206e6f74207265717565737420656e6f75676820616c6c6f63617460408201527f6564207374616b652c2072657175657374416c6c6f63617465645374616b6500606082015260800190565b6020808252602f908201527f5573657220686173206e6f7420636f6d6d69746564206265666f72652c20746860408201526e1d5cc818d85b89dd081c995d99585b608a1b606082015260800190565b6020808252602a908201527f53706f7474696e67206973206e6f742063757272656e746c7920656e61626c656040820152693210313c9027bbb732b960b11b606082015260800190565b6020808252601c908201527f496e70757420626f756e6461726965732061726520696e76616c696400000000604082015260600190565b60208082526036908201527f476c6f62616c206c696d69743a206578636565646564206d61782064617461206040820152753832b9103437bab916103932ba393c903630ba32b91760511b606082015260800190565b60208082526039908201527f646c6c4d61703a20646f6573206e6f7420636f696e7461696e205f446174614260408201527f61746368496420666f7220746865206d73672073656e64657200000000000000606082015260800190565b6020808252602b908201527f75736572206d75737420686176652072657665616c656420696e20746869732060408201526a0ced2eccadc4084c2e8c6d60ab1b606082015260800190565b6020808252602e908201527f636f756c64206e6f74207265776172642052455020696e2056616c696461746560408201526d4461746142617463682c20322e6160901b606082015260800190565b60208082526005908201526404e203e20360dc1b604082015260600190565b6020808252601490820152733737ba1030903b30b634b2103837b9b4ba34b7b760611b604082015260600190565b6020808252603b908201527f43616e277420616c6c6f6361746520776f726b2c207468652063757272656e7460408201527f20626174636820697320616c726561647920616c6c6f63617465640000000000606082015260800190565b6020808252602c908201527f576f726b6572206973206e6f74207265676973746572656420736f2063616e2760408201526b3a103ab73932b3b4b9ba32b960a11b606082015260800190565b6020808252600b908201526a04e5f72616e6765203e20360ac1b604082015260600190565b6020808252818101527f4f776e61626c653a2063616c6c6572206973206e6f7420746865206f776e6572604082015260600190565b60208082526030908201527f636f756c64206e6f742072657761726420746f6b656e20696e2056616c69646160408201526f3a32a230ba30a130ba31b4161019173160811b606082015260800190565b6020808252603a908201527f5f446174614261746368496420686173206e6f7420656e6465642c206f72206e60408201527f6f7420657665727920766f74657273206861766520766f746564000000000000606082015260800190565b60208082526027908201527f636f756c64206e6f742072657761726420746f6b656e20696e2056616c6964616040820152663a32961018973160c91b606082015260800190565b6020808252818101527f576f726b657220697320616c7265616479207265676973746572656420283229604082015260600190565b60208082526022908201527f5374616b654d616e61676572206973206e756c6c20696e20506172616d657465604082015261727360f01b606082015260800190565b60208082526029908201527f6765744e756d50617373696e67546f6b656e733a20686173686573206d75737460408201526808189948195c5d585b60ba1b606082015260800190565b60208082526036908201527f43616e277420616c6c6f6361746520776f726b2c207468652063757272656e74604082015275206261746368206973206e6f7420636f6d706c65746560501b606082015260800190565b60208082526026908201527f52657665616c20706572696f64206e6f74206f70656e20666f7220746869732060408201526511185d18525160d21b606082015260800190565b60208082526027908201527f617661696c61626c65546f6b656e732073686f756c64206265203e3d205f6e756040820152666d546f6b656e7360c81b606082015260800190565b6020808252818101527f5265704d616e61676572206973206e756c6c20696e20506172616d6574657273604082015260600190565b60208082526017908201527f5f4461746142617463684964206d757374206578697374000000000000000000604082015260600190565b60208082526021908201527f5f446174614261746368496420697320616c72656164792076616c69646174656040820152601960fa1b606082015260800190565b6020808252602d908201527f53706f7474696e673a20696e70757420617272617973206d757374206265206f60408201526c0cc40e6c2daca40d8cadccee8d609b1b606082015260800190565b60208082526029908201527f557365722068617320616c726561647920636f6d6d6974656420746f207468696040820152681cc818985d18da125960ba1b606082015260800190565b60208082526022908201527f4d6178696d756d207265676973746572656420776f726b65727320616c726561604082015261647960f01b606082015260800190565b6020808252606c908201527f5573657220686173206e6f7420766f746564206d616e792074696d657320696e60408201527f206120726f7720616e64206e6565647320746f2077616974204e4f564f54455f60608201527f524547495354524154494f4e5f574149545f4455524154494f4e20746f20726560808201526b33b4b9ba32b91030b3b0b4b760a11b60a082015260c00190565b6020808252602a908201527f5f446174614261746368496420636865636b696e6720766f7465206d757374206040820152691a185d9948195b99195960b21b606082015260800190565b6020808252603b908201527f436f756c64206e6f74207769746864726177566f74696e67526967687473207460408201527f68726f7567682050726f78795374616b654465616c6c6f636174650000000000606082015260800190565b60208082526024908201527f416464726573734d616e61676572206973206e756c6c20696e20506172616d656040820152637465727360e01b606082015260800190565b6020808252600f908201526e11185d18481b5d5cdd08195e1a5cdd608a1b604082015260600190565b6020808252602c908201527f557365722068617320616c72656164792072657665616c65642c20746875732060408201526b18d85b89dd081c995d99585b60a21b606082015260800190565b60006020825282516020830152602083015160408301526040830151606083015260608301516080830152608083015161bb3f60a084018261a9fb565b5060a083015161bb5260c084018261a9fb565b5060c083015161bb6560e084018261a9fb565b5060e0830151610100838101919091528301516101208084019190915283015161014080840191909152830151610160808401919091528301516101c061018080850182905261bbb96101e086018461aa01565b908601516101a0868101919091528601519092506162b98286018261aa2d565b93845260208401929092526040830152606082015260800190565b600060208252825160e0602084015261bc1161010084018261aa01565b905060018060a01b03602085015116604084015260408401516060840152606084015160808401526080840151601f19808584030160a086015261bc55838361aa01565b925060a08601519150808584030160c08601525061bc73828261aa01565b91505060c084015161bc8860e085018261aa2d565b509392505050565b9182526001600160a01b0316602082015260400190565b9182526001600160a01b031660208201526000604082015260600190565b600083825260406020830152616752604083018461a9c1565b9283526020830191909152604082015260600190565b988952602089019790975260408801959095529215156060870152901515608086015260a085015260c084015260e08301526101008201526101200190565b60008f82528e60208301528d60408301528c60608301528b151560808301528a151560a083015261bd6760c083018b61a9fb565b8860e08301528761010083015286610120830152856101408301526101c061016083015261bd996101c083018661aa01565b90508361018083015261bdb06101a083018461aa2d565b9f9e505050505050505050505050505050565b6000808335601e1984360301811261bdd9578283fd5b8301803591506001600160401b0382111561bdf2578283fd5b60200191503681900382131561255757600080fd5b6040518181016001600160401b038111828210171561be285761be2861bf77565b604052919050565b60006001600160401b0382111561be495761be4961bf77565b5060209081020190565b6000821982111561be665761be6661bf4b565b500190565b60008261be7a5761be7a61bf61565b500490565b600081600019048311821515161561be995761be9961bf4b565b500290565b60008282101561beb05761beb061bf4b565b500390565b60005b8381101561bed057818101518382015260200161beb8565b838111156128125750506000910152565b60028104600182168061bef557607f821691505b6020821081141561bf1657634e487b7160e01b600052602260045260246000fd5b50919050565b600060001982141561bf305761bf3061bf4b565b5060010190565b60008261bf465761bf4661bf61565b500690565b634e487b7160e01b600052601160045260246000fd5b634e487b7160e01b600052601260045260246000fd5b634e487b7160e01b600052604160045260246000fd5b6001600160a01b03811681146119e457600080fd5b80151581146119e457600080fdfe4b87bbd93ba65ede1e2efeca735d9f7a6720bf7d6db0a8355b17dba5b64e5783a2646970667358221220ca91dac9dd2276e6e1fe476eb43298ba60bd32b77612a4c78f1a3d4a27af092164736f6c63430008000033",
  "linkReferences": {
    "contracts/worksystems/DataSpotting.sol": {
      "DLL": [
        {
          "length": 20,
          "start": 7128
        },
        {
          "length": 20,
          "start": 7300
        },
        {
          "length": 20,
          "start": 7896
        },
        {
          "length": 20,
          "start": 15257
        },
        {
          "length": 20,
          "start": 15419
        },
        {
          "length": 20,
          "start": 15614
        },
        {
          "length": 20,
          "start": 17777
        },
        {
          "length": 20,
          "start": 17957
        },
        {
          "length": 20,
          "start": 34999
        }
      ]
    }
  },
  "deployedLinkReferences": {
    "contracts/worksystems/DataSpotting.sol": {
      "DLL": [
        {
          "length": 20,
          "start": 6733
        },
        {
          "length": 20,
          "start": 6905
        },
        {
          "length": 20,
          "start": 7501
        },
        {
          "length": 20,
          "start": 14862
        },
        {
          "length": 20,
          "start": 15024
        },
        {
          "length": 20,
          "start": 15219
        },
        {
          "length": 20,
          "start": 17382
        },
        {
          "length": 20,
          "start": 17562
        },
        {
          "length": 20,
          "start": 34604
        }
      ]
    }
  }
}