{
  "_format": "hh-sol-artifact-1",
  "contractName": "DataSpotting",
  "sourceName": "contracts/worksystems/DataSpotting.sol",
  "abi": [
    {
      "inputs": [
        {
          "internalType": "address",
          "name": "EXDT_token_",
          "type": "address"
        }
      ],
      "stateMutability": "nonpayable",
      "type": "constructor"
    },
    {
      "anonymous": false,
      "inputs": [
        {
          "indexed": false,
          "internalType": "bytes",
          "name": "bytesFailure",
          "type": "bytes"
        }
      ],
      "name": "BytesFailure",
      "type": "event"
    },
    {
      "anonymous": false,
      "inputs": [
        {
          "indexed": true,
          "internalType": "address",
          "name": "previousOwner",
          "type": "address"
        },
        {
          "indexed": true,
          "internalType": "address",
          "name": "newOwner",
          "type": "address"
        }
      ],
      "name": "OwnershipTransferred",
      "type": "event"
    },
    {
      "anonymous": false,
      "inputs": [
        {
          "indexed": true,
          "internalType": "uint256",
          "name": "batchID",
          "type": "uint256"
        }
      ],
      "name": "_DataBatchDeleted",
      "type": "event"
    },
    {
      "anonymous": false,
      "inputs": [
        {
          "indexed": false,
          "internalType": "string",
          "name": "hash",
          "type": "string"
        },
        {
          "indexed": true,
          "internalType": "address",
          "name": "creator",
          "type": "address"
        }
      ],
      "name": "_SpotAccepted",
      "type": "event"
    },
    {
      "anonymous": false,
      "inputs": [
        {
          "indexed": true,
          "internalType": "uint256",
          "name": "DataID",
          "type": "uint256"
        },
        {
          "indexed": false,
          "internalType": "uint256",
          "name": "numTokens",
          "type": "uint256"
        },
        {
          "indexed": true,
          "internalType": "address",
          "name": "voter",
          "type": "address"
        }
      ],
      "name": "_SpotCheckCommitted",
      "type": "event"
    },
    {
      "anonymous": false,
      "inputs": [
        {
          "indexed": true,
          "internalType": "uint256",
          "name": "DataID",
          "type": "uint256"
        },
        {
          "indexed": false,
          "internalType": "uint256",
          "name": "numTokens",
          "type": "uint256"
        },
        {
          "indexed": false,
          "internalType": "uint256",
          "name": "votesFor",
          "type": "uint256"
        },
        {
          "indexed": false,
          "internalType": "uint256",
          "name": "votesAgainst",
          "type": "uint256"
        },
        {
          "indexed": true,
          "internalType": "uint256",
          "name": "choice",
          "type": "uint256"
        },
        {
          "indexed": true,
          "internalType": "address",
          "name": "voter",
          "type": "address"
        }
      ],
      "name": "_SpotCheckRevealed",
      "type": "event"
    },
    {
      "anonymous": false,
      "inputs": [
        {
          "indexed": true,
          "internalType": "uint256",
          "name": "DataID",
          "type": "uint256"
        },
        {
          "indexed": false,
          "internalType": "string",
          "name": "file_hash",
          "type": "string"
        },
        {
          "indexed": false,
          "internalType": "string",
          "name": "URL_domain",
          "type": "string"
        },
        {
          "indexed": true,
          "internalType": "address",
          "name": "sender",
          "type": "address"
        }
      ],
      "name": "_SpotSubmitted",
      "type": "event"
    },
    {
      "anonymous": false,
      "inputs": [
        {
          "indexed": false,
          "internalType": "uint256",
          "name": "numTokens",
          "type": "uint256"
        },
        {
          "indexed": true,
          "internalType": "address",
          "name": "voter",
          "type": "address"
        }
      ],
      "name": "_StakeAllocated",
      "type": "event"
    },
    {
      "anonymous": false,
      "inputs": [
        {
          "indexed": true,
          "internalType": "uint256",
          "name": "DataID",
          "type": "uint256"
        },
        {
          "indexed": true,
          "internalType": "address",
          "name": "voter",
          "type": "address"
        }
      ],
      "name": "_TokensRescued",
      "type": "event"
    },
    {
      "anonymous": false,
      "inputs": [
        {
          "indexed": false,
          "internalType": "uint256",
          "name": "numTokens",
          "type": "uint256"
        },
        {
          "indexed": true,
          "internalType": "address",
          "name": "voter",
          "type": "address"
        }
      ],
      "name": "_VotingRightsWithdrawn",
      "type": "event"
    },
    {
      "anonymous": false,
      "inputs": [
        {
          "indexed": true,
          "internalType": "uint256",
          "name": "batchID",
          "type": "uint256"
        },
        {
          "indexed": false,
          "internalType": "address",
          "name": "worker",
          "type": "address"
        }
      ],
      "name": "_WorkAllocated",
      "type": "event"
    },
    {
      "anonymous": false,
      "inputs": [
        {
          "indexed": true,
          "internalType": "address",
          "name": "worker",
          "type": "address"
        },
        {
          "indexed": false,
          "internalType": "uint256",
          "name": "timestamp",
          "type": "uint256"
        }
      ],
      "name": "_WorkerRegistered",
      "type": "event"
    },
    {
      "anonymous": false,
      "inputs": [
        {
          "indexed": true,
          "internalType": "address",
          "name": "worker",
          "type": "address"
        },
        {
          "indexed": false,
          "internalType": "uint256",
          "name": "timestamp",
          "type": "uint256"
        }
      ],
      "name": "_WorkerUnregistered",
      "type": "event"
    },
    {
      "inputs": [],
      "name": "AcceptedBatchsCounter",
      "outputs": [
        {
          "internalType": "uint256",
          "name": "",
          "type": "uint256"
        }
      ],
      "stateMutability": "view",
      "type": "function"
    },
    {
      "inputs": [],
      "name": "AddressManager",
      "outputs": [
        {
          "internalType": "contract IAddressManager",
          "name": "",
          "type": "address"
        }
      ],
      "stateMutability": "view",
      "type": "function"
    },
    {
      "inputs": [],
      "name": "AllTxsCounter",
      "outputs": [
        {
          "internalType": "uint256",
          "name": "",
          "type": "uint256"
        }
      ],
      "stateMutability": "view",
      "type": "function"
    },
    {
      "inputs": [],
      "name": "AllocateWork",
      "outputs": [],
      "stateMutability": "nonpayable",
      "type": "function"
    },
    {
      "inputs": [],
      "name": "AllocatedBatchCursor",
      "outputs": [
        {
          "internalType": "uint256",
          "name": "",
          "type": "uint256"
        }
      ],
      "stateMutability": "view",
      "type": "function"
    },
    {
      "inputs": [],
      "name": "AmIRegistered",
      "outputs": [
        {
          "internalType": "bool",
          "name": "passed",
          "type": "bool"
        }
      ],
      "stateMutability": "view",
      "type": "function"
    },
    {
      "inputs": [
        {
          "internalType": "string",
          "name": "_a",
          "type": "string"
        },
        {
          "internalType": "string",
          "name": "_b",
          "type": "string"
        }
      ],
      "name": "AreStringsEqual",
      "outputs": [
        {
          "internalType": "bool",
          "name": "",
          "type": "bool"
        }
      ],
      "stateMutability": "pure",
      "type": "function"
    },
    {
      "inputs": [],
      "name": "BatchCheckingCursor",
      "outputs": [
        {
          "internalType": "uint256",
          "name": "",
          "type": "uint256"
        }
      ],
      "stateMutability": "view",
      "type": "function"
    },
    {
      "inputs": [],
      "name": "BatchDeletionCursor",
      "outputs": [
        {
          "internalType": "uint256",
          "name": "",
          "type": "uint256"
        }
      ],
      "stateMutability": "view",
      "type": "function"
    },
    {
      "inputs": [
        {
          "internalType": "uint256",
          "name": "",
          "type": "uint256"
        }
      ],
      "name": "DataBatch",
      "outputs": [
        {
          "internalType": "uint256",
          "name": "start_idx",
          "type": "uint256"
        },
        {
          "internalType": "uint256",
          "name": "counter",
          "type": "uint256"
        },
        {
          "internalType": "uint256",
          "name": "uncommited_workers",
          "type": "uint256"
        },
        {
          "internalType": "uint256",
          "name": "unrevealed_workers",
          "type": "uint256"
        },
        {
          "internalType": "bool",
          "name": "complete",
          "type": "bool"
        },
        {
          "internalType": "bool",
          "name": "checked",
          "type": "bool"
        },
        {
          "internalType": "bool",
          "name": "allocated_to_work",
          "type": "bool"
        },
        {
          "internalType": "uint256",
          "name": "commitEndDate",
          "type": "uint256"
        },
        {
          "internalType": "uint256",
          "name": "revealEndDate",
          "type": "uint256"
        },
        {
          "internalType": "uint256",
          "name": "votesFor",
          "type": "uint256"
        },
        {
          "internalType": "uint256",
          "name": "votesAgainst",
          "type": "uint256"
        },
        {
          "internalType": "string",
          "name": "batchIPFSfile",
          "type": "string"
        },
        {
          "internalType": "uint256",
          "name": "item_count",
          "type": "uint256"
        },
        {
          "internalType": "enum DataSpotting.DataStatus",
          "name": "status",
          "type": "uint8"
        }
      ],
      "stateMutability": "view",
      "type": "function"
    },
    {
      "inputs": [
        {
          "internalType": "uint256",
          "name": "_DataBatchId",
          "type": "uint256"
        }
      ],
      "name": "DataCommitEndDate",
      "outputs": [
        {
          "internalType": "uint256",
          "name": "commitEndDate",
          "type": "uint256"
        }
      ],
      "stateMutability": "view",
      "type": "function"
    },
    {
      "inputs": [
        {
          "internalType": "uint256",
          "name": "_DataBatchId",
          "type": "uint256"
        }
      ],
      "name": "DataEnded",
      "outputs": [
        {
          "internalType": "bool",
          "name": "ended",
          "type": "bool"
        }
      ],
      "stateMutability": "view",
      "type": "function"
    },
    {
      "inputs": [
        {
          "internalType": "uint256",
          "name": "_DataBatchId",
          "type": "uint256"
        }
      ],
      "name": "DataExists",
      "outputs": [
        {
          "internalType": "bool",
          "name": "exists",
          "type": "bool"
        }
      ],
      "stateMutability": "view",
      "type": "function"
    },
    {
      "inputs": [],
      "name": "DataNonce",
      "outputs": [
        {
          "internalType": "uint256",
          "name": "",
          "type": "uint256"
        }
      ],
      "stateMutability": "view",
      "type": "function"
    },
    {
      "inputs": [
        {
          "internalType": "uint256",
          "name": "_DataBatchId",
          "type": "uint256"
        }
      ],
      "name": "DataRevealEndDate",
      "outputs": [
        {
          "internalType": "uint256",
          "name": "revealEndDate",
          "type": "uint256"
        }
      ],
      "stateMutability": "view",
      "type": "function"
    },
    {
      "inputs": [],
      "name": "FormattingSystem",
      "outputs": [
        {
          "internalType": "contract IFormattingSystem",
          "name": "",
          "type": "address"
        }
      ],
      "stateMutability": "view",
      "type": "function"
    },
    {
      "inputs": [
        {
          "internalType": "address",
          "name": "user_",
          "type": "address"
        }
      ],
      "name": "GetCurrentWork",
      "outputs": [
        {
          "internalType": "uint256",
          "name": "",
          "type": "uint256"
        }
      ],
      "stateMutability": "view",
      "type": "function"
    },
    {
      "inputs": [
        {
          "internalType": "uint256",
          "name": "",
          "type": "uint256"
        }
      ],
      "name": "GlobalSpotFlowManager",
      "outputs": [
        {
          "internalType": "uint256",
          "name": "timestamp",
          "type": "uint256"
        },
        {
          "internalType": "uint256",
          "name": "counter",
          "type": "uint256"
        }
      ],
      "stateMutability": "view",
      "type": "function"
    },
    {
      "inputs": [
        {
          "internalType": "address",
          "name": "user_",
          "type": "address"
        }
      ],
      "name": "IsNewWorkAvailable",
      "outputs": [
        {
          "internalType": "bool",
          "name": "",
          "type": "bool"
        }
      ],
      "stateMutability": "view",
      "type": "function"
    },
    {
      "inputs": [],
      "name": "LastAllocationTime",
      "outputs": [
        {
          "internalType": "uint256",
          "name": "",
          "type": "uint256"
        }
      ],
      "stateMutability": "view",
      "type": "function"
    },
    {
      "inputs": [],
      "name": "LastBatchCounter",
      "outputs": [
        {
          "internalType": "uint256",
          "name": "",
          "type": "uint256"
        }
      ],
      "stateMutability": "view",
      "type": "function"
    },
    {
      "inputs": [
        {
          "internalType": "address",
          "name": "",
          "type": "address"
        },
        {
          "internalType": "uint256",
          "name": "",
          "type": "uint256"
        }
      ],
      "name": "MasterWorkers",
      "outputs": [
        {
          "internalType": "address",
          "name": "",
          "type": "address"
        }
      ],
      "stateMutability": "view",
      "type": "function"
    },
    {
      "inputs": [],
      "name": "NotCommitedCounter",
      "outputs": [
        {
          "internalType": "uint256",
          "name": "",
          "type": "uint256"
        }
      ],
      "stateMutability": "view",
      "type": "function"
    },
    {
      "inputs": [],
      "name": "NotRevealedCounter",
      "outputs": [
        {
          "internalType": "uint256",
          "name": "",
          "type": "uint256"
        }
      ],
      "stateMutability": "view",
      "type": "function"
    },
    {
      "inputs": [],
      "name": "Parameters",
      "outputs": [
        {
          "internalType": "contract IParametersManager",
          "name": "",
          "type": "address"
        }
      ],
      "stateMutability": "view",
      "type": "function"
    },
    {
      "inputs": [],
      "name": "RegisterWorker",
      "outputs": [],
      "stateMutability": "nonpayable",
      "type": "function"
    },
    {
      "inputs": [],
      "name": "RejectedBatchsCounter",
      "outputs": [
        {
          "internalType": "uint256",
          "name": "",
          "type": "uint256"
        }
      ],
      "stateMutability": "view",
      "type": "function"
    },
    {
      "inputs": [],
      "name": "RepManager",
      "outputs": [
        {
          "internalType": "contract IRepManager",
          "name": "",
          "type": "address"
        }
      ],
      "stateMutability": "view",
      "type": "function"
    },
    {
      "inputs": [],
      "name": "RewardManager",
      "outputs": [
        {
          "internalType": "contract IRewardManager",
          "name": "",
          "type": "address"
        }
      ],
      "stateMutability": "view",
      "type": "function"
    },
    {
      "inputs": [],
      "name": "SPOT_TOGGLE_ENABLED",
      "outputs": [
        {
          "internalType": "bool",
          "name": "",
          "type": "bool"
        }
      ],
      "stateMutability": "view",
      "type": "function"
    },
    {
      "inputs": [
        {
          "internalType": "string[]",
          "name": "file_hashs",
          "type": "string[]"
        },
        {
          "internalType": "string[]",
          "name": "URL_domains",
          "type": "string[]"
        },
        {
          "internalType": "uint256",
          "name": "item_count_",
          "type": "uint256"
        },
        {
          "internalType": "string",
          "name": "extra_",
          "type": "string"
        }
      ],
      "name": "SpotData",
      "outputs": [
        {
          "internalType": "uint256",
          "name": "Dataid_",
          "type": "uint256"
        }
      ],
      "stateMutability": "nonpayable",
      "type": "function"
    },
    {
      "inputs": [
        {
          "internalType": "address",
          "name": "",
          "type": "address"
        }
      ],
      "name": "SpotStakedTokenBalance",
      "outputs": [
        {
          "internalType": "uint256",
          "name": "",
          "type": "uint256"
        }
      ],
      "stateMutability": "view",
      "type": "function"
    },
    {
      "inputs": [
        {
          "internalType": "uint256",
          "name": "",
          "type": "uint256"
        }
      ],
      "name": "SpotsMapping",
      "outputs": [
        {
          "internalType": "string",
          "name": "ipfs_hash",
          "type": "string"
        },
        {
          "internalType": "address",
          "name": "author",
          "type": "address"
        },
        {
          "internalType": "uint256",
          "name": "timestamp",
          "type": "uint256"
        },
        {
          "internalType": "uint256",
          "name": "item_count",
          "type": "uint256"
        },
        {
          "internalType": "string",
          "name": "URL_domain",
          "type": "string"
        },
        {
          "internalType": "string",
          "name": "extra",
          "type": "string"
        },
        {
          "internalType": "enum DataSpotting.DataStatus",
          "name": "status",
          "type": "uint8"
        }
      ],
      "stateMutability": "view",
      "type": "function"
    },
    {
      "inputs": [],
      "name": "StakeManager",
      "outputs": [
        {
          "internalType": "contract IStakeManager",
          "name": "",
          "type": "address"
        }
      ],
      "stateMutability": "view",
      "type": "function"
    },
    {
      "inputs": [],
      "name": "TriggerUpdate",
      "outputs": [],
      "stateMutability": "nonpayable",
      "type": "function"
    },
    {
      "inputs": [],
      "name": "UnregisterWorker",
      "outputs": [],
      "stateMutability": "nonpayable",
      "type": "function"
    },
    {
      "inputs": [
        {
          "internalType": "uint256",
          "name": "",
          "type": "uint256"
        },
        {
          "internalType": "address",
          "name": "",
          "type": "address"
        }
      ],
      "name": "UserBatchCounts",
      "outputs": [
        {
          "internalType": "uint256",
          "name": "",
          "type": "uint256"
        }
      ],
      "stateMutability": "view",
      "type": "function"
    },
    {
      "inputs": [
        {
          "internalType": "uint256",
          "name": "",
          "type": "uint256"
        },
        {
          "internalType": "address",
          "name": "",
          "type": "address"
        }
      ],
      "name": "UserBatchFrom",
      "outputs": [
        {
          "internalType": "string",
          "name": "",
          "type": "string"
        }
      ],
      "stateMutability": "view",
      "type": "function"
    },
    {
      "inputs": [
        {
          "internalType": "address",
          "name": "",
          "type": "address"
        },
        {
          "internalType": "uint256",
          "name": "",
          "type": "uint256"
        }
      ],
      "name": "UserChecksCommits",
      "outputs": [
        {
          "internalType": "bool",
          "name": "",
          "type": "bool"
        }
      ],
      "stateMutability": "view",
      "type": "function"
    },
    {
      "inputs": [
        {
          "internalType": "address",
          "name": "",
          "type": "address"
        },
        {
          "internalType": "uint256",
          "name": "",
          "type": "uint256"
        }
      ],
      "name": "UserChecksReveals",
      "outputs": [
        {
          "internalType": "bool",
          "name": "",
          "type": "bool"
        }
      ],
      "stateMutability": "view",
      "type": "function"
    },
    {
      "inputs": [
        {
          "internalType": "uint256",
          "name": "",
          "type": "uint256"
        },
        {
          "internalType": "address",
          "name": "",
          "type": "address"
        }
      ],
      "name": "UserNewFiles",
      "outputs": [
        {
          "internalType": "string",
          "name": "",
          "type": "string"
        }
      ],
      "stateMutability": "view",
      "type": "function"
    },
    {
      "inputs": [
        {
          "internalType": "address",
          "name": "",
          "type": "address"
        },
        {
          "internalType": "uint256",
          "name": "",
          "type": "uint256"
        }
      ],
      "name": "UserSubmissions",
      "outputs": [
        {
          "internalType": "uint256",
          "name": "",
          "type": "uint256"
        }
      ],
      "stateMutability": "view",
      "type": "function"
    },
    {
      "inputs": [
        {
          "internalType": "uint256",
          "name": "",
          "type": "uint256"
        },
        {
          "internalType": "address",
          "name": "",
          "type": "address"
        }
      ],
      "name": "UserVotes",
      "outputs": [
        {
          "internalType": "uint256",
          "name": "",
          "type": "uint256"
        }
      ],
      "stateMutability": "view",
      "type": "function"
    },
    {
      "inputs": [
        {
          "internalType": "uint256",
          "name": "",
          "type": "uint256"
        },
        {
          "internalType": "uint256",
          "name": "",
          "type": "uint256"
        }
      ],
      "name": "WorkersPerBatch",
      "outputs": [
        {
          "internalType": "address",
          "name": "",
          "type": "address"
        }
      ],
      "stateMutability": "view",
      "type": "function"
    },
    {
      "inputs": [
        {
          "internalType": "address",
          "name": "",
          "type": "address"
        }
      ],
      "name": "WorkersState",
      "outputs": [
        {
          "internalType": "address",
          "name": "worker_address",
          "type": "address"
        },
        {
          "internalType": "uint256",
          "name": "allocated_work_batch",
          "type": "uint256"
        },
        {
          "internalType": "bool",
          "name": "has_completed_work",
          "type": "bool"
        },
        {
          "internalType": "uint256",
          "name": "succeeding_novote_count",
          "type": "uint256"
        },
        {
          "internalType": "uint256",
          "name": "last_interaction_date",
          "type": "uint256"
        },
        {
          "internalType": "bool",
          "name": "registered",
          "type": "bool"
        },
        {
          "internalType": "bool",
          "name": "unregistration_request",
          "type": "bool"
        },
        {
          "internalType": "uint256",
          "name": "registration_date",
          "type": "uint256"
        },
        {
          "internalType": "uint256",
          "name": "majority_counter",
          "type": "uint256"
        },
        {
          "internalType": "uint256",
          "name": "minority_counter",
          "type": "uint256"
        }
      ],
      "stateMutability": "view",
      "type": "function"
    },
    {
      "inputs": [
        {
          "internalType": "address",
          "name": "_user",
          "type": "address"
        },
        {
          "internalType": "uint256",
          "name": "_DataBatchId",
          "type": "uint256"
        }
      ],
      "name": "attrUUID",
      "outputs": [
        {
          "internalType": "bytes32",
          "name": "UUID",
          "type": "bytes32"
        }
      ],
      "stateMutability": "pure",
      "type": "function"
    },
    {
      "inputs": [
        {
          "internalType": "uint256",
          "name": "",
          "type": "uint256"
        }
      ],
      "name": "availableWorkers",
      "outputs": [
        {
          "internalType": "address",
          "name": "",
          "type": "address"
        }
      ],
      "stateMutability": "view",
      "type": "function"
    },
    {
      "inputs": [
        {
          "internalType": "uint256",
          "name": "",
          "type": "uint256"
        }
      ],
      "name": "busyWorkers",
      "outputs": [
        {
          "internalType": "address",
          "name": "",
          "type": "address"
        }
      ],
      "stateMutability": "view",
      "type": "function"
    },
    {
      "inputs": [
        {
          "internalType": "uint256",
          "name": "_DataBatchId",
          "type": "uint256"
        }
      ],
      "name": "commitPeriodActive",
      "outputs": [
        {
          "internalType": "bool",
          "name": "active",
          "type": "bool"
        }
      ],
      "stateMutability": "view",
      "type": "function"
    },
    {
      "inputs": [
        {
          "internalType": "uint256",
          "name": "_DataBatchId",
          "type": "uint256"
        },
        {
          "internalType": "bytes32",
          "name": "_secretHash",
          "type": "bytes32"
        },
        {
          "internalType": "string",
          "name": "newIPFSHash",
          "type": "string"
        },
        {
          "internalType": "uint256",
          "name": "_BatchCount",
          "type": "uint256"
        },
        {
          "internalType": "string",
          "name": "_From",
          "type": "string"
        }
      ],
      "name": "commitSpotCheck",
      "outputs": [],
      "stateMutability": "nonpayable",
      "type": "function"
    },
    {
      "inputs": [
        {
          "internalType": "uint256",
          "name": "_DataId",
          "type": "uint256"
        }
      ],
      "name": "deleteData",
      "outputs": [],
      "stateMutability": "nonpayable",
      "type": "function"
    },
    {
      "inputs": [
        {
          "internalType": "uint256",
          "name": "_BatchId",
          "type": "uint256"
        }
      ],
      "name": "deleteDataBatch",
      "outputs": [],
      "stateMutability": "nonpayable",
      "type": "function"
    },
    {
      "inputs": [
        {
          "internalType": "address",
          "name": "_voter",
          "type": "address"
        },
        {
          "internalType": "uint256",
          "name": "_DataBatchId",
          "type": "uint256"
        }
      ],
      "name": "didCommit",
      "outputs": [
        {
          "internalType": "bool",
          "name": "committed",
          "type": "bool"
        }
      ],
      "stateMutability": "view",
      "type": "function"
    },
    {
      "inputs": [
        {
          "internalType": "address",
          "name": "_voter",
          "type": "address"
        },
        {
          "internalType": "uint256",
          "name": "_DataBatchId",
          "type": "uint256"
        }
      ],
      "name": "didReveal",
      "outputs": [
        {
          "internalType": "bool",
          "name": "revealed",
          "type": "bool"
        }
      ],
      "stateMutability": "view",
      "type": "function"
    },
    {
      "inputs": [
        {
          "internalType": "uint256",
          "name": "_k",
          "type": "uint256"
        },
        {
          "internalType": "uint256",
          "name": "N_range",
          "type": "uint256"
        }
      ],
      "name": "generateIntegers",
      "outputs": [
        {
          "internalType": "uint256[]",
          "name": "",
          "type": "uint256[]"
        }
      ],
      "stateMutability": "view",
      "type": "function"
    },
    {
      "inputs": [],
      "name": "getAcceptedBatchesCount",
      "outputs": [
        {
          "internalType": "uint256",
          "name": "count",
          "type": "uint256"
        }
      ],
      "stateMutability": "view",
      "type": "function"
    },
    {
      "inputs": [],
      "name": "getActiveWorkersCount",
      "outputs": [
        {
          "internalType": "uint256",
          "name": "numWorkers",
          "type": "uint256"
        }
      ],
      "stateMutability": "view",
      "type": "function"
    },
    {
      "inputs": [
        {
          "internalType": "uint256",
          "name": "_DataBatchId",
          "type": "uint256"
        }
      ],
      "name": "getBatchByID",
      "outputs": [
        {
          "components": [
            {
              "internalType": "uint256",
              "name": "start_idx",
              "type": "uint256"
            },
            {
              "internalType": "uint256",
              "name": "counter",
              "type": "uint256"
            },
            {
              "internalType": "uint256",
              "name": "uncommited_workers",
              "type": "uint256"
            },
            {
              "internalType": "uint256",
              "name": "unrevealed_workers",
              "type": "uint256"
            },
            {
              "internalType": "bool",
              "name": "complete",
              "type": "bool"
            },
            {
              "internalType": "bool",
              "name": "checked",
              "type": "bool"
            },
            {
              "internalType": "bool",
              "name": "allocated_to_work",
              "type": "bool"
            },
            {
              "internalType": "uint256",
              "name": "commitEndDate",
              "type": "uint256"
            },
            {
              "internalType": "uint256",
              "name": "revealEndDate",
              "type": "uint256"
            },
            {
              "internalType": "uint256",
              "name": "votesFor",
              "type": "uint256"
            },
            {
              "internalType": "uint256",
              "name": "votesAgainst",
              "type": "uint256"
            },
            {
              "internalType": "string",
              "name": "batchIPFSfile",
              "type": "string"
            },
            {
              "internalType": "uint256",
              "name": "item_count",
              "type": "uint256"
            },
            {
              "internalType": "enum DataSpotting.DataStatus",
              "name": "status",
              "type": "uint8"
            }
          ],
          "internalType": "struct DataSpotting.BatchMetadata",
          "name": "batch",
          "type": "tuple"
        }
      ],
      "stateMutability": "view",
      "type": "function"
    },
    {
      "inputs": [
        {
          "internalType": "uint256",
          "name": "_DataBatchId",
          "type": "uint256"
        }
      ],
      "name": "getBatchIPFSFileByID",
      "outputs": [
        {
          "internalType": "string",
          "name": "batch",
          "type": "string"
        }
      ],
      "stateMutability": "view",
      "type": "function"
    },
    {
      "inputs": [
        {
          "internalType": "address",
          "name": "_voter",
          "type": "address"
        },
        {
          "internalType": "uint256",
          "name": "_DataBatchId",
          "type": "uint256"
        }
      ],
      "name": "getCommitHash",
      "outputs": [
        {
          "internalType": "bytes32",
          "name": "commitHash",
          "type": "bytes32"
        }
      ],
      "stateMutability": "view",
      "type": "function"
    },
    {
      "inputs": [
        {
          "internalType": "uint256",
          "name": "_DataId",
          "type": "uint256"
        }
      ],
      "name": "getDataByID",
      "outputs": [
        {
          "components": [
            {
              "internalType": "string",
              "name": "ipfs_hash",
              "type": "string"
            },
            {
              "internalType": "address",
              "name": "author",
              "type": "address"
            },
            {
              "internalType": "uint256",
              "name": "timestamp",
              "type": "uint256"
            },
            {
              "internalType": "uint256",
              "name": "item_count",
              "type": "uint256"
            },
            {
              "internalType": "string",
              "name": "URL_domain",
              "type": "string"
            },
            {
              "internalType": "string",
              "name": "extra",
              "type": "string"
            },
            {
              "internalType": "enum DataSpotting.DataStatus",
              "name": "status",
              "type": "uint8"
            }
          ],
          "internalType": "struct DataSpotting.SpottedData",
          "name": "data",
          "type": "tuple"
        }
      ],
      "stateMutability": "view",
      "type": "function"
    },
    {
      "inputs": [
        {
          "internalType": "uint256",
          "name": "_DataBatchId",
          "type": "uint256"
        }
      ],
      "name": "getDomainsForBatch",
      "outputs": [
        {
          "internalType": "string[]",
          "name": "",
          "type": "string[]"
        }
      ],
      "stateMutability": "view",
      "type": "function"
    },
    {
      "inputs": [
        {
          "internalType": "uint256",
          "name": "_voteOption",
          "type": "uint256"
        },
        {
          "internalType": "uint256",
          "name": "_salt",
          "type": "uint256"
        }
      ],
      "name": "getEncryptedHash",
      "outputs": [
        {
          "internalType": "bytes32",
          "name": "keccak256hash",
          "type": "bytes32"
        }
      ],
      "stateMutability": "pure",
      "type": "function"
    },
    {
      "inputs": [
        {
          "internalType": "string",
          "name": "_hash",
          "type": "string"
        },
        {
          "internalType": "uint256",
          "name": "_salt",
          "type": "uint256"
        }
      ],
      "name": "getEncryptedStringHash",
      "outputs": [
        {
          "internalType": "bytes32",
          "name": "keccak256hash",
          "type": "bytes32"
        }
      ],
      "stateMutability": "pure",
      "type": "function"
    },
    {
      "inputs": [],
      "name": "getGlobalPeriodSpotCount",
      "outputs": [
        {
          "internalType": "uint256",
          "name": "",
          "type": "uint256"
        }
      ],
      "stateMutability": "view",
      "type": "function"
    },
    {
      "inputs": [
        {
          "internalType": "uint256",
          "name": "_DataBatchId",
          "type": "uint256"
        }
      ],
      "name": "getIPFShashesForBatch",
      "outputs": [
        {
          "internalType": "string[]",
          "name": "",
          "type": "string[]"
        }
      ],
      "stateMutability": "view",
      "type": "function"
    },
    {
      "inputs": [
        {
          "internalType": "address",
          "name": "_voter",
          "type": "address"
        },
        {
          "internalType": "uint256",
          "name": "_numTokens",
          "type": "uint256"
        },
        {
          "internalType": "uint256",
          "name": "_DataBatchId",
          "type": "uint256"
        }
      ],
      "name": "getInsertPointForNumTokens",
      "outputs": [
        {
          "internalType": "uint256",
          "name": "prevNode",
          "type": "uint256"
        }
      ],
      "stateMutability": "view",
      "type": "function"
    },
    {
      "inputs": [],
      "name": "getLastAllocatedBatchId",
      "outputs": [
        {
          "internalType": "uint256",
          "name": "LastAllocatedBatchId",
          "type": "uint256"
        }
      ],
      "stateMutability": "view",
      "type": "function"
    },
    {
      "inputs": [],
      "name": "getLastBatchId",
      "outputs": [
        {
          "internalType": "uint256",
          "name": "LastBatchId",
          "type": "uint256"
        }
      ],
      "stateMutability": "view",
      "type": "function"
    },
    {
      "inputs": [],
      "name": "getLastCheckedBatchId",
      "outputs": [
        {
          "internalType": "uint256",
          "name": "LastCheckedBatchId",
          "type": "uint256"
        }
      ],
      "stateMutability": "view",
      "type": "function"
    },
    {
      "inputs": [],
      "name": "getLastDataId",
      "outputs": [
        {
          "internalType": "uint256",
          "name": "DataId",
          "type": "uint256"
        }
      ],
      "stateMutability": "view",
      "type": "function"
    },
    {
      "inputs": [
        {
          "internalType": "address",
          "name": "_voter",
          "type": "address"
        }
      ],
      "name": "getLastNode",
      "outputs": [
        {
          "internalType": "uint256",
          "name": "DataID",
          "type": "uint256"
        }
      ],
      "stateMutability": "view",
      "type": "function"
    },
    {
      "inputs": [
        {
          "internalType": "address",
          "name": "_voter",
          "type": "address"
        }
      ],
      "name": "getLockedTokens",
      "outputs": [
        {
          "internalType": "uint256",
          "name": "numTokens",
          "type": "uint256"
        }
      ],
      "stateMutability": "view",
      "type": "function"
    },
    {
      "inputs": [
        {
          "internalType": "address",
          "name": "_voter",
          "type": "address"
        },
        {
          "internalType": "uint256",
          "name": "_DataBatchId",
          "type": "uint256"
        },
        {
          "internalType": "uint256",
          "name": "_salt",
          "type": "uint256"
        }
      ],
      "name": "getNumPassingTokens",
      "outputs": [
        {
          "internalType": "uint256",
          "name": "correctSpotChecks",
          "type": "uint256"
        }
      ],
      "stateMutability": "view",
      "type": "function"
    },
    {
      "inputs": [
        {
          "internalType": "address",
          "name": "_voter",
          "type": "address"
        },
        {
          "internalType": "uint256",
          "name": "_DataBatchId",
          "type": "uint256"
        }
      ],
      "name": "getNumTokens",
      "outputs": [
        {
          "internalType": "uint256",
          "name": "numTokens",
          "type": "uint256"
        }
      ],
      "stateMutability": "view",
      "type": "function"
    },
    {
      "inputs": [],
      "name": "getRandom",
      "outputs": [
        {
          "internalType": "uint256",
          "name": "",
          "type": "uint256"
        }
      ],
      "stateMutability": "view",
      "type": "function"
    },
    {
      "inputs": [],
      "name": "getRejectedBatchesCount",
      "outputs": [
        {
          "internalType": "uint256",
          "name": "count",
          "type": "uint256"
        }
      ],
      "stateMutability": "view",
      "type": "function"
    },
    {
      "inputs": [],
      "name": "getSeed",
      "outputs": [
        {
          "internalType": "bytes32",
          "name": "addr",
          "type": "bytes32"
        }
      ],
      "stateMutability": "view",
      "type": "function"
    },
    {
      "inputs": [
        {
          "internalType": "address",
          "name": "_user",
          "type": "address"
        }
      ],
      "name": "getSystemTokenBalance",
      "outputs": [
        {
          "internalType": "uint256",
          "name": "tokens",
          "type": "uint256"
        }
      ],
      "stateMutability": "view",
      "type": "function"
    },
    {
      "inputs": [],
      "name": "getTxCounter",
      "outputs": [
        {
          "internalType": "uint256",
          "name": "Counter",
          "type": "uint256"
        }
      ],
      "stateMutability": "view",
      "type": "function"
    },
    {
      "inputs": [
        {
          "internalType": "address",
          "name": "user",
          "type": "address"
        }
      ],
      "name": "getUserDatas",
      "outputs": [
        {
          "internalType": "uint256[]",
          "name": "user_Datas",
          "type": "uint256[]"
        }
      ],
      "stateMutability": "view",
      "type": "function"
    },
    {
      "inputs": [
        {
          "internalType": "address",
          "name": "user_",
          "type": "address"
        }
      ],
      "name": "getUserPeriodSpotCount",
      "outputs": [
        {
          "internalType": "uint256",
          "name": "",
          "type": "uint256"
        }
      ],
      "stateMutability": "view",
      "type": "function"
    },
    {
      "inputs": [
        {
          "internalType": "uint256",
          "name": "_terminationDate",
          "type": "uint256"
        }
      ],
      "name": "isExpired",
      "outputs": [
        {
          "internalType": "bool",
          "name": "expired",
          "type": "bool"
        }
      ],
      "stateMutability": "view",
      "type": "function"
    },
    {
      "inputs": [
        {
          "internalType": "uint256",
          "name": "_DataBatchId",
          "type": "uint256"
        }
      ],
      "name": "isPassed",
      "outputs": [
        {
          "internalType": "bool",
          "name": "passed",
          "type": "bool"
        }
      ],
      "stateMutability": "view",
      "type": "function"
    },
    {
      "inputs": [
        {
          "internalType": "uint256",
          "name": "_DataBatchId",
          "type": "uint256"
        },
        {
          "internalType": "address",
          "name": "_worker",
          "type": "address"
        }
      ],
      "name": "isWorkerAllocatedToBatch",
      "outputs": [
        {
          "internalType": "bool",
          "name": "",
          "type": "bool"
        }
      ],
      "stateMutability": "view",
      "type": "function"
    },
    {
      "inputs": [
        {
          "internalType": "address",
          "name": "_worker",
          "type": "address"
        }
      ],
      "name": "isWorkerRegistered",
      "outputs": [
        {
          "internalType": "bool",
          "name": "passed",
          "type": "bool"
        }
      ],
      "stateMutability": "view",
      "type": "function"
    },
    {
      "inputs": [],
      "name": "owner",
      "outputs": [
        {
          "internalType": "address",
          "name": "",
          "type": "address"
        }
      ],
      "stateMutability": "view",
      "type": "function"
    },
    {
      "inputs": [
        {
          "internalType": "uint256",
          "name": "k",
          "type": "uint256"
        },
        {
          "internalType": "uint256",
          "name": "N",
          "type": "uint256"
        }
      ],
      "name": "random_selection",
      "outputs": [
        {
          "internalType": "uint256[]",
          "name": "",
          "type": "uint256[]"
        }
      ],
      "stateMutability": "view",
      "type": "function"
    },
    {
      "inputs": [],
      "name": "renounceOwnership",
      "outputs": [],
      "stateMutability": "nonpayable",
      "type": "function"
    },
    {
      "inputs": [
        {
          "internalType": "uint256",
          "name": "_DataBatchId",
          "type": "uint256"
        }
      ],
      "name": "rescueTokens",
      "outputs": [],
      "stateMutability": "nonpayable",
      "type": "function"
    },
    {
      "inputs": [
        {
          "internalType": "uint256[]",
          "name": "_DataBatchIDs",
          "type": "uint256[]"
        }
      ],
      "name": "rescueTokensInMultipleDatas",
      "outputs": [],
      "stateMutability": "nonpayable",
      "type": "function"
    },
    {
      "inputs": [
        {
          "internalType": "uint256",
          "name": "_DataBatchId",
          "type": "uint256"
        }
      ],
      "name": "revealPeriodActive",
      "outputs": [
        {
          "internalType": "bool",
          "name": "active",
          "type": "bool"
        }
      ],
      "stateMutability": "view",
      "type": "function"
    },
    {
      "inputs": [
        {
          "internalType": "uint256",
          "name": "_DataBatchId",
          "type": "uint256"
        },
        {
          "internalType": "uint256",
          "name": "_voteOption",
          "type": "uint256"
        },
        {
          "internalType": "uint256",
          "name": "_salt",
          "type": "uint256"
        }
      ],
      "name": "revealSpotCheck",
      "outputs": [],
      "stateMutability": "nonpayable",
      "type": "function"
    },
    {
      "inputs": [],
      "name": "sFuel",
      "outputs": [
        {
          "internalType": "address",
          "name": "",
          "type": "address"
        }
      ],
      "stateMutability": "view",
      "type": "function"
    },
    {
      "inputs": [
        {
          "internalType": "uint256",
          "name": "N",
          "type": "uint256"
        }
      ],
      "name": "shuffle_array",
      "outputs": [
        {
          "internalType": "uint256[]",
          "name": "",
          "type": "uint256[]"
        }
      ],
      "stateMutability": "view",
      "type": "function"
    },
    {
      "inputs": [
        {
          "internalType": "uint256",
          "name": "",
          "type": "uint256"
        }
      ],
      "name": "toUnregisterWorkers",
      "outputs": [
        {
          "internalType": "address",
          "name": "",
          "type": "address"
        }
      ],
      "stateMutability": "view",
      "type": "function"
    },
    {
      "inputs": [],
      "name": "token",
      "outputs": [
        {
          "internalType": "contract IERC20",
          "name": "",
          "type": "address"
        }
      ],
      "stateMutability": "view",
      "type": "function"
    },
    {
      "inputs": [
        {
          "internalType": "address",
          "name": "newOwner",
          "type": "address"
        }
      ],
      "name": "transferOwnership",
      "outputs": [],
      "stateMutability": "nonpayable",
      "type": "function"
    },
    {
      "inputs": [
        {
          "internalType": "address",
          "name": "addr",
          "type": "address"
        }
      ],
      "name": "updateAddressManager",
      "outputs": [],
      "stateMutability": "nonpayable",
      "type": "function"
    },
    {
      "inputs": [
        {
          "internalType": "address",
          "name": "addr",
          "type": "address"
        }
      ],
      "name": "updateFormattingSystem",
      "outputs": [],
      "stateMutability": "nonpayable",
      "type": "function"
    },
    {
      "inputs": [
        {
          "internalType": "address",
          "name": "addr",
          "type": "address"
        }
      ],
      "name": "updateParametersManager",
      "outputs": [],
      "stateMutability": "nonpayable",
      "type": "function"
    },
    {
      "inputs": [
        {
          "internalType": "address",
          "name": "addr",
          "type": "address"
        }
      ],
      "name": "updateRepManager",
      "outputs": [],
      "stateMutability": "nonpayable",
      "type": "function"
    },
    {
      "inputs": [
        {
          "internalType": "address",
          "name": "addr",
          "type": "address"
        }
      ],
      "name": "updateRewardManager",
      "outputs": [],
      "stateMutability": "nonpayable",
      "type": "function"
    },
    {
      "inputs": [
        {
          "internalType": "address",
          "name": "addr",
          "type": "address"
        }
      ],
      "name": "updateStakeManager",
      "outputs": [],
      "stateMutability": "nonpayable",
      "type": "function"
    },
    {
      "inputs": [
        {
          "internalType": "uint256",
          "name": "_prevID",
          "type": "uint256"
        },
        {
          "internalType": "uint256",
          "name": "_nextID",
          "type": "uint256"
        },
        {
          "internalType": "address",
          "name": "_voter",
          "type": "address"
        },
        {
          "internalType": "uint256",
          "name": "_numTokens",
          "type": "uint256"
        }
      ],
      "name": "validPosition",
      "outputs": [
        {
          "internalType": "bool",
          "name": "APPROVED",
          "type": "bool"
        }
      ],
      "stateMutability": "view",
      "type": "function"
    },
    {
      "inputs": [
        {
          "internalType": "uint256",
          "name": "_numTokens",
          "type": "uint256"
        }
      ],
      "name": "withdrawVotingRights",
      "outputs": [],
      "stateMutability": "nonpayable",
      "type": "function"
    }
  ],
  "bytecode": "0x608060405260006001818155601d829055601e819055601f81905560208190556021556022819055602381905560248190556025819055602655602d805460ff60a01b1916600160a01b1790553480156200005957600080fd5b5060405162009a0b38038062009a0b8339810160408190526200007c916200011e565b620000906200008a620000ca565b620000ce565b6001600160a01b038116620000a457600080fd5b602780546001600160a01b0319166001600160a01b03929092169190911790556200014e565b3390565b600080546001600160a01b038381166001600160a01b0319831681178455604051919092169283917f8be0079c531659141344cd1fd0a4f28419497f9722a3daafe3b4186f6b6457e09190a35050565b60006020828403121562000130578081fd5b81516001600160a01b038116811462000147578182fd5b9392505050565b6198ad806200015e6000396000f3fe608060405234801561001057600080fd5b506004361061063e5760003560e01c80639fc9c52f11610336578063d6b0206c116101c3578063eb1322ff1161010f578063f716596d116100ad578063f96305f011610087578063f96305f014610d18578063fc0c546a14610d20578063fca4956314610d28578063ff43de9d14610d3b5761063e565b8063f716596d14610cf5578063f721de4a14610cfd578063f80a23fd14610d105761063e565b8063f2d9e74d116100e9578063f2d9e74d14610cbf578063f2fde38b14610cc7578063f4cdfcc414610cda578063f5ae7c7d14610ced5761063e565b8063eb1322ff14610c9c578063ed8becfa14610ca4578063ef4fcdad14610cb75761063e565b8063da14563a1161017c578063e44c974b11610156578063e44c974b14610c50578063e604c12714610c63578063e798a7da14610c76578063e7b1d43c14610c895761063e565b8063da14563a14610c22578063dd61868214610c2a578063df05368e14610c3d5761063e565b8063d6b0206c14610bae578063d822ce0114610bb6578063d8b7567414610bc9578063d901402b14610bdc578063d9548e5314610bef578063d9845fb814610c025761063e565b8063b1d7ea9811610282578063c7c063fb1161023b578063d138209211610215578063d138209214610b6d578063d186981d14610b80578063d420ec0b14610b93578063d58f575c14610ba65761063e565b8063c7c063fb14610b3f578063cdb8b21814610b52578063d0d41def14610b655761063e565b8063b1d7ea9814610acd578063b43bd06914610ae0578063b8f011b314610af3578063bc3002e614610b06578063c47c4bc214610b19578063c4e4f82a14610b2c5761063e565b8063a9057790116102ef578063ab43e78d116102c9578063ab43e78d14610a8c578063b10aa58414610a94578063b1a2e0be14610aa7578063b1cf4a7e14610aba5761063e565b8063a905779014610a5e578063aa7ca46414610a71578063aacc5a1714610a845761063e565b80639fc9c52f14610a0d578063a1103f3714610a20578063a1b6b5b714610a33578063a350715a14610a3b578063a4439dc514610a43578063a511dba014610a565761063e565b80635a452943116104cf5780637fabe35b1161041b5780638c89d027116103b95780638df0296e116103935780638df0296e146109cc57806397603560146109df5780639769d846146109f25780639d6e3f96146109fa5761063e565b80638c89d027146109935780638d289f8f146109bc5780638da5cb5b146109c45761063e565b8063821aa8c0116103f5578063821aa8c01461095d57806383cc6ef2146109705780638473850b1461097857806388d072eb146109805761063e565b80637fabe35b14610915578063815ce74714610942578063819b02931461094a5761063e565b80637074222b116104885780637a34da67116104625780637a34da67146108df5780637d050526146108e75780637f9510a2146108fa5780637f97e836146109025761063e565b80637074222b146108b1578063715018a6146108c457806371880b1b146108cc5761063e565b80635a4529431461083d5780635b113a551461085d5780635dc44cf1146108705780636371d81f14610883578063667bf0f8146108965780636b2d95d41461089e5761063e565b80633538af821161058e57806347fe2d20116105475780634fe8b4c1116105215780634fe8b4c1146107fa578063515535e81461080d57806351912f2914610815578063579db71c1461081d5761063e565b806347fe2d20146107d75780634852e2f0146107df57806349403183146107e75761063e565b80633538af821461076d57806336fc43fc1461078057806339e7357c146107885780633c062cc814610790578063427fa1d2146107b1578063441c77c0146107c45761063e565b806319d90346116105fb57806329a47bc7116105d557806329a47bc7146107125780632c052031146107275780632d917c681461073a5780632f469fd11461074d5761063e565b806319d90346146106ca578063226ed300146106ea578063275c25901461070a5761063e565b8063035fbb5514610643578063050eb2eb14610658578063059576231461066b5780630b96c5b01461067e5780630e6661a7146106ad578063154fd39b146106c2575b600080fd5b610656610651366004618339565b610d43565b005b610656610666366004617f20565b61109c565b610656610679366004617f20565b6110fd565b61069161068c36600461821f565b61115e565b6040516106a497969594939291906185c5565b60405180910390f35b6106b5611342565b6040516106a49190618430565b6106b5611348565b6106dd6106d836600461821f565b61134e565b6040516106a491906184cb565b6106fd6106f836600461821f565b6116e5565b6040516106a4919061856f565b61065661172d565b61071a611893565b6040516106a49190618463565b6106b5610735366004617f83565b6118a2565b6106fd610748366004617f58565b611a3f565b61076061075b366004618248565b611a5f565b6040516106a4919061857a565b61071a61077b36600461821f565b611b04565b6106fd611b2e565b6106b5611b3e565b6107a361079e36600461821f565b611b5b565b6040516106a4929190618455565b6106b56107bf366004617f20565b611b7d565b6106fd6107d236600461821f565b611c1d565b6106b5611c77565b6106b5611c7d565b6106fd6107f536600461821f565b611c83565b61065661080836600461821f565b611ecf565b6106b5611f74565b61071a611f7a565b61083061082b366004617f20565b611f89565b6040516106a4919061852b565b61085061084b36600461821f565b611ff5565b6040516106a4919061951d565b6106b561086b366004618248565b61224a565b6106b561087e366004617f58565b612267565b61065661089136600461821f565b612298565b61065661234b565b6106b56108ac366004617f20565b6129e0565b6106b56108bf366004617f20565b6129ef565b610656612a0a565b6106b56108da36600461821f565b612a55565b61071a612a92565b6106566108f5366004617f20565b612aa1565b6106b5612b02565b6106fd610910366004617f58565b612b19565b61092861092336600461821f565b612b6c565b6040516106a49e9d9c9b9a999897969594939291906195fc565b6106b5612c6c565b6106fd6109583660046182fb565b612cc8565b61071a61096b36600461821f565b612d09565b61071a612d19565b6106b5612d28565b61076061098e366004618248565b612d2e565b6109a66109a1366004617f20565b612d52565b6040516106a49a99989796959493929190618477565b61071a612db5565b61071a612dc4565b61071a6109da3660046182da565b612dd3565b6106566109ed36600461821f565b612e0b565b6106b5612fba565b6106b5610a08366004617f20565b612fc0565b610656610a1b36600461809e565b613040565b6106b5610a2e366004617f58565b61308e565b6106b56130c1565b6106b56130c7565b6106fd610a5136600461821f565b6130cd565b6106b561312f565b6106fd610a6c3660046181bf565b613135565b6106fd610a7f366004617f58565b61319b565b6106b56131ee565b61071a6132a3565b61071a610aa236600461821f565b6132b2565b6106fd610ab5366004617f20565b6132c2565b6106b5610ac83660046182da565b613403565b610830610adb3660046182da565b613418565b6106b5610aee366004617f83565b61361f565b610830610b013660046182da565b61370b565b6106b5610b14366004617fb7565b613873565b610656610b27366004617f20565b6141c5565b6106b5610b3a36600461821f565b614226565b6106b5610b4d366004617f20565b614263565b610656610b60366004618277565b614275565b6106b56148af565b6106b5610b7b366004617f58565b6148b5565b6106fd610b8e366004618248565b61494a565b6106fd610ba1366004617f58565b614a25565b6106b5614a45565b6106b5614a4b565b61071a610bc4366004617f58565b614a51565b6106b5610bd7366004618248565b614a6d565b6106b5610bea366004617f58565b614a8a565b6106fd610bfd36600461821f565b614acf565b610c15610c1036600461821f565b614ad4565b6040516106a491906193a3565b610656614c58565b610656610c38366004617f20565b614f2f565b610656610c4b366004617f20565b614f90565b610830610c5e36600461821f565b614ff1565b610760610c7136600461821f565b61506a565b6106fd610c84366004617f20565b615115565b610656610c9736600461821f565b615136565b6106b561527e565b6106dd610cb236600461821f565b615284565b6106b561560f565b6106b5615615565b610656610cd5366004617f20565b61561b565b6106b5610ce836600461814d565b615689565b6106b56156bf565b6106566156c5565b6106fd610d0b36600461821f565b615bad565b6106fd615bb5565b6106b5615bce565b61071a615bd4565b6106b5610d36366004617f20565b615be3565b61071a615cfe565b610d4b615d0d565b610d5483611c1d565b610d795760405162461bcd60e51b8152600401610d7090618fde565b60405180910390fd5b336000908152600a6020908152604080832086845290915290205460ff16610db35760405162461bcd60e51b8152600401610d7090618af7565b336000908152600b6020908152604080832086845290915290205460ff1615610dee5760405162461bcd60e51b8152600401610d7090619357565b610df83384614a8a565b610e028383613403565b14610e1f5760405162461bcd60e51b8152600401610d7090618892565b6000610e2b33856148b5565b90508260011415610e625760008481526014602052604081206007018054839290610e57908490619728565b90915550610e899050565b60008481526014602052604081206008018054839290610e83908490619728565b90915550505b336000908152601160205260409081902090516301039dfd60e11b815273__$85afbab79b2b776d70bef879a32ed56424$__916302073bfa91610ed191908890600401618455565b60006040518083038186803b158015610ee957600080fd5b505af4158015610efd573d6000803e3d6000fd5b5050336000818152600b602090815260408083208a84528252808320805460ff19166001908117909155600c8352818420948452938252808320899055601582528083208a8452601490925290912060030154909350610f5e925090615e95565b60008681526014602052604090206003015560028101805460ff19166001179055426004820155610f8e33615ea1565b600581015460ff161561100357610fa433615ff9565b158015610fbb57506005810154610100900460ff16155b1561100357601980546001810182556000919091527f944998273e477b495144fb8794c914197f3ccb46be2900f4698fd0ef743c96950180546001600160a01b031916331790555b6000858152601460205260409020600301546110225761102285616069565b6001602260008282546110359190619728565b909155505060008581526014602052604090819020600781015460089091015491513392879289927f0867b5027231dcbf37614eaad07d667b9febaf9fdf483f488229b1f140bb07489261108d9289929091906195e6565b60405180910390a45050505050565b6110a461715d565b6001600160a01b03166110b5612dc4565b6001600160a01b0316146110db5760405162461bcd60e51b8152600401610d7090618e5d565b602a80546001600160a01b0319166001600160a01b0392909216919091179055565b61110561715d565b6001600160a01b0316611116612dc4565b6001600160a01b03161461113c5760405162461bcd60e51b8152600401610d7090618e5d565b602d80546001600160a01b0319166001600160a01b0392909216919091179055565b601360205260009081526040902080548190611179906197b6565b80601f01602080910402602001604051908101604052809291908181526020018280546111a5906197b6565b80156111f25780601f106111c7576101008083540402835291602001916111f2565b820191906000526020600020905b8154815290600101906020018083116111d557829003601f168201915b50505060018401546002850154600386015460048701805496976001600160a01b039094169692955090935090611228906197b6565b80601f0160208091040260200160405190810160405280929190818152602001828054611254906197b6565b80156112a15780601f10611276576101008083540402835291602001916112a1565b820191906000526020600020905b81548152906001019060200180831161128457829003601f168201915b5050505050908060050180546112b6906197b6565b80601f01602080910402602001604051908101604052809291908181526020018280546112e2906197b6565b801561132f5780601f106113045761010080835404028352916020019161132f565b820191906000526020600020905b81548152906001019060200180831161131257829003601f168201915b5050506006909301549192505060ff1687565b601d5481565b60215490565b606061135982615bad565b6113755760405162461bcd60e51b8152600401610d709061906b565b600082815260146020908152604080832081516101c0810183528154815260018201549381019390935260028101549183019190915260038101546060830152600481015460ff808216151560808501526101008083048216151560a08601526201000090920416151560c0840152600582015460e08401526006820154908301526007810154610120830152600881015461014083015260098101805461016084019190611423906197b6565b80601f016020809104026020016040519081016040528092919081815260200182805461144f906197b6565b801561149c5780601f106114715761010080835404028352916020019161149c565b820191906000526020600020905b81548152906001019060200180831161147f57829003601f168201915b5050509183525050600a8201546020820152600b82015460409091019060ff1660038111156114db57634e487b7160e01b600052602160045260246000fd5b60038111156114fa57634e487b7160e01b600052602160045260246000fd5b905250602080820151602d5460408051634e8f956d60e11b8152905194955091936000936001600160a01b0390921692639d1f2ada926004808301939192829003018186803b15801561154c57600080fd5b505afa158015611560573d6000803e3d6000fd5b505050506040513d601f19601f820116820180604052508101906115849190618237565b6001600160401b038111156115a957634e487b7160e01b600052604160045260246000fd5b6040519080825280602002602001820160405280156115dc57816020015b60608152602001906001900390816115c75790505b50905060005b828110156116dc5783516000906115fa908390619728565b60008181526013602052604081206004018054929350909161161b906197b6565b80601f0160208091040260200160405190810160405280929190818152602001828054611647906197b6565b80156116945780601f1061166957610100808354040283529160200191611694565b820191906000526020600020905b81548152906001019060200180831161167757829003601f168201915b50505050509050808484815181106116bc57634e487b7160e01b600052603260045260246000fd5b6020026020010181905250505080806116d4906197f1565b9150506115e2565b50949350505050565b60006116f082615bad565b61170c5760405162461bcd60e51b8152600401610d709061932e565b60008281526014602052604090206006015461172790614acf565b92915050565b611735615d0d565b336000908152601560205260409020600581015460ff16151560011461176d5760405162461bcd60e51b8152600401610d7090618e11565b60018101541580159061178a57506005810154610100900460ff16155b156117e75760058101805461ff001916610100179055601b80546001810182556000919091527f3ad8aa4f87544323a9d1e5dd902f40c356527a7955687113db5f9a85ad579dc10180546001600160a01b03191633179055611878565b6001810154156118095760405162461bcd60e51b8152600401610d7090618d57565b61181233617161565b61181b33615ea1565b80546001600160a01b031916339081178255426004830181905560058301805460ff191690556040517f9dadcedba048e92b943ea1c5861cee1df63a566d7f795869c004780c1c698e2b9161186f91618430565b60405180910390a25b60016022600082825461188b9190619728565b909155505050565b6029546001600160a01b031681565b6000806118ae85611b7d565b905060006118bc86836148b5565b90505b8115611a34576118cf86836148b5565b905084811161198c5783821415611984576001600160a01b0386166000908152601160205260409081902090516301c39b2b60e11b815273__$85afbab79b2b776d70bef879a32ed56424$__9163038736569161193191908690600401618455565b60206040518083038186803b15801561194957600080fd5b505af415801561195d573d6000803e3d6000fd5b505050506040513d601f19601f820116820180604052508101906119819190618237565b91505b509050611a38565b6001600160a01b0386166000908152601160205260409081902090516301c39b2b60e11b815273__$85afbab79b2b776d70bef879a32ed56424$__916303873656916119dd91908690600401618455565b60206040518083038186803b1580156119f557600080fd5b505af4158015611a09573d6000803e3d6000fd5b505050506040513d601f19601f82011682018060405250810190611a2d9190618237565b91506118bf565b5090505b9392505050565b600a60209081526000928352604080842090915290825290205460ff1681565b600d60209081526000928352604080842090915290825290208054611a83906197b6565b80601f0160208091040260200160405190810160405280929190818152602001828054611aaf906197b6565b8015611afc5780601f10611ad157610100808354040283529160200191611afc565b820191906000526020600020905b815481529060010190602001808311611adf57829003601f168201915b505050505081565b60198181548110611b1457600080fd5b6000918252602090912001546001600160a01b0316905081565b602d54600160a01b900460ff1681565b60405160009080602081848060185afa611b5457fe5b5051919050565b60028160048110611b6b57600080fd5b60020201805460019091015490915082565b6001600160a01b03811660009081526011602052604080822090516301c39b2b60e11b815273__$85afbab79b2b776d70bef879a32ed56424$__91630387365691611bcd91908590600401618455565b60206040518083038186803b158015611be557600080fd5b505af4158015611bf9573d6000803e3d6000fd5b505050506040513d601f19601f820116820180604052508101906117279190618237565b6000611c2882615bad565b611c445760405162461bcd60e51b8152600401610d709061906b565b600082815260146020526040902060060154611c5f90614acf565b1580156117275750611c70826130cd565b1592915050565b60205490565b60255481565b600081815260146020908152604080832081516101c0810183528154815260018201549381019390935260028101549183019190915260038101546060830152600481015460ff808216151560808501526101008083048216151560a08601526201000090920416151560c0840152600582015460e08401526006820154908301526007810154610120830152600881015461014083015260098101805484939291610160840191611d34906197b6565b80601f0160208091040260200160405190810160405280929190818152602001828054611d60906197b6565b8015611dad5780601f10611d8257610100808354040283529160200191611dad565b820191906000526020600020905b815481529060010190602001808311611d9057829003601f168201915b5050509183525050600a8201546020820152600b82015460409091019060ff166003811115611dec57634e487b7160e01b600052602160045260246000fd5b6003811115611e0b57634e487b7160e01b600052602160045260246000fd5b905250610140810151610120820151919250611e2691619728565b602d60009054906101000a90046001600160a01b03166001600160a01b031663ea19733c6040518163ffffffff1660e01b815260040160206040518083038186803b158015611e7457600080fd5b505afa158015611e88573d6000803e3d6000fd5b505050506040513d601f19601f82011682018060405250810190611eac9190618237565b611eb69190619754565b610120820151611ec7906064619754565b119392505050565b611ed761715d565b6001600160a01b0316611ee8612dc4565b6001600160a01b031614611f0e5760405162461bcd60e51b8152600401610d7090618e5d565b600081815260136020526040812090611f278282617c8d565b6001820180546001600160a01b031916905560006002830181905560038301819055611f57906004840190617c8d565b611f65600583016000617c8d565b50600601805460ff1916905550565b601f5490565b602a546001600160a01b031681565b6001600160a01b038116600090815260106020908152604091829020805483518184028101840190945280845260609392830182828015611fe957602002820191906000526020600020905b815481526020019060010190808311611fd5575b50505050509050919050565b611ffd617cc9565b60008281526013602052604090819020815160e08101909252805482908290612025906197b6565b80601f0160208091040260200160405190810160405280929190818152602001828054612051906197b6565b801561209e5780601f106120735761010080835404028352916020019161209e565b820191906000526020600020905b81548152906001019060200180831161208157829003601f168201915b505050918352505060018201546001600160a01b0316602082015260028201546040820152600382015460608201526004820180546080909201916120e2906197b6565b80601f016020809104026020016040519081016040528092919081815260200182805461210e906197b6565b801561215b5780601f106121305761010080835404028352916020019161215b565b820191906000526020600020905b81548152906001019060200180831161213e57829003601f168201915b50505050508152602001600582018054612174906197b6565b80601f01602080910402602001604051908101604052809291908181526020018280546121a0906197b6565b80156121ed5780601f106121c2576101008083540402835291602001916121ed565b820191906000526020600020905b8154815290600101906020018083116121d057829003601f168201915b5050509183525050600682015460209091019060ff16600381111561222257634e487b7160e01b600052602160045260246000fd5b600381111561224157634e487b7160e01b600052602160045260246000fd5b90525092915050565b600e60209081526000928352604080842090915290825290205481565b6010602052816000526040600020818154811061228357600080fd5b90600052602060002001600091509150505481565b6122a061715d565b6001600160a01b03166122b1612dc4565b6001600160a01b0316146122d75760405162461bcd60e51b8152600401610d7090618e5d565b600081815260146020526040812081815560018101829055600281018290556003810182905560048101805462ffffff1916905560058101829055600681018290556007810182905560088101829055906123356009830182617c8d565b506000600a820155600b01805460ff1916905550565b60215460009081526014602052604090206004015460ff1661237f5760405162461bcd60e51b8152600401610d7090618f88565b60215460009081526014602052604090206004015462010000900460ff16156123ba5760405162461bcd60e51b8152600401610d7090618db4565b60006124de612453601980549050602d60009054906101000a90046001600160a01b03166001600160a01b031663dfeceed76040518163ffffffff1660e01b815260040160206040518083038186803b15801561241657600080fd5b505afa15801561242a573d6000803e3d6000fd5b505050506040513d601f19601f8201168201806040525081019061244e9190618237565b617291565b602d60009054906101000a90046001600160a01b03166001600160a01b031663bd40ef4c6040518163ffffffff1660e01b815260040160206040518083038186803b1580156124a157600080fd5b505afa1580156124b5573d6000803e3d6000fd5b505050506040513d601f19601f820116820180604052508101906124d99190618237565b6172a7565b601954602d546040805163189460df60e31b8152905193945091926001600160a01b039091169163c4a306f8916004808301926020929190829003018186803b15801561252a57600080fd5b505afa15801561253e573d6000803e3d6000fd5b505050506040513d601f19601f820116820180604052508101906125629190618237565b60015461256f9042619773565b106129dc5760218054600090815260146020908152604080832060030186905592548252828220600201859055602d548351631b4930b560e11b81529351929361261e936001600160a01b0390921692633692616a92600480840193829003018186803b1580156125df57600080fd5b505afa1580156125f3573d6000803e3d6000fd5b505050506040513d601f19601f820116820180604052508101906126179190618237565b42906172b7565b905060006126b2602d60009054906101000a90046001600160a01b03166001600160a01b03166372e540306040518163ffffffff1660e01b815260040160206040518083038186803b15801561267357600080fd5b505afa158015612687573d6000803e3d6000fd5b505050506040513d601f19601f820116820180604052508101906126ab9190618237565b83906172b7565b60218054600090815260146020526040808220600501869055825482528082206006018490559154815220600401805462ff0000191662010000179055905060018410801590612703575060018310155b61271f5760405162461bcd60e51b8152600401610d70906189a4565b600061272b858561370b565b9050600081516001600160401b0381111561275657634e487b7160e01b600052604160045260246000fd5b60405190808252806020026020018201604052801561277f578160200160208202803683370190505b50905060005b825181101561283e5760198382815181106127b057634e487b7160e01b600052603260045260246000fd5b6020026020010151815481106127d657634e487b7160e01b600052603260045260246000fd5b9060005260206000200160009054906101000a90046001600160a01b031682828151811061281457634e487b7160e01b600052603260045260246000fd5b6001600160a01b039092166020928302919091019091015280612836816197f1565b915050612785565b5060005b82518110156129a657600082828151811061286d57634e487b7160e01b600052603260045260246000fd5b60200260200101519050600060156000836001600160a01b03166001600160a01b0316815260200190815260200160002090506128a982617161565b6128b2826172c3565b61290257601a80546001810182556000919091527f057c384a7d1c54f3a1b2e5e67b2617b8224fdfd1ea7234eea573a6ff665ff63e0180546001600160a01b0319166001600160a01b0384161790555b6021805460009081526018602090815260408083208054600180820183559185529290932090910180546001600160a01b0319166001600160a01b03871617905582549184019190915560028301805460ff19169055905490517fe4ee2dfabe57cee15e3f558890b20455f54c1fa0718e5276faad70a6500e6b8c90612989908590618463565b60405180910390a25050808061299e906197f1565b915050612842565b504260019081556021546129b9916172b7565b6021819055506001602260008282546129d29190619728565b9091555050505050505b5050565b600061172782610b7b84611b7d565b6001600160a01b031660009081526016602052604090205490565b612a1261715d565b6001600160a01b0316612a23612dc4565b6001600160a01b031614612a495760405162461bcd60e51b8152600401610d7090618e5d565b612a536000617333565b565b6000612a6082615bad565b612a7c5760405162461bcd60e51b8152600401610d709061906b565b5060009081526014602052604090206006015490565b602b546001600160a01b031681565b612aa961715d565b6001600160a01b0316612aba612dc4565b6001600160a01b031614612ae05760405162461bcd60e51b8152600401610d7090618e5d565b602c80546001600160a01b0319166001600160a01b0392909216919091179055565b601a54601954600091612b1491619728565b905090565b6000612b2482615bad565b612b405760405162461bcd60e51b8152600401610d709061906b565b506001600160a01b03919091166000908152600a60209081526040808320938352929052205460ff1690565b601460205260009081526040902080546001820154600283015460038401546004850154600586015460068701546007880154600889015460098a018054999a98999798969760ff80881698610100890482169862010000900490911696959493929091612bd9906197b6565b80601f0160208091040260200160405190810160405280929190818152602001828054612c05906197b6565b8015612c525780601f10612c2757610100808354040283529160200191612c52565b820191906000526020600020905b815481529060010190602001808311612c3557829003601f168201915b50505050600a830154600b9093015491929160ff1690508e565b600080805b6004811015612cc25760028160048110612c9b57634e487b7160e01b600052603260045260246000fd5b600202016001015482612cae9190619728565b915080612cba816197f1565b915050612c71565b50905090565b600080612cd584876148b5565b83101590506000612ce685876148b5565b84111580612cf2575085155b9050818015612cfe5750805b979650505050505050565b601a8181548110611b1457600080fd5b6028546001600160a01b031681565b601f5481565b600f60209081526000928352604080842090915290825290208054611a83906197b6565b6015602052600090815260409020805460018201546002830154600384015460048501546005860154600687015460078801546008909801546001600160a01b0390971697959660ff95861696949593948385169461010090940490931692908a565b602c546001600160a01b031681565b6000546001600160a01b031690565b60186020528160005260406000208181548110612def57600080fd5b6000918252602090912001546001600160a01b03169150829050565b60016000828152601460205260409020600b015460ff166003811115612e4157634e487b7160e01b600052602160045260246000fd5b14612e5e5760405162461bcd60e51b8152600401610d7090618746565b336000908152601160205260409081902090516306120d1f60e31b815273__$85afbab79b2b776d70bef879a32ed56424$__9163309068f891612ea691908590600401618455565b60206040518083038186803b158015612ebe57600080fd5b505af4158015612ed2573d6000803e3d6000fd5b505050506040513d601f19601f82011682018060405250810190612ef6919061812d565b612f125760405162461bcd60e51b8152600401610d7090618c33565b336000908152601160205260409081902090516301039dfd60e11b815273__$85afbab79b2b776d70bef879a32ed56424$__916302073bfa91612f5a91908590600401618455565b60006040518083038186803b158015612f7257600080fd5b505af4158015612f86573d6000803e3d6000fd5b50506040513392508391507f402507661c8c8cb90e0a796450b8bdd28b6c516f05279c0cd29e84c344e1699a90600090a350565b60235481565b6001600160a01b038116600090815260156020526040812060090181805b82548110156130385782818154811061300757634e487b7160e01b600052603260045260246000fd5b906000526020600020906002020160010154826130249190619728565b915080613030816197f1565b915050612fde565b509392505050565b60005b81518110156129dc5761307c82828151811061306f57634e487b7160e01b600052603260045260246000fd5b6020026020010151612e0b565b80613086816197f1565b915050613043565b600082826040516020016130a392919061840e565b60405160208183030381529060405280519060200120905092915050565b60235490565b60245481565b60006130d882615bad565b6130f45760405162461bcd60e51b8152600401610d709061906b565b60008281526014602052604090206005015461310f90614acf565b158015611727575050600090815260146020526040902060020154151590565b601d5490565b6000816040516020016131489190618439565b604051602081830303815290604052805190602001208360405160200161316f9190618439565b60405160208183030381529060405280519060200120141561319357506001611727565b506000611727565b60006131a682615bad565b6131c25760405162461bcd60e51b8152600401610d709061906b565b506001600160a01b03919091166000908152600b60209081526040808320938352929052205460ff1690565b600080424160405160200161320391906183f1565b6040516020818303038152906040528051906020012060001c6132269190619740565b4461322f611b3e565b60405160200161323f9190618430565b60408051601f1981840301815291905280516020909101206132619042619728565b61326b9190619728565b6132759190619728565b6040516020016132859190618430565b60408051601f19818403018152919052805160209091012091505090565b601c546001600160a01b031681565b601b8181548110611b1457600080fd5b6001600160a01b03808216600090815260156020908152604080832081516101608101835281549095168552600181015485840152600281015460ff90811615158684015260038201546060870152600482015460808701526005820154808216151560a088015261010090819004909116151560c0870152600682015460e0870152600782015490860152600881015461012086015260098101805483518186028101860190945280845294958695869591946101408601939092909190879084015b828210156133cc57838290600052602060002090600202016040518060400160405290816000820154815260200160018201548152505081526020019060010190613386565b5050509152505060408101519091501580156133f257506133f081602001516116e5565b155b156133fc57600191505b5092915050565b600082826040516020016130a3929190618455565b60606000821161342757600080fd5b60004160405160200161343a91906183f1565b6040516020818303038152906040528051906020012060001c61345b611b3e565b60405160200161346b9190618430565b60408051601f19818403018152919052805160209091012061348d9042619728565b6134979190619728565b6040516020016134a79190618430565b6040516020818303038152906040528051906020012060001c90506000846001600160401b038111156134ea57634e487b7160e01b600052604160045260246000fd5b604051908082528060200260200182016040528015613513578160200160208202803683370190505b5090506000805b868210156136145760008661353363017efeeb87619773565b83604051602001613545929190618455565b6040516020818303038152906040528051906020012060001c613568919061980c565b90506000805b848110156135c0578286828151811061359757634e487b7160e01b600052603260045260246000fd5b602002602001015114156135ae57600191506135c0565b806135b8816197f1565b91505061356e565b508061360057818585815181106135e757634e487b7160e01b600052603260045260246000fd5b60209081029190910101526135fd846001619728565b93505b61360b836001619728565b9250505061351a565b509095945050505050565b600061362a836116e5565b6136465760405162461bcd60e51b8152600401610d7090619233565b6001600160a01b0384166000908152600b6020908152604080832086845290915290205460ff166136895760405162461bcd60e51b8152600401610d7090618c90565b600061369484611c83565b61369f5760006136a2565b60015b60ff169050600081846040516020016136bc929190618455565b60405160208183030381529060405280519060200120905060006136e08787614a8a565b90508082146137015760405162461bcd60e51b8152600401610d7090618f3f565b612cfe87876148b5565b606060008211801561371d5750818311155b801561372a575060018310155b6137465760405162461bcd60e51b8152600401610d709061895b565b6000826001600160401b0381111561376e57634e487b7160e01b600052604160045260246000fd5b604051908082528060200260200182016040528015613797578160200160208202803683370190505b5090506000846001600160401b038111156137c257634e487b7160e01b600052604160045260246000fd5b6040519080825280602002602001820160405280156137eb578160200160208202803683370190505b50905060006138016137fc84617383565b6173d9565b905060005b868110156136145781818151811061382e57634e487b7160e01b600052603260045260246000fd5b602002602001015183828151811061385657634e487b7160e01b600052603260045260246000fd5b60209081029190910101528061386b816197f1565b915050613806565b600061387d615d0d565b602d60009054906101000a90046001600160a01b03166001600160a01b0316634e87c5a86040518163ffffffff1660e01b815260040160206040518083038186803b1580156138cb57600080fd5b505afa1580156138df573d6000803e3d6000fd5b505050506040513d601f19601f82011682018060405250810190613903919061812d565b61391f5760405162461bcd60e51b8152600401610d7090618b46565b61392761756d565b602d60009054906101000a90046001600160a01b03166001600160a01b031663b38e885e6040518163ffffffff1660e01b815260040160206040518083038186803b15801561397557600080fd5b505afa158015613989573d6000803e3d6000fd5b505050506040513d601f19601f820116820180604052508101906139ad9190618237565b6139b5612c6c565b116139d25760405162461bcd60e51b8152600401610d7090618b90565b6139db33617724565b602d60009054906101000a90046001600160a01b03166001600160a01b031663be2509886040518163ffffffff1660e01b815260040160206040518083038186803b158015613a2957600080fd5b505afa158015613a3d573d6000803e3d6000fd5b505050506040513d601f19601f82011682018060405250810190613a619190618237565b613a6a33612fc0565b11613a875760405162461bcd60e51b8152600401610d70906192da565b602d54604080516001624ee91360e11b0319815290516000926001600160a01b03169163ff622dda916004808301926020929190829003018186803b158015613acf57600080fd5b505afa158015613ae3573d6000803e3d6000fd5b505050506040513d601f19601f82011682018060405250810190613b079190618237565b602b5460405163792f4f6960e11b81529192506000916001600160a01b039091169063f25e9ed290613b3d903390600401618463565b60206040518083038186803b158015613b5557600080fd5b505afa158015613b69573d6000803e3d6000fd5b505050506040513d601f19601f82011682018060405250810190613b8d9190617f3c565b33600090815260166020526040902054909150821115613c36576001600160a01b03811615613c0d576001600160a01b038116600090815260166020526040902054821115613c08576001600160a01b038116600090815260166020526040812054613bfa908490615e95565b9050613c068183617924565b505b613c36565b33600090815260166020526040812054613c28908490615e95565b9050613c348133617924565b505b60005b8851811015614186576000898281518110613c6457634e487b7160e01b600052603260045260246000fd5b602002602001015190506000898984818110613c9057634e487b7160e01b600052603260045260246000fd5b9050602002810190613ca2919061968c565b8080601f016020809104026020016040519081016040528093929190818152602001838380828437600092018290525033808252601060209081526040808420601d54815460018101835591865283862090910155805160e0810182528a8152918201929092524291810191909152606081018e90526080810186905260a081018d905294955060c0850193509150613d389050565b9052601d546000908152601360209081526040909120825180519192613d6392849290910190617d2d565b506020828101516001830180546001600160a01b0319166001600160a01b03909216919091179055604083015160028301556060830151600383015560808301518051613db69260048501920190617d2d565b5060a08201518051613dd2916005840191602090910190617d2d565b5060c082015160068201805460ff19166001836003811115613e0457634e487b7160e01b600052602160045260246000fd5b021790555050601f54600090815260146020908152604091829020602d548351634e8f956d60e11b815293519194506001600160a01b031692639d1f2ada926004808301939192829003018186803b158015613e5f57600080fd5b505afa158015613e73573d6000803e3d6000fd5b505050506040513d601f19601f82011682018060405250810190613e979190618237565b81600101541015613ebd576001816001016000828254613eb79190619728565b90915550505b602d60009054906101000a90046001600160a01b03166001600160a01b0316639d1f2ada6040518163ffffffff1660e01b815260040160206040518083038186803b158015613f0b57600080fd5b505afa158015613f1f573d6000803e3d6000fd5b505050506040513d601f19601f82011682018060405250810190613f439190618237565b816001015410613f9257600481018054600160ff19909116811761ff001916909155601f8054600090613f77908490619728565b9091555050601d54601f546000908152601460205260409020555b601d54613fa0906001619728565b601d5560016002613fb2826004619773565b60048110613fd057634e487b7160e01b600052603260045260246000fd5b600202016001016000828254613fe69190619728565b90915550613ff49050614c58565b602c60009054906101000a90046001600160a01b03166001600160a01b031663da14563a6040518163ffffffff1660e01b8152600401600060405180830381600087803b15801561404457600080fd5b505af1925050508015614055575060015b6140c2573d808015614083576040519150601f19603f3d011682016040523d82523d6000602084013e614088565b606091505b507f4b87bbd93ba65ede1e2efeca735d9f7a6720bf7d6db0a8355b17dba5b64e5783816040516140b8919061857a565b60405180910390a1505b602c60009054906101000a90046001600160a01b03166001600160a01b031663da14563a6040518163ffffffff1660e01b8152600401600060405180830381600087803b15801561411257600080fd5b505af1158015614126573d6000803e3d6000fd5b50505050336001600160a01b0316601d547fb819ca9ac369919119f75ec7363dd954f75bcfa75f9245647e03da413be0d5828585604051614168929190618637565b60405180910390a3505050808061417e906197f1565b915050613c39565b503360009081526015602052604081204260048201556022805491926001926141b0908490619728565b9091555050601d549998505050505050505050565b6141cd61715d565b6001600160a01b03166141de612dc4565b6001600160a01b0316146142045760405162461bcd60e51b8152600401610d7090618e5d565b602b80546001600160a01b0319166001600160a01b0392909216919091179055565b600061423182615bad565b61424d5760405162461bcd60e51b8152600401610d709061906b565b5060009081526014602052604090206005015490565b60166020526000908152604090205481565b61427d615d0d565b614286856130cd565b6142a25760405162461bcd60e51b8152600401610d7090618843565b336000908152600a6020908152604080832088845290915290205460ff16156142dd5760405162461bcd60e51b8152600401610d7090619110565b6142e7853361494a565b6143035760405162461bcd60e51b8152600401610d70906189ee565b602d54604080516001624ee91360e11b0319815290516000926001600160a01b03169163ff622dda916004808301926020929190829003018186803b15801561434b57600080fd5b505afa15801561435f573d6000803e3d6000fd5b505050506040513d601f19601f820116820180604052508101906143839190618237565b602b5460405163792f4f6960e11b81529192506000916001600160a01b039091169063f25e9ed2906143b9903390600401618463565b60206040518083038186803b1580156143d157600080fd5b505afa1580156143e5573d6000803e3d6000fd5b505050506040513d601f19601f820116820180604052508101906144099190617f3c565b336000908152601660205260409020549091508211156144b2576001600160a01b03811615614489576001600160a01b038116600090815260166020526040902054821115614484576001600160a01b038116600090815260166020526040812054614476908490615e95565b90506144828183617924565b505b6144b2565b336000908152601660205260408120546144a4908490615e95565b90506144b08133617924565b505b6000336000908152601160205260408082209051631e0f232560e31b815273__$85afbab79b2b776d70bef879a32ed56424$__9163f0791928916144fb91908690600401618455565b60206040518083038186803b15801561451357600080fd5b505af4158015614527573d6000803e3d6000fd5b505050506040513d601f19601f8201168201806040525081019061454b9190618237565b9050888114156145f05733600090815260116020526040908190209051631e0f232560e31b815273__$85afbab79b2b776d70bef879a32ed56424$__9163f07919289161459d91908d90600401618455565b60206040518083038186803b1580156145b557600080fd5b505af41580156145c9573d6000803e3d6000fd5b505050506040513d601f19601f820116820180604052508101906145ed9190618237565b90505b6145fc82823387612cc8565b6146185760405162461bcd60e51b8152600401610d7090618d29565b3360009081526011602052604090819020905163524cfe5360e11b815273__$85afbab79b2b776d70bef879a32ed56424$__9163a499fca691614664919086908e908790600401619502565b60006040518083038186803b15801561467c57600080fd5b505af4158015614690573d6000803e3d6000fd5b5050505060006146a0338b61308e565b60405163099b040f60e31b815290915073__$0947e710b66d7779e1d561254425e1375a$__90634cd82078906146df9060129085908a906004016194e4565b60006040518083038186803b1580156146f757600080fd5b505af415801561470b573d6000803e3d6000fd5b505060405163099b040f60e31b815273__$0947e710b66d7779e1d561254425e1375a$__9250634cd82078915061474b9060129085908e90600401619498565b60006040518083038186803b15801561476357600080fd5b505af4158015614777573d6000803e3d6000fd5b50505060008b8152600d6020908152604080832033845282529091208a516147a4935090918b0190617d2d565b5060008a8152600e60209081526040808320338085529083528184208b90558d8452600f8352818420908452825290912087516147e392890190617d2d565b503360009081526015602090815260408083208d8452601490925290912060020154614810906001615e95565b60008c815260146020908152604080832060020193909355426004850155338252600a81528282208e83529052908120805460ff191660019081179091556022805491929091614861908490619728565b909155505060405133908c907f42864d9683ff5b12c3b2cc65d705af5aab104b03bc700b802f79e5c971ef08a19061489a908a90618430565b60405180910390a35050505050505050505050565b60015481565b600073__$0947e710b66d7779e1d561254425e1375a$__636981015860126148dd868661308e565b6040518363ffffffff1660e01b81526004016148fa9291906194c6565b60206040518083038186803b15801561491257600080fd5b505af4158015614926573d6000803e3d6000fd5b505050506040513d601f19601f82011682018060405250810190611a389190618237565b60008281526018602090815260408083208054825181850281018501909352808352849384939291908301828280156149ac57602002820191906000526020600020905b81546001600160a01b0316815260019091019060200180831161498e575b5050505050905060005b8151811015614a1b57846001600160a01b03168282815181106149e957634e487b7160e01b600052603260045260246000fd5b60200260200101516001600160a01b03161415614a095760019250614a1b565b80614a13816197f1565b9150506149b6565b5090949350505050565b600b60209081526000928352604080842090915290825290205460ff1681565b601e5481565b60215481565b60176020528160005260406000208181548110612def57600080fd5b600c60209081526000928352604080842090915290825290205481565b600073__$0947e710b66d7779e1d561254425e1375a$__63698101586012614ab2868661308e565b6040518363ffffffff1660e01b81526004016148fa92919061947a565b421190565b614adc617db1565b614ae582615bad565b614aee57600080fd5b60008281526014602090815260409182902082516101c0810184528154815260018201549281019290925260028101549282019290925260038201546060820152600482015460ff808216151560808401526101008083048216151560a08501526201000090920416151560c0830152600583015460e08301526006830154908201526007820154610120820152600882015461014082015260098201805491929161016084019190614ba0906197b6565b80601f0160208091040260200160405190810160405280929190818152602001828054614bcc906197b6565b8015614c195780601f10614bee57610100808354040283529160200191614c19565b820191906000526020600020905b815481529060010190602001808311614bfc57829003601f168201915b5050509183525050600a8201546020820152600b82015460409091019060ff16600381111561222257634e487b7160e01b600052602160045260246000fd5b614c60615d0d565b601b5415614c7057614c70617a2c565b614c7861756d565b614c80617ac4565b60005b602d60009054906101000a90046001600160a01b03166001600160a01b0316637d630cb06040518163ffffffff1660e01b815260040160206040518083038186803b158015614cd157600080fd5b505afa158015614ce5573d6000803e3d6000fd5b505050506040513d601f19601f82011682018060405250810190614d099190618237565b811015614f2c576020805460009081526014909152604081206004015462010000900460ff1615156001148015614d645750614d466020546116e5565b80614d64575060208054600090815260149091526040902060030154155b15614d8957614d74602054616069565b602054614d829060016172b7565b6020555060015b60215460009081526014602052604090206004015462010000900460ff161515600114801590614e405750602d60009054906101000a90046001600160a01b03166001600160a01b031663bd40ef4c6040518163ffffffff1660e01b815260040160206040518083038186803b158015614e0257600080fd5b505afa158015614e16573d6000803e3d6000fd5b505050506040513d601f19601f82011682018060405250810190614e3a9190618237565b60195410155b8015614e60575060215460009081526014602052604090206004015460ff165b8015614efd5750602d60009054906101000a90046001600160a01b03166001600160a01b031663c4a306f86040518163ffffffff1660e01b815260040160206040518083038186803b158015614eb557600080fd5b505afa158015614ec9573d6000803e3d6000fd5b505050506040513d601f19601f82011682018060405250810190614eed9190618237565b600154614efa9042619773565b10155b15614f0e57614f0a61234b565b5060015b80614f195750614f2c565b5080614f24816197f1565b915050614c83565b50565b614f3761715d565b6001600160a01b0316614f48612dc4565b6001600160a01b031614614f6e5760405162461bcd60e51b8152600401610d7090618e5d565b602980546001600160a01b0319166001600160a01b0392909216919091179055565b614f9861715d565b6001600160a01b0316614fa9612dc4565b6001600160a01b031614614fcf5760405162461bcd60e51b8152600401610d7090618e5d565b602880546001600160a01b0319166001600160a01b0392909216919091179055565b60606000821161500057600080fd5b6000826001600160401b0381111561502857634e487b7160e01b600052604160045260246000fd5b604051908082528060200260200182016040528015615051578160200160208202803683370190505b50905060006150626137fc83617383565b949350505050565b606061507582615bad565b61507e57600080fd5b6000828152601460205260409020600901805461509a906197b6565b80601f01602080910402602001604051908101604052809291908181526020018280546150c6906197b6565b8015611fe95780601f106150e857610100808354040283529160200191611fe9565b820191906000526020600020905b8154815290600101906020018083116150f65750939695505050505050565b6001600160a01b031660009081526015602052604090206005015460ff1690565b600061515a615144336129e0565b3360009081526016602052604090205490615e95565b90508181101561517c5760405162461bcd60e51b8152600401610d7090619024565b602854604051630895993360e11b81526001600160a01b039091169063112b3266906151ae90859033906004016195b1565b602060405180830381600087803b1580156151c857600080fd5b505af11580156151dc573d6000803e3d6000fd5b505050506040513d601f19601f82011682018060405250810190615200919061812d565b61521c5760405162461bcd60e51b8152600401610d709061927d565b336000908152601660205260408120805484929061523b908490619773565b909155505060405133907ffaeb7dbb9992397d26ea1944efd40c80b40f702faf69b46c67ad10aba68ccb7990615272908590618430565b60405180910390a25050565b60265481565b606061528f82615bad565b6152ab5760405162461bcd60e51b8152600401610d709061906b565b600082815260146020908152604080832081516101c0810183528154815260018201549381019390935260028101549183019190915260038101546060830152600481015460ff808216151560808501526101008083048216151560a08601526201000090920416151560c0840152600582015460e08401526006820154908301526007810154610120830152600881015461014083015260098101805461016084019190615359906197b6565b80601f0160208091040260200160405190810160405280929190818152602001828054615385906197b6565b80156153d25780601f106153a7576101008083540402835291602001916153d2565b820191906000526020600020905b8154815290600101906020018083116153b557829003601f168201915b5050509183525050600a8201546020820152600b82015460409091019060ff16600381111561541157634e487b7160e01b600052602160045260246000fd5b600381111561543057634e487b7160e01b600052602160045260246000fd5b905250602080820151602d5460408051634e8f956d60e11b8152905194955091936000936001600160a01b0390921692639d1f2ada926004808301939192829003018186803b15801561548257600080fd5b505afa158015615496573d6000803e3d6000fd5b505050506040513d601f19601f820116820180604052508101906154ba9190618237565b6001600160401b038111156154df57634e487b7160e01b600052604160045260246000fd5b60405190808252806020026020018201604052801561551257816020015b60608152602001906001900390816154fd5790505b50905060005b828110156116dc578351600090615530908390619728565b60008181526013602052604081208054929350909161554e906197b6565b80601f016020809104026020016040519081016040528092919081815260200182805461557a906197b6565b80156155c75780601f1061559c576101008083540402835291602001916155c7565b820191906000526020600020905b8154815290600101906020018083116155aa57829003601f168201915b50505050509050808484815181106155ef57634e487b7160e01b600052603260045260246000fd5b602002602001018190525050508080615607906197f1565b915050615518565b60205481565b60225481565b61562361715d565b6001600160a01b0316615634612dc4565b6001600160a01b03161461565a5760405162461bcd60e51b8152600401610d7090618e5d565b6001600160a01b0381166156805760405162461bcd60e51b8152600401610d7090618915565b614f2c81617333565b60008383836040516020016156a09392919061858d565b6040516020818303038152906040528051906020012090509392505050565b60225490565b6156cd615d0d565b33600090815260156020908152604091829020602d5483516398a54e2b60e01b8152935191936001600160a01b03909116926398a54e2b92600480840193829003018186803b15801561571f57600080fd5b505afa158015615733573d6000803e3d6000fd5b505050506040513d601f19601f820116820180604052508101906157579190618237565b601a546019546157679190619728565b106157845760405162461bcd60e51b8152600401610d7090619159565b600581015460ff16156157a95760405162461bcd60e51b8152600401610d709061870f565b602d60009054906101000a90046001600160a01b03166001600160a01b0316639fb491f66040518163ffffffff1660e01b815260040160206040518083038186803b1580156157f757600080fd5b505afa15801561580b573d6000803e3d6000fd5b505050506040513d601f19601f8201168201806040525081019061582f9190618237565b8160030154101580156158d45750602d60009054906101000a90046001600160a01b03166001600160a01b0316630f1f0ffe6040518163ffffffff1660e01b815260040160206040518083038186803b15801561588b57600080fd5b505afa15801561589f573d6000803e3d6000fd5b505050506040513d601f19601f820116820180604052508101906158c39190618237565b60068201546158d29042619773565b105b156158f15760405162461bcd60e51b8152600401610d709061919b565b602d54604080516001624ee91360e11b0319815290516000926001600160a01b03169163ff622dda916004808301926020929190829003018186803b15801561593957600080fd5b505afa15801561594d573d6000803e3d6000fd5b505050506040513d601f19601f820116820180604052508101906159719190618237565b602b5460405163792f4f6960e11b81529192506000916001600160a01b039091169063f25e9ed2906159a7903390600401618463565b60206040518083038186803b1580156159bf57600080fd5b505afa1580156159d3573d6000803e3d6000fd5b505050506040513d601f19601f820116820180604052508101906159f79190617f3c565b33600090815260166020526040902054909150821115615aa0576001600160a01b03811615615a77576001600160a01b038116600090815260166020526040902054821115615a72576001600160a01b038116600090815260166020526040812054615a64908490615e95565b9050615a708183617924565b505b615aa0565b33600090815260166020526040812054615a92908490615e95565b9050615a9e8133617924565b505b33600090815260166020526040902054821115615acf5760405162461bcd60e51b8152600401610d7090618797565b615ad833615ff9565b615b1f57601980546001810182556000919091527f944998273e477b495144fb8794c914197f3ccb46be2900f4698fd0ef743c96950180546001600160a01b031916331790555b8254336001600160a01b031990911617835560058301805460ff1916600190811761ff00191690915542600685015560006003850181905560228054909190615b69908490619728565b909155505060405133907f439d77b7534ec3108fc6143bd4fbabde0b9f2bb54f7b0730d1f70dd2135b765f90615ba0904290618430565b60405180910390a2505050565b601f54101590565b3360009081526015602052604090206005015460ff1690565b60245490565b6027546001600160a01b031681565b6001600160a01b03808216600090815260156020908152604080832081516101608101835281549095168552600181015485840152600281015460ff90811615158684015260038201546060870152600482015460808701526005820154808216151560a088015261010090819004909116151560c0870152600682015460e08701526007820154908601526008810154610120860152600981018054835181860281018601909452808452949586959094929361014086019390929190879084015b82821015615cec57838290600052602060002090600202016040518060400160405290816000820154815260200160018201548152505081526020019060010190615ca6565b50505091525050602001519392505050565b602d546001600160a01b031681565b601c546001600160a01b0316615d355760405162461bcd60e51b8152600401610d70906190a2565b601c546040516000916001600160a01b031690615d56903390602401618463565b60408051601f198184030181529181526020820180516001600160e01b0316631f5ac9c560e11b17905251615d8b9190618439565b6000604051808303816000865af19150503d8060008114615dc8576040519150601f19603f3d011682016040523d82523d6000602084013e615dcd565b606091505b5050601c546040519192506000916001600160a01b0390911690615df5903390602401618463565b60408051601f198184030181529181526020820180516001600160e01b03166358563d2160e01b17905251615e2a9190618439565b6000604051808303816000865af19150503d8060008114615e67576040519150601f19603f3d011682016040523d82523d6000602084013e615e6c565b606091505b505090508180615e795750805b6129dc5760405162461bcd60e51b8152600401610d70906187fe565b6000611a388284619773565b60008060005b601a54811015615f1557836001600160a01b0316601a8281548110615edc57634e487b7160e01b600052603260045260246000fd5b6000918252602090912001546001600160a01b03161415615f035760019150809250615f15565b80615f0d816197f1565b915050615ea7565b508015615ff457601a8054615f2c90600190619773565b81548110615f4a57634e487b7160e01b600052603260045260246000fd5b600091825260209091200154601a80546001600160a01b039092169184908110615f8457634e487b7160e01b600052603260045260246000fd5b9060005260206000200160006101000a8154816001600160a01b0302191690836001600160a01b03160217905550601a805480615fd157634e487b7160e01b600052603160045260246000fd5b600082815260209020810160001990810180546001600160a01b03191690550190555b505050565b600080805b6019548110156133fc57836001600160a01b03166019828154811061603357634e487b7160e01b600052603260045260246000fd5b6000918252602090912001546001600160a01b0316141561605757600191506133fc565b80616061816197f1565b915050615ffe565b616072816116e5565b8061608c5750600081815260146020526040902060030154155b6160a85760405162461bcd60e51b8152600401610d7090618ee2565b600081815260146020526040902060040154610100900460ff16156160df5760405162461bcd60e51b8152600401610d70906190cf565b60008181526018602090815260408083208054825181850281018501909352808352919290919083018282801561613f57602002820191906000526020600020905b81546001600160a01b03168152600190910190602001808311616121575b50505050509050600081516001600160401b0381111561616f57634e487b7160e01b600052604160045260246000fd5b6040519080825280602002602001820160405280156161a257816020015b606081526020019060019003908161618d5790505b509050600082516001600160401b038111156161ce57634e487b7160e01b600052604160045260246000fd5b6040519080825280602002602001820160405280156161f7578160200160208202803683370190505b50905060005b835181101561637a57600084828151811061622857634e487b7160e01b600052603260045260246000fd5b6020908102919091018101516000888152600d835260408082206001600160a01b0384168352909352918220805491935090616263906197b6565b80601f016020809104026020016040519081016040528092919081815260200182805461628f906197b6565b80156162dc5780601f106162b1576101008083540402835291602001916162dc565b820191906000526020600020905b8154815290600101906020018083116162bf57829003601f168201915b50505060008a8152600e602090815260408083206001600160a01b03891684529091529020548851939450928492508891508690811061632c57634e487b7160e01b600052603260045260246000fd5b60200260200101819052508085858151811061635857634e487b7160e01b600052603260045260246000fd5b6020026020010181815250505050508080616372906197f1565b9150506161fd565b5060006164256064602d60009054906101000a90046001600160a01b03166001600160a01b031663ea19733c6040518163ffffffff1660e01b815260040160206040518083038186803b1580156163d057600080fd5b505afa1580156163e4573d6000803e3d6000fd5b505050506040513d601f19601f820116820180604052508101906164089190618237565b86516164149190619754565b61641e9190619740565b60016172a7565b905060008360008151811061644a57634e487b7160e01b600052603260045260246000fd5b6020026020010151905060005b8451811015616540576000805b86518110156164f5576164c587848151811061649057634e487b7160e01b600052603260045260246000fd5b60200260200101518883815181106164b857634e487b7160e01b600052603260045260246000fd5b6020026020010151613135565b156164e3576164d5600183619728565b91508482106164e3576164f5565b806164ed816197f1565b915050616464565b5083811061652d5785828151811061651d57634e487b7160e01b600052603260045260246000fd5b6020026020010151925050616540565b5080616538816197f1565b915050616457565b5060008360008151811061656457634e487b7160e01b600052603260045260246000fd5b6020026020010151905060005b8451811015616653576000805b8651811015616608578681815181106165a757634e487b7160e01b600052603260045260246000fd5b60200260200101518784815181106165cf57634e487b7160e01b600052603260045260246000fd5b602002602001015114156165f6576165e8600183619728565b91508582106165f657616608565b80616600816197f1565b91505061657e565b508481106166405785828151811061663057634e487b7160e01b600052603260045260246000fd5b6020026020010151925050616653565b508061664b816197f1565b915050616571565b50600061665f88611c83565b905060005b8751811015616be057600088828151811061668f57634e487b7160e01b600052603260045260246000fd5b60209081029190910181015160008c8152600c835260408082206001600160a01b0384168352845280822054600b85528183208f845290945290205490925060ff166166da83615ea1565b6001600160a01b03831660009081526015602052604090208115616ac0576001600160a01b038416600090815260156020526040812060028101805460ff1916600190811790915560039091019190915586151514801561673b5750826001145b80616750575085158015616750575082600114155b15616a2257602b546040516308c0a84360e11b81526000916001600160a01b031690631181508690616786908890600401618463565b60206040518083038186803b15801561679e57600080fd5b505afa1580156167b2573d6000803e3d6000fd5b505050506040513d601f19601f820116820180604052508101906167d69190617f3c565b602954602d546040805163565f279f60e11b815290519394506001600160a01b0392831693631b6d990a939092169163acbe4f3e91600480820192602092909190829003018186803b15801561682b57600080fd5b505afa15801561683f573d6000803e3d6000fd5b505050506040513d601f19601f820116820180604052508101906168639190618237565b836040518363ffffffff1660e01b81526004016168819291906195c8565b602060405180830381600087803b15801561689b57600080fd5b505af11580156168af573d6000803e3d6000fd5b505050506040513d601f19601f820116820180604052508101906168d3919061812d565b6168ef5760405162461bcd60e51b8152600401610d7090618be6565b602a54602d546040805162b0520360e61b815290516001600160a01b039384169363e0ca5094931691632c1480c0916004808301926020929190829003018186803b15801561693d57600080fd5b505afa158015616951573d6000803e3d6000fd5b505050506040513d601f19601f820116820180604052508101906169759190618237565b836040518363ffffffff1660e01b81526004016169939291906195b1565b602060405180830381600087803b1580156169ad57600080fd5b505af11580156169c1573d6000803e3d6000fd5b505050506040513d601f19601f820116820180604052508101906169e5919061812d565b616a015760405162461bcd60e51b8152600401610d7090618a4b565b6001826007016000828254616a169190619728565b90915550616a3d915050565b6001816008016000828254616a379190619728565b90915550505b600581015460ff1615616abb57616a5384615ff9565b158015616a6a57506005810154610100900460ff16155b15616abb57601980546001810182556000919091527f944998273e477b495144fb8794c914197f3ccb46be2900f4698fd0ef743c96950180546001600160a01b0319166001600160a01b0386161790555b616bc9565b6005810154610100900460ff1680616ad6575081155b15616bc9576001600160a01b0384166000908152601560205260408120600301805460019290616b07908490619728565b9091555050602d5460408051634fda48fb60e11b815290516001600160a01b0390921691639fb491f691600480820192602092909190829003018186803b158015616b5157600080fd5b505afa158015616b65573d6000803e3d6000fd5b505050506040513d601f19601f82011682018060405250810190616b899190618237565b6001600160a01b0385166000908152601560205260409020600301541415616bc95760058101805460ff19169055616bc084617161565b616bc984615ea1565b505050508080616bd8906197f1565b915050616664565b50600088815260146020908152604090912060048101805461ff0019166101001790558451616c1792600990920191860190617d2d565b506000888152601460205260409020600a01829055801561705c5760008881526014602052604081208054600190910154909190616c559083619728565b9050815b81811015616f385760008181526013602052604080822060010154602b5491516308c0a84360e11b81526001600160a01b03918216939290911690631181508690616ca8908590600401618463565b60206040518083038186803b158015616cc057600080fd5b505afa158015616cd4573d6000803e3d6000fd5b505050506040513d601f19601f82011682018060405250810190616cf89190617f3c565b602954602d546040805163565f279f60e11b815290519394506001600160a01b0392831693631b6d990a939092169163acbe4f3e91600480820192602092909190829003018186803b158015616d4d57600080fd5b505afa158015616d61573d6000803e3d6000fd5b505050506040513d601f19601f82011682018060405250810190616d859190618237565b836040518363ffffffff1660e01b8152600401616da39291906195c8565b602060405180830381600087803b158015616dbd57600080fd5b505af1158015616dd1573d6000803e3d6000fd5b505050506040513d601f19601f82011682018060405250810190616df5919061812d565b616e115760405162461bcd60e51b8152600401610d7090618cdb565b602a54602d546040805162b0520360e61b815290516001600160a01b039384169363e0ca5094931691632c1480c0916004808301926020929190829003018186803b158015616e5f57600080fd5b505afa158015616e73573d6000803e3d6000fd5b505050506040513d601f19601f82011682018060405250810190616e979190618237565b836040518363ffffffff1660e01b8152600401616eb59291906195b1565b602060405180830381600087803b158015616ecf57600080fd5b505af1158015616ee3573d6000803e3d6000fd5b505050506040513d601f19601f82011682018060405250810190616f07919061812d565b616f235760405162461bcd60e51b8152600401610d7090618e92565b50508080616f30906197f1565b915050616c59565b5060008a8152601460205260408120600b01805460ff191660019081179091556023805491929091616f6b908490619728565b9091555050602c546040516348257dc960e01b81526001600160a01b03909116906348257dc990616fa0908d90600401618430565b600060405180830381600087803b158015616fba57600080fd5b505af1925050508015616fcb575060015b61703c573d808015616ff9576040519150601f19603f3d011682016040523d82523d6000602084013e616ffe565b606091505b507f4b87bbd93ba65ede1e2efeca735d9f7a6720bf7d6db0a8355b17dba5b64e57838160405161702e919061857a565b60405180910390a150617055565b60016022600082825461704f9190619728565b90915550505b5050617091565b6000888152601460205260408120600b01805460ff19166002179055602480546001929061708b908490619728565b90915550505b6001602260008282546170a49190619728565b909155505060008881526014602052604081206002015460258054919290916170ce908490619728565b909155505060008881526014602052604081206003015460268054919290916170f8908490619728565b909155505060008881526013602052604090819020600181015491516001600160a01b03909216917f43916c3ae75995d24cc89b466ed08e6dba74d325f7957f9b37b05f150e12918e9161714b91618665565b60405180910390a25050505050505050565b3390565b60008060005b6019548110156171d557836001600160a01b03166019828154811061719c57634e487b7160e01b600052603260045260246000fd5b6000918252602090912001546001600160a01b031614156171c357600191508092506171d5565b806171cd816197f1565b915050617167565b508015615ff457601980546171ec90600190619773565b8154811061720a57634e487b7160e01b600052603260045260246000fd5b600091825260209091200154601980546001600160a01b03909216918490811061724457634e487b7160e01b600052603260045260246000fd5b9060005260206000200160006101000a8154816001600160a01b0302191690836001600160a01b031602179055506019805480615fd157634e487b7160e01b600052603160045260246000fd5b60008183106172a05781611a38565b5090919050565b6000818310156172a05781611a38565b6000611a388284619728565b600080805b601a548110156133fc57836001600160a01b0316601a82815481106172fd57634e487b7160e01b600052603260045260246000fd5b6000918252602090912001546001600160a01b0316141561732157600191506133fc565b8061732b816197f1565b9150506172c8565b600080546001600160a01b038381166001600160a01b0319831681178455604051919092169283917f8be0079c531659141344cd1fd0a4f28419497f9722a3daafe3b4186f6b6457e09190a35050565b805160609060005b818110156173d157808482815181106173b457634e487b7160e01b600052603260045260246000fd5b6020908102919091010152806173c9816197f1565b91505061738b565b509192915050565b606060008251116173e957600080fd5b81518060005b81811015617564576000836174026131ee565b87848151811061742257634e487b7160e01b600052603260045260246000fd5b602002602001015160405160200161743b929190618455565b6040516020818303038152906040528051906020012060001c61745e919061980c565b617469906001619728565b9050600086617479600184619773565b8151811061749757634e487b7160e01b600052603260045260246000fd5b60200260200101519050866001866174af9190619773565b815181106174cd57634e487b7160e01b600052603260045260246000fd5b6020026020010151876001846174e39190619773565b8151811061750157634e487b7160e01b600052603260045260246000fd5b60209081029190910101528087617519600188619773565b8151811061753757634e487b7160e01b600052603260045260246000fd5b602090810291909101015261754d600186619773565b94505050808061755c906197f1565b9150506173ef565b50929392505050565b600061757b60016004619773565b90506000600282600481106175a057634e487b7160e01b600052603260045260246000fd5b6002020154602d54604080516307bc663b60e11b815290519293506001600160a01b0390911691630f78cc7691600480820192602092909190829003018186803b1580156175ed57600080fd5b505afa158015617601573d6000803e3d6000fd5b505050506040513d601f19601f820116820180604052508101906176259190618237565b61762f8242619773565b11156129dc5760005b61764460016004619773565b8110156176c5576002617658826001619728565b6004811061767657634e487b7160e01b600052603260045260246000fd5b600202016002826004811061769b57634e487b7160e01b600052603260045260246000fd5b825460029190910291909101908155600191820154910155806176bd816197f1565b915050617638565b5042600283600481106176e857634e487b7160e01b600052603260045260246000fd5b6002020160000181905550426002836004811061771557634e487b7160e01b600052603260045260246000fd5b60020201600101819055505050565b6001600160a01b0381166000908152601560205260408120600901805490919061775090600190619773565b9050600082828154811061777457634e487b7160e01b600052603260045260246000fd5b600091825260209182902060029091020154602d54604080516307bc663b60e11b815290519294506001600160a01b0390911692630f78cc7692600480840193829003018186803b1580156177c857600080fd5b505afa1580156177dc573d6000803e3d6000fd5b505050506040513d601f19601f820116820180604052508101906178009190618237565b61780a8242619773565b111561791e5760005b835461782190600190619773565b8110156178b05783617834826001619728565b8154811061785257634e487b7160e01b600052603260045260246000fd5b906000526020600020906002020184828154811061788057634e487b7160e01b600052603260045260246000fd5b600091825260209091208254600290920201908155600191820154910155806178a8816197f1565b915050617813565b50428383815481106178d257634e487b7160e01b600052603260045260246000fd5b9060005260206000209060020201600001819055504283838154811061790857634e487b7160e01b600052603260045260246000fd5b9060005260206000209060020201600101819055505b50505050565b6028546040516304ada21f60e21b81526001600160a01b03909116906312b6887c9061795690859085906004016195b1565b602060405180830381600087803b15801561797057600080fd5b505af1158015617984573d6000803e3d6000fd5b505050506040513d601f19601f820116820180604052508101906179a8919061812d565b6179c45760405162461bcd60e51b8152600401610d7090618a9a565b6001600160a01b038116600090815260166020526040812080548492906179ec908490619728565b92505081905550806001600160a01b03167f5aa5d56140767016c877a5333ac3e1ad31a09051098a8fdf7297c4b64530a942836040516152729190618430565b60005b601b54811015617ab7576000601b8281548110617a5c57634e487b7160e01b600052603260045260246000fd5b60009182526020808320909101546001600160a01b03168083526015909152604090912060058101805461ffff19169055909150617a9982617161565b617aa282615ea1565b50508080617aaf906197f1565b915050617a2f565b50612a53601b6000617e3f565b6000601e54602054617ad69190619773565b9050602d60009054906101000a90046001600160a01b03166001600160a01b031663e3115d3c6040518163ffffffff1660e01b815260040160206040518083038186803b158015617b2657600080fd5b505afa158015617b3a573d6000803e3d6000fd5b505050506040513d601f19601f82011682018060405250810190617b5e9190618237565b811115614f2c5760005b602d54604080516307d630cb60e41b81529051617bec926001600160a01b031691637d630cb0916004808301926020929190829003018186803b158015617bae57600080fd5b505afa158015617bc2573d6000803e3d6000fd5b505050506040513d601f19601f82011682018060405250810190617be69190618237565b83617291565b8110156129dc57601e5460009081526014602052604081208054600190910154909190617c199083619728565b9050815b81811015617c4057617c2e81611ecf565b80617c38816197f1565b915050617c1d565b50617c4c601e54612298565b601e546040517f72c2fcc891fe835b86fc8bb9abdc52adf52499c52289b3c49e1461eabea2717590600090a250508080617c85906197f1565b915050617b68565b508054617c99906197b6565b6000825580601f10617cab5750614f2c565b601f016020900490600052602060002090810190614f2c9190617e59565b6040518060e001604052806060815260200160006001600160a01b031681526020016000815260200160008152602001606081526020016060815260200160006003811115617d2857634e487b7160e01b600052602160045260246000fd5b905290565b828054617d39906197b6565b90600052602060002090601f016020900481019282617d5b5760008555617da1565b82601f10617d7457805160ff1916838001178555617da1565b82800160010185558215617da1579182015b82811115617da1578251825591602001919060010190617d86565b50617dad929150617e59565b5090565b604051806101c001604052806000815260200160008152602001600081526020016000815260200160001515815260200160001515815260200160001515815260200160008152602001600081526020016000815260200160008152602001606081526020016000815260200160006003811115617d2857634e487b7160e01b600052602160045260246000fd5b5080546000825590600052602060002090810190614f2c91905b5b80821115617dad5760008155600101617e5a565b60008083601f840112617e7f578182fd5b5081356001600160401b03811115617e95578182fd5b6020830191508360208083028501011115617eaf57600080fd5b9250929050565b600082601f830112617ec6578081fd5b81356001600160401b03811115617edf57617edf61984c565b617ef2601f8201601f19166020016196d0565b818152846020838601011115617f06578283fd5b816020850160208301379081016020019190915292915050565b600060208284031215617f31578081fd5b8135611a3881619862565b600060208284031215617f4d578081fd5b8151611a3881619862565b60008060408385031215617f6a578081fd5b8235617f7581619862565b946020939093013593505050565b600080600060608486031215617f97578081fd5b8335617fa281619862565b95602085013595506040909401359392505050565b600080600080600060808688031215617fce578081fd5b85356001600160401b0380821115617fe4578283fd5b818801915088601f830112617ff7578283fd5b8135602061800c618007836196f9565b6196d0565b82815281810190858301875b858110156180415761802f8f8684358b0101617eb6565b84529284019290840190600101618018565b50909a50505089013592505080821115618059578283fd5b61806589838a01617e6e565b9096509450604088013593506060880135915080821115618084578283fd5b5061809188828901617eb6565b9150509295509295909350565b600060208083850312156180b0578182fd5b82356001600160401b038111156180c5578283fd5b8301601f810185136180d5578283fd5b80356180e3618007826196f9565b81815283810190838501858402850186018910156180ff578687fd5b8694505b83851015618121578035835260019490940193918501918501618103565b50979650505050505050565b60006020828403121561813e578081fd5b81518015158114611a38578182fd5b600080600060408486031215618161578283fd5b83356001600160401b0380821115618177578485fd5b818601915086601f83011261818a578485fd5b813581811115618198578586fd5b8760208285010111156181a9578586fd5b6020928301989097509590910135949350505050565b600080604083850312156181d1578182fd5b82356001600160401b03808211156181e7578384fd5b6181f386838701617eb6565b93506020850135915080821115618208578283fd5b5061821585828601617eb6565b9150509250929050565b600060208284031215618230578081fd5b5035919050565b600060208284031215611b54578081fd5b6000806040838503121561825a578182fd5b82359150602083013561826c81619862565b809150509250929050565b600080600080600060a0868803121561828e578283fd5b853594506020860135935060408601356001600160401b03808211156182b2578485fd5b6182be89838a01617eb6565b9450606088013593506080880135915080821115618084578283fd5b600080604083850312156182ec578182fd5b50508035926020909101359150565b60008060008060808587031215618310578182fd5b8435935060208501359250604085013561832981619862565b9396929550929360600135925050565b60008060006060848603121561834d578081fd5b505081359360208301359350604090920135919050565b15159052565b6000815180845261838281602086016020860161978a565b601f01601f19169290920160200192915050565b600481106183b457634e487b7160e01b600052602160045260246000fd5b9052565b600a8152690c6dedadad2e890c2e6d60b31b602082015260400190565b60098152686e756d546f6b656e7360b81b602082015260400190565b60609190911b6bffffffffffffffffffffffff1916815260140190565b60609290921b6bffffffffffffffffffffffff19168252601482015260340190565b90815260200190565b6000825161844b81846020870161978a565b9190910192915050565b918252602082015260400190565b6001600160a01b0391909116815260200190565b6001600160a01b039a909a168a5260208a0198909852951515604089015260608801949094526080870192909252151560a0860152151560c085015260e08401526101008301526101208201526101400190565b6000602080830181845280855180835260408601915060408482028701019250838701855b8281101561851e57603f1988860301845261850c85835161836a565b945092850192908501906001016184f0565b5092979650505050505050565b6020808252825182820181905260009190848201906040850190845b8181101561856357835183529284019291840191600101618547565b50909695505050505050565b901515815260200190565b600060208252611a38602083018461836a565b6000604082528360408301528385606084013780606085840101526060601f19601f8601168301019050826020830152949350505050565b600060e082526185d860e083018a61836a565b6001600160a01b038916602084015260408301889052606083018790528281036080840152618607818761836a565b905082810360a084015261861b818661836a565b91505061862b60c0830184618396565b98975050505050505050565b60006040825261864a604083018561836a565b828103602084015261865c818561836a565b95945050505050565b600060208083528184548360028204905060018083168061868757607f831692505b8583108114156186a557634e487b7160e01b87526022600452602487fd5b6186b183878a01618430565b8180156186c557600181146186d657618700565b60ff19861682528782019650618700565b6186df8b61971c565b895b868110156186fa578154848201529085019089016186e1565b83019750505b50949998505050505050505050565b6020808252601c908201527f576f726b657220697320616c7265616479207265676973746572656400000000604082015260600190565b60208082526031908201527f676976656e204461746142617463682073686f756c6420626520415050524f5660408201527011510b08185b99081a5d081a5cc81b9bdd607a1b606082015260800190565b60208082526041908201527f576f726b657220686173206e6f7420656e6f75676820285f6e756d546f6b656e60408201527f732920696e206869732053706f745374616b6564546f6b656e42616c616e63656060820152600160fd1b608082015260a00190565b60208082526025908201527f72656365697665722072656a6563746564205f7265747269657665534675656c6040820152640818d85b1b60da1b606082015260800190565b6020808252602f908201527f636f6d6d697420706572696f64206e6565647320746f206265206f70656e206660408201526e1bdc881d1a1a5cc818985d18da1259608a1b606082015260800190565b6020808252605c908201527f4e6f74207468652073616d6520766f7465207468616e2077686174207761732060408201527f636f6d6d697465642c20696d706f737369626c6520746f206d6174636820776960608201527f746820676976656e205f73616c742026205f766f74654f7074696f6e00000000608082015260a00190565b60208082526026908201527f4f776e61626c653a206e6577206f776e657220697320746865207a65726f206160408201526564647265737360d01b606082015260800190565b60208082526029908201527f6b206f72204e20617265206e6f74204f4b20647572696e672072616e646f6d2060408201526839b2b632b1ba34b7b760b91b606082015260800190565b6020808252602a908201527f4661696c20647572696e6720616c6c6f636174696f6e3a206e6f7420656e6f75604082015269676820776f726b65727360b01b606082015260800190565b60208082526038908201527f55736572206e6565647320746f20626520616c6c6f636174656420746f20746860408201527f697320626174636820746f20636f6d6d6974206f6e2069740000000000000000606082015260800190565b6020808252602f908201527f636f756c64206e6f742072657761726420746f6b656e20696e2054726967676560408201526e3921b432b1b5a9b837ba161018973160891b606082015260800190565b6020808252603f908201527f436f756c64206e6f74207265717565737420656e6f75676820616c6c6f63617460408201527f6564207374616b652c2072657175657374416c6c6f63617465645374616b6500606082015260800190565b6020808252602f908201527f5573657220686173206e6f7420636f6d6d69746564206265666f72652c20746860408201526e1d5cc818d85b89dd081c995d99585b608a1b606082015260800190565b6020808252602a908201527f53706f7474696e67206973206e6f742063757272656e746c7920656e61626c656040820152693210313c9027bbb732b960b11b606082015260800190565b60208082526036908201527f476c6f62616c206c696d69743a206578636565646564206d61782064617461206040820152753832b9103437bab916103932ba393c903630ba32b91760511b606082015260800190565b6020808252602d908201527f636f756c64206e6f74207265776172642052455020696e20547269676765724360408201526c6865636b53706f742c20312e6160981b606082015260800190565b60208082526039908201527f646c6c4d61703a20646f6573206e6f7420636f696e7461696e205f446174614260408201527f61746368496420666f7220746865206d73672073656e64657200000000000000606082015260800190565b6020808252602b908201527f75736572206d75737420686176652072657665616c656420696e20746869732060408201526a0ced2eccadc4084c2e8c6d60ab1b606082015260800190565b6020808252602e908201527f636f756c64206e6f74207265776172642052455020696e2056616c696461746560408201526d4461746142617463682c20322e6160901b606082015260800190565b6020808252601490820152733737ba1030903b30b634b2103837b9b4ba34b7b760611b604082015260600190565b6020808252603a908201527f576f726b65722063757272656e746c792068617320776f726b20616c6c6f636160408201527f7465642c2063616e277420626520756e72656769737465726564000000000000606082015260800190565b6020808252603b908201527f43616e277420616c6c6f6361746520776f726b2c207468652063757272656e7460408201527f20626174636820697320616c726561647920616c6c6f63617465640000000000606082015260800190565b6020808252602c908201527f576f726b6572206973206e6f74207265676973746572656420736f2063616e2760408201526b3a103ab73932b3b4b9ba32b960a11b606082015260800190565b6020808252818101527f4f776e61626c653a2063616c6c6572206973206e6f7420746865206f776e6572604082015260600190565b60208082526030908201527f636f756c64206e6f742072657761726420746f6b656e20696e2056616c69646160408201526f3a32a230ba30a130ba31b4161019173160811b606082015260800190565b6020808252603a908201527f5f446174614261746368496420686173206e6f7420656e6465642c206f72206e60408201527f6f7420657665727920766f74657273206861766520766f746564000000000000606082015260800190565b60208082526029908201527f6765744e756d50617373696e67546f6b656e733a20686173686573206d75737460408201526808189948195c5d585b60ba1b606082015260800190565b60208082526036908201527f43616e277420616c6c6f6361746520776f726b2c207468652063757272656e74604082015275206261746368206973206e6f7420636f6d706c65746560501b606082015260800190565b60208082526026908201527f52657665616c20706572696f64206e6f74206f70656e20666f7220746869732060408201526511185d18525160d21b606082015260800190565b60208082526027908201527f617661696c61626c65546f6b656e732073686f756c64206265203e3d205f6e756040820152666d546f6b656e7360c81b606082015260800190565b60208082526017908201527f5f4461746142617463684964206d757374206578697374000000000000000000604082015260600190565b6020808252601390820152720c081059191c995cdcc8139bdd0815985b1a59606a1b604082015260600190565b60208082526021908201527f5f446174614261746368496420697320616c72656164792076616c69646174656040820152601960fa1b606082015260800190565b60208082526029908201527f557365722068617320616c726561647920636f6d6d6974656420746f207468696040820152681cc818985d18da125960ba1b606082015260800190565b60208082526022908201527f4d6178696d756d207265676973746572656420776f726b65727320616c726561604082015261647960f01b606082015260800190565b6020808252606c908201527f5573657220686173206e6f7420766f746564206d616e792074696d657320696e60408201527f206120726f7720616e64206e6565647320746f2077616974204e4f564f54455f60608201527f524547495354524154494f4e5f574149545f4455524154494f4e20746f20726560808201526b33b4b9ba32b91030b3b0b4b760a11b60a082015260c00190565b6020808252602a908201527f5f446174614261746368496420636865636b696e6720766f7465206d757374206040820152691a185d9948195b99195960b21b606082015260800190565b6020808252603b908201527f436f756c64206e6f74207769746864726177566f74696e67526967687473207460408201527f68726f7567682050726f78795374616b654465616c6c6f636174650000000000606082015260800190565b60208082526034908201527f55736572206c696d69743a206578636565646564206d6178206461746120706560408201527339103437bab916103932ba393c903630ba32b91760611b606082015260800190565b6020808252600f908201526e11185d18481b5d5cdd08195e1a5cdd608a1b604082015260600190565b6020808252602c908201527f557365722068617320616c72656164792072657665616c65642c20746875732060408201526b18d85b89dd081c995d99585b60a21b606082015260800190565b6000602082528251602083015260208301516040830152604083015160608301526060830151608083015260808301516193e060a0840182618364565b5060a08301516193f360c0840182618364565b5060c083015161940660e0840182618364565b5060e0830151610100838101919091528301516101208084019190915283015161014080840191909152830151610160808401919091528301516101c061018080850182905261945a6101e086018461836a565b908601516101a086810191909152860151909250614a1b82860182618396565b600083825282602083015260606040830152615062606083016183b8565b6000848252836020830152608060408301526194b6608083016183b8565b9050826060830152949350505050565b600083825282602083015260606040830152615062606083016183d5565b6000848252836020830152608060408301526194b6608083016183d5565b93845260208401929092526040830152606082015260800190565b600060208252825160e0602084015261953a61010084018261836a565b905060018060a01b03602085015116604084015260408401516060840152606084015160808401526080840151601f19808584030160a086015261957e838361836a565b925060a08601519150808584030160c08601525061959c828261836a565b91505060c084015161303860e0850182618396565b9182526001600160a01b0316602082015260400190565b9182526001600160a01b031660208201526000604082015260600190565b9283526020830191909152604082015260600190565b60008f82528e60208301528d60408301528c60608301528b151560808301528a151560a083015261963060c083018b618364565b8860e08301528761010083015286610120830152856101408301526101c06101608301526196626101c083018661836a565b9050836101808301526196796101a0830184618396565b9f9e505050505050505050505050505050565b6000808335601e198436030181126196a2578283fd5b8301803591506001600160401b038211156196bb578283fd5b602001915036819003821315617eaf57600080fd5b6040518181016001600160401b03811182821017156196f1576196f161984c565b604052919050565b60006001600160401b038211156197125761971261984c565b5060209081020190565b60009081526020902090565b6000821982111561973b5761973b619820565b500190565b60008261974f5761974f619836565b500490565b600081600019048311821515161561976e5761976e619820565b500290565b60008282101561978557619785619820565b500390565b60005b838110156197a557818101518382015260200161978d565b8381111561791e5750506000910152565b6002810460018216806197ca57607f821691505b602082108114156197eb57634e487b7160e01b600052602260045260246000fd5b50919050565b600060001982141561980557619805619820565b5060010190565b60008261981b5761981b619836565b500690565b634e487b7160e01b600052601160045260246000fd5b634e487b7160e01b600052601260045260246000fd5b634e487b7160e01b600052604160045260246000fd5b6001600160a01b0381168114614f2c57600080fdfea2646970667358221220198d11dc4a45280009b99556a8809f29479d45caa96fa0fb4c43c85d6deecf9264736f6c63430008000033",
  "linkReferences": {
    "contracts/worksystems/DataSpotting.sol": {
      "AttributeStore": [
        {
          "length": 20,
          "start": 18448
        },
        {
          "length": 20,
          "start": 18554
        },
        {
          "length": 20,
          "start": 18967
        },
        {
          "length": 20,
          "start": 19436
        }
      ],
      "DLL": [
        {
          "length": 20,
          "start": 4102
        },
        {
          "length": 20,
          "start": 6758
        },
        {
          "length": 20,
          "start": 6930
        },
        {
          "length": 20,
          "start": 7426
        },
        {
          "length": 20,
          "start": 12251
        },
        {
          "length": 20,
          "start": 12431
        },
        {
          "length": 20,
          "start": 17968
        },
        {
          "length": 20,
          "start": 18130
        },
        {
          "length": 20,
          "start": 18325
        }
      ]
    }
  },
  "deployedLinkReferences": {
    "contracts/worksystems/DataSpotting.sol": {
      "AttributeStore": [
        {
          "length": 20,
          "start": 18098
        },
        {
          "length": 20,
          "start": 18204
        },
        {
          "length": 20,
          "start": 18617
        },
        {
          "length": 20,
          "start": 19086
        }
      ],
      "DLL": [
        {
          "length": 20,
          "start": 3752
        },
        {
          "length": 20,
          "start": 6408
        },
        {
          "length": 20,
          "start": 6580
        },
        {
          "length": 20,
          "start": 7076
        },
        {
          "length": 20,
          "start": 11901
        },
        {
          "length": 20,
          "start": 12081
        },
        {
          "length": 20,
          "start": 17618
        },
        {
          "length": 20,
          "start": 17780
        },
        {
          "length": 20,
          "start": 17975
        }
      ]
    }
  }
}