{
  "_format": "hh-sol-artifact-1",
  "contractName": "DataSpotting",
  "sourceName": "contracts/worksystems/DataSpotting.sol",
  "abi": [
    {
      "inputs": [
        {
          "internalType": "address",
          "name": "EXDT_token_",
          "type": "address"
        }
      ],
      "stateMutability": "nonpayable",
      "type": "constructor"
    },
    {
      "anonymous": false,
      "inputs": [
        {
          "indexed": false,
          "internalType": "bytes",
          "name": "bytesFailure",
          "type": "bytes"
        }
      ],
      "name": "BytesFailure",
      "type": "event"
    },
    {
      "anonymous": false,
      "inputs": [
        {
          "indexed": true,
          "internalType": "address",
          "name": "previousOwner",
          "type": "address"
        },
        {
          "indexed": true,
          "internalType": "address",
          "name": "newOwner",
          "type": "address"
        }
      ],
      "name": "OwnershipTransferred",
      "type": "event"
    },
    {
      "anonymous": false,
      "inputs": [
        {
          "indexed": false,
          "internalType": "address",
          "name": "parameters",
          "type": "address"
        }
      ],
      "name": "ParametersUpdated",
      "type": "event"
    },
    {
      "anonymous": false,
      "inputs": [
        {
          "indexed": false,
          "internalType": "address",
          "name": "account",
          "type": "address"
        }
      ],
      "name": "Paused",
      "type": "event"
    },
    {
      "anonymous": false,
      "inputs": [
        {
          "indexed": false,
          "internalType": "address",
          "name": "account",
          "type": "address"
        }
      ],
      "name": "Unpaused",
      "type": "event"
    },
    {
      "anonymous": false,
      "inputs": [
        {
          "indexed": true,
          "internalType": "uint256",
          "name": "DataID",
          "type": "uint256"
        },
        {
          "indexed": false,
          "internalType": "string",
          "name": "file_hash",
          "type": "string"
        },
        {
          "indexed": false,
          "internalType": "bool",
          "name": "isVotePassed",
          "type": "bool"
        }
      ],
      "name": "_BatchValidated",
      "type": "event"
    },
    {
      "anonymous": false,
      "inputs": [
        {
          "indexed": true,
          "internalType": "uint256",
          "name": "batchID",
          "type": "uint256"
        }
      ],
      "name": "_DataBatchDeleted",
      "type": "event"
    },
    {
      "anonymous": false,
      "inputs": [
        {
          "indexed": true,
          "internalType": "uint256",
          "name": "DataID",
          "type": "uint256"
        },
        {
          "indexed": false,
          "internalType": "uint256",
          "name": "numTokens",
          "type": "uint256"
        },
        {
          "indexed": true,
          "internalType": "address",
          "name": "voter",
          "type": "address"
        }
      ],
      "name": "_SpotCheckCommitted",
      "type": "event"
    },
    {
      "anonymous": false,
      "inputs": [
        {
          "indexed": true,
          "internalType": "uint256",
          "name": "DataID",
          "type": "uint256"
        },
        {
          "indexed": false,
          "internalType": "uint256",
          "name": "votesFor",
          "type": "uint256"
        },
        {
          "indexed": false,
          "internalType": "uint256",
          "name": "votesAgainst",
          "type": "uint256"
        },
        {
          "indexed": true,
          "internalType": "uint256",
          "name": "choice",
          "type": "uint256"
        },
        {
          "indexed": true,
          "internalType": "address",
          "name": "voter",
          "type": "address"
        }
      ],
      "name": "_SpotCheckRevealed",
      "type": "event"
    },
    {
      "anonymous": false,
      "inputs": [
        {
          "indexed": true,
          "internalType": "uint256",
          "name": "DataID",
          "type": "uint256"
        },
        {
          "indexed": false,
          "internalType": "string",
          "name": "file_hash",
          "type": "string"
        },
        {
          "indexed": false,
          "internalType": "string",
          "name": "URL_domain",
          "type": "string"
        },
        {
          "indexed": true,
          "internalType": "address",
          "name": "sender",
          "type": "address"
        }
      ],
      "name": "_SpotSubmitted",
      "type": "event"
    },
    {
      "anonymous": false,
      "inputs": [
        {
          "indexed": false,
          "internalType": "uint256",
          "name": "numTokens",
          "type": "uint256"
        },
        {
          "indexed": true,
          "internalType": "address",
          "name": "voter",
          "type": "address"
        }
      ],
      "name": "_StakeAllocated",
      "type": "event"
    },
    {
      "anonymous": false,
      "inputs": [
        {
          "indexed": true,
          "internalType": "uint256",
          "name": "DataID",
          "type": "uint256"
        },
        {
          "indexed": true,
          "internalType": "address",
          "name": "voter",
          "type": "address"
        }
      ],
      "name": "_TokensRescued",
      "type": "event"
    },
    {
      "anonymous": false,
      "inputs": [
        {
          "indexed": false,
          "internalType": "uint256",
          "name": "numTokens",
          "type": "uint256"
        },
        {
          "indexed": true,
          "internalType": "address",
          "name": "voter",
          "type": "address"
        }
      ],
      "name": "_VotingRightsWithdrawn",
      "type": "event"
    },
    {
      "anonymous": false,
      "inputs": [
        {
          "indexed": true,
          "internalType": "uint256",
          "name": "batchID",
          "type": "uint256"
        },
        {
          "indexed": false,
          "internalType": "address",
          "name": "worker",
          "type": "address"
        }
      ],
      "name": "_WorkAllocated",
      "type": "event"
    },
    {
      "anonymous": false,
      "inputs": [
        {
          "indexed": true,
          "internalType": "address",
          "name": "worker",
          "type": "address"
        },
        {
          "indexed": false,
          "internalType": "uint256",
          "name": "timestamp",
          "type": "uint256"
        }
      ],
      "name": "_WorkerRegistered",
      "type": "event"
    },
    {
      "anonymous": false,
      "inputs": [
        {
          "indexed": true,
          "internalType": "address",
          "name": "worker",
          "type": "address"
        },
        {
          "indexed": false,
          "internalType": "uint256",
          "name": "timestamp",
          "type": "uint256"
        }
      ],
      "name": "_WorkerUnregistered",
      "type": "event"
    },
    {
      "inputs": [],
      "name": "AcceptedBatchsCounter",
      "outputs": [
        {
          "internalType": "uint128",
          "name": "",
          "type": "uint128"
        }
      ],
      "stateMutability": "view",
      "type": "function"
    },
    {
      "inputs": [],
      "name": "AllItemCounter",
      "outputs": [
        {
          "internalType": "uint256",
          "name": "",
          "type": "uint256"
        }
      ],
      "stateMutability": "view",
      "type": "function"
    },
    {
      "inputs": [],
      "name": "AllTxsCounter",
      "outputs": [
        {
          "internalType": "uint256",
          "name": "",
          "type": "uint256"
        }
      ],
      "stateMutability": "view",
      "type": "function"
    },
    {
      "inputs": [
        {
          "internalType": "uint256",
          "name": "",
          "type": "uint256"
        }
      ],
      "name": "AllWorkersList",
      "outputs": [
        {
          "internalType": "address",
          "name": "",
          "type": "address"
        }
      ],
      "stateMutability": "view",
      "type": "function"
    },
    {
      "inputs": [],
      "name": "AllocatedBatchCursor",
      "outputs": [
        {
          "internalType": "uint128",
          "name": "",
          "type": "uint128"
        }
      ],
      "stateMutability": "view",
      "type": "function"
    },
    {
      "inputs": [],
      "name": "AmIKicked",
      "outputs": [
        {
          "internalType": "bool",
          "name": "status",
          "type": "bool"
        }
      ],
      "stateMutability": "view",
      "type": "function"
    },
    {
      "inputs": [],
      "name": "AmIRegistered",
      "outputs": [
        {
          "internalType": "bool",
          "name": "passed",
          "type": "bool"
        }
      ],
      "stateMutability": "view",
      "type": "function"
    },
    {
      "inputs": [
        {
          "internalType": "string",
          "name": "_a",
          "type": "string"
        },
        {
          "internalType": "string",
          "name": "_b",
          "type": "string"
        }
      ],
      "name": "AreStringsEqual",
      "outputs": [
        {
          "internalType": "bool",
          "name": "",
          "type": "bool"
        }
      ],
      "stateMutability": "pure",
      "type": "function"
    },
    {
      "inputs": [],
      "name": "BatchCheckingCursor",
      "outputs": [
        {
          "internalType": "uint128",
          "name": "",
          "type": "uint128"
        }
      ],
      "stateMutability": "view",
      "type": "function"
    },
    {
      "inputs": [
        {
          "internalType": "uint128",
          "name": "",
          "type": "uint128"
        }
      ],
      "name": "BatchCommitedVoteCount",
      "outputs": [
        {
          "internalType": "uint16",
          "name": "",
          "type": "uint16"
        }
      ],
      "stateMutability": "view",
      "type": "function"
    },
    {
      "inputs": [],
      "name": "BatchDeletionCursor",
      "outputs": [
        {
          "internalType": "uint128",
          "name": "",
          "type": "uint128"
        }
      ],
      "stateMutability": "view",
      "type": "function"
    },
    {
      "inputs": [
        {
          "internalType": "uint128",
          "name": "",
          "type": "uint128"
        }
      ],
      "name": "BatchRevealedVoteCount",
      "outputs": [
        {
          "internalType": "uint16",
          "name": "",
          "type": "uint16"
        }
      ],
      "stateMutability": "view",
      "type": "function"
    },
    {
      "inputs": [],
      "name": "BytesUsed",
      "outputs": [
        {
          "internalType": "uint256",
          "name": "",
          "type": "uint256"
        }
      ],
      "stateMutability": "view",
      "type": "function"
    },
    {
      "inputs": [
        {
          "internalType": "uint128",
          "name": "",
          "type": "uint128"
        }
      ],
      "name": "DataBatch",
      "outputs": [
        {
          "internalType": "uint128",
          "name": "start_idx",
          "type": "uint128"
        },
        {
          "internalType": "uint32",
          "name": "counter",
          "type": "uint32"
        },
        {
          "internalType": "uint32",
          "name": "item_count",
          "type": "uint32"
        },
        {
          "internalType": "uint16",
          "name": "uncommited_workers",
          "type": "uint16"
        },
        {
          "internalType": "uint16",
          "name": "unrevealed_workers",
          "type": "uint16"
        },
        {
          "internalType": "bool",
          "name": "complete",
          "type": "bool"
        },
        {
          "internalType": "bool",
          "name": "checked",
          "type": "bool"
        },
        {
          "internalType": "bool",
          "name": "allocated_to_work",
          "type": "bool"
        },
        {
          "internalType": "uint16",
          "name": "votesFor",
          "type": "uint16"
        },
        {
          "internalType": "uint16",
          "name": "votesAgainst",
          "type": "uint16"
        },
        {
          "internalType": "uint64",
          "name": "commitEndDate",
          "type": "uint64"
        },
        {
          "internalType": "uint64",
          "name": "revealEndDate",
          "type": "uint64"
        },
        {
          "internalType": "string",
          "name": "batchIPFSfile",
          "type": "string"
        },
        {
          "internalType": "enum DataSpotting.DataStatus",
          "name": "status",
          "type": "uint8"
        }
      ],
      "stateMutability": "view",
      "type": "function"
    },
    {
      "inputs": [
        {
          "internalType": "uint128",
          "name": "_DataBatchId",
          "type": "uint128"
        }
      ],
      "name": "DataCommitEndDate",
      "outputs": [
        {
          "internalType": "uint256",
          "name": "commitEndDate",
          "type": "uint256"
        }
      ],
      "stateMutability": "view",
      "type": "function"
    },
    {
      "inputs": [
        {
          "internalType": "uint128",
          "name": "_DataBatchId",
          "type": "uint128"
        }
      ],
      "name": "DataEnded",
      "outputs": [
        {
          "internalType": "bool",
          "name": "ended",
          "type": "bool"
        }
      ],
      "stateMutability": "view",
      "type": "function"
    },
    {
      "inputs": [
        {
          "internalType": "uint128",
          "name": "_DataBatchId",
          "type": "uint128"
        }
      ],
      "name": "DataExists",
      "outputs": [
        {
          "internalType": "bool",
          "name": "exists",
          "type": "bool"
        }
      ],
      "stateMutability": "view",
      "type": "function"
    },
    {
      "inputs": [],
      "name": "DataNonce",
      "outputs": [
        {
          "internalType": "uint128",
          "name": "",
          "type": "uint128"
        }
      ],
      "stateMutability": "view",
      "type": "function"
    },
    {
      "inputs": [
        {
          "internalType": "uint128",
          "name": "_DataBatchId",
          "type": "uint128"
        }
      ],
      "name": "DataRevealEndDate",
      "outputs": [
        {
          "internalType": "uint256",
          "name": "revealEndDate",
          "type": "uint256"
        }
      ],
      "stateMutability": "view",
      "type": "function"
    },
    {
      "inputs": [],
      "name": "FORCE_VALIDATE_BATCH_FILE",
      "outputs": [
        {
          "internalType": "bool",
          "name": "",
          "type": "bool"
        }
      ],
      "stateMutability": "view",
      "type": "function"
    },
    {
      "inputs": [
        {
          "internalType": "address",
          "name": "user_",
          "type": "address"
        }
      ],
      "name": "GetCurrentWork",
      "outputs": [
        {
          "internalType": "uint256",
          "name": "",
          "type": "uint256"
        }
      ],
      "stateMutability": "view",
      "type": "function"
    },
    {
      "inputs": [
        {
          "internalType": "uint256",
          "name": "",
          "type": "uint256"
        }
      ],
      "name": "GlobalSpotFlowManager",
      "outputs": [
        {
          "internalType": "uint128",
          "name": "timestamp",
          "type": "uint128"
        },
        {
          "internalType": "uint128",
          "name": "counter",
          "type": "uint128"
        }
      ],
      "stateMutability": "view",
      "type": "function"
    },
    {
      "inputs": [],
      "name": "InstantRevealRewards",
      "outputs": [
        {
          "internalType": "bool",
          "name": "",
          "type": "bool"
        }
      ],
      "stateMutability": "view",
      "type": "function"
    },
    {
      "inputs": [],
      "name": "InstantRevealRewardsDivider",
      "outputs": [
        {
          "internalType": "uint16",
          "name": "",
          "type": "uint16"
        }
      ],
      "stateMutability": "view",
      "type": "function"
    },
    {
      "inputs": [],
      "name": "InstantSpotRewards",
      "outputs": [
        {
          "internalType": "bool",
          "name": "",
          "type": "bool"
        }
      ],
      "stateMutability": "view",
      "type": "function"
    },
    {
      "inputs": [],
      "name": "InstantSpotRewardsDivider",
      "outputs": [
        {
          "internalType": "uint16",
          "name": "",
          "type": "uint16"
        }
      ],
      "stateMutability": "view",
      "type": "function"
    },
    {
      "inputs": [
        {
          "internalType": "address",
          "name": "user_",
          "type": "address"
        }
      ],
      "name": "IsAddressKicked",
      "outputs": [
        {
          "internalType": "bool",
          "name": "status",
          "type": "bool"
        }
      ],
      "stateMutability": "view",
      "type": "function"
    },
    {
      "inputs": [
        {
          "internalType": "address",
          "name": "_worker",
          "type": "address"
        }
      ],
      "name": "IsInLogoffList",
      "outputs": [
        {
          "internalType": "bool",
          "name": "",
          "type": "bool"
        }
      ],
      "stateMutability": "view",
      "type": "function"
    },
    {
      "inputs": [
        {
          "internalType": "address",
          "name": "user_",
          "type": "address"
        }
      ],
      "name": "IsNewWorkAvailable",
      "outputs": [
        {
          "internalType": "bool",
          "name": "",
          "type": "bool"
        }
      ],
      "stateMutability": "view",
      "type": "function"
    },
    {
      "inputs": [
        {
          "internalType": "uint256",
          "name": "",
          "type": "uint256"
        }
      ],
      "name": "ItemFlowManager",
      "outputs": [
        {
          "internalType": "uint128",
          "name": "timestamp",
          "type": "uint128"
        },
        {
          "internalType": "uint128",
          "name": "counter",
          "type": "uint128"
        }
      ],
      "stateMutability": "view",
      "type": "function"
    },
    {
      "inputs": [],
      "name": "LastAllocationTime",
      "outputs": [
        {
          "internalType": "uint64",
          "name": "",
          "type": "uint64"
        }
      ],
      "stateMutability": "view",
      "type": "function"
    },
    {
      "inputs": [],
      "name": "LastBatchCounter",
      "outputs": [
        {
          "internalType": "uint128",
          "name": "",
          "type": "uint128"
        }
      ],
      "stateMutability": "view",
      "type": "function"
    },
    {
      "inputs": [],
      "name": "LastRandomSeed",
      "outputs": [
        {
          "internalType": "uint256",
          "name": "",
          "type": "uint256"
        }
      ],
      "stateMutability": "view",
      "type": "function"
    },
    {
      "inputs": [],
      "name": "MaxPendingDataBatchCount",
      "outputs": [
        {
          "internalType": "uint16",
          "name": "",
          "type": "uint16"
        }
      ],
      "stateMutability": "view",
      "type": "function"
    },
    {
      "inputs": [],
      "name": "MaximumBytesTarget",
      "outputs": [
        {
          "internalType": "uint256",
          "name": "",
          "type": "uint256"
        }
      ],
      "stateMutability": "view",
      "type": "function"
    },
    {
      "inputs": [],
      "name": "NotCommitedCounter",
      "outputs": [
        {
          "internalType": "uint128",
          "name": "",
          "type": "uint128"
        }
      ],
      "stateMutability": "view",
      "type": "function"
    },
    {
      "inputs": [],
      "name": "NotRevealedCounter",
      "outputs": [
        {
          "internalType": "uint128",
          "name": "",
          "type": "uint128"
        }
      ],
      "stateMutability": "view",
      "type": "function"
    },
    {
      "inputs": [],
      "name": "Parameters",
      "outputs": [
        {
          "internalType": "contract IParametersManager",
          "name": "",
          "type": "address"
        }
      ],
      "stateMutability": "view",
      "type": "function"
    },
    {
      "inputs": [],
      "name": "RegisterWorker",
      "outputs": [],
      "stateMutability": "nonpayable",
      "type": "function"
    },
    {
      "inputs": [],
      "name": "RejectedBatchsCounter",
      "outputs": [
        {
          "internalType": "uint128",
          "name": "",
          "type": "uint128"
        }
      ],
      "stateMutability": "view",
      "type": "function"
    },
    {
      "inputs": [],
      "name": "SPOT_FILE_SIZE",
      "outputs": [
        {
          "internalType": "uint16",
          "name": "",
          "type": "uint16"
        }
      ],
      "stateMutability": "view",
      "type": "function"
    },
    {
      "inputs": [],
      "name": "STAKING_REQUIREMENT_TOGGLE_ENABLED",
      "outputs": [
        {
          "internalType": "bool",
          "name": "",
          "type": "bool"
        }
      ],
      "stateMutability": "view",
      "type": "function"
    },
    {
      "inputs": [
        {
          "internalType": "address",
          "name": "_worker",
          "type": "address"
        },
        {
          "internalType": "uint256",
          "name": "_TokensAmountToAllocate",
          "type": "uint256"
        }
      ],
      "name": "SelectAddressForUser",
      "outputs": [
        {
          "internalType": "address",
          "name": "",
          "type": "address"
        }
      ],
      "stateMutability": "view",
      "type": "function"
    },
    {
      "inputs": [
        {
          "internalType": "string[]",
          "name": "file_hashs_",
          "type": "string[]"
        },
        {
          "internalType": "string[]",
          "name": "URL_domains_",
          "type": "string[]"
        },
        {
          "internalType": "uint64[]",
          "name": "item_counts_",
          "type": "uint64[]"
        },
        {
          "internalType": "string",
          "name": "extra_",
          "type": "string"
        }
      ],
      "name": "SpotData",
      "outputs": [
        {
          "internalType": "uint256",
          "name": "Dataid_",
          "type": "uint256"
        }
      ],
      "stateMutability": "nonpayable",
      "type": "function"
    },
    {
      "inputs": [
        {
          "internalType": "uint128",
          "name": "",
          "type": "uint128"
        }
      ],
      "name": "SpotsMapping",
      "outputs": [
        {
          "internalType": "uint64",
          "name": "timestamp",
          "type": "uint64"
        },
        {
          "internalType": "uint64",
          "name": "item_count",
          "type": "uint64"
        },
        {
          "internalType": "enum DataSpotting.DataStatus",
          "name": "status",
          "type": "uint8"
        },
        {
          "internalType": "address",
          "name": "author",
          "type": "address"
        },
        {
          "internalType": "string",
          "name": "ipfs_hash",
          "type": "string"
        },
        {
          "internalType": "string",
          "name": "URL_domain",
          "type": "string"
        },
        {
          "internalType": "string",
          "name": "extra",
          "type": "string"
        }
      ],
      "stateMutability": "view",
      "type": "function"
    },
    {
      "inputs": [
        {
          "internalType": "address",
          "name": "",
          "type": "address"
        }
      ],
      "name": "SystemStakedTokenBalance",
      "outputs": [
        {
          "internalType": "uint256",
          "name": "",
          "type": "uint256"
        }
      ],
      "stateMutability": "view",
      "type": "function"
    },
    {
      "inputs": [],
      "name": "TRIGGER_WITH_SPOTDATA_TOGGLE_ENABLED",
      "outputs": [
        {
          "internalType": "bool",
          "name": "",
          "type": "bool"
        }
      ],
      "stateMutability": "view",
      "type": "function"
    },
    {
      "inputs": [
        {
          "internalType": "uint128",
          "name": "iteration_count",
          "type": "uint128"
        }
      ],
      "name": "TriggerAllocations",
      "outputs": [],
      "stateMutability": "nonpayable",
      "type": "function"
    },
    {
      "inputs": [
        {
          "internalType": "uint128",
          "name": "iteration_count",
          "type": "uint128"
        }
      ],
      "name": "TriggerDeletion",
      "outputs": [],
      "stateMutability": "nonpayable",
      "type": "function"
    },
    {
      "inputs": [
        {
          "internalType": "uint128",
          "name": "iteration_count",
          "type": "uint128"
        }
      ],
      "name": "TriggerUpdate",
      "outputs": [],
      "stateMutability": "nonpayable",
      "type": "function"
    },
    {
      "inputs": [
        {
          "internalType": "uint128",
          "name": "iteration_count",
          "type": "uint128"
        }
      ],
      "name": "TriggerValidation",
      "outputs": [],
      "stateMutability": "nonpayable",
      "type": "function"
    },
    {
      "inputs": [],
      "name": "UnregisterWorker",
      "outputs": [],
      "stateMutability": "nonpayable",
      "type": "function"
    },
    {
      "inputs": [
        {
          "internalType": "uint128",
          "name": "",
          "type": "uint128"
        },
        {
          "internalType": "address",
          "name": "",
          "type": "address"
        }
      ],
      "name": "UserVoteSubmission",
      "outputs": [
        {
          "internalType": "bool",
          "name": "commited",
          "type": "bool"
        },
        {
          "internalType": "bool",
          "name": "revealed",
          "type": "bool"
        },
        {
          "internalType": "uint8",
          "name": "vote",
          "type": "uint8"
        },
        {
          "internalType": "uint32",
          "name": "batchCount",
          "type": "uint32"
        },
        {
          "internalType": "string",
          "name": "newFile",
          "type": "string"
        },
        {
          "internalType": "string",
          "name": "batchFrom",
          "type": "string"
        }
      ],
      "stateMutability": "view",
      "type": "function"
    },
    {
      "inputs": [],
      "name": "VALIDATE_ON_LAST_REVEAL",
      "outputs": [
        {
          "internalType": "bool",
          "name": "",
          "type": "bool"
        }
      ],
      "stateMutability": "view",
      "type": "function"
    },
    {
      "inputs": [
        {
          "internalType": "uint128",
          "name": "",
          "type": "uint128"
        },
        {
          "internalType": "uint256",
          "name": "",
          "type": "uint256"
        }
      ],
      "name": "WorkersPerBatch",
      "outputs": [
        {
          "internalType": "address",
          "name": "",
          "type": "address"
        }
      ],
      "stateMutability": "view",
      "type": "function"
    },
    {
      "inputs": [
        {
          "internalType": "address",
          "name": "",
          "type": "address"
        },
        {
          "internalType": "uint256",
          "name": "",
          "type": "uint256"
        }
      ],
      "name": "WorkersSpotFlowManager",
      "outputs": [
        {
          "internalType": "uint128",
          "name": "timestamp",
          "type": "uint128"
        },
        {
          "internalType": "uint128",
          "name": "counter",
          "type": "uint128"
        }
      ],
      "stateMutability": "view",
      "type": "function"
    },
    {
      "inputs": [
        {
          "internalType": "address",
          "name": "",
          "type": "address"
        }
      ],
      "name": "WorkersState",
      "outputs": [
        {
          "internalType": "uint128",
          "name": "allocated_work_batch",
          "type": "uint128"
        },
        {
          "internalType": "uint64",
          "name": "last_interaction_date",
          "type": "uint64"
        },
        {
          "internalType": "uint16",
          "name": "succeeding_novote_count",
          "type": "uint16"
        },
        {
          "internalType": "bool",
          "name": "registered",
          "type": "bool"
        },
        {
          "internalType": "bool",
          "name": "unregistration_request",
          "type": "bool"
        },
        {
          "internalType": "bool",
          "name": "isWorkerSeen",
          "type": "bool"
        },
        {
          "internalType": "uint64",
          "name": "registration_date",
          "type": "uint64"
        },
        {
          "internalType": "uint64",
          "name": "allocated_batch_counter",
          "type": "uint64"
        },
        {
          "internalType": "uint64",
          "name": "majority_counter",
          "type": "uint64"
        },
        {
          "internalType": "uint64",
          "name": "minority_counter",
          "type": "uint64"
        }
      ],
      "stateMutability": "view",
      "type": "function"
    },
    {
      "inputs": [
        {
          "internalType": "address",
          "name": "",
          "type": "address"
        }
      ],
      "name": "WorkersStatus",
      "outputs": [
        {
          "internalType": "bool",
          "name": "isAvailableWorker",
          "type": "bool"
        },
        {
          "internalType": "bool",
          "name": "isBusyWorker",
          "type": "bool"
        },
        {
          "internalType": "bool",
          "name": "isToUnregisterWorker",
          "type": "bool"
        },
        {
          "internalType": "uint32",
          "name": "availableWorkersIndex",
          "type": "uint32"
        },
        {
          "internalType": "uint32",
          "name": "busyWorkersIndex",
          "type": "uint32"
        },
        {
          "internalType": "uint32",
          "name": "toUnregisterWorkersIndex",
          "type": "uint32"
        }
      ],
      "stateMutability": "view",
      "type": "function"
    },
    {
      "inputs": [
        {
          "internalType": "uint128",
          "name": "startIdx",
          "type": "uint128"
        },
        {
          "internalType": "uint128",
          "name": "iteration_count",
          "type": "uint128"
        }
      ],
      "name": "adminDataDelete",
      "outputs": [],
      "stateMutability": "nonpayable",
      "type": "function"
    },
    {
      "inputs": [
        {
          "internalType": "address",
          "name": "user_",
          "type": "address"
        },
        {
          "internalType": "uint128",
          "name": "_DataBatchId",
          "type": "uint128"
        }
      ],
      "name": "attrUUID",
      "outputs": [
        {
          "internalType": "bytes32",
          "name": "UUID",
          "type": "bytes32"
        }
      ],
      "stateMutability": "pure",
      "type": "function"
    },
    {
      "inputs": [
        {
          "internalType": "uint256",
          "name": "",
          "type": "uint256"
        }
      ],
      "name": "availableWorkers",
      "outputs": [
        {
          "internalType": "address",
          "name": "",
          "type": "address"
        }
      ],
      "stateMutability": "view",
      "type": "function"
    },
    {
      "inputs": [
        {
          "internalType": "uint256",
          "name": "",
          "type": "uint256"
        }
      ],
      "name": "busyWorkers",
      "outputs": [
        {
          "internalType": "address",
          "name": "",
          "type": "address"
        }
      ],
      "stateMutability": "view",
      "type": "function"
    },
    {
      "inputs": [
        {
          "internalType": "uint128",
          "name": "_DataBatchId",
          "type": "uint128"
        }
      ],
      "name": "commitPeriodActive",
      "outputs": [
        {
          "internalType": "bool",
          "name": "active",
          "type": "bool"
        }
      ],
      "stateMutability": "view",
      "type": "function"
    },
    {
      "inputs": [
        {
          "internalType": "uint128",
          "name": "_DataBatchId",
          "type": "uint128"
        }
      ],
      "name": "commitPeriodOver",
      "outputs": [
        {
          "internalType": "bool",
          "name": "active",
          "type": "bool"
        }
      ],
      "stateMutability": "view",
      "type": "function"
    },
    {
      "inputs": [
        {
          "internalType": "uint128",
          "name": "_DataBatchId",
          "type": "uint128"
        },
        {
          "internalType": "bytes32",
          "name": "_encryptedHash",
          "type": "bytes32"
        },
        {
          "internalType": "bytes32",
          "name": "_encryptedVote",
          "type": "bytes32"
        },
        {
          "internalType": "uint32",
          "name": "_BatchCount",
          "type": "uint32"
        },
        {
          "internalType": "string",
          "name": "_From",
          "type": "string"
        }
      ],
      "name": "commitSpotCheck",
      "outputs": [],
      "stateMutability": "nonpayable",
      "type": "function"
    },
    {
      "inputs": [],
      "name": "deleteAllWorkersArray",
      "outputs": [],
      "stateMutability": "nonpayable",
      "type": "function"
    },
    {
      "inputs": [],
      "name": "deleteAvailableWorkersArray",
      "outputs": [],
      "stateMutability": "nonpayable",
      "type": "function"
    },
    {
      "inputs": [
        {
          "internalType": "address[]",
          "name": "users_",
          "type": "address[]"
        }
      ],
      "name": "deleteManyWorkersState",
      "outputs": [],
      "stateMutability": "nonpayable",
      "type": "function"
    },
    {
      "inputs": [
        {
          "internalType": "address[]",
          "name": "users_",
          "type": "address[]"
        }
      ],
      "name": "deleteManyWorkersStatus",
      "outputs": [],
      "stateMutability": "nonpayable",
      "type": "function"
    },
    {
      "inputs": [
        {
          "internalType": "uint128",
          "name": "spotIndexA",
          "type": "uint128"
        },
        {
          "internalType": "uint128",
          "name": "spotIndexB",
          "type": "uint128"
        }
      ],
      "name": "deleteSpotData",
      "outputs": [],
      "stateMutability": "nonpayable",
      "type": "function"
    },
    {
      "inputs": [
        {
          "internalType": "address",
          "name": "user_",
          "type": "address"
        }
      ],
      "name": "deleteWorkersState",
      "outputs": [],
      "stateMutability": "nonpayable",
      "type": "function"
    },
    {
      "inputs": [
        {
          "internalType": "address",
          "name": "user_",
          "type": "address"
        }
      ],
      "name": "deleteWorkersStatus",
      "outputs": [],
      "stateMutability": "nonpayable",
      "type": "function"
    },
    {
      "inputs": [
        {
          "internalType": "uint128",
          "name": "batchToDeleteIndex",
          "type": "uint128"
        }
      ],
      "name": "deleteWorkersSubmission",
      "outputs": [],
      "stateMutability": "nonpayable",
      "type": "function"
    },
    {
      "inputs": [
        {
          "internalType": "address",
          "name": "_voter",
          "type": "address"
        },
        {
          "internalType": "uint128",
          "name": "_DataBatchId",
          "type": "uint128"
        }
      ],
      "name": "didCommit",
      "outputs": [
        {
          "internalType": "bool",
          "name": "committed",
          "type": "bool"
        }
      ],
      "stateMutability": "view",
      "type": "function"
    },
    {
      "inputs": [
        {
          "internalType": "address",
          "name": "_voter",
          "type": "address"
        },
        {
          "internalType": "uint128",
          "name": "_DataBatchId",
          "type": "uint128"
        }
      ],
      "name": "didReveal",
      "outputs": [
        {
          "internalType": "bool",
          "name": "revealed",
          "type": "bool"
        }
      ],
      "stateMutability": "view",
      "type": "function"
    },
    {
      "inputs": [
        {
          "internalType": "uint256",
          "name": "_k",
          "type": "uint256"
        },
        {
          "internalType": "uint256",
          "name": "N_range",
          "type": "uint256"
        }
      ],
      "name": "generateIntegers",
      "outputs": [
        {
          "internalType": "uint256[]",
          "name": "",
          "type": "uint256[]"
        }
      ],
      "stateMutability": "view",
      "type": "function"
    },
    {
      "inputs": [],
      "name": "getAcceptedBatchesCount",
      "outputs": [
        {
          "internalType": "uint128",
          "name": "count",
          "type": "uint128"
        }
      ],
      "stateMutability": "view",
      "type": "function"
    },
    {
      "inputs": [],
      "name": "getActiveWorkersCount",
      "outputs": [
        {
          "internalType": "uint256",
          "name": "numWorkers",
          "type": "uint256"
        }
      ],
      "stateMutability": "view",
      "type": "function"
    },
    {
      "inputs": [
        {
          "internalType": "uint256",
          "name": "A_",
          "type": "uint256"
        },
        {
          "internalType": "uint256",
          "name": "B_",
          "type": "uint256"
        }
      ],
      "name": "getAllWorkersBetweenIndex",
      "outputs": [
        {
          "internalType": "address[]",
          "name": "workers",
          "type": "address[]"
        }
      ],
      "stateMutability": "view",
      "type": "function"
    },
    {
      "inputs": [],
      "name": "getAllWorkersLength",
      "outputs": [
        {
          "internalType": "uint256",
          "name": "length",
          "type": "uint256"
        }
      ],
      "stateMutability": "view",
      "type": "function"
    },
    {
      "inputs": [
        {
          "internalType": "bytes32",
          "name": "_UUID",
          "type": "bytes32"
        },
        {
          "internalType": "string",
          "name": "_attrName",
          "type": "string"
        }
      ],
      "name": "getAttribute",
      "outputs": [
        {
          "internalType": "uint256",
          "name": "",
          "type": "uint256"
        }
      ],
      "stateMutability": "view",
      "type": "function"
    },
    {
      "inputs": [],
      "name": "getAvailableWorkersCount",
      "outputs": [
        {
          "internalType": "uint256",
          "name": "numWorkers",
          "type": "uint256"
        }
      ],
      "stateMutability": "view",
      "type": "function"
    },
    {
      "inputs": [
        {
          "internalType": "uint128",
          "name": "_DataBatchId",
          "type": "uint128"
        }
      ],
      "name": "getBatchByID",
      "outputs": [
        {
          "components": [
            {
              "internalType": "uint128",
              "name": "start_idx",
              "type": "uint128"
            },
            {
              "internalType": "uint32",
              "name": "counter",
              "type": "uint32"
            },
            {
              "internalType": "uint32",
              "name": "item_count",
              "type": "uint32"
            },
            {
              "internalType": "uint16",
              "name": "uncommited_workers",
              "type": "uint16"
            },
            {
              "internalType": "uint16",
              "name": "unrevealed_workers",
              "type": "uint16"
            },
            {
              "internalType": "bool",
              "name": "complete",
              "type": "bool"
            },
            {
              "internalType": "bool",
              "name": "checked",
              "type": "bool"
            },
            {
              "internalType": "bool",
              "name": "allocated_to_work",
              "type": "bool"
            },
            {
              "internalType": "uint16",
              "name": "votesFor",
              "type": "uint16"
            },
            {
              "internalType": "uint16",
              "name": "votesAgainst",
              "type": "uint16"
            },
            {
              "internalType": "uint64",
              "name": "commitEndDate",
              "type": "uint64"
            },
            {
              "internalType": "uint64",
              "name": "revealEndDate",
              "type": "uint64"
            },
            {
              "internalType": "string",
              "name": "batchIPFSfile",
              "type": "string"
            },
            {
              "internalType": "enum DataSpotting.DataStatus",
              "name": "status",
              "type": "uint8"
            }
          ],
          "internalType": "struct DataSpotting.BatchMetadata",
          "name": "batch",
          "type": "tuple"
        }
      ],
      "stateMutability": "view",
      "type": "function"
    },
    {
      "inputs": [
        {
          "internalType": "uint128",
          "name": "_DataBatchId_a",
          "type": "uint128"
        },
        {
          "internalType": "uint128",
          "name": "_DataBatchId_b",
          "type": "uint128"
        }
      ],
      "name": "getBatchCountForBatch",
      "outputs": [
        {
          "internalType": "uint128",
          "name": "AverageURLCount",
          "type": "uint128"
        },
        {
          "internalType": "uint128[]",
          "name": "batchCounts",
          "type": "uint128[]"
        }
      ],
      "stateMutability": "view",
      "type": "function"
    },
    {
      "inputs": [
        {
          "internalType": "uint128",
          "name": "_DataBatchId",
          "type": "uint128"
        }
      ],
      "name": "getBatchIPFSFileByID",
      "outputs": [
        {
          "internalType": "string",
          "name": "batch",
          "type": "string"
        }
      ],
      "stateMutability": "view",
      "type": "function"
    },
    {
      "inputs": [
        {
          "internalType": "uint128",
          "name": "_DataBatchId_a",
          "type": "uint128"
        },
        {
          "internalType": "uint128",
          "name": "_DataBatchId_b",
          "type": "uint128"
        }
      ],
      "name": "getBatchsFilesByID",
      "outputs": [
        {
          "internalType": "string[]",
          "name": "",
          "type": "string[]"
        }
      ],
      "stateMutability": "view",
      "type": "function"
    },
    {
      "inputs": [],
      "name": "getBusyWorkersCount",
      "outputs": [
        {
          "internalType": "uint256",
          "name": "numWorkers",
          "type": "uint256"
        }
      ],
      "stateMutability": "view",
      "type": "function"
    },
    {
      "inputs": [],
      "name": "getBytesUsed",
      "outputs": [
        {
          "internalType": "uint256",
          "name": "storage_size",
          "type": "uint256"
        }
      ],
      "stateMutability": "view",
      "type": "function"
    },
    {
      "inputs": [
        {
          "internalType": "address",
          "name": "_voter",
          "type": "address"
        },
        {
          "internalType": "uint128",
          "name": "_DataBatchId",
          "type": "uint128"
        }
      ],
      "name": "getCommitIPFSHash",
      "outputs": [
        {
          "internalType": "bytes32",
          "name": "commitHash",
          "type": "bytes32"
        }
      ],
      "stateMutability": "view",
      "type": "function"
    },
    {
      "inputs": [
        {
          "internalType": "address",
          "name": "_voter",
          "type": "address"
        },
        {
          "internalType": "uint128",
          "name": "_DataBatchId",
          "type": "uint128"
        }
      ],
      "name": "getCommitVoteHash",
      "outputs": [
        {
          "internalType": "bytes32",
          "name": "commitHash",
          "type": "bytes32"
        }
      ],
      "stateMutability": "view",
      "type": "function"
    },
    {
      "inputs": [
        {
          "internalType": "uint128",
          "name": "_DataId",
          "type": "uint128"
        }
      ],
      "name": "getDataByID",
      "outputs": [
        {
          "components": [
            {
              "internalType": "uint64",
              "name": "timestamp",
              "type": "uint64"
            },
            {
              "internalType": "uint64",
              "name": "item_count",
              "type": "uint64"
            },
            {
              "internalType": "enum DataSpotting.DataStatus",
              "name": "status",
              "type": "uint8"
            },
            {
              "internalType": "address",
              "name": "author",
              "type": "address"
            },
            {
              "internalType": "string",
              "name": "ipfs_hash",
              "type": "string"
            },
            {
              "internalType": "string",
              "name": "URL_domain",
              "type": "string"
            },
            {
              "internalType": "string",
              "name": "extra",
              "type": "string"
            }
          ],
          "internalType": "struct DataSpotting.SpottedData",
          "name": "data",
          "type": "tuple"
        }
      ],
      "stateMutability": "view",
      "type": "function"
    },
    {
      "inputs": [
        {
          "internalType": "uint128",
          "name": "_DataBatchId",
          "type": "uint128"
        }
      ],
      "name": "getDomainsForBatch",
      "outputs": [
        {
          "internalType": "string[]",
          "name": "",
          "type": "string[]"
        }
      ],
      "stateMutability": "view",
      "type": "function"
    },
    {
      "inputs": [
        {
          "internalType": "uint256",
          "name": "_clearVote",
          "type": "uint256"
        },
        {
          "internalType": "uint256",
          "name": "_salt",
          "type": "uint256"
        }
      ],
      "name": "getEncryptedHash",
      "outputs": [
        {
          "internalType": "bytes32",
          "name": "keccak256hash",
          "type": "bytes32"
        }
      ],
      "stateMutability": "pure",
      "type": "function"
    },
    {
      "inputs": [
        {
          "internalType": "string",
          "name": "_hash",
          "type": "string"
        },
        {
          "internalType": "uint256",
          "name": "_salt",
          "type": "uint256"
        }
      ],
      "name": "getEncryptedStringHash",
      "outputs": [
        {
          "internalType": "bytes32",
          "name": "keccak256hash",
          "type": "bytes32"
        }
      ],
      "stateMutability": "pure",
      "type": "function"
    },
    {
      "inputs": [
        {
          "internalType": "uint128",
          "name": "_DataBatchId",
          "type": "uint128"
        }
      ],
      "name": "getFromsForBatch",
      "outputs": [
        {
          "internalType": "string[]",
          "name": "",
          "type": "string[]"
        }
      ],
      "stateMutability": "view",
      "type": "function"
    },
    {
      "inputs": [],
      "name": "getGlobalPeriodSpotCount",
      "outputs": [
        {
          "internalType": "uint256",
          "name": "",
          "type": "uint256"
        }
      ],
      "stateMutability": "view",
      "type": "function"
    },
    {
      "inputs": [
        {
          "internalType": "uint128",
          "name": "_DataBatchId",
          "type": "uint128"
        }
      ],
      "name": "getIPFShashesForBatch",
      "outputs": [
        {
          "internalType": "string[]",
          "name": "",
          "type": "string[]"
        }
      ],
      "stateMutability": "view",
      "type": "function"
    },
    {
      "inputs": [
        {
          "internalType": "address",
          "name": "_voter",
          "type": "address"
        },
        {
          "internalType": "uint256",
          "name": "_numTokens",
          "type": "uint256"
        },
        {
          "internalType": "uint128",
          "name": "_DataBatchId",
          "type": "uint128"
        }
      ],
      "name": "getInsertPointForNumTokens",
      "outputs": [
        {
          "internalType": "uint256",
          "name": "prevNode",
          "type": "uint256"
        }
      ],
      "stateMutability": "view",
      "type": "function"
    },
    {
      "inputs": [],
      "name": "getItemCounter",
      "outputs": [
        {
          "internalType": "uint256",
          "name": "Counter",
          "type": "uint256"
        }
      ],
      "stateMutability": "view",
      "type": "function"
    },
    {
      "inputs": [],
      "name": "getLastAllocatedBatchId",
      "outputs": [
        {
          "internalType": "uint256",
          "name": "LastAllocatedBatchId",
          "type": "uint256"
        }
      ],
      "stateMutability": "view",
      "type": "function"
    },
    {
      "inputs": [],
      "name": "getLastBatchId",
      "outputs": [
        {
          "internalType": "uint256",
          "name": "LastBatchId",
          "type": "uint256"
        }
      ],
      "stateMutability": "view",
      "type": "function"
    },
    {
      "inputs": [],
      "name": "getLastCheckedBatchId",
      "outputs": [
        {
          "internalType": "uint256",
          "name": "LastCheckedBatchId",
          "type": "uint256"
        }
      ],
      "stateMutability": "view",
      "type": "function"
    },
    {
      "inputs": [],
      "name": "getLastDataId",
      "outputs": [
        {
          "internalType": "uint256",
          "name": "DataId",
          "type": "uint256"
        }
      ],
      "stateMutability": "view",
      "type": "function"
    },
    {
      "inputs": [
        {
          "internalType": "address",
          "name": "_voter",
          "type": "address"
        }
      ],
      "name": "getLastNode",
      "outputs": [
        {
          "internalType": "uint128",
          "name": "DataID",
          "type": "uint128"
        }
      ],
      "stateMutability": "view",
      "type": "function"
    },
    {
      "inputs": [
        {
          "internalType": "address",
          "name": "_voter",
          "type": "address"
        }
      ],
      "name": "getLockedTokens",
      "outputs": [
        {
          "internalType": "uint256",
          "name": "numTokens",
          "type": "uint256"
        }
      ],
      "stateMutability": "view",
      "type": "function"
    },
    {
      "inputs": [
        {
          "internalType": "uint128",
          "name": "_DataBatchId_a",
          "type": "uint128"
        },
        {
          "internalType": "uint128",
          "name": "_DataBatchId_b",
          "type": "uint128"
        }
      ],
      "name": "getMultiBatchIPFShashes",
      "outputs": [
        {
          "internalType": "string[]",
          "name": "",
          "type": "string[]"
        }
      ],
      "stateMutability": "view",
      "type": "function"
    },
    {
      "inputs": [
        {
          "internalType": "address",
          "name": "_voter",
          "type": "address"
        },
        {
          "internalType": "uint128",
          "name": "_DataBatchId",
          "type": "uint128"
        },
        {
          "internalType": "uint256",
          "name": "_salt",
          "type": "uint256"
        }
      ],
      "name": "getNumPassingTokens",
      "outputs": [
        {
          "internalType": "uint256",
          "name": "numTokens",
          "type": "uint256"
        }
      ],
      "stateMutability": "view",
      "type": "function"
    },
    {
      "inputs": [
        {
          "internalType": "address",
          "name": "_voter",
          "type": "address"
        },
        {
          "internalType": "uint128",
          "name": "_DataBatchId",
          "type": "uint128"
        }
      ],
      "name": "getNumTokens",
      "outputs": [
        {
          "internalType": "uint256",
          "name": "numTokens",
          "type": "uint256"
        }
      ],
      "stateMutability": "view",
      "type": "function"
    },
    {
      "inputs": [],
      "name": "getPeriodItemCount",
      "outputs": [
        {
          "internalType": "uint256",
          "name": "",
          "type": "uint256"
        }
      ],
      "stateMutability": "view",
      "type": "function"
    },
    {
      "inputs": [],
      "name": "getRandom",
      "outputs": [
        {
          "internalType": "uint256",
          "name": "",
          "type": "uint256"
        }
      ],
      "stateMutability": "view",
      "type": "function"
    },
    {
      "inputs": [],
      "name": "getRejectedBatchesCount",
      "outputs": [
        {
          "internalType": "uint128",
          "name": "count",
          "type": "uint128"
        }
      ],
      "stateMutability": "view",
      "type": "function"
    },
    {
      "inputs": [],
      "name": "getSeed",
      "outputs": [
        {
          "internalType": "bytes32",
          "name": "addr",
          "type": "bytes32"
        }
      ],
      "stateMutability": "view",
      "type": "function"
    },
    {
      "inputs": [
        {
          "internalType": "uint128",
          "name": "_DataBatchId",
          "type": "uint128"
        }
      ],
      "name": "getSubmittedFilesForBatch",
      "outputs": [
        {
          "internalType": "string[]",
          "name": "",
          "type": "string[]"
        }
      ],
      "stateMutability": "view",
      "type": "function"
    },
    {
      "inputs": [
        {
          "internalType": "address",
          "name": "user_",
          "type": "address"
        }
      ],
      "name": "getSystemTokenBalance",
      "outputs": [
        {
          "internalType": "uint256",
          "name": "tokens",
          "type": "uint256"
        }
      ],
      "stateMutability": "view",
      "type": "function"
    },
    {
      "inputs": [],
      "name": "getTxCounter",
      "outputs": [
        {
          "internalType": "uint256",
          "name": "Counter",
          "type": "uint256"
        }
      ],
      "stateMutability": "view",
      "type": "function"
    },
    {
      "inputs": [
        {
          "internalType": "address",
          "name": "user_",
          "type": "address"
        }
      ],
      "name": "getUserPeriodSpotCount",
      "outputs": [
        {
          "internalType": "uint256",
          "name": "",
          "type": "uint256"
        }
      ],
      "stateMutability": "view",
      "type": "function"
    },
    {
      "inputs": [
        {
          "internalType": "uint128",
          "name": "_DataBatchId",
          "type": "uint128"
        }
      ],
      "name": "getVotesForBatch",
      "outputs": [
        {
          "internalType": "uint128[]",
          "name": "",
          "type": "uint128[]"
        }
      ],
      "stateMutability": "view",
      "type": "function"
    },
    {
      "inputs": [
        {
          "internalType": "uint256",
          "name": "_terminationDate",
          "type": "uint256"
        }
      ],
      "name": "isExpired",
      "outputs": [
        {
          "internalType": "bool",
          "name": "expired",
          "type": "bool"
        }
      ],
      "stateMutability": "view",
      "type": "function"
    },
    {
      "inputs": [
        {
          "internalType": "address",
          "name": "_worker",
          "type": "address"
        }
      ],
      "name": "isInAvailableWorkers",
      "outputs": [
        {
          "internalType": "bool",
          "name": "",
          "type": "bool"
        }
      ],
      "stateMutability": "view",
      "type": "function"
    },
    {
      "inputs": [
        {
          "internalType": "address",
          "name": "_worker",
          "type": "address"
        }
      ],
      "name": "isInBusyWorkers",
      "outputs": [
        {
          "internalType": "bool",
          "name": "",
          "type": "bool"
        }
      ],
      "stateMutability": "view",
      "type": "function"
    },
    {
      "inputs": [
        {
          "internalType": "uint128",
          "name": "_DataBatchId",
          "type": "uint128"
        }
      ],
      "name": "isPassed",
      "outputs": [
        {
          "internalType": "bool",
          "name": "passed",
          "type": "bool"
        }
      ],
      "stateMutability": "view",
      "type": "function"
    },
    {
      "inputs": [
        {
          "internalType": "uint128",
          "name": "_DataBatchId",
          "type": "uint128"
        },
        {
          "internalType": "address",
          "name": "_worker",
          "type": "address"
        }
      ],
      "name": "isWorkerAllocatedToBatch",
      "outputs": [
        {
          "internalType": "bool",
          "name": "",
          "type": "bool"
        }
      ],
      "stateMutability": "view",
      "type": "function"
    },
    {
      "inputs": [
        {
          "internalType": "address",
          "name": "_worker",
          "type": "address"
        }
      ],
      "name": "isWorkerRegistered",
      "outputs": [
        {
          "internalType": "bool",
          "name": "passed",
          "type": "bool"
        }
      ],
      "stateMutability": "view",
      "type": "function"
    },
    {
      "inputs": [],
      "name": "owner",
      "outputs": [
        {
          "internalType": "address",
          "name": "",
          "type": "address"
        }
      ],
      "stateMutability": "view",
      "type": "function"
    },
    {
      "inputs": [],
      "name": "paused",
      "outputs": [
        {
          "internalType": "bool",
          "name": "",
          "type": "bool"
        }
      ],
      "stateMutability": "view",
      "type": "function"
    },
    {
      "inputs": [
        {
          "internalType": "uint256",
          "name": "k",
          "type": "uint256"
        },
        {
          "internalType": "uint256",
          "name": "N",
          "type": "uint256"
        }
      ],
      "name": "random_selection",
      "outputs": [
        {
          "internalType": "uint256[]",
          "name": "",
          "type": "uint256[]"
        }
      ],
      "stateMutability": "view",
      "type": "function"
    },
    {
      "inputs": [
        {
          "internalType": "uint128",
          "name": "_DataBatchId",
          "type": "uint128"
        }
      ],
      "name": "remainingCommitDuration",
      "outputs": [
        {
          "internalType": "uint256",
          "name": "remainingTime",
          "type": "uint256"
        }
      ],
      "stateMutability": "view",
      "type": "function"
    },
    {
      "inputs": [
        {
          "internalType": "uint128",
          "name": "_DataBatchId",
          "type": "uint128"
        }
      ],
      "name": "remainingRevealDuration",
      "outputs": [
        {
          "internalType": "uint256",
          "name": "remainingTime",
          "type": "uint256"
        }
      ],
      "stateMutability": "view",
      "type": "function"
    },
    {
      "inputs": [],
      "name": "renounceOwnership",
      "outputs": [],
      "stateMutability": "nonpayable",
      "type": "function"
    },
    {
      "inputs": [
        {
          "internalType": "uint128",
          "name": "_DataBatchId",
          "type": "uint128"
        }
      ],
      "name": "rescueTokens",
      "outputs": [],
      "stateMutability": "nonpayable",
      "type": "function"
    },
    {
      "inputs": [
        {
          "internalType": "uint128[]",
          "name": "_DataBatchIDs",
          "type": "uint128[]"
        }
      ],
      "name": "rescueTokensInMultipleDatas",
      "outputs": [],
      "stateMutability": "nonpayable",
      "type": "function"
    },
    {
      "inputs": [
        {
          "internalType": "uint128",
          "name": "_DataBatchId",
          "type": "uint128"
        }
      ],
      "name": "revealPeriodActive",
      "outputs": [
        {
          "internalType": "bool",
          "name": "active",
          "type": "bool"
        }
      ],
      "stateMutability": "view",
      "type": "function"
    },
    {
      "inputs": [
        {
          "internalType": "uint128",
          "name": "_DataBatchId",
          "type": "uint128"
        }
      ],
      "name": "revealPeriodOver",
      "outputs": [
        {
          "internalType": "bool",
          "name": "active",
          "type": "bool"
        }
      ],
      "stateMutability": "view",
      "type": "function"
    },
    {
      "inputs": [
        {
          "internalType": "uint64",
          "name": "_DataBatchId",
          "type": "uint64"
        },
        {
          "internalType": "string",
          "name": "_clearIPFSHash",
          "type": "string"
        },
        {
          "internalType": "uint8",
          "name": "_clearVote",
          "type": "uint8"
        },
        {
          "internalType": "uint256",
          "name": "_salt",
          "type": "uint256"
        }
      ],
      "name": "revealSpotCheck",
      "outputs": [],
      "stateMutability": "nonpayable",
      "type": "function"
    },
    {
      "inputs": [
        {
          "internalType": "uint256",
          "name": "",
          "type": "uint256"
        }
      ],
      "name": "toUnregisterWorkers",
      "outputs": [
        {
          "internalType": "address",
          "name": "",
          "type": "address"
        }
      ],
      "stateMutability": "view",
      "type": "function"
    },
    {
      "inputs": [
        {
          "internalType": "bool",
          "name": "toggle_",
          "type": "bool"
        }
      ],
      "name": "toggleForceValidateBatchFile",
      "outputs": [],
      "stateMutability": "nonpayable",
      "type": "function"
    },
    {
      "inputs": [
        {
          "internalType": "bool",
          "name": "toggle_",
          "type": "bool"
        }
      ],
      "name": "toggleRequiredStaking",
      "outputs": [],
      "stateMutability": "nonpayable",
      "type": "function"
    },
    {
      "inputs": [],
      "name": "toggleSystemPause",
      "outputs": [],
      "stateMutability": "nonpayable",
      "type": "function"
    },
    {
      "inputs": [
        {
          "internalType": "bool",
          "name": "toggle_",
          "type": "bool"
        }
      ],
      "name": "toggleTriggerSpotData",
      "outputs": [],
      "stateMutability": "nonpayable",
      "type": "function"
    },
    {
      "inputs": [
        {
          "internalType": "bool",
          "name": "toggle_",
          "type": "bool"
        }
      ],
      "name": "toggleValidateLastReveal",
      "outputs": [],
      "stateMutability": "nonpayable",
      "type": "function"
    },
    {
      "inputs": [],
      "name": "token",
      "outputs": [
        {
          "internalType": "contract IERC20",
          "name": "",
          "type": "address"
        }
      ],
      "stateMutability": "view",
      "type": "function"
    },
    {
      "inputs": [
        {
          "internalType": "address",
          "name": "newOwner",
          "type": "address"
        }
      ],
      "name": "transferOwnership",
      "outputs": [],
      "stateMutability": "nonpayable",
      "type": "function"
    },
    {
      "inputs": [],
      "name": "updateGlobalSpotFlow",
      "outputs": [],
      "stateMutability": "nonpayable",
      "type": "function"
    },
    {
      "inputs": [
        {
          "internalType": "bool",
          "name": "state_",
          "type": "bool"
        },
        {
          "internalType": "uint16",
          "name": "divider_",
          "type": "uint16"
        }
      ],
      "name": "updateInstantRevealRewards",
      "outputs": [],
      "stateMutability": "nonpayable",
      "type": "function"
    },
    {
      "inputs": [
        {
          "internalType": "bool",
          "name": "state_",
          "type": "bool"
        },
        {
          "internalType": "uint16",
          "name": "divider_",
          "type": "uint16"
        }
      ],
      "name": "updateInstantSpotRewards",
      "outputs": [],
      "stateMutability": "nonpayable",
      "type": "function"
    },
    {
      "inputs": [],
      "name": "updateItemCount",
      "outputs": [],
      "stateMutability": "nonpayable",
      "type": "function"
    },
    {
      "inputs": [
        {
          "internalType": "uint16",
          "name": "MaxPendingDataBatchCount_",
          "type": "uint16"
        }
      ],
      "name": "updateMaxPendingDataBatch",
      "outputs": [],
      "stateMutability": "nonpayable",
      "type": "function"
    },
    {
      "inputs": [
        {
          "internalType": "uint16",
          "name": "new_limit_",
          "type": "uint16"
        }
      ],
      "name": "updateMaximumBytesTarget",
      "outputs": [],
      "stateMutability": "nonpayable",
      "type": "function"
    },
    {
      "inputs": [
        {
          "internalType": "address",
          "name": "addr",
          "type": "address"
        }
      ],
      "name": "updateParametersManager",
      "outputs": [],
      "stateMutability": "nonpayable",
      "type": "function"
    },
    {
      "inputs": [
        {
          "internalType": "uint16",
          "name": "file_size_",
          "type": "uint16"
        }
      ],
      "name": "updateSpotFileSize",
      "outputs": [],
      "stateMutability": "nonpayable",
      "type": "function"
    },
    {
      "inputs": [
        {
          "internalType": "address",
          "name": "user_",
          "type": "address"
        }
      ],
      "name": "updateUserSpotFlow",
      "outputs": [],
      "stateMutability": "nonpayable",
      "type": "function"
    },
    {
      "inputs": [
        {
          "internalType": "uint128",
          "name": "_prevID",
          "type": "uint128"
        },
        {
          "internalType": "uint128",
          "name": "_nextID",
          "type": "uint128"
        },
        {
          "internalType": "address",
          "name": "_voter",
          "type": "address"
        },
        {
          "internalType": "uint256",
          "name": "_numTokens",
          "type": "uint256"
        }
      ],
      "name": "validPosition",
      "outputs": [
        {
          "internalType": "bool",
          "name": "APPROVED",
          "type": "bool"
        }
      ],
      "stateMutability": "view",
      "type": "function"
    },
    {
      "inputs": [
        {
          "internalType": "uint256",
          "name": "_numTokens",
          "type": "uint256"
        }
      ],
      "name": "withdrawVotingRights",
      "outputs": [],
      "stateMutability": "nonpayable",
      "type": "function"
    }
  ],
  "bytecode": "0x608060405260008054600160a81b600160e81b0319168155600160801b602f5570010000000000000000000000000000000160305560016031556032819055603380546001600160801b0319169055603481905560358190556036556101946037556305f5e100603855603980546c6403e8000200050101010000006001600160701b0319909116179055603b805463ffffffff60a01b191663ffffffff60a01b179055348015620000b057600080fd5b506040516200f6183803806200f618833981016040819052620000d39162000175565b620000de3362000125565b6000805460ff60a01b191690556001600160a01b038116620000ff57600080fd5b603a80546001600160a01b0319166001600160a01b0392909216919091179055620001a7565b600080546001600160a01b038381166001600160a01b0319831681178455604051919092169283917f8be0079c531659141344cd1fd0a4f28419497f9722a3daafe3b4186f6b6457e09190a35050565b6000602082840312156200018857600080fd5b81516001600160a01b0381168114620001a057600080fd5b9392505050565b61f46180620001b76000396000f3fe608060405234801561001057600080fd5b50600436106108a35760003560e01c80637ae3d59b1161046e578063b8f011b311610257578063e0b8bfeb11610151578063f4cdfcc4116100ce578063fc0c546a11610092578063fc0c546a1461162c578063fca495631461163f578063fcbe89c914611652578063fd08c35714611672578063ff43de9d1461168557600080fd5b8063f4cdfcc4146115d9578063f5ae7c7d146115ec578063f716596d146115f4578063f80a23fd146115fc578063f96305f01461161b57600080fd5b8063e9a12fd711610115578063e9a12fd714611570578063eb1322ff14611590578063ef4fcdad146115a3578063f2d9e74d146115bd578063f2fde38b146115c657600080fd5b8063e0b8bfeb146114f5578063e23fcd1a14611508578063e59d02891461151d578063e798a7da1461152a578063e7b1d43c1461155d57600080fd5b8063cd56aa81116101df578063d2737905116101a3578063d27379051461148f578063d58f575c146114a2578063d6b0206c146114bc578063d9548e53146114cf578063de1faf77146114e257600080fd5b8063cd56aa8114611411578063cdf46a7814611424578063ce95fd8214611437578063d0b28e7d1461144a578063d0d41def1461145d57600080fd5b8063bf9fe16111610226578063bf9fe161146113b8578063c46f17d0146113cb578063c854d995146113e3578063c884ec9f146113f6578063cb2793891461140957600080fd5b8063b8f011b31461136c578063bbc35b311461137f578063bc84829514611392578063bda1e609146113a557600080fd5b80639c867cf411610368578063aacc5a17116102f0578063b1cf4a7e116102b4578063b1cf4a7e1461130b578063b1d7ea981461131e578063b4676b971461133e578063b5485f6214611351578063b61568721461135957600080fd5b8063aacc5a17146112aa578063ade7e65a146112b2578063ae4c3877146112d2578063b10aa584146112e5578063b1a2e0be146112f857600080fd5b8063a1b6b5b711610337578063a1b6b5b714611248578063a23226d414611260578063a350715a14611273578063a511dba014611286578063a90577901461129757600080fd5b80639c867cf4146111f55780639d6e3f96146112085780639f5380521461121b578063a1563cc31461123f57600080fd5b80638820f5b4116103f65780638da5cb5b116103ba5780638da5cb5b14611191578063955122ef146111a257806396964b1e146111b55780639769d846146111c85780639a1cbfd3146111e257600080fd5b80638820f5b41461103d5780638bf8a338146110505780638c89d027146110635780638cb4756d1461115c5780638ccb7eec1461116557600080fd5b8063821aa8c01161043d578063821aa8c014610fe85780638356443a14610ffb5780638473850b1461100e5780638480a221146110215780638746ff8a1461102a57600080fd5b80637ae3d59b14610fa55780637f30c9b314610fb85780637f9510a214610fd8578063815ce74714610fe057600080fd5b8063413b90f7116106905780635c975abb1161058a5780636cfaeff41161051257806378b3decb116104d657806378b3decb14610f35578063794cd05a14610f485780637960d1ca14610f5b57806379dd459714610f7f5780637ad2f09514610f9257600080fd5b80636cfaeff414610ed45780637074222b14610ee7578063715018a614610f1057806375b7536c14610f18578063763a39f214610f2d57600080fd5b80636917def3116105595780636917def314610e8b57806369d0433b14610e9e57806369fef28314610ea65780636b2d95d414610eae5780636b4a901b14610ec157600080fd5b80635c975abb14610e4b578063607d5efa14610e5d578063628516ae14610e655780636554a37514610e7857600080fd5b80634edad8441161061857806353bf27f1116105dc57806353bf27f114610df757806355adf7bf14610dff578063576a554314610e1257806359da7baf14610e255780635b0bca7714610e3857600080fd5b80634edad84414610da45780634ffd734314610db75780635102183314610dcb578063515535e814610dde578063531f890a14610def57600080fd5b806345feae891161065f57806345feae8914610d2557806347fe2d2014610d395780634852e2f014610d5157806349ad1d0514610d6b5780634a45cd8414610d7357600080fd5b8063413b90f714610cd9578063427fa1d214610cec57806342ed24ed14610cff57806345e8450e14610d1257600080fd5b80632eaff499116107a15780633538af82116107295780633aed0be5116106ed5780633aed0be514610c305780633c062cc814610c625780633de4b29314610c955780633f2a918014610c9e5780633f7e62f314610cb157600080fd5b80633538af8214610bd557806336b99f7514610be857806337527b4d14610c0d57806338eaf56514610c1557806339e7357c14610c2857600080fd5b80633287d91f116107705780633287d91f14610af3578063333fa62614610b0657806334522fbd14610b9c578063345b0f5114610baf5780633465a78814610bc257600080fd5b80632eaff49914610a7f5780632f66157514610a955780632ff0312f14610aa857806331e2f28514610ad357600080fd5b8063113f10d21161082f578063258cc843116107f3578063258cc84314610a28578063275c259014610a49578063289bd48214610a515780632a25c7c914610a595780632dbfca6a14610a6c57600080fd5b8063113f10d2146109cc578063154fd39b146109df57806316860ec5146109fa5780631a0a890c14610a025780631aca641214610a1557600080fd5b80630e4498c2116108765780630e4498c21461091b5780630e6661a71461093b5780630f91f0b2146109665780630fb69aa71461098c5780630fe05b011461099f57600080fd5b806305957623146108a85780630816692c146108bd578063086eafa3146108e65780630a7c5dd014610908575b600080fd5b6108bb6108b636600461e05b565b611698565b005b6108d06108cb36600461e08d565b611747565b6040516108dd919061e102565b60405180910390f35b6039546108f890610100900460ff1681565b60405190151581526020016108dd565b6108bb61091636600461e08d565b611957565b61092e61092936600461e164565b611ae6565b6040516108dd919061e186565b602f5461094e906001600160801b031681565b6040516001600160801b0390911681526020016108dd565b61097961097436600461e08d565b611c6c565b6040516108dd979695949392919061e1ff565b6108bb61099a36600461e28c565b611e5d565b6109b26109ad36600461e08d565b611e87565b6040516108dd9e9d9c9b9a9998979695949392919061e2a7565b6108bb6109da36600461e365565b611fbd565b6031546001600160801b03165b6040519081526020016108dd565b6108bb6120e1565b6108bb610a1036600461e407565b6122d5565b6109ec610a2336600461e5d1565b612315565b610a3b610a3636600461e365565b613784565b6040516108dd92919061e737565b6108bb613a9f565b6109ec613cce565b6108bb610a6736600461e08d565b613d25565b6108f8610a7a36600461e05b565b613fb1565b6039546108f89065010000000000900460ff1681565b6108f8610aa336600461e08d565b6141a7565b610abb610ab636600461e759565b614200565b6040516001600160a01b0390911681526020016108dd565b6109ec610ae136600461e05b565b60266020526000908152604090205481565b6108f8610b0136600461e08d565b61422a565b610b5e610b1436600461e05b565b60276020526000908152604090205460ff808216916101008104821691620100008204169063ffffffff63010000008204811691600160381b8104821691600160581b9091041686565b60408051961515875294151560208701529215159385019390935263ffffffff908116606085015291821660808401521660a082015260c0016108dd565b6108bb610baa36600461e780565b614297565b6108f8610bbd36600461e08d565b6142e1565b6108bb610bd036600461e08d565b61438f565b610abb610be336600461e759565b6143c0565b610bfb610bf636600461e7b5565b6143d0565b6040516108dd9695949392919061e7e3565b6037546109ec565b6109ec610c2336600461e83a565b614535565b6109ec614573565b6108f8610c3e36600461e05b565b6001600160a01b031660009081526027602052604090205462010000900460ff1690565b610c75610c7036600461e759565b614590565b604080516001600160801b039384168152929091166020830152016108dd565b6109ec60365481565b6108f8610cac36600461e08d565b6145bb565b603954610cc690600160501b900461ffff1681565b60405161ffff90911681526020016108dd565b610c75610ce736600461e858565b61483d565b61094e610cfa36600461e05b565b614876565b6109ec610d0d36600461e08d565b61491c565b6108f8610d2036600461e08d565b61499c565b6039546108f890600160201b900460ff1681565b603054600160801b90046001600160801b03166109ec565b60325461094e90600160801b90046001600160801b031681565b6108bb614a22565b6108f8610d8136600461e05b565b6001600160a01b0316600090815260276020526040902054610100900460ff1690565b6108bb610db236600461e08d565b614a4e565b6039546108f8906301000000900460ff1681565b6108f8610dd936600461e08d565b614bcf565b6030546001600160801b03166109ec565b6108bb614bf4565b602b546109ec565b6109ec610e0d36600461e884565b614c2d565b6108bb610e2036600461e05b565b614e11565b610c75610e3336600461e759565b615010565b6109ec610e4636600461e83a565b615020565b600054600160a01b900460ff166108f8565b6108bb615075565b6108f8610e7336600461e8c6565b615247565b6108bb610e8636600461e917565b615291565b6108bb610e9936600461e28c565b615e11565b602e546109ec565b6108bb615e3b565b6109ec610ebc36600461e05b565b615e74565b6108d0610ecf36600461e08d565b615e83565b6108f8610ee236600461e08d565b6161dd565b6109ec610ef536600461e05b565b6001600160a01b031660009081526026602052604090205490565b6108bb616250565b603954610cc690600160601b900461ffff1681565b602c546109ec565b6109ec610f4336600461e83a565b616262565b6108bb610f5636600461e05b565b616299565b610cc6610f6936600461e08d565b60296020526000908152604090205461ffff1681565b6109ec610f8d36600461e83a565b6162ec565b6108f8610fa036600461e83a565b616322565b6108bb610fb336600461e974565b61637d565b610fcb610fc636600461e08d565b6163a1565b6040516108dd919061e991565b6109ec616636565b6109ec61664d565b610abb610ff636600461e759565b61669e565b6108bb61100936600461e974565b6166ae565b60305461094e906001600160801b031681565b6109ec60345481565b610abb61103836600461e858565b6166d4565b6109ec61104b36600461e08d565b616b40565b6109ec61105e36600461ea3c565b616b96565b6110f061107136600461e05b565b602460205260009081526040902080546001909101546001600160801b038216916001600160401b03600160801b80830482169361ffff600160c01b808604919091169460ff600160d01b8204811695600160d81b8304821695600160e01b9093049091169380821693600160401b820483169382048316929104168a565b604080516001600160801b03909b168b526001600160401b03998a1660208c015261ffff909816978a01979097529415156060890152921515608088015290151560a0870152841660c0860152831660e0850152821661010084015216610120820152610140016108dd565b6109ec60385481565b6108f861117336600461e05b565b6001600160a01b031660009081526027602052604090205460ff1690565b6000546001600160a01b0316610abb565b6108bb6111b036600461e05b565b616bd7565b6108d06111c336600461e365565b616c58565b60315461094e90600160801b90046001600160801b031681565b6108bb6111f036600461e974565b61722c565b6108d061120336600461e365565b61724e565b6109ec61121636600461e05b565b617418565b610cc661122936600461e08d565b602a6020526000908152604090205461ffff1681565b6109ec60375481565b603154600160801b90046001600160801b031661094e565b6109ec61126e36600461e08d565b61747e565b60325461094e906001600160801b031681565b602f546001600160801b03166109ec565b6108f86112a536600461ea82565b6174ec565b6109ec617552565b6112c56112c036600461e08d565b61761b565b6040516108dd919061eadb565b6108f86112e036600461e83a565b6177c1565b610abb6112f336600461e759565b617821565b6108f861130636600461e05b565b617831565b6109ec61131936600461e164565b61793e565b61133161132c36600461e164565b61795a565b6040516108dd919061eaee565b6108bb61134c36600461eb26565b617ca0565b6108f8618427565b6108bb61136736600461e08d565b618432565b61133161137a36600461e164565b618620565b6108bb61138d36600461eb97565b618636565b610abb6113a036600461ec25565b618684565b6108bb6113b336600461e974565b6186bc565b6109ec6113c636600461e08d565b6186d7565b603954610cc6906601000000000000900461ffff1681565b6108d06113f136600461e08d565b61872d565b6108bb61140436600461e08d565b618949565b6036546109ec565b6108bb61141f36600461eb97565b6189ae565b6039546108f89062010000900460ff1681565b6108bb61144536600461e28c565b6189fc565b6108bb61145836600461e780565b618a0d565b60005461147790600160a81b90046001600160401b031681565b6040516001600160401b0390911681526020016108dd565b6108d061149d36600461e08d565b618a5a565b602f5461094e90600160801b90046001600160801b031681565b60315461094e906001600160801b031681565b6108f86114dd36600461e759565b421190565b6108f86114f036600461e7b5565b618da2565b6108bb61150336600461e365565b618e79565b603954610cc690600160401b900461ffff1681565b6039546108f89060ff1681565b6108f861153836600461e05b565b6001600160a01b0316600090815260246020526040902054600160d01b900460ff1690565b6108bb61156b36600461e759565b619326565b61158361157e36600461e08d565b6195e0565b6040516108dd919061ec43565b60335461094e906001600160801b031681565b60305461094e90600160801b90046001600160801b031681565b6109ec60355481565b6108bb6115d436600461e05b565b61969f565b6109ec6115e736600461ec56565b619715565b6035546109ec565b6108bb61972a565b33600090815260246020526040902054600160d01b900460ff166108f8565b6032546001600160801b031661094e565b603a54610abb906001600160a01b031681565b6109ec61164d36600461e05b565b619d0e565b61166561166036600461e08d565b619e0c565b6040516108dd919061ec9a565b6109ec61168036600461edca565b61a04d565b603b54610abb906001600160a01b031681565b6116a061a21d565b6001600160a01b0381166116f35760405162461bcd60e51b815260206004820152601560248201527461646472206d757374206265206e6f6e207a65726f60581b60448201526064015b60405180910390fd5b603b80546001600160a01b0319166001600160a01b0383169081179091556040519081527f1c57c3710c0570883580d2f83ee6a873d61b5af334741eea1c0cc397899e1d029060200160405180910390a150565b606061175282614bcf565b61176e5760405162461bcd60e51b81526004016116ea9061ee0b565b6001600160801b0382166000908152602860209081526040808320805482518185028101850190935280835291929091908301828280156117d857602002820191906000526020600020905b81546001600160a01b031681526001909101906020018083116117ba575b50505050509050600081516001600160401b038111156117fa576117fa61e39e565b60405190808252806020026020018201604052801561182d57816020015b60608152602001906001900390816118185790505b50905060005b825181101561194f576001600160801b0385166000908152601f60205260408120845190919085908490811061186b5761186b61ee42565b60200260200101516001600160a01b03166001600160a01b0316815260200190815260200160002060010180546118a19061ee58565b80601f01602080910402602001604051908101604052809291908181526020018280546118cd9061ee58565b801561191a5780601f106118ef5761010080835404028352916020019161191a565b820191906000526020600020905b8154815290600101906020018083116118fd57829003601f168201915b50505050508282815181106119315761193161ee42565b602002602001018190525080806119479061eea3565b915050611833565b509392505050565b603b546001600160a01b031661197f5760405162461bcd60e51b81526004016116ea9061eebe565b611991816001600160801b031661a277565b611999617552565b60345414611adb5760005b816001600160801b0316816001600160801b03161015611ad9576031546001600160801b031660009081526022602052604081205460ff600160f01b909104161515600114801590611a7d5750603b60009054906101000a90046001600160a01b03166001600160a01b031663bd40ef4c6040518163ffffffff1660e01b815260040160206040518083038186803b158015611a3f57600080fd5b505afa158015611a53573d6000803e3d6000fd5b505050506040513d601f19601f82011682018060405250810190611a77919061eef5565b602b5410155b8015611aaa57506031546001600160801b0316600090815260226020526040902054600160e01b900460ff165b15611abb57611ab761a3a7565b5060015b80611ac65750611ad9565b5080611ad18161ef07565b9150506119a4565b505b611ae361acd7565b50565b606082821015611b2c5760405162461bcd60e51b8152602060048201526011602482015270205f42206d757374206265203e3d205f4160781b60448201526064016116ea565b602e54611b3b9060019061ef2e565b821115611b815760405162461bcd60e51b815260206004820152601460248201527320425f206973206f7574206f6620626f756e647360601b60448201526064016116ea565b6000611b8d848461ef2e565b611b9890600161ef45565b90506000816001600160401b03811115611bb457611bb461e39e565b604051908082528060200260200182016040528015611bdd578160200160208202803683370190505b50905060005b82811015611c6157602e611bf7878361ef45565b81548110611c0757611c0761ee42565b9060005260206000200160009054906101000a90046001600160a01b0316828281518110611c3757611c3761ee42565b6001600160a01b039092166020928302919091019091015280611c598161eea3565b915050611be3565b509150505b92915050565b6021602052600090815260409020805460018201546002830180546001600160401b0380851695600160401b860490911694600160801b900460ff16936001600160a01b0316929091611cbe9061ee58565b80601f0160208091040260200160405190810160405280929190818152602001828054611cea9061ee58565b8015611d375780601f10611d0c57610100808354040283529160200191611d37565b820191906000526020600020905b815481529060010190602001808311611d1a57829003601f168201915b505050505090806003018054611d4c9061ee58565b80601f0160208091040260200160405190810160405280929190818152602001828054611d789061ee58565b8015611dc55780601f10611d9a57610100808354040283529160200191611dc5565b820191906000526020600020905b815481529060010190602001808311611da857829003601f168201915b505050505090806004018054611dda9061ee58565b80601f0160208091040260200160405190810160405280929190818152602001828054611e069061ee58565b8015611e535780601f10611e2857610100808354040283529160200191611e53565b820191906000526020600020905b815481529060010190602001808311611e3657829003601f168201915b5050505050905087565b611e6561a21d565b6039805461ffff909216600160501b0261ffff60501b19909216919091179055565b6022602052600090815260409020805460018201546002830180546001600160801b0384169463ffffffff600160801b8604811695600160a01b81049091169461ffff600160c01b8304811695600160d01b840482169560ff600160e01b8604811696600160e81b8704821696600160f01b9004909116948085169462010000820416936001600160401b03600160201b8304811694600160601b909304169291611f319061ee58565b80601f0160208091040260200160405190810160405280929190818152602001828054611f5d9061ee58565b8015611faa5780601f10611f7f57610100808354040283529160200191611faa565b820191906000526020600020905b815481529060010190602001808311611f8d57829003601f168201915b5050506003909301549192505060ff168e565b611fc561a21d565b806001600160801b0316826001600160801b0316106120265760405162461bcd60e51b815260206004820181905260248201527f73706f74496e64657841206d757374206265203c3d2073706f74496e6465784260448201526064016116ea565b815b816001600160801b0316816001600160801b031610156120dc576001600160801b038116600090815260216020526040812080546001600160881b03191681556001810180546001600160a01b031916905590612088600283018261df4a565b61209660038301600061df4a565b6120a460048301600061df4a565b506120b390506020600261ef5d565b603760008282546120c4919061ef2e565b909155508190506120d48161ef07565b915050612028565b505050565b603b546001600160a01b03166121095760405162461bcd60e51b81526004016116ea9061eebe565b60006121176001600f61ef2e565b90506000601082600f811061212e5761212e61ee42565b0154603b54604080516307bc663b60e11b815290516001600160801b0390931693506001600160a01b0390911691630f78cc7691600480820192602092909190829003018186803b15801561218257600080fd5b505afa158015612196573d6000803e3d6000fd5b505050506040513d601f19601f820116820180604052508101906121ba919061eef5565b6121cd826001600160401b03421661ef2e565b11156122d15760005b6121e26001600f61ef2e565b8110156122625760106121f682600161ef45565b600f81106122065761220661ee42565b01601082600f811061221a5761221a61ee42565b8254910180546001600160801b0319166001600160801b0392831690811782559254600160801b9081900490921690910290911790558061225a8161eea3565b9150506121d6565b50426001600160401b0316601083600f81106122805761228061ee42565b0180546001600160801b0319166001600160801b03929092169190911790556000601083600f81106122b4576122b461ee42565b0180546001600160801b03928316600160801b0292169190911790555b5050565b60005b81518110156122d1576123038282815181106122f6576122f661ee42565b6020026020010151613d25565b8061230d8161eea3565b9150506122d8565b600061231f61af62565b603b546001600160a01b03166123475760405162461bcd60e51b81526004016116ea9061eebe565b603b60009054906101000a90046001600160a01b03166001600160a01b0316634e87c5a86040518163ffffffff1660e01b815260040160206040518083038186803b15801561239557600080fd5b505afa1580156123a9573d6000803e3d6000fd5b505050506040513d601f19601f820116820180604052508101906123cd919061ef7c565b61242c5760405162461bcd60e51b815260206004820152602a60248201527f53706f7474696e67206973206e6f742063757272656e746c7920656e61626c656044820152693210313c9027bbb732b960b11b60648201526084016116ea565b8551841461248c5760405162461bcd60e51b815260206004820152602760248201527f696e70757420617272617973206d757374206265206f662073616d65206c656e6044820152666774682028312960c81b60648201526084016116ea565b82518651146124ed5760405162461bcd60e51b815260206004820152602760248201527f696e70757420617272617973206d757374206265206f662073616d65206c656e6044820152666774682028322960c81b60648201526084016116ea565b6124f5615075565b603b60009054906101000a90046001600160a01b03166001600160a01b031663b38e885e6040518163ffffffff1660e01b815260040160206040518083038186803b15801561254357600080fd5b505afa158015612557573d6000803e3d6000fd5b505050506040513d601f19601f8201168201806040525081019061257b919061eef5565b61258361664d565b106125ef5760405162461bcd60e51b815260206004820152603660248201527f476c6f62616c206c696d69743a206578636565646564206d61782064617461206044820152753832b9103437bab916103932ba393c903630ba32b91760511b60648201526084016116ea565b603b54604080516001624ee91360e11b0319815290516000926001600160a01b03169163ff622dda916004808301926020929190829003018186803b15801561263757600080fd5b505afa15801561264b573d6000803e3d6000fd5b505050506040513d601f19601f8201168201806040525081019061266f919061eef5565b9050600061267d33836166d4565b905061268881614e11565b603054603b54604080516317c4a13160e31b815290516001600160801b03909316926001600160a01b039092169163be25098891600480820192602092909190829003018186803b1580156126dc57600080fd5b505afa1580156126f0573d6000803e3d6000fd5b505050506040513d601f19601f82011682018060405250810190612714919061eef5565b61271d83617418565b1080156127b55750603b60009054906101000a90046001600160a01b03166001600160a01b031663b38e885e6040518163ffffffff1660e01b815260040160206040518083038186803b15801561277357600080fd5b505afa158015612787573d6000803e3d6000fd5b505050506040513d601f19601f820116820180604052508101906127ab919061eef5565b6127b361664d565b105b80156127ee5750603954603154600160501b90910461ffff16906127e2906001600160801b03168361ef99565b6001600160801b031611155b156136b45760395460ff161561284f576001600160a01b03821660009081526026602052604090205483111561284f576001600160a01b038216600090815260266020526040812054612841908561ef2e565b905061284d818461afaf565b505b60005b8951816001600160401b031610156136b25760008a826001600160401b0316815181106128815761288161ee42565b6020026020010151905060008a8a846001600160401b03168181106128a8576128a861ee42565b90506020028101906128ba919061efc1565b8080601f01602080910402602001604051908101604052809392919081815260200183838082843760009201829052508d51949550938d93506001600160401b03881692508210905061290f5761290f61ee42565b602002602001015190506040518060e00160405280426001600160401b03168152602001826001600160401b03168152602001600060038111156129555761295561e1c7565b81523360208083019190915260408083018790526060830186905260809092018c9052602f546001600160801b031660009081526021825282902083518154928501516001600160401b03908116600160401b026001600160801b031990941691161791909117808255918301519091829060ff60801b1916600160801b8360038111156129e5576129e561e1c7565b021790555060608201516001820180546001600160a01b0319166001600160a01b0390921691909117905560808201518051612a2b91600284019160209091019061df84565b5060a08201518051612a4791600384019160209091019061df84565b5060c08201518051612a6391600484019160209091019061df84565b50612a74915060209050600261ef5d565b60376000828254612a85919061ef45565b90915550506001600160801b038516600090815260226020908152604091829020603b548351634e8f956d60e11b8152935191936001600160a01b0390911692639d1f2ada92600480840193829003018186803b158015612ae557600080fd5b505afa158015612af9573d6000803e3d6000fd5b505050506040513d601f19601f82011682018060405250810190612b1d919061eef5565b8154600160801b900463ffffffff161015612b735780546001908290601090612b54908490600160801b900463ffffffff1661f007565b92506101000a81548163ffffffff021916908363ffffffff1602179055505b603b60009054906101000a90046001600160a01b03166001600160a01b0316639d1f2ada6040518163ffffffff1660e01b815260040160206040518083038186803b158015612bc157600080fd5b505afa158015612bd5573d6000803e3d6000fd5b505050506040513d601f19601f82011682018060405250810190612bf9919061eef5565b8154600160801b900463ffffffff1610612cab57805461ffff60e01b1916600160e01b1781556030805460019190600090612c3e9084906001600160801b031661f02f565b82546101009290920a6001600160801b03818102199093169183160217909155602f5488821660009081526022602052604090208054919092166001600160801b031990911617905550612c946010600161ef45565b60376000828254612ca5919061ef45565b90915550505b602f54612cc2906001600160801b0316600161f02f565b602f80546001600160801b0319166001600160801b0392909216919091179055600180612cf081600f61ef2e565b600f8110612d0057612d0061ee42565b018054601090612d21908490600160801b90046001600160801b031661f02f565b82546001600160801b039182166101009390930a9283029190920219909116179055506001600160a01b0387166000908152602560205260409020600181612d6a82600f61ef2e565b600f8110612d7a57612d7a61ee42565b018054601090612d9b908490600160801b90046001600160801b031661f02f565b92506101000a8154816001600160801b0302191690836001600160801b03160217905550603960049054906101000a900460ff16156132a057603b5460408051632a49798160e11b8152905133926000926001600160a01b0390911691635492f30291600480820192602092909190829003018186803b158015612e1e57600080fd5b505afa158015612e32573d6000803e3d6000fd5b505050506040513d601f19601f82011682018060405250810190612e56919061f051565b90506000603b60009054906101000a90046001600160a01b03166001600160a01b0316630855d1516040518163ffffffff1660e01b815260040160206040518083038186803b158015612ea857600080fd5b505afa158015612ebc573d6000803e3d6000fd5b505050506040513d601f19601f82011682018060405250810190612ee0919061f051565b90506000603b60009054906101000a90046001600160a01b03166001600160a01b03166304e76c8f6040518163ffffffff1660e01b815260040160206040518083038186803b158015612f3257600080fd5b505afa158015612f46573d6000803e3d6000fd5b505050506040513d601f19601f82011682018060405250810190612f6a919061f051565b6040516308c0a84360e11b81526001600160a01b03868116600483015291925060009185169063118150869060240160206040518083038186803b158015612fb157600080fd5b505afa158015612fc5573d6000803e3d6000fd5b505050506040513d601f19601f82011682018060405250810190612fe9919061f051565b90506000603960069054906101000a900461ffff1661ffff16603b60009054906101000a90046001600160a01b03166001600160a01b03166330c0bb796040518163ffffffff1660e01b815260040160206040518083038186803b15801561305057600080fd5b505afa158015613064573d6000803e3d6000fd5b505050506040513d601f19601f82011682018060405250810190613088919061eef5565b61309390606461ef5d565b61309d919061f084565b90506000603960069054906101000a900461ffff1661ffff16603b60009054906101000a90046001600160a01b03166001600160a01b031663abb10b9b6040518163ffffffff1660e01b815260040160206040518083038186803b15801561310457600080fd5b505afa158015613118573d6000803e3d6000fd5b505050506040513d601f19601f8201168201806040525081019061313c919061eef5565b61314790606461ef5d565b613151919061f084565b604051630db6cc8560e11b8152600481018290526001600160a01b0385811660248301526000604483015291925090861690631b6d990a90606401602060405180830381600087803b1580156131a657600080fd5b505af11580156131ba573d6000803e3d6000fd5b505050506040513d601f19601f820116820180604052508101906131de919061ef7c565b6131fa5760405162461bcd60e51b81526004016116ea9061f098565b604051633832942560e21b8152600481018390526001600160a01b03848116602483015285169063e0ca509490604401602060405180830381600087803b15801561324457600080fd5b505af1158015613258573d6000803e3d6000fd5b505050506040513d601f19601f8201168201806040525081019061327c919061ef7c565b6132985760405162461bcd60e51b81526004016116ea9061f0e6565b505050505050505b603954610100900460ff1615613648576132ba6001618949565b603b5460408051637b39b17f60e11b815290516000926001600160a01b03169163f67362fe916004808301926020929190829003018186803b1580156132ff57600080fd5b505afa158015613313573d6000803e3d6000fd5b505050506040513d601f19601f82011682018060405250810190613337919061f051565b604051633d18199160e11b8152600160048201529091506001600160a01b03821690637a30332290602401600060405180830381600087803b15801561337c57600080fd5b505af192505050801561338d575060015b6133e8573d8080156133bb576040519150601f19603f3d011682016040523d82523d6000602084013e6133c0565b606091505b5060008051602061f40c833981519152816040516133de919061ec43565b60405180910390a1505b603b5460408051637a0ec25b60e01b815290516000926001600160a01b031691637a0ec25b916004808301926020929190829003018186803b15801561342d57600080fd5b505afa158015613441573d6000803e3d6000fd5b505050506040513d601f19601f82011682018060405250810190613465919061f051565b604051633d18199160e11b8152600160048201529091506001600160a01b03821690637a30332290602401600060405180830381600087803b1580156134aa57600080fd5b505af19250505080156134bb575060015b613516573d8080156134e9576040519150601f19603f3d011682016040523d82523d6000602084013e6134ee565b606091505b5060008051602061f40c8339815191528160405161350c919061ec43565b60405180910390a1505b603b546040805163463444b760e01b815290516000926001600160a01b03169163463444b7916004808301926020929190829003018186803b15801561355b57600080fd5b505afa15801561356f573d6000803e3d6000fd5b505050506040513d601f19601f82011682018060405250810190613593919061f051565b604051633d18199160e11b8152600160048201529091506001600160a01b03821690637a30332290602401600060405180830381600087803b1580156135d857600080fd5b505af19250505080156135e9575060015b613644573d808015613617576040519150601f19603f3d011682016040523d82523d6000602084013e61361c565b606091505b5060008051602061f40c8339815191528160405161363a919061ec43565b60405180910390a1505b5050505b602f546040516001600160a01b038a16916001600160801b0316907fb819ca9ac369919119f75ec7363dd954f75bcfa75f9245647e03da413be0d58290613692908990899061f136565b60405180910390a3505050505080806136aa9061f15b565b915050612852565b505b3360009081526024602052604090208054600160e01b900460ff1661372757602e80546001810182556000919091527f37fa166cbdbfbb1561ccd9ea985ec0218b5e68502e230525f544285b2bdf3d7e0180546001600160a01b03191633179055805460ff60e01b1916600160e01b1781555b805467ffffffffffffffff60801b1916600160801b426001600160401b03160217815561375261acd7565b600160356000828254613765919061ef45565b9091555050602f546001600160801b03169a9950505050505050505050565b600060606000846001600160801b03161180156137b25750826001600160801b0316846001600160801b0316105b6137ce5760405162461bcd60e51b81526004016116ea9061f178565b6000806137db868661ef99565b6137e690600161f02f565b90506000816001600160801b03166001600160401b0381111561380b5761380b61e39e565b604051908082528060200260200182016040528015613834578160200160208202803683370190505b50905060005b826001600160801b0316816001600160801b03161015613a825760006022816138638b8561f02f565b6001600160801b039081168252602080830193909352604091820160002082516101c0810184528154928316815263ffffffff600160801b8404811695820195909552600160a01b83049094169284019290925261ffff600160c01b820481166060850152600160d01b82048116608085015260ff600160e01b83048116151560a0860152600160e81b83048116151560c0860152600160f01b909204909116151560e084015260018201548082166101008501526201000081049091166101208401526001600160401b03600160201b82048116610140850152600160601b90910416610160830152600281018054610180840191906139639061ee58565b80601f016020809104026020016040519081016040528092919081815260200182805461398f9061ee58565b80156139dc5780601f106139b1576101008083540402835291602001916139dc565b820191906000526020600020905b8154815290600101906020018083116139bf57829003601f168201915b505050918352505060038281015460209092019160ff1690811115613a0357613a0361e1c7565b6003811115613a1457613a1461e1c7565b9052506040810151909150613a2f9063ffffffff168661f02f565b9450806040015163ffffffff1683836001600160801b031681518110613a5757613a5761ee42565b6001600160801b03909216602092830291909101909101525080613a7a8161ef07565b91505061383a565b506000613a8f838561f1af565b95509093505050505b9250929050565b3360009081526024602052604090208054600160d01b900460ff16613b1b5760405162461bcd60e51b815260206004820152602c60248201527f576f726b6572206973206e6f74207265676973746572656420736f2063616e2760448201526b3a103ab73932b3b4b9ba32b960a11b60648201526084016116ea565b80546001600160801b031615801590613b3d57508054600160d81b900460ff16155b8015613b5f57503360009081526027602052604090205462010000900460ff16155b15613bf957805460ff60d81b1916600160d81b178155602d8054600181810183556000929092527f4a2cc91ee622da3bc833a54c37ffcb6f3ec23b7793efc5eaf5e71b7b406c5c060180546001600160a01b03191633179055613bc49060209061ef5d565b60376000828254613bd5919061ef45565b9091555050336000908152602760205260409020805462ff00001916620100001790555b80546001600160801b0316613cad57613c113361b26e565b613c1a3361b3db565b613c233361b50c565b80546001600160401b0342908116600160801b0267ffffffffffffffff60801b199092169190911782553360008181526027602052604090819020805462ff000019169055835460ff60d01b191684555190917f9dadcedba048e92b943ea1c5861cee1df63a566d7f795869c004780c1c698e2b91613ca491815260200190565b60405180910390a25b600160356000828254613cc0919061ef45565b90915550611ae3905061acd7565b600080805b600f811015613d1f57601081600f8110613cef57613cef61ee42565b0154613d0b90600160801b90046001600160801b03168361ef45565b915080613d178161eea3565b915050613cd3565b50919050565b60016001600160801b038216600090815260226020526040902060039081015460ff1690811115613d5857613d5861e1c7565b14613dbf5760405162461bcd60e51b815260206004820152603160248201527f676976656e204461746142617463682073686f756c6420626520415050524f5660448201527011510b08185b99081a5d081a5cc81b9bdd607a1b60648201526084016116ea565b3360009081526023602052604090819020905163071dc0ab60e51b815260048101919091526001600160801b038216602482015273__$85afbab79b2b776d70bef879a32ed56424$__9063e3b815609060440160206040518083038186803b158015613e2a57600080fd5b505af4158015613e3e573d6000803e3d6000fd5b505050506040513d601f19601f82011682018060405250810190613e62919061ef7c565b613ed45760405162461bcd60e51b815260206004820152603960248201527f646c6c4d61703a20646f6573206e6f7420636f696e7461696e205f446174614260448201527f61746368496420666f7220746865206d73672073656e6465720000000000000060648201526084016116ea565b336000908152602360205260409081902090516325923c7560e11b815260048101919091526001600160801b038216602482015273__$85afbab79b2b776d70bef879a32ed56424$__90634b2478ea9060440160006040518083038186803b158015613f3f57600080fd5b505af4158015613f53573d6000803e3d6000fd5b50505050601060376000828254613f6a919061ef2e565b90915550613f78905061acd7565b60405133906001600160801b038316907f402507661c8c8cb90e0a796450b8bdd28b6c516f05279c0cd29e84c344e1699a90600090a350565b6001600160a01b03818116600090815260246020908152604080832081516101408101835281546001600160801b0381168252600160801b8082046001600160401b0390811684880152600160c01b80840461ffff1685880152600160d01b840460ff90811615156060870152600160d81b8504811615156080870152600160e01b909404909316151560a085015260019094015480851660c0850152600160401b8104851660e0850152908104841661010084015204909116610120820152603b548251634fda48fb60e11b81529251949586959294911692639fb491f69260048083019392829003018186803b1580156140ac57600080fd5b505afa1580156140c0573d6000803e3d6000fd5b505050506040513d601f19601f820116820180604052508101906140e4919061eef5565b816040015161ffff16101580156141965750603b60009054906101000a90046001600160a01b03166001600160a01b0316630f1f0ffe6040518163ffffffff1660e01b815260040160206040518083038186803b15801561414457600080fd5b505afa158015614158573d6000803e3d6000fd5b505050506040513d601f19601f8201168201806040525081019061417c919061eef5565b60c0820151614194906001600160401b03164261ef2e565b105b156141a057600191505b5092915050565b60006141b282614bcf565b6141be57506000919050565b6001600160801b038216600090815260226020526040902060010154600160201b90046001600160401b0316421180611c665750611c668261422a565b919050565b602e818154811061421057600080fd5b6000918252602090912001546001600160a01b0316905081565b600061423582614bcf565b6142515760405162461bcd60e51b81526004016116ea9061ee0b565b6001600160801b038216600090815260226020526040902060010154600160601b90046001600160401b03164211158015611c6657506142908261499c565b1592915050565b61429f61a21d565b6039805467ffff00ff000000001916600160201b9315159390930267ffff000000000000191692909217660100000000000061ffff9290921691909102179055565b60006142ec82614bcf565b61432a5760405162461bcd60e51b815260206004820152600f60248201526e11185d18481b5d5cdd08195e1a5cdd608a1b60448201526064016116ea565b6001600160801b038216600090815260226020526040902060010154600160601b90046001600160401b0316421180611c665750614367826141a7565b8015611c665750506001600160801b031660009081526029602052604090205461ffff161590565b603b546001600160a01b03166143b75760405162461bcd60e51b81526004016116ea9061eebe565b611adb8161b643565b602b818154811061421057600080fd5b601f6020908152600092835260408084209091529082529020805460018201805460ff80841694610100850482169462010000810490921693630100000090920463ffffffff16929091906144249061ee58565b80601f01602080910402602001604051908101604052809291908181526020018280546144509061ee58565b801561449d5780601f106144725761010080835404028352916020019161449d565b820191906000526020600020905b81548152906001019060200180831161448057829003601f168201915b5050505050908060020180546144b29061ee58565b80601f01602080910402602001604051908101604052809291908181526020018280546144de9061ee58565b801561452b5780601f106145005761010080835404028352916020019161452b565b820191906000526020600020905b81548152906001019060200180831161450e57829003601f168201915b5050505050905086565b600061456c6145448484615020565b6040518060400160405280600a815260200169636f6d6d6974566f746560b01b815250616b96565b9392505050565b60405160009080602081848060185afa61458957fe5b5051919050565b600181600f81106145a057600080fd5b01546001600160801b038082169250600160801b9091041682565b6001600160801b03808216600090815260226020908152604080832081516101c0810183528154958616815263ffffffff600160801b8704811694820194909452600160a01b86049093169183019190915261ffff600160c01b850481166060840152600160d01b85048116608084015260ff600160e01b86048116151560a0850152600160e81b86048116151560c0850152600160f01b909504909416151560e083015260018101548085166101008401526201000081049094166101208301526001600160401b03600160201b85048116610140840152600160601b9094049093166101608201526002830180549293849390916101808401916146c09061ee58565b80601f01602080910402602001604051908101604052809291908181526020018280546146ec9061ee58565b80156147395780601f1061470e57610100808354040283529160200191614739565b820191906000526020600020905b81548152906001019060200180831161471c57829003601f168201915b505050918352505060038281015460209092019160ff16908111156147605761476061e1c7565b60038111156147715761477161e1c7565b90525061012081015161010082015191925061478c9161f1d5565b61ffff16603b60009054906101000a90046001600160a01b03166001600160a01b031663ea19733c6040518163ffffffff1660e01b815260040160206040518083038186803b1580156147de57600080fd5b505afa1580156147f2573d6000803e3d6000fd5b505050506040513d601f19601f82011682018060405250810190614816919061eef5565b614820919061ef5d565b61010082015161483190606461f1f2565b61ffff16119392505050565b602560205281600052604060002081600f811061485957600080fd5b01546001600160801b038082169350600160801b90910416905082565b6001600160a01b03811660009081526023602052604080822090516001627446cf60e11b0319815260048101919091526024810182905273__$85afbab79b2b776d70bef879a32ed56424$__9063ff1772629060440160206040518083038186803b1580156148e457600080fd5b505af41580156148f8573d6000803e3d6000fd5b505050506040513d601f19601f82011682018060405250810190611c66919061f21c565b600061492782614bcf565b6149435760405162461bcd60e51b81526004016116ea9061ee0b565b600061494e8361499c565b1561498d576001600160801b03831660009081526022602052604090206001015461498a904290600160201b90046001600160401b031661f239565b90505b6001600160401b031692915050565b60006149a782614bcf565b6149c35760405162461bcd60e51b81526004016116ea9061ee0b565b6001600160801b038216600090815260226020526040902060010154600160201b90046001600160401b03164211158015611c665750506001600160801b0316600090815260226020526040902054600160c01b900461ffff16151590565b614a2a61a21d565b600054600160a01b900460ff1615614a4657614a4461bbc0565b565b614a4461bc15565b603b546001600160a01b0316614a765760405162461bcd60e51b81526004016116ea9061eebe565b603054600160801b90046001600160801b031660005b826001600160801b0316816001600160801b031610156120dc576000614ab2828461f02f565b6001600160801b038116600090815260226020526040902054909150600160f01b900460ff168015614b145750614ae8816142e1565b80614b1457506001600160801b038116600090815260226020526040902054600160d01b900461ffff16155b15614bbc576001600160801b038116600090815260226020526040902054600160e81b900460ff16614b4957614b498161bc58565b603054614b6790600160801b90046001600160801b0316600161f02f565b6001600160801b0316816001600160801b03161415614bbc57603054614b9e90600160801b90046001600160801b0316600161f02f565b603080546001600160801b03928316600160801b0292169190911790555b5080614bc78161ef07565b915050614a8c565b6001600160801b0316600090815260226020526040902054600160e01b900460ff1690565b614bfc61a21d565b602e54614c0a90602061ef5d565b60376000828254614c1b919061ef2e565b90915550614a449050602e600061e008565b600080614c3985614876565b90506000614c4786836162ec565b90505b6001600160801b03821615614dff57614c6386836162ec565b9050848111614d4957836001600160801b0316826001600160801b03161415614d38576001600160a01b0386166000908152602360205260409081902090516001627446cf60e11b0319815260048101919091526001600160801b038316602482015273__$85afbab79b2b776d70bef879a32ed56424$__9063ff1772629060440160206040518083038186803b158015614cfd57600080fd5b505af4158015614d11573d6000803e3d6000fd5b505050506040513d601f19601f82011682018060405250810190614d35919061f21c565b91505b506001600160801b0316905061456c565b6001600160a01b0386166000908152602360205260409081902090516001627446cf60e11b0319815260048101919091526001600160801b038316602482015273__$85afbab79b2b776d70bef879a32ed56424$__9063ff1772629060440160206040518083038186803b158015614dc057600080fd5b505af4158015614dd4573d6000803e3d6000fd5b505050506040513d601f19601f82011682018060405250810190614df8919061f21c565b9150614c4a565b506001600160801b0316949350505050565b603b546001600160a01b0316614e395760405162461bcd60e51b81526004016116ea9061eebe565b6001600160a01b038116600090815260256020526040812090614e5e6001600f61ef2e565b905060008282600f8110614e7457614e7461ee42565b0154603b54604080516307bc663b60e11b815290516001600160801b0390931693506001600160a01b0390911691630f78cc7691600480820192602092909190829003018186803b158015614ec857600080fd5b505afa158015614edc573d6000803e3d6000fd5b505050506040513d601f19601f82011682018060405250810190614f00919061eef5565b614f0a824261ef2e565b111561500a5760005b614f1f6001600f61ef2e565b811015614f9d5783614f3282600161ef45565b600f8110614f4257614f4261ee42565b018482600f8110614f5557614f5561ee42565b8254910180546001600160801b0319166001600160801b0392831690811782559254600160801b90819004909216909102909117905580614f958161eea3565b915050614f13565b50426001600160401b03168383600f8110614fba57614fba61ee42565b0180546001600160801b0319166001600160801b039290921691909117905560008383600f8110614fed57614fed61ee42565b0180546001600160801b03928316600160801b0292169190911790555b50505050565b601081600f81106145a057600080fd5b6040516bffffffffffffffffffffffff19606084901b1660208201526001600160801b0319608083901b1660348201526000906044015b60405160208183030381529060405280519060200120905092915050565b603b546001600160a01b031661509d5760405162461bcd60e51b81526004016116ea9061eebe565b60006150ab6001600f61ef2e565b90506000600182600f81106150c2576150c261ee42565b0154603b54604080516307bc663b60e11b815290516001600160801b0390931693506001600160a01b0390911691630f78cc7691600480820192602092909190829003018186803b15801561511657600080fd5b505afa15801561512a573d6000803e3d6000fd5b505050506040513d601f19601f8201168201806040525081019061514e919061eef5565b615161826001600160401b03421661ef2e565b11156122d15760005b6151766001600f61ef2e565b8110156151f5576001615189828261ef45565b600f81106151995761519961ee42565b01600182600f81106151ad576151ad61ee42565b8254910180546001600160801b0319166001600160801b0392831690811782559254600160801b908190049092169091029091179055806151ed8161eea3565b91505061516a565b50426001600160401b0316600183600f81106152135761521361ee42565b0180546001600160801b0319166001600160801b03929092169190911790556000600183600f81106122b4576122b461ee42565b60008061525484876162ec565b8310159050600061526585876162ec565b8411158061527a57506001600160801b038616155b90508180156152865750805b979650505050505050565b61529961af62565b6152ab846001600160401b031661422a565b6153065760405162461bcd60e51b815260206004820152602660248201527f52657665616c20706572696f64206e6f74206f70656e20666f7220746869732060448201526511185d18525160d21b60648201526084016116ea565b6001600160401b0384166000908152601f6020908152604080832033845290915290205460ff166153915760405162461bcd60e51b815260206004820152602f60248201527f5573657220686173206e6f7420636f6d6d69746564206265666f72652c20746860448201526e1d5cc818d85b89dd081c995d99585b608a1b60648201526084016116ea565b6001600160401b0384166000908152601f60209081526040808320338452909152902054610100900460ff161561541f5760405162461bcd60e51b815260206004820152602c60248201527f557365722068617320616c72656164792072657665616c65642c20746875732060448201526b18d85b89dd081c995d99585b60a21b60648201526084016116ea565b61543233856001600160401b0316616262565b61543c8483619715565b146154ce5760405162461bcd60e51b815260206004820152605660248201527f4e6f74207468652073616d652068617368207468616e20636f6d6d697465642c60448201527f20696d706f737369626c6520746f206d61746368207769746820676976656e206064820152750bee6c2d8e8404c40bec6d8cac2e492a08ca690c2e6d60531b608482015260a4016116ea565b6154e133856001600160401b0316614535565b6154ee8360ff168361793e565b1461557c5760405162461bcd60e51b815260206004820152605260248201527f4e6f74207468652073616d6520766f7465207468616e20636f6d6d697465642c60448201527f20696d706f737369626c6520746f206d61746368207769746820676976656e206064820152715f73616c742026205f636c656172566f746560701b608482015260a4016116ea565b60ff8216600114156155d9576001600160401b038416600090815260226020526040812060019081018054919290916155ba90849061ffff1661f1d5565b92506101000a81548161ffff021916908361ffff16021790555061562b565b6001600160401b03841660009081526022602052604090206001908101805460029061561090849062010000900461ffff1661f1d5565b92506101000a81548161ffff021916908361ffff1602179055505b6001600160401b0384166000908152601f602090815260408083203384528252909120805461010062ffff00199091166201000060ff87160217178155845161567c9260019092019186019061df84565b506001600160401b0384166000908152602a602052604081208054600192906156aa90849061ffff1661f1d5565b92506101000a81548161ffff021916908361ffff1602179055506020600160026156d4919061ef5d565b6156de919061ef45565b603760008282546156ef919061ef45565b90915550503360009081526024602090815260408083206001600160401b038816845260229092529091205461573290600190600160d01b900461ffff1661f259565b6001600160401b038681166000908152602260205260409020805461ffff60d01b1916600160d01b61ffff949094168402179055825467ffffffffffffffff60801b1916600160801b4290921691909102178083550460ff16156157cc5780546001600160801b031916815560378054600191906000906157b490849061ef2e565b909155506157c390503361b3db565b6157cc3361dbd6565b60395465010000000000900460ff1615615d2a57603b5460408051632a49798160e11b8152905133926000926001600160a01b0390911691635492f30291600480820192602092909190829003018186803b15801561582a57600080fd5b505afa15801561583e573d6000803e3d6000fd5b505050506040513d601f19601f82011682018060405250810190615862919061f051565b90506000603b60009054906101000a90046001600160a01b03166001600160a01b0316630855d1516040518163ffffffff1660e01b815260040160206040518083038186803b1580156158b457600080fd5b505afa1580156158c8573d6000803e3d6000fd5b505050506040513d601f19601f820116820180604052508101906158ec919061f051565b90506000603b60009054906101000a90046001600160a01b03166001600160a01b03166304e76c8f6040518163ffffffff1660e01b815260040160206040518083038186803b15801561593e57600080fd5b505afa158015615952573d6000803e3d6000fd5b505050506040513d601f19601f82011682018060405250810190615976919061f051565b6040516308c0a84360e11b81526001600160a01b03868116600483015291925060009185169063118150869060240160206040518083038186803b1580156159bd57600080fd5b505afa1580156159d1573d6000803e3d6000fd5b505050506040513d601f19601f820116820180604052508101906159f5919061f051565b603954603b5460408051630b08bfd960e01b8152905193945060009361ffff600160401b8504811694600160601b900416926001600160a01b031691630b08bfd9916004808301926020929190829003018186803b158015615a5657600080fd5b505afa158015615a6a573d6000803e3d6000fd5b505050506040513d601f19601f82011682018060405250810190615a8e919061eef5565b615a98919061ef5d565b615aa2919061f084565b603954603b54604080516307c06f0560e51b8152905193945060009361ffff600160401b8504811694600160601b900416926001600160a01b03169163f80de0a0916004808301926020929190829003018186803b158015615b0357600080fd5b505afa158015615b17573d6000803e3d6000fd5b505050506040513d601f19601f82011682018060405250810190615b3b919061eef5565b615b45919061ef5d565b615b4f919061f084565b604051630db6cc8560e11b8152600481018490526001600160a01b0385811660248301526000604483015291925090861690631b6d990a90606401602060405180830381600087803b158015615ba457600080fd5b505af1158015615bb8573d6000803e3d6000fd5b505050506040513d601f19601f82011682018060405250810190615bdc919061ef7c565b615c3d5760405162461bcd60e51b815260206004820152602c60248201527f636f756c64206e6f74207265776172642052455020696e2072657665616c537060448201526b6f74436865636b2c20312e6160a01b60648201526084016116ea565b604051633832942560e21b8152600481018290526001600160a01b03848116602483015285169063e0ca509490604401602060405180830381600087803b158015615c8757600080fd5b505af1158015615c9b573d6000803e3d6000fd5b505050506040513d601f19601f82011682018060405250810190615cbf919061ef7c565b615d225760405162461bcd60e51b815260206004820152602e60248201527f636f756c64206e6f742072657761726420746f6b656e20696e2072657665616c60448201526d29b837ba21b432b1b5961018973160911b60648201526084016116ea565b505050505050505b60395462010000900460ff168015615d6357506001600160401b038516600090815260226020526040902054600160d01b900461ffff16155b15615d7a57615d7a856001600160401b031661bc58565b600160356000828254615d8d919061ef45565b90915550615d9b905061acd7565b6001600160401b03851660008181526022602090815260409182902060010154825161ffff80831682526201000090920490911691810191909152339260ff87169290917f965f1f4937cc1062d77f76cbd2533a8147d3202573f62b9dfd5eca47c5dcfdb1910160405180910390a45050505050565b615e1961a21d565b6039805461ffff909216600160601b0261ffff60601b19909216919091179055565b615e4361a21d565b602b54615e5190602061ef5d565b60376000828254615e62919061ef2e565b90915550614a449050602b600061e008565b6000611c6682610f8d84614876565b6060615e8e82614bcf565b615eaa5760405162461bcd60e51b81526004016116ea9061ee0b565b6001600160801b03808316600090815260226020908152604080832081516101c0810183528154958616815263ffffffff600160801b8704811694820194909452600160a01b86049093169183019190915261ffff600160c01b850481166060840152600160d01b85048116608084015260ff600160e01b86048116151560a0850152600160e81b86048116151560c0850152600160f01b909504909416151560e083015260018101548085166101008401526201000081049094166101208301526001600160401b03600160201b85048116610140840152600160601b9094049093166101608201526002830180549293919261018084019190615fae9061ee58565b80601f0160208091040260200160405190810160405280929190818152602001828054615fda9061ee58565b80156160275780601f10615ffc57610100808354040283529160200191616027565b820191906000526020600020905b81548152906001019060200180831161600a57829003601f168201915b505050918352505060038281015460209092019160ff169081111561604e5761604e61e1c7565b600381111561605f5761605f61e1c7565b905250602081015190915063ffffffff166000816001600160401b0381111561608a5761608a61e39e565b6040519080825280602002602001820160405280156160bd57816020015b60608152602001906001900390816160a85790505b50905060005b826001600160801b0316816001600160801b031610156161d45783516000906160ed90839061f02f565b6001600160801b0381166000908152602160205260408120600301805492935090916161189061ee58565b80601f01602080910402602001604051908101604052809291908181526020018280546161449061ee58565b80156161915780601f1061616657610100808354040283529160200191616191565b820191906000526020600020905b81548152906001019060200180831161617457829003601f168201915b505050505090508084846001600160801b0316815181106161b4576161b461ee42565b6020026020010181905250505080806161cc9061ef07565b9150506160c3565b50949350505050565b60006161e882614bcf565b6161f457506000919050565b6001600160801b038216600090815260226020526040902060010154600160601b90046001600160401b0316421180611c665750506001600160801b0316600090815260226020526040902054600160d01b900461ffff161590565b61625861a21d565b614a44600061dcc9565b600061456c6162718484615020565b6040518060400160405280600a8152602001690c6dedadad2e890c2e6d60b31b815250616b96565b6162a161a21d565b6001600160a01b0381166000908152602760209081526040822080546effffffffffffffffffffffffffffff1916905560378054919290916162e490849061ef2e565b909155505050565b600061456c6162fb8484615020565b604051806040016040528060098152602001686e756d546f6b656e7360b81b815250616b96565b600061632d82614bcf565b6163495760405162461bcd60e51b81526004016116ea9061ee0b565b506001600160801b03166000908152601f602090815260408083206001600160a01b03949094168352929052205460ff1690565b61638561a21d565b60398054911515620100000262ff000019909216919091179055565b6163ea6040805160e0810182526000808252602082018190529091820190815260200160006001600160a01b031681526020016060815260200160608152602001606081525090565b6001600160801b038216600090815260216020908152604091829020825160e08101845281546001600160401b038082168352600160401b8204169382019390935292909190830190600160801b900460ff16600381111561644e5761644e61e1c7565b600381111561645f5761645f61e1c7565b815260018201546001600160a01b031660208201526002820180546040909201916164899061ee58565b80601f01602080910402602001604051908101604052809291908181526020018280546164b59061ee58565b80156165025780601f106164d757610100808354040283529160200191616502565b820191906000526020600020905b8154815290600101906020018083116164e557829003601f168201915b5050505050815260200160038201805461651b9061ee58565b80601f01602080910402602001604051908101604052809291908181526020018280546165479061ee58565b80156165945780601f1061656957610100808354040283529160200191616594565b820191906000526020600020905b81548152906001019060200180831161657757829003601f168201915b505050505081526020016004820180546165ad9061ee58565b80601f01602080910402602001604051908101604052809291908181526020018280546165d99061ee58565b80156166265780601f106165fb57610100808354040283529160200191616626565b820191906000526020600020905b81548152906001019060200180831161660957829003601f168201915b5050505050815250509050919050565b602c54602b546000916166489161ef45565b905090565b600080805b600f811015613d1f57600181600f811061666e5761666e61ee42565b015461668a90600160801b90046001600160801b03168361ef45565b9150806166968161eea3565b915050616652565b602c818154811061421057600080fd5b6166b661a21d565b6039805491151563010000000263ff00000019909216919091179055565b603b546000906001600160a01b03166166ff5760405162461bcd60e51b81526004016116ea9061eebe565b603b5460408051632a49798160e11b815290516000926001600160a01b031691635492f302916004808301926020929190829003018186803b15801561674457600080fd5b505afa158015616758573d6000803e3d6000fd5b505050506040513d601f19601f8201168201806040525081019061677c919061f051565b6001600160a01b031614156167a35760405162461bcd60e51b81526004016116ea9061f274565b603b546040805163ca64f9e760e01b815290516000926001600160a01b03169163ca64f9e7916004808301926020929190829003018186803b1580156167e857600080fd5b505afa1580156167fc573d6000803e3d6000fd5b505050506040513d601f19601f82011682018060405250810190616820919061f051565b6001600160a01b031614156168475760405162461bcd60e51b81526004016116ea9061f2b8565b603b546040805163ca64f9e760e01b815290516000926001600160a01b03169163ca64f9e7916004808301926020929190829003018186803b15801561688c57600080fd5b505afa1580156168a0573d6000803e3d6000fd5b505050506040513d601f19601f820116820180604052508101906168c4919061f051565b90506000603b60009054906101000a90046001600160a01b03166001600160a01b0316635492f3026040518163ffffffff1660e01b815260040160206040518083038186803b15801561691657600080fd5b505afa15801561692a573d6000803e3d6000fd5b505050506040513d601f19601f8201168201806040525081019061694e919061f051565b9050848060005b6003811015616b345760405163065ee72760e51b81526001600160a01b0383811660048301526000919087169063cbdce4e09060240160206040518083038186803b1580156169a357600080fd5b505afa1580156169b7573d6000803e3d6000fd5b505050506040513d601f19601f820116820180604052508101906169db919061eef5565b6001600160a01b0384166000908152602660205260409020549091508811616a065782935050616b34565b6001600160a01b0383166000908152602660205260409020548810801590616a4557506001600160a01b03831660009081526026602052604090205415155b15616a82576001600160a01b038316600090815260266020526040812054616a6d908a61ef2e565b9050808210616a80578394505050616b34565b505b878110616a925782935050616b34565b60405163792f4f6960e11b81526001600160a01b03848116600483015286169063f25e9ed29060240160206040518083038186803b158015616ad357600080fd5b505afa158015616ae7573d6000803e3d6000fd5b505050506040513d601f19601f82011682018060405250810190616b0b919061f051565b92506001600160a01b038316616b215750616b34565b5080616b2c8161eea3565b915050616955565b50909695505050505050565b6000616b4b82614bcf565b616b675760405162461bcd60e51b81526004016116ea9061ee0b565b506001600160801b0316600090815260226020526040902060010154600160601b90046001600160401b031690565b6000808383604051602001616bac92919061f2fa565b60408051808303601f1901815291815281516020928301206000908152918052902054949350505050565b616bdf61a21d565b6001600160a01b038116600090815260246020908152604080832080546001600160e81b031916815560010183905560259091528120616c1e9161e026565b6001600160a01b0381166000908152602660209081526040822091909155616c4790602261ef5d565b603760008282546162e4919061ef2e565b60606000836001600160801b0316118015616c845750816001600160801b0316836001600160801b0316105b616ca05760405162461bcd60e51b81526004016116ea9061f178565b6000835b616caf84600161f02f565b6001600160801b0316816001600160801b03161015616eae576001600160801b03808216600090815260226020908152604080832081516101c0810183528154958616815263ffffffff600160801b8704811694820194909452600160a01b86049093169183019190915261ffff600160c01b850481166060840152600160d01b85048116608084015260ff600160e01b86048116151560a0850152600160e81b86048116151560c0850152600160f01b909504909416151560e083015260018101548085166101008401526201000081049094166101208301526001600160401b03600160201b85048116610140840152600160601b9094049093166101608201526002830180549293919261018084019190616dcc9061ee58565b80601f0160208091040260200160405190810160405280929190818152602001828054616df89061ee58565b8015616e455780601f10616e1a57610100808354040283529160200191616e45565b820191906000526020600020905b815481529060010190602001808311616e2857829003601f168201915b505050918352505060038281015460209092019160ff1690811115616e6c57616e6c61e1c7565b6003811115616e7d57616e7d61e1c7565b9052506020810151909150616e989063ffffffff168461f02f565b9250508080616ea69061ef07565b915050616ca4565b506000816001600160801b03166001600160401b03811115616ed257616ed261e39e565b604051908082528060200260200182016040528015616f0557816020015b6060815260200190600190039081616ef05790505b5090506000855b616f1786600161f02f565b6001600160801b0316816001600160801b03161015617221576001600160801b03808216600090815260226020908152604080832081516101c0810183528154958616815263ffffffff600160801b8704811694820194909452600160a01b86049093169183019190915261ffff600160c01b850481166060840152600160d01b85048116608084015260ff600160e01b86048116151560a0850152600160e81b86048116151560c0850152600160f01b909504909416151560e083015260018101548085166101008401526201000081049094166101208301526001600160401b03600160201b85048116610140840152600160601b90940490931661016082015260028301805492939192610180840191906170349061ee58565b80601f01602080910402602001604051908101604052809291908181526020018280546170609061ee58565b80156170ad5780601f10617082576101008083540402835291602001916170ad565b820191906000526020600020905b81548152906001019060200180831161709057829003601f168201915b505050918352505060038281015460209092019160ff16908111156170d4576170d461e1c7565b60038111156170e5576170e561e1c7565b905250905060005b816020015163ffffffff16816001600160801b0316101561720c57815160009061711890839061f02f565b6001600160801b0381166000908152602160205260408120600201805492935090916171439061ee58565b80601f016020809104026020016040519081016040528092919081815260200182805461716f9061ee58565b80156171bc5780601f10617191576101008083540402835291602001916171bc565b820191906000526020600020905b81548152906001019060200180831161719f57829003601f168201915b505050505090508087876001600160801b0316815181106171df576171df61ee42565b60209081029190910101526171f560018761f02f565b9550505080806172049061ef07565b9150506170ed565b505080806172199061ef07565b915050616f0c565b509095945050505050565b61723461a21d565b603980549115156101000261ff0019909216919091179055565b60606000836001600160801b031611801561727a5750816001600160801b0316836001600160801b0316105b6172965760405162461bcd60e51b81526004016116ea9061f178565b60006172a2848461ef99565b6172ad90600161f02f565b90506000816001600160801b03166001600160401b038111156172d2576172d261e39e565b60405190808252806020026020018201604052801561730557816020015b60608152602001906001900390816172f05790505b50905060005b826001600160801b0316816001600160801b03161015611c615760226000617333838961f02f565b6001600160801b03166001600160801b0316815260200190815260200160002060020180546173619061ee58565b80601f016020809104026020016040519081016040528092919081815260200182805461738d9061ee58565b80156173da5780601f106173af576101008083540402835291602001916173da565b820191906000526020600020905b8154815290600101906020018083116173bd57829003601f168201915b505050505082826001600160801b0316815181106173fa576173fa61ee42565b602002602001018190525080806174109061ef07565b91505061730b565b6001600160a01b038116600090815260256020526040812081805b600f81101561194f578281600f811061744e5761744e61ee42565b015461746a90600160801b90046001600160801b03168361ef45565b9150806174768161eea3565b915050617433565b600061748982614bcf565b6174a55760405162461bcd60e51b81526004016116ea9061ee0b565b60006174b08361422a565b15611c66576001600160801b03831660009081526022602052604090206001015461456c904290600160601b90046001600160401b031661ef2e565b6000816040516020016174ff919061f320565b6040516020818303038152906040528051906020012083604051602001617526919061f320565b60405160208183030381529060405280519060200120141561754a57506001611c66565b506000611c66565b6040516bffffffffffffffffffffffff194160601b166020820152600090819042906034016040516020818303038152906040528051906020012060001c61759a919061f084565b446175a3614573565b6040516020016175b591815260200190565b60408051601f1981840301815291905280516020909101206175d7904261ef45565b6175e1919061ef45565b6175eb919061ef45565b6040516020016175fd91815260200190565b60408051601f19818403018152919052805160209091012092915050565b606061762682614bcf565b6176425760405162461bcd60e51b81526004016116ea9061ee0b565b6001600160801b0382166000908152602860209081526040808320805482518185028101850190935280835291929091908301828280156176ac57602002820191906000526020600020905b81546001600160a01b0316815260019091019060200180831161768e575b50505050509050600081516001600160401b038111156176ce576176ce61e39e565b6040519080825280602002602001820160405280156176f7578160200160208202803683370190505b50905060005b8251816001600160801b0316101561194f576001600160801b038086166000908152601f602052604081208551909286919085169081106177405761774061ee42565b60200260200101516001600160a01b03166001600160a01b0316815260200190815260200160002060000160029054906101000a900460ff1660ff1682826001600160801b0316815181106177975761779761ee42565b6001600160801b0390921660209283029190910190910152806177b98161ef07565b9150506176fd565b60006177cc82614bcf565b6177e85760405162461bcd60e51b81526004016116ea9061ee0b565b506001600160801b03166000908152601f602090815260408083206001600160a01b039490941683529290522054610100900460ff1690565b602d818154811061421057600080fd5b6001600160a01b038116600090815260246020908152604080832081516101408101835281546001600160801b038116808352600160801b8083046001600160401b0390811697850197909752600160c01b80840461ffff1696850196909652600160d01b830460ff90811615156060860152600160d81b8404811615156080860152600160e01b909304909216151560a084015260019093015480861660c0840152600160401b8104861660e0840152908104851661010083015292909204909216610120820152829161790685826177c1565b1580156179195750617917816142e1565b155b801561792b5750617929816141a7565b155b1561793557600192505b50909392505050565b6040805160208101849052908101829052600090606001615057565b606060008211801561796c5750818311155b8015617979575060018310155b6179c55760405162461bcd60e51b815260206004820152601960248201527f6b206f72204e20617265206e6f74204f4b20666f7220524e470000000000000060448201526064016116ea565b60006179cf617552565b6040516020016179e191815260200190565b60408051601f19818403018152828252805160209182012081840152815180840382018152928201909152815191012090506000846001600160401b03811115617a2d57617a2d61e39e565b604051908082528060200260200182016040528015617a56578160200160208202803683370190505b509050600080617a6760148861ef45565b905060005b81811015617baa57617a7e818061ef5d565b617a88908661ef45565b604051602001617a9a91815260200190565b6040516020818303038152906040528051906020012060001c871115617abf57617b98565b600087617acc838061ef5d565b617ad6908861ef45565b604051602001617ae891815260200190565b6040516020818303038152906040528051906020012060001c617b0b919061f33c565b90506000805b85811015617b555782878281518110617b2c57617b2c61ee42565b60200260200101511415617b435760019150617b55565b80617b4d8161eea3565b915050617b11565b5080617b875781868681518110617b6e57617b6e61ee42565b6020908102919091010152617b8485600161ef45565b94505b898510617b95575050617baa565b50505b80617ba28161eea3565b915050617a6c565b5086821015617c5e5760005b86811015617c5c57806000805b85811015617c075782878281518110617bde57617bde61ee42565b60200260200101511415617bf55760019150617c07565b80617bff8161eea3565b915050617bc3565b5080617c395781868681518110617c2057617c2061ee42565b6020908102919091010152617c3685600161ef45565b94505b898510617c47575050617c5c565b50508080617c549061eea3565b915050617bb6565b505b8682146172215760405162461bcd60e51b815260206004820152601060248201526f149391c81a5b9cdd59999a58da595b9d60821b60448201526064016116ea565b617ca861af62565b603b546001600160a01b0316617cd05760405162461bcd60e51b81526004016116ea9061eebe565b617cd98561499c565b617d3d5760405162461bcd60e51b815260206004820152602f60248201527f636f6d6d697420706572696f64206e6565647320746f206265206f70656e206660448201526e1bdc881d1a1a5cc818985d18da1259608a1b60648201526084016116ea565b6001600160801b0385166000908152601f6020908152604080832033845290915290205460ff1615617dc35760405162461bcd60e51b815260206004820152602960248201527f557365722068617320616c726561647920636f6d6d6974656420746f207468696044820152681cc818985d18da125960ba1b60648201526084016116ea565b617dcd8533618da2565b617e3f5760405162461bcd60e51b815260206004820152603860248201527f55736572206e6565647320746f20626520616c6c6f636174656420746f20746860448201527f697320626174636820746f20636f6d6d6974206f6e206974000000000000000060648201526084016116ea565b603b5460408051632a49798160e11b815290516000926001600160a01b031691635492f302916004808301926020929190829003018186803b158015617e8457600080fd5b505afa158015617e98573d6000803e3d6000fd5b505050506040513d601f19601f82011682018060405250810190617ebc919061f051565b6001600160a01b03161415617ee35760405162461bcd60e51b81526004016116ea9061f274565b603b54604080516001624ee91360e11b0319815290516000926001600160a01b03169163ff622dda916004808301926020929190829003018186803b158015617f2b57600080fd5b505afa158015617f3f573d6000803e3d6000fd5b505050506040513d601f19601f82011682018060405250810190617f63919061eef5565b90506000617f7133836166d4565b60395490915060ff1615617fd0576001600160a01b038116600090815260266020526040902054821115617fd0576001600160a01b038116600090815260266020526040812054617fc2908461ef2e565b9050617fce818361afaf565b505b6000336000908152602360205260408082209051634c2f35d960e01b815260048101919091526001600160801b038316602482015273__$85afbab79b2b776d70bef879a32ed56424$__90634c2f35d99060440160206040518083038186803b15801561803c57600080fd5b505af4158015618050573d6000803e3d6000fd5b505050506040513d601f19601f82011682018060405250810190618074919061f21c565b9050886001600160801b0316816001600160801b031614156181365733600090815260236020526040908190209051634c2f35d960e01b815260048101919091526001600160801b038a16602482015273__$85afbab79b2b776d70bef879a32ed56424$__90634c2f35d99060440160206040518083038186803b1580156180fb57600080fd5b505af415801561810f573d6000803e3d6000fd5b505050506040513d601f19601f82011682018060405250810190618133919061f21c565b90505b61814282823387615247565b6181855760405162461bcd60e51b81526020600482015260146024820152733737ba1030903b30b634b2103837b9b4ba34b7b760611b60448201526064016116ea565b6000618191338b615020565b90506181bf81604051806040016040528060098152602001686e756d546f6b656e7360b81b8152508761dd19565b6181ef816040518060400160405280600a8152602001690c6dedadad2e890c2e6d60b31b8152508b60001c61dd19565b61821f816040518060400160405280600a815260200169636f6d6d6974566f746560b01b8152508a60001c61dd19565b6001600160801b038a166000908152601f602090815260408083203384528252909120805466ffffffff0000001916630100000063ffffffff8b160217815587516182729260029092019189019061df84565b506001600160801b038a1660009081526029602052604081208054600192906182a090849061ffff1661f1d5565b92506101000a81548161ffff021916908361ffff160217905550600060246000336001600160a01b03166001600160a01b0316815260200190815260200160002090506001602260008d6001600160801b03166001600160801b0316815260200190815260200160002060000160189054906101000a900461ffff16618326919061f259565b6001600160801b038c166000908152602260209081526040808320805461ffff60c01b1916600160c01b61ffff969096169590950294909417909355835467ffffffffffffffff60801b1916600160801b426001600160401b031602178455601f81528282203383529052908120805460ff1916600117905560378054601092906183b290849061ef45565b925050819055506001603560008282546183cc919061ef45565b909155506183da905061acd7565b60405186815233906001600160801b038d16907f42864d9683ff5b12c3b2cc65d705af5aab104b03bc700b802f79e5c971ef08a19060200160405180910390a35050505050505050505050565b600061664833613fb1565b61843a61a21d565b6001600160801b0381166000908152602860209081526040808320805482518185028101850190935280835291929091908301828280156184a457602002820191906000526020600020905b81546001600160a01b03168152600190910190602001808311618486575b5050505050905060005b8151816001600160801b031610156120dc57600082826001600160801b0316815181106184dd576184dd61ee42565b6020026020010151905060006184f38286615020565b905061852081604051806040016040528060098152602001686e756d546f6b656e7360b81b81525061dd83565b61854c816040518060400160405280600a8152602001690c6dedadad2e890c2e6d60b31b81525061dd83565b618578816040518060400160405280600a815260200169636f6d6d6974566f746560b01b81525061dd83565b6001600160801b0385166000908152601f602090815260408083206001600160a01b03861684529091528120805466ffffffffffffff19168155906185c0600183018261df4a565b6185ce60028301600061df4a565b506185dd90506020600261ef5d565b6185e96020600361ef5d565b6185f3919061ef45565b60376000828254618604919061ef2e565b92505081905550505080806186189061ef07565b9150506184ae565b6060600061862e848461795a565b949350505050565b61863e61a21d565b60005b81518110156122d157600082828151811061865e5761865e61ee42565b6020026020010151905061867181616bd7565b508061867c8161eea3565b915050618641565b602860205281600052604060002081815481106186a057600080fd5b6000918252602090912001546001600160a01b03169150829050565b6186c461a21d565b6039805460ff1916911515919091179055565b60006186e282614bcf565b6186fe5760405162461bcd60e51b81526004016116ea9061ee0b565b506001600160801b0316600090815260226020526040902060010154600160201b90046001600160401b031690565b606061873882614bcf565b6187545760405162461bcd60e51b81526004016116ea9061ee0b565b6001600160801b0382166000908152602860209081526040808320805482518185028101850190935280835291929091908301828280156187be57602002820191906000526020600020905b81546001600160a01b031681526001909101906020018083116187a0575b50505050509050600081516001600160401b038111156187e0576187e061e39e565b60405190808252806020026020018201604052801561881357816020015b60608152602001906001900390816187fe5790505b50905060005b8251816001600160801b0316101561194f576001600160801b038086166000908152601f6020526040812085519092869190851690811061885c5761885c61ee42565b60200260200101516001600160a01b03166001600160a01b0316815260200190815260200160002060020180546188929061ee58565b80601f01602080910402602001604051908101604052809291908181526020018280546188be9061ee58565b801561890b5780601f106188e05761010080835404028352916020019161890b565b820191906000526020600020905b8154815290600101906020018083116188ee57829003601f168201915b505050505082826001600160801b03168151811061892b5761892b61ee42565b602002602001018190525080806189419061ef07565b915050618819565b603b546001600160a01b03166189715760405162461bcd60e51b81526004016116ea9061eebe565b618979615075565b6189816120e1565b61898a8161b643565b61899381614a4e565b6189a5816001600160801b031661a277565b611adb81611957565b6189b661a21d565b60005b81518110156122d15760008282815181106189d6576189d661ee42565b602002602001015190506189e981616299565b50806189f48161eea3565b9150506189b9565b618a0461a21d565b61ffff16603855565b618a1561a21d565b6039805469ffff0000ff00000000001916650100000000009315159390930269ffff0000000000000000191692909217600160401b61ffff9290921691909102179055565b6060618a6582614bcf565b618a815760405162461bcd60e51b81526004016116ea9061ee0b565b6001600160801b03808316600090815260226020908152604080832081516101c0810183528154958616815263ffffffff600160801b8704811694820194909452600160a01b86049093169183019190915261ffff600160c01b850481166060840152600160d01b85048116608084015260ff600160e01b86048116151560a0850152600160e81b86048116151560c0850152600160f01b909504909416151560e083015260018101548085166101008401526201000081049094166101208301526001600160401b03600160201b85048116610140840152600160601b9094049093166101608201526002830180549293919261018084019190618b859061ee58565b80601f0160208091040260200160405190810160405280929190818152602001828054618bb19061ee58565b8015618bfe5780601f10618bd357610100808354040283529160200191618bfe565b820191906000526020600020905b815481529060010190602001808311618be157829003601f168201915b505050918352505060038281015460209092019160ff1690811115618c2557618c2561e1c7565b6003811115618c3657618c3661e1c7565b905250602081015190915063ffffffff166000816001600160401b03811115618c6157618c6161e39e565b604051908082528060200260200182016040528015618c9457816020015b6060815260200190600190039081618c7f5790505b50905060005b82816001600160801b031610156161d4578351600090618cbb90839061f02f565b6001600160801b038116600090815260216020526040812060020180549293509091618ce69061ee58565b80601f0160208091040260200160405190810160405280929190818152602001828054618d129061ee58565b8015618d5f5780601f10618d3457610100808354040283529160200191618d5f565b820191906000526020600020905b815481529060010190602001808311618d4257829003601f168201915b505050505090508084846001600160801b031681518110618d8257618d8261ee42565b602002602001018190525050508080618d9a9061ef07565b915050618c9a565b6001600160801b0382166000908152602860209081526040808320805482518185028101850190935280835284938493929190830182828015618e0e57602002820191906000526020600020905b81546001600160a01b03168152600190910190602001808311618df0575b5050505050905060005b8151811015618e6f57846001600160a01b0316828281518110618e3d57618e3d61ee42565b60200260200101516001600160a01b03161415618e5d5760019250618e6f565b80618e678161eea3565b915050618e18565b5090949350505050565b618e8161a21d565b60005b816001600160801b0316816001600160801b031610156120dc576000618eaa828561f02f565b6001600160801b0381811660009081526022602052604081205492935090821691618ee290600160801b900463ffffffff168361f02f565b9050815b816001600160801b0316816001600160801b03161015618f9a576001600160801b038116600090815260216020526040812080546001600160881b03191681556001810180546001600160a01b031916905590618f46600283018261df4a565b618f5460038301600061df4a565b618f6260048301600061df4a565b50618f7190506020600261ef5d565b60376000828254618f82919061ef2e565b90915550819050618f928161ef07565b915050618ee6565b506001600160801b038316600090815260226020526040812080546001600160f81b03191681556001810180546001600160a01b031916905590618fe1600283018261df4a565b50600301805460ff19169055618ff96020600261ef5d565b6037600082825461900a919061ef2e565b90915550506001600160801b0383166000908152602960209081526040808320805461ffff19908116909155602a909252909120805490911690556190516010600261ef5d565b60376000828254619062919061ef2e565b90915550506001600160801b0383166000908152602860209081526040808320805482518185028101850190935280835291929091908301828280156190d157602002820191906000526020600020905b81546001600160a01b031681526001909101906020018083116190b3575b5050505050905060005b8151816001600160801b0316101561924d57600082826001600160801b03168151811061910a5761910a61ee42565b6020026020010151905060006191208288615020565b905061914d81604051806040016040528060098152602001686e756d546f6b656e7360b81b81525061dd83565b619179816040518060400160405280600a8152602001690c6dedadad2e890c2e6d60b31b81525061dd83565b6191a5816040518060400160405280600a815260200169636f6d6d6974566f746560b01b81525061dd83565b6001600160801b0387166000908152601f602090815260408083206001600160a01b03861684529091528120805466ffffffffffffff19168155906191ed600183018261df4a565b6191fb60028301600061df4a565b5061920a90506020600261ef5d565b6192166020600361ef5d565b619220919061ef45565b60376000828254619231919061ef2e565b92505081905550505080806192459061ef07565b9150506190db565b506001600160801b038416600090815260286020526040812061926f9161e008565b805161927c90602061ef5d565b6037600082825461928d919061ef2e565b90915550506040516001600160801b038516907f72c2fcc891fe835b86fc8bb9abdc52adf52499c52289b3c49e1461eabea2717590600090a26001602f60108282829054906101000a90046001600160801b03166192eb919061f02f565b92506101000a8154816001600160801b0302191690836001600160801b0316021790555050505050808061931e9061ef07565b915050618e84565b603b546001600160a01b031661934e5760405162461bcd60e51b81526004016116ea9061eebe565b600061935a33836166d4565b9050600061936782615e74565b6001600160a01b03831660009081526026602052604090205461938a919061ef2e565b9050828110156193ec5760405162461bcd60e51b815260206004820152602760248201527f617661696c61626c65546f6b656e732073686f756c64206265203e3d205f6e756044820152666d546f6b656e7360c81b60648201526084016116ea565b603b546040805163ca64f9e760e01b815290516000926001600160a01b03169163ca64f9e7916004808301926020929190829003018186803b15801561943157600080fd5b505afa158015619445573d6000803e3d6000fd5b505050506040513d601f19601f82011682018060405250810190619469919061f051565b6001600160a01b03841660009081526026602052604081208054929350869290919061949690849061ef2e565b9091555050604051630895993360e11b8152600481018590526001600160a01b03848116602483015282169063112b326690604401602060405180830381600087803b1580156194e557600080fd5b505af11580156194f9573d6000803e3d6000fd5b505050506040513d601f19601f8201168201806040525081019061951d919061ef7c565b61958f5760405162461bcd60e51b815260206004820152603b60248201527f436f756c64206e6f74207769746864726177566f74696e67526967687473207460448201527f68726f7567682050726f78795374616b654465616c6c6f63617465000000000060648201526084016116ea565b61959761acd7565b826001600160a01b03167ffaeb7dbb9992397d26ea1944efd40c80b40f702faf69b46c67ad10aba68ccb79856040516195d291815260200190565b60405180910390a250505050565b60606195eb82614bcf565b6195f457600080fd5b6001600160801b0382166000908152602260205260409020600201805461961a9061ee58565b80601f01602080910402602001604051908101604052809291908181526020018280546196469061ee58565b80156196935780601f1061966857610100808354040283529160200191619693565b820191906000526020600020905b81548152906001019060200180831161967657829003601f168201915b50505050509050919050565b6196a761a21d565b6001600160a01b03811661970c5760405162461bcd60e51b815260206004820152602660248201527f4f776e61626c653a206e6577206f776e657220697320746865207a65726f206160448201526564647265737360d01b60648201526084016116ea565b611ae38161dcc9565b6000828260405160200161505792919061f350565b3360009081526024602052604090208054600160e01b900460ff166197d557602e80546001810182556000919091527f37fa166cbdbfbb1561ccd9ea985ec0218b5e68502e230525f544285b2bdf3d7e0180546001600160a01b03191633179055805460ff60e01b1916600160e01b1781556197a8600f602061ef5d565b6197b46001602061ef45565b6197be919061ef45565b603760008282546197cf919061ef45565b90915550505b603b546001600160a01b03166197fd5760405162461bcd60e51b81526004016116ea9061eebe565b603b60009054906101000a90046001600160a01b03166001600160a01b03166398a54e2b6040518163ffffffff1660e01b815260040160206040518083038186803b15801561984b57600080fd5b505afa15801561985f573d6000803e3d6000fd5b505050506040513d601f19601f82011682018060405250810190619883919061eef5565b602c54602b54619893919061ef45565b106198eb5760405162461bcd60e51b815260206004820152602260248201527f4d6178696d756d207265676973746572656420776f726b65727320616c726561604482015261647960f01b60648201526084016116ea565b8054600160d01b900460ff16156199445760405162461bcd60e51b815260206004820181905260248201527f576f726b657220697320616c726561647920726567697374657265642028312960448201526064016116ea565b3360009081526027602052604090205460ff16158015619979575033600090815260276020526040902054610100900460ff16155b6199c55760405162461bcd60e51b815260206004820181905260248201527f576f726b657220697320616c726561647920726567697374657265642028322960448201526064016116ea565b603b60009054906101000a90046001600160a01b03166001600160a01b0316639fb491f66040518163ffffffff1660e01b815260040160206040518083038186803b158015619a1357600080fd5b505afa158015619a27573d6000803e3d6000fd5b505050506040513d601f19601f82011682018060405250810190619a4b919061eef5565b8154600160c01b900461ffff1610801590619b015750603b60009054906101000a90046001600160a01b03166001600160a01b0316630f1f0ffe6040518163ffffffff1660e01b815260040160206040518083038186803b158015619aaf57600080fd5b505afa158015619ac3573d6000803e3d6000fd5b505050506040513d601f19601f82011682018060405250810190619ae7919061eef5565b6001820154619aff906001600160401b03164261ef2e565b105b15619b645760405162461bcd60e51b815260206004820152602d60248201527f41646472657373206b69636b65642074656d706f726172696c792066726f6d2060448201526c3830b93a34b1b4b830ba34b7b760991b60648201526084016116ea565b60395460ff1615619c5457603b54604080516001624ee91360e11b0319815290516000926001600160a01b03169163ff622dda916004808301926020929190829003018186803b158015619bb757600080fd5b505afa158015619bcb573d6000803e3d6000fd5b505050506040513d601f19601f82011682018060405250810190619bef919061eef5565b90506000619bfd33836166d4565b6001600160a01b038116600090815260266020526040902054909150821115619c51576001600160a01b038116600090815260266020526040812054619c43908461ef2e565b9050619c4f818361afaf565b505b50505b619c5d3361dbd6565b80546001820180546001600160401b03421667ffffffffffffffff1990911617905563ffffffff60c01b1916600160d01b178155619c9d6020600261ef5d565b60376000828254619cae919061ef45565b92505081905550600160356000828254619cc8919061ef45565b90915550619cd6905061acd7565b60405142815233907f439d77b7534ec3108fc6143bd4fbabde0b9f2bb54f7b0730d1f70dd2135b765f9060200160405180910390a250565b6001600160a01b038116600090815260246020908152604080832081516101408101835281546001600160801b0381168083526001600160401b03600160801b80840482169785019790975261ffff600160c01b808504919091169685019690965260ff600160d01b8404811615156060860152600160d81b8404811615156080860152600160e01b909304909216151560a084015260019093015480821660c0840152600160401b8104821660e0840152948504811661010083015292909304909116610120830152619de28482616322565b158015619df35750619df3816141a7565b15619dfc575060005b6001600160801b03169392505050565b619e80604080516101c08101825260008082526020820181905291810182905260608082018390526080820183905260a0820183905260c0820183905260e082018390526101008201839052610120820183905261014082018390526101608201839052610180820152906101a082015290565b619e8982614bcf565b619e9257600080fd5b6001600160801b0380831660009081526022602090815260409182902082516101c0810184528154948516815263ffffffff600160801b8604811693820193909352600160a01b85049092169282019290925261ffff600160c01b840481166060830152600160d01b84048116608083015260ff600160e01b85048116151560a0840152600160e81b85048116151560c0840152600160f01b909404909316151560e082015260018201548084166101008301526201000081049093166101208201526001600160401b03600160201b84048116610140830152600160601b90930490921661016083015260028101805461018084019190619f939061ee58565b80601f0160208091040260200160405190810160405280929190818152602001828054619fbf9061ee58565b801561a00c5780601f10619fe15761010080835404028352916020019161a00c565b820191906000526020600020905b815481529060010190602001808311619fef57829003601f168201915b505050918352505060038281015460209092019160ff169081111561a0335761a03361e1c7565b600381111561a0445761a04461e1c7565b90525092915050565b600061a058836142e1565b61a0b75760405162461bcd60e51b815260206004820152602a60248201527f5f446174614261746368496420636865636b696e6720766f7465206d757374206044820152691a185d9948195b99195960b21b60648201526084016116ea565b6001600160801b0383166000908152601f602090815260408083206001600160a01b0388168452909152902054610100900460ff1661a14c5760405162461bcd60e51b815260206004820152602b60248201527f75736572206d75737420686176652072657665616c656420696e20746869732060448201526a0ced2eccadc4084c2e8c6d60ab1b60648201526084016116ea565b600061a157846145bb565b61a16257600061a165565b60015b60405160f082901b60ff60f01b1660208201526022810185905260ff9091169150600090604201604051602081830303815290604052805190602001209050600061a1b08787614535565b905080821461a2135760405162461bcd60e51b815260206004820152602960248201527f6765744e756d50617373696e67546f6b656e733a20686173686573206d75737460448201526808189948195c5d585b60ba1b60648201526084016116ea565b61528687876162ec565b6000546001600160a01b03163314614a445760405162461bcd60e51b815260206004820181905260248201527f4f776e61626c653a2063616c6c6572206973206e6f7420746865206f776e657260448201526064016116ea565b600061a28882602d8054905061dddc565b905060005b8181101561a393576000602d828154811061a2aa5761a2aa61ee42565b60009182526020808320909101546001600160a01b0316808352602490915260409091208054919250906001600160801b031661a37e57805461ffff60d01b1916815561a2f68261b26e565b61a2ff8261b3db565b6001600160a01b03821660008181526027602052604090819020805462ff000019169055517f9dadcedba048e92b943ea1c5861cee1df63a566d7f795869c004780c1c698e2b9061a3539042815260200190565b60405180910390a261a3676001600361ef5d565b6037600082825461a378919061ef2e565b90915550505b5050808061a38b9061eea3565b91505061a28d565b50602d546122d1576122d1602d600061e008565b6031546001600160801b0316600090815260226020526040902054600160e01b900460ff1661a4375760405162461bcd60e51b815260206004820152603660248201527f43616e277420616c6c6f6361746520776f726b2c207468652063757272656e74604482015275206261746368206973206e6f7420636f6d706c65746560501b60648201526084016116ea565b6031546001600160801b0316600090815260226020526040902054600160f01b900460ff161561a4cf5760405162461bcd60e51b815260206004820152603b60248201527f43616e277420616c6c6f6361746520776f726b2c207468652063757272656e7460448201527f20626174636820697320616c726561647920616c6c6f6361746564000000000060648201526084016116ea565b600061a5f361a568602b80549050603b60009054906101000a90046001600160a01b03166001600160a01b031663dfeceed76040518163ffffffff1660e01b815260040160206040518083038186803b15801561a52b57600080fd5b505afa15801561a53f573d6000803e3d6000fd5b505050506040513d601f19601f8201168201806040525081019061a563919061eef5565b61dddc565b603b60009054906101000a90046001600160a01b03166001600160a01b031663bd40ef4c6040518163ffffffff1660e01b815260040160206040518083038186803b15801561a5b657600080fd5b505afa15801561a5ca573d6000803e3d6000fd5b505050506040513d601f19601f8201168201806040525081019061a5ee919061eef5565b61ddf2565b9050603261ffff8216111561a6705760405162461bcd60e51b815260206004820152603960248201527f73656c65637465645f6b206d757374206265206174206d6f7374204d41585f5760448201527f4f524b45525f414c4c4f43415445445f5045525f42415443480000000000000060648201526084016116ea565b602b54603b546040805163189460df60e31b815290516001600160a01b039092169163c4a306f891600480820192602092909190829003018186803b15801561a6b857600080fd5b505afa15801561a6cc573d6000803e3d6000fd5b505050506040513d601f19601f8201168201806040525081019061a6f0919061eef5565b60005461a70d90600160a81b90046001600160401b03164261f239565b6001600160401b0316106122d1576031546001600160801b03166000818152602260209081526040808320805463ffffffff60c01b1916600160d01b61ffff891690810261ffff60c01b191691909117600160c01b91909102179055603b548151631b4930b560e11b815291516001600160a01b0390911692633692616a9260048082019391829003018186803b15801561a7a757600080fd5b505afa15801561a7bb573d6000803e3d6000fd5b505050506040513d601f19601f8201168201806040525081019061a7df919061eef5565b61a7e9904261ef45565b90506000603b60009054906101000a90046001600160a01b03166001600160a01b03166372e540306040518163ffffffff1660e01b815260040160206040518083038186803b15801561a83b57600080fd5b505afa15801561a84f573d6000803e3d6000fd5b505050506040513d601f19601f8201168201806040525081019061a873919061eef5565b61a886906001600160401b03841661ef45565b6001600160801b0384166000908152602260205260409020600180820180546001600160401b03808616600160601b0267ffffffffffffffff60601b19918916600160201b029190911673ffffffffffffffffffffffffffffffff000000001990921691909117179055815460ff60f01b1916600160f01b1790915590915061a9116008600461ef5d565b61a91c60028061ef5d565b61a926919061ef45565b61a930919061ef45565b6037600082825461a941919061ef45565b9091555050600161ffff86161080159061a95c575060018410155b61a9bb5760405162461bcd60e51b815260206004820152602a60248201527f4661696c20647572696e6720616c6c6f636174696f6e3a206e6f7420656e6f75604482015269676820776f726b65727360b01b60648201526084016116ea565b600061a9cb8661ffff1686618620565b9050600081516001600160401b0381111561a9e85761a9e861e39e565b60405190808252806020026020018201604052801561aa11578160200160208202803683370190505b50905060005b825181101561aaa657602b83828151811061aa345761aa3461ee42565b60200260200101518154811061aa4c5761aa4c61ee42565b9060005260206000200160009054906101000a90046001600160a01b031682828151811061aa7c5761aa7c61ee42565b6001600160a01b03909216602092830291909101909101528061aa9e8161eea3565b91505061aa17565b5060005b825181101561ac4257600082828151811061aac75761aac761ee42565b6020908102919091018101516001600160a01b03811660008181526024845260408082206001600160801b038d168352601f86528183209383529290945292909220805461ffff19169055915061ab1d8261b26e565b61ab268261de01565b6001600160801b03881660008181526028602090815260408220805460018082018355918452919092200180546001600160a01b0319166001600160a01b03861617905582546001600160801b0319169091178255818101805460089061ab9e908490600160401b90046001600160401b031661f372565b92506101000a8154816001600160401b0302191690836001600160401b031602179055506020600461abd0919061ef45565b6037600082825461abe1919061ef45565b90915550506040516001600160a01b03831681526001600160801b038916907fe4ee2dfabe57cee15e3f558890b20455f54c1fa0718e5276faad70a6500e6b8c9060200160405180910390a25050808061ac3a9061eea3565b91505061aaaa565b506000805467ffffffffffffffff60a81b1916600160a81b426001600160401b031602178155603180546001929061ac849084906001600160801b031661f02f565b92506101000a8154816001600160801b0302191690836001600160801b0316021790555061acb0617552565b60348190555060016035600082825461acc9919061ef45565b909155505050505050505050565b603b546001600160a01b031661acff5760405162461bcd60e51b81526004016116ea9061eebe565b603b5460408051632abe0d5f60e11b815290516000926001600160a01b03169163557c1abe916004808301926020929190829003018186803b15801561ad4457600080fd5b505afa15801561ad58573d6000803e3d6000fd5b505050506040513d601f19601f8201168201806040525081019061ad7c919061f051565b90506001600160a01b03811661add45760405162461bcd60e51b815260206004820152601d60248201527f734675656c3a206e756c6c2041646472657373204e6f742056616c696400000060448201526064016116ea565b6040513360248201526000906001600160a01b0383169060440160408051601f198184030181529181526020820180516001600160e01b0316631f5ac9c560e11b1790525161ae23919061f320565b6000604051808303816000865af19150503d806000811461ae60576040519150601f19603f3d011682016040523d82523d6000602084013e61ae65565b606091505b50506040513360248201529091506000906001600160a01b0384169060440160408051601f198184030181529181526020820180516001600160e01b03166358563d2160e01b1790525161aeb9919061f320565b6000604051808303816000865af19150503d806000811461aef6576040519150601f19603f3d011682016040523d82523d6000602084013e61aefb565b606091505b50509050818061af085750805b6120dc5760405162461bcd60e51b815260206004820152602560248201527f72656365697665722072656a6563746564205f7265747269657665534675656c6044820152640818d85b1b60da1b60648201526084016116ea565b600054600160a01b900460ff1615614a445760405162461bcd60e51b815260206004820152601060248201526f14185d5cd8589b194e881c185d5cd95960821b60448201526064016116ea565b603b546040805163ca64f9e760e01b815290516000926001600160a01b03169163ca64f9e7916004808301926020929190829003018186803b15801561aff457600080fd5b505afa15801561b008573d6000803e3d6000fd5b505050506040513d601f19601f8201168201806040525081019061b02c919061f051565b6001600160a01b0316141561b0535760405162461bcd60e51b81526004016116ea9061f2b8565b603b546040805163ca64f9e760e01b815290516000926001600160a01b03169163ca64f9e7916004808301926020929190829003018186803b15801561b09857600080fd5b505afa15801561b0ac573d6000803e3d6000fd5b505050506040513d601f19601f8201168201806040525081019061b0d0919061f051565b6040516304ada21f60e21b8152600481018590526001600160a01b038481166024830152919250908216906312b6887c90604401602060405180830381600087803b15801561b11e57600080fd5b505af115801561b132573d6000803e3d6000fd5b505050506040513d601f19601f8201168201806040525081019061b156919061ef7c565b61b1c85760405162461bcd60e51b815260206004820152603f60248201527f436f756c64206e6f74207265717565737420656e6f75676820616c6c6f63617460448201527f6564207374616b652c2072657175657374416c6c6f63617465645374616b650060648201526084016116ea565b6001600160a01b03821660009081526026602052604090205461b1fe5760206037600082825461b1f8919061ef45565b90915550505b6001600160a01b0382166000908152602660205260408120805485929061b22690849061ef45565b90915550506040518381526001600160a01b038316907f5aa5d56140767016c877a5333ac3e1ad31a09051098a8fdf7297c4b64530a9429060200160405180910390a2505050565b6001600160a01b0381166000908152602760205260409020805460ff16156122d1578054602b8054630100000090920463ffffffff16916000919061b2b59060019061ef2e565b8154811061b2c55761b2c561ee42565b600091825260209091200154835460ff1981168555603b5466ffffffff0000ff19909116600160a01b90910463ffffffff16630100000002178455602b546001600160a01b03909116915060021161b3845780602b8363ffffffff168154811061b3315761b33161ee42565b600091825260208083209190910180546001600160a01b0319166001600160a01b039485161790559183168152602790915260409020805466ffffffff0000001916630100000063ffffffff8516021790555b602b80548061b3955761b39561f394565b6001900381819060005260206000200160006101000a8154906001600160a01b030219169055905560206037600082825461b3d0919061ef2e565b909155505050505050565b6001600160a01b03811660009081526027602052604090208054610100900460ff16156122d1578054602c8054600160381b90920463ffffffff16916000919061b4279060019061ef2e565b8154811061b4375761b43761ee42565b600091825260209091200154835461ff001981168555603b546affffffff0000000000ff0019909116600160a01b90910463ffffffff16600160381b02178455602c546001600160a01b03909116915060021161b4fb5780602c8363ffffffff168154811061b4a85761b4a861ee42565b600091825260208083209190910180546001600160a01b0319166001600160a01b039485161790559183168152602790915260409020805463ffffffff60381b1916600160381b63ffffffff8516021790555b602c80548061b3955761b39561f394565b6001600160a01b0381166000908152602760205260409020805462010000900460ff16156122d1578054602d8054600160581b90920463ffffffff16916000919061b5599060019061ef2e565b8154811061b5695761b56961ee42565b600091825260209091200154835462ff00001981168555603b546effffffff0000000000000000ff000019909116600160a01b90910463ffffffff16600160581b02178455602c546001600160a01b03909116915060021161b6325780602d8363ffffffff168154811061b5df5761b5df61ee42565b600091825260208083209190910180546001600160a01b0319166001600160a01b039485161790559183168152602790915260409020805463ffffffff60581b1916600160581b63ffffffff8516021790555b602d80548061b3955761b39561f394565b602f546030546001600160801b03600160801b9283900481169260009261b66f9285929091041661ef99565b9050603b60009054906101000a90046001600160a01b03166001600160a01b031663e3115d3c6040518163ffffffff1660e01b815260040160206040518083038186803b15801561b6bf57600080fd5b505afa15801561b6d3573d6000803e3d6000fd5b505050506040513d601f19601f8201168201806040525081019061b6f7919061eef5565b816001600160801b0316118061b711575060385460375410155b156120dc57602f54600160801b90046001600160801b0316915060005b836001600160801b0316816001600160801b0316101561500a576001600160801b038381166000908152602260205260408120549182169161b77d90600160801b900463ffffffff168361f02f565b9050815b816001600160801b0316816001600160801b0316101561b835576001600160801b038116600090815260216020526040812080546001600160881b03191681556001810180546001600160a01b03191690559061b7e1600283018261df4a565b61b7ef60038301600061df4a565b61b7fd60048301600061df4a565b5061b80c90506020600261ef5d565b6037600082825461b81d919061ef2e565b9091555081905061b82d8161ef07565b91505061b781565b506001600160801b038516600090815260226020526040812080546001600160f81b03191681556001810180546001600160a01b03191690559061b87c600283018261df4a565b50600301805460ff1916905561b8946020600261ef5d565b6037600082825461b8a5919061ef2e565b90915550506001600160801b0385166000908152602960209081526040808320805461ffff19908116909155602a9092529091208054909116905561b8ec6010600261ef5d565b6037600082825461b8fd919061ef2e565b90915550506001600160801b03851660009081526028602090815260408083208054825181850281018501909352808352919290919083018282801561b96c57602002820191906000526020600020905b81546001600160a01b0316815260019091019060200180831161b94e575b5050505050905060005b8151816001600160801b0316101561bae857600082826001600160801b03168151811061b9a55761b9a561ee42565b60200260200101519050600061b9bb828a615020565b905061b9e881604051806040016040528060098152602001686e756d546f6b656e7360b81b81525061dd83565b61ba14816040518060400160405280600a8152602001690c6dedadad2e890c2e6d60b31b81525061dd83565b61ba40816040518060400160405280600a815260200169636f6d6d6974566f746560b01b81525061dd83565b6001600160801b0389166000908152601f602090815260408083206001600160a01b03861684529091528120805466ffffffffffffff191681559061ba88600183018261df4a565b61ba9660028301600061df4a565b5061baa590506020600261ef5d565b61bab16020600361ef5d565b61babb919061ef45565b6037600082825461bacc919061ef2e565b925050819055505050808061bae09061ef07565b91505061b976565b506001600160801b038616600090815260286020526040812061bb0a9161e008565b805161bb1790602061ef5d565b6037600082825461bb28919061ef2e565b90915550506040516001600160801b038716907f72c2fcc891fe835b86fc8bb9abdc52adf52499c52289b3c49e1461eabea2717590600090a26001602f60108282829054906101000a90046001600160801b031661bb86919061f02f565b92506101000a8154816001600160801b0302191690836001600160801b03160217905550505050808061bbb89061ef07565b91505061b72e565b61bbc861defa565b6000805460ff60a01b191690557f5db9ee0a495bf2e6ff9c91a7834c1ba4fdd244a5e8aa4e537bd38aeae4b073aa335b6040516001600160a01b03909116815260200160405180910390a1565b61bc1d61af62565b6000805460ff60a01b1916600160a01b1790557f62e78cea01bee320cd4e420270b5ea74000d11b0c9f74754ebdbfc544b05a25861bbf83390565b603b546001600160a01b031661bc805760405162461bcd60e51b81526004016116ea9061eebe565b603b5460408051632a49798160e11b815290516000926001600160a01b031691635492f302916004808301926020929190829003018186803b15801561bcc557600080fd5b505afa15801561bcd9573d6000803e3d6000fd5b505050506040513d601f19601f8201168201806040525081019061bcfd919061f051565b6001600160a01b0316141561bd245760405162461bcd60e51b81526004016116ea9061f274565b603b5460408051630855d15160e01b815290516000926001600160a01b031691630855d151916004808301926020929190829003018186803b15801561bd6957600080fd5b505afa15801561bd7d573d6000803e3d6000fd5b505050506040513d601f19601f8201168201806040525081019061bda1919061f051565b6001600160a01b0316141561bdf85760405162461bcd60e51b815260206004820181905260248201527f5265704d616e61676572206973206e756c6c20696e20506172616d657465727360448201526064016116ea565b603b54604080516304e76c8f60e01b815290516000926001600160a01b0316916304e76c8f916004808301926020929190829003018186803b15801561be3d57600080fd5b505afa15801561be51573d6000803e3d6000fd5b505050506040513d601f19601f8201168201806040525081019061be75919061f051565b6001600160a01b0316141561bed85760405162461bcd60e51b815260206004820152602360248201527f5265776172644d616e61676572206973206e756c6c20696e20506172616d657460448201526265727360e81b60648201526084016116ea565b61bee1816142e1565b8061bf0d57506001600160801b038116600090815260226020526040902054600160d01b900461ffff16155b61bf7f5760405162461bcd60e51b815260206004820152603a60248201527f5f446174614261746368496420686173206e6f7420656e6465642c206f72206e60448201527f6f7420657665727920766f74657273206861766520766f74656400000000000060648201526084016116ea565b6001600160801b038116600090815260226020526040902054600160e81b900460ff161561bff95760405162461bcd60e51b815260206004820152602160248201527f5f446174614261746368496420697320616c72656164792076616c69646174656044820152601960fa1b60648201526084016116ea565b6001600160801b03811660009081526028602090815260408083208054825181850281018501909352808352919290919083018282801561c06357602002820191906000526020600020905b81546001600160a01b0316815260019091019060200180831161c045575b50505050509050600081516001600160401b0381111561c0855761c08561e39e565b60405190808252806020026020018201604052801561c0b857816020015b606081526020019060019003908161c0a35790505b509050600082516001600160401b0381111561c0d65761c0d661e39e565b60405190808252806020026020018201604052801561c0ff578160200160208202803683370190505b50905060005b835181101561c28a57600084828151811061c1225761c12261ee42565b6020908102919091018101516001600160801b0388166000908152601f835260408082206001600160a01b038416835290935291822060010180549193509061c16a9061ee58565b80601f016020809104026020016040519081016040528092919081815260200182805461c1969061ee58565b801561c1e35780601f1061c1b85761010080835404028352916020019161c1e3565b820191906000526020600020905b81548152906001019060200180831161c1c657829003601f168201915b505050506001600160801b0389166000908152601f602090815260408083206001600160a01b038816845290915290205487519293506301000000900463ffffffff169183915087908690811061c23c5761c23c61ee42565b60200260200101819052508085858151811061c25a5761c25a61ee42565b602002602001019063ffffffff16908163ffffffff1681525050505050808061c2829061eea3565b91505061c105565b50600061c3356064603b60009054906101000a90046001600160a01b03166001600160a01b031663ea19733c6040518163ffffffff1660e01b815260040160206040518083038186803b15801561c2e057600080fd5b505afa15801561c2f4573d6000803e3d6000fd5b505050506040513d601f19601f8201168201806040525081019061c318919061eef5565b865161c324919061ef5d565b61c32e919061f084565b600161ddf2565b60408051602081019091526000808252919250905b845181101561c409576000805b865181101561c3cc5761c39c87848151811061c3755761c37561ee42565b602002602001015188838151811061c38f5761c38f61ee42565b60200260200101516174ec565b1561c3ba5761c3ac60018361ef45565b915084821061c3ba5761c3cc565b8061c3c48161eea3565b91505061c357565b5083811061c3f65785828151811061c3e65761c3e661ee42565b602002602001015192505061c409565b508061c4018161eea3565b91505061c34a565b506000805b84518163ffffffff16101561c4e4576000805b865181101561c4a15786818151811061c43c5761c43c61ee42565b602002602001015163ffffffff16878463ffffffff168151811061c4625761c46261ee42565b602002602001015163ffffffff16141561c48f5761c48160018361ef45565b915085821061c48f5761c4a1565b8061c4998161eea3565b91505061c421565b5084811061c4d157858263ffffffff168151811061c4c15761c4c161ee42565b602002602001015192505061c4e4565b508061c4dc8161f3aa565b91505061c40e565b50600061c4f0886145bb565b801561c512575061c51083604051806020016040528060008152506174ec565b155b801561c523575063ffffffff821615155b6039549091506301000000900460ff161561c889576001600160801b03808916600090815260226020908152604080832081516101c0810183528154958616815263ffffffff600160801b8704811694820194909452600160a01b86049093169183019190915261ffff600160c01b850481166060840152600160d01b85048116608084015260ff600160e01b86048116151560a0850152600160e81b86048116151560c0850152600160f01b909504909416151560e083015260018101548085166101008401526201000081049094166101208301526001600160401b03600160201b85048116610140840152600160601b909404909316610160820152600283018054929391926101808401919061c63c9061ee58565b80601f016020809104026020016040519081016040528092919081815260200182805461c6689061ee58565b801561c6b55780601f1061c68a5761010080835404028352916020019161c6b5565b820191906000526020600020905b81548152906001019060200180831161c69857829003601f168201915b505050918352505060038281015460209092019160ff169081111561c6dc5761c6dc61e1c7565b600381111561c6ed5761c6ed61e1c7565b90525061010081015190915061ffff161561c70757600191505b61c72084604051806020016040528060008152506174ec565b1561c8875760005b885181101561c885576001600160801b038a166000908152601f602052604081208a519091908b908490811061c7605761c76061ee42565b6020908102919091018101516001600160a01b0316825281019190915260400160002054610100900460ff1661c7955761c873565b61c7c788828151811061c7aa5761c7aa61ee42565b6020026020010151604051806020016040528060008152506174ec565b61c7e85787818151811061c7dd5761c7dd61ee42565b602002602001015194505b63ffffffff841615801561c81b5750600087828151811061c80b5761c80b61ee42565b602002602001015163ffffffff16115b1561c83d5786818151811061c8325761c83261ee42565b602002602001015193505b61c85685604051806020016040528060008152506174ec565b15801561c869575060008463ffffffff16115b1561c8735761c885565b8061c87d8161eea3565b91505061c728565b505b505b8061c8a357603954600160601b900461ffff16915061c8fb565b6039546001600160801b03891660009081526022602052604090205461c8f89161c8e691600160601b90910461ffff1690600160801b900463ffffffff1661f3c4565b63ffffffff168363ffffffff1661dddc565b91505b60005b875181101561d0eb57600088828151811061c91b5761c91b61ee42565b6020908102919091018101516001600160801b038c166000908152601f835260408082206001600160a01b03841683528452808220546024909452902090925060ff62010000830481169261010090041690811561cf85576001600160a01b0384166000908152602460205260409020805461ffff60c01b1916905585801561c9a45750826001145b8061c9b957508515801561c9b9575082600114155b1561cf3757603b5460408051632a49798160e11b815290516000926001600160a01b031691635492f302916004808301926020929190829003018186803b15801561ca0357600080fd5b505afa15801561ca17573d6000803e3d6000fd5b505050506040513d601f19601f8201168201806040525081019061ca3b919061f051565b90506000603b60009054906101000a90046001600160a01b03166001600160a01b0316630855d1516040518163ffffffff1660e01b815260040160206040518083038186803b15801561ca8d57600080fd5b505afa15801561caa1573d6000803e3d6000fd5b505050506040513d601f19601f8201168201806040525081019061cac5919061f051565b90506000603b60009054906101000a90046001600160a01b03166001600160a01b03166304e76c8f6040518163ffffffff1660e01b815260040160206040518083038186803b15801561cb1757600080fd5b505afa15801561cb2b573d6000803e3d6000fd5b505050506040513d601f19601f8201168201806040525081019061cb4f919061f051565b6040516308c0a84360e11b81526001600160a01b03898116600483015291925060009185169063118150869060240160206040518083038186803b15801561cb9657600080fd5b505afa15801561cbaa573d6000803e3d6000fd5b505050506040513d601f19601f8201168201806040525081019061cbce919061f051565b905063ffffffff8b161561cee557826001600160a01b0316631b6d990a8c63ffffffff16603b60009054906101000a90046001600160a01b03166001600160a01b0316630b08bfd96040518163ffffffff1660e01b815260040160206040518083038186803b15801561cc4057600080fd5b505afa15801561cc54573d6000803e3d6000fd5b505050506040513d601f19601f8201168201806040525081019061cc78919061eef5565b61cc82919061ef5d565b6040516001600160e01b031960e084901b16815260048101919091526001600160a01b038416602482015260006044820152606401602060405180830381600087803b15801561ccd157600080fd5b505af115801561cce5573d6000803e3d6000fd5b505050506040513d601f19601f8201168201806040525081019061cd09919061ef7c565b61cd635760405162461bcd60e51b815260206004820152602560248201527f636f756c64206e6f74207265776172642052455020696e2056616c69646174656044820152642c20312e6160d81b60648201526084016116ea565b816001600160a01b031663e0ca50948c63ffffffff16603b60009054906101000a90046001600160a01b03166001600160a01b031663f80de0a06040518163ffffffff1660e01b815260040160206040518083038186803b15801561cdc757600080fd5b505afa15801561cddb573d6000803e3d6000fd5b505050506040513d601f19601f8201168201806040525081019061cdff919061eef5565b61ce09919061ef5d565b6040516001600160e01b031960e084901b16815260048101919091526001600160a01b0384166024820152604401602060405180830381600087803b15801561ce5157600080fd5b505af115801561ce65573d6000803e3d6000fd5b505050506040513d601f19601f8201168201806040525081019061ce89919061ef7c565b61cee55760405162461bcd60e51b815260206004820152602760248201527f636f756c64206e6f742072657761726420746f6b656e20696e2056616c6964616044820152663a32961018973160c91b60648201526084016116ea565b6001858101805460109061cf0a908490600160801b90046001600160401b031661f372565b92506101000a8154816001600160401b0302191690836001600160401b031602179055505050505061d0d4565b6001818101805460189061cf5c908490600160c01b90046001600160401b031661f372565b92506101000a8154816001600160401b0302191690836001600160401b0316021790555061d0d4565b6001600160a01b038416600090815260246020526040902080546001919060189061cfbc908490600160c01b900461ffff1661f1d5565b92506101000a81548161ffff021916908361ffff160217905550603b60009054906101000a90046001600160a01b03166001600160a01b0316639fb491f66040518163ffffffff1660e01b815260040160206040518083038186803b15801561d02457600080fd5b505afa15801561d038573d6000803e3d6000fd5b505050506040513d601f19601f8201168201806040525081019061d05c919061eef5565b6001600160a01b038516600090815260246020526040902054600160c01b900461ffff161061d0a257805460ff60d01b1916815561d0998461b3db565b61d0a28461b26e565b8054600160d01b900460ff161561d0c55761d0bc8461b3db565b61d0c58461dbd6565b80546001600160801b03191681555b50505050808061d0e39061eea3565b91505061c8fe565b506001600160801b0388166000908152602260209081526040909120805460ff60e81b1916600160e81b178155845161d12c9260029092019186019061df84565b506001600160801b0388166000908152602260205260409020805463ffffffff60a01b1916600160a01b63ffffffff851602179055801561d987576001600160801b038881166000908152602260205260408120549182169161d19c90600160801b900463ffffffff168361f02f565b9050815b816001600160801b0316816001600160801b0316101561d699576001600160801b038116600090815260216020908152604080832060010154603b548251632a49798160e11b815292516001600160a01b0392831695949190921692635492f3029260048083019392829003018186803b15801561d21d57600080fd5b505afa15801561d231573d6000803e3d6000fd5b505050506040513d601f19601f8201168201806040525081019061d255919061f051565b90506000603b60009054906101000a90046001600160a01b03166001600160a01b0316630855d1516040518163ffffffff1660e01b815260040160206040518083038186803b15801561d2a757600080fd5b505afa15801561d2bb573d6000803e3d6000fd5b505050506040513d601f19601f8201168201806040525081019061d2df919061f051565b90506000603b60009054906101000a90046001600160a01b03166001600160a01b03166304e76c8f6040518163ffffffff1660e01b815260040160206040518083038186803b15801561d33157600080fd5b505afa15801561d345573d6000803e3d6000fd5b505050506040513d601f19601f8201168201806040525081019061d369919061f051565b6040516308c0a84360e11b81526001600160a01b03868116600483015291925060009185169063118150869060240160206040518083038186803b15801561d3b057600080fd5b505afa15801561d3c4573d6000803e3d6000fd5b505050506040513d601f19601f8201168201806040525081019061d3e8919061f051565b905063ffffffff8a161561d68157826001600160a01b0316631b6d990a8b63ffffffff16603b60009054906101000a90046001600160a01b03166001600160a01b031663abb10b9b6040518163ffffffff1660e01b815260040160206040518083038186803b15801561d45a57600080fd5b505afa15801561d46e573d6000803e3d6000fd5b505050506040513d601f19601f8201168201806040525081019061d492919061eef5565b61d49c919061ef5d565b6040516001600160e01b031960e084901b16815260048101919091526001600160a01b038416602482015260006044820152606401602060405180830381600087803b15801561d4eb57600080fd5b505af115801561d4ff573d6000803e3d6000fd5b505050506040513d601f19601f8201168201806040525081019061d523919061ef7c565b61d53f5760405162461bcd60e51b81526004016116ea9061f098565b816001600160a01b031663e0ca50948b63ffffffff16603b60009054906101000a90046001600160a01b03166001600160a01b03166330c0bb796040518163ffffffff1660e01b815260040160206040518083038186803b15801561d5a357600080fd5b505afa15801561d5b7573d6000803e3d6000fd5b505050506040513d601f19601f8201168201806040525081019061d5db919061eef5565b61d5e5919061ef5d565b6040516001600160e01b031960e084901b16815260048101919091526001600160a01b0384166024820152604401602060405180830381600087803b15801561d62d57600080fd5b505af115801561d641573d6000803e3d6000fd5b505050506040513d601f19601f8201168201806040525081019061d665919061ef7c565b61d6815760405162461bcd60e51b81526004016116ea9061f0e6565b5050505050808061d6919061ef07565b91505061d1a0565b506001600160801b038a81166000908152602260205260409020600301805460ff19166001908117909155603180549192909160109161d6e3918591600160801b9091041661f02f565b92506101000a8154816001600160801b0302191690836001600160801b03160217905550602060046001600261d719919061ef5d565b61d723919061ef45565b61d72d919061ef45565b6037600082825461d73e919061ef45565b9091555050603b5460408051637b39b17f60e11b815290516000926001600160a01b03169163f67362fe916004808301926020929190829003018186803b15801561d78857600080fd5b505afa15801561d79c573d6000803e3d6000fd5b505050506040513d601f19601f8201168201806040525081019061d7c0919061f051565b6001600160a01b0316141561d82c5760405162461bcd60e51b815260206004820152602c60248201527f436f6d706c69616e636553797374656d206e756c6c20696e20506172616d657460448201526b195c9cc810dbdb9d1c9858dd60a21b60648201526084016116ea565b603b5460408051637b39b17f60e11b815290516000926001600160a01b03169163f67362fe916004808301926020929190829003018186803b15801561d87157600080fd5b505afa15801561d885573d6000803e3d6000fd5b505050506040513d601f19601f8201168201806040525081019061d8a9919061f051565b6040516348257dc960e01b81526001600160801b038d1660048201529091506001600160a01b038216906348257dc990602401600060405180830381600087803b15801561d8f657600080fd5b505af192505050801561d907575060015b61d966573d80801561d935576040519150601f19603f3d011682016040523d82523d6000602084013e61d93a565b606091505b5060008051602061f40c8339815191528160405161d958919061ec43565b60405180910390a15061d97f565b60016035600082825461d979919061ef45565b90915550505b50505061d9e9565b6001600160801b038881166000908152602260205260408120600301805460ff191660021790556032805460019391929161d9c49185911661f02f565b92506101000a8154816001600160801b0302191690836001600160801b031602179055505b60016035600082825461d9fc919061ef45565b90915550506001600160801b03881660009081526022602052604081205460368054600160a01b90920463ffffffff1692909161da3a90849061ef45565b90915550506001600160801b038816600090815260226020526040902054600160a01b900463ffffffff16601061da736001600f61ef2e565b600f811061da835761da8361ee42565b01805460109061daa4908490600160801b90046001600160801b031661f02f565b92506101000a8154816001600160801b0302191690836001600160801b0316021790555061dad06120e1565b6001600160801b0388811660009081526022602052604090205460328054600160c01b90920461ffff1692909160109161db14918591600160801b9091041661f02f565b82546101009290920a6001600160801b0381810219909316918316021790915589811660009081526022602052604081205460338054600160d01b90920461ffff1694509261db659185911661f02f565b92506101000a8154816001600160801b0302191690836001600160801b03160217905550876001600160801b03167f98bfbdd7dba62d9141cf4f07139f8e53c0d00c0b44cad36d148730680b162161848360405161dbc492919061f3e7565b60405180910390a25050505050505050565b6001600160a01b03811660009081526027602052604090205460ff16611ae357602b805460018101825560009182527f11c44e4875b74d31ff9fd779bf2566af7bd15b87fc985d01f5094b89e3669e4f0180546001600160a01b0319166001600160a01b038416179055603780546020929061dc5390849061ef45565b90915550506001600160a01b0381166000908152602760205260409020805460ff19166001908117909155602b5461dc8b919061ef2e565b6001600160a01b0382166000908152602760205260409020805463ffffffff9290921663010000000266ffffffff0000001990921691909117905550565b600080546001600160a01b038381166001600160a01b0319831681178455604051919092169283917f8be0079c531659141344cd1fd0a4f28419497f9722a3daafe3b4186f6b6457e09190a35050565b6000838360405160200161dd2e92919061f2fa565b60408051601f198184030181529181528151602092830120600081815292805291205490915061dd715760206037600082825461dd6b919061ef45565b90915550505b60009081526020805260409020555050565b6000828260405160200161dd9892919061f2fa565b60408051601f198184030181529181528151602092830120600081815283805291822082905560378054919450919061ddd290849061ef2e565b9091555050505050565b600081831061ddeb578161456c565b5090919050565b600081831161ddeb578161456c565b6001600160a01b038116600090815260276020526040902054610100900460ff16611ae357602c805460018101825560009182527f7416c943b4a09859521022fd2e90eac0dd9026dad28fa317782a135f28a860910180546001600160a01b0319166001600160a01b038416179055603780546020929061de8390849061ef45565b90915550506001600160a01b0381166000908152602760205260409020805461ff001916610100179055602c5461debc9060019061ef2e565b6001600160a01b0382166000908152602760205260409020805463ffffffff92909216600160381b0263ffffffff60381b1990921691909117905550565b600054600160a01b900460ff16614a445760405162461bcd60e51b815260206004820152601460248201527314185d5cd8589b194e881b9bdd081c185d5cd95960621b60448201526064016116ea565b50805461df569061ee58565b6000825580601f1061df66575050565b601f016020900490600052602060002090810190611ae3919061e031565b82805461df909061ee58565b90600052602060002090601f01602090048101928261dfb2576000855561dff8565b82601f1061dfcb57805160ff191683800117855561dff8565b8280016001018555821561dff8579182015b8281111561dff857825182559160200191906001019061dfdd565b5061e00492915061e031565b5090565b5080546000825590600052602060002090810190611ae3919061e031565b50611ae390600f8101905b5b8082111561e004576000815560010161e032565b6001600160a01b0381168114611ae357600080fd5b60006020828403121561e06d57600080fd5b813561456c8161e046565b6001600160801b0381168114611ae357600080fd5b60006020828403121561e09f57600080fd5b813561456c8161e078565b60005b8381101561e0c557818101518382015260200161e0ad565b8381111561500a5750506000910152565b6000815180845261e0ee81602086016020860161e0aa565b601f01601f19169290920160200192915050565b6000602080830181845280855180835260408601915060408160051b870101925083870160005b8281101561e15757603f1988860301845261e14585835161e0d6565b9450928501929085019060010161e129565b5092979650505050505050565b6000806040838503121561e17757600080fd5b50508035926020909101359150565b6020808252825182820181905260009190848201906040850190845b81811015616b345783516001600160a01b03168352928401929184019160010161e1a2565b634e487b7160e01b600052602160045260246000fd5b6004811061e1fb57634e487b7160e01b600052602160045260246000fd5b9052565b6001600160401b03888116825287166020820152600061e222604083018861e1dd565b6001600160a01b038616606083015260e06080830181905261e2469083018661e0d6565b82810360a084015261e258818661e0d6565b905082810360c084015261e26c818561e0d6565b9a9950505050505050505050565b803561ffff811681146141fb57600080fd5b60006020828403121561e29e57600080fd5b61456c8261e27a565b6001600160801b038f16815263ffffffff8e811660208301528d16604082015261ffff8c16606082015261ffff8b16608082015289151560a082015288151560c082015287151560e082015261ffff871661010082015261ffff86166101208201526001600160401b0385166101408201526001600160401b0384166101608201526101c0610180820152600061e3426101c083018561e0d6565b905061e3526101a083018461e1dd565b9f9e505050505050505050505050505050565b6000806040838503121561e37857600080fd5b823561e3838161e078565b9150602083013561e3938161e078565b809150509250929050565b634e487b7160e01b600052604160045260246000fd5b604051601f8201601f191681016001600160401b038111828210171561e3dc5761e3dc61e39e565b604052919050565b60006001600160401b0382111561e3fd5761e3fd61e39e565b5060051b60200190565b6000602080838503121561e41a57600080fd5b82356001600160401b0381111561e43057600080fd5b8301601f8101851361e44157600080fd5b803561e45461e44f8261e3e4565b61e3b4565b81815260059190911b8201830190838101908783111561e47357600080fd5b928401925b8284101561528657833561e48b8161e078565b8252928401929084019061e478565b600082601f83011261e4ab57600080fd5b81356001600160401b0381111561e4c45761e4c461e39e565b61e4d7601f8201601f191660200161e3b4565b81815284602083860101111561e4ec57600080fd5b816020850160208301376000918101602001919091529392505050565b60008083601f84011261e51b57600080fd5b5081356001600160401b0381111561e53257600080fd5b6020830191508360208260051b8501011115613a9857600080fd5b80356001600160401b03811681146141fb57600080fd5b600082601f83011261e57557600080fd5b8135602061e58561e44f8361e3e4565b82815260059290921b8401810191818101908684111561e5a457600080fd5b8286015b8481101561e5c65761e5b98161e54d565b835291830191830161e5a8565b509695505050505050565b60008060008060006080868803121561e5e957600080fd5b85356001600160401b038082111561e60057600080fd5b818801915088601f83011261e61457600080fd5b8135602061e62461e44f8361e3e4565b82815260059290921b8401810191818101908c84111561e64357600080fd5b8286015b8481101561e67b5780358681111561e65f5760008081fd5b61e66d8f86838b010161e49a565b84525091830191830161e647565b509950508901359250508082111561e69257600080fd5b61e69e89838a0161e509565b9096509450604088013591508082111561e6b757600080fd5b61e6c389838a0161e564565b9350606088013591508082111561e6d957600080fd5b5061e6e68882890161e49a565b9150509295509295909350565b600081518084526020808501945080840160005b8381101561e72c5781516001600160801b03168752958201959082019060010161e707565b509495945050505050565b6001600160801b038316815260406020820152600061862e604083018461e6f3565b60006020828403121561e76b57600080fd5b5035919050565b8015158114611ae357600080fd5b6000806040838503121561e79357600080fd5b823561e79e8161e772565b915061e7ac6020840161e27a565b90509250929050565b6000806040838503121561e7c857600080fd5b823561e7d38161e078565b9150602083013561e3938161e046565b8615158152851515602082015260ff8516604082015263ffffffff8416606082015260c06080820152600061e81b60c083018561e0d6565b82810360a084015261e82d818561e0d6565b9998505050505050505050565b6000806040838503121561e84d57600080fd5b823561e3838161e046565b6000806040838503121561e86b57600080fd5b823561e8768161e046565b946020939093013593505050565b60008060006060848603121561e89957600080fd5b833561e8a48161e046565b925060208401359150604084013561e8bb8161e078565b809150509250925092565b6000806000806080858703121561e8dc57600080fd5b843561e8e78161e078565b9350602085013561e8f78161e078565b9250604085013561e9078161e046565b9396929550929360600135925050565b6000806000806080858703121561e92d57600080fd5b61e9368561e54d565b935060208501356001600160401b0381111561e95157600080fd5b61e95d8782880161e49a565b935050604085013560ff8116811461e90757600080fd5b60006020828403121561e98657600080fd5b813561456c8161e772565b6020815260006001600160401b0380845116602084015280602085015116604084015250604083015161e9c7606084018261e1dd565b5060608301516001600160a01b038116608084015250608083015160e060a084015261e9f761010084018261e0d6565b905060a0840151601f19808584030160c086015261ea15838361e0d6565b925060c08601519150808584030160e08601525061ea33828261e0d6565b95945050505050565b6000806040838503121561ea4f57600080fd5b8235915060208301356001600160401b0381111561ea6c57600080fd5b61ea788582860161e49a565b9150509250929050565b6000806040838503121561ea9557600080fd5b82356001600160401b038082111561eaac57600080fd5b61eab88683870161e49a565b9350602085013591508082111561eace57600080fd5b5061ea788582860161e49a565b60208152600061456c602083018461e6f3565b6020808252825182820181905260009190848201906040850190845b81811015616b345783518352928401929184019160010161eb0a565b600080600080600060a0868803121561eb3e57600080fd5b853561eb498161e078565b94506020860135935060408601359250606086013563ffffffff8116811461eb7057600080fd5b915060808601356001600160401b0381111561eb8b57600080fd5b61e6e68882890161e49a565b6000602080838503121561ebaa57600080fd5b82356001600160401b0381111561ebc057600080fd5b8301601f8101851361ebd157600080fd5b803561ebdf61e44f8261e3e4565b81815260059190911b8201830190838101908783111561ebfe57600080fd5b928401925b8284101561528657833561ec168161e046565b8252928401929084019061ec03565b6000806040838503121561ec3857600080fd5b823561e8768161e078565b60208152600061456c602083018461e0d6565b6000806040838503121561ec6957600080fd5b82356001600160401b0381111561ec7f57600080fd5b61ec8b8582860161e49a565b95602094909401359450505050565b6020815261ecb46020820183516001600160801b03169052565b6000602083015161eccd604084018263ffffffff169052565b50604083015163ffffffff8116606084015250606083015161ffff8116608084015250608083015161ffff811660a08401525060a083015180151560c08401525060c083015180151560e08401525060e083015161010061ed318185018315159052565b840151905061012061ed488482018361ffff169052565b840151905061014061ed5f8482018361ffff169052565b840151905061016061ed7b848201836001600160401b03169052565b840151905061018061ed97848201836001600160401b03169052565b808501519150506101c06101a0818186015261edb76101e086018461e0d6565b90860151909250618e6f8583018261e1dd565b60008060006060848603121561eddf57600080fd5b833561edea8161e046565b9250602084013561edfa8161e078565b929592945050506040919091013590565b60208082526017908201527f5f4461746142617463684964206d757374206578697374000000000000000000604082015260600190565b634e487b7160e01b600052603260045260246000fd5b600181811c9082168061ee6c57607f821691505b60208210811415613d1f57634e487b7160e01b600052602260045260246000fd5b634e487b7160e01b600052601160045260246000fd5b600060001982141561eeb75761eeb761ee8d565b5060010190565b6020808252601f908201527f506172616d6574657273204d616e61676572206d757374206265207365742e00604082015260600190565b60006020828403121561458957600080fd5b60006001600160801b038083168181141561ef245761ef2461ee8d565b6001019392505050565b60008282101561ef405761ef4061ee8d565b500390565b6000821982111561ef585761ef5861ee8d565b500190565b600081600019048311821515161561ef775761ef7761ee8d565b500290565b60006020828403121561ef8e57600080fd5b815161456c8161e772565b60006001600160801b038381169083168181101561efb95761efb961ee8d565b039392505050565b6000808335601e1984360301811261efd857600080fd5b8301803591506001600160401b0382111561eff257600080fd5b602001915036819003821315613a9857600080fd5b600063ffffffff80831681851680830382111561f0265761f02661ee8d565b01949350505050565b60006001600160801b0380831681851680830382111561f0265761f02661ee8d565b60006020828403121561f06357600080fd5b815161456c8161e046565b634e487b7160e01b600052601260045260246000fd5b60008261f0935761f09361f06e565b500490565b6020808252602e908201527f636f756c64206e6f74207265776172642052455020696e2056616c696461746560408201526d4461746142617463682c20322e6160901b606082015260800190565b60208082526030908201527f636f756c64206e6f742072657761726420746f6b656e20696e2056616c69646160408201526f3a32a230ba30a130ba31b4161019173160811b606082015260800190565b60408152600061f149604083018561e0d6565b828103602084015261ea33818561e0d6565b60006001600160401b038083168181141561ef245761ef2461ee8d565b6020808252601c908201527f496e70757420626f756e6461726965732061726520696e76616c696400000000604082015260600190565b60006001600160801b038084168061f1c95761f1c961f06e565b92169190910492915050565b600061ffff80831681851680830382111561f0265761f02661ee8d565b600061ffff8083168185168183048111821515161561f2135761f21361ee8d565b02949350505050565b60006020828403121561f22e57600080fd5b815161456c8161e078565b60006001600160401b038381169083168181101561efb95761efb961ee8d565b600061ffff8381169083168181101561efb95761efb961ee8d565b60208082526024908201527f416464726573734d616e61676572206973206e756c6c20696e20506172616d656040820152637465727360e01b606082015260800190565b60208082526022908201527f5374616b654d616e61676572206973206e756c6c20696e20506172616d657465604082015261727360f01b606082015260800190565b8281526000825161f31281602085016020870161e0aa565b919091016020019392505050565b6000825161f33281846020870161e0aa565b9190910192915050565b60008261f34b5761f34b61f06e565b500690565b60408152600061f363604083018561e0d6565b90508260208301529392505050565b60006001600160401b0380831681851680830382111561f0265761f02661ee8d565b634e487b7160e01b600052603160045260246000fd5b600063ffffffff8083168181141561ef245761ef2461ee8d565b600063ffffffff8083168185168183048111821515161561f2135761f21361ee8d565b60408152600061f3fa604083018561e0d6565b90508215156020830152939250505056fe4b87bbd93ba65ede1e2efeca735d9f7a6720bf7d6db0a8355b17dba5b64e5783a2646970667358221220eb0021be219a449c17a364ad9e4718bbb6f6d2e6333b35f22f9caf922d4b4db264736f6c63430008080033",
  "linkReferences": {
    "contracts/worksystems/DataSpotting.sol": {
      "DLL": [
        {
          "length": 20,
          "start": 16300
        },
        {
          "length": 20,
          "start": 16577
        },
        {
          "length": 20,
          "start": 19046
        },
        {
          "length": 20,
          "start": 20095
        },
        {
          "length": 20,
          "start": 20290
        },
        {
          "length": 20,
          "start": 33214
        },
        {
          "length": 20,
          "start": 33405
        }
      ]
    }
  },
  "deployedLinkReferences": {
    "contracts/worksystems/DataSpotting.sol": {
      "DLL": [
        {
          "length": 20,
          "start": 15861
        },
        {
          "length": 20,
          "start": 16138
        },
        {
          "length": 20,
          "start": 18607
        },
        {
          "length": 20,
          "start": 19656
        },
        {
          "length": 20,
          "start": 19851
        },
        {
          "length": 20,
          "start": 32775
        },
        {
          "length": 20,
          "start": 32966
        }
      ]
    }
  }
}