{
  "_format": "hh-sol-artifact-1",
  "contractName": "DataSpotting",
  "sourceName": "contracts/worksystems/DataSpotting.sol",
  "abi": [
    {
      "inputs": [
        {
          "internalType": "address",
          "name": "EXDT_token",
          "type": "address"
        }
      ],
      "stateMutability": "nonpayable",
      "type": "constructor"
    },
    {
      "anonymous": false,
      "inputs": [
        {
          "indexed": false,
          "internalType": "bytes",
          "name": "bytesFailure",
          "type": "bytes"
        }
      ],
      "name": "BytesFailure",
      "type": "event"
    },
    {
      "anonymous": false,
      "inputs": [
        {
          "indexed": true,
          "internalType": "address",
          "name": "previousOwner",
          "type": "address"
        },
        {
          "indexed": true,
          "internalType": "address",
          "name": "newOwner",
          "type": "address"
        }
      ],
      "name": "OwnershipTransferred",
      "type": "event"
    },
    {
      "anonymous": false,
      "inputs": [
        {
          "indexed": true,
          "internalType": "uint256",
          "name": "epochNumber",
          "type": "uint256"
        }
      ],
      "name": "_NewEpoch",
      "type": "event"
    },
    {
      "anonymous": false,
      "inputs": [
        {
          "indexed": false,
          "internalType": "string",
          "name": "hash",
          "type": "string"
        },
        {
          "indexed": true,
          "internalType": "address",
          "name": "creator",
          "type": "address"
        }
      ],
      "name": "_SpotAccepted",
      "type": "event"
    },
    {
      "anonymous": false,
      "inputs": [
        {
          "indexed": true,
          "internalType": "uint256",
          "name": "DataID",
          "type": "uint256"
        },
        {
          "indexed": false,
          "internalType": "uint256",
          "name": "numTokens",
          "type": "uint256"
        },
        {
          "indexed": true,
          "internalType": "address",
          "name": "voter",
          "type": "address"
        }
      ],
      "name": "_SpotCheckCommitted",
      "type": "event"
    },
    {
      "anonymous": false,
      "inputs": [
        {
          "indexed": true,
          "internalType": "uint256",
          "name": "DataID",
          "type": "uint256"
        },
        {
          "indexed": false,
          "internalType": "uint256",
          "name": "numTokens",
          "type": "uint256"
        },
        {
          "indexed": false,
          "internalType": "uint256",
          "name": "votesFor",
          "type": "uint256"
        },
        {
          "indexed": false,
          "internalType": "uint256",
          "name": "votesAgainst",
          "type": "uint256"
        },
        {
          "indexed": true,
          "internalType": "uint256",
          "name": "choice",
          "type": "uint256"
        },
        {
          "indexed": true,
          "internalType": "address",
          "name": "voter",
          "type": "address"
        }
      ],
      "name": "_SpotCheckRevealed",
      "type": "event"
    },
    {
      "anonymous": false,
      "inputs": [
        {
          "indexed": true,
          "internalType": "uint256",
          "name": "DataID",
          "type": "uint256"
        },
        {
          "indexed": false,
          "internalType": "string",
          "name": "file_hash",
          "type": "string"
        },
        {
          "indexed": false,
          "internalType": "string",
          "name": "URL_domain",
          "type": "string"
        },
        {
          "indexed": true,
          "internalType": "address",
          "name": "sender",
          "type": "address"
        }
      ],
      "name": "_SpotSubmitted",
      "type": "event"
    },
    {
      "anonymous": false,
      "inputs": [
        {
          "indexed": true,
          "internalType": "uint256",
          "name": "DataID",
          "type": "uint256"
        },
        {
          "indexed": true,
          "internalType": "address",
          "name": "voter",
          "type": "address"
        }
      ],
      "name": "_TokensRescued",
      "type": "event"
    },
    {
      "anonymous": false,
      "inputs": [
        {
          "indexed": false,
          "internalType": "uint256",
          "name": "numTokens",
          "type": "uint256"
        },
        {
          "indexed": true,
          "internalType": "address",
          "name": "voter",
          "type": "address"
        }
      ],
      "name": "_VotingRightsGranted",
      "type": "event"
    },
    {
      "anonymous": false,
      "inputs": [
        {
          "indexed": false,
          "internalType": "uint256",
          "name": "numTokens",
          "type": "uint256"
        },
        {
          "indexed": true,
          "internalType": "address",
          "name": "voter",
          "type": "address"
        }
      ],
      "name": "_VotingRightsWithdrawn",
      "type": "event"
    },
    {
      "anonymous": false,
      "inputs": [
        {
          "indexed": true,
          "internalType": "uint256",
          "name": "batchID",
          "type": "uint256"
        },
        {
          "indexed": false,
          "internalType": "address",
          "name": "worker",
          "type": "address"
        }
      ],
      "name": "_WorkAllocated",
      "type": "event"
    },
    {
      "anonymous": false,
      "inputs": [
        {
          "indexed": true,
          "internalType": "address",
          "name": "worker",
          "type": "address"
        },
        {
          "indexed": false,
          "internalType": "uint256",
          "name": "timestamp",
          "type": "uint256"
        }
      ],
      "name": "_WorkerRegistered",
      "type": "event"
    },
    {
      "anonymous": false,
      "inputs": [
        {
          "indexed": true,
          "internalType": "address",
          "name": "worker",
          "type": "address"
        },
        {
          "indexed": false,
          "internalType": "uint256",
          "name": "timestamp",
          "type": "uint256"
        }
      ],
      "name": "_WorkerUnregistered",
      "type": "event"
    },
    {
      "inputs": [],
      "name": "AcceptedBatchsCounter",
      "outputs": [
        {
          "internalType": "uint256",
          "name": "",
          "type": "uint256"
        }
      ],
      "stateMutability": "view",
      "type": "function"
    },
    {
      "inputs": [],
      "name": "AddressManager",
      "outputs": [
        {
          "internalType": "contract IAddressManager",
          "name": "",
          "type": "address"
        }
      ],
      "stateMutability": "view",
      "type": "function"
    },
    {
      "inputs": [],
      "name": "AllTxsCounter",
      "outputs": [
        {
          "internalType": "uint256",
          "name": "",
          "type": "uint256"
        }
      ],
      "stateMutability": "view",
      "type": "function"
    },
    {
      "inputs": [],
      "name": "AllocateWork",
      "outputs": [],
      "stateMutability": "nonpayable",
      "type": "function"
    },
    {
      "inputs": [],
      "name": "AllocatedBatchCursor",
      "outputs": [
        {
          "internalType": "uint256",
          "name": "",
          "type": "uint256"
        }
      ],
      "stateMutability": "view",
      "type": "function"
    },
    {
      "inputs": [],
      "name": "AmIRegistered",
      "outputs": [
        {
          "internalType": "bool",
          "name": "passed",
          "type": "bool"
        }
      ],
      "stateMutability": "view",
      "type": "function"
    },
    {
      "inputs": [
        {
          "internalType": "string",
          "name": "_a",
          "type": "string"
        },
        {
          "internalType": "string",
          "name": "_b",
          "type": "string"
        }
      ],
      "name": "AreStringsEqual",
      "outputs": [
        {
          "internalType": "bool",
          "name": "",
          "type": "bool"
        }
      ],
      "stateMutability": "pure",
      "type": "function"
    },
    {
      "inputs": [],
      "name": "BatchCheckingCursor",
      "outputs": [
        {
          "internalType": "uint256",
          "name": "",
          "type": "uint256"
        }
      ],
      "stateMutability": "view",
      "type": "function"
    },
    {
      "inputs": [],
      "name": "COMMIT_ROUND_DURATION",
      "outputs": [
        {
          "internalType": "uint256",
          "name": "",
          "type": "uint256"
        }
      ],
      "stateMutability": "view",
      "type": "function"
    },
    {
      "inputs": [],
      "name": "CONSENSUS_WORKER_SIZE",
      "outputs": [
        {
          "internalType": "uint256",
          "name": "",
          "type": "uint256"
        }
      ],
      "stateMutability": "view",
      "type": "function"
    },
    {
      "inputs": [],
      "name": "CurrentWorkEpoch",
      "outputs": [
        {
          "internalType": "uint256",
          "name": "",
          "type": "uint256"
        }
      ],
      "stateMutability": "view",
      "type": "function"
    },
    {
      "inputs": [],
      "name": "DATA_BATCH_SIZE",
      "outputs": [
        {
          "internalType": "uint256",
          "name": "",
          "type": "uint256"
        }
      ],
      "stateMutability": "view",
      "type": "function"
    },
    {
      "inputs": [
        {
          "internalType": "uint256",
          "name": "",
          "type": "uint256"
        }
      ],
      "name": "DataBatch",
      "outputs": [
        {
          "internalType": "uint256",
          "name": "start_idx",
          "type": "uint256"
        },
        {
          "internalType": "uint256",
          "name": "counter",
          "type": "uint256"
        },
        {
          "internalType": "uint256",
          "name": "uncommited_workers",
          "type": "uint256"
        },
        {
          "internalType": "uint256",
          "name": "unrevealed_workers",
          "type": "uint256"
        },
        {
          "internalType": "bool",
          "name": "complete",
          "type": "bool"
        },
        {
          "internalType": "bool",
          "name": "checked",
          "type": "bool"
        },
        {
          "internalType": "bool",
          "name": "allocated_to_work",
          "type": "bool"
        },
        {
          "internalType": "uint256",
          "name": "commitEndDate",
          "type": "uint256"
        },
        {
          "internalType": "uint256",
          "name": "revealEndDate",
          "type": "uint256"
        },
        {
          "internalType": "uint256",
          "name": "votesFor",
          "type": "uint256"
        },
        {
          "internalType": "uint256",
          "name": "votesAgainst",
          "type": "uint256"
        },
        {
          "internalType": "string",
          "name": "batchIPFSfile",
          "type": "string"
        },
        {
          "internalType": "uint256",
          "name": "item_count",
          "type": "uint256"
        },
        {
          "internalType": "enum DataSpotting.DataStatus",
          "name": "status",
          "type": "uint8"
        }
      ],
      "stateMutability": "view",
      "type": "function"
    },
    {
      "inputs": [
        {
          "internalType": "uint256",
          "name": "_DataBatchId",
          "type": "uint256"
        }
      ],
      "name": "DataCommitEndDate",
      "outputs": [
        {
          "internalType": "uint256",
          "name": "commitEndDate",
          "type": "uint256"
        }
      ],
      "stateMutability": "view",
      "type": "function"
    },
    {
      "inputs": [
        {
          "internalType": "uint256",
          "name": "_DataBatchId",
          "type": "uint256"
        }
      ],
      "name": "DataEnded",
      "outputs": [
        {
          "internalType": "bool",
          "name": "ended",
          "type": "bool"
        }
      ],
      "stateMutability": "view",
      "type": "function"
    },
    {
      "inputs": [
        {
          "internalType": "uint256",
          "name": "_DataBatchId",
          "type": "uint256"
        }
      ],
      "name": "DataExists",
      "outputs": [
        {
          "internalType": "bool",
          "name": "exists",
          "type": "bool"
        }
      ],
      "stateMutability": "view",
      "type": "function"
    },
    {
      "inputs": [],
      "name": "DataNonce",
      "outputs": [
        {
          "internalType": "uint256",
          "name": "",
          "type": "uint256"
        }
      ],
      "stateMutability": "view",
      "type": "function"
    },
    {
      "inputs": [
        {
          "internalType": "uint256",
          "name": "_DataBatchId",
          "type": "uint256"
        }
      ],
      "name": "DataRevealEndDate",
      "outputs": [
        {
          "internalType": "uint256",
          "name": "revealEndDate",
          "type": "uint256"
        }
      ],
      "stateMutability": "view",
      "type": "function"
    },
    {
      "inputs": [],
      "name": "FormattingSystem",
      "outputs": [
        {
          "internalType": "contract IFormattingSystem",
          "name": "",
          "type": "address"
        }
      ],
      "stateMutability": "view",
      "type": "function"
    },
    {
      "inputs": [
        {
          "internalType": "address",
          "name": "user_",
          "type": "address"
        }
      ],
      "name": "GetCurrentWork",
      "outputs": [
        {
          "internalType": "uint256",
          "name": "",
          "type": "uint256"
        }
      ],
      "stateMutability": "view",
      "type": "function"
    },
    {
      "inputs": [],
      "name": "INTER_ALLOCATION_DURATION",
      "outputs": [
        {
          "internalType": "uint256",
          "name": "",
          "type": "uint256"
        }
      ],
      "stateMutability": "view",
      "type": "function"
    },
    {
      "inputs": [
        {
          "internalType": "address",
          "name": "user_",
          "type": "address"
        }
      ],
      "name": "IsNewWorkAvailable",
      "outputs": [
        {
          "internalType": "bool",
          "name": "",
          "type": "bool"
        }
      ],
      "stateMutability": "view",
      "type": "function"
    },
    {
      "inputs": [],
      "name": "LastAllocationTime",
      "outputs": [
        {
          "internalType": "uint256",
          "name": "",
          "type": "uint256"
        }
      ],
      "stateMutability": "view",
      "type": "function"
    },
    {
      "inputs": [],
      "name": "LastBatchCounter",
      "outputs": [
        {
          "internalType": "uint256",
          "name": "",
          "type": "uint256"
        }
      ],
      "stateMutability": "view",
      "type": "function"
    },
    {
      "inputs": [],
      "name": "MIN_CONSENSUS_WORKER_COUNT",
      "outputs": [
        {
          "internalType": "uint256",
          "name": "",
          "type": "uint256"
        }
      ],
      "stateMutability": "view",
      "type": "function"
    },
    {
      "inputs": [],
      "name": "MIN_REP_Data",
      "outputs": [
        {
          "internalType": "uint256",
          "name": "",
          "type": "uint256"
        }
      ],
      "stateMutability": "view",
      "type": "function"
    },
    {
      "inputs": [],
      "name": "MIN_REP_REVEAL",
      "outputs": [
        {
          "internalType": "uint256",
          "name": "",
          "type": "uint256"
        }
      ],
      "stateMutability": "view",
      "type": "function"
    },
    {
      "inputs": [],
      "name": "MIN_REWARD_Data",
      "outputs": [
        {
          "internalType": "uint256",
          "name": "",
          "type": "uint256"
        }
      ],
      "stateMutability": "view",
      "type": "function"
    },
    {
      "inputs": [],
      "name": "MIN_STAKE",
      "outputs": [
        {
          "internalType": "uint256",
          "name": "",
          "type": "uint256"
        }
      ],
      "stateMutability": "view",
      "type": "function"
    },
    {
      "inputs": [
        {
          "internalType": "address",
          "name": "",
          "type": "address"
        },
        {
          "internalType": "uint256",
          "name": "",
          "type": "uint256"
        }
      ],
      "name": "MasterWorkers",
      "outputs": [
        {
          "internalType": "address",
          "name": "",
          "type": "address"
        }
      ],
      "stateMutability": "view",
      "type": "function"
    },
    {
      "inputs": [],
      "name": "NotCommitedCounter",
      "outputs": [
        {
          "internalType": "uint256",
          "name": "",
          "type": "uint256"
        }
      ],
      "stateMutability": "view",
      "type": "function"
    },
    {
      "inputs": [],
      "name": "NotRevealedCounter",
      "outputs": [
        {
          "internalType": "uint256",
          "name": "",
          "type": "uint256"
        }
      ],
      "stateMutability": "view",
      "type": "function"
    },
    {
      "inputs": [],
      "name": "REVEAL_ROUND_DURATION",
      "outputs": [
        {
          "internalType": "uint256",
          "name": "",
          "type": "uint256"
        }
      ],
      "stateMutability": "view",
      "type": "function"
    },
    {
      "inputs": [],
      "name": "RegisterWorker",
      "outputs": [],
      "stateMutability": "nonpayable",
      "type": "function"
    },
    {
      "inputs": [],
      "name": "RejectedBatchsCounter",
      "outputs": [
        {
          "internalType": "uint256",
          "name": "",
          "type": "uint256"
        }
      ],
      "stateMutability": "view",
      "type": "function"
    },
    {
      "inputs": [],
      "name": "RepManager",
      "outputs": [
        {
          "internalType": "contract IRepManager",
          "name": "",
          "type": "address"
        }
      ],
      "stateMutability": "view",
      "type": "function"
    },
    {
      "inputs": [],
      "name": "RewardManager",
      "outputs": [
        {
          "internalType": "contract IRewardManager",
          "name": "",
          "type": "address"
        }
      ],
      "stateMutability": "view",
      "type": "function"
    },
    {
      "inputs": [
        {
          "internalType": "string[]",
          "name": "file_hashs",
          "type": "string[]"
        },
        {
          "internalType": "string[]",
          "name": "URL_domains",
          "type": "string[]"
        },
        {
          "internalType": "uint256",
          "name": "item_count_",
          "type": "uint256"
        },
        {
          "internalType": "string",
          "name": "extra_",
          "type": "string"
        }
      ],
      "name": "SpotData",
      "outputs": [
        {
          "internalType": "uint256",
          "name": "Dataid_",
          "type": "uint256"
        }
      ],
      "stateMutability": "nonpayable",
      "type": "function"
    },
    {
      "inputs": [
        {
          "internalType": "address",
          "name": "",
          "type": "address"
        }
      ],
      "name": "SpotStakedTokenBalance",
      "outputs": [
        {
          "internalType": "uint256",
          "name": "",
          "type": "uint256"
        }
      ],
      "stateMutability": "view",
      "type": "function"
    },
    {
      "inputs": [
        {
          "internalType": "uint256",
          "name": "",
          "type": "uint256"
        }
      ],
      "name": "SpotsMapping",
      "outputs": [
        {
          "internalType": "string",
          "name": "ipfs_hash",
          "type": "string"
        },
        {
          "internalType": "address",
          "name": "author",
          "type": "address"
        },
        {
          "internalType": "uint256",
          "name": "timestamp",
          "type": "uint256"
        },
        {
          "internalType": "uint256",
          "name": "item_count",
          "type": "uint256"
        },
        {
          "internalType": "string",
          "name": "URL_domain",
          "type": "string"
        },
        {
          "internalType": "string",
          "name": "extra",
          "type": "string"
        },
        {
          "internalType": "enum DataSpotting.DataStatus",
          "name": "status",
          "type": "uint8"
        }
      ],
      "stateMutability": "view",
      "type": "function"
    },
    {
      "inputs": [],
      "name": "StakeManager",
      "outputs": [
        {
          "internalType": "contract IStakeManager",
          "name": "",
          "type": "address"
        }
      ],
      "stateMutability": "view",
      "type": "function"
    },
    {
      "inputs": [],
      "name": "TriggerNextEpoch",
      "outputs": [],
      "stateMutability": "nonpayable",
      "type": "function"
    },
    {
      "inputs": [],
      "name": "UnregisterWorker",
      "outputs": [],
      "stateMutability": "nonpayable",
      "type": "function"
    },
    {
      "inputs": [
        {
          "internalType": "uint256",
          "name": "",
          "type": "uint256"
        },
        {
          "internalType": "address",
          "name": "",
          "type": "address"
        }
      ],
      "name": "UserBatchCounts",
      "outputs": [
        {
          "internalType": "uint256",
          "name": "",
          "type": "uint256"
        }
      ],
      "stateMutability": "view",
      "type": "function"
    },
    {
      "inputs": [
        {
          "internalType": "address",
          "name": "",
          "type": "address"
        },
        {
          "internalType": "uint256",
          "name": "",
          "type": "uint256"
        }
      ],
      "name": "UserChecksCommits",
      "outputs": [
        {
          "internalType": "bool",
          "name": "",
          "type": "bool"
        }
      ],
      "stateMutability": "view",
      "type": "function"
    },
    {
      "inputs": [
        {
          "internalType": "address",
          "name": "",
          "type": "address"
        },
        {
          "internalType": "uint256",
          "name": "",
          "type": "uint256"
        }
      ],
      "name": "UserChecksReveals",
      "outputs": [
        {
          "internalType": "bool",
          "name": "",
          "type": "bool"
        }
      ],
      "stateMutability": "view",
      "type": "function"
    },
    {
      "inputs": [
        {
          "internalType": "uint256",
          "name": "",
          "type": "uint256"
        },
        {
          "internalType": "address",
          "name": "",
          "type": "address"
        }
      ],
      "name": "UserNewFiles",
      "outputs": [
        {
          "internalType": "string",
          "name": "",
          "type": "string"
        }
      ],
      "stateMutability": "view",
      "type": "function"
    },
    {
      "inputs": [
        {
          "internalType": "uint256",
          "name": "",
          "type": "uint256"
        },
        {
          "internalType": "address",
          "name": "",
          "type": "address"
        }
      ],
      "name": "UserVotes",
      "outputs": [
        {
          "internalType": "uint256",
          "name": "",
          "type": "uint256"
        }
      ],
      "stateMutability": "view",
      "type": "function"
    },
    {
      "inputs": [],
      "name": "VOTE_QUORUM",
      "outputs": [
        {
          "internalType": "uint256",
          "name": "",
          "type": "uint256"
        }
      ],
      "stateMutability": "view",
      "type": "function"
    },
    {
      "inputs": [
        {
          "internalType": "uint256",
          "name": "",
          "type": "uint256"
        },
        {
          "internalType": "uint256",
          "name": "",
          "type": "uint256"
        }
      ],
      "name": "WorkersPerBatch",
      "outputs": [
        {
          "internalType": "address",
          "name": "",
          "type": "address"
        }
      ],
      "stateMutability": "view",
      "type": "function"
    },
    {
      "inputs": [
        {
          "internalType": "address",
          "name": "",
          "type": "address"
        }
      ],
      "name": "WorkersState",
      "outputs": [
        {
          "internalType": "address",
          "name": "worker_address",
          "type": "address"
        },
        {
          "internalType": "address",
          "name": "master_address",
          "type": "address"
        },
        {
          "internalType": "uint256",
          "name": "allocated_work_batch",
          "type": "uint256"
        },
        {
          "internalType": "bool",
          "name": "has_completed_work",
          "type": "bool"
        },
        {
          "internalType": "uint256",
          "name": "last_worked_round",
          "type": "uint256"
        },
        {
          "internalType": "uint256",
          "name": "last_interaction_date",
          "type": "uint256"
        },
        {
          "internalType": "string",
          "name": "extra",
          "type": "string"
        },
        {
          "internalType": "bool",
          "name": "registered",
          "type": "bool"
        },
        {
          "internalType": "bool",
          "name": "unregistration_request",
          "type": "bool"
        },
        {
          "internalType": "uint256",
          "name": "registration_date",
          "type": "uint256"
        }
      ],
      "stateMutability": "view",
      "type": "function"
    },
    {
      "inputs": [
        {
          "internalType": "address",
          "name": "_user",
          "type": "address"
        },
        {
          "internalType": "uint256",
          "name": "_DataBatchId",
          "type": "uint256"
        }
      ],
      "name": "attrUUID",
      "outputs": [
        {
          "internalType": "bytes32",
          "name": "UUID",
          "type": "bytes32"
        }
      ],
      "stateMutability": "pure",
      "type": "function"
    },
    {
      "inputs": [
        {
          "internalType": "uint256",
          "name": "",
          "type": "uint256"
        }
      ],
      "name": "availableWorkers",
      "outputs": [
        {
          "internalType": "address",
          "name": "",
          "type": "address"
        }
      ],
      "stateMutability": "view",
      "type": "function"
    },
    {
      "inputs": [
        {
          "internalType": "uint256",
          "name": "",
          "type": "uint256"
        }
      ],
      "name": "busyWorkers",
      "outputs": [
        {
          "internalType": "address",
          "name": "",
          "type": "address"
        }
      ],
      "stateMutability": "view",
      "type": "function"
    },
    {
      "inputs": [
        {
          "internalType": "uint256",
          "name": "_DataBatchId",
          "type": "uint256"
        }
      ],
      "name": "commitPeriodActive",
      "outputs": [
        {
          "internalType": "bool",
          "name": "active",
          "type": "bool"
        }
      ],
      "stateMutability": "view",
      "type": "function"
    },
    {
      "inputs": [
        {
          "internalType": "uint256",
          "name": "_DataBatchId",
          "type": "uint256"
        },
        {
          "internalType": "bytes32",
          "name": "_secretHash",
          "type": "bytes32"
        },
        {
          "internalType": "string",
          "name": "newIPFSHash",
          "type": "string"
        },
        {
          "internalType": "uint256",
          "name": "_BatchCount",
          "type": "uint256"
        }
      ],
      "name": "commitSpotCheck",
      "outputs": [],
      "stateMutability": "nonpayable",
      "type": "function"
    },
    {
      "inputs": [
        {
          "internalType": "uint256",
          "name": "_DataId",
          "type": "uint256"
        }
      ],
      "name": "deleteData",
      "outputs": [],
      "stateMutability": "nonpayable",
      "type": "function"
    },
    {
      "inputs": [
        {
          "internalType": "uint256",
          "name": "_BatchId",
          "type": "uint256"
        }
      ],
      "name": "deleteDataBatch",
      "outputs": [],
      "stateMutability": "nonpayable",
      "type": "function"
    },
    {
      "inputs": [
        {
          "internalType": "address",
          "name": "_voter",
          "type": "address"
        },
        {
          "internalType": "uint256",
          "name": "_DataBatchId",
          "type": "uint256"
        }
      ],
      "name": "didCommit",
      "outputs": [
        {
          "internalType": "bool",
          "name": "committed",
          "type": "bool"
        }
      ],
      "stateMutability": "view",
      "type": "function"
    },
    {
      "inputs": [
        {
          "internalType": "address",
          "name": "_voter",
          "type": "address"
        },
        {
          "internalType": "uint256",
          "name": "_DataBatchId",
          "type": "uint256"
        }
      ],
      "name": "didReveal",
      "outputs": [
        {
          "internalType": "bool",
          "name": "revealed",
          "type": "bool"
        }
      ],
      "stateMutability": "view",
      "type": "function"
    },
    {
      "inputs": [
        {
          "internalType": "uint256",
          "name": "_k",
          "type": "uint256"
        },
        {
          "internalType": "uint256",
          "name": "N_range",
          "type": "uint256"
        }
      ],
      "name": "generateIntegers",
      "outputs": [
        {
          "internalType": "uint256[]",
          "name": "",
          "type": "uint256[]"
        }
      ],
      "stateMutability": "view",
      "type": "function"
    },
    {
      "inputs": [],
      "name": "getAcceptedBatchesCount",
      "outputs": [
        {
          "internalType": "uint256",
          "name": "count",
          "type": "uint256"
        }
      ],
      "stateMutability": "view",
      "type": "function"
    },
    {
      "inputs": [],
      "name": "getActiveWorkersCount",
      "outputs": [
        {
          "internalType": "uint256",
          "name": "numWorkers",
          "type": "uint256"
        }
      ],
      "stateMutability": "view",
      "type": "function"
    },
    {
      "inputs": [
        {
          "internalType": "uint256",
          "name": "_DataBatchId",
          "type": "uint256"
        }
      ],
      "name": "getBatchByID",
      "outputs": [
        {
          "components": [
            {
              "internalType": "uint256",
              "name": "start_idx",
              "type": "uint256"
            },
            {
              "internalType": "uint256",
              "name": "counter",
              "type": "uint256"
            },
            {
              "internalType": "uint256",
              "name": "uncommited_workers",
              "type": "uint256"
            },
            {
              "internalType": "uint256",
              "name": "unrevealed_workers",
              "type": "uint256"
            },
            {
              "internalType": "bool",
              "name": "complete",
              "type": "bool"
            },
            {
              "internalType": "bool",
              "name": "checked",
              "type": "bool"
            },
            {
              "internalType": "bool",
              "name": "allocated_to_work",
              "type": "bool"
            },
            {
              "internalType": "uint256",
              "name": "commitEndDate",
              "type": "uint256"
            },
            {
              "internalType": "uint256",
              "name": "revealEndDate",
              "type": "uint256"
            },
            {
              "internalType": "uint256",
              "name": "votesFor",
              "type": "uint256"
            },
            {
              "internalType": "uint256",
              "name": "votesAgainst",
              "type": "uint256"
            },
            {
              "internalType": "string",
              "name": "batchIPFSfile",
              "type": "string"
            },
            {
              "internalType": "uint256",
              "name": "item_count",
              "type": "uint256"
            },
            {
              "internalType": "enum DataSpotting.DataStatus",
              "name": "status",
              "type": "uint8"
            }
          ],
          "internalType": "struct DataSpotting.BatchMetadata",
          "name": "batch",
          "type": "tuple"
        }
      ],
      "stateMutability": "view",
      "type": "function"
    },
    {
      "inputs": [
        {
          "internalType": "uint256",
          "name": "_DataBatchId",
          "type": "uint256"
        }
      ],
      "name": "getBatchIPFSFileByID",
      "outputs": [
        {
          "internalType": "string",
          "name": "batch",
          "type": "string"
        }
      ],
      "stateMutability": "view",
      "type": "function"
    },
    {
      "inputs": [
        {
          "internalType": "address",
          "name": "_voter",
          "type": "address"
        },
        {
          "internalType": "uint256",
          "name": "_DataBatchId",
          "type": "uint256"
        }
      ],
      "name": "getCommitHash",
      "outputs": [
        {
          "internalType": "bytes32",
          "name": "commitHash",
          "type": "bytes32"
        }
      ],
      "stateMutability": "view",
      "type": "function"
    },
    {
      "inputs": [],
      "name": "getCurrentWorkEpoch",
      "outputs": [
        {
          "internalType": "uint256",
          "name": "WorkEpoch",
          "type": "uint256"
        }
      ],
      "stateMutability": "view",
      "type": "function"
    },
    {
      "inputs": [
        {
          "internalType": "uint256",
          "name": "_DataId",
          "type": "uint256"
        }
      ],
      "name": "getDataByID",
      "outputs": [
        {
          "components": [
            {
              "internalType": "string",
              "name": "ipfs_hash",
              "type": "string"
            },
            {
              "internalType": "address",
              "name": "author",
              "type": "address"
            },
            {
              "internalType": "uint256",
              "name": "timestamp",
              "type": "uint256"
            },
            {
              "internalType": "uint256",
              "name": "item_count",
              "type": "uint256"
            },
            {
              "internalType": "string",
              "name": "URL_domain",
              "type": "string"
            },
            {
              "internalType": "string",
              "name": "extra",
              "type": "string"
            },
            {
              "internalType": "enum DataSpotting.DataStatus",
              "name": "status",
              "type": "uint8"
            }
          ],
          "internalType": "struct DataSpotting.SpottedData",
          "name": "data",
          "type": "tuple"
        }
      ],
      "stateMutability": "view",
      "type": "function"
    },
    {
      "inputs": [
        {
          "internalType": "uint256",
          "name": "_DataBatchId",
          "type": "uint256"
        }
      ],
      "name": "getDomainsForBatch",
      "outputs": [
        {
          "internalType": "string[]",
          "name": "",
          "type": "string[]"
        }
      ],
      "stateMutability": "view",
      "type": "function"
    },
    {
      "inputs": [
        {
          "internalType": "uint256",
          "name": "_voteOption",
          "type": "uint256"
        },
        {
          "internalType": "uint256",
          "name": "_salt",
          "type": "uint256"
        }
      ],
      "name": "getEncryptedHash",
      "outputs": [
        {
          "internalType": "bytes32",
          "name": "keccak256hash",
          "type": "bytes32"
        }
      ],
      "stateMutability": "pure",
      "type": "function"
    },
    {
      "inputs": [
        {
          "internalType": "string",
          "name": "_hash",
          "type": "string"
        },
        {
          "internalType": "uint256",
          "name": "_salt",
          "type": "uint256"
        }
      ],
      "name": "getEncryptedStringHash",
      "outputs": [
        {
          "internalType": "bytes32",
          "name": "keccak256hash",
          "type": "bytes32"
        }
      ],
      "stateMutability": "pure",
      "type": "function"
    },
    {
      "inputs": [
        {
          "internalType": "uint256",
          "name": "_DataBatchId",
          "type": "uint256"
        }
      ],
      "name": "getIPFShashesForBatch",
      "outputs": [
        {
          "internalType": "string[]",
          "name": "",
          "type": "string[]"
        }
      ],
      "stateMutability": "view",
      "type": "function"
    },
    {
      "inputs": [],
      "name": "getLastAllocatedBatchId",
      "outputs": [
        {
          "internalType": "uint256",
          "name": "LastAllocatedBatchId",
          "type": "uint256"
        }
      ],
      "stateMutability": "view",
      "type": "function"
    },
    {
      "inputs": [],
      "name": "getLastBatchId",
      "outputs": [
        {
          "internalType": "uint256",
          "name": "LastBatchId",
          "type": "uint256"
        }
      ],
      "stateMutability": "view",
      "type": "function"
    },
    {
      "inputs": [],
      "name": "getLastCheckedBatchId",
      "outputs": [
        {
          "internalType": "uint256",
          "name": "LastCheckedBatchId",
          "type": "uint256"
        }
      ],
      "stateMutability": "view",
      "type": "function"
    },
    {
      "inputs": [],
      "name": "getLastDataId",
      "outputs": [
        {
          "internalType": "uint256",
          "name": "DataId",
          "type": "uint256"
        }
      ],
      "stateMutability": "view",
      "type": "function"
    },
    {
      "inputs": [
        {
          "internalType": "address",
          "name": "_voter",
          "type": "address"
        }
      ],
      "name": "getLastNode",
      "outputs": [
        {
          "internalType": "uint256",
          "name": "DataID",
          "type": "uint256"
        }
      ],
      "stateMutability": "view",
      "type": "function"
    },
    {
      "inputs": [
        {
          "internalType": "address",
          "name": "user",
          "type": "address"
        }
      ],
      "name": "getLastUserDataId",
      "outputs": [
        {
          "internalType": "uint256",
          "name": "DataId",
          "type": "uint256"
        }
      ],
      "stateMutability": "view",
      "type": "function"
    },
    {
      "inputs": [
        {
          "internalType": "address",
          "name": "_voter",
          "type": "address"
        }
      ],
      "name": "getLockedTokens",
      "outputs": [
        {
          "internalType": "uint256",
          "name": "numTokens",
          "type": "uint256"
        }
      ],
      "stateMutability": "view",
      "type": "function"
    },
    {
      "inputs": [],
      "name": "getMySystemTokenBalance",
      "outputs": [
        {
          "internalType": "uint256",
          "name": "tokens",
          "type": "uint256"
        }
      ],
      "stateMutability": "view",
      "type": "function"
    },
    {
      "inputs": [
        {
          "internalType": "address",
          "name": "_voter",
          "type": "address"
        },
        {
          "internalType": "uint256",
          "name": "_DataBatchId",
          "type": "uint256"
        }
      ],
      "name": "getNumTokens",
      "outputs": [
        {
          "internalType": "uint256",
          "name": "numTokens",
          "type": "uint256"
        }
      ],
      "stateMutability": "view",
      "type": "function"
    },
    {
      "inputs": [],
      "name": "getRandom",
      "outputs": [
        {
          "internalType": "uint256",
          "name": "",
          "type": "uint256"
        }
      ],
      "stateMutability": "view",
      "type": "function"
    },
    {
      "inputs": [],
      "name": "getRejectedBatchesCount",
      "outputs": [
        {
          "internalType": "uint256",
          "name": "count",
          "type": "uint256"
        }
      ],
      "stateMutability": "view",
      "type": "function"
    },
    {
      "inputs": [],
      "name": "getSeed",
      "outputs": [
        {
          "internalType": "bytes32",
          "name": "addr",
          "type": "bytes32"
        }
      ],
      "stateMutability": "view",
      "type": "function"
    },
    {
      "inputs": [
        {
          "internalType": "address",
          "name": "_user",
          "type": "address"
        }
      ],
      "name": "getSystemTokenBalance",
      "outputs": [
        {
          "internalType": "uint256",
          "name": "tokens",
          "type": "uint256"
        }
      ],
      "stateMutability": "view",
      "type": "function"
    },
    {
      "inputs": [],
      "name": "getTxCounter",
      "outputs": [
        {
          "internalType": "uint256",
          "name": "Counter",
          "type": "uint256"
        }
      ],
      "stateMutability": "view",
      "type": "function"
    },
    {
      "inputs": [
        {
          "internalType": "address",
          "name": "user",
          "type": "address"
        }
      ],
      "name": "getUserDatas",
      "outputs": [
        {
          "internalType": "uint256[]",
          "name": "user_Datas",
          "type": "uint256[]"
        }
      ],
      "stateMutability": "view",
      "type": "function"
    },
    {
      "inputs": [
        {
          "internalType": "uint256",
          "name": "_terminationDate",
          "type": "uint256"
        }
      ],
      "name": "isExpired",
      "outputs": [
        {
          "internalType": "bool",
          "name": "expired",
          "type": "bool"
        }
      ],
      "stateMutability": "view",
      "type": "function"
    },
    {
      "inputs": [
        {
          "internalType": "uint256",
          "name": "_DataBatchId",
          "type": "uint256"
        }
      ],
      "name": "isPassed",
      "outputs": [
        {
          "internalType": "bool",
          "name": "passed",
          "type": "bool"
        }
      ],
      "stateMutability": "view",
      "type": "function"
    },
    {
      "inputs": [
        {
          "internalType": "address",
          "name": "_worker",
          "type": "address"
        }
      ],
      "name": "isWorkerRegistered",
      "outputs": [
        {
          "internalType": "bool",
          "name": "passed",
          "type": "bool"
        }
      ],
      "stateMutability": "view",
      "type": "function"
    },
    {
      "inputs": [],
      "name": "owner",
      "outputs": [
        {
          "internalType": "address",
          "name": "",
          "type": "address"
        }
      ],
      "stateMutability": "view",
      "type": "function"
    },
    {
      "inputs": [
        {
          "internalType": "uint256",
          "name": "k",
          "type": "uint256"
        },
        {
          "internalType": "uint256",
          "name": "N",
          "type": "uint256"
        }
      ],
      "name": "random_selection",
      "outputs": [
        {
          "internalType": "uint256[]",
          "name": "",
          "type": "uint256[]"
        }
      ],
      "stateMutability": "view",
      "type": "function"
    },
    {
      "inputs": [],
      "name": "renounceOwnership",
      "outputs": [],
      "stateMutability": "nonpayable",
      "type": "function"
    },
    {
      "inputs": [
        {
          "internalType": "uint256",
          "name": "_numTokens",
          "type": "uint256"
        }
      ],
      "name": "requestVotingRights",
      "outputs": [],
      "stateMutability": "nonpayable",
      "type": "function"
    },
    {
      "inputs": [
        {
          "internalType": "uint256",
          "name": "_DataBatchId",
          "type": "uint256"
        }
      ],
      "name": "rescueTokens",
      "outputs": [],
      "stateMutability": "nonpayable",
      "type": "function"
    },
    {
      "inputs": [
        {
          "internalType": "uint256[]",
          "name": "_DataBatchIDs",
          "type": "uint256[]"
        }
      ],
      "name": "rescueTokensInMultipleDatas",
      "outputs": [],
      "stateMutability": "nonpayable",
      "type": "function"
    },
    {
      "inputs": [
        {
          "internalType": "uint256",
          "name": "_DataBatchId",
          "type": "uint256"
        }
      ],
      "name": "revealPeriodActive",
      "outputs": [
        {
          "internalType": "bool",
          "name": "active",
          "type": "bool"
        }
      ],
      "stateMutability": "view",
      "type": "function"
    },
    {
      "inputs": [
        {
          "internalType": "uint256",
          "name": "_DataBatchId",
          "type": "uint256"
        },
        {
          "internalType": "uint256",
          "name": "_voteOption",
          "type": "uint256"
        },
        {
          "internalType": "uint256",
          "name": "_salt",
          "type": "uint256"
        }
      ],
      "name": "revealSpotCheck",
      "outputs": [],
      "stateMutability": "nonpayable",
      "type": "function"
    },
    {
      "inputs": [],
      "name": "sFuel",
      "outputs": [
        {
          "internalType": "address",
          "name": "",
          "type": "address"
        }
      ],
      "stateMutability": "view",
      "type": "function"
    },
    {
      "inputs": [
        {
          "internalType": "uint256",
          "name": "N",
          "type": "uint256"
        }
      ],
      "name": "shuffle_array",
      "outputs": [
        {
          "internalType": "uint256[]",
          "name": "",
          "type": "uint256[]"
        }
      ],
      "stateMutability": "view",
      "type": "function"
    },
    {
      "inputs": [],
      "name": "token",
      "outputs": [
        {
          "internalType": "contract IERC20",
          "name": "",
          "type": "address"
        }
      ],
      "stateMutability": "view",
      "type": "function"
    },
    {
      "inputs": [
        {
          "internalType": "address",
          "name": "newOwner",
          "type": "address"
        }
      ],
      "name": "transferOwnership",
      "outputs": [],
      "stateMutability": "nonpayable",
      "type": "function"
    },
    {
      "inputs": [
        {
          "internalType": "address",
          "name": "addr",
          "type": "address"
        }
      ],
      "name": "updateAddressManager",
      "outputs": [],
      "stateMutability": "nonpayable",
      "type": "function"
    },
    {
      "inputs": [
        {
          "internalType": "uint256",
          "name": "COMMIT_ROUND_DURATION_",
          "type": "uint256"
        }
      ],
      "name": "updateCommitRoundDuration",
      "outputs": [],
      "stateMutability": "nonpayable",
      "type": "function"
    },
    {
      "inputs": [
        {
          "internalType": "uint256",
          "name": "CONSENSUS_WORKER_SIZE_",
          "type": "uint256"
        }
      ],
      "name": "updateConsensusSize",
      "outputs": [],
      "stateMutability": "nonpayable",
      "type": "function"
    },
    {
      "inputs": [
        {
          "internalType": "uint256",
          "name": "size",
          "type": "uint256"
        }
      ],
      "name": "updateDataBachSize",
      "outputs": [],
      "stateMutability": "nonpayable",
      "type": "function"
    },
    {
      "inputs": [
        {
          "internalType": "address",
          "name": "addr",
          "type": "address"
        }
      ],
      "name": "updateFormattingSystem",
      "outputs": [],
      "stateMutability": "nonpayable",
      "type": "function"
    },
    {
      "inputs": [
        {
          "internalType": "uint256",
          "name": "INTER_ALLOCATION_DURATION_",
          "type": "uint256"
        }
      ],
      "name": "updateInterAllocationDuration",
      "outputs": [],
      "stateMutability": "nonpayable",
      "type": "function"
    },
    {
      "inputs": [
        {
          "internalType": "uint256",
          "name": "CONSENSUS_WORKER_SIZE_",
          "type": "uint256"
        }
      ],
      "name": "updateMinConsensusSize",
      "outputs": [],
      "stateMutability": "nonpayable",
      "type": "function"
    },
    {
      "inputs": [
        {
          "internalType": "address",
          "name": "addr",
          "type": "address"
        }
      ],
      "name": "updateRepManager",
      "outputs": [],
      "stateMutability": "nonpayable",
      "type": "function"
    },
    {
      "inputs": [
        {
          "internalType": "uint256",
          "name": "REVEAL_ROUND_DURATION_",
          "type": "uint256"
        }
      ],
      "name": "updateRevealRoundDuration",
      "outputs": [],
      "stateMutability": "nonpayable",
      "type": "function"
    },
    {
      "inputs": [
        {
          "internalType": "address",
          "name": "addr",
          "type": "address"
        }
      ],
      "name": "updateRewardManager",
      "outputs": [],
      "stateMutability": "nonpayable",
      "type": "function"
    },
    {
      "inputs": [
        {
          "internalType": "address",
          "name": "addr",
          "type": "address"
        }
      ],
      "name": "updateStakeManager",
      "outputs": [],
      "stateMutability": "nonpayable",
      "type": "function"
    },
    {
      "inputs": [
        {
          "internalType": "address",
          "name": "_sFuel",
          "type": "address"
        }
      ],
      "name": "updatesFuelFaucet",
      "outputs": [],
      "stateMutability": "nonpayable",
      "type": "function"
    },
    {
      "inputs": [
        {
          "internalType": "address",
          "name": "",
          "type": "address"
        },
        {
          "internalType": "uint256",
          "name": "",
          "type": "uint256"
        }
      ],
      "name": "userSubmissions",
      "outputs": [
        {
          "internalType": "uint256",
          "name": "",
          "type": "uint256"
        }
      ],
      "stateMutability": "view",
      "type": "function"
    },
    {
      "inputs": [
        {
          "internalType": "uint256",
          "name": "_prevID",
          "type": "uint256"
        },
        {
          "internalType": "uint256",
          "name": "_nextID",
          "type": "uint256"
        },
        {
          "internalType": "address",
          "name": "_voter",
          "type": "address"
        },
        {
          "internalType": "uint256",
          "name": "_numTokens",
          "type": "uint256"
        }
      ],
      "name": "validPosition",
      "outputs": [
        {
          "internalType": "bool",
          "name": "APPROVED",
          "type": "bool"
        }
      ],
      "stateMutability": "view",
      "type": "function"
    },
    {
      "inputs": [
        {
          "internalType": "uint256",
          "name": "_numTokens",
          "type": "uint256"
        }
      ],
      "name": "withdrawVotingRights",
      "outputs": [],
      "stateMutability": "nonpayable",
      "type": "function"
    }
  ],
  "bytecode": "0x60806040526002600155600360025560016003556000600855670de0b6b3a7640000600955670de0b6b3a7640000600a5568015af1d78b58c40000600b55603c600c55600060145560006015557314f52f3fc010ab6ca81568d4a6794d5eab3c6155601e60006101000a8154816001600160a01b0302191690836001600160a01b031602179055506001601f556001602055600160215560006023556000602455600060255560006026556000602755348015620000bc57600080fd5b5060405162007e2438038062007e24833981016040819052620000df916200018e565b620000f3620000ed6200013a565b6200013e565b602880546001600160a01b0319166001600160a01b0392909216919091179055600060155568015af1d78b58c4000060045560b46005819055600655600a600755620001be565b3390565b600080546001600160a01b038381166001600160a01b0319831681178455604051919092169283917f8be0079c531659141344cd1fd0a4f28419497f9722a3daafe3b4186f6b6457e09190a35050565b600060208284031215620001a0578081fd5b81516001600160a01b0381168114620001b7578182fd5b9392505050565b617c5680620001ce6000396000f3fe608060405234801561001057600080fd5b50600436106107165760003560e01c80639769d846116103a8578063d6b0206c116101f4578063e8e9b6f91161011a578063f4cdfcc4116100b8578063f80a23fd11610087578063f80a23fd14610e45578063f96305f014610e4d578063fc0c546a14610e55578063fca4956314610e5d57610716565b8063f4cdfcc414610e0f578063f5ae7c7d14610e22578063f716596d14610e2a578063f721de4a14610e3257610716565b8063ef4fcdad116100f4578063ef4fcdad14610dd9578063f2d9e74d14610de1578063f2fde38b14610de9578063f343894614610dfc57610716565b8063e8e9b6f914610dab578063eb1322ff14610dbe578063ed8becfa14610dc657610716565b8063dd61868211610192578063e604c12711610161578063e604c12714610d6a578063e7805f9e14610d7d578063e798a7da14610d85578063e7b1d43c14610d9857610716565b8063dd61868214610d29578063df05368e14610d3c578063e1f7a43014610d4f578063e44c974b14610d5757610716565b8063d901402b116101ce578063d901402b14610cd0578063d9548e5314610ce3578063d9845fb814610cf6578063d9966ae814610d1657610716565b8063d6b0206c14610ca2578063d822ce0114610caa578063d8b7567414610cbd57610716565b8063b1a2e0be116102d9578063c4e4f82a11610277578063cb1c2b5c11610246578063cb1c2b5c14610c6c578063d0d41def14610c74578063d138209214610c7c578063d420ec0b14610c8f57610716565b8063c4e4f82a14610c36578063c7761fab14610c49578063c7c063fb14610c51578063c9b03a7214610c6457610716565b8063b7e4eba9116102b3578063b7e4eba914610bea578063b8f011b314610bfd578063bc3002e614610c10578063c47c4bc214610c2357610716565b8063b1a2e0be14610bb1578063b1cf4a7e14610bc4578063b1d7ea9814610bd757610716565b8063a350715a11610346578063a905779011610320578063a905779014610b7b578063aa7ca46414610b8e578063aacc5a1714610ba1578063ab43e78d14610ba957610716565b8063a350715a14610b58578063a4439dc514610b60578063a511dba014610b7357610716565b80639fc9c52f116103825780639fc9c52f14610b17578063a1103f3714610b2a578063a1b6b5b714610b3d578063a25236fe14610b4557610716565b80639769d84614610af45780639acb75c114610afc5780639b7e018014610b0457610716565b806354fbaac8116105675780637827e54911610498578063821aa8c0116104365780638d289f8f116104055780638d289f8f14610abe5780638da5cb5b14610ac65780638df0296e14610ace5780639760356014610ae157610716565b8063821aa8c014610a7257806383cc6ef214610a855780638473850b14610a8d5780638c89d02714610a9557610716565b80637f9510a2116104725780637f9510a214610a175780637f97e83614610a1f5780637fabe35b14610a32578063819b029314610a5f57610716565b80637827e549146109f45780637a34da67146109fc5780637d05052614610a0457610716565b8063667bf0f811610505578063715018a6116104df578063715018a6146109c957806371880b1b146109d1578063726bc8af146109e457806376e8ea4f146109ec57610716565b8063667bf0f81461099b5780636b2d95d4146109a35780637074222b146109b657610716565b80635a452943116105415780635a4529431461094d5780635b113a551461096d5780635fd87909146109805780636371d81f1461098857610716565b806354fbaac814610907578063579db71c1461091a578063580021581461093a57610716565b8063313066ee1161064c57806344dc8e6b116105ea5780634d884281116105b95780634d884281146108d15780634fe8b4c1146108e4578063515535e8146108f757806351912f29146108ff57610716565b806344dc8e6b1461089b57806347fe2d20146108ae5780634852e2f0146108b657806349403183146108be57610716565b806339e7357c1161062657806339e7357c1461085a578063427fa1d214610862578063441c77c01461087557806344639f7c1461088857610716565b8063313066ee146108375780633538af821461083f578063354dae401461085257610716565b8063154fd39b116106b9578063275c259011610693578063275c2590146107e757806329a47bc7146107ef5780632d917c68146108045780632f469fd11461081757610716565b8063154fd39b1461079f57806319d90346146107a7578063226ed300146107c757610716565b8063050eb2eb116106f5578063050eb2eb146107565780630b96c5b0146107695780630e6661a71461078f5780630e670feb1461079757610716565b8062e527361461071b578063035fbb551461073957806304dbcda71461074e575b600080fd5b610723610e70565b604051610730919061696c565b60405180910390f35b61074c610747366004616875565b610e76565b005b6107236111b3565b61074c6107643660046164c4565b6111b9565b61077c61077736600461676f565b61121a565b6040516107309796959493929190616b1c565b6107236113fe565b610723611404565b61072361140a565b6107ba6107b536600461676f565b611410565b6040516107309190616a22565b6107da6107d536600461676f565b611731565b6040516107309190616ac6565b61074c611779565b6107f76118af565b604051610730919061699f565b6107da6108123660046164de565b6118be565b61082a610825366004616798565b6118de565b6040516107309190616ad1565b610723611983565b6107f761084d36600461676f565b611989565b61074c6119b3565b610723611af7565b6107236108703660046164c4565b611b14565b6107da61088336600461676f565b611bb4565b61074c61089636600461676f565b611c0e565b61074c6108a936600461676f565b611c60565b610723611ca4565b610723611caa565b6107da6108cc36600461676f565b611cb0565b61074c6108df3660046164c4565b611e79565b61074c6108f236600461676f565b611eda565b610723611f7f565b6107f7611f85565b61074c6109153660046167c3565b611f94565b61092d6109283660046164c4565b612460565b6040516107309190616a82565b61074c61094836600461676f565b6124cc565b61096061095b36600461676f565b612510565b60405161073091906178cf565b61072361097b366004616798565b612765565b610723612782565b61074c61099636600461676f565b612788565b61074c61284a565b6107236109b13660046164c4565b612c82565b6107236109c43660046164c4565b612c91565b61074c612cac565b6107236109df36600461676f565b612cf7565b610723612d34565b610723612d3a565b610723612d40565b6107f7612d46565b61074c610a123660046164c4565b612d55565b610723612db6565b6107da610a2d3660046164de565b612dcd565b610a45610a4036600461676f565b612e20565b6040516107309e9d9c9b9a999897969594939291906179b6565b6107da610a6d366004616839565b612f20565b6107f7610a8036600461676f565b612f61565b6107f7612f71565b610723612f80565b610aa8610aa33660046164c4565b612f86565b6040516107309a999897969594939291906169b3565b6107f7613077565b6107f7613086565b6107f7610adc366004616818565b613095565b61074c610aef36600461676f565b6130cd565b61072361327c565b610723613282565b610723610b123660046164de565b613288565b61074c610b253660046165ee565b6132b9565b610723610b383660046164de565b61330b565b61072361333e565b61074c610b5336600461676f565b613344565b610723613445565b6107da610b6e36600461676f565b61344b565b6107236134ad565b6107da610b8936600461670f565b6134b3565b6107da610b9c3660046164de565b613519565b61072361356c565b6107f7613621565b6107da610bbf3660046164c4565b613630565b610723610bd2366004616818565b61378c565b61092d610be5366004616818565b6137a1565b61074c610bf836600461676f565b6139a8565b61092d610c0b366004616818565b6139ec565b610723610c1e366004616507565b613b54565b61074c610c313660046164c4565b613e98565b610723610c4436600461676f565b613ef9565b610723613f36565b610723610c5f3660046164c4565b613f3c565b610723613f4e565b610723613f54565b610723613f5a565b610723610c8a3660046164de565b613f60565b6107da610c9d3660046164de565b613ffc565b61072361401c565b6107f7610cb83660046164de565b614022565b610723610ccb366004616798565b61403e565b610723610cde3660046164de565b61405b565b6107da610cf136600461676f565b6140a0565b610d09610d0436600461676f565b6140a5565b6040516107309190617755565b61074c610d2436600461676f565b614229565b61074c610d373660046164c4565b61426d565b61074c610d4a3660046164c4565b6142ce565b61072361432f565b61092d610d6536600461676f565b614342565b61082a610d7836600461676f565b6143bb565b610723614466565b6107da610d933660046164c4565b61446c565b61074c610da636600461676f565b61448d565b61074c610db936600461676f565b6145d5565b610723614619565b6107ba610dd436600461676f565b61461f565b610723614932565b610723614938565b61074c610df73660046164c4565b61493e565b610723610e0a3660046164c4565b6149ac565b610723610e1d36600461669d565b614a4d565b610723614a83565b61074c614a89565b6107da610e4036600461676f565b614c58565b6107da614c60565b610723614c79565b6107f7614c7f565b610723610e6b3660046164c4565b614c8e565b60075481565b610e7e614dc8565b610e8783611bb4565b610eac5760405162461bcd60e51b8152600401610ea3906173cd565b60405180910390fd5b336000908152600d6020908152604080832086845290915290205460ff16610ee65760405162461bcd60e51b8152600401610ea3906170b8565b336000908152600e6020908152604080832086845290915290205460ff1615610f215760405162461bcd60e51b8152600401610ea390617709565b610f2b338461405b565b610f35838361378c565b14610f525760405162461bcd60e51b8152600401610ea390616de9565b6000610f5e3385613f60565b90508260011415610f955760008481526022602052604081206007018054839290610f8a908490617ae2565b90915550610fbc9050565b60008481526022602052604081206008018054839290610fb6908490617ae2565b90915550505b336000908152601260205260409081902090516301039dfd60e11b815273__$85afbab79b2b776d70bef879a32ed56424$__916302073bfa9161100491908890600401616991565b60006040518083038186803b15801561101c57600080fd5b505af4158015611030573d6000803e3d6000fd5b5050336000818152600e602090815260408083208a84528252808320805460ff19166001908117909155600f8352818420948452938252808320899055601682528083208a8452602290925290912060030154909350611091925090614f50565b60008681526022602052604090206003908101919091558101805460ff191660011790554260058201556110c433614f5c565b600781015460ff1615611139576110da336150b4565b1580156110f157506007810154610100900460ff16155b1561113957601b80546001810182556000919091527f3ad8aa4f87544323a9d1e5dd902f40c356527a7955687113db5f9a85ad579dc10180546001600160a01b031916331790555b60016023600082825461114c9190617ae2565b909155505060008581526022602052604090819020600781015460089091015491513392879289927f0867b5027231dcbf37614eaad07d667b9febaf9fdf483f488229b1f140bb0748926111a49289929091906179a0565b60405180910390a45050505050565b60095481565b6111c1615124565b6001600160a01b03166111d2613086565b6001600160a01b0316146111f85760405162461bcd60e51b8152600401610ea3906172e5565b602b80546001600160a01b0319166001600160a01b0392909216919091179055565b60176020526000908152604090208054819061123590617b74565b80601f016020809104026020016040519081016040528092919081815260200182805461126190617b74565b80156112ae5780601f10611283576101008083540402835291602001916112ae565b820191906000526020600020905b81548152906001019060200180831161129157829003601f168201915b50505060018401546002850154600386015460048701805496976001600160a01b0390941696929550909350906112e490617b74565b80601f016020809104026020016040519081016040528092919081815260200182805461131090617b74565b801561135d5780601f106113325761010080835404028352916020019161135d565b820191906000526020600020905b81548152906001019060200180831161134057829003601f168201915b50505050509080600501805461137290617b74565b80601f016020809104026020016040519081016040528092919081815260200182805461139e90617b74565b80156113eb5780601f106113c0576101008083540402835291602001916113eb565b820191906000526020600020905b8154815290600101906020018083116113ce57829003601f168201915b5050506006909301549192505060ff1687565b60155481565b600a5481565b60215490565b606061141b82614c58565b6114375760405162461bcd60e51b8152600401610ea39061745a565b600082815260226020908152604080832081516101c0810183528154815260018201549381019390935260028101549183019190915260038101546060830152600481015460ff808216151560808501526101008083048216151560a08601526201000090920416151560c0840152600582015460e084015260068201549083015260078101546101208301526008810154610140830152600981018054610160840191906114e590617b74565b80601f016020809104026020016040519081016040528092919081815260200182805461151190617b74565b801561155e5780601f106115335761010080835404028352916020019161155e565b820191906000526020600020905b81548152906001019060200180831161154157829003601f168201915b5050509183525050600a8201546020820152600b82015460409091019060ff16600381111561159d57634e487b7160e01b600052602160045260246000fd5b60038111156115bc57634e487b7160e01b600052602160045260246000fd5b9052506020810151600154919250906000906001600160401b038111156115f357634e487b7160e01b600052604160045260246000fd5b60405190808252806020026020018201604052801561162657816020015b60608152602001906001900390816116115790505b50905060005b82811015611726578351600090611644908390617ae2565b60008181526017602052604081206004018054929350909161166590617b74565b80601f016020809104026020016040519081016040528092919081815260200182805461169190617b74565b80156116de5780601f106116b3576101008083540402835291602001916116de565b820191906000526020600020905b8154815290600101906020018083116116c157829003601f168201915b505050505090508084848151811061170657634e487b7160e01b600052603260045260246000fd5b60200260200101819052505050808061171e90617baf565b91505061162c565b50925050505b919050565b600061173c82614c58565b6117585760405162461bcd60e51b8152600401610ea3906176e0565b600082815260226020526040902060060154611773906140a0565b92915050565b611781614dc8565b336000908152601660205260409020600781015460ff1615156001146117b95760405162461bcd60e51b8152600401610ea390617299565b6002810154158015906117d657506007810154610100900460ff16155b156117f15760078101805461ff001916610100179055611894565b6002810154156118135760405162461bcd60e51b8152600401610ea3906171df565b4261181d33615128565b61182633614f5c565b8154336001600160a01b03199182168117845560018401805490921681179091556005830182905560078301805460ff191690556040517f9dadcedba048e92b943ea1c5861cee1df63a566d7f795869c004780c1c698e2b9061188a90849061696c565b60405180910390a2505b6001602360008282546118a79190617ae2565b909155505050565b602a546001600160a01b031681565b600d60209081526000928352604080842090915290825290205460ff1681565b60106020908152600092835260408084209091529082529020805461190290617b74565b80601f016020809104026020016040519081016040528092919081815260200182805461192e90617b74565b801561197b5780601f106119505761010080835404028352916020019161197b565b820191906000526020600020905b81548152906001019060200180831161195e57829003601f168201915b505050505081565b60145481565b601b818154811061199957600080fd5b6000918252602090912001546001600160a01b0316905081565b6119bb614dc8565b6020805460009081526022909152604081206004015462010000900460ff1615156001148015611a0f57506119f1602054611731565b80611a0f575060208054600090815260229091526040902060030154155b15611a3457611a1f602054615258565b602054611a2d906001615e7d565b6020555060015b60215460009081526022602052604090206004015462010000900460ff161515600114801590611a655750601b5415155b8015611a85575060215460009081526022602052604090206004015460ff165b8015611a9f5750600754600854611a9c9042617b2d565b11155b15611ab057611aac61284a565b5060015b8015611ac857601454611ac4906001615e7d565b6014555b6014546040517f94d48a7342690f1233e3f4db70efa37c4f1f25f4d0397c353f3f15aecdeca5f490600090a250565b60405160009080602081848060185afa611b0d57fe5b5051919050565b6001600160a01b03811660009081526012602052604080822090516301c39b2b60e11b815273__$85afbab79b2b776d70bef879a32ed56424$__91630387365691611b6491908590600401616991565b60206040518083038186803b158015611b7c57600080fd5b505af4158015611b90573d6000803e3d6000fd5b505050506040513d601f19601f820116820180604052508101906117739190616787565b6000611bbf82614c58565b611bdb5760405162461bcd60e51b8152600401610ea39061745a565b600082815260226020526040902060060154611bf6906140a0565b1580156117735750611c078261344b565b1592915050565b611c16615124565b6001600160a01b0316611c27613086565b6001600160a01b031614611c4d5760405162461bcd60e51b8152600401610ea3906172e5565b6001811015611c5b57600080fd5b600355565b611c68615124565b6001600160a01b0316611c79613086565b6001600160a01b031614611c9f5760405162461bcd60e51b8152600401610ea3906172e5565b600755565b60205490565b60265481565b600081815260226020908152604080832081516101c0810183528154815260018201549381019390935260028101549183019190915260038101546060830152600481015460ff808216151560808501526101008083048216151560a08601526201000090920416151560c0840152600582015460e08401526006820154908301526007810154610120830152600881015461014083015260098101805484939291610160840191611d6190617b74565b80601f0160208091040260200160405190810160405280929190818152602001828054611d8d90617b74565b8015611dda5780601f10611daf57610100808354040283529160200191611dda565b820191906000526020600020905b815481529060010190602001808311611dbd57829003601f168201915b5050509183525050600a8201546020820152600b82015460409091019060ff166003811115611e1957634e487b7160e01b600052602160045260246000fd5b6003811115611e3857634e487b7160e01b600052602160045260246000fd5b905250610140810151610120820151919250611e5391617ae2565b600c54611e609190617b0e565b610120820151611e71906064617b0e565b119392505050565b611e81615124565b6001600160a01b0316611e92613086565b6001600160a01b031614611eb85760405162461bcd60e51b8152600401610ea3906172e5565b601e80546001600160a01b0319166001600160a01b0392909216919091179055565b611ee2615124565b6001600160a01b0316611ef3613086565b6001600160a01b031614611f195760405162461bcd60e51b8152600401610ea3906172e5565b600081815260176020526040812090611f328282616234565b6001820180546001600160a01b031916905560006002830181905560038301819055611f62906004840190616234565b611f70600583016000616234565b50600601805460ff1916905550565b601f5490565b602b546001600160a01b031681565b611f9c614dc8565b611fa58461344b565b611fc15760405162461bcd60e51b8152600401610ea390616d9a565b336000908152600d6020908152604080832087845290915290205460ff1615611ffc5760405162461bcd60e51b8152600401610ea39061754e565b6120068433615e89565b6120225760405162461bcd60e51b8152600401610ea390616f45565b600454336000908152601960205260409020548111156120645733600090815260196020526040812054612057908390614f50565b905061206281613344565b505b336000908152601960205260409020548111156120935760405162461bcd60e51b8152600401610ea3906175d9565b6000336000908152601260205260408082209051631e0f232560e31b815273__$85afbab79b2b776d70bef879a32ed56424$__9163f0791928916120dc91908690600401616991565b60206040518083038186803b1580156120f457600080fd5b505af4158015612108573d6000803e3d6000fd5b505050506040513d601f19601f8201168201806040525081019061212c9190616787565b9050868114156121d15733600090815260126020526040908190209051631e0f232560e31b815273__$85afbab79b2b776d70bef879a32ed56424$__9163f07919289161217e91908b90600401616991565b60206040518083038186803b15801561219657600080fd5b505af41580156121aa573d6000803e3d6000fd5b505050506040513d601f19601f820116820180604052508101906121ce9190616787565b90505b6121dd82823386612f20565b6121f95760405162461bcd60e51b8152600401610ea3906171b1565b3360009081526012602052604090819020905163524cfe5360e11b815273__$85afbab79b2b776d70bef879a32ed56424$__9163a499fca691612245919086908c9087906004016178b4565b60006040518083038186803b15801561225d57600080fd5b505af4158015612271573d6000803e3d6000fd5b505050506000612281338961330b565b60405163099b040f60e31b815290915073__$0947e710b66d7779e1d561254425e1375a$__90634cd82078906122c09060139085908990600401617896565b60006040518083038186803b1580156122d857600080fd5b505af41580156122ec573d6000803e3d6000fd5b505060405163099b040f60e31b815273__$0947e710b66d7779e1d561254425e1375a$__9250634cd82078915061232c9060139085908c9060040161784a565b60006040518083038186803b15801561234457600080fd5b505af4158015612358573d6000803e3d6000fd5b50505060008981526010602090815260408083203384528252909120885161238593509091890190616270565b5060008881526011602090815260408083203384528252808320889055601682528083208b84526022909252909120600201546123c3906001614f50565b60008a815260226020908152604080832060020193909355426005850155338252600d81528282208c83529052908120805460ff191660019081179091556023805491929091612414908490617ae2565b909155505060405133908a907f42864d9683ff5b12c3b2cc65d705af5aab104b03bc700b802f79e5c971ef08a19061244d90899061696c565b60405180910390a3505050505050505050565b6001600160a01b0381166000908152601860209081526040918290208054835181840281018401909452808452606093928301828280156124c057602002820191906000526020600020905b8154815260200190600101908083116124ac575b50505050509050919050565b6124d4615124565b6001600160a01b03166124e5613086565b6001600160a01b03161461250b5760405162461bcd60e51b8152600401610ea3906172e5565b600655565b6125186162f4565b60008281526017602052604090819020815160e0810190925280548290829061254090617b74565b80601f016020809104026020016040519081016040528092919081815260200182805461256c90617b74565b80156125b95780601f1061258e576101008083540402835291602001916125b9565b820191906000526020600020905b81548152906001019060200180831161259c57829003601f168201915b505050918352505060018201546001600160a01b0316602082015260028201546040820152600382015460608201526004820180546080909201916125fd90617b74565b80601f016020809104026020016040519081016040528092919081815260200182805461262990617b74565b80156126765780601f1061264b57610100808354040283529160200191612676565b820191906000526020600020905b81548152906001019060200180831161265957829003601f168201915b5050505050815260200160058201805461268f90617b74565b80601f01602080910402602001604051908101604052809291908181526020018280546126bb90617b74565b80156127085780601f106126dd57610100808354040283529160200191612708565b820191906000526020600020905b8154815290600101906020018083116126eb57829003601f168201915b5050509183525050600682015460209091019060ff16600381111561273d57634e487b7160e01b600052602160045260246000fd5b600381111561275c57634e487b7160e01b600052602160045260246000fd5b90525092915050565b601160209081526000928352604080842090915290825290205481565b60065481565b612790615124565b6001600160a01b03166127a1613086565b6001600160a01b0316146127c75760405162461bcd60e51b8152600401610ea3906172e5565b6127d081614c58565b1561284757600081815260226020526040812081815560018101829055600281018290556003810182905560048101805462ffffff1916905560058101829055600681018290556007810182905560088101829055906128336009830182616234565b506000600a820155600b01805460ff191690555b50565b60075460085461285a9042617b2d565b11156128785760405162461bcd60e51b8152600401610ea390616ff1565b60215460009081526022602052604090206004015460ff166128ac5760405162461bcd60e51b8152600401610ea390617377565b60215460009081526022602052604090206004015462010000900460ff16156128e75760405162461bcd60e51b8152600401610ea39061723c565b60006129056128fd601b80549050600254615f64565b600354615f7a565b601b5460218054600090815260226020526040808220600301859055915481529081206002018390556005549293509091612941904290615e7d565b9050600061295a60065483615e7d90919063ffffffff16565b60218054600090815260226020526040808220600501869055825482528082206006018490559154815220600401805462ff00001916620100001790559050600184108015906129ab575060018310155b6129c75760405162461bcd60e51b8152600401610ea390616efb565b60006129d385856139ec565b9050600081516001600160401b038111156129fe57634e487b7160e01b600052604160045260246000fd5b604051908082528060200260200182016040528015612a27578160200160208202803683370190505b50905060005b8251811015612ae657601b838281518110612a5857634e487b7160e01b600052603260045260246000fd5b602002602001015181548110612a7e57634e487b7160e01b600052603260045260246000fd5b9060005260206000200160009054906101000a90046001600160a01b0316828281518110612abc57634e487b7160e01b600052603260045260246000fd5b6001600160a01b039092166020928302919091019091015280612ade81617baf565b915050612a2d565b5060005b8251811015612c49576000828281518110612b1557634e487b7160e01b600052603260045260246000fd5b60200260200101519050600060166000836001600160a01b03166001600160a01b031681526020019081526020016000209050612b5182615128565b612b5a82615f8a565b612baa57601c80546001810182556000919091527f0e4562a10381dec21b205ed72637e6b1b523bdd0e4d4d50af5cd23dd4500a2110180546001600160a01b0319166001600160a01b0384161790555b602180546000908152601d602090815260408083208054600181018255908452919092200180546001600160a01b0319166001600160a01b0386161790558154600284015560038301805460ff19169055905490517fe4ee2dfabe57cee15e3f558890b20455f54c1fa0718e5276faad70a6500e6b8c90612c2c90859061699f565b60405180910390a250508080612c4190617baf565b915050612aea565b5042600855602154612c5c906001615e7d565b602181905550600160236000828254612c759190617ae2565b9091555050505050505050565b600061177382610c8a84611b14565b6001600160a01b031660009081526019602052604090205490565b612cb4615124565b6001600160a01b0316612cc5613086565b6001600160a01b031614612ceb5760405162461bcd60e51b8152600401610ea3906172e5565b612cf56000615ffa565b565b6000612d0282614c58565b612d1e5760405162461bcd60e51b8152600401610ea39061745a565b5060009081526022602052604090206006015490565b60035481565b60015481565b600b5481565b602c546001600160a01b031681565b612d5d615124565b6001600160a01b0316612d6e613086565b6001600160a01b031614612d945760405162461bcd60e51b8152600401610ea3906172e5565b602d80546001600160a01b0319166001600160a01b0392909216919091179055565b601c54601b54600091612dc891617ae2565b905090565b6000612dd882614c58565b612df45760405162461bcd60e51b8152600401610ea39061745a565b506001600160a01b03919091166000908152600d60209081526040808320938352929052205460ff1690565b602260205260009081526040902080546001820154600283015460038401546004850154600586015460068701546007880154600889015460098a018054999a98999798969760ff80881698610100890482169862010000900490911696959493929091612e8d90617b74565b80601f0160208091040260200160405190810160405280929190818152602001828054612eb990617b74565b8015612f065780601f10612edb57610100808354040283529160200191612f06565b820191906000526020600020905b815481529060010190602001808311612ee957829003601f168201915b50505050600a830154600b9093015491929160ff1690508e565b600080612f2d8487613f60565b83101590506000612f3e8587613f60565b84111580612f4a575085155b9050818015612f565750805b979650505050505050565b601c818154811061199957600080fd5b6029546001600160a01b031681565b601f5481565b60166020526000908152604090208054600182015460028301546003840154600485015460058601546006870180546001600160a01b03978816989690971696949560ff9094169492939192612fdb90617b74565b80601f016020809104026020016040519081016040528092919081815260200182805461300790617b74565b80156130545780601f1061302957610100808354040283529160200191613054565b820191906000526020600020905b81548152906001019060200180831161303757829003601f168201915b505050506007830154600890930154919260ff808216936101009092041691508a565b602d546001600160a01b031681565b6000546001600160a01b031690565b601d60205281600052604060002081815481106130b157600080fd5b6000918252602090912001546001600160a01b03169150829050565b60016000828152602260205260409020600b015460ff16600381111561310357634e487b7160e01b600052602160045260246000fd5b146131205760405162461bcd60e51b8152600401610ea390616c9d565b336000908152601260205260409081902090516306120d1f60e31b815273__$85afbab79b2b776d70bef879a32ed56424$__9163309068f89161316891908590600401616991565b60206040518083038186803b15801561318057600080fd5b505af4158015613194573d6000803e3d6000fd5b505050506040513d601f19601f820116820180604052508101906131b8919061667d565b6131d45760405162461bcd60e51b8152600401610ea390617154565b336000908152601260205260409081902090516301039dfd60e11b815273__$85afbab79b2b776d70bef879a32ed56424$__916302073bfa9161321c91908590600401616991565b60006040518083038186803b15801561323457600080fd5b505af4158015613248573d6000803e3d6000fd5b50506040513392508391507f402507661c8c8cb90e0a796450b8bdd28b6c516f05279c0cd29e84c344e1699a90600090a350565b60245481565b60145490565b601860205281600052604060002081815481106132a457600080fd5b90600052602060002001600091509150505481565b60005b8151811015613307576132f58282815181106132e857634e487b7160e01b600052603260045260246000fd5b60200260200101516130cd565b806132ff81617baf565b9150506132bc565b5050565b6000828260405160200161332092919061694a565b60405160208183030381529060405280519060200120905092915050565b60245490565b6029546040516304ada21f60e21b81526001600160a01b03909116906312b6887c90613376908490339060040161796b565b602060405180830381600087803b15801561339057600080fd5b505af11580156133a4573d6000803e3d6000fd5b505050506040513d601f19601f820116820180604052508101906133c8919061667d565b6133e45760405162461bcd60e51b8152600401610ea39061705b565b3360009081526019602052604081208054839290613403908490617ae2565b909155505060405133907ff7aaf024511d9982df8cd0d437c71c30106e6848cd1ba3d288d7a9c0e276aeda9061343a90849061696c565b60405180910390a250565b60255481565b600061345682614c58565b6134725760405162461bcd60e51b8152600401610ea39061745a565b60008281526022602052604090206005015461348d906140a0565b158015611773575050600090815260226020526040902060020154151590565b60155490565b6000816040516020016134c69190616975565b60405160208183030381529060405280519060200120836040516020016134ed9190616975565b60405160208183030381529060405280519060200120141561351157506001611773565b506000611773565b600061352482614c58565b6135405760405162461bcd60e51b8152600401610ea39061745a565b506001600160a01b03919091166000908152600e60209081526040808320938352929052205460ff1690565b6000804241604051602001613581919061692d565b6040516020818303038152906040528051906020012060001c6135a49190617afa565b446135ad611af7565b6040516020016135bd919061696c565b60408051601f1981840301815291905280516020909101206135df9042617ae2565b6135e99190617ae2565b6135f39190617ae2565b604051602001613603919061696c565b60408051601f19818403018152919052805160209091012091505090565b601e546001600160a01b031681565b6001600160a01b038082166000908152601660209081526040808320815161014081018352815486168152600182015490951692850192909252600282015490840152600381015460ff161515606084015260048101546080840152600581015460a0840152600681018054929384938493919260c08401916136b290617b74565b80601f01602080910402602001604051908101604052809291908181526020018280546136de90617b74565b801561372b5780601f106137005761010080835404028352916020019161372b565b820191906000526020600020905b81548152906001019060200180831161370e57829003601f168201915b5050509183525050600782015460ff80821615156020840152610100909104161515604082015260089091015460609182015281015190915015801561377b57506137798160400151611731565b155b1561378557600191505b5092915050565b60008282604051602001613320929190616991565b6060600082116137b057600080fd5b6000416040516020016137c3919061692d565b6040516020818303038152906040528051906020012060001c6137e4611af7565b6040516020016137f4919061696c565b60408051601f1981840301815291905280516020909101206138169042617ae2565b6138209190617ae2565b604051602001613830919061696c565b6040516020818303038152906040528051906020012060001c90506000846001600160401b0381111561387357634e487b7160e01b600052604160045260246000fd5b60405190808252806020026020018201604052801561389c578160200160208202803683370190505b5090506000805b8682101561399d576000866138bc63017efeeb87617b2d565b836040516020016138ce929190616991565b6040516020818303038152906040528051906020012060001c6138f19190617bca565b90506000805b84811015613949578286828151811061392057634e487b7160e01b600052603260045260246000fd5b602002602001015114156139375760019150613949565b8061394181617baf565b9150506138f7565b5080613989578185858151811061397057634e487b7160e01b600052603260045260246000fd5b6020908102919091010152613986846001617ae2565b93505b613994836001617ae2565b925050506138a3565b509095945050505050565b6139b0615124565b6001600160a01b03166139c1613086565b6001600160a01b0316146139e75760405162461bcd60e51b8152600401610ea3906172e5565b600155565b60606000821180156139fe5750818311155b8015613a0b575060018310155b613a275760405162461bcd60e51b8152600401610ea390616eb2565b6000826001600160401b03811115613a4f57634e487b7160e01b600052604160045260246000fd5b604051908082528060200260200182016040528015613a78578160200160208202803683370190505b5090506000846001600160401b03811115613aa357634e487b7160e01b600052604160045260246000fd5b604051908082528060200260200182016040528015613acc578160200160208202803683370190505b5090506000613ae2613add8461604a565b6160a0565b905060005b8681101561399d57818181518110613b0f57634e487b7160e01b600052603260045260246000fd5b6020026020010151838281518110613b3757634e487b7160e01b600052603260045260246000fd5b602090810291909101015280613b4c81617baf565b915050613ae7565b6000613b5e614dc8565b60045433600090815260196020526040902054811115613ba05733600090815260196020526040812054613b93908390614f50565b9050613b9e81613344565b505b60005b8751811015613e71576000888281518110613bce57634e487b7160e01b600052603260045260246000fd5b602002602001015190506000888884818110613bfa57634e487b7160e01b600052603260045260246000fd5b9050602002810190613c0c9190617a46565b8080601f016020809104026020016040519081016040528093929190818152602001838380828437600092018290525033808252601860209081526040808420601554815460018101835591865283862090910155805160e0810182528a8152918201929092524291810191909152606081018d90526080810186905260a081018c905294955060c0850193509150613ca29050565b90526015546000908152601760209081526040909120825180519192613ccd92849290910190616270565b506020828101516001830180546001600160a01b0319166001600160a01b03909216919091179055604083015160028301556060830151600383015560808301518051613d209260048501920190616270565b5060a08201518051613d3c916005840191602090910190616270565b5060c082015160068201805460ff19166001836003811115613d6e57634e487b7160e01b600052602160045260246000fd5b021790555050601f54600090815260226020526040902060018054908201549192501115613db1576001816001016000828254613dab9190617ae2565b90915550505b600154816001015410613e0357600481018054600160ff19909116811761ff001916909155601f8054600090613de8908490617ae2565b9091555050601554601f546000908152602260205260409020555b613e0b6119b3565b601554613e19906001617ae2565b60158190556040513391907fb819ca9ac369919119f75ec7363dd954f75bcfa75f9245647e03da413be0d58290613e539087908790616b8e565b60405180910390a35050508080613e6990617baf565b915050613ba3565b50600160236000828254613e859190617ae2565b9091555050601554979650505050505050565b613ea0615124565b6001600160a01b0316613eb1613086565b6001600160a01b031614613ed75760405162461bcd60e51b8152600401610ea3906172e5565b602c80546001600160a01b0319166001600160a01b0392909216919091179055565b6000613f0482614c58565b613f205760405162461bcd60e51b8152600401610ea39061745a565b5060009081526022602052604090206005015490565b600c5481565b60196020526000908152604090205481565b60025481565b60045481565b60085481565b600073__$0947e710b66d7779e1d561254425e1375a$__63698101586013613f88868661330b565b6040518363ffffffff1660e01b8152600401613fa5929190617878565b60206040518083038186803b158015613fbd57600080fd5b505af4158015613fd1573d6000803e3d6000fd5b505050506040513d601f19601f82011682018060405250810190613ff59190616787565b9392505050565b600e60209081526000928352604080842090915290825290205460ff1681565b60215481565b601a60205281600052604060002081815481106130b157600080fd5b600f60209081526000928352604080842090915290825290205481565b600073__$0947e710b66d7779e1d561254425e1375a$__63698101586013614083868661330b565b6040518363ffffffff1660e01b8152600401613fa592919061782c565b421190565b6140ad616358565b6140b682614c58565b6140bf57600080fd5b60008281526022602090815260409182902082516101c0810184528154815260018201549281019290925260028101549282019290925260038201546060820152600482015460ff808216151560808401526101008083048216151560a08501526201000090920416151560c0830152600583015460e0830152600683015490820152600782015461012082015260088201546101408201526009820180549192916101608401919061417190617b74565b80601f016020809104026020016040519081016040528092919081815260200182805461419d90617b74565b80156141ea5780601f106141bf576101008083540402835291602001916141ea565b820191906000526020600020905b8154815290600101906020018083116141cd57829003601f168201915b5050509183525050600a8201546020820152600b82015460409091019060ff16600381111561273d57634e487b7160e01b600052602160045260246000fd5b614231615124565b6001600160a01b0316614242613086565b6001600160a01b0316146142685760405162461bcd60e51b8152600401610ea3906172e5565b600255565b614275615124565b6001600160a01b0316614286613086565b6001600160a01b0316146142ac5760405162461bcd60e51b8152600401610ea3906172e5565b602a80546001600160a01b0319166001600160a01b0392909216919091179055565b6142d6615124565b6001600160a01b03166142e7613086565b6001600160a01b03161461430d5760405162461bcd60e51b8152600401610ea3906172e5565b602980546001600160a01b0319166001600160a01b0392909216919091179055565b3360009081526019602052604090205490565b60606000821161435157600080fd5b6000826001600160401b0381111561437957634e487b7160e01b600052604160045260246000fd5b6040519080825280602002602001820160405280156143a2578160200160208202803683370190505b50905060006143b3613add8361604a565b949350505050565b60606143c682614c58565b6143cf57600080fd5b600082815260226020526040902060090180546143eb90617b74565b80601f016020809104026020016040519081016040528092919081815260200182805461441790617b74565b80156124c05780601f10614439576101008083540402835291602001916124c0565b820191906000526020600020905b8154815290600101906020018083116144475750939695505050505050565b60055481565b6001600160a01b031660009081526016602052604090206007015460ff1690565b60006144b161449b33612c82565b3360009081526019602052604090205490614f50565b9050818110156144d35760405162461bcd60e51b8152600401610ea390617413565b602954604051630895993360e11b81526001600160a01b039091169063112b326690614505908590339060040161796b565b602060405180830381600087803b15801561451f57600080fd5b505af1158015614533573d6000803e3d6000fd5b505050506040513d601f19601f82011682018060405250810190614557919061667d565b6145735760405162461bcd60e51b8152600401610ea390617683565b3360009081526019602052604081208054849290614592908490617b2d565b909155505060405133907ffaeb7dbb9992397d26ea1944efd40c80b40f702faf69b46c67ad10aba68ccb79906145c990859061696c565b60405180910390a25050565b6145dd615124565b6001600160a01b03166145ee613086565b6001600160a01b0316146146145760405162461bcd60e51b8152600401610ea3906172e5565b600555565b60275481565b606061462a82614c58565b6146465760405162461bcd60e51b8152600401610ea39061745a565b600082815260226020908152604080832081516101c0810183528154815260018201549381019390935260028101549183019190915260038101546060830152600481015460ff808216151560808501526101008083048216151560a08601526201000090920416151560c0840152600582015460e084015260068201549083015260078101546101208301526008810154610140830152600981018054610160840191906146f490617b74565b80601f016020809104026020016040519081016040528092919081815260200182805461472090617b74565b801561476d5780601f106147425761010080835404028352916020019161476d565b820191906000526020600020905b81548152906001019060200180831161475057829003601f168201915b5050509183525050600a8201546020820152600b82015460409091019060ff1660038111156147ac57634e487b7160e01b600052602160045260246000fd5b60038111156147cb57634e487b7160e01b600052602160045260246000fd5b9052506020810151600154919250906000906001600160401b0381111561480257634e487b7160e01b600052604160045260246000fd5b60405190808252806020026020018201604052801561483557816020015b60608152602001906001900390816148205790505b50905060005b82811015611726578351600090614853908390617ae2565b60008181526017602052604081208054929350909161487190617b74565b80601f016020809104026020016040519081016040528092919081815260200182805461489d90617b74565b80156148ea5780601f106148bf576101008083540402835291602001916148ea565b820191906000526020600020905b8154815290600101906020018083116148cd57829003601f168201915b505050505090508084848151811061491257634e487b7160e01b600052603260045260246000fd5b60200260200101819052505050808061492a90617baf565b91505061483b565b60205481565b60235481565b614946615124565b6001600160a01b0316614957613086565b6001600160a01b03161461497d5760405162461bcd60e51b8152600401610ea3906172e5565b6001600160a01b0381166149a35760405162461bcd60e51b8152600401610ea390616e6c565b61284781615ffa565b6001600160a01b038116600090815260186020908152604080832080548251818502810185019093528083528493830182828015614a0957602002820191906000526020600020905b8154815260200190600101908083116149f5575b505050505090508060018251614a1f9190617b2d565b81518110614a3d57634e487b7160e01b600052603260045260246000fd5b6020026020010151915050919050565b6000838383604051602001614a6493929190616ae4565b6040516020818303038152906040528051906020012090509392505050565b60235490565b614a91614dc8565b336000908152601660205260409020601c54601b546103e891614ab391617ae2565b10614ad05760405162461bcd60e51b8152600401610ea390617597565b600781015460ff1615614af55760405162461bcd60e51b8152600401610ea390616c66565b60045433600090815260196020526040902054429190811115614b3a5733600090815260196020526040812054614b2d908390614f50565b9050614b3881613344565b505b33600090815260196020526040902054811115614b695760405162461bcd60e51b8152600401610ea390616cee565b614b72336150b4565b614bb957601b80546001810182556000919091527f3ad8aa4f87544323a9d1e5dd902f40c356527a7955687113db5f9a85ad579dc10180546001600160a01b031916331790555b8254336001600160a01b03199182168117855560018501805490921617905560058301829055600783015460ff16614c015760078301805460ff191660011790554260088401555b600160236000828254614c149190617ae2565b909155505060405133907f439d77b7534ec3108fc6143bd4fbabde0b9f2bb54f7b0730d1f70dd2135b765f90614c4b90859061696c565b60405180910390a2505050565b601f54101590565b3360009081526016602052604090206007015460ff1690565b60255490565b6028546001600160a01b031681565b6001600160a01b038082166000908152601660209081526040808320815161014081018352815486168152600182015490951692850192909252600282015490840152600381015460ff161515606084015260048101546080840152600581015460a08401526006810180549293849390929160c0840191614d0f90617b74565b80601f0160208091040260200160405190810160405280929190818152602001828054614d3b90617b74565b8015614d885780601f10614d5d57610100808354040283529160200191614d88565b820191906000526020600020905b815481529060010190602001808311614d6b57829003601f168201915b5050509183525050600782015460ff8082161515602084015261010090910416151560408083019190915260089092015460609091015201519392505050565b601e546001600160a01b0316614df05760405162461bcd60e51b8152600401610ea390617491565b601e546040516000916001600160a01b031690614e1190339060240161699f565b60408051601f198184030181529181526020820180516001600160e01b0316631f5ac9c560e11b17905251614e469190616975565b6000604051808303816000865af19150503d8060008114614e83576040519150601f19603f3d011682016040523d82523d6000602084013e614e88565b606091505b5050601e546040519192506000916001600160a01b0390911690614eb090339060240161699f565b60408051601f198184030181529181526020820180516001600160e01b03166358563d2160e01b17905251614ee59190616975565b6000604051808303816000865af19150503d8060008114614f22576040519150601f19603f3d011682016040523d82523d6000602084013e614f27565b606091505b505090508180614f345750805b6133075760405162461bcd60e51b8152600401610ea390616d55565b6000613ff58284617b2d565b60008060005b601c54811015614fd057836001600160a01b0316601c8281548110614f9757634e487b7160e01b600052603260045260246000fd5b6000918252602090912001546001600160a01b03161415614fbe5760019150809250614fd0565b80614fc881617baf565b915050614f62565b5080156150af57601c8054614fe790600190617b2d565b8154811061500557634e487b7160e01b600052603260045260246000fd5b600091825260209091200154601c80546001600160a01b03909216918490811061503f57634e487b7160e01b600052603260045260246000fd5b9060005260206000200160006101000a8154816001600160a01b0302191690836001600160a01b03160217905550601c80548061508c57634e487b7160e01b600052603160045260246000fd5b600082815260209020810160001990810180546001600160a01b03191690550190555b505050565b600080805b601b5481101561378557836001600160a01b0316601b82815481106150ee57634e487b7160e01b600052603260045260246000fd5b6000918252602090912001546001600160a01b031614156151125760019150613785565b8061511c81617baf565b9150506150b9565b3390565b60008060005b601b5481101561519c57836001600160a01b0316601b828154811061516357634e487b7160e01b600052603260045260246000fd5b6000918252602090912001546001600160a01b0316141561518a576001915080925061519c565b8061519481617baf565b91505061512e565b5080156150af57601b80546151b390600190617b2d565b815481106151d157634e487b7160e01b600052603260045260246000fd5b600091825260209091200154601b80546001600160a01b03909216918490811061520b57634e487b7160e01b600052603260045260246000fd5b9060005260206000200160006101000a8154816001600160a01b0302191690836001600160a01b03160217905550601b80548061508c57634e487b7160e01b600052603160045260246000fd5b61526181611731565b8061527b5750600081815260226020526040902060030154155b6152975760405162461bcd60e51b8152600401610ea39061731a565b600081815260226020526040902060040154610100900460ff16156152ce5760405162461bcd60e51b8152600401610ea39061750d565b60006152d982611cb0565b6000838152601d602090815260408083208054825181850281018501909352808352949550929390929183018282801561533c57602002820191906000526020600020905b81546001600160a01b0316815260019091019060200180831161531e575b50505050509050600081516001600160401b0381111561536c57634e487b7160e01b600052604160045260246000fd5b60405190808252806020026020018201604052801561539f57816020015b606081526020019060019003908161538a5790505b509050600082516001600160401b038111156153cb57634e487b7160e01b600052604160045260246000fd5b6040519080825280602002602001820160405280156153f4578160200160208202803683370190505b50905060005b835181101561582557600084828151811061542557634e487b7160e01b600052603260045260246000fd5b6020908102919091018101516000898152600f835260408082206001600160a01b03841680845290855281832054600e86528284208d85528652828420546010875283852092855291909552908220805493955060ff9091169261548890617b74565b80601f01602080910402602001604051908101604052809291908181526020018280546154b490617b74565b80156155015780601f106154d657610100808354040283529160200191615501565b820191906000526020600020905b8154815290600101906020018083116154e457829003601f168201915b505050505090508087868151811061552957634e487b7160e01b600052603260045260246000fd5b60209081029190910181019190915260008b81526011825260408082206001600160a01b038816835290925220548651819088908890811061557b57634e487b7160e01b600052603260045260246000fd5b60200260200101818152505061559085614f5c565b6001600160a01b038516600090815260166020526040902083156157c6576001600160a01b0386166000908152601660205260409020600301805460ff191660019081179091558b15151480156155e75750846001145b806155fc57508a1580156155fc575084600114155b1561574357602a54600b54604051630db6cc8560e11b81526001600160a01b0390921691631b6d990a91615634918a90600401617982565b602060405180830381600087803b15801561564e57600080fd5b505af1158015615662573d6000803e3d6000fd5b505050506040513d601f19601f82011682018060405250810190615686919061667d565b6156a25760405162461bcd60e51b8152600401610ea390617107565b602b54600954604051633832942560e21b81526001600160a01b039092169163e0ca5094916156d5918a9060040161796b565b602060405180830381600087803b1580156156ef57600080fd5b505af1158015615703573d6000803e3d6000fd5b505050506040513d601f19601f82011682018060405250810190615727919061667d565b6157435760405162461bcd60e51b8152600401610ea390616fa2565b600781015460ff16156157c157615759866150b4565b15801561577057506007810154610100900460ff16155b156157c157601b80546001810182556000919091527f3ad8aa4f87544323a9d1e5dd902f40c356527a7955687113db5f9a85ad579dc10180546001600160a01b0319166001600160a01b0388161790555b61580c565b6007810154610100900460ff16806157dc575083155b1561580c57600781015460ff161561580c5760078101805460ff1916905561580386615128565b61580c86614f5c565b505050505050808061581d90617baf565b9150506153fa565b50600061584d6064600c54865161583c9190617b0e565b6158469190617afa565b6001615f7a565b905060008360008151811061587257634e487b7160e01b600052603260045260246000fd5b6020026020010151905060005b8451811015615968576000805b865181101561591d576158ed8784815181106158b857634e487b7160e01b600052603260045260246000fd5b60200260200101518883815181106158e057634e487b7160e01b600052603260045260246000fd5b60200260200101516134b3565b1561590b576158fd600183617ae2565b915084821061590b5761591d565b8061591581617baf565b91505061588c565b508381106159555785828151811061594557634e487b7160e01b600052603260045260246000fd5b6020026020010151925050615968565b508061596081617baf565b91505061587f565b5060008360008151811061598c57634e487b7160e01b600052603260045260246000fd5b6020026020010151905060005b8451811015615a7b576000805b8651811015615a30578681815181106159cf57634e487b7160e01b600052603260045260246000fd5b60200260200101518784815181106159f757634e487b7160e01b600052603260045260246000fd5b60200260200101511415615a1e57615a10600183617ae2565b9150858210615a1e57615a30565b80615a2881617baf565b9150506159a6565b50848110615a6857858281518110615a5857634e487b7160e01b600052603260045260246000fd5b6020026020010151925050615a7b565b5080615a7381617baf565b915050615999565b50600088815260226020908152604090912060048101805461ff0019166101001790558351615ab292600990920191850190616270565b506000888152602260205260409020600a018190558615615d7c57602a54600b5460008a81526017602052604090819020600101549051630db6cc8560e11b81526001600160a01b0393841693631b6d990a93615b16939092911690600401617982565b602060405180830381600087803b158015615b3057600080fd5b505af1158015615b44573d6000803e3d6000fd5b505050506040513d601f19601f82011682018060405250810190615b68919061667d565b615b845760405162461bcd60e51b8152600401610ea390617636565b602b5460095460008a81526017602052604090819020600101549051633832942560e21b81526001600160a01b039384169363e0ca509493615bcd93909291169060040161796b565b602060405180830381600087803b158015615be757600080fd5b505af1158015615bfb573d6000803e3d6000fd5b505050506040513d601f19601f82011682018060405250810190615c1f919061667d565b615c3b5760405162461bcd60e51b8152600401610ea3906174be565b6000888152602260205260408120600b01805460ff191660019081179091556024805491929091615c6d908490617ae2565b9091555050602d546040516348257dc960e01b81526001600160a01b03909116906348257dc990615ca2908b9060040161696c565b602060405180830381600087803b158015615cbc57600080fd5b505af1925050508015615cec575060408051601f3d908101601f19168201909252615ce99181019061667d565b60015b615d5d573d808015615d1a576040519150601f19603f3d011682016040523d82523d6000602084013e615d1f565b606091505b507f4b87bbd93ba65ede1e2efeca735d9f7a6720bf7d6db0a8355b17dba5b64e578381604051615d4f9190616ad1565b60405180910390a150615d77565b600160236000828254615d709190617ae2565b9091555050505b615db1565b6000888152602260205260408120600b01805460ff191660021790556025805460019290615dab908490617ae2565b90915550505b600160236000828254615dc49190617ae2565b90915550506000888152602260205260408120600201546026805491929091615dee908490617ae2565b90915550506000888152602260205260408120600301546027805491929091615e18908490617ae2565b909155505060008881526017602052604090819020600181015491516001600160a01b03909216917f43916c3ae75995d24cc89b466ed08e6dba74d325f7957f9b37b05f150e12918e91615e6b91616bbc565b60405180910390a25050505050505050565b6000613ff58284617ae2565b6000828152601d60209081526040808320805482518185028101850190935280835284938493929190830182828015615eeb57602002820191906000526020600020905b81546001600160a01b03168152600190910190602001808311615ecd575b5050505050905060005b8151811015615f5a57846001600160a01b0316828281518110615f2857634e487b7160e01b600052603260045260246000fd5b60200260200101516001600160a01b03161415615f485760019250615f5a565b80615f5281617baf565b915050615ef5565b5090949350505050565b6000818310615f735781613ff5565b5090919050565b600081831015615f735781613ff5565b600080805b601c5481101561378557836001600160a01b0316601c8281548110615fc457634e487b7160e01b600052603260045260246000fd5b6000918252602090912001546001600160a01b03161415615fe85760019150613785565b80615ff281617baf565b915050615f8f565b600080546001600160a01b038381166001600160a01b0319831681178455604051919092169283917f8be0079c531659141344cd1fd0a4f28419497f9722a3daafe3b4186f6b6457e09190a35050565b805160609060005b81811015616098578084828151811061607b57634e487b7160e01b600052603260045260246000fd5b60209081029190910101528061609081617baf565b915050616052565b509192915050565b606060008251116160b057600080fd5b81518060005b8181101561622b576000836160c961356c565b8784815181106160e957634e487b7160e01b600052603260045260246000fd5b6020026020010151604051602001616102929190616991565b6040516020818303038152906040528051906020012060001c6161259190617bca565b616130906001617ae2565b9050600086616140600184617b2d565b8151811061615e57634e487b7160e01b600052603260045260246000fd5b60200260200101519050866001866161769190617b2d565b8151811061619457634e487b7160e01b600052603260045260246000fd5b6020026020010151876001846161aa9190617b2d565b815181106161c857634e487b7160e01b600052603260045260246000fd5b602090810291909101015280876161e0600188617b2d565b815181106161fe57634e487b7160e01b600052603260045260246000fd5b6020908102919091010152616214600186617b2d565b94505050808061622390617baf565b9150506160b6565b50929392505050565b50805461624090617b74565b6000825580601f106162525750612847565b601f01602090049060005260206000209081019061284791906163e6565b82805461627c90617b74565b90600052602060002090601f01602090048101928261629e57600085556162e4565b82601f106162b757805160ff19168380011785556162e4565b828001600101855582156162e4579182015b828111156162e45782518255916020019190600101906162c9565b506162f09291506163e6565b5090565b6040518060e001604052806060815260200160006001600160a01b03168152602001600081526020016000815260200160608152602001606081526020016000600381111561635357634e487b7160e01b600052602160045260246000fd5b905290565b604051806101c00160405280600081526020016000815260200160008152602001600081526020016000151581526020016000151581526020016000151581526020016000815260200160008152602001600081526020016000815260200160608152602001600081526020016000600381111561635357634e487b7160e01b600052602160045260246000fd5b5b808211156162f057600081556001016163e7565b80356001600160a01b038116811461172c57600080fd5b60008083601f840112616423578182fd5b5081356001600160401b03811115616439578182fd5b602083019150836020808302850101111561645357600080fd5b9250929050565b600082601f83011261646a578081fd5b81356001600160401b0381111561648357616483617c0a565b616496601f8201601f1916602001617a8a565b8181528460208386010111156164aa578283fd5b816020850160208301379081016020019190915292915050565b6000602082840312156164d5578081fd5b613ff5826163fb565b600080604083850312156164f0578081fd5b6164f9836163fb565b946020939093013593505050565b60008060008060006080868803121561651e578081fd5b85356001600160401b0380821115616534578283fd5b818801915088601f830112616547578283fd5b8135602061655c61655783617ab3565b617a8a565b82815281810190858301875b858110156165915761657f8f8684358b010161645a565b84529284019290840190600101616568565b50909a505050890135925050808211156165a9578283fd5b6165b589838a01616412565b90965094506040880135935060608801359150808211156165d4578283fd5b506165e18882890161645a565b9150509295509295909350565b60006020808385031215616600578182fd5b82356001600160401b03811115616615578283fd5b8301601f81018513616625578283fd5b803561663361655782617ab3565b818152838101908385018584028501860189101561664f578687fd5b8694505b83851015616671578035835260019490940193918501918501616653565b50979650505050505050565b60006020828403121561668e578081fd5b81518015158114613ff5578182fd5b6000806000604084860312156166b1578283fd5b83356001600160401b03808211156166c7578485fd5b818601915086601f8301126166da578485fd5b8135818111156166e8578586fd5b8760208285010111156166f9578586fd5b6020928301989097509590910135949350505050565b60008060408385031215616721578182fd5b82356001600160401b0380821115616737578384fd5b6167438683870161645a565b93506020850135915080821115616758578283fd5b506167658582860161645a565b9150509250929050565b600060208284031215616780578081fd5b5035919050565b600060208284031215611b0d578081fd5b600080604083850312156167aa578182fd5b823591506167ba602084016163fb565b90509250929050565b600080600080608085870312156167d8578182fd5b843593506020850135925060408501356001600160401b038111156167fb578283fd5b6168078782880161645a565b949793965093946060013593505050565b6000806040838503121561682a578182fd5b50508035926020909101359150565b6000806000806080858703121561684e578182fd5b8435935060208501359250616865604086016163fb565b9396929550929360600135925050565b600080600060608486031215616889578081fd5b505081359360208301359350604090920135919050565b15159052565b600081518084526168be816020860160208601617b44565b601f01601f19169290920160200192915050565b600481106168f057634e487b7160e01b600052602160045260246000fd5b9052565b600a8152690c6dedadad2e890c2e6d60b31b602082015260400190565b60098152686e756d546f6b656e7360b81b602082015260400190565b60609190911b6bffffffffffffffffffffffff1916815260140190565b60609290921b6bffffffffffffffffffffffff19168252601482015260340190565b90815260200190565b60008251616987818460208701617b44565b9190910192915050565b918252602082015260400190565b6001600160a01b0391909116815260200190565b6001600160a01b038b811682528a1660208201526040810189905287151560608201526080810187905260a0810186905261014060c082018190526000906169fd838201886168a6565b95151560e0840152505091151561010083015261012090910152979650505050505050565b6000602080830181845280855180835260408601915060408482028701019250838701855b82811015616a7557603f19888603018452616a638583516168a6565b94509285019290850190600101616a47565b5092979650505050505050565b6020808252825182820181905260009190848201906040850190845b81811015616aba57835183529284019291840191600101616a9e565b50909695505050505050565b901515815260200190565b600060208252613ff560208301846168a6565b6000604082528360408301528385606084013780606085840101526060601f19601f8601168301019050826020830152949350505050565b600060e08252616b2f60e083018a6168a6565b6001600160a01b038916602084015260408301889052606083018790528281036080840152616b5e81876168a6565b905082810360a0840152616b7281866168a6565b915050616b8260c08301846168d2565b98975050505050505050565b600060408252616ba160408301856168a6565b8281036020840152616bb381856168a6565b95945050505050565b6000602080835281845483600282049050600180831680616bde57607f831692505b858310811415616bfc57634e487b7160e01b87526022600452602487fd5b616c0883878a0161696c565b818015616c1c5760018114616c2d57616c57565b60ff19861682528782019650616c57565b616c368b617ad6565b895b86811015616c5157815484820152908501908901616c38565b83019750505b50949998505050505050505050565b6020808252601c908201527f576f726b657220697320616c7265616479207265676973746572656400000000604082015260600190565b60208082526031908201527f676976656e204461746142617463682073686f756c6420626520415050524f5660408201527011510b08185b99081a5d081a5cc81b9bdd607a1b606082015260800190565b60208082526041908201527f576f726b657220686173206e6f7420656e6f75676820285f6e756d546f6b656e60408201527f732920696e206869732053706f745374616b6564546f6b656e42616c616e63656060820152600160fd1b608082015260a00190565b60208082526025908201527f72656365697665722072656a6563746564205f7265747269657665534675656c6040820152640818d85b1b60da1b606082015260800190565b6020808252602f908201527f636f6d6d697420706572696f64206e6565647320746f206265206f70656e206660408201526e1bdc881d1a1a5cc818985d18da1259608a1b606082015260800190565b6020808252605c908201527f4e6f74207468652073616d6520766f7465207468616e2077686174207761732060408201527f636f6d6d697465642c20696d706f737369626c6520746f206d6174636820776960608201527f746820676976656e205f73616c742026205f766f74654f7074696f6e00000000608082015260a00190565b60208082526026908201527f4f776e61626c653a206e6577206f776e657220697320746865207a65726f206160408201526564647265737360d01b606082015260800190565b60208082526029908201527f6b206f72204e20617265206e6f74204f4b20647572696e672072616e646f6d2060408201526839b2b632b1ba34b7b760b91b606082015260800190565b6020808252602a908201527f4661696c20647572696e6720616c6c6f636174696f6e3a206e6f7420656e6f75604082015269676820776f726b65727360b01b606082015260800190565b60208082526038908201527f55736572206e6565647320746f20626520616c6c6f636174656420746f20746860408201527f697320626174636820746f20636f6d6d6974206f6e2069740000000000000000606082015260800190565b6020808252602f908201527f636f756c64206e6f742072657761726420746f6b656e20696e2054726967676560408201526e3921b432b1b5a9b837ba161018973160891b606082015260800190565b60208082526044908201527f4c61737420616c6c6f636174696f6e20776173206c657373207468616e20746860408201527f6520494e5445525f414c4c4f434154494f4e5f4455524154494f4e20647572616060820152633a34b7b760e11b608082015260a00190565b6020808252603d908201527f436f756c64206e6f74207265717565737420656e6f75676820616c6c6f63617460408201527f6564207374616b652c2072657175657374566f74696e67526967687473000000606082015260800190565b6020808252602f908201527f5573657220686173206e6f7420636f6d6d69746564206265666f72652c20746860408201526e1d5cc818d85b89dd081c995d99585b608a1b606082015260800190565b6020808252602d908201527f636f756c64206e6f74207265776172642052455020696e20547269676765724360408201526c6865636b53706f742c20312e6160981b606082015260800190565b60208082526039908201527f646c6c4d61703a20646f6573206e6f7420636f696e7461696e205f446174614260408201527f61746368496420666f7220746865206d73672073656e64657200000000000000606082015260800190565b6020808252601490820152733737ba1030903b30b634b2103837b9b4ba34b7b760611b604082015260600190565b6020808252603a908201527f576f726b65722063757272656e746c792068617320776f726b20616c6c6f636160408201527f7465642c2063616e277420626520756e72656769737465726564000000000000606082015260800190565b6020808252603b908201527f43616e277420616c6c6f6361746520776f726b2c207468652063757272656e7460408201527f20626174636820697320616c726561647920616c6c6f63617465640000000000606082015260800190565b6020808252602c908201527f576f726b6572206973206e6f74207265676973746572656420736f2063616e2760408201526b3a103ab73932b3b4b9ba32b960a11b606082015260800190565b6020808252818101527f4f776e61626c653a2063616c6c6572206973206e6f7420746865206f776e6572604082015260600190565b6020808252603a908201527f5f446174614261746368496420686173206e6f7420656e6465642c206f72206e60408201527f6f7420657665727920766f74657273206861766520766f746564000000000000606082015260800190565b60208082526036908201527f43616e277420616c6c6f6361746520776f726b2c207468652063757272656e74604082015275206261746368206973206e6f7420636f6d706c65746560501b606082015260800190565b60208082526026908201527f52657665616c20706572696f64206e6f74206f70656e20666f7220746869732060408201526511185d18525160d21b606082015260800190565b60208082526027908201527f617661696c61626c65546f6b656e732073686f756c64206265203e3d205f6e756040820152666d546f6b656e7360c81b606082015260800190565b60208082526017908201527f5f4461746142617463684964206d757374206578697374000000000000000000604082015260600190565b6020808252601390820152720c081059191c995cdcc8139bdd0815985b1a59606a1b604082015260600190565b6020808252602f908201527f636f756c64206e6f742072657761726420746f6b656e20696e2054726967676560408201526e3921b432b1b5a9b837ba161019173160891b606082015260800190565b60208082526021908201527f5f446174614261746368496420697320616c72656164792076616c69646174656040820152601960fa1b606082015260800190565b60208082526029908201527f557365722068617320616c726561647920636f6d6d6974656420746f207468696040820152681cc818985d18da125960ba1b606082015260800190565b60208082526022908201527f4d6178696d756d207265676973746572656420776f726b65727320616c726561604082015261647960f01b606082015260800190565b60208082526037908201527f75736572206d757374206861766520656e6f75676820766f74696e672072696760408201527f68747320616b6120616c6c6f6361746564207374616b65000000000000000000606082015260800190565b6020808252602d908201527f636f756c64206e6f74207265776172642052455020696e20547269676765724360408201526c6865636b53706f742c20322e6160981b606082015260800190565b6020808252603b908201527f436f756c64206e6f74207769746864726177566f74696e67526967687473207460408201527f68726f7567682050726f78795374616b654465616c6c6f636174650000000000606082015260800190565b6020808252600f908201526e11185d18481b5d5cdd08195e1a5cdd608a1b604082015260600190565b6020808252602c908201527f557365722068617320616c72656164792072657665616c65642c20746875732060408201526b18d85b89dd081c995d99585b60a21b606082015260800190565b60006020825282516020830152602083015160408301526040830151606083015260608301516080830152608083015161779260a08401826168a0565b5060a08301516177a560c08401826168a0565b5060c08301516177b860e08401826168a0565b5060e0830151610100838101919091528301516101208084019190915283015161014080840191909152830151610160808401919091528301516101c061018080850182905261780c6101e08601846168a6565b908601516101a086810191909152860151909250615f5a828601826168d2565b6000838252826020830152606060408301526143b3606083016168f4565b600084825283602083015260806040830152617868608083016168f4565b9050826060830152949350505050565b6000838252826020830152606060408301526143b360608301616911565b60008482528360208301526080604083015261786860808301616911565b93845260208401929092526040830152606082015260800190565b600060208252825160e060208401526178ec6101008401826168a6565b905060018060a01b03602085015116604084015260408401516060840152606084015160808401526080840151601f19808584030160a086015261793083836168a6565b925060a08601519150808584030160c08601525061794e82826168a6565b91505060c084015161796360e08501826168d2565b509392505050565b9182526001600160a01b0316602082015260400190565b9182526001600160a01b031660208201526000604082015260600190565b9283526020830191909152604082015260600190565b60008f82528e60208301528d60408301528c60608301528b151560808301528a151560a08301526179ea60c083018b6168a0565b8860e08301528761010083015286610120830152856101408301526101c0610160830152617a1c6101c08301866168a6565b905083610180830152617a336101a08301846168d2565b9f9e505050505050505050505050505050565b6000808335601e19843603018112617a5c578283fd5b8301803591506001600160401b03821115617a75578283fd5b60200191503681900382131561645357600080fd5b6040518181016001600160401b0381118282101715617aab57617aab617c0a565b604052919050565b60006001600160401b03821115617acc57617acc617c0a565b5060209081020190565b60009081526020902090565b60008219821115617af557617af5617bde565b500190565b600082617b0957617b09617bf4565b500490565b6000816000190483118215151615617b2857617b28617bde565b500290565b600082821015617b3f57617b3f617bde565b500390565b60005b83811015617b5f578181015183820152602001617b47565b83811115617b6e576000848401525b50505050565b600281046001821680617b8857607f821691505b60208210811415617ba957634e487b7160e01b600052602260045260246000fd5b50919050565b6000600019821415617bc357617bc3617bde565b5060010190565b600082617bd957617bd9617bf4565b500690565b634e487b7160e01b600052601160045260246000fd5b634e487b7160e01b600052601260045260246000fd5b634e487b7160e01b600052604160045260246000fdfea2646970667358221220c6e00be110f1216cc8ec3cc475e868b103a631ac96fe5d970ddd92a0c479390d64736f6c63430008000033",
  "linkReferences": {
    "contracts/worksystems/DataSpotting.sol": {
      "AttributeStore": [
        {
          "length": 20,
          "start": 9313
        },
        {
          "length": 20,
          "start": 9419
        },
        {
          "length": 20,
          "start": 16690
        },
        {
          "length": 20,
          "start": 16941
        }
      ],
      "DLL": [
        {
          "length": 20,
          "start": 4521
        },
        {
          "length": 20,
          "start": 7433
        },
        {
          "length": 20,
          "start": 8833
        },
        {
          "length": 20,
          "start": 8995
        },
        {
          "length": 20,
          "start": 9190
        },
        {
          "length": 20,
          "start": 13069
        },
        {
          "length": 20,
          "start": 13249
        }
      ]
    }
  },
  "deployedLinkReferences": {
    "contracts/worksystems/DataSpotting.sol": {
      "AttributeStore": [
        {
          "length": 20,
          "start": 8851
        },
        {
          "length": 20,
          "start": 8957
        },
        {
          "length": 20,
          "start": 16228
        },
        {
          "length": 20,
          "start": 16479
        }
      ],
      "DLL": [
        {
          "length": 20,
          "start": 4059
        },
        {
          "length": 20,
          "start": 6971
        },
        {
          "length": 20,
          "start": 8371
        },
        {
          "length": 20,
          "start": 8533
        },
        {
          "length": 20,
          "start": 8728
        },
        {
          "length": 20,
          "start": 12607
        },
        {
          "length": 20,
          "start": 12787
        }
      ]
    }
  }
}