{
  "_format": "hh-sol-artifact-1",
  "contractName": "DataSpotting",
  "sourceName": "contracts/worksystems/DataSpotting.sol",
  "abi": [
    {
      "inputs": [
        {
          "internalType": "address",
          "name": "EXDT_token_",
          "type": "address"
        }
      ],
      "stateMutability": "nonpayable",
      "type": "constructor"
    },
    {
      "anonymous": false,
      "inputs": [
        {
          "indexed": false,
          "internalType": "bytes",
          "name": "bytesFailure",
          "type": "bytes"
        }
      ],
      "name": "BytesFailure",
      "type": "event"
    },
    {
      "anonymous": false,
      "inputs": [
        {
          "indexed": true,
          "internalType": "address",
          "name": "previousOwner",
          "type": "address"
        },
        {
          "indexed": true,
          "internalType": "address",
          "name": "newOwner",
          "type": "address"
        }
      ],
      "name": "OwnershipTransferred",
      "type": "event"
    },
    {
      "anonymous": false,
      "inputs": [
        {
          "indexed": true,
          "internalType": "uint256",
          "name": "DataID",
          "type": "uint256"
        },
        {
          "indexed": false,
          "internalType": "string",
          "name": "file_hash",
          "type": "string"
        },
        {
          "indexed": false,
          "internalType": "bool",
          "name": "isVotePassed",
          "type": "bool"
        }
      ],
      "name": "_BatchValidated",
      "type": "event"
    },
    {
      "anonymous": false,
      "inputs": [
        {
          "indexed": true,
          "internalType": "uint256",
          "name": "batchID",
          "type": "uint256"
        }
      ],
      "name": "_DataBatchDeleted",
      "type": "event"
    },
    {
      "anonymous": false,
      "inputs": [
        {
          "indexed": true,
          "internalType": "uint256",
          "name": "DataID",
          "type": "uint256"
        },
        {
          "indexed": false,
          "internalType": "uint256",
          "name": "numTokens",
          "type": "uint256"
        },
        {
          "indexed": true,
          "internalType": "address",
          "name": "voter",
          "type": "address"
        }
      ],
      "name": "_SpotCheckCommitted",
      "type": "event"
    },
    {
      "anonymous": false,
      "inputs": [
        {
          "indexed": true,
          "internalType": "uint256",
          "name": "DataID",
          "type": "uint256"
        },
        {
          "indexed": false,
          "internalType": "uint256",
          "name": "numTokens",
          "type": "uint256"
        },
        {
          "indexed": false,
          "internalType": "uint256",
          "name": "votesFor",
          "type": "uint256"
        },
        {
          "indexed": false,
          "internalType": "uint256",
          "name": "votesAgainst",
          "type": "uint256"
        },
        {
          "indexed": true,
          "internalType": "uint256",
          "name": "choice",
          "type": "uint256"
        },
        {
          "indexed": true,
          "internalType": "address",
          "name": "voter",
          "type": "address"
        }
      ],
      "name": "_SpotCheckRevealed",
      "type": "event"
    },
    {
      "anonymous": false,
      "inputs": [
        {
          "indexed": true,
          "internalType": "uint256",
          "name": "DataID",
          "type": "uint256"
        },
        {
          "indexed": false,
          "internalType": "string",
          "name": "file_hash",
          "type": "string"
        },
        {
          "indexed": false,
          "internalType": "string",
          "name": "URL_domain",
          "type": "string"
        },
        {
          "indexed": true,
          "internalType": "address",
          "name": "sender",
          "type": "address"
        }
      ],
      "name": "_SpotSubmitted",
      "type": "event"
    },
    {
      "anonymous": false,
      "inputs": [
        {
          "indexed": false,
          "internalType": "uint256",
          "name": "numTokens",
          "type": "uint256"
        },
        {
          "indexed": true,
          "internalType": "address",
          "name": "voter",
          "type": "address"
        }
      ],
      "name": "_StakeAllocated",
      "type": "event"
    },
    {
      "anonymous": false,
      "inputs": [
        {
          "indexed": true,
          "internalType": "uint256",
          "name": "DataID",
          "type": "uint256"
        },
        {
          "indexed": true,
          "internalType": "address",
          "name": "voter",
          "type": "address"
        }
      ],
      "name": "_TokensRescued",
      "type": "event"
    },
    {
      "anonymous": false,
      "inputs": [
        {
          "indexed": false,
          "internalType": "uint256",
          "name": "numTokens",
          "type": "uint256"
        },
        {
          "indexed": true,
          "internalType": "address",
          "name": "voter",
          "type": "address"
        }
      ],
      "name": "_VotingRightsWithdrawn",
      "type": "event"
    },
    {
      "anonymous": false,
      "inputs": [
        {
          "indexed": true,
          "internalType": "uint256",
          "name": "batchID",
          "type": "uint256"
        },
        {
          "indexed": false,
          "internalType": "address",
          "name": "worker",
          "type": "address"
        }
      ],
      "name": "_WorkAllocated",
      "type": "event"
    },
    {
      "anonymous": false,
      "inputs": [
        {
          "indexed": true,
          "internalType": "address",
          "name": "worker",
          "type": "address"
        },
        {
          "indexed": false,
          "internalType": "uint256",
          "name": "timestamp",
          "type": "uint256"
        }
      ],
      "name": "_WorkerRegistered",
      "type": "event"
    },
    {
      "anonymous": false,
      "inputs": [
        {
          "indexed": true,
          "internalType": "address",
          "name": "worker",
          "type": "address"
        },
        {
          "indexed": false,
          "internalType": "uint256",
          "name": "timestamp",
          "type": "uint256"
        }
      ],
      "name": "_WorkerUnregistered",
      "type": "event"
    },
    {
      "inputs": [],
      "name": "AcceptedBatchsCounter",
      "outputs": [
        {
          "internalType": "uint256",
          "name": "",
          "type": "uint256"
        }
      ],
      "stateMutability": "view",
      "type": "function"
    },
    {
      "inputs": [],
      "name": "AllTxsCounter",
      "outputs": [
        {
          "internalType": "uint256",
          "name": "",
          "type": "uint256"
        }
      ],
      "stateMutability": "view",
      "type": "function"
    },
    {
      "inputs": [],
      "name": "AllocatedBatchCursor",
      "outputs": [
        {
          "internalType": "uint256",
          "name": "",
          "type": "uint256"
        }
      ],
      "stateMutability": "view",
      "type": "function"
    },
    {
      "inputs": [],
      "name": "AmIRegistered",
      "outputs": [
        {
          "internalType": "bool",
          "name": "passed",
          "type": "bool"
        }
      ],
      "stateMutability": "view",
      "type": "function"
    },
    {
      "inputs": [
        {
          "internalType": "string",
          "name": "_a",
          "type": "string"
        },
        {
          "internalType": "string",
          "name": "_b",
          "type": "string"
        }
      ],
      "name": "AreStringsEqual",
      "outputs": [
        {
          "internalType": "bool",
          "name": "",
          "type": "bool"
        }
      ],
      "stateMutability": "pure",
      "type": "function"
    },
    {
      "inputs": [],
      "name": "BatchCheckingCursor",
      "outputs": [
        {
          "internalType": "uint256",
          "name": "",
          "type": "uint256"
        }
      ],
      "stateMutability": "view",
      "type": "function"
    },
    {
      "inputs": [],
      "name": "BatchDeletionCursor",
      "outputs": [
        {
          "internalType": "uint256",
          "name": "",
          "type": "uint256"
        }
      ],
      "stateMutability": "view",
      "type": "function"
    },
    {
      "inputs": [
        {
          "internalType": "uint256",
          "name": "",
          "type": "uint256"
        }
      ],
      "name": "DataBatch",
      "outputs": [
        {
          "internalType": "uint256",
          "name": "start_idx",
          "type": "uint256"
        },
        {
          "internalType": "uint256",
          "name": "counter",
          "type": "uint256"
        },
        {
          "internalType": "uint256",
          "name": "uncommited_workers",
          "type": "uint256"
        },
        {
          "internalType": "uint256",
          "name": "unrevealed_workers",
          "type": "uint256"
        },
        {
          "internalType": "bool",
          "name": "complete",
          "type": "bool"
        },
        {
          "internalType": "bool",
          "name": "checked",
          "type": "bool"
        },
        {
          "internalType": "bool",
          "name": "allocated_to_work",
          "type": "bool"
        },
        {
          "internalType": "uint256",
          "name": "commitEndDate",
          "type": "uint256"
        },
        {
          "internalType": "uint256",
          "name": "revealEndDate",
          "type": "uint256"
        },
        {
          "internalType": "uint256",
          "name": "votesFor",
          "type": "uint256"
        },
        {
          "internalType": "uint256",
          "name": "votesAgainst",
          "type": "uint256"
        },
        {
          "internalType": "string",
          "name": "batchIPFSfile",
          "type": "string"
        },
        {
          "internalType": "uint256",
          "name": "item_count",
          "type": "uint256"
        },
        {
          "internalType": "enum DataSpotting.DataStatus",
          "name": "status",
          "type": "uint8"
        }
      ],
      "stateMutability": "view",
      "type": "function"
    },
    {
      "inputs": [
        {
          "internalType": "uint256",
          "name": "_DataBatchId",
          "type": "uint256"
        }
      ],
      "name": "DataCommitEndDate",
      "outputs": [
        {
          "internalType": "uint256",
          "name": "commitEndDate",
          "type": "uint256"
        }
      ],
      "stateMutability": "view",
      "type": "function"
    },
    {
      "inputs": [
        {
          "internalType": "uint256",
          "name": "_DataBatchId",
          "type": "uint256"
        }
      ],
      "name": "DataEnded",
      "outputs": [
        {
          "internalType": "bool",
          "name": "ended",
          "type": "bool"
        }
      ],
      "stateMutability": "view",
      "type": "function"
    },
    {
      "inputs": [
        {
          "internalType": "uint256",
          "name": "_DataBatchId",
          "type": "uint256"
        }
      ],
      "name": "DataExists",
      "outputs": [
        {
          "internalType": "bool",
          "name": "exists",
          "type": "bool"
        }
      ],
      "stateMutability": "view",
      "type": "function"
    },
    {
      "inputs": [],
      "name": "DataNonce",
      "outputs": [
        {
          "internalType": "uint256",
          "name": "",
          "type": "uint256"
        }
      ],
      "stateMutability": "view",
      "type": "function"
    },
    {
      "inputs": [
        {
          "internalType": "uint256",
          "name": "_DataBatchId",
          "type": "uint256"
        }
      ],
      "name": "DataRevealEndDate",
      "outputs": [
        {
          "internalType": "uint256",
          "name": "revealEndDate",
          "type": "uint256"
        }
      ],
      "stateMutability": "view",
      "type": "function"
    },
    {
      "inputs": [
        {
          "internalType": "address",
          "name": "user_",
          "type": "address"
        }
      ],
      "name": "GetCurrentWork",
      "outputs": [
        {
          "internalType": "uint256",
          "name": "",
          "type": "uint256"
        }
      ],
      "stateMutability": "view",
      "type": "function"
    },
    {
      "inputs": [
        {
          "internalType": "uint256",
          "name": "",
          "type": "uint256"
        }
      ],
      "name": "GlobalSpotFlowManager",
      "outputs": [
        {
          "internalType": "uint256",
          "name": "timestamp",
          "type": "uint256"
        },
        {
          "internalType": "uint256",
          "name": "counter",
          "type": "uint256"
        }
      ],
      "stateMutability": "view",
      "type": "function"
    },
    {
      "inputs": [],
      "name": "InstantSpotRewards",
      "outputs": [
        {
          "internalType": "bool",
          "name": "",
          "type": "bool"
        }
      ],
      "stateMutability": "view",
      "type": "function"
    },
    {
      "inputs": [],
      "name": "InstantSpotRewardsDivider",
      "outputs": [
        {
          "internalType": "uint256",
          "name": "",
          "type": "uint256"
        }
      ],
      "stateMutability": "view",
      "type": "function"
    },
    {
      "inputs": [
        {
          "internalType": "address",
          "name": "_worker",
          "type": "address"
        }
      ],
      "name": "IsInLogoffList",
      "outputs": [
        {
          "internalType": "bool",
          "name": "",
          "type": "bool"
        }
      ],
      "stateMutability": "view",
      "type": "function"
    },
    {
      "inputs": [
        {
          "internalType": "address",
          "name": "user_",
          "type": "address"
        }
      ],
      "name": "IsNewWorkAvailable",
      "outputs": [
        {
          "internalType": "bool",
          "name": "",
          "type": "bool"
        }
      ],
      "stateMutability": "view",
      "type": "function"
    },
    {
      "inputs": [],
      "name": "LastAllocationTime",
      "outputs": [
        {
          "internalType": "uint256",
          "name": "",
          "type": "uint256"
        }
      ],
      "stateMutability": "view",
      "type": "function"
    },
    {
      "inputs": [],
      "name": "LastBatchCounter",
      "outputs": [
        {
          "internalType": "uint256",
          "name": "",
          "type": "uint256"
        }
      ],
      "stateMutability": "view",
      "type": "function"
    },
    {
      "inputs": [],
      "name": "LastRandomSeed",
      "outputs": [
        {
          "internalType": "uint256",
          "name": "",
          "type": "uint256"
        }
      ],
      "stateMutability": "view",
      "type": "function"
    },
    {
      "inputs": [
        {
          "internalType": "address",
          "name": "",
          "type": "address"
        },
        {
          "internalType": "uint256",
          "name": "",
          "type": "uint256"
        }
      ],
      "name": "MasterWorkers",
      "outputs": [
        {
          "internalType": "address",
          "name": "",
          "type": "address"
        }
      ],
      "stateMutability": "view",
      "type": "function"
    },
    {
      "inputs": [],
      "name": "MaxPendingDataBatchCount",
      "outputs": [
        {
          "internalType": "uint256",
          "name": "",
          "type": "uint256"
        }
      ],
      "stateMutability": "view",
      "type": "function"
    },
    {
      "inputs": [],
      "name": "NotCommitedCounter",
      "outputs": [
        {
          "internalType": "uint256",
          "name": "",
          "type": "uint256"
        }
      ],
      "stateMutability": "view",
      "type": "function"
    },
    {
      "inputs": [],
      "name": "NotRevealedCounter",
      "outputs": [
        {
          "internalType": "uint256",
          "name": "",
          "type": "uint256"
        }
      ],
      "stateMutability": "view",
      "type": "function"
    },
    {
      "inputs": [],
      "name": "Parameters",
      "outputs": [
        {
          "internalType": "contract IParametersManager",
          "name": "",
          "type": "address"
        }
      ],
      "stateMutability": "view",
      "type": "function"
    },
    {
      "inputs": [],
      "name": "RegisterWorker",
      "outputs": [],
      "stateMutability": "nonpayable",
      "type": "function"
    },
    {
      "inputs": [],
      "name": "RejectedBatchsCounter",
      "outputs": [
        {
          "internalType": "uint256",
          "name": "",
          "type": "uint256"
        }
      ],
      "stateMutability": "view",
      "type": "function"
    },
    {
      "inputs": [],
      "name": "SPOT_FILE_SIZE",
      "outputs": [
        {
          "internalType": "uint256",
          "name": "",
          "type": "uint256"
        }
      ],
      "stateMutability": "view",
      "type": "function"
    },
    {
      "inputs": [],
      "name": "SPOT_TOGGLE_ENABLED",
      "outputs": [
        {
          "internalType": "bool",
          "name": "",
          "type": "bool"
        }
      ],
      "stateMutability": "view",
      "type": "function"
    },
    {
      "inputs": [
        {
          "internalType": "address",
          "name": "_worker",
          "type": "address"
        },
        {
          "internalType": "uint256",
          "name": "_TokensAmountToAllocate",
          "type": "uint256"
        }
      ],
      "name": "SelectAddressForUser",
      "outputs": [
        {
          "internalType": "address",
          "name": "",
          "type": "address"
        }
      ],
      "stateMutability": "view",
      "type": "function"
    },
    {
      "inputs": [
        {
          "internalType": "string[]",
          "name": "file_hashs",
          "type": "string[]"
        },
        {
          "internalType": "string[]",
          "name": "URL_domains",
          "type": "string[]"
        },
        {
          "internalType": "uint256",
          "name": "item_count_",
          "type": "uint256"
        },
        {
          "internalType": "string",
          "name": "extra_",
          "type": "string"
        }
      ],
      "name": "SpotData",
      "outputs": [
        {
          "internalType": "uint256",
          "name": "Dataid_",
          "type": "uint256"
        }
      ],
      "stateMutability": "nonpayable",
      "type": "function"
    },
    {
      "inputs": [
        {
          "internalType": "uint256",
          "name": "",
          "type": "uint256"
        }
      ],
      "name": "SpotsMapping",
      "outputs": [
        {
          "internalType": "string",
          "name": "ipfs_hash",
          "type": "string"
        },
        {
          "internalType": "address",
          "name": "author",
          "type": "address"
        },
        {
          "internalType": "uint256",
          "name": "timestamp",
          "type": "uint256"
        },
        {
          "internalType": "uint256",
          "name": "item_count",
          "type": "uint256"
        },
        {
          "internalType": "string",
          "name": "URL_domain",
          "type": "string"
        },
        {
          "internalType": "string",
          "name": "extra",
          "type": "string"
        },
        {
          "internalType": "enum DataSpotting.DataStatus",
          "name": "status",
          "type": "uint8"
        }
      ],
      "stateMutability": "view",
      "type": "function"
    },
    {
      "inputs": [
        {
          "internalType": "address",
          "name": "",
          "type": "address"
        }
      ],
      "name": "SystemStakedTokenBalance",
      "outputs": [
        {
          "internalType": "uint256",
          "name": "",
          "type": "uint256"
        }
      ],
      "stateMutability": "view",
      "type": "function"
    },
    {
      "inputs": [
        {
          "internalType": "uint256",
          "name": "n_iteration",
          "type": "uint256"
        }
      ],
      "name": "TriggerUpdate",
      "outputs": [],
      "stateMutability": "nonpayable",
      "type": "function"
    },
    {
      "inputs": [],
      "name": "UnregisterWorker",
      "outputs": [],
      "stateMutability": "nonpayable",
      "type": "function"
    },
    {
      "inputs": [
        {
          "internalType": "uint256",
          "name": "",
          "type": "uint256"
        },
        {
          "internalType": "address",
          "name": "",
          "type": "address"
        }
      ],
      "name": "UserBatchCounts",
      "outputs": [
        {
          "internalType": "uint256",
          "name": "",
          "type": "uint256"
        }
      ],
      "stateMutability": "view",
      "type": "function"
    },
    {
      "inputs": [
        {
          "internalType": "uint256",
          "name": "",
          "type": "uint256"
        },
        {
          "internalType": "address",
          "name": "",
          "type": "address"
        }
      ],
      "name": "UserBatchFrom",
      "outputs": [
        {
          "internalType": "string",
          "name": "",
          "type": "string"
        }
      ],
      "stateMutability": "view",
      "type": "function"
    },
    {
      "inputs": [
        {
          "internalType": "address",
          "name": "",
          "type": "address"
        },
        {
          "internalType": "uint256",
          "name": "",
          "type": "uint256"
        }
      ],
      "name": "UserChecksCommits",
      "outputs": [
        {
          "internalType": "bool",
          "name": "",
          "type": "bool"
        }
      ],
      "stateMutability": "view",
      "type": "function"
    },
    {
      "inputs": [
        {
          "internalType": "address",
          "name": "",
          "type": "address"
        },
        {
          "internalType": "uint256",
          "name": "",
          "type": "uint256"
        }
      ],
      "name": "UserChecksReveals",
      "outputs": [
        {
          "internalType": "bool",
          "name": "",
          "type": "bool"
        }
      ],
      "stateMutability": "view",
      "type": "function"
    },
    {
      "inputs": [
        {
          "internalType": "uint256",
          "name": "",
          "type": "uint256"
        },
        {
          "internalType": "address",
          "name": "",
          "type": "address"
        }
      ],
      "name": "UserNewFiles",
      "outputs": [
        {
          "internalType": "string",
          "name": "",
          "type": "string"
        }
      ],
      "stateMutability": "view",
      "type": "function"
    },
    {
      "inputs": [
        {
          "internalType": "address",
          "name": "",
          "type": "address"
        },
        {
          "internalType": "uint256",
          "name": "",
          "type": "uint256"
        }
      ],
      "name": "UserSubmissions",
      "outputs": [
        {
          "internalType": "uint256",
          "name": "",
          "type": "uint256"
        }
      ],
      "stateMutability": "view",
      "type": "function"
    },
    {
      "inputs": [
        {
          "internalType": "uint256",
          "name": "",
          "type": "uint256"
        },
        {
          "internalType": "address",
          "name": "",
          "type": "address"
        }
      ],
      "name": "UserVotes",
      "outputs": [
        {
          "internalType": "uint256",
          "name": "",
          "type": "uint256"
        }
      ],
      "stateMutability": "view",
      "type": "function"
    },
    {
      "inputs": [
        {
          "internalType": "uint256",
          "name": "",
          "type": "uint256"
        },
        {
          "internalType": "uint256",
          "name": "",
          "type": "uint256"
        }
      ],
      "name": "WorkersPerBatch",
      "outputs": [
        {
          "internalType": "address",
          "name": "",
          "type": "address"
        }
      ],
      "stateMutability": "view",
      "type": "function"
    },
    {
      "inputs": [
        {
          "internalType": "address",
          "name": "",
          "type": "address"
        },
        {
          "internalType": "uint256",
          "name": "",
          "type": "uint256"
        }
      ],
      "name": "WorkersSpotFlowManager",
      "outputs": [
        {
          "internalType": "uint256",
          "name": "timestamp",
          "type": "uint256"
        },
        {
          "internalType": "uint256",
          "name": "counter",
          "type": "uint256"
        }
      ],
      "stateMutability": "view",
      "type": "function"
    },
    {
      "inputs": [
        {
          "internalType": "address",
          "name": "",
          "type": "address"
        }
      ],
      "name": "WorkersState",
      "outputs": [
        {
          "internalType": "uint256",
          "name": "allocated_work_batch",
          "type": "uint256"
        },
        {
          "internalType": "uint256",
          "name": "succeeding_novote_count",
          "type": "uint256"
        },
        {
          "internalType": "uint256",
          "name": "last_interaction_date",
          "type": "uint256"
        },
        {
          "internalType": "bool",
          "name": "registered",
          "type": "bool"
        },
        {
          "internalType": "bool",
          "name": "unregistration_request",
          "type": "bool"
        },
        {
          "internalType": "uint256",
          "name": "registration_date",
          "type": "uint256"
        },
        {
          "internalType": "uint256",
          "name": "allocated_batch_counter",
          "type": "uint256"
        },
        {
          "internalType": "uint256",
          "name": "majority_counter",
          "type": "uint256"
        },
        {
          "internalType": "uint256",
          "name": "minority_counter",
          "type": "uint256"
        }
      ],
      "stateMutability": "view",
      "type": "function"
    },
    {
      "inputs": [
        {
          "internalType": "address",
          "name": "_user",
          "type": "address"
        },
        {
          "internalType": "uint256",
          "name": "_DataBatchId",
          "type": "uint256"
        }
      ],
      "name": "attrUUID",
      "outputs": [
        {
          "internalType": "bytes32",
          "name": "UUID",
          "type": "bytes32"
        }
      ],
      "stateMutability": "pure",
      "type": "function"
    },
    {
      "inputs": [
        {
          "internalType": "uint256",
          "name": "",
          "type": "uint256"
        }
      ],
      "name": "availableWorkers",
      "outputs": [
        {
          "internalType": "address",
          "name": "",
          "type": "address"
        }
      ],
      "stateMutability": "view",
      "type": "function"
    },
    {
      "inputs": [
        {
          "internalType": "address",
          "name": "",
          "type": "address"
        }
      ],
      "name": "availableWorkersIndex",
      "outputs": [
        {
          "internalType": "uint256",
          "name": "",
          "type": "uint256"
        }
      ],
      "stateMutability": "view",
      "type": "function"
    },
    {
      "inputs": [
        {
          "internalType": "uint256",
          "name": "",
          "type": "uint256"
        }
      ],
      "name": "busyWorkers",
      "outputs": [
        {
          "internalType": "address",
          "name": "",
          "type": "address"
        }
      ],
      "stateMutability": "view",
      "type": "function"
    },
    {
      "inputs": [
        {
          "internalType": "address",
          "name": "",
          "type": "address"
        }
      ],
      "name": "busyWorkersIndex",
      "outputs": [
        {
          "internalType": "uint256",
          "name": "",
          "type": "uint256"
        }
      ],
      "stateMutability": "view",
      "type": "function"
    },
    {
      "inputs": [
        {
          "internalType": "uint256",
          "name": "_DataBatchId",
          "type": "uint256"
        }
      ],
      "name": "commitPeriodActive",
      "outputs": [
        {
          "internalType": "bool",
          "name": "active",
          "type": "bool"
        }
      ],
      "stateMutability": "view",
      "type": "function"
    },
    {
      "inputs": [
        {
          "internalType": "uint256",
          "name": "_DataBatchId",
          "type": "uint256"
        }
      ],
      "name": "commitPeriodOver",
      "outputs": [
        {
          "internalType": "bool",
          "name": "active",
          "type": "bool"
        }
      ],
      "stateMutability": "view",
      "type": "function"
    },
    {
      "inputs": [
        {
          "internalType": "uint256",
          "name": "_DataBatchId",
          "type": "uint256"
        },
        {
          "internalType": "bytes32",
          "name": "_encryptedHash",
          "type": "bytes32"
        },
        {
          "internalType": "bytes32",
          "name": "_encryptedVote",
          "type": "bytes32"
        },
        {
          "internalType": "uint256",
          "name": "_BatchCount",
          "type": "uint256"
        },
        {
          "internalType": "string",
          "name": "_From",
          "type": "string"
        }
      ],
      "name": "commitSpotCheck",
      "outputs": [],
      "stateMutability": "nonpayable",
      "type": "function"
    },
    {
      "inputs": [
        {
          "internalType": "uint256",
          "name": "_DataId",
          "type": "uint256"
        }
      ],
      "name": "deleteData",
      "outputs": [],
      "stateMutability": "nonpayable",
      "type": "function"
    },
    {
      "inputs": [
        {
          "internalType": "uint256",
          "name": "_BatchId",
          "type": "uint256"
        }
      ],
      "name": "deleteDataBatch",
      "outputs": [],
      "stateMutability": "nonpayable",
      "type": "function"
    },
    {
      "inputs": [],
      "name": "destroyContract",
      "outputs": [],
      "stateMutability": "nonpayable",
      "type": "function"
    },
    {
      "inputs": [
        {
          "internalType": "address",
          "name": "_voter",
          "type": "address"
        },
        {
          "internalType": "uint256",
          "name": "_DataBatchId",
          "type": "uint256"
        }
      ],
      "name": "didCommit",
      "outputs": [
        {
          "internalType": "bool",
          "name": "committed",
          "type": "bool"
        }
      ],
      "stateMutability": "view",
      "type": "function"
    },
    {
      "inputs": [
        {
          "internalType": "address",
          "name": "_voter",
          "type": "address"
        },
        {
          "internalType": "uint256",
          "name": "_DataBatchId",
          "type": "uint256"
        }
      ],
      "name": "didReveal",
      "outputs": [
        {
          "internalType": "bool",
          "name": "revealed",
          "type": "bool"
        }
      ],
      "stateMutability": "view",
      "type": "function"
    },
    {
      "inputs": [
        {
          "internalType": "uint256",
          "name": "_k",
          "type": "uint256"
        },
        {
          "internalType": "uint256",
          "name": "N_range",
          "type": "uint256"
        }
      ],
      "name": "generateIntegers",
      "outputs": [
        {
          "internalType": "uint256[]",
          "name": "",
          "type": "uint256[]"
        }
      ],
      "stateMutability": "view",
      "type": "function"
    },
    {
      "inputs": [],
      "name": "getAcceptedBatchesCount",
      "outputs": [
        {
          "internalType": "uint256",
          "name": "count",
          "type": "uint256"
        }
      ],
      "stateMutability": "view",
      "type": "function"
    },
    {
      "inputs": [],
      "name": "getActiveWorkersCount",
      "outputs": [
        {
          "internalType": "uint256",
          "name": "numWorkers",
          "type": "uint256"
        }
      ],
      "stateMutability": "view",
      "type": "function"
    },
    {
      "inputs": [
        {
          "internalType": "bytes32",
          "name": "_UUID",
          "type": "bytes32"
        },
        {
          "internalType": "string",
          "name": "_attrName",
          "type": "string"
        }
      ],
      "name": "getAttribute",
      "outputs": [
        {
          "internalType": "uint256",
          "name": "",
          "type": "uint256"
        }
      ],
      "stateMutability": "view",
      "type": "function"
    },
    {
      "inputs": [],
      "name": "getAvailableWorkersCount",
      "outputs": [
        {
          "internalType": "uint256",
          "name": "numWorkers",
          "type": "uint256"
        }
      ],
      "stateMutability": "view",
      "type": "function"
    },
    {
      "inputs": [
        {
          "internalType": "uint256",
          "name": "_DataBatchId",
          "type": "uint256"
        }
      ],
      "name": "getBatchByID",
      "outputs": [
        {
          "components": [
            {
              "internalType": "uint256",
              "name": "start_idx",
              "type": "uint256"
            },
            {
              "internalType": "uint256",
              "name": "counter",
              "type": "uint256"
            },
            {
              "internalType": "uint256",
              "name": "uncommited_workers",
              "type": "uint256"
            },
            {
              "internalType": "uint256",
              "name": "unrevealed_workers",
              "type": "uint256"
            },
            {
              "internalType": "bool",
              "name": "complete",
              "type": "bool"
            },
            {
              "internalType": "bool",
              "name": "checked",
              "type": "bool"
            },
            {
              "internalType": "bool",
              "name": "allocated_to_work",
              "type": "bool"
            },
            {
              "internalType": "uint256",
              "name": "commitEndDate",
              "type": "uint256"
            },
            {
              "internalType": "uint256",
              "name": "revealEndDate",
              "type": "uint256"
            },
            {
              "internalType": "uint256",
              "name": "votesFor",
              "type": "uint256"
            },
            {
              "internalType": "uint256",
              "name": "votesAgainst",
              "type": "uint256"
            },
            {
              "internalType": "string",
              "name": "batchIPFSfile",
              "type": "string"
            },
            {
              "internalType": "uint256",
              "name": "item_count",
              "type": "uint256"
            },
            {
              "internalType": "enum DataSpotting.DataStatus",
              "name": "status",
              "type": "uint8"
            }
          ],
          "internalType": "struct DataSpotting.BatchMetadata",
          "name": "batch",
          "type": "tuple"
        }
      ],
      "stateMutability": "view",
      "type": "function"
    },
    {
      "inputs": [
        {
          "internalType": "uint256",
          "name": "_DataBatchId_a",
          "type": "uint256"
        },
        {
          "internalType": "uint256",
          "name": "_DataBatchId_b",
          "type": "uint256"
        }
      ],
      "name": "getBatchCountForBatch",
      "outputs": [
        {
          "internalType": "uint256",
          "name": "AverageURLCount",
          "type": "uint256"
        },
        {
          "internalType": "uint256[]",
          "name": "batchCounts",
          "type": "uint256[]"
        }
      ],
      "stateMutability": "view",
      "type": "function"
    },
    {
      "inputs": [
        {
          "internalType": "uint256",
          "name": "_DataBatchId",
          "type": "uint256"
        }
      ],
      "name": "getBatchIPFSFileByID",
      "outputs": [
        {
          "internalType": "string",
          "name": "batch",
          "type": "string"
        }
      ],
      "stateMutability": "view",
      "type": "function"
    },
    {
      "inputs": [],
      "name": "getBusyWorkersCount",
      "outputs": [
        {
          "internalType": "uint256",
          "name": "numWorkers",
          "type": "uint256"
        }
      ],
      "stateMutability": "view",
      "type": "function"
    },
    {
      "inputs": [
        {
          "internalType": "address",
          "name": "_voter",
          "type": "address"
        },
        {
          "internalType": "uint256",
          "name": "_DataBatchId",
          "type": "uint256"
        }
      ],
      "name": "getCommitIPFSHash",
      "outputs": [
        {
          "internalType": "bytes32",
          "name": "commitHash",
          "type": "bytes32"
        }
      ],
      "stateMutability": "view",
      "type": "function"
    },
    {
      "inputs": [
        {
          "internalType": "address",
          "name": "_voter",
          "type": "address"
        },
        {
          "internalType": "uint256",
          "name": "_DataBatchId",
          "type": "uint256"
        }
      ],
      "name": "getCommitVoteHash",
      "outputs": [
        {
          "internalType": "bytes32",
          "name": "commitHash",
          "type": "bytes32"
        }
      ],
      "stateMutability": "view",
      "type": "function"
    },
    {
      "inputs": [
        {
          "internalType": "uint256",
          "name": "_DataId",
          "type": "uint256"
        }
      ],
      "name": "getDataByID",
      "outputs": [
        {
          "components": [
            {
              "internalType": "string",
              "name": "ipfs_hash",
              "type": "string"
            },
            {
              "internalType": "address",
              "name": "author",
              "type": "address"
            },
            {
              "internalType": "uint256",
              "name": "timestamp",
              "type": "uint256"
            },
            {
              "internalType": "uint256",
              "name": "item_count",
              "type": "uint256"
            },
            {
              "internalType": "string",
              "name": "URL_domain",
              "type": "string"
            },
            {
              "internalType": "string",
              "name": "extra",
              "type": "string"
            },
            {
              "internalType": "enum DataSpotting.DataStatus",
              "name": "status",
              "type": "uint8"
            }
          ],
          "internalType": "struct DataSpotting.SpottedData",
          "name": "data",
          "type": "tuple"
        }
      ],
      "stateMutability": "view",
      "type": "function"
    },
    {
      "inputs": [
        {
          "internalType": "uint256",
          "name": "_DataBatchId",
          "type": "uint256"
        }
      ],
      "name": "getDomainsForBatch",
      "outputs": [
        {
          "internalType": "string[]",
          "name": "",
          "type": "string[]"
        }
      ],
      "stateMutability": "view",
      "type": "function"
    },
    {
      "inputs": [
        {
          "internalType": "uint256",
          "name": "_clearVote",
          "type": "uint256"
        },
        {
          "internalType": "uint256",
          "name": "_salt",
          "type": "uint256"
        }
      ],
      "name": "getEncryptedHash",
      "outputs": [
        {
          "internalType": "bytes32",
          "name": "keccak256hash",
          "type": "bytes32"
        }
      ],
      "stateMutability": "pure",
      "type": "function"
    },
    {
      "inputs": [
        {
          "internalType": "string",
          "name": "_hash",
          "type": "string"
        },
        {
          "internalType": "uint256",
          "name": "_salt",
          "type": "uint256"
        }
      ],
      "name": "getEncryptedStringHash",
      "outputs": [
        {
          "internalType": "bytes32",
          "name": "keccak256hash",
          "type": "bytes32"
        }
      ],
      "stateMutability": "pure",
      "type": "function"
    },
    {
      "inputs": [
        {
          "internalType": "uint256",
          "name": "_DataBatchId",
          "type": "uint256"
        }
      ],
      "name": "getFromsForBatch",
      "outputs": [
        {
          "internalType": "string[]",
          "name": "",
          "type": "string[]"
        }
      ],
      "stateMutability": "view",
      "type": "function"
    },
    {
      "inputs": [],
      "name": "getGlobalPeriodSpotCount",
      "outputs": [
        {
          "internalType": "uint256",
          "name": "",
          "type": "uint256"
        }
      ],
      "stateMutability": "view",
      "type": "function"
    },
    {
      "inputs": [
        {
          "internalType": "uint256",
          "name": "_DataBatchId",
          "type": "uint256"
        }
      ],
      "name": "getIPFShashesForBatch",
      "outputs": [
        {
          "internalType": "string[]",
          "name": "",
          "type": "string[]"
        }
      ],
      "stateMutability": "view",
      "type": "function"
    },
    {
      "inputs": [
        {
          "internalType": "address",
          "name": "_voter",
          "type": "address"
        },
        {
          "internalType": "uint256",
          "name": "_numTokens",
          "type": "uint256"
        },
        {
          "internalType": "uint256",
          "name": "_DataBatchId",
          "type": "uint256"
        }
      ],
      "name": "getInsertPointForNumTokens",
      "outputs": [
        {
          "internalType": "uint256",
          "name": "prevNode",
          "type": "uint256"
        }
      ],
      "stateMutability": "view",
      "type": "function"
    },
    {
      "inputs": [],
      "name": "getLastAllocatedBatchId",
      "outputs": [
        {
          "internalType": "uint256",
          "name": "LastAllocatedBatchId",
          "type": "uint256"
        }
      ],
      "stateMutability": "view",
      "type": "function"
    },
    {
      "inputs": [],
      "name": "getLastBatchId",
      "outputs": [
        {
          "internalType": "uint256",
          "name": "LastBatchId",
          "type": "uint256"
        }
      ],
      "stateMutability": "view",
      "type": "function"
    },
    {
      "inputs": [],
      "name": "getLastCheckedBatchId",
      "outputs": [
        {
          "internalType": "uint256",
          "name": "LastCheckedBatchId",
          "type": "uint256"
        }
      ],
      "stateMutability": "view",
      "type": "function"
    },
    {
      "inputs": [],
      "name": "getLastDataId",
      "outputs": [
        {
          "internalType": "uint256",
          "name": "DataId",
          "type": "uint256"
        }
      ],
      "stateMutability": "view",
      "type": "function"
    },
    {
      "inputs": [
        {
          "internalType": "address",
          "name": "_voter",
          "type": "address"
        }
      ],
      "name": "getLastNode",
      "outputs": [
        {
          "internalType": "uint256",
          "name": "DataID",
          "type": "uint256"
        }
      ],
      "stateMutability": "view",
      "type": "function"
    },
    {
      "inputs": [
        {
          "internalType": "address",
          "name": "_voter",
          "type": "address"
        }
      ],
      "name": "getLockedTokens",
      "outputs": [
        {
          "internalType": "uint256",
          "name": "numTokens",
          "type": "uint256"
        }
      ],
      "stateMutability": "view",
      "type": "function"
    },
    {
      "inputs": [
        {
          "internalType": "uint256",
          "name": "_DataBatchId_a",
          "type": "uint256"
        },
        {
          "internalType": "uint256",
          "name": "_DataBatchId_b",
          "type": "uint256"
        }
      ],
      "name": "getMultiBatchIPFShashes",
      "outputs": [
        {
          "internalType": "string[]",
          "name": "",
          "type": "string[]"
        }
      ],
      "stateMutability": "view",
      "type": "function"
    },
    {
      "inputs": [
        {
          "internalType": "address",
          "name": "_voter",
          "type": "address"
        },
        {
          "internalType": "uint256",
          "name": "_DataBatchId",
          "type": "uint256"
        },
        {
          "internalType": "uint256",
          "name": "_salt",
          "type": "uint256"
        }
      ],
      "name": "getNumPassingTokens",
      "outputs": [
        {
          "internalType": "uint256",
          "name": "correctSpotChecks",
          "type": "uint256"
        }
      ],
      "stateMutability": "view",
      "type": "function"
    },
    {
      "inputs": [
        {
          "internalType": "address",
          "name": "_voter",
          "type": "address"
        },
        {
          "internalType": "uint256",
          "name": "_DataBatchId",
          "type": "uint256"
        }
      ],
      "name": "getNumTokens",
      "outputs": [
        {
          "internalType": "uint256",
          "name": "numTokens",
          "type": "uint256"
        }
      ],
      "stateMutability": "view",
      "type": "function"
    },
    {
      "inputs": [],
      "name": "getRandom",
      "outputs": [
        {
          "internalType": "uint256",
          "name": "",
          "type": "uint256"
        }
      ],
      "stateMutability": "view",
      "type": "function"
    },
    {
      "inputs": [],
      "name": "getRejectedBatchesCount",
      "outputs": [
        {
          "internalType": "uint256",
          "name": "count",
          "type": "uint256"
        }
      ],
      "stateMutability": "view",
      "type": "function"
    },
    {
      "inputs": [],
      "name": "getSeed",
      "outputs": [
        {
          "internalType": "bytes32",
          "name": "addr",
          "type": "bytes32"
        }
      ],
      "stateMutability": "view",
      "type": "function"
    },
    {
      "inputs": [
        {
          "internalType": "uint256",
          "name": "_DataBatchId",
          "type": "uint256"
        }
      ],
      "name": "getSubmittedFilesForBatch",
      "outputs": [
        {
          "internalType": "string[]",
          "name": "",
          "type": "string[]"
        }
      ],
      "stateMutability": "view",
      "type": "function"
    },
    {
      "inputs": [
        {
          "internalType": "address",
          "name": "_user",
          "type": "address"
        }
      ],
      "name": "getSystemTokenBalance",
      "outputs": [
        {
          "internalType": "uint256",
          "name": "tokens",
          "type": "uint256"
        }
      ],
      "stateMutability": "view",
      "type": "function"
    },
    {
      "inputs": [],
      "name": "getTxCounter",
      "outputs": [
        {
          "internalType": "uint256",
          "name": "Counter",
          "type": "uint256"
        }
      ],
      "stateMutability": "view",
      "type": "function"
    },
    {
      "inputs": [
        {
          "internalType": "address",
          "name": "user",
          "type": "address"
        }
      ],
      "name": "getUserDatas",
      "outputs": [
        {
          "internalType": "uint256[]",
          "name": "user_Datas",
          "type": "uint256[]"
        }
      ],
      "stateMutability": "view",
      "type": "function"
    },
    {
      "inputs": [
        {
          "internalType": "address",
          "name": "user_",
          "type": "address"
        }
      ],
      "name": "getUserPeriodSpotCount",
      "outputs": [
        {
          "internalType": "uint256",
          "name": "",
          "type": "uint256"
        }
      ],
      "stateMutability": "view",
      "type": "function"
    },
    {
      "inputs": [
        {
          "internalType": "uint256",
          "name": "_DataBatchId",
          "type": "uint256"
        }
      ],
      "name": "getVotesForBatch",
      "outputs": [
        {
          "internalType": "uint256[]",
          "name": "",
          "type": "uint256[]"
        }
      ],
      "stateMutability": "view",
      "type": "function"
    },
    {
      "inputs": [
        {
          "internalType": "address",
          "name": "",
          "type": "address"
        }
      ],
      "name": "isAvailableWorker",
      "outputs": [
        {
          "internalType": "bool",
          "name": "",
          "type": "bool"
        }
      ],
      "stateMutability": "view",
      "type": "function"
    },
    {
      "inputs": [
        {
          "internalType": "address",
          "name": "",
          "type": "address"
        }
      ],
      "name": "isBusyWorker",
      "outputs": [
        {
          "internalType": "bool",
          "name": "",
          "type": "bool"
        }
      ],
      "stateMutability": "view",
      "type": "function"
    },
    {
      "inputs": [
        {
          "internalType": "uint256",
          "name": "_terminationDate",
          "type": "uint256"
        }
      ],
      "name": "isExpired",
      "outputs": [
        {
          "internalType": "bool",
          "name": "expired",
          "type": "bool"
        }
      ],
      "stateMutability": "view",
      "type": "function"
    },
    {
      "inputs": [
        {
          "internalType": "address",
          "name": "_worker",
          "type": "address"
        }
      ],
      "name": "isInAvailableWorkers",
      "outputs": [
        {
          "internalType": "bool",
          "name": "",
          "type": "bool"
        }
      ],
      "stateMutability": "view",
      "type": "function"
    },
    {
      "inputs": [
        {
          "internalType": "address",
          "name": "_worker",
          "type": "address"
        }
      ],
      "name": "isInBusyWorkers",
      "outputs": [
        {
          "internalType": "bool",
          "name": "",
          "type": "bool"
        }
      ],
      "stateMutability": "view",
      "type": "function"
    },
    {
      "inputs": [
        {
          "internalType": "uint256",
          "name": "_DataBatchId",
          "type": "uint256"
        }
      ],
      "name": "isPassed",
      "outputs": [
        {
          "internalType": "bool",
          "name": "passed",
          "type": "bool"
        }
      ],
      "stateMutability": "view",
      "type": "function"
    },
    {
      "inputs": [
        {
          "internalType": "address",
          "name": "",
          "type": "address"
        }
      ],
      "name": "isToUnregisterWorker",
      "outputs": [
        {
          "internalType": "bool",
          "name": "",
          "type": "bool"
        }
      ],
      "stateMutability": "view",
      "type": "function"
    },
    {
      "inputs": [
        {
          "internalType": "uint256",
          "name": "_DataBatchId",
          "type": "uint256"
        },
        {
          "internalType": "address",
          "name": "_worker",
          "type": "address"
        }
      ],
      "name": "isWorkerAllocatedToBatch",
      "outputs": [
        {
          "internalType": "bool",
          "name": "",
          "type": "bool"
        }
      ],
      "stateMutability": "view",
      "type": "function"
    },
    {
      "inputs": [
        {
          "internalType": "address",
          "name": "_worker",
          "type": "address"
        }
      ],
      "name": "isWorkerRegistered",
      "outputs": [
        {
          "internalType": "bool",
          "name": "passed",
          "type": "bool"
        }
      ],
      "stateMutability": "view",
      "type": "function"
    },
    {
      "inputs": [],
      "name": "owner",
      "outputs": [
        {
          "internalType": "address",
          "name": "",
          "type": "address"
        }
      ],
      "stateMutability": "view",
      "type": "function"
    },
    {
      "inputs": [
        {
          "internalType": "uint256",
          "name": "k",
          "type": "uint256"
        },
        {
          "internalType": "uint256",
          "name": "N",
          "type": "uint256"
        }
      ],
      "name": "random_selection",
      "outputs": [
        {
          "internalType": "uint256[]",
          "name": "",
          "type": "uint256[]"
        }
      ],
      "stateMutability": "view",
      "type": "function"
    },
    {
      "inputs": [
        {
          "internalType": "uint256",
          "name": "_DataBatchId",
          "type": "uint256"
        }
      ],
      "name": "remainingCommitDuration",
      "outputs": [
        {
          "internalType": "uint256",
          "name": "remainingTime",
          "type": "uint256"
        }
      ],
      "stateMutability": "view",
      "type": "function"
    },
    {
      "inputs": [
        {
          "internalType": "uint256",
          "name": "_DataBatchId",
          "type": "uint256"
        }
      ],
      "name": "remainingRevealDuration",
      "outputs": [
        {
          "internalType": "uint256",
          "name": "remainingTime",
          "type": "uint256"
        }
      ],
      "stateMutability": "view",
      "type": "function"
    },
    {
      "inputs": [],
      "name": "renounceOwnership",
      "outputs": [],
      "stateMutability": "nonpayable",
      "type": "function"
    },
    {
      "inputs": [
        {
          "internalType": "uint256",
          "name": "_DataBatchId",
          "type": "uint256"
        }
      ],
      "name": "rescueTokens",
      "outputs": [],
      "stateMutability": "nonpayable",
      "type": "function"
    },
    {
      "inputs": [
        {
          "internalType": "uint256[]",
          "name": "_DataBatchIDs",
          "type": "uint256[]"
        }
      ],
      "name": "rescueTokensInMultipleDatas",
      "outputs": [],
      "stateMutability": "nonpayable",
      "type": "function"
    },
    {
      "inputs": [
        {
          "internalType": "uint256",
          "name": "_DataBatchId",
          "type": "uint256"
        }
      ],
      "name": "revealPeriodActive",
      "outputs": [
        {
          "internalType": "bool",
          "name": "active",
          "type": "bool"
        }
      ],
      "stateMutability": "view",
      "type": "function"
    },
    {
      "inputs": [
        {
          "internalType": "uint256",
          "name": "_DataBatchId",
          "type": "uint256"
        }
      ],
      "name": "revealPeriodOver",
      "outputs": [
        {
          "internalType": "bool",
          "name": "active",
          "type": "bool"
        }
      ],
      "stateMutability": "view",
      "type": "function"
    },
    {
      "inputs": [
        {
          "internalType": "uint256",
          "name": "_DataBatchId",
          "type": "uint256"
        },
        {
          "internalType": "string",
          "name": "_clearIPFSHash",
          "type": "string"
        },
        {
          "internalType": "uint256",
          "name": "_clearVote",
          "type": "uint256"
        },
        {
          "internalType": "uint256",
          "name": "_salt",
          "type": "uint256"
        }
      ],
      "name": "revealSpotCheck",
      "outputs": [],
      "stateMutability": "nonpayable",
      "type": "function"
    },
    {
      "inputs": [
        {
          "internalType": "bytes32",
          "name": "_UUID",
          "type": "bytes32"
        },
        {
          "internalType": "string",
          "name": "_attrName",
          "type": "string"
        },
        {
          "internalType": "uint256",
          "name": "_attrVal",
          "type": "uint256"
        }
      ],
      "name": "setAttribute",
      "outputs": [],
      "stateMutability": "nonpayable",
      "type": "function"
    },
    {
      "inputs": [
        {
          "internalType": "uint256",
          "name": "N",
          "type": "uint256"
        }
      ],
      "name": "shuffle_array",
      "outputs": [
        {
          "internalType": "uint256[]",
          "name": "",
          "type": "uint256[]"
        }
      ],
      "stateMutability": "view",
      "type": "function"
    },
    {
      "inputs": [
        {
          "internalType": "uint256",
          "name": "",
          "type": "uint256"
        }
      ],
      "name": "toUnregisterWorkers",
      "outputs": [
        {
          "internalType": "address",
          "name": "",
          "type": "address"
        }
      ],
      "stateMutability": "view",
      "type": "function"
    },
    {
      "inputs": [
        {
          "internalType": "address",
          "name": "",
          "type": "address"
        }
      ],
      "name": "toUnregisterWorkersIndex",
      "outputs": [
        {
          "internalType": "uint256",
          "name": "",
          "type": "uint256"
        }
      ],
      "stateMutability": "view",
      "type": "function"
    },
    {
      "inputs": [],
      "name": "token",
      "outputs": [
        {
          "internalType": "contract IERC20",
          "name": "",
          "type": "address"
        }
      ],
      "stateMutability": "view",
      "type": "function"
    },
    {
      "inputs": [
        {
          "internalType": "address",
          "name": "newOwner",
          "type": "address"
        }
      ],
      "name": "transferOwnership",
      "outputs": [],
      "stateMutability": "nonpayable",
      "type": "function"
    },
    {
      "inputs": [],
      "name": "updateGlobalSpotFlow",
      "outputs": [],
      "stateMutability": "nonpayable",
      "type": "function"
    },
    {
      "inputs": [
        {
          "internalType": "bool",
          "name": "state_",
          "type": "bool"
        },
        {
          "internalType": "uint256",
          "name": "divider_",
          "type": "uint256"
        }
      ],
      "name": "updateInstantSpotRewards",
      "outputs": [],
      "stateMutability": "nonpayable",
      "type": "function"
    },
    {
      "inputs": [
        {
          "internalType": "uint256",
          "name": "MaxPendingDataBatchCount_",
          "type": "uint256"
        }
      ],
      "name": "updateMaxPendingDataBatch",
      "outputs": [],
      "stateMutability": "nonpayable",
      "type": "function"
    },
    {
      "inputs": [
        {
          "internalType": "address",
          "name": "addr",
          "type": "address"
        }
      ],
      "name": "updateParametersManager",
      "outputs": [],
      "stateMutability": "nonpayable",
      "type": "function"
    },
    {
      "inputs": [
        {
          "internalType": "uint256",
          "name": "file_size_",
          "type": "uint256"
        }
      ],
      "name": "updateSpotFileSize",
      "outputs": [],
      "stateMutability": "nonpayable",
      "type": "function"
    },
    {
      "inputs": [
        {
          "internalType": "address",
          "name": "user_",
          "type": "address"
        }
      ],
      "name": "updateUserSpotFlow",
      "outputs": [],
      "stateMutability": "nonpayable",
      "type": "function"
    },
    {
      "inputs": [
        {
          "internalType": "uint256",
          "name": "_prevID",
          "type": "uint256"
        },
        {
          "internalType": "uint256",
          "name": "_nextID",
          "type": "uint256"
        },
        {
          "internalType": "address",
          "name": "_voter",
          "type": "address"
        },
        {
          "internalType": "uint256",
          "name": "_numTokens",
          "type": "uint256"
        }
      ],
      "name": "validPosition",
      "outputs": [
        {
          "internalType": "bool",
          "name": "APPROVED",
          "type": "bool"
        }
      ],
      "stateMutability": "view",
      "type": "function"
    },
    {
      "inputs": [
        {
          "internalType": "uint256",
          "name": "_numTokens",
          "type": "uint256"
        },
        {
          "internalType": "address",
          "name": "_user",
          "type": "address"
        }
      ],
      "name": "withdrawVotingRights",
      "outputs": [],
      "stateMutability": "nonpayable",
      "type": "function"
    }
  ],
  "bytecode": "0x60806040908152600060018181556039829055603a829055603b819055603c819055603d819055603e819055603f82905591819055604181905560428190556043556044805460ff19169091179055600a60455560c860465560646047556049805460ff60a01b1916600160a01b1790556402540be3ff604a553480156200008657600080fd5b506040516200c2ad3803806200c2ad833981016040819052620000a9916200014b565b620000bd620000b7620000f7565b620000fb565b6001600160a01b038116620000d157600080fd5b604880546001600160a01b0319166001600160a01b03929092169190911790556200017b565b3390565b600080546001600160a01b038381166001600160a01b0319831681178455604051919092169283917f8be0079c531659141344cd1fd0a4f28419497f9722a3daafe3b4186f6b6457e09190a35050565b6000602082840312156200015d578081fd5b81516001600160a01b038116811462000174578182fd5b9392505050565b61c122806200018b6000396000f3fe608060405234801561001057600080fd5b50600436106107a65760003560e01c80638746ff8a116103ea578063c4e4f82a11610215578063e798a7da11610130578063f716596d116100c3578063f96305f011610092578063f96305f014611037578063fc0c546a1461103f578063fca4956314611047578063fd4148811461105a578063ff43de9d1461106d576107a6565b8063f716596d14611001578063f721de4a14611009578063f7c544fe1461101c578063f80a23fd1461102f576107a6565b8063f2d9e74d116100ff578063f2d9e74d14610fcb578063f2fde38b14610fd3578063f4cdfcc414610fe6578063f5ae7c7d14610ff9576107a6565b8063e798a7da14610f95578063eb1322ff14610fa8578063ed8becfa14610fb0578063ef4fcdad14610fc3576107a6565b8063d6b0206c116101a8578063d9548e5311610177578063d9548e5314610f3c578063d9845fb814610f4f578063e44c974b14610f6f578063e604c12714610f82576107a6565b8063d6b0206c14610efb578063d817587e14610f03578063d822ce0114610f16578063d8b7567414610f29576107a6565b8063d1382092116101e4578063d138209214610eba578063d186981d14610ecd578063d420ec0b14610ee0578063d58f575c14610ef3576107a6565b8063c4e4f82a14610e79578063c6b6506314610e8c578063cf78c54a14610e9f578063d0d41def14610eb2576107a6565b8063a4439dc511610305578063b10aa58411610298578063b43bd06911610267578063b43bd06914610e38578063b8f011b314610e4b578063bc3002e614610e5e578063c46f17d014610e71576107a6565b8063b10aa58414610dec578063b1a2e0be14610dff578063b1cf4a7e14610e12578063b1d7ea9814610e25576107a6565b8063a98eb31e116102d4578063a98eb31e14610dab578063aa7ca46414610dbe578063aacc5a1714610dd1578063b0bc471e14610dd9576107a6565b8063a4439dc514610d6a578063a511dba014610d7d578063a7ba29d114610d85578063a905779014610d98576107a6565b80638df0296e1161037d5780639fc9c52f1161034c5780639fc9c52f14610d34578063a1103f3714610d47578063a1b6b5b714610d5a578063a350715a14610d62576107a6565b80638df0296e14610cf35780639760356014610d065780639769d84614610d195780639d6e3f9614610d21576107a6565b80638bf8a338116103b95780638bf8a33814610c9d5780638c89d02714610cb05780638ccb7eec14610cd85780638da5cb5b14610ceb576107a6565b80638746ff8a14610c5157806388d072eb14610c64578063896d807a14610c775780638a1479c814610c8a576107a6565b8063515535e8116105d5578063715018a6116104f05780637f9510a211610483578063819b029311610452578063819b029314610c08578063821aa8c014610c1b57806383e5a8f614610c2e5780638473850b14610c415780638480a22114610c49576107a6565b80637f9510a214610bb85780637f97e83614610bc05780637fabe35b14610bd3578063815ce74714610c00576107a6565b80637860dd41116104bf5780637860dd4114610b6c5780637a30332214610b7f5780637ad3be1114610b925780637e97561b14610ba5576107a6565b8063715018a614610b4157806371880b1b14610b4957806375b7536c14610b5c578063763a39f214610b64576107a6565b80635dc44cf11161056857806363b563a81161053757806363b563a814610af55780636b2d95d414610b085780637018e9c614610b1b5780637074222b14610b2e576107a6565b80635dc44cf114610ab45780635df6055d14610ac7578063607d5efa14610ada5780636371d81f14610ae2576107a6565b8063579db71c116105a4578063579db71c14610a5b57806359fcf77614610a6e5780635a45294314610a815780635b113a5514610aa1576107a6565b8063515535e814610a25578063538e498c14610a2d57806353bf27f114610a40578063576a554314610a48576107a6565b806336fc43fc116106c557806345feae8911610658578063494031831161062757806349403183146109cb5780634a45cd84146109de5780634bad8d24146109f15780634fe8b4c114610a12576107a6565b806345feae89146109a057806347fe2d20146109a85780634852e2f0146109b057806348cbd8f8146109b8576107a6565b80633f7e62f3116106945780633f7e62f31461095f578063413b90f714610967578063427fa1d21461097a578063441c77c01461098d576107a6565b806336fc43fc1461091b57806339e7357c146109235780633aed0be51461092b5780633c062cc81461093e576107a6565b806319d903461161073d5780632d917c681161070c5780632d917c68146108b55780632f469fd1146108c857806331e2f285146108e85780633538af82146108fb576107a6565b806319d903461461085a578063226ed3001461087a578063275c25901461089a5780632c052031146108a2576107a6565b8063092a5cce11610779578063092a5cce1461081c5780630b96c5b0146108245780630e6661a71461084a578063154fd39b14610852576107a6565b806301a48b98146107ab57806301aa5f73146107d457806305957623146107f457806307c0370114610809575b600080fd5b6107be6107b936600461a97e565b611075565b6040516107cb919061ac77565b60405180910390f35b6107e76107e236600461a97e565b611212565b6040516107cb919061abaa565b61080761080236600461a60f565b61126f565b005b61080761081736600461a97e565b6112d0565b610807611314565b61083761083236600461a97e565b611366565b6040516107cb979695949392919061aca8565b6107e761154a565b6107e7611550565b61086d61086836600461a97e565b611556565b6040516107cb919061ac17565b61088d61088836600461a97e565b611871565b6040516107cb919061ac8a565b6108076118b3565b6107e76108b036600461a672565b611a34565b61088d6108c336600461a647565b611bd1565b6108db6108d636600461a9a7565b611bef565b6040516107cb919061ac95565b6107e76108f636600461a60f565b611c94565b61090e61090936600461a97e565b611ca6565b6040516107cb919061ac03565b61088d611cd0565b6107e7611ce0565b61088d61093936600461a60f565b611cfd565b61095161094c36600461a97e565b611d1b565b6040516107cb92919061abf5565b6107e7611d3d565b61095161097536600461a647565b611d43565b6107e761098836600461a60f565b611d73565b61088d61099b36600461a97e565b611e13565b61088d611e6d565b6107e7611e76565b6107e7611e7c565b6108076109c636600461a9a7565b611e82565b61088d6109d936600461a97e565b612092565b61088d6109ec36600461a60f565b6122de565b610a046109ff36600461aa7e565b6122fc565b6040516107cb92919061bde1565b610807610a2036600461a97e565b6125ab565b6107e7612650565b6107e7610a3b36600461a60f565b612656565b6107e7612668565b610807610a5636600461a60f565b61266e565b6107be610a6936600461a60f565b61285d565b6107e7610a7c36600461a60f565b6128c9565b610a94610a8f36600461a97e565b6128db565b6040516107cb919061bd10565b6107e7610aaf36600461a9a7565b612b30565b6107e7610ac236600461a647565b612b4d565b61086d610ad536600461a97e565b612b7e565b610807612d9b565b610807610af036600461a97e565b612f7c565b61088d610b0336600461a97e565b61302f565b6107e7610b1636600461a60f565b613082565b61088d610b2936600461a97e565b613091565b6107e7610b3c36600461a60f565b6130d2565b6108076130ed565b6107e7610b5736600461a97e565b613138565b6107e7613175565b6107e761317b565b6107e7610b7a36600461a97e565b613181565b610807610b8d36600461a97e565b6131d5565b6107e7610ba036600461a647565b613532565b610807610bb336600461a97e565b613569565b6107e76135ad565b61088d610bce36600461a647565b6135c4565b610be6610be136600461a97e565b613615565b6040516107cb9e9d9c9b9a9998979695949392919061be4f565b6107e7613715565b61088d610c1636600461aa9f565b613771565b61090e610c2936600461a97e565b6137b2565b610807610c3c36600461a9d6565b6137c2565b6107e7613d8d565b6107e7613d93565b61090e610c5f36600461a647565b613d99565b6108db610c7236600461a9a7565b61420d565b610807610c8536600461a899565b614231565b61088d610c9836600461a60f565b614273565b6107e7610cab36600461a855565b614288565b610cc3610cbe36600461a60f565b6142cb565b6040516107cb9998979695949392919061be10565b61088d610ce636600461a60f565b614316565b61090e614334565b61090e610d0136600461aa7e565b614343565b610807610d1436600461a97e565b61437b565b6107e7614532565b6107e7610d2f36600461a60f565b614538565b610807610d4236600461a78d565b6145a3565b6107e7610d5536600461a647565b6145f1565b6107e7614624565b6107e761462a565b61088d610d7836600461a97e565b614630565b6107e7614692565b61088d610d9336600461a60f565b614698565b61088d610da636600461a8e6565b6146ad565b610807610db936600461aa2a565b614713565b61088d610dcc36600461a647565b6149be565b6107e7614a11565b6107e7610de736600461a647565b614ac6565b61090e610dfa36600461a97e565b614afd565b61088d610e0d36600461a60f565b614b0d565b6107e7610e2036600461aa7e565b614bda565b6107be610e3336600461aa7e565b614bef565b6107e7610e4636600461a672565b614e09565b6107be610e5936600461aa7e565b614ef5565b6107e7610e6c36600461a6a6565b61505d565b6107e761613c565b6107e7610e8736600461a97e565b616142565b61088d610e9a36600461a60f565b61617f565b6107e7610ead36600461a60f565b616194565b6107e76161a6565b6107e7610ec836600461a647565b6161ac565b61088d610edb36600461a9a7565b6161e2565b61088d610eee36600461a647565b6162bd565b6107e76162dd565b6107e76162e3565b61086d610f1136600461a97e565b6162e9565b61090e610f2436600461a647565b616506565b6107e7610f3736600461a9a7565b616522565b61088d610f4a36600461a97e565b61653f565b610f62610f5d36600461a97e565b616544565b6040516107cb919061bc1e565b6107be610f7d36600461a97e565b6166c8565b6108db610f9036600461a97e565b616754565b61088d610fa336600461a60f565b6167ff565b6107e7616820565b61086d610fbe36600461a97e565b616826565b6107e7616b35565b6107e7616b3b565b610807610fe136600461a60f565b616b41565b6107e7610ff436600461a93c565b616baf565b6107e7616bc4565b610807616bca565b61088d61101736600461a97e565b616fd1565b61080761102a36600461a838565b616fd9565b61088d61702f565b6107e7617048565b61090e61704e565b6107e761105536600461a60f565b61705d565b61086d61106836600461aa7e565b617111565b61090e617623565b606061108082616fd1565b6110a55760405162461bcd60e51b815260040161109c9061b8d6565b60405180910390fd5b6000828152602f602090815260408083208054825181850281018501909352808352919290919083018282801561110557602002820191906000526020600020905b81546001600160a01b031681526001909101906020018083116110e7575b50505050509050600081516001600160401b0381111561113557634e487b7160e01b600052604160045260246000fd5b60405190808252806020026020018201604052801561115e578160200160208202803683370190505b50905060005b8251811015611208576022600086815260200190815260200160002060008483815181106111a257634e487b7160e01b600052603260045260246000fd5b60200260200101516001600160a01b03166001600160a01b03168152602001908152602001600020548282815181106111eb57634e487b7160e01b600052603260045260246000fd5b6020908102919091010152806112008161c038565b915050611164565b509150505b919050565b600061121d82616fd1565b6112395760405162461bcd60e51b815260040161109c9061b8d6565b600061124483611e13565b15611269576000838152602a602052604090206006015461126690429061bfba565b90505b92915050565b611277617632565b6001600160a01b0316611288614334565b6001600160a01b0316146112ae5760405162461bcd60e51b815260040161109c9061b5d5565b604980546001600160a01b0319166001600160a01b0392909216919091179055565b6112d8617632565b6001600160a01b03166112e9614334565b6001600160a01b03161461130f5760405162461bcd60e51b815260040161109c9061b5d5565b604755565b61131c617632565b6001600160a01b031661132d614334565b6001600160a01b0316146113535760405162461bcd60e51b815260040161109c9061b5d5565b61135b614334565b6001600160a01b0316ff5b6029602052600090815260409020805481906113819061bffd565b80601f01602080910402602001604051908101604052809291908181526020018280546113ad9061bffd565b80156113fa5780601f106113cf576101008083540402835291602001916113fa565b820191906000526020600020905b8154815290600101906020018083116113dd57829003601f168201915b50505060018401546002850154600386015460048701805496976001600160a01b0390941696929550909350906114309061bffd565b80601f016020809104026020016040519081016040528092919081815260200182805461145c9061bffd565b80156114a95780601f1061147e576101008083540402835291602001916114a9565b820191906000526020600020905b81548152906001019060200180831161148c57829003601f168201915b5050505050908060050180546114be9061bffd565b80601f01602080910402602001604051908101604052809291908181526020018280546114ea9061bffd565b80156115375780601f1061150c57610100808354040283529160200191611537565b820191906000526020600020905b81548152906001019060200180831161151a57829003601f168201915b5050506006909301549192505060ff1687565b603a5481565b603e5490565b606061156182616fd1565b61157d5760405162461bcd60e51b815260040161109c9061b8d6565b6000828152602a6020908152604080832081516101c0810183528154815260018201549381019390935260028101549183019190915260038101546060830152600481015460ff808216151560808501526101008083048216151560a08601526201000090920416151560c0840152600582015460e0840152600682015490830152600781015461012083015260088101546101408301526009810180546101608401919061162b9061bffd565b80601f01602080910402602001604051908101604052809291908181526020018280546116579061bffd565b80156116a45780601f10611679576101008083540402835291602001916116a4565b820191906000526020600020905b81548152906001019060200180831161168757829003601f168201915b5050509183525050600a8201546020820152600b82015460409091019060ff1660038111156116e357634e487b7160e01b600052602160045260246000fd5b600381111561170257634e487b7160e01b600052602160045260246000fd5b90525060208101519091506000816001600160401b0381111561173557634e487b7160e01b600052604160045260246000fd5b60405190808252806020026020018201604052801561176857816020015b60608152602001906001900390816117535790505b50905060005b8281101561186857835160009061178690839061bf6f565b6000818152602960205260408120600401805492935090916117a79061bffd565b80601f01602080910402602001604051908101604052809291908181526020018280546117d39061bffd565b80156118205780601f106117f557610100808354040283529160200191611820565b820191906000526020600020905b81548152906001019060200180831161180357829003601f168201915b505050505090508084848151811061184857634e487b7160e01b600052603260045260246000fd5b6020026020010181905250505080806118609061c038565b91505061176e565b50949350505050565b600061187c82616fd1565b6118985760405162461bcd60e51b815260040161109c9061bba9565b6000828152602a60205260409020600601546112699061653f565b336000908152602b60205260409020600381015460ff1615156001146118eb5760405162461bcd60e51b815260040161109c9061b564565b80541580159061190557506003810154610100900460ff16155b8015611917575061191533611cfd565b155b156119885760038101805461ff0019166101001790556032805460018181019092557f11df491316f14931039edfd4f8964c9a443b862f02d4c7611d18c2bc4e6ff6970180546001600160a01b031916339081179091556000908152603560205260409020805460ff191690911790555b8054611a105761199733617636565b6119a03361778c565b6119a9336178bb565b42600282018190553360008181526035602052604090819020805460ff1990811690915560038501805490911690555190917f9dadcedba048e92b943ea1c5861cee1df63a566d7f795869c004780c1c698e2b91611a07919061abaa565b60405180910390a25b6001603f6000828254611a23919061bf6f565b90915550611a3190506179ea565b50565b600080611a4085611d73565b90506000611a4e86836161ac565b90505b8115611bc657611a6186836161ac565b9050848111611b1e5783821415611b16576001600160a01b0386166000908152602760205260409081902090516301c39b2b60e11b815273__$85afbab79b2b776d70bef879a32ed56424$__91630387365691611ac39190869060040161abf5565b60206040518083038186803b158015611adb57600080fd5b505af4158015611aef573d6000803e3d6000fd5b505050506040513d601f19601f82011682018060405250810190611b13919061a996565b91505b509050611bca565b6001600160a01b0386166000908152602760205260409081902090516301c39b2b60e11b815273__$85afbab79b2b776d70bef879a32ed56424$__91630387365691611b6f9190869060040161abf5565b60206040518083038186803b158015611b8757600080fd5b505af4158015611b9b573d6000803e3d6000fd5b505050506040513d601f19601f82011682018060405250810190611bbf919061a996565b9150611a51565b5090505b9392505050565b60208080526000928352604080842090915290825290205460ff1681565b602360209081526000928352604080842090915290825290208054611c139061bffd565b80601f0160208091040260200160405190810160405280929190818152602001828054611c3f9061bffd565b8015611c8c5780601f10611c6157610100808354040283529160200191611c8c565b820191906000526020600020905b815481529060010190602001808311611c6f57829003601f168201915b505050505081565b602d6020526000908152604090205481565b60308181548110611cb657600080fd5b6000918252602090912001546001600160a01b0316905081565b604954600160a01b900460ff1681565b60405160009080602081848060185afa611cf657fe5b5051919050565b6001600160a01b031660009081526035602052604090205460ff1690565b600281600f8110611d2b57600080fd5b60020201805460019091015490915082565b60465481565b602c60205281600052604060002081600f8110611d5f57600080fd5b600202018054600190910154909250905082565b6001600160a01b03811660009081526027602052604080822090516301c39b2b60e11b815273__$85afbab79b2b776d70bef879a32ed56424$__91630387365691611dc39190859060040161abf5565b60206040518083038186803b158015611ddb57600080fd5b505af4158015611def573d6000803e3d6000fd5b505050506040513d601f19601f82011682018060405250810190611269919061a996565b6000611e1e82616fd1565b611e3a5760405162461bcd60e51b815260040161109c9061b8d6565b6000828152602a6020526040902060060154611e559061653f565b1580156112695750611e6682614630565b1592915050565b60445460ff1681565b603d5490565b60425481565b6049546001600160a01b0316611eaa5760405162461bcd60e51b815260040161109c9061ad8e565b6000611ed7611eb883613082565b6001600160a01b0384166000908152602d602052604090205490617cc8565b905082811015611ef95760405162461bcd60e51b815260040161109c9061b85a565b6049546040805163ca64f9e760e01b815290516000926001600160a01b03169163ca64f9e7916004808301926020929190829003018186803b158015611f3e57600080fd5b505afa158015611f52573d6000803e3d6000fd5b505050506040513d601f19601f82011682018060405250810190611f76919061a62b565b604051630895993360e11b81529091506001600160a01b0382169063112b326690611fa7908790879060040161bdac565b602060405180830381600087803b158015611fc157600080fd5b505af1158015611fd5573d6000803e3d6000fd5b505050506040513d601f19601f82011682018060405250810190611ff9919061a81c565b6120155760405162461bcd60e51b815260040161109c9061bb08565b6001600160a01b0383166000908152602d60205260408120805486929061203d90849061bfba565b9091555061204b90506179ea565b826001600160a01b03167ffaeb7dbb9992397d26ea1944efd40c80b40f702faf69b46c67ad10aba68ccb7985604051612084919061abaa565b60405180910390a250505050565b6000818152602a6020908152604080832081516101c0810183528154815260018201549381019390935260028101549183019190915260038101546060830152600481015460ff808216151560808501526101008083048216151560a08601526201000090920416151560c0840152600582015460e084015260068201549083015260078101546101208301526008810154610140830152600981018054849392916101608401916121439061bffd565b80601f016020809104026020016040519081016040528092919081815260200182805461216f9061bffd565b80156121bc5780601f10612191576101008083540402835291602001916121bc565b820191906000526020600020905b81548152906001019060200180831161219f57829003601f168201915b5050509183525050600a8201546020820152600b82015460409091019060ff1660038111156121fb57634e487b7160e01b600052602160045260246000fd5b600381111561221a57634e487b7160e01b600052602160045260246000fd5b9052506101408101516101208201519192506122359161bf6f565b604960009054906101000a90046001600160a01b03166001600160a01b031663ea19733c6040518163ffffffff1660e01b815260040160206040518083038186803b15801561228357600080fd5b505afa158015612297573d6000803e3d6000fd5b505050506040513d601f19601f820116820180604052508101906122bb919061a996565b6122c5919061bf9b565b6101208201516122d690606461bf9b565b119392505050565b6001600160a01b031660009081526034602052604090205460ff1690565b6000606060008411801561230f57508284105b61232b5760405162461bcd60e51b815260040161109c9061b337565b600080612338868661bfba565b61234390600161bf6f565b90506000816001600160401b0381111561236d57634e487b7160e01b600052604160045260246000fd5b604051908082528060200260200182016040528015612396578160200160208202803683370190505b509050865b6123a687600161bf6f565b81101561258e576000818152602a6020908152604080832081516101c0810183528154815260018201549381019390935260028101549183019190915260038101546060830152600481015460ff808216151560808501526101008083048216151560a08601526201000090920416151560c0840152600582015460e0840152600682015490830152600781015461012083015260088101546101408301526009810180546101608401919061245b9061bffd565b80601f01602080910402602001604051908101604052809291908181526020018280546124879061bffd565b80156124d45780601f106124a9576101008083540402835291602001916124d4565b820191906000526020600020905b8154815290600101906020018083116124b757829003601f168201915b5050509183525050600a8201546020820152600b82015460409091019060ff16600381111561251357634e487b7160e01b600052602160045260246000fd5b600381111561253257634e487b7160e01b600052602160045260246000fd5b905250610180810151909150612548908661bf6f565b945080610180015183838151811061257057634e487b7160e01b600052603260045260246000fd5b602090810291909101015250806125868161c038565b91505061239b565b50600061259b838561bf87565b95509093505050505b9250929050565b6125b3617632565b6001600160a01b03166125c4614334565b6001600160a01b0316146125ea5760405162461bcd60e51b815260040161109c9061b5d5565b600081815260296020526040812090612603828261a383565b6001820180546001600160a01b03191690556000600283018190556003830181905561263390600484019061a383565b61264160058301600061a383565b50600601805460ff1916905550565b603c5490565b60366020526000908152604090205481565b60305490565b6049546001600160a01b03166126965760405162461bcd60e51b815260040161109c9061ad8e565b6001600160a01b0381166000908152602c60205260408120906126bb6001600f61bfba565b905060008282600f81106126df57634e487b7160e01b600052603260045260246000fd5b6002020154604954604080516307bc663b60e11b815290519293506001600160a01b0390911691630f78cc7691600480820192602092909190829003018186803b15801561272c57600080fd5b505afa158015612740573d6000803e3d6000fd5b505050506040513d601f19601f82011682018060405250810190612764919061a996565b61276e824261bfba565b11156128575760005b6127836001600f61bfba565b811015612802578361279682600161bf6f565b600f81106127b457634e487b7160e01b600052603260045260246000fd5b600202018482600f81106127d857634e487b7160e01b600052603260045260246000fd5b825460029190910291909101908155600191820154910155806127fa8161c038565b915050612777565b50428383600f811061282457634e487b7160e01b600052603260045260246000fd5b600202015560008383600f811061284b57634e487b7160e01b600052603260045260246000fd5b60020201600101819055505b50505050565b6001600160a01b0381166000908152602660209081526040918290208054835181840281018401909452808452606093928301828280156128bd57602002820191906000526020600020905b8154815260200190600101908083116128a9575b50505050509050919050565b60376020526000908152604090205481565b6128e361a3bf565b60008281526029602052604090819020815160e0810190925280548290829061290b9061bffd565b80601f01602080910402602001604051908101604052809291908181526020018280546129379061bffd565b80156129845780601f1061295957610100808354040283529160200191612984565b820191906000526020600020905b81548152906001019060200180831161296757829003601f168201915b505050918352505060018201546001600160a01b0316602082015260028201546040820152600382015460608201526004820180546080909201916129c89061bffd565b80601f01602080910402602001604051908101604052809291908181526020018280546129f49061bffd565b8015612a415780601f10612a1657610100808354040283529160200191612a41565b820191906000526020600020905b815481529060010190602001808311612a2457829003601f168201915b50505050508152602001600582018054612a5a9061bffd565b80601f0160208091040260200160405190810160405280929190818152602001828054612a869061bffd565b8015612ad35780601f10612aa857610100808354040283529160200191612ad3565b820191906000526020600020905b815481529060010190602001808311612ab657829003601f168201915b5050509183525050600682015460209091019060ff166003811115612b0857634e487b7160e01b600052602160045260246000fd5b6003811115612b2757634e487b7160e01b600052602160045260246000fd5b90525092915050565b602460209081526000928352604080842090915290825290205481565b60266020528160005260406000208181548110612b6957600080fd5b90600052602060002001600091509150505481565b6060612b8982616fd1565b612ba55760405162461bcd60e51b815260040161109c9061b8d6565b6000828152602f6020908152604080832080548251818502810185019093528083529192909190830182828015612c0557602002820191906000526020600020905b81546001600160a01b03168152600190910190602001808311612be7575b50505050509050600081516001600160401b03811115612c3557634e487b7160e01b600052604160045260246000fd5b604051908082528060200260200182016040528015612c6857816020015b6060815260200190600190039081612c535790505b50905060005b825181101561120857602560008681526020019081526020016000206000848381518110612cac57634e487b7160e01b600052603260045260246000fd5b60200260200101516001600160a01b03166001600160a01b031681526020019081526020016000208054612cdf9061bffd565b80601f0160208091040260200160405190810160405280929190818152602001828054612d0b9061bffd565b8015612d585780601f10612d2d57610100808354040283529160200191612d58565b820191906000526020600020905b815481529060010190602001808311612d3b57829003601f168201915b5050505050828281518110612d7d57634e487b7160e01b600052603260045260246000fd5b60200260200101819052508080612d939061c038565b915050612c6e565b6049546001600160a01b0316612dc35760405162461bcd60e51b815260040161109c9061ad8e565b6000612dd16001600f61bfba565b90506000600282600f8110612df657634e487b7160e01b600052603260045260246000fd5b6002020154604954604080516307bc663b60e11b815290519293506001600160a01b0390911691630f78cc7691600480820192602092909190829003018186803b158015612e4357600080fd5b505afa158015612e57573d6000803e3d6000fd5b505050506040513d601f19601f82011682018060405250810190612e7b919061a996565b612e85824261bfba565b1115612f785760005b612e9a6001600f61bfba565b811015612f1b576002612eae82600161bf6f565b600f8110612ecc57634e487b7160e01b600052603260045260246000fd5b60020201600282600f8110612ef157634e487b7160e01b600052603260045260246000fd5b82546002919091029190910190815560019182015491015580612f138161c038565b915050612e8e565b5042600283600f8110612f3e57634e487b7160e01b600052603260045260246000fd5b60020201600001819055506000600283600f8110612f6c57634e487b7160e01b600052603260045260246000fd5b60020201600101819055505b5050565b612f84617632565b6001600160a01b0316612f95614334565b6001600160a01b031614612fbb5760405162461bcd60e51b815260040161109c9061b5d5565b6000818152602a6020526040812081815560018101829055600281018290556003810182905560048101805462ffffff191690556005810182905560068101829055600781018290556008810182905590613019600983018261a383565b506000600a820155600b01805460ff1916905550565b600061303a82616fd1565b6130465750600061120d565b6000828152602a60205260409020600601546130619061653f565b8061307b57506000828152602a6020526040902060030154155b905061120d565b600061126982610ec884611d73565b600061309c82616fd1565b6130a85750600061120d565b6000828152602a60205260409020600501546130c39061653f565b8061307b575061307b82611e13565b6001600160a01b03166000908152602d602052604090205490565b6130f5617632565b6001600160a01b0316613106614334565b6001600160a01b03161461312c5760405162461bcd60e51b815260040161109c9061b5d5565b6131366000617cd4565b565b600061314382616fd1565b61315f5760405162461bcd60e51b815260040161109c9061b8d6565b506000908152602a602052604090206006015490565b60475481565b60315490565b600061318c82616fd1565b6131a85760405162461bcd60e51b815260040161109c9061b8d6565b60006131b383614630565b15611269576000838152602a602052604090206005015461126690429061bfba565b6049546001600160a01b03166131fd5760405162461bcd60e51b815260040161109c9061ad8e565b613205612d9b565b61320d617d24565b600061329e82604960009054906101000a90046001600160a01b03166001600160a01b0316637d630cb06040518163ffffffff1660e01b815260040160206040518083038186803b15801561326157600080fd5b505afa158015613275573d6000803e3d6000fd5b505050506040513d601f19601f82011682018060405250810190613299919061a996565b617eed565b905060005b8181101561336157603d546000908152602a602052604081206004015462010000900460ff16151560011480156132fd57506132e0603d54611871565b806132fd5750603d546000908152602a6020526040902060030154155b1561334357603d546000908152602a6020526040902060040154610100900460ff1661332e5761332e603d54617f03565b603d5461333c906001619700565b603d555060015b8061334e5750613361565b50806133598161c038565b9150506132a3565b5061336a61970c565b613372614a11565b6039541461352a5760005b8181101561352857603e546000908152602a602052604081206004015462010000900460ff16151560011480159061343c5750604960009054906101000a90046001600160a01b03166001600160a01b031663bd40ef4c6040518163ffffffff1660e01b815260040160206040518083038186803b1580156133fe57600080fd5b505afa158015613412573d6000803e3d6000fd5b505050506040513d601f19601f82011682018060405250810190613436919061a996565b60305410155b801561345c5750603e546000908152602a602052604090206004015460ff165b80156134f95750604960009054906101000a90046001600160a01b03166001600160a01b031663c4a306f86040518163ffffffff1660e01b815260040160206040518083038186803b1580156134b157600080fd5b505afa1580156134c5573d6000803e3d6000fd5b505050506040513d601f19601f820116820180604052508101906134e9919061a996565b6001546134f6904261bfba565b10155b1561350a57613506619804565b5060015b806135155750613528565b50806135208161c038565b91505061337d565b505b612f786179ea565b600061126661354184846145f1565b6040518060400160405280600a8152602001690c6dedadad2e890c2e6d60b31b815250614288565b613571617632565b6001600160a01b0316613582614334565b6001600160a01b0316146135a85760405162461bcd60e51b815260040161109c9061b5d5565b604655565b6031546030546000916135bf9161bf6f565b905090565b60006135cf82616fd1565b6135eb5760405162461bcd60e51b815260040161109c9061b8d6565b506001600160a01b0391909116600090815260208080526040808320938352929052205460ff1690565b602a60205260009081526040902080546001820154600283015460038401546004850154600586015460068701546007880154600889015460098a018054999a98999798969760ff808816986101008904821698620100009004909116969594939290916136829061bffd565b80601f01602080910402602001604051908101604052809291908181526020018280546136ae9061bffd565b80156136fb5780601f106136d0576101008083540402835291602001916136fb565b820191906000526020600020905b8154815290600101906020018083116136de57829003601f168201915b50505050600a830154600b9093015491929160ff1690508e565b600080805b600f81101561376b57600281600f811061374457634e487b7160e01b600052603260045260246000fd5b600202016001015482613757919061bf6f565b9150806137638161c038565b91505061371a565b50905090565b60008061377e84876161ac565b8310159050600061378f85876161ac565b8411158061379b575085155b90508180156137a75750805b979650505050505050565b60318181548110611cb657600080fd5b6049546001600160a01b03166137ea5760405162461bcd60e51b815260040161109c9061ad8e565b6137f385614630565b61380f5760405162461bcd60e51b815260040161109c9061ae5b565b3360009081526020808052604080832088845290915290205460ff16156138485760405162461bcd60e51b815260040161109c9061b99b565b61385285336161e2565b61386e5760405162461bcd60e51b815260040161109c9061b133565b60495460408051632a49798160e11b815290516000926001600160a01b031691635492f302916004808301926020929190829003018186803b1580156138b357600080fd5b505afa1580156138c7573d6000803e3d6000fd5b505050506040513d601f19601f820116820180604052508101906138eb919061a62b565b6001600160a01b031614156139125760405162461bcd60e51b815260040161109c9061bb65565b604954604080516001624ee91360e11b0319815290516000926001600160a01b03169163ff622dda916004808301926020929190829003018186803b15801561395a57600080fd5b505afa15801561396e573d6000803e3d6000fd5b505050506040513d601f19601f82011682018060405250810190613992919061a996565b905060006139a03383613d99565b6001600160a01b0381166000908152602d60205260409020549091508211156139f5576001600160a01b0381166000908152602d60205260408120546139e7908490617cc8565b90506139f38183619e1e565b505b6000336000908152602760205260408082209051631e0f232560e31b815273__$85afbab79b2b776d70bef879a32ed56424$__9163f079192891613a3e9190869060040161abf5565b60206040518083038186803b158015613a5657600080fd5b505af4158015613a6a573d6000803e3d6000fd5b505050506040513d601f19601f82011682018060405250810190613a8e919061a996565b905088811415613b335733600090815260276020526040908190209051631e0f232560e31b815273__$85afbab79b2b776d70bef879a32ed56424$__9163f079192891613ae091908d9060040161abf5565b60206040518083038186803b158015613af857600080fd5b505af4158015613b0c573d6000803e3d6000fd5b505050506040513d601f19601f82011682018060405250810190613b30919061a996565b90505b613b3f82823387613771565b613b5b5760405162461bcd60e51b815260040161109c9061b4d9565b3360009081526027602052604090819020905163524cfe5360e11b815273__$85afbab79b2b776d70bef879a32ed56424$__9163a499fca691613ba7919086908e90879060040161bcf5565b60006040518083038186803b158015613bbf57600080fd5b505af4158015613bd3573d6000803e3d6000fd5b505050506000613be3338b6145f1565b9050613c1181604051806040016040528060098152602001686e756d546f6b656e7360b81b81525087614231565b613c41816040518060400160405280600a8152602001690c6dedadad2e890c2e6d60b31b8152508b60001c614231565b613c71816040518060400160405280600a815260200169636f6d6d6974566f746560b01b8152508a60001c614231565b60008a8152602460209081526040808320338085529083528184208b90558d84526025835281842090845282529091208751613caf9289019061a423565b50336000908152602b602090815260408083208d8452602a90925290912060020154613cdc906001617cc8565b60008c8152602a6020908152604080832060029081019490945542938501939093553382528080528282208e83529052908120805460ff19166001908117909155603f805491929091613d3090849061bf6f565b90915550613d3e90506179ea565b336001600160a01b03168b7f42864d9683ff5b12c3b2cc65d705af5aab104b03bc700b802f79e5c971ef08a188604051613d78919061abaa565b60405180910390a35050505050505050505050565b603c5481565b60395481565b6049546000906001600160a01b0316613dc45760405162461bcd60e51b815260040161109c9061ad8e565b60495460408051632a49798160e11b815290516000926001600160a01b031691635492f302916004808301926020929190829003018186803b158015613e0957600080fd5b505afa158015613e1d573d6000803e3d6000fd5b505050506040513d601f19601f82011682018060405250810190613e41919061a62b565b6001600160a01b03161415613e685760405162461bcd60e51b815260040161109c9061bb65565b6049546040805163ca64f9e760e01b815290516000926001600160a01b03169163ca64f9e7916004808301926020929190829003018186803b158015613ead57600080fd5b505afa158015613ec1573d6000803e3d6000fd5b505050506040513d601f19601f82011682018060405250810190613ee5919061a62b565b6001600160a01b03161415613f0c5760405162461bcd60e51b815260040161109c9061b733565b6049546040805163ca64f9e760e01b815290516000926001600160a01b03169163ca64f9e7916004808301926020929190829003018186803b158015613f5157600080fd5b505afa158015613f65573d6000803e3d6000fd5b505050506040513d601f19601f82011682018060405250810190613f89919061a62b565b90506000604960009054906101000a90046001600160a01b03166001600160a01b0316635492f3026040518163ffffffff1660e01b815260040160206040518083038186803b158015613fdb57600080fd5b505afa158015613fef573d6000803e3d6000fd5b505050506040513d601f19601f82011682018060405250810190614013919061a62b565b90508480600360005b818110156142005760405163065ee72760e51b81526000906001600160a01b0388169063cbdce4e09061405390879060040161ac03565b60206040518083038186803b15801561406b57600080fd5b505afa15801561407f573d6000803e3d6000fd5b505050506040513d601f19601f820116820180604052508101906140a3919061a996565b6001600160a01b0385166000908152602d602052604090205490915089116140ce5783945050614200565b6001600160a01b0384166000908152602d6020526040902054891080159061410d57506001600160a01b0384166000908152602d602052604090205415155b1561414b576001600160a01b0384166000908152602d6020526040812054614136908b90617cc8565b9050808210614149578495505050614200565b505b88811061415b5783945050614200565b60405163792f4f6960e11b81526001600160a01b0387169063f25e9ed29061418790879060040161ac03565b60206040518083038186803b15801561419f57600080fd5b505afa1580156141b3573d6000803e3d6000fd5b505050506040513d601f19601f820116820180604052508101906141d7919061a62b565b93506001600160a01b0384166141ed5750614200565b50806141f88161c038565b91505061401c565b5091979650505050505050565b602560209081526000928352604080842090915290825290208054611c139061bffd565b6000838360405160200161424692919061abb3565b60408051601f19818403018152918152815160209283012060009081526028909252902091909155505050565b60336020526000908152604090205460ff1681565b600080838360405160200161429e92919061abb3565b60408051808303601f19018152918152815160209283012060009081526028909252902054949350505050565b602b602052600090815260409020805460018201546002830154600384015460048501546005860154600687015460079097015495969495939460ff80851695610100909504169389565b6001600160a01b031660009081526033602052604090205460ff1690565b6000546001600160a01b031690565b602f602052816000526040600020818154811061435f57600080fd5b6000918252602090912001546001600160a01b03169150829050565b60016000828152602a60205260409020600b015460ff1660038111156143b157634e487b7160e01b600052602160045260246000fd5b146143ce5760405162461bcd60e51b815260040161109c9061adc5565b336000908152602760205260409081902090516306120d1f60e31b815273__$85afbab79b2b776d70bef879a32ed56424$__9163309068f8916144169190859060040161abf5565b60206040518083038186803b15801561442e57600080fd5b505af4158015614442573d6000803e3d6000fd5b505050506040513d601f19601f82011682018060405250810190614466919061a81c565b6144825760405162461bcd60e51b815260040161109c9061b3c4565b336000908152602760205260409081902090516301039dfd60e11b815273__$85afbab79b2b776d70bef879a32ed56424$__916302073bfa916144ca9190859060040161abf5565b60006040518083038186803b1580156144e257600080fd5b505af41580156144f6573d6000803e3d6000fd5b505050506145026179ea565b604051339082907f402507661c8c8cb90e0a796450b8bdd28b6c516f05279c0cd29e84c344e1699a90600090a350565b60405481565b6001600160a01b0381166000908152602c6020526040812081805b600f811015611208578281600f811061457c57634e487b7160e01b600052603260045260246000fd5b60020201600101548261458f919061bf6f565b91508061459b8161c038565b915050614553565b60005b8151811015612f78576145df8282815181106145d257634e487b7160e01b600052603260045260246000fd5b602002602001015161437b565b806145e98161c038565b9150506145a6565b6000828260405160200161460692919061ab88565b60405160208183030381529060405280519060200120905092915050565b60405490565b60415481565b600061463b82616fd1565b6146575760405162461bcd60e51b815260040161109c9061b8d6565b6000828152602a60205260409020600501546146729061653f565b1580156112695750506000908152602a6020526040902060020154151590565b603a5490565b60356020526000908152604090205460ff1681565b6000816040516020016146c0919061abd9565b60405160208183030381529060405280519060200120836040516020016146e7919061abd9565b60405160208183030381529060405280519060200120141561470b57506001611269565b506000611269565b61471c84611e13565b6147385760405162461bcd60e51b815260040161109c9061b814565b3360009081526020808052604080832087845290915290205460ff166147705760405162461bcd60e51b815260040161109c9061b29e565b33600090815260216020908152604080832087845290915290205460ff16156147ab5760405162461bcd60e51b815260040161109c9061bbd2565b6147b53385613532565b6147bf8483616baf565b146147dc5760405162461bcd60e51b815260040161109c9061af22565b6147e63385614ac6565b6147f08383614bda565b1461480d5760405162461bcd60e51b815260040161109c9061aeaa565b600061481933866161ac565b90508260011415614850576000858152602a60205260408120600701805483929061484590849061bf6f565b909155506148779050565b6000858152602a60205260408120600801805483929061487190849061bf6f565b90915550505b3360008181526021602090815260408083208984528252808320805460ff191660011790556022825280832084845282528083208790558883526023825280832093835292815291902085516148cf9287019061a423565b50336000908152602b60209081526040808320888452602a909252909120600301546148fc906001617cc8565b6000878152602a6020526040902060039081019190915542600283015581015460ff161561493a57600081556149313361778c565b61493a3361a046565b6001603f600082825461494d919061bf6f565b9091555061495b90506179ea565b6000868152602a60205260409081902060078101546008909101549151339287928a927f0867b5027231dcbf37614eaad07d667b9febaf9fdf483f488229b1f140bb0748926149ae92899290919061bdfa565b60405180910390a4505050505050565b60006149c982616fd1565b6149e55760405162461bcd60e51b815260040161109c9061b8d6565b506001600160a01b03919091166000908152602160209081526040808320938352929052205460ff1690565b6000804241604051602001614a26919061ab6b565b6040516020818303038152906040528051906020012060001c614a49919061bf87565b44614a52611ce0565b604051602001614a62919061abaa565b60408051601f198184030181529190528051602090910120614a84904261bf6f565b614a8e919061bf6f565b614a98919061bf6f565b604051602001614aa8919061abaa565b60408051601f19818403018152919052805160209091012091505090565b6000611266614ad584846145f1565b6040518060400160405280600a815260200169636f6d6d6974566f746560b01b815250614288565b60328181548110611cb657600080fd5b6001600160a01b0381166000908152602b602090815260408083208151610120810183528154808252600183015494820194909452600282015492810192909252600381015460ff80821615156060850152610100918290041615156080840152600482015460a0840152600582015460c0840152600682015460e0840152600790910154908201528291614ba285826149be565b158015614bb55750614bb381611871565b155b8015614bc75750614bc581613091565b155b15614bd157600192505b50909392505050565b6000828260405160200161460692919061abf5565b606060008211614c115760405162461bcd60e51b815260040161109c9061b5b0565b600041604051602001614c24919061ab6b565b6040516020818303038152906040528051906020012060001c614c45611ce0565b604051602001614c55919061abaa565b60408051601f198184030181529190528051602090910120614c77904261bf6f565b614c81919061bf6f565b604051602001614c91919061abaa565b6040516020818303038152906040528051906020012060001c90506000846001600160401b03811115614cd457634e487b7160e01b600052604160045260246000fd5b604051908082528060200260200182016040528015614cfd578160200160208202803683370190505b5090506000805b86821015614dfe57600086614d1d63017efeeb8761bfba565b83604051602001614d2f92919061abf5565b6040516020818303038152906040528051906020012060001c614d52919061c053565b90506000805b84811015614daa5782868281518110614d8157634e487b7160e01b600052603260045260246000fd5b60200260200101511415614d985760019150614daa565b80614da28161c038565b915050614d58565b5080614dea5781858581518110614dd157634e487b7160e01b600052603260045260246000fd5b6020908102919091010152614de784600161bf6f565b93505b614df583600161bf6f565b92505050614d04565b509095945050505050565b6000614e1483611871565b614e305760405162461bcd60e51b815260040161109c9061babe565b6001600160a01b038416600090815260216020908152604080832086845290915290205460ff16614e735760405162461bcd60e51b815260040161109c9061b421565b6000614e7e84612092565b614e89576000614e8c565b60015b60ff16905060008184604051602001614ea692919061abf5565b6040516020818303038152906040528051906020012090506000614eca8787614ac6565b9050808214614eeb5760405162461bcd60e51b815260040161109c9061b775565b6137a787876161ac565b6060600082118015614f075750818311155b8015614f14575060018310155b614f305760405162461bcd60e51b815260040161109c9061afe4565b6000826001600160401b03811115614f5857634e487b7160e01b600052604160045260246000fd5b604051908082528060200260200182016040528015614f81578160200160208202803683370190505b5090506000846001600160401b03811115614fac57634e487b7160e01b600052604160045260246000fd5b604051908082528060200260200182016040528015614fd5578160200160208202803683370190505b5090506000614feb614fe68461a0de565b61a134565b905060005b86811015614dfe5781818151811061501857634e487b7160e01b600052603260045260246000fd5b602002602001015183828151811061504057634e487b7160e01b600052603260045260246000fd5b6020908102919091010152806150558161c038565b915050614ff0565b6049546000906001600160a01b03166150885760405162461bcd60e51b815260040161109c9061ad8e565b604960009054906101000a90046001600160a01b03166001600160a01b0316634e87c5a86040518163ffffffff1660e01b815260040160206040518083038186803b1580156150d657600080fd5b505afa1580156150ea573d6000803e3d6000fd5b505050506040513d601f19601f8201168201806040525081019061510e919061a81c565b61512a5760405162461bcd60e51b815260040161109c9061b2ed565b8551841461514a5760405162461bcd60e51b815260040161109c9061b94e565b615152612d9b565b604960009054906101000a90046001600160a01b03166001600160a01b031663b38e885e6040518163ffffffff1660e01b815260040160206040518083038186803b1580156151a057600080fd5b505afa1580156151b4573d6000803e3d6000fd5b505050506040513d601f19601f820116820180604052508101906151d8919061a996565b6151e0613715565b106151fd5760405162461bcd60e51b815260040161109c9061b36e565b604954604080516001624ee91360e11b0319815290516000926001600160a01b03169163ff622dda916004808301926020929190829003018186803b15801561524557600080fd5b505afa158015615259573d6000803e3d6000fd5b505050506040513d601f19601f8201168201806040525081019061527d919061a996565b9050600061528b3383613d99565b90506152968161266e565b604960009054906101000a90046001600160a01b03166001600160a01b031663be2509886040518163ffffffff1660e01b815260040160206040518083038186803b1580156152e457600080fd5b505afa1580156152f8573d6000803e3d6000fd5b505050506040513d601f19601f8201168201806040525081019061531c919061a996565b61532582614538565b1080156153bd5750604960009054906101000a90046001600160a01b03166001600160a01b031663b38e885e6040518163ffffffff1660e01b815260040160206040518083038186803b15801561537b57600080fd5b505afa15801561538f573d6000803e3d6000fd5b505050506040513d601f19601f820116820180604052508101906153b3919061a996565b6153bb613715565b105b80156153da5750604654603d54603e546153d7919061bfba565b11155b156160f7576001600160a01b0381166000908152602d6020526040902054821115615431576001600160a01b0381166000908152602d6020526040812054615423908490617cc8565b905061542f8183619e1e565b505b60005b88518110156160f557600089828151811061545f57634e487b7160e01b600052603260045260246000fd5b60200260200101519050600089898481811061548b57634e487b7160e01b600052603260045260246000fd5b905060200281019061549d919061bedf565b8080601f016020809104026020016040519081016040528093929190818152602001838380828437600092018290525033808252602660209081526040808420603a54815460018101835591865283862090910155805160e0810182528a8152918201929092524291810191909152606081018e90526080810186905260a081018d905294955060c08501935091506155339050565b9052603a54600090815260296020908152604090912082518051919261555e9284929091019061a423565b506020828101516001830180546001600160a01b0319166001600160a01b039092169190911790556040830151600283015560608301516003830155608083015180516155b1926004850192019061a423565b5060a082015180516155cd91600584019160209091019061a423565b5060c082015160068201805460ff191660018360038111156155ff57634e487b7160e01b600052602160045260246000fd5b021790555050603c546000908152602a60209081526040918290206049548351634e8f956d60e11b815293519194506001600160a01b031692639d1f2ada926004808301939192829003018186803b15801561565a57600080fd5b505afa15801561566e573d6000803e3d6000fd5b505050506040513d601f19601f82011682018060405250810190615692919061a996565b816001015410156156b85760018160010160008282546156b2919061bf6f565b90915550505b604960009054906101000a90046001600160a01b03166001600160a01b0316639d1f2ada6040518163ffffffff1660e01b815260040160206040518083038186803b15801561570657600080fd5b505afa15801561571a573d6000803e3d6000fd5b505050506040513d601f19601f8201168201806040525081019061573e919061a996565b81600101541061578d57600481018054600160ff19909116811761ff001916909155603c805460009061577290849061bf6f565b9091555050603a54603c546000908152602a60205260409020555b603a5461579b90600161bf6f565b603a55600160026157ad82600f61bfba565b600f81106157cb57634e487b7160e01b600052603260045260246000fd5b6002020160010160008282546157e1919061bf6f565b90915550506001600160a01b0385166000908152602c6020526040902060018161580c82600f61bfba565b600f811061582a57634e487b7160e01b600052603260045260246000fd5b600202016001016000828254615840919061bf6f565b909155505060445460ff16151560011415615cf25760495460408051632a49798160e11b8152905133926000926001600160a01b0390911691635492f30291600480820192602092909190829003018186803b15801561589f57600080fd5b505afa1580156158b3573d6000803e3d6000fd5b505050506040513d601f19601f820116820180604052508101906158d7919061a62b565b90506000604960009054906101000a90046001600160a01b03166001600160a01b0316630855d1516040518163ffffffff1660e01b815260040160206040518083038186803b15801561592957600080fd5b505afa15801561593d573d6000803e3d6000fd5b505050506040513d601f19601f82011682018060405250810190615961919061a62b565b90506000604960009054906101000a90046001600160a01b03166001600160a01b03166304e76c8f6040518163ffffffff1660e01b815260040160206040518083038186803b1580156159b357600080fd5b505afa1580156159c7573d6000803e3d6000fd5b505050506040513d601f19601f820116820180604052508101906159eb919061a62b565b90506000836001600160a01b03166311815086866040518263ffffffff1660e01b8152600401615a1b919061ac03565b60206040518083038186803b158015615a3357600080fd5b505afa158015615a47573d6000803e3d6000fd5b505050506040513d601f19601f82011682018060405250810190615a6b919061a62b565b90506000604554604960009054906101000a90046001600160a01b03166001600160a01b03166330c0bb796040518163ffffffff1660e01b815260040160206040518083038186803b158015615ac057600080fd5b505afa158015615ad4573d6000803e3d6000fd5b505050506040513d601f19601f82011682018060405250810190615af8919061a996565b615b0390606461bf9b565b615b0d919061bf87565b90506000604554604960009054906101000a90046001600160a01b03166001600160a01b031663abb10b9b6040518163ffffffff1660e01b815260040160206040518083038186803b158015615b6257600080fd5b505afa158015615b76573d6000803e3d6000fd5b505050506040513d601f19601f82011682018060405250810190615b9a919061a996565b615ba590606461bf9b565b615baf919061bf87565b604051630db6cc8560e11b81529091506001600160a01b03861690631b6d990a90615be0908490879060040161bdc3565b602060405180830381600087803b158015615bfa57600080fd5b505af1158015615c0e573d6000803e3d6000fd5b505050506040513d601f19601f82011682018060405250810190615c32919061a81c565b615c4e5760405162461bcd60e51b815260040161109c9061b46c565b604051633832942560e21b81526001600160a01b0385169063e0ca509490615c7c908590879060040161bdac565b602060405180830381600087803b158015615c9657600080fd5b505af1158015615caa573d6000803e3d6000fd5b505050506040513d601f19601f82011682018060405250810190615cce919061a81c565b615cea5760405162461bcd60e51b815260040161109c9061b60a565b505050505050505b615cfc60016131d5565b60495460408051637b39b17f60e11b815290516000926001600160a01b03169163f67362fe916004808301926020929190829003018186803b158015615d4157600080fd5b505afa158015615d55573d6000803e3d6000fd5b505050506040513d601f19601f82011682018060405250810190615d79919061a62b565b604051633d18199160e11b81529091506001600160a01b03821690637a30332290615da99060019060040161abaa565b600060405180830381600087803b158015615dc357600080fd5b505af1925050508015615dd4575060015b615e2f573d808015615e02576040519150601f19603f3d011682016040523d82523d6000602084013e615e07565b606091505b5060008051602061c0cd83398151915281604051615e25919061ac95565b60405180910390a1505b60495460408051637a0ec25b60e01b815290516000926001600160a01b031691637a0ec25b916004808301926020929190829003018186803b158015615e7457600080fd5b505afa158015615e88573d6000803e3d6000fd5b505050506040513d601f19601f82011682018060405250810190615eac919061a62b565b604051633d18199160e11b81529091506001600160a01b03821690637a30332290615edc9060019060040161abaa565b600060405180830381600087803b158015615ef657600080fd5b505af1925050508015615f07575060015b615f62573d808015615f35576040519150601f19603f3d011682016040523d82523d6000602084013e615f3a565b606091505b5060008051602061c0cd83398151915281604051615f58919061ac95565b60405180910390a1505b6049546040805163463444b760e01b815290516000926001600160a01b03169163463444b7916004808301926020929190829003018186803b158015615fa757600080fd5b505afa158015615fbb573d6000803e3d6000fd5b505050506040513d601f19601f82011682018060405250810190615fdf919061a62b565b604051633d18199160e11b81529091506001600160a01b03821690637a3033229061600f9060019060040161abaa565b600060405180830381600087803b15801561602957600080fd5b505af192505050801561603a575060015b616095573d808015616068576040519150601f19603f3d011682016040523d82523d6000602084013e61606d565b606091505b5060008051602061c0cd8339815191528160405161608b919061ac95565b60405180910390a1505b886001600160a01b0316603a547fb819ca9ac369919119f75ec7363dd954f75bcfa75f9245647e03da413be0d58289896040516160d392919061ad3e565b60405180910390a35050505050505080806160ed9061c038565b915050615434565b505b336000908152602b602052604090204260028201556161146179ea565b6001603f6000828254616127919061bf6f565b9091555050603a549998505050505050505050565b60455481565b600061614d82616fd1565b6161695760405162461bcd60e51b815260040161109c9061b8d6565b506000908152602a602052604090206005015490565b60346020526000908152604090205460ff1681565b60386020526000908152604090205481565b60015481565b60006112666161bb84846145f1565b604051806040016040528060098152602001686e756d546f6b656e7360b81b815250614288565b6000828152602f6020908152604080832080548251818502810185019093528083528493849392919083018282801561624457602002820191906000526020600020905b81546001600160a01b03168152600190910190602001808311616226575b5050505050905060005b81518110156162b357846001600160a01b031682828151811061628157634e487b7160e01b600052603260045260246000fd5b60200260200101516001600160a01b031614156162a157600192506162b3565b806162ab8161c038565b91505061624e565b5090949350505050565b602160209081526000928352604080842090915290825290205460ff1681565b603b5481565b603e5481565b60606162f482616fd1565b6163105760405162461bcd60e51b815260040161109c9061b8d6565b6000828152602f602090815260408083208054825181850281018501909352808352919290919083018282801561637057602002820191906000526020600020905b81546001600160a01b03168152600190910190602001808311616352575b50505050509050600081516001600160401b038111156163a057634e487b7160e01b600052604160045260246000fd5b6040519080825280602002602001820160405280156163d357816020015b60608152602001906001900390816163be5790505b50905060005b82518110156112085760236000868152602001908152602001600020600084838151811061641757634e487b7160e01b600052603260045260246000fd5b60200260200101516001600160a01b03166001600160a01b03168152602001908152602001600020805461644a9061bffd565b80601f01602080910402602001604051908101604052809291908181526020018280546164769061bffd565b80156164c35780601f10616498576101008083540402835291602001916164c3565b820191906000526020600020905b8154815290600101906020018083116164a657829003601f168201915b50505050508282815181106164e857634e487b7160e01b600052603260045260246000fd5b602002602001018190525080806164fe9061c038565b9150506163d9565b602e602052816000526040600020818154811061435f57600080fd5b602260209081526000928352604080842090915290825290205481565b421190565b61654c61a4a7565b61655582616fd1565b61655e57600080fd5b6000828152602a602090815260409182902082516101c0810184528154815260018201549281019290925260028101549282019290925260038201546060820152600482015460ff808216151560808401526101008083048216151560a08501526201000090920416151560c0830152600583015460e083015260068301549082015260078201546101208201526008820154610140820152600982018054919291610160840191906166109061bffd565b80601f016020809104026020016040519081016040528092919081815260200182805461663c9061bffd565b80156166895780601f1061665e57610100808354040283529160200191616689565b820191906000526020600020905b81548152906001019060200180831161666c57829003601f168201915b5050509183525050600a8201546020820152600b82015460409091019060ff166003811115612b0857634e487b7160e01b600052602160045260246000fd5b6060600082116166ea5760405162461bcd60e51b815260040161109c9061b4ba565b6000826001600160401b0381111561671257634e487b7160e01b600052604160045260246000fd5b60405190808252806020026020018201604052801561673b578160200160208202803683370190505b509050600061674c614fe68361a0de565b949350505050565b606061675f82616fd1565b61676857600080fd5b6000828152602a6020526040902060090180546167849061bffd565b80601f01602080910402602001604051908101604052809291908181526020018280546167b09061bffd565b80156128bd5780601f106167d2576101008083540402835291602001916128bd565b820191906000526020600020905b8154815290600101906020018083116167e05750939695505050505050565b6001600160a01b03166000908152602b602052604090206003015460ff1690565b60435481565b606061683182616fd1565b61684d5760405162461bcd60e51b815260040161109c9061b8d6565b6000828152602a6020908152604080832081516101c0810183528154815260018201549381019390935260028101549183019190915260038101546060830152600481015460ff808216151560808501526101008083048216151560a08601526201000090920416151560c0840152600582015460e084015260068201549083015260078101546101208301526008810154610140830152600981018054610160840191906168fb9061bffd565b80601f01602080910402602001604051908101604052809291908181526020018280546169279061bffd565b80156169745780601f1061694957610100808354040283529160200191616974565b820191906000526020600020905b81548152906001019060200180831161695757829003601f168201915b5050509183525050600a8201546020820152600b82015460409091019060ff1660038111156169b357634e487b7160e01b600052602160045260246000fd5b60038111156169d257634e487b7160e01b600052602160045260246000fd5b90525060208101519091506000816001600160401b03811115616a0557634e487b7160e01b600052604160045260246000fd5b604051908082528060200260200182016040528015616a3857816020015b6060815260200190600190039081616a235790505b50905060005b82811015611868578351600090616a5690839061bf6f565b600081815260296020526040812080549293509091616a749061bffd565b80601f0160208091040260200160405190810160405280929190818152602001828054616aa09061bffd565b8015616aed5780601f10616ac257610100808354040283529160200191616aed565b820191906000526020600020905b815481529060010190602001808311616ad057829003601f168201915b5050505050905080848481518110616b1557634e487b7160e01b600052603260045260246000fd5b602002602001018190525050508080616b2d9061c038565b915050616a3e565b603d5481565b603f5481565b616b49617632565b6001600160a01b0316616b5a614334565b6001600160a01b031614616b805760405162461bcd60e51b815260040161109c9061b5d5565b6001600160a01b038116616ba65760405162461bcd60e51b815260040161109c9061af9e565b611a3181617cd4565b6000828260405160200161460692919061ad6c565b603f5490565b336000908152602b602052604090206049546001600160a01b0316616c015760405162461bcd60e51b815260040161109c9061ad8e565b604960009054906101000a90046001600160a01b03166001600160a01b03166398a54e2b6040518163ffffffff1660e01b815260040160206040518083038186803b158015616c4f57600080fd5b505afa158015616c63573d6000803e3d6000fd5b505050506040513d601f19601f82011682018060405250810190616c87919061a996565b603154603054616c97919061bf6f565b10616cb45760405162461bcd60e51b815260040161109c9061b9e4565b600381015460ff1615616cd95760405162461bcd60e51b815260040161109c9061b1c7565b616ce233614316565b158015616cf55750616cf3336122de565b155b616d115760405162461bcd60e51b815260040161109c9061b6fe565b604960009054906101000a90046001600160a01b03166001600160a01b0316639fb491f66040518163ffffffff1660e01b815260040160206040518083038186803b158015616d5f57600080fd5b505afa158015616d73573d6000803e3d6000fd5b505050506040513d601f19601f82011682018060405250810190616d97919061a996565b816001015410158015616e3c5750604960009054906101000a90046001600160a01b03166001600160a01b0316630f1f0ffe6040518163ffffffff1660e01b815260040160206040518083038186803b158015616df357600080fd5b505afa158015616e07573d6000803e3d6000fd5b505050506040513d601f19601f82011682018060405250810190616e2b919061a996565b6004820154616e3a904261bfba565b105b15616e595760405162461bcd60e51b815260040161109c9061ba26565b604954604080516001624ee91360e11b0319815290516000926001600160a01b03169163ff622dda916004808301926020929190829003018186803b158015616ea157600080fd5b505afa158015616eb5573d6000803e3d6000fd5b505050506040513d601f19601f82011682018060405250810190616ed9919061a996565b90506000616ee73383613d99565b6001600160a01b0381166000908152602d6020526040902054909150821115616f3c576001600160a01b0381166000908152602d6020526040812054616f2e908490617cc8565b9050616f3a8183619e1e565b505b616f453361a046565b600383018054600160ff19909116811761ff0019169091554260048501556000818501819055603f8054909190616f7d90849061bf6f565b90915550616f8b90506179ea565b336001600160a01b03167f439d77b7534ec3108fc6143bd4fbabde0b9f2bb54f7b0730d1f70dd2135b765f42604051616fc4919061abaa565b60405180910390a2505050565b603c54101590565b616fe1617632565b6001600160a01b0316616ff2614334565b6001600160a01b0316146170185760405162461bcd60e51b815260040161109c9061b5d5565b6044805460ff191692151592909217909155604555565b336000908152602b602052604090206003015460ff1690565b60415490565b6048546001600160a01b031681565b6001600160a01b0381166000908152602b602090815260408083208151610120810183528154808252600183015494820194909452600282015492810192909252600381015460ff80821615156060850152610100918290041615156080840152600482015460a0840152600582015460c0840152600682015460e084015260079091015490820152906170f184826135c4565b158015617102575061710281613091565b15611bca575060009392505050565b606060008311801561712257508183105b61713e5760405162461bcd60e51b815260040161109c9061b337565b6000835b61714d84600161bf6f565b811015617304576000818152602a6020908152604080832081516101c0810183528154815260018201549381019390935260028101549183019190915260038101546060830152600481015460ff808216151560808501526101008083048216151560a08601526201000090920416151560c0840152600582015460e084015260068201549083015260078101546101208301526008810154610140830152600981018054610160840191906172029061bffd565b80601f016020809104026020016040519081016040528092919081815260200182805461722e9061bffd565b801561727b5780601f106172505761010080835404028352916020019161727b565b820191906000526020600020905b81548152906001019060200180831161725e57829003601f168201915b5050509183525050600a8201546020820152600b82015460409091019060ff1660038111156172ba57634e487b7160e01b600052602160045260246000fd5b60038111156172d957634e487b7160e01b600052602160045260246000fd5b90525060208101519091506172ee908461bf6f565b92505080806172fc9061c038565b915050617142565b506000816001600160401b0381111561732d57634e487b7160e01b600052604160045260246000fd5b60405190808252806020026020018201604052801561736057816020015b606081526020019060019003908161734b5790505b5090506000855b61737286600161bf6f565b811015614dfe576000818152602a6020908152604080832081516101c0810183528154815260018201549381019390935260028101549183019190915260038101546060830152600481015460ff808216151560808501526101008083048216151560a08601526201000090920416151560c0840152600582015460e084015260068201549083015260078101546101208301526008810154610140830152600981018054610160840191906174279061bffd565b80601f01602080910402602001604051908101604052809291908181526020018280546174539061bffd565b80156174a05780601f10617475576101008083540402835291602001916174a0565b820191906000526020600020905b81548152906001019060200180831161748357829003601f168201915b5050509183525050600a8201546020820152600b82015460409091019060ff1660038111156174df57634e487b7160e01b600052602160045260246000fd5b60038111156174fe57634e487b7160e01b600052602160045260246000fd5b905250905060005b816020015181101561760e57815160009061752290839061bf6f565b6000818152602960205260408120805492935090916175409061bffd565b80601f016020809104026020016040519081016040528092919081815260200182805461756c9061bffd565b80156175b95780601f1061758e576101008083540402835291602001916175b9565b820191906000526020600020905b81548152906001019060200180831161759c57829003601f168201915b50505050509050808787815181106175e157634e487b7160e01b600052603260045260246000fd5b60209081029190910101526175f760018761bf6f565b9550505080806176069061c038565b915050617506565b5050808061761b9061c038565b915050617367565b6049546001600160a01b031681565b3390565b6001600160a01b03811660009081526033602052604090205460ff1615611a31576001600160a01b038116600090815260366020526040812054603080549192916176839060019061bfba565b815481106176a157634e487b7160e01b600052603260045260246000fd5b60009182526020808320909101546001600160a01b038681168452603383526040808520805460ff19169055604a546036909452909320919091556030549116915060021161774657806030838154811061770c57634e487b7160e01b600052603260045260246000fd5b600091825260208083209190910180546001600160a01b0319166001600160a01b0394851617905591831681526036909152604090208290555b603080548061776557634e487b7160e01b600052603160045260246000fd5b600082815260209020810160001990810180546001600160a01b0319169055019055505050565b6001600160a01b03811660009081526034602052604090205460ff1615611a31576001600160a01b038116600090815260376020526040812054603180549192916177d99060019061bfba565b815481106177f757634e487b7160e01b600052603260045260246000fd5b60009182526020808320909101546001600160a01b038681168452603483526040808520805460ff19169055604a546037909452909320919091556031549116915060021161789c57806031838154811061786257634e487b7160e01b600052603260045260246000fd5b600091825260208083209190910180546001600160a01b0319166001600160a01b0394851617905591831681526037909152604090208290555b603180548061776557634e487b7160e01b600052603160045260246000fd5b6001600160a01b03811660009081526035602052604090205460ff1615611a31576001600160a01b038116600090815260386020526040812054603280549192916179089060019061bfba565b8154811061792657634e487b7160e01b600052603260045260246000fd5b60009182526020808320909101546001600160a01b038681168452603583526040808520805460ff19169055604a54603890945290932091909155603154911691506002116179cb57806032838154811061799157634e487b7160e01b600052603260045260246000fd5b600091825260208083209190910180546001600160a01b0319166001600160a01b0394851617905591831681526038909152604090208290555b603280548061776557634e487b7160e01b600052603160045260246000fd5b60495460408051632abe0d5f60e11b815290516000926001600160a01b03169163557c1abe916004808301926020929190829003018186803b158015617a2f57600080fd5b505afa925050508015617a5f575060408051601f3d908101601f19168201909252617a5c9181019061a62b565b60015b617abe573d808015617a8d576040519150601f19603f3d011682016040523d82523d6000602084013e617a92565b606091505b5060008051602061c0cd83398151915281604051617ab0919061ac95565b60405180910390a150617ac0565b505b604960009054906101000a90046001600160a01b03166001600160a01b031663557c1abe6040518163ffffffff1660e01b815260040160206040518083038186803b158015617b0e57600080fd5b505afa158015617b22573d6000803e3d6000fd5b505050506040513d601f19601f82011682018060405250810190617b46919061a62b565b90506001600160a01b038116617b6e5760405162461bcd60e51b815260040161109c9061b190565b6000816001600160a01b031633604051602401617b8b919061ac03565b60408051601f198184030181529181526020820180516001600160e01b0316631f5ac9c560e11b17905251617bc0919061abd9565b6000604051808303816000865af19150503d8060008114617bfd576040519150601f19603f3d011682016040523d82523d6000602084013e617c02565b606091505b505090506000826001600160a01b031633604051602401617c23919061ac03565b60408051601f198184030181529181526020820180516001600160e01b03166358563d2160e01b17905251617c58919061abd9565b6000604051808303816000865af19150503d8060008114617c95576040519150601f19603f3d011682016040523d82523d6000602084013e617c9a565b606091505b505090508180617ca75750805b617cc35760405162461bcd60e51b815260040161109c9061ae16565b505050565b6000611266828461bfba565b600080546001600160a01b038381166001600160a01b0319831681178455604051919092169283917f8be0079c531659141344cd1fd0a4f28419497f9722a3daafe3b4186f6b6457e09190a35050565b6000603b54603d54617d36919061bfba565b9050604960009054906101000a90046001600160a01b03166001600160a01b031663e3115d3c6040518163ffffffff1660e01b815260040160206040518083038186803b158015617d8657600080fd5b505afa158015617d9a573d6000803e3d6000fd5b505050506040513d601f19601f82011682018060405250810190617dbe919061a996565b811115611a315760005b604954604080516307d630cb60e41b81529051617e4c926001600160a01b031691637d630cb0916004808301926020929190829003018186803b158015617e0e57600080fd5b505afa158015617e22573d6000803e3d6000fd5b505050506040513d601f19601f82011682018060405250810190617e46919061a996565b83617eed565b811015612f7857603b546000908152602a602052604081208054600190910154909190617e79908361bf6f565b9050815b81811015617ea057617e8e816125ab565b80617e988161c038565b915050617e7d565b50617eac603b54612f7c565b603b546040517f72c2fcc891fe835b86fc8bb9abdc52adf52499c52289b3c49e1461eabea2717590600090a250508080617ee59061c038565b915050617dc8565b6000818310617efc5781611266565b5090919050565b6049546001600160a01b0316617f2b5760405162461bcd60e51b815260040161109c9061ad8e565b60495460408051632a49798160e11b815290516000926001600160a01b031691635492f302916004808301926020929190829003018186803b158015617f7057600080fd5b505afa158015617f84573d6000803e3d6000fd5b505050506040513d601f19601f82011682018060405250810190617fa8919061a62b565b6001600160a01b03161415617fcf5760405162461bcd60e51b815260040161109c9061bb65565b60495460408051630855d15160e01b815290516000926001600160a01b031691630855d151916004808301926020929190829003018186803b15801561801457600080fd5b505afa158015618028573d6000803e3d6000fd5b505050506040513d601f19601f8201168201806040525081019061804c919061a62b565b6001600160a01b031614156180735760405162461bcd60e51b815260040161109c9061b8a1565b604954604080516304e76c8f60e01b815290516000926001600160a01b0316916304e76c8f916004808301926020929190829003018186803b1580156180b857600080fd5b505afa1580156180cc573d6000803e3d6000fd5b505050506040513d601f19601f820116820180604052508101906180f0919061a62b565b6001600160a01b031614156181175760405162461bcd60e51b815260040161109c9061b077565b61812081611871565b8061813a57506000818152602a6020526040902060030154155b6181565760405162461bcd60e51b815260040161109c9061b65a565b6000818152602a6020526040902060040154610100900460ff161561818d5760405162461bcd60e51b815260040161109c9061b90d565b6000818152602f60209081526040808320805482518185028101850190935280835291929091908301828280156181ed57602002820191906000526020600020905b81546001600160a01b031681526001909101906020018083116181cf575b50505050509050600081516001600160401b0381111561821d57634e487b7160e01b600052604160045260246000fd5b60405190808252806020026020018201604052801561825057816020015b606081526020019060019003908161823b5790505b509050600082516001600160401b0381111561827c57634e487b7160e01b600052604160045260246000fd5b6040519080825280602002602001820160405280156182a5578160200160208202803683370190505b50905060005b83518110156184285760008482815181106182d657634e487b7160e01b600052603260045260246000fd5b60209081029190910181015160008881526023835260408082206001600160a01b03841683529093529182208054919350906183119061bffd565b80601f016020809104026020016040519081016040528092919081815260200182805461833d9061bffd565b801561838a5780601f1061835f5761010080835404028352916020019161838a565b820191906000526020600020905b81548152906001019060200180831161836d57829003601f168201915b50505060008a81526024602090815260408083206001600160a01b0389168452909152902054885193945092849250889150869081106183da57634e487b7160e01b600052603260045260246000fd5b60200260200101819052508085858151811061840657634e487b7160e01b600052603260045260246000fd5b60200260200101818152505050505080806184209061c038565b9150506182ab565b5060006184d36064604960009054906101000a90046001600160a01b03166001600160a01b031663ea19733c6040518163ffffffff1660e01b815260040160206040518083038186803b15801561847e57600080fd5b505afa158015618492573d6000803e3d6000fd5b505050506040513d601f19601f820116820180604052508101906184b6919061a996565b86516184c2919061bf9b565b6184cc919061bf87565b600161a2db565b60408051602081019091526000808252919250905b84518110156185d1576000805b86518110156185865761855687848151811061852157634e487b7160e01b600052603260045260246000fd5b602002602001015188838151811061854957634e487b7160e01b600052603260045260246000fd5b60200260200101516146ad565b156185745761856660018361bf6f565b915084821061857457618586565b8061857e8161c038565b9150506184f5565b508381106185be578582815181106185ae57634e487b7160e01b600052603260045260246000fd5b60200260200101519250506185d1565b50806185c98161c038565b9150506184e8565b506000805b84518110156186b8576000805b865181101561866d5786818151811061860c57634e487b7160e01b600052603260045260246000fd5b602002602001015187848151811061863457634e487b7160e01b600052603260045260246000fd5b6020026020010151141561865b5761864d60018361bf6f565b915085821061865b5761866d565b806186658161c038565b9150506185e3565b508481106186a55785828151811061869557634e487b7160e01b600052603260045260246000fd5b60200260200101519250506186b8565b50806186b08161c038565b9150506185d6565b5060006186c488612092565b80156186e657506186e483604051806020016040528060008152506146ad565b155b80156186f157508115155b905080618702576047549150618727565b6047546000898152602a602052604090206001015461872491617e469161bf9b565b91505b60005b8751811015618eca57600088828151811061875557634e487b7160e01b600052603260045260246000fd5b602002602001015190506000602260008c81526020019081526020016000206000836001600160a01b03166001600160a01b03168152602001908152602001600020549050600060216000846001600160a01b03166001600160a01b0316815260200190815260200160002060008d815260200190815260200160002060009054906101000a900460ff1690506000602b6000856001600160a01b03166001600160a01b03168152602001908152602001600020905060276000856001600160a01b03166001600160a01b0316815260200190815260200160002073__$85afbab79b2b776d70bef879a32ed56424$__6302073bfa90918f6040518363ffffffff1660e01b815260040161886a92919061abf5565b60006040518083038186803b15801561888257600080fd5b505af4158015618896573d6000803e3d6000fd5b505050508115618da0576001600160a01b0384166000908152602b602052604081206001908101919091558615151480156188d15750826001145b806188e65750851580156188e6575082600114155b15618d805760495460408051632a49798160e11b815290516000926001600160a01b031691635492f302916004808301926020929190829003018186803b15801561893057600080fd5b505afa158015618944573d6000803e3d6000fd5b505050506040513d601f19601f82011682018060405250810190618968919061a62b565b90506000604960009054906101000a90046001600160a01b03166001600160a01b0316630855d1516040518163ffffffff1660e01b815260040160206040518083038186803b1580156189ba57600080fd5b505afa1580156189ce573d6000803e3d6000fd5b505050506040513d601f19601f820116820180604052508101906189f2919061a62b565b90506000604960009054906101000a90046001600160a01b03166001600160a01b03166304e76c8f6040518163ffffffff1660e01b815260040160206040518083038186803b158015618a4457600080fd5b505afa158015618a58573d6000803e3d6000fd5b505050506040513d601f19601f82011682018060405250810190618a7c919061a62b565b90506000836001600160a01b03166311815086896040518263ffffffff1660e01b8152600401618aac919061ac03565b60206040518083038186803b158015618ac457600080fd5b505afa158015618ad8573d6000803e3d6000fd5b505050506040513d601f19601f82011682018060405250810190618afc919061a62b565b90508a15618d5c57826001600160a01b0316631b6d990a8c604960009054906101000a90046001600160a01b03166001600160a01b0316630b08bfd96040518163ffffffff1660e01b815260040160206040518083038186803b158015618b6257600080fd5b505afa158015618b76573d6000803e3d6000fd5b505050506040513d601f19601f82011682018060405250810190618b9a919061a996565b618ba4919061bf9b565b836040518363ffffffff1660e01b8152600401618bc292919061bdc3565b602060405180830381600087803b158015618bdc57600080fd5b505af1158015618bf0573d6000803e3d6000fd5b505050506040513d601f19601f82011682018060405250810190618c14919061a81c565b618c305760405162461bcd60e51b815260040161109c9061b1fc565b816001600160a01b031663e0ca50948c604960009054906101000a90046001600160a01b03166001600160a01b031663f80de0a06040518163ffffffff1660e01b815260040160206040518083038186803b158015618c8e57600080fd5b505afa158015618ca2573d6000803e3d6000fd5b505050506040513d601f19601f82011682018060405250810190618cc6919061a996565b618cd0919061bf9b565b836040518363ffffffff1660e01b8152600401618cee92919061bdac565b602060405180830381600087803b158015618d0857600080fd5b505af1158015618d1c573d6000803e3d6000fd5b505050506040513d601f19601f82011682018060405250810190618d40919061a81c565b618d5c5760405162461bcd60e51b815260040161109c9061b6b7565b6001856006016000828254618d71919061bf6f565b90915550618d9b945050505050565b6001816007016000828254618d95919061bf6f565b90915550505b618eb3565b6001600160a01b0384166000908152602b602052604081206001908101805491929091618dce90849061bf6f565b909155505060495460408051634fda48fb60e11b815290516001600160a01b0390921691639fb491f691600480820192602092909190829003018186803b158015618e1857600080fd5b505afa158015618e2c573d6000803e3d6000fd5b505050506040513d601f19601f82011682018060405250810190618e50919061a996565b6001600160a01b0385166000908152602b602052604090206001015410618e8f5760038101805460ff19169055618e868461778c565b618e8f84617636565b600381015460ff1615618eae57618ea58461778c565b618eae8461a046565b600081555b505050508080618ec29061c038565b91505061872a565b506000888152602a6020908152604090912060048101805461ff0019166101001790558451618f019260099092019186019061a423565b506000888152602a60205260409020600a018290558015619619576000888152602a602052604081208054600190910154909190618f3f908361bf6f565b9050815b818110156193e8576000818152602960209081526040808320600101546049548251632a49798160e11b815292516001600160a01b0392831695949190921692635492f3029260048083019392829003018186803b158015618fa457600080fd5b505afa158015618fb8573d6000803e3d6000fd5b505050506040513d601f19601f82011682018060405250810190618fdc919061a62b565b90506000604960009054906101000a90046001600160a01b03166001600160a01b0316630855d1516040518163ffffffff1660e01b815260040160206040518083038186803b15801561902e57600080fd5b505afa158015619042573d6000803e3d6000fd5b505050506040513d601f19601f82011682018060405250810190619066919061a62b565b90506000604960009054906101000a90046001600160a01b03166001600160a01b03166304e76c8f6040518163ffffffff1660e01b815260040160206040518083038186803b1580156190b857600080fd5b505afa1580156190cc573d6000803e3d6000fd5b505050506040513d601f19601f820116820180604052508101906190f0919061a62b565b90506000836001600160a01b03166311815086866040518263ffffffff1660e01b8152600401619120919061ac03565b60206040518083038186803b15801561913857600080fd5b505afa15801561914c573d6000803e3d6000fd5b505050506040513d601f19601f82011682018060405250810190619170919061a62b565b905089156193d057826001600160a01b0316631b6d990a8b604960009054906101000a90046001600160a01b03166001600160a01b031663abb10b9b6040518163ffffffff1660e01b815260040160206040518083038186803b1580156191d657600080fd5b505afa1580156191ea573d6000803e3d6000fd5b505050506040513d601f19601f8201168201806040525081019061920e919061a996565b619218919061bf9b565b836040518363ffffffff1660e01b815260040161923692919061bdc3565b602060405180830381600087803b15801561925057600080fd5b505af1158015619264573d6000803e3d6000fd5b505050506040513d601f19601f82011682018060405250810190619288919061a81c565b6192a45760405162461bcd60e51b815260040161109c9061b46c565b816001600160a01b031663e0ca50948b604960009054906101000a90046001600160a01b03166001600160a01b03166330c0bb796040518163ffffffff1660e01b815260040160206040518083038186803b15801561930257600080fd5b505afa158015619316573d6000803e3d6000fd5b505050506040513d601f19601f8201168201806040525081019061933a919061a996565b619344919061bf9b565b836040518363ffffffff1660e01b815260040161936292919061bdac565b602060405180830381600087803b15801561937c57600080fd5b505af1158015619390573d6000803e3d6000fd5b505050506040513d601f19601f820116820180604052508101906193b4919061a81c565b6193d05760405162461bcd60e51b815260040161109c9061b60a565b505050505080806193e09061c038565b915050618f43565b5060008a8152602a6020526040808220600b01805460ff19166001908117909155815490929061941990849061bf6f565b909155505060495460408051637b39b17f60e11b815290516000926001600160a01b03169163f67362fe916004808301926020929190829003018186803b15801561946357600080fd5b505afa158015619477573d6000803e3d6000fd5b505050506040513d601f19601f8201168201806040525081019061949b919061a62b565b6001600160a01b031614156194c25760405162461bcd60e51b815260040161109c9061b0ba565b60495460408051637b39b17f60e11b815290516000926001600160a01b03169163f67362fe916004808301926020929190829003018186803b15801561950757600080fd5b505afa15801561951b573d6000803e3d6000fd5b505050506040513d601f19601f8201168201806040525081019061953f919061a62b565b6040516348257dc960e01b81529091506001600160a01b038216906348257dc99061956e908e9060040161abaa565b600060405180830381600087803b15801561958857600080fd5b505af1925050508015619599575060015b6195f8573d8080156195c7576040519150601f19603f3d011682016040523d82523d6000602084013e6195cc565b606091505b5060008051602061c0cd833981519152816040516195ea919061ac95565b60405180910390a150619611565b6001603f600082825461960b919061bf6f565b90915550505b50505061964e565b6000888152602a60205260408120600b01805460ff19166002179055604180546001929061964890849061bf6f565b90915550505b6001603f6000828254619661919061bf6f565b90915550506000888152602a6020526040812060020154604280549192909161968b90849061bf6f565b90915550506000888152602a602052604081206003015460438054919290916196b590849061bf6f565b92505081905550877f98bfbdd7dba62d9141cf4f07139f8e53c0d00c0b44cad36d148730680b16216184836040516196ee92919061ad1a565b60405180910390a25050505050505050565b6000611266828461bf6f565b60005b6032548110156197f75760006032828154811061973c57634e487b7160e01b600052603260045260246000fd5b60009182526020808320909101546001600160a01b0316808352602b90915260409091208054919250906197e25760038101805461ffff1916905561978082617636565b6197898261778c565b6001600160a01b03821660008181526035602052604090819020805460ff19169055517f9dadcedba048e92b943ea1c5861cee1df63a566d7f795869c004780c1c698e2b906197d990429061abaa565b60405180910390a25b505080806197ef9061c038565b91505061970f565b506131366032600061a535565b603e546000908152602a602052604090206004015460ff166198385760405162461bcd60e51b815260040161109c9061b7be565b603e546000908152602a602052604090206004015462010000900460ff16156198735760405162461bcd60e51b815260040161109c9061b507565b600061995a6198cf603080549050604960009054906101000a90046001600160a01b03166001600160a01b031663dfeceed76040518163ffffffff1660e01b815260040160206040518083038186803b15801561326157600080fd5b604960009054906101000a90046001600160a01b03166001600160a01b031663bd40ef4c6040518163ffffffff1660e01b815260040160206040518083038186803b15801561991d57600080fd5b505afa158015619931573d6000803e3d6000fd5b505050506040513d601f19601f82011682018060405250810190619955919061a996565b61a2db565b6030546049546040805163189460df60e31b8152905193945091926001600160a01b039091169163c4a306f8916004808301926020929190829003018186803b1580156199a657600080fd5b505afa1580156199ba573d6000803e3d6000fd5b505050506040513d601f19601f820116820180604052508101906199de919061a996565b6001546199eb904261bfba565b10612f7857603e80546000908152602a60209081526040808320600301869055925482528282206002018590556049548351631b4930b560e11b815293519293619a9a936001600160a01b0390921692633692616a92600480840193829003018186803b158015619a5b57600080fd5b505afa158015619a6f573d6000803e3d6000fd5b505050506040513d601f19601f82011682018060405250810190619a93919061a996565b4290619700565b90506000619b2e604960009054906101000a90046001600160a01b03166001600160a01b03166372e540306040518163ffffffff1660e01b815260040160206040518083038186803b158015619aef57600080fd5b505afa158015619b03573d6000803e3d6000fd5b505050506040513d601f19601f82011682018060405250810190619b27919061a996565b8390619700565b603e80546000908152602a6020526040808220600501869055825482528082206006018490559154815220600401805462ff0000191662010000179055905060018410801590619b7f575060018310155b619b9b5760405162461bcd60e51b815260040161109c9061b02d565b6000619ba78585614ef5565b9050600081516001600160401b03811115619bd257634e487b7160e01b600052604160045260246000fd5b604051908082528060200260200182016040528015619bfb578160200160208202803683370190505b50905060005b8251811015619cba576030838281518110619c2c57634e487b7160e01b600052603260045260246000fd5b602002602001015181548110619c5257634e487b7160e01b600052603260045260246000fd5b9060005260206000200160009054906101000a90046001600160a01b0316828281518110619c9057634e487b7160e01b600052603260045260246000fd5b6001600160a01b039092166020928302919091019091015280619cb28161c038565b915050619c01565b5060005b8251811015619dda576000828281518110619ce957634e487b7160e01b600052603260045260246000fd5b602002602001015190506000602b6000836001600160a01b03166001600160a01b031681526020019081526020016000209050619d2582617636565b619d2e8261a2eb565b603e80546000908152602f60209081526040822080546001808201835591845291832090910180546001600160a01b0319166001600160a01b03871617905591548355600583018054909190619d8590849061bf6f565b9091555050603e546040517fe4ee2dfabe57cee15e3f558890b20455f54c1fa0718e5276faad70a6500e6b8c90619dbd90859061ac03565b60405180910390a250508080619dd29061c038565b915050619cbe565b50426001908155603e54619ded91619700565b603e55619df8614a11565b6039819055506001603f6000828254619e11919061bf6f565b9091555050505050505050565b6049546040805163ca64f9e760e01b815290516000926001600160a01b03169163ca64f9e7916004808301926020929190829003018186803b158015619e6357600080fd5b505afa158015619e77573d6000803e3d6000fd5b505050506040513d601f19601f82011682018060405250810190619e9b919061a62b565b6001600160a01b03161415619ec25760405162461bcd60e51b815260040161109c9061b733565b6049546040805163ca64f9e760e01b815290516000926001600160a01b03169163ca64f9e7916004808301926020929190829003018186803b158015619f0757600080fd5b505afa158015619f1b573d6000803e3d6000fd5b505050506040513d601f19601f82011682018060405250810190619f3f919061a62b565b6040516304ada21f60e21b81529091506001600160a01b038216906312b6887c90619f70908690869060040161bdac565b602060405180830381600087803b158015619f8a57600080fd5b505af1158015619f9e573d6000803e3d6000fd5b505050506040513d601f19601f82011682018060405250810190619fc2919061a81c565b619fde5760405162461bcd60e51b815260040161109c9061b241565b6001600160a01b0382166000908152602d60205260408120805485929061a00690849061bf6f565b92505081905550816001600160a01b03167f5aa5d56140767016c877a5333ac3e1ad31a09051098a8fdf7297c4b64530a94284604051616fc4919061abaa565b61a04f81614316565b611a315760308054600180820183557f6ff97a59c90d62cc7236ba3a37cd85351bf564556780cf8c1157a220f31f0cbb90910180546001600160a01b0319166001600160a01b0385169081179091556000908152603360205260409020805460ff191682179055905461a0c2919061bfba565b6001600160a01b03821660009081526036602052604090205550565b805160609060005b8181101561a12c578084828151811061a10f57634e487b7160e01b600052603260045260246000fd5b60209081029190910101528061a1248161c038565b91505061a0e6565b509192915050565b6060600082511161a1575760405162461bcd60e51b815260040161109c9061b106565b81518060005b8181101561a2d25760008361a170614a11565b87848151811061a19057634e487b7160e01b600052603260045260246000fd5b602002602001015160405160200161a1a992919061abf5565b6040516020818303038152906040528051906020012060001c61a1cc919061c053565b61a1d790600161bf6f565b905060008661a1e760018461bfba565b8151811061a20557634e487b7160e01b600052603260045260246000fd5b602002602001015190508660018661a21d919061bfba565b8151811061a23b57634e487b7160e01b600052603260045260246000fd5b60200260200101518760018461a251919061bfba565b8151811061a26f57634e487b7160e01b600052603260045260246000fd5b6020908102919091010152808761a28760018861bfba565b8151811061a2a557634e487b7160e01b600052603260045260246000fd5b602090810291909101015261a2bb60018661bfba565b94505050808061a2ca9061c038565b91505061a15d565b50929392505050565b600081831015617efc5781611266565b61a2f4816122de565b611a315760318054600180820183557fc54045fa7c6ec765e825df7f9e9bf9dec12c5cef146f93a5eee56772ee647fbc90910180546001600160a01b0319166001600160a01b0385169081179091556000908152603460205260409020805460ff191682179055905461a367919061bfba565b6001600160a01b03821660009081526037602052604090205550565b50805461a38f9061bffd565b6000825580601f1061a3a15750611a31565b601f016020900490600052602060002090810190611a31919061a54f565b6040518060e001604052806060815260200160006001600160a01b03168152602001600081526020016000815260200160608152602001606081526020016000600381111561a41e57634e487b7160e01b600052602160045260246000fd5b905290565b82805461a42f9061bffd565b90600052602060002090601f01602090048101928261a451576000855561a497565b82601f1061a46a57805160ff191683800117855561a497565b8280016001018555821561a497579182015b8281111561a49757825182559160200191906001019061a47c565b5061a4a392915061a54f565b5090565b604051806101c00160405280600081526020016000815260200160008152602001600081526020016000151581526020016000151581526020016000151581526020016000815260200160008152602001600081526020016000815260200160608152602001600081526020016000600381111561a41e57634e487b7160e01b600052602160045260246000fd5b5080546000825590600052602060002090810190611a3191905b5b8082111561a4a3576000815560010161a550565b60008083601f84011261a575578182fd5b5081356001600160401b0381111561a58b578182fd5b60208301915083602080830285010111156125a457600080fd5b600082601f83011261a5b5578081fd5b81356001600160401b0381111561a5ce5761a5ce61c093565b61a5e1601f8201601f191660200161bf23565b81815284602083860101111561a5f5578283fd5b816020850160208301379081016020019190915292915050565b60006020828403121561a620578081fd5b8135611bca8161c0a9565b60006020828403121561a63c578081fd5b8151611bca8161c0a9565b6000806040838503121561a659578081fd5b823561a6648161c0a9565b946020939093013593505050565b60008060006060848603121561a686578081fd5b833561a6918161c0a9565b95602085013595506040909401359392505050565b60008060008060006080868803121561a6bd578081fd5b85356001600160401b038082111561a6d3578283fd5b818801915088601f83011261a6e6578283fd5b8135602061a6fb61a6f68361bf4c565b61bf23565b82815281810190858301875b8581101561a7305761a71e8f8684358b010161a5a5565b8452928401929084019060010161a707565b50909a5050508901359250508082111561a748578283fd5b61a75489838a0161a564565b909650945060408801359350606088013591508082111561a773578283fd5b5061a7808882890161a5a5565b9150509295509295909350565b6000602080838503121561a79f578182fd5b82356001600160401b0381111561a7b4578283fd5b8301601f8101851361a7c4578283fd5b803561a7d261a6f68261bf4c565b818152838101908385018584028501860189101561a7ee578687fd5b8694505b8385101561a81057803583526001949094019391850191850161a7f2565b50979650505050505050565b60006020828403121561a82d578081fd5b8151611bca8161c0be565b6000806040838503121561a84a578182fd5b823561a6648161c0be565b6000806040838503121561a867578182fd5b8235915060208301356001600160401b0381111561a883578182fd5b61a88f8582860161a5a5565b9150509250929050565b60008060006060848603121561a8ad578283fd5b8335925060208401356001600160401b0381111561a8c9578283fd5b61a8d58682870161a5a5565b925050604084013590509250925092565b6000806040838503121561a8f8578182fd5b82356001600160401b038082111561a90e578384fd5b61a91a8683870161a5a5565b9350602085013591508082111561a92f578283fd5b5061a88f8582860161a5a5565b6000806040838503121561a94e578182fd5b82356001600160401b0381111561a963578283fd5b61a96f8582860161a5a5565b95602094909401359450505050565b60006020828403121561a98f578081fd5b5035919050565b600060208284031215611cf6578081fd5b6000806040838503121561a9b9578182fd5b82359150602083013561a9cb8161c0a9565b809150509250929050565b600080600080600060a0868803121561a9ed578283fd5b8535945060208601359350604086013592506060860135915060808601356001600160401b0381111561aa1e578182fd5b61a7808882890161a5a5565b6000806000806080858703121561aa3f578182fd5b8435935060208501356001600160401b0381111561aa5b578283fd5b61aa678782880161a5a5565b949794965050505060408301359260600135919050565b6000806040838503121561aa90578182fd5b50508035926020909101359150565b6000806000806080858703121561aab4578182fd5b8435935060208501359250604085013561aacd8161c0a9565b9396929550929360600135925050565b6000815180845260208085019450808401835b8381101561ab0c5781518752958201959082019060010161aaf0565b509495945050505050565b15159052565b6000815180845261ab3581602086016020860161bfd1565b601f01601f19169290920160200192915050565b6004811061ab6757634e487b7160e01b600052602160045260246000fd5b9052565b60609190911b6bffffffffffffffffffffffff1916815260140190565b60609290921b6bffffffffffffffffffffffff19168252601482015260340190565b90815260200190565b6000838252825161abcb81602085016020870161bfd1565b919091016020019392505050565b6000825161abeb81846020870161bfd1565b9190910192915050565b918252602082015260400190565b6001600160a01b0391909116815260200190565b6000602080830181845280855180835260408601915060408482028701019250838701855b8281101561ac6a57603f1988860301845261ac5885835161ab1d565b9450928501929085019060010161ac3c565b5092979650505050505050565b600060208252611266602083018461aadd565b901515815260200190565b600060208252611266602083018461ab1d565b600060e0825261acbb60e083018a61ab1d565b6001600160a01b03891660208401526040830188905260608301879052828103608084015261acea818761ab1d565b905082810360a084015261acfe818661ab1d565b91505061ad0e60c083018461ab49565b98975050505050505050565b60006040825261ad2d604083018561ab1d565b905082151560208301529392505050565b60006040825261ad51604083018561ab1d565b828103602084015261ad63818561ab1d565b95945050505050565b60006040825261ad7f604083018561ab1d565b90508260208301529392505050565b6020808252601f908201527f506172616d6574657273204d616e61676572206d757374206265207365742e00604082015260600190565b60208082526031908201527f676976656e204461746142617463682073686f756c6420626520415050524f5660408201527011510b08185b99081a5d081a5cc81b9bdd607a1b606082015260800190565b60208082526025908201527f72656365697665722072656a6563746564205f7265747269657665534675656c6040820152640818d85b1b60da1b606082015260800190565b6020808252602f908201527f636f6d6d697420706572696f64206e6565647320746f206265206f70656e206660408201526e1bdc881d1a1a5cc818985d18da1259608a1b606082015260800190565b60208082526052908201527f4e6f74207468652073616d6520766f7465207468616e20636f6d6d697465642c60408201527f20696d706f737369626c6520746f206d61746368207769746820676976656e206060820152715f73616c742026205f636c656172566f746560701b608082015260a00190565b60208082526056908201527f4e6f74207468652073616d652068617368207468616e20636f6d6d697465642c60408201527f20696d706f737369626c6520746f206d61746368207769746820676976656e206060820152750bee6c2d8e8404c40bec6d8cac2e492a08ca690c2e6d60531b608082015260a00190565b60208082526026908201527f4f776e61626c653a206e6577206f776e657220697320746865207a65726f206160408201526564647265737360d01b606082015260800190565b60208082526029908201527f6b206f72204e20617265206e6f74204f4b20647572696e672072616e646f6d2060408201526839b2b632b1ba34b7b760b91b606082015260800190565b6020808252602a908201527f4661696c20647572696e6720616c6c6f636174696f6e3a206e6f7420656e6f75604082015269676820776f726b65727360b01b606082015260800190565b60208082526023908201527f5265776172644d616e61676572206973206e756c6c20696e20506172616d657460408201526265727360e81b606082015260800190565b6020808252602c908201527f436f6d706c69616e636553797374656d206e756c6c20696e20506172616d657460408201526b195c9cc810dbdb9d1c9858dd60a21b606082015260800190565b60208082526013908201527205f6d7941727261792e6c656e677468203e203606c1b604082015260600190565b60208082526038908201527f55736572206e6565647320746f20626520616c6c6f636174656420746f20746860408201527f697320626174636820746f20636f6d6d6974206f6e2069740000000000000000606082015260800190565b6020808252601d908201527f734675656c3a206e756c6c2041646472657373204e6f742056616c6964000000604082015260600190565b6020808252818101527f576f726b657220697320616c7265616479207265676973746572656420283129604082015260600190565b60208082526025908201527f636f756c64206e6f74207265776172642052455020696e2056616c69646174656040820152642c20312e6160d81b606082015260800190565b6020808252603f908201527f436f756c64206e6f74207265717565737420656e6f75676820616c6c6f63617460408201527f6564207374616b652c2072657175657374416c6c6f63617465645374616b6500606082015260800190565b6020808252602f908201527f5573657220686173206e6f7420636f6d6d69746564206265666f72652c20746860408201526e1d5cc818d85b89dd081c995d99585b608a1b606082015260800190565b6020808252602a908201527f53706f7474696e67206973206e6f742063757272656e746c7920656e61626c656040820152693210313c9027bbb732b960b11b606082015260800190565b6020808252601c908201527f496e70757420626f756e6461726965732061726520696e76616c696400000000604082015260600190565b60208082526036908201527f476c6f62616c206c696d69743a206578636565646564206d61782064617461206040820152753832b9103437bab916103932ba393c903630ba32b91760511b606082015260800190565b60208082526039908201527f646c6c4d61703a20646f6573206e6f7420636f696e7461696e205f446174614260408201527f61746368496420666f7220746865206d73672073656e64657200000000000000606082015260800190565b6020808252602b908201527f75736572206d75737420686176652072657665616c656420696e20746869732060408201526a0ced2eccadc4084c2e8c6d60ab1b606082015260800190565b6020808252602e908201527f636f756c64206e6f74207265776172642052455020696e2056616c696461746560408201526d4461746142617463682c20322e6160901b606082015260800190565b60208082526005908201526404e203e20360dc1b604082015260600190565b6020808252601490820152733737ba1030903b30b634b2103837b9b4ba34b7b760611b604082015260600190565b6020808252603b908201527f43616e277420616c6c6f6361746520776f726b2c207468652063757272656e7460408201527f20626174636820697320616c726561647920616c6c6f63617465640000000000606082015260800190565b6020808252602c908201527f576f726b6572206973206e6f74207265676973746572656420736f2063616e2760408201526b3a103ab73932b3b4b9ba32b960a11b606082015260800190565b6020808252600b908201526a04e5f72616e6765203e20360ac1b604082015260600190565b6020808252818101527f4f776e61626c653a2063616c6c6572206973206e6f7420746865206f776e6572604082015260600190565b60208082526030908201527f636f756c64206e6f742072657761726420746f6b656e20696e2056616c69646160408201526f3a32a230ba30a130ba31b4161019173160811b606082015260800190565b6020808252603a908201527f5f446174614261746368496420686173206e6f7420656e6465642c206f72206e60408201527f6f7420657665727920766f74657273206861766520766f746564000000000000606082015260800190565b60208082526027908201527f636f756c64206e6f742072657761726420746f6b656e20696e2056616c6964616040820152663a32961018973160c91b606082015260800190565b6020808252818101527f576f726b657220697320616c7265616479207265676973746572656420283229604082015260600190565b60208082526022908201527f5374616b654d616e61676572206973206e756c6c20696e20506172616d657465604082015261727360f01b606082015260800190565b60208082526029908201527f6765744e756d50617373696e67546f6b656e733a20686173686573206d75737460408201526808189948195c5d585b60ba1b606082015260800190565b60208082526036908201527f43616e277420616c6c6f6361746520776f726b2c207468652063757272656e74604082015275206261746368206973206e6f7420636f6d706c65746560501b606082015260800190565b60208082526026908201527f52657665616c20706572696f64206e6f74206f70656e20666f7220746869732060408201526511185d18525160d21b606082015260800190565b60208082526027908201527f617661696c61626c65546f6b656e732073686f756c64206265203e3d205f6e756040820152666d546f6b656e7360c81b606082015260800190565b6020808252818101527f5265704d616e61676572206973206e756c6c20696e20506172616d6574657273604082015260600190565b60208082526017908201527f5f4461746142617463684964206d757374206578697374000000000000000000604082015260600190565b60208082526021908201527f5f446174614261746368496420697320616c72656164792076616c69646174656040820152601960fa1b606082015260800190565b6020808252602d908201527f53706f7474696e673a20696e70757420617272617973206d757374206265206f60408201526c0cc40e6c2daca40d8cadccee8d609b1b606082015260800190565b60208082526029908201527f557365722068617320616c726561647920636f6d6d6974656420746f207468696040820152681cc818985d18da125960ba1b606082015260800190565b60208082526022908201527f4d6178696d756d207265676973746572656420776f726b65727320616c726561604082015261647960f01b606082015260800190565b6020808252606c908201527f5573657220686173206e6f7420766f746564206d616e792074696d657320696e60408201527f206120726f7720616e64206e6565647320746f2077616974204e4f564f54455f60608201527f524547495354524154494f4e5f574149545f4455524154494f4e20746f20726560808201526b33b4b9ba32b91030b3b0b4b760a11b60a082015260c00190565b6020808252602a908201527f5f446174614261746368496420636865636b696e6720766f7465206d757374206040820152691a185d9948195b99195960b21b606082015260800190565b6020808252603b908201527f436f756c64206e6f74207769746864726177566f74696e67526967687473207460408201527f68726f7567682050726f78795374616b654465616c6c6f636174650000000000606082015260800190565b60208082526024908201527f416464726573734d616e61676572206973206e756c6c20696e20506172616d656040820152637465727360e01b606082015260800190565b6020808252600f908201526e11185d18481b5d5cdd08195e1a5cdd608a1b604082015260600190565b6020808252602c908201527f557365722068617320616c72656164792072657665616c65642c20746875732060408201526b18d85b89dd081c995d99585b60a21b606082015260800190565b60006020825282516020830152602083015160408301526040830151606083015260608301516080830152608083015161bc5b60a084018261ab17565b5060a083015161bc6e60c084018261ab17565b5060c083015161bc8160e084018261ab17565b5060e0830151610100838101919091528301516101208084019190915283015161014080840191909152830151610160808401919091528301516101c061018080850182905261bcd56101e086018461ab1d565b908601516101a0868101919091528601519092506162b38286018261ab49565b93845260208401929092526040830152606082015260800190565b600060208252825160e0602084015261bd2d61010084018261ab1d565b905060018060a01b03602085015116604084015260408401516060840152606084015160808401526080840151601f19808584030160a086015261bd71838361ab1d565b925060a08601519150808584030160c08601525061bd8f828261ab1d565b91505060c084015161bda460e085018261ab49565b509392505050565b9182526001600160a01b0316602082015260400190565b9182526001600160a01b031660208201526000604082015260600190565b60008382526040602083015261674c604083018461aadd565b9283526020830191909152604082015260600190565b988952602089019790975260408801959095529215156060870152901515608086015260a085015260c084015260e08301526101008201526101200190565b60008f82528e60208301528d60408301528c60608301528b151560808301528a151560a083015261be8360c083018b61ab17565b8860e08301528761010083015286610120830152856101408301526101c061016083015261beb56101c083018661ab1d565b90508361018083015261becc6101a083018461ab49565b9f9e505050505050505050505050505050565b6000808335601e1984360301811261bef5578283fd5b8301803591506001600160401b0382111561bf0e578283fd5b6020019150368190038213156125a457600080fd5b6040518181016001600160401b038111828210171561bf445761bf4461c093565b604052919050565b60006001600160401b0382111561bf655761bf6561c093565b5060209081020190565b6000821982111561bf825761bf8261c067565b500190565b60008261bf965761bf9661c07d565b500490565b600081600019048311821515161561bfb55761bfb561c067565b500290565b60008282101561bfcc5761bfcc61c067565b500390565b60005b8381101561bfec57818101518382015260200161bfd4565b838111156128575750506000910152565b60028104600182168061c01157607f821691505b6020821081141561c03257634e487b7160e01b600052602260045260246000fd5b50919050565b600060001982141561c04c5761c04c61c067565b5060010190565b60008261c0625761c06261c07d565b500690565b634e487b7160e01b600052601160045260246000fd5b634e487b7160e01b600052601260045260246000fd5b634e487b7160e01b600052604160045260246000fd5b6001600160a01b0381168114611a3157600080fd5b8015158114611a3157600080fdfe4b87bbd93ba65ede1e2efeca735d9f7a6720bf7d6db0a8355b17dba5b64e5783a26469706673582212205cdd34f66f64adb2ddc8a42dd5a6d31bc46d406b801e2ae7c1d85f985449c40f64736f6c63430008000033",
  "linkReferences": {
    "contracts/worksystems/DataSpotting.sol": {
      "DLL": [
        {
          "length": 20,
          "start": 7205
        },
        {
          "length": 20,
          "start": 7377
        },
        {
          "length": 20,
          "start": 7973
        },
        {
          "length": 20,
          "start": 15264
        },
        {
          "length": 20,
          "start": 15426
        },
        {
          "length": 20,
          "start": 15621
        },
        {
          "length": 20,
          "start": 17784
        },
        {
          "length": 20,
          "start": 17964
        },
        {
          "length": 20,
          "start": 35261
        }
      ]
    }
  },
  "deployedLinkReferences": {
    "contracts/worksystems/DataSpotting.sol": {
      "DLL": [
        {
          "length": 20,
          "start": 6810
        },
        {
          "length": 20,
          "start": 6982
        },
        {
          "length": 20,
          "start": 7578
        },
        {
          "length": 20,
          "start": 14869
        },
        {
          "length": 20,
          "start": 15031
        },
        {
          "length": 20,
          "start": 15226
        },
        {
          "length": 20,
          "start": 17389
        },
        {
          "length": 20,
          "start": 17569
        },
        {
          "length": 20,
          "start": 34866
        }
      ]
    }
  }
}