{
  "_format": "hh-sol-artifact-1",
  "contractName": "DataSpotting",
  "sourceName": "contracts/worksystems/DataSpotting.sol",
  "abi": [
    {
      "inputs": [
        {
          "internalType": "address",
          "name": "EXDT_token_",
          "type": "address"
        }
      ],
      "stateMutability": "nonpayable",
      "type": "constructor"
    },
    {
      "anonymous": false,
      "inputs": [
        {
          "indexed": false,
          "internalType": "bytes",
          "name": "bytesFailure",
          "type": "bytes"
        }
      ],
      "name": "BytesFailure",
      "type": "event"
    },
    {
      "anonymous": false,
      "inputs": [
        {
          "indexed": true,
          "internalType": "address",
          "name": "previousOwner",
          "type": "address"
        },
        {
          "indexed": true,
          "internalType": "address",
          "name": "newOwner",
          "type": "address"
        }
      ],
      "name": "OwnershipTransferred",
      "type": "event"
    },
    {
      "anonymous": false,
      "inputs": [
        {
          "indexed": true,
          "internalType": "uint256",
          "name": "batchID",
          "type": "uint256"
        }
      ],
      "name": "_DataBatchDeleted",
      "type": "event"
    },
    {
      "anonymous": false,
      "inputs": [
        {
          "indexed": false,
          "internalType": "string",
          "name": "hash",
          "type": "string"
        },
        {
          "indexed": true,
          "internalType": "address",
          "name": "creator",
          "type": "address"
        }
      ],
      "name": "_SpotAccepted",
      "type": "event"
    },
    {
      "anonymous": false,
      "inputs": [
        {
          "indexed": true,
          "internalType": "uint256",
          "name": "DataID",
          "type": "uint256"
        },
        {
          "indexed": false,
          "internalType": "uint256",
          "name": "numTokens",
          "type": "uint256"
        },
        {
          "indexed": true,
          "internalType": "address",
          "name": "voter",
          "type": "address"
        }
      ],
      "name": "_SpotCheckCommitted",
      "type": "event"
    },
    {
      "anonymous": false,
      "inputs": [
        {
          "indexed": true,
          "internalType": "uint256",
          "name": "DataID",
          "type": "uint256"
        },
        {
          "indexed": false,
          "internalType": "uint256",
          "name": "numTokens",
          "type": "uint256"
        },
        {
          "indexed": false,
          "internalType": "uint256",
          "name": "votesFor",
          "type": "uint256"
        },
        {
          "indexed": false,
          "internalType": "uint256",
          "name": "votesAgainst",
          "type": "uint256"
        },
        {
          "indexed": true,
          "internalType": "uint256",
          "name": "choice",
          "type": "uint256"
        },
        {
          "indexed": true,
          "internalType": "address",
          "name": "voter",
          "type": "address"
        }
      ],
      "name": "_SpotCheckRevealed",
      "type": "event"
    },
    {
      "anonymous": false,
      "inputs": [
        {
          "indexed": true,
          "internalType": "uint256",
          "name": "DataID",
          "type": "uint256"
        },
        {
          "indexed": false,
          "internalType": "string",
          "name": "file_hash",
          "type": "string"
        },
        {
          "indexed": false,
          "internalType": "string",
          "name": "URL_domain",
          "type": "string"
        },
        {
          "indexed": true,
          "internalType": "address",
          "name": "sender",
          "type": "address"
        }
      ],
      "name": "_SpotSubmitted",
      "type": "event"
    },
    {
      "anonymous": false,
      "inputs": [
        {
          "indexed": false,
          "internalType": "uint256",
          "name": "numTokens",
          "type": "uint256"
        },
        {
          "indexed": true,
          "internalType": "address",
          "name": "voter",
          "type": "address"
        }
      ],
      "name": "_StakeAllocated",
      "type": "event"
    },
    {
      "anonymous": false,
      "inputs": [
        {
          "indexed": true,
          "internalType": "uint256",
          "name": "DataID",
          "type": "uint256"
        },
        {
          "indexed": true,
          "internalType": "address",
          "name": "voter",
          "type": "address"
        }
      ],
      "name": "_TokensRescued",
      "type": "event"
    },
    {
      "anonymous": false,
      "inputs": [
        {
          "indexed": false,
          "internalType": "uint256",
          "name": "numTokens",
          "type": "uint256"
        },
        {
          "indexed": true,
          "internalType": "address",
          "name": "voter",
          "type": "address"
        }
      ],
      "name": "_VotingRightsWithdrawn",
      "type": "event"
    },
    {
      "anonymous": false,
      "inputs": [
        {
          "indexed": true,
          "internalType": "uint256",
          "name": "batchID",
          "type": "uint256"
        },
        {
          "indexed": false,
          "internalType": "address",
          "name": "worker",
          "type": "address"
        }
      ],
      "name": "_WorkAllocated",
      "type": "event"
    },
    {
      "anonymous": false,
      "inputs": [
        {
          "indexed": true,
          "internalType": "address",
          "name": "worker",
          "type": "address"
        },
        {
          "indexed": false,
          "internalType": "uint256",
          "name": "timestamp",
          "type": "uint256"
        }
      ],
      "name": "_WorkerRegistered",
      "type": "event"
    },
    {
      "anonymous": false,
      "inputs": [
        {
          "indexed": true,
          "internalType": "address",
          "name": "worker",
          "type": "address"
        },
        {
          "indexed": false,
          "internalType": "uint256",
          "name": "timestamp",
          "type": "uint256"
        }
      ],
      "name": "_WorkerUnregistered",
      "type": "event"
    },
    {
      "inputs": [],
      "name": "AcceptedBatchsCounter",
      "outputs": [
        {
          "internalType": "uint256",
          "name": "",
          "type": "uint256"
        }
      ],
      "stateMutability": "view",
      "type": "function"
    },
    {
      "inputs": [],
      "name": "AllTxsCounter",
      "outputs": [
        {
          "internalType": "uint256",
          "name": "",
          "type": "uint256"
        }
      ],
      "stateMutability": "view",
      "type": "function"
    },
    {
      "inputs": [],
      "name": "AllocatedBatchCursor",
      "outputs": [
        {
          "internalType": "uint256",
          "name": "",
          "type": "uint256"
        }
      ],
      "stateMutability": "view",
      "type": "function"
    },
    {
      "inputs": [],
      "name": "AmIRegistered",
      "outputs": [
        {
          "internalType": "bool",
          "name": "passed",
          "type": "bool"
        }
      ],
      "stateMutability": "view",
      "type": "function"
    },
    {
      "inputs": [
        {
          "internalType": "string",
          "name": "_a",
          "type": "string"
        },
        {
          "internalType": "string",
          "name": "_b",
          "type": "string"
        }
      ],
      "name": "AreStringsEqual",
      "outputs": [
        {
          "internalType": "bool",
          "name": "",
          "type": "bool"
        }
      ],
      "stateMutability": "pure",
      "type": "function"
    },
    {
      "inputs": [],
      "name": "BatchCheckingCursor",
      "outputs": [
        {
          "internalType": "uint256",
          "name": "",
          "type": "uint256"
        }
      ],
      "stateMutability": "view",
      "type": "function"
    },
    {
      "inputs": [],
      "name": "BatchDeletionCursor",
      "outputs": [
        {
          "internalType": "uint256",
          "name": "",
          "type": "uint256"
        }
      ],
      "stateMutability": "view",
      "type": "function"
    },
    {
      "inputs": [
        {
          "internalType": "uint256",
          "name": "",
          "type": "uint256"
        }
      ],
      "name": "DataBatch",
      "outputs": [
        {
          "internalType": "uint256",
          "name": "start_idx",
          "type": "uint256"
        },
        {
          "internalType": "uint256",
          "name": "counter",
          "type": "uint256"
        },
        {
          "internalType": "uint256",
          "name": "uncommited_workers",
          "type": "uint256"
        },
        {
          "internalType": "uint256",
          "name": "unrevealed_workers",
          "type": "uint256"
        },
        {
          "internalType": "bool",
          "name": "complete",
          "type": "bool"
        },
        {
          "internalType": "bool",
          "name": "checked",
          "type": "bool"
        },
        {
          "internalType": "bool",
          "name": "allocated_to_work",
          "type": "bool"
        },
        {
          "internalType": "uint256",
          "name": "commitEndDate",
          "type": "uint256"
        },
        {
          "internalType": "uint256",
          "name": "revealEndDate",
          "type": "uint256"
        },
        {
          "internalType": "uint256",
          "name": "votesFor",
          "type": "uint256"
        },
        {
          "internalType": "uint256",
          "name": "votesAgainst",
          "type": "uint256"
        },
        {
          "internalType": "string",
          "name": "batchIPFSfile",
          "type": "string"
        },
        {
          "internalType": "uint256",
          "name": "item_count",
          "type": "uint256"
        },
        {
          "internalType": "enum DataSpotting.DataStatus",
          "name": "status",
          "type": "uint8"
        }
      ],
      "stateMutability": "view",
      "type": "function"
    },
    {
      "inputs": [
        {
          "internalType": "uint256",
          "name": "_DataBatchId",
          "type": "uint256"
        }
      ],
      "name": "DataCommitEndDate",
      "outputs": [
        {
          "internalType": "uint256",
          "name": "commitEndDate",
          "type": "uint256"
        }
      ],
      "stateMutability": "view",
      "type": "function"
    },
    {
      "inputs": [
        {
          "internalType": "uint256",
          "name": "_DataBatchId",
          "type": "uint256"
        }
      ],
      "name": "DataEnded",
      "outputs": [
        {
          "internalType": "bool",
          "name": "ended",
          "type": "bool"
        }
      ],
      "stateMutability": "view",
      "type": "function"
    },
    {
      "inputs": [
        {
          "internalType": "uint256",
          "name": "_DataBatchId",
          "type": "uint256"
        }
      ],
      "name": "DataExists",
      "outputs": [
        {
          "internalType": "bool",
          "name": "exists",
          "type": "bool"
        }
      ],
      "stateMutability": "view",
      "type": "function"
    },
    {
      "inputs": [],
      "name": "DataNonce",
      "outputs": [
        {
          "internalType": "uint256",
          "name": "",
          "type": "uint256"
        }
      ],
      "stateMutability": "view",
      "type": "function"
    },
    {
      "inputs": [
        {
          "internalType": "uint256",
          "name": "_DataBatchId",
          "type": "uint256"
        }
      ],
      "name": "DataRevealEndDate",
      "outputs": [
        {
          "internalType": "uint256",
          "name": "revealEndDate",
          "type": "uint256"
        }
      ],
      "stateMutability": "view",
      "type": "function"
    },
    {
      "inputs": [
        {
          "internalType": "address",
          "name": "user_",
          "type": "address"
        }
      ],
      "name": "GetCurrentWork",
      "outputs": [
        {
          "internalType": "uint256",
          "name": "",
          "type": "uint256"
        }
      ],
      "stateMutability": "view",
      "type": "function"
    },
    {
      "inputs": [
        {
          "internalType": "uint256",
          "name": "",
          "type": "uint256"
        }
      ],
      "name": "GlobalSpotFlowManager",
      "outputs": [
        {
          "internalType": "uint256",
          "name": "timestamp",
          "type": "uint256"
        },
        {
          "internalType": "uint256",
          "name": "counter",
          "type": "uint256"
        }
      ],
      "stateMutability": "view",
      "type": "function"
    },
    {
      "inputs": [
        {
          "internalType": "address",
          "name": "user_",
          "type": "address"
        }
      ],
      "name": "IsNewWorkAvailable",
      "outputs": [
        {
          "internalType": "bool",
          "name": "",
          "type": "bool"
        }
      ],
      "stateMutability": "view",
      "type": "function"
    },
    {
      "inputs": [],
      "name": "LastAllocationTime",
      "outputs": [
        {
          "internalType": "uint256",
          "name": "",
          "type": "uint256"
        }
      ],
      "stateMutability": "view",
      "type": "function"
    },
    {
      "inputs": [],
      "name": "LastBatchCounter",
      "outputs": [
        {
          "internalType": "uint256",
          "name": "",
          "type": "uint256"
        }
      ],
      "stateMutability": "view",
      "type": "function"
    },
    {
      "inputs": [],
      "name": "LastRandomSeed",
      "outputs": [
        {
          "internalType": "uint256",
          "name": "",
          "type": "uint256"
        }
      ],
      "stateMutability": "view",
      "type": "function"
    },
    {
      "inputs": [
        {
          "internalType": "address",
          "name": "",
          "type": "address"
        },
        {
          "internalType": "uint256",
          "name": "",
          "type": "uint256"
        }
      ],
      "name": "MasterWorkers",
      "outputs": [
        {
          "internalType": "address",
          "name": "",
          "type": "address"
        }
      ],
      "stateMutability": "view",
      "type": "function"
    },
    {
      "inputs": [],
      "name": "NotCommitedCounter",
      "outputs": [
        {
          "internalType": "uint256",
          "name": "",
          "type": "uint256"
        }
      ],
      "stateMutability": "view",
      "type": "function"
    },
    {
      "inputs": [],
      "name": "NotRevealedCounter",
      "outputs": [
        {
          "internalType": "uint256",
          "name": "",
          "type": "uint256"
        }
      ],
      "stateMutability": "view",
      "type": "function"
    },
    {
      "inputs": [],
      "name": "Parameters",
      "outputs": [
        {
          "internalType": "contract IParametersManager",
          "name": "",
          "type": "address"
        }
      ],
      "stateMutability": "view",
      "type": "function"
    },
    {
      "inputs": [],
      "name": "RegisterWorker",
      "outputs": [],
      "stateMutability": "nonpayable",
      "type": "function"
    },
    {
      "inputs": [],
      "name": "RejectedBatchsCounter",
      "outputs": [
        {
          "internalType": "uint256",
          "name": "",
          "type": "uint256"
        }
      ],
      "stateMutability": "view",
      "type": "function"
    },
    {
      "inputs": [],
      "name": "SPOT_TOGGLE_ENABLED",
      "outputs": [
        {
          "internalType": "bool",
          "name": "",
          "type": "bool"
        }
      ],
      "stateMutability": "view",
      "type": "function"
    },
    {
      "inputs": [
        {
          "internalType": "address",
          "name": "_worker",
          "type": "address"
        },
        {
          "internalType": "uint256",
          "name": "_TokensAmountToAllocate",
          "type": "uint256"
        }
      ],
      "name": "SelectAddressForUser",
      "outputs": [
        {
          "internalType": "address",
          "name": "",
          "type": "address"
        }
      ],
      "stateMutability": "view",
      "type": "function"
    },
    {
      "inputs": [
        {
          "internalType": "string[]",
          "name": "file_hashs",
          "type": "string[]"
        },
        {
          "internalType": "string[]",
          "name": "URL_domains",
          "type": "string[]"
        },
        {
          "internalType": "uint256",
          "name": "item_count_",
          "type": "uint256"
        },
        {
          "internalType": "string",
          "name": "extra_",
          "type": "string"
        }
      ],
      "name": "SpotData",
      "outputs": [
        {
          "internalType": "uint256",
          "name": "Dataid_",
          "type": "uint256"
        }
      ],
      "stateMutability": "nonpayable",
      "type": "function"
    },
    {
      "inputs": [
        {
          "internalType": "uint256",
          "name": "",
          "type": "uint256"
        }
      ],
      "name": "SpotsMapping",
      "outputs": [
        {
          "internalType": "string",
          "name": "ipfs_hash",
          "type": "string"
        },
        {
          "internalType": "address",
          "name": "author",
          "type": "address"
        },
        {
          "internalType": "uint256",
          "name": "timestamp",
          "type": "uint256"
        },
        {
          "internalType": "uint256",
          "name": "item_count",
          "type": "uint256"
        },
        {
          "internalType": "string",
          "name": "URL_domain",
          "type": "string"
        },
        {
          "internalType": "string",
          "name": "extra",
          "type": "string"
        },
        {
          "internalType": "enum DataSpotting.DataStatus",
          "name": "status",
          "type": "uint8"
        }
      ],
      "stateMutability": "view",
      "type": "function"
    },
    {
      "inputs": [
        {
          "internalType": "address",
          "name": "",
          "type": "address"
        }
      ],
      "name": "SystemStakedTokenBalance",
      "outputs": [
        {
          "internalType": "uint256",
          "name": "",
          "type": "uint256"
        }
      ],
      "stateMutability": "view",
      "type": "function"
    },
    {
      "inputs": [],
      "name": "TriggerUpdate",
      "outputs": [],
      "stateMutability": "nonpayable",
      "type": "function"
    },
    {
      "inputs": [],
      "name": "UnregisterWorker",
      "outputs": [],
      "stateMutability": "nonpayable",
      "type": "function"
    },
    {
      "inputs": [
        {
          "internalType": "uint256",
          "name": "",
          "type": "uint256"
        },
        {
          "internalType": "address",
          "name": "",
          "type": "address"
        }
      ],
      "name": "UserBatchCounts",
      "outputs": [
        {
          "internalType": "uint256",
          "name": "",
          "type": "uint256"
        }
      ],
      "stateMutability": "view",
      "type": "function"
    },
    {
      "inputs": [
        {
          "internalType": "uint256",
          "name": "",
          "type": "uint256"
        },
        {
          "internalType": "address",
          "name": "",
          "type": "address"
        }
      ],
      "name": "UserBatchFrom",
      "outputs": [
        {
          "internalType": "string",
          "name": "",
          "type": "string"
        }
      ],
      "stateMutability": "view",
      "type": "function"
    },
    {
      "inputs": [
        {
          "internalType": "address",
          "name": "",
          "type": "address"
        },
        {
          "internalType": "uint256",
          "name": "",
          "type": "uint256"
        }
      ],
      "name": "UserChecksCommits",
      "outputs": [
        {
          "internalType": "bool",
          "name": "",
          "type": "bool"
        }
      ],
      "stateMutability": "view",
      "type": "function"
    },
    {
      "inputs": [
        {
          "internalType": "address",
          "name": "",
          "type": "address"
        },
        {
          "internalType": "uint256",
          "name": "",
          "type": "uint256"
        }
      ],
      "name": "UserChecksReveals",
      "outputs": [
        {
          "internalType": "bool",
          "name": "",
          "type": "bool"
        }
      ],
      "stateMutability": "view",
      "type": "function"
    },
    {
      "inputs": [
        {
          "internalType": "uint256",
          "name": "",
          "type": "uint256"
        },
        {
          "internalType": "address",
          "name": "",
          "type": "address"
        }
      ],
      "name": "UserNewFiles",
      "outputs": [
        {
          "internalType": "string",
          "name": "",
          "type": "string"
        }
      ],
      "stateMutability": "view",
      "type": "function"
    },
    {
      "inputs": [
        {
          "internalType": "address",
          "name": "",
          "type": "address"
        },
        {
          "internalType": "uint256",
          "name": "",
          "type": "uint256"
        }
      ],
      "name": "UserSubmissions",
      "outputs": [
        {
          "internalType": "uint256",
          "name": "",
          "type": "uint256"
        }
      ],
      "stateMutability": "view",
      "type": "function"
    },
    {
      "inputs": [
        {
          "internalType": "uint256",
          "name": "",
          "type": "uint256"
        },
        {
          "internalType": "address",
          "name": "",
          "type": "address"
        }
      ],
      "name": "UserVotes",
      "outputs": [
        {
          "internalType": "uint256",
          "name": "",
          "type": "uint256"
        }
      ],
      "stateMutability": "view",
      "type": "function"
    },
    {
      "inputs": [
        {
          "internalType": "uint256",
          "name": "",
          "type": "uint256"
        },
        {
          "internalType": "uint256",
          "name": "",
          "type": "uint256"
        }
      ],
      "name": "WorkersPerBatch",
      "outputs": [
        {
          "internalType": "address",
          "name": "",
          "type": "address"
        }
      ],
      "stateMutability": "view",
      "type": "function"
    },
    {
      "inputs": [
        {
          "internalType": "address",
          "name": "",
          "type": "address"
        },
        {
          "internalType": "uint256",
          "name": "",
          "type": "uint256"
        }
      ],
      "name": "WorkersSpotFlowManager",
      "outputs": [
        {
          "internalType": "uint256",
          "name": "timestamp",
          "type": "uint256"
        },
        {
          "internalType": "uint256",
          "name": "counter",
          "type": "uint256"
        }
      ],
      "stateMutability": "view",
      "type": "function"
    },
    {
      "inputs": [
        {
          "internalType": "address",
          "name": "",
          "type": "address"
        }
      ],
      "name": "WorkersState",
      "outputs": [
        {
          "internalType": "address",
          "name": "worker_address",
          "type": "address"
        },
        {
          "internalType": "uint256",
          "name": "allocated_work_batch",
          "type": "uint256"
        },
        {
          "internalType": "bool",
          "name": "has_completed_work",
          "type": "bool"
        },
        {
          "internalType": "uint256",
          "name": "succeeding_novote_count",
          "type": "uint256"
        },
        {
          "internalType": "uint256",
          "name": "last_interaction_date",
          "type": "uint256"
        },
        {
          "internalType": "bool",
          "name": "registered",
          "type": "bool"
        },
        {
          "internalType": "bool",
          "name": "unregistration_request",
          "type": "bool"
        },
        {
          "internalType": "uint256",
          "name": "registration_date",
          "type": "uint256"
        },
        {
          "internalType": "uint256",
          "name": "allocated_batch_counter",
          "type": "uint256"
        },
        {
          "internalType": "uint256",
          "name": "majority_counter",
          "type": "uint256"
        },
        {
          "internalType": "uint256",
          "name": "minority_counter",
          "type": "uint256"
        }
      ],
      "stateMutability": "view",
      "type": "function"
    },
    {
      "inputs": [
        {
          "internalType": "address",
          "name": "_user",
          "type": "address"
        },
        {
          "internalType": "uint256",
          "name": "_DataBatchId",
          "type": "uint256"
        }
      ],
      "name": "attrUUID",
      "outputs": [
        {
          "internalType": "bytes32",
          "name": "UUID",
          "type": "bytes32"
        }
      ],
      "stateMutability": "pure",
      "type": "function"
    },
    {
      "inputs": [
        {
          "internalType": "uint256",
          "name": "",
          "type": "uint256"
        }
      ],
      "name": "availableWorkers",
      "outputs": [
        {
          "internalType": "address",
          "name": "",
          "type": "address"
        }
      ],
      "stateMutability": "view",
      "type": "function"
    },
    {
      "inputs": [
        {
          "internalType": "uint256",
          "name": "",
          "type": "uint256"
        }
      ],
      "name": "busyWorkers",
      "outputs": [
        {
          "internalType": "address",
          "name": "",
          "type": "address"
        }
      ],
      "stateMutability": "view",
      "type": "function"
    },
    {
      "inputs": [
        {
          "internalType": "uint256",
          "name": "_DataBatchId",
          "type": "uint256"
        }
      ],
      "name": "commitPeriodActive",
      "outputs": [
        {
          "internalType": "bool",
          "name": "active",
          "type": "bool"
        }
      ],
      "stateMutability": "view",
      "type": "function"
    },
    {
      "inputs": [
        {
          "internalType": "uint256",
          "name": "_DataBatchId",
          "type": "uint256"
        }
      ],
      "name": "commitPeriodOver",
      "outputs": [
        {
          "internalType": "bool",
          "name": "active",
          "type": "bool"
        }
      ],
      "stateMutability": "view",
      "type": "function"
    },
    {
      "inputs": [
        {
          "internalType": "uint256",
          "name": "_DataBatchId",
          "type": "uint256"
        },
        {
          "internalType": "bytes32",
          "name": "_encryptedHash",
          "type": "bytes32"
        },
        {
          "internalType": "bytes32",
          "name": "_encryptedVote",
          "type": "bytes32"
        },
        {
          "internalType": "uint256",
          "name": "_BatchCount",
          "type": "uint256"
        },
        {
          "internalType": "string",
          "name": "_From",
          "type": "string"
        }
      ],
      "name": "commitSpotCheck",
      "outputs": [],
      "stateMutability": "nonpayable",
      "type": "function"
    },
    {
      "inputs": [
        {
          "internalType": "uint256",
          "name": "_DataId",
          "type": "uint256"
        }
      ],
      "name": "deleteData",
      "outputs": [],
      "stateMutability": "nonpayable",
      "type": "function"
    },
    {
      "inputs": [
        {
          "internalType": "uint256",
          "name": "_BatchId",
          "type": "uint256"
        }
      ],
      "name": "deleteDataBatch",
      "outputs": [],
      "stateMutability": "nonpayable",
      "type": "function"
    },
    {
      "inputs": [],
      "name": "destroyContract",
      "outputs": [],
      "stateMutability": "nonpayable",
      "type": "function"
    },
    {
      "inputs": [
        {
          "internalType": "address",
          "name": "_voter",
          "type": "address"
        },
        {
          "internalType": "uint256",
          "name": "_DataBatchId",
          "type": "uint256"
        }
      ],
      "name": "didCommit",
      "outputs": [
        {
          "internalType": "bool",
          "name": "committed",
          "type": "bool"
        }
      ],
      "stateMutability": "view",
      "type": "function"
    },
    {
      "inputs": [
        {
          "internalType": "address",
          "name": "_voter",
          "type": "address"
        },
        {
          "internalType": "uint256",
          "name": "_DataBatchId",
          "type": "uint256"
        }
      ],
      "name": "didReveal",
      "outputs": [
        {
          "internalType": "bool",
          "name": "revealed",
          "type": "bool"
        }
      ],
      "stateMutability": "view",
      "type": "function"
    },
    {
      "inputs": [
        {
          "internalType": "uint256",
          "name": "_k",
          "type": "uint256"
        },
        {
          "internalType": "uint256",
          "name": "N_range",
          "type": "uint256"
        }
      ],
      "name": "generateIntegers",
      "outputs": [
        {
          "internalType": "uint256[]",
          "name": "",
          "type": "uint256[]"
        }
      ],
      "stateMutability": "view",
      "type": "function"
    },
    {
      "inputs": [],
      "name": "getAcceptedBatchesCount",
      "outputs": [
        {
          "internalType": "uint256",
          "name": "count",
          "type": "uint256"
        }
      ],
      "stateMutability": "view",
      "type": "function"
    },
    {
      "inputs": [],
      "name": "getActiveWorkersCount",
      "outputs": [
        {
          "internalType": "uint256",
          "name": "numWorkers",
          "type": "uint256"
        }
      ],
      "stateMutability": "view",
      "type": "function"
    },
    {
      "inputs": [],
      "name": "getAvailableWorkersCount",
      "outputs": [
        {
          "internalType": "uint256",
          "name": "numWorkers",
          "type": "uint256"
        }
      ],
      "stateMutability": "view",
      "type": "function"
    },
    {
      "inputs": [
        {
          "internalType": "uint256",
          "name": "_DataBatchId",
          "type": "uint256"
        }
      ],
      "name": "getBatchByID",
      "outputs": [
        {
          "components": [
            {
              "internalType": "uint256",
              "name": "start_idx",
              "type": "uint256"
            },
            {
              "internalType": "uint256",
              "name": "counter",
              "type": "uint256"
            },
            {
              "internalType": "uint256",
              "name": "uncommited_workers",
              "type": "uint256"
            },
            {
              "internalType": "uint256",
              "name": "unrevealed_workers",
              "type": "uint256"
            },
            {
              "internalType": "bool",
              "name": "complete",
              "type": "bool"
            },
            {
              "internalType": "bool",
              "name": "checked",
              "type": "bool"
            },
            {
              "internalType": "bool",
              "name": "allocated_to_work",
              "type": "bool"
            },
            {
              "internalType": "uint256",
              "name": "commitEndDate",
              "type": "uint256"
            },
            {
              "internalType": "uint256",
              "name": "revealEndDate",
              "type": "uint256"
            },
            {
              "internalType": "uint256",
              "name": "votesFor",
              "type": "uint256"
            },
            {
              "internalType": "uint256",
              "name": "votesAgainst",
              "type": "uint256"
            },
            {
              "internalType": "string",
              "name": "batchIPFSfile",
              "type": "string"
            },
            {
              "internalType": "uint256",
              "name": "item_count",
              "type": "uint256"
            },
            {
              "internalType": "enum DataSpotting.DataStatus",
              "name": "status",
              "type": "uint8"
            }
          ],
          "internalType": "struct DataSpotting.BatchMetadata",
          "name": "batch",
          "type": "tuple"
        }
      ],
      "stateMutability": "view",
      "type": "function"
    },
    {
      "inputs": [
        {
          "internalType": "uint256",
          "name": "_DataBatchId",
          "type": "uint256"
        }
      ],
      "name": "getBatchIPFSFileByID",
      "outputs": [
        {
          "internalType": "string",
          "name": "batch",
          "type": "string"
        }
      ],
      "stateMutability": "view",
      "type": "function"
    },
    {
      "inputs": [],
      "name": "getBusyWorkersCount",
      "outputs": [
        {
          "internalType": "uint256",
          "name": "numWorkers",
          "type": "uint256"
        }
      ],
      "stateMutability": "view",
      "type": "function"
    },
    {
      "inputs": [
        {
          "internalType": "address",
          "name": "_voter",
          "type": "address"
        },
        {
          "internalType": "uint256",
          "name": "_DataBatchId",
          "type": "uint256"
        }
      ],
      "name": "getCommitIPFSHash",
      "outputs": [
        {
          "internalType": "bytes32",
          "name": "commitHash",
          "type": "bytes32"
        }
      ],
      "stateMutability": "view",
      "type": "function"
    },
    {
      "inputs": [
        {
          "internalType": "address",
          "name": "_voter",
          "type": "address"
        },
        {
          "internalType": "uint256",
          "name": "_DataBatchId",
          "type": "uint256"
        }
      ],
      "name": "getCommitVoteHash",
      "outputs": [
        {
          "internalType": "bytes32",
          "name": "commitHash",
          "type": "bytes32"
        }
      ],
      "stateMutability": "view",
      "type": "function"
    },
    {
      "inputs": [
        {
          "internalType": "uint256",
          "name": "_DataId",
          "type": "uint256"
        }
      ],
      "name": "getDataByID",
      "outputs": [
        {
          "components": [
            {
              "internalType": "string",
              "name": "ipfs_hash",
              "type": "string"
            },
            {
              "internalType": "address",
              "name": "author",
              "type": "address"
            },
            {
              "internalType": "uint256",
              "name": "timestamp",
              "type": "uint256"
            },
            {
              "internalType": "uint256",
              "name": "item_count",
              "type": "uint256"
            },
            {
              "internalType": "string",
              "name": "URL_domain",
              "type": "string"
            },
            {
              "internalType": "string",
              "name": "extra",
              "type": "string"
            },
            {
              "internalType": "enum DataSpotting.DataStatus",
              "name": "status",
              "type": "uint8"
            }
          ],
          "internalType": "struct DataSpotting.SpottedData",
          "name": "data",
          "type": "tuple"
        }
      ],
      "stateMutability": "view",
      "type": "function"
    },
    {
      "inputs": [
        {
          "internalType": "uint256",
          "name": "_DataBatchId",
          "type": "uint256"
        }
      ],
      "name": "getDomainsForBatch",
      "outputs": [
        {
          "internalType": "string[]",
          "name": "",
          "type": "string[]"
        }
      ],
      "stateMutability": "view",
      "type": "function"
    },
    {
      "inputs": [
        {
          "internalType": "uint256",
          "name": "_clearVote",
          "type": "uint256"
        },
        {
          "internalType": "uint256",
          "name": "_salt",
          "type": "uint256"
        }
      ],
      "name": "getEncryptedHash",
      "outputs": [
        {
          "internalType": "bytes32",
          "name": "keccak256hash",
          "type": "bytes32"
        }
      ],
      "stateMutability": "pure",
      "type": "function"
    },
    {
      "inputs": [
        {
          "internalType": "string",
          "name": "_hash",
          "type": "string"
        },
        {
          "internalType": "uint256",
          "name": "_salt",
          "type": "uint256"
        }
      ],
      "name": "getEncryptedStringHash",
      "outputs": [
        {
          "internalType": "bytes32",
          "name": "keccak256hash",
          "type": "bytes32"
        }
      ],
      "stateMutability": "pure",
      "type": "function"
    },
    {
      "inputs": [
        {
          "internalType": "uint256",
          "name": "_DataBatchId",
          "type": "uint256"
        }
      ],
      "name": "getFromsForBatch",
      "outputs": [
        {
          "internalType": "string[]",
          "name": "",
          "type": "string[]"
        }
      ],
      "stateMutability": "view",
      "type": "function"
    },
    {
      "inputs": [],
      "name": "getGlobalPeriodSpotCount",
      "outputs": [
        {
          "internalType": "uint256",
          "name": "",
          "type": "uint256"
        }
      ],
      "stateMutability": "view",
      "type": "function"
    },
    {
      "inputs": [
        {
          "internalType": "uint256",
          "name": "_DataBatchId",
          "type": "uint256"
        }
      ],
      "name": "getIPFShashesForBatch",
      "outputs": [
        {
          "internalType": "string[]",
          "name": "",
          "type": "string[]"
        }
      ],
      "stateMutability": "view",
      "type": "function"
    },
    {
      "inputs": [
        {
          "internalType": "address",
          "name": "_voter",
          "type": "address"
        },
        {
          "internalType": "uint256",
          "name": "_numTokens",
          "type": "uint256"
        },
        {
          "internalType": "uint256",
          "name": "_DataBatchId",
          "type": "uint256"
        }
      ],
      "name": "getInsertPointForNumTokens",
      "outputs": [
        {
          "internalType": "uint256",
          "name": "prevNode",
          "type": "uint256"
        }
      ],
      "stateMutability": "view",
      "type": "function"
    },
    {
      "inputs": [],
      "name": "getLastAllocatedBatchId",
      "outputs": [
        {
          "internalType": "uint256",
          "name": "LastAllocatedBatchId",
          "type": "uint256"
        }
      ],
      "stateMutability": "view",
      "type": "function"
    },
    {
      "inputs": [],
      "name": "getLastBatchId",
      "outputs": [
        {
          "internalType": "uint256",
          "name": "LastBatchId",
          "type": "uint256"
        }
      ],
      "stateMutability": "view",
      "type": "function"
    },
    {
      "inputs": [],
      "name": "getLastCheckedBatchId",
      "outputs": [
        {
          "internalType": "uint256",
          "name": "LastCheckedBatchId",
          "type": "uint256"
        }
      ],
      "stateMutability": "view",
      "type": "function"
    },
    {
      "inputs": [],
      "name": "getLastDataId",
      "outputs": [
        {
          "internalType": "uint256",
          "name": "DataId",
          "type": "uint256"
        }
      ],
      "stateMutability": "view",
      "type": "function"
    },
    {
      "inputs": [
        {
          "internalType": "address",
          "name": "_voter",
          "type": "address"
        }
      ],
      "name": "getLastNode",
      "outputs": [
        {
          "internalType": "uint256",
          "name": "DataID",
          "type": "uint256"
        }
      ],
      "stateMutability": "view",
      "type": "function"
    },
    {
      "inputs": [
        {
          "internalType": "address",
          "name": "_voter",
          "type": "address"
        }
      ],
      "name": "getLockedTokens",
      "outputs": [
        {
          "internalType": "uint256",
          "name": "numTokens",
          "type": "uint256"
        }
      ],
      "stateMutability": "view",
      "type": "function"
    },
    {
      "inputs": [
        {
          "internalType": "uint256",
          "name": "_DataBatchId_a",
          "type": "uint256"
        },
        {
          "internalType": "uint256",
          "name": "_DataBatchId_b",
          "type": "uint256"
        }
      ],
      "name": "getMultiBatchIPFShashes",
      "outputs": [
        {
          "internalType": "string[]",
          "name": "",
          "type": "string[]"
        }
      ],
      "stateMutability": "view",
      "type": "function"
    },
    {
      "inputs": [
        {
          "internalType": "address",
          "name": "_voter",
          "type": "address"
        },
        {
          "internalType": "uint256",
          "name": "_DataBatchId",
          "type": "uint256"
        },
        {
          "internalType": "uint256",
          "name": "_salt",
          "type": "uint256"
        }
      ],
      "name": "getNumPassingTokens",
      "outputs": [
        {
          "internalType": "uint256",
          "name": "correctSpotChecks",
          "type": "uint256"
        }
      ],
      "stateMutability": "view",
      "type": "function"
    },
    {
      "inputs": [
        {
          "internalType": "address",
          "name": "_voter",
          "type": "address"
        },
        {
          "internalType": "uint256",
          "name": "_DataBatchId",
          "type": "uint256"
        }
      ],
      "name": "getNumTokens",
      "outputs": [
        {
          "internalType": "uint256",
          "name": "numTokens",
          "type": "uint256"
        }
      ],
      "stateMutability": "view",
      "type": "function"
    },
    {
      "inputs": [],
      "name": "getRandom",
      "outputs": [
        {
          "internalType": "uint256",
          "name": "",
          "type": "uint256"
        }
      ],
      "stateMutability": "view",
      "type": "function"
    },
    {
      "inputs": [],
      "name": "getRejectedBatchesCount",
      "outputs": [
        {
          "internalType": "uint256",
          "name": "count",
          "type": "uint256"
        }
      ],
      "stateMutability": "view",
      "type": "function"
    },
    {
      "inputs": [],
      "name": "getSeed",
      "outputs": [
        {
          "internalType": "bytes32",
          "name": "addr",
          "type": "bytes32"
        }
      ],
      "stateMutability": "view",
      "type": "function"
    },
    {
      "inputs": [
        {
          "internalType": "uint256",
          "name": "_DataBatchId",
          "type": "uint256"
        }
      ],
      "name": "getSubmittedFilesForBatch",
      "outputs": [
        {
          "internalType": "string[]",
          "name": "",
          "type": "string[]"
        }
      ],
      "stateMutability": "view",
      "type": "function"
    },
    {
      "inputs": [
        {
          "internalType": "address",
          "name": "_user",
          "type": "address"
        }
      ],
      "name": "getSystemTokenBalance",
      "outputs": [
        {
          "internalType": "uint256",
          "name": "tokens",
          "type": "uint256"
        }
      ],
      "stateMutability": "view",
      "type": "function"
    },
    {
      "inputs": [],
      "name": "getTxCounter",
      "outputs": [
        {
          "internalType": "uint256",
          "name": "Counter",
          "type": "uint256"
        }
      ],
      "stateMutability": "view",
      "type": "function"
    },
    {
      "inputs": [
        {
          "internalType": "address",
          "name": "user",
          "type": "address"
        }
      ],
      "name": "getUserDatas",
      "outputs": [
        {
          "internalType": "uint256[]",
          "name": "user_Datas",
          "type": "uint256[]"
        }
      ],
      "stateMutability": "view",
      "type": "function"
    },
    {
      "inputs": [
        {
          "internalType": "address",
          "name": "user_",
          "type": "address"
        }
      ],
      "name": "getUserPeriodSpotCount",
      "outputs": [
        {
          "internalType": "uint256",
          "name": "",
          "type": "uint256"
        }
      ],
      "stateMutability": "view",
      "type": "function"
    },
    {
      "inputs": [
        {
          "internalType": "uint256",
          "name": "_DataBatchId",
          "type": "uint256"
        }
      ],
      "name": "getVotesForBatch",
      "outputs": [
        {
          "internalType": "uint256[]",
          "name": "",
          "type": "uint256[]"
        }
      ],
      "stateMutability": "view",
      "type": "function"
    },
    {
      "inputs": [
        {
          "internalType": "uint256",
          "name": "_terminationDate",
          "type": "uint256"
        }
      ],
      "name": "isExpired",
      "outputs": [
        {
          "internalType": "bool",
          "name": "expired",
          "type": "bool"
        }
      ],
      "stateMutability": "view",
      "type": "function"
    },
    {
      "inputs": [
        {
          "internalType": "uint256",
          "name": "_DataBatchId",
          "type": "uint256"
        }
      ],
      "name": "isPassed",
      "outputs": [
        {
          "internalType": "bool",
          "name": "passed",
          "type": "bool"
        }
      ],
      "stateMutability": "view",
      "type": "function"
    },
    {
      "inputs": [
        {
          "internalType": "uint256",
          "name": "_DataBatchId",
          "type": "uint256"
        },
        {
          "internalType": "address",
          "name": "_worker",
          "type": "address"
        }
      ],
      "name": "isWorkerAllocatedToBatch",
      "outputs": [
        {
          "internalType": "bool",
          "name": "",
          "type": "bool"
        }
      ],
      "stateMutability": "view",
      "type": "function"
    },
    {
      "inputs": [
        {
          "internalType": "address",
          "name": "_worker",
          "type": "address"
        }
      ],
      "name": "isWorkerRegistered",
      "outputs": [
        {
          "internalType": "bool",
          "name": "passed",
          "type": "bool"
        }
      ],
      "stateMutability": "view",
      "type": "function"
    },
    {
      "inputs": [],
      "name": "owner",
      "outputs": [
        {
          "internalType": "address",
          "name": "",
          "type": "address"
        }
      ],
      "stateMutability": "view",
      "type": "function"
    },
    {
      "inputs": [
        {
          "internalType": "uint256",
          "name": "k",
          "type": "uint256"
        },
        {
          "internalType": "uint256",
          "name": "N",
          "type": "uint256"
        }
      ],
      "name": "random_selection",
      "outputs": [
        {
          "internalType": "uint256[]",
          "name": "",
          "type": "uint256[]"
        }
      ],
      "stateMutability": "view",
      "type": "function"
    },
    {
      "inputs": [
        {
          "internalType": "uint256",
          "name": "_DataBatchId",
          "type": "uint256"
        }
      ],
      "name": "remainingCommitDuration",
      "outputs": [
        {
          "internalType": "uint256",
          "name": "remainingTime",
          "type": "uint256"
        }
      ],
      "stateMutability": "view",
      "type": "function"
    },
    {
      "inputs": [
        {
          "internalType": "uint256",
          "name": "_DataBatchId",
          "type": "uint256"
        }
      ],
      "name": "remainingRevealDuration",
      "outputs": [
        {
          "internalType": "uint256",
          "name": "remainingTime",
          "type": "uint256"
        }
      ],
      "stateMutability": "view",
      "type": "function"
    },
    {
      "inputs": [],
      "name": "renounceOwnership",
      "outputs": [],
      "stateMutability": "nonpayable",
      "type": "function"
    },
    {
      "inputs": [
        {
          "internalType": "uint256",
          "name": "_DataBatchId",
          "type": "uint256"
        }
      ],
      "name": "rescueTokens",
      "outputs": [],
      "stateMutability": "nonpayable",
      "type": "function"
    },
    {
      "inputs": [
        {
          "internalType": "uint256[]",
          "name": "_DataBatchIDs",
          "type": "uint256[]"
        }
      ],
      "name": "rescueTokensInMultipleDatas",
      "outputs": [],
      "stateMutability": "nonpayable",
      "type": "function"
    },
    {
      "inputs": [
        {
          "internalType": "uint256",
          "name": "_DataBatchId",
          "type": "uint256"
        }
      ],
      "name": "revealPeriodActive",
      "outputs": [
        {
          "internalType": "bool",
          "name": "active",
          "type": "bool"
        }
      ],
      "stateMutability": "view",
      "type": "function"
    },
    {
      "inputs": [
        {
          "internalType": "uint256",
          "name": "_DataBatchId",
          "type": "uint256"
        }
      ],
      "name": "revealPeriodOver",
      "outputs": [
        {
          "internalType": "bool",
          "name": "active",
          "type": "bool"
        }
      ],
      "stateMutability": "view",
      "type": "function"
    },
    {
      "inputs": [
        {
          "internalType": "uint256",
          "name": "_DataBatchId",
          "type": "uint256"
        },
        {
          "internalType": "string",
          "name": "_clearIPFSHash",
          "type": "string"
        },
        {
          "internalType": "uint256",
          "name": "_clearVote",
          "type": "uint256"
        },
        {
          "internalType": "uint256",
          "name": "_salt",
          "type": "uint256"
        }
      ],
      "name": "revealSpotCheck",
      "outputs": [],
      "stateMutability": "nonpayable",
      "type": "function"
    },
    {
      "inputs": [
        {
          "internalType": "uint256",
          "name": "N",
          "type": "uint256"
        }
      ],
      "name": "shuffle_array",
      "outputs": [
        {
          "internalType": "uint256[]",
          "name": "",
          "type": "uint256[]"
        }
      ],
      "stateMutability": "view",
      "type": "function"
    },
    {
      "inputs": [
        {
          "internalType": "uint256",
          "name": "",
          "type": "uint256"
        }
      ],
      "name": "toUnregisterWorkers",
      "outputs": [
        {
          "internalType": "address",
          "name": "",
          "type": "address"
        }
      ],
      "stateMutability": "view",
      "type": "function"
    },
    {
      "inputs": [],
      "name": "token",
      "outputs": [
        {
          "internalType": "contract IERC20",
          "name": "",
          "type": "address"
        }
      ],
      "stateMutability": "view",
      "type": "function"
    },
    {
      "inputs": [
        {
          "internalType": "address",
          "name": "newOwner",
          "type": "address"
        }
      ],
      "name": "transferOwnership",
      "outputs": [],
      "stateMutability": "nonpayable",
      "type": "function"
    },
    {
      "inputs": [
        {
          "internalType": "uint256",
          "name": "AllocatedBatchCursor_",
          "type": "uint256"
        }
      ],
      "name": "updateAllocatedBatchCursor",
      "outputs": [],
      "stateMutability": "nonpayable",
      "type": "function"
    },
    {
      "inputs": [
        {
          "internalType": "uint256",
          "name": "BatchCheckingCursor_",
          "type": "uint256"
        }
      ],
      "name": "updateBatchCheckingCursor",
      "outputs": [],
      "stateMutability": "nonpayable",
      "type": "function"
    },
    {
      "inputs": [],
      "name": "updateGlobalSpotFlow",
      "outputs": [],
      "stateMutability": "nonpayable",
      "type": "function"
    },
    {
      "inputs": [
        {
          "internalType": "address",
          "name": "addr",
          "type": "address"
        }
      ],
      "name": "updateParametersManager",
      "outputs": [],
      "stateMutability": "nonpayable",
      "type": "function"
    },
    {
      "inputs": [
        {
          "internalType": "address",
          "name": "user_",
          "type": "address"
        }
      ],
      "name": "updateUserSpotFlow",
      "outputs": [],
      "stateMutability": "nonpayable",
      "type": "function"
    },
    {
      "inputs": [
        {
          "internalType": "uint256",
          "name": "_prevID",
          "type": "uint256"
        },
        {
          "internalType": "uint256",
          "name": "_nextID",
          "type": "uint256"
        },
        {
          "internalType": "address",
          "name": "_voter",
          "type": "address"
        },
        {
          "internalType": "uint256",
          "name": "_numTokens",
          "type": "uint256"
        }
      ],
      "name": "validPosition",
      "outputs": [
        {
          "internalType": "bool",
          "name": "APPROVED",
          "type": "bool"
        }
      ],
      "stateMutability": "view",
      "type": "function"
    },
    {
      "inputs": [
        {
          "internalType": "uint256",
          "name": "_numTokens",
          "type": "uint256"
        }
      ],
      "name": "withdrawVotingRights",
      "outputs": [],
      "stateMutability": "nonpayable",
      "type": "function"
    }
  ],
  "bytecode": "0x608060405260006001818155601d829055601e829055601f8190556020819055602181905560225560238190556024819055602581905560268190556027556029805460ff60a01b1916600160a01b1790553480156200005e57600080fd5b506040516200b8ef3803806200b8ef833981016040819052620000819162000123565b620000956200008f620000cf565b620000d3565b6001600160a01b038116620000a957600080fd5b602880546001600160a01b0319166001600160a01b039290921691909117905562000153565b3390565b600080546001600160a01b038381166001600160a01b0319831681178455604051919092169283917f8be0079c531659141344cd1fd0a4f28419497f9722a3daafe3b4186f6b6457e09190a35050565b60006020828403121562000135578081fd5b81516001600160a01b03811681146200014c578182fd5b9392505050565b61b78c80620001636000396000f3fe608060405234801561001057600080fd5b50600436106106eb5760003560e01c806388d072eb11610392578063d186981d116101e9578063eb1322ff1161011a578063f716596d116100b8578063fc0c546a11610087578063fc0c546a14610e56578063fca4956314610e5e578063fd41488114610e71578063ff43de9d14610e84576106eb565b8063f716596d14610e2b578063f721de4a14610e33578063f80a23fd14610e46578063f96305f014610e4e576106eb565b8063f2d9e74d116100f4578063f2d9e74d14610df5578063f2fde38b14610dfd578063f4cdfcc414610e10578063f5ae7c7d14610e23576106eb565b8063eb1322ff14610dd2578063ed8becfa14610dda578063ef4fcdad14610ded576106eb565b8063d9548e5311610187578063e44c974b11610161578063e44c974b14610d86578063e604c12714610d99578063e798a7da14610dac578063e7b1d43c14610dbf576106eb565b8063d9548e5314610d4b578063d9845fb814610d5e578063da14563a14610d7e576106eb565b8063d6b0206c116101c3578063d6b0206c14610d0a578063d817587e14610d12578063d822ce0114610d25578063d8b7567414610d38576106eb565b8063d186981d14610cdc578063d420ec0b14610cef578063d58f575c14610d02576106eb565b8063a98eb31e116102c3578063b1d7ea9811610261578063bc3002e61161023b578063bc3002e614610c9b578063c4e4f82a14610cae578063d0d41def14610cc1578063d138209214610cc9576106eb565b8063b1d7ea9814610c62578063b43bd06914610c75578063b8f011b314610c88576106eb565b8063b0bc471e1161029d578063b0bc471e14610c16578063b10aa58414610c29578063b1a2e0be14610c3c578063b1cf4a7e14610c4f576106eb565b8063a98eb31e14610be8578063aa7ca46414610bfb578063aacc5a1714610c0e576106eb565b80639fc9c52f11610330578063a350715a1161030a578063a350715a14610bb2578063a4439dc514610bba578063a511dba014610bcd578063a905779014610bd5576106eb565b80639fc9c52f14610b84578063a1103f3714610b97578063a1b6b5b714610baa576106eb565b80638df0296e1161036c5780638df0296e14610b435780639760356014610b565780639769d84614610b695780639d6e3f9614610b71576106eb565b806388d072eb14610afe5780638c89d02714610b115780638da5cb5b14610b3b576106eb565b8063576a554311610546578063763a39f211610477578063815ce7471161041557806383e5a8f6116103ef57806383e5a8f614610ac85780638473850b14610adb5780638480a22114610ae35780638746ff8a14610aeb576106eb565b8063815ce74714610a9a578063819b029314610aa2578063821aa8c014610ab5576106eb565b80637ad3be11116104515780637ad3be1114610a3f5780637f9510a214610a525780637f97e83614610a5a5780637fabe35b14610a6d576106eb565b8063763a39f214610a1157806377124dec14610a195780637860dd4114610a2c576106eb565b80636371d81f116104e45780637018e9c6116104be5780637018e9c6146109d05780637074222b146109e3578063715018a6146109f657806371880b1b146109fe576106eb565b80636371d81f1461099757806363b563a8146109aa5780636b2d95d4146109bd576106eb565b80635b113a55116105205780635b113a55146109565780635dc44cf1146109695780635df6055d1461097c578063607d5efa1461098f576106eb565b8063576a554314610910578063579db71c146109235780635a45294314610936576106eb565b806331e2f28511610620578063441c77c0116105be578063494031831161059857806349403183146108da5780634fe8b4c1146108ed578063515535e81461090057806353bf27f114610908576106eb565b8063441c77c0146108b757806347fe2d20146108ca5780634852e2f0146108d2576106eb565b806339e7357c116105fa57806339e7357c146108685780633c062cc814610870578063413b90f714610891578063427fa1d2146108a4576106eb565b806331e2f2851461082d5780633538af821461084057806336fc43fc14610860576106eb565b8063154fd39b1161068d578063275c259011610667578063275c2590146107df5780632c052031146107e75780632d917c68146107fa5780632f469fd11461080d576106eb565b8063154fd39b1461079757806319d903461461079f578063226ed300146107bf576106eb565b8063092a5cce116106c9578063092a5cce1461074e5780630b96c5b0146107565780630e6661a71461077c578063100372f514610784576106eb565b806301a48b98146106f057806301aa5f73146107195780630595762314610739575b600080fd5b6107036106fe366004619e2f565b610e8c565b604051610710919061a179565b60405180910390f35b61072c610727366004619e2f565b611029565b604051610710919061a077565b61074c610747366004619b60565b611086565b005b61074c6110e7565b610769610764366004619e2f565b611139565b604051610710979695949392919061a1cf565b61072c61131d565b61074c610792366004619e2f565b611323565b61072c611367565b6107b26107ad366004619e2f565b61136d565b604051610710919061a119565b6107d26107cd366004619e2f565b611688565b604051610710919061a1b1565b61074c6116ca565b61072c6107f5366004619bc3565b611826565b6107d2610808366004619b98565b6119c3565b61082061081b366004619e58565b6119e3565b604051610710919061a1bc565b61072c61083b366004619b60565b611a88565b61085361084e366004619e2f565b611a9a565b604051610710919061a0aa565b6107d2611ac4565b61072c611ad4565b61088361087e366004619e2f565b611af1565b60405161071092919061a09c565b61088361089f366004619b98565b611b13565b61072c6108b2366004619b60565b611b43565b6107d26108c5366004619e2f565b611be3565b61072c611c3d565b61072c611c43565b6107d26108e8366004619e2f565b611c49565b61074c6108fb366004619e2f565b611e95565b61072c611f3a565b61072c611f40565b61074c61091e366004619b60565b611f46565b610703610931366004619b60565b61210d565b610949610944366004619e2f565b612179565b604051610710919061b3d4565b61072c610964366004619e58565b6123ce565b61072c610977366004619b98565b6123eb565b6107b261098a366004619e2f565b61241c565b61074c612639565b61074c6109a5366004619e2f565b6127f2565b6107d26109b8366004619e2f565b6128a5565b61072c6109cb366004619b60565b6128f8565b6107d26109de366004619e2f565b612907565b61072c6109f1366004619b60565b612948565b61074c612963565b61072c610a0c366004619e2f565b6129ae565b61072c6129eb565b61074c610a27366004619e2f565b6129f1565b61072c610a3a366004619e2f565b612a35565b61072c610a4d366004619b98565b612a89565b61072c612b1e565b6107d2610a68366004619b98565b612b35565b610a80610a7b366004619e2f565b612b88565b6040516107109e9d9c9b9a9998979695949392919061b4bb565b61072c612c88565b6107d2610ab0366004619f50565b612ce4565b610853610ac3366004619e2f565b612d25565b61074c610ad6366004619e87565b612d35565b61072c613392565b61072c613398565b610853610af9366004619b98565b61339e565b610820610b0c366004619e58565b6137fa565b610b24610b1f366004619b60565b61381e565b6040516107109b9a9998979695949392919061a0be565b610853613886565b610853610b51366004619f2f565b613895565b61074c610b64366004619e2f565b6138cd565b61072c613a7c565b61072c610b7f366004619b60565b613a82565b61074c610b92366004619cde565b613aed565b61072c610ba5366004619b98565b613b3b565b61072c613b6e565b61072c613b74565b6107d2610bc8366004619e2f565b613b7a565b61072c613bdc565b6107d2610be3366004619d8d565b613be2565b61074c610bf6366004619edb565b613c48565b6107d2610c09366004619b98565b613fe5565b61072c614038565b61072c610c24366004619b98565b6140ed565b610853610c37366004619e2f565b614132565b6107d2610c4a366004619b60565b614142565b61072c610c5d366004619f2f565b61423c565b610703610c70366004619f2f565b614251565b61072c610c83366004619bc3565b61446b565b610703610c96366004619f2f565b614557565b61072c610ca9366004619bf7565b6146bf565b61072c610cbc366004619e2f565b6151f5565b61072c615232565b61072c610cd7366004619b98565b615238565b6107d2610cea366004619e58565b61527d565b6107d2610cfd366004619b98565b615358565b61072c615378565b61072c61537e565b6107b2610d20366004619e2f565b615384565b610853610d33366004619b98565b6155a1565b61072c610d46366004619e58565b6155bd565b6107d2610d59366004619e2f565b6155da565b610d71610d6c366004619e2f565b6155df565b604051610710919061b21e565b61074c615763565b610703610d94366004619e2f565b615a64565b610820610da7366004619e2f565b615af0565b6107d2610dba366004619b60565b615b9b565b61074c610dcd366004619e2f565b615bbc565b61072c615d81565b6107b2610de8366004619e2f565b615d87565b61072c616096565b61072c61609c565b61074c610e0b366004619b60565b6160a2565b61072c610e1e366004619ded565b616110565b61072c616125565b61074c61612b565b6107d2610e41366004619e2f565b616542565b6107d261654a565b61072c616563565b610853616569565b61072c610e6c366004619b60565b616578565b6107b2610e7f366004619f2f565b61664e565b610853616b51565b6060610e9782616542565b610ebc5760405162461bcd60e51b8152600401610eb39061ae82565b60405180910390fd5b600082815260196020908152604080832080548251818502810185019093528083529192909190830182828015610f1c57602002820191906000526020600020905b81546001600160a01b03168152600190910190602001808311610efe575b50505050509050600081516001600160401b03811115610f4c57634e487b7160e01b600052604160045260246000fd5b604051908082528060200260200182016040528015610f75578160200160208202803683370190505b50905060005b825181101561101f57600c60008681526020019081526020016000206000848381518110610fb957634e487b7160e01b600052603260045260246000fd5b60200260200101516001600160a01b03166001600160a01b031681526020019081526020016000205482828151811061100257634e487b7160e01b600052603260045260246000fd5b6020908102919091010152806110178161b6b0565b915050610f7b565b509150505b919050565b600061103482616542565b6110505760405162461bcd60e51b8152600401610eb39061ae82565b600061105b83611be3565b156110805760008381526014602052604090206006015461107d90429061b632565b90505b92915050565b61108e616b60565b6001600160a01b031661109f613886565b6001600160a01b0316146110c55760405162461bcd60e51b8152600401610eb39061abb6565b602980546001600160a01b0319166001600160a01b0392909216919091179055565b6110ef616b60565b6001600160a01b0316611100613886565b6001600160a01b0316146111265760405162461bcd60e51b8152600401610eb39061abb6565b61112e613886565b6001600160a01b0316ff5b6013602052600090815260409020805481906111549061b675565b80601f01602080910402602001604051908101604052809291908181526020018280546111809061b675565b80156111cd5780601f106111a2576101008083540402835291602001916111cd565b820191906000526020600020905b8154815290600101906020018083116111b057829003601f168201915b50505060018401546002850154600386015460048701805496976001600160a01b0390941696929550909350906112039061b675565b80601f016020809104026020016040519081016040528092919081815260200182805461122f9061b675565b801561127c5780601f106112515761010080835404028352916020019161127c565b820191906000526020600020905b81548152906001019060200180831161125f57829003601f168201915b5050505050908060050180546112919061b675565b80601f01602080910402602001604051908101604052809291908181526020018280546112bd9061b675565b801561130a5780601f106112df5761010080835404028352916020019161130a565b820191906000526020600020905b8154815290600101906020018083116112ed57829003601f168201915b5050506006909301549192505060ff1687565b601e5481565b61132b616b60565b6001600160a01b031661133c613886565b6001600160a01b0316146113625760405162461bcd60e51b8152600401610eb39061abb6565b602155565b60225490565b606061137882616542565b6113945760405162461bcd60e51b8152600401610eb39061ae82565b600082815260146020908152604080832081516101c0810183528154815260018201549381019390935260028101549183019190915260038101546060830152600481015460ff808216151560808501526101008083048216151560a08601526201000090920416151560c0840152600582015460e084015260068201549083015260078101546101208301526008810154610140830152600981018054610160840191906114429061b675565b80601f016020809104026020016040519081016040528092919081815260200182805461146e9061b675565b80156114bb5780601f10611490576101008083540402835291602001916114bb565b820191906000526020600020905b81548152906001019060200180831161149e57829003601f168201915b5050509183525050600a8201546020820152600b82015460409091019060ff1660038111156114fa57634e487b7160e01b600052602160045260246000fd5b600381111561151957634e487b7160e01b600052602160045260246000fd5b90525060208101519091506000816001600160401b0381111561154c57634e487b7160e01b600052604160045260246000fd5b60405190808252806020026020018201604052801561157f57816020015b606081526020019060019003908161156a5790505b50905060005b8281101561167f57835160009061159d90839061b5e7565b6000818152601360205260408120600401805492935090916115be9061b675565b80601f01602080910402602001604051908101604052809291908181526020018280546115ea9061b675565b80156116375780601f1061160c57610100808354040283529160200191611637565b820191906000526020600020905b81548152906001019060200180831161161a57829003601f168201915b505050505090508084848151811061165f57634e487b7160e01b600052603260045260246000fd5b6020026020010181905250505080806116779061b6b0565b915050611585565b50949350505050565b600061169382616542565b6116af5760405162461bcd60e51b8152600401610eb39061b1a9565b600082815260146020526040902060060154611080906155da565b336000908152601560205260409020600581015460ff1615156001146117025760405162461bcd60e51b8152600401610eb39061ab45565b60018101541580159061171f57506005810154610100900460ff16155b8015611731575061172f33616b64565b155b1561178a5760058101805461ff001916610100179055601c80546001810182556000919091527f0e4562a10381dec21b205ed72637e6b1b523bdd0e4d4d50af5cd23dd4500a2110180546001600160a01b031916331790555b60018101546118025761179c33616bdb565b6117a533616d33565b80546001600160a01b031916339081178255426004830181905560058301805460ff191690556040517f9dadcedba048e92b943ea1c5861cee1df63a566d7f795869c004780c1c698e2b916117f99161a077565b60405180910390a25b600160236000828254611815919061b5e7565b909155506118239050616e63565b50565b60008061183285611b43565b905060006118408683615238565b90505b81156119b8576118538683615238565b90508481116119105783821415611908576001600160a01b0386166000908152601160205260409081902090516301c39b2b60e11b815273__$85afbab79b2b776d70bef879a32ed56424$__916303873656916118b59190869060040161a09c565b60206040518083038186803b1580156118cd57600080fd5b505af41580156118e1573d6000803e3d6000fd5b505050506040513d601f19601f820116820180604052508101906119059190619e47565b91505b5090506119bc565b6001600160a01b0386166000908152601160205260409081902090516301c39b2b60e11b815273__$85afbab79b2b776d70bef879a32ed56424$__916303873656916119619190869060040161a09c565b60206040518083038186803b15801561197957600080fd5b505af415801561198d573d6000803e3d6000fd5b505050506040513d601f19601f820116820180604052508101906119b19190619e47565b9150611843565b5090505b9392505050565b600a60209081526000928352604080842090915290825290205460ff1681565b600d60209081526000928352604080842090915290825290208054611a079061b675565b80601f0160208091040260200160405190810160405280929190818152602001828054611a339061b675565b8015611a805780601f10611a5557610100808354040283529160200191611a80565b820191906000526020600020905b815481529060010190602001808311611a6357829003601f168201915b505050505081565b60176020526000908152604090205481565b601a8181548110611aaa57600080fd5b6000918252602090912001546001600160a01b0316905081565b602954600160a01b900460ff1681565b60405160009080602081848060185afa611aea57fe5b5051919050565b60028160048110611b0157600080fd5b60020201805460019091015490915082565b60166020528160005260406000208160048110611b2f57600080fd5b600202018054600190910154909250905082565b6001600160a01b03811660009081526011602052604080822090516301c39b2b60e11b815273__$85afbab79b2b776d70bef879a32ed56424$__91630387365691611b939190859060040161a09c565b60206040518083038186803b158015611bab57600080fd5b505af4158015611bbf573d6000803e3d6000fd5b505050506040513d601f19601f820116820180604052508101906110809190619e47565b6000611bee82616542565b611c0a5760405162461bcd60e51b8152600401610eb39061ae82565b600082815260146020526040902060060154611c25906155da565b1580156110805750611c3682613b7a565b1592915050565b60215490565b60265481565b600081815260146020908152604080832081516101c0810183528154815260018201549381019390935260028101549183019190915260038101546060830152600481015460ff808216151560808501526101008083048216151560a08601526201000090920416151560c0840152600582015460e08401526006820154908301526007810154610120830152600881015461014083015260098101805484939291610160840191611cfa9061b675565b80601f0160208091040260200160405190810160405280929190818152602001828054611d269061b675565b8015611d735780601f10611d4857610100808354040283529160200191611d73565b820191906000526020600020905b815481529060010190602001808311611d5657829003601f168201915b5050509183525050600a8201546020820152600b82015460409091019060ff166003811115611db257634e487b7160e01b600052602160045260246000fd5b6003811115611dd157634e487b7160e01b600052602160045260246000fd5b905250610140810151610120820151919250611dec9161b5e7565b602960009054906101000a90046001600160a01b03166001600160a01b031663ea19733c6040518163ffffffff1660e01b815260040160206040518083038186803b158015611e3a57600080fd5b505afa158015611e4e573d6000803e3d6000fd5b505050506040513d601f19601f82011682018060405250810190611e729190619e47565b611e7c919061b613565b610120820151611e8d90606461b613565b119392505050565b611e9d616b60565b6001600160a01b0316611eae613886565b6001600160a01b031614611ed45760405162461bcd60e51b8152600401610eb39061abb6565b600081815260136020526040812090611eed82826198e7565b6001820180546001600160a01b031916905560006002830181905560038301819055611f1d9060048401906198e7565b611f2b6005830160006198e7565b50600601805460ff1916905550565b60205490565b601a5490565b6001600160a01b038116600090815260166020526040812090611f6b6001600461b632565b90506000828260048110611f8f57634e487b7160e01b600052603260045260246000fd5b6002020154602954604080516307bc663b60e11b815290519293506001600160a01b0390911691630f78cc7691600480820192602092909190829003018186803b158015611fdc57600080fd5b505afa158015611ff0573d6000803e3d6000fd5b505050506040513d601f19601f820116820180604052508101906120149190619e47565b61201e824261b632565b11156121075760005b6120336001600461b632565b8110156120b2578361204682600161b5e7565b6004811061206457634e487b7160e01b600052603260045260246000fd5b6002020184826004811061208857634e487b7160e01b600052603260045260246000fd5b825460029190910291909101908155600191820154910155806120aa8161b6b0565b915050612027565b50428383600481106120d457634e487b7160e01b600052603260045260246000fd5b600202015560008383600481106120fb57634e487b7160e01b600052603260045260246000fd5b60020201600101819055505b50505050565b6001600160a01b03811660009081526010602090815260409182902080548351818402810184019094528084526060939283018282801561216d57602002820191906000526020600020905b815481526020019060010190808311612159575b50505050509050919050565b612181619923565b60008281526013602052604090819020815160e081019092528054829082906121a99061b675565b80601f01602080910402602001604051908101604052809291908181526020018280546121d59061b675565b80156122225780601f106121f757610100808354040283529160200191612222565b820191906000526020600020905b81548152906001019060200180831161220557829003601f168201915b505050918352505060018201546001600160a01b0316602082015260028201546040820152600382015460608201526004820180546080909201916122669061b675565b80601f01602080910402602001604051908101604052809291908181526020018280546122929061b675565b80156122df5780601f106122b4576101008083540402835291602001916122df565b820191906000526020600020905b8154815290600101906020018083116122c257829003601f168201915b505050505081526020016005820180546122f89061b675565b80601f01602080910402602001604051908101604052809291908181526020018280546123249061b675565b80156123715780601f1061234657610100808354040283529160200191612371565b820191906000526020600020905b81548152906001019060200180831161235457829003601f168201915b5050509183525050600682015460209091019060ff1660038111156123a657634e487b7160e01b600052602160045260246000fd5b60038111156123c557634e487b7160e01b600052602160045260246000fd5b90525092915050565b600e60209081526000928352604080842090915290825290205481565b6010602052816000526040600020818154811061240757600080fd5b90600052602060002001600091509150505481565b606061242782616542565b6124435760405162461bcd60e51b8152600401610eb39061ae82565b6000828152601960209081526040808320805482518185028101850190935280835291929091908301828280156124a357602002820191906000526020600020905b81546001600160a01b03168152600190910190602001808311612485575b50505050509050600081516001600160401b038111156124d357634e487b7160e01b600052604160045260246000fd5b60405190808252806020026020018201604052801561250657816020015b60608152602001906001900390816124f15790505b50905060005b825181101561101f57600f6000868152602001908152602001600020600084838151811061254a57634e487b7160e01b600052603260045260246000fd5b60200260200101516001600160a01b03166001600160a01b03168152602001908152602001600020805461257d9061b675565b80601f01602080910402602001604051908101604052809291908181526020018280546125a99061b675565b80156125f65780601f106125cb576101008083540402835291602001916125f6565b820191906000526020600020905b8154815290600101906020018083116125d957829003601f168201915b505050505082828151811061261b57634e487b7160e01b600052603260045260246000fd5b602002602001018190525080806126319061b6b0565b91505061250c565b60006126476001600461b632565b905060006002826004811061266c57634e487b7160e01b600052603260045260246000fd5b6002020154602954604080516307bc663b60e11b815290519293506001600160a01b0390911691630f78cc7691600480820192602092909190829003018186803b1580156126b957600080fd5b505afa1580156126cd573d6000803e3d6000fd5b505050506040513d601f19601f820116820180604052508101906126f19190619e47565b6126fb824261b632565b11156127ee5760005b6127106001600461b632565b81101561279157600261272482600161b5e7565b6004811061274257634e487b7160e01b600052603260045260246000fd5b600202016002826004811061276757634e487b7160e01b600052603260045260246000fd5b825460029190910291909101908155600191820154910155806127898161b6b0565b915050612704565b5042600283600481106127b457634e487b7160e01b600052603260045260246000fd5b60020201600001819055506000600283600481106127e257634e487b7160e01b600052603260045260246000fd5b60020201600101819055505b5050565b6127fa616b60565b6001600160a01b031661280b613886565b6001600160a01b0316146128315760405162461bcd60e51b8152600401610eb39061abb6565b600081815260146020526040812081815560018101829055600281018290556003810182905560048101805462ffffff19169055600581018290556006810182905560078101829055600881018290559061288f60098301826198e7565b506000600a820155600b01805460ff1916905550565b60006128b082616542565b6128bc57506000611024565b6000828152601460205260409020600601546128d7906155da565b806128f15750600082815260146020526040902060030154155b9050611024565b600061108082610cd784611b43565b600061291282616542565b61291e57506000611024565b600082815260146020526040902060050154612939906155da565b806128f157506128f182611be3565b6001600160a01b031660009081526017602052604090205490565b61296b616b60565b6001600160a01b031661297c613886565b6001600160a01b0316146129a25760405162461bcd60e51b8152600401610eb39061abb6565b6129ac600061713c565b565b60006129b982616542565b6129d55760405162461bcd60e51b8152600401610eb39061ae82565b5060009081526014602052604090206006015490565b601b5490565b6129f9616b60565b6001600160a01b0316612a0a613886565b6001600160a01b031614612a305760405162461bcd60e51b8152600401610eb39061abb6565b602255565b6000612a4082616542565b612a5c5760405162461bcd60e51b8152600401610eb39061ae82565b6000612a6783613b7a565b156110805760008381526014602052604090206005015461107d90429061b632565b600073__$0947e710b66d7779e1d561254425e1375a$__63698101586012612ab18686613b3b565b6040518363ffffffff1660e01b8152600401612ace92919061b341565b60206040518083038186803b158015612ae657600080fd5b505af4158015612afa573d6000803e3d6000fd5b505050506040513d601f19601f8201168201806040525081019061107d9190619e47565b601b54601a54600091612b309161b5e7565b905090565b6000612b4082616542565b612b5c5760405162461bcd60e51b8152600401610eb39061ae82565b506001600160a01b03919091166000908152600a60209081526040808320938352929052205460ff1690565b601460205260009081526040902080546001820154600283015460038401546004850154600586015460068701546007880154600889015460098a018054999a98999798969760ff80881698610100890482169862010000900490911696959493929091612bf59061b675565b80601f0160208091040260200160405190810160405280929190818152602001828054612c219061b675565b8015612c6e5780601f10612c4357610100808354040283529160200191612c6e565b820191906000526020600020905b815481529060010190602001808311612c5157829003601f168201915b50505050600a830154600b9093015491929160ff1690508e565b600080805b6004811015612cde5760028160048110612cb757634e487b7160e01b600052603260045260246000fd5b600202016001015482612cca919061b5e7565b915080612cd68161b6b0565b915050612c8d565b50905090565b600080612cf18487615238565b83101590506000612d028587615238565b84111580612d0e575085155b9050818015612d1a5750805b979650505050505050565b601b8181548110611aaa57600080fd5b612d3e85613b7a565b612d5a5760405162461bcd60e51b8152600401610eb39061a408565b336000908152600a6020908152604080832088845290915290205460ff1615612d955760405162461bcd60e51b8152600401610eb39061af47565b612d9f853361527d565b612dbb5760405162461bcd60e51b8152600401610eb39061a6e0565b60295460408051632a49798160e11b815290516000926001600160a01b031691635492f302916004808301926020929190829003018186803b158015612e0057600080fd5b505afa158015612e14573d6000803e3d6000fd5b505050506040513d601f19601f82011682018060405250810190612e389190619b7c565b6001600160a01b03161415612e5f5760405162461bcd60e51b8152600401610eb39061b111565b602954604080516001624ee91360e11b0319815290516000926001600160a01b03169163ff622dda916004808301926020929190829003018186803b158015612ea757600080fd5b505afa158015612ebb573d6000803e3d6000fd5b505050506040513d601f19601f82011682018060405250810190612edf9190619e47565b90506000612eed338361339e565b6001600160a01b038116600090815260176020526040902054909150821115612f42576001600160a01b038116600090815260176020526040812054612f3490849061718c565b9050612f408183617198565b505b6000336000908152601160205260408082209051631e0f232560e31b815273__$85afbab79b2b776d70bef879a32ed56424$__9163f079192891612f8b9190869060040161a09c565b60206040518083038186803b158015612fa357600080fd5b505af4158015612fb7573d6000803e3d6000fd5b505050506040513d601f19601f82011682018060405250810190612fdb9190619e47565b9050888114156130805733600090815260116020526040908190209051631e0f232560e31b815273__$85afbab79b2b776d70bef879a32ed56424$__9163f07919289161302d91908d9060040161a09c565b60206040518083038186803b15801561304557600080fd5b505af4158015613059573d6000803e3d6000fd5b505050506040513d601f19601f8201168201806040525081019061307d9190619e47565b90505b61308c82823387612ce4565b6130a85760405162461bcd60e51b8152600401610eb39061aaba565b3360009081526011602052604090819020905163524cfe5360e11b815273__$85afbab79b2b776d70bef879a32ed56424$__9163a499fca6916130f4919086908e90879060040161b3b9565b60006040518083038186803b15801561310c57600080fd5b505af4158015613120573d6000803e3d6000fd5b505050506000613130338b613b3b565b60405163099b040f60e31b815290915073__$0947e710b66d7779e1d561254425e1375a$__90634cd820789061316f9060129085908a9060040161b39b565b60006040518083038186803b15801561318757600080fd5b505af415801561319b573d6000803e3d6000fd5b505060405163099b040f60e31b815273__$0947e710b66d7779e1d561254425e1375a$__9250634cd8207891506131db9060129085908e9060040161b35f565b60006040518083038186803b1580156131f357600080fd5b505af4158015613207573d6000803e3d6000fd5b505060405163099b040f60e31b815273__$0947e710b66d7779e1d561254425e1375a$__9250634cd8207891506132479060129085908d9060040161b313565b60006040518083038186803b15801561325f57600080fd5b505af4158015613273573d6000803e3d6000fd5b50505060008b8152600e60209081526040808320338085529083528184208c90558e8452600f8352818420908452825290912088516132b793509091890190619987565b503360009081526015602090815260408083208d84526014909252909120600201546132e490600161718c565b60008c815260146020908152604080832060020193909355426004850155338252600a81528282208e83529052908120805460ff19166001908117909155602380549192909161333590849061b5e7565b909155506133439050616e63565b336001600160a01b03168b7f42864d9683ff5b12c3b2cc65d705af5aab104b03bc700b802f79e5c971ef08a18860405161337d919061a077565b60405180910390a35050505050505050505050565b60205481565b601d5481565b6000806001600160a01b0316602960009054906101000a90046001600160a01b03166001600160a01b0316635492f3026040518163ffffffff1660e01b815260040160206040518083038186803b1580156133f857600080fd5b505afa15801561340c573d6000803e3d6000fd5b505050506040513d601f19601f820116820180604052508101906134309190619b7c565b6001600160a01b031614156134575760405162461bcd60e51b8152600401610eb39061b111565b6029546040805163ca64f9e760e01b815290516000926001600160a01b03169163ca64f9e7916004808301926020929190829003018186803b15801561349c57600080fd5b505afa1580156134b0573d6000803e3d6000fd5b505050506040513d601f19601f820116820180604052508101906134d49190619b7c565b6001600160a01b031614156134fb5760405162461bcd60e51b8152600401610eb39061acdf565b6029546040805163ca64f9e760e01b815290516000926001600160a01b03169163ca64f9e7916004808301926020929190829003018186803b15801561354057600080fd5b505afa158015613554573d6000803e3d6000fd5b505050506040513d601f19601f820116820180604052508101906135789190619b7c565b90506000602960009054906101000a90046001600160a01b03166001600160a01b0316635492f3026040518163ffffffff1660e01b815260040160206040518083038186803b1580156135ca57600080fd5b505afa1580156135de573d6000803e3d6000fd5b505050506040513d601f19601f820116820180604052508101906136029190619b7c565b9050848060055b6001600160a01b038216158015906136215750600081115b156137ee5760405163065ee72760e51b81526000906001600160a01b0387169063cbdce4e09061365590869060040161a0aa565b60206040518083038186803b15801561366d57600080fd5b505afa158015613681573d6000803e3d6000fd5b505050506040513d601f19601f820116820180604052508101906136a59190619e47565b6001600160a01b03841660009081526017602052604090205490915088116136d057829350506137ee565b6001600160a01b038316600090815260176020526040902054881080159061370f57506001600160a01b03831660009081526017602052604090205415155b1561374d576001600160a01b038316600090815260176020526040812054613738908a9061718c565b905080821061374b5783945050506137ee565b505b87811061375d57829350506137ee565b60405163792f4f6960e11b81526001600160a01b0386169063f25e9ed29061378990869060040161a0aa565b60206040518083038186803b1580156137a157600080fd5b505afa1580156137b5573d6000803e3d6000fd5b505050506040513d601f19601f820116820180604052508101906137d99190619b7c565b92506137e660018361b632565b915050613609565b50909695505050505050565b600f60209081526000928352604080842090915290825290208054611a079061b675565b60156020526000908152604090208054600182015460028301546003840154600485015460058601546006870154600788015460088901546009909901546001600160a01b0390981698969760ff96871697959694958486169561010090950490941693908b565b6000546001600160a01b031690565b601960205281600052604060002081815481106138b157600080fd5b6000918252602090912001546001600160a01b03169150829050565b60016000828152601460205260409020600b015460ff16600381111561390357634e487b7160e01b600052602160045260246000fd5b146139205760405162461bcd60e51b8152600401610eb39061a372565b336000908152601160205260409081902090516306120d1f60e31b815273__$85afbab79b2b776d70bef879a32ed56424$__9163309068f8916139689190859060040161a09c565b60206040518083038186803b15801561398057600080fd5b505af4158015613994573d6000803e3d6000fd5b505050506040513d601f19601f820116820180604052508101906139b89190619d6d565b6139d45760405162461bcd60e51b8152600401610eb39061a9a5565b336000908152601160205260409081902090516301039dfd60e11b815273__$85afbab79b2b776d70bef879a32ed56424$__916302073bfa91613a1c9190859060040161a09c565b60006040518083038186803b158015613a3457600080fd5b505af4158015613a48573d6000803e3d6000fd5b50506040513392508391507f402507661c8c8cb90e0a796450b8bdd28b6c516f05279c0cd29e84c344e1699a90600090a350565b60245481565b6001600160a01b038116600090815260166020526040812081805b600481101561101f57828160048110613ac657634e487b7160e01b600052603260045260246000fd5b600202016001015482613ad9919061b5e7565b915080613ae58161b6b0565b915050613a9d565b60005b81518110156127ee57613b29828281518110613b1c57634e487b7160e01b600052603260045260246000fd5b60200260200101516138cd565b80613b338161b6b0565b915050613af0565b60008282604051602001613b5092919061a055565b60405160208183030381529060405280519060200120905092915050565b60245490565b60255481565b6000613b8582616542565b613ba15760405162461bcd60e51b8152600401610eb39061ae82565b600082815260146020526040902060050154613bbc906155da565b158015611080575050600090815260146020526040902060020154151590565b601e5490565b600081604051602001613bf5919061a080565b6040516020818303038152906040528051906020012083604051602001613c1c919061a080565b604051602081830303815290604052805190602001201415613c4057506001611080565b506000611080565b613c5184611be3565b613c6d5760405162461bcd60e51b8152600401610eb39061adc0565b336000908152600a6020908152604080832087845290915290205460ff16613ca75760405162461bcd60e51b8152600401610eb39061a816565b336000908152600b6020908152604080832087845290915290205460ff1615613ce25760405162461bcd60e51b8152600401610eb39061b1d2565b613cec3385612a89565b613cf68483616110565b14613d135760405162461bcd60e51b8152600401610eb39061a4cf565b613d1d33856140ed565b613d27838361423c565b14613d445760405162461bcd60e51b8152600401610eb39061a457565b6000613d503386615238565b90508260011415613d875760008581526014602052604081206007018054839290613d7c90849061b5e7565b90915550613dae9050565b60008581526014602052604081206008018054839290613da890849061b5e7565b90915550505b336000908152601160205260409081902090516301039dfd60e11b815273__$85afbab79b2b776d70bef879a32ed56424$__916302073bfa91613df69190899060040161a09c565b60006040518083038186803b158015613e0e57600080fd5b505af4158015613e22573d6000803e3d6000fd5b5050336000818152600b602090815260408083208b84528252808320805460ff19166001179055600c825280832084845282528083208990558a8352600d82528083209383529281529190208751613e81945090925090870190619987565b50336000908152601560209081526040808320888452601490925290912060030154613eae90600161718c565b60008781526014602052604090206003015560028101805460ff19166001179055426004820155600581015460ff1615613f425760006001820155613ef233616d33565b613efb336173c0565b613f4257601a80546001810182556000919091527f057c384a7d1c54f3a1b2e5e67b2617b8224fdfd1ea7234eea573a6ff665ff63e0180546001600160a01b031916331790555b600086815260146020526040902060030154613f6157613f6186617430565b600160236000828254613f74919061b5e7565b90915550613f829050616e63565b6000868152601460205260409081902060078101546008909101549151339287928a927f0867b5027231dcbf37614eaad07d667b9febaf9fdf483f488229b1f140bb074892613fd592899290919061b4a5565b60405180910390a4505050505050565b6000613ff082616542565b61400c5760405162461bcd60e51b8152600401610eb39061ae82565b506001600160a01b03919091166000908152600b60209081526040808320938352929052205460ff1690565b600080424160405160200161404d919061a038565b6040516020818303038152906040528051906020012060001c614070919061b5ff565b44614079611ad4565b604051602001614089919061a077565b60408051601f1981840301815291905280516020909101206140ab904261b5e7565b6140b5919061b5e7565b6140bf919061b5e7565b6040516020016140cf919061a077565b60408051601f19818403018152919052805160209091012091505090565b600073__$0947e710b66d7779e1d561254425e1375a$__636981015860126141158686613b3b565b6040518363ffffffff1660e01b8152600401612ace92919061b2f5565b601c8181548110611aaa57600080fd5b6001600160a01b038082166000908152601560209081526040808320815161016081018352815490951685526001810154928501839052600281015460ff90811615801593870184905260038301546060880152600483015460808801526005830154808316151560a089015261010090819004909216151560c0880152600683015460e0880152600783015491870191909152600882015461012087015260099091015461014086015292938493909291614204575061420281611688565b155b801561421757506142158582612b35565b155b8015614229575061422781612907565b155b1561423357600192505b50909392505050565b60008282604051602001613b5092919061a09c565b6060600082116142735760405162461bcd60e51b8152600401610eb39061ab91565b600041604051602001614286919061a038565b6040516020818303038152906040528051906020012060001c6142a7611ad4565b6040516020016142b7919061a077565b60408051601f1981840301815291905280516020909101206142d9904261b5e7565b6142e3919061b5e7565b6040516020016142f3919061a077565b6040516020818303038152906040528051906020012060001c90506000846001600160401b0381111561433657634e487b7160e01b600052604160045260246000fd5b60405190808252806020026020018201604052801561435f578160200160208202803683370190505b5090506000805b868210156144605760008661437f63017efeeb8761b632565b8360405160200161439192919061a09c565b6040516020818303038152906040528051906020012060001c6143b4919061b6cb565b90506000805b8481101561440c57828682815181106143e357634e487b7160e01b600052603260045260246000fd5b602002602001015114156143fa576001915061440c565b806144048161b6b0565b9150506143ba565b508061444c578185858151811061443357634e487b7160e01b600052603260045260246000fd5b602090810291909101015261444984600161b5e7565b93505b61445783600161b5e7565b92505050614366565b509095945050505050565b600061447683611688565b6144925760405162461bcd60e51b8152600401610eb39061b06a565b6001600160a01b0384166000908152600b6020908152604080832086845290915290205460ff166144d55760405162461bcd60e51b8152600401610eb39061aa02565b60006144e084611c49565b6144eb5760006144ee565b60015b60ff1690506000818460405160200161450892919061a09c565b604051602081830303815290604052805190602001209050600061452c87876140ed565b905080821461454d5760405162461bcd60e51b8152600401610eb39061ad21565b612d1a8787615238565b60606000821180156145695750818311155b8015614576575060018310155b6145925760405162461bcd60e51b8152600401610eb39061a591565b6000826001600160401b038111156145ba57634e487b7160e01b600052604160045260246000fd5b6040519080825280602002602001820160405280156145e3578160200160208202803683370190505b5090506000846001600160401b0381111561460e57634e487b7160e01b600052604160045260246000fd5b604051908082528060200260200182016040528015614637578160200160208202803683370190505b509050600061464d61464884618bba565b618c10565b905060005b868110156144605781818151811061467a57634e487b7160e01b600052603260045260246000fd5b60200260200101518382815181106146a257634e487b7160e01b600052603260045260246000fd5b6020908102919091010152806146b78161b6b0565b915050614652565b602954604080516309d0f8b560e31b815290516000926001600160a01b031691634e87c5a8916004808301926020929190829003018186803b15801561470457600080fd5b505afa158015614718573d6000803e3d6000fd5b505050506040513d601f19601f8201168201806040525081019061473c9190619d6d565b6147585760405162461bcd60e51b8152600401610eb39061a865565b855184146147785760405162461bcd60e51b8152600401610eb39061aefa565b614780612639565b602960009054906101000a90046001600160a01b03166001600160a01b031663b38e885e6040518163ffffffff1660e01b815260040160206040518083038186803b1580156147ce57600080fd5b505afa1580156147e2573d6000803e3d6000fd5b505050506040513d601f19601f820116820180604052508101906148069190619e47565b61480e612c88565b1061482b5760405162461bcd60e51b8152600401610eb39061a8e6565b602954604080516001624ee91360e11b0319815290516000926001600160a01b03169163ff622dda916004808301926020929190829003018186803b15801561487357600080fd5b505afa158015614887573d6000803e3d6000fd5b505050506040513d601f19601f820116820180604052508101906148ab9190619e47565b905060006148b9338361339e565b90506148c481611f46565b602960009054906101000a90046001600160a01b03166001600160a01b031663be2509886040518163ffffffff1660e01b815260040160206040518083038186803b15801561491257600080fd5b505afa158015614926573d6000803e3d6000fd5b505050506040513d601f19601f8201168201806040525081019061494a9190619e47565b61495382613a82565b106149705760405162461bcd60e51b8152600401610eb39061b155565b6001600160a01b0381166000908152601760205260409020548211156149c2576001600160a01b0381166000908152601760205260408120546149b490849061718c565b90506149c08183617198565b505b60005b88518110156151af5760008982815181106149f057634e487b7160e01b600052603260045260246000fd5b602002602001015190506000898984818110614a1c57634e487b7160e01b600052603260045260246000fd5b9050602002810190614a2e919061b54b565b8080601f016020809104026020016040519081016040528093929190818152602001838380828437600092018290525033808252601060209081526040808420601e54815460018101835591865283862090910155805160e0810182528a8152918201929092524291810191909152606081018e90526080810186905260a081018d905294955060c0850193509150614ac49050565b9052601e546000908152601360209081526040909120825180519192614aef92849290910190619987565b506020828101516001830180546001600160a01b0319166001600160a01b03909216919091179055604083015160028301556060830151600383015560808301518051614b429260048501920190619987565b5060a08201518051614b5e916005840191602090910190619987565b5060c082015160068201805460ff19166001836003811115614b9057634e487b7160e01b600052602160045260246000fd5b021790555050602080546000908152601482526040908190206029548251634e8f956d60e11b815292519194506001600160a01b031692639d1f2ada9260048082019391829003018186803b158015614be857600080fd5b505afa158015614bfc573d6000803e3d6000fd5b505050506040513d601f19601f82011682018060405250810190614c209190619e47565b81600101541015614c46576001816001016000828254614c40919061b5e7565b90915550505b602960009054906101000a90046001600160a01b03166001600160a01b0316639d1f2ada6040518163ffffffff1660e01b815260040160206040518083038186803b158015614c9457600080fd5b505afa158015614ca8573d6000803e3d6000fd5b505050506040513d601f19601f82011682018060405250810190614ccc9190619e47565b816001015410614d1c57600481018054600160ff19909116811761ff00191690915560208054600090614d0090849061b5e7565b9091555050601e54602080546000908152601490915260409020555b601e54614d2a90600161b5e7565b601e5560016002614d3c82600461b632565b60048110614d5a57634e487b7160e01b600052603260045260246000fd5b600202016001016000828254614d70919061b5e7565b90915550506001600160a01b0385166000908152601660205260409020600181614d9b82600461b632565b60048110614db957634e487b7160e01b600052603260045260246000fd5b600202016001016000828254614dcf919061b5e7565b90915550614ddd9050615763565b60295460408051637b39b17f60e11b815290516000926001600160a01b03169163f67362fe916004808301926020929190829003018186803b158015614e2257600080fd5b505afa158015614e36573d6000803e3d6000fd5b505050506040513d601f19601f82011682018060405250810190614e5a9190619b7c565b9050806001600160a01b031663da14563a6040518163ffffffff1660e01b8152600401600060405180830381600087803b158015614e9757600080fd5b505af1925050508015614ea8575060015b614f03573d808015614ed6576040519150601f19603f3d011682016040523d82523d6000602084013e614edb565b606091505b5060008051602061b73783398151915281604051614ef9919061a1bc565b60405180910390a1505b60295460408051637a0ec25b60e01b815290516000926001600160a01b031691637a0ec25b916004808301926020929190829003018186803b158015614f4857600080fd5b505afa158015614f5c573d6000803e3d6000fd5b505050506040513d601f19601f82011682018060405250810190614f809190619b7c565b9050806001600160a01b031663da14563a6040518163ffffffff1660e01b8152600401600060405180830381600087803b158015614fbd57600080fd5b505af1925050508015614fce575060015b615029573d808015614ffc576040519150601f19603f3d011682016040523d82523d6000602084013e615001565b606091505b5060008051602061b7378339815191528160405161501f919061a1bc565b60405180910390a1505b6029546040805163463444b760e01b815290516000926001600160a01b03169163463444b7916004808301926020929190829003018186803b15801561506e57600080fd5b505afa158015615082573d6000803e3d6000fd5b505050506040513d601f19601f820116820180604052508101906150a69190619b7c565b9050806001600160a01b031663da14563a6040518163ffffffff1660e01b8152600401600060405180830381600087803b1580156150e357600080fd5b505af19250505080156150f4575060015b61514f573d808015615122576040519150601f19603f3d011682016040523d82523d6000602084013e615127565b606091505b5060008051602061b73783398151915281604051615145919061a1bc565b60405180910390a1505b886001600160a01b0316601e547fb819ca9ac369919119f75ec7363dd954f75bcfa75f9245647e03da413be0d582898960405161518d92919061a241565b60405180910390a35050505050505080806151a79061b6b0565b9150506149c5565b503360009081526015602052604090204260048201556151cd616e63565b6001602360008282546151e0919061b5e7565b9091555050601e549998505050505050505050565b600061520082616542565b61521c5760405162461bcd60e51b8152600401610eb39061ae82565b5060009081526014602052604090206005015490565b60015481565b600073__$0947e710b66d7779e1d561254425e1375a$__636981015860126152608686613b3b565b6040518363ffffffff1660e01b8152600401612ace92919061b37d565b60008281526019602090815260408083208054825181850281018501909352808352849384939291908301828280156152df57602002820191906000526020600020905b81546001600160a01b031681526001909101906020018083116152c1575b5050505050905060005b815181101561534e57846001600160a01b031682828151811061531c57634e487b7160e01b600052603260045260246000fd5b60200260200101516001600160a01b0316141561533c576001925061534e565b806153468161b6b0565b9150506152e9565b5090949350505050565b600b60209081526000928352604080842090915290825290205460ff1681565b601f5481565b60225481565b606061538f82616542565b6153ab5760405162461bcd60e51b8152600401610eb39061ae82565b60008281526019602090815260408083208054825181850281018501909352808352919290919083018282801561540b57602002820191906000526020600020905b81546001600160a01b031681526001909101906020018083116153ed575b50505050509050600081516001600160401b0381111561543b57634e487b7160e01b600052604160045260246000fd5b60405190808252806020026020018201604052801561546e57816020015b60608152602001906001900390816154595790505b50905060005b825181101561101f57600d600086815260200190815260200160002060008483815181106154b257634e487b7160e01b600052603260045260246000fd5b60200260200101516001600160a01b03166001600160a01b0316815260200190815260200160002080546154e59061b675565b80601f01602080910402602001604051908101604052809291908181526020018280546155119061b675565b801561555e5780601f106155335761010080835404028352916020019161555e565b820191906000526020600020905b81548152906001019060200180831161554157829003601f168201915b505050505082828151811061558357634e487b7160e01b600052603260045260246000fd5b602002602001018190525080806155999061b6b0565b915050615474565b601860205281600052604060002081815481106138b157600080fd5b600c60209081526000928352604080842090915290825290205481565b421190565b6155e7619a0b565b6155f082616542565b6155f957600080fd5b60008281526014602090815260409182902082516101c0810184528154815260018201549281019290925260028101549282019290925260038201546060820152600482015460ff808216151560808401526101008083048216151560a08501526201000090920416151560c0830152600583015460e083015260068301549082015260078201546101208201526008820154610140820152600982018054919291610160840191906156ab9061b675565b80601f01602080910402602001604051908101604052809291908181526020018280546156d79061b675565b80156157245780601f106156f957610100808354040283529160200191615724565b820191906000526020600020905b81548152906001019060200180831161570757829003601f168201915b5050509183525050600a8201546020820152600b82015460409091019060ff1660038111156123a657634e487b7160e01b600052602160045260246000fd5b61576b612639565b615773618db7565b60005b602960009054906101000a90046001600160a01b03166001600160a01b0316637d630cb06040518163ffffffff1660e01b815260040160206040518083038186803b1580156157c457600080fd5b505afa1580156157d8573d6000803e3d6000fd5b505050506040513d601f19601f820116820180604052508101906157fc9190619e47565b811015615a5b5760215460009081526014602052604081206004015462010000900460ff16151560011480156158555750615838602154611688565b806158555750602154600090815260146020526040902060030154155b1561589b57602154600090815260146020526040902060040154610100900460ff1661588657615886602154617430565b602154615894906001618f80565b6021555060015b6158a3618f8c565b60225460009081526014602052604090206004015462010000900460ff16151560011480159061595a5750602960009054906101000a90046001600160a01b03166001600160a01b031663bd40ef4c6040518163ffffffff1660e01b815260040160206040518083038186803b15801561591c57600080fd5b505afa158015615930573d6000803e3d6000fd5b505050506040513d601f19601f820116820180604052508101906159549190619e47565b601a5410155b801561597a575060225460009081526014602052604090206004015460ff165b801561598f5750615989614038565b601d5414155b8015615a2c5750602960009054906101000a90046001600160a01b03166001600160a01b031663c4a306f86040518163ffffffff1660e01b815260040160206040518083038186803b1580156159e457600080fd5b505afa1580156159f8573d6000803e3d6000fd5b505050506040513d601f19601f82011682018060405250810190615a1c9190619e47565b600154615a29904261b632565b10155b15615a3d57615a3961906c565b5060015b80615a485750615a5b565b5080615a538161b6b0565b915050615776565b506129ac616e63565b606060008211615a865760405162461bcd60e51b8152600401610eb39061aa9b565b6000826001600160401b03811115615aae57634e487b7160e01b600052604160045260246000fd5b604051908082528060200260200182016040528015615ad7578160200160208202803683370190505b5090506000615ae861464883618bba565b949350505050565b6060615afb82616542565b615b0457600080fd5b60008281526014602052604090206009018054615b209061b675565b80601f0160208091040260200160405190810160405280929190818152602001828054615b4c9061b675565b801561216d5780601f10615b6e5761010080835404028352916020019161216d565b820191906000526020600020905b815481529060010190602001808311615b7c5750939695505050505050565b6001600160a01b031660009081526015602052604090206005015460ff1690565b6000615be0615bca336128f8565b336000908152601760205260409020549061718c565b905081811015615c025760405162461bcd60e51b8152600401610eb39061ae06565b6029546040805163ca64f9e760e01b815290516000926001600160a01b03169163ca64f9e7916004808301926020929190829003018186803b158015615c4757600080fd5b505afa158015615c5b573d6000803e3d6000fd5b505050506040513d601f19601f82011682018060405250810190615c7f9190619b7c565b604051630895993360e11b81529091506001600160a01b0382169063112b326690615cb0908690339060040161b470565b602060405180830381600087803b158015615cca57600080fd5b505af1158015615cde573d6000803e3d6000fd5b505050506040513d601f19601f82011682018060405250810190615d029190619d6d565b615d1e5760405162461bcd60e51b8152600401610eb39061b0b4565b3360009081526017602052604081208054859290615d3d90849061b632565b909155505060405133907ffaeb7dbb9992397d26ea1944efd40c80b40f702faf69b46c67ad10aba68ccb7990615d7490869061a077565b60405180910390a2505050565b60275481565b6060615d9282616542565b615dae5760405162461bcd60e51b8152600401610eb39061ae82565b600082815260146020908152604080832081516101c0810183528154815260018201549381019390935260028101549183019190915260038101546060830152600481015460ff808216151560808501526101008083048216151560a08601526201000090920416151560c0840152600582015460e08401526006820154908301526007810154610120830152600881015461014083015260098101805461016084019190615e5c9061b675565b80601f0160208091040260200160405190810160405280929190818152602001828054615e889061b675565b8015615ed55780601f10615eaa57610100808354040283529160200191615ed5565b820191906000526020600020905b815481529060010190602001808311615eb857829003601f168201915b5050509183525050600a8201546020820152600b82015460409091019060ff166003811115615f1457634e487b7160e01b600052602160045260246000fd5b6003811115615f3357634e487b7160e01b600052602160045260246000fd5b90525060208101519091506000816001600160401b03811115615f6657634e487b7160e01b600052604160045260246000fd5b604051908082528060200260200182016040528015615f9957816020015b6060815260200190600190039081615f845790505b50905060005b8281101561167f578351600090615fb790839061b5e7565b600081815260136020526040812080549293509091615fd59061b675565b80601f01602080910402602001604051908101604052809291908181526020018280546160019061b675565b801561604e5780601f106160235761010080835404028352916020019161604e565b820191906000526020600020905b81548152906001019060200180831161603157829003601f168201915b505050505090508084848151811061607657634e487b7160e01b600052603260045260246000fd5b60200260200101819052505050808061608e9061b6b0565b915050615f9f565b60215481565b60235481565b6160aa616b60565b6001600160a01b03166160bb613886565b6001600160a01b0316146160e15760405162461bcd60e51b8152600401610eb39061abb6565b6001600160a01b0381166161075760405162461bcd60e51b8152600401610eb39061a54b565b6118238161713c565b60008282604051602001613b5092919061a26f565b60235490565b3360009081526015602090815260409182902060295483516398a54e2b60e01b8152935191936001600160a01b03909116926398a54e2b92600480840193829003018186803b15801561617d57600080fd5b505afa158015616191573d6000803e3d6000fd5b505050506040513d601f19601f820116820180604052508101906161b59190619e47565b601b54601a546161c5919061b5e7565b106161e25760405162461bcd60e51b8152600401610eb39061af90565b600581015460ff16156162075760405162461bcd60e51b8152600401610eb39061a33b565b602960009054906101000a90046001600160a01b03166001600160a01b0316639fb491f66040518163ffffffff1660e01b815260040160206040518083038186803b15801561625557600080fd5b505afa158015616269573d6000803e3d6000fd5b505050506040513d601f19601f8201168201806040525081019061628d9190619e47565b8160030154101580156163325750602960009054906101000a90046001600160a01b03166001600160a01b0316630f1f0ffe6040518163ffffffff1660e01b815260040160206040518083038186803b1580156162e957600080fd5b505afa1580156162fd573d6000803e3d6000fd5b505050506040513d601f19601f820116820180604052508101906163219190619e47565b6006820154616330904261b632565b105b1561634f5760405162461bcd60e51b8152600401610eb39061afd2565b602954604080516001624ee91360e11b0319815290516000926001600160a01b03169163ff622dda916004808301926020929190829003018186803b15801561639757600080fd5b505afa1580156163ab573d6000803e3d6000fd5b505050506040513d601f19601f820116820180604052508101906163cf9190619e47565b905060006163dd338361339e565b6001600160a01b038116600090815260176020526040902054909150821115616432576001600160a01b03811660009081526017602052604081205461642490849061718c565b90506164308183617198565b505b336000908152601760205260409020548211156164615760405162461bcd60e51b8152600401610eb39061a93c565b61646a336173c0565b6164b157601a80546001810182556000919091527f057c384a7d1c54f3a1b2e5e67b2617b8224fdfd1ea7234eea573a6ff665ff63e0180546001600160a01b031916331790555b8254336001600160a01b031990911617835560058301805460ff1916600190811761ff001916909155426006850155600060038501819055602380549091906164fb90849061b5e7565b909155506165099050616e63565b336001600160a01b03167f439d77b7534ec3108fc6143bd4fbabde0b9f2bb54f7b0730d1f70dd2135b765f42604051615d74919061a077565b602054101590565b3360009081526015602052604090206005015460ff1690565b60255490565b6028546001600160a01b031681565b6001600160a01b038082166000908152601560209081526040808320815161016081018352815490951685526001810154928501839052600281015460ff90811615159286019290925260038101546060860152600481015460808601526005810154808316151560a087015261010090819004909216151560c0860152600681015460e086015260078101549185019190915260088101546101208501526009015461014084015290919061662e8482612b35565b15801561663f575061663f81612907565b156119bc575060009392505050565b606060008311801561665f57508183105b61667b5760405162461bcd60e51b8152600401610eb39061a8af565b6000835b61668a84600161b5e7565b81101561684157600081815260146020908152604080832081516101c0810183528154815260018201549381019390935260028101549183019190915260038101546060830152600481015460ff808216151560808501526101008083048216151560a08601526201000090920416151560c0840152600582015460e0840152600682015490830152600781015461012083015260088101546101408301526009810180546101608401919061673f9061b675565b80601f016020809104026020016040519081016040528092919081815260200182805461676b9061b675565b80156167b85780601f1061678d576101008083540402835291602001916167b8565b820191906000526020600020905b81548152906001019060200180831161679b57829003601f168201915b5050509183525050600a8201546020820152600b82015460409091019060ff1660038111156167f757634e487b7160e01b600052602160045260246000fd5b600381111561681657634e487b7160e01b600052602160045260246000fd5b905250602081015190915061682b908461b5e7565b92505080806168399061b6b0565b91505061667f565b506000816001600160401b0381111561686a57634e487b7160e01b600052604160045260246000fd5b60405190808252806020026020018201604052801561689d57816020015b60608152602001906001900390816168885790505b509050845b6168ad85600161b5e7565b81101561167f57600081815260146020908152604080832081516101c0810183528154815260018201549381019390935260028101549183019190915260038101546060830152600481015460ff808216151560808501526101008083048216151560a08601526201000090920416151560c0840152600582015460e084015260068201549083015260078101546101208301526008810154610140830152600981018054610160840191906169629061b675565b80601f016020809104026020016040519081016040528092919081815260200182805461698e9061b675565b80156169db5780601f106169b0576101008083540402835291602001916169db565b820191906000526020600020905b8154815290600101906020018083116169be57829003601f168201915b5050509183525050600a8201546020820152600b82015460409091019060ff166003811115616a1a57634e487b7160e01b600052602160045260246000fd5b6003811115616a3957634e487b7160e01b600052602160045260246000fd5b905250905060005b8160200151811015616b3c578151600090616a5d90839061b5e7565b600081815260136020526040812080549293509091616a7b9061b675565b80601f0160208091040260200160405190810160405280929190818152602001828054616aa79061b675565b8015616af45780601f10616ac957610100808354040283529160200191616af4565b820191906000526020600020905b815481529060010190602001808311616ad757829003601f168201915b5050505050905080868481518110616b1c57634e487b7160e01b600052603260045260246000fd5b602002602001018190525050508080616b349061b6b0565b915050616a41565b50508080616b499061b6b0565b9150506168a2565b6029546001600160a01b031681565b3390565b600080805b601c54811015616bd457836001600160a01b0316601c8281548110616b9e57634e487b7160e01b600052603260045260246000fd5b6000918252602090912001546001600160a01b03161415616bc25760019150616bd4565b80616bcc8161b6b0565b915050616b69565b5092915050565b60008060005b601a54811015616c4f57836001600160a01b0316601a8281548110616c1657634e487b7160e01b600052603260045260246000fd5b6000918252602090912001546001600160a01b03161415616c3d5760019150809250616c4f565b80616c478161b6b0565b915050616be1565b508015616d2e57601a8054616c669060019061b632565b81548110616c8457634e487b7160e01b600052603260045260246000fd5b600091825260209091200154601a80546001600160a01b039092169184908110616cbe57634e487b7160e01b600052603260045260246000fd5b9060005260206000200160006101000a8154816001600160a01b0302191690836001600160a01b03160217905550601a805480616d0b57634e487b7160e01b600052603160045260246000fd5b600082815260209020810160001990810180546001600160a01b03191690550190555b505050565b60008060005b601b54811015616da757836001600160a01b0316601b8281548110616d6e57634e487b7160e01b600052603260045260246000fd5b6000918252602090912001546001600160a01b03161415616d955760019150809250616da7565b80616d9f8161b6b0565b915050616d39565b508015616d2e57601b8054616dbe9060019061b632565b81548110616ddc57634e487b7160e01b600052603260045260246000fd5b600091825260209091200154601b80546001600160a01b039092169184908110616e1657634e487b7160e01b600052603260045260246000fd5b9060005260206000200160006101000a8154816001600160a01b0302191690836001600160a01b03160217905550601b805480616d0b57634e487b7160e01b600052603160045260246000fd5b60295460408051632abe0d5f60e11b815290516000926001600160a01b03169163557c1abe916004808301926020929190829003018186803b158015616ea857600080fd5b505afa925050508015616ed8575060408051601f3d908101601f19168201909252616ed591810190619b7c565b60015b616f37573d808015616f06576040519150601f19603f3d011682016040523d82523d6000602084013e616f0b565b606091505b5060008051602061b73783398151915281604051616f29919061a1bc565b60405180910390a150616f39565b505b602960009054906101000a90046001600160a01b03166001600160a01b031663557c1abe6040518163ffffffff1660e01b815260040160206040518083038186803b158015616f8757600080fd5b505afa158015616f9b573d6000803e3d6000fd5b505050506040513d601f19601f82011682018060405250810190616fbf9190619b7c565b90506001600160a01b038116616fe75760405162461bcd60e51b8152600401610eb39061a73d565b6000816001600160a01b031633604051602401617004919061a0aa565b60408051601f198184030181529181526020820180516001600160e01b0316631f5ac9c560e11b17905251617039919061a080565b6000604051808303816000865af19150503d8060008114617076576040519150601f19603f3d011682016040523d82523d6000602084013e61707b565b606091505b505090506000826001600160a01b03163360405160240161709c919061a0aa565b60408051601f198184030181529181526020820180516001600160e01b03166358563d2160e01b179052516170d1919061a080565b6000604051808303816000865af19150503d806000811461710e576040519150601f19603f3d011682016040523d82523d6000602084013e617113565b606091505b5050905081806171205750805b616d2e5760405162461bcd60e51b8152600401610eb39061a3c3565b600080546001600160a01b038381166001600160a01b0319831681178455604051919092169283917f8be0079c531659141344cd1fd0a4f28419497f9722a3daafe3b4186f6b6457e09190a35050565b600061107d828461b632565b6029546040805163ca64f9e760e01b815290516000926001600160a01b03169163ca64f9e7916004808301926020929190829003018186803b1580156171dd57600080fd5b505afa1580156171f1573d6000803e3d6000fd5b505050506040513d601f19601f820116820180604052508101906172159190619b7c565b6001600160a01b0316141561723c5760405162461bcd60e51b8152600401610eb39061acdf565b6029546040805163ca64f9e760e01b815290516000926001600160a01b03169163ca64f9e7916004808301926020929190829003018186803b15801561728157600080fd5b505afa158015617295573d6000803e3d6000fd5b505050506040513d601f19601f820116820180604052508101906172b99190619b7c565b6040516304ada21f60e21b81529091506001600160a01b038216906312b6887c906172ea908690869060040161b470565b602060405180830381600087803b15801561730457600080fd5b505af1158015617318573d6000803e3d6000fd5b505050506040513d601f19601f8201168201806040525081019061733c9190619d6d565b6173585760405162461bcd60e51b8152600401610eb39061a7b9565b6001600160a01b0382166000908152601760205260408120805485929061738090849061b5e7565b92505081905550816001600160a01b03167f5aa5d56140767016c877a5333ac3e1ad31a09051098a8fdf7297c4b64530a94284604051615d74919061a077565b600080805b601a54811015616bd457836001600160a01b0316601a82815481106173fa57634e487b7160e01b600052603260045260246000fd5b6000918252602090912001546001600160a01b0316141561741e5760019150616bd4565b806174288161b6b0565b9150506173c5565b60295460408051632a49798160e11b815290516000926001600160a01b031691635492f302916004808301926020929190829003018186803b15801561747557600080fd5b505afa158015617489573d6000803e3d6000fd5b505050506040513d601f19601f820116820180604052508101906174ad9190619b7c565b6001600160a01b031614156174d45760405162461bcd60e51b8152600401610eb39061b111565b60295460408051630855d15160e01b815290516000926001600160a01b031691630855d151916004808301926020929190829003018186803b15801561751957600080fd5b505afa15801561752d573d6000803e3d6000fd5b505050506040513d601f19601f820116820180604052508101906175519190619b7c565b6001600160a01b031614156175785760405162461bcd60e51b8152600401610eb39061ae4d565b602954604080516304e76c8f60e01b815290516000926001600160a01b0316916304e76c8f916004808301926020929190829003018186803b1580156175bd57600080fd5b505afa1580156175d1573d6000803e3d6000fd5b505050506040513d601f19601f820116820180604052508101906175f59190619b7c565b6001600160a01b0316141561761c5760405162461bcd60e51b8152600401610eb39061a624565b61762581611688565b8061763f5750600081815260146020526040902060030154155b61765b5760405162461bcd60e51b8152600401610eb39061ac3b565b600081815260146020526040902060040154610100900460ff16156176925760405162461bcd60e51b8152600401610eb39061aeb9565b6000818152601960209081526040808320805482518185028101850190935280835291929091908301828280156176f257602002820191906000526020600020905b81546001600160a01b031681526001909101906020018083116176d4575b50505050509050600081516001600160401b0381111561772257634e487b7160e01b600052604160045260246000fd5b60405190808252806020026020018201604052801561775557816020015b60608152602001906001900390816177405790505b509050600082516001600160401b0381111561778157634e487b7160e01b600052604160045260246000fd5b6040519080825280602002602001820160405280156177aa578160200160208202803683370190505b50905060005b835181101561792d5760008482815181106177db57634e487b7160e01b600052603260045260246000fd5b6020908102919091018101516000888152600d835260408082206001600160a01b03841683529093529182208054919350906178169061b675565b80601f01602080910402602001604051908101604052809291908181526020018280546178429061b675565b801561788f5780601f106178645761010080835404028352916020019161788f565b820191906000526020600020905b81548152906001019060200180831161787257829003601f168201915b50505060008a8152600e602090815260408083206001600160a01b0389168452909152902054885193945092849250889150869081106178df57634e487b7160e01b600052603260045260246000fd5b60200260200101819052508085858151811061790b57634e487b7160e01b600052603260045260246000fd5b60200260200101818152505050505080806179259061b6b0565b9150506177b0565b5060006179d86064602960009054906101000a90046001600160a01b03166001600160a01b031663ea19733c6040518163ffffffff1660e01b815260040160206040518083038186803b15801561798357600080fd5b505afa158015617997573d6000803e3d6000fd5b505050506040513d601f19601f820116820180604052508101906179bb9190619e47565b86516179c7919061b613565b6179d1919061b5ff565b6001619721565b60408051602081019091526000808252919250905b8451811015617ad6576000805b8651811015617a8b57617a5b878481518110617a2657634e487b7160e01b600052603260045260246000fd5b6020026020010151888381518110617a4e57634e487b7160e01b600052603260045260246000fd5b6020026020010151613be2565b15617a7957617a6b60018361b5e7565b9150848210617a7957617a8b565b80617a838161b6b0565b9150506179fa565b50838110617ac357858281518110617ab357634e487b7160e01b600052603260045260246000fd5b6020026020010151925050617ad6565b5080617ace8161b6b0565b9150506179ed565b506000805b8451811015617bbd576000805b8651811015617b7257868181518110617b1157634e487b7160e01b600052603260045260246000fd5b6020026020010151878481518110617b3957634e487b7160e01b600052603260045260246000fd5b60200260200101511415617b6057617b5260018361b5e7565b9150858210617b6057617b72565b80617b6a8161b6b0565b915050617ae8565b50848110617baa57858281518110617b9a57634e487b7160e01b600052603260045260246000fd5b6020026020010151925050617bbd565b5080617bb58161b6b0565b915050617adb565b506000617bc988611c49565b8015617beb5750617be98360405180602001604052806000815250613be2565b155b8015617bf657508115155b905060005b875181101561836e576000888281518110617c2657634e487b7160e01b600052603260045260246000fd5b602002602001015190506000600c60008c81526020019081526020016000206000836001600160a01b03166001600160a01b031681526020019081526020016000205490506000600b6000846001600160a01b03166001600160a01b0316815260200190815260200160002060008d815260200190815260200160002060009054906101000a900460ff169050600060156000856001600160a01b03166001600160a01b03168152602001908152602001600020905081156181ee576001600160a01b038416600090815260156020526040812060028101805460ff19166001908117909155600390910191909155861515148015617d255750826001145b80617d3a575085158015617d3a575082600114155b156181ce5760295460408051632a49798160e11b815290516000926001600160a01b031691635492f302916004808301926020929190829003018186803b158015617d8457600080fd5b505afa158015617d98573d6000803e3d6000fd5b505050506040513d601f19601f82011682018060405250810190617dbc9190619b7c565b90506000602960009054906101000a90046001600160a01b03166001600160a01b0316630855d1516040518163ffffffff1660e01b815260040160206040518083038186803b158015617e0e57600080fd5b505afa158015617e22573d6000803e3d6000fd5b505050506040513d601f19601f82011682018060405250810190617e469190619b7c565b90506000602960009054906101000a90046001600160a01b03166001600160a01b03166304e76c8f6040518163ffffffff1660e01b815260040160206040518083038186803b158015617e9857600080fd5b505afa158015617eac573d6000803e3d6000fd5b505050506040513d601f19601f82011682018060405250810190617ed09190619b7c565b90506000836001600160a01b03166311815086896040518263ffffffff1660e01b8152600401617f00919061a0aa565b60206040518083038186803b158015617f1857600080fd5b505afa158015617f2c573d6000803e3d6000fd5b505050506040513d601f19601f82011682018060405250810190617f509190619b7c565b9050826001600160a01b0316631b6d990a8c602960009054906101000a90046001600160a01b03166001600160a01b0316630b08bfd96040518163ffffffff1660e01b815260040160206040518083038186803b158015617fb057600080fd5b505afa158015617fc4573d6000803e3d6000fd5b505050506040513d601f19601f82011682018060405250810190617fe89190619e47565b617ff2919061b613565b836040518363ffffffff1660e01b815260040161801092919061b487565b602060405180830381600087803b15801561802a57600080fd5b505af115801561803e573d6000803e3d6000fd5b505050506040513d601f19601f820116820180604052508101906180629190619d6d565b61807e5760405162461bcd60e51b8152600401610eb39061a774565b816001600160a01b031663e0ca50948c602960009054906101000a90046001600160a01b03166001600160a01b031663f80de0a06040518163ffffffff1660e01b815260040160206040518083038186803b1580156180dc57600080fd5b505afa1580156180f0573d6000803e3d6000fd5b505050506040513d601f19601f820116820180604052508101906181149190619e47565b61811e919061b613565b836040518363ffffffff1660e01b815260040161813c92919061b470565b602060405180830381600087803b15801561815657600080fd5b505af115801561816a573d6000803e3d6000fd5b505050506040513d601f19601f8201168201806040525081019061818e9190619d6d565b6181aa5760405162461bcd60e51b8152600401610eb39061ac98565b60018560080160008282546181bf919061b5e7565b909155506181e9945050505050565b60018160090160008282546181e3919061b5e7565b90915550505b6182dc565b6001600160a01b038416600090815260156020526040812060030180546001929061821a90849061b5e7565b909155505060295460408051634fda48fb60e11b815290516001600160a01b0390921691639fb491f691600480820192602092909190829003018186803b15801561826457600080fd5b505afa158015618278573d6000803e3d6000fd5b505050506040513d601f19601f8201168201806040525081019061829c9190619e47565b6001600160a01b03851660009081526015602052604090206003015414156182dc5760058101805460ff191690556182d384616bdb565b6182dc84616d33565b60006001820155600581015460ff1680156182fd57506182fb846173c0565b155b156183575761830b84616d33565b601a80546001810182556000919091527f057c384a7d1c54f3a1b2e5e67b2617b8224fdfd1ea7234eea573a6ff665ff63e0180546001600160a01b0319166001600160a01b0386161790555b5050505080806183669061b6b0565b915050617bfb565b50600088815260146020908152604090912060048101805461ff00191661010017905584516183a592600990920191860190619987565b506000888152601460205260409020600a018290558015618ab957600088815260146020526040812080546001909101549091906183e3908361b5e7565b9050815b81811015618886576000818152601360209081526040808320600101546029548251632a49798160e11b815292516001600160a01b0392831695949190921692635492f3029260048083019392829003018186803b15801561844857600080fd5b505afa15801561845c573d6000803e3d6000fd5b505050506040513d601f19601f820116820180604052508101906184809190619b7c565b90506000602960009054906101000a90046001600160a01b03166001600160a01b0316630855d1516040518163ffffffff1660e01b815260040160206040518083038186803b1580156184d257600080fd5b505afa1580156184e6573d6000803e3d6000fd5b505050506040513d601f19601f8201168201806040525081019061850a9190619b7c565b90506000602960009054906101000a90046001600160a01b03166001600160a01b03166304e76c8f6040518163ffffffff1660e01b815260040160206040518083038186803b15801561855c57600080fd5b505afa158015618570573d6000803e3d6000fd5b505050506040513d601f19601f820116820180604052508101906185949190619b7c565b90506000836001600160a01b03166311815086866040518263ffffffff1660e01b81526004016185c4919061a0aa565b60206040518083038186803b1580156185dc57600080fd5b505afa1580156185f0573d6000803e3d6000fd5b505050506040513d601f19601f820116820180604052508101906186149190619b7c565b9050826001600160a01b0316631b6d990a8b602960009054906101000a90046001600160a01b03166001600160a01b031663abb10b9b6040518163ffffffff1660e01b815260040160206040518083038186803b15801561867457600080fd5b505afa158015618688573d6000803e3d6000fd5b505050506040513d601f19601f820116820180604052508101906186ac9190619e47565b6186b6919061b613565b836040518363ffffffff1660e01b81526004016186d492919061b487565b602060405180830381600087803b1580156186ee57600080fd5b505af1158015618702573d6000803e3d6000fd5b505050506040513d601f19601f820116820180604052508101906187269190619d6d565b6187425760405162461bcd60e51b8152600401610eb39061aa4d565b816001600160a01b031663e0ca50948b602960009054906101000a90046001600160a01b03166001600160a01b03166330c0bb796040518163ffffffff1660e01b815260040160206040518083038186803b1580156187a057600080fd5b505afa1580156187b4573d6000803e3d6000fd5b505050506040513d601f19601f820116820180604052508101906187d89190619e47565b6187e2919061b613565b836040518363ffffffff1660e01b815260040161880092919061b470565b602060405180830381600087803b15801561881a57600080fd5b505af115801561882e573d6000803e3d6000fd5b505050506040513d601f19601f820116820180604052508101906188529190619d6d565b61886e5760405162461bcd60e51b8152600401610eb39061abeb565b5050505050808061887e9061b6b0565b9150506183e7565b5060008a8152601460205260408120600b01805460ff1916600190811790915560248054919290916188b990849061b5e7565b909155505060295460408051637b39b17f60e11b815290516000926001600160a01b03169163f67362fe916004808301926020929190829003018186803b15801561890357600080fd5b505afa158015618917573d6000803e3d6000fd5b505050506040513d601f19601f8201168201806040525081019061893b9190619b7c565b6001600160a01b031614156189625760405162461bcd60e51b8152600401610eb39061a667565b60295460408051637b39b17f60e11b815290516000926001600160a01b03169163f67362fe916004808301926020929190829003018186803b1580156189a757600080fd5b505afa1580156189bb573d6000803e3d6000fd5b505050506040513d601f19601f820116820180604052508101906189df9190619b7c565b6040516348257dc960e01b81529091506001600160a01b038216906348257dc990618a0e908e9060040161a077565b600060405180830381600087803b158015618a2857600080fd5b505af1925050508015618a39575060015b618a98573d808015618a67576040519150601f19603f3d011682016040523d82523d6000602084013e618a6c565b606091505b5060008051602061b73783398151915281604051618a8a919061a1bc565b60405180910390a150618ab1565b600160236000828254618aab919061b5e7565b90915550505b505050618aee565b6000888152601460205260408120600b01805460ff191660021790556025805460019290618ae890849061b5e7565b90915550505b600160236000828254618b01919061b5e7565b90915550506000888152601460205260408120600201546026805491929091618b2b90849061b5e7565b90915550506000888152601460205260408120600301546027805491929091618b5590849061b5e7565b909155505060008881526013602052604090819020600181015491516001600160a01b03909216917f43916c3ae75995d24cc89b466ed08e6dba74d325f7957f9b37b05f150e12918e91618ba89161a291565b60405180910390a25050505050505050565b805160609060005b81811015618c085780848281518110618beb57634e487b7160e01b600052603260045260246000fd5b602090810291909101015280618c008161b6b0565b915050618bc2565b509192915050565b60606000825111618c335760405162461bcd60e51b8152600401610eb39061a6b3565b81518060005b81811015618dae57600083618c4c614038565b878481518110618c6c57634e487b7160e01b600052603260045260246000fd5b6020026020010151604051602001618c8592919061a09c565b6040516020818303038152906040528051906020012060001c618ca8919061b6cb565b618cb390600161b5e7565b9050600086618cc360018461b632565b81518110618ce157634e487b7160e01b600052603260045260246000fd5b6020026020010151905086600186618cf9919061b632565b81518110618d1757634e487b7160e01b600052603260045260246000fd5b602002602001015187600184618d2d919061b632565b81518110618d4b57634e487b7160e01b600052603260045260246000fd5b60209081029190910101528087618d6360018861b632565b81518110618d8157634e487b7160e01b600052603260045260246000fd5b6020908102919091010152618d9760018661b632565b945050508080618da69061b6b0565b915050618c39565b50929392505050565b6000601f54602154618dc9919061b632565b9050602960009054906101000a90046001600160a01b03166001600160a01b031663e3115d3c6040518163ffffffff1660e01b815260040160206040518083038186803b158015618e1957600080fd5b505afa158015618e2d573d6000803e3d6000fd5b505050506040513d601f19601f82011682018060405250810190618e519190619e47565b8111156118235760005b602954604080516307d630cb60e41b81529051618edf926001600160a01b031691637d630cb0916004808301926020929190829003018186803b158015618ea157600080fd5b505afa158015618eb5573d6000803e3d6000fd5b505050506040513d601f19601f82011682018060405250810190618ed99190619e47565b83619738565b8110156127ee57601f5460009081526014602052604081208054600190910154909190618f0c908361b5e7565b9050815b81811015618f3357618f2181611e95565b80618f2b8161b6b0565b915050618f10565b50618f3f601f546127f2565b601f546040517f72c2fcc891fe835b86fc8bb9abdc52adf52499c52289b3c49e1461eabea2717590600090a250508080618f789061b6b0565b915050618e5b565b600061107d828461b5e7565b60005b601c54811015611823576000601c8281548110618fbc57634e487b7160e01b600052603260045260246000fd5b60009182526020808320909101546001600160a01b0316808352601590915260409091206001810154919250906190575760058101805461ffff1916905561900382619747565b61900c82616bdb565b61901582616d33565b816001600160a01b03167f9dadcedba048e92b943ea1c5861cee1df63a566d7f795869c004780c1c698e2b4260405161904e919061a077565b60405180910390a25b505080806190649061b6b0565b915050618f8f565b60225460009081526014602052604090206004015460ff166190a05760405162461bcd60e51b8152600401610eb39061ad6a565b60225460009081526014602052604090206004015462010000900460ff16156190db5760405162461bcd60e51b8152600401610eb39061aae8565b60006191ff619174601a80549050602960009054906101000a90046001600160a01b03166001600160a01b031663dfeceed76040518163ffffffff1660e01b815260040160206040518083038186803b15801561913757600080fd5b505afa15801561914b573d6000803e3d6000fd5b505050506040513d601f19601f8201168201806040525081019061916f9190619e47565b619738565b602960009054906101000a90046001600160a01b03166001600160a01b031663bd40ef4c6040518163ffffffff1660e01b815260040160206040518083038186803b1580156191c257600080fd5b505afa1580156191d6573d6000803e3d6000fd5b505050506040513d601f19601f820116820180604052508101906191fa9190619e47565b619721565b601a546029546040805163189460df60e31b8152905193945091926001600160a01b039091169163c4a306f8916004808301926020929190829003018186803b15801561924b57600080fd5b505afa15801561925f573d6000803e3d6000fd5b505050506040513d601f19601f820116820180604052508101906192839190619e47565b600154619290904261b632565b106127ee57602280546000908152601460209081526040808320600301869055925482528282206002018590556029548351631b4930b560e11b81529351929361933f936001600160a01b0390921692633692616a92600480840193829003018186803b15801561930057600080fd5b505afa158015619314573d6000803e3d6000fd5b505050506040513d601f19601f820116820180604052508101906193389190619e47565b4290618f80565b905060006193d3602960009054906101000a90046001600160a01b03166001600160a01b03166372e540306040518163ffffffff1660e01b815260040160206040518083038186803b15801561939457600080fd5b505afa1580156193a8573d6000803e3d6000fd5b505050506040513d601f19601f820116820180604052508101906193cc9190619e47565b8390618f80565b60228054600090815260146020526040808220600501869055825482528082206006018490559154815220600401805462ff0000191662010000179055905060018410801590619424575060018310155b6194405760405162461bcd60e51b8152600401610eb39061a5da565b600061944c8585614557565b9050600081516001600160401b0381111561947757634e487b7160e01b600052604160045260246000fd5b6040519080825280602002602001820160405280156194a0578160200160208202803683370190505b50905060005b825181101561955f57601a8382815181106194d157634e487b7160e01b600052603260045260246000fd5b6020026020010151815481106194f757634e487b7160e01b600052603260045260246000fd5b9060005260206000200160009054906101000a90046001600160a01b031682828151811061953557634e487b7160e01b600052603260045260246000fd5b6001600160a01b0390921660209283029190910190910152806195578161b6b0565b9150506194a6565b5060005b82518110156196dd57600082828151811061958e57634e487b7160e01b600052603260045260246000fd5b60200260200101519050600060156000836001600160a01b03166001600160a01b0316815260200190815260200160002090506195ca82616bdb565b6195d382619877565b61962357601b80546001810182556000919091527f3ad8aa4f87544323a9d1e5dd902f40c356527a7955687113db5f9a85ad579dc10180546001600160a01b0319166001600160a01b0384161790555b602280546000908152601960209081526040822080546001808201835591845291832090910180546001600160a01b0319166001600160a01b03871617905591548383015560028301805460ff1916905560078301805490919061968890849061b5e7565b90915550506022546040517fe4ee2dfabe57cee15e3f558890b20455f54c1fa0718e5276faad70a6500e6b8c906196c090859061a0aa565b60405180910390a2505080806196d59061b6b0565b915050619563565b504260019081556022546196f091618f80565b6022556196fb614038565b601d81905550600160236000828254619714919061b5e7565b9091555050505050505050565b600081831015619731578161107d565b5090919050565b6000818310619731578161107d565b60008060005b601c548110156197bb57836001600160a01b0316601c828154811061978257634e487b7160e01b600052603260045260246000fd5b6000918252602090912001546001600160a01b031614156197a957600191508092506197bb565b806197b38161b6b0565b91505061974d565b508015616d2e57601c80546197d29060019061b632565b815481106197f057634e487b7160e01b600052603260045260246000fd5b600091825260209091200154601c80546001600160a01b03909216918490811061982a57634e487b7160e01b600052603260045260246000fd5b9060005260206000200160006101000a8154816001600160a01b0302191690836001600160a01b03160217905550601c805480616d0b57634e487b7160e01b600052603160045260246000fd5b600080805b601b54811015616bd457836001600160a01b0316601b82815481106198b157634e487b7160e01b600052603260045260246000fd5b6000918252602090912001546001600160a01b031614156198d55760019150616bd4565b806198df8161b6b0565b91505061987c565b5080546198f39061b675565b6000825580601f106199055750611823565b601f0160209004906000526020600020908101906118239190619a99565b6040518060e001604052806060815260200160006001600160a01b03168152602001600081526020016000815260200160608152602001606081526020016000600381111561998257634e487b7160e01b600052602160045260246000fd5b905290565b8280546199939061b675565b90600052602060002090601f0160209004810192826199b557600085556199fb565b82601f106199ce57805160ff19168380011785556199fb565b828001600101855582156199fb579182015b828111156199fb5782518255916020019190600101906199e0565b50619a07929150619a99565b5090565b604051806101c00160405280600081526020016000815260200160008152602001600081526020016000151581526020016000151581526020016000151581526020016000815260200160008152602001600081526020016000815260200160608152602001600081526020016000600381111561998257634e487b7160e01b600052602160045260246000fd5b5b80821115619a075760008155600101619a9a565b60008083601f840112619abf578182fd5b5081356001600160401b03811115619ad5578182fd5b6020830191508360208083028501011115619aef57600080fd5b9250929050565b600082601f830112619b06578081fd5b81356001600160401b03811115619b1f57619b1f61b70b565b619b32601f8201601f191660200161b58f565b818152846020838601011115619b46578283fd5b816020850160208301379081016020019190915292915050565b600060208284031215619b71578081fd5b81356119bc8161b721565b600060208284031215619b8d578081fd5b81516119bc8161b721565b60008060408385031215619baa578081fd5b8235619bb58161b721565b946020939093013593505050565b600080600060608486031215619bd7578081fd5b8335619be28161b721565b95602085013595506040909401359392505050565b600080600080600060808688031215619c0e578081fd5b85356001600160401b0380821115619c24578283fd5b818801915088601f830112619c37578283fd5b81356020619c4c619c478361b5b8565b61b58f565b82815281810190858301875b85811015619c8157619c6f8f8684358b0101619af6565b84529284019290840190600101619c58565b50909a50505089013592505080821115619c99578283fd5b619ca589838a01619aae565b9096509450604088013593506060880135915080821115619cc4578283fd5b50619cd188828901619af6565b9150509295509295909350565b60006020808385031215619cf0578182fd5b82356001600160401b03811115619d05578283fd5b8301601f81018513619d15578283fd5b8035619d23619c478261b5b8565b8181528381019083850185840285018601891015619d3f578687fd5b8694505b83851015619d61578035835260019490940193918501918501619d43565b50979650505050505050565b600060208284031215619d7e578081fd5b815180151581146119bc578182fd5b60008060408385031215619d9f578182fd5b82356001600160401b0380821115619db5578384fd5b619dc186838701619af6565b93506020850135915080821115619dd6578283fd5b50619de385828601619af6565b9150509250929050565b60008060408385031215619dff578182fd5b82356001600160401b03811115619e14578283fd5b619e2085828601619af6565b95602094909401359450505050565b600060208284031215619e40578081fd5b5035919050565b600060208284031215611aea578081fd5b60008060408385031215619e6a578182fd5b823591506020830135619e7c8161b721565b809150509250929050565b600080600080600060a08688031215619e9e578283fd5b8535945060208601359350604086013592506060860135915060808601356001600160401b03811115619ecf578182fd5b619cd188828901619af6565b60008060008060808587031215619ef0578182fd5b8435935060208501356001600160401b03811115619f0c578283fd5b619f1887828801619af6565b949794965050505060408301359260600135919050565b60008060408385031215619f41578182fd5b50508035926020909101359150565b60008060008060808587031215619f65578182fd5b84359350602085013592506040850135619f7e8161b721565b9396929550929360600135925050565b15159052565b60008151808452619fac81602086016020860161b649565b601f01601f19169290920160200192915050565b60048110619fde57634e487b7160e01b600052602160045260246000fd5b9052565b600a815269636f6d6d6974566f746560b01b602082015260400190565b600a8152690c6dedadad2e890c2e6d60b31b602082015260400190565b60098152686e756d546f6b656e7360b81b602082015260400190565b60609190911b6bffffffffffffffffffffffff1916815260140190565b60609290921b6bffffffffffffffffffffffff19168252601482015260340190565b90815260200190565b6000825161a09281846020870161b649565b9190910192915050565b918252602082015260400190565b6001600160a01b0391909116815260200190565b6001600160a01b039b909b168b5260208b019990995296151560408a01526060890195909552608088019390935290151560a0870152151560c086015260e08501526101008401526101208301526101408201526101600190565b6000602080830181845280855180835260408601915060408482028701019250838701855b8281101561a16c57603f1988860301845261a15a858351619f94565b9450928501929085019060010161a13e565b5092979650505050505050565b6020808252825182820181905260009190848201906040850190845b818110156137ee5783518352928401929184019160010161a195565b901515815260200190565b60006020825261107d6020830184619f94565b600060e0825261a1e260e083018a619f94565b6001600160a01b03891660208401526040830188905260608301879052828103608084015261a2118187619f94565b905082810360a084015261a2258186619f94565b91505061a23560c0830184619fc0565b98975050505050505050565b60006040825261a2546040830185619f94565b828103602084015261a2668185619f94565b95945050505050565b60006040825261a2826040830185619f94565b90508260208301529392505050565b600060208083528184548360028204905060018083168061a2b357607f831692505b85831081141561a2d157634e487b7160e01b87526022600452602487fd5b61a2dd83878a0161a077565b81801561a2f1576001811461a3025761a32c565b60ff1986168252878201965061a32c565b61a30b8b61b5db565b895b8681101561a3265781548482015290850190890161a30d565b83019750505b50949998505050505050505050565b6020808252601c908201527f576f726b657220697320616c7265616479207265676973746572656400000000604082015260600190565b60208082526031908201527f676976656e204461746142617463682073686f756c6420626520415050524f5660408201527011510b08185b99081a5d081a5cc81b9bdd607a1b606082015260800190565b60208082526025908201527f72656365697665722072656a6563746564205f7265747269657665534675656c6040820152640818d85b1b60da1b606082015260800190565b6020808252602f908201527f636f6d6d697420706572696f64206e6565647320746f206265206f70656e206660408201526e1bdc881d1a1a5cc818985d18da1259608a1b606082015260800190565b60208082526052908201527f4e6f74207468652073616d6520766f7465207468616e20636f6d6d697465642c60408201527f20696d706f737369626c6520746f206d61746368207769746820676976656e206060820152715f73616c742026205f636c656172566f746560701b608082015260a00190565b60208082526056908201527f4e6f74207468652073616d652068617368207468616e20636f6d6d697465642c60408201527f20696d706f737369626c6520746f206d61746368207769746820676976656e206060820152750bee6c2d8e8404c40bec6d8cac2e492a08ca690c2e6d60531b608082015260a00190565b60208082526026908201527f4f776e61626c653a206e6577206f776e657220697320746865207a65726f206160408201526564647265737360d01b606082015260800190565b60208082526029908201527f6b206f72204e20617265206e6f74204f4b20647572696e672072616e646f6d2060408201526839b2b632b1ba34b7b760b91b606082015260800190565b6020808252602a908201527f4661696c20647572696e6720616c6c6f636174696f6e3a206e6f7420656e6f75604082015269676820776f726b65727360b01b606082015260800190565b60208082526023908201527f5265776172644d616e61676572206973206e756c6c20696e20506172616d657460408201526265727360e81b606082015260800190565b6020808252602c908201527f436f6d706c69616e636553797374656d206e756c6c20696e20506172616d657460408201526b195c9cc810dbdb9d1c9858dd60a21b606082015260800190565b60208082526013908201527205f6d7941727261792e6c656e677468203e203606c1b604082015260600190565b60208082526038908201527f55736572206e6565647320746f20626520616c6c6f636174656420746f20746860408201527f697320626174636820746f20636f6d6d6974206f6e2069740000000000000000606082015260800190565b6020808252601d908201527f734675656c3a206e756c6c2041646472657373204e6f742056616c6964000000604082015260600190565b60208082526025908201527f636f756c64206e6f74207265776172642052455020696e2056616c69646174656040820152642c20312e6160d81b606082015260800190565b6020808252603f908201527f436f756c64206e6f74207265717565737420656e6f75676820616c6c6f63617460408201527f6564207374616b652c2072657175657374416c6c6f63617465645374616b6500606082015260800190565b6020808252602f908201527f5573657220686173206e6f7420636f6d6d69746564206265666f72652c20746860408201526e1d5cc818d85b89dd081c995d99585b608a1b606082015260800190565b6020808252602a908201527f53706f7474696e67206973206e6f742063757272656e746c7920656e61626c656040820152693210313c9027bbb732b960b11b606082015260800190565b6020808252601c908201527f496e70757420626f756e6461726965732061726520696e76616c696400000000604082015260600190565b60208082526036908201527f476c6f62616c206c696d69743a206578636565646564206d61782064617461206040820152753832b9103437bab916103932ba393c903630ba32b91760511b606082015260800190565b60208082526043908201527f576f726b657220686173206e6f7420656e6f75676820285f6e756d546f6b656e60408201527f732920696e206869732053797374656d5374616b6564546f6b656e42616c616e606082015262031b2960ed1b608082015260a00190565b60208082526039908201527f646c6c4d61703a20646f6573206e6f7420636f696e7461696e205f446174614260408201527f61746368496420666f7220746865206d73672073656e64657200000000000000606082015260800190565b6020808252602b908201527f75736572206d75737420686176652072657665616c656420696e20746869732060408201526a0ced2eccadc4084c2e8c6d60ab1b606082015260800190565b6020808252602e908201527f636f756c64206e6f74207265776172642052455020696e2056616c696461746560408201526d4461746142617463682c20322e6160901b606082015260800190565b60208082526005908201526404e203e20360dc1b604082015260600190565b6020808252601490820152733737ba1030903b30b634b2103837b9b4ba34b7b760611b604082015260600190565b6020808252603b908201527f43616e277420616c6c6f6361746520776f726b2c207468652063757272656e7460408201527f20626174636820697320616c726561647920616c6c6f63617465640000000000606082015260800190565b6020808252602c908201527f576f726b6572206973206e6f74207265676973746572656420736f2063616e2760408201526b3a103ab73932b3b4b9ba32b960a11b606082015260800190565b6020808252600b908201526a04e5f72616e6765203e20360ac1b604082015260600190565b6020808252818101527f4f776e61626c653a2063616c6c6572206973206e6f7420746865206f776e6572604082015260600190565b60208082526030908201527f636f756c64206e6f742072657761726420746f6b656e20696e2056616c69646160408201526f3a32a230ba30a130ba31b4161019173160811b606082015260800190565b6020808252603a908201527f5f446174614261746368496420686173206e6f7420656e6465642c206f72206e60408201527f6f7420657665727920766f74657273206861766520766f746564000000000000606082015260800190565b60208082526027908201527f636f756c64206e6f742072657761726420746f6b656e20696e2056616c6964616040820152663a32961018973160c91b606082015260800190565b60208082526022908201527f5374616b654d616e61676572206973206e756c6c20696e20506172616d657465604082015261727360f01b606082015260800190565b60208082526029908201527f6765744e756d50617373696e67546f6b656e733a20686173686573206d75737460408201526808189948195c5d585b60ba1b606082015260800190565b60208082526036908201527f43616e277420616c6c6f6361746520776f726b2c207468652063757272656e74604082015275206261746368206973206e6f7420636f6d706c65746560501b606082015260800190565b60208082526026908201527f52657665616c20706572696f64206e6f74206f70656e20666f7220746869732060408201526511185d18525160d21b606082015260800190565b60208082526027908201527f617661696c61626c65546f6b656e732073686f756c64206265203e3d205f6e756040820152666d546f6b656e7360c81b606082015260800190565b6020808252818101527f5265704d616e61676572206973206e756c6c20696e20506172616d6574657273604082015260600190565b60208082526017908201527f5f4461746142617463684964206d757374206578697374000000000000000000604082015260600190565b60208082526021908201527f5f446174614261746368496420697320616c72656164792076616c69646174656040820152601960fa1b606082015260800190565b6020808252602d908201527f53706f7474696e673a20696e70757420617272617973206d757374206265206f60408201526c0cc40e6c2daca40d8cadccee8d609b1b606082015260800190565b60208082526029908201527f557365722068617320616c726561647920636f6d6d6974656420746f207468696040820152681cc818985d18da125960ba1b606082015260800190565b60208082526022908201527f4d6178696d756d207265676973746572656420776f726b65727320616c726561604082015261647960f01b606082015260800190565b6020808252606c908201527f5573657220686173206e6f7420766f746564206d616e792074696d657320696e60408201527f206120726f7720616e64206e6565647320746f2077616974204e4f564f54455f60608201527f524547495354524154494f4e5f574149545f4455524154494f4e20746f20726560808201526b33b4b9ba32b91030b3b0b4b760a11b60a082015260c00190565b6020808252602a908201527f5f446174614261746368496420636865636b696e6720766f7465206d757374206040820152691a185d9948195b99195960b21b606082015260800190565b6020808252603b908201527f436f756c64206e6f74207769746864726177566f74696e67526967687473207460408201527f68726f7567682050726f78795374616b654465616c6c6f636174650000000000606082015260800190565b60208082526024908201527f416464726573734d616e61676572206973206e756c6c20696e20506172616d656040820152637465727360e01b606082015260800190565b60208082526034908201527f55736572206c696d69743a206578636565646564206d6178206461746120706560408201527339103437bab916103932ba393c903630ba32b91760611b606082015260800190565b6020808252600f908201526e11185d18481b5d5cdd08195e1a5cdd608a1b604082015260600190565b6020808252602c908201527f557365722068617320616c72656164792072657665616c65642c20746875732060408201526b18d85b89dd081c995d99585b60a21b606082015260800190565b60006020825282516020830152602083015160408301526040830151606083015260608301516080830152608083015161b25b60a0840182619f8e565b5060a083015161b26e60c0840182619f8e565b5060c083015161b28160e0840182619f8e565b5060e0830151610100838101919091528301516101208084019190915283015161014080840191909152830151610160808401919091528301516101c061018080850182905261b2d56101e0860184619f94565b908601516101a08681019190915286015190925061534e82860182619fc0565b600083825282602083015260606040830152615ae860608301619fe2565b60008482528360208301526080604083015261b33160808301619fe2565b9050826060830152949350505050565b600083825282602083015260606040830152615ae860608301619fff565b60008482528360208301526080604083015261b33160808301619fff565b600083825282602083015260606040830152615ae86060830161a01c565b60008482528360208301526080604083015261b3316080830161a01c565b93845260208401929092526040830152606082015260800190565b600060208252825160e0602084015261b3f1610100840182619f94565b905060018060a01b03602085015116604084015260408401516060840152606084015160808401526080840151601f19808584030160a086015261b4358383619f94565b925060a08601519150808584030160c08601525061b4538282619f94565b91505060c084015161b46860e0850182619fc0565b509392505050565b9182526001600160a01b0316602082015260400190565b9182526001600160a01b031660208201526000604082015260600190565b9283526020830191909152604082015260600190565b60008f82528e60208301528d60408301528c60608301528b151560808301528a151560a083015261b4ef60c083018b619f8e565b8860e08301528761010083015286610120830152856101408301526101c061016083015261b5216101c0830186619f94565b90508361018083015261b5386101a0830184619fc0565b9f9e505050505050505050505050505050565b6000808335601e1984360301811261b561578283fd5b8301803591506001600160401b0382111561b57a578283fd5b602001915036819003821315619aef57600080fd5b6040518181016001600160401b038111828210171561b5b05761b5b061b70b565b604052919050565b60006001600160401b0382111561b5d15761b5d161b70b565b5060209081020190565b60009081526020902090565b6000821982111561b5fa5761b5fa61b6df565b500190565b60008261b60e5761b60e61b6f5565b500490565b600081600019048311821515161561b62d5761b62d61b6df565b500290565b60008282101561b6445761b64461b6df565b500390565b60005b8381101561b66457818101518382015260200161b64c565b838111156121075750506000910152565b60028104600182168061b68957607f821691505b6020821081141561b6aa57634e487b7160e01b600052602260045260246000fd5b50919050565b600060001982141561b6c45761b6c461b6df565b5060010190565b60008261b6da5761b6da61b6f5565b500690565b634e487b7160e01b600052601160045260246000fd5b634e487b7160e01b600052601260045260246000fd5b634e487b7160e01b600052604160045260246000fd5b6001600160a01b038116811461182357600080fdfe4b87bbd93ba65ede1e2efeca735d9f7a6720bf7d6db0a8355b17dba5b64e5783a2646970667358221220b91787ff73e0286c4d8760812decb742fd959395554e0e41615435515251bf6b64736f6c63430008000033",
  "linkReferences": {
    "contracts/worksystems/DataSpotting.sol": {
      "AttributeStore": [
        {
          "length": 20,
          "start": 11248
        },
        {
          "length": 20,
          "start": 12965
        },
        {
          "length": 20,
          "start": 13071
        },
        {
          "length": 20,
          "start": 13179
        },
        {
          "length": 20,
          "start": 16980
        },
        {
          "length": 20,
          "start": 21407
        }
      ],
      "DLL": [
        {
          "length": 20,
          "start": 6639
        },
        {
          "length": 20,
          "start": 6811
        },
        {
          "length": 20,
          "start": 7373
        },
        {
          "length": 20,
          "start": 12485
        },
        {
          "length": 20,
          "start": 12647
        },
        {
          "length": 20,
          "start": 12842
        },
        {
          "length": 20,
          "start": 15010
        },
        {
          "length": 20,
          "start": 15190
        },
        {
          "length": 20,
          "start": 16176
        }
      ]
    }
  },
  "deployedLinkReferences": {
    "contracts/worksystems/DataSpotting.sol": {
      "AttributeStore": [
        {
          "length": 20,
          "start": 10893
        },
        {
          "length": 20,
          "start": 12610
        },
        {
          "length": 20,
          "start": 12716
        },
        {
          "length": 20,
          "start": 12824
        },
        {
          "length": 20,
          "start": 16625
        },
        {
          "length": 20,
          "start": 21052
        }
      ],
      "DLL": [
        {
          "length": 20,
          "start": 6284
        },
        {
          "length": 20,
          "start": 6456
        },
        {
          "length": 20,
          "start": 7018
        },
        {
          "length": 20,
          "start": 12130
        },
        {
          "length": 20,
          "start": 12292
        },
        {
          "length": 20,
          "start": 12487
        },
        {
          "length": 20,
          "start": 14655
        },
        {
          "length": 20,
          "start": 14835
        },
        {
          "length": 20,
          "start": 15821
        }
      ]
    }
  }
}