{
  "_format": "hh-sol-artifact-1",
  "contractName": "DataSpotting",
  "sourceName": "contracts/worksystems/DataSpotting.sol",
  "abi": [
    {
      "inputs": [
        {
          "internalType": "address",
          "name": "EXDT_token_",
          "type": "address"
        }
      ],
      "stateMutability": "nonpayable",
      "type": "constructor"
    },
    {
      "anonymous": false,
      "inputs": [
        {
          "indexed": false,
          "internalType": "bytes",
          "name": "bytesFailure",
          "type": "bytes"
        }
      ],
      "name": "BytesFailure",
      "type": "event"
    },
    {
      "anonymous": false,
      "inputs": [
        {
          "indexed": true,
          "internalType": "address",
          "name": "previousOwner",
          "type": "address"
        },
        {
          "indexed": true,
          "internalType": "address",
          "name": "newOwner",
          "type": "address"
        }
      ],
      "name": "OwnershipTransferred",
      "type": "event"
    },
    {
      "anonymous": false,
      "inputs": [
        {
          "indexed": true,
          "internalType": "uint256",
          "name": "DataID",
          "type": "uint256"
        },
        {
          "indexed": false,
          "internalType": "string",
          "name": "file_hash",
          "type": "string"
        },
        {
          "indexed": false,
          "internalType": "bool",
          "name": "isVotePassed",
          "type": "bool"
        }
      ],
      "name": "_BatchValidated",
      "type": "event"
    },
    {
      "anonymous": false,
      "inputs": [
        {
          "indexed": true,
          "internalType": "uint256",
          "name": "batchID",
          "type": "uint256"
        }
      ],
      "name": "_DataBatchDeleted",
      "type": "event"
    },
    {
      "anonymous": false,
      "inputs": [
        {
          "indexed": true,
          "internalType": "uint256",
          "name": "DataID",
          "type": "uint256"
        },
        {
          "indexed": false,
          "internalType": "uint256",
          "name": "numTokens",
          "type": "uint256"
        },
        {
          "indexed": true,
          "internalType": "address",
          "name": "voter",
          "type": "address"
        }
      ],
      "name": "_SpotCheckCommitted",
      "type": "event"
    },
    {
      "anonymous": false,
      "inputs": [
        {
          "indexed": true,
          "internalType": "uint256",
          "name": "DataID",
          "type": "uint256"
        },
        {
          "indexed": false,
          "internalType": "uint256",
          "name": "numTokens",
          "type": "uint256"
        },
        {
          "indexed": false,
          "internalType": "uint256",
          "name": "votesFor",
          "type": "uint256"
        },
        {
          "indexed": false,
          "internalType": "uint256",
          "name": "votesAgainst",
          "type": "uint256"
        },
        {
          "indexed": true,
          "internalType": "uint256",
          "name": "choice",
          "type": "uint256"
        },
        {
          "indexed": true,
          "internalType": "address",
          "name": "voter",
          "type": "address"
        }
      ],
      "name": "_SpotCheckRevealed",
      "type": "event"
    },
    {
      "anonymous": false,
      "inputs": [
        {
          "indexed": true,
          "internalType": "uint256",
          "name": "DataID",
          "type": "uint256"
        },
        {
          "indexed": false,
          "internalType": "string",
          "name": "file_hash",
          "type": "string"
        },
        {
          "indexed": false,
          "internalType": "string",
          "name": "URL_domain",
          "type": "string"
        },
        {
          "indexed": true,
          "internalType": "address",
          "name": "sender",
          "type": "address"
        }
      ],
      "name": "_SpotSubmitted",
      "type": "event"
    },
    {
      "anonymous": false,
      "inputs": [
        {
          "indexed": false,
          "internalType": "uint256",
          "name": "numTokens",
          "type": "uint256"
        },
        {
          "indexed": true,
          "internalType": "address",
          "name": "voter",
          "type": "address"
        }
      ],
      "name": "_StakeAllocated",
      "type": "event"
    },
    {
      "anonymous": false,
      "inputs": [
        {
          "indexed": true,
          "internalType": "uint256",
          "name": "DataID",
          "type": "uint256"
        },
        {
          "indexed": true,
          "internalType": "address",
          "name": "voter",
          "type": "address"
        }
      ],
      "name": "_TokensRescued",
      "type": "event"
    },
    {
      "anonymous": false,
      "inputs": [
        {
          "indexed": false,
          "internalType": "uint256",
          "name": "numTokens",
          "type": "uint256"
        },
        {
          "indexed": true,
          "internalType": "address",
          "name": "voter",
          "type": "address"
        }
      ],
      "name": "_VotingRightsWithdrawn",
      "type": "event"
    },
    {
      "anonymous": false,
      "inputs": [
        {
          "indexed": true,
          "internalType": "uint256",
          "name": "batchID",
          "type": "uint256"
        },
        {
          "indexed": false,
          "internalType": "address",
          "name": "worker",
          "type": "address"
        }
      ],
      "name": "_WorkAllocated",
      "type": "event"
    },
    {
      "anonymous": false,
      "inputs": [
        {
          "indexed": true,
          "internalType": "address",
          "name": "worker",
          "type": "address"
        },
        {
          "indexed": false,
          "internalType": "uint256",
          "name": "timestamp",
          "type": "uint256"
        }
      ],
      "name": "_WorkerRegistered",
      "type": "event"
    },
    {
      "anonymous": false,
      "inputs": [
        {
          "indexed": true,
          "internalType": "address",
          "name": "worker",
          "type": "address"
        },
        {
          "indexed": false,
          "internalType": "uint256",
          "name": "timestamp",
          "type": "uint256"
        }
      ],
      "name": "_WorkerUnregistered",
      "type": "event"
    },
    {
      "inputs": [],
      "name": "AcceptedBatchsCounter",
      "outputs": [
        {
          "internalType": "uint256",
          "name": "",
          "type": "uint256"
        }
      ],
      "stateMutability": "view",
      "type": "function"
    },
    {
      "inputs": [],
      "name": "AllTxsCounter",
      "outputs": [
        {
          "internalType": "uint256",
          "name": "",
          "type": "uint256"
        }
      ],
      "stateMutability": "view",
      "type": "function"
    },
    {
      "inputs": [],
      "name": "AllocatedBatchCursor",
      "outputs": [
        {
          "internalType": "uint256",
          "name": "",
          "type": "uint256"
        }
      ],
      "stateMutability": "view",
      "type": "function"
    },
    {
      "inputs": [],
      "name": "AmIRegistered",
      "outputs": [
        {
          "internalType": "bool",
          "name": "passed",
          "type": "bool"
        }
      ],
      "stateMutability": "view",
      "type": "function"
    },
    {
      "inputs": [
        {
          "internalType": "string",
          "name": "_a",
          "type": "string"
        },
        {
          "internalType": "string",
          "name": "_b",
          "type": "string"
        }
      ],
      "name": "AreStringsEqual",
      "outputs": [
        {
          "internalType": "bool",
          "name": "",
          "type": "bool"
        }
      ],
      "stateMutability": "pure",
      "type": "function"
    },
    {
      "inputs": [],
      "name": "BatchCheckingCursor",
      "outputs": [
        {
          "internalType": "uint256",
          "name": "",
          "type": "uint256"
        }
      ],
      "stateMutability": "view",
      "type": "function"
    },
    {
      "inputs": [],
      "name": "BatchDeletionCursor",
      "outputs": [
        {
          "internalType": "uint256",
          "name": "",
          "type": "uint256"
        }
      ],
      "stateMutability": "view",
      "type": "function"
    },
    {
      "inputs": [
        {
          "internalType": "uint256",
          "name": "",
          "type": "uint256"
        }
      ],
      "name": "DataBatch",
      "outputs": [
        {
          "internalType": "uint256",
          "name": "start_idx",
          "type": "uint256"
        },
        {
          "internalType": "uint256",
          "name": "counter",
          "type": "uint256"
        },
        {
          "internalType": "uint256",
          "name": "uncommited_workers",
          "type": "uint256"
        },
        {
          "internalType": "uint256",
          "name": "unrevealed_workers",
          "type": "uint256"
        },
        {
          "internalType": "bool",
          "name": "complete",
          "type": "bool"
        },
        {
          "internalType": "bool",
          "name": "checked",
          "type": "bool"
        },
        {
          "internalType": "bool",
          "name": "allocated_to_work",
          "type": "bool"
        },
        {
          "internalType": "uint256",
          "name": "commitEndDate",
          "type": "uint256"
        },
        {
          "internalType": "uint256",
          "name": "revealEndDate",
          "type": "uint256"
        },
        {
          "internalType": "uint256",
          "name": "votesFor",
          "type": "uint256"
        },
        {
          "internalType": "uint256",
          "name": "votesAgainst",
          "type": "uint256"
        },
        {
          "internalType": "string",
          "name": "batchIPFSfile",
          "type": "string"
        },
        {
          "internalType": "uint256",
          "name": "item_count",
          "type": "uint256"
        },
        {
          "internalType": "enum DataSpotting.DataStatus",
          "name": "status",
          "type": "uint8"
        }
      ],
      "stateMutability": "view",
      "type": "function"
    },
    {
      "inputs": [
        {
          "internalType": "uint256",
          "name": "_DataBatchId",
          "type": "uint256"
        }
      ],
      "name": "DataCommitEndDate",
      "outputs": [
        {
          "internalType": "uint256",
          "name": "commitEndDate",
          "type": "uint256"
        }
      ],
      "stateMutability": "view",
      "type": "function"
    },
    {
      "inputs": [
        {
          "internalType": "uint256",
          "name": "_DataBatchId",
          "type": "uint256"
        }
      ],
      "name": "DataEnded",
      "outputs": [
        {
          "internalType": "bool",
          "name": "ended",
          "type": "bool"
        }
      ],
      "stateMutability": "view",
      "type": "function"
    },
    {
      "inputs": [
        {
          "internalType": "uint256",
          "name": "_DataBatchId",
          "type": "uint256"
        }
      ],
      "name": "DataExists",
      "outputs": [
        {
          "internalType": "bool",
          "name": "exists",
          "type": "bool"
        }
      ],
      "stateMutability": "view",
      "type": "function"
    },
    {
      "inputs": [],
      "name": "DataNonce",
      "outputs": [
        {
          "internalType": "uint256",
          "name": "",
          "type": "uint256"
        }
      ],
      "stateMutability": "view",
      "type": "function"
    },
    {
      "inputs": [
        {
          "internalType": "uint256",
          "name": "_DataBatchId",
          "type": "uint256"
        }
      ],
      "name": "DataRevealEndDate",
      "outputs": [
        {
          "internalType": "uint256",
          "name": "revealEndDate",
          "type": "uint256"
        }
      ],
      "stateMutability": "view",
      "type": "function"
    },
    {
      "inputs": [
        {
          "internalType": "address",
          "name": "user_",
          "type": "address"
        }
      ],
      "name": "GetCurrentWork",
      "outputs": [
        {
          "internalType": "uint256",
          "name": "",
          "type": "uint256"
        }
      ],
      "stateMutability": "view",
      "type": "function"
    },
    {
      "inputs": [
        {
          "internalType": "uint256",
          "name": "",
          "type": "uint256"
        }
      ],
      "name": "GlobalSpotFlowManager",
      "outputs": [
        {
          "internalType": "uint256",
          "name": "timestamp",
          "type": "uint256"
        },
        {
          "internalType": "uint256",
          "name": "counter",
          "type": "uint256"
        }
      ],
      "stateMutability": "view",
      "type": "function"
    },
    {
      "inputs": [],
      "name": "InstantSpotRewards",
      "outputs": [
        {
          "internalType": "bool",
          "name": "",
          "type": "bool"
        }
      ],
      "stateMutability": "view",
      "type": "function"
    },
    {
      "inputs": [],
      "name": "InstantSpotRewardsDivider",
      "outputs": [
        {
          "internalType": "uint256",
          "name": "",
          "type": "uint256"
        }
      ],
      "stateMutability": "view",
      "type": "function"
    },
    {
      "inputs": [
        {
          "internalType": "address",
          "name": "_worker",
          "type": "address"
        }
      ],
      "name": "IsInLogoffList",
      "outputs": [
        {
          "internalType": "bool",
          "name": "",
          "type": "bool"
        }
      ],
      "stateMutability": "view",
      "type": "function"
    },
    {
      "inputs": [
        {
          "internalType": "address",
          "name": "user_",
          "type": "address"
        }
      ],
      "name": "IsNewWorkAvailable",
      "outputs": [
        {
          "internalType": "bool",
          "name": "",
          "type": "bool"
        }
      ],
      "stateMutability": "view",
      "type": "function"
    },
    {
      "inputs": [],
      "name": "LastAllocationTime",
      "outputs": [
        {
          "internalType": "uint256",
          "name": "",
          "type": "uint256"
        }
      ],
      "stateMutability": "view",
      "type": "function"
    },
    {
      "inputs": [],
      "name": "LastBatchCounter",
      "outputs": [
        {
          "internalType": "uint256",
          "name": "",
          "type": "uint256"
        }
      ],
      "stateMutability": "view",
      "type": "function"
    },
    {
      "inputs": [],
      "name": "LastRandomSeed",
      "outputs": [
        {
          "internalType": "uint256",
          "name": "",
          "type": "uint256"
        }
      ],
      "stateMutability": "view",
      "type": "function"
    },
    {
      "inputs": [],
      "name": "MaxPendingDataBatchCount",
      "outputs": [
        {
          "internalType": "uint256",
          "name": "",
          "type": "uint256"
        }
      ],
      "stateMutability": "view",
      "type": "function"
    },
    {
      "inputs": [],
      "name": "NotCommitedCounter",
      "outputs": [
        {
          "internalType": "uint256",
          "name": "",
          "type": "uint256"
        }
      ],
      "stateMutability": "view",
      "type": "function"
    },
    {
      "inputs": [],
      "name": "NotRevealedCounter",
      "outputs": [
        {
          "internalType": "uint256",
          "name": "",
          "type": "uint256"
        }
      ],
      "stateMutability": "view",
      "type": "function"
    },
    {
      "inputs": [],
      "name": "Parameters",
      "outputs": [
        {
          "internalType": "contract IParametersManager",
          "name": "",
          "type": "address"
        }
      ],
      "stateMutability": "view",
      "type": "function"
    },
    {
      "inputs": [],
      "name": "RegisterWorker",
      "outputs": [],
      "stateMutability": "nonpayable",
      "type": "function"
    },
    {
      "inputs": [],
      "name": "RejectedBatchsCounter",
      "outputs": [
        {
          "internalType": "uint256",
          "name": "",
          "type": "uint256"
        }
      ],
      "stateMutability": "view",
      "type": "function"
    },
    {
      "inputs": [],
      "name": "SPOT_FILE_SIZE",
      "outputs": [
        {
          "internalType": "uint256",
          "name": "",
          "type": "uint256"
        }
      ],
      "stateMutability": "view",
      "type": "function"
    },
    {
      "inputs": [],
      "name": "STAKING_REQUIREMENT_TOGGLE_ENABLED",
      "outputs": [
        {
          "internalType": "bool",
          "name": "",
          "type": "bool"
        }
      ],
      "stateMutability": "view",
      "type": "function"
    },
    {
      "inputs": [
        {
          "internalType": "address",
          "name": "_worker",
          "type": "address"
        },
        {
          "internalType": "uint256",
          "name": "_TokensAmountToAllocate",
          "type": "uint256"
        }
      ],
      "name": "SelectAddressForUser",
      "outputs": [
        {
          "internalType": "address",
          "name": "",
          "type": "address"
        }
      ],
      "stateMutability": "view",
      "type": "function"
    },
    {
      "inputs": [
        {
          "internalType": "string[]",
          "name": "file_hashs",
          "type": "string[]"
        },
        {
          "internalType": "string[]",
          "name": "URL_domains",
          "type": "string[]"
        },
        {
          "internalType": "uint256",
          "name": "item_count_",
          "type": "uint256"
        },
        {
          "internalType": "string",
          "name": "extra_",
          "type": "string"
        }
      ],
      "name": "SpotData",
      "outputs": [
        {
          "internalType": "uint256",
          "name": "Dataid_",
          "type": "uint256"
        }
      ],
      "stateMutability": "nonpayable",
      "type": "function"
    },
    {
      "inputs": [
        {
          "internalType": "uint256",
          "name": "",
          "type": "uint256"
        }
      ],
      "name": "SpotsMapping",
      "outputs": [
        {
          "internalType": "string",
          "name": "ipfs_hash",
          "type": "string"
        },
        {
          "internalType": "address",
          "name": "author",
          "type": "address"
        },
        {
          "internalType": "uint256",
          "name": "timestamp",
          "type": "uint256"
        },
        {
          "internalType": "uint256",
          "name": "item_count",
          "type": "uint256"
        },
        {
          "internalType": "string",
          "name": "URL_domain",
          "type": "string"
        },
        {
          "internalType": "string",
          "name": "extra",
          "type": "string"
        },
        {
          "internalType": "enum DataSpotting.DataStatus",
          "name": "status",
          "type": "uint8"
        }
      ],
      "stateMutability": "view",
      "type": "function"
    },
    {
      "inputs": [
        {
          "internalType": "address",
          "name": "",
          "type": "address"
        }
      ],
      "name": "SystemStakedTokenBalance",
      "outputs": [
        {
          "internalType": "uint256",
          "name": "",
          "type": "uint256"
        }
      ],
      "stateMutability": "view",
      "type": "function"
    },
    {
      "inputs": [],
      "name": "TRIGGER_WITH_SPOTDATA_TOGGLE_ENABLED",
      "outputs": [
        {
          "internalType": "bool",
          "name": "",
          "type": "bool"
        }
      ],
      "stateMutability": "view",
      "type": "function"
    },
    {
      "inputs": [
        {
          "internalType": "uint256",
          "name": "n_iteration",
          "type": "uint256"
        }
      ],
      "name": "TriggerAllocations",
      "outputs": [],
      "stateMutability": "nonpayable",
      "type": "function"
    },
    {
      "inputs": [
        {
          "internalType": "uint256",
          "name": "n_iteration",
          "type": "uint256"
        }
      ],
      "name": "TriggerUpdate",
      "outputs": [],
      "stateMutability": "nonpayable",
      "type": "function"
    },
    {
      "inputs": [
        {
          "internalType": "uint256",
          "name": "n_iteration",
          "type": "uint256"
        }
      ],
      "name": "TriggerValidation",
      "outputs": [],
      "stateMutability": "nonpayable",
      "type": "function"
    },
    {
      "inputs": [],
      "name": "UnregisterWorker",
      "outputs": [],
      "stateMutability": "nonpayable",
      "type": "function"
    },
    {
      "inputs": [
        {
          "internalType": "uint256",
          "name": "",
          "type": "uint256"
        },
        {
          "internalType": "address",
          "name": "",
          "type": "address"
        }
      ],
      "name": "UserBatchCounts",
      "outputs": [
        {
          "internalType": "uint256",
          "name": "",
          "type": "uint256"
        }
      ],
      "stateMutability": "view",
      "type": "function"
    },
    {
      "inputs": [
        {
          "internalType": "uint256",
          "name": "",
          "type": "uint256"
        },
        {
          "internalType": "address",
          "name": "",
          "type": "address"
        }
      ],
      "name": "UserBatchFrom",
      "outputs": [
        {
          "internalType": "string",
          "name": "",
          "type": "string"
        }
      ],
      "stateMutability": "view",
      "type": "function"
    },
    {
      "inputs": [
        {
          "internalType": "address",
          "name": "",
          "type": "address"
        },
        {
          "internalType": "uint256",
          "name": "",
          "type": "uint256"
        }
      ],
      "name": "UserChecksCommits",
      "outputs": [
        {
          "internalType": "bool",
          "name": "",
          "type": "bool"
        }
      ],
      "stateMutability": "view",
      "type": "function"
    },
    {
      "inputs": [
        {
          "internalType": "address",
          "name": "",
          "type": "address"
        },
        {
          "internalType": "uint256",
          "name": "",
          "type": "uint256"
        }
      ],
      "name": "UserChecksReveals",
      "outputs": [
        {
          "internalType": "bool",
          "name": "",
          "type": "bool"
        }
      ],
      "stateMutability": "view",
      "type": "function"
    },
    {
      "inputs": [
        {
          "internalType": "uint256",
          "name": "",
          "type": "uint256"
        },
        {
          "internalType": "address",
          "name": "",
          "type": "address"
        }
      ],
      "name": "UserNewFiles",
      "outputs": [
        {
          "internalType": "string",
          "name": "",
          "type": "string"
        }
      ],
      "stateMutability": "view",
      "type": "function"
    },
    {
      "inputs": [
        {
          "internalType": "address",
          "name": "",
          "type": "address"
        },
        {
          "internalType": "uint256",
          "name": "",
          "type": "uint256"
        }
      ],
      "name": "UserSubmissions",
      "outputs": [
        {
          "internalType": "uint256",
          "name": "",
          "type": "uint256"
        }
      ],
      "stateMutability": "view",
      "type": "function"
    },
    {
      "inputs": [
        {
          "internalType": "uint256",
          "name": "",
          "type": "uint256"
        },
        {
          "internalType": "address",
          "name": "",
          "type": "address"
        }
      ],
      "name": "UserVotes",
      "outputs": [
        {
          "internalType": "uint256",
          "name": "",
          "type": "uint256"
        }
      ],
      "stateMutability": "view",
      "type": "function"
    },
    {
      "inputs": [
        {
          "internalType": "uint256",
          "name": "",
          "type": "uint256"
        },
        {
          "internalType": "uint256",
          "name": "",
          "type": "uint256"
        }
      ],
      "name": "WorkersPerBatch",
      "outputs": [
        {
          "internalType": "address",
          "name": "",
          "type": "address"
        }
      ],
      "stateMutability": "view",
      "type": "function"
    },
    {
      "inputs": [
        {
          "internalType": "address",
          "name": "",
          "type": "address"
        },
        {
          "internalType": "uint256",
          "name": "",
          "type": "uint256"
        }
      ],
      "name": "WorkersSpotFlowManager",
      "outputs": [
        {
          "internalType": "uint256",
          "name": "timestamp",
          "type": "uint256"
        },
        {
          "internalType": "uint256",
          "name": "counter",
          "type": "uint256"
        }
      ],
      "stateMutability": "view",
      "type": "function"
    },
    {
      "inputs": [
        {
          "internalType": "address",
          "name": "",
          "type": "address"
        }
      ],
      "name": "WorkersState",
      "outputs": [
        {
          "internalType": "uint256",
          "name": "allocated_work_batch",
          "type": "uint256"
        },
        {
          "internalType": "uint256",
          "name": "succeeding_novote_count",
          "type": "uint256"
        },
        {
          "internalType": "uint256",
          "name": "last_interaction_date",
          "type": "uint256"
        },
        {
          "internalType": "bool",
          "name": "registered",
          "type": "bool"
        },
        {
          "internalType": "bool",
          "name": "unregistration_request",
          "type": "bool"
        },
        {
          "internalType": "uint256",
          "name": "registration_date",
          "type": "uint256"
        },
        {
          "internalType": "uint256",
          "name": "allocated_batch_counter",
          "type": "uint256"
        },
        {
          "internalType": "uint256",
          "name": "majority_counter",
          "type": "uint256"
        },
        {
          "internalType": "uint256",
          "name": "minority_counter",
          "type": "uint256"
        }
      ],
      "stateMutability": "view",
      "type": "function"
    },
    {
      "inputs": [
        {
          "internalType": "address",
          "name": "_user",
          "type": "address"
        },
        {
          "internalType": "uint256",
          "name": "_DataBatchId",
          "type": "uint256"
        }
      ],
      "name": "attrUUID",
      "outputs": [
        {
          "internalType": "bytes32",
          "name": "UUID",
          "type": "bytes32"
        }
      ],
      "stateMutability": "pure",
      "type": "function"
    },
    {
      "inputs": [
        {
          "internalType": "uint256",
          "name": "",
          "type": "uint256"
        }
      ],
      "name": "availableWorkers",
      "outputs": [
        {
          "internalType": "address",
          "name": "",
          "type": "address"
        }
      ],
      "stateMutability": "view",
      "type": "function"
    },
    {
      "inputs": [
        {
          "internalType": "address",
          "name": "",
          "type": "address"
        }
      ],
      "name": "availableWorkersIndex",
      "outputs": [
        {
          "internalType": "uint256",
          "name": "",
          "type": "uint256"
        }
      ],
      "stateMutability": "view",
      "type": "function"
    },
    {
      "inputs": [
        {
          "internalType": "uint256",
          "name": "",
          "type": "uint256"
        }
      ],
      "name": "busyWorkers",
      "outputs": [
        {
          "internalType": "address",
          "name": "",
          "type": "address"
        }
      ],
      "stateMutability": "view",
      "type": "function"
    },
    {
      "inputs": [
        {
          "internalType": "address",
          "name": "",
          "type": "address"
        }
      ],
      "name": "busyWorkersIndex",
      "outputs": [
        {
          "internalType": "uint256",
          "name": "",
          "type": "uint256"
        }
      ],
      "stateMutability": "view",
      "type": "function"
    },
    {
      "inputs": [
        {
          "internalType": "uint256",
          "name": "_DataBatchId",
          "type": "uint256"
        }
      ],
      "name": "commitPeriodActive",
      "outputs": [
        {
          "internalType": "bool",
          "name": "active",
          "type": "bool"
        }
      ],
      "stateMutability": "view",
      "type": "function"
    },
    {
      "inputs": [
        {
          "internalType": "uint256",
          "name": "_DataBatchId",
          "type": "uint256"
        }
      ],
      "name": "commitPeriodOver",
      "outputs": [
        {
          "internalType": "bool",
          "name": "active",
          "type": "bool"
        }
      ],
      "stateMutability": "view",
      "type": "function"
    },
    {
      "inputs": [
        {
          "internalType": "uint256",
          "name": "_DataBatchId",
          "type": "uint256"
        },
        {
          "internalType": "bytes32",
          "name": "_encryptedHash",
          "type": "bytes32"
        },
        {
          "internalType": "bytes32",
          "name": "_encryptedVote",
          "type": "bytes32"
        },
        {
          "internalType": "uint256",
          "name": "_BatchCount",
          "type": "uint256"
        },
        {
          "internalType": "string",
          "name": "_From",
          "type": "string"
        }
      ],
      "name": "commitSpotCheck",
      "outputs": [],
      "stateMutability": "nonpayable",
      "type": "function"
    },
    {
      "inputs": [
        {
          "internalType": "uint256",
          "name": "_DataId",
          "type": "uint256"
        }
      ],
      "name": "deleteData",
      "outputs": [],
      "stateMutability": "nonpayable",
      "type": "function"
    },
    {
      "inputs": [
        {
          "internalType": "uint256",
          "name": "_BatchId",
          "type": "uint256"
        }
      ],
      "name": "deleteDataBatch",
      "outputs": [],
      "stateMutability": "nonpayable",
      "type": "function"
    },
    {
      "inputs": [],
      "name": "destroyContract",
      "outputs": [],
      "stateMutability": "nonpayable",
      "type": "function"
    },
    {
      "inputs": [
        {
          "internalType": "address",
          "name": "_voter",
          "type": "address"
        },
        {
          "internalType": "uint256",
          "name": "_DataBatchId",
          "type": "uint256"
        }
      ],
      "name": "didCommit",
      "outputs": [
        {
          "internalType": "bool",
          "name": "committed",
          "type": "bool"
        }
      ],
      "stateMutability": "view",
      "type": "function"
    },
    {
      "inputs": [
        {
          "internalType": "address",
          "name": "_voter",
          "type": "address"
        },
        {
          "internalType": "uint256",
          "name": "_DataBatchId",
          "type": "uint256"
        }
      ],
      "name": "didReveal",
      "outputs": [
        {
          "internalType": "bool",
          "name": "revealed",
          "type": "bool"
        }
      ],
      "stateMutability": "view",
      "type": "function"
    },
    {
      "inputs": [
        {
          "internalType": "uint256",
          "name": "_k",
          "type": "uint256"
        },
        {
          "internalType": "uint256",
          "name": "N_range",
          "type": "uint256"
        }
      ],
      "name": "generateIntegers",
      "outputs": [
        {
          "internalType": "uint256[]",
          "name": "",
          "type": "uint256[]"
        }
      ],
      "stateMutability": "view",
      "type": "function"
    },
    {
      "inputs": [],
      "name": "getAcceptedBatchesCount",
      "outputs": [
        {
          "internalType": "uint256",
          "name": "count",
          "type": "uint256"
        }
      ],
      "stateMutability": "view",
      "type": "function"
    },
    {
      "inputs": [],
      "name": "getActiveWorkersCount",
      "outputs": [
        {
          "internalType": "uint256",
          "name": "numWorkers",
          "type": "uint256"
        }
      ],
      "stateMutability": "view",
      "type": "function"
    },
    {
      "inputs": [
        {
          "internalType": "bytes32",
          "name": "_UUID",
          "type": "bytes32"
        },
        {
          "internalType": "string",
          "name": "_attrName",
          "type": "string"
        }
      ],
      "name": "getAttribute",
      "outputs": [
        {
          "internalType": "uint256",
          "name": "",
          "type": "uint256"
        }
      ],
      "stateMutability": "view",
      "type": "function"
    },
    {
      "inputs": [],
      "name": "getAvailableWorkersCount",
      "outputs": [
        {
          "internalType": "uint256",
          "name": "numWorkers",
          "type": "uint256"
        }
      ],
      "stateMutability": "view",
      "type": "function"
    },
    {
      "inputs": [
        {
          "internalType": "uint256",
          "name": "_DataBatchId",
          "type": "uint256"
        }
      ],
      "name": "getBatchByID",
      "outputs": [
        {
          "components": [
            {
              "internalType": "uint256",
              "name": "start_idx",
              "type": "uint256"
            },
            {
              "internalType": "uint256",
              "name": "counter",
              "type": "uint256"
            },
            {
              "internalType": "uint256",
              "name": "uncommited_workers",
              "type": "uint256"
            },
            {
              "internalType": "uint256",
              "name": "unrevealed_workers",
              "type": "uint256"
            },
            {
              "internalType": "bool",
              "name": "complete",
              "type": "bool"
            },
            {
              "internalType": "bool",
              "name": "checked",
              "type": "bool"
            },
            {
              "internalType": "bool",
              "name": "allocated_to_work",
              "type": "bool"
            },
            {
              "internalType": "uint256",
              "name": "commitEndDate",
              "type": "uint256"
            },
            {
              "internalType": "uint256",
              "name": "revealEndDate",
              "type": "uint256"
            },
            {
              "internalType": "uint256",
              "name": "votesFor",
              "type": "uint256"
            },
            {
              "internalType": "uint256",
              "name": "votesAgainst",
              "type": "uint256"
            },
            {
              "internalType": "string",
              "name": "batchIPFSfile",
              "type": "string"
            },
            {
              "internalType": "uint256",
              "name": "item_count",
              "type": "uint256"
            },
            {
              "internalType": "enum DataSpotting.DataStatus",
              "name": "status",
              "type": "uint8"
            }
          ],
          "internalType": "struct DataSpotting.BatchMetadata",
          "name": "batch",
          "type": "tuple"
        }
      ],
      "stateMutability": "view",
      "type": "function"
    },
    {
      "inputs": [
        {
          "internalType": "uint256",
          "name": "_DataBatchId_a",
          "type": "uint256"
        },
        {
          "internalType": "uint256",
          "name": "_DataBatchId_b",
          "type": "uint256"
        }
      ],
      "name": "getBatchCountForBatch",
      "outputs": [
        {
          "internalType": "uint256",
          "name": "AverageURLCount",
          "type": "uint256"
        },
        {
          "internalType": "uint256[]",
          "name": "batchCounts",
          "type": "uint256[]"
        }
      ],
      "stateMutability": "view",
      "type": "function"
    },
    {
      "inputs": [
        {
          "internalType": "uint256",
          "name": "_DataBatchId",
          "type": "uint256"
        }
      ],
      "name": "getBatchIPFSFileByID",
      "outputs": [
        {
          "internalType": "string",
          "name": "batch",
          "type": "string"
        }
      ],
      "stateMutability": "view",
      "type": "function"
    },
    {
      "inputs": [],
      "name": "getBusyWorkersCount",
      "outputs": [
        {
          "internalType": "uint256",
          "name": "numWorkers",
          "type": "uint256"
        }
      ],
      "stateMutability": "view",
      "type": "function"
    },
    {
      "inputs": [
        {
          "internalType": "address",
          "name": "_voter",
          "type": "address"
        },
        {
          "internalType": "uint256",
          "name": "_DataBatchId",
          "type": "uint256"
        }
      ],
      "name": "getCommitIPFSHash",
      "outputs": [
        {
          "internalType": "bytes32",
          "name": "commitHash",
          "type": "bytes32"
        }
      ],
      "stateMutability": "view",
      "type": "function"
    },
    {
      "inputs": [
        {
          "internalType": "address",
          "name": "_voter",
          "type": "address"
        },
        {
          "internalType": "uint256",
          "name": "_DataBatchId",
          "type": "uint256"
        }
      ],
      "name": "getCommitVoteHash",
      "outputs": [
        {
          "internalType": "bytes32",
          "name": "commitHash",
          "type": "bytes32"
        }
      ],
      "stateMutability": "view",
      "type": "function"
    },
    {
      "inputs": [
        {
          "internalType": "uint256",
          "name": "_DataId",
          "type": "uint256"
        }
      ],
      "name": "getDataByID",
      "outputs": [
        {
          "components": [
            {
              "internalType": "string",
              "name": "ipfs_hash",
              "type": "string"
            },
            {
              "internalType": "address",
              "name": "author",
              "type": "address"
            },
            {
              "internalType": "uint256",
              "name": "timestamp",
              "type": "uint256"
            },
            {
              "internalType": "uint256",
              "name": "item_count",
              "type": "uint256"
            },
            {
              "internalType": "string",
              "name": "URL_domain",
              "type": "string"
            },
            {
              "internalType": "string",
              "name": "extra",
              "type": "string"
            },
            {
              "internalType": "enum DataSpotting.DataStatus",
              "name": "status",
              "type": "uint8"
            }
          ],
          "internalType": "struct DataSpotting.SpottedData",
          "name": "data",
          "type": "tuple"
        }
      ],
      "stateMutability": "view",
      "type": "function"
    },
    {
      "inputs": [
        {
          "internalType": "uint256",
          "name": "_DataBatchId",
          "type": "uint256"
        }
      ],
      "name": "getDomainsForBatch",
      "outputs": [
        {
          "internalType": "string[]",
          "name": "",
          "type": "string[]"
        }
      ],
      "stateMutability": "view",
      "type": "function"
    },
    {
      "inputs": [
        {
          "internalType": "uint256",
          "name": "_clearVote",
          "type": "uint256"
        },
        {
          "internalType": "uint256",
          "name": "_salt",
          "type": "uint256"
        }
      ],
      "name": "getEncryptedHash",
      "outputs": [
        {
          "internalType": "bytes32",
          "name": "keccak256hash",
          "type": "bytes32"
        }
      ],
      "stateMutability": "pure",
      "type": "function"
    },
    {
      "inputs": [
        {
          "internalType": "string",
          "name": "_hash",
          "type": "string"
        },
        {
          "internalType": "uint256",
          "name": "_salt",
          "type": "uint256"
        }
      ],
      "name": "getEncryptedStringHash",
      "outputs": [
        {
          "internalType": "bytes32",
          "name": "keccak256hash",
          "type": "bytes32"
        }
      ],
      "stateMutability": "pure",
      "type": "function"
    },
    {
      "inputs": [
        {
          "internalType": "uint256",
          "name": "_DataBatchId",
          "type": "uint256"
        }
      ],
      "name": "getFromsForBatch",
      "outputs": [
        {
          "internalType": "string[]",
          "name": "",
          "type": "string[]"
        }
      ],
      "stateMutability": "view",
      "type": "function"
    },
    {
      "inputs": [],
      "name": "getGlobalPeriodSpotCount",
      "outputs": [
        {
          "internalType": "uint256",
          "name": "",
          "type": "uint256"
        }
      ],
      "stateMutability": "view",
      "type": "function"
    },
    {
      "inputs": [
        {
          "internalType": "uint256",
          "name": "_DataBatchId",
          "type": "uint256"
        }
      ],
      "name": "getIPFShashesForBatch",
      "outputs": [
        {
          "internalType": "string[]",
          "name": "",
          "type": "string[]"
        }
      ],
      "stateMutability": "view",
      "type": "function"
    },
    {
      "inputs": [
        {
          "internalType": "address",
          "name": "_voter",
          "type": "address"
        },
        {
          "internalType": "uint256",
          "name": "_numTokens",
          "type": "uint256"
        },
        {
          "internalType": "uint256",
          "name": "_DataBatchId",
          "type": "uint256"
        }
      ],
      "name": "getInsertPointForNumTokens",
      "outputs": [
        {
          "internalType": "uint256",
          "name": "prevNode",
          "type": "uint256"
        }
      ],
      "stateMutability": "view",
      "type": "function"
    },
    {
      "inputs": [],
      "name": "getLastAllocatedBatchId",
      "outputs": [
        {
          "internalType": "uint256",
          "name": "LastAllocatedBatchId",
          "type": "uint256"
        }
      ],
      "stateMutability": "view",
      "type": "function"
    },
    {
      "inputs": [],
      "name": "getLastBatchId",
      "outputs": [
        {
          "internalType": "uint256",
          "name": "LastBatchId",
          "type": "uint256"
        }
      ],
      "stateMutability": "view",
      "type": "function"
    },
    {
      "inputs": [],
      "name": "getLastCheckedBatchId",
      "outputs": [
        {
          "internalType": "uint256",
          "name": "LastCheckedBatchId",
          "type": "uint256"
        }
      ],
      "stateMutability": "view",
      "type": "function"
    },
    {
      "inputs": [],
      "name": "getLastDataId",
      "outputs": [
        {
          "internalType": "uint256",
          "name": "DataId",
          "type": "uint256"
        }
      ],
      "stateMutability": "view",
      "type": "function"
    },
    {
      "inputs": [
        {
          "internalType": "address",
          "name": "_voter",
          "type": "address"
        }
      ],
      "name": "getLastNode",
      "outputs": [
        {
          "internalType": "uint256",
          "name": "DataID",
          "type": "uint256"
        }
      ],
      "stateMutability": "view",
      "type": "function"
    },
    {
      "inputs": [
        {
          "internalType": "address",
          "name": "_voter",
          "type": "address"
        }
      ],
      "name": "getLockedTokens",
      "outputs": [
        {
          "internalType": "uint256",
          "name": "numTokens",
          "type": "uint256"
        }
      ],
      "stateMutability": "view",
      "type": "function"
    },
    {
      "inputs": [
        {
          "internalType": "uint256",
          "name": "_DataBatchId_a",
          "type": "uint256"
        },
        {
          "internalType": "uint256",
          "name": "_DataBatchId_b",
          "type": "uint256"
        }
      ],
      "name": "getMultiBatchIPFShashes",
      "outputs": [
        {
          "internalType": "string[]",
          "name": "",
          "type": "string[]"
        }
      ],
      "stateMutability": "view",
      "type": "function"
    },
    {
      "inputs": [
        {
          "internalType": "address",
          "name": "_voter",
          "type": "address"
        },
        {
          "internalType": "uint256",
          "name": "_DataBatchId",
          "type": "uint256"
        },
        {
          "internalType": "uint256",
          "name": "_salt",
          "type": "uint256"
        }
      ],
      "name": "getNumPassingTokens",
      "outputs": [
        {
          "internalType": "uint256",
          "name": "correctSpotChecks",
          "type": "uint256"
        }
      ],
      "stateMutability": "view",
      "type": "function"
    },
    {
      "inputs": [
        {
          "internalType": "address",
          "name": "_voter",
          "type": "address"
        },
        {
          "internalType": "uint256",
          "name": "_DataBatchId",
          "type": "uint256"
        }
      ],
      "name": "getNumTokens",
      "outputs": [
        {
          "internalType": "uint256",
          "name": "numTokens",
          "type": "uint256"
        }
      ],
      "stateMutability": "view",
      "type": "function"
    },
    {
      "inputs": [],
      "name": "getRandom",
      "outputs": [
        {
          "internalType": "uint256",
          "name": "",
          "type": "uint256"
        }
      ],
      "stateMutability": "view",
      "type": "function"
    },
    {
      "inputs": [],
      "name": "getRejectedBatchesCount",
      "outputs": [
        {
          "internalType": "uint256",
          "name": "count",
          "type": "uint256"
        }
      ],
      "stateMutability": "view",
      "type": "function"
    },
    {
      "inputs": [],
      "name": "getSeed",
      "outputs": [
        {
          "internalType": "bytes32",
          "name": "addr",
          "type": "bytes32"
        }
      ],
      "stateMutability": "view",
      "type": "function"
    },
    {
      "inputs": [
        {
          "internalType": "uint256",
          "name": "_DataBatchId",
          "type": "uint256"
        }
      ],
      "name": "getSubmittedFilesForBatch",
      "outputs": [
        {
          "internalType": "string[]",
          "name": "",
          "type": "string[]"
        }
      ],
      "stateMutability": "view",
      "type": "function"
    },
    {
      "inputs": [
        {
          "internalType": "address",
          "name": "_user",
          "type": "address"
        }
      ],
      "name": "getSystemTokenBalance",
      "outputs": [
        {
          "internalType": "uint256",
          "name": "tokens",
          "type": "uint256"
        }
      ],
      "stateMutability": "view",
      "type": "function"
    },
    {
      "inputs": [],
      "name": "getTxCounter",
      "outputs": [
        {
          "internalType": "uint256",
          "name": "Counter",
          "type": "uint256"
        }
      ],
      "stateMutability": "view",
      "type": "function"
    },
    {
      "inputs": [
        {
          "internalType": "address",
          "name": "user",
          "type": "address"
        }
      ],
      "name": "getUserDatas",
      "outputs": [
        {
          "internalType": "uint256[]",
          "name": "user_Datas",
          "type": "uint256[]"
        }
      ],
      "stateMutability": "view",
      "type": "function"
    },
    {
      "inputs": [
        {
          "internalType": "address",
          "name": "user_",
          "type": "address"
        }
      ],
      "name": "getUserPeriodSpotCount",
      "outputs": [
        {
          "internalType": "uint256",
          "name": "",
          "type": "uint256"
        }
      ],
      "stateMutability": "view",
      "type": "function"
    },
    {
      "inputs": [
        {
          "internalType": "uint256",
          "name": "_DataBatchId",
          "type": "uint256"
        }
      ],
      "name": "getVotesForBatch",
      "outputs": [
        {
          "internalType": "uint256[]",
          "name": "",
          "type": "uint256[]"
        }
      ],
      "stateMutability": "view",
      "type": "function"
    },
    {
      "inputs": [
        {
          "internalType": "address",
          "name": "",
          "type": "address"
        }
      ],
      "name": "isAvailableWorker",
      "outputs": [
        {
          "internalType": "bool",
          "name": "",
          "type": "bool"
        }
      ],
      "stateMutability": "view",
      "type": "function"
    },
    {
      "inputs": [
        {
          "internalType": "address",
          "name": "",
          "type": "address"
        }
      ],
      "name": "isBusyWorker",
      "outputs": [
        {
          "internalType": "bool",
          "name": "",
          "type": "bool"
        }
      ],
      "stateMutability": "view",
      "type": "function"
    },
    {
      "inputs": [
        {
          "internalType": "uint256",
          "name": "_terminationDate",
          "type": "uint256"
        }
      ],
      "name": "isExpired",
      "outputs": [
        {
          "internalType": "bool",
          "name": "expired",
          "type": "bool"
        }
      ],
      "stateMutability": "view",
      "type": "function"
    },
    {
      "inputs": [
        {
          "internalType": "address",
          "name": "_worker",
          "type": "address"
        }
      ],
      "name": "isInAvailableWorkers",
      "outputs": [
        {
          "internalType": "bool",
          "name": "",
          "type": "bool"
        }
      ],
      "stateMutability": "view",
      "type": "function"
    },
    {
      "inputs": [
        {
          "internalType": "address",
          "name": "_worker",
          "type": "address"
        }
      ],
      "name": "isInBusyWorkers",
      "outputs": [
        {
          "internalType": "bool",
          "name": "",
          "type": "bool"
        }
      ],
      "stateMutability": "view",
      "type": "function"
    },
    {
      "inputs": [
        {
          "internalType": "uint256",
          "name": "_DataBatchId",
          "type": "uint256"
        }
      ],
      "name": "isPassed",
      "outputs": [
        {
          "internalType": "bool",
          "name": "passed",
          "type": "bool"
        }
      ],
      "stateMutability": "view",
      "type": "function"
    },
    {
      "inputs": [
        {
          "internalType": "address",
          "name": "",
          "type": "address"
        }
      ],
      "name": "isToUnregisterWorker",
      "outputs": [
        {
          "internalType": "bool",
          "name": "",
          "type": "bool"
        }
      ],
      "stateMutability": "view",
      "type": "function"
    },
    {
      "inputs": [
        {
          "internalType": "uint256",
          "name": "_DataBatchId",
          "type": "uint256"
        },
        {
          "internalType": "address",
          "name": "_worker",
          "type": "address"
        }
      ],
      "name": "isWorkerAllocatedToBatch",
      "outputs": [
        {
          "internalType": "bool",
          "name": "",
          "type": "bool"
        }
      ],
      "stateMutability": "view",
      "type": "function"
    },
    {
      "inputs": [
        {
          "internalType": "address",
          "name": "_worker",
          "type": "address"
        }
      ],
      "name": "isWorkerRegistered",
      "outputs": [
        {
          "internalType": "bool",
          "name": "passed",
          "type": "bool"
        }
      ],
      "stateMutability": "view",
      "type": "function"
    },
    {
      "inputs": [],
      "name": "owner",
      "outputs": [
        {
          "internalType": "address",
          "name": "",
          "type": "address"
        }
      ],
      "stateMutability": "view",
      "type": "function"
    },
    {
      "inputs": [
        {
          "internalType": "uint256",
          "name": "k",
          "type": "uint256"
        },
        {
          "internalType": "uint256",
          "name": "N",
          "type": "uint256"
        }
      ],
      "name": "random_selection",
      "outputs": [
        {
          "internalType": "uint256[]",
          "name": "",
          "type": "uint256[]"
        }
      ],
      "stateMutability": "view",
      "type": "function"
    },
    {
      "inputs": [
        {
          "internalType": "uint256",
          "name": "_DataBatchId",
          "type": "uint256"
        }
      ],
      "name": "remainingCommitDuration",
      "outputs": [
        {
          "internalType": "uint256",
          "name": "remainingTime",
          "type": "uint256"
        }
      ],
      "stateMutability": "view",
      "type": "function"
    },
    {
      "inputs": [
        {
          "internalType": "uint256",
          "name": "_DataBatchId",
          "type": "uint256"
        }
      ],
      "name": "remainingRevealDuration",
      "outputs": [
        {
          "internalType": "uint256",
          "name": "remainingTime",
          "type": "uint256"
        }
      ],
      "stateMutability": "view",
      "type": "function"
    },
    {
      "inputs": [],
      "name": "renounceOwnership",
      "outputs": [],
      "stateMutability": "nonpayable",
      "type": "function"
    },
    {
      "inputs": [
        {
          "internalType": "uint256",
          "name": "_DataBatchId",
          "type": "uint256"
        }
      ],
      "name": "rescueTokens",
      "outputs": [],
      "stateMutability": "nonpayable",
      "type": "function"
    },
    {
      "inputs": [
        {
          "internalType": "uint256[]",
          "name": "_DataBatchIDs",
          "type": "uint256[]"
        }
      ],
      "name": "rescueTokensInMultipleDatas",
      "outputs": [],
      "stateMutability": "nonpayable",
      "type": "function"
    },
    {
      "inputs": [
        {
          "internalType": "uint256",
          "name": "_DataBatchId",
          "type": "uint256"
        }
      ],
      "name": "revealPeriodActive",
      "outputs": [
        {
          "internalType": "bool",
          "name": "active",
          "type": "bool"
        }
      ],
      "stateMutability": "view",
      "type": "function"
    },
    {
      "inputs": [
        {
          "internalType": "uint256",
          "name": "_DataBatchId",
          "type": "uint256"
        }
      ],
      "name": "revealPeriodOver",
      "outputs": [
        {
          "internalType": "bool",
          "name": "active",
          "type": "bool"
        }
      ],
      "stateMutability": "view",
      "type": "function"
    },
    {
      "inputs": [
        {
          "internalType": "uint256",
          "name": "_DataBatchId",
          "type": "uint256"
        },
        {
          "internalType": "string",
          "name": "_clearIPFSHash",
          "type": "string"
        },
        {
          "internalType": "uint256",
          "name": "_clearVote",
          "type": "uint256"
        },
        {
          "internalType": "uint256",
          "name": "_salt",
          "type": "uint256"
        }
      ],
      "name": "revealSpotCheck",
      "outputs": [],
      "stateMutability": "nonpayable",
      "type": "function"
    },
    {
      "inputs": [
        {
          "internalType": "bytes32",
          "name": "_UUID",
          "type": "bytes32"
        },
        {
          "internalType": "string",
          "name": "_attrName",
          "type": "string"
        },
        {
          "internalType": "uint256",
          "name": "_attrVal",
          "type": "uint256"
        }
      ],
      "name": "setAttribute",
      "outputs": [],
      "stateMutability": "nonpayable",
      "type": "function"
    },
    {
      "inputs": [
        {
          "internalType": "uint256",
          "name": "",
          "type": "uint256"
        }
      ],
      "name": "toUnregisterWorkers",
      "outputs": [
        {
          "internalType": "address",
          "name": "",
          "type": "address"
        }
      ],
      "stateMutability": "view",
      "type": "function"
    },
    {
      "inputs": [
        {
          "internalType": "address",
          "name": "",
          "type": "address"
        }
      ],
      "name": "toUnregisterWorkersIndex",
      "outputs": [
        {
          "internalType": "uint256",
          "name": "",
          "type": "uint256"
        }
      ],
      "stateMutability": "view",
      "type": "function"
    },
    {
      "inputs": [
        {
          "internalType": "bool",
          "name": "toggle_",
          "type": "bool"
        }
      ],
      "name": "toggleRequiredStaking",
      "outputs": [],
      "stateMutability": "nonpayable",
      "type": "function"
    },
    {
      "inputs": [
        {
          "internalType": "bool",
          "name": "toggle_",
          "type": "bool"
        }
      ],
      "name": "toggleTriggerSpotData",
      "outputs": [],
      "stateMutability": "nonpayable",
      "type": "function"
    },
    {
      "inputs": [],
      "name": "token",
      "outputs": [
        {
          "internalType": "contract IERC20",
          "name": "",
          "type": "address"
        }
      ],
      "stateMutability": "view",
      "type": "function"
    },
    {
      "inputs": [
        {
          "internalType": "address",
          "name": "newOwner",
          "type": "address"
        }
      ],
      "name": "transferOwnership",
      "outputs": [],
      "stateMutability": "nonpayable",
      "type": "function"
    },
    {
      "inputs": [],
      "name": "updateGlobalSpotFlow",
      "outputs": [],
      "stateMutability": "nonpayable",
      "type": "function"
    },
    {
      "inputs": [
        {
          "internalType": "bool",
          "name": "state_",
          "type": "bool"
        },
        {
          "internalType": "uint256",
          "name": "divider_",
          "type": "uint256"
        }
      ],
      "name": "updateInstantSpotRewards",
      "outputs": [],
      "stateMutability": "nonpayable",
      "type": "function"
    },
    {
      "inputs": [
        {
          "internalType": "uint256",
          "name": "MaxPendingDataBatchCount_",
          "type": "uint256"
        }
      ],
      "name": "updateMaxPendingDataBatch",
      "outputs": [],
      "stateMutability": "nonpayable",
      "type": "function"
    },
    {
      "inputs": [
        {
          "internalType": "address",
          "name": "addr",
          "type": "address"
        }
      ],
      "name": "updateParametersManager",
      "outputs": [],
      "stateMutability": "nonpayable",
      "type": "function"
    },
    {
      "inputs": [
        {
          "internalType": "uint256",
          "name": "file_size_",
          "type": "uint256"
        }
      ],
      "name": "updateSpotFileSize",
      "outputs": [],
      "stateMutability": "nonpayable",
      "type": "function"
    },
    {
      "inputs": [
        {
          "internalType": "address",
          "name": "user_",
          "type": "address"
        }
      ],
      "name": "updateUserSpotFlow",
      "outputs": [],
      "stateMutability": "nonpayable",
      "type": "function"
    },
    {
      "inputs": [
        {
          "internalType": "uint256",
          "name": "_prevID",
          "type": "uint256"
        },
        {
          "internalType": "uint256",
          "name": "_nextID",
          "type": "uint256"
        },
        {
          "internalType": "address",
          "name": "_voter",
          "type": "address"
        },
        {
          "internalType": "uint256",
          "name": "_numTokens",
          "type": "uint256"
        }
      ],
      "name": "validPosition",
      "outputs": [
        {
          "internalType": "bool",
          "name": "APPROVED",
          "type": "bool"
        }
      ],
      "stateMutability": "view",
      "type": "function"
    },
    {
      "inputs": [
        {
          "internalType": "uint256",
          "name": "_numTokens",
          "type": "uint256"
        },
        {
          "internalType": "address",
          "name": "_user",
          "type": "address"
        }
      ],
      "name": "withdrawVotingRights",
      "outputs": [],
      "stateMutability": "nonpayable",
      "type": "function"
    }
  ],
  "bytecode": "0x608060409081526000600181815560388290556039829055603a819055603b819055603c819055603d819055603e829055603f8290559181905560418190556042556043805460ff19169091179055600a60445560c860455560646046556047805461ffff191690556402540be3ff6049553480156200007e57600080fd5b506040516200c5033803806200c503833981016040819052620000a1916200014b565b620000b5620000af620000f7565b620000fb565b6001600160a01b038116620000c957600080fd5b604780546001600160a01b03909216620100000262010000600160b01b03199092169190911790556200017b565b3390565b600080546001600160a01b038381166001600160a01b0319831681178455604051919092169283917f8be0079c531659141344cd1fd0a4f28419497f9722a3daafe3b4186f6b6457e09190a35050565b6000602082840312156200015d578081fd5b81516001600160a01b038116811462000174578182fd5b9392505050565b61c378806200018b6000396000f3fe608060405234801561001057600080fd5b50600436106107c75760003560e01c80638746ff8a11610400578063bda1e60911610220578063e798a7da11610130578063f716596d116100c3578063f96305f011610092578063f96305f014611086578063fc0c546a1461108e578063fca4956314611096578063fd414881146110a9578063ff43de9d146110bc576107c7565b8063f716596d14611050578063f721de4a14611058578063f7c544fe1461106b578063f80a23fd1461107e576107c7565b8063f2d9e74d116100ff578063f2d9e74d1461101a578063f2fde38b14611022578063f4cdfcc414611035578063f5ae7c7d14611048576107c7565b8063e798a7da14610fe4578063eb1322ff14610ff7578063ed8becfa14610fff578063ef4fcdad14611012576107c7565b8063d420ec0b116101b3578063d8b7567411610182578063d8b7567414610f83578063d9548e5314610f96578063d9845fb814610fa9578063e59d028914610fc9578063e604c12714610fd1576107c7565b8063d420ec0b14610f4d578063d58f575c14610f60578063d6b0206c14610f68578063d817587e14610f70576107c7565b8063cf78c54a116101ef578063cf78c54a14610f0c578063d0d41def14610f1f578063d138209214610f27578063d186981d14610f3a576107c7565b8063bda1e60914610ecb578063c46f17d014610ede578063c4e4f82a14610ee6578063c6b6506314610ef9576107c7565b8063a1b6b5b71161031b578063aacc5a17116102ae578063b1cf4a7e1161027d578063b1cf4a7e14610e6c578063b1d7ea9814610e7f578063b43bd06914610e92578063b8f011b314610ea5578063bc3002e614610eb8576107c7565b8063aacc5a1714610e2b578063b0bc471e14610e33578063b10aa58414610e46578063b1a2e0be14610e59576107c7565b8063a7ba29d1116102ea578063a7ba29d114610ddf578063a905779014610df2578063a98eb31e14610e05578063aa7ca46414610e18576107c7565b8063a1b6b5b714610db4578063a350715a14610dbc578063a4439dc514610dc4578063a511dba014610dd7576107c7565b80638df0296e116103935780639d6e3f96116103625780639d6e3f9614610d685780639e05cbc214610d7b5780639fc9c52f14610d8e578063a1103f3714610da1576107c7565b80638df0296e14610d275780639760356014610d3a5780639769d84614610d4d5780639a1cbfd314610d55576107c7565b80638bf8a338116103cf5780638bf8a33814610cd15780638c89d02714610ce45780638ccb7eec14610d0c5780638da5cb5b14610d1f576107c7565b80638746ff8a14610c8557806388d072eb14610c98578063896d807a14610cab5780638a1479c814610cbe576107c7565b8063515535e8116105eb578063715018a6116105065780637f9510a211610499578063819b029311610468578063819b029314610c3c578063821aa8c014610c4f57806383e5a8f614610c625780638473850b14610c755780638480a22114610c7d576107c7565b80637f9510a214610bec5780637f97e83614610bf45780637fabe35b14610c07578063815ce74714610c34576107c7565b80637860dd41116104d55780637860dd4114610ba05780637a30332214610bb35780637ad3be1114610bc65780637e97561b14610bd9576107c7565b8063715018a614610b7557806371880b1b14610b7d57806375b7536c14610b90578063763a39f214610b98576107c7565b80635dc44cf11161057e57806363b563a81161054d57806363b563a814610b295780636b2d95d414610b3c5780637018e9c614610b4f5780637074222b14610b62576107c7565b80635dc44cf114610ae85780635df6055d14610afb578063607d5efa14610b0e5780636371d81f14610b16576107c7565b8063579db71c116105ba578063579db71c14610a8f57806359fcf77614610aa25780635a45294314610ab55780635b113a5514610ad5576107c7565b8063515535e814610a59578063538e498c14610a6157806353bf27f114610a74578063576a554314610a7c576107c7565b806331e2f285116106e6578063441c77c01161067957806348cbd8f81161064857806348cbd8f8146109ec57806349403183146109ff5780634a45cd8414610a125780634bad8d2414610a255780634fe8b4c114610a46576107c7565b8063441c77c0146109c157806345feae89146109d457806347fe2d20146109dc5780634852e2f0146109e4576107c7565b80633c062cc8116106b55780633c062cc8146109725780633f7e62f314610993578063413b90f71461099b578063427fa1d2146109ae576107c7565b806331e2f285146109245780633538af821461093757806339e7357c146109575780633aed0be51461095f576107c7565b8063154fd39b1161075e578063275c25901161072d578063275c2590146108d65780632c052031146108de5780632d917c68146108f15780632f469fd114610904576107c7565b8063154fd39b14610888578063168231071461089057806319d90346146108a3578063226ed300146108c3576107c7565b8063086eafa31161079a578063086eafa31461083d578063092a5cce146108525780630b96c5b01461085a5780630e6661a714610880576107c7565b806301a48b98146107cc57806301aa5f73146107f5578063059576231461081557806307c037011461082a575b600080fd5b6107df6107da36600461abe7565b6110c4565b6040516107ec919061aee0565b60405180910390f35b61080861080336600461abe7565b611261565b6040516107ec919061ae13565b61082861082336600461a85c565b6112be565b005b61082861083836600461abe7565b61131f565b610845611363565b6040516107ec919061aef3565b610828611371565b61086d61086836600461abe7565b6113c3565b6040516107ec979695949392919061af11565b6108086115a7565b6108086115ad565b61082861089e36600461abe7565b6115b3565b6108b66108b136600461abe7565b611734565b6040516107ec919061ae80565b6108456108d136600461abe7565b611a4f565b610828611a91565b6108086108ec36600461a8bf565b611c12565b6108456108ff36600461a894565b611daf565b61091761091236600461ac10565b611dcd565b6040516107ec919061aefe565b61080861093236600461a85c565b611e72565b61094a61094536600461abe7565b611e84565b6040516107ec919061ae6c565b610808611eae565b61084561096d36600461a85c565b611ecb565b61098561098036600461abe7565b611ee9565b6040516107ec92919061ae5e565b610808611f0b565b6109856109a936600461a894565b611f11565b6108086109bc36600461a85c565b611f41565b6108456109cf36600461abe7565b611fe1565b61084561203b565b610808612044565b61080861204a565b6108286109fa36600461ac10565b612050565b610845610a0d36600461abe7565b612260565b610845610a2036600461a85c565b6124ac565b610a38610a3336600461ace7565b6124ca565b6040516107ec92919061c037565b610828610a5436600461abe7565b612779565b61080861281e565b610808610a6f36600461a85c565b612824565b610808612836565b610828610a8a36600461a85c565b61283c565b6107df610a9d36600461a85c565b612a2b565b610808610ab036600461a85c565b612a97565b610ac8610ac336600461abe7565b612aa9565b6040516107ec919061bf66565b610808610ae336600461ac10565b612cfe565b610808610af636600461a894565b612d1b565b6108b6610b0936600461abe7565b612d4c565b610828612f69565b610828610b2436600461abe7565b61314a565b610845610b3736600461abe7565b6131fd565b610808610b4a36600461a85c565b613250565b610845610b5d36600461abe7565b61325f565b610808610b7036600461a85c565b6132a0565b6108286132bb565b610808610b8b36600461abe7565b613306565b610808613343565b610808613349565b610808610bae36600461abe7565b61334f565b610828610bc136600461abe7565b6133a3565b610808610bd436600461a894565b6136c4565b610828610be736600461abe7565b6136fb565b61080861373f565b610845610c0236600461a894565b613756565b610c1a610c1536600461abe7565b6137a7565b6040516107ec9e9d9c9b9a9998979695949392919061c0a5565b6108086138a7565b610845610c4a36600461ad08565b613903565b61094a610c5d36600461abe7565b613944565b610828610c7036600461ac3f565b613954565b610808613f2a565b610808613f30565b61094a610c9336600461a894565b613f36565b610917610ca636600461ac10565b6143aa565b610828610cb936600461ab02565b6143ce565b610845610ccc36600461a85c565b614410565b610808610cdf36600461aabe565b614425565b610cf7610cf236600461a85c565b614468565b6040516107ec9998979695949392919061c066565b610845610d1a36600461a85c565b6144b3565b61094a6144d1565b61094a610d3536600461ace7565b6144e0565b610828610d4836600461abe7565b614518565b6108086146cf565b610828610d6336600461aa69565b6146d5565b610808610d7636600461a85c565b61472e565b610828610d8936600461abe7565b614799565b610828610d9c36600461a9da565b6149de565b610808610daf36600461a894565b614a2c565b610808614a5f565b610808614a65565b610845610dd236600461abe7565b614a6b565b610808614acd565b610845610ded36600461a85c565b614ad3565b610845610e0036600461ab4f565b614ae8565b610828610e1336600461ac93565b614b4e565b610845610e2636600461a894565b614df9565b610808614e4c565b610808610e4136600461a894565b614f01565b61094a610e5436600461abe7565b614f38565b610845610e6736600461a85c565b614f48565b610808610e7a36600461ace7565b615015565b6107df610e8d36600461ace7565b61502a565b610808610ea036600461a8bf565b61536f565b6107df610eb336600461ace7565b61545b565b610808610ec636600461a8f3565b6154aa565b610828610ed936600461aa69565b6165a5565b6108086165f7565b610808610ef436600461abe7565b6165fd565b610845610f0736600461a85c565b61663a565b610808610f1a36600461a85c565b61664f565b610808616661565b610808610f3536600461a894565b616667565b610845610f4836600461ac10565b61669d565b610845610f5b36600461a894565b616778565b610808616798565b61080861679e565b6108b6610f7e36600461abe7565b6167a4565b610808610f9136600461ac10565b6169c1565b610845610fa436600461abe7565b6169de565b610fbc610fb736600461abe7565b6169e3565b6040516107ec919061be74565b610845616b67565b610917610fdf36600461abe7565b616b70565b610845610ff236600461a85c565b616c1b565b610808616c3c565b6108b661100d36600461abe7565b616c42565b610808616f51565b610808616f57565b61082861103036600461a85c565b616f5d565b61080861104336600461aba5565b616fcb565b610808616fe0565b610828616fe6565b61084561106636600461abe7565b6173f9565b61082861107936600461aaa1565b617401565b610845617457565b610808617470565b61094a617476565b6108086110a436600461a85c565b61748b565b6108b66110b736600461ace7565b61753f565b61094a617a51565b60606110cf826173f9565b6110f45760405162461bcd60e51b81526004016110eb9061bb0b565b60405180910390fd5b6000828152602e602090815260408083208054825181850281018501909352808352919290919083018282801561115457602002820191906000526020600020905b81546001600160a01b03168152600190910190602001808311611136575b50505050509050600081516001600160401b0381111561118457634e487b7160e01b600052604160045260246000fd5b6040519080825280602002602001820160405280156111ad578160200160208202803683370190505b50905060005b8251811015611257576022600086815260200190815260200160002060008483815181106111f157634e487b7160e01b600052603260045260246000fd5b60200260200101516001600160a01b03166001600160a01b031681526020019081526020016000205482828151811061123a57634e487b7160e01b600052603260045260246000fd5b60209081029190910101528061124f8161c28e565b9150506111b3565b509150505b919050565b600061126c826173f9565b6112885760405162461bcd60e51b81526004016110eb9061bb0b565b600061129383611fe1565b156112b8576000838152602a60205260409020600601546112b590429061c210565b90505b92915050565b6112c6617a60565b6001600160a01b03166112d76144d1565b6001600160a01b0316146112fd5760405162461bcd60e51b81526004016110eb9061b80a565b604880546001600160a01b0319166001600160a01b0392909216919091179055565b611327617a60565b6001600160a01b03166113386144d1565b6001600160a01b03161461135e5760405162461bcd60e51b81526004016110eb9061b80a565b604655565b604754610100900460ff1681565b611379617a60565b6001600160a01b031661138a6144d1565b6001600160a01b0316146113b05760405162461bcd60e51b81526004016110eb9061b80a565b6113b86144d1565b6001600160a01b0316ff5b6029602052600090815260409020805481906113de9061c253565b80601f016020809104026020016040519081016040528092919081815260200182805461140a9061c253565b80156114575780601f1061142c57610100808354040283529160200191611457565b820191906000526020600020905b81548152906001019060200180831161143a57829003601f168201915b50505060018401546002850154600386015460048701805496976001600160a01b03909416969295509093509061148d9061c253565b80601f01602080910402602001604051908101604052809291908181526020018280546114b99061c253565b80156115065780601f106114db57610100808354040283529160200191611506565b820191906000526020600020905b8154815290600101906020018083116114e957829003601f168201915b50505050509080600501805461151b9061c253565b80601f01602080910402602001604051908101604052809291908181526020018280546115479061c253565b80156115945780601f1061156957610100808354040283529160200191611594565b820191906000526020600020905b81548152906001019060200180831161157757829003601f168201915b5050506006909301549192505060ff1687565b60395481565b603d5490565b6048546001600160a01b03166115db5760405162461bcd60e51b81526004016110eb9061aff7565b600061166c82604860009054906101000a90046001600160a01b03166001600160a01b0316637d630cb06040518163ffffffff1660e01b815260040160206040518083038186803b15801561162f57600080fd5b505afa158015611643573d6000803e3d6000fd5b505050506040513d601f19601f82011682018060405250810190611667919061abff565b617a64565b905060005b8181101561172f57603c546000908152602a602052604081206004015462010000900460ff16151560011480156116cb57506116ae603c54611a4f565b806116cb5750603c546000908152602a6020526040902060030154155b1561171157603c546000908152602a6020526040902060040154610100900460ff166116fc576116fc603c54617a7a565b603c5461170a90600161927e565b603c555060015b8061171c575061172f565b50806117278161c28e565b915050611671565b505050565b606061173f826173f9565b61175b5760405162461bcd60e51b81526004016110eb9061bb0b565b6000828152602a6020908152604080832081516101c0810183528154815260018201549381019390935260028101549183019190915260038101546060830152600481015460ff808216151560808501526101008083048216151560a08601526201000090920416151560c0840152600582015460e084015260068201549083015260078101546101208301526008810154610140830152600981018054610160840191906118099061c253565b80601f01602080910402602001604051908101604052809291908181526020018280546118359061c253565b80156118825780601f1061185757610100808354040283529160200191611882565b820191906000526020600020905b81548152906001019060200180831161186557829003601f168201915b5050509183525050600a8201546020820152600b82015460409091019060ff1660038111156118c157634e487b7160e01b600052602160045260246000fd5b60038111156118e057634e487b7160e01b600052602160045260246000fd5b90525060208101519091506000816001600160401b0381111561191357634e487b7160e01b600052604160045260246000fd5b60405190808252806020026020018201604052801561194657816020015b60608152602001906001900390816119315790505b50905060005b82811015611a4657835160009061196490839061c1c5565b6000818152602960205260408120600401805492935090916119859061c253565b80601f01602080910402602001604051908101604052809291908181526020018280546119b19061c253565b80156119fe5780601f106119d3576101008083540402835291602001916119fe565b820191906000526020600020905b8154815290600101906020018083116119e157829003601f168201915b5050505050905080848481518110611a2657634e487b7160e01b600052603260045260246000fd5b602002602001018190525050508080611a3e9061c28e565b91505061194c565b50949350505050565b6000611a5a826173f9565b611a765760405162461bcd60e51b81526004016110eb9061bdff565b6000828152602a60205260409020600601546112b8906169de565b336000908152602b60205260409020600381015460ff161515600114611ac95760405162461bcd60e51b81526004016110eb9061b799565b805415801590611ae357506003810154610100900460ff16155b8015611af55750611af333611ecb565b155b15611b665760038101805461ff0019166101001790556031805460018181019092557fc54045fa7c6ec765e825df7f9e9bf9dec12c5cef146f93a5eee56772ee647fbc0180546001600160a01b031916339081179091556000908152603460205260409020805460ff191690911790555b8054611bee57611b753361928a565b611b7e336193e0565b611b873361950f565b42600282018190553360008181526034602052604090819020805460ff1990811690915560038501805490911690555190917f9dadcedba048e92b943ea1c5861cee1df63a566d7f795869c004780c1c698e2b91611be5919061ae13565b60405180910390a25b6001603e6000828254611c01919061c1c5565b90915550611c0f905061963e565b50565b600080611c1e85611f41565b90506000611c2c8683616667565b90505b8115611da457611c3f8683616667565b9050848111611cfc5783821415611cf4576001600160a01b0386166000908152602760205260409081902090516301c39b2b60e11b815273__$85afbab79b2b776d70bef879a32ed56424$__91630387365691611ca19190869060040161ae5e565b60206040518083038186803b158015611cb957600080fd5b505af4158015611ccd573d6000803e3d6000fd5b505050506040513d601f19601f82011682018060405250810190611cf1919061abff565b91505b509050611da8565b6001600160a01b0386166000908152602760205260409081902090516301c39b2b60e11b815273__$85afbab79b2b776d70bef879a32ed56424$__91630387365691611d4d9190869060040161ae5e565b60206040518083038186803b158015611d6557600080fd5b505af4158015611d79573d6000803e3d6000fd5b505050506040513d601f19601f82011682018060405250810190611d9d919061abff565b9150611c2f565b5090505b9392505050565b60208080526000928352604080842090915290825290205460ff1681565b602360209081526000928352604080842090915290825290208054611df19061c253565b80601f0160208091040260200160405190810160405280929190818152602001828054611e1d9061c253565b8015611e6a5780601f10611e3f57610100808354040283529160200191611e6a565b820191906000526020600020905b815481529060010190602001808311611e4d57829003601f168201915b505050505081565b602d6020526000908152604090205481565b602f8181548110611e9457600080fd5b6000918252602090912001546001600160a01b0316905081565b60405160009080602081848060185afa611ec457fe5b5051919050565b6001600160a01b031660009081526034602052604090205460ff1690565b600281600f8110611ef957600080fd5b60020201805460019091015490915082565b60455481565b602c60205281600052604060002081600f8110611f2d57600080fd5b600202018054600190910154909250905082565b6001600160a01b03811660009081526027602052604080822090516301c39b2b60e11b815273__$85afbab79b2b776d70bef879a32ed56424$__91630387365691611f919190859060040161ae5e565b60206040518083038186803b158015611fa957600080fd5b505af4158015611fbd573d6000803e3d6000fd5b505050506040513d601f19601f820116820180604052508101906112b8919061abff565b6000611fec826173f9565b6120085760405162461bcd60e51b81526004016110eb9061bb0b565b6000828152602a6020526040902060060154612023906169de565b1580156112b8575061203482614a6b565b1592915050565b60435460ff1681565b603c5490565b60415481565b6048546001600160a01b03166120785760405162461bcd60e51b81526004016110eb9061aff7565b60006120a561208683613250565b6001600160a01b0384166000908152602d602052604090205490619917565b9050828110156120c75760405162461bcd60e51b81526004016110eb9061ba8f565b6048546040805163ca64f9e760e01b815290516000926001600160a01b03169163ca64f9e7916004808301926020929190829003018186803b15801561210c57600080fd5b505afa158015612120573d6000803e3d6000fd5b505050506040513d601f19601f82011682018060405250810190612144919061a878565b604051630895993360e11b81529091506001600160a01b0382169063112b326690612175908790879060040161c002565b602060405180830381600087803b15801561218f57600080fd5b505af11580156121a3573d6000803e3d6000fd5b505050506040513d601f19601f820116820180604052508101906121c7919061aa85565b6121e35760405162461bcd60e51b81526004016110eb9061bd5e565b6001600160a01b0383166000908152602d60205260408120805486929061220b90849061c210565b90915550612219905061963e565b826001600160a01b03167ffaeb7dbb9992397d26ea1944efd40c80b40f702faf69b46c67ad10aba68ccb7985604051612252919061ae13565b60405180910390a250505050565b6000818152602a6020908152604080832081516101c0810183528154815260018201549381019390935260028101549183019190915260038101546060830152600481015460ff808216151560808501526101008083048216151560a08601526201000090920416151560c0840152600582015460e084015260068201549083015260078101546101208301526008810154610140830152600981018054849392916101608401916123119061c253565b80601f016020809104026020016040519081016040528092919081815260200182805461233d9061c253565b801561238a5780601f1061235f5761010080835404028352916020019161238a565b820191906000526020600020905b81548152906001019060200180831161236d57829003601f168201915b5050509183525050600a8201546020820152600b82015460409091019060ff1660038111156123c957634e487b7160e01b600052602160045260246000fd5b60038111156123e857634e487b7160e01b600052602160045260246000fd5b9052506101408101516101208201519192506124039161c1c5565b604860009054906101000a90046001600160a01b03166001600160a01b031663ea19733c6040518163ffffffff1660e01b815260040160206040518083038186803b15801561245157600080fd5b505afa158015612465573d6000803e3d6000fd5b505050506040513d601f19601f82011682018060405250810190612489919061abff565b612493919061c1f1565b6101208201516124a490606461c1f1565b119392505050565b6001600160a01b031660009081526033602052604090205460ff1690565b600060606000841180156124dd57508284105b6124f95760405162461bcd60e51b81526004016110eb9061b561565b600080612506868661c210565b61251190600161c1c5565b90506000816001600160401b0381111561253b57634e487b7160e01b600052604160045260246000fd5b604051908082528060200260200182016040528015612564578160200160208202803683370190505b509050865b61257487600161c1c5565b81101561275c576000818152602a6020908152604080832081516101c0810183528154815260018201549381019390935260028101549183019190915260038101546060830152600481015460ff808216151560808501526101008083048216151560a08601526201000090920416151560c0840152600582015460e084015260068201549083015260078101546101208301526008810154610140830152600981018054610160840191906126299061c253565b80601f01602080910402602001604051908101604052809291908181526020018280546126559061c253565b80156126a25780601f10612677576101008083540402835291602001916126a2565b820191906000526020600020905b81548152906001019060200180831161268557829003601f168201915b5050509183525050600a8201546020820152600b82015460409091019060ff1660038111156126e157634e487b7160e01b600052602160045260246000fd5b600381111561270057634e487b7160e01b600052602160045260246000fd5b905250610180810151909150612716908661c1c5565b945080610180015183838151811061273e57634e487b7160e01b600052603260045260246000fd5b602090810291909101015250806127548161c28e565b915050612569565b506000612769838561c1dd565b95509093505050505b9250929050565b612781617a60565b6001600160a01b03166127926144d1565b6001600160a01b0316146127b85760405162461bcd60e51b81526004016110eb9061b80a565b6000818152602960205260408120906127d1828261a5d0565b6001820180546001600160a01b03191690556000600283018190556003830181905561280190600484019061a5d0565b61280f60058301600061a5d0565b50600601805460ff1916905550565b603b5490565b60356020526000908152604090205481565b602f5490565b6048546001600160a01b03166128645760405162461bcd60e51b81526004016110eb9061aff7565b6001600160a01b0381166000908152602c60205260408120906128896001600f61c210565b905060008282600f81106128ad57634e487b7160e01b600052603260045260246000fd5b6002020154604854604080516307bc663b60e11b815290519293506001600160a01b0390911691630f78cc7691600480820192602092909190829003018186803b1580156128fa57600080fd5b505afa15801561290e573d6000803e3d6000fd5b505050506040513d601f19601f82011682018060405250810190612932919061abff565b61293c824261c210565b1115612a255760005b6129516001600f61c210565b8110156129d0578361296482600161c1c5565b600f811061298257634e487b7160e01b600052603260045260246000fd5b600202018482600f81106129a657634e487b7160e01b600052603260045260246000fd5b825460029190910291909101908155600191820154910155806129c88161c28e565b915050612945565b50428383600f81106129f257634e487b7160e01b600052603260045260246000fd5b600202015560008383600f8110612a1957634e487b7160e01b600052603260045260246000fd5b60020201600101819055505b50505050565b6001600160a01b038116600090815260266020908152604091829020805483518184028101840190945280845260609392830182828015612a8b57602002820191906000526020600020905b815481526020019060010190808311612a77575b50505050509050919050565b60366020526000908152604090205481565b612ab161a60c565b60008281526029602052604090819020815160e08101909252805482908290612ad99061c253565b80601f0160208091040260200160405190810160405280929190818152602001828054612b059061c253565b8015612b525780601f10612b2757610100808354040283529160200191612b52565b820191906000526020600020905b815481529060010190602001808311612b3557829003601f168201915b505050918352505060018201546001600160a01b031660208201526002820154604082015260038201546060820152600482018054608090920191612b969061c253565b80601f0160208091040260200160405190810160405280929190818152602001828054612bc29061c253565b8015612c0f5780601f10612be457610100808354040283529160200191612c0f565b820191906000526020600020905b815481529060010190602001808311612bf257829003601f168201915b50505050508152602001600582018054612c289061c253565b80601f0160208091040260200160405190810160405280929190818152602001828054612c549061c253565b8015612ca15780601f10612c7657610100808354040283529160200191612ca1565b820191906000526020600020905b815481529060010190602001808311612c8457829003601f168201915b5050509183525050600682015460209091019060ff166003811115612cd657634e487b7160e01b600052602160045260246000fd5b6003811115612cf557634e487b7160e01b600052602160045260246000fd5b90525092915050565b602460209081526000928352604080842090915290825290205481565b60266020528160005260406000208181548110612d3757600080fd5b90600052602060002001600091509150505481565b6060612d57826173f9565b612d735760405162461bcd60e51b81526004016110eb9061bb0b565b6000828152602e6020908152604080832080548251818502810185019093528083529192909190830182828015612dd357602002820191906000526020600020905b81546001600160a01b03168152600190910190602001808311612db5575b50505050509050600081516001600160401b03811115612e0357634e487b7160e01b600052604160045260246000fd5b604051908082528060200260200182016040528015612e3657816020015b6060815260200190600190039081612e215790505b50905060005b825181101561125757602560008681526020019081526020016000206000848381518110612e7a57634e487b7160e01b600052603260045260246000fd5b60200260200101516001600160a01b03166001600160a01b031681526020019081526020016000208054612ead9061c253565b80601f0160208091040260200160405190810160405280929190818152602001828054612ed99061c253565b8015612f265780601f10612efb57610100808354040283529160200191612f26565b820191906000526020600020905b815481529060010190602001808311612f0957829003601f168201915b5050505050828281518110612f4b57634e487b7160e01b600052603260045260246000fd5b60200260200101819052508080612f619061c28e565b915050612e3c565b6048546001600160a01b0316612f915760405162461bcd60e51b81526004016110eb9061aff7565b6000612f9f6001600f61c210565b90506000600282600f8110612fc457634e487b7160e01b600052603260045260246000fd5b6002020154604854604080516307bc663b60e11b815290519293506001600160a01b0390911691630f78cc7691600480820192602092909190829003018186803b15801561301157600080fd5b505afa158015613025573d6000803e3d6000fd5b505050506040513d601f19601f82011682018060405250810190613049919061abff565b613053824261c210565b11156131465760005b6130686001600f61c210565b8110156130e957600261307c82600161c1c5565b600f811061309a57634e487b7160e01b600052603260045260246000fd5b60020201600282600f81106130bf57634e487b7160e01b600052603260045260246000fd5b825460029190910291909101908155600191820154910155806130e18161c28e565b91505061305c565b5042600283600f811061310c57634e487b7160e01b600052603260045260246000fd5b60020201600001819055506000600283600f811061313a57634e487b7160e01b600052603260045260246000fd5b60020201600101819055505b5050565b613152617a60565b6001600160a01b03166131636144d1565b6001600160a01b0316146131895760405162461bcd60e51b81526004016110eb9061b80a565b6000818152602a6020526040812081815560018101829055600281018290556003810182905560048101805462ffffff1916905560058101829055600681018290556007810182905560088101829055906131e7600983018261a5d0565b506000600a820155600b01805460ff1916905550565b6000613208826173f9565b6132145750600061125c565b6000828152602a602052604090206006015461322f906169de565b8061324957506000828152602a6020526040902060030154155b905061125c565b60006112b882610f3584611f41565b600061326a826173f9565b6132765750600061125c565b6000828152602a6020526040902060050154613291906169de565b80613249575061324982611fe1565b6001600160a01b03166000908152602d602052604090205490565b6132c3617a60565b6001600160a01b03166132d46144d1565b6001600160a01b0316146132fa5760405162461bcd60e51b81526004016110eb9061b80a565b6133046000619923565b565b6000613311826173f9565b61332d5760405162461bcd60e51b81526004016110eb9061bb0b565b506000908152602a602052604090206006015490565b60465481565b60305490565b600061335a826173f9565b6133765760405162461bcd60e51b81526004016110eb9061bb0b565b600061338183614a6b565b156112b8576000838152602a60205260409020600501546112b590429061c210565b6048546001600160a01b03166133cb5760405162461bcd60e51b81526004016110eb9061aff7565b6133d3612f69565b6133db619973565b600061342f82604860009054906101000a90046001600160a01b03166001600160a01b0316637d630cb06040518163ffffffff1660e01b815260040160206040518083038186803b15801561162f57600080fd5b905060005b818110156134f257603c546000908152602a602052604081206004015462010000900460ff161515600114801561348e5750613471603c54611a4f565b8061348e5750603c546000908152602a6020526040902060030154155b156134d457603c546000908152602a6020526040902060040154610100900460ff166134bf576134bf603c54617a7a565b603c546134cd90600161927e565b603c555060015b806134df57506134f2565b50806134ea8161c28e565b915050613434565b506134fc81619b36565b613504614e4c565b603854146136bc5760005b818110156136ba57603d546000908152602a602052604081206004015462010000900460ff1615156001148015906135ce5750604860009054906101000a90046001600160a01b03166001600160a01b031663bd40ef4c6040518163ffffffff1660e01b815260040160206040518083038186803b15801561359057600080fd5b505afa1580156135a4573d6000803e3d6000fd5b505050506040513d601f19601f820116820180604052508101906135c8919061abff565b602f5410155b80156135ee5750603d546000908152602a602052604090206004015460ff165b801561368b5750604860009054906101000a90046001600160a01b03166001600160a01b031663c4a306f86040518163ffffffff1660e01b815260040160206040518083038186803b15801561364357600080fd5b505afa158015613657573d6000803e3d6000fd5b505050506040513d601f19601f8201168201806040525081019061367b919061abff565b600154613688904261c210565b10155b1561369c57613698619c41565b5060015b806136a757506136ba565b50806136b28161c28e565b91505061350f565b505b61314661963e565b60006112b56136d38484614a2c565b6040518060400160405280600a8152602001690c6dedadad2e890c2e6d60b31b815250614425565b613703617a60565b6001600160a01b03166137146144d1565b6001600160a01b03161461373a5760405162461bcd60e51b81526004016110eb9061b80a565b604555565b603054602f546000916137519161c1c5565b905090565b6000613761826173f9565b61377d5760405162461bcd60e51b81526004016110eb9061bb0b565b506001600160a01b0391909116600090815260208080526040808320938352929052205460ff1690565b602a60205260009081526040902080546001820154600283015460038401546004850154600586015460068701546007880154600889015460098a018054999a98999798969760ff808816986101008904821698620100009004909116969594939290916138149061c253565b80601f01602080910402602001604051908101604052809291908181526020018280546138409061c253565b801561388d5780601f106138625761010080835404028352916020019161388d565b820191906000526020600020905b81548152906001019060200180831161387057829003601f168201915b50505050600a830154600b9093015491929160ff1690508e565b600080805b600f8110156138fd57600281600f81106138d657634e487b7160e01b600052603260045260246000fd5b6002020160010154826138e9919061c1c5565b9150806138f58161c28e565b9150506138ac565b50905090565b6000806139108487616667565b831015905060006139218587616667565b8411158061392d575085155b90508180156139395750805b979650505050505050565b60308181548110611e9457600080fd5b6048546001600160a01b031661397c5760405162461bcd60e51b81526004016110eb9061aff7565b61398585614a6b565b6139a15760405162461bcd60e51b81526004016110eb9061b0c4565b3360009081526020808052604080832088845290915290205460ff16156139da5760405162461bcd60e51b81526004016110eb9061bbf1565b6139e4853361669d565b613a005760405162461bcd60e51b81526004016110eb9061b326565b60485460408051632a49798160e11b815290516000926001600160a01b031691635492f302916004808301926020929190829003018186803b158015613a4557600080fd5b505afa158015613a59573d6000803e3d6000fd5b505050506040513d601f19601f82011682018060405250810190613a7d919061a878565b6001600160a01b03161415613aa45760405162461bcd60e51b81526004016110eb9061bdbb565b604854604080516001624ee91360e11b0319815290516000926001600160a01b03169163ff622dda916004808301926020929190829003018186803b158015613aec57600080fd5b505afa158015613b00573d6000803e3d6000fd5b505050506040513d601f19601f82011682018060405250810190613b24919061abff565b90506000613b323383613f36565b60475490915060ff1615613b92576001600160a01b0381166000908152602d6020526040902054821115613b92576001600160a01b0381166000908152602d6020526040812054613b84908490619917565b9050613b90818361a25b565b505b6000336000908152602760205260408082209051631e0f232560e31b815273__$85afbab79b2b776d70bef879a32ed56424$__9163f079192891613bdb9190869060040161ae5e565b60206040518083038186803b158015613bf357600080fd5b505af4158015613c07573d6000803e3d6000fd5b505050506040513d601f19601f82011682018060405250810190613c2b919061abff565b905088811415613cd05733600090815260276020526040908190209051631e0f232560e31b815273__$85afbab79b2b776d70bef879a32ed56424$__9163f079192891613c7d91908d9060040161ae5e565b60206040518083038186803b158015613c9557600080fd5b505af4158015613ca9573d6000803e3d6000fd5b505050506040513d601f19601f82011682018060405250810190613ccd919061abff565b90505b613cdc82823387613903565b613cf85760405162461bcd60e51b81526004016110eb9061b70e565b3360009081526027602052604090819020905163524cfe5360e11b815273__$85afbab79b2b776d70bef879a32ed56424$__9163a499fca691613d44919086908e90879060040161bf4b565b60006040518083038186803b158015613d5c57600080fd5b505af4158015613d70573d6000803e3d6000fd5b505050506000613d80338b614a2c565b9050613dae81604051806040016040528060098152602001686e756d546f6b656e7360b81b815250876143ce565b613dde816040518060400160405280600a8152602001690c6dedadad2e890c2e6d60b31b8152508b60001c6143ce565b613e0e816040518060400160405280600a815260200169636f6d6d6974566f746560b01b8152508a60001c6143ce565b60008a8152602460209081526040808320338085529083528184208b90558d84526025835281842090845282529091208751613e4c9289019061a670565b50336000908152602b602090815260408083208d8452602a90925290912060020154613e79906001619917565b60008c8152602a6020908152604080832060029081019490945542938501939093553382528080528282208e83529052908120805460ff19166001908117909155603e805491929091613ecd90849061c1c5565b90915550613edb905061963e565b336001600160a01b03168b7f42864d9683ff5b12c3b2cc65d705af5aab104b03bc700b802f79e5c971ef08a188604051613f15919061ae13565b60405180910390a35050505050505050505050565b603b5481565b60385481565b6048546000906001600160a01b0316613f615760405162461bcd60e51b81526004016110eb9061aff7565b60485460408051632a49798160e11b815290516000926001600160a01b031691635492f302916004808301926020929190829003018186803b158015613fa657600080fd5b505afa158015613fba573d6000803e3d6000fd5b505050506040513d601f19601f82011682018060405250810190613fde919061a878565b6001600160a01b031614156140055760405162461bcd60e51b81526004016110eb9061bdbb565b6048546040805163ca64f9e760e01b815290516000926001600160a01b03169163ca64f9e7916004808301926020929190829003018186803b15801561404a57600080fd5b505afa15801561405e573d6000803e3d6000fd5b505050506040513d601f19601f82011682018060405250810190614082919061a878565b6001600160a01b031614156140a95760405162461bcd60e51b81526004016110eb9061b968565b6048546040805163ca64f9e760e01b815290516000926001600160a01b03169163ca64f9e7916004808301926020929190829003018186803b1580156140ee57600080fd5b505afa158015614102573d6000803e3d6000fd5b505050506040513d601f19601f82011682018060405250810190614126919061a878565b90506000604860009054906101000a90046001600160a01b03166001600160a01b0316635492f3026040518163ffffffff1660e01b815260040160206040518083038186803b15801561417857600080fd5b505afa15801561418c573d6000803e3d6000fd5b505050506040513d601f19601f820116820180604052508101906141b0919061a878565b90508480600360005b8181101561439d5760405163065ee72760e51b81526000906001600160a01b0388169063cbdce4e0906141f090879060040161ae6c565b60206040518083038186803b15801561420857600080fd5b505afa15801561421c573d6000803e3d6000fd5b505050506040513d601f19601f82011682018060405250810190614240919061abff565b6001600160a01b0385166000908152602d6020526040902054909150891161426b578394505061439d565b6001600160a01b0384166000908152602d602052604090205489108015906142aa57506001600160a01b0384166000908152602d602052604090205415155b156142e8576001600160a01b0384166000908152602d60205260408120546142d3908b90619917565b90508082106142e657849550505061439d565b505b8881106142f8578394505061439d565b60405163792f4f6960e11b81526001600160a01b0387169063f25e9ed29061432490879060040161ae6c565b60206040518083038186803b15801561433c57600080fd5b505afa158015614350573d6000803e3d6000fd5b505050506040513d601f19601f82011682018060405250810190614374919061a878565b93506001600160a01b03841661438a575061439d565b50806143958161c28e565b9150506141b9565b5091979650505050505050565b602560209081526000928352604080842090915290825290208054611df19061c253565b600083836040516020016143e392919061ae1c565b60408051601f19818403018152918152815160209283012060009081526028909252902091909155505050565b60326020526000908152604090205460ff1681565b600080838360405160200161443b92919061ae1c565b60408051808303601f19018152918152815160209283012060009081526028909252902054949350505050565b602b602052600090815260409020805460018201546002830154600384015460048501546005860154600687015460079097015495969495939460ff80851695610100909504169389565b6001600160a01b031660009081526032602052604090205460ff1690565b6000546001600160a01b031690565b602e60205281600052604060002081815481106144fc57600080fd5b6000918252602090912001546001600160a01b03169150829050565b60016000828152602a60205260409020600b015460ff16600381111561454e57634e487b7160e01b600052602160045260246000fd5b1461456b5760405162461bcd60e51b81526004016110eb9061b02e565b336000908152602760205260409081902090516306120d1f60e31b815273__$85afbab79b2b776d70bef879a32ed56424$__9163309068f8916145b39190859060040161ae5e565b60206040518083038186803b1580156145cb57600080fd5b505af41580156145df573d6000803e3d6000fd5b505050506040513d601f19601f82011682018060405250810190614603919061aa85565b61461f5760405162461bcd60e51b81526004016110eb9061b5ee565b336000908152602760205260409081902090516301039dfd60e11b815273__$85afbab79b2b776d70bef879a32ed56424$__916302073bfa916146679190859060040161ae5e565b60006040518083038186803b15801561467f57600080fd5b505af4158015614693573d6000803e3d6000fd5b5050505061469f61963e565b604051339082907f402507661c8c8cb90e0a796450b8bdd28b6c516f05279c0cd29e84c344e1699a90600090a350565b603f5481565b6146dd617a60565b6001600160a01b03166146ee6144d1565b6001600160a01b0316146147145760405162461bcd60e51b81526004016110eb9061b80a565b604780549115156101000261ff0019909216919091179055565b6001600160a01b0381166000908152602c6020526040812081805b600f811015611257578281600f811061477257634e487b7160e01b600052603260045260246000fd5b600202016001015482614785919061c1c5565b9150806147918161c28e565b915050614749565b6048546001600160a01b03166147c15760405162461bcd60e51b81526004016110eb9061aff7565b600061481582604860009054906101000a90046001600160a01b03166001600160a01b0316637d630cb06040518163ffffffff1660e01b815260040160206040518083038186803b15801561162f57600080fd5b905061482081619b36565b614828614e4c565b603854146136bc5760005b818110156136ba57603d546000908152602a602052604081206004015462010000900460ff1615156001148015906148f25750604860009054906101000a90046001600160a01b03166001600160a01b031663bd40ef4c6040518163ffffffff1660e01b815260040160206040518083038186803b1580156148b457600080fd5b505afa1580156148c8573d6000803e3d6000fd5b505050506040513d601f19601f820116820180604052508101906148ec919061abff565b602f5410155b80156149125750603d546000908152602a602052604090206004015460ff165b80156149af5750604860009054906101000a90046001600160a01b03166001600160a01b031663c4a306f86040518163ffffffff1660e01b815260040160206040518083038186803b15801561496757600080fd5b505afa15801561497b573d6000803e3d6000fd5b505050506040513d601f19601f8201168201806040525081019061499f919061abff565b6001546149ac904261c210565b10155b156149c0576149bc619c41565b5060015b806149cb57506136ba565b50806149d68161c28e565b915050614833565b60005b815181101561314657614a1a828281518110614a0d57634e487b7160e01b600052603260045260246000fd5b6020026020010151614518565b80614a248161c28e565b9150506149e1565b60008282604051602001614a4192919061adf1565b60405160208183030381529060405280519060200120905092915050565b603f5490565b60405481565b6000614a76826173f9565b614a925760405162461bcd60e51b81526004016110eb9061bb0b565b6000828152602a6020526040902060050154614aad906169de565b1580156112b85750506000908152602a6020526040902060020154151590565b60395490565b60346020526000908152604090205460ff1681565b600081604051602001614afb919061ae42565b6040516020818303038152906040528051906020012083604051602001614b22919061ae42565b604051602081830303815290604052805190602001201415614b46575060016112b8565b5060006112b8565b614b5784611fe1565b614b735760405162461bcd60e51b81526004016110eb9061ba49565b3360009081526020808052604080832087845290915290205460ff16614bab5760405162461bcd60e51b81526004016110eb9061b4c8565b33600090815260216020908152604080832087845290915290205460ff1615614be65760405162461bcd60e51b81526004016110eb9061be28565b614bf033856136c4565b614bfa8483616fcb565b14614c175760405162461bcd60e51b81526004016110eb9061b18b565b614c213385614f01565b614c2b8383615015565b14614c485760405162461bcd60e51b81526004016110eb9061b113565b6000614c543386616667565b90508260011415614c8b576000858152602a602052604081206007018054839290614c8090849061c1c5565b90915550614cb29050565b6000858152602a602052604081206008018054839290614cac90849061c1c5565b90915550505b3360008181526021602090815260408083208984528252808320805460ff19166001179055602282528083208484528252808320879055888352602382528083209383529281529190208551614d0a9287019061a670565b50336000908152602b60209081526040808320888452602a90925290912060030154614d37906001619917565b6000878152602a6020526040902060039081019190915542600283015581015460ff1615614d755760008155614d6c336193e0565b614d753361a490565b6001603e6000828254614d88919061c1c5565b90915550614d96905061963e565b6000868152602a60205260409081902060078101546008909101549151339287928a927f0867b5027231dcbf37614eaad07d667b9febaf9fdf483f488229b1f140bb074892614de992899290919061c050565b60405180910390a4505050505050565b6000614e04826173f9565b614e205760405162461bcd60e51b81526004016110eb9061bb0b565b506001600160a01b03919091166000908152602160209081526040808320938352929052205460ff1690565b6000804241604051602001614e61919061add4565b6040516020818303038152906040528051906020012060001c614e84919061c1dd565b44614e8d611eae565b604051602001614e9d919061ae13565b60408051601f198184030181529190528051602090910120614ebf904261c1c5565b614ec9919061c1c5565b614ed3919061c1c5565b604051602001614ee3919061ae13565b60408051601f19818403018152919052805160209091012091505090565b60006112b5614f108484614a2c565b6040518060400160405280600a815260200169636f6d6d6974566f746560b01b815250614425565b60318181548110611e9457600080fd5b6001600160a01b0381166000908152602b602090815260408083208151610120810183528154808252600183015494820194909452600282015492810192909252600381015460ff80821615156060850152610100918290041615156080840152600482015460a0840152600582015460c0840152600682015460e0840152600790910154908201528291614fdd8582614df9565b158015614ff05750614fee81611a4f565b155b801561500257506150008161325f565b155b1561500c57600192505b50909392505050565b60008282604051602001614a4192919061ae5e565b606060008211801561503c5750818311155b8015615049575060018310155b6150655760405162461bcd60e51b81526004016110eb9061b383565b60018310156150865760405162461bcd60e51b81526004016110eb9061bb42565b60018210156150a75760405162461bcd60e51b81526004016110eb9061b7e5565b60006150b1614e4c565b6040516020016150c1919061ae13565b60408051601f198184030181529082905280516020918201206150e69290910161ae13565b6040516020818303038152906040528051906020012060001c90506000846001600160401b0381111561512957634e487b7160e01b600052604160045260246000fd5b604051908082528060200260200182016040528015615152578160200160208202803683370190505b50905060008061516387601461c1c5565b905060005b818110156152755760008761517d838061c1f1565b615187908861c1c5565b604051602001615197919061ae13565b6040516020818303038152906040528051906020012060001c6151ba919061c2a9565b90506000805b8581101561521257828782815181106151e957634e487b7160e01b600052603260045260246000fd5b602002602001015114156152005760019150615212565b8061520a8161c28e565b9150506151c0565b5080615252578186868151811061523957634e487b7160e01b600052603260045260246000fd5b602090810291909101015261524f85600161c1c5565b94505b898510615260575050615275565b5050808061526d9061c28e565b915050615168565b50868210156153455760005b8681101561534357806000805b858110156152e057828782815181106152b757634e487b7160e01b600052603260045260246000fd5b602002602001015114156152ce57600191506152e0565b806152d88161c28e565b91505061528e565b5080615320578186868151811061530757634e487b7160e01b600052603260045260246000fd5b602090810291909101015261531d85600161c1c5565b94505b89851061532e575050615343565b5050808061533b9061c28e565b915050615281565b505b8682146153645760405162461bcd60e51b81526004016110eb9061b6e4565b509095945050505050565b600061537a83611a4f565b6153965760405162461bcd60e51b81526004016110eb9061bd14565b6001600160a01b038416600090815260216020908152604080832086845290915290205460ff166153d95760405162461bcd60e51b81526004016110eb9061b64b565b60006153e484612260565b6153ef5760006153f2565b60015b60ff1690506000818460405160200161540c92919061ae5e565b60405160208183030381529060405280519060200120905060006154308787614f01565b90508082146154515760405162461bcd60e51b81526004016110eb9061b9aa565b6139398787616667565b606060008211801561546d5750818311155b801561547a575060018310155b6154965760405162461bcd60e51b81526004016110eb9061b383565b60006154a2848461502a565b949350505050565b6048546000906001600160a01b03166154d55760405162461bcd60e51b81526004016110eb9061aff7565b604860009054906101000a90046001600160a01b03166001600160a01b0316634e87c5a86040518163ffffffff1660e01b815260040160206040518083038186803b15801561552357600080fd5b505afa158015615537573d6000803e3d6000fd5b505050506040513d601f19601f8201168201806040525081019061555b919061aa85565b6155775760405162461bcd60e51b81526004016110eb9061b517565b855184146155975760405162461bcd60e51b81526004016110eb9061bba4565b61559f612f69565b604860009054906101000a90046001600160a01b03166001600160a01b031663b38e885e6040518163ffffffff1660e01b815260040160206040518083038186803b1580156155ed57600080fd5b505afa158015615601573d6000803e3d6000fd5b505050506040513d601f19601f82011682018060405250810190615625919061abff565b61562d6138a7565b1061564a5760405162461bcd60e51b81526004016110eb9061b598565b604854604080516001624ee91360e11b0319815290516000926001600160a01b03169163ff622dda916004808301926020929190829003018186803b15801561569257600080fd5b505afa1580156156a6573d6000803e3d6000fd5b505050506040513d601f19601f820116820180604052508101906156ca919061abff565b905060006156d83383613f36565b90506156e38161283c565b604860009054906101000a90046001600160a01b03166001600160a01b031663be2509886040518163ffffffff1660e01b815260040160206040518083038186803b15801561573157600080fd5b505afa158015615745573d6000803e3d6000fd5b505050506040513d601f19601f82011682018060405250810190615769919061abff565b6157728261472e565b10801561580a5750604860009054906101000a90046001600160a01b03166001600160a01b031663b38e885e6040518163ffffffff1660e01b815260040160206040518083038186803b1580156157c857600080fd5b505afa1580156157dc573d6000803e3d6000fd5b505050506040513d601f19601f82011682018060405250810190615800919061abff565b6158086138a7565b105b80156158275750604554603c54603b54615824919061c210565b11155b156165605760475460ff1615615889576001600160a01b0381166000908152602d6020526040902054821115615889576001600160a01b0381166000908152602d602052604081205461587b908490619917565b9050615887818361a25b565b505b60005b885181101561655e5760008982815181106158b757634e487b7160e01b600052603260045260246000fd5b6020026020010151905060008989848181106158e357634e487b7160e01b600052603260045260246000fd5b90506020028101906158f5919061c135565b8080601f016020809104026020016040519081016040528093929190818152602001838380828437600092018290525033808252602660209081526040808420603954815460018101835591865283862090910155805160e0810182528a8152918201929092524291810191909152606081018e90526080810186905260a081018d905294955060c085019350915061598b9050565b905260395460009081526029602090815260409091208251805191926159b69284929091019061a670565b506020828101516001830180546001600160a01b0319166001600160a01b03909216919091179055604083015160028301556060830151600383015560808301518051615a09926004850192019061a670565b5060a08201518051615a2591600584019160209091019061a670565b5060c082015160068201805460ff19166001836003811115615a5757634e487b7160e01b600052602160045260246000fd5b021790555050603b546000908152602a60209081526040918290206048548351634e8f956d60e11b815293519194506001600160a01b031692639d1f2ada926004808301939192829003018186803b158015615ab257600080fd5b505afa158015615ac6573d6000803e3d6000fd5b505050506040513d601f19601f82011682018060405250810190615aea919061abff565b81600101541015615b10576001816001016000828254615b0a919061c1c5565b90915550505b604860009054906101000a90046001600160a01b03166001600160a01b0316639d1f2ada6040518163ffffffff1660e01b815260040160206040518083038186803b158015615b5e57600080fd5b505afa158015615b72573d6000803e3d6000fd5b505050506040513d601f19601f82011682018060405250810190615b96919061abff565b816001015410615be557600481018054600160ff19909116811761ff001916909155603b8054600090615bca90849061c1c5565b9091555050603954603b546000908152602a60205260409020555b603954615bf390600161c1c5565b60395560016002615c0582600f61c210565b600f8110615c2357634e487b7160e01b600052603260045260246000fd5b600202016001016000828254615c39919061c1c5565b90915550506001600160a01b0385166000908152602c60205260409020600181615c6482600f61c210565b600f8110615c8257634e487b7160e01b600052603260045260246000fd5b600202016001016000828254615c98919061c1c5565b909155505060435460ff1615156001141561614a5760485460408051632a49798160e11b8152905133926000926001600160a01b0390911691635492f30291600480820192602092909190829003018186803b158015615cf757600080fd5b505afa158015615d0b573d6000803e3d6000fd5b505050506040513d601f19601f82011682018060405250810190615d2f919061a878565b90506000604860009054906101000a90046001600160a01b03166001600160a01b0316630855d1516040518163ffffffff1660e01b815260040160206040518083038186803b158015615d8157600080fd5b505afa158015615d95573d6000803e3d6000fd5b505050506040513d601f19601f82011682018060405250810190615db9919061a878565b90506000604860009054906101000a90046001600160a01b03166001600160a01b03166304e76c8f6040518163ffffffff1660e01b815260040160206040518083038186803b158015615e0b57600080fd5b505afa158015615e1f573d6000803e3d6000fd5b505050506040513d601f19601f82011682018060405250810190615e43919061a878565b90506000836001600160a01b03166311815086866040518263ffffffff1660e01b8152600401615e73919061ae6c565b60206040518083038186803b158015615e8b57600080fd5b505afa158015615e9f573d6000803e3d6000fd5b505050506040513d601f19601f82011682018060405250810190615ec3919061a878565b90506000604454604860009054906101000a90046001600160a01b03166001600160a01b03166330c0bb796040518163ffffffff1660e01b815260040160206040518083038186803b158015615f1857600080fd5b505afa158015615f2c573d6000803e3d6000fd5b505050506040513d601f19601f82011682018060405250810190615f50919061abff565b615f5b90606461c1f1565b615f65919061c1dd565b90506000604454604860009054906101000a90046001600160a01b03166001600160a01b031663abb10b9b6040518163ffffffff1660e01b815260040160206040518083038186803b158015615fba57600080fd5b505afa158015615fce573d6000803e3d6000fd5b505050506040513d601f19601f82011682018060405250810190615ff2919061abff565b615ffd90606461c1f1565b616007919061c1dd565b604051630db6cc8560e11b81529091506001600160a01b03861690631b6d990a90616038908490879060040161c019565b602060405180830381600087803b15801561605257600080fd5b505af1158015616066573d6000803e3d6000fd5b505050506040513d601f19601f8201168201806040525081019061608a919061aa85565b6160a65760405162461bcd60e51b81526004016110eb9061b696565b604051633832942560e21b81526001600160a01b0385169063e0ca5094906160d4908590879060040161c002565b602060405180830381600087803b1580156160ee57600080fd5b505af1158015616102573d6000803e3d6000fd5b505050506040513d601f19601f82011682018060405250810190616126919061aa85565b6161425760405162461bcd60e51b81526004016110eb9061b83f565b505050505050505b604754610100900460ff16156165015761616460016133a3565b60485460408051637b39b17f60e11b815290516000926001600160a01b03169163f67362fe916004808301926020929190829003018186803b1580156161a957600080fd5b505afa1580156161bd573d6000803e3d6000fd5b505050506040513d601f19601f820116820180604052508101906161e1919061a878565b604051633d18199160e11b81529091506001600160a01b03821690637a303322906162119060019060040161ae13565b600060405180830381600087803b15801561622b57600080fd5b505af192505050801561623c575060015b616297573d80801561626a576040519150601f19603f3d011682016040523d82523d6000602084013e61626f565b606091505b5060008051602061c3238339815191528160405161628d919061aefe565b60405180910390a1505b60485460408051637a0ec25b60e01b815290516000926001600160a01b031691637a0ec25b916004808301926020929190829003018186803b1580156162dc57600080fd5b505afa1580156162f0573d6000803e3d6000fd5b505050506040513d601f19601f82011682018060405250810190616314919061a878565b604051633d18199160e11b81529091506001600160a01b03821690637a303322906163449060019060040161ae13565b600060405180830381600087803b15801561635e57600080fd5b505af192505050801561636f575060015b6163ca573d80801561639d576040519150601f19603f3d011682016040523d82523d6000602084013e6163a2565b606091505b5060008051602061c323833981519152816040516163c0919061aefe565b60405180910390a1505b6048546040805163463444b760e01b815290516000926001600160a01b03169163463444b7916004808301926020929190829003018186803b15801561640f57600080fd5b505afa158015616423573d6000803e3d6000fd5b505050506040513d601f19601f82011682018060405250810190616447919061a878565b604051633d18199160e11b81529091506001600160a01b03821690637a303322906164779060019060040161ae13565b600060405180830381600087803b15801561649157600080fd5b505af19250505080156164a2575060015b6164fd573d8080156164d0576040519150601f19603f3d011682016040523d82523d6000602084013e6164d5565b606091505b5060008051602061c323833981519152816040516164f3919061aefe565b60405180910390a1505b5050505b856001600160a01b03166039547fb819ca9ac369919119f75ec7363dd954f75bcfa75f9245647e03da413be0d582868660405161653f92919061afa7565b60405180910390a35050505080806165569061c28e565b91505061588c565b505b336000908152602b6020526040902042600282015561657d61963e565b6001603e6000828254616590919061c1c5565b90915550506039549998505050505050505050565b6165ad617a60565b6001600160a01b03166165be6144d1565b6001600160a01b0316146165e45760405162461bcd60e51b81526004016110eb9061b80a565b6047805460ff1916911515919091179055565b60445481565b6000616608826173f9565b6166245760405162461bcd60e51b81526004016110eb9061bb0b565b506000908152602a602052604090206005015490565b60336020526000908152604090205460ff1681565b60376020526000908152604090205481565b60015481565b60006112b56166768484614a2c565b604051806040016040528060098152602001686e756d546f6b656e7360b81b815250614425565b6000828152602e602090815260408083208054825181850281018501909352808352849384939291908301828280156166ff57602002820191906000526020600020905b81546001600160a01b031681526001909101906020018083116166e1575b5050505050905060005b815181101561676e57846001600160a01b031682828151811061673c57634e487b7160e01b600052603260045260246000fd5b60200260200101516001600160a01b0316141561675c576001925061676e565b806167668161c28e565b915050616709565b5090949350505050565b602160209081526000928352604080842090915290825290205460ff1681565b603a5481565b603d5481565b60606167af826173f9565b6167cb5760405162461bcd60e51b81526004016110eb9061bb0b565b6000828152602e602090815260408083208054825181850281018501909352808352919290919083018282801561682b57602002820191906000526020600020905b81546001600160a01b0316815260019091019060200180831161680d575b50505050509050600081516001600160401b0381111561685b57634e487b7160e01b600052604160045260246000fd5b60405190808252806020026020018201604052801561688e57816020015b60608152602001906001900390816168795790505b50905060005b8251811015611257576023600086815260200190815260200160002060008483815181106168d257634e487b7160e01b600052603260045260246000fd5b60200260200101516001600160a01b03166001600160a01b0316815260200190815260200160002080546169059061c253565b80601f01602080910402602001604051908101604052809291908181526020018280546169319061c253565b801561697e5780601f106169535761010080835404028352916020019161697e565b820191906000526020600020905b81548152906001019060200180831161696157829003601f168201915b50505050508282815181106169a357634e487b7160e01b600052603260045260246000fd5b602002602001018190525080806169b99061c28e565b915050616894565b602260209081526000928352604080842090915290825290205481565b421190565b6169eb61a6f4565b6169f4826173f9565b6169fd57600080fd5b6000828152602a602090815260409182902082516101c0810184528154815260018201549281019290925260028101549282019290925260038201546060820152600482015460ff808216151560808401526101008083048216151560a08501526201000090920416151560c0830152600583015460e08301526006830154908201526007820154610120820152600882015461014082015260098201805491929161016084019190616aaf9061c253565b80601f0160208091040260200160405190810160405280929190818152602001828054616adb9061c253565b8015616b285780601f10616afd57610100808354040283529160200191616b28565b820191906000526020600020905b815481529060010190602001808311616b0b57829003601f168201915b5050509183525050600a8201546020820152600b82015460409091019060ff166003811115612cd657634e487b7160e01b600052602160045260246000fd5b60475460ff1681565b6060616b7b826173f9565b616b8457600080fd5b6000828152602a602052604090206009018054616ba09061c253565b80601f0160208091040260200160405190810160405280929190818152602001828054616bcc9061c253565b8015612a8b5780601f10616bee57610100808354040283529160200191612a8b565b820191906000526020600020905b815481529060010190602001808311616bfc5750939695505050505050565b6001600160a01b03166000908152602b602052604090206003015460ff1690565b60425481565b6060616c4d826173f9565b616c695760405162461bcd60e51b81526004016110eb9061bb0b565b6000828152602a6020908152604080832081516101c0810183528154815260018201549381019390935260028101549183019190915260038101546060830152600481015460ff808216151560808501526101008083048216151560a08601526201000090920416151560c0840152600582015460e08401526006820154908301526007810154610120830152600881015461014083015260098101805461016084019190616d179061c253565b80601f0160208091040260200160405190810160405280929190818152602001828054616d439061c253565b8015616d905780601f10616d6557610100808354040283529160200191616d90565b820191906000526020600020905b815481529060010190602001808311616d7357829003601f168201915b5050509183525050600a8201546020820152600b82015460409091019060ff166003811115616dcf57634e487b7160e01b600052602160045260246000fd5b6003811115616dee57634e487b7160e01b600052602160045260246000fd5b90525060208101519091506000816001600160401b03811115616e2157634e487b7160e01b600052604160045260246000fd5b604051908082528060200260200182016040528015616e5457816020015b6060815260200190600190039081616e3f5790505b50905060005b82811015611a46578351600090616e7290839061c1c5565b600081815260296020526040812080549293509091616e909061c253565b80601f0160208091040260200160405190810160405280929190818152602001828054616ebc9061c253565b8015616f095780601f10616ede57610100808354040283529160200191616f09565b820191906000526020600020905b815481529060010190602001808311616eec57829003601f168201915b5050505050905080848481518110616f3157634e487b7160e01b600052603260045260246000fd5b602002602001018190525050508080616f499061c28e565b915050616e5a565b603c5481565b603e5481565b616f65617a60565b6001600160a01b0316616f766144d1565b6001600160a01b031614616f9c5760405162461bcd60e51b81526004016110eb9061b80a565b6001600160a01b038116616fc25760405162461bcd60e51b81526004016110eb9061b207565b611c0f81619923565b60008282604051602001614a4192919061afd5565b603e5490565b336000908152602b602052604090206048546001600160a01b031661701d5760405162461bcd60e51b81526004016110eb9061aff7565b604860009054906101000a90046001600160a01b03166001600160a01b03166398a54e2b6040518163ffffffff1660e01b815260040160206040518083038186803b15801561706b57600080fd5b505afa15801561707f573d6000803e3d6000fd5b505050506040513d601f19601f820116820180604052508101906170a3919061abff565b603054602f546170b3919061c1c5565b106170d05760405162461bcd60e51b81526004016110eb9061bc3a565b600381015460ff16156170f55760405162461bcd60e51b81526004016110eb9061b3f1565b6170fe336144b3565b158015617111575061710f336124ac565b155b61712d5760405162461bcd60e51b81526004016110eb9061b933565b604860009054906101000a90046001600160a01b03166001600160a01b0316639fb491f66040518163ffffffff1660e01b815260040160206040518083038186803b15801561717b57600080fd5b505afa15801561718f573d6000803e3d6000fd5b505050506040513d601f19601f820116820180604052508101906171b3919061abff565b8160010154101580156172585750604860009054906101000a90046001600160a01b03166001600160a01b0316630f1f0ffe6040518163ffffffff1660e01b815260040160206040518083038186803b15801561720f57600080fd5b505afa158015617223573d6000803e3d6000fd5b505050506040513d601f19601f82011682018060405250810190617247919061abff565b6004820154617256904261c210565b105b156172755760405162461bcd60e51b81526004016110eb9061bc7c565b60475460ff161561736657604854604080516001624ee91360e11b0319815290516000926001600160a01b03169163ff622dda916004808301926020929190829003018186803b1580156172c857600080fd5b505afa1580156172dc573d6000803e3d6000fd5b505050506040513d601f19601f82011682018060405250810190617300919061abff565b9050600061730e3383613f36565b6001600160a01b0381166000908152602d6020526040902054909150821115617363576001600160a01b0381166000908152602d6020526040812054617355908490619917565b9050617361818361a25b565b505b50505b61736f3361a490565b600381018054600160ff19909116811761ff0019169091554260048301556000818301819055603e80549091906173a790849061c1c5565b909155506173b5905061963e565b336001600160a01b03167f439d77b7534ec3108fc6143bd4fbabde0b9f2bb54f7b0730d1f70dd2135b765f426040516173ee919061ae13565b60405180910390a250565b603b54101590565b617409617a60565b6001600160a01b031661741a6144d1565b6001600160a01b0316146174405760405162461bcd60e51b81526004016110eb9061b80a565b6043805460ff191692151592909217909155604455565b336000908152602b602052604090206003015460ff1690565b60405490565b6047546201000090046001600160a01b031681565b6001600160a01b0381166000908152602b602090815260408083208151610120810183528154808252600183015494820194909452600282015492810192909252600381015460ff80821615156060850152610100918290041615156080840152600482015460a0840152600582015460c0840152600682015460e0840152600790910154908201529061751f8482613756565b15801561753057506175308161325f565b15611da8575060009392505050565b606060008311801561755057508183105b61756c5760405162461bcd60e51b81526004016110eb9061b561565b6000835b61757b84600161c1c5565b811015617732576000818152602a6020908152604080832081516101c0810183528154815260018201549381019390935260028101549183019190915260038101546060830152600481015460ff808216151560808501526101008083048216151560a08601526201000090920416151560c0840152600582015460e084015260068201549083015260078101546101208301526008810154610140830152600981018054610160840191906176309061c253565b80601f016020809104026020016040519081016040528092919081815260200182805461765c9061c253565b80156176a95780601f1061767e576101008083540402835291602001916176a9565b820191906000526020600020905b81548152906001019060200180831161768c57829003601f168201915b5050509183525050600a8201546020820152600b82015460409091019060ff1660038111156176e857634e487b7160e01b600052602160045260246000fd5b600381111561770757634e487b7160e01b600052602160045260246000fd5b905250602081015190915061771c908461c1c5565b925050808061772a9061c28e565b915050617570565b506000816001600160401b0381111561775b57634e487b7160e01b600052604160045260246000fd5b60405190808252806020026020018201604052801561778e57816020015b60608152602001906001900390816177795790505b5090506000855b6177a086600161c1c5565b811015615364576000818152602a6020908152604080832081516101c0810183528154815260018201549381019390935260028101549183019190915260038101546060830152600481015460ff808216151560808501526101008083048216151560a08601526201000090920416151560c0840152600582015460e084015260068201549083015260078101546101208301526008810154610140830152600981018054610160840191906178559061c253565b80601f01602080910402602001604051908101604052809291908181526020018280546178819061c253565b80156178ce5780601f106178a3576101008083540402835291602001916178ce565b820191906000526020600020905b8154815290600101906020018083116178b157829003601f168201915b5050509183525050600a8201546020820152600b82015460409091019060ff16600381111561790d57634e487b7160e01b600052602160045260246000fd5b600381111561792c57634e487b7160e01b600052602160045260246000fd5b905250905060005b8160200151811015617a3c57815160009061795090839061c1c5565b60008181526029602052604081208054929350909161796e9061c253565b80601f016020809104026020016040519081016040528092919081815260200182805461799a9061c253565b80156179e75780601f106179bc576101008083540402835291602001916179e7565b820191906000526020600020905b8154815290600101906020018083116179ca57829003601f168201915b5050505050905080878781518110617a0f57634e487b7160e01b600052603260045260246000fd5b6020908102919091010152617a2560018761c1c5565b955050508080617a349061c28e565b915050617934565b50508080617a499061c28e565b915050617795565b6048546001600160a01b031681565b3390565b6000818310617a7357816112b5565b5090919050565b6048546001600160a01b0316617aa25760405162461bcd60e51b81526004016110eb9061aff7565b60485460408051632a49798160e11b815290516000926001600160a01b031691635492f302916004808301926020929190829003018186803b158015617ae757600080fd5b505afa158015617afb573d6000803e3d6000fd5b505050506040513d601f19601f82011682018060405250810190617b1f919061a878565b6001600160a01b03161415617b465760405162461bcd60e51b81526004016110eb9061bdbb565b60485460408051630855d15160e01b815290516000926001600160a01b031691630855d151916004808301926020929190829003018186803b158015617b8b57600080fd5b505afa158015617b9f573d6000803e3d6000fd5b505050506040513d601f19601f82011682018060405250810190617bc3919061a878565b6001600160a01b03161415617bea5760405162461bcd60e51b81526004016110eb9061bad6565b604854604080516304e76c8f60e01b815290516000926001600160a01b0316916304e76c8f916004808301926020929190829003018186803b158015617c2f57600080fd5b505afa158015617c43573d6000803e3d6000fd5b505050506040513d601f19601f82011682018060405250810190617c67919061a878565b6001600160a01b03161415617c8e5760405162461bcd60e51b81526004016110eb9061b297565b617c9781611a4f565b80617cb157506000818152602a6020526040902060030154155b617ccd5760405162461bcd60e51b81526004016110eb9061b88f565b6000818152602a6020526040902060040154610100900460ff1615617d045760405162461bcd60e51b81526004016110eb9061bb63565b6000818152602e6020908152604080832080548251818502810185019093528083529192909190830182828015617d6457602002820191906000526020600020905b81546001600160a01b03168152600190910190602001808311617d46575b50505050509050600081516001600160401b03811115617d9457634e487b7160e01b600052604160045260246000fd5b604051908082528060200260200182016040528015617dc757816020015b6060815260200190600190039081617db25790505b509050600082516001600160401b03811115617df357634e487b7160e01b600052604160045260246000fd5b604051908082528060200260200182016040528015617e1c578160200160208202803683370190505b50905060005b8351811015617f9f576000848281518110617e4d57634e487b7160e01b600052603260045260246000fd5b60209081029190910181015160008881526023835260408082206001600160a01b0384168352909352918220805491935090617e889061c253565b80601f0160208091040260200160405190810160405280929190818152602001828054617eb49061c253565b8015617f015780601f10617ed657610100808354040283529160200191617f01565b820191906000526020600020905b815481529060010190602001808311617ee457829003601f168201915b50505060008a81526024602090815260408083206001600160a01b038916845290915290205488519394509284925088915086908110617f5157634e487b7160e01b600052603260045260246000fd5b602002602001018190525080858581518110617f7d57634e487b7160e01b600052603260045260246000fd5b6020026020010181815250505050508080617f979061c28e565b915050617e22565b50600061804a6064604860009054906101000a90046001600160a01b03166001600160a01b031663ea19733c6040518163ffffffff1660e01b815260040160206040518083038186803b158015617ff557600080fd5b505afa158015618009573d6000803e3d6000fd5b505050506040513d601f19601f8201168201806040525081019061802d919061abff565b8651618039919061c1f1565b618043919061c1dd565b600161a528565b60408051602081019091526000808252919250905b8451811015618148576000805b86518110156180fd576180cd87848151811061809857634e487b7160e01b600052603260045260246000fd5b60200260200101518883815181106180c057634e487b7160e01b600052603260045260246000fd5b6020026020010151614ae8565b156180eb576180dd60018361c1c5565b91508482106180eb576180fd565b806180f58161c28e565b91505061806c565b508381106181355785828151811061812557634e487b7160e01b600052603260045260246000fd5b6020026020010151925050618148565b50806181408161c28e565b91505061805f565b506000805b845181101561822f576000805b86518110156181e45786818151811061818357634e487b7160e01b600052603260045260246000fd5b60200260200101518784815181106181ab57634e487b7160e01b600052603260045260246000fd5b602002602001015114156181d2576181c460018361c1c5565b91508582106181d2576181e4565b806181dc8161c28e565b91505061815a565b5084811061821c5785828151811061820c57634e487b7160e01b600052603260045260246000fd5b602002602001015192505061822f565b50806182278161c28e565b91505061814d565b50600061823b88612260565b801561825d575061825b8360405180602001604052806000815250614ae8565b155b801561826857508115155b9050806182795760465491506182a4565b6046546000898152602a60205260409020600101546182a19161829b9161c1f1565b83617a64565b91505b60005b8751811015618a475760008882815181106182d257634e487b7160e01b600052603260045260246000fd5b602002602001015190506000602260008c81526020019081526020016000206000836001600160a01b03166001600160a01b03168152602001908152602001600020549050600060216000846001600160a01b03166001600160a01b0316815260200190815260200160002060008d815260200190815260200160002060009054906101000a900460ff1690506000602b6000856001600160a01b03166001600160a01b03168152602001908152602001600020905060276000856001600160a01b03166001600160a01b0316815260200190815260200160002073__$85afbab79b2b776d70bef879a32ed56424$__6302073bfa90918f6040518363ffffffff1660e01b81526004016183e792919061ae5e565b60006040518083038186803b1580156183ff57600080fd5b505af4158015618413573d6000803e3d6000fd5b50505050811561891d576001600160a01b0384166000908152602b6020526040812060019081019190915586151514801561844e5750826001145b80618463575085158015618463575082600114155b156188fd5760485460408051632a49798160e11b815290516000926001600160a01b031691635492f302916004808301926020929190829003018186803b1580156184ad57600080fd5b505afa1580156184c1573d6000803e3d6000fd5b505050506040513d601f19601f820116820180604052508101906184e5919061a878565b90506000604860009054906101000a90046001600160a01b03166001600160a01b0316630855d1516040518163ffffffff1660e01b815260040160206040518083038186803b15801561853757600080fd5b505afa15801561854b573d6000803e3d6000fd5b505050506040513d601f19601f8201168201806040525081019061856f919061a878565b90506000604860009054906101000a90046001600160a01b03166001600160a01b03166304e76c8f6040518163ffffffff1660e01b815260040160206040518083038186803b1580156185c157600080fd5b505afa1580156185d5573d6000803e3d6000fd5b505050506040513d601f19601f820116820180604052508101906185f9919061a878565b90506000836001600160a01b03166311815086896040518263ffffffff1660e01b8152600401618629919061ae6c565b60206040518083038186803b15801561864157600080fd5b505afa158015618655573d6000803e3d6000fd5b505050506040513d601f19601f82011682018060405250810190618679919061a878565b90508a156188d957826001600160a01b0316631b6d990a8c604860009054906101000a90046001600160a01b03166001600160a01b0316630b08bfd96040518163ffffffff1660e01b815260040160206040518083038186803b1580156186df57600080fd5b505afa1580156186f3573d6000803e3d6000fd5b505050506040513d601f19601f82011682018060405250810190618717919061abff565b618721919061c1f1565b836040518363ffffffff1660e01b815260040161873f92919061c019565b602060405180830381600087803b15801561875957600080fd5b505af115801561876d573d6000803e3d6000fd5b505050506040513d601f19601f82011682018060405250810190618791919061aa85565b6187ad5760405162461bcd60e51b81526004016110eb9061b426565b816001600160a01b031663e0ca50948c604860009054906101000a90046001600160a01b03166001600160a01b031663f80de0a06040518163ffffffff1660e01b815260040160206040518083038186803b15801561880b57600080fd5b505afa15801561881f573d6000803e3d6000fd5b505050506040513d601f19601f82011682018060405250810190618843919061abff565b61884d919061c1f1565b836040518363ffffffff1660e01b815260040161886b92919061c002565b602060405180830381600087803b15801561888557600080fd5b505af1158015618899573d6000803e3d6000fd5b505050506040513d601f19601f820116820180604052508101906188bd919061aa85565b6188d95760405162461bcd60e51b81526004016110eb9061b8ec565b60018560060160008282546188ee919061c1c5565b90915550618918945050505050565b6001816007016000828254618912919061c1c5565b90915550505b618a30565b6001600160a01b0384166000908152602b60205260408120600190810180549192909161894b90849061c1c5565b909155505060485460408051634fda48fb60e11b815290516001600160a01b0390921691639fb491f691600480820192602092909190829003018186803b15801561899557600080fd5b505afa1580156189a9573d6000803e3d6000fd5b505050506040513d601f19601f820116820180604052508101906189cd919061abff565b6001600160a01b0385166000908152602b602052604090206001015410618a0c5760038101805460ff19169055618a03846193e0565b618a0c8461928a565b600381015460ff1615618a2b57618a22846193e0565b618a2b8461a490565b600081555b505050508080618a3f9061c28e565b9150506182a7565b506000888152602a6020908152604090912060048101805461ff0019166101001790558451618a7e9260099092019186019061a670565b506000888152602a60205260409020600a018290558015619198576000888152602a602052604081208054600190910154909190618abc908361c1c5565b9050815b81811015618f65576000818152602960209081526040808320600101546048548251632a49798160e11b815292516001600160a01b0392831695949190921692635492f3029260048083019392829003018186803b158015618b2157600080fd5b505afa158015618b35573d6000803e3d6000fd5b505050506040513d601f19601f82011682018060405250810190618b59919061a878565b90506000604860009054906101000a90046001600160a01b03166001600160a01b0316630855d1516040518163ffffffff1660e01b815260040160206040518083038186803b158015618bab57600080fd5b505afa158015618bbf573d6000803e3d6000fd5b505050506040513d601f19601f82011682018060405250810190618be3919061a878565b90506000604860009054906101000a90046001600160a01b03166001600160a01b03166304e76c8f6040518163ffffffff1660e01b815260040160206040518083038186803b158015618c3557600080fd5b505afa158015618c49573d6000803e3d6000fd5b505050506040513d601f19601f82011682018060405250810190618c6d919061a878565b90506000836001600160a01b03166311815086866040518263ffffffff1660e01b8152600401618c9d919061ae6c565b60206040518083038186803b158015618cb557600080fd5b505afa158015618cc9573d6000803e3d6000fd5b505050506040513d601f19601f82011682018060405250810190618ced919061a878565b90508915618f4d57826001600160a01b0316631b6d990a8b604860009054906101000a90046001600160a01b03166001600160a01b031663abb10b9b6040518163ffffffff1660e01b815260040160206040518083038186803b158015618d5357600080fd5b505afa158015618d67573d6000803e3d6000fd5b505050506040513d601f19601f82011682018060405250810190618d8b919061abff565b618d95919061c1f1565b836040518363ffffffff1660e01b8152600401618db392919061c019565b602060405180830381600087803b158015618dcd57600080fd5b505af1158015618de1573d6000803e3d6000fd5b505050506040513d601f19601f82011682018060405250810190618e05919061aa85565b618e215760405162461bcd60e51b81526004016110eb9061b696565b816001600160a01b031663e0ca50948b604860009054906101000a90046001600160a01b03166001600160a01b03166330c0bb796040518163ffffffff1660e01b815260040160206040518083038186803b158015618e7f57600080fd5b505afa158015618e93573d6000803e3d6000fd5b505050506040513d601f19601f82011682018060405250810190618eb7919061abff565b618ec1919061c1f1565b836040518363ffffffff1660e01b8152600401618edf92919061c002565b602060405180830381600087803b158015618ef957600080fd5b505af1158015618f0d573d6000803e3d6000fd5b505050506040513d601f19601f82011682018060405250810190618f31919061aa85565b618f4d5760405162461bcd60e51b81526004016110eb9061b83f565b50505050508080618f5d9061c28e565b915050618ac0565b5060008a8152602a60205260408120600b01805460ff19166001908117909155603f805491929091618f9890849061c1c5565b909155505060485460408051637b39b17f60e11b815290516000926001600160a01b03169163f67362fe916004808301926020929190829003018186803b158015618fe257600080fd5b505afa158015618ff6573d6000803e3d6000fd5b505050506040513d601f19601f8201168201806040525081019061901a919061a878565b6001600160a01b031614156190415760405162461bcd60e51b81526004016110eb9061b2da565b60485460408051637b39b17f60e11b815290516000926001600160a01b03169163f67362fe916004808301926020929190829003018186803b15801561908657600080fd5b505afa15801561909a573d6000803e3d6000fd5b505050506040513d601f19601f820116820180604052508101906190be919061a878565b6040516348257dc960e01b81529091506001600160a01b038216906348257dc9906190ed908e9060040161ae13565b600060405180830381600087803b15801561910757600080fd5b505af1925050508015619118575060015b619177573d808015619146576040519150601f19603f3d011682016040523d82523d6000602084013e61914b565b606091505b5060008051602061c32383398151915281604051619169919061aefe565b60405180910390a150619190565b6001603e600082825461918a919061c1c5565b90915550505b5050506191cc565b6000888152602a6020526040808220600b01805460ff191660021790558054600192906191c690849061c1c5565b90915550505b6001603e60008282546191df919061c1c5565b90915550506000888152602a6020526040812060020154604180549192909161920990849061c1c5565b90915550506000888152602a6020526040812060030154604280549192909161923390849061c1c5565b92505081905550877f98bfbdd7dba62d9141cf4f07139f8e53c0d00c0b44cad36d148730680b162161848360405161926c92919061af83565b60405180910390a25050505050505050565b60006112b5828461c1c5565b6001600160a01b03811660009081526032602052604090205460ff1615611c0f576001600160a01b038116600090815260356020526040812054602f80549192916192d79060019061c210565b815481106192f557634e487b7160e01b600052603260045260246000fd5b60009182526020808320909101546001600160a01b038681168452603283526040808520805460ff19169055604954603590945290932091909155602f549116915060021161939a5780602f838154811061936057634e487b7160e01b600052603260045260246000fd5b600091825260208083209190910180546001600160a01b0319166001600160a01b0394851617905591831681526035909152604090208290555b602f8054806193b957634e487b7160e01b600052603160045260246000fd5b600082815260209020810160001990810180546001600160a01b0319169055019055505050565b6001600160a01b03811660009081526033602052604090205460ff1615611c0f576001600160a01b0381166000908152603660205260408120546030805491929161942d9060019061c210565b8154811061944b57634e487b7160e01b600052603260045260246000fd5b60009182526020808320909101546001600160a01b038681168452603383526040808520805460ff19169055604954603690945290932091909155603054911691506002116194f05780603083815481106194b657634e487b7160e01b600052603260045260246000fd5b600091825260208083209190910180546001600160a01b0319166001600160a01b0394851617905591831681526036909152604090208290555b60308054806193b957634e487b7160e01b600052603160045260246000fd5b6001600160a01b03811660009081526034602052604090205460ff1615611c0f576001600160a01b0381166000908152603760205260408120546031805491929161955c9060019061c210565b8154811061957a57634e487b7160e01b600052603260045260246000fd5b60009182526020808320909101546001600160a01b038681168452603483526040808520805460ff191690556049546037909452909320919091556030549116915060021161961f5780603183815481106195e557634e487b7160e01b600052603260045260246000fd5b600091825260208083209190910180546001600160a01b0319166001600160a01b0394851617905591831681526037909152604090208290555b60318054806193b957634e487b7160e01b600052603160045260246000fd5b60485460408051632abe0d5f60e11b815290516000926001600160a01b03169163557c1abe916004808301926020929190829003018186803b15801561968357600080fd5b505afa9250505080156196b3575060408051601f3d908101601f191682019092526196b09181019061a878565b60015b619712573d8080156196e1576040519150601f19603f3d011682016040523d82523d6000602084013e6196e6565b606091505b5060008051602061c32383398151915281604051619704919061aefe565b60405180910390a150619714565b505b604860009054906101000a90046001600160a01b03166001600160a01b031663557c1abe6040518163ffffffff1660e01b815260040160206040518083038186803b15801561976257600080fd5b505afa158015619776573d6000803e3d6000fd5b505050506040513d601f19601f8201168201806040525081019061979a919061a878565b90506001600160a01b0381166197c25760405162461bcd60e51b81526004016110eb9061b3ba565b6000816001600160a01b0316336040516024016197df919061ae6c565b60408051601f198184030181529181526020820180516001600160e01b0316631f5ac9c560e11b17905251619814919061ae42565b6000604051808303816000865af19150503d8060008114619851576040519150601f19603f3d011682016040523d82523d6000602084013e619856565b606091505b505090506000826001600160a01b031633604051602401619877919061ae6c565b60408051601f198184030181529181526020820180516001600160e01b03166358563d2160e01b179052516198ac919061ae42565b6000604051808303816000865af19150503d80600081146198e9576040519150601f19603f3d011682016040523d82523d6000602084013e6198ee565b606091505b5050905081806198fb5750805b61172f5760405162461bcd60e51b81526004016110eb9061b07f565b60006112b5828461c210565b600080546001600160a01b038381166001600160a01b0319831681178455604051919092169283917f8be0079c531659141344cd1fd0a4f28419497f9722a3daafe3b4186f6b6457e09190a35050565b6000603a54603c54619985919061c210565b9050604860009054906101000a90046001600160a01b03166001600160a01b031663e3115d3c6040518163ffffffff1660e01b815260040160206040518083038186803b1580156199d557600080fd5b505afa1580156199e9573d6000803e3d6000fd5b505050506040513d601f19601f82011682018060405250810190619a0d919061abff565b811115611c0f5760005b604854604080516307d630cb60e41b81529051619a95926001600160a01b031691637d630cb0916004808301926020929190829003018186803b158015619a5d57600080fd5b505afa158015619a71573d6000803e3d6000fd5b505050506040513d601f19601f8201168201806040525081019061829b919061abff565b81101561314657603a546000908152602a602052604081208054600190910154909190619ac2908361c1c5565b9050815b81811015619ae957619ad781612779565b80619ae18161c28e565b915050619ac6565b50619af5603a5461314a565b603a546040517f72c2fcc891fe835b86fc8bb9abdc52adf52499c52289b3c49e1461eabea2717590600090a250508080619b2e9061c28e565b915050619a17565b6000619b4782603180549050617a64565b905060005b603154811015619c3457600060318281548110619b7957634e487b7160e01b600052603260045260246000fd5b60009182526020808320909101546001600160a01b0316808352602b9091526040909120805491925090619c1f5760038101805461ffff19169055619bbd8261928a565b619bc6826193e0565b6001600160a01b03821660008181526034602052604090819020805460ff19169055517f9dadcedba048e92b943ea1c5861cee1df63a566d7f795869c004780c1c698e2b90619c1690429061ae13565b60405180910390a25b50508080619c2c9061c28e565b915050619b4c565b506131466031600061a782565b603d546000908152602a602052604090206004015460ff16619c755760405162461bcd60e51b81526004016110eb9061b9f3565b603d546000908152602a602052604090206004015462010000900460ff1615619cb05760405162461bcd60e51b81526004016110eb9061b73c565b6000619d97619d0c602f80549050604860009054906101000a90046001600160a01b03166001600160a01b031663dfeceed76040518163ffffffff1660e01b815260040160206040518083038186803b15801561162f57600080fd5b604860009054906101000a90046001600160a01b03166001600160a01b031663bd40ef4c6040518163ffffffff1660e01b815260040160206040518083038186803b158015619d5a57600080fd5b505afa158015619d6e573d6000803e3d6000fd5b505050506040513d601f19601f82011682018060405250810190619d92919061abff565b61a528565b602f546048546040805163189460df60e31b8152905193945091926001600160a01b039091169163c4a306f8916004808301926020929190829003018186803b158015619de357600080fd5b505afa158015619df7573d6000803e3d6000fd5b505050506040513d601f19601f82011682018060405250810190619e1b919061abff565b600154619e28904261c210565b1061314657603d80546000908152602a60209081526040808320600301869055925482528282206002018590556048548351631b4930b560e11b815293519293619ed7936001600160a01b0390921692633692616a92600480840193829003018186803b158015619e9857600080fd5b505afa158015619eac573d6000803e3d6000fd5b505050506040513d601f19601f82011682018060405250810190619ed0919061abff565b429061927e565b90506000619f6b604860009054906101000a90046001600160a01b03166001600160a01b03166372e540306040518163ffffffff1660e01b815260040160206040518083038186803b158015619f2c57600080fd5b505afa158015619f40573d6000803e3d6000fd5b505050506040513d601f19601f82011682018060405250810190619f64919061abff565b839061927e565b603d80546000908152602a6020526040808220600501869055825482528082206006018490559154815220600401805462ff0000191662010000179055905060018410801590619fbc575060018310155b619fd85760405162461bcd60e51b81526004016110eb9061b24d565b6000619fe4858561545b565b9050600081516001600160401b0381111561a00f57634e487b7160e01b600052604160045260246000fd5b60405190808252806020026020018201604052801561a038578160200160208202803683370190505b50905060005b825181101561a0f757602f83828151811061a06957634e487b7160e01b600052603260045260246000fd5b60200260200101518154811061a08f57634e487b7160e01b600052603260045260246000fd5b9060005260206000200160009054906101000a90046001600160a01b031682828151811061a0cd57634e487b7160e01b600052603260045260246000fd5b6001600160a01b03909216602092830291909101909101528061a0ef8161c28e565b91505061a03e565b5060005b825181101561a21757600082828151811061a12657634e487b7160e01b600052603260045260246000fd5b602002602001015190506000602b6000836001600160a01b03166001600160a01b03168152602001908152602001600020905061a1628261928a565b61a16b8261a538565b603d80546000908152602e60209081526040822080546001808201835591845291832090910180546001600160a01b0319166001600160a01b0387161790559154835560058301805490919061a1c290849061c1c5565b9091555050603d546040517fe4ee2dfabe57cee15e3f558890b20455f54c1fa0718e5276faad70a6500e6b8c9061a1fa90859061ae6c565b60405180910390a25050808061a20f9061c28e565b91505061a0fb565b50426001908155603d5461a22a9161927e565b603d5561a235614e4c565b6038819055506001603e600082825461a24e919061c1c5565b9091555050505050505050565b6048546040805163ca64f9e760e01b815290516000926001600160a01b03169163ca64f9e7916004808301926020929190829003018186803b15801561a2a057600080fd5b505afa15801561a2b4573d6000803e3d6000fd5b505050506040513d601f19601f8201168201806040525081019061a2d8919061a878565b6001600160a01b0316141561a2ff5760405162461bcd60e51b81526004016110eb9061b968565b6048546040805163ca64f9e760e01b815290516000926001600160a01b03169163ca64f9e7916004808301926020929190829003018186803b15801561a34457600080fd5b505afa15801561a358573d6000803e3d6000fd5b505050506040513d601f19601f8201168201806040525081019061a37c919061a878565b6040516304ada21f60e21b81529091506001600160a01b038216906312b6887c9061a3ad908690869060040161c002565b602060405180830381600087803b15801561a3c757600080fd5b505af115801561a3db573d6000803e3d6000fd5b505050506040513d601f19601f8201168201806040525081019061a3ff919061aa85565b61a41b5760405162461bcd60e51b81526004016110eb9061b46b565b6001600160a01b0382166000908152602d60205260408120805485929061a44390849061c1c5565b92505081905550816001600160a01b03167f5aa5d56140767016c877a5333ac3e1ad31a09051098a8fdf7297c4b64530a9428460405161a483919061ae13565b60405180910390a2505050565b61a499816144b3565b611c0f57602f8054600180820183557fa813484aef6fb598f9f753daf162068ff39ccea4075cb95e1a30f86995b5b7ee90910180546001600160a01b0319166001600160a01b0385169081179091556000908152603260205260409020805460ff191682179055905461a50c919061c210565b6001600160a01b03821660009081526035602052604090205550565b600081831015617a7357816112b5565b61a541816124ac565b611c0f5760308054600180820183557f6ff97a59c90d62cc7236ba3a37cd85351bf564556780cf8c1157a220f31f0cbb90910180546001600160a01b0319166001600160a01b0385169081179091556000908152603360205260409020805460ff191682179055905461a5b4919061c210565b6001600160a01b03821660009081526036602052604090205550565b50805461a5dc9061c253565b6000825580601f1061a5ee5750611c0f565b601f016020900490600052602060002090810190611c0f919061a79c565b6040518060e001604052806060815260200160006001600160a01b03168152602001600081526020016000815260200160608152602001606081526020016000600381111561a66b57634e487b7160e01b600052602160045260246000fd5b905290565b82805461a67c9061c253565b90600052602060002090601f01602090048101928261a69e576000855561a6e4565b82601f1061a6b757805160ff191683800117855561a6e4565b8280016001018555821561a6e4579182015b8281111561a6e457825182559160200191906001019061a6c9565b5061a6f092915061a79c565b5090565b604051806101c00160405280600081526020016000815260200160008152602001600081526020016000151581526020016000151581526020016000151581526020016000815260200160008152602001600081526020016000815260200160608152602001600081526020016000600381111561a66b57634e487b7160e01b600052602160045260246000fd5b5080546000825590600052602060002090810190611c0f91905b5b8082111561a6f0576000815560010161a79d565b60008083601f84011261a7c2578182fd5b5081356001600160401b0381111561a7d8578182fd5b602083019150836020808302850101111561277257600080fd5b600082601f83011261a802578081fd5b81356001600160401b0381111561a81b5761a81b61c2e9565b61a82e601f8201601f191660200161c179565b81815284602083860101111561a842578283fd5b816020850160208301379081016020019190915292915050565b60006020828403121561a86d578081fd5b8135611da88161c2ff565b60006020828403121561a889578081fd5b8151611da88161c2ff565b6000806040838503121561a8a6578081fd5b823561a8b18161c2ff565b946020939093013593505050565b60008060006060848603121561a8d3578081fd5b833561a8de8161c2ff565b95602085013595506040909401359392505050565b60008060008060006080868803121561a90a578081fd5b85356001600160401b038082111561a920578283fd5b818801915088601f83011261a933578283fd5b8135602061a94861a9438361c1a2565b61c179565b82815281810190858301875b8581101561a97d5761a96b8f8684358b010161a7f2565b8452928401929084019060010161a954565b50909a5050508901359250508082111561a995578283fd5b61a9a189838a0161a7b1565b909650945060408801359350606088013591508082111561a9c0578283fd5b5061a9cd8882890161a7f2565b9150509295509295909350565b6000602080838503121561a9ec578182fd5b82356001600160401b0381111561aa01578283fd5b8301601f8101851361aa11578283fd5b803561aa1f61a9438261c1a2565b818152838101908385018584028501860189101561aa3b578687fd5b8694505b8385101561aa5d57803583526001949094019391850191850161aa3f565b50979650505050505050565b60006020828403121561aa7a578081fd5b8135611da88161c314565b60006020828403121561aa96578081fd5b8151611da88161c314565b6000806040838503121561aab3578182fd5b823561a8b18161c314565b6000806040838503121561aad0578182fd5b8235915060208301356001600160401b0381111561aaec578182fd5b61aaf88582860161a7f2565b9150509250929050565b60008060006060848603121561ab16578081fd5b8335925060208401356001600160401b0381111561ab32578182fd5b61ab3e8682870161a7f2565b925050604084013590509250925092565b6000806040838503121561ab61578182fd5b82356001600160401b038082111561ab77578384fd5b61ab838683870161a7f2565b9350602085013591508082111561ab98578283fd5b5061aaf88582860161a7f2565b6000806040838503121561abb7578182fd5b82356001600160401b0381111561abcc578283fd5b61abd88582860161a7f2565b95602094909401359450505050565b60006020828403121561abf8578081fd5b5035919050565b600060208284031215611ec4578081fd5b6000806040838503121561ac22578182fd5b82359150602083013561ac348161c2ff565b809150509250929050565b600080600080600060a0868803121561ac56578283fd5b8535945060208601359350604086013592506060860135915060808601356001600160401b0381111561ac87578182fd5b61a9cd8882890161a7f2565b6000806000806080858703121561aca8578182fd5b8435935060208501356001600160401b0381111561acc4578283fd5b61acd08782880161a7f2565b949794965050505060408301359260600135919050565b6000806040838503121561acf9578182fd5b50508035926020909101359150565b6000806000806080858703121561ad1d578182fd5b8435935060208501359250604085013561ad368161c2ff565b9396929550929360600135925050565b6000815180845260208085019450808401835b8381101561ad755781518752958201959082019060010161ad59565b509495945050505050565b15159052565b6000815180845261ad9e81602086016020860161c227565b601f01601f19169290920160200192915050565b6004811061add057634e487b7160e01b600052602160045260246000fd5b9052565b60609190911b6bffffffffffffffffffffffff1916815260140190565b60609290921b6bffffffffffffffffffffffff19168252601482015260340190565b90815260200190565b6000838252825161ae3481602085016020870161c227565b919091016020019392505050565b6000825161ae5481846020870161c227565b9190910192915050565b918252602082015260400190565b6001600160a01b0391909116815260200190565b6000602080830181845280855180835260408601915060408482028701019250838701855b8281101561aed357603f1988860301845261aec185835161ad86565b9450928501929085019060010161aea5565b5092979650505050505050565b6000602082526112b5602083018461ad46565b901515815260200190565b6000602082526112b5602083018461ad86565b600060e0825261af2460e083018a61ad86565b6001600160a01b03891660208401526040830188905260608301879052828103608084015261af53818761ad86565b905082810360a084015261af67818661ad86565b91505061af7760c083018461adb2565b98975050505050505050565b60006040825261af96604083018561ad86565b905082151560208301529392505050565b60006040825261afba604083018561ad86565b828103602084015261afcc818561ad86565b95945050505050565b60006040825261afe8604083018561ad86565b90508260208301529392505050565b6020808252601f908201527f506172616d6574657273204d616e61676572206d757374206265207365742e00604082015260600190565b60208082526031908201527f676976656e204461746142617463682073686f756c6420626520415050524f5660408201527011510b08185b99081a5d081a5cc81b9bdd607a1b606082015260800190565b60208082526025908201527f72656365697665722072656a6563746564205f7265747269657665534675656c6040820152640818d85b1b60da1b606082015260800190565b6020808252602f908201527f636f6d6d697420706572696f64206e6565647320746f206265206f70656e206660408201526e1bdc881d1a1a5cc818985d18da1259608a1b606082015260800190565b60208082526052908201527f4e6f74207468652073616d6520766f7465207468616e20636f6d6d697465642c60408201527f20696d706f737369626c6520746f206d61746368207769746820676976656e206060820152715f73616c742026205f636c656172566f746560701b608082015260a00190565b60208082526056908201527f4e6f74207468652073616d652068617368207468616e20636f6d6d697465642c60408201527f20696d706f737369626c6520746f206d61746368207769746820676976656e206060820152750bee6c2d8e8404c40bec6d8cac2e492a08ca690c2e6d60531b608082015260a00190565b60208082526026908201527f4f776e61626c653a206e6577206f776e657220697320746865207a65726f206160408201526564647265737360d01b606082015260800190565b6020808252602a908201527f4661696c20647572696e6720616c6c6f636174696f6e3a206e6f7420656e6f75604082015269676820776f726b65727360b01b606082015260800190565b60208082526023908201527f5265776172644d616e61676572206973206e756c6c20696e20506172616d657460408201526265727360e81b606082015260800190565b6020808252602c908201527f436f6d706c69616e636553797374656d206e756c6c20696e20506172616d657460408201526b195c9cc810dbdb9d1c9858dd60a21b606082015260800190565b60208082526038908201527f55736572206e6565647320746f20626520616c6c6f636174656420746f20746860408201527f697320626174636820746f20636f6d6d6974206f6e2069740000000000000000606082015260800190565b60208082526019908201527f6b206f72204e20617265206e6f74204f4b20666f7220524e4700000000000000604082015260600190565b6020808252601d908201527f734675656c3a206e756c6c2041646472657373204e6f742056616c6964000000604082015260600190565b6020808252818101527f576f726b657220697320616c7265616479207265676973746572656420283129604082015260600190565b60208082526025908201527f636f756c64206e6f74207265776172642052455020696e2056616c69646174656040820152642c20312e6160d81b606082015260800190565b6020808252603f908201527f436f756c64206e6f74207265717565737420656e6f75676820616c6c6f63617460408201527f6564207374616b652c2072657175657374416c6c6f63617465645374616b6500606082015260800190565b6020808252602f908201527f5573657220686173206e6f7420636f6d6d69746564206265666f72652c20746860408201526e1d5cc818d85b89dd081c995d99585b608a1b606082015260800190565b6020808252602a908201527f53706f7474696e67206973206e6f742063757272656e746c7920656e61626c656040820152693210313c9027bbb732b960b11b606082015260800190565b6020808252601c908201527f496e70757420626f756e6461726965732061726520696e76616c696400000000604082015260600190565b60208082526036908201527f476c6f62616c206c696d69743a206578636565646564206d61782064617461206040820152753832b9103437bab916103932ba393c903630ba32b91760511b606082015260800190565b60208082526039908201527f646c6c4d61703a20646f6573206e6f7420636f696e7461696e205f446174614260408201527f61746368496420666f7220746865206d73672073656e64657200000000000000606082015260800190565b6020808252602b908201527f75736572206d75737420686176652072657665616c656420696e20746869732060408201526a0ced2eccadc4084c2e8c6d60ab1b606082015260800190565b6020808252602e908201527f636f756c64206e6f74207265776172642052455020696e2056616c696461746560408201526d4461746142617463682c20322e6160901b606082015260800190565b60208082526010908201526f149391c81a5b9cdd59999a58da595b9d60821b604082015260600190565b6020808252601490820152733737ba1030903b30b634b2103837b9b4ba34b7b760611b604082015260600190565b6020808252603b908201527f43616e277420616c6c6f6361746520776f726b2c207468652063757272656e7460408201527f20626174636820697320616c726561647920616c6c6f63617465640000000000606082015260800190565b6020808252602c908201527f576f726b6572206973206e6f74207265676973746572656420736f2063616e2760408201526b3a103ab73932b3b4b9ba32b960a11b606082015260800190565b6020808252600b908201526a04e5f72616e6765203e20360ac1b604082015260600190565b6020808252818101527f4f776e61626c653a2063616c6c6572206973206e6f7420746865206f776e6572604082015260600190565b60208082526030908201527f636f756c64206e6f742072657761726420746f6b656e20696e2056616c69646160408201526f3a32a230ba30a130ba31b4161019173160811b606082015260800190565b6020808252603a908201527f5f446174614261746368496420686173206e6f7420656e6465642c206f72206e60408201527f6f7420657665727920766f74657273206861766520766f746564000000000000606082015260800190565b60208082526027908201527f636f756c64206e6f742072657761726420746f6b656e20696e2056616c6964616040820152663a32961018973160c91b606082015260800190565b6020808252818101527f576f726b657220697320616c7265616479207265676973746572656420283229604082015260600190565b60208082526022908201527f5374616b654d616e61676572206973206e756c6c20696e20506172616d657465604082015261727360f01b606082015260800190565b60208082526029908201527f6765744e756d50617373696e67546f6b656e733a20686173686573206d75737460408201526808189948195c5d585b60ba1b606082015260800190565b60208082526036908201527f43616e277420616c6c6f6361746520776f726b2c207468652063757272656e74604082015275206261746368206973206e6f7420636f6d706c65746560501b606082015260800190565b60208082526026908201527f52657665616c20706572696f64206e6f74206f70656e20666f7220746869732060408201526511185d18525160d21b606082015260800190565b60208082526027908201527f617661696c61626c65546f6b656e732073686f756c64206265203e3d205f6e756040820152666d546f6b656e7360c81b606082015260800190565b6020808252818101527f5265704d616e61676572206973206e756c6c20696e20506172616d6574657273604082015260600190565b60208082526017908201527f5f4461746142617463684964206d757374206578697374000000000000000000604082015260600190565b60208082526007908201526605f6b203e3d20360cc1b604082015260600190565b60208082526021908201527f5f446174614261746368496420697320616c72656164792076616c69646174656040820152601960fa1b606082015260800190565b6020808252602d908201527f53706f7474696e673a20696e70757420617272617973206d757374206265206f60408201526c0cc40e6c2daca40d8cadccee8d609b1b606082015260800190565b60208082526029908201527f557365722068617320616c726561647920636f6d6d6974656420746f207468696040820152681cc818985d18da125960ba1b606082015260800190565b60208082526022908201527f4d6178696d756d207265676973746572656420776f726b65727320616c726561604082015261647960f01b606082015260800190565b6020808252606c908201527f5573657220686173206e6f7420766f746564206d616e792074696d657320696e60408201527f206120726f7720616e64206e6565647320746f2077616974204e4f564f54455f60608201527f524547495354524154494f4e5f574149545f4455524154494f4e20746f20726560808201526b33b4b9ba32b91030b3b0b4b760a11b60a082015260c00190565b6020808252602a908201527f5f446174614261746368496420636865636b696e6720766f7465206d757374206040820152691a185d9948195b99195960b21b606082015260800190565b6020808252603b908201527f436f756c64206e6f74207769746864726177566f74696e67526967687473207460408201527f68726f7567682050726f78795374616b654465616c6c6f636174650000000000606082015260800190565b60208082526024908201527f416464726573734d616e61676572206973206e756c6c20696e20506172616d656040820152637465727360e01b606082015260800190565b6020808252600f908201526e11185d18481b5d5cdd08195e1a5cdd608a1b604082015260600190565b6020808252602c908201527f557365722068617320616c72656164792072657665616c65642c20746875732060408201526b18d85b89dd081c995d99585b60a21b606082015260800190565b60006020825282516020830152602083015160408301526040830151606083015260608301516080830152608083015161beb160a084018261ad80565b5060a083015161bec460c084018261ad80565b5060c083015161bed760e084018261ad80565b5060e0830151610100838101919091528301516101208084019190915283015161014080840191909152830151610160808401919091528301516101c061018080850182905261bf2b6101e086018461ad86565b908601516101a08681019190915286015190925061676e8286018261adb2565b93845260208401929092526040830152606082015260800190565b600060208252825160e0602084015261bf8361010084018261ad86565b905060018060a01b03602085015116604084015260408401516060840152606084015160808401526080840151601f19808584030160a086015261bfc7838361ad86565b925060a08601519150808584030160c08601525061bfe5828261ad86565b91505060c084015161bffa60e085018261adb2565b509392505050565b9182526001600160a01b0316602082015260400190565b9182526001600160a01b031660208201526000604082015260600190565b6000838252604060208301526154a2604083018461ad46565b9283526020830191909152604082015260600190565b988952602089019790975260408801959095529215156060870152901515608086015260a085015260c084015260e08301526101008201526101200190565b60008f82528e60208301528d60408301528c60608301528b151560808301528a151560a083015261c0d960c083018b61ad80565b8860e08301528761010083015286610120830152856101408301526101c061016083015261c10b6101c083018661ad86565b90508361018083015261c1226101a083018461adb2565b9f9e505050505050505050505050505050565b6000808335601e1984360301811261c14b578283fd5b8301803591506001600160401b0382111561c164578283fd5b60200191503681900382131561277257600080fd5b6040518181016001600160401b038111828210171561c19a5761c19a61c2e9565b604052919050565b60006001600160401b0382111561c1bb5761c1bb61c2e9565b5060209081020190565b6000821982111561c1d85761c1d861c2bd565b500190565b60008261c1ec5761c1ec61c2d3565b500490565b600081600019048311821515161561c20b5761c20b61c2bd565b500290565b60008282101561c2225761c22261c2bd565b500390565b60005b8381101561c24257818101518382015260200161c22a565b83811115612a255750506000910152565b60028104600182168061c26757607f821691505b6020821081141561c28857634e487b7160e01b600052602260045260246000fd5b50919050565b600060001982141561c2a25761c2a261c2bd565b5060010190565b60008261c2b85761c2b861c2d3565b500690565b634e487b7160e01b600052601160045260246000fd5b634e487b7160e01b600052601260045260246000fd5b634e487b7160e01b600052604160045260246000fd5b6001600160a01b0381168114611c0f57600080fd5b8015158114611c0f57600080fdfe4b87bbd93ba65ede1e2efeca735d9f7a6720bf7d6db0a8355b17dba5b64e5783a26469706673582212205869927ec5138a6d03130a1e5c5d38bc6b03d10756e5c89f6028a6ea72dcfb3264736f6c63430008000033",
  "linkReferences": {
    "contracts/worksystems/DataSpotting.sol": {
      "DLL": [
        {
          "length": 20,
          "start": 7683
        },
        {
          "length": 20,
          "start": 7855
        },
        {
          "length": 20,
          "start": 8435
        },
        {
          "length": 20,
          "start": 15677
        },
        {
          "length": 20,
          "start": 15839
        },
        {
          "length": 20,
          "start": 16034
        },
        {
          "length": 20,
          "start": 18197
        },
        {
          "length": 20,
          "start": 18377
        },
        {
          "length": 20,
          "start": 34106
        }
      ]
    }
  },
  "deployedLinkReferences": {
    "contracts/worksystems/DataSpotting.sol": {
      "DLL": [
        {
          "length": 20,
          "start": 7288
        },
        {
          "length": 20,
          "start": 7460
        },
        {
          "length": 20,
          "start": 8040
        },
        {
          "length": 20,
          "start": 15282
        },
        {
          "length": 20,
          "start": 15444
        },
        {
          "length": 20,
          "start": 15639
        },
        {
          "length": 20,
          "start": 17802
        },
        {
          "length": 20,
          "start": 17982
        },
        {
          "length": 20,
          "start": 33711
        }
      ]
    }
  }
}