{
  "_format": "hh-sol-artifact-1",
  "contractName": "DataSpotting",
  "sourceName": "contracts/worksystems/DataSpotting.sol",
  "abi": [
    {
      "inputs": [
        {
          "internalType": "address",
          "name": "EXDT_token",
          "type": "address"
        }
      ],
      "stateMutability": "nonpayable",
      "type": "constructor"
    },
    {
      "anonymous": false,
      "inputs": [
        {
          "indexed": false,
          "internalType": "bytes",
          "name": "bytesFailure",
          "type": "bytes"
        }
      ],
      "name": "BytesFailure",
      "type": "event"
    },
    {
      "anonymous": false,
      "inputs": [
        {
          "indexed": true,
          "internalType": "address",
          "name": "previousOwner",
          "type": "address"
        },
        {
          "indexed": true,
          "internalType": "address",
          "name": "newOwner",
          "type": "address"
        }
      ],
      "name": "OwnershipTransferred",
      "type": "event"
    },
    {
      "anonymous": false,
      "inputs": [
        {
          "indexed": true,
          "internalType": "uint256",
          "name": "epochNumber",
          "type": "uint256"
        }
      ],
      "name": "_NewEpoch",
      "type": "event"
    },
    {
      "anonymous": false,
      "inputs": [
        {
          "indexed": false,
          "internalType": "string",
          "name": "hash",
          "type": "string"
        },
        {
          "indexed": true,
          "internalType": "address",
          "name": "creator",
          "type": "address"
        }
      ],
      "name": "_SpotAccepted",
      "type": "event"
    },
    {
      "anonymous": false,
      "inputs": [
        {
          "indexed": true,
          "internalType": "uint256",
          "name": "DataID",
          "type": "uint256"
        },
        {
          "indexed": false,
          "internalType": "uint256",
          "name": "numTokens",
          "type": "uint256"
        },
        {
          "indexed": true,
          "internalType": "address",
          "name": "voter",
          "type": "address"
        }
      ],
      "name": "_SpotCheckCommitted",
      "type": "event"
    },
    {
      "anonymous": false,
      "inputs": [
        {
          "indexed": true,
          "internalType": "uint256",
          "name": "DataID",
          "type": "uint256"
        },
        {
          "indexed": false,
          "internalType": "uint256",
          "name": "numTokens",
          "type": "uint256"
        },
        {
          "indexed": false,
          "internalType": "uint256",
          "name": "votesFor",
          "type": "uint256"
        },
        {
          "indexed": false,
          "internalType": "uint256",
          "name": "votesAgainst",
          "type": "uint256"
        },
        {
          "indexed": true,
          "internalType": "uint256",
          "name": "choice",
          "type": "uint256"
        },
        {
          "indexed": true,
          "internalType": "address",
          "name": "voter",
          "type": "address"
        }
      ],
      "name": "_SpotCheckRevealed",
      "type": "event"
    },
    {
      "anonymous": false,
      "inputs": [
        {
          "indexed": true,
          "internalType": "uint256",
          "name": "DataID",
          "type": "uint256"
        },
        {
          "indexed": false,
          "internalType": "string",
          "name": "file_hash",
          "type": "string"
        },
        {
          "indexed": false,
          "internalType": "string",
          "name": "URL_domain",
          "type": "string"
        },
        {
          "indexed": true,
          "internalType": "address",
          "name": "sender",
          "type": "address"
        }
      ],
      "name": "_SpotSubmitted",
      "type": "event"
    },
    {
      "anonymous": false,
      "inputs": [
        {
          "indexed": true,
          "internalType": "uint256",
          "name": "DataID",
          "type": "uint256"
        },
        {
          "indexed": true,
          "internalType": "address",
          "name": "voter",
          "type": "address"
        }
      ],
      "name": "_TokensRescued",
      "type": "event"
    },
    {
      "anonymous": false,
      "inputs": [
        {
          "indexed": false,
          "internalType": "uint256",
          "name": "numTokens",
          "type": "uint256"
        },
        {
          "indexed": true,
          "internalType": "address",
          "name": "voter",
          "type": "address"
        }
      ],
      "name": "_VotingRightsGranted",
      "type": "event"
    },
    {
      "anonymous": false,
      "inputs": [
        {
          "indexed": false,
          "internalType": "uint256",
          "name": "numTokens",
          "type": "uint256"
        },
        {
          "indexed": true,
          "internalType": "address",
          "name": "voter",
          "type": "address"
        }
      ],
      "name": "_VotingRightsWithdrawn",
      "type": "event"
    },
    {
      "anonymous": false,
      "inputs": [
        {
          "indexed": true,
          "internalType": "uint256",
          "name": "batchID",
          "type": "uint256"
        },
        {
          "indexed": false,
          "internalType": "address",
          "name": "worker",
          "type": "address"
        }
      ],
      "name": "_WorkAllocated",
      "type": "event"
    },
    {
      "anonymous": false,
      "inputs": [
        {
          "indexed": true,
          "internalType": "address",
          "name": "worker",
          "type": "address"
        },
        {
          "indexed": false,
          "internalType": "uint256",
          "name": "timestamp",
          "type": "uint256"
        }
      ],
      "name": "_WorkerRegistered",
      "type": "event"
    },
    {
      "anonymous": false,
      "inputs": [
        {
          "indexed": true,
          "internalType": "address",
          "name": "worker",
          "type": "address"
        },
        {
          "indexed": false,
          "internalType": "uint256",
          "name": "timestamp",
          "type": "uint256"
        }
      ],
      "name": "_WorkerUnregistered",
      "type": "event"
    },
    {
      "inputs": [],
      "name": "AcceptedBatchsCounter",
      "outputs": [
        {
          "internalType": "uint256",
          "name": "",
          "type": "uint256"
        }
      ],
      "stateMutability": "view",
      "type": "function"
    },
    {
      "inputs": [],
      "name": "AddressManager",
      "outputs": [
        {
          "internalType": "contract IAddressManager",
          "name": "",
          "type": "address"
        }
      ],
      "stateMutability": "view",
      "type": "function"
    },
    {
      "inputs": [],
      "name": "AllTxsCounter",
      "outputs": [
        {
          "internalType": "uint256",
          "name": "",
          "type": "uint256"
        }
      ],
      "stateMutability": "view",
      "type": "function"
    },
    {
      "inputs": [],
      "name": "AllocateWork",
      "outputs": [],
      "stateMutability": "nonpayable",
      "type": "function"
    },
    {
      "inputs": [],
      "name": "AllocatedBatchCursor",
      "outputs": [
        {
          "internalType": "uint256",
          "name": "",
          "type": "uint256"
        }
      ],
      "stateMutability": "view",
      "type": "function"
    },
    {
      "inputs": [],
      "name": "AmIRegistered",
      "outputs": [
        {
          "internalType": "bool",
          "name": "passed",
          "type": "bool"
        }
      ],
      "stateMutability": "view",
      "type": "function"
    },
    {
      "inputs": [
        {
          "internalType": "string",
          "name": "_a",
          "type": "string"
        },
        {
          "internalType": "string",
          "name": "_b",
          "type": "string"
        }
      ],
      "name": "AreStringsEqual",
      "outputs": [
        {
          "internalType": "bool",
          "name": "",
          "type": "bool"
        }
      ],
      "stateMutability": "pure",
      "type": "function"
    },
    {
      "inputs": [],
      "name": "BatchCheckingCursor",
      "outputs": [
        {
          "internalType": "uint256",
          "name": "",
          "type": "uint256"
        }
      ],
      "stateMutability": "view",
      "type": "function"
    },
    {
      "inputs": [],
      "name": "COMMIT_ROUND_DURATION",
      "outputs": [
        {
          "internalType": "uint256",
          "name": "",
          "type": "uint256"
        }
      ],
      "stateMutability": "view",
      "type": "function"
    },
    {
      "inputs": [],
      "name": "CONSENSUS_WORKER_SIZE",
      "outputs": [
        {
          "internalType": "uint256",
          "name": "",
          "type": "uint256"
        }
      ],
      "stateMutability": "view",
      "type": "function"
    },
    {
      "inputs": [],
      "name": "CurrentWorkEpoch",
      "outputs": [
        {
          "internalType": "uint256",
          "name": "",
          "type": "uint256"
        }
      ],
      "stateMutability": "view",
      "type": "function"
    },
    {
      "inputs": [],
      "name": "DATA_BATCH_SIZE",
      "outputs": [
        {
          "internalType": "uint256",
          "name": "",
          "type": "uint256"
        }
      ],
      "stateMutability": "view",
      "type": "function"
    },
    {
      "inputs": [
        {
          "internalType": "uint256",
          "name": "",
          "type": "uint256"
        }
      ],
      "name": "DataBatch",
      "outputs": [
        {
          "internalType": "uint256",
          "name": "start_idx",
          "type": "uint256"
        },
        {
          "internalType": "uint256",
          "name": "counter",
          "type": "uint256"
        },
        {
          "internalType": "uint256",
          "name": "uncommited_workers",
          "type": "uint256"
        },
        {
          "internalType": "uint256",
          "name": "unrevealed_workers",
          "type": "uint256"
        },
        {
          "internalType": "bool",
          "name": "complete",
          "type": "bool"
        },
        {
          "internalType": "bool",
          "name": "checked",
          "type": "bool"
        },
        {
          "internalType": "bool",
          "name": "allocated_to_work",
          "type": "bool"
        },
        {
          "internalType": "uint256",
          "name": "commitEndDate",
          "type": "uint256"
        },
        {
          "internalType": "uint256",
          "name": "revealEndDate",
          "type": "uint256"
        },
        {
          "internalType": "uint256",
          "name": "votesFor",
          "type": "uint256"
        },
        {
          "internalType": "uint256",
          "name": "votesAgainst",
          "type": "uint256"
        },
        {
          "internalType": "string",
          "name": "batchIPFSfile",
          "type": "string"
        },
        {
          "internalType": "uint256",
          "name": "item_count",
          "type": "uint256"
        },
        {
          "internalType": "enum DataSpotting.DataStatus",
          "name": "status",
          "type": "uint8"
        }
      ],
      "stateMutability": "view",
      "type": "function"
    },
    {
      "inputs": [
        {
          "internalType": "uint256",
          "name": "_DataBatchId",
          "type": "uint256"
        }
      ],
      "name": "DataCommitEndDate",
      "outputs": [
        {
          "internalType": "uint256",
          "name": "commitEndDate",
          "type": "uint256"
        }
      ],
      "stateMutability": "view",
      "type": "function"
    },
    {
      "inputs": [
        {
          "internalType": "uint256",
          "name": "_DataBatchId",
          "type": "uint256"
        }
      ],
      "name": "DataEnded",
      "outputs": [
        {
          "internalType": "bool",
          "name": "ended",
          "type": "bool"
        }
      ],
      "stateMutability": "view",
      "type": "function"
    },
    {
      "inputs": [
        {
          "internalType": "uint256",
          "name": "_DataBatchId",
          "type": "uint256"
        }
      ],
      "name": "DataExists",
      "outputs": [
        {
          "internalType": "bool",
          "name": "exists",
          "type": "bool"
        }
      ],
      "stateMutability": "view",
      "type": "function"
    },
    {
      "inputs": [],
      "name": "DataNonce",
      "outputs": [
        {
          "internalType": "uint256",
          "name": "",
          "type": "uint256"
        }
      ],
      "stateMutability": "view",
      "type": "function"
    },
    {
      "inputs": [
        {
          "internalType": "uint256",
          "name": "_DataBatchId",
          "type": "uint256"
        }
      ],
      "name": "DataRevealEndDate",
      "outputs": [
        {
          "internalType": "uint256",
          "name": "revealEndDate",
          "type": "uint256"
        }
      ],
      "stateMutability": "view",
      "type": "function"
    },
    {
      "inputs": [],
      "name": "FormattingSystem",
      "outputs": [
        {
          "internalType": "contract IFormattingSystem",
          "name": "",
          "type": "address"
        }
      ],
      "stateMutability": "view",
      "type": "function"
    },
    {
      "inputs": [
        {
          "internalType": "address",
          "name": "user_",
          "type": "address"
        }
      ],
      "name": "GetCurrentWork",
      "outputs": [
        {
          "internalType": "uint256",
          "name": "",
          "type": "uint256"
        }
      ],
      "stateMutability": "view",
      "type": "function"
    },
    {
      "inputs": [],
      "name": "INTER_ALLOCATION_DURATION",
      "outputs": [
        {
          "internalType": "uint256",
          "name": "",
          "type": "uint256"
        }
      ],
      "stateMutability": "view",
      "type": "function"
    },
    {
      "inputs": [
        {
          "internalType": "address",
          "name": "user_",
          "type": "address"
        }
      ],
      "name": "IsNewWorkAvailable",
      "outputs": [
        {
          "internalType": "bool",
          "name": "",
          "type": "bool"
        }
      ],
      "stateMutability": "view",
      "type": "function"
    },
    {
      "inputs": [],
      "name": "LastAllocationTime",
      "outputs": [
        {
          "internalType": "uint256",
          "name": "",
          "type": "uint256"
        }
      ],
      "stateMutability": "view",
      "type": "function"
    },
    {
      "inputs": [],
      "name": "LastBatchCounter",
      "outputs": [
        {
          "internalType": "uint256",
          "name": "",
          "type": "uint256"
        }
      ],
      "stateMutability": "view",
      "type": "function"
    },
    {
      "inputs": [],
      "name": "MIN_CONSENSUS_WORKER_COUNT",
      "outputs": [
        {
          "internalType": "uint256",
          "name": "",
          "type": "uint256"
        }
      ],
      "stateMutability": "view",
      "type": "function"
    },
    {
      "inputs": [],
      "name": "MIN_REP_Data",
      "outputs": [
        {
          "internalType": "uint256",
          "name": "",
          "type": "uint256"
        }
      ],
      "stateMutability": "view",
      "type": "function"
    },
    {
      "inputs": [],
      "name": "MIN_REP_REVEAL",
      "outputs": [
        {
          "internalType": "uint256",
          "name": "",
          "type": "uint256"
        }
      ],
      "stateMutability": "view",
      "type": "function"
    },
    {
      "inputs": [],
      "name": "MIN_REWARD_Data",
      "outputs": [
        {
          "internalType": "uint256",
          "name": "",
          "type": "uint256"
        }
      ],
      "stateMutability": "view",
      "type": "function"
    },
    {
      "inputs": [],
      "name": "MIN_STAKE",
      "outputs": [
        {
          "internalType": "uint256",
          "name": "",
          "type": "uint256"
        }
      ],
      "stateMutability": "view",
      "type": "function"
    },
    {
      "inputs": [
        {
          "internalType": "address",
          "name": "",
          "type": "address"
        },
        {
          "internalType": "uint256",
          "name": "",
          "type": "uint256"
        }
      ],
      "name": "MasterWorkers",
      "outputs": [
        {
          "internalType": "address",
          "name": "",
          "type": "address"
        }
      ],
      "stateMutability": "view",
      "type": "function"
    },
    {
      "inputs": [],
      "name": "NotCommitedCounter",
      "outputs": [
        {
          "internalType": "uint256",
          "name": "",
          "type": "uint256"
        }
      ],
      "stateMutability": "view",
      "type": "function"
    },
    {
      "inputs": [],
      "name": "NotRevealedCounter",
      "outputs": [
        {
          "internalType": "uint256",
          "name": "",
          "type": "uint256"
        }
      ],
      "stateMutability": "view",
      "type": "function"
    },
    {
      "inputs": [],
      "name": "REVEAL_ROUND_DURATION",
      "outputs": [
        {
          "internalType": "uint256",
          "name": "",
          "type": "uint256"
        }
      ],
      "stateMutability": "view",
      "type": "function"
    },
    {
      "inputs": [],
      "name": "RegisterWorker",
      "outputs": [],
      "stateMutability": "nonpayable",
      "type": "function"
    },
    {
      "inputs": [],
      "name": "RejectedBatchsCounter",
      "outputs": [
        {
          "internalType": "uint256",
          "name": "",
          "type": "uint256"
        }
      ],
      "stateMutability": "view",
      "type": "function"
    },
    {
      "inputs": [],
      "name": "RepManager",
      "outputs": [
        {
          "internalType": "contract IRepManager",
          "name": "",
          "type": "address"
        }
      ],
      "stateMutability": "view",
      "type": "function"
    },
    {
      "inputs": [],
      "name": "RewardManager",
      "outputs": [
        {
          "internalType": "contract IRewardManager",
          "name": "",
          "type": "address"
        }
      ],
      "stateMutability": "view",
      "type": "function"
    },
    {
      "inputs": [
        {
          "internalType": "string[]",
          "name": "file_hashs",
          "type": "string[]"
        },
        {
          "internalType": "string[]",
          "name": "URL_domains",
          "type": "string[]"
        },
        {
          "internalType": "uint256",
          "name": "item_count_",
          "type": "uint256"
        },
        {
          "internalType": "string",
          "name": "extra_",
          "type": "string"
        }
      ],
      "name": "SpotData",
      "outputs": [
        {
          "internalType": "uint256",
          "name": "Dataid_",
          "type": "uint256"
        }
      ],
      "stateMutability": "nonpayable",
      "type": "function"
    },
    {
      "inputs": [
        {
          "internalType": "address",
          "name": "",
          "type": "address"
        }
      ],
      "name": "SpotStakedTokenBalance",
      "outputs": [
        {
          "internalType": "uint256",
          "name": "",
          "type": "uint256"
        }
      ],
      "stateMutability": "view",
      "type": "function"
    },
    {
      "inputs": [
        {
          "internalType": "uint256",
          "name": "",
          "type": "uint256"
        }
      ],
      "name": "SpotsMapping",
      "outputs": [
        {
          "internalType": "string",
          "name": "ipfs_hash",
          "type": "string"
        },
        {
          "internalType": "address",
          "name": "author",
          "type": "address"
        },
        {
          "internalType": "uint256",
          "name": "timestamp",
          "type": "uint256"
        },
        {
          "internalType": "uint256",
          "name": "item_count",
          "type": "uint256"
        },
        {
          "internalType": "string",
          "name": "URL_domain",
          "type": "string"
        },
        {
          "internalType": "string",
          "name": "extra",
          "type": "string"
        },
        {
          "internalType": "enum DataSpotting.DataStatus",
          "name": "status",
          "type": "uint8"
        }
      ],
      "stateMutability": "view",
      "type": "function"
    },
    {
      "inputs": [],
      "name": "StakeManager",
      "outputs": [
        {
          "internalType": "contract IStakeManager",
          "name": "",
          "type": "address"
        }
      ],
      "stateMutability": "view",
      "type": "function"
    },
    {
      "inputs": [],
      "name": "TriggerNextEpoch",
      "outputs": [],
      "stateMutability": "nonpayable",
      "type": "function"
    },
    {
      "inputs": [],
      "name": "UnregisterWorker",
      "outputs": [],
      "stateMutability": "nonpayable",
      "type": "function"
    },
    {
      "inputs": [
        {
          "internalType": "uint256",
          "name": "",
          "type": "uint256"
        },
        {
          "internalType": "address",
          "name": "",
          "type": "address"
        }
      ],
      "name": "UserBatchCounts",
      "outputs": [
        {
          "internalType": "uint256",
          "name": "",
          "type": "uint256"
        }
      ],
      "stateMutability": "view",
      "type": "function"
    },
    {
      "inputs": [
        {
          "internalType": "address",
          "name": "",
          "type": "address"
        },
        {
          "internalType": "uint256",
          "name": "",
          "type": "uint256"
        }
      ],
      "name": "UserChecksCommits",
      "outputs": [
        {
          "internalType": "bool",
          "name": "",
          "type": "bool"
        }
      ],
      "stateMutability": "view",
      "type": "function"
    },
    {
      "inputs": [
        {
          "internalType": "address",
          "name": "",
          "type": "address"
        },
        {
          "internalType": "uint256",
          "name": "",
          "type": "uint256"
        }
      ],
      "name": "UserChecksReveals",
      "outputs": [
        {
          "internalType": "bool",
          "name": "",
          "type": "bool"
        }
      ],
      "stateMutability": "view",
      "type": "function"
    },
    {
      "inputs": [
        {
          "internalType": "uint256",
          "name": "",
          "type": "uint256"
        },
        {
          "internalType": "address",
          "name": "",
          "type": "address"
        }
      ],
      "name": "UserNewFiles",
      "outputs": [
        {
          "internalType": "string",
          "name": "",
          "type": "string"
        }
      ],
      "stateMutability": "view",
      "type": "function"
    },
    {
      "inputs": [
        {
          "internalType": "uint256",
          "name": "",
          "type": "uint256"
        },
        {
          "internalType": "address",
          "name": "",
          "type": "address"
        }
      ],
      "name": "UserVotes",
      "outputs": [
        {
          "internalType": "uint256",
          "name": "",
          "type": "uint256"
        }
      ],
      "stateMutability": "view",
      "type": "function"
    },
    {
      "inputs": [],
      "name": "VOTE_QUORUM",
      "outputs": [
        {
          "internalType": "uint256",
          "name": "",
          "type": "uint256"
        }
      ],
      "stateMutability": "view",
      "type": "function"
    },
    {
      "inputs": [
        {
          "internalType": "uint256",
          "name": "",
          "type": "uint256"
        },
        {
          "internalType": "uint256",
          "name": "",
          "type": "uint256"
        }
      ],
      "name": "WorkersPerBatch",
      "outputs": [
        {
          "internalType": "address",
          "name": "",
          "type": "address"
        }
      ],
      "stateMutability": "view",
      "type": "function"
    },
    {
      "inputs": [
        {
          "internalType": "address",
          "name": "",
          "type": "address"
        }
      ],
      "name": "WorkersState",
      "outputs": [
        {
          "internalType": "address",
          "name": "worker_address",
          "type": "address"
        },
        {
          "internalType": "address",
          "name": "master_address",
          "type": "address"
        },
        {
          "internalType": "uint256",
          "name": "allocated_work_batch",
          "type": "uint256"
        },
        {
          "internalType": "bool",
          "name": "has_completed_work",
          "type": "bool"
        },
        {
          "internalType": "uint256",
          "name": "last_worked_round",
          "type": "uint256"
        },
        {
          "internalType": "uint256",
          "name": "last_interaction_date",
          "type": "uint256"
        },
        {
          "internalType": "string",
          "name": "extra",
          "type": "string"
        },
        {
          "internalType": "bool",
          "name": "registered",
          "type": "bool"
        },
        {
          "internalType": "bool",
          "name": "unregistration_request",
          "type": "bool"
        },
        {
          "internalType": "uint256",
          "name": "registration_date",
          "type": "uint256"
        }
      ],
      "stateMutability": "view",
      "type": "function"
    },
    {
      "inputs": [
        {
          "internalType": "address",
          "name": "_user",
          "type": "address"
        },
        {
          "internalType": "uint256",
          "name": "_DataBatchId",
          "type": "uint256"
        }
      ],
      "name": "attrUUID",
      "outputs": [
        {
          "internalType": "bytes32",
          "name": "UUID",
          "type": "bytes32"
        }
      ],
      "stateMutability": "pure",
      "type": "function"
    },
    {
      "inputs": [
        {
          "internalType": "uint256",
          "name": "",
          "type": "uint256"
        }
      ],
      "name": "availableWorkers",
      "outputs": [
        {
          "internalType": "address",
          "name": "",
          "type": "address"
        }
      ],
      "stateMutability": "view",
      "type": "function"
    },
    {
      "inputs": [
        {
          "internalType": "uint256",
          "name": "",
          "type": "uint256"
        }
      ],
      "name": "busyWorkers",
      "outputs": [
        {
          "internalType": "address",
          "name": "",
          "type": "address"
        }
      ],
      "stateMutability": "view",
      "type": "function"
    },
    {
      "inputs": [
        {
          "internalType": "uint256",
          "name": "_DataBatchId",
          "type": "uint256"
        }
      ],
      "name": "commitPeriodActive",
      "outputs": [
        {
          "internalType": "bool",
          "name": "active",
          "type": "bool"
        }
      ],
      "stateMutability": "view",
      "type": "function"
    },
    {
      "inputs": [
        {
          "internalType": "uint256",
          "name": "_DataBatchId",
          "type": "uint256"
        },
        {
          "internalType": "bytes32",
          "name": "_secretHash",
          "type": "bytes32"
        },
        {
          "internalType": "string",
          "name": "newIPFSHash",
          "type": "string"
        },
        {
          "internalType": "uint256",
          "name": "_BatchCount",
          "type": "uint256"
        }
      ],
      "name": "commitSpotCheck",
      "outputs": [],
      "stateMutability": "nonpayable",
      "type": "function"
    },
    {
      "inputs": [
        {
          "internalType": "uint256",
          "name": "_DataId",
          "type": "uint256"
        }
      ],
      "name": "deleteData",
      "outputs": [],
      "stateMutability": "nonpayable",
      "type": "function"
    },
    {
      "inputs": [
        {
          "internalType": "uint256",
          "name": "_BatchId",
          "type": "uint256"
        }
      ],
      "name": "deleteDataBatch",
      "outputs": [],
      "stateMutability": "nonpayable",
      "type": "function"
    },
    {
      "inputs": [
        {
          "internalType": "address",
          "name": "_voter",
          "type": "address"
        },
        {
          "internalType": "uint256",
          "name": "_DataBatchId",
          "type": "uint256"
        }
      ],
      "name": "didCommit",
      "outputs": [
        {
          "internalType": "bool",
          "name": "committed",
          "type": "bool"
        }
      ],
      "stateMutability": "view",
      "type": "function"
    },
    {
      "inputs": [
        {
          "internalType": "address",
          "name": "_voter",
          "type": "address"
        },
        {
          "internalType": "uint256",
          "name": "_DataBatchId",
          "type": "uint256"
        }
      ],
      "name": "didReveal",
      "outputs": [
        {
          "internalType": "bool",
          "name": "revealed",
          "type": "bool"
        }
      ],
      "stateMutability": "view",
      "type": "function"
    },
    {
      "inputs": [
        {
          "internalType": "uint256",
          "name": "_k",
          "type": "uint256"
        },
        {
          "internalType": "uint256",
          "name": "N_range",
          "type": "uint256"
        }
      ],
      "name": "generateIntegers",
      "outputs": [
        {
          "internalType": "uint256[]",
          "name": "",
          "type": "uint256[]"
        }
      ],
      "stateMutability": "view",
      "type": "function"
    },
    {
      "inputs": [],
      "name": "getAcceptedBatchesCount",
      "outputs": [
        {
          "internalType": "uint256",
          "name": "count",
          "type": "uint256"
        }
      ],
      "stateMutability": "view",
      "type": "function"
    },
    {
      "inputs": [],
      "name": "getActiveWorkersCount",
      "outputs": [
        {
          "internalType": "uint256",
          "name": "numWorkers",
          "type": "uint256"
        }
      ],
      "stateMutability": "view",
      "type": "function"
    },
    {
      "inputs": [
        {
          "internalType": "uint256",
          "name": "_DataBatchId",
          "type": "uint256"
        }
      ],
      "name": "getBatchByID",
      "outputs": [
        {
          "components": [
            {
              "internalType": "uint256",
              "name": "start_idx",
              "type": "uint256"
            },
            {
              "internalType": "uint256",
              "name": "counter",
              "type": "uint256"
            },
            {
              "internalType": "uint256",
              "name": "uncommited_workers",
              "type": "uint256"
            },
            {
              "internalType": "uint256",
              "name": "unrevealed_workers",
              "type": "uint256"
            },
            {
              "internalType": "bool",
              "name": "complete",
              "type": "bool"
            },
            {
              "internalType": "bool",
              "name": "checked",
              "type": "bool"
            },
            {
              "internalType": "bool",
              "name": "allocated_to_work",
              "type": "bool"
            },
            {
              "internalType": "uint256",
              "name": "commitEndDate",
              "type": "uint256"
            },
            {
              "internalType": "uint256",
              "name": "revealEndDate",
              "type": "uint256"
            },
            {
              "internalType": "uint256",
              "name": "votesFor",
              "type": "uint256"
            },
            {
              "internalType": "uint256",
              "name": "votesAgainst",
              "type": "uint256"
            },
            {
              "internalType": "string",
              "name": "batchIPFSfile",
              "type": "string"
            },
            {
              "internalType": "uint256",
              "name": "item_count",
              "type": "uint256"
            },
            {
              "internalType": "enum DataSpotting.DataStatus",
              "name": "status",
              "type": "uint8"
            }
          ],
          "internalType": "struct DataSpotting.BatchMetadata",
          "name": "batch",
          "type": "tuple"
        }
      ],
      "stateMutability": "view",
      "type": "function"
    },
    {
      "inputs": [
        {
          "internalType": "uint256",
          "name": "_DataBatchId",
          "type": "uint256"
        }
      ],
      "name": "getBatchIPFSFileByID",
      "outputs": [
        {
          "internalType": "string",
          "name": "batch",
          "type": "string"
        }
      ],
      "stateMutability": "view",
      "type": "function"
    },
    {
      "inputs": [
        {
          "internalType": "address",
          "name": "_voter",
          "type": "address"
        },
        {
          "internalType": "uint256",
          "name": "_DataBatchId",
          "type": "uint256"
        }
      ],
      "name": "getCommitHash",
      "outputs": [
        {
          "internalType": "bytes32",
          "name": "commitHash",
          "type": "bytes32"
        }
      ],
      "stateMutability": "view",
      "type": "function"
    },
    {
      "inputs": [],
      "name": "getCurrentWorkEpoch",
      "outputs": [
        {
          "internalType": "uint256",
          "name": "WorkEpoch",
          "type": "uint256"
        }
      ],
      "stateMutability": "view",
      "type": "function"
    },
    {
      "inputs": [
        {
          "internalType": "uint256",
          "name": "_DataId",
          "type": "uint256"
        }
      ],
      "name": "getDataByID",
      "outputs": [
        {
          "components": [
            {
              "internalType": "string",
              "name": "ipfs_hash",
              "type": "string"
            },
            {
              "internalType": "address",
              "name": "author",
              "type": "address"
            },
            {
              "internalType": "uint256",
              "name": "timestamp",
              "type": "uint256"
            },
            {
              "internalType": "uint256",
              "name": "item_count",
              "type": "uint256"
            },
            {
              "internalType": "string",
              "name": "URL_domain",
              "type": "string"
            },
            {
              "internalType": "string",
              "name": "extra",
              "type": "string"
            },
            {
              "internalType": "enum DataSpotting.DataStatus",
              "name": "status",
              "type": "uint8"
            }
          ],
          "internalType": "struct DataSpotting.SpottedData",
          "name": "data",
          "type": "tuple"
        }
      ],
      "stateMutability": "view",
      "type": "function"
    },
    {
      "inputs": [
        {
          "internalType": "uint256",
          "name": "_DataBatchId",
          "type": "uint256"
        }
      ],
      "name": "getDomainsForBatch",
      "outputs": [
        {
          "internalType": "string[]",
          "name": "",
          "type": "string[]"
        }
      ],
      "stateMutability": "view",
      "type": "function"
    },
    {
      "inputs": [
        {
          "internalType": "uint256",
          "name": "_voteOption",
          "type": "uint256"
        },
        {
          "internalType": "uint256",
          "name": "_salt",
          "type": "uint256"
        }
      ],
      "name": "getEncryptedHash",
      "outputs": [
        {
          "internalType": "bytes32",
          "name": "keccak256hash",
          "type": "bytes32"
        }
      ],
      "stateMutability": "pure",
      "type": "function"
    },
    {
      "inputs": [
        {
          "internalType": "string",
          "name": "_hash",
          "type": "string"
        },
        {
          "internalType": "uint256",
          "name": "_salt",
          "type": "uint256"
        }
      ],
      "name": "getEncryptedStringHash",
      "outputs": [
        {
          "internalType": "bytes32",
          "name": "keccak256hash",
          "type": "bytes32"
        }
      ],
      "stateMutability": "pure",
      "type": "function"
    },
    {
      "inputs": [
        {
          "internalType": "uint256",
          "name": "_DataBatchId",
          "type": "uint256"
        }
      ],
      "name": "getIPFShashesForBatch",
      "outputs": [
        {
          "internalType": "string[]",
          "name": "",
          "type": "string[]"
        }
      ],
      "stateMutability": "view",
      "type": "function"
    },
    {
      "inputs": [],
      "name": "getLastAllocatedBatchId",
      "outputs": [
        {
          "internalType": "uint256",
          "name": "LastAllocatedBatchId",
          "type": "uint256"
        }
      ],
      "stateMutability": "view",
      "type": "function"
    },
    {
      "inputs": [],
      "name": "getLastBatchId",
      "outputs": [
        {
          "internalType": "uint256",
          "name": "LastBatchId",
          "type": "uint256"
        }
      ],
      "stateMutability": "view",
      "type": "function"
    },
    {
      "inputs": [],
      "name": "getLastCheckedBatchId",
      "outputs": [
        {
          "internalType": "uint256",
          "name": "LastCheckedBatchId",
          "type": "uint256"
        }
      ],
      "stateMutability": "view",
      "type": "function"
    },
    {
      "inputs": [],
      "name": "getLastDataId",
      "outputs": [
        {
          "internalType": "uint256",
          "name": "DataId",
          "type": "uint256"
        }
      ],
      "stateMutability": "view",
      "type": "function"
    },
    {
      "inputs": [
        {
          "internalType": "address",
          "name": "_voter",
          "type": "address"
        }
      ],
      "name": "getLastNode",
      "outputs": [
        {
          "internalType": "uint256",
          "name": "DataID",
          "type": "uint256"
        }
      ],
      "stateMutability": "view",
      "type": "function"
    },
    {
      "inputs": [
        {
          "internalType": "address",
          "name": "user",
          "type": "address"
        }
      ],
      "name": "getLastUserDataId",
      "outputs": [
        {
          "internalType": "uint256",
          "name": "DataId",
          "type": "uint256"
        }
      ],
      "stateMutability": "view",
      "type": "function"
    },
    {
      "inputs": [
        {
          "internalType": "address",
          "name": "_voter",
          "type": "address"
        }
      ],
      "name": "getLockedTokens",
      "outputs": [
        {
          "internalType": "uint256",
          "name": "numTokens",
          "type": "uint256"
        }
      ],
      "stateMutability": "view",
      "type": "function"
    },
    {
      "inputs": [],
      "name": "getMySystemTokenBalance",
      "outputs": [
        {
          "internalType": "uint256",
          "name": "tokens",
          "type": "uint256"
        }
      ],
      "stateMutability": "view",
      "type": "function"
    },
    {
      "inputs": [
        {
          "internalType": "address",
          "name": "_voter",
          "type": "address"
        },
        {
          "internalType": "uint256",
          "name": "_DataBatchId",
          "type": "uint256"
        }
      ],
      "name": "getNumTokens",
      "outputs": [
        {
          "internalType": "uint256",
          "name": "numTokens",
          "type": "uint256"
        }
      ],
      "stateMutability": "view",
      "type": "function"
    },
    {
      "inputs": [],
      "name": "getRandom",
      "outputs": [
        {
          "internalType": "uint256",
          "name": "",
          "type": "uint256"
        }
      ],
      "stateMutability": "view",
      "type": "function"
    },
    {
      "inputs": [],
      "name": "getRejectedBatchesCount",
      "outputs": [
        {
          "internalType": "uint256",
          "name": "count",
          "type": "uint256"
        }
      ],
      "stateMutability": "view",
      "type": "function"
    },
    {
      "inputs": [],
      "name": "getSeed",
      "outputs": [
        {
          "internalType": "bytes32",
          "name": "addr",
          "type": "bytes32"
        }
      ],
      "stateMutability": "view",
      "type": "function"
    },
    {
      "inputs": [
        {
          "internalType": "address",
          "name": "_user",
          "type": "address"
        }
      ],
      "name": "getSystemTokenBalance",
      "outputs": [
        {
          "internalType": "uint256",
          "name": "tokens",
          "type": "uint256"
        }
      ],
      "stateMutability": "view",
      "type": "function"
    },
    {
      "inputs": [],
      "name": "getTxCounter",
      "outputs": [
        {
          "internalType": "uint256",
          "name": "Counter",
          "type": "uint256"
        }
      ],
      "stateMutability": "view",
      "type": "function"
    },
    {
      "inputs": [
        {
          "internalType": "address",
          "name": "user",
          "type": "address"
        }
      ],
      "name": "getUserDatas",
      "outputs": [
        {
          "internalType": "uint256[]",
          "name": "user_Datas",
          "type": "uint256[]"
        }
      ],
      "stateMutability": "view",
      "type": "function"
    },
    {
      "inputs": [
        {
          "internalType": "uint256",
          "name": "_terminationDate",
          "type": "uint256"
        }
      ],
      "name": "isExpired",
      "outputs": [
        {
          "internalType": "bool",
          "name": "expired",
          "type": "bool"
        }
      ],
      "stateMutability": "view",
      "type": "function"
    },
    {
      "inputs": [
        {
          "internalType": "uint256",
          "name": "_DataBatchId",
          "type": "uint256"
        }
      ],
      "name": "isPassed",
      "outputs": [
        {
          "internalType": "bool",
          "name": "passed",
          "type": "bool"
        }
      ],
      "stateMutability": "view",
      "type": "function"
    },
    {
      "inputs": [
        {
          "internalType": "uint256",
          "name": "_DataBatchId",
          "type": "uint256"
        },
        {
          "internalType": "address",
          "name": "_worker",
          "type": "address"
        }
      ],
      "name": "isWorkerAllocatedToBatch",
      "outputs": [
        {
          "internalType": "bool",
          "name": "",
          "type": "bool"
        }
      ],
      "stateMutability": "view",
      "type": "function"
    },
    {
      "inputs": [
        {
          "internalType": "address",
          "name": "_worker",
          "type": "address"
        }
      ],
      "name": "isWorkerRegistered",
      "outputs": [
        {
          "internalType": "bool",
          "name": "passed",
          "type": "bool"
        }
      ],
      "stateMutability": "view",
      "type": "function"
    },
    {
      "inputs": [],
      "name": "owner",
      "outputs": [
        {
          "internalType": "address",
          "name": "",
          "type": "address"
        }
      ],
      "stateMutability": "view",
      "type": "function"
    },
    {
      "inputs": [
        {
          "internalType": "uint256",
          "name": "k",
          "type": "uint256"
        },
        {
          "internalType": "uint256",
          "name": "N",
          "type": "uint256"
        }
      ],
      "name": "random_selection",
      "outputs": [
        {
          "internalType": "uint256[]",
          "name": "",
          "type": "uint256[]"
        }
      ],
      "stateMutability": "view",
      "type": "function"
    },
    {
      "inputs": [],
      "name": "renounceOwnership",
      "outputs": [],
      "stateMutability": "nonpayable",
      "type": "function"
    },
    {
      "inputs": [
        {
          "internalType": "uint256",
          "name": "_numTokens",
          "type": "uint256"
        }
      ],
      "name": "requestVotingRights",
      "outputs": [],
      "stateMutability": "nonpayable",
      "type": "function"
    },
    {
      "inputs": [
        {
          "internalType": "uint256",
          "name": "_DataBatchId",
          "type": "uint256"
        }
      ],
      "name": "rescueTokens",
      "outputs": [],
      "stateMutability": "nonpayable",
      "type": "function"
    },
    {
      "inputs": [
        {
          "internalType": "uint256[]",
          "name": "_DataBatchIDs",
          "type": "uint256[]"
        }
      ],
      "name": "rescueTokensInMultipleDatas",
      "outputs": [],
      "stateMutability": "nonpayable",
      "type": "function"
    },
    {
      "inputs": [
        {
          "internalType": "uint256",
          "name": "_DataBatchId",
          "type": "uint256"
        }
      ],
      "name": "revealPeriodActive",
      "outputs": [
        {
          "internalType": "bool",
          "name": "active",
          "type": "bool"
        }
      ],
      "stateMutability": "view",
      "type": "function"
    },
    {
      "inputs": [
        {
          "internalType": "uint256",
          "name": "_DataBatchId",
          "type": "uint256"
        },
        {
          "internalType": "uint256",
          "name": "_voteOption",
          "type": "uint256"
        },
        {
          "internalType": "uint256",
          "name": "_salt",
          "type": "uint256"
        }
      ],
      "name": "revealSpotCheck",
      "outputs": [],
      "stateMutability": "nonpayable",
      "type": "function"
    },
    {
      "inputs": [],
      "name": "sFuel",
      "outputs": [
        {
          "internalType": "address",
          "name": "",
          "type": "address"
        }
      ],
      "stateMutability": "view",
      "type": "function"
    },
    {
      "inputs": [
        {
          "internalType": "uint256",
          "name": "N",
          "type": "uint256"
        }
      ],
      "name": "shuffle_array",
      "outputs": [
        {
          "internalType": "uint256[]",
          "name": "",
          "type": "uint256[]"
        }
      ],
      "stateMutability": "view",
      "type": "function"
    },
    {
      "inputs": [],
      "name": "token",
      "outputs": [
        {
          "internalType": "contract IERC20",
          "name": "",
          "type": "address"
        }
      ],
      "stateMutability": "view",
      "type": "function"
    },
    {
      "inputs": [
        {
          "internalType": "address",
          "name": "newOwner",
          "type": "address"
        }
      ],
      "name": "transferOwnership",
      "outputs": [],
      "stateMutability": "nonpayable",
      "type": "function"
    },
    {
      "inputs": [
        {
          "internalType": "address",
          "name": "addr",
          "type": "address"
        }
      ],
      "name": "updateAddressManager",
      "outputs": [],
      "stateMutability": "nonpayable",
      "type": "function"
    },
    {
      "inputs": [
        {
          "internalType": "uint256",
          "name": "COMMIT_ROUND_DURATION_",
          "type": "uint256"
        }
      ],
      "name": "updateCommitRoundDuration",
      "outputs": [],
      "stateMutability": "nonpayable",
      "type": "function"
    },
    {
      "inputs": [
        {
          "internalType": "uint256",
          "name": "CONSENSUS_WORKER_SIZE_",
          "type": "uint256"
        }
      ],
      "name": "updateConsensusSize",
      "outputs": [],
      "stateMutability": "nonpayable",
      "type": "function"
    },
    {
      "inputs": [
        {
          "internalType": "uint256",
          "name": "size",
          "type": "uint256"
        }
      ],
      "name": "updateDataBachSize",
      "outputs": [],
      "stateMutability": "nonpayable",
      "type": "function"
    },
    {
      "inputs": [
        {
          "internalType": "address",
          "name": "addr",
          "type": "address"
        }
      ],
      "name": "updateFormattingSystem",
      "outputs": [],
      "stateMutability": "nonpayable",
      "type": "function"
    },
    {
      "inputs": [
        {
          "internalType": "uint256",
          "name": "INTER_ALLOCATION_DURATION_",
          "type": "uint256"
        }
      ],
      "name": "updateInterAllocationDuration",
      "outputs": [],
      "stateMutability": "nonpayable",
      "type": "function"
    },
    {
      "inputs": [
        {
          "internalType": "uint256",
          "name": "CONSENSUS_WORKER_SIZE_",
          "type": "uint256"
        }
      ],
      "name": "updateMinConsensusSize",
      "outputs": [],
      "stateMutability": "nonpayable",
      "type": "function"
    },
    {
      "inputs": [
        {
          "internalType": "address",
          "name": "addr",
          "type": "address"
        }
      ],
      "name": "updateRepManager",
      "outputs": [],
      "stateMutability": "nonpayable",
      "type": "function"
    },
    {
      "inputs": [
        {
          "internalType": "uint256",
          "name": "REVEAL_ROUND_DURATION_",
          "type": "uint256"
        }
      ],
      "name": "updateRevealRoundDuration",
      "outputs": [],
      "stateMutability": "nonpayable",
      "type": "function"
    },
    {
      "inputs": [
        {
          "internalType": "address",
          "name": "addr",
          "type": "address"
        }
      ],
      "name": "updateRewardManager",
      "outputs": [],
      "stateMutability": "nonpayable",
      "type": "function"
    },
    {
      "inputs": [
        {
          "internalType": "address",
          "name": "addr",
          "type": "address"
        }
      ],
      "name": "updateStakeManager",
      "outputs": [],
      "stateMutability": "nonpayable",
      "type": "function"
    },
    {
      "inputs": [
        {
          "internalType": "address",
          "name": "_sFuel",
          "type": "address"
        }
      ],
      "name": "updatesFuelFaucet",
      "outputs": [],
      "stateMutability": "nonpayable",
      "type": "function"
    },
    {
      "inputs": [
        {
          "internalType": "address",
          "name": "",
          "type": "address"
        },
        {
          "internalType": "uint256",
          "name": "",
          "type": "uint256"
        }
      ],
      "name": "userSubmissions",
      "outputs": [
        {
          "internalType": "uint256",
          "name": "",
          "type": "uint256"
        }
      ],
      "stateMutability": "view",
      "type": "function"
    },
    {
      "inputs": [
        {
          "internalType": "uint256",
          "name": "_prevID",
          "type": "uint256"
        },
        {
          "internalType": "uint256",
          "name": "_nextID",
          "type": "uint256"
        },
        {
          "internalType": "address",
          "name": "_voter",
          "type": "address"
        },
        {
          "internalType": "uint256",
          "name": "_numTokens",
          "type": "uint256"
        }
      ],
      "name": "validPosition",
      "outputs": [
        {
          "internalType": "bool",
          "name": "APPROVED",
          "type": "bool"
        }
      ],
      "stateMutability": "view",
      "type": "function"
    },
    {
      "inputs": [
        {
          "internalType": "uint256",
          "name": "_numTokens",
          "type": "uint256"
        }
      ],
      "name": "withdrawVotingRights",
      "outputs": [],
      "stateMutability": "nonpayable",
      "type": "function"
    }
  ],
  "bytecode": "0x60806040526002600155600360025560016003556000600855670de0b6b3a7640000600955670de0b6b3a7640000600a5568015af1d78b58c40000600b55603c600c55600060145560006015557314f52f3fc010ab6ca81568d4a6794d5eab3c6155601e60006101000a8154816001600160a01b0302191690836001600160a01b031602179055506001601f556001602055600160215560006023556000602455600060255560006026556000602755348015620000bc57600080fd5b5060405162007dbc38038062007dbc833981016040819052620000df916200018e565b620000f3620000ed6200013a565b6200013e565b602880546001600160a01b0319166001600160a01b0392909216919091179055600060155568015af1d78b58c4000060045560b46005819055600655600a600755620001be565b3390565b600080546001600160a01b038381166001600160a01b0319831681178455604051919092169283917f8be0079c531659141344cd1fd0a4f28419497f9722a3daafe3b4186f6b6457e09190a35050565b600060208284031215620001a0578081fd5b81516001600160a01b0381168114620001b7578182fd5b9392505050565b617bee80620001ce6000396000f3fe608060405234801561001057600080fd5b50600436106107215760003560e01c80639acb75c1116103a8578063d6b0206c116101f4578063e8e9b6f91161011a578063f4cdfcc4116100b8578063f80a23fd11610087578063f80a23fd14610e63578063f96305f014610e6b578063fc0c546a14610e73578063fca4956314610e7b57610721565b8063f4cdfcc414610e2d578063f5ae7c7d14610e40578063f716596d14610e48578063f721de4a14610e5057610721565b8063ef4fcdad116100f4578063ef4fcdad14610df7578063f2d9e74d14610dff578063f2fde38b14610e07578063f343894614610e1a57610721565b8063e8e9b6f914610dc9578063eb1322ff14610ddc578063ed8becfa14610de457610721565b8063dd61868211610192578063e604c12711610161578063e604c12714610d88578063e7805f9e14610d9b578063e798a7da14610da3578063e7b1d43c14610db657610721565b8063dd61868214610d47578063df05368e14610d5a578063e1f7a43014610d6d578063e44c974b14610d7557610721565b8063d901402b116101ce578063d901402b14610cee578063d9548e5314610d01578063d9845fb814610d14578063d9966ae814610d3457610721565b8063d6b0206c14610cc0578063d822ce0114610cc8578063d8b7567414610cdb57610721565b8063b1cf4a7e116102d9578063c7761fab11610277578063d0d41def11610246578063d0d41def14610c7f578063d138209214610c87578063d186981d14610c9a578063d420ec0b14610cad57610721565b8063c7761fab14610c54578063c7c063fb14610c5c578063c9b03a7214610c6f578063cb1c2b5c14610c7757610721565b8063b8f011b3116102b3578063b8f011b314610c08578063bc3002e614610c1b578063c47c4bc214610c2e578063c4e4f82a14610c4157610721565b8063b1cf4a7e14610bcf578063b1d7ea9814610be2578063b7e4eba914610bf557610721565b8063a4439dc511610346578063aa7ca46411610320578063aa7ca46414610b99578063aacc5a1714610bac578063ab43e78d14610bb4578063b1a2e0be14610bbc57610721565b8063a4439dc514610b6b578063a511dba014610b7e578063a905779014610b8657610721565b8063a1103f3711610382578063a1103f3714610b35578063a1b6b5b714610b48578063a25236fe14610b50578063a350715a14610b6357610721565b80639acb75c114610b075780639b7e018014610b0f5780639fc9c52f14610b2257610721565b806354fbaac8116105725780637a34da671161049857806383cc6ef2116104365780638da5cb5b116104055780638da5cb5b14610ad15780638df0296e14610ad95780639760356014610aec5780639769d84614610aff57610721565b806383cc6ef214610a905780638473850b14610a985780638c89d02714610aa05780638d289f8f14610ac957610721565b80637f97e836116104725780637f97e83614610a2a5780637fabe35b14610a3d578063819b029314610a6a578063821aa8c014610a7d57610721565b80637a34da6714610a075780637d05052614610a0f5780637f9510a214610a2257610721565b8063667bf0f81161051057806371880b1b116104df57806371880b1b146109dc578063726bc8af146109ef57806376e8ea4f146109f75780637827e549146109ff57610721565b8063667bf0f8146109a65780636b2d95d4146109ae5780637074222b146109c1578063715018a6146109d457610721565b80635a4529431161054c5780635a452943146109585780635b113a55146109785780635fd879091461098b5780636371d81f1461099357610721565b806354fbaac814610912578063579db71c14610925578063580021581461094557610721565b8063313066ee1161065757806344dc8e6b116105f55780634d884281116105c45780634d884281146108dc5780634fe8b4c1146108ef578063515535e81461090257806351912f291461090a57610721565b806344dc8e6b146108a657806347fe2d20146108b95780634852e2f0146108c157806349403183146108c957610721565b806339e7357c1161063157806339e7357c14610865578063427fa1d21461086d578063441c77c01461088057806344639f7c1461089357610721565b8063313066ee146108425780633538af821461084a578063354dae401461085d57610721565b8063154fd39b116106c4578063275c25901161069e578063275c2590146107f257806329a47bc7146107fa5780632d917c681461080f5780632f469fd11461082257610721565b8063154fd39b146107aa57806319d90346146107b2578063226ed300146107d257610721565b8063050eb2eb11610700578063050eb2eb146107615780630b96c5b0146107745780630e6661a71461079a5780630e670feb146107a257610721565b8062e5273614610726578063035fbb551461074457806304dbcda714610759575b600080fd5b61072e610e8e565b60405161073b919061696e565b60405180910390f35b610757610752366004616877565b610e94565b005b61072e6111d1565b61075761076f3660046164c6565b6111d7565b610787610782366004616771565b611238565b60405161073b9796959493929190616b1e565b61072e61141c565b61072e611422565b61072e611428565b6107c56107c0366004616771565b61142e565b60405161073b9190616a24565b6107e56107e0366004616771565b61174f565b60405161073b9190616ac8565b610757611797565b6108026118cd565b60405161073b91906169a1565b6107e561081d3660046164e0565b6118dc565b61083561083036600461679a565b6118fc565b60405161073b9190616ad3565b61072e6119a1565b610802610858366004616771565b6119a7565b6107576119d1565b61072e611b15565b61072e61087b3660046164c6565b611b32565b6107e561088e366004616771565b611bd2565b6107576108a1366004616771565b611c2c565b6107576108b4366004616771565b611c7e565b61072e611cc2565b61072e611cc8565b6107e56108d7366004616771565b611cce565b6107576108ea3660046164c6565b611e97565b6107576108fd366004616771565b611ef8565b61072e611f9d565b610802611fa3565b6107576109203660046167c5565b611fb2565b6109386109333660046164c6565b61247e565b60405161073b9190616a84565b610757610953366004616771565b6124ea565b61096b610966366004616771565b61252e565b60405161073b9190617867565b61072e61098636600461679a565b612783565b61072e6127a0565b6107576109a1366004616771565b6127a6565b610757612868565b61072e6109bc3660046164c6565b612c88565b61072e6109cf3660046164c6565b612c97565b610757612cb2565b61072e6109ea366004616771565b612cfd565b61072e612d3a565b61072e612d40565b61072e612d46565b610802612d4c565b610757610a1d3660046164c6565b612d5b565b61072e612dbc565b6107e5610a383660046164e0565b612dd3565b610a50610a4b366004616771565b612e26565b60405161073b9e9d9c9b9a9998979695949392919061794e565b6107e5610a7836600461683b565b612f26565b610802610a8b366004616771565b612f67565b610802612f77565b61072e612f86565b610ab3610aae3660046164c6565b612f8c565b60405161073b9a999897969594939291906169b5565b61080261307d565b61080261308c565b610802610ae736600461681a565b61309b565b610757610afa366004616771565b6130d3565b61072e613282565b61072e613288565b61072e610b1d3660046164e0565b61328e565b610757610b303660046165f0565b6132bf565b61072e610b433660046164e0565b61330d565b61072e613340565b610757610b5e366004616771565b613346565b61072e613447565b6107e5610b79366004616771565b61344d565b61072e6134af565b6107e5610b94366004616711565b6134b5565b6107e5610ba73660046164e0565b61351b565b61072e61356e565b610802613623565b6107e5610bca3660046164c6565b613632565b61072e610bdd36600461681a565b61378e565b610938610bf036600461681a565b6137a3565b610757610c03366004616771565b6139aa565b610938610c1636600461681a565b6139ee565b61072e610c29366004616509565b613b56565b610757610c3c3660046164c6565b613e9a565b61072e610c4f366004616771565b613efb565b61072e613f38565b61072e610c6a3660046164c6565b613f3e565b61072e613f50565b61072e613f56565b61072e613f5c565b61072e610c953660046164e0565b613f62565b6107e5610ca836600461679a565b613ffe565b6107e5610cbb3660046164e0565b6140d9565b61072e6140f9565b610802610cd63660046164e0565b6140ff565b61072e610ce936600461679a565b61411b565b61072e610cfc3660046164e0565b614138565b6107e5610d0f366004616771565b61417d565b610d27610d22366004616771565b614182565b60405161073b91906176ed565b610757610d42366004616771565b614306565b610757610d553660046164c6565b61434a565b610757610d683660046164c6565b6143ab565b61072e61440c565b610938610d83366004616771565b61441f565b610835610d96366004616771565b614498565b61072e614543565b6107e5610db13660046164c6565b614549565b610757610dc4366004616771565b61456a565b610757610dd7366004616771565b6146b2565b61072e6146f6565b6107c5610df2366004616771565b6146fc565b61072e614a0f565b61072e614a15565b610757610e153660046164c6565b614a1b565b61072e610e283660046164c6565b614a89565b61072e610e3b36600461669f565b614b2a565b61072e614b60565b610757614b66565b6107e5610e5e366004616771565b614d35565b6107e5614d3d565b61072e614d56565b610802614d5c565b61072e610e893660046164c6565b614d6b565b60075481565b610e9c614ea5565b610ea583611bd2565b610eca5760405162461bcd60e51b8152600401610ec190617365565b60405180910390fd5b336000908152600d6020908152604080832086845290915290205460ff16610f045760405162461bcd60e51b8152600401610ec190617050565b336000908152600e6020908152604080832086845290915290205460ff1615610f3f5760405162461bcd60e51b8152600401610ec1906176a1565b610f493384614138565b610f53838361378e565b14610f705760405162461bcd60e51b8152600401610ec190616deb565b6000610f7c3385613f62565b90508260011415610fb35760008481526022602052604081206007018054839290610fa8908490617a7a565b90915550610fda9050565b60008481526022602052604081206008018054839290610fd4908490617a7a565b90915550505b336000908152601260205260409081902090516301039dfd60e11b815273__$85afbab79b2b776d70bef879a32ed56424$__916302073bfa9161102291908890600401616993565b60006040518083038186803b15801561103a57600080fd5b505af415801561104e573d6000803e3d6000fd5b5050336000818152600e602090815260408083208a84528252808320805460ff19166001908117909155600f8352818420948452938252808320899055601682528083208a84526022909252909120600301549093506110af92509061502d565b60008681526022602052604090206003908101919091558101805460ff191660011790554260058201556110e233615039565b600781015460ff1615611157576110f833615191565b15801561110f57506007810154610100900460ff16155b1561115757601b80546001810182556000919091527f3ad8aa4f87544323a9d1e5dd902f40c356527a7955687113db5f9a85ad579dc10180546001600160a01b031916331790555b60016023600082825461116a9190617a7a565b909155505060008581526022602052604090819020600781015460089091015491513392879289927f0867b5027231dcbf37614eaad07d667b9febaf9fdf483f488229b1f140bb0748926111c2928992909190617938565b60405180910390a45050505050565b60095481565b6111df615201565b6001600160a01b03166111f061308c565b6001600160a01b0316146112165760405162461bcd60e51b8152600401610ec19061727d565b602b80546001600160a01b0319166001600160a01b0392909216919091179055565b60176020526000908152604090208054819061125390617b0c565b80601f016020809104026020016040519081016040528092919081815260200182805461127f90617b0c565b80156112cc5780601f106112a1576101008083540402835291602001916112cc565b820191906000526020600020905b8154815290600101906020018083116112af57829003601f168201915b50505060018401546002850154600386015460048701805496976001600160a01b03909416969295509093509061130290617b0c565b80601f016020809104026020016040519081016040528092919081815260200182805461132e90617b0c565b801561137b5780601f106113505761010080835404028352916020019161137b565b820191906000526020600020905b81548152906001019060200180831161135e57829003601f168201915b50505050509080600501805461139090617b0c565b80601f01602080910402602001604051908101604052809291908181526020018280546113bc90617b0c565b80156114095780601f106113de57610100808354040283529160200191611409565b820191906000526020600020905b8154815290600101906020018083116113ec57829003601f168201915b5050506006909301549192505060ff1687565b60155481565b600a5481565b60215490565b606061143982614d35565b6114555760405162461bcd60e51b8152600401610ec1906173f2565b600082815260226020908152604080832081516101c0810183528154815260018201549381019390935260028101549183019190915260038101546060830152600481015460ff808216151560808501526101008083048216151560a08601526201000090920416151560c0840152600582015460e0840152600682015490830152600781015461012083015260088101546101408301526009810180546101608401919061150390617b0c565b80601f016020809104026020016040519081016040528092919081815260200182805461152f90617b0c565b801561157c5780601f106115515761010080835404028352916020019161157c565b820191906000526020600020905b81548152906001019060200180831161155f57829003601f168201915b5050509183525050600a8201546020820152600b82015460409091019060ff1660038111156115bb57634e487b7160e01b600052602160045260246000fd5b60038111156115da57634e487b7160e01b600052602160045260246000fd5b9052506020810151600154919250906000906001600160401b0381111561161157634e487b7160e01b600052604160045260246000fd5b60405190808252806020026020018201604052801561164457816020015b606081526020019060019003908161162f5790505b50905060005b82811015611744578351600090611662908390617a7a565b60008181526017602052604081206004018054929350909161168390617b0c565b80601f01602080910402602001604051908101604052809291908181526020018280546116af90617b0c565b80156116fc5780601f106116d1576101008083540402835291602001916116fc565b820191906000526020600020905b8154815290600101906020018083116116df57829003601f168201915b505050505090508084848151811061172457634e487b7160e01b600052603260045260246000fd5b60200260200101819052505050808061173c90617b47565b91505061164a565b50925050505b919050565b600061175a82614d35565b6117765760405162461bcd60e51b8152600401610ec190617678565b6000828152602260205260409020600601546117919061417d565b92915050565b61179f614ea5565b336000908152601660205260409020600781015460ff1615156001146117d75760405162461bcd60e51b8152600401610ec190617231565b6002810154158015906117f457506007810154610100900460ff16155b1561180f5760078101805461ff0019166101001790556118b2565b6002810154156118315760405162461bcd60e51b8152600401610ec190617177565b4261183b33615205565b61184433615039565b8154336001600160a01b03199182168117845560018401805490921681179091556005830182905560078301805460ff191690556040517f9dadcedba048e92b943ea1c5861cee1df63a566d7f795869c004780c1c698e2b906118a890849061696e565b60405180910390a2505b6001602360008282546118c59190617a7a565b909155505050565b602a546001600160a01b031681565b600d60209081526000928352604080842090915290825290205460ff1681565b60106020908152600092835260408084209091529082529020805461192090617b0c565b80601f016020809104026020016040519081016040528092919081815260200182805461194c90617b0c565b80156119995780601f1061196e57610100808354040283529160200191611999565b820191906000526020600020905b81548152906001019060200180831161197c57829003601f168201915b505050505081565b60145481565b601b81815481106119b757600080fd5b6000918252602090912001546001600160a01b0316905081565b6119d9614ea5565b6020805460009081526022909152604081206004015462010000900460ff1615156001148015611a2d5750611a0f60205461174f565b80611a2d575060208054600090815260229091526040902060030154155b15611a5257611a3d602054615335565b602054611a4b906001615f5a565b6020555060015b60215460009081526022602052604090206004015462010000900460ff161515600114801590611a835750601b5415155b8015611aa3575060215460009081526022602052604090206004015460ff165b8015611abd5750600754600854611aba9042617ac5565b10155b15611ace57611aca612868565b5060015b8015611ae657601454611ae2906001615f5a565b6014555b6014546040517f94d48a7342690f1233e3f4db70efa37c4f1f25f4d0397c353f3f15aecdeca5f490600090a250565b60405160009080602081848060185afa611b2b57fe5b5051919050565b6001600160a01b03811660009081526012602052604080822090516301c39b2b60e11b815273__$85afbab79b2b776d70bef879a32ed56424$__91630387365691611b8291908590600401616993565b60206040518083038186803b158015611b9a57600080fd5b505af4158015611bae573d6000803e3d6000fd5b505050506040513d601f19601f820116820180604052508101906117919190616789565b6000611bdd82614d35565b611bf95760405162461bcd60e51b8152600401610ec1906173f2565b600082815260226020526040902060060154611c149061417d565b1580156117915750611c258261344d565b1592915050565b611c34615201565b6001600160a01b0316611c4561308c565b6001600160a01b031614611c6b5760405162461bcd60e51b8152600401610ec19061727d565b6001811015611c7957600080fd5b600355565b611c86615201565b6001600160a01b0316611c9761308c565b6001600160a01b031614611cbd5760405162461bcd60e51b8152600401610ec19061727d565b600755565b60205490565b60265481565b600081815260226020908152604080832081516101c0810183528154815260018201549381019390935260028101549183019190915260038101546060830152600481015460ff808216151560808501526101008083048216151560a08601526201000090920416151560c0840152600582015460e08401526006820154908301526007810154610120830152600881015461014083015260098101805484939291610160840191611d7f90617b0c565b80601f0160208091040260200160405190810160405280929190818152602001828054611dab90617b0c565b8015611df85780601f10611dcd57610100808354040283529160200191611df8565b820191906000526020600020905b815481529060010190602001808311611ddb57829003601f168201915b5050509183525050600a8201546020820152600b82015460409091019060ff166003811115611e3757634e487b7160e01b600052602160045260246000fd5b6003811115611e5657634e487b7160e01b600052602160045260246000fd5b905250610140810151610120820151919250611e7191617a7a565b600c54611e7e9190617aa6565b610120820151611e8f906064617aa6565b119392505050565b611e9f615201565b6001600160a01b0316611eb061308c565b6001600160a01b031614611ed65760405162461bcd60e51b8152600401610ec19061727d565b601e80546001600160a01b0319166001600160a01b0392909216919091179055565b611f00615201565b6001600160a01b0316611f1161308c565b6001600160a01b031614611f375760405162461bcd60e51b8152600401610ec19061727d565b600081815260176020526040812090611f508282616236565b6001820180546001600160a01b031916905560006002830181905560038301819055611f80906004840190616236565b611f8e600583016000616236565b50600601805460ff1916905550565b601f5490565b602b546001600160a01b031681565b611fba614ea5565b611fc38461344d565b611fdf5760405162461bcd60e51b8152600401610ec190616d9c565b336000908152600d6020908152604080832087845290915290205460ff161561201a5760405162461bcd60e51b8152600401610ec1906174e6565b6120248433613ffe565b6120405760405162461bcd60e51b8152600401610ec190616f47565b60045433600090815260196020526040902054811115612082573360009081526019602052604081205461207590839061502d565b905061208081613346565b505b336000908152601960205260409020548111156120b15760405162461bcd60e51b8152600401610ec190617571565b6000336000908152601260205260408082209051631e0f232560e31b815273__$85afbab79b2b776d70bef879a32ed56424$__9163f0791928916120fa91908690600401616993565b60206040518083038186803b15801561211257600080fd5b505af4158015612126573d6000803e3d6000fd5b505050506040513d601f19601f8201168201806040525081019061214a9190616789565b9050868114156121ef5733600090815260126020526040908190209051631e0f232560e31b815273__$85afbab79b2b776d70bef879a32ed56424$__9163f07919289161219c91908b90600401616993565b60206040518083038186803b1580156121b457600080fd5b505af41580156121c8573d6000803e3d6000fd5b505050506040513d601f19601f820116820180604052508101906121ec9190616789565b90505b6121fb82823386612f26565b6122175760405162461bcd60e51b8152600401610ec190617149565b3360009081526012602052604090819020905163524cfe5360e11b815273__$85afbab79b2b776d70bef879a32ed56424$__9163a499fca691612263919086908c90879060040161784c565b60006040518083038186803b15801561227b57600080fd5b505af415801561228f573d6000803e3d6000fd5b50505050600061229f338961330d565b60405163099b040f60e31b815290915073__$0947e710b66d7779e1d561254425e1375a$__90634cd82078906122de906013908590899060040161782e565b60006040518083038186803b1580156122f657600080fd5b505af415801561230a573d6000803e3d6000fd5b505060405163099b040f60e31b815273__$0947e710b66d7779e1d561254425e1375a$__9250634cd82078915061234a9060139085908c906004016177e2565b60006040518083038186803b15801561236257600080fd5b505af4158015612376573d6000803e3d6000fd5b5050506000898152601060209081526040808320338452825290912088516123a393509091890190616272565b5060008881526011602090815260408083203384528252808320889055601682528083208b84526022909252909120600201546123e190600161502d565b60008a815260226020908152604080832060020193909355426005850155338252600d81528282208c83529052908120805460ff191660019081179091556023805491929091612432908490617a7a565b909155505060405133908a907f42864d9683ff5b12c3b2cc65d705af5aab104b03bc700b802f79e5c971ef08a19061246b90899061696e565b60405180910390a3505050505050505050565b6001600160a01b0381166000908152601860209081526040918290208054835181840281018401909452808452606093928301828280156124de57602002820191906000526020600020905b8154815260200190600101908083116124ca575b50505050509050919050565b6124f2615201565b6001600160a01b031661250361308c565b6001600160a01b0316146125295760405162461bcd60e51b8152600401610ec19061727d565b600655565b6125366162f6565b60008281526017602052604090819020815160e0810190925280548290829061255e90617b0c565b80601f016020809104026020016040519081016040528092919081815260200182805461258a90617b0c565b80156125d75780601f106125ac576101008083540402835291602001916125d7565b820191906000526020600020905b8154815290600101906020018083116125ba57829003601f168201915b505050918352505060018201546001600160a01b03166020820152600282015460408201526003820154606082015260048201805460809092019161261b90617b0c565b80601f016020809104026020016040519081016040528092919081815260200182805461264790617b0c565b80156126945780601f1061266957610100808354040283529160200191612694565b820191906000526020600020905b81548152906001019060200180831161267757829003601f168201915b505050505081526020016005820180546126ad90617b0c565b80601f01602080910402602001604051908101604052809291908181526020018280546126d990617b0c565b80156127265780601f106126fb57610100808354040283529160200191612726565b820191906000526020600020905b81548152906001019060200180831161270957829003601f168201915b5050509183525050600682015460209091019060ff16600381111561275b57634e487b7160e01b600052602160045260246000fd5b600381111561277a57634e487b7160e01b600052602160045260246000fd5b90525092915050565b601160209081526000928352604080842090915290825290205481565b60065481565b6127ae615201565b6001600160a01b03166127bf61308c565b6001600160a01b0316146127e55760405162461bcd60e51b8152600401610ec19061727d565b6127ee81614d35565b1561286557600081815260226020526040812081815560018101829055600281018290556003810182905560048101805462ffffff1916905560058101829055600681018290556007810182905560088101829055906128516009830182616236565b506000600a820155600b01805460ff191690555b50565b60215460009081526022602052604090206004015460ff1661289c5760405162461bcd60e51b8152600401610ec19061730f565b60215460009081526022602052604090206004015462010000900460ff16156128d75760405162461bcd60e51b8152600401610ec1906171d4565b60006128f56128ed601b80549050600254615f66565b600354615f7c565b601b54600754600854929350909161290d9042617ac5565b10612c84576021805460009081526022602052604080822060030185905591548152908120600201839055600554612946904290615f5a565b9050600061295f60065483615f5a90919063ffffffff16565b60218054600090815260226020526040808220600501869055825482528082206006018490559154815220600401805462ff00001916620100001790559050600184108015906129b0575060018310155b6129cc5760405162461bcd60e51b8152600401610ec190616efd565b60006129d885856139ee565b9050600081516001600160401b03811115612a0357634e487b7160e01b600052604160045260246000fd5b604051908082528060200260200182016040528015612a2c578160200160208202803683370190505b50905060005b8251811015612aeb57601b838281518110612a5d57634e487b7160e01b600052603260045260246000fd5b602002602001015181548110612a8357634e487b7160e01b600052603260045260246000fd5b9060005260206000200160009054906101000a90046001600160a01b0316828281518110612ac157634e487b7160e01b600052603260045260246000fd5b6001600160a01b039092166020928302919091019091015280612ae381617b47565b915050612a32565b5060005b8251811015612c4e576000828281518110612b1a57634e487b7160e01b600052603260045260246000fd5b60200260200101519050600060166000836001600160a01b03166001600160a01b031681526020019081526020016000209050612b5682615205565b612b5f82615f8c565b612baf57601c80546001810182556000919091527f0e4562a10381dec21b205ed72637e6b1b523bdd0e4d4d50af5cd23dd4500a2110180546001600160a01b0319166001600160a01b0384161790555b602180546000908152601d602090815260408083208054600181018255908452919092200180546001600160a01b0319166001600160a01b0386161790558154600284015560038301805460ff19169055905490517fe4ee2dfabe57cee15e3f558890b20455f54c1fa0718e5276faad70a6500e6b8c90612c319085906169a1565b60405180910390a250508080612c4690617b47565b915050612aef565b5042600855602154612c61906001615f5a565b602181905550600160236000828254612c7a9190617a7a565b9091555050505050505b5050565b600061179182610c9584611b32565b6001600160a01b031660009081526019602052604090205490565b612cba615201565b6001600160a01b0316612ccb61308c565b6001600160a01b031614612cf15760405162461bcd60e51b8152600401610ec19061727d565b612cfb6000615ffc565b565b6000612d0882614d35565b612d245760405162461bcd60e51b8152600401610ec1906173f2565b5060009081526022602052604090206006015490565b60035481565b60015481565b600b5481565b602c546001600160a01b031681565b612d63615201565b6001600160a01b0316612d7461308c565b6001600160a01b031614612d9a5760405162461bcd60e51b8152600401610ec19061727d565b602d80546001600160a01b0319166001600160a01b0392909216919091179055565b601c54601b54600091612dce91617a7a565b905090565b6000612dde82614d35565b612dfa5760405162461bcd60e51b8152600401610ec1906173f2565b506001600160a01b03919091166000908152600d60209081526040808320938352929052205460ff1690565b602260205260009081526040902080546001820154600283015460038401546004850154600586015460068701546007880154600889015460098a018054999a98999798969760ff80881698610100890482169862010000900490911696959493929091612e9390617b0c565b80601f0160208091040260200160405190810160405280929190818152602001828054612ebf90617b0c565b8015612f0c5780601f10612ee157610100808354040283529160200191612f0c565b820191906000526020600020905b815481529060010190602001808311612eef57829003601f168201915b50505050600a830154600b9093015491929160ff1690508e565b600080612f338487613f62565b83101590506000612f448587613f62565b84111580612f50575085155b9050818015612f5c5750805b979650505050505050565b601c81815481106119b757600080fd5b6029546001600160a01b031681565b601f5481565b60166020526000908152604090208054600182015460028301546003840154600485015460058601546006870180546001600160a01b03978816989690971696949560ff9094169492939192612fe190617b0c565b80601f016020809104026020016040519081016040528092919081815260200182805461300d90617b0c565b801561305a5780601f1061302f5761010080835404028352916020019161305a565b820191906000526020600020905b81548152906001019060200180831161303d57829003601f168201915b505050506007830154600890930154919260ff808216936101009092041691508a565b602d546001600160a01b031681565b6000546001600160a01b031690565b601d60205281600052604060002081815481106130b757600080fd5b6000918252602090912001546001600160a01b03169150829050565b60016000828152602260205260409020600b015460ff16600381111561310957634e487b7160e01b600052602160045260246000fd5b146131265760405162461bcd60e51b8152600401610ec190616c9f565b336000908152601260205260409081902090516306120d1f60e31b815273__$85afbab79b2b776d70bef879a32ed56424$__9163309068f89161316e91908590600401616993565b60206040518083038186803b15801561318657600080fd5b505af415801561319a573d6000803e3d6000fd5b505050506040513d601f19601f820116820180604052508101906131be919061667f565b6131da5760405162461bcd60e51b8152600401610ec1906170ec565b336000908152601260205260409081902090516301039dfd60e11b815273__$85afbab79b2b776d70bef879a32ed56424$__916302073bfa9161322291908590600401616993565b60006040518083038186803b15801561323a57600080fd5b505af415801561324e573d6000803e3d6000fd5b50506040513392508391507f402507661c8c8cb90e0a796450b8bdd28b6c516f05279c0cd29e84c344e1699a90600090a350565b60245481565b60145490565b601860205281600052604060002081815481106132aa57600080fd5b90600052602060002001600091509150505481565b60005b8151811015612c84576132fb8282815181106132ee57634e487b7160e01b600052603260045260246000fd5b60200260200101516130d3565b8061330581617b47565b9150506132c2565b6000828260405160200161332292919061694c565b60405160208183030381529060405280519060200120905092915050565b60245490565b6029546040516304ada21f60e21b81526001600160a01b03909116906312b6887c906133789084903390600401617903565b602060405180830381600087803b15801561339257600080fd5b505af11580156133a6573d6000803e3d6000fd5b505050506040513d601f19601f820116820180604052508101906133ca919061667f565b6133e65760405162461bcd60e51b8152600401610ec190616ff3565b3360009081526019602052604081208054839290613405908490617a7a565b909155505060405133907ff7aaf024511d9982df8cd0d437c71c30106e6848cd1ba3d288d7a9c0e276aeda9061343c90849061696e565b60405180910390a250565b60255481565b600061345882614d35565b6134745760405162461bcd60e51b8152600401610ec1906173f2565b60008281526022602052604090206005015461348f9061417d565b158015611791575050600090815260226020526040902060020154151590565b60155490565b6000816040516020016134c89190616977565b60405160208183030381529060405280519060200120836040516020016134ef9190616977565b60405160208183030381529060405280519060200120141561351357506001611791565b506000611791565b600061352682614d35565b6135425760405162461bcd60e51b8152600401610ec1906173f2565b506001600160a01b03919091166000908152600e60209081526040808320938352929052205460ff1690565b6000804241604051602001613583919061692f565b6040516020818303038152906040528051906020012060001c6135a69190617a92565b446135af611b15565b6040516020016135bf919061696e565b60408051601f1981840301815291905280516020909101206135e19042617a7a565b6135eb9190617a7a565b6135f59190617a7a565b604051602001613605919061696e565b60408051601f19818403018152919052805160209091012091505090565b601e546001600160a01b031681565b6001600160a01b038082166000908152601660209081526040808320815161014081018352815486168152600182015490951692850192909252600282015490840152600381015460ff161515606084015260048101546080840152600581015460a0840152600681018054929384938493919260c08401916136b490617b0c565b80601f01602080910402602001604051908101604052809291908181526020018280546136e090617b0c565b801561372d5780601f106137025761010080835404028352916020019161372d565b820191906000526020600020905b81548152906001019060200180831161371057829003601f168201915b5050509183525050600782015460ff80821615156020840152610100909104161515604082015260089091015460609182015281015190915015801561377d575061377b816040015161174f565b155b1561378757600191505b5092915050565b60008282604051602001613322929190616993565b6060600082116137b257600080fd5b6000416040516020016137c5919061692f565b6040516020818303038152906040528051906020012060001c6137e6611b15565b6040516020016137f6919061696e565b60408051601f1981840301815291905280516020909101206138189042617a7a565b6138229190617a7a565b604051602001613832919061696e565b6040516020818303038152906040528051906020012060001c90506000846001600160401b0381111561387557634e487b7160e01b600052604160045260246000fd5b60405190808252806020026020018201604052801561389e578160200160208202803683370190505b5090506000805b8682101561399f576000866138be63017efeeb87617ac5565b836040516020016138d0929190616993565b6040516020818303038152906040528051906020012060001c6138f39190617b62565b90506000805b8481101561394b578286828151811061392257634e487b7160e01b600052603260045260246000fd5b60200260200101511415613939576001915061394b565b8061394381617b47565b9150506138f9565b508061398b578185858151811061397257634e487b7160e01b600052603260045260246000fd5b6020908102919091010152613988846001617a7a565b93505b613996836001617a7a565b925050506138a5565b509095945050505050565b6139b2615201565b6001600160a01b03166139c361308c565b6001600160a01b0316146139e95760405162461bcd60e51b8152600401610ec19061727d565b600155565b6060600082118015613a005750818311155b8015613a0d575060018310155b613a295760405162461bcd60e51b8152600401610ec190616eb4565b6000826001600160401b03811115613a5157634e487b7160e01b600052604160045260246000fd5b604051908082528060200260200182016040528015613a7a578160200160208202803683370190505b5090506000846001600160401b03811115613aa557634e487b7160e01b600052604160045260246000fd5b604051908082528060200260200182016040528015613ace578160200160208202803683370190505b5090506000613ae4613adf8461604c565b6160a2565b905060005b8681101561399f57818181518110613b1157634e487b7160e01b600052603260045260246000fd5b6020026020010151838281518110613b3957634e487b7160e01b600052603260045260246000fd5b602090810291909101015280613b4e81617b47565b915050613ae9565b6000613b60614ea5565b60045433600090815260196020526040902054811115613ba25733600090815260196020526040812054613b9590839061502d565b9050613ba081613346565b505b60005b8751811015613e73576000888281518110613bd057634e487b7160e01b600052603260045260246000fd5b602002602001015190506000888884818110613bfc57634e487b7160e01b600052603260045260246000fd5b9050602002810190613c0e91906179de565b8080601f016020809104026020016040519081016040528093929190818152602001838380828437600092018290525033808252601860209081526040808420601554815460018101835591865283862090910155805160e0810182528a8152918201929092524291810191909152606081018d90526080810186905260a081018c905294955060c0850193509150613ca49050565b90526015546000908152601760209081526040909120825180519192613ccf92849290910190616272565b506020828101516001830180546001600160a01b0319166001600160a01b03909216919091179055604083015160028301556060830151600383015560808301518051613d229260048501920190616272565b5060a08201518051613d3e916005840191602090910190616272565b5060c082015160068201805460ff19166001836003811115613d7057634e487b7160e01b600052602160045260246000fd5b021790555050601f54600090815260226020526040902060018054908201549192501115613db3576001816001016000828254613dad9190617a7a565b90915550505b600154816001015410613e0557600481018054600160ff19909116811761ff001916909155601f8054600090613dea908490617a7a565b9091555050601554601f546000908152602260205260409020555b613e0d6119d1565b601554613e1b906001617a7a565b60158190556040513391907fb819ca9ac369919119f75ec7363dd954f75bcfa75f9245647e03da413be0d58290613e559087908790616b90565b60405180910390a35050508080613e6b90617b47565b915050613ba5565b50600160236000828254613e879190617a7a565b9091555050601554979650505050505050565b613ea2615201565b6001600160a01b0316613eb361308c565b6001600160a01b031614613ed95760405162461bcd60e51b8152600401610ec19061727d565b602c80546001600160a01b0319166001600160a01b0392909216919091179055565b6000613f0682614d35565b613f225760405162461bcd60e51b8152600401610ec1906173f2565b5060009081526022602052604090206005015490565b600c5481565b60196020526000908152604090205481565b60025481565b60045481565b60085481565b600073__$0947e710b66d7779e1d561254425e1375a$__63698101586013613f8a868661330d565b6040518363ffffffff1660e01b8152600401613fa7929190617810565b60206040518083038186803b158015613fbf57600080fd5b505af4158015613fd3573d6000803e3d6000fd5b505050506040513d601f19601f82011682018060405250810190613ff79190616789565b9392505050565b6000828152601d6020908152604080832080548251818502810185019093528083528493849392919083018282801561406057602002820191906000526020600020905b81546001600160a01b03168152600190910190602001808311614042575b5050505050905060005b81518110156140cf57846001600160a01b031682828151811061409d57634e487b7160e01b600052603260045260246000fd5b60200260200101516001600160a01b031614156140bd57600192506140cf565b806140c781617b47565b91505061406a565b5090949350505050565b600e60209081526000928352604080842090915290825290205460ff1681565b60215481565b601a60205281600052604060002081815481106130b757600080fd5b600f60209081526000928352604080842090915290825290205481565b600073__$0947e710b66d7779e1d561254425e1375a$__63698101586013614160868661330d565b6040518363ffffffff1660e01b8152600401613fa79291906177c4565b421190565b61418a61635a565b61419382614d35565b61419c57600080fd5b60008281526022602090815260409182902082516101c0810184528154815260018201549281019290925260028101549282019290925260038201546060820152600482015460ff808216151560808401526101008083048216151560a08501526201000090920416151560c0830152600583015460e0830152600683015490820152600782015461012082015260088201546101408201526009820180549192916101608401919061424e90617b0c565b80601f016020809104026020016040519081016040528092919081815260200182805461427a90617b0c565b80156142c75780601f1061429c576101008083540402835291602001916142c7565b820191906000526020600020905b8154815290600101906020018083116142aa57829003601f168201915b5050509183525050600a8201546020820152600b82015460409091019060ff16600381111561275b57634e487b7160e01b600052602160045260246000fd5b61430e615201565b6001600160a01b031661431f61308c565b6001600160a01b0316146143455760405162461bcd60e51b8152600401610ec19061727d565b600255565b614352615201565b6001600160a01b031661436361308c565b6001600160a01b0316146143895760405162461bcd60e51b8152600401610ec19061727d565b602a80546001600160a01b0319166001600160a01b0392909216919091179055565b6143b3615201565b6001600160a01b03166143c461308c565b6001600160a01b0316146143ea5760405162461bcd60e51b8152600401610ec19061727d565b602980546001600160a01b0319166001600160a01b0392909216919091179055565b3360009081526019602052604090205490565b60606000821161442e57600080fd5b6000826001600160401b0381111561445657634e487b7160e01b600052604160045260246000fd5b60405190808252806020026020018201604052801561447f578160200160208202803683370190505b5090506000614490613adf8361604c565b949350505050565b60606144a382614d35565b6144ac57600080fd5b600082815260226020526040902060090180546144c890617b0c565b80601f01602080910402602001604051908101604052809291908181526020018280546144f490617b0c565b80156124de5780601f10614516576101008083540402835291602001916124de565b820191906000526020600020905b8154815290600101906020018083116145245750939695505050505050565b60055481565b6001600160a01b031660009081526016602052604090206007015460ff1690565b600061458e61457833612c88565b336000908152601960205260409020549061502d565b9050818110156145b05760405162461bcd60e51b8152600401610ec1906173ab565b602954604051630895993360e11b81526001600160a01b039091169063112b3266906145e29085903390600401617903565b602060405180830381600087803b1580156145fc57600080fd5b505af1158015614610573d6000803e3d6000fd5b505050506040513d601f19601f82011682018060405250810190614634919061667f565b6146505760405162461bcd60e51b8152600401610ec19061761b565b336000908152601960205260408120805484929061466f908490617ac5565b909155505060405133907ffaeb7dbb9992397d26ea1944efd40c80b40f702faf69b46c67ad10aba68ccb79906146a690859061696e565b60405180910390a25050565b6146ba615201565b6001600160a01b03166146cb61308c565b6001600160a01b0316146146f15760405162461bcd60e51b8152600401610ec19061727d565b600555565b60275481565b606061470782614d35565b6147235760405162461bcd60e51b8152600401610ec1906173f2565b600082815260226020908152604080832081516101c0810183528154815260018201549381019390935260028101549183019190915260038101546060830152600481015460ff808216151560808501526101008083048216151560a08601526201000090920416151560c0840152600582015460e084015260068201549083015260078101546101208301526008810154610140830152600981018054610160840191906147d190617b0c565b80601f01602080910402602001604051908101604052809291908181526020018280546147fd90617b0c565b801561484a5780601f1061481f5761010080835404028352916020019161484a565b820191906000526020600020905b81548152906001019060200180831161482d57829003601f168201915b5050509183525050600a8201546020820152600b82015460409091019060ff16600381111561488957634e487b7160e01b600052602160045260246000fd5b60038111156148a857634e487b7160e01b600052602160045260246000fd5b9052506020810151600154919250906000906001600160401b038111156148df57634e487b7160e01b600052604160045260246000fd5b60405190808252806020026020018201604052801561491257816020015b60608152602001906001900390816148fd5790505b50905060005b82811015611744578351600090614930908390617a7a565b60008181526017602052604081208054929350909161494e90617b0c565b80601f016020809104026020016040519081016040528092919081815260200182805461497a90617b0c565b80156149c75780601f1061499c576101008083540402835291602001916149c7565b820191906000526020600020905b8154815290600101906020018083116149aa57829003601f168201915b50505050509050808484815181106149ef57634e487b7160e01b600052603260045260246000fd5b602002602001018190525050508080614a0790617b47565b915050614918565b60205481565b60235481565b614a23615201565b6001600160a01b0316614a3461308c565b6001600160a01b031614614a5a5760405162461bcd60e51b8152600401610ec19061727d565b6001600160a01b038116614a805760405162461bcd60e51b8152600401610ec190616e6e565b61286581615ffc565b6001600160a01b038116600090815260186020908152604080832080548251818502810185019093528083528493830182828015614ae657602002820191906000526020600020905b815481526020019060010190808311614ad2575b505050505090508060018251614afc9190617ac5565b81518110614b1a57634e487b7160e01b600052603260045260246000fd5b6020026020010151915050919050565b6000838383604051602001614b4193929190616ae6565b6040516020818303038152906040528051906020012090509392505050565b60235490565b614b6e614ea5565b336000908152601660205260409020601c54601b546103e891614b9091617a7a565b10614bad5760405162461bcd60e51b8152600401610ec19061752f565b600781015460ff1615614bd25760405162461bcd60e51b8152600401610ec190616c68565b60045433600090815260196020526040902054429190811115614c175733600090815260196020526040812054614c0a90839061502d565b9050614c1581613346565b505b33600090815260196020526040902054811115614c465760405162461bcd60e51b8152600401610ec190616cf0565b614c4f33615191565b614c9657601b80546001810182556000919091527f3ad8aa4f87544323a9d1e5dd902f40c356527a7955687113db5f9a85ad579dc10180546001600160a01b031916331790555b8254336001600160a01b03199182168117855560018501805490921617905560058301829055600783015460ff16614cde5760078301805460ff191660011790554260088401555b600160236000828254614cf19190617a7a565b909155505060405133907f439d77b7534ec3108fc6143bd4fbabde0b9f2bb54f7b0730d1f70dd2135b765f90614d2890859061696e565b60405180910390a2505050565b601f54101590565b3360009081526016602052604090206007015460ff1690565b60255490565b6028546001600160a01b031681565b6001600160a01b038082166000908152601660209081526040808320815161014081018352815486168152600182015490951692850192909252600282015490840152600381015460ff161515606084015260048101546080840152600581015460a08401526006810180549293849390929160c0840191614dec90617b0c565b80601f0160208091040260200160405190810160405280929190818152602001828054614e1890617b0c565b8015614e655780601f10614e3a57610100808354040283529160200191614e65565b820191906000526020600020905b815481529060010190602001808311614e4857829003601f168201915b5050509183525050600782015460ff8082161515602084015261010090910416151560408083019190915260089092015460609091015201519392505050565b601e546001600160a01b0316614ecd5760405162461bcd60e51b8152600401610ec190617429565b601e546040516000916001600160a01b031690614eee9033906024016169a1565b60408051601f198184030181529181526020820180516001600160e01b0316631f5ac9c560e11b17905251614f239190616977565b6000604051808303816000865af19150503d8060008114614f60576040519150601f19603f3d011682016040523d82523d6000602084013e614f65565b606091505b5050601e546040519192506000916001600160a01b0390911690614f8d9033906024016169a1565b60408051601f198184030181529181526020820180516001600160e01b03166358563d2160e01b17905251614fc29190616977565b6000604051808303816000865af19150503d8060008114614fff576040519150601f19603f3d011682016040523d82523d6000602084013e615004565b606091505b5050905081806150115750805b612c845760405162461bcd60e51b8152600401610ec190616d57565b6000613ff78284617ac5565b60008060005b601c548110156150ad57836001600160a01b0316601c828154811061507457634e487b7160e01b600052603260045260246000fd5b6000918252602090912001546001600160a01b0316141561509b57600191508092506150ad565b806150a581617b47565b91505061503f565b50801561518c57601c80546150c490600190617ac5565b815481106150e257634e487b7160e01b600052603260045260246000fd5b600091825260209091200154601c80546001600160a01b03909216918490811061511c57634e487b7160e01b600052603260045260246000fd5b9060005260206000200160006101000a8154816001600160a01b0302191690836001600160a01b03160217905550601c80548061516957634e487b7160e01b600052603160045260246000fd5b600082815260209020810160001990810180546001600160a01b03191690550190555b505050565b600080805b601b5481101561378757836001600160a01b0316601b82815481106151cb57634e487b7160e01b600052603260045260246000fd5b6000918252602090912001546001600160a01b031614156151ef5760019150613787565b806151f981617b47565b915050615196565b3390565b60008060005b601b5481101561527957836001600160a01b0316601b828154811061524057634e487b7160e01b600052603260045260246000fd5b6000918252602090912001546001600160a01b031614156152675760019150809250615279565b8061527181617b47565b91505061520b565b50801561518c57601b805461529090600190617ac5565b815481106152ae57634e487b7160e01b600052603260045260246000fd5b600091825260209091200154601b80546001600160a01b0390921691849081106152e857634e487b7160e01b600052603260045260246000fd5b9060005260206000200160006101000a8154816001600160a01b0302191690836001600160a01b03160217905550601b80548061516957634e487b7160e01b600052603160045260246000fd5b61533e8161174f565b806153585750600081815260226020526040902060030154155b6153745760405162461bcd60e51b8152600401610ec1906172b2565b600081815260226020526040902060040154610100900460ff16156153ab5760405162461bcd60e51b8152600401610ec1906174a5565b60006153b682611cce565b6000838152601d602090815260408083208054825181850281018501909352808352949550929390929183018282801561541957602002820191906000526020600020905b81546001600160a01b031681526001909101906020018083116153fb575b50505050509050600081516001600160401b0381111561544957634e487b7160e01b600052604160045260246000fd5b60405190808252806020026020018201604052801561547c57816020015b60608152602001906001900390816154675790505b509050600082516001600160401b038111156154a857634e487b7160e01b600052604160045260246000fd5b6040519080825280602002602001820160405280156154d1578160200160208202803683370190505b50905060005b835181101561590257600084828151811061550257634e487b7160e01b600052603260045260246000fd5b6020908102919091018101516000898152600f835260408082206001600160a01b03841680845290855281832054600e86528284208d85528652828420546010875283852092855291909552908220805493955060ff9091169261556590617b0c565b80601f016020809104026020016040519081016040528092919081815260200182805461559190617b0c565b80156155de5780601f106155b3576101008083540402835291602001916155de565b820191906000526020600020905b8154815290600101906020018083116155c157829003601f168201915b505050505090508087868151811061560657634e487b7160e01b600052603260045260246000fd5b60209081029190910181019190915260008b81526011825260408082206001600160a01b038816835290925220548651819088908890811061565857634e487b7160e01b600052603260045260246000fd5b60200260200101818152505061566d85615039565b6001600160a01b038516600090815260166020526040902083156158a3576001600160a01b0386166000908152601660205260409020600301805460ff191660019081179091558b15151480156156c45750846001145b806156d957508a1580156156d9575084600114155b1561582057602a54600b54604051630db6cc8560e11b81526001600160a01b0390921691631b6d990a91615711918a9060040161791a565b602060405180830381600087803b15801561572b57600080fd5b505af115801561573f573d6000803e3d6000fd5b505050506040513d601f19601f82011682018060405250810190615763919061667f565b61577f5760405162461bcd60e51b8152600401610ec19061709f565b602b54600954604051633832942560e21b81526001600160a01b039092169163e0ca5094916157b2918a90600401617903565b602060405180830381600087803b1580156157cc57600080fd5b505af11580156157e0573d6000803e3d6000fd5b505050506040513d601f19601f82011682018060405250810190615804919061667f565b6158205760405162461bcd60e51b8152600401610ec190616fa4565b600781015460ff161561589e5761583686615191565b15801561584d57506007810154610100900460ff16155b1561589e57601b80546001810182556000919091527f3ad8aa4f87544323a9d1e5dd902f40c356527a7955687113db5f9a85ad579dc10180546001600160a01b0319166001600160a01b0388161790555b6158e9565b6007810154610100900460ff16806158b9575083155b156158e957600781015460ff16156158e95760078101805460ff191690556158e086615205565b6158e986615039565b50505050505080806158fa90617b47565b9150506154d7565b50600061592a6064600c5486516159199190617aa6565b6159239190617a92565b6001615f7c565b905060008360008151811061594f57634e487b7160e01b600052603260045260246000fd5b6020026020010151905060005b8451811015615a45576000805b86518110156159fa576159ca87848151811061599557634e487b7160e01b600052603260045260246000fd5b60200260200101518883815181106159bd57634e487b7160e01b600052603260045260246000fd5b60200260200101516134b5565b156159e8576159da600183617a7a565b91508482106159e8576159fa565b806159f281617b47565b915050615969565b50838110615a3257858281518110615a2257634e487b7160e01b600052603260045260246000fd5b6020026020010151925050615a45565b5080615a3d81617b47565b91505061595c565b50600083600081518110615a6957634e487b7160e01b600052603260045260246000fd5b6020026020010151905060005b8451811015615b58576000805b8651811015615b0d57868181518110615aac57634e487b7160e01b600052603260045260246000fd5b6020026020010151878481518110615ad457634e487b7160e01b600052603260045260246000fd5b60200260200101511415615afb57615aed600183617a7a565b9150858210615afb57615b0d565b80615b0581617b47565b915050615a83565b50848110615b4557858281518110615b3557634e487b7160e01b600052603260045260246000fd5b6020026020010151925050615b58565b5080615b5081617b47565b915050615a76565b50600088815260226020908152604090912060048101805461ff0019166101001790558351615b8f92600990920191850190616272565b506000888152602260205260409020600a018190558615615e5957602a54600b5460008a81526017602052604090819020600101549051630db6cc8560e11b81526001600160a01b0393841693631b6d990a93615bf393909291169060040161791a565b602060405180830381600087803b158015615c0d57600080fd5b505af1158015615c21573d6000803e3d6000fd5b505050506040513d601f19601f82011682018060405250810190615c45919061667f565b615c615760405162461bcd60e51b8152600401610ec1906175ce565b602b5460095460008a81526017602052604090819020600101549051633832942560e21b81526001600160a01b039384169363e0ca509493615caa939092911690600401617903565b602060405180830381600087803b158015615cc457600080fd5b505af1158015615cd8573d6000803e3d6000fd5b505050506040513d601f19601f82011682018060405250810190615cfc919061667f565b615d185760405162461bcd60e51b8152600401610ec190617456565b6000888152602260205260408120600b01805460ff191660019081179091556024805491929091615d4a908490617a7a565b9091555050602d546040516348257dc960e01b81526001600160a01b03909116906348257dc990615d7f908b9060040161696e565b602060405180830381600087803b158015615d9957600080fd5b505af1925050508015615dc9575060408051601f3d908101601f19168201909252615dc69181019061667f565b60015b615e3a573d808015615df7576040519150601f19603f3d011682016040523d82523d6000602084013e615dfc565b606091505b507f4b87bbd93ba65ede1e2efeca735d9f7a6720bf7d6db0a8355b17dba5b64e578381604051615e2c9190616ad3565b60405180910390a150615e54565b600160236000828254615e4d9190617a7a565b9091555050505b615e8e565b6000888152602260205260408120600b01805460ff191660021790556025805460019290615e88908490617a7a565b90915550505b600160236000828254615ea19190617a7a565b90915550506000888152602260205260408120600201546026805491929091615ecb908490617a7a565b90915550506000888152602260205260408120600301546027805491929091615ef5908490617a7a565b909155505060008881526017602052604090819020600181015491516001600160a01b03909216917f43916c3ae75995d24cc89b466ed08e6dba74d325f7957f9b37b05f150e12918e91615f4891616bbe565b60405180910390a25050505050505050565b6000613ff78284617a7a565b6000818310615f755781613ff7565b5090919050565b600081831015615f755781613ff7565b600080805b601c5481101561378757836001600160a01b0316601c8281548110615fc657634e487b7160e01b600052603260045260246000fd5b6000918252602090912001546001600160a01b03161415615fea5760019150613787565b80615ff481617b47565b915050615f91565b600080546001600160a01b038381166001600160a01b0319831681178455604051919092169283917f8be0079c531659141344cd1fd0a4f28419497f9722a3daafe3b4186f6b6457e09190a35050565b805160609060005b8181101561609a578084828151811061607d57634e487b7160e01b600052603260045260246000fd5b60209081029190910101528061609281617b47565b915050616054565b509192915050565b606060008251116160b257600080fd5b81518060005b8181101561622d576000836160cb61356e565b8784815181106160eb57634e487b7160e01b600052603260045260246000fd5b6020026020010151604051602001616104929190616993565b6040516020818303038152906040528051906020012060001c6161279190617b62565b616132906001617a7a565b9050600086616142600184617ac5565b8151811061616057634e487b7160e01b600052603260045260246000fd5b60200260200101519050866001866161789190617ac5565b8151811061619657634e487b7160e01b600052603260045260246000fd5b6020026020010151876001846161ac9190617ac5565b815181106161ca57634e487b7160e01b600052603260045260246000fd5b602090810291909101015280876161e2600188617ac5565b8151811061620057634e487b7160e01b600052603260045260246000fd5b6020908102919091010152616216600186617ac5565b94505050808061622590617b47565b9150506160b8565b50929392505050565b50805461624290617b0c565b6000825580601f106162545750612865565b601f01602090049060005260206000209081019061286591906163e8565b82805461627e90617b0c565b90600052602060002090601f0160209004810192826162a057600085556162e6565b82601f106162b957805160ff19168380011785556162e6565b828001600101855582156162e6579182015b828111156162e65782518255916020019190600101906162cb565b506162f29291506163e8565b5090565b6040518060e001604052806060815260200160006001600160a01b03168152602001600081526020016000815260200160608152602001606081526020016000600381111561635557634e487b7160e01b600052602160045260246000fd5b905290565b604051806101c00160405280600081526020016000815260200160008152602001600081526020016000151581526020016000151581526020016000151581526020016000815260200160008152602001600081526020016000815260200160608152602001600081526020016000600381111561635557634e487b7160e01b600052602160045260246000fd5b5b808211156162f257600081556001016163e9565b80356001600160a01b038116811461174a57600080fd5b60008083601f840112616425578182fd5b5081356001600160401b0381111561643b578182fd5b602083019150836020808302850101111561645557600080fd5b9250929050565b600082601f83011261646c578081fd5b81356001600160401b0381111561648557616485617ba2565b616498601f8201601f1916602001617a22565b8181528460208386010111156164ac578283fd5b816020850160208301379081016020019190915292915050565b6000602082840312156164d7578081fd5b613ff7826163fd565b600080604083850312156164f2578081fd5b6164fb836163fd565b946020939093013593505050565b600080600080600060808688031215616520578081fd5b85356001600160401b0380821115616536578283fd5b818801915088601f830112616549578283fd5b8135602061655e61655983617a4b565b617a22565b82815281810190858301875b85811015616593576165818f8684358b010161645c565b8452928401929084019060010161656a565b50909a505050890135925050808211156165ab578283fd5b6165b789838a01616414565b90965094506040880135935060608801359150808211156165d6578283fd5b506165e38882890161645c565b9150509295509295909350565b60006020808385031215616602578182fd5b82356001600160401b03811115616617578283fd5b8301601f81018513616627578283fd5b803561663561655982617a4b565b8181528381019083850185840285018601891015616651578687fd5b8694505b83851015616673578035835260019490940193918501918501616655565b50979650505050505050565b600060208284031215616690578081fd5b81518015158114613ff7578182fd5b6000806000604084860312156166b3578283fd5b83356001600160401b03808211156166c9578485fd5b818601915086601f8301126166dc578485fd5b8135818111156166ea578586fd5b8760208285010111156166fb578586fd5b6020928301989097509590910135949350505050565b60008060408385031215616723578182fd5b82356001600160401b0380821115616739578384fd5b6167458683870161645c565b9350602085013591508082111561675a578283fd5b506167678582860161645c565b9150509250929050565b600060208284031215616782578081fd5b5035919050565b600060208284031215611b2b578081fd5b600080604083850312156167ac578182fd5b823591506167bc602084016163fd565b90509250929050565b600080600080608085870312156167da578182fd5b843593506020850135925060408501356001600160401b038111156167fd578283fd5b6168098782880161645c565b949793965093946060013593505050565b6000806040838503121561682c578182fd5b50508035926020909101359150565b60008060008060808587031215616850578182fd5b8435935060208501359250616867604086016163fd565b9396929550929360600135925050565b60008060006060848603121561688b578081fd5b505081359360208301359350604090920135919050565b15159052565b600081518084526168c0816020860160208601617adc565b601f01601f19169290920160200192915050565b600481106168f257634e487b7160e01b600052602160045260246000fd5b9052565b600a8152690c6dedadad2e890c2e6d60b31b602082015260400190565b60098152686e756d546f6b656e7360b81b602082015260400190565b60609190911b6bffffffffffffffffffffffff1916815260140190565b60609290921b6bffffffffffffffffffffffff19168252601482015260340190565b90815260200190565b60008251616989818460208701617adc565b9190910192915050565b918252602082015260400190565b6001600160a01b0391909116815260200190565b6001600160a01b038b811682528a1660208201526040810189905287151560608201526080810187905260a0810186905261014060c082018190526000906169ff838201886168a8565b95151560e0840152505091151561010083015261012090910152979650505050505050565b6000602080830181845280855180835260408601915060408482028701019250838701855b82811015616a7757603f19888603018452616a658583516168a8565b94509285019290850190600101616a49565b5092979650505050505050565b6020808252825182820181905260009190848201906040850190845b81811015616abc57835183529284019291840191600101616aa0565b50909695505050505050565b901515815260200190565b600060208252613ff760208301846168a8565b6000604082528360408301528385606084013780606085840101526060601f19601f8601168301019050826020830152949350505050565b600060e08252616b3160e083018a6168a8565b6001600160a01b038916602084015260408301889052606083018790528281036080840152616b6081876168a8565b905082810360a0840152616b7481866168a8565b915050616b8460c08301846168d4565b98975050505050505050565b600060408252616ba360408301856168a8565b8281036020840152616bb581856168a8565b95945050505050565b6000602080835281845483600282049050600180831680616be057607f831692505b858310811415616bfe57634e487b7160e01b87526022600452602487fd5b616c0a83878a0161696e565b818015616c1e5760018114616c2f57616c59565b60ff19861682528782019650616c59565b616c388b617a6e565b895b86811015616c5357815484820152908501908901616c3a565b83019750505b50949998505050505050505050565b6020808252601c908201527f576f726b657220697320616c7265616479207265676973746572656400000000604082015260600190565b60208082526031908201527f676976656e204461746142617463682073686f756c6420626520415050524f5660408201527011510b08185b99081a5d081a5cc81b9bdd607a1b606082015260800190565b60208082526041908201527f576f726b657220686173206e6f7420656e6f75676820285f6e756d546f6b656e60408201527f732920696e206869732053706f745374616b6564546f6b656e42616c616e63656060820152600160fd1b608082015260a00190565b60208082526025908201527f72656365697665722072656a6563746564205f7265747269657665534675656c6040820152640818d85b1b60da1b606082015260800190565b6020808252602f908201527f636f6d6d697420706572696f64206e6565647320746f206265206f70656e206660408201526e1bdc881d1a1a5cc818985d18da1259608a1b606082015260800190565b6020808252605c908201527f4e6f74207468652073616d6520766f7465207468616e2077686174207761732060408201527f636f6d6d697465642c20696d706f737369626c6520746f206d6174636820776960608201527f746820676976656e205f73616c742026205f766f74654f7074696f6e00000000608082015260a00190565b60208082526026908201527f4f776e61626c653a206e6577206f776e657220697320746865207a65726f206160408201526564647265737360d01b606082015260800190565b60208082526029908201527f6b206f72204e20617265206e6f74204f4b20647572696e672072616e646f6d2060408201526839b2b632b1ba34b7b760b91b606082015260800190565b6020808252602a908201527f4661696c20647572696e6720616c6c6f636174696f6e3a206e6f7420656e6f75604082015269676820776f726b65727360b01b606082015260800190565b60208082526038908201527f55736572206e6565647320746f20626520616c6c6f636174656420746f20746860408201527f697320626174636820746f20636f6d6d6974206f6e2069740000000000000000606082015260800190565b6020808252602f908201527f636f756c64206e6f742072657761726420746f6b656e20696e2054726967676560408201526e3921b432b1b5a9b837ba161018973160891b606082015260800190565b6020808252603d908201527f436f756c64206e6f74207265717565737420656e6f75676820616c6c6f63617460408201527f6564207374616b652c2072657175657374566f74696e67526967687473000000606082015260800190565b6020808252602f908201527f5573657220686173206e6f7420636f6d6d69746564206265666f72652c20746860408201526e1d5cc818d85b89dd081c995d99585b608a1b606082015260800190565b6020808252602d908201527f636f756c64206e6f74207265776172642052455020696e20547269676765724360408201526c6865636b53706f742c20312e6160981b606082015260800190565b60208082526039908201527f646c6c4d61703a20646f6573206e6f7420636f696e7461696e205f446174614260408201527f61746368496420666f7220746865206d73672073656e64657200000000000000606082015260800190565b6020808252601490820152733737ba1030903b30b634b2103837b9b4ba34b7b760611b604082015260600190565b6020808252603a908201527f576f726b65722063757272656e746c792068617320776f726b20616c6c6f636160408201527f7465642c2063616e277420626520756e72656769737465726564000000000000606082015260800190565b6020808252603b908201527f43616e277420616c6c6f6361746520776f726b2c207468652063757272656e7460408201527f20626174636820697320616c726561647920616c6c6f63617465640000000000606082015260800190565b6020808252602c908201527f576f726b6572206973206e6f74207265676973746572656420736f2063616e2760408201526b3a103ab73932b3b4b9ba32b960a11b606082015260800190565b6020808252818101527f4f776e61626c653a2063616c6c6572206973206e6f7420746865206f776e6572604082015260600190565b6020808252603a908201527f5f446174614261746368496420686173206e6f7420656e6465642c206f72206e60408201527f6f7420657665727920766f74657273206861766520766f746564000000000000606082015260800190565b60208082526036908201527f43616e277420616c6c6f6361746520776f726b2c207468652063757272656e74604082015275206261746368206973206e6f7420636f6d706c65746560501b606082015260800190565b60208082526026908201527f52657665616c20706572696f64206e6f74206f70656e20666f7220746869732060408201526511185d18525160d21b606082015260800190565b60208082526027908201527f617661696c61626c65546f6b656e732073686f756c64206265203e3d205f6e756040820152666d546f6b656e7360c81b606082015260800190565b60208082526017908201527f5f4461746142617463684964206d757374206578697374000000000000000000604082015260600190565b6020808252601390820152720c081059191c995cdcc8139bdd0815985b1a59606a1b604082015260600190565b6020808252602f908201527f636f756c64206e6f742072657761726420746f6b656e20696e2054726967676560408201526e3921b432b1b5a9b837ba161019173160891b606082015260800190565b60208082526021908201527f5f446174614261746368496420697320616c72656164792076616c69646174656040820152601960fa1b606082015260800190565b60208082526029908201527f557365722068617320616c726561647920636f6d6d6974656420746f207468696040820152681cc818985d18da125960ba1b606082015260800190565b60208082526022908201527f4d6178696d756d207265676973746572656420776f726b65727320616c726561604082015261647960f01b606082015260800190565b60208082526037908201527f75736572206d757374206861766520656e6f75676820766f74696e672072696760408201527f68747320616b6120616c6c6f6361746564207374616b65000000000000000000606082015260800190565b6020808252602d908201527f636f756c64206e6f74207265776172642052455020696e20547269676765724360408201526c6865636b53706f742c20322e6160981b606082015260800190565b6020808252603b908201527f436f756c64206e6f74207769746864726177566f74696e67526967687473207460408201527f68726f7567682050726f78795374616b654465616c6c6f636174650000000000606082015260800190565b6020808252600f908201526e11185d18481b5d5cdd08195e1a5cdd608a1b604082015260600190565b6020808252602c908201527f557365722068617320616c72656164792072657665616c65642c20746875732060408201526b18d85b89dd081c995d99585b60a21b606082015260800190565b60006020825282516020830152602083015160408301526040830151606083015260608301516080830152608083015161772a60a08401826168a2565b5060a083015161773d60c08401826168a2565b5060c083015161775060e08401826168a2565b5060e0830151610100838101919091528301516101208084019190915283015161014080840191909152830151610160808401919091528301516101c06101808085018290526177a46101e08601846168a8565b908601516101a0868101919091528601519092506140cf828601826168d4565b600083825282602083015260606040830152614490606083016168f6565b600084825283602083015260806040830152617800608083016168f6565b9050826060830152949350505050565b60008382528260208301526060604083015261449060608301616913565b60008482528360208301526080604083015261780060808301616913565b93845260208401929092526040830152606082015260800190565b600060208252825160e060208401526178846101008401826168a8565b905060018060a01b03602085015116604084015260408401516060840152606084015160808401526080840151601f19808584030160a08601526178c883836168a8565b925060a08601519150808584030160c0860152506178e682826168a8565b91505060c08401516178fb60e08501826168d4565b509392505050565b9182526001600160a01b0316602082015260400190565b9182526001600160a01b031660208201526000604082015260600190565b9283526020830191909152604082015260600190565b60008f82528e60208301528d60408301528c60608301528b151560808301528a151560a083015261798260c083018b6168a2565b8860e08301528761010083015286610120830152856101408301526101c06101608301526179b46101c08301866168a8565b9050836101808301526179cb6101a08301846168d4565b9f9e505050505050505050505050505050565b6000808335601e198436030181126179f4578283fd5b8301803591506001600160401b03821115617a0d578283fd5b60200191503681900382131561645557600080fd5b6040518181016001600160401b0381118282101715617a4357617a43617ba2565b604052919050565b60006001600160401b03821115617a6457617a64617ba2565b5060209081020190565b60009081526020902090565b60008219821115617a8d57617a8d617b76565b500190565b600082617aa157617aa1617b8c565b500490565b6000816000190483118215151615617ac057617ac0617b76565b500290565b600082821015617ad757617ad7617b76565b500390565b60005b83811015617af7578181015183820152602001617adf565b83811115617b06576000848401525b50505050565b600281046001821680617b2057607f821691505b60208210811415617b4157634e487b7160e01b600052602260045260246000fd5b50919050565b6000600019821415617b5b57617b5b617b76565b5060010190565b600082617b7157617b71617b8c565b500690565b634e487b7160e01b600052601160045260246000fd5b634e487b7160e01b600052601260045260246000fd5b634e487b7160e01b600052604160045260246000fdfea26469706673582212209008ad705157c82d583f66d519bc05f3293389fd6b2ed9056c26f63615240b3e64736f6c63430008000033",
  "linkReferences": {
    "contracts/worksystems/DataSpotting.sol": {
      "AttributeStore": [
        {
          "length": 20,
          "start": 9343
        },
        {
          "length": 20,
          "start": 9449
        },
        {
          "length": 20,
          "start": 16692
        },
        {
          "length": 20,
          "start": 17162
        }
      ],
      "DLL": [
        {
          "length": 20,
          "start": 4551
        },
        {
          "length": 20,
          "start": 7463
        },
        {
          "length": 20,
          "start": 8863
        },
        {
          "length": 20,
          "start": 9025
        },
        {
          "length": 20,
          "start": 9220
        },
        {
          "length": 20,
          "start": 13075
        },
        {
          "length": 20,
          "start": 13255
        }
      ]
    }
  },
  "deployedLinkReferences": {
    "contracts/worksystems/DataSpotting.sol": {
      "AttributeStore": [
        {
          "length": 20,
          "start": 8881
        },
        {
          "length": 20,
          "start": 8987
        },
        {
          "length": 20,
          "start": 16230
        },
        {
          "length": 20,
          "start": 16700
        }
      ],
      "DLL": [
        {
          "length": 20,
          "start": 4089
        },
        {
          "length": 20,
          "start": 7001
        },
        {
          "length": 20,
          "start": 8401
        },
        {
          "length": 20,
          "start": 8563
        },
        {
          "length": 20,
          "start": 8758
        },
        {
          "length": 20,
          "start": 12613
        },
        {
          "length": 20,
          "start": 12793
        }
      ]
    }
  }
}