{
  "_format": "hh-sol-artifact-1",
  "contractName": "DataSpotting",
  "sourceName": "contracts/worksystems/DataSpotting.sol",
  "abi": [
    {
      "inputs": [
        {
          "internalType": "address",
          "name": "EXDT_token_",
          "type": "address"
        }
      ],
      "stateMutability": "nonpayable",
      "type": "constructor"
    },
    {
      "anonymous": false,
      "inputs": [
        {
          "indexed": false,
          "internalType": "bytes",
          "name": "bytesFailure",
          "type": "bytes"
        }
      ],
      "name": "BytesFailure",
      "type": "event"
    },
    {
      "anonymous": false,
      "inputs": [
        {
          "indexed": true,
          "internalType": "address",
          "name": "previousOwner",
          "type": "address"
        },
        {
          "indexed": true,
          "internalType": "address",
          "name": "newOwner",
          "type": "address"
        }
      ],
      "name": "OwnershipTransferred",
      "type": "event"
    },
    {
      "anonymous": false,
      "inputs": [
        {
          "indexed": true,
          "internalType": "uint256",
          "name": "DataID",
          "type": "uint256"
        },
        {
          "indexed": false,
          "internalType": "string",
          "name": "file_hash",
          "type": "string"
        },
        {
          "indexed": false,
          "internalType": "bool",
          "name": "isVotePassed",
          "type": "bool"
        }
      ],
      "name": "_BatchValidated",
      "type": "event"
    },
    {
      "anonymous": false,
      "inputs": [
        {
          "indexed": true,
          "internalType": "uint256",
          "name": "batchID",
          "type": "uint256"
        }
      ],
      "name": "_DataBatchDeleted",
      "type": "event"
    },
    {
      "anonymous": false,
      "inputs": [
        {
          "indexed": true,
          "internalType": "uint256",
          "name": "DataID",
          "type": "uint256"
        },
        {
          "indexed": false,
          "internalType": "uint256",
          "name": "numTokens",
          "type": "uint256"
        },
        {
          "indexed": true,
          "internalType": "address",
          "name": "voter",
          "type": "address"
        }
      ],
      "name": "_SpotCheckCommitted",
      "type": "event"
    },
    {
      "anonymous": false,
      "inputs": [
        {
          "indexed": true,
          "internalType": "uint256",
          "name": "DataID",
          "type": "uint256"
        },
        {
          "indexed": false,
          "internalType": "uint256",
          "name": "numTokens",
          "type": "uint256"
        },
        {
          "indexed": false,
          "internalType": "uint256",
          "name": "votesFor",
          "type": "uint256"
        },
        {
          "indexed": false,
          "internalType": "uint256",
          "name": "votesAgainst",
          "type": "uint256"
        },
        {
          "indexed": true,
          "internalType": "uint256",
          "name": "choice",
          "type": "uint256"
        },
        {
          "indexed": true,
          "internalType": "address",
          "name": "voter",
          "type": "address"
        }
      ],
      "name": "_SpotCheckRevealed",
      "type": "event"
    },
    {
      "anonymous": false,
      "inputs": [
        {
          "indexed": true,
          "internalType": "uint256",
          "name": "DataID",
          "type": "uint256"
        },
        {
          "indexed": false,
          "internalType": "string",
          "name": "file_hash",
          "type": "string"
        },
        {
          "indexed": false,
          "internalType": "string",
          "name": "URL_domain",
          "type": "string"
        },
        {
          "indexed": true,
          "internalType": "address",
          "name": "sender",
          "type": "address"
        }
      ],
      "name": "_SpotSubmitted",
      "type": "event"
    },
    {
      "anonymous": false,
      "inputs": [
        {
          "indexed": false,
          "internalType": "uint256",
          "name": "numTokens",
          "type": "uint256"
        },
        {
          "indexed": true,
          "internalType": "address",
          "name": "voter",
          "type": "address"
        }
      ],
      "name": "_StakeAllocated",
      "type": "event"
    },
    {
      "anonymous": false,
      "inputs": [
        {
          "indexed": true,
          "internalType": "uint256",
          "name": "DataID",
          "type": "uint256"
        },
        {
          "indexed": true,
          "internalType": "address",
          "name": "voter",
          "type": "address"
        }
      ],
      "name": "_TokensRescued",
      "type": "event"
    },
    {
      "anonymous": false,
      "inputs": [
        {
          "indexed": false,
          "internalType": "uint256",
          "name": "numTokens",
          "type": "uint256"
        },
        {
          "indexed": true,
          "internalType": "address",
          "name": "voter",
          "type": "address"
        }
      ],
      "name": "_VotingRightsWithdrawn",
      "type": "event"
    },
    {
      "anonymous": false,
      "inputs": [
        {
          "indexed": true,
          "internalType": "uint256",
          "name": "batchID",
          "type": "uint256"
        },
        {
          "indexed": false,
          "internalType": "address",
          "name": "worker",
          "type": "address"
        }
      ],
      "name": "_WorkAllocated",
      "type": "event"
    },
    {
      "anonymous": false,
      "inputs": [
        {
          "indexed": true,
          "internalType": "address",
          "name": "worker",
          "type": "address"
        },
        {
          "indexed": false,
          "internalType": "uint256",
          "name": "timestamp",
          "type": "uint256"
        }
      ],
      "name": "_WorkerRegistered",
      "type": "event"
    },
    {
      "anonymous": false,
      "inputs": [
        {
          "indexed": true,
          "internalType": "address",
          "name": "worker",
          "type": "address"
        },
        {
          "indexed": false,
          "internalType": "uint256",
          "name": "timestamp",
          "type": "uint256"
        }
      ],
      "name": "_WorkerUnregistered",
      "type": "event"
    },
    {
      "inputs": [],
      "name": "AcceptedBatchsCounter",
      "outputs": [
        {
          "internalType": "uint256",
          "name": "",
          "type": "uint256"
        }
      ],
      "stateMutability": "view",
      "type": "function"
    },
    {
      "inputs": [],
      "name": "AllTxsCounter",
      "outputs": [
        {
          "internalType": "uint256",
          "name": "",
          "type": "uint256"
        }
      ],
      "stateMutability": "view",
      "type": "function"
    },
    {
      "inputs": [],
      "name": "AllocatedBatchCursor",
      "outputs": [
        {
          "internalType": "uint256",
          "name": "",
          "type": "uint256"
        }
      ],
      "stateMutability": "view",
      "type": "function"
    },
    {
      "inputs": [],
      "name": "AmIRegistered",
      "outputs": [
        {
          "internalType": "bool",
          "name": "passed",
          "type": "bool"
        }
      ],
      "stateMutability": "view",
      "type": "function"
    },
    {
      "inputs": [
        {
          "internalType": "string",
          "name": "_a",
          "type": "string"
        },
        {
          "internalType": "string",
          "name": "_b",
          "type": "string"
        }
      ],
      "name": "AreStringsEqual",
      "outputs": [
        {
          "internalType": "bool",
          "name": "",
          "type": "bool"
        }
      ],
      "stateMutability": "pure",
      "type": "function"
    },
    {
      "inputs": [],
      "name": "BatchCheckingCursor",
      "outputs": [
        {
          "internalType": "uint256",
          "name": "",
          "type": "uint256"
        }
      ],
      "stateMutability": "view",
      "type": "function"
    },
    {
      "inputs": [],
      "name": "BatchDeletionCursor",
      "outputs": [
        {
          "internalType": "uint256",
          "name": "",
          "type": "uint256"
        }
      ],
      "stateMutability": "view",
      "type": "function"
    },
    {
      "inputs": [
        {
          "internalType": "uint256",
          "name": "",
          "type": "uint256"
        }
      ],
      "name": "DataBatch",
      "outputs": [
        {
          "internalType": "uint256",
          "name": "start_idx",
          "type": "uint256"
        },
        {
          "internalType": "uint256",
          "name": "counter",
          "type": "uint256"
        },
        {
          "internalType": "uint256",
          "name": "uncommited_workers",
          "type": "uint256"
        },
        {
          "internalType": "uint256",
          "name": "unrevealed_workers",
          "type": "uint256"
        },
        {
          "internalType": "bool",
          "name": "complete",
          "type": "bool"
        },
        {
          "internalType": "bool",
          "name": "checked",
          "type": "bool"
        },
        {
          "internalType": "bool",
          "name": "allocated_to_work",
          "type": "bool"
        },
        {
          "internalType": "uint256",
          "name": "commitEndDate",
          "type": "uint256"
        },
        {
          "internalType": "uint256",
          "name": "revealEndDate",
          "type": "uint256"
        },
        {
          "internalType": "uint256",
          "name": "votesFor",
          "type": "uint256"
        },
        {
          "internalType": "uint256",
          "name": "votesAgainst",
          "type": "uint256"
        },
        {
          "internalType": "string",
          "name": "batchIPFSfile",
          "type": "string"
        },
        {
          "internalType": "uint256",
          "name": "item_count",
          "type": "uint256"
        },
        {
          "internalType": "enum DataSpotting.DataStatus",
          "name": "status",
          "type": "uint8"
        }
      ],
      "stateMutability": "view",
      "type": "function"
    },
    {
      "inputs": [
        {
          "internalType": "uint256",
          "name": "_DataBatchId",
          "type": "uint256"
        }
      ],
      "name": "DataCommitEndDate",
      "outputs": [
        {
          "internalType": "uint256",
          "name": "commitEndDate",
          "type": "uint256"
        }
      ],
      "stateMutability": "view",
      "type": "function"
    },
    {
      "inputs": [
        {
          "internalType": "uint256",
          "name": "_DataBatchId",
          "type": "uint256"
        }
      ],
      "name": "DataEnded",
      "outputs": [
        {
          "internalType": "bool",
          "name": "ended",
          "type": "bool"
        }
      ],
      "stateMutability": "view",
      "type": "function"
    },
    {
      "inputs": [
        {
          "internalType": "uint256",
          "name": "_DataBatchId",
          "type": "uint256"
        }
      ],
      "name": "DataExists",
      "outputs": [
        {
          "internalType": "bool",
          "name": "exists",
          "type": "bool"
        }
      ],
      "stateMutability": "view",
      "type": "function"
    },
    {
      "inputs": [],
      "name": "DataNonce",
      "outputs": [
        {
          "internalType": "uint256",
          "name": "",
          "type": "uint256"
        }
      ],
      "stateMutability": "view",
      "type": "function"
    },
    {
      "inputs": [
        {
          "internalType": "uint256",
          "name": "_DataBatchId",
          "type": "uint256"
        }
      ],
      "name": "DataRevealEndDate",
      "outputs": [
        {
          "internalType": "uint256",
          "name": "revealEndDate",
          "type": "uint256"
        }
      ],
      "stateMutability": "view",
      "type": "function"
    },
    {
      "inputs": [
        {
          "internalType": "address",
          "name": "user_",
          "type": "address"
        }
      ],
      "name": "GetCurrentWork",
      "outputs": [
        {
          "internalType": "uint256",
          "name": "",
          "type": "uint256"
        }
      ],
      "stateMutability": "view",
      "type": "function"
    },
    {
      "inputs": [
        {
          "internalType": "uint256",
          "name": "",
          "type": "uint256"
        }
      ],
      "name": "GlobalSpotFlowManager",
      "outputs": [
        {
          "internalType": "uint256",
          "name": "timestamp",
          "type": "uint256"
        },
        {
          "internalType": "uint256",
          "name": "counter",
          "type": "uint256"
        }
      ],
      "stateMutability": "view",
      "type": "function"
    },
    {
      "inputs": [],
      "name": "InstantSpotRewards",
      "outputs": [
        {
          "internalType": "bool",
          "name": "",
          "type": "bool"
        }
      ],
      "stateMutability": "view",
      "type": "function"
    },
    {
      "inputs": [],
      "name": "InstantSpotRewardsDivider",
      "outputs": [
        {
          "internalType": "uint256",
          "name": "",
          "type": "uint256"
        }
      ],
      "stateMutability": "view",
      "type": "function"
    },
    {
      "inputs": [
        {
          "internalType": "address",
          "name": "_worker",
          "type": "address"
        }
      ],
      "name": "IsInLogoffList",
      "outputs": [
        {
          "internalType": "bool",
          "name": "",
          "type": "bool"
        }
      ],
      "stateMutability": "view",
      "type": "function"
    },
    {
      "inputs": [
        {
          "internalType": "address",
          "name": "user_",
          "type": "address"
        }
      ],
      "name": "IsNewWorkAvailable",
      "outputs": [
        {
          "internalType": "bool",
          "name": "",
          "type": "bool"
        }
      ],
      "stateMutability": "view",
      "type": "function"
    },
    {
      "inputs": [],
      "name": "LastAllocationTime",
      "outputs": [
        {
          "internalType": "uint256",
          "name": "",
          "type": "uint256"
        }
      ],
      "stateMutability": "view",
      "type": "function"
    },
    {
      "inputs": [],
      "name": "LastBatchCounter",
      "outputs": [
        {
          "internalType": "uint256",
          "name": "",
          "type": "uint256"
        }
      ],
      "stateMutability": "view",
      "type": "function"
    },
    {
      "inputs": [],
      "name": "LastRandomSeed",
      "outputs": [
        {
          "internalType": "uint256",
          "name": "",
          "type": "uint256"
        }
      ],
      "stateMutability": "view",
      "type": "function"
    },
    {
      "inputs": [
        {
          "internalType": "address",
          "name": "",
          "type": "address"
        },
        {
          "internalType": "uint256",
          "name": "",
          "type": "uint256"
        }
      ],
      "name": "MasterWorkers",
      "outputs": [
        {
          "internalType": "address",
          "name": "",
          "type": "address"
        }
      ],
      "stateMutability": "view",
      "type": "function"
    },
    {
      "inputs": [],
      "name": "MaxPendingDataBatchCount",
      "outputs": [
        {
          "internalType": "uint256",
          "name": "",
          "type": "uint256"
        }
      ],
      "stateMutability": "view",
      "type": "function"
    },
    {
      "inputs": [],
      "name": "NotCommitedCounter",
      "outputs": [
        {
          "internalType": "uint256",
          "name": "",
          "type": "uint256"
        }
      ],
      "stateMutability": "view",
      "type": "function"
    },
    {
      "inputs": [],
      "name": "NotRevealedCounter",
      "outputs": [
        {
          "internalType": "uint256",
          "name": "",
          "type": "uint256"
        }
      ],
      "stateMutability": "view",
      "type": "function"
    },
    {
      "inputs": [],
      "name": "Parameters",
      "outputs": [
        {
          "internalType": "contract IParametersManager",
          "name": "",
          "type": "address"
        }
      ],
      "stateMutability": "view",
      "type": "function"
    },
    {
      "inputs": [],
      "name": "RegisterWorker",
      "outputs": [],
      "stateMutability": "nonpayable",
      "type": "function"
    },
    {
      "inputs": [],
      "name": "RejectedBatchsCounter",
      "outputs": [
        {
          "internalType": "uint256",
          "name": "",
          "type": "uint256"
        }
      ],
      "stateMutability": "view",
      "type": "function"
    },
    {
      "inputs": [],
      "name": "SPOT_FILE_SIZE",
      "outputs": [
        {
          "internalType": "uint256",
          "name": "",
          "type": "uint256"
        }
      ],
      "stateMutability": "view",
      "type": "function"
    },
    {
      "inputs": [],
      "name": "STAKING_REQUIREMENT_TOGGLE_ENABLED",
      "outputs": [
        {
          "internalType": "bool",
          "name": "",
          "type": "bool"
        }
      ],
      "stateMutability": "view",
      "type": "function"
    },
    {
      "inputs": [
        {
          "internalType": "address",
          "name": "_worker",
          "type": "address"
        },
        {
          "internalType": "uint256",
          "name": "_TokensAmountToAllocate",
          "type": "uint256"
        }
      ],
      "name": "SelectAddressForUser",
      "outputs": [
        {
          "internalType": "address",
          "name": "",
          "type": "address"
        }
      ],
      "stateMutability": "view",
      "type": "function"
    },
    {
      "inputs": [
        {
          "internalType": "string[]",
          "name": "file_hashs",
          "type": "string[]"
        },
        {
          "internalType": "string[]",
          "name": "URL_domains",
          "type": "string[]"
        },
        {
          "internalType": "uint256",
          "name": "item_count_",
          "type": "uint256"
        },
        {
          "internalType": "string",
          "name": "extra_",
          "type": "string"
        }
      ],
      "name": "SpotData",
      "outputs": [
        {
          "internalType": "uint256",
          "name": "Dataid_",
          "type": "uint256"
        }
      ],
      "stateMutability": "nonpayable",
      "type": "function"
    },
    {
      "inputs": [
        {
          "internalType": "uint256",
          "name": "",
          "type": "uint256"
        }
      ],
      "name": "SpotsMapping",
      "outputs": [
        {
          "internalType": "string",
          "name": "ipfs_hash",
          "type": "string"
        },
        {
          "internalType": "address",
          "name": "author",
          "type": "address"
        },
        {
          "internalType": "uint256",
          "name": "timestamp",
          "type": "uint256"
        },
        {
          "internalType": "uint256",
          "name": "item_count",
          "type": "uint256"
        },
        {
          "internalType": "string",
          "name": "URL_domain",
          "type": "string"
        },
        {
          "internalType": "string",
          "name": "extra",
          "type": "string"
        },
        {
          "internalType": "enum DataSpotting.DataStatus",
          "name": "status",
          "type": "uint8"
        }
      ],
      "stateMutability": "view",
      "type": "function"
    },
    {
      "inputs": [
        {
          "internalType": "address",
          "name": "",
          "type": "address"
        }
      ],
      "name": "SystemStakedTokenBalance",
      "outputs": [
        {
          "internalType": "uint256",
          "name": "",
          "type": "uint256"
        }
      ],
      "stateMutability": "view",
      "type": "function"
    },
    {
      "inputs": [
        {
          "internalType": "uint256",
          "name": "n_iteration",
          "type": "uint256"
        }
      ],
      "name": "TriggerUpdate",
      "outputs": [],
      "stateMutability": "nonpayable",
      "type": "function"
    },
    {
      "inputs": [],
      "name": "UnregisterWorker",
      "outputs": [],
      "stateMutability": "nonpayable",
      "type": "function"
    },
    {
      "inputs": [
        {
          "internalType": "uint256",
          "name": "",
          "type": "uint256"
        },
        {
          "internalType": "address",
          "name": "",
          "type": "address"
        }
      ],
      "name": "UserBatchCounts",
      "outputs": [
        {
          "internalType": "uint256",
          "name": "",
          "type": "uint256"
        }
      ],
      "stateMutability": "view",
      "type": "function"
    },
    {
      "inputs": [
        {
          "internalType": "uint256",
          "name": "",
          "type": "uint256"
        },
        {
          "internalType": "address",
          "name": "",
          "type": "address"
        }
      ],
      "name": "UserBatchFrom",
      "outputs": [
        {
          "internalType": "string",
          "name": "",
          "type": "string"
        }
      ],
      "stateMutability": "view",
      "type": "function"
    },
    {
      "inputs": [
        {
          "internalType": "address",
          "name": "",
          "type": "address"
        },
        {
          "internalType": "uint256",
          "name": "",
          "type": "uint256"
        }
      ],
      "name": "UserChecksCommits",
      "outputs": [
        {
          "internalType": "bool",
          "name": "",
          "type": "bool"
        }
      ],
      "stateMutability": "view",
      "type": "function"
    },
    {
      "inputs": [
        {
          "internalType": "address",
          "name": "",
          "type": "address"
        },
        {
          "internalType": "uint256",
          "name": "",
          "type": "uint256"
        }
      ],
      "name": "UserChecksReveals",
      "outputs": [
        {
          "internalType": "bool",
          "name": "",
          "type": "bool"
        }
      ],
      "stateMutability": "view",
      "type": "function"
    },
    {
      "inputs": [
        {
          "internalType": "uint256",
          "name": "",
          "type": "uint256"
        },
        {
          "internalType": "address",
          "name": "",
          "type": "address"
        }
      ],
      "name": "UserNewFiles",
      "outputs": [
        {
          "internalType": "string",
          "name": "",
          "type": "string"
        }
      ],
      "stateMutability": "view",
      "type": "function"
    },
    {
      "inputs": [
        {
          "internalType": "address",
          "name": "",
          "type": "address"
        },
        {
          "internalType": "uint256",
          "name": "",
          "type": "uint256"
        }
      ],
      "name": "UserSubmissions",
      "outputs": [
        {
          "internalType": "uint256",
          "name": "",
          "type": "uint256"
        }
      ],
      "stateMutability": "view",
      "type": "function"
    },
    {
      "inputs": [
        {
          "internalType": "uint256",
          "name": "",
          "type": "uint256"
        },
        {
          "internalType": "address",
          "name": "",
          "type": "address"
        }
      ],
      "name": "UserVotes",
      "outputs": [
        {
          "internalType": "uint256",
          "name": "",
          "type": "uint256"
        }
      ],
      "stateMutability": "view",
      "type": "function"
    },
    {
      "inputs": [
        {
          "internalType": "uint256",
          "name": "",
          "type": "uint256"
        },
        {
          "internalType": "uint256",
          "name": "",
          "type": "uint256"
        }
      ],
      "name": "WorkersPerBatch",
      "outputs": [
        {
          "internalType": "address",
          "name": "",
          "type": "address"
        }
      ],
      "stateMutability": "view",
      "type": "function"
    },
    {
      "inputs": [
        {
          "internalType": "address",
          "name": "",
          "type": "address"
        },
        {
          "internalType": "uint256",
          "name": "",
          "type": "uint256"
        }
      ],
      "name": "WorkersSpotFlowManager",
      "outputs": [
        {
          "internalType": "uint256",
          "name": "timestamp",
          "type": "uint256"
        },
        {
          "internalType": "uint256",
          "name": "counter",
          "type": "uint256"
        }
      ],
      "stateMutability": "view",
      "type": "function"
    },
    {
      "inputs": [
        {
          "internalType": "address",
          "name": "",
          "type": "address"
        }
      ],
      "name": "WorkersState",
      "outputs": [
        {
          "internalType": "uint256",
          "name": "allocated_work_batch",
          "type": "uint256"
        },
        {
          "internalType": "uint256",
          "name": "succeeding_novote_count",
          "type": "uint256"
        },
        {
          "internalType": "uint256",
          "name": "last_interaction_date",
          "type": "uint256"
        },
        {
          "internalType": "bool",
          "name": "registered",
          "type": "bool"
        },
        {
          "internalType": "bool",
          "name": "unregistration_request",
          "type": "bool"
        },
        {
          "internalType": "uint256",
          "name": "registration_date",
          "type": "uint256"
        },
        {
          "internalType": "uint256",
          "name": "allocated_batch_counter",
          "type": "uint256"
        },
        {
          "internalType": "uint256",
          "name": "majority_counter",
          "type": "uint256"
        },
        {
          "internalType": "uint256",
          "name": "minority_counter",
          "type": "uint256"
        }
      ],
      "stateMutability": "view",
      "type": "function"
    },
    {
      "inputs": [
        {
          "internalType": "address",
          "name": "_user",
          "type": "address"
        },
        {
          "internalType": "uint256",
          "name": "_DataBatchId",
          "type": "uint256"
        }
      ],
      "name": "attrUUID",
      "outputs": [
        {
          "internalType": "bytes32",
          "name": "UUID",
          "type": "bytes32"
        }
      ],
      "stateMutability": "pure",
      "type": "function"
    },
    {
      "inputs": [
        {
          "internalType": "uint256",
          "name": "",
          "type": "uint256"
        }
      ],
      "name": "availableWorkers",
      "outputs": [
        {
          "internalType": "address",
          "name": "",
          "type": "address"
        }
      ],
      "stateMutability": "view",
      "type": "function"
    },
    {
      "inputs": [
        {
          "internalType": "address",
          "name": "",
          "type": "address"
        }
      ],
      "name": "availableWorkersIndex",
      "outputs": [
        {
          "internalType": "uint256",
          "name": "",
          "type": "uint256"
        }
      ],
      "stateMutability": "view",
      "type": "function"
    },
    {
      "inputs": [
        {
          "internalType": "uint256",
          "name": "",
          "type": "uint256"
        }
      ],
      "name": "busyWorkers",
      "outputs": [
        {
          "internalType": "address",
          "name": "",
          "type": "address"
        }
      ],
      "stateMutability": "view",
      "type": "function"
    },
    {
      "inputs": [
        {
          "internalType": "address",
          "name": "",
          "type": "address"
        }
      ],
      "name": "busyWorkersIndex",
      "outputs": [
        {
          "internalType": "uint256",
          "name": "",
          "type": "uint256"
        }
      ],
      "stateMutability": "view",
      "type": "function"
    },
    {
      "inputs": [
        {
          "internalType": "uint256",
          "name": "_DataBatchId",
          "type": "uint256"
        }
      ],
      "name": "commitPeriodActive",
      "outputs": [
        {
          "internalType": "bool",
          "name": "active",
          "type": "bool"
        }
      ],
      "stateMutability": "view",
      "type": "function"
    },
    {
      "inputs": [
        {
          "internalType": "uint256",
          "name": "_DataBatchId",
          "type": "uint256"
        }
      ],
      "name": "commitPeriodOver",
      "outputs": [
        {
          "internalType": "bool",
          "name": "active",
          "type": "bool"
        }
      ],
      "stateMutability": "view",
      "type": "function"
    },
    {
      "inputs": [
        {
          "internalType": "uint256",
          "name": "_DataBatchId",
          "type": "uint256"
        },
        {
          "internalType": "bytes32",
          "name": "_encryptedHash",
          "type": "bytes32"
        },
        {
          "internalType": "bytes32",
          "name": "_encryptedVote",
          "type": "bytes32"
        },
        {
          "internalType": "uint256",
          "name": "_BatchCount",
          "type": "uint256"
        },
        {
          "internalType": "string",
          "name": "_From",
          "type": "string"
        }
      ],
      "name": "commitSpotCheck",
      "outputs": [],
      "stateMutability": "nonpayable",
      "type": "function"
    },
    {
      "inputs": [
        {
          "internalType": "uint256",
          "name": "_DataId",
          "type": "uint256"
        }
      ],
      "name": "deleteData",
      "outputs": [],
      "stateMutability": "nonpayable",
      "type": "function"
    },
    {
      "inputs": [
        {
          "internalType": "uint256",
          "name": "_BatchId",
          "type": "uint256"
        }
      ],
      "name": "deleteDataBatch",
      "outputs": [],
      "stateMutability": "nonpayable",
      "type": "function"
    },
    {
      "inputs": [],
      "name": "destroyContract",
      "outputs": [],
      "stateMutability": "nonpayable",
      "type": "function"
    },
    {
      "inputs": [
        {
          "internalType": "address",
          "name": "_voter",
          "type": "address"
        },
        {
          "internalType": "uint256",
          "name": "_DataBatchId",
          "type": "uint256"
        }
      ],
      "name": "didCommit",
      "outputs": [
        {
          "internalType": "bool",
          "name": "committed",
          "type": "bool"
        }
      ],
      "stateMutability": "view",
      "type": "function"
    },
    {
      "inputs": [
        {
          "internalType": "address",
          "name": "_voter",
          "type": "address"
        },
        {
          "internalType": "uint256",
          "name": "_DataBatchId",
          "type": "uint256"
        }
      ],
      "name": "didReveal",
      "outputs": [
        {
          "internalType": "bool",
          "name": "revealed",
          "type": "bool"
        }
      ],
      "stateMutability": "view",
      "type": "function"
    },
    {
      "inputs": [
        {
          "internalType": "uint256",
          "name": "_k",
          "type": "uint256"
        },
        {
          "internalType": "uint256",
          "name": "N_range",
          "type": "uint256"
        }
      ],
      "name": "generateIntegers",
      "outputs": [
        {
          "internalType": "uint256[]",
          "name": "",
          "type": "uint256[]"
        }
      ],
      "stateMutability": "view",
      "type": "function"
    },
    {
      "inputs": [],
      "name": "getAcceptedBatchesCount",
      "outputs": [
        {
          "internalType": "uint256",
          "name": "count",
          "type": "uint256"
        }
      ],
      "stateMutability": "view",
      "type": "function"
    },
    {
      "inputs": [],
      "name": "getActiveWorkersCount",
      "outputs": [
        {
          "internalType": "uint256",
          "name": "numWorkers",
          "type": "uint256"
        }
      ],
      "stateMutability": "view",
      "type": "function"
    },
    {
      "inputs": [
        {
          "internalType": "bytes32",
          "name": "_UUID",
          "type": "bytes32"
        },
        {
          "internalType": "string",
          "name": "_attrName",
          "type": "string"
        }
      ],
      "name": "getAttribute",
      "outputs": [
        {
          "internalType": "uint256",
          "name": "",
          "type": "uint256"
        }
      ],
      "stateMutability": "view",
      "type": "function"
    },
    {
      "inputs": [],
      "name": "getAvailableWorkersCount",
      "outputs": [
        {
          "internalType": "uint256",
          "name": "numWorkers",
          "type": "uint256"
        }
      ],
      "stateMutability": "view",
      "type": "function"
    },
    {
      "inputs": [
        {
          "internalType": "uint256",
          "name": "_DataBatchId",
          "type": "uint256"
        }
      ],
      "name": "getBatchByID",
      "outputs": [
        {
          "components": [
            {
              "internalType": "uint256",
              "name": "start_idx",
              "type": "uint256"
            },
            {
              "internalType": "uint256",
              "name": "counter",
              "type": "uint256"
            },
            {
              "internalType": "uint256",
              "name": "uncommited_workers",
              "type": "uint256"
            },
            {
              "internalType": "uint256",
              "name": "unrevealed_workers",
              "type": "uint256"
            },
            {
              "internalType": "bool",
              "name": "complete",
              "type": "bool"
            },
            {
              "internalType": "bool",
              "name": "checked",
              "type": "bool"
            },
            {
              "internalType": "bool",
              "name": "allocated_to_work",
              "type": "bool"
            },
            {
              "internalType": "uint256",
              "name": "commitEndDate",
              "type": "uint256"
            },
            {
              "internalType": "uint256",
              "name": "revealEndDate",
              "type": "uint256"
            },
            {
              "internalType": "uint256",
              "name": "votesFor",
              "type": "uint256"
            },
            {
              "internalType": "uint256",
              "name": "votesAgainst",
              "type": "uint256"
            },
            {
              "internalType": "string",
              "name": "batchIPFSfile",
              "type": "string"
            },
            {
              "internalType": "uint256",
              "name": "item_count",
              "type": "uint256"
            },
            {
              "internalType": "enum DataSpotting.DataStatus",
              "name": "status",
              "type": "uint8"
            }
          ],
          "internalType": "struct DataSpotting.BatchMetadata",
          "name": "batch",
          "type": "tuple"
        }
      ],
      "stateMutability": "view",
      "type": "function"
    },
    {
      "inputs": [
        {
          "internalType": "uint256",
          "name": "_DataBatchId_a",
          "type": "uint256"
        },
        {
          "internalType": "uint256",
          "name": "_DataBatchId_b",
          "type": "uint256"
        }
      ],
      "name": "getBatchCountForBatch",
      "outputs": [
        {
          "internalType": "uint256",
          "name": "AverageURLCount",
          "type": "uint256"
        },
        {
          "internalType": "uint256[]",
          "name": "batchCounts",
          "type": "uint256[]"
        }
      ],
      "stateMutability": "view",
      "type": "function"
    },
    {
      "inputs": [
        {
          "internalType": "uint256",
          "name": "_DataBatchId",
          "type": "uint256"
        }
      ],
      "name": "getBatchIPFSFileByID",
      "outputs": [
        {
          "internalType": "string",
          "name": "batch",
          "type": "string"
        }
      ],
      "stateMutability": "view",
      "type": "function"
    },
    {
      "inputs": [],
      "name": "getBusyWorkersCount",
      "outputs": [
        {
          "internalType": "uint256",
          "name": "numWorkers",
          "type": "uint256"
        }
      ],
      "stateMutability": "view",
      "type": "function"
    },
    {
      "inputs": [
        {
          "internalType": "address",
          "name": "_voter",
          "type": "address"
        },
        {
          "internalType": "uint256",
          "name": "_DataBatchId",
          "type": "uint256"
        }
      ],
      "name": "getCommitIPFSHash",
      "outputs": [
        {
          "internalType": "bytes32",
          "name": "commitHash",
          "type": "bytes32"
        }
      ],
      "stateMutability": "view",
      "type": "function"
    },
    {
      "inputs": [
        {
          "internalType": "address",
          "name": "_voter",
          "type": "address"
        },
        {
          "internalType": "uint256",
          "name": "_DataBatchId",
          "type": "uint256"
        }
      ],
      "name": "getCommitVoteHash",
      "outputs": [
        {
          "internalType": "bytes32",
          "name": "commitHash",
          "type": "bytes32"
        }
      ],
      "stateMutability": "view",
      "type": "function"
    },
    {
      "inputs": [
        {
          "internalType": "uint256",
          "name": "_DataId",
          "type": "uint256"
        }
      ],
      "name": "getDataByID",
      "outputs": [
        {
          "components": [
            {
              "internalType": "string",
              "name": "ipfs_hash",
              "type": "string"
            },
            {
              "internalType": "address",
              "name": "author",
              "type": "address"
            },
            {
              "internalType": "uint256",
              "name": "timestamp",
              "type": "uint256"
            },
            {
              "internalType": "uint256",
              "name": "item_count",
              "type": "uint256"
            },
            {
              "internalType": "string",
              "name": "URL_domain",
              "type": "string"
            },
            {
              "internalType": "string",
              "name": "extra",
              "type": "string"
            },
            {
              "internalType": "enum DataSpotting.DataStatus",
              "name": "status",
              "type": "uint8"
            }
          ],
          "internalType": "struct DataSpotting.SpottedData",
          "name": "data",
          "type": "tuple"
        }
      ],
      "stateMutability": "view",
      "type": "function"
    },
    {
      "inputs": [
        {
          "internalType": "uint256",
          "name": "_DataBatchId",
          "type": "uint256"
        }
      ],
      "name": "getDomainsForBatch",
      "outputs": [
        {
          "internalType": "string[]",
          "name": "",
          "type": "string[]"
        }
      ],
      "stateMutability": "view",
      "type": "function"
    },
    {
      "inputs": [
        {
          "internalType": "uint256",
          "name": "_clearVote",
          "type": "uint256"
        },
        {
          "internalType": "uint256",
          "name": "_salt",
          "type": "uint256"
        }
      ],
      "name": "getEncryptedHash",
      "outputs": [
        {
          "internalType": "bytes32",
          "name": "keccak256hash",
          "type": "bytes32"
        }
      ],
      "stateMutability": "pure",
      "type": "function"
    },
    {
      "inputs": [
        {
          "internalType": "string",
          "name": "_hash",
          "type": "string"
        },
        {
          "internalType": "uint256",
          "name": "_salt",
          "type": "uint256"
        }
      ],
      "name": "getEncryptedStringHash",
      "outputs": [
        {
          "internalType": "bytes32",
          "name": "keccak256hash",
          "type": "bytes32"
        }
      ],
      "stateMutability": "pure",
      "type": "function"
    },
    {
      "inputs": [
        {
          "internalType": "uint256",
          "name": "_DataBatchId",
          "type": "uint256"
        }
      ],
      "name": "getFromsForBatch",
      "outputs": [
        {
          "internalType": "string[]",
          "name": "",
          "type": "string[]"
        }
      ],
      "stateMutability": "view",
      "type": "function"
    },
    {
      "inputs": [],
      "name": "getGlobalPeriodSpotCount",
      "outputs": [
        {
          "internalType": "uint256",
          "name": "",
          "type": "uint256"
        }
      ],
      "stateMutability": "view",
      "type": "function"
    },
    {
      "inputs": [
        {
          "internalType": "uint256",
          "name": "_DataBatchId",
          "type": "uint256"
        }
      ],
      "name": "getIPFShashesForBatch",
      "outputs": [
        {
          "internalType": "string[]",
          "name": "",
          "type": "string[]"
        }
      ],
      "stateMutability": "view",
      "type": "function"
    },
    {
      "inputs": [
        {
          "internalType": "address",
          "name": "_voter",
          "type": "address"
        },
        {
          "internalType": "uint256",
          "name": "_numTokens",
          "type": "uint256"
        },
        {
          "internalType": "uint256",
          "name": "_DataBatchId",
          "type": "uint256"
        }
      ],
      "name": "getInsertPointForNumTokens",
      "outputs": [
        {
          "internalType": "uint256",
          "name": "prevNode",
          "type": "uint256"
        }
      ],
      "stateMutability": "view",
      "type": "function"
    },
    {
      "inputs": [],
      "name": "getLastAllocatedBatchId",
      "outputs": [
        {
          "internalType": "uint256",
          "name": "LastAllocatedBatchId",
          "type": "uint256"
        }
      ],
      "stateMutability": "view",
      "type": "function"
    },
    {
      "inputs": [],
      "name": "getLastBatchId",
      "outputs": [
        {
          "internalType": "uint256",
          "name": "LastBatchId",
          "type": "uint256"
        }
      ],
      "stateMutability": "view",
      "type": "function"
    },
    {
      "inputs": [],
      "name": "getLastCheckedBatchId",
      "outputs": [
        {
          "internalType": "uint256",
          "name": "LastCheckedBatchId",
          "type": "uint256"
        }
      ],
      "stateMutability": "view",
      "type": "function"
    },
    {
      "inputs": [],
      "name": "getLastDataId",
      "outputs": [
        {
          "internalType": "uint256",
          "name": "DataId",
          "type": "uint256"
        }
      ],
      "stateMutability": "view",
      "type": "function"
    },
    {
      "inputs": [
        {
          "internalType": "address",
          "name": "_voter",
          "type": "address"
        }
      ],
      "name": "getLastNode",
      "outputs": [
        {
          "internalType": "uint256",
          "name": "DataID",
          "type": "uint256"
        }
      ],
      "stateMutability": "view",
      "type": "function"
    },
    {
      "inputs": [
        {
          "internalType": "address",
          "name": "_voter",
          "type": "address"
        }
      ],
      "name": "getLockedTokens",
      "outputs": [
        {
          "internalType": "uint256",
          "name": "numTokens",
          "type": "uint256"
        }
      ],
      "stateMutability": "view",
      "type": "function"
    },
    {
      "inputs": [
        {
          "internalType": "uint256",
          "name": "_DataBatchId_a",
          "type": "uint256"
        },
        {
          "internalType": "uint256",
          "name": "_DataBatchId_b",
          "type": "uint256"
        }
      ],
      "name": "getMultiBatchIPFShashes",
      "outputs": [
        {
          "internalType": "string[]",
          "name": "",
          "type": "string[]"
        }
      ],
      "stateMutability": "view",
      "type": "function"
    },
    {
      "inputs": [
        {
          "internalType": "address",
          "name": "_voter",
          "type": "address"
        },
        {
          "internalType": "uint256",
          "name": "_DataBatchId",
          "type": "uint256"
        },
        {
          "internalType": "uint256",
          "name": "_salt",
          "type": "uint256"
        }
      ],
      "name": "getNumPassingTokens",
      "outputs": [
        {
          "internalType": "uint256",
          "name": "correctSpotChecks",
          "type": "uint256"
        }
      ],
      "stateMutability": "view",
      "type": "function"
    },
    {
      "inputs": [
        {
          "internalType": "address",
          "name": "_voter",
          "type": "address"
        },
        {
          "internalType": "uint256",
          "name": "_DataBatchId",
          "type": "uint256"
        }
      ],
      "name": "getNumTokens",
      "outputs": [
        {
          "internalType": "uint256",
          "name": "numTokens",
          "type": "uint256"
        }
      ],
      "stateMutability": "view",
      "type": "function"
    },
    {
      "inputs": [],
      "name": "getRandom",
      "outputs": [
        {
          "internalType": "uint256",
          "name": "",
          "type": "uint256"
        }
      ],
      "stateMutability": "view",
      "type": "function"
    },
    {
      "inputs": [],
      "name": "getRejectedBatchesCount",
      "outputs": [
        {
          "internalType": "uint256",
          "name": "count",
          "type": "uint256"
        }
      ],
      "stateMutability": "view",
      "type": "function"
    },
    {
      "inputs": [],
      "name": "getSeed",
      "outputs": [
        {
          "internalType": "bytes32",
          "name": "addr",
          "type": "bytes32"
        }
      ],
      "stateMutability": "view",
      "type": "function"
    },
    {
      "inputs": [
        {
          "internalType": "uint256",
          "name": "_DataBatchId",
          "type": "uint256"
        }
      ],
      "name": "getSubmittedFilesForBatch",
      "outputs": [
        {
          "internalType": "string[]",
          "name": "",
          "type": "string[]"
        }
      ],
      "stateMutability": "view",
      "type": "function"
    },
    {
      "inputs": [
        {
          "internalType": "address",
          "name": "_user",
          "type": "address"
        }
      ],
      "name": "getSystemTokenBalance",
      "outputs": [
        {
          "internalType": "uint256",
          "name": "tokens",
          "type": "uint256"
        }
      ],
      "stateMutability": "view",
      "type": "function"
    },
    {
      "inputs": [],
      "name": "getTxCounter",
      "outputs": [
        {
          "internalType": "uint256",
          "name": "Counter",
          "type": "uint256"
        }
      ],
      "stateMutability": "view",
      "type": "function"
    },
    {
      "inputs": [
        {
          "internalType": "address",
          "name": "user",
          "type": "address"
        }
      ],
      "name": "getUserDatas",
      "outputs": [
        {
          "internalType": "uint256[]",
          "name": "user_Datas",
          "type": "uint256[]"
        }
      ],
      "stateMutability": "view",
      "type": "function"
    },
    {
      "inputs": [
        {
          "internalType": "address",
          "name": "user_",
          "type": "address"
        }
      ],
      "name": "getUserPeriodSpotCount",
      "outputs": [
        {
          "internalType": "uint256",
          "name": "",
          "type": "uint256"
        }
      ],
      "stateMutability": "view",
      "type": "function"
    },
    {
      "inputs": [
        {
          "internalType": "uint256",
          "name": "_DataBatchId",
          "type": "uint256"
        }
      ],
      "name": "getVotesForBatch",
      "outputs": [
        {
          "internalType": "uint256[]",
          "name": "",
          "type": "uint256[]"
        }
      ],
      "stateMutability": "view",
      "type": "function"
    },
    {
      "inputs": [
        {
          "internalType": "address",
          "name": "",
          "type": "address"
        }
      ],
      "name": "isAvailableWorker",
      "outputs": [
        {
          "internalType": "bool",
          "name": "",
          "type": "bool"
        }
      ],
      "stateMutability": "view",
      "type": "function"
    },
    {
      "inputs": [
        {
          "internalType": "address",
          "name": "",
          "type": "address"
        }
      ],
      "name": "isBusyWorker",
      "outputs": [
        {
          "internalType": "bool",
          "name": "",
          "type": "bool"
        }
      ],
      "stateMutability": "view",
      "type": "function"
    },
    {
      "inputs": [
        {
          "internalType": "uint256",
          "name": "_terminationDate",
          "type": "uint256"
        }
      ],
      "name": "isExpired",
      "outputs": [
        {
          "internalType": "bool",
          "name": "expired",
          "type": "bool"
        }
      ],
      "stateMutability": "view",
      "type": "function"
    },
    {
      "inputs": [
        {
          "internalType": "address",
          "name": "_worker",
          "type": "address"
        }
      ],
      "name": "isInAvailableWorkers",
      "outputs": [
        {
          "internalType": "bool",
          "name": "",
          "type": "bool"
        }
      ],
      "stateMutability": "view",
      "type": "function"
    },
    {
      "inputs": [
        {
          "internalType": "address",
          "name": "_worker",
          "type": "address"
        }
      ],
      "name": "isInBusyWorkers",
      "outputs": [
        {
          "internalType": "bool",
          "name": "",
          "type": "bool"
        }
      ],
      "stateMutability": "view",
      "type": "function"
    },
    {
      "inputs": [
        {
          "internalType": "uint256",
          "name": "_DataBatchId",
          "type": "uint256"
        }
      ],
      "name": "isPassed",
      "outputs": [
        {
          "internalType": "bool",
          "name": "passed",
          "type": "bool"
        }
      ],
      "stateMutability": "view",
      "type": "function"
    },
    {
      "inputs": [
        {
          "internalType": "address",
          "name": "",
          "type": "address"
        }
      ],
      "name": "isToUnregisterWorker",
      "outputs": [
        {
          "internalType": "bool",
          "name": "",
          "type": "bool"
        }
      ],
      "stateMutability": "view",
      "type": "function"
    },
    {
      "inputs": [
        {
          "internalType": "uint256",
          "name": "_DataBatchId",
          "type": "uint256"
        },
        {
          "internalType": "address",
          "name": "_worker",
          "type": "address"
        }
      ],
      "name": "isWorkerAllocatedToBatch",
      "outputs": [
        {
          "internalType": "bool",
          "name": "",
          "type": "bool"
        }
      ],
      "stateMutability": "view",
      "type": "function"
    },
    {
      "inputs": [
        {
          "internalType": "address",
          "name": "_worker",
          "type": "address"
        }
      ],
      "name": "isWorkerRegistered",
      "outputs": [
        {
          "internalType": "bool",
          "name": "passed",
          "type": "bool"
        }
      ],
      "stateMutability": "view",
      "type": "function"
    },
    {
      "inputs": [],
      "name": "owner",
      "outputs": [
        {
          "internalType": "address",
          "name": "",
          "type": "address"
        }
      ],
      "stateMutability": "view",
      "type": "function"
    },
    {
      "inputs": [
        {
          "internalType": "uint256",
          "name": "k",
          "type": "uint256"
        },
        {
          "internalType": "uint256",
          "name": "N",
          "type": "uint256"
        }
      ],
      "name": "random_selection",
      "outputs": [
        {
          "internalType": "uint256[]",
          "name": "",
          "type": "uint256[]"
        }
      ],
      "stateMutability": "view",
      "type": "function"
    },
    {
      "inputs": [
        {
          "internalType": "uint256",
          "name": "_DataBatchId",
          "type": "uint256"
        }
      ],
      "name": "remainingCommitDuration",
      "outputs": [
        {
          "internalType": "uint256",
          "name": "remainingTime",
          "type": "uint256"
        }
      ],
      "stateMutability": "view",
      "type": "function"
    },
    {
      "inputs": [
        {
          "internalType": "uint256",
          "name": "_DataBatchId",
          "type": "uint256"
        }
      ],
      "name": "remainingRevealDuration",
      "outputs": [
        {
          "internalType": "uint256",
          "name": "remainingTime",
          "type": "uint256"
        }
      ],
      "stateMutability": "view",
      "type": "function"
    },
    {
      "inputs": [],
      "name": "renounceOwnership",
      "outputs": [],
      "stateMutability": "nonpayable",
      "type": "function"
    },
    {
      "inputs": [
        {
          "internalType": "uint256",
          "name": "_DataBatchId",
          "type": "uint256"
        }
      ],
      "name": "rescueTokens",
      "outputs": [],
      "stateMutability": "nonpayable",
      "type": "function"
    },
    {
      "inputs": [
        {
          "internalType": "uint256[]",
          "name": "_DataBatchIDs",
          "type": "uint256[]"
        }
      ],
      "name": "rescueTokensInMultipleDatas",
      "outputs": [],
      "stateMutability": "nonpayable",
      "type": "function"
    },
    {
      "inputs": [
        {
          "internalType": "uint256",
          "name": "_DataBatchId",
          "type": "uint256"
        }
      ],
      "name": "revealPeriodActive",
      "outputs": [
        {
          "internalType": "bool",
          "name": "active",
          "type": "bool"
        }
      ],
      "stateMutability": "view",
      "type": "function"
    },
    {
      "inputs": [
        {
          "internalType": "uint256",
          "name": "_DataBatchId",
          "type": "uint256"
        }
      ],
      "name": "revealPeriodOver",
      "outputs": [
        {
          "internalType": "bool",
          "name": "active",
          "type": "bool"
        }
      ],
      "stateMutability": "view",
      "type": "function"
    },
    {
      "inputs": [
        {
          "internalType": "uint256",
          "name": "_DataBatchId",
          "type": "uint256"
        },
        {
          "internalType": "string",
          "name": "_clearIPFSHash",
          "type": "string"
        },
        {
          "internalType": "uint256",
          "name": "_clearVote",
          "type": "uint256"
        },
        {
          "internalType": "uint256",
          "name": "_salt",
          "type": "uint256"
        }
      ],
      "name": "revealSpotCheck",
      "outputs": [],
      "stateMutability": "nonpayable",
      "type": "function"
    },
    {
      "inputs": [
        {
          "internalType": "bytes32",
          "name": "_UUID",
          "type": "bytes32"
        },
        {
          "internalType": "string",
          "name": "_attrName",
          "type": "string"
        },
        {
          "internalType": "uint256",
          "name": "_attrVal",
          "type": "uint256"
        }
      ],
      "name": "setAttribute",
      "outputs": [],
      "stateMutability": "nonpayable",
      "type": "function"
    },
    {
      "inputs": [
        {
          "internalType": "uint256",
          "name": "",
          "type": "uint256"
        }
      ],
      "name": "toUnregisterWorkers",
      "outputs": [
        {
          "internalType": "address",
          "name": "",
          "type": "address"
        }
      ],
      "stateMutability": "view",
      "type": "function"
    },
    {
      "inputs": [
        {
          "internalType": "address",
          "name": "",
          "type": "address"
        }
      ],
      "name": "toUnregisterWorkersIndex",
      "outputs": [
        {
          "internalType": "uint256",
          "name": "",
          "type": "uint256"
        }
      ],
      "stateMutability": "view",
      "type": "function"
    },
    {
      "inputs": [
        {
          "internalType": "bool",
          "name": "toggle_",
          "type": "bool"
        }
      ],
      "name": "toggleRequiredStaking",
      "outputs": [],
      "stateMutability": "nonpayable",
      "type": "function"
    },
    {
      "inputs": [],
      "name": "token",
      "outputs": [
        {
          "internalType": "contract IERC20",
          "name": "",
          "type": "address"
        }
      ],
      "stateMutability": "view",
      "type": "function"
    },
    {
      "inputs": [
        {
          "internalType": "address",
          "name": "newOwner",
          "type": "address"
        }
      ],
      "name": "transferOwnership",
      "outputs": [],
      "stateMutability": "nonpayable",
      "type": "function"
    },
    {
      "inputs": [],
      "name": "updateGlobalSpotFlow",
      "outputs": [],
      "stateMutability": "nonpayable",
      "type": "function"
    },
    {
      "inputs": [
        {
          "internalType": "bool",
          "name": "state_",
          "type": "bool"
        },
        {
          "internalType": "uint256",
          "name": "divider_",
          "type": "uint256"
        }
      ],
      "name": "updateInstantSpotRewards",
      "outputs": [],
      "stateMutability": "nonpayable",
      "type": "function"
    },
    {
      "inputs": [
        {
          "internalType": "uint256",
          "name": "MaxPendingDataBatchCount_",
          "type": "uint256"
        }
      ],
      "name": "updateMaxPendingDataBatch",
      "outputs": [],
      "stateMutability": "nonpayable",
      "type": "function"
    },
    {
      "inputs": [
        {
          "internalType": "address",
          "name": "addr",
          "type": "address"
        }
      ],
      "name": "updateParametersManager",
      "outputs": [],
      "stateMutability": "nonpayable",
      "type": "function"
    },
    {
      "inputs": [
        {
          "internalType": "uint256",
          "name": "file_size_",
          "type": "uint256"
        }
      ],
      "name": "updateSpotFileSize",
      "outputs": [],
      "stateMutability": "nonpayable",
      "type": "function"
    },
    {
      "inputs": [
        {
          "internalType": "address",
          "name": "user_",
          "type": "address"
        }
      ],
      "name": "updateUserSpotFlow",
      "outputs": [],
      "stateMutability": "nonpayable",
      "type": "function"
    },
    {
      "inputs": [
        {
          "internalType": "uint256",
          "name": "_prevID",
          "type": "uint256"
        },
        {
          "internalType": "uint256",
          "name": "_nextID",
          "type": "uint256"
        },
        {
          "internalType": "address",
          "name": "_voter",
          "type": "address"
        },
        {
          "internalType": "uint256",
          "name": "_numTokens",
          "type": "uint256"
        }
      ],
      "name": "validPosition",
      "outputs": [
        {
          "internalType": "bool",
          "name": "APPROVED",
          "type": "bool"
        }
      ],
      "stateMutability": "view",
      "type": "function"
    },
    {
      "inputs": [
        {
          "internalType": "uint256",
          "name": "_numTokens",
          "type": "uint256"
        },
        {
          "internalType": "address",
          "name": "_user",
          "type": "address"
        }
      ],
      "name": "withdrawVotingRights",
      "outputs": [],
      "stateMutability": "nonpayable",
      "type": "function"
    }
  ],
  "bytecode": "0x60806040908152600060018181556039829055603a829055603b819055603c819055603d819055603e819055603f82905591819055604181905560428190556043556044805460ff19169091179055600a60455560c860465560646047556049805460ff60a01b1916600160a01b1790556402540be3ff604a553480156200008657600080fd5b506040516200bfef3803806200bfef833981016040819052620000a9916200014b565b620000bd620000b7620000f7565b620000fb565b6001600160a01b038116620000d157600080fd5b604880546001600160a01b0319166001600160a01b03929092169190911790556200017b565b3390565b600080546001600160a01b038381166001600160a01b0319831681178455604051919092169283917f8be0079c531659141344cd1fd0a4f28419497f9722a3daafe3b4186f6b6457e09190a35050565b6000602082840312156200015d578081fd5b81516001600160a01b038116811462000174578182fd5b9392505050565b61be64806200018b6000396000f3fe608060405234801561001057600080fd5b50600436106107a65760003560e01c806388d072eb116103ea578063c4e4f82a11610215578063e798a7da11610130578063f716596d116100c3578063f96305f011610092578063f96305f014611037578063fc0c546a1461103f578063fca4956314611047578063fd4148811461105a578063ff43de9d1461106d576107a6565b8063f716596d14611001578063f721de4a14611009578063f7c544fe1461101c578063f80a23fd1461102f576107a6565b8063f2d9e74d116100ff578063f2d9e74d14610fcb578063f2fde38b14610fd3578063f4cdfcc414610fe6578063f5ae7c7d14610ff9576107a6565b8063e798a7da14610f95578063eb1322ff14610fa8578063ed8becfa14610fb0578063ef4fcdad14610fc3576107a6565b8063d6b0206c116101a8578063d9548e5311610177578063d9548e5314610f47578063d9845fb814610f5a578063e59d028914610f7a578063e604c12714610f82576107a6565b8063d6b0206c14610f06578063d817587e14610f0e578063d822ce0114610f21578063d8b7567414610f34576107a6565b8063d1382092116101e4578063d138209214610ec5578063d186981d14610ed8578063d420ec0b14610eeb578063d58f575c14610efe576107a6565b8063c4e4f82a14610e84578063c6b6506314610e97578063cf78c54a14610eaa578063d0d41def14610ebd576107a6565b8063a511dba011610305578063b1a2e0be11610298578063b8f011b311610267578063b8f011b314610e43578063bc3002e614610e56578063bda1e60914610e69578063c46f17d014610e7c576107a6565b8063b1a2e0be14610df7578063b1cf4a7e14610e0a578063b1d7ea9814610e1d578063b43bd06914610e30576107a6565b8063aa7ca464116102d4578063aa7ca46414610db6578063aacc5a1714610dc9578063b0bc471e14610dd1578063b10aa58414610de4576107a6565b8063a511dba014610d75578063a7ba29d114610d7d578063a905779014610d90578063a98eb31e14610da3576107a6565b8063976035601161037d578063a1103f371161034c578063a1103f3714610d3f578063a1b6b5b714610d52578063a350715a14610d5a578063a4439dc514610d62576107a6565b80639760356014610cfe5780639769d84614610d115780639d6e3f9614610d195780639fc9c52f14610d2c576107a6565b80638c89d027116103b95780638c89d02714610ca85780638ccb7eec14610cd05780638da5cb5b14610ce35780638df0296e14610ceb576107a6565b806388d072eb14610c5c578063896d807a14610c6f5780638a1479c814610c825780638bf8a33814610c95576107a6565b8063538e498c116105d557806371880b1b116104f05780637f97e83611610483578063821aa8c011610452578063821aa8c014610c1357806383e5a8f614610c265780638473850b14610c395780638480a22114610c415780638746ff8a14610c49576107a6565b80637f97e83614610bb85780637fabe35b14610bcb578063815ce74714610bf8578063819b029314610c00576107a6565b80637a303322116104bf5780637a30332214610b775780637ad3be1114610b8a5780637e97561b14610b9d5780637f9510a214610bb0576107a6565b806371880b1b14610b4157806375b7536c14610b54578063763a39f214610b5c5780637860dd4114610b64576107a6565b80635df6055d116105685780636b2d95d4116105375780636b2d95d414610b005780637018e9c614610b135780637074222b14610b26578063715018a614610b39576107a6565b80635df6055d14610abf578063607d5efa14610ad25780636371d81f14610ada57806363b563a814610aed576107a6565b806359fcf776116105a457806359fcf77614610a665780635a45294314610a795780635b113a5514610a995780635dc44cf114610aac576107a6565b8063538e498c14610a2557806353bf27f114610a38578063576a554314610a40578063579db71c14610a53576107a6565b806339e7357c116106c557806347fe2d20116106585780634a45cd84116106275780634a45cd84146109d65780634bad8d24146109e95780634fe8b4c114610a0a578063515535e814610a1d576107a6565b806347fe2d20146109a05780634852e2f0146109a857806348cbd8f8146109b057806349403183146109c3576107a6565b8063413b90f711610694578063413b90f71461095f578063427fa1d214610972578063441c77c01461098557806345feae8914610998576107a6565b806339e7357c1461091b5780633aed0be5146109235780633c062cc8146109365780633f7e62f314610957576107a6565b806319d903461161073d5780632d917c681161070c5780632d917c68146108b55780632f469fd1146108c857806331e2f285146108e85780633538af82146108fb576107a6565b806319d903461461085a578063226ed3001461087a578063275c25901461089a5780632c052031146108a2576107a6565b8063092a5cce11610779578063092a5cce1461081c5780630b96c5b0146108245780630e6661a71461084a578063154fd39b14610852576107a6565b806301a48b98146107ab57806301aa5f73146107d457806305957623146107f457806307c0370114610809575b600080fd5b6107be6107b936600461a6f4565b611075565b6040516107cb919061a9ed565b60405180910390f35b6107e76107e236600461a6f4565b611212565b6040516107cb919061a920565b61080761080236600461a369565b61126f565b005b61080761081736600461a6f4565b6112d0565b610807611314565b61083761083236600461a6f4565b611366565b6040516107cb979695949392919061aa1e565b6107e761154a565b6107e7611550565b61086d61086836600461a6f4565b611556565b6040516107cb919061a98d565b61088d61088836600461a6f4565b611871565b6040516107cb919061aa00565b6108076118b3565b6107e76108b036600461a3cc565b611a34565b61088d6108c336600461a3a1565b611bd1565b6108db6108d636600461a71d565b611bef565b6040516107cb919061aa0b565b6107e76108f636600461a369565b611c94565b61090e61090936600461a6f4565b611ca6565b6040516107cb919061a979565b6107e7611cd0565b61088d61093136600461a369565b611ced565b61094961094436600461a6f4565b611d0b565b6040516107cb92919061a96b565b6107e7611d2d565b61094961096d36600461a3a1565b611d33565b6107e761098036600461a369565b611d63565b61088d61099336600461a6f4565b611e03565b61088d611e5d565b6107e7611e66565b6107e7611e6c565b6108076109be36600461a71d565b611e72565b61088d6109d136600461a6f4565b612082565b61088d6109e436600461a369565b6122ce565b6109fc6109f736600461a7f4565b6122ec565b6040516107cb92919061bb23565b610807610a1836600461a6f4565b61259b565b6107e7612640565b6107e7610a3336600461a369565b612646565b6107e7612658565b610807610a4e36600461a369565b61265e565b6107be610a6136600461a369565b61284d565b6107e7610a7436600461a369565b6128b9565b610a8c610a8736600461a6f4565b6128cb565b6040516107cb919061ba52565b6107e7610aa736600461a71d565b612b20565b6107e7610aba36600461a3a1565b612b3d565b61086d610acd36600461a6f4565b612b6e565b610807612d8b565b610807610ae836600461a6f4565b612f6c565b61088d610afb36600461a6f4565b61301f565b6107e7610b0e36600461a369565b613072565b61088d610b2136600461a6f4565b613081565b6107e7610b3436600461a369565b6130c2565b6108076130dd565b6107e7610b4f36600461a6f4565b613128565b6107e7613165565b6107e761316b565b6107e7610b7236600461a6f4565b613171565b610807610b8536600461a6f4565b6131c5565b6107e7610b9836600461a3a1565b613523565b610807610bab36600461a6f4565b61355a565b6107e761359e565b61088d610bc636600461a3a1565b6135b5565b610bde610bd936600461a6f4565b613606565b6040516107cb9e9d9c9b9a9998979695949392919061bb91565b6107e7613706565b61088d610c0e36600461a815565b613762565b61090e610c2136600461a6f4565b6137a3565b610807610c3436600461a74c565b6137b3565b6107e7613d90565b6107e7613d96565b61090e610c5736600461a3a1565b613d9c565b6108db610c6a36600461a71d565b614210565b610807610c7d36600461a60f565b614234565b61088d610c9036600461a369565b614276565b6107e7610ca336600461a5cb565b61428b565b610cbb610cb636600461a369565b6142ce565b6040516107cb9998979695949392919061bb52565b61088d610cde36600461a369565b614319565b61090e614337565b61090e610cf936600461a7f4565b614346565b610807610d0c36600461a6f4565b61437e565b6107e7614535565b6107e7610d2736600461a369565b61453b565b610807610d3a36600461a4e7565b6145a6565b6107e7610d4d36600461a3a1565b6145f4565b6107e7614627565b6107e761462d565b61088d610d7036600461a6f4565b614633565b6107e7614695565b61088d610d8b36600461a369565b61469b565b61088d610d9e36600461a65c565b6146b0565b610807610db136600461a7a0565b614716565b61088d610dc436600461a3a1565b6149c1565b6107e7614a14565b6107e7610ddf36600461a3a1565b614ac9565b61090e610df236600461a6f4565b614b00565b61088d610e0536600461a369565b614b10565b6107e7610e1836600461a7f4565b614bdd565b6107be610e2b36600461a7f4565b614bf2565b6107e7610e3e36600461a3cc565b614e48565b6107be610e5136600461a7f4565b614f34565b6107e7610e6436600461a400565b614f83565b610807610e7736600461a576565b616074565b6107e76160d1565b6107e7610e9236600461a6f4565b6160d7565b61088d610ea536600461a369565b616114565b6107e7610eb836600461a369565b616129565b6107e761613b565b6107e7610ed336600461a3a1565b616141565b61088d610ee636600461a71d565b616177565b61088d610ef936600461a3a1565b616252565b6107e7616272565b6107e7616278565b61086d610f1c36600461a6f4565b61627e565b61090e610f2f36600461a3a1565b61649b565b6107e7610f4236600461a71d565b6164b7565b61088d610f5536600461a6f4565b6164d4565b610f6d610f6836600461a6f4565b6164d9565b6040516107cb919061b960565b61088d61665d565b6108db610f9036600461a6f4565b61666d565b61088d610fa336600461a369565b616718565b6107e7616739565b61086d610fbe36600461a6f4565b61673f565b6107e7616a4e565b6107e7616a54565b610807610fe136600461a369565b616a5a565b6107e7610ff436600461a6b2565b616ac8565b6107e7616add565b610807616ae3565b61088d61101736600461a6f4565b616efd565b61080761102a36600461a5ae565b616f05565b61088d616f5b565b6107e7616f74565b61090e616f7a565b6107e761105536600461a369565b616f89565b61086d61106836600461a7f4565b61703d565b61090e61755a565b606061108082616efd565b6110a55760405162461bcd60e51b815260040161109c9061b618565b60405180910390fd5b6000828152602f602090815260408083208054825181850281018501909352808352919290919083018282801561110557602002820191906000526020600020905b81546001600160a01b031681526001909101906020018083116110e7575b50505050509050600081516001600160401b0381111561113557634e487b7160e01b600052604160045260246000fd5b60405190808252806020026020018201604052801561115e578160200160208202803683370190505b50905060005b8251811015611208576022600086815260200190815260200160002060008483815181106111a257634e487b7160e01b600052603260045260246000fd5b60200260200101516001600160a01b03166001600160a01b03168152602001908152602001600020548282815181106111eb57634e487b7160e01b600052603260045260246000fd5b6020908102919091010152806112008161bd7a565b915050611164565b509150505b919050565b600061121d82616efd565b6112395760405162461bcd60e51b815260040161109c9061b618565b600061124483611e03565b15611269576000838152602a602052604090206006015461126690429061bcfc565b90505b92915050565b611277617569565b6001600160a01b0316611288614337565b6001600160a01b0316146112ae5760405162461bcd60e51b815260040161109c9061b317565b604980546001600160a01b0319166001600160a01b0392909216919091179055565b6112d8617569565b6001600160a01b03166112e9614337565b6001600160a01b03161461130f5760405162461bcd60e51b815260040161109c9061b317565b604755565b61131c617569565b6001600160a01b031661132d614337565b6001600160a01b0316146113535760405162461bcd60e51b815260040161109c9061b317565b61135b614337565b6001600160a01b0316ff5b6029602052600090815260409020805481906113819061bd3f565b80601f01602080910402602001604051908101604052809291908181526020018280546113ad9061bd3f565b80156113fa5780601f106113cf576101008083540402835291602001916113fa565b820191906000526020600020905b8154815290600101906020018083116113dd57829003601f168201915b50505060018401546002850154600386015460048701805496976001600160a01b0390941696929550909350906114309061bd3f565b80601f016020809104026020016040519081016040528092919081815260200182805461145c9061bd3f565b80156114a95780601f1061147e576101008083540402835291602001916114a9565b820191906000526020600020905b81548152906001019060200180831161148c57829003601f168201915b5050505050908060050180546114be9061bd3f565b80601f01602080910402602001604051908101604052809291908181526020018280546114ea9061bd3f565b80156115375780601f1061150c57610100808354040283529160200191611537565b820191906000526020600020905b81548152906001019060200180831161151a57829003601f168201915b5050506006909301549192505060ff1687565b603a5481565b603e5490565b606061156182616efd565b61157d5760405162461bcd60e51b815260040161109c9061b618565b6000828152602a6020908152604080832081516101c0810183528154815260018201549381019390935260028101549183019190915260038101546060830152600481015460ff808216151560808501526101008083048216151560a08601526201000090920416151560c0840152600582015460e0840152600682015490830152600781015461012083015260088101546101408301526009810180546101608401919061162b9061bd3f565b80601f01602080910402602001604051908101604052809291908181526020018280546116579061bd3f565b80156116a45780601f10611679576101008083540402835291602001916116a4565b820191906000526020600020905b81548152906001019060200180831161168757829003601f168201915b5050509183525050600a8201546020820152600b82015460409091019060ff1660038111156116e357634e487b7160e01b600052602160045260246000fd5b600381111561170257634e487b7160e01b600052602160045260246000fd5b90525060208101519091506000816001600160401b0381111561173557634e487b7160e01b600052604160045260246000fd5b60405190808252806020026020018201604052801561176857816020015b60608152602001906001900390816117535790505b50905060005b8281101561186857835160009061178690839061bcb1565b6000818152602960205260408120600401805492935090916117a79061bd3f565b80601f01602080910402602001604051908101604052809291908181526020018280546117d39061bd3f565b80156118205780601f106117f557610100808354040283529160200191611820565b820191906000526020600020905b81548152906001019060200180831161180357829003601f168201915b505050505090508084848151811061184857634e487b7160e01b600052603260045260246000fd5b6020026020010181905250505080806118609061bd7a565b91505061176e565b50949350505050565b600061187c82616efd565b6118985760405162461bcd60e51b815260040161109c9061b8eb565b6000828152602a6020526040902060060154611269906164d4565b336000908152602b60205260409020600381015460ff1615156001146118eb5760405162461bcd60e51b815260040161109c9061b2a6565b80541580159061190557506003810154610100900460ff16155b8015611917575061191533611ced565b155b156119885760038101805461ff0019166101001790556032805460018181019092557f11df491316f14931039edfd4f8964c9a443b862f02d4c7611d18c2bc4e6ff6970180546001600160a01b031916339081179091556000908152603560205260409020805460ff191690911790555b8054611a10576119973361756d565b6119a0336176c3565b6119a9336177f2565b42600282018190553360008181526035602052604090819020805460ff1990811690915560038501805490911690555190917f9dadcedba048e92b943ea1c5861cee1df63a566d7f795869c004780c1c698e2b91611a07919061a920565b60405180910390a25b6001603f6000828254611a23919061bcb1565b90915550611a319050617921565b50565b600080611a4085611d63565b90506000611a4e8683616141565b90505b8115611bc657611a618683616141565b9050848111611b1e5783821415611b16576001600160a01b0386166000908152602760205260409081902090516301c39b2b60e11b815273__$85afbab79b2b776d70bef879a32ed56424$__91630387365691611ac39190869060040161a96b565b60206040518083038186803b158015611adb57600080fd5b505af4158015611aef573d6000803e3d6000fd5b505050506040513d601f19601f82011682018060405250810190611b13919061a70c565b91505b509050611bca565b6001600160a01b0386166000908152602760205260409081902090516301c39b2b60e11b815273__$85afbab79b2b776d70bef879a32ed56424$__91630387365691611b6f9190869060040161a96b565b60206040518083038186803b158015611b8757600080fd5b505af4158015611b9b573d6000803e3d6000fd5b505050506040513d601f19601f82011682018060405250810190611bbf919061a70c565b9150611a51565b5090505b9392505050565b60208080526000928352604080842090915290825290205460ff1681565b602360209081526000928352604080842090915290825290208054611c139061bd3f565b80601f0160208091040260200160405190810160405280929190818152602001828054611c3f9061bd3f565b8015611c8c5780601f10611c6157610100808354040283529160200191611c8c565b820191906000526020600020905b815481529060010190602001808311611c6f57829003601f168201915b505050505081565b602d6020526000908152604090205481565b60308181548110611cb657600080fd5b6000918252602090912001546001600160a01b0316905081565b60405160009080602081848060185afa611ce657fe5b5051919050565b6001600160a01b031660009081526035602052604090205460ff1690565b600281600f8110611d1b57600080fd5b60020201805460019091015490915082565b60465481565b602c60205281600052604060002081600f8110611d4f57600080fd5b600202018054600190910154909250905082565b6001600160a01b03811660009081526027602052604080822090516301c39b2b60e11b815273__$85afbab79b2b776d70bef879a32ed56424$__91630387365691611db39190859060040161a96b565b60206040518083038186803b158015611dcb57600080fd5b505af4158015611ddf573d6000803e3d6000fd5b505050506040513d601f19601f82011682018060405250810190611269919061a70c565b6000611e0e82616efd565b611e2a5760405162461bcd60e51b815260040161109c9061b618565b6000828152602a6020526040902060060154611e45906164d4565b1580156112695750611e5682614633565b1592915050565b60445460ff1681565b603d5490565b60425481565b6049546001600160a01b0316611e9a5760405162461bcd60e51b815260040161109c9061ab04565b6000611ec7611ea883613072565b6001600160a01b0384166000908152602d602052604090205490617bff565b905082811015611ee95760405162461bcd60e51b815260040161109c9061b59c565b6049546040805163ca64f9e760e01b815290516000926001600160a01b03169163ca64f9e7916004808301926020929190829003018186803b158015611f2e57600080fd5b505afa158015611f42573d6000803e3d6000fd5b505050506040513d601f19601f82011682018060405250810190611f66919061a385565b604051630895993360e11b81529091506001600160a01b0382169063112b326690611f97908790879060040161baee565b602060405180830381600087803b158015611fb157600080fd5b505af1158015611fc5573d6000803e3d6000fd5b505050506040513d601f19601f82011682018060405250810190611fe9919061a592565b6120055760405162461bcd60e51b815260040161109c9061b84a565b6001600160a01b0383166000908152602d60205260408120805486929061202d90849061bcfc565b9091555061203b9050617921565b826001600160a01b03167ffaeb7dbb9992397d26ea1944efd40c80b40f702faf69b46c67ad10aba68ccb7985604051612074919061a920565b60405180910390a250505050565b6000818152602a6020908152604080832081516101c0810183528154815260018201549381019390935260028101549183019190915260038101546060830152600481015460ff808216151560808501526101008083048216151560a08601526201000090920416151560c0840152600582015460e084015260068201549083015260078101546101208301526008810154610140830152600981018054849392916101608401916121339061bd3f565b80601f016020809104026020016040519081016040528092919081815260200182805461215f9061bd3f565b80156121ac5780601f10612181576101008083540402835291602001916121ac565b820191906000526020600020905b81548152906001019060200180831161218f57829003601f168201915b5050509183525050600a8201546020820152600b82015460409091019060ff1660038111156121eb57634e487b7160e01b600052602160045260246000fd5b600381111561220a57634e487b7160e01b600052602160045260246000fd5b9052506101408101516101208201519192506122259161bcb1565b604960009054906101000a90046001600160a01b03166001600160a01b031663ea19733c6040518163ffffffff1660e01b815260040160206040518083038186803b15801561227357600080fd5b505afa158015612287573d6000803e3d6000fd5b505050506040513d601f19601f820116820180604052508101906122ab919061a70c565b6122b5919061bcdd565b6101208201516122c690606461bcdd565b119392505050565b6001600160a01b031660009081526034602052604090205460ff1690565b600060606000841180156122ff57508284105b61231b5760405162461bcd60e51b815260040161109c9061b06e565b600080612328868661bcfc565b61233390600161bcb1565b90506000816001600160401b0381111561235d57634e487b7160e01b600052604160045260246000fd5b604051908082528060200260200182016040528015612386578160200160208202803683370190505b509050865b61239687600161bcb1565b81101561257e576000818152602a6020908152604080832081516101c0810183528154815260018201549381019390935260028101549183019190915260038101546060830152600481015460ff808216151560808501526101008083048216151560a08601526201000090920416151560c0840152600582015460e0840152600682015490830152600781015461012083015260088101546101408301526009810180546101608401919061244b9061bd3f565b80601f01602080910402602001604051908101604052809291908181526020018280546124779061bd3f565b80156124c45780601f10612499576101008083540402835291602001916124c4565b820191906000526020600020905b8154815290600101906020018083116124a757829003601f168201915b5050509183525050600a8201546020820152600b82015460409091019060ff16600381111561250357634e487b7160e01b600052602160045260246000fd5b600381111561252257634e487b7160e01b600052602160045260246000fd5b905250610180810151909150612538908661bcb1565b945080610180015183838151811061256057634e487b7160e01b600052603260045260246000fd5b602090810291909101015250806125768161bd7a565b91505061238b565b50600061258b838561bcc9565b95509093505050505b9250929050565b6125a3617569565b6001600160a01b03166125b4614337565b6001600160a01b0316146125da5760405162461bcd60e51b815260040161109c9061b317565b6000818152602960205260408120906125f3828261a0dd565b6001820180546001600160a01b03191690556000600283018190556003830181905561262390600484019061a0dd565b61263160058301600061a0dd565b50600601805460ff1916905550565b603c5490565b60366020526000908152604090205481565b60305490565b6049546001600160a01b03166126865760405162461bcd60e51b815260040161109c9061ab04565b6001600160a01b0381166000908152602c60205260408120906126ab6001600f61bcfc565b905060008282600f81106126cf57634e487b7160e01b600052603260045260246000fd5b6002020154604954604080516307bc663b60e11b815290519293506001600160a01b0390911691630f78cc7691600480820192602092909190829003018186803b15801561271c57600080fd5b505afa158015612730573d6000803e3d6000fd5b505050506040513d601f19601f82011682018060405250810190612754919061a70c565b61275e824261bcfc565b11156128475760005b6127736001600f61bcfc565b8110156127f2578361278682600161bcb1565b600f81106127a457634e487b7160e01b600052603260045260246000fd5b600202018482600f81106127c857634e487b7160e01b600052603260045260246000fd5b825460029190910291909101908155600191820154910155806127ea8161bd7a565b915050612767565b50428383600f811061281457634e487b7160e01b600052603260045260246000fd5b600202015560008383600f811061283b57634e487b7160e01b600052603260045260246000fd5b60020201600101819055505b50505050565b6001600160a01b0381166000908152602660209081526040918290208054835181840281018401909452808452606093928301828280156128ad57602002820191906000526020600020905b815481526020019060010190808311612899575b50505050509050919050565b60376020526000908152604090205481565b6128d361a119565b60008281526029602052604090819020815160e081019092528054829082906128fb9061bd3f565b80601f01602080910402602001604051908101604052809291908181526020018280546129279061bd3f565b80156129745780601f1061294957610100808354040283529160200191612974565b820191906000526020600020905b81548152906001019060200180831161295757829003601f168201915b505050918352505060018201546001600160a01b0316602082015260028201546040820152600382015460608201526004820180546080909201916129b89061bd3f565b80601f01602080910402602001604051908101604052809291908181526020018280546129e49061bd3f565b8015612a315780601f10612a0657610100808354040283529160200191612a31565b820191906000526020600020905b815481529060010190602001808311612a1457829003601f168201915b50505050508152602001600582018054612a4a9061bd3f565b80601f0160208091040260200160405190810160405280929190818152602001828054612a769061bd3f565b8015612ac35780601f10612a9857610100808354040283529160200191612ac3565b820191906000526020600020905b815481529060010190602001808311612aa657829003601f168201915b5050509183525050600682015460209091019060ff166003811115612af857634e487b7160e01b600052602160045260246000fd5b6003811115612b1757634e487b7160e01b600052602160045260246000fd5b90525092915050565b602460209081526000928352604080842090915290825290205481565b60266020528160005260406000208181548110612b5957600080fd5b90600052602060002001600091509150505481565b6060612b7982616efd565b612b955760405162461bcd60e51b815260040161109c9061b618565b6000828152602f6020908152604080832080548251818502810185019093528083529192909190830182828015612bf557602002820191906000526020600020905b81546001600160a01b03168152600190910190602001808311612bd7575b50505050509050600081516001600160401b03811115612c2557634e487b7160e01b600052604160045260246000fd5b604051908082528060200260200182016040528015612c5857816020015b6060815260200190600190039081612c435790505b50905060005b825181101561120857602560008681526020019081526020016000206000848381518110612c9c57634e487b7160e01b600052603260045260246000fd5b60200260200101516001600160a01b03166001600160a01b031681526020019081526020016000208054612ccf9061bd3f565b80601f0160208091040260200160405190810160405280929190818152602001828054612cfb9061bd3f565b8015612d485780601f10612d1d57610100808354040283529160200191612d48565b820191906000526020600020905b815481529060010190602001808311612d2b57829003601f168201915b5050505050828281518110612d6d57634e487b7160e01b600052603260045260246000fd5b60200260200101819052508080612d839061bd7a565b915050612c5e565b6049546001600160a01b0316612db35760405162461bcd60e51b815260040161109c9061ab04565b6000612dc16001600f61bcfc565b90506000600282600f8110612de657634e487b7160e01b600052603260045260246000fd5b6002020154604954604080516307bc663b60e11b815290519293506001600160a01b0390911691630f78cc7691600480820192602092909190829003018186803b158015612e3357600080fd5b505afa158015612e47573d6000803e3d6000fd5b505050506040513d601f19601f82011682018060405250810190612e6b919061a70c565b612e75824261bcfc565b1115612f685760005b612e8a6001600f61bcfc565b811015612f0b576002612e9e82600161bcb1565b600f8110612ebc57634e487b7160e01b600052603260045260246000fd5b60020201600282600f8110612ee157634e487b7160e01b600052603260045260246000fd5b82546002919091029190910190815560019182015491015580612f038161bd7a565b915050612e7e565b5042600283600f8110612f2e57634e487b7160e01b600052603260045260246000fd5b60020201600001819055506000600283600f8110612f5c57634e487b7160e01b600052603260045260246000fd5b60020201600101819055505b5050565b612f74617569565b6001600160a01b0316612f85614337565b6001600160a01b031614612fab5760405162461bcd60e51b815260040161109c9061b317565b6000818152602a6020526040812081815560018101829055600281018290556003810182905560048101805462ffffff191690556005810182905560068101829055600781018290556008810182905590613009600983018261a0dd565b506000600a820155600b01805460ff1916905550565b600061302a82616efd565b6130365750600061120d565b6000828152602a6020526040902060060154613051906164d4565b8061306b57506000828152602a6020526040902060030154155b905061120d565b600061126982610ed384611d63565b600061308c82616efd565b6130985750600061120d565b6000828152602a60205260409020600501546130b3906164d4565b8061306b575061306b82611e03565b6001600160a01b03166000908152602d602052604090205490565b6130e5617569565b6001600160a01b03166130f6614337565b6001600160a01b03161461311c5760405162461bcd60e51b815260040161109c9061b317565b6131266000617c0b565b565b600061313382616efd565b61314f5760405162461bcd60e51b815260040161109c9061b618565b506000908152602a602052604090206006015490565b60475481565b60315490565b600061317c82616efd565b6131985760405162461bcd60e51b815260040161109c9061b618565b60006131a383614633565b15611269576000838152602a602052604090206005015461126690429061bcfc565b6049546001600160a01b03166131ed5760405162461bcd60e51b815260040161109c9061ab04565b6131f5612d8b565b6131fd617c5b565b600061328e82604960009054906101000a90046001600160a01b03166001600160a01b0316637d630cb06040518163ffffffff1660e01b815260040160206040518083038186803b15801561325157600080fd5b505afa158015613265573d6000803e3d6000fd5b505050506040513d601f19601f82011682018060405250810190613289919061a70c565b617e24565b905060005b8181101561335157603d546000908152602a602052604081206004015462010000900460ff16151560011480156132ed57506132d0603d54611871565b806132ed5750603d546000908152602a6020526040902060030154155b1561333357603d546000908152602a6020526040902060040154610100900460ff1661331e5761331e603d54617e3a565b603d5461332c906001619637565b603d555060015b8061333e5750613351565b50806133498161bd7a565b915050613293565b5061335b81619643565b613363614a14565b6039541461351b5760005b8181101561351957603e546000908152602a602052604081206004015462010000900460ff16151560011480159061342d5750604960009054906101000a90046001600160a01b03166001600160a01b031663bd40ef4c6040518163ffffffff1660e01b815260040160206040518083038186803b1580156133ef57600080fd5b505afa158015613403573d6000803e3d6000fd5b505050506040513d601f19601f82011682018060405250810190613427919061a70c565b60305410155b801561344d5750603e546000908152602a602052604090206004015460ff165b80156134ea5750604960009054906101000a90046001600160a01b03166001600160a01b031663c4a306f86040518163ffffffff1660e01b815260040160206040518083038186803b1580156134a257600080fd5b505afa1580156134b6573d6000803e3d6000fd5b505050506040513d601f19601f820116820180604052508101906134da919061a70c565b6001546134e7904261bcfc565b10155b156134fb576134f761974e565b5060015b806135065750613519565b50806135118161bd7a565b91505061336e565b505b612f68617921565b600061126661353284846145f4565b6040518060400160405280600a8152602001690c6dedadad2e890c2e6d60b31b81525061428b565b613562617569565b6001600160a01b0316613573614337565b6001600160a01b0316146135995760405162461bcd60e51b815260040161109c9061b317565b604655565b6031546030546000916135b09161bcb1565b905090565b60006135c082616efd565b6135dc5760405162461bcd60e51b815260040161109c9061b618565b506001600160a01b0391909116600090815260208080526040808320938352929052205460ff1690565b602a60205260009081526040902080546001820154600283015460038401546004850154600586015460068701546007880154600889015460098a018054999a98999798969760ff808816986101008904821698620100009004909116969594939290916136739061bd3f565b80601f016020809104026020016040519081016040528092919081815260200182805461369f9061bd3f565b80156136ec5780601f106136c1576101008083540402835291602001916136ec565b820191906000526020600020905b8154815290600101906020018083116136cf57829003601f168201915b50505050600a830154600b9093015491929160ff1690508e565b600080805b600f81101561375c57600281600f811061373557634e487b7160e01b600052603260045260246000fd5b600202016001015482613748919061bcb1565b9150806137548161bd7a565b91505061370b565b50905090565b60008061376f8487616141565b831015905060006137808587616141565b8411158061378c575085155b90508180156137985750805b979650505050505050565b60318181548110611cb657600080fd5b6049546001600160a01b03166137db5760405162461bcd60e51b815260040161109c9061ab04565b6137e485614633565b6138005760405162461bcd60e51b815260040161109c9061abd1565b3360009081526020808052604080832088845290915290205460ff16156138395760405162461bcd60e51b815260040161109c9061b6dd565b6138438533616177565b61385f5760405162461bcd60e51b815260040161109c9061ae33565b60495460408051632a49798160e11b815290516000926001600160a01b031691635492f302916004808301926020929190829003018186803b1580156138a457600080fd5b505afa1580156138b8573d6000803e3d6000fd5b505050506040513d601f19601f820116820180604052508101906138dc919061a385565b6001600160a01b031614156139035760405162461bcd60e51b815260040161109c9061b8a7565b604954604080516001624ee91360e11b0319815290516000926001600160a01b03169163ff622dda916004808301926020929190829003018186803b15801561394b57600080fd5b505afa15801561395f573d6000803e3d6000fd5b505050506040513d601f19601f82011682018060405250810190613983919061a70c565b905060006139913383613d9c565b604954909150600160a01b900460ff16156139f8576001600160a01b0381166000908152602d60205260409020548211156139f8576001600160a01b0381166000908152602d60205260408120546139ea908490617bff565b90506139f68183619d68565b505b6000336000908152602760205260408082209051631e0f232560e31b815273__$85afbab79b2b776d70bef879a32ed56424$__9163f079192891613a419190869060040161a96b565b60206040518083038186803b158015613a5957600080fd5b505af4158015613a6d573d6000803e3d6000fd5b505050506040513d601f19601f82011682018060405250810190613a91919061a70c565b905088811415613b365733600090815260276020526040908190209051631e0f232560e31b815273__$85afbab79b2b776d70bef879a32ed56424$__9163f079192891613ae391908d9060040161a96b565b60206040518083038186803b158015613afb57600080fd5b505af4158015613b0f573d6000803e3d6000fd5b505050506040513d601f19601f82011682018060405250810190613b33919061a70c565b90505b613b4282823387613762565b613b5e5760405162461bcd60e51b815260040161109c9061b21b565b3360009081526027602052604090819020905163524cfe5360e11b815273__$85afbab79b2b776d70bef879a32ed56424$__9163a499fca691613baa919086908e90879060040161ba37565b60006040518083038186803b158015613bc257600080fd5b505af4158015613bd6573d6000803e3d6000fd5b505050506000613be6338b6145f4565b9050613c1481604051806040016040528060098152602001686e756d546f6b656e7360b81b81525087614234565b613c44816040518060400160405280600a8152602001690c6dedadad2e890c2e6d60b31b8152508b60001c614234565b613c74816040518060400160405280600a815260200169636f6d6d6974566f746560b01b8152508a60001c614234565b60008a8152602460209081526040808320338085529083528184208b90558d84526025835281842090845282529091208751613cb29289019061a17d565b50336000908152602b602090815260408083208d8452602a90925290912060020154613cdf906001617bff565b60008c8152602a6020908152604080832060029081019490945542938501939093553382528080528282208e83529052908120805460ff19166001908117909155603f805491929091613d3390849061bcb1565b90915550613d419050617921565b336001600160a01b03168b7f42864d9683ff5b12c3b2cc65d705af5aab104b03bc700b802f79e5c971ef08a188604051613d7b919061a920565b60405180910390a35050505050505050505050565b603c5481565b60395481565b6049546000906001600160a01b0316613dc75760405162461bcd60e51b815260040161109c9061ab04565b60495460408051632a49798160e11b815290516000926001600160a01b031691635492f302916004808301926020929190829003018186803b158015613e0c57600080fd5b505afa158015613e20573d6000803e3d6000fd5b505050506040513d601f19601f82011682018060405250810190613e44919061a385565b6001600160a01b03161415613e6b5760405162461bcd60e51b815260040161109c9061b8a7565b6049546040805163ca64f9e760e01b815290516000926001600160a01b03169163ca64f9e7916004808301926020929190829003018186803b158015613eb057600080fd5b505afa158015613ec4573d6000803e3d6000fd5b505050506040513d601f19601f82011682018060405250810190613ee8919061a385565b6001600160a01b03161415613f0f5760405162461bcd60e51b815260040161109c9061b475565b6049546040805163ca64f9e760e01b815290516000926001600160a01b03169163ca64f9e7916004808301926020929190829003018186803b158015613f5457600080fd5b505afa158015613f68573d6000803e3d6000fd5b505050506040513d601f19601f82011682018060405250810190613f8c919061a385565b90506000604960009054906101000a90046001600160a01b03166001600160a01b0316635492f3026040518163ffffffff1660e01b815260040160206040518083038186803b158015613fde57600080fd5b505afa158015613ff2573d6000803e3d6000fd5b505050506040513d601f19601f82011682018060405250810190614016919061a385565b90508480600360005b818110156142035760405163065ee72760e51b81526000906001600160a01b0388169063cbdce4e09061405690879060040161a979565b60206040518083038186803b15801561406e57600080fd5b505afa158015614082573d6000803e3d6000fd5b505050506040513d601f19601f820116820180604052508101906140a6919061a70c565b6001600160a01b0385166000908152602d602052604090205490915089116140d15783945050614203565b6001600160a01b0384166000908152602d6020526040902054891080159061411057506001600160a01b0384166000908152602d602052604090205415155b1561414e576001600160a01b0384166000908152602d6020526040812054614139908b90617bff565b905080821061414c578495505050614203565b505b88811061415e5783945050614203565b60405163792f4f6960e11b81526001600160a01b0387169063f25e9ed29061418a90879060040161a979565b60206040518083038186803b1580156141a257600080fd5b505afa1580156141b6573d6000803e3d6000fd5b505050506040513d601f19601f820116820180604052508101906141da919061a385565b93506001600160a01b0384166141f05750614203565b50806141fb8161bd7a565b91505061401f565b5091979650505050505050565b602560209081526000928352604080842090915290825290208054611c139061bd3f565b6000838360405160200161424992919061a929565b60408051601f19818403018152918152815160209283012060009081526028909252902091909155505050565b60336020526000908152604090205460ff1681565b60008083836040516020016142a192919061a929565b60408051808303601f19018152918152815160209283012060009081526028909252902054949350505050565b602b602052600090815260409020805460018201546002830154600384015460048501546005860154600687015460079097015495969495939460ff80851695610100909504169389565b6001600160a01b031660009081526033602052604090205460ff1690565b6000546001600160a01b031690565b602f602052816000526040600020818154811061436257600080fd5b6000918252602090912001546001600160a01b03169150829050565b60016000828152602a60205260409020600b015460ff1660038111156143b457634e487b7160e01b600052602160045260246000fd5b146143d15760405162461bcd60e51b815260040161109c9061ab3b565b336000908152602760205260409081902090516306120d1f60e31b815273__$85afbab79b2b776d70bef879a32ed56424$__9163309068f8916144199190859060040161a96b565b60206040518083038186803b15801561443157600080fd5b505af4158015614445573d6000803e3d6000fd5b505050506040513d601f19601f82011682018060405250810190614469919061a592565b6144855760405162461bcd60e51b815260040161109c9061b0fb565b336000908152602760205260409081902090516301039dfd60e11b815273__$85afbab79b2b776d70bef879a32ed56424$__916302073bfa916144cd9190859060040161a96b565b60006040518083038186803b1580156144e557600080fd5b505af41580156144f9573d6000803e3d6000fd5b50505050614505617921565b604051339082907f402507661c8c8cb90e0a796450b8bdd28b6c516f05279c0cd29e84c344e1699a90600090a350565b60405481565b6001600160a01b0381166000908152602c6020526040812081805b600f811015611208578281600f811061457f57634e487b7160e01b600052603260045260246000fd5b600202016001015482614592919061bcb1565b91508061459e8161bd7a565b915050614556565b60005b8151811015612f68576145e28282815181106145d557634e487b7160e01b600052603260045260246000fd5b602002602001015161437e565b806145ec8161bd7a565b9150506145a9565b6000828260405160200161460992919061a8fe565b60405160208183030381529060405280519060200120905092915050565b60405490565b60415481565b600061463e82616efd565b61465a5760405162461bcd60e51b815260040161109c9061b618565b6000828152602a6020526040902060050154614675906164d4565b1580156112695750506000908152602a6020526040902060020154151590565b603a5490565b60356020526000908152604090205460ff1681565b6000816040516020016146c3919061a94f565b60405160208183030381529060405280519060200120836040516020016146ea919061a94f565b60405160208183030381529060405280519060200120141561470e57506001611269565b506000611269565b61471f84611e03565b61473b5760405162461bcd60e51b815260040161109c9061b556565b3360009081526020808052604080832087845290915290205460ff166147735760405162461bcd60e51b815260040161109c9061afd5565b33600090815260216020908152604080832087845290915290205460ff16156147ae5760405162461bcd60e51b815260040161109c9061b914565b6147b83385613523565b6147c28483616ac8565b146147df5760405162461bcd60e51b815260040161109c9061ac98565b6147e93385614ac9565b6147f38383614bdd565b146148105760405162461bcd60e51b815260040161109c9061ac20565b600061481c3386616141565b90508260011415614853576000858152602a60205260408120600701805483929061484890849061bcb1565b9091555061487a9050565b6000858152602a60205260408120600801805483929061487490849061bcb1565b90915550505b3360008181526021602090815260408083208984528252808320805460ff191660011790556022825280832084845282528083208790558883526023825280832093835292815291902085516148d29287019061a17d565b50336000908152602b60209081526040808320888452602a909252909120600301546148ff906001617bff565b6000878152602a6020526040902060039081019190915542600283015581015460ff161561493d5760008155614934336176c3565b61493d33619f9d565b6001603f6000828254614950919061bcb1565b9091555061495e9050617921565b6000868152602a60205260409081902060078101546008909101549151339287928a927f0867b5027231dcbf37614eaad07d667b9febaf9fdf483f488229b1f140bb0748926149b192899290919061bb3c565b60405180910390a4505050505050565b60006149cc82616efd565b6149e85760405162461bcd60e51b815260040161109c9061b618565b506001600160a01b03919091166000908152602160209081526040808320938352929052205460ff1690565b6000804241604051602001614a29919061a8e1565b6040516020818303038152906040528051906020012060001c614a4c919061bcc9565b44614a55611cd0565b604051602001614a65919061a920565b60408051601f198184030181529190528051602090910120614a87904261bcb1565b614a91919061bcb1565b614a9b919061bcb1565b604051602001614aab919061a920565b60408051601f19818403018152919052805160209091012091505090565b6000611266614ad884846145f4565b6040518060400160405280600a815260200169636f6d6d6974566f746560b01b81525061428b565b60328181548110611cb657600080fd5b6001600160a01b0381166000908152602b602090815260408083208151610120810183528154808252600183015494820194909452600282015492810192909252600381015460ff80821615156060850152610100918290041615156080840152600482015460a0840152600582015460c0840152600682015460e0840152600790910154908201528291614ba585826149c1565b158015614bb85750614bb681611871565b155b8015614bca5750614bc881613081565b155b15614bd457600192505b50909392505050565b6000828260405160200161460992919061a96b565b606060008211614c145760405162461bcd60e51b815260040161109c9061b2f2565b600041604051602001614c27919061a8e1565b6040516020818303038152906040528051906020012060001c614c48611cd0565b604051602001614c58919061a920565b60408051601f198184030181529190528051602090910120614c7a904261bcb1565b614c84919061bcb1565b604051602001614c94919061a920565b6040516020818303038152906040528051906020012060001c90506000846001600160401b03811115614cd757634e487b7160e01b600052604160045260246000fd5b604051908082528060200260200182016040528015614d00578160200160208202803683370190505b50905060008080614d1287600a61bcdd565b90505b87831015614e1d57600087614d2e63017efeeb8861bcfc565b84604051602001614d4092919061a96b565b6040516020818303038152906040528051906020012060001c614d63919061bd95565b90506000805b85811015614dbb5782878281518110614d9257634e487b7160e01b600052603260045260246000fd5b60200260200101511415614da95760019150614dbb565b80614db38161bd7a565b915050614d69565b5080614dfb5781868681518110614de257634e487b7160e01b600052603260045260246000fd5b6020908102919091010152614df885600161bcb1565b94505b614e0684600161bcb1565b9350828410614e16575050614e1d565b5050614d15565b878314614e3c5760405162461bcd60e51b815260040161109c9061b1f1565b50919695505050505050565b6000614e5383611871565b614e6f5760405162461bcd60e51b815260040161109c9061b800565b6001600160a01b038416600090815260216020908152604080832086845290915290205460ff16614eb25760405162461bcd60e51b815260040161109c9061b158565b6000614ebd84612082565b614ec8576000614ecb565b60015b60ff16905060008184604051602001614ee592919061a96b565b6040516020818303038152906040528051906020012090506000614f098787614ac9565b9050808214614f2a5760405162461bcd60e51b815260040161109c9061b4b7565b6137988787616141565b6060600082118015614f465750818311155b8015614f53575060018310155b614f6f5760405162461bcd60e51b815260040161109c9061ae90565b6000614f7b8484614bf2565b949350505050565b6049546000906001600160a01b0316614fae5760405162461bcd60e51b815260040161109c9061ab04565b604960009054906101000a90046001600160a01b03166001600160a01b0316634e87c5a86040518163ffffffff1660e01b815260040160206040518083038186803b158015614ffc57600080fd5b505afa158015615010573d6000803e3d6000fd5b505050506040513d601f19601f82011682018060405250810190615034919061a592565b6150505760405162461bcd60e51b815260040161109c9061b024565b855184146150705760405162461bcd60e51b815260040161109c9061b690565b615078612d8b565b604960009054906101000a90046001600160a01b03166001600160a01b031663b38e885e6040518163ffffffff1660e01b815260040160206040518083038186803b1580156150c657600080fd5b505afa1580156150da573d6000803e3d6000fd5b505050506040513d601f19601f820116820180604052508101906150fe919061a70c565b615106613706565b106151235760405162461bcd60e51b815260040161109c9061b0a5565b604954604080516001624ee91360e11b0319815290516000926001600160a01b03169163ff622dda916004808301926020929190829003018186803b15801561516b57600080fd5b505afa15801561517f573d6000803e3d6000fd5b505050506040513d601f19601f820116820180604052508101906151a3919061a70c565b905060006151b13383613d9c565b90506151bc8161265e565b604960009054906101000a90046001600160a01b03166001600160a01b031663be2509886040518163ffffffff1660e01b815260040160206040518083038186803b15801561520a57600080fd5b505afa15801561521e573d6000803e3d6000fd5b505050506040513d601f19601f82011682018060405250810190615242919061a70c565b61524b8261453b565b1080156152e35750604960009054906101000a90046001600160a01b03166001600160a01b031663b38e885e6040518163ffffffff1660e01b815260040160206040518083038186803b1580156152a157600080fd5b505afa1580156152b5573d6000803e3d6000fd5b505050506040513d601f19601f820116820180604052508101906152d9919061a70c565b6152e1613706565b105b80156153005750604654603d54603c546152fd919061bcfc565b11155b1561602f57604954600160a01b900460ff1615615369576001600160a01b0381166000908152602d6020526040902054821115615369576001600160a01b0381166000908152602d602052604081205461535b908490617bff565b90506153678183619d68565b505b60005b885181101561602d57600089828151811061539757634e487b7160e01b600052603260045260246000fd5b6020026020010151905060008989848181106153c357634e487b7160e01b600052603260045260246000fd5b90506020028101906153d5919061bc21565b8080601f016020809104026020016040519081016040528093929190818152602001838380828437600092018290525033808252602660209081526040808420603a54815460018101835591865283862090910155805160e0810182528a8152918201929092524291810191909152606081018e90526080810186905260a081018d905294955060c085019350915061546b9050565b9052603a5460009081526029602090815260409091208251805191926154969284929091019061a17d565b506020828101516001830180546001600160a01b0319166001600160a01b039092169190911790556040830151600283015560608301516003830155608083015180516154e9926004850192019061a17d565b5060a0820151805161550591600584019160209091019061a17d565b5060c082015160068201805460ff1916600183600381111561553757634e487b7160e01b600052602160045260246000fd5b021790555050603c546000908152602a60209081526040918290206049548351634e8f956d60e11b815293519194506001600160a01b031692639d1f2ada926004808301939192829003018186803b15801561559257600080fd5b505afa1580156155a6573d6000803e3d6000fd5b505050506040513d601f19601f820116820180604052508101906155ca919061a70c565b816001015410156155f05760018160010160008282546155ea919061bcb1565b90915550505b604960009054906101000a90046001600160a01b03166001600160a01b0316639d1f2ada6040518163ffffffff1660e01b815260040160206040518083038186803b15801561563e57600080fd5b505afa158015615652573d6000803e3d6000fd5b505050506040513d601f19601f82011682018060405250810190615676919061a70c565b8160010154106156c557600481018054600160ff19909116811761ff001916909155603c80546000906156aa90849061bcb1565b9091555050603a54603c546000908152602a60205260409020555b603a546156d390600161bcb1565b603a55600160026156e582600f61bcfc565b600f811061570357634e487b7160e01b600052603260045260246000fd5b600202016001016000828254615719919061bcb1565b90915550506001600160a01b0385166000908152602c6020526040902060018161574482600f61bcfc565b600f811061576257634e487b7160e01b600052603260045260246000fd5b600202016001016000828254615778919061bcb1565b909155505060445460ff16151560011415615c2a5760495460408051632a49798160e11b8152905133926000926001600160a01b0390911691635492f30291600480820192602092909190829003018186803b1580156157d757600080fd5b505afa1580156157eb573d6000803e3d6000fd5b505050506040513d601f19601f8201168201806040525081019061580f919061a385565b90506000604960009054906101000a90046001600160a01b03166001600160a01b0316630855d1516040518163ffffffff1660e01b815260040160206040518083038186803b15801561586157600080fd5b505afa158015615875573d6000803e3d6000fd5b505050506040513d601f19601f82011682018060405250810190615899919061a385565b90506000604960009054906101000a90046001600160a01b03166001600160a01b03166304e76c8f6040518163ffffffff1660e01b815260040160206040518083038186803b1580156158eb57600080fd5b505afa1580156158ff573d6000803e3d6000fd5b505050506040513d601f19601f82011682018060405250810190615923919061a385565b90506000836001600160a01b03166311815086866040518263ffffffff1660e01b8152600401615953919061a979565b60206040518083038186803b15801561596b57600080fd5b505afa15801561597f573d6000803e3d6000fd5b505050506040513d601f19601f820116820180604052508101906159a3919061a385565b90506000604554604960009054906101000a90046001600160a01b03166001600160a01b03166330c0bb796040518163ffffffff1660e01b815260040160206040518083038186803b1580156159f857600080fd5b505afa158015615a0c573d6000803e3d6000fd5b505050506040513d601f19601f82011682018060405250810190615a30919061a70c565b615a3b90606461bcdd565b615a45919061bcc9565b90506000604554604960009054906101000a90046001600160a01b03166001600160a01b031663abb10b9b6040518163ffffffff1660e01b815260040160206040518083038186803b158015615a9a57600080fd5b505afa158015615aae573d6000803e3d6000fd5b505050506040513d601f19601f82011682018060405250810190615ad2919061a70c565b615add90606461bcdd565b615ae7919061bcc9565b604051630db6cc8560e11b81529091506001600160a01b03861690631b6d990a90615b18908490879060040161bb05565b602060405180830381600087803b158015615b3257600080fd5b505af1158015615b46573d6000803e3d6000fd5b505050506040513d601f19601f82011682018060405250810190615b6a919061a592565b615b865760405162461bcd60e51b815260040161109c9061b1a3565b604051633832942560e21b81526001600160a01b0385169063e0ca509490615bb4908590879060040161baee565b602060405180830381600087803b158015615bce57600080fd5b505af1158015615be2573d6000803e3d6000fd5b505050506040513d601f19601f82011682018060405250810190615c06919061a592565b615c225760405162461bcd60e51b815260040161109c9061b34c565b505050505050505b615c3460016131c5565b60495460408051637b39b17f60e11b815290516000926001600160a01b03169163f67362fe916004808301926020929190829003018186803b158015615c7957600080fd5b505afa158015615c8d573d6000803e3d6000fd5b505050506040513d601f19601f82011682018060405250810190615cb1919061a385565b604051633d18199160e11b81529091506001600160a01b03821690637a30332290615ce19060019060040161a920565b600060405180830381600087803b158015615cfb57600080fd5b505af1925050508015615d0c575060015b615d67573d808015615d3a576040519150601f19603f3d011682016040523d82523d6000602084013e615d3f565b606091505b5060008051602061be0f83398151915281604051615d5d919061aa0b565b60405180910390a1505b60495460408051637a0ec25b60e01b815290516000926001600160a01b031691637a0ec25b916004808301926020929190829003018186803b158015615dac57600080fd5b505afa158015615dc0573d6000803e3d6000fd5b505050506040513d601f19601f82011682018060405250810190615de4919061a385565b604051633d18199160e11b81529091506001600160a01b03821690637a30332290615e149060019060040161a920565b600060405180830381600087803b158015615e2e57600080fd5b505af1925050508015615e3f575060015b615e9a573d808015615e6d576040519150601f19603f3d011682016040523d82523d6000602084013e615e72565b606091505b5060008051602061be0f83398151915281604051615e90919061aa0b565b60405180910390a1505b6049546040805163463444b760e01b815290516000926001600160a01b03169163463444b7916004808301926020929190829003018186803b158015615edf57600080fd5b505afa158015615ef3573d6000803e3d6000fd5b505050506040513d601f19601f82011682018060405250810190615f17919061a385565b604051633d18199160e11b81529091506001600160a01b03821690637a30332290615f479060019060040161a920565b600060405180830381600087803b158015615f6157600080fd5b505af1925050508015615f72575060015b615fcd573d808015615fa0576040519150601f19603f3d011682016040523d82523d6000602084013e615fa5565b606091505b5060008051602061be0f83398151915281604051615fc3919061aa0b565b60405180910390a1505b886001600160a01b0316603a547fb819ca9ac369919119f75ec7363dd954f75bcfa75f9245647e03da413be0d582898960405161600b92919061aab4565b60405180910390a35050505050505080806160259061bd7a565b91505061536c565b505b336000908152602b6020526040902042600282015561604c617921565b6001603f600082825461605f919061bcb1565b9091555050603a549998505050505050505050565b61607c617569565b6001600160a01b031661608d614337565b6001600160a01b0316146160b35760405162461bcd60e51b815260040161109c9061b317565b60498054911515600160a01b0260ff60a01b19909216919091179055565b60455481565b60006160e282616efd565b6160fe5760405162461bcd60e51b815260040161109c9061b618565b506000908152602a602052604090206005015490565b60346020526000908152604090205460ff1681565b60386020526000908152604090205481565b60015481565b600061126661615084846145f4565b604051806040016040528060098152602001686e756d546f6b656e7360b81b81525061428b565b6000828152602f602090815260408083208054825181850281018501909352808352849384939291908301828280156161d957602002820191906000526020600020905b81546001600160a01b031681526001909101906020018083116161bb575b5050505050905060005b815181101561624857846001600160a01b031682828151811061621657634e487b7160e01b600052603260045260246000fd5b60200260200101516001600160a01b031614156162365760019250616248565b806162408161bd7a565b9150506161e3565b5090949350505050565b602160209081526000928352604080842090915290825290205460ff1681565b603b5481565b603e5481565b606061628982616efd565b6162a55760405162461bcd60e51b815260040161109c9061b618565b6000828152602f602090815260408083208054825181850281018501909352808352919290919083018282801561630557602002820191906000526020600020905b81546001600160a01b031681526001909101906020018083116162e7575b50505050509050600081516001600160401b0381111561633557634e487b7160e01b600052604160045260246000fd5b60405190808252806020026020018201604052801561636857816020015b60608152602001906001900390816163535790505b50905060005b8251811015611208576023600086815260200190815260200160002060008483815181106163ac57634e487b7160e01b600052603260045260246000fd5b60200260200101516001600160a01b03166001600160a01b0316815260200190815260200160002080546163df9061bd3f565b80601f016020809104026020016040519081016040528092919081815260200182805461640b9061bd3f565b80156164585780601f1061642d57610100808354040283529160200191616458565b820191906000526020600020905b81548152906001019060200180831161643b57829003601f168201915b505050505082828151811061647d57634e487b7160e01b600052603260045260246000fd5b602002602001018190525080806164939061bd7a565b91505061636e565b602e602052816000526040600020818154811061436257600080fd5b602260209081526000928352604080842090915290825290205481565b421190565b6164e161a201565b6164ea82616efd565b6164f357600080fd5b6000828152602a602090815260409182902082516101c0810184528154815260018201549281019290925260028101549282019290925260038201546060820152600482015460ff808216151560808401526101008083048216151560a08501526201000090920416151560c0830152600583015460e083015260068301549082015260078201546101208201526008820154610140820152600982018054919291610160840191906165a59061bd3f565b80601f01602080910402602001604051908101604052809291908181526020018280546165d19061bd3f565b801561661e5780601f106165f35761010080835404028352916020019161661e565b820191906000526020600020905b81548152906001019060200180831161660157829003601f168201915b5050509183525050600a8201546020820152600b82015460409091019060ff166003811115612af857634e487b7160e01b600052602160045260246000fd5b604954600160a01b900460ff1681565b606061667882616efd565b61668157600080fd5b6000828152602a60205260409020600901805461669d9061bd3f565b80601f01602080910402602001604051908101604052809291908181526020018280546166c99061bd3f565b80156128ad5780601f106166eb576101008083540402835291602001916128ad565b820191906000526020600020905b8154815290600101906020018083116166f95750939695505050505050565b6001600160a01b03166000908152602b602052604090206003015460ff1690565b60435481565b606061674a82616efd565b6167665760405162461bcd60e51b815260040161109c9061b618565b6000828152602a6020908152604080832081516101c0810183528154815260018201549381019390935260028101549183019190915260038101546060830152600481015460ff808216151560808501526101008083048216151560a08601526201000090920416151560c0840152600582015460e084015260068201549083015260078101546101208301526008810154610140830152600981018054610160840191906168149061bd3f565b80601f01602080910402602001604051908101604052809291908181526020018280546168409061bd3f565b801561688d5780601f106168625761010080835404028352916020019161688d565b820191906000526020600020905b81548152906001019060200180831161687057829003601f168201915b5050509183525050600a8201546020820152600b82015460409091019060ff1660038111156168cc57634e487b7160e01b600052602160045260246000fd5b60038111156168eb57634e487b7160e01b600052602160045260246000fd5b90525060208101519091506000816001600160401b0381111561691e57634e487b7160e01b600052604160045260246000fd5b60405190808252806020026020018201604052801561695157816020015b606081526020019060019003908161693c5790505b50905060005b8281101561186857835160009061696f90839061bcb1565b60008181526029602052604081208054929350909161698d9061bd3f565b80601f01602080910402602001604051908101604052809291908181526020018280546169b99061bd3f565b8015616a065780601f106169db57610100808354040283529160200191616a06565b820191906000526020600020905b8154815290600101906020018083116169e957829003601f168201915b5050505050905080848481518110616a2e57634e487b7160e01b600052603260045260246000fd5b602002602001018190525050508080616a469061bd7a565b915050616957565b603d5481565b603f5481565b616a62617569565b6001600160a01b0316616a73614337565b6001600160a01b031614616a995760405162461bcd60e51b815260040161109c9061b317565b6001600160a01b038116616abf5760405162461bcd60e51b815260040161109c9061ad14565b611a3181617c0b565b6000828260405160200161460992919061aae2565b603f5490565b336000908152602b602052604090206049546001600160a01b0316616b1a5760405162461bcd60e51b815260040161109c9061ab04565b604960009054906101000a90046001600160a01b03166001600160a01b03166398a54e2b6040518163ffffffff1660e01b815260040160206040518083038186803b158015616b6857600080fd5b505afa158015616b7c573d6000803e3d6000fd5b505050506040513d601f19601f82011682018060405250810190616ba0919061a70c565b603154603054616bb0919061bcb1565b10616bcd5760405162461bcd60e51b815260040161109c9061b726565b600381015460ff1615616bf25760405162461bcd60e51b815260040161109c9061aefe565b616bfb33614319565b158015616c0e5750616c0c336122ce565b155b616c2a5760405162461bcd60e51b815260040161109c9061b440565b604960009054906101000a90046001600160a01b03166001600160a01b0316639fb491f66040518163ffffffff1660e01b815260040160206040518083038186803b158015616c7857600080fd5b505afa158015616c8c573d6000803e3d6000fd5b505050506040513d601f19601f82011682018060405250810190616cb0919061a70c565b816001015410158015616d555750604960009054906101000a90046001600160a01b03166001600160a01b0316630f1f0ffe6040518163ffffffff1660e01b815260040160206040518083038186803b158015616d0c57600080fd5b505afa158015616d20573d6000803e3d6000fd5b505050506040513d601f19601f82011682018060405250810190616d44919061a70c565b6004820154616d53904261bcfc565b105b15616d725760405162461bcd60e51b815260040161109c9061b768565b604954600160a01b900460ff1615616e6a57604954604080516001624ee91360e11b0319815290516000926001600160a01b03169163ff622dda916004808301926020929190829003018186803b158015616dcc57600080fd5b505afa158015616de0573d6000803e3d6000fd5b505050506040513d601f19601f82011682018060405250810190616e04919061a70c565b90506000616e123383613d9c565b6001600160a01b0381166000908152602d6020526040902054909150821115616e67576001600160a01b0381166000908152602d6020526040812054616e59908490617bff565b9050616e658183619d68565b505b50505b616e7333619f9d565b600381018054600160ff19909116811761ff0019169091554260048301556000818301819055603f8054909190616eab90849061bcb1565b90915550616eb99050617921565b336001600160a01b03167f439d77b7534ec3108fc6143bd4fbabde0b9f2bb54f7b0730d1f70dd2135b765f42604051616ef2919061a920565b60405180910390a250565b603c54101590565b616f0d617569565b6001600160a01b0316616f1e614337565b6001600160a01b031614616f445760405162461bcd60e51b815260040161109c9061b317565b6044805460ff191692151592909217909155604555565b336000908152602b602052604090206003015460ff1690565b60415490565b6048546001600160a01b031681565b6001600160a01b0381166000908152602b602090815260408083208151610120810183528154808252600183015494820194909452600282015492810192909252600381015460ff80821615156060850152610100918290041615156080840152600482015460a0840152600582015460c0840152600682015460e0840152600790910154908201529061701d84826135b5565b15801561702e575061702e81613081565b15611bca575060009392505050565b606060008311801561704e57508183105b61706a5760405162461bcd60e51b815260040161109c9061b06e565b6000835b61707984600161bcb1565b811015617230576000818152602a6020908152604080832081516101c0810183528154815260018201549381019390935260028101549183019190915260038101546060830152600481015460ff808216151560808501526101008083048216151560a08601526201000090920416151560c0840152600582015460e0840152600682015490830152600781015461012083015260088101546101408301526009810180546101608401919061712e9061bd3f565b80601f016020809104026020016040519081016040528092919081815260200182805461715a9061bd3f565b80156171a75780601f1061717c576101008083540402835291602001916171a7565b820191906000526020600020905b81548152906001019060200180831161718a57829003601f168201915b5050509183525050600a8201546020820152600b82015460409091019060ff1660038111156171e657634e487b7160e01b600052602160045260246000fd5b600381111561720557634e487b7160e01b600052602160045260246000fd5b905250602081015190915061721a908461bcb1565b92505080806172289061bd7a565b91505061706e565b506000816001600160401b0381111561725957634e487b7160e01b600052604160045260246000fd5b60405190808252806020026020018201604052801561728c57816020015b60608152602001906001900390816172775790505b5090506000855b61729e86600161bcb1565b81101561754f576000818152602a6020908152604080832081516101c0810183528154815260018201549381019390935260028101549183019190915260038101546060830152600481015460ff808216151560808501526101008083048216151560a08601526201000090920416151560c0840152600582015460e084015260068201549083015260078101546101208301526008810154610140830152600981018054610160840191906173539061bd3f565b80601f016020809104026020016040519081016040528092919081815260200182805461737f9061bd3f565b80156173cc5780601f106173a1576101008083540402835291602001916173cc565b820191906000526020600020905b8154815290600101906020018083116173af57829003601f168201915b5050509183525050600a8201546020820152600b82015460409091019060ff16600381111561740b57634e487b7160e01b600052602160045260246000fd5b600381111561742a57634e487b7160e01b600052602160045260246000fd5b905250905060005b816020015181101561753a57815160009061744e90839061bcb1565b60008181526029602052604081208054929350909161746c9061bd3f565b80601f01602080910402602001604051908101604052809291908181526020018280546174989061bd3f565b80156174e55780601f106174ba576101008083540402835291602001916174e5565b820191906000526020600020905b8154815290600101906020018083116174c857829003601f168201915b505050505090508087878151811061750d57634e487b7160e01b600052603260045260246000fd5b602090810291909101015261752360018761bcb1565b9550505080806175329061bd7a565b915050617432565b505080806175479061bd7a565b915050617293565b509095945050505050565b6049546001600160a01b031681565b3390565b6001600160a01b03811660009081526033602052604090205460ff1615611a31576001600160a01b038116600090815260366020526040812054603080549192916175ba9060019061bcfc565b815481106175d857634e487b7160e01b600052603260045260246000fd5b60009182526020808320909101546001600160a01b038681168452603383526040808520805460ff19169055604a546036909452909320919091556030549116915060021161767d57806030838154811061764357634e487b7160e01b600052603260045260246000fd5b600091825260208083209190910180546001600160a01b0319166001600160a01b0394851617905591831681526036909152604090208290555b603080548061769c57634e487b7160e01b600052603160045260246000fd5b600082815260209020810160001990810180546001600160a01b0319169055019055505050565b6001600160a01b03811660009081526034602052604090205460ff1615611a31576001600160a01b038116600090815260376020526040812054603180549192916177109060019061bcfc565b8154811061772e57634e487b7160e01b600052603260045260246000fd5b60009182526020808320909101546001600160a01b038681168452603483526040808520805460ff19169055604a54603790945290932091909155603154911691506002116177d357806031838154811061779957634e487b7160e01b600052603260045260246000fd5b600091825260208083209190910180546001600160a01b0319166001600160a01b0394851617905591831681526037909152604090208290555b603180548061769c57634e487b7160e01b600052603160045260246000fd5b6001600160a01b03811660009081526035602052604090205460ff1615611a31576001600160a01b0381166000908152603860205260408120546032805491929161783f9060019061bcfc565b8154811061785d57634e487b7160e01b600052603260045260246000fd5b60009182526020808320909101546001600160a01b038681168452603583526040808520805460ff19169055604a54603890945290932091909155603154911691506002116179025780603283815481106178c857634e487b7160e01b600052603260045260246000fd5b600091825260208083209190910180546001600160a01b0319166001600160a01b0394851617905591831681526038909152604090208290555b603280548061769c57634e487b7160e01b600052603160045260246000fd5b60495460408051632abe0d5f60e11b815290516000926001600160a01b03169163557c1abe916004808301926020929190829003018186803b15801561796657600080fd5b505afa925050508015617996575060408051601f3d908101601f191682019092526179939181019061a385565b60015b6179f5573d8080156179c4576040519150601f19603f3d011682016040523d82523d6000602084013e6179c9565b606091505b5060008051602061be0f833981519152816040516179e7919061aa0b565b60405180910390a1506179f7565b505b604960009054906101000a90046001600160a01b03166001600160a01b031663557c1abe6040518163ffffffff1660e01b815260040160206040518083038186803b158015617a4557600080fd5b505afa158015617a59573d6000803e3d6000fd5b505050506040513d601f19601f82011682018060405250810190617a7d919061a385565b90506001600160a01b038116617aa55760405162461bcd60e51b815260040161109c9061aec7565b6000816001600160a01b031633604051602401617ac2919061a979565b60408051601f198184030181529181526020820180516001600160e01b0316631f5ac9c560e11b17905251617af7919061a94f565b6000604051808303816000865af19150503d8060008114617b34576040519150601f19603f3d011682016040523d82523d6000602084013e617b39565b606091505b505090506000826001600160a01b031633604051602401617b5a919061a979565b60408051601f198184030181529181526020820180516001600160e01b03166358563d2160e01b17905251617b8f919061a94f565b6000604051808303816000865af19150503d8060008114617bcc576040519150601f19603f3d011682016040523d82523d6000602084013e617bd1565b606091505b505090508180617bde5750805b617bfa5760405162461bcd60e51b815260040161109c9061ab8c565b505050565b6000611266828461bcfc565b600080546001600160a01b038381166001600160a01b0319831681178455604051919092169283917f8be0079c531659141344cd1fd0a4f28419497f9722a3daafe3b4186f6b6457e09190a35050565b6000603b54603d54617c6d919061bcfc565b9050604960009054906101000a90046001600160a01b03166001600160a01b031663e3115d3c6040518163ffffffff1660e01b815260040160206040518083038186803b158015617cbd57600080fd5b505afa158015617cd1573d6000803e3d6000fd5b505050506040513d601f19601f82011682018060405250810190617cf5919061a70c565b811115611a315760005b604954604080516307d630cb60e41b81529051617d83926001600160a01b031691637d630cb0916004808301926020929190829003018186803b158015617d4557600080fd5b505afa158015617d59573d6000803e3d6000fd5b505050506040513d601f19601f82011682018060405250810190617d7d919061a70c565b83617e24565b811015612f6857603b546000908152602a602052604081208054600190910154909190617db0908361bcb1565b9050815b81811015617dd757617dc58161259b565b80617dcf8161bd7a565b915050617db4565b50617de3603b54612f6c565b603b546040517f72c2fcc891fe835b86fc8bb9abdc52adf52499c52289b3c49e1461eabea2717590600090a250508080617e1c9061bd7a565b915050617cff565b6000818310617e335781611266565b5090919050565b6049546001600160a01b0316617e625760405162461bcd60e51b815260040161109c9061ab04565b60495460408051632a49798160e11b815290516000926001600160a01b031691635492f302916004808301926020929190829003018186803b158015617ea757600080fd5b505afa158015617ebb573d6000803e3d6000fd5b505050506040513d601f19601f82011682018060405250810190617edf919061a385565b6001600160a01b03161415617f065760405162461bcd60e51b815260040161109c9061b8a7565b60495460408051630855d15160e01b815290516000926001600160a01b031691630855d151916004808301926020929190829003018186803b158015617f4b57600080fd5b505afa158015617f5f573d6000803e3d6000fd5b505050506040513d601f19601f82011682018060405250810190617f83919061a385565b6001600160a01b03161415617faa5760405162461bcd60e51b815260040161109c9061b5e3565b604954604080516304e76c8f60e01b815290516000926001600160a01b0316916304e76c8f916004808301926020929190829003018186803b158015617fef57600080fd5b505afa158015618003573d6000803e3d6000fd5b505050506040513d601f19601f82011682018060405250810190618027919061a385565b6001600160a01b0316141561804e5760405162461bcd60e51b815260040161109c9061ada4565b61805781611871565b8061807157506000818152602a6020526040902060030154155b61808d5760405162461bcd60e51b815260040161109c9061b39c565b6000818152602a6020526040902060040154610100900460ff16156180c45760405162461bcd60e51b815260040161109c9061b64f565b6000818152602f602090815260408083208054825181850281018501909352808352919290919083018282801561812457602002820191906000526020600020905b81546001600160a01b03168152600190910190602001808311618106575b50505050509050600081516001600160401b0381111561815457634e487b7160e01b600052604160045260246000fd5b60405190808252806020026020018201604052801561818757816020015b60608152602001906001900390816181725790505b509050600082516001600160401b038111156181b357634e487b7160e01b600052604160045260246000fd5b6040519080825280602002602001820160405280156181dc578160200160208202803683370190505b50905060005b835181101561835f57600084828151811061820d57634e487b7160e01b600052603260045260246000fd5b60209081029190910181015160008881526023835260408082206001600160a01b03841683529093529182208054919350906182489061bd3f565b80601f01602080910402602001604051908101604052809291908181526020018280546182749061bd3f565b80156182c15780601f10618296576101008083540402835291602001916182c1565b820191906000526020600020905b8154815290600101906020018083116182a457829003601f168201915b50505060008a81526024602090815260408083206001600160a01b03891684529091529020548851939450928492508891508690811061831157634e487b7160e01b600052603260045260246000fd5b60200260200101819052508085858151811061833d57634e487b7160e01b600052603260045260246000fd5b60200260200101818152505050505080806183579061bd7a565b9150506181e2565b50600061840a6064604960009054906101000a90046001600160a01b03166001600160a01b031663ea19733c6040518163ffffffff1660e01b815260040160206040518083038186803b1580156183b557600080fd5b505afa1580156183c9573d6000803e3d6000fd5b505050506040513d601f19601f820116820180604052508101906183ed919061a70c565b86516183f9919061bcdd565b618403919061bcc9565b600161a035565b60408051602081019091526000808252919250905b8451811015618508576000805b86518110156184bd5761848d87848151811061845857634e487b7160e01b600052603260045260246000fd5b602002602001015188838151811061848057634e487b7160e01b600052603260045260246000fd5b60200260200101516146b0565b156184ab5761849d60018361bcb1565b91508482106184ab576184bd565b806184b58161bd7a565b91505061842c565b508381106184f5578582815181106184e557634e487b7160e01b600052603260045260246000fd5b6020026020010151925050618508565b50806185008161bd7a565b91505061841f565b506000805b84518110156185ef576000805b86518110156185a45786818151811061854357634e487b7160e01b600052603260045260246000fd5b602002602001015187848151811061856b57634e487b7160e01b600052603260045260246000fd5b602002602001015114156185925761858460018361bcb1565b9150858210618592576185a4565b8061859c8161bd7a565b91505061851a565b508481106185dc578582815181106185cc57634e487b7160e01b600052603260045260246000fd5b60200260200101519250506185ef565b50806185e78161bd7a565b91505061850d565b5060006185fb88612082565b801561861d575061861b83604051806020016040528060008152506146b0565b155b801561862857508115155b90508061863957604754915061865e565b6047546000898152602a602052604090206001015461865b91617d7d9161bcdd565b91505b60005b8751811015618e0157600088828151811061868c57634e487b7160e01b600052603260045260246000fd5b602002602001015190506000602260008c81526020019081526020016000206000836001600160a01b03166001600160a01b03168152602001908152602001600020549050600060216000846001600160a01b03166001600160a01b0316815260200190815260200160002060008d815260200190815260200160002060009054906101000a900460ff1690506000602b6000856001600160a01b03166001600160a01b03168152602001908152602001600020905060276000856001600160a01b03166001600160a01b0316815260200190815260200160002073__$85afbab79b2b776d70bef879a32ed56424$__6302073bfa90918f6040518363ffffffff1660e01b81526004016187a192919061a96b565b60006040518083038186803b1580156187b957600080fd5b505af41580156187cd573d6000803e3d6000fd5b505050508115618cd7576001600160a01b0384166000908152602b602052604081206001908101919091558615151480156188085750826001145b8061881d57508515801561881d575082600114155b15618cb75760495460408051632a49798160e11b815290516000926001600160a01b031691635492f302916004808301926020929190829003018186803b15801561886757600080fd5b505afa15801561887b573d6000803e3d6000fd5b505050506040513d601f19601f8201168201806040525081019061889f919061a385565b90506000604960009054906101000a90046001600160a01b03166001600160a01b0316630855d1516040518163ffffffff1660e01b815260040160206040518083038186803b1580156188f157600080fd5b505afa158015618905573d6000803e3d6000fd5b505050506040513d601f19601f82011682018060405250810190618929919061a385565b90506000604960009054906101000a90046001600160a01b03166001600160a01b03166304e76c8f6040518163ffffffff1660e01b815260040160206040518083038186803b15801561897b57600080fd5b505afa15801561898f573d6000803e3d6000fd5b505050506040513d601f19601f820116820180604052508101906189b3919061a385565b90506000836001600160a01b03166311815086896040518263ffffffff1660e01b81526004016189e3919061a979565b60206040518083038186803b1580156189fb57600080fd5b505afa158015618a0f573d6000803e3d6000fd5b505050506040513d601f19601f82011682018060405250810190618a33919061a385565b90508a15618c9357826001600160a01b0316631b6d990a8c604960009054906101000a90046001600160a01b03166001600160a01b0316630b08bfd96040518163ffffffff1660e01b815260040160206040518083038186803b158015618a9957600080fd5b505afa158015618aad573d6000803e3d6000fd5b505050506040513d601f19601f82011682018060405250810190618ad1919061a70c565b618adb919061bcdd565b836040518363ffffffff1660e01b8152600401618af992919061bb05565b602060405180830381600087803b158015618b1357600080fd5b505af1158015618b27573d6000803e3d6000fd5b505050506040513d601f19601f82011682018060405250810190618b4b919061a592565b618b675760405162461bcd60e51b815260040161109c9061af33565b816001600160a01b031663e0ca50948c604960009054906101000a90046001600160a01b03166001600160a01b031663f80de0a06040518163ffffffff1660e01b815260040160206040518083038186803b158015618bc557600080fd5b505afa158015618bd9573d6000803e3d6000fd5b505050506040513d601f19601f82011682018060405250810190618bfd919061a70c565b618c07919061bcdd565b836040518363ffffffff1660e01b8152600401618c2592919061baee565b602060405180830381600087803b158015618c3f57600080fd5b505af1158015618c53573d6000803e3d6000fd5b505050506040513d601f19601f82011682018060405250810190618c77919061a592565b618c935760405162461bcd60e51b815260040161109c9061b3f9565b6001856006016000828254618ca8919061bcb1565b90915550618cd2945050505050565b6001816007016000828254618ccc919061bcb1565b90915550505b618dea565b6001600160a01b0384166000908152602b602052604081206001908101805491929091618d0590849061bcb1565b909155505060495460408051634fda48fb60e11b815290516001600160a01b0390921691639fb491f691600480820192602092909190829003018186803b158015618d4f57600080fd5b505afa158015618d63573d6000803e3d6000fd5b505050506040513d601f19601f82011682018060405250810190618d87919061a70c565b6001600160a01b0385166000908152602b602052604090206001015410618dc65760038101805460ff19169055618dbd846176c3565b618dc68461756d565b600381015460ff1615618de557618ddc846176c3565b618de584619f9d565b600081555b505050508080618df99061bd7a565b915050618661565b506000888152602a6020908152604090912060048101805461ff0019166101001790558451618e389260099092019186019061a17d565b506000888152602a60205260409020600a018290558015619550576000888152602a602052604081208054600190910154909190618e76908361bcb1565b9050815b8181101561931f576000818152602960209081526040808320600101546049548251632a49798160e11b815292516001600160a01b0392831695949190921692635492f3029260048083019392829003018186803b158015618edb57600080fd5b505afa158015618eef573d6000803e3d6000fd5b505050506040513d601f19601f82011682018060405250810190618f13919061a385565b90506000604960009054906101000a90046001600160a01b03166001600160a01b0316630855d1516040518163ffffffff1660e01b815260040160206040518083038186803b158015618f6557600080fd5b505afa158015618f79573d6000803e3d6000fd5b505050506040513d601f19601f82011682018060405250810190618f9d919061a385565b90506000604960009054906101000a90046001600160a01b03166001600160a01b03166304e76c8f6040518163ffffffff1660e01b815260040160206040518083038186803b158015618fef57600080fd5b505afa158015619003573d6000803e3d6000fd5b505050506040513d601f19601f82011682018060405250810190619027919061a385565b90506000836001600160a01b03166311815086866040518263ffffffff1660e01b8152600401619057919061a979565b60206040518083038186803b15801561906f57600080fd5b505afa158015619083573d6000803e3d6000fd5b505050506040513d601f19601f820116820180604052508101906190a7919061a385565b9050891561930757826001600160a01b0316631b6d990a8b604960009054906101000a90046001600160a01b03166001600160a01b031663abb10b9b6040518163ffffffff1660e01b815260040160206040518083038186803b15801561910d57600080fd5b505afa158015619121573d6000803e3d6000fd5b505050506040513d601f19601f82011682018060405250810190619145919061a70c565b61914f919061bcdd565b836040518363ffffffff1660e01b815260040161916d92919061bb05565b602060405180830381600087803b15801561918757600080fd5b505af115801561919b573d6000803e3d6000fd5b505050506040513d601f19601f820116820180604052508101906191bf919061a592565b6191db5760405162461bcd60e51b815260040161109c9061b1a3565b816001600160a01b031663e0ca50948b604960009054906101000a90046001600160a01b03166001600160a01b03166330c0bb796040518163ffffffff1660e01b815260040160206040518083038186803b15801561923957600080fd5b505afa15801561924d573d6000803e3d6000fd5b505050506040513d601f19601f82011682018060405250810190619271919061a70c565b61927b919061bcdd565b836040518363ffffffff1660e01b815260040161929992919061baee565b602060405180830381600087803b1580156192b357600080fd5b505af11580156192c7573d6000803e3d6000fd5b505050506040513d601f19601f820116820180604052508101906192eb919061a592565b6193075760405162461bcd60e51b815260040161109c9061b34c565b505050505080806193179061bd7a565b915050618e7a565b5060008a8152602a6020526040808220600b01805460ff19166001908117909155815490929061935090849061bcb1565b909155505060495460408051637b39b17f60e11b815290516000926001600160a01b03169163f67362fe916004808301926020929190829003018186803b15801561939a57600080fd5b505afa1580156193ae573d6000803e3d6000fd5b505050506040513d601f19601f820116820180604052508101906193d2919061a385565b6001600160a01b031614156193f95760405162461bcd60e51b815260040161109c9061ade7565b60495460408051637b39b17f60e11b815290516000926001600160a01b03169163f67362fe916004808301926020929190829003018186803b15801561943e57600080fd5b505afa158015619452573d6000803e3d6000fd5b505050506040513d601f19601f82011682018060405250810190619476919061a385565b6040516348257dc960e01b81529091506001600160a01b038216906348257dc9906194a5908e9060040161a920565b600060405180830381600087803b1580156194bf57600080fd5b505af19250505080156194d0575060015b61952f573d8080156194fe576040519150601f19603f3d011682016040523d82523d6000602084013e619503565b606091505b5060008051602061be0f83398151915281604051619521919061aa0b565b60405180910390a150619548565b6001603f6000828254619542919061bcb1565b90915550505b505050619585565b6000888152602a60205260408120600b01805460ff19166002179055604180546001929061957f90849061bcb1565b90915550505b6001603f6000828254619598919061bcb1565b90915550506000888152602a602052604081206002015460428054919290916195c290849061bcb1565b90915550506000888152602a602052604081206003015460438054919290916195ec90849061bcb1565b92505081905550877f98bfbdd7dba62d9141cf4f07139f8e53c0d00c0b44cad36d148730680b162161848360405161962592919061aa90565b60405180910390a25050505050505050565b6000611266828461bcb1565b600061965482603280549050617e24565b905060005b6032548110156197415760006032828154811061968657634e487b7160e01b600052603260045260246000fd5b60009182526020808320909101546001600160a01b0316808352602b909152604090912080549192509061972c5760038101805461ffff191690556196ca8261756d565b6196d3826176c3565b6001600160a01b03821660008181526035602052604090819020805460ff19169055517f9dadcedba048e92b943ea1c5861cee1df63a566d7f795869c004780c1c698e2b9061972390429061a920565b60405180910390a25b505080806197399061bd7a565b915050619659565b50612f686032600061a28f565b603e546000908152602a602052604090206004015460ff166197825760405162461bcd60e51b815260040161109c9061b500565b603e546000908152602a602052604090206004015462010000900460ff16156197bd5760405162461bcd60e51b815260040161109c9061b249565b60006198a4619819603080549050604960009054906101000a90046001600160a01b03166001600160a01b031663dfeceed76040518163ffffffff1660e01b815260040160206040518083038186803b15801561325157600080fd5b604960009054906101000a90046001600160a01b03166001600160a01b031663bd40ef4c6040518163ffffffff1660e01b815260040160206040518083038186803b15801561986757600080fd5b505afa15801561987b573d6000803e3d6000fd5b505050506040513d601f19601f8201168201806040525081019061989f919061a70c565b61a035565b6030546049546040805163189460df60e31b8152905193945091926001600160a01b039091169163c4a306f8916004808301926020929190829003018186803b1580156198f057600080fd5b505afa158015619904573d6000803e3d6000fd5b505050506040513d601f19601f82011682018060405250810190619928919061a70c565b600154619935904261bcfc565b10612f6857603e80546000908152602a60209081526040808320600301869055925482528282206002018590556049548351631b4930b560e11b8152935192936199e4936001600160a01b0390921692633692616a92600480840193829003018186803b1580156199a557600080fd5b505afa1580156199b9573d6000803e3d6000fd5b505050506040513d601f19601f820116820180604052508101906199dd919061a70c565b4290619637565b90506000619a78604960009054906101000a90046001600160a01b03166001600160a01b03166372e540306040518163ffffffff1660e01b815260040160206040518083038186803b158015619a3957600080fd5b505afa158015619a4d573d6000803e3d6000fd5b505050506040513d601f19601f82011682018060405250810190619a71919061a70c565b8390619637565b603e80546000908152602a6020526040808220600501869055825482528082206006018490559154815220600401805462ff0000191662010000179055905060018410801590619ac9575060018310155b619ae55760405162461bcd60e51b815260040161109c9061ad5a565b6000619af18585614f34565b9050600081516001600160401b03811115619b1c57634e487b7160e01b600052604160045260246000fd5b604051908082528060200260200182016040528015619b45578160200160208202803683370190505b50905060005b8251811015619c04576030838281518110619b7657634e487b7160e01b600052603260045260246000fd5b602002602001015181548110619b9c57634e487b7160e01b600052603260045260246000fd5b9060005260206000200160009054906101000a90046001600160a01b0316828281518110619bda57634e487b7160e01b600052603260045260246000fd5b6001600160a01b039092166020928302919091019091015280619bfc8161bd7a565b915050619b4b565b5060005b8251811015619d24576000828281518110619c3357634e487b7160e01b600052603260045260246000fd5b602002602001015190506000602b6000836001600160a01b03166001600160a01b031681526020019081526020016000209050619c6f8261756d565b619c788261a045565b603e80546000908152602f60209081526040822080546001808201835591845291832090910180546001600160a01b0319166001600160a01b03871617905591548355600583018054909190619ccf90849061bcb1565b9091555050603e546040517fe4ee2dfabe57cee15e3f558890b20455f54c1fa0718e5276faad70a6500e6b8c90619d0790859061a979565b60405180910390a250508080619d1c9061bd7a565b915050619c08565b50426001908155603e54619d3791619637565b603e55619d42614a14565b6039819055506001603f6000828254619d5b919061bcb1565b9091555050505050505050565b6049546040805163ca64f9e760e01b815290516000926001600160a01b03169163ca64f9e7916004808301926020929190829003018186803b158015619dad57600080fd5b505afa158015619dc1573d6000803e3d6000fd5b505050506040513d601f19601f82011682018060405250810190619de5919061a385565b6001600160a01b03161415619e0c5760405162461bcd60e51b815260040161109c9061b475565b6049546040805163ca64f9e760e01b815290516000926001600160a01b03169163ca64f9e7916004808301926020929190829003018186803b158015619e5157600080fd5b505afa158015619e65573d6000803e3d6000fd5b505050506040513d601f19601f82011682018060405250810190619e89919061a385565b6040516304ada21f60e21b81529091506001600160a01b038216906312b6887c90619eba908690869060040161baee565b602060405180830381600087803b158015619ed457600080fd5b505af1158015619ee8573d6000803e3d6000fd5b505050506040513d601f19601f82011682018060405250810190619f0c919061a592565b619f285760405162461bcd60e51b815260040161109c9061af78565b6001600160a01b0382166000908152602d602052604081208054859290619f5090849061bcb1565b92505081905550816001600160a01b03167f5aa5d56140767016c877a5333ac3e1ad31a09051098a8fdf7297c4b64530a94284604051619f90919061a920565b60405180910390a2505050565b619fa681614319565b611a315760308054600180820183557f6ff97a59c90d62cc7236ba3a37cd85351bf564556780cf8c1157a220f31f0cbb90910180546001600160a01b0319166001600160a01b0385169081179091556000908152603360205260409020805460ff191682179055905461a019919061bcfc565b6001600160a01b03821660009081526036602052604090205550565b600081831015617e335781611266565b61a04e816122ce565b611a315760318054600180820183557fc54045fa7c6ec765e825df7f9e9bf9dec12c5cef146f93a5eee56772ee647fbc90910180546001600160a01b0319166001600160a01b0385169081179091556000908152603460205260409020805460ff191682179055905461a0c1919061bcfc565b6001600160a01b03821660009081526037602052604090205550565b50805461a0e99061bd3f565b6000825580601f1061a0fb5750611a31565b601f016020900490600052602060002090810190611a31919061a2a9565b6040518060e001604052806060815260200160006001600160a01b03168152602001600081526020016000815260200160608152602001606081526020016000600381111561a17857634e487b7160e01b600052602160045260246000fd5b905290565b82805461a1899061bd3f565b90600052602060002090601f01602090048101928261a1ab576000855561a1f1565b82601f1061a1c457805160ff191683800117855561a1f1565b8280016001018555821561a1f1579182015b8281111561a1f157825182559160200191906001019061a1d6565b5061a1fd92915061a2a9565b5090565b604051806101c00160405280600081526020016000815260200160008152602001600081526020016000151581526020016000151581526020016000151581526020016000815260200160008152602001600081526020016000815260200160608152602001600081526020016000600381111561a17857634e487b7160e01b600052602160045260246000fd5b5080546000825590600052602060002090810190611a3191905b5b8082111561a1fd576000815560010161a2aa565b60008083601f84011261a2cf578182fd5b5081356001600160401b0381111561a2e5578182fd5b602083019150836020808302850101111561259457600080fd5b600082601f83011261a30f578081fd5b81356001600160401b0381111561a3285761a32861bdd5565b61a33b601f8201601f191660200161bc65565b81815284602083860101111561a34f578283fd5b816020850160208301379081016020019190915292915050565b60006020828403121561a37a578081fd5b8135611bca8161bdeb565b60006020828403121561a396578081fd5b8151611bca8161bdeb565b6000806040838503121561a3b3578081fd5b823561a3be8161bdeb565b946020939093013593505050565b60008060006060848603121561a3e0578081fd5b833561a3eb8161bdeb565b95602085013595506040909401359392505050565b60008060008060006080868803121561a417578081fd5b85356001600160401b038082111561a42d578283fd5b818801915088601f83011261a440578283fd5b8135602061a45561a4508361bc8e565b61bc65565b82815281810190858301875b8581101561a48a5761a4788f8684358b010161a2ff565b8452928401929084019060010161a461565b50909a5050508901359250508082111561a4a2578283fd5b61a4ae89838a0161a2be565b909650945060408801359350606088013591508082111561a4cd578283fd5b5061a4da8882890161a2ff565b9150509295509295909350565b6000602080838503121561a4f9578182fd5b82356001600160401b0381111561a50e578283fd5b8301601f8101851361a51e578283fd5b803561a52c61a4508261bc8e565b818152838101908385018584028501860189101561a548578687fd5b8694505b8385101561a56a57803583526001949094019391850191850161a54c565b50979650505050505050565b60006020828403121561a587578081fd5b8135611bca8161be00565b60006020828403121561a5a3578081fd5b8151611bca8161be00565b6000806040838503121561a5c0578182fd5b823561a3be8161be00565b6000806040838503121561a5dd578182fd5b8235915060208301356001600160401b0381111561a5f9578182fd5b61a6058582860161a2ff565b9150509250929050565b60008060006060848603121561a623578081fd5b8335925060208401356001600160401b0381111561a63f578182fd5b61a64b8682870161a2ff565b925050604084013590509250925092565b6000806040838503121561a66e578182fd5b82356001600160401b038082111561a684578384fd5b61a6908683870161a2ff565b9350602085013591508082111561a6a5578283fd5b5061a6058582860161a2ff565b6000806040838503121561a6c4578182fd5b82356001600160401b0381111561a6d9578283fd5b61a6e58582860161a2ff565b95602094909401359450505050565b60006020828403121561a705578081fd5b5035919050565b600060208284031215611ce6578081fd5b6000806040838503121561a72f578182fd5b82359150602083013561a7418161bdeb565b809150509250929050565b600080600080600060a0868803121561a763578283fd5b8535945060208601359350604086013592506060860135915060808601356001600160401b0381111561a794578182fd5b61a4da8882890161a2ff565b6000806000806080858703121561a7b5578182fd5b8435935060208501356001600160401b0381111561a7d1578283fd5b61a7dd8782880161a2ff565b949794965050505060408301359260600135919050565b6000806040838503121561a806578182fd5b50508035926020909101359150565b6000806000806080858703121561a82a578182fd5b8435935060208501359250604085013561a8438161bdeb565b9396929550929360600135925050565b6000815180845260208085019450808401835b8381101561a8825781518752958201959082019060010161a866565b509495945050505050565b15159052565b6000815180845261a8ab81602086016020860161bd13565b601f01601f19169290920160200192915050565b6004811061a8dd57634e487b7160e01b600052602160045260246000fd5b9052565b60609190911b6bffffffffffffffffffffffff1916815260140190565b60609290921b6bffffffffffffffffffffffff19168252601482015260340190565b90815260200190565b6000838252825161a94181602085016020870161bd13565b919091016020019392505050565b6000825161a96181846020870161bd13565b9190910192915050565b918252602082015260400190565b6001600160a01b0391909116815260200190565b6000602080830181845280855180835260408601915060408482028701019250838701855b8281101561a9e057603f1988860301845261a9ce85835161a893565b9450928501929085019060010161a9b2565b5092979650505050505050565b600060208252611266602083018461a853565b901515815260200190565b600060208252611266602083018461a893565b600060e0825261aa3160e083018a61a893565b6001600160a01b03891660208401526040830188905260608301879052828103608084015261aa60818761a893565b905082810360a084015261aa74818661a893565b91505061aa8460c083018461a8bf565b98975050505050505050565b60006040825261aaa3604083018561a893565b905082151560208301529392505050565b60006040825261aac7604083018561a893565b828103602084015261aad9818561a893565b95945050505050565b60006040825261aaf5604083018561a893565b90508260208301529392505050565b6020808252601f908201527f506172616d6574657273204d616e61676572206d757374206265207365742e00604082015260600190565b60208082526031908201527f676976656e204461746142617463682073686f756c6420626520415050524f5660408201527011510b08185b99081a5d081a5cc81b9bdd607a1b606082015260800190565b60208082526025908201527f72656365697665722072656a6563746564205f7265747269657665534675656c6040820152640818d85b1b60da1b606082015260800190565b6020808252602f908201527f636f6d6d697420706572696f64206e6565647320746f206265206f70656e206660408201526e1bdc881d1a1a5cc818985d18da1259608a1b606082015260800190565b60208082526052908201527f4e6f74207468652073616d6520766f7465207468616e20636f6d6d697465642c60408201527f20696d706f737369626c6520746f206d61746368207769746820676976656e206060820152715f73616c742026205f636c656172566f746560701b608082015260a00190565b60208082526056908201527f4e6f74207468652073616d652068617368207468616e20636f6d6d697465642c60408201527f20696d706f737369626c6520746f206d61746368207769746820676976656e206060820152750bee6c2d8e8404c40bec6d8cac2e492a08ca690c2e6d60531b608082015260a00190565b60208082526026908201527f4f776e61626c653a206e6577206f776e657220697320746865207a65726f206160408201526564647265737360d01b606082015260800190565b6020808252602a908201527f4661696c20647572696e6720616c6c6f636174696f6e3a206e6f7420656e6f75604082015269676820776f726b65727360b01b606082015260800190565b60208082526023908201527f5265776172644d616e61676572206973206e756c6c20696e20506172616d657460408201526265727360e81b606082015260800190565b6020808252602c908201527f436f6d706c69616e636553797374656d206e756c6c20696e20506172616d657460408201526b195c9cc810dbdb9d1c9858dd60a21b606082015260800190565b60208082526038908201527f55736572206e6565647320746f20626520616c6c6f636174656420746f20746860408201527f697320626174636820746f20636f6d6d6974206f6e2069740000000000000000606082015260800190565b60208082526019908201527f6b206f72204e20617265206e6f74204f4b20666f7220524e4700000000000000604082015260600190565b6020808252601d908201527f734675656c3a206e756c6c2041646472657373204e6f742056616c6964000000604082015260600190565b6020808252818101527f576f726b657220697320616c7265616479207265676973746572656420283129604082015260600190565b60208082526025908201527f636f756c64206e6f74207265776172642052455020696e2056616c69646174656040820152642c20312e6160d81b606082015260800190565b6020808252603f908201527f436f756c64206e6f74207265717565737420656e6f75676820616c6c6f63617460408201527f6564207374616b652c2072657175657374416c6c6f63617465645374616b6500606082015260800190565b6020808252602f908201527f5573657220686173206e6f7420636f6d6d69746564206265666f72652c20746860408201526e1d5cc818d85b89dd081c995d99585b608a1b606082015260800190565b6020808252602a908201527f53706f7474696e67206973206e6f742063757272656e746c7920656e61626c656040820152693210313c9027bbb732b960b11b606082015260800190565b6020808252601c908201527f496e70757420626f756e6461726965732061726520696e76616c696400000000604082015260600190565b60208082526036908201527f476c6f62616c206c696d69743a206578636565646564206d61782064617461206040820152753832b9103437bab916103932ba393c903630ba32b91760511b606082015260800190565b60208082526039908201527f646c6c4d61703a20646f6573206e6f7420636f696e7461696e205f446174614260408201527f61746368496420666f7220746865206d73672073656e64657200000000000000606082015260800190565b6020808252602b908201527f75736572206d75737420686176652072657665616c656420696e20746869732060408201526a0ced2eccadc4084c2e8c6d60ab1b606082015260800190565b6020808252602e908201527f636f756c64206e6f74207265776172642052455020696e2056616c696461746560408201526d4461746142617463682c20322e6160901b606082015260800190565b60208082526010908201526f149391c81a5b9cdd59999a58da595b9d60821b604082015260600190565b6020808252601490820152733737ba1030903b30b634b2103837b9b4ba34b7b760611b604082015260600190565b6020808252603b908201527f43616e277420616c6c6f6361746520776f726b2c207468652063757272656e7460408201527f20626174636820697320616c726561647920616c6c6f63617465640000000000606082015260800190565b6020808252602c908201527f576f726b6572206973206e6f74207265676973746572656420736f2063616e2760408201526b3a103ab73932b3b4b9ba32b960a11b606082015260800190565b6020808252600b908201526a04e5f72616e6765203e20360ac1b604082015260600190565b6020808252818101527f4f776e61626c653a2063616c6c6572206973206e6f7420746865206f776e6572604082015260600190565b60208082526030908201527f636f756c64206e6f742072657761726420746f6b656e20696e2056616c69646160408201526f3a32a230ba30a130ba31b4161019173160811b606082015260800190565b6020808252603a908201527f5f446174614261746368496420686173206e6f7420656e6465642c206f72206e60408201527f6f7420657665727920766f74657273206861766520766f746564000000000000606082015260800190565b60208082526027908201527f636f756c64206e6f742072657761726420746f6b656e20696e2056616c6964616040820152663a32961018973160c91b606082015260800190565b6020808252818101527f576f726b657220697320616c7265616479207265676973746572656420283229604082015260600190565b60208082526022908201527f5374616b654d616e61676572206973206e756c6c20696e20506172616d657465604082015261727360f01b606082015260800190565b60208082526029908201527f6765744e756d50617373696e67546f6b656e733a20686173686573206d75737460408201526808189948195c5d585b60ba1b606082015260800190565b60208082526036908201527f43616e277420616c6c6f6361746520776f726b2c207468652063757272656e74604082015275206261746368206973206e6f7420636f6d706c65746560501b606082015260800190565b60208082526026908201527f52657665616c20706572696f64206e6f74206f70656e20666f7220746869732060408201526511185d18525160d21b606082015260800190565b60208082526027908201527f617661696c61626c65546f6b656e732073686f756c64206265203e3d205f6e756040820152666d546f6b656e7360c81b606082015260800190565b6020808252818101527f5265704d616e61676572206973206e756c6c20696e20506172616d6574657273604082015260600190565b60208082526017908201527f5f4461746142617463684964206d757374206578697374000000000000000000604082015260600190565b60208082526021908201527f5f446174614261746368496420697320616c72656164792076616c69646174656040820152601960fa1b606082015260800190565b6020808252602d908201527f53706f7474696e673a20696e70757420617272617973206d757374206265206f60408201526c0cc40e6c2daca40d8cadccee8d609b1b606082015260800190565b60208082526029908201527f557365722068617320616c726561647920636f6d6d6974656420746f207468696040820152681cc818985d18da125960ba1b606082015260800190565b60208082526022908201527f4d6178696d756d207265676973746572656420776f726b65727320616c726561604082015261647960f01b606082015260800190565b6020808252606c908201527f5573657220686173206e6f7420766f746564206d616e792074696d657320696e60408201527f206120726f7720616e64206e6565647320746f2077616974204e4f564f54455f60608201527f524547495354524154494f4e5f574149545f4455524154494f4e20746f20726560808201526b33b4b9ba32b91030b3b0b4b760a11b60a082015260c00190565b6020808252602a908201527f5f446174614261746368496420636865636b696e6720766f7465206d757374206040820152691a185d9948195b99195960b21b606082015260800190565b6020808252603b908201527f436f756c64206e6f74207769746864726177566f74696e67526967687473207460408201527f68726f7567682050726f78795374616b654465616c6c6f636174650000000000606082015260800190565b60208082526024908201527f416464726573734d616e61676572206973206e756c6c20696e20506172616d656040820152637465727360e01b606082015260800190565b6020808252600f908201526e11185d18481b5d5cdd08195e1a5cdd608a1b604082015260600190565b6020808252602c908201527f557365722068617320616c72656164792072657665616c65642c20746875732060408201526b18d85b89dd081c995d99585b60a21b606082015260800190565b60006020825282516020830152602083015160408301526040830151606083015260608301516080830152608083015161b99d60a084018261a88d565b5060a083015161b9b060c084018261a88d565b5060c083015161b9c360e084018261a88d565b5060e0830151610100838101919091528301516101208084019190915283015161014080840191909152830151610160808401919091528301516101c061018080850182905261ba176101e086018461a893565b908601516101a0868101919091528601519092506162488286018261a8bf565b93845260208401929092526040830152606082015260800190565b600060208252825160e0602084015261ba6f61010084018261a893565b905060018060a01b03602085015116604084015260408401516060840152606084015160808401526080840151601f19808584030160a086015261bab3838361a893565b925060a08601519150808584030160c08601525061bad1828261a893565b91505060c084015161bae660e085018261a8bf565b509392505050565b9182526001600160a01b0316602082015260400190565b9182526001600160a01b031660208201526000604082015260600190565b600083825260406020830152614f7b604083018461a853565b9283526020830191909152604082015260600190565b988952602089019790975260408801959095529215156060870152901515608086015260a085015260c084015260e08301526101008201526101200190565b60008f82528e60208301528d60408301528c60608301528b151560808301528a151560a083015261bbc560c083018b61a88d565b8860e08301528761010083015286610120830152856101408301526101c061016083015261bbf76101c083018661a893565b90508361018083015261bc0e6101a083018461a8bf565b9f9e505050505050505050505050505050565b6000808335601e1984360301811261bc37578283fd5b8301803591506001600160401b0382111561bc50578283fd5b60200191503681900382131561259457600080fd5b6040518181016001600160401b038111828210171561bc865761bc8661bdd5565b604052919050565b60006001600160401b0382111561bca75761bca761bdd5565b5060209081020190565b6000821982111561bcc45761bcc461bda9565b500190565b60008261bcd85761bcd861bdbf565b500490565b600081600019048311821515161561bcf75761bcf761bda9565b500290565b60008282101561bd0e5761bd0e61bda9565b500390565b60005b8381101561bd2e57818101518382015260200161bd16565b838111156128475750506000910152565b60028104600182168061bd5357607f821691505b6020821081141561bd7457634e487b7160e01b600052602260045260246000fd5b50919050565b600060001982141561bd8e5761bd8e61bda9565b5060010190565b60008261bda45761bda461bdbf565b500690565b634e487b7160e01b600052601160045260246000fd5b634e487b7160e01b600052601260045260246000fd5b634e487b7160e01b600052604160045260246000fd5b6001600160a01b0381168114611a3157600080fd5b8015158114611a3157600080fdfe4b87bbd93ba65ede1e2efeca735d9f7a6720bf7d6db0a8355b17dba5b64e5783a26469706673582212206086cc14ed5b6cac35c9895b7412174bb6f89925e308489e091cbafd4f6ecfcc64736f6c63430008000033",
  "linkReferences": {
    "contracts/worksystems/DataSpotting.sol": {
      "DLL": [
        {
          "length": 20,
          "start": 7205
        },
        {
          "length": 20,
          "start": 7377
        },
        {
          "length": 20,
          "start": 7957
        },
        {
          "length": 20,
          "start": 15267
        },
        {
          "length": 20,
          "start": 15429
        },
        {
          "length": 20,
          "start": 15624
        },
        {
          "length": 20,
          "start": 17787
        },
        {
          "length": 20,
          "start": 17967
        },
        {
          "length": 20,
          "start": 35060
        }
      ]
    }
  },
  "deployedLinkReferences": {
    "contracts/worksystems/DataSpotting.sol": {
      "DLL": [
        {
          "length": 20,
          "start": 6810
        },
        {
          "length": 20,
          "start": 6982
        },
        {
          "length": 20,
          "start": 7562
        },
        {
          "length": 20,
          "start": 14872
        },
        {
          "length": 20,
          "start": 15034
        },
        {
          "length": 20,
          "start": 15229
        },
        {
          "length": 20,
          "start": 17392
        },
        {
          "length": 20,
          "start": 17572
        },
        {
          "length": 20,
          "start": 34665
        }
      ]
    }
  }
}