{
  "_format": "hh-sol-artifact-1",
  "contractName": "DataSpotting",
  "sourceName": "contracts/worksystems/DataSpotting.sol",
  "abi": [
    {
      "inputs": [
        {
          "internalType": "address",
          "name": "EXDT_token_",
          "type": "address"
        }
      ],
      "stateMutability": "nonpayable",
      "type": "constructor"
    },
    {
      "anonymous": false,
      "inputs": [
        {
          "indexed": false,
          "internalType": "bytes",
          "name": "bytesFailure",
          "type": "bytes"
        }
      ],
      "name": "BytesFailure",
      "type": "event"
    },
    {
      "anonymous": false,
      "inputs": [
        {
          "indexed": true,
          "internalType": "address",
          "name": "previousOwner",
          "type": "address"
        },
        {
          "indexed": true,
          "internalType": "address",
          "name": "newOwner",
          "type": "address"
        }
      ],
      "name": "OwnershipTransferred",
      "type": "event"
    },
    {
      "anonymous": false,
      "inputs": [
        {
          "indexed": true,
          "internalType": "uint256",
          "name": "batchID",
          "type": "uint256"
        }
      ],
      "name": "_DataBatchDeleted",
      "type": "event"
    },
    {
      "anonymous": false,
      "inputs": [
        {
          "indexed": false,
          "internalType": "string",
          "name": "hash",
          "type": "string"
        },
        {
          "indexed": true,
          "internalType": "address",
          "name": "creator",
          "type": "address"
        }
      ],
      "name": "_SpotAccepted",
      "type": "event"
    },
    {
      "anonymous": false,
      "inputs": [
        {
          "indexed": true,
          "internalType": "uint256",
          "name": "DataID",
          "type": "uint256"
        },
        {
          "indexed": false,
          "internalType": "uint256",
          "name": "numTokens",
          "type": "uint256"
        },
        {
          "indexed": true,
          "internalType": "address",
          "name": "voter",
          "type": "address"
        }
      ],
      "name": "_SpotCheckCommitted",
      "type": "event"
    },
    {
      "anonymous": false,
      "inputs": [
        {
          "indexed": true,
          "internalType": "uint256",
          "name": "DataID",
          "type": "uint256"
        },
        {
          "indexed": false,
          "internalType": "uint256",
          "name": "numTokens",
          "type": "uint256"
        },
        {
          "indexed": false,
          "internalType": "uint256",
          "name": "votesFor",
          "type": "uint256"
        },
        {
          "indexed": false,
          "internalType": "uint256",
          "name": "votesAgainst",
          "type": "uint256"
        },
        {
          "indexed": true,
          "internalType": "uint256",
          "name": "choice",
          "type": "uint256"
        },
        {
          "indexed": true,
          "internalType": "address",
          "name": "voter",
          "type": "address"
        }
      ],
      "name": "_SpotCheckRevealed",
      "type": "event"
    },
    {
      "anonymous": false,
      "inputs": [
        {
          "indexed": true,
          "internalType": "uint256",
          "name": "DataID",
          "type": "uint256"
        },
        {
          "indexed": false,
          "internalType": "string",
          "name": "file_hash",
          "type": "string"
        },
        {
          "indexed": false,
          "internalType": "string",
          "name": "URL_domain",
          "type": "string"
        },
        {
          "indexed": true,
          "internalType": "address",
          "name": "sender",
          "type": "address"
        }
      ],
      "name": "_SpotSubmitted",
      "type": "event"
    },
    {
      "anonymous": false,
      "inputs": [
        {
          "indexed": false,
          "internalType": "uint256",
          "name": "numTokens",
          "type": "uint256"
        },
        {
          "indexed": true,
          "internalType": "address",
          "name": "voter",
          "type": "address"
        }
      ],
      "name": "_StakeAllocated",
      "type": "event"
    },
    {
      "anonymous": false,
      "inputs": [
        {
          "indexed": true,
          "internalType": "uint256",
          "name": "DataID",
          "type": "uint256"
        },
        {
          "indexed": true,
          "internalType": "address",
          "name": "voter",
          "type": "address"
        }
      ],
      "name": "_TokensRescued",
      "type": "event"
    },
    {
      "anonymous": false,
      "inputs": [
        {
          "indexed": false,
          "internalType": "uint256",
          "name": "numTokens",
          "type": "uint256"
        },
        {
          "indexed": true,
          "internalType": "address",
          "name": "voter",
          "type": "address"
        }
      ],
      "name": "_VotingRightsWithdrawn",
      "type": "event"
    },
    {
      "anonymous": false,
      "inputs": [
        {
          "indexed": true,
          "internalType": "uint256",
          "name": "batchID",
          "type": "uint256"
        },
        {
          "indexed": false,
          "internalType": "address",
          "name": "worker",
          "type": "address"
        }
      ],
      "name": "_WorkAllocated",
      "type": "event"
    },
    {
      "anonymous": false,
      "inputs": [
        {
          "indexed": true,
          "internalType": "address",
          "name": "worker",
          "type": "address"
        },
        {
          "indexed": false,
          "internalType": "uint256",
          "name": "timestamp",
          "type": "uint256"
        }
      ],
      "name": "_WorkerRegistered",
      "type": "event"
    },
    {
      "anonymous": false,
      "inputs": [
        {
          "indexed": true,
          "internalType": "address",
          "name": "worker",
          "type": "address"
        },
        {
          "indexed": false,
          "internalType": "uint256",
          "name": "timestamp",
          "type": "uint256"
        }
      ],
      "name": "_WorkerUnregistered",
      "type": "event"
    },
    {
      "inputs": [],
      "name": "AcceptedBatchsCounter",
      "outputs": [
        {
          "internalType": "uint256",
          "name": "",
          "type": "uint256"
        }
      ],
      "stateMutability": "view",
      "type": "function"
    },
    {
      "inputs": [],
      "name": "AllTxsCounter",
      "outputs": [
        {
          "internalType": "uint256",
          "name": "",
          "type": "uint256"
        }
      ],
      "stateMutability": "view",
      "type": "function"
    },
    {
      "inputs": [],
      "name": "AllocateWork",
      "outputs": [],
      "stateMutability": "nonpayable",
      "type": "function"
    },
    {
      "inputs": [],
      "name": "AllocatedBatchCursor",
      "outputs": [
        {
          "internalType": "uint256",
          "name": "",
          "type": "uint256"
        }
      ],
      "stateMutability": "view",
      "type": "function"
    },
    {
      "inputs": [],
      "name": "AmIRegistered",
      "outputs": [
        {
          "internalType": "bool",
          "name": "passed",
          "type": "bool"
        }
      ],
      "stateMutability": "view",
      "type": "function"
    },
    {
      "inputs": [
        {
          "internalType": "string",
          "name": "_a",
          "type": "string"
        },
        {
          "internalType": "string",
          "name": "_b",
          "type": "string"
        }
      ],
      "name": "AreStringsEqual",
      "outputs": [
        {
          "internalType": "bool",
          "name": "",
          "type": "bool"
        }
      ],
      "stateMutability": "pure",
      "type": "function"
    },
    {
      "inputs": [],
      "name": "BatchCheckingCursor",
      "outputs": [
        {
          "internalType": "uint256",
          "name": "",
          "type": "uint256"
        }
      ],
      "stateMutability": "view",
      "type": "function"
    },
    {
      "inputs": [],
      "name": "BatchDeletionCursor",
      "outputs": [
        {
          "internalType": "uint256",
          "name": "",
          "type": "uint256"
        }
      ],
      "stateMutability": "view",
      "type": "function"
    },
    {
      "inputs": [
        {
          "internalType": "uint256",
          "name": "",
          "type": "uint256"
        }
      ],
      "name": "DataBatch",
      "outputs": [
        {
          "internalType": "uint256",
          "name": "start_idx",
          "type": "uint256"
        },
        {
          "internalType": "uint256",
          "name": "counter",
          "type": "uint256"
        },
        {
          "internalType": "uint256",
          "name": "uncommited_workers",
          "type": "uint256"
        },
        {
          "internalType": "uint256",
          "name": "unrevealed_workers",
          "type": "uint256"
        },
        {
          "internalType": "bool",
          "name": "complete",
          "type": "bool"
        },
        {
          "internalType": "bool",
          "name": "checked",
          "type": "bool"
        },
        {
          "internalType": "bool",
          "name": "allocated_to_work",
          "type": "bool"
        },
        {
          "internalType": "uint256",
          "name": "commitEndDate",
          "type": "uint256"
        },
        {
          "internalType": "uint256",
          "name": "revealEndDate",
          "type": "uint256"
        },
        {
          "internalType": "uint256",
          "name": "votesFor",
          "type": "uint256"
        },
        {
          "internalType": "uint256",
          "name": "votesAgainst",
          "type": "uint256"
        },
        {
          "internalType": "string",
          "name": "batchIPFSfile",
          "type": "string"
        },
        {
          "internalType": "uint256",
          "name": "item_count",
          "type": "uint256"
        },
        {
          "internalType": "enum DataSpotting.DataStatus",
          "name": "status",
          "type": "uint8"
        }
      ],
      "stateMutability": "view",
      "type": "function"
    },
    {
      "inputs": [
        {
          "internalType": "uint256",
          "name": "_DataBatchId",
          "type": "uint256"
        }
      ],
      "name": "DataCommitEndDate",
      "outputs": [
        {
          "internalType": "uint256",
          "name": "commitEndDate",
          "type": "uint256"
        }
      ],
      "stateMutability": "view",
      "type": "function"
    },
    {
      "inputs": [
        {
          "internalType": "uint256",
          "name": "_DataBatchId",
          "type": "uint256"
        }
      ],
      "name": "DataEnded",
      "outputs": [
        {
          "internalType": "bool",
          "name": "ended",
          "type": "bool"
        }
      ],
      "stateMutability": "view",
      "type": "function"
    },
    {
      "inputs": [
        {
          "internalType": "uint256",
          "name": "_DataBatchId",
          "type": "uint256"
        }
      ],
      "name": "DataExists",
      "outputs": [
        {
          "internalType": "bool",
          "name": "exists",
          "type": "bool"
        }
      ],
      "stateMutability": "view",
      "type": "function"
    },
    {
      "inputs": [],
      "name": "DataNonce",
      "outputs": [
        {
          "internalType": "uint256",
          "name": "",
          "type": "uint256"
        }
      ],
      "stateMutability": "view",
      "type": "function"
    },
    {
      "inputs": [
        {
          "internalType": "uint256",
          "name": "_DataBatchId",
          "type": "uint256"
        }
      ],
      "name": "DataRevealEndDate",
      "outputs": [
        {
          "internalType": "uint256",
          "name": "revealEndDate",
          "type": "uint256"
        }
      ],
      "stateMutability": "view",
      "type": "function"
    },
    {
      "inputs": [
        {
          "internalType": "address",
          "name": "user_",
          "type": "address"
        }
      ],
      "name": "GetCurrentWork",
      "outputs": [
        {
          "internalType": "uint256",
          "name": "",
          "type": "uint256"
        }
      ],
      "stateMutability": "view",
      "type": "function"
    },
    {
      "inputs": [
        {
          "internalType": "uint256",
          "name": "",
          "type": "uint256"
        }
      ],
      "name": "GlobalSpotFlowManager",
      "outputs": [
        {
          "internalType": "uint256",
          "name": "timestamp",
          "type": "uint256"
        },
        {
          "internalType": "uint256",
          "name": "counter",
          "type": "uint256"
        }
      ],
      "stateMutability": "view",
      "type": "function"
    },
    {
      "inputs": [
        {
          "internalType": "address",
          "name": "user_",
          "type": "address"
        }
      ],
      "name": "IsNewWorkAvailable",
      "outputs": [
        {
          "internalType": "bool",
          "name": "",
          "type": "bool"
        }
      ],
      "stateMutability": "view",
      "type": "function"
    },
    {
      "inputs": [],
      "name": "LastAllocationTime",
      "outputs": [
        {
          "internalType": "uint256",
          "name": "",
          "type": "uint256"
        }
      ],
      "stateMutability": "view",
      "type": "function"
    },
    {
      "inputs": [],
      "name": "LastBatchCounter",
      "outputs": [
        {
          "internalType": "uint256",
          "name": "",
          "type": "uint256"
        }
      ],
      "stateMutability": "view",
      "type": "function"
    },
    {
      "inputs": [
        {
          "internalType": "address",
          "name": "",
          "type": "address"
        },
        {
          "internalType": "uint256",
          "name": "",
          "type": "uint256"
        }
      ],
      "name": "MasterWorkers",
      "outputs": [
        {
          "internalType": "address",
          "name": "",
          "type": "address"
        }
      ],
      "stateMutability": "view",
      "type": "function"
    },
    {
      "inputs": [],
      "name": "NotCommitedCounter",
      "outputs": [
        {
          "internalType": "uint256",
          "name": "",
          "type": "uint256"
        }
      ],
      "stateMutability": "view",
      "type": "function"
    },
    {
      "inputs": [],
      "name": "NotRevealedCounter",
      "outputs": [
        {
          "internalType": "uint256",
          "name": "",
          "type": "uint256"
        }
      ],
      "stateMutability": "view",
      "type": "function"
    },
    {
      "inputs": [],
      "name": "Parameters",
      "outputs": [
        {
          "internalType": "contract IParametersManager",
          "name": "",
          "type": "address"
        }
      ],
      "stateMutability": "view",
      "type": "function"
    },
    {
      "inputs": [],
      "name": "RegisterWorker",
      "outputs": [],
      "stateMutability": "nonpayable",
      "type": "function"
    },
    {
      "inputs": [],
      "name": "RejectedBatchsCounter",
      "outputs": [
        {
          "internalType": "uint256",
          "name": "",
          "type": "uint256"
        }
      ],
      "stateMutability": "view",
      "type": "function"
    },
    {
      "inputs": [],
      "name": "SPOT_TOGGLE_ENABLED",
      "outputs": [
        {
          "internalType": "bool",
          "name": "",
          "type": "bool"
        }
      ],
      "stateMutability": "view",
      "type": "function"
    },
    {
      "inputs": [
        {
          "internalType": "address",
          "name": "_worker",
          "type": "address"
        },
        {
          "internalType": "uint256",
          "name": "_TokensAmountToAllocate",
          "type": "uint256"
        }
      ],
      "name": "SelectAddressForUser",
      "outputs": [
        {
          "internalType": "address",
          "name": "",
          "type": "address"
        }
      ],
      "stateMutability": "view",
      "type": "function"
    },
    {
      "inputs": [
        {
          "internalType": "string[]",
          "name": "file_hashs",
          "type": "string[]"
        },
        {
          "internalType": "string[]",
          "name": "URL_domains",
          "type": "string[]"
        },
        {
          "internalType": "uint256",
          "name": "item_count_",
          "type": "uint256"
        },
        {
          "internalType": "string",
          "name": "extra_",
          "type": "string"
        }
      ],
      "name": "SpotData",
      "outputs": [
        {
          "internalType": "uint256",
          "name": "Dataid_",
          "type": "uint256"
        }
      ],
      "stateMutability": "nonpayable",
      "type": "function"
    },
    {
      "inputs": [
        {
          "internalType": "uint256",
          "name": "",
          "type": "uint256"
        }
      ],
      "name": "SpotsMapping",
      "outputs": [
        {
          "internalType": "string",
          "name": "ipfs_hash",
          "type": "string"
        },
        {
          "internalType": "address",
          "name": "author",
          "type": "address"
        },
        {
          "internalType": "uint256",
          "name": "timestamp",
          "type": "uint256"
        },
        {
          "internalType": "uint256",
          "name": "item_count",
          "type": "uint256"
        },
        {
          "internalType": "string",
          "name": "URL_domain",
          "type": "string"
        },
        {
          "internalType": "string",
          "name": "extra",
          "type": "string"
        },
        {
          "internalType": "enum DataSpotting.DataStatus",
          "name": "status",
          "type": "uint8"
        }
      ],
      "stateMutability": "view",
      "type": "function"
    },
    {
      "inputs": [
        {
          "internalType": "address",
          "name": "",
          "type": "address"
        }
      ],
      "name": "SystemStakedTokenBalance",
      "outputs": [
        {
          "internalType": "uint256",
          "name": "",
          "type": "uint256"
        }
      ],
      "stateMutability": "view",
      "type": "function"
    },
    {
      "inputs": [],
      "name": "TriggerUpdate",
      "outputs": [],
      "stateMutability": "nonpayable",
      "type": "function"
    },
    {
      "inputs": [],
      "name": "UnregisterWorker",
      "outputs": [],
      "stateMutability": "nonpayable",
      "type": "function"
    },
    {
      "inputs": [
        {
          "internalType": "uint256",
          "name": "",
          "type": "uint256"
        },
        {
          "internalType": "address",
          "name": "",
          "type": "address"
        }
      ],
      "name": "UserBatchCounts",
      "outputs": [
        {
          "internalType": "uint256",
          "name": "",
          "type": "uint256"
        }
      ],
      "stateMutability": "view",
      "type": "function"
    },
    {
      "inputs": [
        {
          "internalType": "uint256",
          "name": "",
          "type": "uint256"
        },
        {
          "internalType": "address",
          "name": "",
          "type": "address"
        }
      ],
      "name": "UserBatchFrom",
      "outputs": [
        {
          "internalType": "string",
          "name": "",
          "type": "string"
        }
      ],
      "stateMutability": "view",
      "type": "function"
    },
    {
      "inputs": [
        {
          "internalType": "address",
          "name": "",
          "type": "address"
        },
        {
          "internalType": "uint256",
          "name": "",
          "type": "uint256"
        }
      ],
      "name": "UserChecksCommits",
      "outputs": [
        {
          "internalType": "bool",
          "name": "",
          "type": "bool"
        }
      ],
      "stateMutability": "view",
      "type": "function"
    },
    {
      "inputs": [
        {
          "internalType": "address",
          "name": "",
          "type": "address"
        },
        {
          "internalType": "uint256",
          "name": "",
          "type": "uint256"
        }
      ],
      "name": "UserChecksReveals",
      "outputs": [
        {
          "internalType": "bool",
          "name": "",
          "type": "bool"
        }
      ],
      "stateMutability": "view",
      "type": "function"
    },
    {
      "inputs": [
        {
          "internalType": "uint256",
          "name": "",
          "type": "uint256"
        },
        {
          "internalType": "address",
          "name": "",
          "type": "address"
        }
      ],
      "name": "UserNewFiles",
      "outputs": [
        {
          "internalType": "string",
          "name": "",
          "type": "string"
        }
      ],
      "stateMutability": "view",
      "type": "function"
    },
    {
      "inputs": [
        {
          "internalType": "address",
          "name": "",
          "type": "address"
        },
        {
          "internalType": "uint256",
          "name": "",
          "type": "uint256"
        }
      ],
      "name": "UserSubmissions",
      "outputs": [
        {
          "internalType": "uint256",
          "name": "",
          "type": "uint256"
        }
      ],
      "stateMutability": "view",
      "type": "function"
    },
    {
      "inputs": [
        {
          "internalType": "uint256",
          "name": "",
          "type": "uint256"
        },
        {
          "internalType": "address",
          "name": "",
          "type": "address"
        }
      ],
      "name": "UserVotes",
      "outputs": [
        {
          "internalType": "uint256",
          "name": "",
          "type": "uint256"
        }
      ],
      "stateMutability": "view",
      "type": "function"
    },
    {
      "inputs": [
        {
          "internalType": "uint256",
          "name": "_DataBatchId",
          "type": "uint256"
        }
      ],
      "name": "ValidateDataBatch",
      "outputs": [],
      "stateMutability": "nonpayable",
      "type": "function"
    },
    {
      "inputs": [
        {
          "internalType": "uint256",
          "name": "",
          "type": "uint256"
        },
        {
          "internalType": "uint256",
          "name": "",
          "type": "uint256"
        }
      ],
      "name": "WorkersPerBatch",
      "outputs": [
        {
          "internalType": "address",
          "name": "",
          "type": "address"
        }
      ],
      "stateMutability": "view",
      "type": "function"
    },
    {
      "inputs": [
        {
          "internalType": "address",
          "name": "",
          "type": "address"
        },
        {
          "internalType": "uint256",
          "name": "",
          "type": "uint256"
        }
      ],
      "name": "WorkersSpotFlowManager",
      "outputs": [
        {
          "internalType": "uint256",
          "name": "timestamp",
          "type": "uint256"
        },
        {
          "internalType": "uint256",
          "name": "counter",
          "type": "uint256"
        }
      ],
      "stateMutability": "view",
      "type": "function"
    },
    {
      "inputs": [
        {
          "internalType": "address",
          "name": "",
          "type": "address"
        }
      ],
      "name": "WorkersState",
      "outputs": [
        {
          "internalType": "address",
          "name": "worker_address",
          "type": "address"
        },
        {
          "internalType": "uint256",
          "name": "allocated_work_batch",
          "type": "uint256"
        },
        {
          "internalType": "bool",
          "name": "has_completed_work",
          "type": "bool"
        },
        {
          "internalType": "uint256",
          "name": "succeeding_novote_count",
          "type": "uint256"
        },
        {
          "internalType": "uint256",
          "name": "last_interaction_date",
          "type": "uint256"
        },
        {
          "internalType": "bool",
          "name": "registered",
          "type": "bool"
        },
        {
          "internalType": "bool",
          "name": "unregistration_request",
          "type": "bool"
        },
        {
          "internalType": "uint256",
          "name": "registration_date",
          "type": "uint256"
        },
        {
          "internalType": "uint256",
          "name": "majority_counter",
          "type": "uint256"
        },
        {
          "internalType": "uint256",
          "name": "minority_counter",
          "type": "uint256"
        }
      ],
      "stateMutability": "view",
      "type": "function"
    },
    {
      "inputs": [
        {
          "internalType": "address",
          "name": "_user",
          "type": "address"
        },
        {
          "internalType": "uint256",
          "name": "_DataBatchId",
          "type": "uint256"
        }
      ],
      "name": "attrUUID",
      "outputs": [
        {
          "internalType": "bytes32",
          "name": "UUID",
          "type": "bytes32"
        }
      ],
      "stateMutability": "pure",
      "type": "function"
    },
    {
      "inputs": [
        {
          "internalType": "uint256",
          "name": "",
          "type": "uint256"
        }
      ],
      "name": "availableWorkers",
      "outputs": [
        {
          "internalType": "address",
          "name": "",
          "type": "address"
        }
      ],
      "stateMutability": "view",
      "type": "function"
    },
    {
      "inputs": [
        {
          "internalType": "uint256",
          "name": "",
          "type": "uint256"
        }
      ],
      "name": "busyWorkers",
      "outputs": [
        {
          "internalType": "address",
          "name": "",
          "type": "address"
        }
      ],
      "stateMutability": "view",
      "type": "function"
    },
    {
      "inputs": [
        {
          "internalType": "uint256",
          "name": "_DataBatchId",
          "type": "uint256"
        }
      ],
      "name": "commitPeriodActive",
      "outputs": [
        {
          "internalType": "bool",
          "name": "active",
          "type": "bool"
        }
      ],
      "stateMutability": "view",
      "type": "function"
    },
    {
      "inputs": [
        {
          "internalType": "uint256",
          "name": "_DataBatchId",
          "type": "uint256"
        }
      ],
      "name": "commitPeriodOver",
      "outputs": [
        {
          "internalType": "bool",
          "name": "active",
          "type": "bool"
        }
      ],
      "stateMutability": "view",
      "type": "function"
    },
    {
      "inputs": [
        {
          "internalType": "uint256",
          "name": "_DataBatchId",
          "type": "uint256"
        },
        {
          "internalType": "bytes32",
          "name": "_encryptedHash",
          "type": "bytes32"
        },
        {
          "internalType": "bytes32",
          "name": "_encryptedVote",
          "type": "bytes32"
        },
        {
          "internalType": "uint256",
          "name": "_BatchCount",
          "type": "uint256"
        },
        {
          "internalType": "string",
          "name": "_From",
          "type": "string"
        }
      ],
      "name": "commitSpotCheck",
      "outputs": [],
      "stateMutability": "nonpayable",
      "type": "function"
    },
    {
      "inputs": [
        {
          "internalType": "uint256",
          "name": "_DataId",
          "type": "uint256"
        }
      ],
      "name": "deleteData",
      "outputs": [],
      "stateMutability": "nonpayable",
      "type": "function"
    },
    {
      "inputs": [
        {
          "internalType": "uint256",
          "name": "_BatchId",
          "type": "uint256"
        }
      ],
      "name": "deleteDataBatch",
      "outputs": [],
      "stateMutability": "nonpayable",
      "type": "function"
    },
    {
      "inputs": [],
      "name": "destroyContract",
      "outputs": [],
      "stateMutability": "nonpayable",
      "type": "function"
    },
    {
      "inputs": [
        {
          "internalType": "address",
          "name": "_voter",
          "type": "address"
        },
        {
          "internalType": "uint256",
          "name": "_DataBatchId",
          "type": "uint256"
        }
      ],
      "name": "didCommit",
      "outputs": [
        {
          "internalType": "bool",
          "name": "committed",
          "type": "bool"
        }
      ],
      "stateMutability": "view",
      "type": "function"
    },
    {
      "inputs": [
        {
          "internalType": "address",
          "name": "_voter",
          "type": "address"
        },
        {
          "internalType": "uint256",
          "name": "_DataBatchId",
          "type": "uint256"
        }
      ],
      "name": "didReveal",
      "outputs": [
        {
          "internalType": "bool",
          "name": "revealed",
          "type": "bool"
        }
      ],
      "stateMutability": "view",
      "type": "function"
    },
    {
      "inputs": [
        {
          "internalType": "uint256",
          "name": "_k",
          "type": "uint256"
        },
        {
          "internalType": "uint256",
          "name": "N_range",
          "type": "uint256"
        }
      ],
      "name": "generateIntegers",
      "outputs": [
        {
          "internalType": "uint256[]",
          "name": "",
          "type": "uint256[]"
        }
      ],
      "stateMutability": "view",
      "type": "function"
    },
    {
      "inputs": [],
      "name": "getAcceptedBatchesCount",
      "outputs": [
        {
          "internalType": "uint256",
          "name": "count",
          "type": "uint256"
        }
      ],
      "stateMutability": "view",
      "type": "function"
    },
    {
      "inputs": [],
      "name": "getActiveWorkersCount",
      "outputs": [
        {
          "internalType": "uint256",
          "name": "numWorkers",
          "type": "uint256"
        }
      ],
      "stateMutability": "view",
      "type": "function"
    },
    {
      "inputs": [],
      "name": "getAvailableWorkersCount",
      "outputs": [
        {
          "internalType": "uint256",
          "name": "numWorkers",
          "type": "uint256"
        }
      ],
      "stateMutability": "view",
      "type": "function"
    },
    {
      "inputs": [
        {
          "internalType": "uint256",
          "name": "_DataBatchId",
          "type": "uint256"
        }
      ],
      "name": "getBatchByID",
      "outputs": [
        {
          "components": [
            {
              "internalType": "uint256",
              "name": "start_idx",
              "type": "uint256"
            },
            {
              "internalType": "uint256",
              "name": "counter",
              "type": "uint256"
            },
            {
              "internalType": "uint256",
              "name": "uncommited_workers",
              "type": "uint256"
            },
            {
              "internalType": "uint256",
              "name": "unrevealed_workers",
              "type": "uint256"
            },
            {
              "internalType": "bool",
              "name": "complete",
              "type": "bool"
            },
            {
              "internalType": "bool",
              "name": "checked",
              "type": "bool"
            },
            {
              "internalType": "bool",
              "name": "allocated_to_work",
              "type": "bool"
            },
            {
              "internalType": "uint256",
              "name": "commitEndDate",
              "type": "uint256"
            },
            {
              "internalType": "uint256",
              "name": "revealEndDate",
              "type": "uint256"
            },
            {
              "internalType": "uint256",
              "name": "votesFor",
              "type": "uint256"
            },
            {
              "internalType": "uint256",
              "name": "votesAgainst",
              "type": "uint256"
            },
            {
              "internalType": "string",
              "name": "batchIPFSfile",
              "type": "string"
            },
            {
              "internalType": "uint256",
              "name": "item_count",
              "type": "uint256"
            },
            {
              "internalType": "enum DataSpotting.DataStatus",
              "name": "status",
              "type": "uint8"
            }
          ],
          "internalType": "struct DataSpotting.BatchMetadata",
          "name": "batch",
          "type": "tuple"
        }
      ],
      "stateMutability": "view",
      "type": "function"
    },
    {
      "inputs": [
        {
          "internalType": "uint256",
          "name": "_DataBatchId",
          "type": "uint256"
        }
      ],
      "name": "getBatchIPFSFileByID",
      "outputs": [
        {
          "internalType": "string",
          "name": "batch",
          "type": "string"
        }
      ],
      "stateMutability": "view",
      "type": "function"
    },
    {
      "inputs": [],
      "name": "getBusyWorkersCount",
      "outputs": [
        {
          "internalType": "uint256",
          "name": "numWorkers",
          "type": "uint256"
        }
      ],
      "stateMutability": "view",
      "type": "function"
    },
    {
      "inputs": [
        {
          "internalType": "address",
          "name": "_voter",
          "type": "address"
        },
        {
          "internalType": "uint256",
          "name": "_DataBatchId",
          "type": "uint256"
        }
      ],
      "name": "getCommitIPFSHash",
      "outputs": [
        {
          "internalType": "bytes32",
          "name": "commitHash",
          "type": "bytes32"
        }
      ],
      "stateMutability": "view",
      "type": "function"
    },
    {
      "inputs": [
        {
          "internalType": "address",
          "name": "_voter",
          "type": "address"
        },
        {
          "internalType": "uint256",
          "name": "_DataBatchId",
          "type": "uint256"
        }
      ],
      "name": "getCommitVoteHash",
      "outputs": [
        {
          "internalType": "bytes32",
          "name": "commitHash",
          "type": "bytes32"
        }
      ],
      "stateMutability": "view",
      "type": "function"
    },
    {
      "inputs": [
        {
          "internalType": "uint256",
          "name": "_DataId",
          "type": "uint256"
        }
      ],
      "name": "getDataByID",
      "outputs": [
        {
          "components": [
            {
              "internalType": "string",
              "name": "ipfs_hash",
              "type": "string"
            },
            {
              "internalType": "address",
              "name": "author",
              "type": "address"
            },
            {
              "internalType": "uint256",
              "name": "timestamp",
              "type": "uint256"
            },
            {
              "internalType": "uint256",
              "name": "item_count",
              "type": "uint256"
            },
            {
              "internalType": "string",
              "name": "URL_domain",
              "type": "string"
            },
            {
              "internalType": "string",
              "name": "extra",
              "type": "string"
            },
            {
              "internalType": "enum DataSpotting.DataStatus",
              "name": "status",
              "type": "uint8"
            }
          ],
          "internalType": "struct DataSpotting.SpottedData",
          "name": "data",
          "type": "tuple"
        }
      ],
      "stateMutability": "view",
      "type": "function"
    },
    {
      "inputs": [
        {
          "internalType": "uint256",
          "name": "_DataBatchId",
          "type": "uint256"
        }
      ],
      "name": "getDomainsForBatch",
      "outputs": [
        {
          "internalType": "string[]",
          "name": "",
          "type": "string[]"
        }
      ],
      "stateMutability": "view",
      "type": "function"
    },
    {
      "inputs": [
        {
          "internalType": "uint256",
          "name": "_clearVote",
          "type": "uint256"
        },
        {
          "internalType": "uint256",
          "name": "_salt",
          "type": "uint256"
        }
      ],
      "name": "getEncryptedHash",
      "outputs": [
        {
          "internalType": "bytes32",
          "name": "keccak256hash",
          "type": "bytes32"
        }
      ],
      "stateMutability": "pure",
      "type": "function"
    },
    {
      "inputs": [
        {
          "internalType": "string",
          "name": "_hash",
          "type": "string"
        },
        {
          "internalType": "uint256",
          "name": "_salt",
          "type": "uint256"
        }
      ],
      "name": "getEncryptedStringHash",
      "outputs": [
        {
          "internalType": "bytes32",
          "name": "keccak256hash",
          "type": "bytes32"
        }
      ],
      "stateMutability": "pure",
      "type": "function"
    },
    {
      "inputs": [
        {
          "internalType": "uint256",
          "name": "_DataBatchId",
          "type": "uint256"
        }
      ],
      "name": "getFromsForBatch",
      "outputs": [
        {
          "internalType": "string[]",
          "name": "",
          "type": "string[]"
        }
      ],
      "stateMutability": "view",
      "type": "function"
    },
    {
      "inputs": [],
      "name": "getGlobalPeriodSpotCount",
      "outputs": [
        {
          "internalType": "uint256",
          "name": "",
          "type": "uint256"
        }
      ],
      "stateMutability": "view",
      "type": "function"
    },
    {
      "inputs": [
        {
          "internalType": "uint256",
          "name": "_DataBatchId",
          "type": "uint256"
        }
      ],
      "name": "getIPFShashesForBatch",
      "outputs": [
        {
          "internalType": "string[]",
          "name": "",
          "type": "string[]"
        }
      ],
      "stateMutability": "view",
      "type": "function"
    },
    {
      "inputs": [
        {
          "internalType": "address",
          "name": "_voter",
          "type": "address"
        },
        {
          "internalType": "uint256",
          "name": "_numTokens",
          "type": "uint256"
        },
        {
          "internalType": "uint256",
          "name": "_DataBatchId",
          "type": "uint256"
        }
      ],
      "name": "getInsertPointForNumTokens",
      "outputs": [
        {
          "internalType": "uint256",
          "name": "prevNode",
          "type": "uint256"
        }
      ],
      "stateMutability": "view",
      "type": "function"
    },
    {
      "inputs": [],
      "name": "getLastAllocatedBatchId",
      "outputs": [
        {
          "internalType": "uint256",
          "name": "LastAllocatedBatchId",
          "type": "uint256"
        }
      ],
      "stateMutability": "view",
      "type": "function"
    },
    {
      "inputs": [],
      "name": "getLastBatchId",
      "outputs": [
        {
          "internalType": "uint256",
          "name": "LastBatchId",
          "type": "uint256"
        }
      ],
      "stateMutability": "view",
      "type": "function"
    },
    {
      "inputs": [],
      "name": "getLastCheckedBatchId",
      "outputs": [
        {
          "internalType": "uint256",
          "name": "LastCheckedBatchId",
          "type": "uint256"
        }
      ],
      "stateMutability": "view",
      "type": "function"
    },
    {
      "inputs": [],
      "name": "getLastDataId",
      "outputs": [
        {
          "internalType": "uint256",
          "name": "DataId",
          "type": "uint256"
        }
      ],
      "stateMutability": "view",
      "type": "function"
    },
    {
      "inputs": [
        {
          "internalType": "address",
          "name": "_voter",
          "type": "address"
        }
      ],
      "name": "getLastNode",
      "outputs": [
        {
          "internalType": "uint256",
          "name": "DataID",
          "type": "uint256"
        }
      ],
      "stateMutability": "view",
      "type": "function"
    },
    {
      "inputs": [
        {
          "internalType": "address",
          "name": "_voter",
          "type": "address"
        }
      ],
      "name": "getLockedTokens",
      "outputs": [
        {
          "internalType": "uint256",
          "name": "numTokens",
          "type": "uint256"
        }
      ],
      "stateMutability": "view",
      "type": "function"
    },
    {
      "inputs": [
        {
          "internalType": "address",
          "name": "_voter",
          "type": "address"
        },
        {
          "internalType": "uint256",
          "name": "_DataBatchId",
          "type": "uint256"
        },
        {
          "internalType": "uint256",
          "name": "_salt",
          "type": "uint256"
        }
      ],
      "name": "getNumPassingTokens",
      "outputs": [
        {
          "internalType": "uint256",
          "name": "correctSpotChecks",
          "type": "uint256"
        }
      ],
      "stateMutability": "view",
      "type": "function"
    },
    {
      "inputs": [
        {
          "internalType": "address",
          "name": "_voter",
          "type": "address"
        },
        {
          "internalType": "uint256",
          "name": "_DataBatchId",
          "type": "uint256"
        }
      ],
      "name": "getNumTokens",
      "outputs": [
        {
          "internalType": "uint256",
          "name": "numTokens",
          "type": "uint256"
        }
      ],
      "stateMutability": "view",
      "type": "function"
    },
    {
      "inputs": [],
      "name": "getRandom",
      "outputs": [
        {
          "internalType": "uint256",
          "name": "",
          "type": "uint256"
        }
      ],
      "stateMutability": "view",
      "type": "function"
    },
    {
      "inputs": [],
      "name": "getRejectedBatchesCount",
      "outputs": [
        {
          "internalType": "uint256",
          "name": "count",
          "type": "uint256"
        }
      ],
      "stateMutability": "view",
      "type": "function"
    },
    {
      "inputs": [],
      "name": "getSeed",
      "outputs": [
        {
          "internalType": "bytes32",
          "name": "addr",
          "type": "bytes32"
        }
      ],
      "stateMutability": "view",
      "type": "function"
    },
    {
      "inputs": [
        {
          "internalType": "uint256",
          "name": "_DataBatchId",
          "type": "uint256"
        }
      ],
      "name": "getSubmittedFilesForBatch",
      "outputs": [
        {
          "internalType": "string[]",
          "name": "",
          "type": "string[]"
        }
      ],
      "stateMutability": "view",
      "type": "function"
    },
    {
      "inputs": [
        {
          "internalType": "address",
          "name": "_user",
          "type": "address"
        }
      ],
      "name": "getSystemTokenBalance",
      "outputs": [
        {
          "internalType": "uint256",
          "name": "tokens",
          "type": "uint256"
        }
      ],
      "stateMutability": "view",
      "type": "function"
    },
    {
      "inputs": [],
      "name": "getTxCounter",
      "outputs": [
        {
          "internalType": "uint256",
          "name": "Counter",
          "type": "uint256"
        }
      ],
      "stateMutability": "view",
      "type": "function"
    },
    {
      "inputs": [
        {
          "internalType": "address",
          "name": "user",
          "type": "address"
        }
      ],
      "name": "getUserDatas",
      "outputs": [
        {
          "internalType": "uint256[]",
          "name": "user_Datas",
          "type": "uint256[]"
        }
      ],
      "stateMutability": "view",
      "type": "function"
    },
    {
      "inputs": [
        {
          "internalType": "address",
          "name": "user_",
          "type": "address"
        }
      ],
      "name": "getUserPeriodSpotCount",
      "outputs": [
        {
          "internalType": "uint256",
          "name": "",
          "type": "uint256"
        }
      ],
      "stateMutability": "view",
      "type": "function"
    },
    {
      "inputs": [
        {
          "internalType": "uint256",
          "name": "_DataBatchId",
          "type": "uint256"
        }
      ],
      "name": "getVotesForBatch",
      "outputs": [
        {
          "internalType": "uint256[]",
          "name": "",
          "type": "uint256[]"
        }
      ],
      "stateMutability": "view",
      "type": "function"
    },
    {
      "inputs": [
        {
          "internalType": "uint256",
          "name": "_terminationDate",
          "type": "uint256"
        }
      ],
      "name": "isExpired",
      "outputs": [
        {
          "internalType": "bool",
          "name": "expired",
          "type": "bool"
        }
      ],
      "stateMutability": "view",
      "type": "function"
    },
    {
      "inputs": [
        {
          "internalType": "uint256",
          "name": "_DataBatchId",
          "type": "uint256"
        }
      ],
      "name": "isPassed",
      "outputs": [
        {
          "internalType": "bool",
          "name": "passed",
          "type": "bool"
        }
      ],
      "stateMutability": "view",
      "type": "function"
    },
    {
      "inputs": [
        {
          "internalType": "uint256",
          "name": "_DataBatchId",
          "type": "uint256"
        },
        {
          "internalType": "address",
          "name": "_worker",
          "type": "address"
        }
      ],
      "name": "isWorkerAllocatedToBatch",
      "outputs": [
        {
          "internalType": "bool",
          "name": "",
          "type": "bool"
        }
      ],
      "stateMutability": "view",
      "type": "function"
    },
    {
      "inputs": [
        {
          "internalType": "address",
          "name": "_worker",
          "type": "address"
        }
      ],
      "name": "isWorkerRegistered",
      "outputs": [
        {
          "internalType": "bool",
          "name": "passed",
          "type": "bool"
        }
      ],
      "stateMutability": "view",
      "type": "function"
    },
    {
      "inputs": [],
      "name": "owner",
      "outputs": [
        {
          "internalType": "address",
          "name": "",
          "type": "address"
        }
      ],
      "stateMutability": "view",
      "type": "function"
    },
    {
      "inputs": [
        {
          "internalType": "uint256",
          "name": "k",
          "type": "uint256"
        },
        {
          "internalType": "uint256",
          "name": "N",
          "type": "uint256"
        }
      ],
      "name": "random_selection",
      "outputs": [
        {
          "internalType": "uint256[]",
          "name": "",
          "type": "uint256[]"
        }
      ],
      "stateMutability": "view",
      "type": "function"
    },
    {
      "inputs": [
        {
          "internalType": "uint256",
          "name": "_DataBatchId",
          "type": "uint256"
        }
      ],
      "name": "remainingCommitDuration",
      "outputs": [
        {
          "internalType": "uint256",
          "name": "remainingTime",
          "type": "uint256"
        }
      ],
      "stateMutability": "view",
      "type": "function"
    },
    {
      "inputs": [
        {
          "internalType": "uint256",
          "name": "_DataBatchId",
          "type": "uint256"
        }
      ],
      "name": "remainingRevealDuration",
      "outputs": [
        {
          "internalType": "uint256",
          "name": "remainingTime",
          "type": "uint256"
        }
      ],
      "stateMutability": "view",
      "type": "function"
    },
    {
      "inputs": [],
      "name": "renounceOwnership",
      "outputs": [],
      "stateMutability": "nonpayable",
      "type": "function"
    },
    {
      "inputs": [
        {
          "internalType": "uint256",
          "name": "_DataBatchId",
          "type": "uint256"
        }
      ],
      "name": "rescueTokens",
      "outputs": [],
      "stateMutability": "nonpayable",
      "type": "function"
    },
    {
      "inputs": [
        {
          "internalType": "uint256[]",
          "name": "_DataBatchIDs",
          "type": "uint256[]"
        }
      ],
      "name": "rescueTokensInMultipleDatas",
      "outputs": [],
      "stateMutability": "nonpayable",
      "type": "function"
    },
    {
      "inputs": [
        {
          "internalType": "uint256",
          "name": "_DataBatchId",
          "type": "uint256"
        }
      ],
      "name": "revealPeriodActive",
      "outputs": [
        {
          "internalType": "bool",
          "name": "active",
          "type": "bool"
        }
      ],
      "stateMutability": "view",
      "type": "function"
    },
    {
      "inputs": [
        {
          "internalType": "uint256",
          "name": "_DataBatchId",
          "type": "uint256"
        }
      ],
      "name": "revealPeriodOver",
      "outputs": [
        {
          "internalType": "bool",
          "name": "active",
          "type": "bool"
        }
      ],
      "stateMutability": "view",
      "type": "function"
    },
    {
      "inputs": [
        {
          "internalType": "uint256",
          "name": "_DataBatchId",
          "type": "uint256"
        },
        {
          "internalType": "string",
          "name": "_clearIPFSHash",
          "type": "string"
        },
        {
          "internalType": "uint256",
          "name": "_clearVote",
          "type": "uint256"
        },
        {
          "internalType": "uint256",
          "name": "_salt",
          "type": "uint256"
        }
      ],
      "name": "revealSpotCheck",
      "outputs": [],
      "stateMutability": "nonpayable",
      "type": "function"
    },
    {
      "inputs": [
        {
          "internalType": "uint256",
          "name": "N",
          "type": "uint256"
        }
      ],
      "name": "shuffle_array",
      "outputs": [
        {
          "internalType": "uint256[]",
          "name": "",
          "type": "uint256[]"
        }
      ],
      "stateMutability": "view",
      "type": "function"
    },
    {
      "inputs": [
        {
          "internalType": "uint256",
          "name": "",
          "type": "uint256"
        }
      ],
      "name": "toUnregisterWorkers",
      "outputs": [
        {
          "internalType": "address",
          "name": "",
          "type": "address"
        }
      ],
      "stateMutability": "view",
      "type": "function"
    },
    {
      "inputs": [],
      "name": "token",
      "outputs": [
        {
          "internalType": "contract IERC20",
          "name": "",
          "type": "address"
        }
      ],
      "stateMutability": "view",
      "type": "function"
    },
    {
      "inputs": [
        {
          "internalType": "address",
          "name": "newOwner",
          "type": "address"
        }
      ],
      "name": "transferOwnership",
      "outputs": [],
      "stateMutability": "nonpayable",
      "type": "function"
    },
    {
      "inputs": [
        {
          "internalType": "uint256",
          "name": "AllocatedBatchCursor_",
          "type": "uint256"
        }
      ],
      "name": "updateAllocatedBatchCursor",
      "outputs": [],
      "stateMutability": "nonpayable",
      "type": "function"
    },
    {
      "inputs": [
        {
          "internalType": "uint256",
          "name": "BatchCheckingCursor_",
          "type": "uint256"
        }
      ],
      "name": "updateBatchCheckingCursor",
      "outputs": [],
      "stateMutability": "nonpayable",
      "type": "function"
    },
    {
      "inputs": [],
      "name": "updateGlobalSpotFlow",
      "outputs": [],
      "stateMutability": "nonpayable",
      "type": "function"
    },
    {
      "inputs": [
        {
          "internalType": "address",
          "name": "addr",
          "type": "address"
        }
      ],
      "name": "updateParametersManager",
      "outputs": [],
      "stateMutability": "nonpayable",
      "type": "function"
    },
    {
      "inputs": [
        {
          "internalType": "address",
          "name": "user_",
          "type": "address"
        }
      ],
      "name": "updateUserSpotFlow",
      "outputs": [],
      "stateMutability": "nonpayable",
      "type": "function"
    },
    {
      "inputs": [
        {
          "internalType": "uint256",
          "name": "_prevID",
          "type": "uint256"
        },
        {
          "internalType": "uint256",
          "name": "_nextID",
          "type": "uint256"
        },
        {
          "internalType": "address",
          "name": "_voter",
          "type": "address"
        },
        {
          "internalType": "uint256",
          "name": "_numTokens",
          "type": "uint256"
        }
      ],
      "name": "validPosition",
      "outputs": [
        {
          "internalType": "bool",
          "name": "APPROVED",
          "type": "bool"
        }
      ],
      "stateMutability": "view",
      "type": "function"
    },
    {
      "inputs": [
        {
          "internalType": "uint256",
          "name": "_numTokens",
          "type": "uint256"
        }
      ],
      "name": "withdrawVotingRights",
      "outputs": [],
      "stateMutability": "nonpayable",
      "type": "function"
    }
  ],
  "bytecode": "0x608060405260006001818155601d829055601e829055601f8190556020819055602181905560225560238190556024819055602581905560268190556027556029805460ff60a01b1916600160a01b1790553480156200005e57600080fd5b506040516200b3903803806200b390833981016040819052620000819162000123565b620000956200008f620000cf565b620000d3565b6001600160a01b038116620000a957600080fd5b602880546001600160a01b0319166001600160a01b039290921691909117905562000153565b3390565b600080546001600160a01b038381166001600160a01b0319831681178455604051919092169283917f8be0079c531659141344cd1fd0a4f28419497f9722a3daafe3b4186f6b6457e09190a35050565b60006020828403121562000135578081fd5b81516001600160a01b03811681146200014c578182fd5b9392505050565b61b22d80620001636000396000f3fe608060405234801561001057600080fd5b50600436106106eb5760003560e01c80638746ff8a11610392578063d1382092116101e9578063e7b1d43c1161011a578063f5ae7c7d116100b8578063f96305f011610087578063f96305f014610e60578063fc0c546a14610e68578063fca4956314610e70578063ff43de9d14610e83576106eb565b8063f5ae7c7d14610e35578063f716596d14610e3d578063f721de4a14610e45578063f80a23fd14610e58576106eb565b8063ef4fcdad116100f4578063ef4fcdad14610dff578063f2d9e74d14610e07578063f2fde38b14610e0f578063f4cdfcc414610e22576106eb565b8063e7b1d43c14610dd1578063eb1322ff14610de4578063ed8becfa14610dec576106eb565b8063d8b7567411610187578063da14563a11610161578063da14563a14610d90578063e44c974b14610d98578063e604c12714610dab578063e798a7da14610dbe576106eb565b8063d8b7567414610d4a578063d9548e5314610d5d578063d9845fb814610d70576106eb565b8063d58f575c116101c3578063d58f575c14610d14578063d6b0206c14610d1c578063d817587e14610d24578063d822ce0114610d37576106eb565b8063d138209214610cdb578063d186981d14610cee578063d420ec0b14610d01576106eb565b8063a9057790116102c3578063b1cf4a7e11610261578063b8f011b31161023b578063b8f011b314610c9a578063bc3002e614610cad578063c4e4f82a14610cc0578063d0d41def14610cd3576106eb565b8063b1cf4a7e14610c61578063b1d7ea9814610c74578063b43bd06914610c87576106eb565b8063aacc5a171161029d578063aacc5a1714610c20578063b0bc471e14610c28578063b10aa58414610c3b578063b1a2e0be14610c4e576106eb565b8063a905779014610be7578063a98eb31e14610bfa578063aa7ca46414610c0d576106eb565b80639d6e3f9611610330578063a1b6b5b71161030a578063a1b6b5b714610bbc578063a350715a14610bc4578063a4439dc514610bcc578063a511dba014610bdf576106eb565b80639d6e3f9614610b835780639fc9c52f14610b96578063a1103f3714610ba9576106eb565b80638da5cb5b1161036c5780638da5cb5b14610b4d5780638df0296e14610b555780639760356014610b685780639769d84614610b7b576106eb565b80638746ff8a14610afe57806388d072eb14610b115780638c89d02714610b24576106eb565b8063576a554311610546578063715018a6116104775780637f97e83611610415578063819b0293116103ef578063819b029314610abd578063821aa8c014610ad057806383e5a8f614610ae35780638473850b14610af6576106eb565b80637f97e83614610a755780637fabe35b14610a88578063815ce74714610ab5576106eb565b806377124dec1161045157806377124dec14610a345780637860dd4114610a475780637ad3be1114610a5a5780637f9510a214610a6d576106eb565b8063715018a614610a1157806371880b1b14610a19578063763a39f214610a2c576106eb565b80636371d81f116104e45780636b1485a3116104be5780636b1485a3146109c55780636b2d95d4146109d85780637018e9c6146109eb5780637074222b146109fe576106eb565b80636371d81f1461099757806363b563a8146109aa578063667bf0f8146109bd576106eb565b80635b113a55116105205780635b113a55146109565780635dc44cf1146109695780635df6055d1461097c578063607d5efa1461098f576106eb565b8063576a554314610910578063579db71c146109235780635a45294314610936576106eb565b806331e2f28511610620578063441c77c0116105be578063494031831161059857806349403183146108da5780634fe8b4c1146108ed578063515535e81461090057806353bf27f114610908576106eb565b8063441c77c0146108b757806347fe2d20146108ca5780634852e2f0146108d2576106eb565b806339e7357c116105fa57806339e7357c146108685780633c062cc814610870578063413b90f714610891578063427fa1d2146108a4576106eb565b806331e2f2851461082d5780633538af821461084057806336fc43fc14610860576106eb565b8063154fd39b1161068d578063275c259011610667578063275c2590146107df5780632c052031146107e75780632d917c68146107fa5780632f469fd11461080d576106eb565b8063154fd39b1461079757806319d903461461079f578063226ed300146107bf576106eb565b8063092a5cce116106c9578063092a5cce1461074e5780630b96c5b0146107565780630e6661a71461077c578063100372f514610784576106eb565b806301a48b98146106f057806301aa5f73146107195780630595762314610739575b600080fd5b6107036106fe36600461990e565b610e8b565b6040516107109190619c51565b60405180910390f35b61072c61072736600461990e565b611028565b6040516107109190619b56565b61074c61074736600461963f565b611085565b005b61074c6110e6565b61076961076436600461990e565b611138565b6040516107109796959493929190619ca7565b61072c61131c565b61074c61079236600461990e565b611322565b61072c611366565b6107b26107ad36600461990e565b61136c565b6040516107109190619bf1565b6107d26107cd36600461990e565b611687565b6040516107109190619c89565b61074c6116c9565b61072c6107f53660046196a2565b611825565b6107d2610808366004619677565b6119c2565b61082061081b366004619937565b6119e2565b6040516107109190619c94565b61072c61083b36600461963f565b611a87565b61085361084e36600461990e565b611a99565b6040516107109190619b89565b6107d2611ac3565b61072c611ad3565b61088361087e36600461990e565b611af0565b604051610710929190619b7b565b61088361089f366004619677565b611b12565b61072c6108b236600461963f565b611b42565b6107d26108c536600461990e565b611be2565b61072c611c3c565b61072c611c42565b6107d26108e836600461990e565b611c48565b61074c6108fb36600461990e565b611e94565b61072c611f39565b61072c611f3f565b61074c61091e36600461963f565b611f45565b61070361093136600461963f565b61210c565b61094961094436600461990e565b612178565b604051610710919061ae75565b61072c610964366004619937565b6123cd565b61072c610977366004619677565b6123ea565b6107b261098a36600461990e565b61241b565b61074c612638565b61074c6109a536600461990e565b6127f1565b6107d26109b836600461990e565b6128a4565b61074c6128f7565b61074c6109d336600461990e565b612f96565b61072c6109e636600461963f565b614720565b6107d26109f936600461990e565b61472f565b61072c610a0c36600461963f565b614770565b61074c61478b565b61072c610a2736600461990e565b6147d6565b61072c614813565b61074c610a4236600461990e565b614819565b61072c610a5536600461990e565b61485d565b61072c610a68366004619677565b6148b1565b61072c614946565b6107d2610a83366004619677565b61495d565b610a9b610a9636600461990e565b6149b0565b6040516107109e9d9c9b9a9998979695949392919061af5c565b61072c614ab0565b6107d2610acb366004619a2f565b614b0c565b610853610ade36600461990e565b614b4d565b61074c610af1366004619966565b614b5d565b61072c6151ba565b610853610b0c366004619677565b6151c0565b610820610b1f366004619937565b61561c565b610b37610b3236600461963f565b615640565b6040516107109a99989796959493929190619b9d565b6108536156a3565b610853610b63366004619a0e565b6156b2565b61074c610b7636600461990e565b6156ea565b61072c615899565b61072c610b9136600461963f565b61589f565b61074c610ba43660046197bd565b61590a565b61072c610bb7366004619677565b615958565b61072c61598b565b61072c615991565b6107d2610bda36600461990e565b615997565b61072c6159f9565b6107d2610bf536600461986c565b6159ff565b61074c610c083660046199ba565b615a65565b6107d2610c1b366004619677565b615e02565b61072c615e55565b61072c610c36366004619677565b615f0a565b610853610c4936600461990e565b615f4f565b6107d2610c5c36600461963f565b615f5f565b61072c610c6f366004619a0e565b61604e565b610703610c82366004619a0e565b616063565b61072c610c953660046196a2565b61627d565b610703610ca8366004619a0e565b616369565b61072c610cbb3660046196d6565b6164d1565b61072c610cce36600461990e565b617007565b61072c617044565b61072c610ce9366004619677565b61704a565b6107d2610cfc366004619937565b61708f565b6107d2610d0f366004619677565b61716a565b61072c61718a565b61072c617190565b6107b2610d3236600461990e565b617196565b610853610d45366004619677565b6173b3565b61072c610d58366004619937565b6173cf565b6107d2610d6b36600461990e565b6173ec565b610d83610d7e36600461990e565b6173f1565b604051610710919061acbf565b61074c617575565b610703610da636600461990e565b61787e565b610820610db936600461990e565b61790a565b6107d2610dcc36600461963f565b6179b5565b61074c610ddf36600461990e565b6179d6565b61072c617b9b565b6107b2610dfa36600461990e565b617ba1565b61072c617eb0565b61072c617eb6565b61074c610e1d36600461963f565b617ebc565b61072c610e303660046198cc565b617f2a565b61072c617f3f565b61074c617f45565b6107d2610e5336600461990e565b61835c565b6107d2618364565b61072c61837d565b610853618383565b61072c610e7e36600461963f565b618392565b61085361845d565b6060610e968261835c565b610ebb5760405162461bcd60e51b8152600401610eb29061a923565b60405180910390fd5b600082815260196020908152604080832080548251818502810185019093528083529192909190830182828015610f1b57602002820191906000526020600020905b81546001600160a01b03168152600190910190602001808311610efd575b50505050509050600081516001600160401b03811115610f4b57634e487b7160e01b600052604160045260246000fd5b604051908082528060200260200182016040528015610f74578160200160208202803683370190505b50905060005b825181101561101e57600c60008681526020019081526020016000206000848381518110610fb857634e487b7160e01b600052603260045260246000fd5b60200260200101516001600160a01b03166001600160a01b031681526020019081526020016000205482828151811061100157634e487b7160e01b600052603260045260246000fd5b6020908102919091010152806110168161b151565b915050610f7a565b509150505b919050565b60006110338261835c565b61104f5760405162461bcd60e51b8152600401610eb29061a923565b600061105a83611be2565b1561107f5760008381526014602052604090206006015461107c90429061b0d3565b90505b92915050565b61108d61846c565b6001600160a01b031661109e6156a3565b6001600160a01b0316146110c45760405162461bcd60e51b8152600401610eb29061a657565b602980546001600160a01b0319166001600160a01b0392909216919091179055565b6110ee61846c565b6001600160a01b03166110ff6156a3565b6001600160a01b0316146111255760405162461bcd60e51b8152600401610eb29061a657565b61112d6156a3565b6001600160a01b0316ff5b6013602052600090815260409020805481906111539061b116565b80601f016020809104026020016040519081016040528092919081815260200182805461117f9061b116565b80156111cc5780601f106111a1576101008083540402835291602001916111cc565b820191906000526020600020905b8154815290600101906020018083116111af57829003601f168201915b50505060018401546002850154600386015460048701805496976001600160a01b0390941696929550909350906112029061b116565b80601f016020809104026020016040519081016040528092919081815260200182805461122e9061b116565b801561127b5780601f106112505761010080835404028352916020019161127b565b820191906000526020600020905b81548152906001019060200180831161125e57829003601f168201915b5050505050908060050180546112909061b116565b80601f01602080910402602001604051908101604052809291908181526020018280546112bc9061b116565b80156113095780601f106112de57610100808354040283529160200191611309565b820191906000526020600020905b8154815290600101906020018083116112ec57829003601f168201915b5050506006909301549192505060ff1687565b601e5481565b61132a61846c565b6001600160a01b031661133b6156a3565b6001600160a01b0316146113615760405162461bcd60e51b8152600401610eb29061a657565b602155565b60225490565b60606113778261835c565b6113935760405162461bcd60e51b8152600401610eb29061a923565b600082815260146020908152604080832081516101c0810183528154815260018201549381019390935260028101549183019190915260038101546060830152600481015460ff808216151560808501526101008083048216151560a08601526201000090920416151560c0840152600582015460e084015260068201549083015260078101546101208301526008810154610140830152600981018054610160840191906114419061b116565b80601f016020809104026020016040519081016040528092919081815260200182805461146d9061b116565b80156114ba5780601f1061148f576101008083540402835291602001916114ba565b820191906000526020600020905b81548152906001019060200180831161149d57829003601f168201915b5050509183525050600a8201546020820152600b82015460409091019060ff1660038111156114f957634e487b7160e01b600052602160045260246000fd5b600381111561151857634e487b7160e01b600052602160045260246000fd5b90525060208101519091506000816001600160401b0381111561154b57634e487b7160e01b600052604160045260246000fd5b60405190808252806020026020018201604052801561157e57816020015b60608152602001906001900390816115695790505b50905060005b8281101561167e57835160009061159c90839061b088565b6000818152601360205260408120600401805492935090916115bd9061b116565b80601f01602080910402602001604051908101604052809291908181526020018280546115e99061b116565b80156116365780601f1061160b57610100808354040283529160200191611636565b820191906000526020600020905b81548152906001019060200180831161161957829003601f168201915b505050505090508084848151811061165e57634e487b7160e01b600052603260045260246000fd5b6020026020010181905250505080806116769061b151565b915050611584565b50949350505050565b60006116928261835c565b6116ae5760405162461bcd60e51b8152600401610eb29061ac4a565b60008281526014602052604090206006015461107f906173ec565b336000908152601560205260409020600581015460ff1615156001146117015760405162461bcd60e51b8152600401610eb29061a5e6565b60018101541580159061171e57506005810154610100900460ff16155b8015611730575061172e33618470565b155b156117895760058101805461ff001916610100179055601c80546001810182556000919091527f0e4562a10381dec21b205ed72637e6b1b523bdd0e4d4d50af5cd23dd4500a2110180546001600160a01b031916331790555b60018101546118015761179b336184e7565b6117a43361863f565b80546001600160a01b031916339081178255426004830181905560058301805460ff191690556040517f9dadcedba048e92b943ea1c5861cee1df63a566d7f795869c004780c1c698e2b916117f891619b56565b60405180910390a25b600160236000828254611814919061b088565b90915550611822905061876f565b50565b60008061183185611b42565b9050600061183f868361704a565b90505b81156119b757611852868361704a565b905084811161190f5783821415611907576001600160a01b0386166000908152601160205260409081902090516301c39b2b60e11b815273__$85afbab79b2b776d70bef879a32ed56424$__916303873656916118b491908690600401619b7b565b60206040518083038186803b1580156118cc57600080fd5b505af41580156118e0573d6000803e3d6000fd5b505050506040513d601f19601f820116820180604052508101906119049190619926565b91505b5090506119bb565b6001600160a01b0386166000908152601160205260409081902090516301c39b2b60e11b815273__$85afbab79b2b776d70bef879a32ed56424$__9163038736569161196091908690600401619b7b565b60206040518083038186803b15801561197857600080fd5b505af415801561198c573d6000803e3d6000fd5b505050506040513d601f19601f820116820180604052508101906119b09190619926565b9150611842565b5090505b9392505050565b600a60209081526000928352604080842090915290825290205460ff1681565b600d60209081526000928352604080842090915290825290208054611a069061b116565b80601f0160208091040260200160405190810160405280929190818152602001828054611a329061b116565b8015611a7f5780601f10611a5457610100808354040283529160200191611a7f565b820191906000526020600020905b815481529060010190602001808311611a6257829003601f168201915b505050505081565b60176020526000908152604090205481565b601a8181548110611aa957600080fd5b6000918252602090912001546001600160a01b0316905081565b602954600160a01b900460ff1681565b60405160009080602081848060185afa611ae957fe5b5051919050565b60028160048110611b0057600080fd5b60020201805460019091015490915082565b60166020528160005260406000208160048110611b2e57600080fd5b600202018054600190910154909250905082565b6001600160a01b03811660009081526011602052604080822090516301c39b2b60e11b815273__$85afbab79b2b776d70bef879a32ed56424$__91630387365691611b9291908590600401619b7b565b60206040518083038186803b158015611baa57600080fd5b505af4158015611bbe573d6000803e3d6000fd5b505050506040513d601f19601f8201168201806040525081019061107f9190619926565b6000611bed8261835c565b611c095760405162461bcd60e51b8152600401610eb29061a923565b600082815260146020526040902060060154611c24906173ec565b15801561107f5750611c3582615997565b1592915050565b60215490565b60265481565b600081815260146020908152604080832081516101c0810183528154815260018201549381019390935260028101549183019190915260038101546060830152600481015460ff808216151560808501526101008083048216151560a08601526201000090920416151560c0840152600582015460e08401526006820154908301526007810154610120830152600881015461014083015260098101805484939291610160840191611cf99061b116565b80601f0160208091040260200160405190810160405280929190818152602001828054611d259061b116565b8015611d725780601f10611d4757610100808354040283529160200191611d72565b820191906000526020600020905b815481529060010190602001808311611d5557829003601f168201915b5050509183525050600a8201546020820152600b82015460409091019060ff166003811115611db157634e487b7160e01b600052602160045260246000fd5b6003811115611dd057634e487b7160e01b600052602160045260246000fd5b905250610140810151610120820151919250611deb9161b088565b602960009054906101000a90046001600160a01b03166001600160a01b031663ea19733c6040518163ffffffff1660e01b815260040160206040518083038186803b158015611e3957600080fd5b505afa158015611e4d573d6000803e3d6000fd5b505050506040513d601f19601f82011682018060405250810190611e719190619926565b611e7b919061b0b4565b610120820151611e8c90606461b0b4565b119392505050565b611e9c61846c565b6001600160a01b0316611ead6156a3565b6001600160a01b031614611ed35760405162461bcd60e51b8152600401610eb29061a657565b600081815260136020526040812090611eec82826193c6565b6001820180546001600160a01b031916905560006002830181905560038301819055611f1c9060048401906193c6565b611f2a6005830160006193c6565b50600601805460ff1916905550565b60205490565b601a5490565b6001600160a01b038116600090815260166020526040812090611f6a6001600461b0d3565b90506000828260048110611f8e57634e487b7160e01b600052603260045260246000fd5b6002020154602954604080516307bc663b60e11b815290519293506001600160a01b0390911691630f78cc7691600480820192602092909190829003018186803b158015611fdb57600080fd5b505afa158015611fef573d6000803e3d6000fd5b505050506040513d601f19601f820116820180604052508101906120139190619926565b61201d824261b0d3565b11156121065760005b6120326001600461b0d3565b8110156120b1578361204582600161b088565b6004811061206357634e487b7160e01b600052603260045260246000fd5b6002020184826004811061208757634e487b7160e01b600052603260045260246000fd5b825460029190910291909101908155600191820154910155806120a98161b151565b915050612026565b50428383600481106120d357634e487b7160e01b600052603260045260246000fd5b600202015560008383600481106120fa57634e487b7160e01b600052603260045260246000fd5b60020201600101819055505b50505050565b6001600160a01b03811660009081526010602090815260409182902080548351818402810184019094528084526060939283018282801561216c57602002820191906000526020600020905b815481526020019060010190808311612158575b50505050509050919050565b612180619402565b60008281526013602052604090819020815160e081019092528054829082906121a89061b116565b80601f01602080910402602001604051908101604052809291908181526020018280546121d49061b116565b80156122215780601f106121f657610100808354040283529160200191612221565b820191906000526020600020905b81548152906001019060200180831161220457829003601f168201915b505050918352505060018201546001600160a01b0316602082015260028201546040820152600382015460608201526004820180546080909201916122659061b116565b80601f01602080910402602001604051908101604052809291908181526020018280546122919061b116565b80156122de5780601f106122b3576101008083540402835291602001916122de565b820191906000526020600020905b8154815290600101906020018083116122c157829003601f168201915b505050505081526020016005820180546122f79061b116565b80601f01602080910402602001604051908101604052809291908181526020018280546123239061b116565b80156123705780601f1061234557610100808354040283529160200191612370565b820191906000526020600020905b81548152906001019060200180831161235357829003601f168201915b5050509183525050600682015460209091019060ff1660038111156123a557634e487b7160e01b600052602160045260246000fd5b60038111156123c457634e487b7160e01b600052602160045260246000fd5b90525092915050565b600e60209081526000928352604080842090915290825290205481565b6010602052816000526040600020818154811061240657600080fd5b90600052602060002001600091509150505481565b60606124268261835c565b6124425760405162461bcd60e51b8152600401610eb29061a923565b6000828152601960209081526040808320805482518185028101850190935280835291929091908301828280156124a257602002820191906000526020600020905b81546001600160a01b03168152600190910190602001808311612484575b50505050509050600081516001600160401b038111156124d257634e487b7160e01b600052604160045260246000fd5b60405190808252806020026020018201604052801561250557816020015b60608152602001906001900390816124f05790505b50905060005b825181101561101e57600f6000868152602001908152602001600020600084838151811061254957634e487b7160e01b600052603260045260246000fd5b60200260200101516001600160a01b03166001600160a01b03168152602001908152602001600020805461257c9061b116565b80601f01602080910402602001604051908101604052809291908181526020018280546125a89061b116565b80156125f55780601f106125ca576101008083540402835291602001916125f5565b820191906000526020600020905b8154815290600101906020018083116125d857829003601f168201915b505050505082828151811061261a57634e487b7160e01b600052603260045260246000fd5b602002602001018190525080806126309061b151565b91505061250b565b60006126466001600461b0d3565b905060006002826004811061266b57634e487b7160e01b600052603260045260246000fd5b6002020154602954604080516307bc663b60e11b815290519293506001600160a01b0390911691630f78cc7691600480820192602092909190829003018186803b1580156126b857600080fd5b505afa1580156126cc573d6000803e3d6000fd5b505050506040513d601f19601f820116820180604052508101906126f09190619926565b6126fa824261b0d3565b11156127ed5760005b61270f6001600461b0d3565b81101561279057600261272382600161b088565b6004811061274157634e487b7160e01b600052603260045260246000fd5b600202016002826004811061276657634e487b7160e01b600052603260045260246000fd5b825460029190910291909101908155600191820154910155806127888161b151565b915050612703565b5042600283600481106127b357634e487b7160e01b600052603260045260246000fd5b60020201600001819055506000600283600481106127e157634e487b7160e01b600052603260045260246000fd5b60020201600101819055505b5050565b6127f961846c565b6001600160a01b031661280a6156a3565b6001600160a01b0316146128305760405162461bcd60e51b8152600401610eb29061a657565b600081815260146020526040812081815560018101829055600281018290556003810182905560048101805462ffffff19169055600581018290556006810182905560078101829055600881018290559061288e60098301826193c6565b506000600a820155600b01805460ff1916905550565b60006128af8261835c565b6128bb57506000611023565b6000828152601460205260409020600601546128d6906173ec565b806128f05750600082815260146020526040902060030154155b9050611023565b60225460009081526014602052604090206004015460ff1661292b5760405162461bcd60e51b8152600401610eb29061a80b565b60225460009081526014602052604090206004015462010000900460ff16156129665760405162461bcd60e51b8152600401610eb29061a589565b6000612a8a6129ff601a80549050602960009054906101000a90046001600160a01b03166001600160a01b031663dfeceed76040518163ffffffff1660e01b815260040160206040518083038186803b1580156129c257600080fd5b505afa1580156129d6573d6000803e3d6000fd5b505050506040513d601f19601f820116820180604052508101906129fa9190619926565b618a48565b602960009054906101000a90046001600160a01b03166001600160a01b031663bd40ef4c6040518163ffffffff1660e01b815260040160206040518083038186803b158015612a4d57600080fd5b505afa158015612a61573d6000803e3d6000fd5b505050506040513d601f19601f82011682018060405250810190612a859190619926565b618a5e565b601a546029546040805163189460df60e31b8152905193945091926001600160a01b039091169163c4a306f8916004808301926020929190829003018186803b158015612ad657600080fd5b505afa158015612aea573d6000803e3d6000fd5b505050506040513d601f19601f82011682018060405250810190612b0e9190619926565b600154612b1b904261b0d3565b106127ed57602280546000908152601460209081526040808320600301869055925482528282206002018590556029548351631b4930b560e11b815293519293612bca936001600160a01b0390921692633692616a92600480840193829003018186803b158015612b8b57600080fd5b505afa158015612b9f573d6000803e3d6000fd5b505050506040513d601f19601f82011682018060405250810190612bc39190619926565b4290618a6e565b90506000612c5e602960009054906101000a90046001600160a01b03166001600160a01b03166372e540306040518163ffffffff1660e01b815260040160206040518083038186803b158015612c1f57600080fd5b505afa158015612c33573d6000803e3d6000fd5b505050506040513d601f19601f82011682018060405250810190612c579190619926565b8390618a6e565b60228054600090815260146020526040808220600501869055825482528082206006018490559154815220600401805462ff0000191662010000179055905060018410801590612caf575060018310155b612ccb5760405162461bcd60e51b8152600401610eb29061a0b2565b6000612cd78585616369565b9050600081516001600160401b03811115612d0257634e487b7160e01b600052604160045260246000fd5b604051908082528060200260200182016040528015612d2b578160200160208202803683370190505b50905060005b8251811015612dea57601a838281518110612d5c57634e487b7160e01b600052603260045260246000fd5b602002602001015181548110612d8257634e487b7160e01b600052603260045260246000fd5b9060005260206000200160009054906101000a90046001600160a01b0316828281518110612dc057634e487b7160e01b600052603260045260246000fd5b6001600160a01b039092166020928302919091019091015280612de28161b151565b915050612d31565b5060005b8251811015612f52576000828281518110612e1957634e487b7160e01b600052603260045260246000fd5b60200260200101519050600060156000836001600160a01b03166001600160a01b031681526020019081526020016000209050612e55826184e7565b612e5e82618a7a565b612eae57601b80546001810182556000919091527f3ad8aa4f87544323a9d1e5dd902f40c356527a7955687113db5f9a85ad579dc10180546001600160a01b0319166001600160a01b0384161790555b6022805460009081526019602090815260408083208054600180820183559185529290932090910180546001600160a01b0319166001600160a01b03871617905582549184019190915560028301805460ff19169055905490517fe4ee2dfabe57cee15e3f558890b20455f54c1fa0718e5276faad70a6500e6b8c90612f35908590619b89565b60405180910390a250508080612f4a9061b151565b915050612dee565b50426001908155602254612f6591618a6e565b602255612f70615e55565b601d81905550600160236000828254612f89919061b088565b9091555050505050505050565b60295460408051632a49798160e11b815290516000926001600160a01b031691635492f302916004808301926020929190829003018186803b158015612fdb57600080fd5b505afa158015612fef573d6000803e3d6000fd5b505050506040513d601f19601f82011682018060405250810190613013919061965b565b6001600160a01b0316141561303a5760405162461bcd60e51b8152600401610eb29061abb2565b60295460408051630855d15160e01b815290516000926001600160a01b031691630855d151916004808301926020929190829003018186803b15801561307f57600080fd5b505afa158015613093573d6000803e3d6000fd5b505050506040513d601f19601f820116820180604052508101906130b7919061965b565b6001600160a01b031614156130de5760405162461bcd60e51b8152600401610eb29061a8ee565b602954604080516304e76c8f60e01b815290516000926001600160a01b0316916304e76c8f916004808301926020929190829003018186803b15801561312357600080fd5b505afa158015613137573d6000803e3d6000fd5b505050506040513d601f19601f8201168201806040525081019061315b919061965b565b6001600160a01b031614156131825760405162461bcd60e51b8152600401610eb29061a0fc565b61318b81611687565b806131a55750600081815260146020526040902060030154155b6131c15760405162461bcd60e51b8152600401610eb29061a6dc565b600081815260146020526040902060040154610100900460ff16156131f85760405162461bcd60e51b8152600401610eb29061a95a565b60008181526019602090815260408083208054825181850281018501909352808352919290919083018282801561325857602002820191906000526020600020905b81546001600160a01b0316815260019091019060200180831161323a575b50505050509050600081516001600160401b0381111561328857634e487b7160e01b600052604160045260246000fd5b6040519080825280602002602001820160405280156132bb57816020015b60608152602001906001900390816132a65790505b509050600082516001600160401b038111156132e757634e487b7160e01b600052604160045260246000fd5b604051908082528060200260200182016040528015613310578160200160208202803683370190505b50905060005b835181101561349357600084828151811061334157634e487b7160e01b600052603260045260246000fd5b6020908102919091018101516000888152600d835260408082206001600160a01b038416835290935291822080549193509061337c9061b116565b80601f01602080910402602001604051908101604052809291908181526020018280546133a89061b116565b80156133f55780601f106133ca576101008083540402835291602001916133f5565b820191906000526020600020905b8154815290600101906020018083116133d857829003601f168201915b50505060008a8152600e602090815260408083206001600160a01b03891684529091529020548851939450928492508891508690811061344557634e487b7160e01b600052603260045260246000fd5b60200260200101819052508085858151811061347157634e487b7160e01b600052603260045260246000fd5b602002602001018181525050505050808061348b9061b151565b915050613316565b50600061353e6064602960009054906101000a90046001600160a01b03166001600160a01b031663ea19733c6040518163ffffffff1660e01b815260040160206040518083038186803b1580156134e957600080fd5b505afa1580156134fd573d6000803e3d6000fd5b505050506040513d601f19601f820116820180604052508101906135219190619926565b865161352d919061b0b4565b613537919061b0a0565b6001618a5e565b60408051602081019091526000808252919250905b845181101561363c576000805b86518110156135f1576135c187848151811061358c57634e487b7160e01b600052603260045260246000fd5b60200260200101518883815181106135b457634e487b7160e01b600052603260045260246000fd5b60200260200101516159ff565b156135df576135d160018361b088565b91508482106135df576135f1565b806135e98161b151565b915050613560565b508381106136295785828151811061361957634e487b7160e01b600052603260045260246000fd5b602002602001015192505061363c565b50806136348161b151565b915050613553565b506000805b8451811015613723576000805b86518110156136d85786818151811061367757634e487b7160e01b600052603260045260246000fd5b602002602001015187848151811061369f57634e487b7160e01b600052603260045260246000fd5b602002602001015114156136c6576136b860018361b088565b91508582106136c6576136d8565b806136d08161b151565b91505061364e565b508481106137105785828151811061370057634e487b7160e01b600052603260045260246000fd5b6020026020010151925050613723565b508061371b8161b151565b915050613641565b50600061372f88611c48565b8015613751575061374f83604051806020016040528060008152506159ff565b155b801561375c57508115155b905060005b8751811015613ed457600088828151811061378c57634e487b7160e01b600052603260045260246000fd5b602002602001015190506000600c60008c81526020019081526020016000206000836001600160a01b03166001600160a01b031681526020019081526020016000205490506000600b6000846001600160a01b03166001600160a01b0316815260200190815260200160002060008d815260200190815260200160002060009054906101000a900460ff169050600060156000856001600160a01b03166001600160a01b0316815260200190815260200160002090508115613d54576001600160a01b038416600090815260156020526040812060028101805460ff1916600190811790915560039091019190915586151514801561388b5750826001145b806138a05750851580156138a0575082600114155b15613d345760295460408051632a49798160e11b815290516000926001600160a01b031691635492f302916004808301926020929190829003018186803b1580156138ea57600080fd5b505afa1580156138fe573d6000803e3d6000fd5b505050506040513d601f19601f82011682018060405250810190613922919061965b565b90506000602960009054906101000a90046001600160a01b03166001600160a01b0316630855d1516040518163ffffffff1660e01b815260040160206040518083038186803b15801561397457600080fd5b505afa158015613988573d6000803e3d6000fd5b505050506040513d601f19601f820116820180604052508101906139ac919061965b565b90506000602960009054906101000a90046001600160a01b03166001600160a01b03166304e76c8f6040518163ffffffff1660e01b815260040160206040518083038186803b1580156139fe57600080fd5b505afa158015613a12573d6000803e3d6000fd5b505050506040513d601f19601f82011682018060405250810190613a36919061965b565b90506000836001600160a01b03166311815086896040518263ffffffff1660e01b8152600401613a669190619b89565b60206040518083038186803b158015613a7e57600080fd5b505afa158015613a92573d6000803e3d6000fd5b505050506040513d601f19601f82011682018060405250810190613ab6919061965b565b9050826001600160a01b0316631b6d990a8c602960009054906101000a90046001600160a01b03166001600160a01b0316630b08bfd96040518163ffffffff1660e01b815260040160206040518083038186803b158015613b1657600080fd5b505afa158015613b2a573d6000803e3d6000fd5b505050506040513d601f19601f82011682018060405250810190613b4e9190619926565b613b58919061b0b4565b836040518363ffffffff1660e01b8152600401613b7692919061af28565b602060405180830381600087803b158015613b9057600080fd5b505af1158015613ba4573d6000803e3d6000fd5b505050506040513d601f19601f82011682018060405250810190613bc8919061984c565b613be45760405162461bcd60e51b8152600401610eb29061a24c565b816001600160a01b031663e0ca50948c602960009054906101000a90046001600160a01b03166001600160a01b031663f80de0a06040518163ffffffff1660e01b815260040160206040518083038186803b158015613c4257600080fd5b505afa158015613c56573d6000803e3d6000fd5b505050506040513d601f19601f82011682018060405250810190613c7a9190619926565b613c84919061b0b4565b836040518363ffffffff1660e01b8152600401613ca292919061af11565b602060405180830381600087803b158015613cbc57600080fd5b505af1158015613cd0573d6000803e3d6000fd5b505050506040513d601f19601f82011682018060405250810190613cf4919061984c565b613d105760405162461bcd60e51b8152600401610eb29061a739565b6001856007016000828254613d25919061b088565b90915550613d4f945050505050565b6001816008016000828254613d49919061b088565b90915550505b613e42565b6001600160a01b0384166000908152601560205260408120600301805460019290613d8090849061b088565b909155505060295460408051634fda48fb60e11b815290516001600160a01b0390921691639fb491f691600480820192602092909190829003018186803b158015613dca57600080fd5b505afa158015613dde573d6000803e3d6000fd5b505050506040513d601f19601f82011682018060405250810190613e029190619926565b6001600160a01b0385166000908152601560205260409020600301541415613e425760058101805460ff19169055613e39846184e7565b613e428461863f565b60006001820155600581015460ff168015613e635750613e6184618aea565b155b15613ebd57613e718461863f565b601a80546001810182556000919091527f057c384a7d1c54f3a1b2e5e67b2617b8224fdfd1ea7234eea573a6ff665ff63e0180546001600160a01b0319166001600160a01b0386161790555b505050508080613ecc9061b151565b915050613761565b50600088815260146020908152604090912060048101805461ff0019166101001790558451613f0b92600990920191860190619466565b506000888152601460205260409020600a01829055801561461f5760008881526014602052604081208054600190910154909190613f49908361b088565b9050815b818110156143ec576000818152601360209081526040808320600101546029548251632a49798160e11b815292516001600160a01b0392831695949190921692635492f3029260048083019392829003018186803b158015613fae57600080fd5b505afa158015613fc2573d6000803e3d6000fd5b505050506040513d601f19601f82011682018060405250810190613fe6919061965b565b90506000602960009054906101000a90046001600160a01b03166001600160a01b0316630855d1516040518163ffffffff1660e01b815260040160206040518083038186803b15801561403857600080fd5b505afa15801561404c573d6000803e3d6000fd5b505050506040513d601f19601f82011682018060405250810190614070919061965b565b90506000602960009054906101000a90046001600160a01b03166001600160a01b03166304e76c8f6040518163ffffffff1660e01b815260040160206040518083038186803b1580156140c257600080fd5b505afa1580156140d6573d6000803e3d6000fd5b505050506040513d601f19601f820116820180604052508101906140fa919061965b565b90506000836001600160a01b03166311815086866040518263ffffffff1660e01b815260040161412a9190619b89565b60206040518083038186803b15801561414257600080fd5b505afa158015614156573d6000803e3d6000fd5b505050506040513d601f19601f8201168201806040525081019061417a919061965b565b9050826001600160a01b0316631b6d990a8b602960009054906101000a90046001600160a01b03166001600160a01b031663abb10b9b6040518163ffffffff1660e01b815260040160206040518083038186803b1580156141da57600080fd5b505afa1580156141ee573d6000803e3d6000fd5b505050506040513d601f19601f820116820180604052508101906142129190619926565b61421c919061b0b4565b836040518363ffffffff1660e01b815260040161423a92919061af28565b602060405180830381600087803b15801561425457600080fd5b505af1158015614268573d6000803e3d6000fd5b505050506040513d601f19601f8201168201806040525081019061428c919061984c565b6142a85760405162461bcd60e51b8152600401610eb29061a4ee565b816001600160a01b031663e0ca50948b602960009054906101000a90046001600160a01b03166001600160a01b03166330c0bb796040518163ffffffff1660e01b815260040160206040518083038186803b15801561430657600080fd5b505afa15801561431a573d6000803e3d6000fd5b505050506040513d601f19601f8201168201806040525081019061433e9190619926565b614348919061b0b4565b836040518363ffffffff1660e01b815260040161436692919061af11565b602060405180830381600087803b15801561438057600080fd5b505af1158015614394573d6000803e3d6000fd5b505050506040513d601f19601f820116820180604052508101906143b8919061984c565b6143d45760405162461bcd60e51b8152600401610eb29061a68c565b505050505080806143e49061b151565b915050613f4d565b5060008a8152601460205260408120600b01805460ff19166001908117909155602480549192909161441f90849061b088565b909155505060295460408051637b39b17f60e11b815290516000926001600160a01b03169163f67362fe916004808301926020929190829003018186803b15801561446957600080fd5b505afa15801561447d573d6000803e3d6000fd5b505050506040513d601f19601f820116820180604052508101906144a1919061965b565b6001600160a01b031614156144c85760405162461bcd60e51b8152600401610eb29061a13f565b60295460408051637b39b17f60e11b815290516000926001600160a01b03169163f67362fe916004808301926020929190829003018186803b15801561450d57600080fd5b505afa158015614521573d6000803e3d6000fd5b505050506040513d601f19601f82011682018060405250810190614545919061965b565b6040516348257dc960e01b81529091506001600160a01b038216906348257dc990614574908e90600401619b56565b600060405180830381600087803b15801561458e57600080fd5b505af192505050801561459f575060015b6145fe573d8080156145cd576040519150601f19603f3d011682016040523d82523d6000602084013e6145d2565b606091505b5060008051602061b1d8833981519152816040516145f09190619c94565b60405180910390a150614617565b600160236000828254614611919061b088565b90915550505b505050614654565b6000888152601460205260408120600b01805460ff19166002179055602580546001929061464e90849061b088565b90915550505b600160236000828254614667919061b088565b9091555050600088815260146020526040812060020154602680549192909161469190849061b088565b909155505060008881526014602052604081206003015460278054919290916146bb90849061b088565b909155505060008881526013602052604090819020600181015491516001600160a01b03909216917f43916c3ae75995d24cc89b466ed08e6dba74d325f7957f9b37b05f150e12918e9161470e91619d69565b60405180910390a25050505050505050565b600061107f82610ce984611b42565b600061473a8261835c565b61474657506000611023565b600082815260146020526040902060050154614761906173ec565b806128f057506128f082611be2565b6001600160a01b031660009081526017602052604090205490565b61479361846c565b6001600160a01b03166147a46156a3565b6001600160a01b0316146147ca5760405162461bcd60e51b8152600401610eb29061a657565b6147d46000618b5a565b565b60006147e18261835c565b6147fd5760405162461bcd60e51b8152600401610eb29061a923565b5060009081526014602052604090206006015490565b601b5490565b61482161846c565b6001600160a01b03166148326156a3565b6001600160a01b0316146148585760405162461bcd60e51b8152600401610eb29061a657565b602255565b60006148688261835c565b6148845760405162461bcd60e51b8152600401610eb29061a923565b600061488f83615997565b1561107f5760008381526014602052604090206005015461107c90429061b0d3565b600073__$0947e710b66d7779e1d561254425e1375a$__636981015860126148d98686615958565b6040518363ffffffff1660e01b81526004016148f692919061ade2565b60206040518083038186803b15801561490e57600080fd5b505af4158015614922573d6000803e3d6000fd5b505050506040513d601f19601f8201168201806040525081019061107c9190619926565b601b54601a546000916149589161b088565b905090565b60006149688261835c565b6149845760405162461bcd60e51b8152600401610eb29061a923565b506001600160a01b03919091166000908152600a60209081526040808320938352929052205460ff1690565b601460205260009081526040902080546001820154600283015460038401546004850154600586015460068701546007880154600889015460098a018054999a98999798969760ff80881698610100890482169862010000900490911696959493929091614a1d9061b116565b80601f0160208091040260200160405190810160405280929190818152602001828054614a499061b116565b8015614a965780601f10614a6b57610100808354040283529160200191614a96565b820191906000526020600020905b815481529060010190602001808311614a7957829003601f168201915b50505050600a830154600b9093015491929160ff1690508e565b600080805b6004811015614b065760028160048110614adf57634e487b7160e01b600052603260045260246000fd5b600202016001015482614af2919061b088565b915080614afe8161b151565b915050614ab5565b50905090565b600080614b19848761704a565b83101590506000614b2a858761704a565b84111580614b36575085155b9050818015614b425750805b979650505050505050565b601b8181548110611aa957600080fd5b614b6685615997565b614b825760405162461bcd60e51b8152600401610eb290619ee0565b336000908152600a6020908152604080832088845290915290205460ff1615614bbd5760405162461bcd60e51b8152600401610eb29061a9e8565b614bc7853361708f565b614be35760405162461bcd60e51b8152600401610eb29061a1b8565b60295460408051632a49798160e11b815290516000926001600160a01b031691635492f302916004808301926020929190829003018186803b158015614c2857600080fd5b505afa158015614c3c573d6000803e3d6000fd5b505050506040513d601f19601f82011682018060405250810190614c60919061965b565b6001600160a01b03161415614c875760405162461bcd60e51b8152600401610eb29061abb2565b602954604080516001624ee91360e11b0319815290516000926001600160a01b03169163ff622dda916004808301926020929190829003018186803b158015614ccf57600080fd5b505afa158015614ce3573d6000803e3d6000fd5b505050506040513d601f19601f82011682018060405250810190614d079190619926565b90506000614d1533836151c0565b6001600160a01b038116600090815260176020526040902054909150821115614d6a576001600160a01b038116600090815260176020526040812054614d5c908490618baa565b9050614d688183618bb6565b505b6000336000908152601160205260408082209051631e0f232560e31b815273__$85afbab79b2b776d70bef879a32ed56424$__9163f079192891614db391908690600401619b7b565b60206040518083038186803b158015614dcb57600080fd5b505af4158015614ddf573d6000803e3d6000fd5b505050506040513d601f19601f82011682018060405250810190614e039190619926565b905088811415614ea85733600090815260116020526040908190209051631e0f232560e31b815273__$85afbab79b2b776d70bef879a32ed56424$__9163f079192891614e5591908d90600401619b7b565b60206040518083038186803b158015614e6d57600080fd5b505af4158015614e81573d6000803e3d6000fd5b505050506040513d601f19601f82011682018060405250810190614ea59190619926565b90505b614eb482823387614b0c565b614ed05760405162461bcd60e51b8152600401610eb29061a55b565b3360009081526011602052604090819020905163524cfe5360e11b815273__$85afbab79b2b776d70bef879a32ed56424$__9163a499fca691614f1c919086908e90879060040161ae5a565b60006040518083038186803b158015614f3457600080fd5b505af4158015614f48573d6000803e3d6000fd5b505050506000614f58338b615958565b60405163099b040f60e31b815290915073__$0947e710b66d7779e1d561254425e1375a$__90634cd8207890614f979060129085908a9060040161ae3c565b60006040518083038186803b158015614faf57600080fd5b505af4158015614fc3573d6000803e3d6000fd5b505060405163099b040f60e31b815273__$0947e710b66d7779e1d561254425e1375a$__9250634cd8207891506150039060129085908e9060040161ae00565b60006040518083038186803b15801561501b57600080fd5b505af415801561502f573d6000803e3d6000fd5b505060405163099b040f60e31b815273__$0947e710b66d7779e1d561254425e1375a$__9250634cd82078915061506f9060129085908d9060040161adb4565b60006040518083038186803b15801561508757600080fd5b505af415801561509b573d6000803e3d6000fd5b50505060008b8152600e60209081526040808320338085529083528184208c90558e8452600f8352818420908452825290912088516150df93509091890190619466565b503360009081526015602090815260408083208d845260149092529091206002015461510c906001618baa565b60008c815260146020908152604080832060020193909355426004850155338252600a81528282208e83529052908120805460ff19166001908117909155602380549192909161515d90849061b088565b9091555061516b905061876f565b336001600160a01b03168b7f42864d9683ff5b12c3b2cc65d705af5aab104b03bc700b802f79e5c971ef08a1886040516151a59190619b56565b60405180910390a35050505050505050505050565b60205481565b6000806001600160a01b0316602960009054906101000a90046001600160a01b03166001600160a01b0316635492f3026040518163ffffffff1660e01b815260040160206040518083038186803b15801561521a57600080fd5b505afa15801561522e573d6000803e3d6000fd5b505050506040513d601f19601f82011682018060405250810190615252919061965b565b6001600160a01b031614156152795760405162461bcd60e51b8152600401610eb29061abb2565b6029546040805163ca64f9e760e01b815290516000926001600160a01b03169163ca64f9e7916004808301926020929190829003018186803b1580156152be57600080fd5b505afa1580156152d2573d6000803e3d6000fd5b505050506040513d601f19601f820116820180604052508101906152f6919061965b565b6001600160a01b0316141561531d5760405162461bcd60e51b8152600401610eb29061a780565b6029546040805163ca64f9e760e01b815290516000926001600160a01b03169163ca64f9e7916004808301926020929190829003018186803b15801561536257600080fd5b505afa158015615376573d6000803e3d6000fd5b505050506040513d601f19601f8201168201806040525081019061539a919061965b565b90506000602960009054906101000a90046001600160a01b03166001600160a01b0316635492f3026040518163ffffffff1660e01b815260040160206040518083038186803b1580156153ec57600080fd5b505afa158015615400573d6000803e3d6000fd5b505050506040513d601f19601f82011682018060405250810190615424919061965b565b9050848060055b6001600160a01b038216158015906154435750600081115b156156105760405163065ee72760e51b81526000906001600160a01b0387169063cbdce4e090615477908690600401619b89565b60206040518083038186803b15801561548f57600080fd5b505afa1580156154a3573d6000803e3d6000fd5b505050506040513d601f19601f820116820180604052508101906154c79190619926565b6001600160a01b03841660009081526017602052604090205490915088116154f25782935050615610565b6001600160a01b038316600090815260176020526040902054881080159061553157506001600160a01b03831660009081526017602052604090205415155b1561556f576001600160a01b03831660009081526017602052604081205461555a908a90618baa565b905080821061556d578394505050615610565b505b87811061557f5782935050615610565b60405163792f4f6960e11b81526001600160a01b0386169063f25e9ed2906155ab908690600401619b89565b60206040518083038186803b1580156155c357600080fd5b505afa1580156155d7573d6000803e3d6000fd5b505050506040513d601f19601f820116820180604052508101906155fb919061965b565b925061560860018361b0d3565b91505061542b565b50909695505050505050565b600f60209081526000928352604080842090915290825290208054611a069061b116565b6015602052600090815260409020805460018201546002830154600384015460048501546005860154600687015460078801546008909801546001600160a01b0390971697959660ff95861696949593948385169461010090940490931692908a565b6000546001600160a01b031690565b601960205281600052604060002081815481106156ce57600080fd5b6000918252602090912001546001600160a01b03169150829050565b60016000828152601460205260409020600b015460ff16600381111561572057634e487b7160e01b600052602160045260246000fd5b1461573d5760405162461bcd60e51b8152600401610eb290619e4a565b336000908152601160205260409081902090516306120d1f60e31b815273__$85afbab79b2b776d70bef879a32ed56424$__9163309068f89161578591908590600401619b7b565b60206040518083038186803b15801561579d57600080fd5b505af41580156157b1573d6000803e3d6000fd5b505050506040513d601f19601f820116820180604052508101906157d5919061984c565b6157f15760405162461bcd60e51b8152600401610eb29061a446565b336000908152601160205260409081902090516301039dfd60e11b815273__$85afbab79b2b776d70bef879a32ed56424$__916302073bfa9161583991908590600401619b7b565b60006040518083038186803b15801561585157600080fd5b505af4158015615865573d6000803e3d6000fd5b50506040513392508391507f402507661c8c8cb90e0a796450b8bdd28b6c516f05279c0cd29e84c344e1699a90600090a350565b60245481565b6001600160a01b038116600090815260166020526040812081805b600481101561101e578281600481106158e357634e487b7160e01b600052603260045260246000fd5b6002020160010154826158f6919061b088565b9150806159028161b151565b9150506158ba565b60005b81518110156127ed5761594682828151811061593957634e487b7160e01b600052603260045260246000fd5b60200260200101516156ea565b806159508161b151565b91505061590d565b6000828260405160200161596d929190619b34565b60405160208183030381529060405280519060200120905092915050565b60245490565b60255481565b60006159a28261835c565b6159be5760405162461bcd60e51b8152600401610eb29061a923565b6000828152601460205260409020600501546159d9906173ec565b15801561107f575050600090815260146020526040902060020154151590565b601e5490565b600081604051602001615a129190619b5f565b6040516020818303038152906040528051906020012083604051602001615a399190619b5f565b604051602081830303815290604052805190602001201415615a5d5750600161107f565b50600061107f565b615a6e84611be2565b615a8a5760405162461bcd60e51b8152600401610eb29061a861565b336000908152600a6020908152604080832087845290915290205460ff16615ac45760405162461bcd60e51b8152600401610eb29061a2ee565b336000908152600b6020908152604080832087845290915290205460ff1615615aff5760405162461bcd60e51b8152600401610eb29061ac73565b615b0933856148b1565b615b138483617f2a565b14615b305760405162461bcd60e51b8152600401610eb290619fa7565b615b3a3385615f0a565b615b44838361604e565b14615b615760405162461bcd60e51b8152600401610eb290619f2f565b6000615b6d338661704a565b90508260011415615ba45760008581526014602052604081206007018054839290615b9990849061b088565b90915550615bcb9050565b60008581526014602052604081206008018054839290615bc590849061b088565b90915550505b336000908152601160205260409081902090516301039dfd60e11b815273__$85afbab79b2b776d70bef879a32ed56424$__916302073bfa91615c1391908990600401619b7b565b60006040518083038186803b158015615c2b57600080fd5b505af4158015615c3f573d6000803e3d6000fd5b5050336000818152600b602090815260408083208b84528252808320805460ff19166001179055600c825280832084845282528083208990558a8352600d82528083209383529281529190208751615c9e945090925090870190619466565b50336000908152601560209081526040808320888452601490925290912060030154615ccb906001618baa565b60008781526014602052604090206003015560028101805460ff19166001179055426004820155600581015460ff1615615d5f5760006001820155615d0f3361863f565b615d1833618aea565b615d5f57601a80546001810182556000919091527f057c384a7d1c54f3a1b2e5e67b2617b8224fdfd1ea7234eea573a6ff665ff63e0180546001600160a01b031916331790555b600086815260146020526040902060030154615d7e57615d7e86612f96565b600160236000828254615d91919061b088565b90915550615d9f905061876f565b6000868152601460205260409081902060078101546008909101549151339287928a927f0867b5027231dcbf37614eaad07d667b9febaf9fdf483f488229b1f140bb074892615df292899290919061af46565b60405180910390a4505050505050565b6000615e0d8261835c565b615e295760405162461bcd60e51b8152600401610eb29061a923565b506001600160a01b03919091166000908152600b60209081526040808320938352929052205460ff1690565b6000804241604051602001615e6a9190619b17565b6040516020818303038152906040528051906020012060001c615e8d919061b0a0565b44615e96611ad3565b604051602001615ea69190619b56565b60408051601f198184030181529190528051602090910120615ec8904261b088565b615ed2919061b088565b615edc919061b088565b604051602001615eec9190619b56565b60408051601f19818403018152919052805160209091012091505090565b600073__$0947e710b66d7779e1d561254425e1375a$__63698101586012615f328686615958565b6040518363ffffffff1660e01b81526004016148f692919061ad96565b601c8181548110611aa957600080fd5b6001600160a01b038082166000908152601560209081526040808320815161014081018352815490951685526001810154928501839052600281015460ff90811615801593870184905260038301546060880152600483015460808801526005830154808316151560a089015261010090819004909216151560c0880152600683015460e088015260078301549187019190915260089091015461012086015292938493909291616016575061601481611687565b155b80156160295750616027858261495d565b155b801561603b57506160398161472f565b155b1561604557600192505b50909392505050565b6000828260405160200161596d929190619b7b565b6060600082116160855760405162461bcd60e51b8152600401610eb29061a632565b6000416040516020016160989190619b17565b6040516020818303038152906040528051906020012060001c6160b9611ad3565b6040516020016160c99190619b56565b60408051601f1981840301815291905280516020909101206160eb904261b088565b6160f5919061b088565b6040516020016161059190619b56565b6040516020818303038152906040528051906020012060001c90506000846001600160401b0381111561614857634e487b7160e01b600052604160045260246000fd5b604051908082528060200260200182016040528015616171578160200160208202803683370190505b5090506000805b868210156162725760008661619163017efeeb8761b0d3565b836040516020016161a3929190619b7b565b6040516020818303038152906040528051906020012060001c6161c6919061b16c565b90506000805b8481101561621e57828682815181106161f557634e487b7160e01b600052603260045260246000fd5b6020026020010151141561620c576001915061621e565b806162168161b151565b9150506161cc565b508061625e578185858151811061624557634e487b7160e01b600052603260045260246000fd5b602090810291909101015261625b84600161b088565b93505b61626983600161b088565b92505050616178565b509095945050505050565b600061628883611687565b6162a45760405162461bcd60e51b8152600401610eb29061ab0b565b6001600160a01b0384166000908152600b6020908152604080832086845290915290205460ff166162e75760405162461bcd60e51b8152600401610eb29061a4a3565b60006162f284611c48565b6162fd576000616300565b60015b60ff1690506000818460405160200161631a929190619b7b565b604051602081830303815290604052805190602001209050600061633e8787615f0a565b905080821461635f5760405162461bcd60e51b8152600401610eb29061a7c2565b614b42878761704a565b606060008211801561637b5750818311155b8015616388575060018310155b6163a45760405162461bcd60e51b8152600401610eb29061a069565b6000826001600160401b038111156163cc57634e487b7160e01b600052604160045260246000fd5b6040519080825280602002602001820160405280156163f5578160200160208202803683370190505b5090506000846001600160401b0381111561642057634e487b7160e01b600052604160045260246000fd5b604051908082528060200260200182016040528015616449578160200160208202803683370190505b509050600061645f61645a84618dde565b618e34565b905060005b868110156162725781818151811061648c57634e487b7160e01b600052603260045260246000fd5b60200260200101518382815181106164b457634e487b7160e01b600052603260045260246000fd5b6020908102919091010152806164c98161b151565b915050616464565b602954604080516309d0f8b560e31b815290516000926001600160a01b031691634e87c5a8916004808301926020929190829003018186803b15801561651657600080fd5b505afa15801561652a573d6000803e3d6000fd5b505050506040513d601f19601f8201168201806040525081019061654e919061984c565b61656a5760405162461bcd60e51b8152600401610eb29061a33d565b8551841461658a5760405162461bcd60e51b8152600401610eb29061a99b565b616592612638565b602960009054906101000a90046001600160a01b03166001600160a01b031663b38e885e6040518163ffffffff1660e01b815260040160206040518083038186803b1580156165e057600080fd5b505afa1580156165f4573d6000803e3d6000fd5b505050506040513d601f19601f820116820180604052508101906166189190619926565b616620614ab0565b1061663d5760405162461bcd60e51b8152600401610eb29061a387565b602954604080516001624ee91360e11b0319815290516000926001600160a01b03169163ff622dda916004808301926020929190829003018186803b15801561668557600080fd5b505afa158015616699573d6000803e3d6000fd5b505050506040513d601f19601f820116820180604052508101906166bd9190619926565b905060006166cb33836151c0565b90506166d681611f45565b602960009054906101000a90046001600160a01b03166001600160a01b031663be2509886040518163ffffffff1660e01b815260040160206040518083038186803b15801561672457600080fd5b505afa158015616738573d6000803e3d6000fd5b505050506040513d601f19601f8201168201806040525081019061675c9190619926565b6167658261589f565b106167825760405162461bcd60e51b8152600401610eb29061abf6565b6001600160a01b0381166000908152601760205260409020548211156167d4576001600160a01b0381166000908152601760205260408120546167c6908490618baa565b90506167d28183618bb6565b505b60005b8851811015616fc157600089828151811061680257634e487b7160e01b600052603260045260246000fd5b60200260200101519050600089898481811061682e57634e487b7160e01b600052603260045260246000fd5b9050602002810190616840919061afec565b8080601f016020809104026020016040519081016040528093929190818152602001838380828437600092018290525033808252601060209081526040808420601e54815460018101835591865283862090910155805160e0810182528a8152918201929092524291810191909152606081018e90526080810186905260a081018d905294955060c08501935091506168d69050565b9052601e54600090815260136020908152604090912082518051919261690192849290910190619466565b506020828101516001830180546001600160a01b0319166001600160a01b039092169190911790556040830151600283015560608301516003830155608083015180516169549260048501920190619466565b5060a08201518051616970916005840191602090910190619466565b5060c082015160068201805460ff191660018360038111156169a257634e487b7160e01b600052602160045260246000fd5b021790555050602080546000908152601482526040908190206029548251634e8f956d60e11b815292519194506001600160a01b031692639d1f2ada9260048082019391829003018186803b1580156169fa57600080fd5b505afa158015616a0e573d6000803e3d6000fd5b505050506040513d601f19601f82011682018060405250810190616a329190619926565b81600101541015616a58576001816001016000828254616a52919061b088565b90915550505b602960009054906101000a90046001600160a01b03166001600160a01b0316639d1f2ada6040518163ffffffff1660e01b815260040160206040518083038186803b158015616aa657600080fd5b505afa158015616aba573d6000803e3d6000fd5b505050506040513d601f19601f82011682018060405250810190616ade9190619926565b816001015410616b2e57600481018054600160ff19909116811761ff00191690915560208054600090616b1290849061b088565b9091555050601e54602080546000908152601490915260409020555b601e54616b3c90600161b088565b601e5560016002616b4e82600461b0d3565b60048110616b6c57634e487b7160e01b600052603260045260246000fd5b600202016001016000828254616b82919061b088565b90915550506001600160a01b0385166000908152601660205260409020600181616bad82600461b0d3565b60048110616bcb57634e487b7160e01b600052603260045260246000fd5b600202016001016000828254616be1919061b088565b90915550616bef9050617575565b60295460408051637b39b17f60e11b815290516000926001600160a01b03169163f67362fe916004808301926020929190829003018186803b158015616c3457600080fd5b505afa158015616c48573d6000803e3d6000fd5b505050506040513d601f19601f82011682018060405250810190616c6c919061965b565b9050806001600160a01b031663da14563a6040518163ffffffff1660e01b8152600401600060405180830381600087803b158015616ca957600080fd5b505af1925050508015616cba575060015b616d15573d808015616ce8576040519150601f19603f3d011682016040523d82523d6000602084013e616ced565b606091505b5060008051602061b1d883398151915281604051616d0b9190619c94565b60405180910390a1505b60295460408051637a0ec25b60e01b815290516000926001600160a01b031691637a0ec25b916004808301926020929190829003018186803b158015616d5a57600080fd5b505afa158015616d6e573d6000803e3d6000fd5b505050506040513d601f19601f82011682018060405250810190616d92919061965b565b9050806001600160a01b031663da14563a6040518163ffffffff1660e01b8152600401600060405180830381600087803b158015616dcf57600080fd5b505af1925050508015616de0575060015b616e3b573d808015616e0e576040519150601f19603f3d011682016040523d82523d6000602084013e616e13565b606091505b5060008051602061b1d883398151915281604051616e319190619c94565b60405180910390a1505b6029546040805163463444b760e01b815290516000926001600160a01b03169163463444b7916004808301926020929190829003018186803b158015616e8057600080fd5b505afa158015616e94573d6000803e3d6000fd5b505050506040513d601f19601f82011682018060405250810190616eb8919061965b565b9050806001600160a01b031663da14563a6040518163ffffffff1660e01b8152600401600060405180830381600087803b158015616ef557600080fd5b505af1925050508015616f06575060015b616f61573d808015616f34576040519150601f19603f3d011682016040523d82523d6000602084013e616f39565b606091505b5060008051602061b1d883398151915281604051616f579190619c94565b60405180910390a1505b886001600160a01b0316601e547fb819ca9ac369919119f75ec7363dd954f75bcfa75f9245647e03da413be0d5828989604051616f9f929190619d19565b60405180910390a3505050505050508080616fb99061b151565b9150506167d7565b50336000908152601560205260409020426004820155616fdf61876f565b600160236000828254616ff2919061b088565b9091555050601e549998505050505050505050565b60006170128261835c565b61702e5760405162461bcd60e51b8152600401610eb29061a923565b5060009081526014602052604090206005015490565b60015481565b600073__$0947e710b66d7779e1d561254425e1375a$__636981015860126170728686615958565b6040518363ffffffff1660e01b81526004016148f692919061ae1e565b60008281526019602090815260408083208054825181850281018501909352808352849384939291908301828280156170f157602002820191906000526020600020905b81546001600160a01b031681526001909101906020018083116170d3575b5050505050905060005b815181101561716057846001600160a01b031682828151811061712e57634e487b7160e01b600052603260045260246000fd5b60200260200101516001600160a01b0316141561714e5760019250617160565b806171588161b151565b9150506170fb565b5090949350505050565b600b60209081526000928352604080842090915290825290205460ff1681565b601f5481565b60225481565b60606171a18261835c565b6171bd5760405162461bcd60e51b8152600401610eb29061a923565b60008281526019602090815260408083208054825181850281018501909352808352919290919083018282801561721d57602002820191906000526020600020905b81546001600160a01b031681526001909101906020018083116171ff575b50505050509050600081516001600160401b0381111561724d57634e487b7160e01b600052604160045260246000fd5b60405190808252806020026020018201604052801561728057816020015b606081526020019060019003908161726b5790505b50905060005b825181101561101e57600d600086815260200190815260200160002060008483815181106172c457634e487b7160e01b600052603260045260246000fd5b60200260200101516001600160a01b03166001600160a01b0316815260200190815260200160002080546172f79061b116565b80601f01602080910402602001604051908101604052809291908181526020018280546173239061b116565b80156173705780601f1061734557610100808354040283529160200191617370565b820191906000526020600020905b81548152906001019060200180831161735357829003601f168201915b505050505082828151811061739557634e487b7160e01b600052603260045260246000fd5b602002602001018190525080806173ab9061b151565b915050617286565b601860205281600052604060002081815481106156ce57600080fd5b600c60209081526000928352604080842090915290825290205481565b421190565b6173f96194ea565b6174028261835c565b61740b57600080fd5b60008281526014602090815260409182902082516101c0810184528154815260018201549281019290925260028101549282019290925260038201546060820152600482015460ff808216151560808401526101008083048216151560a08501526201000090920416151560c0830152600583015460e083015260068301549082015260078201546101208201526008820154610140820152600982018054919291610160840191906174bd9061b116565b80601f01602080910402602001604051908101604052809291908181526020018280546174e99061b116565b80156175365780601f1061750b57610100808354040283529160200191617536565b820191906000526020600020905b81548152906001019060200180831161751957829003601f168201915b5050509183525050600a8201546020820152600b82015460409091019060ff1660038111156123a557634e487b7160e01b600052602160045260246000fd5b601c541561758557617585618fdb565b61758d612638565b6175956190cd565b60005b602960009054906101000a90046001600160a01b03166001600160a01b0316637d630cb06040518163ffffffff1660e01b815260040160206040518083038186803b1580156175e657600080fd5b505afa1580156175fa573d6000803e3d6000fd5b505050506040513d601f19601f8201168201806040525081019061761e9190619926565b8110156178755760215460009081526014602052604081206004015462010000900460ff1615156001148015617677575061765a602154611687565b806176775750602154600090815260146020526040902060030154155b156176bd57602154600090815260146020526040902060040154610100900460ff166176a8576176a8602154612f96565b6021546176b6906001618a6e565b6021555060015b60225460009081526014602052604090206004015462010000900460ff1615156001148015906177745750602960009054906101000a90046001600160a01b03166001600160a01b031663bd40ef4c6040518163ffffffff1660e01b815260040160206040518083038186803b15801561773657600080fd5b505afa15801561774a573d6000803e3d6000fd5b505050506040513d601f19601f8201168201806040525081019061776e9190619926565b601a5410155b8015617794575060225460009081526014602052604090206004015460ff165b80156177a957506177a3615e55565b601d5414155b80156178465750602960009054906101000a90046001600160a01b03166001600160a01b031663c4a306f86040518163ffffffff1660e01b815260040160206040518083038186803b1580156177fe57600080fd5b505afa158015617812573d6000803e3d6000fd5b505050506040513d601f19601f820116820180604052508101906178369190619926565b600154617843904261b0d3565b10155b15617857576178536128f7565b5060015b806178625750617875565b508061786d8161b151565b915050617598565b506147d461876f565b6060600082116178a05760405162461bcd60e51b8152600401610eb29061a53c565b6000826001600160401b038111156178c857634e487b7160e01b600052604160045260246000fd5b6040519080825280602002602001820160405280156178f1578160200160208202803683370190505b509050600061790261645a83618dde565b949350505050565b60606179158261835c565b61791e57600080fd5b6000828152601460205260409020600901805461793a9061b116565b80601f01602080910402602001604051908101604052809291908181526020018280546179669061b116565b801561216c5780601f106179885761010080835404028352916020019161216c565b820191906000526020600020905b8154815290600101906020018083116179965750939695505050505050565b6001600160a01b031660009081526015602052604090206005015460ff1690565b60006179fa6179e433614720565b3360009081526017602052604090205490618baa565b905081811015617a1c5760405162461bcd60e51b8152600401610eb29061a8a7565b6029546040805163ca64f9e760e01b815290516000926001600160a01b03169163ca64f9e7916004808301926020929190829003018186803b158015617a6157600080fd5b505afa158015617a75573d6000803e3d6000fd5b505050506040513d601f19601f82011682018060405250810190617a99919061965b565b604051630895993360e11b81529091506001600160a01b0382169063112b326690617aca908690339060040161af11565b602060405180830381600087803b158015617ae457600080fd5b505af1158015617af8573d6000803e3d6000fd5b505050506040513d601f19601f82011682018060405250810190617b1c919061984c565b617b385760405162461bcd60e51b8152600401610eb29061ab55565b3360009081526017602052604081208054859290617b5790849061b0d3565b909155505060405133907ffaeb7dbb9992397d26ea1944efd40c80b40f702faf69b46c67ad10aba68ccb7990617b8e908690619b56565b60405180910390a2505050565b60275481565b6060617bac8261835c565b617bc85760405162461bcd60e51b8152600401610eb29061a923565b600082815260146020908152604080832081516101c0810183528154815260018201549381019390935260028101549183019190915260038101546060830152600481015460ff808216151560808501526101008083048216151560a08601526201000090920416151560c0840152600582015460e08401526006820154908301526007810154610120830152600881015461014083015260098101805461016084019190617c769061b116565b80601f0160208091040260200160405190810160405280929190818152602001828054617ca29061b116565b8015617cef5780601f10617cc457610100808354040283529160200191617cef565b820191906000526020600020905b815481529060010190602001808311617cd257829003601f168201915b5050509183525050600a8201546020820152600b82015460409091019060ff166003811115617d2e57634e487b7160e01b600052602160045260246000fd5b6003811115617d4d57634e487b7160e01b600052602160045260246000fd5b90525060208101519091506000816001600160401b03811115617d8057634e487b7160e01b600052604160045260246000fd5b604051908082528060200260200182016040528015617db357816020015b6060815260200190600190039081617d9e5790505b50905060005b8281101561167e578351600090617dd190839061b088565b600081815260136020526040812080549293509091617def9061b116565b80601f0160208091040260200160405190810160405280929190818152602001828054617e1b9061b116565b8015617e685780601f10617e3d57610100808354040283529160200191617e68565b820191906000526020600020905b815481529060010190602001808311617e4b57829003601f168201915b5050505050905080848481518110617e9057634e487b7160e01b600052603260045260246000fd5b602002602001018190525050508080617ea89061b151565b915050617db9565b60215481565b60235481565b617ec461846c565b6001600160a01b0316617ed56156a3565b6001600160a01b031614617efb5760405162461bcd60e51b8152600401610eb29061a657565b6001600160a01b038116617f215760405162461bcd60e51b8152600401610eb29061a023565b61182281618b5a565b6000828260405160200161596d929190619d47565b60235490565b3360009081526015602090815260409182902060295483516398a54e2b60e01b8152935191936001600160a01b03909116926398a54e2b92600480840193829003018186803b158015617f9757600080fd5b505afa158015617fab573d6000803e3d6000fd5b505050506040513d601f19601f82011682018060405250810190617fcf9190619926565b601b54601a54617fdf919061b088565b10617ffc5760405162461bcd60e51b8152600401610eb29061aa31565b600581015460ff16156180215760405162461bcd60e51b8152600401610eb290619e13565b602960009054906101000a90046001600160a01b03166001600160a01b0316639fb491f66040518163ffffffff1660e01b815260040160206040518083038186803b15801561806f57600080fd5b505afa158015618083573d6000803e3d6000fd5b505050506040513d601f19601f820116820180604052508101906180a79190619926565b81600301541015801561814c5750602960009054906101000a90046001600160a01b03166001600160a01b0316630f1f0ffe6040518163ffffffff1660e01b815260040160206040518083038186803b15801561810357600080fd5b505afa158015618117573d6000803e3d6000fd5b505050506040513d601f19601f8201168201806040525081019061813b9190619926565b600682015461814a904261b0d3565b105b156181695760405162461bcd60e51b8152600401610eb29061aa73565b602954604080516001624ee91360e11b0319815290516000926001600160a01b03169163ff622dda916004808301926020929190829003018186803b1580156181b157600080fd5b505afa1580156181c5573d6000803e3d6000fd5b505050506040513d601f19601f820116820180604052508101906181e99190619926565b905060006181f733836151c0565b6001600160a01b03811660009081526017602052604090205490915082111561824c576001600160a01b03811660009081526017602052604081205461823e908490618baa565b905061824a8183618bb6565b505b3360009081526017602052604090205482111561827b5760405162461bcd60e51b8152600401610eb29061a3dd565b61828433618aea565b6182cb57601a80546001810182556000919091527f057c384a7d1c54f3a1b2e5e67b2617b8224fdfd1ea7234eea573a6ff665ff63e0180546001600160a01b031916331790555b8254336001600160a01b031990911617835560058301805460ff1916600190811761ff0019169091554260068501556000600385018190556023805490919061831590849061b088565b90915550618323905061876f565b336001600160a01b03167f439d77b7534ec3108fc6143bd4fbabde0b9f2bb54f7b0730d1f70dd2135b765f42604051617b8e9190619b56565b602054101590565b3360009081526015602052604090206005015460ff1690565b60255490565b6028546001600160a01b031681565b6001600160a01b038082166000908152601560209081526040808320815161014081018352815490951685526001810154928501839052600281015460ff90811615159286019290925260038101546060860152600481015460808601526005810154808316151560a087015261010090819004909216151560c0860152600681015460e08601526007810154918501919091526008015461012084015290919061843d848261495d565b15801561844e575061844e8161472f565b156119bb575060009392505050565b6029546001600160a01b031681565b3390565b600080805b601c548110156184e057836001600160a01b0316601c82815481106184aa57634e487b7160e01b600052603260045260246000fd5b6000918252602090912001546001600160a01b031614156184ce57600191506184e0565b806184d88161b151565b915050618475565b5092915050565b60008060005b601a5481101561855b57836001600160a01b0316601a828154811061852257634e487b7160e01b600052603260045260246000fd5b6000918252602090912001546001600160a01b03161415618549576001915080925061855b565b806185538161b151565b9150506184ed565b50801561863a57601a80546185729060019061b0d3565b8154811061859057634e487b7160e01b600052603260045260246000fd5b600091825260209091200154601a80546001600160a01b0390921691849081106185ca57634e487b7160e01b600052603260045260246000fd5b9060005260206000200160006101000a8154816001600160a01b0302191690836001600160a01b03160217905550601a80548061861757634e487b7160e01b600052603160045260246000fd5b600082815260209020810160001990810180546001600160a01b03191690550190555b505050565b60008060005b601b548110156186b357836001600160a01b0316601b828154811061867a57634e487b7160e01b600052603260045260246000fd5b6000918252602090912001546001600160a01b031614156186a157600191508092506186b3565b806186ab8161b151565b915050618645565b50801561863a57601b80546186ca9060019061b0d3565b815481106186e857634e487b7160e01b600052603260045260246000fd5b600091825260209091200154601b80546001600160a01b03909216918490811061872257634e487b7160e01b600052603260045260246000fd5b9060005260206000200160006101000a8154816001600160a01b0302191690836001600160a01b03160217905550601b80548061861757634e487b7160e01b600052603160045260246000fd5b60295460408051632abe0d5f60e11b815290516000926001600160a01b03169163557c1abe916004808301926020929190829003018186803b1580156187b457600080fd5b505afa9250505080156187e4575060408051601f3d908101601f191682019092526187e19181019061965b565b60015b618843573d808015618812576040519150601f19603f3d011682016040523d82523d6000602084013e618817565b606091505b5060008051602061b1d8833981519152816040516188359190619c94565b60405180910390a150618845565b505b602960009054906101000a90046001600160a01b03166001600160a01b031663557c1abe6040518163ffffffff1660e01b815260040160206040518083038186803b15801561889357600080fd5b505afa1580156188a7573d6000803e3d6000fd5b505050506040513d601f19601f820116820180604052508101906188cb919061965b565b90506001600160a01b0381166188f35760405162461bcd60e51b8152600401610eb29061a215565b6000816001600160a01b0316336040516024016189109190619b89565b60408051601f198184030181529181526020820180516001600160e01b0316631f5ac9c560e11b179052516189459190619b5f565b6000604051808303816000865af19150503d8060008114618982576040519150601f19603f3d011682016040523d82523d6000602084013e618987565b606091505b505090506000826001600160a01b0316336040516024016189a89190619b89565b60408051601f198184030181529181526020820180516001600160e01b03166358563d2160e01b179052516189dd9190619b5f565b6000604051808303816000865af19150503d8060008114618a1a576040519150601f19603f3d011682016040523d82523d6000602084013e618a1f565b606091505b505090508180618a2c5750805b61863a5760405162461bcd60e51b8152600401610eb290619e9b565b6000818310618a57578161107c565b5090919050565b600081831015618a57578161107c565b600061107c828461b088565b600080805b601b548110156184e057836001600160a01b0316601b8281548110618ab457634e487b7160e01b600052603260045260246000fd5b6000918252602090912001546001600160a01b03161415618ad857600191506184e0565b80618ae28161b151565b915050618a7f565b600080805b601a548110156184e057836001600160a01b0316601a8281548110618b2457634e487b7160e01b600052603260045260246000fd5b6000918252602090912001546001600160a01b03161415618b4857600191506184e0565b80618b528161b151565b915050618aef565b600080546001600160a01b038381166001600160a01b0319831681178455604051919092169283917f8be0079c531659141344cd1fd0a4f28419497f9722a3daafe3b4186f6b6457e09190a35050565b600061107c828461b0d3565b6029546040805163ca64f9e760e01b815290516000926001600160a01b03169163ca64f9e7916004808301926020929190829003018186803b158015618bfb57600080fd5b505afa158015618c0f573d6000803e3d6000fd5b505050506040513d601f19601f82011682018060405250810190618c33919061965b565b6001600160a01b03161415618c5a5760405162461bcd60e51b8152600401610eb29061a780565b6029546040805163ca64f9e760e01b815290516000926001600160a01b03169163ca64f9e7916004808301926020929190829003018186803b158015618c9f57600080fd5b505afa158015618cb3573d6000803e3d6000fd5b505050506040513d601f19601f82011682018060405250810190618cd7919061965b565b6040516304ada21f60e21b81529091506001600160a01b038216906312b6887c90618d08908690869060040161af11565b602060405180830381600087803b158015618d2257600080fd5b505af1158015618d36573d6000803e3d6000fd5b505050506040513d601f19601f82011682018060405250810190618d5a919061984c565b618d765760405162461bcd60e51b8152600401610eb29061a291565b6001600160a01b03821660009081526017602052604081208054859290618d9e90849061b088565b92505081905550816001600160a01b03167f5aa5d56140767016c877a5333ac3e1ad31a09051098a8fdf7297c4b64530a94284604051617b8e9190619b56565b805160609060005b81811015618e2c5780848281518110618e0f57634e487b7160e01b600052603260045260246000fd5b602090810291909101015280618e248161b151565b915050618de6565b509192915050565b60606000825111618e575760405162461bcd60e51b8152600401610eb29061a18b565b81518060005b81811015618fd257600083618e70615e55565b878481518110618e9057634e487b7160e01b600052603260045260246000fd5b6020026020010151604051602001618ea9929190619b7b565b6040516020818303038152906040528051906020012060001c618ecc919061b16c565b618ed790600161b088565b9050600086618ee760018461b0d3565b81518110618f0557634e487b7160e01b600052603260045260246000fd5b6020026020010151905086600186618f1d919061b0d3565b81518110618f3b57634e487b7160e01b600052603260045260246000fd5b602002602001015187600184618f51919061b0d3565b81518110618f6f57634e487b7160e01b600052603260045260246000fd5b60209081029190910101528087618f8760018861b0d3565b81518110618fa557634e487b7160e01b600052603260045260246000fd5b6020908102919091010152618fbb60018661b0d3565b945050508080618fca9061b151565b915050618e5d565b50929392505050565b60005b601c54811015611822576000601c828154811061900b57634e487b7160e01b600052603260045260246000fd5b60009182526020808320909101546001600160a01b03168083526015909152604090912060058101549192509060ff16801561904957506001810154155b156190b85760058101805461ffff1916905561906482619296565b61906d826184e7565b6190768261863f565b816001600160a01b03167f9dadcedba048e92b943ea1c5861cee1df63a566d7f795869c004780c1c698e2b426040516190af9190619b56565b60405180910390a25b505080806190c59061b151565b915050618fde565b6000601f546021546190df919061b0d3565b9050602960009054906101000a90046001600160a01b03166001600160a01b031663e3115d3c6040518163ffffffff1660e01b815260040160206040518083038186803b15801561912f57600080fd5b505afa158015619143573d6000803e3d6000fd5b505050506040513d601f19601f820116820180604052508101906191679190619926565b8111156118225760005b602954604080516307d630cb60e41b815290516191f5926001600160a01b031691637d630cb0916004808301926020929190829003018186803b1580156191b757600080fd5b505afa1580156191cb573d6000803e3d6000fd5b505050506040513d601f19601f820116820180604052508101906191ef9190619926565b83618a48565b8110156127ed57601f5460009081526014602052604081208054600190910154909190619222908361b088565b9050815b818110156192495761923781611e94565b806192418161b151565b915050619226565b50619255601f546127f1565b601f546040517f72c2fcc891fe835b86fc8bb9abdc52adf52499c52289b3c49e1461eabea2717590600090a25050808061928e9061b151565b915050619171565b60008060005b601c5481101561930a57836001600160a01b0316601c82815481106192d157634e487b7160e01b600052603260045260246000fd5b6000918252602090912001546001600160a01b031614156192f8576001915080925061930a565b806193028161b151565b91505061929c565b50801561863a57601c80546193219060019061b0d3565b8154811061933f57634e487b7160e01b600052603260045260246000fd5b600091825260209091200154601c80546001600160a01b03909216918490811061937957634e487b7160e01b600052603260045260246000fd5b9060005260206000200160006101000a8154816001600160a01b0302191690836001600160a01b03160217905550601c80548061861757634e487b7160e01b600052603160045260246000fd5b5080546193d29061b116565b6000825580601f106193e45750611822565b601f0160209004906000526020600020908101906118229190619578565b6040518060e001604052806060815260200160006001600160a01b03168152602001600081526020016000815260200160608152602001606081526020016000600381111561946157634e487b7160e01b600052602160045260246000fd5b905290565b8280546194729061b116565b90600052602060002090601f01602090048101928261949457600085556194da565b82601f106194ad57805160ff19168380011785556194da565b828001600101855582156194da579182015b828111156194da5782518255916020019190600101906194bf565b506194e6929150619578565b5090565b604051806101c00160405280600081526020016000815260200160008152602001600081526020016000151581526020016000151581526020016000151581526020016000815260200160008152602001600081526020016000815260200160608152602001600081526020016000600381111561946157634e487b7160e01b600052602160045260246000fd5b5b808211156194e65760008155600101619579565b60008083601f84011261959e578182fd5b5081356001600160401b038111156195b4578182fd5b60208301915083602080830285010111156195ce57600080fd5b9250929050565b600082601f8301126195e5578081fd5b81356001600160401b038111156195fe576195fe61b1ac565b619611601f8201601f191660200161b030565b818152846020838601011115619625578283fd5b816020850160208301379081016020019190915292915050565b600060208284031215619650578081fd5b81356119bb8161b1c2565b60006020828403121561966c578081fd5b81516119bb8161b1c2565b60008060408385031215619689578081fd5b82356196948161b1c2565b946020939093013593505050565b6000806000606084860312156196b6578081fd5b83356196c18161b1c2565b95602085013595506040909401359392505050565b6000806000806000608086880312156196ed578081fd5b85356001600160401b0380821115619703578283fd5b818801915088601f830112619716578283fd5b8135602061972b6197268361b059565b61b030565b82815281810190858301875b858110156197605761974e8f8684358b01016195d5565b84529284019290840190600101619737565b50909a50505089013592505080821115619778578283fd5b61978489838a0161958d565b90965094506040880135935060608801359150808211156197a3578283fd5b506197b0888289016195d5565b9150509295509295909350565b600060208083850312156197cf578182fd5b82356001600160401b038111156197e4578283fd5b8301601f810185136197f4578283fd5b80356198026197268261b059565b818152838101908385018584028501860189101561981e578687fd5b8694505b83851015619840578035835260019490940193918501918501619822565b50979650505050505050565b60006020828403121561985d578081fd5b815180151581146119bb578182fd5b6000806040838503121561987e578182fd5b82356001600160401b0380821115619894578384fd5b6198a0868387016195d5565b935060208501359150808211156198b5578283fd5b506198c2858286016195d5565b9150509250929050565b600080604083850312156198de578182fd5b82356001600160401b038111156198f3578283fd5b6198ff858286016195d5565b95602094909401359450505050565b60006020828403121561991f578081fd5b5035919050565b600060208284031215611ae9578081fd5b60008060408385031215619949578182fd5b82359150602083013561995b8161b1c2565b809150509250929050565b600080600080600060a0868803121561997d578283fd5b8535945060208601359350604086013592506060860135915060808601356001600160401b038111156199ae578182fd5b6197b0888289016195d5565b600080600080608085870312156199cf578182fd5b8435935060208501356001600160401b038111156199eb578283fd5b6199f7878288016195d5565b949794965050505060408301359260600135919050565b60008060408385031215619a20578182fd5b50508035926020909101359150565b60008060008060808587031215619a44578182fd5b84359350602085013592506040850135619a5d8161b1c2565b9396929550929360600135925050565b15159052565b60008151808452619a8b81602086016020860161b0ea565b601f01601f19169290920160200192915050565b60048110619abd57634e487b7160e01b600052602160045260246000fd5b9052565b600a815269636f6d6d6974566f746560b01b602082015260400190565b600a8152690c6dedadad2e890c2e6d60b31b602082015260400190565b60098152686e756d546f6b656e7360b81b602082015260400190565b60609190911b6bffffffffffffffffffffffff1916815260140190565b60609290921b6bffffffffffffffffffffffff19168252601482015260340190565b90815260200190565b60008251619b7181846020870161b0ea565b9190910192915050565b918252602082015260400190565b6001600160a01b0391909116815260200190565b6001600160a01b039a909a168a5260208a0198909852951515604089015260608801949094526080870192909252151560a0860152151560c085015260e08401526101008301526101208201526101400190565b6000602080830181845280855180835260408601915060408482028701019250838701855b82811015619c4457603f19888603018452619c32858351619a73565b94509285019290850190600101619c16565b5092979650505050505050565b6020808252825182820181905260009190848201906040850190845b8181101561561057835183529284019291840191600101619c6d565b901515815260200190565b60006020825261107c6020830184619a73565b600060e08252619cba60e083018a619a73565b6001600160a01b038916602084015260408301889052606083018790528281036080840152619ce98187619a73565b905082810360a0840152619cfd8186619a73565b915050619d0d60c0830184619a9f565b98975050505050505050565b600060408252619d2c6040830185619a73565b8281036020840152619d3e8185619a73565b95945050505050565b600060408252619d5a6040830185619a73565b90508260208301529392505050565b6000602080835281845483600282049050600180831680619d8b57607f831692505b858310811415619da957634e487b7160e01b87526022600452602487fd5b619db583878a01619b56565b818015619dc95760018114619dda57619e04565b60ff19861682528782019650619e04565b619de38b61b07c565b895b86811015619dfe57815484820152908501908901619de5565b83019750505b50949998505050505050505050565b6020808252601c908201527f576f726b657220697320616c7265616479207265676973746572656400000000604082015260600190565b60208082526031908201527f676976656e204461746142617463682073686f756c6420626520415050524f5660408201527011510b08185b99081a5d081a5cc81b9bdd607a1b606082015260800190565b60208082526025908201527f72656365697665722072656a6563746564205f7265747269657665534675656c6040820152640818d85b1b60da1b606082015260800190565b6020808252602f908201527f636f6d6d697420706572696f64206e6565647320746f206265206f70656e206660408201526e1bdc881d1a1a5cc818985d18da1259608a1b606082015260800190565b60208082526052908201527f4e6f74207468652073616d6520766f7465207468616e20636f6d6d697465642c60408201527f20696d706f737369626c6520746f206d61746368207769746820676976656e206060820152715f73616c742026205f636c656172566f746560701b608082015260a00190565b60208082526056908201527f4e6f74207468652073616d652068617368207468616e20636f6d6d697465642c60408201527f20696d706f737369626c6520746f206d61746368207769746820676976656e206060820152750bee6c2d8e8404c40bec6d8cac2e492a08ca690c2e6d60531b608082015260a00190565b60208082526026908201527f4f776e61626c653a206e6577206f776e657220697320746865207a65726f206160408201526564647265737360d01b606082015260800190565b60208082526029908201527f6b206f72204e20617265206e6f74204f4b20647572696e672072616e646f6d2060408201526839b2b632b1ba34b7b760b91b606082015260800190565b6020808252602a908201527f4661696c20647572696e6720616c6c6f636174696f6e3a206e6f7420656e6f75604082015269676820776f726b65727360b01b606082015260800190565b60208082526023908201527f5265776172644d616e61676572206973206e756c6c20696e20506172616d657460408201526265727360e81b606082015260800190565b6020808252602c908201527f436f6d706c69616e636553797374656d206e756c6c20696e20506172616d657460408201526b195c9cc810dbdb9d1c9858dd60a21b606082015260800190565b60208082526013908201527205f6d7941727261792e6c656e677468203e203606c1b604082015260600190565b60208082526038908201527f55736572206e6565647320746f20626520616c6c6f636174656420746f20746860408201527f697320626174636820746f20636f6d6d6974206f6e2069740000000000000000606082015260800190565b6020808252601d908201527f734675656c3a206e756c6c2041646472657373204e6f742056616c6964000000604082015260600190565b60208082526025908201527f636f756c64206e6f74207265776172642052455020696e2056616c69646174656040820152642c20312e6160d81b606082015260800190565b6020808252603f908201527f436f756c64206e6f74207265717565737420656e6f75676820616c6c6f63617460408201527f6564207374616b652c2072657175657374416c6c6f63617465645374616b6500606082015260800190565b6020808252602f908201527f5573657220686173206e6f7420636f6d6d69746564206265666f72652c20746860408201526e1d5cc818d85b89dd081c995d99585b608a1b606082015260800190565b6020808252602a908201527f53706f7474696e67206973206e6f742063757272656e746c7920656e61626c656040820152693210313c9027bbb732b960b11b606082015260800190565b60208082526036908201527f476c6f62616c206c696d69743a206578636565646564206d61782064617461206040820152753832b9103437bab916103932ba393c903630ba32b91760511b606082015260800190565b60208082526043908201527f576f726b657220686173206e6f7420656e6f75676820285f6e756d546f6b656e60408201527f732920696e206869732053797374656d5374616b6564546f6b656e42616c616e606082015262031b2960ed1b608082015260a00190565b60208082526039908201527f646c6c4d61703a20646f6573206e6f7420636f696e7461696e205f446174614260408201527f61746368496420666f7220746865206d73672073656e64657200000000000000606082015260800190565b6020808252602b908201527f75736572206d75737420686176652072657665616c656420696e20746869732060408201526a0ced2eccadc4084c2e8c6d60ab1b606082015260800190565b6020808252602e908201527f636f756c64206e6f74207265776172642052455020696e2056616c696461746560408201526d4461746142617463682c20322e6160901b606082015260800190565b60208082526005908201526404e203e20360dc1b604082015260600190565b6020808252601490820152733737ba1030903b30b634b2103837b9b4ba34b7b760611b604082015260600190565b6020808252603b908201527f43616e277420616c6c6f6361746520776f726b2c207468652063757272656e7460408201527f20626174636820697320616c726561647920616c6c6f63617465640000000000606082015260800190565b6020808252602c908201527f576f726b6572206973206e6f74207265676973746572656420736f2063616e2760408201526b3a103ab73932b3b4b9ba32b960a11b606082015260800190565b6020808252600b908201526a04e5f72616e6765203e20360ac1b604082015260600190565b6020808252818101527f4f776e61626c653a2063616c6c6572206973206e6f7420746865206f776e6572604082015260600190565b60208082526030908201527f636f756c64206e6f742072657761726420746f6b656e20696e2056616c69646160408201526f3a32a230ba30a130ba31b4161019173160811b606082015260800190565b6020808252603a908201527f5f446174614261746368496420686173206e6f7420656e6465642c206f72206e60408201527f6f7420657665727920766f74657273206861766520766f746564000000000000606082015260800190565b60208082526027908201527f636f756c64206e6f742072657761726420746f6b656e20696e2056616c6964616040820152663a32961018973160c91b606082015260800190565b60208082526022908201527f5374616b654d616e61676572206973206e756c6c20696e20506172616d657465604082015261727360f01b606082015260800190565b60208082526029908201527f6765744e756d50617373696e67546f6b656e733a20686173686573206d75737460408201526808189948195c5d585b60ba1b606082015260800190565b60208082526036908201527f43616e277420616c6c6f6361746520776f726b2c207468652063757272656e74604082015275206261746368206973206e6f7420636f6d706c65746560501b606082015260800190565b60208082526026908201527f52657665616c20706572696f64206e6f74206f70656e20666f7220746869732060408201526511185d18525160d21b606082015260800190565b60208082526027908201527f617661696c61626c65546f6b656e732073686f756c64206265203e3d205f6e756040820152666d546f6b656e7360c81b606082015260800190565b6020808252818101527f5265704d616e61676572206973206e756c6c20696e20506172616d6574657273604082015260600190565b60208082526017908201527f5f4461746142617463684964206d757374206578697374000000000000000000604082015260600190565b60208082526021908201527f5f446174614261746368496420697320616c72656164792076616c69646174656040820152601960fa1b606082015260800190565b6020808252602d908201527f53706f7474696e673a20696e70757420617272617973206d757374206265206f60408201526c0cc40e6c2daca40d8cadccee8d609b1b606082015260800190565b60208082526029908201527f557365722068617320616c726561647920636f6d6d6974656420746f207468696040820152681cc818985d18da125960ba1b606082015260800190565b60208082526022908201527f4d6178696d756d207265676973746572656420776f726b65727320616c726561604082015261647960f01b606082015260800190565b6020808252606c908201527f5573657220686173206e6f7420766f746564206d616e792074696d657320696e60408201527f206120726f7720616e64206e6565647320746f2077616974204e4f564f54455f60608201527f524547495354524154494f4e5f574149545f4455524154494f4e20746f20726560808201526b33b4b9ba32b91030b3b0b4b760a11b60a082015260c00190565b6020808252602a908201527f5f446174614261746368496420636865636b696e6720766f7465206d757374206040820152691a185d9948195b99195960b21b606082015260800190565b6020808252603b908201527f436f756c64206e6f74207769746864726177566f74696e67526967687473207460408201527f68726f7567682050726f78795374616b654465616c6c6f636174650000000000606082015260800190565b60208082526024908201527f416464726573734d616e61676572206973206e756c6c20696e20506172616d656040820152637465727360e01b606082015260800190565b60208082526034908201527f55736572206c696d69743a206578636565646564206d6178206461746120706560408201527339103437bab916103932ba393c903630ba32b91760611b606082015260800190565b6020808252600f908201526e11185d18481b5d5cdd08195e1a5cdd608a1b604082015260600190565b6020808252602c908201527f557365722068617320616c72656164792072657665616c65642c20746875732060408201526b18d85b89dd081c995d99585b60a21b606082015260800190565b60006020825282516020830152602083015160408301526040830151606083015260608301516080830152608083015161acfc60a0840182619a6d565b5060a083015161ad0f60c0840182619a6d565b5060c083015161ad2260e0840182619a6d565b5060e0830151610100838101919091528301516101208084019190915283015161014080840191909152830151610160808401919091528301516101c061018080850182905261ad766101e0860184619a73565b908601516101a08681019190915286015190925061716082860182619a9f565b60008382528260208301526060604083015261790260608301619ac1565b60008482528360208301526080604083015261add260808301619ac1565b9050826060830152949350505050565b60008382528260208301526060604083015261790260608301619ade565b60008482528360208301526080604083015261add260808301619ade565b60008382528260208301526060604083015261790260608301619afb565b60008482528360208301526080604083015261add260808301619afb565b93845260208401929092526040830152606082015260800190565b600060208252825160e0602084015261ae92610100840182619a73565b905060018060a01b03602085015116604084015260408401516060840152606084015160808401526080840151601f19808584030160a086015261aed68383619a73565b925060a08601519150808584030160c08601525061aef48282619a73565b91505060c084015161af0960e0850182619a9f565b509392505050565b9182526001600160a01b0316602082015260400190565b9182526001600160a01b031660208201526000604082015260600190565b9283526020830191909152604082015260600190565b60008f82528e60208301528d60408301528c60608301528b151560808301528a151560a083015261af9060c083018b619a6d565b8860e08301528761010083015286610120830152856101408301526101c061016083015261afc26101c0830186619a73565b90508361018083015261afd96101a0830184619a9f565b9f9e505050505050505050505050505050565b6000808335601e1984360301811261b002578283fd5b8301803591506001600160401b0382111561b01b578283fd5b6020019150368190038213156195ce57600080fd5b6040518181016001600160401b038111828210171561b0515761b05161b1ac565b604052919050565b60006001600160401b0382111561b0725761b07261b1ac565b5060209081020190565b60009081526020902090565b6000821982111561b09b5761b09b61b180565b500190565b60008261b0af5761b0af61b196565b500490565b600081600019048311821515161561b0ce5761b0ce61b180565b500290565b60008282101561b0e55761b0e561b180565b500390565b60005b8381101561b10557818101518382015260200161b0ed565b838111156121065750506000910152565b60028104600182168061b12a57607f821691505b6020821081141561b14b57634e487b7160e01b600052602260045260246000fd5b50919050565b600060001982141561b1655761b16561b180565b5060010190565b60008261b17b5761b17b61b196565b500690565b634e487b7160e01b600052601160045260246000fd5b634e487b7160e01b600052601260045260246000fd5b634e487b7160e01b600052604160045260246000fd5b6001600160a01b038116811461182257600080fdfe4b87bbd93ba65ede1e2efeca735d9f7a6720bf7d6db0a8355b17dba5b64e5783a264697066735822122093b9af5aabe4c7ba6bf0593b6af6384ce2eee5e8a1d9659cd2fdcf5e8e55153a64736f6c63430008000033",
  "linkReferences": {
    "contracts/worksystems/DataSpotting.sol": {
      "AttributeStore": [
        {
          "length": 20,
          "start": 18968
        },
        {
          "length": 20,
          "start": 20685
        },
        {
          "length": 20,
          "start": 20791
        },
        {
          "length": 20,
          "start": 20899
        },
        {
          "length": 20,
          "start": 24689
        },
        {
          "length": 20,
          "start": 29105
        }
      ],
      "DLL": [
        {
          "length": 20,
          "start": 6638
        },
        {
          "length": 20,
          "start": 6810
        },
        {
          "length": 20,
          "start": 7372
        },
        {
          "length": 20,
          "start": 20205
        },
        {
          "length": 20,
          "start": 20367
        },
        {
          "length": 20,
          "start": 20562
        },
        {
          "length": 20,
          "start": 22719
        },
        {
          "length": 20,
          "start": 22899
        },
        {
          "length": 20,
          "start": 23885
        }
      ]
    }
  },
  "deployedLinkReferences": {
    "contracts/worksystems/DataSpotting.sol": {
      "AttributeStore": [
        {
          "length": 20,
          "start": 18613
        },
        {
          "length": 20,
          "start": 20330
        },
        {
          "length": 20,
          "start": 20436
        },
        {
          "length": 20,
          "start": 20544
        },
        {
          "length": 20,
          "start": 24334
        },
        {
          "length": 20,
          "start": 28750
        }
      ],
      "DLL": [
        {
          "length": 20,
          "start": 6283
        },
        {
          "length": 20,
          "start": 6455
        },
        {
          "length": 20,
          "start": 7017
        },
        {
          "length": 20,
          "start": 19850
        },
        {
          "length": 20,
          "start": 20012
        },
        {
          "length": 20,
          "start": 20207
        },
        {
          "length": 20,
          "start": 22364
        },
        {
          "length": 20,
          "start": 22544
        },
        {
          "length": 20,
          "start": 23530
        }
      ]
    }
  }
}