{
  "_format": "hh-sol-artifact-1",
  "contractName": "DataSpotting",
  "sourceName": "contracts/worksystems/DataSpotting.sol",
  "abi": [
    {
      "inputs": [
        {
          "internalType": "address",
          "name": "EXDT_token",
          "type": "address"
        }
      ],
      "stateMutability": "nonpayable",
      "type": "constructor"
    },
    {
      "anonymous": false,
      "inputs": [
        {
          "indexed": false,
          "internalType": "bytes",
          "name": "bytesFailure",
          "type": "bytes"
        }
      ],
      "name": "BytesFailure",
      "type": "event"
    },
    {
      "anonymous": false,
      "inputs": [
        {
          "indexed": true,
          "internalType": "address",
          "name": "previousOwner",
          "type": "address"
        },
        {
          "indexed": true,
          "internalType": "address",
          "name": "newOwner",
          "type": "address"
        }
      ],
      "name": "OwnershipTransferred",
      "type": "event"
    },
    {
      "anonymous": false,
      "inputs": [
        {
          "indexed": true,
          "internalType": "uint256",
          "name": "epochNumber",
          "type": "uint256"
        }
      ],
      "name": "_NewEpoch",
      "type": "event"
    },
    {
      "anonymous": false,
      "inputs": [
        {
          "indexed": false,
          "internalType": "string",
          "name": "hash",
          "type": "string"
        },
        {
          "indexed": true,
          "internalType": "address",
          "name": "creator",
          "type": "address"
        }
      ],
      "name": "_SpotAccepted",
      "type": "event"
    },
    {
      "anonymous": false,
      "inputs": [
        {
          "indexed": true,
          "internalType": "uint256",
          "name": "DataID",
          "type": "uint256"
        },
        {
          "indexed": false,
          "internalType": "uint256",
          "name": "numTokens",
          "type": "uint256"
        },
        {
          "indexed": true,
          "internalType": "address",
          "name": "voter",
          "type": "address"
        }
      ],
      "name": "_SpotCheckCommitted",
      "type": "event"
    },
    {
      "anonymous": false,
      "inputs": [
        {
          "indexed": true,
          "internalType": "uint256",
          "name": "DataID",
          "type": "uint256"
        },
        {
          "indexed": false,
          "internalType": "uint256",
          "name": "numTokens",
          "type": "uint256"
        },
        {
          "indexed": false,
          "internalType": "uint256",
          "name": "votesFor",
          "type": "uint256"
        },
        {
          "indexed": false,
          "internalType": "uint256",
          "name": "votesAgainst",
          "type": "uint256"
        },
        {
          "indexed": true,
          "internalType": "uint256",
          "name": "choice",
          "type": "uint256"
        },
        {
          "indexed": true,
          "internalType": "address",
          "name": "voter",
          "type": "address"
        }
      ],
      "name": "_SpotCheckRevealed",
      "type": "event"
    },
    {
      "anonymous": false,
      "inputs": [
        {
          "indexed": true,
          "internalType": "uint256",
          "name": "DataID",
          "type": "uint256"
        },
        {
          "indexed": false,
          "internalType": "string",
          "name": "file_hash",
          "type": "string"
        },
        {
          "indexed": false,
          "internalType": "string",
          "name": "URL_domain",
          "type": "string"
        },
        {
          "indexed": true,
          "internalType": "address",
          "name": "sender",
          "type": "address"
        }
      ],
      "name": "_SpotSubmitted",
      "type": "event"
    },
    {
      "anonymous": false,
      "inputs": [
        {
          "indexed": false,
          "internalType": "uint256",
          "name": "numTokens",
          "type": "uint256"
        },
        {
          "indexed": true,
          "internalType": "address",
          "name": "voter",
          "type": "address"
        }
      ],
      "name": "_StakeAllocated",
      "type": "event"
    },
    {
      "anonymous": false,
      "inputs": [
        {
          "indexed": true,
          "internalType": "uint256",
          "name": "DataID",
          "type": "uint256"
        },
        {
          "indexed": true,
          "internalType": "address",
          "name": "voter",
          "type": "address"
        }
      ],
      "name": "_TokensRescued",
      "type": "event"
    },
    {
      "anonymous": false,
      "inputs": [
        {
          "indexed": false,
          "internalType": "uint256",
          "name": "numTokens",
          "type": "uint256"
        },
        {
          "indexed": true,
          "internalType": "address",
          "name": "voter",
          "type": "address"
        }
      ],
      "name": "_VotingRightsWithdrawn",
      "type": "event"
    },
    {
      "anonymous": false,
      "inputs": [
        {
          "indexed": true,
          "internalType": "uint256",
          "name": "batchID",
          "type": "uint256"
        },
        {
          "indexed": false,
          "internalType": "address",
          "name": "worker",
          "type": "address"
        }
      ],
      "name": "_WorkAllocated",
      "type": "event"
    },
    {
      "anonymous": false,
      "inputs": [
        {
          "indexed": true,
          "internalType": "address",
          "name": "worker",
          "type": "address"
        },
        {
          "indexed": false,
          "internalType": "uint256",
          "name": "timestamp",
          "type": "uint256"
        }
      ],
      "name": "_WorkerRegistered",
      "type": "event"
    },
    {
      "anonymous": false,
      "inputs": [
        {
          "indexed": true,
          "internalType": "address",
          "name": "worker",
          "type": "address"
        },
        {
          "indexed": false,
          "internalType": "uint256",
          "name": "timestamp",
          "type": "uint256"
        }
      ],
      "name": "_WorkerUnregistered",
      "type": "event"
    },
    {
      "inputs": [],
      "name": "AcceptedBatchsCounter",
      "outputs": [
        {
          "internalType": "uint256",
          "name": "",
          "type": "uint256"
        }
      ],
      "stateMutability": "view",
      "type": "function"
    },
    {
      "inputs": [],
      "name": "AddressManager",
      "outputs": [
        {
          "internalType": "contract IAddressManager",
          "name": "",
          "type": "address"
        }
      ],
      "stateMutability": "view",
      "type": "function"
    },
    {
      "inputs": [],
      "name": "AllTxsCounter",
      "outputs": [
        {
          "internalType": "uint256",
          "name": "",
          "type": "uint256"
        }
      ],
      "stateMutability": "view",
      "type": "function"
    },
    {
      "inputs": [],
      "name": "AllocateWork",
      "outputs": [],
      "stateMutability": "nonpayable",
      "type": "function"
    },
    {
      "inputs": [],
      "name": "AllocatedBatchCursor",
      "outputs": [
        {
          "internalType": "uint256",
          "name": "",
          "type": "uint256"
        }
      ],
      "stateMutability": "view",
      "type": "function"
    },
    {
      "inputs": [],
      "name": "AmIRegistered",
      "outputs": [
        {
          "internalType": "bool",
          "name": "passed",
          "type": "bool"
        }
      ],
      "stateMutability": "view",
      "type": "function"
    },
    {
      "inputs": [
        {
          "internalType": "string",
          "name": "_a",
          "type": "string"
        },
        {
          "internalType": "string",
          "name": "_b",
          "type": "string"
        }
      ],
      "name": "AreStringsEqual",
      "outputs": [
        {
          "internalType": "bool",
          "name": "",
          "type": "bool"
        }
      ],
      "stateMutability": "pure",
      "type": "function"
    },
    {
      "inputs": [],
      "name": "BatchCheckingCursor",
      "outputs": [
        {
          "internalType": "uint256",
          "name": "",
          "type": "uint256"
        }
      ],
      "stateMutability": "view",
      "type": "function"
    },
    {
      "inputs": [],
      "name": "COMMIT_ROUND_DURATION",
      "outputs": [
        {
          "internalType": "uint256",
          "name": "",
          "type": "uint256"
        }
      ],
      "stateMutability": "view",
      "type": "function"
    },
    {
      "inputs": [],
      "name": "CONSENSUS_WORKER_SIZE",
      "outputs": [
        {
          "internalType": "uint256",
          "name": "",
          "type": "uint256"
        }
      ],
      "stateMutability": "view",
      "type": "function"
    },
    {
      "inputs": [],
      "name": "CurrentWorkEpoch",
      "outputs": [
        {
          "internalType": "uint256",
          "name": "",
          "type": "uint256"
        }
      ],
      "stateMutability": "view",
      "type": "function"
    },
    {
      "inputs": [],
      "name": "DATA_BATCH_SIZE",
      "outputs": [
        {
          "internalType": "uint256",
          "name": "",
          "type": "uint256"
        }
      ],
      "stateMutability": "view",
      "type": "function"
    },
    {
      "inputs": [
        {
          "internalType": "uint256",
          "name": "",
          "type": "uint256"
        }
      ],
      "name": "DataBatch",
      "outputs": [
        {
          "internalType": "uint256",
          "name": "start_idx",
          "type": "uint256"
        },
        {
          "internalType": "uint256",
          "name": "counter",
          "type": "uint256"
        },
        {
          "internalType": "uint256",
          "name": "uncommited_workers",
          "type": "uint256"
        },
        {
          "internalType": "uint256",
          "name": "unrevealed_workers",
          "type": "uint256"
        },
        {
          "internalType": "bool",
          "name": "complete",
          "type": "bool"
        },
        {
          "internalType": "bool",
          "name": "checked",
          "type": "bool"
        },
        {
          "internalType": "bool",
          "name": "allocated_to_work",
          "type": "bool"
        },
        {
          "internalType": "uint256",
          "name": "commitEndDate",
          "type": "uint256"
        },
        {
          "internalType": "uint256",
          "name": "revealEndDate",
          "type": "uint256"
        },
        {
          "internalType": "uint256",
          "name": "votesFor",
          "type": "uint256"
        },
        {
          "internalType": "uint256",
          "name": "votesAgainst",
          "type": "uint256"
        },
        {
          "internalType": "string",
          "name": "batchIPFSfile",
          "type": "string"
        },
        {
          "internalType": "uint256",
          "name": "item_count",
          "type": "uint256"
        },
        {
          "internalType": "enum DataSpotting.DataStatus",
          "name": "status",
          "type": "uint8"
        }
      ],
      "stateMutability": "view",
      "type": "function"
    },
    {
      "inputs": [
        {
          "internalType": "uint256",
          "name": "_DataBatchId",
          "type": "uint256"
        }
      ],
      "name": "DataCommitEndDate",
      "outputs": [
        {
          "internalType": "uint256",
          "name": "commitEndDate",
          "type": "uint256"
        }
      ],
      "stateMutability": "view",
      "type": "function"
    },
    {
      "inputs": [
        {
          "internalType": "uint256",
          "name": "_DataBatchId",
          "type": "uint256"
        }
      ],
      "name": "DataEnded",
      "outputs": [
        {
          "internalType": "bool",
          "name": "ended",
          "type": "bool"
        }
      ],
      "stateMutability": "view",
      "type": "function"
    },
    {
      "inputs": [
        {
          "internalType": "uint256",
          "name": "_DataBatchId",
          "type": "uint256"
        }
      ],
      "name": "DataExists",
      "outputs": [
        {
          "internalType": "bool",
          "name": "exists",
          "type": "bool"
        }
      ],
      "stateMutability": "view",
      "type": "function"
    },
    {
      "inputs": [],
      "name": "DataNonce",
      "outputs": [
        {
          "internalType": "uint256",
          "name": "",
          "type": "uint256"
        }
      ],
      "stateMutability": "view",
      "type": "function"
    },
    {
      "inputs": [
        {
          "internalType": "uint256",
          "name": "_DataBatchId",
          "type": "uint256"
        }
      ],
      "name": "DataRevealEndDate",
      "outputs": [
        {
          "internalType": "uint256",
          "name": "revealEndDate",
          "type": "uint256"
        }
      ],
      "stateMutability": "view",
      "type": "function"
    },
    {
      "inputs": [],
      "name": "FormattingSystem",
      "outputs": [
        {
          "internalType": "contract IFormattingSystem",
          "name": "",
          "type": "address"
        }
      ],
      "stateMutability": "view",
      "type": "function"
    },
    {
      "inputs": [],
      "name": "GLOBAL_MAX_SPOT_PER_PERIOD",
      "outputs": [
        {
          "internalType": "uint256",
          "name": "",
          "type": "uint256"
        }
      ],
      "stateMutability": "view",
      "type": "function"
    },
    {
      "inputs": [
        {
          "internalType": "address",
          "name": "user_",
          "type": "address"
        }
      ],
      "name": "GetCurrentWork",
      "outputs": [
        {
          "internalType": "uint256",
          "name": "",
          "type": "uint256"
        }
      ],
      "stateMutability": "view",
      "type": "function"
    },
    {
      "inputs": [
        {
          "internalType": "uint256",
          "name": "",
          "type": "uint256"
        }
      ],
      "name": "GlobalSpotFlowManager",
      "outputs": [
        {
          "internalType": "uint256",
          "name": "timestamp",
          "type": "uint256"
        },
        {
          "internalType": "uint256",
          "name": "counter",
          "type": "uint256"
        }
      ],
      "stateMutability": "view",
      "type": "function"
    },
    {
      "inputs": [],
      "name": "INTER_ALLOCATION_DURATION",
      "outputs": [
        {
          "internalType": "uint256",
          "name": "",
          "type": "uint256"
        }
      ],
      "stateMutability": "view",
      "type": "function"
    },
    {
      "inputs": [
        {
          "internalType": "address",
          "name": "user_",
          "type": "address"
        }
      ],
      "name": "IsNewWorkAvailable",
      "outputs": [
        {
          "internalType": "bool",
          "name": "",
          "type": "bool"
        }
      ],
      "stateMutability": "view",
      "type": "function"
    },
    {
      "inputs": [],
      "name": "LastAllocationTime",
      "outputs": [
        {
          "internalType": "uint256",
          "name": "",
          "type": "uint256"
        }
      ],
      "stateMutability": "view",
      "type": "function"
    },
    {
      "inputs": [],
      "name": "LastBatchCounter",
      "outputs": [
        {
          "internalType": "uint256",
          "name": "",
          "type": "uint256"
        }
      ],
      "stateMutability": "view",
      "type": "function"
    },
    {
      "inputs": [],
      "name": "MAX_SPOT_PER_USER_PER_PERIOD",
      "outputs": [
        {
          "internalType": "uint256",
          "name": "",
          "type": "uint256"
        }
      ],
      "stateMutability": "view",
      "type": "function"
    },
    {
      "inputs": [],
      "name": "MAX_SUCCEEDING_NOVOTES",
      "outputs": [
        {
          "internalType": "uint256",
          "name": "",
          "type": "uint256"
        }
      ],
      "stateMutability": "view",
      "type": "function"
    },
    {
      "inputs": [],
      "name": "MIN_CONSENSUS_WORKER_COUNT",
      "outputs": [
        {
          "internalType": "uint256",
          "name": "",
          "type": "uint256"
        }
      ],
      "stateMutability": "view",
      "type": "function"
    },
    {
      "inputs": [],
      "name": "MIN_REP_Data",
      "outputs": [
        {
          "internalType": "uint256",
          "name": "",
          "type": "uint256"
        }
      ],
      "stateMutability": "view",
      "type": "function"
    },
    {
      "inputs": [],
      "name": "MIN_REWARD_Data",
      "outputs": [
        {
          "internalType": "uint256",
          "name": "",
          "type": "uint256"
        }
      ],
      "stateMutability": "view",
      "type": "function"
    },
    {
      "inputs": [],
      "name": "MIN_STAKE",
      "outputs": [
        {
          "internalType": "uint256",
          "name": "",
          "type": "uint256"
        }
      ],
      "stateMutability": "view",
      "type": "function"
    },
    {
      "inputs": [
        {
          "internalType": "address",
          "name": "",
          "type": "address"
        },
        {
          "internalType": "uint256",
          "name": "",
          "type": "uint256"
        }
      ],
      "name": "MasterWorkers",
      "outputs": [
        {
          "internalType": "address",
          "name": "",
          "type": "address"
        }
      ],
      "stateMutability": "view",
      "type": "function"
    },
    {
      "inputs": [],
      "name": "NOVOTE_REGISTRATION_WAIT_DURATION",
      "outputs": [
        {
          "internalType": "uint256",
          "name": "",
          "type": "uint256"
        }
      ],
      "stateMutability": "view",
      "type": "function"
    },
    {
      "inputs": [],
      "name": "NotCommitedCounter",
      "outputs": [
        {
          "internalType": "uint256",
          "name": "",
          "type": "uint256"
        }
      ],
      "stateMutability": "view",
      "type": "function"
    },
    {
      "inputs": [],
      "name": "NotRevealedCounter",
      "outputs": [
        {
          "internalType": "uint256",
          "name": "",
          "type": "uint256"
        }
      ],
      "stateMutability": "view",
      "type": "function"
    },
    {
      "inputs": [],
      "name": "REVEAL_ROUND_DURATION",
      "outputs": [
        {
          "internalType": "uint256",
          "name": "",
          "type": "uint256"
        }
      ],
      "stateMutability": "view",
      "type": "function"
    },
    {
      "inputs": [],
      "name": "RegisterWorker",
      "outputs": [],
      "stateMutability": "nonpayable",
      "type": "function"
    },
    {
      "inputs": [],
      "name": "RejectedBatchsCounter",
      "outputs": [
        {
          "internalType": "uint256",
          "name": "",
          "type": "uint256"
        }
      ],
      "stateMutability": "view",
      "type": "function"
    },
    {
      "inputs": [],
      "name": "RepManager",
      "outputs": [
        {
          "internalType": "contract IRepManager",
          "name": "",
          "type": "address"
        }
      ],
      "stateMutability": "view",
      "type": "function"
    },
    {
      "inputs": [],
      "name": "RewardManager",
      "outputs": [
        {
          "internalType": "contract IRewardManager",
          "name": "",
          "type": "address"
        }
      ],
      "stateMutability": "view",
      "type": "function"
    },
    {
      "inputs": [
        {
          "internalType": "string[]",
          "name": "file_hashs",
          "type": "string[]"
        },
        {
          "internalType": "string[]",
          "name": "URL_domains",
          "type": "string[]"
        },
        {
          "internalType": "uint256",
          "name": "item_count_",
          "type": "uint256"
        },
        {
          "internalType": "string",
          "name": "extra_",
          "type": "string"
        }
      ],
      "name": "SpotData",
      "outputs": [
        {
          "internalType": "uint256",
          "name": "Dataid_",
          "type": "uint256"
        }
      ],
      "stateMutability": "nonpayable",
      "type": "function"
    },
    {
      "inputs": [
        {
          "internalType": "address",
          "name": "",
          "type": "address"
        }
      ],
      "name": "SpotStakedTokenBalance",
      "outputs": [
        {
          "internalType": "uint256",
          "name": "",
          "type": "uint256"
        }
      ],
      "stateMutability": "view",
      "type": "function"
    },
    {
      "inputs": [
        {
          "internalType": "uint256",
          "name": "",
          "type": "uint256"
        }
      ],
      "name": "SpotsMapping",
      "outputs": [
        {
          "internalType": "string",
          "name": "ipfs_hash",
          "type": "string"
        },
        {
          "internalType": "address",
          "name": "author",
          "type": "address"
        },
        {
          "internalType": "uint256",
          "name": "timestamp",
          "type": "uint256"
        },
        {
          "internalType": "uint256",
          "name": "item_count",
          "type": "uint256"
        },
        {
          "internalType": "string",
          "name": "URL_domain",
          "type": "string"
        },
        {
          "internalType": "string",
          "name": "extra",
          "type": "string"
        },
        {
          "internalType": "enum DataSpotting.DataStatus",
          "name": "status",
          "type": "uint8"
        }
      ],
      "stateMutability": "view",
      "type": "function"
    },
    {
      "inputs": [],
      "name": "StakeManager",
      "outputs": [
        {
          "internalType": "contract IStakeManager",
          "name": "",
          "type": "address"
        }
      ],
      "stateMutability": "view",
      "type": "function"
    },
    {
      "inputs": [],
      "name": "TIMEFRAME_DURATION",
      "outputs": [
        {
          "internalType": "uint256",
          "name": "",
          "type": "uint256"
        }
      ],
      "stateMutability": "view",
      "type": "function"
    },
    {
      "inputs": [],
      "name": "TriggerNextEpoch",
      "outputs": [],
      "stateMutability": "nonpayable",
      "type": "function"
    },
    {
      "inputs": [],
      "name": "UnregisterWorker",
      "outputs": [],
      "stateMutability": "nonpayable",
      "type": "function"
    },
    {
      "inputs": [
        {
          "internalType": "uint256",
          "name": "",
          "type": "uint256"
        },
        {
          "internalType": "address",
          "name": "",
          "type": "address"
        }
      ],
      "name": "UserBatchCounts",
      "outputs": [
        {
          "internalType": "uint256",
          "name": "",
          "type": "uint256"
        }
      ],
      "stateMutability": "view",
      "type": "function"
    },
    {
      "inputs": [
        {
          "internalType": "uint256",
          "name": "",
          "type": "uint256"
        },
        {
          "internalType": "address",
          "name": "",
          "type": "address"
        }
      ],
      "name": "UserBatchFrom",
      "outputs": [
        {
          "internalType": "string",
          "name": "",
          "type": "string"
        }
      ],
      "stateMutability": "view",
      "type": "function"
    },
    {
      "inputs": [
        {
          "internalType": "address",
          "name": "",
          "type": "address"
        },
        {
          "internalType": "uint256",
          "name": "",
          "type": "uint256"
        }
      ],
      "name": "UserChecksCommits",
      "outputs": [
        {
          "internalType": "bool",
          "name": "",
          "type": "bool"
        }
      ],
      "stateMutability": "view",
      "type": "function"
    },
    {
      "inputs": [
        {
          "internalType": "address",
          "name": "",
          "type": "address"
        },
        {
          "internalType": "uint256",
          "name": "",
          "type": "uint256"
        }
      ],
      "name": "UserChecksReveals",
      "outputs": [
        {
          "internalType": "bool",
          "name": "",
          "type": "bool"
        }
      ],
      "stateMutability": "view",
      "type": "function"
    },
    {
      "inputs": [
        {
          "internalType": "uint256",
          "name": "",
          "type": "uint256"
        },
        {
          "internalType": "address",
          "name": "",
          "type": "address"
        }
      ],
      "name": "UserNewFiles",
      "outputs": [
        {
          "internalType": "string",
          "name": "",
          "type": "string"
        }
      ],
      "stateMutability": "view",
      "type": "function"
    },
    {
      "inputs": [
        {
          "internalType": "uint256",
          "name": "",
          "type": "uint256"
        },
        {
          "internalType": "address",
          "name": "",
          "type": "address"
        }
      ],
      "name": "UserVotes",
      "outputs": [
        {
          "internalType": "uint256",
          "name": "",
          "type": "uint256"
        }
      ],
      "stateMutability": "view",
      "type": "function"
    },
    {
      "inputs": [],
      "name": "VOTE_QUORUM",
      "outputs": [
        {
          "internalType": "uint256",
          "name": "",
          "type": "uint256"
        }
      ],
      "stateMutability": "view",
      "type": "function"
    },
    {
      "inputs": [
        {
          "internalType": "uint256",
          "name": "",
          "type": "uint256"
        },
        {
          "internalType": "uint256",
          "name": "",
          "type": "uint256"
        }
      ],
      "name": "WorkersPerBatch",
      "outputs": [
        {
          "internalType": "address",
          "name": "",
          "type": "address"
        }
      ],
      "stateMutability": "view",
      "type": "function"
    },
    {
      "inputs": [
        {
          "internalType": "address",
          "name": "",
          "type": "address"
        }
      ],
      "name": "WorkersState",
      "outputs": [
        {
          "internalType": "address",
          "name": "worker_address",
          "type": "address"
        },
        {
          "internalType": "uint256",
          "name": "allocated_work_batch",
          "type": "uint256"
        },
        {
          "internalType": "bool",
          "name": "has_completed_work",
          "type": "bool"
        },
        {
          "internalType": "uint256",
          "name": "succeeding_novote_count",
          "type": "uint256"
        },
        {
          "internalType": "uint256",
          "name": "last_interaction_date",
          "type": "uint256"
        },
        {
          "internalType": "bool",
          "name": "registered",
          "type": "bool"
        },
        {
          "internalType": "bool",
          "name": "unregistration_request",
          "type": "bool"
        },
        {
          "internalType": "uint256",
          "name": "registration_date",
          "type": "uint256"
        },
        {
          "internalType": "uint256",
          "name": "majority_counter",
          "type": "uint256"
        },
        {
          "internalType": "uint256",
          "name": "minority_counter",
          "type": "uint256"
        }
      ],
      "stateMutability": "view",
      "type": "function"
    },
    {
      "inputs": [
        {
          "internalType": "address",
          "name": "_user",
          "type": "address"
        },
        {
          "internalType": "uint256",
          "name": "_DataBatchId",
          "type": "uint256"
        }
      ],
      "name": "attrUUID",
      "outputs": [
        {
          "internalType": "bytes32",
          "name": "UUID",
          "type": "bytes32"
        }
      ],
      "stateMutability": "pure",
      "type": "function"
    },
    {
      "inputs": [
        {
          "internalType": "uint256",
          "name": "",
          "type": "uint256"
        }
      ],
      "name": "availableWorkers",
      "outputs": [
        {
          "internalType": "address",
          "name": "",
          "type": "address"
        }
      ],
      "stateMutability": "view",
      "type": "function"
    },
    {
      "inputs": [
        {
          "internalType": "uint256",
          "name": "",
          "type": "uint256"
        }
      ],
      "name": "busyWorkers",
      "outputs": [
        {
          "internalType": "address",
          "name": "",
          "type": "address"
        }
      ],
      "stateMutability": "view",
      "type": "function"
    },
    {
      "inputs": [
        {
          "internalType": "uint256",
          "name": "_DataBatchId",
          "type": "uint256"
        }
      ],
      "name": "commitPeriodActive",
      "outputs": [
        {
          "internalType": "bool",
          "name": "active",
          "type": "bool"
        }
      ],
      "stateMutability": "view",
      "type": "function"
    },
    {
      "inputs": [
        {
          "internalType": "uint256",
          "name": "_DataBatchId",
          "type": "uint256"
        },
        {
          "internalType": "bytes32",
          "name": "_secretHash",
          "type": "bytes32"
        },
        {
          "internalType": "string",
          "name": "newIPFSHash",
          "type": "string"
        },
        {
          "internalType": "uint256",
          "name": "_BatchCount",
          "type": "uint256"
        },
        {
          "internalType": "string",
          "name": "_From",
          "type": "string"
        }
      ],
      "name": "commitSpotCheck",
      "outputs": [],
      "stateMutability": "nonpayable",
      "type": "function"
    },
    {
      "inputs": [
        {
          "internalType": "uint256",
          "name": "_DataId",
          "type": "uint256"
        }
      ],
      "name": "deleteData",
      "outputs": [],
      "stateMutability": "nonpayable",
      "type": "function"
    },
    {
      "inputs": [
        {
          "internalType": "uint256",
          "name": "_BatchId",
          "type": "uint256"
        }
      ],
      "name": "deleteDataBatch",
      "outputs": [],
      "stateMutability": "nonpayable",
      "type": "function"
    },
    {
      "inputs": [
        {
          "internalType": "address",
          "name": "_voter",
          "type": "address"
        },
        {
          "internalType": "uint256",
          "name": "_DataBatchId",
          "type": "uint256"
        }
      ],
      "name": "didCommit",
      "outputs": [
        {
          "internalType": "bool",
          "name": "committed",
          "type": "bool"
        }
      ],
      "stateMutability": "view",
      "type": "function"
    },
    {
      "inputs": [
        {
          "internalType": "address",
          "name": "_voter",
          "type": "address"
        },
        {
          "internalType": "uint256",
          "name": "_DataBatchId",
          "type": "uint256"
        }
      ],
      "name": "didReveal",
      "outputs": [
        {
          "internalType": "bool",
          "name": "revealed",
          "type": "bool"
        }
      ],
      "stateMutability": "view",
      "type": "function"
    },
    {
      "inputs": [
        {
          "internalType": "uint256",
          "name": "_k",
          "type": "uint256"
        },
        {
          "internalType": "uint256",
          "name": "N_range",
          "type": "uint256"
        }
      ],
      "name": "generateIntegers",
      "outputs": [
        {
          "internalType": "uint256[]",
          "name": "",
          "type": "uint256[]"
        }
      ],
      "stateMutability": "view",
      "type": "function"
    },
    {
      "inputs": [],
      "name": "getAcceptedBatchesCount",
      "outputs": [
        {
          "internalType": "uint256",
          "name": "count",
          "type": "uint256"
        }
      ],
      "stateMutability": "view",
      "type": "function"
    },
    {
      "inputs": [],
      "name": "getActiveWorkersCount",
      "outputs": [
        {
          "internalType": "uint256",
          "name": "numWorkers",
          "type": "uint256"
        }
      ],
      "stateMutability": "view",
      "type": "function"
    },
    {
      "inputs": [
        {
          "internalType": "uint256",
          "name": "_DataBatchId",
          "type": "uint256"
        }
      ],
      "name": "getBatchByID",
      "outputs": [
        {
          "components": [
            {
              "internalType": "uint256",
              "name": "start_idx",
              "type": "uint256"
            },
            {
              "internalType": "uint256",
              "name": "counter",
              "type": "uint256"
            },
            {
              "internalType": "uint256",
              "name": "uncommited_workers",
              "type": "uint256"
            },
            {
              "internalType": "uint256",
              "name": "unrevealed_workers",
              "type": "uint256"
            },
            {
              "internalType": "bool",
              "name": "complete",
              "type": "bool"
            },
            {
              "internalType": "bool",
              "name": "checked",
              "type": "bool"
            },
            {
              "internalType": "bool",
              "name": "allocated_to_work",
              "type": "bool"
            },
            {
              "internalType": "uint256",
              "name": "commitEndDate",
              "type": "uint256"
            },
            {
              "internalType": "uint256",
              "name": "revealEndDate",
              "type": "uint256"
            },
            {
              "internalType": "uint256",
              "name": "votesFor",
              "type": "uint256"
            },
            {
              "internalType": "uint256",
              "name": "votesAgainst",
              "type": "uint256"
            },
            {
              "internalType": "string",
              "name": "batchIPFSfile",
              "type": "string"
            },
            {
              "internalType": "uint256",
              "name": "item_count",
              "type": "uint256"
            },
            {
              "internalType": "enum DataSpotting.DataStatus",
              "name": "status",
              "type": "uint8"
            }
          ],
          "internalType": "struct DataSpotting.BatchMetadata",
          "name": "batch",
          "type": "tuple"
        }
      ],
      "stateMutability": "view",
      "type": "function"
    },
    {
      "inputs": [
        {
          "internalType": "uint256",
          "name": "_DataBatchId",
          "type": "uint256"
        }
      ],
      "name": "getBatchIPFSFileByID",
      "outputs": [
        {
          "internalType": "string",
          "name": "batch",
          "type": "string"
        }
      ],
      "stateMutability": "view",
      "type": "function"
    },
    {
      "inputs": [
        {
          "internalType": "address",
          "name": "_voter",
          "type": "address"
        },
        {
          "internalType": "uint256",
          "name": "_DataBatchId",
          "type": "uint256"
        }
      ],
      "name": "getCommitHash",
      "outputs": [
        {
          "internalType": "bytes32",
          "name": "commitHash",
          "type": "bytes32"
        }
      ],
      "stateMutability": "view",
      "type": "function"
    },
    {
      "inputs": [],
      "name": "getCurrentWorkEpoch",
      "outputs": [
        {
          "internalType": "uint256",
          "name": "WorkEpoch",
          "type": "uint256"
        }
      ],
      "stateMutability": "view",
      "type": "function"
    },
    {
      "inputs": [
        {
          "internalType": "uint256",
          "name": "_DataId",
          "type": "uint256"
        }
      ],
      "name": "getDataByID",
      "outputs": [
        {
          "components": [
            {
              "internalType": "string",
              "name": "ipfs_hash",
              "type": "string"
            },
            {
              "internalType": "address",
              "name": "author",
              "type": "address"
            },
            {
              "internalType": "uint256",
              "name": "timestamp",
              "type": "uint256"
            },
            {
              "internalType": "uint256",
              "name": "item_count",
              "type": "uint256"
            },
            {
              "internalType": "string",
              "name": "URL_domain",
              "type": "string"
            },
            {
              "internalType": "string",
              "name": "extra",
              "type": "string"
            },
            {
              "internalType": "enum DataSpotting.DataStatus",
              "name": "status",
              "type": "uint8"
            }
          ],
          "internalType": "struct DataSpotting.SpottedData",
          "name": "data",
          "type": "tuple"
        }
      ],
      "stateMutability": "view",
      "type": "function"
    },
    {
      "inputs": [
        {
          "internalType": "uint256",
          "name": "_DataBatchId",
          "type": "uint256"
        }
      ],
      "name": "getDomainsForBatch",
      "outputs": [
        {
          "internalType": "string[]",
          "name": "",
          "type": "string[]"
        }
      ],
      "stateMutability": "view",
      "type": "function"
    },
    {
      "inputs": [
        {
          "internalType": "uint256",
          "name": "_voteOption",
          "type": "uint256"
        },
        {
          "internalType": "uint256",
          "name": "_salt",
          "type": "uint256"
        }
      ],
      "name": "getEncryptedHash",
      "outputs": [
        {
          "internalType": "bytes32",
          "name": "keccak256hash",
          "type": "bytes32"
        }
      ],
      "stateMutability": "pure",
      "type": "function"
    },
    {
      "inputs": [
        {
          "internalType": "string",
          "name": "_hash",
          "type": "string"
        },
        {
          "internalType": "uint256",
          "name": "_salt",
          "type": "uint256"
        }
      ],
      "name": "getEncryptedStringHash",
      "outputs": [
        {
          "internalType": "bytes32",
          "name": "keccak256hash",
          "type": "bytes32"
        }
      ],
      "stateMutability": "pure",
      "type": "function"
    },
    {
      "inputs": [],
      "name": "getGlobalPeriodSpotCount",
      "outputs": [
        {
          "internalType": "uint256",
          "name": "",
          "type": "uint256"
        }
      ],
      "stateMutability": "view",
      "type": "function"
    },
    {
      "inputs": [
        {
          "internalType": "uint256",
          "name": "_DataBatchId",
          "type": "uint256"
        }
      ],
      "name": "getIPFShashesForBatch",
      "outputs": [
        {
          "internalType": "string[]",
          "name": "",
          "type": "string[]"
        }
      ],
      "stateMutability": "view",
      "type": "function"
    },
    {
      "inputs": [],
      "name": "getLastAllocatedBatchId",
      "outputs": [
        {
          "internalType": "uint256",
          "name": "LastAllocatedBatchId",
          "type": "uint256"
        }
      ],
      "stateMutability": "view",
      "type": "function"
    },
    {
      "inputs": [],
      "name": "getLastBatchId",
      "outputs": [
        {
          "internalType": "uint256",
          "name": "LastBatchId",
          "type": "uint256"
        }
      ],
      "stateMutability": "view",
      "type": "function"
    },
    {
      "inputs": [],
      "name": "getLastCheckedBatchId",
      "outputs": [
        {
          "internalType": "uint256",
          "name": "LastCheckedBatchId",
          "type": "uint256"
        }
      ],
      "stateMutability": "view",
      "type": "function"
    },
    {
      "inputs": [],
      "name": "getLastDataId",
      "outputs": [
        {
          "internalType": "uint256",
          "name": "DataId",
          "type": "uint256"
        }
      ],
      "stateMutability": "view",
      "type": "function"
    },
    {
      "inputs": [
        {
          "internalType": "address",
          "name": "_voter",
          "type": "address"
        }
      ],
      "name": "getLastNode",
      "outputs": [
        {
          "internalType": "uint256",
          "name": "DataID",
          "type": "uint256"
        }
      ],
      "stateMutability": "view",
      "type": "function"
    },
    {
      "inputs": [
        {
          "internalType": "address",
          "name": "user",
          "type": "address"
        }
      ],
      "name": "getLastUserDataId",
      "outputs": [
        {
          "internalType": "uint256",
          "name": "DataId",
          "type": "uint256"
        }
      ],
      "stateMutability": "view",
      "type": "function"
    },
    {
      "inputs": [
        {
          "internalType": "address",
          "name": "_voter",
          "type": "address"
        }
      ],
      "name": "getLockedTokens",
      "outputs": [
        {
          "internalType": "uint256",
          "name": "numTokens",
          "type": "uint256"
        }
      ],
      "stateMutability": "view",
      "type": "function"
    },
    {
      "inputs": [],
      "name": "getMySystemTokenBalance",
      "outputs": [
        {
          "internalType": "uint256",
          "name": "tokens",
          "type": "uint256"
        }
      ],
      "stateMutability": "view",
      "type": "function"
    },
    {
      "inputs": [
        {
          "internalType": "address",
          "name": "_voter",
          "type": "address"
        },
        {
          "internalType": "uint256",
          "name": "_DataBatchId",
          "type": "uint256"
        }
      ],
      "name": "getNumTokens",
      "outputs": [
        {
          "internalType": "uint256",
          "name": "numTokens",
          "type": "uint256"
        }
      ],
      "stateMutability": "view",
      "type": "function"
    },
    {
      "inputs": [],
      "name": "getRandom",
      "outputs": [
        {
          "internalType": "uint256",
          "name": "",
          "type": "uint256"
        }
      ],
      "stateMutability": "view",
      "type": "function"
    },
    {
      "inputs": [],
      "name": "getRejectedBatchesCount",
      "outputs": [
        {
          "internalType": "uint256",
          "name": "count",
          "type": "uint256"
        }
      ],
      "stateMutability": "view",
      "type": "function"
    },
    {
      "inputs": [],
      "name": "getSeed",
      "outputs": [
        {
          "internalType": "bytes32",
          "name": "addr",
          "type": "bytes32"
        }
      ],
      "stateMutability": "view",
      "type": "function"
    },
    {
      "inputs": [
        {
          "internalType": "address",
          "name": "_user",
          "type": "address"
        }
      ],
      "name": "getSystemTokenBalance",
      "outputs": [
        {
          "internalType": "uint256",
          "name": "tokens",
          "type": "uint256"
        }
      ],
      "stateMutability": "view",
      "type": "function"
    },
    {
      "inputs": [],
      "name": "getTxCounter",
      "outputs": [
        {
          "internalType": "uint256",
          "name": "Counter",
          "type": "uint256"
        }
      ],
      "stateMutability": "view",
      "type": "function"
    },
    {
      "inputs": [
        {
          "internalType": "address",
          "name": "user",
          "type": "address"
        }
      ],
      "name": "getUserDatas",
      "outputs": [
        {
          "internalType": "uint256[]",
          "name": "user_Datas",
          "type": "uint256[]"
        }
      ],
      "stateMutability": "view",
      "type": "function"
    },
    {
      "inputs": [
        {
          "internalType": "address",
          "name": "user_",
          "type": "address"
        }
      ],
      "name": "getUserPeriodSpotCount",
      "outputs": [
        {
          "internalType": "uint256",
          "name": "",
          "type": "uint256"
        }
      ],
      "stateMutability": "view",
      "type": "function"
    },
    {
      "inputs": [
        {
          "internalType": "uint256",
          "name": "_terminationDate",
          "type": "uint256"
        }
      ],
      "name": "isExpired",
      "outputs": [
        {
          "internalType": "bool",
          "name": "expired",
          "type": "bool"
        }
      ],
      "stateMutability": "view",
      "type": "function"
    },
    {
      "inputs": [
        {
          "internalType": "uint256",
          "name": "_DataBatchId",
          "type": "uint256"
        }
      ],
      "name": "isPassed",
      "outputs": [
        {
          "internalType": "bool",
          "name": "passed",
          "type": "bool"
        }
      ],
      "stateMutability": "view",
      "type": "function"
    },
    {
      "inputs": [
        {
          "internalType": "uint256",
          "name": "_DataBatchId",
          "type": "uint256"
        },
        {
          "internalType": "address",
          "name": "_worker",
          "type": "address"
        }
      ],
      "name": "isWorkerAllocatedToBatch",
      "outputs": [
        {
          "internalType": "bool",
          "name": "",
          "type": "bool"
        }
      ],
      "stateMutability": "view",
      "type": "function"
    },
    {
      "inputs": [
        {
          "internalType": "address",
          "name": "_worker",
          "type": "address"
        }
      ],
      "name": "isWorkerRegistered",
      "outputs": [
        {
          "internalType": "bool",
          "name": "passed",
          "type": "bool"
        }
      ],
      "stateMutability": "view",
      "type": "function"
    },
    {
      "inputs": [],
      "name": "owner",
      "outputs": [
        {
          "internalType": "address",
          "name": "",
          "type": "address"
        }
      ],
      "stateMutability": "view",
      "type": "function"
    },
    {
      "inputs": [
        {
          "internalType": "uint256",
          "name": "k",
          "type": "uint256"
        },
        {
          "internalType": "uint256",
          "name": "N",
          "type": "uint256"
        }
      ],
      "name": "random_selection",
      "outputs": [
        {
          "internalType": "uint256[]",
          "name": "",
          "type": "uint256[]"
        }
      ],
      "stateMutability": "view",
      "type": "function"
    },
    {
      "inputs": [],
      "name": "renounceOwnership",
      "outputs": [],
      "stateMutability": "nonpayable",
      "type": "function"
    },
    {
      "inputs": [
        {
          "internalType": "uint256",
          "name": "_DataBatchId",
          "type": "uint256"
        }
      ],
      "name": "rescueTokens",
      "outputs": [],
      "stateMutability": "nonpayable",
      "type": "function"
    },
    {
      "inputs": [
        {
          "internalType": "uint256[]",
          "name": "_DataBatchIDs",
          "type": "uint256[]"
        }
      ],
      "name": "rescueTokensInMultipleDatas",
      "outputs": [],
      "stateMutability": "nonpayable",
      "type": "function"
    },
    {
      "inputs": [
        {
          "internalType": "uint256",
          "name": "_DataBatchId",
          "type": "uint256"
        }
      ],
      "name": "revealPeriodActive",
      "outputs": [
        {
          "internalType": "bool",
          "name": "active",
          "type": "bool"
        }
      ],
      "stateMutability": "view",
      "type": "function"
    },
    {
      "inputs": [
        {
          "internalType": "uint256",
          "name": "_DataBatchId",
          "type": "uint256"
        },
        {
          "internalType": "uint256",
          "name": "_voteOption",
          "type": "uint256"
        },
        {
          "internalType": "uint256",
          "name": "_salt",
          "type": "uint256"
        }
      ],
      "name": "revealSpotCheck",
      "outputs": [],
      "stateMutability": "nonpayable",
      "type": "function"
    },
    {
      "inputs": [],
      "name": "sFuel",
      "outputs": [
        {
          "internalType": "address",
          "name": "",
          "type": "address"
        }
      ],
      "stateMutability": "view",
      "type": "function"
    },
    {
      "inputs": [
        {
          "internalType": "uint256",
          "name": "N",
          "type": "uint256"
        }
      ],
      "name": "shuffle_array",
      "outputs": [
        {
          "internalType": "uint256[]",
          "name": "",
          "type": "uint256[]"
        }
      ],
      "stateMutability": "view",
      "type": "function"
    },
    {
      "inputs": [],
      "name": "spot_enabled",
      "outputs": [
        {
          "internalType": "bool",
          "name": "",
          "type": "bool"
        }
      ],
      "stateMutability": "view",
      "type": "function"
    },
    {
      "inputs": [
        {
          "internalType": "uint256",
          "name": "",
          "type": "uint256"
        }
      ],
      "name": "toUnregisterWorkers",
      "outputs": [
        {
          "internalType": "address",
          "name": "",
          "type": "address"
        }
      ],
      "stateMutability": "view",
      "type": "function"
    },
    {
      "inputs": [],
      "name": "toggleSpotting",
      "outputs": [],
      "stateMutability": "nonpayable",
      "type": "function"
    },
    {
      "inputs": [],
      "name": "token",
      "outputs": [
        {
          "internalType": "contract IERC20",
          "name": "",
          "type": "address"
        }
      ],
      "stateMutability": "view",
      "type": "function"
    },
    {
      "inputs": [
        {
          "internalType": "address",
          "name": "newOwner",
          "type": "address"
        }
      ],
      "name": "transferOwnership",
      "outputs": [],
      "stateMutability": "nonpayable",
      "type": "function"
    },
    {
      "inputs": [
        {
          "internalType": "address",
          "name": "addr",
          "type": "address"
        }
      ],
      "name": "updateAddressManager",
      "outputs": [],
      "stateMutability": "nonpayable",
      "type": "function"
    },
    {
      "inputs": [
        {
          "internalType": "uint256",
          "name": "COMMIT_ROUND_DURATION_",
          "type": "uint256"
        }
      ],
      "name": "updateCommitRoundDuration",
      "outputs": [],
      "stateMutability": "nonpayable",
      "type": "function"
    },
    {
      "inputs": [
        {
          "internalType": "uint256",
          "name": "CONSENSUS_WORKER_SIZE_",
          "type": "uint256"
        }
      ],
      "name": "updateConsensusSize",
      "outputs": [],
      "stateMutability": "nonpayable",
      "type": "function"
    },
    {
      "inputs": [
        {
          "internalType": "uint256",
          "name": "size",
          "type": "uint256"
        }
      ],
      "name": "updateDataBachSize",
      "outputs": [],
      "stateMutability": "nonpayable",
      "type": "function"
    },
    {
      "inputs": [
        {
          "internalType": "address",
          "name": "addr",
          "type": "address"
        }
      ],
      "name": "updateFormattingSystem",
      "outputs": [],
      "stateMutability": "nonpayable",
      "type": "function"
    },
    {
      "inputs": [
        {
          "internalType": "uint256",
          "name": "GLOBAL_MAX_SPOT_PER_PERIOD_",
          "type": "uint256"
        }
      ],
      "name": "updateGlobalMaxSpotCount",
      "outputs": [],
      "stateMutability": "nonpayable",
      "type": "function"
    },
    {
      "inputs": [
        {
          "internalType": "uint256",
          "name": "INTER_ALLOCATION_DURATION_",
          "type": "uint256"
        }
      ],
      "name": "updateInterAllocationDuration",
      "outputs": [],
      "stateMutability": "nonpayable",
      "type": "function"
    },
    {
      "inputs": [
        {
          "internalType": "uint256",
          "name": "MAX_SUCCEEDING_NOVOTES_",
          "type": "uint256"
        }
      ],
      "name": "updateMaxSucceedingNoVotes",
      "outputs": [],
      "stateMutability": "nonpayable",
      "type": "function"
    },
    {
      "inputs": [
        {
          "internalType": "uint256",
          "name": "CONSENSUS_WORKER_SIZE_",
          "type": "uint256"
        }
      ],
      "name": "updateMinConsensusSize",
      "outputs": [],
      "stateMutability": "nonpayable",
      "type": "function"
    },
    {
      "inputs": [
        {
          "internalType": "uint256",
          "name": "NOVOTE_REGISTRATION_WAIT_DURATION_",
          "type": "uint256"
        }
      ],
      "name": "updateNoVoteRegistrationDuration",
      "outputs": [],
      "stateMutability": "nonpayable",
      "type": "function"
    },
    {
      "inputs": [
        {
          "internalType": "address",
          "name": "addr",
          "type": "address"
        }
      ],
      "name": "updateRepManager",
      "outputs": [],
      "stateMutability": "nonpayable",
      "type": "function"
    },
    {
      "inputs": [
        {
          "internalType": "uint256",
          "name": "REVEAL_ROUND_DURATION_",
          "type": "uint256"
        }
      ],
      "name": "updateRevealRoundDuration",
      "outputs": [],
      "stateMutability": "nonpayable",
      "type": "function"
    },
    {
      "inputs": [
        {
          "internalType": "address",
          "name": "addr",
          "type": "address"
        }
      ],
      "name": "updateRewardManager",
      "outputs": [],
      "stateMutability": "nonpayable",
      "type": "function"
    },
    {
      "inputs": [
        {
          "internalType": "address",
          "name": "addr",
          "type": "address"
        }
      ],
      "name": "updateStakeManager",
      "outputs": [],
      "stateMutability": "nonpayable",
      "type": "function"
    },
    {
      "inputs": [
        {
          "internalType": "uint256",
          "name": "MAX_SPOT_PER_USER_PER_PERIOD_",
          "type": "uint256"
        }
      ],
      "name": "updateUserMaxSpotCount",
      "outputs": [],
      "stateMutability": "nonpayable",
      "type": "function"
    },
    {
      "inputs": [
        {
          "internalType": "uint256",
          "name": "VOTE_QUORUM_",
          "type": "uint256"
        }
      ],
      "name": "updateVoteQuoum",
      "outputs": [],
      "stateMutability": "nonpayable",
      "type": "function"
    },
    {
      "inputs": [
        {
          "internalType": "address",
          "name": "_sFuel",
          "type": "address"
        }
      ],
      "name": "updatesFuelFaucet",
      "outputs": [],
      "stateMutability": "nonpayable",
      "type": "function"
    },
    {
      "inputs": [
        {
          "internalType": "address",
          "name": "",
          "type": "address"
        },
        {
          "internalType": "uint256",
          "name": "",
          "type": "uint256"
        }
      ],
      "name": "userSubmissions",
      "outputs": [
        {
          "internalType": "uint256",
          "name": "",
          "type": "uint256"
        }
      ],
      "stateMutability": "view",
      "type": "function"
    },
    {
      "inputs": [
        {
          "internalType": "uint256",
          "name": "_prevID",
          "type": "uint256"
        },
        {
          "internalType": "uint256",
          "name": "_nextID",
          "type": "uint256"
        },
        {
          "internalType": "address",
          "name": "_voter",
          "type": "address"
        },
        {
          "internalType": "uint256",
          "name": "_numTokens",
          "type": "uint256"
        }
      ],
      "name": "validPosition",
      "outputs": [
        {
          "internalType": "bool",
          "name": "APPROVED",
          "type": "bool"
        }
      ],
      "stateMutability": "view",
      "type": "function"
    },
    {
      "inputs": [
        {
          "internalType": "uint256",
          "name": "_numTokens",
          "type": "uint256"
        }
      ],
      "name": "withdrawVotingRights",
      "outputs": [],
      "stateMutability": "nonpayable",
      "type": "function"
    }
  ],
  "bytecode": "0x6080604052600180805560028055600381815560006008819055600991909155610e10600a55670de0b6b3a7640000600b5568015af1d78b58c40000600c55603c600d55610384600e556103e8600f55601960105560218190556022819055602c80546001600160a01b0319167314f52f3fc010ab6ca81568d4a6794d5eab3c6155179055602d829055602e829055602f919091556031819055603281905560338190556034819055603555603b805460ff60a01b1916600160a01b179055348015620000cb57600080fd5b5060405162008d7a38038062008d7a833981016040819052620000ee9162000214565b62000102620000fc620001c0565b620001c4565b603680546001600160a01b0319166001600160a01b0383161790556000602281905568015af1d78b58c4000060045560b46005819055600655600a6007555b6004811015620001b85742601182600481106200016e57634e487b7160e01b600052603260045260246000fd5b60020201556000601182600481106200019757634e487b7160e01b600052603260045260246000fd5b60020201600101819055508080620001af9062000244565b91505062000141565b50506200026c565b3390565b600080546001600160a01b038381166001600160a01b0319831681178455604051919092169283917f8be0079c531659141344cd1fd0a4f28419497f9722a3daafe3b4186f6b6457e09190a35050565b60006020828403121562000226578081fd5b81516001600160a01b03811681146200023d578182fd5b9392505050565b60006000198214156200026557634e487b7160e01b81526011600452602481fd5b5060010190565b618afe806200027c6000396000f3fe608060405234801561001057600080fd5b50600436106107c65760003560e01c80639d6e3f9611610400578063d186981d11610220578063e798a7da11610130578063f3438946116100c3578063f721de4a11610092578063f721de4a14610fd3578063f80a23fd14610fe6578063f96305f014610fee578063fc0c546a14610ff6578063fca4956314610ffe576107c6565b8063f343894614610f9d578063f4cdfcc414610fb0578063f5ae7c7d14610fc3578063f716596d14610fcb576107c6565b8063ed8becfa116100ff578063ed8becfa14610f67578063ef4fcdad14610f7a578063f2d9e74d14610f82578063f2fde38b14610f8a576107c6565b8063e798a7da14610f26578063e7b1d43c14610f39578063e8e9b6f914610f4c578063eb1322ff14610f5f576107c6565b8063d9845fb8116101b3578063e10ff71011610182578063e10ff71014610ee8578063e1f7a43014610ef0578063e44c974b14610ef8578063e604c12714610f0b578063e7805f9e14610f1e576107c6565b8063d9845fb814610e8f578063d9966ae814610eaf578063dd61868214610ec2578063df05368e14610ed5576107c6565b8063d822ce01116101ef578063d822ce0114610e43578063d8b7567414610e56578063d901402b14610e69578063d9548e5314610e7c576107c6565b8063d186981d14610e0d578063d420ec0b14610e20578063d4efd2ba14610e33578063d6b0206c14610e3b576107c6565b8063b10aa5841161031b578063c4e4f82a116102ae578063cb1c2b5c1161027d578063cb1c2b5c14610dcf578063cdb8b21814610dd7578063d0d41def14610dea578063d0eed96714610df2578063d138209214610dfa576107c6565b8063c4e4f82a14610d99578063c7761fab14610dac578063c7c063fb14610db4578063c9b03a7214610dc7576107c6565b8063b7e4eba9116102ea578063b7e4eba914610d4d578063b8f011b314610d60578063bc3002e614610d73578063c47c4bc214610d86576107c6565b8063b10aa58414610d01578063b1a2e0be14610d14578063b1cf4a7e14610d27578063b1d7ea9814610d3a576107c6565b8063a905779011610393578063ab67302e11610362578063ab67302e14610cc0578063abfe682114610cd3578063ac106cc214610ce6578063b0ebc1d814610cee576107c6565b8063a905779014610c8a578063aa7ca46414610c9d578063aacc5a1714610cb0578063ab43e78d14610cb8576107c6565b8063a30312b1116103cf578063a30312b114610c54578063a350715a14610c67578063a4439dc514610c6f578063a511dba014610c82576107c6565b80639d6e3f9614610c135780639fc9c52f14610c26578063a1103f3714610c39578063a1b6b5b714610c4c576107c6565b806358002158116105eb5780637f97e8361161050657806389a72db7116104995780638df0296e116104685780638df0296e14610bca5780639760356014610bdd5780639769d84614610bf05780639acb75c114610bf85780639b7e018014610c00576107c6565b806389a72db714610b895780638c89d02714610b915780638d289f8f14610bba5780638da5cb5b14610bc2576107c6565b8063821aa8c0116104d5578063821aa8c014610b5357806383cc6ef214610b665780638473850b14610b6e57806388d072eb14610b76576107c6565b80637f97e83614610af85780637fabe35b14610b0b578063815ce74714610b38578063819b029314610b40576107c6565b8063715018a61161057e5780637827e5491161054d5780637827e54914610acd5780637a34da6714610ad55780637d05052614610add5780637f9510a214610af0576107c6565b8063715018a614610aa257806371880b1b14610aaa578063726bc8af14610abd57806376e8ea4f14610ac5576107c6565b80636371d81f116105ba5780636371d81f14610a61578063667bf0f814610a745780636b2d95d414610a7c5780637074222b14610a8f576107c6565b80635800215814610a135780635a45294314610a265780635b113a5514610a465780635fd8790914610a59576107c6565b80633970afa5116106e657806344dc8e6b116106795780634d884281116106485780634d884281146109bd5780634fe8b4c1146109d0578063515535e8146109e357806351912f29146109eb578063579db71c146109f3576107c6565b806344dc8e6b1461098757806347fe2d201461099a5780634852e2f0146109a257806349403183146109aa576107c6565b80633f89cf66116106b55780633f89cf661461093b578063427fa1d21461094e578063441c77c01461096157806344639f7c14610974576107c6565b80633970afa51461090257806339e7357c1461090a5780633c062cc8146109125780633d7098fa14610933576107c6565b8063226ed3001161075e5780632f469fd11161072d5780632f469fd1146108bf578063313066ee146108df5780633538af82146108e7578063354dae40146108fa576107c6565b8063226ed3001461086f578063275c25901461088f57806329a47bc7146108975780632d917c68146108ac576107c6565b80630b96c5b01161079a5780630b96c5b0146108195780630e6661a71461083f578063154fd39b1461084757806319d903461461084f576107c6565b8062e52736146107cb578063035fbb55146107e957806304dbcda7146107fe578063050eb2eb14610806575b600080fd5b6107d3611011565b6040516107e09190617761565b60405180910390f35b6107fc6107f736600461766a565b611017565b005b6107d3611370565b6107fc610814366004617285565b611376565b61082c610827366004617550565b6113d7565b6040516107e097969594939291906178f6565b6107d36115bb565b6107d36115c1565b61086261085d366004617550565b6115c7565b6040516107e091906177fc565b61088261087d366004617550565b6118e6565b6040516107e091906178a0565b6107fc61192e565b61089f611a94565b6040516107e09190617794565b6108826108ba3660046172bd565b611aa3565b6108d26108cd366004617579565b611ac3565b6040516107e091906178ab565b6107d3611b68565b61089f6108f5366004617550565b611b6e565b6107fc611b98565b6107fc611d0e565b6107d3611d6e565b610925610920366004617550565b611d8b565b6040516107e0929190617786565b6107d3611dad565b6107fc610949366004617550565b611db3565b6107d361095c366004617285565b611e04565b61088261096f366004617550565b611ea4565b6107fc610982366004617550565b611efe565b6107fc610995366004617550565b611f50565b6107d3611f94565b6107d3611f9a565b6108826109b8366004617550565b611fa0565b6107fc6109cb366004617285565b612169565b6107fc6109de366004617550565b6121ca565b6107d361226f565b61089f612275565b610a06610a01366004617285565b612284565b6040516107e0919061785c565b6107fc610a21366004617550565b6122f0565b610a39610a34366004617550565b612334565b6040516107e0919061876e565b6107d3610a54366004617579565b612589565b6107d36125a6565b6107fc610a6f366004617550565b6125ac565b6107fc61265f565b6107d3610a8a366004617285565b612a84565b6107d3610a9d366004617285565b612a93565b6107fc612aae565b6107d3610ab8366004617550565b612af7565b6107d3612b34565b6107d3612b3a565b6107d3612b40565b61089f612b46565b6107fc610aeb366004617285565b612b55565b6107d3612bb6565b610882610b063660046172bd565b612bcd565b610b1e610b19366004617550565b612c20565b6040516107e09e9d9c9b9a9998979695949392919061884d565b6107d3612d20565b610882610b4e36600461762c565b612d7c565b61089f610b61366004617550565b612dbd565b61089f612dcd565b6107d3612ddc565b6108d2610b84366004617579565b612de2565b610882612e06565b610ba4610b9f366004617285565b612e16565b6040516107e09a999897969594939291906177a8565b61089f612e79565b61089f612e88565b61089f610bd836600461760b565b612e97565b6107fc610beb366004617550565b612ecf565b6107d361307e565b6107d3613084565b6107d3610c0e3660046172bd565b61308a565b6107d3610c21366004617285565b6130bb565b6107fc610c343660046173cf565b61313b565b6107d3610c473660046172bd565b613189565b6107d36131bc565b6107fc610c62366004617550565b6131c2565b6107d3613213565b610882610c7d366004617550565b613219565b6107d361327b565b610882610c983660046174f0565b613281565b610882610cab3660046172bd565b6132e7565b6107d361333a565b61089f6133ef565b6107fc610cce366004617550565b6133fe565b6107fc610ce1366004617550565b61344f565b6107d36134a0565b6107fc610cfc366004617550565b6134a6565b61089f610d0f366004617550565b6134f8565b610882610d22366004617285565b613508565b6107d3610d3536600461760b565b613649565b610a06610d4836600461760b565b61365e565b6107fc610d5b366004617550565b613865565b610a06610d6e36600461760b565b6138a9565b6107d3610d813660046172e8565b613a11565b6107fc610d94366004617285565b613f36565b6107d3610da7366004617550565b613f97565b6107d3613fd4565b6107d3610dc2366004617285565b613fda565b6107d3613fec565b6107d3613ff2565b6107fc610de53660046175a8565b613ff8565b6107d36145b3565b6107d36145b9565b6107d3610e083660046172bd565b6145bf565b610882610e1b366004617579565b61465b565b610882610e2e3660046172bd565b614736565b6107d3614756565b6107d361475c565b61089f610e513660046172bd565b614762565b6107d3610e64366004617579565b61477e565b6107d3610e773660046172bd565b61479b565b610882610e8a366004617550565b6147e0565b610ea2610e9d366004617550565b6147e5565b6040516107e091906185f4565b6107fc610ebd366004617550565b614969565b6107fc610ed0366004617285565b6149ad565b6107fc610ee3366004617285565b614a0e565b6107d3614a6f565b6107d3614a75565b610a06610f06366004617550565b614a88565b6108d2610f19366004617550565b614b01565b6107d3614bac565b610882610f34366004617285565b614bb2565b6107fc610f47366004617550565b614bd3565b6107fc610f5a366004617550565b614d1b565b6107d3614d5f565b610862610f75366004617550565b614d65565b6107d3615078565b6107d361507e565b6107fc610f98366004617285565b615084565b6107d3610fab366004617285565b6150f5565b6107d3610fbe36600461747e565b615196565b6107d36151cc565b6107fc6151d2565b610882610fe1366004617550565b6154bd565b6108826154c5565b6107d36154de565b61089f6154e4565b6107d361100c366004617285565b6154f3565b60075481565b61101f61560e565b61102883611ea4565b61104d5760405162461bcd60e51b8152600401611044906181dd565b60405180910390fd5b33600090815260196020908152604080832086845290915290205460ff166110875760405162461bcd60e51b815260040161104490617e28565b336000908152601a6020908152604080832086845290915290205460ff16156110c25760405162461bcd60e51b8152600401611044906185a8565b6110cc338461479b565b6110d68383613649565b146110f35760405162461bcd60e51b815260040161104490617bc3565b60006110ff33856145bf565b90508260011415611136576000848152603060205260408120600701805483929061112b908490618979565b9091555061115d9050565b60008481526030602052604081206008018054839290611157908490618979565b90915550505b336000908152601f60205260409081902090516301039dfd60e11b815273__$85afbab79b2b776d70bef879a32ed56424$__916302073bfa916111a591908890600401617786565b60006040518083038186803b1580156111bd57600080fd5b505af41580156111d1573d6000803e3d6000fd5b5050336000818152601a602090815260408083208a84528252808320805460ff19166001908117909155601b8352818420948452938252808320899055602382528083208a8452603090925290912060030154909350611232925090615796565b60008681526030602052604090206003015560028101805460ff19166001179055426004820155611262336157a2565b600581015460ff16156112d757611278336158fa565b15801561128f57506005810154610100900460ff16155b156112d757602880546001810182556000919091527fe16da923a2d88192e5070f37b4571d58682c0d66212ec634d495f33de3f77ab50180546001600160a01b031916331790555b6000858152603060205260409020600301546112f6576112f68561596a565b6001603160008282546113099190618979565b909155505060008581526030602052604090819020600781015460089091015491513392879289927f0867b5027231dcbf37614eaad07d667b9febaf9fdf483f488229b1f140bb074892611361928992909190618837565b60405180910390a45050505050565b600b5481565b61137e61677e565b6001600160a01b031661138f612e88565b6001600160a01b0316146113b55760405162461bcd60e51b8152600401611044906180f5565b603980546001600160a01b0319166001600160a01b0392909216919091179055565b6024602052600090815260409020805481906113f290618a07565b80601f016020809104026020016040519081016040528092919081815260200182805461141e90618a07565b801561146b5780601f106114405761010080835404028352916020019161146b565b820191906000526020600020905b81548152906001019060200180831161144e57829003601f168201915b50505060018401546002850154600386015460048701805496976001600160a01b0390941696929550909350906114a190618a07565b80601f01602080910402602001604051908101604052809291908181526020018280546114cd90618a07565b801561151a5780601f106114ef5761010080835404028352916020019161151a565b820191906000526020600020905b8154815290600101906020018083116114fd57829003601f168201915b50505050509080600501805461152f90618a07565b80601f016020809104026020016040519081016040528092919081815260200182805461155b90618a07565b80156115a85780601f1061157d576101008083540402835291602001916115a8565b820191906000526020600020905b81548152906001019060200180831161158b57829003601f168201915b5050506006909301549192505060ff1687565b60225481565b602f5490565b60606115d2826154bd565b6115ee5760405162461bcd60e51b81526004016110449061826a565b600082815260306020908152604080832081516101c0810183528154815260018201549381019390935260028101549183019190915260038101546060830152600481015460ff808216151560808501526101008083048216151560a08601526201000090920416151560c0840152600582015460e0840152600682015490830152600781015461012083015260088101546101408301526009810180546101608401919061169c90618a07565b80601f01602080910402602001604051908101604052809291908181526020018280546116c890618a07565b80156117155780601f106116ea57610100808354040283529160200191611715565b820191906000526020600020905b8154815290600101906020018083116116f857829003601f168201915b5050509183525050600a8201546020820152600b82015460409091019060ff16600381111561175457634e487b7160e01b600052602160045260246000fd5b600381111561177357634e487b7160e01b600052602160045260246000fd5b9052506020810151600154919250906000906001600160401b038111156117aa57634e487b7160e01b600052604160045260246000fd5b6040519080825280602002602001820160405280156117dd57816020015b60608152602001906001900390816117c85790505b50905060005b828110156118dd5783516000906117fb908390618979565b60008181526024602052604081206004018054929350909161181c90618a07565b80601f016020809104026020016040519081016040528092919081815260200182805461184890618a07565b80156118955780601f1061186a57610100808354040283529160200191611895565b820191906000526020600020905b81548152906001019060200180831161187857829003601f168201915b50505050509050808484815181106118bd57634e487b7160e01b600052603260045260246000fd5b6020026020010181905250505080806118d590618a42565b9150506117e3565b50949350505050565b60006118f1826154bd565b61190d5760405162461bcd60e51b81526004016110449061857f565b600082815260306020526040902060060154611928906147e0565b92915050565b61193661560e565b336000908152602360205260409020600581015460ff16151560011461196e5760405162461bcd60e51b8152600401611044906180a9565b60018101541580159061198b57506005810154610100900460ff16155b156119e85760058101805461ff001916610100179055602a80546001810182556000919091527fbeced09521047d05b8960b7e7bcc1d1292cf3e4b2a6b63f48335cbde5f7545d20180546001600160a01b03191633179055611a79565b600181015415611a0a5760405162461bcd60e51b815260040161104490617fef565b611a1333616782565b611a1c336157a2565b80546001600160a01b031916339081178255426004830181905560058301805460ff191690556040517f9dadcedba048e92b943ea1c5861cee1df63a566d7f795869c004780c1c698e2b91611a7091617761565b60405180910390a25b600160316000828254611a8c9190618979565b909155505050565b6038546001600160a01b031681565b601960209081526000928352604080842090915290825290205460ff1681565b601c60209081526000928352604080842090915290825290208054611ae790618a07565b80601f0160208091040260200160405190810160405280929190818152602001828054611b1390618a07565b8015611b605780601f10611b3557610100808354040283529160200191611b60565b820191906000526020600020905b815481529060010190602001808311611b4357829003601f168201915b505050505081565b60215481565b60288181548110611b7e57600080fd5b6000918252602090912001546001600160a01b0316905081565b611ba061560e565b602a5415611bb057611bb06168b2565b611bb861694a565b629896805a1115611d0c57602e5460009081526030602052604081206004015462010000900460ff1615156001148015611c155750611bf8602e546118e6565b80611c155750602e54600090815260306020526040902060030154155b15611c3a57611c25602e5461596a565b602e54611c33906001616a81565b602e555060015b602f5460009081526030602052604090206004015462010000900460ff161515600114801590611c6e575060035460285410155b8015611c8e5750602f5460009081526030602052604090206004015460ff165b8015611ca85750600754600854611ca590426189c4565b10155b15611cb957611cb561265f565b5060015b8015611d0057602154611ccd906001616a81565b60218190556040517f94d48a7342690f1233e3f4db70efa37c4f1f25f4d0397c353f3f15aecdeca5f490600090a2611d06565b50611d0c565b50611bb8565b565b611d1661677e565b6001600160a01b0316611d27612e88565b6001600160a01b031614611d4d5760405162461bcd60e51b8152600401611044906180f5565b603b805460ff60a01b198116600160a01b9182900460ff1615909102179055565b60405160009080602081848060185afa611d8457fe5b5051919050565b60118160048110611d9b57600080fd5b60020201805460019091015490915082565b60105481565b611dbb61677e565b6001600160a01b0316611dcc612e88565b6001600160a01b031614611df25760405162461bcd60e51b8152600401611044906180f5565b60008111611dff57600080fd5b600a55565b6001600160a01b0381166000908152601f602052604080822090516301c39b2b60e11b815273__$85afbab79b2b776d70bef879a32ed56424$__91630387365691611e5491908590600401617786565b60206040518083038186803b158015611e6c57600080fd5b505af4158015611e80573d6000803e3d6000fd5b505050506040513d601f19601f820116820180604052508101906119289190617568565b6000611eaf826154bd565b611ecb5760405162461bcd60e51b81526004016110449061826a565b600082815260306020526040902060060154611ee6906147e0565b1580156119285750611ef782613219565b1592915050565b611f0661677e565b6001600160a01b0316611f17612e88565b6001600160a01b031614611f3d5760405162461bcd60e51b8152600401611044906180f5565b6001811015611f4b57600080fd5b600355565b611f5861677e565b6001600160a01b0316611f69612e88565b6001600160a01b031614611f8f5760405162461bcd60e51b8152600401611044906180f5565b600755565b602e5490565b60345481565b600081815260306020908152604080832081516101c0810183528154815260018201549381019390935260028101549183019190915260038101546060830152600481015460ff808216151560808501526101008083048216151560a08601526201000090920416151560c0840152600582015460e0840152600682015490830152600781015461012083015260088101546101408301526009810180548493929161016084019161205190618a07565b80601f016020809104026020016040519081016040528092919081815260200182805461207d90618a07565b80156120ca5780601f1061209f576101008083540402835291602001916120ca565b820191906000526020600020905b8154815290600101906020018083116120ad57829003601f168201915b5050509183525050600a8201546020820152600b82015460409091019060ff16600381111561210957634e487b7160e01b600052602160045260246000fd5b600381111561212857634e487b7160e01b600052602160045260246000fd5b90525061014081015161012082015191925061214391618979565b600d5461215091906189a5565b6101208201516121619060646189a5565b119392505050565b61217161677e565b6001600160a01b0316612182612e88565b6001600160a01b0316146121a85760405162461bcd60e51b8152600401611044906180f5565b602c80546001600160a01b0319166001600160a01b0392909216919091179055565b6121d261677e565b6001600160a01b03166121e3612e88565b6001600160a01b0316146122095760405162461bcd60e51b8152600401611044906180f5565b6000818152602460205260408120906122228282616ff2565b6001820180546001600160a01b031916905560006002830181905560038301819055612252906004840190616ff2565b612260600583016000616ff2565b50600601805460ff1916905550565b602d5490565b6039546001600160a01b031681565b6001600160a01b0381166000908152602560209081526040918290208054835181840281018401909452808452606093928301828280156122e457602002820191906000526020600020905b8154815260200190600101908083116122d0575b50505050509050919050565b6122f861677e565b6001600160a01b0316612309612e88565b6001600160a01b03161461232f5760405162461bcd60e51b8152600401611044906180f5565b600655565b61233c61702e565b60008281526024602052604090819020815160e0810190925280548290829061236490618a07565b80601f016020809104026020016040519081016040528092919081815260200182805461239090618a07565b80156123dd5780601f106123b2576101008083540402835291602001916123dd565b820191906000526020600020905b8154815290600101906020018083116123c057829003601f168201915b505050918352505060018201546001600160a01b03166020820152600282015460408201526003820154606082015260048201805460809092019161242190618a07565b80601f016020809104026020016040519081016040528092919081815260200182805461244d90618a07565b801561249a5780601f1061246f5761010080835404028352916020019161249a565b820191906000526020600020905b81548152906001019060200180831161247d57829003601f168201915b505050505081526020016005820180546124b390618a07565b80601f01602080910402602001604051908101604052809291908181526020018280546124df90618a07565b801561252c5780601f106125015761010080835404028352916020019161252c565b820191906000526020600020905b81548152906001019060200180831161250f57829003601f168201915b5050509183525050600682015460209091019060ff16600381111561256157634e487b7160e01b600052602160045260246000fd5b600381111561258057634e487b7160e01b600052602160045260246000fd5b90525092915050565b601d60209081526000928352604080842090915290825290205481565b60065481565b6125b461677e565b6001600160a01b03166125c5612e88565b6001600160a01b0316146125eb5760405162461bcd60e51b8152600401611044906180f5565b600081815260306020526040812081815560018101829055600281018290556003810182905560048101805462ffffff1916905560058101829055600681018290556007810182905560088101829055906126496009830182616ff2565b506000600a820155600b01805460ff1916905550565b602f5460009081526030602052604090206004015460ff166126935760405162461bcd60e51b815260040161104490618187565b602f5460009081526030602052604090206004015462010000900460ff16156126ce5760405162461bcd60e51b81526004016110449061804c565b60006126ec6126e4602880549050600254616a8d565b600354616aa3565b602854600754600854929350909161270490426189c4565b10612a8057602f80546000908152603060205260408082206003018590559154815290812060020183905560055461273d904290616a81565b9050600061275660065483616a8190919063ffffffff16565b602f8054600090815260306020526040808220600501869055825482528082206006018490559154815220600401805462ff00001916620100001790559050600184108015906127a7575060018310155b6127c35760405162461bcd60e51b815260040161104490617cd5565b60006127cf85856138a9565b9050600081516001600160401b038111156127fa57634e487b7160e01b600052604160045260246000fd5b604051908082528060200260200182016040528015612823578160200160208202803683370190505b50905060005b82518110156128e257602883828151811061285457634e487b7160e01b600052603260045260246000fd5b60200260200101518154811061287a57634e487b7160e01b600052603260045260246000fd5b9060005260206000200160009054906101000a90046001600160a01b03168282815181106128b857634e487b7160e01b600052603260045260246000fd5b6001600160a01b0390921660209283029190910190910152806128da81618a42565b915050612829565b5060005b8251811015612a4a57600082828151811061291157634e487b7160e01b600052603260045260246000fd5b60200260200101519050600060236000836001600160a01b03166001600160a01b03168152602001908152602001600020905061294d82616782565b61295682616ab3565b6129a657602980546001810182556000919091527fcb7c14ce178f56e2e8d86ab33ebc0ae081ba8556a00cd122038841867181caac0180546001600160a01b0319166001600160a01b0384161790555b602f80546000908152602b602090815260408083208054600180820183559185529290932090910180546001600160a01b0319166001600160a01b03871617905582549184019190915560028301805460ff19169055905490517fe4ee2dfabe57cee15e3f558890b20455f54c1fa0718e5276faad70a6500e6b8c90612a2d908590617794565b60405180910390a250508080612a4290618a42565b9150506128e6565b5042600855602f54612a5d906001616a81565b602f81905550600160316000828254612a769190618979565b9091555050505050505b5050565b600061192882610e0884611e04565b6001600160a01b031660009081526026602052604090205490565b612ab661677e565b6001600160a01b0316612ac7612e88565b6001600160a01b031614612aed5760405162461bcd60e51b8152600401611044906180f5565b611d0c6000616b23565b6000612b02826154bd565b612b1e5760405162461bcd60e51b81526004016110449061826a565b5060009081526030602052604090206006015490565b60035481565b60015481565b600c5481565b603a546001600160a01b031681565b612b5d61677e565b6001600160a01b0316612b6e612e88565b6001600160a01b031614612b945760405162461bcd60e51b8152600401611044906180f5565b603b80546001600160a01b0319166001600160a01b0392909216919091179055565b602954602854600091612bc891618979565b905090565b6000612bd8826154bd565b612bf45760405162461bcd60e51b81526004016110449061826a565b506001600160a01b03919091166000908152601960209081526040808320938352929052205460ff1690565b603060205260009081526040902080546001820154600283015460038401546004850154600586015460068701546007880154600889015460098a018054999a98999798969760ff80881698610100890482169862010000900490911696959493929091612c8d90618a07565b80601f0160208091040260200160405190810160405280929190818152602001828054612cb990618a07565b8015612d065780601f10612cdb57610100808354040283529160200191612d06565b820191906000526020600020905b815481529060010190602001808311612ce957829003601f168201915b50505050600a830154600b9093015491929160ff1690508e565b600080805b6004811015612d765760118160048110612d4f57634e487b7160e01b600052603260045260246000fd5b600202016001015482612d629190618979565b915080612d6e81618a42565b915050612d25565b50905090565b600080612d8984876145bf565b83101590506000612d9a85876145bf565b84111580612da6575085155b9050818015612db25750805b979650505050505050565b60298181548110611b7e57600080fd5b6037546001600160a01b031681565b602d5481565b601e60209081526000928352604080842090915290825290208054611ae790618a07565b603b54600160a01b900460ff1681565b6023602052600090815260409020805460018201546002830154600384015460048501546005860154600687015460078801546008909801546001600160a01b0390971697959660ff95861696949593948385169461010090940490931692908a565b603b546001600160a01b031681565b6000546001600160a01b031690565b602b6020528160005260406000208181548110612eb357600080fd5b6000918252602090912001546001600160a01b03169150829050565b60016000828152603060205260409020600b015460ff166003811115612f0557634e487b7160e01b600052602160045260246000fd5b14612f225760405162461bcd60e51b815260040161104490617a77565b336000908152601f60205260409081902090516306120d1f60e31b815273__$85afbab79b2b776d70bef879a32ed56424$__9163309068f891612f6a91908590600401617786565b60206040518083038186803b158015612f8257600080fd5b505af4158015612f96573d6000803e3d6000fd5b505050506040513d601f19601f82011682018060405250810190612fba919061745e565b612fd65760405162461bcd60e51b815260040161104490617f64565b336000908152601f60205260409081902090516301039dfd60e11b815273__$85afbab79b2b776d70bef879a32ed56424$__916302073bfa9161301e91908590600401617786565b60006040518083038186803b15801561303657600080fd5b505af415801561304a573d6000803e3d6000fd5b50506040513392508391507f402507661c8c8cb90e0a796450b8bdd28b6c516f05279c0cd29e84c344e1699a90600090a350565b60325481565b60215490565b602560205281600052604060002081815481106130a657600080fd5b90600052602060002001600091509150505481565b6001600160a01b038116600090815260236020526040812060090181805b82548110156131335782818154811061310257634e487b7160e01b600052603260045260246000fd5b9060005260206000209060020201600101548261311f9190618979565b91508061312b81618a42565b9150506130d9565b509392505050565b60005b8151811015612a805761317782828151811061316a57634e487b7160e01b600052603260045260246000fd5b6020026020010151612ecf565b8061318181618a42565b91505061313e565b6000828260405160200161319e92919061773f565b60405160208183030381529060405280519060200120905092915050565b60325490565b6131ca61677e565b6001600160a01b03166131db612e88565b6001600160a01b0316146132015760405162461bcd60e51b8152600401611044906180f5565b6000811161320e57600080fd5b600955565b60335481565b6000613224826154bd565b6132405760405162461bcd60e51b81526004016110449061826a565b60008281526030602052604090206005015461325b906147e0565b158015611928575050600090815260306020526040902060020154151590565b60225490565b600081604051602001613294919061776a565b60405160208183030381529060405280519060200120836040516020016132bb919061776a565b6040516020818303038152906040528051906020012014156132df57506001611928565b506000611928565b60006132f2826154bd565b61330e5760405162461bcd60e51b81526004016110449061826a565b506001600160a01b03919091166000908152601a60209081526040808320938352929052205460ff1690565b600080424160405160200161334f9190617722565b6040516020818303038152906040528051906020012060001c6133729190618991565b4461337b611d6e565b60405160200161338b9190617761565b60408051601f1981840301815291905280516020909101206133ad9042618979565b6133b79190618979565b6133c19190618979565b6040516020016133d19190617761565b60408051601f19818403018152919052805160209091012091505090565b602c546001600160a01b031681565b61340661677e565b6001600160a01b0316613417612e88565b6001600160a01b03161461343d5760405162461bcd60e51b8152600401611044906180f5565b6000811161344a57600080fd5b600f55565b61345761677e565b6001600160a01b0316613468612e88565b6001600160a01b03161461348e5760405162461bcd60e51b8152600401611044906180f5565b6000811161349b57600080fd5b601055565b600f5481565b6134ae61677e565b6001600160a01b03166134bf612e88565b6001600160a01b0316146134e55760405162461bcd60e51b8152600401611044906180f5565b60648111156134f357600080fd5b600d55565b602a8181548110611b7e57600080fd5b6001600160a01b03808216600090815260236020908152604080832081516101608101835281549095168552600181015485840152600281015460ff90811615158684015260038201546060870152600482015460808701526005820154808216151560a088015261010090819004909116151560c0870152600682015460e0870152600782015490860152600881015461012086015260098101805483518186028101860190945280845294958695869591946101408601939092909190879084015b82821015613612578382906000526020600020906002020160405180604001604052908160008201548152602001600182015481525050815260200190600101906135cc565b505050915250506040810151909150158015613638575061363681602001516118e6565b155b1561364257600191505b5092915050565b6000828260405160200161319e929190617786565b60606000821161366d57600080fd5b6000416040516020016136809190617722565b6040516020818303038152906040528051906020012060001c6136a1611d6e565b6040516020016136b19190617761565b60408051601f1981840301815291905280516020909101206136d39042618979565b6136dd9190618979565b6040516020016136ed9190617761565b6040516020818303038152906040528051906020012060001c90506000846001600160401b0381111561373057634e487b7160e01b600052604160045260246000fd5b604051908082528060200260200182016040528015613759578160200160208202803683370190505b5090506000805b8682101561385a5760008661377963017efeeb876189c4565b8360405160200161378b929190617786565b6040516020818303038152906040528051906020012060001c6137ae9190618a5d565b90506000805b8481101561380657828682815181106137dd57634e487b7160e01b600052603260045260246000fd5b602002602001015114156137f45760019150613806565b806137fe81618a42565b9150506137b4565b5080613846578185858151811061382d57634e487b7160e01b600052603260045260246000fd5b6020908102919091010152613843846001618979565b93505b613851836001618979565b92505050613760565b509095945050505050565b61386d61677e565b6001600160a01b031661387e612e88565b6001600160a01b0316146138a45760405162461bcd60e51b8152600401611044906180f5565b600155565b60606000821180156138bb5750818311155b80156138c8575060018310155b6138e45760405162461bcd60e51b815260040161104490617c8c565b6000826001600160401b0381111561390c57634e487b7160e01b600052604160045260246000fd5b604051908082528060200260200182016040528015613935578160200160208202803683370190505b5090506000846001600160401b0381111561396057634e487b7160e01b600052604160045260246000fd5b604051908082528060200260200182016040528015613989578160200160208202803683370190505b509050600061399f61399a84616b73565b616bc9565b905060005b8681101561385a578181815181106139cc57634e487b7160e01b600052603260045260246000fd5b60200260200101518382815181106139f457634e487b7160e01b600052603260045260246000fd5b602090810291909101015280613a0981618a42565b9150506139a4565b6000613a1b61560e565b603b54600160a01b900460ff16613a445760405162461bcd60e51b815260040161104490617e77565b613a4c61694a565b600f54613a57612d20565b11613a745760405162461bcd60e51b815260040161104490617ec1565b613a7d33616d5d565b601054613a89336130bb565b11613aa65760405162461bcd60e51b81526004016110449061852b565b60048054603a5460405163792f4f6960e11b815291926000926001600160a01b039092169163f25e9ed291613add91339101617794565b60206040518083038186803b158015613af557600080fd5b505afa158015613b09573d6000803e3d6000fd5b505050506040513d601f19601f82011682018060405250810190613b2d91906172a1565b33600090815260266020526040902054909150821115613bd6576001600160a01b03811615613bad576001600160a01b038116600090815260266020526040902054821115613ba8576001600160a01b038116600090815260266020526040812054613b9a908490615796565b9050613ba68183616eea565b505b613bd6565b33600090815260266020526040812054613bc8908490615796565b9050613bd48133616eea565b505b60005b8851811015613ef7576000898281518110613c0457634e487b7160e01b600052603260045260246000fd5b602002602001015190506000898984818110613c3057634e487b7160e01b600052603260045260246000fd5b9050602002810190613c4291906188dd565b8080601f016020809104026020016040519081016040528093929190818152602001838380828437600092018290525033808252602560209081526040808420602254815460018101835591865283862090910155805160e0810182528a8152918201929092524291810191909152606081018e90526080810186905260a081018d905294955060c0850193509150613cd89050565b90526022546000908152602460209081526040909120825180519192613d0392849290910190617092565b506020828101516001830180546001600160a01b0319166001600160a01b03909216919091179055604083015160028301556060830151600383015560808301518051613d569260048501920190617092565b5060a08201518051613d72916005840191602090910190617092565b5060c082015160068201805460ff19166001836003811115613da457634e487b7160e01b600052602160045260246000fd5b021790555050602d54600090815260306020526040902060018054908201549192501115613de7576001816001016000828254613de19190618979565b90915550505b600154816001015410613e3957600481018054600160ff19909116811761ff001916909155602d8054600090613e1e908490618979565b9091555050602254602d546000908152603060205260409020555b602254613e47906001618979565b60225560016011613e598260046189c4565b60048110613e7757634e487b7160e01b600052603260045260246000fd5b600202016001016000828254613e8d9190618979565b90915550613e9b9050611b98565b336001600160a01b03166022547fb819ca9ac369919119f75ec7363dd954f75bcfa75f9245647e03da413be0d5828585604051613ed9929190617968565b60405180910390a35050508080613eef90618a42565b915050613bd9565b50336000908152602360205260408120426004820155603180549192600192613f21908490618979565b90915550506022549998505050505050505050565b613f3e61677e565b6001600160a01b0316613f4f612e88565b6001600160a01b031614613f755760405162461bcd60e51b8152600401611044906180f5565b603a80546001600160a01b0319166001600160a01b0392909216919091179055565b6000613fa2826154bd565b613fbe5760405162461bcd60e51b81526004016110449061826a565b5060009081526030602052604090206005015490565b600d5481565b60266020526000908152604090205481565b60025481565b60045481565b61400061560e565b61400985613219565b6140255760405162461bcd60e51b815260040161104490617b74565b33600090815260196020908152604080832088845290915290205460ff16156140605760405162461bcd60e51b81526004016110449061835e565b61406a853361465b565b6140865760405162461bcd60e51b815260040161104490617d1f565b60048054603a5460405163792f4f6960e11b815291926000926001600160a01b039092169163f25e9ed2916140bd91339101617794565b60206040518083038186803b1580156140d557600080fd5b505afa1580156140e9573d6000803e3d6000fd5b505050506040513d601f19601f8201168201806040525081019061410d91906172a1565b336000908152602660205260409020549091508211156141b6576001600160a01b0381161561418d576001600160a01b038116600090815260266020526040902054821115614188576001600160a01b03811660009081526026602052604081205461417a908490615796565b90506141868183616eea565b505b6141b6565b336000908152602660205260408120546141a8908490615796565b90506141b48133616eea565b505b6000336000908152601f60205260408082209051631e0f232560e31b815273__$85afbab79b2b776d70bef879a32ed56424$__9163f0791928916141ff91908690600401617786565b60206040518083038186803b15801561421757600080fd5b505af415801561422b573d6000803e3d6000fd5b505050506040513d601f19601f8201168201806040525081019061424f9190617568565b9050888114156142f457336000908152601f6020526040908190209051631e0f232560e31b815273__$85afbab79b2b776d70bef879a32ed56424$__9163f0791928916142a191908d90600401617786565b60206040518083038186803b1580156142b957600080fd5b505af41580156142cd573d6000803e3d6000fd5b505050506040513d601f19601f820116820180604052508101906142f19190617568565b90505b61430082823387612d7c565b61431c5760405162461bcd60e51b815260040161104490617fc1565b336000908152601f602052604090819020905163524cfe5360e11b815273__$85afbab79b2b776d70bef879a32ed56424$__9163a499fca691614368919086908e908790600401618753565b60006040518083038186803b15801561438057600080fd5b505af4158015614394573d6000803e3d6000fd5b5050505060006143a4338b613189565b60405163099b040f60e31b815290915073__$0947e710b66d7779e1d561254425e1375a$__90634cd82078906143e39060209085908a90600401618735565b60006040518083038186803b1580156143fb57600080fd5b505af415801561440f573d6000803e3d6000fd5b505060405163099b040f60e31b815273__$0947e710b66d7779e1d561254425e1375a$__9250634cd82078915061444f9060209085908e906004016186e9565b60006040518083038186803b15801561446757600080fd5b505af415801561447b573d6000803e3d6000fd5b50505060008b8152601c6020908152604080832033845282529091208a516144a8935090918b0190617092565b5060008a8152601d60209081526040808320338085529083528184208b90558d8452601e8352818420908452825290912087516144e792890190617092565b503360009081526023602090815260408083208d8452603090925290912060020154614514906001615796565b60008c815260306020908152604080832060020193909355426004850155338252601981528282208e83529052908120805460ff191660019081179091556031805491929091614565908490618979565b909155505060405133908c907f42864d9683ff5b12c3b2cc65d705af5aab104b03bc700b802f79e5c971ef08a19061459e908a90617761565b60405180910390a35050505050505050505050565b60085481565b600a5481565b600073__$0947e710b66d7779e1d561254425e1375a$__636981015860206145e78686613189565b6040518363ffffffff1660e01b8152600401614604929190618717565b60206040518083038186803b15801561461c57600080fd5b505af4158015614630573d6000803e3d6000fd5b505050506040513d601f19601f820116820180604052508101906146549190617568565b9392505050565b6000828152602b602090815260408083208054825181850281018501909352808352849384939291908301828280156146bd57602002820191906000526020600020905b81546001600160a01b0316815260019091019060200180831161469f575b5050505050905060005b815181101561472c57846001600160a01b03168282815181106146fa57634e487b7160e01b600052603260045260246000fd5b60200260200101516001600160a01b0316141561471a576001925061472c565b8061472481618a42565b9150506146c7565b5090949350505050565b601a60209081526000928352604080842090915290825290205460ff1681565b60095481565b602f5481565b60276020528160005260406000208181548110612eb357600080fd5b601b60209081526000928352604080842090915290825290205481565b600073__$0947e710b66d7779e1d561254425e1375a$__636981015860206147c38686613189565b6040518363ffffffff1660e01b81526004016146049291906186cb565b421190565b6147ed617116565b6147f6826154bd565b6147ff57600080fd5b60008281526030602090815260409182902082516101c0810184528154815260018201549281019290925260028101549282019290925260038201546060820152600482015460ff808216151560808401526101008083048216151560a08501526201000090920416151560c0830152600583015460e083015260068301549082015260078201546101208201526008820154610140820152600982018054919291610160840191906148b190618a07565b80601f01602080910402602001604051908101604052809291908181526020018280546148dd90618a07565b801561492a5780601f106148ff5761010080835404028352916020019161492a565b820191906000526020600020905b81548152906001019060200180831161490d57829003601f168201915b5050509183525050600a8201546020820152600b82015460409091019060ff16600381111561256157634e487b7160e01b600052602160045260246000fd5b61497161677e565b6001600160a01b0316614982612e88565b6001600160a01b0316146149a85760405162461bcd60e51b8152600401611044906180f5565b600255565b6149b561677e565b6001600160a01b03166149c6612e88565b6001600160a01b0316146149ec5760405162461bcd60e51b8152600401611044906180f5565b603880546001600160a01b0319166001600160a01b0392909216919091179055565b614a1661677e565b6001600160a01b0316614a27612e88565b6001600160a01b031614614a4d5760405162461bcd60e51b8152600401611044906180f5565b603780546001600160a01b0319166001600160a01b0392909216919091179055565b600e5481565b3360009081526026602052604090205490565b606060008211614a9757600080fd5b6000826001600160401b03811115614abf57634e487b7160e01b600052604160045260246000fd5b604051908082528060200260200182016040528015614ae8578160200160208202803683370190505b5090506000614af961399a83616b73565b949350505050565b6060614b0c826154bd565b614b1557600080fd5b60008281526030602052604090206009018054614b3190618a07565b80601f0160208091040260200160405190810160405280929190818152602001828054614b5d90618a07565b80156122e45780601f10614b7f576101008083540402835291602001916122e4565b820191906000526020600020905b815481529060010190602001808311614b8d5750939695505050505050565b60055481565b6001600160a01b031660009081526023602052604090206005015460ff1690565b6000614bf7614be133612a84565b3360009081526026602052604090205490615796565b905081811015614c195760405162461bcd60e51b815260040161104490618223565b603754604051630895993360e11b81526001600160a01b039091169063112b326690614c4b9085903390600401618802565b602060405180830381600087803b158015614c6557600080fd5b505af1158015614c79573d6000803e3d6000fd5b505050506040513d601f19601f82011682018060405250810190614c9d919061745e565b614cb95760405162461bcd60e51b8152600401611044906184ce565b3360009081526026602052604081208054849290614cd89084906189c4565b909155505060405133907ffaeb7dbb9992397d26ea1944efd40c80b40f702faf69b46c67ad10aba68ccb7990614d0f908590617761565b60405180910390a25050565b614d2361677e565b6001600160a01b0316614d34612e88565b6001600160a01b031614614d5a5760405162461bcd60e51b8152600401611044906180f5565b600555565b60355481565b6060614d70826154bd565b614d8c5760405162461bcd60e51b81526004016110449061826a565b600082815260306020908152604080832081516101c0810183528154815260018201549381019390935260028101549183019190915260038101546060830152600481015460ff808216151560808501526101008083048216151560a08601526201000090920416151560c0840152600582015460e08401526006820154908301526007810154610120830152600881015461014083015260098101805461016084019190614e3a90618a07565b80601f0160208091040260200160405190810160405280929190818152602001828054614e6690618a07565b8015614eb35780601f10614e8857610100808354040283529160200191614eb3565b820191906000526020600020905b815481529060010190602001808311614e9657829003601f168201915b5050509183525050600a8201546020820152600b82015460409091019060ff166003811115614ef257634e487b7160e01b600052602160045260246000fd5b6003811115614f1157634e487b7160e01b600052602160045260246000fd5b9052506020810151600154919250906000906001600160401b03811115614f4857634e487b7160e01b600052604160045260246000fd5b604051908082528060200260200182016040528015614f7b57816020015b6060815260200190600190039081614f665790505b50905060005b828110156118dd578351600090614f99908390618979565b600081815260246020526040812080549293509091614fb790618a07565b80601f0160208091040260200160405190810160405280929190818152602001828054614fe390618a07565b80156150305780601f1061500557610100808354040283529160200191615030565b820191906000526020600020905b81548152906001019060200180831161501357829003601f168201915b505050505090508084848151811061505857634e487b7160e01b600052603260045260246000fd5b60200260200101819052505050808061507090618a42565b915050614f81565b602e5481565b60315481565b61508c61677e565b6001600160a01b031661509d612e88565b6001600160a01b0316146150c35760405162461bcd60e51b8152600401611044906180f5565b6001600160a01b0381166150e95760405162461bcd60e51b815260040161104490617c46565b6150f281616b23565b50565b6001600160a01b03811660009081526025602090815260408083208054825181850281018501909352808352849383018282801561515257602002820191906000526020600020905b81548152602001906001019080831161513e575b50505050509050806001825161516891906189c4565b8151811061518657634e487b7160e01b600052603260045260246000fd5b6020026020010151915050919050565b60008383836040516020016151ad939291906178be565b6040516020818303038152906040528051906020012090509392505050565b60315490565b6151da61560e565b3360009081526023602052604090206029546028546103e8916151fc91618979565b106152195760405162461bcd60e51b8152600401611044906183a7565b600581015460ff161561523e5760405162461bcd60e51b815260040161104490617a40565b6009548160030154101580156152635750600a54600682015461526190426189c4565b105b156152805760405162461bcd60e51b815260040161104490618436565b60048054603a5460405163792f4f6960e11b815291926000926001600160a01b039092169163f25e9ed2916152b791339101617794565b60206040518083038186803b1580156152cf57600080fd5b505afa1580156152e3573d6000803e3d6000fd5b505050506040513d601f19601f8201168201806040525081019061530791906172a1565b336000908152602660205260409020549091508211156153b0576001600160a01b03811615615387576001600160a01b038116600090815260266020526040902054821115615382576001600160a01b038116600090815260266020526040812054615374908490615796565b90506153808183616eea565b505b6153b0565b336000908152602660205260408120546153a2908490615796565b90506153ae8133616eea565b505b336000908152602660205260409020548211156153df5760405162461bcd60e51b815260040161104490617ac8565b6153e8336158fa565b61542f57602880546001810182556000919091527fe16da923a2d88192e5070f37b4571d58682c0d66212ec634d495f33de3f77ab50180546001600160a01b031916331790555b8254336001600160a01b031990911617835560058301805460ff1916600190811761ff00191690915542600685015560006003850181905560318054909190615479908490618979565b909155505060405133907f439d77b7534ec3108fc6143bd4fbabde0b9f2bb54f7b0730d1f70dd2135b765f906154b0904290617761565b60405180910390a2505050565b602d54101590565b3360009081526023602052604090206005015460ff1690565b60335490565b6036546001600160a01b031681565b6001600160a01b03808216600090815260236020908152604080832081516101608101835281549095168552600181015485840152600281015460ff90811615158684015260038201546060870152600482015460808701526005820154808216151560a088015261010090819004909116151560c0870152600682015460e08701526007820154908601526008810154610120860152600981018054835181860281018601909452808452949586959094929361014086019390929190879084015b828210156155fc578382906000526020600020906002020160405180604001604052908160008201548152602001600182015481525050815260200190600101906155b6565b50505091525050602001519392505050565b602c546001600160a01b03166156365760405162461bcd60e51b8152600401611044906182a1565b602c546040516000916001600160a01b031690615657903390602401617794565b60408051601f198184030181529181526020820180516001600160e01b0316631f5ac9c560e11b1790525161568c919061776a565b6000604051808303816000865af19150503d80600081146156c9576040519150601f19603f3d011682016040523d82523d6000602084013e6156ce565b606091505b5050602c546040519192506000916001600160a01b03909116906156f6903390602401617794565b60408051601f198184030181529181526020820180516001600160e01b03166358563d2160e01b1790525161572b919061776a565b6000604051808303816000865af19150503d8060008114615768576040519150601f19603f3d011682016040523d82523d6000602084013e61576d565b606091505b50509050818061577a5750805b612a805760405162461bcd60e51b815260040161104490617b2f565b600061465482846189c4565b60008060005b60295481101561581657836001600160a01b0316602982815481106157dd57634e487b7160e01b600052603260045260246000fd5b6000918252602090912001546001600160a01b031614156158045760019150809250615816565b8061580e81618a42565b9150506157a8565b5080156158f5576029805461582d906001906189c4565b8154811061584b57634e487b7160e01b600052603260045260246000fd5b600091825260209091200154602980546001600160a01b03909216918490811061588557634e487b7160e01b600052603260045260246000fd5b9060005260206000200160006101000a8154816001600160a01b0302191690836001600160a01b0316021790555060298054806158d257634e487b7160e01b600052603160045260246000fd5b600082815260209020810160001990810180546001600160a01b03191690550190555b505050565b600080805b60285481101561364257836001600160a01b03166028828154811061593457634e487b7160e01b600052603260045260246000fd5b6000918252602090912001546001600160a01b031614156159585760019150613642565b8061596281618a42565b9150506158ff565b615973816118e6565b8061598d5750600081815260306020526040902060030154155b6159a95760405162461bcd60e51b81526004016110449061812a565b600081815260306020526040902060040154610100900460ff16156159e05760405162461bcd60e51b81526004016110449061831d565b6000818152602b6020908152604080832080548251818502810185019093528083529192909190830182828015615a4057602002820191906000526020600020905b81546001600160a01b03168152600190910190602001808311615a22575b50505050509050600081516001600160401b03811115615a7057634e487b7160e01b600052604160045260246000fd5b604051908082528060200260200182016040528015615aa357816020015b6060815260200190600190039081615a8e5790505b509050600082516001600160401b03811115615acf57634e487b7160e01b600052604160045260246000fd5b604051908082528060200260200182016040528015615af8578160200160208202803683370190505b50905060005b8351811015615c7b576000848281518110615b2957634e487b7160e01b600052603260045260246000fd5b6020908102919091018101516000888152601c835260408082206001600160a01b0384168352909352918220805491935090615b6490618a07565b80601f0160208091040260200160405190810160405280929190818152602001828054615b9090618a07565b8015615bdd5780601f10615bb257610100808354040283529160200191615bdd565b820191906000526020600020905b815481529060010190602001808311615bc057829003601f168201915b50505060008a8152601d602090815260408083206001600160a01b038916845290915290205488519394509284925088915086908110615c2d57634e487b7160e01b600052603260045260246000fd5b602002602001018190525080858581518110615c5957634e487b7160e01b600052603260045260246000fd5b6020026020010181815250505050508080615c7390618a42565b915050615afe565b506000615ca36064600d548651615c9291906189a5565b615c9c9190618991565b6001616aa3565b9050600083600081518110615cc857634e487b7160e01b600052603260045260246000fd5b6020026020010151905060005b8451811015615dbe576000805b8651811015615d7357615d43878481518110615d0e57634e487b7160e01b600052603260045260246000fd5b6020026020010151888381518110615d3657634e487b7160e01b600052603260045260246000fd5b6020026020010151613281565b15615d6157615d53600183618979565b9150848210615d6157615d73565b80615d6b81618a42565b915050615ce2565b50838110615dab57858281518110615d9b57634e487b7160e01b600052603260045260246000fd5b6020026020010151925050615dbe565b5080615db681618a42565b915050615cd5565b50600083600081518110615de257634e487b7160e01b600052603260045260246000fd5b6020026020010151905060005b8451811015615ed1576000805b8651811015615e8657868181518110615e2557634e487b7160e01b600052603260045260246000fd5b6020026020010151878481518110615e4d57634e487b7160e01b600052603260045260246000fd5b60200260200101511415615e7457615e66600183618979565b9150858210615e7457615e86565b80615e7e81618a42565b915050615dfc565b50848110615ebe57858281518110615eae57634e487b7160e01b600052603260045260246000fd5b6020026020010151925050615ed1565b5080615ec981618a42565b915050615def565b506000615edd88611fa0565b905060005b87518110156162e7576000888281518110615f0d57634e487b7160e01b600052603260045260246000fd5b60209081029190910181015160008c8152601b835260408082206001600160a01b0384168352845280822054601a85528183208f845290945290205490925060ff16615f58836157a2565b6001600160a01b03831660009081526023602052604090208115616258576001600160a01b038416600090815260236020526040812060028101805460ff19166001908117909155600390910191909155861515148015615fb95750826001145b80615fce575085158015615fce575082600114155b156161ba57603a546040516308c0a84360e11b81526000916001600160a01b031690631181508690616004908890600401617794565b60206040518083038186803b15801561601c57600080fd5b505afa158015616030573d6000803e3d6000fd5b505050506040513d601f19601f8201168201806040525081019061605491906172a1565b603854600c54604051630db6cc8560e11b81529293506001600160a01b0390911691631b6d990a9161608a918590600401618819565b602060405180830381600087803b1580156160a457600080fd5b505af11580156160b8573d6000803e3d6000fd5b505050506040513d601f19601f820116820180604052508101906160dc919061745e565b6160f85760405162461bcd60e51b815260040161104490617f17565b603954600b54604051633832942560e21b81526001600160a01b039092169163e0ca50949161612b918590600401618802565b602060405180830381600087803b15801561614557600080fd5b505af1158015616159573d6000803e3d6000fd5b505050506040513d601f19601f8201168201806040525081019061617d919061745e565b6161995760405162461bcd60e51b815260040161104490617d7c565b60018260070160008282546161ae9190618979565b909155506161d5915050565b60018160080160008282546161cf9190618979565b90915550505b600581015460ff1615616253576161eb846158fa565b15801561620257506005810154610100900460ff16155b1561625357602880546001810182556000919091527fe16da923a2d88192e5070f37b4571d58682c0d66212ec634d495f33de3f77ab50180546001600160a01b0319166001600160a01b0386161790555b6162d0565b6005810154610100900460ff168061626e575081155b156162d057600581015460ff161561629e5760058101805460ff1916905561629584616782565b61629e846157a2565b6001600160a01b03841660009081526023602052604081206003018054600192906162ca908490618979565b90915550505b5050505080806162df90618a42565b915050615ee2565b50600088815260306020908152604090912060048101805461ff001916610100179055845161631e92600990920191860190617092565b506000888152603060205260409020600a01829055801561667d576000888152603060205260408120805460019091015490919061635c9083618979565b9050815b818110156165595760008181526024602052604080822060010154603a5491516308c0a84360e11b81526001600160a01b039182169392909116906311815086906163af908590600401617794565b60206040518083038186803b1580156163c757600080fd5b505afa1580156163db573d6000803e3d6000fd5b505050506040513d601f19601f820116820180604052508101906163ff91906172a1565b603854600c54604051630db6cc8560e11b81529293506001600160a01b0390911691631b6d990a91616435918590600401618819565b602060405180830381600087803b15801561644f57600080fd5b505af1158015616463573d6000803e3d6000fd5b505050506040513d601f19601f82011682018060405250810190616487919061745e565b6164a35760405162461bcd60e51b8152600401611044906183e9565b603954600b54604051633832942560e21b81526001600160a01b039092169163e0ca5094916164d6918590600401618802565b602060405180830381600087803b1580156164f057600080fd5b505af1158015616504573d6000803e3d6000fd5b505050506040513d601f19601f82011682018060405250810190616528919061745e565b6165445760405162461bcd60e51b8152600401611044906182ce565b5050808061655190618a42565b915050616360565b5060008a8152603060205260408120600b01805460ff19166001908117909155603280549192909161658c908490618979565b9091555050603b546040516348257dc960e01b81526001600160a01b03909116906348257dc9906165c1908d90600401617761565b600060405180830381600087803b1580156165db57600080fd5b505af19250505080156165ec575060015b61665d573d80801561661a576040519150601f19603f3d011682016040523d82523d6000602084013e61661f565b606091505b507f4b87bbd93ba65ede1e2efeca735d9f7a6720bf7d6db0a8355b17dba5b64e57838160405161664f91906178ab565b60405180910390a150616676565b6001603160008282546166709190618979565b90915550505b50506166b2565b6000888152603060205260408120600b01805460ff1916600217905560338054600192906166ac908490618979565b90915550505b6001603160008282546166c59190618979565b909155505060008881526030602052604081206002015460348054919290916166ef908490618979565b90915550506000888152603060205260408120600301546035805491929091616719908490618979565b909155505060008881526024602052604090819020600181015491516001600160a01b03909216917f43916c3ae75995d24cc89b466ed08e6dba74d325f7957f9b37b05f150e12918e9161676c91617996565b60405180910390a25050505050505050565b3390565b60008060005b6028548110156167f657836001600160a01b0316602882815481106167bd57634e487b7160e01b600052603260045260246000fd5b6000918252602090912001546001600160a01b031614156167e457600191508092506167f6565b806167ee81618a42565b915050616788565b5080156158f5576028805461680d906001906189c4565b8154811061682b57634e487b7160e01b600052603260045260246000fd5b600091825260209091200154602880546001600160a01b03909216918490811061686557634e487b7160e01b600052603260045260246000fd5b9060005260206000200160006101000a8154816001600160a01b0302191690836001600160a01b0316021790555060288054806158d257634e487b7160e01b600052603160045260246000fd5b60005b602a5481101561693d576000602a82815481106168e257634e487b7160e01b600052603260045260246000fd5b60009182526020808320909101546001600160a01b03168083526023909152604090912060058101805461ffff1916905590915061691f82616782565b616928826157a2565b5050808061693590618a42565b9150506168b5565b50611d0c602a60006171a4565b6000616958600160046189c4565b905060006011826004811061697d57634e487b7160e01b600052603260045260246000fd5b6002020154600e5490915061699282426189c4565b1115612a805760005b6169a7600160046189c4565b811015616a285760116169bb826001618979565b600481106169d957634e487b7160e01b600052603260045260246000fd5b60020201601182600481106169fe57634e487b7160e01b600052603260045260246000fd5b82546002919091029190910190815560019182015491015580616a2081618a42565b91505061699b565b504260118360048110616a4b57634e487b7160e01b600052603260045260246000fd5b60020201554260118360048110616a7257634e487b7160e01b600052603260045260246000fd5b60020201600101819055505050565b60006146548284618979565b6000818310616a9c5781614654565b5090919050565b600081831015616a9c5781614654565b600080805b60295481101561364257836001600160a01b031660298281548110616aed57634e487b7160e01b600052603260045260246000fd5b6000918252602090912001546001600160a01b03161415616b115760019150613642565b80616b1b81618a42565b915050616ab8565b600080546001600160a01b038381166001600160a01b0319831681178455604051919092169283917f8be0079c531659141344cd1fd0a4f28419497f9722a3daafe3b4186f6b6457e09190a35050565b805160609060005b81811015616bc15780848281518110616ba457634e487b7160e01b600052603260045260246000fd5b602090810291909101015280616bb981618a42565b915050616b7b565b509192915050565b60606000825111616bd957600080fd5b81518060005b81811015616d5457600083616bf261333a565b878481518110616c1257634e487b7160e01b600052603260045260246000fd5b6020026020010151604051602001616c2b929190617786565b6040516020818303038152906040528051906020012060001c616c4e9190618a5d565b616c59906001618979565b9050600086616c696001846189c4565b81518110616c8757634e487b7160e01b600052603260045260246000fd5b6020026020010151905086600186616c9f91906189c4565b81518110616cbd57634e487b7160e01b600052603260045260246000fd5b602002602001015187600184616cd391906189c4565b81518110616cf157634e487b7160e01b600052603260045260246000fd5b60209081029190910101528087616d096001886189c4565b81518110616d2757634e487b7160e01b600052603260045260246000fd5b6020908102919091010152616d3d6001866189c4565b945050508080616d4c90618a42565b915050616bdf565b50929392505050565b6001600160a01b03811660009081526023602052604081206009018054909190616d89906001906189c4565b90506000828281548110616dad57634e487b7160e01b600052603260045260246000fd5b9060005260206000209060020201600001549050600e548142616dd091906189c4565b1115616ee45760005b8354616de7906001906189c4565b811015616e765783616dfa826001618979565b81548110616e1857634e487b7160e01b600052603260045260246000fd5b9060005260206000209060020201848281548110616e4657634e487b7160e01b600052603260045260246000fd5b60009182526020909120825460029092020190815560019182015491015580616e6e81618a42565b915050616dd9565b5042838381548110616e9857634e487b7160e01b600052603260045260246000fd5b90600052602060002090600202016000018190555042838381548110616ece57634e487b7160e01b600052603260045260246000fd5b9060005260206000209060020201600101819055505b50505050565b6037546040516304ada21f60e21b81526001600160a01b03909116906312b6887c90616f1c9085908590600401618802565b602060405180830381600087803b158015616f3657600080fd5b505af1158015616f4a573d6000803e3d6000fd5b505050506040513d601f19601f82011682018060405250810190616f6e919061745e565b616f8a5760405162461bcd60e51b815260040161104490617dcb565b6001600160a01b03811660009081526026602052604081208054849290616fb2908490618979565b92505081905550806001600160a01b03167f5aa5d56140767016c877a5333ac3e1ad31a09051098a8fdf7297c4b64530a94283604051614d0f9190617761565b508054616ffe90618a07565b6000825580601f1061701057506150f2565b601f0160209004906000526020600020908101906150f291906171be565b6040518060e001604052806060815260200160006001600160a01b03168152602001600081526020016000815260200160608152602001606081526020016000600381111561708d57634e487b7160e01b600052602160045260246000fd5b905290565b82805461709e90618a07565b90600052602060002090601f0160209004810192826170c05760008555617106565b82601f106170d957805160ff1916838001178555617106565b82800160010185558215617106579182015b828111156171065782518255916020019190600101906170eb565b506171129291506171be565b5090565b604051806101c00160405280600081526020016000815260200160008152602001600081526020016000151581526020016000151581526020016000151581526020016000815260200160008152602001600081526020016000815260200160608152602001600081526020016000600381111561708d57634e487b7160e01b600052602160045260246000fd5b50805460008255906000526020600020908101906150f291905b5b8082111561711257600081556001016171bf565b60008083601f8401126171e4578182fd5b5081356001600160401b038111156171fa578182fd5b602083019150836020808302850101111561721457600080fd5b9250929050565b600082601f83011261722b578081fd5b81356001600160401b0381111561724457617244618a9d565b617257601f8201601f1916602001618921565b81815284602083860101111561726b578283fd5b816020850160208301379081016020019190915292915050565b600060208284031215617296578081fd5b813561465481618ab3565b6000602082840312156172b2578081fd5b815161465481618ab3565b600080604083850312156172cf578081fd5b82356172da81618ab3565b946020939093013593505050565b6000806000806000608086880312156172ff578081fd5b85356001600160401b0380821115617315578283fd5b818801915088601f830112617328578283fd5b8135602061733d6173388361894a565b618921565b82815281810190858301875b85811015617372576173608f8684358b010161721b565b84529284019290840190600101617349565b50909a5050508901359250508082111561738a578283fd5b61739689838a016171d3565b90965094506040880135935060608801359150808211156173b5578283fd5b506173c28882890161721b565b9150509295509295909350565b600060208083850312156173e1578182fd5b82356001600160401b038111156173f6578283fd5b8301601f81018513617406578283fd5b80356174146173388261894a565b8181528381019083850185840285018601891015617430578687fd5b8694505b83851015617452578035835260019490940193918501918501617434565b50979650505050505050565b60006020828403121561746f578081fd5b81518015158114614654578182fd5b600080600060408486031215617492578283fd5b83356001600160401b03808211156174a8578485fd5b818601915086601f8301126174bb578485fd5b8135818111156174c9578586fd5b8760208285010111156174da578586fd5b6020928301989097509590910135949350505050565b60008060408385031215617502578182fd5b82356001600160401b0380821115617518578384fd5b6175248683870161721b565b93506020850135915080821115617539578283fd5b506175468582860161721b565b9150509250929050565b600060208284031215617561578081fd5b5035919050565b600060208284031215611d84578081fd5b6000806040838503121561758b578081fd5b82359150602083013561759d81618ab3565b809150509250929050565b600080600080600060a086880312156175bf578283fd5b853594506020860135935060408601356001600160401b03808211156175e3578485fd5b6175ef89838a0161721b565b94506060880135935060808801359150808211156173b5578283fd5b6000806040838503121561761d578182fd5b50508035926020909101359150565b60008060008060808587031215617641578182fd5b8435935060208501359250604085013561765a81618ab3565b9396929550929360600135925050565b60008060006060848603121561767e578081fd5b505081359360208301359350604090920135919050565b15159052565b600081518084526176b38160208601602086016189db565b601f01601f19169290920160200192915050565b600481106176e557634e487b7160e01b600052602160045260246000fd5b9052565b600a8152690c6dedadad2e890c2e6d60b31b602082015260400190565b60098152686e756d546f6b656e7360b81b602082015260400190565b60609190911b6bffffffffffffffffffffffff1916815260140190565b60609290921b6bffffffffffffffffffffffff19168252601482015260340190565b90815260200190565b6000825161777c8184602087016189db565b9190910192915050565b918252602082015260400190565b6001600160a01b0391909116815260200190565b6001600160a01b039a909a168a5260208a0198909852951515604089015260608801949094526080870192909252151560a0860152151560c085015260e08401526101008301526101208201526101400190565b6000602080830181845280855180835260408601915060408482028701019250838701855b8281101561784f57603f1988860301845261783d85835161769b565b94509285019290850190600101617821565b5092979650505050505050565b6020808252825182820181905260009190848201906040850190845b8181101561789457835183529284019291840191600101617878565b50909695505050505050565b901515815260200190565b600060208252614654602083018461769b565b6000604082528360408301528385606084013780606085840101526060601f19601f8601168301019050826020830152949350505050565b600060e0825261790960e083018a61769b565b6001600160a01b038916602084015260408301889052606083018790528281036080840152617938818761769b565b905082810360a084015261794c818661769b565b91505061795c60c08301846176c7565b98975050505050505050565b60006040825261797b604083018561769b565b828103602084015261798d818561769b565b95945050505050565b60006020808352818454836002820490506001808316806179b857607f831692505b8583108114156179d657634e487b7160e01b87526022600452602487fd5b6179e283878a01617761565b8180156179f65760018114617a0757617a31565b60ff19861682528782019650617a31565b617a108b61896d565b895b86811015617a2b57815484820152908501908901617a12565b83019750505b50949998505050505050505050565b6020808252601c908201527f576f726b657220697320616c7265616479207265676973746572656400000000604082015260600190565b60208082526031908201527f676976656e204461746142617463682073686f756c6420626520415050524f5660408201527011510b08185b99081a5d081a5cc81b9bdd607a1b606082015260800190565b60208082526041908201527f576f726b657220686173206e6f7420656e6f75676820285f6e756d546f6b656e60408201527f732920696e206869732053706f745374616b6564546f6b656e42616c616e63656060820152600160fd1b608082015260a00190565b60208082526025908201527f72656365697665722072656a6563746564205f7265747269657665534675656c6040820152640818d85b1b60da1b606082015260800190565b6020808252602f908201527f636f6d6d697420706572696f64206e6565647320746f206265206f70656e206660408201526e1bdc881d1a1a5cc818985d18da1259608a1b606082015260800190565b6020808252605c908201527f4e6f74207468652073616d6520766f7465207468616e2077686174207761732060408201527f636f6d6d697465642c20696d706f737369626c6520746f206d6174636820776960608201527f746820676976656e205f73616c742026205f766f74654f7074696f6e00000000608082015260a00190565b60208082526026908201527f4f776e61626c653a206e6577206f776e657220697320746865207a65726f206160408201526564647265737360d01b606082015260800190565b60208082526029908201527f6b206f72204e20617265206e6f74204f4b20647572696e672072616e646f6d2060408201526839b2b632b1ba34b7b760b91b606082015260800190565b6020808252602a908201527f4661696c20647572696e6720616c6c6f636174696f6e3a206e6f7420656e6f75604082015269676820776f726b65727360b01b606082015260800190565b60208082526038908201527f55736572206e6565647320746f20626520616c6c6f636174656420746f20746860408201527f697320626174636820746f20636f6d6d6974206f6e2069740000000000000000606082015260800190565b6020808252602f908201527f636f756c64206e6f742072657761726420746f6b656e20696e2054726967676560408201526e3921b432b1b5a9b837ba161018973160891b606082015260800190565b6020808252603f908201527f436f756c64206e6f74207265717565737420656e6f75676820616c6c6f63617460408201527f6564207374616b652c2072657175657374416c6c6f63617465645374616b6500606082015260800190565b6020808252602f908201527f5573657220686173206e6f7420636f6d6d69746564206265666f72652c20746860408201526e1d5cc818d85b89dd081c995d99585b608a1b606082015260800190565b6020808252602a908201527f53706f7474696e67206973206e6f742063757272656e746c7920656e61626c656040820152693210313c9027bbb732b960b11b606082015260800190565b60208082526036908201527f476c6f62616c206c696d69743a206578636565646564206d61782064617461206040820152753832b9103437bab916103932ba393c903630ba32b91760511b606082015260800190565b6020808252602d908201527f636f756c64206e6f74207265776172642052455020696e20547269676765724360408201526c6865636b53706f742c20312e6160981b606082015260800190565b60208082526039908201527f646c6c4d61703a20646f6573206e6f7420636f696e7461696e205f446174614260408201527f61746368496420666f7220746865206d73672073656e64657200000000000000606082015260800190565b6020808252601490820152733737ba1030903b30b634b2103837b9b4ba34b7b760611b604082015260600190565b6020808252603a908201527f576f726b65722063757272656e746c792068617320776f726b20616c6c6f636160408201527f7465642c2063616e277420626520756e72656769737465726564000000000000606082015260800190565b6020808252603b908201527f43616e277420616c6c6f6361746520776f726b2c207468652063757272656e7460408201527f20626174636820697320616c726561647920616c6c6f63617465640000000000606082015260800190565b6020808252602c908201527f576f726b6572206973206e6f74207265676973746572656420736f2063616e2760408201526b3a103ab73932b3b4b9ba32b960a11b606082015260800190565b6020808252818101527f4f776e61626c653a2063616c6c6572206973206e6f7420746865206f776e6572604082015260600190565b6020808252603a908201527f5f446174614261746368496420686173206e6f7420656e6465642c206f72206e60408201527f6f7420657665727920766f74657273206861766520766f746564000000000000606082015260800190565b60208082526036908201527f43616e277420616c6c6f6361746520776f726b2c207468652063757272656e74604082015275206261746368206973206e6f7420636f6d706c65746560501b606082015260800190565b60208082526026908201527f52657665616c20706572696f64206e6f74206f70656e20666f7220746869732060408201526511185d18525160d21b606082015260800190565b60208082526027908201527f617661696c61626c65546f6b656e732073686f756c64206265203e3d205f6e756040820152666d546f6b656e7360c81b606082015260800190565b60208082526017908201527f5f4461746142617463684964206d757374206578697374000000000000000000604082015260600190565b6020808252601390820152720c081059191c995cdcc8139bdd0815985b1a59606a1b604082015260600190565b6020808252602f908201527f636f756c64206e6f742072657761726420746f6b656e20696e2054726967676560408201526e3921b432b1b5a9b837ba161019173160891b606082015260800190565b60208082526021908201527f5f446174614261746368496420697320616c72656164792076616c69646174656040820152601960fa1b606082015260800190565b60208082526029908201527f557365722068617320616c726561647920636f6d6d6974656420746f207468696040820152681cc818985d18da125960ba1b606082015260800190565b60208082526022908201527f4d6178696d756d207265676973746572656420776f726b65727320616c726561604082015261647960f01b606082015260800190565b6020808252602d908201527f636f756c64206e6f74207265776172642052455020696e20547269676765724360408201526c6865636b53706f742c20322e6160981b606082015260800190565b6020808252606c908201527f5573657220686173206e6f7420766f746564206d616e792074696d657320696e60408201527f206120726f7720616e64206e6565647320746f2077616974204e4f564f54455f60608201527f524547495354524154494f4e5f574149545f4455524154494f4e20746f20726560808201526b33b4b9ba32b91030b3b0b4b760a11b60a082015260c00190565b6020808252603b908201527f436f756c64206e6f74207769746864726177566f74696e67526967687473207460408201527f68726f7567682050726f78795374616b654465616c6c6f636174650000000000606082015260800190565b60208082526034908201527f55736572206c696d69743a206578636565646564206d6178206461746120706560408201527339103437bab916103932ba393c903630ba32b91760611b606082015260800190565b6020808252600f908201526e11185d18481b5d5cdd08195e1a5cdd608a1b604082015260600190565b6020808252602c908201527f557365722068617320616c72656164792072657665616c65642c20746875732060408201526b18d85b89dd081c995d99585b60a21b606082015260800190565b60006020825282516020830152602083015160408301526040830151606083015260608301516080830152608083015161863160a0840182617695565b5060a083015161864460c0840182617695565b5060c083015161865760e0840182617695565b5060e0830151610100838101919091528301516101208084019190915283015161014080840191909152830151610160808401919091528301516101c06101808085018290526186ab6101e086018461769b565b908601516101a08681019190915286015190925061472c828601826176c7565b600083825282602083015260606040830152614af9606083016176e9565b600084825283602083015260806040830152618707608083016176e9565b9050826060830152949350505050565b600083825282602083015260606040830152614af960608301617706565b60008482528360208301526080604083015261870760808301617706565b93845260208401929092526040830152606082015260800190565b600060208252825160e0602084015261878b61010084018261769b565b905060018060a01b03602085015116604084015260408401516060840152606084015160808401526080840151601f19808584030160a08601526187cf838361769b565b925060a08601519150808584030160c0860152506187ed828261769b565b91505060c084015161313360e08501826176c7565b9182526001600160a01b0316602082015260400190565b9182526001600160a01b031660208201526000604082015260600190565b9283526020830191909152604082015260600190565b60008f82528e60208301528d60408301528c60608301528b151560808301528a151560a083015261888160c083018b617695565b8860e08301528761010083015286610120830152856101408301526101c06101608301526188b36101c083018661769b565b9050836101808301526188ca6101a08301846176c7565b9f9e505050505050505050505050505050565b6000808335601e198436030181126188f3578283fd5b8301803591506001600160401b0382111561890c578283fd5b60200191503681900382131561721457600080fd5b6040518181016001600160401b038111828210171561894257618942618a9d565b604052919050565b60006001600160401b0382111561896357618963618a9d565b5060209081020190565b60009081526020902090565b6000821982111561898c5761898c618a71565b500190565b6000826189a0576189a0618a87565b500490565b60008160001904831182151516156189bf576189bf618a71565b500290565b6000828210156189d6576189d6618a71565b500390565b60005b838110156189f65781810151838201526020016189de565b83811115616ee45750506000910152565b600281046001821680618a1b57607f821691505b60208210811415618a3c57634e487b7160e01b600052602260045260246000fd5b50919050565b6000600019821415618a5657618a56618a71565b5060010190565b600082618a6c57618a6c618a87565b500690565b634e487b7160e01b600052601160045260246000fd5b634e487b7160e01b600052601260045260246000fd5b634e487b7160e01b600052604160045260246000fd5b6001600160a01b03811681146150f257600080fdfea26469706673582212207115cc123b6f4365ee02205b7c05e2e65ff10cc5b5e242341d2485c96618aefb64736f6c63430008000033",
  "linkReferences": {
    "contracts/worksystems/DataSpotting.sol": {
      "AttributeStore": [
        {
          "length": 20,
          "start": 17970
        },
        {
          "length": 20,
          "start": 18076
        },
        {
          "length": 20,
          "start": 18495
        },
        {
          "length": 20,
          "start": 18971
        }
      ],
      "DLL": [
        {
          "length": 20,
          "start": 5112
        },
        {
          "length": 20,
          "start": 8359
        },
        {
          "length": 20,
          "start": 12733
        },
        {
          "length": 20,
          "start": 12913
        },
        {
          "length": 20,
          "start": 17490
        },
        {
          "length": 20,
          "start": 17652
        },
        {
          "length": 20,
          "start": 17847
        }
      ]
    }
  },
  "deployedLinkReferences": {
    "contracts/worksystems/DataSpotting.sol": {
      "AttributeStore": [
        {
          "length": 20,
          "start": 17334
        },
        {
          "length": 20,
          "start": 17440
        },
        {
          "length": 20,
          "start": 17859
        },
        {
          "length": 20,
          "start": 18335
        }
      ],
      "DLL": [
        {
          "length": 20,
          "start": 4476
        },
        {
          "length": 20,
          "start": 7723
        },
        {
          "length": 20,
          "start": 12097
        },
        {
          "length": 20,
          "start": 12277
        },
        {
          "length": 20,
          "start": 16854
        },
        {
          "length": 20,
          "start": 17016
        },
        {
          "length": 20,
          "start": 17211
        }
      ]
    }
  }
}