{
  "_format": "hh-sol-artifact-1",
  "contractName": "DataSpotting",
  "sourceName": "contracts/worksystems/DataSpotting.sol",
  "abi": [
    {
      "inputs": [
        {
          "internalType": "address",
          "name": "EXDT_token",
          "type": "address"
        }
      ],
      "stateMutability": "nonpayable",
      "type": "constructor"
    },
    {
      "anonymous": false,
      "inputs": [
        {
          "indexed": false,
          "internalType": "bytes",
          "name": "bytesFailure",
          "type": "bytes"
        }
      ],
      "name": "BytesFailure",
      "type": "event"
    },
    {
      "anonymous": false,
      "inputs": [
        {
          "indexed": true,
          "internalType": "address",
          "name": "previousOwner",
          "type": "address"
        },
        {
          "indexed": true,
          "internalType": "address",
          "name": "newOwner",
          "type": "address"
        }
      ],
      "name": "OwnershipTransferred",
      "type": "event"
    },
    {
      "anonymous": false,
      "inputs": [
        {
          "indexed": true,
          "internalType": "uint256",
          "name": "epochNumber",
          "type": "uint256"
        }
      ],
      "name": "_NewEpoch",
      "type": "event"
    },
    {
      "anonymous": false,
      "inputs": [
        {
          "indexed": false,
          "internalType": "string",
          "name": "hash",
          "type": "string"
        },
        {
          "indexed": true,
          "internalType": "address",
          "name": "creator",
          "type": "address"
        }
      ],
      "name": "_SpotAccepted",
      "type": "event"
    },
    {
      "anonymous": false,
      "inputs": [
        {
          "indexed": true,
          "internalType": "uint256",
          "name": "DataID",
          "type": "uint256"
        },
        {
          "indexed": false,
          "internalType": "uint256",
          "name": "numTokens",
          "type": "uint256"
        },
        {
          "indexed": true,
          "internalType": "address",
          "name": "voter",
          "type": "address"
        }
      ],
      "name": "_SpotCheckCommitted",
      "type": "event"
    },
    {
      "anonymous": false,
      "inputs": [
        {
          "indexed": true,
          "internalType": "uint256",
          "name": "DataID",
          "type": "uint256"
        },
        {
          "indexed": false,
          "internalType": "uint256",
          "name": "numTokens",
          "type": "uint256"
        },
        {
          "indexed": false,
          "internalType": "uint256",
          "name": "votesFor",
          "type": "uint256"
        },
        {
          "indexed": false,
          "internalType": "uint256",
          "name": "votesAgainst",
          "type": "uint256"
        },
        {
          "indexed": true,
          "internalType": "uint256",
          "name": "choice",
          "type": "uint256"
        },
        {
          "indexed": true,
          "internalType": "address",
          "name": "voter",
          "type": "address"
        }
      ],
      "name": "_SpotCheckRevealed",
      "type": "event"
    },
    {
      "anonymous": false,
      "inputs": [
        {
          "indexed": true,
          "internalType": "uint256",
          "name": "DataID",
          "type": "uint256"
        },
        {
          "indexed": false,
          "internalType": "string",
          "name": "file_hash",
          "type": "string"
        },
        {
          "indexed": false,
          "internalType": "string",
          "name": "URL_domain",
          "type": "string"
        },
        {
          "indexed": true,
          "internalType": "address",
          "name": "sender",
          "type": "address"
        }
      ],
      "name": "_SpotSubmitted",
      "type": "event"
    },
    {
      "anonymous": false,
      "inputs": [
        {
          "indexed": true,
          "internalType": "uint256",
          "name": "DataID",
          "type": "uint256"
        },
        {
          "indexed": true,
          "internalType": "address",
          "name": "voter",
          "type": "address"
        }
      ],
      "name": "_TokensRescued",
      "type": "event"
    },
    {
      "anonymous": false,
      "inputs": [
        {
          "indexed": false,
          "internalType": "uint256",
          "name": "numTokens",
          "type": "uint256"
        },
        {
          "indexed": true,
          "internalType": "address",
          "name": "voter",
          "type": "address"
        }
      ],
      "name": "_VotingRightsGranted",
      "type": "event"
    },
    {
      "anonymous": false,
      "inputs": [
        {
          "indexed": false,
          "internalType": "uint256",
          "name": "numTokens",
          "type": "uint256"
        },
        {
          "indexed": true,
          "internalType": "address",
          "name": "voter",
          "type": "address"
        }
      ],
      "name": "_VotingRightsWithdrawn",
      "type": "event"
    },
    {
      "anonymous": false,
      "inputs": [
        {
          "indexed": true,
          "internalType": "uint256",
          "name": "batchID",
          "type": "uint256"
        },
        {
          "indexed": false,
          "internalType": "address",
          "name": "worker",
          "type": "address"
        }
      ],
      "name": "_WorkAllocated",
      "type": "event"
    },
    {
      "anonymous": false,
      "inputs": [
        {
          "indexed": true,
          "internalType": "address",
          "name": "worker",
          "type": "address"
        },
        {
          "indexed": false,
          "internalType": "uint256",
          "name": "timestamp",
          "type": "uint256"
        }
      ],
      "name": "_WorkerRegistered",
      "type": "event"
    },
    {
      "anonymous": false,
      "inputs": [
        {
          "indexed": true,
          "internalType": "address",
          "name": "worker",
          "type": "address"
        },
        {
          "indexed": false,
          "internalType": "uint256",
          "name": "timestamp",
          "type": "uint256"
        }
      ],
      "name": "_WorkerUnregistered",
      "type": "event"
    },
    {
      "inputs": [],
      "name": "AcceptedBatchsCounter",
      "outputs": [
        {
          "internalType": "uint256",
          "name": "",
          "type": "uint256"
        }
      ],
      "stateMutability": "view",
      "type": "function"
    },
    {
      "inputs": [],
      "name": "AddressManager",
      "outputs": [
        {
          "internalType": "contract IAddressManager",
          "name": "",
          "type": "address"
        }
      ],
      "stateMutability": "view",
      "type": "function"
    },
    {
      "inputs": [],
      "name": "AllTxsCounter",
      "outputs": [
        {
          "internalType": "uint256",
          "name": "",
          "type": "uint256"
        }
      ],
      "stateMutability": "view",
      "type": "function"
    },
    {
      "inputs": [],
      "name": "AllocateWork",
      "outputs": [],
      "stateMutability": "nonpayable",
      "type": "function"
    },
    {
      "inputs": [],
      "name": "AllocatedBatchCursor",
      "outputs": [
        {
          "internalType": "uint256",
          "name": "",
          "type": "uint256"
        }
      ],
      "stateMutability": "view",
      "type": "function"
    },
    {
      "inputs": [],
      "name": "AmIRegistered",
      "outputs": [
        {
          "internalType": "bool",
          "name": "passed",
          "type": "bool"
        }
      ],
      "stateMutability": "view",
      "type": "function"
    },
    {
      "inputs": [
        {
          "internalType": "string",
          "name": "_a",
          "type": "string"
        },
        {
          "internalType": "string",
          "name": "_b",
          "type": "string"
        }
      ],
      "name": "AreStringsEqual",
      "outputs": [
        {
          "internalType": "bool",
          "name": "",
          "type": "bool"
        }
      ],
      "stateMutability": "pure",
      "type": "function"
    },
    {
      "inputs": [],
      "name": "BatchCheckingCursor",
      "outputs": [
        {
          "internalType": "uint256",
          "name": "",
          "type": "uint256"
        }
      ],
      "stateMutability": "view",
      "type": "function"
    },
    {
      "inputs": [],
      "name": "COMMIT_ROUND_DURATION",
      "outputs": [
        {
          "internalType": "uint256",
          "name": "",
          "type": "uint256"
        }
      ],
      "stateMutability": "view",
      "type": "function"
    },
    {
      "inputs": [],
      "name": "CONSENSUS_WORKER_SIZE",
      "outputs": [
        {
          "internalType": "uint256",
          "name": "",
          "type": "uint256"
        }
      ],
      "stateMutability": "view",
      "type": "function"
    },
    {
      "inputs": [],
      "name": "CurrentWorkEpoch",
      "outputs": [
        {
          "internalType": "uint256",
          "name": "",
          "type": "uint256"
        }
      ],
      "stateMutability": "view",
      "type": "function"
    },
    {
      "inputs": [],
      "name": "DATA_BATCH_SIZE",
      "outputs": [
        {
          "internalType": "uint256",
          "name": "",
          "type": "uint256"
        }
      ],
      "stateMutability": "view",
      "type": "function"
    },
    {
      "inputs": [
        {
          "internalType": "uint256",
          "name": "",
          "type": "uint256"
        }
      ],
      "name": "DataBatch",
      "outputs": [
        {
          "internalType": "uint256",
          "name": "start_idx",
          "type": "uint256"
        },
        {
          "internalType": "uint256",
          "name": "counter",
          "type": "uint256"
        },
        {
          "internalType": "uint256",
          "name": "uncommited_workers",
          "type": "uint256"
        },
        {
          "internalType": "uint256",
          "name": "unrevealed_workers",
          "type": "uint256"
        },
        {
          "internalType": "bool",
          "name": "complete",
          "type": "bool"
        },
        {
          "internalType": "bool",
          "name": "checked",
          "type": "bool"
        },
        {
          "internalType": "bool",
          "name": "allocated_to_work",
          "type": "bool"
        },
        {
          "internalType": "uint256",
          "name": "commitEndDate",
          "type": "uint256"
        },
        {
          "internalType": "uint256",
          "name": "revealEndDate",
          "type": "uint256"
        },
        {
          "internalType": "uint256",
          "name": "votesFor",
          "type": "uint256"
        },
        {
          "internalType": "uint256",
          "name": "votesAgainst",
          "type": "uint256"
        },
        {
          "internalType": "string",
          "name": "batchIPFSfile",
          "type": "string"
        },
        {
          "internalType": "uint256",
          "name": "item_count",
          "type": "uint256"
        },
        {
          "internalType": "enum DataSpotting.DataStatus",
          "name": "status",
          "type": "uint8"
        }
      ],
      "stateMutability": "view",
      "type": "function"
    },
    {
      "inputs": [
        {
          "internalType": "uint256",
          "name": "_DataBatchId",
          "type": "uint256"
        }
      ],
      "name": "DataCommitEndDate",
      "outputs": [
        {
          "internalType": "uint256",
          "name": "commitEndDate",
          "type": "uint256"
        }
      ],
      "stateMutability": "view",
      "type": "function"
    },
    {
      "inputs": [
        {
          "internalType": "uint256",
          "name": "_DataBatchId",
          "type": "uint256"
        }
      ],
      "name": "DataEnded",
      "outputs": [
        {
          "internalType": "bool",
          "name": "ended",
          "type": "bool"
        }
      ],
      "stateMutability": "view",
      "type": "function"
    },
    {
      "inputs": [
        {
          "internalType": "uint256",
          "name": "_DataBatchId",
          "type": "uint256"
        }
      ],
      "name": "DataExists",
      "outputs": [
        {
          "internalType": "bool",
          "name": "exists",
          "type": "bool"
        }
      ],
      "stateMutability": "view",
      "type": "function"
    },
    {
      "inputs": [],
      "name": "DataNonce",
      "outputs": [
        {
          "internalType": "uint256",
          "name": "",
          "type": "uint256"
        }
      ],
      "stateMutability": "view",
      "type": "function"
    },
    {
      "inputs": [
        {
          "internalType": "uint256",
          "name": "_DataBatchId",
          "type": "uint256"
        }
      ],
      "name": "DataRevealEndDate",
      "outputs": [
        {
          "internalType": "uint256",
          "name": "revealEndDate",
          "type": "uint256"
        }
      ],
      "stateMutability": "view",
      "type": "function"
    },
    {
      "inputs": [],
      "name": "FormattingSystem",
      "outputs": [
        {
          "internalType": "contract IFormattingSystem",
          "name": "",
          "type": "address"
        }
      ],
      "stateMutability": "view",
      "type": "function"
    },
    {
      "inputs": [
        {
          "internalType": "address",
          "name": "user_",
          "type": "address"
        }
      ],
      "name": "GetCurrentWork",
      "outputs": [
        {
          "internalType": "uint256",
          "name": "",
          "type": "uint256"
        }
      ],
      "stateMutability": "view",
      "type": "function"
    },
    {
      "inputs": [],
      "name": "INTER_ALLOCATION_DURATION",
      "outputs": [
        {
          "internalType": "uint256",
          "name": "",
          "type": "uint256"
        }
      ],
      "stateMutability": "view",
      "type": "function"
    },
    {
      "inputs": [
        {
          "internalType": "address",
          "name": "user_",
          "type": "address"
        }
      ],
      "name": "IsNewWorkAvailable",
      "outputs": [
        {
          "internalType": "bool",
          "name": "",
          "type": "bool"
        }
      ],
      "stateMutability": "view",
      "type": "function"
    },
    {
      "inputs": [],
      "name": "LastAllocationTime",
      "outputs": [
        {
          "internalType": "uint256",
          "name": "",
          "type": "uint256"
        }
      ],
      "stateMutability": "view",
      "type": "function"
    },
    {
      "inputs": [],
      "name": "LastBatchCounter",
      "outputs": [
        {
          "internalType": "uint256",
          "name": "",
          "type": "uint256"
        }
      ],
      "stateMutability": "view",
      "type": "function"
    },
    {
      "inputs": [],
      "name": "MIN_CONSENSUS_WORKER_COUNT",
      "outputs": [
        {
          "internalType": "uint256",
          "name": "",
          "type": "uint256"
        }
      ],
      "stateMutability": "view",
      "type": "function"
    },
    {
      "inputs": [],
      "name": "MIN_REP_Data",
      "outputs": [
        {
          "internalType": "uint256",
          "name": "",
          "type": "uint256"
        }
      ],
      "stateMutability": "view",
      "type": "function"
    },
    {
      "inputs": [],
      "name": "MIN_REP_REVEAL",
      "outputs": [
        {
          "internalType": "uint256",
          "name": "",
          "type": "uint256"
        }
      ],
      "stateMutability": "view",
      "type": "function"
    },
    {
      "inputs": [],
      "name": "MIN_REWARD_Data",
      "outputs": [
        {
          "internalType": "uint256",
          "name": "",
          "type": "uint256"
        }
      ],
      "stateMutability": "view",
      "type": "function"
    },
    {
      "inputs": [],
      "name": "MIN_STAKE",
      "outputs": [
        {
          "internalType": "uint256",
          "name": "",
          "type": "uint256"
        }
      ],
      "stateMutability": "view",
      "type": "function"
    },
    {
      "inputs": [
        {
          "internalType": "address",
          "name": "",
          "type": "address"
        },
        {
          "internalType": "uint256",
          "name": "",
          "type": "uint256"
        }
      ],
      "name": "MasterWorkers",
      "outputs": [
        {
          "internalType": "address",
          "name": "",
          "type": "address"
        }
      ],
      "stateMutability": "view",
      "type": "function"
    },
    {
      "inputs": [],
      "name": "NotCommitedCounter",
      "outputs": [
        {
          "internalType": "uint256",
          "name": "",
          "type": "uint256"
        }
      ],
      "stateMutability": "view",
      "type": "function"
    },
    {
      "inputs": [],
      "name": "NotRevealedCounter",
      "outputs": [
        {
          "internalType": "uint256",
          "name": "",
          "type": "uint256"
        }
      ],
      "stateMutability": "view",
      "type": "function"
    },
    {
      "inputs": [],
      "name": "REVEAL_ROUND_DURATION",
      "outputs": [
        {
          "internalType": "uint256",
          "name": "",
          "type": "uint256"
        }
      ],
      "stateMutability": "view",
      "type": "function"
    },
    {
      "inputs": [],
      "name": "RegisterWorker",
      "outputs": [],
      "stateMutability": "nonpayable",
      "type": "function"
    },
    {
      "inputs": [],
      "name": "RejectedBatchsCounter",
      "outputs": [
        {
          "internalType": "uint256",
          "name": "",
          "type": "uint256"
        }
      ],
      "stateMutability": "view",
      "type": "function"
    },
    {
      "inputs": [],
      "name": "RepManager",
      "outputs": [
        {
          "internalType": "contract IRepManager",
          "name": "",
          "type": "address"
        }
      ],
      "stateMutability": "view",
      "type": "function"
    },
    {
      "inputs": [],
      "name": "RewardManager",
      "outputs": [
        {
          "internalType": "contract IRewardManager",
          "name": "",
          "type": "address"
        }
      ],
      "stateMutability": "view",
      "type": "function"
    },
    {
      "inputs": [
        {
          "internalType": "string[]",
          "name": "file_hashs",
          "type": "string[]"
        },
        {
          "internalType": "string[]",
          "name": "URL_domains",
          "type": "string[]"
        },
        {
          "internalType": "uint256",
          "name": "item_count_",
          "type": "uint256"
        },
        {
          "internalType": "string",
          "name": "extra_",
          "type": "string"
        }
      ],
      "name": "SpotData",
      "outputs": [
        {
          "internalType": "uint256",
          "name": "Dataid_",
          "type": "uint256"
        }
      ],
      "stateMutability": "nonpayable",
      "type": "function"
    },
    {
      "inputs": [
        {
          "internalType": "address",
          "name": "",
          "type": "address"
        }
      ],
      "name": "SpotStakedTokenBalance",
      "outputs": [
        {
          "internalType": "uint256",
          "name": "",
          "type": "uint256"
        }
      ],
      "stateMutability": "view",
      "type": "function"
    },
    {
      "inputs": [
        {
          "internalType": "uint256",
          "name": "",
          "type": "uint256"
        }
      ],
      "name": "SpotsMapping",
      "outputs": [
        {
          "internalType": "string",
          "name": "ipfs_hash",
          "type": "string"
        },
        {
          "internalType": "address",
          "name": "author",
          "type": "address"
        },
        {
          "internalType": "uint256",
          "name": "timestamp",
          "type": "uint256"
        },
        {
          "internalType": "uint256",
          "name": "item_count",
          "type": "uint256"
        },
        {
          "internalType": "string",
          "name": "URL_domain",
          "type": "string"
        },
        {
          "internalType": "string",
          "name": "extra",
          "type": "string"
        },
        {
          "internalType": "enum DataSpotting.DataStatus",
          "name": "status",
          "type": "uint8"
        }
      ],
      "stateMutability": "view",
      "type": "function"
    },
    {
      "inputs": [],
      "name": "StakeManager",
      "outputs": [
        {
          "internalType": "contract IStakeManager",
          "name": "",
          "type": "address"
        }
      ],
      "stateMutability": "view",
      "type": "function"
    },
    {
      "inputs": [],
      "name": "TriggerNextEpoch",
      "outputs": [],
      "stateMutability": "nonpayable",
      "type": "function"
    },
    {
      "inputs": [],
      "name": "UnregisterWorker",
      "outputs": [],
      "stateMutability": "nonpayable",
      "type": "function"
    },
    {
      "inputs": [
        {
          "internalType": "uint256",
          "name": "",
          "type": "uint256"
        },
        {
          "internalType": "address",
          "name": "",
          "type": "address"
        }
      ],
      "name": "UserBatchCounts",
      "outputs": [
        {
          "internalType": "uint256",
          "name": "",
          "type": "uint256"
        }
      ],
      "stateMutability": "view",
      "type": "function"
    },
    {
      "inputs": [
        {
          "internalType": "address",
          "name": "",
          "type": "address"
        },
        {
          "internalType": "uint256",
          "name": "",
          "type": "uint256"
        }
      ],
      "name": "UserChecksCommits",
      "outputs": [
        {
          "internalType": "bool",
          "name": "",
          "type": "bool"
        }
      ],
      "stateMutability": "view",
      "type": "function"
    },
    {
      "inputs": [
        {
          "internalType": "address",
          "name": "",
          "type": "address"
        },
        {
          "internalType": "uint256",
          "name": "",
          "type": "uint256"
        }
      ],
      "name": "UserChecksReveals",
      "outputs": [
        {
          "internalType": "bool",
          "name": "",
          "type": "bool"
        }
      ],
      "stateMutability": "view",
      "type": "function"
    },
    {
      "inputs": [
        {
          "internalType": "uint256",
          "name": "",
          "type": "uint256"
        },
        {
          "internalType": "address",
          "name": "",
          "type": "address"
        }
      ],
      "name": "UserNewFiles",
      "outputs": [
        {
          "internalType": "string",
          "name": "",
          "type": "string"
        }
      ],
      "stateMutability": "view",
      "type": "function"
    },
    {
      "inputs": [
        {
          "internalType": "uint256",
          "name": "",
          "type": "uint256"
        },
        {
          "internalType": "address",
          "name": "",
          "type": "address"
        }
      ],
      "name": "UserVotes",
      "outputs": [
        {
          "internalType": "uint256",
          "name": "",
          "type": "uint256"
        }
      ],
      "stateMutability": "view",
      "type": "function"
    },
    {
      "inputs": [],
      "name": "VOTE_QUORUM",
      "outputs": [
        {
          "internalType": "uint256",
          "name": "",
          "type": "uint256"
        }
      ],
      "stateMutability": "view",
      "type": "function"
    },
    {
      "inputs": [
        {
          "internalType": "uint256",
          "name": "",
          "type": "uint256"
        },
        {
          "internalType": "uint256",
          "name": "",
          "type": "uint256"
        }
      ],
      "name": "WorkersPerBatch",
      "outputs": [
        {
          "internalType": "address",
          "name": "",
          "type": "address"
        }
      ],
      "stateMutability": "view",
      "type": "function"
    },
    {
      "inputs": [
        {
          "internalType": "address",
          "name": "",
          "type": "address"
        }
      ],
      "name": "WorkersState",
      "outputs": [
        {
          "internalType": "address",
          "name": "worker_address",
          "type": "address"
        },
        {
          "internalType": "address",
          "name": "master_address",
          "type": "address"
        },
        {
          "internalType": "uint256",
          "name": "allocated_work_batch",
          "type": "uint256"
        },
        {
          "internalType": "bool",
          "name": "has_completed_work",
          "type": "bool"
        },
        {
          "internalType": "uint256",
          "name": "last_worked_round",
          "type": "uint256"
        },
        {
          "internalType": "uint256",
          "name": "last_interaction_date",
          "type": "uint256"
        },
        {
          "internalType": "string",
          "name": "extra",
          "type": "string"
        },
        {
          "internalType": "bool",
          "name": "registered",
          "type": "bool"
        },
        {
          "internalType": "bool",
          "name": "unregistration_request",
          "type": "bool"
        },
        {
          "internalType": "uint256",
          "name": "registration_date",
          "type": "uint256"
        }
      ],
      "stateMutability": "view",
      "type": "function"
    },
    {
      "inputs": [
        {
          "internalType": "address",
          "name": "_user",
          "type": "address"
        },
        {
          "internalType": "uint256",
          "name": "_DataBatchId",
          "type": "uint256"
        }
      ],
      "name": "attrUUID",
      "outputs": [
        {
          "internalType": "bytes32",
          "name": "UUID",
          "type": "bytes32"
        }
      ],
      "stateMutability": "pure",
      "type": "function"
    },
    {
      "inputs": [
        {
          "internalType": "uint256",
          "name": "",
          "type": "uint256"
        }
      ],
      "name": "availableWorkers",
      "outputs": [
        {
          "internalType": "address",
          "name": "",
          "type": "address"
        }
      ],
      "stateMutability": "view",
      "type": "function"
    },
    {
      "inputs": [
        {
          "internalType": "uint256",
          "name": "",
          "type": "uint256"
        }
      ],
      "name": "busyWorkers",
      "outputs": [
        {
          "internalType": "address",
          "name": "",
          "type": "address"
        }
      ],
      "stateMutability": "view",
      "type": "function"
    },
    {
      "inputs": [
        {
          "internalType": "uint256",
          "name": "_DataBatchId",
          "type": "uint256"
        }
      ],
      "name": "commitPeriodActive",
      "outputs": [
        {
          "internalType": "bool",
          "name": "active",
          "type": "bool"
        }
      ],
      "stateMutability": "view",
      "type": "function"
    },
    {
      "inputs": [
        {
          "internalType": "uint256",
          "name": "_DataBatchId",
          "type": "uint256"
        },
        {
          "internalType": "bytes32",
          "name": "_secretHash",
          "type": "bytes32"
        },
        {
          "internalType": "string",
          "name": "newIPFSHash",
          "type": "string"
        },
        {
          "internalType": "uint256",
          "name": "_BatchCount",
          "type": "uint256"
        }
      ],
      "name": "commitSpotCheck",
      "outputs": [],
      "stateMutability": "nonpayable",
      "type": "function"
    },
    {
      "inputs": [
        {
          "internalType": "uint256",
          "name": "_DataId",
          "type": "uint256"
        }
      ],
      "name": "deleteData",
      "outputs": [],
      "stateMutability": "nonpayable",
      "type": "function"
    },
    {
      "inputs": [
        {
          "internalType": "uint256",
          "name": "_BatchId",
          "type": "uint256"
        }
      ],
      "name": "deleteDataBatch",
      "outputs": [],
      "stateMutability": "nonpayable",
      "type": "function"
    },
    {
      "inputs": [
        {
          "internalType": "address",
          "name": "_voter",
          "type": "address"
        },
        {
          "internalType": "uint256",
          "name": "_DataBatchId",
          "type": "uint256"
        }
      ],
      "name": "didCommit",
      "outputs": [
        {
          "internalType": "bool",
          "name": "committed",
          "type": "bool"
        }
      ],
      "stateMutability": "view",
      "type": "function"
    },
    {
      "inputs": [
        {
          "internalType": "address",
          "name": "_voter",
          "type": "address"
        },
        {
          "internalType": "uint256",
          "name": "_DataBatchId",
          "type": "uint256"
        }
      ],
      "name": "didReveal",
      "outputs": [
        {
          "internalType": "bool",
          "name": "revealed",
          "type": "bool"
        }
      ],
      "stateMutability": "view",
      "type": "function"
    },
    {
      "inputs": [
        {
          "internalType": "uint256",
          "name": "_k",
          "type": "uint256"
        },
        {
          "internalType": "uint256",
          "name": "N_range",
          "type": "uint256"
        }
      ],
      "name": "generateIntegers",
      "outputs": [
        {
          "internalType": "uint256[]",
          "name": "",
          "type": "uint256[]"
        }
      ],
      "stateMutability": "view",
      "type": "function"
    },
    {
      "inputs": [],
      "name": "getAcceptedBatchesCount",
      "outputs": [
        {
          "internalType": "uint256",
          "name": "count",
          "type": "uint256"
        }
      ],
      "stateMutability": "view",
      "type": "function"
    },
    {
      "inputs": [],
      "name": "getActiveWorkersCount",
      "outputs": [
        {
          "internalType": "uint256",
          "name": "numWorkers",
          "type": "uint256"
        }
      ],
      "stateMutability": "view",
      "type": "function"
    },
    {
      "inputs": [
        {
          "internalType": "uint256",
          "name": "_DataBatchId",
          "type": "uint256"
        }
      ],
      "name": "getBatchByID",
      "outputs": [
        {
          "components": [
            {
              "internalType": "uint256",
              "name": "start_idx",
              "type": "uint256"
            },
            {
              "internalType": "uint256",
              "name": "counter",
              "type": "uint256"
            },
            {
              "internalType": "uint256",
              "name": "uncommited_workers",
              "type": "uint256"
            },
            {
              "internalType": "uint256",
              "name": "unrevealed_workers",
              "type": "uint256"
            },
            {
              "internalType": "bool",
              "name": "complete",
              "type": "bool"
            },
            {
              "internalType": "bool",
              "name": "checked",
              "type": "bool"
            },
            {
              "internalType": "bool",
              "name": "allocated_to_work",
              "type": "bool"
            },
            {
              "internalType": "uint256",
              "name": "commitEndDate",
              "type": "uint256"
            },
            {
              "internalType": "uint256",
              "name": "revealEndDate",
              "type": "uint256"
            },
            {
              "internalType": "uint256",
              "name": "votesFor",
              "type": "uint256"
            },
            {
              "internalType": "uint256",
              "name": "votesAgainst",
              "type": "uint256"
            },
            {
              "internalType": "string",
              "name": "batchIPFSfile",
              "type": "string"
            },
            {
              "internalType": "uint256",
              "name": "item_count",
              "type": "uint256"
            },
            {
              "internalType": "enum DataSpotting.DataStatus",
              "name": "status",
              "type": "uint8"
            }
          ],
          "internalType": "struct DataSpotting.BatchMetadata",
          "name": "batch",
          "type": "tuple"
        }
      ],
      "stateMutability": "view",
      "type": "function"
    },
    {
      "inputs": [
        {
          "internalType": "uint256",
          "name": "_DataBatchId",
          "type": "uint256"
        }
      ],
      "name": "getBatchIPFSFileByID",
      "outputs": [
        {
          "internalType": "string",
          "name": "batch",
          "type": "string"
        }
      ],
      "stateMutability": "view",
      "type": "function"
    },
    {
      "inputs": [
        {
          "internalType": "address",
          "name": "_voter",
          "type": "address"
        },
        {
          "internalType": "uint256",
          "name": "_DataBatchId",
          "type": "uint256"
        }
      ],
      "name": "getCommitHash",
      "outputs": [
        {
          "internalType": "bytes32",
          "name": "commitHash",
          "type": "bytes32"
        }
      ],
      "stateMutability": "view",
      "type": "function"
    },
    {
      "inputs": [],
      "name": "getCurrentWorkEpoch",
      "outputs": [
        {
          "internalType": "uint256",
          "name": "WorkEpoch",
          "type": "uint256"
        }
      ],
      "stateMutability": "view",
      "type": "function"
    },
    {
      "inputs": [
        {
          "internalType": "uint256",
          "name": "_DataId",
          "type": "uint256"
        }
      ],
      "name": "getDataByID",
      "outputs": [
        {
          "components": [
            {
              "internalType": "string",
              "name": "ipfs_hash",
              "type": "string"
            },
            {
              "internalType": "address",
              "name": "author",
              "type": "address"
            },
            {
              "internalType": "uint256",
              "name": "timestamp",
              "type": "uint256"
            },
            {
              "internalType": "uint256",
              "name": "item_count",
              "type": "uint256"
            },
            {
              "internalType": "string",
              "name": "URL_domain",
              "type": "string"
            },
            {
              "internalType": "string",
              "name": "extra",
              "type": "string"
            },
            {
              "internalType": "enum DataSpotting.DataStatus",
              "name": "status",
              "type": "uint8"
            }
          ],
          "internalType": "struct DataSpotting.SpottedData",
          "name": "data",
          "type": "tuple"
        }
      ],
      "stateMutability": "view",
      "type": "function"
    },
    {
      "inputs": [
        {
          "internalType": "uint256",
          "name": "_DataBatchId",
          "type": "uint256"
        }
      ],
      "name": "getDomainsForBatch",
      "outputs": [
        {
          "internalType": "string[]",
          "name": "",
          "type": "string[]"
        }
      ],
      "stateMutability": "view",
      "type": "function"
    },
    {
      "inputs": [
        {
          "internalType": "uint256",
          "name": "_voteOption",
          "type": "uint256"
        },
        {
          "internalType": "uint256",
          "name": "_salt",
          "type": "uint256"
        }
      ],
      "name": "getEncryptedHash",
      "outputs": [
        {
          "internalType": "bytes32",
          "name": "keccak256hash",
          "type": "bytes32"
        }
      ],
      "stateMutability": "pure",
      "type": "function"
    },
    {
      "inputs": [
        {
          "internalType": "string",
          "name": "_hash",
          "type": "string"
        },
        {
          "internalType": "uint256",
          "name": "_salt",
          "type": "uint256"
        }
      ],
      "name": "getEncryptedStringHash",
      "outputs": [
        {
          "internalType": "bytes32",
          "name": "keccak256hash",
          "type": "bytes32"
        }
      ],
      "stateMutability": "pure",
      "type": "function"
    },
    {
      "inputs": [
        {
          "internalType": "uint256",
          "name": "_DataBatchId",
          "type": "uint256"
        }
      ],
      "name": "getIPFShashesForBatch",
      "outputs": [
        {
          "internalType": "string[]",
          "name": "",
          "type": "string[]"
        }
      ],
      "stateMutability": "view",
      "type": "function"
    },
    {
      "inputs": [],
      "name": "getLastAllocatedBatchId",
      "outputs": [
        {
          "internalType": "uint256",
          "name": "LastAllocatedBatchId",
          "type": "uint256"
        }
      ],
      "stateMutability": "view",
      "type": "function"
    },
    {
      "inputs": [],
      "name": "getLastBatchId",
      "outputs": [
        {
          "internalType": "uint256",
          "name": "LastBatchId",
          "type": "uint256"
        }
      ],
      "stateMutability": "view",
      "type": "function"
    },
    {
      "inputs": [],
      "name": "getLastCheckedBatchId",
      "outputs": [
        {
          "internalType": "uint256",
          "name": "LastCheckedBatchId",
          "type": "uint256"
        }
      ],
      "stateMutability": "view",
      "type": "function"
    },
    {
      "inputs": [],
      "name": "getLastDataId",
      "outputs": [
        {
          "internalType": "uint256",
          "name": "DataId",
          "type": "uint256"
        }
      ],
      "stateMutability": "view",
      "type": "function"
    },
    {
      "inputs": [
        {
          "internalType": "address",
          "name": "_voter",
          "type": "address"
        }
      ],
      "name": "getLastNode",
      "outputs": [
        {
          "internalType": "uint256",
          "name": "DataID",
          "type": "uint256"
        }
      ],
      "stateMutability": "view",
      "type": "function"
    },
    {
      "inputs": [
        {
          "internalType": "address",
          "name": "user",
          "type": "address"
        }
      ],
      "name": "getLastUserDataId",
      "outputs": [
        {
          "internalType": "uint256",
          "name": "DataId",
          "type": "uint256"
        }
      ],
      "stateMutability": "view",
      "type": "function"
    },
    {
      "inputs": [
        {
          "internalType": "address",
          "name": "_voter",
          "type": "address"
        }
      ],
      "name": "getLockedTokens",
      "outputs": [
        {
          "internalType": "uint256",
          "name": "numTokens",
          "type": "uint256"
        }
      ],
      "stateMutability": "view",
      "type": "function"
    },
    {
      "inputs": [],
      "name": "getMySystemTokenBalance",
      "outputs": [
        {
          "internalType": "uint256",
          "name": "tokens",
          "type": "uint256"
        }
      ],
      "stateMutability": "view",
      "type": "function"
    },
    {
      "inputs": [
        {
          "internalType": "address",
          "name": "_voter",
          "type": "address"
        },
        {
          "internalType": "uint256",
          "name": "_DataBatchId",
          "type": "uint256"
        }
      ],
      "name": "getNumTokens",
      "outputs": [
        {
          "internalType": "uint256",
          "name": "numTokens",
          "type": "uint256"
        }
      ],
      "stateMutability": "view",
      "type": "function"
    },
    {
      "inputs": [],
      "name": "getRandom",
      "outputs": [
        {
          "internalType": "uint256",
          "name": "",
          "type": "uint256"
        }
      ],
      "stateMutability": "view",
      "type": "function"
    },
    {
      "inputs": [],
      "name": "getRejectedBatchesCount",
      "outputs": [
        {
          "internalType": "uint256",
          "name": "count",
          "type": "uint256"
        }
      ],
      "stateMutability": "view",
      "type": "function"
    },
    {
      "inputs": [],
      "name": "getSeed",
      "outputs": [
        {
          "internalType": "bytes32",
          "name": "addr",
          "type": "bytes32"
        }
      ],
      "stateMutability": "view",
      "type": "function"
    },
    {
      "inputs": [
        {
          "internalType": "address",
          "name": "_user",
          "type": "address"
        }
      ],
      "name": "getSystemTokenBalance",
      "outputs": [
        {
          "internalType": "uint256",
          "name": "tokens",
          "type": "uint256"
        }
      ],
      "stateMutability": "view",
      "type": "function"
    },
    {
      "inputs": [],
      "name": "getTxCounter",
      "outputs": [
        {
          "internalType": "uint256",
          "name": "Counter",
          "type": "uint256"
        }
      ],
      "stateMutability": "view",
      "type": "function"
    },
    {
      "inputs": [
        {
          "internalType": "address",
          "name": "user",
          "type": "address"
        }
      ],
      "name": "getUserDatas",
      "outputs": [
        {
          "internalType": "uint256[]",
          "name": "user_Datas",
          "type": "uint256[]"
        }
      ],
      "stateMutability": "view",
      "type": "function"
    },
    {
      "inputs": [
        {
          "internalType": "uint256",
          "name": "_terminationDate",
          "type": "uint256"
        }
      ],
      "name": "isExpired",
      "outputs": [
        {
          "internalType": "bool",
          "name": "expired",
          "type": "bool"
        }
      ],
      "stateMutability": "view",
      "type": "function"
    },
    {
      "inputs": [
        {
          "internalType": "uint256",
          "name": "_DataBatchId",
          "type": "uint256"
        }
      ],
      "name": "isPassed",
      "outputs": [
        {
          "internalType": "bool",
          "name": "passed",
          "type": "bool"
        }
      ],
      "stateMutability": "view",
      "type": "function"
    },
    {
      "inputs": [
        {
          "internalType": "uint256",
          "name": "_DataBatchId",
          "type": "uint256"
        },
        {
          "internalType": "address",
          "name": "_worker",
          "type": "address"
        }
      ],
      "name": "isWorkerAllocatedToBatch",
      "outputs": [
        {
          "internalType": "bool",
          "name": "",
          "type": "bool"
        }
      ],
      "stateMutability": "view",
      "type": "function"
    },
    {
      "inputs": [
        {
          "internalType": "address",
          "name": "_worker",
          "type": "address"
        }
      ],
      "name": "isWorkerRegistered",
      "outputs": [
        {
          "internalType": "bool",
          "name": "passed",
          "type": "bool"
        }
      ],
      "stateMutability": "view",
      "type": "function"
    },
    {
      "inputs": [],
      "name": "owner",
      "outputs": [
        {
          "internalType": "address",
          "name": "",
          "type": "address"
        }
      ],
      "stateMutability": "view",
      "type": "function"
    },
    {
      "inputs": [
        {
          "internalType": "uint256",
          "name": "k",
          "type": "uint256"
        },
        {
          "internalType": "uint256",
          "name": "N",
          "type": "uint256"
        }
      ],
      "name": "random_selection",
      "outputs": [
        {
          "internalType": "uint256[]",
          "name": "",
          "type": "uint256[]"
        }
      ],
      "stateMutability": "view",
      "type": "function"
    },
    {
      "inputs": [],
      "name": "renounceOwnership",
      "outputs": [],
      "stateMutability": "nonpayable",
      "type": "function"
    },
    {
      "inputs": [
        {
          "internalType": "uint256",
          "name": "_numTokens",
          "type": "uint256"
        }
      ],
      "name": "requestVotingRights",
      "outputs": [],
      "stateMutability": "nonpayable",
      "type": "function"
    },
    {
      "inputs": [
        {
          "internalType": "uint256",
          "name": "_DataBatchId",
          "type": "uint256"
        }
      ],
      "name": "rescueTokens",
      "outputs": [],
      "stateMutability": "nonpayable",
      "type": "function"
    },
    {
      "inputs": [
        {
          "internalType": "uint256[]",
          "name": "_DataBatchIDs",
          "type": "uint256[]"
        }
      ],
      "name": "rescueTokensInMultipleDatas",
      "outputs": [],
      "stateMutability": "nonpayable",
      "type": "function"
    },
    {
      "inputs": [
        {
          "internalType": "uint256",
          "name": "_DataBatchId",
          "type": "uint256"
        }
      ],
      "name": "revealPeriodActive",
      "outputs": [
        {
          "internalType": "bool",
          "name": "active",
          "type": "bool"
        }
      ],
      "stateMutability": "view",
      "type": "function"
    },
    {
      "inputs": [
        {
          "internalType": "uint256",
          "name": "_DataBatchId",
          "type": "uint256"
        },
        {
          "internalType": "uint256",
          "name": "_voteOption",
          "type": "uint256"
        },
        {
          "internalType": "uint256",
          "name": "_salt",
          "type": "uint256"
        }
      ],
      "name": "revealSpotCheck",
      "outputs": [],
      "stateMutability": "nonpayable",
      "type": "function"
    },
    {
      "inputs": [],
      "name": "sFuel",
      "outputs": [
        {
          "internalType": "address",
          "name": "",
          "type": "address"
        }
      ],
      "stateMutability": "view",
      "type": "function"
    },
    {
      "inputs": [
        {
          "internalType": "uint256",
          "name": "N",
          "type": "uint256"
        }
      ],
      "name": "shuffle_array",
      "outputs": [
        {
          "internalType": "uint256[]",
          "name": "",
          "type": "uint256[]"
        }
      ],
      "stateMutability": "view",
      "type": "function"
    },
    {
      "inputs": [
        {
          "internalType": "uint256",
          "name": "",
          "type": "uint256"
        }
      ],
      "name": "toUnregisterWorkers",
      "outputs": [
        {
          "internalType": "address",
          "name": "",
          "type": "address"
        }
      ],
      "stateMutability": "view",
      "type": "function"
    },
    {
      "inputs": [],
      "name": "token",
      "outputs": [
        {
          "internalType": "contract IERC20",
          "name": "",
          "type": "address"
        }
      ],
      "stateMutability": "view",
      "type": "function"
    },
    {
      "inputs": [
        {
          "internalType": "address",
          "name": "newOwner",
          "type": "address"
        }
      ],
      "name": "transferOwnership",
      "outputs": [],
      "stateMutability": "nonpayable",
      "type": "function"
    },
    {
      "inputs": [
        {
          "internalType": "address",
          "name": "addr",
          "type": "address"
        }
      ],
      "name": "updateAddressManager",
      "outputs": [],
      "stateMutability": "nonpayable",
      "type": "function"
    },
    {
      "inputs": [
        {
          "internalType": "uint256",
          "name": "COMMIT_ROUND_DURATION_",
          "type": "uint256"
        }
      ],
      "name": "updateCommitRoundDuration",
      "outputs": [],
      "stateMutability": "nonpayable",
      "type": "function"
    },
    {
      "inputs": [
        {
          "internalType": "uint256",
          "name": "CONSENSUS_WORKER_SIZE_",
          "type": "uint256"
        }
      ],
      "name": "updateConsensusSize",
      "outputs": [],
      "stateMutability": "nonpayable",
      "type": "function"
    },
    {
      "inputs": [
        {
          "internalType": "uint256",
          "name": "size",
          "type": "uint256"
        }
      ],
      "name": "updateDataBachSize",
      "outputs": [],
      "stateMutability": "nonpayable",
      "type": "function"
    },
    {
      "inputs": [
        {
          "internalType": "address",
          "name": "addr",
          "type": "address"
        }
      ],
      "name": "updateFormattingSystem",
      "outputs": [],
      "stateMutability": "nonpayable",
      "type": "function"
    },
    {
      "inputs": [
        {
          "internalType": "uint256",
          "name": "INTER_ALLOCATION_DURATION_",
          "type": "uint256"
        }
      ],
      "name": "updateInterAllocationDuration",
      "outputs": [],
      "stateMutability": "nonpayable",
      "type": "function"
    },
    {
      "inputs": [
        {
          "internalType": "uint256",
          "name": "CONSENSUS_WORKER_SIZE_",
          "type": "uint256"
        }
      ],
      "name": "updateMinConsensusSize",
      "outputs": [],
      "stateMutability": "nonpayable",
      "type": "function"
    },
    {
      "inputs": [
        {
          "internalType": "address",
          "name": "addr",
          "type": "address"
        }
      ],
      "name": "updateRepManager",
      "outputs": [],
      "stateMutability": "nonpayable",
      "type": "function"
    },
    {
      "inputs": [
        {
          "internalType": "uint256",
          "name": "REVEAL_ROUND_DURATION_",
          "type": "uint256"
        }
      ],
      "name": "updateRevealRoundDuration",
      "outputs": [],
      "stateMutability": "nonpayable",
      "type": "function"
    },
    {
      "inputs": [
        {
          "internalType": "address",
          "name": "addr",
          "type": "address"
        }
      ],
      "name": "updateRewardManager",
      "outputs": [],
      "stateMutability": "nonpayable",
      "type": "function"
    },
    {
      "inputs": [
        {
          "internalType": "address",
          "name": "addr",
          "type": "address"
        }
      ],
      "name": "updateStakeManager",
      "outputs": [],
      "stateMutability": "nonpayable",
      "type": "function"
    },
    {
      "inputs": [
        {
          "internalType": "address",
          "name": "_sFuel",
          "type": "address"
        }
      ],
      "name": "updatesFuelFaucet",
      "outputs": [],
      "stateMutability": "nonpayable",
      "type": "function"
    },
    {
      "inputs": [
        {
          "internalType": "address",
          "name": "",
          "type": "address"
        },
        {
          "internalType": "uint256",
          "name": "",
          "type": "uint256"
        }
      ],
      "name": "userSubmissions",
      "outputs": [
        {
          "internalType": "uint256",
          "name": "",
          "type": "uint256"
        }
      ],
      "stateMutability": "view",
      "type": "function"
    },
    {
      "inputs": [
        {
          "internalType": "uint256",
          "name": "_prevID",
          "type": "uint256"
        },
        {
          "internalType": "uint256",
          "name": "_nextID",
          "type": "uint256"
        },
        {
          "internalType": "address",
          "name": "_voter",
          "type": "address"
        },
        {
          "internalType": "uint256",
          "name": "_numTokens",
          "type": "uint256"
        }
      ],
      "name": "validPosition",
      "outputs": [
        {
          "internalType": "bool",
          "name": "APPROVED",
          "type": "bool"
        }
      ],
      "stateMutability": "view",
      "type": "function"
    },
    {
      "inputs": [
        {
          "internalType": "uint256",
          "name": "_numTokens",
          "type": "uint256"
        }
      ],
      "name": "withdrawVotingRights",
      "outputs": [],
      "stateMutability": "nonpayable",
      "type": "function"
    }
  ],
  "bytecode": "0x6080604052600180556002805560016003556000600855670de0b6b3a7640000600955670de0b6b3a7640000600a5568015af1d78b58c40000600b55603c600c55600060145560006015557314f52f3fc010ab6ca81568d4a6794d5eab3c6155601f60006101000a8154816001600160a01b0302191690836001600160a01b0316021790555060016020556001602155600160225560006024556000602555600060265560006027556000602855348015620000ba57600080fd5b5060405162007ecf38038062007ecf833981016040819052620000dd916200018c565b620000f1620000eb62000138565b6200013c565b602980546001600160a01b0319166001600160a01b0392909216919091179055600060155568015af1d78b58c4000060045560b46005819055600655600a600755620001bc565b3390565b600080546001600160a01b038381166001600160a01b0319831681178455604051919092169283917f8be0079c531659141344cd1fd0a4f28419497f9722a3daafe3b4186f6b6457e09190a35050565b6000602082840312156200019e578081fd5b81516001600160a01b0381168114620001b5578182fd5b9392505050565b617d0380620001cc6000396000f3fe608060405234801561001057600080fd5b506004361061072c5760003560e01c80639acb75c1116103b3578063d6b0206c116101f4578063e8e9b6f91161011a578063f4cdfcc4116100b8578063f80a23fd11610087578063f80a23fd14610e81578063f96305f014610e89578063fc0c546a14610e91578063fca4956314610e995761072c565b8063f4cdfcc414610e4b578063f5ae7c7d14610e5e578063f716596d14610e66578063f721de4a14610e6e5761072c565b8063ef4fcdad116100f4578063ef4fcdad14610e15578063f2d9e74d14610e1d578063f2fde38b14610e25578063f343894614610e385761072c565b8063e8e9b6f914610de7578063eb1322ff14610dfa578063ed8becfa14610e025761072c565b8063dd61868211610192578063e604c12711610161578063e604c12714610da6578063e7805f9e14610db9578063e798a7da14610dc1578063e7b1d43c14610dd45761072c565b8063dd61868214610d65578063df05368e14610d78578063e1f7a43014610d8b578063e44c974b14610d935761072c565b8063d901402b116101ce578063d901402b14610d0c578063d9548e5314610d1f578063d9845fb814610d32578063d9966ae814610d525761072c565b8063d6b0206c14610cde578063d822ce0114610ce6578063d8b7567414610cf95761072c565b8063b1cf4a7e116102d9578063c7761fab11610277578063d0d41def11610246578063d0d41def14610c9d578063d138209214610ca5578063d186981d14610cb8578063d420ec0b14610ccb5761072c565b8063c7761fab14610c72578063c7c063fb14610c7a578063c9b03a7214610c8d578063cb1c2b5c14610c955761072c565b8063b8f011b3116102b3578063b8f011b314610c26578063bc3002e614610c39578063c47c4bc214610c4c578063c4e4f82a14610c5f5761072c565b8063b1cf4a7e14610bed578063b1d7ea9814610c00578063b7e4eba914610c135761072c565b8063a4439dc511610351578063aacc5a1711610320578063aacc5a1714610bb7578063ab43e78d14610bbf578063b10aa58414610bc7578063b1a2e0be14610bda5761072c565b8063a4439dc514610b76578063a511dba014610b89578063a905779014610b91578063aa7ca46414610ba45761072c565b8063a1103f371161038d578063a1103f3714610b40578063a1b6b5b714610b53578063a25236fe14610b5b578063a350715a14610b6e5761072c565b80639acb75c114610b125780639b7e018014610b1a5780639fc9c52f14610b2d5761072c565b806354fbaac81161057d5780637a34da67116104a357806383cc6ef2116104415780638da5cb5b116104105780638da5cb5b14610adc5780638df0296e14610ae45780639760356014610af75780639769d84614610b0a5761072c565b806383cc6ef214610a9b5780638473850b14610aa35780638c89d02714610aab5780638d289f8f14610ad45761072c565b80637f97e8361161047d5780637f97e83614610a355780637fabe35b14610a48578063819b029314610a75578063821aa8c014610a885761072c565b80637a34da6714610a125780637d05052614610a1a5780637f9510a214610a2d5761072c565b8063667bf0f81161051b57806371880b1b116104ea57806371880b1b146109e7578063726bc8af146109fa57806376e8ea4f14610a025780637827e54914610a0a5761072c565b8063667bf0f8146109b15780636b2d95d4146109b95780637074222b146109cc578063715018a6146109df5761072c565b80635a452943116105575780635a452943146109635780635b113a55146109835780635fd87909146109965780636371d81f1461099e5761072c565b806354fbaac81461091d578063579db71c1461093057806358002158146109505761072c565b8063313066ee1161066257806344dc8e6b116106005780634d884281116105cf5780634d884281146108e75780634fe8b4c1146108fa578063515535e81461090d57806351912f29146109155761072c565b806344dc8e6b146108b157806347fe2d20146108c45780634852e2f0146108cc57806349403183146108d45761072c565b806339e7357c1161063c57806339e7357c14610870578063427fa1d214610878578063441c77c01461088b57806344639f7c1461089e5761072c565b8063313066ee1461084d5780633538af8214610855578063354dae40146108685761072c565b8063154fd39b116106cf578063275c2590116106a9578063275c2590146107fd57806329a47bc7146108055780632d917c681461081a5780632f469fd11461082d5761072c565b8063154fd39b146107b557806319d90346146107bd578063226ed300146107dd5761072c565b8063050eb2eb1161070b578063050eb2eb1461076c5780630b96c5b01461077f5780630e6661a7146107a55780630e670feb146107ad5761072c565b8062e5273614610731578063035fbb551461074f57806304dbcda714610764575b600080fd5b610739610eac565b6040516107469190616a83565b60405180910390f35b61076261075d36600461698c565b610eb2565b005b6107396111ef565b61076261077a3660046165db565b6111f5565b61079261078d366004616886565b611256565b6040516107469796959493929190616c33565b61073961143a565b610739611440565b610739611446565b6107d06107cb366004616886565b61144c565b6040516107469190616b39565b6107f06107eb366004616886565b61176d565b6040516107469190616bdd565b6107626117b5565b61080d61192d565b6040516107469190616ab6565b6107f06108283660046165f5565b61193c565b61084061083b3660046168af565b61195c565b6040516107469190616be8565b610739611a01565b61080d610863366004616886565b611a07565b610762611a31565b610739611b86565b6107396108863660046165db565b611ba3565b6107f0610899366004616886565b611c43565b6107626108ac366004616886565b611c9d565b6107626108bf366004616886565b611cef565b610739611d33565b610739611d39565b6107f06108e2366004616886565b611d3f565b6107626108f53660046165db565b611f08565b610762610908366004616886565b611f69565b61073961200e565b61080d612014565b61076261092b3660046168da565b612023565b61094361093e3660046165db565b6124ef565b6040516107469190616b99565b61076261095e366004616886565b61255b565b610976610971366004616886565b61259f565b604051610746919061797c565b6107396109913660046168af565b6127f4565b610739612811565b6107626109ac366004616886565b612817565b6107626128d9565b6107396109c73660046165db565b612cf9565b6107396109da3660046165db565b612d08565b610762612d23565b6107396109f5366004616886565b612d6e565b610739612dab565b610739612db1565b610739612db7565b61080d612dbd565b610762610a283660046165db565b612dcc565b610739612e2d565b6107f0610a433660046165f5565b612e44565b610a5b610a56366004616886565b612e97565b6040516107469e9d9c9b9a99989796959493929190617a63565b6107f0610a83366004616950565b612f97565b61080d610a96366004616886565b612fd8565b61080d612fe8565b610739612ff7565b610abe610ab93660046165db565b612ffd565b6040516107469a99989796959493929190616aca565b61080d6130ee565b61080d6130fd565b61080d610af236600461692f565b61310c565b610762610b05366004616886565b613144565b6107396132f3565b6107396132f9565b610739610b283660046165f5565b6132ff565b610762610b3b366004616705565b613330565b610739610b4e3660046165f5565b61337e565b6107396133b1565b610762610b69366004616886565b6133b7565b6107396134b8565b6107f0610b84366004616886565b6134be565b610739613520565b6107f0610b9f366004616826565b613526565b6107f0610bb23660046165f5565b61358c565b6107396135df565b61080d613694565b61080d610bd5366004616886565b6136a3565b6107f0610be83660046165db565b6136b3565b610739610bfb36600461692f565b61380f565b610943610c0e36600461692f565b613824565b610762610c21366004616886565b613a2b565b610943610c3436600461692f565b613a6f565b610739610c4736600461661e565b613bd7565b610762610c5a3660046165db565b613f1d565b610739610c6d366004616886565b613f7e565b610739613fbb565b610739610c883660046165db565b613fc1565b610739613fd3565b610739613fd9565b610739613fdf565b610739610cb33660046165f5565b613fe5565b6107f0610cc63660046168af565b614081565b6107f0610cd93660046165f5565b61415c565b61073961417c565b61080d610cf43660046165f5565b614182565b610739610d073660046168af565b61419e565b610739610d1a3660046165f5565b6141bb565b6107f0610d2d366004616886565b614200565b610d45610d40366004616886565b614205565b6040516107469190617802565b610762610d60366004616886565b614389565b610762610d733660046165db565b6143cd565b610762610d863660046165db565b61442e565b61073961448f565b610943610da1366004616886565b6144a2565b610840610db4366004616886565b61451b565b6107396145c6565b6107f0610dcf3660046165db565b6145cc565b610762610de2366004616886565b6145ed565b610762610df5366004616886565b614735565b610739614779565b6107d0610e10366004616886565b61477f565b610739614a92565b610739614a98565b610762610e333660046165db565b614a9e565b610739610e463660046165db565b614b0c565b610739610e593660046167b4565b614bad565b610739614be3565b610762614be9565b6107f0610e7c366004616886565b614db8565b6107f0614dc0565b610739614dd9565b61080d614ddf565b610739610ea73660046165db565b614dee565b60075481565b610eba614f28565b610ec383611c43565b610ee85760405162461bcd60e51b8152600401610edf9061747a565b60405180910390fd5b336000908152600d6020908152604080832086845290915290205460ff16610f225760405162461bcd60e51b8152600401610edf90617165565b336000908152600e6020908152604080832086845290915290205460ff1615610f5d5760405162461bcd60e51b8152600401610edf906177b6565b610f6733846141bb565b610f71838361380f565b14610f8e5760405162461bcd60e51b8152600401610edf90616f00565b6000610f9a3385613fe5565b90508260011415610fd15760008481526023602052604081206007018054839290610fc6908490617b8f565b90915550610ff89050565b60008481526023602052604081206008018054839290610ff2908490617b8f565b90915550505b336000908152601260205260409081902090516301039dfd60e11b815273__$85afbab79b2b776d70bef879a32ed56424$__916302073bfa9161104091908890600401616aa8565b60006040518083038186803b15801561105857600080fd5b505af415801561106c573d6000803e3d6000fd5b5050336000818152600e602090815260408083208a84528252808320805460ff19166001908117909155600f8352818420948452938252808320899055601682528083208a84526023909252909120600301549093506110cd9250906150b0565b60008681526023602052604090206003908101919091558101805460ff19166001179055426005820155611100336150bc565b600781015460ff16156111755761111633615214565b15801561112d57506007810154610100900460ff16155b1561117557601b80546001810182556000919091527f3ad8aa4f87544323a9d1e5dd902f40c356527a7955687113db5f9a85ad579dc10180546001600160a01b031916331790555b6001602460008282546111889190617b8f565b909155505060008581526023602052604090819020600781015460089091015491513392879289927f0867b5027231dcbf37614eaad07d667b9febaf9fdf483f488229b1f140bb0748926111e0928992909190617a4d565b60405180910390a45050505050565b60095481565b6111fd615284565b6001600160a01b031661120e6130fd565b6001600160a01b0316146112345760405162461bcd60e51b8152600401610edf90617392565b602c80546001600160a01b0319166001600160a01b0392909216919091179055565b60176020526000908152604090208054819061127190617c21565b80601f016020809104026020016040519081016040528092919081815260200182805461129d90617c21565b80156112ea5780601f106112bf576101008083540402835291602001916112ea565b820191906000526020600020905b8154815290600101906020018083116112cd57829003601f168201915b50505060018401546002850154600386015460048701805496976001600160a01b03909416969295509093509061132090617c21565b80601f016020809104026020016040519081016040528092919081815260200182805461134c90617c21565b80156113995780601f1061136e57610100808354040283529160200191611399565b820191906000526020600020905b81548152906001019060200180831161137c57829003601f168201915b5050505050908060050180546113ae90617c21565b80601f01602080910402602001604051908101604052809291908181526020018280546113da90617c21565b80156114275780601f106113fc57610100808354040283529160200191611427565b820191906000526020600020905b81548152906001019060200180831161140a57829003601f168201915b5050506006909301549192505060ff1687565b60155481565b600a5481565b60225490565b606061145782614db8565b6114735760405162461bcd60e51b8152600401610edf90617507565b600082815260236020908152604080832081516101c0810183528154815260018201549381019390935260028101549183019190915260038101546060830152600481015460ff808216151560808501526101008083048216151560a08601526201000090920416151560c0840152600582015460e0840152600682015490830152600781015461012083015260088101546101408301526009810180546101608401919061152190617c21565b80601f016020809104026020016040519081016040528092919081815260200182805461154d90617c21565b801561159a5780601f1061156f5761010080835404028352916020019161159a565b820191906000526020600020905b81548152906001019060200180831161157d57829003601f168201915b5050509183525050600a8201546020820152600b82015460409091019060ff1660038111156115d957634e487b7160e01b600052602160045260246000fd5b60038111156115f857634e487b7160e01b600052602160045260246000fd5b9052506020810151600154919250906000906001600160401b0381111561162f57634e487b7160e01b600052604160045260246000fd5b60405190808252806020026020018201604052801561166257816020015b606081526020019060019003908161164d5790505b50905060005b82811015611762578351600090611680908390617b8f565b6000818152601760205260408120600401805492935090916116a190617c21565b80601f01602080910402602001604051908101604052809291908181526020018280546116cd90617c21565b801561171a5780601f106116ef5761010080835404028352916020019161171a565b820191906000526020600020905b8154815290600101906020018083116116fd57829003601f168201915b505050505090508084848151811061174257634e487b7160e01b600052603260045260246000fd5b60200260200101819052505050808061175a90617c5c565b915050611668565b50925050505b919050565b600061177882614db8565b6117945760405162461bcd60e51b8152600401610edf9061778d565b6000828152602360205260409020600601546117af90614200565b92915050565b6117bd614f28565b336000908152601660205260409020600781015460ff1615156001146117f55760405162461bcd60e51b8152600401610edf90617346565b60028101541580159061181257506007810154610100900460ff16155b1561186f5760078101805461ff001916610100179055601d80546001810182556000919091527f6d4407e7be21f808e6509aa9fa9143369579dd7d760fe20a2c09680fc146134f0180546001600160a01b03191633179055611912565b6002810154156118915760405162461bcd60e51b8152600401610edf9061728c565b4261189b33615288565b6118a4336150bc565b8154336001600160a01b03199182168117845560018401805490921681179091556005830182905560078301805460ff191690556040517f9dadcedba048e92b943ea1c5861cee1df63a566d7f795869c004780c1c698e2b90611908908490616a83565b60405180910390a2505b6001602460008282546119259190617b8f565b909155505050565b602b546001600160a01b031681565b600d60209081526000928352604080842090915290825290205460ff1681565b60106020908152600092835260408084209091529082529020805461198090617c21565b80601f01602080910402602001604051908101604052809291908181526020018280546119ac90617c21565b80156119f95780601f106119ce576101008083540402835291602001916119f9565b820191906000526020600020905b8154815290600101906020018083116119dc57829003601f168201915b505050505081565b60145481565b601b8181548110611a1757600080fd5b6000918252602090912001546001600160a01b0316905081565b611a39614f28565b601d5460009015611a4c57611a4c6153b8565b60215460009081526023602052604090206004015462010000900460ff1615156001148015611a9e5750611a8160215461176d565b80611a9e5750602154600090815260236020526040902060030154155b15611ac357611aae602154615450565b602154611abc906001616055565b6021555060015b60225460009081526023602052604090206004015462010000900460ff161515600114801590611af45750601b5415155b8015611b14575060225460009081526023602052604090206004015460ff165b8015611b2e5750600754600854611b2b9042617bda565b10155b15611b3f57611b3b6128d9565b5060015b8015611b5757601454611b53906001616055565b6014555b6014546040517f94d48a7342690f1233e3f4db70efa37c4f1f25f4d0397c353f3f15aecdeca5f490600090a250565b60405160009080602081848060185afa611b9c57fe5b5051919050565b6001600160a01b03811660009081526012602052604080822090516301c39b2b60e11b815273__$85afbab79b2b776d70bef879a32ed56424$__91630387365691611bf391908590600401616aa8565b60206040518083038186803b158015611c0b57600080fd5b505af4158015611c1f573d6000803e3d6000fd5b505050506040513d601f19601f820116820180604052508101906117af919061689e565b6000611c4e82614db8565b611c6a5760405162461bcd60e51b8152600401610edf90617507565b600082815260236020526040902060060154611c8590614200565b1580156117af5750611c96826134be565b1592915050565b611ca5615284565b6001600160a01b0316611cb66130fd565b6001600160a01b031614611cdc5760405162461bcd60e51b8152600401610edf90617392565b6001811015611cea57600080fd5b600355565b611cf7615284565b6001600160a01b0316611d086130fd565b6001600160a01b031614611d2e5760405162461bcd60e51b8152600401610edf90617392565b600755565b60215490565b60275481565b600081815260236020908152604080832081516101c0810183528154815260018201549381019390935260028101549183019190915260038101546060830152600481015460ff808216151560808501526101008083048216151560a08601526201000090920416151560c0840152600582015460e08401526006820154908301526007810154610120830152600881015461014083015260098101805484939291610160840191611df090617c21565b80601f0160208091040260200160405190810160405280929190818152602001828054611e1c90617c21565b8015611e695780601f10611e3e57610100808354040283529160200191611e69565b820191906000526020600020905b815481529060010190602001808311611e4c57829003601f168201915b5050509183525050600a8201546020820152600b82015460409091019060ff166003811115611ea857634e487b7160e01b600052602160045260246000fd5b6003811115611ec757634e487b7160e01b600052602160045260246000fd5b905250610140810151610120820151919250611ee291617b8f565b600c54611eef9190617bbb565b610120820151611f00906064617bbb565b119392505050565b611f10615284565b6001600160a01b0316611f216130fd565b6001600160a01b031614611f475760405162461bcd60e51b8152600401610edf90617392565b601f80546001600160a01b0319166001600160a01b0392909216919091179055565b611f71615284565b6001600160a01b0316611f826130fd565b6001600160a01b031614611fa85760405162461bcd60e51b8152600401610edf90617392565b600081815260176020526040812090611fc18282616331565b6001820180546001600160a01b031916905560006002830181905560038301819055611ff1906004840190616331565b611fff600583016000616331565b50600601805460ff1916905550565b60205490565b602c546001600160a01b031681565b61202b614f28565b612034846134be565b6120505760405162461bcd60e51b8152600401610edf90616eb1565b336000908152600d6020908152604080832087845290915290205460ff161561208b5760405162461bcd60e51b8152600401610edf906175fb565b6120958433614081565b6120b15760405162461bcd60e51b8152600401610edf9061705c565b600454336000908152601960205260409020548111156120f357336000908152601960205260408120546120e69083906150b0565b90506120f1816133b7565b505b336000908152601960205260409020548111156121225760405162461bcd60e51b8152600401610edf90617686565b6000336000908152601260205260408082209051631e0f232560e31b815273__$85afbab79b2b776d70bef879a32ed56424$__9163f07919289161216b91908690600401616aa8565b60206040518083038186803b15801561218357600080fd5b505af4158015612197573d6000803e3d6000fd5b505050506040513d601f19601f820116820180604052508101906121bb919061689e565b9050868114156122605733600090815260126020526040908190209051631e0f232560e31b815273__$85afbab79b2b776d70bef879a32ed56424$__9163f07919289161220d91908b90600401616aa8565b60206040518083038186803b15801561222557600080fd5b505af4158015612239573d6000803e3d6000fd5b505050506040513d601f19601f8201168201806040525081019061225d919061689e565b90505b61226c82823386612f97565b6122885760405162461bcd60e51b8152600401610edf9061725e565b3360009081526012602052604090819020905163524cfe5360e11b815273__$85afbab79b2b776d70bef879a32ed56424$__9163a499fca6916122d4919086908c908790600401617961565b60006040518083038186803b1580156122ec57600080fd5b505af4158015612300573d6000803e3d6000fd5b505050506000612310338961337e565b60405163099b040f60e31b815290915073__$0947e710b66d7779e1d561254425e1375a$__90634cd820789061234f9060139085908990600401617943565b60006040518083038186803b15801561236757600080fd5b505af415801561237b573d6000803e3d6000fd5b505060405163099b040f60e31b815273__$0947e710b66d7779e1d561254425e1375a$__9250634cd8207891506123bb9060139085908c906004016178f7565b60006040518083038186803b1580156123d357600080fd5b505af41580156123e7573d6000803e3d6000fd5b5050506000898152601060209081526040808320338452825290912088516124149350909189019061636d565b5060008881526011602090815260408083203384528252808320889055601682528083208b84526023909252909120600201546124529060016150b0565b60008a815260236020908152604080832060020193909355426005850155338252600d81528282208c83529052908120805460ff1916600190811790915560248054919290916124a3908490617b8f565b909155505060405133908a907f42864d9683ff5b12c3b2cc65d705af5aab104b03bc700b802f79e5c971ef08a1906124dc908990616a83565b60405180910390a3505050505050505050565b6001600160a01b03811660009081526018602090815260409182902080548351818402810184019094528084526060939283018282801561254f57602002820191906000526020600020905b81548152602001906001019080831161253b575b50505050509050919050565b612563615284565b6001600160a01b03166125746130fd565b6001600160a01b03161461259a5760405162461bcd60e51b8152600401610edf90617392565b600655565b6125a76163f1565b60008281526017602052604090819020815160e081019092528054829082906125cf90617c21565b80601f01602080910402602001604051908101604052809291908181526020018280546125fb90617c21565b80156126485780601f1061261d57610100808354040283529160200191612648565b820191906000526020600020905b81548152906001019060200180831161262b57829003601f168201915b505050918352505060018201546001600160a01b03166020820152600282015460408201526003820154606082015260048201805460809092019161268c90617c21565b80601f01602080910402602001604051908101604052809291908181526020018280546126b890617c21565b80156127055780601f106126da57610100808354040283529160200191612705565b820191906000526020600020905b8154815290600101906020018083116126e857829003601f168201915b5050505050815260200160058201805461271e90617c21565b80601f016020809104026020016040519081016040528092919081815260200182805461274a90617c21565b80156127975780601f1061276c57610100808354040283529160200191612797565b820191906000526020600020905b81548152906001019060200180831161277a57829003601f168201915b5050509183525050600682015460209091019060ff1660038111156127cc57634e487b7160e01b600052602160045260246000fd5b60038111156127eb57634e487b7160e01b600052602160045260246000fd5b90525092915050565b601160209081526000928352604080842090915290825290205481565b60065481565b61281f615284565b6001600160a01b03166128306130fd565b6001600160a01b0316146128565760405162461bcd60e51b8152600401610edf90617392565b61285f81614db8565b156128d657600081815260236020526040812081815560018101829055600281018290556003810182905560048101805462ffffff1916905560058101829055600681018290556007810182905560088101829055906128c26009830182616331565b506000600a820155600b01805460ff191690555b50565b60225460009081526023602052604090206004015460ff1661290d5760405162461bcd60e51b8152600401610edf90617424565b60225460009081526023602052604090206004015462010000900460ff16156129485760405162461bcd60e51b8152600401610edf906172e9565b600061296661295e601b80549050600254616061565b600354616077565b601b54600754600854929350909161297e9042617bda565b10612cf55760228054600090815260236020526040808220600301859055915481529081206002018390556005546129b7904290616055565b905060006129d06006548361605590919063ffffffff16565b60228054600090815260236020526040808220600501869055825482528082206006018490559154815220600401805462ff0000191662010000179055905060018410801590612a21575060018310155b612a3d5760405162461bcd60e51b8152600401610edf90617012565b6000612a498585613a6f565b9050600081516001600160401b03811115612a7457634e487b7160e01b600052604160045260246000fd5b604051908082528060200260200182016040528015612a9d578160200160208202803683370190505b50905060005b8251811015612b5c57601b838281518110612ace57634e487b7160e01b600052603260045260246000fd5b602002602001015181548110612af457634e487b7160e01b600052603260045260246000fd5b9060005260206000200160009054906101000a90046001600160a01b0316828281518110612b3257634e487b7160e01b600052603260045260246000fd5b6001600160a01b039092166020928302919091019091015280612b5481617c5c565b915050612aa3565b5060005b8251811015612cbf576000828281518110612b8b57634e487b7160e01b600052603260045260246000fd5b60200260200101519050600060166000836001600160a01b03166001600160a01b031681526020019081526020016000209050612bc782615288565b612bd082616087565b612c2057601c80546001810182556000919091527f0e4562a10381dec21b205ed72637e6b1b523bdd0e4d4d50af5cd23dd4500a2110180546001600160a01b0319166001600160a01b0384161790555b602280546000908152601e602090815260408083208054600181018255908452919092200180546001600160a01b0319166001600160a01b0386161790558154600284015560038301805460ff19169055905490517fe4ee2dfabe57cee15e3f558890b20455f54c1fa0718e5276faad70a6500e6b8c90612ca2908590616ab6565b60405180910390a250508080612cb790617c5c565b915050612b60565b5042600855602254612cd2906001616055565b602281905550600160246000828254612ceb9190617b8f565b9091555050505050505b5050565b60006117af82610cb384611ba3565b6001600160a01b031660009081526019602052604090205490565b612d2b615284565b6001600160a01b0316612d3c6130fd565b6001600160a01b031614612d625760405162461bcd60e51b8152600401610edf90617392565b612d6c60006160f7565b565b6000612d7982614db8565b612d955760405162461bcd60e51b8152600401610edf90617507565b5060009081526023602052604090206006015490565b60035481565b60015481565b600b5481565b602d546001600160a01b031681565b612dd4615284565b6001600160a01b0316612de56130fd565b6001600160a01b031614612e0b5760405162461bcd60e51b8152600401610edf90617392565b602e80546001600160a01b0319166001600160a01b0392909216919091179055565b601c54601b54600091612e3f91617b8f565b905090565b6000612e4f82614db8565b612e6b5760405162461bcd60e51b8152600401610edf90617507565b506001600160a01b03919091166000908152600d60209081526040808320938352929052205460ff1690565b602360205260009081526040902080546001820154600283015460038401546004850154600586015460068701546007880154600889015460098a018054999a98999798969760ff80881698610100890482169862010000900490911696959493929091612f0490617c21565b80601f0160208091040260200160405190810160405280929190818152602001828054612f3090617c21565b8015612f7d5780601f10612f5257610100808354040283529160200191612f7d565b820191906000526020600020905b815481529060010190602001808311612f6057829003601f168201915b50505050600a830154600b9093015491929160ff1690508e565b600080612fa48487613fe5565b83101590506000612fb58587613fe5565b84111580612fc1575085155b9050818015612fcd5750805b979650505050505050565b601c8181548110611a1757600080fd5b602a546001600160a01b031681565b60205481565b60166020526000908152604090208054600182015460028301546003840154600485015460058601546006870180546001600160a01b03978816989690971696949560ff909416949293919261305290617c21565b80601f016020809104026020016040519081016040528092919081815260200182805461307e90617c21565b80156130cb5780601f106130a0576101008083540402835291602001916130cb565b820191906000526020600020905b8154815290600101906020018083116130ae57829003601f168201915b505050506007830154600890930154919260ff808216936101009092041691508a565b602e546001600160a01b031681565b6000546001600160a01b031690565b601e602052816000526040600020818154811061312857600080fd5b6000918252602090912001546001600160a01b03169150829050565b60016000828152602360205260409020600b015460ff16600381111561317a57634e487b7160e01b600052602160045260246000fd5b146131975760405162461bcd60e51b8152600401610edf90616db4565b336000908152601260205260409081902090516306120d1f60e31b815273__$85afbab79b2b776d70bef879a32ed56424$__9163309068f8916131df91908590600401616aa8565b60206040518083038186803b1580156131f757600080fd5b505af415801561320b573d6000803e3d6000fd5b505050506040513d601f19601f8201168201806040525081019061322f9190616794565b61324b5760405162461bcd60e51b8152600401610edf90617201565b336000908152601260205260409081902090516301039dfd60e11b815273__$85afbab79b2b776d70bef879a32ed56424$__916302073bfa9161329391908590600401616aa8565b60006040518083038186803b1580156132ab57600080fd5b505af41580156132bf573d6000803e3d6000fd5b50506040513392508391507f402507661c8c8cb90e0a796450b8bdd28b6c516f05279c0cd29e84c344e1699a90600090a350565b60255481565b60145490565b6018602052816000526040600020818154811061331b57600080fd5b90600052602060002001600091509150505481565b60005b8151811015612cf55761336c82828151811061335f57634e487b7160e01b600052603260045260246000fd5b6020026020010151613144565b8061337681617c5c565b915050613333565b60008282604051602001613393929190616a61565b60405160208183030381529060405280519060200120905092915050565b60255490565b602a546040516304ada21f60e21b81526001600160a01b03909116906312b6887c906133e99084903390600401617a18565b602060405180830381600087803b15801561340357600080fd5b505af1158015613417573d6000803e3d6000fd5b505050506040513d601f19601f8201168201806040525081019061343b9190616794565b6134575760405162461bcd60e51b8152600401610edf90617108565b3360009081526019602052604081208054839290613476908490617b8f565b909155505060405133907ff7aaf024511d9982df8cd0d437c71c30106e6848cd1ba3d288d7a9c0e276aeda906134ad908490616a83565b60405180910390a250565b60265481565b60006134c982614db8565b6134e55760405162461bcd60e51b8152600401610edf90617507565b60008281526023602052604090206005015461350090614200565b1580156117af575050600090815260236020526040902060020154151590565b60155490565b6000816040516020016135399190616a8c565b60405160208183030381529060405280519060200120836040516020016135609190616a8c565b604051602081830303815290604052805190602001201415613584575060016117af565b5060006117af565b600061359782614db8565b6135b35760405162461bcd60e51b8152600401610edf90617507565b506001600160a01b03919091166000908152600e60209081526040808320938352929052205460ff1690565b60008042416040516020016135f49190616a44565b6040516020818303038152906040528051906020012060001c6136179190617ba7565b44613620611b86565b6040516020016136309190616a83565b60408051601f1981840301815291905280516020909101206136529042617b8f565b61365c9190617b8f565b6136669190617b8f565b6040516020016136769190616a83565b60408051601f19818403018152919052805160209091012091505090565b601f546001600160a01b031681565b601d8181548110611a1757600080fd5b6001600160a01b038082166000908152601660209081526040808320815161014081018352815486168152600182015490951692850192909252600282015490840152600381015460ff161515606084015260048101546080840152600581015460a0840152600681018054929384938493919260c084019161373590617c21565b80601f016020809104026020016040519081016040528092919081815260200182805461376190617c21565b80156137ae5780601f10613783576101008083540402835291602001916137ae565b820191906000526020600020905b81548152906001019060200180831161379157829003601f168201915b5050509183525050600782015460ff8082161515602084015261010090910416151560408201526008909101546060918201528101519091501580156137fe57506137fc816040015161176d565b155b1561380857600191505b5092915050565b60008282604051602001613393929190616aa8565b60606000821161383357600080fd5b6000416040516020016138469190616a44565b6040516020818303038152906040528051906020012060001c613867611b86565b6040516020016138779190616a83565b60408051601f1981840301815291905280516020909101206138999042617b8f565b6138a39190617b8f565b6040516020016138b39190616a83565b6040516020818303038152906040528051906020012060001c90506000846001600160401b038111156138f657634e487b7160e01b600052604160045260246000fd5b60405190808252806020026020018201604052801561391f578160200160208202803683370190505b5090506000805b86821015613a205760008661393f63017efeeb87617bda565b83604051602001613951929190616aa8565b6040516020818303038152906040528051906020012060001c6139749190617c77565b90506000805b848110156139cc57828682815181106139a357634e487b7160e01b600052603260045260246000fd5b602002602001015114156139ba57600191506139cc565b806139c481617c5c565b91505061397a565b5080613a0c57818585815181106139f357634e487b7160e01b600052603260045260246000fd5b6020908102919091010152613a09846001617b8f565b93505b613a17836001617b8f565b92505050613926565b509095945050505050565b613a33615284565b6001600160a01b0316613a446130fd565b6001600160a01b031614613a6a5760405162461bcd60e51b8152600401610edf90617392565b600155565b6060600082118015613a815750818311155b8015613a8e575060018310155b613aaa5760405162461bcd60e51b8152600401610edf90616fc9565b6000826001600160401b03811115613ad257634e487b7160e01b600052604160045260246000fd5b604051908082528060200260200182016040528015613afb578160200160208202803683370190505b5090506000846001600160401b03811115613b2657634e487b7160e01b600052604160045260246000fd5b604051908082528060200260200182016040528015613b4f578160200160208202803683370190505b5090506000613b65613b6084616147565b61619d565b905060005b86811015613a2057818181518110613b9257634e487b7160e01b600052603260045260246000fd5b6020026020010151838281518110613bba57634e487b7160e01b600052603260045260246000fd5b602090810291909101015280613bcf81617c5c565b915050613b6a565b6000613be1614f28565b60045433600090815260196020526040902054811115613c235733600090815260196020526040812054613c169083906150b0565b9050613c21816133b7565b505b60005b8751811015613ef6576000888281518110613c5157634e487b7160e01b600052603260045260246000fd5b602002602001015190506000888884818110613c7d57634e487b7160e01b600052603260045260246000fd5b9050602002810190613c8f9190617af3565b8080601f016020809104026020016040519081016040528093929190818152602001838380828437600092018290525033808252601860209081526040808420601554815460018101835591865283862090910155805160e0810182528a8152918201929092524291810191909152606081018d90526080810186905260a081018c905294955060c0850193509150613d259050565b90526015546000908152601760209081526040909120825180519192613d509284929091019061636d565b506020828101516001830180546001600160a01b0319166001600160a01b03909216919091179055604083015160028301556060830151600383015560808301518051613da3926004850192019061636d565b5060a08201518051613dbf91600584019160209091019061636d565b5060c082015160068201805460ff19166001836003811115613df157634e487b7160e01b600052602160045260246000fd5b02179055505060208054600090815260239091526040902060018054908201549192501115613e35576001816001016000828254613e2f9190617b8f565b90915550505b600154816001015410613e8857600481018054600160ff19909116811761ff00191690915560208054600090613e6c908490617b8f565b9091555050601554602080546000908152602390915260409020555b613e90611a31565b601554613e9e906001617b8f565b60158190556040513391907fb819ca9ac369919119f75ec7363dd954f75bcfa75f9245647e03da413be0d58290613ed89087908790616ca5565b60405180910390a35050508080613eee90617c5c565b915050613c26565b50600160246000828254613f0a9190617b8f565b9091555050601554979650505050505050565b613f25615284565b6001600160a01b0316613f366130fd565b6001600160a01b031614613f5c5760405162461bcd60e51b8152600401610edf90617392565b602d80546001600160a01b0319166001600160a01b0392909216919091179055565b6000613f8982614db8565b613fa55760405162461bcd60e51b8152600401610edf90617507565b5060009081526023602052604090206005015490565b600c5481565b60196020526000908152604090205481565b60025481565b60045481565b60085481565b600073__$0947e710b66d7779e1d561254425e1375a$__6369810158601361400d868661337e565b6040518363ffffffff1660e01b815260040161402a929190617925565b60206040518083038186803b15801561404257600080fd5b505af4158015614056573d6000803e3d6000fd5b505050506040513d601f19601f8201168201806040525081019061407a919061689e565b9392505050565b6000828152601e602090815260408083208054825181850281018501909352808352849384939291908301828280156140e357602002820191906000526020600020905b81546001600160a01b031681526001909101906020018083116140c5575b5050505050905060005b815181101561415257846001600160a01b031682828151811061412057634e487b7160e01b600052603260045260246000fd5b60200260200101516001600160a01b031614156141405760019250614152565b8061414a81617c5c565b9150506140ed565b5090949350505050565b600e60209081526000928352604080842090915290825290205460ff1681565b60225481565b601a602052816000526040600020818154811061312857600080fd5b600f60209081526000928352604080842090915290825290205481565b600073__$0947e710b66d7779e1d561254425e1375a$__636981015860136141e3868661337e565b6040518363ffffffff1660e01b815260040161402a9291906178d9565b421190565b61420d616455565b61421682614db8565b61421f57600080fd5b60008281526023602090815260409182902082516101c0810184528154815260018201549281019290925260028101549282019290925260038201546060820152600482015460ff808216151560808401526101008083048216151560a08501526201000090920416151560c0830152600583015460e083015260068301549082015260078201546101208201526008820154610140820152600982018054919291610160840191906142d190617c21565b80601f01602080910402602001604051908101604052809291908181526020018280546142fd90617c21565b801561434a5780601f1061431f5761010080835404028352916020019161434a565b820191906000526020600020905b81548152906001019060200180831161432d57829003601f168201915b5050509183525050600a8201546020820152600b82015460409091019060ff1660038111156127cc57634e487b7160e01b600052602160045260246000fd5b614391615284565b6001600160a01b03166143a26130fd565b6001600160a01b0316146143c85760405162461bcd60e51b8152600401610edf90617392565b600255565b6143d5615284565b6001600160a01b03166143e66130fd565b6001600160a01b03161461440c5760405162461bcd60e51b8152600401610edf90617392565b602b80546001600160a01b0319166001600160a01b0392909216919091179055565b614436615284565b6001600160a01b03166144476130fd565b6001600160a01b03161461446d5760405162461bcd60e51b8152600401610edf90617392565b602a80546001600160a01b0319166001600160a01b0392909216919091179055565b3360009081526019602052604090205490565b6060600082116144b157600080fd5b6000826001600160401b038111156144d957634e487b7160e01b600052604160045260246000fd5b604051908082528060200260200182016040528015614502578160200160208202803683370190505b5090506000614513613b6083616147565b949350505050565b606061452682614db8565b61452f57600080fd5b6000828152602360205260409020600901805461454b90617c21565b80601f016020809104026020016040519081016040528092919081815260200182805461457790617c21565b801561254f5780601f106145995761010080835404028352916020019161254f565b820191906000526020600020905b8154815290600101906020018083116145a75750939695505050505050565b60055481565b6001600160a01b031660009081526016602052604090206007015460ff1690565b60006146116145fb33612cf9565b33600090815260196020526040902054906150b0565b9050818110156146335760405162461bcd60e51b8152600401610edf906174c0565b602a54604051630895993360e11b81526001600160a01b039091169063112b3266906146659085903390600401617a18565b602060405180830381600087803b15801561467f57600080fd5b505af1158015614693573d6000803e3d6000fd5b505050506040513d601f19601f820116820180604052508101906146b79190616794565b6146d35760405162461bcd60e51b8152600401610edf90617730565b33600090815260196020526040812080548492906146f2908490617bda565b909155505060405133907ffaeb7dbb9992397d26ea1944efd40c80b40f702faf69b46c67ad10aba68ccb7990614729908590616a83565b60405180910390a25050565b61473d615284565b6001600160a01b031661474e6130fd565b6001600160a01b0316146147745760405162461bcd60e51b8152600401610edf90617392565b600555565b60285481565b606061478a82614db8565b6147a65760405162461bcd60e51b8152600401610edf90617507565b600082815260236020908152604080832081516101c0810183528154815260018201549381019390935260028101549183019190915260038101546060830152600481015460ff808216151560808501526101008083048216151560a08601526201000090920416151560c0840152600582015460e0840152600682015490830152600781015461012083015260088101546101408301526009810180546101608401919061485490617c21565b80601f016020809104026020016040519081016040528092919081815260200182805461488090617c21565b80156148cd5780601f106148a2576101008083540402835291602001916148cd565b820191906000526020600020905b8154815290600101906020018083116148b057829003601f168201915b5050509183525050600a8201546020820152600b82015460409091019060ff16600381111561490c57634e487b7160e01b600052602160045260246000fd5b600381111561492b57634e487b7160e01b600052602160045260246000fd5b9052506020810151600154919250906000906001600160401b0381111561496257634e487b7160e01b600052604160045260246000fd5b60405190808252806020026020018201604052801561499557816020015b60608152602001906001900390816149805790505b50905060005b828110156117625783516000906149b3908390617b8f565b6000818152601760205260408120805492935090916149d190617c21565b80601f01602080910402602001604051908101604052809291908181526020018280546149fd90617c21565b8015614a4a5780601f10614a1f57610100808354040283529160200191614a4a565b820191906000526020600020905b815481529060010190602001808311614a2d57829003601f168201915b5050505050905080848481518110614a7257634e487b7160e01b600052603260045260246000fd5b602002602001018190525050508080614a8a90617c5c565b91505061499b565b60215481565b60245481565b614aa6615284565b6001600160a01b0316614ab76130fd565b6001600160a01b031614614add5760405162461bcd60e51b8152600401610edf90617392565b6001600160a01b038116614b035760405162461bcd60e51b8152600401610edf90616f83565b6128d6816160f7565b6001600160a01b038116600090815260186020908152604080832080548251818502810185019093528083528493830182828015614b6957602002820191906000526020600020905b815481526020019060010190808311614b55575b505050505090508060018251614b7f9190617bda565b81518110614b9d57634e487b7160e01b600052603260045260246000fd5b6020026020010151915050919050565b6000838383604051602001614bc493929190616bfb565b6040516020818303038152906040528051906020012090509392505050565b60245490565b614bf1614f28565b336000908152601660205260409020601c54601b546103e891614c1391617b8f565b10614c305760405162461bcd60e51b8152600401610edf90617644565b600781015460ff1615614c555760405162461bcd60e51b8152600401610edf90616d7d565b60045433600090815260196020526040902054429190811115614c9a5733600090815260196020526040812054614c8d9083906150b0565b9050614c98816133b7565b505b33600090815260196020526040902054811115614cc95760405162461bcd60e51b8152600401610edf90616e05565b614cd233615214565b614d1957601b80546001810182556000919091527f3ad8aa4f87544323a9d1e5dd902f40c356527a7955687113db5f9a85ad579dc10180546001600160a01b031916331790555b8254336001600160a01b03199182168117855560018501805490921617905560058301829055600783015460ff16614d615760078301805460ff191660011790554260088401555b600160246000828254614d749190617b8f565b909155505060405133907f439d77b7534ec3108fc6143bd4fbabde0b9f2bb54f7b0730d1f70dd2135b765f90614dab908590616a83565b60405180910390a2505050565b602054101590565b3360009081526016602052604090206007015460ff1690565b60265490565b6029546001600160a01b031681565b6001600160a01b038082166000908152601660209081526040808320815161014081018352815486168152600182015490951692850192909252600282015490840152600381015460ff161515606084015260048101546080840152600581015460a08401526006810180549293849390929160c0840191614e6f90617c21565b80601f0160208091040260200160405190810160405280929190818152602001828054614e9b90617c21565b8015614ee85780601f10614ebd57610100808354040283529160200191614ee8565b820191906000526020600020905b815481529060010190602001808311614ecb57829003601f168201915b5050509183525050600782015460ff8082161515602084015261010090910416151560408083019190915260089092015460609091015201519392505050565b601f546001600160a01b0316614f505760405162461bcd60e51b8152600401610edf9061753e565b601f546040516000916001600160a01b031690614f71903390602401616ab6565b60408051601f198184030181529181526020820180516001600160e01b0316631f5ac9c560e11b17905251614fa69190616a8c565b6000604051808303816000865af19150503d8060008114614fe3576040519150601f19603f3d011682016040523d82523d6000602084013e614fe8565b606091505b5050601f546040519192506000916001600160a01b0390911690615010903390602401616ab6565b60408051601f198184030181529181526020820180516001600160e01b03166358563d2160e01b179052516150459190616a8c565b6000604051808303816000865af19150503d8060008114615082576040519150601f19603f3d011682016040523d82523d6000602084013e615087565b606091505b5050905081806150945750805b612cf55760405162461bcd60e51b8152600401610edf90616e6c565b600061407a8284617bda565b60008060005b601c5481101561513057836001600160a01b0316601c82815481106150f757634e487b7160e01b600052603260045260246000fd5b6000918252602090912001546001600160a01b0316141561511e5760019150809250615130565b8061512881617c5c565b9150506150c2565b50801561520f57601c805461514790600190617bda565b8154811061516557634e487b7160e01b600052603260045260246000fd5b600091825260209091200154601c80546001600160a01b03909216918490811061519f57634e487b7160e01b600052603260045260246000fd5b9060005260206000200160006101000a8154816001600160a01b0302191690836001600160a01b03160217905550601c8054806151ec57634e487b7160e01b600052603160045260246000fd5b600082815260209020810160001990810180546001600160a01b03191690550190555b505050565b600080805b601b5481101561380857836001600160a01b0316601b828154811061524e57634e487b7160e01b600052603260045260246000fd5b6000918252602090912001546001600160a01b031614156152725760019150613808565b8061527c81617c5c565b915050615219565b3390565b60008060005b601b548110156152fc57836001600160a01b0316601b82815481106152c357634e487b7160e01b600052603260045260246000fd5b6000918252602090912001546001600160a01b031614156152ea57600191508092506152fc565b806152f481617c5c565b91505061528e565b50801561520f57601b805461531390600190617bda565b8154811061533157634e487b7160e01b600052603260045260246000fd5b600091825260209091200154601b80546001600160a01b03909216918490811061536b57634e487b7160e01b600052603260045260246000fd5b9060005260206000200160006101000a8154816001600160a01b0302191690836001600160a01b03160217905550601b8054806151ec57634e487b7160e01b600052603160045260246000fd5b60005b601d54811015615443576000601d82815481106153e857634e487b7160e01b600052603260045260246000fd5b60009182526020808320909101546001600160a01b03168083526016909152604090912060078101805461ffff1916905590915061542582615288565b61542e826150bc565b5050808061543b90617c5c565b9150506153bb565b50612d6c601d60006164e3565b6154598161176d565b806154735750600081815260236020526040902060030154155b61548f5760405162461bcd60e51b8152600401610edf906173c7565b600081815260236020526040902060040154610100900460ff16156154c65760405162461bcd60e51b8152600401610edf906175ba565b60006154d182611d3f565b6000838152601e602090815260408083208054825181850281018501909352808352949550929390929183018282801561553457602002820191906000526020600020905b81546001600160a01b03168152600190910190602001808311615516575b50505050509050600081516001600160401b0381111561556457634e487b7160e01b600052604160045260246000fd5b60405190808252806020026020018201604052801561559757816020015b60608152602001906001900390816155825790505b509050600082516001600160401b038111156155c357634e487b7160e01b600052604160045260246000fd5b6040519080825280602002602001820160405280156155ec578160200160208202803683370190505b50905060005b8351811015615a1d57600084828151811061561d57634e487b7160e01b600052603260045260246000fd5b6020908102919091018101516000898152600f835260408082206001600160a01b03841680845290855281832054600e86528284208d85528652828420546010875283852092855291909552908220805493955060ff9091169261568090617c21565b80601f01602080910402602001604051908101604052809291908181526020018280546156ac90617c21565b80156156f95780601f106156ce576101008083540402835291602001916156f9565b820191906000526020600020905b8154815290600101906020018083116156dc57829003601f168201915b505050505090508087868151811061572157634e487b7160e01b600052603260045260246000fd5b60209081029190910181019190915260008b81526011825260408082206001600160a01b038816835290925220548651819088908890811061577357634e487b7160e01b600052603260045260246000fd5b602002602001018181525050615788856150bc565b6001600160a01b038516600090815260166020526040902083156159be576001600160a01b0386166000908152601660205260409020600301805460ff191660019081179091558b15151480156157df5750846001145b806157f457508a1580156157f4575084600114155b1561593b57602b54600b54604051630db6cc8560e11b81526001600160a01b0390921691631b6d990a9161582c918a90600401617a2f565b602060405180830381600087803b15801561584657600080fd5b505af115801561585a573d6000803e3d6000fd5b505050506040513d601f19601f8201168201806040525081019061587e9190616794565b61589a5760405162461bcd60e51b8152600401610edf906171b4565b602c54600954604051633832942560e21b81526001600160a01b039092169163e0ca5094916158cd918a90600401617a18565b602060405180830381600087803b1580156158e757600080fd5b505af11580156158fb573d6000803e3d6000fd5b505050506040513d601f19601f8201168201806040525081019061591f9190616794565b61593b5760405162461bcd60e51b8152600401610edf906170b9565b600781015460ff16156159b95761595186615214565b15801561596857506007810154610100900460ff16155b156159b957601b80546001810182556000919091527f3ad8aa4f87544323a9d1e5dd902f40c356527a7955687113db5f9a85ad579dc10180546001600160a01b0319166001600160a01b0388161790555b615a04565b6007810154610100900460ff16806159d4575083155b15615a0457600781015460ff1615615a045760078101805460ff191690556159fb86615288565b615a04866150bc565b5050505050508080615a1590617c5c565b9150506155f2565b506000615a456064600c548651615a349190617bbb565b615a3e9190617ba7565b6001616077565b9050600083600081518110615a6a57634e487b7160e01b600052603260045260246000fd5b6020026020010151905060005b8451811015615b60576000805b8651811015615b1557615ae5878481518110615ab057634e487b7160e01b600052603260045260246000fd5b6020026020010151888381518110615ad857634e487b7160e01b600052603260045260246000fd5b6020026020010151613526565b15615b0357615af5600183617b8f565b9150848210615b0357615b15565b80615b0d81617c5c565b915050615a84565b50838110615b4d57858281518110615b3d57634e487b7160e01b600052603260045260246000fd5b6020026020010151925050615b60565b5080615b5881617c5c565b915050615a77565b50600083600081518110615b8457634e487b7160e01b600052603260045260246000fd5b6020026020010151905060005b8451811015615c73576000805b8651811015615c2857868181518110615bc757634e487b7160e01b600052603260045260246000fd5b6020026020010151878481518110615bef57634e487b7160e01b600052603260045260246000fd5b60200260200101511415615c1657615c08600183617b8f565b9150858210615c1657615c28565b80615c2081617c5c565b915050615b9e565b50848110615c6057858281518110615c5057634e487b7160e01b600052603260045260246000fd5b6020026020010151925050615c73565b5080615c6b81617c5c565b915050615b91565b50600088815260236020908152604090912060048101805461ff0019166101001790558351615caa9260099092019185019061636d565b506000888152602360205260409020600a018190558615615f5457602b54600b5460008a81526017602052604090819020600101549051630db6cc8560e11b81526001600160a01b0393841693631b6d990a93615d0e939092911690600401617a2f565b602060405180830381600087803b158015615d2857600080fd5b505af1158015615d3c573d6000803e3d6000fd5b505050506040513d601f19601f82011682018060405250810190615d609190616794565b615d7c5760405162461bcd60e51b8152600401610edf906176e3565b602c5460095460008a81526017602052604090819020600101549051633832942560e21b81526001600160a01b039384169363e0ca509493615dc5939092911690600401617a18565b602060405180830381600087803b158015615ddf57600080fd5b505af1158015615df3573d6000803e3d6000fd5b505050506040513d601f19601f82011682018060405250810190615e179190616794565b615e335760405162461bcd60e51b8152600401610edf9061756b565b6000888152602360205260408120600b01805460ff191660019081179091556025805491929091615e65908490617b8f565b9091555050602e546040516348257dc960e01b81526001600160a01b03909116906348257dc990615e9a908b90600401616a83565b600060405180830381600087803b158015615eb457600080fd5b505af1925050508015615ec5575060015b615f36573d808015615ef3576040519150601f19603f3d011682016040523d82523d6000602084013e615ef8565b606091505b507f4b87bbd93ba65ede1e2efeca735d9f7a6720bf7d6db0a8355b17dba5b64e578381604051615f289190616be8565b60405180910390a150615f4f565b600160246000828254615f499190617b8f565b90915550505b615f89565b6000888152602360205260408120600b01805460ff191660021790556026805460019290615f83908490617b8f565b90915550505b600160246000828254615f9c9190617b8f565b90915550506000888152602360205260408120600201546027805491929091615fc6908490617b8f565b90915550506000888152602360205260408120600301546028805491929091615ff0908490617b8f565b909155505060008881526017602052604090819020600181015491516001600160a01b03909216917f43916c3ae75995d24cc89b466ed08e6dba74d325f7957f9b37b05f150e12918e9161604391616cd3565b60405180910390a25050505050505050565b600061407a8284617b8f565b6000818310616070578161407a565b5090919050565b600081831015616070578161407a565b600080805b601c5481101561380857836001600160a01b0316601c82815481106160c157634e487b7160e01b600052603260045260246000fd5b6000918252602090912001546001600160a01b031614156160e55760019150613808565b806160ef81617c5c565b91505061608c565b600080546001600160a01b038381166001600160a01b0319831681178455604051919092169283917f8be0079c531659141344cd1fd0a4f28419497f9722a3daafe3b4186f6b6457e09190a35050565b805160609060005b81811015616195578084828151811061617857634e487b7160e01b600052603260045260246000fd5b60209081029190910101528061618d81617c5c565b91505061614f565b509192915050565b606060008251116161ad57600080fd5b81518060005b81811015616328576000836161c66135df565b8784815181106161e657634e487b7160e01b600052603260045260246000fd5b60200260200101516040516020016161ff929190616aa8565b6040516020818303038152906040528051906020012060001c6162229190617c77565b61622d906001617b8f565b905060008661623d600184617bda565b8151811061625b57634e487b7160e01b600052603260045260246000fd5b60200260200101519050866001866162739190617bda565b8151811061629157634e487b7160e01b600052603260045260246000fd5b6020026020010151876001846162a79190617bda565b815181106162c557634e487b7160e01b600052603260045260246000fd5b602090810291909101015280876162dd600188617bda565b815181106162fb57634e487b7160e01b600052603260045260246000fd5b6020908102919091010152616311600186617bda565b94505050808061632090617c5c565b9150506161b3565b50929392505050565b50805461633d90617c21565b6000825580601f1061634f57506128d6565b601f0160209004906000526020600020908101906128d691906164fd565b82805461637990617c21565b90600052602060002090601f01602090048101928261639b57600085556163e1565b82601f106163b457805160ff19168380011785556163e1565b828001600101855582156163e1579182015b828111156163e15782518255916020019190600101906163c6565b506163ed9291506164fd565b5090565b6040518060e001604052806060815260200160006001600160a01b03168152602001600081526020016000815260200160608152602001606081526020016000600381111561645057634e487b7160e01b600052602160045260246000fd5b905290565b604051806101c00160405280600081526020016000815260200160008152602001600081526020016000151581526020016000151581526020016000151581526020016000815260200160008152602001600081526020016000815260200160608152602001600081526020016000600381111561645057634e487b7160e01b600052602160045260246000fd5b50805460008255906000526020600020908101906128d691905b5b808211156163ed57600081556001016164fe565b80356001600160a01b038116811461176857600080fd5b60008083601f84011261653a578182fd5b5081356001600160401b03811115616550578182fd5b602083019150836020808302850101111561656a57600080fd5b9250929050565b600082601f830112616581578081fd5b81356001600160401b0381111561659a5761659a617cb7565b6165ad601f8201601f1916602001617b37565b8181528460208386010111156165c1578283fd5b816020850160208301379081016020019190915292915050565b6000602082840312156165ec578081fd5b61407a82616512565b60008060408385031215616607578081fd5b61661083616512565b946020939093013593505050565b600080600080600060808688031215616635578081fd5b85356001600160401b038082111561664b578283fd5b818801915088601f83011261665e578283fd5b8135602061667361666e83617b60565b617b37565b82815281810190858301875b858110156166a8576166968f8684358b0101616571565b8452928401929084019060010161667f565b50909a505050890135925050808211156166c0578283fd5b6166cc89838a01616529565b90965094506040880135935060608801359150808211156166eb578283fd5b506166f888828901616571565b9150509295509295909350565b60006020808385031215616717578182fd5b82356001600160401b0381111561672c578283fd5b8301601f8101851361673c578283fd5b803561674a61666e82617b60565b8181528381019083850185840285018601891015616766578687fd5b8694505b8385101561678857803583526001949094019391850191850161676a565b50979650505050505050565b6000602082840312156167a5578081fd5b8151801515811461407a578182fd5b6000806000604084860312156167c8578283fd5b83356001600160401b03808211156167de578485fd5b818601915086601f8301126167f1578485fd5b8135818111156167ff578586fd5b876020828501011115616810578586fd5b6020928301989097509590910135949350505050565b60008060408385031215616838578182fd5b82356001600160401b038082111561684e578384fd5b61685a86838701616571565b9350602085013591508082111561686f578283fd5b5061687c85828601616571565b9150509250929050565b600060208284031215616897578081fd5b5035919050565b600060208284031215611b9c578081fd5b600080604083850312156168c1578182fd5b823591506168d160208401616512565b90509250929050565b600080600080608085870312156168ef578182fd5b843593506020850135925060408501356001600160401b03811115616912578283fd5b61691e87828801616571565b949793965093946060013593505050565b60008060408385031215616941578182fd5b50508035926020909101359150565b60008060008060808587031215616965578182fd5b843593506020850135925061697c60408601616512565b9396929550929360600135925050565b6000806000606084860312156169a0578081fd5b505081359360208301359350604090920135919050565b15159052565b600081518084526169d5816020860160208601617bf1565b601f01601f19169290920160200192915050565b60048110616a0757634e487b7160e01b600052602160045260246000fd5b9052565b600a8152690c6dedadad2e890c2e6d60b31b602082015260400190565b60098152686e756d546f6b656e7360b81b602082015260400190565b60609190911b6bffffffffffffffffffffffff1916815260140190565b60609290921b6bffffffffffffffffffffffff19168252601482015260340190565b90815260200190565b60008251616a9e818460208701617bf1565b9190910192915050565b918252602082015260400190565b6001600160a01b0391909116815260200190565b6001600160a01b038b811682528a1660208201526040810189905287151560608201526080810187905260a0810186905261014060c08201819052600090616b14838201886169bd565b95151560e0840152505091151561010083015261012090910152979650505050505050565b6000602080830181845280855180835260408601915060408482028701019250838701855b82811015616b8c57603f19888603018452616b7a8583516169bd565b94509285019290850190600101616b5e565b5092979650505050505050565b6020808252825182820181905260009190848201906040850190845b81811015616bd157835183529284019291840191600101616bb5565b50909695505050505050565b901515815260200190565b60006020825261407a60208301846169bd565b6000604082528360408301528385606084013780606085840101526060601f19601f8601168301019050826020830152949350505050565b600060e08252616c4660e083018a6169bd565b6001600160a01b038916602084015260408301889052606083018790528281036080840152616c7581876169bd565b905082810360a0840152616c8981866169bd565b915050616c9960c08301846169e9565b98975050505050505050565b600060408252616cb860408301856169bd565b8281036020840152616cca81856169bd565b95945050505050565b6000602080835281845483600282049050600180831680616cf557607f831692505b858310811415616d1357634e487b7160e01b87526022600452602487fd5b616d1f83878a01616a83565b818015616d335760018114616d4457616d6e565b60ff19861682528782019650616d6e565b616d4d8b617b83565b895b86811015616d6857815484820152908501908901616d4f565b83019750505b50949998505050505050505050565b6020808252601c908201527f576f726b657220697320616c7265616479207265676973746572656400000000604082015260600190565b60208082526031908201527f676976656e204461746142617463682073686f756c6420626520415050524f5660408201527011510b08185b99081a5d081a5cc81b9bdd607a1b606082015260800190565b60208082526041908201527f576f726b657220686173206e6f7420656e6f75676820285f6e756d546f6b656e60408201527f732920696e206869732053706f745374616b6564546f6b656e42616c616e63656060820152600160fd1b608082015260a00190565b60208082526025908201527f72656365697665722072656a6563746564205f7265747269657665534675656c6040820152640818d85b1b60da1b606082015260800190565b6020808252602f908201527f636f6d6d697420706572696f64206e6565647320746f206265206f70656e206660408201526e1bdc881d1a1a5cc818985d18da1259608a1b606082015260800190565b6020808252605c908201527f4e6f74207468652073616d6520766f7465207468616e2077686174207761732060408201527f636f6d6d697465642c20696d706f737369626c6520746f206d6174636820776960608201527f746820676976656e205f73616c742026205f766f74654f7074696f6e00000000608082015260a00190565b60208082526026908201527f4f776e61626c653a206e6577206f776e657220697320746865207a65726f206160408201526564647265737360d01b606082015260800190565b60208082526029908201527f6b206f72204e20617265206e6f74204f4b20647572696e672072616e646f6d2060408201526839b2b632b1ba34b7b760b91b606082015260800190565b6020808252602a908201527f4661696c20647572696e6720616c6c6f636174696f6e3a206e6f7420656e6f75604082015269676820776f726b65727360b01b606082015260800190565b60208082526038908201527f55736572206e6565647320746f20626520616c6c6f636174656420746f20746860408201527f697320626174636820746f20636f6d6d6974206f6e2069740000000000000000606082015260800190565b6020808252602f908201527f636f756c64206e6f742072657761726420746f6b656e20696e2054726967676560408201526e3921b432b1b5a9b837ba161018973160891b606082015260800190565b6020808252603d908201527f436f756c64206e6f74207265717565737420656e6f75676820616c6c6f63617460408201527f6564207374616b652c2072657175657374566f74696e67526967687473000000606082015260800190565b6020808252602f908201527f5573657220686173206e6f7420636f6d6d69746564206265666f72652c20746860408201526e1d5cc818d85b89dd081c995d99585b608a1b606082015260800190565b6020808252602d908201527f636f756c64206e6f74207265776172642052455020696e20547269676765724360408201526c6865636b53706f742c20312e6160981b606082015260800190565b60208082526039908201527f646c6c4d61703a20646f6573206e6f7420636f696e7461696e205f446174614260408201527f61746368496420666f7220746865206d73672073656e64657200000000000000606082015260800190565b6020808252601490820152733737ba1030903b30b634b2103837b9b4ba34b7b760611b604082015260600190565b6020808252603a908201527f576f726b65722063757272656e746c792068617320776f726b20616c6c6f636160408201527f7465642c2063616e277420626520756e72656769737465726564000000000000606082015260800190565b6020808252603b908201527f43616e277420616c6c6f6361746520776f726b2c207468652063757272656e7460408201527f20626174636820697320616c726561647920616c6c6f63617465640000000000606082015260800190565b6020808252602c908201527f576f726b6572206973206e6f74207265676973746572656420736f2063616e2760408201526b3a103ab73932b3b4b9ba32b960a11b606082015260800190565b6020808252818101527f4f776e61626c653a2063616c6c6572206973206e6f7420746865206f776e6572604082015260600190565b6020808252603a908201527f5f446174614261746368496420686173206e6f7420656e6465642c206f72206e60408201527f6f7420657665727920766f74657273206861766520766f746564000000000000606082015260800190565b60208082526036908201527f43616e277420616c6c6f6361746520776f726b2c207468652063757272656e74604082015275206261746368206973206e6f7420636f6d706c65746560501b606082015260800190565b60208082526026908201527f52657665616c20706572696f64206e6f74206f70656e20666f7220746869732060408201526511185d18525160d21b606082015260800190565b60208082526027908201527f617661696c61626c65546f6b656e732073686f756c64206265203e3d205f6e756040820152666d546f6b656e7360c81b606082015260800190565b60208082526017908201527f5f4461746142617463684964206d757374206578697374000000000000000000604082015260600190565b6020808252601390820152720c081059191c995cdcc8139bdd0815985b1a59606a1b604082015260600190565b6020808252602f908201527f636f756c64206e6f742072657761726420746f6b656e20696e2054726967676560408201526e3921b432b1b5a9b837ba161019173160891b606082015260800190565b60208082526021908201527f5f446174614261746368496420697320616c72656164792076616c69646174656040820152601960fa1b606082015260800190565b60208082526029908201527f557365722068617320616c726561647920636f6d6d6974656420746f207468696040820152681cc818985d18da125960ba1b606082015260800190565b60208082526022908201527f4d6178696d756d207265676973746572656420776f726b65727320616c726561604082015261647960f01b606082015260800190565b60208082526037908201527f75736572206d757374206861766520656e6f75676820766f74696e672072696760408201527f68747320616b6120616c6c6f6361746564207374616b65000000000000000000606082015260800190565b6020808252602d908201527f636f756c64206e6f74207265776172642052455020696e20547269676765724360408201526c6865636b53706f742c20322e6160981b606082015260800190565b6020808252603b908201527f436f756c64206e6f74207769746864726177566f74696e67526967687473207460408201527f68726f7567682050726f78795374616b654465616c6c6f636174650000000000606082015260800190565b6020808252600f908201526e11185d18481b5d5cdd08195e1a5cdd608a1b604082015260600190565b6020808252602c908201527f557365722068617320616c72656164792072657665616c65642c20746875732060408201526b18d85b89dd081c995d99585b60a21b606082015260800190565b60006020825282516020830152602083015160408301526040830151606083015260608301516080830152608083015161783f60a08401826169b7565b5060a083015161785260c08401826169b7565b5060c083015161786560e08401826169b7565b5060e0830151610100838101919091528301516101208084019190915283015161014080840191909152830151610160808401919091528301516101c06101808085018290526178b96101e08601846169bd565b908601516101a086810191909152860151909250614152828601826169e9565b60008382528260208301526060604083015261451360608301616a0b565b60008482528360208301526080604083015261791560808301616a0b565b9050826060830152949350505050565b60008382528260208301526060604083015261451360608301616a28565b60008482528360208301526080604083015261791560808301616a28565b93845260208401929092526040830152606082015260800190565b600060208252825160e060208401526179996101008401826169bd565b905060018060a01b03602085015116604084015260408401516060840152606084015160808401526080840151601f19808584030160a08601526179dd83836169bd565b925060a08601519150808584030160c0860152506179fb82826169bd565b91505060c0840151617a1060e08501826169e9565b509392505050565b9182526001600160a01b0316602082015260400190565b9182526001600160a01b031660208201526000604082015260600190565b9283526020830191909152604082015260600190565b60008f82528e60208301528d60408301528c60608301528b151560808301528a151560a0830152617a9760c083018b6169b7565b8860e08301528761010083015286610120830152856101408301526101c0610160830152617ac96101c08301866169bd565b905083610180830152617ae06101a08301846169e9565b9f9e505050505050505050505050505050565b6000808335601e19843603018112617b09578283fd5b8301803591506001600160401b03821115617b22578283fd5b60200191503681900382131561656a57600080fd5b6040518181016001600160401b0381118282101715617b5857617b58617cb7565b604052919050565b60006001600160401b03821115617b7957617b79617cb7565b5060209081020190565b60009081526020902090565b60008219821115617ba257617ba2617c8b565b500190565b600082617bb657617bb6617ca1565b500490565b6000816000190483118215151615617bd557617bd5617c8b565b500290565b600082821015617bec57617bec617c8b565b500390565b60005b83811015617c0c578181015183820152602001617bf4565b83811115617c1b576000848401525b50505050565b600281046001821680617c3557607f821691505b60208210811415617c5657634e487b7160e01b600052602260045260246000fd5b50919050565b6000600019821415617c7057617c70617c8b565b5060010190565b600082617c8657617c86617ca1565b500690565b634e487b7160e01b600052601160045260246000fd5b634e487b7160e01b600052601260045260246000fd5b634e487b7160e01b600052604160045260246000fdfea2646970667358221220ccbca1f3b3f673cb3671177054042e552c47849f6380ee319b6e5636c2f91add64736f6c63430008000033",
  "linkReferences": {
    "contracts/worksystems/DataSpotting.sol": {
      "AttributeStore": [
        {
          "length": 20,
          "start": 9454
        },
        {
          "length": 20,
          "start": 9560
        },
        {
          "length": 20,
          "start": 16821
        },
        {
          "length": 20,
          "start": 17291
        }
      ],
      "DLL": [
        {
          "length": 20,
          "start": 4579
        },
        {
          "length": 20,
          "start": 7574
        },
        {
          "length": 20,
          "start": 8974
        },
        {
          "length": 20,
          "start": 9136
        },
        {
          "length": 20,
          "start": 9331
        },
        {
          "length": 20,
          "start": 13186
        },
        {
          "length": 20,
          "start": 13366
        }
      ]
    }
  },
  "deployedLinkReferences": {
    "contracts/worksystems/DataSpotting.sol": {
      "AttributeStore": [
        {
          "length": 20,
          "start": 8994
        },
        {
          "length": 20,
          "start": 9100
        },
        {
          "length": 20,
          "start": 16361
        },
        {
          "length": 20,
          "start": 16831
        }
      ],
      "DLL": [
        {
          "length": 20,
          "start": 4119
        },
        {
          "length": 20,
          "start": 7114
        },
        {
          "length": 20,
          "start": 8514
        },
        {
          "length": 20,
          "start": 8676
        },
        {
          "length": 20,
          "start": 8871
        },
        {
          "length": 20,
          "start": 12726
        },
        {
          "length": 20,
          "start": 12906
        }
      ]
    }
  }
}