{
  "_format": "hh-sol-artifact-1",
  "contractName": "DataSpotting",
  "sourceName": "contracts/worksystems/DataSpotting.sol",
  "abi": [
    {
      "inputs": [
        {
          "internalType": "address",
          "name": "EXDT_token_",
          "type": "address"
        },
        {
          "internalType": "address",
          "name": "ParametersManager_",
          "type": "address"
        }
      ],
      "stateMutability": "nonpayable",
      "type": "constructor"
    },
    {
      "anonymous": false,
      "inputs": [
        {
          "indexed": false,
          "internalType": "bytes",
          "name": "bytesFailure",
          "type": "bytes"
        }
      ],
      "name": "BytesFailure",
      "type": "event"
    },
    {
      "anonymous": false,
      "inputs": [
        {
          "indexed": true,
          "internalType": "address",
          "name": "previousOwner",
          "type": "address"
        },
        {
          "indexed": true,
          "internalType": "address",
          "name": "newOwner",
          "type": "address"
        }
      ],
      "name": "OwnershipTransferred",
      "type": "event"
    },
    {
      "anonymous": false,
      "inputs": [
        {
          "indexed": true,
          "internalType": "uint256",
          "name": "epochNumber",
          "type": "uint256"
        }
      ],
      "name": "_NewEpoch",
      "type": "event"
    },
    {
      "anonymous": false,
      "inputs": [
        {
          "indexed": false,
          "internalType": "string",
          "name": "hash",
          "type": "string"
        },
        {
          "indexed": true,
          "internalType": "address",
          "name": "creator",
          "type": "address"
        }
      ],
      "name": "_SpotAccepted",
      "type": "event"
    },
    {
      "anonymous": false,
      "inputs": [
        {
          "indexed": true,
          "internalType": "uint256",
          "name": "DataID",
          "type": "uint256"
        },
        {
          "indexed": false,
          "internalType": "uint256",
          "name": "numTokens",
          "type": "uint256"
        },
        {
          "indexed": true,
          "internalType": "address",
          "name": "voter",
          "type": "address"
        }
      ],
      "name": "_SpotCheckCommitted",
      "type": "event"
    },
    {
      "anonymous": false,
      "inputs": [
        {
          "indexed": true,
          "internalType": "uint256",
          "name": "DataID",
          "type": "uint256"
        },
        {
          "indexed": false,
          "internalType": "uint256",
          "name": "numTokens",
          "type": "uint256"
        },
        {
          "indexed": false,
          "internalType": "uint256",
          "name": "votesFor",
          "type": "uint256"
        },
        {
          "indexed": false,
          "internalType": "uint256",
          "name": "votesAgainst",
          "type": "uint256"
        },
        {
          "indexed": true,
          "internalType": "uint256",
          "name": "choice",
          "type": "uint256"
        },
        {
          "indexed": true,
          "internalType": "address",
          "name": "voter",
          "type": "address"
        }
      ],
      "name": "_SpotCheckRevealed",
      "type": "event"
    },
    {
      "anonymous": false,
      "inputs": [
        {
          "indexed": true,
          "internalType": "uint256",
          "name": "DataID",
          "type": "uint256"
        },
        {
          "indexed": false,
          "internalType": "string",
          "name": "file_hash",
          "type": "string"
        },
        {
          "indexed": false,
          "internalType": "string",
          "name": "URL_domain",
          "type": "string"
        },
        {
          "indexed": true,
          "internalType": "address",
          "name": "sender",
          "type": "address"
        }
      ],
      "name": "_SpotSubmitted",
      "type": "event"
    },
    {
      "anonymous": false,
      "inputs": [
        {
          "indexed": false,
          "internalType": "uint256",
          "name": "numTokens",
          "type": "uint256"
        },
        {
          "indexed": true,
          "internalType": "address",
          "name": "voter",
          "type": "address"
        }
      ],
      "name": "_StakeAllocated",
      "type": "event"
    },
    {
      "anonymous": false,
      "inputs": [
        {
          "indexed": true,
          "internalType": "uint256",
          "name": "DataID",
          "type": "uint256"
        },
        {
          "indexed": true,
          "internalType": "address",
          "name": "voter",
          "type": "address"
        }
      ],
      "name": "_TokensRescued",
      "type": "event"
    },
    {
      "anonymous": false,
      "inputs": [
        {
          "indexed": false,
          "internalType": "uint256",
          "name": "numTokens",
          "type": "uint256"
        },
        {
          "indexed": true,
          "internalType": "address",
          "name": "voter",
          "type": "address"
        }
      ],
      "name": "_VotingRightsWithdrawn",
      "type": "event"
    },
    {
      "anonymous": false,
      "inputs": [
        {
          "indexed": true,
          "internalType": "uint256",
          "name": "batchID",
          "type": "uint256"
        },
        {
          "indexed": false,
          "internalType": "address",
          "name": "worker",
          "type": "address"
        }
      ],
      "name": "_WorkAllocated",
      "type": "event"
    },
    {
      "anonymous": false,
      "inputs": [
        {
          "indexed": true,
          "internalType": "address",
          "name": "worker",
          "type": "address"
        },
        {
          "indexed": false,
          "internalType": "uint256",
          "name": "timestamp",
          "type": "uint256"
        }
      ],
      "name": "_WorkerRegistered",
      "type": "event"
    },
    {
      "anonymous": false,
      "inputs": [
        {
          "indexed": true,
          "internalType": "address",
          "name": "worker",
          "type": "address"
        },
        {
          "indexed": false,
          "internalType": "uint256",
          "name": "timestamp",
          "type": "uint256"
        }
      ],
      "name": "_WorkerUnregistered",
      "type": "event"
    },
    {
      "inputs": [],
      "name": "AcceptedBatchsCounter",
      "outputs": [
        {
          "internalType": "uint256",
          "name": "",
          "type": "uint256"
        }
      ],
      "stateMutability": "view",
      "type": "function"
    },
    {
      "inputs": [],
      "name": "AddressManager",
      "outputs": [
        {
          "internalType": "contract IAddressManager",
          "name": "",
          "type": "address"
        }
      ],
      "stateMutability": "view",
      "type": "function"
    },
    {
      "inputs": [],
      "name": "AllTxsCounter",
      "outputs": [
        {
          "internalType": "uint256",
          "name": "",
          "type": "uint256"
        }
      ],
      "stateMutability": "view",
      "type": "function"
    },
    {
      "inputs": [],
      "name": "AllocateWork",
      "outputs": [],
      "stateMutability": "nonpayable",
      "type": "function"
    },
    {
      "inputs": [],
      "name": "AllocatedBatchCursor",
      "outputs": [
        {
          "internalType": "uint256",
          "name": "",
          "type": "uint256"
        }
      ],
      "stateMutability": "view",
      "type": "function"
    },
    {
      "inputs": [],
      "name": "AmIRegistered",
      "outputs": [
        {
          "internalType": "bool",
          "name": "passed",
          "type": "bool"
        }
      ],
      "stateMutability": "view",
      "type": "function"
    },
    {
      "inputs": [
        {
          "internalType": "string",
          "name": "_a",
          "type": "string"
        },
        {
          "internalType": "string",
          "name": "_b",
          "type": "string"
        }
      ],
      "name": "AreStringsEqual",
      "outputs": [
        {
          "internalType": "bool",
          "name": "",
          "type": "bool"
        }
      ],
      "stateMutability": "pure",
      "type": "function"
    },
    {
      "inputs": [],
      "name": "BatchCheckingCursor",
      "outputs": [
        {
          "internalType": "uint256",
          "name": "",
          "type": "uint256"
        }
      ],
      "stateMutability": "view",
      "type": "function"
    },
    {
      "inputs": [],
      "name": "COMMIT_ROUND_DURATION",
      "outputs": [
        {
          "internalType": "uint256",
          "name": "",
          "type": "uint256"
        }
      ],
      "stateMutability": "view",
      "type": "function"
    },
    {
      "inputs": [],
      "name": "CONSENSUS_WORKER_SIZE",
      "outputs": [
        {
          "internalType": "uint256",
          "name": "",
          "type": "uint256"
        }
      ],
      "stateMutability": "view",
      "type": "function"
    },
    {
      "inputs": [],
      "name": "CurrentWorkEpoch",
      "outputs": [
        {
          "internalType": "uint256",
          "name": "",
          "type": "uint256"
        }
      ],
      "stateMutability": "view",
      "type": "function"
    },
    {
      "inputs": [],
      "name": "DATA_BATCH_SIZE",
      "outputs": [
        {
          "internalType": "uint256",
          "name": "",
          "type": "uint256"
        }
      ],
      "stateMutability": "view",
      "type": "function"
    },
    {
      "inputs": [
        {
          "internalType": "uint256",
          "name": "",
          "type": "uint256"
        }
      ],
      "name": "DataBatch",
      "outputs": [
        {
          "internalType": "uint256",
          "name": "start_idx",
          "type": "uint256"
        },
        {
          "internalType": "uint256",
          "name": "counter",
          "type": "uint256"
        },
        {
          "internalType": "uint256",
          "name": "uncommited_workers",
          "type": "uint256"
        },
        {
          "internalType": "uint256",
          "name": "unrevealed_workers",
          "type": "uint256"
        },
        {
          "internalType": "bool",
          "name": "complete",
          "type": "bool"
        },
        {
          "internalType": "bool",
          "name": "checked",
          "type": "bool"
        },
        {
          "internalType": "bool",
          "name": "allocated_to_work",
          "type": "bool"
        },
        {
          "internalType": "uint256",
          "name": "commitEndDate",
          "type": "uint256"
        },
        {
          "internalType": "uint256",
          "name": "revealEndDate",
          "type": "uint256"
        },
        {
          "internalType": "uint256",
          "name": "votesFor",
          "type": "uint256"
        },
        {
          "internalType": "uint256",
          "name": "votesAgainst",
          "type": "uint256"
        },
        {
          "internalType": "string",
          "name": "batchIPFSfile",
          "type": "string"
        },
        {
          "internalType": "uint256",
          "name": "item_count",
          "type": "uint256"
        },
        {
          "internalType": "enum DataSpotting.DataStatus",
          "name": "status",
          "type": "uint8"
        }
      ],
      "stateMutability": "view",
      "type": "function"
    },
    {
      "inputs": [
        {
          "internalType": "uint256",
          "name": "_DataBatchId",
          "type": "uint256"
        }
      ],
      "name": "DataCommitEndDate",
      "outputs": [
        {
          "internalType": "uint256",
          "name": "commitEndDate",
          "type": "uint256"
        }
      ],
      "stateMutability": "view",
      "type": "function"
    },
    {
      "inputs": [
        {
          "internalType": "uint256",
          "name": "_DataBatchId",
          "type": "uint256"
        }
      ],
      "name": "DataEnded",
      "outputs": [
        {
          "internalType": "bool",
          "name": "ended",
          "type": "bool"
        }
      ],
      "stateMutability": "view",
      "type": "function"
    },
    {
      "inputs": [
        {
          "internalType": "uint256",
          "name": "_DataBatchId",
          "type": "uint256"
        }
      ],
      "name": "DataExists",
      "outputs": [
        {
          "internalType": "bool",
          "name": "exists",
          "type": "bool"
        }
      ],
      "stateMutability": "view",
      "type": "function"
    },
    {
      "inputs": [],
      "name": "DataNonce",
      "outputs": [
        {
          "internalType": "uint256",
          "name": "",
          "type": "uint256"
        }
      ],
      "stateMutability": "view",
      "type": "function"
    },
    {
      "inputs": [
        {
          "internalType": "uint256",
          "name": "_DataBatchId",
          "type": "uint256"
        }
      ],
      "name": "DataRevealEndDate",
      "outputs": [
        {
          "internalType": "uint256",
          "name": "revealEndDate",
          "type": "uint256"
        }
      ],
      "stateMutability": "view",
      "type": "function"
    },
    {
      "inputs": [],
      "name": "FormattingSystem",
      "outputs": [
        {
          "internalType": "contract IFormattingSystem",
          "name": "",
          "type": "address"
        }
      ],
      "stateMutability": "view",
      "type": "function"
    },
    {
      "inputs": [],
      "name": "GLOBAL_MAX_SPOT_PER_PERIOD",
      "outputs": [
        {
          "internalType": "uint256",
          "name": "",
          "type": "uint256"
        }
      ],
      "stateMutability": "view",
      "type": "function"
    },
    {
      "inputs": [
        {
          "internalType": "address",
          "name": "user_",
          "type": "address"
        }
      ],
      "name": "GetCurrentWork",
      "outputs": [
        {
          "internalType": "uint256",
          "name": "",
          "type": "uint256"
        }
      ],
      "stateMutability": "view",
      "type": "function"
    },
    {
      "inputs": [
        {
          "internalType": "uint256",
          "name": "",
          "type": "uint256"
        }
      ],
      "name": "GlobalSpotFlowManager",
      "outputs": [
        {
          "internalType": "uint256",
          "name": "timestamp",
          "type": "uint256"
        },
        {
          "internalType": "uint256",
          "name": "counter",
          "type": "uint256"
        }
      ],
      "stateMutability": "view",
      "type": "function"
    },
    {
      "inputs": [],
      "name": "INTER_ALLOCATION_DURATION",
      "outputs": [
        {
          "internalType": "uint256",
          "name": "",
          "type": "uint256"
        }
      ],
      "stateMutability": "view",
      "type": "function"
    },
    {
      "inputs": [
        {
          "internalType": "address",
          "name": "user_",
          "type": "address"
        }
      ],
      "name": "IsNewWorkAvailable",
      "outputs": [
        {
          "internalType": "bool",
          "name": "",
          "type": "bool"
        }
      ],
      "stateMutability": "view",
      "type": "function"
    },
    {
      "inputs": [],
      "name": "LastAllocationTime",
      "outputs": [
        {
          "internalType": "uint256",
          "name": "",
          "type": "uint256"
        }
      ],
      "stateMutability": "view",
      "type": "function"
    },
    {
      "inputs": [],
      "name": "LastBatchCounter",
      "outputs": [
        {
          "internalType": "uint256",
          "name": "",
          "type": "uint256"
        }
      ],
      "stateMutability": "view",
      "type": "function"
    },
    {
      "inputs": [],
      "name": "MAX_SPOT_PER_USER_PER_PERIOD",
      "outputs": [
        {
          "internalType": "uint256",
          "name": "",
          "type": "uint256"
        }
      ],
      "stateMutability": "view",
      "type": "function"
    },
    {
      "inputs": [],
      "name": "MAX_SUCCEEDING_NOVOTES",
      "outputs": [
        {
          "internalType": "uint256",
          "name": "",
          "type": "uint256"
        }
      ],
      "stateMutability": "view",
      "type": "function"
    },
    {
      "inputs": [],
      "name": "MIN_CONSENSUS_WORKER_COUNT",
      "outputs": [
        {
          "internalType": "uint256",
          "name": "",
          "type": "uint256"
        }
      ],
      "stateMutability": "view",
      "type": "function"
    },
    {
      "inputs": [],
      "name": "MIN_REP_Data",
      "outputs": [
        {
          "internalType": "uint256",
          "name": "",
          "type": "uint256"
        }
      ],
      "stateMutability": "view",
      "type": "function"
    },
    {
      "inputs": [],
      "name": "MIN_REWARD_Data",
      "outputs": [
        {
          "internalType": "uint256",
          "name": "",
          "type": "uint256"
        }
      ],
      "stateMutability": "view",
      "type": "function"
    },
    {
      "inputs": [],
      "name": "MIN_STAKE",
      "outputs": [
        {
          "internalType": "uint256",
          "name": "",
          "type": "uint256"
        }
      ],
      "stateMutability": "view",
      "type": "function"
    },
    {
      "inputs": [
        {
          "internalType": "address",
          "name": "",
          "type": "address"
        },
        {
          "internalType": "uint256",
          "name": "",
          "type": "uint256"
        }
      ],
      "name": "MasterWorkers",
      "outputs": [
        {
          "internalType": "address",
          "name": "",
          "type": "address"
        }
      ],
      "stateMutability": "view",
      "type": "function"
    },
    {
      "inputs": [],
      "name": "NOVOTE_REGISTRATION_WAIT_DURATION",
      "outputs": [
        {
          "internalType": "uint256",
          "name": "",
          "type": "uint256"
        }
      ],
      "stateMutability": "view",
      "type": "function"
    },
    {
      "inputs": [],
      "name": "NotCommitedCounter",
      "outputs": [
        {
          "internalType": "uint256",
          "name": "",
          "type": "uint256"
        }
      ],
      "stateMutability": "view",
      "type": "function"
    },
    {
      "inputs": [],
      "name": "NotRevealedCounter",
      "outputs": [
        {
          "internalType": "uint256",
          "name": "",
          "type": "uint256"
        }
      ],
      "stateMutability": "view",
      "type": "function"
    },
    {
      "inputs": [],
      "name": "ParametersManager",
      "outputs": [
        {
          "internalType": "contract IParametersManager",
          "name": "",
          "type": "address"
        }
      ],
      "stateMutability": "view",
      "type": "function"
    },
    {
      "inputs": [],
      "name": "REVEAL_ROUND_DURATION",
      "outputs": [
        {
          "internalType": "uint256",
          "name": "",
          "type": "uint256"
        }
      ],
      "stateMutability": "view",
      "type": "function"
    },
    {
      "inputs": [],
      "name": "RegisterWorker",
      "outputs": [],
      "stateMutability": "nonpayable",
      "type": "function"
    },
    {
      "inputs": [],
      "name": "RejectedBatchsCounter",
      "outputs": [
        {
          "internalType": "uint256",
          "name": "",
          "type": "uint256"
        }
      ],
      "stateMutability": "view",
      "type": "function"
    },
    {
      "inputs": [],
      "name": "RepManager",
      "outputs": [
        {
          "internalType": "contract IRepManager",
          "name": "",
          "type": "address"
        }
      ],
      "stateMutability": "view",
      "type": "function"
    },
    {
      "inputs": [],
      "name": "RewardManager",
      "outputs": [
        {
          "internalType": "contract IRewardManager",
          "name": "",
          "type": "address"
        }
      ],
      "stateMutability": "view",
      "type": "function"
    },
    {
      "inputs": [],
      "name": "SPOT_TOGGLE_ENABLED",
      "outputs": [
        {
          "internalType": "bool",
          "name": "",
          "type": "bool"
        }
      ],
      "stateMutability": "view",
      "type": "function"
    },
    {
      "inputs": [
        {
          "internalType": "string[]",
          "name": "file_hashs",
          "type": "string[]"
        },
        {
          "internalType": "string[]",
          "name": "URL_domains",
          "type": "string[]"
        },
        {
          "internalType": "uint256",
          "name": "item_count_",
          "type": "uint256"
        },
        {
          "internalType": "string",
          "name": "extra_",
          "type": "string"
        }
      ],
      "name": "SpotData",
      "outputs": [
        {
          "internalType": "uint256",
          "name": "Dataid_",
          "type": "uint256"
        }
      ],
      "stateMutability": "nonpayable",
      "type": "function"
    },
    {
      "inputs": [
        {
          "internalType": "address",
          "name": "",
          "type": "address"
        }
      ],
      "name": "SpotStakedTokenBalance",
      "outputs": [
        {
          "internalType": "uint256",
          "name": "",
          "type": "uint256"
        }
      ],
      "stateMutability": "view",
      "type": "function"
    },
    {
      "inputs": [
        {
          "internalType": "uint256",
          "name": "",
          "type": "uint256"
        }
      ],
      "name": "SpotsMapping",
      "outputs": [
        {
          "internalType": "string",
          "name": "ipfs_hash",
          "type": "string"
        },
        {
          "internalType": "address",
          "name": "author",
          "type": "address"
        },
        {
          "internalType": "uint256",
          "name": "timestamp",
          "type": "uint256"
        },
        {
          "internalType": "uint256",
          "name": "item_count",
          "type": "uint256"
        },
        {
          "internalType": "string",
          "name": "URL_domain",
          "type": "string"
        },
        {
          "internalType": "string",
          "name": "extra",
          "type": "string"
        },
        {
          "internalType": "enum DataSpotting.DataStatus",
          "name": "status",
          "type": "uint8"
        }
      ],
      "stateMutability": "view",
      "type": "function"
    },
    {
      "inputs": [],
      "name": "StakeManager",
      "outputs": [
        {
          "internalType": "contract IStakeManager",
          "name": "",
          "type": "address"
        }
      ],
      "stateMutability": "view",
      "type": "function"
    },
    {
      "inputs": [],
      "name": "TIMEFRAME_DURATION",
      "outputs": [
        {
          "internalType": "uint256",
          "name": "",
          "type": "uint256"
        }
      ],
      "stateMutability": "view",
      "type": "function"
    },
    {
      "inputs": [],
      "name": "TriggerNextEpoch",
      "outputs": [],
      "stateMutability": "nonpayable",
      "type": "function"
    },
    {
      "inputs": [],
      "name": "UnregisterWorker",
      "outputs": [],
      "stateMutability": "nonpayable",
      "type": "function"
    },
    {
      "inputs": [
        {
          "internalType": "uint256",
          "name": "",
          "type": "uint256"
        },
        {
          "internalType": "address",
          "name": "",
          "type": "address"
        }
      ],
      "name": "UserBatchCounts",
      "outputs": [
        {
          "internalType": "uint256",
          "name": "",
          "type": "uint256"
        }
      ],
      "stateMutability": "view",
      "type": "function"
    },
    {
      "inputs": [
        {
          "internalType": "uint256",
          "name": "",
          "type": "uint256"
        },
        {
          "internalType": "address",
          "name": "",
          "type": "address"
        }
      ],
      "name": "UserBatchFrom",
      "outputs": [
        {
          "internalType": "string",
          "name": "",
          "type": "string"
        }
      ],
      "stateMutability": "view",
      "type": "function"
    },
    {
      "inputs": [
        {
          "internalType": "address",
          "name": "",
          "type": "address"
        },
        {
          "internalType": "uint256",
          "name": "",
          "type": "uint256"
        }
      ],
      "name": "UserChecksCommits",
      "outputs": [
        {
          "internalType": "bool",
          "name": "",
          "type": "bool"
        }
      ],
      "stateMutability": "view",
      "type": "function"
    },
    {
      "inputs": [
        {
          "internalType": "address",
          "name": "",
          "type": "address"
        },
        {
          "internalType": "uint256",
          "name": "",
          "type": "uint256"
        }
      ],
      "name": "UserChecksReveals",
      "outputs": [
        {
          "internalType": "bool",
          "name": "",
          "type": "bool"
        }
      ],
      "stateMutability": "view",
      "type": "function"
    },
    {
      "inputs": [
        {
          "internalType": "uint256",
          "name": "",
          "type": "uint256"
        },
        {
          "internalType": "address",
          "name": "",
          "type": "address"
        }
      ],
      "name": "UserNewFiles",
      "outputs": [
        {
          "internalType": "string",
          "name": "",
          "type": "string"
        }
      ],
      "stateMutability": "view",
      "type": "function"
    },
    {
      "inputs": [
        {
          "internalType": "uint256",
          "name": "",
          "type": "uint256"
        },
        {
          "internalType": "address",
          "name": "",
          "type": "address"
        }
      ],
      "name": "UserVotes",
      "outputs": [
        {
          "internalType": "uint256",
          "name": "",
          "type": "uint256"
        }
      ],
      "stateMutability": "view",
      "type": "function"
    },
    {
      "inputs": [],
      "name": "VOTE_QUORUM",
      "outputs": [
        {
          "internalType": "uint256",
          "name": "",
          "type": "uint256"
        }
      ],
      "stateMutability": "view",
      "type": "function"
    },
    {
      "inputs": [
        {
          "internalType": "uint256",
          "name": "",
          "type": "uint256"
        },
        {
          "internalType": "uint256",
          "name": "",
          "type": "uint256"
        }
      ],
      "name": "WorkersPerBatch",
      "outputs": [
        {
          "internalType": "address",
          "name": "",
          "type": "address"
        }
      ],
      "stateMutability": "view",
      "type": "function"
    },
    {
      "inputs": [
        {
          "internalType": "address",
          "name": "",
          "type": "address"
        }
      ],
      "name": "WorkersState",
      "outputs": [
        {
          "internalType": "address",
          "name": "worker_address",
          "type": "address"
        },
        {
          "internalType": "uint256",
          "name": "allocated_work_batch",
          "type": "uint256"
        },
        {
          "internalType": "bool",
          "name": "has_completed_work",
          "type": "bool"
        },
        {
          "internalType": "uint256",
          "name": "succeeding_novote_count",
          "type": "uint256"
        },
        {
          "internalType": "uint256",
          "name": "last_interaction_date",
          "type": "uint256"
        },
        {
          "internalType": "bool",
          "name": "registered",
          "type": "bool"
        },
        {
          "internalType": "bool",
          "name": "unregistration_request",
          "type": "bool"
        },
        {
          "internalType": "uint256",
          "name": "registration_date",
          "type": "uint256"
        },
        {
          "internalType": "uint256",
          "name": "majority_counter",
          "type": "uint256"
        },
        {
          "internalType": "uint256",
          "name": "minority_counter",
          "type": "uint256"
        }
      ],
      "stateMutability": "view",
      "type": "function"
    },
    {
      "inputs": [
        {
          "internalType": "address",
          "name": "_user",
          "type": "address"
        },
        {
          "internalType": "uint256",
          "name": "_DataBatchId",
          "type": "uint256"
        }
      ],
      "name": "attrUUID",
      "outputs": [
        {
          "internalType": "bytes32",
          "name": "UUID",
          "type": "bytes32"
        }
      ],
      "stateMutability": "pure",
      "type": "function"
    },
    {
      "inputs": [
        {
          "internalType": "uint256",
          "name": "",
          "type": "uint256"
        }
      ],
      "name": "availableWorkers",
      "outputs": [
        {
          "internalType": "address",
          "name": "",
          "type": "address"
        }
      ],
      "stateMutability": "view",
      "type": "function"
    },
    {
      "inputs": [
        {
          "internalType": "uint256",
          "name": "",
          "type": "uint256"
        }
      ],
      "name": "busyWorkers",
      "outputs": [
        {
          "internalType": "address",
          "name": "",
          "type": "address"
        }
      ],
      "stateMutability": "view",
      "type": "function"
    },
    {
      "inputs": [
        {
          "internalType": "uint256",
          "name": "_DataBatchId",
          "type": "uint256"
        }
      ],
      "name": "commitPeriodActive",
      "outputs": [
        {
          "internalType": "bool",
          "name": "active",
          "type": "bool"
        }
      ],
      "stateMutability": "view",
      "type": "function"
    },
    {
      "inputs": [
        {
          "internalType": "uint256",
          "name": "_DataBatchId",
          "type": "uint256"
        },
        {
          "internalType": "bytes32",
          "name": "_secretHash",
          "type": "bytes32"
        },
        {
          "internalType": "string",
          "name": "newIPFSHash",
          "type": "string"
        },
        {
          "internalType": "uint256",
          "name": "_BatchCount",
          "type": "uint256"
        },
        {
          "internalType": "string",
          "name": "_From",
          "type": "string"
        }
      ],
      "name": "commitSpotCheck",
      "outputs": [],
      "stateMutability": "nonpayable",
      "type": "function"
    },
    {
      "inputs": [
        {
          "internalType": "uint256",
          "name": "_DataId",
          "type": "uint256"
        }
      ],
      "name": "deleteData",
      "outputs": [],
      "stateMutability": "nonpayable",
      "type": "function"
    },
    {
      "inputs": [
        {
          "internalType": "uint256",
          "name": "_BatchId",
          "type": "uint256"
        }
      ],
      "name": "deleteDataBatch",
      "outputs": [],
      "stateMutability": "nonpayable",
      "type": "function"
    },
    {
      "inputs": [
        {
          "internalType": "address",
          "name": "_voter",
          "type": "address"
        },
        {
          "internalType": "uint256",
          "name": "_DataBatchId",
          "type": "uint256"
        }
      ],
      "name": "didCommit",
      "outputs": [
        {
          "internalType": "bool",
          "name": "committed",
          "type": "bool"
        }
      ],
      "stateMutability": "view",
      "type": "function"
    },
    {
      "inputs": [
        {
          "internalType": "address",
          "name": "_voter",
          "type": "address"
        },
        {
          "internalType": "uint256",
          "name": "_DataBatchId",
          "type": "uint256"
        }
      ],
      "name": "didReveal",
      "outputs": [
        {
          "internalType": "bool",
          "name": "revealed",
          "type": "bool"
        }
      ],
      "stateMutability": "view",
      "type": "function"
    },
    {
      "inputs": [
        {
          "internalType": "uint256",
          "name": "_k",
          "type": "uint256"
        },
        {
          "internalType": "uint256",
          "name": "N_range",
          "type": "uint256"
        }
      ],
      "name": "generateIntegers",
      "outputs": [
        {
          "internalType": "uint256[]",
          "name": "",
          "type": "uint256[]"
        }
      ],
      "stateMutability": "view",
      "type": "function"
    },
    {
      "inputs": [],
      "name": "getAcceptedBatchesCount",
      "outputs": [
        {
          "internalType": "uint256",
          "name": "count",
          "type": "uint256"
        }
      ],
      "stateMutability": "view",
      "type": "function"
    },
    {
      "inputs": [],
      "name": "getActiveWorkersCount",
      "outputs": [
        {
          "internalType": "uint256",
          "name": "numWorkers",
          "type": "uint256"
        }
      ],
      "stateMutability": "view",
      "type": "function"
    },
    {
      "inputs": [
        {
          "internalType": "uint256",
          "name": "_DataBatchId",
          "type": "uint256"
        }
      ],
      "name": "getBatchByID",
      "outputs": [
        {
          "components": [
            {
              "internalType": "uint256",
              "name": "start_idx",
              "type": "uint256"
            },
            {
              "internalType": "uint256",
              "name": "counter",
              "type": "uint256"
            },
            {
              "internalType": "uint256",
              "name": "uncommited_workers",
              "type": "uint256"
            },
            {
              "internalType": "uint256",
              "name": "unrevealed_workers",
              "type": "uint256"
            },
            {
              "internalType": "bool",
              "name": "complete",
              "type": "bool"
            },
            {
              "internalType": "bool",
              "name": "checked",
              "type": "bool"
            },
            {
              "internalType": "bool",
              "name": "allocated_to_work",
              "type": "bool"
            },
            {
              "internalType": "uint256",
              "name": "commitEndDate",
              "type": "uint256"
            },
            {
              "internalType": "uint256",
              "name": "revealEndDate",
              "type": "uint256"
            },
            {
              "internalType": "uint256",
              "name": "votesFor",
              "type": "uint256"
            },
            {
              "internalType": "uint256",
              "name": "votesAgainst",
              "type": "uint256"
            },
            {
              "internalType": "string",
              "name": "batchIPFSfile",
              "type": "string"
            },
            {
              "internalType": "uint256",
              "name": "item_count",
              "type": "uint256"
            },
            {
              "internalType": "enum DataSpotting.DataStatus",
              "name": "status",
              "type": "uint8"
            }
          ],
          "internalType": "struct DataSpotting.BatchMetadata",
          "name": "batch",
          "type": "tuple"
        }
      ],
      "stateMutability": "view",
      "type": "function"
    },
    {
      "inputs": [
        {
          "internalType": "uint256",
          "name": "_DataBatchId",
          "type": "uint256"
        }
      ],
      "name": "getBatchIPFSFileByID",
      "outputs": [
        {
          "internalType": "string",
          "name": "batch",
          "type": "string"
        }
      ],
      "stateMutability": "view",
      "type": "function"
    },
    {
      "inputs": [
        {
          "internalType": "address",
          "name": "_voter",
          "type": "address"
        },
        {
          "internalType": "uint256",
          "name": "_DataBatchId",
          "type": "uint256"
        }
      ],
      "name": "getCommitHash",
      "outputs": [
        {
          "internalType": "bytes32",
          "name": "commitHash",
          "type": "bytes32"
        }
      ],
      "stateMutability": "view",
      "type": "function"
    },
    {
      "inputs": [],
      "name": "getCurrentWorkEpoch",
      "outputs": [
        {
          "internalType": "uint256",
          "name": "WorkEpoch",
          "type": "uint256"
        }
      ],
      "stateMutability": "view",
      "type": "function"
    },
    {
      "inputs": [
        {
          "internalType": "uint256",
          "name": "_DataId",
          "type": "uint256"
        }
      ],
      "name": "getDataByID",
      "outputs": [
        {
          "components": [
            {
              "internalType": "string",
              "name": "ipfs_hash",
              "type": "string"
            },
            {
              "internalType": "address",
              "name": "author",
              "type": "address"
            },
            {
              "internalType": "uint256",
              "name": "timestamp",
              "type": "uint256"
            },
            {
              "internalType": "uint256",
              "name": "item_count",
              "type": "uint256"
            },
            {
              "internalType": "string",
              "name": "URL_domain",
              "type": "string"
            },
            {
              "internalType": "string",
              "name": "extra",
              "type": "string"
            },
            {
              "internalType": "enum DataSpotting.DataStatus",
              "name": "status",
              "type": "uint8"
            }
          ],
          "internalType": "struct DataSpotting.SpottedData",
          "name": "data",
          "type": "tuple"
        }
      ],
      "stateMutability": "view",
      "type": "function"
    },
    {
      "inputs": [
        {
          "internalType": "uint256",
          "name": "_DataBatchId",
          "type": "uint256"
        }
      ],
      "name": "getDomainsForBatch",
      "outputs": [
        {
          "internalType": "string[]",
          "name": "",
          "type": "string[]"
        }
      ],
      "stateMutability": "view",
      "type": "function"
    },
    {
      "inputs": [
        {
          "internalType": "uint256",
          "name": "_voteOption",
          "type": "uint256"
        },
        {
          "internalType": "uint256",
          "name": "_salt",
          "type": "uint256"
        }
      ],
      "name": "getEncryptedHash",
      "outputs": [
        {
          "internalType": "bytes32",
          "name": "keccak256hash",
          "type": "bytes32"
        }
      ],
      "stateMutability": "pure",
      "type": "function"
    },
    {
      "inputs": [
        {
          "internalType": "string",
          "name": "_hash",
          "type": "string"
        },
        {
          "internalType": "uint256",
          "name": "_salt",
          "type": "uint256"
        }
      ],
      "name": "getEncryptedStringHash",
      "outputs": [
        {
          "internalType": "bytes32",
          "name": "keccak256hash",
          "type": "bytes32"
        }
      ],
      "stateMutability": "pure",
      "type": "function"
    },
    {
      "inputs": [],
      "name": "getGlobalPeriodSpotCount",
      "outputs": [
        {
          "internalType": "uint256",
          "name": "",
          "type": "uint256"
        }
      ],
      "stateMutability": "view",
      "type": "function"
    },
    {
      "inputs": [
        {
          "internalType": "uint256",
          "name": "_DataBatchId",
          "type": "uint256"
        }
      ],
      "name": "getIPFShashesForBatch",
      "outputs": [
        {
          "internalType": "string[]",
          "name": "",
          "type": "string[]"
        }
      ],
      "stateMutability": "view",
      "type": "function"
    },
    {
      "inputs": [],
      "name": "getLastAllocatedBatchId",
      "outputs": [
        {
          "internalType": "uint256",
          "name": "LastAllocatedBatchId",
          "type": "uint256"
        }
      ],
      "stateMutability": "view",
      "type": "function"
    },
    {
      "inputs": [],
      "name": "getLastBatchId",
      "outputs": [
        {
          "internalType": "uint256",
          "name": "LastBatchId",
          "type": "uint256"
        }
      ],
      "stateMutability": "view",
      "type": "function"
    },
    {
      "inputs": [],
      "name": "getLastCheckedBatchId",
      "outputs": [
        {
          "internalType": "uint256",
          "name": "LastCheckedBatchId",
          "type": "uint256"
        }
      ],
      "stateMutability": "view",
      "type": "function"
    },
    {
      "inputs": [],
      "name": "getLastDataId",
      "outputs": [
        {
          "internalType": "uint256",
          "name": "DataId",
          "type": "uint256"
        }
      ],
      "stateMutability": "view",
      "type": "function"
    },
    {
      "inputs": [
        {
          "internalType": "address",
          "name": "_voter",
          "type": "address"
        }
      ],
      "name": "getLastNode",
      "outputs": [
        {
          "internalType": "uint256",
          "name": "DataID",
          "type": "uint256"
        }
      ],
      "stateMutability": "view",
      "type": "function"
    },
    {
      "inputs": [
        {
          "internalType": "address",
          "name": "_voter",
          "type": "address"
        },
        {
          "internalType": "uint256",
          "name": "_DataBatchId",
          "type": "uint256"
        }
      ],
      "name": "getNumTokens",
      "outputs": [
        {
          "internalType": "uint256",
          "name": "numTokens",
          "type": "uint256"
        }
      ],
      "stateMutability": "view",
      "type": "function"
    },
    {
      "inputs": [],
      "name": "getRandom",
      "outputs": [
        {
          "internalType": "uint256",
          "name": "",
          "type": "uint256"
        }
      ],
      "stateMutability": "view",
      "type": "function"
    },
    {
      "inputs": [],
      "name": "getRejectedBatchesCount",
      "outputs": [
        {
          "internalType": "uint256",
          "name": "count",
          "type": "uint256"
        }
      ],
      "stateMutability": "view",
      "type": "function"
    },
    {
      "inputs": [],
      "name": "getSeed",
      "outputs": [
        {
          "internalType": "bytes32",
          "name": "addr",
          "type": "bytes32"
        }
      ],
      "stateMutability": "view",
      "type": "function"
    },
    {
      "inputs": [
        {
          "internalType": "address",
          "name": "_user",
          "type": "address"
        }
      ],
      "name": "getSystemTokenBalance",
      "outputs": [
        {
          "internalType": "uint256",
          "name": "tokens",
          "type": "uint256"
        }
      ],
      "stateMutability": "view",
      "type": "function"
    },
    {
      "inputs": [],
      "name": "getTxCounter",
      "outputs": [
        {
          "internalType": "uint256",
          "name": "Counter",
          "type": "uint256"
        }
      ],
      "stateMutability": "view",
      "type": "function"
    },
    {
      "inputs": [
        {
          "internalType": "address",
          "name": "user",
          "type": "address"
        }
      ],
      "name": "getUserDatas",
      "outputs": [
        {
          "internalType": "uint256[]",
          "name": "user_Datas",
          "type": "uint256[]"
        }
      ],
      "stateMutability": "view",
      "type": "function"
    },
    {
      "inputs": [
        {
          "internalType": "address",
          "name": "user_",
          "type": "address"
        }
      ],
      "name": "getUserPeriodSpotCount",
      "outputs": [
        {
          "internalType": "uint256",
          "name": "",
          "type": "uint256"
        }
      ],
      "stateMutability": "view",
      "type": "function"
    },
    {
      "inputs": [
        {
          "internalType": "uint256",
          "name": "_terminationDate",
          "type": "uint256"
        }
      ],
      "name": "isExpired",
      "outputs": [
        {
          "internalType": "bool",
          "name": "expired",
          "type": "bool"
        }
      ],
      "stateMutability": "view",
      "type": "function"
    },
    {
      "inputs": [
        {
          "internalType": "uint256",
          "name": "_DataBatchId",
          "type": "uint256"
        }
      ],
      "name": "isPassed",
      "outputs": [
        {
          "internalType": "bool",
          "name": "passed",
          "type": "bool"
        }
      ],
      "stateMutability": "view",
      "type": "function"
    },
    {
      "inputs": [
        {
          "internalType": "uint256",
          "name": "_DataBatchId",
          "type": "uint256"
        },
        {
          "internalType": "address",
          "name": "_worker",
          "type": "address"
        }
      ],
      "name": "isWorkerAllocatedToBatch",
      "outputs": [
        {
          "internalType": "bool",
          "name": "",
          "type": "bool"
        }
      ],
      "stateMutability": "view",
      "type": "function"
    },
    {
      "inputs": [
        {
          "internalType": "address",
          "name": "_worker",
          "type": "address"
        }
      ],
      "name": "isWorkerRegistered",
      "outputs": [
        {
          "internalType": "bool",
          "name": "passed",
          "type": "bool"
        }
      ],
      "stateMutability": "view",
      "type": "function"
    },
    {
      "inputs": [],
      "name": "owner",
      "outputs": [
        {
          "internalType": "address",
          "name": "",
          "type": "address"
        }
      ],
      "stateMutability": "view",
      "type": "function"
    },
    {
      "inputs": [
        {
          "internalType": "uint256",
          "name": "k",
          "type": "uint256"
        },
        {
          "internalType": "uint256",
          "name": "N",
          "type": "uint256"
        }
      ],
      "name": "random_selection",
      "outputs": [
        {
          "internalType": "uint256[]",
          "name": "",
          "type": "uint256[]"
        }
      ],
      "stateMutability": "view",
      "type": "function"
    },
    {
      "inputs": [],
      "name": "renounceOwnership",
      "outputs": [],
      "stateMutability": "nonpayable",
      "type": "function"
    },
    {
      "inputs": [
        {
          "internalType": "uint256",
          "name": "_DataBatchId",
          "type": "uint256"
        }
      ],
      "name": "rescueTokens",
      "outputs": [],
      "stateMutability": "nonpayable",
      "type": "function"
    },
    {
      "inputs": [
        {
          "internalType": "uint256",
          "name": "_DataBatchId",
          "type": "uint256"
        }
      ],
      "name": "revealPeriodActive",
      "outputs": [
        {
          "internalType": "bool",
          "name": "active",
          "type": "bool"
        }
      ],
      "stateMutability": "view",
      "type": "function"
    },
    {
      "inputs": [
        {
          "internalType": "uint256",
          "name": "_DataBatchId",
          "type": "uint256"
        },
        {
          "internalType": "uint256",
          "name": "_voteOption",
          "type": "uint256"
        },
        {
          "internalType": "uint256",
          "name": "_salt",
          "type": "uint256"
        }
      ],
      "name": "revealSpotCheck",
      "outputs": [],
      "stateMutability": "nonpayable",
      "type": "function"
    },
    {
      "inputs": [],
      "name": "sFuel",
      "outputs": [
        {
          "internalType": "address",
          "name": "",
          "type": "address"
        }
      ],
      "stateMutability": "view",
      "type": "function"
    },
    {
      "inputs": [
        {
          "internalType": "uint256",
          "name": "N",
          "type": "uint256"
        }
      ],
      "name": "shuffle_array",
      "outputs": [
        {
          "internalType": "uint256[]",
          "name": "",
          "type": "uint256[]"
        }
      ],
      "stateMutability": "view",
      "type": "function"
    },
    {
      "inputs": [
        {
          "internalType": "uint256",
          "name": "",
          "type": "uint256"
        }
      ],
      "name": "toUnregisterWorkers",
      "outputs": [
        {
          "internalType": "address",
          "name": "",
          "type": "address"
        }
      ],
      "stateMutability": "view",
      "type": "function"
    },
    {
      "inputs": [],
      "name": "token",
      "outputs": [
        {
          "internalType": "contract IERC20",
          "name": "",
          "type": "address"
        }
      ],
      "stateMutability": "view",
      "type": "function"
    },
    {
      "inputs": [
        {
          "internalType": "address",
          "name": "newOwner",
          "type": "address"
        }
      ],
      "name": "transferOwnership",
      "outputs": [],
      "stateMutability": "nonpayable",
      "type": "function"
    },
    {
      "inputs": [
        {
          "internalType": "address",
          "name": "",
          "type": "address"
        },
        {
          "internalType": "uint256",
          "name": "",
          "type": "uint256"
        }
      ],
      "name": "userSubmissions",
      "outputs": [
        {
          "internalType": "uint256",
          "name": "",
          "type": "uint256"
        }
      ],
      "stateMutability": "view",
      "type": "function"
    },
    {
      "inputs": [
        {
          "internalType": "uint256",
          "name": "_prevID",
          "type": "uint256"
        },
        {
          "internalType": "uint256",
          "name": "_nextID",
          "type": "uint256"
        },
        {
          "internalType": "address",
          "name": "_voter",
          "type": "address"
        },
        {
          "internalType": "uint256",
          "name": "_numTokens",
          "type": "uint256"
        }
      ],
      "name": "validPosition",
      "outputs": [
        {
          "internalType": "bool",
          "name": "APPROVED",
          "type": "bool"
        }
      ],
      "stateMutability": "view",
      "type": "function"
    },
    {
      "inputs": [
        {
          "internalType": "uint256",
          "name": "_numTokens",
          "type": "uint256"
        }
      ],
      "name": "withdrawVotingRights",
      "outputs": [],
      "stateMutability": "nonpayable",
      "type": "function"
    }
  ],
  "bytecode": "0x6080604052600180805560028055600381815560006008819055600991909155610e10600a55670de0b6b3a7640000600b5568015af1d78b58c40000600c55603c600d819055610384600e556103e8600f55601960105560218290556022829055602c80546001600160a01b0319167314f52f3fc010ab6ca81568d4a6794d5eab3c6155179055602d839055602e839055602f929092556031819055603281905560338190556034819055603555805460ff60a01b1916600160a01b179055348015620000cb57600080fd5b506040516200831c3803806200831c833981016040819052620000ee91620001cd565b62000102620000fc6200015c565b62000160565b6001600160a01b0382166200011657600080fd5b6001600160a01b0381166200012a57600080fd5b603680546001600160a01b039384166001600160a01b0319918216179091556037805492909316911617905562000204565b3390565b600080546001600160a01b038381166001600160a01b0319831681178455604051919092169283917f8be0079c531659141344cd1fd0a4f28419497f9722a3daafe3b4186f6b6457e09190a35050565b80516001600160a01b0381168114620001c857600080fd5b919050565b60008060408385031215620001e0578182fd5b620001eb83620001b0565b9150620001fb60208401620001b0565b90509250929050565b61810880620002146000396000f3fe608060405234801561001057600080fd5b50600436106106df5760003560e01c80639acb75c111610387578063d186981d116101de578063e7b1d43c1161010f578063f5ae7c7d116100ad578063f80a23fd11610087578063f80a23fd14610d7b578063f96305f014610d83578063fc0c546a14610d8b578063fca4956314610d93576106df565b8063f5ae7c7d14610d58578063f716596d14610d60578063f721de4a14610d68576106df565b8063ef4fcdad116100e9578063ef4fcdad14610d22578063f2d9e74d14610d2a578063f2fde38b14610d32578063f4cdfcc414610d45576106df565b8063e7b1d43c14610cf4578063eb1322ff14610d07578063ed8becfa14610d0f576106df565b8063d9548e531161017c578063e44c974b11610156578063e44c974b14610cb3578063e604c12714610cc6578063e7805f9e14610cd9578063e798a7da14610ce1576106df565b8063d9548e5314610c78578063d9845fb814610c8b578063e10ff71014610cab576106df565b8063d6b0206c116101b8578063d6b0206c14610c37578063d822ce0114610c3f578063d8b7567414610c52578063d901402b14610c65576106df565b8063d186981d14610c09578063d420ec0b14610c1c578063d4efd2ba14610c2f576106df565b8063b1a2e0be116102b8578063c7c063fb11610256578063cdb8b21811610230578063cdb8b21814610bd3578063d0d41def14610be6578063d0eed96714610bee578063d138209214610bf6576106df565b8063c7c063fb14610bb0578063c9b03a7214610bc3578063cb1c2b5c14610bcb576106df565b8063b8f011b311610292578063b8f011b314610b6f578063bc3002e614610b82578063c4e4f82a14610b95578063c7761fab14610ba8576106df565b8063b1a2e0be14610b36578063b1cf4a7e14610b49578063b1d7ea9814610b5c576106df565b8063a511dba011610325578063aacc5a17116102ff578063aacc5a1714610b0b578063ab43e78d14610b13578063ac106cc214610b1b578063b10aa58414610b23576106df565b8063a511dba014610add578063a905779014610ae5578063aa7ca46414610af8576106df565b8063a1103f3711610361578063a1103f3714610aa7578063a1b6b5b714610aba578063a350715a14610ac2578063a4439dc514610aca576106df565b80639acb75c114610a795780639b7e018014610a815780639d6e3f9614610a94576106df565b80635a4529431161053b5780637fabe35b1161046c57806388d072eb1161040a5780638da5cb5b116103e45780638da5cb5b14610a435780638df0296e14610a4b5780639760356014610a5e5780639769d84614610a71576106df565b806388d072eb146109ff5780638c89d02714610a125780638d289f8f14610a3b576106df565b8063821aa8c011610446578063821aa8c0146109d45780638240ced9146109e757806383cc6ef2146109ef5780638473850b146109f7576106df565b80637fabe35b1461098c578063815ce747146109b9578063819b0293146109c1576106df565b806371880b1b116104d95780637827e549116104b35780637827e549146109615780637a34da67146109695780637f9510a2146109715780637f97e83614610979576106df565b806371880b1b1461093e578063726bc8af1461095157806376e8ea4f14610959576106df565b80636371d81f116105155780636371d81f14610908578063667bf0f81461091b5780637074222b14610923578063715018a614610936576106df565b80635a452943146108cd5780635b113a55146108ed5780635fd8790914610900576106df565b8063354dae401161061557806347fe2d20116105b35780634fe8b4c11161058d5780634fe8b4c11461088a578063515535e81461089d57806351912f29146108a5578063579db71c146108ad576106df565b806347fe2d20146108675780634852e2f01461086f5780634940318314610877576106df565b80633c062cc8116105ef5780633c062cc8146108185780633d7098fa14610839578063427fa1d214610841578063441c77c014610854576106df565b8063354dae401461080057806336fc43fc1461080857806339e7357c14610810576106df565b8063226ed300116106825780632d917c681161065c5780632d917c68146107b25780632f469fd1146107c5578063313066ee146107e55780633538af82146107ed576106df565b8063226ed30014610775578063275c25901461079557806329a47bc71461079d576106df565b80630b96c5b0116106be5780630b96c5b01461071f5780630e6661a714610745578063154fd39b1461074d57806319d9034614610755576106df565b8062e52736146106e4578063035fbb551461070257806304dbcda714610717575b600080fd5b6106ec610da6565b6040516106f99190616d8e565b60405180910390f35b610715610710366004616c97565b610dac565b005b6106ec611105565b61073261072d366004616b7d565b61110b565b6040516106f99796959493929190616f23565b6106ec6112ef565b6106ec6112f5565b610768610763366004616b7d565b6112fb565b6040516106f99190616e29565b610788610783366004616b7d565b61161a565b6040516106f99190616ecd565b610715611662565b6107a56117c8565b6040516106f99190616dc1565b6107886107c036600461696d565b6117d7565b6107d86107d3366004616ba6565b6117f7565b6040516106f99190616ed8565b6106ec61189c565b6107a56107fb366004616b7d565b6118a2565b6107156118cc565b610788611ad1565b6106ec611ae1565b61082b610826366004616b7d565b611afe565b6040516106f9929190616db3565b6106ec611b20565b6106ec61084f366004616935565b611b26565b610788610862366004616b7d565b611bc6565b6106ec611c20565b6106ec611c26565b610788610885366004616b7d565b611c2c565b610715610898366004616b7d565b611df5565b6106ec611e9a565b6107a5611ea0565b6108c06108bb366004616935565b611eaf565b6040516106f99190616e89565b6108e06108db366004616b7d565b611f1b565b6040516106f99190617d9b565b6106ec6108fb366004616ba6565b612170565b6106ec61218d565b610715610916366004616b7d565b612193565b610715612246565b6106ec610931366004616935565b61266b565b610715612686565b6106ec61094c366004616b7d565b6126cf565b6106ec61270c565b6106ec612712565b6106ec612718565b6107a561271e565b6106ec61272d565b61078861098736600461696d565b612744565b61099f61099a366004616b7d565b612797565b6040516106f99e9d9c9b9a99989796959493929190617e7a565b6106ec612897565b6107886109cf366004616c59565b6128f3565b6107a56109e2366004616b7d565b612934565b6107a5612944565b6107a5612953565b6106ec612962565b6107d8610a0d366004616ba6565b612968565b610a25610a20366004616935565b61298c565b6040516106f99a99989796959493929190616dd5565b6107a56129ef565b6107a56129fe565b6107a5610a59366004616c38565b612a0d565b610715610a6c366004616b7d565b612a45565b6106ec612bf4565b6106ec612bfa565b6106ec610a8f36600461696d565b612c00565b6106ec610aa2366004616935565b612c31565b6106ec610ab536600461696d565b612cb1565b6106ec612ce4565b6106ec612cea565b610788610ad8366004616b7d565b612cf0565b6106ec612d52565b610788610af3366004616b1d565b612d58565b610788610b0636600461696d565b612dbe565b6106ec612e11565b6107a5612ec6565b6106ec612ed5565b6107a5610b31366004616b7d565b612edb565b610788610b44366004616935565b612eeb565b6106ec610b57366004616c38565b61302c565b6108c0610b6a366004616c38565b613041565b6108c0610b7d366004616c38565b613248565b6106ec610b90366004616998565b6133b0565b6106ec610ba3366004616b7d565b6138d5565b6106ec613912565b6106ec610bbe366004616935565b613918565b6106ec61392a565b6106ec613930565b610715610be1366004616bd5565b613936565b6106ec613ef1565b6106ec613ef7565b6106ec610c0436600461696d565b613efd565b610788610c17366004616ba6565b613f99565b610788610c2a36600461696d565b614074565b6106ec614094565b6106ec61409a565b6107a5610c4d36600461696d565b6140a0565b6106ec610c60366004616ba6565b6140bc565b6106ec610c7336600461696d565b6140d9565b610788610c86366004616b7d565b61411e565b610c9e610c99366004616b7d565b614123565b6040516106f99190617c21565b6106ec6142a7565b6108c0610cc1366004616b7d565b6142ad565b6107d8610cd4366004616b7d565b614326565b6106ec6143d1565b610788610cef366004616935565b6143d7565b610715610d02366004616b7d565b6143f8565b6106ec614544565b610768610d1d366004616b7d565b61454a565b6106ec61485d565b6106ec614863565b610715610d40366004616935565b614869565b6106ec610d53366004616aab565b6148da565b6106ec614910565b610715614916565b610788610d76366004616b7d565b614c01565b610788614c09565b6106ec614c22565b6107a5614c28565b6106ec610da1366004616935565b614c37565b60075481565b610db4614d52565b610dbd83611bc6565b610de25760405162461bcd60e51b8152600401610dd99061780a565b60405180910390fd5b33600090815260196020908152604080832086845290915290205460ff16610e1c5760405162461bcd60e51b8152600401610dd990617455565b336000908152601a6020908152604080832086845290915290205460ff1615610e575760405162461bcd60e51b8152600401610dd990617bd5565b610e6133846140d9565b610e6b838361302c565b14610e885760405162461bcd60e51b8152600401610dd9906171f0565b6000610e943385613efd565b90508260011415610ecb5760008481526030602052604081206007018054839290610ec0908490617f83565b90915550610ef29050565b60008481526030602052604081206008018054839290610eec908490617f83565b90915550505b336000908152601f60205260409081902090516301039dfd60e11b815273__$85afbab79b2b776d70bef879a32ed56424$__916302073bfa91610f3a91908890600401616db3565b60006040518083038186803b158015610f5257600080fd5b505af4158015610f66573d6000803e3d6000fd5b5050336000818152601a602090815260408083208a84528252808320805460ff19166001908117909155601b8352818420948452938252808320899055602382528083208a8452603090925290912060030154909350610fc7925090614eda565b60008681526030602052604090206003015560028101805460ff19166001179055426004820155610ff733614ee6565b600581015460ff161561106c5761100d3361503e565b15801561102457506005810154610100900460ff16155b1561106c57602880546001810182556000919091527fe16da923a2d88192e5070f37b4571d58682c0d66212ec634d495f33de3f77ab50180546001600160a01b031916331790555b60008581526030602052604090206003015461108b5761108b856150ae565b60016031600082825461109e9190617f83565b909155505060008581526030602052604090819020600781015460089091015491513392879289927f0867b5027231dcbf37614eaad07d667b9febaf9fdf483f488229b1f140bb0748926110f6928992909190617e64565b60405180910390a45050505050565b600b5481565b60246020526000908152604090208054819061112690618011565b80601f016020809104026020016040519081016040528092919081815260200182805461115290618011565b801561119f5780601f106111745761010080835404028352916020019161119f565b820191906000526020600020905b81548152906001019060200180831161118257829003601f168201915b50505060018401546002850154600386015460048701805496976001600160a01b0390941696929550909350906111d590618011565b80601f016020809104026020016040519081016040528092919081815260200182805461120190618011565b801561124e5780601f106112235761010080835404028352916020019161124e565b820191906000526020600020905b81548152906001019060200180831161123157829003601f168201915b50505050509080600501805461126390618011565b80601f016020809104026020016040519081016040528092919081815260200182805461128f90618011565b80156112dc5780601f106112b1576101008083540402835291602001916112dc565b820191906000526020600020905b8154815290600101906020018083116112bf57829003601f168201915b5050506006909301549192505060ff1687565b60225481565b602f5490565b606061130682614c01565b6113225760405162461bcd60e51b8152600401610dd990617897565b600082815260306020908152604080832081516101c0810183528154815260018201549381019390935260028101549183019190915260038101546060830152600481015460ff808216151560808501526101008083048216151560a08601526201000090920416151560c0840152600582015460e084015260068201549083015260078101546101208301526008810154610140830152600981018054610160840191906113d090618011565b80601f01602080910402602001604051908101604052809291908181526020018280546113fc90618011565b80156114495780601f1061141e57610100808354040283529160200191611449565b820191906000526020600020905b81548152906001019060200180831161142c57829003601f168201915b5050509183525050600a8201546020820152600b82015460409091019060ff16600381111561148857634e487b7160e01b600052602160045260246000fd5b60038111156114a757634e487b7160e01b600052602160045260246000fd5b9052506020810151600154919250906000906001600160401b038111156114de57634e487b7160e01b600052604160045260246000fd5b60405190808252806020026020018201604052801561151157816020015b60608152602001906001900390816114fc5790505b50905060005b8281101561161157835160009061152f908390617f83565b60008181526024602052604081206004018054929350909161155090618011565b80601f016020809104026020016040519081016040528092919081815260200182805461157c90618011565b80156115c95780601f1061159e576101008083540402835291602001916115c9565b820191906000526020600020905b8154815290600101906020018083116115ac57829003601f168201915b50505050509050808484815181106115f157634e487b7160e01b600052603260045260246000fd5b6020026020010181905250505080806116099061804c565b915050611517565b50949350505050565b600061162582614c01565b6116415760405162461bcd60e51b8152600401610dd990617bac565b60008281526030602052604090206006015461165c9061411e565b92915050565b61166a614d52565b336000908152602360205260409020600581015460ff1615156001146116a25760405162461bcd60e51b8152600401610dd9906176d6565b6001810154158015906116bf57506005810154610100900460ff16155b1561171c5760058101805461ff001916610100179055602a80546001810182556000919091527fbeced09521047d05b8960b7e7bcc1d1292cf3e4b2a6b63f48335cbde5f7545d20180546001600160a01b031916331790556117ad565b60018101541561173e5760405162461bcd60e51b8152600401610dd99061761c565b61174733615ec2565b61175033614ee6565b80546001600160a01b031916339081178255426004830181905560058301805460ff191690556040517f9dadcedba048e92b943ea1c5861cee1df63a566d7f795869c004780c1c698e2b916117a491616d8e565b60405180910390a25b6001603160008282546117c09190617f83565b909155505050565b6039546001600160a01b031681565b601960209081526000928352604080842090915290825290205460ff1681565b601c6020908152600092835260408084209091529082529020805461181b90618011565b80601f016020809104026020016040519081016040528092919081815260200182805461184790618011565b80156118945780601f1061186957610100808354040283529160200191611894565b820191906000526020600020905b81548152906001019060200180831161187757829003601f168201915b505050505081565b60215481565b602881815481106118b257600080fd5b6000918252602090912001546001600160a01b0316905081565b6118d4614d52565b602a54156119745760005b602a54811015611967576000602a828154811061190c57634e487b7160e01b600052603260045260246000fd5b60009182526020808320909101546001600160a01b03168083526023909152604090912060058101805461ffff1916905590915061194982615ec2565b61195282614ee6565b5050808061195f9061804c565b9150506118df565b50611974602a600061669e565b61197c615ff2565b6127105a1115611acf57602e5460009081526030602052604081206004015462010000900460ff16151560011480156119d857506119bb602e5461161a565b806119d85750602e54600090815260306020526040902060030154155b156119fd576119e8602e546150ae565b602e546119f6906001616129565b602e555060015b602f5460009081526030602052604090206004015462010000900460ff161515600114801590611a31575060035460285410155b8015611a515750602f5460009081526030602052604090206004015460ff165b8015611a6b5750600754600854611a689042617fce565b10155b15611a7c57611a78612246565b5060015b8015611ac357602154611a90906001616129565b60218190556040517f94d48a7342690f1233e3f4db70efa37c4f1f25f4d0397c353f3f15aecdeca5f490600090a2611ac9565b50611acf565b5061197c565b565b603c54600160a01b900460ff1681565b60405160009080602081848060185afa611af757fe5b5051919050565b60118160048110611b0e57600080fd5b60020201805460019091015490915082565b60105481565b6001600160a01b0381166000908152601f602052604080822090516301c39b2b60e11b815273__$85afbab79b2b776d70bef879a32ed56424$__91630387365691611b7691908590600401616db3565b60206040518083038186803b158015611b8e57600080fd5b505af4158015611ba2573d6000803e3d6000fd5b505050506040513d601f19601f8201168201806040525081019061165c9190616b95565b6000611bd182614c01565b611bed5760405162461bcd60e51b8152600401610dd990617897565b600082815260306020526040902060060154611c089061411e565b15801561165c5750611c1982612cf0565b1592915050565b602e5490565b60345481565b600081815260306020908152604080832081516101c0810183528154815260018201549381019390935260028101549183019190915260038101546060830152600481015460ff808216151560808501526101008083048216151560a08601526201000090920416151560c0840152600582015460e08401526006820154908301526007810154610120830152600881015461014083015260098101805484939291610160840191611cdd90618011565b80601f0160208091040260200160405190810160405280929190818152602001828054611d0990618011565b8015611d565780601f10611d2b57610100808354040283529160200191611d56565b820191906000526020600020905b815481529060010190602001808311611d3957829003601f168201915b5050509183525050600a8201546020820152600b82015460409091019060ff166003811115611d9557634e487b7160e01b600052602160045260246000fd5b6003811115611db457634e487b7160e01b600052602160045260246000fd5b905250610140810151610120820151919250611dcf91617f83565b600d54611ddc9190617faf565b610120820151611ded906064617faf565b119392505050565b611dfd616135565b6001600160a01b0316611e0e6129fe565b6001600160a01b031614611e345760405162461bcd60e51b8152600401610dd990617722565b600081815260246020526040812090611e4d82826166bc565b6001820180546001600160a01b031916905560006002830181905560038301819055611e7d9060048401906166bc565b611e8b6005830160006166bc565b50600601805460ff1916905550565b602d5490565b603a546001600160a01b031681565b6001600160a01b038116600090815260256020908152604091829020805483518184028101840190945280845260609392830182828015611f0f57602002820191906000526020600020905b815481526020019060010190808311611efb575b50505050509050919050565b611f236166f8565b60008281526024602052604090819020815160e08101909252805482908290611f4b90618011565b80601f0160208091040260200160405190810160405280929190818152602001828054611f7790618011565b8015611fc45780601f10611f9957610100808354040283529160200191611fc4565b820191906000526020600020905b815481529060010190602001808311611fa757829003601f168201915b505050918352505060018201546001600160a01b03166020820152600282015460408201526003820154606082015260048201805460809092019161200890618011565b80601f016020809104026020016040519081016040528092919081815260200182805461203490618011565b80156120815780601f1061205657610100808354040283529160200191612081565b820191906000526020600020905b81548152906001019060200180831161206457829003601f168201915b5050505050815260200160058201805461209a90618011565b80601f01602080910402602001604051908101604052809291908181526020018280546120c690618011565b80156121135780601f106120e857610100808354040283529160200191612113565b820191906000526020600020905b8154815290600101906020018083116120f657829003601f168201915b5050509183525050600682015460209091019060ff16600381111561214857634e487b7160e01b600052602160045260246000fd5b600381111561216757634e487b7160e01b600052602160045260246000fd5b90525092915050565b601d60209081526000928352604080842090915290825290205481565b60065481565b61219b616135565b6001600160a01b03166121ac6129fe565b6001600160a01b0316146121d25760405162461bcd60e51b8152600401610dd990617722565b600081815260306020526040812081815560018101829055600281018290556003810182905560048101805462ffffff19169055600581018290556006810182905560078101829055600881018290559061223060098301826166bc565b506000600a820155600b01805460ff1916905550565b602f5460009081526030602052604090206004015460ff1661227a5760405162461bcd60e51b8152600401610dd9906177b4565b602f5460009081526030602052604090206004015462010000900460ff16156122b55760405162461bcd60e51b8152600401610dd990617679565b60006122d36122cb602880549050600254616139565b60035461614f565b60285460075460085492935090916122eb9042617fce565b1061266757602f805460009081526030602052604080822060030185905591548152908120600201839055600554612324904290616129565b9050600061233d6006548361612990919063ffffffff16565b602f8054600090815260306020526040808220600501869055825482528082206006018490559154815220600401805462ff000019166201000017905590506001841080159061238e575060018310155b6123aa5760405162461bcd60e51b8152600401610dd990617302565b60006123b68585613248565b9050600081516001600160401b038111156123e157634e487b7160e01b600052604160045260246000fd5b60405190808252806020026020018201604052801561240a578160200160208202803683370190505b50905060005b82518110156124c957602883828151811061243b57634e487b7160e01b600052603260045260246000fd5b60200260200101518154811061246157634e487b7160e01b600052603260045260246000fd5b9060005260206000200160009054906101000a90046001600160a01b031682828151811061249f57634e487b7160e01b600052603260045260246000fd5b6001600160a01b0390921660209283029190910190910152806124c18161804c565b915050612410565b5060005b82518110156126315760008282815181106124f857634e487b7160e01b600052603260045260246000fd5b60200260200101519050600060236000836001600160a01b03166001600160a01b03168152602001908152602001600020905061253482615ec2565b61253d8261615f565b61258d57602980546001810182556000919091527fcb7c14ce178f56e2e8d86ab33ebc0ae081ba8556a00cd122038841867181caac0180546001600160a01b0319166001600160a01b0384161790555b602f80546000908152602b602090815260408083208054600180820183559185529290932090910180546001600160a01b0319166001600160a01b03871617905582549184019190915560028301805460ff19169055905490517fe4ee2dfabe57cee15e3f558890b20455f54c1fa0718e5276faad70a6500e6b8c90612614908590616dc1565b60405180910390a2505080806126299061804c565b9150506124cd565b5042600855602f54612644906001616129565b602f8190555060016031600082825461265d9190617f83565b9091555050505050505b5050565b6001600160a01b031660009081526026602052604090205490565b61268e616135565b6001600160a01b031661269f6129fe565b6001600160a01b0316146126c55760405162461bcd60e51b8152600401610dd990617722565b611acf60006161cf565b60006126da82614c01565b6126f65760405162461bcd60e51b8152600401610dd990617897565b5060009081526030602052604090206006015490565b60035481565b60015481565b600c5481565b603b546001600160a01b031681565b60295460285460009161273f91617f83565b905090565b600061274f82614c01565b61276b5760405162461bcd60e51b8152600401610dd990617897565b506001600160a01b03919091166000908152601960209081526040808320938352929052205460ff1690565b603060205260009081526040902080546001820154600283015460038401546004850154600586015460068701546007880154600889015460098a018054999a98999798969760ff8088169861010089048216986201000090049091169695949392909161280490618011565b80601f016020809104026020016040519081016040528092919081815260200182805461283090618011565b801561287d5780601f106128525761010080835404028352916020019161287d565b820191906000526020600020905b81548152906001019060200180831161286057829003601f168201915b50505050600a830154600b9093015491929160ff1690508e565b600080805b60048110156128ed57601181600481106128c657634e487b7160e01b600052603260045260246000fd5b6002020160010154826128d99190617f83565b9150806128e58161804c565b91505061289c565b50905090565b6000806129008487613efd565b831015905060006129118587613efd565b8411158061291d575085155b90508180156129295750805b979650505050505050565b602981815481106118b257600080fd5b6037546001600160a01b031681565b6038546001600160a01b031681565b602d5481565b601e6020908152600092835260408084209091529082529020805461181b90618011565b6023602052600090815260409020805460018201546002830154600384015460048501546005860154600687015460078801546008909801546001600160a01b0390971697959660ff95861696949593948385169461010090940490931692908a565b603c546001600160a01b031681565b6000546001600160a01b031690565b602b6020528160005260406000208181548110612a2957600080fd5b6000918252602090912001546001600160a01b03169150829050565b60016000828152603060205260409020600b015460ff166003811115612a7b57634e487b7160e01b600052602160045260246000fd5b14612a985760405162461bcd60e51b8152600401610dd9906170a4565b336000908152601f60205260409081902090516306120d1f60e31b815273__$85afbab79b2b776d70bef879a32ed56424$__9163309068f891612ae091908590600401616db3565b60206040518083038186803b158015612af857600080fd5b505af4158015612b0c573d6000803e3d6000fd5b505050506040513d601f19601f82011682018060405250810190612b309190616a8b565b612b4c5760405162461bcd60e51b8152600401610dd990617591565b336000908152601f60205260409081902090516301039dfd60e11b815273__$85afbab79b2b776d70bef879a32ed56424$__916302073bfa91612b9491908590600401616db3565b60006040518083038186803b158015612bac57600080fd5b505af4158015612bc0573d6000803e3d6000fd5b50506040513392508391507f402507661c8c8cb90e0a796450b8bdd28b6c516f05279c0cd29e84c344e1699a90600090a350565b60325481565b60215490565b60256020528160005260406000208181548110612c1c57600080fd5b90600052602060002001600091509150505481565b6001600160a01b038116600090815260236020526040812060090181805b8254811015612ca957828181548110612c7857634e487b7160e01b600052603260045260246000fd5b90600052602060002090600202016001015482612c959190617f83565b915080612ca18161804c565b915050612c4f565b509392505050565b60008282604051602001612cc6929190616d6c565b60405160208183030381529060405280519060200120905092915050565b60325490565b60335481565b6000612cfb82614c01565b612d175760405162461bcd60e51b8152600401610dd990617897565b600082815260306020526040902060050154612d329061411e565b15801561165c575050600090815260306020526040902060020154151590565b60225490565b600081604051602001612d6b9190616d97565b6040516020818303038152906040528051906020012083604051602001612d929190616d97565b604051602081830303815290604052805190602001201415612db65750600161165c565b50600061165c565b6000612dc982614c01565b612de55760405162461bcd60e51b8152600401610dd990617897565b506001600160a01b03919091166000908152601a60209081526040808320938352929052205460ff1690565b6000804241604051602001612e269190616d4f565b6040516020818303038152906040528051906020012060001c612e499190617f9b565b44612e52611ae1565b604051602001612e629190616d8e565b60408051601f198184030181529190528051602090910120612e849042617f83565b612e8e9190617f83565b612e989190617f83565b604051602001612ea89190616d8e565b60408051601f19818403018152919052805160209091012091505090565b602c546001600160a01b031681565b600f5481565b602a81815481106118b257600080fd5b6001600160a01b03808216600090815260236020908152604080832081516101608101835281549095168552600181015485840152600281015460ff90811615158684015260038201546060870152600482015460808701526005820154808216151560a088015261010090819004909116151560c0870152600682015460e0870152600782015490860152600881015461012086015260098101805483518186028101860190945280845294958695869591946101408601939092909190879084015b82821015612ff557838290600052602060002090600202016040518060400160405290816000820154815260200160018201548152505081526020019060010190612faf565b50505091525050604081015190915015801561301b5750613019816020015161161a565b155b1561302557600191505b5092915050565b60008282604051602001612cc6929190616db3565b60606000821161305057600080fd5b6000416040516020016130639190616d4f565b6040516020818303038152906040528051906020012060001c613084611ae1565b6040516020016130949190616d8e565b60408051601f1981840301815291905280516020909101206130b69042617f83565b6130c09190617f83565b6040516020016130d09190616d8e565b6040516020818303038152906040528051906020012060001c90506000846001600160401b0381111561311357634e487b7160e01b600052604160045260246000fd5b60405190808252806020026020018201604052801561313c578160200160208202803683370190505b5090506000805b8682101561323d5760008661315c63017efeeb87617fce565b8360405160200161316e929190616db3565b6040516020818303038152906040528051906020012060001c6131919190618067565b90506000805b848110156131e957828682815181106131c057634e487b7160e01b600052603260045260246000fd5b602002602001015114156131d757600191506131e9565b806131e18161804c565b915050613197565b5080613229578185858151811061321057634e487b7160e01b600052603260045260246000fd5b6020908102919091010152613226846001617f83565b93505b613234836001617f83565b92505050613143565b509095945050505050565b606060008211801561325a5750818311155b8015613267575060018310155b6132835760405162461bcd60e51b8152600401610dd9906172b9565b6000826001600160401b038111156132ab57634e487b7160e01b600052604160045260246000fd5b6040519080825280602002602001820160405280156132d4578160200160208202803683370190505b5090506000846001600160401b038111156132ff57634e487b7160e01b600052604160045260246000fd5b604051908082528060200260200182016040528015613328578160200160208202803683370190505b509050600061333e6133398461621f565b616275565b905060005b8681101561323d5781818151811061336b57634e487b7160e01b600052603260045260246000fd5b602002602001015183828151811061339357634e487b7160e01b600052603260045260246000fd5b6020908102919091010152806133a88161804c565b915050613343565b60006133ba614d52565b603c54600160a01b900460ff166133e35760405162461bcd60e51b8152600401610dd9906174a4565b6133eb615ff2565b600f546133f6612897565b116134135760405162461bcd60e51b8152600401610dd9906174ee565b61341c33616409565b60105461342833612c31565b116134455760405162461bcd60e51b8152600401610dd990617b58565b60048054603b5460405163792f4f6960e11b815291926000926001600160a01b039092169163f25e9ed29161347c91339101616dc1565b60206040518083038186803b15801561349457600080fd5b505afa1580156134a8573d6000803e3d6000fd5b505050506040513d601f19601f820116820180604052508101906134cc9190616951565b33600090815260266020526040902054909150821115613575576001600160a01b0381161561354c576001600160a01b038116600090815260266020526040902054821115613547576001600160a01b038116600090815260266020526040812054613539908490614eda565b90506135458183616596565b505b613575565b33600090815260266020526040812054613567908490614eda565b90506135738133616596565b505b60005b88518110156138965760008982815181106135a357634e487b7160e01b600052603260045260246000fd5b6020026020010151905060008989848181106135cf57634e487b7160e01b600052603260045260246000fd5b90506020028101906135e19190617f0a565b8080601f016020809104026020016040519081016040528093929190818152602001838380828437600092018290525033808252602560209081526040808420602254815460018101835591865283862090910155805160e0810182528a8152918201929092524291810191909152606081018e90526080810186905260a081018d905294955060c08501935091506136779050565b905260225460009081526024602090815260409091208251805191926136a29284929091019061675c565b506020828101516001830180546001600160a01b0319166001600160a01b039092169190911790556040830151600283015560608301516003830155608083015180516136f5926004850192019061675c565b5060a0820151805161371191600584019160209091019061675c565b5060c082015160068201805460ff1916600183600381111561374357634e487b7160e01b600052602160045260246000fd5b021790555050602d546000908152603060205260409020600180549082015491925011156137865760018160010160008282546137809190617f83565b90915550505b6001548160010154106137d857600481018054600160ff19909116811761ff001916909155602d80546000906137bd908490617f83565b9091555050602254602d546000908152603060205260409020555b6022546137e6906001617f83565b602255600160116137f8826004617fce565b6004811061381657634e487b7160e01b600052603260045260246000fd5b60020201600101600082825461382c9190617f83565b9091555061383a90506118cc565b336001600160a01b03166022547fb819ca9ac369919119f75ec7363dd954f75bcfa75f9245647e03da413be0d5828585604051613878929190616f95565b60405180910390a3505050808061388e9061804c565b915050613578565b503360009081526023602052604081204260048201556031805491926001926138c0908490617f83565b90915550506022549998505050505050505050565b60006138e082614c01565b6138fc5760405162461bcd60e51b8152600401610dd990617897565b5060009081526030602052604090206005015490565b600d5481565b60266020526000908152604090205481565b60025481565b60045481565b61393e614d52565b61394785612cf0565b6139635760405162461bcd60e51b8152600401610dd9906171a1565b33600090815260196020908152604080832088845290915290205460ff161561399e5760405162461bcd60e51b8152600401610dd99061798b565b6139a88533613f99565b6139c45760405162461bcd60e51b8152600401610dd99061734c565b60048054603b5460405163792f4f6960e11b815291926000926001600160a01b039092169163f25e9ed2916139fb91339101616dc1565b60206040518083038186803b158015613a1357600080fd5b505afa158015613a27573d6000803e3d6000fd5b505050506040513d601f19601f82011682018060405250810190613a4b9190616951565b33600090815260266020526040902054909150821115613af4576001600160a01b03811615613acb576001600160a01b038116600090815260266020526040902054821115613ac6576001600160a01b038116600090815260266020526040812054613ab8908490614eda565b9050613ac48183616596565b505b613af4565b33600090815260266020526040812054613ae6908490614eda565b9050613af28133616596565b505b6000336000908152601f60205260408082209051631e0f232560e31b815273__$85afbab79b2b776d70bef879a32ed56424$__9163f079192891613b3d91908690600401616db3565b60206040518083038186803b158015613b5557600080fd5b505af4158015613b69573d6000803e3d6000fd5b505050506040513d601f19601f82011682018060405250810190613b8d9190616b95565b905088811415613c3257336000908152601f6020526040908190209051631e0f232560e31b815273__$85afbab79b2b776d70bef879a32ed56424$__9163f079192891613bdf91908d90600401616db3565b60206040518083038186803b158015613bf757600080fd5b505af4158015613c0b573d6000803e3d6000fd5b505050506040513d601f19601f82011682018060405250810190613c2f9190616b95565b90505b613c3e828233876128f3565b613c5a5760405162461bcd60e51b8152600401610dd9906175ee565b336000908152601f602052604090819020905163524cfe5360e11b815273__$85afbab79b2b776d70bef879a32ed56424$__9163a499fca691613ca6919086908e908790600401617d80565b60006040518083038186803b158015613cbe57600080fd5b505af4158015613cd2573d6000803e3d6000fd5b505050506000613ce2338b612cb1565b60405163099b040f60e31b815290915073__$0947e710b66d7779e1d561254425e1375a$__90634cd8207890613d219060209085908a90600401617d62565b60006040518083038186803b158015613d3957600080fd5b505af4158015613d4d573d6000803e3d6000fd5b505060405163099b040f60e31b815273__$0947e710b66d7779e1d561254425e1375a$__9250634cd820789150613d8d9060209085908e90600401617d16565b60006040518083038186803b158015613da557600080fd5b505af4158015613db9573d6000803e3d6000fd5b50505060008b8152601c6020908152604080832033845282529091208a51613de6935090918b019061675c565b5060008a8152601d60209081526040808320338085529083528184208b90558d8452601e835281842090845282529091208751613e259289019061675c565b503360009081526023602090815260408083208d8452603090925290912060020154613e52906001614eda565b60008c815260306020908152604080832060020193909355426004850155338252601981528282208e83529052908120805460ff191660019081179091556031805491929091613ea3908490617f83565b909155505060405133908c907f42864d9683ff5b12c3b2cc65d705af5aab104b03bc700b802f79e5c971ef08a190613edc908a90616d8e565b60405180910390a35050505050505050505050565b60085481565b600a5481565b600073__$0947e710b66d7779e1d561254425e1375a$__63698101586020613f258686612cb1565b6040518363ffffffff1660e01b8152600401613f42929190617d44565b60206040518083038186803b158015613f5a57600080fd5b505af4158015613f6e573d6000803e3d6000fd5b505050506040513d601f19601f82011682018060405250810190613f929190616b95565b9392505050565b6000828152602b60209081526040808320805482518185028101850190935280835284938493929190830182828015613ffb57602002820191906000526020600020905b81546001600160a01b03168152600190910190602001808311613fdd575b5050505050905060005b815181101561406a57846001600160a01b031682828151811061403857634e487b7160e01b600052603260045260246000fd5b60200260200101516001600160a01b03161415614058576001925061406a565b806140628161804c565b915050614005565b5090949350505050565b601a60209081526000928352604080842090915290825290205460ff1681565b60095481565b602f5481565b60276020528160005260406000208181548110612a2957600080fd5b601b60209081526000928352604080842090915290825290205481565b600073__$0947e710b66d7779e1d561254425e1375a$__636981015860206141018686612cb1565b6040518363ffffffff1660e01b8152600401613f42929190617cf8565b421190565b61412b6167e0565b61413482614c01565b61413d57600080fd5b60008281526030602090815260409182902082516101c0810184528154815260018201549281019290925260028101549282019290925260038201546060820152600482015460ff808216151560808401526101008083048216151560a08501526201000090920416151560c0830152600583015460e083015260068301549082015260078201546101208201526008820154610140820152600982018054919291610160840191906141ef90618011565b80601f016020809104026020016040519081016040528092919081815260200182805461421b90618011565b80156142685780601f1061423d57610100808354040283529160200191614268565b820191906000526020600020905b81548152906001019060200180831161424b57829003601f168201915b5050509183525050600a8201546020820152600b82015460409091019060ff16600381111561214857634e487b7160e01b600052602160045260246000fd5b600e5481565b6060600082116142bc57600080fd5b6000826001600160401b038111156142e457634e487b7160e01b600052604160045260246000fd5b60405190808252806020026020018201604052801561430d578160200160208202803683370190505b509050600061431e6133398361621f565b949350505050565b606061433182614c01565b61433a57600080fd5b6000828152603060205260409020600901805461435690618011565b80601f016020809104026020016040519081016040528092919081815260200182805461438290618011565b8015611f0f5780601f106143a457610100808354040283529160200191611f0f565b820191906000526020600020905b8154815290600101906020018083116143b25750939695505050505050565b60055481565b6001600160a01b031660009081526023602052604090206005015460ff1690565b600061442061440a33610c0433611b26565b3360009081526026602052604090205490614eda565b9050818110156144425760405162461bcd60e51b8152600401610dd990617850565b603854604051630895993360e11b81526001600160a01b039091169063112b3266906144749085903390600401617e2f565b602060405180830381600087803b15801561448e57600080fd5b505af11580156144a2573d6000803e3d6000fd5b505050506040513d601f19601f820116820180604052508101906144c69190616a8b565b6144e25760405162461bcd60e51b8152600401610dd990617afb565b3360009081526026602052604081208054849290614501908490617fce565b909155505060405133907ffaeb7dbb9992397d26ea1944efd40c80b40f702faf69b46c67ad10aba68ccb7990614538908590616d8e565b60405180910390a25050565b60355481565b606061455582614c01565b6145715760405162461bcd60e51b8152600401610dd990617897565b600082815260306020908152604080832081516101c0810183528154815260018201549381019390935260028101549183019190915260038101546060830152600481015460ff808216151560808501526101008083048216151560a08601526201000090920416151560c0840152600582015460e0840152600682015490830152600781015461012083015260088101546101408301526009810180546101608401919061461f90618011565b80601f016020809104026020016040519081016040528092919081815260200182805461464b90618011565b80156146985780601f1061466d57610100808354040283529160200191614698565b820191906000526020600020905b81548152906001019060200180831161467b57829003601f168201915b5050509183525050600a8201546020820152600b82015460409091019060ff1660038111156146d757634e487b7160e01b600052602160045260246000fd5b60038111156146f657634e487b7160e01b600052602160045260246000fd5b9052506020810151600154919250906000906001600160401b0381111561472d57634e487b7160e01b600052604160045260246000fd5b60405190808252806020026020018201604052801561476057816020015b606081526020019060019003908161474b5790505b50905060005b8281101561161157835160009061477e908390617f83565b60008181526024602052604081208054929350909161479c90618011565b80601f01602080910402602001604051908101604052809291908181526020018280546147c890618011565b80156148155780601f106147ea57610100808354040283529160200191614815565b820191906000526020600020905b8154815290600101906020018083116147f857829003601f168201915b505050505090508084848151811061483d57634e487b7160e01b600052603260045260246000fd5b6020026020010181905250505080806148559061804c565b915050614766565b602e5481565b60315481565b614871616135565b6001600160a01b03166148826129fe565b6001600160a01b0316146148a85760405162461bcd60e51b8152600401610dd990617722565b6001600160a01b0381166148ce5760405162461bcd60e51b8152600401610dd990617273565b6148d7816161cf565b50565b60008383836040516020016148f193929190616eeb565b6040516020818303038152906040528051906020012090509392505050565b60315490565b61491e614d52565b3360009081526023602052604090206029546028546103e89161494091617f83565b1061495d5760405162461bcd60e51b8152600401610dd9906179d4565b600581015460ff16156149825760405162461bcd60e51b8152600401610dd99061706d565b6009548160030154101580156149a75750600a5460068201546149a59042617fce565b105b156149c45760405162461bcd60e51b8152600401610dd990617a63565b60048054603b5460405163792f4f6960e11b815291926000926001600160a01b039092169163f25e9ed2916149fb91339101616dc1565b60206040518083038186803b158015614a1357600080fd5b505afa158015614a27573d6000803e3d6000fd5b505050506040513d601f19601f82011682018060405250810190614a4b9190616951565b33600090815260266020526040902054909150821115614af4576001600160a01b03811615614acb576001600160a01b038116600090815260266020526040902054821115614ac6576001600160a01b038116600090815260266020526040812054614ab8908490614eda565b9050614ac48183616596565b505b614af4565b33600090815260266020526040812054614ae6908490614eda565b9050614af28133616596565b505b33600090815260266020526040902054821115614b235760405162461bcd60e51b8152600401610dd9906170f5565b614b2c3361503e565b614b7357602880546001810182556000919091527fe16da923a2d88192e5070f37b4571d58682c0d66212ec634d495f33de3f77ab50180546001600160a01b031916331790555b8254336001600160a01b031990911617835560058301805460ff1916600190811761ff00191690915542600685015560006003850181905560318054909190614bbd908490617f83565b909155505060405133907f439d77b7534ec3108fc6143bd4fbabde0b9f2bb54f7b0730d1f70dd2135b765f90614bf4904290616d8e565b60405180910390a2505050565b602d54101590565b3360009081526023602052604090206005015460ff1690565b60335490565b6036546001600160a01b031681565b6001600160a01b03808216600090815260236020908152604080832081516101608101835281549095168552600181015485840152600281015460ff90811615158684015260038201546060870152600482015460808701526005820154808216151560a088015261010090819004909116151560c0870152600682015460e08701526007820154908601526008810154610120860152600981018054835181860281018601909452808452949586959094929361014086019390929190879084015b82821015614d4057838290600052602060002090600202016040518060400160405290816000820154815260200160018201548152505081526020019060010190614cfa565b50505091525050602001519392505050565b602c546001600160a01b0316614d7a5760405162461bcd60e51b8152600401610dd9906178ce565b602c546040516000916001600160a01b031690614d9b903390602401616dc1565b60408051601f198184030181529181526020820180516001600160e01b0316631f5ac9c560e11b17905251614dd09190616d97565b6000604051808303816000865af19150503d8060008114614e0d576040519150601f19603f3d011682016040523d82523d6000602084013e614e12565b606091505b5050602c546040519192506000916001600160a01b0390911690614e3a903390602401616dc1565b60408051601f198184030181529181526020820180516001600160e01b03166358563d2160e01b17905251614e6f9190616d97565b6000604051808303816000865af19150503d8060008114614eac576040519150601f19603f3d011682016040523d82523d6000602084013e614eb1565b606091505b505090508180614ebe5750805b6126675760405162461bcd60e51b8152600401610dd99061715c565b6000613f928284617fce565b60008060005b602954811015614f5a57836001600160a01b031660298281548110614f2157634e487b7160e01b600052603260045260246000fd5b6000918252602090912001546001600160a01b03161415614f485760019150809250614f5a565b80614f528161804c565b915050614eec565b5080156150395760298054614f7190600190617fce565b81548110614f8f57634e487b7160e01b600052603260045260246000fd5b600091825260209091200154602980546001600160a01b039092169184908110614fc957634e487b7160e01b600052603260045260246000fd5b9060005260206000200160006101000a8154816001600160a01b0302191690836001600160a01b03160217905550602980548061501657634e487b7160e01b600052603160045260246000fd5b600082815260209020810160001990810180546001600160a01b03191690550190555b505050565b600080805b60285481101561302557836001600160a01b03166028828154811061507857634e487b7160e01b600052603260045260246000fd5b6000918252602090912001546001600160a01b0316141561509c5760019150613025565b806150a68161804c565b915050615043565b6150b78161161a565b806150d15750600081815260306020526040902060030154155b6150ed5760405162461bcd60e51b8152600401610dd990617757565b600081815260306020526040902060040154610100900460ff16156151245760405162461bcd60e51b8152600401610dd99061794a565b6000818152602b602090815260408083208054825181850281018501909352808352919290919083018282801561518457602002820191906000526020600020905b81546001600160a01b03168152600190910190602001808311615166575b50505050509050600081516001600160401b038111156151b457634e487b7160e01b600052604160045260246000fd5b6040519080825280602002602001820160405280156151e757816020015b60608152602001906001900390816151d25790505b509050600082516001600160401b0381111561521357634e487b7160e01b600052604160045260246000fd5b60405190808252806020026020018201604052801561523c578160200160208202803683370190505b50905060005b83518110156153bf57600084828151811061526d57634e487b7160e01b600052603260045260246000fd5b6020908102919091018101516000888152601c835260408082206001600160a01b03841683529093529182208054919350906152a890618011565b80601f01602080910402602001604051908101604052809291908181526020018280546152d490618011565b80156153215780601f106152f657610100808354040283529160200191615321565b820191906000526020600020905b81548152906001019060200180831161530457829003601f168201915b50505060008a8152601d602090815260408083206001600160a01b03891684529091529020548851939450928492508891508690811061537157634e487b7160e01b600052603260045260246000fd5b60200260200101819052508085858151811061539d57634e487b7160e01b600052603260045260246000fd5b60200260200101818152505050505080806153b79061804c565b915050615242565b5060006153e76064600d5486516153d69190617faf565b6153e09190617f9b565b600161614f565b905060008360008151811061540c57634e487b7160e01b600052603260045260246000fd5b6020026020010151905060005b8451811015615502576000805b86518110156154b75761548787848151811061545257634e487b7160e01b600052603260045260246000fd5b602002602001015188838151811061547a57634e487b7160e01b600052603260045260246000fd5b6020026020010151612d58565b156154a557615497600183617f83565b91508482106154a5576154b7565b806154af8161804c565b915050615426565b508381106154ef578582815181106154df57634e487b7160e01b600052603260045260246000fd5b6020026020010151925050615502565b50806154fa8161804c565b915050615419565b5060008360008151811061552657634e487b7160e01b600052603260045260246000fd5b6020026020010151905060005b8451811015615615576000805b86518110156155ca5786818151811061556957634e487b7160e01b600052603260045260246000fd5b602002602001015187848151811061559157634e487b7160e01b600052603260045260246000fd5b602002602001015114156155b8576155aa600183617f83565b91508582106155b8576155ca565b806155c28161804c565b915050615540565b50848110615602578582815181106155f257634e487b7160e01b600052603260045260246000fd5b6020026020010151925050615615565b508061560d8161804c565b915050615533565b50600061562188611c2c565b905060005b8751811015615a2b57600088828151811061565157634e487b7160e01b600052603260045260246000fd5b60209081029190910181015160008c8152601b835260408082206001600160a01b0384168352845280822054601a85528183208f845290945290205490925060ff1661569c83614ee6565b6001600160a01b0383166000908152602360205260409020811561599c576001600160a01b038416600090815260236020526040812060028101805460ff191660019081179091556003909101919091558615151480156156fd5750826001145b80615712575085158015615712575082600114155b156158fe57603b546040516308c0a84360e11b81526000916001600160a01b031690631181508690615748908890600401616dc1565b60206040518083038186803b15801561576057600080fd5b505afa158015615774573d6000803e3d6000fd5b505050506040513d601f19601f820116820180604052508101906157989190616951565b603954600c54604051630db6cc8560e11b81529293506001600160a01b0390911691631b6d990a916157ce918590600401617e46565b602060405180830381600087803b1580156157e857600080fd5b505af11580156157fc573d6000803e3d6000fd5b505050506040513d601f19601f820116820180604052508101906158209190616a8b565b61583c5760405162461bcd60e51b8152600401610dd990617544565b603a54600b54604051633832942560e21b81526001600160a01b039092169163e0ca50949161586f918590600401617e2f565b602060405180830381600087803b15801561588957600080fd5b505af115801561589d573d6000803e3d6000fd5b505050506040513d601f19601f820116820180604052508101906158c19190616a8b565b6158dd5760405162461bcd60e51b8152600401610dd9906173a9565b60018260070160008282546158f29190617f83565b90915550615919915050565b60018160080160008282546159139190617f83565b90915550505b600581015460ff16156159975761592f8461503e565b15801561594657506005810154610100900460ff16155b1561599757602880546001810182556000919091527fe16da923a2d88192e5070f37b4571d58682c0d66212ec634d495f33de3f77ab50180546001600160a01b0319166001600160a01b0386161790555b615a14565b6005810154610100900460ff16806159b2575081155b15615a1457600581015460ff16156159e25760058101805460ff191690556159d984615ec2565b6159e284614ee6565b6001600160a01b0384166000908152602360205260408120600301805460019290615a0e908490617f83565b90915550505b505050508080615a239061804c565b915050615626565b50600088815260306020908152604090912060048101805461ff0019166101001790558451615a629260099092019186019061675c565b506000888152603060205260409020600a018290558015615dc15760008881526030602052604081208054600190910154909190615aa09083617f83565b9050815b81811015615c9d5760008181526024602052604080822060010154603b5491516308c0a84360e11b81526001600160a01b03918216939290911690631181508690615af3908590600401616dc1565b60206040518083038186803b158015615b0b57600080fd5b505afa158015615b1f573d6000803e3d6000fd5b505050506040513d601f19601f82011682018060405250810190615b439190616951565b603954600c54604051630db6cc8560e11b81529293506001600160a01b0390911691631b6d990a91615b79918590600401617e46565b602060405180830381600087803b158015615b9357600080fd5b505af1158015615ba7573d6000803e3d6000fd5b505050506040513d601f19601f82011682018060405250810190615bcb9190616a8b565b615be75760405162461bcd60e51b8152600401610dd990617a16565b603a54600b54604051633832942560e21b81526001600160a01b039092169163e0ca509491615c1a918590600401617e2f565b602060405180830381600087803b158015615c3457600080fd5b505af1158015615c48573d6000803e3d6000fd5b505050506040513d601f19601f82011682018060405250810190615c6c9190616a8b565b615c885760405162461bcd60e51b8152600401610dd9906178fb565b50508080615c959061804c565b915050615aa4565b5060008a8152603060205260408120600b01805460ff191660019081179091556032805491929091615cd0908490617f83565b9091555050603c546040516348257dc960e01b81526001600160a01b03909116906348257dc990615d05908d90600401616d8e565b600060405180830381600087803b158015615d1f57600080fd5b505af1925050508015615d30575060015b615da1573d808015615d5e576040519150601f19603f3d011682016040523d82523d6000602084013e615d63565b606091505b507f4b87bbd93ba65ede1e2efeca735d9f7a6720bf7d6db0a8355b17dba5b64e578381604051615d939190616ed8565b60405180910390a150615dba565b600160316000828254615db49190617f83565b90915550505b5050615df6565b6000888152603060205260408120600b01805460ff191660021790556033805460019290615df0908490617f83565b90915550505b600160316000828254615e099190617f83565b90915550506000888152603060205260408120600201546034805491929091615e33908490617f83565b90915550506000888152603060205260408120600301546035805491929091615e5d908490617f83565b909155505060008881526024602052604090819020600181015491516001600160a01b03909216917f43916c3ae75995d24cc89b466ed08e6dba74d325f7957f9b37b05f150e12918e91615eb091616fc3565b60405180910390a25050505050505050565b60008060005b602854811015615f3657836001600160a01b031660288281548110615efd57634e487b7160e01b600052603260045260246000fd5b6000918252602090912001546001600160a01b03161415615f245760019150809250615f36565b80615f2e8161804c565b915050615ec8565b5080156150395760288054615f4d90600190617fce565b81548110615f6b57634e487b7160e01b600052603260045260246000fd5b600091825260209091200154602880546001600160a01b039092169184908110615fa557634e487b7160e01b600052603260045260246000fd5b9060005260206000200160006101000a8154816001600160a01b0302191690836001600160a01b03160217905550602880548061501657634e487b7160e01b600052603160045260246000fd5b600061600060016004617fce565b905060006011826004811061602557634e487b7160e01b600052603260045260246000fd5b6002020154600e5490915061603a8242617fce565b11156126675760005b61604f60016004617fce565b8110156160d0576011616063826001617f83565b6004811061608157634e487b7160e01b600052603260045260246000fd5b60020201601182600481106160a657634e487b7160e01b600052603260045260246000fd5b825460029190910291909101908155600191820154910155806160c88161804c565b915050616043565b5042601183600481106160f357634e487b7160e01b600052603260045260246000fd5b6002020155426011836004811061611a57634e487b7160e01b600052603260045260246000fd5b60020201600101819055505050565b6000613f928284617f83565b3390565b60008183106161485781613f92565b5090919050565b6000818310156161485781613f92565b600080805b60295481101561302557836001600160a01b03166029828154811061619957634e487b7160e01b600052603260045260246000fd5b6000918252602090912001546001600160a01b031614156161bd5760019150613025565b806161c78161804c565b915050616164565b600080546001600160a01b038381166001600160a01b0319831681178455604051919092169283917f8be0079c531659141344cd1fd0a4f28419497f9722a3daafe3b4186f6b6457e09190a35050565b805160609060005b8181101561626d578084828151811061625057634e487b7160e01b600052603260045260246000fd5b6020908102919091010152806162658161804c565b915050616227565b509192915050565b6060600082511161628557600080fd5b81518060005b818110156164005760008361629e612e11565b8784815181106162be57634e487b7160e01b600052603260045260246000fd5b60200260200101516040516020016162d7929190616db3565b6040516020818303038152906040528051906020012060001c6162fa9190618067565b616305906001617f83565b9050600086616315600184617fce565b8151811061633357634e487b7160e01b600052603260045260246000fd5b602002602001015190508660018661634b9190617fce565b8151811061636957634e487b7160e01b600052603260045260246000fd5b60200260200101518760018461637f9190617fce565b8151811061639d57634e487b7160e01b600052603260045260246000fd5b602090810291909101015280876163b5600188617fce565b815181106163d357634e487b7160e01b600052603260045260246000fd5b60209081029190910101526163e9600186617fce565b9450505080806163f89061804c565b91505061628b565b50929392505050565b6001600160a01b0381166000908152602360205260408120600901805490919061643590600190617fce565b9050600082828154811061645957634e487b7160e01b600052603260045260246000fd5b9060005260206000209060020201600001549050600e54814261647c9190617fce565b11156165905760005b835461649390600190617fce565b81101561652257836164a6826001617f83565b815481106164c457634e487b7160e01b600052603260045260246000fd5b90600052602060002090600202018482815481106164f257634e487b7160e01b600052603260045260246000fd5b6000918252602090912082546002909202019081556001918201549101558061651a8161804c565b915050616485565b504283838154811061654457634e487b7160e01b600052603260045260246000fd5b9060005260206000209060020201600001819055504283838154811061657a57634e487b7160e01b600052603260045260246000fd5b9060005260206000209060020201600101819055505b50505050565b6038546040516304ada21f60e21b81526001600160a01b03909116906312b6887c906165c89085908590600401617e2f565b602060405180830381600087803b1580156165e257600080fd5b505af11580156165f6573d6000803e3d6000fd5b505050506040513d601f19601f8201168201806040525081019061661a9190616a8b565b6166365760405162461bcd60e51b8152600401610dd9906173f8565b6001600160a01b0381166000908152602660205260408120805484929061665e908490617f83565b92505081905550806001600160a01b03167f5aa5d56140767016c877a5333ac3e1ad31a09051098a8fdf7297c4b64530a942836040516145389190616d8e565b50805460008255906000526020600020908101906148d7919061686e565b5080546166c890618011565b6000825580601f106166da57506148d7565b601f0160209004906000526020600020908101906148d7919061686e565b6040518060e001604052806060815260200160006001600160a01b03168152602001600081526020016000815260200160608152602001606081526020016000600381111561675757634e487b7160e01b600052602160045260246000fd5b905290565b82805461676890618011565b90600052602060002090601f01602090048101928261678a57600085556167d0565b82601f106167a357805160ff19168380011785556167d0565b828001600101855582156167d0579182015b828111156167d05782518255916020019190600101906167b5565b506167dc92915061686e565b5090565b604051806101c00160405280600081526020016000815260200160008152602001600081526020016000151581526020016000151581526020016000151581526020016000815260200160008152602001600081526020016000815260200160608152602001600081526020016000600381111561675757634e487b7160e01b600052602160045260246000fd5b5b808211156167dc576000815560010161686f565b60008083601f840112616894578182fd5b5081356001600160401b038111156168aa578182fd5b60208301915083602080830285010111156168c457600080fd5b9250929050565b600082601f8301126168db578081fd5b81356001600160401b038111156168f4576168f46180a7565b616907601f8201601f1916602001617f4e565b81815284602083860101111561691b578283fd5b816020850160208301379081016020019190915292915050565b600060208284031215616946578081fd5b8135613f92816180bd565b600060208284031215616962578081fd5b8151613f92816180bd565b6000806040838503121561697f578081fd5b823561698a816180bd565b946020939093013593505050565b6000806000806000608086880312156169af578081fd5b85356001600160401b03808211156169c5578283fd5b818801915088601f8301126169d8578283fd5b81356020828211156169ec576169ec6180a7565b6169f98182840201617f4e565b82815281810190858301875b85811015616a2e57616a1c8f8684358b01016168cb565b84529284019290840190600101616a05565b50909a50505089013592505080821115616a46578283fd5b616a5289838a01616883565b9096509450604088013593506060880135915080821115616a71578283fd5b50616a7e888289016168cb565b9150509295509295909350565b600060208284031215616a9c578081fd5b81518015158114613f92578182fd5b600080600060408486031215616abf578283fd5b83356001600160401b0380821115616ad5578485fd5b818601915086601f830112616ae8578485fd5b813581811115616af6578586fd5b876020828501011115616b07578586fd5b6020928301989097509590910135949350505050565b60008060408385031215616b2f578182fd5b82356001600160401b0380821115616b45578384fd5b616b51868387016168cb565b93506020850135915080821115616b66578283fd5b50616b73858286016168cb565b9150509250929050565b600060208284031215616b8e578081fd5b5035919050565b600060208284031215611af7578081fd5b60008060408385031215616bb8578182fd5b823591506020830135616bca816180bd565b809150509250929050565b600080600080600060a08688031215616bec578081fd5b853594506020860135935060408601356001600160401b0380821115616c10578283fd5b616c1c89838a016168cb565b9450606088013593506080880135915080821115616a71578283fd5b60008060408385031215616c4a578182fd5b50508035926020909101359150565b60008060008060808587031215616c6e578182fd5b84359350602085013592506040850135616c87816180bd565b9396929550929360600135925050565b600080600060608486031215616cab578081fd5b505081359360208301359350604090920135919050565b15159052565b60008151808452616ce0816020860160208601617fe5565b601f01601f19169290920160200192915050565b60048110616d1257634e487b7160e01b600052602160045260246000fd5b9052565b600a8152690c6dedadad2e890c2e6d60b31b602082015260400190565b60098152686e756d546f6b656e7360b81b602082015260400190565b60609190911b6bffffffffffffffffffffffff1916815260140190565b60609290921b6bffffffffffffffffffffffff19168252601482015260340190565b90815260200190565b60008251616da9818460208701617fe5565b9190910192915050565b918252602082015260400190565b6001600160a01b0391909116815260200190565b6001600160a01b039a909a168a5260208a0198909852951515604089015260608801949094526080870192909252151560a0860152151560c085015260e08401526101008301526101208201526101400190565b6000602080830181845280855180835260408601915060408482028701019250838701855b82811015616e7c57603f19888603018452616e6a858351616cc8565b94509285019290850190600101616e4e565b5092979650505050505050565b6020808252825182820181905260009190848201906040850190845b81811015616ec157835183529284019291840191600101616ea5565b50909695505050505050565b901515815260200190565b600060208252613f926020830184616cc8565b6000604082528360408301528385606084013780606085840101526060601f19601f8601168301019050826020830152949350505050565b600060e08252616f3660e083018a616cc8565b6001600160a01b038916602084015260408301889052606083018790528281036080840152616f658187616cc8565b905082810360a0840152616f798186616cc8565b915050616f8960c0830184616cf4565b98975050505050505050565b600060408252616fa86040830185616cc8565b8281036020840152616fba8185616cc8565b95945050505050565b6000602080835281845483600282049050600180831680616fe557607f831692505b85831081141561700357634e487b7160e01b87526022600452602487fd5b61700f83878a01616d8e565b81801561702357600181146170345761705e565b60ff1986168252878201965061705e565b61703d8b617f77565b895b868110156170585781548482015290850190890161703f565b83019750505b50949998505050505050505050565b6020808252601c908201527f576f726b657220697320616c7265616479207265676973746572656400000000604082015260600190565b60208082526031908201527f676976656e204461746142617463682073686f756c6420626520415050524f5660408201527011510b08185b99081a5d081a5cc81b9bdd607a1b606082015260800190565b60208082526041908201527f576f726b657220686173206e6f7420656e6f75676820285f6e756d546f6b656e60408201527f732920696e206869732053706f745374616b6564546f6b656e42616c616e63656060820152600160fd1b608082015260a00190565b60208082526025908201527f72656365697665722072656a6563746564205f7265747269657665534675656c6040820152640818d85b1b60da1b606082015260800190565b6020808252602f908201527f636f6d6d697420706572696f64206e6565647320746f206265206f70656e206660408201526e1bdc881d1a1a5cc818985d18da1259608a1b606082015260800190565b6020808252605c908201527f4e6f74207468652073616d6520766f7465207468616e2077686174207761732060408201527f636f6d6d697465642c20696d706f737369626c6520746f206d6174636820776960608201527f746820676976656e205f73616c742026205f766f74654f7074696f6e00000000608082015260a00190565b60208082526026908201527f4f776e61626c653a206e6577206f776e657220697320746865207a65726f206160408201526564647265737360d01b606082015260800190565b60208082526029908201527f6b206f72204e20617265206e6f74204f4b20647572696e672072616e646f6d2060408201526839b2b632b1ba34b7b760b91b606082015260800190565b6020808252602a908201527f4661696c20647572696e6720616c6c6f636174696f6e3a206e6f7420656e6f75604082015269676820776f726b65727360b01b606082015260800190565b60208082526038908201527f55736572206e6565647320746f20626520616c6c6f636174656420746f20746860408201527f697320626174636820746f20636f6d6d6974206f6e2069740000000000000000606082015260800190565b6020808252602f908201527f636f756c64206e6f742072657761726420746f6b656e20696e2054726967676560408201526e3921b432b1b5a9b837ba161018973160891b606082015260800190565b6020808252603f908201527f436f756c64206e6f74207265717565737420656e6f75676820616c6c6f63617460408201527f6564207374616b652c2072657175657374416c6c6f63617465645374616b6500606082015260800190565b6020808252602f908201527f5573657220686173206e6f7420636f6d6d69746564206265666f72652c20746860408201526e1d5cc818d85b89dd081c995d99585b608a1b606082015260800190565b6020808252602a908201527f53706f7474696e67206973206e6f742063757272656e746c7920656e61626c656040820152693210313c9027bbb732b960b11b606082015260800190565b60208082526036908201527f476c6f62616c206c696d69743a206578636565646564206d61782064617461206040820152753832b9103437bab916103932ba393c903630ba32b91760511b606082015260800190565b6020808252602d908201527f636f756c64206e6f74207265776172642052455020696e20547269676765724360408201526c6865636b53706f742c20312e6160981b606082015260800190565b60208082526039908201527f646c6c4d61703a20646f6573206e6f7420636f696e7461696e205f446174614260408201527f61746368496420666f7220746865206d73672073656e64657200000000000000606082015260800190565b6020808252601490820152733737ba1030903b30b634b2103837b9b4ba34b7b760611b604082015260600190565b6020808252603a908201527f576f726b65722063757272656e746c792068617320776f726b20616c6c6f636160408201527f7465642c2063616e277420626520756e72656769737465726564000000000000606082015260800190565b6020808252603b908201527f43616e277420616c6c6f6361746520776f726b2c207468652063757272656e7460408201527f20626174636820697320616c726561647920616c6c6f63617465640000000000606082015260800190565b6020808252602c908201527f576f726b6572206973206e6f74207265676973746572656420736f2063616e2760408201526b3a103ab73932b3b4b9ba32b960a11b606082015260800190565b6020808252818101527f4f776e61626c653a2063616c6c6572206973206e6f7420746865206f776e6572604082015260600190565b6020808252603a908201527f5f446174614261746368496420686173206e6f7420656e6465642c206f72206e60408201527f6f7420657665727920766f74657273206861766520766f746564000000000000606082015260800190565b60208082526036908201527f43616e277420616c6c6f6361746520776f726b2c207468652063757272656e74604082015275206261746368206973206e6f7420636f6d706c65746560501b606082015260800190565b60208082526026908201527f52657665616c20706572696f64206e6f74206f70656e20666f7220746869732060408201526511185d18525160d21b606082015260800190565b60208082526027908201527f617661696c61626c65546f6b656e732073686f756c64206265203e3d205f6e756040820152666d546f6b656e7360c81b606082015260800190565b60208082526017908201527f5f4461746142617463684964206d757374206578697374000000000000000000604082015260600190565b6020808252601390820152720c081059191c995cdcc8139bdd0815985b1a59606a1b604082015260600190565b6020808252602f908201527f636f756c64206e6f742072657761726420746f6b656e20696e2054726967676560408201526e3921b432b1b5a9b837ba161019173160891b606082015260800190565b60208082526021908201527f5f446174614261746368496420697320616c72656164792076616c69646174656040820152601960fa1b606082015260800190565b60208082526029908201527f557365722068617320616c726561647920636f6d6d6974656420746f207468696040820152681cc818985d18da125960ba1b606082015260800190565b60208082526022908201527f4d6178696d756d207265676973746572656420776f726b65727320616c726561604082015261647960f01b606082015260800190565b6020808252602d908201527f636f756c64206e6f74207265776172642052455020696e20547269676765724360408201526c6865636b53706f742c20322e6160981b606082015260800190565b6020808252606c908201527f5573657220686173206e6f7420766f746564206d616e792074696d657320696e60408201527f206120726f7720616e64206e6565647320746f2077616974204e4f564f54455f60608201527f524547495354524154494f4e5f574149545f4455524154494f4e20746f20726560808201526b33b4b9ba32b91030b3b0b4b760a11b60a082015260c00190565b6020808252603b908201527f436f756c64206e6f74207769746864726177566f74696e67526967687473207460408201527f68726f7567682050726f78795374616b654465616c6c6f636174650000000000606082015260800190565b60208082526034908201527f55736572206c696d69743a206578636565646564206d6178206461746120706560408201527339103437bab916103932ba393c903630ba32b91760611b606082015260800190565b6020808252600f908201526e11185d18481b5d5cdd08195e1a5cdd608a1b604082015260600190565b6020808252602c908201527f557365722068617320616c72656164792072657665616c65642c20746875732060408201526b18d85b89dd081c995d99585b60a21b606082015260800190565b600060208252825160208301526020830151604083015260408301516060830152606083015160808301526080830151617c5e60a0840182616cc2565b5060a0830151617c7160c0840182616cc2565b5060c0830151617c8460e0840182616cc2565b5060e0830151610100838101919091528301516101208084019190915283015161014080840191909152830151610160808401919091528301516101c0610180808501829052617cd86101e0860184616cc8565b908601516101a08681019190915286015190925061406a82860182616cf4565b60008382528260208301526060604083015261431e60608301616d16565b600084825283602083015260806040830152617d3460808301616d16565b9050826060830152949350505050565b60008382528260208301526060604083015261431e60608301616d33565b600084825283602083015260806040830152617d3460808301616d33565b93845260208401929092526040830152606082015260800190565b600060208252825160e06020840152617db8610100840182616cc8565b905060018060a01b03602085015116604084015260408401516060840152606084015160808401526080840151601f19808584030160a0860152617dfc8383616cc8565b925060a08601519150808584030160c086015250617e1a8282616cc8565b91505060c0840151612ca960e0850182616cf4565b9182526001600160a01b0316602082015260400190565b9182526001600160a01b031660208201526000604082015260600190565b9283526020830191909152604082015260600190565b60008f82528e60208301528d60408301528c60608301528b151560808301528a151560a0830152617eae60c083018b616cc2565b8860e08301528761010083015286610120830152856101408301526101c0610160830152617ee06101c0830186616cc8565b905083610180830152617ef76101a0830184616cf4565b9f9e505050505050505050505050505050565b6000808335601e19843603018112617f20578283fd5b8301803591506001600160401b03821115617f39578283fd5b6020019150368190038213156168c457600080fd5b6040518181016001600160401b0381118282101715617f6f57617f6f6180a7565b604052919050565b60009081526020902090565b60008219821115617f9657617f9661807b565b500190565b600082617faa57617faa618091565b500490565b6000816000190483118215151615617fc957617fc961807b565b500290565b600082821015617fe057617fe061807b565b500390565b60005b83811015618000578181015183820152602001617fe8565b838111156165905750506000910152565b60028104600182168061802557607f821691505b6020821081141561804657634e487b7160e01b600052602260045260246000fd5b50919050565b60006000198214156180605761806061807b565b5060010190565b60008261807657618076618091565b500690565b634e487b7160e01b600052601160045260246000fd5b634e487b7160e01b600052601260045260246000fd5b634e487b7160e01b600052604160045260246000fd5b6001600160a01b03811681146148d757600080fdfea2646970667358221220a3e90ac2552646e1ffedfabd28d4a7a64d68e5cc4de8be20daef3611010ee79964736f6c63430008000033",
  "linkReferences": {
    "contracts/worksystems/DataSpotting.sol": {
      "AttributeStore": [
        {
          "length": 20,
          "start": 16136
        },
        {
          "length": 20,
          "start": 16242
        },
        {
          "length": 20,
          "start": 16661
        },
        {
          "length": 20,
          "start": 17137
        }
      ],
      "DLL": [
        {
          "length": 20,
          "start": 4389
        },
        {
          "length": 20,
          "start": 7521
        },
        {
          "length": 20,
          "start": 11467
        },
        {
          "length": 20,
          "start": 11647
        },
        {
          "length": 20,
          "start": 15656
        },
        {
          "length": 20,
          "start": 15818
        },
        {
          "length": 20,
          "start": 16013
        }
      ]
    }
  },
  "deployedLinkReferences": {
    "contracts/worksystems/DataSpotting.sol": {
      "AttributeStore": [
        {
          "length": 20,
          "start": 15604
        },
        {
          "length": 20,
          "start": 15710
        },
        {
          "length": 20,
          "start": 16129
        },
        {
          "length": 20,
          "start": 16605
        }
      ],
      "DLL": [
        {
          "length": 20,
          "start": 3857
        },
        {
          "length": 20,
          "start": 6989
        },
        {
          "length": 20,
          "start": 10935
        },
        {
          "length": 20,
          "start": 11115
        },
        {
          "length": 20,
          "start": 15124
        },
        {
          "length": 20,
          "start": 15286
        },
        {
          "length": 20,
          "start": 15481
        }
      ]
    }
  }
}