{
  "_format": "hh-sol-artifact-1",
  "contractName": "DataSpotting",
  "sourceName": "contracts/worksystems/DataSpotting.sol",
  "abi": [
    {
      "inputs": [
        {
          "internalType": "address",
          "name": "EXDT_token_",
          "type": "address"
        }
      ],
      "stateMutability": "nonpayable",
      "type": "constructor"
    },
    {
      "anonymous": false,
      "inputs": [
        {
          "indexed": false,
          "internalType": "bytes",
          "name": "bytesFailure",
          "type": "bytes"
        }
      ],
      "name": "BytesFailure",
      "type": "event"
    },
    {
      "anonymous": false,
      "inputs": [
        {
          "indexed": true,
          "internalType": "address",
          "name": "previousOwner",
          "type": "address"
        },
        {
          "indexed": true,
          "internalType": "address",
          "name": "newOwner",
          "type": "address"
        }
      ],
      "name": "OwnershipTransferred",
      "type": "event"
    },
    {
      "anonymous": false,
      "inputs": [
        {
          "indexed": true,
          "internalType": "uint256",
          "name": "batchID",
          "type": "uint256"
        }
      ],
      "name": "_DataBatchDeleted",
      "type": "event"
    },
    {
      "anonymous": false,
      "inputs": [
        {
          "indexed": false,
          "internalType": "string",
          "name": "hash",
          "type": "string"
        },
        {
          "indexed": true,
          "internalType": "address",
          "name": "creator",
          "type": "address"
        }
      ],
      "name": "_SpotAccepted",
      "type": "event"
    },
    {
      "anonymous": false,
      "inputs": [
        {
          "indexed": true,
          "internalType": "uint256",
          "name": "DataID",
          "type": "uint256"
        },
        {
          "indexed": false,
          "internalType": "uint256",
          "name": "numTokens",
          "type": "uint256"
        },
        {
          "indexed": true,
          "internalType": "address",
          "name": "voter",
          "type": "address"
        }
      ],
      "name": "_SpotCheckCommitted",
      "type": "event"
    },
    {
      "anonymous": false,
      "inputs": [
        {
          "indexed": true,
          "internalType": "uint256",
          "name": "DataID",
          "type": "uint256"
        },
        {
          "indexed": false,
          "internalType": "uint256",
          "name": "numTokens",
          "type": "uint256"
        },
        {
          "indexed": false,
          "internalType": "uint256",
          "name": "votesFor",
          "type": "uint256"
        },
        {
          "indexed": false,
          "internalType": "uint256",
          "name": "votesAgainst",
          "type": "uint256"
        },
        {
          "indexed": true,
          "internalType": "uint256",
          "name": "choice",
          "type": "uint256"
        },
        {
          "indexed": true,
          "internalType": "address",
          "name": "voter",
          "type": "address"
        }
      ],
      "name": "_SpotCheckRevealed",
      "type": "event"
    },
    {
      "anonymous": false,
      "inputs": [
        {
          "indexed": true,
          "internalType": "uint256",
          "name": "DataID",
          "type": "uint256"
        },
        {
          "indexed": false,
          "internalType": "string",
          "name": "file_hash",
          "type": "string"
        },
        {
          "indexed": false,
          "internalType": "string",
          "name": "URL_domain",
          "type": "string"
        },
        {
          "indexed": true,
          "internalType": "address",
          "name": "sender",
          "type": "address"
        }
      ],
      "name": "_SpotSubmitted",
      "type": "event"
    },
    {
      "anonymous": false,
      "inputs": [
        {
          "indexed": false,
          "internalType": "uint256",
          "name": "numTokens",
          "type": "uint256"
        },
        {
          "indexed": true,
          "internalType": "address",
          "name": "voter",
          "type": "address"
        }
      ],
      "name": "_StakeAllocated",
      "type": "event"
    },
    {
      "anonymous": false,
      "inputs": [
        {
          "indexed": true,
          "internalType": "uint256",
          "name": "DataID",
          "type": "uint256"
        },
        {
          "indexed": true,
          "internalType": "address",
          "name": "voter",
          "type": "address"
        }
      ],
      "name": "_TokensRescued",
      "type": "event"
    },
    {
      "anonymous": false,
      "inputs": [
        {
          "indexed": false,
          "internalType": "uint256",
          "name": "numTokens",
          "type": "uint256"
        },
        {
          "indexed": true,
          "internalType": "address",
          "name": "voter",
          "type": "address"
        }
      ],
      "name": "_VotingRightsWithdrawn",
      "type": "event"
    },
    {
      "anonymous": false,
      "inputs": [
        {
          "indexed": true,
          "internalType": "uint256",
          "name": "batchID",
          "type": "uint256"
        },
        {
          "indexed": false,
          "internalType": "address",
          "name": "worker",
          "type": "address"
        }
      ],
      "name": "_WorkAllocated",
      "type": "event"
    },
    {
      "anonymous": false,
      "inputs": [
        {
          "indexed": true,
          "internalType": "address",
          "name": "worker",
          "type": "address"
        },
        {
          "indexed": false,
          "internalType": "uint256",
          "name": "timestamp",
          "type": "uint256"
        }
      ],
      "name": "_WorkerRegistered",
      "type": "event"
    },
    {
      "anonymous": false,
      "inputs": [
        {
          "indexed": true,
          "internalType": "address",
          "name": "worker",
          "type": "address"
        },
        {
          "indexed": false,
          "internalType": "uint256",
          "name": "timestamp",
          "type": "uint256"
        }
      ],
      "name": "_WorkerUnregistered",
      "type": "event"
    },
    {
      "inputs": [],
      "name": "AcceptedBatchsCounter",
      "outputs": [
        {
          "internalType": "uint256",
          "name": "",
          "type": "uint256"
        }
      ],
      "stateMutability": "view",
      "type": "function"
    },
    {
      "inputs": [],
      "name": "AllTxsCounter",
      "outputs": [
        {
          "internalType": "uint256",
          "name": "",
          "type": "uint256"
        }
      ],
      "stateMutability": "view",
      "type": "function"
    },
    {
      "inputs": [],
      "name": "AllocateWork",
      "outputs": [],
      "stateMutability": "nonpayable",
      "type": "function"
    },
    {
      "inputs": [],
      "name": "AllocatedBatchCursor",
      "outputs": [
        {
          "internalType": "uint256",
          "name": "",
          "type": "uint256"
        }
      ],
      "stateMutability": "view",
      "type": "function"
    },
    {
      "inputs": [],
      "name": "AmIRegistered",
      "outputs": [
        {
          "internalType": "bool",
          "name": "passed",
          "type": "bool"
        }
      ],
      "stateMutability": "view",
      "type": "function"
    },
    {
      "inputs": [
        {
          "internalType": "string",
          "name": "_a",
          "type": "string"
        },
        {
          "internalType": "string",
          "name": "_b",
          "type": "string"
        }
      ],
      "name": "AreStringsEqual",
      "outputs": [
        {
          "internalType": "bool",
          "name": "",
          "type": "bool"
        }
      ],
      "stateMutability": "pure",
      "type": "function"
    },
    {
      "inputs": [],
      "name": "BatchCheckingCursor",
      "outputs": [
        {
          "internalType": "uint256",
          "name": "",
          "type": "uint256"
        }
      ],
      "stateMutability": "view",
      "type": "function"
    },
    {
      "inputs": [],
      "name": "BatchDeletionCursor",
      "outputs": [
        {
          "internalType": "uint256",
          "name": "",
          "type": "uint256"
        }
      ],
      "stateMutability": "view",
      "type": "function"
    },
    {
      "inputs": [
        {
          "internalType": "uint256",
          "name": "",
          "type": "uint256"
        }
      ],
      "name": "DataBatch",
      "outputs": [
        {
          "internalType": "uint256",
          "name": "start_idx",
          "type": "uint256"
        },
        {
          "internalType": "uint256",
          "name": "counter",
          "type": "uint256"
        },
        {
          "internalType": "uint256",
          "name": "uncommited_workers",
          "type": "uint256"
        },
        {
          "internalType": "uint256",
          "name": "unrevealed_workers",
          "type": "uint256"
        },
        {
          "internalType": "bool",
          "name": "complete",
          "type": "bool"
        },
        {
          "internalType": "bool",
          "name": "checked",
          "type": "bool"
        },
        {
          "internalType": "bool",
          "name": "allocated_to_work",
          "type": "bool"
        },
        {
          "internalType": "uint256",
          "name": "commitEndDate",
          "type": "uint256"
        },
        {
          "internalType": "uint256",
          "name": "revealEndDate",
          "type": "uint256"
        },
        {
          "internalType": "uint256",
          "name": "votesFor",
          "type": "uint256"
        },
        {
          "internalType": "uint256",
          "name": "votesAgainst",
          "type": "uint256"
        },
        {
          "internalType": "string",
          "name": "batchIPFSfile",
          "type": "string"
        },
        {
          "internalType": "uint256",
          "name": "item_count",
          "type": "uint256"
        },
        {
          "internalType": "enum DataSpotting.DataStatus",
          "name": "status",
          "type": "uint8"
        }
      ],
      "stateMutability": "view",
      "type": "function"
    },
    {
      "inputs": [
        {
          "internalType": "uint256",
          "name": "_DataBatchId",
          "type": "uint256"
        }
      ],
      "name": "DataCommitEndDate",
      "outputs": [
        {
          "internalType": "uint256",
          "name": "commitEndDate",
          "type": "uint256"
        }
      ],
      "stateMutability": "view",
      "type": "function"
    },
    {
      "inputs": [
        {
          "internalType": "uint256",
          "name": "_DataBatchId",
          "type": "uint256"
        }
      ],
      "name": "DataEnded",
      "outputs": [
        {
          "internalType": "bool",
          "name": "ended",
          "type": "bool"
        }
      ],
      "stateMutability": "view",
      "type": "function"
    },
    {
      "inputs": [
        {
          "internalType": "uint256",
          "name": "_DataBatchId",
          "type": "uint256"
        }
      ],
      "name": "DataExists",
      "outputs": [
        {
          "internalType": "bool",
          "name": "exists",
          "type": "bool"
        }
      ],
      "stateMutability": "view",
      "type": "function"
    },
    {
      "inputs": [],
      "name": "DataNonce",
      "outputs": [
        {
          "internalType": "uint256",
          "name": "",
          "type": "uint256"
        }
      ],
      "stateMutability": "view",
      "type": "function"
    },
    {
      "inputs": [
        {
          "internalType": "uint256",
          "name": "_DataBatchId",
          "type": "uint256"
        }
      ],
      "name": "DataRevealEndDate",
      "outputs": [
        {
          "internalType": "uint256",
          "name": "revealEndDate",
          "type": "uint256"
        }
      ],
      "stateMutability": "view",
      "type": "function"
    },
    {
      "inputs": [
        {
          "internalType": "address",
          "name": "user_",
          "type": "address"
        }
      ],
      "name": "GetCurrentWork",
      "outputs": [
        {
          "internalType": "uint256",
          "name": "",
          "type": "uint256"
        }
      ],
      "stateMutability": "view",
      "type": "function"
    },
    {
      "inputs": [
        {
          "internalType": "uint256",
          "name": "",
          "type": "uint256"
        }
      ],
      "name": "GlobalSpotFlowManager",
      "outputs": [
        {
          "internalType": "uint256",
          "name": "timestamp",
          "type": "uint256"
        },
        {
          "internalType": "uint256",
          "name": "counter",
          "type": "uint256"
        }
      ],
      "stateMutability": "view",
      "type": "function"
    },
    {
      "inputs": [
        {
          "internalType": "address",
          "name": "user_",
          "type": "address"
        }
      ],
      "name": "IsNewWorkAvailable",
      "outputs": [
        {
          "internalType": "bool",
          "name": "",
          "type": "bool"
        }
      ],
      "stateMutability": "view",
      "type": "function"
    },
    {
      "inputs": [],
      "name": "LastAllocationTime",
      "outputs": [
        {
          "internalType": "uint256",
          "name": "",
          "type": "uint256"
        }
      ],
      "stateMutability": "view",
      "type": "function"
    },
    {
      "inputs": [],
      "name": "LastBatchCounter",
      "outputs": [
        {
          "internalType": "uint256",
          "name": "",
          "type": "uint256"
        }
      ],
      "stateMutability": "view",
      "type": "function"
    },
    {
      "inputs": [
        {
          "internalType": "address",
          "name": "",
          "type": "address"
        },
        {
          "internalType": "uint256",
          "name": "",
          "type": "uint256"
        }
      ],
      "name": "MasterWorkers",
      "outputs": [
        {
          "internalType": "address",
          "name": "",
          "type": "address"
        }
      ],
      "stateMutability": "view",
      "type": "function"
    },
    {
      "inputs": [],
      "name": "NotCommitedCounter",
      "outputs": [
        {
          "internalType": "uint256",
          "name": "",
          "type": "uint256"
        }
      ],
      "stateMutability": "view",
      "type": "function"
    },
    {
      "inputs": [],
      "name": "NotRevealedCounter",
      "outputs": [
        {
          "internalType": "uint256",
          "name": "",
          "type": "uint256"
        }
      ],
      "stateMutability": "view",
      "type": "function"
    },
    {
      "inputs": [],
      "name": "Parameters",
      "outputs": [
        {
          "internalType": "contract IParametersManager",
          "name": "",
          "type": "address"
        }
      ],
      "stateMutability": "view",
      "type": "function"
    },
    {
      "inputs": [],
      "name": "RegisterWorker",
      "outputs": [],
      "stateMutability": "nonpayable",
      "type": "function"
    },
    {
      "inputs": [],
      "name": "RejectedBatchsCounter",
      "outputs": [
        {
          "internalType": "uint256",
          "name": "",
          "type": "uint256"
        }
      ],
      "stateMutability": "view",
      "type": "function"
    },
    {
      "inputs": [],
      "name": "SPOT_TOGGLE_ENABLED",
      "outputs": [
        {
          "internalType": "bool",
          "name": "",
          "type": "bool"
        }
      ],
      "stateMutability": "view",
      "type": "function"
    },
    {
      "inputs": [
        {
          "internalType": "address",
          "name": "_worker",
          "type": "address"
        },
        {
          "internalType": "uint256",
          "name": "_TokensAmountToAllocate",
          "type": "uint256"
        }
      ],
      "name": "SelectAddressForUser",
      "outputs": [
        {
          "internalType": "address",
          "name": "",
          "type": "address"
        }
      ],
      "stateMutability": "view",
      "type": "function"
    },
    {
      "inputs": [
        {
          "internalType": "string[]",
          "name": "file_hashs",
          "type": "string[]"
        },
        {
          "internalType": "string[]",
          "name": "URL_domains",
          "type": "string[]"
        },
        {
          "internalType": "uint256",
          "name": "item_count_",
          "type": "uint256"
        },
        {
          "internalType": "string",
          "name": "extra_",
          "type": "string"
        }
      ],
      "name": "SpotData",
      "outputs": [
        {
          "internalType": "uint256",
          "name": "Dataid_",
          "type": "uint256"
        }
      ],
      "stateMutability": "nonpayable",
      "type": "function"
    },
    {
      "inputs": [
        {
          "internalType": "uint256",
          "name": "",
          "type": "uint256"
        }
      ],
      "name": "SpotsMapping",
      "outputs": [
        {
          "internalType": "string",
          "name": "ipfs_hash",
          "type": "string"
        },
        {
          "internalType": "address",
          "name": "author",
          "type": "address"
        },
        {
          "internalType": "uint256",
          "name": "timestamp",
          "type": "uint256"
        },
        {
          "internalType": "uint256",
          "name": "item_count",
          "type": "uint256"
        },
        {
          "internalType": "string",
          "name": "URL_domain",
          "type": "string"
        },
        {
          "internalType": "string",
          "name": "extra",
          "type": "string"
        },
        {
          "internalType": "enum DataSpotting.DataStatus",
          "name": "status",
          "type": "uint8"
        }
      ],
      "stateMutability": "view",
      "type": "function"
    },
    {
      "inputs": [
        {
          "internalType": "address",
          "name": "",
          "type": "address"
        }
      ],
      "name": "SystemStakedTokenBalance",
      "outputs": [
        {
          "internalType": "uint256",
          "name": "",
          "type": "uint256"
        }
      ],
      "stateMutability": "view",
      "type": "function"
    },
    {
      "inputs": [],
      "name": "TriggerUpdate",
      "outputs": [],
      "stateMutability": "nonpayable",
      "type": "function"
    },
    {
      "inputs": [],
      "name": "UnregisterWorker",
      "outputs": [],
      "stateMutability": "nonpayable",
      "type": "function"
    },
    {
      "inputs": [
        {
          "internalType": "uint256",
          "name": "",
          "type": "uint256"
        },
        {
          "internalType": "address",
          "name": "",
          "type": "address"
        }
      ],
      "name": "UserBatchCounts",
      "outputs": [
        {
          "internalType": "uint256",
          "name": "",
          "type": "uint256"
        }
      ],
      "stateMutability": "view",
      "type": "function"
    },
    {
      "inputs": [
        {
          "internalType": "uint256",
          "name": "",
          "type": "uint256"
        },
        {
          "internalType": "address",
          "name": "",
          "type": "address"
        }
      ],
      "name": "UserBatchFrom",
      "outputs": [
        {
          "internalType": "string",
          "name": "",
          "type": "string"
        }
      ],
      "stateMutability": "view",
      "type": "function"
    },
    {
      "inputs": [
        {
          "internalType": "address",
          "name": "",
          "type": "address"
        },
        {
          "internalType": "uint256",
          "name": "",
          "type": "uint256"
        }
      ],
      "name": "UserChecksCommits",
      "outputs": [
        {
          "internalType": "bool",
          "name": "",
          "type": "bool"
        }
      ],
      "stateMutability": "view",
      "type": "function"
    },
    {
      "inputs": [
        {
          "internalType": "address",
          "name": "",
          "type": "address"
        },
        {
          "internalType": "uint256",
          "name": "",
          "type": "uint256"
        }
      ],
      "name": "UserChecksReveals",
      "outputs": [
        {
          "internalType": "bool",
          "name": "",
          "type": "bool"
        }
      ],
      "stateMutability": "view",
      "type": "function"
    },
    {
      "inputs": [
        {
          "internalType": "uint256",
          "name": "",
          "type": "uint256"
        },
        {
          "internalType": "address",
          "name": "",
          "type": "address"
        }
      ],
      "name": "UserNewFiles",
      "outputs": [
        {
          "internalType": "string",
          "name": "",
          "type": "string"
        }
      ],
      "stateMutability": "view",
      "type": "function"
    },
    {
      "inputs": [
        {
          "internalType": "address",
          "name": "",
          "type": "address"
        },
        {
          "internalType": "uint256",
          "name": "",
          "type": "uint256"
        }
      ],
      "name": "UserSubmissions",
      "outputs": [
        {
          "internalType": "uint256",
          "name": "",
          "type": "uint256"
        }
      ],
      "stateMutability": "view",
      "type": "function"
    },
    {
      "inputs": [
        {
          "internalType": "uint256",
          "name": "",
          "type": "uint256"
        },
        {
          "internalType": "address",
          "name": "",
          "type": "address"
        }
      ],
      "name": "UserVotes",
      "outputs": [
        {
          "internalType": "uint256",
          "name": "",
          "type": "uint256"
        }
      ],
      "stateMutability": "view",
      "type": "function"
    },
    {
      "inputs": [
        {
          "internalType": "uint256",
          "name": "_DataBatchId",
          "type": "uint256"
        }
      ],
      "name": "ValidateDataBatch",
      "outputs": [],
      "stateMutability": "nonpayable",
      "type": "function"
    },
    {
      "inputs": [
        {
          "internalType": "uint256",
          "name": "",
          "type": "uint256"
        },
        {
          "internalType": "uint256",
          "name": "",
          "type": "uint256"
        }
      ],
      "name": "WorkersPerBatch",
      "outputs": [
        {
          "internalType": "address",
          "name": "",
          "type": "address"
        }
      ],
      "stateMutability": "view",
      "type": "function"
    },
    {
      "inputs": [
        {
          "internalType": "address",
          "name": "",
          "type": "address"
        },
        {
          "internalType": "uint256",
          "name": "",
          "type": "uint256"
        }
      ],
      "name": "WorkersSpotFlowManager",
      "outputs": [
        {
          "internalType": "uint256",
          "name": "timestamp",
          "type": "uint256"
        },
        {
          "internalType": "uint256",
          "name": "counter",
          "type": "uint256"
        }
      ],
      "stateMutability": "view",
      "type": "function"
    },
    {
      "inputs": [
        {
          "internalType": "address",
          "name": "",
          "type": "address"
        }
      ],
      "name": "WorkersState",
      "outputs": [
        {
          "internalType": "address",
          "name": "worker_address",
          "type": "address"
        },
        {
          "internalType": "uint256",
          "name": "allocated_work_batch",
          "type": "uint256"
        },
        {
          "internalType": "bool",
          "name": "has_completed_work",
          "type": "bool"
        },
        {
          "internalType": "uint256",
          "name": "succeeding_novote_count",
          "type": "uint256"
        },
        {
          "internalType": "uint256",
          "name": "last_interaction_date",
          "type": "uint256"
        },
        {
          "internalType": "bool",
          "name": "registered",
          "type": "bool"
        },
        {
          "internalType": "bool",
          "name": "unregistration_request",
          "type": "bool"
        },
        {
          "internalType": "uint256",
          "name": "registration_date",
          "type": "uint256"
        },
        {
          "internalType": "uint256",
          "name": "majority_counter",
          "type": "uint256"
        },
        {
          "internalType": "uint256",
          "name": "minority_counter",
          "type": "uint256"
        }
      ],
      "stateMutability": "view",
      "type": "function"
    },
    {
      "inputs": [
        {
          "internalType": "address",
          "name": "_user",
          "type": "address"
        },
        {
          "internalType": "uint256",
          "name": "_DataBatchId",
          "type": "uint256"
        }
      ],
      "name": "attrUUID",
      "outputs": [
        {
          "internalType": "bytes32",
          "name": "UUID",
          "type": "bytes32"
        }
      ],
      "stateMutability": "pure",
      "type": "function"
    },
    {
      "inputs": [
        {
          "internalType": "uint256",
          "name": "",
          "type": "uint256"
        }
      ],
      "name": "availableWorkers",
      "outputs": [
        {
          "internalType": "address",
          "name": "",
          "type": "address"
        }
      ],
      "stateMutability": "view",
      "type": "function"
    },
    {
      "inputs": [
        {
          "internalType": "uint256",
          "name": "",
          "type": "uint256"
        }
      ],
      "name": "busyWorkers",
      "outputs": [
        {
          "internalType": "address",
          "name": "",
          "type": "address"
        }
      ],
      "stateMutability": "view",
      "type": "function"
    },
    {
      "inputs": [
        {
          "internalType": "uint256",
          "name": "_DataBatchId",
          "type": "uint256"
        }
      ],
      "name": "commitPeriodActive",
      "outputs": [
        {
          "internalType": "bool",
          "name": "active",
          "type": "bool"
        }
      ],
      "stateMutability": "view",
      "type": "function"
    },
    {
      "inputs": [
        {
          "internalType": "uint256",
          "name": "_DataBatchId",
          "type": "uint256"
        },
        {
          "internalType": "bytes32",
          "name": "_encryptedHash",
          "type": "bytes32"
        },
        {
          "internalType": "bytes32",
          "name": "_encryptedVote",
          "type": "bytes32"
        },
        {
          "internalType": "uint256",
          "name": "_BatchCount",
          "type": "uint256"
        },
        {
          "internalType": "string",
          "name": "_From",
          "type": "string"
        }
      ],
      "name": "commitSpotCheck",
      "outputs": [],
      "stateMutability": "nonpayable",
      "type": "function"
    },
    {
      "inputs": [
        {
          "internalType": "uint256",
          "name": "_DataId",
          "type": "uint256"
        }
      ],
      "name": "deleteData",
      "outputs": [],
      "stateMutability": "nonpayable",
      "type": "function"
    },
    {
      "inputs": [
        {
          "internalType": "uint256",
          "name": "_BatchId",
          "type": "uint256"
        }
      ],
      "name": "deleteDataBatch",
      "outputs": [],
      "stateMutability": "nonpayable",
      "type": "function"
    },
    {
      "inputs": [],
      "name": "destroyContract",
      "outputs": [],
      "stateMutability": "nonpayable",
      "type": "function"
    },
    {
      "inputs": [
        {
          "internalType": "address",
          "name": "_voter",
          "type": "address"
        },
        {
          "internalType": "uint256",
          "name": "_DataBatchId",
          "type": "uint256"
        }
      ],
      "name": "didCommit",
      "outputs": [
        {
          "internalType": "bool",
          "name": "committed",
          "type": "bool"
        }
      ],
      "stateMutability": "view",
      "type": "function"
    },
    {
      "inputs": [
        {
          "internalType": "address",
          "name": "_voter",
          "type": "address"
        },
        {
          "internalType": "uint256",
          "name": "_DataBatchId",
          "type": "uint256"
        }
      ],
      "name": "didReveal",
      "outputs": [
        {
          "internalType": "bool",
          "name": "revealed",
          "type": "bool"
        }
      ],
      "stateMutability": "view",
      "type": "function"
    },
    {
      "inputs": [
        {
          "internalType": "uint256",
          "name": "_k",
          "type": "uint256"
        },
        {
          "internalType": "uint256",
          "name": "N_range",
          "type": "uint256"
        }
      ],
      "name": "generateIntegers",
      "outputs": [
        {
          "internalType": "uint256[]",
          "name": "",
          "type": "uint256[]"
        }
      ],
      "stateMutability": "view",
      "type": "function"
    },
    {
      "inputs": [],
      "name": "getAcceptedBatchesCount",
      "outputs": [
        {
          "internalType": "uint256",
          "name": "count",
          "type": "uint256"
        }
      ],
      "stateMutability": "view",
      "type": "function"
    },
    {
      "inputs": [],
      "name": "getActiveWorkersCount",
      "outputs": [
        {
          "internalType": "uint256",
          "name": "numWorkers",
          "type": "uint256"
        }
      ],
      "stateMutability": "view",
      "type": "function"
    },
    {
      "inputs": [],
      "name": "getAvailableWorkersCount",
      "outputs": [
        {
          "internalType": "uint256",
          "name": "numWorkers",
          "type": "uint256"
        }
      ],
      "stateMutability": "view",
      "type": "function"
    },
    {
      "inputs": [
        {
          "internalType": "uint256",
          "name": "_DataBatchId",
          "type": "uint256"
        }
      ],
      "name": "getBatchByID",
      "outputs": [
        {
          "components": [
            {
              "internalType": "uint256",
              "name": "start_idx",
              "type": "uint256"
            },
            {
              "internalType": "uint256",
              "name": "counter",
              "type": "uint256"
            },
            {
              "internalType": "uint256",
              "name": "uncommited_workers",
              "type": "uint256"
            },
            {
              "internalType": "uint256",
              "name": "unrevealed_workers",
              "type": "uint256"
            },
            {
              "internalType": "bool",
              "name": "complete",
              "type": "bool"
            },
            {
              "internalType": "bool",
              "name": "checked",
              "type": "bool"
            },
            {
              "internalType": "bool",
              "name": "allocated_to_work",
              "type": "bool"
            },
            {
              "internalType": "uint256",
              "name": "commitEndDate",
              "type": "uint256"
            },
            {
              "internalType": "uint256",
              "name": "revealEndDate",
              "type": "uint256"
            },
            {
              "internalType": "uint256",
              "name": "votesFor",
              "type": "uint256"
            },
            {
              "internalType": "uint256",
              "name": "votesAgainst",
              "type": "uint256"
            },
            {
              "internalType": "string",
              "name": "batchIPFSfile",
              "type": "string"
            },
            {
              "internalType": "uint256",
              "name": "item_count",
              "type": "uint256"
            },
            {
              "internalType": "enum DataSpotting.DataStatus",
              "name": "status",
              "type": "uint8"
            }
          ],
          "internalType": "struct DataSpotting.BatchMetadata",
          "name": "batch",
          "type": "tuple"
        }
      ],
      "stateMutability": "view",
      "type": "function"
    },
    {
      "inputs": [
        {
          "internalType": "uint256",
          "name": "_DataBatchId",
          "type": "uint256"
        }
      ],
      "name": "getBatchIPFSFileByID",
      "outputs": [
        {
          "internalType": "string",
          "name": "batch",
          "type": "string"
        }
      ],
      "stateMutability": "view",
      "type": "function"
    },
    {
      "inputs": [],
      "name": "getBusyWorkersCount",
      "outputs": [
        {
          "internalType": "uint256",
          "name": "numWorkers",
          "type": "uint256"
        }
      ],
      "stateMutability": "view",
      "type": "function"
    },
    {
      "inputs": [
        {
          "internalType": "address",
          "name": "_voter",
          "type": "address"
        },
        {
          "internalType": "uint256",
          "name": "_DataBatchId",
          "type": "uint256"
        }
      ],
      "name": "getCommitIPFSHash",
      "outputs": [
        {
          "internalType": "bytes32",
          "name": "commitHash",
          "type": "bytes32"
        }
      ],
      "stateMutability": "view",
      "type": "function"
    },
    {
      "inputs": [
        {
          "internalType": "address",
          "name": "_voter",
          "type": "address"
        },
        {
          "internalType": "uint256",
          "name": "_DataBatchId",
          "type": "uint256"
        }
      ],
      "name": "getCommitVoteHash",
      "outputs": [
        {
          "internalType": "bytes32",
          "name": "commitHash",
          "type": "bytes32"
        }
      ],
      "stateMutability": "view",
      "type": "function"
    },
    {
      "inputs": [
        {
          "internalType": "uint256",
          "name": "_DataId",
          "type": "uint256"
        }
      ],
      "name": "getDataByID",
      "outputs": [
        {
          "components": [
            {
              "internalType": "string",
              "name": "ipfs_hash",
              "type": "string"
            },
            {
              "internalType": "address",
              "name": "author",
              "type": "address"
            },
            {
              "internalType": "uint256",
              "name": "timestamp",
              "type": "uint256"
            },
            {
              "internalType": "uint256",
              "name": "item_count",
              "type": "uint256"
            },
            {
              "internalType": "string",
              "name": "URL_domain",
              "type": "string"
            },
            {
              "internalType": "string",
              "name": "extra",
              "type": "string"
            },
            {
              "internalType": "enum DataSpotting.DataStatus",
              "name": "status",
              "type": "uint8"
            }
          ],
          "internalType": "struct DataSpotting.SpottedData",
          "name": "data",
          "type": "tuple"
        }
      ],
      "stateMutability": "view",
      "type": "function"
    },
    {
      "inputs": [
        {
          "internalType": "uint256",
          "name": "_DataBatchId",
          "type": "uint256"
        }
      ],
      "name": "getDomainsForBatch",
      "outputs": [
        {
          "internalType": "string[]",
          "name": "",
          "type": "string[]"
        }
      ],
      "stateMutability": "view",
      "type": "function"
    },
    {
      "inputs": [
        {
          "internalType": "uint256",
          "name": "_clearVote",
          "type": "uint256"
        },
        {
          "internalType": "uint256",
          "name": "_salt",
          "type": "uint256"
        }
      ],
      "name": "getEncryptedHash",
      "outputs": [
        {
          "internalType": "bytes32",
          "name": "keccak256hash",
          "type": "bytes32"
        }
      ],
      "stateMutability": "pure",
      "type": "function"
    },
    {
      "inputs": [
        {
          "internalType": "string",
          "name": "_hash",
          "type": "string"
        },
        {
          "internalType": "uint256",
          "name": "_salt",
          "type": "uint256"
        }
      ],
      "name": "getEncryptedStringHash",
      "outputs": [
        {
          "internalType": "bytes32",
          "name": "keccak256hash",
          "type": "bytes32"
        }
      ],
      "stateMutability": "pure",
      "type": "function"
    },
    {
      "inputs": [
        {
          "internalType": "uint256",
          "name": "_DataBatchId",
          "type": "uint256"
        }
      ],
      "name": "getFromsForBatch",
      "outputs": [
        {
          "internalType": "string[]",
          "name": "",
          "type": "string[]"
        }
      ],
      "stateMutability": "view",
      "type": "function"
    },
    {
      "inputs": [],
      "name": "getGlobalPeriodSpotCount",
      "outputs": [
        {
          "internalType": "uint256",
          "name": "",
          "type": "uint256"
        }
      ],
      "stateMutability": "view",
      "type": "function"
    },
    {
      "inputs": [
        {
          "internalType": "uint256",
          "name": "_DataBatchId",
          "type": "uint256"
        }
      ],
      "name": "getIPFShashesForBatch",
      "outputs": [
        {
          "internalType": "string[]",
          "name": "",
          "type": "string[]"
        }
      ],
      "stateMutability": "view",
      "type": "function"
    },
    {
      "inputs": [
        {
          "internalType": "address",
          "name": "_voter",
          "type": "address"
        },
        {
          "internalType": "uint256",
          "name": "_numTokens",
          "type": "uint256"
        },
        {
          "internalType": "uint256",
          "name": "_DataBatchId",
          "type": "uint256"
        }
      ],
      "name": "getInsertPointForNumTokens",
      "outputs": [
        {
          "internalType": "uint256",
          "name": "prevNode",
          "type": "uint256"
        }
      ],
      "stateMutability": "view",
      "type": "function"
    },
    {
      "inputs": [],
      "name": "getLastAllocatedBatchId",
      "outputs": [
        {
          "internalType": "uint256",
          "name": "LastAllocatedBatchId",
          "type": "uint256"
        }
      ],
      "stateMutability": "view",
      "type": "function"
    },
    {
      "inputs": [],
      "name": "getLastBatchId",
      "outputs": [
        {
          "internalType": "uint256",
          "name": "LastBatchId",
          "type": "uint256"
        }
      ],
      "stateMutability": "view",
      "type": "function"
    },
    {
      "inputs": [],
      "name": "getLastCheckedBatchId",
      "outputs": [
        {
          "internalType": "uint256",
          "name": "LastCheckedBatchId",
          "type": "uint256"
        }
      ],
      "stateMutability": "view",
      "type": "function"
    },
    {
      "inputs": [],
      "name": "getLastDataId",
      "outputs": [
        {
          "internalType": "uint256",
          "name": "DataId",
          "type": "uint256"
        }
      ],
      "stateMutability": "view",
      "type": "function"
    },
    {
      "inputs": [
        {
          "internalType": "address",
          "name": "_voter",
          "type": "address"
        }
      ],
      "name": "getLastNode",
      "outputs": [
        {
          "internalType": "uint256",
          "name": "DataID",
          "type": "uint256"
        }
      ],
      "stateMutability": "view",
      "type": "function"
    },
    {
      "inputs": [
        {
          "internalType": "address",
          "name": "_voter",
          "type": "address"
        }
      ],
      "name": "getLockedTokens",
      "outputs": [
        {
          "internalType": "uint256",
          "name": "numTokens",
          "type": "uint256"
        }
      ],
      "stateMutability": "view",
      "type": "function"
    },
    {
      "inputs": [
        {
          "internalType": "address",
          "name": "_voter",
          "type": "address"
        },
        {
          "internalType": "uint256",
          "name": "_DataBatchId",
          "type": "uint256"
        },
        {
          "internalType": "uint256",
          "name": "_salt",
          "type": "uint256"
        }
      ],
      "name": "getNumPassingTokens",
      "outputs": [
        {
          "internalType": "uint256",
          "name": "correctSpotChecks",
          "type": "uint256"
        }
      ],
      "stateMutability": "view",
      "type": "function"
    },
    {
      "inputs": [
        {
          "internalType": "address",
          "name": "_voter",
          "type": "address"
        },
        {
          "internalType": "uint256",
          "name": "_DataBatchId",
          "type": "uint256"
        }
      ],
      "name": "getNumTokens",
      "outputs": [
        {
          "internalType": "uint256",
          "name": "numTokens",
          "type": "uint256"
        }
      ],
      "stateMutability": "view",
      "type": "function"
    },
    {
      "inputs": [],
      "name": "getRandom",
      "outputs": [
        {
          "internalType": "uint256",
          "name": "",
          "type": "uint256"
        }
      ],
      "stateMutability": "view",
      "type": "function"
    },
    {
      "inputs": [],
      "name": "getRejectedBatchesCount",
      "outputs": [
        {
          "internalType": "uint256",
          "name": "count",
          "type": "uint256"
        }
      ],
      "stateMutability": "view",
      "type": "function"
    },
    {
      "inputs": [],
      "name": "getSeed",
      "outputs": [
        {
          "internalType": "bytes32",
          "name": "addr",
          "type": "bytes32"
        }
      ],
      "stateMutability": "view",
      "type": "function"
    },
    {
      "inputs": [
        {
          "internalType": "uint256",
          "name": "_DataBatchId",
          "type": "uint256"
        }
      ],
      "name": "getSubmittedFilesForBatch",
      "outputs": [
        {
          "internalType": "string[]",
          "name": "",
          "type": "string[]"
        }
      ],
      "stateMutability": "view",
      "type": "function"
    },
    {
      "inputs": [
        {
          "internalType": "address",
          "name": "_user",
          "type": "address"
        }
      ],
      "name": "getSystemTokenBalance",
      "outputs": [
        {
          "internalType": "uint256",
          "name": "tokens",
          "type": "uint256"
        }
      ],
      "stateMutability": "view",
      "type": "function"
    },
    {
      "inputs": [],
      "name": "getTxCounter",
      "outputs": [
        {
          "internalType": "uint256",
          "name": "Counter",
          "type": "uint256"
        }
      ],
      "stateMutability": "view",
      "type": "function"
    },
    {
      "inputs": [
        {
          "internalType": "address",
          "name": "user",
          "type": "address"
        }
      ],
      "name": "getUserDatas",
      "outputs": [
        {
          "internalType": "uint256[]",
          "name": "user_Datas",
          "type": "uint256[]"
        }
      ],
      "stateMutability": "view",
      "type": "function"
    },
    {
      "inputs": [
        {
          "internalType": "address",
          "name": "user_",
          "type": "address"
        }
      ],
      "name": "getUserPeriodSpotCount",
      "outputs": [
        {
          "internalType": "uint256",
          "name": "",
          "type": "uint256"
        }
      ],
      "stateMutability": "view",
      "type": "function"
    },
    {
      "inputs": [
        {
          "internalType": "uint256",
          "name": "_DataBatchId",
          "type": "uint256"
        }
      ],
      "name": "getVotesForBatch",
      "outputs": [
        {
          "internalType": "uint256[]",
          "name": "",
          "type": "uint256[]"
        }
      ],
      "stateMutability": "view",
      "type": "function"
    },
    {
      "inputs": [
        {
          "internalType": "uint256",
          "name": "_terminationDate",
          "type": "uint256"
        }
      ],
      "name": "isExpired",
      "outputs": [
        {
          "internalType": "bool",
          "name": "expired",
          "type": "bool"
        }
      ],
      "stateMutability": "view",
      "type": "function"
    },
    {
      "inputs": [
        {
          "internalType": "uint256",
          "name": "_DataBatchId",
          "type": "uint256"
        }
      ],
      "name": "isPassed",
      "outputs": [
        {
          "internalType": "bool",
          "name": "passed",
          "type": "bool"
        }
      ],
      "stateMutability": "view",
      "type": "function"
    },
    {
      "inputs": [
        {
          "internalType": "uint256",
          "name": "_DataBatchId",
          "type": "uint256"
        },
        {
          "internalType": "address",
          "name": "_worker",
          "type": "address"
        }
      ],
      "name": "isWorkerAllocatedToBatch",
      "outputs": [
        {
          "internalType": "bool",
          "name": "",
          "type": "bool"
        }
      ],
      "stateMutability": "view",
      "type": "function"
    },
    {
      "inputs": [
        {
          "internalType": "address",
          "name": "_worker",
          "type": "address"
        }
      ],
      "name": "isWorkerRegistered",
      "outputs": [
        {
          "internalType": "bool",
          "name": "passed",
          "type": "bool"
        }
      ],
      "stateMutability": "view",
      "type": "function"
    },
    {
      "inputs": [],
      "name": "owner",
      "outputs": [
        {
          "internalType": "address",
          "name": "",
          "type": "address"
        }
      ],
      "stateMutability": "view",
      "type": "function"
    },
    {
      "inputs": [
        {
          "internalType": "uint256",
          "name": "k",
          "type": "uint256"
        },
        {
          "internalType": "uint256",
          "name": "N",
          "type": "uint256"
        }
      ],
      "name": "random_selection",
      "outputs": [
        {
          "internalType": "uint256[]",
          "name": "",
          "type": "uint256[]"
        }
      ],
      "stateMutability": "view",
      "type": "function"
    },
    {
      "inputs": [],
      "name": "renounceOwnership",
      "outputs": [],
      "stateMutability": "nonpayable",
      "type": "function"
    },
    {
      "inputs": [
        {
          "internalType": "uint256",
          "name": "_DataBatchId",
          "type": "uint256"
        }
      ],
      "name": "rescueTokens",
      "outputs": [],
      "stateMutability": "nonpayable",
      "type": "function"
    },
    {
      "inputs": [
        {
          "internalType": "uint256[]",
          "name": "_DataBatchIDs",
          "type": "uint256[]"
        }
      ],
      "name": "rescueTokensInMultipleDatas",
      "outputs": [],
      "stateMutability": "nonpayable",
      "type": "function"
    },
    {
      "inputs": [
        {
          "internalType": "uint256",
          "name": "_DataBatchId",
          "type": "uint256"
        }
      ],
      "name": "revealPeriodActive",
      "outputs": [
        {
          "internalType": "bool",
          "name": "active",
          "type": "bool"
        }
      ],
      "stateMutability": "view",
      "type": "function"
    },
    {
      "inputs": [
        {
          "internalType": "uint256",
          "name": "_DataBatchId",
          "type": "uint256"
        },
        {
          "internalType": "string",
          "name": "_clearIPFSHash",
          "type": "string"
        },
        {
          "internalType": "uint256",
          "name": "_clearVote",
          "type": "uint256"
        },
        {
          "internalType": "uint256",
          "name": "_salt",
          "type": "uint256"
        }
      ],
      "name": "revealSpotCheck",
      "outputs": [],
      "stateMutability": "nonpayable",
      "type": "function"
    },
    {
      "inputs": [
        {
          "internalType": "uint256",
          "name": "N",
          "type": "uint256"
        }
      ],
      "name": "shuffle_array",
      "outputs": [
        {
          "internalType": "uint256[]",
          "name": "",
          "type": "uint256[]"
        }
      ],
      "stateMutability": "view",
      "type": "function"
    },
    {
      "inputs": [
        {
          "internalType": "uint256",
          "name": "",
          "type": "uint256"
        }
      ],
      "name": "toUnregisterWorkers",
      "outputs": [
        {
          "internalType": "address",
          "name": "",
          "type": "address"
        }
      ],
      "stateMutability": "view",
      "type": "function"
    },
    {
      "inputs": [],
      "name": "token",
      "outputs": [
        {
          "internalType": "contract IERC20",
          "name": "",
          "type": "address"
        }
      ],
      "stateMutability": "view",
      "type": "function"
    },
    {
      "inputs": [
        {
          "internalType": "address",
          "name": "newOwner",
          "type": "address"
        }
      ],
      "name": "transferOwnership",
      "outputs": [],
      "stateMutability": "nonpayable",
      "type": "function"
    },
    {
      "inputs": [
        {
          "internalType": "uint256",
          "name": "AllocatedBatchCursor_",
          "type": "uint256"
        }
      ],
      "name": "updateAllocatedBatchCursor",
      "outputs": [],
      "stateMutability": "nonpayable",
      "type": "function"
    },
    {
      "inputs": [
        {
          "internalType": "uint256",
          "name": "BatchCheckingCursor_",
          "type": "uint256"
        }
      ],
      "name": "updateBatchCheckingCursor",
      "outputs": [],
      "stateMutability": "nonpayable",
      "type": "function"
    },
    {
      "inputs": [],
      "name": "updateGlobalSpotFlow",
      "outputs": [],
      "stateMutability": "nonpayable",
      "type": "function"
    },
    {
      "inputs": [
        {
          "internalType": "address",
          "name": "addr",
          "type": "address"
        }
      ],
      "name": "updateParametersManager",
      "outputs": [],
      "stateMutability": "nonpayable",
      "type": "function"
    },
    {
      "inputs": [
        {
          "internalType": "address",
          "name": "user_",
          "type": "address"
        }
      ],
      "name": "updateUserSpotFlow",
      "outputs": [],
      "stateMutability": "nonpayable",
      "type": "function"
    },
    {
      "inputs": [
        {
          "internalType": "uint256",
          "name": "_prevID",
          "type": "uint256"
        },
        {
          "internalType": "uint256",
          "name": "_nextID",
          "type": "uint256"
        },
        {
          "internalType": "address",
          "name": "_voter",
          "type": "address"
        },
        {
          "internalType": "uint256",
          "name": "_numTokens",
          "type": "uint256"
        }
      ],
      "name": "validPosition",
      "outputs": [
        {
          "internalType": "bool",
          "name": "APPROVED",
          "type": "bool"
        }
      ],
      "stateMutability": "view",
      "type": "function"
    },
    {
      "inputs": [
        {
          "internalType": "uint256",
          "name": "_numTokens",
          "type": "uint256"
        }
      ],
      "name": "withdrawVotingRights",
      "outputs": [],
      "stateMutability": "nonpayable",
      "type": "function"
    }
  ],
  "bytecode": "0x608060405260006001818155601d829055601e829055601f8190556020819055602181905560225560238190556024819055602581905560268190556027556029805460ff60a01b1916600160a01b1790553480156200005e57600080fd5b506040516200adfa3803806200adfa833981016040819052620000819162000123565b620000956200008f620000cf565b620000d3565b6001600160a01b038116620000a957600080fd5b602880546001600160a01b0319166001600160a01b039290921691909117905562000153565b3390565b600080546001600160a01b038381166001600160a01b0319831681178455604051919092169283917f8be0079c531659141344cd1fd0a4f28419497f9722a3daafe3b4186f6b6457e09190a35050565b60006020828403121562000135578081fd5b81516001600160a01b03811681146200014c578182fd5b9392505050565b61ac9780620001636000396000f3fe608060405234801561001057600080fd5b506004361061068f5760003560e01c80638c89d0271161036c578063d186981d116101de578063eb1322ff1161010f578063f716596d116100ad578063f96305f011610087578063f96305f014610db8578063fc0c546a14610dc0578063fca4956314610dc8578063ff43de9d14610ddb5761068f565b8063f716596d14610d95578063f721de4a14610d9d578063f80a23fd14610db05761068f565b8063f2d9e74d116100e9578063f2d9e74d14610d5f578063f2fde38b14610d67578063f4cdfcc414610d7a578063f5ae7c7d14610d8d5761068f565b8063eb1322ff14610d3c578063ed8becfa14610d44578063ef4fcdad14610d575761068f565b8063d9548e531161017c578063e44c974b11610156578063e44c974b14610cf0578063e604c12714610d03578063e798a7da14610d16578063e7b1d43c14610d295761068f565b8063d9548e5314610cb5578063d9845fb814610cc8578063da14563a14610ce85761068f565b8063d6b0206c116101b8578063d6b0206c14610c74578063d817587e14610c7c578063d822ce0114610c8f578063d8b7567414610ca25761068f565b8063d186981d14610c46578063d420ec0b14610c59578063d58f575c14610c6c5761068f565b8063a98eb31e116102b8578063b1d7ea9811610256578063bc3002e611610230578063bc3002e614610c05578063c4e4f82a14610c18578063d0d41def14610c2b578063d138209214610c335761068f565b8063b1d7ea9814610bcc578063b43bd06914610bdf578063b8f011b314610bf25761068f565b8063b0bc471e11610292578063b0bc471e14610b80578063b10aa58414610b93578063b1a2e0be14610ba6578063b1cf4a7e14610bb95761068f565b8063a98eb31e14610b52578063aa7ca46414610b65578063aacc5a1714610b785761068f565b80639fc9c52f11610325578063a350715a116102ff578063a350715a14610b1c578063a4439dc514610b24578063a511dba014610b37578063a905779014610b3f5761068f565b80639fc9c52f14610aee578063a1103f3714610b01578063a1b6b5b714610b145761068f565b80638c89d02714610a7c5780638da5cb5b14610aa55780638df0296e14610aad5780639760356014610ac05780639769d84614610ad35780639d6e3f9614610adb5761068f565b8063576a55431161050557806371880b1b11610451578063815ce747116103ef57806383e5a8f6116103c957806383e5a8f614610a3b5780638473850b14610a4e5780638746ff8a14610a5657806388d072eb14610a695761068f565b8063815ce74714610a0d578063819b029314610a15578063821aa8c014610a285761068f565b80637ad3be111161042b5780637ad3be11146109b25780637f9510a2146109c55780637f97e836146109cd5780637fabe35b146109e05761068f565b806371880b1b14610984578063763a39f21461099757806377124dec1461099f5761068f565b8063607d5efa116104be5780636b1485a3116104985780636b1485a3146109435780636b2d95d4146109565780637074222b14610969578063715018a61461097c5761068f565b8063607d5efa146109205780636371d81f14610928578063667bf0f81461093b5761068f565b8063576a5543146108a1578063579db71c146108b45780635a452943146108c75780635b113a55146108e75780635dc44cf1146108fa5780635df6055d1461090d5761068f565b806331e2f285116105df578063441c77c01161057d5780634940318311610557578063494031831461086b5780634fe8b4c11461087e578063515535e81461089157806353bf27f1146108995761068f565b8063441c77c01461084857806347fe2d201461085b5780634852e2f0146108635761068f565b806339e7357c116105b957806339e7357c146107f95780633c062cc814610801578063413b90f714610822578063427fa1d2146108355761068f565b806331e2f285146107be5780633538af82146107d157806336fc43fc146107f15761068f565b8063154fd39b1161064c578063275c259011610626578063275c2590146107705780632c052031146107785780632d917c681461078b5780632f469fd11461079e5761068f565b8063154fd39b1461072857806319d9034614610730578063226ed300146107505761068f565b806301a48b981461069457806305957623146106bd578063092a5cce146106d25780630b96c5b0146106da5780630e6661a714610700578063100372f514610715575b600080fd5b6106a76106a2366004619380565b610de3565b6040516106b491906196c3565b60405180910390f35b6106d06106cb3660046190b1565b610f7e565b005b6106d0610fdf565b6106ed6106e8366004619380565b611031565b6040516106b49796959493929190619719565b610708611215565b6040516106b491906195c8565b6106d0610723366004619380565b61121b565b61070861125f565b61074361073e366004619380565b611265565b6040516106b49190619663565b61076361075e366004619380565b611580565b6040516106b491906196fb565b6106d06115c8565b610708610786366004619114565b61169c565b6107636107993660046190e9565b611839565b6107b16107ac3660046193a9565b611859565b6040516106b49190619706565b6107086107cc3660046190b1565b6118fe565b6107e46107df366004619380565b611910565b6040516106b491906195fb565b61076361193a565b61070861194a565b61081461080f366004619380565b611967565b6040516106b49291906195ed565b6108146108303660046190e9565b611989565b6107086108433660046190b1565b6119b9565b610763610856366004619380565b611a59565b610708611ab3565b610708611ab9565b610763610879366004619380565b611abf565b6106d061088c366004619380565b611d0b565b610708611db0565b610708611db6565b6106d06108af3660046190b1565b611dbc565b6106a76108c23660046190b1565b611f83565b6108da6108d5366004619380565b611fef565b6040516106b4919061a8e7565b6107086108f53660046193a9565b612244565b6107086109083660046190e9565b612261565b61074361091b366004619380565b612292565b6106d06124af565b6106d0610936366004619380565b612668565b6106d061271b565b6106d0610951366004619380565b612dba565b6107086109643660046190b1565b614544565b6107086109773660046190b1565b614553565b6106d061456e565b610708610992366004619380565b6145b9565b6107086145f6565b6106d06109ad366004619380565b6145fc565b6107086109c03660046190e9565b614640565b6107086146d5565b6107636109db3660046190e9565b6146ec565b6109f36109ee366004619380565b61473f565b6040516106b49e9d9c9b9a9998979695949392919061a9c6565b61070861483f565b610763610a233660046194a1565b61489b565b6107e4610a36366004619380565b6148dc565b6106d0610a493660046193d8565b6148ec565b610708614f49565b6107e4610a643660046190e9565b614f4f565b6107b1610a773660046193a9565b6153ab565b610a8f610a8a3660046190b1565b6153cf565b6040516106b49a9998979695949392919061960f565b6107e4615432565b6107e4610abb366004619480565b615441565b6106d0610ace366004619380565b615479565b610708615628565b610708610ae93660046190b1565b61562e565b6106d0610afc36600461922f565b615699565b610708610b0f3660046190e9565b6156e7565b61070861571a565b610708615720565b610763610b32366004619380565b615726565b610708615788565b610763610b4d3660046192de565b61578e565b6106d0610b6036600461942c565b6157f4565b610763610b733660046190e9565b615b8a565b610708615bdd565b610708610b8e3660046190e9565b615c92565b6107e4610ba1366004619380565b615cd7565b610763610bb43660046190b1565b615ce7565b610708610bc7366004619480565b615db4565b6106a7610bda366004619480565b615dc9565b610708610bed366004619114565b615fe3565b6106a7610c00366004619480565b6160cf565b610708610c13366004619148565b616237565b610708610c26366004619380565b616d6d565b610708616daa565b610708610c413660046190e9565b616db0565b610763610c543660046193a9565b616df5565b610763610c673660046190e9565b616ed0565b610708616ef0565b610708616ef6565b610743610c8a366004619380565b616efc565b6107e4610c9d3660046190e9565b617119565b610708610cb03660046193a9565b617135565b610763610cc3366004619380565b617152565b610cdb610cd6366004619380565b617157565b6040516106b4919061a731565b6106d06172db565b6106a7610cfe366004619380565b6175b3565b6107b1610d11366004619380565b61763f565b610763610d243660046190b1565b6176ea565b6106d0610d37366004619380565b61770b565b6107086178d0565b610743610d52366004619380565b6178d6565b610708617be5565b610708617beb565b6106d0610d753660046190b1565b617bf1565b610708610d8836600461933e565b617c5f565b610708617c74565b6106d0617c7a565b610763610dab366004619380565b61808a565b610763618092565b6107086180ab565b6107e46180b1565b610708610dd63660046190b1565b6180c0565b6107e4618168565b6060610dee8261808a565b610e135760405162461bcd60e51b8152600401610e0a9061a395565b60405180910390fd5b600082815260196020908152604080832080548251818502810185019093528083529192909190830182828015610e7357602002820191906000526020600020905b81546001600160a01b03168152600190910190602001808311610e55575b50505050509050600081516001600160401b03811115610ea357634e487b7160e01b600052604160045260246000fd5b604051908082528060200260200182016040528015610ecc578160200160208202803683370190505b50905060005b8251811015610f7657600c60008681526020019081526020016000206000848381518110610f1057634e487b7160e01b600052603260045260246000fd5b60200260200101516001600160a01b03166001600160a01b0316815260200190815260200160002054828281518110610f5957634e487b7160e01b600052603260045260246000fd5b602090810291909101015280610f6e8161abbb565b915050610ed2565b509392505050565b610f86618177565b6001600160a01b0316610f97615432565b6001600160a01b031614610fbd5760405162461bcd60e51b8152600401610e0a9061a0c9565b602980546001600160a01b0319166001600160a01b0392909216919091179055565b610fe7618177565b6001600160a01b0316610ff8615432565b6001600160a01b03161461101e5760405162461bcd60e51b8152600401610e0a9061a0c9565b611026615432565b6001600160a01b0316ff5b60136020526000908152604090208054819061104c9061ab80565b80601f01602080910402602001604051908101604052809291908181526020018280546110789061ab80565b80156110c55780601f1061109a576101008083540402835291602001916110c5565b820191906000526020600020905b8154815290600101906020018083116110a857829003601f168201915b50505060018401546002850154600386015460048701805496976001600160a01b0390941696929550909350906110fb9061ab80565b80601f01602080910402602001604051908101604052809291908181526020018280546111279061ab80565b80156111745780601f1061114957610100808354040283529160200191611174565b820191906000526020600020905b81548152906001019060200180831161115757829003601f168201915b5050505050908060050180546111899061ab80565b80601f01602080910402602001604051908101604052809291908181526020018280546111b59061ab80565b80156112025780601f106111d757610100808354040283529160200191611202565b820191906000526020600020905b8154815290600101906020018083116111e557829003601f168201915b5050506006909301549192505060ff1687565b601e5481565b611223618177565b6001600160a01b0316611234615432565b6001600160a01b03161461125a5760405162461bcd60e51b8152600401610e0a9061a0c9565b602155565b60225490565b60606112708261808a565b61128c5760405162461bcd60e51b8152600401610e0a9061a395565b600082815260146020908152604080832081516101c0810183528154815260018201549381019390935260028101549183019190915260038101546060830152600481015460ff808216151560808501526101008083048216151560a08601526201000090920416151560c0840152600582015460e0840152600682015490830152600781015461012083015260088101546101408301526009810180546101608401919061133a9061ab80565b80601f01602080910402602001604051908101604052809291908181526020018280546113669061ab80565b80156113b35780601f10611388576101008083540402835291602001916113b3565b820191906000526020600020905b81548152906001019060200180831161139657829003601f168201915b5050509183525050600a8201546020820152600b82015460409091019060ff1660038111156113f257634e487b7160e01b600052602160045260246000fd5b600381111561141157634e487b7160e01b600052602160045260246000fd5b90525060208101519091506000816001600160401b0381111561144457634e487b7160e01b600052604160045260246000fd5b60405190808252806020026020018201604052801561147757816020015b60608152602001906001900390816114625790505b50905060005b8281101561157757835160009061149590839061aaf2565b6000818152601360205260408120600401805492935090916114b69061ab80565b80601f01602080910402602001604051908101604052809291908181526020018280546114e29061ab80565b801561152f5780601f106115045761010080835404028352916020019161152f565b820191906000526020600020905b81548152906001019060200180831161151257829003601f168201915b505050505090508084848151811061155757634e487b7160e01b600052603260045260246000fd5b60200260200101819052505050808061156f9061abbb565b91505061147d565b50949350505050565b600061158b8261808a565b6115a75760405162461bcd60e51b8152600401610e0a9061a6bc565b6000828152601460205260409020600601546115c290617152565b92915050565b336000908152601560205260409020600581015460ff1615156001146116005760405162461bcd60e51b8152600401610e0a9061a058565b6001810154611678576116123361817b565b61161b336182d3565b80546001600160a01b031916339081178255426004830181905560058301805460ff191690556040517f9dadcedba048e92b943ea1c5861cee1df63a566d7f795869c004780c1c698e2b9161166f916195c8565b60405180910390a25b60016023600082825461168b919061aaf2565b909155506116999050618403565b50565b6000806116a8856119b9565b905060006116b68683616db0565b90505b811561182e576116c98683616db0565b9050848111611786578382141561177e576001600160a01b0386166000908152601160205260409081902090516301c39b2b60e11b815273__$85afbab79b2b776d70bef879a32ed56424$__9163038736569161172b919086906004016195ed565b60206040518083038186803b15801561174357600080fd5b505af4158015611757573d6000803e3d6000fd5b505050506040513d601f19601f8201168201806040525081019061177b9190619398565b91505b509050611832565b6001600160a01b0386166000908152601160205260409081902090516301c39b2b60e11b815273__$85afbab79b2b776d70bef879a32ed56424$__916303873656916117d7919086906004016195ed565b60206040518083038186803b1580156117ef57600080fd5b505af4158015611803573d6000803e3d6000fd5b505050506040513d601f19601f820116820180604052508101906118279190619398565b91506116b9565b5090505b9392505050565b600a60209081526000928352604080842090915290825290205460ff1681565b600d6020908152600092835260408084209091529082529020805461187d9061ab80565b80601f01602080910402602001604051908101604052809291908181526020018280546118a99061ab80565b80156118f65780601f106118cb576101008083540402835291602001916118f6565b820191906000526020600020905b8154815290600101906020018083116118d957829003601f168201915b505050505081565b60176020526000908152604090205481565b601a818154811061192057600080fd5b6000918252602090912001546001600160a01b0316905081565b602954600160a01b900460ff1681565b60405160009080602081848060185afa61196057fe5b5051919050565b6002816004811061197757600080fd5b60020201805460019091015490915082565b601660205281600052604060002081600481106119a557600080fd5b600202018054600190910154909250905082565b6001600160a01b03811660009081526011602052604080822090516301c39b2b60e11b815273__$85afbab79b2b776d70bef879a32ed56424$__91630387365691611a09919085906004016195ed565b60206040518083038186803b158015611a2157600080fd5b505af4158015611a35573d6000803e3d6000fd5b505050506040513d601f19601f820116820180604052508101906115c29190619398565b6000611a648261808a565b611a805760405162461bcd60e51b8152600401610e0a9061a395565b600082815260146020526040902060060154611a9b90617152565b1580156115c25750611aac82615726565b1592915050565b60215490565b60265481565b600081815260146020908152604080832081516101c0810183528154815260018201549381019390935260028101549183019190915260038101546060830152600481015460ff808216151560808501526101008083048216151560a08601526201000090920416151560c0840152600582015460e08401526006820154908301526007810154610120830152600881015461014083015260098101805484939291610160840191611b709061ab80565b80601f0160208091040260200160405190810160405280929190818152602001828054611b9c9061ab80565b8015611be95780601f10611bbe57610100808354040283529160200191611be9565b820191906000526020600020905b815481529060010190602001808311611bcc57829003601f168201915b5050509183525050600a8201546020820152600b82015460409091019060ff166003811115611c2857634e487b7160e01b600052602160045260246000fd5b6003811115611c4757634e487b7160e01b600052602160045260246000fd5b905250610140810151610120820151919250611c629161aaf2565b602960009054906101000a90046001600160a01b03166001600160a01b031663ea19733c6040518163ffffffff1660e01b815260040160206040518083038186803b158015611cb057600080fd5b505afa158015611cc4573d6000803e3d6000fd5b505050506040513d601f19601f82011682018060405250810190611ce89190619398565b611cf2919061ab1e565b610120820151611d0390606461ab1e565b119392505050565b611d13618177565b6001600160a01b0316611d24615432565b6001600160a01b031614611d4a5760405162461bcd60e51b8152600401610e0a9061a0c9565b600081815260136020526040812090611d638282618e38565b6001820180546001600160a01b031916905560006002830181905560038301819055611d93906004840190618e38565b611da1600583016000618e38565b50600601805460ff1916905550565b60205490565b601a5490565b6001600160a01b038116600090815260166020526040812090611de16001600461ab3d565b90506000828260048110611e0557634e487b7160e01b600052603260045260246000fd5b6002020154602954604080516307bc663b60e11b815290519293506001600160a01b0390911691630f78cc7691600480820192602092909190829003018186803b158015611e5257600080fd5b505afa158015611e66573d6000803e3d6000fd5b505050506040513d601f19601f82011682018060405250810190611e8a9190619398565b611e94824261ab3d565b1115611f7d5760005b611ea96001600461ab3d565b811015611f285783611ebc82600161aaf2565b60048110611eda57634e487b7160e01b600052603260045260246000fd5b60020201848260048110611efe57634e487b7160e01b600052603260045260246000fd5b82546002919091029190910190815560019182015491015580611f208161abbb565b915050611e9d565b5042838360048110611f4a57634e487b7160e01b600052603260045260246000fd5b60020201556000838360048110611f7157634e487b7160e01b600052603260045260246000fd5b60020201600101819055505b50505050565b6001600160a01b038116600090815260106020908152604091829020805483518184028101840190945280845260609392830182828015611fe357602002820191906000526020600020905b815481526020019060010190808311611fcf575b50505050509050919050565b611ff7618e74565b60008281526013602052604090819020815160e0810190925280548290829061201f9061ab80565b80601f016020809104026020016040519081016040528092919081815260200182805461204b9061ab80565b80156120985780601f1061206d57610100808354040283529160200191612098565b820191906000526020600020905b81548152906001019060200180831161207b57829003601f168201915b505050918352505060018201546001600160a01b0316602082015260028201546040820152600382015460608201526004820180546080909201916120dc9061ab80565b80601f01602080910402602001604051908101604052809291908181526020018280546121089061ab80565b80156121555780601f1061212a57610100808354040283529160200191612155565b820191906000526020600020905b81548152906001019060200180831161213857829003601f168201915b5050505050815260200160058201805461216e9061ab80565b80601f016020809104026020016040519081016040528092919081815260200182805461219a9061ab80565b80156121e75780601f106121bc576101008083540402835291602001916121e7565b820191906000526020600020905b8154815290600101906020018083116121ca57829003601f168201915b5050509183525050600682015460209091019060ff16600381111561221c57634e487b7160e01b600052602160045260246000fd5b600381111561223b57634e487b7160e01b600052602160045260246000fd5b90525092915050565b600e60209081526000928352604080842090915290825290205481565b6010602052816000526040600020818154811061227d57600080fd5b90600052602060002001600091509150505481565b606061229d8261808a565b6122b95760405162461bcd60e51b8152600401610e0a9061a395565b60008281526019602090815260408083208054825181850281018501909352808352919290919083018282801561231957602002820191906000526020600020905b81546001600160a01b031681526001909101906020018083116122fb575b50505050509050600081516001600160401b0381111561234957634e487b7160e01b600052604160045260246000fd5b60405190808252806020026020018201604052801561237c57816020015b60608152602001906001900390816123675790505b50905060005b8251811015610f7657600f600086815260200190815260200160002060008483815181106123c057634e487b7160e01b600052603260045260246000fd5b60200260200101516001600160a01b03166001600160a01b0316815260200190815260200160002080546123f39061ab80565b80601f016020809104026020016040519081016040528092919081815260200182805461241f9061ab80565b801561246c5780601f106124415761010080835404028352916020019161246c565b820191906000526020600020905b81548152906001019060200180831161244f57829003601f168201915b505050505082828151811061249157634e487b7160e01b600052603260045260246000fd5b602002602001018190525080806124a79061abbb565b915050612382565b60006124bd6001600461ab3d565b90506000600282600481106124e257634e487b7160e01b600052603260045260246000fd5b6002020154602954604080516307bc663b60e11b815290519293506001600160a01b0390911691630f78cc7691600480820192602092909190829003018186803b15801561252f57600080fd5b505afa158015612543573d6000803e3d6000fd5b505050506040513d601f19601f820116820180604052508101906125679190619398565b612571824261ab3d565b11156126645760005b6125866001600461ab3d565b81101561260757600261259a82600161aaf2565b600481106125b857634e487b7160e01b600052603260045260246000fd5b60020201600282600481106125dd57634e487b7160e01b600052603260045260246000fd5b825460029190910291909101908155600191820154910155806125ff8161abbb565b91505061257a565b50426002836004811061262a57634e487b7160e01b600052603260045260246000fd5b600202016000018190555060006002836004811061265857634e487b7160e01b600052603260045260246000fd5b60020201600101819055505b5050565b612670618177565b6001600160a01b0316612681615432565b6001600160a01b0316146126a75760405162461bcd60e51b8152600401610e0a9061a0c9565b600081815260146020526040812081815560018101829055600281018290556003810182905560048101805462ffffff1916905560058101829055600681018290556007810182905560088101829055906127056009830182618e38565b506000600a820155600b01805460ff1916905550565b60225460009081526014602052604090206004015460ff1661274f5760405162461bcd60e51b8152600401610e0a9061a27d565b60225460009081526014602052604090206004015462010000900460ff161561278a5760405162461bcd60e51b8152600401610e0a90619ffb565b60006128ae612823601a80549050602960009054906101000a90046001600160a01b03166001600160a01b031663dfeceed76040518163ffffffff1660e01b815260040160206040518083038186803b1580156127e657600080fd5b505afa1580156127fa573d6000803e3d6000fd5b505050506040513d601f19601f8201168201806040525081019061281e9190619398565b6186dc565b602960009054906101000a90046001600160a01b03166001600160a01b031663bd40ef4c6040518163ffffffff1660e01b815260040160206040518083038186803b15801561287157600080fd5b505afa158015612885573d6000803e3d6000fd5b505050506040513d601f19601f820116820180604052508101906128a99190619398565b6186f2565b601a546029546040805163189460df60e31b8152905193945091926001600160a01b039091169163c4a306f8916004808301926020929190829003018186803b1580156128fa57600080fd5b505afa15801561290e573d6000803e3d6000fd5b505050506040513d601f19601f820116820180604052508101906129329190619398565b60015461293f904261ab3d565b1061266457602280546000908152601460209081526040808320600301869055925482528282206002018590556029548351631b4930b560e11b8152935192936129ee936001600160a01b0390921692633692616a92600480840193829003018186803b1580156129af57600080fd5b505afa1580156129c3573d6000803e3d6000fd5b505050506040513d601f19601f820116820180604052508101906129e79190619398565b4290618702565b90506000612a82602960009054906101000a90046001600160a01b03166001600160a01b03166372e540306040518163ffffffff1660e01b815260040160206040518083038186803b158015612a4357600080fd5b505afa158015612a57573d6000803e3d6000fd5b505050506040513d601f19601f82011682018060405250810190612a7b9190619398565b8390618702565b60228054600090815260146020526040808220600501869055825482528082206006018490559154815220600401805462ff0000191662010000179055905060018410801590612ad3575060018310155b612aef5760405162461bcd60e51b8152600401610e0a90619b24565b6000612afb85856160cf565b9050600081516001600160401b03811115612b2657634e487b7160e01b600052604160045260246000fd5b604051908082528060200260200182016040528015612b4f578160200160208202803683370190505b50905060005b8251811015612c0e57601a838281518110612b8057634e487b7160e01b600052603260045260246000fd5b602002602001015181548110612ba657634e487b7160e01b600052603260045260246000fd5b9060005260206000200160009054906101000a90046001600160a01b0316828281518110612be457634e487b7160e01b600052603260045260246000fd5b6001600160a01b039092166020928302919091019091015280612c068161abbb565b915050612b55565b5060005b8251811015612d76576000828281518110612c3d57634e487b7160e01b600052603260045260246000fd5b60200260200101519050600060156000836001600160a01b03166001600160a01b031681526020019081526020016000209050612c798261817b565b612c828261870e565b612cd257601b80546001810182556000919091527f3ad8aa4f87544323a9d1e5dd902f40c356527a7955687113db5f9a85ad579dc10180546001600160a01b0319166001600160a01b0384161790555b6022805460009081526019602090815260408083208054600180820183559185529290932090910180546001600160a01b0319166001600160a01b03871617905582549184019190915560028301805460ff19169055905490517fe4ee2dfabe57cee15e3f558890b20455f54c1fa0718e5276faad70a6500e6b8c90612d599085906195fb565b60405180910390a250508080612d6e9061abbb565b915050612c12565b50426001908155602254612d8991618702565b602255612d94615bdd565b601d81905550600160236000828254612dad919061aaf2565b9091555050505050505050565b60295460408051632a49798160e11b815290516000926001600160a01b031691635492f302916004808301926020929190829003018186803b158015612dff57600080fd5b505afa158015612e13573d6000803e3d6000fd5b505050506040513d601f19601f82011682018060405250810190612e3791906190cd565b6001600160a01b03161415612e5e5760405162461bcd60e51b8152600401610e0a9061a624565b60295460408051630855d15160e01b815290516000926001600160a01b031691630855d151916004808301926020929190829003018186803b158015612ea357600080fd5b505afa158015612eb7573d6000803e3d6000fd5b505050506040513d601f19601f82011682018060405250810190612edb91906190cd565b6001600160a01b03161415612f025760405162461bcd60e51b8152600401610e0a9061a360565b602954604080516304e76c8f60e01b815290516000926001600160a01b0316916304e76c8f916004808301926020929190829003018186803b158015612f4757600080fd5b505afa158015612f5b573d6000803e3d6000fd5b505050506040513d601f19601f82011682018060405250810190612f7f91906190cd565b6001600160a01b03161415612fa65760405162461bcd60e51b8152600401610e0a90619b6e565b612faf81611580565b80612fc95750600081815260146020526040902060030154155b612fe55760405162461bcd60e51b8152600401610e0a9061a14e565b600081815260146020526040902060040154610100900460ff161561301c5760405162461bcd60e51b8152600401610e0a9061a3cc565b60008181526019602090815260408083208054825181850281018501909352808352919290919083018282801561307c57602002820191906000526020600020905b81546001600160a01b0316815260019091019060200180831161305e575b50505050509050600081516001600160401b038111156130ac57634e487b7160e01b600052604160045260246000fd5b6040519080825280602002602001820160405280156130df57816020015b60608152602001906001900390816130ca5790505b509050600082516001600160401b0381111561310b57634e487b7160e01b600052604160045260246000fd5b604051908082528060200260200182016040528015613134578160200160208202803683370190505b50905060005b83518110156132b757600084828151811061316557634e487b7160e01b600052603260045260246000fd5b6020908102919091018101516000888152600d835260408082206001600160a01b03841683529093529182208054919350906131a09061ab80565b80601f01602080910402602001604051908101604052809291908181526020018280546131cc9061ab80565b80156132195780601f106131ee57610100808354040283529160200191613219565b820191906000526020600020905b8154815290600101906020018083116131fc57829003601f168201915b50505060008a8152600e602090815260408083206001600160a01b03891684529091529020548851939450928492508891508690811061326957634e487b7160e01b600052603260045260246000fd5b60200260200101819052508085858151811061329557634e487b7160e01b600052603260045260246000fd5b60200260200101818152505050505080806132af9061abbb565b91505061313a565b5060006133626064602960009054906101000a90046001600160a01b03166001600160a01b031663ea19733c6040518163ffffffff1660e01b815260040160206040518083038186803b15801561330d57600080fd5b505afa158015613321573d6000803e3d6000fd5b505050506040513d601f19601f820116820180604052508101906133459190619398565b8651613351919061ab1e565b61335b919061ab0a565b60016186f2565b60408051602081019091526000808252919250905b8451811015613460576000805b8651811015613415576133e58784815181106133b057634e487b7160e01b600052603260045260246000fd5b60200260200101518883815181106133d857634e487b7160e01b600052603260045260246000fd5b602002602001015161578e565b15613403576133f560018361aaf2565b915084821061340357613415565b8061340d8161abbb565b915050613384565b5083811061344d5785828151811061343d57634e487b7160e01b600052603260045260246000fd5b6020026020010151925050613460565b50806134588161abbb565b915050613377565b506000805b8451811015613547576000805b86518110156134fc5786818151811061349b57634e487b7160e01b600052603260045260246000fd5b60200260200101518784815181106134c357634e487b7160e01b600052603260045260246000fd5b602002602001015114156134ea576134dc60018361aaf2565b91508582106134ea576134fc565b806134f48161abbb565b915050613472565b508481106135345785828151811061352457634e487b7160e01b600052603260045260246000fd5b6020026020010151925050613547565b508061353f8161abbb565b915050613465565b50600061355388611abf565b80156135755750613573836040518060200160405280600081525061578e565b155b801561358057508115155b905060005b8751811015613cf85760008882815181106135b057634e487b7160e01b600052603260045260246000fd5b602002602001015190506000600c60008c81526020019081526020016000206000836001600160a01b03166001600160a01b031681526020019081526020016000205490506000600b6000846001600160a01b03166001600160a01b0316815260200190815260200160002060008d815260200190815260200160002060009054906101000a900460ff169050600060156000856001600160a01b03166001600160a01b0316815260200190815260200160002090508115613b78576001600160a01b038416600090815260156020526040812060028101805460ff191660019081179091556003909101919091558615151480156136af5750826001145b806136c45750851580156136c4575082600114155b15613b585760295460408051632a49798160e11b815290516000926001600160a01b031691635492f302916004808301926020929190829003018186803b15801561370e57600080fd5b505afa158015613722573d6000803e3d6000fd5b505050506040513d601f19601f8201168201806040525081019061374691906190cd565b90506000602960009054906101000a90046001600160a01b03166001600160a01b0316630855d1516040518163ffffffff1660e01b815260040160206040518083038186803b15801561379857600080fd5b505afa1580156137ac573d6000803e3d6000fd5b505050506040513d601f19601f820116820180604052508101906137d091906190cd565b90506000602960009054906101000a90046001600160a01b03166001600160a01b03166304e76c8f6040518163ffffffff1660e01b815260040160206040518083038186803b15801561382257600080fd5b505afa158015613836573d6000803e3d6000fd5b505050506040513d601f19601f8201168201806040525081019061385a91906190cd565b90506000836001600160a01b03166311815086896040518263ffffffff1660e01b815260040161388a91906195fb565b60206040518083038186803b1580156138a257600080fd5b505afa1580156138b6573d6000803e3d6000fd5b505050506040513d601f19601f820116820180604052508101906138da91906190cd565b9050826001600160a01b0316631b6d990a8c602960009054906101000a90046001600160a01b03166001600160a01b0316630b08bfd96040518163ffffffff1660e01b815260040160206040518083038186803b15801561393a57600080fd5b505afa15801561394e573d6000803e3d6000fd5b505050506040513d601f19601f820116820180604052508101906139729190619398565b61397c919061ab1e565b836040518363ffffffff1660e01b815260040161399a92919061a992565b602060405180830381600087803b1580156139b457600080fd5b505af11580156139c8573d6000803e3d6000fd5b505050506040513d601f19601f820116820180604052508101906139ec91906192be565b613a085760405162461bcd60e51b8152600401610e0a90619cbe565b816001600160a01b031663e0ca50948c602960009054906101000a90046001600160a01b03166001600160a01b031663f80de0a06040518163ffffffff1660e01b815260040160206040518083038186803b158015613a6657600080fd5b505afa158015613a7a573d6000803e3d6000fd5b505050506040513d601f19601f82011682018060405250810190613a9e9190619398565b613aa8919061ab1e565b836040518363ffffffff1660e01b8152600401613ac692919061a97b565b602060405180830381600087803b158015613ae057600080fd5b505af1158015613af4573d6000803e3d6000fd5b505050506040513d601f19601f82011682018060405250810190613b1891906192be565b613b345760405162461bcd60e51b8152600401610e0a9061a1ab565b6001856007016000828254613b49919061aaf2565b90915550613b73945050505050565b6001816008016000828254613b6d919061aaf2565b90915550505b613c66565b6001600160a01b0384166000908152601560205260408120600301805460019290613ba490849061aaf2565b909155505060295460408051634fda48fb60e11b815290516001600160a01b0390921691639fb491f691600480820192602092909190829003018186803b158015613bee57600080fd5b505afa158015613c02573d6000803e3d6000fd5b505050506040513d601f19601f82011682018060405250810190613c269190619398565b6001600160a01b0385166000908152601560205260409020600301541415613c665760058101805460ff19169055613c5d8461817b565b613c66846182d3565b60006001820155600581015460ff168015613c875750613c858461877e565b155b15613ce157613c95846182d3565b601a80546001810182556000919091527f057c384a7d1c54f3a1b2e5e67b2617b8224fdfd1ea7234eea573a6ff665ff63e0180546001600160a01b0319166001600160a01b0386161790555b505050508080613cf09061abbb565b915050613585565b50600088815260146020908152604090912060048101805461ff0019166101001790558451613d2f92600990920191860190618ed8565b506000888152601460205260409020600a0182905580156144435760008881526014602052604081208054600190910154909190613d6d908361aaf2565b9050815b81811015614210576000818152601360209081526040808320600101546029548251632a49798160e11b815292516001600160a01b0392831695949190921692635492f3029260048083019392829003018186803b158015613dd257600080fd5b505afa158015613de6573d6000803e3d6000fd5b505050506040513d601f19601f82011682018060405250810190613e0a91906190cd565b90506000602960009054906101000a90046001600160a01b03166001600160a01b0316630855d1516040518163ffffffff1660e01b815260040160206040518083038186803b158015613e5c57600080fd5b505afa158015613e70573d6000803e3d6000fd5b505050506040513d601f19601f82011682018060405250810190613e9491906190cd565b90506000602960009054906101000a90046001600160a01b03166001600160a01b03166304e76c8f6040518163ffffffff1660e01b815260040160206040518083038186803b158015613ee657600080fd5b505afa158015613efa573d6000803e3d6000fd5b505050506040513d601f19601f82011682018060405250810190613f1e91906190cd565b90506000836001600160a01b03166311815086866040518263ffffffff1660e01b8152600401613f4e91906195fb565b60206040518083038186803b158015613f6657600080fd5b505afa158015613f7a573d6000803e3d6000fd5b505050506040513d601f19601f82011682018060405250810190613f9e91906190cd565b9050826001600160a01b0316631b6d990a8b602960009054906101000a90046001600160a01b03166001600160a01b031663abb10b9b6040518163ffffffff1660e01b815260040160206040518083038186803b158015613ffe57600080fd5b505afa158015614012573d6000803e3d6000fd5b505050506040513d601f19601f820116820180604052508101906140369190619398565b614040919061ab1e565b836040518363ffffffff1660e01b815260040161405e92919061a992565b602060405180830381600087803b15801561407857600080fd5b505af115801561408c573d6000803e3d6000fd5b505050506040513d601f19601f820116820180604052508101906140b091906192be565b6140cc5760405162461bcd60e51b8152600401610e0a90619f60565b816001600160a01b031663e0ca50948b602960009054906101000a90046001600160a01b03166001600160a01b03166330c0bb796040518163ffffffff1660e01b815260040160206040518083038186803b15801561412a57600080fd5b505afa15801561413e573d6000803e3d6000fd5b505050506040513d601f19601f820116820180604052508101906141629190619398565b61416c919061ab1e565b836040518363ffffffff1660e01b815260040161418a92919061a97b565b602060405180830381600087803b1580156141a457600080fd5b505af11580156141b8573d6000803e3d6000fd5b505050506040513d601f19601f820116820180604052508101906141dc91906192be565b6141f85760405162461bcd60e51b8152600401610e0a9061a0fe565b505050505080806142089061abbb565b915050613d71565b5060008a8152601460205260408120600b01805460ff19166001908117909155602480549192909161424390849061aaf2565b909155505060295460408051637b39b17f60e11b815290516000926001600160a01b03169163f67362fe916004808301926020929190829003018186803b15801561428d57600080fd5b505afa1580156142a1573d6000803e3d6000fd5b505050506040513d601f19601f820116820180604052508101906142c591906190cd565b6001600160a01b031614156142ec5760405162461bcd60e51b8152600401610e0a90619bb1565b60295460408051637b39b17f60e11b815290516000926001600160a01b03169163f67362fe916004808301926020929190829003018186803b15801561433157600080fd5b505afa158015614345573d6000803e3d6000fd5b505050506040513d601f19601f8201168201806040525081019061436991906190cd565b6040516348257dc960e01b81529091506001600160a01b038216906348257dc990614398908e906004016195c8565b600060405180830381600087803b1580156143b257600080fd5b505af19250505080156143c3575060015b614422573d8080156143f1576040519150601f19603f3d011682016040523d82523d6000602084013e6143f6565b606091505b5060008051602061ac42833981519152816040516144149190619706565b60405180910390a15061443b565b600160236000828254614435919061aaf2565b90915550505b505050614478565b6000888152601460205260408120600b01805460ff19166002179055602580546001929061447290849061aaf2565b90915550505b60016023600082825461448b919061aaf2565b909155505060008881526014602052604081206002015460268054919290916144b590849061aaf2565b909155505060008881526014602052604081206003015460278054919290916144df90849061aaf2565b909155505060008881526013602052604090819020600181015491516001600160a01b03909216917f43916c3ae75995d24cc89b466ed08e6dba74d325f7957f9b37b05f150e12918e91614532916197db565b60405180910390a25050505050505050565b60006115c282610c41846119b9565b6001600160a01b031660009081526017602052604090205490565b614576618177565b6001600160a01b0316614587615432565b6001600160a01b0316146145ad5760405162461bcd60e51b8152600401610e0a9061a0c9565b6145b760006187ee565b565b60006145c48261808a565b6145e05760405162461bcd60e51b8152600401610e0a9061a395565b5060009081526014602052604090206006015490565b601b5490565b614604618177565b6001600160a01b0316614615615432565b6001600160a01b03161461463b5760405162461bcd60e51b8152600401610e0a9061a0c9565b602255565b600073__$0947e710b66d7779e1d561254425e1375a$__6369810158601261466886866156e7565b6040518363ffffffff1660e01b815260040161468592919061a854565b60206040518083038186803b15801561469d57600080fd5b505af41580156146b1573d6000803e3d6000fd5b505050506040513d601f19601f820116820180604052508101906118329190619398565b601b54601a546000916146e79161aaf2565b905090565b60006146f78261808a565b6147135760405162461bcd60e51b8152600401610e0a9061a395565b506001600160a01b03919091166000908152600a60209081526040808320938352929052205460ff1690565b601460205260009081526040902080546001820154600283015460038401546004850154600586015460068701546007880154600889015460098a018054999a98999798969760ff808816986101008904821698620100009004909116969594939290916147ac9061ab80565b80601f01602080910402602001604051908101604052809291908181526020018280546147d89061ab80565b80156148255780601f106147fa57610100808354040283529160200191614825565b820191906000526020600020905b81548152906001019060200180831161480857829003601f168201915b50505050600a830154600b9093015491929160ff1690508e565b600080805b6004811015614895576002816004811061486e57634e487b7160e01b600052603260045260246000fd5b600202016001015482614881919061aaf2565b91508061488d8161abbb565b915050614844565b50905090565b6000806148a88487616db0565b831015905060006148b98587616db0565b841115806148c5575085155b90508180156148d15750805b979650505050505050565b601b818154811061192057600080fd5b6148f585615726565b6149115760405162461bcd60e51b8152600401610e0a90619952565b336000908152600a6020908152604080832088845290915290205460ff161561494c5760405162461bcd60e51b8152600401610e0a9061a45a565b6149568533616df5565b6149725760405162461bcd60e51b8152600401610e0a90619c2a565b60295460408051632a49798160e11b815290516000926001600160a01b031691635492f302916004808301926020929190829003018186803b1580156149b757600080fd5b505afa1580156149cb573d6000803e3d6000fd5b505050506040513d601f19601f820116820180604052508101906149ef91906190cd565b6001600160a01b03161415614a165760405162461bcd60e51b8152600401610e0a9061a624565b602954604080516001624ee91360e11b0319815290516000926001600160a01b03169163ff622dda916004808301926020929190829003018186803b158015614a5e57600080fd5b505afa158015614a72573d6000803e3d6000fd5b505050506040513d601f19601f82011682018060405250810190614a969190619398565b90506000614aa43383614f4f565b6001600160a01b038116600090815260176020526040902054909150821115614af9576001600160a01b038116600090815260176020526040812054614aeb90849061883e565b9050614af7818361884a565b505b6000336000908152601160205260408082209051631e0f232560e31b815273__$85afbab79b2b776d70bef879a32ed56424$__9163f079192891614b42919086906004016195ed565b60206040518083038186803b158015614b5a57600080fd5b505af4158015614b6e573d6000803e3d6000fd5b505050506040513d601f19601f82011682018060405250810190614b929190619398565b905088811415614c375733600090815260116020526040908190209051631e0f232560e31b815273__$85afbab79b2b776d70bef879a32ed56424$__9163f079192891614be491908d906004016195ed565b60206040518083038186803b158015614bfc57600080fd5b505af4158015614c10573d6000803e3d6000fd5b505050506040513d601f19601f82011682018060405250810190614c349190619398565b90505b614c438282338761489b565b614c5f5760405162461bcd60e51b8152600401610e0a90619fcd565b3360009081526011602052604090819020905163524cfe5360e11b815273__$85afbab79b2b776d70bef879a32ed56424$__9163a499fca691614cab919086908e90879060040161a8cc565b60006040518083038186803b158015614cc357600080fd5b505af4158015614cd7573d6000803e3d6000fd5b505050506000614ce7338b6156e7565b60405163099b040f60e31b815290915073__$0947e710b66d7779e1d561254425e1375a$__90634cd8207890614d269060129085908a9060040161a8ae565b60006040518083038186803b158015614d3e57600080fd5b505af4158015614d52573d6000803e3d6000fd5b505060405163099b040f60e31b815273__$0947e710b66d7779e1d561254425e1375a$__9250634cd820789150614d929060129085908e9060040161a872565b60006040518083038186803b158015614daa57600080fd5b505af4158015614dbe573d6000803e3d6000fd5b505060405163099b040f60e31b815273__$0947e710b66d7779e1d561254425e1375a$__9250634cd820789150614dfe9060129085908d9060040161a826565b60006040518083038186803b158015614e1657600080fd5b505af4158015614e2a573d6000803e3d6000fd5b50505060008b8152600e60209081526040808320338085529083528184208c90558e8452600f835281842090845282529091208851614e6e93509091890190618ed8565b503360009081526015602090815260408083208d8452601490925290912060020154614e9b90600161883e565b60008c815260146020908152604080832060020193909355426004850155338252600a81528282208e83529052908120805460ff191660019081179091556023805491929091614eec90849061aaf2565b90915550614efa9050618403565b336001600160a01b03168b7f42864d9683ff5b12c3b2cc65d705af5aab104b03bc700b802f79e5c971ef08a188604051614f3491906195c8565b60405180910390a35050505050505050505050565b60205481565b6000806001600160a01b0316602960009054906101000a90046001600160a01b03166001600160a01b0316635492f3026040518163ffffffff1660e01b815260040160206040518083038186803b158015614fa957600080fd5b505afa158015614fbd573d6000803e3d6000fd5b505050506040513d601f19601f82011682018060405250810190614fe191906190cd565b6001600160a01b031614156150085760405162461bcd60e51b8152600401610e0a9061a624565b6029546040805163ca64f9e760e01b815290516000926001600160a01b03169163ca64f9e7916004808301926020929190829003018186803b15801561504d57600080fd5b505afa158015615061573d6000803e3d6000fd5b505050506040513d601f19601f8201168201806040525081019061508591906190cd565b6001600160a01b031614156150ac5760405162461bcd60e51b8152600401610e0a9061a1f2565b6029546040805163ca64f9e760e01b815290516000926001600160a01b03169163ca64f9e7916004808301926020929190829003018186803b1580156150f157600080fd5b505afa158015615105573d6000803e3d6000fd5b505050506040513d601f19601f8201168201806040525081019061512991906190cd565b90506000602960009054906101000a90046001600160a01b03166001600160a01b0316635492f3026040518163ffffffff1660e01b815260040160206040518083038186803b15801561517b57600080fd5b505afa15801561518f573d6000803e3d6000fd5b505050506040513d601f19601f820116820180604052508101906151b391906190cd565b9050848060055b6001600160a01b038216158015906151d25750600081115b1561539f5760405163065ee72760e51b81526000906001600160a01b0387169063cbdce4e0906152069086906004016195fb565b60206040518083038186803b15801561521e57600080fd5b505afa158015615232573d6000803e3d6000fd5b505050506040513d601f19601f820116820180604052508101906152569190619398565b6001600160a01b0384166000908152601760205260409020549091508811615281578293505061539f565b6001600160a01b03831660009081526017602052604090205488108015906152c057506001600160a01b03831660009081526017602052604090205415155b156152fe576001600160a01b0383166000908152601760205260408120546152e9908a9061883e565b90508082106152fc57839450505061539f565b505b87811061530e578293505061539f565b60405163792f4f6960e11b81526001600160a01b0386169063f25e9ed29061533a9086906004016195fb565b60206040518083038186803b15801561535257600080fd5b505afa158015615366573d6000803e3d6000fd5b505050506040513d601f19601f8201168201806040525081019061538a91906190cd565b925061539760018361ab3d565b9150506151ba565b50909695505050505050565b600f6020908152600092835260408084209091529082529020805461187d9061ab80565b6015602052600090815260409020805460018201546002830154600384015460048501546005860154600687015460078801546008909801546001600160a01b0390971697959660ff95861696949593948385169461010090940490931692908a565b6000546001600160a01b031690565b6019602052816000526040600020818154811061545d57600080fd5b6000918252602090912001546001600160a01b03169150829050565b60016000828152601460205260409020600b015460ff1660038111156154af57634e487b7160e01b600052602160045260246000fd5b146154cc5760405162461bcd60e51b8152600401610e0a906198bc565b336000908152601160205260409081902090516306120d1f60e31b815273__$85afbab79b2b776d70bef879a32ed56424$__9163309068f891615514919085906004016195ed565b60206040518083038186803b15801561552c57600080fd5b505af4158015615540573d6000803e3d6000fd5b505050506040513d601f19601f8201168201806040525081019061556491906192be565b6155805760405162461bcd60e51b8152600401610e0a90619eb8565b336000908152601160205260409081902090516301039dfd60e11b815273__$85afbab79b2b776d70bef879a32ed56424$__916302073bfa916155c8919085906004016195ed565b60006040518083038186803b1580156155e057600080fd5b505af41580156155f4573d6000803e3d6000fd5b50506040513392508391507f402507661c8c8cb90e0a796450b8bdd28b6c516f05279c0cd29e84c344e1699a90600090a350565b60245481565b6001600160a01b038116600090815260166020526040812081805b6004811015610f765782816004811061567257634e487b7160e01b600052603260045260246000fd5b600202016001015482615685919061aaf2565b9150806156918161abbb565b915050615649565b60005b8151811015612664576156d58282815181106156c857634e487b7160e01b600052603260045260246000fd5b6020026020010151615479565b806156df8161abbb565b91505061569c565b600082826040516020016156fc9291906195a6565b60405160208183030381529060405280519060200120905092915050565b60245490565b60255481565b60006157318261808a565b61574d5760405162461bcd60e51b8152600401610e0a9061a395565b60008281526014602052604090206005015461576890617152565b1580156115c2575050600090815260146020526040902060020154151590565b601e5490565b6000816040516020016157a191906195d1565b60405160208183030381529060405280519060200120836040516020016157c891906195d1565b6040516020818303038152906040528051906020012014156157ec575060016115c2565b5060006115c2565b6157fd84611a59565b6158195760405162461bcd60e51b8152600401610e0a9061a2d3565b336000908152600a6020908152604080832087845290915290205460ff166158535760405162461bcd60e51b8152600401610e0a90619d60565b336000908152600b6020908152604080832087845290915290205460ff161561588e5760405162461bcd60e51b8152600401610e0a9061a6e5565b6158983385614640565b6158a28483617c5f565b146158bf5760405162461bcd60e51b8152600401610e0a90619a19565b6158c93385615c92565b6158d38383615db4565b146158f05760405162461bcd60e51b8152600401610e0a906199a1565b60006158fc3386616db0565b90508260011415615933576000858152601460205260408120600701805483929061592890849061aaf2565b9091555061595a9050565b6000858152601460205260408120600801805483929061595490849061aaf2565b90915550505b336000908152601160205260409081902090516301039dfd60e11b815273__$85afbab79b2b776d70bef879a32ed56424$__916302073bfa916159a2919089906004016195ed565b60006040518083038186803b1580156159ba57600080fd5b505af41580156159ce573d6000803e3d6000fd5b5050336000818152600b602090815260408083208b84528252808320805460ff19166001179055600c825280832084845282528083208990558a8352600d82528083209383529281529190208751615a2d945090925090870190618ed8565b50336000908152601560209081526040808320888452601490925290912060030154615a5a90600161883e565b60008781526014602052604090206003015560028101805460ff19166001179055426004820155600581015460ff1615615ae757615a97336182d3565b615aa03361877e565b615ae757601a80546001810182556000919091527f057c384a7d1c54f3a1b2e5e67b2617b8224fdfd1ea7234eea573a6ff665ff63e0180546001600160a01b031916331790555b600086815260146020526040902060030154615b0657615b0686612dba565b600160236000828254615b19919061aaf2565b90915550615b279050618403565b6000868152601460205260409081902060078101546008909101549151339287928a927f0867b5027231dcbf37614eaad07d667b9febaf9fdf483f488229b1f140bb074892615b7a92899290919061a9b0565b60405180910390a4505050505050565b6000615b958261808a565b615bb15760405162461bcd60e51b8152600401610e0a9061a395565b506001600160a01b03919091166000908152600b60209081526040808320938352929052205460ff1690565b6000804241604051602001615bf29190619589565b6040516020818303038152906040528051906020012060001c615c15919061ab0a565b44615c1e61194a565b604051602001615c2e91906195c8565b60408051601f198184030181529190528051602090910120615c50904261aaf2565b615c5a919061aaf2565b615c64919061aaf2565b604051602001615c7491906195c8565b60408051601f19818403018152919052805160209091012091505090565b600073__$0947e710b66d7779e1d561254425e1375a$__63698101586012615cba86866156e7565b6040518363ffffffff1660e01b815260040161468592919061a808565b601c818154811061192057600080fd5b6001600160a01b03808216600090815260156020908152604080832081516101408101835281549095168552600181015492850192909252600282015460ff90811615801592860183905260038401546060870152600484015460808701526005840154808316151560a088015261010090819004909216151560c0870152600684015460e087015260078401549186019190915260089092015461012085015291928392909190615da35750615da18160200151611580565b155b15615dad57600191505b5092915050565b600082826040516020016156fc9291906195ed565b606060008211615deb5760405162461bcd60e51b8152600401610e0a9061a0a4565b600041604051602001615dfe9190619589565b6040516020818303038152906040528051906020012060001c615e1f61194a565b604051602001615e2f91906195c8565b60408051601f198184030181529190528051602090910120615e51904261aaf2565b615e5b919061aaf2565b604051602001615e6b91906195c8565b6040516020818303038152906040528051906020012060001c90506000846001600160401b03811115615eae57634e487b7160e01b600052604160045260246000fd5b604051908082528060200260200182016040528015615ed7578160200160208202803683370190505b5090506000805b86821015615fd857600086615ef763017efeeb8761ab3d565b83604051602001615f099291906195ed565b6040516020818303038152906040528051906020012060001c615f2c919061abd6565b90506000805b84811015615f845782868281518110615f5b57634e487b7160e01b600052603260045260246000fd5b60200260200101511415615f725760019150615f84565b80615f7c8161abbb565b915050615f32565b5080615fc45781858581518110615fab57634e487b7160e01b600052603260045260246000fd5b6020908102919091010152615fc184600161aaf2565b93505b615fcf83600161aaf2565b92505050615ede565b509095945050505050565b6000615fee83611580565b61600a5760405162461bcd60e51b8152600401610e0a9061a57d565b6001600160a01b0384166000908152600b6020908152604080832086845290915290205460ff1661604d5760405162461bcd60e51b8152600401610e0a90619f15565b600061605884611abf565b616063576000616066565b60015b60ff169050600081846040516020016160809291906195ed565b60405160208183030381529060405280519060200120905060006160a48787615c92565b90508082146160c55760405162461bcd60e51b8152600401610e0a9061a234565b6148d18787616db0565b60606000821180156160e15750818311155b80156160ee575060018310155b61610a5760405162461bcd60e51b8152600401610e0a90619adb565b6000826001600160401b0381111561613257634e487b7160e01b600052604160045260246000fd5b60405190808252806020026020018201604052801561615b578160200160208202803683370190505b5090506000846001600160401b0381111561618657634e487b7160e01b600052604160045260246000fd5b6040519080825280602002602001820160405280156161af578160200160208202803683370190505b50905060006161c56161c084618a72565b618ac8565b905060005b86811015615fd8578181815181106161f257634e487b7160e01b600052603260045260246000fd5b602002602001015183828151811061621a57634e487b7160e01b600052603260045260246000fd5b60209081029190910101528061622f8161abbb565b9150506161ca565b602954604080516309d0f8b560e31b815290516000926001600160a01b031691634e87c5a8916004808301926020929190829003018186803b15801561627c57600080fd5b505afa158015616290573d6000803e3d6000fd5b505050506040513d601f19601f820116820180604052508101906162b491906192be565b6162d05760405162461bcd60e51b8152600401610e0a90619daf565b855184146162f05760405162461bcd60e51b8152600401610e0a9061a40d565b6162f86124af565b602960009054906101000a90046001600160a01b03166001600160a01b031663b38e885e6040518163ffffffff1660e01b815260040160206040518083038186803b15801561634657600080fd5b505afa15801561635a573d6000803e3d6000fd5b505050506040513d601f19601f8201168201806040525081019061637e9190619398565b61638661483f565b106163a35760405162461bcd60e51b8152600401610e0a90619df9565b602954604080516001624ee91360e11b0319815290516000926001600160a01b03169163ff622dda916004808301926020929190829003018186803b1580156163eb57600080fd5b505afa1580156163ff573d6000803e3d6000fd5b505050506040513d601f19601f820116820180604052508101906164239190619398565b905060006164313383614f4f565b905061643c81611dbc565b602960009054906101000a90046001600160a01b03166001600160a01b031663be2509886040518163ffffffff1660e01b815260040160206040518083038186803b15801561648a57600080fd5b505afa15801561649e573d6000803e3d6000fd5b505050506040513d601f19601f820116820180604052508101906164c29190619398565b6164cb8261562e565b106164e85760405162461bcd60e51b8152600401610e0a9061a668565b6001600160a01b03811660009081526017602052604090205482111561653a576001600160a01b03811660009081526017602052604081205461652c90849061883e565b9050616538818361884a565b505b60005b8851811015616d2757600089828151811061656857634e487b7160e01b600052603260045260246000fd5b60200260200101519050600089898481811061659457634e487b7160e01b600052603260045260246000fd5b90506020028101906165a6919061aa56565b8080601f016020809104026020016040519081016040528093929190818152602001838380828437600092018290525033808252601060209081526040808420601e54815460018101835591865283862090910155805160e0810182528a8152918201929092524291810191909152606081018e90526080810186905260a081018d905294955060c085019350915061663c9050565b9052601e54600090815260136020908152604090912082518051919261666792849290910190618ed8565b506020828101516001830180546001600160a01b0319166001600160a01b039092169190911790556040830151600283015560608301516003830155608083015180516166ba9260048501920190618ed8565b5060a082015180516166d6916005840191602090910190618ed8565b5060c082015160068201805460ff1916600183600381111561670857634e487b7160e01b600052602160045260246000fd5b021790555050602080546000908152601482526040908190206029548251634e8f956d60e11b815292519194506001600160a01b031692639d1f2ada9260048082019391829003018186803b15801561676057600080fd5b505afa158015616774573d6000803e3d6000fd5b505050506040513d601f19601f820116820180604052508101906167989190619398565b816001015410156167be5760018160010160008282546167b8919061aaf2565b90915550505b602960009054906101000a90046001600160a01b03166001600160a01b0316639d1f2ada6040518163ffffffff1660e01b815260040160206040518083038186803b15801561680c57600080fd5b505afa158015616820573d6000803e3d6000fd5b505050506040513d601f19601f820116820180604052508101906168449190619398565b81600101541061689457600481018054600160ff19909116811761ff0019169091556020805460009061687890849061aaf2565b9091555050601e54602080546000908152601490915260409020555b601e546168a290600161aaf2565b601e55600160026168b482600461ab3d565b600481106168d257634e487b7160e01b600052603260045260246000fd5b6002020160010160008282546168e8919061aaf2565b90915550506001600160a01b038516600090815260166020526040902060018161691382600461ab3d565b6004811061693157634e487b7160e01b600052603260045260246000fd5b600202016001016000828254616947919061aaf2565b9091555061695590506172db565b60295460408051637b39b17f60e11b815290516000926001600160a01b03169163f67362fe916004808301926020929190829003018186803b15801561699a57600080fd5b505afa1580156169ae573d6000803e3d6000fd5b505050506040513d601f19601f820116820180604052508101906169d291906190cd565b9050806001600160a01b031663da14563a6040518163ffffffff1660e01b8152600401600060405180830381600087803b158015616a0f57600080fd5b505af1925050508015616a20575060015b616a7b573d808015616a4e576040519150601f19603f3d011682016040523d82523d6000602084013e616a53565b606091505b5060008051602061ac4283398151915281604051616a719190619706565b60405180910390a1505b60295460408051637a0ec25b60e01b815290516000926001600160a01b031691637a0ec25b916004808301926020929190829003018186803b158015616ac057600080fd5b505afa158015616ad4573d6000803e3d6000fd5b505050506040513d601f19601f82011682018060405250810190616af891906190cd565b9050806001600160a01b031663da14563a6040518163ffffffff1660e01b8152600401600060405180830381600087803b158015616b3557600080fd5b505af1925050508015616b46575060015b616ba1573d808015616b74576040519150601f19603f3d011682016040523d82523d6000602084013e616b79565b606091505b5060008051602061ac4283398151915281604051616b979190619706565b60405180910390a1505b6029546040805163463444b760e01b815290516000926001600160a01b03169163463444b7916004808301926020929190829003018186803b158015616be657600080fd5b505afa158015616bfa573d6000803e3d6000fd5b505050506040513d601f19601f82011682018060405250810190616c1e91906190cd565b9050806001600160a01b031663da14563a6040518163ffffffff1660e01b8152600401600060405180830381600087803b158015616c5b57600080fd5b505af1925050508015616c6c575060015b616cc7573d808015616c9a576040519150601f19603f3d011682016040523d82523d6000602084013e616c9f565b606091505b5060008051602061ac4283398151915281604051616cbd9190619706565b60405180910390a1505b886001600160a01b0316601e547fb819ca9ac369919119f75ec7363dd954f75bcfa75f9245647e03da413be0d5828989604051616d0592919061978b565b60405180910390a3505050505050508080616d1f9061abbb565b91505061653d565b50336000908152601560205260409020426004820155616d45618403565b600160236000828254616d58919061aaf2565b9091555050601e549998505050505050505050565b6000616d788261808a565b616d945760405162461bcd60e51b8152600401610e0a9061a395565b5060009081526014602052604090206005015490565b60015481565b600073__$0947e710b66d7779e1d561254425e1375a$__63698101586012616dd886866156e7565b6040518363ffffffff1660e01b815260040161468592919061a890565b6000828152601960209081526040808320805482518185028101850190935280835284938493929190830182828015616e5757602002820191906000526020600020905b81546001600160a01b03168152600190910190602001808311616e39575b5050505050905060005b8151811015616ec657846001600160a01b0316828281518110616e9457634e487b7160e01b600052603260045260246000fd5b60200260200101516001600160a01b03161415616eb45760019250616ec6565b80616ebe8161abbb565b915050616e61565b5090949350505050565b600b60209081526000928352604080842090915290825290205460ff1681565b601f5481565b60225481565b6060616f078261808a565b616f235760405162461bcd60e51b8152600401610e0a9061a395565b600082815260196020908152604080832080548251818502810185019093528083529192909190830182828015616f8357602002820191906000526020600020905b81546001600160a01b03168152600190910190602001808311616f65575b50505050509050600081516001600160401b03811115616fb357634e487b7160e01b600052604160045260246000fd5b604051908082528060200260200182016040528015616fe657816020015b6060815260200190600190039081616fd15790505b50905060005b8251811015610f7657600d6000868152602001908152602001600020600084838151811061702a57634e487b7160e01b600052603260045260246000fd5b60200260200101516001600160a01b03166001600160a01b03168152602001908152602001600020805461705d9061ab80565b80601f01602080910402602001604051908101604052809291908181526020018280546170899061ab80565b80156170d65780601f106170ab576101008083540402835291602001916170d6565b820191906000526020600020905b8154815290600101906020018083116170b957829003601f168201915b50505050508282815181106170fb57634e487b7160e01b600052603260045260246000fd5b602002602001018190525080806171119061abbb565b915050616fec565b6018602052816000526040600020818154811061545d57600080fd5b600c60209081526000928352604080842090915290825290205481565b421190565b61715f618f5c565b6171688261808a565b61717157600080fd5b60008281526014602090815260409182902082516101c0810184528154815260018201549281019290925260028101549282019290925260038201546060820152600482015460ff808216151560808401526101008083048216151560a08501526201000090920416151560c0830152600583015460e083015260068301549082015260078201546101208201526008820154610140820152600982018054919291610160840191906172239061ab80565b80601f016020809104026020016040519081016040528092919081815260200182805461724f9061ab80565b801561729c5780601f106172715761010080835404028352916020019161729c565b820191906000526020600020905b81548152906001019060200180831161727f57829003601f168201915b5050509183525050600a8201546020820152600b82015460409091019060ff16600381111561221c57634e487b7160e01b600052602160045260246000fd5b6172e36124af565b6172eb618c6f565b60005b602960009054906101000a90046001600160a01b03166001600160a01b0316637d630cb06040518163ffffffff1660e01b815260040160206040518083038186803b15801561733c57600080fd5b505afa158015617350573d6000803e3d6000fd5b505050506040513d601f19601f820116820180604052508101906173749190619398565b8110156175aa5760215460009081526014602052604081206004015462010000900460ff16151560011480156173cd57506173b0602154611580565b806173cd5750602154600090815260146020526040902060030154155b156173f2576173dd602154612dba565b6021546173eb906001618702565b6021555060015b60225460009081526014602052604090206004015462010000900460ff1615156001148015906174a95750602960009054906101000a90046001600160a01b03166001600160a01b031663bd40ef4c6040518163ffffffff1660e01b815260040160206040518083038186803b15801561746b57600080fd5b505afa15801561747f573d6000803e3d6000fd5b505050506040513d601f19601f820116820180604052508101906174a39190619398565b601a5410155b80156174c9575060225460009081526014602052604090206004015460ff165b80156174de57506174d8615bdd565b601d5414155b801561757b5750602960009054906101000a90046001600160a01b03166001600160a01b031663c4a306f86040518163ffffffff1660e01b815260040160206040518083038186803b15801561753357600080fd5b505afa158015617547573d6000803e3d6000fd5b505050506040513d601f19601f8201168201806040525081019061756b9190619398565b600154617578904261ab3d565b10155b1561758c5761758861271b565b5060015b8061759757506175aa565b50806175a28161abbb565b9150506172ee565b506145b7618403565b6060600082116175d55760405162461bcd60e51b8152600401610e0a90619fae565b6000826001600160401b038111156175fd57634e487b7160e01b600052604160045260246000fd5b604051908082528060200260200182016040528015617626578160200160208202803683370190505b50905060006176376161c083618a72565b949350505050565b606061764a8261808a565b61765357600080fd5b6000828152601460205260409020600901805461766f9061ab80565b80601f016020809104026020016040519081016040528092919081815260200182805461769b9061ab80565b8015611fe35780601f106176bd57610100808354040283529160200191611fe3565b820191906000526020600020905b8154815290600101906020018083116176cb5750939695505050505050565b6001600160a01b031660009081526015602052604090206005015460ff1690565b600061772f61771933614544565b336000908152601760205260409020549061883e565b9050818110156177515760405162461bcd60e51b8152600401610e0a9061a319565b6029546040805163ca64f9e760e01b815290516000926001600160a01b03169163ca64f9e7916004808301926020929190829003018186803b15801561779657600080fd5b505afa1580156177aa573d6000803e3d6000fd5b505050506040513d601f19601f820116820180604052508101906177ce91906190cd565b604051630895993360e11b81529091506001600160a01b0382169063112b3266906177ff908690339060040161a97b565b602060405180830381600087803b15801561781957600080fd5b505af115801561782d573d6000803e3d6000fd5b505050506040513d601f19601f8201168201806040525081019061785191906192be565b61786d5760405162461bcd60e51b8152600401610e0a9061a5c7565b336000908152601760205260408120805485929061788c90849061ab3d565b909155505060405133907ffaeb7dbb9992397d26ea1944efd40c80b40f702faf69b46c67ad10aba68ccb79906178c39086906195c8565b60405180910390a2505050565b60275481565b60606178e18261808a565b6178fd5760405162461bcd60e51b8152600401610e0a9061a395565b600082815260146020908152604080832081516101c0810183528154815260018201549381019390935260028101549183019190915260038101546060830152600481015460ff808216151560808501526101008083048216151560a08601526201000090920416151560c0840152600582015460e084015260068201549083015260078101546101208301526008810154610140830152600981018054610160840191906179ab9061ab80565b80601f01602080910402602001604051908101604052809291908181526020018280546179d79061ab80565b8015617a245780601f106179f957610100808354040283529160200191617a24565b820191906000526020600020905b815481529060010190602001808311617a0757829003601f168201915b5050509183525050600a8201546020820152600b82015460409091019060ff166003811115617a6357634e487b7160e01b600052602160045260246000fd5b6003811115617a8257634e487b7160e01b600052602160045260246000fd5b90525060208101519091506000816001600160401b03811115617ab557634e487b7160e01b600052604160045260246000fd5b604051908082528060200260200182016040528015617ae857816020015b6060815260200190600190039081617ad35790505b50905060005b82811015611577578351600090617b0690839061aaf2565b600081815260136020526040812080549293509091617b249061ab80565b80601f0160208091040260200160405190810160405280929190818152602001828054617b509061ab80565b8015617b9d5780601f10617b7257610100808354040283529160200191617b9d565b820191906000526020600020905b815481529060010190602001808311617b8057829003601f168201915b5050505050905080848481518110617bc557634e487b7160e01b600052603260045260246000fd5b602002602001018190525050508080617bdd9061abbb565b915050617aee565b60215481565b60235481565b617bf9618177565b6001600160a01b0316617c0a615432565b6001600160a01b031614617c305760405162461bcd60e51b8152600401610e0a9061a0c9565b6001600160a01b038116617c565760405162461bcd60e51b8152600401610e0a90619a95565b611699816187ee565b600082826040516020016156fc9291906197b9565b60235490565b3360009081526015602090815260409182902060295483516398a54e2b60e01b8152935191936001600160a01b03909116926398a54e2b92600480840193829003018186803b158015617ccc57600080fd5b505afa158015617ce0573d6000803e3d6000fd5b505050506040513d601f19601f82011682018060405250810190617d049190619398565b601b54601a54617d14919061aaf2565b10617d315760405162461bcd60e51b8152600401610e0a9061a4a3565b600581015460ff1615617d565760405162461bcd60e51b8152600401610e0a90619885565b602960009054906101000a90046001600160a01b03166001600160a01b0316639fb491f66040518163ffffffff1660e01b815260040160206040518083038186803b158015617da457600080fd5b505afa158015617db8573d6000803e3d6000fd5b505050506040513d601f19601f82011682018060405250810190617ddc9190619398565b816003015410158015617e815750602960009054906101000a90046001600160a01b03166001600160a01b0316630f1f0ffe6040518163ffffffff1660e01b815260040160206040518083038186803b158015617e3857600080fd5b505afa158015617e4c573d6000803e3d6000fd5b505050506040513d601f19601f82011682018060405250810190617e709190619398565b6006820154617e7f904261ab3d565b105b15617e9e5760405162461bcd60e51b8152600401610e0a9061a4e5565b602954604080516001624ee91360e11b0319815290516000926001600160a01b03169163ff622dda916004808301926020929190829003018186803b158015617ee657600080fd5b505afa158015617efa573d6000803e3d6000fd5b505050506040513d601f19601f82011682018060405250810190617f1e9190619398565b90506000617f2c3383614f4f565b6001600160a01b038116600090815260176020526040902054909150821115617f81576001600160a01b038116600090815260176020526040812054617f7390849061883e565b9050617f7f818361884a565b505b33600090815260176020526040902054821115617fb05760405162461bcd60e51b8152600401610e0a90619e4f565b617fb93361877e565b61800057601a80546001810182556000919091527f057c384a7d1c54f3a1b2e5e67b2617b8224fdfd1ea7234eea573a6ff665ff63e0180546001600160a01b031916331790555b82546001600160a01b0319163317835560058301805460ff191660019081179091554260068501556000600385018190556023805490919061804390849061aaf2565b909155506180519050618403565b336001600160a01b03167f439d77b7534ec3108fc6143bd4fbabde0b9f2bb54f7b0730d1f70dd2135b765f426040516178c391906195c8565b602054101590565b3360009081526015602052604090206005015460ff1690565b60255490565b6028546001600160a01b031681565b6001600160a01b03908116600090815260156020908152604091829020825161014081018452815490941684526001810154918401829052600281015460ff90811615159385019390935260038101546060850152600481015460808501526005810154808416151560a086015261010090819004909316151560c0850152600681015460e08501526007810154928401929092526008909101546101209092019190915290565b6029546001600160a01b031681565b3390565b60008060005b601a548110156181ef57836001600160a01b0316601a82815481106181b657634e487b7160e01b600052603260045260246000fd5b6000918252602090912001546001600160a01b031614156181dd57600191508092506181ef565b806181e78161abbb565b915050618181565b5080156182ce57601a80546182069060019061ab3d565b8154811061822457634e487b7160e01b600052603260045260246000fd5b600091825260209091200154601a80546001600160a01b03909216918490811061825e57634e487b7160e01b600052603260045260246000fd5b9060005260206000200160006101000a8154816001600160a01b0302191690836001600160a01b03160217905550601a8054806182ab57634e487b7160e01b600052603160045260246000fd5b600082815260209020810160001990810180546001600160a01b03191690550190555b505050565b60008060005b601b5481101561834757836001600160a01b0316601b828154811061830e57634e487b7160e01b600052603260045260246000fd5b6000918252602090912001546001600160a01b031614156183355760019150809250618347565b8061833f8161abbb565b9150506182d9565b5080156182ce57601b805461835e9060019061ab3d565b8154811061837c57634e487b7160e01b600052603260045260246000fd5b600091825260209091200154601b80546001600160a01b0390921691849081106183b657634e487b7160e01b600052603260045260246000fd5b9060005260206000200160006101000a8154816001600160a01b0302191690836001600160a01b03160217905550601b8054806182ab57634e487b7160e01b600052603160045260246000fd5b60295460408051632abe0d5f60e11b815290516000926001600160a01b03169163557c1abe916004808301926020929190829003018186803b15801561844857600080fd5b505afa925050508015618478575060408051601f3d908101601f19168201909252618475918101906190cd565b60015b6184d7573d8080156184a6576040519150601f19603f3d011682016040523d82523d6000602084013e6184ab565b606091505b5060008051602061ac42833981519152816040516184c99190619706565b60405180910390a1506184d9565b505b602960009054906101000a90046001600160a01b03166001600160a01b031663557c1abe6040518163ffffffff1660e01b815260040160206040518083038186803b15801561852757600080fd5b505afa15801561853b573d6000803e3d6000fd5b505050506040513d601f19601f8201168201806040525081019061855f91906190cd565b90506001600160a01b0381166185875760405162461bcd60e51b8152600401610e0a90619c87565b6000816001600160a01b0316336040516024016185a491906195fb565b60408051601f198184030181529181526020820180516001600160e01b0316631f5ac9c560e11b179052516185d991906195d1565b6000604051808303816000865af19150503d8060008114618616576040519150601f19603f3d011682016040523d82523d6000602084013e61861b565b606091505b505090506000826001600160a01b03163360405160240161863c91906195fb565b60408051601f198184030181529181526020820180516001600160e01b03166358563d2160e01b1790525161867191906195d1565b6000604051808303816000865af19150503d80600081146186ae576040519150601f19603f3d011682016040523d82523d6000602084013e6186b3565b606091505b5050905081806186c05750805b6182ce5760405162461bcd60e51b8152600401610e0a9061990d565b60008183106186eb5781611832565b5090919050565b6000818310156186eb5781611832565b6000611832828461aaf2565b600080805b601b54811015615dad57836001600160a01b0316601b828154811061874857634e487b7160e01b600052603260045260246000fd5b6000918252602090912001546001600160a01b0316141561876c5760019150615dad565b806187768161abbb565b915050618713565b600080805b601a54811015615dad57836001600160a01b0316601a82815481106187b857634e487b7160e01b600052603260045260246000fd5b6000918252602090912001546001600160a01b031614156187dc5760019150615dad565b806187e68161abbb565b915050618783565b600080546001600160a01b038381166001600160a01b0319831681178455604051919092169283917f8be0079c531659141344cd1fd0a4f28419497f9722a3daafe3b4186f6b6457e09190a35050565b6000611832828461ab3d565b6029546040805163ca64f9e760e01b815290516000926001600160a01b03169163ca64f9e7916004808301926020929190829003018186803b15801561888f57600080fd5b505afa1580156188a3573d6000803e3d6000fd5b505050506040513d601f19601f820116820180604052508101906188c791906190cd565b6001600160a01b031614156188ee5760405162461bcd60e51b8152600401610e0a9061a1f2565b6029546040805163ca64f9e760e01b815290516000926001600160a01b03169163ca64f9e7916004808301926020929190829003018186803b15801561893357600080fd5b505afa158015618947573d6000803e3d6000fd5b505050506040513d601f19601f8201168201806040525081019061896b91906190cd565b6040516304ada21f60e21b81529091506001600160a01b038216906312b6887c9061899c908690869060040161a97b565b602060405180830381600087803b1580156189b657600080fd5b505af11580156189ca573d6000803e3d6000fd5b505050506040513d601f19601f820116820180604052508101906189ee91906192be565b618a0a5760405162461bcd60e51b8152600401610e0a90619d03565b6001600160a01b03821660009081526017602052604081208054859290618a3290849061aaf2565b92505081905550816001600160a01b03167f5aa5d56140767016c877a5333ac3e1ad31a09051098a8fdf7297c4b64530a942846040516178c391906195c8565b805160609060005b81811015618ac05780848281518110618aa357634e487b7160e01b600052603260045260246000fd5b602090810291909101015280618ab88161abbb565b915050618a7a565b509192915050565b60606000825111618aeb5760405162461bcd60e51b8152600401610e0a90619bfd565b81518060005b81811015618c6657600083618b04615bdd565b878481518110618b2457634e487b7160e01b600052603260045260246000fd5b6020026020010151604051602001618b3d9291906195ed565b6040516020818303038152906040528051906020012060001c618b60919061abd6565b618b6b90600161aaf2565b9050600086618b7b60018461ab3d565b81518110618b9957634e487b7160e01b600052603260045260246000fd5b6020026020010151905086600186618bb1919061ab3d565b81518110618bcf57634e487b7160e01b600052603260045260246000fd5b602002602001015187600184618be5919061ab3d565b81518110618c0357634e487b7160e01b600052603260045260246000fd5b60209081029190910101528087618c1b60018861ab3d565b81518110618c3957634e487b7160e01b600052603260045260246000fd5b6020908102919091010152618c4f60018661ab3d565b945050508080618c5e9061abbb565b915050618af1565b50929392505050565b6000601f54602154618c81919061ab3d565b9050602960009054906101000a90046001600160a01b03166001600160a01b031663e3115d3c6040518163ffffffff1660e01b815260040160206040518083038186803b158015618cd157600080fd5b505afa158015618ce5573d6000803e3d6000fd5b505050506040513d601f19601f82011682018060405250810190618d099190619398565b8111156116995760005b602954604080516307d630cb60e41b81529051618d97926001600160a01b031691637d630cb0916004808301926020929190829003018186803b158015618d5957600080fd5b505afa158015618d6d573d6000803e3d6000fd5b505050506040513d601f19601f82011682018060405250810190618d919190619398565b836186dc565b81101561266457601f5460009081526014602052604081208054600190910154909190618dc4908361aaf2565b9050815b81811015618deb57618dd981611d0b565b80618de38161abbb565b915050618dc8565b50618df7601f54612668565b601f546040517f72c2fcc891fe835b86fc8bb9abdc52adf52499c52289b3c49e1461eabea2717590600090a250508080618e309061abbb565b915050618d13565b508054618e449061ab80565b6000825580601f10618e565750611699565b601f0160209004906000526020600020908101906116999190618fea565b6040518060e001604052806060815260200160006001600160a01b031681526020016000815260200160008152602001606081526020016060815260200160006003811115618ed357634e487b7160e01b600052602160045260246000fd5b905290565b828054618ee49061ab80565b90600052602060002090601f016020900481019282618f065760008555618f4c565b82601f10618f1f57805160ff1916838001178555618f4c565b82800160010185558215618f4c579182015b82811115618f4c578251825591602001919060010190618f31565b50618f58929150618fea565b5090565b604051806101c001604052806000815260200160008152602001600081526020016000815260200160001515815260200160001515815260200160001515815260200160008152602001600081526020016000815260200160008152602001606081526020016000815260200160006003811115618ed357634e487b7160e01b600052602160045260246000fd5b5b80821115618f585760008155600101618feb565b60008083601f840112619010578182fd5b5081356001600160401b03811115619026578182fd5b602083019150836020808302850101111561904057600080fd5b9250929050565b600082601f830112619057578081fd5b81356001600160401b038111156190705761907061ac16565b619083601f8201601f191660200161aa9a565b818152846020838601011115619097578283fd5b816020850160208301379081016020019190915292915050565b6000602082840312156190c2578081fd5b81356118328161ac2c565b6000602082840312156190de578081fd5b81516118328161ac2c565b600080604083850312156190fb578081fd5b82356191068161ac2c565b946020939093013593505050565b600080600060608486031215619128578081fd5b83356191338161ac2c565b95602085013595506040909401359392505050565b60008060008060006080868803121561915f578081fd5b85356001600160401b0380821115619175578283fd5b818801915088601f830112619188578283fd5b8135602061919d6191988361aac3565b61aa9a565b82815281810190858301875b858110156191d2576191c08f8684358b0101619047565b845292840192908401906001016191a9565b50909a505050890135925050808211156191ea578283fd5b6191f689838a01618fff565b9096509450604088013593506060880135915080821115619215578283fd5b5061922288828901619047565b9150509295509295909350565b60006020808385031215619241578182fd5b82356001600160401b03811115619256578283fd5b8301601f81018513619266578283fd5b80356192746191988261aac3565b8181528381019083850185840285018601891015619290578687fd5b8694505b838510156192b2578035835260019490940193918501918501619294565b50979650505050505050565b6000602082840312156192cf578081fd5b81518015158114611832578182fd5b600080604083850312156192f0578182fd5b82356001600160401b0380821115619306578384fd5b61931286838701619047565b93506020850135915080821115619327578283fd5b5061933485828601619047565b9150509250929050565b60008060408385031215619350578182fd5b82356001600160401b03811115619365578283fd5b61937185828601619047565b95602094909401359450505050565b600060208284031215619391578081fd5b5035919050565b600060208284031215611960578081fd5b600080604083850312156193bb578182fd5b8235915060208301356193cd8161ac2c565b809150509250929050565b600080600080600060a086880312156193ef578283fd5b8535945060208601359350604086013592506060860135915060808601356001600160401b03811115619420578182fd5b61922288828901619047565b60008060008060808587031215619441578182fd5b8435935060208501356001600160401b0381111561945d578283fd5b61946987828801619047565b949794965050505060408301359260600135919050565b60008060408385031215619492578182fd5b50508035926020909101359150565b600080600080608085870312156194b6578182fd5b843593506020850135925060408501356194cf8161ac2c565b9396929550929360600135925050565b15159052565b600081518084526194fd81602086016020860161ab54565b601f01601f19169290920160200192915050565b6004811061952f57634e487b7160e01b600052602160045260246000fd5b9052565b600a815269636f6d6d6974566f746560b01b602082015260400190565b600a8152690c6dedadad2e890c2e6d60b31b602082015260400190565b60098152686e756d546f6b656e7360b81b602082015260400190565b60609190911b6bffffffffffffffffffffffff1916815260140190565b60609290921b6bffffffffffffffffffffffff19168252601482015260340190565b90815260200190565b600082516195e381846020870161ab54565b9190910192915050565b918252602082015260400190565b6001600160a01b0391909116815260200190565b6001600160a01b039a909a168a5260208a0198909852951515604089015260608801949094526080870192909252151560a0860152151560c085015260e08401526101008301526101208201526101400190565b6000602080830181845280855180835260408601915060408482028701019250838701855b828110156196b657603f198886030184526196a48583516194e5565b94509285019290850190600101619688565b5092979650505050505050565b6020808252825182820181905260009190848201906040850190845b8181101561539f578351835292840192918401916001016196df565b901515815260200190565b60006020825261183260208301846194e5565b600060e0825261972c60e083018a6194e5565b6001600160a01b03891660208401526040830188905260608301879052828103608084015261975b81876194e5565b905082810360a084015261976f81866194e5565b91505061977f60c0830184619511565b98975050505050505050565b60006040825261979e60408301856194e5565b82810360208401526197b081856194e5565b95945050505050565b6000604082526197cc60408301856194e5565b90508260208301529392505050565b60006020808352818454836002820490506001808316806197fd57607f831692505b85831081141561981b57634e487b7160e01b87526022600452602487fd5b61982783878a016195c8565b81801561983b576001811461984c57619876565b60ff19861682528782019650619876565b6198558b61aae6565b895b8681101561987057815484820152908501908901619857565b83019750505b50949998505050505050505050565b6020808252601c908201527f576f726b657220697320616c7265616479207265676973746572656400000000604082015260600190565b60208082526031908201527f676976656e204461746142617463682073686f756c6420626520415050524f5660408201527011510b08185b99081a5d081a5cc81b9bdd607a1b606082015260800190565b60208082526025908201527f72656365697665722072656a6563746564205f7265747269657665534675656c6040820152640818d85b1b60da1b606082015260800190565b6020808252602f908201527f636f6d6d697420706572696f64206e6565647320746f206265206f70656e206660408201526e1bdc881d1a1a5cc818985d18da1259608a1b606082015260800190565b60208082526052908201527f4e6f74207468652073616d6520766f7465207468616e20636f6d6d697465642c60408201527f20696d706f737369626c6520746f206d61746368207769746820676976656e206060820152715f73616c742026205f636c656172566f746560701b608082015260a00190565b60208082526056908201527f4e6f74207468652073616d652068617368207468616e20636f6d6d697465642c60408201527f20696d706f737369626c6520746f206d61746368207769746820676976656e206060820152750bee6c2d8e8404c40bec6d8cac2e492a08ca690c2e6d60531b608082015260a00190565b60208082526026908201527f4f776e61626c653a206e6577206f776e657220697320746865207a65726f206160408201526564647265737360d01b606082015260800190565b60208082526029908201527f6b206f72204e20617265206e6f74204f4b20647572696e672072616e646f6d2060408201526839b2b632b1ba34b7b760b91b606082015260800190565b6020808252602a908201527f4661696c20647572696e6720616c6c6f636174696f6e3a206e6f7420656e6f75604082015269676820776f726b65727360b01b606082015260800190565b60208082526023908201527f5265776172644d616e61676572206973206e756c6c20696e20506172616d657460408201526265727360e81b606082015260800190565b6020808252602c908201527f436f6d706c69616e636553797374656d206e756c6c20696e20506172616d657460408201526b195c9cc810dbdb9d1c9858dd60a21b606082015260800190565b60208082526013908201527205f6d7941727261792e6c656e677468203e203606c1b604082015260600190565b60208082526038908201527f55736572206e6565647320746f20626520616c6c6f636174656420746f20746860408201527f697320626174636820746f20636f6d6d6974206f6e2069740000000000000000606082015260800190565b6020808252601d908201527f734675656c3a206e756c6c2041646472657373204e6f742056616c6964000000604082015260600190565b60208082526025908201527f636f756c64206e6f74207265776172642052455020696e2056616c69646174656040820152642c20312e6160d81b606082015260800190565b6020808252603f908201527f436f756c64206e6f74207265717565737420656e6f75676820616c6c6f63617460408201527f6564207374616b652c2072657175657374416c6c6f63617465645374616b6500606082015260800190565b6020808252602f908201527f5573657220686173206e6f7420636f6d6d69746564206265666f72652c20746860408201526e1d5cc818d85b89dd081c995d99585b608a1b606082015260800190565b6020808252602a908201527f53706f7474696e67206973206e6f742063757272656e746c7920656e61626c656040820152693210313c9027bbb732b960b11b606082015260800190565b60208082526036908201527f476c6f62616c206c696d69743a206578636565646564206d61782064617461206040820152753832b9103437bab916103932ba393c903630ba32b91760511b606082015260800190565b60208082526043908201527f576f726b657220686173206e6f7420656e6f75676820285f6e756d546f6b656e60408201527f732920696e206869732053797374656d5374616b6564546f6b656e42616c616e606082015262031b2960ed1b608082015260a00190565b60208082526039908201527f646c6c4d61703a20646f6573206e6f7420636f696e7461696e205f446174614260408201527f61746368496420666f7220746865206d73672073656e64657200000000000000606082015260800190565b6020808252602b908201527f75736572206d75737420686176652072657665616c656420696e20746869732060408201526a0ced2eccadc4084c2e8c6d60ab1b606082015260800190565b6020808252602e908201527f636f756c64206e6f74207265776172642052455020696e2056616c696461746560408201526d4461746142617463682c20322e6160901b606082015260800190565b60208082526005908201526404e203e20360dc1b604082015260600190565b6020808252601490820152733737ba1030903b30b634b2103837b9b4ba34b7b760611b604082015260600190565b6020808252603b908201527f43616e277420616c6c6f6361746520776f726b2c207468652063757272656e7460408201527f20626174636820697320616c726561647920616c6c6f63617465640000000000606082015260800190565b6020808252602c908201527f576f726b6572206973206e6f74207265676973746572656420736f2063616e2760408201526b3a103ab73932b3b4b9ba32b960a11b606082015260800190565b6020808252600b908201526a04e5f72616e6765203e20360ac1b604082015260600190565b6020808252818101527f4f776e61626c653a2063616c6c6572206973206e6f7420746865206f776e6572604082015260600190565b60208082526030908201527f636f756c64206e6f742072657761726420746f6b656e20696e2056616c69646160408201526f3a32a230ba30a130ba31b4161019173160811b606082015260800190565b6020808252603a908201527f5f446174614261746368496420686173206e6f7420656e6465642c206f72206e60408201527f6f7420657665727920766f74657273206861766520766f746564000000000000606082015260800190565b60208082526027908201527f636f756c64206e6f742072657761726420746f6b656e20696e2056616c6964616040820152663a32961018973160c91b606082015260800190565b60208082526022908201527f5374616b654d616e61676572206973206e756c6c20696e20506172616d657465604082015261727360f01b606082015260800190565b60208082526029908201527f6765744e756d50617373696e67546f6b656e733a20686173686573206d75737460408201526808189948195c5d585b60ba1b606082015260800190565b60208082526036908201527f43616e277420616c6c6f6361746520776f726b2c207468652063757272656e74604082015275206261746368206973206e6f7420636f6d706c65746560501b606082015260800190565b60208082526026908201527f52657665616c20706572696f64206e6f74206f70656e20666f7220746869732060408201526511185d18525160d21b606082015260800190565b60208082526027908201527f617661696c61626c65546f6b656e732073686f756c64206265203e3d205f6e756040820152666d546f6b656e7360c81b606082015260800190565b6020808252818101527f5265704d616e61676572206973206e756c6c20696e20506172616d6574657273604082015260600190565b60208082526017908201527f5f4461746142617463684964206d757374206578697374000000000000000000604082015260600190565b60208082526021908201527f5f446174614261746368496420697320616c72656164792076616c69646174656040820152601960fa1b606082015260800190565b6020808252602d908201527f53706f7474696e673a20696e70757420617272617973206d757374206265206f60408201526c0cc40e6c2daca40d8cadccee8d609b1b606082015260800190565b60208082526029908201527f557365722068617320616c726561647920636f6d6d6974656420746f207468696040820152681cc818985d18da125960ba1b606082015260800190565b60208082526022908201527f4d6178696d756d207265676973746572656420776f726b65727320616c726561604082015261647960f01b606082015260800190565b6020808252606c908201527f5573657220686173206e6f7420766f746564206d616e792074696d657320696e60408201527f206120726f7720616e64206e6565647320746f2077616974204e4f564f54455f60608201527f524547495354524154494f4e5f574149545f4455524154494f4e20746f20726560808201526b33b4b9ba32b91030b3b0b4b760a11b60a082015260c00190565b6020808252602a908201527f5f446174614261746368496420636865636b696e6720766f7465206d757374206040820152691a185d9948195b99195960b21b606082015260800190565b6020808252603b908201527f436f756c64206e6f74207769746864726177566f74696e67526967687473207460408201527f68726f7567682050726f78795374616b654465616c6c6f636174650000000000606082015260800190565b60208082526024908201527f416464726573734d616e61676572206973206e756c6c20696e20506172616d656040820152637465727360e01b606082015260800190565b60208082526034908201527f55736572206c696d69743a206578636565646564206d6178206461746120706560408201527339103437bab916103932ba393c903630ba32b91760611b606082015260800190565b6020808252600f908201526e11185d18481b5d5cdd08195e1a5cdd608a1b604082015260600190565b6020808252602c908201527f557365722068617320616c72656164792072657665616c65642c20746875732060408201526b18d85b89dd081c995d99585b60a21b606082015260800190565b60006020825282516020830152602083015160408301526040830151606083015260608301516080830152608083015161a76e60a08401826194df565b5060a083015161a78160c08401826194df565b5060c083015161a79460e08401826194df565b5060e0830151610100838101919091528301516101208084019190915283015161014080840191909152830151610160808401919091528301516101c061018080850182905261a7e86101e08601846194e5565b908601516101a086810191909152860151909250616ec682860182619511565b60008382528260208301526060604083015261763760608301619533565b60008482528360208301526080604083015261a84460808301619533565b9050826060830152949350505050565b60008382528260208301526060604083015261763760608301619550565b60008482528360208301526080604083015261a84460808301619550565b6000838252826020830152606060408301526176376060830161956d565b60008482528360208301526080604083015261a8446080830161956d565b93845260208401929092526040830152606082015260800190565b600060208252825160e0602084015261a9046101008401826194e5565b905060018060a01b03602085015116604084015260408401516060840152606084015160808401526080840151601f19808584030160a086015261a94883836194e5565b925060a08601519150808584030160c08601525061a96682826194e5565b91505060c0840151610f7660e0850182619511565b9182526001600160a01b0316602082015260400190565b9182526001600160a01b031660208201526000604082015260600190565b9283526020830191909152604082015260600190565b60008f82528e60208301528d60408301528c60608301528b151560808301528a151560a083015261a9fa60c083018b6194df565b8860e08301528761010083015286610120830152856101408301526101c061016083015261aa2c6101c08301866194e5565b90508361018083015261aa436101a0830184619511565b9f9e505050505050505050505050505050565b6000808335601e1984360301811261aa6c578283fd5b8301803591506001600160401b0382111561aa85578283fd5b60200191503681900382131561904057600080fd5b6040518181016001600160401b038111828210171561aabb5761aabb61ac16565b604052919050565b60006001600160401b0382111561aadc5761aadc61ac16565b5060209081020190565b60009081526020902090565b6000821982111561ab055761ab0561abea565b500190565b60008261ab195761ab1961ac00565b500490565b600081600019048311821515161561ab385761ab3861abea565b500290565b60008282101561ab4f5761ab4f61abea565b500390565b60005b8381101561ab6f57818101518382015260200161ab57565b83811115611f7d5750506000910152565b60028104600182168061ab9457607f821691505b6020821081141561abb557634e487b7160e01b600052602260045260246000fd5b50919050565b600060001982141561abcf5761abcf61abea565b5060010190565b60008261abe55761abe561ac00565b500690565b634e487b7160e01b600052601160045260246000fd5b634e487b7160e01b600052601260045260246000fd5b634e487b7160e01b600052604160045260246000fd5b6001600160a01b038116811461169957600080fdfe4b87bbd93ba65ede1e2efeca735d9f7a6720bf7d6db0a8355b17dba5b64e5783a264697066735822122025a411d682b85e440c97a890651bec3546e30f5ec69cf367372d39e80108cd6364736f6c63430008000033",
  "linkReferences": {
    "contracts/worksystems/DataSpotting.sol": {
      "AttributeStore": [
        {
          "length": 20,
          "start": 18343
        },
        {
          "length": 20,
          "start": 20060
        },
        {
          "length": 20,
          "start": 20166
        },
        {
          "length": 20,
          "start": 20274
        },
        {
          "length": 20,
          "start": 24057
        },
        {
          "length": 20,
          "start": 28439
        }
      ],
      "DLL": [
        {
          "length": 20,
          "start": 6245
        },
        {
          "length": 20,
          "start": 6417
        },
        {
          "length": 20,
          "start": 6979
        },
        {
          "length": 20,
          "start": 19580
        },
        {
          "length": 20,
          "start": 19742
        },
        {
          "length": 20,
          "start": 19937
        },
        {
          "length": 20,
          "start": 22094
        },
        {
          "length": 20,
          "start": 22274
        },
        {
          "length": 20,
          "start": 23260
        }
      ]
    }
  },
  "deployedLinkReferences": {
    "contracts/worksystems/DataSpotting.sol": {
      "AttributeStore": [
        {
          "length": 20,
          "start": 17988
        },
        {
          "length": 20,
          "start": 19705
        },
        {
          "length": 20,
          "start": 19811
        },
        {
          "length": 20,
          "start": 19919
        },
        {
          "length": 20,
          "start": 23702
        },
        {
          "length": 20,
          "start": 28084
        }
      ],
      "DLL": [
        {
          "length": 20,
          "start": 5890
        },
        {
          "length": 20,
          "start": 6062
        },
        {
          "length": 20,
          "start": 6624
        },
        {
          "length": 20,
          "start": 19225
        },
        {
          "length": 20,
          "start": 19387
        },
        {
          "length": 20,
          "start": 19582
        },
        {
          "length": 20,
          "start": 21739
        },
        {
          "length": 20,
          "start": 21919
        },
        {
          "length": 20,
          "start": 22905
        }
      ]
    }
  }
}