{
  "_format": "hh-sol-artifact-1",
  "contractName": "DataSpotting",
  "sourceName": "contracts/worksystems/DataSpotting.sol",
  "abi": [
    {
      "inputs": [
        {
          "internalType": "address",
          "name": "EXDT_token_",
          "type": "address"
        }
      ],
      "stateMutability": "nonpayable",
      "type": "constructor"
    },
    {
      "anonymous": false,
      "inputs": [
        {
          "indexed": false,
          "internalType": "bytes",
          "name": "bytesFailure",
          "type": "bytes"
        }
      ],
      "name": "BytesFailure",
      "type": "event"
    },
    {
      "anonymous": false,
      "inputs": [
        {
          "indexed": true,
          "internalType": "address",
          "name": "previousOwner",
          "type": "address"
        },
        {
          "indexed": true,
          "internalType": "address",
          "name": "newOwner",
          "type": "address"
        }
      ],
      "name": "OwnershipTransferred",
      "type": "event"
    },
    {
      "anonymous": false,
      "inputs": [
        {
          "indexed": true,
          "internalType": "uint256",
          "name": "batchID",
          "type": "uint256"
        }
      ],
      "name": "_DataBatchDeleted",
      "type": "event"
    },
    {
      "anonymous": false,
      "inputs": [
        {
          "indexed": false,
          "internalType": "string",
          "name": "hash",
          "type": "string"
        },
        {
          "indexed": true,
          "internalType": "address",
          "name": "creator",
          "type": "address"
        }
      ],
      "name": "_SpotAccepted",
      "type": "event"
    },
    {
      "anonymous": false,
      "inputs": [
        {
          "indexed": true,
          "internalType": "uint256",
          "name": "DataID",
          "type": "uint256"
        },
        {
          "indexed": false,
          "internalType": "uint256",
          "name": "numTokens",
          "type": "uint256"
        },
        {
          "indexed": true,
          "internalType": "address",
          "name": "voter",
          "type": "address"
        }
      ],
      "name": "_SpotCheckCommitted",
      "type": "event"
    },
    {
      "anonymous": false,
      "inputs": [
        {
          "indexed": true,
          "internalType": "uint256",
          "name": "DataID",
          "type": "uint256"
        },
        {
          "indexed": false,
          "internalType": "uint256",
          "name": "numTokens",
          "type": "uint256"
        },
        {
          "indexed": false,
          "internalType": "uint256",
          "name": "votesFor",
          "type": "uint256"
        },
        {
          "indexed": false,
          "internalType": "uint256",
          "name": "votesAgainst",
          "type": "uint256"
        },
        {
          "indexed": true,
          "internalType": "uint256",
          "name": "choice",
          "type": "uint256"
        },
        {
          "indexed": true,
          "internalType": "address",
          "name": "voter",
          "type": "address"
        }
      ],
      "name": "_SpotCheckRevealed",
      "type": "event"
    },
    {
      "anonymous": false,
      "inputs": [
        {
          "indexed": true,
          "internalType": "uint256",
          "name": "DataID",
          "type": "uint256"
        },
        {
          "indexed": false,
          "internalType": "string",
          "name": "file_hash",
          "type": "string"
        },
        {
          "indexed": false,
          "internalType": "string",
          "name": "URL_domain",
          "type": "string"
        },
        {
          "indexed": true,
          "internalType": "address",
          "name": "sender",
          "type": "address"
        }
      ],
      "name": "_SpotSubmitted",
      "type": "event"
    },
    {
      "anonymous": false,
      "inputs": [
        {
          "indexed": false,
          "internalType": "uint256",
          "name": "numTokens",
          "type": "uint256"
        },
        {
          "indexed": true,
          "internalType": "address",
          "name": "voter",
          "type": "address"
        }
      ],
      "name": "_StakeAllocated",
      "type": "event"
    },
    {
      "anonymous": false,
      "inputs": [
        {
          "indexed": true,
          "internalType": "uint256",
          "name": "DataID",
          "type": "uint256"
        },
        {
          "indexed": true,
          "internalType": "address",
          "name": "voter",
          "type": "address"
        }
      ],
      "name": "_TokensRescued",
      "type": "event"
    },
    {
      "anonymous": false,
      "inputs": [
        {
          "indexed": false,
          "internalType": "uint256",
          "name": "numTokens",
          "type": "uint256"
        },
        {
          "indexed": true,
          "internalType": "address",
          "name": "voter",
          "type": "address"
        }
      ],
      "name": "_VotingRightsWithdrawn",
      "type": "event"
    },
    {
      "anonymous": false,
      "inputs": [
        {
          "indexed": true,
          "internalType": "uint256",
          "name": "batchID",
          "type": "uint256"
        },
        {
          "indexed": false,
          "internalType": "address",
          "name": "worker",
          "type": "address"
        }
      ],
      "name": "_WorkAllocated",
      "type": "event"
    },
    {
      "anonymous": false,
      "inputs": [
        {
          "indexed": true,
          "internalType": "address",
          "name": "worker",
          "type": "address"
        },
        {
          "indexed": false,
          "internalType": "uint256",
          "name": "timestamp",
          "type": "uint256"
        }
      ],
      "name": "_WorkerRegistered",
      "type": "event"
    },
    {
      "anonymous": false,
      "inputs": [
        {
          "indexed": true,
          "internalType": "address",
          "name": "worker",
          "type": "address"
        },
        {
          "indexed": false,
          "internalType": "uint256",
          "name": "timestamp",
          "type": "uint256"
        }
      ],
      "name": "_WorkerUnregistered",
      "type": "event"
    },
    {
      "inputs": [],
      "name": "AcceptedBatchsCounter",
      "outputs": [
        {
          "internalType": "uint256",
          "name": "",
          "type": "uint256"
        }
      ],
      "stateMutability": "view",
      "type": "function"
    },
    {
      "inputs": [],
      "name": "AllTxsCounter",
      "outputs": [
        {
          "internalType": "uint256",
          "name": "",
          "type": "uint256"
        }
      ],
      "stateMutability": "view",
      "type": "function"
    },
    {
      "inputs": [],
      "name": "AllocatedBatchCursor",
      "outputs": [
        {
          "internalType": "uint256",
          "name": "",
          "type": "uint256"
        }
      ],
      "stateMutability": "view",
      "type": "function"
    },
    {
      "inputs": [],
      "name": "AmIRegistered",
      "outputs": [
        {
          "internalType": "bool",
          "name": "passed",
          "type": "bool"
        }
      ],
      "stateMutability": "view",
      "type": "function"
    },
    {
      "inputs": [
        {
          "internalType": "string",
          "name": "_a",
          "type": "string"
        },
        {
          "internalType": "string",
          "name": "_b",
          "type": "string"
        }
      ],
      "name": "AreStringsEqual",
      "outputs": [
        {
          "internalType": "bool",
          "name": "",
          "type": "bool"
        }
      ],
      "stateMutability": "pure",
      "type": "function"
    },
    {
      "inputs": [],
      "name": "BatchCheckingCursor",
      "outputs": [
        {
          "internalType": "uint256",
          "name": "",
          "type": "uint256"
        }
      ],
      "stateMutability": "view",
      "type": "function"
    },
    {
      "inputs": [],
      "name": "BatchDeletionCursor",
      "outputs": [
        {
          "internalType": "uint256",
          "name": "",
          "type": "uint256"
        }
      ],
      "stateMutability": "view",
      "type": "function"
    },
    {
      "inputs": [
        {
          "internalType": "uint256",
          "name": "",
          "type": "uint256"
        }
      ],
      "name": "DataBatch",
      "outputs": [
        {
          "internalType": "uint256",
          "name": "start_idx",
          "type": "uint256"
        },
        {
          "internalType": "uint256",
          "name": "counter",
          "type": "uint256"
        },
        {
          "internalType": "uint256",
          "name": "uncommited_workers",
          "type": "uint256"
        },
        {
          "internalType": "uint256",
          "name": "unrevealed_workers",
          "type": "uint256"
        },
        {
          "internalType": "bool",
          "name": "complete",
          "type": "bool"
        },
        {
          "internalType": "bool",
          "name": "checked",
          "type": "bool"
        },
        {
          "internalType": "bool",
          "name": "allocated_to_work",
          "type": "bool"
        },
        {
          "internalType": "uint256",
          "name": "commitEndDate",
          "type": "uint256"
        },
        {
          "internalType": "uint256",
          "name": "revealEndDate",
          "type": "uint256"
        },
        {
          "internalType": "uint256",
          "name": "votesFor",
          "type": "uint256"
        },
        {
          "internalType": "uint256",
          "name": "votesAgainst",
          "type": "uint256"
        },
        {
          "internalType": "string",
          "name": "batchIPFSfile",
          "type": "string"
        },
        {
          "internalType": "uint256",
          "name": "item_count",
          "type": "uint256"
        },
        {
          "internalType": "enum DataSpotting.DataStatus",
          "name": "status",
          "type": "uint8"
        }
      ],
      "stateMutability": "view",
      "type": "function"
    },
    {
      "inputs": [
        {
          "internalType": "uint256",
          "name": "_DataBatchId",
          "type": "uint256"
        }
      ],
      "name": "DataCommitEndDate",
      "outputs": [
        {
          "internalType": "uint256",
          "name": "commitEndDate",
          "type": "uint256"
        }
      ],
      "stateMutability": "view",
      "type": "function"
    },
    {
      "inputs": [
        {
          "internalType": "uint256",
          "name": "_DataBatchId",
          "type": "uint256"
        }
      ],
      "name": "DataEnded",
      "outputs": [
        {
          "internalType": "bool",
          "name": "ended",
          "type": "bool"
        }
      ],
      "stateMutability": "view",
      "type": "function"
    },
    {
      "inputs": [
        {
          "internalType": "uint256",
          "name": "_DataBatchId",
          "type": "uint256"
        }
      ],
      "name": "DataExists",
      "outputs": [
        {
          "internalType": "bool",
          "name": "exists",
          "type": "bool"
        }
      ],
      "stateMutability": "view",
      "type": "function"
    },
    {
      "inputs": [],
      "name": "DataNonce",
      "outputs": [
        {
          "internalType": "uint256",
          "name": "",
          "type": "uint256"
        }
      ],
      "stateMutability": "view",
      "type": "function"
    },
    {
      "inputs": [
        {
          "internalType": "uint256",
          "name": "_DataBatchId",
          "type": "uint256"
        }
      ],
      "name": "DataRevealEndDate",
      "outputs": [
        {
          "internalType": "uint256",
          "name": "revealEndDate",
          "type": "uint256"
        }
      ],
      "stateMutability": "view",
      "type": "function"
    },
    {
      "inputs": [
        {
          "internalType": "address",
          "name": "user_",
          "type": "address"
        }
      ],
      "name": "GetCurrentWork",
      "outputs": [
        {
          "internalType": "uint256",
          "name": "",
          "type": "uint256"
        }
      ],
      "stateMutability": "view",
      "type": "function"
    },
    {
      "inputs": [
        {
          "internalType": "uint256",
          "name": "",
          "type": "uint256"
        }
      ],
      "name": "GlobalSpotFlowManager",
      "outputs": [
        {
          "internalType": "uint256",
          "name": "timestamp",
          "type": "uint256"
        },
        {
          "internalType": "uint256",
          "name": "counter",
          "type": "uint256"
        }
      ],
      "stateMutability": "view",
      "type": "function"
    },
    {
      "inputs": [
        {
          "internalType": "address",
          "name": "user_",
          "type": "address"
        }
      ],
      "name": "IsNewWorkAvailable",
      "outputs": [
        {
          "internalType": "bool",
          "name": "",
          "type": "bool"
        }
      ],
      "stateMutability": "view",
      "type": "function"
    },
    {
      "inputs": [],
      "name": "LastAllocationTime",
      "outputs": [
        {
          "internalType": "uint256",
          "name": "",
          "type": "uint256"
        }
      ],
      "stateMutability": "view",
      "type": "function"
    },
    {
      "inputs": [],
      "name": "LastBatchCounter",
      "outputs": [
        {
          "internalType": "uint256",
          "name": "",
          "type": "uint256"
        }
      ],
      "stateMutability": "view",
      "type": "function"
    },
    {
      "inputs": [],
      "name": "LastRandomSeed",
      "outputs": [
        {
          "internalType": "uint256",
          "name": "",
          "type": "uint256"
        }
      ],
      "stateMutability": "view",
      "type": "function"
    },
    {
      "inputs": [
        {
          "internalType": "address",
          "name": "",
          "type": "address"
        },
        {
          "internalType": "uint256",
          "name": "",
          "type": "uint256"
        }
      ],
      "name": "MasterWorkers",
      "outputs": [
        {
          "internalType": "address",
          "name": "",
          "type": "address"
        }
      ],
      "stateMutability": "view",
      "type": "function"
    },
    {
      "inputs": [],
      "name": "NotCommitedCounter",
      "outputs": [
        {
          "internalType": "uint256",
          "name": "",
          "type": "uint256"
        }
      ],
      "stateMutability": "view",
      "type": "function"
    },
    {
      "inputs": [],
      "name": "NotRevealedCounter",
      "outputs": [
        {
          "internalType": "uint256",
          "name": "",
          "type": "uint256"
        }
      ],
      "stateMutability": "view",
      "type": "function"
    },
    {
      "inputs": [],
      "name": "Parameters",
      "outputs": [
        {
          "internalType": "contract IParametersManager",
          "name": "",
          "type": "address"
        }
      ],
      "stateMutability": "view",
      "type": "function"
    },
    {
      "inputs": [],
      "name": "RegisterWorker",
      "outputs": [],
      "stateMutability": "nonpayable",
      "type": "function"
    },
    {
      "inputs": [],
      "name": "RejectedBatchsCounter",
      "outputs": [
        {
          "internalType": "uint256",
          "name": "",
          "type": "uint256"
        }
      ],
      "stateMutability": "view",
      "type": "function"
    },
    {
      "inputs": [],
      "name": "SPOT_TOGGLE_ENABLED",
      "outputs": [
        {
          "internalType": "bool",
          "name": "",
          "type": "bool"
        }
      ],
      "stateMutability": "view",
      "type": "function"
    },
    {
      "inputs": [
        {
          "internalType": "address",
          "name": "_worker",
          "type": "address"
        },
        {
          "internalType": "uint256",
          "name": "_TokensAmountToAllocate",
          "type": "uint256"
        }
      ],
      "name": "SelectAddressForUser",
      "outputs": [
        {
          "internalType": "address",
          "name": "",
          "type": "address"
        }
      ],
      "stateMutability": "view",
      "type": "function"
    },
    {
      "inputs": [
        {
          "internalType": "string[]",
          "name": "file_hashs",
          "type": "string[]"
        },
        {
          "internalType": "string[]",
          "name": "URL_domains",
          "type": "string[]"
        },
        {
          "internalType": "uint256",
          "name": "item_count_",
          "type": "uint256"
        },
        {
          "internalType": "string",
          "name": "extra_",
          "type": "string"
        }
      ],
      "name": "SpotData",
      "outputs": [
        {
          "internalType": "uint256",
          "name": "Dataid_",
          "type": "uint256"
        }
      ],
      "stateMutability": "nonpayable",
      "type": "function"
    },
    {
      "inputs": [
        {
          "internalType": "uint256",
          "name": "",
          "type": "uint256"
        }
      ],
      "name": "SpotsMapping",
      "outputs": [
        {
          "internalType": "string",
          "name": "ipfs_hash",
          "type": "string"
        },
        {
          "internalType": "address",
          "name": "author",
          "type": "address"
        },
        {
          "internalType": "uint256",
          "name": "timestamp",
          "type": "uint256"
        },
        {
          "internalType": "uint256",
          "name": "item_count",
          "type": "uint256"
        },
        {
          "internalType": "string",
          "name": "URL_domain",
          "type": "string"
        },
        {
          "internalType": "string",
          "name": "extra",
          "type": "string"
        },
        {
          "internalType": "enum DataSpotting.DataStatus",
          "name": "status",
          "type": "uint8"
        }
      ],
      "stateMutability": "view",
      "type": "function"
    },
    {
      "inputs": [
        {
          "internalType": "address",
          "name": "",
          "type": "address"
        }
      ],
      "name": "SystemStakedTokenBalance",
      "outputs": [
        {
          "internalType": "uint256",
          "name": "",
          "type": "uint256"
        }
      ],
      "stateMutability": "view",
      "type": "function"
    },
    {
      "inputs": [],
      "name": "TriggerUpdate",
      "outputs": [],
      "stateMutability": "nonpayable",
      "type": "function"
    },
    {
      "inputs": [],
      "name": "UnregisterWorker",
      "outputs": [],
      "stateMutability": "nonpayable",
      "type": "function"
    },
    {
      "inputs": [
        {
          "internalType": "uint256",
          "name": "",
          "type": "uint256"
        },
        {
          "internalType": "address",
          "name": "",
          "type": "address"
        }
      ],
      "name": "UserBatchCounts",
      "outputs": [
        {
          "internalType": "uint256",
          "name": "",
          "type": "uint256"
        }
      ],
      "stateMutability": "view",
      "type": "function"
    },
    {
      "inputs": [
        {
          "internalType": "uint256",
          "name": "",
          "type": "uint256"
        },
        {
          "internalType": "address",
          "name": "",
          "type": "address"
        }
      ],
      "name": "UserBatchFrom",
      "outputs": [
        {
          "internalType": "string",
          "name": "",
          "type": "string"
        }
      ],
      "stateMutability": "view",
      "type": "function"
    },
    {
      "inputs": [
        {
          "internalType": "address",
          "name": "",
          "type": "address"
        },
        {
          "internalType": "uint256",
          "name": "",
          "type": "uint256"
        }
      ],
      "name": "UserChecksCommits",
      "outputs": [
        {
          "internalType": "bool",
          "name": "",
          "type": "bool"
        }
      ],
      "stateMutability": "view",
      "type": "function"
    },
    {
      "inputs": [
        {
          "internalType": "address",
          "name": "",
          "type": "address"
        },
        {
          "internalType": "uint256",
          "name": "",
          "type": "uint256"
        }
      ],
      "name": "UserChecksReveals",
      "outputs": [
        {
          "internalType": "bool",
          "name": "",
          "type": "bool"
        }
      ],
      "stateMutability": "view",
      "type": "function"
    },
    {
      "inputs": [
        {
          "internalType": "uint256",
          "name": "",
          "type": "uint256"
        },
        {
          "internalType": "address",
          "name": "",
          "type": "address"
        }
      ],
      "name": "UserNewFiles",
      "outputs": [
        {
          "internalType": "string",
          "name": "",
          "type": "string"
        }
      ],
      "stateMutability": "view",
      "type": "function"
    },
    {
      "inputs": [
        {
          "internalType": "address",
          "name": "",
          "type": "address"
        },
        {
          "internalType": "uint256",
          "name": "",
          "type": "uint256"
        }
      ],
      "name": "UserSubmissions",
      "outputs": [
        {
          "internalType": "uint256",
          "name": "",
          "type": "uint256"
        }
      ],
      "stateMutability": "view",
      "type": "function"
    },
    {
      "inputs": [
        {
          "internalType": "uint256",
          "name": "",
          "type": "uint256"
        },
        {
          "internalType": "address",
          "name": "",
          "type": "address"
        }
      ],
      "name": "UserVotes",
      "outputs": [
        {
          "internalType": "uint256",
          "name": "",
          "type": "uint256"
        }
      ],
      "stateMutability": "view",
      "type": "function"
    },
    {
      "inputs": [
        {
          "internalType": "uint256",
          "name": "",
          "type": "uint256"
        },
        {
          "internalType": "uint256",
          "name": "",
          "type": "uint256"
        }
      ],
      "name": "WorkersPerBatch",
      "outputs": [
        {
          "internalType": "address",
          "name": "",
          "type": "address"
        }
      ],
      "stateMutability": "view",
      "type": "function"
    },
    {
      "inputs": [
        {
          "internalType": "address",
          "name": "",
          "type": "address"
        },
        {
          "internalType": "uint256",
          "name": "",
          "type": "uint256"
        }
      ],
      "name": "WorkersSpotFlowManager",
      "outputs": [
        {
          "internalType": "uint256",
          "name": "timestamp",
          "type": "uint256"
        },
        {
          "internalType": "uint256",
          "name": "counter",
          "type": "uint256"
        }
      ],
      "stateMutability": "view",
      "type": "function"
    },
    {
      "inputs": [
        {
          "internalType": "address",
          "name": "",
          "type": "address"
        }
      ],
      "name": "WorkersState",
      "outputs": [
        {
          "internalType": "uint256",
          "name": "allocated_work_batch",
          "type": "uint256"
        },
        {
          "internalType": "bool",
          "name": "has_completed_work",
          "type": "bool"
        },
        {
          "internalType": "uint256",
          "name": "succeeding_novote_count",
          "type": "uint256"
        },
        {
          "internalType": "uint256",
          "name": "last_interaction_date",
          "type": "uint256"
        },
        {
          "internalType": "bool",
          "name": "registered",
          "type": "bool"
        },
        {
          "internalType": "bool",
          "name": "unregistration_request",
          "type": "bool"
        },
        {
          "internalType": "uint256",
          "name": "registration_date",
          "type": "uint256"
        },
        {
          "internalType": "uint256",
          "name": "allocated_batch_counter",
          "type": "uint256"
        },
        {
          "internalType": "uint256",
          "name": "majority_counter",
          "type": "uint256"
        },
        {
          "internalType": "uint256",
          "name": "minority_counter",
          "type": "uint256"
        }
      ],
      "stateMutability": "view",
      "type": "function"
    },
    {
      "inputs": [
        {
          "internalType": "address",
          "name": "_user",
          "type": "address"
        },
        {
          "internalType": "uint256",
          "name": "_DataBatchId",
          "type": "uint256"
        }
      ],
      "name": "attrUUID",
      "outputs": [
        {
          "internalType": "bytes32",
          "name": "UUID",
          "type": "bytes32"
        }
      ],
      "stateMutability": "pure",
      "type": "function"
    },
    {
      "inputs": [
        {
          "internalType": "uint256",
          "name": "",
          "type": "uint256"
        }
      ],
      "name": "availableWorkers",
      "outputs": [
        {
          "internalType": "address",
          "name": "",
          "type": "address"
        }
      ],
      "stateMutability": "view",
      "type": "function"
    },
    {
      "inputs": [
        {
          "internalType": "uint256",
          "name": "",
          "type": "uint256"
        }
      ],
      "name": "busyWorkers",
      "outputs": [
        {
          "internalType": "address",
          "name": "",
          "type": "address"
        }
      ],
      "stateMutability": "view",
      "type": "function"
    },
    {
      "inputs": [
        {
          "internalType": "uint256",
          "name": "_DataBatchId",
          "type": "uint256"
        }
      ],
      "name": "commitPeriodActive",
      "outputs": [
        {
          "internalType": "bool",
          "name": "active",
          "type": "bool"
        }
      ],
      "stateMutability": "view",
      "type": "function"
    },
    {
      "inputs": [
        {
          "internalType": "uint256",
          "name": "_DataBatchId",
          "type": "uint256"
        }
      ],
      "name": "commitPeriodOver",
      "outputs": [
        {
          "internalType": "bool",
          "name": "active",
          "type": "bool"
        }
      ],
      "stateMutability": "view",
      "type": "function"
    },
    {
      "inputs": [
        {
          "internalType": "uint256",
          "name": "_DataBatchId",
          "type": "uint256"
        },
        {
          "internalType": "bytes32",
          "name": "_encryptedHash",
          "type": "bytes32"
        },
        {
          "internalType": "bytes32",
          "name": "_encryptedVote",
          "type": "bytes32"
        },
        {
          "internalType": "uint256",
          "name": "_BatchCount",
          "type": "uint256"
        },
        {
          "internalType": "string",
          "name": "_From",
          "type": "string"
        }
      ],
      "name": "commitSpotCheck",
      "outputs": [],
      "stateMutability": "nonpayable",
      "type": "function"
    },
    {
      "inputs": [
        {
          "internalType": "uint256",
          "name": "_DataId",
          "type": "uint256"
        }
      ],
      "name": "deleteData",
      "outputs": [],
      "stateMutability": "nonpayable",
      "type": "function"
    },
    {
      "inputs": [
        {
          "internalType": "uint256",
          "name": "_BatchId",
          "type": "uint256"
        }
      ],
      "name": "deleteDataBatch",
      "outputs": [],
      "stateMutability": "nonpayable",
      "type": "function"
    },
    {
      "inputs": [],
      "name": "destroyContract",
      "outputs": [],
      "stateMutability": "nonpayable",
      "type": "function"
    },
    {
      "inputs": [
        {
          "internalType": "address",
          "name": "_voter",
          "type": "address"
        },
        {
          "internalType": "uint256",
          "name": "_DataBatchId",
          "type": "uint256"
        }
      ],
      "name": "didCommit",
      "outputs": [
        {
          "internalType": "bool",
          "name": "committed",
          "type": "bool"
        }
      ],
      "stateMutability": "view",
      "type": "function"
    },
    {
      "inputs": [
        {
          "internalType": "address",
          "name": "_voter",
          "type": "address"
        },
        {
          "internalType": "uint256",
          "name": "_DataBatchId",
          "type": "uint256"
        }
      ],
      "name": "didReveal",
      "outputs": [
        {
          "internalType": "bool",
          "name": "revealed",
          "type": "bool"
        }
      ],
      "stateMutability": "view",
      "type": "function"
    },
    {
      "inputs": [
        {
          "internalType": "uint256",
          "name": "_k",
          "type": "uint256"
        },
        {
          "internalType": "uint256",
          "name": "N_range",
          "type": "uint256"
        }
      ],
      "name": "generateIntegers",
      "outputs": [
        {
          "internalType": "uint256[]",
          "name": "",
          "type": "uint256[]"
        }
      ],
      "stateMutability": "view",
      "type": "function"
    },
    {
      "inputs": [],
      "name": "getAcceptedBatchesCount",
      "outputs": [
        {
          "internalType": "uint256",
          "name": "count",
          "type": "uint256"
        }
      ],
      "stateMutability": "view",
      "type": "function"
    },
    {
      "inputs": [],
      "name": "getActiveWorkersCount",
      "outputs": [
        {
          "internalType": "uint256",
          "name": "numWorkers",
          "type": "uint256"
        }
      ],
      "stateMutability": "view",
      "type": "function"
    },
    {
      "inputs": [],
      "name": "getAvailableWorkersCount",
      "outputs": [
        {
          "internalType": "uint256",
          "name": "numWorkers",
          "type": "uint256"
        }
      ],
      "stateMutability": "view",
      "type": "function"
    },
    {
      "inputs": [
        {
          "internalType": "uint256",
          "name": "_DataBatchId",
          "type": "uint256"
        }
      ],
      "name": "getBatchByID",
      "outputs": [
        {
          "components": [
            {
              "internalType": "uint256",
              "name": "start_idx",
              "type": "uint256"
            },
            {
              "internalType": "uint256",
              "name": "counter",
              "type": "uint256"
            },
            {
              "internalType": "uint256",
              "name": "uncommited_workers",
              "type": "uint256"
            },
            {
              "internalType": "uint256",
              "name": "unrevealed_workers",
              "type": "uint256"
            },
            {
              "internalType": "bool",
              "name": "complete",
              "type": "bool"
            },
            {
              "internalType": "bool",
              "name": "checked",
              "type": "bool"
            },
            {
              "internalType": "bool",
              "name": "allocated_to_work",
              "type": "bool"
            },
            {
              "internalType": "uint256",
              "name": "commitEndDate",
              "type": "uint256"
            },
            {
              "internalType": "uint256",
              "name": "revealEndDate",
              "type": "uint256"
            },
            {
              "internalType": "uint256",
              "name": "votesFor",
              "type": "uint256"
            },
            {
              "internalType": "uint256",
              "name": "votesAgainst",
              "type": "uint256"
            },
            {
              "internalType": "string",
              "name": "batchIPFSfile",
              "type": "string"
            },
            {
              "internalType": "uint256",
              "name": "item_count",
              "type": "uint256"
            },
            {
              "internalType": "enum DataSpotting.DataStatus",
              "name": "status",
              "type": "uint8"
            }
          ],
          "internalType": "struct DataSpotting.BatchMetadata",
          "name": "batch",
          "type": "tuple"
        }
      ],
      "stateMutability": "view",
      "type": "function"
    },
    {
      "inputs": [
        {
          "internalType": "uint256",
          "name": "_DataBatchId",
          "type": "uint256"
        }
      ],
      "name": "getBatchIPFSFileByID",
      "outputs": [
        {
          "internalType": "string",
          "name": "batch",
          "type": "string"
        }
      ],
      "stateMutability": "view",
      "type": "function"
    },
    {
      "inputs": [],
      "name": "getBusyWorkersCount",
      "outputs": [
        {
          "internalType": "uint256",
          "name": "numWorkers",
          "type": "uint256"
        }
      ],
      "stateMutability": "view",
      "type": "function"
    },
    {
      "inputs": [
        {
          "internalType": "address",
          "name": "_voter",
          "type": "address"
        },
        {
          "internalType": "uint256",
          "name": "_DataBatchId",
          "type": "uint256"
        }
      ],
      "name": "getCommitIPFSHash",
      "outputs": [
        {
          "internalType": "bytes32",
          "name": "commitHash",
          "type": "bytes32"
        }
      ],
      "stateMutability": "view",
      "type": "function"
    },
    {
      "inputs": [
        {
          "internalType": "address",
          "name": "_voter",
          "type": "address"
        },
        {
          "internalType": "uint256",
          "name": "_DataBatchId",
          "type": "uint256"
        }
      ],
      "name": "getCommitVoteHash",
      "outputs": [
        {
          "internalType": "bytes32",
          "name": "commitHash",
          "type": "bytes32"
        }
      ],
      "stateMutability": "view",
      "type": "function"
    },
    {
      "inputs": [
        {
          "internalType": "uint256",
          "name": "_DataId",
          "type": "uint256"
        }
      ],
      "name": "getDataByID",
      "outputs": [
        {
          "components": [
            {
              "internalType": "string",
              "name": "ipfs_hash",
              "type": "string"
            },
            {
              "internalType": "address",
              "name": "author",
              "type": "address"
            },
            {
              "internalType": "uint256",
              "name": "timestamp",
              "type": "uint256"
            },
            {
              "internalType": "uint256",
              "name": "item_count",
              "type": "uint256"
            },
            {
              "internalType": "string",
              "name": "URL_domain",
              "type": "string"
            },
            {
              "internalType": "string",
              "name": "extra",
              "type": "string"
            },
            {
              "internalType": "enum DataSpotting.DataStatus",
              "name": "status",
              "type": "uint8"
            }
          ],
          "internalType": "struct DataSpotting.SpottedData",
          "name": "data",
          "type": "tuple"
        }
      ],
      "stateMutability": "view",
      "type": "function"
    },
    {
      "inputs": [
        {
          "internalType": "uint256",
          "name": "_DataBatchId",
          "type": "uint256"
        }
      ],
      "name": "getDomainsForBatch",
      "outputs": [
        {
          "internalType": "string[]",
          "name": "",
          "type": "string[]"
        }
      ],
      "stateMutability": "view",
      "type": "function"
    },
    {
      "inputs": [
        {
          "internalType": "uint256",
          "name": "_clearVote",
          "type": "uint256"
        },
        {
          "internalType": "uint256",
          "name": "_salt",
          "type": "uint256"
        }
      ],
      "name": "getEncryptedHash",
      "outputs": [
        {
          "internalType": "bytes32",
          "name": "keccak256hash",
          "type": "bytes32"
        }
      ],
      "stateMutability": "pure",
      "type": "function"
    },
    {
      "inputs": [
        {
          "internalType": "string",
          "name": "_hash",
          "type": "string"
        },
        {
          "internalType": "uint256",
          "name": "_salt",
          "type": "uint256"
        }
      ],
      "name": "getEncryptedStringHash",
      "outputs": [
        {
          "internalType": "bytes32",
          "name": "keccak256hash",
          "type": "bytes32"
        }
      ],
      "stateMutability": "pure",
      "type": "function"
    },
    {
      "inputs": [
        {
          "internalType": "uint256",
          "name": "_DataBatchId",
          "type": "uint256"
        }
      ],
      "name": "getFromsForBatch",
      "outputs": [
        {
          "internalType": "string[]",
          "name": "",
          "type": "string[]"
        }
      ],
      "stateMutability": "view",
      "type": "function"
    },
    {
      "inputs": [],
      "name": "getGlobalPeriodSpotCount",
      "outputs": [
        {
          "internalType": "uint256",
          "name": "",
          "type": "uint256"
        }
      ],
      "stateMutability": "view",
      "type": "function"
    },
    {
      "inputs": [
        {
          "internalType": "uint256",
          "name": "_DataBatchId",
          "type": "uint256"
        }
      ],
      "name": "getIPFShashesForBatch",
      "outputs": [
        {
          "internalType": "string[]",
          "name": "",
          "type": "string[]"
        }
      ],
      "stateMutability": "view",
      "type": "function"
    },
    {
      "inputs": [
        {
          "internalType": "address",
          "name": "_voter",
          "type": "address"
        },
        {
          "internalType": "uint256",
          "name": "_numTokens",
          "type": "uint256"
        },
        {
          "internalType": "uint256",
          "name": "_DataBatchId",
          "type": "uint256"
        }
      ],
      "name": "getInsertPointForNumTokens",
      "outputs": [
        {
          "internalType": "uint256",
          "name": "prevNode",
          "type": "uint256"
        }
      ],
      "stateMutability": "view",
      "type": "function"
    },
    {
      "inputs": [],
      "name": "getLastAllocatedBatchId",
      "outputs": [
        {
          "internalType": "uint256",
          "name": "LastAllocatedBatchId",
          "type": "uint256"
        }
      ],
      "stateMutability": "view",
      "type": "function"
    },
    {
      "inputs": [],
      "name": "getLastBatchId",
      "outputs": [
        {
          "internalType": "uint256",
          "name": "LastBatchId",
          "type": "uint256"
        }
      ],
      "stateMutability": "view",
      "type": "function"
    },
    {
      "inputs": [],
      "name": "getLastCheckedBatchId",
      "outputs": [
        {
          "internalType": "uint256",
          "name": "LastCheckedBatchId",
          "type": "uint256"
        }
      ],
      "stateMutability": "view",
      "type": "function"
    },
    {
      "inputs": [],
      "name": "getLastDataId",
      "outputs": [
        {
          "internalType": "uint256",
          "name": "DataId",
          "type": "uint256"
        }
      ],
      "stateMutability": "view",
      "type": "function"
    },
    {
      "inputs": [
        {
          "internalType": "address",
          "name": "_voter",
          "type": "address"
        }
      ],
      "name": "getLastNode",
      "outputs": [
        {
          "internalType": "uint256",
          "name": "DataID",
          "type": "uint256"
        }
      ],
      "stateMutability": "view",
      "type": "function"
    },
    {
      "inputs": [
        {
          "internalType": "address",
          "name": "_voter",
          "type": "address"
        }
      ],
      "name": "getLockedTokens",
      "outputs": [
        {
          "internalType": "uint256",
          "name": "numTokens",
          "type": "uint256"
        }
      ],
      "stateMutability": "view",
      "type": "function"
    },
    {
      "inputs": [
        {
          "internalType": "uint256",
          "name": "_DataBatchId_a",
          "type": "uint256"
        },
        {
          "internalType": "uint256",
          "name": "_DataBatchId_b",
          "type": "uint256"
        }
      ],
      "name": "getMultiBatchIPFShashes",
      "outputs": [
        {
          "internalType": "string[]",
          "name": "",
          "type": "string[]"
        }
      ],
      "stateMutability": "view",
      "type": "function"
    },
    {
      "inputs": [
        {
          "internalType": "address",
          "name": "_voter",
          "type": "address"
        },
        {
          "internalType": "uint256",
          "name": "_DataBatchId",
          "type": "uint256"
        },
        {
          "internalType": "uint256",
          "name": "_salt",
          "type": "uint256"
        }
      ],
      "name": "getNumPassingTokens",
      "outputs": [
        {
          "internalType": "uint256",
          "name": "correctSpotChecks",
          "type": "uint256"
        }
      ],
      "stateMutability": "view",
      "type": "function"
    },
    {
      "inputs": [
        {
          "internalType": "address",
          "name": "_voter",
          "type": "address"
        },
        {
          "internalType": "uint256",
          "name": "_DataBatchId",
          "type": "uint256"
        }
      ],
      "name": "getNumTokens",
      "outputs": [
        {
          "internalType": "uint256",
          "name": "numTokens",
          "type": "uint256"
        }
      ],
      "stateMutability": "view",
      "type": "function"
    },
    {
      "inputs": [],
      "name": "getRandom",
      "outputs": [
        {
          "internalType": "uint256",
          "name": "",
          "type": "uint256"
        }
      ],
      "stateMutability": "view",
      "type": "function"
    },
    {
      "inputs": [],
      "name": "getRejectedBatchesCount",
      "outputs": [
        {
          "internalType": "uint256",
          "name": "count",
          "type": "uint256"
        }
      ],
      "stateMutability": "view",
      "type": "function"
    },
    {
      "inputs": [],
      "name": "getSeed",
      "outputs": [
        {
          "internalType": "bytes32",
          "name": "addr",
          "type": "bytes32"
        }
      ],
      "stateMutability": "view",
      "type": "function"
    },
    {
      "inputs": [
        {
          "internalType": "uint256",
          "name": "_DataBatchId",
          "type": "uint256"
        }
      ],
      "name": "getSubmittedFilesForBatch",
      "outputs": [
        {
          "internalType": "string[]",
          "name": "",
          "type": "string[]"
        }
      ],
      "stateMutability": "view",
      "type": "function"
    },
    {
      "inputs": [
        {
          "internalType": "address",
          "name": "_user",
          "type": "address"
        }
      ],
      "name": "getSystemTokenBalance",
      "outputs": [
        {
          "internalType": "uint256",
          "name": "tokens",
          "type": "uint256"
        }
      ],
      "stateMutability": "view",
      "type": "function"
    },
    {
      "inputs": [],
      "name": "getTxCounter",
      "outputs": [
        {
          "internalType": "uint256",
          "name": "Counter",
          "type": "uint256"
        }
      ],
      "stateMutability": "view",
      "type": "function"
    },
    {
      "inputs": [
        {
          "internalType": "address",
          "name": "user",
          "type": "address"
        }
      ],
      "name": "getUserDatas",
      "outputs": [
        {
          "internalType": "uint256[]",
          "name": "user_Datas",
          "type": "uint256[]"
        }
      ],
      "stateMutability": "view",
      "type": "function"
    },
    {
      "inputs": [
        {
          "internalType": "address",
          "name": "user_",
          "type": "address"
        }
      ],
      "name": "getUserPeriodSpotCount",
      "outputs": [
        {
          "internalType": "uint256",
          "name": "",
          "type": "uint256"
        }
      ],
      "stateMutability": "view",
      "type": "function"
    },
    {
      "inputs": [
        {
          "internalType": "uint256",
          "name": "_DataBatchId",
          "type": "uint256"
        }
      ],
      "name": "getVotesForBatch",
      "outputs": [
        {
          "internalType": "uint256[]",
          "name": "",
          "type": "uint256[]"
        }
      ],
      "stateMutability": "view",
      "type": "function"
    },
    {
      "inputs": [
        {
          "internalType": "uint256",
          "name": "_terminationDate",
          "type": "uint256"
        }
      ],
      "name": "isExpired",
      "outputs": [
        {
          "internalType": "bool",
          "name": "expired",
          "type": "bool"
        }
      ],
      "stateMutability": "view",
      "type": "function"
    },
    {
      "inputs": [
        {
          "internalType": "uint256",
          "name": "_DataBatchId",
          "type": "uint256"
        }
      ],
      "name": "isPassed",
      "outputs": [
        {
          "internalType": "bool",
          "name": "passed",
          "type": "bool"
        }
      ],
      "stateMutability": "view",
      "type": "function"
    },
    {
      "inputs": [
        {
          "internalType": "uint256",
          "name": "_DataBatchId",
          "type": "uint256"
        },
        {
          "internalType": "address",
          "name": "_worker",
          "type": "address"
        }
      ],
      "name": "isWorkerAllocatedToBatch",
      "outputs": [
        {
          "internalType": "bool",
          "name": "",
          "type": "bool"
        }
      ],
      "stateMutability": "view",
      "type": "function"
    },
    {
      "inputs": [
        {
          "internalType": "address",
          "name": "_worker",
          "type": "address"
        }
      ],
      "name": "isWorkerRegistered",
      "outputs": [
        {
          "internalType": "bool",
          "name": "passed",
          "type": "bool"
        }
      ],
      "stateMutability": "view",
      "type": "function"
    },
    {
      "inputs": [],
      "name": "owner",
      "outputs": [
        {
          "internalType": "address",
          "name": "",
          "type": "address"
        }
      ],
      "stateMutability": "view",
      "type": "function"
    },
    {
      "inputs": [
        {
          "internalType": "uint256",
          "name": "k",
          "type": "uint256"
        },
        {
          "internalType": "uint256",
          "name": "N",
          "type": "uint256"
        }
      ],
      "name": "random_selection",
      "outputs": [
        {
          "internalType": "uint256[]",
          "name": "",
          "type": "uint256[]"
        }
      ],
      "stateMutability": "view",
      "type": "function"
    },
    {
      "inputs": [
        {
          "internalType": "uint256",
          "name": "_DataBatchId",
          "type": "uint256"
        }
      ],
      "name": "remainingCommitDuration",
      "outputs": [
        {
          "internalType": "uint256",
          "name": "remainingTime",
          "type": "uint256"
        }
      ],
      "stateMutability": "view",
      "type": "function"
    },
    {
      "inputs": [
        {
          "internalType": "uint256",
          "name": "_DataBatchId",
          "type": "uint256"
        }
      ],
      "name": "remainingRevealDuration",
      "outputs": [
        {
          "internalType": "uint256",
          "name": "remainingTime",
          "type": "uint256"
        }
      ],
      "stateMutability": "view",
      "type": "function"
    },
    {
      "inputs": [],
      "name": "renounceOwnership",
      "outputs": [],
      "stateMutability": "nonpayable",
      "type": "function"
    },
    {
      "inputs": [
        {
          "internalType": "uint256",
          "name": "_DataBatchId",
          "type": "uint256"
        }
      ],
      "name": "rescueTokens",
      "outputs": [],
      "stateMutability": "nonpayable",
      "type": "function"
    },
    {
      "inputs": [
        {
          "internalType": "uint256[]",
          "name": "_DataBatchIDs",
          "type": "uint256[]"
        }
      ],
      "name": "rescueTokensInMultipleDatas",
      "outputs": [],
      "stateMutability": "nonpayable",
      "type": "function"
    },
    {
      "inputs": [
        {
          "internalType": "uint256",
          "name": "_DataBatchId",
          "type": "uint256"
        }
      ],
      "name": "revealPeriodActive",
      "outputs": [
        {
          "internalType": "bool",
          "name": "active",
          "type": "bool"
        }
      ],
      "stateMutability": "view",
      "type": "function"
    },
    {
      "inputs": [
        {
          "internalType": "uint256",
          "name": "_DataBatchId",
          "type": "uint256"
        }
      ],
      "name": "revealPeriodOver",
      "outputs": [
        {
          "internalType": "bool",
          "name": "active",
          "type": "bool"
        }
      ],
      "stateMutability": "view",
      "type": "function"
    },
    {
      "inputs": [
        {
          "internalType": "uint256",
          "name": "_DataBatchId",
          "type": "uint256"
        },
        {
          "internalType": "string",
          "name": "_clearIPFSHash",
          "type": "string"
        },
        {
          "internalType": "uint256",
          "name": "_clearVote",
          "type": "uint256"
        },
        {
          "internalType": "uint256",
          "name": "_salt",
          "type": "uint256"
        }
      ],
      "name": "revealSpotCheck",
      "outputs": [],
      "stateMutability": "nonpayable",
      "type": "function"
    },
    {
      "inputs": [
        {
          "internalType": "uint256",
          "name": "N",
          "type": "uint256"
        }
      ],
      "name": "shuffle_array",
      "outputs": [
        {
          "internalType": "uint256[]",
          "name": "",
          "type": "uint256[]"
        }
      ],
      "stateMutability": "view",
      "type": "function"
    },
    {
      "inputs": [
        {
          "internalType": "uint256",
          "name": "",
          "type": "uint256"
        }
      ],
      "name": "toUnregisterWorkers",
      "outputs": [
        {
          "internalType": "address",
          "name": "",
          "type": "address"
        }
      ],
      "stateMutability": "view",
      "type": "function"
    },
    {
      "inputs": [],
      "name": "token",
      "outputs": [
        {
          "internalType": "contract IERC20",
          "name": "",
          "type": "address"
        }
      ],
      "stateMutability": "view",
      "type": "function"
    },
    {
      "inputs": [
        {
          "internalType": "address",
          "name": "newOwner",
          "type": "address"
        }
      ],
      "name": "transferOwnership",
      "outputs": [],
      "stateMutability": "nonpayable",
      "type": "function"
    },
    {
      "inputs": [
        {
          "internalType": "uint256",
          "name": "AllocatedBatchCursor_",
          "type": "uint256"
        }
      ],
      "name": "updateAllocatedBatchCursor",
      "outputs": [],
      "stateMutability": "nonpayable",
      "type": "function"
    },
    {
      "inputs": [
        {
          "internalType": "uint256",
          "name": "BatchCheckingCursor_",
          "type": "uint256"
        }
      ],
      "name": "updateBatchCheckingCursor",
      "outputs": [],
      "stateMutability": "nonpayable",
      "type": "function"
    },
    {
      "inputs": [],
      "name": "updateGlobalSpotFlow",
      "outputs": [],
      "stateMutability": "nonpayable",
      "type": "function"
    },
    {
      "inputs": [
        {
          "internalType": "address",
          "name": "addr",
          "type": "address"
        }
      ],
      "name": "updateParametersManager",
      "outputs": [],
      "stateMutability": "nonpayable",
      "type": "function"
    },
    {
      "inputs": [
        {
          "internalType": "address",
          "name": "user_",
          "type": "address"
        }
      ],
      "name": "updateUserSpotFlow",
      "outputs": [],
      "stateMutability": "nonpayable",
      "type": "function"
    },
    {
      "inputs": [
        {
          "internalType": "uint256",
          "name": "_prevID",
          "type": "uint256"
        },
        {
          "internalType": "uint256",
          "name": "_nextID",
          "type": "uint256"
        },
        {
          "internalType": "address",
          "name": "_voter",
          "type": "address"
        },
        {
          "internalType": "uint256",
          "name": "_numTokens",
          "type": "uint256"
        }
      ],
      "name": "validPosition",
      "outputs": [
        {
          "internalType": "bool",
          "name": "APPROVED",
          "type": "bool"
        }
      ],
      "stateMutability": "view",
      "type": "function"
    },
    {
      "inputs": [
        {
          "internalType": "uint256",
          "name": "_numTokens",
          "type": "uint256"
        },
        {
          "internalType": "address",
          "name": "_user",
          "type": "address"
        }
      ],
      "name": "withdrawVotingRights",
      "outputs": [],
      "stateMutability": "nonpayable",
      "type": "function"
    }
  ],
  "bytecode": "0x608060405260006001818155601d829055601e829055601f8190556020819055602181905560225560238190556024819055602581905560268190556027556029805460ff60a01b1916600160a01b1790553480156200005e57600080fd5b506040516200b7f73803806200b7f7833981016040819052620000819162000123565b620000956200008f620000cf565b620000d3565b6001600160a01b038116620000a957600080fd5b602880546001600160a01b0319166001600160a01b039290921691909117905562000153565b3390565b600080546001600160a01b038381166001600160a01b0319831681178455604051919092169283917f8be0079c531659141344cd1fd0a4f28419497f9722a3daafe3b4186f6b6457e09190a35050565b60006020828403121562000135578081fd5b81516001600160a01b03811681146200014c578182fd5b9392505050565b61b69480620001636000396000f3fe608060405234801561001057600080fd5b50600436106106eb5760003560e01c80638746ff8a11610392578063d1382092116101e9578063eb1322ff1161011a578063f716596d116100b8578063fc0c546a11610087578063fc0c546a14610e55578063fca4956314610e5d578063fd41488114610e70578063ff43de9d14610e83576106eb565b8063f716596d14610e2a578063f721de4a14610e32578063f80a23fd14610e45578063f96305f014610e4d576106eb565b8063f2d9e74d116100f4578063f2d9e74d14610df4578063f2fde38b14610dfc578063f4cdfcc414610e0f578063f5ae7c7d14610e22576106eb565b8063eb1322ff14610dd1578063ed8becfa14610dd9578063ef4fcdad14610dec576106eb565b8063d8b7567411610187578063da14563a11610161578063da14563a14610d90578063e44c974b14610d98578063e604c12714610dab578063e798a7da14610dbe576106eb565b8063d8b7567414610d4a578063d9548e5314610d5d578063d9845fb814610d70576106eb565b8063d58f575c116101c3578063d58f575c14610d14578063d6b0206c14610d1c578063d817587e14610d24578063d822ce0114610d37576106eb565b8063d138209214610cdb578063d186981d14610cee578063d420ec0b14610d01576106eb565b8063a9057790116102c3578063b1cf4a7e11610261578063b8f011b31161023b578063b8f011b314610c9a578063bc3002e614610cad578063c4e4f82a14610cc0578063d0d41def14610cd3576106eb565b8063b1cf4a7e14610c61578063b1d7ea9814610c74578063b43bd06914610c87576106eb565b8063aacc5a171161029d578063aacc5a1714610c20578063b0bc471e14610c28578063b10aa58414610c3b578063b1a2e0be14610c4e576106eb565b8063a905779014610be7578063a98eb31e14610bfa578063aa7ca46414610c0d576106eb565b80639d6e3f9611610330578063a1b6b5b71161030a578063a1b6b5b714610bbc578063a350715a14610bc4578063a4439dc514610bcc578063a511dba014610bdf576106eb565b80639d6e3f9614610b835780639fc9c52f14610b96578063a1103f3714610ba9576106eb565b80638da5cb5b1161036c5780638da5cb5b14610b4d5780638df0296e14610b555780639760356014610b685780639769d84614610b7b576106eb565b80638746ff8a14610afe57806388d072eb14610b115780638c89d02714610b24576106eb565b806353bf27f11161054657806371880b1b116104775780637fabe35b11610415578063821aa8c0116103ef578063821aa8c014610ac857806383e5a8f614610adb5780638473850b14610aee5780638480a22114610af6576106eb565b80637fabe35b14610a80578063815ce74714610aad578063819b029314610ab5576106eb565b80637860dd41116104515780637860dd4114610a3f5780637ad3be1114610a525780637f9510a214610a655780637f97e83614610a6d576106eb565b806371880b1b14610a11578063763a39f214610a2457806377124dec14610a2c576106eb565b8063607d5efa116104e45780636b2d95d4116104be5780636b2d95d4146109d05780637018e9c6146109e35780637074222b146109f6578063715018a614610a09576106eb565b8063607d5efa146109a25780636371d81f146109aa57806363b563a8146109bd576106eb565b80635a452943116105205780635a452943146109495780635b113a55146109695780635dc44cf11461097c5780635df6055d1461098f576106eb565b806353bf27f11461091b578063576a554314610923578063579db71c14610936576106eb565b806331e2f28511610620578063441c77c0116105be57806348cbd8f81161059857806348cbd8f8146108da57806349403183146108ed5780634fe8b4c114610900578063515535e814610913576106eb565b8063441c77c0146108b757806347fe2d20146108ca5780634852e2f0146108d2576106eb565b806339e7357c116105fa57806339e7357c146108685780633c062cc814610870578063413b90f714610891578063427fa1d2146108a4576106eb565b806331e2f2851461082d5780633538af821461084057806336fc43fc14610860576106eb565b8063154fd39b1161068d578063275c259011610667578063275c2590146107df5780632c052031146107e75780632d917c68146107fa5780632f469fd11461080d576106eb565b8063154fd39b1461079757806319d903461461079f578063226ed300146107bf576106eb565b8063092a5cce116106c9578063092a5cce1461074e5780630b96c5b0146107565780630e6661a71461077c578063100372f514610784576106eb565b806301a48b98146106f057806301aa5f73146107195780630595762314610739575b600080fd5b6107036106fe366004619d81565b610e8b565b604051610710919061a070565b60405180910390f35b61072c610727366004619d81565b611028565b6040516107109190619fc9565b61074c610747366004619ab2565b611085565b005b61074c6110e6565b610769610764366004619d81565b611138565b604051610710979695949392919061a0c6565b61072c61131c565b61074c610792366004619d81565b611322565b61072c611366565b6107b26107ad366004619d81565b61136c565b604051610710919061a010565b6107d26107cd366004619d81565b611687565b604051610710919061a0a8565b61074c6116c9565b61072c6107f5366004619b15565b611810565b6107d2610808366004619aea565b6119ad565b61082061081b366004619daa565b6119cd565b604051610710919061a0b3565b61072c61083b366004619ab2565b611a72565b61085361084e366004619d81565b611a84565b6040516107109190619ffc565b6107d2611aae565b61072c611abe565b61088361087e366004619d81565b611adb565b604051610710929190619fee565b61088361089f366004619aea565b611afd565b61072c6108b2366004619ab2565b611b2d565b6107d26108c5366004619d81565b611bcd565b61072c611c27565b61072c611c2d565b61074c6108e8366004619daa565b611c33565b6107d26108fb366004619d81565b611e14565b61074c61090e366004619d81565b612060565b61072c612105565b61072c61210b565b61074c610931366004619ab2565b612111565b610703610944366004619ab2565b6122d8565b61095c610957366004619d81565b612344565b604051610710919061b295565b61072c610977366004619daa565b612599565b61072c61098a366004619aea565b6125b6565b6107b261099d366004619d81565b6125e7565b61074c612804565b61074c6109b8366004619d81565b6129bd565b6107d26109cb366004619d81565b612a70565b61072c6109de366004619ab2565b612ac3565b6107d26109f1366004619d81565b612ad2565b61072c610a04366004619ab2565b612b13565b61074c612b2e565b61072c610a1f366004619d81565b612b79565b61072c612bb6565b61074c610a3a366004619d81565b612bbc565b61072c610a4d366004619d81565b612c00565b61072c610a60366004619aea565b612c54565b61072c612ce9565b6107d2610a7b366004619aea565b612d00565b610a93610a8e366004619d81565b612d53565b6040516107109e9d9c9b9a9998979695949392919061b3c3565b61072c612e53565b6107d2610ac3366004619ea2565b612eaf565b610853610ad6366004619d81565b612ef0565b61074c610ae9366004619dd9565b612f00565b61072c61355d565b61072c613563565b610853610b0c366004619aea565b613569565b610820610b1f366004619daa565b6139c5565b610b37610b32366004619ab2565b6139e9565b6040516107109a9998979695949392919061b366565b610853613a3f565b610853610b63366004619e81565b613a4e565b61074c610b76366004619d81565b613a86565b61072c613c35565b61072c610b91366004619ab2565b613c3b565b61074c610ba4366004619c30565b613ca6565b61072c610bb7366004619aea565b613cf4565b61072c613d27565b61072c613d2d565b6107d2610bda366004619d81565b613d33565b61072c613d95565b6107d2610bf5366004619cdf565b613d9b565b61074c610c08366004619e2d565b613e01565b6107d2610c1b366004619aea565b614159565b61072c6141ac565b61072c610c36366004619aea565b614261565b610853610c49366004619d81565b6142a6565b6107d2610c5c366004619ab2565b6142b6565b61072c610c6f366004619e81565b61438b565b610703610c82366004619e81565b6143a0565b61072c610c95366004619b15565b6145ba565b610703610ca8366004619e81565b6146a6565b61072c610cbb366004619b49565b61480e565b61072c610cce366004619d81565b615344565b61072c615381565b61072c610ce9366004619aea565b615387565b6107d2610cfc366004619daa565b6153cc565b6107d2610d0f366004619aea565b6154a7565b61072c6154c7565b61072c6154cd565b6107b2610d32366004619d81565b6154d3565b610853610d45366004619aea565b6156f0565b61072c610d58366004619daa565b61570c565b6107d2610d6b366004619d81565b615729565b610d83610d7e366004619d81565b61572e565b604051610710919061b0df565b61074c6158b2565b610703610da6366004619d81565b615bb3565b610820610db9366004619d81565b615c3f565b6107d2610dcc366004619ab2565b615cea565b61072c615d0b565b6107b2610de7366004619d81565b615d11565b61072c616020565b61072c616026565b61074c610e0a366004619ab2565b61602c565b61072c610e1d366004619d3f565b61609a565b61072c6160af565b61074c6160b5565b6107d2610e40366004619d81565b616481565b6107d2616489565b61072c6164a2565b6108536164a8565b61072c610e6b366004619ab2565b6164b7565b6107b2610e7e366004619e81565b61657d565b610853616a8f565b6060610e9682616481565b610ebb5760405162461bcd60e51b8152600401610eb29061ad43565b60405180910390fd5b600082815260196020908152604080832080548251818502810185019093528083529192909190830182828015610f1b57602002820191906000526020600020905b81546001600160a01b03168152600190910190602001808311610efd575b50505050509050600081516001600160401b03811115610f4b57634e487b7160e01b600052604160045260246000fd5b604051908082528060200260200182016040528015610f74578160200160208202803683370190505b50905060005b825181101561101e57600c60008681526020019081526020016000206000848381518110610fb857634e487b7160e01b600052603260045260246000fd5b60200260200101516001600160a01b03166001600160a01b031681526020019081526020016000205482828151811061100157634e487b7160e01b600052603260045260246000fd5b6020908102919091010152806110168161b5b8565b915050610f7a565b509150505b919050565b600061103382616481565b61104f5760405162461bcd60e51b8152600401610eb29061ad43565b600061105a83611bcd565b1561107f5760008381526014602052604090206006015461107c90429061b53a565b90505b92915050565b61108d616a9e565b6001600160a01b031661109e613a3f565b6001600160a01b0316146110c45760405162461bcd60e51b8152600401610eb29061aa42565b602980546001600160a01b0319166001600160a01b0392909216919091179055565b6110ee616a9e565b6001600160a01b03166110ff613a3f565b6001600160a01b0316146111255760405162461bcd60e51b8152600401610eb29061aa42565b61112d613a3f565b6001600160a01b0316ff5b6013602052600090815260409020805481906111539061b57d565b80601f016020809104026020016040519081016040528092919081815260200182805461117f9061b57d565b80156111cc5780601f106111a1576101008083540402835291602001916111cc565b820191906000526020600020905b8154815290600101906020018083116111af57829003601f168201915b50505060018401546002850154600386015460048701805496976001600160a01b0390941696929550909350906112029061b57d565b80601f016020809104026020016040519081016040528092919081815260200182805461122e9061b57d565b801561127b5780601f106112505761010080835404028352916020019161127b565b820191906000526020600020905b81548152906001019060200180831161125e57829003601f168201915b5050505050908060050180546112909061b57d565b80601f01602080910402602001604051908101604052809291908181526020018280546112bc9061b57d565b80156113095780601f106112de57610100808354040283529160200191611309565b820191906000526020600020905b8154815290600101906020018083116112ec57829003601f168201915b5050506006909301549192505060ff1687565b601e5481565b61132a616a9e565b6001600160a01b031661133b613a3f565b6001600160a01b0316146113615760405162461bcd60e51b8152600401610eb29061aa42565b602155565b60225490565b606061137782616481565b6113935760405162461bcd60e51b8152600401610eb29061ad43565b600082815260146020908152604080832081516101c0810183528154815260018201549381019390935260028101549183019190915260038101546060830152600481015460ff808216151560808501526101008083048216151560a08601526201000090920416151560c0840152600582015460e084015260068201549083015260078101546101208301526008810154610140830152600981018054610160840191906114419061b57d565b80601f016020809104026020016040519081016040528092919081815260200182805461146d9061b57d565b80156114ba5780601f1061148f576101008083540402835291602001916114ba565b820191906000526020600020905b81548152906001019060200180831161149d57829003601f168201915b5050509183525050600a8201546020820152600b82015460409091019060ff1660038111156114f957634e487b7160e01b600052602160045260246000fd5b600381111561151857634e487b7160e01b600052602160045260246000fd5b90525060208101519091506000816001600160401b0381111561154b57634e487b7160e01b600052604160045260246000fd5b60405190808252806020026020018201604052801561157e57816020015b60608152602001906001900390816115695790505b50905060005b8281101561167e57835160009061159c90839061b4ef565b6000818152601360205260408120600401805492935090916115bd9061b57d565b80601f01602080910402602001604051908101604052809291908181526020018280546115e99061b57d565b80156116365780601f1061160b57610100808354040283529160200191611636565b820191906000526020600020905b81548152906001019060200180831161161957829003601f168201915b505050505090508084848151811061165e57634e487b7160e01b600052603260045260246000fd5b6020026020010181905250505080806116769061b5b8565b915050611584565b50949350505050565b600061169282616481565b6116ae5760405162461bcd60e51b8152600401610eb29061b06a565b60008281526014602052604090206006015461107f90615729565b336000908152601560205260409020600481015460ff1615156001146117015760405162461bcd60e51b8152600401610eb29061a9d1565b80541580159061171b57506004810154610100900460ff16155b801561172d575061172b33616aa2565b155b156117865760048101805461ff001916610100179055601c80546001810182556000919091527f0e4562a10381dec21b205ed72637e6b1b523bdd0e4d4d50af5cd23dd4500a2110180546001600160a01b031916331790555b80546117ec5761179533616b19565b61179e33616c71565b426003820181905560048201805460ff1916905560405133917f9dadcedba048e92b943ea1c5861cee1df63a566d7f795869c004780c1c698e2b916117e39190619fc9565b60405180910390a25b6001602360008282546117ff919061b4ef565b9091555061180d9050616da1565b50565b60008061181c85611b2d565b9050600061182a8683615387565b90505b81156119a25761183d8683615387565b90508481116118fa57838214156118f2576001600160a01b0386166000908152601160205260409081902090516301c39b2b60e11b815273__$85afbab79b2b776d70bef879a32ed56424$__9163038736569161189f91908690600401619fee565b60206040518083038186803b1580156118b757600080fd5b505af41580156118cb573d6000803e3d6000fd5b505050506040513d601f19601f820116820180604052508101906118ef9190619d99565b91505b5090506119a6565b6001600160a01b0386166000908152601160205260409081902090516301c39b2b60e11b815273__$85afbab79b2b776d70bef879a32ed56424$__9163038736569161194b91908690600401619fee565b60206040518083038186803b15801561196357600080fd5b505af4158015611977573d6000803e3d6000fd5b505050506040513d601f19601f8201168201806040525081019061199b9190619d99565b915061182d565b5090505b9392505050565b600a60209081526000928352604080842090915290825290205460ff1681565b600d602090815260009283526040808420909152908252902080546119f19061b57d565b80601f0160208091040260200160405190810160405280929190818152602001828054611a1d9061b57d565b8015611a6a5780601f10611a3f57610100808354040283529160200191611a6a565b820191906000526020600020905b815481529060010190602001808311611a4d57829003601f168201915b505050505081565b60176020526000908152604090205481565b601a8181548110611a9457600080fd5b6000918252602090912001546001600160a01b0316905081565b602954600160a01b900460ff1681565b60405160009080602081848060185afa611ad457fe5b5051919050565b60028160048110611aeb57600080fd5b60020201805460019091015490915082565b60166020528160005260406000208160048110611b1957600080fd5b600202018054600190910154909250905082565b6001600160a01b03811660009081526011602052604080822090516301c39b2b60e11b815273__$85afbab79b2b776d70bef879a32ed56424$__91630387365691611b7d91908590600401619fee565b60206040518083038186803b158015611b9557600080fd5b505af4158015611ba9573d6000803e3d6000fd5b505050506040513d601f19601f8201168201806040525081019061107f9190619d99565b6000611bd882616481565b611bf45760405162461bcd60e51b8152600401610eb29061ad43565b600082815260146020526040902060060154611c0f90615729565b15801561107f5750611c2082613d33565b1592915050565b60215490565b60265481565b6000611c60611c4183612ac3565b6001600160a01b0384166000908152601760205260409020549061707a565b905082811015611c825760405162461bcd60e51b8152600401610eb29061acc7565b6029546040805163ca64f9e760e01b815290516000926001600160a01b03169163ca64f9e7916004808301926020929190829003018186803b158015611cc757600080fd5b505afa158015611cdb573d6000803e3d6000fd5b505050506040513d601f19601f82011682018060405250810190611cff9190619ace565b604051630895993360e11b81529091506001600160a01b0382169063112b326690611d30908790879060040161b331565b602060405180830381600087803b158015611d4a57600080fd5b505af1158015611d5e573d6000803e3d6000fd5b505050506040513d601f19601f82011682018060405250810190611d829190619cbf565b611d9e5760405162461bcd60e51b8152600401610eb29061af75565b6001600160a01b03831660009081526017602052604081208054869290611dc690849061b53a565b92505081905550826001600160a01b03167ffaeb7dbb9992397d26ea1944efd40c80b40f702faf69b46c67ad10aba68ccb7985604051611e069190619fc9565b60405180910390a250505050565b600081815260146020908152604080832081516101c0810183528154815260018201549381019390935260028101549183019190915260038101546060830152600481015460ff808216151560808501526101008083048216151560a08601526201000090920416151560c0840152600582015460e08401526006820154908301526007810154610120830152600881015461014083015260098101805484939291610160840191611ec59061b57d565b80601f0160208091040260200160405190810160405280929190818152602001828054611ef19061b57d565b8015611f3e5780601f10611f1357610100808354040283529160200191611f3e565b820191906000526020600020905b815481529060010190602001808311611f2157829003601f168201915b5050509183525050600a8201546020820152600b82015460409091019060ff166003811115611f7d57634e487b7160e01b600052602160045260246000fd5b6003811115611f9c57634e487b7160e01b600052602160045260246000fd5b905250610140810151610120820151919250611fb79161b4ef565b602960009054906101000a90046001600160a01b03166001600160a01b031663ea19733c6040518163ffffffff1660e01b815260040160206040518083038186803b15801561200557600080fd5b505afa158015612019573d6000803e3d6000fd5b505050506040513d601f19601f8201168201806040525081019061203d9190619d99565b612047919061b51b565b61012082015161205890606461b51b565b119392505050565b612068616a9e565b6001600160a01b0316612079613a3f565b6001600160a01b03161461209f5760405162461bcd60e51b8152600401610eb29061aa42565b6000818152601360205260408120906120b88282619839565b6001820180546001600160a01b0319169055600060028301819055600383018190556120e8906004840190619839565b6120f6600583016000619839565b50600601805460ff1916905550565b60205490565b601a5490565b6001600160a01b0381166000908152601660205260408120906121366001600461b53a565b9050600082826004811061215a57634e487b7160e01b600052603260045260246000fd5b6002020154602954604080516307bc663b60e11b815290519293506001600160a01b0390911691630f78cc7691600480820192602092909190829003018186803b1580156121a757600080fd5b505afa1580156121bb573d6000803e3d6000fd5b505050506040513d601f19601f820116820180604052508101906121df9190619d99565b6121e9824261b53a565b11156122d25760005b6121fe6001600461b53a565b81101561227d578361221182600161b4ef565b6004811061222f57634e487b7160e01b600052603260045260246000fd5b6002020184826004811061225357634e487b7160e01b600052603260045260246000fd5b825460029190910291909101908155600191820154910155806122758161b5b8565b9150506121f2565b504283836004811061229f57634e487b7160e01b600052603260045260246000fd5b600202015560008383600481106122c657634e487b7160e01b600052603260045260246000fd5b60020201600101819055505b50505050565b6001600160a01b03811660009081526010602090815260409182902080548351818402810184019094528084526060939283018282801561233857602002820191906000526020600020905b815481526020019060010190808311612324575b50505050509050919050565b61234c619875565b60008281526013602052604090819020815160e081019092528054829082906123749061b57d565b80601f01602080910402602001604051908101604052809291908181526020018280546123a09061b57d565b80156123ed5780601f106123c2576101008083540402835291602001916123ed565b820191906000526020600020905b8154815290600101906020018083116123d057829003601f168201915b505050918352505060018201546001600160a01b0316602082015260028201546040820152600382015460608201526004820180546080909201916124319061b57d565b80601f016020809104026020016040519081016040528092919081815260200182805461245d9061b57d565b80156124aa5780601f1061247f576101008083540402835291602001916124aa565b820191906000526020600020905b81548152906001019060200180831161248d57829003601f168201915b505050505081526020016005820180546124c39061b57d565b80601f01602080910402602001604051908101604052809291908181526020018280546124ef9061b57d565b801561253c5780601f106125115761010080835404028352916020019161253c565b820191906000526020600020905b81548152906001019060200180831161251f57829003601f168201915b5050509183525050600682015460209091019060ff16600381111561257157634e487b7160e01b600052602160045260246000fd5b600381111561259057634e487b7160e01b600052602160045260246000fd5b90525092915050565b600e60209081526000928352604080842090915290825290205481565b601060205281600052604060002081815481106125d257600080fd5b90600052602060002001600091509150505481565b60606125f282616481565b61260e5760405162461bcd60e51b8152600401610eb29061ad43565b60008281526019602090815260408083208054825181850281018501909352808352919290919083018282801561266e57602002820191906000526020600020905b81546001600160a01b03168152600190910190602001808311612650575b50505050509050600081516001600160401b0381111561269e57634e487b7160e01b600052604160045260246000fd5b6040519080825280602002602001820160405280156126d157816020015b60608152602001906001900390816126bc5790505b50905060005b825181101561101e57600f6000868152602001908152602001600020600084838151811061271557634e487b7160e01b600052603260045260246000fd5b60200260200101516001600160a01b03166001600160a01b0316815260200190815260200160002080546127489061b57d565b80601f01602080910402602001604051908101604052809291908181526020018280546127749061b57d565b80156127c15780601f10612796576101008083540402835291602001916127c1565b820191906000526020600020905b8154815290600101906020018083116127a457829003601f168201915b50505050508282815181106127e657634e487b7160e01b600052603260045260246000fd5b602002602001018190525080806127fc9061b5b8565b9150506126d7565b60006128126001600461b53a565b905060006002826004811061283757634e487b7160e01b600052603260045260246000fd5b6002020154602954604080516307bc663b60e11b815290519293506001600160a01b0390911691630f78cc7691600480820192602092909190829003018186803b15801561288457600080fd5b505afa158015612898573d6000803e3d6000fd5b505050506040513d601f19601f820116820180604052508101906128bc9190619d99565b6128c6824261b53a565b11156129b95760005b6128db6001600461b53a565b81101561295c5760026128ef82600161b4ef565b6004811061290d57634e487b7160e01b600052603260045260246000fd5b600202016002826004811061293257634e487b7160e01b600052603260045260246000fd5b825460029190910291909101908155600191820154910155806129548161b5b8565b9150506128cf565b50426002836004811061297f57634e487b7160e01b600052603260045260246000fd5b60020201600001819055506000600283600481106129ad57634e487b7160e01b600052603260045260246000fd5b60020201600101819055505b5050565b6129c5616a9e565b6001600160a01b03166129d6613a3f565b6001600160a01b0316146129fc5760405162461bcd60e51b8152600401610eb29061aa42565b600081815260146020526040812081815560018101829055600281018290556003810182905560048101805462ffffff191690556005810182905560068101829055600781018290556008810182905590612a5a6009830182619839565b506000600a820155600b01805460ff1916905550565b6000612a7b82616481565b612a8757506000611023565b600082815260146020526040902060060154612aa290615729565b80612abc5750600082815260146020526040902060030154155b9050611023565b600061107f82610ce984611b2d565b6000612add82616481565b612ae957506000611023565b600082815260146020526040902060050154612b0490615729565b80612abc5750612abc82611bcd565b6001600160a01b031660009081526017602052604090205490565b612b36616a9e565b6001600160a01b0316612b47613a3f565b6001600160a01b031614612b6d5760405162461bcd60e51b8152600401610eb29061aa42565b612b776000617086565b565b6000612b8482616481565b612ba05760405162461bcd60e51b8152600401610eb29061ad43565b5060009081526014602052604090206006015490565b601b5490565b612bc4616a9e565b6001600160a01b0316612bd5613a3f565b6001600160a01b031614612bfb5760405162461bcd60e51b8152600401610eb29061aa42565b602255565b6000612c0b82616481565b612c275760405162461bcd60e51b8152600401610eb29061ad43565b6000612c3283613d33565b1561107f5760008381526014602052604090206005015461107c90429061b53a565b600073__$0947e710b66d7779e1d561254425e1375a$__63698101586012612c7c8686613cf4565b6040518363ffffffff1660e01b8152600401612c9992919061b202565b60206040518083038186803b158015612cb157600080fd5b505af4158015612cc5573d6000803e3d6000fd5b505050506040513d601f19601f8201168201806040525081019061107c9190619d99565b601b54601a54600091612cfb9161b4ef565b905090565b6000612d0b82616481565b612d275760405162461bcd60e51b8152600401610eb29061ad43565b506001600160a01b03919091166000908152600a60209081526040808320938352929052205460ff1690565b601460205260009081526040902080546001820154600283015460038401546004850154600586015460068701546007880154600889015460098a018054999a98999798969760ff80881698610100890482169862010000900490911696959493929091612dc09061b57d565b80601f0160208091040260200160405190810160405280929190818152602001828054612dec9061b57d565b8015612e395780601f10612e0e57610100808354040283529160200191612e39565b820191906000526020600020905b815481529060010190602001808311612e1c57829003601f168201915b50505050600a830154600b9093015491929160ff1690508e565b600080805b6004811015612ea95760028160048110612e8257634e487b7160e01b600052603260045260246000fd5b600202016001015482612e95919061b4ef565b915080612ea18161b5b8565b915050612e58565b50905090565b600080612ebc8487615387565b83101590506000612ecd8587615387565b84111580612ed9575085155b9050818015612ee55750805b979650505050505050565b601b8181548110611a9457600080fd5b612f0985613d33565b612f255760405162461bcd60e51b8152600401610eb29061a2c8565b336000908152600a6020908152604080832088845290915290205460ff1615612f605760405162461bcd60e51b8152600401610eb29061ae08565b612f6a85336153cc565b612f865760405162461bcd60e51b8152600401610eb29061a5a0565b60295460408051632a49798160e11b815290516000926001600160a01b031691635492f302916004808301926020929190829003018186803b158015612fcb57600080fd5b505afa158015612fdf573d6000803e3d6000fd5b505050506040513d601f19601f820116820180604052508101906130039190619ace565b6001600160a01b0316141561302a5760405162461bcd60e51b8152600401610eb29061afd2565b602954604080516001624ee91360e11b0319815290516000926001600160a01b03169163ff622dda916004808301926020929190829003018186803b15801561307257600080fd5b505afa158015613086573d6000803e3d6000fd5b505050506040513d601f19601f820116820180604052508101906130aa9190619d99565b905060006130b83383613569565b6001600160a01b03811660009081526017602052604090205490915082111561310d576001600160a01b0381166000908152601760205260408120546130ff90849061707a565b905061310b81836170d6565b505b6000336000908152601160205260408082209051631e0f232560e31b815273__$85afbab79b2b776d70bef879a32ed56424$__9163f07919289161315691908690600401619fee565b60206040518083038186803b15801561316e57600080fd5b505af4158015613182573d6000803e3d6000fd5b505050506040513d601f19601f820116820180604052508101906131a69190619d99565b90508881141561324b5733600090815260116020526040908190209051631e0f232560e31b815273__$85afbab79b2b776d70bef879a32ed56424$__9163f0791928916131f891908d90600401619fee565b60206040518083038186803b15801561321057600080fd5b505af4158015613224573d6000803e3d6000fd5b505050506040513d601f19601f820116820180604052508101906132489190619d99565b90505b61325782823387612eaf565b6132735760405162461bcd60e51b8152600401610eb29061a946565b3360009081526011602052604090819020905163524cfe5360e11b815273__$85afbab79b2b776d70bef879a32ed56424$__9163a499fca6916132bf919086908e90879060040161b27a565b60006040518083038186803b1580156132d757600080fd5b505af41580156132eb573d6000803e3d6000fd5b5050505060006132fb338b613cf4565b60405163099b040f60e31b815290915073__$0947e710b66d7779e1d561254425e1375a$__90634cd820789061333a9060129085908a9060040161b25c565b60006040518083038186803b15801561335257600080fd5b505af4158015613366573d6000803e3d6000fd5b505060405163099b040f60e31b815273__$0947e710b66d7779e1d561254425e1375a$__9250634cd8207891506133a69060129085908e9060040161b220565b60006040518083038186803b1580156133be57600080fd5b505af41580156133d2573d6000803e3d6000fd5b505060405163099b040f60e31b815273__$0947e710b66d7779e1d561254425e1375a$__9250634cd8207891506134129060129085908d9060040161b1d4565b60006040518083038186803b15801561342a57600080fd5b505af415801561343e573d6000803e3d6000fd5b50505060008b8152600e60209081526040808320338085529083528184208c90558e8452600f835281842090845282529091208851613482935090918901906198d9565b503360009081526015602090815260408083208d84526014909252909120600201546134af90600161707a565b60008c815260146020908152604080832060020193909355426003850155338252600a81528282208e83529052908120805460ff19166001908117909155602380549192909161350090849061b4ef565b9091555061350e9050616da1565b336001600160a01b03168b7f42864d9683ff5b12c3b2cc65d705af5aab104b03bc700b802f79e5c971ef08a1886040516135489190619fc9565b60405180910390a35050505050505050505050565b60205481565b601d5481565b6000806001600160a01b0316602960009054906101000a90046001600160a01b03166001600160a01b0316635492f3026040518163ffffffff1660e01b815260040160206040518083038186803b1580156135c357600080fd5b505afa1580156135d7573d6000803e3d6000fd5b505050506040513d601f19601f820116820180604052508101906135fb9190619ace565b6001600160a01b031614156136225760405162461bcd60e51b8152600401610eb29061afd2565b6029546040805163ca64f9e760e01b815290516000926001600160a01b03169163ca64f9e7916004808301926020929190829003018186803b15801561366757600080fd5b505afa15801561367b573d6000803e3d6000fd5b505050506040513d601f19601f8201168201806040525081019061369f9190619ace565b6001600160a01b031614156136c65760405162461bcd60e51b8152600401610eb29061aba0565b6029546040805163ca64f9e760e01b815290516000926001600160a01b03169163ca64f9e7916004808301926020929190829003018186803b15801561370b57600080fd5b505afa15801561371f573d6000803e3d6000fd5b505050506040513d601f19601f820116820180604052508101906137439190619ace565b90506000602960009054906101000a90046001600160a01b03166001600160a01b0316635492f3026040518163ffffffff1660e01b815260040160206040518083038186803b15801561379557600080fd5b505afa1580156137a9573d6000803e3d6000fd5b505050506040513d601f19601f820116820180604052508101906137cd9190619ace565b9050848060055b6001600160a01b038216158015906137ec5750600081115b156139b95760405163065ee72760e51b81526000906001600160a01b0387169063cbdce4e090613820908690600401619ffc565b60206040518083038186803b15801561383857600080fd5b505afa15801561384c573d6000803e3d6000fd5b505050506040513d601f19601f820116820180604052508101906138709190619d99565b6001600160a01b038416600090815260176020526040902054909150881161389b57829350506139b9565b6001600160a01b03831660009081526017602052604090205488108015906138da57506001600160a01b03831660009081526017602052604090205415155b15613918576001600160a01b038316600090815260176020526040812054613903908a9061707a565b90508082106139165783945050506139b9565b505b87811061392857829350506139b9565b60405163792f4f6960e11b81526001600160a01b0386169063f25e9ed290613954908690600401619ffc565b60206040518083038186803b15801561396c57600080fd5b505afa158015613980573d6000803e3d6000fd5b505050506040513d601f19601f820116820180604052508101906139a49190619ace565b92506139b160018361b53a565b9150506137d4565b50909695505050505050565b600f602090815260009283526040808420909152908252902080546119f19061b57d565b601560205260009081526040902080546001820154600283015460038401546004850154600586015460068701546007880154600890980154969760ff968716979596949584861695610100909504909416938a565b6000546001600160a01b031690565b60196020528160005260406000208181548110613a6a57600080fd5b6000918252602090912001546001600160a01b03169150829050565b60016000828152601460205260409020600b015460ff166003811115613abc57634e487b7160e01b600052602160045260246000fd5b14613ad95760405162461bcd60e51b8152600401610eb29061a232565b336000908152601160205260409081902090516306120d1f60e31b815273__$85afbab79b2b776d70bef879a32ed56424$__9163309068f891613b2191908590600401619fee565b60206040518083038186803b158015613b3957600080fd5b505af4158015613b4d573d6000803e3d6000fd5b505050506040513d601f19601f82011682018060405250810190613b719190619cbf565b613b8d5760405162461bcd60e51b8152600401610eb29061a831565b336000908152601160205260409081902090516301039dfd60e11b815273__$85afbab79b2b776d70bef879a32ed56424$__916302073bfa91613bd591908590600401619fee565b60006040518083038186803b158015613bed57600080fd5b505af4158015613c01573d6000803e3d6000fd5b50506040513392508391507f402507661c8c8cb90e0a796450b8bdd28b6c516f05279c0cd29e84c344e1699a90600090a350565b60245481565b6001600160a01b038116600090815260166020526040812081805b600481101561101e57828160048110613c7f57634e487b7160e01b600052603260045260246000fd5b600202016001015482613c92919061b4ef565b915080613c9e8161b5b8565b915050613c56565b60005b81518110156129b957613ce2828281518110613cd557634e487b7160e01b600052603260045260246000fd5b6020026020010151613a86565b80613cec8161b5b8565b915050613ca9565b60008282604051602001613d09929190619fa7565b60405160208183030381529060405280519060200120905092915050565b60245490565b60255481565b6000613d3e82616481565b613d5a5760405162461bcd60e51b8152600401610eb29061ad43565b600082815260146020526040902060050154613d7590615729565b15801561107f575050600090815260146020526040902060020154151590565b601e5490565b600081604051602001613dae9190619fd2565b6040516020818303038152906040528051906020012083604051602001613dd59190619fd2565b604051602081830303815290604052805190602001201415613df95750600161107f565b50600061107f565b613e0a84611bcd565b613e265760405162461bcd60e51b8152600401610eb29061ac81565b336000908152600a6020908152604080832087845290915290205460ff16613e605760405162461bcd60e51b8152600401610eb29061a70b565b336000908152600b6020908152604080832087845290915290205460ff1615613e9b5760405162461bcd60e51b8152600401610eb29061b093565b613ea53385612c54565b613eaf848361609a565b14613ecc5760405162461bcd60e51b8152600401610eb29061a38f565b613ed63385614261565b613ee0838361438b565b14613efd5760405162461bcd60e51b8152600401610eb29061a317565b6000613f093386615387565b90508260011415613f405760008581526014602052604081206007018054839290613f3590849061b4ef565b90915550613f679050565b60008581526014602052604081206008018054839290613f6190849061b4ef565b90915550505b336000908152601160205260409081902090516301039dfd60e11b815273__$85afbab79b2b776d70bef879a32ed56424$__916302073bfa91613faf91908990600401619fee565b60006040518083038186803b158015613fc757600080fd5b505af4158015613fdb573d6000803e3d6000fd5b5050336000818152600b602090815260408083208b84528252808320805460ff19166001179055600c825280832084845282528083208990558a8352600d8252808320938352928152919020875161403a9450909250908701906198d9565b5033600090815260156020908152604080832088845260149092529091206003015461406790600161707a565b60008781526014602052604090206003908101919091556001828101805460ff191690911790554290820155600481015460ff16156140b657600081556140ad33616c71565b6140b6336172fe565b6000868152601460205260409020600301546140d5576140d58661735b565b6001602360008282546140e8919061b4ef565b909155506140f69050616da1565b6000868152601460205260409081902060078101546008909101549151339287928a927f0867b5027231dcbf37614eaad07d667b9febaf9fdf483f488229b1f140bb07489261414992899290919061b3ad565b60405180910390a4505050505050565b600061416482616481565b6141805760405162461bcd60e51b8152600401610eb29061ad43565b506001600160a01b03919091166000908152600b60209081526040808320938352929052205460ff1690565b60008042416040516020016141c19190619f8a565b6040516020818303038152906040528051906020012060001c6141e4919061b507565b446141ed611abe565b6040516020016141fd9190619fc9565b60408051601f19818403018152919052805160209091012061421f904261b4ef565b614229919061b4ef565b614233919061b4ef565b6040516020016142439190619fc9565b60408051601f19818403018152919052805160209091012091505090565b600073__$0947e710b66d7779e1d561254425e1375a$__636981015860126142898686613cf4565b6040518363ffffffff1660e01b8152600401612c9992919061b1b6565b601c8181548110611a9457600080fd5b6001600160a01b03811660009081526015602090815260408083208151610140810183528154808252600183015460ff9081161580159684018790526002850154958401959095526003840154606084015260048401548082161515608085015261010090819004909116151560a0840152600584015460c0840152600684015460e08401526007840154908301526008909201546101208201528493909290614366575061436481611687565b155b8015614378575061437681612ad2565b155b1561438257600192505b50909392505050565b60008282604051602001613d09929190619fee565b6060600082116143c25760405162461bcd60e51b8152600401610eb29061aa1d565b6000416040516020016143d59190619f8a565b6040516020818303038152906040528051906020012060001c6143f6611abe565b6040516020016144069190619fc9565b60408051601f198184030181529190528051602090910120614428904261b4ef565b614432919061b4ef565b6040516020016144429190619fc9565b6040516020818303038152906040528051906020012060001c90506000846001600160401b0381111561448557634e487b7160e01b600052604160045260246000fd5b6040519080825280602002602001820160405280156144ae578160200160208202803683370190505b5090506000805b868210156145af576000866144ce63017efeeb8761b53a565b836040516020016144e0929190619fee565b6040516020818303038152906040528051906020012060001c614503919061b5d3565b90506000805b8481101561455b578286828151811061453257634e487b7160e01b600052603260045260246000fd5b60200260200101511415614549576001915061455b565b806145538161b5b8565b915050614509565b508061459b578185858151811061458257634e487b7160e01b600052603260045260246000fd5b602090810291909101015261459884600161b4ef565b93505b6145a683600161b4ef565b925050506144b5565b509095945050505050565b60006145c583611687565b6145e15760405162461bcd60e51b8152600401610eb29061af2b565b6001600160a01b0384166000908152600b6020908152604080832086845290915290205460ff166146245760405162461bcd60e51b8152600401610eb29061a88e565b600061462f84611e14565b61463a57600061463d565b60015b60ff16905060008184604051602001614657929190619fee565b604051602081830303815290604052805190602001209050600061467b8787614261565b905080821461469c5760405162461bcd60e51b8152600401610eb29061abe2565b612ee58787615387565b60606000821180156146b85750818311155b80156146c5575060018310155b6146e15760405162461bcd60e51b8152600401610eb29061a451565b6000826001600160401b0381111561470957634e487b7160e01b600052604160045260246000fd5b604051908082528060200260200182016040528015614732578160200160208202803683370190505b5090506000846001600160401b0381111561475d57634e487b7160e01b600052604160045260246000fd5b604051908082528060200260200182016040528015614786578160200160208202803683370190505b509050600061479c61479784618a95565b618aeb565b905060005b868110156145af578181815181106147c957634e487b7160e01b600052603260045260246000fd5b60200260200101518382815181106147f157634e487b7160e01b600052603260045260246000fd5b6020908102919091010152806148068161b5b8565b9150506147a1565b602954604080516309d0f8b560e31b815290516000926001600160a01b031691634e87c5a8916004808301926020929190829003018186803b15801561485357600080fd5b505afa158015614867573d6000803e3d6000fd5b505050506040513d601f19601f8201168201806040525081019061488b9190619cbf565b6148a75760405162461bcd60e51b8152600401610eb29061a75a565b855184146148c75760405162461bcd60e51b8152600401610eb29061adbb565b6148cf612804565b602960009054906101000a90046001600160a01b03166001600160a01b031663b38e885e6040518163ffffffff1660e01b815260040160206040518083038186803b15801561491d57600080fd5b505afa158015614931573d6000803e3d6000fd5b505050506040513d601f19601f820116820180604052508101906149559190619d99565b61495d612e53565b1061497a5760405162461bcd60e51b8152600401610eb29061a7db565b602954604080516001624ee91360e11b0319815290516000926001600160a01b03169163ff622dda916004808301926020929190829003018186803b1580156149c257600080fd5b505afa1580156149d6573d6000803e3d6000fd5b505050506040513d601f19601f820116820180604052508101906149fa9190619d99565b90506000614a083383613569565b9050614a1381612111565b602960009054906101000a90046001600160a01b03166001600160a01b031663be2509886040518163ffffffff1660e01b815260040160206040518083038186803b158015614a6157600080fd5b505afa158015614a75573d6000803e3d6000fd5b505050506040513d601f19601f82011682018060405250810190614a999190619d99565b614aa282613c3b565b10614abf5760405162461bcd60e51b8152600401610eb29061b016565b6001600160a01b038116600090815260176020526040902054821115614b11576001600160a01b038116600090815260176020526040812054614b0390849061707a565b9050614b0f81836170d6565b505b60005b88518110156152fe576000898281518110614b3f57634e487b7160e01b600052603260045260246000fd5b602002602001015190506000898984818110614b6b57634e487b7160e01b600052603260045260246000fd5b9050602002810190614b7d919061b453565b8080601f016020809104026020016040519081016040528093929190818152602001838380828437600092018290525033808252601060209081526040808420601e54815460018101835591865283862090910155805160e0810182528a8152918201929092524291810191909152606081018e90526080810186905260a081018d905294955060c0850193509150614c139050565b9052601e546000908152601360209081526040909120825180519192614c3e928492909101906198d9565b506020828101516001830180546001600160a01b0319166001600160a01b03909216919091179055604083015160028301556060830151600383015560808301518051614c9192600485019201906198d9565b5060a08201518051614cad9160058401916020909101906198d9565b5060c082015160068201805460ff19166001836003811115614cdf57634e487b7160e01b600052602160045260246000fd5b021790555050602080546000908152601482526040908190206029548251634e8f956d60e11b815292519194506001600160a01b031692639d1f2ada9260048082019391829003018186803b158015614d3757600080fd5b505afa158015614d4b573d6000803e3d6000fd5b505050506040513d601f19601f82011682018060405250810190614d6f9190619d99565b81600101541015614d95576001816001016000828254614d8f919061b4ef565b90915550505b602960009054906101000a90046001600160a01b03166001600160a01b0316639d1f2ada6040518163ffffffff1660e01b815260040160206040518083038186803b158015614de357600080fd5b505afa158015614df7573d6000803e3d6000fd5b505050506040513d601f19601f82011682018060405250810190614e1b9190619d99565b816001015410614e6b57600481018054600160ff19909116811761ff00191690915560208054600090614e4f90849061b4ef565b9091555050601e54602080546000908152601490915260409020555b601e54614e7990600161b4ef565b601e5560016002614e8b82600461b53a565b60048110614ea957634e487b7160e01b600052603260045260246000fd5b600202016001016000828254614ebf919061b4ef565b90915550506001600160a01b0385166000908152601660205260409020600181614eea82600461b53a565b60048110614f0857634e487b7160e01b600052603260045260246000fd5b600202016001016000828254614f1e919061b4ef565b90915550614f2c90506158b2565b60295460408051637b39b17f60e11b815290516000926001600160a01b03169163f67362fe916004808301926020929190829003018186803b158015614f7157600080fd5b505afa158015614f85573d6000803e3d6000fd5b505050506040513d601f19601f82011682018060405250810190614fa99190619ace565b9050806001600160a01b031663da14563a6040518163ffffffff1660e01b8152600401600060405180830381600087803b158015614fe657600080fd5b505af1925050508015614ff7575060015b615052573d808015615025576040519150601f19603f3d011682016040523d82523d6000602084013e61502a565b606091505b5060008051602061b63f83398151915281604051615048919061a0b3565b60405180910390a1505b60295460408051637a0ec25b60e01b815290516000926001600160a01b031691637a0ec25b916004808301926020929190829003018186803b15801561509757600080fd5b505afa1580156150ab573d6000803e3d6000fd5b505050506040513d601f19601f820116820180604052508101906150cf9190619ace565b9050806001600160a01b031663da14563a6040518163ffffffff1660e01b8152600401600060405180830381600087803b15801561510c57600080fd5b505af192505050801561511d575060015b615178573d80801561514b576040519150601f19603f3d011682016040523d82523d6000602084013e615150565b606091505b5060008051602061b63f8339815191528160405161516e919061a0b3565b60405180910390a1505b6029546040805163463444b760e01b815290516000926001600160a01b03169163463444b7916004808301926020929190829003018186803b1580156151bd57600080fd5b505afa1580156151d1573d6000803e3d6000fd5b505050506040513d601f19601f820116820180604052508101906151f59190619ace565b9050806001600160a01b031663da14563a6040518163ffffffff1660e01b8152600401600060405180830381600087803b15801561523257600080fd5b505af1925050508015615243575060015b61529e573d808015615271576040519150601f19603f3d011682016040523d82523d6000602084013e615276565b606091505b5060008051602061b63f83398151915281604051615294919061a0b3565b60405180910390a1505b886001600160a01b0316601e547fb819ca9ac369919119f75ec7363dd954f75bcfa75f9245647e03da413be0d58289896040516152dc92919061a138565b60405180910390a35050505050505080806152f69061b5b8565b915050614b14565b5033600090815260156020526040902042600382015561531c616da1565b60016023600082825461532f919061b4ef565b9091555050601e549998505050505050505050565b600061534f82616481565b61536b5760405162461bcd60e51b8152600401610eb29061ad43565b5060009081526014602052604090206005015490565b60015481565b600073__$0947e710b66d7779e1d561254425e1375a$__636981015860126153af8686613cf4565b6040518363ffffffff1660e01b8152600401612c9992919061b23e565b600082815260196020908152604080832080548251818502810185019093528083528493849392919083018282801561542e57602002820191906000526020600020905b81546001600160a01b03168152600190910190602001808311615410575b5050505050905060005b815181101561549d57846001600160a01b031682828151811061546b57634e487b7160e01b600052603260045260246000fd5b60200260200101516001600160a01b0316141561548b576001925061549d565b806154958161b5b8565b915050615438565b5090949350505050565b600b60209081526000928352604080842090915290825290205460ff1681565b601f5481565b60225481565b60606154de82616481565b6154fa5760405162461bcd60e51b8152600401610eb29061ad43565b60008281526019602090815260408083208054825181850281018501909352808352919290919083018282801561555a57602002820191906000526020600020905b81546001600160a01b0316815260019091019060200180831161553c575b50505050509050600081516001600160401b0381111561558a57634e487b7160e01b600052604160045260246000fd5b6040519080825280602002602001820160405280156155bd57816020015b60608152602001906001900390816155a85790505b50905060005b825181101561101e57600d6000868152602001908152602001600020600084838151811061560157634e487b7160e01b600052603260045260246000fd5b60200260200101516001600160a01b03166001600160a01b0316815260200190815260200160002080546156349061b57d565b80601f01602080910402602001604051908101604052809291908181526020018280546156609061b57d565b80156156ad5780601f10615682576101008083540402835291602001916156ad565b820191906000526020600020905b81548152906001019060200180831161569057829003601f168201915b50505050508282815181106156d257634e487b7160e01b600052603260045260246000fd5b602002602001018190525080806156e89061b5b8565b9150506155c3565b60186020528160005260406000208181548110613a6a57600080fd5b600c60209081526000928352604080842090915290825290205481565b421190565b61573661995d565b61573f82616481565b61574857600080fd5b60008281526014602090815260409182902082516101c0810184528154815260018201549281019290925260028101549282019290925260038201546060820152600482015460ff808216151560808401526101008083048216151560a08501526201000090920416151560c0830152600583015460e083015260068301549082015260078201546101208201526008820154610140820152600982018054919291610160840191906157fa9061b57d565b80601f01602080910402602001604051908101604052809291908181526020018280546158269061b57d565b80156158735780601f1061584857610100808354040283529160200191615873565b820191906000526020600020905b81548152906001019060200180831161585657829003601f168201915b5050509183525050600a8201546020820152600b82015460409091019060ff16600381111561257157634e487b7160e01b600052602160045260246000fd5b6158ba612804565b6158c2618c92565b60005b602960009054906101000a90046001600160a01b03166001600160a01b0316637d630cb06040518163ffffffff1660e01b815260040160206040518083038186803b15801561591357600080fd5b505afa158015615927573d6000803e3d6000fd5b505050506040513d601f19601f8201168201806040525081019061594b9190619d99565b811015615baa5760215460009081526014602052604081206004015462010000900460ff16151560011480156159a45750615987602154611687565b806159a45750602154600090815260146020526040902060030154155b156159ea57602154600090815260146020526040902060040154610100900460ff166159d5576159d560215461735b565b6021546159e3906001618e5b565b6021555060015b6159f2618e67565b60225460009081526014602052604090206004015462010000900460ff161515600114801590615aa95750602960009054906101000a90046001600160a01b03166001600160a01b031663bd40ef4c6040518163ffffffff1660e01b815260040160206040518083038186803b158015615a6b57600080fd5b505afa158015615a7f573d6000803e3d6000fd5b505050506040513d601f19601f82011682018060405250810190615aa39190619d99565b601a5410155b8015615ac9575060225460009081526014602052604090206004015460ff165b8015615ade5750615ad86141ac565b601d5414155b8015615b7b5750602960009054906101000a90046001600160a01b03166001600160a01b031663c4a306f86040518163ffffffff1660e01b815260040160206040518083038186803b158015615b3357600080fd5b505afa158015615b47573d6000803e3d6000fd5b505050506040513d601f19601f82011682018060405250810190615b6b9190619d99565b600154615b78904261b53a565b10155b15615b8c57615b88618f44565b5060015b80615b975750615baa565b5080615ba28161b5b8565b9150506158c5565b50612b77616da1565b606060008211615bd55760405162461bcd60e51b8152600401610eb29061a927565b6000826001600160401b03811115615bfd57634e487b7160e01b600052604160045260246000fd5b604051908082528060200260200182016040528015615c26578160200160208202803683370190505b5090506000615c3761479783618a95565b949350505050565b6060615c4a82616481565b615c5357600080fd5b60008281526014602052604090206009018054615c6f9061b57d565b80601f0160208091040260200160405190810160405280929190818152602001828054615c9b9061b57d565b80156123385780601f10615cbd57610100808354040283529160200191612338565b820191906000526020600020905b815481529060010190602001808311615ccb5750939695505050505050565b6001600160a01b031660009081526015602052604090206004015460ff1690565b60275481565b6060615d1c82616481565b615d385760405162461bcd60e51b8152600401610eb29061ad43565b600082815260146020908152604080832081516101c0810183528154815260018201549381019390935260028101549183019190915260038101546060830152600481015460ff808216151560808501526101008083048216151560a08601526201000090920416151560c0840152600582015460e08401526006820154908301526007810154610120830152600881015461014083015260098101805461016084019190615de69061b57d565b80601f0160208091040260200160405190810160405280929190818152602001828054615e129061b57d565b8015615e5f5780601f10615e3457610100808354040283529160200191615e5f565b820191906000526020600020905b815481529060010190602001808311615e4257829003601f168201915b5050509183525050600a8201546020820152600b82015460409091019060ff166003811115615e9e57634e487b7160e01b600052602160045260246000fd5b6003811115615ebd57634e487b7160e01b600052602160045260246000fd5b90525060208101519091506000816001600160401b03811115615ef057634e487b7160e01b600052604160045260246000fd5b604051908082528060200260200182016040528015615f2357816020015b6060815260200190600190039081615f0e5790505b50905060005b8281101561167e578351600090615f4190839061b4ef565b600081815260136020526040812080549293509091615f5f9061b57d565b80601f0160208091040260200160405190810160405280929190818152602001828054615f8b9061b57d565b8015615fd85780601f10615fad57610100808354040283529160200191615fd8565b820191906000526020600020905b815481529060010190602001808311615fbb57829003601f168201915b505050505090508084848151811061600057634e487b7160e01b600052603260045260246000fd5b6020026020010181905250505080806160189061b5b8565b915050615f29565b60215481565b60235481565b616034616a9e565b6001600160a01b0316616045613a3f565b6001600160a01b03161461606b5760405162461bcd60e51b8152600401610eb29061aa42565b6001600160a01b0381166160915760405162461bcd60e51b8152600401610eb29061a40b565b61180d81617086565b60008282604051602001613d0992919061a166565b60235490565b3360009081526015602090815260409182902060295483516398a54e2b60e01b8152935191936001600160a01b03909116926398a54e2b92600480840193829003018186803b15801561610757600080fd5b505afa15801561611b573d6000803e3d6000fd5b505050506040513d601f19601f8201168201806040525081019061613f9190619d99565b601b54601a5461614f919061b4ef565b1061616c5760405162461bcd60e51b8152600401610eb29061ae51565b600481015460ff16156161915760405162461bcd60e51b8152600401610eb29061a634565b61619a336195a6565b1580156161ad57506161ab33619616565b155b6161c95760405162461bcd60e51b8152600401610eb29061ab6b565b602960009054906101000a90046001600160a01b03166001600160a01b0316639fb491f66040518163ffffffff1660e01b815260040160206040518083038186803b15801561621757600080fd5b505afa15801561622b573d6000803e3d6000fd5b505050506040513d601f19601f8201168201806040525081019061624f9190619d99565b8160020154101580156162f45750602960009054906101000a90046001600160a01b03166001600160a01b0316630f1f0ffe6040518163ffffffff1660e01b815260040160206040518083038186803b1580156162ab57600080fd5b505afa1580156162bf573d6000803e3d6000fd5b505050506040513d601f19601f820116820180604052508101906162e39190619d99565b60058201546162f2904261b53a565b105b156163115760405162461bcd60e51b8152600401610eb29061ae93565b602954604080516001624ee91360e11b0319815290516000926001600160a01b03169163ff622dda916004808301926020929190829003018186803b15801561635957600080fd5b505afa15801561636d573d6000803e3d6000fd5b505050506040513d601f19601f820116820180604052508101906163919190619d99565b9050600061639f3383613569565b6001600160a01b0381166000908152601760205260409020549091508211156163f4576001600160a01b0381166000908152601760205260408120546163e690849061707a565b90506163f281836170d6565b505b600483018054600160ff19909116811761ff0019169091554260058501556000600285018190556023805490919061642d90849061b4ef565b9091555061643b9050616da1565b336001600160a01b03167f439d77b7534ec3108fc6143bd4fbabde0b9f2bb54f7b0730d1f70dd2135b765f426040516164749190619fc9565b60405180910390a2505050565b602054101590565b3360009081526015602052604090206004015460ff1690565b60255490565b6028546001600160a01b031681565b6001600160a01b03811660009081526015602090815260408083208151610140810183528154808252600183015460ff9081161515958301959095526002830154938201939093526003820154606082015260048201548085161515608083015261010090819004909416151560a0820152600582015460c0820152600682015460e08201526007820154938101939093526008015461012083015261655d8482612d00565b15801561656e575061656e81612ad2565b156119a6575060009392505050565b606060008311801561658e57508183105b6165aa5760405162461bcd60e51b8152600401610eb29061a7a4565b6000835b6165b984600161b4ef565b81101561677057600081815260146020908152604080832081516101c0810183528154815260018201549381019390935260028101549183019190915260038101546060830152600481015460ff808216151560808501526101008083048216151560a08601526201000090920416151560c0840152600582015460e0840152600682015490830152600781015461012083015260088101546101408301526009810180546101608401919061666e9061b57d565b80601f016020809104026020016040519081016040528092919081815260200182805461669a9061b57d565b80156166e75780601f106166bc576101008083540402835291602001916166e7565b820191906000526020600020905b8154815290600101906020018083116166ca57829003601f168201915b5050509183525050600a8201546020820152600b82015460409091019060ff16600381111561672657634e487b7160e01b600052602160045260246000fd5b600381111561674557634e487b7160e01b600052602160045260246000fd5b905250602081015190915061675a908461b4ef565b92505080806167689061b5b8565b9150506165ae565b506000816001600160401b0381111561679957634e487b7160e01b600052604160045260246000fd5b6040519080825280602002602001820160405280156167cc57816020015b60608152602001906001900390816167b75790505b5090506000855b6167de86600161b4ef565b8110156145af57600081815260146020908152604080832081516101c0810183528154815260018201549381019390935260028101549183019190915260038101546060830152600481015460ff808216151560808501526101008083048216151560a08601526201000090920416151560c0840152600582015460e084015260068201549083015260078101546101208301526008810154610140830152600981018054610160840191906168939061b57d565b80601f01602080910402602001604051908101604052809291908181526020018280546168bf9061b57d565b801561690c5780601f106168e15761010080835404028352916020019161690c565b820191906000526020600020905b8154815290600101906020018083116168ef57829003601f168201915b5050509183525050600a8201546020820152600b82015460409091019060ff16600381111561694b57634e487b7160e01b600052602160045260246000fd5b600381111561696a57634e487b7160e01b600052602160045260246000fd5b905250905060005b8160200151811015616a7a57815160009061698e90839061b4ef565b6000818152601360205260408120805492935090916169ac9061b57d565b80601f01602080910402602001604051908101604052809291908181526020018280546169d89061b57d565b8015616a255780601f106169fa57610100808354040283529160200191616a25565b820191906000526020600020905b815481529060010190602001808311616a0857829003601f168201915b5050505050905080878781518110616a4d57634e487b7160e01b600052603260045260246000fd5b6020908102919091010152616a6360018761b4ef565b955050508080616a729061b5b8565b915050616972565b50508080616a879061b5b8565b9150506167d3565b6029546001600160a01b031681565b3390565b600080805b601c54811015616b1257836001600160a01b0316601c8281548110616adc57634e487b7160e01b600052603260045260246000fd5b6000918252602090912001546001600160a01b03161415616b005760019150616b12565b80616b0a8161b5b8565b915050616aa7565b5092915050565b60008060005b601a54811015616b8d57836001600160a01b0316601a8281548110616b5457634e487b7160e01b600052603260045260246000fd5b6000918252602090912001546001600160a01b03161415616b7b5760019150809250616b8d565b80616b858161b5b8565b915050616b1f565b508015616c6c57601a8054616ba49060019061b53a565b81548110616bc257634e487b7160e01b600052603260045260246000fd5b600091825260209091200154601a80546001600160a01b039092169184908110616bfc57634e487b7160e01b600052603260045260246000fd5b9060005260206000200160006101000a8154816001600160a01b0302191690836001600160a01b03160217905550601a805480616c4957634e487b7160e01b600052603160045260246000fd5b600082815260209020810160001990810180546001600160a01b03191690550190555b505050565b60008060005b601b54811015616ce557836001600160a01b0316601b8281548110616cac57634e487b7160e01b600052603260045260246000fd5b6000918252602090912001546001600160a01b03161415616cd35760019150809250616ce5565b80616cdd8161b5b8565b915050616c77565b508015616c6c57601b8054616cfc9060019061b53a565b81548110616d1a57634e487b7160e01b600052603260045260246000fd5b600091825260209091200154601b80546001600160a01b039092169184908110616d5457634e487b7160e01b600052603260045260246000fd5b9060005260206000200160006101000a8154816001600160a01b0302191690836001600160a01b03160217905550601b805480616c4957634e487b7160e01b600052603160045260246000fd5b60295460408051632abe0d5f60e11b815290516000926001600160a01b03169163557c1abe916004808301926020929190829003018186803b158015616de657600080fd5b505afa925050508015616e16575060408051601f3d908101601f19168201909252616e1391810190619ace565b60015b616e75573d808015616e44576040519150601f19603f3d011682016040523d82523d6000602084013e616e49565b606091505b5060008051602061b63f83398151915281604051616e67919061a0b3565b60405180910390a150616e77565b505b602960009054906101000a90046001600160a01b03166001600160a01b031663557c1abe6040518163ffffffff1660e01b815260040160206040518083038186803b158015616ec557600080fd5b505afa158015616ed9573d6000803e3d6000fd5b505050506040513d601f19601f82011682018060405250810190616efd9190619ace565b90506001600160a01b038116616f255760405162461bcd60e51b8152600401610eb29061a5fd565b6000816001600160a01b031633604051602401616f429190619ffc565b60408051601f198184030181529181526020820180516001600160e01b0316631f5ac9c560e11b17905251616f779190619fd2565b6000604051808303816000865af19150503d8060008114616fb4576040519150601f19603f3d011682016040523d82523d6000602084013e616fb9565b606091505b505090506000826001600160a01b031633604051602401616fda9190619ffc565b60408051601f198184030181529181526020820180516001600160e01b03166358563d2160e01b1790525161700f9190619fd2565b6000604051808303816000865af19150503d806000811461704c576040519150601f19603f3d011682016040523d82523d6000602084013e617051565b606091505b50509050818061705e5750805b616c6c5760405162461bcd60e51b8152600401610eb29061a283565b600061107c828461b53a565b600080546001600160a01b038381166001600160a01b0319831681178455604051919092169283917f8be0079c531659141344cd1fd0a4f28419497f9722a3daafe3b4186f6b6457e09190a35050565b6029546040805163ca64f9e760e01b815290516000926001600160a01b03169163ca64f9e7916004808301926020929190829003018186803b15801561711b57600080fd5b505afa15801561712f573d6000803e3d6000fd5b505050506040513d601f19601f820116820180604052508101906171539190619ace565b6001600160a01b0316141561717a5760405162461bcd60e51b8152600401610eb29061aba0565b6029546040805163ca64f9e760e01b815290516000926001600160a01b03169163ca64f9e7916004808301926020929190829003018186803b1580156171bf57600080fd5b505afa1580156171d3573d6000803e3d6000fd5b505050506040513d601f19601f820116820180604052508101906171f79190619ace565b6040516304ada21f60e21b81529091506001600160a01b038216906312b6887c90617228908690869060040161b331565b602060405180830381600087803b15801561724257600080fd5b505af1158015617256573d6000803e3d6000fd5b505050506040513d601f19601f8201168201806040525081019061727a9190619cbf565b6172965760405162461bcd60e51b8152600401610eb29061a6ae565b6001600160a01b038216600090815260176020526040812080548592906172be90849061b4ef565b92505081905550816001600160a01b03167f5aa5d56140767016c877a5333ac3e1ad31a09051098a8fdf7297c4b64530a942846040516164749190619fc9565b617307816195a6565b61180d57601a80546001810182556000919091527f057c384a7d1c54f3a1b2e5e67b2617b8224fdfd1ea7234eea573a6ff665ff63e0180546001600160a01b0383166001600160a01b031990911617905550565b60295460408051632a49798160e11b815290516000926001600160a01b031691635492f302916004808301926020929190829003018186803b1580156173a057600080fd5b505afa1580156173b4573d6000803e3d6000fd5b505050506040513d601f19601f820116820180604052508101906173d89190619ace565b6001600160a01b031614156173ff5760405162461bcd60e51b8152600401610eb29061afd2565b60295460408051630855d15160e01b815290516000926001600160a01b031691630855d151916004808301926020929190829003018186803b15801561744457600080fd5b505afa158015617458573d6000803e3d6000fd5b505050506040513d601f19601f8201168201806040525081019061747c9190619ace565b6001600160a01b031614156174a35760405162461bcd60e51b8152600401610eb29061ad0e565b602954604080516304e76c8f60e01b815290516000926001600160a01b0316916304e76c8f916004808301926020929190829003018186803b1580156174e857600080fd5b505afa1580156174fc573d6000803e3d6000fd5b505050506040513d601f19601f820116820180604052508101906175209190619ace565b6001600160a01b031614156175475760405162461bcd60e51b8152600401610eb29061a4e4565b61755081611687565b8061756a5750600081815260146020526040902060030154155b6175865760405162461bcd60e51b8152600401610eb29061aac7565b600081815260146020526040902060040154610100900460ff16156175bd5760405162461bcd60e51b8152600401610eb29061ad7a565b60008181526019602090815260408083208054825181850281018501909352808352919290919083018282801561761d57602002820191906000526020600020905b81546001600160a01b031681526001909101906020018083116175ff575b50505050509050600081516001600160401b0381111561764d57634e487b7160e01b600052604160045260246000fd5b60405190808252806020026020018201604052801561768057816020015b606081526020019060019003908161766b5790505b509050600082516001600160401b038111156176ac57634e487b7160e01b600052604160045260246000fd5b6040519080825280602002602001820160405280156176d5578160200160208202803683370190505b50905060005b835181101561785857600084828151811061770657634e487b7160e01b600052603260045260246000fd5b6020908102919091018101516000888152600d835260408082206001600160a01b03841683529093529182208054919350906177419061b57d565b80601f016020809104026020016040519081016040528092919081815260200182805461776d9061b57d565b80156177ba5780601f1061778f576101008083540402835291602001916177ba565b820191906000526020600020905b81548152906001019060200180831161779d57829003601f168201915b50505060008a8152600e602090815260408083206001600160a01b03891684529091529020548851939450928492508891508690811061780a57634e487b7160e01b600052603260045260246000fd5b60200260200101819052508085858151811061783657634e487b7160e01b600052603260045260246000fd5b60200260200101818152505050505080806178509061b5b8565b9150506176db565b5060006179036064602960009054906101000a90046001600160a01b03166001600160a01b031663ea19733c6040518163ffffffff1660e01b815260040160206040518083038186803b1580156178ae57600080fd5b505afa1580156178c2573d6000803e3d6000fd5b505050506040513d601f19601f820116820180604052508101906178e69190619d99565b86516178f2919061b51b565b6178fc919061b507565b6001619686565b60408051602081019091526000808252919250905b8451811015617a01576000805b86518110156179b65761798687848151811061795157634e487b7160e01b600052603260045260246000fd5b602002602001015188838151811061797957634e487b7160e01b600052603260045260246000fd5b6020026020010151613d9b565b156179a45761799660018361b4ef565b91508482106179a4576179b6565b806179ae8161b5b8565b915050617925565b508381106179ee578582815181106179de57634e487b7160e01b600052603260045260246000fd5b6020026020010151925050617a01565b50806179f98161b5b8565b915050617918565b506000805b8451811015617ae8576000805b8651811015617a9d57868181518110617a3c57634e487b7160e01b600052603260045260246000fd5b6020026020010151878481518110617a6457634e487b7160e01b600052603260045260246000fd5b60200260200101511415617a8b57617a7d60018361b4ef565b9150858210617a8b57617a9d565b80617a958161b5b8565b915050617a13565b50848110617ad557858281518110617ac557634e487b7160e01b600052603260045260246000fd5b6020026020010151925050617ae8565b5080617ae08161b5b8565b915050617a06565b506000617af488611e14565b8015617b165750617b148360405180602001604052806000815250613d9b565b155b8015617b2157508115155b905060005b8751811015618243576000888281518110617b5157634e487b7160e01b600052603260045260246000fd5b602002602001015190506000600c60008c81526020019081526020016000206000836001600160a01b03166001600160a01b031681526020019081526020016000205490506000600b6000846001600160a01b03166001600160a01b0316815260200190815260200160002060008d815260200190815260200160002060009054906101000a900460ff169050600060156000856001600160a01b03166001600160a01b031681526020019081526020016000209050811561811c576001600160a01b03841660009081526015602052604081206001818101805460ff191682179055600290910191909155861515148015617c4d5750826001145b80617c62575085158015617c62575082600114155b156180fc5760295460408051632a49798160e11b815290516000926001600160a01b031691635492f302916004808301926020929190829003018186803b158015617cac57600080fd5b505afa158015617cc0573d6000803e3d6000fd5b505050506040513d601f19601f82011682018060405250810190617ce49190619ace565b90506000602960009054906101000a90046001600160a01b03166001600160a01b0316630855d1516040518163ffffffff1660e01b815260040160206040518083038186803b158015617d3657600080fd5b505afa158015617d4a573d6000803e3d6000fd5b505050506040513d601f19601f82011682018060405250810190617d6e9190619ace565b90506000602960009054906101000a90046001600160a01b03166001600160a01b03166304e76c8f6040518163ffffffff1660e01b815260040160206040518083038186803b158015617dc057600080fd5b505afa158015617dd4573d6000803e3d6000fd5b505050506040513d601f19601f82011682018060405250810190617df89190619ace565b90506000836001600160a01b03166311815086896040518263ffffffff1660e01b8152600401617e289190619ffc565b60206040518083038186803b158015617e4057600080fd5b505afa158015617e54573d6000803e3d6000fd5b505050506040513d601f19601f82011682018060405250810190617e789190619ace565b90508a156180d857826001600160a01b0316631b6d990a8c602960009054906101000a90046001600160a01b03166001600160a01b0316630b08bfd96040518163ffffffff1660e01b815260040160206040518083038186803b158015617ede57600080fd5b505afa158015617ef2573d6000803e3d6000fd5b505050506040513d601f19601f82011682018060405250810190617f169190619d99565b617f20919061b51b565b836040518363ffffffff1660e01b8152600401617f3e92919061b348565b602060405180830381600087803b158015617f5857600080fd5b505af1158015617f6c573d6000803e3d6000fd5b505050506040513d601f19601f82011682018060405250810190617f909190619cbf565b617fac5760405162461bcd60e51b8152600401610eb29061a669565b816001600160a01b031663e0ca50948c602960009054906101000a90046001600160a01b03166001600160a01b031663f80de0a06040518163ffffffff1660e01b815260040160206040518083038186803b15801561800a57600080fd5b505afa15801561801e573d6000803e3d6000fd5b505050506040513d601f19601f820116820180604052508101906180429190619d99565b61804c919061b51b565b836040518363ffffffff1660e01b815260040161806a92919061b331565b602060405180830381600087803b15801561808457600080fd5b505af1158015618098573d6000803e3d6000fd5b505050506040513d601f19601f820116820180604052508101906180bc9190619cbf565b6180d85760405162461bcd60e51b8152600401610eb29061ab24565b60018560070160008282546180ed919061b4ef565b90915550618117945050505050565b6001816008016000828254618111919061b4ef565b90915550505b618209565b6001600160a01b038416600090815260156020526040812060020180546001929061814890849061b4ef565b909155505060295460408051634fda48fb60e11b815290516001600160a01b0390921691639fb491f691600480820192602092909190829003018186803b15801561819257600080fd5b505afa1580156181a6573d6000803e3d6000fd5b505050506040513d601f19601f820116820180604052508101906181ca9190619d99565b6001600160a01b038516600090815260156020526040902060020154106182095760048101805460ff1916905561820084616b19565b61820984616c71565b60008155600481015460ff161561822c5761822384616c71565b61822c846172fe565b50505050808061823b9061b5b8565b915050617b26565b50600088815260146020908152604090912060048101805461ff001916610100179055845161827a926009909201918601906198d9565b506000888152601460205260409020600a01829055801561899457600088815260146020526040812080546001909101549091906182b8908361b4ef565b9050815b81811015618761576000818152601360209081526040808320600101546029548251632a49798160e11b815292516001600160a01b0392831695949190921692635492f3029260048083019392829003018186803b15801561831d57600080fd5b505afa158015618331573d6000803e3d6000fd5b505050506040513d601f19601f820116820180604052508101906183559190619ace565b90506000602960009054906101000a90046001600160a01b03166001600160a01b0316630855d1516040518163ffffffff1660e01b815260040160206040518083038186803b1580156183a757600080fd5b505afa1580156183bb573d6000803e3d6000fd5b505050506040513d601f19601f820116820180604052508101906183df9190619ace565b90506000602960009054906101000a90046001600160a01b03166001600160a01b03166304e76c8f6040518163ffffffff1660e01b815260040160206040518083038186803b15801561843157600080fd5b505afa158015618445573d6000803e3d6000fd5b505050506040513d601f19601f820116820180604052508101906184699190619ace565b90506000836001600160a01b03166311815086866040518263ffffffff1660e01b81526004016184999190619ffc565b60206040518083038186803b1580156184b157600080fd5b505afa1580156184c5573d6000803e3d6000fd5b505050506040513d601f19601f820116820180604052508101906184e99190619ace565b9050891561874957826001600160a01b0316631b6d990a8b602960009054906101000a90046001600160a01b03166001600160a01b031663abb10b9b6040518163ffffffff1660e01b815260040160206040518083038186803b15801561854f57600080fd5b505afa158015618563573d6000803e3d6000fd5b505050506040513d601f19601f820116820180604052508101906185879190619d99565b618591919061b51b565b836040518363ffffffff1660e01b81526004016185af92919061b348565b602060405180830381600087803b1580156185c957600080fd5b505af11580156185dd573d6000803e3d6000fd5b505050506040513d601f19601f820116820180604052508101906186019190619cbf565b61861d5760405162461bcd60e51b8152600401610eb29061a8d9565b816001600160a01b031663e0ca50948b602960009054906101000a90046001600160a01b03166001600160a01b03166330c0bb796040518163ffffffff1660e01b815260040160206040518083038186803b15801561867b57600080fd5b505afa15801561868f573d6000803e3d6000fd5b505050506040513d601f19601f820116820180604052508101906186b39190619d99565b6186bd919061b51b565b836040518363ffffffff1660e01b81526004016186db92919061b331565b602060405180830381600087803b1580156186f557600080fd5b505af1158015618709573d6000803e3d6000fd5b505050506040513d601f19601f8201168201806040525081019061872d9190619cbf565b6187495760405162461bcd60e51b8152600401610eb29061aa77565b505050505080806187599061b5b8565b9150506182bc565b5060008a8152601460205260408120600b01805460ff19166001908117909155602480549192909161879490849061b4ef565b909155505060295460408051637b39b17f60e11b815290516000926001600160a01b03169163f67362fe916004808301926020929190829003018186803b1580156187de57600080fd5b505afa1580156187f2573d6000803e3d6000fd5b505050506040513d601f19601f820116820180604052508101906188169190619ace565b6001600160a01b0316141561883d5760405162461bcd60e51b8152600401610eb29061a527565b60295460408051637b39b17f60e11b815290516000926001600160a01b03169163f67362fe916004808301926020929190829003018186803b15801561888257600080fd5b505afa158015618896573d6000803e3d6000fd5b505050506040513d601f19601f820116820180604052508101906188ba9190619ace565b6040516348257dc960e01b81529091506001600160a01b038216906348257dc9906188e9908e90600401619fc9565b600060405180830381600087803b15801561890357600080fd5b505af1925050508015618914575060015b618973573d808015618942576040519150601f19603f3d011682016040523d82523d6000602084013e618947565b606091505b5060008051602061b63f83398151915281604051618965919061a0b3565b60405180910390a15061898c565b600160236000828254618986919061b4ef565b90915550505b5050506189c9565b6000888152601460205260408120600b01805460ff1916600217905560258054600192906189c390849061b4ef565b90915550505b6001602360008282546189dc919061b4ef565b90915550506000888152601460205260408120600201546026805491929091618a0690849061b4ef565b90915550506000888152601460205260408120600301546027805491929091618a3090849061b4ef565b909155505060008881526013602052604090819020600181015491516001600160a01b03909216917f43916c3ae75995d24cc89b466ed08e6dba74d325f7957f9b37b05f150e12918e91618a839161a188565b60405180910390a25050505050505050565b805160609060005b81811015618ae35780848281518110618ac657634e487b7160e01b600052603260045260246000fd5b602090810291909101015280618adb8161b5b8565b915050618a9d565b509192915050565b60606000825111618b0e5760405162461bcd60e51b8152600401610eb29061a573565b81518060005b81811015618c8957600083618b276141ac565b878481518110618b4757634e487b7160e01b600052603260045260246000fd5b6020026020010151604051602001618b60929190619fee565b6040516020818303038152906040528051906020012060001c618b83919061b5d3565b618b8e90600161b4ef565b9050600086618b9e60018461b53a565b81518110618bbc57634e487b7160e01b600052603260045260246000fd5b6020026020010151905086600186618bd4919061b53a565b81518110618bf257634e487b7160e01b600052603260045260246000fd5b602002602001015187600184618c08919061b53a565b81518110618c2657634e487b7160e01b600052603260045260246000fd5b60209081029190910101528087618c3e60018861b53a565b81518110618c5c57634e487b7160e01b600052603260045260246000fd5b6020908102919091010152618c7260018661b53a565b945050508080618c819061b5b8565b915050618b14565b50929392505050565b6000601f54602154618ca4919061b53a565b9050602960009054906101000a90046001600160a01b03166001600160a01b031663e3115d3c6040518163ffffffff1660e01b815260040160206040518083038186803b158015618cf457600080fd5b505afa158015618d08573d6000803e3d6000fd5b505050506040513d601f19601f82011682018060405250810190618d2c9190619d99565b81111561180d5760005b602954604080516307d630cb60e41b81529051618dba926001600160a01b031691637d630cb0916004808301926020929190829003018186803b158015618d7c57600080fd5b505afa158015618d90573d6000803e3d6000fd5b505050506040513d601f19601f82011682018060405250810190618db49190619d99565b8361969d565b8110156129b957601f5460009081526014602052604081208054600190910154909190618de7908361b4ef565b9050815b81811015618e0e57618dfc81612060565b80618e068161b5b8565b915050618deb565b50618e1a601f546129bd565b601f546040517f72c2fcc891fe835b86fc8bb9abdc52adf52499c52289b3c49e1461eabea2717590600090a250508080618e539061b5b8565b915050618d36565b600061107c828461b4ef565b60005b601c5481101561180d576000601c8281548110618e9757634e487b7160e01b600052603260045260246000fd5b60009182526020808320909101546001600160a01b031680835260159091526040909120805491925090618f2f5760048101805461ffff19169055618edb826196ac565b618ee482616b19565b618eed82616c71565b816001600160a01b03167f9dadcedba048e92b943ea1c5861cee1df63a566d7f795869c004780c1c698e2b42604051618f269190619fc9565b60405180910390a25b50508080618f3c9061b5b8565b915050618e6a565b60225460009081526014602052604090206004015460ff16618f785760405162461bcd60e51b8152600401610eb29061ac2b565b60225460009081526014602052604090206004015462010000900460ff1615618fb35760405162461bcd60e51b8152600401610eb29061a974565b60006190d761904c601a80549050602960009054906101000a90046001600160a01b03166001600160a01b031663dfeceed76040518163ffffffff1660e01b815260040160206040518083038186803b15801561900f57600080fd5b505afa158015619023573d6000803e3d6000fd5b505050506040513d601f19601f820116820180604052508101906190479190619d99565b61969d565b602960009054906101000a90046001600160a01b03166001600160a01b031663bd40ef4c6040518163ffffffff1660e01b815260040160206040518083038186803b15801561909a57600080fd5b505afa1580156190ae573d6000803e3d6000fd5b505050506040513d601f19601f820116820180604052508101906190d29190619d99565b619686565b601a546029546040805163189460df60e31b8152905193945091926001600160a01b039091169163c4a306f8916004808301926020929190829003018186803b15801561912357600080fd5b505afa158015619137573d6000803e3d6000fd5b505050506040513d601f19601f8201168201806040525081019061915b9190619d99565b600154619168904261b53a565b106129b957602280546000908152601460209081526040808320600301869055925482528282206002018590556029548351631b4930b560e11b815293519293619217936001600160a01b0390921692633692616a92600480840193829003018186803b1580156191d857600080fd5b505afa1580156191ec573d6000803e3d6000fd5b505050506040513d601f19601f820116820180604052508101906192109190619d99565b4290618e5b565b905060006192ab602960009054906101000a90046001600160a01b03166001600160a01b03166372e540306040518163ffffffff1660e01b815260040160206040518083038186803b15801561926c57600080fd5b505afa158015619280573d6000803e3d6000fd5b505050506040513d601f19601f820116820180604052508101906192a49190619d99565b8390618e5b565b60228054600090815260146020526040808220600501869055825482528082206006018490559154815220600401805462ff00001916620100001790559050600184108015906192fc575060018310155b6193185760405162461bcd60e51b8152600401610eb29061a49a565b600061932485856146a6565b9050600081516001600160401b0381111561934f57634e487b7160e01b600052604160045260246000fd5b604051908082528060200260200182016040528015619378578160200160208202803683370190505b50905060005b825181101561943757601a8382815181106193a957634e487b7160e01b600052603260045260246000fd5b6020026020010151815481106193cf57634e487b7160e01b600052603260045260246000fd5b9060005260206000200160009054906101000a90046001600160a01b031682828151811061940d57634e487b7160e01b600052603260045260246000fd5b6001600160a01b03909216602092830291909101909101528061942f8161b5b8565b91505061937e565b5060005b825181101561956257600082828151811061946657634e487b7160e01b600052603260045260246000fd5b60200260200101519050600060156000836001600160a01b03166001600160a01b0316815260200190815260200160002090506194a282616b19565b6194ab826197dc565b602280546000908152601960209081526040822080546001808201835591845291832090910180546001600160a01b0319166001600160a01b03871617905591548355828201805460ff1916905560068301805490919061950d90849061b4ef565b90915550506022546040517fe4ee2dfabe57cee15e3f558890b20455f54c1fa0718e5276faad70a6500e6b8c90619545908590619ffc565b60405180910390a25050808061955a9061b5b8565b91505061943b565b5042600190815560225461957591618e5b565b6022556195806141ac565b601d81905550600160236000828254619599919061b4ef565b9091555050505050505050565b600080805b601a54811015616b1257836001600160a01b0316601a82815481106195e057634e487b7160e01b600052603260045260246000fd5b6000918252602090912001546001600160a01b031614156196045760019150616b12565b8061960e8161b5b8565b9150506195ab565b600080805b601b54811015616b1257836001600160a01b0316601b828154811061965057634e487b7160e01b600052603260045260246000fd5b6000918252602090912001546001600160a01b031614156196745760019150616b12565b8061967e8161b5b8565b91505061961b565b600081831015619696578161107c565b5090919050565b6000818310619696578161107c565b60008060005b601c5481101561972057836001600160a01b0316601c82815481106196e757634e487b7160e01b600052603260045260246000fd5b6000918252602090912001546001600160a01b0316141561970e5760019150809250619720565b806197188161b5b8565b9150506196b2565b508015616c6c57601c80546197379060019061b53a565b8154811061975557634e487b7160e01b600052603260045260246000fd5b600091825260209091200154601c80546001600160a01b03909216918490811061978f57634e487b7160e01b600052603260045260246000fd5b9060005260206000200160006101000a8154816001600160a01b0302191690836001600160a01b03160217905550601c805480616c4957634e487b7160e01b600052603160045260246000fd5b6197e581619616565b61180d57601b80546001810182556000919091527f3ad8aa4f87544323a9d1e5dd902f40c356527a7955687113db5f9a85ad579dc10180546001600160a01b0383166001600160a01b031990911617905550565b5080546198459061b57d565b6000825580601f10619857575061180d565b601f01602090049060005260206000209081019061180d91906199eb565b6040518060e001604052806060815260200160006001600160a01b0316815260200160008152602001600081526020016060815260200160608152602001600060038111156198d457634e487b7160e01b600052602160045260246000fd5b905290565b8280546198e59061b57d565b90600052602060002090601f016020900481019282619907576000855561994d565b82601f1061992057805160ff191683800117855561994d565b8280016001018555821561994d579182015b8281111561994d578251825591602001919060010190619932565b506199599291506199eb565b5090565b604051806101c0016040528060008152602001600081526020016000815260200160008152602001600015158152602001600015158152602001600015158152602001600081526020016000815260200160008152602001600081526020016060815260200160008152602001600060038111156198d457634e487b7160e01b600052602160045260246000fd5b5b8082111561995957600081556001016199ec565b60008083601f840112619a11578182fd5b5081356001600160401b03811115619a27578182fd5b6020830191508360208083028501011115619a4157600080fd5b9250929050565b600082601f830112619a58578081fd5b81356001600160401b03811115619a7157619a7161b613565b619a84601f8201601f191660200161b497565b818152846020838601011115619a98578283fd5b816020850160208301379081016020019190915292915050565b600060208284031215619ac3578081fd5b81356119a68161b629565b600060208284031215619adf578081fd5b81516119a68161b629565b60008060408385031215619afc578081fd5b8235619b078161b629565b946020939093013593505050565b600080600060608486031215619b29578081fd5b8335619b348161b629565b95602085013595506040909401359392505050565b600080600080600060808688031215619b60578081fd5b85356001600160401b0380821115619b76578283fd5b818801915088601f830112619b89578283fd5b81356020619b9e619b998361b4c0565b61b497565b82815281810190858301875b85811015619bd357619bc18f8684358b0101619a48565b84529284019290840190600101619baa565b50909a50505089013592505080821115619beb578283fd5b619bf789838a01619a00565b9096509450604088013593506060880135915080821115619c16578283fd5b50619c2388828901619a48565b9150509295509295909350565b60006020808385031215619c42578182fd5b82356001600160401b03811115619c57578283fd5b8301601f81018513619c67578283fd5b8035619c75619b998261b4c0565b8181528381019083850185840285018601891015619c91578687fd5b8694505b83851015619cb3578035835260019490940193918501918501619c95565b50979650505050505050565b600060208284031215619cd0578081fd5b815180151581146119a6578182fd5b60008060408385031215619cf1578182fd5b82356001600160401b0380821115619d07578384fd5b619d1386838701619a48565b93506020850135915080821115619d28578283fd5b50619d3585828601619a48565b9150509250929050565b60008060408385031215619d51578182fd5b82356001600160401b03811115619d66578283fd5b619d7285828601619a48565b95602094909401359450505050565b600060208284031215619d92578081fd5b5035919050565b600060208284031215611ad4578081fd5b60008060408385031215619dbc578182fd5b823591506020830135619dce8161b629565b809150509250929050565b600080600080600060a08688031215619df0578283fd5b8535945060208601359350604086013592506060860135915060808601356001600160401b03811115619e21578182fd5b619c2388828901619a48565b60008060008060808587031215619e42578182fd5b8435935060208501356001600160401b03811115619e5e578283fd5b619e6a87828801619a48565b949794965050505060408301359260600135919050565b60008060408385031215619e93578182fd5b50508035926020909101359150565b60008060008060808587031215619eb7578182fd5b84359350602085013592506040850135619ed08161b629565b9396929550929360600135925050565b15159052565b60008151808452619efe81602086016020860161b551565b601f01601f19169290920160200192915050565b60048110619f3057634e487b7160e01b600052602160045260246000fd5b9052565b600a815269636f6d6d6974566f746560b01b602082015260400190565b600a8152690c6dedadad2e890c2e6d60b31b602082015260400190565b60098152686e756d546f6b656e7360b81b602082015260400190565b60609190911b6bffffffffffffffffffffffff1916815260140190565b60609290921b6bffffffffffffffffffffffff19168252601482015260340190565b90815260200190565b60008251619fe481846020870161b551565b9190910192915050565b918252602082015260400190565b6001600160a01b0391909116815260200190565b6000602080830181845280855180835260408601915060408482028701019250838701855b8281101561a06357603f1988860301845261a051858351619ee6565b9450928501929085019060010161a035565b5092979650505050505050565b6020808252825182820181905260009190848201906040850190845b818110156139b95783518352928401929184019160010161a08c565b901515815260200190565b60006020825261107c6020830184619ee6565b600060e0825261a0d960e083018a619ee6565b6001600160a01b03891660208401526040830188905260608301879052828103608084015261a1088187619ee6565b905082810360a084015261a11c8186619ee6565b91505061a12c60c0830184619f12565b98975050505050505050565b60006040825261a14b6040830185619ee6565b828103602084015261a15d8185619ee6565b95945050505050565b60006040825261a1796040830185619ee6565b90508260208301529392505050565b600060208083528184548360028204905060018083168061a1aa57607f831692505b85831081141561a1c857634e487b7160e01b87526022600452602487fd5b61a1d483878a01619fc9565b81801561a1e8576001811461a1f95761a223565b60ff1986168252878201965061a223565b61a2028b61b4e3565b895b8681101561a21d5781548482015290850190890161a204565b83019750505b50949998505050505050505050565b60208082526031908201527f676976656e204461746142617463682073686f756c6420626520415050524f5660408201527011510b08185b99081a5d081a5cc81b9bdd607a1b606082015260800190565b60208082526025908201527f72656365697665722072656a6563746564205f7265747269657665534675656c6040820152640818d85b1b60da1b606082015260800190565b6020808252602f908201527f636f6d6d697420706572696f64206e6565647320746f206265206f70656e206660408201526e1bdc881d1a1a5cc818985d18da1259608a1b606082015260800190565b60208082526052908201527f4e6f74207468652073616d6520766f7465207468616e20636f6d6d697465642c60408201527f20696d706f737369626c6520746f206d61746368207769746820676976656e206060820152715f73616c742026205f636c656172566f746560701b608082015260a00190565b60208082526056908201527f4e6f74207468652073616d652068617368207468616e20636f6d6d697465642c60408201527f20696d706f737369626c6520746f206d61746368207769746820676976656e206060820152750bee6c2d8e8404c40bec6d8cac2e492a08ca690c2e6d60531b608082015260a00190565b60208082526026908201527f4f776e61626c653a206e6577206f776e657220697320746865207a65726f206160408201526564647265737360d01b606082015260800190565b60208082526029908201527f6b206f72204e20617265206e6f74204f4b20647572696e672072616e646f6d2060408201526839b2b632b1ba34b7b760b91b606082015260800190565b6020808252602a908201527f4661696c20647572696e6720616c6c6f636174696f6e3a206e6f7420656e6f75604082015269676820776f726b65727360b01b606082015260800190565b60208082526023908201527f5265776172644d616e61676572206973206e756c6c20696e20506172616d657460408201526265727360e81b606082015260800190565b6020808252602c908201527f436f6d706c69616e636553797374656d206e756c6c20696e20506172616d657460408201526b195c9cc810dbdb9d1c9858dd60a21b606082015260800190565b60208082526013908201527205f6d7941727261792e6c656e677468203e203606c1b604082015260600190565b60208082526038908201527f55736572206e6565647320746f20626520616c6c6f636174656420746f20746860408201527f697320626174636820746f20636f6d6d6974206f6e2069740000000000000000606082015260800190565b6020808252601d908201527f734675656c3a206e756c6c2041646472657373204e6f742056616c6964000000604082015260600190565b6020808252818101527f576f726b657220697320616c7265616479207265676973746572656420283129604082015260600190565b60208082526025908201527f636f756c64206e6f74207265776172642052455020696e2056616c69646174656040820152642c20312e6160d81b606082015260800190565b6020808252603f908201527f436f756c64206e6f74207265717565737420656e6f75676820616c6c6f63617460408201527f6564207374616b652c2072657175657374416c6c6f63617465645374616b6500606082015260800190565b6020808252602f908201527f5573657220686173206e6f7420636f6d6d69746564206265666f72652c20746860408201526e1d5cc818d85b89dd081c995d99585b608a1b606082015260800190565b6020808252602a908201527f53706f7474696e67206973206e6f742063757272656e746c7920656e61626c656040820152693210313c9027bbb732b960b11b606082015260800190565b6020808252601c908201527f496e70757420626f756e6461726965732061726520696e76616c696400000000604082015260600190565b60208082526036908201527f476c6f62616c206c696d69743a206578636565646564206d61782064617461206040820152753832b9103437bab916103932ba393c903630ba32b91760511b606082015260800190565b60208082526039908201527f646c6c4d61703a20646f6573206e6f7420636f696e7461696e205f446174614260408201527f61746368496420666f7220746865206d73672073656e64657200000000000000606082015260800190565b6020808252602b908201527f75736572206d75737420686176652072657665616c656420696e20746869732060408201526a0ced2eccadc4084c2e8c6d60ab1b606082015260800190565b6020808252602e908201527f636f756c64206e6f74207265776172642052455020696e2056616c696461746560408201526d4461746142617463682c20322e6160901b606082015260800190565b60208082526005908201526404e203e20360dc1b604082015260600190565b6020808252601490820152733737ba1030903b30b634b2103837b9b4ba34b7b760611b604082015260600190565b6020808252603b908201527f43616e277420616c6c6f6361746520776f726b2c207468652063757272656e7460408201527f20626174636820697320616c726561647920616c6c6f63617465640000000000606082015260800190565b6020808252602c908201527f576f726b6572206973206e6f74207265676973746572656420736f2063616e2760408201526b3a103ab73932b3b4b9ba32b960a11b606082015260800190565b6020808252600b908201526a04e5f72616e6765203e20360ac1b604082015260600190565b6020808252818101527f4f776e61626c653a2063616c6c6572206973206e6f7420746865206f776e6572604082015260600190565b60208082526030908201527f636f756c64206e6f742072657761726420746f6b656e20696e2056616c69646160408201526f3a32a230ba30a130ba31b4161019173160811b606082015260800190565b6020808252603a908201527f5f446174614261746368496420686173206e6f7420656e6465642c206f72206e60408201527f6f7420657665727920766f74657273206861766520766f746564000000000000606082015260800190565b60208082526027908201527f636f756c64206e6f742072657761726420746f6b656e20696e2056616c6964616040820152663a32961018973160c91b606082015260800190565b6020808252818101527f576f726b657220697320616c7265616479207265676973746572656420283229604082015260600190565b60208082526022908201527f5374616b654d616e61676572206973206e756c6c20696e20506172616d657465604082015261727360f01b606082015260800190565b60208082526029908201527f6765744e756d50617373696e67546f6b656e733a20686173686573206d75737460408201526808189948195c5d585b60ba1b606082015260800190565b60208082526036908201527f43616e277420616c6c6f6361746520776f726b2c207468652063757272656e74604082015275206261746368206973206e6f7420636f6d706c65746560501b606082015260800190565b60208082526026908201527f52657665616c20706572696f64206e6f74206f70656e20666f7220746869732060408201526511185d18525160d21b606082015260800190565b60208082526027908201527f617661696c61626c65546f6b656e732073686f756c64206265203e3d205f6e756040820152666d546f6b656e7360c81b606082015260800190565b6020808252818101527f5265704d616e61676572206973206e756c6c20696e20506172616d6574657273604082015260600190565b60208082526017908201527f5f4461746142617463684964206d757374206578697374000000000000000000604082015260600190565b60208082526021908201527f5f446174614261746368496420697320616c72656164792076616c69646174656040820152601960fa1b606082015260800190565b6020808252602d908201527f53706f7474696e673a20696e70757420617272617973206d757374206265206f60408201526c0cc40e6c2daca40d8cadccee8d609b1b606082015260800190565b60208082526029908201527f557365722068617320616c726561647920636f6d6d6974656420746f207468696040820152681cc818985d18da125960ba1b606082015260800190565b60208082526022908201527f4d6178696d756d207265676973746572656420776f726b65727320616c726561604082015261647960f01b606082015260800190565b6020808252606c908201527f5573657220686173206e6f7420766f746564206d616e792074696d657320696e60408201527f206120726f7720616e64206e6565647320746f2077616974204e4f564f54455f60608201527f524547495354524154494f4e5f574149545f4455524154494f4e20746f20726560808201526b33b4b9ba32b91030b3b0b4b760a11b60a082015260c00190565b6020808252602a908201527f5f446174614261746368496420636865636b696e6720766f7465206d757374206040820152691a185d9948195b99195960b21b606082015260800190565b6020808252603b908201527f436f756c64206e6f74207769746864726177566f74696e67526967687473207460408201527f68726f7567682050726f78795374616b654465616c6c6f636174650000000000606082015260800190565b60208082526024908201527f416464726573734d616e61676572206973206e756c6c20696e20506172616d656040820152637465727360e01b606082015260800190565b60208082526034908201527f55736572206c696d69743a206578636565646564206d6178206461746120706560408201527339103437bab916103932ba393c903630ba32b91760611b606082015260800190565b6020808252600f908201526e11185d18481b5d5cdd08195e1a5cdd608a1b604082015260600190565b6020808252602c908201527f557365722068617320616c72656164792072657665616c65642c20746875732060408201526b18d85b89dd081c995d99585b60a21b606082015260800190565b60006020825282516020830152602083015160408301526040830151606083015260608301516080830152608083015161b11c60a0840182619ee0565b5060a083015161b12f60c0840182619ee0565b5060c083015161b14260e0840182619ee0565b5060e0830151610100838101919091528301516101208084019190915283015161014080840191909152830151610160808401919091528301516101c061018080850182905261b1966101e0860184619ee6565b908601516101a08681019190915286015190925061549d82860182619f12565b600083825282602083015260606040830152615c3760608301619f34565b60008482528360208301526080604083015261b1f260808301619f34565b9050826060830152949350505050565b600083825282602083015260606040830152615c3760608301619f51565b60008482528360208301526080604083015261b1f260808301619f51565b600083825282602083015260606040830152615c3760608301619f6e565b60008482528360208301526080604083015261b1f260808301619f6e565b93845260208401929092526040830152606082015260800190565b600060208252825160e0602084015261b2b2610100840182619ee6565b905060018060a01b03602085015116604084015260408401516060840152606084015160808401526080840151601f19808584030160a086015261b2f68383619ee6565b925060a08601519150808584030160c08601525061b3148282619ee6565b91505060c084015161b32960e0850182619f12565b509392505050565b9182526001600160a01b0316602082015260400190565b9182526001600160a01b031660208201526000604082015260600190565b998a5297151560208a0152604089019690965260608801949094529115156080870152151560a086015260c085015260e08401526101008301526101208201526101400190565b9283526020830191909152604082015260600190565b60008f82528e60208301528d60408301528c60608301528b151560808301528a151560a083015261b3f760c083018b619ee0565b8860e08301528761010083015286610120830152856101408301526101c061016083015261b4296101c0830186619ee6565b90508361018083015261b4406101a0830184619f12565b9f9e505050505050505050505050505050565b6000808335601e1984360301811261b469578283fd5b8301803591506001600160401b0382111561b482578283fd5b602001915036819003821315619a4157600080fd5b6040518181016001600160401b038111828210171561b4b85761b4b861b613565b604052919050565b60006001600160401b0382111561b4d95761b4d961b613565b5060209081020190565b60009081526020902090565b6000821982111561b5025761b50261b5e7565b500190565b60008261b5165761b51661b5fd565b500490565b600081600019048311821515161561b5355761b53561b5e7565b500290565b60008282101561b54c5761b54c61b5e7565b500390565b60005b8381101561b56c57818101518382015260200161b554565b838111156122d25750506000910152565b60028104600182168061b59157607f821691505b6020821081141561b5b257634e487b7160e01b600052602260045260246000fd5b50919050565b600060001982141561b5cc5761b5cc61b5e7565b5060010190565b60008261b5e25761b5e261b5fd565b500690565b634e487b7160e01b600052601160045260246000fd5b634e487b7160e01b600052601260045260246000fd5b634e487b7160e01b600052604160045260246000fd5b6001600160a01b038116811461180d57600080fdfe4b87bbd93ba65ede1e2efeca735d9f7a6720bf7d6db0a8355b17dba5b64e5783a2646970667358221220e6f533ed87d2cbb7375ad5822979f68bdb403fcaae90eb641ec6575939aac22864736f6c63430008000033",
  "linkReferences": {
    "contracts/worksystems/DataSpotting.sol": {
      "AttributeStore": [
        {
          "length": 20,
          "start": 11707
        },
        {
          "length": 20,
          "start": 13424
        },
        {
          "length": 20,
          "start": 13530
        },
        {
          "length": 20,
          "start": 13638
        },
        {
          "length": 20,
          "start": 17352
        },
        {
          "length": 20,
          "start": 21742
        }
      ],
      "DLL": [
        {
          "length": 20,
          "start": 6617
        },
        {
          "length": 20,
          "start": 6789
        },
        {
          "length": 20,
          "start": 7351
        },
        {
          "length": 20,
          "start": 12944
        },
        {
          "length": 20,
          "start": 13106
        },
        {
          "length": 20,
          "start": 13301
        },
        {
          "length": 20,
          "start": 15451
        },
        {
          "length": 20,
          "start": 15631
        },
        {
          "length": 20,
          "start": 16617
        }
      ]
    }
  },
  "deployedLinkReferences": {
    "contracts/worksystems/DataSpotting.sol": {
      "AttributeStore": [
        {
          "length": 20,
          "start": 11352
        },
        {
          "length": 20,
          "start": 13069
        },
        {
          "length": 20,
          "start": 13175
        },
        {
          "length": 20,
          "start": 13283
        },
        {
          "length": 20,
          "start": 16997
        },
        {
          "length": 20,
          "start": 21387
        }
      ],
      "DLL": [
        {
          "length": 20,
          "start": 6262
        },
        {
          "length": 20,
          "start": 6434
        },
        {
          "length": 20,
          "start": 6996
        },
        {
          "length": 20,
          "start": 12589
        },
        {
          "length": 20,
          "start": 12751
        },
        {
          "length": 20,
          "start": 12946
        },
        {
          "length": 20,
          "start": 15096
        },
        {
          "length": 20,
          "start": 15276
        },
        {
          "length": 20,
          "start": 16262
        }
      ]
    }
  }
}