{
  "_format": "hh-sol-artifact-1",
  "contractName": "DataSpotting",
  "sourceName": "contracts/worksystems/DataSpotting.sol",
  "abi": [
    {
      "inputs": [
        {
          "internalType": "address",
          "name": "EXDT_token_",
          "type": "address"
        }
      ],
      "stateMutability": "nonpayable",
      "type": "constructor"
    },
    {
      "anonymous": false,
      "inputs": [
        {
          "indexed": false,
          "internalType": "bytes",
          "name": "bytesFailure",
          "type": "bytes"
        }
      ],
      "name": "BytesFailure",
      "type": "event"
    },
    {
      "anonymous": false,
      "inputs": [
        {
          "indexed": true,
          "internalType": "address",
          "name": "previousOwner",
          "type": "address"
        },
        {
          "indexed": true,
          "internalType": "address",
          "name": "newOwner",
          "type": "address"
        }
      ],
      "name": "OwnershipTransferred",
      "type": "event"
    },
    {
      "anonymous": false,
      "inputs": [
        {
          "indexed": true,
          "internalType": "uint256",
          "name": "batchID",
          "type": "uint256"
        }
      ],
      "name": "_DataBatchDeleted",
      "type": "event"
    },
    {
      "anonymous": false,
      "inputs": [
        {
          "indexed": false,
          "internalType": "string",
          "name": "hash",
          "type": "string"
        },
        {
          "indexed": true,
          "internalType": "address",
          "name": "creator",
          "type": "address"
        }
      ],
      "name": "_SpotAccepted",
      "type": "event"
    },
    {
      "anonymous": false,
      "inputs": [
        {
          "indexed": true,
          "internalType": "uint256",
          "name": "DataID",
          "type": "uint256"
        },
        {
          "indexed": false,
          "internalType": "uint256",
          "name": "numTokens",
          "type": "uint256"
        },
        {
          "indexed": true,
          "internalType": "address",
          "name": "voter",
          "type": "address"
        }
      ],
      "name": "_SpotCheckCommitted",
      "type": "event"
    },
    {
      "anonymous": false,
      "inputs": [
        {
          "indexed": true,
          "internalType": "uint256",
          "name": "DataID",
          "type": "uint256"
        },
        {
          "indexed": false,
          "internalType": "uint256",
          "name": "numTokens",
          "type": "uint256"
        },
        {
          "indexed": false,
          "internalType": "uint256",
          "name": "votesFor",
          "type": "uint256"
        },
        {
          "indexed": false,
          "internalType": "uint256",
          "name": "votesAgainst",
          "type": "uint256"
        },
        {
          "indexed": true,
          "internalType": "uint256",
          "name": "choice",
          "type": "uint256"
        },
        {
          "indexed": true,
          "internalType": "address",
          "name": "voter",
          "type": "address"
        }
      ],
      "name": "_SpotCheckRevealed",
      "type": "event"
    },
    {
      "anonymous": false,
      "inputs": [
        {
          "indexed": true,
          "internalType": "uint256",
          "name": "DataID",
          "type": "uint256"
        },
        {
          "indexed": false,
          "internalType": "string",
          "name": "file_hash",
          "type": "string"
        },
        {
          "indexed": false,
          "internalType": "string",
          "name": "URL_domain",
          "type": "string"
        },
        {
          "indexed": true,
          "internalType": "address",
          "name": "sender",
          "type": "address"
        }
      ],
      "name": "_SpotSubmitted",
      "type": "event"
    },
    {
      "anonymous": false,
      "inputs": [
        {
          "indexed": false,
          "internalType": "uint256",
          "name": "numTokens",
          "type": "uint256"
        },
        {
          "indexed": true,
          "internalType": "address",
          "name": "voter",
          "type": "address"
        }
      ],
      "name": "_StakeAllocated",
      "type": "event"
    },
    {
      "anonymous": false,
      "inputs": [
        {
          "indexed": true,
          "internalType": "uint256",
          "name": "DataID",
          "type": "uint256"
        },
        {
          "indexed": true,
          "internalType": "address",
          "name": "voter",
          "type": "address"
        }
      ],
      "name": "_TokensRescued",
      "type": "event"
    },
    {
      "anonymous": false,
      "inputs": [
        {
          "indexed": false,
          "internalType": "uint256",
          "name": "numTokens",
          "type": "uint256"
        },
        {
          "indexed": true,
          "internalType": "address",
          "name": "voter",
          "type": "address"
        }
      ],
      "name": "_VotingRightsWithdrawn",
      "type": "event"
    },
    {
      "anonymous": false,
      "inputs": [
        {
          "indexed": true,
          "internalType": "uint256",
          "name": "batchID",
          "type": "uint256"
        },
        {
          "indexed": false,
          "internalType": "address",
          "name": "worker",
          "type": "address"
        }
      ],
      "name": "_WorkAllocated",
      "type": "event"
    },
    {
      "anonymous": false,
      "inputs": [
        {
          "indexed": true,
          "internalType": "address",
          "name": "worker",
          "type": "address"
        },
        {
          "indexed": false,
          "internalType": "uint256",
          "name": "timestamp",
          "type": "uint256"
        }
      ],
      "name": "_WorkerRegistered",
      "type": "event"
    },
    {
      "anonymous": false,
      "inputs": [
        {
          "indexed": true,
          "internalType": "address",
          "name": "worker",
          "type": "address"
        },
        {
          "indexed": false,
          "internalType": "uint256",
          "name": "timestamp",
          "type": "uint256"
        }
      ],
      "name": "_WorkerUnregistered",
      "type": "event"
    },
    {
      "inputs": [],
      "name": "AcceptedBatchsCounter",
      "outputs": [
        {
          "internalType": "uint256",
          "name": "",
          "type": "uint256"
        }
      ],
      "stateMutability": "view",
      "type": "function"
    },
    {
      "inputs": [],
      "name": "AllTxsCounter",
      "outputs": [
        {
          "internalType": "uint256",
          "name": "",
          "type": "uint256"
        }
      ],
      "stateMutability": "view",
      "type": "function"
    },
    {
      "inputs": [],
      "name": "AllocateWork",
      "outputs": [],
      "stateMutability": "nonpayable",
      "type": "function"
    },
    {
      "inputs": [],
      "name": "AllocatedBatchCursor",
      "outputs": [
        {
          "internalType": "uint256",
          "name": "",
          "type": "uint256"
        }
      ],
      "stateMutability": "view",
      "type": "function"
    },
    {
      "inputs": [],
      "name": "AmIRegistered",
      "outputs": [
        {
          "internalType": "bool",
          "name": "passed",
          "type": "bool"
        }
      ],
      "stateMutability": "view",
      "type": "function"
    },
    {
      "inputs": [
        {
          "internalType": "string",
          "name": "_a",
          "type": "string"
        },
        {
          "internalType": "string",
          "name": "_b",
          "type": "string"
        }
      ],
      "name": "AreStringsEqual",
      "outputs": [
        {
          "internalType": "bool",
          "name": "",
          "type": "bool"
        }
      ],
      "stateMutability": "pure",
      "type": "function"
    },
    {
      "inputs": [],
      "name": "BatchCheckingCursor",
      "outputs": [
        {
          "internalType": "uint256",
          "name": "",
          "type": "uint256"
        }
      ],
      "stateMutability": "view",
      "type": "function"
    },
    {
      "inputs": [],
      "name": "BatchDeletionCursor",
      "outputs": [
        {
          "internalType": "uint256",
          "name": "",
          "type": "uint256"
        }
      ],
      "stateMutability": "view",
      "type": "function"
    },
    {
      "inputs": [
        {
          "internalType": "uint256",
          "name": "",
          "type": "uint256"
        }
      ],
      "name": "DataBatch",
      "outputs": [
        {
          "internalType": "uint256",
          "name": "start_idx",
          "type": "uint256"
        },
        {
          "internalType": "uint256",
          "name": "counter",
          "type": "uint256"
        },
        {
          "internalType": "uint256",
          "name": "uncommited_workers",
          "type": "uint256"
        },
        {
          "internalType": "uint256",
          "name": "unrevealed_workers",
          "type": "uint256"
        },
        {
          "internalType": "bool",
          "name": "complete",
          "type": "bool"
        },
        {
          "internalType": "bool",
          "name": "checked",
          "type": "bool"
        },
        {
          "internalType": "bool",
          "name": "allocated_to_work",
          "type": "bool"
        },
        {
          "internalType": "uint256",
          "name": "commitEndDate",
          "type": "uint256"
        },
        {
          "internalType": "uint256",
          "name": "revealEndDate",
          "type": "uint256"
        },
        {
          "internalType": "uint256",
          "name": "votesFor",
          "type": "uint256"
        },
        {
          "internalType": "uint256",
          "name": "votesAgainst",
          "type": "uint256"
        },
        {
          "internalType": "string",
          "name": "batchIPFSfile",
          "type": "string"
        },
        {
          "internalType": "uint256",
          "name": "item_count",
          "type": "uint256"
        },
        {
          "internalType": "enum DataSpotting.DataStatus",
          "name": "status",
          "type": "uint8"
        }
      ],
      "stateMutability": "view",
      "type": "function"
    },
    {
      "inputs": [
        {
          "internalType": "uint256",
          "name": "_DataBatchId",
          "type": "uint256"
        }
      ],
      "name": "DataCommitEndDate",
      "outputs": [
        {
          "internalType": "uint256",
          "name": "commitEndDate",
          "type": "uint256"
        }
      ],
      "stateMutability": "view",
      "type": "function"
    },
    {
      "inputs": [
        {
          "internalType": "uint256",
          "name": "_DataBatchId",
          "type": "uint256"
        }
      ],
      "name": "DataEnded",
      "outputs": [
        {
          "internalType": "bool",
          "name": "ended",
          "type": "bool"
        }
      ],
      "stateMutability": "view",
      "type": "function"
    },
    {
      "inputs": [
        {
          "internalType": "uint256",
          "name": "_DataBatchId",
          "type": "uint256"
        }
      ],
      "name": "DataExists",
      "outputs": [
        {
          "internalType": "bool",
          "name": "exists",
          "type": "bool"
        }
      ],
      "stateMutability": "view",
      "type": "function"
    },
    {
      "inputs": [],
      "name": "DataNonce",
      "outputs": [
        {
          "internalType": "uint256",
          "name": "",
          "type": "uint256"
        }
      ],
      "stateMutability": "view",
      "type": "function"
    },
    {
      "inputs": [
        {
          "internalType": "uint256",
          "name": "_DataBatchId",
          "type": "uint256"
        }
      ],
      "name": "DataRevealEndDate",
      "outputs": [
        {
          "internalType": "uint256",
          "name": "revealEndDate",
          "type": "uint256"
        }
      ],
      "stateMutability": "view",
      "type": "function"
    },
    {
      "inputs": [
        {
          "internalType": "address",
          "name": "user_",
          "type": "address"
        }
      ],
      "name": "GetCurrentWork",
      "outputs": [
        {
          "internalType": "uint256",
          "name": "",
          "type": "uint256"
        }
      ],
      "stateMutability": "view",
      "type": "function"
    },
    {
      "inputs": [
        {
          "internalType": "uint256",
          "name": "",
          "type": "uint256"
        }
      ],
      "name": "GlobalSpotFlowManager",
      "outputs": [
        {
          "internalType": "uint256",
          "name": "timestamp",
          "type": "uint256"
        },
        {
          "internalType": "uint256",
          "name": "counter",
          "type": "uint256"
        }
      ],
      "stateMutability": "view",
      "type": "function"
    },
    {
      "inputs": [
        {
          "internalType": "address",
          "name": "user_",
          "type": "address"
        }
      ],
      "name": "IsNewWorkAvailable",
      "outputs": [
        {
          "internalType": "bool",
          "name": "",
          "type": "bool"
        }
      ],
      "stateMutability": "view",
      "type": "function"
    },
    {
      "inputs": [],
      "name": "LastAllocationTime",
      "outputs": [
        {
          "internalType": "uint256",
          "name": "",
          "type": "uint256"
        }
      ],
      "stateMutability": "view",
      "type": "function"
    },
    {
      "inputs": [],
      "name": "LastBatchCounter",
      "outputs": [
        {
          "internalType": "uint256",
          "name": "",
          "type": "uint256"
        }
      ],
      "stateMutability": "view",
      "type": "function"
    },
    {
      "inputs": [
        {
          "internalType": "address",
          "name": "",
          "type": "address"
        },
        {
          "internalType": "uint256",
          "name": "",
          "type": "uint256"
        }
      ],
      "name": "MasterWorkers",
      "outputs": [
        {
          "internalType": "address",
          "name": "",
          "type": "address"
        }
      ],
      "stateMutability": "view",
      "type": "function"
    },
    {
      "inputs": [],
      "name": "NotCommitedCounter",
      "outputs": [
        {
          "internalType": "uint256",
          "name": "",
          "type": "uint256"
        }
      ],
      "stateMutability": "view",
      "type": "function"
    },
    {
      "inputs": [],
      "name": "NotRevealedCounter",
      "outputs": [
        {
          "internalType": "uint256",
          "name": "",
          "type": "uint256"
        }
      ],
      "stateMutability": "view",
      "type": "function"
    },
    {
      "inputs": [],
      "name": "Parameters",
      "outputs": [
        {
          "internalType": "contract IParametersManager",
          "name": "",
          "type": "address"
        }
      ],
      "stateMutability": "view",
      "type": "function"
    },
    {
      "inputs": [],
      "name": "RegisterWorker",
      "outputs": [],
      "stateMutability": "nonpayable",
      "type": "function"
    },
    {
      "inputs": [],
      "name": "RejectedBatchsCounter",
      "outputs": [
        {
          "internalType": "uint256",
          "name": "",
          "type": "uint256"
        }
      ],
      "stateMutability": "view",
      "type": "function"
    },
    {
      "inputs": [],
      "name": "SPOT_TOGGLE_ENABLED",
      "outputs": [
        {
          "internalType": "bool",
          "name": "",
          "type": "bool"
        }
      ],
      "stateMutability": "view",
      "type": "function"
    },
    {
      "inputs": [
        {
          "internalType": "address",
          "name": "_worker",
          "type": "address"
        }
      ],
      "name": "SelectAddressForUser",
      "outputs": [
        {
          "internalType": "address",
          "name": "",
          "type": "address"
        }
      ],
      "stateMutability": "view",
      "type": "function"
    },
    {
      "inputs": [
        {
          "internalType": "string[]",
          "name": "file_hashs",
          "type": "string[]"
        },
        {
          "internalType": "string[]",
          "name": "URL_domains",
          "type": "string[]"
        },
        {
          "internalType": "uint256",
          "name": "item_count_",
          "type": "uint256"
        },
        {
          "internalType": "string",
          "name": "extra_",
          "type": "string"
        }
      ],
      "name": "SpotData",
      "outputs": [
        {
          "internalType": "uint256",
          "name": "Dataid_",
          "type": "uint256"
        }
      ],
      "stateMutability": "nonpayable",
      "type": "function"
    },
    {
      "inputs": [
        {
          "internalType": "uint256",
          "name": "",
          "type": "uint256"
        }
      ],
      "name": "SpotsMapping",
      "outputs": [
        {
          "internalType": "string",
          "name": "ipfs_hash",
          "type": "string"
        },
        {
          "internalType": "address",
          "name": "author",
          "type": "address"
        },
        {
          "internalType": "uint256",
          "name": "timestamp",
          "type": "uint256"
        },
        {
          "internalType": "uint256",
          "name": "item_count",
          "type": "uint256"
        },
        {
          "internalType": "string",
          "name": "URL_domain",
          "type": "string"
        },
        {
          "internalType": "string",
          "name": "extra",
          "type": "string"
        },
        {
          "internalType": "enum DataSpotting.DataStatus",
          "name": "status",
          "type": "uint8"
        }
      ],
      "stateMutability": "view",
      "type": "function"
    },
    {
      "inputs": [
        {
          "internalType": "address",
          "name": "",
          "type": "address"
        }
      ],
      "name": "SystemStakedTokenBalance",
      "outputs": [
        {
          "internalType": "uint256",
          "name": "",
          "type": "uint256"
        }
      ],
      "stateMutability": "view",
      "type": "function"
    },
    {
      "inputs": [],
      "name": "TriggerUpdate",
      "outputs": [],
      "stateMutability": "nonpayable",
      "type": "function"
    },
    {
      "inputs": [],
      "name": "UnregisterWorker",
      "outputs": [],
      "stateMutability": "nonpayable",
      "type": "function"
    },
    {
      "inputs": [
        {
          "internalType": "uint256",
          "name": "",
          "type": "uint256"
        },
        {
          "internalType": "address",
          "name": "",
          "type": "address"
        }
      ],
      "name": "UserBatchCounts",
      "outputs": [
        {
          "internalType": "uint256",
          "name": "",
          "type": "uint256"
        }
      ],
      "stateMutability": "view",
      "type": "function"
    },
    {
      "inputs": [
        {
          "internalType": "uint256",
          "name": "",
          "type": "uint256"
        },
        {
          "internalType": "address",
          "name": "",
          "type": "address"
        }
      ],
      "name": "UserBatchFrom",
      "outputs": [
        {
          "internalType": "string",
          "name": "",
          "type": "string"
        }
      ],
      "stateMutability": "view",
      "type": "function"
    },
    {
      "inputs": [
        {
          "internalType": "address",
          "name": "",
          "type": "address"
        },
        {
          "internalType": "uint256",
          "name": "",
          "type": "uint256"
        }
      ],
      "name": "UserChecksCommits",
      "outputs": [
        {
          "internalType": "bool",
          "name": "",
          "type": "bool"
        }
      ],
      "stateMutability": "view",
      "type": "function"
    },
    {
      "inputs": [
        {
          "internalType": "address",
          "name": "",
          "type": "address"
        },
        {
          "internalType": "uint256",
          "name": "",
          "type": "uint256"
        }
      ],
      "name": "UserChecksReveals",
      "outputs": [
        {
          "internalType": "bool",
          "name": "",
          "type": "bool"
        }
      ],
      "stateMutability": "view",
      "type": "function"
    },
    {
      "inputs": [
        {
          "internalType": "uint256",
          "name": "",
          "type": "uint256"
        },
        {
          "internalType": "address",
          "name": "",
          "type": "address"
        }
      ],
      "name": "UserNewFiles",
      "outputs": [
        {
          "internalType": "string",
          "name": "",
          "type": "string"
        }
      ],
      "stateMutability": "view",
      "type": "function"
    },
    {
      "inputs": [
        {
          "internalType": "address",
          "name": "",
          "type": "address"
        },
        {
          "internalType": "uint256",
          "name": "",
          "type": "uint256"
        }
      ],
      "name": "UserSubmissions",
      "outputs": [
        {
          "internalType": "uint256",
          "name": "",
          "type": "uint256"
        }
      ],
      "stateMutability": "view",
      "type": "function"
    },
    {
      "inputs": [
        {
          "internalType": "uint256",
          "name": "",
          "type": "uint256"
        },
        {
          "internalType": "address",
          "name": "",
          "type": "address"
        }
      ],
      "name": "UserVotes",
      "outputs": [
        {
          "internalType": "uint256",
          "name": "",
          "type": "uint256"
        }
      ],
      "stateMutability": "view",
      "type": "function"
    },
    {
      "inputs": [
        {
          "internalType": "uint256",
          "name": "",
          "type": "uint256"
        },
        {
          "internalType": "uint256",
          "name": "",
          "type": "uint256"
        }
      ],
      "name": "WorkersPerBatch",
      "outputs": [
        {
          "internalType": "address",
          "name": "",
          "type": "address"
        }
      ],
      "stateMutability": "view",
      "type": "function"
    },
    {
      "inputs": [
        {
          "internalType": "address",
          "name": "",
          "type": "address"
        },
        {
          "internalType": "uint256",
          "name": "",
          "type": "uint256"
        }
      ],
      "name": "WorkersSpotFlowManager",
      "outputs": [
        {
          "internalType": "uint256",
          "name": "timestamp",
          "type": "uint256"
        },
        {
          "internalType": "uint256",
          "name": "counter",
          "type": "uint256"
        }
      ],
      "stateMutability": "view",
      "type": "function"
    },
    {
      "inputs": [
        {
          "internalType": "address",
          "name": "",
          "type": "address"
        }
      ],
      "name": "WorkersState",
      "outputs": [
        {
          "internalType": "address",
          "name": "worker_address",
          "type": "address"
        },
        {
          "internalType": "uint256",
          "name": "allocated_work_batch",
          "type": "uint256"
        },
        {
          "internalType": "bool",
          "name": "has_completed_work",
          "type": "bool"
        },
        {
          "internalType": "uint256",
          "name": "succeeding_novote_count",
          "type": "uint256"
        },
        {
          "internalType": "uint256",
          "name": "last_interaction_date",
          "type": "uint256"
        },
        {
          "internalType": "bool",
          "name": "registered",
          "type": "bool"
        },
        {
          "internalType": "bool",
          "name": "unregistration_request",
          "type": "bool"
        },
        {
          "internalType": "uint256",
          "name": "registration_date",
          "type": "uint256"
        },
        {
          "internalType": "uint256",
          "name": "majority_counter",
          "type": "uint256"
        },
        {
          "internalType": "uint256",
          "name": "minority_counter",
          "type": "uint256"
        }
      ],
      "stateMutability": "view",
      "type": "function"
    },
    {
      "inputs": [
        {
          "internalType": "address",
          "name": "_user",
          "type": "address"
        },
        {
          "internalType": "uint256",
          "name": "_DataBatchId",
          "type": "uint256"
        }
      ],
      "name": "attrUUID",
      "outputs": [
        {
          "internalType": "bytes32",
          "name": "UUID",
          "type": "bytes32"
        }
      ],
      "stateMutability": "pure",
      "type": "function"
    },
    {
      "inputs": [
        {
          "internalType": "uint256",
          "name": "",
          "type": "uint256"
        }
      ],
      "name": "availableWorkers",
      "outputs": [
        {
          "internalType": "address",
          "name": "",
          "type": "address"
        }
      ],
      "stateMutability": "view",
      "type": "function"
    },
    {
      "inputs": [
        {
          "internalType": "uint256",
          "name": "",
          "type": "uint256"
        }
      ],
      "name": "busyWorkers",
      "outputs": [
        {
          "internalType": "address",
          "name": "",
          "type": "address"
        }
      ],
      "stateMutability": "view",
      "type": "function"
    },
    {
      "inputs": [
        {
          "internalType": "uint256",
          "name": "_DataBatchId",
          "type": "uint256"
        }
      ],
      "name": "commitPeriodActive",
      "outputs": [
        {
          "internalType": "bool",
          "name": "active",
          "type": "bool"
        }
      ],
      "stateMutability": "view",
      "type": "function"
    },
    {
      "inputs": [
        {
          "internalType": "uint256",
          "name": "_DataBatchId",
          "type": "uint256"
        },
        {
          "internalType": "bytes32",
          "name": "_encryptedHash",
          "type": "bytes32"
        },
        {
          "internalType": "bytes32",
          "name": "_encryptedVote",
          "type": "bytes32"
        },
        {
          "internalType": "uint256",
          "name": "_BatchCount",
          "type": "uint256"
        },
        {
          "internalType": "string",
          "name": "_From",
          "type": "string"
        }
      ],
      "name": "commitSpotCheck",
      "outputs": [],
      "stateMutability": "nonpayable",
      "type": "function"
    },
    {
      "inputs": [
        {
          "internalType": "uint256",
          "name": "_DataId",
          "type": "uint256"
        }
      ],
      "name": "deleteData",
      "outputs": [],
      "stateMutability": "nonpayable",
      "type": "function"
    },
    {
      "inputs": [
        {
          "internalType": "uint256",
          "name": "_BatchId",
          "type": "uint256"
        }
      ],
      "name": "deleteDataBatch",
      "outputs": [],
      "stateMutability": "nonpayable",
      "type": "function"
    },
    {
      "inputs": [],
      "name": "destroyContract",
      "outputs": [],
      "stateMutability": "nonpayable",
      "type": "function"
    },
    {
      "inputs": [
        {
          "internalType": "address",
          "name": "_voter",
          "type": "address"
        },
        {
          "internalType": "uint256",
          "name": "_DataBatchId",
          "type": "uint256"
        }
      ],
      "name": "didCommit",
      "outputs": [
        {
          "internalType": "bool",
          "name": "committed",
          "type": "bool"
        }
      ],
      "stateMutability": "view",
      "type": "function"
    },
    {
      "inputs": [
        {
          "internalType": "address",
          "name": "_voter",
          "type": "address"
        },
        {
          "internalType": "uint256",
          "name": "_DataBatchId",
          "type": "uint256"
        }
      ],
      "name": "didReveal",
      "outputs": [
        {
          "internalType": "bool",
          "name": "revealed",
          "type": "bool"
        }
      ],
      "stateMutability": "view",
      "type": "function"
    },
    {
      "inputs": [
        {
          "internalType": "uint256",
          "name": "_k",
          "type": "uint256"
        },
        {
          "internalType": "uint256",
          "name": "N_range",
          "type": "uint256"
        }
      ],
      "name": "generateIntegers",
      "outputs": [
        {
          "internalType": "uint256[]",
          "name": "",
          "type": "uint256[]"
        }
      ],
      "stateMutability": "view",
      "type": "function"
    },
    {
      "inputs": [],
      "name": "getAcceptedBatchesCount",
      "outputs": [
        {
          "internalType": "uint256",
          "name": "count",
          "type": "uint256"
        }
      ],
      "stateMutability": "view",
      "type": "function"
    },
    {
      "inputs": [],
      "name": "getActiveWorkersCount",
      "outputs": [
        {
          "internalType": "uint256",
          "name": "numWorkers",
          "type": "uint256"
        }
      ],
      "stateMutability": "view",
      "type": "function"
    },
    {
      "inputs": [],
      "name": "getAvailableWorkersCount",
      "outputs": [
        {
          "internalType": "uint256",
          "name": "numWorkers",
          "type": "uint256"
        }
      ],
      "stateMutability": "view",
      "type": "function"
    },
    {
      "inputs": [
        {
          "internalType": "uint256",
          "name": "_DataBatchId",
          "type": "uint256"
        }
      ],
      "name": "getBatchByID",
      "outputs": [
        {
          "components": [
            {
              "internalType": "uint256",
              "name": "start_idx",
              "type": "uint256"
            },
            {
              "internalType": "uint256",
              "name": "counter",
              "type": "uint256"
            },
            {
              "internalType": "uint256",
              "name": "uncommited_workers",
              "type": "uint256"
            },
            {
              "internalType": "uint256",
              "name": "unrevealed_workers",
              "type": "uint256"
            },
            {
              "internalType": "bool",
              "name": "complete",
              "type": "bool"
            },
            {
              "internalType": "bool",
              "name": "checked",
              "type": "bool"
            },
            {
              "internalType": "bool",
              "name": "allocated_to_work",
              "type": "bool"
            },
            {
              "internalType": "uint256",
              "name": "commitEndDate",
              "type": "uint256"
            },
            {
              "internalType": "uint256",
              "name": "revealEndDate",
              "type": "uint256"
            },
            {
              "internalType": "uint256",
              "name": "votesFor",
              "type": "uint256"
            },
            {
              "internalType": "uint256",
              "name": "votesAgainst",
              "type": "uint256"
            },
            {
              "internalType": "string",
              "name": "batchIPFSfile",
              "type": "string"
            },
            {
              "internalType": "uint256",
              "name": "item_count",
              "type": "uint256"
            },
            {
              "internalType": "enum DataSpotting.DataStatus",
              "name": "status",
              "type": "uint8"
            }
          ],
          "internalType": "struct DataSpotting.BatchMetadata",
          "name": "batch",
          "type": "tuple"
        }
      ],
      "stateMutability": "view",
      "type": "function"
    },
    {
      "inputs": [
        {
          "internalType": "uint256",
          "name": "_DataBatchId",
          "type": "uint256"
        }
      ],
      "name": "getBatchIPFSFileByID",
      "outputs": [
        {
          "internalType": "string",
          "name": "batch",
          "type": "string"
        }
      ],
      "stateMutability": "view",
      "type": "function"
    },
    {
      "inputs": [],
      "name": "getBusyWorkersCount",
      "outputs": [
        {
          "internalType": "uint256",
          "name": "numWorkers",
          "type": "uint256"
        }
      ],
      "stateMutability": "view",
      "type": "function"
    },
    {
      "inputs": [
        {
          "internalType": "address",
          "name": "_voter",
          "type": "address"
        },
        {
          "internalType": "uint256",
          "name": "_DataBatchId",
          "type": "uint256"
        }
      ],
      "name": "getCommitIPFSHash",
      "outputs": [
        {
          "internalType": "bytes32",
          "name": "commitHash",
          "type": "bytes32"
        }
      ],
      "stateMutability": "view",
      "type": "function"
    },
    {
      "inputs": [
        {
          "internalType": "address",
          "name": "_voter",
          "type": "address"
        },
        {
          "internalType": "uint256",
          "name": "_DataBatchId",
          "type": "uint256"
        }
      ],
      "name": "getCommitVoteHash",
      "outputs": [
        {
          "internalType": "bytes32",
          "name": "commitHash",
          "type": "bytes32"
        }
      ],
      "stateMutability": "view",
      "type": "function"
    },
    {
      "inputs": [
        {
          "internalType": "uint256",
          "name": "_DataId",
          "type": "uint256"
        }
      ],
      "name": "getDataByID",
      "outputs": [
        {
          "components": [
            {
              "internalType": "string",
              "name": "ipfs_hash",
              "type": "string"
            },
            {
              "internalType": "address",
              "name": "author",
              "type": "address"
            },
            {
              "internalType": "uint256",
              "name": "timestamp",
              "type": "uint256"
            },
            {
              "internalType": "uint256",
              "name": "item_count",
              "type": "uint256"
            },
            {
              "internalType": "string",
              "name": "URL_domain",
              "type": "string"
            },
            {
              "internalType": "string",
              "name": "extra",
              "type": "string"
            },
            {
              "internalType": "enum DataSpotting.DataStatus",
              "name": "status",
              "type": "uint8"
            }
          ],
          "internalType": "struct DataSpotting.SpottedData",
          "name": "data",
          "type": "tuple"
        }
      ],
      "stateMutability": "view",
      "type": "function"
    },
    {
      "inputs": [
        {
          "internalType": "uint256",
          "name": "_DataBatchId",
          "type": "uint256"
        }
      ],
      "name": "getDomainsForBatch",
      "outputs": [
        {
          "internalType": "string[]",
          "name": "",
          "type": "string[]"
        }
      ],
      "stateMutability": "view",
      "type": "function"
    },
    {
      "inputs": [
        {
          "internalType": "uint256",
          "name": "_clearVote",
          "type": "uint256"
        },
        {
          "internalType": "uint256",
          "name": "_salt",
          "type": "uint256"
        }
      ],
      "name": "getEncryptedHash",
      "outputs": [
        {
          "internalType": "bytes32",
          "name": "keccak256hash",
          "type": "bytes32"
        }
      ],
      "stateMutability": "pure",
      "type": "function"
    },
    {
      "inputs": [
        {
          "internalType": "string",
          "name": "_hash",
          "type": "string"
        },
        {
          "internalType": "uint256",
          "name": "_salt",
          "type": "uint256"
        }
      ],
      "name": "getEncryptedStringHash",
      "outputs": [
        {
          "internalType": "bytes32",
          "name": "keccak256hash",
          "type": "bytes32"
        }
      ],
      "stateMutability": "pure",
      "type": "function"
    },
    {
      "inputs": [
        {
          "internalType": "uint256",
          "name": "_DataBatchId",
          "type": "uint256"
        }
      ],
      "name": "getFromsForBatch",
      "outputs": [
        {
          "internalType": "string[]",
          "name": "",
          "type": "string[]"
        }
      ],
      "stateMutability": "view",
      "type": "function"
    },
    {
      "inputs": [],
      "name": "getGlobalPeriodSpotCount",
      "outputs": [
        {
          "internalType": "uint256",
          "name": "",
          "type": "uint256"
        }
      ],
      "stateMutability": "view",
      "type": "function"
    },
    {
      "inputs": [
        {
          "internalType": "uint256",
          "name": "_DataBatchId",
          "type": "uint256"
        }
      ],
      "name": "getIPFShashesForBatch",
      "outputs": [
        {
          "internalType": "string[]",
          "name": "",
          "type": "string[]"
        }
      ],
      "stateMutability": "view",
      "type": "function"
    },
    {
      "inputs": [
        {
          "internalType": "address",
          "name": "_voter",
          "type": "address"
        },
        {
          "internalType": "uint256",
          "name": "_numTokens",
          "type": "uint256"
        },
        {
          "internalType": "uint256",
          "name": "_DataBatchId",
          "type": "uint256"
        }
      ],
      "name": "getInsertPointForNumTokens",
      "outputs": [
        {
          "internalType": "uint256",
          "name": "prevNode",
          "type": "uint256"
        }
      ],
      "stateMutability": "view",
      "type": "function"
    },
    {
      "inputs": [],
      "name": "getLastAllocatedBatchId",
      "outputs": [
        {
          "internalType": "uint256",
          "name": "LastAllocatedBatchId",
          "type": "uint256"
        }
      ],
      "stateMutability": "view",
      "type": "function"
    },
    {
      "inputs": [],
      "name": "getLastBatchId",
      "outputs": [
        {
          "internalType": "uint256",
          "name": "LastBatchId",
          "type": "uint256"
        }
      ],
      "stateMutability": "view",
      "type": "function"
    },
    {
      "inputs": [],
      "name": "getLastCheckedBatchId",
      "outputs": [
        {
          "internalType": "uint256",
          "name": "LastCheckedBatchId",
          "type": "uint256"
        }
      ],
      "stateMutability": "view",
      "type": "function"
    },
    {
      "inputs": [],
      "name": "getLastDataId",
      "outputs": [
        {
          "internalType": "uint256",
          "name": "DataId",
          "type": "uint256"
        }
      ],
      "stateMutability": "view",
      "type": "function"
    },
    {
      "inputs": [
        {
          "internalType": "address",
          "name": "_voter",
          "type": "address"
        }
      ],
      "name": "getLastNode",
      "outputs": [
        {
          "internalType": "uint256",
          "name": "DataID",
          "type": "uint256"
        }
      ],
      "stateMutability": "view",
      "type": "function"
    },
    {
      "inputs": [
        {
          "internalType": "address",
          "name": "_voter",
          "type": "address"
        }
      ],
      "name": "getLockedTokens",
      "outputs": [
        {
          "internalType": "uint256",
          "name": "numTokens",
          "type": "uint256"
        }
      ],
      "stateMutability": "view",
      "type": "function"
    },
    {
      "inputs": [
        {
          "internalType": "address",
          "name": "_voter",
          "type": "address"
        },
        {
          "internalType": "uint256",
          "name": "_DataBatchId",
          "type": "uint256"
        },
        {
          "internalType": "uint256",
          "name": "_salt",
          "type": "uint256"
        }
      ],
      "name": "getNumPassingTokens",
      "outputs": [
        {
          "internalType": "uint256",
          "name": "correctSpotChecks",
          "type": "uint256"
        }
      ],
      "stateMutability": "view",
      "type": "function"
    },
    {
      "inputs": [
        {
          "internalType": "address",
          "name": "_voter",
          "type": "address"
        },
        {
          "internalType": "uint256",
          "name": "_DataBatchId",
          "type": "uint256"
        }
      ],
      "name": "getNumTokens",
      "outputs": [
        {
          "internalType": "uint256",
          "name": "numTokens",
          "type": "uint256"
        }
      ],
      "stateMutability": "view",
      "type": "function"
    },
    {
      "inputs": [],
      "name": "getRandom",
      "outputs": [
        {
          "internalType": "uint256",
          "name": "",
          "type": "uint256"
        }
      ],
      "stateMutability": "view",
      "type": "function"
    },
    {
      "inputs": [],
      "name": "getRejectedBatchesCount",
      "outputs": [
        {
          "internalType": "uint256",
          "name": "count",
          "type": "uint256"
        }
      ],
      "stateMutability": "view",
      "type": "function"
    },
    {
      "inputs": [],
      "name": "getSeed",
      "outputs": [
        {
          "internalType": "bytes32",
          "name": "addr",
          "type": "bytes32"
        }
      ],
      "stateMutability": "view",
      "type": "function"
    },
    {
      "inputs": [
        {
          "internalType": "uint256",
          "name": "_DataBatchId",
          "type": "uint256"
        }
      ],
      "name": "getSubmittedFilesForBatch",
      "outputs": [
        {
          "internalType": "string[]",
          "name": "",
          "type": "string[]"
        }
      ],
      "stateMutability": "view",
      "type": "function"
    },
    {
      "inputs": [
        {
          "internalType": "address",
          "name": "_user",
          "type": "address"
        }
      ],
      "name": "getSystemTokenBalance",
      "outputs": [
        {
          "internalType": "uint256",
          "name": "tokens",
          "type": "uint256"
        }
      ],
      "stateMutability": "view",
      "type": "function"
    },
    {
      "inputs": [],
      "name": "getTxCounter",
      "outputs": [
        {
          "internalType": "uint256",
          "name": "Counter",
          "type": "uint256"
        }
      ],
      "stateMutability": "view",
      "type": "function"
    },
    {
      "inputs": [
        {
          "internalType": "address",
          "name": "user",
          "type": "address"
        }
      ],
      "name": "getUserDatas",
      "outputs": [
        {
          "internalType": "uint256[]",
          "name": "user_Datas",
          "type": "uint256[]"
        }
      ],
      "stateMutability": "view",
      "type": "function"
    },
    {
      "inputs": [
        {
          "internalType": "address",
          "name": "user_",
          "type": "address"
        }
      ],
      "name": "getUserPeriodSpotCount",
      "outputs": [
        {
          "internalType": "uint256",
          "name": "",
          "type": "uint256"
        }
      ],
      "stateMutability": "view",
      "type": "function"
    },
    {
      "inputs": [
        {
          "internalType": "uint256",
          "name": "_DataBatchId",
          "type": "uint256"
        }
      ],
      "name": "getVotesForBatch",
      "outputs": [
        {
          "internalType": "uint256[]",
          "name": "",
          "type": "uint256[]"
        }
      ],
      "stateMutability": "view",
      "type": "function"
    },
    {
      "inputs": [
        {
          "internalType": "uint256",
          "name": "_terminationDate",
          "type": "uint256"
        }
      ],
      "name": "isExpired",
      "outputs": [
        {
          "internalType": "bool",
          "name": "expired",
          "type": "bool"
        }
      ],
      "stateMutability": "view",
      "type": "function"
    },
    {
      "inputs": [
        {
          "internalType": "uint256",
          "name": "_DataBatchId",
          "type": "uint256"
        }
      ],
      "name": "isPassed",
      "outputs": [
        {
          "internalType": "bool",
          "name": "passed",
          "type": "bool"
        }
      ],
      "stateMutability": "view",
      "type": "function"
    },
    {
      "inputs": [
        {
          "internalType": "uint256",
          "name": "_DataBatchId",
          "type": "uint256"
        },
        {
          "internalType": "address",
          "name": "_worker",
          "type": "address"
        }
      ],
      "name": "isWorkerAllocatedToBatch",
      "outputs": [
        {
          "internalType": "bool",
          "name": "",
          "type": "bool"
        }
      ],
      "stateMutability": "view",
      "type": "function"
    },
    {
      "inputs": [
        {
          "internalType": "address",
          "name": "_worker",
          "type": "address"
        }
      ],
      "name": "isWorkerRegistered",
      "outputs": [
        {
          "internalType": "bool",
          "name": "passed",
          "type": "bool"
        }
      ],
      "stateMutability": "view",
      "type": "function"
    },
    {
      "inputs": [],
      "name": "owner",
      "outputs": [
        {
          "internalType": "address",
          "name": "",
          "type": "address"
        }
      ],
      "stateMutability": "view",
      "type": "function"
    },
    {
      "inputs": [
        {
          "internalType": "uint256",
          "name": "k",
          "type": "uint256"
        },
        {
          "internalType": "uint256",
          "name": "N",
          "type": "uint256"
        }
      ],
      "name": "random_selection",
      "outputs": [
        {
          "internalType": "uint256[]",
          "name": "",
          "type": "uint256[]"
        }
      ],
      "stateMutability": "view",
      "type": "function"
    },
    {
      "inputs": [],
      "name": "renounceOwnership",
      "outputs": [],
      "stateMutability": "nonpayable",
      "type": "function"
    },
    {
      "inputs": [
        {
          "internalType": "uint256",
          "name": "_DataBatchId",
          "type": "uint256"
        }
      ],
      "name": "rescueTokens",
      "outputs": [],
      "stateMutability": "nonpayable",
      "type": "function"
    },
    {
      "inputs": [
        {
          "internalType": "uint256[]",
          "name": "_DataBatchIDs",
          "type": "uint256[]"
        }
      ],
      "name": "rescueTokensInMultipleDatas",
      "outputs": [],
      "stateMutability": "nonpayable",
      "type": "function"
    },
    {
      "inputs": [
        {
          "internalType": "uint256",
          "name": "_DataBatchId",
          "type": "uint256"
        }
      ],
      "name": "revealPeriodActive",
      "outputs": [
        {
          "internalType": "bool",
          "name": "active",
          "type": "bool"
        }
      ],
      "stateMutability": "view",
      "type": "function"
    },
    {
      "inputs": [
        {
          "internalType": "uint256",
          "name": "_DataBatchId",
          "type": "uint256"
        },
        {
          "internalType": "string",
          "name": "_clearIPFSHash",
          "type": "string"
        },
        {
          "internalType": "uint256",
          "name": "_clearVote",
          "type": "uint256"
        },
        {
          "internalType": "uint256",
          "name": "_salt",
          "type": "uint256"
        }
      ],
      "name": "revealSpotCheck",
      "outputs": [],
      "stateMutability": "nonpayable",
      "type": "function"
    },
    {
      "inputs": [
        {
          "internalType": "uint256",
          "name": "N",
          "type": "uint256"
        }
      ],
      "name": "shuffle_array",
      "outputs": [
        {
          "internalType": "uint256[]",
          "name": "",
          "type": "uint256[]"
        }
      ],
      "stateMutability": "view",
      "type": "function"
    },
    {
      "inputs": [
        {
          "internalType": "uint256",
          "name": "",
          "type": "uint256"
        }
      ],
      "name": "toUnregisterWorkers",
      "outputs": [
        {
          "internalType": "address",
          "name": "",
          "type": "address"
        }
      ],
      "stateMutability": "view",
      "type": "function"
    },
    {
      "inputs": [],
      "name": "token",
      "outputs": [
        {
          "internalType": "contract IERC20",
          "name": "",
          "type": "address"
        }
      ],
      "stateMutability": "view",
      "type": "function"
    },
    {
      "inputs": [
        {
          "internalType": "address",
          "name": "newOwner",
          "type": "address"
        }
      ],
      "name": "transferOwnership",
      "outputs": [],
      "stateMutability": "nonpayable",
      "type": "function"
    },
    {
      "inputs": [
        {
          "internalType": "uint256",
          "name": "AllocatedBatchCursor_",
          "type": "uint256"
        }
      ],
      "name": "updateAllocatedBatchCursor",
      "outputs": [],
      "stateMutability": "nonpayable",
      "type": "function"
    },
    {
      "inputs": [
        {
          "internalType": "uint256",
          "name": "BatchCheckingCursor_",
          "type": "uint256"
        }
      ],
      "name": "updateBatchCheckingCursor",
      "outputs": [],
      "stateMutability": "nonpayable",
      "type": "function"
    },
    {
      "inputs": [],
      "name": "updateGlobalSpotFlow",
      "outputs": [],
      "stateMutability": "nonpayable",
      "type": "function"
    },
    {
      "inputs": [
        {
          "internalType": "address",
          "name": "addr",
          "type": "address"
        }
      ],
      "name": "updateParametersManager",
      "outputs": [],
      "stateMutability": "nonpayable",
      "type": "function"
    },
    {
      "inputs": [
        {
          "internalType": "address",
          "name": "user_",
          "type": "address"
        }
      ],
      "name": "updateUserSpotFlow",
      "outputs": [],
      "stateMutability": "nonpayable",
      "type": "function"
    },
    {
      "inputs": [
        {
          "internalType": "uint256",
          "name": "_prevID",
          "type": "uint256"
        },
        {
          "internalType": "uint256",
          "name": "_nextID",
          "type": "uint256"
        },
        {
          "internalType": "address",
          "name": "_voter",
          "type": "address"
        },
        {
          "internalType": "uint256",
          "name": "_numTokens",
          "type": "uint256"
        }
      ],
      "name": "validPosition",
      "outputs": [
        {
          "internalType": "bool",
          "name": "APPROVED",
          "type": "bool"
        }
      ],
      "stateMutability": "view",
      "type": "function"
    },
    {
      "inputs": [
        {
          "internalType": "uint256",
          "name": "_numTokens",
          "type": "uint256"
        }
      ],
      "name": "withdrawVotingRights",
      "outputs": [],
      "stateMutability": "nonpayable",
      "type": "function"
    }
  ],
  "bytecode": "0x608060405260006001818155601d829055601e829055601f8190556020819055602181905560225560238190556024819055602581905560268190556027556029805460ff60a01b1916600160a01b1790553480156200005e57600080fd5b506040516200acc03803806200acc0833981016040819052620000819162000123565b620000956200008f620000cf565b620000d3565b6001600160a01b038116620000a957600080fd5b602880546001600160a01b0319166001600160a01b039290921691909117905562000153565b3390565b600080546001600160a01b038381166001600160a01b0319831681178455604051919092169283917f8be0079c531659141344cd1fd0a4f28419497f9722a3daafe3b4186f6b6457e09190a35050565b60006020828403121562000135578081fd5b81516001600160a01b03811681146200014c578182fd5b9392505050565b61ab5d80620001636000396000f3fe608060405234801561001057600080fd5b50600436106106745760003560e01c80638da5cb5b11610351578063d420ec0b116101c3578063eb1322ff1161010f578063f716596d116100ad578063f96305f011610087578063f96305f014610d8a578063fc0c546a14610d92578063fca4956314610d9a578063ff43de9d14610dad57610674565b8063f716596d14610d67578063f721de4a14610d6f578063f80a23fd14610d8257610674565b8063f2d9e74d116100e9578063f2d9e74d14610d31578063f2fde38b14610d39578063f4cdfcc414610d4c578063f5ae7c7d14610d5f57610674565b8063eb1322ff14610d0e578063ed8becfa14610d16578063ef4fcdad14610d2957610674565b8063d9548e531161017c578063e44c974b11610156578063e44c974b14610cc2578063e604c12714610cd5578063e798a7da14610ce8578063e7b1d43c14610cfb57610674565b8063d9548e5314610c87578063d9845fb814610c9a578063da14563a14610cba57610674565b8063d420ec0b14610c2b578063d58f575c14610c3e578063d6b0206c14610c46578063d817587e14610c4e578063d822ce0114610c61578063d8b7567414610c7457610674565b8063aa7ca4641161029d578063b43bd0691161023b578063c4e4f82a11610215578063c4e4f82a14610bea578063d0d41def14610bfd578063d138209214610c05578063d186981d14610c1857610674565b8063b43bd06914610bb1578063b8f011b314610bc4578063bc3002e614610bd757610674565b8063b10aa58411610277578063b10aa58414610b65578063b1a2e0be14610b78578063b1cf4a7e14610b8b578063b1d7ea9814610b9e57610674565b8063aa7ca46414610b37578063aacc5a1714610b4a578063b0bc471e14610b5257610674565b8063a1103f371161030a578063a4439dc5116102e4578063a4439dc514610af6578063a511dba014610b09578063a905779014610b11578063a98eb31e14610b2457610674565b8063a1103f3714610ad3578063a1b6b5b714610ae6578063a350715a14610aee57610674565b80638da5cb5b14610a775780638df0296e14610a7f5780639760356014610a925780639769d84614610aa55780639d6e3f9614610aad5780639fc9c52f14610ac057610674565b806353bf27f1116104ea57806371880b1b11610436578063815ce747116103d457806383e5a8f6116103ae57806383e5a8f614610a205780638473850b14610a3357806388d072eb14610a3b5780638c89d02714610a4e57610674565b8063815ce747146109f2578063819b0293146109fa578063821aa8c014610a0d57610674565b80637ad3be11116104105780637ad3be11146109975780637f9510a2146109aa5780637f97e836146109b25780637fabe35b146109c557610674565b806371880b1b14610969578063763a39f21461097c57806377124dec1461098457610674565b80635df6055d116104a3578063667bf0f81161047d578063667bf0f8146109335780636b2d95d41461093b5780637074222b1461094e578063715018a61461096157610674565b80635df6055d14610905578063607d5efa146109185780636371d81f1461092057610674565b806353bf27f114610891578063576a554314610899578063579db71c146108ac5780635a452943146108bf5780635b113a55146108df5780635dc44cf1146108f257610674565b80632f469fd1116105c4578063427fa1d2116105625780634852e2f01161053c5780634852e2f01461085b57806349403183146108635780634fe8b4c114610876578063515535e81461088957610674565b8063427fa1d21461082d578063441c77c01461084057806347fe2d201461085357610674565b806336fc43fc1161059e57806336fc43fc146107e957806339e7357c146107f15780633c062cc8146107f9578063413b90f71461081a57610674565b80632f469fd1146107a357806331e2f285146107c35780633538af82146107d657610674565b8063154fd39b11610631578063226ed3001161060b578063226ed30014610755578063275c2590146107755780632c0520311461077d5780632d917c681461079057610674565b8063154fd39b1461070d57806319d9034614610715578063210a018c1461073557610674565b806301a48b981461067957806305957623146106a2578063092a5cce146106b75780630b96c5b0146106bf5780630e6661a7146106e5578063100372f5146106fa575b600080fd5b61068c61068736600461923a565b610db5565b604051610699919061957d565b60405180910390f35b6106b56106b0366004618f6b565b610f50565b005b6106b5610fb1565b6106d26106cd36600461923a565b611003565b60405161069997969594939291906195df565b6106ed6111e7565b6040516106999190619482565b6106b561070836600461923a565b6111ed565b6106ed611231565b61072861072336600461923a565b611237565b604051610699919061951d565b610748610743366004618f6b565b611552565b60405161069991906194b5565b61076861076336600461923a565b61173a565b60405161069991906195c1565b6106b5611782565b6106ed61078b366004618fce565b6118d0565b61076861079e366004618fa3565b611a6d565b6107b66107b1366004619263565b611a8d565b60405161069991906195cc565b6106ed6107d1366004618f6b565b611b32565b6107486107e436600461923a565b611b44565b610768611b6e565b6106ed611b7e565b61080c61080736600461923a565b611b9b565b6040516106999291906194a7565b61080c610828366004618fa3565b611bbd565b6106ed61083b366004618f6b565b611bed565b61076861084e36600461923a565b611c8d565b6106ed611ce7565b6106ed611ced565b61076861087136600461923a565b611cf3565b6106b561088436600461923a565b611f3f565b6106ed611fe4565b6106ed611fea565b6106b56108a7366004618f6b565b611ff0565b61068c6108ba366004618f6b565b6121b7565b6108d26108cd36600461923a565b612223565b604051610699919061a7ad565b6106ed6108ed366004619263565b612478565b6106ed610900366004618fa3565b612495565b61072861091336600461923a565b6124c6565b6106b56126e3565b6106b561092e36600461923a565b61289c565b6106b561294f565b6106ed610949366004618f6b565b612fee565b6106ed61095c366004618f6b565b612ffd565b6106b5613018565b6106ed61097736600461923a565b613063565b6106ed6130a0565b6106b561099236600461923a565b6130a6565b6106ed6109a5366004618fa3565b6130ea565b6106ed61317f565b6107686109c0366004618fa3565b613196565b6109d86109d336600461923a565b6131e9565b6040516106999e9d9c9b9a9998979695949392919061a88c565b6106ed6132e9565b610768610a0836600461935b565b613345565b610748610a1b36600461923a565b613386565b6106b5610a2e366004619292565b613396565b6106ed6139f2565b6107b6610a49366004619263565b6139f8565b610a61610a5c366004618f6b565b613a1c565b6040516106999a999897969594939291906194c9565b610748613a7f565b610748610a8d36600461933a565b613a8e565b6106b5610aa036600461923a565b613ac6565b6106ed613c75565b6106ed610abb366004618f6b565b613c7b565b6106b5610ace3660046190e9565b613ce6565b6106ed610ae1366004618fa3565b613d34565b6106ed613d67565b6106ed613d6d565b610768610b0436600461923a565b613d73565b6106ed613dd5565b610768610b1f366004619198565b613ddb565b6106b5610b323660046192e6565b613e41565b610768610b45366004618fa3565b6141ef565b6106ed614242565b6106ed610b60366004618fa3565b6142f7565b610748610b7336600461923a565b61433c565b610768610b86366004618f6b565b61434c565b6106ed610b9936600461933a565b614419565b61068c610bac36600461933a565b61442e565b6106ed610bbf366004618fce565b614648565b61068c610bd236600461933a565b614734565b6106ed610be5366004619002565b61489c565b6106ed610bf836600461923a565b6153d2565b6106ed61540f565b6106ed610c13366004618fa3565b615415565b610768610c26366004619263565b61545a565b610768610c39366004618fa3565b615535565b6106ed615555565b6106ed61555b565b610728610c5c36600461923a565b615561565b610748610c6f366004618fa3565b61577e565b6106ed610c82366004619263565b61579a565b610768610c9536600461923a565b6157b7565b610cad610ca836600461923a565b6157bc565b604051610699919061a5f7565b6106b5615940565b61068c610cd036600461923a565b615c28565b6107b6610ce336600461923a565b615cb4565b610768610cf6366004618f6b565b615d5f565b6106b5610d0936600461923a565b615d80565b6106ed615f45565b610728610d2436600461923a565b615f4b565b6106ed61625a565b6106ed616260565b6106b5610d47366004618f6b565b616266565b6106ed610d5a3660046191f8565b6162d4565b6106ed6162e9565b6106b56162ef565b610768610d7d36600461923a565b616705565b61076861670d565b6106ed616726565b61074861672c565b6106ed610da8366004618f6b565b61673b565b6107486167e3565b6060610dc082616705565b610de55760405162461bcd60e51b8152600401610ddc9061a25b565b60405180910390fd5b600082815260196020908152604080832080548251818502810185019093528083529192909190830182828015610e4557602002820191906000526020600020905b81546001600160a01b03168152600190910190602001808311610e27575b50505050509050600081516001600160401b03811115610e7557634e487b7160e01b600052604160045260246000fd5b604051908082528060200260200182016040528015610e9e578160200160208202803683370190505b50905060005b8251811015610f4857600c60008681526020019081526020016000206000848381518110610ee257634e487b7160e01b600052603260045260246000fd5b60200260200101516001600160a01b03166001600160a01b0316815260200190815260200160002054828281518110610f2b57634e487b7160e01b600052603260045260246000fd5b602090810291909101015280610f408161aa81565b915050610ea4565b509392505050565b610f586167f2565b6001600160a01b0316610f69613a7f565b6001600160a01b031614610f8f5760405162461bcd60e51b8152600401610ddc90619f8f565b602980546001600160a01b0319166001600160a01b0392909216919091179055565b610fb96167f2565b6001600160a01b0316610fca613a7f565b6001600160a01b031614610ff05760405162461bcd60e51b8152600401610ddc90619f8f565b610ff8613a7f565b6001600160a01b0316ff5b60136020526000908152604090208054819061101e9061aa46565b80601f016020809104026020016040519081016040528092919081815260200182805461104a9061aa46565b80156110975780601f1061106c57610100808354040283529160200191611097565b820191906000526020600020905b81548152906001019060200180831161107a57829003601f168201915b50505060018401546002850154600386015460048701805496976001600160a01b0390941696929550909350906110cd9061aa46565b80601f01602080910402602001604051908101604052809291908181526020018280546110f99061aa46565b80156111465780601f1061111b57610100808354040283529160200191611146565b820191906000526020600020905b81548152906001019060200180831161112957829003601f168201915b50505050509080600501805461115b9061aa46565b80601f01602080910402602001604051908101604052809291908181526020018280546111879061aa46565b80156111d45780601f106111a9576101008083540402835291602001916111d4565b820191906000526020600020905b8154815290600101906020018083116111b757829003601f168201915b5050506006909301549192505060ff1687565b601e5481565b6111f56167f2565b6001600160a01b0316611206613a7f565b6001600160a01b03161461122c5760405162461bcd60e51b8152600401610ddc90619f8f565b602155565b60225490565b606061124282616705565b61125e5760405162461bcd60e51b8152600401610ddc9061a25b565b600082815260146020908152604080832081516101c0810183528154815260018201549381019390935260028101549183019190915260038101546060830152600481015460ff808216151560808501526101008083048216151560a08601526201000090920416151560c0840152600582015460e0840152600682015490830152600781015461012083015260088101546101408301526009810180546101608401919061130c9061aa46565b80601f01602080910402602001604051908101604052809291908181526020018280546113389061aa46565b80156113855780601f1061135a57610100808354040283529160200191611385565b820191906000526020600020905b81548152906001019060200180831161136857829003601f168201915b5050509183525050600a8201546020820152600b82015460409091019060ff1660038111156113c457634e487b7160e01b600052602160045260246000fd5b60038111156113e357634e487b7160e01b600052602160045260246000fd5b90525060208101519091506000816001600160401b0381111561141657634e487b7160e01b600052604160045260246000fd5b60405190808252806020026020018201604052801561144957816020015b60608152602001906001900390816114345790505b50905060005b8281101561154957835160009061146790839061a9b8565b6000818152601360205260408120600401805492935090916114889061aa46565b80601f01602080910402602001604051908101604052809291908181526020018280546114b49061aa46565b80156115015780601f106114d657610100808354040283529160200191611501565b820191906000526020600020905b8154815290600101906020018083116114e457829003601f168201915b505050505090508084848151811061152957634e487b7160e01b600052603260045260246000fd5b6020026020010181905250505080806115419061aa81565b91505061144f565b50949350505050565b6000806001600160a01b0316602960009054906101000a90046001600160a01b03166001600160a01b0316635492f3026040518163ffffffff1660e01b815260040160206040518083038186803b1580156115ac57600080fd5b505afa1580156115c0573d6000803e3d6000fd5b505050506040513d601f19601f820116820180604052508101906115e49190618f87565b6001600160a01b0316141561160b5760405162461bcd60e51b8152600401610ddc9061a4ea565b600080602960009054906101000a90046001600160a01b03166001600160a01b0316635492f3026040518163ffffffff1660e01b815260040160206040518083038186803b15801561165c57600080fd5b505afa158015611670573d6000803e3d6000fd5b505050506040513d601f19601f820116820180604052508101906116949190618f87565b90506000816001600160a01b031663f25e9ed2336040518263ffffffff1660e01b81526004016116c491906194b5565b60206040518083038186803b1580156116dc57600080fd5b505afa1580156116f0573d6000803e3d6000fd5b505050506040513d601f19601f820116820180604052508101906117149190618f87565b90506001600160a01b0381161561172d57809250611731565b8492505b50909392505050565b600061174582616705565b6117615760405162461bcd60e51b8152600401610ddc9061a582565b60008281526014602052604090206006015461177c906157b7565b92915050565b336000908152601560205260409020600581015460ff1615156001146117ba5760405162461bcd60e51b8152600401610ddc90619f1e565b6001810154158015906117d757506005810154610100900460ff16155b156118345760058101805461ff001916610100179055601c80546001810182556000919091527f0e4562a10381dec21b205ed72637e6b1b523bdd0e4d4d50af5cd23dd4500a2110180546001600160a01b031916331790556118ac565b60018101546118ac57611846336167f6565b61184f3361694e565b80546001600160a01b031916339081178255426004830181905560058301805460ff191690556040517f9dadcedba048e92b943ea1c5861cee1df63a566d7f795869c004780c1c698e2b916118a391619482565b60405180910390a25b6001602360008282546118bf919061a9b8565b909155506118cd9050616a7e565b50565b6000806118dc85611bed565b905060006118ea8683615415565b90505b8115611a62576118fd8683615415565b90508481116119ba57838214156119b2576001600160a01b0386166000908152601160205260409081902090516301c39b2b60e11b815273__$85afbab79b2b776d70bef879a32ed56424$__9163038736569161195f919086906004016194a7565b60206040518083038186803b15801561197757600080fd5b505af415801561198b573d6000803e3d6000fd5b505050506040513d601f19601f820116820180604052508101906119af9190619252565b91505b509050611a66565b6001600160a01b0386166000908152601160205260409081902090516301c39b2b60e11b815273__$85afbab79b2b776d70bef879a32ed56424$__91630387365691611a0b919086906004016194a7565b60206040518083038186803b158015611a2357600080fd5b505af4158015611a37573d6000803e3d6000fd5b505050506040513d601f19601f82011682018060405250810190611a5b9190619252565b91506118ed565b5090505b9392505050565b600a60209081526000928352604080842090915290825290205460ff1681565b600d60209081526000928352604080842090915290825290208054611ab19061aa46565b80601f0160208091040260200160405190810160405280929190818152602001828054611add9061aa46565b8015611b2a5780601f10611aff57610100808354040283529160200191611b2a565b820191906000526020600020905b815481529060010190602001808311611b0d57829003601f168201915b505050505081565b60176020526000908152604090205481565b601a8181548110611b5457600080fd5b6000918252602090912001546001600160a01b0316905081565b602954600160a01b900460ff1681565b60405160009080602081848060185afa611b9457fe5b5051919050565b60028160048110611bab57600080fd5b60020201805460019091015490915082565b60166020528160005260406000208160048110611bd957600080fd5b600202018054600190910154909250905082565b6001600160a01b03811660009081526011602052604080822090516301c39b2b60e11b815273__$85afbab79b2b776d70bef879a32ed56424$__91630387365691611c3d919085906004016194a7565b60206040518083038186803b158015611c5557600080fd5b505af4158015611c69573d6000803e3d6000fd5b505050506040513d601f19601f8201168201806040525081019061177c9190619252565b6000611c9882616705565b611cb45760405162461bcd60e51b8152600401610ddc9061a25b565b600082815260146020526040902060060154611ccf906157b7565b15801561177c5750611ce082613d73565b1592915050565b60215490565b60265481565b600081815260146020908152604080832081516101c0810183528154815260018201549381019390935260028101549183019190915260038101546060830152600481015460ff808216151560808501526101008083048216151560a08601526201000090920416151560c0840152600582015460e08401526006820154908301526007810154610120830152600881015461014083015260098101805484939291610160840191611da49061aa46565b80601f0160208091040260200160405190810160405280929190818152602001828054611dd09061aa46565b8015611e1d5780601f10611df257610100808354040283529160200191611e1d565b820191906000526020600020905b815481529060010190602001808311611e0057829003601f168201915b5050509183525050600a8201546020820152600b82015460409091019060ff166003811115611e5c57634e487b7160e01b600052602160045260246000fd5b6003811115611e7b57634e487b7160e01b600052602160045260246000fd5b905250610140810151610120820151919250611e969161a9b8565b602960009054906101000a90046001600160a01b03166001600160a01b031663ea19733c6040518163ffffffff1660e01b815260040160206040518083038186803b158015611ee457600080fd5b505afa158015611ef8573d6000803e3d6000fd5b505050506040513d601f19601f82011682018060405250810190611f1c9190619252565b611f26919061a9e4565b610120820151611f3790606461a9e4565b119392505050565b611f476167f2565b6001600160a01b0316611f58613a7f565b6001600160a01b031614611f7e5760405162461bcd60e51b8152600401610ddc90619f8f565b600081815260136020526040812090611f978282618cd8565b6001820180546001600160a01b031916905560006002830181905560038301819055611fc7906004840190618cd8565b611fd5600583016000618cd8565b50600601805460ff1916905550565b60205490565b601a5490565b6001600160a01b0381166000908152601660205260408120906120156001600461aa03565b9050600082826004811061203957634e487b7160e01b600052603260045260246000fd5b6002020154602954604080516307bc663b60e11b815290519293506001600160a01b0390911691630f78cc7691600480820192602092909190829003018186803b15801561208657600080fd5b505afa15801561209a573d6000803e3d6000fd5b505050506040513d601f19601f820116820180604052508101906120be9190619252565b6120c8824261aa03565b11156121b15760005b6120dd6001600461aa03565b81101561215c57836120f082600161a9b8565b6004811061210e57634e487b7160e01b600052603260045260246000fd5b6002020184826004811061213257634e487b7160e01b600052603260045260246000fd5b825460029190910291909101908155600191820154910155806121548161aa81565b9150506120d1565b504283836004811061217e57634e487b7160e01b600052603260045260246000fd5b600202015560008383600481106121a557634e487b7160e01b600052603260045260246000fd5b60020201600101819055505b50505050565b6001600160a01b03811660009081526010602090815260409182902080548351818402810184019094528084526060939283018282801561221757602002820191906000526020600020905b815481526020019060010190808311612203575b50505050509050919050565b61222b618d14565b60008281526013602052604090819020815160e081019092528054829082906122539061aa46565b80601f016020809104026020016040519081016040528092919081815260200182805461227f9061aa46565b80156122cc5780601f106122a1576101008083540402835291602001916122cc565b820191906000526020600020905b8154815290600101906020018083116122af57829003601f168201915b505050918352505060018201546001600160a01b0316602082015260028201546040820152600382015460608201526004820180546080909201916123109061aa46565b80601f016020809104026020016040519081016040528092919081815260200182805461233c9061aa46565b80156123895780601f1061235e57610100808354040283529160200191612389565b820191906000526020600020905b81548152906001019060200180831161236c57829003601f168201915b505050505081526020016005820180546123a29061aa46565b80601f01602080910402602001604051908101604052809291908181526020018280546123ce9061aa46565b801561241b5780601f106123f05761010080835404028352916020019161241b565b820191906000526020600020905b8154815290600101906020018083116123fe57829003601f168201915b5050509183525050600682015460209091019060ff16600381111561245057634e487b7160e01b600052602160045260246000fd5b600381111561246f57634e487b7160e01b600052602160045260246000fd5b90525092915050565b600e60209081526000928352604080842090915290825290205481565b601060205281600052604060002081815481106124b157600080fd5b90600052602060002001600091509150505481565b60606124d182616705565b6124ed5760405162461bcd60e51b8152600401610ddc9061a25b565b60008281526019602090815260408083208054825181850281018501909352808352919290919083018282801561254d57602002820191906000526020600020905b81546001600160a01b0316815260019091019060200180831161252f575b50505050509050600081516001600160401b0381111561257d57634e487b7160e01b600052604160045260246000fd5b6040519080825280602002602001820160405280156125b057816020015b606081526020019060019003908161259b5790505b50905060005b8251811015610f4857600f600086815260200190815260200160002060008483815181106125f457634e487b7160e01b600052603260045260246000fd5b60200260200101516001600160a01b03166001600160a01b0316815260200190815260200160002080546126279061aa46565b80601f01602080910402602001604051908101604052809291908181526020018280546126539061aa46565b80156126a05780601f10612675576101008083540402835291602001916126a0565b820191906000526020600020905b81548152906001019060200180831161268357829003601f168201915b50505050508282815181106126c557634e487b7160e01b600052603260045260246000fd5b602002602001018190525080806126db9061aa81565b9150506125b6565b60006126f16001600461aa03565b905060006002826004811061271657634e487b7160e01b600052603260045260246000fd5b6002020154602954604080516307bc663b60e11b815290519293506001600160a01b0390911691630f78cc7691600480820192602092909190829003018186803b15801561276357600080fd5b505afa158015612777573d6000803e3d6000fd5b505050506040513d601f19601f8201168201806040525081019061279b9190619252565b6127a5824261aa03565b11156128985760005b6127ba6001600461aa03565b81101561283b5760026127ce82600161a9b8565b600481106127ec57634e487b7160e01b600052603260045260246000fd5b600202016002826004811061281157634e487b7160e01b600052603260045260246000fd5b825460029190910291909101908155600191820154910155806128338161aa81565b9150506127ae565b50426002836004811061285e57634e487b7160e01b600052603260045260246000fd5b600202016000018190555060006002836004811061288c57634e487b7160e01b600052603260045260246000fd5b60020201600101819055505b5050565b6128a46167f2565b6001600160a01b03166128b5613a7f565b6001600160a01b0316146128db5760405162461bcd60e51b8152600401610ddc90619f8f565b600081815260146020526040812081815560018101829055600281018290556003810182905560048101805462ffffff1916905560058101829055600681018290556007810182905560088101829055906129396009830182618cd8565b506000600a820155600b01805460ff1916905550565b60225460009081526014602052604090206004015460ff166129835760405162461bcd60e51b8152600401610ddc9061a143565b60225460009081526014602052604090206004015462010000900460ff16156129be5760405162461bcd60e51b8152600401610ddc90619ec1565b6000612ae2612a57601a80549050602960009054906101000a90046001600160a01b03166001600160a01b031663dfeceed76040518163ffffffff1660e01b815260040160206040518083038186803b158015612a1a57600080fd5b505afa158015612a2e573d6000803e3d6000fd5b505050506040513d601f19601f82011682018060405250810190612a529190619252565b616d57565b602960009054906101000a90046001600160a01b03166001600160a01b031663bd40ef4c6040518163ffffffff1660e01b815260040160206040518083038186803b158015612aa557600080fd5b505afa158015612ab9573d6000803e3d6000fd5b505050506040513d601f19601f82011682018060405250810190612add9190619252565b616d6d565b601a546029546040805163189460df60e31b8152905193945091926001600160a01b039091169163c4a306f8916004808301926020929190829003018186803b158015612b2e57600080fd5b505afa158015612b42573d6000803e3d6000fd5b505050506040513d601f19601f82011682018060405250810190612b669190619252565b600154612b73904261aa03565b1061289857602280546000908152601460209081526040808320600301869055925482528282206002018590556029548351631b4930b560e11b815293519293612c22936001600160a01b0390921692633692616a92600480840193829003018186803b158015612be357600080fd5b505afa158015612bf7573d6000803e3d6000fd5b505050506040513d601f19601f82011682018060405250810190612c1b9190619252565b4290616d7d565b90506000612cb6602960009054906101000a90046001600160a01b03166001600160a01b03166372e540306040518163ffffffff1660e01b815260040160206040518083038186803b158015612c7757600080fd5b505afa158015612c8b573d6000803e3d6000fd5b505050506040513d601f19601f82011682018060405250810190612caf9190619252565b8390616d7d565b60228054600090815260146020526040808220600501869055825482528082206006018490559154815220600401805462ff0000191662010000179055905060018410801590612d07575060018310155b612d235760405162461bcd60e51b8152600401610ddc906199ea565b6000612d2f8585614734565b9050600081516001600160401b03811115612d5a57634e487b7160e01b600052604160045260246000fd5b604051908082528060200260200182016040528015612d83578160200160208202803683370190505b50905060005b8251811015612e4257601a838281518110612db457634e487b7160e01b600052603260045260246000fd5b602002602001015181548110612dda57634e487b7160e01b600052603260045260246000fd5b9060005260206000200160009054906101000a90046001600160a01b0316828281518110612e1857634e487b7160e01b600052603260045260246000fd5b6001600160a01b039092166020928302919091019091015280612e3a8161aa81565b915050612d89565b5060005b8251811015612faa576000828281518110612e7157634e487b7160e01b600052603260045260246000fd5b60200260200101519050600060156000836001600160a01b03166001600160a01b031681526020019081526020016000209050612ead826167f6565b612eb682616d89565b612f0657601b80546001810182556000919091527f3ad8aa4f87544323a9d1e5dd902f40c356527a7955687113db5f9a85ad579dc10180546001600160a01b0319166001600160a01b0384161790555b6022805460009081526019602090815260408083208054600180820183559185529290932090910180546001600160a01b0319166001600160a01b03871617905582549184019190915560028301805460ff19169055905490517fe4ee2dfabe57cee15e3f558890b20455f54c1fa0718e5276faad70a6500e6b8c90612f8d9085906194b5565b60405180910390a250508080612fa29061aa81565b915050612e46565b50426001908155602254612fbd91616d7d565b602255612fc8614242565b601d81905550600160236000828254612fe1919061a9b8565b9091555050505050505050565b600061177c82610c1384611bed565b6001600160a01b031660009081526017602052604090205490565b6130206167f2565b6001600160a01b0316613031613a7f565b6001600160a01b0316146130575760405162461bcd60e51b8152600401610ddc90619f8f565b6130616000616df9565b565b600061306e82616705565b61308a5760405162461bcd60e51b8152600401610ddc9061a25b565b5060009081526014602052604090206006015490565b601b5490565b6130ae6167f2565b6001600160a01b03166130bf613a7f565b6001600160a01b0316146130e55760405162461bcd60e51b8152600401610ddc90619f8f565b602255565b600073__$0947e710b66d7779e1d561254425e1375a$__636981015860126131128686613d34565b6040518363ffffffff1660e01b815260040161312f92919061a71a565b60206040518083038186803b15801561314757600080fd5b505af415801561315b573d6000803e3d6000fd5b505050506040513d601f19601f82011682018060405250810190611a669190619252565b601b54601a546000916131919161a9b8565b905090565b60006131a182616705565b6131bd5760405162461bcd60e51b8152600401610ddc9061a25b565b506001600160a01b03919091166000908152600a60209081526040808320938352929052205460ff1690565b601460205260009081526040902080546001820154600283015460038401546004850154600586015460068701546007880154600889015460098a018054999a98999798969760ff808816986101008904821698620100009004909116969594939290916132569061aa46565b80601f01602080910402602001604051908101604052809291908181526020018280546132829061aa46565b80156132cf5780601f106132a4576101008083540402835291602001916132cf565b820191906000526020600020905b8154815290600101906020018083116132b257829003601f168201915b50505050600a830154600b9093015491929160ff1690508e565b600080805b600481101561333f576002816004811061331857634e487b7160e01b600052603260045260246000fd5b60020201600101548261332b919061a9b8565b9150806133378161aa81565b9150506132ee565b50905090565b6000806133528487615415565b831015905060006133638587615415565b8411158061336f575085155b905081801561337b5750805b979650505050505050565b601b8181548110611b5457600080fd5b61339f85613d73565b6133bb5760405162461bcd60e51b8152600401610ddc90619818565b336000908152600a6020908152604080832088845290915290205460ff16156133f65760405162461bcd60e51b8152600401610ddc9061a320565b613400853361545a565b61341c5760405162461bcd60e51b8152600401610ddc90619af0565b60295460408051632a49798160e11b815290516000926001600160a01b031691635492f302916004808301926020929190829003018186803b15801561346157600080fd5b505afa158015613475573d6000803e3d6000fd5b505050506040513d601f19601f820116820180604052508101906134999190618f87565b6001600160a01b031614156134c05760405162461bcd60e51b8152600401610ddc9061a4ea565b602954604080516001624ee91360e11b0319815290516000926001600160a01b03169163ff622dda916004808301926020929190829003018186803b15801561350857600080fd5b505afa15801561351c573d6000803e3d6000fd5b505050506040513d601f19601f820116820180604052508101906135409190619252565b9050600061354d33611552565b6001600160a01b0381166000908152601760205260409020549091508211156135a2576001600160a01b038116600090815260176020526040812054613594908490616e49565b90506135a08183616e55565b505b6000336000908152601160205260408082209051631e0f232560e31b815273__$85afbab79b2b776d70bef879a32ed56424$__9163f0791928916135eb919086906004016194a7565b60206040518083038186803b15801561360357600080fd5b505af4158015613617573d6000803e3d6000fd5b505050506040513d601f19601f8201168201806040525081019061363b9190619252565b9050888114156136e05733600090815260116020526040908190209051631e0f232560e31b815273__$85afbab79b2b776d70bef879a32ed56424$__9163f07919289161368d91908d906004016194a7565b60206040518083038186803b1580156136a557600080fd5b505af41580156136b9573d6000803e3d6000fd5b505050506040513d601f19601f820116820180604052508101906136dd9190619252565b90505b6136ec82823387613345565b6137085760405162461bcd60e51b8152600401610ddc90619e93565b3360009081526011602052604090819020905163524cfe5360e11b815273__$85afbab79b2b776d70bef879a32ed56424$__9163a499fca691613754919086908e90879060040161a792565b60006040518083038186803b15801561376c57600080fd5b505af4158015613780573d6000803e3d6000fd5b505050506000613790338b613d34565b60405163099b040f60e31b815290915073__$0947e710b66d7779e1d561254425e1375a$__90634cd82078906137cf9060129085908a9060040161a774565b60006040518083038186803b1580156137e757600080fd5b505af41580156137fb573d6000803e3d6000fd5b505060405163099b040f60e31b815273__$0947e710b66d7779e1d561254425e1375a$__9250634cd82078915061383b9060129085908e9060040161a738565b60006040518083038186803b15801561385357600080fd5b505af4158015613867573d6000803e3d6000fd5b505060405163099b040f60e31b815273__$0947e710b66d7779e1d561254425e1375a$__9250634cd8207891506138a79060129085908d9060040161a6ec565b60006040518083038186803b1580156138bf57600080fd5b505af41580156138d3573d6000803e3d6000fd5b50505060008b8152600e60209081526040808320338085529083528184208c90558e8452600f83528184209084528252909120885161391793509091890190618d78565b503360009081526015602090815260408083208d8452601490925290912060020154613944906001616e49565b60008c815260146020908152604080832060020193909355426004850155338252600a81528282208e83529052908120805460ff19166001908117909155602380549192909161399590849061a9b8565b909155506139a39050616a7e565b336001600160a01b03168b7f42864d9683ff5b12c3b2cc65d705af5aab104b03bc700b802f79e5c971ef08a1886040516139dd9190619482565b60405180910390a35050505050505050505050565b60205481565b600f60209081526000928352604080842090915290825290208054611ab19061aa46565b6015602052600090815260409020805460018201546002830154600384015460048501546005860154600687015460078801546008909801546001600160a01b0390971697959660ff95861696949593948385169461010090940490931692908a565b6000546001600160a01b031690565b60196020528160005260406000208181548110613aaa57600080fd5b6000918252602090912001546001600160a01b03169150829050565b60016000828152601460205260409020600b015460ff166003811115613afc57634e487b7160e01b600052602160045260246000fd5b14613b195760405162461bcd60e51b8152600401610ddc90619782565b336000908152601160205260409081902090516306120d1f60e31b815273__$85afbab79b2b776d70bef879a32ed56424$__9163309068f891613b61919085906004016194a7565b60206040518083038186803b158015613b7957600080fd5b505af4158015613b8d573d6000803e3d6000fd5b505050506040513d601f19601f82011682018060405250810190613bb19190619178565b613bcd5760405162461bcd60e51b8152600401610ddc90619d7e565b336000908152601160205260409081902090516301039dfd60e11b815273__$85afbab79b2b776d70bef879a32ed56424$__916302073bfa91613c15919085906004016194a7565b60006040518083038186803b158015613c2d57600080fd5b505af4158015613c41573d6000803e3d6000fd5b50506040513392508391507f402507661c8c8cb90e0a796450b8bdd28b6c516f05279c0cd29e84c344e1699a90600090a350565b60245481565b6001600160a01b038116600090815260166020526040812081805b6004811015610f4857828160048110613cbf57634e487b7160e01b600052603260045260246000fd5b600202016001015482613cd2919061a9b8565b915080613cde8161aa81565b915050613c96565b60005b815181101561289857613d22828281518110613d1557634e487b7160e01b600052603260045260246000fd5b6020026020010151613ac6565b80613d2c8161aa81565b915050613ce9565b60008282604051602001613d49929190619460565b60405160208183030381529060405280519060200120905092915050565b60245490565b60255481565b6000613d7e82616705565b613d9a5760405162461bcd60e51b8152600401610ddc9061a25b565b600082815260146020526040902060050154613db5906157b7565b15801561177c575050600090815260146020526040902060020154151590565b601e5490565b600081604051602001613dee919061948b565b6040516020818303038152906040528051906020012083604051602001613e15919061948b565b604051602081830303815290604052805190602001201415613e395750600161177c565b50600061177c565b613e4a84611c8d565b613e665760405162461bcd60e51b8152600401610ddc9061a199565b336000908152600a6020908152604080832087845290915290205460ff16613ea05760405162461bcd60e51b8152600401610ddc90619c26565b336000908152600b6020908152604080832087845290915290205460ff1615613edb5760405162461bcd60e51b8152600401610ddc9061a5ab565b613ee533856130ea565b613eef84836162d4565b14613f0c5760405162461bcd60e51b8152600401610ddc906198df565b613f1633856142f7565b613f208383614419565b14613f3d5760405162461bcd60e51b8152600401610ddc90619867565b6000613f493386615415565b90508260011415613f805760008581526014602052604081206007018054839290613f7590849061a9b8565b90915550613fa79050565b60008581526014602052604081206008018054839290613fa190849061a9b8565b90915550505b336000908152601160205260409081902090516301039dfd60e11b815273__$85afbab79b2b776d70bef879a32ed56424$__916302073bfa91613fef919089906004016194a7565b60006040518083038186803b15801561400757600080fd5b505af415801561401b573d6000803e3d6000fd5b5050336000818152600b602090815260408083208b84528252808320805460ff19166001179055600c825280832084845282528083208990558a8352600d8252808320938352928152919020875161407a945090925090870190618d78565b503360009081526015602090815260408083208884526014909252909120600301546140a7906001616e49565b60008781526014602052604090206003015560028101805460ff191660011790554260048201556140d73361694e565b600581015460ff161561414c576140ed3361707d565b15801561410457506005810154610100900460ff16155b1561414c57601a80546001810182556000919091527f057c384a7d1c54f3a1b2e5e67b2617b8224fdfd1ea7234eea573a6ff665ff63e0180546001600160a01b031916331790555b60008681526014602052604090206003015461416b5761416b866170ed565b60016023600082825461417e919061a9b8565b9091555061418c9050616a7e565b6000868152601460205260409081902060078101546008909101549151339287928a927f0867b5027231dcbf37614eaad07d667b9febaf9fdf483f488229b1f140bb0748926141df92899290919061a876565b60405180910390a4505050505050565b60006141fa82616705565b6142165760405162461bcd60e51b8152600401610ddc9061a25b565b506001600160a01b03919091166000908152600b60209081526040808320938352929052205460ff1690565b60008042416040516020016142579190619443565b6040516020818303038152906040528051906020012060001c61427a919061a9d0565b44614283611b7e565b6040516020016142939190619482565b60408051601f1981840301815291905280516020909101206142b5904261a9b8565b6142bf919061a9b8565b6142c9919061a9b8565b6040516020016142d99190619482565b60408051601f19818403018152919052805160209091012091505090565b600073__$0947e710b66d7779e1d561254425e1375a$__6369810158601261431f8686613d34565b6040518363ffffffff1660e01b815260040161312f92919061a6ce565b601c8181548110611b5457600080fd5b6001600160a01b03808216600090815260156020908152604080832081516101408101835281549095168552600181015492850192909252600282015460ff90811615801592860183905260038401546060870152600484015460808701526005840154808316151560a088015261010090819004909216151560c0870152600684015460e0870152600784015491860191909152600890920154610120850152919283929091906144085750614406816020015161173a565b155b1561441257600191505b5092915050565b60008282604051602001613d499291906194a7565b6060600082116144505760405162461bcd60e51b8152600401610ddc90619f6a565b6000416040516020016144639190619443565b6040516020818303038152906040528051906020012060001c614484611b7e565b6040516020016144949190619482565b60408051601f1981840301815291905280516020909101206144b6904261a9b8565b6144c0919061a9b8565b6040516020016144d09190619482565b6040516020818303038152906040528051906020012060001c90506000846001600160401b0381111561451357634e487b7160e01b600052604160045260246000fd5b60405190808252806020026020018201604052801561453c578160200160208202803683370190505b5090506000805b8682101561463d5760008661455c63017efeeb8761aa03565b8360405160200161456e9291906194a7565b6040516020818303038152906040528051906020012060001c614591919061aa9c565b90506000805b848110156145e957828682815181106145c057634e487b7160e01b600052603260045260246000fd5b602002602001015114156145d757600191506145e9565b806145e18161aa81565b915050614597565b5080614629578185858151811061461057634e487b7160e01b600052603260045260246000fd5b602090810291909101015261462684600161a9b8565b93505b61463483600161a9b8565b92505050614543565b509095945050505050565b60006146538361173a565b61466f5760405162461bcd60e51b8152600401610ddc9061a443565b6001600160a01b0384166000908152600b6020908152604080832086845290915290205460ff166146b25760405162461bcd60e51b8152600401610ddc90619ddb565b60006146bd84611cf3565b6146c85760006146cb565b60015b60ff169050600081846040516020016146e59291906194a7565b604051602081830303815290604052805190602001209050600061470987876142f7565b905080821461472a5760405162461bcd60e51b8152600401610ddc9061a0fa565b61337b8787615415565b60606000821180156147465750818311155b8015614753575060018310155b61476f5760405162461bcd60e51b8152600401610ddc906199a1565b6000826001600160401b0381111561479757634e487b7160e01b600052604160045260246000fd5b6040519080825280602002602001820160405280156147c0578160200160208202803683370190505b5090506000846001600160401b038111156147eb57634e487b7160e01b600052604160045260246000fd5b604051908082528060200260200182016040528015614814578160200160208202803683370190505b509050600061482a6148258461885e565b6188b4565b905060005b8681101561463d5781818151811061485757634e487b7160e01b600052603260045260246000fd5b602002602001015183828151811061487f57634e487b7160e01b600052603260045260246000fd5b6020908102919091010152806148948161aa81565b91505061482f565b602954604080516309d0f8b560e31b815290516000926001600160a01b031691634e87c5a8916004808301926020929190829003018186803b1580156148e157600080fd5b505afa1580156148f5573d6000803e3d6000fd5b505050506040513d601f19601f820116820180604052508101906149199190619178565b6149355760405162461bcd60e51b8152600401610ddc90619c75565b855184146149555760405162461bcd60e51b8152600401610ddc9061a2d3565b600061496033611552565b905061496a6126e3565b602960009054906101000a90046001600160a01b03166001600160a01b031663b38e885e6040518163ffffffff1660e01b815260040160206040518083038186803b1580156149b857600080fd5b505afa1580156149cc573d6000803e3d6000fd5b505050506040513d601f19601f820116820180604052508101906149f09190619252565b6149f86132e9565b10614a155760405162461bcd60e51b8152600401610ddc90619cbf565b614a1e81611ff0565b602960009054906101000a90046001600160a01b03166001600160a01b031663be2509886040518163ffffffff1660e01b815260040160206040518083038186803b158015614a6c57600080fd5b505afa158015614a80573d6000803e3d6000fd5b505050506040513d601f19601f82011682018060405250810190614aa49190619252565b614aad82613c7b565b10614aca5760405162461bcd60e51b8152600401610ddc9061a52e565b602954604080516001624ee91360e11b0319815290516000926001600160a01b03169163ff622dda916004808301926020929190829003018186803b158015614b1257600080fd5b505afa158015614b26573d6000803e3d6000fd5b505050506040513d601f19601f82011682018060405250810190614b4a9190619252565b6001600160a01b038316600090815260176020526040902054909150811115614b9f576001600160a01b038216600090815260176020526040812054614b91908390616e49565b9050614b9d8184616e55565b505b60005b885181101561538c576000898281518110614bcd57634e487b7160e01b600052603260045260246000fd5b602002602001015190506000898984818110614bf957634e487b7160e01b600052603260045260246000fd5b9050602002810190614c0b919061a91c565b8080601f016020809104026020016040519081016040528093929190818152602001838380828437600092018290525033808252601060209081526040808420601e54815460018101835591865283862090910155805160e0810182528a8152918201929092524291810191909152606081018e90526080810186905260a081018d905294955060c0850193509150614ca19050565b9052601e546000908152601360209081526040909120825180519192614ccc92849290910190618d78565b506020828101516001830180546001600160a01b0319166001600160a01b03909216919091179055604083015160028301556060830151600383015560808301518051614d1f9260048501920190618d78565b5060a08201518051614d3b916005840191602090910190618d78565b5060c082015160068201805460ff19166001836003811115614d6d57634e487b7160e01b600052602160045260246000fd5b021790555050602080546000908152601482526040908190206029548251634e8f956d60e11b815292519194506001600160a01b031692639d1f2ada9260048082019391829003018186803b158015614dc557600080fd5b505afa158015614dd9573d6000803e3d6000fd5b505050506040513d601f19601f82011682018060405250810190614dfd9190619252565b81600101541015614e23576001816001016000828254614e1d919061a9b8565b90915550505b602960009054906101000a90046001600160a01b03166001600160a01b0316639d1f2ada6040518163ffffffff1660e01b815260040160206040518083038186803b158015614e7157600080fd5b505afa158015614e85573d6000803e3d6000fd5b505050506040513d601f19601f82011682018060405250810190614ea99190619252565b816001015410614ef957600481018054600160ff19909116811761ff00191690915560208054600090614edd90849061a9b8565b9091555050601e54602080546000908152601490915260409020555b601e54614f0790600161a9b8565b601e5560016002614f1982600461aa03565b60048110614f3757634e487b7160e01b600052603260045260246000fd5b600202016001016000828254614f4d919061a9b8565b90915550506001600160a01b0386166000908152601660205260409020600181614f7882600461aa03565b60048110614f9657634e487b7160e01b600052603260045260246000fd5b600202016001016000828254614fac919061a9b8565b90915550614fba9050615940565b60295460408051637b39b17f60e11b815290516000926001600160a01b03169163f67362fe916004808301926020929190829003018186803b158015614fff57600080fd5b505afa158015615013573d6000803e3d6000fd5b505050506040513d601f19601f820116820180604052508101906150379190618f87565b9050806001600160a01b031663da14563a6040518163ffffffff1660e01b8152600401600060405180830381600087803b15801561507457600080fd5b505af1925050508015615085575060015b6150e0573d8080156150b3576040519150601f19603f3d011682016040523d82523d6000602084013e6150b8565b606091505b5060008051602061ab08833981519152816040516150d691906195cc565b60405180910390a1505b60295460408051637a0ec25b60e01b815290516000926001600160a01b031691637a0ec25b916004808301926020929190829003018186803b15801561512557600080fd5b505afa158015615139573d6000803e3d6000fd5b505050506040513d601f19601f8201168201806040525081019061515d9190618f87565b9050806001600160a01b031663da14563a6040518163ffffffff1660e01b8152600401600060405180830381600087803b15801561519a57600080fd5b505af19250505080156151ab575060015b615206573d8080156151d9576040519150601f19603f3d011682016040523d82523d6000602084013e6151de565b606091505b5060008051602061ab08833981519152816040516151fc91906195cc565b60405180910390a1505b6029546040805163463444b760e01b815290516000926001600160a01b03169163463444b7916004808301926020929190829003018186803b15801561524b57600080fd5b505afa15801561525f573d6000803e3d6000fd5b505050506040513d601f19601f820116820180604052508101906152839190618f87565b9050806001600160a01b031663da14563a6040518163ffffffff1660e01b8152600401600060405180830381600087803b1580156152c057600080fd5b505af19250505080156152d1575060015b61532c573d8080156152ff576040519150601f19603f3d011682016040523d82523d6000602084013e615304565b606091505b5060008051602061ab088339815191528160405161532291906195cc565b60405180910390a1505b896001600160a01b0316601e547fb819ca9ac369919119f75ec7363dd954f75bcfa75f9245647e03da413be0d582898960405161536a929190619651565b60405180910390a35050505050505080806153849061aa81565b915050614ba2565b503360009081526015602052604090204260048201556153aa616a7e565b6001602360008282546153bd919061a9b8565b9091555050601e549998505050505050505050565b60006153dd82616705565b6153f95760405162461bcd60e51b8152600401610ddc9061a25b565b5060009081526014602052604090206005015490565b60015481565b600073__$0947e710b66d7779e1d561254425e1375a$__6369810158601261543d8686613d34565b6040518363ffffffff1660e01b815260040161312f92919061a756565b60008281526019602090815260408083208054825181850281018501909352808352849384939291908301828280156154bc57602002820191906000526020600020905b81546001600160a01b0316815260019091019060200180831161549e575b5050505050905060005b815181101561552b57846001600160a01b03168282815181106154f957634e487b7160e01b600052603260045260246000fd5b60200260200101516001600160a01b03161415615519576001925061552b565b806155238161aa81565b9150506154c6565b5090949350505050565b600b60209081526000928352604080842090915290825290205460ff1681565b601f5481565b60225481565b606061556c82616705565b6155885760405162461bcd60e51b8152600401610ddc9061a25b565b6000828152601960209081526040808320805482518185028101850190935280835291929091908301828280156155e857602002820191906000526020600020905b81546001600160a01b031681526001909101906020018083116155ca575b50505050509050600081516001600160401b0381111561561857634e487b7160e01b600052604160045260246000fd5b60405190808252806020026020018201604052801561564b57816020015b60608152602001906001900390816156365790505b50905060005b8251811015610f4857600d6000868152602001908152602001600020600084838151811061568f57634e487b7160e01b600052603260045260246000fd5b60200260200101516001600160a01b03166001600160a01b0316815260200190815260200160002080546156c29061aa46565b80601f01602080910402602001604051908101604052809291908181526020018280546156ee9061aa46565b801561573b5780601f106157105761010080835404028352916020019161573b565b820191906000526020600020905b81548152906001019060200180831161571e57829003601f168201915b505050505082828151811061576057634e487b7160e01b600052603260045260246000fd5b602002602001018190525080806157769061aa81565b915050615651565b60186020528160005260406000208181548110613aaa57600080fd5b600c60209081526000928352604080842090915290825290205481565b421190565b6157c4618dfc565b6157cd82616705565b6157d657600080fd5b60008281526014602090815260409182902082516101c0810184528154815260018201549281019290925260028101549282019290925260038201546060820152600482015460ff808216151560808401526101008083048216151560a08501526201000090920416151560c0830152600583015460e083015260068301549082015260078201546101208201526008820154610140820152600982018054919291610160840191906158889061aa46565b80601f01602080910402602001604051908101604052809291908181526020018280546158b49061aa46565b80156159015780601f106158d657610100808354040283529160200191615901565b820191906000526020600020905b8154815290600101906020018083116158e457829003601f168201915b5050509183525050600a8201546020820152600b82015460409091019060ff16600381111561245057634e487b7160e01b600052602160045260246000fd5b601c541561595057615950618a5b565b6159586126e3565b615960618b0f565b60005b602960009054906101000a90046001600160a01b03166001600160a01b0316637d630cb06040518163ffffffff1660e01b815260040160206040518083038186803b1580156159b157600080fd5b505afa1580156159c5573d6000803e3d6000fd5b505050506040513d601f19601f820116820180604052508101906159e99190619252565b811015615c1f5760215460009081526014602052604081206004015462010000900460ff1615156001148015615a425750615a2560215461173a565b80615a425750602154600090815260146020526040902060030154155b15615a6757615a526021546170ed565b602154615a60906001616d7d565b6021555060015b60225460009081526014602052604090206004015462010000900460ff161515600114801590615b1e5750602960009054906101000a90046001600160a01b03166001600160a01b031663bd40ef4c6040518163ffffffff1660e01b815260040160206040518083038186803b158015615ae057600080fd5b505afa158015615af4573d6000803e3d6000fd5b505050506040513d601f19601f82011682018060405250810190615b189190619252565b601a5410155b8015615b3e575060225460009081526014602052604090206004015460ff165b8015615b535750615b4d614242565b601d5414155b8015615bf05750602960009054906101000a90046001600160a01b03166001600160a01b031663c4a306f86040518163ffffffff1660e01b815260040160206040518083038186803b158015615ba857600080fd5b505afa158015615bbc573d6000803e3d6000fd5b505050506040513d601f19601f82011682018060405250810190615be09190619252565b600154615bed904261aa03565b10155b15615c0157615bfd61294f565b5060015b80615c0c5750615c1f565b5080615c178161aa81565b915050615963565b50613061616a7e565b606060008211615c4a5760405162461bcd60e51b8152600401610ddc90619e74565b6000826001600160401b03811115615c7257634e487b7160e01b600052604160045260246000fd5b604051908082528060200260200182016040528015615c9b578160200160208202803683370190505b5090506000615cac6148258361885e565b949350505050565b6060615cbf82616705565b615cc857600080fd5b60008281526014602052604090206009018054615ce49061aa46565b80601f0160208091040260200160405190810160405280929190818152602001828054615d109061aa46565b80156122175780601f10615d3257610100808354040283529160200191612217565b820191906000526020600020905b815481529060010190602001808311615d405750939695505050505050565b6001600160a01b031660009081526015602052604090206005015460ff1690565b6000615da4615d8e33612fee565b3360009081526017602052604090205490616e49565b905081811015615dc65760405162461bcd60e51b8152600401610ddc9061a1df565b6029546040805163ca64f9e760e01b815290516000926001600160a01b03169163ca64f9e7916004808301926020929190829003018186803b158015615e0b57600080fd5b505afa158015615e1f573d6000803e3d6000fd5b505050506040513d601f19601f82011682018060405250810190615e439190618f87565b604051630895993360e11b81529091506001600160a01b0382169063112b326690615e74908690339060040161a841565b602060405180830381600087803b158015615e8e57600080fd5b505af1158015615ea2573d6000803e3d6000fd5b505050506040513d601f19601f82011682018060405250810190615ec69190619178565b615ee25760405162461bcd60e51b8152600401610ddc9061a48d565b3360009081526017602052604081208054859290615f0190849061aa03565b909155505060405133907ffaeb7dbb9992397d26ea1944efd40c80b40f702faf69b46c67ad10aba68ccb7990615f38908690619482565b60405180910390a2505050565b60275481565b6060615f5682616705565b615f725760405162461bcd60e51b8152600401610ddc9061a25b565b600082815260146020908152604080832081516101c0810183528154815260018201549381019390935260028101549183019190915260038101546060830152600481015460ff808216151560808501526101008083048216151560a08601526201000090920416151560c0840152600582015460e084015260068201549083015260078101546101208301526008810154610140830152600981018054610160840191906160209061aa46565b80601f016020809104026020016040519081016040528092919081815260200182805461604c9061aa46565b80156160995780601f1061606e57610100808354040283529160200191616099565b820191906000526020600020905b81548152906001019060200180831161607c57829003601f168201915b5050509183525050600a8201546020820152600b82015460409091019060ff1660038111156160d857634e487b7160e01b600052602160045260246000fd5b60038111156160f757634e487b7160e01b600052602160045260246000fd5b90525060208101519091506000816001600160401b0381111561612a57634e487b7160e01b600052604160045260246000fd5b60405190808252806020026020018201604052801561615d57816020015b60608152602001906001900390816161485790505b50905060005b8281101561154957835160009061617b90839061a9b8565b6000818152601360205260408120805492935090916161999061aa46565b80601f01602080910402602001604051908101604052809291908181526020018280546161c59061aa46565b80156162125780601f106161e757610100808354040283529160200191616212565b820191906000526020600020905b8154815290600101906020018083116161f557829003601f168201915b505050505090508084848151811061623a57634e487b7160e01b600052603260045260246000fd5b6020026020010181905250505080806162529061aa81565b915050616163565b60215481565b60235481565b61626e6167f2565b6001600160a01b031661627f613a7f565b6001600160a01b0316146162a55760405162461bcd60e51b8152600401610ddc90619f8f565b6001600160a01b0381166162cb5760405162461bcd60e51b8152600401610ddc9061995b565b6118cd81616df9565b60008282604051602001613d4992919061967f565b60235490565b3360009081526015602090815260409182902060295483516398a54e2b60e01b8152935191936001600160a01b03909116926398a54e2b92600480840193829003018186803b15801561634157600080fd5b505afa158015616355573d6000803e3d6000fd5b505050506040513d601f19601f820116820180604052508101906163799190619252565b601b54601a54616389919061a9b8565b106163a65760405162461bcd60e51b8152600401610ddc9061a369565b600581015460ff16156163cb5760405162461bcd60e51b8152600401610ddc9061974b565b602960009054906101000a90046001600160a01b03166001600160a01b0316639fb491f66040518163ffffffff1660e01b815260040160206040518083038186803b15801561641957600080fd5b505afa15801561642d573d6000803e3d6000fd5b505050506040513d601f19601f820116820180604052508101906164519190619252565b8160030154101580156164f65750602960009054906101000a90046001600160a01b03166001600160a01b0316630f1f0ffe6040518163ffffffff1660e01b815260040160206040518083038186803b1580156164ad57600080fd5b505afa1580156164c1573d6000803e3d6000fd5b505050506040513d601f19601f820116820180604052508101906164e59190619252565b60068201546164f4904261aa03565b105b156165135760405162461bcd60e51b8152600401610ddc9061a3ab565b602954604080516001624ee91360e11b0319815290516000926001600160a01b03169163ff622dda916004808301926020929190829003018186803b15801561655b57600080fd5b505afa15801561656f573d6000803e3d6000fd5b505050506040513d601f19601f820116820180604052508101906165939190619252565b905060006165a033611552565b6001600160a01b0381166000908152601760205260409020549091508211156165f5576001600160a01b0381166000908152601760205260408120546165e7908490616e49565b90506165f38183616e55565b505b336000908152601760205260409020548211156166245760405162461bcd60e51b8152600401610ddc90619d15565b61662d3361707d565b61667457601a80546001810182556000919091527f057c384a7d1c54f3a1b2e5e67b2617b8224fdfd1ea7234eea573a6ff665ff63e0180546001600160a01b031916331790555b8254336001600160a01b031990911617835560058301805460ff1916600190811761ff001916909155426006850155600060038501819055602380549091906166be90849061a9b8565b909155506166cc9050616a7e565b336001600160a01b03167f439d77b7534ec3108fc6143bd4fbabde0b9f2bb54f7b0730d1f70dd2135b765f42604051615f389190619482565b602054101590565b3360009081526015602052604090206005015460ff1690565b60255490565b6028546001600160a01b031681565b6001600160a01b03908116600090815260156020908152604091829020825161014081018452815490941684526001810154918401829052600281015460ff90811615159385019390935260038101546060850152600481015460808501526005810154808416151560a086015261010090819004909316151560c0850152600681015460e08501526007810154928401929092526008909101546101209092019190915290565b6029546001600160a01b031681565b3390565b60008060005b601a5481101561686a57836001600160a01b0316601a828154811061683157634e487b7160e01b600052603260045260246000fd5b6000918252602090912001546001600160a01b03161415616858576001915080925061686a565b806168628161aa81565b9150506167fc565b50801561694957601a80546168819060019061aa03565b8154811061689f57634e487b7160e01b600052603260045260246000fd5b600091825260209091200154601a80546001600160a01b0390921691849081106168d957634e487b7160e01b600052603260045260246000fd5b9060005260206000200160006101000a8154816001600160a01b0302191690836001600160a01b03160217905550601a80548061692657634e487b7160e01b600052603160045260246000fd5b600082815260209020810160001990810180546001600160a01b03191690550190555b505050565b60008060005b601b548110156169c257836001600160a01b0316601b828154811061698957634e487b7160e01b600052603260045260246000fd5b6000918252602090912001546001600160a01b031614156169b057600191508092506169c2565b806169ba8161aa81565b915050616954565b50801561694957601b80546169d99060019061aa03565b815481106169f757634e487b7160e01b600052603260045260246000fd5b600091825260209091200154601b80546001600160a01b039092169184908110616a3157634e487b7160e01b600052603260045260246000fd5b9060005260206000200160006101000a8154816001600160a01b0302191690836001600160a01b03160217905550601b80548061692657634e487b7160e01b600052603160045260246000fd5b60295460408051632abe0d5f60e11b815290516000926001600160a01b03169163557c1abe916004808301926020929190829003018186803b158015616ac357600080fd5b505afa925050508015616af3575060408051601f3d908101601f19168201909252616af091810190618f87565b60015b616b52573d808015616b21576040519150601f19603f3d011682016040523d82523d6000602084013e616b26565b606091505b5060008051602061ab0883398151915281604051616b4491906195cc565b60405180910390a150616b54565b505b602960009054906101000a90046001600160a01b03166001600160a01b031663557c1abe6040518163ffffffff1660e01b815260040160206040518083038186803b158015616ba257600080fd5b505afa158015616bb6573d6000803e3d6000fd5b505050506040513d601f19601f82011682018060405250810190616bda9190618f87565b90506001600160a01b038116616c025760405162461bcd60e51b8152600401610ddc90619b4d565b6000816001600160a01b031633604051602401616c1f91906194b5565b60408051601f198184030181529181526020820180516001600160e01b0316631f5ac9c560e11b17905251616c54919061948b565b6000604051808303816000865af19150503d8060008114616c91576040519150601f19603f3d011682016040523d82523d6000602084013e616c96565b606091505b505090506000826001600160a01b031633604051602401616cb791906194b5565b60408051601f198184030181529181526020820180516001600160e01b03166358563d2160e01b17905251616cec919061948b565b6000604051808303816000865af19150503d8060008114616d29576040519150601f19603f3d011682016040523d82523d6000602084013e616d2e565b606091505b505090508180616d3b5750805b6169495760405162461bcd60e51b8152600401610ddc906197d3565b6000818310616d665781611a66565b5090919050565b600081831015616d665781611a66565b6000611a66828461a9b8565b600080805b601b5481101561441257836001600160a01b0316601b8281548110616dc357634e487b7160e01b600052603260045260246000fd5b6000918252602090912001546001600160a01b03161415616de75760019150614412565b80616df18161aa81565b915050616d8e565b600080546001600160a01b038381166001600160a01b0319831681178455604051919092169283917f8be0079c531659141344cd1fd0a4f28419497f9722a3daafe3b4186f6b6457e09190a35050565b6000611a66828461aa03565b6029546040805163ca64f9e760e01b815290516000926001600160a01b03169163ca64f9e7916004808301926020929190829003018186803b158015616e9a57600080fd5b505afa158015616eae573d6000803e3d6000fd5b505050506040513d601f19601f82011682018060405250810190616ed29190618f87565b6001600160a01b03161415616ef95760405162461bcd60e51b8152600401610ddc9061a0b8565b6029546040805163ca64f9e760e01b815290516000926001600160a01b03169163ca64f9e7916004808301926020929190829003018186803b158015616f3e57600080fd5b505afa158015616f52573d6000803e3d6000fd5b505050506040513d601f19601f82011682018060405250810190616f769190618f87565b6040516304ada21f60e21b81529091506001600160a01b038216906312b6887c90616fa7908690869060040161a841565b602060405180830381600087803b158015616fc157600080fd5b505af1158015616fd5573d6000803e3d6000fd5b505050506040513d601f19601f82011682018060405250810190616ff99190619178565b6170155760405162461bcd60e51b8152600401610ddc90619bc9565b6001600160a01b0382166000908152601760205260408120805485929061703d90849061a9b8565b92505081905550816001600160a01b03167f5aa5d56140767016c877a5333ac3e1ad31a09051098a8fdf7297c4b64530a94284604051615f389190619482565b600080805b601a5481101561441257836001600160a01b0316601a82815481106170b757634e487b7160e01b600052603260045260246000fd5b6000918252602090912001546001600160a01b031614156170db5760019150614412565b806170e58161aa81565b915050617082565b60295460408051632a49798160e11b815290516000926001600160a01b031691635492f302916004808301926020929190829003018186803b15801561713257600080fd5b505afa158015617146573d6000803e3d6000fd5b505050506040513d601f19601f8201168201806040525081019061716a9190618f87565b6001600160a01b031614156171915760405162461bcd60e51b8152600401610ddc9061a4ea565b60295460408051630855d15160e01b815290516000926001600160a01b031691630855d151916004808301926020929190829003018186803b1580156171d657600080fd5b505afa1580156171ea573d6000803e3d6000fd5b505050506040513d601f19601f8201168201806040525081019061720e9190618f87565b6001600160a01b031614156172355760405162461bcd60e51b8152600401610ddc9061a226565b602954604080516304e76c8f60e01b815290516000926001600160a01b0316916304e76c8f916004808301926020929190829003018186803b15801561727a57600080fd5b505afa15801561728e573d6000803e3d6000fd5b505050506040513d601f19601f820116820180604052508101906172b29190618f87565b6001600160a01b031614156172d95760405162461bcd60e51b8152600401610ddc90619a34565b6172e28161173a565b806172fc5750600081815260146020526040902060030154155b6173185760405162461bcd60e51b8152600401610ddc9061a014565b600081815260146020526040902060040154610100900460ff161561734f5760405162461bcd60e51b8152600401610ddc9061a292565b6000818152601960209081526040808320805482518185028101850190935280835291929091908301828280156173af57602002820191906000526020600020905b81546001600160a01b03168152600190910190602001808311617391575b50505050509050600081516001600160401b038111156173df57634e487b7160e01b600052604160045260246000fd5b60405190808252806020026020018201604052801561741257816020015b60608152602001906001900390816173fd5790505b509050600082516001600160401b0381111561743e57634e487b7160e01b600052604160045260246000fd5b604051908082528060200260200182016040528015617467578160200160208202803683370190505b50905060005b83518110156175ea57600084828151811061749857634e487b7160e01b600052603260045260246000fd5b6020908102919091018101516000888152600d835260408082206001600160a01b03841683529093529182208054919350906174d39061aa46565b80601f01602080910402602001604051908101604052809291908181526020018280546174ff9061aa46565b801561754c5780601f106175215761010080835404028352916020019161754c565b820191906000526020600020905b81548152906001019060200180831161752f57829003601f168201915b50505060008a8152600e602090815260408083206001600160a01b03891684529091529020548851939450928492508891508690811061759c57634e487b7160e01b600052603260045260246000fd5b6020026020010181905250808585815181106175c857634e487b7160e01b600052603260045260246000fd5b60200260200101818152505050505080806175e29061aa81565b91505061746d565b5060006176956064602960009054906101000a90046001600160a01b03166001600160a01b031663ea19733c6040518163ffffffff1660e01b815260040160206040518083038186803b15801561764057600080fd5b505afa158015617654573d6000803e3d6000fd5b505050506040513d601f19601f820116820180604052508101906176789190619252565b8651617684919061a9e4565b61768e919061a9d0565b6001616d6d565b90506000836000815181106176ba57634e487b7160e01b600052603260045260246000fd5b6020026020010151905060005b84518110156177b0576000805b86518110156177655761773587848151811061770057634e487b7160e01b600052603260045260246000fd5b602002602001015188838151811061772857634e487b7160e01b600052603260045260246000fd5b6020026020010151613ddb565b156177535761774560018361a9b8565b915084821061775357617765565b8061775d8161aa81565b9150506176d4565b5083811061779d5785828151811061778d57634e487b7160e01b600052603260045260246000fd5b60200260200101519250506177b0565b50806177a88161aa81565b9150506176c7565b506000836000815181106177d457634e487b7160e01b600052603260045260246000fd5b6020026020010151905060005b84518110156178c3576000805b86518110156178785786818151811061781757634e487b7160e01b600052603260045260246000fd5b602002602001015187848151811061783f57634e487b7160e01b600052603260045260246000fd5b602002602001015114156178665761785860018361a9b8565b915085821061786657617878565b806178708161aa81565b9150506177ee565b508481106178b0578582815181106178a057634e487b7160e01b600052603260045260246000fd5b60200260200101519250506178c3565b50806178bb8161aa81565b9150506177e1565b5060006178cf88611cf3565b905060005b87518110156180125760008882815181106178ff57634e487b7160e01b600052603260045260246000fd5b60209081029190910181015160008c8152600c835260408082206001600160a01b0384168352845280822054600b85528183208f845290945290205490925060ff1661794a8361694e565b6001600160a01b03831660009081526015602052604090208115617ef2576001600160a01b038416600090815260156020526040812060028101805460ff191660019081179091556003909101919091558615151480156179ab5750826001145b806179c05750851580156179c0575082600114155b15617e545760295460408051632a49798160e11b815290516000926001600160a01b031691635492f302916004808301926020929190829003018186803b158015617a0a57600080fd5b505afa158015617a1e573d6000803e3d6000fd5b505050506040513d601f19601f82011682018060405250810190617a429190618f87565b90506000602960009054906101000a90046001600160a01b03166001600160a01b0316630855d1516040518163ffffffff1660e01b815260040160206040518083038186803b158015617a9457600080fd5b505afa158015617aa8573d6000803e3d6000fd5b505050506040513d601f19601f82011682018060405250810190617acc9190618f87565b90506000602960009054906101000a90046001600160a01b03166001600160a01b03166304e76c8f6040518163ffffffff1660e01b815260040160206040518083038186803b158015617b1e57600080fd5b505afa158015617b32573d6000803e3d6000fd5b505050506040513d601f19601f82011682018060405250810190617b569190618f87565b90506000836001600160a01b03166311815086896040518263ffffffff1660e01b8152600401617b8691906194b5565b60206040518083038186803b158015617b9e57600080fd5b505afa158015617bb2573d6000803e3d6000fd5b505050506040513d601f19601f82011682018060405250810190617bd69190618f87565b9050826001600160a01b0316631b6d990a8c602960009054906101000a90046001600160a01b03166001600160a01b0316630b08bfd96040518163ffffffff1660e01b815260040160206040518083038186803b158015617c3657600080fd5b505afa158015617c4a573d6000803e3d6000fd5b505050506040513d601f19601f82011682018060405250810190617c6e9190619252565b617c78919061a9e4565b836040518363ffffffff1660e01b8152600401617c9692919061a858565b602060405180830381600087803b158015617cb057600080fd5b505af1158015617cc4573d6000803e3d6000fd5b505050506040513d601f19601f82011682018060405250810190617ce89190619178565b617d045760405162461bcd60e51b8152600401610ddc90619b84565b816001600160a01b031663e0ca50948c602960009054906101000a90046001600160a01b03166001600160a01b031663f80de0a06040518163ffffffff1660e01b815260040160206040518083038186803b158015617d6257600080fd5b505afa158015617d76573d6000803e3d6000fd5b505050506040513d601f19601f82011682018060405250810190617d9a9190619252565b617da4919061a9e4565b836040518363ffffffff1660e01b8152600401617dc292919061a841565b602060405180830381600087803b158015617ddc57600080fd5b505af1158015617df0573d6000803e3d6000fd5b505050506040513d601f19601f82011682018060405250810190617e149190619178565b617e305760405162461bcd60e51b8152600401610ddc9061a071565b6001856007016000828254617e45919061a9b8565b90915550617e6f945050505050565b6001816008016000828254617e69919061a9b8565b90915550505b600581015460ff1615617eed57617e858461707d565b158015617e9c57506005810154610100900460ff16155b15617eed57601a80546001810182556000919091527f057c384a7d1c54f3a1b2e5e67b2617b8224fdfd1ea7234eea573a6ff665ff63e0180546001600160a01b0319166001600160a01b0386161790555b617ffb565b6005810154610100900460ff1680617f08575081155b15617ffb576001600160a01b0384166000908152601560205260408120600301805460019290617f3990849061a9b8565b909155505060295460408051634fda48fb60e11b815290516001600160a01b0390921691639fb491f691600480820192602092909190829003018186803b158015617f8357600080fd5b505afa158015617f97573d6000803e3d6000fd5b505050506040513d601f19601f82011682018060405250810190617fbb9190619252565b6001600160a01b0385166000908152601560205260409020600301541415617ffb5760058101805460ff19169055617ff2846167f6565b617ffb8461694e565b50505050808061800a9061aa81565b9150506178d4565b50600088815260146020908152604090912060048101805461ff001916610100179055845161804992600990920191860190618d78565b506000888152601460205260409020600a01829055801561875d5760008881526014602052604081208054600190910154909190618087908361a9b8565b9050815b8181101561852a576000818152601360209081526040808320600101546029548251632a49798160e11b815292516001600160a01b0392831695949190921692635492f3029260048083019392829003018186803b1580156180ec57600080fd5b505afa158015618100573d6000803e3d6000fd5b505050506040513d601f19601f820116820180604052508101906181249190618f87565b90506000602960009054906101000a90046001600160a01b03166001600160a01b0316630855d1516040518163ffffffff1660e01b815260040160206040518083038186803b15801561817657600080fd5b505afa15801561818a573d6000803e3d6000fd5b505050506040513d601f19601f820116820180604052508101906181ae9190618f87565b90506000602960009054906101000a90046001600160a01b03166001600160a01b03166304e76c8f6040518163ffffffff1660e01b815260040160206040518083038186803b15801561820057600080fd5b505afa158015618214573d6000803e3d6000fd5b505050506040513d601f19601f820116820180604052508101906182389190618f87565b90506000836001600160a01b03166311815086866040518263ffffffff1660e01b815260040161826891906194b5565b60206040518083038186803b15801561828057600080fd5b505afa158015618294573d6000803e3d6000fd5b505050506040513d601f19601f820116820180604052508101906182b89190618f87565b9050826001600160a01b0316631b6d990a8b602960009054906101000a90046001600160a01b03166001600160a01b031663abb10b9b6040518163ffffffff1660e01b815260040160206040518083038186803b15801561831857600080fd5b505afa15801561832c573d6000803e3d6000fd5b505050506040513d601f19601f820116820180604052508101906183509190619252565b61835a919061a9e4565b836040518363ffffffff1660e01b815260040161837892919061a858565b602060405180830381600087803b15801561839257600080fd5b505af11580156183a6573d6000803e3d6000fd5b505050506040513d601f19601f820116820180604052508101906183ca9190619178565b6183e65760405162461bcd60e51b8152600401610ddc90619e26565b816001600160a01b031663e0ca50948b602960009054906101000a90046001600160a01b03166001600160a01b03166330c0bb796040518163ffffffff1660e01b815260040160206040518083038186803b15801561844457600080fd5b505afa158015618458573d6000803e3d6000fd5b505050506040513d601f19601f8201168201806040525081019061847c9190619252565b618486919061a9e4565b836040518363ffffffff1660e01b81526004016184a492919061a841565b602060405180830381600087803b1580156184be57600080fd5b505af11580156184d2573d6000803e3d6000fd5b505050506040513d601f19601f820116820180604052508101906184f69190619178565b6185125760405162461bcd60e51b8152600401610ddc90619fc4565b505050505080806185229061aa81565b91505061808b565b5060008a8152601460205260408120600b01805460ff19166001908117909155602480549192909161855d90849061a9b8565b909155505060295460408051637b39b17f60e11b815290516000926001600160a01b03169163f67362fe916004808301926020929190829003018186803b1580156185a757600080fd5b505afa1580156185bb573d6000803e3d6000fd5b505050506040513d601f19601f820116820180604052508101906185df9190618f87565b6001600160a01b031614156186065760405162461bcd60e51b8152600401610ddc90619a77565b60295460408051637b39b17f60e11b815290516000926001600160a01b03169163f67362fe916004808301926020929190829003018186803b15801561864b57600080fd5b505afa15801561865f573d6000803e3d6000fd5b505050506040513d601f19601f820116820180604052508101906186839190618f87565b6040516348257dc960e01b81529091506001600160a01b038216906348257dc9906186b2908e90600401619482565b600060405180830381600087803b1580156186cc57600080fd5b505af19250505080156186dd575060015b61873c573d80801561870b576040519150601f19603f3d011682016040523d82523d6000602084013e618710565b606091505b5060008051602061ab088339815191528160405161872e91906195cc565b60405180910390a150618755565b60016023600082825461874f919061a9b8565b90915550505b505050618792565b6000888152601460205260408120600b01805460ff19166002179055602580546001929061878c90849061a9b8565b90915550505b6001602360008282546187a5919061a9b8565b909155505060008881526014602052604081206002015460268054919290916187cf90849061a9b8565b909155505060008881526014602052604081206003015460278054919290916187f990849061a9b8565b909155505060008881526013602052604090819020600181015491516001600160a01b03909216917f43916c3ae75995d24cc89b466ed08e6dba74d325f7957f9b37b05f150e12918e9161884c916196a1565b60405180910390a25050505050505050565b805160609060005b818110156188ac578084828151811061888f57634e487b7160e01b600052603260045260246000fd5b6020908102919091010152806188a48161aa81565b915050618866565b509192915050565b606060008251116188d75760405162461bcd60e51b8152600401610ddc90619ac3565b81518060005b81811015618a52576000836188f0614242565b87848151811061891057634e487b7160e01b600052603260045260246000fd5b60200260200101516040516020016189299291906194a7565b6040516020818303038152906040528051906020012060001c61894c919061aa9c565b61895790600161a9b8565b905060008661896760018461aa03565b8151811061898557634e487b7160e01b600052603260045260246000fd5b602002602001015190508660018661899d919061aa03565b815181106189bb57634e487b7160e01b600052603260045260246000fd5b6020026020010151876001846189d1919061aa03565b815181106189ef57634e487b7160e01b600052603260045260246000fd5b60209081029190910101528087618a0760018861aa03565b81518110618a2557634e487b7160e01b600052603260045260246000fd5b6020908102919091010152618a3b60018661aa03565b945050508080618a4a9061aa81565b9150506188dd565b50929392505050565b60005b601c54811015618b02576000601c8281548110618a8b57634e487b7160e01b600052603260045260246000fd5b60009182526020808320909101546001600160a01b03168083526015909152604090912060058101549192509060ff168015618ac957506001810154155b15618aed5760058101805461ffff19169055618ae4826167f6565b618aed8261694e565b50508080618afa9061aa81565b915050618a5e565b50613061601c6000618e8a565b6000601f54602154618b21919061aa03565b9050602960009054906101000a90046001600160a01b03166001600160a01b031663e3115d3c6040518163ffffffff1660e01b815260040160206040518083038186803b158015618b7157600080fd5b505afa158015618b85573d6000803e3d6000fd5b505050506040513d601f19601f82011682018060405250810190618ba99190619252565b8111156118cd5760005b602954604080516307d630cb60e41b81529051618c37926001600160a01b031691637d630cb0916004808301926020929190829003018186803b158015618bf957600080fd5b505afa158015618c0d573d6000803e3d6000fd5b505050506040513d601f19601f82011682018060405250810190618c319190619252565b83616d57565b81101561289857601f5460009081526014602052604081208054600190910154909190618c64908361a9b8565b9050815b81811015618c8b57618c7981611f3f565b80618c838161aa81565b915050618c68565b50618c97601f5461289c565b601f546040517f72c2fcc891fe835b86fc8bb9abdc52adf52499c52289b3c49e1461eabea2717590600090a250508080618cd09061aa81565b915050618bb3565b508054618ce49061aa46565b6000825580601f10618cf657506118cd565b601f0160209004906000526020600020908101906118cd9190618ea4565b6040518060e001604052806060815260200160006001600160a01b031681526020016000815260200160008152602001606081526020016060815260200160006003811115618d7357634e487b7160e01b600052602160045260246000fd5b905290565b828054618d849061aa46565b90600052602060002090601f016020900481019282618da65760008555618dec565b82601f10618dbf57805160ff1916838001178555618dec565b82800160010185558215618dec579182015b82811115618dec578251825591602001919060010190618dd1565b50618df8929150618ea4565b5090565b604051806101c001604052806000815260200160008152602001600081526020016000815260200160001515815260200160001515815260200160001515815260200160008152602001600081526020016000815260200160008152602001606081526020016000815260200160006003811115618d7357634e487b7160e01b600052602160045260246000fd5b50805460008255906000526020600020908101906118cd91905b5b80821115618df85760008155600101618ea5565b60008083601f840112618eca578182fd5b5081356001600160401b03811115618ee0578182fd5b6020830191508360208083028501011115618efa57600080fd5b9250929050565b600082601f830112618f11578081fd5b81356001600160401b03811115618f2a57618f2a61aadc565b618f3d601f8201601f191660200161a960565b818152846020838601011115618f51578283fd5b816020850160208301379081016020019190915292915050565b600060208284031215618f7c578081fd5b8135611a668161aaf2565b600060208284031215618f98578081fd5b8151611a668161aaf2565b60008060408385031215618fb5578081fd5b8235618fc08161aaf2565b946020939093013593505050565b600080600060608486031215618fe2578081fd5b8335618fed8161aaf2565b95602085013595506040909401359392505050565b600080600080600060808688031215619019578081fd5b85356001600160401b038082111561902f578283fd5b818801915088601f830112619042578283fd5b813560206190576190528361a989565b61a960565b82815281810190858301875b8581101561908c5761907a8f8684358b0101618f01565b84529284019290840190600101619063565b50909a505050890135925050808211156190a4578283fd5b6190b089838a01618eb9565b90965094506040880135935060608801359150808211156190cf578283fd5b506190dc88828901618f01565b9150509295509295909350565b600060208083850312156190fb578182fd5b82356001600160401b03811115619110578283fd5b8301601f81018513619120578283fd5b803561912e6190528261a989565b818152838101908385018584028501860189101561914a578687fd5b8694505b8385101561916c57803583526001949094019391850191850161914e565b50979650505050505050565b600060208284031215619189578081fd5b81518015158114611a66578182fd5b600080604083850312156191aa578182fd5b82356001600160401b03808211156191c0578384fd5b6191cc86838701618f01565b935060208501359150808211156191e1578283fd5b506191ee85828601618f01565b9150509250929050565b6000806040838503121561920a578182fd5b82356001600160401b0381111561921f578283fd5b61922b85828601618f01565b95602094909401359450505050565b60006020828403121561924b578081fd5b5035919050565b600060208284031215611b94578081fd5b60008060408385031215619275578182fd5b8235915060208301356192878161aaf2565b809150509250929050565b600080600080600060a086880312156192a9578283fd5b8535945060208601359350604086013592506060860135915060808601356001600160401b038111156192da578182fd5b6190dc88828901618f01565b600080600080608085870312156192fb578182fd5b8435935060208501356001600160401b03811115619317578283fd5b61932387828801618f01565b949794965050505060408301359260600135919050565b6000806040838503121561934c578182fd5b50508035926020909101359150565b60008060008060808587031215619370578182fd5b843593506020850135925060408501356193898161aaf2565b9396929550929360600135925050565b15159052565b600081518084526193b781602086016020860161aa1a565b601f01601f19169290920160200192915050565b600481106193e957634e487b7160e01b600052602160045260246000fd5b9052565b600a815269636f6d6d6974566f746560b01b602082015260400190565b600a8152690c6dedadad2e890c2e6d60b31b602082015260400190565b60098152686e756d546f6b656e7360b81b602082015260400190565b60609190911b6bffffffffffffffffffffffff1916815260140190565b60609290921b6bffffffffffffffffffffffff19168252601482015260340190565b90815260200190565b6000825161949d81846020870161aa1a565b9190910192915050565b918252602082015260400190565b6001600160a01b0391909116815260200190565b6001600160a01b039a909a168a5260208a0198909852951515604089015260608801949094526080870192909252151560a0860152151560c085015260e08401526101008301526101208201526101400190565b6000602080830181845280855180835260408601915060408482028701019250838701855b8281101561957057603f1988860301845261955e85835161939f565b94509285019290850190600101619542565b5092979650505050505050565b6020808252825182820181905260009190848201906040850190845b818110156195b557835183529284019291840191600101619599565b50909695505050505050565b901515815260200190565b600060208252611a66602083018461939f565b600060e082526195f260e083018a61939f565b6001600160a01b038916602084015260408301889052606083018790528281036080840152619621818761939f565b905082810360a0840152619635818661939f565b91505061964560c08301846193cb565b98975050505050505050565b600060408252619664604083018561939f565b8281036020840152619676818561939f565b95945050505050565b600060408252619692604083018561939f565b90508260208301529392505050565b60006020808352818454836002820490506001808316806196c357607f831692505b8583108114156196e157634e487b7160e01b87526022600452602487fd5b6196ed83878a01619482565b81801561970157600181146197125761973c565b60ff1986168252878201965061973c565b61971b8b61a9ac565b895b868110156197365781548482015290850190890161971d565b83019750505b50949998505050505050505050565b6020808252601c908201527f576f726b657220697320616c7265616479207265676973746572656400000000604082015260600190565b60208082526031908201527f676976656e204461746142617463682073686f756c6420626520415050524f5660408201527011510b08185b99081a5d081a5cc81b9bdd607a1b606082015260800190565b60208082526025908201527f72656365697665722072656a6563746564205f7265747269657665534675656c6040820152640818d85b1b60da1b606082015260800190565b6020808252602f908201527f636f6d6d697420706572696f64206e6565647320746f206265206f70656e206660408201526e1bdc881d1a1a5cc818985d18da1259608a1b606082015260800190565b60208082526052908201527f4e6f74207468652073616d6520766f7465207468616e20636f6d6d697465642c60408201527f20696d706f737369626c6520746f206d61746368207769746820676976656e206060820152715f73616c742026205f636c656172566f746560701b608082015260a00190565b60208082526056908201527f4e6f74207468652073616d652068617368207468616e20636f6d6d697465642c60408201527f20696d706f737369626c6520746f206d61746368207769746820676976656e206060820152750bee6c2d8e8404c40bec6d8cac2e492a08ca690c2e6d60531b608082015260a00190565b60208082526026908201527f4f776e61626c653a206e6577206f776e657220697320746865207a65726f206160408201526564647265737360d01b606082015260800190565b60208082526029908201527f6b206f72204e20617265206e6f74204f4b20647572696e672072616e646f6d2060408201526839b2b632b1ba34b7b760b91b606082015260800190565b6020808252602a908201527f4661696c20647572696e6720616c6c6f636174696f6e3a206e6f7420656e6f75604082015269676820776f726b65727360b01b606082015260800190565b60208082526023908201527f5265776172644d616e61676572206973206e756c6c20696e20506172616d657460408201526265727360e81b606082015260800190565b6020808252602c908201527f436f6d706c69616e636553797374656d206e756c6c20696e20506172616d657460408201526b195c9cc810dbdb9d1c9858dd60a21b606082015260800190565b60208082526013908201527205f6d7941727261792e6c656e677468203e203606c1b604082015260600190565b60208082526038908201527f55736572206e6565647320746f20626520616c6c6f636174656420746f20746860408201527f697320626174636820746f20636f6d6d6974206f6e2069740000000000000000606082015260800190565b6020808252601d908201527f734675656c3a206e756c6c2041646472657373204e6f742056616c6964000000604082015260600190565b60208082526025908201527f636f756c64206e6f74207265776172642052455020696e2056616c69646174656040820152642c20312e6160d81b606082015260800190565b6020808252603f908201527f436f756c64206e6f74207265717565737420656e6f75676820616c6c6f63617460408201527f6564207374616b652c2072657175657374416c6c6f63617465645374616b6500606082015260800190565b6020808252602f908201527f5573657220686173206e6f7420636f6d6d69746564206265666f72652c20746860408201526e1d5cc818d85b89dd081c995d99585b608a1b606082015260800190565b6020808252602a908201527f53706f7474696e67206973206e6f742063757272656e746c7920656e61626c656040820152693210313c9027bbb732b960b11b606082015260800190565b60208082526036908201527f476c6f62616c206c696d69743a206578636565646564206d61782064617461206040820152753832b9103437bab916103932ba393c903630ba32b91760511b606082015260800190565b60208082526043908201527f576f726b657220686173206e6f7420656e6f75676820285f6e756d546f6b656e60408201527f732920696e206869732053797374656d5374616b6564546f6b656e42616c616e606082015262031b2960ed1b608082015260a00190565b60208082526039908201527f646c6c4d61703a20646f6573206e6f7420636f696e7461696e205f446174614260408201527f61746368496420666f7220746865206d73672073656e64657200000000000000606082015260800190565b6020808252602b908201527f75736572206d75737420686176652072657665616c656420696e20746869732060408201526a0ced2eccadc4084c2e8c6d60ab1b606082015260800190565b6020808252602e908201527f636f756c64206e6f74207265776172642052455020696e2056616c696461746560408201526d4461746142617463682c20322e6160901b606082015260800190565b60208082526005908201526404e203e20360dc1b604082015260600190565b6020808252601490820152733737ba1030903b30b634b2103837b9b4ba34b7b760611b604082015260600190565b6020808252603b908201527f43616e277420616c6c6f6361746520776f726b2c207468652063757272656e7460408201527f20626174636820697320616c726561647920616c6c6f63617465640000000000606082015260800190565b6020808252602c908201527f576f726b6572206973206e6f74207265676973746572656420736f2063616e2760408201526b3a103ab73932b3b4b9ba32b960a11b606082015260800190565b6020808252600b908201526a04e5f72616e6765203e20360ac1b604082015260600190565b6020808252818101527f4f776e61626c653a2063616c6c6572206973206e6f7420746865206f776e6572604082015260600190565b60208082526030908201527f636f756c64206e6f742072657761726420746f6b656e20696e2056616c69646160408201526f3a32a230ba30a130ba31b4161019173160811b606082015260800190565b6020808252603a908201527f5f446174614261746368496420686173206e6f7420656e6465642c206f72206e60408201527f6f7420657665727920766f74657273206861766520766f746564000000000000606082015260800190565b60208082526027908201527f636f756c64206e6f742072657761726420746f6b656e20696e2056616c6964616040820152663a32961018973160c91b606082015260800190565b60208082526022908201527f5374616b654d616e61676572206973206e756c6c20696e20506172616d657465604082015261727360f01b606082015260800190565b60208082526029908201527f6765744e756d50617373696e67546f6b656e733a20686173686573206d75737460408201526808189948195c5d585b60ba1b606082015260800190565b60208082526036908201527f43616e277420616c6c6f6361746520776f726b2c207468652063757272656e74604082015275206261746368206973206e6f7420636f6d706c65746560501b606082015260800190565b60208082526026908201527f52657665616c20706572696f64206e6f74206f70656e20666f7220746869732060408201526511185d18525160d21b606082015260800190565b60208082526027908201527f617661696c61626c65546f6b656e732073686f756c64206265203e3d205f6e756040820152666d546f6b656e7360c81b606082015260800190565b6020808252818101527f5265704d616e61676572206973206e756c6c20696e20506172616d6574657273604082015260600190565b60208082526017908201527f5f4461746142617463684964206d757374206578697374000000000000000000604082015260600190565b60208082526021908201527f5f446174614261746368496420697320616c72656164792076616c69646174656040820152601960fa1b606082015260800190565b6020808252602d908201527f53706f7474696e673a20696e70757420617272617973206d757374206265206f60408201526c0cc40e6c2daca40d8cadccee8d609b1b606082015260800190565b60208082526029908201527f557365722068617320616c726561647920636f6d6d6974656420746f207468696040820152681cc818985d18da125960ba1b606082015260800190565b60208082526022908201527f4d6178696d756d207265676973746572656420776f726b65727320616c726561604082015261647960f01b606082015260800190565b6020808252606c908201527f5573657220686173206e6f7420766f746564206d616e792074696d657320696e60408201527f206120726f7720616e64206e6565647320746f2077616974204e4f564f54455f60608201527f524547495354524154494f4e5f574149545f4455524154494f4e20746f20726560808201526b33b4b9ba32b91030b3b0b4b760a11b60a082015260c00190565b6020808252602a908201527f5f446174614261746368496420636865636b696e6720766f7465206d757374206040820152691a185d9948195b99195960b21b606082015260800190565b6020808252603b908201527f436f756c64206e6f74207769746864726177566f74696e67526967687473207460408201527f68726f7567682050726f78795374616b654465616c6c6f636174650000000000606082015260800190565b60208082526024908201527f416464726573734d616e61676572206973206e756c6c20696e20506172616d656040820152637465727360e01b606082015260800190565b60208082526034908201527f55736572206c696d69743a206578636565646564206d6178206461746120706560408201527339103437bab916103932ba393c903630ba32b91760611b606082015260800190565b6020808252600f908201526e11185d18481b5d5cdd08195e1a5cdd608a1b604082015260600190565b6020808252602c908201527f557365722068617320616c72656164792072657665616c65642c20746875732060408201526b18d85b89dd081c995d99585b60a21b606082015260800190565b60006020825282516020830152602083015160408301526040830151606083015260608301516080830152608083015161a63460a0840182619399565b5060a083015161a64760c0840182619399565b5060c083015161a65a60e0840182619399565b5060e0830151610100838101919091528301516101208084019190915283015161014080840191909152830151610160808401919091528301516101c061018080850182905261a6ae6101e086018461939f565b908601516101a08681019190915286015190925061552b828601826193cb565b600083825282602083015260606040830152615cac606083016193ed565b60008482528360208301526080604083015261a70a608083016193ed565b9050826060830152949350505050565b600083825282602083015260606040830152615cac6060830161940a565b60008482528360208301526080604083015261a70a6080830161940a565b600083825282602083015260606040830152615cac60608301619427565b60008482528360208301526080604083015261a70a60808301619427565b93845260208401929092526040830152606082015260800190565b600060208252825160e0602084015261a7ca61010084018261939f565b905060018060a01b03602085015116604084015260408401516060840152606084015160808401526080840151601f19808584030160a086015261a80e838361939f565b925060a08601519150808584030160c08601525061a82c828261939f565b91505060c0840151610f4860e08501826193cb565b9182526001600160a01b0316602082015260400190565b9182526001600160a01b031660208201526000604082015260600190565b9283526020830191909152604082015260600190565b60008f82528e60208301528d60408301528c60608301528b151560808301528a151560a083015261a8c060c083018b619399565b8860e08301528761010083015286610120830152856101408301526101c061016083015261a8f26101c083018661939f565b90508361018083015261a9096101a08301846193cb565b9f9e505050505050505050505050505050565b6000808335601e1984360301811261a932578283fd5b8301803591506001600160401b0382111561a94b578283fd5b602001915036819003821315618efa57600080fd5b6040518181016001600160401b038111828210171561a9815761a98161aadc565b604052919050565b60006001600160401b0382111561a9a25761a9a261aadc565b5060209081020190565b60009081526020902090565b6000821982111561a9cb5761a9cb61aab0565b500190565b60008261a9df5761a9df61aac6565b500490565b600081600019048311821515161561a9fe5761a9fe61aab0565b500290565b60008282101561aa155761aa1561aab0565b500390565b60005b8381101561aa3557818101518382015260200161aa1d565b838111156121b15750506000910152565b60028104600182168061aa5a57607f821691505b6020821081141561aa7b57634e487b7160e01b600052602260045260246000fd5b50919050565b600060001982141561aa955761aa9561aab0565b5060010190565b60008261aaab5761aaab61aac6565b500690565b634e487b7160e01b600052601160045260246000fd5b634e487b7160e01b600052601260045260246000fd5b634e487b7160e01b600052604160045260246000fd5b6001600160a01b03811681146118cd57600080fdfe4b87bbd93ba65ede1e2efeca735d9f7a6720bf7d6db0a8355b17dba5b64e5783a26469706673582212201e768c7673f3302fefc3d6a94422db2efa6e4a7df90aebc1da117c524b3b30f164736f6c63430008000033",
  "linkReferences": {
    "contracts/worksystems/DataSpotting.sol": {
      "AttributeStore": [
        {
          "length": 20,
          "start": 12881
        },
        {
          "length": 20,
          "start": 14597
        },
        {
          "length": 20,
          "start": 14703
        },
        {
          "length": 20,
          "start": 14811
        },
        {
          "length": 20,
          "start": 17502
        },
        {
          "length": 20,
          "start": 21884
        }
      ],
      "DLL": [
        {
          "length": 20,
          "start": 6809
        },
        {
          "length": 20,
          "start": 6981
        },
        {
          "length": 20,
          "start": 7543
        },
        {
          "length": 20,
          "start": 14117
        },
        {
          "length": 20,
          "start": 14279
        },
        {
          "length": 20,
          "start": 14474
        },
        {
          "length": 20,
          "start": 15515
        },
        {
          "length": 20,
          "start": 15695
        },
        {
          "length": 20,
          "start": 16681
        }
      ]
    }
  },
  "deployedLinkReferences": {
    "contracts/worksystems/DataSpotting.sol": {
      "AttributeStore": [
        {
          "length": 20,
          "start": 12526
        },
        {
          "length": 20,
          "start": 14242
        },
        {
          "length": 20,
          "start": 14348
        },
        {
          "length": 20,
          "start": 14456
        },
        {
          "length": 20,
          "start": 17147
        },
        {
          "length": 20,
          "start": 21529
        }
      ],
      "DLL": [
        {
          "length": 20,
          "start": 6454
        },
        {
          "length": 20,
          "start": 6626
        },
        {
          "length": 20,
          "start": 7188
        },
        {
          "length": 20,
          "start": 13762
        },
        {
          "length": 20,
          "start": 13924
        },
        {
          "length": 20,
          "start": 14119
        },
        {
          "length": 20,
          "start": 15160
        },
        {
          "length": 20,
          "start": 15340
        },
        {
          "length": 20,
          "start": 16326
        }
      ]
    }
  }
}