{
  "_format": "hh-sol-artifact-1",
  "contractName": "DataSpotting",
  "sourceName": "contracts/worksystems/DataSpotting.sol",
  "abi": [
    {
      "inputs": [
        {
          "internalType": "address",
          "name": "EXDT_token_",
          "type": "address"
        }
      ],
      "stateMutability": "nonpayable",
      "type": "constructor"
    },
    {
      "anonymous": false,
      "inputs": [
        {
          "indexed": false,
          "internalType": "bytes",
          "name": "bytesFailure",
          "type": "bytes"
        }
      ],
      "name": "BytesFailure",
      "type": "event"
    },
    {
      "anonymous": false,
      "inputs": [
        {
          "indexed": true,
          "internalType": "address",
          "name": "previousOwner",
          "type": "address"
        },
        {
          "indexed": true,
          "internalType": "address",
          "name": "newOwner",
          "type": "address"
        }
      ],
      "name": "OwnershipTransferred",
      "type": "event"
    },
    {
      "anonymous": false,
      "inputs": [
        {
          "indexed": true,
          "internalType": "uint256",
          "name": "DataID",
          "type": "uint256"
        },
        {
          "indexed": false,
          "internalType": "string",
          "name": "file_hash",
          "type": "string"
        },
        {
          "indexed": false,
          "internalType": "bool",
          "name": "isVotePassed",
          "type": "bool"
        }
      ],
      "name": "_BatchValidated",
      "type": "event"
    },
    {
      "anonymous": false,
      "inputs": [
        {
          "indexed": true,
          "internalType": "uint256",
          "name": "batchID",
          "type": "uint256"
        }
      ],
      "name": "_DataBatchDeleted",
      "type": "event"
    },
    {
      "anonymous": false,
      "inputs": [
        {
          "indexed": true,
          "internalType": "uint256",
          "name": "DataID",
          "type": "uint256"
        },
        {
          "indexed": false,
          "internalType": "uint256",
          "name": "numTokens",
          "type": "uint256"
        },
        {
          "indexed": true,
          "internalType": "address",
          "name": "voter",
          "type": "address"
        }
      ],
      "name": "_SpotCheckCommitted",
      "type": "event"
    },
    {
      "anonymous": false,
      "inputs": [
        {
          "indexed": true,
          "internalType": "uint256",
          "name": "DataID",
          "type": "uint256"
        },
        {
          "indexed": false,
          "internalType": "uint256",
          "name": "numTokens",
          "type": "uint256"
        },
        {
          "indexed": false,
          "internalType": "uint256",
          "name": "votesFor",
          "type": "uint256"
        },
        {
          "indexed": false,
          "internalType": "uint256",
          "name": "votesAgainst",
          "type": "uint256"
        },
        {
          "indexed": true,
          "internalType": "uint256",
          "name": "choice",
          "type": "uint256"
        },
        {
          "indexed": true,
          "internalType": "address",
          "name": "voter",
          "type": "address"
        }
      ],
      "name": "_SpotCheckRevealed",
      "type": "event"
    },
    {
      "anonymous": false,
      "inputs": [
        {
          "indexed": true,
          "internalType": "uint256",
          "name": "DataID",
          "type": "uint256"
        },
        {
          "indexed": false,
          "internalType": "string",
          "name": "file_hash",
          "type": "string"
        },
        {
          "indexed": false,
          "internalType": "string",
          "name": "URL_domain",
          "type": "string"
        },
        {
          "indexed": true,
          "internalType": "address",
          "name": "sender",
          "type": "address"
        }
      ],
      "name": "_SpotSubmitted",
      "type": "event"
    },
    {
      "anonymous": false,
      "inputs": [
        {
          "indexed": false,
          "internalType": "uint256",
          "name": "numTokens",
          "type": "uint256"
        },
        {
          "indexed": true,
          "internalType": "address",
          "name": "voter",
          "type": "address"
        }
      ],
      "name": "_StakeAllocated",
      "type": "event"
    },
    {
      "anonymous": false,
      "inputs": [
        {
          "indexed": true,
          "internalType": "uint256",
          "name": "DataID",
          "type": "uint256"
        },
        {
          "indexed": true,
          "internalType": "address",
          "name": "voter",
          "type": "address"
        }
      ],
      "name": "_TokensRescued",
      "type": "event"
    },
    {
      "anonymous": false,
      "inputs": [
        {
          "indexed": false,
          "internalType": "uint256",
          "name": "numTokens",
          "type": "uint256"
        },
        {
          "indexed": true,
          "internalType": "address",
          "name": "voter",
          "type": "address"
        }
      ],
      "name": "_VotingRightsWithdrawn",
      "type": "event"
    },
    {
      "anonymous": false,
      "inputs": [
        {
          "indexed": true,
          "internalType": "uint256",
          "name": "batchID",
          "type": "uint256"
        },
        {
          "indexed": false,
          "internalType": "address",
          "name": "worker",
          "type": "address"
        }
      ],
      "name": "_WorkAllocated",
      "type": "event"
    },
    {
      "anonymous": false,
      "inputs": [
        {
          "indexed": true,
          "internalType": "address",
          "name": "worker",
          "type": "address"
        },
        {
          "indexed": false,
          "internalType": "uint256",
          "name": "timestamp",
          "type": "uint256"
        }
      ],
      "name": "_WorkerRegistered",
      "type": "event"
    },
    {
      "anonymous": false,
      "inputs": [
        {
          "indexed": true,
          "internalType": "address",
          "name": "worker",
          "type": "address"
        },
        {
          "indexed": false,
          "internalType": "uint256",
          "name": "timestamp",
          "type": "uint256"
        }
      ],
      "name": "_WorkerUnregistered",
      "type": "event"
    },
    {
      "inputs": [],
      "name": "AcceptedBatchsCounter",
      "outputs": [
        {
          "internalType": "uint256",
          "name": "",
          "type": "uint256"
        }
      ],
      "stateMutability": "view",
      "type": "function"
    },
    {
      "inputs": [],
      "name": "AllTxsCounter",
      "outputs": [
        {
          "internalType": "uint256",
          "name": "",
          "type": "uint256"
        }
      ],
      "stateMutability": "view",
      "type": "function"
    },
    {
      "inputs": [],
      "name": "AllocatedBatchCursor",
      "outputs": [
        {
          "internalType": "uint256",
          "name": "",
          "type": "uint256"
        }
      ],
      "stateMutability": "view",
      "type": "function"
    },
    {
      "inputs": [],
      "name": "AmIRegistered",
      "outputs": [
        {
          "internalType": "bool",
          "name": "passed",
          "type": "bool"
        }
      ],
      "stateMutability": "view",
      "type": "function"
    },
    {
      "inputs": [
        {
          "internalType": "string",
          "name": "_a",
          "type": "string"
        },
        {
          "internalType": "string",
          "name": "_b",
          "type": "string"
        }
      ],
      "name": "AreStringsEqual",
      "outputs": [
        {
          "internalType": "bool",
          "name": "",
          "type": "bool"
        }
      ],
      "stateMutability": "pure",
      "type": "function"
    },
    {
      "inputs": [],
      "name": "BatchCheckingCursor",
      "outputs": [
        {
          "internalType": "uint256",
          "name": "",
          "type": "uint256"
        }
      ],
      "stateMutability": "view",
      "type": "function"
    },
    {
      "inputs": [],
      "name": "BatchDeletionCursor",
      "outputs": [
        {
          "internalType": "uint256",
          "name": "",
          "type": "uint256"
        }
      ],
      "stateMutability": "view",
      "type": "function"
    },
    {
      "inputs": [
        {
          "internalType": "uint256",
          "name": "",
          "type": "uint256"
        }
      ],
      "name": "DataBatch",
      "outputs": [
        {
          "internalType": "uint256",
          "name": "start_idx",
          "type": "uint256"
        },
        {
          "internalType": "uint256",
          "name": "counter",
          "type": "uint256"
        },
        {
          "internalType": "uint256",
          "name": "uncommited_workers",
          "type": "uint256"
        },
        {
          "internalType": "uint256",
          "name": "unrevealed_workers",
          "type": "uint256"
        },
        {
          "internalType": "bool",
          "name": "complete",
          "type": "bool"
        },
        {
          "internalType": "bool",
          "name": "checked",
          "type": "bool"
        },
        {
          "internalType": "bool",
          "name": "allocated_to_work",
          "type": "bool"
        },
        {
          "internalType": "uint256",
          "name": "commitEndDate",
          "type": "uint256"
        },
        {
          "internalType": "uint256",
          "name": "revealEndDate",
          "type": "uint256"
        },
        {
          "internalType": "uint256",
          "name": "votesFor",
          "type": "uint256"
        },
        {
          "internalType": "uint256",
          "name": "votesAgainst",
          "type": "uint256"
        },
        {
          "internalType": "string",
          "name": "batchIPFSfile",
          "type": "string"
        },
        {
          "internalType": "uint256",
          "name": "item_count",
          "type": "uint256"
        },
        {
          "internalType": "enum DataSpotting.DataStatus",
          "name": "status",
          "type": "uint8"
        }
      ],
      "stateMutability": "view",
      "type": "function"
    },
    {
      "inputs": [
        {
          "internalType": "uint256",
          "name": "_DataBatchId",
          "type": "uint256"
        }
      ],
      "name": "DataCommitEndDate",
      "outputs": [
        {
          "internalType": "uint256",
          "name": "commitEndDate",
          "type": "uint256"
        }
      ],
      "stateMutability": "view",
      "type": "function"
    },
    {
      "inputs": [
        {
          "internalType": "uint256",
          "name": "_DataBatchId",
          "type": "uint256"
        }
      ],
      "name": "DataEnded",
      "outputs": [
        {
          "internalType": "bool",
          "name": "ended",
          "type": "bool"
        }
      ],
      "stateMutability": "view",
      "type": "function"
    },
    {
      "inputs": [
        {
          "internalType": "uint256",
          "name": "_DataBatchId",
          "type": "uint256"
        }
      ],
      "name": "DataExists",
      "outputs": [
        {
          "internalType": "bool",
          "name": "exists",
          "type": "bool"
        }
      ],
      "stateMutability": "view",
      "type": "function"
    },
    {
      "inputs": [],
      "name": "DataNonce",
      "outputs": [
        {
          "internalType": "uint256",
          "name": "",
          "type": "uint256"
        }
      ],
      "stateMutability": "view",
      "type": "function"
    },
    {
      "inputs": [
        {
          "internalType": "uint256",
          "name": "_DataBatchId",
          "type": "uint256"
        }
      ],
      "name": "DataRevealEndDate",
      "outputs": [
        {
          "internalType": "uint256",
          "name": "revealEndDate",
          "type": "uint256"
        }
      ],
      "stateMutability": "view",
      "type": "function"
    },
    {
      "inputs": [
        {
          "internalType": "address",
          "name": "user_",
          "type": "address"
        }
      ],
      "name": "GetCurrentWork",
      "outputs": [
        {
          "internalType": "uint256",
          "name": "",
          "type": "uint256"
        }
      ],
      "stateMutability": "view",
      "type": "function"
    },
    {
      "inputs": [
        {
          "internalType": "uint256",
          "name": "",
          "type": "uint256"
        }
      ],
      "name": "GlobalSpotFlowManager",
      "outputs": [
        {
          "internalType": "uint256",
          "name": "timestamp",
          "type": "uint256"
        },
        {
          "internalType": "uint256",
          "name": "counter",
          "type": "uint256"
        }
      ],
      "stateMutability": "view",
      "type": "function"
    },
    {
      "inputs": [
        {
          "internalType": "address",
          "name": "user_",
          "type": "address"
        }
      ],
      "name": "IsNewWorkAvailable",
      "outputs": [
        {
          "internalType": "bool",
          "name": "",
          "type": "bool"
        }
      ],
      "stateMutability": "view",
      "type": "function"
    },
    {
      "inputs": [],
      "name": "LastAllocationTime",
      "outputs": [
        {
          "internalType": "uint256",
          "name": "",
          "type": "uint256"
        }
      ],
      "stateMutability": "view",
      "type": "function"
    },
    {
      "inputs": [],
      "name": "LastBatchCounter",
      "outputs": [
        {
          "internalType": "uint256",
          "name": "",
          "type": "uint256"
        }
      ],
      "stateMutability": "view",
      "type": "function"
    },
    {
      "inputs": [],
      "name": "LastRandomSeed",
      "outputs": [
        {
          "internalType": "uint256",
          "name": "",
          "type": "uint256"
        }
      ],
      "stateMutability": "view",
      "type": "function"
    },
    {
      "inputs": [
        {
          "internalType": "address",
          "name": "",
          "type": "address"
        },
        {
          "internalType": "uint256",
          "name": "",
          "type": "uint256"
        }
      ],
      "name": "MasterWorkers",
      "outputs": [
        {
          "internalType": "address",
          "name": "",
          "type": "address"
        }
      ],
      "stateMutability": "view",
      "type": "function"
    },
    {
      "inputs": [],
      "name": "NotCommitedCounter",
      "outputs": [
        {
          "internalType": "uint256",
          "name": "",
          "type": "uint256"
        }
      ],
      "stateMutability": "view",
      "type": "function"
    },
    {
      "inputs": [],
      "name": "NotRevealedCounter",
      "outputs": [
        {
          "internalType": "uint256",
          "name": "",
          "type": "uint256"
        }
      ],
      "stateMutability": "view",
      "type": "function"
    },
    {
      "inputs": [],
      "name": "Parameters",
      "outputs": [
        {
          "internalType": "contract IParametersManager",
          "name": "",
          "type": "address"
        }
      ],
      "stateMutability": "view",
      "type": "function"
    },
    {
      "inputs": [],
      "name": "RegisterWorker",
      "outputs": [],
      "stateMutability": "nonpayable",
      "type": "function"
    },
    {
      "inputs": [],
      "name": "RejectedBatchsCounter",
      "outputs": [
        {
          "internalType": "uint256",
          "name": "",
          "type": "uint256"
        }
      ],
      "stateMutability": "view",
      "type": "function"
    },
    {
      "inputs": [],
      "name": "SPOT_TOGGLE_ENABLED",
      "outputs": [
        {
          "internalType": "bool",
          "name": "",
          "type": "bool"
        }
      ],
      "stateMutability": "view",
      "type": "function"
    },
    {
      "inputs": [
        {
          "internalType": "address",
          "name": "_worker",
          "type": "address"
        },
        {
          "internalType": "uint256",
          "name": "_TokensAmountToAllocate",
          "type": "uint256"
        }
      ],
      "name": "SelectAddressForUser",
      "outputs": [
        {
          "internalType": "address",
          "name": "",
          "type": "address"
        }
      ],
      "stateMutability": "view",
      "type": "function"
    },
    {
      "inputs": [
        {
          "internalType": "string[]",
          "name": "file_hashs",
          "type": "string[]"
        },
        {
          "internalType": "string[]",
          "name": "URL_domains",
          "type": "string[]"
        },
        {
          "internalType": "uint256",
          "name": "item_count_",
          "type": "uint256"
        },
        {
          "internalType": "string",
          "name": "extra_",
          "type": "string"
        }
      ],
      "name": "SpotData",
      "outputs": [
        {
          "internalType": "uint256",
          "name": "Dataid_",
          "type": "uint256"
        }
      ],
      "stateMutability": "nonpayable",
      "type": "function"
    },
    {
      "inputs": [
        {
          "internalType": "uint256",
          "name": "",
          "type": "uint256"
        }
      ],
      "name": "SpotsMapping",
      "outputs": [
        {
          "internalType": "string",
          "name": "ipfs_hash",
          "type": "string"
        },
        {
          "internalType": "address",
          "name": "author",
          "type": "address"
        },
        {
          "internalType": "uint256",
          "name": "timestamp",
          "type": "uint256"
        },
        {
          "internalType": "uint256",
          "name": "item_count",
          "type": "uint256"
        },
        {
          "internalType": "string",
          "name": "URL_domain",
          "type": "string"
        },
        {
          "internalType": "string",
          "name": "extra",
          "type": "string"
        },
        {
          "internalType": "enum DataSpotting.DataStatus",
          "name": "status",
          "type": "uint8"
        }
      ],
      "stateMutability": "view",
      "type": "function"
    },
    {
      "inputs": [
        {
          "internalType": "address",
          "name": "",
          "type": "address"
        }
      ],
      "name": "SystemStakedTokenBalance",
      "outputs": [
        {
          "internalType": "uint256",
          "name": "",
          "type": "uint256"
        }
      ],
      "stateMutability": "view",
      "type": "function"
    },
    {
      "inputs": [],
      "name": "TriggerUpdate",
      "outputs": [],
      "stateMutability": "nonpayable",
      "type": "function"
    },
    {
      "inputs": [],
      "name": "UnregisterWorker",
      "outputs": [],
      "stateMutability": "nonpayable",
      "type": "function"
    },
    {
      "inputs": [
        {
          "internalType": "uint256",
          "name": "",
          "type": "uint256"
        },
        {
          "internalType": "address",
          "name": "",
          "type": "address"
        }
      ],
      "name": "UserBatchCounts",
      "outputs": [
        {
          "internalType": "uint256",
          "name": "",
          "type": "uint256"
        }
      ],
      "stateMutability": "view",
      "type": "function"
    },
    {
      "inputs": [
        {
          "internalType": "uint256",
          "name": "",
          "type": "uint256"
        },
        {
          "internalType": "address",
          "name": "",
          "type": "address"
        }
      ],
      "name": "UserBatchFrom",
      "outputs": [
        {
          "internalType": "string",
          "name": "",
          "type": "string"
        }
      ],
      "stateMutability": "view",
      "type": "function"
    },
    {
      "inputs": [
        {
          "internalType": "address",
          "name": "",
          "type": "address"
        },
        {
          "internalType": "uint256",
          "name": "",
          "type": "uint256"
        }
      ],
      "name": "UserChecksCommits",
      "outputs": [
        {
          "internalType": "bool",
          "name": "",
          "type": "bool"
        }
      ],
      "stateMutability": "view",
      "type": "function"
    },
    {
      "inputs": [
        {
          "internalType": "address",
          "name": "",
          "type": "address"
        },
        {
          "internalType": "uint256",
          "name": "",
          "type": "uint256"
        }
      ],
      "name": "UserChecksReveals",
      "outputs": [
        {
          "internalType": "bool",
          "name": "",
          "type": "bool"
        }
      ],
      "stateMutability": "view",
      "type": "function"
    },
    {
      "inputs": [
        {
          "internalType": "uint256",
          "name": "",
          "type": "uint256"
        },
        {
          "internalType": "address",
          "name": "",
          "type": "address"
        }
      ],
      "name": "UserNewFiles",
      "outputs": [
        {
          "internalType": "string",
          "name": "",
          "type": "string"
        }
      ],
      "stateMutability": "view",
      "type": "function"
    },
    {
      "inputs": [
        {
          "internalType": "address",
          "name": "",
          "type": "address"
        },
        {
          "internalType": "uint256",
          "name": "",
          "type": "uint256"
        }
      ],
      "name": "UserSubmissions",
      "outputs": [
        {
          "internalType": "uint256",
          "name": "",
          "type": "uint256"
        }
      ],
      "stateMutability": "view",
      "type": "function"
    },
    {
      "inputs": [
        {
          "internalType": "uint256",
          "name": "",
          "type": "uint256"
        },
        {
          "internalType": "address",
          "name": "",
          "type": "address"
        }
      ],
      "name": "UserVotes",
      "outputs": [
        {
          "internalType": "uint256",
          "name": "",
          "type": "uint256"
        }
      ],
      "stateMutability": "view",
      "type": "function"
    },
    {
      "inputs": [
        {
          "internalType": "uint256",
          "name": "",
          "type": "uint256"
        },
        {
          "internalType": "uint256",
          "name": "",
          "type": "uint256"
        }
      ],
      "name": "WorkersPerBatch",
      "outputs": [
        {
          "internalType": "address",
          "name": "",
          "type": "address"
        }
      ],
      "stateMutability": "view",
      "type": "function"
    },
    {
      "inputs": [
        {
          "internalType": "address",
          "name": "",
          "type": "address"
        },
        {
          "internalType": "uint256",
          "name": "",
          "type": "uint256"
        }
      ],
      "name": "WorkersSpotFlowManager",
      "outputs": [
        {
          "internalType": "uint256",
          "name": "timestamp",
          "type": "uint256"
        },
        {
          "internalType": "uint256",
          "name": "counter",
          "type": "uint256"
        }
      ],
      "stateMutability": "view",
      "type": "function"
    },
    {
      "inputs": [
        {
          "internalType": "address",
          "name": "",
          "type": "address"
        }
      ],
      "name": "WorkersState",
      "outputs": [
        {
          "internalType": "uint256",
          "name": "allocated_work_batch",
          "type": "uint256"
        },
        {
          "internalType": "uint256",
          "name": "succeeding_novote_count",
          "type": "uint256"
        },
        {
          "internalType": "uint256",
          "name": "last_interaction_date",
          "type": "uint256"
        },
        {
          "internalType": "bool",
          "name": "registered",
          "type": "bool"
        },
        {
          "internalType": "bool",
          "name": "unregistration_request",
          "type": "bool"
        },
        {
          "internalType": "uint256",
          "name": "registration_date",
          "type": "uint256"
        },
        {
          "internalType": "uint256",
          "name": "allocated_batch_counter",
          "type": "uint256"
        },
        {
          "internalType": "uint256",
          "name": "majority_counter",
          "type": "uint256"
        },
        {
          "internalType": "uint256",
          "name": "minority_counter",
          "type": "uint256"
        }
      ],
      "stateMutability": "view",
      "type": "function"
    },
    {
      "inputs": [
        {
          "internalType": "address",
          "name": "_user",
          "type": "address"
        },
        {
          "internalType": "uint256",
          "name": "_DataBatchId",
          "type": "uint256"
        }
      ],
      "name": "attrUUID",
      "outputs": [
        {
          "internalType": "bytes32",
          "name": "UUID",
          "type": "bytes32"
        }
      ],
      "stateMutability": "pure",
      "type": "function"
    },
    {
      "inputs": [
        {
          "internalType": "uint256",
          "name": "",
          "type": "uint256"
        }
      ],
      "name": "availableWorkers",
      "outputs": [
        {
          "internalType": "address",
          "name": "",
          "type": "address"
        }
      ],
      "stateMutability": "view",
      "type": "function"
    },
    {
      "inputs": [
        {
          "internalType": "uint256",
          "name": "",
          "type": "uint256"
        }
      ],
      "name": "busyWorkers",
      "outputs": [
        {
          "internalType": "address",
          "name": "",
          "type": "address"
        }
      ],
      "stateMutability": "view",
      "type": "function"
    },
    {
      "inputs": [
        {
          "internalType": "uint256",
          "name": "_DataBatchId",
          "type": "uint256"
        }
      ],
      "name": "commitPeriodActive",
      "outputs": [
        {
          "internalType": "bool",
          "name": "active",
          "type": "bool"
        }
      ],
      "stateMutability": "view",
      "type": "function"
    },
    {
      "inputs": [
        {
          "internalType": "uint256",
          "name": "_DataBatchId",
          "type": "uint256"
        }
      ],
      "name": "commitPeriodOver",
      "outputs": [
        {
          "internalType": "bool",
          "name": "active",
          "type": "bool"
        }
      ],
      "stateMutability": "view",
      "type": "function"
    },
    {
      "inputs": [
        {
          "internalType": "uint256",
          "name": "_DataBatchId",
          "type": "uint256"
        },
        {
          "internalType": "bytes32",
          "name": "_encryptedHash",
          "type": "bytes32"
        },
        {
          "internalType": "bytes32",
          "name": "_encryptedVote",
          "type": "bytes32"
        },
        {
          "internalType": "uint256",
          "name": "_BatchCount",
          "type": "uint256"
        },
        {
          "internalType": "string",
          "name": "_From",
          "type": "string"
        }
      ],
      "name": "commitSpotCheck",
      "outputs": [],
      "stateMutability": "nonpayable",
      "type": "function"
    },
    {
      "inputs": [
        {
          "internalType": "uint256",
          "name": "_DataId",
          "type": "uint256"
        }
      ],
      "name": "deleteData",
      "outputs": [],
      "stateMutability": "nonpayable",
      "type": "function"
    },
    {
      "inputs": [
        {
          "internalType": "uint256",
          "name": "_BatchId",
          "type": "uint256"
        }
      ],
      "name": "deleteDataBatch",
      "outputs": [],
      "stateMutability": "nonpayable",
      "type": "function"
    },
    {
      "inputs": [],
      "name": "destroyContract",
      "outputs": [],
      "stateMutability": "nonpayable",
      "type": "function"
    },
    {
      "inputs": [
        {
          "internalType": "address",
          "name": "_voter",
          "type": "address"
        },
        {
          "internalType": "uint256",
          "name": "_DataBatchId",
          "type": "uint256"
        }
      ],
      "name": "didCommit",
      "outputs": [
        {
          "internalType": "bool",
          "name": "committed",
          "type": "bool"
        }
      ],
      "stateMutability": "view",
      "type": "function"
    },
    {
      "inputs": [
        {
          "internalType": "address",
          "name": "_voter",
          "type": "address"
        },
        {
          "internalType": "uint256",
          "name": "_DataBatchId",
          "type": "uint256"
        }
      ],
      "name": "didReveal",
      "outputs": [
        {
          "internalType": "bool",
          "name": "revealed",
          "type": "bool"
        }
      ],
      "stateMutability": "view",
      "type": "function"
    },
    {
      "inputs": [
        {
          "internalType": "uint256",
          "name": "_k",
          "type": "uint256"
        },
        {
          "internalType": "uint256",
          "name": "N_range",
          "type": "uint256"
        }
      ],
      "name": "generateIntegers",
      "outputs": [
        {
          "internalType": "uint256[]",
          "name": "",
          "type": "uint256[]"
        }
      ],
      "stateMutability": "view",
      "type": "function"
    },
    {
      "inputs": [],
      "name": "getAcceptedBatchesCount",
      "outputs": [
        {
          "internalType": "uint256",
          "name": "count",
          "type": "uint256"
        }
      ],
      "stateMutability": "view",
      "type": "function"
    },
    {
      "inputs": [],
      "name": "getActiveWorkersCount",
      "outputs": [
        {
          "internalType": "uint256",
          "name": "numWorkers",
          "type": "uint256"
        }
      ],
      "stateMutability": "view",
      "type": "function"
    },
    {
      "inputs": [
        {
          "internalType": "bytes32",
          "name": "_UUID",
          "type": "bytes32"
        },
        {
          "internalType": "string",
          "name": "_attrName",
          "type": "string"
        }
      ],
      "name": "getAttribute",
      "outputs": [
        {
          "internalType": "uint256",
          "name": "",
          "type": "uint256"
        }
      ],
      "stateMutability": "view",
      "type": "function"
    },
    {
      "inputs": [],
      "name": "getAvailableWorkersCount",
      "outputs": [
        {
          "internalType": "uint256",
          "name": "numWorkers",
          "type": "uint256"
        }
      ],
      "stateMutability": "view",
      "type": "function"
    },
    {
      "inputs": [
        {
          "internalType": "uint256",
          "name": "_DataBatchId",
          "type": "uint256"
        }
      ],
      "name": "getBatchByID",
      "outputs": [
        {
          "components": [
            {
              "internalType": "uint256",
              "name": "start_idx",
              "type": "uint256"
            },
            {
              "internalType": "uint256",
              "name": "counter",
              "type": "uint256"
            },
            {
              "internalType": "uint256",
              "name": "uncommited_workers",
              "type": "uint256"
            },
            {
              "internalType": "uint256",
              "name": "unrevealed_workers",
              "type": "uint256"
            },
            {
              "internalType": "bool",
              "name": "complete",
              "type": "bool"
            },
            {
              "internalType": "bool",
              "name": "checked",
              "type": "bool"
            },
            {
              "internalType": "bool",
              "name": "allocated_to_work",
              "type": "bool"
            },
            {
              "internalType": "uint256",
              "name": "commitEndDate",
              "type": "uint256"
            },
            {
              "internalType": "uint256",
              "name": "revealEndDate",
              "type": "uint256"
            },
            {
              "internalType": "uint256",
              "name": "votesFor",
              "type": "uint256"
            },
            {
              "internalType": "uint256",
              "name": "votesAgainst",
              "type": "uint256"
            },
            {
              "internalType": "string",
              "name": "batchIPFSfile",
              "type": "string"
            },
            {
              "internalType": "uint256",
              "name": "item_count",
              "type": "uint256"
            },
            {
              "internalType": "enum DataSpotting.DataStatus",
              "name": "status",
              "type": "uint8"
            }
          ],
          "internalType": "struct DataSpotting.BatchMetadata",
          "name": "batch",
          "type": "tuple"
        }
      ],
      "stateMutability": "view",
      "type": "function"
    },
    {
      "inputs": [
        {
          "internalType": "uint256",
          "name": "_DataBatchId_a",
          "type": "uint256"
        },
        {
          "internalType": "uint256",
          "name": "_DataBatchId_b",
          "type": "uint256"
        }
      ],
      "name": "getBatchCountForBatch",
      "outputs": [
        {
          "internalType": "uint256",
          "name": "AverageURLCount",
          "type": "uint256"
        },
        {
          "internalType": "uint256[]",
          "name": "batchCounts",
          "type": "uint256[]"
        }
      ],
      "stateMutability": "view",
      "type": "function"
    },
    {
      "inputs": [
        {
          "internalType": "uint256",
          "name": "_DataBatchId",
          "type": "uint256"
        }
      ],
      "name": "getBatchIPFSFileByID",
      "outputs": [
        {
          "internalType": "string",
          "name": "batch",
          "type": "string"
        }
      ],
      "stateMutability": "view",
      "type": "function"
    },
    {
      "inputs": [],
      "name": "getBusyWorkersCount",
      "outputs": [
        {
          "internalType": "uint256",
          "name": "numWorkers",
          "type": "uint256"
        }
      ],
      "stateMutability": "view",
      "type": "function"
    },
    {
      "inputs": [
        {
          "internalType": "address",
          "name": "_voter",
          "type": "address"
        },
        {
          "internalType": "uint256",
          "name": "_DataBatchId",
          "type": "uint256"
        }
      ],
      "name": "getCommitIPFSHash",
      "outputs": [
        {
          "internalType": "bytes32",
          "name": "commitHash",
          "type": "bytes32"
        }
      ],
      "stateMutability": "view",
      "type": "function"
    },
    {
      "inputs": [
        {
          "internalType": "address",
          "name": "_voter",
          "type": "address"
        },
        {
          "internalType": "uint256",
          "name": "_DataBatchId",
          "type": "uint256"
        }
      ],
      "name": "getCommitVoteHash",
      "outputs": [
        {
          "internalType": "bytes32",
          "name": "commitHash",
          "type": "bytes32"
        }
      ],
      "stateMutability": "view",
      "type": "function"
    },
    {
      "inputs": [
        {
          "internalType": "uint256",
          "name": "_DataId",
          "type": "uint256"
        }
      ],
      "name": "getDataByID",
      "outputs": [
        {
          "components": [
            {
              "internalType": "string",
              "name": "ipfs_hash",
              "type": "string"
            },
            {
              "internalType": "address",
              "name": "author",
              "type": "address"
            },
            {
              "internalType": "uint256",
              "name": "timestamp",
              "type": "uint256"
            },
            {
              "internalType": "uint256",
              "name": "item_count",
              "type": "uint256"
            },
            {
              "internalType": "string",
              "name": "URL_domain",
              "type": "string"
            },
            {
              "internalType": "string",
              "name": "extra",
              "type": "string"
            },
            {
              "internalType": "enum DataSpotting.DataStatus",
              "name": "status",
              "type": "uint8"
            }
          ],
          "internalType": "struct DataSpotting.SpottedData",
          "name": "data",
          "type": "tuple"
        }
      ],
      "stateMutability": "view",
      "type": "function"
    },
    {
      "inputs": [
        {
          "internalType": "uint256",
          "name": "_DataBatchId",
          "type": "uint256"
        }
      ],
      "name": "getDomainsForBatch",
      "outputs": [
        {
          "internalType": "string[]",
          "name": "",
          "type": "string[]"
        }
      ],
      "stateMutability": "view",
      "type": "function"
    },
    {
      "inputs": [
        {
          "internalType": "uint256",
          "name": "_clearVote",
          "type": "uint256"
        },
        {
          "internalType": "uint256",
          "name": "_salt",
          "type": "uint256"
        }
      ],
      "name": "getEncryptedHash",
      "outputs": [
        {
          "internalType": "bytes32",
          "name": "keccak256hash",
          "type": "bytes32"
        }
      ],
      "stateMutability": "pure",
      "type": "function"
    },
    {
      "inputs": [
        {
          "internalType": "string",
          "name": "_hash",
          "type": "string"
        },
        {
          "internalType": "uint256",
          "name": "_salt",
          "type": "uint256"
        }
      ],
      "name": "getEncryptedStringHash",
      "outputs": [
        {
          "internalType": "bytes32",
          "name": "keccak256hash",
          "type": "bytes32"
        }
      ],
      "stateMutability": "pure",
      "type": "function"
    },
    {
      "inputs": [
        {
          "internalType": "uint256",
          "name": "_DataBatchId",
          "type": "uint256"
        }
      ],
      "name": "getFromsForBatch",
      "outputs": [
        {
          "internalType": "string[]",
          "name": "",
          "type": "string[]"
        }
      ],
      "stateMutability": "view",
      "type": "function"
    },
    {
      "inputs": [],
      "name": "getGlobalPeriodSpotCount",
      "outputs": [
        {
          "internalType": "uint256",
          "name": "",
          "type": "uint256"
        }
      ],
      "stateMutability": "view",
      "type": "function"
    },
    {
      "inputs": [
        {
          "internalType": "uint256",
          "name": "_DataBatchId",
          "type": "uint256"
        }
      ],
      "name": "getIPFShashesForBatch",
      "outputs": [
        {
          "internalType": "string[]",
          "name": "",
          "type": "string[]"
        }
      ],
      "stateMutability": "view",
      "type": "function"
    },
    {
      "inputs": [
        {
          "internalType": "address",
          "name": "_voter",
          "type": "address"
        },
        {
          "internalType": "uint256",
          "name": "_numTokens",
          "type": "uint256"
        },
        {
          "internalType": "uint256",
          "name": "_DataBatchId",
          "type": "uint256"
        }
      ],
      "name": "getInsertPointForNumTokens",
      "outputs": [
        {
          "internalType": "uint256",
          "name": "prevNode",
          "type": "uint256"
        }
      ],
      "stateMutability": "view",
      "type": "function"
    },
    {
      "inputs": [],
      "name": "getLastAllocatedBatchId",
      "outputs": [
        {
          "internalType": "uint256",
          "name": "LastAllocatedBatchId",
          "type": "uint256"
        }
      ],
      "stateMutability": "view",
      "type": "function"
    },
    {
      "inputs": [],
      "name": "getLastBatchId",
      "outputs": [
        {
          "internalType": "uint256",
          "name": "LastBatchId",
          "type": "uint256"
        }
      ],
      "stateMutability": "view",
      "type": "function"
    },
    {
      "inputs": [],
      "name": "getLastCheckedBatchId",
      "outputs": [
        {
          "internalType": "uint256",
          "name": "LastCheckedBatchId",
          "type": "uint256"
        }
      ],
      "stateMutability": "view",
      "type": "function"
    },
    {
      "inputs": [],
      "name": "getLastDataId",
      "outputs": [
        {
          "internalType": "uint256",
          "name": "DataId",
          "type": "uint256"
        }
      ],
      "stateMutability": "view",
      "type": "function"
    },
    {
      "inputs": [
        {
          "internalType": "address",
          "name": "_voter",
          "type": "address"
        }
      ],
      "name": "getLastNode",
      "outputs": [
        {
          "internalType": "uint256",
          "name": "DataID",
          "type": "uint256"
        }
      ],
      "stateMutability": "view",
      "type": "function"
    },
    {
      "inputs": [
        {
          "internalType": "address",
          "name": "_voter",
          "type": "address"
        }
      ],
      "name": "getLockedTokens",
      "outputs": [
        {
          "internalType": "uint256",
          "name": "numTokens",
          "type": "uint256"
        }
      ],
      "stateMutability": "view",
      "type": "function"
    },
    {
      "inputs": [
        {
          "internalType": "uint256",
          "name": "_DataBatchId_a",
          "type": "uint256"
        },
        {
          "internalType": "uint256",
          "name": "_DataBatchId_b",
          "type": "uint256"
        }
      ],
      "name": "getMultiBatchIPFShashes",
      "outputs": [
        {
          "internalType": "string[]",
          "name": "",
          "type": "string[]"
        }
      ],
      "stateMutability": "view",
      "type": "function"
    },
    {
      "inputs": [
        {
          "internalType": "address",
          "name": "_voter",
          "type": "address"
        },
        {
          "internalType": "uint256",
          "name": "_DataBatchId",
          "type": "uint256"
        },
        {
          "internalType": "uint256",
          "name": "_salt",
          "type": "uint256"
        }
      ],
      "name": "getNumPassingTokens",
      "outputs": [
        {
          "internalType": "uint256",
          "name": "correctSpotChecks",
          "type": "uint256"
        }
      ],
      "stateMutability": "view",
      "type": "function"
    },
    {
      "inputs": [
        {
          "internalType": "address",
          "name": "_voter",
          "type": "address"
        },
        {
          "internalType": "uint256",
          "name": "_DataBatchId",
          "type": "uint256"
        }
      ],
      "name": "getNumTokens",
      "outputs": [
        {
          "internalType": "uint256",
          "name": "numTokens",
          "type": "uint256"
        }
      ],
      "stateMutability": "view",
      "type": "function"
    },
    {
      "inputs": [],
      "name": "getRandom",
      "outputs": [
        {
          "internalType": "uint256",
          "name": "",
          "type": "uint256"
        }
      ],
      "stateMutability": "view",
      "type": "function"
    },
    {
      "inputs": [],
      "name": "getRejectedBatchesCount",
      "outputs": [
        {
          "internalType": "uint256",
          "name": "count",
          "type": "uint256"
        }
      ],
      "stateMutability": "view",
      "type": "function"
    },
    {
      "inputs": [],
      "name": "getSeed",
      "outputs": [
        {
          "internalType": "bytes32",
          "name": "addr",
          "type": "bytes32"
        }
      ],
      "stateMutability": "view",
      "type": "function"
    },
    {
      "inputs": [
        {
          "internalType": "uint256",
          "name": "_DataBatchId",
          "type": "uint256"
        }
      ],
      "name": "getSubmittedFilesForBatch",
      "outputs": [
        {
          "internalType": "string[]",
          "name": "",
          "type": "string[]"
        }
      ],
      "stateMutability": "view",
      "type": "function"
    },
    {
      "inputs": [
        {
          "internalType": "address",
          "name": "_user",
          "type": "address"
        }
      ],
      "name": "getSystemTokenBalance",
      "outputs": [
        {
          "internalType": "uint256",
          "name": "tokens",
          "type": "uint256"
        }
      ],
      "stateMutability": "view",
      "type": "function"
    },
    {
      "inputs": [],
      "name": "getTxCounter",
      "outputs": [
        {
          "internalType": "uint256",
          "name": "Counter",
          "type": "uint256"
        }
      ],
      "stateMutability": "view",
      "type": "function"
    },
    {
      "inputs": [
        {
          "internalType": "address",
          "name": "user",
          "type": "address"
        }
      ],
      "name": "getUserDatas",
      "outputs": [
        {
          "internalType": "uint256[]",
          "name": "user_Datas",
          "type": "uint256[]"
        }
      ],
      "stateMutability": "view",
      "type": "function"
    },
    {
      "inputs": [
        {
          "internalType": "address",
          "name": "user_",
          "type": "address"
        }
      ],
      "name": "getUserPeriodSpotCount",
      "outputs": [
        {
          "internalType": "uint256",
          "name": "",
          "type": "uint256"
        }
      ],
      "stateMutability": "view",
      "type": "function"
    },
    {
      "inputs": [
        {
          "internalType": "uint256",
          "name": "_DataBatchId",
          "type": "uint256"
        }
      ],
      "name": "getVotesForBatch",
      "outputs": [
        {
          "internalType": "uint256[]",
          "name": "",
          "type": "uint256[]"
        }
      ],
      "stateMutability": "view",
      "type": "function"
    },
    {
      "inputs": [
        {
          "internalType": "uint256",
          "name": "_terminationDate",
          "type": "uint256"
        }
      ],
      "name": "isExpired",
      "outputs": [
        {
          "internalType": "bool",
          "name": "expired",
          "type": "bool"
        }
      ],
      "stateMutability": "view",
      "type": "function"
    },
    {
      "inputs": [
        {
          "internalType": "uint256",
          "name": "_DataBatchId",
          "type": "uint256"
        }
      ],
      "name": "isPassed",
      "outputs": [
        {
          "internalType": "bool",
          "name": "passed",
          "type": "bool"
        }
      ],
      "stateMutability": "view",
      "type": "function"
    },
    {
      "inputs": [
        {
          "internalType": "uint256",
          "name": "_DataBatchId",
          "type": "uint256"
        },
        {
          "internalType": "address",
          "name": "_worker",
          "type": "address"
        }
      ],
      "name": "isWorkerAllocatedToBatch",
      "outputs": [
        {
          "internalType": "bool",
          "name": "",
          "type": "bool"
        }
      ],
      "stateMutability": "view",
      "type": "function"
    },
    {
      "inputs": [
        {
          "internalType": "address",
          "name": "_worker",
          "type": "address"
        }
      ],
      "name": "isWorkerRegistered",
      "outputs": [
        {
          "internalType": "bool",
          "name": "passed",
          "type": "bool"
        }
      ],
      "stateMutability": "view",
      "type": "function"
    },
    {
      "inputs": [],
      "name": "owner",
      "outputs": [
        {
          "internalType": "address",
          "name": "",
          "type": "address"
        }
      ],
      "stateMutability": "view",
      "type": "function"
    },
    {
      "inputs": [
        {
          "internalType": "uint256",
          "name": "k",
          "type": "uint256"
        },
        {
          "internalType": "uint256",
          "name": "N",
          "type": "uint256"
        }
      ],
      "name": "random_selection",
      "outputs": [
        {
          "internalType": "uint256[]",
          "name": "",
          "type": "uint256[]"
        }
      ],
      "stateMutability": "view",
      "type": "function"
    },
    {
      "inputs": [
        {
          "internalType": "uint256",
          "name": "_DataBatchId",
          "type": "uint256"
        }
      ],
      "name": "remainingCommitDuration",
      "outputs": [
        {
          "internalType": "uint256",
          "name": "remainingTime",
          "type": "uint256"
        }
      ],
      "stateMutability": "view",
      "type": "function"
    },
    {
      "inputs": [
        {
          "internalType": "uint256",
          "name": "_DataBatchId",
          "type": "uint256"
        }
      ],
      "name": "remainingRevealDuration",
      "outputs": [
        {
          "internalType": "uint256",
          "name": "remainingTime",
          "type": "uint256"
        }
      ],
      "stateMutability": "view",
      "type": "function"
    },
    {
      "inputs": [],
      "name": "renounceOwnership",
      "outputs": [],
      "stateMutability": "nonpayable",
      "type": "function"
    },
    {
      "inputs": [
        {
          "internalType": "uint256",
          "name": "_DataBatchId",
          "type": "uint256"
        }
      ],
      "name": "rescueTokens",
      "outputs": [],
      "stateMutability": "nonpayable",
      "type": "function"
    },
    {
      "inputs": [
        {
          "internalType": "uint256[]",
          "name": "_DataBatchIDs",
          "type": "uint256[]"
        }
      ],
      "name": "rescueTokensInMultipleDatas",
      "outputs": [],
      "stateMutability": "nonpayable",
      "type": "function"
    },
    {
      "inputs": [
        {
          "internalType": "uint256",
          "name": "_DataBatchId",
          "type": "uint256"
        }
      ],
      "name": "revealPeriodActive",
      "outputs": [
        {
          "internalType": "bool",
          "name": "active",
          "type": "bool"
        }
      ],
      "stateMutability": "view",
      "type": "function"
    },
    {
      "inputs": [
        {
          "internalType": "uint256",
          "name": "_DataBatchId",
          "type": "uint256"
        }
      ],
      "name": "revealPeriodOver",
      "outputs": [
        {
          "internalType": "bool",
          "name": "active",
          "type": "bool"
        }
      ],
      "stateMutability": "view",
      "type": "function"
    },
    {
      "inputs": [
        {
          "internalType": "uint256",
          "name": "_DataBatchId",
          "type": "uint256"
        },
        {
          "internalType": "string",
          "name": "_clearIPFSHash",
          "type": "string"
        },
        {
          "internalType": "uint256",
          "name": "_clearVote",
          "type": "uint256"
        },
        {
          "internalType": "uint256",
          "name": "_salt",
          "type": "uint256"
        }
      ],
      "name": "revealSpotCheck",
      "outputs": [],
      "stateMutability": "nonpayable",
      "type": "function"
    },
    {
      "inputs": [
        {
          "internalType": "bytes32",
          "name": "_UUID",
          "type": "bytes32"
        },
        {
          "internalType": "string",
          "name": "_attrName",
          "type": "string"
        },
        {
          "internalType": "uint256",
          "name": "_attrVal",
          "type": "uint256"
        }
      ],
      "name": "setAttribute",
      "outputs": [],
      "stateMutability": "nonpayable",
      "type": "function"
    },
    {
      "inputs": [
        {
          "internalType": "uint256",
          "name": "N",
          "type": "uint256"
        }
      ],
      "name": "shuffle_array",
      "outputs": [
        {
          "internalType": "uint256[]",
          "name": "",
          "type": "uint256[]"
        }
      ],
      "stateMutability": "view",
      "type": "function"
    },
    {
      "inputs": [
        {
          "internalType": "uint256",
          "name": "",
          "type": "uint256"
        }
      ],
      "name": "toUnregisterWorkers",
      "outputs": [
        {
          "internalType": "address",
          "name": "",
          "type": "address"
        }
      ],
      "stateMutability": "view",
      "type": "function"
    },
    {
      "inputs": [],
      "name": "token",
      "outputs": [
        {
          "internalType": "contract IERC20",
          "name": "",
          "type": "address"
        }
      ],
      "stateMutability": "view",
      "type": "function"
    },
    {
      "inputs": [
        {
          "internalType": "address",
          "name": "newOwner",
          "type": "address"
        }
      ],
      "name": "transferOwnership",
      "outputs": [],
      "stateMutability": "nonpayable",
      "type": "function"
    },
    {
      "inputs": [
        {
          "internalType": "uint256",
          "name": "AllocatedBatchCursor_",
          "type": "uint256"
        }
      ],
      "name": "updateAllocatedBatchCursor",
      "outputs": [],
      "stateMutability": "nonpayable",
      "type": "function"
    },
    {
      "inputs": [
        {
          "internalType": "uint256",
          "name": "BatchCheckingCursor_",
          "type": "uint256"
        }
      ],
      "name": "updateBatchCheckingCursor",
      "outputs": [],
      "stateMutability": "nonpayable",
      "type": "function"
    },
    {
      "inputs": [],
      "name": "updateGlobalSpotFlow",
      "outputs": [],
      "stateMutability": "nonpayable",
      "type": "function"
    },
    {
      "inputs": [
        {
          "internalType": "address",
          "name": "addr",
          "type": "address"
        }
      ],
      "name": "updateParametersManager",
      "outputs": [],
      "stateMutability": "nonpayable",
      "type": "function"
    },
    {
      "inputs": [
        {
          "internalType": "address",
          "name": "user_",
          "type": "address"
        }
      ],
      "name": "updateUserSpotFlow",
      "outputs": [],
      "stateMutability": "nonpayable",
      "type": "function"
    },
    {
      "inputs": [
        {
          "internalType": "uint256",
          "name": "_prevID",
          "type": "uint256"
        },
        {
          "internalType": "uint256",
          "name": "_nextID",
          "type": "uint256"
        },
        {
          "internalType": "address",
          "name": "_voter",
          "type": "address"
        },
        {
          "internalType": "uint256",
          "name": "_numTokens",
          "type": "uint256"
        }
      ],
      "name": "validPosition",
      "outputs": [
        {
          "internalType": "bool",
          "name": "APPROVED",
          "type": "bool"
        }
      ],
      "stateMutability": "view",
      "type": "function"
    },
    {
      "inputs": [
        {
          "internalType": "uint256",
          "name": "_numTokens",
          "type": "uint256"
        },
        {
          "internalType": "address",
          "name": "_user",
          "type": "address"
        }
      ],
      "name": "withdrawVotingRights",
      "outputs": [],
      "stateMutability": "nonpayable",
      "type": "function"
    }
  ],
  "bytecode": "0x608060405260006001818155601d829055601e829055601f8190556020819055602181905560225560238190556024819055602581905560268190556027556029805460ff60a01b1916600160a01b1790553480156200005e57600080fd5b506040516200b93f3803806200b93f833981016040819052620000819162000123565b620000956200008f620000cf565b620000d3565b6001600160a01b038116620000a957600080fd5b602880546001600160a01b0319166001600160a01b039290921691909117905562000153565b3390565b600080546001600160a01b038381166001600160a01b0319831681178455604051919092169283917f8be0079c531659141344cd1fd0a4f28419497f9722a3daafe3b4186f6b6457e09190a35050565b60006020828403121562000135578081fd5b81516001600160a01b03811681146200014c578182fd5b9392505050565b61b7dc80620001636000396000f3fe608060405234801561001057600080fd5b506004361061070c5760003560e01c806388d072eb1161039d578063d1382092116101e9578063eb1322ff1161011a578063f716596d116100b8578063fc0c546a11610087578063fc0c546a14610ebc578063fca4956314610ec4578063fd41488114610ed7578063ff43de9d14610eea5761070c565b8063f716596d14610e91578063f721de4a14610e99578063f80a23fd14610eac578063f96305f014610eb45761070c565b8063f2d9e74d116100f4578063f2d9e74d14610e5b578063f2fde38b14610e63578063f4cdfcc414610e76578063f5ae7c7d14610e895761070c565b8063eb1322ff14610e38578063ed8becfa14610e40578063ef4fcdad14610e535761070c565b8063d8b7567411610187578063da14563a11610161578063da14563a14610df7578063e44c974b14610dff578063e604c12714610e12578063e798a7da14610e255761070c565b8063d8b7567414610db1578063d9548e5314610dc4578063d9845fb814610dd75761070c565b8063d58f575c116101c3578063d58f575c14610d7b578063d6b0206c14610d83578063d817587e14610d8b578063d822ce0114610d9e5761070c565b8063d138209214610d42578063d186981d14610d55578063d420ec0b14610d685761070c565b8063a511dba0116102ce578063b1a2e0be1161026c578063b8f011b31161023b578063b8f011b314610d01578063bc3002e614610d14578063c4e4f82a14610d27578063d0d41def14610d3a5761070c565b8063b1a2e0be14610cb5578063b1cf4a7e14610cc8578063b1d7ea9814610cdb578063b43bd06914610cee5761070c565b8063aa7ca464116102a8578063aa7ca46414610c74578063aacc5a1714610c87578063b0bc471e14610c8f578063b10aa58414610ca25761070c565b8063a511dba014610c46578063a905779014610c4e578063a98eb31e14610c615761070c565b80639769d8461161033b578063a1103f3711610315578063a1103f3714610c10578063a1b6b5b714610c23578063a350715a14610c2b578063a4439dc514610c335761070c565b80639769d84614610be25780639d6e3f9614610bea5780639fc9c52f14610bfd5761070c565b80638c89d027116103775780638c89d02714610b8c5780638da5cb5b14610bb45780638df0296e14610bbc5780639760356014610bcf5761070c565b806388d072eb14610b53578063896d807a14610b665780638bf8a33814610b795761070c565b806353bf27f11161055c57806371880b1b1161048d5780637fabe35b1161042b57806383e5a8f6116103fa57806383e5a8f614610b1d5780638473850b14610b305780638480a22114610b385780638746ff8a14610b405761070c565b80637fabe35b14610ac2578063815ce74714610aef578063819b029314610af7578063821aa8c014610b0a5761070c565b80637860dd41116104675780637860dd4114610a815780637ad3be1114610a945780637f9510a214610aa75780637f97e83614610aaf5761070c565b806371880b1b14610a53578063763a39f214610a6657806377124dec14610a6e5761070c565b8063607d5efa116104fa5780636b2d95d4116104d45780636b2d95d414610a125780637018e9c614610a255780637074222b14610a38578063715018a614610a4b5761070c565b8063607d5efa146109e45780636371d81f146109ec57806363b563a8146109ff5761070c565b80635a452943116105365780635a4529431461098b5780635b113a55146109ab5780635dc44cf1146109be5780635df6055d146109d15761070c565b806353bf27f11461095d578063576a554314610965578063579db71c146109785761070c565b806331e2f28511610641578063441c77c0116105df57806349403183116105ae578063494031831461090e5780634bad8d24146109215780634fe8b4c114610942578063515535e8146109555761070c565b8063441c77c0146108d857806347fe2d20146108eb5780634852e2f0146108f357806348cbd8f8146108fb5761070c565b806339e7357c1161061b57806339e7357c146108895780633c062cc814610891578063413b90f7146108b2578063427fa1d2146108c55761070c565b806331e2f2851461084e5780633538af821461086157806336fc43fc146108815761070c565b8063154fd39b116106ae578063275c259011610688578063275c2590146108005780632c052031146108085780632d917c681461081b5780632f469fd11461082e5761070c565b8063154fd39b146107b857806319d90346146107c0578063226ed300146107e05761070c565b8063092a5cce116106ea578063092a5cce1461076f5780630b96c5b0146107775780630e6661a71461079d578063100372f5146107a55761070c565b806301a48b981461071157806301aa5f731461073a578063059576231461075a575b600080fd5b61072461071f36600461a029565b610ef2565b604051610731919061a322565b60405180910390f35b61074d61074836600461a029565b61108f565b604051610731919061a255565b61076d610768366004619cd3565b6110ec565b005b61076d61114d565b61078a61078536600461a029565b61119f565b604051610731979695949392919061a353565b61074d611383565b61076d6107b336600461a029565b611389565b61074d6113cd565b6107d36107ce36600461a029565b6113d3565b604051610731919061a2c2565b6107f36107ee36600461a029565b6116ee565b604051610731919061a335565b61076d611730565b61074d610816366004619d36565b611877565b6107f3610829366004619d0b565b611a14565b61084161083c36600461a052565b611a34565b604051610731919061a340565b61074d61085c366004619cd3565b611ad9565b61087461086f36600461a029565b611aeb565b604051610731919061a2ae565b6107f3611b15565b61074d611b25565b6108a461089f36600461a029565b611b42565b60405161073192919061a2a0565b6108a46108c0366004619d0b565b611b64565b61074d6108d3366004619cd3565b611b94565b6107f36108e636600461a029565b611c34565b61074d611c8e565b61074d611c94565b61076d61090936600461a052565b611c9a565b6107f361091c36600461a029565b611e7b565b61093461092f36600461a129565b6120c7565b60405161073192919061b4a9565b61076d61095036600461a029565b612376565b61074d61241b565b61074d612421565b61076d610973366004619cd3565b612427565b610724610986366004619cd3565b6125ee565b61099e61099936600461a029565b61265a565b604051610731919061b3d8565b61074d6109b936600461a052565b6128af565b61074d6109cc366004619d0b565b6128cc565b6107d36109df36600461a029565b6128fd565b61076d612b1a565b61076d6109fa36600461a029565b612cd3565b6107f3610a0d36600461a029565b612d86565b61074d610a20366004619cd3565b612dd9565b6107f3610a3336600461a029565b612de8565b61074d610a46366004619cd3565b612e29565b61076d612e44565b61074d610a6136600461a029565b612e8f565b61074d612ecc565b61076d610a7c36600461a029565b612ed2565b61074d610a8f36600461a029565b612f16565b61074d610aa2366004619d0b565b612f6a565b61074d612fa1565b6107f3610abd366004619d0b565b612fb8565b610ad5610ad036600461a029565b61300b565b6040516107319e9d9c9b9a9998979695949392919061b517565b61074d61310b565b6107f3610b0536600461a14a565b613167565b610874610b1836600461a029565b6131a8565b61076d610b2b36600461a081565b6131b8565b61074d61375e565b61074d613764565b610874610b4e366004619d0b565b61376a565b610841610b6136600461a052565b613bc6565b61076d610b74366004619f44565b613bea565b61074d610b87366004619f00565b613c2c565b610b9f610b9a366004619cd3565b613c6f565b6040516107319998979695949392919061b4d8565b610874613cba565b610874610bca36600461a129565b613cc9565b61076d610bdd36600461a029565b613d01565b61074d613eb0565b61074d610bf8366004619cd3565b613eb6565b61076d610c0b366004619e51565b613f21565b61074d610c1e366004619d0b565b613f6f565b61074d613fa2565b61074d613fa8565b6107f3610c4136600461a029565b613fae565b61074d614010565b6107f3610c5c366004619f91565b614016565b61076d610c6f36600461a0d5565b61407c565b6107f3610c82366004619d0b565b614348565b61074d61439b565b61074d610c9d366004619d0b565b614450565b610874610cb036600461a029565b614487565b6107f3610cc3366004619cd3565b614497565b61074d610cd636600461a129565b614564565b610724610ce936600461a129565b614579565b61074d610cfc366004619d36565b614793565b610724610d0f36600461a129565b61487f565b61074d610d22366004619d6a565b6149e7565b61074d610d3536600461a029565b61551d565b61074d61555a565b61074d610d50366004619d0b565b615560565b6107f3610d6336600461a052565b615596565b6107f3610d76366004619d0b565b615671565b61074d615691565b61074d615697565b6107d3610d9936600461a029565b61569d565b610874610dac366004619d0b565b6158ba565b61074d610dbf36600461a052565b6158d6565b6107f3610dd236600461a029565b6158f3565b610dea610de536600461a029565b6158f8565b604051610731919061b2e6565b61076d615a7c565b610724610e0d36600461a029565b615d7d565b610841610e2036600461a029565b615e09565b6107f3610e33366004619cd3565b615eb4565b61074d615ed5565b6107d3610e4e36600461a029565b615edb565b61074d6161ea565b61074d6161f0565b61076d610e71366004619cd3565b6161f6565b61074d610e84366004619fe7565b616264565b61074d616279565b61076d61627f565b6107f3610ea736600461a029565b616653565b6107f361665b565b61074d616674565b61087461667a565b61074d610ed2366004619cd3565b616689565b6107d3610ee536600461a129565b61673d565b610874616c4f565b6060610efd82616653565b610f225760405162461bcd60e51b8152600401610f199061af4a565b60405180910390fd5b600082815260196020908152604080832080548251818502810185019093528083529192909190830182828015610f8257602002820191906000526020600020905b81546001600160a01b03168152600190910190602001808311610f64575b50505050509050600081516001600160401b03811115610fb257634e487b7160e01b600052604160045260246000fd5b604051908082528060200260200182016040528015610fdb578160200160208202803683370190505b50905060005b825181101561108557600c6000868152602001908152602001600020600084838151811061101f57634e487b7160e01b600052603260045260246000fd5b60200260200101516001600160a01b03166001600160a01b031681526020019081526020016000205482828151811061106857634e487b7160e01b600052603260045260246000fd5b60209081029190910101528061107d8161b700565b915050610fe1565b509150505b919050565b600061109a82616653565b6110b65760405162461bcd60e51b8152600401610f199061af4a565b60006110c183611c34565b156110e6576000838152601460205260409020600601546110e390429061b682565b90505b92915050565b6110f4616c5e565b6001600160a01b0316611105613cba565b6001600160a01b03161461112b5760405162461bcd60e51b8152600401610f199061ac49565b602980546001600160a01b0319166001600160a01b0392909216919091179055565b611155616c5e565b6001600160a01b0316611166613cba565b6001600160a01b03161461118c5760405162461bcd60e51b8152600401610f199061ac49565b611194613cba565b6001600160a01b0316ff5b6013602052600090815260409020805481906111ba9061b6c5565b80601f01602080910402602001604051908101604052809291908181526020018280546111e69061b6c5565b80156112335780601f1061120857610100808354040283529160200191611233565b820191906000526020600020905b81548152906001019060200180831161121657829003601f168201915b50505060018401546002850154600386015460048701805496976001600160a01b0390941696929550909350906112699061b6c5565b80601f01602080910402602001604051908101604052809291908181526020018280546112959061b6c5565b80156112e25780601f106112b7576101008083540402835291602001916112e2565b820191906000526020600020905b8154815290600101906020018083116112c557829003601f168201915b5050505050908060050180546112f79061b6c5565b80601f01602080910402602001604051908101604052809291908181526020018280546113239061b6c5565b80156113705780601f1061134557610100808354040283529160200191611370565b820191906000526020600020905b81548152906001019060200180831161135357829003601f168201915b5050506006909301549192505060ff1687565b601e5481565b611391616c5e565b6001600160a01b03166113a2613cba565b6001600160a01b0316146113c85760405162461bcd60e51b8152600401610f199061ac49565b602155565b60225490565b60606113de82616653565b6113fa5760405162461bcd60e51b8152600401610f199061af4a565b600082815260146020908152604080832081516101c0810183528154815260018201549381019390935260028101549183019190915260038101546060830152600481015460ff808216151560808501526101008083048216151560a08601526201000090920416151560c0840152600582015460e084015260068201549083015260078101546101208301526008810154610140830152600981018054610160840191906114a89061b6c5565b80601f01602080910402602001604051908101604052809291908181526020018280546114d49061b6c5565b80156115215780601f106114f657610100808354040283529160200191611521565b820191906000526020600020905b81548152906001019060200180831161150457829003601f168201915b5050509183525050600a8201546020820152600b82015460409091019060ff16600381111561156057634e487b7160e01b600052602160045260246000fd5b600381111561157f57634e487b7160e01b600052602160045260246000fd5b90525060208101519091506000816001600160401b038111156115b257634e487b7160e01b600052604160045260246000fd5b6040519080825280602002602001820160405280156115e557816020015b60608152602001906001900390816115d05790505b50905060005b828110156116e557835160009061160390839061b637565b6000818152601360205260408120600401805492935090916116249061b6c5565b80601f01602080910402602001604051908101604052809291908181526020018280546116509061b6c5565b801561169d5780601f106116725761010080835404028352916020019161169d565b820191906000526020600020905b81548152906001019060200180831161168057829003601f168201915b50505050509050808484815181106116c557634e487b7160e01b600052603260045260246000fd5b6020026020010181905250505080806116dd9061b700565b9150506115eb565b50949350505050565b60006116f982616653565b6117155760405162461bcd60e51b8152600401610f199061b271565b6000828152601460205260409020600601546110e6906158f3565b336000908152601560205260409020600381015460ff1615156001146117685760405162461bcd60e51b8152600401610f199061abd8565b80541580159061178257506003810154610100900460ff16155b8015611794575061179233616c62565b155b156117ed5760038101805461ff001916610100179055601c80546001810182556000919091527f0e4562a10381dec21b205ed72637e6b1b523bdd0e4d4d50af5cd23dd4500a2110180546001600160a01b031916331790555b8054611853576117fc33616cd9565b61180533616e31565b426002820181905560038201805460ff1916905560405133917f9dadcedba048e92b943ea1c5861cee1df63a566d7f795869c004780c1c698e2b9161184a919061a255565b60405180910390a25b600160236000828254611866919061b637565b909155506118749050616f61565b50565b60008061188385611b94565b905060006118918683615560565b90505b8115611a09576118a48683615560565b90508481116119615783821415611959576001600160a01b0386166000908152601160205260409081902090516301c39b2b60e11b815273__$85afbab79b2b776d70bef879a32ed56424$__916303873656916119069190869060040161a2a0565b60206040518083038186803b15801561191e57600080fd5b505af4158015611932573d6000803e3d6000fd5b505050506040513d601f19601f82011682018060405250810190611956919061a041565b91505b509050611a0d565b6001600160a01b0386166000908152601160205260409081902090516301c39b2b60e11b815273__$85afbab79b2b776d70bef879a32ed56424$__916303873656916119b29190869060040161a2a0565b60206040518083038186803b1580156119ca57600080fd5b505af41580156119de573d6000803e3d6000fd5b505050506040513d601f19601f82011682018060405250810190611a02919061a041565b9150611894565b5090505b9392505050565b600a60209081526000928352604080842090915290825290205460ff1681565b600d60209081526000928352604080842090915290825290208054611a589061b6c5565b80601f0160208091040260200160405190810160405280929190818152602001828054611a849061b6c5565b8015611ad15780601f10611aa657610100808354040283529160200191611ad1565b820191906000526020600020905b815481529060010190602001808311611ab457829003601f168201915b505050505081565b60176020526000908152604090205481565b601a8181548110611afb57600080fd5b6000918252602090912001546001600160a01b0316905081565b602954600160a01b900460ff1681565b60405160009080602081848060185afa611b3b57fe5b5051919050565b60028160048110611b5257600080fd5b60020201805460019091015490915082565b60166020528160005260406000208160048110611b8057600080fd5b600202018054600190910154909250905082565b6001600160a01b03811660009081526011602052604080822090516301c39b2b60e11b815273__$85afbab79b2b776d70bef879a32ed56424$__91630387365691611be49190859060040161a2a0565b60206040518083038186803b158015611bfc57600080fd5b505af4158015611c10573d6000803e3d6000fd5b505050506040513d601f19601f820116820180604052508101906110e6919061a041565b6000611c3f82616653565b611c5b5760405162461bcd60e51b8152600401610f199061af4a565b600082815260146020526040902060060154611c76906158f3565b1580156110e65750611c8782613fae565b1592915050565b60215490565b60265481565b6000611cc7611ca883612dd9565b6001600160a01b0384166000908152601760205260409020549061723a565b905082811015611ce95760405162461bcd60e51b8152600401610f199061aece565b6029546040805163ca64f9e760e01b815290516000926001600160a01b03169163ca64f9e7916004808301926020929190829003018186803b158015611d2e57600080fd5b505afa158015611d42573d6000803e3d6000fd5b505050506040513d601f19601f82011682018060405250810190611d669190619cef565b604051630895993360e11b81529091506001600160a01b0382169063112b326690611d97908790879060040161b474565b602060405180830381600087803b158015611db157600080fd5b505af1158015611dc5573d6000803e3d6000fd5b505050506040513d601f19601f82011682018060405250810190611de99190619ee0565b611e055760405162461bcd60e51b8152600401610f199061b17c565b6001600160a01b03831660009081526017602052604081208054869290611e2d90849061b682565b92505081905550826001600160a01b03167ffaeb7dbb9992397d26ea1944efd40c80b40f702faf69b46c67ad10aba68ccb7985604051611e6d919061a255565b60405180910390a250505050565b600081815260146020908152604080832081516101c0810183528154815260018201549381019390935260028101549183019190915260038101546060830152600481015460ff808216151560808501526101008083048216151560a08601526201000090920416151560c0840152600582015460e08401526006820154908301526007810154610120830152600881015461014083015260098101805484939291610160840191611f2c9061b6c5565b80601f0160208091040260200160405190810160405280929190818152602001828054611f589061b6c5565b8015611fa55780601f10611f7a57610100808354040283529160200191611fa5565b820191906000526020600020905b815481529060010190602001808311611f8857829003601f168201915b5050509183525050600a8201546020820152600b82015460409091019060ff166003811115611fe457634e487b7160e01b600052602160045260246000fd5b600381111561200357634e487b7160e01b600052602160045260246000fd5b90525061014081015161012082015191925061201e9161b637565b602960009054906101000a90046001600160a01b03166001600160a01b031663ea19733c6040518163ffffffff1660e01b815260040160206040518083038186803b15801561206c57600080fd5b505afa158015612080573d6000803e3d6000fd5b505050506040513d601f19601f820116820180604052508101906120a4919061a041565b6120ae919061b663565b6101208201516120bf90606461b663565b119392505050565b600060606000841180156120da57508284105b6120f65760405162461bcd60e51b8152600401610f199061a9ab565b600080612103868661b682565b61210e90600161b637565b90506000816001600160401b0381111561213857634e487b7160e01b600052604160045260246000fd5b604051908082528060200260200182016040528015612161578160200160208202803683370190505b509050865b61217187600161b637565b81101561235957600081815260146020908152604080832081516101c0810183528154815260018201549381019390935260028101549183019190915260038101546060830152600481015460ff808216151560808501526101008083048216151560a08601526201000090920416151560c0840152600582015460e084015260068201549083015260078101546101208301526008810154610140830152600981018054610160840191906122269061b6c5565b80601f01602080910402602001604051908101604052809291908181526020018280546122529061b6c5565b801561229f5780601f106122745761010080835404028352916020019161229f565b820191906000526020600020905b81548152906001019060200180831161228257829003601f168201915b5050509183525050600a8201546020820152600b82015460409091019060ff1660038111156122de57634e487b7160e01b600052602160045260246000fd5b60038111156122fd57634e487b7160e01b600052602160045260246000fd5b905250610180810151909150612313908661b637565b945080610180015183838151811061233b57634e487b7160e01b600052603260045260246000fd5b602090810291909101015250806123518161b700565b915050612166565b506000612366838561b64f565b95509093505050505b9250929050565b61237e616c5e565b6001600160a01b031661238f613cba565b6001600160a01b0316146123b55760405162461bcd60e51b8152600401610f199061ac49565b6000818152601360205260408120906123ce8282619a61565b6001820180546001600160a01b0319169055600060028301819055600383018190556123fe906004840190619a61565b61240c600583016000619a61565b50600601805460ff1916905550565b60205490565b601a5490565b6001600160a01b03811660009081526016602052604081209061244c6001600461b682565b9050600082826004811061247057634e487b7160e01b600052603260045260246000fd5b6002020154602954604080516307bc663b60e11b815290519293506001600160a01b0390911691630f78cc7691600480820192602092909190829003018186803b1580156124bd57600080fd5b505afa1580156124d1573d6000803e3d6000fd5b505050506040513d601f19601f820116820180604052508101906124f5919061a041565b6124ff824261b682565b11156125e85760005b6125146001600461b682565b811015612593578361252782600161b637565b6004811061254557634e487b7160e01b600052603260045260246000fd5b6002020184826004811061256957634e487b7160e01b600052603260045260246000fd5b8254600291909102919091019081556001918201549101558061258b8161b700565b915050612508565b50428383600481106125b557634e487b7160e01b600052603260045260246000fd5b600202015560008383600481106125dc57634e487b7160e01b600052603260045260246000fd5b60020201600101819055505b50505050565b6001600160a01b03811660009081526010602090815260409182902080548351818402810184019094528084526060939283018282801561264e57602002820191906000526020600020905b81548152602001906001019080831161263a575b50505050509050919050565b612662619a9d565b60008281526013602052604090819020815160e0810190925280548290829061268a9061b6c5565b80601f01602080910402602001604051908101604052809291908181526020018280546126b69061b6c5565b80156127035780601f106126d857610100808354040283529160200191612703565b820191906000526020600020905b8154815290600101906020018083116126e657829003601f168201915b505050918352505060018201546001600160a01b0316602082015260028201546040820152600382015460608201526004820180546080909201916127479061b6c5565b80601f01602080910402602001604051908101604052809291908181526020018280546127739061b6c5565b80156127c05780601f10612795576101008083540402835291602001916127c0565b820191906000526020600020905b8154815290600101906020018083116127a357829003601f168201915b505050505081526020016005820180546127d99061b6c5565b80601f01602080910402602001604051908101604052809291908181526020018280546128059061b6c5565b80156128525780601f1061282757610100808354040283529160200191612852565b820191906000526020600020905b81548152906001019060200180831161283557829003601f168201915b5050509183525050600682015460209091019060ff16600381111561288757634e487b7160e01b600052602160045260246000fd5b60038111156128a657634e487b7160e01b600052602160045260246000fd5b90525092915050565b600e60209081526000928352604080842090915290825290205481565b601060205281600052604060002081815481106128e857600080fd5b90600052602060002001600091509150505481565b606061290882616653565b6129245760405162461bcd60e51b8152600401610f199061af4a565b60008281526019602090815260408083208054825181850281018501909352808352919290919083018282801561298457602002820191906000526020600020905b81546001600160a01b03168152600190910190602001808311612966575b50505050509050600081516001600160401b038111156129b457634e487b7160e01b600052604160045260246000fd5b6040519080825280602002602001820160405280156129e757816020015b60608152602001906001900390816129d25790505b50905060005b825181101561108557600f60008681526020019081526020016000206000848381518110612a2b57634e487b7160e01b600052603260045260246000fd5b60200260200101516001600160a01b03166001600160a01b031681526020019081526020016000208054612a5e9061b6c5565b80601f0160208091040260200160405190810160405280929190818152602001828054612a8a9061b6c5565b8015612ad75780601f10612aac57610100808354040283529160200191612ad7565b820191906000526020600020905b815481529060010190602001808311612aba57829003601f168201915b5050505050828281518110612afc57634e487b7160e01b600052603260045260246000fd5b60200260200101819052508080612b129061b700565b9150506129ed565b6000612b286001600461b682565b9050600060028260048110612b4d57634e487b7160e01b600052603260045260246000fd5b6002020154602954604080516307bc663b60e11b815290519293506001600160a01b0390911691630f78cc7691600480820192602092909190829003018186803b158015612b9a57600080fd5b505afa158015612bae573d6000803e3d6000fd5b505050506040513d601f19601f82011682018060405250810190612bd2919061a041565b612bdc824261b682565b1115612ccf5760005b612bf16001600461b682565b811015612c72576002612c0582600161b637565b60048110612c2357634e487b7160e01b600052603260045260246000fd5b6002020160028260048110612c4857634e487b7160e01b600052603260045260246000fd5b82546002919091029190910190815560019182015491015580612c6a8161b700565b915050612be5565b504260028360048110612c9557634e487b7160e01b600052603260045260246000fd5b6002020160000181905550600060028360048110612cc357634e487b7160e01b600052603260045260246000fd5b60020201600101819055505b5050565b612cdb616c5e565b6001600160a01b0316612cec613cba565b6001600160a01b031614612d125760405162461bcd60e51b8152600401610f199061ac49565b600081815260146020526040812081815560018101829055600281018290556003810182905560048101805462ffffff191690556005810182905560068101829055600781018290556008810182905590612d706009830182619a61565b506000600a820155600b01805460ff1916905550565b6000612d9182616653565b612d9d5750600061108a565b600082815260146020526040902060060154612db8906158f3565b80612dd25750600082815260146020526040902060030154155b905061108a565b60006110e682610d5084611b94565b6000612df382616653565b612dff5750600061108a565b600082815260146020526040902060050154612e1a906158f3565b80612dd25750612dd282611c34565b6001600160a01b031660009081526017602052604090205490565b612e4c616c5e565b6001600160a01b0316612e5d613cba565b6001600160a01b031614612e835760405162461bcd60e51b8152600401610f199061ac49565b612e8d6000617246565b565b6000612e9a82616653565b612eb65760405162461bcd60e51b8152600401610f199061af4a565b5060009081526014602052604090206006015490565b601b5490565b612eda616c5e565b6001600160a01b0316612eeb613cba565b6001600160a01b031614612f115760405162461bcd60e51b8152600401610f199061ac49565b602255565b6000612f2182616653565b612f3d5760405162461bcd60e51b8152600401610f199061af4a565b6000612f4883613fae565b156110e6576000838152601460205260409020600501546110e390429061b682565b60006110e3612f798484613f6f565b6040518060400160405280600a8152602001690c6dedadad2e890c2e6d60b31b815250613c2c565b601b54601a54600091612fb39161b637565b905090565b6000612fc382616653565b612fdf5760405162461bcd60e51b8152600401610f199061af4a565b506001600160a01b03919091166000908152600a60209081526040808320938352929052205460ff1690565b601460205260009081526040902080546001820154600283015460038401546004850154600586015460068701546007880154600889015460098a018054999a98999798969760ff808816986101008904821698620100009004909116969594939290916130789061b6c5565b80601f01602080910402602001604051908101604052809291908181526020018280546130a49061b6c5565b80156130f15780601f106130c6576101008083540402835291602001916130f1565b820191906000526020600020905b8154815290600101906020018083116130d457829003601f168201915b50505050600a830154600b9093015491929160ff1690508e565b600080805b6004811015613161576002816004811061313a57634e487b7160e01b600052603260045260246000fd5b60020201600101548261314d919061b637565b9150806131598161b700565b915050613110565b50905090565b6000806131748487615560565b831015905060006131858587615560565b84111580613191575085155b905081801561319d5750805b979650505050505050565b601b8181548110611afb57600080fd5b6131c185613fae565b6131dd5760405162461bcd60e51b8152600401610f199061a4cf565b336000908152600a6020908152604080832088845290915290205460ff16156132185760405162461bcd60e51b8152600401610f199061b00f565b6132228533615596565b61323e5760405162461bcd60e51b8152600401610f199061a7a7565b60295460408051632a49798160e11b815290516000926001600160a01b031691635492f302916004808301926020929190829003018186803b15801561328357600080fd5b505afa158015613297573d6000803e3d6000fd5b505050506040513d601f19601f820116820180604052508101906132bb9190619cef565b6001600160a01b031614156132e25760405162461bcd60e51b8152600401610f199061b1d9565b602954604080516001624ee91360e11b0319815290516000926001600160a01b03169163ff622dda916004808301926020929190829003018186803b15801561332a57600080fd5b505afa15801561333e573d6000803e3d6000fd5b505050506040513d601f19601f82011682018060405250810190613362919061a041565b90506000613370338361376a565b6001600160a01b0381166000908152601760205260409020549091508211156133c5576001600160a01b0381166000908152601760205260408120546133b790849061723a565b90506133c38183617296565b505b6000336000908152601160205260408082209051631e0f232560e31b815273__$85afbab79b2b776d70bef879a32ed56424$__9163f07919289161340e9190869060040161a2a0565b60206040518083038186803b15801561342657600080fd5b505af415801561343a573d6000803e3d6000fd5b505050506040513d601f19601f8201168201806040525081019061345e919061a041565b9050888114156135035733600090815260116020526040908190209051631e0f232560e31b815273__$85afbab79b2b776d70bef879a32ed56424$__9163f0791928916134b091908d9060040161a2a0565b60206040518083038186803b1580156134c857600080fd5b505af41580156134dc573d6000803e3d6000fd5b505050506040513d601f19601f82011682018060405250810190613500919061a041565b90505b61350f82823387613167565b61352b5760405162461bcd60e51b8152600401610f199061ab4d565b3360009081526011602052604090819020905163524cfe5360e11b815273__$85afbab79b2b776d70bef879a32ed56424$__9163a499fca691613577919086908e90879060040161b3bd565b60006040518083038186803b15801561358f57600080fd5b505af41580156135a3573d6000803e3d6000fd5b5050505060006135b3338b613f6f565b90506135e181604051806040016040528060098152602001686e756d546f6b656e7360b81b81525087613bea565b613611816040518060400160405280600a8152602001690c6dedadad2e890c2e6d60b31b8152508b60001c613bea565b613641816040518060400160405280600a815260200169636f6d6d6974566f746560b01b8152508a60001c613bea565b60008a8152600e60209081526040808320338085529083528184208b90558d8452600f83528184209084528252909120875161367f92890190619b01565b503360009081526015602090815260408083208d84526014909252909120600201546136ac90600161723a565b60008c81526014602090815260408083206002908101949094554293850193909355338252600a81528282208e83529052908120805460ff19166001908117909155602380549192909161370190849061b637565b9091555061370f9050616f61565b336001600160a01b03168b7f42864d9683ff5b12c3b2cc65d705af5aab104b03bc700b802f79e5c971ef08a188604051613749919061a255565b60405180910390a35050505050505050505050565b60205481565b601d5481565b6000806001600160a01b0316602960009054906101000a90046001600160a01b03166001600160a01b0316635492f3026040518163ffffffff1660e01b815260040160206040518083038186803b1580156137c457600080fd5b505afa1580156137d8573d6000803e3d6000fd5b505050506040513d601f19601f820116820180604052508101906137fc9190619cef565b6001600160a01b031614156138235760405162461bcd60e51b8152600401610f199061b1d9565b6029546040805163ca64f9e760e01b815290516000926001600160a01b03169163ca64f9e7916004808301926020929190829003018186803b15801561386857600080fd5b505afa15801561387c573d6000803e3d6000fd5b505050506040513d601f19601f820116820180604052508101906138a09190619cef565b6001600160a01b031614156138c75760405162461bcd60e51b8152600401610f199061ada7565b6029546040805163ca64f9e760e01b815290516000926001600160a01b03169163ca64f9e7916004808301926020929190829003018186803b15801561390c57600080fd5b505afa158015613920573d6000803e3d6000fd5b505050506040513d601f19601f820116820180604052508101906139449190619cef565b90506000602960009054906101000a90046001600160a01b03166001600160a01b0316635492f3026040518163ffffffff1660e01b815260040160206040518083038186803b15801561399657600080fd5b505afa1580156139aa573d6000803e3d6000fd5b505050506040513d601f19601f820116820180604052508101906139ce9190619cef565b9050848060055b6001600160a01b038216158015906139ed5750600081115b15613bba5760405163065ee72760e51b81526000906001600160a01b0387169063cbdce4e090613a2190869060040161a2ae565b60206040518083038186803b158015613a3957600080fd5b505afa158015613a4d573d6000803e3d6000fd5b505050506040513d601f19601f82011682018060405250810190613a71919061a041565b6001600160a01b0384166000908152601760205260409020549091508811613a9c5782935050613bba565b6001600160a01b0383166000908152601760205260409020548810801590613adb57506001600160a01b03831660009081526017602052604090205415155b15613b19576001600160a01b038316600090815260176020526040812054613b04908a9061723a565b9050808210613b17578394505050613bba565b505b878110613b295782935050613bba565b60405163792f4f6960e11b81526001600160a01b0386169063f25e9ed290613b5590869060040161a2ae565b60206040518083038186803b158015613b6d57600080fd5b505afa158015613b81573d6000803e3d6000fd5b505050506040513d601f19601f82011682018060405250810190613ba59190619cef565b9250613bb260018361b682565b9150506139d5565b50909695505050505050565b600f60209081526000928352604080842090915290825290208054611a589061b6c5565b60008383604051602001613bff92919061a25e565b60408051601f19818403018152918152815160209283012060009081526012909252902091909155505050565b6000808383604051602001613c4292919061a25e565b60408051808303601f19018152918152815160209283012060009081526012909252902054949350505050565b6015602052600090815260409020805460018201546002830154600384015460048501546005860154600687015460079097015495969495939460ff80851695610100909504169389565b6000546001600160a01b031690565b60196020528160005260406000208181548110613ce557600080fd5b6000918252602090912001546001600160a01b03169150829050565b60016000828152601460205260409020600b015460ff166003811115613d3757634e487b7160e01b600052602160045260246000fd5b14613d545760405162461bcd60e51b8152600401610f199061a439565b336000908152601160205260409081902090516306120d1f60e31b815273__$85afbab79b2b776d70bef879a32ed56424$__9163309068f891613d9c9190859060040161a2a0565b60206040518083038186803b158015613db457600080fd5b505af4158015613dc8573d6000803e3d6000fd5b505050506040513d601f19601f82011682018060405250810190613dec9190619ee0565b613e085760405162461bcd60e51b8152600401610f199061aa38565b336000908152601160205260409081902090516301039dfd60e11b815273__$85afbab79b2b776d70bef879a32ed56424$__916302073bfa91613e509190859060040161a2a0565b60006040518083038186803b158015613e6857600080fd5b505af4158015613e7c573d6000803e3d6000fd5b50506040513392508391507f402507661c8c8cb90e0a796450b8bdd28b6c516f05279c0cd29e84c344e1699a90600090a350565b60245481565b6001600160a01b038116600090815260166020526040812081805b600481101561108557828160048110613efa57634e487b7160e01b600052603260045260246000fd5b600202016001015482613f0d919061b637565b915080613f198161b700565b915050613ed1565b60005b8151811015612ccf57613f5d828281518110613f5057634e487b7160e01b600052603260045260246000fd5b6020026020010151613d01565b80613f678161b700565b915050613f24565b60008282604051602001613f8492919061a233565b60405160208183030381529060405280519060200120905092915050565b60245490565b60255481565b6000613fb982616653565b613fd55760405162461bcd60e51b8152600401610f199061af4a565b600082815260146020526040902060050154613ff0906158f3565b1580156110e6575050600090815260146020526040902060020154151590565b601e5490565b600081604051602001614029919061a284565b6040516020818303038152906040528051906020012083604051602001614050919061a284565b604051602081830303815290604052805190602001201415614074575060016110e6565b5060006110e6565b61408584611c34565b6140a15760405162461bcd60e51b8152600401610f199061ae88565b336000908152600a6020908152604080832087845290915290205460ff166140db5760405162461bcd60e51b8152600401610f199061a912565b336000908152600b6020908152604080832087845290915290205460ff16156141165760405162461bcd60e51b8152600401610f199061b29a565b6141203385612f6a565b61412a8483616264565b146141475760405162461bcd60e51b8152600401610f199061a596565b6141513385614450565b61415b8383614564565b146141785760405162461bcd60e51b8152600401610f199061a51e565b60006141843386615560565b905082600114156141bb57600085815260146020526040812060070180548392906141b090849061b637565b909155506141e29050565b600085815260146020526040812060080180548392906141dc90849061b637565b90915550505b336000818152600b602090815260408083208984528252808320805460ff19166001179055600c82528083208484528252808320879055888352600d8252808320938352928152919020855161423a92870190619b01565b5033600090815260156020908152604080832088845260149092529091206003015461426790600161723a565b600087815260146020526040902060039081019190915542600283015581015460ff16156142a5576000815561429c33616e31565b6142a5336174be565b6000868152601460205260409020600301546142c4576142c48661751b565b6001602360008282546142d7919061b637565b909155506142e59050616f61565b6000868152601460205260409081902060078101546008909101549151339287928a927f0867b5027231dcbf37614eaad07d667b9febaf9fdf483f488229b1f140bb07489261433892899290919061b4c2565b60405180910390a4505050505050565b600061435382616653565b61436f5760405162461bcd60e51b8152600401610f199061af4a565b506001600160a01b03919091166000908152600b60209081526040808320938352929052205460ff1690565b60008042416040516020016143b0919061a216565b6040516020818303038152906040528051906020012060001c6143d3919061b64f565b446143dc611b25565b6040516020016143ec919061a255565b60408051601f19818403018152919052805160209091012061440e904261b637565b614418919061b637565b614422919061b637565b604051602001614432919061a255565b60408051601f19818403018152919052805160209091012091505090565b60006110e361445f8484613f6f565b6040518060400160405280600a815260200169636f6d6d6974566f746560b01b815250613c2c565b601c8181548110611afb57600080fd5b6001600160a01b03811660009081526015602090815260408083208151610120810183528154808252600183015494820194909452600282015492810192909252600381015460ff80821615156060850152610100918290041615156080840152600482015460a0840152600582015460c0840152600682015460e084015260079091015490820152829161452c8582614348565b15801561453f575061453d816116ee565b155b8015614551575061454f81612de8565b155b1561455b57600192505b50909392505050565b60008282604051602001613f8492919061a2a0565b60606000821161459b5760405162461bcd60e51b8152600401610f199061ac24565b6000416040516020016145ae919061a216565b6040516020818303038152906040528051906020012060001c6145cf611b25565b6040516020016145df919061a255565b60408051601f198184030181529190528051602090910120614601904261b637565b61460b919061b637565b60405160200161461b919061a255565b6040516020818303038152906040528051906020012060001c90506000846001600160401b0381111561465e57634e487b7160e01b600052604160045260246000fd5b604051908082528060200260200182016040528015614687578160200160208202803683370190505b5090506000805b86821015614788576000866146a763017efeeb8761b682565b836040516020016146b992919061a2a0565b6040516020818303038152906040528051906020012060001c6146dc919061b71b565b90506000805b84811015614734578286828151811061470b57634e487b7160e01b600052603260045260246000fd5b602002602001015114156147225760019150614734565b8061472c8161b700565b9150506146e2565b5080614774578185858151811061475b57634e487b7160e01b600052603260045260246000fd5b602090810291909101015261477184600161b637565b93505b61477f83600161b637565b9250505061468e565b509095945050505050565b600061479e836116ee565b6147ba5760405162461bcd60e51b8152600401610f199061b132565b6001600160a01b0384166000908152600b6020908152604080832086845290915290205460ff166147fd5760405162461bcd60e51b8152600401610f199061aa95565b600061480884611e7b565b614813576000614816565b60015b60ff1690506000818460405160200161483092919061a2a0565b60405160208183030381529060405280519060200120905060006148548787614450565b90508082146148755760405162461bcd60e51b8152600401610f199061ade9565b61319d8787615560565b60606000821180156148915750818311155b801561489e575060018310155b6148ba5760405162461bcd60e51b8152600401610f199061a658565b6000826001600160401b038111156148e257634e487b7160e01b600052604160045260246000fd5b60405190808252806020026020018201604052801561490b578160200160208202803683370190505b5090506000846001600160401b0381111561493657634e487b7160e01b600052604160045260246000fd5b60405190808252806020026020018201604052801561495f578160200160208202803683370190505b509050600061497561497084618cc8565b618d1e565b905060005b86811015614788578181815181106149a257634e487b7160e01b600052603260045260246000fd5b60200260200101518382815181106149ca57634e487b7160e01b600052603260045260246000fd5b6020908102919091010152806149df8161b700565b91505061497a565b602954604080516309d0f8b560e31b815290516000926001600160a01b031691634e87c5a8916004808301926020929190829003018186803b158015614a2c57600080fd5b505afa158015614a40573d6000803e3d6000fd5b505050506040513d601f19601f82011682018060405250810190614a649190619ee0565b614a805760405162461bcd60e51b8152600401610f199061a961565b85518414614aa05760405162461bcd60e51b8152600401610f199061afc2565b614aa8612b1a565b602960009054906101000a90046001600160a01b03166001600160a01b031663b38e885e6040518163ffffffff1660e01b815260040160206040518083038186803b158015614af657600080fd5b505afa158015614b0a573d6000803e3d6000fd5b505050506040513d601f19601f82011682018060405250810190614b2e919061a041565b614b3661310b565b10614b535760405162461bcd60e51b8152600401610f199061a9e2565b602954604080516001624ee91360e11b0319815290516000926001600160a01b03169163ff622dda916004808301926020929190829003018186803b158015614b9b57600080fd5b505afa158015614baf573d6000803e3d6000fd5b505050506040513d601f19601f82011682018060405250810190614bd3919061a041565b90506000614be1338361376a565b9050614bec81612427565b602960009054906101000a90046001600160a01b03166001600160a01b031663be2509886040518163ffffffff1660e01b815260040160206040518083038186803b158015614c3a57600080fd5b505afa158015614c4e573d6000803e3d6000fd5b505050506040513d601f19601f82011682018060405250810190614c72919061a041565b614c7b82613eb6565b10614c985760405162461bcd60e51b8152600401610f199061b21d565b6001600160a01b038116600090815260176020526040902054821115614cea576001600160a01b038116600090815260176020526040812054614cdc90849061723a565b9050614ce88183617296565b505b60005b88518110156154d7576000898281518110614d1857634e487b7160e01b600052603260045260246000fd5b602002602001015190506000898984818110614d4457634e487b7160e01b600052603260045260246000fd5b9050602002810190614d56919061b5a7565b8080601f016020809104026020016040519081016040528093929190818152602001838380828437600092018290525033808252601060209081526040808420601e54815460018101835591865283862090910155805160e0810182528a8152918201929092524291810191909152606081018e90526080810186905260a081018d905294955060c0850193509150614dec9050565b9052601e546000908152601360209081526040909120825180519192614e1792849290910190619b01565b506020828101516001830180546001600160a01b0319166001600160a01b03909216919091179055604083015160028301556060830151600383015560808301518051614e6a9260048501920190619b01565b5060a08201518051614e86916005840191602090910190619b01565b5060c082015160068201805460ff19166001836003811115614eb857634e487b7160e01b600052602160045260246000fd5b021790555050602080546000908152601482526040908190206029548251634e8f956d60e11b815292519194506001600160a01b031692639d1f2ada9260048082019391829003018186803b158015614f1057600080fd5b505afa158015614f24573d6000803e3d6000fd5b505050506040513d601f19601f82011682018060405250810190614f48919061a041565b81600101541015614f6e576001816001016000828254614f68919061b637565b90915550505b602960009054906101000a90046001600160a01b03166001600160a01b0316639d1f2ada6040518163ffffffff1660e01b815260040160206040518083038186803b158015614fbc57600080fd5b505afa158015614fd0573d6000803e3d6000fd5b505050506040513d601f19601f82011682018060405250810190614ff4919061a041565b81600101541061504457600481018054600160ff19909116811761ff0019169091556020805460009061502890849061b637565b9091555050601e54602080546000908152601490915260409020555b601e5461505290600161b637565b601e556001600261506482600461b682565b6004811061508257634e487b7160e01b600052603260045260246000fd5b600202016001016000828254615098919061b637565b90915550506001600160a01b03851660009081526016602052604090206001816150c382600461b682565b600481106150e157634e487b7160e01b600052603260045260246000fd5b6002020160010160008282546150f7919061b637565b909155506151059050615a7c565b60295460408051637b39b17f60e11b815290516000926001600160a01b03169163f67362fe916004808301926020929190829003018186803b15801561514a57600080fd5b505afa15801561515e573d6000803e3d6000fd5b505050506040513d601f19601f820116820180604052508101906151829190619cef565b9050806001600160a01b031663da14563a6040518163ffffffff1660e01b8152600401600060405180830381600087803b1580156151bf57600080fd5b505af19250505080156151d0575060015b61522b573d8080156151fe576040519150601f19603f3d011682016040523d82523d6000602084013e615203565b606091505b5060008051602061b78783398151915281604051615221919061a340565b60405180910390a1505b60295460408051637a0ec25b60e01b815290516000926001600160a01b031691637a0ec25b916004808301926020929190829003018186803b15801561527057600080fd5b505afa158015615284573d6000803e3d6000fd5b505050506040513d601f19601f820116820180604052508101906152a89190619cef565b9050806001600160a01b031663da14563a6040518163ffffffff1660e01b8152600401600060405180830381600087803b1580156152e557600080fd5b505af19250505080156152f6575060015b615351573d808015615324576040519150601f19603f3d011682016040523d82523d6000602084013e615329565b606091505b5060008051602061b78783398151915281604051615347919061a340565b60405180910390a1505b6029546040805163463444b760e01b815290516000926001600160a01b03169163463444b7916004808301926020929190829003018186803b15801561539657600080fd5b505afa1580156153aa573d6000803e3d6000fd5b505050506040513d601f19601f820116820180604052508101906153ce9190619cef565b9050806001600160a01b031663da14563a6040518163ffffffff1660e01b8152600401600060405180830381600087803b15801561540b57600080fd5b505af192505050801561541c575060015b615477573d80801561544a576040519150601f19603f3d011682016040523d82523d6000602084013e61544f565b606091505b5060008051602061b7878339815191528160405161546d919061a340565b60405180910390a1505b886001600160a01b0316601e547fb819ca9ac369919119f75ec7363dd954f75bcfa75f9245647e03da413be0d58289896040516154b592919061a3e9565b60405180910390a35050505050505080806154cf9061b700565b915050614ced565b503360009081526015602052604090204260028201556154f5616f61565b600160236000828254615508919061b637565b9091555050601e549998505050505050505050565b600061552882616653565b6155445760405162461bcd60e51b8152600401610f199061af4a565b5060009081526014602052604090206005015490565b60015481565b60006110e361556f8484613f6f565b604051806040016040528060098152602001686e756d546f6b656e7360b81b815250613c2c565b60008281526019602090815260408083208054825181850281018501909352808352849384939291908301828280156155f857602002820191906000526020600020905b81546001600160a01b031681526001909101906020018083116155da575b5050505050905060005b815181101561566757846001600160a01b031682828151811061563557634e487b7160e01b600052603260045260246000fd5b60200260200101516001600160a01b031614156156555760019250615667565b8061565f8161b700565b915050615602565b5090949350505050565b600b60209081526000928352604080842090915290825290205460ff1681565b601f5481565b60225481565b60606156a882616653565b6156c45760405162461bcd60e51b8152600401610f199061af4a565b60008281526019602090815260408083208054825181850281018501909352808352919290919083018282801561572457602002820191906000526020600020905b81546001600160a01b03168152600190910190602001808311615706575b50505050509050600081516001600160401b0381111561575457634e487b7160e01b600052604160045260246000fd5b60405190808252806020026020018201604052801561578757816020015b60608152602001906001900390816157725790505b50905060005b825181101561108557600d600086815260200190815260200160002060008483815181106157cb57634e487b7160e01b600052603260045260246000fd5b60200260200101516001600160a01b03166001600160a01b0316815260200190815260200160002080546157fe9061b6c5565b80601f016020809104026020016040519081016040528092919081815260200182805461582a9061b6c5565b80156158775780601f1061584c57610100808354040283529160200191615877565b820191906000526020600020905b81548152906001019060200180831161585a57829003601f168201915b505050505082828151811061589c57634e487b7160e01b600052603260045260246000fd5b602002602001018190525080806158b29061b700565b91505061578d565b60186020528160005260406000208181548110613ce557600080fd5b600c60209081526000928352604080842090915290825290205481565b421190565b615900619b85565b61590982616653565b61591257600080fd5b60008281526014602090815260409182902082516101c0810184528154815260018201549281019290925260028101549282019290925260038201546060820152600482015460ff808216151560808401526101008083048216151560a08501526201000090920416151560c0830152600583015460e083015260068301549082015260078201546101208201526008820154610140820152600982018054919291610160840191906159c49061b6c5565b80601f01602080910402602001604051908101604052809291908181526020018280546159f09061b6c5565b8015615a3d5780601f10615a1257610100808354040283529160200191615a3d565b820191906000526020600020905b815481529060010190602001808311615a2057829003601f168201915b5050509183525050600a8201546020820152600b82015460409091019060ff16600381111561288757634e487b7160e01b600052602160045260246000fd5b615a84612b1a565b615a8c618ec5565b60005b602960009054906101000a90046001600160a01b03166001600160a01b0316637d630cb06040518163ffffffff1660e01b815260040160206040518083038186803b158015615add57600080fd5b505afa158015615af1573d6000803e3d6000fd5b505050506040513d601f19601f82011682018060405250810190615b15919061a041565b811015615d745760215460009081526014602052604081206004015462010000900460ff1615156001148015615b6e5750615b516021546116ee565b80615b6e5750602154600090815260146020526040902060030154155b15615bb457602154600090815260146020526040902060040154610100900460ff16615b9f57615b9f60215461751b565b602154615bad90600161908e565b6021555060015b615bbc61909a565b60225460009081526014602052604090206004015462010000900460ff161515600114801590615c735750602960009054906101000a90046001600160a01b03166001600160a01b031663bd40ef4c6040518163ffffffff1660e01b815260040160206040518083038186803b158015615c3557600080fd5b505afa158015615c49573d6000803e3d6000fd5b505050506040513d601f19601f82011682018060405250810190615c6d919061a041565b601a5410155b8015615c93575060225460009081526014602052604090206004015460ff165b8015615ca85750615ca261439b565b601d5414155b8015615d455750602960009054906101000a90046001600160a01b03166001600160a01b031663c4a306f86040518163ffffffff1660e01b815260040160206040518083038186803b158015615cfd57600080fd5b505afa158015615d11573d6000803e3d6000fd5b505050506040513d601f19601f82011682018060405250810190615d35919061a041565b600154615d42904261b682565b10155b15615d5657615d52619177565b5060015b80615d615750615d74565b5080615d6c8161b700565b915050615a8f565b50612e8d616f61565b606060008211615d9f5760405162461bcd60e51b8152600401610f199061ab2e565b6000826001600160401b03811115615dc757634e487b7160e01b600052604160045260246000fd5b604051908082528060200260200182016040528015615df0578160200160208202803683370190505b5090506000615e0161497083618cc8565b949350505050565b6060615e1482616653565b615e1d57600080fd5b60008281526014602052604090206009018054615e399061b6c5565b80601f0160208091040260200160405190810160405280929190818152602001828054615e659061b6c5565b801561264e5780601f10615e875761010080835404028352916020019161264e565b820191906000526020600020905b815481529060010190602001808311615e955750939695505050505050565b6001600160a01b031660009081526015602052604090206003015460ff1690565b60275481565b6060615ee682616653565b615f025760405162461bcd60e51b8152600401610f199061af4a565b600082815260146020908152604080832081516101c0810183528154815260018201549381019390935260028101549183019190915260038101546060830152600481015460ff808216151560808501526101008083048216151560a08601526201000090920416151560c0840152600582015460e08401526006820154908301526007810154610120830152600881015461014083015260098101805461016084019190615fb09061b6c5565b80601f0160208091040260200160405190810160405280929190818152602001828054615fdc9061b6c5565b80156160295780601f10615ffe57610100808354040283529160200191616029565b820191906000526020600020905b81548152906001019060200180831161600c57829003601f168201915b5050509183525050600a8201546020820152600b82015460409091019060ff16600381111561606857634e487b7160e01b600052602160045260246000fd5b600381111561608757634e487b7160e01b600052602160045260246000fd5b90525060208101519091506000816001600160401b038111156160ba57634e487b7160e01b600052604160045260246000fd5b6040519080825280602002602001820160405280156160ed57816020015b60608152602001906001900390816160d85790505b50905060005b828110156116e557835160009061610b90839061b637565b6000818152601360205260408120805492935090916161299061b6c5565b80601f01602080910402602001604051908101604052809291908181526020018280546161559061b6c5565b80156161a25780601f10616177576101008083540402835291602001916161a2565b820191906000526020600020905b81548152906001019060200180831161618557829003601f168201915b50505050509050808484815181106161ca57634e487b7160e01b600052603260045260246000fd5b6020026020010181905250505080806161e29061b700565b9150506160f3565b60215481565b60235481565b6161fe616c5e565b6001600160a01b031661620f613cba565b6001600160a01b0316146162355760405162461bcd60e51b8152600401610f199061ac49565b6001600160a01b03811661625b5760405162461bcd60e51b8152600401610f199061a612565b61187481617246565b60008282604051602001613f8492919061a417565b60235490565b3360009081526015602090815260409182902060295483516398a54e2b60e01b8152935191936001600160a01b03909116926398a54e2b92600480840193829003018186803b1580156162d157600080fd5b505afa1580156162e5573d6000803e3d6000fd5b505050506040513d601f19601f82011682018060405250810190616309919061a041565b601b54601a54616319919061b637565b106163365760405162461bcd60e51b8152600401610f199061b058565b600381015460ff161561635b5760405162461bcd60e51b8152600401610f199061a83b565b616364336197ce565b15801561637757506163753361983e565b155b6163935760405162461bcd60e51b8152600401610f199061ad72565b602960009054906101000a90046001600160a01b03166001600160a01b0316639fb491f66040518163ffffffff1660e01b815260040160206040518083038186803b1580156163e157600080fd5b505afa1580156163f5573d6000803e3d6000fd5b505050506040513d601f19601f82011682018060405250810190616419919061a041565b8160010154101580156164be5750602960009054906101000a90046001600160a01b03166001600160a01b0316630f1f0ffe6040518163ffffffff1660e01b815260040160206040518083038186803b15801561647557600080fd5b505afa158015616489573d6000803e3d6000fd5b505050506040513d601f19601f820116820180604052508101906164ad919061a041565b60048201546164bc904261b682565b105b156164db5760405162461bcd60e51b8152600401610f199061b09a565b602954604080516001624ee91360e11b0319815290516000926001600160a01b03169163ff622dda916004808301926020929190829003018186803b15801561652357600080fd5b505afa158015616537573d6000803e3d6000fd5b505050506040513d601f19601f8201168201806040525081019061655b919061a041565b90506000616569338361376a565b6001600160a01b0381166000908152601760205260409020549091508211156165be576001600160a01b0381166000908152601760205260408120546165b090849061723a565b90506165bc8183617296565b505b6165c7336174be565b600383018054600160ff19909116811761ff0019169091554260048501556000818501819055602380549091906165ff90849061b637565b9091555061660d9050616f61565b336001600160a01b03167f439d77b7534ec3108fc6143bd4fbabde0b9f2bb54f7b0730d1f70dd2135b765f42604051616646919061a255565b60405180910390a2505050565b602054101590565b3360009081526015602052604090206003015460ff1690565b60255490565b6028546001600160a01b031681565b6001600160a01b03811660009081526015602090815260408083208151610120810183528154808252600183015494820194909452600282015492810192909252600381015460ff80821615156060850152610100918290041615156080840152600482015460a0840152600582015460c0840152600682015460e0840152600790910154908201529061671d8482612fb8565b15801561672e575061672e81612de8565b15611a0d575060009392505050565b606060008311801561674e57508183105b61676a5760405162461bcd60e51b8152600401610f199061a9ab565b6000835b61677984600161b637565b81101561693057600081815260146020908152604080832081516101c0810183528154815260018201549381019390935260028101549183019190915260038101546060830152600481015460ff808216151560808501526101008083048216151560a08601526201000090920416151560c0840152600582015460e0840152600682015490830152600781015461012083015260088101546101408301526009810180546101608401919061682e9061b6c5565b80601f016020809104026020016040519081016040528092919081815260200182805461685a9061b6c5565b80156168a75780601f1061687c576101008083540402835291602001916168a7565b820191906000526020600020905b81548152906001019060200180831161688a57829003601f168201915b5050509183525050600a8201546020820152600b82015460409091019060ff1660038111156168e657634e487b7160e01b600052602160045260246000fd5b600381111561690557634e487b7160e01b600052602160045260246000fd5b905250602081015190915061691a908461b637565b92505080806169289061b700565b91505061676e565b506000816001600160401b0381111561695957634e487b7160e01b600052604160045260246000fd5b60405190808252806020026020018201604052801561698c57816020015b60608152602001906001900390816169775790505b5090506000855b61699e86600161b637565b81101561478857600081815260146020908152604080832081516101c0810183528154815260018201549381019390935260028101549183019190915260038101546060830152600481015460ff808216151560808501526101008083048216151560a08601526201000090920416151560c0840152600582015460e08401526006820154908301526007810154610120830152600881015461014083015260098101805461016084019190616a539061b6c5565b80601f0160208091040260200160405190810160405280929190818152602001828054616a7f9061b6c5565b8015616acc5780601f10616aa157610100808354040283529160200191616acc565b820191906000526020600020905b815481529060010190602001808311616aaf57829003601f168201915b5050509183525050600a8201546020820152600b82015460409091019060ff166003811115616b0b57634e487b7160e01b600052602160045260246000fd5b6003811115616b2a57634e487b7160e01b600052602160045260246000fd5b905250905060005b8160200151811015616c3a578151600090616b4e90839061b637565b600081815260136020526040812080549293509091616b6c9061b6c5565b80601f0160208091040260200160405190810160405280929190818152602001828054616b989061b6c5565b8015616be55780601f10616bba57610100808354040283529160200191616be5565b820191906000526020600020905b815481529060010190602001808311616bc857829003601f168201915b5050505050905080878781518110616c0d57634e487b7160e01b600052603260045260246000fd5b6020908102919091010152616c2360018761b637565b955050508080616c329061b700565b915050616b32565b50508080616c479061b700565b915050616993565b6029546001600160a01b031681565b3390565b600080805b601c54811015616cd257836001600160a01b0316601c8281548110616c9c57634e487b7160e01b600052603260045260246000fd5b6000918252602090912001546001600160a01b03161415616cc05760019150616cd2565b80616cca8161b700565b915050616c67565b5092915050565b60008060005b601a54811015616d4d57836001600160a01b0316601a8281548110616d1457634e487b7160e01b600052603260045260246000fd5b6000918252602090912001546001600160a01b03161415616d3b5760019150809250616d4d565b80616d458161b700565b915050616cdf565b508015616e2c57601a8054616d649060019061b682565b81548110616d8257634e487b7160e01b600052603260045260246000fd5b600091825260209091200154601a80546001600160a01b039092169184908110616dbc57634e487b7160e01b600052603260045260246000fd5b9060005260206000200160006101000a8154816001600160a01b0302191690836001600160a01b03160217905550601a805480616e0957634e487b7160e01b600052603160045260246000fd5b600082815260209020810160001990810180546001600160a01b03191690550190555b505050565b60008060005b601b54811015616ea557836001600160a01b0316601b8281548110616e6c57634e487b7160e01b600052603260045260246000fd5b6000918252602090912001546001600160a01b03161415616e935760019150809250616ea5565b80616e9d8161b700565b915050616e37565b508015616e2c57601b8054616ebc9060019061b682565b81548110616eda57634e487b7160e01b600052603260045260246000fd5b600091825260209091200154601b80546001600160a01b039092169184908110616f1457634e487b7160e01b600052603260045260246000fd5b9060005260206000200160006101000a8154816001600160a01b0302191690836001600160a01b03160217905550601b805480616e0957634e487b7160e01b600052603160045260246000fd5b60295460408051632abe0d5f60e11b815290516000926001600160a01b03169163557c1abe916004808301926020929190829003018186803b158015616fa657600080fd5b505afa925050508015616fd6575060408051601f3d908101601f19168201909252616fd391810190619cef565b60015b617035573d808015617004576040519150601f19603f3d011682016040523d82523d6000602084013e617009565b606091505b5060008051602061b78783398151915281604051617027919061a340565b60405180910390a150617037565b505b602960009054906101000a90046001600160a01b03166001600160a01b031663557c1abe6040518163ffffffff1660e01b815260040160206040518083038186803b15801561708557600080fd5b505afa158015617099573d6000803e3d6000fd5b505050506040513d601f19601f820116820180604052508101906170bd9190619cef565b90506001600160a01b0381166170e55760405162461bcd60e51b8152600401610f199061a804565b6000816001600160a01b031633604051602401617102919061a2ae565b60408051601f198184030181529181526020820180516001600160e01b0316631f5ac9c560e11b17905251617137919061a284565b6000604051808303816000865af19150503d8060008114617174576040519150601f19603f3d011682016040523d82523d6000602084013e617179565b606091505b505090506000826001600160a01b03163360405160240161719a919061a2ae565b60408051601f198184030181529181526020820180516001600160e01b03166358563d2160e01b179052516171cf919061a284565b6000604051808303816000865af19150503d806000811461720c576040519150601f19603f3d011682016040523d82523d6000602084013e617211565b606091505b50509050818061721e5750805b616e2c5760405162461bcd60e51b8152600401610f199061a48a565b60006110e3828461b682565b600080546001600160a01b038381166001600160a01b0319831681178455604051919092169283917f8be0079c531659141344cd1fd0a4f28419497f9722a3daafe3b4186f6b6457e09190a35050565b6029546040805163ca64f9e760e01b815290516000926001600160a01b03169163ca64f9e7916004808301926020929190829003018186803b1580156172db57600080fd5b505afa1580156172ef573d6000803e3d6000fd5b505050506040513d601f19601f820116820180604052508101906173139190619cef565b6001600160a01b0316141561733a5760405162461bcd60e51b8152600401610f199061ada7565b6029546040805163ca64f9e760e01b815290516000926001600160a01b03169163ca64f9e7916004808301926020929190829003018186803b15801561737f57600080fd5b505afa158015617393573d6000803e3d6000fd5b505050506040513d601f19601f820116820180604052508101906173b79190619cef565b6040516304ada21f60e21b81529091506001600160a01b038216906312b6887c906173e8908690869060040161b474565b602060405180830381600087803b15801561740257600080fd5b505af1158015617416573d6000803e3d6000fd5b505050506040513d601f19601f8201168201806040525081019061743a9190619ee0565b6174565760405162461bcd60e51b8152600401610f199061a8b5565b6001600160a01b0382166000908152601760205260408120805485929061747e90849061b637565b92505081905550816001600160a01b03167f5aa5d56140767016c877a5333ac3e1ad31a09051098a8fdf7297c4b64530a94284604051616646919061a255565b6174c7816197ce565b61187457601a80546001810182556000919091527f057c384a7d1c54f3a1b2e5e67b2617b8224fdfd1ea7234eea573a6ff665ff63e0180546001600160a01b0383166001600160a01b031990911617905550565b60295460408051632a49798160e11b815290516000926001600160a01b031691635492f302916004808301926020929190829003018186803b15801561756057600080fd5b505afa158015617574573d6000803e3d6000fd5b505050506040513d601f19601f820116820180604052508101906175989190619cef565b6001600160a01b031614156175bf5760405162461bcd60e51b8152600401610f199061b1d9565b60295460408051630855d15160e01b815290516000926001600160a01b031691630855d151916004808301926020929190829003018186803b15801561760457600080fd5b505afa158015617618573d6000803e3d6000fd5b505050506040513d601f19601f8201168201806040525081019061763c9190619cef565b6001600160a01b031614156176635760405162461bcd60e51b8152600401610f199061af15565b602954604080516304e76c8f60e01b815290516000926001600160a01b0316916304e76c8f916004808301926020929190829003018186803b1580156176a857600080fd5b505afa1580156176bc573d6000803e3d6000fd5b505050506040513d601f19601f820116820180604052508101906176e09190619cef565b6001600160a01b031614156177075760405162461bcd60e51b8152600401610f199061a6eb565b617710816116ee565b8061772a5750600081815260146020526040902060030154155b6177465760405162461bcd60e51b8152600401610f199061acce565b600081815260146020526040902060040154610100900460ff161561777d5760405162461bcd60e51b8152600401610f199061af81565b6000818152601960209081526040808320805482518185028101850190935280835291929091908301828280156177dd57602002820191906000526020600020905b81546001600160a01b031681526001909101906020018083116177bf575b50505050509050600081516001600160401b0381111561780d57634e487b7160e01b600052604160045260246000fd5b60405190808252806020026020018201604052801561784057816020015b606081526020019060019003908161782b5790505b509050600082516001600160401b0381111561786c57634e487b7160e01b600052604160045260246000fd5b604051908082528060200260200182016040528015617895578160200160208202803683370190505b50905060005b8351811015617a185760008482815181106178c657634e487b7160e01b600052603260045260246000fd5b6020908102919091018101516000888152600d835260408082206001600160a01b03841683529093529182208054919350906179019061b6c5565b80601f016020809104026020016040519081016040528092919081815260200182805461792d9061b6c5565b801561797a5780601f1061794f5761010080835404028352916020019161797a565b820191906000526020600020905b81548152906001019060200180831161795d57829003601f168201915b50505060008a8152600e602090815260408083206001600160a01b0389168452909152902054885193945092849250889150869081106179ca57634e487b7160e01b600052603260045260246000fd5b6020026020010181905250808585815181106179f657634e487b7160e01b600052603260045260246000fd5b6020026020010181815250505050508080617a109061b700565b91505061789b565b506000617ac36064602960009054906101000a90046001600160a01b03166001600160a01b031663ea19733c6040518163ffffffff1660e01b815260040160206040518083038186803b158015617a6e57600080fd5b505afa158015617a82573d6000803e3d6000fd5b505050506040513d601f19601f82011682018060405250810190617aa6919061a041565b8651617ab2919061b663565b617abc919061b64f565b60016198ae565b60408051602081019091526000808252919250905b8451811015617bc1576000805b8651811015617b7657617b46878481518110617b1157634e487b7160e01b600052603260045260246000fd5b6020026020010151888381518110617b3957634e487b7160e01b600052603260045260246000fd5b6020026020010151614016565b15617b6457617b5660018361b637565b9150848210617b6457617b76565b80617b6e8161b700565b915050617ae5565b50838110617bae57858281518110617b9e57634e487b7160e01b600052603260045260246000fd5b6020026020010151925050617bc1565b5080617bb98161b700565b915050617ad8565b506000805b8451811015617ca8576000805b8651811015617c5d57868181518110617bfc57634e487b7160e01b600052603260045260246000fd5b6020026020010151878481518110617c2457634e487b7160e01b600052603260045260246000fd5b60200260200101511415617c4b57617c3d60018361b637565b9150858210617c4b57617c5d565b80617c558161b700565b915050617bd3565b50848110617c9557858281518110617c8557634e487b7160e01b600052603260045260246000fd5b6020026020010151925050617ca8565b5080617ca08161b700565b915050617bc6565b506000617cb488611e7b565b8015617cd65750617cd48360405180602001604052806000815250614016565b155b8015617ce157508115155b905080617ced57606491505b60005b8751811015618490576000888281518110617d1b57634e487b7160e01b600052603260045260246000fd5b602002602001015190506000600c60008c81526020019081526020016000206000836001600160a01b03166001600160a01b031681526020019081526020016000205490506000600b6000846001600160a01b03166001600160a01b0316815260200190815260200160002060008d815260200190815260200160002060009054906101000a900460ff169050600060156000856001600160a01b03166001600160a01b03168152602001908152602001600020905060116000856001600160a01b03166001600160a01b0316815260200190815260200160002073__$85afbab79b2b776d70bef879a32ed56424$__6302073bfa90918f6040518363ffffffff1660e01b8152600401617e3092919061a2a0565b60006040518083038186803b158015617e4857600080fd5b505af4158015617e5c573d6000803e3d6000fd5b505050508115618366576001600160a01b0384166000908152601560205260408120600190810191909155861515148015617e975750826001145b80617eac575085158015617eac575082600114155b156183465760295460408051632a49798160e11b815290516000926001600160a01b031691635492f302916004808301926020929190829003018186803b158015617ef657600080fd5b505afa158015617f0a573d6000803e3d6000fd5b505050506040513d601f19601f82011682018060405250810190617f2e9190619cef565b90506000602960009054906101000a90046001600160a01b03166001600160a01b0316630855d1516040518163ffffffff1660e01b815260040160206040518083038186803b158015617f8057600080fd5b505afa158015617f94573d6000803e3d6000fd5b505050506040513d601f19601f82011682018060405250810190617fb89190619cef565b90506000602960009054906101000a90046001600160a01b03166001600160a01b03166304e76c8f6040518163ffffffff1660e01b815260040160206040518083038186803b15801561800a57600080fd5b505afa15801561801e573d6000803e3d6000fd5b505050506040513d601f19601f820116820180604052508101906180429190619cef565b90506000836001600160a01b03166311815086896040518263ffffffff1660e01b8152600401618072919061a2ae565b60206040518083038186803b15801561808a57600080fd5b505afa15801561809e573d6000803e3d6000fd5b505050506040513d601f19601f820116820180604052508101906180c29190619cef565b90508a1561832257826001600160a01b0316631b6d990a8c602960009054906101000a90046001600160a01b03166001600160a01b0316630b08bfd96040518163ffffffff1660e01b815260040160206040518083038186803b15801561812857600080fd5b505afa15801561813c573d6000803e3d6000fd5b505050506040513d601f19601f82011682018060405250810190618160919061a041565b61816a919061b663565b836040518363ffffffff1660e01b815260040161818892919061b48b565b602060405180830381600087803b1580156181a257600080fd5b505af11580156181b6573d6000803e3d6000fd5b505050506040513d601f19601f820116820180604052508101906181da9190619ee0565b6181f65760405162461bcd60e51b8152600401610f199061a870565b816001600160a01b031663e0ca50948c602960009054906101000a90046001600160a01b03166001600160a01b031663f80de0a06040518163ffffffff1660e01b815260040160206040518083038186803b15801561825457600080fd5b505afa158015618268573d6000803e3d6000fd5b505050506040513d601f19601f8201168201806040525081019061828c919061a041565b618296919061b663565b836040518363ffffffff1660e01b81526004016182b492919061b474565b602060405180830381600087803b1580156182ce57600080fd5b505af11580156182e2573d6000803e3d6000fd5b505050506040513d601f19601f820116820180604052508101906183069190619ee0565b6183225760405162461bcd60e51b8152600401610f199061ad2b565b6001856006016000828254618337919061b637565b90915550618361945050505050565b600181600701600082825461835b919061b637565b90915550505b618479565b6001600160a01b0384166000908152601560205260408120600190810180549192909161839490849061b637565b909155505060295460408051634fda48fb60e11b815290516001600160a01b0390921691639fb491f691600480820192602092909190829003018186803b1580156183de57600080fd5b505afa1580156183f2573d6000803e3d6000fd5b505050506040513d601f19601f82011682018060405250810190618416919061a041565b6001600160a01b038516600090815260156020526040902060010154106184555760038101805460ff1916905561844c84616e31565b61845584616cd9565b600381015460ff16156184745761846b84616e31565b618474846174be565b600081555b5050505080806184889061b700565b915050617cf0565b50600088815260146020908152604090912060048101805461ff00191661010017905584516184c792600990920191860190619b01565b506000888152601460205260409020600a018290558015618be15760008881526014602052604081208054600190910154909190618505908361b637565b9050815b818110156189ae576000818152601360209081526040808320600101546029548251632a49798160e11b815292516001600160a01b0392831695949190921692635492f3029260048083019392829003018186803b15801561856a57600080fd5b505afa15801561857e573d6000803e3d6000fd5b505050506040513d601f19601f820116820180604052508101906185a29190619cef565b90506000602960009054906101000a90046001600160a01b03166001600160a01b0316630855d1516040518163ffffffff1660e01b815260040160206040518083038186803b1580156185f457600080fd5b505afa158015618608573d6000803e3d6000fd5b505050506040513d601f19601f8201168201806040525081019061862c9190619cef565b90506000602960009054906101000a90046001600160a01b03166001600160a01b03166304e76c8f6040518163ffffffff1660e01b815260040160206040518083038186803b15801561867e57600080fd5b505afa158015618692573d6000803e3d6000fd5b505050506040513d601f19601f820116820180604052508101906186b69190619cef565b90506000836001600160a01b03166311815086866040518263ffffffff1660e01b81526004016186e6919061a2ae565b60206040518083038186803b1580156186fe57600080fd5b505afa158015618712573d6000803e3d6000fd5b505050506040513d601f19601f820116820180604052508101906187369190619cef565b9050891561899657826001600160a01b0316631b6d990a8b602960009054906101000a90046001600160a01b03166001600160a01b031663abb10b9b6040518163ffffffff1660e01b815260040160206040518083038186803b15801561879c57600080fd5b505afa1580156187b0573d6000803e3d6000fd5b505050506040513d601f19601f820116820180604052508101906187d4919061a041565b6187de919061b663565b836040518363ffffffff1660e01b81526004016187fc92919061b48b565b602060405180830381600087803b15801561881657600080fd5b505af115801561882a573d6000803e3d6000fd5b505050506040513d601f19601f8201168201806040525081019061884e9190619ee0565b61886a5760405162461bcd60e51b8152600401610f199061aae0565b816001600160a01b031663e0ca50948b602960009054906101000a90046001600160a01b03166001600160a01b03166330c0bb796040518163ffffffff1660e01b815260040160206040518083038186803b1580156188c857600080fd5b505afa1580156188dc573d6000803e3d6000fd5b505050506040513d601f19601f82011682018060405250810190618900919061a041565b61890a919061b663565b836040518363ffffffff1660e01b815260040161892892919061b474565b602060405180830381600087803b15801561894257600080fd5b505af1158015618956573d6000803e3d6000fd5b505050506040513d601f19601f8201168201806040525081019061897a9190619ee0565b6189965760405162461bcd60e51b8152600401610f199061ac7e565b505050505080806189a69061b700565b915050618509565b5060008a8152601460205260408120600b01805460ff1916600190811790915560248054919290916189e190849061b637565b909155505060295460408051637b39b17f60e11b815290516000926001600160a01b03169163f67362fe916004808301926020929190829003018186803b158015618a2b57600080fd5b505afa158015618a3f573d6000803e3d6000fd5b505050506040513d601f19601f82011682018060405250810190618a639190619cef565b6001600160a01b03161415618a8a5760405162461bcd60e51b8152600401610f199061a72e565b60295460408051637b39b17f60e11b815290516000926001600160a01b03169163f67362fe916004808301926020929190829003018186803b158015618acf57600080fd5b505afa158015618ae3573d6000803e3d6000fd5b505050506040513d601f19601f82011682018060405250810190618b079190619cef565b6040516348257dc960e01b81529091506001600160a01b038216906348257dc990618b36908e9060040161a255565b600060405180830381600087803b158015618b5057600080fd5b505af1925050508015618b61575060015b618bc0573d808015618b8f576040519150601f19603f3d011682016040523d82523d6000602084013e618b94565b606091505b5060008051602061b78783398151915281604051618bb2919061a340565b60405180910390a150618bd9565b600160236000828254618bd3919061b637565b90915550505b505050618c16565b6000888152601460205260408120600b01805460ff191660021790556025805460019290618c1090849061b637565b90915550505b600160236000828254618c29919061b637565b90915550506000888152601460205260408120600201546026805491929091618c5390849061b637565b90915550506000888152601460205260408120600301546027805491929091618c7d90849061b637565b92505081905550877f98bfbdd7dba62d9141cf4f07139f8e53c0d00c0b44cad36d148730680b1621618483604051618cb692919061a3c5565b60405180910390a25050505050505050565b805160609060005b81811015618d165780848281518110618cf957634e487b7160e01b600052603260045260246000fd5b602090810291909101015280618d0e8161b700565b915050618cd0565b509192915050565b60606000825111618d415760405162461bcd60e51b8152600401610f199061a77a565b81518060005b81811015618ebc57600083618d5a61439b565b878481518110618d7a57634e487b7160e01b600052603260045260246000fd5b6020026020010151604051602001618d9392919061a2a0565b6040516020818303038152906040528051906020012060001c618db6919061b71b565b618dc190600161b637565b9050600086618dd160018461b682565b81518110618def57634e487b7160e01b600052603260045260246000fd5b6020026020010151905086600186618e07919061b682565b81518110618e2557634e487b7160e01b600052603260045260246000fd5b602002602001015187600184618e3b919061b682565b81518110618e5957634e487b7160e01b600052603260045260246000fd5b60209081029190910101528087618e7160018861b682565b81518110618e8f57634e487b7160e01b600052603260045260246000fd5b6020908102919091010152618ea560018661b682565b945050508080618eb49061b700565b915050618d47565b50929392505050565b6000601f54602154618ed7919061b682565b9050602960009054906101000a90046001600160a01b03166001600160a01b031663e3115d3c6040518163ffffffff1660e01b815260040160206040518083038186803b158015618f2757600080fd5b505afa158015618f3b573d6000803e3d6000fd5b505050506040513d601f19601f82011682018060405250810190618f5f919061a041565b8111156118745760005b602954604080516307d630cb60e41b81529051618fed926001600160a01b031691637d630cb0916004808301926020929190829003018186803b158015618faf57600080fd5b505afa158015618fc3573d6000803e3d6000fd5b505050506040513d601f19601f82011682018060405250810190618fe7919061a041565b836198c5565b811015612ccf57601f546000908152601460205260408120805460019091015490919061901a908361b637565b9050815b818110156190415761902f81612376565b806190398161b700565b91505061901e565b5061904d601f54612cd3565b601f546040517f72c2fcc891fe835b86fc8bb9abdc52adf52499c52289b3c49e1461eabea2717590600090a2505080806190869061b700565b915050618f69565b60006110e3828461b637565b60005b601c54811015611874576000601c82815481106190ca57634e487b7160e01b600052603260045260246000fd5b60009182526020808320909101546001600160a01b0316808352601590915260409091208054919250906191625760038101805461ffff1916905561910e826198d4565b61911782616cd9565b61912082616e31565b816001600160a01b03167f9dadcedba048e92b943ea1c5861cee1df63a566d7f795869c004780c1c698e2b42604051619159919061a255565b60405180910390a25b5050808061916f9061b700565b91505061909d565b60225460009081526014602052604090206004015460ff166191ab5760405162461bcd60e51b8152600401610f199061ae32565b60225460009081526014602052604090206004015462010000900460ff16156191e65760405162461bcd60e51b8152600401610f199061ab7b565b600061930a61927f601a80549050602960009054906101000a90046001600160a01b03166001600160a01b031663dfeceed76040518163ffffffff1660e01b815260040160206040518083038186803b15801561924257600080fd5b505afa158015619256573d6000803e3d6000fd5b505050506040513d601f19601f8201168201806040525081019061927a919061a041565b6198c5565b602960009054906101000a90046001600160a01b03166001600160a01b031663bd40ef4c6040518163ffffffff1660e01b815260040160206040518083038186803b1580156192cd57600080fd5b505afa1580156192e1573d6000803e3d6000fd5b505050506040513d601f19601f82011682018060405250810190619305919061a041565b6198ae565b601a546029546040805163189460df60e31b8152905193945091926001600160a01b039091169163c4a306f8916004808301926020929190829003018186803b15801561935657600080fd5b505afa15801561936a573d6000803e3d6000fd5b505050506040513d601f19601f8201168201806040525081019061938e919061a041565b60015461939b904261b682565b10612ccf57602280546000908152601460209081526040808320600301869055925482528282206002018590556029548351631b4930b560e11b81529351929361944a936001600160a01b0390921692633692616a92600480840193829003018186803b15801561940b57600080fd5b505afa15801561941f573d6000803e3d6000fd5b505050506040513d601f19601f82011682018060405250810190619443919061a041565b429061908e565b905060006194de602960009054906101000a90046001600160a01b03166001600160a01b03166372e540306040518163ffffffff1660e01b815260040160206040518083038186803b15801561949f57600080fd5b505afa1580156194b3573d6000803e3d6000fd5b505050506040513d601f19601f820116820180604052508101906194d7919061a041565b839061908e565b60228054600090815260146020526040808220600501869055825482528082206006018490559154815220600401805462ff000019166201000017905590506001841080159061952f575060018310155b61954b5760405162461bcd60e51b8152600401610f199061a6a1565b6000619557858561487f565b9050600081516001600160401b0381111561958257634e487b7160e01b600052604160045260246000fd5b6040519080825280602002602001820160405280156195ab578160200160208202803683370190505b50905060005b825181101561966a57601a8382815181106195dc57634e487b7160e01b600052603260045260246000fd5b60200260200101518154811061960257634e487b7160e01b600052603260045260246000fd5b9060005260206000200160009054906101000a90046001600160a01b031682828151811061964057634e487b7160e01b600052603260045260246000fd5b6001600160a01b0390921660209283029190910190910152806196628161b700565b9150506195b1565b5060005b825181101561978a57600082828151811061969957634e487b7160e01b600052603260045260246000fd5b60200260200101519050600060156000836001600160a01b03166001600160a01b0316815260200190815260200160002090506196d582616cd9565b6196de82619a04565b602280546000908152601960209081526040822080546001808201835591845291832090910180546001600160a01b0319166001600160a01b0387161790559154835560058301805490919061973590849061b637565b90915550506022546040517fe4ee2dfabe57cee15e3f558890b20455f54c1fa0718e5276faad70a6500e6b8c9061976d90859061a2ae565b60405180910390a2505080806197829061b700565b91505061966e565b5042600190815560225461979d9161908e565b6022556197a861439b565b601d819055506001602360008282546197c1919061b637565b9091555050505050505050565b600080805b601a54811015616cd257836001600160a01b0316601a828154811061980857634e487b7160e01b600052603260045260246000fd5b6000918252602090912001546001600160a01b0316141561982c5760019150616cd2565b806198368161b700565b9150506197d3565b600080805b601b54811015616cd257836001600160a01b0316601b828154811061987857634e487b7160e01b600052603260045260246000fd5b6000918252602090912001546001600160a01b0316141561989c5760019150616cd2565b806198a68161b700565b915050619843565b6000818310156198be57816110e3565b5090919050565b60008183106198be57816110e3565b60008060005b601c5481101561994857836001600160a01b0316601c828154811061990f57634e487b7160e01b600052603260045260246000fd5b6000918252602090912001546001600160a01b031614156199365760019150809250619948565b806199408161b700565b9150506198da565b508015616e2c57601c805461995f9060019061b682565b8154811061997d57634e487b7160e01b600052603260045260246000fd5b600091825260209091200154601c80546001600160a01b0390921691849081106199b757634e487b7160e01b600052603260045260246000fd5b9060005260206000200160006101000a8154816001600160a01b0302191690836001600160a01b03160217905550601c805480616e0957634e487b7160e01b600052603160045260246000fd5b619a0d8161983e565b61187457601b80546001810182556000919091527f3ad8aa4f87544323a9d1e5dd902f40c356527a7955687113db5f9a85ad579dc10180546001600160a01b0383166001600160a01b031990911617905550565b508054619a6d9061b6c5565b6000825580601f10619a7f5750611874565b601f0160209004906000526020600020908101906118749190619c13565b6040518060e001604052806060815260200160006001600160a01b031681526020016000815260200160008152602001606081526020016060815260200160006003811115619afc57634e487b7160e01b600052602160045260246000fd5b905290565b828054619b0d9061b6c5565b90600052602060002090601f016020900481019282619b2f5760008555619b75565b82601f10619b4857805160ff1916838001178555619b75565b82800160010185558215619b75579182015b82811115619b75578251825591602001919060010190619b5a565b50619b81929150619c13565b5090565b604051806101c001604052806000815260200160008152602001600081526020016000815260200160001515815260200160001515815260200160001515815260200160008152602001600081526020016000815260200160008152602001606081526020016000815260200160006003811115619afc57634e487b7160e01b600052602160045260246000fd5b5b80821115619b815760008155600101619c14565b60008083601f840112619c39578182fd5b5081356001600160401b03811115619c4f578182fd5b602083019150836020808302850101111561236f57600080fd5b600082601f830112619c79578081fd5b81356001600160401b03811115619c9257619c9261b75b565b619ca5601f8201601f191660200161b5eb565b818152846020838601011115619cb9578283fd5b816020850160208301379081016020019190915292915050565b600060208284031215619ce4578081fd5b8135611a0d8161b771565b600060208284031215619d00578081fd5b8151611a0d8161b771565b60008060408385031215619d1d578081fd5b8235619d288161b771565b946020939093013593505050565b600080600060608486031215619d4a578081fd5b8335619d558161b771565b95602085013595506040909401359392505050565b600080600080600060808688031215619d81578081fd5b85356001600160401b0380821115619d97578283fd5b818801915088601f830112619daa578283fd5b81356020619dbf619dba8361b614565b61b5eb565b82815281810190858301875b85811015619df457619de28f8684358b0101619c69565b84529284019290840190600101619dcb565b50909a50505089013592505080821115619e0c578283fd5b619e1889838a01619c28565b9096509450604088013593506060880135915080821115619e37578283fd5b50619e4488828901619c69565b9150509295509295909350565b60006020808385031215619e63578182fd5b82356001600160401b03811115619e78578283fd5b8301601f81018513619e88578283fd5b8035619e96619dba8261b614565b8181528381019083850185840285018601891015619eb2578687fd5b8694505b83851015619ed4578035835260019490940193918501918501619eb6565b50979650505050505050565b600060208284031215619ef1578081fd5b81518015158114611a0d578182fd5b60008060408385031215619f12578182fd5b8235915060208301356001600160401b03811115619f2e578182fd5b619f3a85828601619c69565b9150509250929050565b600080600060608486031215619f58578283fd5b8335925060208401356001600160401b03811115619f74578283fd5b619f8086828701619c69565b925050604084013590509250925092565b60008060408385031215619fa3578182fd5b82356001600160401b0380821115619fb9578384fd5b619fc586838701619c69565b93506020850135915080821115619fda578283fd5b50619f3a85828601619c69565b60008060408385031215619ff9578182fd5b82356001600160401b0381111561a00e578283fd5b61a01a85828601619c69565b95602094909401359450505050565b60006020828403121561a03a578081fd5b5035919050565b600060208284031215611b3b578081fd5b6000806040838503121561a064578182fd5b82359150602083013561a0768161b771565b809150509250929050565b600080600080600060a0868803121561a098578283fd5b8535945060208601359350604086013592506060860135915060808601356001600160401b0381111561a0c9578182fd5b619e4488828901619c69565b6000806000806080858703121561a0ea578182fd5b8435935060208501356001600160401b0381111561a106578283fd5b61a11287828801619c69565b949794965050505060408301359260600135919050565b6000806040838503121561a13b578182fd5b50508035926020909101359150565b6000806000806080858703121561a15f578182fd5b8435935060208501359250604085013561a1788161b771565b9396929550929360600135925050565b6000815180845260208085019450808401835b8381101561a1b75781518752958201959082019060010161a19b565b509495945050505050565b15159052565b6000815180845261a1e081602086016020860161b699565b601f01601f19169290920160200192915050565b6004811061a21257634e487b7160e01b600052602160045260246000fd5b9052565b60609190911b6bffffffffffffffffffffffff1916815260140190565b60609290921b6bffffffffffffffffffffffff19168252601482015260340190565b90815260200190565b6000838252825161a27681602085016020870161b699565b919091016020019392505050565b6000825161a29681846020870161b699565b9190910192915050565b918252602082015260400190565b6001600160a01b0391909116815260200190565b6000602080830181845280855180835260408601915060408482028701019250838701855b8281101561a31557603f1988860301845261a30385835161a1c8565b9450928501929085019060010161a2e7565b5092979650505050505050565b6000602082526110e3602083018461a188565b901515815260200190565b6000602082526110e3602083018461a1c8565b600060e0825261a36660e083018a61a1c8565b6001600160a01b03891660208401526040830188905260608301879052828103608084015261a395818761a1c8565b905082810360a084015261a3a9818661a1c8565b91505061a3b960c083018461a1f4565b98975050505050505050565b60006040825261a3d8604083018561a1c8565b905082151560208301529392505050565b60006040825261a3fc604083018561a1c8565b828103602084015261a40e818561a1c8565b95945050505050565b60006040825261a42a604083018561a1c8565b90508260208301529392505050565b60208082526031908201527f676976656e204461746142617463682073686f756c6420626520415050524f5660408201527011510b08185b99081a5d081a5cc81b9bdd607a1b606082015260800190565b60208082526025908201527f72656365697665722072656a6563746564205f7265747269657665534675656c6040820152640818d85b1b60da1b606082015260800190565b6020808252602f908201527f636f6d6d697420706572696f64206e6565647320746f206265206f70656e206660408201526e1bdc881d1a1a5cc818985d18da1259608a1b606082015260800190565b60208082526052908201527f4e6f74207468652073616d6520766f7465207468616e20636f6d6d697465642c60408201527f20696d706f737369626c6520746f206d61746368207769746820676976656e206060820152715f73616c742026205f636c656172566f746560701b608082015260a00190565b60208082526056908201527f4e6f74207468652073616d652068617368207468616e20636f6d6d697465642c60408201527f20696d706f737369626c6520746f206d61746368207769746820676976656e206060820152750bee6c2d8e8404c40bec6d8cac2e492a08ca690c2e6d60531b608082015260a00190565b60208082526026908201527f4f776e61626c653a206e6577206f776e657220697320746865207a65726f206160408201526564647265737360d01b606082015260800190565b60208082526029908201527f6b206f72204e20617265206e6f74204f4b20647572696e672072616e646f6d2060408201526839b2b632b1ba34b7b760b91b606082015260800190565b6020808252602a908201527f4661696c20647572696e6720616c6c6f636174696f6e3a206e6f7420656e6f75604082015269676820776f726b65727360b01b606082015260800190565b60208082526023908201527f5265776172644d616e61676572206973206e756c6c20696e20506172616d657460408201526265727360e81b606082015260800190565b6020808252602c908201527f436f6d706c69616e636553797374656d206e756c6c20696e20506172616d657460408201526b195c9cc810dbdb9d1c9858dd60a21b606082015260800190565b60208082526013908201527205f6d7941727261792e6c656e677468203e203606c1b604082015260600190565b60208082526038908201527f55736572206e6565647320746f20626520616c6c6f636174656420746f20746860408201527f697320626174636820746f20636f6d6d6974206f6e2069740000000000000000606082015260800190565b6020808252601d908201527f734675656c3a206e756c6c2041646472657373204e6f742056616c6964000000604082015260600190565b6020808252818101527f576f726b657220697320616c7265616479207265676973746572656420283129604082015260600190565b60208082526025908201527f636f756c64206e6f74207265776172642052455020696e2056616c69646174656040820152642c20312e6160d81b606082015260800190565b6020808252603f908201527f436f756c64206e6f74207265717565737420656e6f75676820616c6c6f63617460408201527f6564207374616b652c2072657175657374416c6c6f63617465645374616b6500606082015260800190565b6020808252602f908201527f5573657220686173206e6f7420636f6d6d69746564206265666f72652c20746860408201526e1d5cc818d85b89dd081c995d99585b608a1b606082015260800190565b6020808252602a908201527f53706f7474696e67206973206e6f742063757272656e746c7920656e61626c656040820152693210313c9027bbb732b960b11b606082015260800190565b6020808252601c908201527f496e70757420626f756e6461726965732061726520696e76616c696400000000604082015260600190565b60208082526036908201527f476c6f62616c206c696d69743a206578636565646564206d61782064617461206040820152753832b9103437bab916103932ba393c903630ba32b91760511b606082015260800190565b60208082526039908201527f646c6c4d61703a20646f6573206e6f7420636f696e7461696e205f446174614260408201527f61746368496420666f7220746865206d73672073656e64657200000000000000606082015260800190565b6020808252602b908201527f75736572206d75737420686176652072657665616c656420696e20746869732060408201526a0ced2eccadc4084c2e8c6d60ab1b606082015260800190565b6020808252602e908201527f636f756c64206e6f74207265776172642052455020696e2056616c696461746560408201526d4461746142617463682c20322e6160901b606082015260800190565b60208082526005908201526404e203e20360dc1b604082015260600190565b6020808252601490820152733737ba1030903b30b634b2103837b9b4ba34b7b760611b604082015260600190565b6020808252603b908201527f43616e277420616c6c6f6361746520776f726b2c207468652063757272656e7460408201527f20626174636820697320616c726561647920616c6c6f63617465640000000000606082015260800190565b6020808252602c908201527f576f726b6572206973206e6f74207265676973746572656420736f2063616e2760408201526b3a103ab73932b3b4b9ba32b960a11b606082015260800190565b6020808252600b908201526a04e5f72616e6765203e20360ac1b604082015260600190565b6020808252818101527f4f776e61626c653a2063616c6c6572206973206e6f7420746865206f776e6572604082015260600190565b60208082526030908201527f636f756c64206e6f742072657761726420746f6b656e20696e2056616c69646160408201526f3a32a230ba30a130ba31b4161019173160811b606082015260800190565b6020808252603a908201527f5f446174614261746368496420686173206e6f7420656e6465642c206f72206e60408201527f6f7420657665727920766f74657273206861766520766f746564000000000000606082015260800190565b60208082526027908201527f636f756c64206e6f742072657761726420746f6b656e20696e2056616c6964616040820152663a32961018973160c91b606082015260800190565b6020808252818101527f576f726b657220697320616c7265616479207265676973746572656420283229604082015260600190565b60208082526022908201527f5374616b654d616e61676572206973206e756c6c20696e20506172616d657465604082015261727360f01b606082015260800190565b60208082526029908201527f6765744e756d50617373696e67546f6b656e733a20686173686573206d75737460408201526808189948195c5d585b60ba1b606082015260800190565b60208082526036908201527f43616e277420616c6c6f6361746520776f726b2c207468652063757272656e74604082015275206261746368206973206e6f7420636f6d706c65746560501b606082015260800190565b60208082526026908201527f52657665616c20706572696f64206e6f74206f70656e20666f7220746869732060408201526511185d18525160d21b606082015260800190565b60208082526027908201527f617661696c61626c65546f6b656e732073686f756c64206265203e3d205f6e756040820152666d546f6b656e7360c81b606082015260800190565b6020808252818101527f5265704d616e61676572206973206e756c6c20696e20506172616d6574657273604082015260600190565b60208082526017908201527f5f4461746142617463684964206d757374206578697374000000000000000000604082015260600190565b60208082526021908201527f5f446174614261746368496420697320616c72656164792076616c69646174656040820152601960fa1b606082015260800190565b6020808252602d908201527f53706f7474696e673a20696e70757420617272617973206d757374206265206f60408201526c0cc40e6c2daca40d8cadccee8d609b1b606082015260800190565b60208082526029908201527f557365722068617320616c726561647920636f6d6d6974656420746f207468696040820152681cc818985d18da125960ba1b606082015260800190565b60208082526022908201527f4d6178696d756d207265676973746572656420776f726b65727320616c726561604082015261647960f01b606082015260800190565b6020808252606c908201527f5573657220686173206e6f7420766f746564206d616e792074696d657320696e60408201527f206120726f7720616e64206e6565647320746f2077616974204e4f564f54455f60608201527f524547495354524154494f4e5f574149545f4455524154494f4e20746f20726560808201526b33b4b9ba32b91030b3b0b4b760a11b60a082015260c00190565b6020808252602a908201527f5f446174614261746368496420636865636b696e6720766f7465206d757374206040820152691a185d9948195b99195960b21b606082015260800190565b6020808252603b908201527f436f756c64206e6f74207769746864726177566f74696e67526967687473207460408201527f68726f7567682050726f78795374616b654465616c6c6f636174650000000000606082015260800190565b60208082526024908201527f416464726573734d616e61676572206973206e756c6c20696e20506172616d656040820152637465727360e01b606082015260800190565b60208082526034908201527f55736572206c696d69743a206578636565646564206d6178206461746120706560408201527339103437bab916103932ba393c903630ba32b91760611b606082015260800190565b6020808252600f908201526e11185d18481b5d5cdd08195e1a5cdd608a1b604082015260600190565b6020808252602c908201527f557365722068617320616c72656164792072657665616c65642c20746875732060408201526b18d85b89dd081c995d99585b60a21b606082015260800190565b60006020825282516020830152602083015160408301526040830151606083015260608301516080830152608083015161b32360a084018261a1c2565b5060a083015161b33660c084018261a1c2565b5060c083015161b34960e084018261a1c2565b5060e0830151610100838101919091528301516101208084019190915283015161014080840191909152830151610160808401919091528301516101c061018080850182905261b39d6101e086018461a1c8565b908601516101a0868101919091528601519092506156678286018261a1f4565b93845260208401929092526040830152606082015260800190565b600060208252825160e0602084015261b3f561010084018261a1c8565b905060018060a01b03602085015116604084015260408401516060840152606084015160808401526080840151601f19808584030160a086015261b439838361a1c8565b925060a08601519150808584030160c08601525061b457828261a1c8565b91505060c084015161b46c60e085018261a1f4565b509392505050565b9182526001600160a01b0316602082015260400190565b9182526001600160a01b031660208201526000604082015260600190565b600083825260406020830152615e01604083018461a188565b9283526020830191909152604082015260600190565b988952602089019790975260408801959095529215156060870152901515608086015260a085015260c084015260e08301526101008201526101200190565b60008f82528e60208301528d60408301528c60608301528b151560808301528a151560a083015261b54b60c083018b61a1c2565b8860e08301528761010083015286610120830152856101408301526101c061016083015261b57d6101c083018661a1c8565b90508361018083015261b5946101a083018461a1f4565b9f9e505050505050505050505050505050565b6000808335601e1984360301811261b5bd578283fd5b8301803591506001600160401b0382111561b5d6578283fd5b60200191503681900382131561236f57600080fd5b6040518181016001600160401b038111828210171561b60c5761b60c61b75b565b604052919050565b60006001600160401b0382111561b62d5761b62d61b75b565b5060209081020190565b6000821982111561b64a5761b64a61b72f565b500190565b60008261b65e5761b65e61b745565b500490565b600081600019048311821515161561b67d5761b67d61b72f565b500290565b60008282101561b6945761b69461b72f565b500390565b60005b8381101561b6b457818101518382015260200161b69c565b838111156125e85750506000910152565b60028104600182168061b6d957607f821691505b6020821081141561b6fa57634e487b7160e01b600052602260045260246000fd5b50919050565b600060001982141561b7145761b71461b72f565b5060010190565b60008261b72a5761b72a61b745565b500690565b634e487b7160e01b600052601160045260246000fd5b634e487b7160e01b600052601260045260246000fd5b634e487b7160e01b600052604160045260246000fd5b6001600160a01b038116811461187457600080fdfe4b87bbd93ba65ede1e2efeca735d9f7a6720bf7d6db0a8355b17dba5b64e5783a264697066735822122099623616790df542d1787b0e681ab102ba5247f3a1d624074e9843c85abd723264736f6c63430008000033",
  "linkReferences": {
    "contracts/worksystems/DataSpotting.sol": {
      "DLL": [
        {
          "length": 20,
          "start": 6720
        },
        {
          "length": 20,
          "start": 6892
        },
        {
          "length": 20,
          "start": 7454
        },
        {
          "length": 20,
          "start": 13640
        },
        {
          "length": 20,
          "start": 13802
        },
        {
          "length": 20,
          "start": 13997
        },
        {
          "length": 20,
          "start": 16086
        },
        {
          "length": 20,
          "start": 16266
        },
        {
          "length": 20,
          "start": 32603
        }
      ]
    }
  },
  "deployedLinkReferences": {
    "contracts/worksystems/DataSpotting.sol": {
      "DLL": [
        {
          "length": 20,
          "start": 6365
        },
        {
          "length": 20,
          "start": 6537
        },
        {
          "length": 20,
          "start": 7099
        },
        {
          "length": 20,
          "start": 13285
        },
        {
          "length": 20,
          "start": 13447
        },
        {
          "length": 20,
          "start": 13642
        },
        {
          "length": 20,
          "start": 15731
        },
        {
          "length": 20,
          "start": 15911
        },
        {
          "length": 20,
          "start": 32248
        }
      ]
    }
  }
}