{
  "_format": "hh-sol-artifact-1",
  "contractName": "Statistics",
  "sourceName": "contracts/worksystems/Statistics.sol",
  "abi": [
    {
      "inputs": [
        {
          "internalType": "uint256",
          "name": "BaseTransactionCount_",
          "type": "uint256"
        }
      ],
      "stateMutability": "nonpayable",
      "type": "constructor"
    },
    {
      "anonymous": false,
      "inputs": [
        {
          "indexed": true,
          "internalType": "address",
          "name": "account",
          "type": "address"
        },
        {
          "indexed": false,
          "internalType": "bool",
          "name": "isWhitelisted",
          "type": "bool"
        }
      ],
      "name": "Monitored",
      "type": "event"
    },
    {
      "anonymous": false,
      "inputs": [
        {
          "indexed": true,
          "internalType": "address",
          "name": "previousOwner",
          "type": "address"
        },
        {
          "indexed": true,
          "internalType": "address",
          "name": "newOwner",
          "type": "address"
        }
      ],
      "name": "OwnershipTransferred",
      "type": "event"
    },
    {
      "anonymous": false,
      "inputs": [
        {
          "indexed": true,
          "internalType": "address",
          "name": "account",
          "type": "address"
        },
        {
          "indexed": false,
          "internalType": "bool",
          "name": "isWhitelisted",
          "type": "bool"
        }
      ],
      "name": "UnMonitored",
      "type": "event"
    },
    {
      "inputs": [],
      "name": "BaseTransactionCount",
      "outputs": [
        {
          "internalType": "uint256",
          "name": "",
          "type": "uint256"
        }
      ],
      "stateMutability": "view",
      "type": "function"
    },
    {
      "inputs": [
        {
          "internalType": "uint256",
          "name": "",
          "type": "uint256"
        }
      ],
      "name": "MonitoredSystemAddress",
      "outputs": [
        {
          "internalType": "address",
          "name": "",
          "type": "address"
        }
      ],
      "stateMutability": "view",
      "type": "function"
    },
    {
      "inputs": [],
      "name": "TotalTxCount",
      "outputs": [
        {
          "internalType": "uint256",
          "name": "",
          "type": "uint256"
        }
      ],
      "stateMutability": "view",
      "type": "function"
    },
    {
      "inputs": [
        {
          "internalType": "address",
          "name": "_address",
          "type": "address"
        }
      ],
      "name": "addAddress",
      "outputs": [],
      "stateMutability": "nonpayable",
      "type": "function"
    },
    {
      "inputs": [
        {
          "internalType": "address",
          "name": "_address",
          "type": "address"
        }
      ],
      "name": "isMonitoredAddress",
      "outputs": [
        {
          "internalType": "bool",
          "name": "",
          "type": "bool"
        }
      ],
      "stateMutability": "view",
      "type": "function"
    },
    {
      "inputs": [],
      "name": "owner",
      "outputs": [
        {
          "internalType": "address",
          "name": "",
          "type": "address"
        }
      ],
      "stateMutability": "view",
      "type": "function"
    },
    {
      "inputs": [
        {
          "internalType": "address",
          "name": "_address",
          "type": "address"
        }
      ],
      "name": "removeAddress",
      "outputs": [],
      "stateMutability": "nonpayable",
      "type": "function"
    },
    {
      "inputs": [],
      "name": "renounceOwnership",
      "outputs": [],
      "stateMutability": "nonpayable",
      "type": "function"
    },
    {
      "inputs": [
        {
          "internalType": "address",
          "name": "newOwner",
          "type": "address"
        }
      ],
      "name": "transferOwnership",
      "outputs": [],
      "stateMutability": "nonpayable",
      "type": "function"
    }
  ],
  "bytecode": "0x6080604052600060015534801561001557600080fd5b5060405161091c38038061091c83398101604081905261003491610095565b61003d33610045565b6001556100ae565b600080546001600160a01b038381166001600160a01b0319831681178455604051919092169283917f8be0079c531659141344cd1fd0a4f28419497f9722a3daafe3b4186f6b6457e09190a35050565b6000602082840312156100a757600080fd5b5051919050565b61085f806100bd6000396000f3fe608060405234801561001057600080fd5b50600436106100935760003560e01c80638da5cb5b116100665780638da5cb5b146100e357806395188788146101085780639e4f8c4b14610144578063c1e6810c14610157578063f2fde38b1461016057600080fd5b8063013f8d241461009857806338eada1c146100b35780634ba79dfe146100c8578063715018a6146100db575b600080fd5b6100a0610173565b6040519081526020015b60405180910390f35b6100c66100c1366004610706565b610241565b005b6100c66100d6366004610706565b6103bb565b6100c66105bb565b6000546001600160a01b03165b6040516001600160a01b0390911681526020016100aa565b610134610116366004610706565b6001600160a01b031660009081526002602052604090205460ff1690565b60405190151581526020016100aa565b6100f0610152366004610736565b6105f1565b6100a060015481565b6100c661016e366004610706565b61061b565b600080805b60035481101561023b576000600382815481106101975761019761074f565b600091825260209182902001546040805163f5ae7c7d60e01b815290516001600160a01b039092169350839263f5ae7c7d92600480840193829003018186803b1580156101e357600080fd5b505afa1580156101f7573d6000803e3d6000fd5b505050506040513d601f19601f8201168201806040525081019061021b9190610765565b6102259084610794565b9250508080610233906107ac565b915050610178565b50919050565b6000546001600160a01b031633146102745760405162461bcd60e51b815260040161026b906107c7565b60405180910390fd5b6001600160a01b03811660009081526002602052604090205460ff161515600114156102f25760405162461bcd60e51b815260206004820152602760248201527f41646472657373206d757374206e6f742062652077686974656c697374656420604482015266616c726561647960c81b606482015260840161026b565b6001600160a01b0381166000818152600260205260408120805460ff19166001908117909155600380548083018255928190527fc2575a0e9e593c00f959f8c92f12db2869c3395a3b0502d05e2516446f71f85b90920180546001600160a01b0319169093179092555461036691906107fc565b6001600160a01b03821660008181526004602090815260409182902093909355516001815290917fc965bf1d4af49eca553da41f807b2aa90eee4c30fcb188b20c2f7e1925e066ad910160405180910390a250565b6000546001600160a01b031633146103e55760405162461bcd60e51b815260040161026b906107c7565b6001600160a01b03811660009081526002602052604090205460ff166104595760405162461bcd60e51b815260206004820152602360248201527f41646472657373206d7573742062652077686974656c697374656420616c726560448201526261647960e81b606482015260840161026b565b6001600160a01b0381166000908152600260209081526040808320805460ff19169055600490915290208054633b9ac9ff9091556003805461049d906001906107fc565b815481106104ad576104ad61074f565b600091825260209091200154600380546001600160a01b0390921691839081106104d9576104d961074f565b9060005260206000200160006101000a8154816001600160a01b0302191690836001600160a01b0316021790555080600460006003848154811061051f5761051f61074f565b60009182526020808320909101546001600160a01b03168352820192909252604001902055600380548061055557610555610813565b60008281526020808220830160001990810180546001600160a01b03191690559092019092556040519182526001600160a01b038416917f8b45e87e67a8255bbbdf97b0b8e4a50fe295cd0bcca586c1faf71331dffd2dfe910160405180910390a25050565b6000546001600160a01b031633146105e55760405162461bcd60e51b815260040161026b906107c7565b6105ef60006106b6565b565b6003818154811061060157600080fd5b6000918252602090912001546001600160a01b0316905081565b6000546001600160a01b031633146106455760405162461bcd60e51b815260040161026b906107c7565b6001600160a01b0381166106aa5760405162461bcd60e51b815260206004820152602660248201527f4f776e61626c653a206e6577206f776e657220697320746865207a65726f206160448201526564647265737360d01b606482015260840161026b565b6106b3816106b6565b50565b600080546001600160a01b038381166001600160a01b0319831681178455604051919092169283917f8be0079c531659141344cd1fd0a4f28419497f9722a3daafe3b4186f6b6457e09190a35050565b60006020828403121561071857600080fd5b81356001600160a01b038116811461072f57600080fd5b9392505050565b60006020828403121561074857600080fd5b5035919050565b634e487b7160e01b600052603260045260246000fd5b60006020828403121561077757600080fd5b5051919050565b634e487b7160e01b600052601160045260246000fd5b600082198211156107a7576107a761077e565b500190565b60006000198214156107c0576107c061077e565b5060010190565b6020808252818101527f4f776e61626c653a2063616c6c6572206973206e6f7420746865206f776e6572604082015260600190565b60008282101561080e5761080e61077e565b500390565b634e487b7160e01b600052603160045260246000fdfea2646970667358221220d643c58d10813c002f2f0efa45d2a0ae2ab73bb0f4b55b71de3acc067c89165264736f6c63430008080033",
  "linkReferences": {},
  "deployedLinkReferences": {}
}