{
  "_format": "hh-sol-artifact-1",
  "contractName": "Statistics",
  "sourceName": "contracts/worksystems/Statistics.sol",
  "abi": [
    {
      "inputs": [
        {
          "internalType": "uint256",
          "name": "BaseTransactionCount_",
          "type": "uint256"
        }
      ],
      "stateMutability": "nonpayable",
      "type": "constructor"
    },
    {
      "anonymous": false,
      "inputs": [
        {
          "indexed": true,
          "internalType": "address",
          "name": "account",
          "type": "address"
        },
        {
          "indexed": false,
          "internalType": "bool",
          "name": "isWhitelisted",
          "type": "bool"
        }
      ],
      "name": "Monitored",
      "type": "event"
    },
    {
      "anonymous": false,
      "inputs": [
        {
          "indexed": true,
          "internalType": "address",
          "name": "previousOwner",
          "type": "address"
        },
        {
          "indexed": true,
          "internalType": "address",
          "name": "newOwner",
          "type": "address"
        }
      ],
      "name": "OwnershipTransferred",
      "type": "event"
    },
    {
      "anonymous": false,
      "inputs": [
        {
          "indexed": true,
          "internalType": "address",
          "name": "account",
          "type": "address"
        },
        {
          "indexed": false,
          "internalType": "bool",
          "name": "isWhitelisted",
          "type": "bool"
        }
      ],
      "name": "UnMonitored",
      "type": "event"
    },
    {
      "inputs": [],
      "name": "BaseTransactionCount",
      "outputs": [
        {
          "internalType": "uint256",
          "name": "",
          "type": "uint256"
        }
      ],
      "stateMutability": "view",
      "type": "function"
    },
    {
      "inputs": [
        {
          "internalType": "uint256",
          "name": "",
          "type": "uint256"
        }
      ],
      "name": "MonitoredSystemAddress",
      "outputs": [
        {
          "internalType": "address",
          "name": "",
          "type": "address"
        }
      ],
      "stateMutability": "view",
      "type": "function"
    },
    {
      "inputs": [],
      "name": "TotalActiveWorkerCount",
      "outputs": [
        {
          "internalType": "uint256",
          "name": "",
          "type": "uint256"
        }
      ],
      "stateMutability": "view",
      "type": "function"
    },
    {
      "inputs": [],
      "name": "TotalAvailableWorkerCount",
      "outputs": [
        {
          "internalType": "uint256",
          "name": "",
          "type": "uint256"
        }
      ],
      "stateMutability": "view",
      "type": "function"
    },
    {
      "inputs": [],
      "name": "TotalBusyWorkerCount",
      "outputs": [
        {
          "internalType": "uint256",
          "name": "",
          "type": "uint256"
        }
      ],
      "stateMutability": "view",
      "type": "function"
    },
    {
      "inputs": [],
      "name": "TotalTxCount",
      "outputs": [
        {
          "internalType": "uint256",
          "name": "",
          "type": "uint256"
        }
      ],
      "stateMutability": "view",
      "type": "function"
    },
    {
      "inputs": [
        {
          "internalType": "address",
          "name": "_address",
          "type": "address"
        }
      ],
      "name": "addAddress",
      "outputs": [],
      "stateMutability": "nonpayable",
      "type": "function"
    },
    {
      "inputs": [
        {
          "internalType": "address",
          "name": "_address",
          "type": "address"
        }
      ],
      "name": "isMonitoredAddress",
      "outputs": [
        {
          "internalType": "bool",
          "name": "",
          "type": "bool"
        }
      ],
      "stateMutability": "view",
      "type": "function"
    },
    {
      "inputs": [],
      "name": "owner",
      "outputs": [
        {
          "internalType": "address",
          "name": "",
          "type": "address"
        }
      ],
      "stateMutability": "view",
      "type": "function"
    },
    {
      "inputs": [
        {
          "internalType": "address",
          "name": "_address",
          "type": "address"
        }
      ],
      "name": "removeAddress",
      "outputs": [],
      "stateMutability": "nonpayable",
      "type": "function"
    },
    {
      "inputs": [],
      "name": "renounceOwnership",
      "outputs": [],
      "stateMutability": "nonpayable",
      "type": "function"
    },
    {
      "inputs": [
        {
          "internalType": "address",
          "name": "newOwner",
          "type": "address"
        }
      ],
      "name": "transferOwnership",
      "outputs": [],
      "stateMutability": "nonpayable",
      "type": "function"
    }
  ],
  "bytecode": "0x6080604052600060015534801561001557600080fd5b50604051610ca1380380610ca1833981016040819052610034916100a0565b61004461003f61004c565b610050565b6001556100b8565b3390565b600080546001600160a01b038381166001600160a01b0319831681178455604051919092169283917f8be0079c531659141344cd1fd0a4f28419497f9722a3daafe3b4186f6b6457e09190a35050565b6000602082840312156100b1578081fd5b5051919050565b610bda806100c76000396000f3fe608060405234801561001057600080fd5b50600436106100b45760003560e01c8063715018a611610071578063715018a6146101175780638da5cb5b1461011f57806395188788146101345780639e4f8c4b14610154578063c1e6810c14610167578063f2fde38b1461016f576100b4565b8063013f8d24146100b957806338eada1c146100d75780633a9915b2146100ec5780634ba79dfe146100f45780634c3239631461010757806360c68e091461010f575b600080fd5b6100c1610182565b6040516100ce9190610b3b565b60405180910390f35b6100ea6100e53660046109b9565b61025e565b005b6100c16103b1565b6100ea6101023660046109b9565b610487565b6100c16106a0565b6100c1610776565b6100ea61084c565b610127610897565b6040516100ce9190610a17565b6101476101423660046109b9565b6108a6565b6040516100ce9190610a2b565b6101276101623660046109e7565b6108c4565b6100c16108ee565b6100ea61017d3660046109b9565b6108f4565b600080805b600354811015610258576000600382815481106101b457634e487b7160e01b600052603260045260246000fd5b600091825260209182902001546040805163f5ae7c7d60e01b815290516001600160a01b039092169350839263f5ae7c7d92600480840193829003018186803b15801561020057600080fd5b505afa158015610214573d6000803e3d6000fd5b505050506040513d601f19601f8201168201806040525081019061023891906109ff565b6102429084610b44565b925050808061025090610b73565b915050610187565b50905090565b610266610965565b6001600160a01b0316610277610897565b6001600160a01b0316146102a65760405162461bcd60e51b815260040161029d90610abf565b60405180910390fd5b6001600160a01b03811660009081526002602052604090205460ff161515600114156102e45760405162461bcd60e51b815260040161029d90610af4565b6001600160a01b0381166000818152600260205260408120805460ff19166001908117909155600380548083018255928190527fc2575a0e9e593c00f959f8c92f12db2869c3395a3b0502d05e2516446f71f85b90920180546001600160a01b031916909317909255546103589190610b5c565b6001600160a01b038216600081815260046020526040908190209290925590517fc965bf1d4af49eca553da41f807b2aa90eee4c30fcb188b20c2f7e1925e066ad906103a690600190610a2b565b60405180910390a250565b600080805b600354811015610258576000600382815481106103e357634e487b7160e01b600052603260045260246000fd5b60009182526020918290200154604080516353bf27f160e01b815290516001600160a01b03909216935083926353bf27f192600480840193829003018186803b15801561042f57600080fd5b505afa158015610443573d6000803e3d6000fd5b505050506040513d601f19601f8201168201806040525081019061046791906109ff565b6104719084610b44565b925050808061047f90610b73565b9150506103b6565b61048f610965565b6001600160a01b03166104a0610897565b6001600160a01b0316146104c65760405162461bcd60e51b815260040161029d90610abf565b6001600160a01b03811660009081526002602052604090205460ff166104fe5760405162461bcd60e51b815260040161029d90610a7c565b6001600160a01b0381166000908152600260209081526040808320805460ff19169055600490915290208054633b9ac9ff9091556003805461054290600190610b5c565b8154811061056057634e487b7160e01b600052603260045260246000fd5b600091825260209091200154600380546001600160a01b03909216918390811061059a57634e487b7160e01b600052603260045260246000fd5b9060005260206000200160006101000a8154816001600160a01b0302191690836001600160a01b031602179055508060046000600384815481106105ee57634e487b7160e01b600052603260045260246000fd5b60009182526020808320909101546001600160a01b03168352820192909252604001902055600380548061063257634e487b7160e01b600052603160045260246000fd5b6001900381819060005260206000200160006101000a8154906001600160a01b0302191690559055816001600160a01b03167f8b45e87e67a8255bbbdf97b0b8e4a50fe295cd0bcca586c1faf71331dffd2dfe60006040516106949190610a2b565b60405180910390a25050565b600080805b600354811015610258576000600382815481106106d257634e487b7160e01b600052603260045260246000fd5b6000918252602091829020015460408051633b1d1cf960e11b815290516001600160a01b039092169350839263763a39f292600480840193829003018186803b15801561071e57600080fd5b505afa158015610732573d6000803e3d6000fd5b505050506040513d601f19601f8201168201806040525081019061075691906109ff565b6107609084610b44565b925050808061076e90610b73565b9150506106a5565b600080805b600354811015610258576000600382815481106107a857634e487b7160e01b600052603260045260246000fd5b6000918252602091829020015460408051633fca885160e11b815290516001600160a01b0390921693508392637f9510a292600480840193829003018186803b1580156107f457600080fd5b505afa158015610808573d6000803e3d6000fd5b505050506040513d601f19601f8201168201806040525081019061082c91906109ff565b6108369084610b44565b925050808061084490610b73565b91505061077b565b610854610965565b6001600160a01b0316610865610897565b6001600160a01b03161461088b5760405162461bcd60e51b815260040161029d90610abf565b6108956000610969565b565b6000546001600160a01b031690565b6001600160a01b031660009081526002602052604090205460ff1690565b600381815481106108d457600080fd5b6000918252602090912001546001600160a01b0316905081565b60015481565b6108fc610965565b6001600160a01b031661090d610897565b6001600160a01b0316146109335760405162461bcd60e51b815260040161029d90610abf565b6001600160a01b0381166109595760405162461bcd60e51b815260040161029d90610a36565b61096281610969565b50565b3390565b600080546001600160a01b038381166001600160a01b0319831681178455604051919092169283917f8be0079c531659141344cd1fd0a4f28419497f9722a3daafe3b4186f6b6457e09190a35050565b6000602082840312156109ca578081fd5b81356001600160a01b03811681146109e0578182fd5b9392505050565b6000602082840312156109f8578081fd5b5035919050565b600060208284031215610a10578081fd5b5051919050565b6001600160a01b0391909116815260200190565b901515815260200190565b60208082526026908201527f4f776e61626c653a206e6577206f776e657220697320746865207a65726f206160408201526564647265737360d01b606082015260800190565b60208082526023908201527f41646472657373206d7573742062652077686974656c697374656420616c726560408201526261647960e81b606082015260800190565b6020808252818101527f4f776e61626c653a2063616c6c6572206973206e6f7420746865206f776e6572604082015260600190565b60208082526027908201527f41646472657373206d757374206e6f742062652077686974656c697374656420604082015266616c726561647960c81b606082015260800190565b90815260200190565b60008219821115610b5757610b57610b8e565b500190565b600082821015610b6e57610b6e610b8e565b500390565b6000600019821415610b8757610b87610b8e565b5060010190565b634e487b7160e01b600052601160045260246000fdfea2646970667358221220ec9981817ecfdb3b10fa5858944e5957c6e806102169d5a6c73fde261c25a0bd64736f6c63430008000033",
  "linkReferences": {},
  "deployedLinkReferences": {}
}