{
  "_format": "hh-sol-artifact-1",
  "contractName": "Statistics",
  "sourceName": "contracts/worksystems/Statistics.sol",
  "abi": [
    {
      "inputs": [
        {
          "internalType": "uint256",
          "name": "BaseTransactionCount_",
          "type": "uint256"
        }
      ],
      "stateMutability": "nonpayable",
      "type": "constructor"
    },
    {
      "anonymous": false,
      "inputs": [
        {
          "indexed": true,
          "internalType": "address",
          "name": "account",
          "type": "address"
        },
        {
          "indexed": false,
          "internalType": "bool",
          "name": "isWhitelisted",
          "type": "bool"
        }
      ],
      "name": "Monitored",
      "type": "event"
    },
    {
      "anonymous": false,
      "inputs": [
        {
          "indexed": true,
          "internalType": "address",
          "name": "previousOwner",
          "type": "address"
        },
        {
          "indexed": true,
          "internalType": "address",
          "name": "newOwner",
          "type": "address"
        }
      ],
      "name": "OwnershipTransferred",
      "type": "event"
    },
    {
      "anonymous": false,
      "inputs": [
        {
          "indexed": true,
          "internalType": "address",
          "name": "account",
          "type": "address"
        },
        {
          "indexed": false,
          "internalType": "bool",
          "name": "isWhitelisted",
          "type": "bool"
        }
      ],
      "name": "UnMonitored",
      "type": "event"
    },
    {
      "inputs": [],
      "name": "BaseTransactionCount",
      "outputs": [
        {
          "internalType": "uint256",
          "name": "",
          "type": "uint256"
        }
      ],
      "stateMutability": "view",
      "type": "function"
    },
    {
      "inputs": [
        {
          "internalType": "uint256",
          "name": "",
          "type": "uint256"
        }
      ],
      "name": "MonitoredSystemAddress",
      "outputs": [
        {
          "internalType": "address",
          "name": "",
          "type": "address"
        }
      ],
      "stateMutability": "view",
      "type": "function"
    },
    {
      "inputs": [],
      "name": "TotalActiveWorkerCount",
      "outputs": [
        {
          "internalType": "uint256",
          "name": "",
          "type": "uint256"
        }
      ],
      "stateMutability": "view",
      "type": "function"
    },
    {
      "inputs": [],
      "name": "TotalAvailableWorkerCount",
      "outputs": [
        {
          "internalType": "uint256",
          "name": "",
          "type": "uint256"
        }
      ],
      "stateMutability": "view",
      "type": "function"
    },
    {
      "inputs": [],
      "name": "TotalBusyWorkerCount",
      "outputs": [
        {
          "internalType": "uint256",
          "name": "",
          "type": "uint256"
        }
      ],
      "stateMutability": "view",
      "type": "function"
    },
    {
      "inputs": [],
      "name": "TotalTxCount",
      "outputs": [
        {
          "internalType": "uint256",
          "name": "",
          "type": "uint256"
        }
      ],
      "stateMutability": "view",
      "type": "function"
    },
    {
      "inputs": [
        {
          "internalType": "address",
          "name": "_address",
          "type": "address"
        }
      ],
      "name": "addAddress",
      "outputs": [],
      "stateMutability": "nonpayable",
      "type": "function"
    },
    {
      "inputs": [
        {
          "internalType": "address",
          "name": "_address",
          "type": "address"
        }
      ],
      "name": "isMonitoredAddress",
      "outputs": [
        {
          "internalType": "bool",
          "name": "",
          "type": "bool"
        }
      ],
      "stateMutability": "view",
      "type": "function"
    },
    {
      "inputs": [],
      "name": "owner",
      "outputs": [
        {
          "internalType": "address",
          "name": "",
          "type": "address"
        }
      ],
      "stateMutability": "view",
      "type": "function"
    },
    {
      "inputs": [
        {
          "internalType": "address",
          "name": "_address",
          "type": "address"
        }
      ],
      "name": "removeAddress",
      "outputs": [],
      "stateMutability": "nonpayable",
      "type": "function"
    },
    {
      "inputs": [],
      "name": "renounceOwnership",
      "outputs": [],
      "stateMutability": "nonpayable",
      "type": "function"
    },
    {
      "inputs": [
        {
          "internalType": "address",
          "name": "newOwner",
          "type": "address"
        }
      ],
      "name": "transferOwnership",
      "outputs": [],
      "stateMutability": "nonpayable",
      "type": "function"
    },
    {
      "inputs": [
        {
          "internalType": "uint256",
          "name": "BaseTransactionCountNew_",
          "type": "uint256"
        }
      ],
      "name": "updateBaseTransactionCount",
      "outputs": [],
      "stateMutability": "nonpayable",
      "type": "function"
    }
  ],
  "bytecode": "0x6080604052600060015534801561001557600080fd5b50604051610b84380380610b8483398101604081905261003491610095565b61003d33610045565b6001556100ae565b600080546001600160a01b038381166001600160a01b0319831681178455604051919092169283917f8be0079c531659141344cd1fd0a4f28419497f9722a3daafe3b4186f6b6457e09190a35050565b6000602082840312156100a757600080fd5b5051919050565b610ac7806100bd6000396000f3fe608060405234801561001057600080fd5b50600436106100cf5760003560e01c806360c68e091161008c5780639518878811610066578063951887881461016f5780639e4f8c4b146101ab578063c1e6810c146101be578063f2fde38b146101c757600080fd5b806360c68e091461013a578063715018a6146101425780638da5cb5b1461014a57600080fd5b8063013f8d24146100d457806338eada1c146100ef5780633a9915b2146101045780634ba79dfe1461010c5780634c3239631461011f5780634c599b4a14610127575b600080fd5b6100dc6101da565b6040519081526020015b60405180910390f35b6101026100fd3660046109a3565b6102ab565b005b6100dc6103ff565b61010261011a3660046109a3565b6104c7565b6100dc6106a5565b6101026101353660046109d3565b61076d565b6100dc61077a565b610102610842565b6000546001600160a01b03165b6040516001600160a01b0390911681526020016100e6565b61019b61017d3660046109a3565b6001600160a01b031660009081526002602052604090205460ff1690565b60405190151581526020016100e6565b6101576101b93660046109d3565b610856565b6100dc60015481565b6101026101d53660046109a3565b610880565b600154600090815b6003548110156102a557600060038281548110610201576102016109ec565b600091825260209182902001546040805163f5ae7c7d60e01b815290516001600160a01b039092169350839263f5ae7c7d92600480840193829003018186803b15801561024d57600080fd5b505afa158015610261573d6000803e3d6000fd5b505050506040513d601f19601f820116820180604052508101906102859190610a02565b61028f9084610a31565b925050808061029d90610a49565b9150506101e2565b50919050565b6102b36108f9565b6001600160a01b03811660009081526002602052604090205460ff161515600114156103365760405162461bcd60e51b815260206004820152602760248201527f41646472657373206d757374206e6f742062652077686974656c697374656420604482015266616c726561647960c81b60648201526084015b60405180910390fd5b6001600160a01b0381166000818152600260205260408120805460ff19166001908117909155600380548083018255928190527fc2575a0e9e593c00f959f8c92f12db2869c3395a3b0502d05e2516446f71f85b90920180546001600160a01b031916909317909255546103aa9190610a64565b6001600160a01b03821660008181526004602090815260409182902093909355516001815290917fc965bf1d4af49eca553da41f807b2aa90eee4c30fcb188b20c2f7e1925e066ad910160405180910390a250565b600080805b6003548110156102a557600060038281548110610423576104236109ec565b60009182526020918290200154604080516353bf27f160e01b815290516001600160a01b03909216935083926353bf27f192600480840193829003018186803b15801561046f57600080fd5b505afa158015610483573d6000803e3d6000fd5b505050506040513d601f19601f820116820180604052508101906104a79190610a02565b6104b19084610a31565b92505080806104bf90610a49565b915050610404565b6104cf6108f9565b6001600160a01b03811660009081526002602052604090205460ff166105435760405162461bcd60e51b815260206004820152602360248201527f41646472657373206d7573742062652077686974656c697374656420616c726560448201526261647960e81b606482015260840161032d565b6001600160a01b0381166000908152600260209081526040808320805460ff19169055600490915290208054633b9ac9ff9091556003805461058790600190610a64565b81548110610597576105976109ec565b600091825260209091200154600380546001600160a01b0390921691839081106105c3576105c36109ec565b9060005260206000200160006101000a8154816001600160a01b0302191690836001600160a01b03160217905550806004600060038481548110610609576106096109ec565b60009182526020808320909101546001600160a01b03168352820192909252604001902055600380548061063f5761063f610a7b565b60008281526020808220830160001990810180546001600160a01b03191690559092019092556040519182526001600160a01b038416917f8b45e87e67a8255bbbdf97b0b8e4a50fe295cd0bcca586c1faf71331dffd2dfe910160405180910390a25050565b600080805b6003548110156102a5576000600382815481106106c9576106c96109ec565b6000918252602091829020015460408051633b1d1cf960e11b815290516001600160a01b039092169350839263763a39f292600480840193829003018186803b15801561071557600080fd5b505afa158015610729573d6000803e3d6000fd5b505050506040513d601f19601f8201168201806040525081019061074d9190610a02565b6107579084610a31565b925050808061076590610a49565b9150506106aa565b6107756108f9565b600155565b600080805b6003548110156102a55760006003828154811061079e5761079e6109ec565b6000918252602091829020015460408051633fca885160e11b815290516001600160a01b0390921693508392637f9510a292600480840193829003018186803b1580156107ea57600080fd5b505afa1580156107fe573d6000803e3d6000fd5b505050506040513d601f19601f820116820180604052508101906108229190610a02565b61082c9084610a31565b925050808061083a90610a49565b91505061077f565b61084a6108f9565b6108546000610953565b565b6003818154811061086657600080fd5b6000918252602090912001546001600160a01b0316905081565b6108886108f9565b6001600160a01b0381166108ed5760405162461bcd60e51b815260206004820152602660248201527f4f776e61626c653a206e6577206f776e657220697320746865207a65726f206160448201526564647265737360d01b606482015260840161032d565b6108f681610953565b50565b6000546001600160a01b031633146108545760405162461bcd60e51b815260206004820181905260248201527f4f776e61626c653a2063616c6c6572206973206e6f7420746865206f776e6572604482015260640161032d565b600080546001600160a01b038381166001600160a01b0319831681178455604051919092169283917f8be0079c531659141344cd1fd0a4f28419497f9722a3daafe3b4186f6b6457e09190a35050565b6000602082840312156109b557600080fd5b81356001600160a01b03811681146109cc57600080fd5b9392505050565b6000602082840312156109e557600080fd5b5035919050565b634e487b7160e01b600052603260045260246000fd5b600060208284031215610a1457600080fd5b5051919050565b634e487b7160e01b600052601160045260246000fd5b60008219821115610a4457610a44610a1b565b500190565b6000600019821415610a5d57610a5d610a1b565b5060010190565b600082821015610a7657610a76610a1b565b500390565b634e487b7160e01b600052603160045260246000fdfea26469706673582212206af686c77d857c160ad3ad47e1fa99a56599887d6012ef8a3342c62d7795627764736f6c63430008080033",
  "linkReferences": {},
  "deployedLinkReferences": {}
}