{
  "_format": "hh-sol-artifact-1",
  "contractName": "Reputation",
  "sourceName": "contracts/daostack/controller/Reputation.sol",
  "abi": [
    {
      "anonymous": false,
      "inputs": [
        {
          "indexed": true,
          "internalType": "address",
          "name": "_from",
          "type": "address"
        },
        {
          "indexed": false,
          "internalType": "uint256",
          "name": "_amount",
          "type": "uint256"
        }
      ],
      "name": "Burn",
      "type": "event"
    },
    {
      "anonymous": false,
      "inputs": [
        {
          "indexed": true,
          "internalType": "address",
          "name": "_to",
          "type": "address"
        },
        {
          "indexed": false,
          "internalType": "uint256",
          "name": "_amount",
          "type": "uint256"
        }
      ],
      "name": "Mint",
      "type": "event"
    },
    {
      "anonymous": false,
      "inputs": [
        {
          "indexed": true,
          "internalType": "address",
          "name": "previousOwner",
          "type": "address"
        },
        {
          "indexed": true,
          "internalType": "address",
          "name": "newOwner",
          "type": "address"
        }
      ],
      "name": "OwnershipTransferred",
      "type": "event"
    },
    {
      "inputs": [
        {
          "internalType": "address",
          "name": "",
          "type": "address"
        }
      ],
      "name": "IsAddressSeen",
      "outputs": [
        {
          "internalType": "bool",
          "name": "",
          "type": "bool"
        }
      ],
      "stateMutability": "view",
      "type": "function"
    },
    {
      "inputs": [
        {
          "internalType": "uint256",
          "name": "",
          "type": "uint256"
        }
      ],
      "name": "_addresses",
      "outputs": [
        {
          "internalType": "address",
          "name": "",
          "type": "address"
        }
      ],
      "stateMutability": "view",
      "type": "function"
    },
    {
      "inputs": [
        {
          "internalType": "address",
          "name": "_owner",
          "type": "address"
        }
      ],
      "name": "balanceOf",
      "outputs": [
        {
          "internalType": "uint256",
          "name": "balance",
          "type": "uint256"
        }
      ],
      "stateMutability": "view",
      "type": "function"
    },
    {
      "inputs": [
        {
          "internalType": "address",
          "name": "_owner",
          "type": "address"
        },
        {
          "internalType": "uint256",
          "name": "_blockNumber",
          "type": "uint256"
        }
      ],
      "name": "balanceOfAt",
      "outputs": [
        {
          "internalType": "uint256",
          "name": "",
          "type": "uint256"
        }
      ],
      "stateMutability": "view",
      "type": "function"
    },
    {
      "inputs": [
        {
          "internalType": "address",
          "name": "_user",
          "type": "address"
        },
        {
          "internalType": "uint256",
          "name": "_amount",
          "type": "uint256"
        }
      ],
      "name": "burn",
      "outputs": [
        {
          "internalType": "bool",
          "name": "",
          "type": "bool"
        }
      ],
      "stateMutability": "nonpayable",
      "type": "function"
    },
    {
      "inputs": [],
      "name": "checkpoint_interval",
      "outputs": [
        {
          "internalType": "uint256",
          "name": "",
          "type": "uint256"
        }
      ],
      "stateMutability": "view",
      "type": "function"
    },
    {
      "inputs": [
        {
          "internalType": "address[]",
          "name": "users_",
          "type": "address[]"
        }
      ],
      "name": "clearIsAddressSeen",
      "outputs": [],
      "stateMutability": "nonpayable",
      "type": "function"
    },
    {
      "inputs": [],
      "name": "decimals",
      "outputs": [
        {
          "internalType": "uint8",
          "name": "",
          "type": "uint8"
        }
      ],
      "stateMutability": "view",
      "type": "function"
    },
    {
      "inputs": [
        {
          "internalType": "uint256",
          "name": "index_",
          "type": "uint256"
        }
      ],
      "name": "deleteAddressAtIndex",
      "outputs": [],
      "stateMutability": "nonpayable",
      "type": "function"
    },
    {
      "inputs": [],
      "name": "deleteAllAddressArray",
      "outputs": [],
      "stateMutability": "nonpayable",
      "type": "function"
    },
    {
      "inputs": [
        {
          "internalType": "uint256[]",
          "name": "indices_",
          "type": "uint256[]"
        }
      ],
      "name": "deleteManyAddressAtIndex",
      "outputs": [],
      "stateMutability": "nonpayable",
      "type": "function"
    },
    {
      "inputs": [],
      "name": "getAllAddressLength",
      "outputs": [
        {
          "internalType": "uint256",
          "name": "length",
          "type": "uint256"
        }
      ],
      "stateMutability": "view",
      "type": "function"
    },
    {
      "inputs": [
        {
          "internalType": "uint256",
          "name": "A_",
          "type": "uint256"
        },
        {
          "internalType": "uint256",
          "name": "B_",
          "type": "uint256"
        }
      ],
      "name": "getAllWorkersBetweenIndex",
      "outputs": [
        {
          "internalType": "address[]",
          "name": "workers",
          "type": "address[]"
        }
      ],
      "stateMutability": "view",
      "type": "function"
    },
    {
      "inputs": [],
      "name": "global_checkpoint_interval",
      "outputs": [
        {
          "internalType": "uint256",
          "name": "",
          "type": "uint256"
        }
      ],
      "stateMutability": "view",
      "type": "function"
    },
    {
      "inputs": [
        {
          "internalType": "address",
          "name": "_user",
          "type": "address"
        },
        {
          "internalType": "uint256",
          "name": "_amount",
          "type": "uint256"
        }
      ],
      "name": "mint",
      "outputs": [
        {
          "internalType": "bool",
          "name": "",
          "type": "bool"
        }
      ],
      "stateMutability": "nonpayable",
      "type": "function"
    },
    {
      "inputs": [
        {
          "internalType": "address[]",
          "name": "_user",
          "type": "address[]"
        },
        {
          "internalType": "uint256[]",
          "name": "_amount",
          "type": "uint256[]"
        }
      ],
      "name": "mintMultiple",
      "outputs": [
        {
          "internalType": "bool",
          "name": "",
          "type": "bool"
        }
      ],
      "stateMutability": "nonpayable",
      "type": "function"
    },
    {
      "inputs": [],
      "name": "owner",
      "outputs": [
        {
          "internalType": "address",
          "name": "",
          "type": "address"
        }
      ],
      "stateMutability": "view",
      "type": "function"
    },
    {
      "inputs": [],
      "name": "renounceOwnership",
      "outputs": [],
      "stateMutability": "nonpayable",
      "type": "function"
    },
    {
      "inputs": [
        {
          "internalType": "address[]",
          "name": "users_",
          "type": "address[]"
        }
      ],
      "name": "resetCheckpointsUsers",
      "outputs": [],
      "stateMutability": "nonpayable",
      "type": "function"
    },
    {
      "inputs": [],
      "name": "totalSupply",
      "outputs": [
        {
          "internalType": "uint256",
          "name": "",
          "type": "uint256"
        }
      ],
      "stateMutability": "view",
      "type": "function"
    },
    {
      "inputs": [
        {
          "internalType": "uint256",
          "name": "_blockNumber",
          "type": "uint256"
        }
      ],
      "name": "totalSupplyAt",
      "outputs": [
        {
          "internalType": "uint256",
          "name": "",
          "type": "uint256"
        }
      ],
      "stateMutability": "view",
      "type": "function"
    },
    {
      "inputs": [
        {
          "internalType": "address",
          "name": "newOwner",
          "type": "address"
        }
      ],
      "name": "transferOwnership",
      "outputs": [],
      "stateMutability": "nonpayable",
      "type": "function"
    },
    {
      "inputs": [
        {
          "internalType": "uint256",
          "name": "new_interval_",
          "type": "uint256"
        }
      ],
      "name": "updateCheckpointInterval",
      "outputs": [],
      "stateMutability": "nonpayable",
      "type": "function"
    },
    {
      "inputs": [
        {
          "internalType": "uint256",
          "name": "new_global_interval_",
          "type": "uint256"
        }
      ],
      "name": "updateGlobalCheckpointInterval",
      "outputs": [],
      "stateMutability": "nonpayable",
      "type": "function"
    }
  ],
  "bytecode": "0x60806040526000805460ff60a01b1916600960a11b17905562030d406001556103e860025534801561003057600080fd5b5061003a3361003f565b61008f565b600080546001600160a01b038381166001600160a01b0319831681178455604051919092169283917f8be0079c531659141344cd1fd0a4f28419497f9722a3daafe3b4186f6b6457e09190a35050565b6116718061009e6000396000f3fe608060405234801561001057600080fd5b50600436106101585760003560e01c8063703980ff116100c35780639dc29fac1161007c5780639dc29fac146102e4578063ad851cee146102f7578063ade4dcfb146102ff578063df96309f14610312578063ea4c303f14610335578063f2fde38b1461033d57600080fd5b8063703980ff1461028957806370a082311461029c578063715018a6146102af5780638da5cb5b146102b75780638e289a8a146102c8578063981b24d0146102d157600080fd5b80633b770e02116101155780633b770e021461020957806340c10f191461021c5780634104f64f1461022f5780634ee2cd7e146102385780634f82517c1461024b578063533c1a811461027657600080fd5b806307ea54771461015d5780630e4498c2146101855780631015ebc8146101a557806318160ddd146101ba57806318eeabe6146101d0578063313ce567146101e3575b600080fd5b61017061016b3660046113e3565b610350565b60405190151581526020015b60405180910390f35b610198610193366004611447565b610619565b60405161017c9190611469565b6101b86101b33660046114b6565b6107a3565b005b6101c2610801565b60405190815260200161017c565b6101b86101de3660046114cf565b610811565b6000546101f790600160a01b900460ff1681565b60405160ff909116815260200161017c565b6101b861021736600461150c565b61087b565b61017061022a366004611541565b6108c9565b6101c260015481565b6101c2610246366004611541565b610a1f565b61025e6102593660046114b6565b610ab5565b6040516001600160a01b03909116815260200161017c565b6101b86102843660046114b6565b610adf565b6101b86102973660046114cf565b610c03565b6101c26102aa36600461156b565b610d17565b6101b8610d23565b6000546001600160a01b031661025e565b6101c260025481565b6101c26102df3660046114b6565b610d37565b6101706102f2366004611541565b610d8d565b6101b8610e41565b6101b861030d3660046114b6565b610e55565b61017061032036600461156b565b60046020526000908152604090205460ff1681565b6003546101c2565b6101b861034b36600461156b565b610eb3565b600061035a610f2c565b60005b835181101561060d576000610370610801565b9050808483815181106103855761038561158d565b60200260200101518261039891906115b9565b10156103a357600080fd5b60006103c78684815181106103ba576103ba61158d565b6020026020010151610d17565b9050808584815181106103dc576103dc61158d565b6020026020010151826103ef91906115b9565b10156103fa57600080fd5b61042c60068685815181106104115761041161158d565b60200260200101518461042491906115b9565b600254610f86565b61049a600560008886815181106104455761044561158d565b60200260200101516001600160a01b03166001600160a01b0316815260200190815260200160002086858151811061047f5761047f61158d565b60200260200101518361049291906115b9565b600154610f86565b600460008785815181106104b0576104b061158d565b6020908102919091018101516001600160a01b031682528101919091526040016000205460ff166105835760038684815181106104ef576104ef61158d565b60209081029190910181015182546001808201855560009485529284200180546001600160a01b0319166001600160a01b03909216919091179055875190916004918990879081106105435761054361158d565b60200260200101516001600160a01b03166001600160a01b0316815260200190815260200160002060006101000a81548160ff0219169083151502179055505b8583815181106105955761059561158d565b60200260200101516001600160a01b03167f0f6798a560793a54c3bcfe86a93cde1e73087d944c0ea20544137d41213968858685815181106105d9576105d961158d565b60200260200101516040516105f091815260200190565b60405180910390a250508080610605906115d1565b91505061035d565b50600190505b92915050565b6060828210156106645760405162461bcd60e51b8152602060048201526011602482015270205f42206d757374206265203e3d205f4160781b60448201526064015b60405180910390fd5b600354610673906001906115ec565b8211156106b95760405162461bcd60e51b815260206004820152601460248201527320425f206973206f7574206f6620626f756e647360601b604482015260640161065b565b60006106c584846115ec565b6106d09060016115b9565b905060008167ffffffffffffffff8111156106ed576106ed611294565b604051908082528060200260200182016040528015610716578160200160208202803683370190505b50905060005b8281101561079a57600361073087836115b9565b815481106107405761074061158d565b9060005260206000200160009054906101000a90046001600160a01b03168282815181106107705761077061158d565b6001600160a01b039092166020928302919091019091015280610792816115d1565b91505061071c565b50949350505050565b6107ab610f2c565b6103e881116107fc5760405162461bcd60e51b815260206004820152601b60248201527f6e657720696e74657276616c206d757374206265203e20313030300000000000604482015260640161065b565b600255565b600061080c43610d37565b905090565b610819610f2c565b60005b81518110156108775760008282815181106108395761083961158d565b6020908102919091018101516001600160a01b03166000908152600490915260409020805460ff19169055508061086f816115d1565b91505061081c565b5050565b610883610f2c565b60005b81518110156108775760008282815181106108a3576108a361158d565b602002602001015190506108b681610adf565b50806108c1816115d1565b915050610886565b60006108d3610f2c565b60006108dd610801565b9050806108ea84826115b9565b10156108f557600080fd5b600061090085610d17565b90508061090d85826115b9565b101561091857600080fd5b6001600160a01b03851660009081526004602052604090205460ff1661099c576003805460018082019092557fc2575a0e9e593c00f959f8c92f12db2869c3395a3b0502d05e2516446f71f85b0180546001600160a01b0319166001600160a01b0388169081179091556000908152600460205260409020805460ff191690911790555b6109ab600661042486856115b9565b6001600160a01b03851660009081526005602052604090206109d19061049286846115b9565b846001600160a01b03167f0f6798a560793a54c3bcfe86a93cde1e73087d944c0ea20544137d412139688585604051610a0c91815260200190565b60405180910390a2506001949350505050565b6001600160a01b0382166000908152600560205260408120541580610a7f57506001600160a01b03831660009081526005602052604081208054849290610a6857610a6861158d565b6000918252602090912001546001600160801b0316115b15610a8c57506000610613565b6001600160a01b0383166000908152600560205260409020610aae9083611089565b9050610613565b60038181548110610ac557600080fd5b6000918252602090912001546001600160a01b0316905081565b610ae7610f2c565b600354610b425760405162461bcd60e51b815260206004820152602360248201527f416c6c576f726b6572734c697374206d7573742068617665206c656e6774682060448201526203e20360ec1b606482015260840161065b565b6003805460009190610b56906001906115ec565b81548110610b6657610b6661158d565b6000918252602090912001546003546001600160a01b039091169150600211610bcc578060038381548110610b9d57610b9d61158d565b9060005260206000200160006101000a8154816001600160a01b0302191690836001600160a01b031602179055505b6003805480610bdd57610bdd611603565b600082815260209020810160001990810180546001600160a01b03191690550190555050565b610c0b610f2c565b60005b8151811015610877576000828281518110610c2b57610c2b61158d565b602002602001015190506000610c4082610d17565b6001600160a01b0383166000908152600560205260408120919250610c659190611262565b6001600160a01b0382166000908152600560205260409020600154610c8c91908390610f86565b80610c9683610d17565b14610d025760405162461bcd60e51b815260206004820152603660248201527f52657075746174696f6e3a206e6f742070726573657276656420647572696e67604482015275207265736574436865636b706f696e7473557365727360501b606482015260840161065b565b50508080610d0f906115d1565b915050610c0e565b60006106138243610a1f565b610d2b610f2c565b610d356000611212565b565b6006546000901580610d705750816006600081548110610d5957610d5961158d565b6000918252602090912001546001600160801b0316115b15610d7d57506000919050565b610613600683611089565b919050565b6000610d97610f2c565b6000610da1610801565b9050826000610daf86610d17565b905081811015610dbd578091505b610dcc600661042484866115ec565b6001600160a01b0386166000908152600560205260409020610df29061049284846115ec565b856001600160a01b03167fcc16f5dbb4873280815c1ee09dbd06736cffcc184412cf7a71a0fdb75d397ca583604051610e2d91815260200190565b60405180910390a250600195945050505050565b610e49610f2c565b610d3560036000611262565b610e5d610f2c565b6103e88111610eae5760405162461bcd60e51b815260206004820152601b60248201527f6e657720696e74657276616c206d757374206265203e20313030300000000000604482015260640161065b565b600155565b610ebb610f2c565b6001600160a01b038116610f205760405162461bcd60e51b815260206004820152602660248201527f4f776e61626c653a206e6577206f776e657220697320746865207a65726f206160448201526564647265737360d01b606482015260840161065b565b610f2981611212565b50565b6000546001600160a01b03163314610d355760405162461bcd60e51b815260206004820181905260248201527f4f776e61626c653a2063616c6c6572206973206e6f7420746865206f776e6572604482015260640161065b565b81826001600160801b031614610f9b57600080fd5b82541580610fef57508043118015610fef5750610fb881436115ec565b83548490610fc8906001906115ec565b81548110610fd857610fd861158d565b6000918252602090912001546001600160801b0316105b1561103d5750604080518082019091526001600160801b0343811682529182166020808301918252845460018101865560009586529420915190518316600160801b02921691909117910155565b82546000908490611050906001906115ec565b815481106110605761106061158d565b600091825260209091200180546001600160801b03808616600160801b02911617905550505050565b815460009061109a57506000610613565b825483906110aa906001906115ec565b815481106110ba576110ba61158d565b6000918252602090912001546001600160801b0316821061111857825483906110e5906001906115ec565b815481106110f5576110f561158d565b600091825260209091200154600160801b90046001600160801b03169050610613565b8260008154811061112b5761112b61158d565b6000918252602090912001546001600160801b031682101561114f57506000610613565b82546000908190611162906001906115ec565b90505b818111156111db576000600261117b84846115b9565b6111869060016115b9565b6111909190611619565b9050848682815481106111a5576111a561158d565b6000918252602090912001546001600160801b0316116111c7578092506111d5565b6111d26001826115ec565b91505b50611165565b8482815481106111ed576111ed61158d565b600091825260209091200154600160801b90046001600160801b031695945050505050565b600080546001600160a01b038381166001600160a01b0319831681178455604051919092169283917f8be0079c531659141344cd1fd0a4f28419497f9722a3daafe3b4186f6b6457e09190a35050565b5080546000825590600052602060002090810190610f2991905b80821115611290576000815560010161127c565b5090565b634e487b7160e01b600052604160045260246000fd5b604051601f8201601f1916810167ffffffffffffffff811182821017156112d3576112d3611294565b604052919050565b600067ffffffffffffffff8211156112f5576112f5611294565b5060051b60200190565b80356001600160a01b0381168114610d8857600080fd5b600082601f83011261132757600080fd5b8135602061133c611337836112db565b6112aa565b82815260059290921b8401810191818101908684111561135b57600080fd5b8286015b8481101561137d57611370816112ff565b835291830191830161135f565b509695505050505050565b600082601f83011261139957600080fd5b813560206113a9611337836112db565b82815260059290921b840181019181810190868411156113c857600080fd5b8286015b8481101561137d57803583529183019183016113cc565b600080604083850312156113f657600080fd5b823567ffffffffffffffff8082111561140e57600080fd5b61141a86838701611316565b9350602085013591508082111561143057600080fd5b5061143d85828601611388565b9150509250929050565b6000806040838503121561145a57600080fd5b50508035926020909101359150565b6020808252825182820181905260009190848201906040850190845b818110156114aa5783516001600160a01b031683529284019291840191600101611485565b50909695505050505050565b6000602082840312156114c857600080fd5b5035919050565b6000602082840312156114e157600080fd5b813567ffffffffffffffff8111156114f857600080fd5b61150484828501611316565b949350505050565b60006020828403121561151e57600080fd5b813567ffffffffffffffff81111561153557600080fd5b61150484828501611388565b6000806040838503121561155457600080fd5b61155d836112ff565b946020939093013593505050565b60006020828403121561157d57600080fd5b611586826112ff565b9392505050565b634e487b7160e01b600052603260045260246000fd5b634e487b7160e01b600052601160045260246000fd5b600082198211156115cc576115cc6115a3565b500190565b60006000198214156115e5576115e56115a3565b5060010190565b6000828210156115fe576115fe6115a3565b500390565b634e487b7160e01b600052603160045260246000fd5b60008261163657634e487b7160e01b600052601260045260246000fd5b50049056fea26469706673582212204591dd288b2557ce8e24380415c331119bc8517cb9f82b3d163500377c21f11d64736f6c63430008080033",
  "linkReferences": {},
  "deployedLinkReferences": {}
}