{
  "_format": "hh-sol-artifact-1",
  "contractName": "Reputation",
  "sourceName": "contracts/daostack/controller/Reputation.sol",
  "abi": [
    {
      "anonymous": false,
      "inputs": [
        {
          "indexed": true,
          "internalType": "address",
          "name": "_from",
          "type": "address"
        },
        {
          "indexed": false,
          "internalType": "uint256",
          "name": "_amount",
          "type": "uint256"
        }
      ],
      "name": "Burn",
      "type": "event"
    },
    {
      "anonymous": false,
      "inputs": [
        {
          "indexed": true,
          "internalType": "address",
          "name": "_to",
          "type": "address"
        },
        {
          "indexed": false,
          "internalType": "uint256",
          "name": "_amount",
          "type": "uint256"
        }
      ],
      "name": "Mint",
      "type": "event"
    },
    {
      "anonymous": false,
      "inputs": [
        {
          "indexed": true,
          "internalType": "address",
          "name": "previousOwner",
          "type": "address"
        },
        {
          "indexed": true,
          "internalType": "address",
          "name": "newOwner",
          "type": "address"
        }
      ],
      "name": "OwnershipTransferred",
      "type": "event"
    },
    {
      "inputs": [
        {
          "internalType": "address",
          "name": "",
          "type": "address"
        }
      ],
      "name": "IsAddressSeen",
      "outputs": [
        {
          "internalType": "bool",
          "name": "",
          "type": "bool"
        }
      ],
      "stateMutability": "view",
      "type": "function"
    },
    {
      "inputs": [
        {
          "internalType": "uint256",
          "name": "",
          "type": "uint256"
        }
      ],
      "name": "_addresses",
      "outputs": [
        {
          "internalType": "address",
          "name": "",
          "type": "address"
        }
      ],
      "stateMutability": "view",
      "type": "function"
    },
    {
      "inputs": [
        {
          "internalType": "address",
          "name": "_owner",
          "type": "address"
        }
      ],
      "name": "balanceOf",
      "outputs": [
        {
          "internalType": "uint256",
          "name": "balance",
          "type": "uint256"
        }
      ],
      "stateMutability": "view",
      "type": "function"
    },
    {
      "inputs": [
        {
          "internalType": "address",
          "name": "_owner",
          "type": "address"
        },
        {
          "internalType": "uint256",
          "name": "_blockNumber",
          "type": "uint256"
        }
      ],
      "name": "balanceOfAt",
      "outputs": [
        {
          "internalType": "uint256",
          "name": "",
          "type": "uint256"
        }
      ],
      "stateMutability": "view",
      "type": "function"
    },
    {
      "inputs": [
        {
          "internalType": "address",
          "name": "_user",
          "type": "address"
        },
        {
          "internalType": "uint256",
          "name": "_amount",
          "type": "uint256"
        }
      ],
      "name": "burn",
      "outputs": [
        {
          "internalType": "bool",
          "name": "",
          "type": "bool"
        }
      ],
      "stateMutability": "nonpayable",
      "type": "function"
    },
    {
      "inputs": [],
      "name": "checkpoint_interval",
      "outputs": [
        {
          "internalType": "uint256",
          "name": "",
          "type": "uint256"
        }
      ],
      "stateMutability": "view",
      "type": "function"
    },
    {
      "inputs": [
        {
          "internalType": "address[]",
          "name": "users_",
          "type": "address[]"
        }
      ],
      "name": "clearIsAddressSeen",
      "outputs": [],
      "stateMutability": "nonpayable",
      "type": "function"
    },
    {
      "inputs": [],
      "name": "decimals",
      "outputs": [
        {
          "internalType": "uint8",
          "name": "",
          "type": "uint8"
        }
      ],
      "stateMutability": "view",
      "type": "function"
    },
    {
      "inputs": [],
      "name": "deleteAllAddressArray",
      "outputs": [],
      "stateMutability": "nonpayable",
      "type": "function"
    },
    {
      "inputs": [],
      "name": "getAllAddressLength",
      "outputs": [
        {
          "internalType": "uint256",
          "name": "length",
          "type": "uint256"
        }
      ],
      "stateMutability": "view",
      "type": "function"
    },
    {
      "inputs": [
        {
          "internalType": "uint256",
          "name": "A_",
          "type": "uint256"
        },
        {
          "internalType": "uint256",
          "name": "B_",
          "type": "uint256"
        }
      ],
      "name": "getAllWorkersBetweenIndex",
      "outputs": [
        {
          "internalType": "address[]",
          "name": "workers",
          "type": "address[]"
        }
      ],
      "stateMutability": "view",
      "type": "function"
    },
    {
      "inputs": [],
      "name": "global_checkpoint_interval",
      "outputs": [
        {
          "internalType": "uint256",
          "name": "",
          "type": "uint256"
        }
      ],
      "stateMutability": "view",
      "type": "function"
    },
    {
      "inputs": [
        {
          "internalType": "address",
          "name": "_user",
          "type": "address"
        },
        {
          "internalType": "uint256",
          "name": "_amount",
          "type": "uint256"
        }
      ],
      "name": "mint",
      "outputs": [
        {
          "internalType": "bool",
          "name": "",
          "type": "bool"
        }
      ],
      "stateMutability": "nonpayable",
      "type": "function"
    },
    {
      "inputs": [
        {
          "internalType": "address[]",
          "name": "_user",
          "type": "address[]"
        },
        {
          "internalType": "uint256[]",
          "name": "_amount",
          "type": "uint256[]"
        }
      ],
      "name": "mintMultiple",
      "outputs": [
        {
          "internalType": "bool",
          "name": "",
          "type": "bool"
        }
      ],
      "stateMutability": "nonpayable",
      "type": "function"
    },
    {
      "inputs": [],
      "name": "owner",
      "outputs": [
        {
          "internalType": "address",
          "name": "",
          "type": "address"
        }
      ],
      "stateMutability": "view",
      "type": "function"
    },
    {
      "inputs": [],
      "name": "renounceOwnership",
      "outputs": [],
      "stateMutability": "nonpayable",
      "type": "function"
    },
    {
      "inputs": [
        {
          "internalType": "address[]",
          "name": "users_",
          "type": "address[]"
        }
      ],
      "name": "resetCheckpointsUsers",
      "outputs": [],
      "stateMutability": "nonpayable",
      "type": "function"
    },
    {
      "inputs": [],
      "name": "totalSupply",
      "outputs": [
        {
          "internalType": "uint256",
          "name": "",
          "type": "uint256"
        }
      ],
      "stateMutability": "view",
      "type": "function"
    },
    {
      "inputs": [
        {
          "internalType": "uint256",
          "name": "_blockNumber",
          "type": "uint256"
        }
      ],
      "name": "totalSupplyAt",
      "outputs": [
        {
          "internalType": "uint256",
          "name": "",
          "type": "uint256"
        }
      ],
      "stateMutability": "view",
      "type": "function"
    },
    {
      "inputs": [
        {
          "internalType": "address",
          "name": "newOwner",
          "type": "address"
        }
      ],
      "name": "transferOwnership",
      "outputs": [],
      "stateMutability": "nonpayable",
      "type": "function"
    },
    {
      "inputs": [
        {
          "internalType": "uint256",
          "name": "new_interval_",
          "type": "uint256"
        }
      ],
      "name": "updateCheckpointInterval",
      "outputs": [],
      "stateMutability": "nonpayable",
      "type": "function"
    },
    {
      "inputs": [
        {
          "internalType": "uint256",
          "name": "new_global_interval_",
          "type": "uint256"
        }
      ],
      "name": "updateGlobalCheckpointInterval",
      "outputs": [],
      "stateMutability": "nonpayable",
      "type": "function"
    }
  ],
  "bytecode": "0x60806040526000805460ff60a01b1916600960a11b17905562030d406001556103e860025534801561003057600080fd5b5061003a3361003f565b61008f565b600080546001600160a01b038381166001600160a01b0319831681178455604051919092169283917f8be0079c531659141344cd1fd0a4f28419497f9722a3daafe3b4186f6b6457e09190a35050565b6114748061009e6000396000f3fe608060405234801561001057600080fd5b50600436106101425760003560e01c806370a08231116100b85780639dc29fac1161007c5780639dc29fac146102a8578063ad851cee146102bb578063ade4dcfb146102c3578063df96309f146102d6578063ea4c303f146102f9578063f2fde38b1461030157600080fd5b806370a0823114610260578063715018a6146102735780638da5cb5b1461027b5780638e289a8a1461028c578063981b24d01461029557600080fd5b8063313ce5671161010a578063313ce567146101cd57806340c10f19146101f35780634104f64f146102065780634ee2cd7e1461020f5780634f82517c14610222578063703980ff1461024d57600080fd5b806307ea5477146101475780630e4498c21461016f5780631015ebc81461018f57806318160ddd146101a457806318eeabe6146101ba575b600080fd5b61015a6101553660046111da565b610314565b60405190151581526020015b60405180910390f35b61018261017d366004611295565b6105dd565b60405161016691906112b7565b6101a261019d366004611304565b610767565b005b6101ac6107c5565b604051908152602001610166565b6101a26101c836600461131d565b6107d5565b6000546101e190600160a01b900460ff1681565b60405160ff9091168152602001610166565b61015a61020136600461135a565b61083f565b6101ac60015481565b6101ac61021d36600461135a565b610995565b610235610230366004611304565b610a2b565b6040516001600160a01b039091168152602001610166565b6101a261025b36600461131d565b610a55565b6101ac61026e366004611384565b610b69565b6101a2610b75565b6000546001600160a01b0316610235565b6101ac60025481565b6101ac6102a3366004611304565b610b89565b61015a6102b636600461135a565b610bdf565b6101a2610c93565b6101a26102d1366004611304565b610ca7565b61015a6102e4366004611384565b60046020526000908152604090205460ff1681565b6003546101ac565b6101a261030f366004611384565b610d05565b600061031e610d7e565b60005b83518110156105d15760006103346107c5565b905080848381518110610349576103496113a6565b60200260200101518261035c91906113d2565b101561036757600080fd5b600061038b86848151811061037e5761037e6113a6565b6020026020010151610b69565b9050808584815181106103a0576103a06113a6565b6020026020010151826103b391906113d2565b10156103be57600080fd5b6103f060068685815181106103d5576103d56113a6565b6020026020010151846103e891906113d2565b600254610dd8565b61045e60056000888681518110610409576104096113a6565b60200260200101516001600160a01b03166001600160a01b03168152602001908152602001600020868581518110610443576104436113a6565b60200260200101518361045691906113d2565b600154610dd8565b60046000878581518110610474576104746113a6565b6020908102919091018101516001600160a01b031682528101919091526040016000205460ff166105475760038684815181106104b3576104b36113a6565b60209081029190910181015182546001808201855560009485529284200180546001600160a01b0319166001600160a01b0390921691909117905587519091600491899087908110610507576105076113a6565b60200260200101516001600160a01b03166001600160a01b0316815260200190815260200160002060006101000a81548160ff0219169083151502179055505b858381518110610559576105596113a6565b60200260200101516001600160a01b03167f0f6798a560793a54c3bcfe86a93cde1e73087d944c0ea20544137d412139688586858151811061059d5761059d6113a6565b60200260200101516040516105b491815260200190565b60405180910390a2505080806105c9906113ea565b915050610321565b50600190505b92915050565b6060828210156106285760405162461bcd60e51b8152602060048201526011602482015270205f42206d757374206265203e3d205f4160781b60448201526064015b60405180910390fd5b60035461063790600190611405565b82111561067d5760405162461bcd60e51b815260206004820152601460248201527320425f206973206f7574206f6620626f756e647360601b604482015260640161061f565b60006106898484611405565b6106949060016113d2565b905060008167ffffffffffffffff8111156106b1576106b16110e6565b6040519080825280602002602001820160405280156106da578160200160208202803683370190505b50905060005b8281101561075e5760036106f487836113d2565b81548110610704576107046113a6565b9060005260206000200160009054906101000a90046001600160a01b0316828281518110610734576107346113a6565b6001600160a01b039092166020928302919091019091015280610756816113ea565b9150506106e0565b50949350505050565b61076f610d7e565b6103e881116107c05760405162461bcd60e51b815260206004820152601b60248201527f6e657720696e74657276616c206d757374206265203e20313030300000000000604482015260640161061f565b600255565b60006107d043610b89565b905090565b6107dd610d7e565b60005b815181101561083b5760008282815181106107fd576107fd6113a6565b6020908102919091018101516001600160a01b03166000908152600490915260409020805460ff191690555080610833816113ea565b9150506107e0565b5050565b6000610849610d7e565b60006108536107c5565b90508061086084826113d2565b101561086b57600080fd5b600061087685610b69565b90508061088385826113d2565b101561088e57600080fd5b6001600160a01b03851660009081526004602052604090205460ff16610912576003805460018082019092557fc2575a0e9e593c00f959f8c92f12db2869c3395a3b0502d05e2516446f71f85b0180546001600160a01b0319166001600160a01b0388169081179091556000908152600460205260409020805460ff191690911790555b61092160066103e886856113d2565b6001600160a01b03851660009081526005602052604090206109479061045686846113d2565b846001600160a01b03167f0f6798a560793a54c3bcfe86a93cde1e73087d944c0ea20544137d41213968858560405161098291815260200190565b60405180910390a2506001949350505050565b6001600160a01b03821660009081526005602052604081205415806109f557506001600160a01b038316600090815260056020526040812080548492906109de576109de6113a6565b6000918252602090912001546001600160801b0316115b15610a02575060006105d7565b6001600160a01b0383166000908152600560205260409020610a249083610edb565b90506105d7565b60038181548110610a3b57600080fd5b6000918252602090912001546001600160a01b0316905081565b610a5d610d7e565b60005b815181101561083b576000828281518110610a7d57610a7d6113a6565b602002602001015190506000610a9282610b69565b6001600160a01b0383166000908152600560205260408120919250610ab791906110b4565b6001600160a01b0382166000908152600560205260409020600154610ade91908390610dd8565b80610ae883610b69565b14610b545760405162461bcd60e51b815260206004820152603660248201527f52657075746174696f6e3a206e6f742070726573657276656420647572696e67604482015275207265736574436865636b706f696e7473557365727360501b606482015260840161061f565b50508080610b61906113ea565b915050610a60565b60006105d78243610995565b610b7d610d7e565b610b876000611064565b565b6006546000901580610bc25750816006600081548110610bab57610bab6113a6565b6000918252602090912001546001600160801b0316115b15610bcf57506000919050565b6105d7600683610edb565b919050565b6000610be9610d7e565b6000610bf36107c5565b9050826000610c0186610b69565b905081811015610c0f578091505b610c1e60066103e88486611405565b6001600160a01b0386166000908152600560205260409020610c44906104568484611405565b856001600160a01b03167fcc16f5dbb4873280815c1ee09dbd06736cffcc184412cf7a71a0fdb75d397ca583604051610c7f91815260200190565b60405180910390a250600195945050505050565b610c9b610d7e565b610b87600360006110b4565b610caf610d7e565b6103e88111610d005760405162461bcd60e51b815260206004820152601b60248201527f6e657720696e74657276616c206d757374206265203e20313030300000000000604482015260640161061f565b600155565b610d0d610d7e565b6001600160a01b038116610d725760405162461bcd60e51b815260206004820152602660248201527f4f776e61626c653a206e6577206f776e657220697320746865207a65726f206160448201526564647265737360d01b606482015260840161061f565b610d7b81611064565b50565b6000546001600160a01b03163314610b875760405162461bcd60e51b815260206004820181905260248201527f4f776e61626c653a2063616c6c6572206973206e6f7420746865206f776e6572604482015260640161061f565b81826001600160801b031614610ded57600080fd5b82541580610e4157508043118015610e415750610e0a8143611405565b83548490610e1a90600190611405565b81548110610e2a57610e2a6113a6565b6000918252602090912001546001600160801b0316105b15610e8f5750604080518082019091526001600160801b0343811682529182166020808301918252845460018101865560009586529420915190518316600160801b02921691909117910155565b82546000908490610ea290600190611405565b81548110610eb257610eb26113a6565b600091825260209091200180546001600160801b03808616600160801b02911617905550505050565b8154600090610eec575060006105d7565b82548390610efc90600190611405565b81548110610f0c57610f0c6113a6565b6000918252602090912001546001600160801b03168210610f6a5782548390610f3790600190611405565b81548110610f4757610f476113a6565b600091825260209091200154600160801b90046001600160801b031690506105d7565b82600081548110610f7d57610f7d6113a6565b6000918252602090912001546001600160801b0316821015610fa1575060006105d7565b82546000908190610fb490600190611405565b90505b8181111561102d5760006002610fcd84846113d2565b610fd89060016113d2565b610fe2919061141c565b905084868281548110610ff757610ff76113a6565b6000918252602090912001546001600160801b03161161101957809250611027565b611024600182611405565b91505b50610fb7565b84828154811061103f5761103f6113a6565b600091825260209091200154600160801b90046001600160801b031695945050505050565b600080546001600160a01b038381166001600160a01b0319831681178455604051919092169283917f8be0079c531659141344cd1fd0a4f28419497f9722a3daafe3b4186f6b6457e09190a35050565b5080546000825590600052602060002090810190610d7b91905b808211156110e257600081556001016110ce565b5090565b634e487b7160e01b600052604160045260246000fd5b604051601f8201601f1916810167ffffffffffffffff81118282101715611125576111256110e6565b604052919050565b600067ffffffffffffffff821115611147576111476110e6565b5060051b60200190565b80356001600160a01b0381168114610bda57600080fd5b600082601f83011261117957600080fd5b8135602061118e6111898361112d565b6110fc565b82815260059290921b840181019181810190868411156111ad57600080fd5b8286015b848110156111cf576111c281611151565b83529183019183016111b1565b509695505050505050565b600080604083850312156111ed57600080fd5b823567ffffffffffffffff8082111561120557600080fd5b61121186838701611168565b935060209150818501358181111561122857600080fd5b85019050601f8101861361123b57600080fd5b80356112496111898261112d565b81815260059190911b8201830190838101908883111561126857600080fd5b928401925b828410156112865783358252928401929084019061126d565b80955050505050509250929050565b600080604083850312156112a857600080fd5b50508035926020909101359150565b6020808252825182820181905260009190848201906040850190845b818110156112f85783516001600160a01b0316835292840192918401916001016112d3565b50909695505050505050565b60006020828403121561131657600080fd5b5035919050565b60006020828403121561132f57600080fd5b813567ffffffffffffffff81111561134657600080fd5b61135284828501611168565b949350505050565b6000806040838503121561136d57600080fd5b61137683611151565b946020939093013593505050565b60006020828403121561139657600080fd5b61139f82611151565b9392505050565b634e487b7160e01b600052603260045260246000fd5b634e487b7160e01b600052601160045260246000fd5b600082198211156113e5576113e56113bc565b500190565b60006000198214156113fe576113fe6113bc565b5060010190565b600082821015611417576114176113bc565b500390565b60008261143957634e487b7160e01b600052601260045260246000fd5b50049056fea2646970667358221220c1ae9e70dd0170a4f32fe94d3f4e45b249aa1375652b745e94a76ebbbea598d664736f6c63430008080033",
  "linkReferences": {},
  "deployedLinkReferences": {}
}