{
  "_format": "hh-sol-artifact-1",
  "contractName": "Reputation",
  "sourceName": "contracts/daostack/controller/Reputation.sol",
  "abi": [
    {
      "anonymous": false,
      "inputs": [
        {
          "indexed": true,
          "internalType": "address",
          "name": "_from",
          "type": "address"
        },
        {
          "indexed": false,
          "internalType": "uint256",
          "name": "_amount",
          "type": "uint256"
        }
      ],
      "name": "Burn",
      "type": "event"
    },
    {
      "anonymous": false,
      "inputs": [
        {
          "indexed": true,
          "internalType": "address",
          "name": "_to",
          "type": "address"
        },
        {
          "indexed": false,
          "internalType": "uint256",
          "name": "_amount",
          "type": "uint256"
        }
      ],
      "name": "Mint",
      "type": "event"
    },
    {
      "anonymous": false,
      "inputs": [
        {
          "indexed": true,
          "internalType": "address",
          "name": "previousOwner",
          "type": "address"
        },
        {
          "indexed": true,
          "internalType": "address",
          "name": "newOwner",
          "type": "address"
        }
      ],
      "name": "OwnershipTransferred",
      "type": "event"
    },
    {
      "inputs": [
        {
          "internalType": "address",
          "name": "",
          "type": "address"
        }
      ],
      "name": "IsAddressSeen",
      "outputs": [
        {
          "internalType": "bool",
          "name": "",
          "type": "bool"
        }
      ],
      "stateMutability": "view",
      "type": "function"
    },
    {
      "inputs": [
        {
          "internalType": "uint256",
          "name": "",
          "type": "uint256"
        }
      ],
      "name": "_addresses",
      "outputs": [
        {
          "internalType": "address",
          "name": "",
          "type": "address"
        }
      ],
      "stateMutability": "view",
      "type": "function"
    },
    {
      "inputs": [
        {
          "internalType": "address",
          "name": "_owner",
          "type": "address"
        }
      ],
      "name": "balanceOf",
      "outputs": [
        {
          "internalType": "uint256",
          "name": "balance",
          "type": "uint256"
        }
      ],
      "stateMutability": "view",
      "type": "function"
    },
    {
      "inputs": [
        {
          "internalType": "address",
          "name": "_owner",
          "type": "address"
        },
        {
          "internalType": "uint256",
          "name": "_blockNumber",
          "type": "uint256"
        }
      ],
      "name": "balanceOfAt",
      "outputs": [
        {
          "internalType": "uint256",
          "name": "",
          "type": "uint256"
        }
      ],
      "stateMutability": "view",
      "type": "function"
    },
    {
      "inputs": [
        {
          "internalType": "address",
          "name": "_user",
          "type": "address"
        },
        {
          "internalType": "uint256",
          "name": "_amount",
          "type": "uint256"
        }
      ],
      "name": "burn",
      "outputs": [
        {
          "internalType": "bool",
          "name": "",
          "type": "bool"
        }
      ],
      "stateMutability": "nonpayable",
      "type": "function"
    },
    {
      "inputs": [],
      "name": "checkpoint_interval",
      "outputs": [
        {
          "internalType": "uint256",
          "name": "",
          "type": "uint256"
        }
      ],
      "stateMutability": "view",
      "type": "function"
    },
    {
      "inputs": [],
      "name": "decimals",
      "outputs": [
        {
          "internalType": "uint8",
          "name": "",
          "type": "uint8"
        }
      ],
      "stateMutability": "view",
      "type": "function"
    },
    {
      "inputs": [],
      "name": "destroyContract",
      "outputs": [],
      "stateMutability": "nonpayable",
      "type": "function"
    },
    {
      "inputs": [
        {
          "internalType": "uint256",
          "name": "A_",
          "type": "uint256"
        },
        {
          "internalType": "uint256",
          "name": "B_",
          "type": "uint256"
        }
      ],
      "name": "getAllWorkersBetweenIndex",
      "outputs": [
        {
          "internalType": "address[]",
          "name": "workers",
          "type": "address[]"
        }
      ],
      "stateMutability": "view",
      "type": "function"
    },
    {
      "inputs": [],
      "name": "getAllWorkersLength",
      "outputs": [
        {
          "internalType": "uint256",
          "name": "length",
          "type": "uint256"
        }
      ],
      "stateMutability": "view",
      "type": "function"
    },
    {
      "inputs": [],
      "name": "global_checkpoint_interval",
      "outputs": [
        {
          "internalType": "uint256",
          "name": "",
          "type": "uint256"
        }
      ],
      "stateMutability": "view",
      "type": "function"
    },
    {
      "inputs": [
        {
          "internalType": "address",
          "name": "_user",
          "type": "address"
        },
        {
          "internalType": "uint256",
          "name": "_amount",
          "type": "uint256"
        }
      ],
      "name": "mint",
      "outputs": [
        {
          "internalType": "bool",
          "name": "",
          "type": "bool"
        }
      ],
      "stateMutability": "nonpayable",
      "type": "function"
    },
    {
      "inputs": [
        {
          "internalType": "address[]",
          "name": "_user",
          "type": "address[]"
        },
        {
          "internalType": "uint256[]",
          "name": "_amount",
          "type": "uint256[]"
        }
      ],
      "name": "mintMultiple",
      "outputs": [
        {
          "internalType": "bool",
          "name": "",
          "type": "bool"
        }
      ],
      "stateMutability": "nonpayable",
      "type": "function"
    },
    {
      "inputs": [],
      "name": "owner",
      "outputs": [
        {
          "internalType": "address",
          "name": "",
          "type": "address"
        }
      ],
      "stateMutability": "view",
      "type": "function"
    },
    {
      "inputs": [],
      "name": "renounceOwnership",
      "outputs": [],
      "stateMutability": "nonpayable",
      "type": "function"
    },
    {
      "inputs": [],
      "name": "totalSupply",
      "outputs": [
        {
          "internalType": "uint256",
          "name": "",
          "type": "uint256"
        }
      ],
      "stateMutability": "view",
      "type": "function"
    },
    {
      "inputs": [
        {
          "internalType": "uint256",
          "name": "_blockNumber",
          "type": "uint256"
        }
      ],
      "name": "totalSupplyAt",
      "outputs": [
        {
          "internalType": "uint256",
          "name": "",
          "type": "uint256"
        }
      ],
      "stateMutability": "view",
      "type": "function"
    },
    {
      "inputs": [
        {
          "internalType": "address",
          "name": "newOwner",
          "type": "address"
        }
      ],
      "name": "transferOwnership",
      "outputs": [],
      "stateMutability": "nonpayable",
      "type": "function"
    },
    {
      "inputs": [
        {
          "internalType": "uint256",
          "name": "new_interval_",
          "type": "uint256"
        }
      ],
      "name": "updateCheckpointInterval",
      "outputs": [],
      "stateMutability": "nonpayable",
      "type": "function"
    },
    {
      "inputs": [
        {
          "internalType": "uint256",
          "name": "new_global_interval_",
          "type": "uint256"
        }
      ],
      "name": "updateGlobalCheckpointInterval",
      "outputs": [],
      "stateMutability": "nonpayable",
      "type": "function"
    }
  ],
  "bytecode": "0x60806040526000805460ff60a01b1916600960a11b17905562030d406001556103e860025534801561003057600080fd5b5061003a3361003f565b61008f565b600080546001600160a01b038381166001600160a01b0319831681178455604051919092169283917f8be0079c531659141344cd1fd0a4f28419497f9722a3daafe3b4186f6b6457e09190a35050565b6111628061009e6000396000f3fe608060405234801561001057600080fd5b506004361061012c5760003560e01c806369d0433b116100ad578063981b24d011610071578063981b24d0146102695780639dc29fac1461027c578063ade4dcfb1461028f578063df96309f146102a2578063f2fde38b146102c557600080fd5b806369d0433b1461022c57806370a0823114610234578063715018a6146102475780638da5cb5b1461024f5780638e289a8a1461026057600080fd5b8063313ce567116100f4578063313ce567146101ac57806340c10f19146101d25780634104f64f146101e55780634ee2cd7e146101ee5780634f82517c1461020157600080fd5b806307ea547714610131578063092a5cce146101595780630e4498c2146101635780631015ebc81461018357806318160ddd14610196575b600080fd5b61014461013f366004610f00565b6102d8565b60405190151581526020015b60405180910390f35b6101616104b8565b005b610176610171366004610fc0565b6104ce565b6040516101509190610fe2565b61016161019136600461102f565b610658565b61019e6106b6565b604051908152602001610150565b6000546101c090600160a01b900460ff1681565b60405160ff9091168152602001610150565b6101446101e0366004611048565b6106c6565b61019e60015481565b61019e6101fc366004611048565b61081c565b61021461020f36600461102f565b6108b2565b6040516001600160a01b039091168152602001610150565b60035461019e565b61019e610242366004611072565b6108dc565b6101616108e8565b6000546001600160a01b0316610214565b61019e60025481565b61019e61027736600461102f565b6108fc565b61014461028a366004611048565b610952565b61016161029d36600461102f565b610a06565b6101446102b0366004611072565b60046020526000908152604090205460ff1681565b6101616102d3366004611072565b610a64565b60006102e2610add565b60005b83518110156104ac5760006102f86106b6565b90508084838151811061030d5761030d611094565b60200260200101518261032091906110c0565b101561032b57600080fd5b600061034f86848151811061034257610342611094565b60200260200101516108dc565b90508085848151811061036457610364611094565b60200260200101518261037791906110c0565b101561038257600080fd5b6103b4600686858151811061039957610399611094565b6020026020010151846103ac91906110c0565b600254610b37565b610422600560008886815181106103cd576103cd611094565b60200260200101516001600160a01b03166001600160a01b0316815260200190815260200160002086858151811061040757610407611094565b60200260200101518361041a91906110c0565b600154610b37565b85838151811061043457610434611094565b60200260200101516001600160a01b03167f0f6798a560793a54c3bcfe86a93cde1e73087d944c0ea20544137d412139688586858151811061047857610478611094565b602002602001015160405161048f91815260200190565b60405180910390a2505080806104a4906110d8565b9150506102e5565b50600190505b92915050565b6104c0610add565b6000546001600160a01b0316ff5b6060828210156105195760405162461bcd60e51b8152602060048201526011602482015270205f42206d757374206265203e3d205f4160781b60448201526064015b60405180910390fd5b600354610528906001906110f3565b82111561056e5760405162461bcd60e51b815260206004820152601460248201527320425f206973206f7574206f6620626f756e647360601b6044820152606401610510565b600061057a84846110f3565b6105859060016110c0565b905060008167ffffffffffffffff8111156105a2576105a2610e13565b6040519080825280602002602001820160405280156105cb578160200160208202803683370190505b50905060005b8281101561064f5760036105e587836110c0565b815481106105f5576105f5611094565b9060005260206000200160009054906101000a90046001600160a01b031682828151811061062557610625611094565b6001600160a01b039092166020928302919091019091015280610647816110d8565b9150506105d1565b50949350505050565b610660610add565b6103e881116106b15760405162461bcd60e51b815260206004820152601b60248201527f6e657720696e74657276616c206d757374206265203e203130303000000000006044820152606401610510565b600255565b60006106c1436108fc565b905090565b60006106d0610add565b60006106da6106b6565b9050806106e784826110c0565b10156106f257600080fd5b60006106fd856108dc565b90508061070a85826110c0565b101561071557600080fd5b6001600160a01b03851660009081526004602052604090205460ff16610799576003805460018082019092557fc2575a0e9e593c00f959f8c92f12db2869c3395a3b0502d05e2516446f71f85b0180546001600160a01b0319166001600160a01b0388169081179091556000908152600460205260409020805460ff191690911790555b6107a860066103ac86856110c0565b6001600160a01b03851660009081526005602052604090206107ce9061041a86846110c0565b846001600160a01b03167f0f6798a560793a54c3bcfe86a93cde1e73087d944c0ea20544137d41213968858560405161080991815260200190565b60405180910390a2506001949350505050565b6001600160a01b038216600090815260056020526040812054158061087c57506001600160a01b0383166000908152600560205260408120805484929061086557610865611094565b6000918252602090912001546001600160801b0316115b15610889575060006104b2565b6001600160a01b03831660009081526005602052604090206108ab9083610c3a565b90506104b2565b600381815481106108c257600080fd5b6000918252602090912001546001600160a01b0316905081565b60006104b2824361081c565b6108f0610add565b6108fa6000610dc3565b565b6006546000901580610935575081600660008154811061091e5761091e611094565b6000918252602090912001546001600160801b0316115b1561094257506000919050565b6104b2600683610c3a565b919050565b600061095c610add565b60006109666106b6565b9050826000610974866108dc565b905081811015610982578091505b61099160066103ac84866110f3565b6001600160a01b03861660009081526005602052604090206109b79061041a84846110f3565b856001600160a01b03167fcc16f5dbb4873280815c1ee09dbd06736cffcc184412cf7a71a0fdb75d397ca5836040516109f291815260200190565b60405180910390a250600195945050505050565b610a0e610add565b6103e88111610a5f5760405162461bcd60e51b815260206004820152601b60248201527f6e657720696e74657276616c206d757374206265203e203130303000000000006044820152606401610510565b600155565b610a6c610add565b6001600160a01b038116610ad15760405162461bcd60e51b815260206004820152602660248201527f4f776e61626c653a206e6577206f776e657220697320746865207a65726f206160448201526564647265737360d01b6064820152608401610510565b610ada81610dc3565b50565b6000546001600160a01b031633146108fa5760405162461bcd60e51b815260206004820181905260248201527f4f776e61626c653a2063616c6c6572206973206e6f7420746865206f776e65726044820152606401610510565b81826001600160801b031614610b4c57600080fd5b82541580610ba057508043118015610ba05750610b6981436110f3565b83548490610b79906001906110f3565b81548110610b8957610b89611094565b6000918252602090912001546001600160801b0316105b15610bee5750604080518082019091526001600160801b0343811682529182166020808301918252845460018101865560009586529420915190518316600160801b02921691909117910155565b82546000908490610c01906001906110f3565b81548110610c1157610c11611094565b600091825260209091200180546001600160801b03808616600160801b02911617905550505050565b8154600090610c4b575060006104b2565b82548390610c5b906001906110f3565b81548110610c6b57610c6b611094565b6000918252602090912001546001600160801b03168210610cc95782548390610c96906001906110f3565b81548110610ca657610ca6611094565b600091825260209091200154600160801b90046001600160801b031690506104b2565b82600081548110610cdc57610cdc611094565b6000918252602090912001546001600160801b0316821015610d00575060006104b2565b82546000908190610d13906001906110f3565b90505b81811115610d8c5760006002610d2c84846110c0565b610d379060016110c0565b610d41919061110a565b905084868281548110610d5657610d56611094565b6000918252602090912001546001600160801b031611610d7857809250610d86565b610d836001826110f3565b91505b50610d16565b848281548110610d9e57610d9e611094565b600091825260209091200154600160801b90046001600160801b031695945050505050565b600080546001600160a01b038381166001600160a01b0319831681178455604051919092169283917f8be0079c531659141344cd1fd0a4f28419497f9722a3daafe3b4186f6b6457e09190a35050565b634e487b7160e01b600052604160045260246000fd5b604051601f8201601f1916810167ffffffffffffffff81118282101715610e5257610e52610e13565b604052919050565b600067ffffffffffffffff821115610e7457610e74610e13565b5060051b60200190565b80356001600160a01b038116811461094d57600080fd5b600082601f830112610ea657600080fd5b81356020610ebb610eb683610e5a565b610e29565b82815260059290921b84018101918181019086841115610eda57600080fd5b8286015b84811015610ef55780358352918301918301610ede565b509695505050505050565b60008060408385031215610f1357600080fd5b823567ffffffffffffffff80821115610f2b57600080fd5b818501915085601f830112610f3f57600080fd5b81356020610f4f610eb683610e5a565b82815260059290921b84018101918181019089841115610f6e57600080fd5b948201945b83861015610f9357610f8486610e7e565b82529482019490820190610f73565b96505086013592505080821115610fa957600080fd5b50610fb685828601610e95565b9150509250929050565b60008060408385031215610fd357600080fd5b50508035926020909101359150565b6020808252825182820181905260009190848201906040850190845b818110156110235783516001600160a01b031683529284019291840191600101610ffe565b50909695505050505050565b60006020828403121561104157600080fd5b5035919050565b6000806040838503121561105b57600080fd5b61106483610e7e565b946020939093013593505050565b60006020828403121561108457600080fd5b61108d82610e7e565b9392505050565b634e487b7160e01b600052603260045260246000fd5b634e487b7160e01b600052601160045260246000fd5b600082198211156110d3576110d36110aa565b500190565b60006000198214156110ec576110ec6110aa565b5060010190565b600082821015611105576111056110aa565b500390565b60008261112757634e487b7160e01b600052601260045260246000fd5b50049056fea2646970667358221220ddabfcbaf38323ed552142707a1340025c0fcdc8f7439d36b191f46df6f05de464736f6c63430008080033",
  "linkReferences": {},
  "deployedLinkReferences": {}
}