{
  "_format": "hh-sol-artifact-1",
  "contractName": "DataIndexing",
  "sourceName": "contracts/worksystems/DataIndexing.sol",
  "abi": [
    {
      "inputs": [
        {
          "internalType": "address",
          "name": "EXDT_token_",
          "type": "address"
        }
      ],
      "stateMutability": "nonpayable",
      "type": "constructor"
    },
    {
      "anonymous": false,
      "inputs": [
        {
          "indexed": false,
          "internalType": "bytes",
          "name": "bytesFailure",
          "type": "bytes"
        }
      ],
      "name": "BytesFailure",
      "type": "event"
    },
    {
      "anonymous": false,
      "inputs": [
        {
          "indexed": true,
          "internalType": "address",
          "name": "previousOwner",
          "type": "address"
        },
        {
          "indexed": true,
          "internalType": "address",
          "name": "newOwner",
          "type": "address"
        }
      ],
      "name": "OwnershipTransferred",
      "type": "event"
    },
    {
      "anonymous": false,
      "inputs": [
        {
          "indexed": true,
          "internalType": "uint256",
          "name": "batchID",
          "type": "uint256"
        }
      ],
      "name": "_DataBatchDeleted",
      "type": "event"
    },
    {
      "anonymous": false,
      "inputs": [
        {
          "indexed": false,
          "internalType": "string",
          "name": "hash",
          "type": "string"
        },
        {
          "indexed": true,
          "internalType": "address",
          "name": "creator",
          "type": "address"
        }
      ],
      "name": "_IndexeredAccepted",
      "type": "event"
    },
    {
      "anonymous": false,
      "inputs": [
        {
          "indexed": true,
          "internalType": "uint256",
          "name": "DataID",
          "type": "uint256"
        },
        {
          "indexed": false,
          "internalType": "uint256",
          "name": "numTokens",
          "type": "uint256"
        },
        {
          "indexed": true,
          "internalType": "address",
          "name": "voter",
          "type": "address"
        }
      ],
      "name": "_IndexeredCheckCommitted",
      "type": "event"
    },
    {
      "anonymous": false,
      "inputs": [
        {
          "indexed": true,
          "internalType": "uint256",
          "name": "DataID",
          "type": "uint256"
        },
        {
          "indexed": false,
          "internalType": "uint256",
          "name": "numTokens",
          "type": "uint256"
        },
        {
          "indexed": false,
          "internalType": "uint256",
          "name": "votesFor",
          "type": "uint256"
        },
        {
          "indexed": false,
          "internalType": "uint256",
          "name": "votesAgainst",
          "type": "uint256"
        },
        {
          "indexed": true,
          "internalType": "uint256",
          "name": "choice",
          "type": "uint256"
        },
        {
          "indexed": true,
          "internalType": "address",
          "name": "voter",
          "type": "address"
        }
      ],
      "name": "_IndexeredCheckRevealed",
      "type": "event"
    },
    {
      "anonymous": false,
      "inputs": [
        {
          "indexed": true,
          "internalType": "uint256",
          "name": "DataID",
          "type": "uint256"
        },
        {
          "indexed": false,
          "internalType": "string",
          "name": "file_hash",
          "type": "string"
        },
        {
          "indexed": false,
          "internalType": "address",
          "name": "sender",
          "type": "address"
        }
      ],
      "name": "_IndexeredSubmitted",
      "type": "event"
    },
    {
      "anonymous": false,
      "inputs": [
        {
          "indexed": false,
          "internalType": "uint256",
          "name": "numTokens",
          "type": "uint256"
        },
        {
          "indexed": true,
          "internalType": "address",
          "name": "voter",
          "type": "address"
        }
      ],
      "name": "_StakeAllocated",
      "type": "event"
    },
    {
      "anonymous": false,
      "inputs": [
        {
          "indexed": true,
          "internalType": "uint256",
          "name": "DataID",
          "type": "uint256"
        },
        {
          "indexed": true,
          "internalType": "address",
          "name": "voter",
          "type": "address"
        }
      ],
      "name": "_TokensRescued",
      "type": "event"
    },
    {
      "anonymous": false,
      "inputs": [
        {
          "indexed": false,
          "internalType": "uint256",
          "name": "numTokens",
          "type": "uint256"
        },
        {
          "indexed": true,
          "internalType": "address",
          "name": "voter",
          "type": "address"
        }
      ],
      "name": "_VotingRightsWithdrawn",
      "type": "event"
    },
    {
      "anonymous": false,
      "inputs": [
        {
          "indexed": true,
          "internalType": "uint256",
          "name": "batchID",
          "type": "uint256"
        },
        {
          "indexed": false,
          "internalType": "address",
          "name": "worker",
          "type": "address"
        }
      ],
      "name": "_WorkAllocated",
      "type": "event"
    },
    {
      "anonymous": false,
      "inputs": [
        {
          "indexed": true,
          "internalType": "address",
          "name": "worker",
          "type": "address"
        },
        {
          "indexed": false,
          "internalType": "uint256",
          "name": "timestamp",
          "type": "uint256"
        }
      ],
      "name": "_WorkerRegistered",
      "type": "event"
    },
    {
      "anonymous": false,
      "inputs": [
        {
          "indexed": true,
          "internalType": "address",
          "name": "worker",
          "type": "address"
        },
        {
          "indexed": false,
          "internalType": "uint256",
          "name": "timestamp",
          "type": "uint256"
        }
      ],
      "name": "_WorkerUnregistered",
      "type": "event"
    },
    {
      "inputs": [],
      "name": "AcceptedBatchsCounter",
      "outputs": [
        {
          "internalType": "uint256",
          "name": "",
          "type": "uint256"
        }
      ],
      "stateMutability": "view",
      "type": "function"
    },
    {
      "inputs": [],
      "name": "AddressManager",
      "outputs": [
        {
          "internalType": "contract IAddressManager",
          "name": "",
          "type": "address"
        }
      ],
      "stateMutability": "view",
      "type": "function"
    },
    {
      "inputs": [],
      "name": "AllTxsCounter",
      "outputs": [
        {
          "internalType": "uint256",
          "name": "",
          "type": "uint256"
        }
      ],
      "stateMutability": "view",
      "type": "function"
    },
    {
      "inputs": [],
      "name": "AllocateWork",
      "outputs": [],
      "stateMutability": "nonpayable",
      "type": "function"
    },
    {
      "inputs": [],
      "name": "AllocatedBatchCursor",
      "outputs": [
        {
          "internalType": "uint256",
          "name": "",
          "type": "uint256"
        }
      ],
      "stateMutability": "view",
      "type": "function"
    },
    {
      "inputs": [],
      "name": "AmIRegistered",
      "outputs": [
        {
          "internalType": "bool",
          "name": "passed",
          "type": "bool"
        }
      ],
      "stateMutability": "view",
      "type": "function"
    },
    {
      "inputs": [],
      "name": "ArchiveSystem",
      "outputs": [
        {
          "internalType": "contract IArchiveSystem",
          "name": "",
          "type": "address"
        }
      ],
      "stateMutability": "view",
      "type": "function"
    },
    {
      "inputs": [
        {
          "internalType": "string",
          "name": "_a",
          "type": "string"
        },
        {
          "internalType": "string",
          "name": "_b",
          "type": "string"
        }
      ],
      "name": "AreStringsEqual",
      "outputs": [
        {
          "internalType": "bool",
          "name": "",
          "type": "bool"
        }
      ],
      "stateMutability": "pure",
      "type": "function"
    },
    {
      "inputs": [],
      "name": "BatchCheckingCursor",
      "outputs": [
        {
          "internalType": "uint256",
          "name": "",
          "type": "uint256"
        }
      ],
      "stateMutability": "view",
      "type": "function"
    },
    {
      "inputs": [],
      "name": "BatchDeletionCursor",
      "outputs": [
        {
          "internalType": "uint256",
          "name": "",
          "type": "uint256"
        }
      ],
      "stateMutability": "view",
      "type": "function"
    },
    {
      "inputs": [
        {
          "internalType": "uint256",
          "name": "",
          "type": "uint256"
        }
      ],
      "name": "CollectedSpotBatchs",
      "outputs": [
        {
          "internalType": "bool",
          "name": "",
          "type": "bool"
        }
      ],
      "stateMutability": "view",
      "type": "function"
    },
    {
      "inputs": [
        {
          "internalType": "uint256",
          "name": "",
          "type": "uint256"
        }
      ],
      "name": "DataBatch",
      "outputs": [
        {
          "internalType": "uint256",
          "name": "start_idx",
          "type": "uint256"
        },
        {
          "internalType": "uint256",
          "name": "counter",
          "type": "uint256"
        },
        {
          "internalType": "uint256",
          "name": "uncommited_workers",
          "type": "uint256"
        },
        {
          "internalType": "uint256",
          "name": "unrevealed_workers",
          "type": "uint256"
        },
        {
          "internalType": "uint256",
          "name": "item_count",
          "type": "uint256"
        },
        {
          "internalType": "bool",
          "name": "complete",
          "type": "bool"
        },
        {
          "internalType": "bool",
          "name": "checked",
          "type": "bool"
        },
        {
          "internalType": "bool",
          "name": "allocated_to_work",
          "type": "bool"
        },
        {
          "internalType": "uint256",
          "name": "commitEndDate",
          "type": "uint256"
        },
        {
          "internalType": "uint256",
          "name": "revealEndDate",
          "type": "uint256"
        },
        {
          "internalType": "uint256",
          "name": "votesFor",
          "type": "uint256"
        },
        {
          "internalType": "uint256",
          "name": "votesAgainst",
          "type": "uint256"
        },
        {
          "internalType": "string",
          "name": "batchIPFSfile",
          "type": "string"
        },
        {
          "internalType": "enum DataIndexing.DataStatus",
          "name": "status",
          "type": "uint8"
        }
      ],
      "stateMutability": "view",
      "type": "function"
    },
    {
      "inputs": [
        {
          "internalType": "uint256",
          "name": "_DataBatchId",
          "type": "uint256"
        }
      ],
      "name": "DataCommitEndDate",
      "outputs": [
        {
          "internalType": "uint256",
          "name": "commitEndDate",
          "type": "uint256"
        }
      ],
      "stateMutability": "view",
      "type": "function"
    },
    {
      "inputs": [
        {
          "internalType": "uint256",
          "name": "_DataBatchId",
          "type": "uint256"
        }
      ],
      "name": "DataEnded",
      "outputs": [
        {
          "internalType": "bool",
          "name": "ended",
          "type": "bool"
        }
      ],
      "stateMutability": "view",
      "type": "function"
    },
    {
      "inputs": [
        {
          "internalType": "uint256",
          "name": "_DataBatchId",
          "type": "uint256"
        }
      ],
      "name": "DataExists",
      "outputs": [
        {
          "internalType": "bool",
          "name": "exists",
          "type": "bool"
        }
      ],
      "stateMutability": "view",
      "type": "function"
    },
    {
      "inputs": [],
      "name": "DataNonce",
      "outputs": [
        {
          "internalType": "uint256",
          "name": "",
          "type": "uint256"
        }
      ],
      "stateMutability": "view",
      "type": "function"
    },
    {
      "inputs": [
        {
          "internalType": "uint256",
          "name": "_DataBatchId",
          "type": "uint256"
        }
      ],
      "name": "DataRevealEndDate",
      "outputs": [
        {
          "internalType": "uint256",
          "name": "revealEndDate",
          "type": "uint256"
        }
      ],
      "stateMutability": "view",
      "type": "function"
    },
    {
      "inputs": [
        {
          "internalType": "address",
          "name": "user_",
          "type": "address"
        }
      ],
      "name": "GetCurrentWork",
      "outputs": [
        {
          "internalType": "uint256",
          "name": "",
          "type": "uint256"
        }
      ],
      "stateMutability": "view",
      "type": "function"
    },
    {
      "inputs": [
        {
          "internalType": "address",
          "name": "",
          "type": "address"
        }
      ],
      "name": "IndexeredStakedTokenBalance",
      "outputs": [
        {
          "internalType": "uint256",
          "name": "",
          "type": "uint256"
        }
      ],
      "stateMutability": "view",
      "type": "function"
    },
    {
      "inputs": [
        {
          "internalType": "uint256",
          "name": "",
          "type": "uint256"
        }
      ],
      "name": "IndexeredsMapping",
      "outputs": [
        {
          "internalType": "string",
          "name": "ipfs_hash",
          "type": "string"
        },
        {
          "internalType": "address",
          "name": "author",
          "type": "address"
        },
        {
          "internalType": "uint256",
          "name": "timestamp",
          "type": "uint256"
        },
        {
          "internalType": "enum DataIndexing.DataStatus",
          "name": "status",
          "type": "uint8"
        }
      ],
      "stateMutability": "view",
      "type": "function"
    },
    {
      "inputs": [
        {
          "internalType": "address",
          "name": "user_",
          "type": "address"
        }
      ],
      "name": "IsNewWorkAvailable",
      "outputs": [
        {
          "internalType": "bool",
          "name": "",
          "type": "bool"
        }
      ],
      "stateMutability": "view",
      "type": "function"
    },
    {
      "inputs": [],
      "name": "LastBatchCounter",
      "outputs": [
        {
          "internalType": "uint256",
          "name": "",
          "type": "uint256"
        }
      ],
      "stateMutability": "view",
      "type": "function"
    },
    {
      "inputs": [
        {
          "internalType": "address",
          "name": "",
          "type": "address"
        },
        {
          "internalType": "uint256",
          "name": "",
          "type": "uint256"
        }
      ],
      "name": "MasterWorkers",
      "outputs": [
        {
          "internalType": "address",
          "name": "",
          "type": "address"
        }
      ],
      "stateMutability": "view",
      "type": "function"
    },
    {
      "inputs": [],
      "name": "NotCommitedCounter",
      "outputs": [
        {
          "internalType": "uint256",
          "name": "",
          "type": "uint256"
        }
      ],
      "stateMutability": "view",
      "type": "function"
    },
    {
      "inputs": [],
      "name": "NotRevealedCounter",
      "outputs": [
        {
          "internalType": "uint256",
          "name": "",
          "type": "uint256"
        }
      ],
      "stateMutability": "view",
      "type": "function"
    },
    {
      "inputs": [],
      "name": "Parameters",
      "outputs": [
        {
          "internalType": "contract IParametersManager",
          "name": "",
          "type": "address"
        }
      ],
      "stateMutability": "view",
      "type": "function"
    },
    {
      "inputs": [
        {
          "internalType": "uint256",
          "name": "CheckedBatchId",
          "type": "uint256"
        }
      ],
      "name": "Ping",
      "outputs": [],
      "stateMutability": "nonpayable",
      "type": "function"
    },
    {
      "inputs": [],
      "name": "PreviousSystem",
      "outputs": [
        {
          "internalType": "contract IPreviousSystem",
          "name": "",
          "type": "address"
        }
      ],
      "stateMutability": "view",
      "type": "function"
    },
    {
      "inputs": [],
      "name": "RegisterWorker",
      "outputs": [],
      "stateMutability": "nonpayable",
      "type": "function"
    },
    {
      "inputs": [],
      "name": "RejectedBatchsCounter",
      "outputs": [
        {
          "internalType": "uint256",
          "name": "",
          "type": "uint256"
        }
      ],
      "stateMutability": "view",
      "type": "function"
    },
    {
      "inputs": [],
      "name": "RepManager",
      "outputs": [
        {
          "internalType": "contract IRepManager",
          "name": "",
          "type": "address"
        }
      ],
      "stateMutability": "view",
      "type": "function"
    },
    {
      "inputs": [],
      "name": "RewardManager",
      "outputs": [
        {
          "internalType": "contract IRewardManager",
          "name": "",
          "type": "address"
        }
      ],
      "stateMutability": "view",
      "type": "function"
    },
    {
      "inputs": [],
      "name": "StakeManager",
      "outputs": [
        {
          "internalType": "contract IStakeManager",
          "name": "",
          "type": "address"
        }
      ],
      "stateMutability": "view",
      "type": "function"
    },
    {
      "inputs": [],
      "name": "TriggerUpdate",
      "outputs": [],
      "stateMutability": "nonpayable",
      "type": "function"
    },
    {
      "inputs": [],
      "name": "UnregisterWorker",
      "outputs": [],
      "stateMutability": "nonpayable",
      "type": "function"
    },
    {
      "inputs": [
        {
          "internalType": "uint256",
          "name": "",
          "type": "uint256"
        },
        {
          "internalType": "address",
          "name": "",
          "type": "address"
        }
      ],
      "name": "UserBatchCounts",
      "outputs": [
        {
          "internalType": "uint256",
          "name": "",
          "type": "uint256"
        }
      ],
      "stateMutability": "view",
      "type": "function"
    },
    {
      "inputs": [
        {
          "internalType": "uint256",
          "name": "",
          "type": "uint256"
        },
        {
          "internalType": "address",
          "name": "",
          "type": "address"
        }
      ],
      "name": "UserBatchFrom",
      "outputs": [
        {
          "internalType": "string",
          "name": "",
          "type": "string"
        }
      ],
      "stateMutability": "view",
      "type": "function"
    },
    {
      "inputs": [
        {
          "internalType": "address",
          "name": "",
          "type": "address"
        },
        {
          "internalType": "uint256",
          "name": "",
          "type": "uint256"
        }
      ],
      "name": "UserChecksCommits",
      "outputs": [
        {
          "internalType": "bool",
          "name": "",
          "type": "bool"
        }
      ],
      "stateMutability": "view",
      "type": "function"
    },
    {
      "inputs": [
        {
          "internalType": "address",
          "name": "",
          "type": "address"
        },
        {
          "internalType": "uint256",
          "name": "",
          "type": "uint256"
        }
      ],
      "name": "UserChecksReveals",
      "outputs": [
        {
          "internalType": "bool",
          "name": "",
          "type": "bool"
        }
      ],
      "stateMutability": "view",
      "type": "function"
    },
    {
      "inputs": [
        {
          "internalType": "uint256",
          "name": "",
          "type": "uint256"
        },
        {
          "internalType": "address",
          "name": "",
          "type": "address"
        }
      ],
      "name": "UserNewFiles",
      "outputs": [
        {
          "internalType": "string",
          "name": "",
          "type": "string"
        }
      ],
      "stateMutability": "view",
      "type": "function"
    },
    {
      "inputs": [
        {
          "internalType": "uint256",
          "name": "",
          "type": "uint256"
        },
        {
          "internalType": "address",
          "name": "",
          "type": "address"
        }
      ],
      "name": "UserSubmittedStatus",
      "outputs": [
        {
          "internalType": "string",
          "name": "",
          "type": "string"
        }
      ],
      "stateMutability": "view",
      "type": "function"
    },
    {
      "inputs": [
        {
          "internalType": "uint256",
          "name": "",
          "type": "uint256"
        },
        {
          "internalType": "address",
          "name": "",
          "type": "address"
        }
      ],
      "name": "UserVotes",
      "outputs": [
        {
          "internalType": "uint256",
          "name": "",
          "type": "uint256"
        }
      ],
      "stateMutability": "view",
      "type": "function"
    },
    {
      "inputs": [
        {
          "internalType": "uint256",
          "name": "_DataBatchId",
          "type": "uint256"
        }
      ],
      "name": "ValidateDataBatch",
      "outputs": [],
      "stateMutability": "nonpayable",
      "type": "function"
    },
    {
      "inputs": [
        {
          "internalType": "uint256",
          "name": "",
          "type": "uint256"
        },
        {
          "internalType": "uint256",
          "name": "",
          "type": "uint256"
        }
      ],
      "name": "WorkersPerBatch",
      "outputs": [
        {
          "internalType": "address",
          "name": "",
          "type": "address"
        }
      ],
      "stateMutability": "view",
      "type": "function"
    },
    {
      "inputs": [
        {
          "internalType": "address",
          "name": "",
          "type": "address"
        }
      ],
      "name": "WorkersState",
      "outputs": [
        {
          "internalType": "address",
          "name": "worker_address",
          "type": "address"
        },
        {
          "internalType": "uint256",
          "name": "allocated_work_batch",
          "type": "uint256"
        },
        {
          "internalType": "bool",
          "name": "has_completed_work",
          "type": "bool"
        },
        {
          "internalType": "uint256",
          "name": "succeeding_novote_count",
          "type": "uint256"
        },
        {
          "internalType": "uint256",
          "name": "last_interaction_date",
          "type": "uint256"
        },
        {
          "internalType": "bool",
          "name": "registered",
          "type": "bool"
        },
        {
          "internalType": "bool",
          "name": "unregistration_request",
          "type": "bool"
        },
        {
          "internalType": "uint256",
          "name": "registration_date",
          "type": "uint256"
        },
        {
          "internalType": "uint256",
          "name": "majority_counter",
          "type": "uint256"
        },
        {
          "internalType": "uint256",
          "name": "minority_counter",
          "type": "uint256"
        }
      ],
      "stateMutability": "view",
      "type": "function"
    },
    {
      "inputs": [
        {
          "internalType": "address",
          "name": "_user",
          "type": "address"
        },
        {
          "internalType": "uint256",
          "name": "_DataBatchId",
          "type": "uint256"
        }
      ],
      "name": "attrUUID",
      "outputs": [
        {
          "internalType": "bytes32",
          "name": "UUID",
          "type": "bytes32"
        }
      ],
      "stateMutability": "pure",
      "type": "function"
    },
    {
      "inputs": [
        {
          "internalType": "uint256",
          "name": "",
          "type": "uint256"
        }
      ],
      "name": "availableWorkers",
      "outputs": [
        {
          "internalType": "address",
          "name": "",
          "type": "address"
        }
      ],
      "stateMutability": "view",
      "type": "function"
    },
    {
      "inputs": [
        {
          "internalType": "uint256",
          "name": "",
          "type": "uint256"
        }
      ],
      "name": "busyWorkers",
      "outputs": [
        {
          "internalType": "address",
          "name": "",
          "type": "address"
        }
      ],
      "stateMutability": "view",
      "type": "function"
    },
    {
      "inputs": [
        {
          "internalType": "uint256",
          "name": "_DataBatchId",
          "type": "uint256"
        },
        {
          "internalType": "bytes32",
          "name": "_secretIPFSHash",
          "type": "bytes32"
        },
        {
          "internalType": "uint256",
          "name": "_BatchCount",
          "type": "uint256"
        },
        {
          "internalType": "string",
          "name": "_From",
          "type": "string"
        },
        {
          "internalType": "string",
          "name": "_Status",
          "type": "string"
        }
      ],
      "name": "commitIndexeredCheck",
      "outputs": [],
      "stateMutability": "nonpayable",
      "type": "function"
    },
    {
      "inputs": [
        {
          "internalType": "uint256",
          "name": "_DataBatchId",
          "type": "uint256"
        }
      ],
      "name": "commitPeriodActive",
      "outputs": [
        {
          "internalType": "bool",
          "name": "active",
          "type": "bool"
        }
      ],
      "stateMutability": "view",
      "type": "function"
    },
    {
      "inputs": [
        {
          "internalType": "uint256",
          "name": "_BatchId",
          "type": "uint256"
        }
      ],
      "name": "deleteCollectedSpotBatch",
      "outputs": [],
      "stateMutability": "nonpayable",
      "type": "function"
    },
    {
      "inputs": [
        {
          "internalType": "uint256",
          "name": "_DataId",
          "type": "uint256"
        }
      ],
      "name": "deleteData",
      "outputs": [],
      "stateMutability": "nonpayable",
      "type": "function"
    },
    {
      "inputs": [
        {
          "internalType": "uint256",
          "name": "_BatchId",
          "type": "uint256"
        }
      ],
      "name": "deleteDataBatch",
      "outputs": [],
      "stateMutability": "nonpayable",
      "type": "function"
    },
    {
      "inputs": [],
      "name": "destroyContract",
      "outputs": [],
      "stateMutability": "nonpayable",
      "type": "function"
    },
    {
      "inputs": [
        {
          "internalType": "address",
          "name": "_voter",
          "type": "address"
        },
        {
          "internalType": "uint256",
          "name": "_DataBatchId",
          "type": "uint256"
        }
      ],
      "name": "didCommit",
      "outputs": [
        {
          "internalType": "bool",
          "name": "committed",
          "type": "bool"
        }
      ],
      "stateMutability": "view",
      "type": "function"
    },
    {
      "inputs": [
        {
          "internalType": "address",
          "name": "_voter",
          "type": "address"
        },
        {
          "internalType": "uint256",
          "name": "_DataBatchId",
          "type": "uint256"
        }
      ],
      "name": "didReveal",
      "outputs": [
        {
          "internalType": "bool",
          "name": "revealed",
          "type": "bool"
        }
      ],
      "stateMutability": "view",
      "type": "function"
    },
    {
      "inputs": [
        {
          "internalType": "uint256",
          "name": "_k",
          "type": "uint256"
        },
        {
          "internalType": "uint256",
          "name": "N_range",
          "type": "uint256"
        }
      ],
      "name": "generateIntegers",
      "outputs": [
        {
          "internalType": "uint256[]",
          "name": "",
          "type": "uint256[]"
        }
      ],
      "stateMutability": "view",
      "type": "function"
    },
    {
      "inputs": [
        {
          "internalType": "uint256",
          "name": "_DataBatchId_start",
          "type": "uint256"
        }
      ],
      "name": "getAcceptedBatchFileFrom",
      "outputs": [
        {
          "internalType": "string[]",
          "name": "batch",
          "type": "string[]"
        }
      ],
      "stateMutability": "view",
      "type": "function"
    },
    {
      "inputs": [
        {
          "internalType": "uint256",
          "name": "_DataBatchId_start",
          "type": "uint256"
        },
        {
          "internalType": "uint256",
          "name": "_DataBatchId_end",
          "type": "uint256"
        }
      ],
      "name": "getAcceptedBatchFilesRange",
      "outputs": [
        {
          "internalType": "string[]",
          "name": "batch",
          "type": "string[]"
        }
      ],
      "stateMutability": "view",
      "type": "function"
    },
    {
      "inputs": [],
      "name": "getAcceptedBatchesCount",
      "outputs": [
        {
          "internalType": "uint256",
          "name": "count",
          "type": "uint256"
        }
      ],
      "stateMutability": "view",
      "type": "function"
    },
    {
      "inputs": [],
      "name": "getActiveWorkersCount",
      "outputs": [
        {
          "internalType": "uint256",
          "name": "numWorkers",
          "type": "uint256"
        }
      ],
      "stateMutability": "view",
      "type": "function"
    },
    {
      "inputs": [],
      "name": "getAvailableWorkersCount",
      "outputs": [
        {
          "internalType": "uint256",
          "name": "numWorkers",
          "type": "uint256"
        }
      ],
      "stateMutability": "view",
      "type": "function"
    },
    {
      "inputs": [
        {
          "internalType": "uint256",
          "name": "_DataBatchId",
          "type": "uint256"
        }
      ],
      "name": "getBatchByID",
      "outputs": [
        {
          "components": [
            {
              "internalType": "uint256",
              "name": "start_idx",
              "type": "uint256"
            },
            {
              "internalType": "uint256",
              "name": "counter",
              "type": "uint256"
            },
            {
              "internalType": "uint256",
              "name": "uncommited_workers",
              "type": "uint256"
            },
            {
              "internalType": "uint256",
              "name": "unrevealed_workers",
              "type": "uint256"
            },
            {
              "internalType": "uint256",
              "name": "item_count",
              "type": "uint256"
            },
            {
              "internalType": "bool",
              "name": "complete",
              "type": "bool"
            },
            {
              "internalType": "bool",
              "name": "checked",
              "type": "bool"
            },
            {
              "internalType": "bool",
              "name": "allocated_to_work",
              "type": "bool"
            },
            {
              "internalType": "uint256",
              "name": "commitEndDate",
              "type": "uint256"
            },
            {
              "internalType": "uint256",
              "name": "revealEndDate",
              "type": "uint256"
            },
            {
              "internalType": "uint256",
              "name": "votesFor",
              "type": "uint256"
            },
            {
              "internalType": "uint256",
              "name": "votesAgainst",
              "type": "uint256"
            },
            {
              "internalType": "string",
              "name": "batchIPFSfile",
              "type": "string"
            },
            {
              "internalType": "enum DataIndexing.DataStatus",
              "name": "status",
              "type": "uint8"
            }
          ],
          "internalType": "struct DataIndexing.BatchMetadata",
          "name": "batch",
          "type": "tuple"
        }
      ],
      "stateMutability": "view",
      "type": "function"
    },
    {
      "inputs": [
        {
          "internalType": "uint256",
          "name": "_DataBatchId",
          "type": "uint256"
        }
      ],
      "name": "getBatchIPFSFileByID",
      "outputs": [
        {
          "internalType": "string",
          "name": "batch",
          "type": "string"
        }
      ],
      "stateMutability": "view",
      "type": "function"
    },
    {
      "inputs": [],
      "name": "getBusyWorkersCount",
      "outputs": [
        {
          "internalType": "uint256",
          "name": "numWorkers",
          "type": "uint256"
        }
      ],
      "stateMutability": "view",
      "type": "function"
    },
    {
      "inputs": [
        {
          "internalType": "address",
          "name": "_voter",
          "type": "address"
        },
        {
          "internalType": "uint256",
          "name": "_DataBatchId",
          "type": "uint256"
        }
      ],
      "name": "getCommitHash",
      "outputs": [
        {
          "internalType": "bytes32",
          "name": "commitHash",
          "type": "bytes32"
        }
      ],
      "stateMutability": "view",
      "type": "function"
    },
    {
      "inputs": [
        {
          "internalType": "uint256",
          "name": "_DataId",
          "type": "uint256"
        }
      ],
      "name": "getDataByID",
      "outputs": [
        {
          "components": [
            {
              "internalType": "string",
              "name": "ipfs_hash",
              "type": "string"
            },
            {
              "internalType": "address",
              "name": "author",
              "type": "address"
            },
            {
              "internalType": "uint256",
              "name": "timestamp",
              "type": "uint256"
            },
            {
              "internalType": "enum DataIndexing.DataStatus",
              "name": "status",
              "type": "uint8"
            }
          ],
          "internalType": "struct DataIndexing.IndexeredData",
          "name": "data",
          "type": "tuple"
        }
      ],
      "stateMutability": "view",
      "type": "function"
    },
    {
      "inputs": [
        {
          "internalType": "string",
          "name": "_hash",
          "type": "string"
        },
        {
          "internalType": "uint256",
          "name": "_salt",
          "type": "uint256"
        }
      ],
      "name": "getEncryptedStringHash",
      "outputs": [
        {
          "internalType": "bytes32",
          "name": "keccak256hash",
          "type": "bytes32"
        }
      ],
      "stateMutability": "pure",
      "type": "function"
    },
    {
      "inputs": [
        {
          "internalType": "uint256",
          "name": "_DataBatchId",
          "type": "uint256"
        }
      ],
      "name": "getFromsForBatch",
      "outputs": [
        {
          "internalType": "string[]",
          "name": "",
          "type": "string[]"
        }
      ],
      "stateMutability": "view",
      "type": "function"
    },
    {
      "inputs": [
        {
          "internalType": "uint256",
          "name": "_DataBatchId",
          "type": "uint256"
        }
      ],
      "name": "getIPFShashesForBatch",
      "outputs": [
        {
          "internalType": "string[]",
          "name": "",
          "type": "string[]"
        }
      ],
      "stateMutability": "view",
      "type": "function"
    },
    {
      "inputs": [
        {
          "internalType": "address",
          "name": "_voter",
          "type": "address"
        },
        {
          "internalType": "uint256",
          "name": "_numTokens",
          "type": "uint256"
        },
        {
          "internalType": "uint256",
          "name": "_DataBatchId",
          "type": "uint256"
        }
      ],
      "name": "getInsertPointForNumTokens",
      "outputs": [
        {
          "internalType": "uint256",
          "name": "prevNode",
          "type": "uint256"
        }
      ],
      "stateMutability": "view",
      "type": "function"
    },
    {
      "inputs": [],
      "name": "getLastAllocatedBatchId",
      "outputs": [
        {
          "internalType": "uint256",
          "name": "LastAllocatedBatchId",
          "type": "uint256"
        }
      ],
      "stateMutability": "view",
      "type": "function"
    },
    {
      "inputs": [],
      "name": "getLastBatchId",
      "outputs": [
        {
          "internalType": "uint256",
          "name": "LastBatchId",
          "type": "uint256"
        }
      ],
      "stateMutability": "view",
      "type": "function"
    },
    {
      "inputs": [],
      "name": "getLastCheckedBatchId",
      "outputs": [
        {
          "internalType": "uint256",
          "name": "LastCheckedBatchId",
          "type": "uint256"
        }
      ],
      "stateMutability": "view",
      "type": "function"
    },
    {
      "inputs": [],
      "name": "getLastDataId",
      "outputs": [
        {
          "internalType": "uint256",
          "name": "DataId",
          "type": "uint256"
        }
      ],
      "stateMutability": "view",
      "type": "function"
    },
    {
      "inputs": [
        {
          "internalType": "address",
          "name": "_voter",
          "type": "address"
        }
      ],
      "name": "getLastNode",
      "outputs": [
        {
          "internalType": "uint256",
          "name": "DataID",
          "type": "uint256"
        }
      ],
      "stateMutability": "view",
      "type": "function"
    },
    {
      "inputs": [
        {
          "internalType": "address",
          "name": "_voter",
          "type": "address"
        }
      ],
      "name": "getLockedTokens",
      "outputs": [
        {
          "internalType": "uint256",
          "name": "numTokens",
          "type": "uint256"
        }
      ],
      "stateMutability": "view",
      "type": "function"
    },
    {
      "inputs": [],
      "name": "getMySystemTokenBalance",
      "outputs": [
        {
          "internalType": "uint256",
          "name": "tokens",
          "type": "uint256"
        }
      ],
      "stateMutability": "view",
      "type": "function"
    },
    {
      "inputs": [
        {
          "internalType": "address",
          "name": "_voter",
          "type": "address"
        },
        {
          "internalType": "uint256",
          "name": "_DataBatchId",
          "type": "uint256"
        },
        {
          "internalType": "uint256",
          "name": "_salt",
          "type": "uint256"
        }
      ],
      "name": "getNumPassingTokens",
      "outputs": [
        {
          "internalType": "uint256",
          "name": "correctIndexeredChecks",
          "type": "uint256"
        }
      ],
      "stateMutability": "view",
      "type": "function"
    },
    {
      "inputs": [
        {
          "internalType": "address",
          "name": "_voter",
          "type": "address"
        },
        {
          "internalType": "uint256",
          "name": "_DataBatchId",
          "type": "uint256"
        }
      ],
      "name": "getNumTokens",
      "outputs": [
        {
          "internalType": "uint256",
          "name": "numTokens",
          "type": "uint256"
        }
      ],
      "stateMutability": "view",
      "type": "function"
    },
    {
      "inputs": [],
      "name": "getRandom",
      "outputs": [
        {
          "internalType": "uint256",
          "name": "",
          "type": "uint256"
        }
      ],
      "stateMutability": "view",
      "type": "function"
    },
    {
      "inputs": [],
      "name": "getRejectedBatchesCount",
      "outputs": [
        {
          "internalType": "uint256",
          "name": "count",
          "type": "uint256"
        }
      ],
      "stateMutability": "view",
      "type": "function"
    },
    {
      "inputs": [],
      "name": "getSeed",
      "outputs": [
        {
          "internalType": "bytes32",
          "name": "addr",
          "type": "bytes32"
        }
      ],
      "stateMutability": "view",
      "type": "function"
    },
    {
      "inputs": [
        {
          "internalType": "uint256",
          "name": "_DataBatchId",
          "type": "uint256"
        }
      ],
      "name": "getStatusForBatch",
      "outputs": [
        {
          "internalType": "string[]",
          "name": "",
          "type": "string[]"
        }
      ],
      "stateMutability": "view",
      "type": "function"
    },
    {
      "inputs": [
        {
          "internalType": "uint256",
          "name": "_DataBatchId",
          "type": "uint256"
        }
      ],
      "name": "getSubmittedFilesForBatch",
      "outputs": [
        {
          "internalType": "string[]",
          "name": "",
          "type": "string[]"
        }
      ],
      "stateMutability": "view",
      "type": "function"
    },
    {
      "inputs": [
        {
          "internalType": "address",
          "name": "_user",
          "type": "address"
        }
      ],
      "name": "getSystemTokenBalance",
      "outputs": [
        {
          "internalType": "uint256",
          "name": "tokens",
          "type": "uint256"
        }
      ],
      "stateMutability": "view",
      "type": "function"
    },
    {
      "inputs": [
        {
          "internalType": "uint256",
          "name": "_DataBatchId",
          "type": "uint256"
        }
      ],
      "name": "getTotalNumberOfIndexeredChecks",
      "outputs": [
        {
          "internalType": "uint256",
          "name": "vc",
          "type": "uint256"
        }
      ],
      "stateMutability": "view",
      "type": "function"
    },
    {
      "inputs": [],
      "name": "getTxCounter",
      "outputs": [
        {
          "internalType": "uint256",
          "name": "Counter",
          "type": "uint256"
        }
      ],
      "stateMutability": "view",
      "type": "function"
    },
    {
      "inputs": [
        {
          "internalType": "uint256",
          "name": "_DataBatchId",
          "type": "uint256"
        }
      ],
      "name": "getVotesForBatch",
      "outputs": [
        {
          "internalType": "uint256[]",
          "name": "",
          "type": "uint256[]"
        }
      ],
      "stateMutability": "view",
      "type": "function"
    },
    {
      "inputs": [
        {
          "internalType": "uint256",
          "name": "_terminationDate",
          "type": "uint256"
        }
      ],
      "name": "isExpired",
      "outputs": [
        {
          "internalType": "bool",
          "name": "expired",
          "type": "bool"
        }
      ],
      "stateMutability": "view",
      "type": "function"
    },
    {
      "inputs": [
        {
          "internalType": "uint256",
          "name": "_DataBatchId",
          "type": "uint256"
        }
      ],
      "name": "isPassed",
      "outputs": [
        {
          "internalType": "bool",
          "name": "passed",
          "type": "bool"
        }
      ],
      "stateMutability": "view",
      "type": "function"
    },
    {
      "inputs": [
        {
          "internalType": "uint256",
          "name": "_DataBatchId",
          "type": "uint256"
        },
        {
          "internalType": "address",
          "name": "_worker",
          "type": "address"
        }
      ],
      "name": "isWorkerAllocatedToBatch",
      "outputs": [
        {
          "internalType": "bool",
          "name": "",
          "type": "bool"
        }
      ],
      "stateMutability": "view",
      "type": "function"
    },
    {
      "inputs": [
        {
          "internalType": "address",
          "name": "_worker",
          "type": "address"
        }
      ],
      "name": "isWorkerRegistered",
      "outputs": [
        {
          "internalType": "bool",
          "name": "passed",
          "type": "bool"
        }
      ],
      "stateMutability": "view",
      "type": "function"
    },
    {
      "inputs": [],
      "name": "owner",
      "outputs": [
        {
          "internalType": "address",
          "name": "",
          "type": "address"
        }
      ],
      "stateMutability": "view",
      "type": "function"
    },
    {
      "inputs": [
        {
          "internalType": "uint256",
          "name": "k",
          "type": "uint256"
        },
        {
          "internalType": "uint256",
          "name": "N",
          "type": "uint256"
        }
      ],
      "name": "random_selection",
      "outputs": [
        {
          "internalType": "uint256[]",
          "name": "",
          "type": "uint256[]"
        }
      ],
      "stateMutability": "view",
      "type": "function"
    },
    {
      "inputs": [],
      "name": "renounceOwnership",
      "outputs": [],
      "stateMutability": "nonpayable",
      "type": "function"
    },
    {
      "inputs": [
        {
          "internalType": "uint256",
          "name": "_DataBatchId",
          "type": "uint256"
        }
      ],
      "name": "rescueTokens",
      "outputs": [],
      "stateMutability": "nonpayable",
      "type": "function"
    },
    {
      "inputs": [
        {
          "internalType": "uint256[]",
          "name": "_DataBatchIDs",
          "type": "uint256[]"
        }
      ],
      "name": "rescueTokensInMultipleDatas",
      "outputs": [],
      "stateMutability": "nonpayable",
      "type": "function"
    },
    {
      "inputs": [
        {
          "internalType": "uint256",
          "name": "_DataBatchId",
          "type": "uint256"
        },
        {
          "internalType": "uint256",
          "name": "_voteOption",
          "type": "uint256"
        },
        {
          "internalType": "string",
          "name": "_clearIPFSHash",
          "type": "string"
        },
        {
          "internalType": "uint256",
          "name": "_salt",
          "type": "uint256"
        }
      ],
      "name": "revealIndexeredCheck",
      "outputs": [],
      "stateMutability": "nonpayable",
      "type": "function"
    },
    {
      "inputs": [
        {
          "internalType": "uint256",
          "name": "_DataBatchId",
          "type": "uint256"
        }
      ],
      "name": "revealPeriodActive",
      "outputs": [
        {
          "internalType": "bool",
          "name": "active",
          "type": "bool"
        }
      ],
      "stateMutability": "view",
      "type": "function"
    },
    {
      "inputs": [],
      "name": "sFuel",
      "outputs": [
        {
          "internalType": "address",
          "name": "",
          "type": "address"
        }
      ],
      "stateMutability": "view",
      "type": "function"
    },
    {
      "inputs": [
        {
          "internalType": "uint256",
          "name": "N",
          "type": "uint256"
        }
      ],
      "name": "shuffle_array",
      "outputs": [
        {
          "internalType": "uint256[]",
          "name": "",
          "type": "uint256[]"
        }
      ],
      "stateMutability": "view",
      "type": "function"
    },
    {
      "inputs": [
        {
          "internalType": "uint256",
          "name": "",
          "type": "uint256"
        }
      ],
      "name": "toUnregisterWorkers",
      "outputs": [
        {
          "internalType": "address",
          "name": "",
          "type": "address"
        }
      ],
      "stateMutability": "view",
      "type": "function"
    },
    {
      "inputs": [],
      "name": "token",
      "outputs": [
        {
          "internalType": "contract IERC20",
          "name": "",
          "type": "address"
        }
      ],
      "stateMutability": "view",
      "type": "function"
    },
    {
      "inputs": [
        {
          "internalType": "address",
          "name": "newOwner",
          "type": "address"
        }
      ],
      "name": "transferOwnership",
      "outputs": [],
      "stateMutability": "nonpayable",
      "type": "function"
    },
    {
      "inputs": [
        {
          "internalType": "address",
          "name": "addr",
          "type": "address"
        }
      ],
      "name": "updateAddressManager",
      "outputs": [],
      "stateMutability": "nonpayable",
      "type": "function"
    },
    {
      "inputs": [
        {
          "internalType": "uint256",
          "name": "AllocatedBatchCursor_",
          "type": "uint256"
        }
      ],
      "name": "updateAllocatedBatchCursor",
      "outputs": [],
      "stateMutability": "nonpayable",
      "type": "function"
    },
    {
      "inputs": [
        {
          "internalType": "address",
          "name": "addr",
          "type": "address"
        }
      ],
      "name": "updateArchiveManager",
      "outputs": [],
      "stateMutability": "nonpayable",
      "type": "function"
    },
    {
      "inputs": [
        {
          "internalType": "uint256",
          "name": "BatchCheckingCursor_",
          "type": "uint256"
        }
      ],
      "name": "updateBatchCheckingCursor",
      "outputs": [],
      "stateMutability": "nonpayable",
      "type": "function"
    },
    {
      "inputs": [
        {
          "internalType": "address",
          "name": "addr",
          "type": "address"
        }
      ],
      "name": "updateParametersManager",
      "outputs": [],
      "stateMutability": "nonpayable",
      "type": "function"
    },
    {
      "inputs": [
        {
          "internalType": "address",
          "name": "addr",
          "type": "address"
        }
      ],
      "name": "updatePreviousSystem",
      "outputs": [],
      "stateMutability": "nonpayable",
      "type": "function"
    },
    {
      "inputs": [
        {
          "internalType": "address",
          "name": "addr",
          "type": "address"
        }
      ],
      "name": "updateRepManager",
      "outputs": [],
      "stateMutability": "nonpayable",
      "type": "function"
    },
    {
      "inputs": [
        {
          "internalType": "address",
          "name": "addr",
          "type": "address"
        }
      ],
      "name": "updateRewardManager",
      "outputs": [],
      "stateMutability": "nonpayable",
      "type": "function"
    },
    {
      "inputs": [
        {
          "internalType": "address",
          "name": "addr",
          "type": "address"
        }
      ],
      "name": "updateStakeManager",
      "outputs": [],
      "stateMutability": "nonpayable",
      "type": "function"
    },
    {
      "inputs": [
        {
          "internalType": "address",
          "name": "_sFuel",
          "type": "address"
        }
      ],
      "name": "updatesFuelFaucet",
      "outputs": [],
      "stateMutability": "nonpayable",
      "type": "function"
    },
    {
      "inputs": [
        {
          "internalType": "uint256",
          "name": "_prevID",
          "type": "uint256"
        },
        {
          "internalType": "uint256",
          "name": "_nextID",
          "type": "uint256"
        },
        {
          "internalType": "address",
          "name": "_voter",
          "type": "address"
        },
        {
          "internalType": "uint256",
          "name": "_numTokens",
          "type": "uint256"
        }
      ],
      "name": "validPosition",
      "outputs": [
        {
          "internalType": "bool",
          "name": "APPROVED",
          "type": "bool"
        }
      ],
      "stateMutability": "view",
      "type": "function"
    },
    {
      "inputs": [
        {
          "internalType": "uint256",
          "name": "_numTokens",
          "type": "uint256"
        }
      ],
      "name": "withdrawVotingRights",
      "outputs": [],
      "stateMutability": "nonpayable",
      "type": "function"
    }
  ],
  "bytecode": "0x6080604052600060145560006016556001601755600160185560016019556001601a556000601b556000601c556000601d556000601e556000601f553480156200004857600080fd5b5060405162009526380380620095268339810160408190526200006b916200010d565b6200007f62000079620000b9565b620000bd565b6001600160a01b0381166200009357600080fd5b602080546001600160a01b0319166001600160a01b03929092169190911790556200013d565b3390565b600080546001600160a01b038381166001600160a01b0319831681178455604051919092169283917f8be0079c531659141344cd1fd0a4f28419497f9722a3daafe3b4186f6b6457e09190a35050565b6000602082840312156200011f578081fd5b81516001600160a01b038116811462000136578182fd5b9392505050565b6193d9806200014d6000396000f3fe608060405234801561001057600080fd5b50600436106107175760003560e01c80638df0296e116103a8578063d817587e116101f4578063e97439cf1161011a578063f5ae7c7d116100b8578063f96305f011610087578063f96305f014610e9b578063fc0c546a14610ea3578063fca4956314610eab578063ff43de9d14610ebe57610717565b8063f5ae7c7d14610e70578063f716596d14610e78578063f721de4a14610e80578063f80a23fd14610e9357610717565b8063ef4fcdad116100f4578063ef4fcdad14610e3a578063f2d9e74d14610e42578063f2fde38b14610e4a578063f4cdfcc414610e5d57610717565b8063e97439cf14610e0c578063eb1322ff14610e1f578063ed8becfa14610e2757610717565b8063dd15f09511610192578063e44c974b11610161578063e44c974b14610dc0578063e604c12714610dd3578063e798a7da14610de6578063e7b1d43c14610df957610717565b8063dd15f09514610d8a578063dd61868214610d92578063df05368e14610da5578063e1f7a43014610db857610717565b8063d901402b116101ce578063d901402b14610d3c578063d9548e5314610d4f578063d9845fb814610d62578063da14563a14610d8257610717565b8063d817587e14610d03578063d822ce0114610d16578063d8b7567414610d2957610717565b8063ab43e78d116102d9578063c47c4bc211610277578063d420ec0b11610246578063d420ec0b14610ccd578063d58f575c14610ce0578063d6b0206c14610ce8578063d78b94cc14610cf057610717565b8063c47c4bc214610c81578063c4e4f82a14610c94578063d138209214610ca7578063d186981d14610cba57610717565b8063b1d7ea98116102b3578063b1d7ea9814610c35578063b43bd06914610c48578063b8f011b314610c5b578063bda808cf14610c6e57610717565b8063ab43e78d14610c07578063b10aa58414610c0f578063b1a2e0be14610c2257610717565b8063a350715a11610346578063a511dba011610320578063a511dba014610bd1578063a905779014610bd9578063aa7ca46414610bec578063aacc5a1714610bff57610717565b8063a350715a14610b93578063a4439dc514610b9b578063a46a503f14610bae57610717565b80639fc9c52f116103825780639fc9c52f14610b52578063a1103f3714610b65578063a16a11e014610b78578063a1b6b5b714610b8b57610717565b80638df0296e14610b245780639760356014610b375780639769d84614610b4a57610717565b80634fe8b4c11161056757806371880b1b116104985780637fabe35b116104365780638473850b116104055780638473850b14610ad857806388d072eb14610ae05780638c89d02714610af35780638da5cb5b14610b1c57610717565b80637fabe35b14610a7d578063819b029314610aaa578063821aa8c014610abd57806383cc6ef214610ad057610717565b806377124dec1161047257806377124dec14610a475780637a34da6714610a5a5780637f9510a214610a625780637f97e83614610a6a57610717565b806371880b1b14610a19578063763a39f214610a2c57806376c1fef414610a3457610717565b80636371d81f116105055780636b1485a3116104df5780636b1485a3146109d85780636b2d95d4146109eb5780637074222b146109fe578063715018a614610a1157610717565b80636371d81f146109aa578063658102f4146109bd578063667bf0f8146109d057610717565b806353bf27f11161054157806353bf27f11461094f5780635a452943146109575780635b113a55146109775780635df6055d1461098a57610717565b80634fe8b4c11461092c578063515535e81461093f57806351912f291461094757610717565b80632c0520311161064c5780634671ace5116105ea5780634852e2f0116105b95780634852e2f0146108eb57806349403183146108f35780634d4b7d9b146109065780634d8842811461091957610717565b80634671ace5146108aa57806346a7aea6146108bd57806347fe2d20146108d057806348257dc9146108d857610717565b80633538af82116106265780633538af821461086957806339e7357c1461087c578063427fa1d214610884578063441c77c01461089757610717565b80632c052031146108305780632d917c68146108435780632f469fd11461085657610717565b8063154fd39b116106b9578063275c259011610693578063275c2590146107fa578063284dda171461080257806329a47bc7146108155780632a984b2b1461081d57610717565b8063154fd39b146107bd57806317cbd766146107c5578063226ed300146107da57610717565b8063092a5cce116106f5578063092a5cce1461076d5780630e6661a714610775578063100372f51461078a578063106798101461079d57610717565b806301a48b981461071c578063050eb2eb14610745578063059576231461075a575b600080fd5b61072f61072a366004617e36565b610ec6565b60405161073c9190618186565b60405180910390f35b610758610753366004617b24565b611063565b005b610758610768366004617b24565b6110c4565b610758611125565b61077d611177565b60405161073c919061808b565b610758610798366004617e36565b61117d565b6107b06107ab366004617e5f565b6111c1565b60405161073c91906181d5565b61077d611266565b6107cd61126c565b60405161073c91906180be565b6107ed6107e8366004617e36565b61127b565b60405161073c91906181ca565b6107586112c3565b610758610810366004617f6a565b611411565b6107cd611775565b61077d61082b366004617b24565b611784565b61077d61083e366004617b87565b611796565b6107ed610851366004617b5c565b611933565b6107b0610864366004617e5f565b611953565b6107cd610877366004617e36565b611977565b61077d6119a1565b61077d610892366004617b24565b6119be565b6107ed6108a5366004617e36565b611a5e565b6107586108b8366004617e36565b611ab8565b6107586108cb366004617b24565b611b26565b61077d611b87565b6107586108e6366004617e36565b611b8d565b61077d611fcd565b6107ed610901366004617e36565b611fd3565b6107ed610914366004617e36565b612220565b610758610927366004617b24565b612235565b61075861093a366004617e36565b612296565b61077d612316565b6107cd61231c565b61077d61232b565b61096a610965366004617e36565b612331565b60405161073c91906190c5565b61077d610985366004617e5f565b612454565b61099d610998366004617e36565b612471565b60405161073c9190618126565b6107586109b8366004617e36565b61268e565b61077d6109cb366004617e36565b612741565b610758612765565b6107586109e6366004617e36565b612d75565b61077d6109f9366004617b24565b613c05565b61077d610a0c366004617b24565b613c14565b610758613c2f565b61077d610a27366004617e36565b613c7a565b61077d613cb7565b61099d610a42366004617e36565b613cbd565b610758610a55366004617e36565b613eda565b6107cd613f1e565b61077d613f2d565b6107ed610a78366004617b5c565b613f44565b610a90610a8b366004617e36565b613f97565b60405161073c9e9d9c9b9a99989796959493929190619164565b6107ed610ab8366004617f2c565b614096565b6107cd610acb366004617e36565b6140d7565b6107cd6140e7565b61077d6140f6565b6107b0610aee366004617e5f565b6140fc565b610b06610b01366004617b24565b614120565b60405161073c9a999897969594939291906180d2565b6107cd614183565b6107cd610b32366004617f0b565b614192565b610758610b45366004617e36565b6141ca565b61077d61437a565b610758610b60366004617bbb565b614380565b61077d610b73366004617b5c565b6143d2565b610758610b86366004617b24565b614405565b61077d614466565b61077d61446c565b6107ed610ba9366004617e36565b614472565b610bc1610bbc366004617e36565b6144d4565b60405161073c9493929190618212565b61077d614593565b6107ed610be7366004617c7b565b614599565b6107ed610bfa366004617b5c565b6145ff565b61077d614652565b6107cd614707565b6107cd610c1d366004617e36565b614716565b6107ed610c30366004617b24565b614726565b61072f610c43366004617f0b565b6147f3565b61077d610c56366004617b87565b614a0d565b61072f610c69366004617f0b565b614af9565b610758610c7c366004617e8e565b614c61565b610758610c8f366004617b24565b6152c4565b61077d610ca2366004617e36565b615325565b61077d610cb5366004617b5c565b615362565b6107ed610cc8366004617e5f565b6153f7565b6107ed610cdb366004617b5c565b6154d2565b61077d6154f2565b61077d6154f8565b61099d610cfe366004617f0b565b6154fe565b61099d610d11366004617e36565b6156e3565b6107cd610d24366004617b5c565b615900565b61077d610d37366004617e5f565b61591c565b61077d610d4a366004617b5c565b615939565b6107ed610d5d366004617e36565b61597e565b610d75610d70366004617e36565b615983565b60405161073c9190618f4b565b610758615b1b565b6107cd615d5d565b610758610da0366004617b24565b615d6c565b610758610db3366004617b24565b615dcd565b61077d615e2e565b61072f610dce366004617e36565b615e41565b6107b0610de1366004617e36565b615ecd565b6107ed610df4366004617b24565b615f95565b610758610e07366004617e36565b615fb6565b61099d610e1a366004617e36565b6160fe565b61077d6162c1565b61099d610e35366004617e36565b6162c7565b61077d6165d7565b61077d6165dd565b610758610e58366004617b24565b6165e3565b61077d610e6b366004617cdb565b616651565b61077d616666565b61075861666c565b6107ed610e8e366004617e36565b616b51565b6107ed616b59565b61077d616b72565b6107cd616b78565b61077d610eb9366004617b24565b616b87565b6107cd616c2f565b6060610ed182616b51565b610ef65760405162461bcd60e51b8152600401610eed90618b79565b60405180910390fd5b6000828152600f6020908152604080832080548251818502810185019093528083529192909190830182828015610f5657602002820191906000526020600020905b81546001600160a01b03168152600190910190602001808311610f38575b50505050509050600081516001600160401b03811115610f8657634e487b7160e01b600052604160045260246000fd5b604051908082528060200260200182016040528015610faf578160200160208202803683370190505b50905060005b825181101561105957600360008681526020019081526020016000206000848381518110610ff357634e487b7160e01b600052603260045260246000fd5b60200260200101516001600160a01b03166001600160a01b031681526020019081526020016000205482828151811061103c57634e487b7160e01b600052603260045260246000fd5b6020908102919091010152806110518161931d565b915050610fb5565b509150505b919050565b61106b616c3e565b6001600160a01b031661107c614183565b6001600160a01b0316146110a25760405162461bcd60e51b8152600401610eed90618927565b602380546001600160a01b0319166001600160a01b0392909216919091179055565b6110cc616c3e565b6001600160a01b03166110dd614183565b6001600160a01b0316146111035760405162461bcd60e51b8152600401610eed90618927565b602780546001600160a01b0319166001600160a01b0392909216919091179055565b61112d616c3e565b6001600160a01b031661113e614183565b6001600160a01b0316146111645760405162461bcd60e51b8152600401610eed90618927565b61116c614183565b6001600160a01b0316ff5b60165481565b611185616c3e565b6001600160a01b0316611196614183565b6001600160a01b0316146111bc5760405162461bcd60e51b8152600401610eed90618927565b601955565b6007602090815260009283526040808420909152908252902080546111e5906192e2565b80601f0160208091040260200160405190810160405280929190818152602001828054611211906192e2565b801561125e5780601f106112335761010080835404028352916020019161125e565b820191906000526020600020905b81548152906001019060200180831161124157829003601f168201915b505050505081565b601a5490565b6025546001600160a01b031681565b600061128682616b51565b6112a25760405162461bcd60e51b8152600401610eed90618e84565b6000828152600b60205260409020600701546112bd9061597e565b92915050565b336000908152600c60205260409020600581015460ff1615156001146112fb5760405162461bcd60e51b8152600401610eed906188b6565b60018101541580159061131857506005810154610100900460ff16155b156113755760058101805461ff001916610100179055601380546001810182556000919091527f66de8ffda797e3de9c05e8fc57b3bf0ec28a930d40b0d285d93c06501cf6a0900180546001600160a01b031916331790556113ed565b60018101546113ed5761138733616c42565b61139033616d9a565b80546001600160a01b031916339081178255426004830181905560058301805460ff191690556040517f9dadcedba048e92b943ea1c5861cee1df63a566d7f795869c004780c1c698e2b916113e49161808b565b60405180910390a25b6001601b60008282546114009190619250565b9091555061140e9050616eca565b50565b611419616eca565b61142284611a5e565b61143e5760405162461bcd60e51b8152600401610eed90618aec565b33600090815260016020908152604080832087845290915290205460ff166114785760405162461bcd60e51b8152600401610eed906186b8565b33600090815260026020908152604080832087845290915290205460ff16156114b35760405162461bcd60e51b8152600401610eed90618ead565b6114bd3385615939565b6114c78383616651565b146114e45760405162461bcd60e51b8152600401610eed906189f0565b60006114f03386615362565b90508360011415611527576000858152600b60205260408120600801805483929061151c908490619250565b9091555061154e9050565b6000858152600b602052604081206009018054839290611548908490619250565b90915550505b33600090815260086020526040908190209051632bee74d760e11b815273__$4f8ca6118d78dd926ab9e54900dd6f45d8$__916357dce9ae91611596919089906004016180b0565b60006040518083038186803b1580156115ae57600080fd5b505af41580156115c2573d6000803e3d6000fd5b50503360008181526002602090815260408083208b84528252808320805460ff191660011790556003825280832084845282528083208a90558a83526004825280832093835292815291902086516116219450909250908601906178a5565b50336000908152600c60209081526040808320888452600b9092529091206003015461164e9060016171b5565b6000878152600b602052604090206003015560028101805460ff1916600117905542600482015561167e33616d9a565b600581015460ff16156116db57611694336171c1565b6116db57601180546001810182556000919091527f31ecc21a745e3968a04e9570e4425bc18fa8019c68028196b546d1669c200c680180546001600160a01b031916331790555b6000868152600b60205260409020600301546116fa576116fa86612d75565b6001601b600082825461170d9190619250565b90915550506000868152600b60205260409081902060088101546009909101549151339288928a927faf7a659671a8aa1845374046e9cb499e5f961df47a504ac0a2cf6d89c772b59b9261176592899290919061914e565b60405180910390a4505050505050565b6022546001600160a01b031681565b600d6020526000908152604090205481565b6000806117a2856119be565b905060006117b08683615362565b90505b8115611928576117c38683615362565b90508481116118805783821415611878576001600160a01b0386166000908152600860205260409081902090516336c1b45b60e01b815273__$4f8ca6118d78dd926ab9e54900dd6f45d8$__916336c1b45b91611825919086906004016180b0565b60206040518083038186803b15801561183d57600080fd5b505af4158015611851573d6000803e3d6000fd5b505050506040513d601f19601f820116820180604052508101906118759190617e4e565b91505b50905061192c565b6001600160a01b0386166000908152600860205260409081902090516336c1b45b60e01b815273__$4f8ca6118d78dd926ab9e54900dd6f45d8$__916336c1b45b916118d1919086906004016180b0565b60206040518083038186803b1580156118e957600080fd5b505af41580156118fd573d6000803e3d6000fd5b505050506040513d601f19601f820116820180604052508101906119219190617e4e565b91506117b3565b5090505b9392505050565b600160209081526000928352604080842090915290825290205460ff1681565b6004602090815260009283526040808420909152908252902080546111e5906192e2565b6011818154811061198757600080fd5b6000918252602090912001546001600160a01b0316905081565b60405160009080602081848060185afa6119b757fe5b5051919050565b6001600160a01b03811660009081526008602052604080822090516336c1b45b60e01b815273__$4f8ca6118d78dd926ab9e54900dd6f45d8$__916336c1b45b91611a0e919085906004016180b0565b60206040518083038186803b158015611a2657600080fd5b505af4158015611a3a573d6000803e3d6000fd5b505050506040513d601f19601f820116820180604052508101906112bd9190617e4e565b6000611a6982616b51565b611a855760405162461bcd60e51b8152600401610eed90618b79565b6000828152600b6020526040902060070154611aa09061597e565b1580156112bd5750611ab182614472565b1592915050565b611ac0616c3e565b6001600160a01b0316611ad1614183565b6001600160a01b031614611af75760405162461bcd60e51b8152600401610eed90618927565b60008181526010602052604090205460ff161561140e576000908152601060205260409020805460ff19169055565b611b2e616c3e565b6001600160a01b0316611b3f614183565b6001600160a01b031614611b655760405162461bcd60e51b8152600401610eed90618927565b602680546001600160a01b0319166001600160a01b0392909216919091179055565b60195490565b6025546001600160a01b031615801590611bb6575060008181526010602052604090205460ff16155b15611fb257602554604051637b90ef2560e11b81526001600160a01b039091169063f721de4a90611beb90849060040161808b565b602060405180830381600087803b158015611c0557600080fd5b505af1158015611c19573d6000803e3d6000fd5b505050506040513d601f19601f82011682018060405250810190611c3d9190617c61565b15611fb257602554604051631b308bf760e31b81526000916001600160a01b03169063d9845fb890611c7390859060040161808b565b600060405180830381600087803b158015611c8d57600080fd5b505af1158015611ca1573d6000803e3d6000fd5b505050506040513d6000823e601f3d908101601f19168201604052611cc99190810190617d1d565b6101a08101519091506001816003811115611cf457634e487b7160e01b600052602160045260246000fd5b1415611f96576040805160808101825261016084015181523360208083019190915242828401526000606083018190526016548152600a8252929092208151805192939192611d4692849201906178a5565b506020820151600182810180546001600160a01b0319166001600160a01b0390931692909217909155604083015160028301556060830151600380840180549293909260ff1916918490811115611dad57634e487b7160e01b600052602160045260246000fd5b0217905550506018546000908152600b6020908152604091829020602754835163bc6333e360e01b815293519194506001600160a01b03169263bc6333e3926004808301939192829003018186803b158015611e0857600080fd5b505afa158015611e1c573d6000803e3d6000fd5b505050506040513d601f19601f82011682018060405250810190611e409190617e4e565b81600101541015611e66576001816001016000828254611e609190619250565b90915550505b602760009054906101000a90046001600160a01b03166001600160a01b031663bc6333e36040518163ffffffff1660e01b815260040160206040518083038186803b158015611eb457600080fd5b505afa158015611ec8573d6000803e3d6000fd5b505050506040513d601f19601f82011682018060405250810190611eec9190617e4e565b816001015410611f3b57600581018054600160ff19909116811761ff00191690915560188054600090611f20908490619250565b90915550506016546018546000908152600b60205260409020555b611f43615b1b565b601654611f51906001619250565b60168190556101608401516040517fcca9ef2f1c44482e3bb62df554c61b39ebb662156cb35646dc550d7dee137a2f91611f8c9133906181e8565b60405180910390a2505b50506000818152601060205260409020805460ff191660011790555b6001601b6000828254611fc59190619250565b909155505050565b601e5481565b6000818152600b6020908152604080832081516101c081018352815481526001820154938101939093526002810154918301919091526003810154606083015260048101546080830152600581015460ff808216151560a08501526101008083048216151560c08601526201000090920416151560e0840152600682015490830152600781015461012083015260088101546101408301526009810154610160830152600a810180548493929161018084019161208f906192e2565b80601f01602080910402602001604051908101604052809291908181526020018280546120bb906192e2565b80156121085780601f106120dd57610100808354040283529160200191612108565b820191906000526020600020905b8154815290600101906020018083116120eb57829003601f168201915b5050509183525050600b82015460209091019060ff16600381111561213d57634e487b7160e01b600052602160045260246000fd5b600381111561215c57634e487b7160e01b600052602160045260246000fd5b90525061016081015161014082015191925061217791619250565b602760009054906101000a90046001600160a01b03166001600160a01b031663ea19733c6040518163ffffffff1660e01b815260040160206040518083038186803b1580156121c557600080fd5b505afa1580156121d9573d6000803e3d6000fd5b505050506040513d601f19601f820116820180604052508101906121fd9190617e4e565b612207919061927c565b61014082015161221890606461927c565b119392505050565b60106020526000908152604090205460ff1681565b61223d616c3e565b6001600160a01b031661224e614183565b6001600160a01b0316146122745760405162461bcd60e51b8152600401610eed90618927565b601580546001600160a01b0319166001600160a01b0392909216919091179055565b61229e616c3e565b6001600160a01b03166122af614183565b6001600160a01b0316146122d55760405162461bcd60e51b8152600401610eed90618927565b6000818152600a60205260408120906122ee8282617929565b506001810180546001600160a01b031916905560006002820155600301805460ff1916905550565b60185490565b6023546001600160a01b031681565b60115490565b612339617965565b6000828152600a602052604090819020815160808101909252805482908290612361906192e2565b80601f016020809104026020016040519081016040528092919081815260200182805461238d906192e2565b80156123da5780601f106123af576101008083540402835291602001916123da565b820191906000526020600020905b8154815290600101906020018083116123bd57829003601f168201915b505050918352505060018201546001600160a01b031660208201526002820154604082015260038083015460609092019160ff169081111561242c57634e487b7160e01b600052602160045260246000fd5b600381111561244b57634e487b7160e01b600052602160045260246000fd5b90525092915050565b600560209081526000928352604080842090915290825290205481565b606061247c82616b51565b6124985760405162461bcd60e51b8152600401610eed90618b79565b6000828152600f60209081526040808320805482518185028101850190935280835291929091908301828280156124f857602002820191906000526020600020905b81546001600160a01b031681526001909101906020018083116124da575b50505050509050600081516001600160401b0381111561252857634e487b7160e01b600052604160045260246000fd5b60405190808252806020026020018201604052801561255b57816020015b60608152602001906001900390816125465790505b50905060005b82518110156110595760066000868152602001908152602001600020600084838151811061259f57634e487b7160e01b600052603260045260246000fd5b60200260200101516001600160a01b03166001600160a01b0316815260200190815260200160002080546125d2906192e2565b80601f01602080910402602001604051908101604052809291908181526020018280546125fe906192e2565b801561264b5780601f106126205761010080835404028352916020019161264b565b820191906000526020600020905b81548152906001019060200180831161262e57829003601f168201915b505050505082828151811061267057634e487b7160e01b600052603260045260246000fd5b602002602001018190525080806126869061931d565b915050612561565b612696616c3e565b6001600160a01b03166126a7614183565b6001600160a01b0316146126cd5760405162461bcd60e51b8152600401610eed90618927565b6000818152600b602052604081208181556001810182905560028101829055600381018290556004810182905560058101805462ffffff191690556006810182905560078101829055600881018290556009810182905590612732600a830182617929565b50600b01805460ff1916905550565b6000818152600b602052604081206009810154600890910154829161192c91619250565b601a546000908152600b602052604090206005015460ff166127995760405162461bcd60e51b8152600401610eed90618a96565b601a546000908152600b602052604090206005015462010000900460ff16156127d45760405162461bcd60e51b8152600401610eed90618859565b60006128f861286d601180549050602760009054906101000a90046001600160a01b03166001600160a01b03166338268e706040518163ffffffff1660e01b815260040160206040518083038186803b15801561283057600080fd5b505afa158015612844573d6000803e3d6000fd5b505050506040513d601f19601f820116820180604052508101906128689190617e4e565b617231565b602760009054906101000a90046001600160a01b03166001600160a01b03166364551f276040518163ffffffff1660e01b815260040160206040518083038186803b1580156128bb57600080fd5b505afa1580156128cf573d6000803e3d6000fd5b505050506040513d601f19601f820116820180604052508101906128f39190617e4e565b617247565b601154601a80546000908152600b602090815260408083206003018690559254825282822060020185905560275483516356d09ef560e11b81529351959650939491936129ad936001600160a01b039091169263ada13dea92600480840193919291829003018186803b15801561296e57600080fd5b505afa158015612982573d6000803e3d6000fd5b505050506040513d601f19601f820116820180604052508101906129a69190617e4e565b4290617257565b90506000612a41602760009054906101000a90046001600160a01b03166001600160a01b03166371c0e07c6040518163ffffffff1660e01b815260040160206040518083038186803b158015612a0257600080fd5b505afa158015612a16573d6000803e3d6000fd5b505050506040513d601f19601f82011682018060405250810190612a3a9190617e4e565b8390617257565b601a80546000908152600b6020526040808220600601869055825482528082206007018490559154815220600501805462ff0000191662010000179055905060018410801590612a92575060018310155b612aae5760405162461bcd60e51b8152600401610eed906184cb565b6000612aba8585614af9565b9050600081516001600160401b03811115612ae557634e487b7160e01b600052604160045260246000fd5b604051908082528060200260200182016040528015612b0e578160200160208202803683370190505b50905060005b8251811015612bcd576011838281518110612b3f57634e487b7160e01b600052603260045260246000fd5b602002602001015181548110612b6557634e487b7160e01b600052603260045260246000fd5b9060005260206000200160009054906101000a90046001600160a01b0316828281518110612ba357634e487b7160e01b600052603260045260246000fd5b6001600160a01b039092166020928302919091019091015280612bc58161931d565b915050612b14565b5060005b8251811015612d35576000828281518110612bfc57634e487b7160e01b600052603260045260246000fd5b602002602001015190506000600c6000836001600160a01b03166001600160a01b031681526020019081526020016000209050612c3882616c42565b612c4182617263565b612c9157601280546001810182556000919091527fbb8a6a4669ba250d26cd7a459eca9d215f8307e33aebe50379bc5a3617ec34440180546001600160a01b0319166001600160a01b0384161790555b601a80546000908152600f602090815260408083208054600180820183559185529290932090910180546001600160a01b0319166001600160a01b03871617905582549184019190915560028301805460ff19169055905490517fe4ee2dfabe57cee15e3f558890b20455f54c1fa0718e5276faad70a6500e6b8c90612d189085906180be565b60405180910390a250508080612d2d9061931d565b915050612bd1565b50601a54612d44906001617257565b601a55612d4f614652565b6014819055506001601b6000828254612d689190619250565b9091555050505050505050565b612d7e8161127b565b80612d9857506000818152600b6020526040902060030154155b612db45760405162461bcd60e51b8152600401610eed90618993565b6000818152600b6020526040902060050154610100900460ff1615612deb5760405162461bcd60e51b8152600401610eed90618bb0565b6000818152600f6020908152604080832080548251818502810185019093528083529192909190830182828015612e4b57602002820191906000526020600020905b81546001600160a01b03168152600190910190602001808311612e2d575b50505050509050600081516001600160401b03811115612e7b57634e487b7160e01b600052604160045260246000fd5b604051908082528060200260200182016040528015612eae57816020015b6060815260200190600190039081612e995790505b509050600082516001600160401b03811115612eda57634e487b7160e01b600052604160045260246000fd5b604051908082528060200260200182016040528015612f03578160200160208202803683370190505b50905060005b8351811015613086576000848281518110612f3457634e487b7160e01b600052603260045260246000fd5b60209081029190910181015160008881526004835260408082206001600160a01b0384168352909352918220805491935090612f6f906192e2565b80601f0160208091040260200160405190810160405280929190818152602001828054612f9b906192e2565b8015612fe85780601f10612fbd57610100808354040283529160200191612fe8565b820191906000526020600020905b815481529060010190602001808311612fcb57829003601f168201915b50505060008a81526005602090815260408083206001600160a01b03891684529091529020548851939450928492508891508690811061303857634e487b7160e01b600052603260045260246000fd5b60200260200101819052508085858151811061306457634e487b7160e01b600052603260045260246000fd5b602002602001018181525050505050808061307e9061931d565b915050612f09565b5060006131316064602760009054906101000a90046001600160a01b03166001600160a01b031663ea19733c6040518163ffffffff1660e01b815260040160206040518083038186803b1580156130dc57600080fd5b505afa1580156130f0573d6000803e3d6000fd5b505050506040513d601f19601f820116820180604052508101906131149190617e4e565b8651613120919061927c565b61312a9190619268565b6001617247565b905060008360008151811061315657634e487b7160e01b600052603260045260246000fd5b6020026020010151905060005b845181101561324c576000805b8651811015613201576131d187848151811061319c57634e487b7160e01b600052603260045260246000fd5b60200260200101518883815181106131c457634e487b7160e01b600052603260045260246000fd5b6020026020010151614599565b156131ef576131e1600183619250565b91508482106131ef57613201565b806131f98161931d565b915050613170565b508381106132395785828151811061322957634e487b7160e01b600052603260045260246000fd5b602002602001015192505061324c565b50806132448161931d565b915050613163565b5060008360008151811061327057634e487b7160e01b600052603260045260246000fd5b6020026020010151905060005b845181101561335f576000805b8651811015613314578681815181106132b357634e487b7160e01b600052603260045260246000fd5b60200260200101518784815181106132db57634e487b7160e01b600052603260045260246000fd5b60200260200101511415613302576132f4600183619250565b915085821061330257613314565b8061330c8161931d565b91505061328a565b5084811061334c5785828151811061333c57634e487b7160e01b600052603260045260246000fd5b602002602001015192505061335f565b50806133578161931d565b91505061327d565b5060005b865181101561396a57600087828151811061338e57634e487b7160e01b600052603260045260246000fd5b6020908102919091018101516001600160a01b03811660009081526002835260408082208d8352909352919091205490915060ff166133cc82616d9a565b6001600160a01b0382166000908152600c60205260409020811561384b576001600160a01b0383166000818152600c6020908152604080832060028101805460ff191660011790556003018390558e8352600482528083209383529290529081208054613438906192e2565b80601f0160208091040260200160405190810160405280929190818152602001828054613464906192e2565b80156134b15780601f10613486576101008083540402835291602001916134b1565b820191906000526020600020905b81548152906001019060200180831161349457829003601f168201915b505050505090506134c28188614599565b156137ac576024546040516308c0a84360e11b81526000916001600160a01b0316906311815086906134f89088906004016180be565b60206040518083038186803b15801561351057600080fd5b505afa158015613524573d6000803e3d6000fd5b505050506040513d601f19601f820116820180604052508101906135489190617b40565b6022546027546040805163474c87f360e11b815290519394506001600160a01b0392831693631b6d990a938c931691638e990fe6916004808301926020929190829003018186803b15801561359c57600080fd5b505afa1580156135b0573d6000803e3d6000fd5b505050506040513d601f19601f820116820180604052508101906135d49190617e4e565b6135de919061927c565b836040518363ffffffff1660e01b81526004016135fc929190619130565b602060405180830381600087803b15801561361657600080fd5b505af115801561362a573d6000803e3d6000fd5b505050506040513d601f19601f8201168201806040525081019061364e9190617c61565b61366a5760405162461bcd60e51b8152600401610eed9061866a565b60235460275460408051631677bb6960e01b815290516001600160a01b039384169363e0ca5094938c93911691631677bb6991600480820192602092909190829003018186803b1580156136bd57600080fd5b505afa1580156136d1573d6000803e3d6000fd5b505050506040513d601f19601f820116820180604052508101906136f59190617e4e565b6136ff919061927c565b836040518363ffffffff1660e01b815260040161371d929190619119565b602060405180830381600087803b15801561373757600080fd5b505af115801561374b573d6000803e3d6000fd5b505050506040513d601f19601f8201168201806040525081019061376f9190617c61565b61378b5760405162461bcd60e51b8152600401610eed906183ec565b60018360070160008282546137a09190619250565b909155506137c7915050565b60018260080160008282546137c19190619250565b90915550505b600582015460ff1615613845576137dd846171c1565b1580156137f457506005820154610100900460ff16155b1561384557601180546001810182556000919091527f31ecc21a745e3968a04e9570e4425bc18fa8019c68028196b546d1669c200c680180546001600160a01b0319166001600160a01b0386161790555b50613954565b6005810154610100900460ff1680613861575081155b15613954576001600160a01b0383166000908152600c60205260408120600301805460019290613892908490619250565b909155505060275460408051634fda48fb60e11b815290516001600160a01b0390921691639fb491f691600480820192602092909190829003018186803b1580156138dc57600080fd5b505afa1580156138f0573d6000803e3d6000fd5b505050506040513d601f19601f820116820180604052508101906139149190617e4e565b6001600160a01b0384166000908152600c602052604090206003015414156139545760058101805460ff1916905561394b83616c42565b61395483616d9a565b50505080806139629061931d565b915050613363565b506000878152600b6020908152604090912060058101805461ff00191661010017905583516139a192600a909201918501906178a5565b506000878152600b602052604090206004018190556139bf87611fd3565b15613b05576000878152600b60208190526040822001805460ff19166001908117909155601c8054919290916139f6908490619250565b90915550506026546040516348257dc960e01b81526001600160a01b03909116906348257dc990613a2b908a9060040161808b565b602060405180830381600087803b158015613a4557600080fd5b505af1925050508015613a75575060408051601f3d908101601f19168201909252613a7291810190617c61565b60015b613ae6573d808015613aa3576040519150601f19603f3d011682016040523d82523d6000602084013e613aa8565b606091505b507f4b87bbd93ba65ede1e2efeca735d9f7a6720bf7d6db0a8355b17dba5b64e578381604051613ad891906181d5565b60405180910390a150613b00565b6001601b6000828254613af99190619250565b9091555050505b613b3a565b6000878152600b60208190526040822001805460ff19166002179055601d805460019290613b34908490619250565b90915550505b6001601b6000828254613b4d9190619250565b90915550506000878152600b6020526040812060020154601e805491929091613b77908490619250565b90915550506000878152600b6020526040812060030154601f805491929091613ba1908490619250565b90915550506000878152600a602052604090819020600181015491516001600160a01b03909216917f6b952a8f019589a167ca00614d53768f5197c8e55684411276c2824cca45aa3191613bf491618275565b60405180910390a250505050505050565b60006112bd82610cb5846119be565b6001600160a01b03166000908152600d602052604090205490565b613c37616c3e565b6001600160a01b0316613c48614183565b6001600160a01b031614613c6e5760405162461bcd60e51b8152600401610eed90618927565b613c7860006172d3565b565b6000613c8582616b51565b613ca15760405162461bcd60e51b8152600401610eed90618b79565b506000908152600b602052604090206007015490565b60125490565b6060613cc882616b51565b613ce45760405162461bcd60e51b8152600401610eed90618b79565b6000828152600f6020908152604080832080548251818502810185019093528083529192909190830182828015613d4457602002820191906000526020600020905b81546001600160a01b03168152600190910190602001808311613d26575b50505050509050600081516001600160401b03811115613d7457634e487b7160e01b600052604160045260246000fd5b604051908082528060200260200182016040528015613da757816020015b6060815260200190600190039081613d925790505b50905060005b825181101561105957600760008681526020019081526020016000206000848381518110613deb57634e487b7160e01b600052603260045260246000fd5b60200260200101516001600160a01b03166001600160a01b031681526020019081526020016000208054613e1e906192e2565b80601f0160208091040260200160405190810160405280929190818152602001828054613e4a906192e2565b8015613e975780601f10613e6c57610100808354040283529160200191613e97565b820191906000526020600020905b815481529060010190602001808311613e7a57829003601f168201915b5050505050828281518110613ebc57634e487b7160e01b600052603260045260246000fd5b60200260200101819052508080613ed29061931d565b915050613dad565b613ee2616c3e565b6001600160a01b0316613ef3614183565b6001600160a01b031614613f195760405162461bcd60e51b8152600401610eed90618927565b601a55565b6024546001600160a01b031681565b601254601154600091613f3f91619250565b905090565b6000613f4f82616b51565b613f6b5760405162461bcd60e51b8152600401610eed90618b79565b506001600160a01b03919091166000908152600160209081526040808320938352929052205460ff1690565b600b60205260009081526040902080546001820154600283015460038401546004850154600586015460068701546007880154600889015460098a0154600a8b0180549a9b999a98999798969760ff80881698610100890482169862010000900490911696959493929061400a906192e2565b80601f0160208091040260200160405190810160405280929190818152602001828054614036906192e2565b80156140835780601f1061405857610100808354040283529160200191614083565b820191906000526020600020905b81548152906001019060200180831161406657829003601f168201915b505050600b909301549192505060ff168e565b6000806140a38487615362565b831015905060006140b48587615362565b841115806140c0575085155b90508180156140cc5750805b979650505050505050565b6012818154811061198757600080fd5b6021546001600160a01b031681565b60185481565b6006602090815260009283526040808420909152908252902080546111e5906192e2565b600c602052600090815260409020805460018201546002830154600384015460048501546005860154600687015460078801546008909801546001600160a01b0390971697959660ff95861696949593948385169461010090940490931692908a565b6000546001600160a01b031690565b600f60205281600052604060002081815481106141ae57600080fd5b6000918252602090912001546001600160a01b03169150829050565b60016000828152600b60208190526040909120015460ff16600381111561420157634e487b7160e01b600052602160045260246000fd5b1461421e5760405162461bcd60e51b8152600401610eed90618356565b336000908152600860205260409081902090516366d65cd160e01b815273__$4f8ca6118d78dd926ab9e54900dd6f45d8$__916366d65cd191614266919085906004016180b0565b60206040518083038186803b15801561427e57600080fd5b505af4158015614292573d6000803e3d6000fd5b505050506040513d601f19601f820116820180604052508101906142b69190617c61565b6142d25760405162461bcd60e51b8152600401610eed90618764565b33600090815260086020526040908190209051632bee74d760e11b815273__$4f8ca6118d78dd926ab9e54900dd6f45d8$__916357dce9ae9161431a919085906004016180b0565b60006040518083038186803b15801561433257600080fd5b505af4158015614346573d6000803e3d6000fd5b50506040513392508391507f402507661c8c8cb90e0a796450b8bdd28b6c516f05279c0cd29e84c344e1699a90600090a350565b601c5481565b60005b81518110156143ce576143bc8282815181106143af57634e487b7160e01b600052603260045260246000fd5b60200260200101516141ca565b806143c68161931d565b915050614383565b5050565b600082826040516020016143e7929190618069565b60405160208183030381529060405280519060200120905092915050565b61440d616c3e565b6001600160a01b031661441e614183565b6001600160a01b0316146144445760405162461bcd60e51b8152600401610eed90618927565b602580546001600160a01b0319166001600160a01b0392909216919091179055565b601c5490565b601d5481565b600061447d82616b51565b6144995760405162461bcd60e51b8152600401610eed90618b79565b6000828152600b60205260409020600601546144b49061597e565b1580156112bd5750506000908152600b6020526040902060020154151590565b600a602052600090815260409020805481906144ef906192e2565b80601f016020809104026020016040519081016040528092919081815260200182805461451b906192e2565b80156145685780601f1061453d57610100808354040283529160200191614568565b820191906000526020600020905b81548152906001019060200180831161454b57829003601f168201915b505050506001830154600284015460039094015492936001600160a01b039091169290915060ff1684565b60165490565b6000816040516020016145ac9190618094565b60405160208183030381529060405280519060200120836040516020016145d39190618094565b6040516020818303038152906040528051906020012014156145f7575060016112bd565b5060006112bd565b600061460a82616b51565b6146265760405162461bcd60e51b8152600401610eed90618b79565b506001600160a01b03919091166000908152600260209081526040808320938352929052205460ff1690565b6000804241604051602001614667919061804c565b6040516020818303038152906040528051906020012060001c61468a9190619268565b446146936119a1565b6040516020016146a3919061808b565b60408051601f1981840301815291905280516020909101206146c59042619250565b6146cf9190619250565b6146d99190619250565b6040516020016146e9919061808b565b60408051601f19818403018152919052805160209091012091505090565b6015546001600160a01b031681565b6013818154811061198757600080fd5b6001600160a01b038082166000908152600c6020908152604080832081516101408101835281549095168552600181015492850192909252600282015460ff90811615801592860183905260038401546060870152600484015460808701526005840154808316151560a088015261010090819004909216151560c0870152600684015460e0870152600784015491860191909152600890920154610120850152919283929091906147e257506147e0816020015161127b565b155b156147ec57600191505b5092915050565b6060600082116148155760405162461bcd60e51b8152600401610eed90618902565b600041604051602001614828919061804c565b6040516020818303038152906040528051906020012060001c6148496119a1565b604051602001614859919061808b565b60408051601f19818403018152919052805160209091012061487b9042619250565b6148859190619250565b604051602001614895919061808b565b6040516020818303038152906040528051906020012060001c90506000846001600160401b038111156148d857634e487b7160e01b600052604160045260246000fd5b604051908082528060200260200182016040528015614901578160200160208202803683370190505b5090506000805b86821015614a025760008661492163017efeeb8761929b565b836040516020016149339291906180b0565b6040516020818303038152906040528051906020012060001c6149569190619338565b90506000805b848110156149ae578286828151811061498557634e487b7160e01b600052603260045260246000fd5b6020026020010151141561499c57600191506149ae565b806149a68161931d565b91505061495c565b50806149ee57818585815181106149d557634e487b7160e01b600052603260045260246000fd5b60209081029190910101526149eb846001619250565b93505b6149f9836001619250565b92505050614908565b509095945050505050565b6000614a188361127b565b614a345760405162461bcd60e51b8152600401610eed90618d71565b6001600160a01b038416600090815260026020908152604080832086845290915290205460ff16614a775760405162461bcd60e51b8152600401610eed906187c1565b6000614a8284611fd3565b614a8d576000614a90565b60015b60ff16905060008184604051602001614aaa9291906180b0565b6040516020818303038152906040528051906020012090506000614ace8787615939565b9050808214614aef5760405162461bcd60e51b8152600401610eed90618a4d565b6140cc8787615362565b6060600082118015614b0b5750818311155b8015614b18575060018310155b614b345760405162461bcd60e51b8152600401610eed90618482565b6000826001600160401b03811115614b5c57634e487b7160e01b600052604160045260246000fd5b604051908082528060200260200182016040528015614b85578160200160208202803683370190505b5090506000846001600160401b03811115614bb057634e487b7160e01b600052604160045260246000fd5b604051908082528060200260200182016040528015614bd9578160200160208202803683370190505b5090506000614bef614bea84617323565b617379565b905060005b86811015614a0257818181518110614c1c57634e487b7160e01b600052603260045260246000fd5b6020026020010151838281518110614c4457634e487b7160e01b600052603260045260246000fd5b602090810291909101015280614c598161931d565b915050614bf4565b614c69616eca565b614c7285614472565b614c8e5760405162461bcd60e51b8152600401610eed90618515565b33600090815260016020908152604080832088845290915290205460ff1615614cc95760405162461bcd60e51b8152600401610eed90618bf1565b614cd385336153f7565b614cef5760405162461bcd60e51b8152600401610eed90618579565b6027546040805163b3f6c86160e01b815290516000926001600160a01b03169163b3f6c861916004808301926020929190829003018186803b158015614d3457600080fd5b505afa158015614d48573d6000803e3d6000fd5b505050506040513d601f19601f82011682018060405250810190614d6c9190617e4e565b60245460405163792f4f6960e11b81529192506000916001600160a01b039091169063f25e9ed290614da29033906004016180be565b60206040518083038186803b158015614dba57600080fd5b505afa158015614dce573d6000803e3d6000fd5b505050506040513d601f19601f82011682018060405250810190614df29190617b40565b336000908152600d6020526040902054909150821115614e9b576001600160a01b03811615614e72576001600160a01b0381166000908152600d6020526040902054821115614e6d576001600160a01b0381166000908152600d6020526040812054614e5f9084906171b5565b9050614e6b8183617520565b505b614e9b565b336000908152600d6020526040812054614e8d9084906171b5565b9050614e998133617520565b505b336000908152600d6020526040902054821115614eca5760405162461bcd60e51b8152600401610eed90618c7c565b6000336000908152600860205260408082209051633db51cff60e21b815273__$4f8ca6118d78dd926ab9e54900dd6f45d8$__9163f6d473fc91614f13919086906004016180b0565b60206040518083038186803b158015614f2b57600080fd5b505af4158015614f3f573d6000803e3d6000fd5b505050506040513d601f19601f82011682018060405250810190614f639190617e4e565b9050888114156150085733600090815260086020526040908190209051633db51cff60e21b815273__$4f8ca6118d78dd926ab9e54900dd6f45d8$__9163f6d473fc91614fb591908d906004016180b0565b60206040518083038186803b158015614fcd57600080fd5b505af4158015614fe1573d6000803e3d6000fd5b505050506040513d601f19601f820116820180604052508101906150059190617e4e565b90505b61501482823387614096565b6150305760405162461bcd60e51b8152600401610eed9061882b565b336000908152600860205260409081902090516325208cf360e11b815273__$4f8ca6118d78dd926ab9e54900dd6f45d8$__91634a4119e69161507c919086908e9087906004016190aa565b60006040518083038186803b15801561509457600080fd5b505af41580156150a8573d6000803e3d6000fd5b5050505060006150b8338b6143d2565b6040516372af243160e01b815290915073__$124728fb251f3a5286f0c82d495c0ef87b$__906372af2431906150f79060099085908a9060040161908c565b60006040518083038186803b15801561510f57600080fd5b505af4158015615123573d6000803e3d6000fd5b50506040516372af243160e01b815273__$124728fb251f3a5286f0c82d495c0ef87b$__92506372af243191506151639060099085908e90600401619040565b60006040518083038186803b15801561517b57600080fd5b505af415801561518f573d6000803e3d6000fd5b50505060008b8152600560209081526040808320338085529083528184208d90558e845260068352818420908452825290912089516151d3935090918a01906178a5565b5060008a8152600760209081526040808320338452825290912087516151fb928901906178a5565b50336000908152600c602090815260408083208d8452600b909252909120600201546152289060016171b5565b60008c8152600b602090815260408083206002019390935542600485015533825260018082528383208f8452909152918120805460ff191683179055601b8054909190615276908490619250565b909155505060405133908c907fe202f9d0030daccda1de08bdd2cf8a6474b02f3130bb95ec3a98f487bef602b2906152af908a9061808b565b60405180910390a35050505050505050505050565b6152cc616c3e565b6001600160a01b03166152dd614183565b6001600160a01b0316146153035760405162461bcd60e51b8152600401610eed90618927565b602480546001600160a01b0319166001600160a01b0392909216919091179055565b600061533082616b51565b61534c5760405162461bcd60e51b8152600401610eed90618b79565b506000908152600b602052604090206006015490565b600073__$124728fb251f3a5286f0c82d495c0ef87b$__63f96e7ddc600961538a86866143d2565b6040518363ffffffff1660e01b81526004016153a792919061906e565b60206040518083038186803b1580156153bf57600080fd5b505af41580156153d3573d6000803e3d6000fd5b505050506040513d601f19601f8201168201806040525081019061192c9190617e4e565b6000828152600f6020908152604080832080548251818502810185019093528083528493849392919083018282801561545957602002820191906000526020600020905b81546001600160a01b0316815260019091019060200180831161543b575b5050505050905060005b81518110156154c857846001600160a01b031682828151811061549657634e487b7160e01b600052603260045260246000fd5b60200260200101516001600160a01b031614156154b657600192506154c8565b806154c08161931d565b915050615463565b5090949350505050565b600260209081526000928352604080842090915290825290205460ff1681565b60175481565b601a5481565b606081831061551f5760405162461bcd60e51b8152600401610eed90618ef9565b61552882616b51565b6155445760405162461bcd60e51b8152600401610eed90618707565b6000615550848461929b565b61555b906001619250565b90506000816001600160401b0381111561558557634e487b7160e01b600052604160045260246000fd5b6040519080825280602002602001820160405280156155b857816020015b60608152602001906001900390816155a35790505b509050845b848110156156da5760016000828152600b60208190526040909120015460ff1660038111156155fc57634e487b7160e01b600052602160045260246000fd5b14156156c8576000818152600b60205260409020600a01805461561e906192e2565b80601f016020809104026020016040519081016040528092919081815260200182805461564a906192e2565b80156156975780601f1061566c57610100808354040283529160200191615697565b820191906000526020600020905b81548152906001019060200180831161567a57829003601f168201915b50505050508282815181106156bc57634e487b7160e01b600052603260045260246000fd5b60200260200101819052505b806156d28161931d565b9150506155bd565b50949350505050565b60606156ee82616b51565b61570a5760405162461bcd60e51b8152600401610eed90618b79565b6000828152600f602090815260408083208054825181850281018501909352808352919290919083018282801561576a57602002820191906000526020600020905b81546001600160a01b0316815260019091019060200180831161574c575b50505050509050600081516001600160401b0381111561579a57634e487b7160e01b600052604160045260246000fd5b6040519080825280602002602001820160405280156157cd57816020015b60608152602001906001900390816157b85790505b50905060005b82518110156110595760046000868152602001908152602001600020600084838151811061581157634e487b7160e01b600052603260045260246000fd5b60200260200101516001600160a01b03166001600160a01b031681526020019081526020016000208054615844906192e2565b80601f0160208091040260200160405190810160405280929190818152602001828054615870906192e2565b80156158bd5780601f10615892576101008083540402835291602001916158bd565b820191906000526020600020905b8154815290600101906020018083116158a057829003601f168201915b50505050508282815181106158e257634e487b7160e01b600052603260045260246000fd5b602002602001018190525080806158f89061931d565b9150506157d3565b600e60205281600052604060002081815481106141ae57600080fd5b600360209081526000928352604080842090915290825290205481565b600073__$124728fb251f3a5286f0c82d495c0ef87b$__63f96e7ddc600961596186866143d2565b6040518363ffffffff1660e01b81526004016153a7929190619022565b421190565b61598b6179b4565b61599482616b51565b6159b05760405162461bcd60e51b8152600401610eed90618b79565b6000828152600b602090815260409182902082516101c081018452815481526001820154928101929092526002810154928201929092526003820154606082015260048201546080820152600582015460ff808216151560a08401526101008083048216151560c08501526201000090920416151560e0830152600683015490820152600782015461012082015260088201546101408201526009820154610160820152600a8201805491929161018084019190615a6d906192e2565b80601f0160208091040260200160405190810160405280929190818152602001828054615a99906192e2565b8015615ae65780601f10615abb57610100808354040283529160200191615ae6565b820191906000526020600020905b815481529060010190602001808311615ac957829003601f168201915b5050509183525050600b82015460209091019060ff16600381111561242c57634e487b7160e01b600052602160045260246000fd5b615b23616eca565b60135415615b3357615b33617628565b615b3b6176dc565b60005b602760009054906101000a90046001600160a01b03166001600160a01b0316637d630cb06040518163ffffffff1660e01b815260040160206040518083038186803b158015615b8c57600080fd5b505afa158015615ba0573d6000803e3d6000fd5b505050506040513d601f19601f82011682018060405250810190615bc49190617e4e565b81101561140e576019546000908152600b602052604081206005015462010000900460ff1615156001148015615c1d5750615c0060195461127b565b80615c1d57506019546000908152600b6020526040902060030154155b15615c4257615c2d601954612d75565b601954615c3b906001617257565b6019555060015b601a546000908152600b602052604090206005015462010000900460ff161515600114801590615cf95750602760009054906101000a90046001600160a01b03166001600160a01b03166364551f276040518163ffffffff1660e01b815260040160206040518083038186803b158015615cbb57600080fd5b505afa158015615ccf573d6000803e3d6000fd5b505050506040513d601f19601f82011682018060405250810190615cf39190617e4e565b60115410155b8015615d0e5750615d08614652565b60145414155b8015615d2e5750601a546000908152600b602052604090206005015460ff165b15615d3f57615d3b612765565b5060015b80615d4a575061140e565b5080615d558161931d565b915050615b3e565b6026546001600160a01b031681565b615d74616c3e565b6001600160a01b0316615d85614183565b6001600160a01b031614615dab5760405162461bcd60e51b8152600401610eed90618927565b602280546001600160a01b0319166001600160a01b0392909216919091179055565b615dd5616c3e565b6001600160a01b0316615de6614183565b6001600160a01b031614615e0c5760405162461bcd60e51b8152600401610eed90618927565b602180546001600160a01b0319166001600160a01b0392909216919091179055565b336000908152600d602052604090205490565b606060008211615e635760405162461bcd60e51b8152600401610eed9061880c565b6000826001600160401b03811115615e8b57634e487b7160e01b600052604160045260246000fd5b604051908082528060200260200182016040528015615eb4578160200160208202803683370190505b5090506000615ec5614bea83617323565b949350505050565b6060615ed882616b51565b615ef45760405162461bcd60e51b8152600401610eed90618b79565b6000828152600b60205260409020600a018054615f10906192e2565b80601f0160208091040260200160405190810160405280929190818152602001828054615f3c906192e2565b8015615f895780601f10615f5e57610100808354040283529160200191615f89565b820191906000526020600020905b815481529060010190602001808311615f6c57829003601f168201915b50505050509050919050565b6001600160a01b03166000908152600c602052604090206005015460ff1690565b6000615fda615fc433613c05565b336000908152600d6020526040902054906171b5565b905081811015615ffc5760405162461bcd60e51b8152600401610eed90618b32565b602154604051630895993360e11b81526001600160a01b039091169063112b32669061602e9085903390600401619119565b602060405180830381600087803b15801561604857600080fd5b505af115801561605c573d6000803e3d6000fd5b505050506040513d601f19601f820116820180604052508101906160809190617c61565b61609c5760405162461bcd60e51b8152600401610eed90618e27565b336000908152600d6020526040812080548492906160bb90849061929b565b909155505060405133907ffaeb7dbb9992397d26ea1944efd40c80b40f702faf69b46c67ad10aba68ccb79906160f290859061808b565b60405180910390a25050565b606061610982616b51565b6161255760405162461bcd60e51b8152600401610eed9061895c565b600082601954616135919061929b565b616140906001619250565b90506000816001600160401b0381111561616a57634e487b7160e01b600052604160045260246000fd5b60405190808252806020026020018201604052801561619d57816020015b60608152602001906001900390816161885790505b509050835b6019548110156110595760016000828152600b60208190526040909120015460ff1660038111156161e357634e487b7160e01b600052602160045260246000fd5b14156162af576000818152600b60205260409020600a018054616205906192e2565b80601f0160208091040260200160405190810160405280929190818152602001828054616231906192e2565b801561627e5780601f106162535761010080835404028352916020019161627e565b820191906000526020600020905b81548152906001019060200180831161626157829003601f168201915b50505050508282815181106162a357634e487b7160e01b600052603260045260246000fd5b60200260200101819052505b806162b98161931d565b9150506161a2565b601f5481565b60606162d282616b51565b6162ee5760405162461bcd60e51b8152600401610eed90618b79565b6000828152600b6020908152604080832081516101c081018352815481526001820154938101939093526002810154918301919091526003810154606083015260048101546080830152600581015460ff808216151560a08501526101008083048216151560c08601526201000090920416151560e0840152600682015490830152600781015461012083015260088101546101408301526009810154610160830152600a81018054610180840191906163a7906192e2565b80601f01602080910402602001604051908101604052809291908181526020018280546163d3906192e2565b80156164205780601f106163f557610100808354040283529160200191616420565b820191906000526020600020905b81548152906001019060200180831161640357829003601f168201915b5050509183525050600b82015460209091019060ff16600381111561645557634e487b7160e01b600052602160045260246000fd5b600381111561647457634e487b7160e01b600052602160045260246000fd5b90525060208101519091506000816001600160401b038111156164a757634e487b7160e01b600052604160045260246000fd5b6040519080825280602002602001820160405280156164da57816020015b60608152602001906001900390816164c55790505b50905060005b828110156156da5783516000906164f8908390619250565b6000818152600a6020526040812080549293509091616516906192e2565b80601f0160208091040260200160405190810160405280929190818152602001828054616542906192e2565b801561658f5780601f106165645761010080835404028352916020019161658f565b820191906000526020600020905b81548152906001019060200180831161657257829003601f168201915b50505050509050808484815181106165b757634e487b7160e01b600052603260045260246000fd5b6020026020010181905250505080806165cf9061931d565b9150506164e0565b60195481565b601b5481565b6165eb616c3e565b6001600160a01b03166165fc614183565b6001600160a01b0316146166225760405162461bcd60e51b8152600401610eed90618927565b6001600160a01b0381166166485760405162461bcd60e51b8152600401610eed9061843c565b61140e816172d3565b600082826040516020016143e7929190618253565b601b5490565b616674616eca565b336000908152600c602090815260409182902060275483516398a54e2b60e01b8152935191936001600160a01b03909116926398a54e2b92600480840193829003018186803b1580156166c657600080fd5b505afa1580156166da573d6000803e3d6000fd5b505050506040513d601f19601f820116820180604052508101906166fe9190617e4e565b60125460115461670e9190619250565b1061672b5760405162461bcd60e51b8152600401610eed90618c3a565b600581015460ff16156167505760405162461bcd60e51b8152600401610eed9061831f565b602760009054906101000a90046001600160a01b03166001600160a01b0316639fb491f66040518163ffffffff1660e01b815260040160206040518083038186803b15801561679e57600080fd5b505afa1580156167b2573d6000803e3d6000fd5b505050506040513d601f19601f820116820180604052508101906167d69190617e4e565b81600301541015801561687b5750602760009054906101000a90046001600160a01b03166001600160a01b0316630f1f0ffe6040518163ffffffff1660e01b815260040160206040518083038186803b15801561683257600080fd5b505afa158015616846573d6000803e3d6000fd5b505050506040513d601f19601f8201168201806040525081019061686a9190617e4e565b6006820154616879904261929b565b105b156168985760405162461bcd60e51b8152600401610eed90618cd9565b6027546040805163b3f6c86160e01b815290516000926001600160a01b03169163b3f6c861916004808301926020929190829003018186803b1580156168dd57600080fd5b505afa1580156168f1573d6000803e3d6000fd5b505050506040513d601f19601f820116820180604052508101906169159190617e4e565b60245460405163792f4f6960e11b81529192506000916001600160a01b039091169063f25e9ed29061694b9033906004016180be565b60206040518083038186803b15801561696357600080fd5b505afa158015616977573d6000803e3d6000fd5b505050506040513d601f19601f8201168201806040525081019061699b9190617b40565b336000908152600d6020526040902054909150821115616a44576001600160a01b03811615616a1b576001600160a01b0381166000908152600d6020526040902054821115616a16576001600160a01b0381166000908152600d6020526040812054616a089084906171b5565b9050616a148183617520565b505b616a44565b336000908152600d6020526040812054616a369084906171b5565b9050616a428133617520565b505b336000908152600d6020526040902054821115616a735760405162461bcd60e51b8152600401610eed90618dbb565b616a7c336171c1565b616ac357601180546001810182556000919091527f31ecc21a745e3968a04e9570e4425bc18fa8019c68028196b546d1669c200c680180546001600160a01b031916331790555b8254336001600160a01b031990911617835560058301805460ff1916600190811761ff001916909155426006850155600060038501819055601b8054909190616b0d908490619250565b909155505060405133907f439d77b7534ec3108fc6143bd4fbabde0b9f2bb54f7b0730d1f70dd2135b765f90616b4490429061808b565b60405180910390a2505050565b601854101590565b336000908152600c602052604090206005015460ff1690565b601d5490565b6020546001600160a01b031681565b6001600160a01b039081166000908152600c6020908152604091829020825161014081018452815490941684526001810154918401829052600281015460ff90811615159385019390935260038101546060850152600481015460808501526005810154808416151560a086015261010090819004909316151560c0850152600681015460e08501526007810154928401929092526008909101546101209092019190915290565b6027546001600160a01b031681565b3390565b60008060005b601154811015616cb657836001600160a01b031660118281548110616c7d57634e487b7160e01b600052603260045260246000fd5b6000918252602090912001546001600160a01b03161415616ca45760019150809250616cb6565b80616cae8161931d565b915050616c48565b508015616d955760118054616ccd9060019061929b565b81548110616ceb57634e487b7160e01b600052603260045260246000fd5b600091825260209091200154601180546001600160a01b039092169184908110616d2557634e487b7160e01b600052603260045260246000fd5b9060005260206000200160006101000a8154816001600160a01b0302191690836001600160a01b031602179055506011805480616d7257634e487b7160e01b600052603160045260246000fd5b600082815260209020810160001990810180546001600160a01b03191690550190555b505050565b60008060005b601254811015616e0e57836001600160a01b031660128281548110616dd557634e487b7160e01b600052603260045260246000fd5b6000918252602090912001546001600160a01b03161415616dfc5760019150809250616e0e565b80616e068161931d565b915050616da0565b508015616d955760128054616e259060019061929b565b81548110616e4357634e487b7160e01b600052603260045260246000fd5b600091825260209091200154601280546001600160a01b039092169184908110616e7d57634e487b7160e01b600052603260045260246000fd5b9060005260206000200160006101000a8154816001600160a01b0302191690836001600160a01b031602179055506012805480616d7257634e487b7160e01b600052603160045260246000fd5b60275460408051632abe0d5f60e11b815290516000926001600160a01b03169163557c1abe916004808301926020929190829003018186803b158015616f0f57600080fd5b505afa925050508015616f3f575060408051601f3d908101601f19168201909252616f3c91810190617b40565b60015b616fb0573d808015616f6d576040519150601f19603f3d011682016040523d82523d6000602084013e616f72565b606091505b507f4b87bbd93ba65ede1e2efeca735d9f7a6720bf7d6db0a8355b17dba5b64e578381604051616fa291906181d5565b60405180910390a150616fb2565b505b602760009054906101000a90046001600160a01b03166001600160a01b031663557c1abe6040518163ffffffff1660e01b815260040160206040518083038186803b15801561700057600080fd5b505afa158015617014573d6000803e3d6000fd5b505050506040513d601f19601f820116820180604052508101906170389190617b40565b90506001600160a01b0381166170605760405162461bcd60e51b8152600401610eed906185d6565b6000816001600160a01b03163360405160240161707d91906180be565b60408051601f198184030181529181526020820180516001600160e01b0316631f5ac9c560e11b179052516170b29190618094565b6000604051808303816000865af19150503d80600081146170ef576040519150601f19603f3d011682016040523d82523d6000602084013e6170f4565b606091505b505090506000826001600160a01b03163360405160240161711591906180be565b60408051601f198184030181529181526020820180516001600160e01b03166358563d2160e01b1790525161714a9190618094565b6000604051808303816000865af19150503d8060008114617187576040519150601f19603f3d011682016040523d82523d6000602084013e61718c565b606091505b5050905081806171995750805b616d955760405162461bcd60e51b8152600401610eed906183a7565b600061192c828461929b565b600080805b6011548110156147ec57836001600160a01b0316601182815481106171fb57634e487b7160e01b600052603260045260246000fd5b6000918252602090912001546001600160a01b0316141561721f57600191506147ec565b806172298161931d565b9150506171c6565b6000818310617240578161192c565b5090919050565b600081831015617240578161192c565b600061192c8284619250565b600080805b6012548110156147ec57836001600160a01b03166012828154811061729d57634e487b7160e01b600052603260045260246000fd5b6000918252602090912001546001600160a01b031614156172c157600191506147ec565b806172cb8161931d565b915050617268565b600080546001600160a01b038381166001600160a01b0319831681178455604051919092169283917f8be0079c531659141344cd1fd0a4f28419497f9722a3daafe3b4186f6b6457e09190a35050565b805160609060005b81811015617371578084828151811061735457634e487b7160e01b600052603260045260246000fd5b6020908102919091010152806173698161931d565b91505061732b565b509192915050565b6060600082511161739c5760405162461bcd60e51b8152600401610eed9061854c565b81518060005b81811015617517576000836173b5614652565b8784815181106173d557634e487b7160e01b600052603260045260246000fd5b60200260200101516040516020016173ee9291906180b0565b6040516020818303038152906040528051906020012060001c6174119190619338565b61741c906001619250565b905060008661742c60018461929b565b8151811061744a57634e487b7160e01b600052603260045260246000fd5b6020026020010151905086600186617462919061929b565b8151811061748057634e487b7160e01b600052603260045260246000fd5b602002602001015187600184617496919061929b565b815181106174b457634e487b7160e01b600052603260045260246000fd5b602090810291909101015280876174cc60018861929b565b815181106174ea57634e487b7160e01b600052603260045260246000fd5b602090810291909101015261750060018661929b565b94505050808061750f9061931d565b9150506173a2565b50929392505050565b6021546040516304ada21f60e21b81526001600160a01b03909116906312b6887c906175529085908590600401619119565b602060405180830381600087803b15801561756c57600080fd5b505af1158015617580573d6000803e3d6000fd5b505050506040513d601f19601f820116820180604052508101906175a49190617c61565b6175c05760405162461bcd60e51b8152600401610eed9061860d565b6001600160a01b0381166000908152600d6020526040812080548492906175e8908490619250565b92505081905550806001600160a01b03167f5aa5d56140767016c877a5333ac3e1ad31a09051098a8fdf7297c4b64530a942836040516160f2919061808b565b60005b6013548110156176cf5760006013828154811061765857634e487b7160e01b600052603260045260246000fd5b60009182526020808320909101546001600160a01b0316808352600c909152604090912060058101549192509060ff16801561769657506001810154155b156176ba5760058101805461ffff191690556176b182616c42565b6176ba82616d9a565b505080806176c79061931d565b91505061762b565b50613c7860136000617a42565b60006017546019546176ee919061929b565b9050602760009054906101000a90046001600160a01b03166001600160a01b031663e3115d3c6040518163ffffffff1660e01b815260040160206040518083038186803b15801561773e57600080fd5b505afa158015617752573d6000803e3d6000fd5b505050506040513d601f19601f820116820180604052508101906177769190617e4e565b81111561140e5760005b602754604080516307d630cb60e41b81529051617804926001600160a01b031691637d630cb0916004808301926020929190829003018186803b1580156177c657600080fd5b505afa1580156177da573d6000803e3d6000fd5b505050506040513d601f19601f820116820180604052508101906177fe9190617e4e565b83617231565b8110156143ce576017546000908152600b6020526040812080546001909101549091906178319083619250565b9050815b818110156178585761784681612296565b806178508161931d565b915050617835565b5061786460175461268e565b6017546040517f72c2fcc891fe835b86fc8bb9abdc52adf52499c52289b3c49e1461eabea2717590600090a25050808061789d9061931d565b915050617780565b8280546178b1906192e2565b90600052602060002090601f0160209004810192826178d35760008555617919565b82601f106178ec57805160ff1916838001178555617919565b82800160010185558215617919579182015b828111156179195782518255916020019190600101906178fe565b50617925929150617a5c565b5090565b508054617935906192e2565b6000825580601f10617947575061140e565b601f01602090049060005260206000209081019061140e9190617a5c565b60405180608001604052806060815260200160006001600160a01b0316815260200160008152602001600060038111156179af57634e487b7160e01b600052602160045260246000fd5b905290565b604051806101c0016040528060008152602001600081526020016000815260200160008152602001600081526020016000151581526020016000151581526020016000151581526020016000815260200160008152602001600081526020016000815260200160608152602001600060038111156179af57634e487b7160e01b600052602160045260246000fd5b508054600082559060005260206000209081019061140e91905b5b808211156179255760008155600101617a5d565b8051801515811461105e57600080fd5b80516004811061105e57600080fd5b600082601f830112617aa0578081fd5b8135617ab3617aae8261921d565b6191f4565b818152846020838601011115617ac7578283fd5b816020850160208301379081016020019190915292915050565b600082601f830112617af1578081fd5b8151617aff617aae8261921d565b818152846020838601011115617b13578283fd5b615ec58260208301602087016192b2565b600060208284031215617b35578081fd5b813561192c8161938e565b600060208284031215617b51578081fd5b815161192c8161938e565b60008060408385031215617b6e578081fd5b8235617b798161938e565b946020939093013593505050565b600080600060608486031215617b9b578081fd5b8335617ba68161938e565b95602085013595506040909401359392505050565b60006020808385031215617bcd578182fd5b82356001600160401b0380821115617be3578384fd5b818501915085601f830112617bf6578384fd5b813581811115617c0857617c08619378565b8381029150617c188483016191f4565b8181528481019084860184860187018a1015617c32578788fd5b8795505b83861015617c54578035835260019590950194918601918601617c36565b5098975050505050505050565b600060208284031215617c72578081fd5b61192c82617a71565b60008060408385031215617c8d578182fd5b82356001600160401b0380821115617ca3578384fd5b617caf86838701617a90565b93506020850135915080821115617cc4578283fd5b50617cd185828601617a90565b9150509250929050565b60008060408385031215617ced578182fd5b82356001600160401b03811115617d02578283fd5b617d0e85828601617a90565b95602094909401359450505050565b600060208284031215617d2e578081fd5b81516001600160401b0380821115617d44578283fd5b81840191506101c0808387031215617d5a578384fd5b617d63816191f4565b905082518152602083015160208201526040830151604082015260608301516060820152617d9360808401617a71565b6080820152617da460a08401617a71565b60a0820152617db560c08401617a71565b60c082015260e083810151908201526101008084015190820152610120808401519082015261014080840151908201526101608084015183811115617df8578586fd5b617e0488828701617ae1565b828401525050610180915081830151828201526101a09150617e27828401617a81565b91810191909152949350505050565b600060208284031215617e47578081fd5b5035919050565b6000602082840312156119b7578081fd5b60008060408385031215617e71578182fd5b823591506020830135617e838161938e565b809150509250929050565b600080600080600060a08688031215617ea5578283fd5b85359450602086013593506040860135925060608601356001600160401b0380821115617ed0578283fd5b617edc89838a01617a90565b93506080880135915080821115617ef1578283fd5b50617efe88828901617a90565b9150509295509295909350565b60008060408385031215617f1d578182fd5b50508035926020909101359150565b60008060008060808587031215617f41578182fd5b84359350602085013592506040850135617f5a8161938e565b9396929550929360600135925050565b60008060008060808587031215617f7f578182fd5b843593506020850135925060408501356001600160401b03811115617fa2578283fd5b617fae87828801617a90565b949793965093946060013593505050565b15159052565b60008151808452617fdd8160208601602086016192b2565b601f01601f19169290920160200192915050565b6004811061800f57634e487b7160e01b600052602160045260246000fd5b9052565b600a8152690c6dedadad2e890c2e6d60b31b602082015260400190565b60098152686e756d546f6b656e7360b81b602082015260400190565b60609190911b6bffffffffffffffffffffffff1916815260140190565b60609290921b6bffffffffffffffffffffffff19168252601482015260340190565b90815260200190565b600082516180a68184602087016192b2565b9190910192915050565b918252602082015260400190565b6001600160a01b0391909116815260200190565b6001600160a01b039a909a168a5260208a0198909852951515604089015260608801949094526080870192909252151560a0860152151560c085015260e08401526101008301526101208201526101400190565b6000602080830181845280855180835260408601915060408482028701019250838701855b8281101561817957603f19888603018452618167858351617fc5565b9450928501929085019060010161814b565b5092979650505050505050565b6020808252825182820181905260009190848201906040850190845b818110156181be578351835292840192918401916001016181a2565b50909695505050505050565b901515815260200190565b60006020825261192c6020830184617fc5565b6000604082526181fb6040830185617fc5565b905060018060a01b03831660208301529392505050565b6000608082526182256080830187617fc5565b6001600160a01b038616602084015260408301859052905061824a6060830184617ff1565b95945050505050565b6000604082526182666040830185617fc5565b90508260208301529392505050565b600060208083528184548360028204905060018083168061829757607f831692505b8583108114156182b557634e487b7160e01b87526022600452602487fd5b6182c183878a0161808b565b8180156182d557600181146182e657618310565b60ff19861682528782019650618310565b6182ef8b619244565b895b8681101561830a578154848201529085019089016182f1565b83019750505b50949998505050505050505050565b6020808252601c908201527f576f726b657220697320616c7265616479207265676973746572656400000000604082015260600190565b60208082526031908201527f676976656e204461746142617463682073686f756c6420626520415050524f5660408201527011510b08185b99081a5d081a5cc81b9bdd607a1b606082015260800190565b60208082526025908201527f72656365697665722072656a6563746564205f7265747269657665534675656c6040820152640818d85b1b60da1b606082015260800190565b60208082526030908201527f636f756c64206e6f742072657761726420746f6b656e20696e2056616c69646160408201526f3a32a230ba30a130ba31b4161018973160811b606082015260800190565b60208082526026908201527f4f776e61626c653a206e6577206f776e657220697320746865207a65726f206160408201526564647265737360d01b606082015260800190565b60208082526029908201527f6b206f72204e20617265206e6f74204f4b20647572696e672072616e646f6d2060408201526839b2b632b1ba34b7b760b91b606082015260800190565b6020808252602a908201527f4661696c20647572696e6720616c6c6f636174696f6e3a206e6f7420656e6f75604082015269676820776f726b65727360b01b606082015260800190565b6020808252601e908201527f636f6d6d697420706572696f64206e6565647320746f206265206f70656e0000604082015260600190565b60208082526013908201527205f6d7941727261792e6c656e677468203e203606c1b604082015260600190565b60208082526038908201527f55736572206e6565647320746f20626520616c6c6f636174656420746f20746860408201527f697320626174636820746f20636f6d6d6974206f6e2069740000000000000000606082015260800190565b6020808252601d908201527f734675656c3a206e756c6c2041646472657373204e6f742056616c6964000000604082015260600190565b6020808252603f908201527f436f756c64206e6f74207265717565737420656e6f75676820616c6c6f63617460408201527f6564207374616b652c2072657175657374416c6c6f63617465645374616b6500606082015260800190565b6020808252602e908201527f636f756c64206e6f74207265776172642052455020696e2056616c696461746560408201526d4461746142617463682c20312e6160901b606082015260800190565b6020808252602f908201527f5573657220686173206e6f7420636f6d6d69746564206265666f72652c20746860408201526e1d5cc818d85b89dd081c995d99585b608a1b606082015260800190565b6020808252603b908201527f5f44617461426174636849645f656e64206d7573742065786973743a2074686560408201527f20696e7075742072616e6765206973206e6f7420636f72726563740000000000606082015260800190565b60208082526039908201527f646c6c4d61703a20646f6573206e6f7420636f696e7461696e205f446174614260408201527f61746368496420666f7220746865206d73672073656e64657200000000000000606082015260800190565b6020808252602b908201527f75736572206d75737420686176652072657665616c656420696e20746869732060408201526a0ced2eccadc4084c2e8c6d60ab1b606082015260800190565b60208082526005908201526404e203e20360dc1b604082015260600190565b6020808252601490820152733737ba1030903b30b634b2103837b9b4ba34b7b760611b604082015260600190565b6020808252603b908201527f43616e277420616c6c6f6361746520776f726b2c207468652063757272656e7460408201527f20626174636820697320616c726561647920616c6c6f63617465640000000000606082015260800190565b6020808252602c908201527f576f726b6572206973206e6f74207265676973746572656420736f2063616e2760408201526b3a103ab73932b3b4b9ba32b960a11b606082015260800190565b6020808252600b908201526a04e5f72616e6765203e20360ac1b604082015260600190565b6020808252818101527f4f776e61626c653a2063616c6c6572206973206e6f7420746865206f776e6572604082015260600190565b6020808252601d908201527f5f44617461426174636849645f7374617274206d757374206578697374000000604082015260600190565b6020808252603a908201527f5f446174614261746368496420686173206e6f7420656e6465642c206f72206e60408201527f6f7420657665727920766f74657273206861766520766f746564000000000000606082015260800190565b6020808252603e908201527f436f756c64206e6f74206d6174636820656e637279707465642068617368202660408201527f20636c6561722068617368207769746820676976656e20696e707574732e0000606082015260800190565b60208082526029908201527f6765744e756d50617373696e67546f6b656e733a20686173686573206d75737460408201526808189948195c5d585b60ba1b606082015260800190565b60208082526036908201527f43616e277420616c6c6f6361746520776f726b2c207468652063757272656e74604082015275206261746368206973206e6f7420636f6d706c65746560501b606082015260800190565b60208082526026908201527f52657665616c20706572696f64206e6f74206f70656e20666f7220746869732060408201526511185d18525160d21b606082015260800190565b60208082526027908201527f617661696c61626c65546f6b656e732073686f756c64206265203e3d205f6e756040820152666d546f6b656e7360c81b606082015260800190565b60208082526017908201527f5f4461746142617463684964206d757374206578697374000000000000000000604082015260600190565b60208082526021908201527f5f446174614261746368496420697320616c72656164792076616c69646174656040820152601960fa1b606082015260800190565b60208082526029908201527f557365722068617320616c726561647920636f6d6d6974656420746f207468696040820152681cc818985d18da125960ba1b606082015260800190565b60208082526022908201527f4d6178696d756d207265676973746572656420776f726b65727320616c726561604082015261647960f01b606082015260800190565b60208082526037908201527f75736572206d757374206861766520656e6f75676820766f74696e672072696760408201527f68747320616b6120616c6c6f6361746564207374616b65000000000000000000606082015260800190565b6020808252606c908201527f5573657220686173206e6f7420766f746564206d616e792074696d657320696e60408201527f206120726f7720616e64206e6565647320746f2077616974204e4f564f54455f60608201527f524547495354524154494f4e5f574149545f4455524154494f4e20746f20726560808201526b33b4b9ba32b91030b3b0b4b760a11b60a082015260c00190565b6020808252602a908201527f5f446174614261746368496420636865636b696e6720766f7465206d757374206040820152691a185d9948195b99195960b21b606082015260800190565b60208082526046908201527f576f726b657220686173206e6f7420656e6f75676820285f6e756d546f6b656e60408201527f732920696e2068697320496e646578657265645374616b6564546f6b656e426160608201526503630b731b2960d51b608082015260a00190565b6020808252603b908201527f436f756c64206e6f74207769746864726177566f74696e67526967687473207460408201527f68726f7567682050726f78795374616b654465616c6c6f636174650000000000606082015260800190565b6020808252600f908201526e11185d18481b5d5cdd08195e1a5cdd608a1b604082015260600190565b6020808252602c908201527f557365722068617320616c72656164792072657665616c65642c20746875732060408201526b18d85b89dd081c995d99585b60a21b606082015260800190565b60208082526032908201527f5f44617461426174636849645f7374617274206d757374206265203c207468616040820152711b8817d1185d1850985d18da125917d95b9960721b606082015260800190565b60006020825282516020830152602083015160408301526040830151606083015260608301516080830152608083015160a083015260a0830151618f9260c0840182617fbf565b5060c0830151618fa560e0840182617fbf565b5060e0830151610100618fba81850183617fbf565b840151610120848101919091528401516101408085019190915284015161016080850191909152840151610180808501919091528401516101c06101a08086018290529192509061900f6101e0860184617fc5565b908601519092506154c885830182617ff1565b600083825282602083015260606040830152615ec560608301618013565b60008482528360208301526080604083015261905e60808301618013565b9050826060830152949350505050565b600083825282602083015260606040830152615ec560608301618030565b60008482528360208301526080604083015261905e60808301618030565b93845260208401929092526040830152606082015260800190565b6000602082528251608060208401526190e160a0840182617fc5565b905060018060a01b0360208501511660408401526040840151606084015260608401516191116080850182617ff1565b509392505050565b9182526001600160a01b0316602082015260400190565b9182526001600160a01b031660208201526000604082015260600190565b9283526020830191909152604082015260600190565b60008f82528e60208301528d60408301528c60608301528b60808301528a151560a083015289151560c083015261919e60e083018a617fbf565b876101008301528661012083015285610140830152846101608301526101c06101808301526191d16101c0830185617fc5565b90506191e16101a0830184617ff1565b9f9e505050505050505050505050505050565b6040518181016001600160401b038111828210171561921557619215619378565b604052919050565b60006001600160401b0382111561923657619236619378565b50601f01601f191660200190565b60009081526020902090565b600082198211156192635761926361934c565b500190565b60008261927757619277619362565b500490565b60008160001904831182151516156192965761929661934c565b500290565b6000828210156192ad576192ad61934c565b500390565b60005b838110156192cd5781810151838201526020016192b5565b838111156192dc576000848401525b50505050565b6002810460018216806192f657607f821691505b6020821081141561931757634e487b7160e01b600052602260045260246000fd5b50919050565b60006000198214156193315761933161934c565b5060010190565b60008261934757619347619362565b500690565b634e487b7160e01b600052601160045260246000fd5b634e487b7160e01b600052601260045260246000fd5b634e487b7160e01b600052604160045260246000fd5b6001600160a01b038116811461140e57600080fdfea264697066735822122000ed7da69eb4fe9fd2a7686cacb35c994b7ec4c959bd241f859115f6d39cdde864736f6c63430008000033",
  "linkReferences": {
    "contracts/worksystems/DataIndexing.sol": {
      "AttributeStore3": [
        {
          "length": 20,
          "start": 21015
        },
        {
          "length": 20,
          "start": 21121
        },
        {
          "length": 20,
          "start": 21683
        },
        {
          "length": 20,
          "start": 23178
        }
      ],
      "DLL3": [
        {
          "length": 20,
          "start": 5818
        },
        {
          "length": 20,
          "start": 6473
        },
        {
          "length": 20,
          "start": 6645
        },
        {
          "length": 20,
          "start": 6962
        },
        {
          "length": 20,
          "start": 17290
        },
        {
          "length": 20,
          "start": 17470
        },
        {
          "length": 20,
          "start": 20535
        },
        {
          "length": 20,
          "start": 20697
        },
        {
          "length": 20,
          "start": 20892
        }
      ]
    }
  },
  "deployedLinkReferences": {
    "contracts/worksystems/DataIndexing.sol": {
      "AttributeStore3": [
        {
          "length": 20,
          "start": 20682
        },
        {
          "length": 20,
          "start": 20788
        },
        {
          "length": 20,
          "start": 21350
        },
        {
          "length": 20,
          "start": 22845
        }
      ],
      "DLL3": [
        {
          "length": 20,
          "start": 5485
        },
        {
          "length": 20,
          "start": 6140
        },
        {
          "length": 20,
          "start": 6312
        },
        {
          "length": 20,
          "start": 6629
        },
        {
          "length": 20,
          "start": 16957
        },
        {
          "length": 20,
          "start": 17137
        },
        {
          "length": 20,
          "start": 20202
        },
        {
          "length": 20,
          "start": 20364
        },
        {
          "length": 20,
          "start": 20559
        }
      ]
    }
  }
}