{
  "_format": "hh-sol-artifact-1",
  "contractName": "DataIndexing",
  "sourceName": "contracts/worksystems/DataIndexing.sol",
  "abi": [
    {
      "inputs": [
        {
          "internalType": "address",
          "name": "EXDT_token_",
          "type": "address"
        }
      ],
      "stateMutability": "nonpayable",
      "type": "constructor"
    },
    {
      "anonymous": false,
      "inputs": [
        {
          "indexed": false,
          "internalType": "bytes",
          "name": "bytesFailure",
          "type": "bytes"
        }
      ],
      "name": "BytesFailure",
      "type": "event"
    },
    {
      "anonymous": false,
      "inputs": [
        {
          "indexed": true,
          "internalType": "address",
          "name": "previousOwner",
          "type": "address"
        },
        {
          "indexed": true,
          "internalType": "address",
          "name": "newOwner",
          "type": "address"
        }
      ],
      "name": "OwnershipTransferred",
      "type": "event"
    },
    {
      "anonymous": false,
      "inputs": [
        {
          "indexed": true,
          "internalType": "uint256",
          "name": "batchID",
          "type": "uint256"
        }
      ],
      "name": "_DataBatchDeleted",
      "type": "event"
    },
    {
      "anonymous": false,
      "inputs": [
        {
          "indexed": false,
          "internalType": "string",
          "name": "hash",
          "type": "string"
        },
        {
          "indexed": true,
          "internalType": "address",
          "name": "creator",
          "type": "address"
        }
      ],
      "name": "_IndexingAccepted",
      "type": "event"
    },
    {
      "anonymous": false,
      "inputs": [
        {
          "indexed": true,
          "internalType": "uint256",
          "name": "DataID",
          "type": "uint256"
        },
        {
          "indexed": false,
          "internalType": "uint256",
          "name": "numTokens",
          "type": "uint256"
        },
        {
          "indexed": true,
          "internalType": "address",
          "name": "voter",
          "type": "address"
        }
      ],
      "name": "_IndexingCheckCommitted",
      "type": "event"
    },
    {
      "anonymous": false,
      "inputs": [
        {
          "indexed": true,
          "internalType": "uint256",
          "name": "DataID",
          "type": "uint256"
        },
        {
          "indexed": false,
          "internalType": "uint256",
          "name": "numTokens",
          "type": "uint256"
        },
        {
          "indexed": false,
          "internalType": "uint256",
          "name": "votesFor",
          "type": "uint256"
        },
        {
          "indexed": false,
          "internalType": "uint256",
          "name": "votesAgainst",
          "type": "uint256"
        },
        {
          "indexed": true,
          "internalType": "uint256",
          "name": "choice",
          "type": "uint256"
        },
        {
          "indexed": true,
          "internalType": "address",
          "name": "voter",
          "type": "address"
        }
      ],
      "name": "_IndexingCheckRevealed",
      "type": "event"
    },
    {
      "anonymous": false,
      "inputs": [
        {
          "indexed": true,
          "internalType": "uint256",
          "name": "DataID",
          "type": "uint256"
        },
        {
          "indexed": false,
          "internalType": "string",
          "name": "file_hash",
          "type": "string"
        },
        {
          "indexed": false,
          "internalType": "address",
          "name": "sender",
          "type": "address"
        }
      ],
      "name": "_IndexingSubmitted",
      "type": "event"
    },
    {
      "anonymous": false,
      "inputs": [
        {
          "indexed": false,
          "internalType": "uint256",
          "name": "numTokens",
          "type": "uint256"
        },
        {
          "indexed": true,
          "internalType": "address",
          "name": "voter",
          "type": "address"
        }
      ],
      "name": "_StakeAllocated",
      "type": "event"
    },
    {
      "anonymous": false,
      "inputs": [
        {
          "indexed": true,
          "internalType": "uint256",
          "name": "DataID",
          "type": "uint256"
        },
        {
          "indexed": true,
          "internalType": "address",
          "name": "voter",
          "type": "address"
        }
      ],
      "name": "_TokensRescued",
      "type": "event"
    },
    {
      "anonymous": false,
      "inputs": [
        {
          "indexed": false,
          "internalType": "uint256",
          "name": "numTokens",
          "type": "uint256"
        },
        {
          "indexed": true,
          "internalType": "address",
          "name": "voter",
          "type": "address"
        }
      ],
      "name": "_VotingRightsWithdrawn",
      "type": "event"
    },
    {
      "anonymous": false,
      "inputs": [
        {
          "indexed": true,
          "internalType": "uint256",
          "name": "batchID",
          "type": "uint256"
        },
        {
          "indexed": false,
          "internalType": "address",
          "name": "worker",
          "type": "address"
        }
      ],
      "name": "_WorkAllocated",
      "type": "event"
    },
    {
      "anonymous": false,
      "inputs": [
        {
          "indexed": true,
          "internalType": "address",
          "name": "worker",
          "type": "address"
        },
        {
          "indexed": false,
          "internalType": "uint256",
          "name": "timestamp",
          "type": "uint256"
        }
      ],
      "name": "_WorkerRegistered",
      "type": "event"
    },
    {
      "anonymous": false,
      "inputs": [
        {
          "indexed": true,
          "internalType": "address",
          "name": "worker",
          "type": "address"
        },
        {
          "indexed": false,
          "internalType": "uint256",
          "name": "timestamp",
          "type": "uint256"
        }
      ],
      "name": "_WorkerUnregistered",
      "type": "event"
    },
    {
      "inputs": [],
      "name": "AcceptedBatchsCounter",
      "outputs": [
        {
          "internalType": "uint256",
          "name": "",
          "type": "uint256"
        }
      ],
      "stateMutability": "view",
      "type": "function"
    },
    {
      "inputs": [],
      "name": "AllTxsCounter",
      "outputs": [
        {
          "internalType": "uint256",
          "name": "",
          "type": "uint256"
        }
      ],
      "stateMutability": "view",
      "type": "function"
    },
    {
      "inputs": [],
      "name": "AllocateWork",
      "outputs": [],
      "stateMutability": "nonpayable",
      "type": "function"
    },
    {
      "inputs": [],
      "name": "AllocatedBatchCursor",
      "outputs": [
        {
          "internalType": "uint256",
          "name": "",
          "type": "uint256"
        }
      ],
      "stateMutability": "view",
      "type": "function"
    },
    {
      "inputs": [],
      "name": "AmIRegistered",
      "outputs": [
        {
          "internalType": "bool",
          "name": "passed",
          "type": "bool"
        }
      ],
      "stateMutability": "view",
      "type": "function"
    },
    {
      "inputs": [
        {
          "internalType": "string",
          "name": "_a",
          "type": "string"
        },
        {
          "internalType": "string",
          "name": "_b",
          "type": "string"
        }
      ],
      "name": "AreStringsEqual",
      "outputs": [
        {
          "internalType": "bool",
          "name": "",
          "type": "bool"
        }
      ],
      "stateMutability": "pure",
      "type": "function"
    },
    {
      "inputs": [],
      "name": "BatchCheckingCursor",
      "outputs": [
        {
          "internalType": "uint256",
          "name": "",
          "type": "uint256"
        }
      ],
      "stateMutability": "view",
      "type": "function"
    },
    {
      "inputs": [],
      "name": "BatchDeletionCursor",
      "outputs": [
        {
          "internalType": "uint256",
          "name": "",
          "type": "uint256"
        }
      ],
      "stateMutability": "view",
      "type": "function"
    },
    {
      "inputs": [
        {
          "internalType": "uint256",
          "name": "",
          "type": "uint256"
        }
      ],
      "name": "CollectedSpotBatchs",
      "outputs": [
        {
          "internalType": "bool",
          "name": "",
          "type": "bool"
        }
      ],
      "stateMutability": "view",
      "type": "function"
    },
    {
      "inputs": [
        {
          "internalType": "uint256",
          "name": "",
          "type": "uint256"
        }
      ],
      "name": "DataBatch",
      "outputs": [
        {
          "internalType": "uint256",
          "name": "start_idx",
          "type": "uint256"
        },
        {
          "internalType": "uint256",
          "name": "counter",
          "type": "uint256"
        },
        {
          "internalType": "uint256",
          "name": "uncommited_workers",
          "type": "uint256"
        },
        {
          "internalType": "uint256",
          "name": "unrevealed_workers",
          "type": "uint256"
        },
        {
          "internalType": "uint256",
          "name": "item_count",
          "type": "uint256"
        },
        {
          "internalType": "bool",
          "name": "complete",
          "type": "bool"
        },
        {
          "internalType": "bool",
          "name": "checked",
          "type": "bool"
        },
        {
          "internalType": "bool",
          "name": "allocated_to_work",
          "type": "bool"
        },
        {
          "internalType": "uint256",
          "name": "commitEndDate",
          "type": "uint256"
        },
        {
          "internalType": "uint256",
          "name": "revealEndDate",
          "type": "uint256"
        },
        {
          "internalType": "uint256",
          "name": "votesFor",
          "type": "uint256"
        },
        {
          "internalType": "uint256",
          "name": "votesAgainst",
          "type": "uint256"
        },
        {
          "internalType": "string",
          "name": "batchIPFSfile",
          "type": "string"
        },
        {
          "internalType": "enum DataIndexing.DataStatus",
          "name": "status",
          "type": "uint8"
        }
      ],
      "stateMutability": "view",
      "type": "function"
    },
    {
      "inputs": [
        {
          "internalType": "uint256",
          "name": "_DataBatchId",
          "type": "uint256"
        }
      ],
      "name": "DataCommitEndDate",
      "outputs": [
        {
          "internalType": "uint256",
          "name": "commitEndDate",
          "type": "uint256"
        }
      ],
      "stateMutability": "view",
      "type": "function"
    },
    {
      "inputs": [
        {
          "internalType": "uint256",
          "name": "_DataBatchId",
          "type": "uint256"
        }
      ],
      "name": "DataEnded",
      "outputs": [
        {
          "internalType": "bool",
          "name": "ended",
          "type": "bool"
        }
      ],
      "stateMutability": "view",
      "type": "function"
    },
    {
      "inputs": [
        {
          "internalType": "uint256",
          "name": "_DataBatchId",
          "type": "uint256"
        }
      ],
      "name": "DataExists",
      "outputs": [
        {
          "internalType": "bool",
          "name": "exists",
          "type": "bool"
        }
      ],
      "stateMutability": "view",
      "type": "function"
    },
    {
      "inputs": [],
      "name": "DataNonce",
      "outputs": [
        {
          "internalType": "uint256",
          "name": "",
          "type": "uint256"
        }
      ],
      "stateMutability": "view",
      "type": "function"
    },
    {
      "inputs": [
        {
          "internalType": "uint256",
          "name": "_DataBatchId",
          "type": "uint256"
        }
      ],
      "name": "DataRevealEndDate",
      "outputs": [
        {
          "internalType": "uint256",
          "name": "revealEndDate",
          "type": "uint256"
        }
      ],
      "stateMutability": "view",
      "type": "function"
    },
    {
      "inputs": [
        {
          "internalType": "address",
          "name": "user_",
          "type": "address"
        }
      ],
      "name": "GetCurrentWork",
      "outputs": [
        {
          "internalType": "uint256",
          "name": "",
          "type": "uint256"
        }
      ],
      "stateMutability": "view",
      "type": "function"
    },
    {
      "inputs": [
        {
          "internalType": "uint256",
          "name": "",
          "type": "uint256"
        }
      ],
      "name": "IndexingsMapping",
      "outputs": [
        {
          "internalType": "string",
          "name": "ipfs_hash",
          "type": "string"
        },
        {
          "internalType": "address",
          "name": "author",
          "type": "address"
        },
        {
          "internalType": "uint256",
          "name": "timestamp",
          "type": "uint256"
        },
        {
          "internalType": "enum DataIndexing.DataStatus",
          "name": "status",
          "type": "uint8"
        }
      ],
      "stateMutability": "view",
      "type": "function"
    },
    {
      "inputs": [
        {
          "internalType": "address",
          "name": "user_",
          "type": "address"
        }
      ],
      "name": "IsNewWorkAvailable",
      "outputs": [
        {
          "internalType": "bool",
          "name": "",
          "type": "bool"
        }
      ],
      "stateMutability": "view",
      "type": "function"
    },
    {
      "inputs": [],
      "name": "LastBatchCounter",
      "outputs": [
        {
          "internalType": "uint256",
          "name": "",
          "type": "uint256"
        }
      ],
      "stateMutability": "view",
      "type": "function"
    },
    {
      "inputs": [
        {
          "internalType": "address",
          "name": "",
          "type": "address"
        },
        {
          "internalType": "uint256",
          "name": "",
          "type": "uint256"
        }
      ],
      "name": "MasterWorkers",
      "outputs": [
        {
          "internalType": "address",
          "name": "",
          "type": "address"
        }
      ],
      "stateMutability": "view",
      "type": "function"
    },
    {
      "inputs": [],
      "name": "NotCommitedCounter",
      "outputs": [
        {
          "internalType": "uint256",
          "name": "",
          "type": "uint256"
        }
      ],
      "stateMutability": "view",
      "type": "function"
    },
    {
      "inputs": [],
      "name": "NotRevealedCounter",
      "outputs": [
        {
          "internalType": "uint256",
          "name": "",
          "type": "uint256"
        }
      ],
      "stateMutability": "view",
      "type": "function"
    },
    {
      "inputs": [],
      "name": "Parameters",
      "outputs": [
        {
          "internalType": "contract IParametersManager",
          "name": "",
          "type": "address"
        }
      ],
      "stateMutability": "view",
      "type": "function"
    },
    {
      "inputs": [
        {
          "internalType": "uint256",
          "name": "CheckedBatchId",
          "type": "uint256"
        }
      ],
      "name": "Ping",
      "outputs": [],
      "stateMutability": "nonpayable",
      "type": "function"
    },
    {
      "inputs": [],
      "name": "RegisterWorker",
      "outputs": [],
      "stateMutability": "nonpayable",
      "type": "function"
    },
    {
      "inputs": [],
      "name": "RejectedBatchsCounter",
      "outputs": [
        {
          "internalType": "uint256",
          "name": "",
          "type": "uint256"
        }
      ],
      "stateMutability": "view",
      "type": "function"
    },
    {
      "inputs": [
        {
          "internalType": "address",
          "name": "",
          "type": "address"
        }
      ],
      "name": "SystemStakedTokenBalance",
      "outputs": [
        {
          "internalType": "uint256",
          "name": "",
          "type": "uint256"
        }
      ],
      "stateMutability": "view",
      "type": "function"
    },
    {
      "inputs": [],
      "name": "TriggerUpdate",
      "outputs": [],
      "stateMutability": "nonpayable",
      "type": "function"
    },
    {
      "inputs": [],
      "name": "UnregisterWorker",
      "outputs": [],
      "stateMutability": "nonpayable",
      "type": "function"
    },
    {
      "inputs": [
        {
          "internalType": "uint256",
          "name": "",
          "type": "uint256"
        },
        {
          "internalType": "address",
          "name": "",
          "type": "address"
        }
      ],
      "name": "UserBatchCounts",
      "outputs": [
        {
          "internalType": "uint256",
          "name": "",
          "type": "uint256"
        }
      ],
      "stateMutability": "view",
      "type": "function"
    },
    {
      "inputs": [
        {
          "internalType": "uint256",
          "name": "",
          "type": "uint256"
        },
        {
          "internalType": "address",
          "name": "",
          "type": "address"
        }
      ],
      "name": "UserBatchFrom",
      "outputs": [
        {
          "internalType": "string",
          "name": "",
          "type": "string"
        }
      ],
      "stateMutability": "view",
      "type": "function"
    },
    {
      "inputs": [
        {
          "internalType": "address",
          "name": "",
          "type": "address"
        },
        {
          "internalType": "uint256",
          "name": "",
          "type": "uint256"
        }
      ],
      "name": "UserChecksCommits",
      "outputs": [
        {
          "internalType": "bool",
          "name": "",
          "type": "bool"
        }
      ],
      "stateMutability": "view",
      "type": "function"
    },
    {
      "inputs": [
        {
          "internalType": "address",
          "name": "",
          "type": "address"
        },
        {
          "internalType": "uint256",
          "name": "",
          "type": "uint256"
        }
      ],
      "name": "UserChecksReveals",
      "outputs": [
        {
          "internalType": "bool",
          "name": "",
          "type": "bool"
        }
      ],
      "stateMutability": "view",
      "type": "function"
    },
    {
      "inputs": [
        {
          "internalType": "uint256",
          "name": "",
          "type": "uint256"
        },
        {
          "internalType": "address",
          "name": "",
          "type": "address"
        }
      ],
      "name": "UserNewFiles",
      "outputs": [
        {
          "internalType": "string",
          "name": "",
          "type": "string"
        }
      ],
      "stateMutability": "view",
      "type": "function"
    },
    {
      "inputs": [
        {
          "internalType": "uint256",
          "name": "",
          "type": "uint256"
        },
        {
          "internalType": "address",
          "name": "",
          "type": "address"
        }
      ],
      "name": "UserSubmittedStatus",
      "outputs": [
        {
          "internalType": "string",
          "name": "",
          "type": "string"
        }
      ],
      "stateMutability": "view",
      "type": "function"
    },
    {
      "inputs": [
        {
          "internalType": "uint256",
          "name": "",
          "type": "uint256"
        },
        {
          "internalType": "address",
          "name": "",
          "type": "address"
        }
      ],
      "name": "UserVotes",
      "outputs": [
        {
          "internalType": "uint256",
          "name": "",
          "type": "uint256"
        }
      ],
      "stateMutability": "view",
      "type": "function"
    },
    {
      "inputs": [
        {
          "internalType": "uint256",
          "name": "_DataBatchId",
          "type": "uint256"
        }
      ],
      "name": "ValidateDataBatch",
      "outputs": [],
      "stateMutability": "nonpayable",
      "type": "function"
    },
    {
      "inputs": [
        {
          "internalType": "uint256",
          "name": "",
          "type": "uint256"
        },
        {
          "internalType": "uint256",
          "name": "",
          "type": "uint256"
        }
      ],
      "name": "WorkersPerBatch",
      "outputs": [
        {
          "internalType": "address",
          "name": "",
          "type": "address"
        }
      ],
      "stateMutability": "view",
      "type": "function"
    },
    {
      "inputs": [
        {
          "internalType": "address",
          "name": "",
          "type": "address"
        }
      ],
      "name": "WorkersState",
      "outputs": [
        {
          "internalType": "address",
          "name": "worker_address",
          "type": "address"
        },
        {
          "internalType": "uint256",
          "name": "allocated_work_batch",
          "type": "uint256"
        },
        {
          "internalType": "bool",
          "name": "has_completed_work",
          "type": "bool"
        },
        {
          "internalType": "uint256",
          "name": "succeeding_novote_count",
          "type": "uint256"
        },
        {
          "internalType": "uint256",
          "name": "last_interaction_date",
          "type": "uint256"
        },
        {
          "internalType": "bool",
          "name": "registered",
          "type": "bool"
        },
        {
          "internalType": "bool",
          "name": "unregistration_request",
          "type": "bool"
        },
        {
          "internalType": "uint256",
          "name": "registration_date",
          "type": "uint256"
        },
        {
          "internalType": "uint256",
          "name": "majority_counter",
          "type": "uint256"
        },
        {
          "internalType": "uint256",
          "name": "minority_counter",
          "type": "uint256"
        }
      ],
      "stateMutability": "view",
      "type": "function"
    },
    {
      "inputs": [
        {
          "internalType": "address",
          "name": "_user",
          "type": "address"
        },
        {
          "internalType": "uint256",
          "name": "_DataBatchId",
          "type": "uint256"
        }
      ],
      "name": "attrUUID",
      "outputs": [
        {
          "internalType": "bytes32",
          "name": "UUID",
          "type": "bytes32"
        }
      ],
      "stateMutability": "pure",
      "type": "function"
    },
    {
      "inputs": [
        {
          "internalType": "uint256",
          "name": "",
          "type": "uint256"
        }
      ],
      "name": "availableWorkers",
      "outputs": [
        {
          "internalType": "address",
          "name": "",
          "type": "address"
        }
      ],
      "stateMutability": "view",
      "type": "function"
    },
    {
      "inputs": [
        {
          "internalType": "uint256",
          "name": "",
          "type": "uint256"
        }
      ],
      "name": "busyWorkers",
      "outputs": [
        {
          "internalType": "address",
          "name": "",
          "type": "address"
        }
      ],
      "stateMutability": "view",
      "type": "function"
    },
    {
      "inputs": [
        {
          "internalType": "uint256",
          "name": "_DataBatchId",
          "type": "uint256"
        },
        {
          "internalType": "bytes32",
          "name": "_secretIPFSHash",
          "type": "bytes32"
        },
        {
          "internalType": "uint256",
          "name": "_BatchCount",
          "type": "uint256"
        },
        {
          "internalType": "string",
          "name": "_From",
          "type": "string"
        },
        {
          "internalType": "string",
          "name": "_Status",
          "type": "string"
        }
      ],
      "name": "commitIndexingCheck",
      "outputs": [],
      "stateMutability": "nonpayable",
      "type": "function"
    },
    {
      "inputs": [
        {
          "internalType": "uint256",
          "name": "_DataBatchId",
          "type": "uint256"
        }
      ],
      "name": "commitPeriodActive",
      "outputs": [
        {
          "internalType": "bool",
          "name": "active",
          "type": "bool"
        }
      ],
      "stateMutability": "view",
      "type": "function"
    },
    {
      "inputs": [
        {
          "internalType": "uint256",
          "name": "_BatchId",
          "type": "uint256"
        }
      ],
      "name": "deleteCollectedSpotBatch",
      "outputs": [],
      "stateMutability": "nonpayable",
      "type": "function"
    },
    {
      "inputs": [
        {
          "internalType": "uint256",
          "name": "_DataId",
          "type": "uint256"
        }
      ],
      "name": "deleteData",
      "outputs": [],
      "stateMutability": "nonpayable",
      "type": "function"
    },
    {
      "inputs": [
        {
          "internalType": "uint256",
          "name": "_BatchId",
          "type": "uint256"
        }
      ],
      "name": "deleteDataBatch",
      "outputs": [],
      "stateMutability": "nonpayable",
      "type": "function"
    },
    {
      "inputs": [],
      "name": "destroyContract",
      "outputs": [],
      "stateMutability": "nonpayable",
      "type": "function"
    },
    {
      "inputs": [
        {
          "internalType": "address",
          "name": "_voter",
          "type": "address"
        },
        {
          "internalType": "uint256",
          "name": "_DataBatchId",
          "type": "uint256"
        }
      ],
      "name": "didCommit",
      "outputs": [
        {
          "internalType": "bool",
          "name": "committed",
          "type": "bool"
        }
      ],
      "stateMutability": "view",
      "type": "function"
    },
    {
      "inputs": [
        {
          "internalType": "address",
          "name": "_voter",
          "type": "address"
        },
        {
          "internalType": "uint256",
          "name": "_DataBatchId",
          "type": "uint256"
        }
      ],
      "name": "didReveal",
      "outputs": [
        {
          "internalType": "bool",
          "name": "revealed",
          "type": "bool"
        }
      ],
      "stateMutability": "view",
      "type": "function"
    },
    {
      "inputs": [
        {
          "internalType": "uint256",
          "name": "_k",
          "type": "uint256"
        },
        {
          "internalType": "uint256",
          "name": "N_range",
          "type": "uint256"
        }
      ],
      "name": "generateIntegers",
      "outputs": [
        {
          "internalType": "uint256[]",
          "name": "",
          "type": "uint256[]"
        }
      ],
      "stateMutability": "view",
      "type": "function"
    },
    {
      "inputs": [
        {
          "internalType": "uint256",
          "name": "_DataBatchId_start",
          "type": "uint256"
        }
      ],
      "name": "getAcceptedBatchFileFrom",
      "outputs": [
        {
          "internalType": "string[]",
          "name": "batch",
          "type": "string[]"
        }
      ],
      "stateMutability": "view",
      "type": "function"
    },
    {
      "inputs": [
        {
          "internalType": "uint256",
          "name": "_DataBatchId_start",
          "type": "uint256"
        },
        {
          "internalType": "uint256",
          "name": "_DataBatchId_end",
          "type": "uint256"
        }
      ],
      "name": "getAcceptedBatchFilesRange",
      "outputs": [
        {
          "internalType": "string[]",
          "name": "batch",
          "type": "string[]"
        }
      ],
      "stateMutability": "view",
      "type": "function"
    },
    {
      "inputs": [],
      "name": "getAcceptedBatchesCount",
      "outputs": [
        {
          "internalType": "uint256",
          "name": "count",
          "type": "uint256"
        }
      ],
      "stateMutability": "view",
      "type": "function"
    },
    {
      "inputs": [],
      "name": "getActiveWorkersCount",
      "outputs": [
        {
          "internalType": "uint256",
          "name": "numWorkers",
          "type": "uint256"
        }
      ],
      "stateMutability": "view",
      "type": "function"
    },
    {
      "inputs": [],
      "name": "getAvailableWorkersCount",
      "outputs": [
        {
          "internalType": "uint256",
          "name": "numWorkers",
          "type": "uint256"
        }
      ],
      "stateMutability": "view",
      "type": "function"
    },
    {
      "inputs": [
        {
          "internalType": "uint256",
          "name": "_DataBatchId",
          "type": "uint256"
        }
      ],
      "name": "getBatchByID",
      "outputs": [
        {
          "components": [
            {
              "internalType": "uint256",
              "name": "start_idx",
              "type": "uint256"
            },
            {
              "internalType": "uint256",
              "name": "counter",
              "type": "uint256"
            },
            {
              "internalType": "uint256",
              "name": "uncommited_workers",
              "type": "uint256"
            },
            {
              "internalType": "uint256",
              "name": "unrevealed_workers",
              "type": "uint256"
            },
            {
              "internalType": "uint256",
              "name": "item_count",
              "type": "uint256"
            },
            {
              "internalType": "bool",
              "name": "complete",
              "type": "bool"
            },
            {
              "internalType": "bool",
              "name": "checked",
              "type": "bool"
            },
            {
              "internalType": "bool",
              "name": "allocated_to_work",
              "type": "bool"
            },
            {
              "internalType": "uint256",
              "name": "commitEndDate",
              "type": "uint256"
            },
            {
              "internalType": "uint256",
              "name": "revealEndDate",
              "type": "uint256"
            },
            {
              "internalType": "uint256",
              "name": "votesFor",
              "type": "uint256"
            },
            {
              "internalType": "uint256",
              "name": "votesAgainst",
              "type": "uint256"
            },
            {
              "internalType": "string",
              "name": "batchIPFSfile",
              "type": "string"
            },
            {
              "internalType": "enum DataIndexing.DataStatus",
              "name": "status",
              "type": "uint8"
            }
          ],
          "internalType": "struct DataIndexing.BatchMetadata",
          "name": "batch",
          "type": "tuple"
        }
      ],
      "stateMutability": "view",
      "type": "function"
    },
    {
      "inputs": [
        {
          "internalType": "uint256",
          "name": "_DataBatchId",
          "type": "uint256"
        }
      ],
      "name": "getBatchIPFSFileByID",
      "outputs": [
        {
          "internalType": "string",
          "name": "batch",
          "type": "string"
        }
      ],
      "stateMutability": "view",
      "type": "function"
    },
    {
      "inputs": [],
      "name": "getBusyWorkersCount",
      "outputs": [
        {
          "internalType": "uint256",
          "name": "numWorkers",
          "type": "uint256"
        }
      ],
      "stateMutability": "view",
      "type": "function"
    },
    {
      "inputs": [
        {
          "internalType": "address",
          "name": "_voter",
          "type": "address"
        },
        {
          "internalType": "uint256",
          "name": "_DataBatchId",
          "type": "uint256"
        }
      ],
      "name": "getCommitIPFSHash",
      "outputs": [
        {
          "internalType": "bytes32",
          "name": "commitHash",
          "type": "bytes32"
        }
      ],
      "stateMutability": "view",
      "type": "function"
    },
    {
      "inputs": [
        {
          "internalType": "address",
          "name": "_voter",
          "type": "address"
        },
        {
          "internalType": "uint256",
          "name": "_DataBatchId",
          "type": "uint256"
        }
      ],
      "name": "getCommitVoteHash",
      "outputs": [
        {
          "internalType": "bytes32",
          "name": "commitHash",
          "type": "bytes32"
        }
      ],
      "stateMutability": "view",
      "type": "function"
    },
    {
      "inputs": [
        {
          "internalType": "uint256",
          "name": "_DataId",
          "type": "uint256"
        }
      ],
      "name": "getDataByID",
      "outputs": [
        {
          "components": [
            {
              "internalType": "string",
              "name": "ipfs_hash",
              "type": "string"
            },
            {
              "internalType": "address",
              "name": "author",
              "type": "address"
            },
            {
              "internalType": "uint256",
              "name": "timestamp",
              "type": "uint256"
            },
            {
              "internalType": "enum DataIndexing.DataStatus",
              "name": "status",
              "type": "uint8"
            }
          ],
          "internalType": "struct DataIndexing.IndexingData",
          "name": "data",
          "type": "tuple"
        }
      ],
      "stateMutability": "view",
      "type": "function"
    },
    {
      "inputs": [
        {
          "internalType": "string",
          "name": "_hash",
          "type": "string"
        },
        {
          "internalType": "uint256",
          "name": "_salt",
          "type": "uint256"
        }
      ],
      "name": "getEncryptedStringHash",
      "outputs": [
        {
          "internalType": "bytes32",
          "name": "keccak256hash",
          "type": "bytes32"
        }
      ],
      "stateMutability": "pure",
      "type": "function"
    },
    {
      "inputs": [
        {
          "internalType": "uint256",
          "name": "_DataBatchId",
          "type": "uint256"
        }
      ],
      "name": "getFromsForBatch",
      "outputs": [
        {
          "internalType": "string[]",
          "name": "",
          "type": "string[]"
        }
      ],
      "stateMutability": "view",
      "type": "function"
    },
    {
      "inputs": [
        {
          "internalType": "uint256",
          "name": "_DataBatchId",
          "type": "uint256"
        }
      ],
      "name": "getIPFShashesForBatch",
      "outputs": [
        {
          "internalType": "string[]",
          "name": "",
          "type": "string[]"
        }
      ],
      "stateMutability": "view",
      "type": "function"
    },
    {
      "inputs": [
        {
          "internalType": "address",
          "name": "_voter",
          "type": "address"
        },
        {
          "internalType": "uint256",
          "name": "_numTokens",
          "type": "uint256"
        },
        {
          "internalType": "uint256",
          "name": "_DataBatchId",
          "type": "uint256"
        }
      ],
      "name": "getInsertPointForNumTokens",
      "outputs": [
        {
          "internalType": "uint256",
          "name": "prevNode",
          "type": "uint256"
        }
      ],
      "stateMutability": "view",
      "type": "function"
    },
    {
      "inputs": [],
      "name": "getLastAllocatedBatchId",
      "outputs": [
        {
          "internalType": "uint256",
          "name": "LastAllocatedBatchId",
          "type": "uint256"
        }
      ],
      "stateMutability": "view",
      "type": "function"
    },
    {
      "inputs": [],
      "name": "getLastBatchId",
      "outputs": [
        {
          "internalType": "uint256",
          "name": "LastBatchId",
          "type": "uint256"
        }
      ],
      "stateMutability": "view",
      "type": "function"
    },
    {
      "inputs": [],
      "name": "getLastCheckedBatchId",
      "outputs": [
        {
          "internalType": "uint256",
          "name": "LastCheckedBatchId",
          "type": "uint256"
        }
      ],
      "stateMutability": "view",
      "type": "function"
    },
    {
      "inputs": [],
      "name": "getLastDataId",
      "outputs": [
        {
          "internalType": "uint256",
          "name": "DataId",
          "type": "uint256"
        }
      ],
      "stateMutability": "view",
      "type": "function"
    },
    {
      "inputs": [
        {
          "internalType": "address",
          "name": "_voter",
          "type": "address"
        }
      ],
      "name": "getLastNode",
      "outputs": [
        {
          "internalType": "uint256",
          "name": "DataID",
          "type": "uint256"
        }
      ],
      "stateMutability": "view",
      "type": "function"
    },
    {
      "inputs": [
        {
          "internalType": "address",
          "name": "_voter",
          "type": "address"
        }
      ],
      "name": "getLockedTokens",
      "outputs": [
        {
          "internalType": "uint256",
          "name": "numTokens",
          "type": "uint256"
        }
      ],
      "stateMutability": "view",
      "type": "function"
    },
    {
      "inputs": [],
      "name": "getMySystemTokenBalance",
      "outputs": [
        {
          "internalType": "uint256",
          "name": "tokens",
          "type": "uint256"
        }
      ],
      "stateMutability": "view",
      "type": "function"
    },
    {
      "inputs": [
        {
          "internalType": "address",
          "name": "_voter",
          "type": "address"
        },
        {
          "internalType": "uint256",
          "name": "_DataBatchId",
          "type": "uint256"
        },
        {
          "internalType": "uint256",
          "name": "_salt",
          "type": "uint256"
        }
      ],
      "name": "getNumPassingTokens",
      "outputs": [
        {
          "internalType": "uint256",
          "name": "correctIndexingChecks",
          "type": "uint256"
        }
      ],
      "stateMutability": "view",
      "type": "function"
    },
    {
      "inputs": [
        {
          "internalType": "address",
          "name": "_voter",
          "type": "address"
        },
        {
          "internalType": "uint256",
          "name": "_DataBatchId",
          "type": "uint256"
        }
      ],
      "name": "getNumTokens",
      "outputs": [
        {
          "internalType": "uint256",
          "name": "numTokens",
          "type": "uint256"
        }
      ],
      "stateMutability": "view",
      "type": "function"
    },
    {
      "inputs": [],
      "name": "getRandom",
      "outputs": [
        {
          "internalType": "uint256",
          "name": "",
          "type": "uint256"
        }
      ],
      "stateMutability": "view",
      "type": "function"
    },
    {
      "inputs": [],
      "name": "getRejectedBatchesCount",
      "outputs": [
        {
          "internalType": "uint256",
          "name": "count",
          "type": "uint256"
        }
      ],
      "stateMutability": "view",
      "type": "function"
    },
    {
      "inputs": [],
      "name": "getSeed",
      "outputs": [
        {
          "internalType": "bytes32",
          "name": "addr",
          "type": "bytes32"
        }
      ],
      "stateMutability": "view",
      "type": "function"
    },
    {
      "inputs": [
        {
          "internalType": "uint256",
          "name": "_DataBatchId",
          "type": "uint256"
        }
      ],
      "name": "getStatusForBatch",
      "outputs": [
        {
          "internalType": "string[]",
          "name": "",
          "type": "string[]"
        }
      ],
      "stateMutability": "view",
      "type": "function"
    },
    {
      "inputs": [
        {
          "internalType": "uint256",
          "name": "_DataBatchId",
          "type": "uint256"
        }
      ],
      "name": "getSubmittedFilesForBatch",
      "outputs": [
        {
          "internalType": "string[]",
          "name": "",
          "type": "string[]"
        }
      ],
      "stateMutability": "view",
      "type": "function"
    },
    {
      "inputs": [
        {
          "internalType": "address",
          "name": "_user",
          "type": "address"
        }
      ],
      "name": "getSystemTokenBalance",
      "outputs": [
        {
          "internalType": "uint256",
          "name": "tokens",
          "type": "uint256"
        }
      ],
      "stateMutability": "view",
      "type": "function"
    },
    {
      "inputs": [
        {
          "internalType": "uint256",
          "name": "_DataBatchId",
          "type": "uint256"
        }
      ],
      "name": "getTotalNumberOfIndexingChecks",
      "outputs": [
        {
          "internalType": "uint256",
          "name": "vc",
          "type": "uint256"
        }
      ],
      "stateMutability": "view",
      "type": "function"
    },
    {
      "inputs": [],
      "name": "getTxCounter",
      "outputs": [
        {
          "internalType": "uint256",
          "name": "Counter",
          "type": "uint256"
        }
      ],
      "stateMutability": "view",
      "type": "function"
    },
    {
      "inputs": [
        {
          "internalType": "uint256",
          "name": "_DataBatchId",
          "type": "uint256"
        }
      ],
      "name": "getVotesForBatch",
      "outputs": [
        {
          "internalType": "uint256[]",
          "name": "",
          "type": "uint256[]"
        }
      ],
      "stateMutability": "view",
      "type": "function"
    },
    {
      "inputs": [
        {
          "internalType": "uint256",
          "name": "_terminationDate",
          "type": "uint256"
        }
      ],
      "name": "isExpired",
      "outputs": [
        {
          "internalType": "bool",
          "name": "expired",
          "type": "bool"
        }
      ],
      "stateMutability": "view",
      "type": "function"
    },
    {
      "inputs": [
        {
          "internalType": "uint256",
          "name": "_DataBatchId",
          "type": "uint256"
        }
      ],
      "name": "isPassed",
      "outputs": [
        {
          "internalType": "bool",
          "name": "passed",
          "type": "bool"
        }
      ],
      "stateMutability": "view",
      "type": "function"
    },
    {
      "inputs": [
        {
          "internalType": "uint256",
          "name": "_DataBatchId",
          "type": "uint256"
        },
        {
          "internalType": "address",
          "name": "_worker",
          "type": "address"
        }
      ],
      "name": "isWorkerAllocatedToBatch",
      "outputs": [
        {
          "internalType": "bool",
          "name": "",
          "type": "bool"
        }
      ],
      "stateMutability": "view",
      "type": "function"
    },
    {
      "inputs": [
        {
          "internalType": "address",
          "name": "_worker",
          "type": "address"
        }
      ],
      "name": "isWorkerRegistered",
      "outputs": [
        {
          "internalType": "bool",
          "name": "passed",
          "type": "bool"
        }
      ],
      "stateMutability": "view",
      "type": "function"
    },
    {
      "inputs": [],
      "name": "owner",
      "outputs": [
        {
          "internalType": "address",
          "name": "",
          "type": "address"
        }
      ],
      "stateMutability": "view",
      "type": "function"
    },
    {
      "inputs": [
        {
          "internalType": "uint256",
          "name": "k",
          "type": "uint256"
        },
        {
          "internalType": "uint256",
          "name": "N",
          "type": "uint256"
        }
      ],
      "name": "random_selection",
      "outputs": [
        {
          "internalType": "uint256[]",
          "name": "",
          "type": "uint256[]"
        }
      ],
      "stateMutability": "view",
      "type": "function"
    },
    {
      "inputs": [],
      "name": "renounceOwnership",
      "outputs": [],
      "stateMutability": "nonpayable",
      "type": "function"
    },
    {
      "inputs": [
        {
          "internalType": "uint256",
          "name": "_DataBatchId",
          "type": "uint256"
        }
      ],
      "name": "rescueTokens",
      "outputs": [],
      "stateMutability": "nonpayable",
      "type": "function"
    },
    {
      "inputs": [
        {
          "internalType": "uint256[]",
          "name": "_DataBatchIDs",
          "type": "uint256[]"
        }
      ],
      "name": "rescueTokensInMultipleDatas",
      "outputs": [],
      "stateMutability": "nonpayable",
      "type": "function"
    },
    {
      "inputs": [
        {
          "internalType": "uint256",
          "name": "_DataBatchId",
          "type": "uint256"
        },
        {
          "internalType": "uint256",
          "name": "_voteOption",
          "type": "uint256"
        },
        {
          "internalType": "string",
          "name": "_clearIPFSHash",
          "type": "string"
        },
        {
          "internalType": "uint256",
          "name": "_salt",
          "type": "uint256"
        }
      ],
      "name": "revealIndexingCheck",
      "outputs": [],
      "stateMutability": "nonpayable",
      "type": "function"
    },
    {
      "inputs": [
        {
          "internalType": "uint256",
          "name": "_DataBatchId",
          "type": "uint256"
        }
      ],
      "name": "revealPeriodActive",
      "outputs": [
        {
          "internalType": "bool",
          "name": "active",
          "type": "bool"
        }
      ],
      "stateMutability": "view",
      "type": "function"
    },
    {
      "inputs": [],
      "name": "sFuel",
      "outputs": [
        {
          "internalType": "address",
          "name": "",
          "type": "address"
        }
      ],
      "stateMutability": "view",
      "type": "function"
    },
    {
      "inputs": [
        {
          "internalType": "uint256",
          "name": "N",
          "type": "uint256"
        }
      ],
      "name": "shuffle_array",
      "outputs": [
        {
          "internalType": "uint256[]",
          "name": "",
          "type": "uint256[]"
        }
      ],
      "stateMutability": "view",
      "type": "function"
    },
    {
      "inputs": [
        {
          "internalType": "uint256",
          "name": "",
          "type": "uint256"
        }
      ],
      "name": "toUnregisterWorkers",
      "outputs": [
        {
          "internalType": "address",
          "name": "",
          "type": "address"
        }
      ],
      "stateMutability": "view",
      "type": "function"
    },
    {
      "inputs": [],
      "name": "token",
      "outputs": [
        {
          "internalType": "contract IERC20",
          "name": "",
          "type": "address"
        }
      ],
      "stateMutability": "view",
      "type": "function"
    },
    {
      "inputs": [
        {
          "internalType": "address",
          "name": "newOwner",
          "type": "address"
        }
      ],
      "name": "transferOwnership",
      "outputs": [],
      "stateMutability": "nonpayable",
      "type": "function"
    },
    {
      "inputs": [
        {
          "internalType": "uint256",
          "name": "AllocatedBatchCursor_",
          "type": "uint256"
        }
      ],
      "name": "updateAllocatedBatchCursor",
      "outputs": [],
      "stateMutability": "nonpayable",
      "type": "function"
    },
    {
      "inputs": [
        {
          "internalType": "uint256",
          "name": "BatchCheckingCursor_",
          "type": "uint256"
        }
      ],
      "name": "updateBatchCheckingCursor",
      "outputs": [],
      "stateMutability": "nonpayable",
      "type": "function"
    },
    {
      "inputs": [
        {
          "internalType": "address",
          "name": "addr",
          "type": "address"
        }
      ],
      "name": "updateParametersManager",
      "outputs": [],
      "stateMutability": "nonpayable",
      "type": "function"
    },
    {
      "inputs": [
        {
          "internalType": "address",
          "name": "_sFuel",
          "type": "address"
        }
      ],
      "name": "updatesFuelFaucet",
      "outputs": [],
      "stateMutability": "nonpayable",
      "type": "function"
    },
    {
      "inputs": [
        {
          "internalType": "uint256",
          "name": "_prevID",
          "type": "uint256"
        },
        {
          "internalType": "uint256",
          "name": "_nextID",
          "type": "uint256"
        },
        {
          "internalType": "address",
          "name": "_voter",
          "type": "address"
        },
        {
          "internalType": "uint256",
          "name": "_numTokens",
          "type": "uint256"
        }
      ],
      "name": "validPosition",
      "outputs": [
        {
          "internalType": "bool",
          "name": "APPROVED",
          "type": "bool"
        }
      ],
      "stateMutability": "view",
      "type": "function"
    },
    {
      "inputs": [
        {
          "internalType": "uint256",
          "name": "_numTokens",
          "type": "uint256"
        }
      ],
      "name": "withdrawVotingRights",
      "outputs": [],
      "stateMutability": "nonpayable",
      "type": "function"
    }
  ],
  "bytecode": "0x6080604052600060145560006016556001601755600160185560016019556001601a556000601b556000601c556000601d556000601e556000601f553480156200004857600080fd5b5060405162009a4938038062009a498339810160408190526200006b916200010d565b6200007f62000079620000b9565b620000bd565b6001600160a01b0381166200009357600080fd5b602080546001600160a01b0319166001600160a01b03929092169190911790556200013d565b3390565b600080546001600160a01b038381166001600160a01b0319831681178455604051919092169283917f8be0079c531659141344cd1fd0a4f28419497f9722a3daafe3b4186f6b6457e09190a35050565b6000602082840312156200011f578081fd5b81516001600160a01b038116811462000136578182fd5b9392505050565b6198fc806200014d6000396000f3fe608060405234801561001057600080fd5b506004361061063e5760003560e01c80638da5cb5b11610336578063d78b94cc116101c3578063eb1322ff1161010f578063f716596d116100ad578063f96305f011610087578063f96305f014610d33578063fc0c546a14610d3b578063fca4956314610d43578063ff43de9d14610d565761063e565b8063f716596d14610d10578063f721de4a14610d18578063f80a23fd14610d2b5761063e565b8063f2d9e74d116100e9578063f2d9e74d14610cda578063f2fde38b14610ce2578063f4cdfcc414610cf5578063f5ae7c7d14610d085761063e565b8063eb1322ff14610cb7578063ed8becfa14610cbf578063ef4fcdad14610cd25761063e565b8063da14563a1161017c578063e604c12711610156578063e604c12714610c6b578063e798a7da14610c7e578063e7b1d43c14610c91578063e97439cf14610ca45761063e565b8063da14563a14610c48578063e1f7a43014610c50578063e44c974b14610c585761063e565b8063d78b94cc14610bc9578063d817587e14610bdc578063d822ce0114610bef578063d8b7567414610c02578063d9548e5314610c15578063d9845fb814610c285761063e565b8063ab43e78d11610282578063b8f011b31161023b578063d186981d11610215578063d186981d14610b93578063d420ec0b14610ba6578063d58f575c14610bb9578063d6b0206c14610bc15761063e565b8063b8f011b314610b5a578063c4e4f82a14610b6d578063d138209214610b805761063e565b8063ab43e78d14610af3578063b0bc471e14610afb578063b10aa58414610b0e578063b1a2e0be14610b21578063b1d7ea9814610b34578063b43bd06914610b475761063e565b8063a1b6b5b7116102ef578063a511dba0116102c9578063a511dba014610abd578063a905779014610ac5578063aa7ca46414610ad8578063aacc5a1714610aeb5761063e565b8063a1b6b5b714610a9a578063a350715a14610aa2578063a4439dc514610aaa5761063e565b80638da5cb5b14610a3e5780638df0296e14610a465780639760356014610a595780639769d84614610a6c5780639fc9c52f14610a74578063a1103f3714610a875761063e565b80634d884281116104cf578063715018a61161041b5780637f97e836116103b9578063821aa8c011610393578063821aa8c0146109e75780638473850b146109fa57806388d072eb14610a025780638c89d02714610a155761063e565b80637f97e836146109945780637fabe35b146109a7578063819b0293146109d45761063e565b806376c1fef4116103f557806376c1fef41461095357806377124dec146109665780637ad3be11146109795780637f9510a21461098c5761063e565b8063715018a61461093057806371880b1b14610938578063763a39f21461094b5761063e565b80635df6055d11610488578063667bf0f811610462578063667bf0f8146108ef5780636b1485a3146108f75780636b2d95d41461090a5780637074222b1461091d5761063e565b80635df6055d146108a957806361169fdc146108c95780636371d81f146108dc5761063e565b80634d884281146108405780634fe8b4c114610853578063515535e81461086657806353bf27f11461086e5780635a452943146108765780635b113a55146108965761063e565b80632f469fd11161058e578063441c77c01161054757806348257dc91161052157806348257dc9146107ff5780634852e2f014610812578063494031831461081a5780634d4b7d9b1461082d5761063e565b8063441c77c0146107d15780634671ace5146107e457806347fe2d20146107f75761063e565b80632f469fd11461075d578063316a01551461077057806331e2f285146107835780633538af821461079657806339e7357c146107b6578063427fa1d2146107be5761063e565b8063154fd39b116105fb578063275c2590116105d5578063275c25901461070c5780632c052031146107145780632d917c68146107275780632efb26731461073a5761063e565b8063154fd39b146106d15780631e12613e146106d9578063226ed300146106ec5761063e565b806301a48b9814610643578063059576231461066c578063092a5cce146106815780630e6661a714610689578063100372f51461069e57806310679810146106b1575b600080fd5b61065661065136600461822e565b610d5e565b604051610663919061857e565b60405180910390f35b61067f61067a366004617f1c565b610efb565b005b61067f610f5c565b610691610fae565b6040516106639190618483565b61067f6106ac36600461822e565b610fb4565b6106c46106bf366004618257565b610ff8565b60405161066391906185cd565b61069161109d565b6106916106e736600461822e565b6110a3565b6106ff6106fa36600461822e565b6110ce565b60405161066391906185c2565b61067f611116565b610691610722366004617f7f565b611264565b6106ff610735366004617f54565b6113ff565b61074d61074836600461822e565b61141f565b604051610663949392919061860a565b6106c461076b366004618257565b6114de565b61067f61077e366004618286565b611502565b610691610791366004617f1c565b611cc4565b6107a96107a436600461822e565b611cd6565b60405161066391906184b6565b610691611d00565b6106916107cc366004617f1c565b611d1d565b6106ff6107df36600461822e565b611dbd565b61067f6107f236600461822e565b611e17565b610691611e85565b61067f61080d36600461822e565b611e8b565b6106916123d3565b6106ff61082836600461822e565b6123d9565b6106ff61083b36600461822e565b612626565b61067f61084e366004617f1c565b61263b565b61067f61086136600461822e565b61269c565b61069161271c565b610691612722565b61088961088436600461822e565b612728565b60405161066391906195e8565b6106916108a4366004618257565b61284b565b6108bc6108b736600461822e565b612868565b604051610663919061851e565b61067f6108d7366004618362565b612a85565b61067f6108ea36600461822e565b612de9565b61067f612e9c565b61067f61090536600461822e565b6134ac565b610691610918366004617f1c565b6145ce565b61069161092b366004617f1c565b6145dd565b61067f6145f8565b61069161094636600461822e565b614643565b610691614680565b6108bc61096136600461822e565b614686565b61067f61097436600461822e565b6148a3565b610691610987366004617f54565b6148e7565b61069161497c565b6106ff6109a2366004617f54565b614993565b6109ba6109b536600461822e565b6149e6565b6040516106639e9d9c9b9a99989796959493929190619687565b6106ff6109e2366004618324565b614ae5565b6107a96109f536600461822e565b614b26565b610691614b36565b6106c4610a10366004618257565b614b3c565b610a28610a23366004617f1c565b614b60565b6040516106639a999897969594939291906184ca565b6107a9614bc3565b6107a9610a54366004618303565b614bd2565b61067f610a6736600461822e565b614c0a565b610691614dba565b61067f610a82366004617fb3565b614dc0565b610691610a95366004617f54565b614e12565b610691614e45565b610691614e4b565b6106ff610ab836600461822e565b614e51565b610691614eb3565b6106ff610ad3366004618073565b614eb9565b6106ff610ae6366004617f54565b614f1f565b610691614f72565b6107a9615027565b610691610b09366004617f54565b615036565b6107a9610b1c36600461822e565b61507b565b6106ff610b2f366004617f1c565b61508b565b610656610b42366004618303565b615158565b610691610b55366004617f7f565b615372565b610656610b68366004618303565b61545e565b610691610b7b36600461822e565b6155c6565b610691610b8e366004617f54565b615603565b6106ff610ba1366004618257565b615648565b6106ff610bb4366004617f54565b615723565b610691615743565b610691615749565b6108bc610bd7366004618303565b61574f565b6108bc610bea36600461822e565b61592b565b6107a9610bfd366004617f54565b615b48565b610691610c10366004618257565b615b64565b6106ff610c2336600461822e565b615b81565b610c3b610c3636600461822e565b615b86565b604051610663919061943e565b61067f615d1e565b610691615f60565b610656610c6636600461822e565b615f73565b6106c4610c7936600461822e565b615fff565b6106ff610c8c366004617f1c565b6160c7565b61067f610c9f36600461822e565b6160e8565b6108bc610cb236600461822e565b6162ad565b610691616470565b6108bc610ccd36600461822e565b616476565b610691616786565b61069161678c565b61067f610cf0366004617f1c565b616792565b610691610d033660046180d3565b616800565b610691616815565b61067f61681b565b6106ff610d2636600461822e565b616e29565b6106ff616e31565b610691616e4a565b6107a9616e50565b610691610d51366004617f1c565b616e5f565b6107a9616f07565b6060610d6982616e29565b610d8e5760405162461bcd60e51b8152600401610d8590619094565b60405180910390fd5b6000828152600f6020908152604080832080548251818502810185019093528083529192909190830182828015610dee57602002820191906000526020600020905b81546001600160a01b03168152600190910190602001808311610dd0575b50505050509050600081516001600160401b03811115610e1e57634e487b7160e01b600052604160045260246000fd5b604051908082528060200260200182016040528015610e47578160200160208202803683370190505b50905060005b8251811015610ef157600360008681526020019081526020016000206000848381518110610e8b57634e487b7160e01b600052603260045260246000fd5b60200260200101516001600160a01b03166001600160a01b0316815260200190815260200160002054828281518110610ed457634e487b7160e01b600052603260045260246000fd5b602090810291909101015280610ee981619840565b915050610e4d565b509150505b919050565b610f03616f16565b6001600160a01b0316610f14614bc3565b6001600160a01b031614610f3a5760405162461bcd60e51b8152600401610d8590618dcb565b602180546001600160a01b0319166001600160a01b0392909216919091179055565b610f64616f16565b6001600160a01b0316610f75614bc3565b6001600160a01b031614610f9b5760405162461bcd60e51b8152600401610d8590618dcb565b610fa3614bc3565b6001600160a01b0316ff5b60165481565b610fbc616f16565b6001600160a01b0316610fcd614bc3565b6001600160a01b031614610ff35760405162461bcd60e51b8152600401610d8590618dcb565b601955565b60076020908152600092835260408084209091529082529020805461101c90619805565b80601f016020809104026020016040519081016040528092919081815260200182805461104890619805565b80156110955780601f1061106a57610100808354040283529160200191611095565b820191906000526020600020905b81548152906001019060200180831161107857829003601f168201915b505050505081565b601a5490565b6000818152600b60205260408120600981015460089091015482916110c791619773565b9392505050565b60006110d982616e29565b6110f55760405162461bcd60e51b8152600401610d8590619377565b6000828152600b602052604090206007015461111090615b81565b92915050565b336000908152600c60205260409020600581015460ff16151560011461114e5760405162461bcd60e51b8152600401610d8590618d5a565b60018101541580159061116b57506005810154610100900460ff16155b156111c85760058101805461ff001916610100179055601380546001810182556000919091527f66de8ffda797e3de9c05e8fc57b3bf0ec28a930d40b0d285d93c06501cf6a0900180546001600160a01b03191633179055611240565b6001810154611240576111da33616f1a565b6111e333617072565b80546001600160a01b031916339081178255426004830181905560058301805460ff191690556040517f9dadcedba048e92b943ea1c5861cee1df63a566d7f795869c004780c1c698e2b9161123791618483565b60405180910390a25b6001601b60008282546112539190619773565b9091555061126190506171a2565b50565b60008061127085611d1d565b9050600061127e8683615603565b90505b81156113f6576112918683615603565b905084811161134e5783821415611346576001600160a01b038616600090815260086020526040908190209051632cf7fac560e11b815273__$4f8ca6118d78dd926ab9e54900dd6f45d8$__916359eff58a916112f3919086906004016184a8565b60206040518083038186803b15801561130b57600080fd5b505af415801561131f573d6000803e3d6000fd5b505050506040513d601f19601f820116820180604052508101906113439190618246565b91505b5090506110c7565b6001600160a01b038616600090815260086020526040908190209051632cf7fac560e11b815273__$4f8ca6118d78dd926ab9e54900dd6f45d8$__916359eff58a9161139f919086906004016184a8565b60206040518083038186803b1580156113b757600080fd5b505af41580156113cb573d6000803e3d6000fd5b505050506040513d601f19601f820116820180604052508101906113ef9190618246565b9150611281565b50949350505050565b600160209081526000928352604080842090915290825290205460ff1681565b600a6020526000908152604090208054819061143a90619805565b80601f016020809104026020016040519081016040528092919081815260200182805461146690619805565b80156114b35780601f10611488576101008083540402835291602001916114b3565b820191906000526020600020905b81548152906001019060200180831161149657829003601f168201915b505050506001830154600284015460039094015492936001600160a01b039091169290915060ff1684565b60046020908152600092835260408084209091529082529020805461101c90619805565b61150a6171a2565b61151385614e51565b61152f5760405162461bcd60e51b8152600401610d859061890d565b33600090815260016020908152604080832088845290915290205460ff161561156a5760405162461bcd60e51b8152600401610d859061910c565b6115748533615648565b6115905760405162461bcd60e51b8152600401610d85906189b4565b60215460408051632a49798160e11b815290516000926001600160a01b031691635492f302916004808301926020929190829003018186803b1580156115d557600080fd5b505afa1580156115e9573d6000803e3d6000fd5b505050506040513d601f19601f8201168201806040525081019061160d9190617f38565b6001600160a01b031614156116345760405162461bcd60e51b8152600401610d8590619333565b6021546040805163bf34f74960e01b815290516000926001600160a01b03169163bf34f749916004808301926020929190829003018186803b15801561167957600080fd5b505afa15801561168d573d6000803e3d6000fd5b505050506040513d601f19601f820116820180604052508101906116b19190618246565b90506000602160009054906101000a90046001600160a01b03166001600160a01b0316635492f3026040518163ffffffff1660e01b815260040160206040518083038186803b15801561170357600080fd5b505afa158015611717573d6000803e3d6000fd5b505050506040513d601f19601f8201168201806040525081019061173b9190617f38565b90506000816001600160a01b031663f25e9ed2336040518263ffffffff1660e01b815260040161176b91906184b6565b60206040518083038186803b15801561178357600080fd5b505afa158015611797573d6000803e3d6000fd5b505050506040513d601f19601f820116820180604052508101906117bb9190617f38565b336000908152600d6020526040902054909150831115611864576001600160a01b0381161561183b576001600160a01b0381166000908152600d6020526040902054831115611836576001600160a01b0381166000908152600d602052604081205461182890859061748d565b90506118348183617499565b505b611864565b336000908152600d602052604081205461185690859061748d565b90506118628133617499565b505b336000908152600d60205260409020548311156118935760405162461bcd60e51b8152600401610d8590619197565b600033600090815260086020526040808220905163b91c2a1760e01b815273__$4f8ca6118d78dd926ab9e54900dd6f45d8$__9163b91c2a17916118dc919086906004016184a8565b60206040518083038186803b1580156118f457600080fd5b505af4158015611908573d6000803e3d6000fd5b505050506040513d601f19601f8201168201806040525081019061192c9190618246565b9050898114156119d1573360009081526008602052604090819020905163b91c2a1760e01b815273__$4f8ca6118d78dd926ab9e54900dd6f45d8$__9163b91c2a179161197e91908e906004016184a8565b60206040518083038186803b15801561199657600080fd5b505af41580156119aa573d6000803e3d6000fd5b505050506040513d601f19601f820116820180604052508101906119ce9190618246565b90505b6119dd82823388614ae5565b6119f95760405162461bcd60e51b8152600401610d8590618ccf565b33600090815260086020526040908190209051636d9dea7760e11b815273__$4f8ca6118d78dd926ab9e54900dd6f45d8$__9163db3bd4ee91611a45919086908f9087906004016195cd565b60006040518083038186803b158015611a5d57600080fd5b505af4158015611a71573d6000803e3d6000fd5b505050506000611a81338c614e12565b6040516365bc68dd60e01b815290915073__$124728fb251f3a5286f0c82d495c0ef87b$__906365bc68dd90611ac09060099085908b906004016195af565b60006040518083038186803b158015611ad857600080fd5b505af4158015611aec573d6000803e3d6000fd5b50506040516365bc68dd60e01b815273__$124728fb251f3a5286f0c82d495c0ef87b$__92506365bc68dd9150611b2c9060099085908f90600401619563565b60006040518083038186803b158015611b4457600080fd5b505af4158015611b58573d6000803e3d6000fd5b50505060008c8152600560209081526040808320338085529083528184208e90558f84526006835281842090845282529091208a51611b9c935090918b0190617c9d565b5060008b815260076020908152604080832033845282529091208851611bc4928a0190617c9d565b50336000908152600c602090815260408083208e8452600b90925290912060020154611bf190600161748d565b600b60008e8152602001908152602001600020600201819055504281600401819055506001806000336001600160a01b03166001600160a01b0316815260200190815260200160002060008e815260200190815260200160002060006101000a81548160ff0219169083151502179055506001601b6000828254611c759190619773565b909155505060405133908d907f6f70ec337f3e5af65900432019d6224a31a192284b986df3858d87f7a1704cea90611cae908b90618483565b60405180910390a3505050505050505050505050565b600d6020526000908152604090205481565b60118181548110611ce657600080fd5b6000918252602090912001546001600160a01b0316905081565b60405160009080602081848060185afa611d1657fe5b5051919050565b6001600160a01b0381166000908152600860205260408082209051632cf7fac560e11b815273__$4f8ca6118d78dd926ab9e54900dd6f45d8$__916359eff58a91611d6d919085906004016184a8565b60206040518083038186803b158015611d8557600080fd5b505af4158015611d99573d6000803e3d6000fd5b505050506040513d601f19601f820116820180604052508101906111109190618246565b6000611dc882616e29565b611de45760405162461bcd60e51b8152600401610d8590619094565b6000828152600b6020526040902060070154611dff90615b81565b1580156111105750611e1082614e51565b1592915050565b611e1f616f16565b6001600160a01b0316611e30614bc3565b6001600160a01b031614611e565760405162461bcd60e51b8152600401610d8590618dcb565b60008181526010602052604090205460ff1615611261576000908152601060205260409020805460ff19169055565b60195490565b60215460408051637b39b17f60e11b815290516000926001600160a01b03169163f67362fe916004808301926020929190829003018186803b158015611ed057600080fd5b505afa158015611ee4573d6000803e3d6000fd5b505050506040513d601f19601f82011682018060405250810190611f089190617f38565b905060006001600160a01b0316602160009054906101000a90046001600160a01b03166001600160a01b031663f67362fe6040518163ffffffff1660e01b815260040160206040518083038186803b158015611f6357600080fd5b505afa158015611f77573d6000803e3d6000fd5b505050506040513d601f19601f82011682018060405250810190611f9b9190617f38565b6001600160a01b031614158015611fc1575060008281526010602052604090205460ff16155b156123b757604051637b90ef2560e11b81526001600160a01b0382169063f721de4a90611ff2908590600401618483565b602060405180830381600087803b15801561200c57600080fd5b505af1158015612020573d6000803e3d6000fd5b505050506040513d601f19601f820116820180604052508101906120449190618059565b156123b757604051631b308bf760e31b81526000906001600160a01b0383169063d9845fb890612078908690600401618483565b600060405180830381600087803b15801561209257600080fd5b505af11580156120a6573d6000803e3d6000fd5b505050506040513d6000823e601f3d908101601f191682016040526120ce9190810190618115565b6101a081015190915060018160038111156120f957634e487b7160e01b600052602160045260246000fd5b141561239b576040805160808101825261016084015181523360208083019190915242828401526000606083018190526016548152600a825292909220815180519293919261214b9284920190617c9d565b506020820151600182810180546001600160a01b0319166001600160a01b0390931692909217909155604083015160028301556060830151600380840180549293909260ff19169184908111156121b257634e487b7160e01b600052602160045260246000fd5b0217905550506018546000908152600b60209081526040918290206021548351631967455160e31b815293519194506001600160a01b03169263cb3a2a88926004808301939192829003018186803b15801561220d57600080fd5b505afa158015612221573d6000803e3d6000fd5b505050506040513d601f19601f820116820180604052508101906122459190618246565b8160010154101561226b5760018160010160008282546122659190619773565b90915550505b602160009054906101000a90046001600160a01b03166001600160a01b031663cb3a2a886040518163ffffffff1660e01b815260040160206040518083038186803b1580156122b957600080fd5b505afa1580156122cd573d6000803e3d6000fd5b505050506040513d601f19601f820116820180604052508101906122f19190618246565b81600101541061234057600581018054600160ff19909116811761ff00191690915560188054600090612325908490619773565b90915550506016546018546000908152600b60205260409020555b612348615d1e565b601654612356906001619773565b60168190556101608401516040517fd9e44214769d0ed5f5bf079b143465e2795ee52876cf3ffdaf6b38da424cb27d916123919133906185e0565b60405180910390a2505b50506000828152601060205260409020805460ff191660011790555b6001601b60008282546123ca9190619773565b90915550505050565b601e5481565b6000818152600b6020908152604080832081516101c081018352815481526001820154938101939093526002810154918301919091526003810154606083015260048101546080830152600581015460ff808216151560a08501526101008083048216151560c08601526201000090920416151560e0840152600682015490830152600781015461012083015260088101546101408301526009810154610160830152600a810180548493929161018084019161249590619805565b80601f01602080910402602001604051908101604052809291908181526020018280546124c190619805565b801561250e5780601f106124e35761010080835404028352916020019161250e565b820191906000526020600020905b8154815290600101906020018083116124f157829003601f168201915b5050509183525050600b82015460209091019060ff16600381111561254357634e487b7160e01b600052602160045260246000fd5b600381111561256257634e487b7160e01b600052602160045260246000fd5b90525061016081015161014082015191925061257d91619773565b602160009054906101000a90046001600160a01b03166001600160a01b031663ea19733c6040518163ffffffff1660e01b815260040160206040518083038186803b1580156125cb57600080fd5b505afa1580156125df573d6000803e3d6000fd5b505050506040513d601f19601f820116820180604052508101906126039190618246565b61260d919061979f565b61014082015161261e90606461979f565b119392505050565b60106020526000908152604090205460ff1681565b612643616f16565b6001600160a01b0316612654614bc3565b6001600160a01b03161461267a5760405162461bcd60e51b8152600401610d8590618dcb565b601580546001600160a01b0319166001600160a01b0392909216919091179055565b6126a4616f16565b6001600160a01b03166126b5614bc3565b6001600160a01b0316146126db5760405162461bcd60e51b8152600401610d8590618dcb565b6000818152600a60205260408120906126f48282617d21565b506001810180546001600160a01b031916905560006002820155600301805460ff1916905550565b60185490565b60115490565b612730617d5d565b6000828152600a60205260409081902081516080810190925280548290829061275890619805565b80601f016020809104026020016040519081016040528092919081815260200182805461278490619805565b80156127d15780601f106127a6576101008083540402835291602001916127d1565b820191906000526020600020905b8154815290600101906020018083116127b457829003601f168201915b505050918352505060018201546001600160a01b031660208201526002820154604082015260038083015460609092019160ff169081111561282357634e487b7160e01b600052602160045260246000fd5b600381111561284257634e487b7160e01b600052602160045260246000fd5b90525092915050565b600560209081526000928352604080842090915290825290205481565b606061287382616e29565b61288f5760405162461bcd60e51b8152600401610d8590619094565b6000828152600f60209081526040808320805482518185028101850190935280835291929091908301828280156128ef57602002820191906000526020600020905b81546001600160a01b031681526001909101906020018083116128d1575b50505050509050600081516001600160401b0381111561291f57634e487b7160e01b600052604160045260246000fd5b60405190808252806020026020018201604052801561295257816020015b606081526020019060019003908161293d5790505b50905060005b8251811015610ef15760066000868152602001908152602001600020600084838151811061299657634e487b7160e01b600052603260045260246000fd5b60200260200101516001600160a01b03166001600160a01b0316815260200190815260200160002080546129c990619805565b80601f01602080910402602001604051908101604052809291908181526020018280546129f590619805565b8015612a425780601f10612a1757610100808354040283529160200191612a42565b820191906000526020600020905b815481529060010190602001808311612a2557829003601f168201915b5050505050828281518110612a6757634e487b7160e01b600052603260045260246000fd5b60200260200101819052508080612a7d90619840565b915050612958565b612a8d6171a2565b612a9684611dbd565b612ab25760405162461bcd60e51b8152600401610d8590618fd2565b33600090815260016020908152604080832087845290915290205460ff16612aec5760405162461bcd60e51b8152600401610d8590618af3565b33600090815260026020908152604080832087845290915290205460ff1615612b275760405162461bcd60e51b8152600401610d85906193a0565b612b3133856148e7565b612b3b8383616800565b14612b585760405162461bcd60e51b8152600401610d8590618e94565b6000612b643386615603565b90508360011415612b9b576000858152600b602052604081206008018054839290612b90908490619773565b90915550612bc29050565b6000858152600b602052604081206009018054839290612bbc908490619773565b90915550505b3360009081526008602052604090819020905163aa4ca0c360e01b815273__$4f8ca6118d78dd926ab9e54900dd6f45d8$__9163aa4ca0c391612c0a919089906004016184a8565b60006040518083038186803b158015612c2257600080fd5b505af4158015612c36573d6000803e3d6000fd5b50503360008181526002602090815260408083208b84528252808320805460ff191660011790556003825280832084845282528083208a90558a8352600482528083209383529281529190208651612c95945090925090860190617c9d565b50336000908152600c60209081526040808320888452600b90925290912060030154612cc290600161748d565b6000878152600b602052604090206003015560028101805460ff19166001179055426004820155612cf233617072565b600581015460ff1615612d4f57612d08336176c1565b612d4f57601180546001810182556000919091527f31ecc21a745e3968a04e9570e4425bc18fa8019c68028196b546d1669c200c680180546001600160a01b031916331790555b6000868152600b6020526040902060030154612d6e57612d6e866134ac565b6001601b6000828254612d819190619773565b90915550506000868152600b60205260409081902060088101546009909101549151339288928a927f5713faa09d67f37973647d2d571bfbdc9f626c5bd22ed439675c326a190524d992612dd9928992909190619671565b60405180910390a4505050505050565b612df1616f16565b6001600160a01b0316612e02614bc3565b6001600160a01b031614612e285760405162461bcd60e51b8152600401610d8590618dcb565b6000818152600b602052604081208181556001810182905560028101829055600381018290556004810182905560058101805462ffffff191690556006810182905560078101829055600881018290556009810182905590612e8d600a830182617d21565b50600b01805460ff1916905550565b601a546000908152600b602052604090206005015460ff16612ed05760405162461bcd60e51b8152600401610d8590618f7c565b601a546000908152600b602052604090206005015462010000900460ff1615612f0b5760405162461bcd60e51b8152600401610d8590618cfd565b600061302f612fa4601180549050602160009054906101000a90046001600160a01b03166001600160a01b031663e68c9c306040518163ffffffff1660e01b815260040160206040518083038186803b158015612f6757600080fd5b505afa158015612f7b573d6000803e3d6000fd5b505050506040513d601f19601f82011682018060405250810190612f9f9190618246565b617731565b602160009054906101000a90046001600160a01b03166001600160a01b031663a1a4575a6040518163ffffffff1660e01b815260040160206040518083038186803b158015612ff257600080fd5b505afa158015613006573d6000803e3d6000fd5b505050506040513d601f19601f8201168201806040525081019061302a9190618246565b617747565b601154601a80546000908152600b602090815260408083206003018690559254825282822060020185905560215483516390cc59eb60e01b81529351959650939491936130e4936001600160a01b03909116926390cc59eb92600480840193919291829003018186803b1580156130a557600080fd5b505afa1580156130b9573d6000803e3d6000fd5b505050506040513d601f19601f820116820180604052508101906130dd9190618246565b4290617757565b90506000613178602160009054906101000a90046001600160a01b03166001600160a01b0316638a13725d6040518163ffffffff1660e01b815260040160206040518083038186803b15801561313957600080fd5b505afa15801561314d573d6000803e3d6000fd5b505050506040513d601f19601f820116820180604052508101906131719190618246565b8390617757565b601a80546000908152600b6020526040808220600601869055825482528082206007018490559154815220600501805462ff00001916620100001790559050600184108015906131c9575060018310155b6131e55760405162461bcd60e51b8152600401610d85906188c3565b60006131f1858561545e565b9050600081516001600160401b0381111561321c57634e487b7160e01b600052604160045260246000fd5b604051908082528060200260200182016040528015613245578160200160208202803683370190505b50905060005b825181101561330457601183828151811061327657634e487b7160e01b600052603260045260246000fd5b60200260200101518154811061329c57634e487b7160e01b600052603260045260246000fd5b9060005260206000200160009054906101000a90046001600160a01b03168282815181106132da57634e487b7160e01b600052603260045260246000fd5b6001600160a01b0390921660209283029190910190910152806132fc81619840565b91505061324b565b5060005b825181101561346c57600082828151811061333357634e487b7160e01b600052603260045260246000fd5b602002602001015190506000600c6000836001600160a01b03166001600160a01b03168152602001908152602001600020905061336f82616f1a565b61337882617763565b6133c857601280546001810182556000919091527fbb8a6a4669ba250d26cd7a459eca9d215f8307e33aebe50379bc5a3617ec34440180546001600160a01b0319166001600160a01b0384161790555b601a80546000908152600f602090815260408083208054600180820183559185529290932090910180546001600160a01b0319166001600160a01b03871617905582549184019190915560028301805460ff19169055905490517fe4ee2dfabe57cee15e3f558890b20455f54c1fa0718e5276faad70a6500e6b8c9061344f9085906184b6565b60405180910390a25050808061346490619840565b915050613308565b50601a5461347b906001617757565b601a55613486614f72565b6014819055506001601b600082825461349f9190619773565b9091555050505050505050565b60215460408051632a49798160e11b815290516000926001600160a01b031691635492f302916004808301926020929190829003018186803b1580156134f157600080fd5b505afa158015613505573d6000803e3d6000fd5b505050506040513d601f19601f820116820180604052508101906135299190617f38565b6001600160a01b031614156135505760405162461bcd60e51b8152600401610d8590619333565b60215460408051630855d15160e01b815290516000926001600160a01b031691630855d151916004808301926020929190829003018186803b15801561359557600080fd5b505afa1580156135a9573d6000803e3d6000fd5b505050506040513d601f19601f820116820180604052508101906135cd9190617f38565b6001600160a01b031614156135f45760405162461bcd60e51b8152600401610d859061905f565b602154604080516304e76c8f60e01b815290516000926001600160a01b0316916304e76c8f916004808301926020929190829003018186803b15801561363957600080fd5b505afa15801561364d573d6000803e3d6000fd5b505050506040513d601f19601f820116820180604052508101906136719190617f38565b6001600160a01b031614156136985760405162461bcd60e51b8152600401610d8590618944565b6136a1816110ce565b806136bb57506000818152600b6020526040902060030154155b6136d75760405162461bcd60e51b8152600401610d8590618e37565b6000818152600b6020526040902060050154610100900460ff161561370e5760405162461bcd60e51b8152600401610d85906190cb565b6000818152600f602090815260408083208054825181850281018501909352808352919290919083018282801561376e57602002820191906000526020600020905b81546001600160a01b03168152600190910190602001808311613750575b50505050509050600081516001600160401b0381111561379e57634e487b7160e01b600052604160045260246000fd5b6040519080825280602002602001820160405280156137d157816020015b60608152602001906001900390816137bc5790505b509050600082516001600160401b038111156137fd57634e487b7160e01b600052604160045260246000fd5b604051908082528060200260200182016040528015613826578160200160208202803683370190505b50905060005b83518110156139a957600084828151811061385757634e487b7160e01b600052603260045260246000fd5b60209081029190910181015160008881526004835260408082206001600160a01b038416835290935291822080549193509061389290619805565b80601f01602080910402602001604051908101604052809291908181526020018280546138be90619805565b801561390b5780601f106138e05761010080835404028352916020019161390b565b820191906000526020600020905b8154815290600101906020018083116138ee57829003601f168201915b50505060008a81526005602090815260408083206001600160a01b03891684529091529020548851939450928492508891508690811061395b57634e487b7160e01b600052603260045260246000fd5b60200260200101819052508085858151811061398757634e487b7160e01b600052603260045260246000fd5b60200260200101818152505050505080806139a190619840565b91505061382c565b506000613a546064602160009054906101000a90046001600160a01b03166001600160a01b031663ea19733c6040518163ffffffff1660e01b815260040160206040518083038186803b1580156139ff57600080fd5b505afa158015613a13573d6000803e3d6000fd5b505050506040513d601f19601f82011682018060405250810190613a379190618246565b8651613a43919061979f565b613a4d919061978b565b6001617747565b9050600083600081518110613a7957634e487b7160e01b600052603260045260246000fd5b6020026020010151905060005b8451811015613b6f576000805b8651811015613b2457613af4878481518110613abf57634e487b7160e01b600052603260045260246000fd5b6020026020010151888381518110613ae757634e487b7160e01b600052603260045260246000fd5b6020026020010151614eb9565b15613b1257613b04600183619773565b9150848210613b1257613b24565b80613b1c81619840565b915050613a93565b50838110613b5c57858281518110613b4c57634e487b7160e01b600052603260045260246000fd5b6020026020010151925050613b6f565b5080613b6781619840565b915050613a86565b50600083600081518110613b9357634e487b7160e01b600052603260045260246000fd5b6020026020010151905060005b8451811015613c82576000805b8651811015613c3757868181518110613bd657634e487b7160e01b600052603260045260246000fd5b6020026020010151878481518110613bfe57634e487b7160e01b600052603260045260246000fd5b60200260200101511415613c2557613c17600183619773565b9150858210613c2557613c37565b80613c2f81619840565b915050613bad565b50848110613c6f57858281518110613c5f57634e487b7160e01b600052603260045260246000fd5b6020026020010151925050613c82565b5080613c7a81619840565b915050613ba0565b5060005b8651811015614437576000878281518110613cb157634e487b7160e01b600052603260045260246000fd5b6020908102919091018101516001600160a01b03811660009081526002835260408082208d8352909352919091205490915060ff16613cef82617072565b6001600160a01b0382166000908152600c602052604090208115614318576001600160a01b0383166000818152600c6020908152604080832060028101805460ff191660011790556003018390558e8352600482528083209383529290529081208054613d5b90619805565b80601f0160208091040260200160405190810160405280929190818152602001828054613d8790619805565b8015613dd45780601f10613da957610100808354040283529160200191613dd4565b820191906000526020600020905b815481529060010190602001808311613db757829003601f168201915b50505050509050613de58188614eb9565b156142795760215460408051632a49798160e11b815290516000926001600160a01b031691635492f302916004808301926020929190829003018186803b158015613e2f57600080fd5b505afa158015613e43573d6000803e3d6000fd5b505050506040513d601f19601f82011682018060405250810190613e679190617f38565b90506000602160009054906101000a90046001600160a01b03166001600160a01b0316630855d1516040518163ffffffff1660e01b815260040160206040518083038186803b158015613eb957600080fd5b505afa158015613ecd573d6000803e3d6000fd5b505050506040513d601f19601f82011682018060405250810190613ef19190617f38565b90506000602160009054906101000a90046001600160a01b03166001600160a01b03166304e76c8f6040518163ffffffff1660e01b815260040160206040518083038186803b158015613f4357600080fd5b505afa158015613f57573d6000803e3d6000fd5b505050506040513d601f19601f82011682018060405250810190613f7b9190617f38565b90506000836001600160a01b03166311815086896040518263ffffffff1660e01b8152600401613fab91906184b6565b60206040518083038186803b158015613fc357600080fd5b505afa158015613fd7573d6000803e3d6000fd5b505050506040513d601f19601f82011682018060405250810190613ffb9190617f38565b9050826001600160a01b0316631b6d990a8b602160009054906101000a90046001600160a01b03166001600160a01b031663849f9f0a6040518163ffffffff1660e01b815260040160206040518083038186803b15801561405b57600080fd5b505afa15801561406f573d6000803e3d6000fd5b505050506040513d601f19601f820116820180604052508101906140939190618246565b61409d919061979f565b836040518363ffffffff1660e01b81526004016140bb929190619653565b602060405180830381600087803b1580156140d557600080fd5b505af11580156140e9573d6000803e3d6000fd5b505050506040513d601f19601f8201168201806040525081019061410d9190618059565b6141295760405162461bcd60e51b8152600401610d8590618aa5565b816001600160a01b031663e0ca50948b602160009054906101000a90046001600160a01b03166001600160a01b031663386d09766040518163ffffffff1660e01b815260040160206040518083038186803b15801561418757600080fd5b505afa15801561419b573d6000803e3d6000fd5b505050506040513d601f19601f820116820180604052508101906141bf9190618246565b6141c9919061979f565b836040518363ffffffff1660e01b81526004016141e792919061963c565b602060405180830381600087803b15801561420157600080fd5b505af1158015614215573d6000803e3d6000fd5b505050506040513d601f19601f820116820180604052508101906142399190618059565b6142555760405162461bcd60e51b8152600401610d85906187e4565b600186600701600082825461426a9190619773565b90915550614294945050505050565b600182600801600082825461428e9190619773565b90915550505b600582015460ff1615614312576142aa846176c1565b1580156142c157506005820154610100900460ff16155b1561431257601180546001810182556000919091527f31ecc21a745e3968a04e9570e4425bc18fa8019c68028196b546d1669c200c680180546001600160a01b0319166001600160a01b0386161790555b50614421565b6005810154610100900460ff168061432e575081155b15614421576001600160a01b0383166000908152600c6020526040812060030180546001929061435f908490619773565b909155505060215460408051634fda48fb60e11b815290516001600160a01b0390921691639fb491f691600480820192602092909190829003018186803b1580156143a957600080fd5b505afa1580156143bd573d6000803e3d6000fd5b505050506040513d601f19601f820116820180604052508101906143e19190618246565b6001600160a01b0384166000908152600c602052604090206003015414156144215760058101805460ff1916905561441883616f1a565b61442183617072565b505050808061442f90619840565b915050613c86565b506000878152600b6020908152604090912060058101805461ff001916610100179055835161446e92600a90920191850190617c9d565b506000878152600b6020526040902060040181905561448c876123d9565b156144ce576000878152600b60208190526040822001805460ff19166001908117909155601c8054919290916144c3908490619773565b909155506145039050565b6000878152600b60208190526040822001805460ff19166002179055601d8054600192906144fd908490619773565b90915550505b6001601b60008282546145169190619773565b90915550506000878152600b6020526040812060020154601e805491929091614540908490619773565b90915550506000878152600b6020526040812060030154601f80549192909161456a908490619773565b90915550506000878152600a602052604090819020600181015491516001600160a01b03909216917f58ae0a44e217f9a98469bde71dd8a2ff0aba30b17db505012e6e74fd86165aee916145bd9161866d565b60405180910390a250505050505050565b600061111082610b8e84611d1d565b6001600160a01b03166000908152600d602052604090205490565b614600616f16565b6001600160a01b0316614611614bc3565b6001600160a01b0316146146375760405162461bcd60e51b8152600401610d8590618dcb565b61464160006177d3565b565b600061464e82616e29565b61466a5760405162461bcd60e51b8152600401610d8590619094565b506000908152600b602052604090206007015490565b60125490565b606061469182616e29565b6146ad5760405162461bcd60e51b8152600401610d8590619094565b6000828152600f602090815260408083208054825181850281018501909352808352919290919083018282801561470d57602002820191906000526020600020905b81546001600160a01b031681526001909101906020018083116146ef575b50505050509050600081516001600160401b0381111561473d57634e487b7160e01b600052604160045260246000fd5b60405190808252806020026020018201604052801561477057816020015b606081526020019060019003908161475b5790505b50905060005b8251811015610ef1576007600086815260200190815260200160002060008483815181106147b457634e487b7160e01b600052603260045260246000fd5b60200260200101516001600160a01b03166001600160a01b0316815260200190815260200160002080546147e790619805565b80601f016020809104026020016040519081016040528092919081815260200182805461481390619805565b80156148605780601f1061483557610100808354040283529160200191614860565b820191906000526020600020905b81548152906001019060200180831161484357829003601f168201915b505050505082828151811061488557634e487b7160e01b600052603260045260246000fd5b6020026020010181905250808061489b90619840565b915050614776565b6148ab616f16565b6001600160a01b03166148bc614bc3565b6001600160a01b0316146148e25760405162461bcd60e51b8152600401610d8590618dcb565b601a55565b600073__$124728fb251f3a5286f0c82d495c0ef87b$__63d4a25729600961490f8686614e12565b6040518363ffffffff1660e01b815260040161492c929190619545565b60206040518083038186803b15801561494457600080fd5b505af4158015614958573d6000803e3d6000fd5b505050506040513d601f19601f820116820180604052508101906110c79190618246565b60125460115460009161498e91619773565b905090565b600061499e82616e29565b6149ba5760405162461bcd60e51b8152600401610d8590619094565b506001600160a01b03919091166000908152600160209081526040808320938352929052205460ff1690565b600b60205260009081526040902080546001820154600283015460038401546004850154600586015460068701546007880154600889015460098a0154600a8b0180549a9b999a98999798969760ff808816986101008904821698620100009004909116969594939290614a5990619805565b80601f0160208091040260200160405190810160405280929190818152602001828054614a8590619805565b8015614ad25780601f10614aa757610100808354040283529160200191614ad2565b820191906000526020600020905b815481529060010190602001808311614ab557829003601f168201915b505050600b909301549192505060ff168e565b600080614af28487615603565b83101590506000614b038587615603565b84111580614b0f575085155b9050818015614b1b5750805b979650505050505050565b60128181548110611ce657600080fd5b60185481565b60066020908152600092835260408084209091529082529020805461101c90619805565b600c602052600090815260409020805460018201546002830154600384015460048501546005860154600687015460078801546008909801546001600160a01b0390971697959660ff95861696949593948385169461010090940490931692908a565b6000546001600160a01b031690565b600f6020528160005260406000208181548110614bee57600080fd5b6000918252602090912001546001600160a01b03169150829050565b60016000828152600b60208190526040909120015460ff166003811115614c4157634e487b7160e01b600052602160045260246000fd5b14614c5e5760405162461bcd60e51b8152600401610d859061874e565b336000908152600860205260409081902090516303c47d7760e61b815273__$4f8ca6118d78dd926ab9e54900dd6f45d8$__9163f11f5dc091614ca6919085906004016184a8565b60206040518083038186803b158015614cbe57600080fd5b505af4158015614cd2573d6000803e3d6000fd5b505050506040513d601f19601f82011682018060405250810190614cf69190618059565b614d125760405162461bcd60e51b8152600401610d8590618c08565b3360009081526008602052604090819020905163aa4ca0c360e01b815273__$4f8ca6118d78dd926ab9e54900dd6f45d8$__9163aa4ca0c391614d5a919085906004016184a8565b60006040518083038186803b158015614d7257600080fd5b505af4158015614d86573d6000803e3d6000fd5b50506040513392508391507f402507661c8c8cb90e0a796450b8bdd28b6c516f05279c0cd29e84c344e1699a90600090a350565b601c5481565b60005b8151811015614e0e57614dfc828281518110614def57634e487b7160e01b600052603260045260246000fd5b6020026020010151614c0a565b80614e0681619840565b915050614dc3565b5050565b60008282604051602001614e27929190618461565b60405160208183030381529060405280519060200120905092915050565b601c5490565b601d5481565b6000614e5c82616e29565b614e785760405162461bcd60e51b8152600401610d8590619094565b6000828152600b6020526040902060060154614e9390615b81565b1580156111105750506000908152600b6020526040902060020154151590565b60165490565b600081604051602001614ecc919061848c565b6040516020818303038152906040528051906020012083604051602001614ef3919061848c565b604051602081830303815290604052805190602001201415614f1757506001611110565b506000611110565b6000614f2a82616e29565b614f465760405162461bcd60e51b8152600401610d8590619094565b506001600160a01b03919091166000908152600260209081526040808320938352929052205460ff1690565b6000804241604051602001614f879190618444565b6040516020818303038152906040528051906020012060001c614faa919061978b565b44614fb3611d00565b604051602001614fc39190618483565b60408051601f198184030181529190528051602090910120614fe59042619773565b614fef9190619773565b614ff99190619773565b6040516020016150099190618483565b60408051601f19818403018152919052805160209091012091505090565b6015546001600160a01b031681565b600073__$124728fb251f3a5286f0c82d495c0ef87b$__63d4a25729600961505e8686614e12565b6040518363ffffffff1660e01b815260040161492c929190619515565b60138181548110611ce657600080fd5b6001600160a01b038082166000908152600c6020908152604080832081516101408101835281549095168552600181015492850192909252600282015460ff90811615801592860183905260038401546060870152600484015460808701526005840154808316151560a088015261010090819004909216151560c0870152600684015460e087015260078401549186019190915260089092015461012085015291928392909190615147575061514581602001516110ce565b155b1561515157600191505b5092915050565b60606000821161517a5760405162461bcd60e51b8152600401610d8590618da6565b60004160405160200161518d9190618444565b6040516020818303038152906040528051906020012060001c6151ae611d00565b6040516020016151be9190618483565b60408051601f1981840301815291905280516020909101206151e09042619773565b6151ea9190619773565b6040516020016151fa9190618483565b6040516020818303038152906040528051906020012060001c90506000846001600160401b0381111561523d57634e487b7160e01b600052604160045260246000fd5b604051908082528060200260200182016040528015615266578160200160208202803683370190505b5090506000805b868210156153675760008661528663017efeeb876197be565b836040516020016152989291906184a8565b6040516020818303038152906040528051906020012060001c6152bb919061985b565b90506000805b8481101561531357828682815181106152ea57634e487b7160e01b600052603260045260246000fd5b602002602001015114156153015760019150615313565b8061530b81619840565b9150506152c1565b5080615353578185858151811061533a57634e487b7160e01b600052603260045260246000fd5b6020908102919091010152615350846001619773565b93505b61535e836001619773565b9250505061526d565b509095945050505050565b600061537d836110ce565b6153995760405162461bcd60e51b8152600401610d859061928c565b6001600160a01b038416600090815260026020908152604080832086845290915290205460ff166153dc5760405162461bcd60e51b8152600401610d8590618c65565b60006153e7846123d9565b6153f25760006153f5565b60015b60ff1690506000818460405160200161540f9291906184a8565b60405160208183030381529060405280519060200120905060006154338787615036565b90508082146154545760405162461bcd60e51b8152600401610d8590618f33565b614b1b8787615603565b60606000821180156154705750818311155b801561547d575060018310155b6154995760405162461bcd60e51b8152600401610d859061887a565b6000826001600160401b038111156154c157634e487b7160e01b600052604160045260246000fd5b6040519080825280602002602001820160405280156154ea578160200160208202803683370190505b5090506000846001600160401b0381111561551557634e487b7160e01b600052604160045260246000fd5b60405190808252806020026020018201604052801561553e578160200160208202803683370190505b509050600061555461554f84617823565b617879565b905060005b868110156153675781818151811061558157634e487b7160e01b600052603260045260246000fd5b60200260200101518382815181106155a957634e487b7160e01b600052603260045260246000fd5b6020908102919091010152806155be81619840565b915050615559565b60006155d182616e29565b6155ed5760405162461bcd60e51b8152600401610d8590619094565b506000908152600b602052604090206006015490565b600073__$124728fb251f3a5286f0c82d495c0ef87b$__63d4a25729600961562b8686614e12565b6040518363ffffffff1660e01b815260040161492c929190619591565b6000828152600f602090815260408083208054825181850281018501909352808352849384939291908301828280156156aa57602002820191906000526020600020905b81546001600160a01b0316815260019091019060200180831161568c575b5050505050905060005b815181101561571957846001600160a01b03168282815181106156e757634e487b7160e01b600052603260045260246000fd5b60200260200101516001600160a01b031614156157075760019250615719565b8061571181619840565b9150506156b4565b5090949350505050565b600260209081526000928352604080842090915290825290205460ff1681565b60175481565b601a5481565b60608183106157705760405162461bcd60e51b8152600401610d85906193ec565b61577982616e29565b6157955760405162461bcd60e51b8152600401610d8590618b42565b60006157a184846197be565b6157ac906001619773565b90506000816001600160401b038111156157d657634e487b7160e01b600052604160045260246000fd5b60405190808252806020026020018201604052801561580957816020015b60608152602001906001900390816157f45790505b509050845b848110156113f65760016000828152600b60208190526040909120015460ff16600381111561584d57634e487b7160e01b600052602160045260246000fd5b1415615919576000818152600b60205260409020600a01805461586f90619805565b80601f016020809104026020016040519081016040528092919081815260200182805461589b90619805565b80156158e85780601f106158bd576101008083540402835291602001916158e8565b820191906000526020600020905b8154815290600101906020018083116158cb57829003601f168201915b505050505082828151811061590d57634e487b7160e01b600052603260045260246000fd5b60200260200101819052505b8061592381619840565b91505061580e565b606061593682616e29565b6159525760405162461bcd60e51b8152600401610d8590619094565b6000828152600f60209081526040808320805482518185028101850190935280835291929091908301828280156159b257602002820191906000526020600020905b81546001600160a01b03168152600190910190602001808311615994575b50505050509050600081516001600160401b038111156159e257634e487b7160e01b600052604160045260246000fd5b604051908082528060200260200182016040528015615a1557816020015b6060815260200190600190039081615a005790505b50905060005b8251811015610ef157600460008681526020019081526020016000206000848381518110615a5957634e487b7160e01b600052603260045260246000fd5b60200260200101516001600160a01b03166001600160a01b031681526020019081526020016000208054615a8c90619805565b80601f0160208091040260200160405190810160405280929190818152602001828054615ab890619805565b8015615b055780601f10615ada57610100808354040283529160200191615b05565b820191906000526020600020905b815481529060010190602001808311615ae857829003601f168201915b5050505050828281518110615b2a57634e487b7160e01b600052603260045260246000fd5b60200260200101819052508080615b4090619840565b915050615a1b565b600e6020528160005260406000208181548110614bee57600080fd5b600360209081526000928352604080842090915290825290205481565b421190565b615b8e617dac565b615b9782616e29565b615bb35760405162461bcd60e51b8152600401610d8590619094565b6000828152600b602090815260409182902082516101c081018452815481526001820154928101929092526002810154928201929092526003820154606082015260048201546080820152600582015460ff808216151560a08401526101008083048216151560c08501526201000090920416151560e0830152600683015490820152600782015461012082015260088201546101408201526009820154610160820152600a8201805491929161018084019190615c7090619805565b80601f0160208091040260200160405190810160405280929190818152602001828054615c9c90619805565b8015615ce95780601f10615cbe57610100808354040283529160200191615ce9565b820191906000526020600020905b815481529060010190602001808311615ccc57829003601f168201915b5050509183525050600b82015460209091019060ff16600381111561282357634e487b7160e01b600052602160045260246000fd5b615d266171a2565b60135415615d3657615d36617a20565b615d3e617ad4565b60005b602160009054906101000a90046001600160a01b03166001600160a01b0316637d630cb06040518163ffffffff1660e01b815260040160206040518083038186803b158015615d8f57600080fd5b505afa158015615da3573d6000803e3d6000fd5b505050506040513d601f19601f82011682018060405250810190615dc79190618246565b811015611261576019546000908152600b602052604081206005015462010000900460ff1615156001148015615e205750615e036019546110ce565b80615e2057506019546000908152600b6020526040902060030154155b15615e4557615e306019546134ac565b601954615e3e906001617757565b6019555060015b601a546000908152600b602052604090206005015462010000900460ff161515600114801590615efc5750602160009054906101000a90046001600160a01b03166001600160a01b031663a1a4575a6040518163ffffffff1660e01b815260040160206040518083038186803b158015615ebe57600080fd5b505afa158015615ed2573d6000803e3d6000fd5b505050506040513d601f19601f82011682018060405250810190615ef69190618246565b60115410155b8015615f115750615f0b614f72565b60145414155b8015615f315750601a546000908152600b602052604090206005015460ff165b15615f4257615f3e612e9c565b5060015b80615f4d5750611261565b5080615f5881619840565b915050615d41565b336000908152600d602052604090205490565b606060008211615f955760405162461bcd60e51b8152600401610d8590618cb0565b6000826001600160401b03811115615fbd57634e487b7160e01b600052604160045260246000fd5b604051908082528060200260200182016040528015615fe6578160200160208202803683370190505b5090506000615ff761554f83617823565b949350505050565b606061600a82616e29565b6160265760405162461bcd60e51b8152600401610d8590619094565b6000828152600b60205260409020600a01805461604290619805565b80601f016020809104026020016040519081016040528092919081815260200182805461606e90619805565b80156160bb5780601f10616090576101008083540402835291602001916160bb565b820191906000526020600020905b81548152906001019060200180831161609e57829003601f168201915b50505050509050919050565b6001600160a01b03166000908152600c602052604090206005015460ff1690565b600061610c6160f6336145ce565b336000908152600d60205260409020549061748d565b90508181101561612e5760405162461bcd60e51b8152600401610d8590619018565b6021546040805163ca64f9e760e01b815290516000926001600160a01b03169163ca64f9e7916004808301926020929190829003018186803b15801561617357600080fd5b505afa158015616187573d6000803e3d6000fd5b505050506040513d601f19601f820116820180604052508101906161ab9190617f38565b604051630895993360e11b81529091506001600160a01b0382169063112b3266906161dc908690339060040161963c565b602060405180830381600087803b1580156161f657600080fd5b505af115801561620a573d6000803e3d6000fd5b505050506040513d601f19601f8201168201806040525081019061622e9190618059565b61624a5760405162461bcd60e51b8152600401610d85906192d6565b336000908152600d6020526040812080548592906162699084906197be565b909155505060405133907ffaeb7dbb9992397d26ea1944efd40c80b40f702faf69b46c67ad10aba68ccb79906162a0908690618483565b60405180910390a2505050565b60606162b882616e29565b6162d45760405162461bcd60e51b8152600401610d8590618e00565b6000826019546162e491906197be565b6162ef906001619773565b90506000816001600160401b0381111561631957634e487b7160e01b600052604160045260246000fd5b60405190808252806020026020018201604052801561634c57816020015b60608152602001906001900390816163375790505b509050835b601954811015610ef15760016000828152600b60208190526040909120015460ff16600381111561639257634e487b7160e01b600052602160045260246000fd5b141561645e576000818152600b60205260409020600a0180546163b490619805565b80601f01602080910402602001604051908101604052809291908181526020018280546163e090619805565b801561642d5780601f106164025761010080835404028352916020019161642d565b820191906000526020600020905b81548152906001019060200180831161641057829003601f168201915b505050505082828151811061645257634e487b7160e01b600052603260045260246000fd5b60200260200101819052505b8061646881619840565b915050616351565b601f5481565b606061648182616e29565b61649d5760405162461bcd60e51b8152600401610d8590619094565b6000828152600b6020908152604080832081516101c081018352815481526001820154938101939093526002810154918301919091526003810154606083015260048101546080830152600581015460ff808216151560a08501526101008083048216151560c08601526201000090920416151560e0840152600682015490830152600781015461012083015260088101546101408301526009810154610160830152600a810180546101808401919061655690619805565b80601f016020809104026020016040519081016040528092919081815260200182805461658290619805565b80156165cf5780601f106165a4576101008083540402835291602001916165cf565b820191906000526020600020905b8154815290600101906020018083116165b257829003601f168201915b5050509183525050600b82015460209091019060ff16600381111561660457634e487b7160e01b600052602160045260246000fd5b600381111561662357634e487b7160e01b600052602160045260246000fd5b90525060208101519091506000816001600160401b0381111561665657634e487b7160e01b600052604160045260246000fd5b60405190808252806020026020018201604052801561668957816020015b60608152602001906001900390816166745790505b50905060005b828110156113f65783516000906166a7908390619773565b6000818152600a60205260408120805492935090916166c590619805565b80601f01602080910402602001604051908101604052809291908181526020018280546166f190619805565b801561673e5780601f106167135761010080835404028352916020019161673e565b820191906000526020600020905b81548152906001019060200180831161672157829003601f168201915b505050505090508084848151811061676657634e487b7160e01b600052603260045260246000fd5b60200260200101819052505050808061677e90619840565b91505061668f565b60195481565b601b5481565b61679a616f16565b6001600160a01b03166167ab614bc3565b6001600160a01b0316146167d15760405162461bcd60e51b8152600401610d8590618dcb565b6001600160a01b0381166167f75760405162461bcd60e51b8152600401610d8590618834565b611261816177d3565b60008282604051602001614e2792919061864b565b601b5490565b6168236171a2565b336000908152600c602090815260409182902060215483516398a54e2b60e01b8152935191936001600160a01b03909116926398a54e2b92600480840193829003018186803b15801561687557600080fd5b505afa158015616889573d6000803e3d6000fd5b505050506040513d601f19601f820116820180604052508101906168ad9190618246565b6012546011546168bd9190619773565b106168da5760405162461bcd60e51b8152600401610d8590619155565b600581015460ff16156168ff5760405162461bcd60e51b8152600401610d8590618717565b60215460408051632a49798160e11b815290516000926001600160a01b031691635492f302916004808301926020929190829003018186803b15801561694457600080fd5b505afa158015616958573d6000803e3d6000fd5b505050506040513d601f19601f8201168201806040525081019061697c9190617f38565b6001600160a01b031614156169a35760405162461bcd60e51b8152600401610d8590619333565b602160009054906101000a90046001600160a01b03166001600160a01b0316639fb491f66040518163ffffffff1660e01b815260040160206040518083038186803b1580156169f157600080fd5b505afa158015616a05573d6000803e3d6000fd5b505050506040513d601f19601f82011682018060405250810190616a299190618246565b816003015410158015616ace5750602160009054906101000a90046001600160a01b03166001600160a01b0316630f1f0ffe6040518163ffffffff1660e01b815260040160206040518083038186803b158015616a8557600080fd5b505afa158015616a99573d6000803e3d6000fd5b505050506040513d601f19601f82011682018060405250810190616abd9190618246565b6006820154616acc90426197be565b105b15616aeb5760405162461bcd60e51b8152600401610d85906191f4565b6021546040805163bf34f74960e01b815290516000926001600160a01b03169163bf34f749916004808301926020929190829003018186803b158015616b3057600080fd5b505afa158015616b44573d6000803e3d6000fd5b505050506040513d601f19601f82011682018060405250810190616b689190618246565b90506000602160009054906101000a90046001600160a01b03166001600160a01b0316635492f3026040518163ffffffff1660e01b815260040160206040518083038186803b158015616bba57600080fd5b505afa158015616bce573d6000803e3d6000fd5b505050506040513d601f19601f82011682018060405250810190616bf29190617f38565b90506000816001600160a01b031663f25e9ed2336040518263ffffffff1660e01b8152600401616c2291906184b6565b60206040518083038186803b158015616c3a57600080fd5b505afa158015616c4e573d6000803e3d6000fd5b505050506040513d601f19601f82011682018060405250810190616c729190617f38565b336000908152600d6020526040902054909150831115616d1b576001600160a01b03811615616cf2576001600160a01b0381166000908152600d6020526040902054831115616ced576001600160a01b0381166000908152600d6020526040812054616cdf90859061748d565b9050616ceb8183617499565b505b616d1b565b336000908152600d6020526040812054616d0d90859061748d565b9050616d198133617499565b505b336000908152600d6020526040902054831115616d4a5760405162461bcd60e51b8152600401610d8590618b9f565b616d53336176c1565b616d9a57601180546001810182556000919091527f31ecc21a745e3968a04e9570e4425bc18fa8019c68028196b546d1669c200c680180546001600160a01b031916331790555b8354336001600160a01b031990911617845560058401805460ff1916600190811761ff001916909155426006860155600060038601819055601b8054909190616de4908490619773565b909155505060405133907f439d77b7534ec3108fc6143bd4fbabde0b9f2bb54f7b0730d1f70dd2135b765f90616e1b904290618483565b60405180910390a250505050565b601854101590565b336000908152600c602052604090206005015460ff1690565b601d5490565b6020546001600160a01b031681565b6001600160a01b039081166000908152600c6020908152604091829020825161014081018452815490941684526001810154918401829052600281015460ff90811615159385019390935260038101546060850152600481015460808501526005810154808416151560a086015261010090819004909316151560c0850152600681015460e08501526007810154928401929092526008909101546101209092019190915290565b6021546001600160a01b031681565b3390565b60008060005b601154811015616f8e57836001600160a01b031660118281548110616f5557634e487b7160e01b600052603260045260246000fd5b6000918252602090912001546001600160a01b03161415616f7c5760019150809250616f8e565b80616f8681619840565b915050616f20565b50801561706d5760118054616fa5906001906197be565b81548110616fc357634e487b7160e01b600052603260045260246000fd5b600091825260209091200154601180546001600160a01b039092169184908110616ffd57634e487b7160e01b600052603260045260246000fd5b9060005260206000200160006101000a8154816001600160a01b0302191690836001600160a01b03160217905550601180548061704a57634e487b7160e01b600052603160045260246000fd5b600082815260209020810160001990810180546001600160a01b03191690550190555b505050565b60008060005b6012548110156170e657836001600160a01b0316601282815481106170ad57634e487b7160e01b600052603260045260246000fd5b6000918252602090912001546001600160a01b031614156170d457600191508092506170e6565b806170de81619840565b915050617078565b50801561706d57601280546170fd906001906197be565b8154811061711b57634e487b7160e01b600052603260045260246000fd5b600091825260209091200154601280546001600160a01b03909216918490811061715557634e487b7160e01b600052603260045260246000fd5b9060005260206000200160006101000a8154816001600160a01b0302191690836001600160a01b03160217905550601280548061704a57634e487b7160e01b600052603160045260246000fd5b60215460408051632abe0d5f60e11b815290516000926001600160a01b03169163557c1abe916004808301926020929190829003018186803b1580156171e757600080fd5b505afa925050508015617217575060408051601f3d908101601f1916820190925261721491810190617f38565b60015b617288573d808015617245576040519150601f19603f3d011682016040523d82523d6000602084013e61724a565b606091505b507f4b87bbd93ba65ede1e2efeca735d9f7a6720bf7d6db0a8355b17dba5b64e57838160405161727a91906185cd565b60405180910390a15061728a565b505b602160009054906101000a90046001600160a01b03166001600160a01b031663557c1abe6040518163ffffffff1660e01b815260040160206040518083038186803b1580156172d857600080fd5b505afa1580156172ec573d6000803e3d6000fd5b505050506040513d601f19601f820116820180604052508101906173109190617f38565b90506001600160a01b0381166173385760405162461bcd60e51b8152600401610d8590618a11565b6000816001600160a01b03163360405160240161735591906184b6565b60408051601f198184030181529181526020820180516001600160e01b0316631f5ac9c560e11b1790525161738a919061848c565b6000604051808303816000865af19150503d80600081146173c7576040519150601f19603f3d011682016040523d82523d6000602084013e6173cc565b606091505b505090506000826001600160a01b0316336040516024016173ed91906184b6565b60408051601f198184030181529181526020820180516001600160e01b03166358563d2160e01b17905251617422919061848c565b6000604051808303816000865af19150503d806000811461745f576040519150601f19603f3d011682016040523d82523d6000602084013e617464565b606091505b5050905081806174715750805b61706d5760405162461bcd60e51b8152600401610d859061879f565b60006110c782846197be565b6021546040805163ca64f9e760e01b815290516000926001600160a01b03169163ca64f9e7916004808301926020929190829003018186803b1580156174de57600080fd5b505afa1580156174f2573d6000803e3d6000fd5b505050506040513d601f19601f820116820180604052508101906175169190617f38565b6001600160a01b0316141561753d5760405162461bcd60e51b8152600401610d8590618ef1565b6021546040805163ca64f9e760e01b815290516000926001600160a01b03169163ca64f9e7916004808301926020929190829003018186803b15801561758257600080fd5b505afa158015617596573d6000803e3d6000fd5b505050506040513d601f19601f820116820180604052508101906175ba9190617f38565b6040516304ada21f60e21b81529091506001600160a01b038216906312b6887c906175eb908690869060040161963c565b602060405180830381600087803b15801561760557600080fd5b505af1158015617619573d6000803e3d6000fd5b505050506040513d601f19601f8201168201806040525081019061763d9190618059565b6176595760405162461bcd60e51b8152600401610d8590618a48565b6001600160a01b0382166000908152600d602052604081208054859290617681908490619773565b92505081905550816001600160a01b03167f5aa5d56140767016c877a5333ac3e1ad31a09051098a8fdf7297c4b64530a942846040516162a09190618483565b600080805b60115481101561515157836001600160a01b0316601182815481106176fb57634e487b7160e01b600052603260045260246000fd5b6000918252602090912001546001600160a01b0316141561771f5760019150615151565b8061772981619840565b9150506176c6565b600081831061774057816110c7565b5090919050565b60008183101561774057816110c7565b60006110c78284619773565b600080805b60125481101561515157836001600160a01b03166012828154811061779d57634e487b7160e01b600052603260045260246000fd5b6000918252602090912001546001600160a01b031614156177c15760019150615151565b806177cb81619840565b915050617768565b600080546001600160a01b038381166001600160a01b0319831681178455604051919092169283917f8be0079c531659141344cd1fd0a4f28419497f9722a3daafe3b4186f6b6457e09190a35050565b805160609060005b81811015617871578084828151811061785457634e487b7160e01b600052603260045260246000fd5b60209081029190910101528061786981619840565b91505061782b565b509192915050565b6060600082511161789c5760405162461bcd60e51b8152600401610d8590618987565b81518060005b81811015617a17576000836178b5614f72565b8784815181106178d557634e487b7160e01b600052603260045260246000fd5b60200260200101516040516020016178ee9291906184a8565b6040516020818303038152906040528051906020012060001c617911919061985b565b61791c906001619773565b905060008661792c6001846197be565b8151811061794a57634e487b7160e01b600052603260045260246000fd5b602002602001015190508660018661796291906197be565b8151811061798057634e487b7160e01b600052603260045260246000fd5b60200260200101518760018461799691906197be565b815181106179b457634e487b7160e01b600052603260045260246000fd5b602090810291909101015280876179cc6001886197be565b815181106179ea57634e487b7160e01b600052603260045260246000fd5b6020908102919091010152617a006001866197be565b945050508080617a0f90619840565b9150506178a2565b50929392505050565b60005b601354811015617ac757600060138281548110617a5057634e487b7160e01b600052603260045260246000fd5b60009182526020808320909101546001600160a01b0316808352600c909152604090912060058101549192509060ff168015617a8e57506001810154155b15617ab25760058101805461ffff19169055617aa982616f1a565b617ab282617072565b50508080617abf90619840565b915050617a23565b5061464160136000617e3a565b6000601754601954617ae691906197be565b9050602160009054906101000a90046001600160a01b03166001600160a01b031663e3115d3c6040518163ffffffff1660e01b815260040160206040518083038186803b158015617b3657600080fd5b505afa158015617b4a573d6000803e3d6000fd5b505050506040513d601f19601f82011682018060405250810190617b6e9190618246565b8111156112615760005b602154604080516307d630cb60e41b81529051617bfc926001600160a01b031691637d630cb0916004808301926020929190829003018186803b158015617bbe57600080fd5b505afa158015617bd2573d6000803e3d6000fd5b505050506040513d601f19601f82011682018060405250810190617bf69190618246565b83617731565b811015614e0e576017546000908152600b602052604081208054600190910154909190617c299083619773565b9050815b81811015617c5057617c3e8161269c565b80617c4881619840565b915050617c2d565b50617c5c601754612de9565b6017546040517f72c2fcc891fe835b86fc8bb9abdc52adf52499c52289b3c49e1461eabea2717590600090a250508080617c9590619840565b915050617b78565b828054617ca990619805565b90600052602060002090601f016020900481019282617ccb5760008555617d11565b82601f10617ce457805160ff1916838001178555617d11565b82800160010185558215617d11579182015b82811115617d11578251825591602001919060010190617cf6565b50617d1d929150617e54565b5090565b508054617d2d90619805565b6000825580601f10617d3f5750611261565b601f0160209004906000526020600020908101906112619190617e54565b60405180608001604052806060815260200160006001600160a01b031681526020016000815260200160006003811115617da757634e487b7160e01b600052602160045260246000fd5b905290565b604051806101c001604052806000815260200160008152602001600081526020016000815260200160008152602001600015158152602001600015158152602001600015158152602001600081526020016000815260200160008152602001600081526020016060815260200160006003811115617da757634e487b7160e01b600052602160045260246000fd5b508054600082559060005260206000209081019061126191905b5b80821115617d1d5760008155600101617e55565b80518015158114610ef657600080fd5b805160048110610ef657600080fd5b600082601f830112617e98578081fd5b8135617eab617ea682619740565b619717565b818152846020838601011115617ebf578283fd5b816020850160208301379081016020019190915292915050565b600082601f830112617ee9578081fd5b8151617ef7617ea682619740565b818152846020838601011115617f0b578283fd5b615ff78260208301602087016197d5565b600060208284031215617f2d578081fd5b81356110c7816198b1565b600060208284031215617f49578081fd5b81516110c7816198b1565b60008060408385031215617f66578081fd5b8235617f71816198b1565b946020939093013593505050565b600080600060608486031215617f93578081fd5b8335617f9e816198b1565b95602085013595506040909401359392505050565b60006020808385031215617fc5578182fd5b82356001600160401b0380821115617fdb578384fd5b818501915085601f830112617fee578384fd5b8135818111156180005761800061989b565b8381029150618010848301619717565b8181528481019084860184860187018a101561802a578788fd5b8795505b8386101561804c57803583526001959095019491860191860161802e565b5098975050505050505050565b60006020828403121561806a578081fd5b6110c782617e69565b60008060408385031215618085578182fd5b82356001600160401b038082111561809b578384fd5b6180a786838701617e88565b935060208501359150808211156180bc578283fd5b506180c985828601617e88565b9150509250929050565b600080604083850312156180e5578182fd5b82356001600160401b038111156180fa578283fd5b61810685828601617e88565b95602094909401359450505050565b600060208284031215618126578081fd5b81516001600160401b038082111561813c578283fd5b81840191506101c0808387031215618152578384fd5b61815b81619717565b90508251815260208301516020820152604083015160408201526060830151606082015261818b60808401617e69565b608082015261819c60a08401617e69565b60a08201526181ad60c08401617e69565b60c082015260e0838101519082015261010080840151908201526101208084015190820152610140808401519082015261016080840151838111156181f0578586fd5b6181fc88828701617ed9565b828401525050610180915081830151828201526101a0915061821f828401617e79565b91810191909152949350505050565b60006020828403121561823f578081fd5b5035919050565b600060208284031215611d16578081fd5b60008060408385031215618269578182fd5b82359150602083013561827b816198b1565b809150509250929050565b600080600080600060a0868803121561829d578283fd5b85359450602086013593506040860135925060608601356001600160401b03808211156182c8578283fd5b6182d489838a01617e88565b935060808801359150808211156182e9578283fd5b506182f688828901617e88565b9150509295509295909350565b60008060408385031215618315578182fd5b50508035926020909101359150565b60008060008060808587031215618339578182fd5b84359350602085013592506040850135618352816198b1565b9396929550929360600135925050565b60008060008060808587031215618377578182fd5b843593506020850135925060408501356001600160401b0381111561839a578283fd5b6183a687828801617e88565b949793965093946060013593505050565b15159052565b600081518084526183d58160208601602086016197d5565b601f01601f19169290920160200192915050565b6004811061840757634e487b7160e01b600052602160045260246000fd5b9052565b600a8152690c6dedadad2e890c2e6d60b31b602082015260400190565b60098152686e756d546f6b656e7360b81b602082015260400190565b60609190911b6bffffffffffffffffffffffff1916815260140190565b60609290921b6bffffffffffffffffffffffff19168252601482015260340190565b90815260200190565b6000825161849e8184602087016197d5565b9190910192915050565b918252602082015260400190565b6001600160a01b0391909116815260200190565b6001600160a01b039a909a168a5260208a0198909852951515604089015260608801949094526080870192909252151560a0860152151560c085015260e08401526101008301526101208201526101400190565b6000602080830181845280855180835260408601915060408482028701019250838701855b8281101561857157603f1988860301845261855f8583516183bd565b94509285019290850190600101618543565b5092979650505050505050565b6020808252825182820181905260009190848201906040850190845b818110156185b65783518352928401929184019160010161859a565b50909695505050505050565b901515815260200190565b6000602082526110c760208301846183bd565b6000604082526185f360408301856183bd565b905060018060a01b03831660208301529392505050565b60006080825261861d60808301876183bd565b6001600160a01b038616602084015260408301859052905061864260608301846183e9565b95945050505050565b60006040825261865e60408301856183bd565b90508260208301529392505050565b600060208083528184548360028204905060018083168061868f57607f831692505b8583108114156186ad57634e487b7160e01b87526022600452602487fd5b6186b983878a01618483565b8180156186cd57600181146186de57618708565b60ff19861682528782019650618708565b6186e78b619767565b895b86811015618702578154848201529085019089016186e9565b83019750505b50949998505050505050505050565b6020808252601c908201527f576f726b657220697320616c7265616479207265676973746572656400000000604082015260600190565b60208082526031908201527f676976656e204461746142617463682073686f756c6420626520415050524f5660408201527011510b08185b99081a5d081a5cc81b9bdd607a1b606082015260800190565b60208082526025908201527f72656365697665722072656a6563746564205f7265747269657665534675656c6040820152640818d85b1b60da1b606082015260800190565b60208082526030908201527f636f756c64206e6f742072657761726420746f6b656e20696e2056616c69646160408201526f3a32a230ba30a130ba31b4161018973160811b606082015260800190565b60208082526026908201527f4f776e61626c653a206e6577206f776e657220697320746865207a65726f206160408201526564647265737360d01b606082015260800190565b60208082526029908201527f6b206f72204e20617265206e6f74204f4b20647572696e672072616e646f6d2060408201526839b2b632b1ba34b7b760b91b606082015260800190565b6020808252602a908201527f4661696c20647572696e6720616c6c6f636174696f6e3a206e6f7420656e6f75604082015269676820776f726b65727360b01b606082015260800190565b6020808252601e908201527f636f6d6d697420706572696f64206e6565647320746f206265206f70656e0000604082015260600190565b60208082526023908201527f5265776172644d616e61676572206973206e756c6c20696e20506172616d657460408201526265727360e81b606082015260800190565b60208082526013908201527205f6d7941727261792e6c656e677468203e203606c1b604082015260600190565b60208082526038908201527f55736572206e6565647320746f20626520616c6c6f636174656420746f20746860408201527f697320626174636820746f20636f6d6d6974206f6e2069740000000000000000606082015260800190565b6020808252601d908201527f734675656c3a206e756c6c2041646472657373204e6f742056616c6964000000604082015260600190565b6020808252603f908201527f436f756c64206e6f74207265717565737420656e6f75676820616c6c6f63617460408201527f6564207374616b652c2072657175657374416c6c6f63617465645374616b6500606082015260800190565b6020808252602e908201527f636f756c64206e6f74207265776172642052455020696e2056616c696461746560408201526d4461746142617463682c20312e6160901b606082015260800190565b6020808252602f908201527f5573657220686173206e6f7420636f6d6d69746564206265666f72652c20746860408201526e1d5cc818d85b89dd081c995d99585b608a1b606082015260800190565b6020808252603b908201527f5f44617461426174636849645f656e64206d7573742065786973743a2074686560408201527f20696e7075742072616e6765206973206e6f7420636f72726563740000000000606082015260800190565b60208082526043908201527f576f726b657220686173206e6f7420656e6f75676820285f6e756d546f6b656e60408201527f732920696e206869732053797374656d5374616b6564546f6b656e42616c616e606082015262031b2960ed1b608082015260a00190565b60208082526039908201527f646c6c4d61703a20646f6573206e6f7420636f696e7461696e205f446174614260408201527f61746368496420666f7220746865206d73672073656e64657200000000000000606082015260800190565b6020808252602b908201527f75736572206d75737420686176652072657665616c656420696e20746869732060408201526a0ced2eccadc4084c2e8c6d60ab1b606082015260800190565b60208082526005908201526404e203e20360dc1b604082015260600190565b6020808252601490820152733737ba1030903b30b634b2103837b9b4ba34b7b760611b604082015260600190565b6020808252603b908201527f43616e277420616c6c6f6361746520776f726b2c207468652063757272656e7460408201527f20626174636820697320616c726561647920616c6c6f63617465640000000000606082015260800190565b6020808252602c908201527f576f726b6572206973206e6f74207265676973746572656420736f2063616e2760408201526b3a103ab73932b3b4b9ba32b960a11b606082015260800190565b6020808252600b908201526a04e5f72616e6765203e20360ac1b604082015260600190565b6020808252818101527f4f776e61626c653a2063616c6c6572206973206e6f7420746865206f776e6572604082015260600190565b6020808252601d908201527f5f44617461426174636849645f7374617274206d757374206578697374000000604082015260600190565b6020808252603a908201527f5f446174614261746368496420686173206e6f7420656e6465642c206f72206e60408201527f6f7420657665727920766f74657273206861766520766f746564000000000000606082015260800190565b6020808252603e908201527f436f756c64206e6f74206d6174636820656e637279707465642068617368202660408201527f20636c6561722068617368207769746820676976656e20696e707574732e0000606082015260800190565b60208082526022908201527f5374616b654d616e61676572206973206e756c6c20696e20506172616d657465604082015261727360f01b606082015260800190565b60208082526029908201527f6765744e756d50617373696e67546f6b656e733a20686173686573206d75737460408201526808189948195c5d585b60ba1b606082015260800190565b60208082526036908201527f43616e277420616c6c6f6361746520776f726b2c207468652063757272656e74604082015275206261746368206973206e6f7420636f6d706c65746560501b606082015260800190565b60208082526026908201527f52657665616c20706572696f64206e6f74206f70656e20666f7220746869732060408201526511185d18525160d21b606082015260800190565b60208082526027908201527f617661696c61626c65546f6b656e732073686f756c64206265203e3d205f6e756040820152666d546f6b656e7360c81b606082015260800190565b6020808252818101527f5265704d616e61676572206973206e756c6c20696e20506172616d6574657273604082015260600190565b60208082526017908201527f5f4461746142617463684964206d757374206578697374000000000000000000604082015260600190565b60208082526021908201527f5f446174614261746368496420697320616c72656164792076616c69646174656040820152601960fa1b606082015260800190565b60208082526029908201527f557365722068617320616c726561647920636f6d6d6974656420746f207468696040820152681cc818985d18da125960ba1b606082015260800190565b60208082526022908201527f4d6178696d756d207265676973746572656420776f726b65727320616c726561604082015261647960f01b606082015260800190565b60208082526037908201527f75736572206d757374206861766520656e6f75676820766f74696e672072696760408201527f68747320616b6120616c6c6f6361746564207374616b65000000000000000000606082015260800190565b6020808252606c908201527f5573657220686173206e6f7420766f746564206d616e792074696d657320696e60408201527f206120726f7720616e64206e6565647320746f2077616974204e4f564f54455f60608201527f524547495354524154494f4e5f574149545f4455524154494f4e20746f20726560808201526b33b4b9ba32b91030b3b0b4b760a11b60a082015260c00190565b6020808252602a908201527f5f446174614261746368496420636865636b696e6720766f7465206d757374206040820152691a185d9948195b99195960b21b606082015260800190565b6020808252603b908201527f436f756c64206e6f74207769746864726177566f74696e67526967687473207460408201527f68726f7567682050726f78795374616b654465616c6c6f636174650000000000606082015260800190565b60208082526024908201527f416464726573734d616e61676572206973206e756c6c20696e20506172616d656040820152637465727360e01b606082015260800190565b6020808252600f908201526e11185d18481b5d5cdd08195e1a5cdd608a1b604082015260600190565b6020808252602c908201527f557365722068617320616c72656164792072657665616c65642c20746875732060408201526b18d85b89dd081c995d99585b60a21b606082015260800190565b60208082526032908201527f5f44617461426174636849645f7374617274206d757374206265203c207468616040820152711b8817d1185d1850985d18da125917d95b9960721b606082015260800190565b60006020825282516020830152602083015160408301526040830151606083015260608301516080830152608083015160a083015260a083015161948560c08401826183b7565b5060c083015161949860e08401826183b7565b5060e08301516101006194ad818501836183b7565b840151610120848101919091528401516101408085019190915284015161016080850191909152840151610180808501919091528401516101c06101a0808601829052919250906195026101e08601846183bd565b90860151909250615719858301826183e9565b9182526020820152606060408201819052600a9082015269636f6d6d6974566f746560b01b608082015260a00190565b600083825282602083015260606040830152615ff76060830161840b565b6000848252836020830152608060408301526195816080830161840b565b9050826060830152949350505050565b600083825282602083015260606040830152615ff760608301618428565b60008482528360208301526080604083015261958160808301618428565b93845260208401929092526040830152606082015260800190565b60006020825282516080602084015261960460a08401826183bd565b905060018060a01b03602085015116604084015260408401516060840152606084015161963460808501826183e9565b509392505050565b9182526001600160a01b0316602082015260400190565b9182526001600160a01b031660208201526000604082015260600190565b9283526020830191909152604082015260600190565b60008f82528e60208301528d60408301528c60608301528b60808301528a151560a083015289151560c08301526196c160e083018a6183b7565b876101008301528661012083015285610140830152846101608301526101c06101808301526196f46101c08301856183bd565b90506197046101a08301846183e9565b9f9e505050505050505050505050505050565b6040518181016001600160401b03811182821017156197385761973861989b565b604052919050565b60006001600160401b038211156197595761975961989b565b50601f01601f191660200190565b60009081526020902090565b600082198211156197865761978661986f565b500190565b60008261979a5761979a619885565b500490565b60008160001904831182151516156197b9576197b961986f565b500290565b6000828210156197d0576197d061986f565b500390565b60005b838110156197f05781810151838201526020016197d8565b838111156197ff576000848401525b50505050565b60028104600182168061981957607f821691505b6020821081141561983a57634e487b7160e01b600052602260045260246000fd5b50919050565b60006000198214156198545761985461986f565b5060010190565b60008261986a5761986a619885565b500690565b634e487b7160e01b600052601160045260246000fd5b634e487b7160e01b600052601260045260246000fd5b634e487b7160e01b600052604160045260246000fd5b6001600160a01b038116811461126157600080fdfea26469706673582212207189f63f30297b96a7cf26814eab1f287b0fd91f8696df4f7d2ff9cf26f99e1464736f6c63430008000033",
  "linkReferences": {
    "contracts/worksystems/DataIndexing.sol": {
      "AttributeStore3": [
        {
          "length": 20,
          "start": 7136
        },
        {
          "length": 20,
          "start": 7242
        },
        {
          "length": 20,
          "start": 19000
        },
        {
          "length": 20,
          "start": 20871
        },
        {
          "length": 20,
          "start": 22356
        }
      ],
      "DLL3": [
        {
          "length": 20,
          "start": 5143
        },
        {
          "length": 20,
          "start": 5315
        },
        {
          "length": 20,
          "start": 6656
        },
        {
          "length": 20,
          "start": 6818
        },
        {
          "length": 20,
          "start": 7013
        },
        {
          "length": 20,
          "start": 7825
        },
        {
          "length": 20,
          "start": 11566
        },
        {
          "length": 20,
          "start": 19914
        },
        {
          "length": 20,
          "start": 20094
        }
      ]
    }
  },
  "deployedLinkReferences": {
    "contracts/worksystems/DataIndexing.sol": {
      "AttributeStore3": [
        {
          "length": 20,
          "start": 6803
        },
        {
          "length": 20,
          "start": 6909
        },
        {
          "length": 20,
          "start": 18667
        },
        {
          "length": 20,
          "start": 20538
        },
        {
          "length": 20,
          "start": 22023
        }
      ],
      "DLL3": [
        {
          "length": 20,
          "start": 4810
        },
        {
          "length": 20,
          "start": 4982
        },
        {
          "length": 20,
          "start": 6323
        },
        {
          "length": 20,
          "start": 6485
        },
        {
          "length": 20,
          "start": 6680
        },
        {
          "length": 20,
          "start": 7492
        },
        {
          "length": 20,
          "start": 11233
        },
        {
          "length": 20,
          "start": 19581
        },
        {
          "length": 20,
          "start": 19761
        }
      ]
    }
  }
}