{
  "_format": "hh-sol-artifact-1",
  "contractName": "Controller",
  "sourceName": "contracts/daostack/controller/Controller.sol",
  "abi": [
    {
      "inputs": [
        {
          "internalType": "contract Avatar",
          "name": "_avatar",
          "type": "address"
        }
      ],
      "stateMutability": "nonpayable",
      "type": "constructor"
    },
    {
      "anonymous": false,
      "inputs": [
        {
          "indexed": true,
          "internalType": "address",
          "name": "_globalConstraint",
          "type": "address"
        },
        {
          "indexed": false,
          "internalType": "bytes32",
          "name": "_params",
          "type": "bytes32"
        },
        {
          "indexed": false,
          "internalType": "enum GlobalConstraintInterface.CallPhase",
          "name": "_when",
          "type": "uint8"
        }
      ],
      "name": "AddGlobalConstraint",
      "type": "event"
    },
    {
      "anonymous": false,
      "inputs": [
        {
          "indexed": true,
          "internalType": "address",
          "name": "_sender",
          "type": "address"
        },
        {
          "indexed": true,
          "internalType": "address",
          "name": "_from",
          "type": "address"
        },
        {
          "indexed": false,
          "internalType": "uint256",
          "name": "_amount",
          "type": "uint256"
        }
      ],
      "name": "BurnReputation",
      "type": "event"
    },
    {
      "anonymous": false,
      "inputs": [
        {
          "indexed": true,
          "internalType": "address",
          "name": "_sender",
          "type": "address"
        },
        {
          "indexed": true,
          "internalType": "address",
          "name": "_to",
          "type": "address"
        },
        {
          "indexed": false,
          "internalType": "uint256",
          "name": "_amount",
          "type": "uint256"
        }
      ],
      "name": "MintReputation",
      "type": "event"
    },
    {
      "anonymous": false,
      "inputs": [
        {
          "indexed": true,
          "internalType": "address",
          "name": "_sender",
          "type": "address"
        },
        {
          "indexed": true,
          "internalType": "address",
          "name": "_scheme",
          "type": "address"
        }
      ],
      "name": "RegisterScheme",
      "type": "event"
    },
    {
      "anonymous": false,
      "inputs": [
        {
          "indexed": true,
          "internalType": "address",
          "name": "_globalConstraint",
          "type": "address"
        },
        {
          "indexed": false,
          "internalType": "uint256",
          "name": "_index",
          "type": "uint256"
        },
        {
          "indexed": false,
          "internalType": "bool",
          "name": "_isPre",
          "type": "bool"
        }
      ],
      "name": "RemoveGlobalConstraint",
      "type": "event"
    },
    {
      "anonymous": false,
      "inputs": [
        {
          "indexed": true,
          "internalType": "address",
          "name": "_sender",
          "type": "address"
        },
        {
          "indexed": true,
          "internalType": "address",
          "name": "_scheme",
          "type": "address"
        }
      ],
      "name": "UnregisterScheme",
      "type": "event"
    },
    {
      "anonymous": false,
      "inputs": [
        {
          "indexed": true,
          "internalType": "address",
          "name": "_oldController",
          "type": "address"
        },
        {
          "indexed": false,
          "internalType": "address",
          "name": "_newController",
          "type": "address"
        }
      ],
      "name": "UpgradeController",
      "type": "event"
    },
    {
      "inputs": [
        {
          "internalType": "address",
          "name": "_globalConstraint",
          "type": "address"
        },
        {
          "internalType": "bytes32",
          "name": "_params",
          "type": "bytes32"
        },
        {
          "internalType": "address",
          "name": "_avatar",
          "type": "address"
        }
      ],
      "name": "addGlobalConstraint",
      "outputs": [
        {
          "internalType": "bool",
          "name": "success",
          "type": "bool"
        }
      ],
      "stateMutability": "nonpayable",
      "type": "function"
    },
    {
      "inputs": [],
      "name": "avatar",
      "outputs": [
        {
          "internalType": "contract Avatar",
          "name": "",
          "type": "address"
        }
      ],
      "stateMutability": "view",
      "type": "function"
    },
    {
      "inputs": [
        {
          "internalType": "uint256",
          "name": "_amount",
          "type": "uint256"
        },
        {
          "internalType": "address",
          "name": "_from",
          "type": "address"
        },
        {
          "internalType": "address",
          "name": "_avatar",
          "type": "address"
        }
      ],
      "name": "burnReputation",
      "outputs": [
        {
          "internalType": "bool",
          "name": "",
          "type": "bool"
        }
      ],
      "stateMutability": "nonpayable",
      "type": "function"
    },
    {
      "inputs": [
        {
          "internalType": "contract IERC20",
          "name": "_externalToken",
          "type": "address"
        },
        {
          "internalType": "address",
          "name": "_spender",
          "type": "address"
        },
        {
          "internalType": "uint256",
          "name": "_value",
          "type": "uint256"
        },
        {
          "internalType": "contract Avatar",
          "name": "_avatar",
          "type": "address"
        }
      ],
      "name": "externalTokenApproval",
      "outputs": [
        {
          "internalType": "bool",
          "name": "success",
          "type": "bool"
        }
      ],
      "stateMutability": "nonpayable",
      "type": "function"
    },
    {
      "inputs": [
        {
          "internalType": "contract IERC20",
          "name": "_externalToken",
          "type": "address"
        },
        {
          "internalType": "address",
          "name": "_to",
          "type": "address"
        },
        {
          "internalType": "uint256",
          "name": "_value",
          "type": "uint256"
        },
        {
          "internalType": "contract Avatar",
          "name": "_avatar",
          "type": "address"
        }
      ],
      "name": "externalTokenTransfer",
      "outputs": [
        {
          "internalType": "bool",
          "name": "",
          "type": "bool"
        }
      ],
      "stateMutability": "nonpayable",
      "type": "function"
    },
    {
      "inputs": [
        {
          "internalType": "contract IERC20",
          "name": "_externalToken",
          "type": "address"
        },
        {
          "internalType": "address",
          "name": "_from",
          "type": "address"
        },
        {
          "internalType": "address",
          "name": "_to",
          "type": "address"
        },
        {
          "internalType": "uint256",
          "name": "_value",
          "type": "uint256"
        },
        {
          "internalType": "contract Avatar",
          "name": "_avatar",
          "type": "address"
        }
      ],
      "name": "externalTokenTransferFrom",
      "outputs": [
        {
          "internalType": "bool",
          "name": "success",
          "type": "bool"
        }
      ],
      "stateMutability": "nonpayable",
      "type": "function"
    },
    {
      "inputs": [
        {
          "internalType": "address",
          "name": "_contract",
          "type": "address"
        },
        {
          "internalType": "bytes",
          "name": "_data",
          "type": "bytes"
        },
        {
          "internalType": "contract Avatar",
          "name": "_avatar",
          "type": "address"
        },
        {
          "internalType": "uint256",
          "name": "_value",
          "type": "uint256"
        }
      ],
      "name": "genericCall",
      "outputs": [
        {
          "internalType": "bool",
          "name": "success",
          "type": "bool"
        },
        {
          "internalType": "bytes",
          "name": "data",
          "type": "bytes"
        }
      ],
      "stateMutability": "nonpayable",
      "type": "function"
    },
    {
      "inputs": [
        {
          "internalType": "address",
          "name": "_globalConstraint",
          "type": "address"
        },
        {
          "internalType": "address",
          "name": "",
          "type": "address"
        }
      ],
      "name": "getGlobalConstraintParameters",
      "outputs": [
        {
          "internalType": "bytes32",
          "name": "param",
          "type": "bytes32"
        }
      ],
      "stateMutability": "view",
      "type": "function"
    },
    {
      "inputs": [
        {
          "internalType": "address",
          "name": "_avatar",
          "type": "address"
        }
      ],
      "name": "getNativeReputation",
      "outputs": [
        {
          "internalType": "address",
          "name": "",
          "type": "address"
        }
      ],
      "stateMutability": "view",
      "type": "function"
    },
    {
      "inputs": [
        {
          "internalType": "uint256[11]",
          "name": "_params",
          "type": "uint256[11]"
        },
        {
          "internalType": "address",
          "name": "_voteOnBehalf",
          "type": "address"
        }
      ],
      "name": "getParametersHash",
      "outputs": [
        {
          "internalType": "bytes32",
          "name": "",
          "type": "bytes32"
        }
      ],
      "stateMutability": "pure",
      "type": "function"
    },
    {
      "inputs": [
        {
          "internalType": "address",
          "name": "_scheme",
          "type": "address"
        },
        {
          "internalType": "address",
          "name": "_avatar",
          "type": "address"
        }
      ],
      "name": "getSchemeParameters",
      "outputs": [
        {
          "internalType": "bytes32",
          "name": "",
          "type": "bytes32"
        }
      ],
      "stateMutability": "view",
      "type": "function"
    },
    {
      "inputs": [
        {
          "internalType": "address",
          "name": "_scheme",
          "type": "address"
        },
        {
          "internalType": "address",
          "name": "_avatar",
          "type": "address"
        }
      ],
      "name": "getSchemePermissions",
      "outputs": [
        {
          "internalType": "bytes4",
          "name": "",
          "type": "bytes4"
        }
      ],
      "stateMutability": "view",
      "type": "function"
    },
    {
      "inputs": [
        {
          "internalType": "address",
          "name": "_avatar",
          "type": "address"
        }
      ],
      "name": "globalConstraintsCount",
      "outputs": [
        {
          "internalType": "uint256",
          "name": "",
          "type": "uint256"
        },
        {
          "internalType": "uint256",
          "name": "",
          "type": "uint256"
        }
      ],
      "stateMutability": "view",
      "type": "function"
    },
    {
      "inputs": [
        {
          "internalType": "uint256",
          "name": "",
          "type": "uint256"
        }
      ],
      "name": "globalConstraintsPost",
      "outputs": [
        {
          "internalType": "address",
          "name": "gcAddress",
          "type": "address"
        },
        {
          "internalType": "bytes32",
          "name": "params",
          "type": "bytes32"
        }
      ],
      "stateMutability": "view",
      "type": "function"
    },
    {
      "inputs": [
        {
          "internalType": "uint256",
          "name": "",
          "type": "uint256"
        }
      ],
      "name": "globalConstraintsPre",
      "outputs": [
        {
          "internalType": "address",
          "name": "gcAddress",
          "type": "address"
        },
        {
          "internalType": "bytes32",
          "name": "params",
          "type": "bytes32"
        }
      ],
      "stateMutability": "view",
      "type": "function"
    },
    {
      "inputs": [
        {
          "internalType": "address",
          "name": "",
          "type": "address"
        }
      ],
      "name": "globalConstraintsRegisterPost",
      "outputs": [
        {
          "internalType": "bool",
          "name": "isRegistered",
          "type": "bool"
        },
        {
          "internalType": "uint256",
          "name": "index",
          "type": "uint256"
        }
      ],
      "stateMutability": "view",
      "type": "function"
    },
    {
      "inputs": [
        {
          "internalType": "address",
          "name": "",
          "type": "address"
        }
      ],
      "name": "globalConstraintsRegisterPre",
      "outputs": [
        {
          "internalType": "bool",
          "name": "isRegistered",
          "type": "bool"
        },
        {
          "internalType": "uint256",
          "name": "index",
          "type": "uint256"
        }
      ],
      "stateMutability": "view",
      "type": "function"
    },
    {
      "inputs": [
        {
          "internalType": "address",
          "name": "_globalConstraint",
          "type": "address"
        },
        {
          "internalType": "address",
          "name": "_avatar",
          "type": "address"
        }
      ],
      "name": "isGlobalConstraintRegistered",
      "outputs": [
        {
          "internalType": "bool",
          "name": "success",
          "type": "bool"
        }
      ],
      "stateMutability": "view",
      "type": "function"
    },
    {
      "inputs": [
        {
          "internalType": "address",
          "name": "_scheme",
          "type": "address"
        },
        {
          "internalType": "address",
          "name": "_avatar",
          "type": "address"
        }
      ],
      "name": "isSchemeRegistered",
      "outputs": [
        {
          "internalType": "bool",
          "name": "",
          "type": "bool"
        }
      ],
      "stateMutability": "view",
      "type": "function"
    },
    {
      "inputs": [
        {
          "internalType": "address",
          "name": "_stakingManagerAddress",
          "type": "address"
        },
        {
          "internalType": "address",
          "name": "_avatar",
          "type": "address"
        }
      ],
      "name": "isStakingManagerRegistered",
      "outputs": [
        {
          "internalType": "bool",
          "name": "success",
          "type": "bool"
        }
      ],
      "stateMutability": "view",
      "type": "function"
    },
    {
      "inputs": [
        {
          "internalType": "string",
          "name": "_metaData",
          "type": "string"
        },
        {
          "internalType": "contract Avatar",
          "name": "_avatar",
          "type": "address"
        }
      ],
      "name": "metaData",
      "outputs": [
        {
          "internalType": "bool",
          "name": "success",
          "type": "bool"
        }
      ],
      "stateMutability": "nonpayable",
      "type": "function"
    },
    {
      "inputs": [
        {
          "internalType": "uint256",
          "name": "_amount",
          "type": "uint256"
        },
        {
          "internalType": "address",
          "name": "_to",
          "type": "address"
        },
        {
          "internalType": "address",
          "name": "_avatar",
          "type": "address"
        }
      ],
      "name": "mintReputation",
      "outputs": [
        {
          "internalType": "bool",
          "name": "",
          "type": "bool"
        }
      ],
      "stateMutability": "nonpayable",
      "type": "function"
    },
    {
      "inputs": [],
      "name": "nativeReputation",
      "outputs": [
        {
          "internalType": "contract Reputation",
          "name": "",
          "type": "address"
        }
      ],
      "stateMutability": "view",
      "type": "function"
    },
    {
      "inputs": [],
      "name": "nativeToken",
      "outputs": [
        {
          "internalType": "contract DAOToken",
          "name": "",
          "type": "address"
        }
      ],
      "stateMutability": "view",
      "type": "function"
    },
    {
      "inputs": [],
      "name": "newController",
      "outputs": [
        {
          "internalType": "address",
          "name": "",
          "type": "address"
        }
      ],
      "stateMutability": "view",
      "type": "function"
    },
    {
      "inputs": [
        {
          "internalType": "address",
          "name": "_scheme",
          "type": "address"
        },
        {
          "internalType": "bytes32",
          "name": "_paramsHash",
          "type": "bytes32"
        },
        {
          "internalType": "bytes4",
          "name": "_permissions",
          "type": "bytes4"
        },
        {
          "internalType": "address",
          "name": "_avatar",
          "type": "address"
        }
      ],
      "name": "registerScheme",
      "outputs": [
        {
          "internalType": "bool",
          "name": "",
          "type": "bool"
        }
      ],
      "stateMutability": "nonpayable",
      "type": "function"
    },
    {
      "inputs": [
        {
          "internalType": "address",
          "name": "_globalConstraint",
          "type": "address"
        },
        {
          "internalType": "address",
          "name": "_avatar",
          "type": "address"
        }
      ],
      "name": "removeGlobalConstraint",
      "outputs": [
        {
          "internalType": "bool",
          "name": "success",
          "type": "bool"
        }
      ],
      "stateMutability": "nonpayable",
      "type": "function"
    },
    {
      "inputs": [
        {
          "internalType": "address",
          "name": "",
          "type": "address"
        }
      ],
      "name": "schemes",
      "outputs": [
        {
          "internalType": "bytes32",
          "name": "paramsHash",
          "type": "bytes32"
        },
        {
          "internalType": "bytes4",
          "name": "permissions",
          "type": "bytes4"
        }
      ],
      "stateMutability": "view",
      "type": "function"
    },
    {
      "inputs": [
        {
          "internalType": "uint256",
          "name": "_amountInWei",
          "type": "uint256"
        },
        {
          "internalType": "address payable",
          "name": "_to",
          "type": "address"
        },
        {
          "internalType": "contract Avatar",
          "name": "_avatar",
          "type": "address"
        }
      ],
      "name": "sendEther",
      "outputs": [
        {
          "internalType": "bool",
          "name": "",
          "type": "bool"
        }
      ],
      "stateMutability": "nonpayable",
      "type": "function"
    },
    {
      "inputs": [],
      "name": "stakingManagerAddress",
      "outputs": [
        {
          "internalType": "address",
          "name": "",
          "type": "address"
        }
      ],
      "stateMutability": "view",
      "type": "function"
    },
    {
      "inputs": [
        {
          "internalType": "address",
          "name": "_scheme",
          "type": "address"
        },
        {
          "internalType": "address",
          "name": "_avatar",
          "type": "address"
        }
      ],
      "name": "unregisterScheme",
      "outputs": [
        {
          "internalType": "bool",
          "name": "",
          "type": "bool"
        }
      ],
      "stateMutability": "nonpayable",
      "type": "function"
    },
    {
      "inputs": [
        {
          "internalType": "address",
          "name": "_avatar",
          "type": "address"
        }
      ],
      "name": "unregisterSelf",
      "outputs": [
        {
          "internalType": "bool",
          "name": "",
          "type": "bool"
        }
      ],
      "stateMutability": "nonpayable",
      "type": "function"
    },
    {
      "inputs": [
        {
          "internalType": "address",
          "name": "_newController",
          "type": "address"
        },
        {
          "internalType": "contract Avatar",
          "name": "_avatar",
          "type": "address"
        }
      ],
      "name": "upgradeController",
      "outputs": [
        {
          "internalType": "bool",
          "name": "success",
          "type": "bool"
        }
      ],
      "stateMutability": "nonpayable",
      "type": "function"
    },
    {
      "inputs": [
        {
          "internalType": "address",
          "name": "_newController",
          "type": "address"
        },
        {
          "internalType": "contract Avatar",
          "name": "_avatar",
          "type": "address"
        }
      ],
      "name": "upgradeRewardsManager",
      "outputs": [
        {
          "internalType": "bool",
          "name": "success",
          "type": "bool"
        }
      ],
      "stateMutability": "nonpayable",
      "type": "function"
    },
    {
      "inputs": [
        {
          "internalType": "address",
          "name": "_stakingManager",
          "type": "address"
        }
      ],
      "name": "upgradeStakingManager",
      "outputs": [
        {
          "internalType": "bool",
          "name": "",
          "type": "bool"
        }
      ],
      "stateMutability": "nonpayable",
      "type": "function"
    },
    {
      "stateMutability": "payable",
      "type": "receive"
    }
  ],
  "bytecode": "0x60806040523480156200001157600080fd5b5060405162003d1738038062003d178339810160408190526200003491620001de565b600180546001600160a01b0319166001600160a01b03831690811790915560408051631c2eb17b60e31b8152905163e1758bd891600480820192602092909190829003018186803b1580156200008957600080fd5b505afa1580156200009e573d6000803e3d6000fd5b505050506040513d601f19601f82011682018060405250810190620000c49190620001de565b600280546001600160a01b0319166001600160a01b039283161790556001546040805163089ae1c960e41b8152905191909216916389ae1c90916004808301926020929190829003018186803b1580156200011e57600080fd5b505afa15801562000133573d6000803e3d6000fd5b505050506040513d601f19601f82011682018060405250810190620001599190620001de565b600380546001600160a01b0319166001600160a01b0392909216919091179055506040805180820182526000808252601f60e01b6020808401918252338352829052929020905181559051600191909101805463ffffffff191660e09290921c91909117905562000205565b6001600160a01b0381168114620001db57600080fd5b50565b600060208284031215620001f157600080fd5b8151620001fe81620001c5565b9392505050565b613b0280620002156000396000f3fe6080604052600436106102085760003560e01c806389ae1c9011610118578063e08738da116100a0578063e8c98b221161006f578063e8c98b22146106cd578063ea7da6ea146106ed578063eaf994b21461070d578063f76488be1461072d578063fb4856a21461074d57600080fd5b8063e08738da1461064d578063e1758bd81461066d578063e4537a741461068d578063e869d45f146106ad57600080fd5b8063b9a04cdd116100e7578063b9a04cdd1461056a578063c9b62eb11461058a578063d1b7089a146105aa578063d22be043146105d8578063db6149ce146105f857600080fd5b806389ae1c90146104d15780638da03997146104f15780639b51e35a146105115780639be2faed1461054a57600080fd5b80634422d3721161019b578063634965da1161016a578063634965da146104025780636c525b13146104225780636e94d27814610442578063814784f614610462578063824f2f1f1461049c57600080fd5b80634422d372146103635780634f52b5be146103a257806351803cd8146103c25780635aef7de6146103e257600080fd5b80633132511b116101d75780633132511b146102eb57806337442d201461030b5780633a02263c1461032b57806342427bf81461030b57600080fd5b8063039de01d1461021757806307b4e1e31461024c578063177eebb01461027a5780631c4d5608146102cb57600080fd5b3661021257600080fd5b600080fd5b34801561022357600080fd5b5061023761023236600461343f565b61076d565b60405190151581526020015b60405180910390f35b34801561025857600080fd5b5061026c61026736600461348e565b610a7b565b604051908152602001610243565b34801561028657600080fd5b506102b461029536600461351c565b6008602052600090815260409020805460019091015460ff9091169082565b604080519215158352602083019190915201610243565b3480156102d757600080fd5b5061026c6102e636600461343f565b610b85565b3480156102f757600080fd5b5061023761030636600461343f565b610bc7565b34801561031757600080fd5b5061023761032636600461343f565b610c00565b34801561033757600080fd5b5060055461034b906001600160a01b031681565b6040516001600160a01b039091168152602001610243565b34801561036f57600080fd5b5061038361037e366004613540565b610f5f565b604080516001600160a01b039093168352602083019190915201610243565b3480156103ae57600080fd5b506102376103bd36600461343f565b610f97565b3480156103ce57600080fd5b506102376103dd366004613559565b611458565b3480156103ee57600080fd5b5060015461034b906001600160a01b031681565b34801561040e57600080fd5b5061023761041d3660046135ac565b611748565b34801561042e57600080fd5b5061023761043d36600461351c565b611a1b565b34801561044e57600080fd5b5061023761045d3660046135ac565b611aa2565b34801561046e57600080fd5b506102b461047d36600461351c565b6009602052600090815260409020805460019091015460ff9091169082565b3480156104a857600080fd5b506104bc6104b736600461351c565b611db1565b60408051928352602083019190915201610243565b3480156104dd57600080fd5b5060035461034b906001600160a01b031681565b3480156104fd57600080fd5b5061034b61050c36600461351c565b611de3565b34801561051d57600080fd5b5061053161052c36600461343f565b611e15565b6040516001600160e01b03199091168152602001610243565b34801561055657600080fd5b5061023761056536600461343f565b611e58565b34801561057657600080fd5b50610237610585366004613559565b611e80565b34801561059657600080fd5b506102376105a5366004613637565b61215e565b3480156105b657600080fd5b506105ca6105c5366004613683565b61222f565b604051610243929190613723565b3480156105e457600080fd5b506102376105f336600461351c565b612512565b34801561060457600080fd5b5061062f61061336600461351c565b6000602081905290815260409020805460019091015460e01b82565b604080519283526001600160e01b0319909116602083015201610243565b34801561065957600080fd5b5061026c61066836600461343f565b61255e565b34801561067957600080fd5b5060025461034b906001600160a01b031681565b34801561069957600080fd5b506102376106a836600461375f565b612625565b3480156106b957600080fd5b506102376106c8366004613796565b612a3d565b3480156106d957600080fd5b506103836106e8366004613540565b612d79565b3480156106f957600080fd5b5060045461034b906001600160a01b031681565b34801561071957600080fd5b506102376107283660046135ac565b612d89565b34801561073957600080fd5b5061023761074836600461343f565b613098565b34801561075957600080fd5b506102376107683660046137eb565b6130fa565b3360009081526020819052604081206001015460e01b600160e11b9081161461079557600080fd5b6f756e7265676973746572536368656d6560801b60005b6006548110156108a057600681815481106107c9576107c9613853565b6000918252602090912060029091020154600680546001600160a01b039092169163c1786ab29133918590811061080257610802613853565b906000526020600020906002020160010154856040518463ffffffff1660e01b815260040161083393929190613869565b602060405180830381600087803b15801561084d57600080fd5b505af1158015610861573d6000803e3d6000fd5b505050506040513d601f19601f82011682018060405250810190610885919061389a565b61088e57600080fd5b80610898816138cb565b9150506107ac565b60015484906001600160a01b038083169116146108bc57600080fd5b6108c5866133f3565b6108d25760009350610979565b336000908152602081905260408082206001908101546001600160a01b038a168452919092209091015460e091821b19911b16601f60e01b161561091557600080fd5b6040516001600160a01b0387169033907f10bb2cf04cb8b902a8e736d494f1a51003be6d4b16ef6fb95ce62c38445023bf90600090a36001600160a01b03861660009081526020819052604081209081556001908101805463ffffffff1916905593505b50600090505b600754811015610a73576007818154811061099c5761099c613853565b6000918252602090912060029091020154600780546001600160a01b0390921691638043154d913391859081106109d5576109d5613853565b906000526020600020906002020160010154856040518463ffffffff1660e01b8152600401610a0693929190613869565b602060405180830381600087803b158015610a2057600080fd5b505af1158015610a34573d6000803e3d6000fd5b505050506040513d601f19601f82011682018060405250810190610a58919061389a565b610a6157600080fd5b80610a6b816138cb565b91505061097f565b505092915050565b60008281602002015183600160200201518460026020020151856003602002015186600460200201518760056020020151886006602002015189600760200201518a600860200201518b600960200201518c600a60209081029190910151604080519283019c909c529a8101999099526060890197909752608088019590955260a087019390935260c086019190915260e08501526101008401526101208301526101408201526101608101919091526101800160408051601f198184030181528282528051602091820120908301526bffffffffffffffffffffffff19606085901b16908201526054016040516020818303038152906040528051906020012090505b92915050565b60015460009082906001600160a01b03808316911614610ba457600080fd5b6001600160a01b03841660009081526020819052604090205491505b5092915050565b60015460009082906001600160a01b03808316911614610be657600080fd5b6004546001600160a01b038581169116145b949350505050565b3360009081526020819052604081206001015460e01b600160e31b90811614610c2857600080fd5b60015482906001600160a01b03808316911614610c4457600080fd5b6005546001600160a01b031615610c5a57600080fd5b6001600160a01b038416610c6d57600080fd5b600580546001600160a01b0319166001600160a01b0386811691821790925560015460405163f2fde38b60e01b815260048101929092529091169063f2fde38b90602401600060405180830381600087803b158015610ccb57600080fd5b505af1158015610cdf573d6000803e3d6000fd5b50505050836001600160a01b0316600160009054906101000a90046001600160a01b03166001600160a01b0316638da5cb5b6040518163ffffffff1660e01b815260040160206040518083038186803b158015610d3b57600080fd5b505afa158015610d4f573d6000803e3d6000fd5b505050506040513d601f19601f82011682018060405250810190610d7391906138e6565b6001600160a01b031614610d8657600080fd5b60035460408051638da5cb5b60e01b8152905130926001600160a01b031691638da5cb5b916004808301926020929190829003018186803b158015610dca57600080fd5b505afa158015610dde573d6000803e3d6000fd5b505050506040513d601f19601f82011682018060405250810190610e0291906138e6565b6001600160a01b03161415610f135760035460405163f2fde38b60e01b81526001600160a01b0386811660048301529091169063f2fde38b90602401600060405180830381600087803b158015610e5857600080fd5b505af1158015610e6c573d6000803e3d6000fd5b50505050836001600160a01b0316600360009054906101000a90046001600160a01b03166001600160a01b0316638da5cb5b6040518163ffffffff1660e01b815260040160206040518083038186803b158015610ec857600080fd5b505afa158015610edc573d6000803e3d6000fd5b505050506040513d601f19601f82011682018060405250810190610f0091906138e6565b6001600160a01b031614610f1357600080fd5b6005546040516001600160a01b03909116815230907fdb7cbacf8df312d794506c0cc9af07f64d29ca075796ea2e950a3832cc9a63dd9060200160405180910390a25060019392505050565b60068181548110610f6f57600080fd5b6000918252602090912060029091020180546001909101546001600160a01b03909116915082565b3360009081526020819052604081206001015460e01b600160e21b90811614610fbf57600080fd5b60015482906001600160a01b03808316911614610fdb57600080fd5b604080518082019091526000808252602082015260408051808201909152600080825260208201526000866001600160a01b031663e2b0caef6040518163ffffffff1660e01b8152600401602060405180830381600087803b15801561104057600080fd5b505af1158015611054573d6000803e3d6000fd5b505050506040513d601f19601f820116820180604052508101906110789190613903565b905060008082600281111561108f5761108f613924565b14806110ac575060028260028111156110aa576110aa613924565b145b15611232576001600160a01b0388166000908152600860209081526040918290208251808401909352805460ff16158015845260019091015491830191909152909450611232576006546111029060019061393a565b846020015110156111cb576006805461111d9060019061393a565b8154811061112d5761112d613853565b60009182526020918290206040805180820190915260029092020180546001600160a01b03168252600101548183015290850151600680549295508592909190811061117b5761117b613853565b6000918252602080832084516002939093020180546001600160a01b0319166001600160a01b03938416178155938101516001948501558781015187519092168352600890526040909120909101555b60068054806111dc576111dc613951565b6000828152602080822060026000199094019384020180546001600160a01b03191681556001908101839055929093556001600160a01b038b168152600890925260408220805460ff1916815581019190915590505b600182600281111561124657611246613924565b14806112635750600282600281111561126157611261613924565b145b156113e9576001600160a01b0388166000908152600960209081526040918290208251808401909352805460ff161580158452600190910154918301919091529094506113e9576007546112b99060019061393a565b8460200151101561138257600780546112d49060019061393a565b815481106112e4576112e4613853565b60009182526020918290206040805180820190915260029092020180546001600160a01b03168252600101548183015290850151600780549295508592909190811061133257611332613853565b6000918252602080832084516002939093020180546001600160a01b0319166001600160a01b03938416178155938101516001948501558781015187519092168352600990526040909120909101555b600680548061139357611393613951565b6000828152602080822060026000199094019384020180546001600160a01b03191681556001908101839055929093556001600160a01b038b168152600990925260408220805460ff1916815581019190915590505b801561144d5760208401516001600160a01b038916907fcdf1a50ea6b7de555bd409f8a4a53ea43c6dc6b4caa961889da9e005f21bbaa990600085600281111561143557611435613924565b60408051938452911460208301520160405180910390a25b979650505050505050565b3360009081526020819052604081206001015460e01b600160e01b9081161461148057600080fd5b7f65787465726e616c546f6b656e496e637265617365417070726f76616c00000060005b60065481101561159857600681815481106114c1576114c1613853565b6000918252602090912060029091020154600680546001600160a01b039092169163c1786ab2913391859081106114fa576114fa613853565b906000526020600020906002020160010154856040518463ffffffff1660e01b815260040161152b93929190613869565b602060405180830381600087803b15801561154557600080fd5b505af1158015611559573d6000803e3d6000fd5b505050506040513d601f19601f8201168201806040525081019061157d919061389a565b61158657600080fd5b80611590816138cb565b9150506114a4565b60015484906001600160a01b038083169116146115b457600080fd5b60015460405163ab751f7160e01b81526001600160a01b038a811660048301528981166024830152604482018990529091169063ab751f7190606401602060405180830381600087803b15801561160a57600080fd5b505af115801561161e573d6000803e3d6000fd5b505050506040513d601f19601f82011682018060405250810190611642919061389a565b935050600090505b60075481101561173e576007818154811061166757611667613853565b6000918252602090912060029091020154600780546001600160a01b0390921691638043154d913391859081106116a0576116a0613853565b906000526020600020906002020160010154856040518463ffffffff1660e01b81526004016116d193929190613869565b602060405180830381600087803b1580156116eb57600080fd5b505af11580156116ff573d6000803e3d6000fd5b505050506040513d601f19601f82011682018060405250810190611723919061389a565b61172c57600080fd5b80611736816138cb565b91505061164a565b5050949350505050565b3360009081526020819052604081206001015460e01b600160e01b9081161461177057600080fd5b6839b2b73222ba3432b960b91b60005b600654811015611874576006818154811061179d5761179d613853565b6000918252602090912060029091020154600680546001600160a01b039092169163c1786ab2913391859081106117d6576117d6613853565b906000526020600020906002020160010154856040518463ffffffff1660e01b815260040161180793929190613869565b602060405180830381600087803b15801561182157600080fd5b505af1158015611835573d6000803e3d6000fd5b505050506040513d601f19601f82011682018060405250810190611859919061389a565b61186257600080fd5b8061186c816138cb565b915050611780565b60015484906001600160a01b0380831691161461189057600080fd5b60015460405163658b6a5160e11b8152600481018990526001600160a01b0388811660248301529091169063cb16d4a290604401602060405180830381600087803b1580156118de57600080fd5b505af11580156118f2573d6000803e3d6000fd5b505050506040513d601f19601f82011682018060405250810190611916919061389a565b935050600090505b600754811015611a12576007818154811061193b5761193b613853565b6000918252602090912060029091020154600780546001600160a01b0390921691638043154d9133918590811061197457611974613853565b906000526020600020906002020160010154856040518463ffffffff1660e01b81526004016119a593929190613869565b602060405180830381600087803b1580156119bf57600080fd5b505af11580156119d3573d6000803e3d6000fd5b505050506040513d601f19601f820116820180604052508101906119f7919061389a565b611a0057600080fd5b80611a0a816138cb565b91505061191e565b50509392505050565b60015460009082906001600160a01b03808316911614611a3a57600080fd5b611a43336133f3565b611a505760009150611a9c565b33600081815260208190526040808220828155600101805463ffffffff191690555182917f10bb2cf04cb8b902a8e736d494f1a51003be6d4b16ef6fb95ce62c38445023bf91a3600191505b50919050565b3360009081526020819052604081206001015460e01b600160e01b90811614611aca57600080fd5b6d313ab9372932b83aba30ba34b7b760911b60005b600654811015611bd35760068181548110611afc57611afc613853565b6000918252602090912060029091020154600680546001600160a01b039092169163c1786ab291339185908110611b3557611b35613853565b906000526020600020906002020160010154856040518463ffffffff1660e01b8152600401611b6693929190613869565b602060405180830381600087803b158015611b8057600080fd5b505af1158015611b94573d6000803e3d6000fd5b505050506040513d601f19601f82011682018060405250810190611bb8919061389a565b611bc157600080fd5b80611bcb816138cb565b915050611adf565b60015484906001600160a01b03808316911614611bef57600080fd5b6040518781526001600160a01b0387169033907f186d8887e1b22f9d9b16849c36baa748950d09d9c9b67a4a6ea140eaad00c21c9060200160405180910390a3600354604051632770a7eb60e21b81526001600160a01b038881166004830152602482018a905290911690639dc29fac90604401602060405180830381600087803b158015611c7d57600080fd5b505af1158015611c91573d6000803e3d6000fd5b505050506040513d601f19601f82011682018060405250810190611cb5919061389a565b935050600090505b600754811015611a125760078181548110611cda57611cda613853565b6000918252602090912060029091020154600780546001600160a01b0390921691638043154d91339185908110611d1357611d13613853565b906000526020600020906002020160010154856040518463ffffffff1660e01b8152600401611d4493929190613869565b602060405180830381600087803b158015611d5e57600080fd5b505af1158015611d72573d6000803e3d6000fd5b505050506040513d601f19601f82011682018060405250810190611d96919061389a565b611d9f57600080fd5b80611da9816138cb565b915050611cbd565b600154600090819083906001600160a01b03808316911614611dd257600080fd5b600654600754909350915050915091565b60015460009082906001600160a01b03808316911614611e0257600080fd5b50506003546001600160a01b0316919050565b60015460009082906001600160a01b03808316911614611e3457600080fd5b5050506001600160a01b031660009081526020819052604090206001015460e01b90565b60015460009082906001600160a01b03808316911614611e7757600080fd5b610bf8846133f3565b3360009081526020819052604081206001015460e01b600160e01b90811614611ea857600080fd5b7432bc3a32b93730b62a37b5b2b72a3930b739b332b960591b60005b600654811015611fb85760068181548110611ee157611ee1613853565b6000918252602090912060029091020154600680546001600160a01b039092169163c1786ab291339185908110611f1a57611f1a613853565b906000526020600020906002020160010154856040518463ffffffff1660e01b8152600401611f4b93929190613869565b602060405180830381600087803b158015611f6557600080fd5b505af1158015611f79573d6000803e3d6000fd5b505050506040513d601f19601f82011682018060405250810190611f9d919061389a565b611fa657600080fd5b80611fb0816138cb565b915050611ec4565b60015484906001600160a01b03808316911614611fd457600080fd5b60015460405163dab0efff60e01b81526001600160a01b038a811660048301528981166024830152604482018990529091169063dab0efff90606401602060405180830381600087803b15801561202a57600080fd5b505af115801561203e573d6000803e3d6000fd5b505050506040513d601f19601f82011682018060405250810190612062919061389a565b935050600090505b60075481101561173e576007818154811061208757612087613853565b6000918252602090912060029091020154600780546001600160a01b0390921691638043154d913391859081106120c0576120c0613853565b906000526020600020906002020160010154856040518463ffffffff1660e01b81526004016120f193929190613869565b602060405180830381600087803b15801561210b57600080fd5b505af115801561211f573d6000803e3d6000fd5b505050506040513d601f19601f82011682018060405250810190612143919061389a565b61214c57600080fd5b80612156816138cb565b91505061206a565b3360009081526020819052604081206001015460e01b600160e41b9081161461218657600080fd5b60015482906001600160a01b038083169116146121a257600080fd5b600154604051632242b11b60e21b81526001600160a01b039091169063890ac46c906121d49088908890600401613990565b602060405180830381600087803b1580156121ee57600080fd5b505af1158015612202573d6000803e3d6000fd5b505050506040513d601f19601f82011682018060405250810190612226919061389a565b95945050505050565b3360009081526020819052604081206001015460609060e01b600160e41b9081161461225a57600080fd5b6a19d95b995c9a58d0d85b1b60aa1b60005b600654811015612360576006818154811061228957612289613853565b6000918252602090912060029091020154600680546001600160a01b039092169163c1786ab2913391859081106122c2576122c2613853565b906000526020600020906002020160010154856040518463ffffffff1660e01b81526004016122f393929190613869565b602060405180830381600087803b15801561230d57600080fd5b505af1158015612321573d6000803e3d6000fd5b505050506040513d601f19601f82011682018060405250810190612345919061389a565b61234e57600080fd5b80612358816138cb565b91505061226c565b60015486906001600160a01b0380831691161461237c57600080fd5b60015460405163057e2c8b60e31b81526001600160a01b0390911690632bf16458906123b2908d908d908d908c906004016139a4565b600060405180830381600087803b1580156123cc57600080fd5b505af11580156123e0573d6000803e3d6000fd5b505050506040513d6000823e601f3d908101601f1916820160405261240891908101906139da565b9450945050600090505b600754811015612506576007818154811061242f5761242f613853565b6000918252602090912060029091020154600780546001600160a01b0390921691638043154d9133918590811061246857612468613853565b906000526020600020906002020160010154856040518463ffffffff1660e01b815260040161249993929190613869565b602060405180830381600087803b1580156124b357600080fd5b505af11580156124c7573d6000803e3d6000fd5b505050506040513d601f19601f820116820180604052508101906124eb919061389a565b6124f457600080fd5b806124fe816138cb565b915050612412565b50509550959350505050565b3360009081526020819052604081206001015460e01b600160e31b9081161461253a57600080fd5b50600480546001600160a01b0319166001600160a01b03831617905560015b919050565b6001600160a01b03821660009081526008602090815260408083208151808301909252805460ff16158015835260019091015492820192909252906125ce5760068160200151815481106125b4576125b4613853565b906000526020600020906002020160010154915050610b7f565b506001600160a01b0383166000908152600960209081526040918290208251808401909352805460ff16158015845260019091015491830191909152610bc05760078160200151815481106125b4576125b4613853565b3360009081526020819052604081206001015460e01b600160e21b9081161461264d57600080fd5b60015482906001600160a01b0380831691161461266957600080fd5b6000856001600160a01b031663e2b0caef6040518163ffffffff1660e01b8152600401602060405180830381600087803b1580156126a657600080fd5b505af11580156126ba573d6000803e3d6000fd5b505050506040513d601f19601f820116820180604052508101906126de9190613903565b905060008160028111156126f4576126f4613924565b14806127115750600281600281111561270f5761270f613924565b145b15612867576001600160a01b03861660009081526008602052604090205460ff16612820576040805180820182526001600160a01b03888116825260208083018981526006805460018082018355600083905295517ff652222313e28459528d920b65115c16c04f3efc82aaedc97be59f3f377c0d3f600290920291820180546001600160a01b031916919096161790945590517ff652222313e28459528d920b65115c16c04f3efc82aaedc97be59f3f377c0d409093019290925583518085019094528284529054908301916127e79161393a565b90526001600160a01b03871660009081526008602090815260409091208251815460ff1916901515178155910151600190910155612867565b6001600160a01b03861660009081526008602052604090206001015460068054879290811061285157612851613853565b9060005260206000209060020201600101819055505b600181600281111561287b5761287b613924565b14806128985750600281600281111561289657612896613924565b145b156129ee576001600160a01b03861660009081526009602052604090205460ff166129a7576040805180820182526001600160a01b03888116825260208083018981526007805460018082018355600083905295517fa66cc928b5edb82af9bd49922954155ab7b0942694bea4ce44661d9a8736c688600290920291820180546001600160a01b031916919096161790945590517fa66cc928b5edb82af9bd49922954155ab7b0942694bea4ce44661d9a8736c68990930192909255835180850190945282845290549083019161296e9161393a565b90526001600160a01b03871660009081526009602090815260409091208251815460ff19169015151781559101516001909101556129ee565b6001600160a01b0386166000908152600960205260409020600101546007805487929081106129d8576129d8613853565b9060005260206000209060020201600101819055505b856001600160a01b03167f78800d7333b8d0174a0845569e3913b7ce4a3c03ca444dd9904172fc14f2fdad8683604051612a29929190613a9a565b60405180910390a250600195945050505050565b3360009081526020819052604081206001015460e01b600160e11b90811614612a6557600080fd5b6d7265676973746572536368656d6560901b60005b600654811015612b6e5760068181548110612a9757612a97613853565b6000918252602090912060029091020154600680546001600160a01b039092169163c1786ab291339185908110612ad057612ad0613853565b906000526020600020906002020160010154856040518463ffffffff1660e01b8152600401612b0193929190613869565b602060405180830381600087803b158015612b1b57600080fd5b505af1158015612b2f573d6000803e3d6000fd5b505050506040513d601f19601f82011682018060405250810190612b53919061389a565b612b5c57600080fd5b80612b66816138cb565b915050612a7a565b60015484906001600160a01b03808316911614612b8a57600080fd5b6001600160a01b03881660009081526020818152604080832081518083018352815481526001918201546001600160e01b031960e091821b16828601908152338752948690529290942001549151891891901b1916601f60e01b1615612bef57600080fd5b336000908152602081815260409091206001015490820151601f60e01b60e09290921b19161615612c1f57600080fd5b6001600160a01b0389166000818152602081905260408082208b8155600101805463ffffffff1916600160e01b8c1760e01c1790555133917f546816e99403df442acb68ef69562682a50762c20a3fb6b472f7af9923736cfc91a3600194505050600090505b60075481101561173e5760078181548110612ca257612ca2613853565b6000918252602090912060029091020154600780546001600160a01b0390921691638043154d91339185908110612cdb57612cdb613853565b906000526020600020906002020160010154856040518463ffffffff1660e01b8152600401612d0c93929190613869565b602060405180830381600087803b158015612d2657600080fd5b505af1158015612d3a573d6000803e3d6000fd5b505050506040513d601f19601f82011682018060405250810190612d5e919061389a565b612d6757600080fd5b80612d71816138cb565b915050612c85565b60078181548110610f6f57600080fd5b3360009081526020819052604081206001015460e01b600160e01b90811614612db157600080fd5b6d36b4b73a2932b83aba30ba34b7b760911b60005b600654811015612eba5760068181548110612de357612de3613853565b6000918252602090912060029091020154600680546001600160a01b039092169163c1786ab291339185908110612e1c57612e1c613853565b906000526020600020906002020160010154856040518463ffffffff1660e01b8152600401612e4d93929190613869565b602060405180830381600087803b158015612e6757600080fd5b505af1158015612e7b573d6000803e3d6000fd5b505050506040513d601f19601f82011682018060405250810190612e9f919061389a565b612ea857600080fd5b80612eb2816138cb565b915050612dc6565b60015484906001600160a01b03808316911614612ed657600080fd5b6040518781526001600160a01b0387169033907f837f2931e3df0592458212be4e470025f197feb7a8e39deb5b7f1f1d42e6f2629060200160405180910390a36003546040516340c10f1960e01b81526001600160a01b038881166004830152602482018a9052909116906340c10f1990604401602060405180830381600087803b158015612f6457600080fd5b505af1158015612f78573d6000803e3d6000fd5b505050506040513d601f19601f82011682018060405250810190612f9c919061389a565b935050600090505b600754811015611a125760078181548110612fc157612fc1613853565b6000918252602090912060029091020154600780546001600160a01b0390921691638043154d91339185908110612ffa57612ffa613853565b906000526020600020906002020160010154856040518463ffffffff1660e01b815260040161302b93929190613869565b602060405180830381600087803b15801561304557600080fd5b505af1158015613059573d6000803e3d6000fd5b505050506040513d601f19601f8201168201806040525081019061307d919061389a565b61308657600080fd5b80613090816138cb565b915050612fa4565b60015460009082906001600160a01b038083169116146130b757600080fd5b6001600160a01b03841660009081526008602052604090205460ff1680610bf857505050506001600160a01b031660009081526009602052604090205460ff1690565b3360009081526020819052604081206001015460e01b600160e01b9081161461312257600080fd5b7f65787465726e616c546f6b656e5472616e7366657246726f6d0000000000000060005b60065481101561323a576006818154811061316357613163613853565b6000918252602090912060029091020154600680546001600160a01b039092169163c1786ab29133918590811061319c5761319c613853565b906000526020600020906002020160010154856040518463ffffffff1660e01b81526004016131cd93929190613869565b602060405180830381600087803b1580156131e757600080fd5b505af11580156131fb573d6000803e3d6000fd5b505050506040513d601f19601f8201168201806040525081019061321f919061389a565b61322857600080fd5b80613232816138cb565b915050613146565b60015484906001600160a01b0380831691161461325657600080fd5b600154604051635bab6ad160e11b81526001600160a01b038b811660048301528a811660248301528981166044830152606482018990529091169063b756d5a290608401602060405180830381600087803b1580156132b457600080fd5b505af11580156132c8573d6000803e3d6000fd5b505050506040513d601f19601f820116820180604052508101906132ec919061389a565b935050600090505b6007548110156133e8576007818154811061331157613311613853565b6000918252602090912060029091020154600780546001600160a01b0390921691638043154d9133918590811061334a5761334a613853565b906000526020600020906002020160010154856040518463ffffffff1660e01b815260040161337b93929190613869565b602060405180830381600087803b15801561339557600080fd5b505af11580156133a9573d6000803e3d6000fd5b505050506040513d601f19601f820116820180604052508101906133cd919061389a565b6133d657600080fd5b806133e0816138cb565b9150506132f4565b505095945050505050565b6001600160a01b031660009081526020819052604090206001015460e01b600160e01b16151590565b6001600160a01b038116811461343157600080fd5b50565b80356125598161341c565b6000806040838503121561345257600080fd5b823561345d8161341c565b9150602083013561346d8161341c565b809150509250929050565b634e487b7160e01b600052604160045260246000fd5b60008061018083850312156134a257600080fd5b83601f8401126134b157600080fd5b60405161016080820182811067ffffffffffffffff821117156134d6576134d6613478565b604052840181868211156134e957600080fd5b855b828110156135035780358252602091820191016134eb565b505081935061351181613434565b925050509250929050565b60006020828403121561352e57600080fd5b81356135398161341c565b9392505050565b60006020828403121561355257600080fd5b5035919050565b6000806000806080858703121561356f57600080fd5b843561357a8161341c565b9350602085013561358a8161341c565b92506040850135915060608501356135a18161341c565b939692955090935050565b6000806000606084860312156135c157600080fd5b8335925060208401356135d38161341c565b915060408401356135e38161341c565b809150509250925092565b60008083601f84011261360057600080fd5b50813567ffffffffffffffff81111561361857600080fd5b60208301915083602082850101111561363057600080fd5b9250929050565b60008060006040848603121561364c57600080fd5b833567ffffffffffffffff81111561366357600080fd5b61366f868287016135ee565b90945092505060208401356135e38161341c565b60008060008060006080868803121561369b57600080fd5b85356136a68161341c565b9450602086013567ffffffffffffffff8111156136c257600080fd5b6136ce888289016135ee565b90955093505060408601356136e28161341c565b949793965091946060013592915050565b60005b8381101561370e5781810151838201526020016136f6565b8381111561371d576000848401525b50505050565b8215158152604060208201526000825180604084015261374a8160608501602087016136f3565b601f01601f1916919091016060019392505050565b60008060006060848603121561377457600080fd5b833561377f8161341c565b92506020840135915060408401356135e38161341c565b600080600080608085870312156137ac57600080fd5b84356137b78161341c565b93506020850135925060408501356001600160e01b0319811681146137db57600080fd5b915060608501356135a18161341c565b600080600080600060a0868803121561380357600080fd5b853561380e8161341c565b9450602086013561381e8161341c565b9350604086013561382e8161341c565b92506060860135915060808601356138458161341c565b809150509295509295909350565b634e487b7160e01b600052603260045260246000fd5b6001600160a01b039390931683526020830191909152604082015260600190565b8051801515811461255957600080fd5b6000602082840312156138ac57600080fd5b6135398261388a565b634e487b7160e01b600052601160045260246000fd5b60006000198214156138df576138df6138b5565b5060010190565b6000602082840312156138f857600080fd5b81516135398161341c565b60006020828403121561391557600080fd5b81516003811061353957600080fd5b634e487b7160e01b600052602160045260246000fd5b60008282101561394c5761394c6138b5565b500390565b634e487b7160e01b600052603160045260246000fd5b81835281816020850137506000828201602090810191909152601f909101601f19169091010190565b602081526000610bf8602083018486613967565b6001600160a01b03851681526060602082018190526000906139c99083018587613967565b905082604083015295945050505050565b600080604083850312156139ed57600080fd5b6139f68361388a565b9150602083015167ffffffffffffffff80821115613a1357600080fd5b818501915085601f830112613a2757600080fd5b815181811115613a3957613a39613478565b604051601f8201601f19908116603f01168101908382118183101715613a6157613a61613478565b81604052828152886020848701011115613a7a57600080fd5b613a8b8360208301602088016136f3565b80955050505050509250929050565b8281526040810160038310613abf57634e487b7160e01b600052602160045260246000fd5b826020830152939250505056fea26469706673582212204a1f254043560e1e00294b9fbc86c7e8bf8ef99bc8d9132b69f0f9fd385d215a64736f6c63430008080033",
  "linkReferences": {},
  "deployedLinkReferences": {}
}