{
  "_format": "hh-sol-artifact-1",
  "contractName": "AddressManager",
  "sourceName": "contracts/worksystems/AddressManager.sol",
  "abi": [
    {
      "anonymous": false,
      "inputs": [
        {
          "indexed": true,
          "internalType": "address",
          "name": "account",
          "type": "address"
        },
        {
          "indexed": false,
          "internalType": "address",
          "name": "account2",
          "type": "address"
        }
      ],
      "name": "AddressAddedByMaster",
      "type": "event"
    },
    {
      "anonymous": false,
      "inputs": [
        {
          "indexed": true,
          "internalType": "address",
          "name": "account",
          "type": "address"
        },
        {
          "indexed": false,
          "internalType": "address",
          "name": "account2",
          "type": "address"
        }
      ],
      "name": "AddressAddedByWorker",
      "type": "event"
    },
    {
      "anonymous": false,
      "inputs": [
        {
          "indexed": true,
          "internalType": "address",
          "name": "account",
          "type": "address"
        },
        {
          "indexed": false,
          "internalType": "address",
          "name": "account2",
          "type": "address"
        }
      ],
      "name": "AddressRemovedByMaster",
      "type": "event"
    },
    {
      "anonymous": false,
      "inputs": [
        {
          "indexed": true,
          "internalType": "address",
          "name": "account",
          "type": "address"
        },
        {
          "indexed": false,
          "internalType": "address",
          "name": "account2",
          "type": "address"
        }
      ],
      "name": "AddressRemovedByWorker",
      "type": "event"
    },
    {
      "anonymous": false,
      "inputs": [
        {
          "indexed": true,
          "internalType": "address",
          "name": "previousOwner",
          "type": "address"
        },
        {
          "indexed": true,
          "internalType": "address",
          "name": "newOwner",
          "type": "address"
        }
      ],
      "name": "OwnershipTransferred",
      "type": "event"
    },
    {
      "anonymous": false,
      "inputs": [
        {
          "indexed": false,
          "internalType": "address",
          "name": "parameters",
          "type": "address"
        }
      ],
      "name": "ParametersUpdated",
      "type": "event"
    },
    {
      "anonymous": false,
      "inputs": [
        {
          "indexed": true,
          "internalType": "address",
          "name": "account",
          "type": "address"
        },
        {
          "indexed": false,
          "internalType": "address",
          "name": "account2",
          "type": "address"
        }
      ],
      "name": "ReputationTransfered",
      "type": "event"
    },
    {
      "anonymous": false,
      "inputs": [
        {
          "indexed": true,
          "internalType": "address",
          "name": "account",
          "type": "address"
        },
        {
          "indexed": false,
          "internalType": "address",
          "name": "account2",
          "type": "address"
        }
      ],
      "name": "RewardsTransfered",
      "type": "event"
    },
    {
      "inputs": [
        {
          "internalType": "address",
          "name": "_master",
          "type": "address"
        },
        {
          "internalType": "address",
          "name": "_address",
          "type": "address"
        }
      ],
      "name": "AreMasterWorkerLinked",
      "outputs": [
        {
          "internalType": "bool",
          "name": "",
          "type": "bool"
        }
      ],
      "stateMutability": "view",
      "type": "function"
    },
    {
      "inputs": [
        {
          "internalType": "address",
          "name": "_master",
          "type": "address"
        }
      ],
      "name": "ClaimMaster",
      "outputs": [],
      "stateMutability": "nonpayable",
      "type": "function"
    },
    {
      "inputs": [
        {
          "internalType": "address",
          "name": "_worker",
          "type": "address"
        }
      ],
      "name": "FetchHighestMaster",
      "outputs": [
        {
          "internalType": "address",
          "name": "",
          "type": "address"
        }
      ],
      "stateMutability": "view",
      "type": "function"
    },
    {
      "inputs": [
        {
          "internalType": "address[]",
          "name": "_addresses",
          "type": "address[]"
        },
        {
          "internalType": "uint256",
          "name": "iterations_max",
          "type": "uint256"
        },
        {
          "internalType": "uint256",
          "name": "starting_index",
          "type": "uint256"
        }
      ],
      "name": "MasterClaimManySubs",
      "outputs": [],
      "stateMutability": "nonpayable",
      "type": "function"
    },
    {
      "inputs": [
        {
          "internalType": "address",
          "name": "_address",
          "type": "address"
        }
      ],
      "name": "MasterClaimSub",
      "outputs": [],
      "stateMutability": "nonpayable",
      "type": "function"
    },
    {
      "inputs": [
        {
          "internalType": "address",
          "name": "",
          "type": "address"
        },
        {
          "internalType": "address",
          "name": "",
          "type": "address"
        }
      ],
      "name": "MasterClaimingWorker",
      "outputs": [
        {
          "internalType": "bool",
          "name": "",
          "type": "bool"
        }
      ],
      "stateMutability": "view",
      "type": "function"
    },
    {
      "inputs": [
        {
          "internalType": "address[]",
          "name": "_addresses",
          "type": "address[]"
        },
        {
          "internalType": "uint256",
          "name": "iterations_max",
          "type": "uint256"
        },
        {
          "internalType": "uint256",
          "name": "start_index",
          "type": "uint256"
        }
      ],
      "name": "MasterRemoveManySubs",
      "outputs": [],
      "stateMutability": "nonpayable",
      "type": "function"
    },
    {
      "inputs": [
        {
          "internalType": "address",
          "name": "_address",
          "type": "address"
        },
        {
          "internalType": "uint256",
          "name": "start_index",
          "type": "uint256"
        }
      ],
      "name": "MasterRemoveSub",
      "outputs": [],
      "stateMutability": "nonpayable",
      "type": "function"
    },
    {
      "inputs": [
        {
          "internalType": "address",
          "name": "",
          "type": "address"
        },
        {
          "internalType": "uint256",
          "name": "",
          "type": "uint256"
        }
      ],
      "name": "MasterToSubsMap",
      "outputs": [
        {
          "internalType": "address",
          "name": "",
          "type": "address"
        }
      ],
      "stateMutability": "view",
      "type": "function"
    },
    {
      "inputs": [],
      "name": "Parameters",
      "outputs": [
        {
          "internalType": "contract IParametersManager",
          "name": "",
          "type": "address"
        }
      ],
      "stateMutability": "view",
      "type": "function"
    },
    {
      "inputs": [
        {
          "internalType": "address",
          "name": "_master",
          "type": "address"
        }
      ],
      "name": "RemoveMaster",
      "outputs": [],
      "stateMutability": "nonpayable",
      "type": "function"
    },
    {
      "inputs": [
        {
          "internalType": "address",
          "name": "",
          "type": "address"
        }
      ],
      "name": "SubToMasterMap",
      "outputs": [
        {
          "internalType": "address",
          "name": "",
          "type": "address"
        }
      ],
      "stateMutability": "view",
      "type": "function"
    },
    {
      "inputs": [],
      "name": "destroyContract",
      "outputs": [],
      "stateMutability": "nonpayable",
      "type": "function"
    },
    {
      "inputs": [
        {
          "internalType": "address",
          "name": "_worker",
          "type": "address"
        }
      ],
      "name": "getMaster",
      "outputs": [
        {
          "internalType": "address",
          "name": "",
          "type": "address"
        }
      ],
      "stateMutability": "view",
      "type": "function"
    },
    {
      "inputs": [
        {
          "internalType": "address",
          "name": "_master",
          "type": "address"
        }
      ],
      "name": "getMasterSubs",
      "outputs": [
        {
          "internalType": "address[]",
          "name": "",
          "type": "address[]"
        }
      ],
      "stateMutability": "view",
      "type": "function"
    },
    {
      "inputs": [
        {
          "internalType": "address",
          "name": "_master",
          "type": "address"
        },
        {
          "internalType": "address",
          "name": "_address",
          "type": "address"
        }
      ],
      "name": "isMasterOf",
      "outputs": [
        {
          "internalType": "bool",
          "name": "",
          "type": "bool"
        }
      ],
      "stateMutability": "view",
      "type": "function"
    },
    {
      "inputs": [
        {
          "internalType": "address",
          "name": "_master",
          "type": "address"
        }
      ],
      "name": "isMasterOfMe",
      "outputs": [
        {
          "internalType": "bool",
          "name": "",
          "type": "bool"
        }
      ],
      "stateMutability": "view",
      "type": "function"
    },
    {
      "inputs": [
        {
          "internalType": "address",
          "name": "_worker",
          "type": "address"
        },
        {
          "internalType": "address",
          "name": "_master",
          "type": "address"
        },
        {
          "internalType": "uint256",
          "name": "iterations_max",
          "type": "uint256"
        },
        {
          "internalType": "uint256",
          "name": "starting_index",
          "type": "uint256"
        }
      ],
      "name": "isSubInMasterArray",
      "outputs": [
        {
          "internalType": "bool",
          "name": "",
          "type": "bool"
        }
      ],
      "stateMutability": "view",
      "type": "function"
    },
    {
      "inputs": [
        {
          "internalType": "address",
          "name": "_master",
          "type": "address"
        },
        {
          "internalType": "address",
          "name": "_address",
          "type": "address"
        }
      ],
      "name": "isSubWorkerOf",
      "outputs": [
        {
          "internalType": "bool",
          "name": "",
          "type": "bool"
        }
      ],
      "stateMutability": "view",
      "type": "function"
    },
    {
      "inputs": [
        {
          "internalType": "address",
          "name": "_worker",
          "type": "address"
        }
      ],
      "name": "isSubWorkerOfMe",
      "outputs": [
        {
          "internalType": "bool",
          "name": "",
          "type": "bool"
        }
      ],
      "stateMutability": "view",
      "type": "function"
    },
    {
      "inputs": [],
      "name": "owner",
      "outputs": [
        {
          "internalType": "address",
          "name": "",
          "type": "address"
        }
      ],
      "stateMutability": "view",
      "type": "function"
    },
    {
      "inputs": [],
      "name": "renounceOwnership",
      "outputs": [],
      "stateMutability": "nonpayable",
      "type": "function"
    },
    {
      "inputs": [
        {
          "internalType": "address",
          "name": "newOwner",
          "type": "address"
        }
      ],
      "name": "transferOwnership",
      "outputs": [],
      "stateMutability": "nonpayable",
      "type": "function"
    },
    {
      "inputs": [
        {
          "internalType": "address",
          "name": "addr",
          "type": "address"
        }
      ],
      "name": "updateParametersManager",
      "outputs": [],
      "stateMutability": "nonpayable",
      "type": "function"
    }
  ],
  "bytecode": "0x6080604052600560045534801561001557600080fd5b5061001f33610024565b610074565b600080546001600160a01b038381166001600160a01b0319831681178455604051919092169283917f8be0079c531659141344cd1fd0a4f28419497f9722a3daafe3b4186f6b6457e09190a35050565b611f2d806100836000396000f3fe608060405234801561001057600080fd5b50600436106101585760003560e01c8063715018a6116100c3578063df77a0f61161007c578063df77a0f614610352578063e370fa3d14610365578063e4f1d0fd14610378578063f25e9ed2146103a1578063f2fde38b146103cd578063ff43de9d146103e057600080fd5b8063715018a6146102b35780638da5cb5b146102bb578063921e1ba7146102cc57806396daff56146102df578063ac8d65cb146102df578063db5198241461031b57600080fd5b80632e3ce457116101155780632e3ce45714610226578063342bffbf146102395780634fbb5fd814610267578063584720f51461027a5780636e1a564e1461028d57806371024cf6146102a057600080fd5b8063059576231461015d578063092a5cce146101725780630c06e4df1461017a57806311815086146101c857806312ccb147146101f3578063198ff3dc14610206575b600080fd5b61017061016b366004611b63565b6103f3565b005b610170610462565b6101b3610188366004611b63565b3360009081526001602090815260408083206001600160a01b03949094168352929052205460ff1690565b60405190151581526020015b60405180910390f35b6101db6101d6366004611b63565b610478565b6040516001600160a01b0390911681526020016101bf565b610170610201366004611b63565b610573565b610219610214366004611b63565b610656565b6040516101bf9190611b80565b6101db610234366004611bcd565b6106cc565b6101b3610247366004611bf9565b600160209081526000928352604080842090915290825290205460ff1681565b610170610275366004611bcd565b610704565b610170610288366004611b63565b61087d565b61017061029b366004611c48565b6108d4565b6101b36102ae366004611bf9565b610a58565b610170610ab2565b6000546001600160a01b03166101db565b6101b36102da366004611d1d565b610ac6565b6101b36102ed366004611bf9565b6001600160a01b03918216600090815260016020908152604080832093909416825291909152205460ff1690565b6101b3610329366004611b63565b6001600160a01b0316600090815260016020908152604080832033845290915290205460ff1690565b610170610360366004611b63565b610bdc565b610170610373366004611c48565b610ca7565b6101db610386366004611b63565b6003602052600090815260409020546001600160a01b031681565b6101db6103af366004611b63565b6001600160a01b039081166000908152600360205260409020541690565b6101706103db366004611b63565b610efd565b6005546101db906001600160a01b031681565b6103fb610f76565b6001600160a01b03811661040e57600080fd5b600580546001600160a01b0319166001600160a01b0383169081179091556040519081527f1c57c3710c0570883580d2f83ee6a873d61b5af334741eea1c0cc397899e1d029060200160405180910390a150565b61046a610f76565b6000546001600160a01b0316ff5b60006001600160a01b0382166104fb5760405162461bcd60e51b815260206004820152603e60248201527f4665746368486967686573744d61737465723a20696e707574205f776f726b6560448201527f72206e6565647320746f206265206e6f6e206e756c6c2061646472657373000060648201526084015b60405180910390fd5b6001600160a01b0380831660009081526003602052604090205460045491169083905b6001600160a01b038316158015906105365750600081115b1561056b576001600160a01b0380841660009081526003602052604090205416929150610564600182611d79565b905061051e565b509392505050565b6001600160a01b0381166105c95760405162461bcd60e51b815260206004820152601960248201527f5f61646472657373206d757374206265206e6f6e207a65726f0000000000000060448201526064016104f2565b3360008181526001602081815260408084206001600160a01b038716808652908352818520805460ff191685179055858552600283528185208054948501815585529382902090920180546001600160a01b0319168417905590519182527f8902b85532bfc55a9f5b6e6a9576366640928b3be984b3a61167a210ca2bbc5791015b60405180910390a250565b6001600160a01b0381166000908152600260209081526040918290208054835181840281018401909452808452606093928301828280156106c057602002820191906000526020600020905b81546001600160a01b031681526001909101906020018083116106a2575b50505050509050919050565b600260205281600052604060002081815481106106e857600080fd5b6000918252602090912001546001600160a01b03169150829050565b3360009081526001602090815260408083206001600160a01b038616845290915290205460ff166107925760405162461bcd60e51b815260206004820152603260248201527f43616e27742072656d6f76653a204d6173746572206e6f7420636c61696d696e60448201527167207468697320537562204164647265737360701b60648201526084016104f2565b3360008181526001602090815260408083206001600160a01b03878116855290835292819020805460ff1916905560055481516307d630cb60e41b8152915161083b95948894921692637d630cb0926004808301939192829003018186803b1580156107fd57600080fd5b505afa158015610811573d6000803e3d6000fd5b505050506040513d601f19601f820116820180604052508101906108359190611d90565b84610fd0565b6040516001600160a01b038316815233907f7a24ac72e272dd8c83b793ae84448c72032b95723856486219c79dd722fe42929060200160405180910390a25050565b3360008181526003602090815260409182902080546001600160a01b031916905590516001600160a01b03841681527f0d7169440daf0897d7f4486a35eef15a070460981ff18ab846aa2199f171118e910161064b565b6000805b8451811015610a5157336000908152600160205260408120865190919087908490811061090757610907611da9565b6020908102919091018101516001600160a01b031682528101919091526040016000205460ff1615610a26573360009081526001602052604081208651829088908590811061095857610958611da9565b60200260200101516001600160a01b03166001600160a01b0316815260200190815260200160002060006101000a81548160ff0219169083151502179055506109bc338683815181106109ad576109ad611da9565b60200260200101518686610fd0565b336001600160a01b03167f7a24ac72e272dd8c83b793ae84448c72032b95723856486219c79dd722fe42928683815181106109f9576109f9611da9565b6020026020010151604051610a1d91906001600160a01b0391909116815260200190565b60405180910390a25b610a31600183611dbf565b9150838210610a3f57610a51565b80610a4981611dd7565b9150506108d8565b5050505050565b6001600160a01b03808316600090815260016020908152604080832093851683529290529081205460ff168015610aab57506001600160a01b038281166000908152600360205260409020548116908416145b9392505050565b610aba610f76565b610ac4600061119a565b565b6001600160a01b0383166000908152600260209081526040808320805482518185028101850190935280835284938493849390929091830182828015610b3557602002820191906000526020600020905b81546001600160a01b03168152600190910190602001808311610b17575b505050505090508051851115610b5d5760405162461bcd60e51b81526004016104f290611df2565b845b8151811015610bcf57886001600160a01b0316828281518110610b8457610b84611da9565b60200260200101516001600160a01b03161415610ba45760019350610bcf565b610baf600184611dbf565b9250868310610bbd57610bcf565b80610bc781611dd7565b915050610b5f565b5091979650505050505050565b6001600160a01b038116610c325760405162461bcd60e51b815260206004820152601960248201527f205f6d6173746572206d757374206265206e6f6e206e756c6c0000000000000060448201526064016104f2565b33600081815260036020526040902080546001600160a01b0319166001600160a01b038416179055610c63906111ea565b610c6c3361178c565b6040516001600160a01b038216815233907f85851bdf5239daecee00c49afa200b87f208a1cc246f3c3da177796c9f605d739060200161064b565b8251811115610cc85760405162461bcd60e51b81526004016104f290611df2565b6000815b8451811015610a515760006001600160a01b0316858281518110610cf257610cf2611da9565b60200260200101516001600160a01b03161415610d5d5760405162461bcd60e51b815260206004820152602360248201527f61646472657373657320696e206172726179206d757374206265206e6f6e207a60448201526265726f60e81b60648201526084016104f2565b3360009081526001602052604081208651909190879084908110610d8357610d83611da9565b6020908102919091018101516001600160a01b031682528101919091526040016000205460ff161515600114610ed2573360009081526001602081905260408220875191929091889085908110610ddc57610ddc611da9565b6020908102919091018101516001600160a01b031682528181019290925260409081016000908120805460ff191694151594909417909355338352600290915290208551869083908110610e3257610e32611da9565b60209081029190910181015182546001810184556000938452919092200180546001600160a01b0319166001600160a01b03909216919091179055845133907f8902b85532bfc55a9f5b6e6a9576366640928b3be984b3a61167a210ca2bbc5790879084908110610ea557610ea5611da9565b6020026020010151604051610ec991906001600160a01b0391909116815260200190565b60405180910390a25b610edd600183611dbf565b9150838210610eeb57610a51565b80610ef581611dd7565b915050610ccc565b610f05610f76565b6001600160a01b038116610f6a5760405162461bcd60e51b815260206004820152602660248201527f4f776e61626c653a206e6577206f776e657220697320746865207a65726f206160448201526564647265737360d01b60648201526084016104f2565b610f738161119a565b50565b6000546001600160a01b03163314610ac45760405162461bcd60e51b815260206004820181905260248201527f4f776e61626c653a2063616c6c6572206973206e6f7420746865206f776e657260448201526064016104f2565b6001600160a01b0384166000908152600260205260409020548111156110085760405162461bcd60e51b81526004016104f290611df2565b60008080835b6001600160a01b0388166000908152600260205260409020548110156110af576001600160a01b0388811660009081526002602052604090208054918916918390811061105d5761105d611da9565b6000918252602090912001546001600160a01b0316141561108457600192508093506110af565b61108f600183611dbf565b915085821061109d576110af565b806110a781611dd7565b91505061100e565b508115611191576001600160a01b038716600090815260026020526040902080546110dc90600190611d79565b815481106110ec576110ec611da9565b60009182526020808320909101546001600160a01b038a811684526002909252604090922080549190921691908590811061112957611129611da9565b600091825260208083209190910180546001600160a01b0319166001600160a01b03948516179055918916815260029091526040902080548061116e5761116e611e3a565b600082815260209020810160001990810180546001600160a01b03191690550190555b50505050505050565b600080546001600160a01b038381166001600160a01b0319831681178455604051919092169283917f8be0079c531659141344cd1fd0a4f28419497f9722a3daafe3b4186f6b6457e09190a35050565b60055460408051630855d15160e01b815290516000926001600160a01b031691630855d151916004808301926020929190829003018186803b15801561122f57600080fd5b505afa158015611243573d6000803e3d6000fd5b505050506040513d601f19601f820116820180604052508101906112679190611e50565b6001600160a01b031614156112be5760405162461bcd60e51b815260206004820181905260248201527f5265704d616e61676572206973206e756c6c20696e20506172616d657465727360448201526064016104f2565b6005546040805163e992dca760e01b815290516000926001600160a01b03169163e992dca7916004808301926020929190829003018186803b15801561130357600080fd5b505afa158015611317573d6000803e3d6000fd5b505050506040513d601f19601f8201168201806040525081019061133b9190611e50565b6001600160a01b031614156113925760405162461bcd60e51b815260206004820181905260248201527f5265704d616e61676572206973206e756c6c20696e20506172616d657465727360448201526064016104f2565b60055460408051630855d15160e01b815290516000926001600160a01b031691630855d151916004808301926020929190829003018186803b1580156113d757600080fd5b505afa1580156113eb573d6000803e3d6000fd5b505050506040513d601f19601f8201168201806040525081019061140f9190611e50565b90506000600560009054906101000a90046001600160a01b03166001600160a01b031663e992dca76040518163ffffffff1660e01b815260040160206040518083038186803b15801561146157600080fd5b505afa158015611475573d6000803e3d6000fd5b505050506040513d601f19601f820116820180604052508101906114999190611e50565b6001600160a01b03848116600090815260036020526040902054919250166114d35760405162461bcd60e51b81526004016104f290611e6d565b6040516370a0823160e01b81526001600160a01b038481166004830152600091908316906370a082319060240160206040518083038186803b15801561151857600080fd5b505afa15801561152c573d6000803e3d6000fd5b505050506040513d601f19601f820116820180604052508101906115509190611d90565b9050600061155d85610478565b90508115610a5157604051630db6cc8560e11b8152600481018390526001600160a01b03828116602483015260006044830152851690631b6d990a90606401602060405180830381600087803b1580156115b657600080fd5b505af11580156115ca573d6000803e3d6000fd5b505050506040513d601f19601f820116820180604052508101906115ee9190611ed5565b6116545760405162461bcd60e51b815260206004820152603160248201527f5472616e73666572526570546f4d61737465723a20636f756c64206e6f74206d60448201527034b73a102932b8103a379036b0b9ba32b960791b60648201526084016104f2565b60405163171bcfc360e21b8152600481018390526001600160a01b03868116602483015260006044830152851690635c6f3f0c90606401602060405180830381600087803b1580156116a557600080fd5b505af11580156116b9573d6000803e3d6000fd5b505050506040513d601f19601f820116820180604052508101906116dd9190611ed5565b6117455760405162461bcd60e51b815260206004820152603360248201527f5472616e73666572526570546f4d61737465723a20636f756c64206e6f7420626044820152723ab937102932b810333937b6903bb7b935b2b960691b60648201526084016104f2565b6040516001600160a01b0382811682528616907fc587680578b3acb8eeb1ab421a6921efe2a32b10903016ebd6c3f39e51cd1d969060200160405180910390a25050505050565b600554604080516304e76c8f60e01b815290516000926001600160a01b0316916304e76c8f916004808301926020929190829003018186803b1580156117d157600080fd5b505afa1580156117e5573d6000803e3d6000fd5b505050506040513d601f19601f820116820180604052508101906118099190611e50565b6001600160a01b0316141561186c5760405162461bcd60e51b815260206004820152602360248201527f5265776172644d616e61676572206973206e756c6c20696e20506172616d657460448201526265727360e81b60648201526084016104f2565b600554604080516304e76c8f60e01b815290516000926001600160a01b0316916304e76c8f916004808301926020929190829003018186803b1580156118b157600080fd5b505afa1580156118c5573d6000803e3d6000fd5b505050506040513d601f19601f820116820180604052508101906118e99190611e50565b90506001600160a01b0381166119415760405162461bcd60e51b815260206004820152601f60248201527f5265776172644d616e61676572206e6565647320746f2062652073657475700060448201526064016104f2565b6001600160a01b03828116600090815260036020526040902054166119785760405162461bcd60e51b81526004016104f290611e6d565b604051633b4febfb60e21b81526001600160a01b0383811660048301526000919083169063ed3fafec90602401602060405180830381600087803b1580156119bf57600080fd5b505af11580156119d3573d6000803e3d6000fd5b505050506040513d601f19601f820116820180604052508101906119f79190611d90565b90506000611a0484610478565b90508115611b3857604051635f28bad560e01b81526001600160a01b0385811660048301528281166024830152841690635f28bad590604401602060405180830381600087803b158015611a5757600080fd5b505af1158015611a6b573d6000803e3d6000fd5b505050506040513d601f19601f82011682018060405250810190611a8f9190611ed5565b611af75760405162461bcd60e51b815260206004820152603360248201527f5472616e7366657252657761726473546f4d61737465723a20636f756c64206e6044820152726f74207472616e73666572207265776172647360681b60648201526084016104f2565b6040516001600160a01b0382811682528516907f04b22084ec80e4b31b47cb8c65cd44c4e4e2840e20dffcbd81bd7d048b74fb4e9060200160405180910390a25b50505050565b6001600160a01b0381168114610f7357600080fd5b8035611b5e81611b3e565b919050565b600060208284031215611b7557600080fd5b8135610aab81611b3e565b6020808252825182820181905260009190848201906040850190845b81811015611bc15783516001600160a01b031683529284019291840191600101611b9c565b50909695505050505050565b60008060408385031215611be057600080fd5b8235611beb81611b3e565b946020939093013593505050565b60008060408385031215611c0c57600080fd5b8235611c1781611b3e565b91506020830135611c2781611b3e565b809150509250929050565b634e487b7160e01b600052604160045260246000fd5b600080600060608486031215611c5d57600080fd5b833567ffffffffffffffff80821115611c7557600080fd5b818601915086601f830112611c8957600080fd5b8135602082821115611c9d57611c9d611c32565b8160051b604051601f19603f83011681018181108682111715611cc257611cc2611c32565b60405292835281830193508481018201928a841115611ce057600080fd5b948201945b83861015611d0557611cf686611b53565b85529482019493820193611ce5565b9a918901359950506040909701359695505050505050565b60008060008060808587031215611d3357600080fd5b8435611d3e81611b3e565b93506020850135611d4e81611b3e565b93969395505050506040820135916060013590565b634e487b7160e01b600052601160045260246000fd5b600082821015611d8b57611d8b611d63565b500390565b600060208284031215611da257600080fd5b5051919050565b634e487b7160e01b600052603260045260246000fd5b60008219821115611dd257611dd2611d63565b500190565b6000600019821415611deb57611deb611d63565b5060010190565b60208082526028908201527f7374617274696e675f696e646578206d757374206e6f74206265206f7574206f6040820152676620626f756e647360c01b606082015260800190565b634e487b7160e01b600052603160045260246000fd5b600060208284031215611e6257600080fd5b8151610aab81611b3e565b60208082526042908201527f5472616e73666572526570546f4d61737465723a20696e707574205f776f726b60408201527f6572206e6565647320746f20686176652061206e6f6e2d6e756c6c206d61737460608201526132b960f11b608082015260a00190565b600060208284031215611ee757600080fd5b81518015158114610aab57600080fdfea2646970667358221220c4db2a33071b15122d85aab77c7588dd8fd1502d44236c941509cdf9cb5757a364736f6c63430008080033",
  "linkReferences": {},
  "deployedLinkReferences": {}
}