{
  "_format": "hh-sol-artifact-1",
  "contractName": "AddressManager",
  "sourceName": "contracts/worksystems/AddressManager.sol",
  "abi": [
    {
      "anonymous": false,
      "inputs": [
        {
          "indexed": true,
          "internalType": "address",
          "name": "account",
          "type": "address"
        },
        {
          "indexed": false,
          "internalType": "address",
          "name": "account2",
          "type": "address"
        }
      ],
      "name": "AddressAddedByMaster",
      "type": "event"
    },
    {
      "anonymous": false,
      "inputs": [
        {
          "indexed": true,
          "internalType": "address",
          "name": "account",
          "type": "address"
        },
        {
          "indexed": false,
          "internalType": "address",
          "name": "account2",
          "type": "address"
        }
      ],
      "name": "AddressAddedByWorker",
      "type": "event"
    },
    {
      "anonymous": false,
      "inputs": [
        {
          "indexed": true,
          "internalType": "address",
          "name": "account",
          "type": "address"
        },
        {
          "indexed": false,
          "internalType": "address",
          "name": "account2",
          "type": "address"
        }
      ],
      "name": "AddressRemovedByMaster",
      "type": "event"
    },
    {
      "anonymous": false,
      "inputs": [
        {
          "indexed": true,
          "internalType": "address",
          "name": "account",
          "type": "address"
        },
        {
          "indexed": false,
          "internalType": "address",
          "name": "account2",
          "type": "address"
        }
      ],
      "name": "AddressRemovedByWorker",
      "type": "event"
    },
    {
      "anonymous": false,
      "inputs": [
        {
          "indexed": true,
          "internalType": "address",
          "name": "previousOwner",
          "type": "address"
        },
        {
          "indexed": true,
          "internalType": "address",
          "name": "newOwner",
          "type": "address"
        }
      ],
      "name": "OwnershipTransferred",
      "type": "event"
    },
    {
      "anonymous": false,
      "inputs": [
        {
          "indexed": true,
          "internalType": "address",
          "name": "account",
          "type": "address"
        },
        {
          "indexed": false,
          "internalType": "address",
          "name": "account2",
          "type": "address"
        }
      ],
      "name": "ReputationTransfered",
      "type": "event"
    },
    {
      "anonymous": false,
      "inputs": [
        {
          "indexed": true,
          "internalType": "address",
          "name": "account",
          "type": "address"
        },
        {
          "indexed": false,
          "internalType": "address",
          "name": "account2",
          "type": "address"
        }
      ],
      "name": "RewardsTransfered",
      "type": "event"
    },
    {
      "inputs": [
        {
          "internalType": "address",
          "name": "_master",
          "type": "address"
        },
        {
          "internalType": "address",
          "name": "_address",
          "type": "address"
        }
      ],
      "name": "AreMasterSubLinked",
      "outputs": [
        {
          "internalType": "bool",
          "name": "",
          "type": "bool"
        }
      ],
      "stateMutability": "view",
      "type": "function"
    },
    {
      "inputs": [
        {
          "internalType": "address",
          "name": "_master",
          "type": "address"
        }
      ],
      "name": "ClaimMaster",
      "outputs": [],
      "stateMutability": "nonpayable",
      "type": "function"
    },
    {
      "inputs": [
        {
          "internalType": "address",
          "name": "_worker",
          "type": "address"
        }
      ],
      "name": "FetchHighestMaster",
      "outputs": [
        {
          "internalType": "address",
          "name": "",
          "type": "address"
        }
      ],
      "stateMutability": "view",
      "type": "function"
    },
    {
      "inputs": [
        {
          "internalType": "address[]",
          "name": "_addresses",
          "type": "address[]"
        }
      ],
      "name": "MasterClaimManySubs",
      "outputs": [],
      "stateMutability": "nonpayable",
      "type": "function"
    },
    {
      "inputs": [
        {
          "internalType": "address",
          "name": "_address",
          "type": "address"
        }
      ],
      "name": "MasterClaimSub",
      "outputs": [],
      "stateMutability": "nonpayable",
      "type": "function"
    },
    {
      "inputs": [
        {
          "internalType": "address",
          "name": "",
          "type": "address"
        },
        {
          "internalType": "address",
          "name": "",
          "type": "address"
        }
      ],
      "name": "MasterClaimingWorker",
      "outputs": [
        {
          "internalType": "bool",
          "name": "",
          "type": "bool"
        }
      ],
      "stateMutability": "view",
      "type": "function"
    },
    {
      "inputs": [
        {
          "internalType": "address[]",
          "name": "_addresses",
          "type": "address[]"
        }
      ],
      "name": "MasterRemoveManySubs",
      "outputs": [],
      "stateMutability": "nonpayable",
      "type": "function"
    },
    {
      "inputs": [
        {
          "internalType": "address",
          "name": "_address",
          "type": "address"
        }
      ],
      "name": "MasterRemoveSub",
      "outputs": [],
      "stateMutability": "nonpayable",
      "type": "function"
    },
    {
      "inputs": [
        {
          "internalType": "address",
          "name": "",
          "type": "address"
        },
        {
          "internalType": "uint256",
          "name": "",
          "type": "uint256"
        }
      ],
      "name": "MasterToSubsMap",
      "outputs": [
        {
          "internalType": "address",
          "name": "",
          "type": "address"
        }
      ],
      "stateMutability": "view",
      "type": "function"
    },
    {
      "inputs": [
        {
          "internalType": "address",
          "name": "_master",
          "type": "address"
        }
      ],
      "name": "RemoveMaster",
      "outputs": [],
      "stateMutability": "nonpayable",
      "type": "function"
    },
    {
      "inputs": [],
      "name": "RepManager",
      "outputs": [
        {
          "internalType": "contract IRepManager",
          "name": "",
          "type": "address"
        }
      ],
      "stateMutability": "view",
      "type": "function"
    },
    {
      "inputs": [],
      "name": "Reputation",
      "outputs": [
        {
          "internalType": "contract IReputation",
          "name": "",
          "type": "address"
        }
      ],
      "stateMutability": "view",
      "type": "function"
    },
    {
      "inputs": [],
      "name": "RewardManager",
      "outputs": [
        {
          "internalType": "contract IRewardManager",
          "name": "",
          "type": "address"
        }
      ],
      "stateMutability": "view",
      "type": "function"
    },
    {
      "inputs": [
        {
          "internalType": "address",
          "name": "",
          "type": "address"
        }
      ],
      "name": "SubToMasterMap",
      "outputs": [
        {
          "internalType": "address",
          "name": "",
          "type": "address"
        }
      ],
      "stateMutability": "view",
      "type": "function"
    },
    {
      "inputs": [
        {
          "internalType": "address",
          "name": "",
          "type": "address"
        },
        {
          "internalType": "address",
          "name": "",
          "type": "address"
        }
      ],
      "name": "WorkerClaimingMaster",
      "outputs": [
        {
          "internalType": "bool",
          "name": "",
          "type": "bool"
        }
      ],
      "stateMutability": "view",
      "type": "function"
    },
    {
      "inputs": [
        {
          "internalType": "address",
          "name": "_worker",
          "type": "address"
        }
      ],
      "name": "getMaster",
      "outputs": [
        {
          "internalType": "address",
          "name": "",
          "type": "address"
        }
      ],
      "stateMutability": "view",
      "type": "function"
    },
    {
      "inputs": [
        {
          "internalType": "address",
          "name": "_master",
          "type": "address"
        }
      ],
      "name": "getMasterSubs",
      "outputs": [
        {
          "internalType": "address[]",
          "name": "",
          "type": "address[]"
        }
      ],
      "stateMutability": "view",
      "type": "function"
    },
    {
      "inputs": [
        {
          "internalType": "address",
          "name": "_master",
          "type": "address"
        },
        {
          "internalType": "address",
          "name": "_address",
          "type": "address"
        }
      ],
      "name": "isMasterOf",
      "outputs": [
        {
          "internalType": "bool",
          "name": "",
          "type": "bool"
        }
      ],
      "stateMutability": "view",
      "type": "function"
    },
    {
      "inputs": [
        {
          "internalType": "address",
          "name": "_master",
          "type": "address"
        }
      ],
      "name": "isMasterOfMe",
      "outputs": [
        {
          "internalType": "bool",
          "name": "",
          "type": "bool"
        }
      ],
      "stateMutability": "view",
      "type": "function"
    },
    {
      "inputs": [
        {
          "internalType": "address",
          "name": "_worker",
          "type": "address"
        },
        {
          "internalType": "address",
          "name": "_master",
          "type": "address"
        }
      ],
      "name": "isSubInMasterArray",
      "outputs": [
        {
          "internalType": "bool",
          "name": "",
          "type": "bool"
        }
      ],
      "stateMutability": "view",
      "type": "function"
    },
    {
      "inputs": [
        {
          "internalType": "address",
          "name": "_master",
          "type": "address"
        },
        {
          "internalType": "address",
          "name": "_address",
          "type": "address"
        }
      ],
      "name": "isSubWorkerOf",
      "outputs": [
        {
          "internalType": "bool",
          "name": "",
          "type": "bool"
        }
      ],
      "stateMutability": "view",
      "type": "function"
    },
    {
      "inputs": [
        {
          "internalType": "address",
          "name": "_worker",
          "type": "address"
        }
      ],
      "name": "isSubWorkerOfMe",
      "outputs": [
        {
          "internalType": "bool",
          "name": "",
          "type": "bool"
        }
      ],
      "stateMutability": "view",
      "type": "function"
    },
    {
      "inputs": [],
      "name": "owner",
      "outputs": [
        {
          "internalType": "address",
          "name": "",
          "type": "address"
        }
      ],
      "stateMutability": "view",
      "type": "function"
    },
    {
      "inputs": [],
      "name": "renounceOwnership",
      "outputs": [],
      "stateMutability": "nonpayable",
      "type": "function"
    },
    {
      "inputs": [
        {
          "internalType": "address",
          "name": "newOwner",
          "type": "address"
        }
      ],
      "name": "transferOwnership",
      "outputs": [],
      "stateMutability": "nonpayable",
      "type": "function"
    },
    {
      "inputs": [
        {
          "internalType": "address",
          "name": "addr",
          "type": "address"
        }
      ],
      "name": "updateRepManager",
      "outputs": [],
      "stateMutability": "nonpayable",
      "type": "function"
    },
    {
      "inputs": [
        {
          "internalType": "address",
          "name": "addr",
          "type": "address"
        }
      ],
      "name": "updateReputation",
      "outputs": [],
      "stateMutability": "nonpayable",
      "type": "function"
    },
    {
      "inputs": [
        {
          "internalType": "address",
          "name": "addr",
          "type": "address"
        }
      ],
      "name": "updateRewardManager",
      "outputs": [],
      "stateMutability": "nonpayable",
      "type": "function"
    }
  ],
  "bytecode": "0x60806040526005805534801561001457600080fd5b5061001e33610023565b610073565b600080546001600160a01b038381166001600160a01b0319831681178455604051919092169283917f8be0079c531659141344cd1fd0a4f28419497f9722a3daafe3b4186f6b6457e09190a35050565b611a45806100826000396000f3fe608060405234801561001057600080fd5b50600436106101c45760003560e01c8063715018a6116100f9578063db51982411610097578063e4f1d0fd11610071578063e4f1d0fd1461042d578063f25e9ed214610456578063f2fde38b14610482578063f77c86581461049557600080fd5b8063db519824146103d0578063dd61868214610407578063df77a0f61461041a57600080fd5b806396daff56116100d357806396daff56146103975780639904ed8d146103aa5780639f62c379146103bd578063ac8d65cb1461039757600080fd5b8063715018a61461036b5780638213b8d8146103735780638da5cb5b1461038657600080fd5b806329a47bc71161016657806339c3f6e71161014057806339c3f6e71461031f5780634826d0431461033257806351912f2914610345578063584720f51461035857600080fd5b806329a47bc7146102cb5780632e3ce457146102de578063342bffbf146102f157600080fd5b806311815086116101a2578063118150861461023f57806312ccb1471461026a5780631778f9c81461027d578063198ff3dc146102ab57600080fd5b8063050eb2eb146101c95780630c06e4df146101de5780630e90e5651461022c575b600080fd5b6101dc6101d7366004611723565b6104a8565b005b6102176101ec366004611723565b3360009081526001602090815260408083206001600160a01b03949094168352929052205460ff1690565b60405190151581526020015b60405180910390f35b6101dc61023a366004611723565b6104fd565b61025261024d366004611723565b610549565b6040516001600160a01b039091168152602001610223565b6101dc610278366004611723565b61063f565b61021761028b36600461173e565b600260209081526000928352604080842090915290825290205460ff1681565b6102be6102b9366004611723565b6106cc565b6040516102239190611771565b600754610252906001600160a01b031681565b6102526102ec3660046117be565b610742565b6102176102ff36600461173e565b600160209081526000928352604080842090915290825290205460ff1681565b6101dc61032d3660046117fe565b61077a565b6101dc610340366004611723565b610911565b600854610252906001600160a01b031681565b6101dc610366366004611723565b610a0f565b6101dc610b0a565b6101dc6103813660046117fe565b610b40565b6000546001600160a01b0316610252565b6102176103a536600461173e565b610ca1565b600654610252906001600160a01b031681565b6102176103cb36600461173e565b610ccf565b6102176103de366004611723565b6001600160a01b0316600090815260016020908152604080832033845290915290205460ff1690565b6101dc610415366004611723565b610cf3565b6101dc610428366004611723565b610d3f565b61025261043b366004611723565b6004602052600090815260409020546001600160a01b031681565b610252610464366004611723565b6001600160a01b039081166000908152600460205260409020541690565b6101dc610490366004611723565b610dd6565b6102176104a336600461173e565b610e71565b6000546001600160a01b031633146104db5760405162461bcd60e51b81526004016104d2906118c3565b60405180910390fd5b600880546001600160a01b0319166001600160a01b0392909216919091179055565b6000546001600160a01b031633146105275760405162461bcd60e51b81526004016104d2906118c3565b600680546001600160a01b0319166001600160a01b0392909216919091179055565b60006001600160a01b0382166105c75760405162461bcd60e51b815260206004820152603e60248201527f4665746368486967686573744d61737465723a20696e707574205f776f726b6560448201527f72206e6565647320746f206265206e6f6e206e756c6c2061646472657373000060648201526084016104d2565b6001600160a01b0380831660009081526004602052604090205460055491169083905b6001600160a01b038316158015906106025750600081115b15610637576001600160a01b038084166000908152600460205260409020541692915061063060018261190e565b90506105ea565b509392505050565b3360008181526001602081815260408084206001600160a01b038716808652908352818520805460ff191685179055858552600383528185208054948501815585529382902090920180546001600160a01b0319168417905590519182527f8902b85532bfc55a9f5b6e6a9576366640928b3be984b3a61167a210ca2bbc5791015b60405180910390a250565b6001600160a01b03811660009081526003602090815260409182902080548351818402810184019094528084526060939283018282801561073657602002820191906000526020600020905b81546001600160a01b03168152600190910190602001808311610718575b50505050509050919050565b6003602052816000526040600020818154811061075e57600080fd5b6000918252602090912001546001600160a01b03169150829050565b60005b815181101561090d5733600090815260016020526040812083519091908490849081106107ac576107ac611925565b6020908102919091018101516001600160a01b031682528101919091526040016000205460ff1615156001146108fb57336000908152600160208190526040822084519192909185908590811061080557610805611925565b6020908102919091018101516001600160a01b031682528181019290925260409081016000908120805460ff19169415159490941790935533835260039091529020825183908390811061085b5761085b611925565b60209081029190910181015182546001810184556000938452919092200180546001600160a01b0319166001600160a01b03909216919091179055815133907f8902b85532bfc55a9f5b6e6a9576366640928b3be984b3a61167a210ca2bbc57908490849081106108ce576108ce611925565b60200260200101516040516108f291906001600160a01b0391909116815260200190565b60405180910390a25b806109058161193b565b91505061077d565b5050565b3360009081526001602090815260408083206001600160a01b038516845290915290205460ff1661099f5760405162461bcd60e51b815260206004820152603260248201527f43616e27742072656d6f76653a204d6173746572206e6f7420636c61696d696e60448201527167207468697320537562204164647265737360701b60648201526084016104d2565b3360008181526001602090815260408083206001600160a01b03861684529091529020805460ff191690556109d49082610f48565b6040516001600160a01b038216815233907f7a24ac72e272dd8c83b793ae84448c72032b95723856486219c79dd722fe4292906020016106c1565b6001600160a01b038116600090815260026020908152604080832033845290915290205460ff16610a995760405162461bcd60e51b815260206004820152602e60248201527f43616e27742072656d6f7665204d61737465723a206e6f7420636c61696d696e60448201526d672074686973206164647265737360901b60648201526084016104d2565b6001600160a01b038116600081815260026020908152604080832033808552908352818420805460ff19169055600483529281902080546001600160a01b03191690555192835290917f0d7169440daf0897d7f4486a35eef15a070460981ff18ab846aa2199f171118e91016106c1565b6000546001600160a01b03163314610b345760405162461bcd60e51b81526004016104d2906118c3565b610b3e60006110be565b565b60005b815181101561090d573360009081526001602052604081208351909190849084908110610b7257610b72611925565b6020908102919091018101516001600160a01b031682528101919091526040016000205460ff1615610c8f5733600090815260016020526040812083518290859085908110610bc357610bc3611925565b60200260200101516001600160a01b03166001600160a01b0316815260200190815260200160002060006101000a81548160ff021916908315150217905550610c2533838381518110610c1857610c18611925565b6020026020010151610f48565b336001600160a01b03167f7a24ac72e272dd8c83b793ae84448c72032b95723856486219c79dd722fe4292838381518110610c6257610c62611925565b6020026020010151604051610c8691906001600160a01b0391909116815260200190565b60405180910390a25b80610c998161193b565b915050610b43565b6001600160a01b03918216600090815260016020908152604080832093909416825291909152205460ff1690565b6000610cdb8383610ca1565b8015610cec5750610cec8383610ca1565b9392505050565b6000546001600160a01b03163314610d1d5760405162461bcd60e51b81526004016104d2906118c3565b600780546001600160a01b0319166001600160a01b0392909216919091179055565b6001600160a01b038116600081815260026020908152604080832033808552908352818420805460ff19166001179055600490925290912080546001600160a01b031916909217909155610d929061110e565b610d9b336114b7565b6040516001600160a01b038216815233907f85851bdf5239daecee00c49afa200b87f208a1cc246f3c3da177796c9f605d73906020016106c1565b6000546001600160a01b03163314610e005760405162461bcd60e51b81526004016104d2906118c3565b6001600160a01b038116610e655760405162461bcd60e51b815260206004820152602660248201527f4f776e61626c653a206e6577206f776e657220697320746865207a65726f206160448201526564647265737360d01b60648201526084016104d2565b610e6e816110be565b50565b6001600160a01b0381166000908152600360209081526040808320805482518185028101850190935280835284938493929190830182828015610edd57602002820191906000526020600020905b81546001600160a01b03168152600190910190602001808311610ebf575b5050505050905060005b8151811015610f3e57856001600160a01b0316828281518110610f0c57610f0c611925565b60200260200101516001600160a01b03161415610f2c5760019250610f3e565b80610f368161193b565b915050610ee7565b5090949350505050565b60008060005b6001600160a01b038516600090815260036020526040902054811015610fd6576001600160a01b03858116600090815260036020526040902080549186169183908110610f9d57610f9d611925565b6000918252602090912001546001600160a01b03161415610fc45760019150809250610fd6565b80610fce8161193b565b915050610f4e565b5080156110b8576001600160a01b038416600090815260036020526040902080546110039060019061190e565b8154811061101357611013611925565b60009182526020808320909101546001600160a01b0387811684526003909252604090922080549190921691908490811061105057611050611925565b600091825260208083209190910180546001600160a01b0319166001600160a01b03948516179055918616815260039091526040902080548061109557611095611956565b600082815260209020810160001990810180546001600160a01b03191690550190555b50505050565b600080546001600160a01b038381166001600160a01b0319831681178455604051919092169283917f8be0079c531659141344cd1fd0a4f28419497f9722a3daafe3b4186f6b6457e09190a35050565b6006546001600160a01b03166111665760405162461bcd60e51b815260206004820152601c60248201527f52657075746174696f6e206e6565647320746f2062652073657475700000000060448201526064016104d2565b6007546001600160a01b03166111be5760405162461bcd60e51b815260206004820152601c60248201527f5265704d616e61676572206e6565647320746f2062652073657475700000000060448201526064016104d2565b6001600160a01b03818116600090815260046020526040902054166111f55760405162461bcd60e51b81526004016104d29061196c565b6006546040516370a0823160e01b81526001600160a01b03838116600483015260009216906370a082319060240160206040518083038186803b15801561123b57600080fd5b505afa15801561124f573d6000803e3d6000fd5b505050506040513d601f19601f8201168201806040525081019061127391906119d4565b9050600061128083610549565b905081156114b257600754604051630db6cc8560e11b8152600481018490526001600160a01b0383811660248301526000604483015290911690631b6d990a90606401602060405180830381600087803b1580156112dd57600080fd5b505af11580156112f1573d6000803e3d6000fd5b505050506040513d601f19601f8201168201806040525081019061131591906119ed565b61137b5760405162461bcd60e51b815260206004820152603160248201527f5472616e73666572526570546f4d61737465723a20636f756c64206e6f74206d60448201527034b73a102932b8103a379036b0b9ba32b960791b60648201526084016104d2565b60075460405163171bcfc360e21b8152600481018490526001600160a01b0385811660248301526000604483015290911690635c6f3f0c90606401602060405180830381600087803b1580156113d057600080fd5b505af11580156113e4573d6000803e3d6000fd5b505050506040513d601f19601f8201168201806040525081019061140891906119ed565b6114705760405162461bcd60e51b815260206004820152603360248201527f5472616e73666572526570546f4d61737465723a20636f756c64206e6f7420626044820152723ab937102932b810333937b6903bb7b935b2b960691b60648201526084016104d2565b6040516001600160a01b0382811682528416907fc587680578b3acb8eeb1ab421a6921efe2a32b10903016ebd6c3f39e51cd1d96906020015b60405180910390a25b505050565b6008546001600160a01b031661150f5760405162461bcd60e51b815260206004820152601f60248201527f5265776172644d616e61676572206e6565647320746f2062652073657475700060448201526064016104d2565b6001600160a01b03818116600090815260046020526040902054166115465760405162461bcd60e51b81526004016104d29061196c565b600854604051633b4febfb60e21b81526001600160a01b038381166004830152600092169063ed3fafec90602401602060405180830381600087803b15801561158e57600080fd5b505af11580156115a2573d6000803e3d6000fd5b505050506040513d601f19601f820116820180604052508101906115c691906119d4565b905060006115d383610549565b905081156114b257600854604051635f28bad560e01b81526001600160a01b038581166004830152838116602483015290911690635f28bad590604401602060405180830381600087803b15801561162a57600080fd5b505af115801561163e573d6000803e3d6000fd5b505050506040513d601f19601f8201168201806040525081019061166291906119ed565b6116ca5760405162461bcd60e51b815260206004820152603360248201527f5472616e7366657252657761726473546f4d61737465723a20636f756c64206e6044820152726f74207472616e73666572207265776172647360681b60648201526084016104d2565b6040516001600160a01b0382811682528416907f04b22084ec80e4b31b47cb8c65cd44c4e4e2840e20dffcbd81bd7d048b74fb4e906020016114a9565b80356001600160a01b038116811461171e57600080fd5b919050565b60006020828403121561173557600080fd5b610cec82611707565b6000806040838503121561175157600080fd5b61175a83611707565b915061176860208401611707565b90509250929050565b6020808252825182820181905260009190848201906040850190845b818110156117b25783516001600160a01b03168352928401929184019160010161178d565b50909695505050505050565b600080604083850312156117d157600080fd5b6117da83611707565b946020939093013593505050565b634e487b7160e01b600052604160045260246000fd5b6000602080838503121561181157600080fd5b823567ffffffffffffffff8082111561182957600080fd5b818501915085601f83011261183d57600080fd5b81358181111561184f5761184f6117e8565b8060051b604051601f19603f83011681018181108582111715611874576118746117e8565b60405291825284820192508381018501918883111561189257600080fd5b938501935b828510156118b7576118a885611707565b84529385019392850192611897565b98975050505050505050565b6020808252818101527f4f776e61626c653a2063616c6c6572206973206e6f7420746865206f776e6572604082015260600190565b634e487b7160e01b600052601160045260246000fd5b600082821015611920576119206118f8565b500390565b634e487b7160e01b600052603260045260246000fd5b600060001982141561194f5761194f6118f8565b5060010190565b634e487b7160e01b600052603160045260246000fd5b60208082526042908201527f5472616e73666572526570546f4d61737465723a20696e707574205f776f726b60408201527f6572206e6565647320746f20686176652061206e6f6e2d6e756c6c206d61737460608201526132b960f11b608082015260a00190565b6000602082840312156119e657600080fd5b5051919050565b6000602082840312156119ff57600080fd5b81518015158114610cec57600080fdfea2646970667358221220c7939e1917df3e3eded3ca8773a6398552662c31d4cdbbbbe3f7c70ab98c95fb64736f6c63430008080033",
  "linkReferences": {},
  "deployedLinkReferences": {}
}