{
  "_format": "hh-sol-artifact-1",
  "contractName": "AddressManager",
  "sourceName": "contracts/worksystems/AddressManager.sol",
  "abi": [
    {
      "anonymous": false,
      "inputs": [
        {
          "indexed": true,
          "internalType": "address",
          "name": "account",
          "type": "address"
        },
        {
          "indexed": false,
          "internalType": "address",
          "name": "account2",
          "type": "address"
        }
      ],
      "name": "AddressAddedByMaster",
      "type": "event"
    },
    {
      "anonymous": false,
      "inputs": [
        {
          "indexed": true,
          "internalType": "address",
          "name": "account",
          "type": "address"
        },
        {
          "indexed": false,
          "internalType": "address",
          "name": "account2",
          "type": "address"
        }
      ],
      "name": "AddressAddedByWorker",
      "type": "event"
    },
    {
      "anonymous": false,
      "inputs": [
        {
          "indexed": true,
          "internalType": "address",
          "name": "account",
          "type": "address"
        },
        {
          "indexed": false,
          "internalType": "address",
          "name": "account2",
          "type": "address"
        }
      ],
      "name": "AddressRemovedByMaster",
      "type": "event"
    },
    {
      "anonymous": false,
      "inputs": [
        {
          "indexed": true,
          "internalType": "address",
          "name": "account",
          "type": "address"
        },
        {
          "indexed": false,
          "internalType": "address",
          "name": "account2",
          "type": "address"
        }
      ],
      "name": "AddressRemovedByWorker",
      "type": "event"
    },
    {
      "anonymous": false,
      "inputs": [
        {
          "indexed": true,
          "internalType": "address",
          "name": "previousOwner",
          "type": "address"
        },
        {
          "indexed": true,
          "internalType": "address",
          "name": "newOwner",
          "type": "address"
        }
      ],
      "name": "OwnershipTransferred",
      "type": "event"
    },
    {
      "anonymous": false,
      "inputs": [
        {
          "indexed": true,
          "internalType": "address",
          "name": "account",
          "type": "address"
        },
        {
          "indexed": false,
          "internalType": "address",
          "name": "account2",
          "type": "address"
        }
      ],
      "name": "ReputationTransfered",
      "type": "event"
    },
    {
      "anonymous": false,
      "inputs": [
        {
          "indexed": true,
          "internalType": "address",
          "name": "account",
          "type": "address"
        },
        {
          "indexed": false,
          "internalType": "address",
          "name": "account2",
          "type": "address"
        }
      ],
      "name": "RewardsTransfered",
      "type": "event"
    },
    {
      "inputs": [
        {
          "internalType": "address",
          "name": "_master",
          "type": "address"
        },
        {
          "internalType": "address",
          "name": "_address",
          "type": "address"
        }
      ],
      "name": "AreMasterSubLinked",
      "outputs": [
        {
          "internalType": "bool",
          "name": "",
          "type": "bool"
        }
      ],
      "stateMutability": "view",
      "type": "function"
    },
    {
      "inputs": [
        {
          "internalType": "address",
          "name": "_master",
          "type": "address"
        }
      ],
      "name": "ClaimMaster",
      "outputs": [],
      "stateMutability": "nonpayable",
      "type": "function"
    },
    {
      "inputs": [
        {
          "internalType": "address",
          "name": "_worker",
          "type": "address"
        }
      ],
      "name": "FetchHighestMaster",
      "outputs": [
        {
          "internalType": "address",
          "name": "",
          "type": "address"
        }
      ],
      "stateMutability": "view",
      "type": "function"
    },
    {
      "inputs": [
        {
          "internalType": "address[]",
          "name": "_addresses",
          "type": "address[]"
        }
      ],
      "name": "MasterClaimManySubs",
      "outputs": [],
      "stateMutability": "nonpayable",
      "type": "function"
    },
    {
      "inputs": [
        {
          "internalType": "address",
          "name": "_address",
          "type": "address"
        }
      ],
      "name": "MasterClaimSub",
      "outputs": [],
      "stateMutability": "nonpayable",
      "type": "function"
    },
    {
      "inputs": [
        {
          "internalType": "address",
          "name": "",
          "type": "address"
        },
        {
          "internalType": "address",
          "name": "",
          "type": "address"
        }
      ],
      "name": "MasterClaimingWorker",
      "outputs": [
        {
          "internalType": "bool",
          "name": "",
          "type": "bool"
        }
      ],
      "stateMutability": "view",
      "type": "function"
    },
    {
      "inputs": [
        {
          "internalType": "address[]",
          "name": "_addresses",
          "type": "address[]"
        }
      ],
      "name": "MasterRemoveManySubs",
      "outputs": [],
      "stateMutability": "nonpayable",
      "type": "function"
    },
    {
      "inputs": [
        {
          "internalType": "address",
          "name": "_address",
          "type": "address"
        }
      ],
      "name": "MasterRemoveSub",
      "outputs": [],
      "stateMutability": "nonpayable",
      "type": "function"
    },
    {
      "inputs": [
        {
          "internalType": "address",
          "name": "",
          "type": "address"
        },
        {
          "internalType": "uint256",
          "name": "",
          "type": "uint256"
        }
      ],
      "name": "MasterToSubsMap",
      "outputs": [
        {
          "internalType": "address",
          "name": "",
          "type": "address"
        }
      ],
      "stateMutability": "view",
      "type": "function"
    },
    {
      "inputs": [],
      "name": "Parameters",
      "outputs": [
        {
          "internalType": "contract IParametersManager",
          "name": "",
          "type": "address"
        }
      ],
      "stateMutability": "view",
      "type": "function"
    },
    {
      "inputs": [
        {
          "internalType": "address",
          "name": "_master",
          "type": "address"
        }
      ],
      "name": "RemoveMaster",
      "outputs": [],
      "stateMutability": "nonpayable",
      "type": "function"
    },
    {
      "inputs": [
        {
          "internalType": "address",
          "name": "",
          "type": "address"
        }
      ],
      "name": "SubToMasterMap",
      "outputs": [
        {
          "internalType": "address",
          "name": "",
          "type": "address"
        }
      ],
      "stateMutability": "view",
      "type": "function"
    },
    {
      "inputs": [
        {
          "internalType": "address",
          "name": "",
          "type": "address"
        },
        {
          "internalType": "address",
          "name": "",
          "type": "address"
        }
      ],
      "name": "WorkerClaimingMaster",
      "outputs": [
        {
          "internalType": "bool",
          "name": "",
          "type": "bool"
        }
      ],
      "stateMutability": "view",
      "type": "function"
    },
    {
      "inputs": [
        {
          "internalType": "address",
          "name": "_worker",
          "type": "address"
        }
      ],
      "name": "getMaster",
      "outputs": [
        {
          "internalType": "address",
          "name": "",
          "type": "address"
        }
      ],
      "stateMutability": "view",
      "type": "function"
    },
    {
      "inputs": [
        {
          "internalType": "address",
          "name": "_master",
          "type": "address"
        }
      ],
      "name": "getMasterSubs",
      "outputs": [
        {
          "internalType": "address[]",
          "name": "",
          "type": "address[]"
        }
      ],
      "stateMutability": "view",
      "type": "function"
    },
    {
      "inputs": [
        {
          "internalType": "address",
          "name": "_master",
          "type": "address"
        },
        {
          "internalType": "address",
          "name": "_address",
          "type": "address"
        }
      ],
      "name": "isMasterOf",
      "outputs": [
        {
          "internalType": "bool",
          "name": "",
          "type": "bool"
        }
      ],
      "stateMutability": "view",
      "type": "function"
    },
    {
      "inputs": [
        {
          "internalType": "address",
          "name": "_master",
          "type": "address"
        }
      ],
      "name": "isMasterOfMe",
      "outputs": [
        {
          "internalType": "bool",
          "name": "",
          "type": "bool"
        }
      ],
      "stateMutability": "view",
      "type": "function"
    },
    {
      "inputs": [
        {
          "internalType": "address",
          "name": "_worker",
          "type": "address"
        },
        {
          "internalType": "address",
          "name": "_master",
          "type": "address"
        }
      ],
      "name": "isSubInMasterArray",
      "outputs": [
        {
          "internalType": "bool",
          "name": "",
          "type": "bool"
        }
      ],
      "stateMutability": "view",
      "type": "function"
    },
    {
      "inputs": [
        {
          "internalType": "address",
          "name": "_master",
          "type": "address"
        },
        {
          "internalType": "address",
          "name": "_address",
          "type": "address"
        }
      ],
      "name": "isSubWorkerOf",
      "outputs": [
        {
          "internalType": "bool",
          "name": "",
          "type": "bool"
        }
      ],
      "stateMutability": "view",
      "type": "function"
    },
    {
      "inputs": [
        {
          "internalType": "address",
          "name": "_worker",
          "type": "address"
        }
      ],
      "name": "isSubWorkerOfMe",
      "outputs": [
        {
          "internalType": "bool",
          "name": "",
          "type": "bool"
        }
      ],
      "stateMutability": "view",
      "type": "function"
    },
    {
      "inputs": [],
      "name": "owner",
      "outputs": [
        {
          "internalType": "address",
          "name": "",
          "type": "address"
        }
      ],
      "stateMutability": "view",
      "type": "function"
    },
    {
      "inputs": [],
      "name": "renounceOwnership",
      "outputs": [],
      "stateMutability": "nonpayable",
      "type": "function"
    },
    {
      "inputs": [
        {
          "internalType": "address",
          "name": "newOwner",
          "type": "address"
        }
      ],
      "name": "transferOwnership",
      "outputs": [],
      "stateMutability": "nonpayable",
      "type": "function"
    },
    {
      "inputs": [
        {
          "internalType": "address",
          "name": "addr",
          "type": "address"
        }
      ],
      "name": "updateParametersManager",
      "outputs": [],
      "stateMutability": "nonpayable",
      "type": "function"
    }
  ],
  "bytecode": "0x60806040526005805534801561001457600080fd5b5061001e33610023565b610073565b600080546001600160a01b038381166001600160a01b0319831681178455604051919092169283917f8be0079c531659141344cd1fd0a4f28419497f9722a3daafe3b4186f6b6457e09190a35050565b611c93806100826000396000f3fe608060405234801561001057600080fd5b50600436106101585760003560e01c80638213b8d8116100c3578063df77a0f61161007c578063df77a0f61461034f578063e4f1d0fd14610362578063f25e9ed21461038b578063f2fde38b146103b7578063f77c8658146103ca578063ff43de9d146103dd57600080fd5b80638213b8d8146102ce5780638da5cb5b146102e157806396daff56146102f25780639f62c37914610305578063ac8d65cb146102f2578063db5198241461031857600080fd5b80632e3ce457116101155780632e3ce4571461024c578063342bffbf1461025f57806339c3f6e71461028d5780634826d043146102a0578063584720f5146102b3578063715018a6146102c657600080fd5b8063059576231461015d5780630c06e4df1461017257806311815086146101c057806312ccb147146101eb5780631778f9c8146101fe578063198ff3dc1461022c575b600080fd5b61017061016b36600461194a565b6103f0565b005b6101ab61018036600461194a565b3360009081526001602090815260408083206001600160a01b03949094168352929052205460ff1690565b60405190151581526020015b60405180910390f35b6101d36101ce36600461194a565b610458565b6040516001600160a01b0390911681526020016101b7565b6101706101f936600461194a565b61054e565b6101ab61020c366004611967565b600260209081526000928352604080842090915290825290205460ff1681565b61023f61023a36600461194a565b6105db565b6040516101b791906119a0565b6101d361025a3660046119ed565b610651565b6101ab61026d366004611967565b600160209081526000928352604080842090915290825290205460ff1681565b61017061029b366004611a2f565b610689565b6101706102ae36600461194a565b610820565b6101706102c136600461194a565b61091e565b610170610a19565b6101706102dc366004611a2f565b610a4f565b6000546001600160a01b03166101d3565b6101ab610300366004611967565b610bb0565b6101ab610313366004611967565b610bde565b6101ab61032636600461194a565b6001600160a01b0316600090815260016020908152604080832033845290915290205460ff1690565b61017061035d36600461194a565b610c02565b6101d361037036600461194a565b6004602052600090815260409020546001600160a01b031681565b6101d361039936600461194a565b6001600160a01b039081166000908152600460205260409020541690565b6101706103c536600461194a565b610c99565b6101ab6103d8366004611967565b610d34565b6006546101d3906001600160a01b031681565b6000546001600160a01b031633146104235760405162461bcd60e51b815260040161041a90611af4565b60405180910390fd5b6001600160a01b03811661043657600080fd5b600680546001600160a01b0319166001600160a01b0392909216919091179055565b60006001600160a01b0382166104d65760405162461bcd60e51b815260206004820152603e60248201527f4665746368486967686573744d61737465723a20696e707574205f776f726b6560448201527f72206e6565647320746f206265206e6f6e206e756c6c20616464726573730000606482015260840161041a565b6001600160a01b0380831660009081526004602052604090205460055491169083905b6001600160a01b038316158015906105115750600081115b15610546576001600160a01b038084166000908152600460205260409020541692915061053f600182611b3f565b90506104f9565b509392505050565b3360008181526001602081815260408084206001600160a01b038716808652908352818520805460ff191685179055858552600383528185208054948501815585529382902090920180546001600160a01b0319168417905590519182527f8902b85532bfc55a9f5b6e6a9576366640928b3be984b3a61167a210ca2bbc5791015b60405180910390a250565b6001600160a01b03811660009081526003602090815260409182902080548351818402810184019094528084526060939283018282801561064557602002820191906000526020600020905b81546001600160a01b03168152600190910190602001808311610627575b50505050509050919050565b6003602052816000526040600020818154811061066d57600080fd5b6000918252602090912001546001600160a01b03169150829050565b60005b815181101561081c5733600090815260016020526040812083519091908490849081106106bb576106bb611b56565b6020908102919091018101516001600160a01b031682528101919091526040016000205460ff16151560011461080a57336000908152600160208190526040822084519192909185908590811061071457610714611b56565b6020908102919091018101516001600160a01b031682528181019290925260409081016000908120805460ff19169415159490941790935533835260039091529020825183908390811061076a5761076a611b56565b60209081029190910181015182546001810184556000938452919092200180546001600160a01b0319166001600160a01b03909216919091179055815133907f8902b85532bfc55a9f5b6e6a9576366640928b3be984b3a61167a210ca2bbc57908490849081106107dd576107dd611b56565b602002602001015160405161080191906001600160a01b0391909116815260200190565b60405180910390a25b8061081481611b6c565b91505061068c565b5050565b3360009081526001602090815260408083206001600160a01b038516845290915290205460ff166108ae5760405162461bcd60e51b815260206004820152603260248201527f43616e27742072656d6f76653a204d6173746572206e6f7420636c61696d696e60448201527167207468697320537562204164647265737360701b606482015260840161041a565b3360008181526001602090815260408083206001600160a01b03861684529091529020805460ff191690556108e39082610e0b565b6040516001600160a01b038216815233907f7a24ac72e272dd8c83b793ae84448c72032b95723856486219c79dd722fe4292906020016105d0565b6001600160a01b038116600090815260026020908152604080832033845290915290205460ff166109a85760405162461bcd60e51b815260206004820152602e60248201527f43616e27742072656d6f7665204d61737465723a206e6f7420636c61696d696e60448201526d672074686973206164647265737360901b606482015260840161041a565b6001600160a01b038116600081815260026020908152604080832033808552908352818420805460ff19169055600483529281902080546001600160a01b03191690555192835290917f0d7169440daf0897d7f4486a35eef15a070460981ff18ab846aa2199f171118e91016105d0565b6000546001600160a01b03163314610a435760405162461bcd60e51b815260040161041a90611af4565b610a4d6000610f81565b565b60005b815181101561081c573360009081526001602052604081208351909190849084908110610a8157610a81611b56565b6020908102919091018101516001600160a01b031682528101919091526040016000205460ff1615610b9e5733600090815260016020526040812083518290859085908110610ad257610ad2611b56565b60200260200101516001600160a01b03166001600160a01b0316815260200190815260200160002060006101000a81548160ff021916908315150217905550610b3433838381518110610b2757610b27611b56565b6020026020010151610e0b565b336001600160a01b03167f7a24ac72e272dd8c83b793ae84448c72032b95723856486219c79dd722fe4292838381518110610b7157610b71611b56565b6020026020010151604051610b9591906001600160a01b0391909116815260200190565b60405180910390a25b80610ba881611b6c565b915050610a52565b6001600160a01b03918216600090815260016020908152604080832093909416825291909152205460ff1690565b6000610bea8383610bb0565b8015610bfb5750610bfb8383610bb0565b9392505050565b6001600160a01b038116600081815260026020908152604080832033808552908352818420805460ff19166001179055600490925290912080546001600160a01b031916909217909155610c5590610fd1565b610c5e33611574565b6040516001600160a01b038216815233907f85851bdf5239daecee00c49afa200b87f208a1cc246f3c3da177796c9f605d73906020016105d0565b6000546001600160a01b03163314610cc35760405162461bcd60e51b815260040161041a90611af4565b6001600160a01b038116610d285760405162461bcd60e51b815260206004820152602660248201527f4f776e61626c653a206e6577206f776e657220697320746865207a65726f206160448201526564647265737360d01b606482015260840161041a565b610d3181610f81565b50565b6001600160a01b0381166000908152600360209081526040808320805482518185028101850190935280835284938493929190830182828015610da057602002820191906000526020600020905b81546001600160a01b03168152600190910190602001808311610d82575b5050505050905060005b8151811015610e0157856001600160a01b0316828281518110610dcf57610dcf611b56565b60200260200101516001600160a01b03161415610def5760019250610e01565b80610df981611b6c565b915050610daa565b5090949350505050565b60008060005b6001600160a01b038516600090815260036020526040902054811015610e99576001600160a01b03858116600090815260036020526040902080549186169183908110610e6057610e60611b56565b6000918252602090912001546001600160a01b03161415610e875760019150809250610e99565b80610e9181611b6c565b915050610e11565b508015610f7b576001600160a01b03841660009081526003602052604090208054610ec690600190611b3f565b81548110610ed657610ed6611b56565b60009182526020808320909101546001600160a01b03878116845260039092526040909220805491909216919084908110610f1357610f13611b56565b600091825260208083209190910180546001600160a01b0319166001600160a01b039485161790559186168152600390915260409020805480610f5857610f58611b87565b600082815260209020810160001990810180546001600160a01b03191690550190555b50505050565b600080546001600160a01b038381166001600160a01b0319831681178455604051919092169283917f8be0079c531659141344cd1fd0a4f28419497f9722a3daafe3b4186f6b6457e09190a35050565b60065460408051630855d15160e01b815290516000926001600160a01b031691630855d151916004808301926020929190829003018186803b15801561101657600080fd5b505afa15801561102a573d6000803e3d6000fd5b505050506040513d601f19601f8201168201806040525081019061104e9190611b9d565b6001600160a01b031614156110a55760405162461bcd60e51b815260206004820181905260248201527f5265704d616e61676572206973206e756c6c20696e20506172616d6574657273604482015260640161041a565b6006546040805163e992dca760e01b815290516000926001600160a01b03169163e992dca7916004808301926020929190829003018186803b1580156110ea57600080fd5b505afa1580156110fe573d6000803e3d6000fd5b505050506040513d601f19601f820116820180604052508101906111229190611b9d565b6001600160a01b031614156111795760405162461bcd60e51b815260206004820181905260248201527f5265704d616e61676572206973206e756c6c20696e20506172616d6574657273604482015260640161041a565b60065460408051630855d15160e01b815290516000926001600160a01b031691630855d151916004808301926020929190829003018186803b1580156111be57600080fd5b505afa1580156111d2573d6000803e3d6000fd5b505050506040513d601f19601f820116820180604052508101906111f69190611b9d565b90506000600660009054906101000a90046001600160a01b03166001600160a01b031663e992dca76040518163ffffffff1660e01b815260040160206040518083038186803b15801561124857600080fd5b505afa15801561125c573d6000803e3d6000fd5b505050506040513d601f19601f820116820180604052508101906112809190611b9d565b6001600160a01b03848116600090815260046020526040902054919250166112ba5760405162461bcd60e51b815260040161041a90611bba565b6040516370a0823160e01b81526001600160a01b038481166004830152600091908316906370a082319060240160206040518083038186803b1580156112ff57600080fd5b505afa158015611313573d6000803e3d6000fd5b505050506040513d601f19601f820116820180604052508101906113379190611c22565b9050600061134485610458565b9050811561156d57604051630db6cc8560e11b8152600481018390526001600160a01b03828116602483015260006044830152851690631b6d990a90606401602060405180830381600087803b15801561139d57600080fd5b505af11580156113b1573d6000803e3d6000fd5b505050506040513d601f19601f820116820180604052508101906113d59190611c3b565b61143b5760405162461bcd60e51b815260206004820152603160248201527f5472616e73666572526570546f4d61737465723a20636f756c64206e6f74206d60448201527034b73a102932b8103a379036b0b9ba32b960791b606482015260840161041a565b60405163171bcfc360e21b8152600481018390526001600160a01b03868116602483015260006044830152851690635c6f3f0c90606401602060405180830381600087803b15801561148c57600080fd5b505af11580156114a0573d6000803e3d6000fd5b505050506040513d601f19601f820116820180604052508101906114c49190611c3b565b61152c5760405162461bcd60e51b815260206004820152603360248201527f5472616e73666572526570546f4d61737465723a20636f756c64206e6f7420626044820152723ab937102932b810333937b6903bb7b935b2b960691b606482015260840161041a565b6040516001600160a01b0382811682528616907fc587680578b3acb8eeb1ab421a6921efe2a32b10903016ebd6c3f39e51cd1d969060200160405180910390a25b5050505050565b600654604080516304e76c8f60e01b815290516000926001600160a01b0316916304e76c8f916004808301926020929190829003018186803b1580156115b957600080fd5b505afa1580156115cd573d6000803e3d6000fd5b505050506040513d601f19601f820116820180604052508101906115f19190611b9d565b6001600160a01b031614156116545760405162461bcd60e51b815260206004820152602360248201527f5265776172644d616e61676572206973206e756c6c20696e20506172616d657460448201526265727360e81b606482015260840161041a565b600654604080516304e76c8f60e01b815290516000926001600160a01b0316916304e76c8f916004808301926020929190829003018186803b15801561169957600080fd5b505afa1580156116ad573d6000803e3d6000fd5b505050506040513d601f19601f820116820180604052508101906116d19190611b9d565b90506001600160a01b0381166117295760405162461bcd60e51b815260206004820152601f60248201527f5265776172644d616e61676572206e6565647320746f20626520736574757000604482015260640161041a565b6001600160a01b03828116600090815260046020526040902054166117605760405162461bcd60e51b815260040161041a90611bba565b604051633b4febfb60e21b81526001600160a01b0383811660048301526000919083169063ed3fafec90602401602060405180830381600087803b1580156117a757600080fd5b505af11580156117bb573d6000803e3d6000fd5b505050506040513d601f19601f820116820180604052508101906117df9190611c22565b905060006117ec84610458565b90508115610f7b57604051635f28bad560e01b81526001600160a01b0385811660048301528281166024830152841690635f28bad590604401602060405180830381600087803b15801561183f57600080fd5b505af1158015611853573d6000803e3d6000fd5b505050506040513d601f19601f820116820180604052508101906118779190611c3b565b6118df5760405162461bcd60e51b815260206004820152603360248201527f5472616e7366657252657761726473546f4d61737465723a20636f756c64206e6044820152726f74207472616e73666572207265776172647360681b606482015260840161041a565b6040516001600160a01b0382811682528516907f04b22084ec80e4b31b47cb8c65cd44c4e4e2840e20dffcbd81bd7d048b74fb4e9060200160405180910390a250505050565b6001600160a01b0381168114610d3157600080fd5b803561194581611925565b919050565b60006020828403121561195c57600080fd5b8135610bfb81611925565b6000806040838503121561197a57600080fd5b823561198581611925565b9150602083013561199581611925565b809150509250929050565b6020808252825182820181905260009190848201906040850190845b818110156119e15783516001600160a01b0316835292840192918401916001016119bc565b50909695505050505050565b60008060408385031215611a0057600080fd5b8235611a0b81611925565b946020939093013593505050565b634e487b7160e01b600052604160045260246000fd5b60006020808385031215611a4257600080fd5b823567ffffffffffffffff80821115611a5a57600080fd5b818501915085601f830112611a6e57600080fd5b813581811115611a8057611a80611a19565b8060051b604051601f19603f83011681018181108582111715611aa557611aa5611a19565b604052918252848201925083810185019188831115611ac357600080fd5b938501935b82851015611ae857611ad98561193a565b84529385019392850192611ac8565b98975050505050505050565b6020808252818101527f4f776e61626c653a2063616c6c6572206973206e6f7420746865206f776e6572604082015260600190565b634e487b7160e01b600052601160045260246000fd5b600082821015611b5157611b51611b29565b500390565b634e487b7160e01b600052603260045260246000fd5b6000600019821415611b8057611b80611b29565b5060010190565b634e487b7160e01b600052603160045260246000fd5b600060208284031215611baf57600080fd5b8151610bfb81611925565b60208082526042908201527f5472616e73666572526570546f4d61737465723a20696e707574205f776f726b60408201527f6572206e6565647320746f20686176652061206e6f6e2d6e756c6c206d61737460608201526132b960f11b608082015260a00190565b600060208284031215611c3457600080fd5b5051919050565b600060208284031215611c4d57600080fd5b81518015158114610bfb57600080fdfea26469706673582212201150d40de0e9fccc2ed6747b5d0dbff4b408955b021e4200ec78a37aa99a243664736f6c63430008080033",
  "linkReferences": {},
  "deployedLinkReferences": {}
}