{
  "_format": "hh-sol-artifact-1",
  "contractName": "RewardsManager",
  "sourceName": "contracts/worksystems/RewardsManager.sol",
  "abi": [
    {
      "inputs": [
        {
          "internalType": "address",
          "name": "EXD_token",
          "type": "address"
        }
      ],
      "stateMutability": "nonpayable",
      "type": "constructor"
    },
    {
      "anonymous": false,
      "inputs": [
        {
          "indexed": true,
          "internalType": "address",
          "name": "previousOwner",
          "type": "address"
        },
        {
          "indexed": true,
          "internalType": "address",
          "name": "newOwner",
          "type": "address"
        }
      ],
      "name": "OwnershipTransferred",
      "type": "event"
    },
    {
      "anonymous": false,
      "inputs": [
        {
          "indexed": true,
          "internalType": "address",
          "name": "account",
          "type": "address"
        },
        {
          "indexed": false,
          "internalType": "bool",
          "name": "isWhitelisted",
          "type": "bool"
        }
      ],
      "name": "RewardsUnWhitelisted",
      "type": "event"
    },
    {
      "anonymous": false,
      "inputs": [
        {
          "indexed": true,
          "internalType": "address",
          "name": "account",
          "type": "address"
        },
        {
          "indexed": false,
          "internalType": "bool",
          "name": "isWhitelisted",
          "type": "bool"
        }
      ],
      "name": "RewardsWhitelisted",
      "type": "event"
    },
    {
      "anonymous": false,
      "inputs": [
        {
          "indexed": false,
          "internalType": "bytes32",
          "name": "name",
          "type": "bytes32"
        },
        {
          "indexed": false,
          "internalType": "uint256",
          "name": "timestamp",
          "type": "uint256"
        }
      ],
      "name": "UserRegistered",
      "type": "event"
    },
    {
      "anonymous": false,
      "inputs": [
        {
          "indexed": false,
          "internalType": "bytes32",
          "name": "name",
          "type": "bytes32"
        }
      ],
      "name": "UserTransferred",
      "type": "event"
    },
    {
      "inputs": [],
      "name": "AddressManager",
      "outputs": [
        {
          "internalType": "contract IAddressManager",
          "name": "",
          "type": "address"
        }
      ],
      "stateMutability": "view",
      "type": "function"
    },
    {
      "inputs": [],
      "name": "GetTotalGivenRewards",
      "outputs": [
        {
          "internalType": "uint256",
          "name": "",
          "type": "uint256"
        }
      ],
      "stateMutability": "view",
      "type": "function"
    },
    {
      "inputs": [],
      "name": "ManagerBalance",
      "outputs": [
        {
          "internalType": "uint256",
          "name": "",
          "type": "uint256"
        }
      ],
      "stateMutability": "view",
      "type": "function"
    },
    {
      "inputs": [
        {
          "internalType": "uint256",
          "name": "rep",
          "type": "uint256"
        },
        {
          "internalType": "address",
          "name": "_user",
          "type": "address"
        }
      ],
      "name": "OwnerAddRewards",
      "outputs": [],
      "stateMutability": "nonpayable",
      "type": "function"
    },
    {
      "inputs": [
        {
          "internalType": "uint256",
          "name": "rep",
          "type": "uint256"
        },
        {
          "internalType": "address",
          "name": "_user",
          "type": "address"
        }
      ],
      "name": "OwnerRemoveRewards",
      "outputs": [],
      "stateMutability": "nonpayable",
      "type": "function"
    },
    {
      "inputs": [
        {
          "internalType": "address",
          "name": "_user",
          "type": "address"
        }
      ],
      "name": "OwnerResetRewards",
      "outputs": [],
      "stateMutability": "nonpayable",
      "type": "function"
    },
    {
      "inputs": [
        {
          "internalType": "uint256",
          "name": "_numTokens",
          "type": "uint256"
        }
      ],
      "name": "OwnerWithdraw",
      "outputs": [],
      "stateMutability": "nonpayable",
      "type": "function"
    },
    {
      "inputs": [],
      "name": "OwnerWithdrawAllRewards",
      "outputs": [],
      "stateMutability": "nonpayable",
      "type": "function"
    },
    {
      "inputs": [
        {
          "internalType": "uint256",
          "name": "_RewardsAllocation",
          "type": "uint256"
        },
        {
          "internalType": "address",
          "name": "_user",
          "type": "address"
        }
      ],
      "name": "ProxyAddReward",
      "outputs": [
        {
          "internalType": "bool",
          "name": "",
          "type": "bool"
        }
      ],
      "stateMutability": "nonpayable",
      "type": "function"
    },
    {
      "inputs": [
        {
          "internalType": "address",
          "name": "_address",
          "type": "address"
        }
      ],
      "name": "RewardsBalanceOf",
      "outputs": [
        {
          "internalType": "uint256",
          "name": "",
          "type": "uint256"
        }
      ],
      "stateMutability": "view",
      "type": "function"
    },
    {
      "inputs": [],
      "name": "WithdrawAllRewards",
      "outputs": [],
      "stateMutability": "nonpayable",
      "type": "function"
    },
    {
      "inputs": [
        {
          "internalType": "uint256",
          "name": "_numTokens",
          "type": "uint256"
        }
      ],
      "name": "WithdrawRewards",
      "outputs": [],
      "stateMutability": "nonpayable",
      "type": "function"
    },
    {
      "inputs": [
        {
          "internalType": "uint256",
          "name": "_numTokens",
          "type": "uint256"
        },
        {
          "internalType": "address",
          "name": "_worker",
          "type": "address"
        }
      ],
      "name": "WithdrawSubworker",
      "outputs": [],
      "stateMutability": "nonpayable",
      "type": "function"
    },
    {
      "inputs": [
        {
          "internalType": "address",
          "name": "_address",
          "type": "address"
        }
      ],
      "name": "addAddress",
      "outputs": [],
      "stateMutability": "nonpayable",
      "type": "function"
    },
    {
      "inputs": [
        {
          "internalType": "uint256",
          "name": "_numTokens",
          "type": "uint256"
        }
      ],
      "name": "deposit",
      "outputs": [],
      "stateMutability": "nonpayable",
      "type": "function"
    },
    {
      "inputs": [
        {
          "internalType": "address",
          "name": "_address",
          "type": "address"
        }
      ],
      "name": "isRewardsWhitelisted",
      "outputs": [
        {
          "internalType": "bool",
          "name": "",
          "type": "bool"
        }
      ],
      "stateMutability": "view",
      "type": "function"
    },
    {
      "inputs": [],
      "name": "owner",
      "outputs": [
        {
          "internalType": "address",
          "name": "",
          "type": "address"
        }
      ],
      "stateMutability": "view",
      "type": "function"
    },
    {
      "inputs": [
        {
          "internalType": "address",
          "name": "_address",
          "type": "address"
        }
      ],
      "name": "removeAddress",
      "outputs": [],
      "stateMutability": "nonpayable",
      "type": "function"
    },
    {
      "inputs": [],
      "name": "renounceOwnership",
      "outputs": [],
      "stateMutability": "nonpayable",
      "type": "function"
    },
    {
      "inputs": [
        {
          "internalType": "address",
          "name": "",
          "type": "address"
        }
      ],
      "name": "rewards",
      "outputs": [
        {
          "internalType": "uint256",
          "name": "",
          "type": "uint256"
        }
      ],
      "stateMutability": "view",
      "type": "function"
    },
    {
      "inputs": [],
      "name": "token",
      "outputs": [
        {
          "internalType": "contract IERC20",
          "name": "",
          "type": "address"
        }
      ],
      "stateMutability": "view",
      "type": "function"
    },
    {
      "inputs": [
        {
          "internalType": "address",
          "name": "newOwner",
          "type": "address"
        }
      ],
      "name": "transferOwnership",
      "outputs": [],
      "stateMutability": "nonpayable",
      "type": "function"
    },
    {
      "inputs": [
        {
          "internalType": "address",
          "name": "addr",
          "type": "address"
        }
      ],
      "name": "updateAddressManager",
      "outputs": [],
      "stateMutability": "nonpayable",
      "type": "function"
    },
    {
      "inputs": [
        {
          "internalType": "address",
          "name": "_worker",
          "type": "address"
        }
      ],
      "name": "withdrawSubworkerAllRewards",
      "outputs": [],
      "stateMutability": "nonpayable",
      "type": "function"
    }
  ],
  "bytecode": "0x60806040526000600455600060055534801561001a57600080fd5b50604051611758380380611758833981016040819052610039916100b7565b61004233610067565b600280546001600160a01b0319166001600160a01b03929092169190911790556100e7565b600080546001600160a01b038381166001600160a01b0319831681178455604051919092169283917f8be0079c531659141344cd1fd0a4f28419497f9722a3daafe3b4186f6b6457e09190a35050565b6000602082840312156100c957600080fd5b81516001600160a01b03811681146100e057600080fd5b9392505050565b611662806100f66000396000f3fe608060405234801561001057600080fd5b50600436106101585760003560e01c8063a20809e6116100c3578063d42c362a1161007c578063d42c362a146102e8578063e0ca5094146102f1578063e6c3e97b14610304578063ed3fafec14610317578063f2fde38b14610340578063fc0c546a1461035357600080fd5b8063a20809e61461028c578063af1e1f3f1461029f578063b6b55f25146102a7578063c416b3f7146102ba578063c47c4bc2146102c2578063ce73f107146102d557600080fd5b806363ba80ad1161011557806363ba80ad146101e657806366d2a1a0146101f9578063715018a61461020c57806371f084db146102145780637a34da67146102505780638da5cb5b1461027b57600080fd5b806302d648f41461015d5780630700037d146101725780631669cd4a146101a557806338eada1c146101ad57806340e76636146101c05780634ba79dfe146101d3575b600080fd5b61017061016b3660046114d1565b610366565b005b6101926101803660046114d1565b60036020526000908152604090205481565b6040519081526020015b60405180910390f35b600554610192565b6101706101bb3660046114d1565b6105b3565b6101706101ce3660046114ec565b6106cf565b6101706101e13660046114d1565b61083b565b6101706101f43660046114ec565b61093a565b6101706102073660046114d1565b6109a4565b6101706109e8565b6102406102223660046114d1565b6001600160a01b031660009081526006602052604090205460ff1690565b604051901515815260200161019c565b600154610263906001600160a01b031681565b6040516001600160a01b03909116815260200161019c565b6000546001600160a01b0316610263565b61017061029a366004611518565b610a1e565b610170610b4c565b6101706102b5366004611518565b610cfe565b610170610eed565b6101706102d03660046114d1565b61100e565b6101706102e33660046114ec565b61105a565b61019260045481565b6102406102ff3660046114ec565b6110a7565b610170610312366004611518565b611202565b6101926103253660046114d1565b6001600160a01b031660009081526003602052604090205490565b61017061034e3660046114d1565b6113ae565b600254610263906001600160a01b031681565b6001546001600160a01b03166103c35760405162461bcd60e51b815260206004820152601b60248201527f416464726573734d616e61676572206973206e6f74207365747570000000000060448201526064015b60405180910390fd5b6001600160a01b03811660009081526003602052604090205460045410156104405760405162461bcd60e51b815260206004820152602a60248201527f4d616e6167657242616c616e63652068617320746f206265203e3d20776f726b6044820152696572207265776172647360b01b60648201526084016103ba565b60015460405163166eeeb960e31b81523360048201526001600160a01b0383811660248301529091169063b37775c890604401602060405180830381600087803b15801561048d57600080fd5b505af11580156104a1573d6000803e3d6000fd5b505050506040513d601f19601f820116820180604052508101906104c59190611531565b6104ce57600080fd5b336000818152600360205260408082208054929055600254905163a9059cbb60e01b815260048101939093526024830182905290916001600160a01b039091169063a9059cbb906044015b602060405180830381600087803b15801561053357600080fd5b505af1158015610547573d6000803e3d6000fd5b505050506040513d601f19601f8201168201806040525081019061056b9190611531565b6105af5760405162461bcd60e51b8152602060048201526015602482015274151bdad95b88151c985b9cd9995c8819985a5b1959605a1b60448201526064016103ba565b5050565b6000546001600160a01b031633146105dd5760405162461bcd60e51b81526004016103ba90611553565b6001600160a01b03811660009081526006602052604090205460ff161515600114156106715760405162461bcd60e51b815260206004820152603760248201527f526577617264734d616e616765723a2061646472657373206d757374206e6f7460448201527f2062652077686974656c697374656420616c726561647900000000000000000060648201526084016103ba565b6001600160a01b038116600081815260066020908152604091829020805460ff1916600190811790915591519182527faca247a6f5a4ff76768a3d69d18ba197c34106ff9efaa8fd1335d9fb6b5fffb791015b60405180910390a250565b6001546001600160a01b03166107275760405162461bcd60e51b815260206004820152601b60248201527f416464726573734d616e61676572206973206e6f74207365747570000000000060448201526064016103ba565b8160045410156107495760405162461bcd60e51b81526004016103ba90611588565b60015460405163166eeeb960e31b81523360048201526001600160a01b0383811660248301529091169063b37775c890604401602060405180830381600087803b15801561079657600080fd5b505af11580156107aa573d6000803e3d6000fd5b505050506040513d601f19601f820116820180604052508101906107ce9190611531565b6107d757600080fd5b6001600160a01b038116600090815260036020526040812080548492906107ff9084906115e4565b909155505060025460405163a9059cbb60e01b8152336004820152602481018490526001600160a01b039091169063a9059cbb90604401610519565b6000546001600160a01b031633146108655760405162461bcd60e51b81526004016103ba90611553565b6001600160a01b03811660009081526006602052604090205460ff166108eb5760405162461bcd60e51b815260206004820152603560248201527f526577617264734d616e616765723a2061646472657373206d7573742062652060448201527477686974656c697374656420746f2072656d6f766560581b60648201526084016103ba565b6001600160a01b0381166000818152600660209081526040808320805460ff19169055519182527fbfd94cc4e61230b7365236ffec9a8be4c83a297f22e63e7c30403894df1329c391016106c4565b6000546001600160a01b031633146109645760405162461bcd60e51b81526004016103ba90611553565b6001600160a01b0381166000908152600360205260409020546109879083611446565b6001600160a01b0390911660009081526003602052604090205550565b6000546001600160a01b031633146109ce5760405162461bcd60e51b81526004016103ba90611553565b6001600160a01b0316600090815260036020526040812055565b6000546001600160a01b03163314610a125760405162461bcd60e51b81526004016103ba90611553565b610a1c6000611459565b565b6000546001600160a01b03163314610a485760405162461bcd60e51b81526004016103ba90611553565b806004541015610a6a5760405162461bcd60e51b81526004016103ba90611588565b8060046000828254610a7c91906115e4565b909155505060025460405163a9059cbb60e01b8152336004820152602481018390526001600160a01b039091169063a9059cbb90604401602060405180830381600087803b158015610acd57600080fd5b505af1158015610ae1573d6000803e3d6000fd5b505050506040513d601f19601f82011682018060405250810190610b059190611531565b610b495760405162461bcd60e51b8152602060048201526015602482015274151bdad95b88151c985b9cd9995c8819985a5b1959605a1b60448201526064016103ba565b50565b336000908152600360205260409020546004541015610bf05760405162461bcd60e51b815260206004820152605460248201527f526577617264734d616e616765723a205769746864726177416c6c526577617260448201527f64732d2072657175697265204d616e6167657242616c616e6365203e3d205f6e606482015273756d546f6b656e7320746f20776974686472617760601b608482015260a4016103ba565b336000818152600360205260408082208054929055600254905163a9059cbb60e01b815260048101939093526024830182905290916001600160a01b039091169063a9059cbb90604401602060405180830381600087803b158015610c5457600080fd5b505af1158015610c68573d6000803e3d6000fd5b505050506040513d601f19601f82011682018060405250810190610c8c9190611531565b610b495760405162461bcd60e51b815260206004820152603c60248201527f526577617264734d616e616765723a205769746864726177416c6c526577617260448201527f64732d206572726f72207472616e73666572696e6720746f6b656e730000000060648201526084016103ba565b6002546040516370a0823160e01b815233600482015282916001600160a01b0316906370a082319060240160206040518083038186803b158015610d4157600080fd5b505afa158015610d55573d6000803e3d6000fd5b505050506040513d601f19601f82011682018060405250810190610d7991906115fb565b1015610de15760405162461bcd60e51b815260206004820152603160248201527f526577617264734d616e616765723a2073656e64657220646f65736e2774206860448201527061766520656e6f75676820746f6b656e7360781b60648201526084016103ba565b8060046000828254610df39190611614565b90915550506002546040516323b872dd60e01b8152336004820152306024820152604481018390526001600160a01b03909116906323b872dd90606401602060405180830381600087803b158015610e4a57600080fd5b505af1158015610e5e573d6000803e3d6000fd5b505050506040513d601f19601f82011682018060405250810190610e829190611531565b610b495760405162461bcd60e51b815260206004820152603660248201527f526577617264734d616e616765723a206572726f72207768656e206465706f736044820152756974696e6720766961205472616e7366657246726f6d60501b60648201526084016103ba565b6000546001600160a01b03163314610f175760405162461bcd60e51b81526004016103ba90611553565b600060045411610f695760405162461bcd60e51b815260206004820152601c60248201527f4d616e6167657242616c616e63652068617320746f206265203e20300000000060448201526064016103ba565b336000818152600360205260408082208054929055600254905163a9059cbb60e01b815260048101939093526024830182905290916001600160a01b039091169063a9059cbb90604401602060405180830381600087803b158015610fcd57600080fd5b505af1158015610fe1573d6000803e3d6000fd5b505050506040513d601f19601f820116820180604052508101906110059190611531565b610b4957600080fd5b6000546001600160a01b031633146110385760405162461bcd60e51b81526004016103ba90611553565b600180546001600160a01b0319166001600160a01b0392909216919091179055565b6000546001600160a01b031633146110845760405162461bcd60e51b81526004016103ba90611553565b6001600160a01b03811660009081526003602052604090205461098790836114a9565b3360009081526006602052604081205460ff1661112c5760405162461bcd60e51b815260206004820152603760248201527f526577617264734d616e616765723a2073656e646572206d757374206265207760448201527f686974656c697374656420746f2050726f78792061637400000000000000000060648201526084016103ba565b6000831161118b5760405162461bcd60e51b815260206004820152602660248201527f7265776172647320746f20616c6c6f63617465206d75737420626520706f73696044820152653a34bb32971760d11b60648201526084016103ba565b82600454106111f8576004546111a19084611446565b6004556001600160a01b0382166000908152600360205260409020546111c790846114a9565b6001600160a01b0383166000908152600360205260409020556005546111ed90846114a9565b6005555060016111fc565b5060005b92915050565b8060045410156112945760405162461bcd60e51b815260206004820152605160248201527f526577617264734d616e616765723a205769746864726177526577617264732d60448201527f2072657175697265204d616e6167657242616c616e6365203e3d205f6e756d546064820152706f6b656e7320746f20776974686472617760781b608482015260a4016103ba565b33600090815260036020526040812080548392906112b39084906115e4565b909155505060025460405163a9059cbb60e01b8152336004820152602481018390526001600160a01b039091169063a9059cbb90604401602060405180830381600087803b15801561130457600080fd5b505af1158015611318573d6000803e3d6000fd5b505050506040513d601f19601f8201168201806040525081019061133c9190611531565b610b495760405162461bcd60e51b815260206004820152603960248201527f526577617264734d616e616765723a205769746864726177526577617264732d60448201527f206572726f72207472616e73666572696e6720746f6b656e730000000000000060648201526084016103ba565b6000546001600160a01b031633146113d85760405162461bcd60e51b81526004016103ba90611553565b6001600160a01b03811661143d5760405162461bcd60e51b815260206004820152602660248201527f4f776e61626c653a206e6577206f776e657220697320746865207a65726f206160448201526564647265737360d01b60648201526084016103ba565b610b4981611459565b600061145282846115e4565b9392505050565b600080546001600160a01b038381166001600160a01b0319831681178455604051919092169283917f8be0079c531659141344cd1fd0a4f28419497f9722a3daafe3b4186f6b6457e09190a35050565b60006114528284611614565b80356001600160a01b03811681146114cc57600080fd5b919050565b6000602082840312156114e357600080fd5b611452826114b5565b600080604083850312156114ff57600080fd5b8235915061150f602084016114b5565b90509250929050565b60006020828403121561152a57600080fd5b5035919050565b60006020828403121561154357600080fd5b8151801515811461145257600080fd5b6020808252818101527f4f776e61626c653a2063616c6c6572206973206e6f7420746865206f776e6572604082015260600190565b60208082526026908201527f4d616e6167657242616c616e63652068617320746f206265203e3d205f6e756d604082015265546f6b656e7360d01b606082015260800190565b634e487b7160e01b600052601160045260246000fd5b6000828210156115f6576115f66115ce565b500390565b60006020828403121561160d57600080fd5b5051919050565b60008219821115611627576116276115ce565b50019056fea2646970667358221220ad5e49f433b4ed349be406f000e1191ac71aab97f8c4ebc113be4cfd504a5be464736f6c63430008080033",
  "linkReferences": {},
  "deployedLinkReferences": {}
}