{
  "_format": "hh-sol-artifact-1",
  "contractName": "RewardsManager",
  "sourceName": "contracts/worksystems/RewardsManager.sol",
  "abi": [
    {
      "inputs": [
        {
          "internalType": "address",
          "name": "EXD_token",
          "type": "address"
        }
      ],
      "stateMutability": "nonpayable",
      "type": "constructor"
    },
    {
      "anonymous": false,
      "inputs": [
        {
          "indexed": true,
          "internalType": "address",
          "name": "previousOwner",
          "type": "address"
        },
        {
          "indexed": true,
          "internalType": "address",
          "name": "newOwner",
          "type": "address"
        }
      ],
      "name": "OwnershipTransferred",
      "type": "event"
    },
    {
      "anonymous": false,
      "inputs": [
        {
          "indexed": true,
          "internalType": "address",
          "name": "account",
          "type": "address"
        },
        {
          "indexed": false,
          "internalType": "bool",
          "name": "isWhitelisted",
          "type": "bool"
        }
      ],
      "name": "RewardsUnWhitelisted",
      "type": "event"
    },
    {
      "anonymous": false,
      "inputs": [
        {
          "indexed": true,
          "internalType": "address",
          "name": "account",
          "type": "address"
        },
        {
          "indexed": false,
          "internalType": "bool",
          "name": "isWhitelisted",
          "type": "bool"
        }
      ],
      "name": "RewardsWhitelisted",
      "type": "event"
    },
    {
      "anonymous": false,
      "inputs": [
        {
          "indexed": false,
          "internalType": "bytes32",
          "name": "name",
          "type": "bytes32"
        },
        {
          "indexed": false,
          "internalType": "uint256",
          "name": "timestamp",
          "type": "uint256"
        }
      ],
      "name": "UserRegistered",
      "type": "event"
    },
    {
      "anonymous": false,
      "inputs": [
        {
          "indexed": false,
          "internalType": "bytes32",
          "name": "name",
          "type": "bytes32"
        }
      ],
      "name": "UserTransferred",
      "type": "event"
    },
    {
      "inputs": [],
      "name": "AddressManager",
      "outputs": [
        {
          "internalType": "contract IAddressManager",
          "name": "",
          "type": "address"
        }
      ],
      "stateMutability": "view",
      "type": "function"
    },
    {
      "inputs": [],
      "name": "GetTotalGivenRewards",
      "outputs": [
        {
          "internalType": "uint256",
          "name": "",
          "type": "uint256"
        }
      ],
      "stateMutability": "view",
      "type": "function"
    },
    {
      "inputs": [],
      "name": "ManagerBalance",
      "outputs": [
        {
          "internalType": "uint256",
          "name": "",
          "type": "uint256"
        }
      ],
      "stateMutability": "view",
      "type": "function"
    },
    {
      "inputs": [
        {
          "internalType": "uint256",
          "name": "rep",
          "type": "uint256"
        },
        {
          "internalType": "address",
          "name": "_user",
          "type": "address"
        }
      ],
      "name": "OwnerAddRewards",
      "outputs": [],
      "stateMutability": "nonpayable",
      "type": "function"
    },
    {
      "inputs": [
        {
          "internalType": "uint256",
          "name": "rep",
          "type": "uint256"
        },
        {
          "internalType": "address",
          "name": "_user",
          "type": "address"
        }
      ],
      "name": "OwnerRemoveRewards",
      "outputs": [],
      "stateMutability": "nonpayable",
      "type": "function"
    },
    {
      "inputs": [
        {
          "internalType": "address",
          "name": "_user",
          "type": "address"
        }
      ],
      "name": "OwnerResetRewards",
      "outputs": [],
      "stateMutability": "nonpayable",
      "type": "function"
    },
    {
      "inputs": [
        {
          "internalType": "uint256",
          "name": "_numTokens",
          "type": "uint256"
        }
      ],
      "name": "OwnerWithdraw",
      "outputs": [],
      "stateMutability": "nonpayable",
      "type": "function"
    },
    {
      "inputs": [],
      "name": "OwnerWithdrawAllRewards",
      "outputs": [],
      "stateMutability": "nonpayable",
      "type": "function"
    },
    {
      "inputs": [
        {
          "internalType": "uint256",
          "name": "_RewardsAllocation",
          "type": "uint256"
        },
        {
          "internalType": "address",
          "name": "_user",
          "type": "address"
        }
      ],
      "name": "ProxyAddReward",
      "outputs": [
        {
          "internalType": "bool",
          "name": "",
          "type": "bool"
        }
      ],
      "stateMutability": "nonpayable",
      "type": "function"
    },
    {
      "inputs": [
        {
          "internalType": "address",
          "name": "_user",
          "type": "address"
        },
        {
          "internalType": "address",
          "name": "_recipient",
          "type": "address"
        }
      ],
      "name": "ProxyTransferRewards",
      "outputs": [
        {
          "internalType": "bool",
          "name": "",
          "type": "bool"
        }
      ],
      "stateMutability": "nonpayable",
      "type": "function"
    },
    {
      "inputs": [
        {
          "internalType": "address",
          "name": "_address",
          "type": "address"
        }
      ],
      "name": "RewardsBalanceOf",
      "outputs": [
        {
          "internalType": "uint256",
          "name": "",
          "type": "uint256"
        }
      ],
      "stateMutability": "view",
      "type": "function"
    },
    {
      "inputs": [],
      "name": "WithdrawAllRewards",
      "outputs": [],
      "stateMutability": "nonpayable",
      "type": "function"
    },
    {
      "inputs": [
        {
          "internalType": "uint256",
          "name": "_numTokens",
          "type": "uint256"
        }
      ],
      "name": "WithdrawRewards",
      "outputs": [],
      "stateMutability": "nonpayable",
      "type": "function"
    },
    {
      "inputs": [
        {
          "internalType": "uint256",
          "name": "_numTokens",
          "type": "uint256"
        },
        {
          "internalType": "address",
          "name": "_worker",
          "type": "address"
        }
      ],
      "name": "WithdrawSubworker",
      "outputs": [],
      "stateMutability": "nonpayable",
      "type": "function"
    },
    {
      "inputs": [
        {
          "internalType": "address",
          "name": "_address",
          "type": "address"
        }
      ],
      "name": "addAddress",
      "outputs": [],
      "stateMutability": "nonpayable",
      "type": "function"
    },
    {
      "inputs": [
        {
          "internalType": "uint256",
          "name": "_numTokens",
          "type": "uint256"
        }
      ],
      "name": "deposit",
      "outputs": [],
      "stateMutability": "nonpayable",
      "type": "function"
    },
    {
      "inputs": [
        {
          "internalType": "address",
          "name": "_address",
          "type": "address"
        }
      ],
      "name": "isRewardsWhitelisted",
      "outputs": [
        {
          "internalType": "bool",
          "name": "",
          "type": "bool"
        }
      ],
      "stateMutability": "view",
      "type": "function"
    },
    {
      "inputs": [],
      "name": "owner",
      "outputs": [
        {
          "internalType": "address",
          "name": "",
          "type": "address"
        }
      ],
      "stateMutability": "view",
      "type": "function"
    },
    {
      "inputs": [
        {
          "internalType": "address",
          "name": "_address",
          "type": "address"
        }
      ],
      "name": "removeAddress",
      "outputs": [],
      "stateMutability": "nonpayable",
      "type": "function"
    },
    {
      "inputs": [],
      "name": "renounceOwnership",
      "outputs": [],
      "stateMutability": "nonpayable",
      "type": "function"
    },
    {
      "inputs": [
        {
          "internalType": "address",
          "name": "",
          "type": "address"
        }
      ],
      "name": "rewards",
      "outputs": [
        {
          "internalType": "uint256",
          "name": "",
          "type": "uint256"
        }
      ],
      "stateMutability": "view",
      "type": "function"
    },
    {
      "inputs": [],
      "name": "token",
      "outputs": [
        {
          "internalType": "contract IERC20",
          "name": "",
          "type": "address"
        }
      ],
      "stateMutability": "view",
      "type": "function"
    },
    {
      "inputs": [
        {
          "internalType": "address",
          "name": "newOwner",
          "type": "address"
        }
      ],
      "name": "transferOwnership",
      "outputs": [],
      "stateMutability": "nonpayable",
      "type": "function"
    },
    {
      "inputs": [
        {
          "internalType": "address",
          "name": "addr",
          "type": "address"
        }
      ],
      "name": "updateAddressManager",
      "outputs": [],
      "stateMutability": "nonpayable",
      "type": "function"
    },
    {
      "inputs": [
        {
          "internalType": "address",
          "name": "_worker",
          "type": "address"
        }
      ],
      "name": "withdrawSubworkerAllRewards",
      "outputs": [],
      "stateMutability": "nonpayable",
      "type": "function"
    }
  ],
  "bytecode": "0x60806040526000600455600060055534801561001a57600080fd5b50604051611633380380611633833981016040819052610039916100b7565b61004233610067565b600280546001600160a01b0319166001600160a01b03929092169190911790556100e7565b600080546001600160a01b038381166001600160a01b0319831681178455604051919092169283917f8be0079c531659141344cd1fd0a4f28419497f9722a3daafe3b4186f6b6457e09190a35050565b6000602082840312156100c957600080fd5b81516001600160a01b03811681146100e057600080fd5b9392505050565b61153d806100f66000396000f3fe608060405234801561001057600080fd5b50600436106101735760003560e01c80638da5cb5b116100de578063ce73f10711610097578063e6c3e97b11610071578063e6c3e97b14610332578063ed3fafec14610345578063f2fde38b1461036e578063fc0c546a1461038157600080fd5b8063ce73f10714610303578063d42c362a14610316578063e0ca50941461031f57600080fd5b80638da5cb5b146102a9578063a20809e6146102ba578063af1e1f3f146102cd578063b6b55f25146102d5578063c416b3f7146102e8578063c47c4bc2146102f057600080fd5b80635f28bad5116101305780635f28bad51461020157806363ba80ad1461022457806366d2a1a014610237578063715018a61461024a57806371f084db146102525780637a34da671461027e57600080fd5b806302d648f4146101785780630700037d1461018d5780631669cd4a146101c057806338eada1c146101c857806340e76636146101db5780634ba79dfe146101ee575b600080fd5b61018b61018636600461136b565b610394565b005b6101ad61019b36600461136b565b60036020526000908152604090205481565b6040519081526020015b60405180910390f35b6005546101ad565b61018b6101d636600461136b565b610508565b61018b6101e9366004611386565b61062d565b61018b6101fc36600461136b565b610743565b61021461020f3660046113b2565b610842565b60405190151581526020016101b7565b61018b610232366004611386565b610911565b61018b61024536600461136b565b61097b565b61018b6109bf565b61021461026036600461136b565b6001600160a01b031660009081526006602052604090205460ff1690565b600154610291906001600160a01b031681565b6040516001600160a01b0390911681526020016101b7565b6000546001600160a01b0316610291565b61018b6102c83660046113dc565b6109f5565b61018b610ad6565b61018b6102e33660046113dc565b610c88565b61018b610e77565b61018b6102fe36600461136b565b610eff565b61018b610311366004611386565b610f4b565b6101ad60045481565b61021461032d366004611386565b610f98565b61018b6103403660046113dc565b61109c565b6101ad61035336600461136b565b6001600160a01b031660009081526003602052604090205490565b61018b61037c36600461136b565b611248565b600254610291906001600160a01b031681565b6001546001600160a01b03166103a957600080fd5b6001600160a01b03811660009081526003602052604090205460045410156103d057600080fd5b60015460405163166eeeb960e31b81523360048201526001600160a01b0383811660248301529091169063b37775c890604401602060405180830381600087803b15801561041d57600080fd5b505af1158015610431573d6000803e3d6000fd5b505050506040513d601f19601f8201168201806040525081019061045591906113f5565b61045e57600080fd5b336000818152600360205260408082208054929055600254905163a9059cbb60e01b815260048101939093526024830182905290916001600160a01b039091169063a9059cbb906044015b602060405180830381600087803b1580156104c357600080fd5b505af11580156104d7573d6000803e3d6000fd5b505050506040513d601f19601f820116820180604052508101906104fb91906113f5565b61050457600080fd5b5050565b6000546001600160a01b0316331461053b5760405162461bcd60e51b815260040161053290611417565b60405180910390fd5b6001600160a01b03811660009081526006602052604090205460ff161515600114156105cf5760405162461bcd60e51b815260206004820152603760248201527f526577617264734d616e616765723a2061646472657373206d757374206e6f7460448201527f2062652077686974656c697374656420616c72656164790000000000000000006064820152608401610532565b6001600160a01b038116600081815260066020908152604091829020805460ff1916600190811790915591519182527faca247a6f5a4ff76768a3d69d18ba197c34106ff9efaa8fd1335d9fb6b5fffb791015b60405180910390a250565b6001546001600160a01b031661064257600080fd5b81600454101561065157600080fd5b60015460405163166eeeb960e31b81523360048201526001600160a01b0383811660248301529091169063b37775c890604401602060405180830381600087803b15801561069e57600080fd5b505af11580156106b2573d6000803e3d6000fd5b505050506040513d601f19601f820116820180604052508101906106d691906113f5565b6106df57600080fd5b6001600160a01b03811660009081526003602052604081208054849290610707908490611462565b909155505060025460405163a9059cbb60e01b8152336004820152602481018490526001600160a01b039091169063a9059cbb906044016104a9565b6000546001600160a01b0316331461076d5760405162461bcd60e51b815260040161053290611417565b6001600160a01b03811660009081526006602052604090205460ff166107f35760405162461bcd60e51b815260206004820152603560248201527f526577617264734d616e616765723a2061646472657373206d7573742062652060448201527477686974656c697374656420746f2072656d6f766560581b6064820152608401610532565b6001600160a01b0381166000818152600660209081526040808320805460ff19169055519182527fbfd94cc4e61230b7365236ffec9a8be4c83a297f22e63e7c30403894df1329c39101610622565b3360009081526006602052604081205460ff166108715760405162461bcd60e51b815260040161053290611479565b6001600160a01b0383166000908152600360205260409020548015610905576001600160a01b0384166000908152600360205260409020546108b390826112e0565b6001600160a01b0380861660009081526003602052604080822093909355908516815220546108e290826112f3565b6001600160a01b038416600090815260036020526040902055506001905061090b565b60009150505b92915050565b6000546001600160a01b0316331461093b5760405162461bcd60e51b815260040161053290611417565b6001600160a01b03811660009081526003602052604090205461095e90836112e0565b6001600160a01b0390911660009081526003602052604090205550565b6000546001600160a01b031633146109a55760405162461bcd60e51b815260040161053290611417565b6001600160a01b0316600090815260036020526040812055565b6000546001600160a01b031633146109e95760405162461bcd60e51b815260040161053290611417565b6109f360006112ff565b565b6000546001600160a01b03163314610a1f5760405162461bcd60e51b815260040161053290611417565b806004541015610a2e57600080fd5b8060046000828254610a409190611462565b909155505060025460405163a9059cbb60e01b8152336004820152602481018390526001600160a01b039091169063a9059cbb906044015b602060405180830381600087803b158015610a9257600080fd5b505af1158015610aa6573d6000803e3d6000fd5b505050506040513d601f19601f82011682018060405250810190610aca91906113f5565b610ad357600080fd5b50565b336000908152600360205260409020546004541015610b7a5760405162461bcd60e51b815260206004820152605460248201527f526577617264734d616e616765723a205769746864726177416c6c526577617260448201527f64732d2072657175697265204d616e6167657242616c616e6365203e3d205f6e606482015273756d546f6b656e7320746f20776974686472617760601b608482015260a401610532565b336000818152600360205260408082208054929055600254905163a9059cbb60e01b815260048101939093526024830182905290916001600160a01b039091169063a9059cbb90604401602060405180830381600087803b158015610bde57600080fd5b505af1158015610bf2573d6000803e3d6000fd5b505050506040513d601f19601f82011682018060405250810190610c1691906113f5565b610ad35760405162461bcd60e51b815260206004820152603c60248201527f526577617264734d616e616765723a205769746864726177416c6c526577617260448201527f64732d206572726f72207472616e73666572696e6720746f6b656e73000000006064820152608401610532565b6002546040516370a0823160e01b815233600482015282916001600160a01b0316906370a082319060240160206040518083038186803b158015610ccb57600080fd5b505afa158015610cdf573d6000803e3d6000fd5b505050506040513d601f19601f82011682018060405250810190610d0391906114d6565b1015610d6b5760405162461bcd60e51b815260206004820152603160248201527f526577617264734d616e616765723a2073656e64657220646f65736e2774206860448201527061766520656e6f75676820746f6b656e7360781b6064820152608401610532565b8060046000828254610d7d91906114ef565b90915550506002546040516323b872dd60e01b8152336004820152306024820152604481018390526001600160a01b03909116906323b872dd90606401602060405180830381600087803b158015610dd457600080fd5b505af1158015610de8573d6000803e3d6000fd5b505050506040513d601f19601f82011682018060405250810190610e0c91906113f5565b610ad35760405162461bcd60e51b815260206004820152603660248201527f526577617264734d616e616765723a206572726f72207768656e206465706f736044820152756974696e6720766961205472616e7366657246726f6d60501b6064820152608401610532565b6000546001600160a01b03163314610ea15760405162461bcd60e51b815260040161053290611417565b600060045411610eb057600080fd5b336000818152600360205260408082208054929055600254905163a9059cbb60e01b815260048101939093526024830182905290916001600160a01b039091169063a9059cbb90604401610a78565b6000546001600160a01b03163314610f295760405162461bcd60e51b815260040161053290611417565b600180546001600160a01b0319166001600160a01b0392909216919091179055565b6000546001600160a01b03163314610f755760405162461bcd60e51b815260040161053290611417565b6001600160a01b03811660009081526003602052604090205461095e90836112f3565b3360009081526006602052604081205460ff16610fc75760405162461bcd60e51b815260040161053290611479565b600083116110265760405162461bcd60e51b815260206004820152602660248201527f7265776172647320746f20616c6c6f63617465206d75737420626520706f73696044820152653a34bb32971760d11b6064820152608401610532565b82600454106110935760045461103c90846112e0565b6004556001600160a01b03821660009081526003602052604090205461106290846112f3565b6001600160a01b03831660009081526003602052604090205560055461108890846112f3565b60055550600161090b565b50600092915050565b80600454101561112e5760405162461bcd60e51b815260206004820152605160248201527f526577617264734d616e616765723a205769746864726177526577617264732d60448201527f2072657175697265204d616e6167657242616c616e6365203e3d205f6e756d546064820152706f6b656e7320746f20776974686472617760781b608482015260a401610532565b336000908152600360205260408120805483929061114d908490611462565b909155505060025460405163a9059cbb60e01b8152336004820152602481018390526001600160a01b039091169063a9059cbb90604401602060405180830381600087803b15801561119e57600080fd5b505af11580156111b2573d6000803e3d6000fd5b505050506040513d601f19601f820116820180604052508101906111d691906113f5565b610ad35760405162461bcd60e51b815260206004820152603960248201527f526577617264734d616e616765723a205769746864726177526577617264732d60448201527f206572726f72207472616e73666572696e6720746f6b656e73000000000000006064820152608401610532565b6000546001600160a01b031633146112725760405162461bcd60e51b815260040161053290611417565b6001600160a01b0381166112d75760405162461bcd60e51b815260206004820152602660248201527f4f776e61626c653a206e6577206f776e657220697320746865207a65726f206160448201526564647265737360d01b6064820152608401610532565b610ad3816112ff565b60006112ec8284611462565b9392505050565b60006112ec82846114ef565b600080546001600160a01b038381166001600160a01b0319831681178455604051919092169283917f8be0079c531659141344cd1fd0a4f28419497f9722a3daafe3b4186f6b6457e09190a35050565b80356001600160a01b038116811461136657600080fd5b919050565b60006020828403121561137d57600080fd5b6112ec8261134f565b6000806040838503121561139957600080fd5b823591506113a96020840161134f565b90509250929050565b600080604083850312156113c557600080fd5b6113ce8361134f565b91506113a96020840161134f565b6000602082840312156113ee57600080fd5b5035919050565b60006020828403121561140757600080fd5b815180151581146112ec57600080fd5b6020808252818101527f4f776e61626c653a2063616c6c6572206973206e6f7420746865206f776e6572604082015260600190565b634e487b7160e01b600052601160045260246000fd5b6000828210156114745761147461144c565b500390565b60208082526037908201527f526577617264734d616e616765723a2073656e646572206d757374206265207760408201527f686974656c697374656420746f2050726f787920616374000000000000000000606082015260800190565b6000602082840312156114e857600080fd5b5051919050565b600082198211156115025761150261144c565b50019056fea2646970667358221220ad794edfd2a5229cc831299c7866d0d145084a6d3d8deb9a28c9217abef73d4564736f6c63430008080033",
  "linkReferences": {},
  "deployedLinkReferences": {}
}