{
  "_format": "hh-sol-artifact-1",
  "contractName": "RewardsManager",
  "sourceName": "contracts/worksystems/RewardsManager.sol",
  "abi": [
    {
      "inputs": [
        {
          "internalType": "address",
          "name": "EXD_token",
          "type": "address"
        }
      ],
      "stateMutability": "nonpayable",
      "type": "constructor"
    },
    {
      "anonymous": false,
      "inputs": [
        {
          "indexed": true,
          "internalType": "address",
          "name": "previousOwner",
          "type": "address"
        },
        {
          "indexed": true,
          "internalType": "address",
          "name": "newOwner",
          "type": "address"
        }
      ],
      "name": "OwnershipTransferred",
      "type": "event"
    },
    {
      "anonymous": false,
      "inputs": [
        {
          "indexed": true,
          "internalType": "address",
          "name": "account",
          "type": "address"
        },
        {
          "indexed": false,
          "internalType": "bool",
          "name": "isWhitelisted",
          "type": "bool"
        }
      ],
      "name": "RewardsUnWhitelisted",
      "type": "event"
    },
    {
      "anonymous": false,
      "inputs": [
        {
          "indexed": true,
          "internalType": "address",
          "name": "account",
          "type": "address"
        },
        {
          "indexed": false,
          "internalType": "bool",
          "name": "isWhitelisted",
          "type": "bool"
        }
      ],
      "name": "RewardsWhitelisted",
      "type": "event"
    },
    {
      "anonymous": false,
      "inputs": [
        {
          "indexed": false,
          "internalType": "bytes32",
          "name": "name",
          "type": "bytes32"
        },
        {
          "indexed": false,
          "internalType": "uint256",
          "name": "timestamp",
          "type": "uint256"
        }
      ],
      "name": "UserRegistered",
      "type": "event"
    },
    {
      "anonymous": false,
      "inputs": [
        {
          "indexed": false,
          "internalType": "bytes32",
          "name": "name",
          "type": "bytes32"
        }
      ],
      "name": "UserTransferred",
      "type": "event"
    },
    {
      "inputs": [],
      "name": "GetTotalGivenRewards",
      "outputs": [
        {
          "internalType": "uint256",
          "name": "",
          "type": "uint256"
        }
      ],
      "stateMutability": "view",
      "type": "function"
    },
    {
      "inputs": [],
      "name": "ManagerBalance",
      "outputs": [
        {
          "internalType": "uint256",
          "name": "",
          "type": "uint256"
        }
      ],
      "stateMutability": "view",
      "type": "function"
    },
    {
      "inputs": [
        {
          "internalType": "uint256",
          "name": "rep",
          "type": "uint256"
        },
        {
          "internalType": "address",
          "name": "_user",
          "type": "address"
        }
      ],
      "name": "OwnerAddRewards",
      "outputs": [],
      "stateMutability": "nonpayable",
      "type": "function"
    },
    {
      "inputs": [
        {
          "internalType": "uint256",
          "name": "rep",
          "type": "uint256"
        },
        {
          "internalType": "address",
          "name": "_user",
          "type": "address"
        }
      ],
      "name": "OwnerRemoveRewards",
      "outputs": [],
      "stateMutability": "nonpayable",
      "type": "function"
    },
    {
      "inputs": [
        {
          "internalType": "address",
          "name": "_user",
          "type": "address"
        }
      ],
      "name": "OwnerResetRewards",
      "outputs": [],
      "stateMutability": "nonpayable",
      "type": "function"
    },
    {
      "inputs": [
        {
          "internalType": "uint256",
          "name": "_numTokens",
          "type": "uint256"
        }
      ],
      "name": "OwnerWithdraw",
      "outputs": [],
      "stateMutability": "nonpayable",
      "type": "function"
    },
    {
      "inputs": [],
      "name": "OwnerWithdrawAllRewards",
      "outputs": [],
      "stateMutability": "nonpayable",
      "type": "function"
    },
    {
      "inputs": [],
      "name": "Parameters",
      "outputs": [
        {
          "internalType": "contract IParametersManager",
          "name": "",
          "type": "address"
        }
      ],
      "stateMutability": "view",
      "type": "function"
    },
    {
      "inputs": [
        {
          "internalType": "uint256",
          "name": "_RewardsAllocation",
          "type": "uint256"
        },
        {
          "internalType": "address",
          "name": "_user",
          "type": "address"
        }
      ],
      "name": "ProxyAddReward",
      "outputs": [
        {
          "internalType": "bool",
          "name": "",
          "type": "bool"
        }
      ],
      "stateMutability": "nonpayable",
      "type": "function"
    },
    {
      "inputs": [
        {
          "internalType": "address",
          "name": "_address",
          "type": "address"
        }
      ],
      "name": "RewardsBalanceOf",
      "outputs": [
        {
          "internalType": "uint256",
          "name": "",
          "type": "uint256"
        }
      ],
      "stateMutability": "view",
      "type": "function"
    },
    {
      "inputs": [],
      "name": "WithdrawAllRewards",
      "outputs": [],
      "stateMutability": "nonpayable",
      "type": "function"
    },
    {
      "inputs": [
        {
          "internalType": "uint256",
          "name": "_numTokens",
          "type": "uint256"
        }
      ],
      "name": "WithdrawRewards",
      "outputs": [],
      "stateMutability": "nonpayable",
      "type": "function"
    },
    {
      "inputs": [
        {
          "internalType": "uint256",
          "name": "_numTokens",
          "type": "uint256"
        },
        {
          "internalType": "address",
          "name": "_worker",
          "type": "address"
        }
      ],
      "name": "WithdrawSubworker",
      "outputs": [],
      "stateMutability": "nonpayable",
      "type": "function"
    },
    {
      "inputs": [
        {
          "internalType": "address",
          "name": "_address",
          "type": "address"
        }
      ],
      "name": "addAddress",
      "outputs": [],
      "stateMutability": "nonpayable",
      "type": "function"
    },
    {
      "inputs": [
        {
          "internalType": "uint256",
          "name": "_numTokens",
          "type": "uint256"
        }
      ],
      "name": "deposit",
      "outputs": [],
      "stateMutability": "nonpayable",
      "type": "function"
    },
    {
      "inputs": [
        {
          "internalType": "address",
          "name": "_address",
          "type": "address"
        }
      ],
      "name": "isRewardsWhitelisted",
      "outputs": [
        {
          "internalType": "bool",
          "name": "",
          "type": "bool"
        }
      ],
      "stateMutability": "view",
      "type": "function"
    },
    {
      "inputs": [],
      "name": "owner",
      "outputs": [
        {
          "internalType": "address",
          "name": "",
          "type": "address"
        }
      ],
      "stateMutability": "view",
      "type": "function"
    },
    {
      "inputs": [
        {
          "internalType": "address",
          "name": "_address",
          "type": "address"
        }
      ],
      "name": "removeAddress",
      "outputs": [],
      "stateMutability": "nonpayable",
      "type": "function"
    },
    {
      "inputs": [],
      "name": "renounceOwnership",
      "outputs": [],
      "stateMutability": "nonpayable",
      "type": "function"
    },
    {
      "inputs": [
        {
          "internalType": "address",
          "name": "",
          "type": "address"
        }
      ],
      "name": "rewards",
      "outputs": [
        {
          "internalType": "uint256",
          "name": "",
          "type": "uint256"
        }
      ],
      "stateMutability": "view",
      "type": "function"
    },
    {
      "inputs": [],
      "name": "token",
      "outputs": [
        {
          "internalType": "contract IERC20",
          "name": "",
          "type": "address"
        }
      ],
      "stateMutability": "view",
      "type": "function"
    },
    {
      "inputs": [
        {
          "internalType": "address",
          "name": "newOwner",
          "type": "address"
        }
      ],
      "name": "transferOwnership",
      "outputs": [],
      "stateMutability": "nonpayable",
      "type": "function"
    },
    {
      "inputs": [
        {
          "internalType": "address",
          "name": "addr",
          "type": "address"
        }
      ],
      "name": "updateParametersManager",
      "outputs": [],
      "stateMutability": "nonpayable",
      "type": "function"
    },
    {
      "inputs": [
        {
          "internalType": "address",
          "name": "_worker",
          "type": "address"
        }
      ],
      "name": "withdrawSubworkerAllRewards",
      "outputs": [],
      "stateMutability": "nonpayable",
      "type": "function"
    }
  ],
  "bytecode": "0x60806040526000600355600060045534801561001a57600080fd5b5060405161195b38038061195b833981016040819052610039916100b7565b61004233610067565b600180546001600160a01b0319166001600160a01b03929092169190911790556100e7565b600080546001600160a01b038381166001600160a01b0319831681178455604051919092169283917f8be0079c531659141344cd1fd0a4f28419497f9722a3daafe3b4186f6b6457e09190a35050565b6000602082840312156100c957600080fd5b81516001600160a01b03811681146100e057600080fd5b9392505050565b611865806100f66000396000f3fe608060405234801561001057600080fd5b50600436106101585760003560e01c8063a20809e6116100c3578063e0ca50941161007c578063e0ca5094146102da578063e6c3e97b146102ed578063ed3fafec14610300578063f2fde38b14610329578063fc0c546a1461033c578063ff43de9d1461034f57600080fd5b8063a20809e614610288578063af1e1f3f1461029b578063b6b55f25146102a3578063c416b3f7146102b6578063ce73f107146102be578063d42c362a146102d157600080fd5b80634ba79dfe116101155780634ba79dfe146101e657806363ba80ad146101f957806366d2a1a01461020c578063715018a61461021f57806371f084db146102275780638da5cb5b1461026357600080fd5b806302d648f41461015d57806305957623146101725780630700037d146101855780631669cd4a146101b857806338eada1c146101c057806340e76636146101d3575b600080fd5b61017061016b36600461166d565b610362565b005b61017061018036600461166d565b61067c565b6101a561019336600461166d565b60026020526000908152604090205481565b6040519081526020015b60405180910390f35b6004546101a5565b6101706101ce36600461166d565b6106db565b6101706101e136600461168a565b6107f7565b6101706101f436600461166d565b610a2a565b61017061020736600461168a565b610b29565b61017061021a36600461166d565b610b93565b610170610bd7565b61025361023536600461166d565b6001600160a01b031660009081526006602052604090205460ff1690565b60405190151581526020016101af565b6000546001600160a01b03165b6040516001600160a01b0390911681526020016101af565b6101706102963660046116ba565b610c0d565b610170610d3b565b6101706102b13660046116ba565b610eed565b6101706110dc565b6101706102cc36600461168a565b6111fd565b6101a560035481565b6102536102e836600461168a565b61124a565b6101706102fb3660046116ba565b6113a5565b6101a561030e36600461166d565b6001600160a01b031660009081526002602052604090205490565b61017061033736600461166d565b611551565b600154610270906001600160a01b031681565b600554610270906001600160a01b031681565b60055460408051632a49798160e11b815290516000926001600160a01b031691635492f302916004808301926020929190829003018186803b1580156103a757600080fd5b505afa1580156103bb573d6000803e3d6000fd5b505050506040513d601f19601f820116820180604052508101906103df91906116d3565b6001600160a01b0316141561040f5760405162461bcd60e51b8152600401610406906116f0565b60405180910390fd5b60055460408051632a49798160e11b815290516000926001600160a01b031691635492f302916004808301926020929190829003018186803b15801561045457600080fd5b505afa158015610468573d6000803e3d6000fd5b505050506040513d601f19601f8201168201806040525081019061048c91906116d3565b6001600160a01b038316600090815260026020526040902054600354919250111561050c5760405162461bcd60e51b815260206004820152602a60248201527f4d616e6167657242616c616e63652068617320746f206265203e3d20776f726b6044820152696572207265776172647360b01b6064820152608401610406565b60405163166eeeb960e31b81523360048201526001600160a01b03838116602483015282169063b37775c890604401602060405180830381600087803b15801561055557600080fd5b505af1158015610569573d6000803e3d6000fd5b505050506040513d601f19601f8201168201806040525081019061058d9190611734565b61059657600080fd5b336000818152600260205260408082208054929055600154905163a9059cbb60e01b815260048101939093526024830182905290916001600160a01b039091169063a9059cbb906044015b602060405180830381600087803b1580156105fb57600080fd5b505af115801561060f573d6000803e3d6000fd5b505050506040513d601f19601f820116820180604052508101906106339190611734565b6106775760405162461bcd60e51b8152602060048201526015602482015274151bdad95b88151c985b9cd9995c8819985a5b1959605a1b6044820152606401610406565b505050565b6000546001600160a01b031633146106a65760405162461bcd60e51b815260040161040690611756565b6001600160a01b0381166106b957600080fd5b600580546001600160a01b0319166001600160a01b0392909216919091179055565b6000546001600160a01b031633146107055760405162461bcd60e51b815260040161040690611756565b6001600160a01b03811660009081526006602052604090205460ff161515600114156107995760405162461bcd60e51b815260206004820152603760248201527f526577617264734d616e616765723a2061646472657373206d757374206e6f7460448201527f2062652077686974656c697374656420616c72656164790000000000000000006064820152608401610406565b6001600160a01b038116600081815260066020908152604091829020805460ff1916600190811790915591519182527faca247a6f5a4ff76768a3d69d18ba197c34106ff9efaa8fd1335d9fb6b5fffb791015b60405180910390a250565b60055460408051632a49798160e11b815290516000926001600160a01b031691635492f302916004808301926020929190829003018186803b15801561083c57600080fd5b505afa158015610850573d6000803e3d6000fd5b505050506040513d601f19601f8201168201806040525081019061087491906116d3565b6001600160a01b0316141561089b5760405162461bcd60e51b8152600401610406906116f0565b60055460408051632a49798160e11b815290516000926001600160a01b031691635492f302916004808301926020929190829003018186803b1580156108e057600080fd5b505afa1580156108f4573d6000803e3d6000fd5b505050506040513d601f19601f8201168201806040525081019061091891906116d3565b905082600354101561093c5760405162461bcd60e51b81526004016104069061178b565b60405163166eeeb960e31b81523360048201526001600160a01b03838116602483015282169063b37775c890604401602060405180830381600087803b15801561098557600080fd5b505af1158015610999573d6000803e3d6000fd5b505050506040513d601f19601f820116820180604052508101906109bd9190611734565b6109c657600080fd5b6001600160a01b038216600090815260026020526040812080548592906109ee9084906117e7565b909155505060015460405163a9059cbb60e01b8152336004820152602481018590526001600160a01b039091169063a9059cbb906044016105e1565b6000546001600160a01b03163314610a545760405162461bcd60e51b815260040161040690611756565b6001600160a01b03811660009081526006602052604090205460ff16610ada5760405162461bcd60e51b815260206004820152603560248201527f526577617264734d616e616765723a2061646472657373206d7573742062652060448201527477686974656c697374656420746f2072656d6f766560581b6064820152608401610406565b6001600160a01b0381166000818152600660209081526040808320805460ff19169055519182527fbfd94cc4e61230b7365236ffec9a8be4c83a297f22e63e7c30403894df1329c391016107ec565b6000546001600160a01b03163314610b535760405162461bcd60e51b815260040161040690611756565b6001600160a01b038116600090815260026020526040902054610b7690836115e9565b6001600160a01b0390911660009081526002602052604090205550565b6000546001600160a01b03163314610bbd5760405162461bcd60e51b815260040161040690611756565b6001600160a01b0316600090815260026020526040812055565b6000546001600160a01b03163314610c015760405162461bcd60e51b815260040161040690611756565b610c0b60006115fc565b565b6000546001600160a01b03163314610c375760405162461bcd60e51b815260040161040690611756565b806003541015610c595760405162461bcd60e51b81526004016104069061178b565b8060036000828254610c6b91906117e7565b909155505060015460405163a9059cbb60e01b8152336004820152602481018390526001600160a01b039091169063a9059cbb90604401602060405180830381600087803b158015610cbc57600080fd5b505af1158015610cd0573d6000803e3d6000fd5b505050506040513d601f19601f82011682018060405250810190610cf49190611734565b610d385760405162461bcd60e51b8152602060048201526015602482015274151bdad95b88151c985b9cd9995c8819985a5b1959605a1b6044820152606401610406565b50565b336000908152600260205260409020546003541015610ddf5760405162461bcd60e51b815260206004820152605460248201527f526577617264734d616e616765723a205769746864726177416c6c526577617260448201527f64732d2072657175697265204d616e6167657242616c616e6365203e3d205f6e606482015273756d546f6b656e7320746f20776974686472617760601b608482015260a401610406565b336000818152600260205260408082208054929055600154905163a9059cbb60e01b815260048101939093526024830182905290916001600160a01b039091169063a9059cbb90604401602060405180830381600087803b158015610e4357600080fd5b505af1158015610e57573d6000803e3d6000fd5b505050506040513d601f19601f82011682018060405250810190610e7b9190611734565b610d385760405162461bcd60e51b815260206004820152603c60248201527f526577617264734d616e616765723a205769746864726177416c6c526577617260448201527f64732d206572726f72207472616e73666572696e6720746f6b656e73000000006064820152608401610406565b6001546040516370a0823160e01b815233600482015282916001600160a01b0316906370a082319060240160206040518083038186803b158015610f3057600080fd5b505afa158015610f44573d6000803e3d6000fd5b505050506040513d601f19601f82011682018060405250810190610f6891906117fe565b1015610fd05760405162461bcd60e51b815260206004820152603160248201527f526577617264734d616e616765723a2073656e64657220646f65736e2774206860448201527061766520656e6f75676820746f6b656e7360781b6064820152608401610406565b8060036000828254610fe29190611817565b90915550506001546040516323b872dd60e01b8152336004820152306024820152604481018390526001600160a01b03909116906323b872dd90606401602060405180830381600087803b15801561103957600080fd5b505af115801561104d573d6000803e3d6000fd5b505050506040513d601f19601f820116820180604052508101906110719190611734565b610d385760405162461bcd60e51b815260206004820152603660248201527f526577617264734d616e616765723a206572726f72207768656e206465706f736044820152756974696e6720766961205472616e7366657246726f6d60501b6064820152608401610406565b6000546001600160a01b031633146111065760405162461bcd60e51b815260040161040690611756565b6000600354116111585760405162461bcd60e51b815260206004820152601c60248201527f4d616e6167657242616c616e63652068617320746f206265203e2030000000006044820152606401610406565b336000818152600260205260408082208054929055600154905163a9059cbb60e01b815260048101939093526024830182905290916001600160a01b039091169063a9059cbb90604401602060405180830381600087803b1580156111bc57600080fd5b505af11580156111d0573d6000803e3d6000fd5b505050506040513d601f19601f820116820180604052508101906111f49190611734565b610d3857600080fd5b6000546001600160a01b031633146112275760405162461bcd60e51b815260040161040690611756565b6001600160a01b038116600090815260026020526040902054610b76908361164c565b3360009081526006602052604081205460ff166112cf5760405162461bcd60e51b815260206004820152603760248201527f526577617264734d616e616765723a2073656e646572206d757374206265207760448201527f686974656c697374656420746f2050726f7879206163740000000000000000006064820152608401610406565b6000831161132e5760405162461bcd60e51b815260206004820152602660248201527f7265776172647320746f20616c6c6f63617465206d75737420626520706f73696044820152653a34bb32971760d11b6064820152608401610406565b826003541061139b5760035461134490846115e9565b6003556001600160a01b03821660009081526002602052604090205461136a908461164c565b6001600160a01b038316600090815260026020526040902055600454611390908461164c565b60045550600161139f565b5060005b92915050565b8060035410156114375760405162461bcd60e51b815260206004820152605160248201527f526577617264734d616e616765723a205769746864726177526577617264732d60448201527f2072657175697265204d616e6167657242616c616e6365203e3d205f6e756d546064820152706f6b656e7320746f20776974686472617760781b608482015260a401610406565b33600090815260026020526040812080548392906114569084906117e7565b909155505060015460405163a9059cbb60e01b8152336004820152602481018390526001600160a01b039091169063a9059cbb90604401602060405180830381600087803b1580156114a757600080fd5b505af11580156114bb573d6000803e3d6000fd5b505050506040513d601f19601f820116820180604052508101906114df9190611734565b610d385760405162461bcd60e51b815260206004820152603960248201527f526577617264734d616e616765723a205769746864726177526577617264732d60448201527f206572726f72207472616e73666572696e6720746f6b656e73000000000000006064820152608401610406565b6000546001600160a01b0316331461157b5760405162461bcd60e51b815260040161040690611756565b6001600160a01b0381166115e05760405162461bcd60e51b815260206004820152602660248201527f4f776e61626c653a206e6577206f776e657220697320746865207a65726f206160448201526564647265737360d01b6064820152608401610406565b610d38816115fc565b60006115f582846117e7565b9392505050565b600080546001600160a01b038381166001600160a01b0319831681178455604051919092169283917f8be0079c531659141344cd1fd0a4f28419497f9722a3daafe3b4186f6b6457e09190a35050565b60006115f58284611817565b6001600160a01b0381168114610d3857600080fd5b60006020828403121561167f57600080fd5b81356115f581611658565b6000806040838503121561169d57600080fd5b8235915060208301356116af81611658565b809150509250929050565b6000602082840312156116cc57600080fd5b5035919050565b6000602082840312156116e557600080fd5b81516115f581611658565b60208082526024908201527f416464726573734d616e61676572206973206e756c6c20696e20506172616d656040820152637465727360e01b606082015260800190565b60006020828403121561174657600080fd5b815180151581146115f557600080fd5b6020808252818101527f4f776e61626c653a2063616c6c6572206973206e6f7420746865206f776e6572604082015260600190565b60208082526026908201527f4d616e6167657242616c616e63652068617320746f206265203e3d205f6e756d604082015265546f6b656e7360d01b606082015260800190565b634e487b7160e01b600052601160045260246000fd5b6000828210156117f9576117f96117d1565b500390565b60006020828403121561181057600080fd5b5051919050565b6000821982111561182a5761182a6117d1565b50019056fea26469706673582212208acd0143343749fa46091d9568e46b4e528e95caf2a1c7ee60b9ef386057da7e64736f6c63430008080033",
  "linkReferences": {},
  "deployedLinkReferences": {}
}