{
  "_format": "hh-sol-artifact-1",
  "contractName": "DataArchive",
  "sourceName": "contracts/worksystems/DataArchive.sol",
  "abi": [
    {
      "inputs": [
        {
          "internalType": "address",
          "name": "EXDT_token",
          "type": "address"
        },
        {
          "internalType": "address",
          "name": "_FormattingSystem",
          "type": "address"
        }
      ],
      "stateMutability": "nonpayable",
      "type": "constructor"
    },
    {
      "anonymous": false,
      "inputs": [
        {
          "indexed": false,
          "internalType": "bytes",
          "name": "bytesFailure",
          "type": "bytes"
        }
      ],
      "name": "BytesFailure",
      "type": "event"
    },
    {
      "anonymous": false,
      "inputs": [
        {
          "indexed": true,
          "internalType": "address",
          "name": "previousOwner",
          "type": "address"
        },
        {
          "indexed": true,
          "internalType": "address",
          "name": "newOwner",
          "type": "address"
        }
      ],
      "name": "OwnershipTransferred",
      "type": "event"
    },
    {
      "anonymous": false,
      "inputs": [
        {
          "indexed": true,
          "internalType": "uint256",
          "name": "DataID",
          "type": "uint256"
        },
        {
          "indexed": false,
          "internalType": "string",
          "name": "file_hash",
          "type": "string"
        },
        {
          "indexed": false,
          "internalType": "address",
          "name": "sender",
          "type": "address"
        }
      ],
      "name": "_DataArchive",
      "type": "event"
    },
    {
      "anonymous": false,
      "inputs": [
        {
          "indexed": true,
          "internalType": "uint256",
          "name": "DataID",
          "type": "uint256"
        },
        {
          "indexed": true,
          "internalType": "address",
          "name": "voter",
          "type": "address"
        }
      ],
      "name": "_TokensRescued",
      "type": "event"
    },
    {
      "anonymous": false,
      "inputs": [
        {
          "indexed": false,
          "internalType": "uint256",
          "name": "numTokens",
          "type": "uint256"
        },
        {
          "indexed": true,
          "internalType": "address",
          "name": "voter",
          "type": "address"
        }
      ],
      "name": "_VotingRightsGranted",
      "type": "event"
    },
    {
      "anonymous": false,
      "inputs": [
        {
          "indexed": false,
          "internalType": "uint256",
          "name": "numTokens",
          "type": "uint256"
        },
        {
          "indexed": true,
          "internalType": "address",
          "name": "voter",
          "type": "address"
        }
      ],
      "name": "_VotingRightsWithdrawn",
      "type": "event"
    },
    {
      "anonymous": false,
      "inputs": [
        {
          "indexed": true,
          "internalType": "uint256",
          "name": "batchID",
          "type": "uint256"
        },
        {
          "indexed": false,
          "internalType": "address",
          "name": "worker",
          "type": "address"
        }
      ],
      "name": "_WorkAllocated",
      "type": "event"
    },
    {
      "anonymous": false,
      "inputs": [
        {
          "indexed": true,
          "internalType": "address",
          "name": "worker",
          "type": "address"
        },
        {
          "indexed": false,
          "internalType": "uint256",
          "name": "timestamp",
          "type": "uint256"
        }
      ],
      "name": "_WorkerRegistered",
      "type": "event"
    },
    {
      "anonymous": false,
      "inputs": [
        {
          "indexed": true,
          "internalType": "address",
          "name": "worker",
          "type": "address"
        },
        {
          "indexed": false,
          "internalType": "uint256",
          "name": "timestamp",
          "type": "uint256"
        }
      ],
      "name": "_WorkerUnregistered",
      "type": "event"
    },
    {
      "inputs": [],
      "name": "AddressManager",
      "outputs": [
        {
          "internalType": "contract IAddressManager",
          "name": "",
          "type": "address"
        }
      ],
      "stateMutability": "view",
      "type": "function"
    },
    {
      "inputs": [],
      "name": "AllTxsCounter",
      "outputs": [
        {
          "internalType": "uint256",
          "name": "",
          "type": "uint256"
        }
      ],
      "stateMutability": "view",
      "type": "function"
    },
    {
      "inputs": [],
      "name": "AllocatedBatchCursor",
      "outputs": [
        {
          "internalType": "uint256",
          "name": "",
          "type": "uint256"
        }
      ],
      "stateMutability": "view",
      "type": "function"
    },
    {
      "inputs": [
        {
          "internalType": "uint256",
          "name": "",
          "type": "uint256"
        }
      ],
      "name": "ArchiveMapping",
      "outputs": [
        {
          "internalType": "string",
          "name": "ipfs_hash",
          "type": "string"
        },
        {
          "internalType": "address",
          "name": "author",
          "type": "address"
        },
        {
          "internalType": "uint256",
          "name": "timestamp",
          "type": "uint256"
        },
        {
          "internalType": "enum DataArchive.DataStatus",
          "name": "status",
          "type": "uint8"
        }
      ],
      "stateMutability": "view",
      "type": "function"
    },
    {
      "inputs": [
        {
          "internalType": "string",
          "name": "_a",
          "type": "string"
        },
        {
          "internalType": "string",
          "name": "_b",
          "type": "string"
        }
      ],
      "name": "AreStringsEqual",
      "outputs": [
        {
          "internalType": "bool",
          "name": "",
          "type": "bool"
        }
      ],
      "stateMutability": "pure",
      "type": "function"
    },
    {
      "inputs": [],
      "name": "BatchCheckingCursor",
      "outputs": [
        {
          "internalType": "uint256",
          "name": "",
          "type": "uint256"
        }
      ],
      "stateMutability": "view",
      "type": "function"
    },
    {
      "inputs": [
        {
          "internalType": "uint256",
          "name": "",
          "type": "uint256"
        }
      ],
      "name": "CollectedFormatBatchs",
      "outputs": [
        {
          "internalType": "bool",
          "name": "",
          "type": "bool"
        }
      ],
      "stateMutability": "view",
      "type": "function"
    },
    {
      "inputs": [
        {
          "internalType": "uint256",
          "name": "_DataId",
          "type": "uint256"
        }
      ],
      "name": "DataExists",
      "outputs": [
        {
          "internalType": "bool",
          "name": "exists",
          "type": "bool"
        }
      ],
      "stateMutability": "view",
      "type": "function"
    },
    {
      "inputs": [],
      "name": "DataNonce",
      "outputs": [
        {
          "internalType": "uint256",
          "name": "",
          "type": "uint256"
        }
      ],
      "stateMutability": "view",
      "type": "function"
    },
    {
      "inputs": [
        {
          "internalType": "address",
          "name": "",
          "type": "address"
        }
      ],
      "name": "FormatStakedTokenBalance",
      "outputs": [
        {
          "internalType": "uint256",
          "name": "",
          "type": "uint256"
        }
      ],
      "stateMutability": "view",
      "type": "function"
    },
    {
      "inputs": [],
      "name": "FormattingSystem",
      "outputs": [
        {
          "internalType": "contract IFormattingSystem",
          "name": "",
          "type": "address"
        }
      ],
      "stateMutability": "view",
      "type": "function"
    },
    {
      "inputs": [],
      "name": "LastBatchCounter",
      "outputs": [
        {
          "internalType": "uint256",
          "name": "",
          "type": "uint256"
        }
      ],
      "stateMutability": "view",
      "type": "function"
    },
    {
      "inputs": [
        {
          "internalType": "address",
          "name": "",
          "type": "address"
        },
        {
          "internalType": "uint256",
          "name": "",
          "type": "uint256"
        }
      ],
      "name": "MasterWorkers",
      "outputs": [
        {
          "internalType": "address",
          "name": "",
          "type": "address"
        }
      ],
      "stateMutability": "view",
      "type": "function"
    },
    {
      "inputs": [
        {
          "internalType": "uint256",
          "name": "CheckedBatchId",
          "type": "uint256"
        }
      ],
      "name": "Ping",
      "outputs": [
        {
          "internalType": "bool",
          "name": "",
          "type": "bool"
        }
      ],
      "stateMutability": "nonpayable",
      "type": "function"
    },
    {
      "inputs": [],
      "name": "RepManager",
      "outputs": [
        {
          "internalType": "contract IRepManager",
          "name": "",
          "type": "address"
        }
      ],
      "stateMutability": "view",
      "type": "function"
    },
    {
      "inputs": [],
      "name": "RewardManager",
      "outputs": [
        {
          "internalType": "contract IRewardManager",
          "name": "",
          "type": "address"
        }
      ],
      "stateMutability": "view",
      "type": "function"
    },
    {
      "inputs": [],
      "name": "StakeManager",
      "outputs": [
        {
          "internalType": "contract IStakeManager",
          "name": "",
          "type": "address"
        }
      ],
      "stateMutability": "view",
      "type": "function"
    },
    {
      "inputs": [
        {
          "internalType": "uint256",
          "name": "",
          "type": "uint256"
        },
        {
          "internalType": "uint256",
          "name": "",
          "type": "uint256"
        }
      ],
      "name": "WorkersPerBatch",
      "outputs": [
        {
          "internalType": "address",
          "name": "",
          "type": "address"
        }
      ],
      "stateMutability": "view",
      "type": "function"
    },
    {
      "inputs": [
        {
          "internalType": "address",
          "name": "_user",
          "type": "address"
        },
        {
          "internalType": "uint256",
          "name": "_DataBatchId",
          "type": "uint256"
        }
      ],
      "name": "attrUUID",
      "outputs": [
        {
          "internalType": "bytes32",
          "name": "UUID",
          "type": "bytes32"
        }
      ],
      "stateMutability": "pure",
      "type": "function"
    },
    {
      "inputs": [
        {
          "internalType": "uint256",
          "name": "",
          "type": "uint256"
        }
      ],
      "name": "availableWorkers",
      "outputs": [
        {
          "internalType": "address",
          "name": "",
          "type": "address"
        }
      ],
      "stateMutability": "view",
      "type": "function"
    },
    {
      "inputs": [
        {
          "internalType": "uint256",
          "name": "",
          "type": "uint256"
        }
      ],
      "name": "busyWorkers",
      "outputs": [
        {
          "internalType": "address",
          "name": "",
          "type": "address"
        }
      ],
      "stateMutability": "view",
      "type": "function"
    },
    {
      "inputs": [
        {
          "internalType": "uint256",
          "name": "_DataId",
          "type": "uint256"
        }
      ],
      "name": "deleteData",
      "outputs": [],
      "stateMutability": "nonpayable",
      "type": "function"
    },
    {
      "inputs": [
        {
          "internalType": "uint256",
          "name": "_CheckedBatchId",
          "type": "uint256"
        }
      ],
      "name": "deleteMapping",
      "outputs": [],
      "stateMutability": "nonpayable",
      "type": "function"
    },
    {
      "inputs": [
        {
          "internalType": "uint256",
          "name": "_k",
          "type": "uint256"
        },
        {
          "internalType": "uint256",
          "name": "N_range",
          "type": "uint256"
        }
      ],
      "name": "generateIntegers",
      "outputs": [
        {
          "internalType": "uint256[]",
          "name": "",
          "type": "uint256[]"
        }
      ],
      "stateMutability": "view",
      "type": "function"
    },
    {
      "inputs": [],
      "name": "getBlockTimestamp",
      "outputs": [
        {
          "internalType": "uint256",
          "name": "blocktimestamp",
          "type": "uint256"
        }
      ],
      "stateMutability": "view",
      "type": "function"
    },
    {
      "inputs": [
        {
          "internalType": "uint256",
          "name": "_DataID",
          "type": "uint256"
        }
      ],
      "name": "getDataById",
      "outputs": [
        {
          "components": [
            {
              "internalType": "string",
              "name": "ipfs_hash",
              "type": "string"
            },
            {
              "internalType": "address",
              "name": "author",
              "type": "address"
            },
            {
              "internalType": "uint256",
              "name": "timestamp",
              "type": "uint256"
            },
            {
              "internalType": "enum DataArchive.DataStatus",
              "name": "status",
              "type": "uint8"
            }
          ],
          "internalType": "struct DataArchive.ArchiveData",
          "name": "data",
          "type": "tuple"
        }
      ],
      "stateMutability": "view",
      "type": "function"
    },
    {
      "inputs": [
        {
          "internalType": "uint256",
          "name": "_DataID",
          "type": "uint256"
        }
      ],
      "name": "getFileById",
      "outputs": [
        {
          "internalType": "string",
          "name": "ipfs_hash",
          "type": "string"
        }
      ],
      "stateMutability": "view",
      "type": "function"
    },
    {
      "inputs": [],
      "name": "getLastDataId",
      "outputs": [
        {
          "internalType": "uint256",
          "name": "DataId",
          "type": "uint256"
        }
      ],
      "stateMutability": "view",
      "type": "function"
    },
    {
      "inputs": [],
      "name": "getRandom",
      "outputs": [
        {
          "internalType": "uint256",
          "name": "",
          "type": "uint256"
        }
      ],
      "stateMutability": "view",
      "type": "function"
    },
    {
      "inputs": [],
      "name": "getSeed",
      "outputs": [
        {
          "internalType": "bytes32",
          "name": "addr",
          "type": "bytes32"
        }
      ],
      "stateMutability": "view",
      "type": "function"
    },
    {
      "inputs": [],
      "name": "getTxCounter",
      "outputs": [
        {
          "internalType": "uint256",
          "name": "Counter",
          "type": "uint256"
        }
      ],
      "stateMutability": "view",
      "type": "function"
    },
    {
      "inputs": [],
      "name": "owner",
      "outputs": [
        {
          "internalType": "address",
          "name": "",
          "type": "address"
        }
      ],
      "stateMutability": "view",
      "type": "function"
    },
    {
      "inputs": [
        {
          "internalType": "uint256",
          "name": "k",
          "type": "uint256"
        },
        {
          "internalType": "uint256",
          "name": "N",
          "type": "uint256"
        }
      ],
      "name": "random_selection",
      "outputs": [
        {
          "internalType": "uint256[]",
          "name": "",
          "type": "uint256[]"
        }
      ],
      "stateMutability": "view",
      "type": "function"
    },
    {
      "inputs": [],
      "name": "renounceOwnership",
      "outputs": [],
      "stateMutability": "nonpayable",
      "type": "function"
    },
    {
      "inputs": [],
      "name": "sFuel",
      "outputs": [
        {
          "internalType": "address",
          "name": "",
          "type": "address"
        }
      ],
      "stateMutability": "view",
      "type": "function"
    },
    {
      "inputs": [
        {
          "internalType": "uint256",
          "name": "N",
          "type": "uint256"
        }
      ],
      "name": "shuffle_array",
      "outputs": [
        {
          "internalType": "uint256[]",
          "name": "",
          "type": "uint256[]"
        }
      ],
      "stateMutability": "view",
      "type": "function"
    },
    {
      "inputs": [],
      "name": "token",
      "outputs": [
        {
          "internalType": "contract IERC20",
          "name": "",
          "type": "address"
        }
      ],
      "stateMutability": "view",
      "type": "function"
    },
    {
      "inputs": [
        {
          "internalType": "address",
          "name": "newOwner",
          "type": "address"
        }
      ],
      "name": "transferOwnership",
      "outputs": [],
      "stateMutability": "nonpayable",
      "type": "function"
    },
    {
      "inputs": [
        {
          "internalType": "address",
          "name": "addr",
          "type": "address"
        }
      ],
      "name": "updateAddressManager",
      "outputs": [],
      "stateMutability": "nonpayable",
      "type": "function"
    },
    {
      "inputs": [
        {
          "internalType": "address",
          "name": "addr",
          "type": "address"
        }
      ],
      "name": "updatePreviousSystem",
      "outputs": [],
      "stateMutability": "nonpayable",
      "type": "function"
    },
    {
      "inputs": [
        {
          "internalType": "address",
          "name": "addr",
          "type": "address"
        }
      ],
      "name": "updateRepManager",
      "outputs": [],
      "stateMutability": "nonpayable",
      "type": "function"
    },
    {
      "inputs": [
        {
          "internalType": "address",
          "name": "addr",
          "type": "address"
        }
      ],
      "name": "updateRewardManager",
      "outputs": [],
      "stateMutability": "nonpayable",
      "type": "function"
    },
    {
      "inputs": [
        {
          "internalType": "address",
          "name": "addr",
          "type": "address"
        }
      ],
      "name": "updateStakeManager",
      "outputs": [],
      "stateMutability": "nonpayable",
      "type": "function"
    }
  ],
  "bytecode": "0x608060405260006002819055600980546001600160a01b0319167314f52f3fc010ab6ca81568d4a6794d5eab3c61551790556001600a819055600b819055600c55600d553480156200005057600080fd5b50604051620020fe380380620020fe83398101604081905262000073916200012f565b6200008762000081620000be565b620000c2565b600e80546001600160a01b039384166001600160a01b03199182161790915560138054929093169116179055600060025562000166565b3390565b600080546001600160a01b038381166001600160a01b0319831681178455604051919092169283917f8be0079c531659141344cd1fd0a4f28419497f9722a3daafe3b4186f6b6457e09190a35050565b80516001600160a01b03811681146200012a57600080fd5b919050565b6000806040838503121562000142578182fd5b6200014d8362000112565b91506200015d6020840162000112565b90509250929050565b611f8880620001766000396000f3fe608060405234801561001057600080fd5b50600436106102695760003560e01c8063a16a11e011610151578063dd618682116100c3578063f2722a9f11610087578063f2722a9f146104d9578063f2d9e74d146104f9578063f2fde38b14610501578063f5ae7c7d14610514578063f721de4a1461051c578063fc0c546a1461052f57610269565b8063dd61868214610478578063df05368e1461048b578063e44c974b1461049e578063e4e6025e146104b1578063ef4fcdad146104d157610269565b8063b1d7ea9811610115578063b1d7ea9814610404578063b8f011b314610424578063c47c4bc214610437578063ced5ca6f1461044a578063d6b0206c1461045d578063d822ce011461046557610269565b8063a16a11e0146103c6578063a511dba0146103d9578063a9057790146103e1578063aacc5a17146103f4578063ab43e78d146103fc57610269565b8063715018a6116101ea5780638473850b116101ae5780638473850b146103655780638cbdab3c1461036d5780638d289f8f146103905780638da5cb5b146103985780638df0296e146103a0578063a1103f37146103b357610269565b8063715018a614610332578063796b89b91461033a5780637a34da6714610342578063821aa8c01461034a57806383cc6ef21461035d57610269565b8063353f44d011610231578063353f44d0146102e957806339e7357c146102fc57806348257dc9146103045780634fe8b4c11461031757806351912f291461032a57610269565b8063050eb2eb1461026e5780630e6661a714610283578063171ee06a146102a157806329a47bc7146102c15780633538af82146102d6575b600080fd5b61028161027c366004611912565b610537565b005b61028b6105a1565b6040516102989190611bb5565b60405180910390f35b6102b46102af366004611aef565b6105a7565b6040516102989190611c40565b6102c96105bc565b6040516102989190611be8565b6102c96102e4366004611aef565b6105cb565b61028b6102f7366004611912565b6105f5565b61028b610607565b6102b4610312366004611aef565b610624565b610281610325366004611aef565b6108e1565b6102c9610961565b610281610970565b61028b6109bb565b6102c96109bf565b6102c9610358366004611aef565b6109ce565b6102c96109de565b61028b6109ed565b61038061037b366004611aef565b6109f3565b6040516102989493929190611c88565b6102c9610ab2565b6102c9610ac1565b6102c96103ae366004611b07565b610ad0565b61028b6103c1366004611933565b610b08565b6102816103d4366004611912565b610b3c565b61028b610b9d565b6102b46103ef366004611976565b610ba3565b61028b610c09565b6102c9610cbe565b610417610412366004611b07565b610ccd565b6040516102989190611bfc565b610417610432366004611b07565b610ed5565b610281610445366004611912565b61103f565b610281610458366004611aef565b6110a0565b61028b611110565b6102c9610473366004611933565b611116565b610281610486366004611912565b611132565b610281610499366004611912565b611193565b6104176104ac366004611aef565b6111f4565b6104c46104bf366004611aef565b61126e565b6040516102989190611c4b565b61028b61131d565b6104ec6104e7366004611aef565b611323565b6040516102989190611d8d565b61028b611455565b61028161050f366004611912565b61145b565b61028b6114c9565b6102b461052a366004611aef565b6114cf565b6102c96114d7565b61053f6114e6565b6001600160a01b0316610550610ac1565b6001600160a01b03161461057f5760405162461bcd60e51b815260040161057690611d58565b60405180910390fd5b601180546001600160a01b0319166001600160a01b0392909216919091179055565b60025481565b60016020526000908152604090205460ff1681565b6010546001600160a01b031681565b600681815481106105db57600080fd5b6000918252602090912001546001600160a01b0316905081565b60046020526000908152604090205481565b60405160009080602081848060185afa61061d57fe5b5051919050565b6013546000906001600160a01b031615801590610650575060008281526001602052604090205460ff16155b156108bf57601354604051637b90ef2560e11b81526001600160a01b039091169063f721de4a90610685908590600401611bb5565b602060405180830381600087803b15801561069f57600080fd5b505af11580156106b3573d6000803e3d6000fd5b505050506040513d601f19601f820116820180604052508101906106d7919061195c565b156108bf57601354604051631b308bf760e31b81526000916001600160a01b03169063d9845fb89061070d908690600401611bb5565b600060405180830381600087803b15801561072757600080fd5b505af115801561073b573d6000803e3d6000fd5b505050506040513d6000823e601f3d908101601f1916820160405261076391908101906119d7565b6101a0810151909150600181600381111561078e57634e487b7160e01b600052602160045260246000fd5b14156108a0576040805160808101825261018084015181523360208083019190915242828401526000606083018190526002548152600382529290922081518051929391926107e09284920190611724565b506020820151600182810180546001600160a01b0319166001600160a01b0390931692909217909155604083015160028301556060830151600380840180549293909260ff191691849081111561084757634e487b7160e01b600052602160045260246000fd5b02179055505060025461085c91506001611e33565b60028190556101808301516040517f43ecb46cb5c77906888a0ab6a09798cb7feff11e826edd3ba74fada241e3a64691610897913390611c5e565b60405180910390a25b50506000828152600160208190526040909120805460ff191690911790555b6001600d60008282546108d29190611e33565b9091555060009150505b919050565b6108e96114e6565b6001600160a01b03166108fa610ac1565b6001600160a01b0316146109205760405162461bcd60e51b815260040161057690611d58565b60008181526003602052604081209061093982826117a8565b506001810180546001600160a01b031916905560006002820155600301805460ff1916905550565b6011546001600160a01b031681565b6109786114e6565b6001600160a01b0316610989610ac1565b6001600160a01b0316146109af5760405162461bcd60e51b815260040161057690611d58565b6109b960006114ea565b565b4290565b6012546001600160a01b031681565b600781815481106105db57600080fd5b600f546001600160a01b031681565b600a5481565b600360205260009081526040902080548190610a0e90611ea6565b80601f0160208091040260200160405190810160405280929190818152602001828054610a3a90611ea6565b8015610a875780601f10610a5c57610100808354040283529160200191610a87565b820191906000526020600020905b815481529060010190602001808311610a6a57829003601f168201915b505050506001830154600284015460039094015492936001600160a01b039091169290915060ff1684565b6013546001600160a01b031681565b6000546001600160a01b031690565b60086020528160005260406000208181548110610aec57600080fd5b6000918252602090912001546001600160a01b03169150829050565b60008282604051602001610b1d929190611b93565b6040516020818303038152906040528051906020012090505b92915050565b610b446114e6565b6001600160a01b0316610b55610ac1565b6001600160a01b031614610b7b5760405162461bcd60e51b815260040161057690611d58565b601380546001600160a01b0319166001600160a01b0392909216919091179055565b60025490565b600081604051602001610bb69190611bbe565b6040516020818303038152906040528051906020012083604051602001610bdd9190611bbe565b604051602081830303815290604052805190602001201415610c0157506001610b36565b506000610b36565b6000804241604051602001610c1e9190611b76565b6040516020818303038152906040528051906020012060001c610c419190611e4b565b44610c4a610607565b604051602001610c5a9190611bb5565b60408051601f198184030181529190528051602090910120610c7c9042611e33565b610c869190611e33565b610c909190611e33565b604051602001610ca09190611bb5565b60408051601f19818403018152919052805160209091012091505090565b6009546001600160a01b031681565b606060008211610cdc57600080fd5b600041604051602001610cef9190611b76565b6040516020818303038152906040528051906020012060001c610d10610607565b604051602001610d209190611bb5565b60408051601f198184030181529190528051602090910120610d429042611e33565b610d4c9190611e33565b604051602001610d5c9190611bb5565b6040516020818303038152906040528051906020012060001c905060008467ffffffffffffffff811115610da057634e487b7160e01b600052604160045260246000fd5b604051908082528060200260200182016040528015610dc9578160200160208202803683370190505b5090506000805b86821015610eca57600086610de963017efeeb87611e5f565b83604051602001610dfb929190611bda565b6040516020818303038152906040528051906020012060001c610e1e9190611efc565b90506000805b84811015610e765782868281518110610e4d57634e487b7160e01b600052603260045260246000fd5b60200260200101511415610e645760019150610e76565b80610e6e81611ee1565b915050610e24565b5080610eb65781858581518110610e9d57634e487b7160e01b600052603260045260246000fd5b6020908102919091010152610eb3846001611e33565b93505b610ec1836001611e33565b92505050610dd0565b509095945050505050565b6060600082118015610ee75750818311155b8015610ef4575060018310155b610f105760405162461bcd60e51b815260040161057690611d0f565b60008267ffffffffffffffff811115610f3957634e487b7160e01b600052604160045260246000fd5b604051908082528060200260200182016040528015610f62578160200160208202803683370190505b50905060008467ffffffffffffffff811115610f8e57634e487b7160e01b600052604160045260246000fd5b604051908082528060200260200182016040528015610fb7578160200160208202803683370190505b5090506000610fcd610fc88461153a565b611590565b905060005b86811015610eca57818181518110610ffa57634e487b7160e01b600052603260045260246000fd5b602002602001015183828151811061102257634e487b7160e01b600052603260045260246000fd5b60209081029190910101528061103781611ee1565b915050610fd2565b6110476114e6565b6001600160a01b0316611058610ac1565b6001600160a01b03161461107e5760405162461bcd60e51b815260040161057690611d58565b601280546001600160a01b0319166001600160a01b0392909216919091179055565b6110a86114e6565b6001600160a01b03166110b9610ac1565b6001600160a01b0316146110df5760405162461bcd60e51b815260040161057690611d58565b60008181526001602052604090205460ff161561110d576000818152600160205260409020805460ff191690555b50565b600c5481565b60056020528160005260406000208181548110610aec57600080fd5b61113a6114e6565b6001600160a01b031661114b610ac1565b6001600160a01b0316146111715760405162461bcd60e51b815260040161057690611d58565b601080546001600160a01b0319166001600160a01b0392909216919091179055565b61119b6114e6565b6001600160a01b03166111ac610ac1565b6001600160a01b0316146111d25760405162461bcd60e51b815260040161057690611d58565b600f80546001600160a01b0319166001600160a01b0392909216919091179055565b60606000821161120357600080fd5b60008267ffffffffffffffff81111561122c57634e487b7160e01b600052604160045260246000fd5b604051908082528060200260200182016040528015611255578160200160208202803683370190505b5090506000611266610fc88361153a565b949350505050565b606060025482111561127f57600080fd5b6000828152600360205260409020805461129890611ea6565b80601f01602080910402602001604051908101604052809291908181526020018280546112c490611ea6565b80156113115780601f106112e657610100808354040283529160200191611311565b820191906000526020600020905b8154815290600101906020018083116112f457829003601f168201915b50505050509050919050565b600b5481565b61132b6117e4565b60025482111561133a57600080fd5b6000828152600360205260409081902081516080810190925280548290829061136290611ea6565b80601f016020809104026020016040519081016040528092919081815260200182805461138e90611ea6565b80156113db5780601f106113b0576101008083540402835291602001916113db565b820191906000526020600020905b8154815290600101906020018083116113be57829003601f168201915b505050918352505060018201546001600160a01b031660208201526002820154604082015260038083015460609092019160ff169081111561142d57634e487b7160e01b600052602160045260246000fd5b600381111561144c57634e487b7160e01b600052602160045260246000fd5b90525092915050565b600d5481565b6114636114e6565b6001600160a01b0316611474610ac1565b6001600160a01b03161461149a5760405162461bcd60e51b815260040161057690611d58565b6001600160a01b0381166114c05760405162461bcd60e51b815260040161057690611cc9565b61110d816114ea565b600d5490565b600254101590565b600e546001600160a01b031681565b3390565b600080546001600160a01b038381166001600160a01b0319831681178455604051919092169283917f8be0079c531659141344cd1fd0a4f28419497f9722a3daafe3b4186f6b6457e09190a35050565b805160609060005b81811015611588578084828151811061156b57634e487b7160e01b600052603260045260246000fd5b60209081029190910101528061158081611ee1565b915050611542565b509192915050565b606060008251116115a057600080fd5b81518060005b8181101561171b576000836115b9610c09565b8784815181106115d957634e487b7160e01b600052603260045260246000fd5b60200260200101516040516020016115f2929190611bda565b6040516020818303038152906040528051906020012060001c6116159190611efc565b611620906001611e33565b9050600086611630600184611e5f565b8151811061164e57634e487b7160e01b600052603260045260246000fd5b60200260200101519050866001866116669190611e5f565b8151811061168457634e487b7160e01b600052603260045260246000fd5b60200260200101518760018461169a9190611e5f565b815181106116b857634e487b7160e01b600052603260045260246000fd5b602090810291909101015280876116d0600188611e5f565b815181106116ee57634e487b7160e01b600052603260045260246000fd5b6020908102919091010152611704600186611e5f565b94505050808061171390611ee1565b9150506115a6565b50929392505050565b82805461173090611ea6565b90600052602060002090601f0160209004810192826117525760008555611798565b82601f1061176b57805160ff1916838001178555611798565b82800160010185558215611798579182015b8281111561179857825182559160200191906001019061177d565b506117a4929150611833565b5090565b5080546117b490611ea6565b6000825580601f106117c6575061110d565b601f01602090049060005260206000209081019061110d9190611833565b60405180608001604052806060815260200160006001600160a01b03168152602001600081526020016000600381111561182e57634e487b7160e01b600052602160045260246000fd5b905290565b5b808211156117a45760008155600101611834565b80356001600160a01b03811681146108dc57600080fd5b805180151581146108dc57600080fd5b8051600481106108dc57600080fd5b600082601f83011261188e578081fd5b81356118a161189c82611e0b565b611de1565b8181528460208386010111156118b5578283fd5b816020850160208301379081016020019190915292915050565b600082601f8301126118df578081fd5b81516118ed61189c82611e0b565b818152846020838601011115611901578283fd5b611266826020830160208701611e76565b600060208284031215611923578081fd5b61192c82611848565b9392505050565b60008060408385031215611945578081fd5b61194e83611848565b946020939093013593505050565b60006020828403121561196d578081fd5b61192c8261185f565b60008060408385031215611988578182fd5b823567ffffffffffffffff8082111561199f578384fd5b6119ab8683870161187e565b935060208501359150808211156119c0578283fd5b506119cd8582860161187e565b9150509250929050565b6000602082840312156119e8578081fd5b815167ffffffffffffffff808211156119ff578283fd5b81840191506101c0808387031215611a15578384fd5b611a1e81611de1565b90508251815260208301516020820152604083015160408201526060830151606082015260808301516080820152611a5860a0840161185f565b60a0820152611a6960c0840161185f565b60c0820152611a7a60e0840161185f565b60e082015261010083810151908201526101208084015190820152610140808401519082015261016080840151908201526101808084015183811115611abe578586fd5b611aca888287016118cf565b8284015250506101a09150611ae082840161186f565b91810191909152949350505050565b600060208284031215611b00578081fd5b5035919050565b60008060408385031215611b19578182fd5b50508035926020909101359150565b60048110611b4657634e487b7160e01b600052602160045260246000fd5b9052565b60008151808452611b62816020860160208601611e76565b601f01601f19169290920160200192915050565b60609190911b6bffffffffffffffffffffffff1916815260140190565b60609290921b6bffffffffffffffffffffffff19168252601482015260340190565b90815260200190565b60008251611bd0818460208701611e76565b9190910192915050565b918252602082015260400190565b6001600160a01b0391909116815260200190565b6020808252825182820181905260009190848201906040850190845b81811015611c3457835183529284019291840191600101611c18565b50909695505050505050565b901515815260200190565b60006020825261192c6020830184611b4a565b600060408252611c716040830185611b4a565b905060018060a01b03831660208301529392505050565b600060808252611c9b6080830187611b4a565b6001600160a01b0386166020840152604083018590529050611cc06060830184611b28565b95945050505050565b60208082526026908201527f4f776e61626c653a206e6577206f776e657220697320746865207a65726f206160408201526564647265737360d01b606082015260800190565b60208082526029908201527f6b206f72204e20617265206e6f74204f4b20647572696e672072616e646f6d2060408201526839b2b632b1ba34b7b760b91b606082015260800190565b6020808252818101527f4f776e61626c653a2063616c6c6572206973206e6f7420746865206f776e6572604082015260600190565b600060208252825160806020840152611da960a0840182611b4a565b905060018060a01b036020850151166040840152604084015160608401526060840151611dd96080850182611b28565b509392505050565b60405181810167ffffffffffffffff81118282101715611e0357611e03611f3c565b604052919050565b600067ffffffffffffffff821115611e2557611e25611f3c565b50601f01601f191660200190565b60008219821115611e4657611e46611f10565b500190565b600082611e5a57611e5a611f26565b500490565b600082821015611e7157611e71611f10565b500390565b60005b83811015611e91578181015183820152602001611e79565b83811115611ea0576000848401525b50505050565b600281046001821680611eba57607f821691505b60208210811415611edb57634e487b7160e01b600052602260045260246000fd5b50919050565b6000600019821415611ef557611ef5611f10565b5060010190565b600082611f0b57611f0b611f26565b500690565b634e487b7160e01b600052601160045260246000fd5b634e487b7160e01b600052601260045260246000fd5b634e487b7160e01b600052604160045260246000fdfea2646970667358221220a350b18879d3052bc0fc1271a62bfe107979adbb26afcfeb61eaad098c88168164736f6c63430008000033",
  "linkReferences": {},
  "deployedLinkReferences": {}
}