{
  "_format": "hh-sol-artifact-1",
  "contractName": "DataArchive",
  "sourceName": "contracts/worksystems/DataArchive.sol",
  "abi": [
    {
      "inputs": [
        {
          "internalType": "address",
          "name": "EXDT_token",
          "type": "address"
        },
        {
          "internalType": "address",
          "name": "_FormattingSystem",
          "type": "address"
        }
      ],
      "stateMutability": "nonpayable",
      "type": "constructor"
    },
    {
      "anonymous": false,
      "inputs": [
        {
          "indexed": false,
          "internalType": "bytes",
          "name": "bytesFailure",
          "type": "bytes"
        }
      ],
      "name": "BytesFailure",
      "type": "event"
    },
    {
      "anonymous": false,
      "inputs": [
        {
          "indexed": true,
          "internalType": "address",
          "name": "previousOwner",
          "type": "address"
        },
        {
          "indexed": true,
          "internalType": "address",
          "name": "newOwner",
          "type": "address"
        }
      ],
      "name": "OwnershipTransferred",
      "type": "event"
    },
    {
      "anonymous": false,
      "inputs": [
        {
          "indexed": true,
          "internalType": "uint256",
          "name": "DataID",
          "type": "uint256"
        },
        {
          "indexed": false,
          "internalType": "string",
          "name": "file_hash",
          "type": "string"
        },
        {
          "indexed": false,
          "internalType": "address",
          "name": "sender",
          "type": "address"
        }
      ],
      "name": "_DataArchive",
      "type": "event"
    },
    {
      "anonymous": false,
      "inputs": [
        {
          "indexed": true,
          "internalType": "uint256",
          "name": "DataID",
          "type": "uint256"
        },
        {
          "indexed": true,
          "internalType": "address",
          "name": "voter",
          "type": "address"
        }
      ],
      "name": "_TokensRescued",
      "type": "event"
    },
    {
      "anonymous": false,
      "inputs": [
        {
          "indexed": false,
          "internalType": "uint256",
          "name": "numTokens",
          "type": "uint256"
        },
        {
          "indexed": true,
          "internalType": "address",
          "name": "voter",
          "type": "address"
        }
      ],
      "name": "_VotingRightsGranted",
      "type": "event"
    },
    {
      "anonymous": false,
      "inputs": [
        {
          "indexed": false,
          "internalType": "uint256",
          "name": "numTokens",
          "type": "uint256"
        },
        {
          "indexed": true,
          "internalType": "address",
          "name": "voter",
          "type": "address"
        }
      ],
      "name": "_VotingRightsWithdrawn",
      "type": "event"
    },
    {
      "anonymous": false,
      "inputs": [
        {
          "indexed": true,
          "internalType": "uint256",
          "name": "batchID",
          "type": "uint256"
        },
        {
          "indexed": false,
          "internalType": "address",
          "name": "worker",
          "type": "address"
        }
      ],
      "name": "_WorkAllocated",
      "type": "event"
    },
    {
      "anonymous": false,
      "inputs": [
        {
          "indexed": true,
          "internalType": "address",
          "name": "worker",
          "type": "address"
        },
        {
          "indexed": false,
          "internalType": "uint256",
          "name": "timestamp",
          "type": "uint256"
        }
      ],
      "name": "_WorkerRegistered",
      "type": "event"
    },
    {
      "anonymous": false,
      "inputs": [
        {
          "indexed": true,
          "internalType": "address",
          "name": "worker",
          "type": "address"
        },
        {
          "indexed": false,
          "internalType": "uint256",
          "name": "timestamp",
          "type": "uint256"
        }
      ],
      "name": "_WorkerUnregistered",
      "type": "event"
    },
    {
      "inputs": [],
      "name": "AddressManager",
      "outputs": [
        {
          "internalType": "contract IAddressManager",
          "name": "",
          "type": "address"
        }
      ],
      "stateMutability": "view",
      "type": "function"
    },
    {
      "inputs": [],
      "name": "AllTxsCounter",
      "outputs": [
        {
          "internalType": "uint256",
          "name": "",
          "type": "uint256"
        }
      ],
      "stateMutability": "view",
      "type": "function"
    },
    {
      "inputs": [],
      "name": "AllocatedBatchCursor",
      "outputs": [
        {
          "internalType": "uint256",
          "name": "",
          "type": "uint256"
        }
      ],
      "stateMutability": "view",
      "type": "function"
    },
    {
      "inputs": [
        {
          "internalType": "uint256",
          "name": "",
          "type": "uint256"
        }
      ],
      "name": "ArchiveMapping",
      "outputs": [
        {
          "internalType": "string",
          "name": "ipfs_hash",
          "type": "string"
        },
        {
          "internalType": "address",
          "name": "author",
          "type": "address"
        },
        {
          "internalType": "uint256",
          "name": "timestamp",
          "type": "uint256"
        },
        {
          "internalType": "enum DataArchive.DataStatus",
          "name": "status",
          "type": "uint8"
        }
      ],
      "stateMutability": "view",
      "type": "function"
    },
    {
      "inputs": [
        {
          "internalType": "string",
          "name": "_a",
          "type": "string"
        },
        {
          "internalType": "string",
          "name": "_b",
          "type": "string"
        }
      ],
      "name": "AreStringsEqual",
      "outputs": [
        {
          "internalType": "bool",
          "name": "",
          "type": "bool"
        }
      ],
      "stateMutability": "pure",
      "type": "function"
    },
    {
      "inputs": [],
      "name": "BatchCheckingCursor",
      "outputs": [
        {
          "internalType": "uint256",
          "name": "",
          "type": "uint256"
        }
      ],
      "stateMutability": "view",
      "type": "function"
    },
    {
      "inputs": [
        {
          "internalType": "uint256",
          "name": "",
          "type": "uint256"
        }
      ],
      "name": "CollectedFormatBatchs",
      "outputs": [
        {
          "internalType": "bool",
          "name": "",
          "type": "bool"
        }
      ],
      "stateMutability": "view",
      "type": "function"
    },
    {
      "inputs": [
        {
          "internalType": "uint256",
          "name": "_DataId",
          "type": "uint256"
        }
      ],
      "name": "DataExists",
      "outputs": [
        {
          "internalType": "bool",
          "name": "exists",
          "type": "bool"
        }
      ],
      "stateMutability": "view",
      "type": "function"
    },
    {
      "inputs": [],
      "name": "DataNonce",
      "outputs": [
        {
          "internalType": "uint256",
          "name": "",
          "type": "uint256"
        }
      ],
      "stateMutability": "view",
      "type": "function"
    },
    {
      "inputs": [
        {
          "internalType": "address",
          "name": "",
          "type": "address"
        }
      ],
      "name": "FormatStakedTokenBalance",
      "outputs": [
        {
          "internalType": "uint256",
          "name": "",
          "type": "uint256"
        }
      ],
      "stateMutability": "view",
      "type": "function"
    },
    {
      "inputs": [],
      "name": "FormattingSystem",
      "outputs": [
        {
          "internalType": "contract IFormattingSystem",
          "name": "",
          "type": "address"
        }
      ],
      "stateMutability": "view",
      "type": "function"
    },
    {
      "inputs": [],
      "name": "LastBatchCounter",
      "outputs": [
        {
          "internalType": "uint256",
          "name": "",
          "type": "uint256"
        }
      ],
      "stateMutability": "view",
      "type": "function"
    },
    {
      "inputs": [
        {
          "internalType": "address",
          "name": "",
          "type": "address"
        },
        {
          "internalType": "uint256",
          "name": "",
          "type": "uint256"
        }
      ],
      "name": "MasterWorkers",
      "outputs": [
        {
          "internalType": "address",
          "name": "",
          "type": "address"
        }
      ],
      "stateMutability": "view",
      "type": "function"
    },
    {
      "inputs": [
        {
          "internalType": "uint256",
          "name": "CheckedBatchId",
          "type": "uint256"
        }
      ],
      "name": "Ping",
      "outputs": [
        {
          "internalType": "bool",
          "name": "",
          "type": "bool"
        }
      ],
      "stateMutability": "nonpayable",
      "type": "function"
    },
    {
      "inputs": [],
      "name": "RepManager",
      "outputs": [
        {
          "internalType": "contract IRepManager",
          "name": "",
          "type": "address"
        }
      ],
      "stateMutability": "view",
      "type": "function"
    },
    {
      "inputs": [],
      "name": "RewardManager",
      "outputs": [
        {
          "internalType": "contract IRewardManager",
          "name": "",
          "type": "address"
        }
      ],
      "stateMutability": "view",
      "type": "function"
    },
    {
      "inputs": [],
      "name": "StakeManager",
      "outputs": [
        {
          "internalType": "contract IStakeManager",
          "name": "",
          "type": "address"
        }
      ],
      "stateMutability": "view",
      "type": "function"
    },
    {
      "inputs": [
        {
          "internalType": "uint256",
          "name": "",
          "type": "uint256"
        },
        {
          "internalType": "uint256",
          "name": "",
          "type": "uint256"
        }
      ],
      "name": "WorkersPerBatch",
      "outputs": [
        {
          "internalType": "address",
          "name": "",
          "type": "address"
        }
      ],
      "stateMutability": "view",
      "type": "function"
    },
    {
      "inputs": [
        {
          "internalType": "address",
          "name": "_user",
          "type": "address"
        },
        {
          "internalType": "uint256",
          "name": "_DataBatchId",
          "type": "uint256"
        }
      ],
      "name": "attrUUID",
      "outputs": [
        {
          "internalType": "bytes32",
          "name": "UUID",
          "type": "bytes32"
        }
      ],
      "stateMutability": "pure",
      "type": "function"
    },
    {
      "inputs": [
        {
          "internalType": "uint256",
          "name": "",
          "type": "uint256"
        }
      ],
      "name": "availableWorkers",
      "outputs": [
        {
          "internalType": "address",
          "name": "",
          "type": "address"
        }
      ],
      "stateMutability": "view",
      "type": "function"
    },
    {
      "inputs": [
        {
          "internalType": "uint256",
          "name": "",
          "type": "uint256"
        }
      ],
      "name": "busyWorkers",
      "outputs": [
        {
          "internalType": "address",
          "name": "",
          "type": "address"
        }
      ],
      "stateMutability": "view",
      "type": "function"
    },
    {
      "inputs": [
        {
          "internalType": "uint256",
          "name": "_DataId",
          "type": "uint256"
        }
      ],
      "name": "deleteData",
      "outputs": [],
      "stateMutability": "nonpayable",
      "type": "function"
    },
    {
      "inputs": [
        {
          "internalType": "uint256",
          "name": "_CheckedBatchId",
          "type": "uint256"
        }
      ],
      "name": "deleteMapping",
      "outputs": [],
      "stateMutability": "nonpayable",
      "type": "function"
    },
    {
      "inputs": [
        {
          "internalType": "uint256",
          "name": "_k",
          "type": "uint256"
        },
        {
          "internalType": "uint256",
          "name": "N_range",
          "type": "uint256"
        }
      ],
      "name": "generateIntegers",
      "outputs": [
        {
          "internalType": "uint256[]",
          "name": "",
          "type": "uint256[]"
        }
      ],
      "stateMutability": "view",
      "type": "function"
    },
    {
      "inputs": [],
      "name": "getBlockTimestamp",
      "outputs": [
        {
          "internalType": "uint256",
          "name": "blocktimestamp",
          "type": "uint256"
        }
      ],
      "stateMutability": "view",
      "type": "function"
    },
    {
      "inputs": [
        {
          "internalType": "uint256",
          "name": "_DataID",
          "type": "uint256"
        }
      ],
      "name": "getDataById",
      "outputs": [
        {
          "components": [
            {
              "internalType": "string",
              "name": "ipfs_hash",
              "type": "string"
            },
            {
              "internalType": "address",
              "name": "author",
              "type": "address"
            },
            {
              "internalType": "uint256",
              "name": "timestamp",
              "type": "uint256"
            },
            {
              "internalType": "enum DataArchive.DataStatus",
              "name": "status",
              "type": "uint8"
            }
          ],
          "internalType": "struct DataArchive.ArchiveData",
          "name": "data",
          "type": "tuple"
        }
      ],
      "stateMutability": "view",
      "type": "function"
    },
    {
      "inputs": [
        {
          "internalType": "uint256",
          "name": "_DataID",
          "type": "uint256"
        }
      ],
      "name": "getFileById",
      "outputs": [
        {
          "internalType": "string",
          "name": "ipfs_hash",
          "type": "string"
        }
      ],
      "stateMutability": "view",
      "type": "function"
    },
    {
      "inputs": [],
      "name": "getLastDataId",
      "outputs": [
        {
          "internalType": "uint256",
          "name": "DataId",
          "type": "uint256"
        }
      ],
      "stateMutability": "view",
      "type": "function"
    },
    {
      "inputs": [],
      "name": "getRandom",
      "outputs": [
        {
          "internalType": "uint256",
          "name": "",
          "type": "uint256"
        }
      ],
      "stateMutability": "view",
      "type": "function"
    },
    {
      "inputs": [],
      "name": "getSeed",
      "outputs": [
        {
          "internalType": "bytes32",
          "name": "addr",
          "type": "bytes32"
        }
      ],
      "stateMutability": "view",
      "type": "function"
    },
    {
      "inputs": [],
      "name": "getTxCounter",
      "outputs": [
        {
          "internalType": "uint256",
          "name": "Counter",
          "type": "uint256"
        }
      ],
      "stateMutability": "view",
      "type": "function"
    },
    {
      "inputs": [],
      "name": "owner",
      "outputs": [
        {
          "internalType": "address",
          "name": "",
          "type": "address"
        }
      ],
      "stateMutability": "view",
      "type": "function"
    },
    {
      "inputs": [
        {
          "internalType": "uint256",
          "name": "k",
          "type": "uint256"
        },
        {
          "internalType": "uint256",
          "name": "N",
          "type": "uint256"
        }
      ],
      "name": "random_selection",
      "outputs": [
        {
          "internalType": "uint256[]",
          "name": "",
          "type": "uint256[]"
        }
      ],
      "stateMutability": "view",
      "type": "function"
    },
    {
      "inputs": [],
      "name": "renounceOwnership",
      "outputs": [],
      "stateMutability": "nonpayable",
      "type": "function"
    },
    {
      "inputs": [],
      "name": "sFuel",
      "outputs": [
        {
          "internalType": "address",
          "name": "",
          "type": "address"
        }
      ],
      "stateMutability": "view",
      "type": "function"
    },
    {
      "inputs": [
        {
          "internalType": "uint256",
          "name": "N",
          "type": "uint256"
        }
      ],
      "name": "shuffle_array",
      "outputs": [
        {
          "internalType": "uint256[]",
          "name": "",
          "type": "uint256[]"
        }
      ],
      "stateMutability": "view",
      "type": "function"
    },
    {
      "inputs": [],
      "name": "token",
      "outputs": [
        {
          "internalType": "contract IERC20",
          "name": "",
          "type": "address"
        }
      ],
      "stateMutability": "view",
      "type": "function"
    },
    {
      "inputs": [
        {
          "internalType": "address",
          "name": "newOwner",
          "type": "address"
        }
      ],
      "name": "transferOwnership",
      "outputs": [],
      "stateMutability": "nonpayable",
      "type": "function"
    },
    {
      "inputs": [
        {
          "internalType": "address",
          "name": "addr",
          "type": "address"
        }
      ],
      "name": "updateAddressManager",
      "outputs": [],
      "stateMutability": "nonpayable",
      "type": "function"
    },
    {
      "inputs": [
        {
          "internalType": "address",
          "name": "addr",
          "type": "address"
        }
      ],
      "name": "updatePreviousSystem",
      "outputs": [],
      "stateMutability": "nonpayable",
      "type": "function"
    },
    {
      "inputs": [
        {
          "internalType": "address",
          "name": "addr",
          "type": "address"
        }
      ],
      "name": "updateRepManager",
      "outputs": [],
      "stateMutability": "nonpayable",
      "type": "function"
    },
    {
      "inputs": [
        {
          "internalType": "address",
          "name": "addr",
          "type": "address"
        }
      ],
      "name": "updateRewardManager",
      "outputs": [],
      "stateMutability": "nonpayable",
      "type": "function"
    },
    {
      "inputs": [
        {
          "internalType": "address",
          "name": "addr",
          "type": "address"
        }
      ],
      "name": "updateStakeManager",
      "outputs": [],
      "stateMutability": "nonpayable",
      "type": "function"
    }
  ],
  "bytecode": "0x608060405260006002819055600980546001600160a01b0319167314f52f3fc010ab6ca81568d4a6794d5eab3c61551790556001600a819055600b819055600c55600d553480156200005057600080fd5b50604051620021a8380380620021a883398101604081905262000073916200012f565b6200008762000081620000be565b620000c2565b600e80546001600160a01b039384166001600160a01b03199182161790915560138054929093169116179055600060025562000166565b3390565b600080546001600160a01b038381166001600160a01b0319831681178455604051919092169283917f8be0079c531659141344cd1fd0a4f28419497f9722a3daafe3b4186f6b6457e09190a35050565b80516001600160a01b03811681146200012a57600080fd5b919050565b6000806040838503121562000142578182fd5b6200014d8362000112565b91506200015d6020840162000112565b90509250929050565b61203280620001766000396000f3fe608060405234801561001057600080fd5b50600436106102695760003560e01c8063a16a11e011610151578063dd618682116100c3578063f2722a9f11610087578063f2722a9f146104d9578063f2d9e74d146104f9578063f2fde38b14610501578063f5ae7c7d14610514578063f721de4a1461051c578063fc0c546a1461052f57610269565b8063dd61868214610478578063df05368e1461048b578063e44c974b1461049e578063e4e6025e146104b1578063ef4fcdad146104d157610269565b8063b1d7ea9811610115578063b1d7ea9814610404578063b8f011b314610424578063c47c4bc214610437578063ced5ca6f1461044a578063d6b0206c1461045d578063d822ce011461046557610269565b8063a16a11e0146103c6578063a511dba0146103d9578063a9057790146103e1578063aacc5a17146103f4578063ab43e78d146103fc57610269565b8063715018a6116101ea5780638473850b116101ae5780638473850b146103655780638cbdab3c1461036d5780638d289f8f146103905780638da5cb5b146103985780638df0296e146103a0578063a1103f37146103b357610269565b8063715018a614610332578063796b89b91461033a5780637a34da6714610342578063821aa8c01461034a57806383cc6ef21461035d57610269565b8063353f44d011610231578063353f44d0146102e957806339e7357c146102fc57806348257dc9146103045780634fe8b4c11461031757806351912f291461032a57610269565b8063050eb2eb1461026e5780630e6661a714610283578063171ee06a146102a157806329a47bc7146102c15780633538af82146102d6575b600080fd5b61028161027c36600461194b565b610537565b005b61028b6105a1565b6040516102989190611bee565b60405180910390f35b6102b46102af366004611b28565b6105a7565b6040516102989190611c79565b6102c96105bc565b6040516102989190611c21565b6102c96102e4366004611b28565b6105cb565b61028b6102f736600461194b565b6105f5565b61028b610607565b6102b4610312366004611b28565b610624565b610281610325366004611b28565b6108e1565b6102c9610961565b610281610970565b61028b6109bb565b6102c96109bf565b6102c9610358366004611b28565b6109ce565b6102c96109de565b61028b6109ed565b61038061037b366004611b28565b6109f3565b6040516102989493929190611cc1565b6102c9610ab2565b6102c9610ac1565b6102c96103ae366004611b40565b610ad0565b61028b6103c136600461196c565b610b08565b6102816103d436600461194b565b610b3c565b61028b610b9d565b6102b46103ef3660046119af565b610ba3565b61028b610c09565b6102c9610cbe565b610417610412366004611b40565b610ccd565b6040516102989190611c35565b610417610432366004611b40565b610ee8565b61028161044536600461194b565b611052565b610281610458366004611b28565b6110b3565b61028b611123565b6102c961047336600461196c565b611129565b61028161048636600461194b565b611145565b61028161049936600461194b565b6111a6565b6104176104ac366004611b28565b611207565b6104c46104bf366004611b28565b611294565b6040516102989190611c84565b61028b611343565b6104ec6104e7366004611b28565b611349565b6040516102989190611e37565b61028b61147b565b61028161050f36600461194b565b611481565b61028b6114ef565b6102b461052a366004611b28565b6114f5565b6102c96114fd565b61053f61150c565b6001600160a01b0316610550610ac1565b6001600160a01b03161461057f5760405162461bcd60e51b815260040161057690611e02565b60405180910390fd5b601180546001600160a01b0319166001600160a01b0392909216919091179055565b60025481565b60016020526000908152604090205460ff1681565b6010546001600160a01b031681565b600681815481106105db57600080fd5b6000918252602090912001546001600160a01b0316905081565b60046020526000908152604090205481565b60405160009080602081848060185afa61061d57fe5b5051919050565b6013546000906001600160a01b031615801590610650575060008281526001602052604090205460ff16155b156108bf57601354604051637b90ef2560e11b81526001600160a01b039091169063f721de4a90610685908590600401611bee565b602060405180830381600087803b15801561069f57600080fd5b505af11580156106b3573d6000803e3d6000fd5b505050506040513d601f19601f820116820180604052508101906106d79190611995565b156108bf57601354604051631b308bf760e31b81526000916001600160a01b03169063d9845fb89061070d908690600401611bee565b600060405180830381600087803b15801561072757600080fd5b505af115801561073b573d6000803e3d6000fd5b505050506040513d6000823e601f3d908101601f191682016040526107639190810190611a10565b6101a0810151909150600181600381111561078e57634e487b7160e01b600052602160045260246000fd5b14156108a0576040805160808101825261018084015181523360208083019190915242828401526000606083018190526002548152600382529290922081518051929391926107e0928492019061175d565b506020820151600182810180546001600160a01b0319166001600160a01b0390931692909217909155604083015160028301556060830151600380840180549293909260ff191691849081111561084757634e487b7160e01b600052602160045260246000fd5b02179055505060025461085c91506001611edd565b60028190556101808301516040517f43ecb46cb5c77906888a0ab6a09798cb7feff11e826edd3ba74fada241e3a64691610897913390611c97565b60405180910390a25b50506000828152600160208190526040909120805460ff191690911790555b6001600d60008282546108d29190611edd565b9091555060009150505b919050565b6108e961150c565b6001600160a01b03166108fa610ac1565b6001600160a01b0316146109205760405162461bcd60e51b815260040161057690611e02565b60008181526003602052604081209061093982826117e1565b506001810180546001600160a01b031916905560006002820155600301805460ff1916905550565b6011546001600160a01b031681565b61097861150c565b6001600160a01b0316610989610ac1565b6001600160a01b0316146109af5760405162461bcd60e51b815260040161057690611e02565b6109b96000611510565b565b4290565b6012546001600160a01b031681565b600781815481106105db57600080fd5b600f546001600160a01b031681565b600a5481565b600360205260009081526040902080548190610a0e90611f50565b80601f0160208091040260200160405190810160405280929190818152602001828054610a3a90611f50565b8015610a875780601f10610a5c57610100808354040283529160200191610a87565b820191906000526020600020905b815481529060010190602001808311610a6a57829003601f168201915b505050506001830154600284015460039094015492936001600160a01b039091169290915060ff1684565b6013546001600160a01b031681565b6000546001600160a01b031690565b60086020528160005260406000208181548110610aec57600080fd5b6000918252602090912001546001600160a01b03169150829050565b60008282604051602001610b1d929190611bcc565b6040516020818303038152906040528051906020012090505b92915050565b610b4461150c565b6001600160a01b0316610b55610ac1565b6001600160a01b031614610b7b5760405162461bcd60e51b815260040161057690611e02565b601380546001600160a01b0319166001600160a01b0392909216919091179055565b60025490565b600081604051602001610bb69190611bf7565b6040516020818303038152906040528051906020012083604051602001610bdd9190611bf7565b604051602081830303815290604052805190602001201415610c0157506001610b36565b506000610b36565b6000804241604051602001610c1e9190611baf565b6040516020818303038152906040528051906020012060001c610c419190611ef5565b44610c4a610607565b604051602001610c5a9190611bee565b60408051601f198184030181529190528051602090910120610c7c9042611edd565b610c869190611edd565b610c909190611edd565b604051602001610ca09190611bee565b60408051601f19818403018152919052805160209091012091505090565b6009546001600160a01b031681565b606060008211610cef5760405162461bcd60e51b815260040161057690611ddd565b600041604051602001610d029190611baf565b6040516020818303038152906040528051906020012060001c610d23610607565b604051602001610d339190611bee565b60408051601f198184030181529190528051602090910120610d559042611edd565b610d5f9190611edd565b604051602001610d6f9190611bee565b6040516020818303038152906040528051906020012060001c905060008467ffffffffffffffff811115610db357634e487b7160e01b600052604160045260246000fd5b604051908082528060200260200182016040528015610ddc578160200160208202803683370190505b5090506000805b86821015610edd57600086610dfc63017efeeb87611f09565b83604051602001610e0e929190611c13565b6040516020818303038152906040528051906020012060001c610e319190611fa6565b90506000805b84811015610e895782868281518110610e6057634e487b7160e01b600052603260045260246000fd5b60200260200101511415610e775760019150610e89565b80610e8181611f8b565b915050610e37565b5080610ec95781858581518110610eb057634e487b7160e01b600052603260045260246000fd5b6020908102919091010152610ec6846001611edd565b93505b610ed4836001611edd565b92505050610de3565b509095945050505050565b6060600082118015610efa5750818311155b8015610f07575060018310155b610f235760405162461bcd60e51b815260040161057690611d48565b60008267ffffffffffffffff811115610f4c57634e487b7160e01b600052604160045260246000fd5b604051908082528060200260200182016040528015610f75578160200160208202803683370190505b50905060008467ffffffffffffffff811115610fa157634e487b7160e01b600052604160045260246000fd5b604051908082528060200260200182016040528015610fca578160200160208202803683370190505b5090506000610fe0610fdb84611560565b6115b6565b905060005b86811015610edd5781818151811061100d57634e487b7160e01b600052603260045260246000fd5b602002602001015183828151811061103557634e487b7160e01b600052603260045260246000fd5b60209081029190910101528061104a81611f8b565b915050610fe5565b61105a61150c565b6001600160a01b031661106b610ac1565b6001600160a01b0316146110915760405162461bcd60e51b815260040161057690611e02565b601280546001600160a01b0319166001600160a01b0392909216919091179055565b6110bb61150c565b6001600160a01b03166110cc610ac1565b6001600160a01b0316146110f25760405162461bcd60e51b815260040161057690611e02565b60008181526001602052604090205460ff1615611120576000818152600160205260409020805460ff191690555b50565b600c5481565b60056020528160005260406000208181548110610aec57600080fd5b61114d61150c565b6001600160a01b031661115e610ac1565b6001600160a01b0316146111845760405162461bcd60e51b815260040161057690611e02565b601080546001600160a01b0319166001600160a01b0392909216919091179055565b6111ae61150c565b6001600160a01b03166111bf610ac1565b6001600160a01b0316146111e55760405162461bcd60e51b815260040161057690611e02565b600f80546001600160a01b0319166001600160a01b0392909216919091179055565b6060600082116112295760405162461bcd60e51b815260040161057690611dbe565b60008267ffffffffffffffff81111561125257634e487b7160e01b600052604160045260246000fd5b60405190808252806020026020018201604052801561127b578160200160208202803683370190505b509050600061128c610fdb83611560565b949350505050565b60606002548211156112a557600080fd5b600082815260036020526040902080546112be90611f50565b80601f01602080910402602001604051908101604052809291908181526020018280546112ea90611f50565b80156113375780601f1061130c57610100808354040283529160200191611337565b820191906000526020600020905b81548152906001019060200180831161131a57829003601f168201915b50505050509050919050565b600b5481565b61135161181d565b60025482111561136057600080fd5b6000828152600360205260409081902081516080810190925280548290829061138890611f50565b80601f01602080910402602001604051908101604052809291908181526020018280546113b490611f50565b80156114015780601f106113d657610100808354040283529160200191611401565b820191906000526020600020905b8154815290600101906020018083116113e457829003601f168201915b505050918352505060018201546001600160a01b031660208201526002820154604082015260038083015460609092019160ff169081111561145357634e487b7160e01b600052602160045260246000fd5b600381111561147257634e487b7160e01b600052602160045260246000fd5b90525092915050565b600d5481565b61148961150c565b6001600160a01b031661149a610ac1565b6001600160a01b0316146114c05760405162461bcd60e51b815260040161057690611e02565b6001600160a01b0381166114e65760405162461bcd60e51b815260040161057690611d02565b61112081611510565b600d5490565b600254101590565b600e546001600160a01b031681565b3390565b600080546001600160a01b038381166001600160a01b0319831681178455604051919092169283917f8be0079c531659141344cd1fd0a4f28419497f9722a3daafe3b4186f6b6457e09190a35050565b805160609060005b818110156115ae578084828151811061159157634e487b7160e01b600052603260045260246000fd5b6020908102919091010152806115a681611f8b565b915050611568565b509192915050565b606060008251116115d95760405162461bcd60e51b815260040161057690611d91565b81518060005b81811015611754576000836115f2610c09565b87848151811061161257634e487b7160e01b600052603260045260246000fd5b602002602001015160405160200161162b929190611c13565b6040516020818303038152906040528051906020012060001c61164e9190611fa6565b611659906001611edd565b9050600086611669600184611f09565b8151811061168757634e487b7160e01b600052603260045260246000fd5b602002602001015190508660018661169f9190611f09565b815181106116bd57634e487b7160e01b600052603260045260246000fd5b6020026020010151876001846116d39190611f09565b815181106116f157634e487b7160e01b600052603260045260246000fd5b60209081029190910101528087611709600188611f09565b8151811061172757634e487b7160e01b600052603260045260246000fd5b602090810291909101015261173d600186611f09565b94505050808061174c90611f8b565b9150506115df565b50929392505050565b82805461176990611f50565b90600052602060002090601f01602090048101928261178b57600085556117d1565b82601f106117a457805160ff19168380011785556117d1565b828001600101855582156117d1579182015b828111156117d15782518255916020019190600101906117b6565b506117dd92915061186c565b5090565b5080546117ed90611f50565b6000825580601f106117ff5750611120565b601f016020900490600052602060002090810190611120919061186c565b60405180608001604052806060815260200160006001600160a01b03168152602001600081526020016000600381111561186757634e487b7160e01b600052602160045260246000fd5b905290565b5b808211156117dd576000815560010161186d565b80356001600160a01b03811681146108dc57600080fd5b805180151581146108dc57600080fd5b8051600481106108dc57600080fd5b600082601f8301126118c7578081fd5b81356118da6118d582611eb5565b611e8b565b8181528460208386010111156118ee578283fd5b816020850160208301379081016020019190915292915050565b600082601f830112611918578081fd5b81516119266118d582611eb5565b81815284602083860101111561193a578283fd5b61128c826020830160208701611f20565b60006020828403121561195c578081fd5b61196582611881565b9392505050565b6000806040838503121561197e578081fd5b61198783611881565b946020939093013593505050565b6000602082840312156119a6578081fd5b61196582611898565b600080604083850312156119c1578182fd5b823567ffffffffffffffff808211156119d8578384fd5b6119e4868387016118b7565b935060208501359150808211156119f9578283fd5b50611a06858286016118b7565b9150509250929050565b600060208284031215611a21578081fd5b815167ffffffffffffffff80821115611a38578283fd5b81840191506101c0808387031215611a4e578384fd5b611a5781611e8b565b90508251815260208301516020820152604083015160408201526060830151606082015260808301516080820152611a9160a08401611898565b60a0820152611aa260c08401611898565b60c0820152611ab360e08401611898565b60e082015261010083810151908201526101208084015190820152610140808401519082015261016080840151908201526101808084015183811115611af7578586fd5b611b0388828701611908565b8284015250506101a09150611b198284016118a8565b91810191909152949350505050565b600060208284031215611b39578081fd5b5035919050565b60008060408385031215611b52578182fd5b50508035926020909101359150565b60048110611b7f57634e487b7160e01b600052602160045260246000fd5b9052565b60008151808452611b9b816020860160208601611f20565b601f01601f19169290920160200192915050565b60609190911b6bffffffffffffffffffffffff1916815260140190565b60609290921b6bffffffffffffffffffffffff19168252601482015260340190565b90815260200190565b60008251611c09818460208701611f20565b9190910192915050565b918252602082015260400190565b6001600160a01b0391909116815260200190565b6020808252825182820181905260009190848201906040850190845b81811015611c6d57835183529284019291840191600101611c51565b50909695505050505050565b901515815260200190565b6000602082526119656020830184611b83565b600060408252611caa6040830185611b83565b905060018060a01b03831660208301529392505050565b600060808252611cd46080830187611b83565b6001600160a01b0386166020840152604083018590529050611cf96060830184611b61565b95945050505050565b60208082526026908201527f4f776e61626c653a206e6577206f776e657220697320746865207a65726f206160408201526564647265737360d01b606082015260800190565b60208082526029908201527f6b206f72204e20617265206e6f74204f4b20647572696e672072616e646f6d2060408201526839b2b632b1ba34b7b760b91b606082015260800190565b60208082526013908201527205f6d7941727261792e6c656e677468203e203606c1b604082015260600190565b60208082526005908201526404e203e20360dc1b604082015260600190565b6020808252600b908201526a04e5f72616e6765203e20360ac1b604082015260600190565b6020808252818101527f4f776e61626c653a2063616c6c6572206973206e6f7420746865206f776e6572604082015260600190565b600060208252825160806020840152611e5360a0840182611b83565b905060018060a01b036020850151166040840152604084015160608401526060840151611e836080850182611b61565b509392505050565b60405181810167ffffffffffffffff81118282101715611ead57611ead611fe6565b604052919050565b600067ffffffffffffffff821115611ecf57611ecf611fe6565b50601f01601f191660200190565b60008219821115611ef057611ef0611fba565b500190565b600082611f0457611f04611fd0565b500490565b600082821015611f1b57611f1b611fba565b500390565b60005b83811015611f3b578181015183820152602001611f23565b83811115611f4a576000848401525b50505050565b600281046001821680611f6457607f821691505b60208210811415611f8557634e487b7160e01b600052602260045260246000fd5b50919050565b6000600019821415611f9f57611f9f611fba565b5060010190565b600082611fb557611fb5611fd0565b500690565b634e487b7160e01b600052601160045260246000fd5b634e487b7160e01b600052601260045260246000fd5b634e487b7160e01b600052604160045260246000fdfea26469706673582212201a412aa7fcfc712f8359e8f61594157a8e0b021394eb57f780933887e2ca819964736f6c63430008000033",
  "linkReferences": {},
  "deployedLinkReferences": {}
}