{
  "_format": "hh-sol-artifact-1",
  "contractName": "DataArchiving",
  "sourceName": "contracts/worksystems/DataArchiving.sol",
  "abi": [
    {
      "inputs": [
        {
          "internalType": "address",
          "name": "EXDT_token_",
          "type": "address"
        }
      ],
      "stateMutability": "nonpayable",
      "type": "constructor"
    },
    {
      "anonymous": false,
      "inputs": [
        {
          "indexed": false,
          "internalType": "bytes",
          "name": "bytesFailure",
          "type": "bytes"
        }
      ],
      "name": "BytesFailure",
      "type": "event"
    },
    {
      "anonymous": false,
      "inputs": [
        {
          "indexed": true,
          "internalType": "address",
          "name": "previousOwner",
          "type": "address"
        },
        {
          "indexed": true,
          "internalType": "address",
          "name": "newOwner",
          "type": "address"
        }
      ],
      "name": "OwnershipTransferred",
      "type": "event"
    },
    {
      "anonymous": false,
      "inputs": [
        {
          "indexed": false,
          "internalType": "string",
          "name": "hash",
          "type": "string"
        },
        {
          "indexed": true,
          "internalType": "address",
          "name": "creator",
          "type": "address"
        }
      ],
      "name": "_ArchiveAccepted",
      "type": "event"
    },
    {
      "anonymous": false,
      "inputs": [
        {
          "indexed": true,
          "internalType": "uint256",
          "name": "DataID",
          "type": "uint256"
        },
        {
          "indexed": false,
          "internalType": "uint256",
          "name": "numTokens",
          "type": "uint256"
        },
        {
          "indexed": true,
          "internalType": "address",
          "name": "voter",
          "type": "address"
        }
      ],
      "name": "_ArchiveCheckCommitted",
      "type": "event"
    },
    {
      "anonymous": false,
      "inputs": [
        {
          "indexed": true,
          "internalType": "uint256",
          "name": "DataID",
          "type": "uint256"
        },
        {
          "indexed": false,
          "internalType": "uint256",
          "name": "numTokens",
          "type": "uint256"
        },
        {
          "indexed": false,
          "internalType": "uint256",
          "name": "votesFor",
          "type": "uint256"
        },
        {
          "indexed": false,
          "internalType": "uint256",
          "name": "votesAgainst",
          "type": "uint256"
        },
        {
          "indexed": true,
          "internalType": "uint256",
          "name": "choice",
          "type": "uint256"
        },
        {
          "indexed": true,
          "internalType": "address",
          "name": "voter",
          "type": "address"
        }
      ],
      "name": "_ArchiveCheckRevealed",
      "type": "event"
    },
    {
      "anonymous": false,
      "inputs": [
        {
          "indexed": true,
          "internalType": "uint256",
          "name": "DataID",
          "type": "uint256"
        },
        {
          "indexed": false,
          "internalType": "string",
          "name": "file_hash",
          "type": "string"
        },
        {
          "indexed": false,
          "internalType": "address",
          "name": "sender",
          "type": "address"
        }
      ],
      "name": "_ArchiveSubmitted",
      "type": "event"
    },
    {
      "anonymous": false,
      "inputs": [
        {
          "indexed": true,
          "internalType": "uint256",
          "name": "batchID",
          "type": "uint256"
        }
      ],
      "name": "_DataBatchDeleted",
      "type": "event"
    },
    {
      "anonymous": false,
      "inputs": [
        {
          "indexed": false,
          "internalType": "uint256",
          "name": "numTokens",
          "type": "uint256"
        },
        {
          "indexed": true,
          "internalType": "address",
          "name": "voter",
          "type": "address"
        }
      ],
      "name": "_StakeAllocated",
      "type": "event"
    },
    {
      "anonymous": false,
      "inputs": [
        {
          "indexed": true,
          "internalType": "uint256",
          "name": "DataID",
          "type": "uint256"
        },
        {
          "indexed": true,
          "internalType": "address",
          "name": "voter",
          "type": "address"
        }
      ],
      "name": "_TokensRescued",
      "type": "event"
    },
    {
      "anonymous": false,
      "inputs": [
        {
          "indexed": false,
          "internalType": "uint256",
          "name": "numTokens",
          "type": "uint256"
        },
        {
          "indexed": true,
          "internalType": "address",
          "name": "voter",
          "type": "address"
        }
      ],
      "name": "_VotingRightsWithdrawn",
      "type": "event"
    },
    {
      "anonymous": false,
      "inputs": [
        {
          "indexed": true,
          "internalType": "uint256",
          "name": "batchID",
          "type": "uint256"
        },
        {
          "indexed": false,
          "internalType": "address",
          "name": "worker",
          "type": "address"
        }
      ],
      "name": "_WorkAllocated",
      "type": "event"
    },
    {
      "anonymous": false,
      "inputs": [
        {
          "indexed": true,
          "internalType": "address",
          "name": "worker",
          "type": "address"
        },
        {
          "indexed": false,
          "internalType": "uint256",
          "name": "timestamp",
          "type": "uint256"
        }
      ],
      "name": "_WorkerRegistered",
      "type": "event"
    },
    {
      "anonymous": false,
      "inputs": [
        {
          "indexed": true,
          "internalType": "address",
          "name": "worker",
          "type": "address"
        },
        {
          "indexed": false,
          "internalType": "uint256",
          "name": "timestamp",
          "type": "uint256"
        }
      ],
      "name": "_WorkerUnregistered",
      "type": "event"
    },
    {
      "inputs": [],
      "name": "AcceptedBatchsCounter",
      "outputs": [
        {
          "internalType": "uint256",
          "name": "",
          "type": "uint256"
        }
      ],
      "stateMutability": "view",
      "type": "function"
    },
    {
      "inputs": [],
      "name": "AddressManager",
      "outputs": [
        {
          "internalType": "contract IAddressManager",
          "name": "",
          "type": "address"
        }
      ],
      "stateMutability": "view",
      "type": "function"
    },
    {
      "inputs": [],
      "name": "AllTxsCounter",
      "outputs": [
        {
          "internalType": "uint256",
          "name": "",
          "type": "uint256"
        }
      ],
      "stateMutability": "view",
      "type": "function"
    },
    {
      "inputs": [],
      "name": "AllocateWork",
      "outputs": [],
      "stateMutability": "nonpayable",
      "type": "function"
    },
    {
      "inputs": [],
      "name": "AllocatedBatchCursor",
      "outputs": [
        {
          "internalType": "uint256",
          "name": "",
          "type": "uint256"
        }
      ],
      "stateMutability": "view",
      "type": "function"
    },
    {
      "inputs": [],
      "name": "AmIRegistered",
      "outputs": [
        {
          "internalType": "bool",
          "name": "passed",
          "type": "bool"
        }
      ],
      "stateMutability": "view",
      "type": "function"
    },
    {
      "inputs": [
        {
          "internalType": "address",
          "name": "",
          "type": "address"
        }
      ],
      "name": "ArchiveStakedTokenBalance",
      "outputs": [
        {
          "internalType": "uint256",
          "name": "",
          "type": "uint256"
        }
      ],
      "stateMutability": "view",
      "type": "function"
    },
    {
      "inputs": [],
      "name": "ArchiveSystem",
      "outputs": [
        {
          "internalType": "contract IArchiveSystem",
          "name": "",
          "type": "address"
        }
      ],
      "stateMutability": "view",
      "type": "function"
    },
    {
      "inputs": [
        {
          "internalType": "uint256",
          "name": "",
          "type": "uint256"
        }
      ],
      "name": "ArchivesMapping",
      "outputs": [
        {
          "internalType": "string",
          "name": "ipfs_hash",
          "type": "string"
        },
        {
          "internalType": "address",
          "name": "author",
          "type": "address"
        },
        {
          "internalType": "uint256",
          "name": "timestamp",
          "type": "uint256"
        },
        {
          "internalType": "enum DataArchiving.DataStatus",
          "name": "status",
          "type": "uint8"
        }
      ],
      "stateMutability": "view",
      "type": "function"
    },
    {
      "inputs": [
        {
          "internalType": "string",
          "name": "_a",
          "type": "string"
        },
        {
          "internalType": "string",
          "name": "_b",
          "type": "string"
        }
      ],
      "name": "AreStringsEqual",
      "outputs": [
        {
          "internalType": "bool",
          "name": "",
          "type": "bool"
        }
      ],
      "stateMutability": "pure",
      "type": "function"
    },
    {
      "inputs": [],
      "name": "BatchCheckingCursor",
      "outputs": [
        {
          "internalType": "uint256",
          "name": "",
          "type": "uint256"
        }
      ],
      "stateMutability": "view",
      "type": "function"
    },
    {
      "inputs": [],
      "name": "BatchDeletionCursor",
      "outputs": [
        {
          "internalType": "uint256",
          "name": "",
          "type": "uint256"
        }
      ],
      "stateMutability": "view",
      "type": "function"
    },
    {
      "inputs": [
        {
          "internalType": "uint256",
          "name": "",
          "type": "uint256"
        }
      ],
      "name": "CollectedSpotBatchs",
      "outputs": [
        {
          "internalType": "bool",
          "name": "",
          "type": "bool"
        }
      ],
      "stateMutability": "view",
      "type": "function"
    },
    {
      "inputs": [
        {
          "internalType": "uint256",
          "name": "",
          "type": "uint256"
        }
      ],
      "name": "DataBatch",
      "outputs": [
        {
          "internalType": "uint256",
          "name": "start_idx",
          "type": "uint256"
        },
        {
          "internalType": "uint256",
          "name": "counter",
          "type": "uint256"
        },
        {
          "internalType": "uint256",
          "name": "uncommited_workers",
          "type": "uint256"
        },
        {
          "internalType": "uint256",
          "name": "unrevealed_workers",
          "type": "uint256"
        },
        {
          "internalType": "uint256",
          "name": "item_count",
          "type": "uint256"
        },
        {
          "internalType": "bool",
          "name": "complete",
          "type": "bool"
        },
        {
          "internalType": "bool",
          "name": "checked",
          "type": "bool"
        },
        {
          "internalType": "bool",
          "name": "allocated_to_work",
          "type": "bool"
        },
        {
          "internalType": "uint256",
          "name": "commitEndDate",
          "type": "uint256"
        },
        {
          "internalType": "uint256",
          "name": "revealEndDate",
          "type": "uint256"
        },
        {
          "internalType": "uint256",
          "name": "votesFor",
          "type": "uint256"
        },
        {
          "internalType": "uint256",
          "name": "votesAgainst",
          "type": "uint256"
        },
        {
          "internalType": "string",
          "name": "batchIPFSfile",
          "type": "string"
        },
        {
          "internalType": "enum DataArchiving.DataStatus",
          "name": "status",
          "type": "uint8"
        }
      ],
      "stateMutability": "view",
      "type": "function"
    },
    {
      "inputs": [
        {
          "internalType": "uint256",
          "name": "_DataBatchId",
          "type": "uint256"
        }
      ],
      "name": "DataCommitEndDate",
      "outputs": [
        {
          "internalType": "uint256",
          "name": "commitEndDate",
          "type": "uint256"
        }
      ],
      "stateMutability": "view",
      "type": "function"
    },
    {
      "inputs": [
        {
          "internalType": "uint256",
          "name": "_DataBatchId",
          "type": "uint256"
        }
      ],
      "name": "DataEnded",
      "outputs": [
        {
          "internalType": "bool",
          "name": "ended",
          "type": "bool"
        }
      ],
      "stateMutability": "view",
      "type": "function"
    },
    {
      "inputs": [
        {
          "internalType": "uint256",
          "name": "_DataBatchId",
          "type": "uint256"
        }
      ],
      "name": "DataExists",
      "outputs": [
        {
          "internalType": "bool",
          "name": "exists",
          "type": "bool"
        }
      ],
      "stateMutability": "view",
      "type": "function"
    },
    {
      "inputs": [],
      "name": "DataNonce",
      "outputs": [
        {
          "internalType": "uint256",
          "name": "",
          "type": "uint256"
        }
      ],
      "stateMutability": "view",
      "type": "function"
    },
    {
      "inputs": [
        {
          "internalType": "uint256",
          "name": "_DataBatchId",
          "type": "uint256"
        }
      ],
      "name": "DataRevealEndDate",
      "outputs": [
        {
          "internalType": "uint256",
          "name": "revealEndDate",
          "type": "uint256"
        }
      ],
      "stateMutability": "view",
      "type": "function"
    },
    {
      "inputs": [
        {
          "internalType": "address",
          "name": "user_",
          "type": "address"
        }
      ],
      "name": "GetCurrentWork",
      "outputs": [
        {
          "internalType": "uint256",
          "name": "",
          "type": "uint256"
        }
      ],
      "stateMutability": "view",
      "type": "function"
    },
    {
      "inputs": [
        {
          "internalType": "address",
          "name": "user_",
          "type": "address"
        }
      ],
      "name": "IsNewWorkAvailable",
      "outputs": [
        {
          "internalType": "bool",
          "name": "",
          "type": "bool"
        }
      ],
      "stateMutability": "view",
      "type": "function"
    },
    {
      "inputs": [],
      "name": "LastBatchCounter",
      "outputs": [
        {
          "internalType": "uint256",
          "name": "",
          "type": "uint256"
        }
      ],
      "stateMutability": "view",
      "type": "function"
    },
    {
      "inputs": [
        {
          "internalType": "address",
          "name": "",
          "type": "address"
        },
        {
          "internalType": "uint256",
          "name": "",
          "type": "uint256"
        }
      ],
      "name": "MasterWorkers",
      "outputs": [
        {
          "internalType": "address",
          "name": "",
          "type": "address"
        }
      ],
      "stateMutability": "view",
      "type": "function"
    },
    {
      "inputs": [],
      "name": "NotCommitedCounter",
      "outputs": [
        {
          "internalType": "uint256",
          "name": "",
          "type": "uint256"
        }
      ],
      "stateMutability": "view",
      "type": "function"
    },
    {
      "inputs": [],
      "name": "NotRevealedCounter",
      "outputs": [
        {
          "internalType": "uint256",
          "name": "",
          "type": "uint256"
        }
      ],
      "stateMutability": "view",
      "type": "function"
    },
    {
      "inputs": [],
      "name": "Parameters",
      "outputs": [
        {
          "internalType": "contract IParametersManager",
          "name": "",
          "type": "address"
        }
      ],
      "stateMutability": "view",
      "type": "function"
    },
    {
      "inputs": [
        {
          "internalType": "uint256",
          "name": "CheckedBatchId",
          "type": "uint256"
        }
      ],
      "name": "Ping",
      "outputs": [],
      "stateMutability": "nonpayable",
      "type": "function"
    },
    {
      "inputs": [],
      "name": "PreviousSystem",
      "outputs": [
        {
          "internalType": "contract IPreviousSystem",
          "name": "",
          "type": "address"
        }
      ],
      "stateMutability": "view",
      "type": "function"
    },
    {
      "inputs": [],
      "name": "RegisterWorker",
      "outputs": [],
      "stateMutability": "nonpayable",
      "type": "function"
    },
    {
      "inputs": [],
      "name": "RejectedBatchsCounter",
      "outputs": [
        {
          "internalType": "uint256",
          "name": "",
          "type": "uint256"
        }
      ],
      "stateMutability": "view",
      "type": "function"
    },
    {
      "inputs": [],
      "name": "RepManager",
      "outputs": [
        {
          "internalType": "contract IRepManager",
          "name": "",
          "type": "address"
        }
      ],
      "stateMutability": "view",
      "type": "function"
    },
    {
      "inputs": [],
      "name": "RewardManager",
      "outputs": [
        {
          "internalType": "contract IRewardManager",
          "name": "",
          "type": "address"
        }
      ],
      "stateMutability": "view",
      "type": "function"
    },
    {
      "inputs": [],
      "name": "StakeManager",
      "outputs": [
        {
          "internalType": "contract IStakeManager",
          "name": "",
          "type": "address"
        }
      ],
      "stateMutability": "view",
      "type": "function"
    },
    {
      "inputs": [],
      "name": "TriggerUpdate",
      "outputs": [],
      "stateMutability": "nonpayable",
      "type": "function"
    },
    {
      "inputs": [],
      "name": "UnregisterWorker",
      "outputs": [],
      "stateMutability": "nonpayable",
      "type": "function"
    },
    {
      "inputs": [
        {
          "internalType": "uint256",
          "name": "",
          "type": "uint256"
        },
        {
          "internalType": "address",
          "name": "",
          "type": "address"
        }
      ],
      "name": "UserBatchCounts",
      "outputs": [
        {
          "internalType": "uint256",
          "name": "",
          "type": "uint256"
        }
      ],
      "stateMutability": "view",
      "type": "function"
    },
    {
      "inputs": [
        {
          "internalType": "uint256",
          "name": "",
          "type": "uint256"
        },
        {
          "internalType": "address",
          "name": "",
          "type": "address"
        }
      ],
      "name": "UserBatchFrom",
      "outputs": [
        {
          "internalType": "string",
          "name": "",
          "type": "string"
        }
      ],
      "stateMutability": "view",
      "type": "function"
    },
    {
      "inputs": [
        {
          "internalType": "address",
          "name": "",
          "type": "address"
        },
        {
          "internalType": "uint256",
          "name": "",
          "type": "uint256"
        }
      ],
      "name": "UserChecksCommits",
      "outputs": [
        {
          "internalType": "bool",
          "name": "",
          "type": "bool"
        }
      ],
      "stateMutability": "view",
      "type": "function"
    },
    {
      "inputs": [
        {
          "internalType": "address",
          "name": "",
          "type": "address"
        },
        {
          "internalType": "uint256",
          "name": "",
          "type": "uint256"
        }
      ],
      "name": "UserChecksReveals",
      "outputs": [
        {
          "internalType": "bool",
          "name": "",
          "type": "bool"
        }
      ],
      "stateMutability": "view",
      "type": "function"
    },
    {
      "inputs": [
        {
          "internalType": "uint256",
          "name": "",
          "type": "uint256"
        },
        {
          "internalType": "address",
          "name": "",
          "type": "address"
        }
      ],
      "name": "UserNewFiles",
      "outputs": [
        {
          "internalType": "string",
          "name": "",
          "type": "string"
        }
      ],
      "stateMutability": "view",
      "type": "function"
    },
    {
      "inputs": [
        {
          "internalType": "uint256",
          "name": "",
          "type": "uint256"
        },
        {
          "internalType": "address",
          "name": "",
          "type": "address"
        }
      ],
      "name": "UserSubmittedStatus",
      "outputs": [
        {
          "internalType": "string",
          "name": "",
          "type": "string"
        }
      ],
      "stateMutability": "view",
      "type": "function"
    },
    {
      "inputs": [
        {
          "internalType": "uint256",
          "name": "",
          "type": "uint256"
        },
        {
          "internalType": "address",
          "name": "",
          "type": "address"
        }
      ],
      "name": "UserVotes",
      "outputs": [
        {
          "internalType": "uint256",
          "name": "",
          "type": "uint256"
        }
      ],
      "stateMutability": "view",
      "type": "function"
    },
    {
      "inputs": [
        {
          "internalType": "uint256",
          "name": "_DataBatchId",
          "type": "uint256"
        }
      ],
      "name": "ValidateDataBatch",
      "outputs": [],
      "stateMutability": "nonpayable",
      "type": "function"
    },
    {
      "inputs": [
        {
          "internalType": "uint256",
          "name": "",
          "type": "uint256"
        },
        {
          "internalType": "uint256",
          "name": "",
          "type": "uint256"
        }
      ],
      "name": "WorkersPerBatch",
      "outputs": [
        {
          "internalType": "address",
          "name": "",
          "type": "address"
        }
      ],
      "stateMutability": "view",
      "type": "function"
    },
    {
      "inputs": [
        {
          "internalType": "address",
          "name": "",
          "type": "address"
        }
      ],
      "name": "WorkersState",
      "outputs": [
        {
          "internalType": "address",
          "name": "worker_address",
          "type": "address"
        },
        {
          "internalType": "uint256",
          "name": "allocated_work_batch",
          "type": "uint256"
        },
        {
          "internalType": "bool",
          "name": "has_completed_work",
          "type": "bool"
        },
        {
          "internalType": "uint256",
          "name": "succeeding_novote_count",
          "type": "uint256"
        },
        {
          "internalType": "uint256",
          "name": "last_interaction_date",
          "type": "uint256"
        },
        {
          "internalType": "bool",
          "name": "registered",
          "type": "bool"
        },
        {
          "internalType": "bool",
          "name": "unregistration_request",
          "type": "bool"
        },
        {
          "internalType": "uint256",
          "name": "registration_date",
          "type": "uint256"
        },
        {
          "internalType": "uint256",
          "name": "majority_counter",
          "type": "uint256"
        },
        {
          "internalType": "uint256",
          "name": "minority_counter",
          "type": "uint256"
        }
      ],
      "stateMutability": "view",
      "type": "function"
    },
    {
      "inputs": [
        {
          "internalType": "address",
          "name": "_user",
          "type": "address"
        },
        {
          "internalType": "uint256",
          "name": "_DataBatchId",
          "type": "uint256"
        }
      ],
      "name": "attrUUID",
      "outputs": [
        {
          "internalType": "bytes32",
          "name": "UUID",
          "type": "bytes32"
        }
      ],
      "stateMutability": "pure",
      "type": "function"
    },
    {
      "inputs": [
        {
          "internalType": "uint256",
          "name": "",
          "type": "uint256"
        }
      ],
      "name": "availableWorkers",
      "outputs": [
        {
          "internalType": "address",
          "name": "",
          "type": "address"
        }
      ],
      "stateMutability": "view",
      "type": "function"
    },
    {
      "inputs": [
        {
          "internalType": "uint256",
          "name": "",
          "type": "uint256"
        }
      ],
      "name": "busyWorkers",
      "outputs": [
        {
          "internalType": "address",
          "name": "",
          "type": "address"
        }
      ],
      "stateMutability": "view",
      "type": "function"
    },
    {
      "inputs": [
        {
          "internalType": "uint256",
          "name": "_DataBatchId",
          "type": "uint256"
        },
        {
          "internalType": "bytes32",
          "name": "_secretIPFSHash",
          "type": "bytes32"
        },
        {
          "internalType": "uint256",
          "name": "_BatchCount",
          "type": "uint256"
        },
        {
          "internalType": "string",
          "name": "_From",
          "type": "string"
        },
        {
          "internalType": "string",
          "name": "_Status",
          "type": "string"
        }
      ],
      "name": "commitArchiveCheck",
      "outputs": [],
      "stateMutability": "nonpayable",
      "type": "function"
    },
    {
      "inputs": [
        {
          "internalType": "uint256",
          "name": "_DataBatchId",
          "type": "uint256"
        }
      ],
      "name": "commitPeriodActive",
      "outputs": [
        {
          "internalType": "bool",
          "name": "active",
          "type": "bool"
        }
      ],
      "stateMutability": "view",
      "type": "function"
    },
    {
      "inputs": [
        {
          "internalType": "uint256",
          "name": "_BatchId",
          "type": "uint256"
        }
      ],
      "name": "deleteCollectedSpotBatch",
      "outputs": [],
      "stateMutability": "nonpayable",
      "type": "function"
    },
    {
      "inputs": [
        {
          "internalType": "uint256",
          "name": "_DataId",
          "type": "uint256"
        }
      ],
      "name": "deleteData",
      "outputs": [],
      "stateMutability": "nonpayable",
      "type": "function"
    },
    {
      "inputs": [
        {
          "internalType": "uint256",
          "name": "_BatchId",
          "type": "uint256"
        }
      ],
      "name": "deleteDataBatch",
      "outputs": [],
      "stateMutability": "nonpayable",
      "type": "function"
    },
    {
      "inputs": [],
      "name": "destroyContract",
      "outputs": [],
      "stateMutability": "nonpayable",
      "type": "function"
    },
    {
      "inputs": [
        {
          "internalType": "address",
          "name": "_voter",
          "type": "address"
        },
        {
          "internalType": "uint256",
          "name": "_DataBatchId",
          "type": "uint256"
        }
      ],
      "name": "didCommit",
      "outputs": [
        {
          "internalType": "bool",
          "name": "committed",
          "type": "bool"
        }
      ],
      "stateMutability": "view",
      "type": "function"
    },
    {
      "inputs": [
        {
          "internalType": "address",
          "name": "_voter",
          "type": "address"
        },
        {
          "internalType": "uint256",
          "name": "_DataBatchId",
          "type": "uint256"
        }
      ],
      "name": "didReveal",
      "outputs": [
        {
          "internalType": "bool",
          "name": "revealed",
          "type": "bool"
        }
      ],
      "stateMutability": "view",
      "type": "function"
    },
    {
      "inputs": [
        {
          "internalType": "uint256",
          "name": "_k",
          "type": "uint256"
        },
        {
          "internalType": "uint256",
          "name": "N_range",
          "type": "uint256"
        }
      ],
      "name": "generateIntegers",
      "outputs": [
        {
          "internalType": "uint256[]",
          "name": "",
          "type": "uint256[]"
        }
      ],
      "stateMutability": "view",
      "type": "function"
    },
    {
      "inputs": [
        {
          "internalType": "uint256",
          "name": "_DataBatchId_start",
          "type": "uint256"
        }
      ],
      "name": "getAcceptedBatchFileFrom",
      "outputs": [
        {
          "internalType": "string[]",
          "name": "batch",
          "type": "string[]"
        }
      ],
      "stateMutability": "view",
      "type": "function"
    },
    {
      "inputs": [
        {
          "internalType": "uint256",
          "name": "_DataBatchId_start",
          "type": "uint256"
        },
        {
          "internalType": "uint256",
          "name": "_DataBatchId_end",
          "type": "uint256"
        }
      ],
      "name": "getAcceptedBatchFilesRange",
      "outputs": [
        {
          "internalType": "string[]",
          "name": "batch",
          "type": "string[]"
        }
      ],
      "stateMutability": "view",
      "type": "function"
    },
    {
      "inputs": [],
      "name": "getAcceptedBatchesCount",
      "outputs": [
        {
          "internalType": "uint256",
          "name": "count",
          "type": "uint256"
        }
      ],
      "stateMutability": "view",
      "type": "function"
    },
    {
      "inputs": [],
      "name": "getActiveWorkersCount",
      "outputs": [
        {
          "internalType": "uint256",
          "name": "numWorkers",
          "type": "uint256"
        }
      ],
      "stateMutability": "view",
      "type": "function"
    },
    {
      "inputs": [],
      "name": "getAvailableWorkersCount",
      "outputs": [
        {
          "internalType": "uint256",
          "name": "numWorkers",
          "type": "uint256"
        }
      ],
      "stateMutability": "view",
      "type": "function"
    },
    {
      "inputs": [
        {
          "internalType": "uint256",
          "name": "_DataBatchId",
          "type": "uint256"
        }
      ],
      "name": "getBatchByID",
      "outputs": [
        {
          "components": [
            {
              "internalType": "uint256",
              "name": "start_idx",
              "type": "uint256"
            },
            {
              "internalType": "uint256",
              "name": "counter",
              "type": "uint256"
            },
            {
              "internalType": "uint256",
              "name": "uncommited_workers",
              "type": "uint256"
            },
            {
              "internalType": "uint256",
              "name": "unrevealed_workers",
              "type": "uint256"
            },
            {
              "internalType": "uint256",
              "name": "item_count",
              "type": "uint256"
            },
            {
              "internalType": "bool",
              "name": "complete",
              "type": "bool"
            },
            {
              "internalType": "bool",
              "name": "checked",
              "type": "bool"
            },
            {
              "internalType": "bool",
              "name": "allocated_to_work",
              "type": "bool"
            },
            {
              "internalType": "uint256",
              "name": "commitEndDate",
              "type": "uint256"
            },
            {
              "internalType": "uint256",
              "name": "revealEndDate",
              "type": "uint256"
            },
            {
              "internalType": "uint256",
              "name": "votesFor",
              "type": "uint256"
            },
            {
              "internalType": "uint256",
              "name": "votesAgainst",
              "type": "uint256"
            },
            {
              "internalType": "string",
              "name": "batchIPFSfile",
              "type": "string"
            },
            {
              "internalType": "enum DataArchiving.DataStatus",
              "name": "status",
              "type": "uint8"
            }
          ],
          "internalType": "struct DataArchiving.BatchMetadata",
          "name": "batch",
          "type": "tuple"
        }
      ],
      "stateMutability": "view",
      "type": "function"
    },
    {
      "inputs": [
        {
          "internalType": "uint256",
          "name": "_DataBatchId",
          "type": "uint256"
        }
      ],
      "name": "getBatchIPFSFileByID",
      "outputs": [
        {
          "internalType": "string",
          "name": "batch",
          "type": "string"
        }
      ],
      "stateMutability": "view",
      "type": "function"
    },
    {
      "inputs": [],
      "name": "getBusyWorkersCount",
      "outputs": [
        {
          "internalType": "uint256",
          "name": "numWorkers",
          "type": "uint256"
        }
      ],
      "stateMutability": "view",
      "type": "function"
    },
    {
      "inputs": [
        {
          "internalType": "address",
          "name": "_voter",
          "type": "address"
        },
        {
          "internalType": "uint256",
          "name": "_DataBatchId",
          "type": "uint256"
        }
      ],
      "name": "getCommitHash",
      "outputs": [
        {
          "internalType": "bytes32",
          "name": "commitHash",
          "type": "bytes32"
        }
      ],
      "stateMutability": "view",
      "type": "function"
    },
    {
      "inputs": [
        {
          "internalType": "uint256",
          "name": "_DataId",
          "type": "uint256"
        }
      ],
      "name": "getDataByID",
      "outputs": [
        {
          "components": [
            {
              "internalType": "string",
              "name": "ipfs_hash",
              "type": "string"
            },
            {
              "internalType": "address",
              "name": "author",
              "type": "address"
            },
            {
              "internalType": "uint256",
              "name": "timestamp",
              "type": "uint256"
            },
            {
              "internalType": "enum DataArchiving.DataStatus",
              "name": "status",
              "type": "uint8"
            }
          ],
          "internalType": "struct DataArchiving.ArchiveData",
          "name": "data",
          "type": "tuple"
        }
      ],
      "stateMutability": "view",
      "type": "function"
    },
    {
      "inputs": [
        {
          "internalType": "string",
          "name": "_hash",
          "type": "string"
        },
        {
          "internalType": "uint256",
          "name": "_salt",
          "type": "uint256"
        }
      ],
      "name": "getEncryptedStringHash",
      "outputs": [
        {
          "internalType": "bytes32",
          "name": "keccak256hash",
          "type": "bytes32"
        }
      ],
      "stateMutability": "pure",
      "type": "function"
    },
    {
      "inputs": [
        {
          "internalType": "uint256",
          "name": "_DataBatchId",
          "type": "uint256"
        }
      ],
      "name": "getFromsForBatch",
      "outputs": [
        {
          "internalType": "string[]",
          "name": "",
          "type": "string[]"
        }
      ],
      "stateMutability": "view",
      "type": "function"
    },
    {
      "inputs": [
        {
          "internalType": "uint256",
          "name": "_DataBatchId",
          "type": "uint256"
        }
      ],
      "name": "getIPFShashesForBatch",
      "outputs": [
        {
          "internalType": "string[]",
          "name": "",
          "type": "string[]"
        }
      ],
      "stateMutability": "view",
      "type": "function"
    },
    {
      "inputs": [
        {
          "internalType": "address",
          "name": "_voter",
          "type": "address"
        },
        {
          "internalType": "uint256",
          "name": "_numTokens",
          "type": "uint256"
        },
        {
          "internalType": "uint256",
          "name": "_DataBatchId",
          "type": "uint256"
        }
      ],
      "name": "getInsertPointForNumTokens",
      "outputs": [
        {
          "internalType": "uint256",
          "name": "prevNode",
          "type": "uint256"
        }
      ],
      "stateMutability": "view",
      "type": "function"
    },
    {
      "inputs": [],
      "name": "getLastAllocatedBatchId",
      "outputs": [
        {
          "internalType": "uint256",
          "name": "LastAllocatedBatchId",
          "type": "uint256"
        }
      ],
      "stateMutability": "view",
      "type": "function"
    },
    {
      "inputs": [],
      "name": "getLastBatchId",
      "outputs": [
        {
          "internalType": "uint256",
          "name": "LastBatchId",
          "type": "uint256"
        }
      ],
      "stateMutability": "view",
      "type": "function"
    },
    {
      "inputs": [],
      "name": "getLastCheckedBatchId",
      "outputs": [
        {
          "internalType": "uint256",
          "name": "LastCheckedBatchId",
          "type": "uint256"
        }
      ],
      "stateMutability": "view",
      "type": "function"
    },
    {
      "inputs": [],
      "name": "getLastDataId",
      "outputs": [
        {
          "internalType": "uint256",
          "name": "DataId",
          "type": "uint256"
        }
      ],
      "stateMutability": "view",
      "type": "function"
    },
    {
      "inputs": [
        {
          "internalType": "address",
          "name": "_voter",
          "type": "address"
        }
      ],
      "name": "getLastNode",
      "outputs": [
        {
          "internalType": "uint256",
          "name": "DataID",
          "type": "uint256"
        }
      ],
      "stateMutability": "view",
      "type": "function"
    },
    {
      "inputs": [
        {
          "internalType": "address",
          "name": "_voter",
          "type": "address"
        }
      ],
      "name": "getLockedTokens",
      "outputs": [
        {
          "internalType": "uint256",
          "name": "numTokens",
          "type": "uint256"
        }
      ],
      "stateMutability": "view",
      "type": "function"
    },
    {
      "inputs": [],
      "name": "getMySystemTokenBalance",
      "outputs": [
        {
          "internalType": "uint256",
          "name": "tokens",
          "type": "uint256"
        }
      ],
      "stateMutability": "view",
      "type": "function"
    },
    {
      "inputs": [
        {
          "internalType": "address",
          "name": "_voter",
          "type": "address"
        },
        {
          "internalType": "uint256",
          "name": "_DataBatchId",
          "type": "uint256"
        },
        {
          "internalType": "uint256",
          "name": "_salt",
          "type": "uint256"
        }
      ],
      "name": "getNumPassingTokens",
      "outputs": [
        {
          "internalType": "uint256",
          "name": "correctArchiveChecks",
          "type": "uint256"
        }
      ],
      "stateMutability": "view",
      "type": "function"
    },
    {
      "inputs": [
        {
          "internalType": "address",
          "name": "_voter",
          "type": "address"
        },
        {
          "internalType": "uint256",
          "name": "_DataBatchId",
          "type": "uint256"
        }
      ],
      "name": "getNumTokens",
      "outputs": [
        {
          "internalType": "uint256",
          "name": "numTokens",
          "type": "uint256"
        }
      ],
      "stateMutability": "view",
      "type": "function"
    },
    {
      "inputs": [],
      "name": "getRandom",
      "outputs": [
        {
          "internalType": "uint256",
          "name": "",
          "type": "uint256"
        }
      ],
      "stateMutability": "view",
      "type": "function"
    },
    {
      "inputs": [],
      "name": "getRejectedBatchesCount",
      "outputs": [
        {
          "internalType": "uint256",
          "name": "count",
          "type": "uint256"
        }
      ],
      "stateMutability": "view",
      "type": "function"
    },
    {
      "inputs": [],
      "name": "getSeed",
      "outputs": [
        {
          "internalType": "bytes32",
          "name": "addr",
          "type": "bytes32"
        }
      ],
      "stateMutability": "view",
      "type": "function"
    },
    {
      "inputs": [
        {
          "internalType": "uint256",
          "name": "_DataBatchId",
          "type": "uint256"
        }
      ],
      "name": "getStatusForBatch",
      "outputs": [
        {
          "internalType": "string[]",
          "name": "",
          "type": "string[]"
        }
      ],
      "stateMutability": "view",
      "type": "function"
    },
    {
      "inputs": [
        {
          "internalType": "uint256",
          "name": "_DataBatchId",
          "type": "uint256"
        }
      ],
      "name": "getSubmittedFilesForBatch",
      "outputs": [
        {
          "internalType": "string[]",
          "name": "",
          "type": "string[]"
        }
      ],
      "stateMutability": "view",
      "type": "function"
    },
    {
      "inputs": [
        {
          "internalType": "address",
          "name": "_user",
          "type": "address"
        }
      ],
      "name": "getSystemTokenBalance",
      "outputs": [
        {
          "internalType": "uint256",
          "name": "tokens",
          "type": "uint256"
        }
      ],
      "stateMutability": "view",
      "type": "function"
    },
    {
      "inputs": [
        {
          "internalType": "uint256",
          "name": "_DataBatchId",
          "type": "uint256"
        }
      ],
      "name": "getTotalNumberOfArchiveChecks",
      "outputs": [
        {
          "internalType": "uint256",
          "name": "vc",
          "type": "uint256"
        }
      ],
      "stateMutability": "view",
      "type": "function"
    },
    {
      "inputs": [],
      "name": "getTxCounter",
      "outputs": [
        {
          "internalType": "uint256",
          "name": "Counter",
          "type": "uint256"
        }
      ],
      "stateMutability": "view",
      "type": "function"
    },
    {
      "inputs": [
        {
          "internalType": "uint256",
          "name": "_DataBatchId",
          "type": "uint256"
        }
      ],
      "name": "getVotesForBatch",
      "outputs": [
        {
          "internalType": "uint256[]",
          "name": "",
          "type": "uint256[]"
        }
      ],
      "stateMutability": "view",
      "type": "function"
    },
    {
      "inputs": [
        {
          "internalType": "uint256",
          "name": "_terminationDate",
          "type": "uint256"
        }
      ],
      "name": "isExpired",
      "outputs": [
        {
          "internalType": "bool",
          "name": "expired",
          "type": "bool"
        }
      ],
      "stateMutability": "view",
      "type": "function"
    },
    {
      "inputs": [
        {
          "internalType": "uint256",
          "name": "_DataBatchId",
          "type": "uint256"
        }
      ],
      "name": "isPassed",
      "outputs": [
        {
          "internalType": "bool",
          "name": "passed",
          "type": "bool"
        }
      ],
      "stateMutability": "view",
      "type": "function"
    },
    {
      "inputs": [
        {
          "internalType": "uint256",
          "name": "_DataBatchId",
          "type": "uint256"
        },
        {
          "internalType": "address",
          "name": "_worker",
          "type": "address"
        }
      ],
      "name": "isWorkerAllocatedToBatch",
      "outputs": [
        {
          "internalType": "bool",
          "name": "",
          "type": "bool"
        }
      ],
      "stateMutability": "view",
      "type": "function"
    },
    {
      "inputs": [
        {
          "internalType": "address",
          "name": "_worker",
          "type": "address"
        }
      ],
      "name": "isWorkerRegistered",
      "outputs": [
        {
          "internalType": "bool",
          "name": "passed",
          "type": "bool"
        }
      ],
      "stateMutability": "view",
      "type": "function"
    },
    {
      "inputs": [],
      "name": "owner",
      "outputs": [
        {
          "internalType": "address",
          "name": "",
          "type": "address"
        }
      ],
      "stateMutability": "view",
      "type": "function"
    },
    {
      "inputs": [
        {
          "internalType": "uint256",
          "name": "k",
          "type": "uint256"
        },
        {
          "internalType": "uint256",
          "name": "N",
          "type": "uint256"
        }
      ],
      "name": "random_selection",
      "outputs": [
        {
          "internalType": "uint256[]",
          "name": "",
          "type": "uint256[]"
        }
      ],
      "stateMutability": "view",
      "type": "function"
    },
    {
      "inputs": [],
      "name": "renounceOwnership",
      "outputs": [],
      "stateMutability": "nonpayable",
      "type": "function"
    },
    {
      "inputs": [
        {
          "internalType": "uint256",
          "name": "_DataBatchId",
          "type": "uint256"
        }
      ],
      "name": "rescueTokens",
      "outputs": [],
      "stateMutability": "nonpayable",
      "type": "function"
    },
    {
      "inputs": [
        {
          "internalType": "uint256[]",
          "name": "_DataBatchIDs",
          "type": "uint256[]"
        }
      ],
      "name": "rescueTokensInMultipleDatas",
      "outputs": [],
      "stateMutability": "nonpayable",
      "type": "function"
    },
    {
      "inputs": [
        {
          "internalType": "uint256",
          "name": "_DataBatchId",
          "type": "uint256"
        },
        {
          "internalType": "uint256",
          "name": "_voteOption",
          "type": "uint256"
        },
        {
          "internalType": "string",
          "name": "_clearIPFSHash",
          "type": "string"
        },
        {
          "internalType": "uint256",
          "name": "_salt",
          "type": "uint256"
        }
      ],
      "name": "revealArchiveCheck",
      "outputs": [],
      "stateMutability": "nonpayable",
      "type": "function"
    },
    {
      "inputs": [
        {
          "internalType": "uint256",
          "name": "_DataBatchId",
          "type": "uint256"
        }
      ],
      "name": "revealPeriodActive",
      "outputs": [
        {
          "internalType": "bool",
          "name": "active",
          "type": "bool"
        }
      ],
      "stateMutability": "view",
      "type": "function"
    },
    {
      "inputs": [],
      "name": "sFuel",
      "outputs": [
        {
          "internalType": "address",
          "name": "",
          "type": "address"
        }
      ],
      "stateMutability": "view",
      "type": "function"
    },
    {
      "inputs": [
        {
          "internalType": "uint256",
          "name": "N",
          "type": "uint256"
        }
      ],
      "name": "shuffle_array",
      "outputs": [
        {
          "internalType": "uint256[]",
          "name": "",
          "type": "uint256[]"
        }
      ],
      "stateMutability": "view",
      "type": "function"
    },
    {
      "inputs": [
        {
          "internalType": "uint256",
          "name": "",
          "type": "uint256"
        }
      ],
      "name": "toUnregisterWorkers",
      "outputs": [
        {
          "internalType": "address",
          "name": "",
          "type": "address"
        }
      ],
      "stateMutability": "view",
      "type": "function"
    },
    {
      "inputs": [],
      "name": "token",
      "outputs": [
        {
          "internalType": "contract IERC20",
          "name": "",
          "type": "address"
        }
      ],
      "stateMutability": "view",
      "type": "function"
    },
    {
      "inputs": [
        {
          "internalType": "address",
          "name": "newOwner",
          "type": "address"
        }
      ],
      "name": "transferOwnership",
      "outputs": [],
      "stateMutability": "nonpayable",
      "type": "function"
    },
    {
      "inputs": [
        {
          "internalType": "address",
          "name": "addr",
          "type": "address"
        }
      ],
      "name": "updateAddressManager",
      "outputs": [],
      "stateMutability": "nonpayable",
      "type": "function"
    },
    {
      "inputs": [
        {
          "internalType": "uint256",
          "name": "AllocatedBatchCursor_",
          "type": "uint256"
        }
      ],
      "name": "updateAllocatedBatchCursor",
      "outputs": [],
      "stateMutability": "nonpayable",
      "type": "function"
    },
    {
      "inputs": [
        {
          "internalType": "address",
          "name": "addr",
          "type": "address"
        }
      ],
      "name": "updateArchiveManager",
      "outputs": [],
      "stateMutability": "nonpayable",
      "type": "function"
    },
    {
      "inputs": [
        {
          "internalType": "uint256",
          "name": "BatchCheckingCursor_",
          "type": "uint256"
        }
      ],
      "name": "updateBatchCheckingCursor",
      "outputs": [],
      "stateMutability": "nonpayable",
      "type": "function"
    },
    {
      "inputs": [
        {
          "internalType": "address",
          "name": "addr",
          "type": "address"
        }
      ],
      "name": "updateParametersManager",
      "outputs": [],
      "stateMutability": "nonpayable",
      "type": "function"
    },
    {
      "inputs": [
        {
          "internalType": "address",
          "name": "addr",
          "type": "address"
        }
      ],
      "name": "updatePreviousSystem",
      "outputs": [],
      "stateMutability": "nonpayable",
      "type": "function"
    },
    {
      "inputs": [
        {
          "internalType": "address",
          "name": "addr",
          "type": "address"
        }
      ],
      "name": "updateRepManager",
      "outputs": [],
      "stateMutability": "nonpayable",
      "type": "function"
    },
    {
      "inputs": [
        {
          "internalType": "address",
          "name": "addr",
          "type": "address"
        }
      ],
      "name": "updateRewardManager",
      "outputs": [],
      "stateMutability": "nonpayable",
      "type": "function"
    },
    {
      "inputs": [
        {
          "internalType": "address",
          "name": "addr",
          "type": "address"
        }
      ],
      "name": "updateStakeManager",
      "outputs": [],
      "stateMutability": "nonpayable",
      "type": "function"
    },
    {
      "inputs": [
        {
          "internalType": "address",
          "name": "_sFuel",
          "type": "address"
        }
      ],
      "name": "updatesFuelFaucet",
      "outputs": [],
      "stateMutability": "nonpayable",
      "type": "function"
    },
    {
      "inputs": [
        {
          "internalType": "uint256",
          "name": "_prevID",
          "type": "uint256"
        },
        {
          "internalType": "uint256",
          "name": "_nextID",
          "type": "uint256"
        },
        {
          "internalType": "address",
          "name": "_voter",
          "type": "address"
        },
        {
          "internalType": "uint256",
          "name": "_numTokens",
          "type": "uint256"
        }
      ],
      "name": "validPosition",
      "outputs": [
        {
          "internalType": "bool",
          "name": "APPROVED",
          "type": "bool"
        }
      ],
      "stateMutability": "view",
      "type": "function"
    },
    {
      "inputs": [
        {
          "internalType": "uint256",
          "name": "_numTokens",
          "type": "uint256"
        }
      ],
      "name": "withdrawVotingRights",
      "outputs": [],
      "stateMutability": "nonpayable",
      "type": "function"
    }
  ],
  "bytecode": "0x6080604052600060145560006016556001601755600160185560016019556001601a556000601b556000601c556000601d556000601e556000601f553480156200004857600080fd5b5060405162009522380380620095228339810160408190526200006b916200010d565b6200007f62000079620000b9565b620000bd565b6001600160a01b0381166200009357600080fd5b602080546001600160a01b0319166001600160a01b03929092169190911790556200013d565b3390565b600080546001600160a01b038381166001600160a01b0319831681178455604051919092169283917f8be0079c531659141344cd1fd0a4f28419497f9722a3daafe3b4186f6b6457e09190a35050565b6000602082840312156200011f578081fd5b81516001600160a01b038116811462000136578182fd5b9392505050565b6193d5806200014d6000396000f3fe608060405234801561001057600080fd5b50600436106107175760003560e01c80638df0296e116103a8578063d822ce01116101f4578063eb1322ff1161011a578063f716596d116100b8578063fbd7f73911610087578063fbd7f73914610e90578063fc0c546a14610ea3578063fca4956314610eab578063ff43de9d14610ebe57610717565b8063f716596d14610e65578063f721de4a14610e6d578063f80a23fd14610e80578063f96305f014610e8857610717565b8063f2d9e74d116100f4578063f2d9e74d14610e2f578063f2fde38b14610e37578063f4cdfcc414610e4a578063f5ae7c7d14610e5d57610717565b8063eb1322ff14610e0c578063ed8becfa14610e14578063ef4fcdad14610e2757610717565b8063dd61868211610192578063e604c12711610161578063e604c12714610dc0578063e798a7da14610dd3578063e7b1d43c14610de6578063e97439cf14610df957610717565b8063dd61868214610d7f578063df05368e14610d92578063e1f7a43014610da5578063e44c974b14610dad57610717565b8063d9548e53116101ce578063d9548e5314610d3c578063d9845fb814610d4f578063da14563a14610d6f578063dd15f09514610d7757610717565b8063d822ce0114610d03578063d8b7567414610d16578063d901402b14610d2957610717565b8063ab43e78d116102d9578063c4e4f82a11610277578063d58f575c11610246578063d58f575c14610ccd578063d6b0206c14610cd5578063d78b94cc14610cdd578063d817587e14610cf057610717565b8063c4e4f82a14610c81578063d138209214610c94578063d186981d14610ca7578063d420ec0b14610cba57610717565b8063b1d7ea98116102b3578063b1d7ea9814610c35578063b43bd06914610c48578063b8f011b314610c5b578063c47c4bc214610c6e57610717565b8063ab43e78d14610c07578063b10aa58414610c0f578063b1a2e0be14610c2257610717565b8063a1b6b5b711610346578063a511dba011610320578063a511dba014610bd1578063a905779014610bd9578063aa7ca46414610bec578063aacc5a1714610bff57610717565b8063a1b6b5b714610bae578063a350715a14610bb6578063a4439dc514610bbe57610717565b80639769d846116103825780639769d84614610b6d5780639fc9c52f14610b75578063a1103f3714610b88578063a16a11e014610b9b57610717565b80638df0296e14610b345780639683f1de14610b475780639760356014610b5a57610717565b80634fe8b4c11161056757806371880b1b116104985780637fabe35b116104365780638473850b116104055780638473850b14610ae857806388d072eb14610af05780638c89d02714610b035780638da5cb5b14610b2c57610717565b80637fabe35b14610a8d578063819b029314610aba578063821aa8c014610acd57806383cc6ef214610ae057610717565b806377124dec1161047257806377124dec14610a575780637a34da6714610a6a5780637f9510a214610a725780637f97e83614610a7a57610717565b806371880b1b14610a29578063763a39f214610a3c57806376c1fef414610a4457610717565b80636371d81f116105055780636b1485a3116104df5780636b1485a3146109e85780636b2d95d4146109fb5780637074222b14610a0e578063715018a614610a2157610717565b80636371d81f146109ba57806364b3bab2146109cd578063667bf0f8146109e057610717565b806353bf27f11161054157806353bf27f11461095f5780635a452943146109675780635b113a55146109875780635df6055d1461099a57610717565b80634fe8b4c11461093c578063515535e81461094f57806351912f291461095757610717565b80632f469fd11161064c57806346a7aea6116105ea57806349403183116105b957806349403183146108e05780634a9671ba146108f35780634d4b7d9b146109165780634d8842811461092957610717565b806346a7aea6146108aa57806347fe2d20146108bd57806348257dc9146108c55780634852e2f0146108d857610717565b8063427fa1d211610626578063427fa1d21461085e578063441c77c01461087157806344380f3a146108845780634671ace51461089757610717565b80632f469fd1146108305780633538af821461084357806339e7357c1461085657610717565b8063154fd39b116106b9578063275c259011610693578063275c2590146107fa57806329a47bc7146108025780632c0520311461080a5780632d917c681461081d57610717565b8063154fd39b146107bd57806317cbd766146107c5578063226ed300146107da57610717565b8063092a5cce116106f5578063092a5cce1461076d5780630e6661a714610775578063100372f51461078a578063106798101461079d57610717565b806301a48b981461071c578063050eb2eb14610745578063059576231461075a575b600080fd5b61072f61072a366004617e34565b610ec6565b60405161073c9190618184565b60405180910390f35b610758610753366004617b22565b611063565b005b610758610768366004617b22565b6110c4565b610758611125565b61077d611177565b60405161073c9190618089565b610758610798366004617e34565b61117d565b6107b06107ab366004617e5d565b6111c1565b60405161073c91906181d3565b61077d611266565b6107cd61126c565b60405161073c91906180bc565b6107ed6107e8366004617e34565b61127b565b60405161073c91906181c8565b6107586112c3565b6107cd611411565b61077d610818366004617b85565b611420565b6107ed61082b366004617b5a565b6115bd565b6107b061083e366004617e5d565b6115dd565b6107cd610851366004617e34565b611601565b61077d61162b565b61077d61086c366004617b22565b611648565b6107ed61087f366004617e34565b6116e8565b610758610892366004617f68565b611742565b6107586108a5366004617e34565b611aa6565b6107586108b8366004617b22565b611b14565b61077d611b75565b6107586108d3366004617e34565b611b7b565b61077d611fbb565b6107ed6108ee366004617e34565b611fc1565b610906610901366004617e34565b61220e565b60405161073c9493929190618210565b6107ed610924366004617e34565b6122cd565b610758610937366004617b22565b6122e2565b61075861094a366004617e34565b612343565b61077d6123c3565b6107cd6123c9565b61077d6123d8565b61097a610975366004617e34565b6123de565b60405161073c9190618fea565b61077d610995366004617e5d565b612501565b6109ad6109a8366004617e34565b61251e565b60405161073c9190618124565b6107586109c8366004617e34565b61273b565b61077d6109db366004617b22565b6127ee565b610758612800565b6107586109f6366004617e34565b612e10565b61077d610a09366004617b22565b613ca0565b61077d610a1c366004617b22565b613caf565b610758613cca565b61077d610a37366004617e34565b613d15565b61077d613d52565b6109ad610a52366004617e34565b613d58565b610758610a65366004617e34565b613f75565b6107cd613fb9565b61077d613fc8565b6107ed610a88366004617b5a565b613fdf565b610aa0610a9b366004617e34565b614032565b60405161073c9e9d9c9b9a99989796959493929190619160565b6107ed610ac8366004617f2a565b614131565b6107cd610adb366004617e34565b614172565b6107cd614182565b61077d614191565b6107b0610afe366004617e5d565b614197565b610b16610b11366004617b22565b6141bb565b60405161073c9a999897969594939291906180d0565b6107cd61421e565b6107cd610b42366004617f09565b61422d565b61077d610b55366004617e34565b614265565b610758610b68366004617e34565b614289565b61077d614439565b610758610b83366004617bb9565b61443f565b61077d610b96366004617b5a565b614491565b610758610ba9366004617b22565b6144c4565b61077d614525565b61077d61452b565b6107ed610bcc366004617e34565b614531565b61077d614593565b6107ed610be7366004617c79565b614599565b6107ed610bfa366004617b5a565b6145ff565b61077d614652565b6107cd614707565b6107cd610c1d366004617e34565b614716565b6107ed610c30366004617b22565b614726565b61072f610c43366004617f09565b6147f3565b61077d610c56366004617b85565b614a0d565b61072f610c69366004617f09565b614af9565b610758610c7c366004617b22565b614c61565b61077d610c8f366004617e34565b614cc2565b61077d610ca2366004617b5a565b614cff565b6107ed610cb5366004617e5d565b614d94565b6107ed610cc8366004617b5a565b614e6f565b61077d614e8f565b61077d614e95565b6109ad610ceb366004617f09565b614e9b565b6109ad610cfe366004617e34565b615080565b6107cd610d11366004617b5a565b61529d565b61077d610d24366004617e5d565b6152b9565b61077d610d37366004617b5a565b6152d6565b6107ed610d4a366004617e34565b61531b565b610d62610d5d366004617e34565b615320565b60405161073c919061903e565b6107586154b8565b6107cd6156fa565b610758610d8d366004617b22565b615709565b610758610da0366004617b22565b61576a565b61077d6157cb565b61072f610dbb366004617e34565b6157de565b6107b0610dce366004617e34565b61586a565b6107ed610de1366004617b22565b615932565b610758610df4366004617e34565b615953565b6109ad610e07366004617e34565b615a9b565b61077d615c5e565b6109ad610e22366004617e34565b615c64565b61077d615f74565b61077d615f7a565b610758610e45366004617b22565b615f80565b61077d610e58366004617cd9565b615fee565b61077d616003565b610758616009565b6107ed610e7b366004617e34565b6164ee565b6107ed6164f6565b61077d61650f565b610758610e9e366004617e8c565b616515565b6107cd616b76565b61077d610eb9366004617b22565b616b85565b6107cd616c2d565b6060610ed1826164ee565b610ef65760405162461bcd60e51b8152600401610eed90618be1565b60405180910390fd5b6000828152600f6020908152604080832080548251818502810185019093528083529192909190830182828015610f5657602002820191906000526020600020905b81546001600160a01b03168152600190910190602001808311610f38575b50505050509050600081516001600160401b03811115610f8657634e487b7160e01b600052604160045260246000fd5b604051908082528060200260200182016040528015610faf578160200160208202803683370190505b50905060005b825181101561105957600360008681526020019081526020016000206000848381518110610ff357634e487b7160e01b600052603260045260246000fd5b60200260200101516001600160a01b03166001600160a01b031681526020019081526020016000205482828151811061103c57634e487b7160e01b600052603260045260246000fd5b60209081029190910101528061105181619319565b915050610fb5565b509150505b919050565b61106b616c3c565b6001600160a01b031661107c61421e565b6001600160a01b0316146110a25760405162461bcd60e51b8152600401610eed9061898f565b602380546001600160a01b0319166001600160a01b0392909216919091179055565b6110cc616c3c565b6001600160a01b03166110dd61421e565b6001600160a01b0316146111035760405162461bcd60e51b8152600401610eed9061898f565b602780546001600160a01b0319166001600160a01b0392909216919091179055565b61112d616c3c565b6001600160a01b031661113e61421e565b6001600160a01b0316146111645760405162461bcd60e51b8152600401610eed9061898f565b61116c61421e565b6001600160a01b0316ff5b60165481565b611185616c3c565b6001600160a01b031661119661421e565b6001600160a01b0316146111bc5760405162461bcd60e51b8152600401610eed9061898f565b601955565b6007602090815260009283526040808420909152908252902080546111e5906192de565b80601f0160208091040260200160405190810160405280929190818152602001828054611211906192de565b801561125e5780601f106112335761010080835404028352916020019161125e565b820191906000526020600020905b81548152906001019060200180831161124157829003601f168201915b505050505081565b601a5490565b6025546001600160a01b031681565b6000611286826164ee565b6112a25760405162461bcd60e51b8152600401610eed90618e80565b6000828152600b60205260409020600701546112bd9061531b565b92915050565b336000908152600c60205260409020600581015460ff1615156001146112fb5760405162461bcd60e51b8152600401610eed9061891e565b60018101541580159061131857506005810154610100900460ff16155b156113755760058101805461ff001916610100179055601380546001810182556000919091527f66de8ffda797e3de9c05e8fc57b3bf0ec28a930d40b0d285d93c06501cf6a0900180546001600160a01b031916331790556113ed565b60018101546113ed5761138733616c40565b61139033616d98565b80546001600160a01b031916339081178255426004830181905560058301805460ff191690556040517f9dadcedba048e92b943ea1c5861cee1df63a566d7f795869c004780c1c698e2b916113e491618089565b60405180910390a25b6001601b6000828254611400919061924c565b9091555061140e9050616ec8565b50565b6022546001600160a01b031681565b60008061142c85611648565b9050600061143a8683614cff565b90505b81156115b25761144d8683614cff565b905084811161150a5783821415611502576001600160a01b038616600090815260086020526040908190209051632f75c9cd60e01b815273__$f254a8095384b8dfa1dc07d6532ff7186d$__91632f75c9cd916114af919086906004016180ae565b60206040518083038186803b1580156114c757600080fd5b505af41580156114db573d6000803e3d6000fd5b505050506040513d601f19601f820116820180604052508101906114ff9190617e4c565b91505b5090506115b6565b6001600160a01b038616600090815260086020526040908190209051632f75c9cd60e01b815273__$f254a8095384b8dfa1dc07d6532ff7186d$__91632f75c9cd9161155b919086906004016180ae565b60206040518083038186803b15801561157357600080fd5b505af4158015611587573d6000803e3d6000fd5b505050506040513d601f19601f820116820180604052508101906115ab9190617e4c565b915061143d565b5090505b9392505050565b600160209081526000928352604080842090915290825290205460ff1681565b6004602090815260009283526040808420909152908252902080546111e5906192de565b6011818154811061161157600080fd5b6000918252602090912001546001600160a01b0316905081565b60405160009080602081848060185afa61164157fe5b5051919050565b6001600160a01b0381166000908152600860205260408082209051632f75c9cd60e01b815273__$f254a8095384b8dfa1dc07d6532ff7186d$__91632f75c9cd91611698919085906004016180ae565b60206040518083038186803b1580156116b057600080fd5b505af41580156116c4573d6000803e3d6000fd5b505050506040513d601f19601f820116820180604052508101906112bd9190617e4c565b60006116f3826164ee565b61170f5760405162461bcd60e51b8152600401610eed90618be1565b6000828152600b602052604090206007015461172a9061531b565b1580156112bd575061173b82614531565b1592915050565b61174a616ec8565b611753846116e8565b61176f5760405162461bcd60e51b8152600401610eed90618b54565b33600090815260016020908152604080832087845290915290205460ff166117a95760405162461bcd60e51b8152600401610eed906186b6565b33600090815260026020908152604080832087845290915290205460ff16156117e45760405162461bcd60e51b8152600401610eed90618ea9565b6117ee33856152d6565b6117f88383615fee565b146118155760405162461bcd60e51b8152600401610eed90618a58565b60006118213386614cff565b90508360011415611858576000858152600b60205260408120600801805483929061184d90849061924c565b9091555061187f9050565b6000858152600b60205260408120600901805483929061187990849061924c565b90915550505b336000908152600860205260409081902090516378f3b83560e11b815273__$f254a8095384b8dfa1dc07d6532ff7186d$__9163f1e7706a916118c7919089906004016180ae565b60006040518083038186803b1580156118df57600080fd5b505af41580156118f3573d6000803e3d6000fd5b50503360008181526002602090815260408083208b84528252808320805460ff191660011790556003825280832084845282528083208a90558a83526004825280832093835292815291902086516119529450909250908601906178a3565b50336000908152600c60209081526040808320888452600b9092529091206003015461197f9060016171b3565b6000878152600b602052604090206003015560028101805460ff191660011790554260048201556119af33616d98565b600581015460ff1615611a0c576119c5336171bf565b611a0c57601180546001810182556000919091527f31ecc21a745e3968a04e9570e4425bc18fa8019c68028196b546d1669c200c680180546001600160a01b031916331790555b6000868152600b6020526040902060030154611a2b57611a2b86612e10565b6001601b6000828254611a3e919061924c565b90915550506000868152600b60205260409081902060088101546009909101549151339288928a927f20ebdb402f7893042572ceade4beeb806a5401f0a176cf55a0c3404bbf53728292611a9692899290919061914a565b60405180910390a4505050505050565b611aae616c3c565b6001600160a01b0316611abf61421e565b6001600160a01b031614611ae55760405162461bcd60e51b8152600401610eed9061898f565b60008181526010602052604090205460ff161561140e576000908152601060205260409020805460ff19169055565b611b1c616c3c565b6001600160a01b0316611b2d61421e565b6001600160a01b031614611b535760405162461bcd60e51b8152600401610eed9061898f565b602680546001600160a01b0319166001600160a01b0392909216919091179055565b60195490565b6025546001600160a01b031615801590611ba4575060008181526010602052604090205460ff16155b15611fa057602554604051637b90ef2560e11b81526001600160a01b039091169063f721de4a90611bd9908490600401618089565b602060405180830381600087803b158015611bf357600080fd5b505af1158015611c07573d6000803e3d6000fd5b505050506040513d601f19601f82011682018060405250810190611c2b9190617c5f565b15611fa057602554604051631b308bf760e31b81526000916001600160a01b03169063d9845fb890611c61908590600401618089565b600060405180830381600087803b158015611c7b57600080fd5b505af1158015611c8f573d6000803e3d6000fd5b505050506040513d6000823e601f3d908101601f19168201604052611cb79190810190617d1b565b6101a08101519091506001816003811115611ce257634e487b7160e01b600052602160045260246000fd5b1415611f84576040805160808101825261016084015181523360208083019190915242828401526000606083018190526016548152600a8252929092208151805192939192611d3492849201906178a3565b506020820151600182810180546001600160a01b0319166001600160a01b0390931692909217909155604083015160028301556060830151600380840180549293909260ff1916918490811115611d9b57634e487b7160e01b600052602160045260246000fd5b0217905550506018546000908152600b602090815260409182902060275483516397eaa8ed60e01b815293519194506001600160a01b0316926397eaa8ed926004808301939192829003018186803b158015611df657600080fd5b505afa158015611e0a573d6000803e3d6000fd5b505050506040513d601f19601f82011682018060405250810190611e2e9190617e4c565b81600101541015611e54576001816001016000828254611e4e919061924c565b90915550505b602760009054906101000a90046001600160a01b03166001600160a01b03166397eaa8ed6040518163ffffffff1660e01b815260040160206040518083038186803b158015611ea257600080fd5b505afa158015611eb6573d6000803e3d6000fd5b505050506040513d601f19601f82011682018060405250810190611eda9190617e4c565b816001015410611f2957600581018054600160ff19909116811761ff00191690915560188054600090611f0e90849061924c565b90915550506016546018546000908152600b60205260409020555b611f316154b8565b601654611f3f90600161924c565b60168190556101608401516040517fcf3abf86111168aead00529e071c5282def001b120fbb5e691492be9377b014891611f7a9133906181e6565b60405180910390a2505b50506000818152601060205260409020805460ff191660011790555b6001601b6000828254611fb3919061924c565b909155505050565b601e5481565b6000818152600b6020908152604080832081516101c081018352815481526001820154938101939093526002810154918301919091526003810154606083015260048101546080830152600581015460ff808216151560a08501526101008083048216151560c08601526201000090920416151560e0840152600682015490830152600781015461012083015260088101546101408301526009810154610160830152600a810180548493929161018084019161207d906192de565b80601f01602080910402602001604051908101604052809291908181526020018280546120a9906192de565b80156120f65780601f106120cb576101008083540402835291602001916120f6565b820191906000526020600020905b8154815290600101906020018083116120d957829003601f168201915b5050509183525050600b82015460209091019060ff16600381111561212b57634e487b7160e01b600052602160045260246000fd5b600381111561214a57634e487b7160e01b600052602160045260246000fd5b9052506101608101516101408201519192506121659161924c565b602760009054906101000a90046001600160a01b03166001600160a01b031663ea19733c6040518163ffffffff1660e01b815260040160206040518083038186803b1580156121b357600080fd5b505afa1580156121c7573d6000803e3d6000fd5b505050506040513d601f19601f820116820180604052508101906121eb9190617e4c565b6121f59190619278565b610140820151612206906064619278565b119392505050565b600a60205260009081526040902080548190612229906192de565b80601f0160208091040260200160405190810160405280929190818152602001828054612255906192de565b80156122a25780601f10612277576101008083540402835291602001916122a2565b820191906000526020600020905b81548152906001019060200180831161228557829003601f168201915b505050506001830154600284015460039094015492936001600160a01b039091169290915060ff1684565b60106020526000908152604090205460ff1681565b6122ea616c3c565b6001600160a01b03166122fb61421e565b6001600160a01b0316146123215760405162461bcd60e51b8152600401610eed9061898f565b601580546001600160a01b0319166001600160a01b0392909216919091179055565b61234b616c3c565b6001600160a01b031661235c61421e565b6001600160a01b0316146123825760405162461bcd60e51b8152600401610eed9061898f565b6000818152600a602052604081209061239b8282617927565b506001810180546001600160a01b031916905560006002820155600301805460ff1916905550565b60185490565b6023546001600160a01b031681565b60115490565b6123e6617963565b6000828152600a60205260409081902081516080810190925280548290829061240e906192de565b80601f016020809104026020016040519081016040528092919081815260200182805461243a906192de565b80156124875780601f1061245c57610100808354040283529160200191612487565b820191906000526020600020905b81548152906001019060200180831161246a57829003601f168201915b505050918352505060018201546001600160a01b031660208201526002820154604082015260038083015460609092019160ff16908111156124d957634e487b7160e01b600052602160045260246000fd5b60038111156124f857634e487b7160e01b600052602160045260246000fd5b90525092915050565b600560209081526000928352604080842090915290825290205481565b6060612529826164ee565b6125455760405162461bcd60e51b8152600401610eed90618be1565b6000828152600f60209081526040808320805482518185028101850190935280835291929091908301828280156125a557602002820191906000526020600020905b81546001600160a01b03168152600190910190602001808311612587575b50505050509050600081516001600160401b038111156125d557634e487b7160e01b600052604160045260246000fd5b60405190808252806020026020018201604052801561260857816020015b60608152602001906001900390816125f35790505b50905060005b82518110156110595760066000868152602001908152602001600020600084838151811061264c57634e487b7160e01b600052603260045260246000fd5b60200260200101516001600160a01b03166001600160a01b03168152602001908152602001600020805461267f906192de565b80601f01602080910402602001604051908101604052809291908181526020018280546126ab906192de565b80156126f85780601f106126cd576101008083540402835291602001916126f8565b820191906000526020600020905b8154815290600101906020018083116126db57829003601f168201915b505050505082828151811061271d57634e487b7160e01b600052603260045260246000fd5b6020026020010181905250808061273390619319565b91505061260e565b612743616c3c565b6001600160a01b031661275461421e565b6001600160a01b03161461277a5760405162461bcd60e51b8152600401610eed9061898f565b6000818152600b602052604081208181556001810182905560028101829055600381018290556004810182905560058101805462ffffff1916905560068101829055600781018290556008810182905560098101829055906127df600a830182617927565b50600b01805460ff1916905550565b600d6020526000908152604090205481565b601a546000908152600b602052604090206005015460ff166128345760405162461bcd60e51b8152600401610eed90618afe565b601a546000908152600b602052604090206005015462010000900460ff161561286f5760405162461bcd60e51b8152600401610eed906188c1565b6000612993612908601180549050602760009054906101000a90046001600160a01b03166001600160a01b0316637c663a346040518163ffffffff1660e01b815260040160206040518083038186803b1580156128cb57600080fd5b505afa1580156128df573d6000803e3d6000fd5b505050506040513d601f19601f820116820180604052508101906129039190617e4c565b61722f565b602760009054906101000a90046001600160a01b03166001600160a01b03166380ac32476040518163ffffffff1660e01b815260040160206040518083038186803b15801561295657600080fd5b505afa15801561296a573d6000803e3d6000fd5b505050506040513d601f19601f8201168201806040525081019061298e9190617e4c565b617245565b601154601a80546000908152600b60209081526040808320600301869055925482528282206002018590556027548351638628fdb960e01b8152935195965093949193612a48936001600160a01b0390911692638628fdb992600480840193919291829003018186803b158015612a0957600080fd5b505afa158015612a1d573d6000803e3d6000fd5b505050506040513d601f19601f82011682018060405250810190612a419190617e4c565b4290617255565b90506000612adc602760009054906101000a90046001600160a01b03166001600160a01b031663760c55596040518163ffffffff1660e01b815260040160206040518083038186803b158015612a9d57600080fd5b505afa158015612ab1573d6000803e3d6000fd5b505050506040513d601f19601f82011682018060405250810190612ad59190617e4c565b8390617255565b601a80546000908152600b6020526040808220600601869055825482528082206007018490559154815220600501805462ff0000191662010000179055905060018410801590612b2d575060018310155b612b495760405162461bcd60e51b8152600401610eed906184c9565b6000612b558585614af9565b9050600081516001600160401b03811115612b8057634e487b7160e01b600052604160045260246000fd5b604051908082528060200260200182016040528015612ba9578160200160208202803683370190505b50905060005b8251811015612c68576011838281518110612bda57634e487b7160e01b600052603260045260246000fd5b602002602001015181548110612c0057634e487b7160e01b600052603260045260246000fd5b9060005260206000200160009054906101000a90046001600160a01b0316828281518110612c3e57634e487b7160e01b600052603260045260246000fd5b6001600160a01b039092166020928302919091019091015280612c6081619319565b915050612baf565b5060005b8251811015612dd0576000828281518110612c9757634e487b7160e01b600052603260045260246000fd5b602002602001015190506000600c6000836001600160a01b03166001600160a01b031681526020019081526020016000209050612cd382616c40565b612cdc82617261565b612d2c57601280546001810182556000919091527fbb8a6a4669ba250d26cd7a459eca9d215f8307e33aebe50379bc5a3617ec34440180546001600160a01b0319166001600160a01b0384161790555b601a80546000908152600f602090815260408083208054600180820183559185529290932090910180546001600160a01b0319166001600160a01b03871617905582549184019190915560028301805460ff19169055905490517fe4ee2dfabe57cee15e3f558890b20455f54c1fa0718e5276faad70a6500e6b8c90612db39085906180bc565b60405180910390a250508080612dc890619319565b915050612c6c565b50601a54612ddf906001617255565b601a55612dea614652565b6014819055506001601b6000828254612e03919061924c565b9091555050505050505050565b612e198161127b565b80612e3357506000818152600b6020526040902060030154155b612e4f5760405162461bcd60e51b8152600401610eed906189fb565b6000818152600b6020526040902060050154610100900460ff1615612e865760405162461bcd60e51b8152600401610eed90618c18565b6000818152600f6020908152604080832080548251818502810185019093528083529192909190830182828015612ee657602002820191906000526020600020905b81546001600160a01b03168152600190910190602001808311612ec8575b50505050509050600081516001600160401b03811115612f1657634e487b7160e01b600052604160045260246000fd5b604051908082528060200260200182016040528015612f4957816020015b6060815260200190600190039081612f345790505b509050600082516001600160401b03811115612f7557634e487b7160e01b600052604160045260246000fd5b604051908082528060200260200182016040528015612f9e578160200160208202803683370190505b50905060005b8351811015613121576000848281518110612fcf57634e487b7160e01b600052603260045260246000fd5b60209081029190910181015160008881526004835260408082206001600160a01b038416835290935291822080549193509061300a906192de565b80601f0160208091040260200160405190810160405280929190818152602001828054613036906192de565b80156130835780601f1061305857610100808354040283529160200191613083565b820191906000526020600020905b81548152906001019060200180831161306657829003601f168201915b50505060008a81526005602090815260408083206001600160a01b0389168452909152902054885193945092849250889150869081106130d357634e487b7160e01b600052603260045260246000fd5b6020026020010181905250808585815181106130ff57634e487b7160e01b600052603260045260246000fd5b602002602001018181525050505050808061311990619319565b915050612fa4565b5060006131cc6064602760009054906101000a90046001600160a01b03166001600160a01b031663ea19733c6040518163ffffffff1660e01b815260040160206040518083038186803b15801561317757600080fd5b505afa15801561318b573d6000803e3d6000fd5b505050506040513d601f19601f820116820180604052508101906131af9190617e4c565b86516131bb9190619278565b6131c59190619264565b6001617245565b90506000836000815181106131f157634e487b7160e01b600052603260045260246000fd5b6020026020010151905060005b84518110156132e7576000805b865181101561329c5761326c87848151811061323757634e487b7160e01b600052603260045260246000fd5b602002602001015188838151811061325f57634e487b7160e01b600052603260045260246000fd5b6020026020010151614599565b1561328a5761327c60018361924c565b915084821061328a5761329c565b8061329481619319565b91505061320b565b508381106132d4578582815181106132c457634e487b7160e01b600052603260045260246000fd5b60200260200101519250506132e7565b50806132df81619319565b9150506131fe565b5060008360008151811061330b57634e487b7160e01b600052603260045260246000fd5b6020026020010151905060005b84518110156133fa576000805b86518110156133af5786818151811061334e57634e487b7160e01b600052603260045260246000fd5b602002602001015187848151811061337657634e487b7160e01b600052603260045260246000fd5b6020026020010151141561339d5761338f60018361924c565b915085821061339d576133af565b806133a781619319565b915050613325565b508481106133e7578582815181106133d757634e487b7160e01b600052603260045260246000fd5b60200260200101519250506133fa565b50806133f281619319565b915050613318565b5060005b8651811015613a0557600087828151811061342957634e487b7160e01b600052603260045260246000fd5b6020908102919091018101516001600160a01b03811660009081526002835260408082208d8352909352919091205490915060ff1661346782616d98565b6001600160a01b0382166000908152600c6020526040902081156138e6576001600160a01b0383166000818152600c6020908152604080832060028101805460ff191660011790556003018390558e83526004825280832093835292905290812080546134d3906192de565b80601f01602080910402602001604051908101604052809291908181526020018280546134ff906192de565b801561354c5780601f106135215761010080835404028352916020019161354c565b820191906000526020600020905b81548152906001019060200180831161352f57829003601f168201915b5050505050905061355d8188614599565b15613847576024546040516308c0a84360e11b81526000916001600160a01b0316906311815086906135939088906004016180bc565b60206040518083038186803b1580156135ab57600080fd5b505afa1580156135bf573d6000803e3d6000fd5b505050506040513d601f19601f820116820180604052508101906135e39190617b3e565b60225460275460408051633e82505160e11b815290519394506001600160a01b0392831693631b6d990a938c931691637d04a0a2916004808301926020929190829003018186803b15801561363757600080fd5b505afa15801561364b573d6000803e3d6000fd5b505050506040513d601f19601f8201168201806040525081019061366f9190617e4c565b6136799190619278565b836040518363ffffffff1660e01b815260040161369792919061912c565b602060405180830381600087803b1580156136b157600080fd5b505af11580156136c5573d6000803e3d6000fd5b505050506040513d601f19601f820116820180604052508101906136e99190617c5f565b6137055760405162461bcd60e51b8152600401610eed90618668565b6023546027546040805163f875735160e01b815290516001600160a01b039384169363e0ca5094938c9391169163f875735191600480820192602092909190829003018186803b15801561375857600080fd5b505afa15801561376c573d6000803e3d6000fd5b505050506040513d601f19601f820116820180604052508101906137909190617e4c565b61379a9190619278565b836040518363ffffffff1660e01b81526004016137b8929190619115565b602060405180830381600087803b1580156137d257600080fd5b505af11580156137e6573d6000803e3d6000fd5b505050506040513d601f19601f8201168201806040525081019061380a9190617c5f565b6138265760405162461bcd60e51b8152600401610eed906183ea565b600183600701600082825461383b919061924c565b90915550613862915050565b600182600801600082825461385c919061924c565b90915550505b600582015460ff16156138e057613878846171bf565b15801561388f57506005820154610100900460ff16155b156138e057601180546001810182556000919091527f31ecc21a745e3968a04e9570e4425bc18fa8019c68028196b546d1669c200c680180546001600160a01b0319166001600160a01b0386161790555b506139ef565b6005810154610100900460ff16806138fc575081155b156139ef576001600160a01b0383166000908152600c6020526040812060030180546001929061392d90849061924c565b909155505060275460408051634fda48fb60e11b815290516001600160a01b0390921691639fb491f691600480820192602092909190829003018186803b15801561397757600080fd5b505afa15801561398b573d6000803e3d6000fd5b505050506040513d601f19601f820116820180604052508101906139af9190617e4c565b6001600160a01b0384166000908152600c602052604090206003015414156139ef5760058101805460ff191690556139e683616c40565b6139ef83616d98565b50505080806139fd90619319565b9150506133fe565b506000878152600b6020908152604090912060058101805461ff0019166101001790558351613a3c92600a909201918501906178a3565b506000878152600b60205260409020600401819055613a5a87611fc1565b15613ba0576000878152600b60208190526040822001805460ff19166001908117909155601c805491929091613a9190849061924c565b90915550506026546040516348257dc960e01b81526001600160a01b03909116906348257dc990613ac6908a90600401618089565b602060405180830381600087803b158015613ae057600080fd5b505af1925050508015613b10575060408051601f3d908101601f19168201909252613b0d91810190617c5f565b60015b613b81573d808015613b3e576040519150601f19603f3d011682016040523d82523d6000602084013e613b43565b606091505b507f4b87bbd93ba65ede1e2efeca735d9f7a6720bf7d6db0a8355b17dba5b64e578381604051613b7391906181d3565b60405180910390a150613b9b565b6001601b6000828254613b94919061924c565b9091555050505b613bd5565b6000878152600b60208190526040822001805460ff19166002179055601d805460019290613bcf90849061924c565b90915550505b6001601b6000828254613be8919061924c565b90915550506000878152600b6020526040812060020154601e805491929091613c1290849061924c565b90915550506000878152600b6020526040812060030154601f805491929091613c3c90849061924c565b90915550506000878152600a602052604090819020600181015491516001600160a01b03909216917f6a9a9e78dafe499bae230d4a96b1d1e18a8a480171837adca5cf402673be625091613c8f91618273565b60405180910390a250505050505050565b60006112bd82610ca284611648565b6001600160a01b03166000908152600d602052604090205490565b613cd2616c3c565b6001600160a01b0316613ce361421e565b6001600160a01b031614613d095760405162461bcd60e51b8152600401610eed9061898f565b613d1360006172d1565b565b6000613d20826164ee565b613d3c5760405162461bcd60e51b8152600401610eed90618be1565b506000908152600b602052604090206007015490565b60125490565b6060613d63826164ee565b613d7f5760405162461bcd60e51b8152600401610eed90618be1565b6000828152600f6020908152604080832080548251818502810185019093528083529192909190830182828015613ddf57602002820191906000526020600020905b81546001600160a01b03168152600190910190602001808311613dc1575b50505050509050600081516001600160401b03811115613e0f57634e487b7160e01b600052604160045260246000fd5b604051908082528060200260200182016040528015613e4257816020015b6060815260200190600190039081613e2d5790505b50905060005b825181101561105957600760008681526020019081526020016000206000848381518110613e8657634e487b7160e01b600052603260045260246000fd5b60200260200101516001600160a01b03166001600160a01b031681526020019081526020016000208054613eb9906192de565b80601f0160208091040260200160405190810160405280929190818152602001828054613ee5906192de565b8015613f325780601f10613f0757610100808354040283529160200191613f32565b820191906000526020600020905b815481529060010190602001808311613f1557829003601f168201915b5050505050828281518110613f5757634e487b7160e01b600052603260045260246000fd5b60200260200101819052508080613f6d90619319565b915050613e48565b613f7d616c3c565b6001600160a01b0316613f8e61421e565b6001600160a01b031614613fb45760405162461bcd60e51b8152600401610eed9061898f565b601a55565b6024546001600160a01b031681565b601254601154600091613fda9161924c565b905090565b6000613fea826164ee565b6140065760405162461bcd60e51b8152600401610eed90618be1565b506001600160a01b03919091166000908152600160209081526040808320938352929052205460ff1690565b600b60205260009081526040902080546001820154600283015460038401546004850154600586015460068701546007880154600889015460098a0154600a8b0180549a9b999a98999798969760ff8088169861010089048216986201000090049091169695949392906140a5906192de565b80601f01602080910402602001604051908101604052809291908181526020018280546140d1906192de565b801561411e5780601f106140f35761010080835404028352916020019161411e565b820191906000526020600020905b81548152906001019060200180831161410157829003601f168201915b505050600b909301549192505060ff168e565b60008061413e8487614cff565b8310159050600061414f8587614cff565b8411158061415b575085155b90508180156141675750805b979650505050505050565b6012818154811061161157600080fd5b6021546001600160a01b031681565b60185481565b6006602090815260009283526040808420909152908252902080546111e5906192de565b600c602052600090815260409020805460018201546002830154600384015460048501546005860154600687015460078801546008909801546001600160a01b0390971697959660ff95861696949593948385169461010090940490931692908a565b6000546001600160a01b031690565b600f602052816000526040600020818154811061424957600080fd5b6000918252602090912001546001600160a01b03169150829050565b6000818152600b60205260408120600981015460089091015482916115b69161924c565b60016000828152600b60208190526040909120015460ff1660038111156142c057634e487b7160e01b600052602160045260246000fd5b146142dd5760405162461bcd60e51b8152600401610eed90618354565b33600090815260086020526040908190209051631753509f60e21b815273__$f254a8095384b8dfa1dc07d6532ff7186d$__91635d4d427c91614325919085906004016180ae565b60206040518083038186803b15801561433d57600080fd5b505af4158015614351573d6000803e3d6000fd5b505050506040513d601f19601f820116820180604052508101906143759190617c5f565b6143915760405162461bcd60e51b8152600401610eed906187cc565b336000908152600860205260409081902090516378f3b83560e11b815273__$f254a8095384b8dfa1dc07d6532ff7186d$__9163f1e7706a916143d9919085906004016180ae565b60006040518083038186803b1580156143f157600080fd5b505af4158015614405573d6000803e3d6000fd5b50506040513392508391507f402507661c8c8cb90e0a796450b8bdd28b6c516f05279c0cd29e84c344e1699a90600090a350565b601c5481565b60005b815181101561448d5761447b82828151811061446e57634e487b7160e01b600052603260045260246000fd5b6020026020010151614289565b8061448581619319565b915050614442565b5050565b600082826040516020016144a6929190618067565b60405160208183030381529060405280519060200120905092915050565b6144cc616c3c565b6001600160a01b03166144dd61421e565b6001600160a01b0316146145035760405162461bcd60e51b8152600401610eed9061898f565b602580546001600160a01b0319166001600160a01b0392909216919091179055565b601c5490565b601d5481565b600061453c826164ee565b6145585760405162461bcd60e51b8152600401610eed90618be1565b6000828152600b60205260409020600601546145739061531b565b1580156112bd5750506000908152600b6020526040902060020154151590565b60165490565b6000816040516020016145ac9190618092565b60405160208183030381529060405280519060200120836040516020016145d39190618092565b6040516020818303038152906040528051906020012014156145f7575060016112bd565b5060006112bd565b600061460a826164ee565b6146265760405162461bcd60e51b8152600401610eed90618be1565b506001600160a01b03919091166000908152600260209081526040808320938352929052205460ff1690565b6000804241604051602001614667919061804a565b6040516020818303038152906040528051906020012060001c61468a9190619264565b4461469361162b565b6040516020016146a39190618089565b60408051601f1981840301815291905280516020909101206146c5904261924c565b6146cf919061924c565b6146d9919061924c565b6040516020016146e99190618089565b60408051601f19818403018152919052805160209091012091505090565b6015546001600160a01b031681565b6013818154811061161157600080fd5b6001600160a01b038082166000908152600c6020908152604080832081516101408101835281549095168552600181015492850192909252600282015460ff90811615801592860183905260038401546060870152600484015460808701526005840154808316151560a088015261010090819004909216151560c0870152600684015460e0870152600784015491860191909152600890920154610120850152919283929091906147e257506147e0816020015161127b565b155b156147ec57600191505b5092915050565b6060600082116148155760405162461bcd60e51b8152600401610eed9061896a565b600041604051602001614828919061804a565b6040516020818303038152906040528051906020012060001c61484961162b565b6040516020016148599190618089565b60408051601f19818403018152919052805160209091012061487b904261924c565b614885919061924c565b6040516020016148959190618089565b6040516020818303038152906040528051906020012060001c90506000846001600160401b038111156148d857634e487b7160e01b600052604160045260246000fd5b604051908082528060200260200182016040528015614901578160200160208202803683370190505b5090506000805b86821015614a025760008661492163017efeeb87619297565b836040516020016149339291906180ae565b6040516020818303038152906040528051906020012060001c6149569190619334565b90506000805b848110156149ae578286828151811061498557634e487b7160e01b600052603260045260246000fd5b6020026020010151141561499c57600191506149ae565b806149a681619319565b91505061495c565b50806149ee57818585815181106149d557634e487b7160e01b600052603260045260246000fd5b60209081029190910101526149eb84600161924c565b93505b6149f983600161924c565b92505050614908565b509095945050505050565b6000614a188361127b565b614a345760405162461bcd60e51b8152600401610eed90618dd9565b6001600160a01b038416600090815260026020908152604080832086845290915290205460ff16614a775760405162461bcd60e51b8152600401610eed90618829565b6000614a8284611fc1565b614a8d576000614a90565b60015b60ff16905060008184604051602001614aaa9291906180ae565b6040516020818303038152906040528051906020012090506000614ace87876152d6565b9050808214614aef5760405162461bcd60e51b8152600401610eed90618ab5565b6141678787614cff565b6060600082118015614b0b5750818311155b8015614b18575060018310155b614b345760405162461bcd60e51b8152600401610eed90618480565b6000826001600160401b03811115614b5c57634e487b7160e01b600052604160045260246000fd5b604051908082528060200260200182016040528015614b85578160200160208202803683370190505b5090506000846001600160401b03811115614bb057634e487b7160e01b600052604160045260246000fd5b604051908082528060200260200182016040528015614bd9578160200160208202803683370190505b5090506000614bef614bea84617321565b617377565b905060005b86811015614a0257818181518110614c1c57634e487b7160e01b600052603260045260246000fd5b6020026020010151838281518110614c4457634e487b7160e01b600052603260045260246000fd5b602090810291909101015280614c5981619319565b915050614bf4565b614c69616c3c565b6001600160a01b0316614c7a61421e565b6001600160a01b031614614ca05760405162461bcd60e51b8152600401610eed9061898f565b602480546001600160a01b0319166001600160a01b0392909216919091179055565b6000614ccd826164ee565b614ce95760405162461bcd60e51b8152600401610eed90618be1565b506000908152600b602052604090206006015490565b600073__$8f50167b5a72402e4f72ad916e88419f4b$__635aceba6f6009614d278686614491565b6040518363ffffffff1660e01b8152600401614d44929190618f93565b60206040518083038186803b158015614d5c57600080fd5b505af4158015614d70573d6000803e3d6000fd5b505050506040513d601f19601f820116820180604052508101906115b69190617e4c565b6000828152600f60209081526040808320805482518185028101850190935280835284938493929190830182828015614df657602002820191906000526020600020905b81546001600160a01b03168152600190910190602001808311614dd8575b5050505050905060005b8151811015614e6557846001600160a01b0316828281518110614e3357634e487b7160e01b600052603260045260246000fd5b60200260200101516001600160a01b03161415614e535760019250614e65565b80614e5d81619319565b915050614e00565b5090949350505050565b600260209081526000928352604080842090915290825290205460ff1681565b60175481565b601a5481565b6060818310614ebc5760405162461bcd60e51b8152600401610eed90618ef5565b614ec5826164ee565b614ee15760405162461bcd60e51b8152600401610eed9061876f565b6000614eed8484619297565b614ef890600161924c565b90506000816001600160401b03811115614f2257634e487b7160e01b600052604160045260246000fd5b604051908082528060200260200182016040528015614f5557816020015b6060815260200190600190039081614f405790505b509050845b848110156150775760016000828152600b60208190526040909120015460ff166003811115614f9957634e487b7160e01b600052602160045260246000fd5b1415615065576000818152600b60205260409020600a018054614fbb906192de565b80601f0160208091040260200160405190810160405280929190818152602001828054614fe7906192de565b80156150345780601f1061500957610100808354040283529160200191615034565b820191906000526020600020905b81548152906001019060200180831161501757829003601f168201915b505050505082828151811061505957634e487b7160e01b600052603260045260246000fd5b60200260200101819052505b8061506f81619319565b915050614f5a565b50949350505050565b606061508b826164ee565b6150a75760405162461bcd60e51b8152600401610eed90618be1565b6000828152600f602090815260408083208054825181850281018501909352808352919290919083018282801561510757602002820191906000526020600020905b81546001600160a01b031681526001909101906020018083116150e9575b50505050509050600081516001600160401b0381111561513757634e487b7160e01b600052604160045260246000fd5b60405190808252806020026020018201604052801561516a57816020015b60608152602001906001900390816151555790505b50905060005b8251811015611059576004600086815260200190815260200160002060008483815181106151ae57634e487b7160e01b600052603260045260246000fd5b60200260200101516001600160a01b03166001600160a01b0316815260200190815260200160002080546151e1906192de565b80601f016020809104026020016040519081016040528092919081815260200182805461520d906192de565b801561525a5780601f1061522f5761010080835404028352916020019161525a565b820191906000526020600020905b81548152906001019060200180831161523d57829003601f168201915b505050505082828151811061527f57634e487b7160e01b600052603260045260246000fd5b6020026020010181905250808061529590619319565b915050615170565b600e602052816000526040600020818154811061424957600080fd5b600360209081526000928352604080842090915290825290205481565b600073__$8f50167b5a72402e4f72ad916e88419f4b$__635aceba6f60096152fe8686614491565b6040518363ffffffff1660e01b8152600401614d44929190618f47565b421190565b6153286179b2565b615331826164ee565b61534d5760405162461bcd60e51b8152600401610eed90618be1565b6000828152600b602090815260409182902082516101c081018452815481526001820154928101929092526002810154928201929092526003820154606082015260048201546080820152600582015460ff808216151560a08401526101008083048216151560c08501526201000090920416151560e0830152600683015490820152600782015461012082015260088201546101408201526009820154610160820152600a820180549192916101808401919061540a906192de565b80601f0160208091040260200160405190810160405280929190818152602001828054615436906192de565b80156154835780601f1061545857610100808354040283529160200191615483565b820191906000526020600020905b81548152906001019060200180831161546657829003601f168201915b5050509183525050600b82015460209091019060ff1660038111156124d957634e487b7160e01b600052602160045260246000fd5b6154c0616ec8565b601354156154d0576154d061751e565b6154d86175d2565b60005b602760009054906101000a90046001600160a01b03166001600160a01b0316637d630cb06040518163ffffffff1660e01b815260040160206040518083038186803b15801561552957600080fd5b505afa15801561553d573d6000803e3d6000fd5b505050506040513d601f19601f820116820180604052508101906155619190617e4c565b81101561140e576019546000908152600b602052604081206005015462010000900460ff16151560011480156155ba575061559d60195461127b565b806155ba57506019546000908152600b6020526040902060030154155b156155df576155ca601954612e10565b6019546155d8906001617255565b6019555060015b601a546000908152600b602052604090206005015462010000900460ff1615156001148015906156965750602760009054906101000a90046001600160a01b03166001600160a01b03166380ac32476040518163ffffffff1660e01b815260040160206040518083038186803b15801561565857600080fd5b505afa15801561566c573d6000803e3d6000fd5b505050506040513d601f19601f820116820180604052508101906156909190617e4c565b60115410155b80156156ab57506156a5614652565b60145414155b80156156cb5750601a546000908152600b602052604090206005015460ff165b156156dc576156d8612800565b5060015b806156e7575061140e565b50806156f281619319565b9150506154db565b6026546001600160a01b031681565b615711616c3c565b6001600160a01b031661572261421e565b6001600160a01b0316146157485760405162461bcd60e51b8152600401610eed9061898f565b602280546001600160a01b0319166001600160a01b0392909216919091179055565b615772616c3c565b6001600160a01b031661578361421e565b6001600160a01b0316146157a95760405162461bcd60e51b8152600401610eed9061898f565b602180546001600160a01b0319166001600160a01b0392909216919091179055565b336000908152600d602052604090205490565b6060600082116158005760405162461bcd60e51b8152600401610eed90618874565b6000826001600160401b0381111561582857634e487b7160e01b600052604160045260246000fd5b604051908082528060200260200182016040528015615851578160200160208202803683370190505b5090506000615862614bea83617321565b949350505050565b6060615875826164ee565b6158915760405162461bcd60e51b8152600401610eed90618be1565b6000828152600b60205260409020600a0180546158ad906192de565b80601f01602080910402602001604051908101604052809291908181526020018280546158d9906192de565b80156159265780601f106158fb57610100808354040283529160200191615926565b820191906000526020600020905b81548152906001019060200180831161590957829003601f168201915b50505050509050919050565b6001600160a01b03166000908152600c602052604090206005015460ff1690565b600061597761596133613ca0565b336000908152600d6020526040902054906171b3565b9050818110156159995760405162461bcd60e51b8152600401610eed90618b9a565b602154604051630895993360e11b81526001600160a01b039091169063112b3266906159cb9085903390600401619115565b602060405180830381600087803b1580156159e557600080fd5b505af11580156159f9573d6000803e3d6000fd5b505050506040513d601f19601f82011682018060405250810190615a1d9190617c5f565b615a395760405162461bcd60e51b8152600401610eed90618e23565b336000908152600d602052604081208054849290615a58908490619297565b909155505060405133907ffaeb7dbb9992397d26ea1944efd40c80b40f702faf69b46c67ad10aba68ccb7990615a8f908590618089565b60405180910390a25050565b6060615aa6826164ee565b615ac25760405162461bcd60e51b8152600401610eed906189c4565b600082601954615ad29190619297565b615add90600161924c565b90506000816001600160401b03811115615b0757634e487b7160e01b600052604160045260246000fd5b604051908082528060200260200182016040528015615b3a57816020015b6060815260200190600190039081615b255790505b509050835b6019548110156110595760016000828152600b60208190526040909120015460ff166003811115615b8057634e487b7160e01b600052602160045260246000fd5b1415615c4c576000818152600b60205260409020600a018054615ba2906192de565b80601f0160208091040260200160405190810160405280929190818152602001828054615bce906192de565b8015615c1b5780601f10615bf057610100808354040283529160200191615c1b565b820191906000526020600020905b815481529060010190602001808311615bfe57829003601f168201915b5050505050828281518110615c4057634e487b7160e01b600052603260045260246000fd5b60200260200101819052505b80615c5681619319565b915050615b3f565b601f5481565b6060615c6f826164ee565b615c8b5760405162461bcd60e51b8152600401610eed90618be1565b6000828152600b6020908152604080832081516101c081018352815481526001820154938101939093526002810154918301919091526003810154606083015260048101546080830152600581015460ff808216151560a08501526101008083048216151560c08601526201000090920416151560e0840152600682015490830152600781015461012083015260088101546101408301526009810154610160830152600a8101805461018084019190615d44906192de565b80601f0160208091040260200160405190810160405280929190818152602001828054615d70906192de565b8015615dbd5780601f10615d9257610100808354040283529160200191615dbd565b820191906000526020600020905b815481529060010190602001808311615da057829003601f168201915b5050509183525050600b82015460209091019060ff166003811115615df257634e487b7160e01b600052602160045260246000fd5b6003811115615e1157634e487b7160e01b600052602160045260246000fd5b90525060208101519091506000816001600160401b03811115615e4457634e487b7160e01b600052604160045260246000fd5b604051908082528060200260200182016040528015615e7757816020015b6060815260200190600190039081615e625790505b50905060005b82811015615077578351600090615e9590839061924c565b6000818152600a6020526040812080549293509091615eb3906192de565b80601f0160208091040260200160405190810160405280929190818152602001828054615edf906192de565b8015615f2c5780601f10615f0157610100808354040283529160200191615f2c565b820191906000526020600020905b815481529060010190602001808311615f0f57829003601f168201915b5050505050905080848481518110615f5457634e487b7160e01b600052603260045260246000fd5b602002602001018190525050508080615f6c90619319565b915050615e7d565b60195481565b601b5481565b615f88616c3c565b6001600160a01b0316615f9961421e565b6001600160a01b031614615fbf5760405162461bcd60e51b8152600401610eed9061898f565b6001600160a01b038116615fe55760405162461bcd60e51b8152600401610eed9061843a565b61140e816172d1565b600082826040516020016144a6929190618251565b601b5490565b616011616ec8565b336000908152600c602090815260409182902060275483516398a54e2b60e01b8152935191936001600160a01b03909116926398a54e2b92600480840193829003018186803b15801561606357600080fd5b505afa158015616077573d6000803e3d6000fd5b505050506040513d601f19601f8201168201806040525081019061609b9190617e4c565b6012546011546160ab919061924c565b106160c85760405162461bcd60e51b8152600401610eed90618ca2565b600581015460ff16156160ed5760405162461bcd60e51b8152600401610eed9061831d565b602760009054906101000a90046001600160a01b03166001600160a01b0316639fb491f66040518163ffffffff1660e01b815260040160206040518083038186803b15801561613b57600080fd5b505afa15801561614f573d6000803e3d6000fd5b505050506040513d601f19601f820116820180604052508101906161739190617e4c565b8160030154101580156162185750602760009054906101000a90046001600160a01b03166001600160a01b0316630f1f0ffe6040518163ffffffff1660e01b815260040160206040518083038186803b1580156161cf57600080fd5b505afa1580156161e3573d6000803e3d6000fd5b505050506040513d601f19601f820116820180604052508101906162079190617e4c565b60068201546162169042619297565b105b156162355760405162461bcd60e51b8152600401610eed90618d41565b6027546040805163569cbddd60e11b815290516000926001600160a01b03169163ad397bba916004808301926020929190829003018186803b15801561627a57600080fd5b505afa15801561628e573d6000803e3d6000fd5b505050506040513d601f19601f820116820180604052508101906162b29190617e4c565b60245460405163792f4f6960e11b81529192506000916001600160a01b039091169063f25e9ed2906162e89033906004016180bc565b60206040518083038186803b15801561630057600080fd5b505afa158015616314573d6000803e3d6000fd5b505050506040513d601f19601f820116820180604052508101906163389190617b3e565b336000908152600d60205260409020549091508211156163e1576001600160a01b038116156163b8576001600160a01b0381166000908152600d60205260409020548211156163b3576001600160a01b0381166000908152600d60205260408120546163a59084906171b3565b90506163b1818361779b565b505b6163e1565b336000908152600d60205260408120546163d39084906171b3565b90506163df813361779b565b505b336000908152600d60205260409020548211156164105760405162461bcd60e51b8152600401610eed90618705565b616419336171bf565b61646057601180546001810182556000919091527f31ecc21a745e3968a04e9570e4425bc18fa8019c68028196b546d1669c200c680180546001600160a01b031916331790555b8254336001600160a01b031990911617835560058301805460ff1916600190811761ff001916909155426006850155600060038501819055601b80549091906164aa90849061924c565b909155505060405133907f439d77b7534ec3108fc6143bd4fbabde0b9f2bb54f7b0730d1f70dd2135b765f906164e1904290618089565b60405180910390a2505050565b601854101590565b336000908152600c602052604090206005015460ff1690565b601d5490565b61651d616ec8565b61652685614531565b6165425760405162461bcd60e51b8152600401610eed90618513565b33600090815260016020908152604080832088845290915290205460ff161561657d5760405162461bcd60e51b8152600401610eed90618c59565b6165878533614d94565b6165a35760405162461bcd60e51b8152600401610eed90618577565b6027546040805163569cbddd60e11b815290516000926001600160a01b03169163ad397bba916004808301926020929190829003018186803b1580156165e857600080fd5b505afa1580156165fc573d6000803e3d6000fd5b505050506040513d601f19601f820116820180604052508101906166209190617e4c565b60245460405163792f4f6960e11b81529192506000916001600160a01b039091169063f25e9ed2906166569033906004016180bc565b60206040518083038186803b15801561666e57600080fd5b505afa158015616682573d6000803e3d6000fd5b505050506040513d601f19601f820116820180604052508101906166a69190617b3e565b336000908152600d602052604090205490915082111561674f576001600160a01b03811615616726576001600160a01b0381166000908152600d6020526040902054821115616721576001600160a01b0381166000908152600d60205260408120546167139084906171b3565b905061671f818361779b565b505b61674f565b336000908152600d60205260408120546167419084906171b3565b905061674d813361779b565b505b336000908152600d602052604090205482111561677e5760405162461bcd60e51b8152600401610eed90618ce4565b6000336000908152600860205260408082209051632f7cc11d60e21b815273__$f254a8095384b8dfa1dc07d6532ff7186d$__9163bdf30474916167c7919086906004016180ae565b60206040518083038186803b1580156167df57600080fd5b505af41580156167f3573d6000803e3d6000fd5b505050506040513d601f19601f820116820180604052508101906168179190617e4c565b9050888114156168bc5733600090815260086020526040908190209051632f7cc11d60e21b815273__$f254a8095384b8dfa1dc07d6532ff7186d$__9163bdf304749161686991908d906004016180ae565b60206040518083038186803b15801561688157600080fd5b505af4158015616895573d6000803e3d6000fd5b505050506040513d601f19601f820116820180604052508101906168b99190617e4c565b90505b6168c882823387614131565b6168e45760405162461bcd60e51b8152600401610eed90618893565b3360009081526008602052604090819020905163681aae8360e11b815273__$f254a8095384b8dfa1dc07d6532ff7186d$__9163d0355d0691616930919086908e908790600401618fcf565b60006040518083038186803b15801561694857600080fd5b505af415801561695c573d6000803e3d6000fd5b50505050600061696c338b614491565b604051625571cf60e61b815290915073__$8f50167b5a72402e4f72ad916e88419f4b$__9063155c73c0906169aa9060099085908a90600401618fb1565b60006040518083038186803b1580156169c257600080fd5b505af41580156169d6573d6000803e3d6000fd5b5050604051625571cf60e61b815273__$8f50167b5a72402e4f72ad916e88419f4b$__925063155c73c09150616a159060099085908e90600401618f65565b60006040518083038186803b158015616a2d57600080fd5b505af4158015616a41573d6000803e3d6000fd5b50505060008b8152600560209081526040808320338085529083528184208d90558e84526006835281842090845282529091208951616a85935090918a01906178a3565b5060008a815260076020908152604080832033845282529091208751616aad928901906178a3565b50336000908152600c602090815260408083208d8452600b90925290912060020154616ada9060016171b3565b60008c8152600b602090815260408083206002019390935542600485015533825260018082528383208f8452909152918120805460ff191683179055601b8054909190616b2890849061924c565b909155505060405133908c907f8d73f267e1554343d4caa94b60fcb1cb8ac16fa08c16d880dccfebc7c7b7eda390616b61908a90618089565b60405180910390a35050505050505050505050565b6020546001600160a01b031681565b6001600160a01b039081166000908152600c6020908152604091829020825161014081018452815490941684526001810154918401829052600281015460ff90811615159385019390935260038101546060850152600481015460808501526005810154808416151560a086015261010090819004909316151560c0850152600681015460e08501526007810154928401929092526008909101546101209092019190915290565b6027546001600160a01b031681565b3390565b60008060005b601154811015616cb457836001600160a01b031660118281548110616c7b57634e487b7160e01b600052603260045260246000fd5b6000918252602090912001546001600160a01b03161415616ca25760019150809250616cb4565b80616cac81619319565b915050616c46565b508015616d935760118054616ccb90600190619297565b81548110616ce957634e487b7160e01b600052603260045260246000fd5b600091825260209091200154601180546001600160a01b039092169184908110616d2357634e487b7160e01b600052603260045260246000fd5b9060005260206000200160006101000a8154816001600160a01b0302191690836001600160a01b031602179055506011805480616d7057634e487b7160e01b600052603160045260246000fd5b600082815260209020810160001990810180546001600160a01b03191690550190555b505050565b60008060005b601254811015616e0c57836001600160a01b031660128281548110616dd357634e487b7160e01b600052603260045260246000fd5b6000918252602090912001546001600160a01b03161415616dfa5760019150809250616e0c565b80616e0481619319565b915050616d9e565b508015616d935760128054616e2390600190619297565b81548110616e4157634e487b7160e01b600052603260045260246000fd5b600091825260209091200154601280546001600160a01b039092169184908110616e7b57634e487b7160e01b600052603260045260246000fd5b9060005260206000200160006101000a8154816001600160a01b0302191690836001600160a01b031602179055506012805480616d7057634e487b7160e01b600052603160045260246000fd5b60275460408051632abe0d5f60e11b815290516000926001600160a01b03169163557c1abe916004808301926020929190829003018186803b158015616f0d57600080fd5b505afa925050508015616f3d575060408051601f3d908101601f19168201909252616f3a91810190617b3e565b60015b616fae573d808015616f6b576040519150601f19603f3d011682016040523d82523d6000602084013e616f70565b606091505b507f4b87bbd93ba65ede1e2efeca735d9f7a6720bf7d6db0a8355b17dba5b64e578381604051616fa091906181d3565b60405180910390a150616fb0565b505b602760009054906101000a90046001600160a01b03166001600160a01b031663557c1abe6040518163ffffffff1660e01b815260040160206040518083038186803b158015616ffe57600080fd5b505afa158015617012573d6000803e3d6000fd5b505050506040513d601f19601f820116820180604052508101906170369190617b3e565b90506001600160a01b03811661705e5760405162461bcd60e51b8152600401610eed906185d4565b6000816001600160a01b03163360405160240161707b91906180bc565b60408051601f198184030181529181526020820180516001600160e01b0316631f5ac9c560e11b179052516170b09190618092565b6000604051808303816000865af19150503d80600081146170ed576040519150601f19603f3d011682016040523d82523d6000602084013e6170f2565b606091505b505090506000826001600160a01b03163360405160240161711391906180bc565b60408051601f198184030181529181526020820180516001600160e01b03166358563d2160e01b179052516171489190618092565b6000604051808303816000865af19150503d8060008114617185576040519150601f19603f3d011682016040523d82523d6000602084013e61718a565b606091505b5050905081806171975750805b616d935760405162461bcd60e51b8152600401610eed906183a5565b60006115b68284619297565b600080805b6011548110156147ec57836001600160a01b0316601182815481106171f957634e487b7160e01b600052603260045260246000fd5b6000918252602090912001546001600160a01b0316141561721d57600191506147ec565b8061722781619319565b9150506171c4565b600081831061723e57816115b6565b5090919050565b60008183101561723e57816115b6565b60006115b6828461924c565b600080805b6012548110156147ec57836001600160a01b03166012828154811061729b57634e487b7160e01b600052603260045260246000fd5b6000918252602090912001546001600160a01b031614156172bf57600191506147ec565b806172c981619319565b915050617266565b600080546001600160a01b038381166001600160a01b0319831681178455604051919092169283917f8be0079c531659141344cd1fd0a4f28419497f9722a3daafe3b4186f6b6457e09190a35050565b805160609060005b8181101561736f578084828151811061735257634e487b7160e01b600052603260045260246000fd5b60209081029190910101528061736781619319565b915050617329565b509192915050565b6060600082511161739a5760405162461bcd60e51b8152600401610eed9061854a565b81518060005b81811015617515576000836173b3614652565b8784815181106173d357634e487b7160e01b600052603260045260246000fd5b60200260200101516040516020016173ec9291906180ae565b6040516020818303038152906040528051906020012060001c61740f9190619334565b61741a90600161924c565b905060008661742a600184619297565b8151811061744857634e487b7160e01b600052603260045260246000fd5b60200260200101519050866001866174609190619297565b8151811061747e57634e487b7160e01b600052603260045260246000fd5b6020026020010151876001846174949190619297565b815181106174b257634e487b7160e01b600052603260045260246000fd5b602090810291909101015280876174ca600188619297565b815181106174e857634e487b7160e01b600052603260045260246000fd5b60209081029190910101526174fe600186619297565b94505050808061750d90619319565b9150506173a0565b50929392505050565b60005b6013548110156175c55760006013828154811061754e57634e487b7160e01b600052603260045260246000fd5b60009182526020808320909101546001600160a01b0316808352600c909152604090912060058101549192509060ff16801561758c57506001810154155b156175b05760058101805461ffff191690556175a782616c40565b6175b082616d98565b505080806175bd90619319565b915050617521565b50613d1360136000617a40565b60006017546019546175e49190619297565b9050602760009054906101000a90046001600160a01b03166001600160a01b031663e3115d3c6040518163ffffffff1660e01b815260040160206040518083038186803b15801561763457600080fd5b505afa158015617648573d6000803e3d6000fd5b505050506040513d601f19601f8201168201806040525081019061766c9190617e4c565b81111561140e5760005b602754604080516307d630cb60e41b815290516176fa926001600160a01b031691637d630cb0916004808301926020929190829003018186803b1580156176bc57600080fd5b505afa1580156176d0573d6000803e3d6000fd5b505050506040513d601f19601f820116820180604052508101906176f49190617e4c565b8361722f565b81101561448d576017546000908152600b602052604081208054600190910154909190617727908361924c565b9050815b8181101561774e5761773c81612343565b8061774681619319565b91505061772b565b5061775a60175461273b565b6017546040517f72c2fcc891fe835b86fc8bb9abdc52adf52499c52289b3c49e1461eabea2717590600090a25050808061779390619319565b915050617676565b6021546040516304ada21f60e21b81526001600160a01b03909116906312b6887c906177cd9085908590600401619115565b602060405180830381600087803b1580156177e757600080fd5b505af11580156177fb573d6000803e3d6000fd5b505050506040513d601f19601f8201168201806040525081019061781f9190617c5f565b61783b5760405162461bcd60e51b8152600401610eed9061860b565b6001600160a01b0381166000908152600d60205260408120805484929061786390849061924c565b92505081905550806001600160a01b03167f5aa5d56140767016c877a5333ac3e1ad31a09051098a8fdf7297c4b64530a94283604051615a8f9190618089565b8280546178af906192de565b90600052602060002090601f0160209004810192826178d15760008555617917565b82601f106178ea57805160ff1916838001178555617917565b82800160010185558215617917579182015b828111156179175782518255916020019190600101906178fc565b50617923929150617a5a565b5090565b508054617933906192de565b6000825580601f10617945575061140e565b601f01602090049060005260206000209081019061140e9190617a5a565b60405180608001604052806060815260200160006001600160a01b0316815260200160008152602001600060038111156179ad57634e487b7160e01b600052602160045260246000fd5b905290565b604051806101c0016040528060008152602001600081526020016000815260200160008152602001600081526020016000151581526020016000151581526020016000151581526020016000815260200160008152602001600081526020016000815260200160608152602001600060038111156179ad57634e487b7160e01b600052602160045260246000fd5b508054600082559060005260206000209081019061140e91905b5b808211156179235760008155600101617a5b565b8051801515811461105e57600080fd5b80516004811061105e57600080fd5b600082601f830112617a9e578081fd5b8135617ab1617aac82619219565b6191f0565b818152846020838601011115617ac5578283fd5b816020850160208301379081016020019190915292915050565b600082601f830112617aef578081fd5b8151617afd617aac82619219565b818152846020838601011115617b11578283fd5b6158628260208301602087016192ae565b600060208284031215617b33578081fd5b81356115b68161938a565b600060208284031215617b4f578081fd5b81516115b68161938a565b60008060408385031215617b6c578081fd5b8235617b778161938a565b946020939093013593505050565b600080600060608486031215617b99578081fd5b8335617ba48161938a565b95602085013595506040909401359392505050565b60006020808385031215617bcb578182fd5b82356001600160401b0380821115617be1578384fd5b818501915085601f830112617bf4578384fd5b813581811115617c0657617c06619374565b8381029150617c168483016191f0565b8181528481019084860184860187018a1015617c30578788fd5b8795505b83861015617c52578035835260019590950194918601918601617c34565b5098975050505050505050565b600060208284031215617c70578081fd5b6115b682617a6f565b60008060408385031215617c8b578182fd5b82356001600160401b0380821115617ca1578384fd5b617cad86838701617a8e565b93506020850135915080821115617cc2578283fd5b50617ccf85828601617a8e565b9150509250929050565b60008060408385031215617ceb578182fd5b82356001600160401b03811115617d00578283fd5b617d0c85828601617a8e565b95602094909401359450505050565b600060208284031215617d2c578081fd5b81516001600160401b0380821115617d42578283fd5b81840191506101c0808387031215617d58578384fd5b617d61816191f0565b905082518152602083015160208201526040830151604082015260608301516060820152617d9160808401617a6f565b6080820152617da260a08401617a6f565b60a0820152617db360c08401617a6f565b60c082015260e083810151908201526101008084015190820152610120808401519082015261014080840151908201526101608084015183811115617df6578586fd5b617e0288828701617adf565b828401525050610180915081830151828201526101a09150617e25828401617a7f565b91810191909152949350505050565b600060208284031215617e45578081fd5b5035919050565b600060208284031215611641578081fd5b60008060408385031215617e6f578182fd5b823591506020830135617e818161938a565b809150509250929050565b600080600080600060a08688031215617ea3578283fd5b85359450602086013593506040860135925060608601356001600160401b0380821115617ece578283fd5b617eda89838a01617a8e565b93506080880135915080821115617eef578283fd5b50617efc88828901617a8e565b9150509295509295909350565b60008060408385031215617f1b578182fd5b50508035926020909101359150565b60008060008060808587031215617f3f578182fd5b84359350602085013592506040850135617f588161938a565b9396929550929360600135925050565b60008060008060808587031215617f7d578182fd5b843593506020850135925060408501356001600160401b03811115617fa0578283fd5b617fac87828801617a8e565b949793965093946060013593505050565b15159052565b60008151808452617fdb8160208601602086016192ae565b601f01601f19169290920160200192915050565b6004811061800d57634e487b7160e01b600052602160045260246000fd5b9052565b600a8152690c6dedadad2e890c2e6d60b31b602082015260400190565b60098152686e756d546f6b656e7360b81b602082015260400190565b60609190911b6bffffffffffffffffffffffff1916815260140190565b60609290921b6bffffffffffffffffffffffff19168252601482015260340190565b90815260200190565b600082516180a48184602087016192ae565b9190910192915050565b918252602082015260400190565b6001600160a01b0391909116815260200190565b6001600160a01b039a909a168a5260208a0198909852951515604089015260608801949094526080870192909252151560a0860152151560c085015260e08401526101008301526101208201526101400190565b6000602080830181845280855180835260408601915060408482028701019250838701855b8281101561817757603f19888603018452618165858351617fc3565b94509285019290850190600101618149565b5092979650505050505050565b6020808252825182820181905260009190848201906040850190845b818110156181bc578351835292840192918401916001016181a0565b50909695505050505050565b901515815260200190565b6000602082526115b66020830184617fc3565b6000604082526181f96040830185617fc3565b905060018060a01b03831660208301529392505050565b6000608082526182236080830187617fc3565b6001600160a01b03861660208401526040830185905290506182486060830184617fef565b95945050505050565b6000604082526182646040830185617fc3565b90508260208301529392505050565b600060208083528184548360028204905060018083168061829557607f831692505b8583108114156182b357634e487b7160e01b87526022600452602487fd5b6182bf83878a01618089565b8180156182d357600181146182e45761830e565b60ff1986168252878201965061830e565b6182ed8b619240565b895b86811015618308578154848201529085019089016182ef565b83019750505b50949998505050505050505050565b6020808252601c908201527f576f726b657220697320616c7265616479207265676973746572656400000000604082015260600190565b60208082526031908201527f676976656e204461746142617463682073686f756c6420626520415050524f5660408201527011510b08185b99081a5d081a5cc81b9bdd607a1b606082015260800190565b60208082526025908201527f72656365697665722072656a6563746564205f7265747269657665534675656c6040820152640818d85b1b60da1b606082015260800190565b60208082526030908201527f636f756c64206e6f742072657761726420746f6b656e20696e2056616c69646160408201526f3a32a230ba30a130ba31b4161018973160811b606082015260800190565b60208082526026908201527f4f776e61626c653a206e6577206f776e657220697320746865207a65726f206160408201526564647265737360d01b606082015260800190565b60208082526029908201527f6b206f72204e20617265206e6f74204f4b20647572696e672072616e646f6d2060408201526839b2b632b1ba34b7b760b91b606082015260800190565b6020808252602a908201527f4661696c20647572696e6720616c6c6f636174696f6e3a206e6f7420656e6f75604082015269676820776f726b65727360b01b606082015260800190565b6020808252601e908201527f636f6d6d697420706572696f64206e6565647320746f206265206f70656e0000604082015260600190565b60208082526013908201527205f6d7941727261792e6c656e677468203e203606c1b604082015260600190565b60208082526038908201527f55736572206e6565647320746f20626520616c6c6f636174656420746f20746860408201527f697320626174636820746f20636f6d6d6974206f6e2069740000000000000000606082015260800190565b6020808252601d908201527f734675656c3a206e756c6c2041646472657373204e6f742056616c6964000000604082015260600190565b6020808252603f908201527f436f756c64206e6f74207265717565737420656e6f75676820616c6c6f63617460408201527f6564207374616b652c2072657175657374416c6c6f63617465645374616b6500606082015260800190565b6020808252602e908201527f636f756c64206e6f74207265776172642052455020696e2056616c696461746560408201526d4461746142617463682c20312e6160901b606082015260800190565b6020808252602f908201527f5573657220686173206e6f7420636f6d6d69746564206265666f72652c20746860408201526e1d5cc818d85b89dd081c995d99585b608a1b606082015260800190565b60208082526044908201527f576f726b657220686173206e6f7420656e6f75676820285f6e756d546f6b656e60408201527f732920696e2068697320417263686976655374616b6564546f6b656e42616c6160608201526303731b2960e51b608082015260a00190565b6020808252603b908201527f5f44617461426174636849645f656e64206d7573742065786973743a2074686560408201527f20696e7075742072616e6765206973206e6f7420636f72726563740000000000606082015260800190565b60208082526039908201527f646c6c4d61703a20646f6573206e6f7420636f696e7461696e205f446174614260408201527f61746368496420666f7220746865206d73672073656e64657200000000000000606082015260800190565b6020808252602b908201527f75736572206d75737420686176652072657665616c656420696e20746869732060408201526a0ced2eccadc4084c2e8c6d60ab1b606082015260800190565b60208082526005908201526404e203e20360dc1b604082015260600190565b6020808252601490820152733737ba1030903b30b634b2103837b9b4ba34b7b760611b604082015260600190565b6020808252603b908201527f43616e277420616c6c6f6361746520776f726b2c207468652063757272656e7460408201527f20626174636820697320616c726561647920616c6c6f63617465640000000000606082015260800190565b6020808252602c908201527f576f726b6572206973206e6f74207265676973746572656420736f2063616e2760408201526b3a103ab73932b3b4b9ba32b960a11b606082015260800190565b6020808252600b908201526a04e5f72616e6765203e20360ac1b604082015260600190565b6020808252818101527f4f776e61626c653a2063616c6c6572206973206e6f7420746865206f776e6572604082015260600190565b6020808252601d908201527f5f44617461426174636849645f7374617274206d757374206578697374000000604082015260600190565b6020808252603a908201527f5f446174614261746368496420686173206e6f7420656e6465642c206f72206e60408201527f6f7420657665727920766f74657273206861766520766f746564000000000000606082015260800190565b6020808252603e908201527f436f756c64206e6f74206d6174636820656e637279707465642068617368202660408201527f20636c6561722068617368207769746820676976656e20696e707574732e0000606082015260800190565b60208082526029908201527f6765744e756d50617373696e67546f6b656e733a20686173686573206d75737460408201526808189948195c5d585b60ba1b606082015260800190565b60208082526036908201527f43616e277420616c6c6f6361746520776f726b2c207468652063757272656e74604082015275206261746368206973206e6f7420636f6d706c65746560501b606082015260800190565b60208082526026908201527f52657665616c20706572696f64206e6f74206f70656e20666f7220746869732060408201526511185d18525160d21b606082015260800190565b60208082526027908201527f617661696c61626c65546f6b656e732073686f756c64206265203e3d205f6e756040820152666d546f6b656e7360c81b606082015260800190565b60208082526017908201527f5f4461746142617463684964206d757374206578697374000000000000000000604082015260600190565b60208082526021908201527f5f446174614261746368496420697320616c72656164792076616c69646174656040820152601960fa1b606082015260800190565b60208082526029908201527f557365722068617320616c726561647920636f6d6d6974656420746f207468696040820152681cc818985d18da125960ba1b606082015260800190565b60208082526022908201527f4d6178696d756d207265676973746572656420776f726b65727320616c726561604082015261647960f01b606082015260800190565b60208082526037908201527f75736572206d757374206861766520656e6f75676820766f74696e672072696760408201527f68747320616b6120616c6c6f6361746564207374616b65000000000000000000606082015260800190565b6020808252606c908201527f5573657220686173206e6f7420766f746564206d616e792074696d657320696e60408201527f206120726f7720616e64206e6565647320746f2077616974204e4f564f54455f60608201527f524547495354524154494f4e5f574149545f4455524154494f4e20746f20726560808201526b33b4b9ba32b91030b3b0b4b760a11b60a082015260c00190565b6020808252602a908201527f5f446174614261746368496420636865636b696e6720766f7465206d757374206040820152691a185d9948195b99195960b21b606082015260800190565b6020808252603b908201527f436f756c64206e6f74207769746864726177566f74696e67526967687473207460408201527f68726f7567682050726f78795374616b654465616c6c6f636174650000000000606082015260800190565b6020808252600f908201526e11185d18481b5d5cdd08195e1a5cdd608a1b604082015260600190565b6020808252602c908201527f557365722068617320616c72656164792072657665616c65642c20746875732060408201526b18d85b89dd081c995d99585b60a21b606082015260800190565b60208082526032908201527f5f44617461426174636849645f7374617274206d757374206265203c207468616040820152711b8817d1185d1850985d18da125917d95b9960721b606082015260800190565b60008382528260208301526060604083015261586260608301618011565b600084825283602083015260806040830152618f8360808301618011565b9050826060830152949350505050565b6000838252826020830152606060408301526158626060830161802e565b600084825283602083015260806040830152618f836080830161802e565b93845260208401929092526040830152606082015260800190565b60006020825282516080602084015261900660a0840182617fc3565b905060018060a01b0360208501511660408401526040840151606084015260608401516190366080850182617fef565b509392505050565b60006020825282516020830152602083015160408301526040830151606083015260608301516080830152608083015160a083015260a083015161908560c0840182617fbd565b5060c083015161909860e0840182617fbd565b5060e08301516101006190ad81850183617fbd565b840151610120848101919091528401516101408085019190915284015161016080850191909152840151610180808501919091528401516101c06101a0808601829052919250906191026101e0860184617fc3565b90860151909250614e6585830182617fef565b9182526001600160a01b0316602082015260400190565b9182526001600160a01b031660208201526000604082015260600190565b9283526020830191909152604082015260600190565b60008f82528e60208301528d60408301528c60608301528b60808301528a151560a083015289151560c083015261919a60e083018a617fbd565b876101008301528661012083015285610140830152846101608301526101c06101808301526191cd6101c0830185617fc3565b90506191dd6101a0830184617fef565b9f9e505050505050505050505050505050565b6040518181016001600160401b038111828210171561921157619211619374565b604052919050565b60006001600160401b0382111561923257619232619374565b50601f01601f191660200190565b60009081526020902090565b6000821982111561925f5761925f619348565b500190565b6000826192735761927361935e565b500490565b600081600019048311821515161561929257619292619348565b500290565b6000828210156192a9576192a9619348565b500390565b60005b838110156192c95781810151838201526020016192b1565b838111156192d8576000848401525b50505050565b6002810460018216806192f257607f821691505b6020821081141561931357634e487b7160e01b600052602260045260246000fd5b50919050565b600060001982141561932d5761932d619348565b5060010190565b6000826193435761934361935e565b500690565b634e487b7160e01b600052601160045260246000fd5b634e487b7160e01b600052601260045260246000fd5b634e487b7160e01b600052604160045260246000fd5b6001600160a01b038116811461140e57600080fdfea26469706673582212202856d63397d92e602041e7e15620738325fe38145bff79204ac3d0d515b79bdc64736f6c63430008000033",
  "linkReferences": {
    "contracts/worksystems/DataArchiving.sol": {
      "AttributeStore4": [
        {
          "length": 20,
          "start": 20048
        },
        {
          "length": 20,
          "start": 21543
        },
        {
          "length": 20,
          "start": 27338
        },
        {
          "length": 20,
          "start": 27443
        }
      ],
      "DLL4": [
        {
          "length": 20,
          "start": 5587
        },
        {
          "length": 20,
          "start": 5759
        },
        {
          "length": 20,
          "start": 6076
        },
        {
          "length": 20,
          "start": 6635
        },
        {
          "length": 20,
          "start": 17481
        },
        {
          "length": 20,
          "start": 17661
        },
        {
          "length": 20,
          "start": 26859
        },
        {
          "length": 20,
          "start": 27021
        },
        {
          "length": 20,
          "start": 27216
        }
      ]
    }
  },
  "deployedLinkReferences": {
    "contracts/worksystems/DataArchiving.sol": {
      "AttributeStore4": [
        {
          "length": 20,
          "start": 19715
        },
        {
          "length": 20,
          "start": 21210
        },
        {
          "length": 20,
          "start": 27005
        },
        {
          "length": 20,
          "start": 27110
        }
      ],
      "DLL4": [
        {
          "length": 20,
          "start": 5254
        },
        {
          "length": 20,
          "start": 5426
        },
        {
          "length": 20,
          "start": 5743
        },
        {
          "length": 20,
          "start": 6302
        },
        {
          "length": 20,
          "start": 17148
        },
        {
          "length": 20,
          "start": 17328
        },
        {
          "length": 20,
          "start": 26526
        },
        {
          "length": 20,
          "start": 26688
        },
        {
          "length": 20,
          "start": 26883
        }
      ]
    }
  }
}