{
  "_format": "hh-sol-artifact-1",
  "contractName": "DataArchiving",
  "sourceName": "contracts/worksystems/DataArchiving.sol",
  "abi": [
    {
      "inputs": [
        {
          "internalType": "address",
          "name": "EXDT_token_",
          "type": "address"
        }
      ],
      "stateMutability": "nonpayable",
      "type": "constructor"
    },
    {
      "anonymous": false,
      "inputs": [
        {
          "indexed": false,
          "internalType": "bytes",
          "name": "bytesFailure",
          "type": "bytes"
        }
      ],
      "name": "BytesFailure",
      "type": "event"
    },
    {
      "anonymous": false,
      "inputs": [
        {
          "indexed": true,
          "internalType": "address",
          "name": "previousOwner",
          "type": "address"
        },
        {
          "indexed": true,
          "internalType": "address",
          "name": "newOwner",
          "type": "address"
        }
      ],
      "name": "OwnershipTransferred",
      "type": "event"
    },
    {
      "anonymous": false,
      "inputs": [
        {
          "indexed": false,
          "internalType": "string",
          "name": "hash",
          "type": "string"
        },
        {
          "indexed": true,
          "internalType": "address",
          "name": "creator",
          "type": "address"
        }
      ],
      "name": "_ArchiveAccepted",
      "type": "event"
    },
    {
      "anonymous": false,
      "inputs": [
        {
          "indexed": true,
          "internalType": "uint256",
          "name": "DataID",
          "type": "uint256"
        },
        {
          "indexed": false,
          "internalType": "uint256",
          "name": "numTokens",
          "type": "uint256"
        },
        {
          "indexed": true,
          "internalType": "address",
          "name": "voter",
          "type": "address"
        }
      ],
      "name": "_ArchiveCheckCommitted",
      "type": "event"
    },
    {
      "anonymous": false,
      "inputs": [
        {
          "indexed": true,
          "internalType": "uint256",
          "name": "DataID",
          "type": "uint256"
        },
        {
          "indexed": false,
          "internalType": "uint256",
          "name": "numTokens",
          "type": "uint256"
        },
        {
          "indexed": false,
          "internalType": "uint256",
          "name": "votesFor",
          "type": "uint256"
        },
        {
          "indexed": false,
          "internalType": "uint256",
          "name": "votesAgainst",
          "type": "uint256"
        },
        {
          "indexed": true,
          "internalType": "uint256",
          "name": "choice",
          "type": "uint256"
        },
        {
          "indexed": true,
          "internalType": "address",
          "name": "voter",
          "type": "address"
        }
      ],
      "name": "_ArchiveCheckRevealed",
      "type": "event"
    },
    {
      "anonymous": false,
      "inputs": [
        {
          "indexed": true,
          "internalType": "uint256",
          "name": "DataID",
          "type": "uint256"
        },
        {
          "indexed": false,
          "internalType": "string",
          "name": "file_hash",
          "type": "string"
        },
        {
          "indexed": false,
          "internalType": "address",
          "name": "sender",
          "type": "address"
        }
      ],
      "name": "_ArchiveSubmitted",
      "type": "event"
    },
    {
      "anonymous": false,
      "inputs": [
        {
          "indexed": true,
          "internalType": "uint256",
          "name": "batchID",
          "type": "uint256"
        }
      ],
      "name": "_DataBatchDeleted",
      "type": "event"
    },
    {
      "anonymous": false,
      "inputs": [
        {
          "indexed": false,
          "internalType": "uint256",
          "name": "numTokens",
          "type": "uint256"
        },
        {
          "indexed": true,
          "internalType": "address",
          "name": "voter",
          "type": "address"
        }
      ],
      "name": "_StakeAllocated",
      "type": "event"
    },
    {
      "anonymous": false,
      "inputs": [
        {
          "indexed": true,
          "internalType": "uint256",
          "name": "DataID",
          "type": "uint256"
        },
        {
          "indexed": true,
          "internalType": "address",
          "name": "voter",
          "type": "address"
        }
      ],
      "name": "_TokensRescued",
      "type": "event"
    },
    {
      "anonymous": false,
      "inputs": [
        {
          "indexed": false,
          "internalType": "uint256",
          "name": "numTokens",
          "type": "uint256"
        },
        {
          "indexed": true,
          "internalType": "address",
          "name": "voter",
          "type": "address"
        }
      ],
      "name": "_VotingRightsWithdrawn",
      "type": "event"
    },
    {
      "anonymous": false,
      "inputs": [
        {
          "indexed": true,
          "internalType": "uint256",
          "name": "batchID",
          "type": "uint256"
        },
        {
          "indexed": false,
          "internalType": "address",
          "name": "worker",
          "type": "address"
        }
      ],
      "name": "_WorkAllocated",
      "type": "event"
    },
    {
      "anonymous": false,
      "inputs": [
        {
          "indexed": true,
          "internalType": "address",
          "name": "worker",
          "type": "address"
        },
        {
          "indexed": false,
          "internalType": "uint256",
          "name": "timestamp",
          "type": "uint256"
        }
      ],
      "name": "_WorkerRegistered",
      "type": "event"
    },
    {
      "anonymous": false,
      "inputs": [
        {
          "indexed": true,
          "internalType": "address",
          "name": "worker",
          "type": "address"
        },
        {
          "indexed": false,
          "internalType": "uint256",
          "name": "timestamp",
          "type": "uint256"
        }
      ],
      "name": "_WorkerUnregistered",
      "type": "event"
    },
    {
      "inputs": [],
      "name": "AcceptedBatchsCounter",
      "outputs": [
        {
          "internalType": "uint256",
          "name": "",
          "type": "uint256"
        }
      ],
      "stateMutability": "view",
      "type": "function"
    },
    {
      "inputs": [],
      "name": "AllTxsCounter",
      "outputs": [
        {
          "internalType": "uint256",
          "name": "",
          "type": "uint256"
        }
      ],
      "stateMutability": "view",
      "type": "function"
    },
    {
      "inputs": [],
      "name": "AllocateWork",
      "outputs": [],
      "stateMutability": "nonpayable",
      "type": "function"
    },
    {
      "inputs": [],
      "name": "AllocatedBatchCursor",
      "outputs": [
        {
          "internalType": "uint256",
          "name": "",
          "type": "uint256"
        }
      ],
      "stateMutability": "view",
      "type": "function"
    },
    {
      "inputs": [],
      "name": "AmIRegistered",
      "outputs": [
        {
          "internalType": "bool",
          "name": "passed",
          "type": "bool"
        }
      ],
      "stateMutability": "view",
      "type": "function"
    },
    {
      "inputs": [
        {
          "internalType": "uint256",
          "name": "",
          "type": "uint256"
        }
      ],
      "name": "ArchivesMapping",
      "outputs": [
        {
          "internalType": "string",
          "name": "ipfs_hash",
          "type": "string"
        },
        {
          "internalType": "address",
          "name": "author",
          "type": "address"
        },
        {
          "internalType": "uint256",
          "name": "timestamp",
          "type": "uint256"
        },
        {
          "internalType": "enum DataArchiving.DataStatus",
          "name": "status",
          "type": "uint8"
        }
      ],
      "stateMutability": "view",
      "type": "function"
    },
    {
      "inputs": [
        {
          "internalType": "string",
          "name": "_a",
          "type": "string"
        },
        {
          "internalType": "string",
          "name": "_b",
          "type": "string"
        }
      ],
      "name": "AreStringsEqual",
      "outputs": [
        {
          "internalType": "bool",
          "name": "",
          "type": "bool"
        }
      ],
      "stateMutability": "pure",
      "type": "function"
    },
    {
      "inputs": [],
      "name": "BatchCheckingCursor",
      "outputs": [
        {
          "internalType": "uint256",
          "name": "",
          "type": "uint256"
        }
      ],
      "stateMutability": "view",
      "type": "function"
    },
    {
      "inputs": [],
      "name": "BatchDeletionCursor",
      "outputs": [
        {
          "internalType": "uint256",
          "name": "",
          "type": "uint256"
        }
      ],
      "stateMutability": "view",
      "type": "function"
    },
    {
      "inputs": [
        {
          "internalType": "uint256",
          "name": "",
          "type": "uint256"
        }
      ],
      "name": "CollectedSpotBatchs",
      "outputs": [
        {
          "internalType": "bool",
          "name": "",
          "type": "bool"
        }
      ],
      "stateMutability": "view",
      "type": "function"
    },
    {
      "inputs": [
        {
          "internalType": "uint256",
          "name": "",
          "type": "uint256"
        }
      ],
      "name": "DataBatch",
      "outputs": [
        {
          "internalType": "uint256",
          "name": "start_idx",
          "type": "uint256"
        },
        {
          "internalType": "uint256",
          "name": "counter",
          "type": "uint256"
        },
        {
          "internalType": "uint256",
          "name": "uncommited_workers",
          "type": "uint256"
        },
        {
          "internalType": "uint256",
          "name": "unrevealed_workers",
          "type": "uint256"
        },
        {
          "internalType": "uint256",
          "name": "item_count",
          "type": "uint256"
        },
        {
          "internalType": "bool",
          "name": "complete",
          "type": "bool"
        },
        {
          "internalType": "bool",
          "name": "checked",
          "type": "bool"
        },
        {
          "internalType": "bool",
          "name": "allocated_to_work",
          "type": "bool"
        },
        {
          "internalType": "uint256",
          "name": "commitEndDate",
          "type": "uint256"
        },
        {
          "internalType": "uint256",
          "name": "revealEndDate",
          "type": "uint256"
        },
        {
          "internalType": "uint256",
          "name": "votesFor",
          "type": "uint256"
        },
        {
          "internalType": "uint256",
          "name": "votesAgainst",
          "type": "uint256"
        },
        {
          "internalType": "string",
          "name": "batchIPFSfile",
          "type": "string"
        },
        {
          "internalType": "enum DataArchiving.DataStatus",
          "name": "status",
          "type": "uint8"
        }
      ],
      "stateMutability": "view",
      "type": "function"
    },
    {
      "inputs": [
        {
          "internalType": "uint256",
          "name": "_DataBatchId",
          "type": "uint256"
        }
      ],
      "name": "DataCommitEndDate",
      "outputs": [
        {
          "internalType": "uint256",
          "name": "commitEndDate",
          "type": "uint256"
        }
      ],
      "stateMutability": "view",
      "type": "function"
    },
    {
      "inputs": [
        {
          "internalType": "uint256",
          "name": "_DataBatchId",
          "type": "uint256"
        }
      ],
      "name": "DataEnded",
      "outputs": [
        {
          "internalType": "bool",
          "name": "ended",
          "type": "bool"
        }
      ],
      "stateMutability": "view",
      "type": "function"
    },
    {
      "inputs": [
        {
          "internalType": "uint256",
          "name": "_DataBatchId",
          "type": "uint256"
        }
      ],
      "name": "DataExists",
      "outputs": [
        {
          "internalType": "bool",
          "name": "exists",
          "type": "bool"
        }
      ],
      "stateMutability": "view",
      "type": "function"
    },
    {
      "inputs": [],
      "name": "DataNonce",
      "outputs": [
        {
          "internalType": "uint256",
          "name": "",
          "type": "uint256"
        }
      ],
      "stateMutability": "view",
      "type": "function"
    },
    {
      "inputs": [
        {
          "internalType": "uint256",
          "name": "_DataBatchId",
          "type": "uint256"
        }
      ],
      "name": "DataRevealEndDate",
      "outputs": [
        {
          "internalType": "uint256",
          "name": "revealEndDate",
          "type": "uint256"
        }
      ],
      "stateMutability": "view",
      "type": "function"
    },
    {
      "inputs": [
        {
          "internalType": "address",
          "name": "user_",
          "type": "address"
        }
      ],
      "name": "GetCurrentWork",
      "outputs": [
        {
          "internalType": "uint256",
          "name": "",
          "type": "uint256"
        }
      ],
      "stateMutability": "view",
      "type": "function"
    },
    {
      "inputs": [
        {
          "internalType": "address",
          "name": "user_",
          "type": "address"
        }
      ],
      "name": "IsNewWorkAvailable",
      "outputs": [
        {
          "internalType": "bool",
          "name": "",
          "type": "bool"
        }
      ],
      "stateMutability": "view",
      "type": "function"
    },
    {
      "inputs": [],
      "name": "LastBatchCounter",
      "outputs": [
        {
          "internalType": "uint256",
          "name": "",
          "type": "uint256"
        }
      ],
      "stateMutability": "view",
      "type": "function"
    },
    {
      "inputs": [
        {
          "internalType": "address",
          "name": "",
          "type": "address"
        },
        {
          "internalType": "uint256",
          "name": "",
          "type": "uint256"
        }
      ],
      "name": "MasterWorkers",
      "outputs": [
        {
          "internalType": "address",
          "name": "",
          "type": "address"
        }
      ],
      "stateMutability": "view",
      "type": "function"
    },
    {
      "inputs": [],
      "name": "NotCommitedCounter",
      "outputs": [
        {
          "internalType": "uint256",
          "name": "",
          "type": "uint256"
        }
      ],
      "stateMutability": "view",
      "type": "function"
    },
    {
      "inputs": [],
      "name": "NotRevealedCounter",
      "outputs": [
        {
          "internalType": "uint256",
          "name": "",
          "type": "uint256"
        }
      ],
      "stateMutability": "view",
      "type": "function"
    },
    {
      "inputs": [],
      "name": "Parameters",
      "outputs": [
        {
          "internalType": "contract IParametersManager",
          "name": "",
          "type": "address"
        }
      ],
      "stateMutability": "view",
      "type": "function"
    },
    {
      "inputs": [
        {
          "internalType": "uint256",
          "name": "CheckedBatchId",
          "type": "uint256"
        }
      ],
      "name": "Ping",
      "outputs": [],
      "stateMutability": "nonpayable",
      "type": "function"
    },
    {
      "inputs": [],
      "name": "RegisterWorker",
      "outputs": [],
      "stateMutability": "nonpayable",
      "type": "function"
    },
    {
      "inputs": [],
      "name": "RejectedBatchsCounter",
      "outputs": [
        {
          "internalType": "uint256",
          "name": "",
          "type": "uint256"
        }
      ],
      "stateMutability": "view",
      "type": "function"
    },
    {
      "inputs": [
        {
          "internalType": "address",
          "name": "",
          "type": "address"
        }
      ],
      "name": "SystemStakedTokenBalance",
      "outputs": [
        {
          "internalType": "uint256",
          "name": "",
          "type": "uint256"
        }
      ],
      "stateMutability": "view",
      "type": "function"
    },
    {
      "inputs": [],
      "name": "TriggerUpdate",
      "outputs": [],
      "stateMutability": "nonpayable",
      "type": "function"
    },
    {
      "inputs": [],
      "name": "UnregisterWorker",
      "outputs": [],
      "stateMutability": "nonpayable",
      "type": "function"
    },
    {
      "inputs": [
        {
          "internalType": "uint256",
          "name": "",
          "type": "uint256"
        },
        {
          "internalType": "address",
          "name": "",
          "type": "address"
        }
      ],
      "name": "UserBatchCounts",
      "outputs": [
        {
          "internalType": "uint256",
          "name": "",
          "type": "uint256"
        }
      ],
      "stateMutability": "view",
      "type": "function"
    },
    {
      "inputs": [
        {
          "internalType": "uint256",
          "name": "",
          "type": "uint256"
        },
        {
          "internalType": "address",
          "name": "",
          "type": "address"
        }
      ],
      "name": "UserBatchFrom",
      "outputs": [
        {
          "internalType": "string",
          "name": "",
          "type": "string"
        }
      ],
      "stateMutability": "view",
      "type": "function"
    },
    {
      "inputs": [
        {
          "internalType": "address",
          "name": "",
          "type": "address"
        },
        {
          "internalType": "uint256",
          "name": "",
          "type": "uint256"
        }
      ],
      "name": "UserChecksCommits",
      "outputs": [
        {
          "internalType": "bool",
          "name": "",
          "type": "bool"
        }
      ],
      "stateMutability": "view",
      "type": "function"
    },
    {
      "inputs": [
        {
          "internalType": "address",
          "name": "",
          "type": "address"
        },
        {
          "internalType": "uint256",
          "name": "",
          "type": "uint256"
        }
      ],
      "name": "UserChecksReveals",
      "outputs": [
        {
          "internalType": "bool",
          "name": "",
          "type": "bool"
        }
      ],
      "stateMutability": "view",
      "type": "function"
    },
    {
      "inputs": [
        {
          "internalType": "uint256",
          "name": "",
          "type": "uint256"
        },
        {
          "internalType": "address",
          "name": "",
          "type": "address"
        }
      ],
      "name": "UserNewFiles",
      "outputs": [
        {
          "internalType": "string",
          "name": "",
          "type": "string"
        }
      ],
      "stateMutability": "view",
      "type": "function"
    },
    {
      "inputs": [
        {
          "internalType": "uint256",
          "name": "",
          "type": "uint256"
        },
        {
          "internalType": "address",
          "name": "",
          "type": "address"
        }
      ],
      "name": "UserSubmittedStatus",
      "outputs": [
        {
          "internalType": "string",
          "name": "",
          "type": "string"
        }
      ],
      "stateMutability": "view",
      "type": "function"
    },
    {
      "inputs": [
        {
          "internalType": "uint256",
          "name": "",
          "type": "uint256"
        },
        {
          "internalType": "address",
          "name": "",
          "type": "address"
        }
      ],
      "name": "UserVotes",
      "outputs": [
        {
          "internalType": "uint256",
          "name": "",
          "type": "uint256"
        }
      ],
      "stateMutability": "view",
      "type": "function"
    },
    {
      "inputs": [
        {
          "internalType": "uint256",
          "name": "_DataBatchId",
          "type": "uint256"
        }
      ],
      "name": "ValidateDataBatch",
      "outputs": [],
      "stateMutability": "nonpayable",
      "type": "function"
    },
    {
      "inputs": [
        {
          "internalType": "uint256",
          "name": "",
          "type": "uint256"
        },
        {
          "internalType": "uint256",
          "name": "",
          "type": "uint256"
        }
      ],
      "name": "WorkersPerBatch",
      "outputs": [
        {
          "internalType": "address",
          "name": "",
          "type": "address"
        }
      ],
      "stateMutability": "view",
      "type": "function"
    },
    {
      "inputs": [
        {
          "internalType": "address",
          "name": "",
          "type": "address"
        }
      ],
      "name": "WorkersState",
      "outputs": [
        {
          "internalType": "address",
          "name": "worker_address",
          "type": "address"
        },
        {
          "internalType": "uint256",
          "name": "allocated_work_batch",
          "type": "uint256"
        },
        {
          "internalType": "bool",
          "name": "has_completed_work",
          "type": "bool"
        },
        {
          "internalType": "uint256",
          "name": "succeeding_novote_count",
          "type": "uint256"
        },
        {
          "internalType": "uint256",
          "name": "last_interaction_date",
          "type": "uint256"
        },
        {
          "internalType": "bool",
          "name": "registered",
          "type": "bool"
        },
        {
          "internalType": "bool",
          "name": "unregistration_request",
          "type": "bool"
        },
        {
          "internalType": "uint256",
          "name": "registration_date",
          "type": "uint256"
        },
        {
          "internalType": "uint256",
          "name": "majority_counter",
          "type": "uint256"
        },
        {
          "internalType": "uint256",
          "name": "minority_counter",
          "type": "uint256"
        }
      ],
      "stateMutability": "view",
      "type": "function"
    },
    {
      "inputs": [
        {
          "internalType": "address",
          "name": "_user",
          "type": "address"
        },
        {
          "internalType": "uint256",
          "name": "_DataBatchId",
          "type": "uint256"
        }
      ],
      "name": "attrUUID",
      "outputs": [
        {
          "internalType": "bytes32",
          "name": "UUID",
          "type": "bytes32"
        }
      ],
      "stateMutability": "pure",
      "type": "function"
    },
    {
      "inputs": [
        {
          "internalType": "uint256",
          "name": "",
          "type": "uint256"
        }
      ],
      "name": "availableWorkers",
      "outputs": [
        {
          "internalType": "address",
          "name": "",
          "type": "address"
        }
      ],
      "stateMutability": "view",
      "type": "function"
    },
    {
      "inputs": [
        {
          "internalType": "uint256",
          "name": "",
          "type": "uint256"
        }
      ],
      "name": "busyWorkers",
      "outputs": [
        {
          "internalType": "address",
          "name": "",
          "type": "address"
        }
      ],
      "stateMutability": "view",
      "type": "function"
    },
    {
      "inputs": [
        {
          "internalType": "uint256",
          "name": "_DataBatchId",
          "type": "uint256"
        },
        {
          "internalType": "bytes32",
          "name": "_secretIPFSHash",
          "type": "bytes32"
        },
        {
          "internalType": "uint256",
          "name": "_BatchCount",
          "type": "uint256"
        },
        {
          "internalType": "string",
          "name": "_From",
          "type": "string"
        },
        {
          "internalType": "string",
          "name": "_Status",
          "type": "string"
        }
      ],
      "name": "commitArchiveCheck",
      "outputs": [],
      "stateMutability": "nonpayable",
      "type": "function"
    },
    {
      "inputs": [
        {
          "internalType": "uint256",
          "name": "_DataBatchId",
          "type": "uint256"
        }
      ],
      "name": "commitPeriodActive",
      "outputs": [
        {
          "internalType": "bool",
          "name": "active",
          "type": "bool"
        }
      ],
      "stateMutability": "view",
      "type": "function"
    },
    {
      "inputs": [
        {
          "internalType": "uint256",
          "name": "_BatchId",
          "type": "uint256"
        }
      ],
      "name": "deleteCollectedSpotBatch",
      "outputs": [],
      "stateMutability": "nonpayable",
      "type": "function"
    },
    {
      "inputs": [
        {
          "internalType": "uint256",
          "name": "_DataId",
          "type": "uint256"
        }
      ],
      "name": "deleteData",
      "outputs": [],
      "stateMutability": "nonpayable",
      "type": "function"
    },
    {
      "inputs": [
        {
          "internalType": "uint256",
          "name": "_BatchId",
          "type": "uint256"
        }
      ],
      "name": "deleteDataBatch",
      "outputs": [],
      "stateMutability": "nonpayable",
      "type": "function"
    },
    {
      "inputs": [],
      "name": "destroyContract",
      "outputs": [],
      "stateMutability": "nonpayable",
      "type": "function"
    },
    {
      "inputs": [
        {
          "internalType": "address",
          "name": "_voter",
          "type": "address"
        },
        {
          "internalType": "uint256",
          "name": "_DataBatchId",
          "type": "uint256"
        }
      ],
      "name": "didCommit",
      "outputs": [
        {
          "internalType": "bool",
          "name": "committed",
          "type": "bool"
        }
      ],
      "stateMutability": "view",
      "type": "function"
    },
    {
      "inputs": [
        {
          "internalType": "address",
          "name": "_voter",
          "type": "address"
        },
        {
          "internalType": "uint256",
          "name": "_DataBatchId",
          "type": "uint256"
        }
      ],
      "name": "didReveal",
      "outputs": [
        {
          "internalType": "bool",
          "name": "revealed",
          "type": "bool"
        }
      ],
      "stateMutability": "view",
      "type": "function"
    },
    {
      "inputs": [
        {
          "internalType": "uint256",
          "name": "_k",
          "type": "uint256"
        },
        {
          "internalType": "uint256",
          "name": "N_range",
          "type": "uint256"
        }
      ],
      "name": "generateIntegers",
      "outputs": [
        {
          "internalType": "uint256[]",
          "name": "",
          "type": "uint256[]"
        }
      ],
      "stateMutability": "view",
      "type": "function"
    },
    {
      "inputs": [
        {
          "internalType": "uint256",
          "name": "_DataBatchId_start",
          "type": "uint256"
        }
      ],
      "name": "getAcceptedBatchFileFrom",
      "outputs": [
        {
          "internalType": "string[]",
          "name": "batch",
          "type": "string[]"
        }
      ],
      "stateMutability": "view",
      "type": "function"
    },
    {
      "inputs": [
        {
          "internalType": "uint256",
          "name": "_DataBatchId_start",
          "type": "uint256"
        },
        {
          "internalType": "uint256",
          "name": "_DataBatchId_end",
          "type": "uint256"
        }
      ],
      "name": "getAcceptedBatchFilesRange",
      "outputs": [
        {
          "internalType": "string[]",
          "name": "batch",
          "type": "string[]"
        }
      ],
      "stateMutability": "view",
      "type": "function"
    },
    {
      "inputs": [],
      "name": "getAcceptedBatchesCount",
      "outputs": [
        {
          "internalType": "uint256",
          "name": "count",
          "type": "uint256"
        }
      ],
      "stateMutability": "view",
      "type": "function"
    },
    {
      "inputs": [],
      "name": "getActiveWorkersCount",
      "outputs": [
        {
          "internalType": "uint256",
          "name": "numWorkers",
          "type": "uint256"
        }
      ],
      "stateMutability": "view",
      "type": "function"
    },
    {
      "inputs": [],
      "name": "getAvailableWorkersCount",
      "outputs": [
        {
          "internalType": "uint256",
          "name": "numWorkers",
          "type": "uint256"
        }
      ],
      "stateMutability": "view",
      "type": "function"
    },
    {
      "inputs": [
        {
          "internalType": "uint256",
          "name": "_DataBatchId",
          "type": "uint256"
        }
      ],
      "name": "getBatchByID",
      "outputs": [
        {
          "components": [
            {
              "internalType": "uint256",
              "name": "start_idx",
              "type": "uint256"
            },
            {
              "internalType": "uint256",
              "name": "counter",
              "type": "uint256"
            },
            {
              "internalType": "uint256",
              "name": "uncommited_workers",
              "type": "uint256"
            },
            {
              "internalType": "uint256",
              "name": "unrevealed_workers",
              "type": "uint256"
            },
            {
              "internalType": "uint256",
              "name": "item_count",
              "type": "uint256"
            },
            {
              "internalType": "bool",
              "name": "complete",
              "type": "bool"
            },
            {
              "internalType": "bool",
              "name": "checked",
              "type": "bool"
            },
            {
              "internalType": "bool",
              "name": "allocated_to_work",
              "type": "bool"
            },
            {
              "internalType": "uint256",
              "name": "commitEndDate",
              "type": "uint256"
            },
            {
              "internalType": "uint256",
              "name": "revealEndDate",
              "type": "uint256"
            },
            {
              "internalType": "uint256",
              "name": "votesFor",
              "type": "uint256"
            },
            {
              "internalType": "uint256",
              "name": "votesAgainst",
              "type": "uint256"
            },
            {
              "internalType": "string",
              "name": "batchIPFSfile",
              "type": "string"
            },
            {
              "internalType": "enum DataArchiving.DataStatus",
              "name": "status",
              "type": "uint8"
            }
          ],
          "internalType": "struct DataArchiving.BatchMetadata",
          "name": "batch",
          "type": "tuple"
        }
      ],
      "stateMutability": "view",
      "type": "function"
    },
    {
      "inputs": [
        {
          "internalType": "uint256",
          "name": "_DataBatchId",
          "type": "uint256"
        }
      ],
      "name": "getBatchIPFSFileByID",
      "outputs": [
        {
          "internalType": "string",
          "name": "batch",
          "type": "string"
        }
      ],
      "stateMutability": "view",
      "type": "function"
    },
    {
      "inputs": [],
      "name": "getBusyWorkersCount",
      "outputs": [
        {
          "internalType": "uint256",
          "name": "numWorkers",
          "type": "uint256"
        }
      ],
      "stateMutability": "view",
      "type": "function"
    },
    {
      "inputs": [
        {
          "internalType": "address",
          "name": "_voter",
          "type": "address"
        },
        {
          "internalType": "uint256",
          "name": "_DataBatchId",
          "type": "uint256"
        }
      ],
      "name": "getCommitIPFSHash",
      "outputs": [
        {
          "internalType": "bytes32",
          "name": "commitHash",
          "type": "bytes32"
        }
      ],
      "stateMutability": "view",
      "type": "function"
    },
    {
      "inputs": [
        {
          "internalType": "address",
          "name": "_voter",
          "type": "address"
        },
        {
          "internalType": "uint256",
          "name": "_DataBatchId",
          "type": "uint256"
        }
      ],
      "name": "getCommitVoteHash",
      "outputs": [
        {
          "internalType": "bytes32",
          "name": "commitHash",
          "type": "bytes32"
        }
      ],
      "stateMutability": "view",
      "type": "function"
    },
    {
      "inputs": [
        {
          "internalType": "uint256",
          "name": "_DataId",
          "type": "uint256"
        }
      ],
      "name": "getDataByID",
      "outputs": [
        {
          "components": [
            {
              "internalType": "string",
              "name": "ipfs_hash",
              "type": "string"
            },
            {
              "internalType": "address",
              "name": "author",
              "type": "address"
            },
            {
              "internalType": "uint256",
              "name": "timestamp",
              "type": "uint256"
            },
            {
              "internalType": "enum DataArchiving.DataStatus",
              "name": "status",
              "type": "uint8"
            }
          ],
          "internalType": "struct DataArchiving.ArchiveData",
          "name": "data",
          "type": "tuple"
        }
      ],
      "stateMutability": "view",
      "type": "function"
    },
    {
      "inputs": [
        {
          "internalType": "string",
          "name": "_hash",
          "type": "string"
        },
        {
          "internalType": "uint256",
          "name": "_salt",
          "type": "uint256"
        }
      ],
      "name": "getEncryptedStringHash",
      "outputs": [
        {
          "internalType": "bytes32",
          "name": "keccak256hash",
          "type": "bytes32"
        }
      ],
      "stateMutability": "pure",
      "type": "function"
    },
    {
      "inputs": [
        {
          "internalType": "uint256",
          "name": "_DataBatchId",
          "type": "uint256"
        }
      ],
      "name": "getFromsForBatch",
      "outputs": [
        {
          "internalType": "string[]",
          "name": "",
          "type": "string[]"
        }
      ],
      "stateMutability": "view",
      "type": "function"
    },
    {
      "inputs": [
        {
          "internalType": "uint256",
          "name": "_DataBatchId",
          "type": "uint256"
        }
      ],
      "name": "getIPFShashesForBatch",
      "outputs": [
        {
          "internalType": "string[]",
          "name": "",
          "type": "string[]"
        }
      ],
      "stateMutability": "view",
      "type": "function"
    },
    {
      "inputs": [
        {
          "internalType": "address",
          "name": "_voter",
          "type": "address"
        },
        {
          "internalType": "uint256",
          "name": "_numTokens",
          "type": "uint256"
        },
        {
          "internalType": "uint256",
          "name": "_DataBatchId",
          "type": "uint256"
        }
      ],
      "name": "getInsertPointForNumTokens",
      "outputs": [
        {
          "internalType": "uint256",
          "name": "prevNode",
          "type": "uint256"
        }
      ],
      "stateMutability": "view",
      "type": "function"
    },
    {
      "inputs": [],
      "name": "getLastAllocatedBatchId",
      "outputs": [
        {
          "internalType": "uint256",
          "name": "LastAllocatedBatchId",
          "type": "uint256"
        }
      ],
      "stateMutability": "view",
      "type": "function"
    },
    {
      "inputs": [],
      "name": "getLastBatchId",
      "outputs": [
        {
          "internalType": "uint256",
          "name": "LastBatchId",
          "type": "uint256"
        }
      ],
      "stateMutability": "view",
      "type": "function"
    },
    {
      "inputs": [],
      "name": "getLastCheckedBatchId",
      "outputs": [
        {
          "internalType": "uint256",
          "name": "LastCheckedBatchId",
          "type": "uint256"
        }
      ],
      "stateMutability": "view",
      "type": "function"
    },
    {
      "inputs": [],
      "name": "getLastDataId",
      "outputs": [
        {
          "internalType": "uint256",
          "name": "DataId",
          "type": "uint256"
        }
      ],
      "stateMutability": "view",
      "type": "function"
    },
    {
      "inputs": [
        {
          "internalType": "address",
          "name": "_voter",
          "type": "address"
        }
      ],
      "name": "getLastNode",
      "outputs": [
        {
          "internalType": "uint256",
          "name": "DataID",
          "type": "uint256"
        }
      ],
      "stateMutability": "view",
      "type": "function"
    },
    {
      "inputs": [
        {
          "internalType": "address",
          "name": "_voter",
          "type": "address"
        }
      ],
      "name": "getLockedTokens",
      "outputs": [
        {
          "internalType": "uint256",
          "name": "numTokens",
          "type": "uint256"
        }
      ],
      "stateMutability": "view",
      "type": "function"
    },
    {
      "inputs": [],
      "name": "getMySystemTokenBalance",
      "outputs": [
        {
          "internalType": "uint256",
          "name": "tokens",
          "type": "uint256"
        }
      ],
      "stateMutability": "view",
      "type": "function"
    },
    {
      "inputs": [
        {
          "internalType": "address",
          "name": "_voter",
          "type": "address"
        },
        {
          "internalType": "uint256",
          "name": "_DataBatchId",
          "type": "uint256"
        },
        {
          "internalType": "uint256",
          "name": "_salt",
          "type": "uint256"
        }
      ],
      "name": "getNumPassingTokens",
      "outputs": [
        {
          "internalType": "uint256",
          "name": "correctArchiveChecks",
          "type": "uint256"
        }
      ],
      "stateMutability": "view",
      "type": "function"
    },
    {
      "inputs": [
        {
          "internalType": "address",
          "name": "_voter",
          "type": "address"
        },
        {
          "internalType": "uint256",
          "name": "_DataBatchId",
          "type": "uint256"
        }
      ],
      "name": "getNumTokens",
      "outputs": [
        {
          "internalType": "uint256",
          "name": "numTokens",
          "type": "uint256"
        }
      ],
      "stateMutability": "view",
      "type": "function"
    },
    {
      "inputs": [],
      "name": "getRandom",
      "outputs": [
        {
          "internalType": "uint256",
          "name": "",
          "type": "uint256"
        }
      ],
      "stateMutability": "view",
      "type": "function"
    },
    {
      "inputs": [],
      "name": "getRejectedBatchesCount",
      "outputs": [
        {
          "internalType": "uint256",
          "name": "count",
          "type": "uint256"
        }
      ],
      "stateMutability": "view",
      "type": "function"
    },
    {
      "inputs": [],
      "name": "getSeed",
      "outputs": [
        {
          "internalType": "bytes32",
          "name": "addr",
          "type": "bytes32"
        }
      ],
      "stateMutability": "view",
      "type": "function"
    },
    {
      "inputs": [
        {
          "internalType": "uint256",
          "name": "_DataBatchId",
          "type": "uint256"
        }
      ],
      "name": "getStatusForBatch",
      "outputs": [
        {
          "internalType": "string[]",
          "name": "",
          "type": "string[]"
        }
      ],
      "stateMutability": "view",
      "type": "function"
    },
    {
      "inputs": [
        {
          "internalType": "uint256",
          "name": "_DataBatchId",
          "type": "uint256"
        }
      ],
      "name": "getSubmittedFilesForBatch",
      "outputs": [
        {
          "internalType": "string[]",
          "name": "",
          "type": "string[]"
        }
      ],
      "stateMutability": "view",
      "type": "function"
    },
    {
      "inputs": [
        {
          "internalType": "address",
          "name": "_user",
          "type": "address"
        }
      ],
      "name": "getSystemTokenBalance",
      "outputs": [
        {
          "internalType": "uint256",
          "name": "tokens",
          "type": "uint256"
        }
      ],
      "stateMutability": "view",
      "type": "function"
    },
    {
      "inputs": [
        {
          "internalType": "uint256",
          "name": "_DataBatchId",
          "type": "uint256"
        }
      ],
      "name": "getTotalNumberOfArchiveChecks",
      "outputs": [
        {
          "internalType": "uint256",
          "name": "vc",
          "type": "uint256"
        }
      ],
      "stateMutability": "view",
      "type": "function"
    },
    {
      "inputs": [],
      "name": "getTxCounter",
      "outputs": [
        {
          "internalType": "uint256",
          "name": "Counter",
          "type": "uint256"
        }
      ],
      "stateMutability": "view",
      "type": "function"
    },
    {
      "inputs": [
        {
          "internalType": "uint256",
          "name": "_DataBatchId",
          "type": "uint256"
        }
      ],
      "name": "getVotesForBatch",
      "outputs": [
        {
          "internalType": "uint256[]",
          "name": "",
          "type": "uint256[]"
        }
      ],
      "stateMutability": "view",
      "type": "function"
    },
    {
      "inputs": [
        {
          "internalType": "uint256",
          "name": "_terminationDate",
          "type": "uint256"
        }
      ],
      "name": "isExpired",
      "outputs": [
        {
          "internalType": "bool",
          "name": "expired",
          "type": "bool"
        }
      ],
      "stateMutability": "view",
      "type": "function"
    },
    {
      "inputs": [
        {
          "internalType": "uint256",
          "name": "_DataBatchId",
          "type": "uint256"
        }
      ],
      "name": "isPassed",
      "outputs": [
        {
          "internalType": "bool",
          "name": "passed",
          "type": "bool"
        }
      ],
      "stateMutability": "view",
      "type": "function"
    },
    {
      "inputs": [
        {
          "internalType": "uint256",
          "name": "_DataBatchId",
          "type": "uint256"
        },
        {
          "internalType": "address",
          "name": "_worker",
          "type": "address"
        }
      ],
      "name": "isWorkerAllocatedToBatch",
      "outputs": [
        {
          "internalType": "bool",
          "name": "",
          "type": "bool"
        }
      ],
      "stateMutability": "view",
      "type": "function"
    },
    {
      "inputs": [
        {
          "internalType": "address",
          "name": "_worker",
          "type": "address"
        }
      ],
      "name": "isWorkerRegistered",
      "outputs": [
        {
          "internalType": "bool",
          "name": "passed",
          "type": "bool"
        }
      ],
      "stateMutability": "view",
      "type": "function"
    },
    {
      "inputs": [],
      "name": "owner",
      "outputs": [
        {
          "internalType": "address",
          "name": "",
          "type": "address"
        }
      ],
      "stateMutability": "view",
      "type": "function"
    },
    {
      "inputs": [
        {
          "internalType": "uint256",
          "name": "k",
          "type": "uint256"
        },
        {
          "internalType": "uint256",
          "name": "N",
          "type": "uint256"
        }
      ],
      "name": "random_selection",
      "outputs": [
        {
          "internalType": "uint256[]",
          "name": "",
          "type": "uint256[]"
        }
      ],
      "stateMutability": "view",
      "type": "function"
    },
    {
      "inputs": [],
      "name": "renounceOwnership",
      "outputs": [],
      "stateMutability": "nonpayable",
      "type": "function"
    },
    {
      "inputs": [
        {
          "internalType": "uint256",
          "name": "_DataBatchId",
          "type": "uint256"
        }
      ],
      "name": "rescueTokens",
      "outputs": [],
      "stateMutability": "nonpayable",
      "type": "function"
    },
    {
      "inputs": [
        {
          "internalType": "uint256[]",
          "name": "_DataBatchIDs",
          "type": "uint256[]"
        }
      ],
      "name": "rescueTokensInMultipleDatas",
      "outputs": [],
      "stateMutability": "nonpayable",
      "type": "function"
    },
    {
      "inputs": [
        {
          "internalType": "uint256",
          "name": "_DataBatchId",
          "type": "uint256"
        },
        {
          "internalType": "uint256",
          "name": "_voteOption",
          "type": "uint256"
        },
        {
          "internalType": "string",
          "name": "_clearIPFSHash",
          "type": "string"
        },
        {
          "internalType": "uint256",
          "name": "_salt",
          "type": "uint256"
        }
      ],
      "name": "revealArchiveCheck",
      "outputs": [],
      "stateMutability": "nonpayable",
      "type": "function"
    },
    {
      "inputs": [
        {
          "internalType": "uint256",
          "name": "_DataBatchId",
          "type": "uint256"
        }
      ],
      "name": "revealPeriodActive",
      "outputs": [
        {
          "internalType": "bool",
          "name": "active",
          "type": "bool"
        }
      ],
      "stateMutability": "view",
      "type": "function"
    },
    {
      "inputs": [],
      "name": "sFuel",
      "outputs": [
        {
          "internalType": "address",
          "name": "",
          "type": "address"
        }
      ],
      "stateMutability": "view",
      "type": "function"
    },
    {
      "inputs": [
        {
          "internalType": "uint256",
          "name": "N",
          "type": "uint256"
        }
      ],
      "name": "shuffle_array",
      "outputs": [
        {
          "internalType": "uint256[]",
          "name": "",
          "type": "uint256[]"
        }
      ],
      "stateMutability": "view",
      "type": "function"
    },
    {
      "inputs": [
        {
          "internalType": "uint256",
          "name": "",
          "type": "uint256"
        }
      ],
      "name": "toUnregisterWorkers",
      "outputs": [
        {
          "internalType": "address",
          "name": "",
          "type": "address"
        }
      ],
      "stateMutability": "view",
      "type": "function"
    },
    {
      "inputs": [],
      "name": "token",
      "outputs": [
        {
          "internalType": "contract IERC20",
          "name": "",
          "type": "address"
        }
      ],
      "stateMutability": "view",
      "type": "function"
    },
    {
      "inputs": [
        {
          "internalType": "address",
          "name": "newOwner",
          "type": "address"
        }
      ],
      "name": "transferOwnership",
      "outputs": [],
      "stateMutability": "nonpayable",
      "type": "function"
    },
    {
      "inputs": [
        {
          "internalType": "uint256",
          "name": "AllocatedBatchCursor_",
          "type": "uint256"
        }
      ],
      "name": "updateAllocatedBatchCursor",
      "outputs": [],
      "stateMutability": "nonpayable",
      "type": "function"
    },
    {
      "inputs": [
        {
          "internalType": "uint256",
          "name": "BatchCheckingCursor_",
          "type": "uint256"
        }
      ],
      "name": "updateBatchCheckingCursor",
      "outputs": [],
      "stateMutability": "nonpayable",
      "type": "function"
    },
    {
      "inputs": [
        {
          "internalType": "address",
          "name": "addr",
          "type": "address"
        }
      ],
      "name": "updateParametersManager",
      "outputs": [],
      "stateMutability": "nonpayable",
      "type": "function"
    },
    {
      "inputs": [
        {
          "internalType": "address",
          "name": "_sFuel",
          "type": "address"
        }
      ],
      "name": "updatesFuelFaucet",
      "outputs": [],
      "stateMutability": "nonpayable",
      "type": "function"
    },
    {
      "inputs": [
        {
          "internalType": "uint256",
          "name": "_prevID",
          "type": "uint256"
        },
        {
          "internalType": "uint256",
          "name": "_nextID",
          "type": "uint256"
        },
        {
          "internalType": "address",
          "name": "_voter",
          "type": "address"
        },
        {
          "internalType": "uint256",
          "name": "_numTokens",
          "type": "uint256"
        }
      ],
      "name": "validPosition",
      "outputs": [
        {
          "internalType": "bool",
          "name": "APPROVED",
          "type": "bool"
        }
      ],
      "stateMutability": "view",
      "type": "function"
    },
    {
      "inputs": [
        {
          "internalType": "uint256",
          "name": "_numTokens",
          "type": "uint256"
        }
      ],
      "name": "withdrawVotingRights",
      "outputs": [],
      "stateMutability": "nonpayable",
      "type": "function"
    }
  ],
  "bytecode": "0x6080604052600060145560006016556001601755600160185560016019556001601a556000601b556000601c556000601d556000601e556000601f553480156200004857600080fd5b50604051620099a7380380620099a78339810160408190526200006b916200010d565b6200007f62000079620000b9565b620000bd565b6001600160a01b0381166200009357600080fd5b602080546001600160a01b0319166001600160a01b03929092169190911790556200013d565b3390565b600080546001600160a01b038381166001600160a01b0319831681178455604051919092169283917f8be0079c531659141344cd1fd0a4f28419497f9722a3daafe3b4186f6b6457e09190a35050565b6000602082840312156200011f578081fd5b81516001600160a01b038116811462000136578182fd5b9392505050565b61985a806200014d6000396000f3fe608060405234801561001057600080fd5b506004361061063e5760003560e01c80639683f1de11610336578063d817587e116101c3578063ed8becfa1161010f578063f721de4a116100ad578063fbd7f73911610087578063fbd7f73914610d28578063fc0c546a14610d3b578063fca4956314610d43578063ff43de9d14610d565761063e565b8063f721de4a14610d05578063f80a23fd14610d18578063f96305f014610d205761063e565b8063f2fde38b116100e9578063f2fde38b14610ccf578063f4cdfcc414610ce2578063f5ae7c7d14610cf5578063f716596d14610cfd5761063e565b8063ed8becfa14610cac578063ef4fcdad14610cbf578063f2d9e74d14610cc75761063e565b8063e1f7a4301161017c578063e798a7da11610156578063e798a7da14610c6b578063e7b1d43c14610c7e578063e97439cf14610c91578063eb1322ff14610ca45761063e565b8063e1f7a43014610c3d578063e44c974b14610c45578063e604c12714610c585761063e565b8063d817587e14610bc9578063d822ce0114610bdc578063d8b7567414610bef578063d9548e5314610c02578063d9845fb814610c15578063da14563a14610c355761063e565b8063b0bc471e11610282578063c4e4f82a1161023b578063d420ec0b11610215578063d420ec0b14610b93578063d58f575c14610ba6578063d6b0206c14610bae578063d78b94cc14610bb65761063e565b8063c4e4f82a14610b5a578063d138209214610b6d578063d186981d14610b805761063e565b8063b0bc471e14610ae8578063b10aa58414610afb578063b1a2e0be14610b0e578063b1d7ea9814610b21578063b43bd06914610b34578063b8f011b314610b475761063e565b8063a350715a116102ef578063a9057790116102c9578063a905779014610ab2578063aa7ca46414610ac5578063aacc5a1714610ad8578063ab43e78d14610ae05761063e565b8063a350715a14610a8f578063a4439dc514610a97578063a511dba014610aaa5761063e565b80639683f1de14610a335780639760356014610a465780639769d84614610a595780639fc9c52f14610a61578063a1103f3714610a74578063a1b6b5b714610a875761063e565b80634fe8b4c1116104cf578063763a39f21161041b578063819b0293116103b957806388d072eb1161039357806388d072eb146109dc5780638c89d027146109ef5780638da5cb5b14610a185780638df0296e14610a205761063e565b8063819b0293146109ae578063821aa8c0146109c15780638473850b146109d45761063e565b80637ad3be11116103f55780637ad3be11146109535780637f9510a2146109665780637f97e8361461096e5780637fabe35b146109815761063e565b8063763a39f21461092557806376c1fef41461092d57806377124dec146109405761063e565b80636371d81f116104885780636b2d95d4116104625780636b2d95d4146108e45780637074222b146108f7578063715018a61461090a57806371880b1b146109125761063e565b80636371d81f146108b6578063667bf0f8146108c95780636b1485a3146108d15761063e565b80634fe8b4c114610840578063515535e81461085357806353bf27f11461085b5780635a452943146108635780635b113a55146108835780635df6055d146108965761063e565b80633538af821161058e57806347fe2d2011610547578063494031831161052157806349403183146107e45780634a9671ba146107f75780634d4b7d9b1461081a5780634d8842811461082d5761063e565b806347fe2d20146107c157806348257dc9146107c95780634852e2f0146107dc5761063e565b80633538af821461074d57806339e7357c1461076d578063427fa1d214610775578063441c77c01461078857806344380f3a1461079b5780634671ace5146107ae5761063e565b8063154fd39b116105fb5780632c052031116105d55780632c052031146107015780632d917c68146107145780632f469fd11461072757806331e2f2851461073a5761063e565b8063154fd39b146106d1578063226ed300146106d9578063275c2590146106f95761063e565b806301a48b9814610643578063059576231461066c578063092a5cce146106815780630e6661a714610689578063100372f51461069e57806310679810146106b1575b600080fd5b61065661065136600461818c565b610d5e565b60405161066391906184dc565b60405180910390f35b61067f61067a366004617e7a565b610efb565b005b61067f610f5c565b610691610fae565b60405161066391906183e1565b61067f6106ac36600461818c565b610fb4565b6106c46106bf3660046181b5565b610ff8565b604051610663919061852b565b61069161109d565b6106ec6106e736600461818c565b6110a3565b6040516106639190618520565b61067f6110eb565b61069161070f366004617edd565b611239565b6106ec610722366004617eb2565b6113d6565b6106c46107353660046181b5565b6113f6565b610691610748366004617e7a565b61141a565b61076061075b36600461818c565b61142c565b6040516106639190618414565b610691611456565b610691610783366004617e7a565b611473565b6106ec61079636600461818c565b611513565b61067f6107a93660046182c0565b61156d565b61067f6107bc36600461818c565b6118d1565b61069161193f565b61067f6107d736600461818c565b611945565b610691611e8d565b6106ec6107f236600461818c565b611e93565b61080a61080536600461818c565b6120e0565b6040516106639493929190618568565b6106ec61082836600461818c565b61219f565b61067f61083b366004617e7a565b6121b4565b61067f61084e36600461818c565b612215565b610691612295565b61069161229b565b61087661087136600461818c565b6122a1565b604051610663919061946f565b6106916108913660046181b5565b6123c4565b6108a96108a436600461818c565b6123e1565b604051610663919061847c565b61067f6108c436600461818c565b6125fe565b61067f6126b1565b61067f6108df36600461818c565b612cc1565b6106916108f2366004617e7a565b613de3565b610691610905366004617e7a565b613df2565b61067f613e0d565b61069161092036600461818c565b613e58565b610691613e95565b6108a961093b36600461818c565b613e9b565b61067f61094e36600461818c565b6140b8565b610691610961366004617eb2565b6140fc565b610691614191565b6106ec61097c366004617eb2565b6141a8565b61099461098f36600461818c565b6141fb565b6040516106639e9d9c9b9a999897969594939291906195e5565b6106ec6109bc366004618282565b6142fa565b6107606109cf36600461818c565b61433b565b61069161434b565b6106c46109ea3660046181b5565b614351565b610a026109fd366004617e7a565b614375565b6040516106639a99989796959493929190618428565b6107606143d8565b610760610a2e366004618261565b6143e7565b610691610a4136600461818c565b61441f565b61067f610a5436600461818c565b614443565b6106916145f3565b61067f610a6f366004617f11565b6145f9565b610691610a82366004617eb2565b61464b565b61069161467e565b610691614684565b6106ec610aa536600461818c565b61468a565b6106916146ec565b6106ec610ac0366004617fd1565b6146f2565b6106ec610ad3366004617eb2565b614758565b6106916147ab565b610760614860565b610691610af6366004617eb2565b61486f565b610760610b0936600461818c565b6148b4565b6106ec610b1c366004617e7a565b6148c4565b610656610b2f366004618261565b614991565b610691610b42366004617edd565b614bab565b610656610b55366004618261565b614c97565b610691610b6836600461818c565b614dff565b610691610b7b366004617eb2565b614e3c565b6106ec610b8e3660046181b5565b614e81565b6106ec610ba1366004617eb2565b614f5c565b610691614f7c565b610691614f82565b6108a9610bc4366004618261565b614f88565b6108a9610bd736600461818c565b61516d565b610760610bea366004617eb2565b61538a565b610691610bfd3660046181b5565b6153a6565b6106ec610c1036600461818c565b6153c3565b610c28610c2336600461818c565b6153c8565b60405161066391906194c3565b61067f615560565b6106916157a2565b610656610c5336600461818c565b6157b5565b6106c4610c6636600461818c565b615841565b6106ec610c79366004617e7a565b615909565b61067f610c8c36600461818c565b61592a565b6108a9610c9f36600461818c565b615aef565b610691615cb2565b6108a9610cba36600461818c565b615cb8565b610691615fc8565b610691615fce565b61067f610cdd366004617e7a565b615fd4565b610691610cf0366004618031565b616042565b610691616057565b61067f61605d565b6106ec610d1336600461818c565b61666b565b6106ec616673565b61069161668c565b61067f610d363660046181e4565b616692565b610760616dae565b610691610d51366004617e7a565b616dbd565b610760616e65565b6060610d698261666b565b610d8e5760405162461bcd60e51b8152600401610d8590618ff2565b60405180910390fd5b6000828152600f6020908152604080832080548251818502810185019093528083529192909190830182828015610dee57602002820191906000526020600020905b81546001600160a01b03168152600190910190602001808311610dd0575b50505050509050600081516001600160401b03811115610e1e57634e487b7160e01b600052604160045260246000fd5b604051908082528060200260200182016040528015610e47578160200160208202803683370190505b50905060005b8251811015610ef157600360008681526020019081526020016000206000848381518110610e8b57634e487b7160e01b600052603260045260246000fd5b60200260200101516001600160a01b03166001600160a01b0316815260200190815260200160002054828281518110610ed457634e487b7160e01b600052603260045260246000fd5b602090810291909101015280610ee98161979e565b915050610e4d565b509150505b919050565b610f03616e74565b6001600160a01b0316610f146143d8565b6001600160a01b031614610f3a5760405162461bcd60e51b8152600401610d8590618d29565b602180546001600160a01b0319166001600160a01b0392909216919091179055565b610f64616e74565b6001600160a01b0316610f756143d8565b6001600160a01b031614610f9b5760405162461bcd60e51b8152600401610d8590618d29565b610fa36143d8565b6001600160a01b0316ff5b60165481565b610fbc616e74565b6001600160a01b0316610fcd6143d8565b6001600160a01b031614610ff35760405162461bcd60e51b8152600401610d8590618d29565b601955565b60076020908152600092835260408084209091529082529020805461101c90619763565b80601f016020809104026020016040519081016040528092919081815260200182805461104890619763565b80156110955780601f1061106a57610100808354040283529160200191611095565b820191906000526020600020905b81548152906001019060200180831161107857829003601f168201915b505050505081565b601a5490565b60006110ae8261666b565b6110ca5760405162461bcd60e51b8152600401610d85906192d5565b6000828152600b60205260409020600701546110e5906153c3565b92915050565b336000908152600c60205260409020600581015460ff1615156001146111235760405162461bcd60e51b8152600401610d8590618cb8565b60018101541580159061114057506005810154610100900460ff16155b1561119d5760058101805461ff001916610100179055601380546001810182556000919091527f66de8ffda797e3de9c05e8fc57b3bf0ec28a930d40b0d285d93c06501cf6a0900180546001600160a01b03191633179055611215565b6001810154611215576111af33616e78565b6111b833616fd0565b80546001600160a01b031916339081178255426004830181905560058301805460ff191690556040517f9dadcedba048e92b943ea1c5861cee1df63a566d7f795869c004780c1c698e2b9161120c916183e1565b60405180910390a25b6001601b600082825461122891906196d1565b909155506112369050617100565b50565b60008061124585611473565b905060006112538683614e3c565b90505b81156113cb576112668683614e3c565b9050848111611323578382141561131b576001600160a01b038616600090815260086020526040908190209051632f75c9cd60e01b815273__$f254a8095384b8dfa1dc07d6532ff7186d$__91632f75c9cd916112c891908690600401618406565b60206040518083038186803b1580156112e057600080fd5b505af41580156112f4573d6000803e3d6000fd5b505050506040513d601f19601f8201168201806040525081019061131891906181a4565b91505b5090506113cf565b6001600160a01b038616600090815260086020526040908190209051632f75c9cd60e01b815273__$f254a8095384b8dfa1dc07d6532ff7186d$__91632f75c9cd9161137491908690600401618406565b60206040518083038186803b15801561138c57600080fd5b505af41580156113a0573d6000803e3d6000fd5b505050506040513d601f19601f820116820180604052508101906113c491906181a4565b9150611256565b5090505b9392505050565b600160209081526000928352604080842090915290825290205460ff1681565b60046020908152600092835260408084209091529082529020805461101c90619763565b600d6020526000908152604090205481565b6011818154811061143c57600080fd5b6000918252602090912001546001600160a01b0316905081565b60405160009080602081848060185afa61146c57fe5b5051919050565b6001600160a01b0381166000908152600860205260408082209051632f75c9cd60e01b815273__$f254a8095384b8dfa1dc07d6532ff7186d$__91632f75c9cd916114c391908590600401618406565b60206040518083038186803b1580156114db57600080fd5b505af41580156114ef573d6000803e3d6000fd5b505050506040513d601f19601f820116820180604052508101906110e591906181a4565b600061151e8261666b565b61153a5760405162461bcd60e51b8152600401610d8590618ff2565b6000828152600b6020526040902060070154611555906153c3565b1580156110e557506115668261468a565b1592915050565b611575617100565b61157e84611513565b61159a5760405162461bcd60e51b8152600401610d8590618f30565b33600090815260016020908152604080832087845290915290205460ff166115d45760405162461bcd60e51b8152600401610d8590618a51565b33600090815260026020908152604080832087845290915290205460ff161561160f5760405162461bcd60e51b8152600401610d85906192fe565b61161933856140fc565b6116238383616042565b146116405760405162461bcd60e51b8152600401610d8590618df2565b600061164c3386614e3c565b90508360011415611683576000858152600b6020526040812060080180548392906116789084906196d1565b909155506116aa9050565b6000858152600b6020526040812060090180548392906116a49084906196d1565b90915550505b336000908152600860205260409081902090516378f3b83560e11b815273__$f254a8095384b8dfa1dc07d6532ff7186d$__9163f1e7706a916116f291908990600401618406565b60006040518083038186803b15801561170a57600080fd5b505af415801561171e573d6000803e3d6000fd5b50503360008181526002602090815260408083208b84528252808320805460ff191660011790556003825280832084845282528083208a90558a835260048252808320938352928152919020865161177d945090925090860190617bfb565b50336000908152600c60209081526040808320888452600b909252909120600301546117aa9060016173eb565b6000878152600b602052604090206003015560028101805460ff191660011790554260048201556117da33616fd0565b600581015460ff1615611837576117f0336173f7565b61183757601180546001810182556000919091527f31ecc21a745e3968a04e9570e4425bc18fa8019c68028196b546d1669c200c680180546001600160a01b031916331790555b6000868152600b60205260409020600301546118565761185686612cc1565b6001601b600082825461186991906196d1565b90915550506000868152600b60205260409081902060088101546009909101549151339288928a927f20ebdb402f7893042572ceade4beeb806a5401f0a176cf55a0c3404bbf537282926118c19289929091906195cf565b60405180910390a4505050505050565b6118d9616e74565b6001600160a01b03166118ea6143d8565b6001600160a01b0316146119105760405162461bcd60e51b8152600401610d8590618d29565b60008181526010602052604090205460ff1615611236576000908152601060205260409020805460ff19169055565b60195490565b60215460408051637b39b17f60e11b815290516000926001600160a01b03169163f67362fe916004808301926020929190829003018186803b15801561198a57600080fd5b505afa15801561199e573d6000803e3d6000fd5b505050506040513d601f19601f820116820180604052508101906119c29190617e96565b905060006001600160a01b0316602160009054906101000a90046001600160a01b03166001600160a01b031663f67362fe6040518163ffffffff1660e01b815260040160206040518083038186803b158015611a1d57600080fd5b505afa158015611a31573d6000803e3d6000fd5b505050506040513d601f19601f82011682018060405250810190611a559190617e96565b6001600160a01b031614158015611a7b575060008281526010602052604090205460ff16155b15611e7157604051637b90ef2560e11b81526001600160a01b0382169063f721de4a90611aac9085906004016183e1565b602060405180830381600087803b158015611ac657600080fd5b505af1158015611ada573d6000803e3d6000fd5b505050506040513d601f19601f82011682018060405250810190611afe9190617fb7565b15611e7157604051631b308bf760e31b81526000906001600160a01b0383169063d9845fb890611b329086906004016183e1565b600060405180830381600087803b158015611b4c57600080fd5b505af1158015611b60573d6000803e3d6000fd5b505050506040513d6000823e601f3d908101601f19168201604052611b889190810190618073565b6101a08101519091506001816003811115611bb357634e487b7160e01b600052602160045260246000fd5b1415611e55576040805160808101825261016084015181523360208083019190915242828401526000606083018190526016548152600a8252929092208151805192939192611c059284920190617bfb565b506020820151600182810180546001600160a01b0319166001600160a01b0390931692909217909155604083015160028301556060830151600380840180549293909260ff1916918490811115611c6c57634e487b7160e01b600052602160045260246000fd5b0217905550506018546000908152600b60209081526040918290206021548351630363a1bf60e01b815293519194506001600160a01b031692630363a1bf926004808301939192829003018186803b158015611cc757600080fd5b505afa158015611cdb573d6000803e3d6000fd5b505050506040513d601f19601f82011682018060405250810190611cff91906181a4565b81600101541015611d25576001816001016000828254611d1f91906196d1565b90915550505b602160009054906101000a90046001600160a01b03166001600160a01b0316630363a1bf6040518163ffffffff1660e01b815260040160206040518083038186803b158015611d7357600080fd5b505afa158015611d87573d6000803e3d6000fd5b505050506040513d601f19601f82011682018060405250810190611dab91906181a4565b816001015410611dfa57600581018054600160ff19909116811761ff00191690915560188054600090611ddf9084906196d1565b90915550506016546018546000908152600b60205260409020555b611e02615560565b601654611e109060016196d1565b60168190556101608401516040517fcf3abf86111168aead00529e071c5282def001b120fbb5e691492be9377b014891611e4b91339061853e565b60405180910390a2505b50506000828152601060205260409020805460ff191660011790555b6001601b6000828254611e8491906196d1565b90915550505050565b601e5481565b6000818152600b6020908152604080832081516101c081018352815481526001820154938101939093526002810154918301919091526003810154606083015260048101546080830152600581015460ff808216151560a08501526101008083048216151560c08601526201000090920416151560e0840152600682015490830152600781015461012083015260088101546101408301526009810154610160830152600a8101805484939291610180840191611f4f90619763565b80601f0160208091040260200160405190810160405280929190818152602001828054611f7b90619763565b8015611fc85780601f10611f9d57610100808354040283529160200191611fc8565b820191906000526020600020905b815481529060010190602001808311611fab57829003601f168201915b5050509183525050600b82015460209091019060ff166003811115611ffd57634e487b7160e01b600052602160045260246000fd5b600381111561201c57634e487b7160e01b600052602160045260246000fd5b905250610160810151610140820151919250612037916196d1565b602160009054906101000a90046001600160a01b03166001600160a01b031663ea19733c6040518163ffffffff1660e01b815260040160206040518083038186803b15801561208557600080fd5b505afa158015612099573d6000803e3d6000fd5b505050506040513d601f19601f820116820180604052508101906120bd91906181a4565b6120c791906196fd565b6101408201516120d89060646196fd565b119392505050565b600a602052600090815260409020805481906120fb90619763565b80601f016020809104026020016040519081016040528092919081815260200182805461212790619763565b80156121745780601f1061214957610100808354040283529160200191612174565b820191906000526020600020905b81548152906001019060200180831161215757829003601f168201915b505050506001830154600284015460039094015492936001600160a01b039091169290915060ff1684565b60106020526000908152604090205460ff1681565b6121bc616e74565b6001600160a01b03166121cd6143d8565b6001600160a01b0316146121f35760405162461bcd60e51b8152600401610d8590618d29565b601580546001600160a01b0319166001600160a01b0392909216919091179055565b61221d616e74565b6001600160a01b031661222e6143d8565b6001600160a01b0316146122545760405162461bcd60e51b8152600401610d8590618d29565b6000818152600a602052604081209061226d8282617c7f565b506001810180546001600160a01b031916905560006002820155600301805460ff1916905550565b60185490565b60115490565b6122a9617cbb565b6000828152600a6020526040908190208151608081019092528054829082906122d190619763565b80601f01602080910402602001604051908101604052809291908181526020018280546122fd90619763565b801561234a5780601f1061231f5761010080835404028352916020019161234a565b820191906000526020600020905b81548152906001019060200180831161232d57829003601f168201915b505050918352505060018201546001600160a01b031660208201526002820154604082015260038083015460609092019160ff169081111561239c57634e487b7160e01b600052602160045260246000fd5b60038111156123bb57634e487b7160e01b600052602160045260246000fd5b90525092915050565b600560209081526000928352604080842090915290825290205481565b60606123ec8261666b565b6124085760405162461bcd60e51b8152600401610d8590618ff2565b6000828152600f602090815260408083208054825181850281018501909352808352919290919083018282801561246857602002820191906000526020600020905b81546001600160a01b0316815260019091019060200180831161244a575b50505050509050600081516001600160401b0381111561249857634e487b7160e01b600052604160045260246000fd5b6040519080825280602002602001820160405280156124cb57816020015b60608152602001906001900390816124b65790505b50905060005b8251811015610ef15760066000868152602001908152602001600020600084838151811061250f57634e487b7160e01b600052603260045260246000fd5b60200260200101516001600160a01b03166001600160a01b03168152602001908152602001600020805461254290619763565b80601f016020809104026020016040519081016040528092919081815260200182805461256e90619763565b80156125bb5780601f10612590576101008083540402835291602001916125bb565b820191906000526020600020905b81548152906001019060200180831161259e57829003601f168201915b50505050508282815181106125e057634e487b7160e01b600052603260045260246000fd5b602002602001018190525080806125f69061979e565b9150506124d1565b612606616e74565b6001600160a01b03166126176143d8565b6001600160a01b03161461263d5760405162461bcd60e51b8152600401610d8590618d29565b6000818152600b602052604081208181556001810182905560028101829055600381018290556004810182905560058101805462ffffff1916905560068101829055600781018290556008810182905560098101829055906126a2600a830182617c7f565b50600b01805460ff1916905550565b601a546000908152600b602052604090206005015460ff166126e55760405162461bcd60e51b8152600401610d8590618eda565b601a546000908152600b602052604090206005015462010000900460ff16156127205760405162461bcd60e51b8152600401610d8590618c5b565b60006128446127b9601180549050602160009054906101000a90046001600160a01b03166001600160a01b0316633968ec846040518163ffffffff1660e01b815260040160206040518083038186803b15801561277c57600080fd5b505afa158015612790573d6000803e3d6000fd5b505050506040513d601f19601f820116820180604052508101906127b491906181a4565b617467565b602160009054906101000a90046001600160a01b03166001600160a01b031663995adbdd6040518163ffffffff1660e01b815260040160206040518083038186803b15801561280757600080fd5b505afa15801561281b573d6000803e3d6000fd5b505050506040513d601f19601f8201168201806040525081019061283f91906181a4565b61747d565b601154601a80546000908152600b6020908152604080832060030186905592548252828220600201859055602154835163249e7a7560e21b81529351959650939491936128f9936001600160a01b0390911692639279e9d492600480840193919291829003018186803b1580156128ba57600080fd5b505afa1580156128ce573d6000803e3d6000fd5b505050506040513d601f19601f820116820180604052508101906128f291906181a4565b429061748d565b9050600061298d602160009054906101000a90046001600160a01b03166001600160a01b03166329e3dd1f6040518163ffffffff1660e01b815260040160206040518083038186803b15801561294e57600080fd5b505afa158015612962573d6000803e3d6000fd5b505050506040513d601f19601f8201168201806040525081019061298691906181a4565b839061748d565b601a80546000908152600b6020526040808220600601869055825482528082206007018490559154815220600501805462ff00001916620100001790559050600184108015906129de575060018310155b6129fa5760405162461bcd60e51b8152600401610d8590618821565b6000612a068585614c97565b9050600081516001600160401b03811115612a3157634e487b7160e01b600052604160045260246000fd5b604051908082528060200260200182016040528015612a5a578160200160208202803683370190505b50905060005b8251811015612b19576011838281518110612a8b57634e487b7160e01b600052603260045260246000fd5b602002602001015181548110612ab157634e487b7160e01b600052603260045260246000fd5b9060005260206000200160009054906101000a90046001600160a01b0316828281518110612aef57634e487b7160e01b600052603260045260246000fd5b6001600160a01b039092166020928302919091019091015280612b118161979e565b915050612a60565b5060005b8251811015612c81576000828281518110612b4857634e487b7160e01b600052603260045260246000fd5b602002602001015190506000600c6000836001600160a01b03166001600160a01b031681526020019081526020016000209050612b8482616e78565b612b8d82617499565b612bdd57601280546001810182556000919091527fbb8a6a4669ba250d26cd7a459eca9d215f8307e33aebe50379bc5a3617ec34440180546001600160a01b0319166001600160a01b0384161790555b601a80546000908152600f602090815260408083208054600180820183559185529290932090910180546001600160a01b0319166001600160a01b03871617905582549184019190915560028301805460ff19169055905490517fe4ee2dfabe57cee15e3f558890b20455f54c1fa0718e5276faad70a6500e6b8c90612c64908590618414565b60405180910390a250508080612c799061979e565b915050612b1d565b50601a54612c9090600161748d565b601a55612c9b6147ab565b6014819055506001601b6000828254612cb491906196d1565b9091555050505050505050565b60215460408051632a49798160e11b815290516000926001600160a01b031691635492f302916004808301926020929190829003018186803b158015612d0657600080fd5b505afa158015612d1a573d6000803e3d6000fd5b505050506040513d601f19601f82011682018060405250810190612d3e9190617e96565b6001600160a01b03161415612d655760405162461bcd60e51b8152600401610d8590619291565b60215460408051630855d15160e01b815290516000926001600160a01b031691630855d151916004808301926020929190829003018186803b158015612daa57600080fd5b505afa158015612dbe573d6000803e3d6000fd5b505050506040513d601f19601f82011682018060405250810190612de29190617e96565b6001600160a01b03161415612e095760405162461bcd60e51b8152600401610d8590618fbd565b602154604080516304e76c8f60e01b815290516000926001600160a01b0316916304e76c8f916004808301926020929190829003018186803b158015612e4e57600080fd5b505afa158015612e62573d6000803e3d6000fd5b505050506040513d601f19601f82011682018060405250810190612e869190617e96565b6001600160a01b03161415612ead5760405162461bcd60e51b8152600401610d85906188a2565b612eb6816110a3565b80612ed057506000818152600b6020526040902060030154155b612eec5760405162461bcd60e51b8152600401610d8590618d95565b6000818152600b6020526040902060050154610100900460ff1615612f235760405162461bcd60e51b8152600401610d8590619029565b6000818152600f6020908152604080832080548251818502810185019093528083529192909190830182828015612f8357602002820191906000526020600020905b81546001600160a01b03168152600190910190602001808311612f65575b50505050509050600081516001600160401b03811115612fb357634e487b7160e01b600052604160045260246000fd5b604051908082528060200260200182016040528015612fe657816020015b6060815260200190600190039081612fd15790505b509050600082516001600160401b0381111561301257634e487b7160e01b600052604160045260246000fd5b60405190808252806020026020018201604052801561303b578160200160208202803683370190505b50905060005b83518110156131be57600084828151811061306c57634e487b7160e01b600052603260045260246000fd5b60209081029190910181015160008881526004835260408082206001600160a01b03841683529093529182208054919350906130a790619763565b80601f01602080910402602001604051908101604052809291908181526020018280546130d390619763565b80156131205780601f106130f557610100808354040283529160200191613120565b820191906000526020600020905b81548152906001019060200180831161310357829003601f168201915b50505060008a81526005602090815260408083206001600160a01b03891684529091529020548851939450928492508891508690811061317057634e487b7160e01b600052603260045260246000fd5b60200260200101819052508085858151811061319c57634e487b7160e01b600052603260045260246000fd5b60200260200101818152505050505080806131b69061979e565b915050613041565b5060006132696064602160009054906101000a90046001600160a01b03166001600160a01b031663ea19733c6040518163ffffffff1660e01b815260040160206040518083038186803b15801561321457600080fd5b505afa158015613228573d6000803e3d6000fd5b505050506040513d601f19601f8201168201806040525081019061324c91906181a4565b865161325891906196fd565b61326291906196e9565b600161747d565b905060008360008151811061328e57634e487b7160e01b600052603260045260246000fd5b6020026020010151905060005b8451811015613384576000805b8651811015613339576133098784815181106132d457634e487b7160e01b600052603260045260246000fd5b60200260200101518883815181106132fc57634e487b7160e01b600052603260045260246000fd5b60200260200101516146f2565b15613327576133196001836196d1565b915084821061332757613339565b806133318161979e565b9150506132a8565b508381106133715785828151811061336157634e487b7160e01b600052603260045260246000fd5b6020026020010151925050613384565b508061337c8161979e565b91505061329b565b506000836000815181106133a857634e487b7160e01b600052603260045260246000fd5b6020026020010151905060005b8451811015613497576000805b865181101561344c578681815181106133eb57634e487b7160e01b600052603260045260246000fd5b602002602001015187848151811061341357634e487b7160e01b600052603260045260246000fd5b6020026020010151141561343a5761342c6001836196d1565b915085821061343a5761344c565b806134448161979e565b9150506133c2565b508481106134845785828151811061347457634e487b7160e01b600052603260045260246000fd5b6020026020010151925050613497565b508061348f8161979e565b9150506133b5565b5060005b8651811015613c4c5760008782815181106134c657634e487b7160e01b600052603260045260246000fd5b6020908102919091018101516001600160a01b03811660009081526002835260408082208d8352909352919091205490915060ff1661350482616fd0565b6001600160a01b0382166000908152600c602052604090208115613b2d576001600160a01b0383166000818152600c6020908152604080832060028101805460ff191660011790556003018390558e835260048252808320938352929052908120805461357090619763565b80601f016020809104026020016040519081016040528092919081815260200182805461359c90619763565b80156135e95780601f106135be576101008083540402835291602001916135e9565b820191906000526020600020905b8154815290600101906020018083116135cc57829003601f168201915b505050505090506135fa81886146f2565b15613a8e5760215460408051632a49798160e11b815290516000926001600160a01b031691635492f302916004808301926020929190829003018186803b15801561364457600080fd5b505afa158015613658573d6000803e3d6000fd5b505050506040513d601f19601f8201168201806040525081019061367c9190617e96565b90506000602160009054906101000a90046001600160a01b03166001600160a01b0316630855d1516040518163ffffffff1660e01b815260040160206040518083038186803b1580156136ce57600080fd5b505afa1580156136e2573d6000803e3d6000fd5b505050506040513d601f19601f820116820180604052508101906137069190617e96565b90506000602160009054906101000a90046001600160a01b03166001600160a01b03166304e76c8f6040518163ffffffff1660e01b815260040160206040518083038186803b15801561375857600080fd5b505afa15801561376c573d6000803e3d6000fd5b505050506040513d601f19601f820116820180604052508101906137909190617e96565b90506000836001600160a01b03166311815086896040518263ffffffff1660e01b81526004016137c09190618414565b60206040518083038186803b1580156137d857600080fd5b505afa1580156137ec573d6000803e3d6000fd5b505050506040513d601f19601f820116820180604052508101906138109190617e96565b9050826001600160a01b0316631b6d990a8b602160009054906101000a90046001600160a01b03166001600160a01b03166349b467876040518163ffffffff1660e01b815260040160206040518083038186803b15801561387057600080fd5b505afa158015613884573d6000803e3d6000fd5b505050506040513d601f19601f820116820180604052508101906138a891906181a4565b6138b291906196fd565b836040518363ffffffff1660e01b81526004016138d09291906195b1565b602060405180830381600087803b1580156138ea57600080fd5b505af11580156138fe573d6000803e3d6000fd5b505050506040513d601f19601f820116820180604052508101906139229190617fb7565b61393e5760405162461bcd60e51b8152600401610d8590618a03565b816001600160a01b031663e0ca50948b602160009054906101000a90046001600160a01b03166001600160a01b031663893b2a766040518163ffffffff1660e01b815260040160206040518083038186803b15801561399c57600080fd5b505afa1580156139b0573d6000803e3d6000fd5b505050506040513d601f19601f820116820180604052508101906139d491906181a4565b6139de91906196fd565b836040518363ffffffff1660e01b81526004016139fc92919061959a565b602060405180830381600087803b158015613a1657600080fd5b505af1158015613a2a573d6000803e3d6000fd5b505050506040513d601f19601f82011682018060405250810190613a4e9190617fb7565b613a6a5760405162461bcd60e51b8152600401610d8590618742565b6001866007016000828254613a7f91906196d1565b90915550613aa9945050505050565b6001826008016000828254613aa391906196d1565b90915550505b600582015460ff1615613b2757613abf846173f7565b158015613ad657506005820154610100900460ff16155b15613b2757601180546001810182556000919091527f31ecc21a745e3968a04e9570e4425bc18fa8019c68028196b546d1669c200c680180546001600160a01b0319166001600160a01b0386161790555b50613c36565b6005810154610100900460ff1680613b43575081155b15613c36576001600160a01b0383166000908152600c60205260408120600301805460019290613b749084906196d1565b909155505060215460408051634fda48fb60e11b815290516001600160a01b0390921691639fb491f691600480820192602092909190829003018186803b158015613bbe57600080fd5b505afa158015613bd2573d6000803e3d6000fd5b505050506040513d601f19601f82011682018060405250810190613bf691906181a4565b6001600160a01b0384166000908152600c60205260409020600301541415613c365760058101805460ff19169055613c2d83616e78565b613c3683616fd0565b5050508080613c449061979e565b91505061349b565b506000878152600b6020908152604090912060058101805461ff0019166101001790558351613c8392600a90920191850190617bfb565b506000878152600b60205260409020600401819055613ca187611e93565b15613ce3576000878152600b60208190526040822001805460ff19166001908117909155601c805491929091613cd89084906196d1565b90915550613d189050565b6000878152600b60208190526040822001805460ff19166002179055601d805460019290613d129084906196d1565b90915550505b6001601b6000828254613d2b91906196d1565b90915550506000878152600b6020526040812060020154601e805491929091613d559084906196d1565b90915550506000878152600b6020526040812060030154601f805491929091613d7f9084906196d1565b90915550506000878152600a602052604090819020600181015491516001600160a01b03909216917f6a9a9e78dafe499bae230d4a96b1d1e18a8a480171837adca5cf402673be625091613dd2916185cb565b60405180910390a250505050505050565b60006110e582610b7b84611473565b6001600160a01b03166000908152600d602052604090205490565b613e15616e74565b6001600160a01b0316613e266143d8565b6001600160a01b031614613e4c5760405162461bcd60e51b8152600401610d8590618d29565b613e566000617509565b565b6000613e638261666b565b613e7f5760405162461bcd60e51b8152600401610d8590618ff2565b506000908152600b602052604090206007015490565b60125490565b6060613ea68261666b565b613ec25760405162461bcd60e51b8152600401610d8590618ff2565b6000828152600f6020908152604080832080548251818502810185019093528083529192909190830182828015613f2257602002820191906000526020600020905b81546001600160a01b03168152600190910190602001808311613f04575b50505050509050600081516001600160401b03811115613f5257634e487b7160e01b600052604160045260246000fd5b604051908082528060200260200182016040528015613f8557816020015b6060815260200190600190039081613f705790505b50905060005b8251811015610ef157600760008681526020019081526020016000206000848381518110613fc957634e487b7160e01b600052603260045260246000fd5b60200260200101516001600160a01b03166001600160a01b031681526020019081526020016000208054613ffc90619763565b80601f016020809104026020016040519081016040528092919081815260200182805461402890619763565b80156140755780601f1061404a57610100808354040283529160200191614075565b820191906000526020600020905b81548152906001019060200180831161405857829003601f168201915b505050505082828151811061409a57634e487b7160e01b600052603260045260246000fd5b602002602001018190525080806140b09061979e565b915050613f8b565b6140c0616e74565b6001600160a01b03166140d16143d8565b6001600160a01b0316146140f75760405162461bcd60e51b8152600401610d8590618d29565b601a55565b600073__$8f50167b5a72402e4f72ad916e88419f4b$__635aceba6f6009614124868661464b565b6040518363ffffffff1660e01b81526004016141419291906193cc565b60206040518083038186803b15801561415957600080fd5b505af415801561416d573d6000803e3d6000fd5b505050506040513d601f19601f820116820180604052508101906113cf91906181a4565b6012546011546000916141a3916196d1565b905090565b60006141b38261666b565b6141cf5760405162461bcd60e51b8152600401610d8590618ff2565b506001600160a01b03919091166000908152600160209081526040808320938352929052205460ff1690565b600b60205260009081526040902080546001820154600283015460038401546004850154600586015460068701546007880154600889015460098a0154600a8b0180549a9b999a98999798969760ff80881698610100890482169862010000900490911696959493929061426e90619763565b80601f016020809104026020016040519081016040528092919081815260200182805461429a90619763565b80156142e75780601f106142bc576101008083540402835291602001916142e7565b820191906000526020600020905b8154815290600101906020018083116142ca57829003601f168201915b505050600b909301549192505060ff168e565b6000806143078487614e3c565b831015905060006143188587614e3c565b84111580614324575085155b90508180156143305750805b979650505050505050565b6012818154811061143c57600080fd5b60185481565b60066020908152600092835260408084209091529082529020805461101c90619763565b600c602052600090815260409020805460018201546002830154600384015460048501546005860154600687015460078801546008909801546001600160a01b0390971697959660ff95861696949593948385169461010090940490931692908a565b6000546001600160a01b031690565b600f602052816000526040600020818154811061440357600080fd5b6000918252602090912001546001600160a01b03169150829050565b6000818152600b60205260408120600981015460089091015482916113cf916196d1565b60016000828152600b60208190526040909120015460ff16600381111561447a57634e487b7160e01b600052602160045260246000fd5b146144975760405162461bcd60e51b8152600401610d85906186ac565b33600090815260086020526040908190209051631753509f60e21b815273__$f254a8095384b8dfa1dc07d6532ff7186d$__91635d4d427c916144df91908590600401618406565b60206040518083038186803b1580156144f757600080fd5b505af415801561450b573d6000803e3d6000fd5b505050506040513d601f19601f8201168201806040525081019061452f9190617fb7565b61454b5760405162461bcd60e51b8152600401610d8590618b66565b336000908152600860205260409081902090516378f3b83560e11b815273__$f254a8095384b8dfa1dc07d6532ff7186d$__9163f1e7706a9161459391908590600401618406565b60006040518083038186803b1580156145ab57600080fd5b505af41580156145bf573d6000803e3d6000fd5b50506040513392508391507f402507661c8c8cb90e0a796450b8bdd28b6c516f05279c0cd29e84c344e1699a90600090a350565b601c5481565b60005b81518110156146475761463582828151811061462857634e487b7160e01b600052603260045260246000fd5b6020026020010151614443565b8061463f8161979e565b9150506145fc565b5050565b600082826040516020016146609291906183bf565b60405160208183030381529060405280519060200120905092915050565b601c5490565b601d5481565b60006146958261666b565b6146b15760405162461bcd60e51b8152600401610d8590618ff2565b6000828152600b60205260409020600601546146cc906153c3565b1580156110e55750506000908152600b6020526040902060020154151590565b60165490565b60008160405160200161470591906183ea565b604051602081830303815290604052805190602001208360405160200161472c91906183ea565b604051602081830303815290604052805190602001201415614750575060016110e5565b5060006110e5565b60006147638261666b565b61477f5760405162461bcd60e51b8152600401610d8590618ff2565b506001600160a01b03919091166000908152600260209081526040808320938352929052205460ff1690565b60008042416040516020016147c091906183a2565b6040516020818303038152906040528051906020012060001c6147e391906196e9565b446147ec611456565b6040516020016147fc91906183e1565b60408051601f19818403018152919052805160209091012061481e90426196d1565b61482891906196d1565b61483291906196d1565b60405160200161484291906183e1565b60408051601f19818403018152919052805160209091012091505090565b6015546001600160a01b031681565b600073__$8f50167b5a72402e4f72ad916e88419f4b$__635aceba6f6009614897868661464b565b6040518363ffffffff1660e01b815260040161414192919061939c565b6013818154811061143c57600080fd5b6001600160a01b038082166000908152600c6020908152604080832081516101408101835281549095168552600181015492850192909252600282015460ff90811615801592860183905260038401546060870152600484015460808701526005840154808316151560a088015261010090819004909216151560c0870152600684015460e087015260078401549186019190915260089092015461012085015291928392909190614980575061497e81602001516110a3565b155b1561498a57600191505b5092915050565b6060600082116149b35760405162461bcd60e51b8152600401610d8590618d04565b6000416040516020016149c691906183a2565b6040516020818303038152906040528051906020012060001c6149e7611456565b6040516020016149f791906183e1565b60408051601f198184030181529190528051602090910120614a1990426196d1565b614a2391906196d1565b604051602001614a3391906183e1565b6040516020818303038152906040528051906020012060001c90506000846001600160401b03811115614a7657634e487b7160e01b600052604160045260246000fd5b604051908082528060200260200182016040528015614a9f578160200160208202803683370190505b5090506000805b86821015614ba057600086614abf63017efeeb8761971c565b83604051602001614ad1929190618406565b6040516020818303038152906040528051906020012060001c614af491906197b9565b90506000805b84811015614b4c5782868281518110614b2357634e487b7160e01b600052603260045260246000fd5b60200260200101511415614b3a5760019150614b4c565b80614b448161979e565b915050614afa565b5080614b8c5781858581518110614b7357634e487b7160e01b600052603260045260246000fd5b6020908102919091010152614b898460016196d1565b93505b614b978360016196d1565b92505050614aa6565b509095945050505050565b6000614bb6836110a3565b614bd25760405162461bcd60e51b8152600401610d85906191ea565b6001600160a01b038416600090815260026020908152604080832086845290915290205460ff16614c155760405162461bcd60e51b8152600401610d8590618bc3565b6000614c2084611e93565b614c2b576000614c2e565b60015b60ff16905060008184604051602001614c48929190618406565b6040516020818303038152906040528051906020012090506000614c6c878761486f565b9050808214614c8d5760405162461bcd60e51b8152600401610d8590618e91565b6143308787614e3c565b6060600082118015614ca95750818311155b8015614cb6575060018310155b614cd25760405162461bcd60e51b8152600401610d85906187d8565b6000826001600160401b03811115614cfa57634e487b7160e01b600052604160045260246000fd5b604051908082528060200260200182016040528015614d23578160200160208202803683370190505b5090506000846001600160401b03811115614d4e57634e487b7160e01b600052604160045260246000fd5b604051908082528060200260200182016040528015614d77578160200160208202803683370190505b5090506000614d8d614d8884617559565b6175af565b905060005b86811015614ba057818181518110614dba57634e487b7160e01b600052603260045260246000fd5b6020026020010151838281518110614de257634e487b7160e01b600052603260045260246000fd5b602090810291909101015280614df78161979e565b915050614d92565b6000614e0a8261666b565b614e265760405162461bcd60e51b8152600401610d8590618ff2565b506000908152600b602052604090206006015490565b600073__$8f50167b5a72402e4f72ad916e88419f4b$__635aceba6f6009614e64868661464b565b6040518363ffffffff1660e01b8152600401614141929190619418565b6000828152600f60209081526040808320805482518185028101850190935280835284938493929190830182828015614ee357602002820191906000526020600020905b81546001600160a01b03168152600190910190602001808311614ec5575b5050505050905060005b8151811015614f5257846001600160a01b0316828281518110614f2057634e487b7160e01b600052603260045260246000fd5b60200260200101516001600160a01b03161415614f405760019250614f52565b80614f4a8161979e565b915050614eed565b5090949350505050565b600260209081526000928352604080842090915290825290205460ff1681565b60175481565b601a5481565b6060818310614fa95760405162461bcd60e51b8152600401610d859061934a565b614fb28261666b565b614fce5760405162461bcd60e51b8152600401610d8590618aa0565b6000614fda848461971c565b614fe59060016196d1565b90506000816001600160401b0381111561500f57634e487b7160e01b600052604160045260246000fd5b60405190808252806020026020018201604052801561504257816020015b606081526020019060019003908161502d5790505b509050845b848110156151645760016000828152600b60208190526040909120015460ff16600381111561508657634e487b7160e01b600052602160045260246000fd5b1415615152576000818152600b60205260409020600a0180546150a890619763565b80601f01602080910402602001604051908101604052809291908181526020018280546150d490619763565b80156151215780601f106150f657610100808354040283529160200191615121565b820191906000526020600020905b81548152906001019060200180831161510457829003601f168201915b505050505082828151811061514657634e487b7160e01b600052603260045260246000fd5b60200260200101819052505b8061515c8161979e565b915050615047565b50949350505050565b60606151788261666b565b6151945760405162461bcd60e51b8152600401610d8590618ff2565b6000828152600f60209081526040808320805482518185028101850190935280835291929091908301828280156151f457602002820191906000526020600020905b81546001600160a01b031681526001909101906020018083116151d6575b50505050509050600081516001600160401b0381111561522457634e487b7160e01b600052604160045260246000fd5b60405190808252806020026020018201604052801561525757816020015b60608152602001906001900390816152425790505b50905060005b8251811015610ef15760046000868152602001908152602001600020600084838151811061529b57634e487b7160e01b600052603260045260246000fd5b60200260200101516001600160a01b03166001600160a01b0316815260200190815260200160002080546152ce90619763565b80601f01602080910402602001604051908101604052809291908181526020018280546152fa90619763565b80156153475780601f1061531c57610100808354040283529160200191615347565b820191906000526020600020905b81548152906001019060200180831161532a57829003601f168201915b505050505082828151811061536c57634e487b7160e01b600052603260045260246000fd5b602002602001018190525080806153829061979e565b91505061525d565b600e602052816000526040600020818154811061440357600080fd5b600360209081526000928352604080842090915290825290205481565b421190565b6153d0617d0a565b6153d98261666b565b6153f55760405162461bcd60e51b8152600401610d8590618ff2565b6000828152600b602090815260409182902082516101c081018452815481526001820154928101929092526002810154928201929092526003820154606082015260048201546080820152600582015460ff808216151560a08401526101008083048216151560c08501526201000090920416151560e0830152600683015490820152600782015461012082015260088201546101408201526009820154610160820152600a82018054919291610180840191906154b290619763565b80601f01602080910402602001604051908101604052809291908181526020018280546154de90619763565b801561552b5780601f106155005761010080835404028352916020019161552b565b820191906000526020600020905b81548152906001019060200180831161550e57829003601f168201915b5050509183525050600b82015460209091019060ff16600381111561239c57634e487b7160e01b600052602160045260246000fd5b615568617100565b6013541561557857615578617756565b61558061780a565b60005b602160009054906101000a90046001600160a01b03166001600160a01b0316637d630cb06040518163ffffffff1660e01b815260040160206040518083038186803b1580156155d157600080fd5b505afa1580156155e5573d6000803e3d6000fd5b505050506040513d601f19601f8201168201806040525081019061560991906181a4565b811015611236576019546000908152600b602052604081206005015462010000900460ff161515600114801561566257506156456019546110a3565b8061566257506019546000908152600b6020526040902060030154155b1561568757615672601954612cc1565b60195461568090600161748d565b6019555060015b601a546000908152600b602052604090206005015462010000900460ff16151560011480159061573e5750602160009054906101000a90046001600160a01b03166001600160a01b031663995adbdd6040518163ffffffff1660e01b815260040160206040518083038186803b15801561570057600080fd5b505afa158015615714573d6000803e3d6000fd5b505050506040513d601f19601f8201168201806040525081019061573891906181a4565b60115410155b8015615753575061574d6147ab565b60145414155b80156157735750601a546000908152600b602052604090206005015460ff165b15615784576157806126b1565b5060015b8061578f5750611236565b508061579a8161979e565b915050615583565b336000908152600d602052604090205490565b6060600082116157d75760405162461bcd60e51b8152600401610d8590618c0e565b6000826001600160401b038111156157ff57634e487b7160e01b600052604160045260246000fd5b604051908082528060200260200182016040528015615828578160200160208202803683370190505b5090506000615839614d8883617559565b949350505050565b606061584c8261666b565b6158685760405162461bcd60e51b8152600401610d8590618ff2565b6000828152600b60205260409020600a01805461588490619763565b80601f01602080910402602001604051908101604052809291908181526020018280546158b090619763565b80156158fd5780601f106158d2576101008083540402835291602001916158fd565b820191906000526020600020905b8154815290600101906020018083116158e057829003601f168201915b50505050509050919050565b6001600160a01b03166000908152600c602052604090206005015460ff1690565b600061594e61593833613de3565b336000908152600d6020526040902054906173eb565b9050818110156159705760405162461bcd60e51b8152600401610d8590618f76565b6021546040805163ca64f9e760e01b815290516000926001600160a01b03169163ca64f9e7916004808301926020929190829003018186803b1580156159b557600080fd5b505afa1580156159c9573d6000803e3d6000fd5b505050506040513d601f19601f820116820180604052508101906159ed9190617e96565b604051630895993360e11b81529091506001600160a01b0382169063112b326690615a1e908690339060040161959a565b602060405180830381600087803b158015615a3857600080fd5b505af1158015615a4c573d6000803e3d6000fd5b505050506040513d601f19601f82011682018060405250810190615a709190617fb7565b615a8c5760405162461bcd60e51b8152600401610d8590619234565b336000908152600d602052604081208054859290615aab90849061971c565b909155505060405133907ffaeb7dbb9992397d26ea1944efd40c80b40f702faf69b46c67ad10aba68ccb7990615ae29086906183e1565b60405180910390a2505050565b6060615afa8261666b565b615b165760405162461bcd60e51b8152600401610d8590618d5e565b600082601954615b26919061971c565b615b319060016196d1565b90506000816001600160401b03811115615b5b57634e487b7160e01b600052604160045260246000fd5b604051908082528060200260200182016040528015615b8e57816020015b6060815260200190600190039081615b795790505b509050835b601954811015610ef15760016000828152600b60208190526040909120015460ff166003811115615bd457634e487b7160e01b600052602160045260246000fd5b1415615ca0576000818152600b60205260409020600a018054615bf690619763565b80601f0160208091040260200160405190810160405280929190818152602001828054615c2290619763565b8015615c6f5780601f10615c4457610100808354040283529160200191615c6f565b820191906000526020600020905b815481529060010190602001808311615c5257829003601f168201915b5050505050828281518110615c9457634e487b7160e01b600052603260045260246000fd5b60200260200101819052505b80615caa8161979e565b915050615b93565b601f5481565b6060615cc38261666b565b615cdf5760405162461bcd60e51b8152600401610d8590618ff2565b6000828152600b6020908152604080832081516101c081018352815481526001820154938101939093526002810154918301919091526003810154606083015260048101546080830152600581015460ff808216151560a08501526101008083048216151560c08601526201000090920416151560e0840152600682015490830152600781015461012083015260088101546101408301526009810154610160830152600a8101805461018084019190615d9890619763565b80601f0160208091040260200160405190810160405280929190818152602001828054615dc490619763565b8015615e115780601f10615de657610100808354040283529160200191615e11565b820191906000526020600020905b815481529060010190602001808311615df457829003601f168201915b5050509183525050600b82015460209091019060ff166003811115615e4657634e487b7160e01b600052602160045260246000fd5b6003811115615e6557634e487b7160e01b600052602160045260246000fd5b90525060208101519091506000816001600160401b03811115615e9857634e487b7160e01b600052604160045260246000fd5b604051908082528060200260200182016040528015615ecb57816020015b6060815260200190600190039081615eb65790505b50905060005b82811015615164578351600090615ee99083906196d1565b6000818152600a6020526040812080549293509091615f0790619763565b80601f0160208091040260200160405190810160405280929190818152602001828054615f3390619763565b8015615f805780601f10615f5557610100808354040283529160200191615f80565b820191906000526020600020905b815481529060010190602001808311615f6357829003601f168201915b5050505050905080848481518110615fa857634e487b7160e01b600052603260045260246000fd5b602002602001018190525050508080615fc09061979e565b915050615ed1565b60195481565b601b5481565b615fdc616e74565b6001600160a01b0316615fed6143d8565b6001600160a01b0316146160135760405162461bcd60e51b8152600401610d8590618d29565b6001600160a01b0381166160395760405162461bcd60e51b8152600401610d8590618792565b61123681617509565b600082826040516020016146609291906185a9565b601b5490565b616065617100565b336000908152600c602090815260409182902060215483516398a54e2b60e01b8152935191936001600160a01b03909116926398a54e2b92600480840193829003018186803b1580156160b757600080fd5b505afa1580156160cb573d6000803e3d6000fd5b505050506040513d601f19601f820116820180604052508101906160ef91906181a4565b6012546011546160ff91906196d1565b1061611c5760405162461bcd60e51b8152600401610d85906190b3565b600581015460ff16156161415760405162461bcd60e51b8152600401610d8590618675565b60215460408051632a49798160e11b815290516000926001600160a01b031691635492f302916004808301926020929190829003018186803b15801561618657600080fd5b505afa15801561619a573d6000803e3d6000fd5b505050506040513d601f19601f820116820180604052508101906161be9190617e96565b6001600160a01b031614156161e55760405162461bcd60e51b8152600401610d8590619291565b602160009054906101000a90046001600160a01b03166001600160a01b0316639fb491f66040518163ffffffff1660e01b815260040160206040518083038186803b15801561623357600080fd5b505afa158015616247573d6000803e3d6000fd5b505050506040513d601f19601f8201168201806040525081019061626b91906181a4565b8160030154101580156163105750602160009054906101000a90046001600160a01b03166001600160a01b0316630f1f0ffe6040518163ffffffff1660e01b815260040160206040518083038186803b1580156162c757600080fd5b505afa1580156162db573d6000803e3d6000fd5b505050506040513d601f19601f820116820180604052508101906162ff91906181a4565b600682015461630e904261971c565b105b1561632d5760405162461bcd60e51b8152600401610d8590619152565b6021546040805163b1562f6760e01b815290516000926001600160a01b03169163b1562f67916004808301926020929190829003018186803b15801561637257600080fd5b505afa158015616386573d6000803e3d6000fd5b505050506040513d601f19601f820116820180604052508101906163aa91906181a4565b90506000602160009054906101000a90046001600160a01b03166001600160a01b0316635492f3026040518163ffffffff1660e01b815260040160206040518083038186803b1580156163fc57600080fd5b505afa158015616410573d6000803e3d6000fd5b505050506040513d601f19601f820116820180604052508101906164349190617e96565b90506000816001600160a01b031663f25e9ed2336040518263ffffffff1660e01b81526004016164649190618414565b60206040518083038186803b15801561647c57600080fd5b505afa158015616490573d6000803e3d6000fd5b505050506040513d601f19601f820116820180604052508101906164b49190617e96565b336000908152600d602052604090205490915083111561655d576001600160a01b03811615616534576001600160a01b0381166000908152600d602052604090205483111561652f576001600160a01b0381166000908152600d60205260408120546165219085906173eb565b905061652d81836179d3565b505b61655d565b336000908152600d602052604081205461654f9085906173eb565b905061655b81336179d3565b505b336000908152600d602052604090205483111561658c5760405162461bcd60e51b8152600401610d8590618afd565b616595336173f7565b6165dc57601180546001810182556000919091527f31ecc21a745e3968a04e9570e4425bc18fa8019c68028196b546d1669c200c680180546001600160a01b031916331790555b8354336001600160a01b031990911617845560058401805460ff1916600190811761ff001916909155426006860155600060038601819055601b80549091906166269084906196d1565b909155505060405133907f439d77b7534ec3108fc6143bd4fbabde0b9f2bb54f7b0730d1f70dd2135b765f9061665d9042906183e1565b60405180910390a250505050565b601854101590565b336000908152600c602052604090206005015460ff1690565b601d5490565b61669a617100565b6166a38561468a565b6166bf5760405162461bcd60e51b8152600401610d859061886b565b33600090815260016020908152604080832088845290915290205460ff16156166fa5760405162461bcd60e51b8152600401610d859061906a565b6167048533614e81565b6167205760405162461bcd60e51b8152600401610d8590618912565b6021546040805163b1562f6760e01b815290516000926001600160a01b03169163b1562f67916004808301926020929190829003018186803b15801561676557600080fd5b505afa158015616779573d6000803e3d6000fd5b505050506040513d601f19601f8201168201806040525081019061679d91906181a4565b90506000602160009054906101000a90046001600160a01b03166001600160a01b0316635492f3026040518163ffffffff1660e01b815260040160206040518083038186803b1580156167ef57600080fd5b505afa158015616803573d6000803e3d6000fd5b505050506040513d601f19601f820116820180604052508101906168279190617e96565b90506000816001600160a01b031663f25e9ed2336040518263ffffffff1660e01b81526004016168579190618414565b60206040518083038186803b15801561686f57600080fd5b505afa158015616883573d6000803e3d6000fd5b505050506040513d601f19601f820116820180604052508101906168a79190617e96565b336000908152600d6020526040902054909150831115616950576001600160a01b03811615616927576001600160a01b0381166000908152600d6020526040902054831115616922576001600160a01b0381166000908152600d60205260408120546169149085906173eb565b905061692081836179d3565b505b616950565b336000908152600d60205260408120546169429085906173eb565b905061694e81336179d3565b505b336000908152600d602052604090205483111561697f5760405162461bcd60e51b8152600401610d85906190f5565b6000336000908152600860205260408082209051632f7cc11d60e21b815273__$f254a8095384b8dfa1dc07d6532ff7186d$__9163bdf30474916169c891908690600401618406565b60206040518083038186803b1580156169e057600080fd5b505af41580156169f4573d6000803e3d6000fd5b505050506040513d601f19601f82011682018060405250810190616a1891906181a4565b905089811415616abd5733600090815260086020526040908190209051632f7cc11d60e21b815273__$f254a8095384b8dfa1dc07d6532ff7186d$__9163bdf3047491616a6a91908e90600401618406565b60206040518083038186803b158015616a8257600080fd5b505af4158015616a96573d6000803e3d6000fd5b505050506040513d601f19601f82011682018060405250810190616aba91906181a4565b90505b616ac9828233886142fa565b616ae55760405162461bcd60e51b8152600401610d8590618c2d565b3360009081526008602052604090819020905163681aae8360e11b815273__$f254a8095384b8dfa1dc07d6532ff7186d$__9163d0355d0691616b31919086908f908790600401619454565b60006040518083038186803b158015616b4957600080fd5b505af4158015616b5d573d6000803e3d6000fd5b505050506000616b6d338c61464b565b604051625571cf60e61b815290915073__$8f50167b5a72402e4f72ad916e88419f4b$__9063155c73c090616bab9060099085908b90600401619436565b60006040518083038186803b158015616bc357600080fd5b505af4158015616bd7573d6000803e3d6000fd5b5050604051625571cf60e61b815273__$8f50167b5a72402e4f72ad916e88419f4b$__925063155c73c09150616c169060099085908f906004016193ea565b60006040518083038186803b158015616c2e57600080fd5b505af4158015616c42573d6000803e3d6000fd5b50505060008c8152600560209081526040808320338085529083528184208e90558f84526006835281842090845282529091208a51616c86935090918b0190617bfb565b5060008b815260076020908152604080832033845282529091208851616cae928a0190617bfb565b50336000908152600c602090815260408083208e8452600b90925290912060020154616cdb9060016173eb565b600b60008e8152602001908152602001600020600201819055504281600401819055506001806000336001600160a01b03166001600160a01b0316815260200190815260200160002060008e815260200190815260200160002060006101000a81548160ff0219169083151502179055506001601b6000828254616d5f91906196d1565b909155505060405133908d907f8d73f267e1554343d4caa94b60fcb1cb8ac16fa08c16d880dccfebc7c7b7eda390616d98908b906183e1565b60405180910390a3505050505050505050505050565b6020546001600160a01b031681565b6001600160a01b039081166000908152600c6020908152604091829020825161014081018452815490941684526001810154918401829052600281015460ff90811615159385019390935260038101546060850152600481015460808501526005810154808416151560a086015261010090819004909316151560c0850152600681015460e08501526007810154928401929092526008909101546101209092019190915290565b6021546001600160a01b031681565b3390565b60008060005b601154811015616eec57836001600160a01b031660118281548110616eb357634e487b7160e01b600052603260045260246000fd5b6000918252602090912001546001600160a01b03161415616eda5760019150809250616eec565b80616ee48161979e565b915050616e7e565b508015616fcb5760118054616f039060019061971c565b81548110616f2157634e487b7160e01b600052603260045260246000fd5b600091825260209091200154601180546001600160a01b039092169184908110616f5b57634e487b7160e01b600052603260045260246000fd5b9060005260206000200160006101000a8154816001600160a01b0302191690836001600160a01b031602179055506011805480616fa857634e487b7160e01b600052603160045260246000fd5b600082815260209020810160001990810180546001600160a01b03191690550190555b505050565b60008060005b60125481101561704457836001600160a01b03166012828154811061700b57634e487b7160e01b600052603260045260246000fd5b6000918252602090912001546001600160a01b031614156170325760019150809250617044565b8061703c8161979e565b915050616fd6565b508015616fcb576012805461705b9060019061971c565b8154811061707957634e487b7160e01b600052603260045260246000fd5b600091825260209091200154601280546001600160a01b0390921691849081106170b357634e487b7160e01b600052603260045260246000fd5b9060005260206000200160006101000a8154816001600160a01b0302191690836001600160a01b031602179055506012805480616fa857634e487b7160e01b600052603160045260246000fd5b60215460408051632abe0d5f60e11b815290516000926001600160a01b03169163557c1abe916004808301926020929190829003018186803b15801561714557600080fd5b505afa925050508015617175575060408051601f3d908101601f1916820190925261717291810190617e96565b60015b6171e6573d8080156171a3576040519150601f19603f3d011682016040523d82523d6000602084013e6171a8565b606091505b507f4b87bbd93ba65ede1e2efeca735d9f7a6720bf7d6db0a8355b17dba5b64e5783816040516171d8919061852b565b60405180910390a1506171e8565b505b602160009054906101000a90046001600160a01b03166001600160a01b031663557c1abe6040518163ffffffff1660e01b815260040160206040518083038186803b15801561723657600080fd5b505afa15801561724a573d6000803e3d6000fd5b505050506040513d601f19601f8201168201806040525081019061726e9190617e96565b90506001600160a01b0381166172965760405162461bcd60e51b8152600401610d859061896f565b6000816001600160a01b0316336040516024016172b39190618414565b60408051601f198184030181529181526020820180516001600160e01b0316631f5ac9c560e11b179052516172e891906183ea565b6000604051808303816000865af19150503d8060008114617325576040519150601f19603f3d011682016040523d82523d6000602084013e61732a565b606091505b505090506000826001600160a01b03163360405160240161734b9190618414565b60408051601f198184030181529181526020820180516001600160e01b03166358563d2160e01b1790525161738091906183ea565b6000604051808303816000865af19150503d80600081146173bd576040519150601f19603f3d011682016040523d82523d6000602084013e6173c2565b606091505b5050905081806173cf5750805b616fcb5760405162461bcd60e51b8152600401610d85906186fd565b60006113cf828461971c565b600080805b60115481101561498a57836001600160a01b03166011828154811061743157634e487b7160e01b600052603260045260246000fd5b6000918252602090912001546001600160a01b03161415617455576001915061498a565b8061745f8161979e565b9150506173fc565b600081831061747657816113cf565b5090919050565b60008183101561747657816113cf565b60006113cf82846196d1565b600080805b60125481101561498a57836001600160a01b0316601282815481106174d357634e487b7160e01b600052603260045260246000fd5b6000918252602090912001546001600160a01b031614156174f7576001915061498a565b806175018161979e565b91505061749e565b600080546001600160a01b038381166001600160a01b0319831681178455604051919092169283917f8be0079c531659141344cd1fd0a4f28419497f9722a3daafe3b4186f6b6457e09190a35050565b805160609060005b818110156175a7578084828151811061758a57634e487b7160e01b600052603260045260246000fd5b60209081029190910101528061759f8161979e565b915050617561565b509192915050565b606060008251116175d25760405162461bcd60e51b8152600401610d85906188e5565b81518060005b8181101561774d576000836175eb6147ab565b87848151811061760b57634e487b7160e01b600052603260045260246000fd5b6020026020010151604051602001617624929190618406565b6040516020818303038152906040528051906020012060001c61764791906197b9565b6176529060016196d1565b905060008661766260018461971c565b8151811061768057634e487b7160e01b600052603260045260246000fd5b6020026020010151905086600186617698919061971c565b815181106176b657634e487b7160e01b600052603260045260246000fd5b6020026020010151876001846176cc919061971c565b815181106176ea57634e487b7160e01b600052603260045260246000fd5b6020908102919091010152808761770260018861971c565b8151811061772057634e487b7160e01b600052603260045260246000fd5b602090810291909101015261773660018661971c565b9450505080806177459061979e565b9150506175d8565b50929392505050565b60005b6013548110156177fd5760006013828154811061778657634e487b7160e01b600052603260045260246000fd5b60009182526020808320909101546001600160a01b0316808352600c909152604090912060058101549192509060ff1680156177c457506001810154155b156177e85760058101805461ffff191690556177df82616e78565b6177e882616fd0565b505080806177f59061979e565b915050617759565b50613e5660136000617d98565b600060175460195461781c919061971c565b9050602160009054906101000a90046001600160a01b03166001600160a01b031663e3115d3c6040518163ffffffff1660e01b815260040160206040518083038186803b15801561786c57600080fd5b505afa158015617880573d6000803e3d6000fd5b505050506040513d601f19601f820116820180604052508101906178a491906181a4565b8111156112365760005b602154604080516307d630cb60e41b81529051617932926001600160a01b031691637d630cb0916004808301926020929190829003018186803b1580156178f457600080fd5b505afa158015617908573d6000803e3d6000fd5b505050506040513d601f19601f8201168201806040525081019061792c91906181a4565b83617467565b811015614647576017546000908152600b60205260408120805460019091015490919061795f90836196d1565b9050815b818110156179865761797481612215565b8061797e8161979e565b915050617963565b506179926017546125fe565b6017546040517f72c2fcc891fe835b86fc8bb9abdc52adf52499c52289b3c49e1461eabea2717590600090a2505080806179cb9061979e565b9150506178ae565b6021546040805163ca64f9e760e01b815290516000926001600160a01b03169163ca64f9e7916004808301926020929190829003018186803b158015617a1857600080fd5b505afa158015617a2c573d6000803e3d6000fd5b505050506040513d601f19601f82011682018060405250810190617a509190617e96565b6001600160a01b03161415617a775760405162461bcd60e51b8152600401610d8590618e4f565b6021546040805163ca64f9e760e01b815290516000926001600160a01b03169163ca64f9e7916004808301926020929190829003018186803b158015617abc57600080fd5b505afa158015617ad0573d6000803e3d6000fd5b505050506040513d601f19601f82011682018060405250810190617af49190617e96565b6040516304ada21f60e21b81529091506001600160a01b038216906312b6887c90617b25908690869060040161959a565b602060405180830381600087803b158015617b3f57600080fd5b505af1158015617b53573d6000803e3d6000fd5b505050506040513d601f19601f82011682018060405250810190617b779190617fb7565b617b935760405162461bcd60e51b8152600401610d85906189a6565b6001600160a01b0382166000908152600d602052604081208054859290617bbb9084906196d1565b92505081905550816001600160a01b03167f5aa5d56140767016c877a5333ac3e1ad31a09051098a8fdf7297c4b64530a94284604051615ae291906183e1565b828054617c0790619763565b90600052602060002090601f016020900481019282617c295760008555617c6f565b82601f10617c4257805160ff1916838001178555617c6f565b82800160010185558215617c6f579182015b82811115617c6f578251825591602001919060010190617c54565b50617c7b929150617db2565b5090565b508054617c8b90619763565b6000825580601f10617c9d5750611236565b601f0160209004906000526020600020908101906112369190617db2565b60405180608001604052806060815260200160006001600160a01b031681526020016000815260200160006003811115617d0557634e487b7160e01b600052602160045260246000fd5b905290565b604051806101c001604052806000815260200160008152602001600081526020016000815260200160008152602001600015158152602001600015158152602001600015158152602001600081526020016000815260200160008152602001600081526020016060815260200160006003811115617d0557634e487b7160e01b600052602160045260246000fd5b508054600082559060005260206000209081019061123691905b5b80821115617c7b5760008155600101617db3565b80518015158114610ef657600080fd5b805160048110610ef657600080fd5b600082601f830112617df6578081fd5b8135617e09617e048261969e565b619675565b818152846020838601011115617e1d578283fd5b816020850160208301379081016020019190915292915050565b600082601f830112617e47578081fd5b8151617e55617e048261969e565b818152846020838601011115617e69578283fd5b615839826020830160208701619733565b600060208284031215617e8b578081fd5b81356113cf8161980f565b600060208284031215617ea7578081fd5b81516113cf8161980f565b60008060408385031215617ec4578081fd5b8235617ecf8161980f565b946020939093013593505050565b600080600060608486031215617ef1578081fd5b8335617efc8161980f565b95602085013595506040909401359392505050565b60006020808385031215617f23578182fd5b82356001600160401b0380821115617f39578384fd5b818501915085601f830112617f4c578384fd5b813581811115617f5e57617f5e6197f9565b8381029150617f6e848301619675565b8181528481019084860184860187018a1015617f88578788fd5b8795505b83861015617faa578035835260019590950194918601918601617f8c565b5098975050505050505050565b600060208284031215617fc8578081fd5b6113cf82617dc7565b60008060408385031215617fe3578182fd5b82356001600160401b0380821115617ff9578384fd5b61800586838701617de6565b9350602085013591508082111561801a578283fd5b5061802785828601617de6565b9150509250929050565b60008060408385031215618043578182fd5b82356001600160401b03811115618058578283fd5b61806485828601617de6565b95602094909401359450505050565b600060208284031215618084578081fd5b81516001600160401b038082111561809a578283fd5b81840191506101c08083870312156180b0578384fd5b6180b981619675565b9050825181526020830151602082015260408301516040820152606083015160608201526180e960808401617dc7565b60808201526180fa60a08401617dc7565b60a082015261810b60c08401617dc7565b60c082015260e08381015190820152610100808401519082015261012080840151908201526101408084015190820152610160808401518381111561814e578586fd5b61815a88828701617e37565b828401525050610180915081830151828201526101a0915061817d828401617dd7565b91810191909152949350505050565b60006020828403121561819d578081fd5b5035919050565b60006020828403121561146c578081fd5b600080604083850312156181c7578182fd5b8235915060208301356181d98161980f565b809150509250929050565b600080600080600060a086880312156181fb578283fd5b85359450602086013593506040860135925060608601356001600160401b0380821115618226578283fd5b61823289838a01617de6565b93506080880135915080821115618247578283fd5b5061825488828901617de6565b9150509295509295909350565b60008060408385031215618273578182fd5b50508035926020909101359150565b60008060008060808587031215618297578182fd5b843593506020850135925060408501356182b08161980f565b9396929550929360600135925050565b600080600080608085870312156182d5578182fd5b843593506020850135925060408501356001600160401b038111156182f8578283fd5b61830487828801617de6565b949793965093946060013593505050565b15159052565b60008151808452618333816020860160208601619733565b601f01601f19169290920160200192915050565b6004811061836557634e487b7160e01b600052602160045260246000fd5b9052565b600a8152690c6dedadad2e890c2e6d60b31b602082015260400190565b60098152686e756d546f6b656e7360b81b602082015260400190565b60609190911b6bffffffffffffffffffffffff1916815260140190565b60609290921b6bffffffffffffffffffffffff19168252601482015260340190565b90815260200190565b600082516183fc818460208701619733565b9190910192915050565b918252602082015260400190565b6001600160a01b0391909116815260200190565b6001600160a01b039a909a168a5260208a0198909852951515604089015260608801949094526080870192909252151560a0860152151560c085015260e08401526101008301526101208201526101400190565b6000602080830181845280855180835260408601915060408482028701019250838701855b828110156184cf57603f198886030184526184bd85835161831b565b945092850192908501906001016184a1565b5092979650505050505050565b6020808252825182820181905260009190848201906040850190845b81811015618514578351835292840192918401916001016184f8565b50909695505050505050565b901515815260200190565b6000602082526113cf602083018461831b565b600060408252618551604083018561831b565b905060018060a01b03831660208301529392505050565b60006080825261857b608083018761831b565b6001600160a01b03861660208401526040830185905290506185a06060830184618347565b95945050505050565b6000604082526185bc604083018561831b565b90508260208301529392505050565b60006020808352818454836002820490506001808316806185ed57607f831692505b85831081141561860b57634e487b7160e01b87526022600452602487fd5b61861783878a016183e1565b81801561862b576001811461863c57618666565b60ff19861682528782019650618666565b6186458b6196c5565b895b8681101561866057815484820152908501908901618647565b83019750505b50949998505050505050505050565b6020808252601c908201527f576f726b657220697320616c7265616479207265676973746572656400000000604082015260600190565b60208082526031908201527f676976656e204461746142617463682073686f756c6420626520415050524f5660408201527011510b08185b99081a5d081a5cc81b9bdd607a1b606082015260800190565b60208082526025908201527f72656365697665722072656a6563746564205f7265747269657665534675656c6040820152640818d85b1b60da1b606082015260800190565b60208082526030908201527f636f756c64206e6f742072657761726420746f6b656e20696e2056616c69646160408201526f3a32a230ba30a130ba31b4161018973160811b606082015260800190565b60208082526026908201527f4f776e61626c653a206e6577206f776e657220697320746865207a65726f206160408201526564647265737360d01b606082015260800190565b60208082526029908201527f6b206f72204e20617265206e6f74204f4b20647572696e672072616e646f6d2060408201526839b2b632b1ba34b7b760b91b606082015260800190565b6020808252602a908201527f4661696c20647572696e6720616c6c6f636174696f6e3a206e6f7420656e6f75604082015269676820776f726b65727360b01b606082015260800190565b6020808252601e908201527f636f6d6d697420706572696f64206e6565647320746f206265206f70656e0000604082015260600190565b60208082526023908201527f5265776172644d616e61676572206973206e756c6c20696e20506172616d657460408201526265727360e81b606082015260800190565b60208082526013908201527205f6d7941727261792e6c656e677468203e203606c1b604082015260600190565b60208082526038908201527f55736572206e6565647320746f20626520616c6c6f636174656420746f20746860408201527f697320626174636820746f20636f6d6d6974206f6e2069740000000000000000606082015260800190565b6020808252601d908201527f734675656c3a206e756c6c2041646472657373204e6f742056616c6964000000604082015260600190565b6020808252603f908201527f436f756c64206e6f74207265717565737420656e6f75676820616c6c6f63617460408201527f6564207374616b652c2072657175657374416c6c6f63617465645374616b6500606082015260800190565b6020808252602e908201527f636f756c64206e6f74207265776172642052455020696e2056616c696461746560408201526d4461746142617463682c20312e6160901b606082015260800190565b6020808252602f908201527f5573657220686173206e6f7420636f6d6d69746564206265666f72652c20746860408201526e1d5cc818d85b89dd081c995d99585b608a1b606082015260800190565b6020808252603b908201527f5f44617461426174636849645f656e64206d7573742065786973743a2074686560408201527f20696e7075742072616e6765206973206e6f7420636f72726563740000000000606082015260800190565b60208082526043908201527f576f726b657220686173206e6f7420656e6f75676820285f6e756d546f6b656e60408201527f732920696e206869732053797374656d5374616b6564546f6b656e42616c616e606082015262031b2960ed1b608082015260a00190565b60208082526039908201527f646c6c4d61703a20646f6573206e6f7420636f696e7461696e205f446174614260408201527f61746368496420666f7220746865206d73672073656e64657200000000000000606082015260800190565b6020808252602b908201527f75736572206d75737420686176652072657665616c656420696e20746869732060408201526a0ced2eccadc4084c2e8c6d60ab1b606082015260800190565b60208082526005908201526404e203e20360dc1b604082015260600190565b6020808252601490820152733737ba1030903b30b634b2103837b9b4ba34b7b760611b604082015260600190565b6020808252603b908201527f43616e277420616c6c6f6361746520776f726b2c207468652063757272656e7460408201527f20626174636820697320616c726561647920616c6c6f63617465640000000000606082015260800190565b6020808252602c908201527f576f726b6572206973206e6f74207265676973746572656420736f2063616e2760408201526b3a103ab73932b3b4b9ba32b960a11b606082015260800190565b6020808252600b908201526a04e5f72616e6765203e20360ac1b604082015260600190565b6020808252818101527f4f776e61626c653a2063616c6c6572206973206e6f7420746865206f776e6572604082015260600190565b6020808252601d908201527f5f44617461426174636849645f7374617274206d757374206578697374000000604082015260600190565b6020808252603a908201527f5f446174614261746368496420686173206e6f7420656e6465642c206f72206e60408201527f6f7420657665727920766f74657273206861766520766f746564000000000000606082015260800190565b6020808252603e908201527f436f756c64206e6f74206d6174636820656e637279707465642068617368202660408201527f20636c6561722068617368207769746820676976656e20696e707574732e0000606082015260800190565b60208082526022908201527f5374616b654d616e61676572206973206e756c6c20696e20506172616d657465604082015261727360f01b606082015260800190565b60208082526029908201527f6765744e756d50617373696e67546f6b656e733a20686173686573206d75737460408201526808189948195c5d585b60ba1b606082015260800190565b60208082526036908201527f43616e277420616c6c6f6361746520776f726b2c207468652063757272656e74604082015275206261746368206973206e6f7420636f6d706c65746560501b606082015260800190565b60208082526026908201527f52657665616c20706572696f64206e6f74206f70656e20666f7220746869732060408201526511185d18525160d21b606082015260800190565b60208082526027908201527f617661696c61626c65546f6b656e732073686f756c64206265203e3d205f6e756040820152666d546f6b656e7360c81b606082015260800190565b6020808252818101527f5265704d616e61676572206973206e756c6c20696e20506172616d6574657273604082015260600190565b60208082526017908201527f5f4461746142617463684964206d757374206578697374000000000000000000604082015260600190565b60208082526021908201527f5f446174614261746368496420697320616c72656164792076616c69646174656040820152601960fa1b606082015260800190565b60208082526029908201527f557365722068617320616c726561647920636f6d6d6974656420746f207468696040820152681cc818985d18da125960ba1b606082015260800190565b60208082526022908201527f4d6178696d756d207265676973746572656420776f726b65727320616c726561604082015261647960f01b606082015260800190565b60208082526037908201527f75736572206d757374206861766520656e6f75676820766f74696e672072696760408201527f68747320616b6120616c6c6f6361746564207374616b65000000000000000000606082015260800190565b6020808252606c908201527f5573657220686173206e6f7420766f746564206d616e792074696d657320696e60408201527f206120726f7720616e64206e6565647320746f2077616974204e4f564f54455f60608201527f524547495354524154494f4e5f574149545f4455524154494f4e20746f20726560808201526b33b4b9ba32b91030b3b0b4b760a11b60a082015260c00190565b6020808252602a908201527f5f446174614261746368496420636865636b696e6720766f7465206d757374206040820152691a185d9948195b99195960b21b606082015260800190565b6020808252603b908201527f436f756c64206e6f74207769746864726177566f74696e67526967687473207460408201527f68726f7567682050726f78795374616b654465616c6c6f636174650000000000606082015260800190565b60208082526024908201527f416464726573734d616e61676572206973206e756c6c20696e20506172616d656040820152637465727360e01b606082015260800190565b6020808252600f908201526e11185d18481b5d5cdd08195e1a5cdd608a1b604082015260600190565b6020808252602c908201527f557365722068617320616c72656164792072657665616c65642c20746875732060408201526b18d85b89dd081c995d99585b60a21b606082015260800190565b60208082526032908201527f5f44617461426174636849645f7374617274206d757374206265203c207468616040820152711b8817d1185d1850985d18da125917d95b9960721b606082015260800190565b9182526020820152606060408201819052600a9082015269636f6d6d6974566f746560b01b608082015260a00190565b60008382528260208301526060604083015261583960608301618369565b60008482528360208301526080604083015261940860808301618369565b9050826060830152949350505050565b60008382528260208301526060604083015261583960608301618386565b60008482528360208301526080604083015261940860808301618386565b93845260208401929092526040830152606082015260800190565b60006020825282516080602084015261948b60a084018261831b565b905060018060a01b0360208501511660408401526040840151606084015260608401516194bb6080850182618347565b509392505050565b60006020825282516020830152602083015160408301526040830151606083015260608301516080830152608083015160a083015260a083015161950a60c0840182618315565b5060c083015161951d60e0840182618315565b5060e083015161010061953281850183618315565b840151610120848101919091528401516101408085019190915284015161016080850191909152840151610180808501919091528401516101c06101a0808601829052919250906195876101e086018461831b565b90860151909250614f5285830182618347565b9182526001600160a01b0316602082015260400190565b9182526001600160a01b031660208201526000604082015260600190565b9283526020830191909152604082015260600190565b60008f82528e60208301528d60408301528c60608301528b60808301528a151560a083015289151560c083015261961f60e083018a618315565b876101008301528661012083015285610140830152846101608301526101c06101808301526196526101c083018561831b565b90506196626101a0830184618347565b9f9e505050505050505050505050505050565b6040518181016001600160401b0381118282101715619696576196966197f9565b604052919050565b60006001600160401b038211156196b7576196b76197f9565b50601f01601f191660200190565b60009081526020902090565b600082198211156196e4576196e46197cd565b500190565b6000826196f8576196f86197e3565b500490565b6000816000190483118215151615619717576197176197cd565b500290565b60008282101561972e5761972e6197cd565b500390565b60005b8381101561974e578181015183820152602001619736565b8381111561975d576000848401525b50505050565b60028104600182168061977757607f821691505b6020821081141561979857634e487b7160e01b600052602260045260246000fd5b50919050565b60006000198214156197b2576197b26197cd565b5060010190565b6000826197c8576197c86197e3565b500690565b634e487b7160e01b600052601160045260246000fd5b634e487b7160e01b600052601260045260246000fd5b634e487b7160e01b600052604160045260246000fd5b6001600160a01b038116811461123657600080fdfea2646970667358221220c3b7e49b1e01981ed0f018316e8b8cbf6f668e9978ce48c9fdd47847f216c9f964736f6c63430008000033",
  "linkReferences": {
    "contracts/worksystems/DataArchiving.sol": {
      "AttributeStore4": [
        {
          "length": 20,
          "start": 16973
        },
        {
          "length": 20,
          "start": 18880
        },
        {
          "length": 20,
          "start": 20365
        },
        {
          "length": 20,
          "start": 27851
        },
        {
          "length": 20,
          "start": 27956
        }
      ],
      "DLL4": [
        {
          "length": 20,
          "start": 5100
        },
        {
          "length": 20,
          "start": 5272
        },
        {
          "length": 20,
          "start": 5607
        },
        {
          "length": 20,
          "start": 6166
        },
        {
          "length": 20,
          "start": 17923
        },
        {
          "length": 20,
          "start": 18103
        },
        {
          "length": 20,
          "start": 27372
        },
        {
          "length": 20,
          "start": 27534
        },
        {
          "length": 20,
          "start": 27729
        }
      ]
    }
  },
  "deployedLinkReferences": {
    "contracts/worksystems/DataArchiving.sol": {
      "AttributeStore4": [
        {
          "length": 20,
          "start": 16640
        },
        {
          "length": 20,
          "start": 18547
        },
        {
          "length": 20,
          "start": 20032
        },
        {
          "length": 20,
          "start": 27518
        },
        {
          "length": 20,
          "start": 27623
        }
      ],
      "DLL4": [
        {
          "length": 20,
          "start": 4767
        },
        {
          "length": 20,
          "start": 4939
        },
        {
          "length": 20,
          "start": 5274
        },
        {
          "length": 20,
          "start": 5833
        },
        {
          "length": 20,
          "start": 17590
        },
        {
          "length": 20,
          "start": 17770
        },
        {
          "length": 20,
          "start": 27039
        },
        {
          "length": 20,
          "start": 27201
        },
        {
          "length": 20,
          "start": 27396
        }
      ]
    }
  }
}